{
	"submissions/0xFancy/dat7.sol": {
		"SimpleIOU": {
			"abi": [
				{
					"inputs": [],
					"stateMutability": "nonpayable",
					"type": "constructor"
				},
				{
					"inputs": [
						{
							"internalType": "address",
							"name": "_friend",
							"type": "address"
						}
					],
					"name": "addFriend",
					"outputs": [],
					"stateMutability": "nonpayable",
					"type": "function"
				},
				{
					"inputs": [
						{
							"internalType": "address",
							"name": "",
							"type": "address"
						}
					],
					"name": "balances",
					"outputs": [
						{
							"internalType": "uint256",
							"name": "",
							"type": "uint256"
						}
					],
					"stateMutability": "view",
					"type": "function"
				},
				{
					"inputs": [],
					"name": "checkBalance",
					"outputs": [
						{
							"internalType": "uint256",
							"name": "",
							"type": "uint256"
						}
					],
					"stateMutability": "view",
					"type": "function"
				},
				{
					"inputs": [
						{
							"internalType": "address",
							"name": "_friend",
							"type": "address"
						}
					],
					"name": "checkDebt",
					"outputs": [
						{
							"internalType": "uint256",
							"name": "",
							"type": "uint256"
						}
					],
					"stateMutability": "view",
					"type": "function"
				},
				{
					"inputs": [],
					"name": "checkFriendList",
					"outputs": [
						{
							"internalType": "address[]",
							"name": "",
							"type": "address[]"
						}
					],
					"stateMutability": "view",
					"type": "function"
				},
				{
					"inputs": [
						{
							"internalType": "address",
							"name": "",
							"type": "address"
						},
						{
							"internalType": "address",
							"name": "",
							"type": "address"
						}
					],
					"name": "debts",
					"outputs": [
						{
							"internalType": "uint256",
							"name": "",
							"type": "uint256"
						}
					],
					"stateMutability": "view",
					"type": "function"
				},
				{
					"inputs": [],
					"name": "depositIntoWallet",
					"outputs": [],
					"stateMutability": "payable",
					"type": "function"
				},
				{
					"inputs": [
						{
							"internalType": "uint256",
							"name": "",
							"type": "uint256"
						}
					],
					"name": "friendList",
					"outputs": [
						{
							"internalType": "address",
							"name": "",
							"type": "address"
						}
					],
					"stateMutability": "view",
					"type": "function"
				},
				{
					"inputs": [],
					"name": "owner",
					"outputs": [
						{
							"internalType": "address",
							"name": "",
							"type": "address"
						}
					],
					"stateMutability": "view",
					"type": "function"
				},
				{
					"inputs": [
						{
							"internalType": "address",
							"name": "_creditor",
							"type": "address"
						},
						{
							"internalType": "uint256",
							"name": "_amount",
							"type": "uint256"
						}
					],
					"name": "payFromWallet",
					"outputs": [],
					"stateMutability": "nonpayable",
					"type": "function"
				},
				{
					"inputs": [
						{
							"internalType": "address",
							"name": "_debtor",
							"type": "address"
						},
						{
							"internalType": "uint256",
							"name": "_amount",
							"type": "uint256"
						}
					],
					"name": "recordDebt",
					"outputs": [],
					"stateMutability": "nonpayable",
					"type": "function"
				},
				{
					"inputs": [
						{
							"internalType": "address",
							"name": "",
							"type": "address"
						}
					],
					"name": "registeredFriends",
					"outputs": [
						{
							"internalType": "bool",
							"name": "",
							"type": "bool"
						}
					],
					"stateMutability": "view",
					"type": "function"
				},
				{
					"inputs": [
						{
							"internalType": "address payable",
							"name": "_to",
							"type": "address"
						},
						{
							"internalType": "uint256",
							"name": "_amount",
							"type": "uint256"
						}
					],
					"name": "transferEther",
					"outputs": [],
					"stateMutability": "nonpayable",
					"type": "function"
				},
				{
					"inputs": [
						{
							"internalType": "address payable",
							"name": "_to",
							"type": "address"
						},
						{
							"internalType": "uint256",
							"name": "_amount",
							"type": "uint256"
						}
					],
					"name": "transferEtherViaCall",
					"outputs": [],
					"stateMutability": "nonpayable",
					"type": "function"
				},
				{
					"inputs": [
						{
							"internalType": "uint256",
							"name": "_amount",
							"type": "uint256"
						}
					],
					"name": "withdraw",
					"outputs": [],
					"stateMutability": "nonpayable",
					"type": "function"
				}
			],
			"devdoc": {
				"kind": "dev",
				"methods": {},
				"version": 1
			},
			"evm": {
				"assembly": "    /* \"submissions/0xFancy/dat7.sol\":57:3748  contract SimpleIOU{... */\n  mstore(0x40, 0x80)\n    /* \"submissions/0xFancy/dat7.sol\":310:441  constructor(){... */\n  callvalue\n  dup1\n  iszero\n  tag_1\n  jumpi\n  revert(0x00, 0x00)\ntag_1:\n  pop\n    /* \"submissions/0xFancy/dat7.sol\":341:351  msg.sender */\n  caller\n    /* \"submissions/0xFancy/dat7.sol\":333:338  owner */\n  0x00\n  0x00\n    /* \"submissions/0xFancy/dat7.sol\":333:351  owner = msg.sender */\n  0x0100\n  exp\n  dup2\n  sload\n  dup2\n  0xffffffffffffffffffffffffffffffffffffffff\n  mul\n  not\n  and\n  swap1\n  dup4\n  0xffffffffffffffffffffffffffffffffffffffff\n  and\n  mul\n  or\n  swap1\n  sstore\n  pop\n    /* \"submissions/0xFancy/dat7.sol\":393:397  true */\n  0x01\n    /* \"submissions/0xFancy/dat7.sol\":361:378  registeredFriends */\n  0x02\n    /* \"submissions/0xFancy/dat7.sol\":361:390  registeredFriends[msg.sender] */\n  0x00\n    /* \"submissions/0xFancy/dat7.sol\":379:389  msg.sender */\n  caller\n    /* \"submissions/0xFancy/dat7.sol\":361:390  registeredFriends[msg.sender] */\n  0xffffffffffffffffffffffffffffffffffffffff\n  and\n  0xffffffffffffffffffffffffffffffffffffffff\n  and\n  dup2\n  mstore\n  0x20\n  add\n  swap1\n  dup2\n  mstore\n  0x20\n  add\n  0x00\n  keccak256\n  0x00\n    /* \"submissions/0xFancy/dat7.sol\":361:397  registeredFriends[msg.sender] = true */\n  0x0100\n  exp\n  dup2\n  sload\n  dup2\n  0xff\n  mul\n  not\n  and\n  swap1\n  dup4\n  iszero\n  iszero\n  mul\n  or\n  swap1\n  sstore\n  pop\n    /* \"submissions/0xFancy/dat7.sol\":407:417  friendList */\n  0x01\n    /* \"submissions/0xFancy/dat7.sol\":423:433  msg.sender */\n  caller\n    /* \"submissions/0xFancy/dat7.sol\":407:434  friendList.push(msg.sender) */\n  swap1\n  dup1\n  0x01\n  dup2\n  sload\n  add\n  dup1\n  dup3\n  sstore\n  dup1\n  swap2\n  pop\n  pop\n  0x01\n  swap1\n  sub\n  swap1\n  0x00\n  mstore\n  keccak256(0x00, 0x20)\n  add\n  0x00\n  swap1\n  swap2\n  swap1\n  swap2\n  swap1\n  swap2\n  0x0100\n  exp\n  dup2\n  sload\n  dup2\n  0xffffffffffffffffffffffffffffffffffffffff\n  mul\n  not\n  and\n  swap1\n  dup4\n  0xffffffffffffffffffffffffffffffffffffffff\n  and\n  mul\n  or\n  swap1\n  sstore\n  pop\n    /* \"submissions/0xFancy/dat7.sol\":57:3748  contract SimpleIOU{... */\n  dataSize(sub_0)\n  dup1\n  dataOffset(sub_0)\n  0x00\n  codecopy\n  0x00\n  return\nstop\n\nsub_0: assembly {\n        /* \"submissions/0xFancy/dat7.sol\":57:3748  contract SimpleIOU{... */\n      mstore(0x40, 0x80)\n      jumpi(tag_1, lt(calldatasize, 0x04))\n      shr(0xe0, calldataload(0x00))\n      dup1\n      0x8da5cb5b\n      gt\n      tag_17\n      jumpi\n      dup1\n      0xd6081fff\n      gt\n      tag_18\n      jumpi\n      dup1\n      0xd6081fff\n      eq\n      tag_13\n      jumpi\n      dup1\n      0xd7a1cfe1\n      eq\n      tag_14\n      jumpi\n      dup1\n      0xe4860841\n      eq\n      tag_15\n      jumpi\n      dup1\n      0xfa74542d\n      eq\n      tag_16\n      jumpi\n      jump(tag_1)\n    tag_18:\n      dup1\n      0x8da5cb5b\n      eq\n      tag_9\n      jumpi\n      dup1\n      0xa49e225a\n      eq\n      tag_10\n      jumpi\n      dup1\n      0xc71daccb\n      eq\n      tag_11\n      jumpi\n      dup1\n      0xcafe82cf\n      eq\n      tag_12\n      jumpi\n      jump(tag_1)\n    tag_17:\n      dup1\n      0x272b39e0\n      gt\n      tag_19\n      jumpi\n      dup1\n      0x272b39e0\n      eq\n      tag_5\n      jumpi\n      dup1\n      0x27e235e3\n      eq\n      tag_6\n      jumpi\n      dup1\n      0x2e1a7d4d\n      eq\n      tag_7\n      jumpi\n      dup1\n      0x4ac1c33d\n      eq\n      tag_8\n      jumpi\n      jump(tag_1)\n    tag_19:\n      dup1\n      0x05b1137b\n      eq\n      tag_2\n      jumpi\n      dup1\n      0x0735f724\n      eq\n      tag_3\n      jumpi\n      dup1\n      0x21668a01\n      eq\n      tag_4\n      jumpi\n    tag_1:\n      revert(0x00, 0x00)\n        /* \"submissions/0xFancy/dat7.sol\":2014:2474  function transferEther(address payable _to, uint256 _amount) public onlyRegistered {... */\n    tag_2:\n      callvalue\n      dup1\n      iszero\n      tag_20\n      jumpi\n      revert(0x00, 0x00)\n    tag_20:\n      pop\n      tag_21\n      0x04\n      dup1\n      calldatasize\n      sub\n      dup2\n      add\n      swap1\n      tag_22\n      swap2\n      swap1\n      tag_23\n      jump\t// in\n    tag_22:\n      tag_24\n      jump\t// in\n    tag_21:\n      stop\n        /* \"submissions/0xFancy/dat7.sol\":3497:3626  function checkDebt(address _friend) public view onlyRegistered returns(uint256){... */\n    tag_3:\n      callvalue\n      dup1\n      iszero\n      tag_25\n      jumpi\n      revert(0x00, 0x00)\n    tag_25:\n      pop\n      tag_26\n      0x04\n      dup1\n      calldatasize\n      sub\n      dup2\n      add\n      swap1\n      tag_27\n      swap2\n      swap1\n      tag_28\n      jump\t// in\n    tag_27:\n      tag_29\n      jump\t// in\n    tag_26:\n      mload(0x40)\n      tag_30\n      swap2\n      swap1\n      tag_31\n      jump\t// in\n    tag_30:\n      mload(0x40)\n      dup1\n      swap2\n      sub\n      swap1\n      return\n        /* \"submissions/0xFancy/dat7.sol\":107:134  address[] public friendList */\n    tag_4:\n      callvalue\n      dup1\n      iszero\n      tag_32\n      jumpi\n      revert(0x00, 0x00)\n    tag_32:\n      pop\n      tag_33\n      0x04\n      dup1\n      calldatasize\n      sub\n      dup2\n      add\n      swap1\n      tag_34\n      swap2\n      swap1\n      tag_35\n      jump\t// in\n    tag_34:\n      tag_36\n      jump\t// in\n    tag_33:\n      mload(0x40)\n      tag_37\n      swap2\n      swap1\n      tag_38\n      jump\t// in\n    tag_37:\n      mload(0x40)\n      dup1\n      swap2\n      sub\n      swap1\n      return\n        /* \"submissions/0xFancy/dat7.sol\":3631:3744  function checkFriendList() public view onlyRegistered returns(address[] memory){... */\n    tag_5:\n      callvalue\n      dup1\n      iszero\n      tag_39\n      jumpi\n      revert(0x00, 0x00)\n    tag_39:\n      pop\n      tag_40\n      tag_41\n      jump\t// in\n    tag_40:\n      mload(0x40)\n      tag_42\n      swap2\n      swap1\n      tag_43\n      jump\t// in\n    tag_42:\n      mload(0x40)\n      dup1\n      swap2\n      sub\n      swap1\n      return\n        /* \"submissions/0xFancy/dat7.sol\":195:238  mapping(address => uint256) public balances */\n    tag_6:\n      callvalue\n      dup1\n      iszero\n      tag_44\n      jumpi\n      revert(0x00, 0x00)\n    tag_44:\n      pop\n      tag_45\n      0x04\n      dup1\n      calldatasize\n      sub\n      dup2\n      add\n      swap1\n      tag_46\n      swap2\n      swap1\n      tag_28\n      jump\t// in\n    tag_46:\n      tag_47\n      jump\t// in\n    tag_45:\n      mload(0x40)\n      tag_48\n      swap2\n      swap1\n      tag_31\n      jump\t// in\n    tag_48:\n      mload(0x40)\n      dup1\n      swap2\n      sub\n      swap1\n      return\n        /* \"submissions/0xFancy/dat7.sol\":3028:3376  function withdraw(uint256 _amount) public onlyRegistered {... */\n    tag_7:\n      callvalue\n      dup1\n      iszero\n      tag_49\n      jumpi\n      revert(0x00, 0x00)\n    tag_49:\n      pop\n      tag_50\n      0x04\n      dup1\n      calldatasize\n      sub\n      dup2\n      add\n      swap1\n      tag_51\n      swap2\n      swap1\n      tag_35\n      jump\t// in\n    tag_51:\n      tag_52\n      jump\t// in\n    tag_50:\n      stop\n        /* \"submissions/0xFancy/dat7.sol\":244:304  mapping(address => mapping(address => uint256)) public debts */\n    tag_8:\n      callvalue\n      dup1\n      iszero\n      tag_53\n      jumpi\n      revert(0x00, 0x00)\n    tag_53:\n      pop\n      tag_54\n      0x04\n      dup1\n      calldatasize\n      sub\n      dup2\n      add\n      swap1\n      tag_55\n      swap2\n      swap1\n      tag_56\n      jump\t// in\n    tag_55:\n      tag_57\n      jump\t// in\n    tag_54:\n      mload(0x40)\n      tag_58\n      swap2\n      swap1\n      tag_31\n      jump\t// in\n    tag_58:\n      mload(0x40)\n      dup1\n      swap2\n      sub\n      swap1\n      return\n        /* \"submissions/0xFancy/dat7.sol\":81:101  address public owner */\n    tag_9:\n      callvalue\n      dup1\n      iszero\n      tag_59\n      jumpi\n      revert(0x00, 0x00)\n    tag_59:\n      pop\n      tag_60\n      tag_61\n      jump\t// in\n    tag_60:\n      mload(0x40)\n      tag_62\n      swap2\n      swap1\n      tag_38\n      jump\t// in\n    tag_62:\n      mload(0x40)\n      dup1\n      swap2\n      sub\n      swap1\n      return\n        /* \"submissions/0xFancy/dat7.sol\":1433:2009  function payFromWallet(address _creditor, uint256 _amount) public onlyRegistered{... */\n    tag_10:\n      callvalue\n      dup1\n      iszero\n      tag_63\n      jumpi\n      revert(0x00, 0x00)\n    tag_63:\n      pop\n      tag_64\n      0x04\n      dup1\n      calldatasize\n      sub\n      dup2\n      add\n      swap1\n      tag_65\n      swap2\n      swap1\n      tag_66\n      jump\t// in\n    tag_65:\n      tag_67\n      jump\t// in\n    tag_64:\n      stop\n        /* \"submissions/0xFancy/dat7.sol\":3381:3492  function checkBalance() public view onlyRegistered returns(uint256){... */\n    tag_11:\n      callvalue\n      dup1\n      iszero\n      tag_68\n      jumpi\n      revert(0x00, 0x00)\n    tag_68:\n      pop\n      tag_69\n      tag_70\n      jump\t// in\n    tag_69:\n      mload(0x40)\n      tag_71\n      swap2\n      swap1\n      tag_31\n      jump\t// in\n    tag_71:\n      mload(0x40)\n      dup1\n      swap2\n      sub\n      swap1\n      return\n        /* \"submissions/0xFancy/dat7.sol\":939:1098  function depositIntoWallet() public payable onlyRegistered {... */\n    tag_12:\n      tag_72\n      tag_73\n      jump\t// in\n    tag_72:\n      stop\n        /* \"submissions/0xFancy/dat7.sol\":2480:3023  function transferEtherViaCall(address payable _to, uint256 _amount) public onlyRegistered {... */\n    tag_13:\n      callvalue\n      dup1\n      iszero\n      tag_74\n      jumpi\n      revert(0x00, 0x00)\n    tag_74:\n      pop\n      tag_75\n      0x04\n      dup1\n      calldatasize\n      sub\n      dup2\n      add\n      swap1\n      tag_76\n      swap2\n      swap1\n      tag_23\n      jump\t// in\n    tag_76:\n      tag_77\n      jump\t// in\n    tag_75:\n      stop\n        /* \"submissions/0xFancy/dat7.sol\":668:934  function addFriend(address _friend) public onlyOwner {... */\n    tag_14:\n      callvalue\n      dup1\n      iszero\n      tag_78\n      jumpi\n      revert(0x00, 0x00)\n    tag_78:\n      pop\n      tag_79\n      0x04\n      dup1\n      calldatasize\n      sub\n      dup2\n      add\n      swap1\n      tag_80\n      swap2\n      swap1\n      tag_28\n      jump\t// in\n    tag_80:\n      tag_81\n      jump\t// in\n    tag_79:\n      stop\n        /* \"submissions/0xFancy/dat7.sol\":140:189  mapping(address => bool) public registeredFriends */\n    tag_15:\n      callvalue\n      dup1\n      iszero\n      tag_82\n      jumpi\n      revert(0x00, 0x00)\n    tag_82:\n      pop\n      tag_83\n      0x04\n      dup1\n      calldatasize\n      sub\n      dup2\n      add\n      swap1\n      tag_84\n      swap2\n      swap1\n      tag_28\n      jump\t// in\n    tag_84:\n      tag_85\n      jump\t// in\n    tag_83:\n      mload(0x40)\n      tag_86\n      swap2\n      swap1\n      tag_87\n      jump\t// in\n    tag_86:\n      mload(0x40)\n      dup1\n      swap2\n      sub\n      swap1\n      return\n        /* \"submissions/0xFancy/dat7.sol\":1103:1428  function recordDebt(address _debtor, uint256 _amount) public onlyRegistered {... */\n    tag_16:\n      callvalue\n      dup1\n      iszero\n      tag_88\n      jumpi\n      revert(0x00, 0x00)\n    tag_88:\n      pop\n      tag_89\n      0x04\n      dup1\n      calldatasize\n      sub\n      dup2\n      add\n      swap1\n      tag_90\n      swap2\n      swap1\n      tag_66\n      jump\t// in\n    tag_90:\n      tag_91\n      jump\t// in\n    tag_89:\n      stop\n        /* \"submissions/0xFancy/dat7.sol\":2014:2474  function transferEther(address payable _to, uint256 _amount) public onlyRegistered {... */\n    tag_24:\n        /* \"submissions/0xFancy/dat7.sol\":587:604  registeredFriends */\n      0x02\n        /* \"submissions/0xFancy/dat7.sol\":587:616  registeredFriends[msg.sender] */\n      0x00\n        /* \"submissions/0xFancy/dat7.sol\":605:615  msg.sender */\n      caller\n        /* \"submissions/0xFancy/dat7.sol\":587:616  registeredFriends[msg.sender] */\n      0xffffffffffffffffffffffffffffffffffffffff\n      and\n      0xffffffffffffffffffffffffffffffffffffffff\n      and\n      dup2\n      mstore\n      0x20\n      add\n      swap1\n      dup2\n      mstore\n      0x20\n      add\n      0x00\n      keccak256\n      0x00\n      swap1\n      sload\n      swap1\n      0x0100\n      exp\n      swap1\n      div\n      0xff\n      and\n        /* \"submissions/0xFancy/dat7.sol\":579:644  require(registeredFriends[msg.sender], \"you are not registered.\") */\n      tag_93\n      jumpi\n      mload(0x40)\n      0x08c379a000000000000000000000000000000000000000000000000000000000\n      dup2\n      mstore\n      0x04\n      add\n      tag_94\n      swap1\n      tag_95\n      jump\t// in\n    tag_94:\n      mload(0x40)\n      dup1\n      swap2\n      sub\n      swap1\n      revert\n    tag_93:\n        /* \"submissions/0xFancy/dat7.sol\":2130:2131  0 */\n      0x00\n        /* \"submissions/0xFancy/dat7.sol\":2115:2132  _to != address(0) */\n      0xffffffffffffffffffffffffffffffffffffffff\n      and\n        /* \"submissions/0xFancy/dat7.sol\":2115:2118  _to */\n      dup3\n        /* \"submissions/0xFancy/dat7.sol\":2115:2132  _to != address(0) */\n      0xffffffffffffffffffffffffffffffffffffffff\n      and\n      sub\n        /* \"submissions/0xFancy/dat7.sol\":2107:2153  require(_to != address(0), \"Invalid address.\") */\n      tag_97\n      jumpi\n      mload(0x40)\n      0x08c379a000000000000000000000000000000000000000000000000000000000\n      dup2\n      mstore\n      0x04\n      add\n      tag_98\n      swap1\n      tag_99\n      jump\t// in\n    tag_98:\n      mload(0x40)\n      dup1\n      swap2\n      sub\n      swap1\n      revert\n    tag_97:\n        /* \"submissions/0xFancy/dat7.sol\":2171:2188  registeredFriends */\n      0x02\n        /* \"submissions/0xFancy/dat7.sol\":2171:2193  registeredFriends[_to] */\n      0x00\n        /* \"submissions/0xFancy/dat7.sol\":2189:2192  _to */\n      dup4\n        /* \"submissions/0xFancy/dat7.sol\":2171:2193  registeredFriends[_to] */\n      0xffffffffffffffffffffffffffffffffffffffff\n      and\n      0xffffffffffffffffffffffffffffffffffffffff\n      and\n      dup2\n      mstore\n      0x20\n      add\n      swap1\n      dup2\n      mstore\n      0x20\n      add\n      0x00\n      keccak256\n      0x00\n      swap1\n      sload\n      swap1\n      0x0100\n      exp\n      swap1\n      div\n      0xff\n      and\n        /* \"submissions/0xFancy/dat7.sol\":2163:2222  require(registeredFriends[_to], \"Recipient not registered\") */\n      tag_100\n      jumpi\n      mload(0x40)\n      0x08c379a000000000000000000000000000000000000000000000000000000000\n      dup2\n      mstore\n      0x04\n      add\n      tag_101\n      swap1\n      tag_102\n      jump\t// in\n    tag_101:\n      mload(0x40)\n      dup1\n      swap2\n      sub\n      swap1\n      revert\n    tag_100:\n        /* \"submissions/0xFancy/dat7.sol\":2250:2251  0 */\n      0x00\n        /* \"submissions/0xFancy/dat7.sol\":2240:2247  _amount */\n      dup2\n        /* \"submissions/0xFancy/dat7.sol\":2240:2251  _amount > 0 */\n      gt\n        /* \"submissions/0xFancy/dat7.sol\":2232:2286  require(_amount > 0, \"Amount must be greater than 0.\") */\n      tag_103\n      jumpi\n      mload(0x40)\n      0x08c379a000000000000000000000000000000000000000000000000000000000\n      dup2\n      mstore\n      0x04\n      add\n      tag_104\n      swap1\n      tag_105\n      jump\t// in\n    tag_104:\n      mload(0x40)\n      dup1\n      swap2\n      sub\n      swap1\n      revert\n    tag_103:\n        /* \"submissions/0xFancy/dat7.sol\":2328:2335  _amount */\n      dup1\n        /* \"submissions/0xFancy/dat7.sol\":2304:2312  balances */\n      0x03\n        /* \"submissions/0xFancy/dat7.sol\":2304:2324  balances[msg.sender] */\n      0x00\n        /* \"submissions/0xFancy/dat7.sol\":2313:2323  msg.sender */\n      caller\n        /* \"submissions/0xFancy/dat7.sol\":2304:2324  balances[msg.sender] */\n      0xffffffffffffffffffffffffffffffffffffffff\n      and\n      0xffffffffffffffffffffffffffffffffffffffff\n      and\n      dup2\n      mstore\n      0x20\n      add\n      swap1\n      dup2\n      mstore\n      0x20\n      add\n      0x00\n      keccak256\n      sload\n        /* \"submissions/0xFancy/dat7.sol\":2304:2335  balances[msg.sender] >= _amount */\n      lt\n      iszero\n        /* \"submissions/0xFancy/dat7.sol\":2296:2361  require(balances[msg.sender] >= _amount, \"Insufficient balance.\") */\n      tag_106\n      jumpi\n      mload(0x40)\n      0x08c379a000000000000000000000000000000000000000000000000000000000\n      dup2\n      mstore\n      0x04\n      add\n      tag_107\n      swap1\n      tag_108\n      jump\t// in\n    tag_107:\n      mload(0x40)\n      dup1\n      swap2\n      sub\n      swap1\n      revert\n    tag_106:\n        /* \"submissions/0xFancy/dat7.sol\":2395:2402  _amount */\n      dup1\n        /* \"submissions/0xFancy/dat7.sol\":2371:2379  balances */\n      0x03\n        /* \"submissions/0xFancy/dat7.sol\":2371:2391  balances[msg.sender] */\n      0x00\n        /* \"submissions/0xFancy/dat7.sol\":2380:2390  msg.sender */\n      caller\n        /* \"submissions/0xFancy/dat7.sol\":2371:2391  balances[msg.sender] */\n      0xffffffffffffffffffffffffffffffffffffffff\n      and\n      0xffffffffffffffffffffffffffffffffffffffff\n      and\n      dup2\n      mstore\n      0x20\n      add\n      swap1\n      dup2\n      mstore\n      0x20\n      add\n      0x00\n      keccak256\n      0x00\n        /* \"submissions/0xFancy/dat7.sol\":2371:2402  balances[msg.sender] -= _amount */\n      dup3\n      dup3\n      sload\n      tag_109\n      swap2\n      swap1\n      tag_110\n      jump\t// in\n    tag_109:\n      swap3\n      pop\n      pop\n      dup2\n      swap1\n      sstore\n      pop\n        /* \"submissions/0xFancy/dat7.sol\":2429:2436  _amount */\n      dup1\n        /* \"submissions/0xFancy/dat7.sol\":2412:2420  balances */\n      0x03\n        /* \"submissions/0xFancy/dat7.sol\":2412:2425  balances[_to] */\n      0x00\n        /* \"submissions/0xFancy/dat7.sol\":2421:2424  _to */\n      dup5\n        /* \"submissions/0xFancy/dat7.sol\":2412:2425  balances[_to] */\n      0xffffffffffffffffffffffffffffffffffffffff\n      and\n      0xffffffffffffffffffffffffffffffffffffffff\n      and\n      dup2\n      mstore\n      0x20\n      add\n      swap1\n      dup2\n      mstore\n      0x20\n      add\n      0x00\n      keccak256\n      0x00\n        /* \"submissions/0xFancy/dat7.sol\":2412:2436  balances[_to] += _amount */\n      dup3\n      dup3\n      sload\n      tag_111\n      swap2\n      swap1\n      tag_112\n      jump\t// in\n    tag_111:\n      swap3\n      pop\n      pop\n      dup2\n      swap1\n      sstore\n      pop\n        /* \"submissions/0xFancy/dat7.sol\":2446:2449  _to */\n      dup2\n        /* \"submissions/0xFancy/dat7.sol\":2446:2458  _to.transfer */\n      0xffffffffffffffffffffffffffffffffffffffff\n      and\n        /* \"submissions/0xFancy/dat7.sol\":2446:2467  _to.transfer(_amount) */\n      0x08fc\n        /* \"submissions/0xFancy/dat7.sol\":2459:2466  _amount */\n      dup3\n        /* \"submissions/0xFancy/dat7.sol\":2446:2467  _to.transfer(_amount) */\n      swap1\n      dup2\n      iszero\n      mul\n      swap1\n      mload(0x40)\n      0x00\n      mload(0x40)\n      dup1\n      dup4\n      sub\n      dup2\n      dup6\n      dup9\n      dup9\n      call\n      swap4\n      pop\n      pop\n      pop\n      pop\n      iszero\n      dup1\n      iszero\n      tag_114\n      jumpi\n      returndatacopy(0x00, 0x00, returndatasize)\n      revert(0x00, returndatasize)\n    tag_114:\n      pop\n        /* \"submissions/0xFancy/dat7.sol\":2014:2474  function transferEther(address payable _to, uint256 _amount) public onlyRegistered {... */\n      pop\n      pop\n      jump\t// out\n        /* \"submissions/0xFancy/dat7.sol\":3497:3626  function checkDebt(address _friend) public view onlyRegistered returns(uint256){... */\n    tag_29:\n        /* \"submissions/0xFancy/dat7.sol\":3568:3575  uint256 */\n      0x00\n        /* \"submissions/0xFancy/dat7.sol\":587:604  registeredFriends */\n      0x02\n        /* \"submissions/0xFancy/dat7.sol\":587:616  registeredFriends[msg.sender] */\n      0x00\n        /* \"submissions/0xFancy/dat7.sol\":605:615  msg.sender */\n      caller\n        /* \"submissions/0xFancy/dat7.sol\":587:616  registeredFriends[msg.sender] */\n      0xffffffffffffffffffffffffffffffffffffffff\n      and\n      0xffffffffffffffffffffffffffffffffffffffff\n      and\n      dup2\n      mstore\n      0x20\n      add\n      swap1\n      dup2\n      mstore\n      0x20\n      add\n      0x00\n      keccak256\n      0x00\n      swap1\n      sload\n      swap1\n      0x0100\n      exp\n      swap1\n      div\n      0xff\n      and\n        /* \"submissions/0xFancy/dat7.sol\":579:644  require(registeredFriends[msg.sender], \"you are not registered.\") */\n      tag_116\n      jumpi\n      mload(0x40)\n      0x08c379a000000000000000000000000000000000000000000000000000000000\n      dup2\n      mstore\n      0x04\n      add\n      tag_117\n      swap1\n      tag_95\n      jump\t// in\n    tag_117:\n      mload(0x40)\n      dup1\n      swap2\n      sub\n      swap1\n      revert\n    tag_116:\n        /* \"submissions/0xFancy/dat7.sol\":3593:3598  debts */\n      0x04\n        /* \"submissions/0xFancy/dat7.sol\":3593:3610  debts[msg.sender] */\n      0x00\n        /* \"submissions/0xFancy/dat7.sol\":3599:3609  msg.sender */\n      caller\n        /* \"submissions/0xFancy/dat7.sol\":3593:3610  debts[msg.sender] */\n      0xffffffffffffffffffffffffffffffffffffffff\n      and\n      0xffffffffffffffffffffffffffffffffffffffff\n      and\n      dup2\n      mstore\n      0x20\n      add\n      swap1\n      dup2\n      mstore\n      0x20\n      add\n      0x00\n      keccak256\n        /* \"submissions/0xFancy/dat7.sol\":3593:3619  debts[msg.sender][_friend] */\n      0x00\n        /* \"submissions/0xFancy/dat7.sol\":3611:3618  _friend */\n      dup4\n        /* \"submissions/0xFancy/dat7.sol\":3593:3619  debts[msg.sender][_friend] */\n      0xffffffffffffffffffffffffffffffffffffffff\n      and\n      0xffffffffffffffffffffffffffffffffffffffff\n      and\n      dup2\n      mstore\n      0x20\n      add\n      swap1\n      dup2\n      mstore\n      0x20\n      add\n      0x00\n      keccak256\n      sload\n        /* \"submissions/0xFancy/dat7.sol\":3586:3619  return debts[msg.sender][_friend] */\n      swap1\n      pop\n        /* \"submissions/0xFancy/dat7.sol\":3497:3626  function checkDebt(address _friend) public view onlyRegistered returns(uint256){... */\n      swap2\n      swap1\n      pop\n      jump\t// out\n        /* \"submissions/0xFancy/dat7.sol\":107:134  address[] public friendList */\n    tag_36:\n      0x01\n      dup2\n      dup2\n      sload\n      dup2\n      lt\n      tag_119\n      jumpi\n      0x00\n      dup1\n      revert\n    tag_119:\n      swap1\n      0x00\n      mstore\n      keccak256(0x00, 0x20)\n      add\n      0x00\n      swap2\n      pop\n      sload\n      swap1\n      0x0100\n      exp\n      swap1\n      div\n      0xffffffffffffffffffffffffffffffffffffffff\n      and\n      dup2\n      jump\t// out\n        /* \"submissions/0xFancy/dat7.sol\":3631:3744  function checkFriendList() public view onlyRegistered returns(address[] memory){... */\n    tag_41:\n        /* \"submissions/0xFancy/dat7.sol\":3693:3709  address[] memory */\n      0x60\n        /* \"submissions/0xFancy/dat7.sol\":587:604  registeredFriends */\n      0x02\n        /* \"submissions/0xFancy/dat7.sol\":587:616  registeredFriends[msg.sender] */\n      0x00\n        /* \"submissions/0xFancy/dat7.sol\":605:615  msg.sender */\n      caller\n        /* \"submissions/0xFancy/dat7.sol\":587:616  registeredFriends[msg.sender] */\n      0xffffffffffffffffffffffffffffffffffffffff\n      and\n      0xffffffffffffffffffffffffffffffffffffffff\n      and\n      dup2\n      mstore\n      0x20\n      add\n      swap1\n      dup2\n      mstore\n      0x20\n      add\n      0x00\n      keccak256\n      0x00\n      swap1\n      sload\n      swap1\n      0x0100\n      exp\n      swap1\n      div\n      0xff\n      and\n        /* \"submissions/0xFancy/dat7.sol\":579:644  require(registeredFriends[msg.sender], \"you are not registered.\") */\n      tag_122\n      jumpi\n      mload(0x40)\n      0x08c379a000000000000000000000000000000000000000000000000000000000\n      dup2\n      mstore\n      0x04\n      add\n      tag_123\n      swap1\n      tag_95\n      jump\t// in\n    tag_123:\n      mload(0x40)\n      dup1\n      swap2\n      sub\n      swap1\n      revert\n    tag_122:\n        /* \"submissions/0xFancy/dat7.sol\":3727:3737  friendList */\n      0x01\n        /* \"submissions/0xFancy/dat7.sol\":3720:3737  return friendList */\n      dup1\n      sload\n      dup1\n      0x20\n      mul\n      0x20\n      add\n      mload(0x40)\n      swap1\n      dup2\n      add\n      0x40\n      mstore\n      dup1\n      swap3\n      swap2\n      swap1\n      dup2\n      dup2\n      mstore\n      0x20\n      add\n      dup3\n      dup1\n      sload\n      dup1\n      iszero\n      tag_125\n      jumpi\n      0x20\n      mul\n      dup3\n      add\n      swap2\n      swap1\n      0x00\n      mstore\n      keccak256(0x00, 0x20)\n      swap1\n    tag_126:\n      dup2\n      0x00\n      swap1\n      sload\n      swap1\n      0x0100\n      exp\n      swap1\n      div\n      0xffffffffffffffffffffffffffffffffffffffff\n      and\n      0xffffffffffffffffffffffffffffffffffffffff\n      and\n      dup2\n      mstore\n      0x20\n      add\n      swap1\n      0x01\n      add\n      swap1\n      dup1\n      dup4\n      gt\n      tag_126\n      jumpi\n    tag_125:\n      pop\n      pop\n      pop\n      pop\n      pop\n      swap1\n      pop\n        /* \"submissions/0xFancy/dat7.sol\":3631:3744  function checkFriendList() public view onlyRegistered returns(address[] memory){... */\n      swap1\n      jump\t// out\n        /* \"submissions/0xFancy/dat7.sol\":195:238  mapping(address => uint256) public balances */\n    tag_47:\n      mstore(0x20, 0x03)\n      dup1\n      0x00\n      mstore\n      keccak256(0x00, 0x40)\n      0x00\n      swap2\n      pop\n      swap1\n      pop\n      sload\n      dup2\n      jump\t// out\n        /* \"submissions/0xFancy/dat7.sol\":3028:3376  function withdraw(uint256 _amount) public onlyRegistered {... */\n    tag_52:\n        /* \"submissions/0xFancy/dat7.sol\":587:604  registeredFriends */\n      0x02\n        /* \"submissions/0xFancy/dat7.sol\":587:616  registeredFriends[msg.sender] */\n      0x00\n        /* \"submissions/0xFancy/dat7.sol\":605:615  msg.sender */\n      caller\n        /* \"submissions/0xFancy/dat7.sol\":587:616  registeredFriends[msg.sender] */\n      0xffffffffffffffffffffffffffffffffffffffff\n      and\n      0xffffffffffffffffffffffffffffffffffffffff\n      and\n      dup2\n      mstore\n      0x20\n      add\n      swap1\n      dup2\n      mstore\n      0x20\n      add\n      0x00\n      keccak256\n      0x00\n      swap1\n      sload\n      swap1\n      0x0100\n      exp\n      swap1\n      div\n      0xff\n      and\n        /* \"submissions/0xFancy/dat7.sol\":579:644  require(registeredFriends[msg.sender], \"you are not registered.\") */\n      tag_128\n      jumpi\n      mload(0x40)\n      0x08c379a000000000000000000000000000000000000000000000000000000000\n      dup2\n      mstore\n      0x04\n      add\n      tag_129\n      swap1\n      tag_95\n      jump\t// in\n    tag_129:\n      mload(0x40)\n      dup1\n      swap2\n      sub\n      swap1\n      revert\n    tag_128:\n        /* \"submissions/0xFancy/dat7.sol\":3127:3134  _amount */\n      dup1\n        /* \"submissions/0xFancy/dat7.sol\":3103:3111  balances */\n      0x03\n        /* \"submissions/0xFancy/dat7.sol\":3103:3123  balances[msg.sender] */\n      0x00\n        /* \"submissions/0xFancy/dat7.sol\":3112:3122  msg.sender */\n      caller\n        /* \"submissions/0xFancy/dat7.sol\":3103:3123  balances[msg.sender] */\n      0xffffffffffffffffffffffffffffffffffffffff\n      and\n      0xffffffffffffffffffffffffffffffffffffffff\n      and\n      dup2\n      mstore\n      0x20\n      add\n      swap1\n      dup2\n      mstore\n      0x20\n      add\n      0x00\n      keccak256\n      sload\n        /* \"submissions/0xFancy/dat7.sol\":3103:3134  balances[msg.sender] >= _amount */\n      lt\n      iszero\n        /* \"submissions/0xFancy/dat7.sol\":3095:3160  require(balances[msg.sender] >= _amount, \"Insufficient balance.\") */\n      tag_131\n      jumpi\n      mload(0x40)\n      0x08c379a000000000000000000000000000000000000000000000000000000000\n      dup2\n      mstore\n      0x04\n      add\n      tag_132\n      swap1\n      tag_108\n      jump\t// in\n    tag_132:\n      mload(0x40)\n      dup1\n      swap2\n      sub\n      swap1\n      revert\n    tag_131:\n        /* \"submissions/0xFancy/dat7.sol\":3194:3201  _amount */\n      dup1\n        /* \"submissions/0xFancy/dat7.sol\":3170:3178  balances */\n      0x03\n        /* \"submissions/0xFancy/dat7.sol\":3170:3190  balances[msg.sender] */\n      0x00\n        /* \"submissions/0xFancy/dat7.sol\":3179:3189  msg.sender */\n      caller\n        /* \"submissions/0xFancy/dat7.sol\":3170:3190  balances[msg.sender] */\n      0xffffffffffffffffffffffffffffffffffffffff\n      and\n      0xffffffffffffffffffffffffffffffffffffffff\n      and\n      dup2\n      mstore\n      0x20\n      add\n      swap1\n      dup2\n      mstore\n      0x20\n      add\n      0x00\n      keccak256\n      0x00\n        /* \"submissions/0xFancy/dat7.sol\":3170:3201  balances[msg.sender] -= _amount */\n      dup3\n      dup3\n      sload\n      tag_133\n      swap2\n      swap1\n      tag_110\n      jump\t// in\n    tag_133:\n      swap3\n      pop\n      pop\n      dup2\n      swap1\n      sstore\n      pop\n        /* \"submissions/0xFancy/dat7.sol\":3261:3273  bool success */\n      0x00\n        /* \"submissions/0xFancy/dat7.sol\":3287:3297  msg.sender */\n      caller\n        /* \"submissions/0xFancy/dat7.sol\":3279:3303  payable(msg.sender).call */\n      0xffffffffffffffffffffffffffffffffffffffff\n      and\n        /* \"submissions/0xFancy/dat7.sol\":3311:3318  _amount */\n      dup3\n        /* \"submissions/0xFancy/dat7.sol\":3279:3323  payable(msg.sender).call{value: _amount}(\"\") */\n      mload(0x40)\n      tag_134\n      swap1\n      tag_135\n      jump\t// in\n    tag_134:\n      0x00\n      mload(0x40)\n      dup1\n      dup4\n      sub\n      dup2\n      dup6\n      dup8\n      gas\n      call\n      swap3\n      pop\n      pop\n      pop\n      returndatasize\n      dup1\n      0x00\n      dup2\n      eq\n      tag_138\n      jumpi\n      mload(0x40)\n      swap2\n      pop\n      and(add(returndatasize, 0x3f), not(0x1f))\n      dup3\n      add\n      0x40\n      mstore\n      returndatasize\n      dup3\n      mstore\n      returndatasize\n      0x00\n      0x20\n      dup5\n      add\n      returndatacopy\n      jump(tag_137)\n    tag_138:\n      0x60\n      swap2\n      pop\n    tag_137:\n      pop\n        /* \"submissions/0xFancy/dat7.sol\":3260:3323  (bool success, ) = payable(msg.sender).call{value: _amount}(\"\") */\n      pop\n      swap1\n      pop\n        /* \"submissions/0xFancy/dat7.sol\":3341:3348  success */\n      dup1\n        /* \"submissions/0xFancy/dat7.sol\":3333:3369  require(success, \"Transfer failed.\") */\n      tag_139\n      jumpi\n      mload(0x40)\n      0x08c379a000000000000000000000000000000000000000000000000000000000\n      dup2\n      mstore\n      0x04\n      add\n      tag_140\n      swap1\n      tag_141\n      jump\t// in\n    tag_140:\n      mload(0x40)\n      dup1\n      swap2\n      sub\n      swap1\n      revert\n    tag_139:\n        /* \"submissions/0xFancy/dat7.sol\":3085:3376  {... */\n      pop\n        /* \"submissions/0xFancy/dat7.sol\":3028:3376  function withdraw(uint256 _amount) public onlyRegistered {... */\n      pop\n      jump\t// out\n        /* \"submissions/0xFancy/dat7.sol\":244:304  mapping(address => mapping(address => uint256)) public debts */\n    tag_57:\n      mstore(0x20, 0x04)\n      dup2\n      0x00\n      mstore\n      mstore(0x20, keccak256(0x00, 0x40))\n      dup1\n      0x00\n      mstore\n      keccak256(0x00, 0x40)\n      0x00\n      swap2\n      pop\n      swap2\n      pop\n      pop\n      sload\n      dup2\n      jump\t// out\n        /* \"submissions/0xFancy/dat7.sol\":81:101  address public owner */\n    tag_61:\n      0x00\n      0x00\n      swap1\n      sload\n      swap1\n      0x0100\n      exp\n      swap1\n      div\n      0xffffffffffffffffffffffffffffffffffffffff\n      and\n      dup2\n      jump\t// out\n        /* \"submissions/0xFancy/dat7.sol\":1433:2009  function payFromWallet(address _creditor, uint256 _amount) public onlyRegistered{... */\n    tag_67:\n        /* \"submissions/0xFancy/dat7.sol\":587:604  registeredFriends */\n      0x02\n        /* \"submissions/0xFancy/dat7.sol\":587:616  registeredFriends[msg.sender] */\n      0x00\n        /* \"submissions/0xFancy/dat7.sol\":605:615  msg.sender */\n      caller\n        /* \"submissions/0xFancy/dat7.sol\":587:616  registeredFriends[msg.sender] */\n      0xffffffffffffffffffffffffffffffffffffffff\n      and\n      0xffffffffffffffffffffffffffffffffffffffff\n      and\n      dup2\n      mstore\n      0x20\n      add\n      swap1\n      dup2\n      mstore\n      0x20\n      add\n      0x00\n      keccak256\n      0x00\n      swap1\n      sload\n      swap1\n      0x0100\n      exp\n      swap1\n      div\n      0xff\n      and\n        /* \"submissions/0xFancy/dat7.sol\":579:644  require(registeredFriends[msg.sender], \"you are not registered.\") */\n      tag_143\n      jumpi\n      mload(0x40)\n      0x08c379a000000000000000000000000000000000000000000000000000000000\n      dup2\n      mstore\n      0x04\n      add\n      tag_144\n      swap1\n      tag_95\n      jump\t// in\n    tag_144:\n      mload(0x40)\n      dup1\n      swap2\n      sub\n      swap1\n      revert\n    tag_143:\n        /* \"submissions/0xFancy/dat7.sol\":1552:1553  0 */\n      0x00\n        /* \"submissions/0xFancy/dat7.sol\":1531:1554  _creditor != address(0) */\n      0xffffffffffffffffffffffffffffffffffffffff\n      and\n        /* \"submissions/0xFancy/dat7.sol\":1531:1540  _creditor */\n      dup3\n        /* \"submissions/0xFancy/dat7.sol\":1531:1554  _creditor != address(0) */\n      0xffffffffffffffffffffffffffffffffffffffff\n      and\n      sub\n        /* \"submissions/0xFancy/dat7.sol\":1523:1575  require(_creditor != address(0), \"Invalid address.\") */\n      tag_146\n      jumpi\n      mload(0x40)\n      0x08c379a000000000000000000000000000000000000000000000000000000000\n      dup2\n      mstore\n      0x04\n      add\n      tag_147\n      swap1\n      tag_99\n      jump\t// in\n    tag_147:\n      mload(0x40)\n      dup1\n      swap2\n      sub\n      swap1\n      revert\n    tag_146:\n        /* \"submissions/0xFancy/dat7.sol\":1594:1611  registeredFriends */\n      0x02\n        /* \"submissions/0xFancy/dat7.sol\":1594:1622  registeredFriends[_creditor] */\n      0x00\n        /* \"submissions/0xFancy/dat7.sol\":1612:1621  _creditor */\n      dup4\n        /* \"submissions/0xFancy/dat7.sol\":1594:1622  registeredFriends[_creditor] */\n      0xffffffffffffffffffffffffffffffffffffffff\n      and\n      0xffffffffffffffffffffffffffffffffffffffff\n      and\n      dup2\n      mstore\n      0x20\n      add\n      swap1\n      dup2\n      mstore\n      0x20\n      add\n      0x00\n      keccak256\n      0x00\n      swap1\n      sload\n      swap1\n      0x0100\n      exp\n      swap1\n      div\n      0xff\n      and\n        /* \"submissions/0xFancy/dat7.sol\":1586:1649  require(registeredFriends[_creditor], \"Address not registered\") */\n      tag_148\n      jumpi\n      mload(0x40)\n      0x08c379a000000000000000000000000000000000000000000000000000000000\n      dup2\n      mstore\n      0x04\n      add\n      tag_149\n      swap1\n      tag_150\n      jump\t// in\n    tag_149:\n      mload(0x40)\n      dup1\n      swap2\n      sub\n      swap1\n      revert\n    tag_148:\n        /* \"submissions/0xFancy/dat7.sol\":1677:1678  0 */\n      0x00\n        /* \"submissions/0xFancy/dat7.sol\":1667:1674  _amount */\n      dup2\n        /* \"submissions/0xFancy/dat7.sol\":1667:1678  _amount > 0 */\n      gt\n        /* \"submissions/0xFancy/dat7.sol\":1659:1713  require(_amount > 0, \"Amount must be greater than 0.\") */\n      tag_151\n      jumpi\n      mload(0x40)\n      0x08c379a000000000000000000000000000000000000000000000000000000000\n      dup2\n      mstore\n      0x04\n      add\n      tag_152\n      swap1\n      tag_105\n      jump\t// in\n    tag_152:\n      mload(0x40)\n      dup1\n      swap2\n      sub\n      swap1\n      revert\n    tag_151:\n        /* \"submissions/0xFancy/dat7.sol\":1755:1762  _amount */\n      dup1\n        /* \"submissions/0xFancy/dat7.sol\":1731:1739  balances */\n      0x03\n        /* \"submissions/0xFancy/dat7.sol\":1731:1751  balances[msg.sender] */\n      0x00\n        /* \"submissions/0xFancy/dat7.sol\":1740:1750  msg.sender */\n      caller\n        /* \"submissions/0xFancy/dat7.sol\":1731:1751  balances[msg.sender] */\n      0xffffffffffffffffffffffffffffffffffffffff\n      and\n      0xffffffffffffffffffffffffffffffffffffffff\n      and\n      dup2\n      mstore\n      0x20\n      add\n      swap1\n      dup2\n      mstore\n      0x20\n      add\n      0x00\n      keccak256\n      sload\n        /* \"submissions/0xFancy/dat7.sol\":1731:1762  balances[msg.sender] >= _amount */\n      lt\n      iszero\n        /* \"submissions/0xFancy/dat7.sol\":1723:1788  require(balances[msg.sender] >= _amount, \"Insufficient balance.\") */\n      tag_153\n      jumpi\n      mload(0x40)\n      0x08c379a000000000000000000000000000000000000000000000000000000000\n      dup2\n      mstore\n      0x04\n      add\n      tag_154\n      swap1\n      tag_108\n      jump\t// in\n    tag_154:\n      mload(0x40)\n      dup1\n      swap2\n      sub\n      swap1\n      revert\n    tag_153:\n        /* \"submissions/0xFancy/dat7.sol\":1838:1845  _amount */\n      dup1\n        /* \"submissions/0xFancy/dat7.sol\":1806:1811  debts */\n      0x04\n        /* \"submissions/0xFancy/dat7.sol\":1806:1823  debts[msg.sender] */\n      0x00\n        /* \"submissions/0xFancy/dat7.sol\":1812:1822  msg.sender */\n      caller\n        /* \"submissions/0xFancy/dat7.sol\":1806:1823  debts[msg.sender] */\n      0xffffffffffffffffffffffffffffffffffffffff\n      and\n      0xffffffffffffffffffffffffffffffffffffffff\n      and\n      dup2\n      mstore\n      0x20\n      add\n      swap1\n      dup2\n      mstore\n      0x20\n      add\n      0x00\n      keccak256\n        /* \"submissions/0xFancy/dat7.sol\":1806:1834  debts[msg.sender][_creditor] */\n      0x00\n        /* \"submissions/0xFancy/dat7.sol\":1824:1833  _creditor */\n      dup5\n        /* \"submissions/0xFancy/dat7.sol\":1806:1834  debts[msg.sender][_creditor] */\n      0xffffffffffffffffffffffffffffffffffffffff\n      and\n      0xffffffffffffffffffffffffffffffffffffffff\n      and\n      dup2\n      mstore\n      0x20\n      add\n      swap1\n      dup2\n      mstore\n      0x20\n      add\n      0x00\n      keccak256\n      sload\n        /* \"submissions/0xFancy/dat7.sol\":1806:1845  debts[msg.sender][_creditor] >= _amount */\n      lt\n      iszero\n        /* \"submissions/0xFancy/dat7.sol\":1798:1872  require(debts[msg.sender][_creditor] >= _amount, \"Debt amount incorrect.\") */\n      tag_155\n      jumpi\n      mload(0x40)\n      0x08c379a000000000000000000000000000000000000000000000000000000000\n      dup2\n      mstore\n      0x04\n      add\n      tag_156\n      swap1\n      tag_157\n      jump\t// in\n    tag_156:\n      mload(0x40)\n      dup1\n      swap2\n      sub\n      swap1\n      revert\n    tag_155:\n        /* \"submissions/0xFancy/dat7.sol\":1906:1913  _amount */\n      dup1\n        /* \"submissions/0xFancy/dat7.sol\":1882:1890  balances */\n      0x03\n        /* \"submissions/0xFancy/dat7.sol\":1882:1902  balances[msg.sender] */\n      0x00\n        /* \"submissions/0xFancy/dat7.sol\":1891:1901  msg.sender */\n      caller\n        /* \"submissions/0xFancy/dat7.sol\":1882:1902  balances[msg.sender] */\n      0xffffffffffffffffffffffffffffffffffffffff\n      and\n      0xffffffffffffffffffffffffffffffffffffffff\n      and\n      dup2\n      mstore\n      0x20\n      add\n      swap1\n      dup2\n      mstore\n      0x20\n      add\n      0x00\n      keccak256\n      0x00\n        /* \"submissions/0xFancy/dat7.sol\":1882:1913  balances[msg.sender] -= _amount */\n      dup3\n      dup3\n      sload\n      tag_158\n      swap2\n      swap1\n      tag_110\n      jump\t// in\n    tag_158:\n      swap3\n      pop\n      pop\n      dup2\n      swap1\n      sstore\n      pop\n        /* \"submissions/0xFancy/dat7.sol\":1946:1953  _amount */\n      dup1\n        /* \"submissions/0xFancy/dat7.sol\":1923:1931  balances */\n      0x03\n        /* \"submissions/0xFancy/dat7.sol\":1923:1942  balances[_creditor] */\n      0x00\n        /* \"submissions/0xFancy/dat7.sol\":1932:1941  _creditor */\n      dup5\n        /* \"submissions/0xFancy/dat7.sol\":1923:1942  balances[_creditor] */\n      0xffffffffffffffffffffffffffffffffffffffff\n      and\n      0xffffffffffffffffffffffffffffffffffffffff\n      and\n      dup2\n      mstore\n      0x20\n      add\n      swap1\n      dup2\n      mstore\n      0x20\n      add\n      0x00\n      keccak256\n      0x00\n        /* \"submissions/0xFancy/dat7.sol\":1923:1953  balances[_creditor] += _amount */\n      dup3\n      dup3\n      sload\n      tag_159\n      swap2\n      swap1\n      tag_112\n      jump\t// in\n    tag_159:\n      swap3\n      pop\n      pop\n      dup2\n      swap1\n      sstore\n      pop\n        /* \"submissions/0xFancy/dat7.sol\":1995:2002  _amount */\n      dup1\n        /* \"submissions/0xFancy/dat7.sol\":1963:1968  debts */\n      0x04\n        /* \"submissions/0xFancy/dat7.sol\":1963:1980  debts[msg.sender] */\n      0x00\n        /* \"submissions/0xFancy/dat7.sol\":1969:1979  msg.sender */\n      caller\n        /* \"submissions/0xFancy/dat7.sol\":1963:1980  debts[msg.sender] */\n      0xffffffffffffffffffffffffffffffffffffffff\n      and\n      0xffffffffffffffffffffffffffffffffffffffff\n      and\n      dup2\n      mstore\n      0x20\n      add\n      swap1\n      dup2\n      mstore\n      0x20\n      add\n      0x00\n      keccak256\n        /* \"submissions/0xFancy/dat7.sol\":1963:1991  debts[msg.sender][_creditor] */\n      0x00\n        /* \"submissions/0xFancy/dat7.sol\":1981:1990  _creditor */\n      dup5\n        /* \"submissions/0xFancy/dat7.sol\":1963:1991  debts[msg.sender][_creditor] */\n      0xffffffffffffffffffffffffffffffffffffffff\n      and\n      0xffffffffffffffffffffffffffffffffffffffff\n      and\n      dup2\n      mstore\n      0x20\n      add\n      swap1\n      dup2\n      mstore\n      0x20\n      add\n      0x00\n      keccak256\n      0x00\n        /* \"submissions/0xFancy/dat7.sol\":1963:2002  debts[msg.sender][_creditor] -= _amount */\n      dup3\n      dup3\n      sload\n      tag_160\n      swap2\n      swap1\n      tag_110\n      jump\t// in\n    tag_160:\n      swap3\n      pop\n      pop\n      dup2\n      swap1\n      sstore\n      pop\n        /* \"submissions/0xFancy/dat7.sol\":1433:2009  function payFromWallet(address _creditor, uint256 _amount) public onlyRegistered{... */\n      pop\n      pop\n      jump\t// out\n        /* \"submissions/0xFancy/dat7.sol\":3381:3492  function checkBalance() public view onlyRegistered returns(uint256){... */\n    tag_70:\n        /* \"submissions/0xFancy/dat7.sol\":3440:3447  uint256 */\n      0x00\n        /* \"submissions/0xFancy/dat7.sol\":587:604  registeredFriends */\n      0x02\n        /* \"submissions/0xFancy/dat7.sol\":587:616  registeredFriends[msg.sender] */\n      0x00\n        /* \"submissions/0xFancy/dat7.sol\":605:615  msg.sender */\n      caller\n        /* \"submissions/0xFancy/dat7.sol\":587:616  registeredFriends[msg.sender] */\n      0xffffffffffffffffffffffffffffffffffffffff\n      and\n      0xffffffffffffffffffffffffffffffffffffffff\n      and\n      dup2\n      mstore\n      0x20\n      add\n      swap1\n      dup2\n      mstore\n      0x20\n      add\n      0x00\n      keccak256\n      0x00\n      swap1\n      sload\n      swap1\n      0x0100\n      exp\n      swap1\n      div\n      0xff\n      and\n        /* \"submissions/0xFancy/dat7.sol\":579:644  require(registeredFriends[msg.sender], \"you are not registered.\") */\n      tag_162\n      jumpi\n      mload(0x40)\n      0x08c379a000000000000000000000000000000000000000000000000000000000\n      dup2\n      mstore\n      0x04\n      add\n      tag_163\n      swap1\n      tag_95\n      jump\t// in\n    tag_163:\n      mload(0x40)\n      dup1\n      swap2\n      sub\n      swap1\n      revert\n    tag_162:\n        /* \"submissions/0xFancy/dat7.sol\":3465:3473  balances */\n      0x03\n        /* \"submissions/0xFancy/dat7.sol\":3465:3485  balances[msg.sender] */\n      0x00\n        /* \"submissions/0xFancy/dat7.sol\":3474:3484  msg.sender */\n      caller\n        /* \"submissions/0xFancy/dat7.sol\":3465:3485  balances[msg.sender] */\n      0xffffffffffffffffffffffffffffffffffffffff\n      and\n      0xffffffffffffffffffffffffffffffffffffffff\n      and\n      dup2\n      mstore\n      0x20\n      add\n      swap1\n      dup2\n      mstore\n      0x20\n      add\n      0x00\n      keccak256\n      sload\n        /* \"submissions/0xFancy/dat7.sol\":3458:3485  return balances[msg.sender] */\n      swap1\n      pop\n        /* \"submissions/0xFancy/dat7.sol\":3381:3492  function checkBalance() public view onlyRegistered returns(uint256){... */\n      swap1\n      jump\t// out\n        /* \"submissions/0xFancy/dat7.sol\":939:1098  function depositIntoWallet() public payable onlyRegistered {... */\n    tag_73:\n        /* \"submissions/0xFancy/dat7.sol\":587:604  registeredFriends */\n      0x02\n        /* \"submissions/0xFancy/dat7.sol\":587:616  registeredFriends[msg.sender] */\n      0x00\n        /* \"submissions/0xFancy/dat7.sol\":605:615  msg.sender */\n      caller\n        /* \"submissions/0xFancy/dat7.sol\":587:616  registeredFriends[msg.sender] */\n      0xffffffffffffffffffffffffffffffffffffffff\n      and\n      0xffffffffffffffffffffffffffffffffffffffff\n      and\n      dup2\n      mstore\n      0x20\n      add\n      swap1\n      dup2\n      mstore\n      0x20\n      add\n      0x00\n      keccak256\n      0x00\n      swap1\n      sload\n      swap1\n      0x0100\n      exp\n      swap1\n      div\n      0xff\n      and\n        /* \"submissions/0xFancy/dat7.sol\":579:644  require(registeredFriends[msg.sender], \"you are not registered.\") */\n      tag_166\n      jumpi\n      mload(0x40)\n      0x08c379a000000000000000000000000000000000000000000000000000000000\n      dup2\n      mstore\n      0x04\n      add\n      tag_167\n      swap1\n      tag_95\n      jump\t// in\n    tag_167:\n      mload(0x40)\n      dup1\n      swap2\n      sub\n      swap1\n      revert\n    tag_166:\n        /* \"submissions/0xFancy/dat7.sol\":1028:1029  0 */\n      0x00\n        /* \"submissions/0xFancy/dat7.sol\":1016:1025  msg.value */\n      callvalue\n        /* \"submissions/0xFancy/dat7.sol\":1016:1029  msg.value > 0 */\n      gt\n        /* \"submissions/0xFancy/dat7.sol\":1008:1048  require(msg.value > 0, \"Must send ETH.\") */\n      tag_169\n      jumpi\n      mload(0x40)\n      0x08c379a000000000000000000000000000000000000000000000000000000000\n      dup2\n      mstore\n      0x04\n      add\n      tag_170\n      swap1\n      tag_171\n      jump\t// in\n    tag_170:\n      mload(0x40)\n      dup1\n      swap2\n      sub\n      swap1\n      revert\n    tag_169:\n        /* \"submissions/0xFancy/dat7.sol\":1082:1091  msg.value */\n      callvalue\n        /* \"submissions/0xFancy/dat7.sol\":1058:1066  balances */\n      0x03\n        /* \"submissions/0xFancy/dat7.sol\":1058:1078  balances[msg.sender] */\n      0x00\n        /* \"submissions/0xFancy/dat7.sol\":1067:1077  msg.sender */\n      caller\n        /* \"submissions/0xFancy/dat7.sol\":1058:1078  balances[msg.sender] */\n      0xffffffffffffffffffffffffffffffffffffffff\n      and\n      0xffffffffffffffffffffffffffffffffffffffff\n      and\n      dup2\n      mstore\n      0x20\n      add\n      swap1\n      dup2\n      mstore\n      0x20\n      add\n      0x00\n      keccak256\n      0x00\n        /* \"submissions/0xFancy/dat7.sol\":1058:1091  balances[msg.sender] += msg.value */\n      dup3\n      dup3\n      sload\n      tag_172\n      swap2\n      swap1\n      tag_112\n      jump\t// in\n    tag_172:\n      swap3\n      pop\n      pop\n      dup2\n      swap1\n      sstore\n      pop\n        /* \"submissions/0xFancy/dat7.sol\":939:1098  function depositIntoWallet() public payable onlyRegistered {... */\n      jump\t// out\n        /* \"submissions/0xFancy/dat7.sol\":2480:3023  function transferEtherViaCall(address payable _to, uint256 _amount) public onlyRegistered {... */\n    tag_77:\n        /* \"submissions/0xFancy/dat7.sol\":587:604  registeredFriends */\n      0x02\n        /* \"submissions/0xFancy/dat7.sol\":587:616  registeredFriends[msg.sender] */\n      0x00\n        /* \"submissions/0xFancy/dat7.sol\":605:615  msg.sender */\n      caller\n        /* \"submissions/0xFancy/dat7.sol\":587:616  registeredFriends[msg.sender] */\n      0xffffffffffffffffffffffffffffffffffffffff\n      and\n      0xffffffffffffffffffffffffffffffffffffffff\n      and\n      dup2\n      mstore\n      0x20\n      add\n      swap1\n      dup2\n      mstore\n      0x20\n      add\n      0x00\n      keccak256\n      0x00\n      swap1\n      sload\n      swap1\n      0x0100\n      exp\n      swap1\n      div\n      0xff\n      and\n        /* \"submissions/0xFancy/dat7.sol\":579:644  require(registeredFriends[msg.sender], \"you are not registered.\") */\n      tag_174\n      jumpi\n      mload(0x40)\n      0x08c379a000000000000000000000000000000000000000000000000000000000\n      dup2\n      mstore\n      0x04\n      add\n      tag_175\n      swap1\n      tag_95\n      jump\t// in\n    tag_175:\n      mload(0x40)\n      dup1\n      swap2\n      sub\n      swap1\n      revert\n    tag_174:\n        /* \"submissions/0xFancy/dat7.sol\":2603:2604  0 */\n      0x00\n        /* \"submissions/0xFancy/dat7.sol\":2588:2605  _to != address(0) */\n      0xffffffffffffffffffffffffffffffffffffffff\n      and\n        /* \"submissions/0xFancy/dat7.sol\":2588:2591  _to */\n      dup3\n        /* \"submissions/0xFancy/dat7.sol\":2588:2605  _to != address(0) */\n      0xffffffffffffffffffffffffffffffffffffffff\n      and\n      sub\n        /* \"submissions/0xFancy/dat7.sol\":2580:2626  require(_to != address(0), \"Invalid address.\") */\n      tag_177\n      jumpi\n      mload(0x40)\n      0x08c379a000000000000000000000000000000000000000000000000000000000\n      dup2\n      mstore\n      0x04\n      add\n      tag_178\n      swap1\n      tag_99\n      jump\t// in\n    tag_178:\n      mload(0x40)\n      dup1\n      swap2\n      sub\n      swap1\n      revert\n    tag_177:\n        /* \"submissions/0xFancy/dat7.sol\":2644:2661  registeredFriends */\n      0x02\n        /* \"submissions/0xFancy/dat7.sol\":2644:2666  registeredFriends[_to] */\n      0x00\n        /* \"submissions/0xFancy/dat7.sol\":2662:2665  _to */\n      dup4\n        /* \"submissions/0xFancy/dat7.sol\":2644:2666  registeredFriends[_to] */\n      0xffffffffffffffffffffffffffffffffffffffff\n      and\n      0xffffffffffffffffffffffffffffffffffffffff\n      and\n      dup2\n      mstore\n      0x20\n      add\n      swap1\n      dup2\n      mstore\n      0x20\n      add\n      0x00\n      keccak256\n      0x00\n      swap1\n      sload\n      swap1\n      0x0100\n      exp\n      swap1\n      div\n      0xff\n      and\n        /* \"submissions/0xFancy/dat7.sol\":2636:2695  require(registeredFriends[_to], \"Recipient not registered\") */\n      tag_179\n      jumpi\n      mload(0x40)\n      0x08c379a000000000000000000000000000000000000000000000000000000000\n      dup2\n      mstore\n      0x04\n      add\n      tag_180\n      swap1\n      tag_102\n      jump\t// in\n    tag_180:\n      mload(0x40)\n      dup1\n      swap2\n      sub\n      swap1\n      revert\n    tag_179:\n        /* \"submissions/0xFancy/dat7.sol\":2723:2724  0 */\n      0x00\n        /* \"submissions/0xFancy/dat7.sol\":2713:2720  _amount */\n      dup2\n        /* \"submissions/0xFancy/dat7.sol\":2713:2724  _amount > 0 */\n      gt\n        /* \"submissions/0xFancy/dat7.sol\":2705:2759  require(_amount > 0, \"Amount must be greater than 0.\") */\n      tag_181\n      jumpi\n      mload(0x40)\n      0x08c379a000000000000000000000000000000000000000000000000000000000\n      dup2\n      mstore\n      0x04\n      add\n      tag_182\n      swap1\n      tag_105\n      jump\t// in\n    tag_182:\n      mload(0x40)\n      dup1\n      swap2\n      sub\n      swap1\n      revert\n    tag_181:\n        /* \"submissions/0xFancy/dat7.sol\":2801:2808  _amount */\n      dup1\n        /* \"submissions/0xFancy/dat7.sol\":2777:2785  balances */\n      0x03\n        /* \"submissions/0xFancy/dat7.sol\":2777:2797  balances[msg.sender] */\n      0x00\n        /* \"submissions/0xFancy/dat7.sol\":2786:2796  msg.sender */\n      caller\n        /* \"submissions/0xFancy/dat7.sol\":2777:2797  balances[msg.sender] */\n      0xffffffffffffffffffffffffffffffffffffffff\n      and\n      0xffffffffffffffffffffffffffffffffffffffff\n      and\n      dup2\n      mstore\n      0x20\n      add\n      swap1\n      dup2\n      mstore\n      0x20\n      add\n      0x00\n      keccak256\n      sload\n        /* \"submissions/0xFancy/dat7.sol\":2777:2808  balances[msg.sender] >= _amount */\n      lt\n      iszero\n        /* \"submissions/0xFancy/dat7.sol\":2769:2834  require(balances[msg.sender] >= _amount, \"Insufficient balance.\") */\n      tag_183\n      jumpi\n      mload(0x40)\n      0x08c379a000000000000000000000000000000000000000000000000000000000\n      dup2\n      mstore\n      0x04\n      add\n      tag_184\n      swap1\n      tag_108\n      jump\t// in\n    tag_184:\n      mload(0x40)\n      dup1\n      swap2\n      sub\n      swap1\n      revert\n    tag_183:\n        /* \"submissions/0xFancy/dat7.sol\":2868:2875  _amount */\n      dup1\n        /* \"submissions/0xFancy/dat7.sol\":2844:2852  balances */\n      0x03\n        /* \"submissions/0xFancy/dat7.sol\":2844:2864  balances[msg.sender] */\n      0x00\n        /* \"submissions/0xFancy/dat7.sol\":2853:2863  msg.sender */\n      caller\n        /* \"submissions/0xFancy/dat7.sol\":2844:2864  balances[msg.sender] */\n      0xffffffffffffffffffffffffffffffffffffffff\n      and\n      0xffffffffffffffffffffffffffffffffffffffff\n      and\n      dup2\n      mstore\n      0x20\n      add\n      swap1\n      dup2\n      mstore\n      0x20\n      add\n      0x00\n      keccak256\n      0x00\n        /* \"submissions/0xFancy/dat7.sol\":2844:2875  balances[msg.sender] -= _amount */\n      dup3\n      dup3\n      sload\n      tag_185\n      swap2\n      swap1\n      tag_110\n      jump\t// in\n    tag_185:\n      swap3\n      pop\n      pop\n      dup2\n      swap1\n      sstore\n      pop\n        /* \"submissions/0xFancy/dat7.sol\":2902:2909  _amount */\n      dup1\n        /* \"submissions/0xFancy/dat7.sol\":2885:2893  balances */\n      0x03\n        /* \"submissions/0xFancy/dat7.sol\":2885:2898  balances[_to] */\n      0x00\n        /* \"submissions/0xFancy/dat7.sol\":2894:2897  _to */\n      dup5\n        /* \"submissions/0xFancy/dat7.sol\":2885:2898  balances[_to] */\n      0xffffffffffffffffffffffffffffffffffffffff\n      and\n      0xffffffffffffffffffffffffffffffffffffffff\n      and\n      dup2\n      mstore\n      0x20\n      add\n      swap1\n      dup2\n      mstore\n      0x20\n      add\n      0x00\n      keccak256\n      0x00\n        /* \"submissions/0xFancy/dat7.sol\":2885:2909  balances[_to] += _amount */\n      dup3\n      dup3\n      sload\n      tag_186\n      swap2\n      swap1\n      tag_112\n      jump\t// in\n    tag_186:\n      swap3\n      pop\n      pop\n      dup2\n      swap1\n      sstore\n      pop\n        /* \"submissions/0xFancy/dat7.sol\":2920:2932  bool success */\n      0x00\n        /* \"submissions/0xFancy/dat7.sol\":2938:2941  _to */\n      dup3\n        /* \"submissions/0xFancy/dat7.sol\":2938:2946  _to.call */\n      0xffffffffffffffffffffffffffffffffffffffff\n      and\n        /* \"submissions/0xFancy/dat7.sol\":2954:2961  _amount */\n      dup3\n        /* \"submissions/0xFancy/dat7.sol\":2938:2966  _to.call{value: _amount}(\"\") */\n      mload(0x40)\n      tag_187\n      swap1\n      tag_135\n      jump\t// in\n    tag_187:\n      0x00\n      mload(0x40)\n      dup1\n      dup4\n      sub\n      dup2\n      dup6\n      dup8\n      gas\n      call\n      swap3\n      pop\n      pop\n      pop\n      returndatasize\n      dup1\n      0x00\n      dup2\n      eq\n      tag_190\n      jumpi\n      mload(0x40)\n      swap2\n      pop\n      and(add(returndatasize, 0x3f), not(0x1f))\n      dup3\n      add\n      0x40\n      mstore\n      returndatasize\n      dup3\n      mstore\n      returndatasize\n      0x00\n      0x20\n      dup5\n      add\n      returndatacopy\n      jump(tag_189)\n    tag_190:\n      0x60\n      swap2\n      pop\n    tag_189:\n      pop\n        /* \"submissions/0xFancy/dat7.sol\":2919:2966  (bool success, ) = _to.call{value: _amount}(\"\") */\n      pop\n      swap1\n      pop\n        /* \"submissions/0xFancy/dat7.sol\":2984:2991  success */\n      dup1\n        /* \"submissions/0xFancy/dat7.sol\":2976:3012  require(success, \"Transfer failed.\") */\n      tag_191\n      jumpi\n      mload(0x40)\n      0x08c379a000000000000000000000000000000000000000000000000000000000\n      dup2\n      mstore\n      0x04\n      add\n      tag_192\n      swap1\n      tag_141\n      jump\t// in\n    tag_192:\n      mload(0x40)\n      dup1\n      swap2\n      sub\n      swap1\n      revert\n    tag_191:\n        /* \"submissions/0xFancy/dat7.sol\":2570:3023  {... */\n      pop\n        /* \"submissions/0xFancy/dat7.sol\":2480:3023  function transferEtherViaCall(address payable _to, uint256 _amount) public onlyRegistered {... */\n      pop\n      pop\n      jump\t// out\n        /* \"submissions/0xFancy/dat7.sol\":668:934  function addFriend(address _friend) public onlyOwner {... */\n    tag_81:\n        /* \"submissions/0xFancy/dat7.sol\":499:504  owner */\n      0x00\n      0x00\n      swap1\n      sload\n      swap1\n      0x0100\n      exp\n      swap1\n      div\n      0xffffffffffffffffffffffffffffffffffffffff\n      and\n        /* \"submissions/0xFancy/dat7.sol\":485:504  msg.sender == owner */\n      0xffffffffffffffffffffffffffffffffffffffff\n      and\n        /* \"submissions/0xFancy/dat7.sol\":485:495  msg.sender */\n      caller\n        /* \"submissions/0xFancy/dat7.sol\":485:504  msg.sender == owner */\n      0xffffffffffffffffffffffffffffffffffffffff\n      and\n      eq\n        /* \"submissions/0xFancy/dat7.sol\":477:520  require(msg.sender == owner, \"Only owner.\") */\n      tag_194\n      jumpi\n      mload(0x40)\n      0x08c379a000000000000000000000000000000000000000000000000000000000\n      dup2\n      mstore\n      0x04\n      add\n      tag_195\n      swap1\n      tag_196\n      jump\t// in\n    tag_195:\n      mload(0x40)\n      dup1\n      swap2\n      sub\n      swap1\n      revert\n    tag_194:\n        /* \"submissions/0xFancy/dat7.sol\":758:759  0 */\n      0x00\n        /* \"submissions/0xFancy/dat7.sol\":739:760  _friend != address(0) */\n      0xffffffffffffffffffffffffffffffffffffffff\n      and\n        /* \"submissions/0xFancy/dat7.sol\":739:746  _friend */\n      dup2\n        /* \"submissions/0xFancy/dat7.sol\":739:760  _friend != address(0) */\n      0xffffffffffffffffffffffffffffffffffffffff\n      and\n      sub\n        /* \"submissions/0xFancy/dat7.sol\":731:781  require(_friend != address(0), \"Invalid address.\") */\n      tag_198\n      jumpi\n      mload(0x40)\n      0x08c379a000000000000000000000000000000000000000000000000000000000\n      dup2\n      mstore\n      0x04\n      add\n      tag_199\n      swap1\n      tag_99\n      jump\t// in\n    tag_199:\n      mload(0x40)\n      dup1\n      swap2\n      sub\n      swap1\n      revert\n    tag_198:\n        /* \"submissions/0xFancy/dat7.sol\":800:817  registeredFriends */\n      0x02\n        /* \"submissions/0xFancy/dat7.sol\":800:826  registeredFriends[_friend] */\n      0x00\n        /* \"submissions/0xFancy/dat7.sol\":818:825  _friend */\n      dup3\n        /* \"submissions/0xFancy/dat7.sol\":800:826  registeredFriends[_friend] */\n      0xffffffffffffffffffffffffffffffffffffffff\n      and\n      0xffffffffffffffffffffffffffffffffffffffff\n      and\n      dup2\n      mstore\n      0x20\n      add\n      swap1\n      dup2\n      mstore\n      0x20\n      add\n      0x00\n      keccak256\n      0x00\n      swap1\n      sload\n      swap1\n      0x0100\n      exp\n      swap1\n      div\n      0xff\n      and\n        /* \"submissions/0xFancy/dat7.sol\":799:826  !registeredFriends[_friend] */\n      iszero\n        /* \"submissions/0xFancy/dat7.sol\":791:850  require(!registeredFriends[_friend], \"Already registered.\") */\n      tag_200\n      jumpi\n      mload(0x40)\n      0x08c379a000000000000000000000000000000000000000000000000000000000\n      dup2\n      mstore\n      0x04\n      add\n      tag_201\n      swap1\n      tag_202\n      jump\t// in\n    tag_201:\n      mload(0x40)\n      dup1\n      swap2\n      sub\n      swap1\n      revert\n    tag_200:\n        /* \"submissions/0xFancy/dat7.sol\":889:893  true */\n      0x01\n        /* \"submissions/0xFancy/dat7.sol\":860:877  registeredFriends */\n      0x02\n        /* \"submissions/0xFancy/dat7.sol\":860:886  registeredFriends[_friend] */\n      0x00\n        /* \"submissions/0xFancy/dat7.sol\":878:885  _friend */\n      dup4\n        /* \"submissions/0xFancy/dat7.sol\":860:886  registeredFriends[_friend] */\n      0xffffffffffffffffffffffffffffffffffffffff\n      and\n      0xffffffffffffffffffffffffffffffffffffffff\n      and\n      dup2\n      mstore\n      0x20\n      add\n      swap1\n      dup2\n      mstore\n      0x20\n      add\n      0x00\n      keccak256\n      0x00\n        /* \"submissions/0xFancy/dat7.sol\":860:893  registeredFriends[_friend] = true */\n      0x0100\n      exp\n      dup2\n      sload\n      dup2\n      0xff\n      mul\n      not\n      and\n      swap1\n      dup4\n      iszero\n      iszero\n      mul\n      or\n      swap1\n      sstore\n      pop\n        /* \"submissions/0xFancy/dat7.sol\":903:913  friendList */\n      0x01\n        /* \"submissions/0xFancy/dat7.sol\":919:926  _friend */\n      dup2\n        /* \"submissions/0xFancy/dat7.sol\":903:927  friendList.push(_friend) */\n      swap1\n      dup1\n      0x01\n      dup2\n      sload\n      add\n      dup1\n      dup3\n      sstore\n      dup1\n      swap2\n      pop\n      pop\n      0x01\n      swap1\n      sub\n      swap1\n      0x00\n      mstore\n      keccak256(0x00, 0x20)\n      add\n      0x00\n      swap1\n      swap2\n      swap1\n      swap2\n      swap1\n      swap2\n      0x0100\n      exp\n      dup2\n      sload\n      dup2\n      0xffffffffffffffffffffffffffffffffffffffff\n      mul\n      not\n      and\n      swap1\n      dup4\n      0xffffffffffffffffffffffffffffffffffffffff\n      and\n      mul\n      or\n      swap1\n      sstore\n      pop\n        /* \"submissions/0xFancy/dat7.sol\":668:934  function addFriend(address _friend) public onlyOwner {... */\n      pop\n      jump\t// out\n        /* \"submissions/0xFancy/dat7.sol\":140:189  mapping(address => bool) public registeredFriends */\n    tag_85:\n      mstore(0x20, 0x02)\n      dup1\n      0x00\n      mstore\n      keccak256(0x00, 0x40)\n      0x00\n      swap2\n      pop\n      sload\n      swap1\n      0x0100\n      exp\n      swap1\n      div\n      0xff\n      and\n      dup2\n      jump\t// out\n        /* \"submissions/0xFancy/dat7.sol\":1103:1428  function recordDebt(address _debtor, uint256 _amount) public onlyRegistered {... */\n    tag_91:\n        /* \"submissions/0xFancy/dat7.sol\":587:604  registeredFriends */\n      0x02\n        /* \"submissions/0xFancy/dat7.sol\":587:616  registeredFriends[msg.sender] */\n      0x00\n        /* \"submissions/0xFancy/dat7.sol\":605:615  msg.sender */\n      caller\n        /* \"submissions/0xFancy/dat7.sol\":587:616  registeredFriends[msg.sender] */\n      0xffffffffffffffffffffffffffffffffffffffff\n      and\n      0xffffffffffffffffffffffffffffffffffffffff\n      and\n      dup2\n      mstore\n      0x20\n      add\n      swap1\n      dup2\n      mstore\n      0x20\n      add\n      0x00\n      keccak256\n      0x00\n      swap1\n      sload\n      swap1\n      0x0100\n      exp\n      swap1\n      div\n      0xff\n      and\n        /* \"submissions/0xFancy/dat7.sol\":579:644  require(registeredFriends[msg.sender], \"you are not registered.\") */\n      tag_205\n      jumpi\n      mload(0x40)\n      0x08c379a000000000000000000000000000000000000000000000000000000000\n      dup2\n      mstore\n      0x04\n      add\n      tag_206\n      swap1\n      tag_95\n      jump\t// in\n    tag_206:\n      mload(0x40)\n      dup1\n      swap2\n      sub\n      swap1\n      revert\n    tag_205:\n        /* \"submissions/0xFancy/dat7.sol\":1216:1217  0 */\n      0x00\n        /* \"submissions/0xFancy/dat7.sol\":1197:1218  _debtor != address(0) */\n      0xffffffffffffffffffffffffffffffffffffffff\n      and\n        /* \"submissions/0xFancy/dat7.sol\":1197:1204  _debtor */\n      dup3\n        /* \"submissions/0xFancy/dat7.sol\":1197:1218  _debtor != address(0) */\n      0xffffffffffffffffffffffffffffffffffffffff\n      and\n      sub\n        /* \"submissions/0xFancy/dat7.sol\":1189:1239  require(_debtor != address(0), \"Invalid address.\") */\n      tag_208\n      jumpi\n      mload(0x40)\n      0x08c379a000000000000000000000000000000000000000000000000000000000\n      dup2\n      mstore\n      0x04\n      add\n      tag_209\n      swap1\n      tag_99\n      jump\t// in\n    tag_209:\n      mload(0x40)\n      dup1\n      swap2\n      sub\n      swap1\n      revert\n    tag_208:\n        /* \"submissions/0xFancy/dat7.sol\":1257:1274  registeredFriends */\n      0x02\n        /* \"submissions/0xFancy/dat7.sol\":1257:1283  registeredFriends[_debtor] */\n      0x00\n        /* \"submissions/0xFancy/dat7.sol\":1275:1282  _debtor */\n      dup4\n        /* \"submissions/0xFancy/dat7.sol\":1257:1283  registeredFriends[_debtor] */\n      0xffffffffffffffffffffffffffffffffffffffff\n      and\n      0xffffffffffffffffffffffffffffffffffffffff\n      and\n      dup2\n      mstore\n      0x20\n      add\n      swap1\n      dup2\n      mstore\n      0x20\n      add\n      0x00\n      keccak256\n      0x00\n      swap1\n      sload\n      swap1\n      0x0100\n      exp\n      swap1\n      div\n      0xff\n      and\n        /* \"submissions/0xFancy/dat7.sol\":1249:1310  require(registeredFriends[_debtor], \"Address not registered\") */\n      tag_210\n      jumpi\n      mload(0x40)\n      0x08c379a000000000000000000000000000000000000000000000000000000000\n      dup2\n      mstore\n      0x04\n      add\n      tag_211\n      swap1\n      tag_150\n      jump\t// in\n    tag_211:\n      mload(0x40)\n      dup1\n      swap2\n      sub\n      swap1\n      revert\n    tag_210:\n        /* \"submissions/0xFancy/dat7.sol\":1338:1339  0 */\n      0x00\n        /* \"submissions/0xFancy/dat7.sol\":1328:1335  _amount */\n      dup2\n        /* \"submissions/0xFancy/dat7.sol\":1328:1339  _amount > 0 */\n      gt\n        /* \"submissions/0xFancy/dat7.sol\":1320:1374  require(_amount > 0, \"Amount must be greater than 0.\") */\n      tag_212\n      jumpi\n      mload(0x40)\n      0x08c379a000000000000000000000000000000000000000000000000000000000\n      dup2\n      mstore\n      0x04\n      add\n      tag_213\n      swap1\n      tag_105\n      jump\t// in\n    tag_213:\n      mload(0x40)\n      dup1\n      swap2\n      sub\n      swap1\n      revert\n    tag_212:\n        /* \"submissions/0xFancy/dat7.sol\":1414:1421  _amount */\n      dup1\n        /* \"submissions/0xFancy/dat7.sol\":1384:1389  debts */\n      0x04\n        /* \"submissions/0xFancy/dat7.sol\":1384:1398  debts[_debtor] */\n      0x00\n        /* \"submissions/0xFancy/dat7.sol\":1390:1397  _debtor */\n      dup5\n        /* \"submissions/0xFancy/dat7.sol\":1384:1398  debts[_debtor] */\n      0xffffffffffffffffffffffffffffffffffffffff\n      and\n      0xffffffffffffffffffffffffffffffffffffffff\n      and\n      dup2\n      mstore\n      0x20\n      add\n      swap1\n      dup2\n      mstore\n      0x20\n      add\n      0x00\n      keccak256\n        /* \"submissions/0xFancy/dat7.sol\":1384:1410  debts[_debtor][msg.sender] */\n      0x00\n        /* \"submissions/0xFancy/dat7.sol\":1399:1409  msg.sender */\n      caller\n        /* \"submissions/0xFancy/dat7.sol\":1384:1410  debts[_debtor][msg.sender] */\n      0xffffffffffffffffffffffffffffffffffffffff\n      and\n      0xffffffffffffffffffffffffffffffffffffffff\n      and\n      dup2\n      mstore\n      0x20\n      add\n      swap1\n      dup2\n      mstore\n      0x20\n      add\n      0x00\n      keccak256\n      0x00\n        /* \"submissions/0xFancy/dat7.sol\":1384:1421  debts[_debtor][msg.sender] += _amount */\n      dup3\n      dup3\n      sload\n      tag_214\n      swap2\n      swap1\n      tag_112\n      jump\t// in\n    tag_214:\n      swap3\n      pop\n      pop\n      dup2\n      swap1\n      sstore\n      pop\n        /* \"submissions/0xFancy/dat7.sol\":1103:1428  function recordDebt(address _debtor, uint256 _amount) public onlyRegistered {... */\n      pop\n      pop\n      jump\t// out\n        /* \"#utility.yul\":88:205   */\n    tag_216:\n        /* \"#utility.yul\":197:198   */\n      0x00\n        /* \"#utility.yul\":194:195   */\n      0x00\n        /* \"#utility.yul\":187:199   */\n      revert\n        /* \"#utility.yul\":334:460   */\n    tag_218:\n        /* \"#utility.yul\":371:378   */\n      0x00\n        /* \"#utility.yul\":411:453   */\n      0xffffffffffffffffffffffffffffffffffffffff\n        /* \"#utility.yul\":404:409   */\n      dup3\n        /* \"#utility.yul\":400:454   */\n      and\n        /* \"#utility.yul\":389:454   */\n      swap1\n      pop\n        /* \"#utility.yul\":334:460   */\n      swap2\n      swap1\n      pop\n      jump\t// out\n        /* \"#utility.yul\":466:570   */\n    tag_219:\n        /* \"#utility.yul\":511:518   */\n      0x00\n        /* \"#utility.yul\":540:564   */\n      tag_272\n        /* \"#utility.yul\":558:563   */\n      dup3\n        /* \"#utility.yul\":540:564   */\n      tag_218\n      jump\t// in\n    tag_272:\n        /* \"#utility.yul\":529:564   */\n      swap1\n      pop\n        /* \"#utility.yul\":466:570   */\n      swap2\n      swap1\n      pop\n      jump\t// out\n        /* \"#utility.yul\":576:714   */\n    tag_220:\n        /* \"#utility.yul\":657:689   */\n      tag_274\n        /* \"#utility.yul\":683:688   */\n      dup2\n        /* \"#utility.yul\":657:689   */\n      tag_219\n      jump\t// in\n    tag_274:\n        /* \"#utility.yul\":650:655   */\n      dup2\n        /* \"#utility.yul\":647:690   */\n      eq\n        /* \"#utility.yul\":637:708   */\n      tag_275\n      jumpi\n        /* \"#utility.yul\":704:705   */\n      0x00\n        /* \"#utility.yul\":701:702   */\n      0x00\n        /* \"#utility.yul\":694:706   */\n      revert\n        /* \"#utility.yul\":637:708   */\n    tag_275:\n        /* \"#utility.yul\":576:714   */\n      pop\n      jump\t// out\n        /* \"#utility.yul\":720:875   */\n    tag_221:\n        /* \"#utility.yul\":774:779   */\n      0x00\n        /* \"#utility.yul\":812:818   */\n      dup2\n        /* \"#utility.yul\":799:819   */\n      calldataload\n        /* \"#utility.yul\":790:819   */\n      swap1\n      pop\n        /* \"#utility.yul\":828:869   */\n      tag_277\n        /* \"#utility.yul\":863:868   */\n      dup2\n        /* \"#utility.yul\":828:869   */\n      tag_220\n      jump\t// in\n    tag_277:\n        /* \"#utility.yul\":720:875   */\n      swap3\n      swap2\n      pop\n      pop\n      jump\t// out\n        /* \"#utility.yul\":881:958   */\n    tag_222:\n        /* \"#utility.yul\":918:925   */\n      0x00\n        /* \"#utility.yul\":947:952   */\n      dup2\n        /* \"#utility.yul\":936:952   */\n      swap1\n      pop\n        /* \"#utility.yul\":881:958   */\n      swap2\n      swap1\n      pop\n      jump\t// out\n        /* \"#utility.yul\":964:1086   */\n    tag_223:\n        /* \"#utility.yul\":1037:1061   */\n      tag_280\n        /* \"#utility.yul\":1055:1060   */\n      dup2\n        /* \"#utility.yul\":1037:1061   */\n      tag_222\n      jump\t// in\n    tag_280:\n        /* \"#utility.yul\":1030:1035   */\n      dup2\n        /* \"#utility.yul\":1027:1062   */\n      eq\n        /* \"#utility.yul\":1017:1080   */\n      tag_281\n      jumpi\n        /* \"#utility.yul\":1076:1077   */\n      0x00\n        /* \"#utility.yul\":1073:1074   */\n      0x00\n        /* \"#utility.yul\":1066:1078   */\n      revert\n        /* \"#utility.yul\":1017:1080   */\n    tag_281:\n        /* \"#utility.yul\":964:1086   */\n      pop\n      jump\t// out\n        /* \"#utility.yul\":1092:1231   */\n    tag_224:\n        /* \"#utility.yul\":1138:1143   */\n      0x00\n        /* \"#utility.yul\":1176:1182   */\n      dup2\n        /* \"#utility.yul\":1163:1183   */\n      calldataload\n        /* \"#utility.yul\":1154:1183   */\n      swap1\n      pop\n        /* \"#utility.yul\":1192:1225   */\n      tag_283\n        /* \"#utility.yul\":1219:1224   */\n      dup2\n        /* \"#utility.yul\":1192:1225   */\n      tag_223\n      jump\t// in\n    tag_283:\n        /* \"#utility.yul\":1092:1231   */\n      swap3\n      swap2\n      pop\n      pop\n      jump\t// out\n        /* \"#utility.yul\":1237:1727   */\n    tag_23:\n        /* \"#utility.yul\":1313:1319   */\n      0x00\n        /* \"#utility.yul\":1321:1327   */\n      0x00\n        /* \"#utility.yul\":1370:1372   */\n      0x40\n        /* \"#utility.yul\":1358:1367   */\n      dup4\n        /* \"#utility.yul\":1349:1356   */\n      dup6\n        /* \"#utility.yul\":1345:1368   */\n      sub\n        /* \"#utility.yul\":1341:1373   */\n      slt\n        /* \"#utility.yul\":1338:1457   */\n      iszero\n      tag_285\n      jumpi\n        /* \"#utility.yul\":1376:1455   */\n      tag_286\n      tag_216\n      jump\t// in\n    tag_286:\n        /* \"#utility.yul\":1338:1457   */\n    tag_285:\n        /* \"#utility.yul\":1496:1497   */\n      0x00\n        /* \"#utility.yul\":1521:1582   */\n      tag_287\n        /* \"#utility.yul\":1574:1581   */\n      dup6\n        /* \"#utility.yul\":1565:1571   */\n      dup3\n        /* \"#utility.yul\":1554:1563   */\n      dup7\n        /* \"#utility.yul\":1550:1572   */\n      add\n        /* \"#utility.yul\":1521:1582   */\n      tag_221\n      jump\t// in\n    tag_287:\n        /* \"#utility.yul\":1511:1582   */\n      swap3\n      pop\n        /* \"#utility.yul\":1467:1592   */\n      pop\n        /* \"#utility.yul\":1631:1633   */\n      0x20\n        /* \"#utility.yul\":1657:1710   */\n      tag_288\n        /* \"#utility.yul\":1702:1709   */\n      dup6\n        /* \"#utility.yul\":1693:1699   */\n      dup3\n        /* \"#utility.yul\":1682:1691   */\n      dup7\n        /* \"#utility.yul\":1678:1700   */\n      add\n        /* \"#utility.yul\":1657:1710   */\n      tag_224\n      jump\t// in\n    tag_288:\n        /* \"#utility.yul\":1647:1710   */\n      swap2\n      pop\n        /* \"#utility.yul\":1602:1720   */\n      pop\n        /* \"#utility.yul\":1237:1727   */\n      swap3\n      pop\n      swap3\n      swap1\n      pop\n      jump\t// out\n        /* \"#utility.yul\":1733:1829   */\n    tag_225:\n        /* \"#utility.yul\":1770:1777   */\n      0x00\n        /* \"#utility.yul\":1799:1823   */\n      tag_290\n        /* \"#utility.yul\":1817:1822   */\n      dup3\n        /* \"#utility.yul\":1799:1823   */\n      tag_218\n      jump\t// in\n    tag_290:\n        /* \"#utility.yul\":1788:1823   */\n      swap1\n      pop\n        /* \"#utility.yul\":1733:1829   */\n      swap2\n      swap1\n      pop\n      jump\t// out\n        /* \"#utility.yul\":1835:1957   */\n    tag_226:\n        /* \"#utility.yul\":1908:1932   */\n      tag_292\n        /* \"#utility.yul\":1926:1931   */\n      dup2\n        /* \"#utility.yul\":1908:1932   */\n      tag_225\n      jump\t// in\n    tag_292:\n        /* \"#utility.yul\":1901:1906   */\n      dup2\n        /* \"#utility.yul\":1898:1933   */\n      eq\n        /* \"#utility.yul\":1888:1951   */\n      tag_293\n      jumpi\n        /* \"#utility.yul\":1947:1948   */\n      0x00\n        /* \"#utility.yul\":1944:1945   */\n      0x00\n        /* \"#utility.yul\":1937:1949   */\n      revert\n        /* \"#utility.yul\":1888:1951   */\n    tag_293:\n        /* \"#utility.yul\":1835:1957   */\n      pop\n      jump\t// out\n        /* \"#utility.yul\":1963:2102   */\n    tag_227:\n        /* \"#utility.yul\":2009:2014   */\n      0x00\n        /* \"#utility.yul\":2047:2053   */\n      dup2\n        /* \"#utility.yul\":2034:2054   */\n      calldataload\n        /* \"#utility.yul\":2025:2054   */\n      swap1\n      pop\n        /* \"#utility.yul\":2063:2096   */\n      tag_295\n        /* \"#utility.yul\":2090:2095   */\n      dup2\n        /* \"#utility.yul\":2063:2096   */\n      tag_226\n      jump\t// in\n    tag_295:\n        /* \"#utility.yul\":1963:2102   */\n      swap3\n      swap2\n      pop\n      pop\n      jump\t// out\n        /* \"#utility.yul\":2108:2437   */\n    tag_28:\n        /* \"#utility.yul\":2167:2173   */\n      0x00\n        /* \"#utility.yul\":2216:2218   */\n      0x20\n        /* \"#utility.yul\":2204:2213   */\n      dup3\n        /* \"#utility.yul\":2195:2202   */\n      dup5\n        /* \"#utility.yul\":2191:2214   */\n      sub\n        /* \"#utility.yul\":2187:2219   */\n      slt\n        /* \"#utility.yul\":2184:2303   */\n      iszero\n      tag_297\n      jumpi\n        /* \"#utility.yul\":2222:2301   */\n      tag_298\n      tag_216\n      jump\t// in\n    tag_298:\n        /* \"#utility.yul\":2184:2303   */\n    tag_297:\n        /* \"#utility.yul\":2342:2343   */\n      0x00\n        /* \"#utility.yul\":2367:2420   */\n      tag_299\n        /* \"#utility.yul\":2412:2419   */\n      dup5\n        /* \"#utility.yul\":2403:2409   */\n      dup3\n        /* \"#utility.yul\":2392:2401   */\n      dup6\n        /* \"#utility.yul\":2388:2410   */\n      add\n        /* \"#utility.yul\":2367:2420   */\n      tag_227\n      jump\t// in\n    tag_299:\n        /* \"#utility.yul\":2357:2420   */\n      swap2\n      pop\n        /* \"#utility.yul\":2313:2430   */\n      pop\n        /* \"#utility.yul\":2108:2437   */\n      swap3\n      swap2\n      pop\n      pop\n      jump\t// out\n        /* \"#utility.yul\":2443:2561   */\n    tag_228:\n        /* \"#utility.yul\":2530:2554   */\n      tag_301\n        /* \"#utility.yul\":2548:2553   */\n      dup2\n        /* \"#utility.yul\":2530:2554   */\n      tag_222\n      jump\t// in\n    tag_301:\n        /* \"#utility.yul\":2525:2528   */\n      dup3\n        /* \"#utility.yul\":2518:2555   */\n      mstore\n        /* \"#utility.yul\":2443:2561   */\n      pop\n      pop\n      jump\t// out\n        /* \"#utility.yul\":2567:2789   */\n    tag_31:\n        /* \"#utility.yul\":2660:2664   */\n      0x00\n        /* \"#utility.yul\":2698:2700   */\n      0x20\n        /* \"#utility.yul\":2687:2696   */\n      dup3\n        /* \"#utility.yul\":2683:2701   */\n      add\n        /* \"#utility.yul\":2675:2701   */\n      swap1\n      pop\n        /* \"#utility.yul\":2711:2782   */\n      tag_303\n        /* \"#utility.yul\":2779:2780   */\n      0x00\n        /* \"#utility.yul\":2768:2777   */\n      dup4\n        /* \"#utility.yul\":2764:2781   */\n      add\n        /* \"#utility.yul\":2755:2761   */\n      dup5\n        /* \"#utility.yul\":2711:2782   */\n      tag_228\n      jump\t// in\n    tag_303:\n        /* \"#utility.yul\":2567:2789   */\n      swap3\n      swap2\n      pop\n      pop\n      jump\t// out\n        /* \"#utility.yul\":2795:3124   */\n    tag_35:\n        /* \"#utility.yul\":2854:2860   */\n      0x00\n        /* \"#utility.yul\":2903:2905   */\n      0x20\n        /* \"#utility.yul\":2891:2900   */\n      dup3\n        /* \"#utility.yul\":2882:2889   */\n      dup5\n        /* \"#utility.yul\":2878:2901   */\n      sub\n        /* \"#utility.yul\":2874:2906   */\n      slt\n        /* \"#utility.yul\":2871:2990   */\n      iszero\n      tag_305\n      jumpi\n        /* \"#utility.yul\":2909:2988   */\n      tag_306\n      tag_216\n      jump\t// in\n    tag_306:\n        /* \"#utility.yul\":2871:2990   */\n    tag_305:\n        /* \"#utility.yul\":3029:3030   */\n      0x00\n        /* \"#utility.yul\":3054:3107   */\n      tag_307\n        /* \"#utility.yul\":3099:3106   */\n      dup5\n        /* \"#utility.yul\":3090:3096   */\n      dup3\n        /* \"#utility.yul\":3079:3088   */\n      dup6\n        /* \"#utility.yul\":3075:3097   */\n      add\n        /* \"#utility.yul\":3054:3107   */\n      tag_224\n      jump\t// in\n    tag_307:\n        /* \"#utility.yul\":3044:3107   */\n      swap2\n      pop\n        /* \"#utility.yul\":3000:3117   */\n      pop\n        /* \"#utility.yul\":2795:3124   */\n      swap3\n      swap2\n      pop\n      pop\n      jump\t// out\n        /* \"#utility.yul\":3130:3248   */\n    tag_229:\n        /* \"#utility.yul\":3217:3241   */\n      tag_309\n        /* \"#utility.yul\":3235:3240   */\n      dup2\n        /* \"#utility.yul\":3217:3241   */\n      tag_225\n      jump\t// in\n    tag_309:\n        /* \"#utility.yul\":3212:3215   */\n      dup3\n        /* \"#utility.yul\":3205:3242   */\n      mstore\n        /* \"#utility.yul\":3130:3248   */\n      pop\n      pop\n      jump\t// out\n        /* \"#utility.yul\":3254:3476   */\n    tag_38:\n        /* \"#utility.yul\":3347:3351   */\n      0x00\n        /* \"#utility.yul\":3385:3387   */\n      0x20\n        /* \"#utility.yul\":3374:3383   */\n      dup3\n        /* \"#utility.yul\":3370:3388   */\n      add\n        /* \"#utility.yul\":3362:3388   */\n      swap1\n      pop\n        /* \"#utility.yul\":3398:3469   */\n      tag_311\n        /* \"#utility.yul\":3466:3467   */\n      0x00\n        /* \"#utility.yul\":3455:3464   */\n      dup4\n        /* \"#utility.yul\":3451:3468   */\n      add\n        /* \"#utility.yul\":3442:3448   */\n      dup5\n        /* \"#utility.yul\":3398:3469   */\n      tag_229\n      jump\t// in\n    tag_311:\n        /* \"#utility.yul\":3254:3476   */\n      swap3\n      swap2\n      pop\n      pop\n      jump\t// out\n        /* \"#utility.yul\":3482:3596   */\n    tag_230:\n        /* \"#utility.yul\":3549:3555   */\n      0x00\n        /* \"#utility.yul\":3583:3588   */\n      dup2\n        /* \"#utility.yul\":3577:3589   */\n      mload\n        /* \"#utility.yul\":3567:3589   */\n      swap1\n      pop\n        /* \"#utility.yul\":3482:3596   */\n      swap2\n      swap1\n      pop\n      jump\t// out\n        /* \"#utility.yul\":3602:3786   */\n    tag_231:\n        /* \"#utility.yul\":3701:3712   */\n      0x00\n        /* \"#utility.yul\":3735:3741   */\n      dup3\n        /* \"#utility.yul\":3730:3733   */\n      dup3\n        /* \"#utility.yul\":3723:3742   */\n      mstore\n        /* \"#utility.yul\":3775:3779   */\n      0x20\n        /* \"#utility.yul\":3770:3773   */\n      dup3\n        /* \"#utility.yul\":3766:3780   */\n      add\n        /* \"#utility.yul\":3751:3780   */\n      swap1\n      pop\n        /* \"#utility.yul\":3602:3786   */\n      swap3\n      swap2\n      pop\n      pop\n      jump\t// out\n        /* \"#utility.yul\":3792:3924   */\n    tag_232:\n        /* \"#utility.yul\":3859:3863   */\n      0x00\n        /* \"#utility.yul\":3882:3885   */\n      dup2\n        /* \"#utility.yul\":3874:3885   */\n      swap1\n      pop\n        /* \"#utility.yul\":3912:3916   */\n      0x20\n        /* \"#utility.yul\":3907:3910   */\n      dup3\n        /* \"#utility.yul\":3903:3917   */\n      add\n        /* \"#utility.yul\":3895:3917   */\n      swap1\n      pop\n        /* \"#utility.yul\":3792:3924   */\n      swap2\n      swap1\n      pop\n      jump\t// out\n        /* \"#utility.yul\":3930:4038   */\n    tag_233:\n        /* \"#utility.yul\":4007:4031   */\n      tag_316\n        /* \"#utility.yul\":4025:4030   */\n      dup2\n        /* \"#utility.yul\":4007:4031   */\n      tag_225\n      jump\t// in\n    tag_316:\n        /* \"#utility.yul\":4002:4005   */\n      dup3\n        /* \"#utility.yul\":3995:4032   */\n      mstore\n        /* \"#utility.yul\":3930:4038   */\n      pop\n      pop\n      jump\t// out\n        /* \"#utility.yul\":4044:4223   */\n    tag_234:\n        /* \"#utility.yul\":4113:4123   */\n      0x00\n        /* \"#utility.yul\":4134:4180   */\n      tag_318\n        /* \"#utility.yul\":4176:4179   */\n      dup4\n        /* \"#utility.yul\":4168:4174   */\n      dup4\n        /* \"#utility.yul\":4134:4180   */\n      tag_233\n      jump\t// in\n    tag_318:\n        /* \"#utility.yul\":4212:4216   */\n      0x20\n        /* \"#utility.yul\":4207:4210   */\n      dup4\n        /* \"#utility.yul\":4203:4217   */\n      add\n        /* \"#utility.yul\":4189:4217   */\n      swap1\n      pop\n        /* \"#utility.yul\":4044:4223   */\n      swap3\n      swap2\n      pop\n      pop\n      jump\t// out\n        /* \"#utility.yul\":4229:4342   */\n    tag_235:\n        /* \"#utility.yul\":4299:4303   */\n      0x00\n        /* \"#utility.yul\":4331:4335   */\n      0x20\n        /* \"#utility.yul\":4326:4329   */\n      dup3\n        /* \"#utility.yul\":4322:4336   */\n      add\n        /* \"#utility.yul\":4314:4336   */\n      swap1\n      pop\n        /* \"#utility.yul\":4229:4342   */\n      swap2\n      swap1\n      pop\n      jump\t// out\n        /* \"#utility.yul\":4378:5110   */\n    tag_236:\n        /* \"#utility.yul\":4497:4500   */\n      0x00\n        /* \"#utility.yul\":4526:4580   */\n      tag_321\n        /* \"#utility.yul\":4574:4579   */\n      dup3\n        /* \"#utility.yul\":4526:4580   */\n      tag_230\n      jump\t// in\n    tag_321:\n        /* \"#utility.yul\":4596:4682   */\n      tag_322\n        /* \"#utility.yul\":4675:4681   */\n      dup2\n        /* \"#utility.yul\":4670:4673   */\n      dup6\n        /* \"#utility.yul\":4596:4682   */\n      tag_231\n      jump\t// in\n    tag_322:\n        /* \"#utility.yul\":4589:4682   */\n      swap4\n      pop\n        /* \"#utility.yul\":4706:4762   */\n      tag_323\n        /* \"#utility.yul\":4756:4761   */\n      dup4\n        /* \"#utility.yul\":4706:4762   */\n      tag_232\n      jump\t// in\n    tag_323:\n        /* \"#utility.yul\":4785:4792   */\n      dup1\n        /* \"#utility.yul\":4816:4817   */\n      0x00\n        /* \"#utility.yul\":4801:5085   */\n    tag_324:\n        /* \"#utility.yul\":4826:4832   */\n      dup4\n        /* \"#utility.yul\":4823:4824   */\n      dup2\n        /* \"#utility.yul\":4820:4833   */\n      lt\n        /* \"#utility.yul\":4801:5085   */\n      iszero\n      tag_326\n      jumpi\n        /* \"#utility.yul\":4902:4908   */\n      dup2\n        /* \"#utility.yul\":4896:4909   */\n      mload\n        /* \"#utility.yul\":4929:4992   */\n      tag_327\n        /* \"#utility.yul\":4988:4991   */\n      dup9\n        /* \"#utility.yul\":4973:4986   */\n      dup3\n        /* \"#utility.yul\":4929:4992   */\n      tag_234\n      jump\t// in\n    tag_327:\n        /* \"#utility.yul\":4922:4992   */\n      swap8\n      pop\n        /* \"#utility.yul\":5015:5075   */\n      tag_328\n        /* \"#utility.yul\":5068:5074   */\n      dup4\n        /* \"#utility.yul\":5015:5075   */\n      tag_235\n      jump\t// in\n    tag_328:\n        /* \"#utility.yul\":5005:5075   */\n      swap3\n      pop\n        /* \"#utility.yul\":4861:5085   */\n      pop\n        /* \"#utility.yul\":4848:4849   */\n      0x01\n        /* \"#utility.yul\":4845:4846   */\n      dup2\n        /* \"#utility.yul\":4841:4850   */\n      add\n        /* \"#utility.yul\":4836:4850   */\n      swap1\n      pop\n        /* \"#utility.yul\":4801:5085   */\n      jump(tag_324)\n    tag_326:\n        /* \"#utility.yul\":4805:4819   */\n      pop\n        /* \"#utility.yul\":5101:5104   */\n      dup6\n        /* \"#utility.yul\":5094:5104   */\n      swap4\n      pop\n        /* \"#utility.yul\":4502:5110   */\n      pop\n      pop\n      pop\n        /* \"#utility.yul\":4378:5110   */\n      swap3\n      swap2\n      pop\n      pop\n      jump\t// out\n        /* \"#utility.yul\":5116:5489   */\n    tag_43:\n        /* \"#utility.yul\":5259:5263   */\n      0x00\n        /* \"#utility.yul\":5297:5299   */\n      0x20\n        /* \"#utility.yul\":5286:5295   */\n      dup3\n        /* \"#utility.yul\":5282:5300   */\n      add\n        /* \"#utility.yul\":5274:5300   */\n      swap1\n      pop\n        /* \"#utility.yul\":5346:5355   */\n      dup2\n        /* \"#utility.yul\":5340:5344   */\n      dup2\n        /* \"#utility.yul\":5336:5356   */\n      sub\n        /* \"#utility.yul\":5332:5333   */\n      0x00\n        /* \"#utility.yul\":5321:5330   */\n      dup4\n        /* \"#utility.yul\":5317:5334   */\n      add\n        /* \"#utility.yul\":5310:5357   */\n      mstore\n        /* \"#utility.yul\":5374:5482   */\n      tag_330\n        /* \"#utility.yul\":5477:5481   */\n      dup2\n        /* \"#utility.yul\":5468:5474   */\n      dup5\n        /* \"#utility.yul\":5374:5482   */\n      tag_236\n      jump\t// in\n    tag_330:\n        /* \"#utility.yul\":5366:5482   */\n      swap1\n      pop\n        /* \"#utility.yul\":5116:5489   */\n      swap3\n      swap2\n      pop\n      pop\n      jump\t// out\n        /* \"#utility.yul\":5495:5969   */\n    tag_56:\n        /* \"#utility.yul\":5563:5569   */\n      0x00\n        /* \"#utility.yul\":5571:5577   */\n      0x00\n        /* \"#utility.yul\":5620:5622   */\n      0x40\n        /* \"#utility.yul\":5608:5617   */\n      dup4\n        /* \"#utility.yul\":5599:5606   */\n      dup6\n        /* \"#utility.yul\":5595:5618   */\n      sub\n        /* \"#utility.yul\":5591:5623   */\n      slt\n        /* \"#utility.yul\":5588:5707   */\n      iszero\n      tag_332\n      jumpi\n        /* \"#utility.yul\":5626:5705   */\n      tag_333\n      tag_216\n      jump\t// in\n    tag_333:\n        /* \"#utility.yul\":5588:5707   */\n    tag_332:\n        /* \"#utility.yul\":5746:5747   */\n      0x00\n        /* \"#utility.yul\":5771:5824   */\n      tag_334\n        /* \"#utility.yul\":5816:5823   */\n      dup6\n        /* \"#utility.yul\":5807:5813   */\n      dup3\n        /* \"#utility.yul\":5796:5805   */\n      dup7\n        /* \"#utility.yul\":5792:5814   */\n      add\n        /* \"#utility.yul\":5771:5824   */\n      tag_227\n      jump\t// in\n    tag_334:\n        /* \"#utility.yul\":5761:5824   */\n      swap3\n      pop\n        /* \"#utility.yul\":5717:5834   */\n      pop\n        /* \"#utility.yul\":5873:5875   */\n      0x20\n        /* \"#utility.yul\":5899:5952   */\n      tag_335\n        /* \"#utility.yul\":5944:5951   */\n      dup6\n        /* \"#utility.yul\":5935:5941   */\n      dup3\n        /* \"#utility.yul\":5924:5933   */\n      dup7\n        /* \"#utility.yul\":5920:5942   */\n      add\n        /* \"#utility.yul\":5899:5952   */\n      tag_227\n      jump\t// in\n    tag_335:\n        /* \"#utility.yul\":5889:5952   */\n      swap2\n      pop\n        /* \"#utility.yul\":5844:5962   */\n      pop\n        /* \"#utility.yul\":5495:5969   */\n      swap3\n      pop\n      swap3\n      swap1\n      pop\n      jump\t// out\n        /* \"#utility.yul\":5975:6449   */\n    tag_66:\n        /* \"#utility.yul\":6043:6049   */\n      0x00\n        /* \"#utility.yul\":6051:6057   */\n      0x00\n        /* \"#utility.yul\":6100:6102   */\n      0x40\n        /* \"#utility.yul\":6088:6097   */\n      dup4\n        /* \"#utility.yul\":6079:6086   */\n      dup6\n        /* \"#utility.yul\":6075:6098   */\n      sub\n        /* \"#utility.yul\":6071:6103   */\n      slt\n        /* \"#utility.yul\":6068:6187   */\n      iszero\n      tag_337\n      jumpi\n        /* \"#utility.yul\":6106:6185   */\n      tag_338\n      tag_216\n      jump\t// in\n    tag_338:\n        /* \"#utility.yul\":6068:6187   */\n    tag_337:\n        /* \"#utility.yul\":6226:6227   */\n      0x00\n        /* \"#utility.yul\":6251:6304   */\n      tag_339\n        /* \"#utility.yul\":6296:6303   */\n      dup6\n        /* \"#utility.yul\":6287:6293   */\n      dup3\n        /* \"#utility.yul\":6276:6285   */\n      dup7\n        /* \"#utility.yul\":6272:6294   */\n      add\n        /* \"#utility.yul\":6251:6304   */\n      tag_227\n      jump\t// in\n    tag_339:\n        /* \"#utility.yul\":6241:6304   */\n      swap3\n      pop\n        /* \"#utility.yul\":6197:6314   */\n      pop\n        /* \"#utility.yul\":6353:6355   */\n      0x20\n        /* \"#utility.yul\":6379:6432   */\n      tag_340\n        /* \"#utility.yul\":6424:6431   */\n      dup6\n        /* \"#utility.yul\":6415:6421   */\n      dup3\n        /* \"#utility.yul\":6404:6413   */\n      dup7\n        /* \"#utility.yul\":6400:6422   */\n      add\n        /* \"#utility.yul\":6379:6432   */\n      tag_224\n      jump\t// in\n    tag_340:\n        /* \"#utility.yul\":6369:6432   */\n      swap2\n      pop\n        /* \"#utility.yul\":6324:6442   */\n      pop\n        /* \"#utility.yul\":5975:6449   */\n      swap3\n      pop\n      swap3\n      swap1\n      pop\n      jump\t// out\n        /* \"#utility.yul\":6455:6545   */\n    tag_237:\n        /* \"#utility.yul\":6489:6496   */\n      0x00\n        /* \"#utility.yul\":6532:6537   */\n      dup2\n        /* \"#utility.yul\":6525:6538   */\n      iszero\n        /* \"#utility.yul\":6518:6539   */\n      iszero\n        /* \"#utility.yul\":6507:6539   */\n      swap1\n      pop\n        /* \"#utility.yul\":6455:6545   */\n      swap2\n      swap1\n      pop\n      jump\t// out\n        /* \"#utility.yul\":6551:6660   */\n    tag_238:\n        /* \"#utility.yul\":6632:6653   */\n      tag_343\n        /* \"#utility.yul\":6647:6652   */\n      dup2\n        /* \"#utility.yul\":6632:6653   */\n      tag_237\n      jump\t// in\n    tag_343:\n        /* \"#utility.yul\":6627:6630   */\n      dup3\n        /* \"#utility.yul\":6620:6654   */\n      mstore\n        /* \"#utility.yul\":6551:6660   */\n      pop\n      pop\n      jump\t// out\n        /* \"#utility.yul\":6666:6876   */\n    tag_87:\n        /* \"#utility.yul\":6753:6757   */\n      0x00\n        /* \"#utility.yul\":6791:6793   */\n      0x20\n        /* \"#utility.yul\":6780:6789   */\n      dup3\n        /* \"#utility.yul\":6776:6794   */\n      add\n        /* \"#utility.yul\":6768:6794   */\n      swap1\n      pop\n        /* \"#utility.yul\":6804:6869   */\n      tag_345\n        /* \"#utility.yul\":6866:6867   */\n      0x00\n        /* \"#utility.yul\":6855:6864   */\n      dup4\n        /* \"#utility.yul\":6851:6868   */\n      add\n        /* \"#utility.yul\":6842:6848   */\n      dup5\n        /* \"#utility.yul\":6804:6869   */\n      tag_238\n      jump\t// in\n    tag_345:\n        /* \"#utility.yul\":6666:6876   */\n      swap3\n      swap2\n      pop\n      pop\n      jump\t// out\n        /* \"#utility.yul\":6882:7051   */\n    tag_239:\n        /* \"#utility.yul\":6966:6977   */\n      0x00\n        /* \"#utility.yul\":7000:7006   */\n      dup3\n        /* \"#utility.yul\":6995:6998   */\n      dup3\n        /* \"#utility.yul\":6988:7007   */\n      mstore\n        /* \"#utility.yul\":7040:7044   */\n      0x20\n        /* \"#utility.yul\":7035:7038   */\n      dup3\n        /* \"#utility.yul\":7031:7045   */\n      add\n        /* \"#utility.yul\":7016:7045   */\n      swap1\n      pop\n        /* \"#utility.yul\":6882:7051   */\n      swap3\n      swap2\n      pop\n      pop\n      jump\t// out\n        /* \"#utility.yul\":7057:7230   */\n    tag_240:\n        /* \"#utility.yul\":7197:7222   */\n      0x796f7520617265206e6f7420726567697374657265642e000000000000000000\n        /* \"#utility.yul\":7193:7194   */\n      0x00\n        /* \"#utility.yul\":7185:7191   */\n      dup3\n        /* \"#utility.yul\":7181:7195   */\n      add\n        /* \"#utility.yul\":7174:7223   */\n      mstore\n        /* \"#utility.yul\":7057:7230   */\n      pop\n      jump\t// out\n        /* \"#utility.yul\":7236:7602   */\n    tag_241:\n        /* \"#utility.yul\":7378:7381   */\n      0x00\n        /* \"#utility.yul\":7399:7466   */\n      tag_349\n        /* \"#utility.yul\":7463:7465   */\n      0x17\n        /* \"#utility.yul\":7458:7461   */\n      dup4\n        /* \"#utility.yul\":7399:7466   */\n      tag_239\n      jump\t// in\n    tag_349:\n        /* \"#utility.yul\":7392:7466   */\n      swap2\n      pop\n        /* \"#utility.yul\":7475:7568   */\n      tag_350\n        /* \"#utility.yul\":7564:7567   */\n      dup3\n        /* \"#utility.yul\":7475:7568   */\n      tag_240\n      jump\t// in\n    tag_350:\n        /* \"#utility.yul\":7593:7595   */\n      0x20\n        /* \"#utility.yul\":7588:7591   */\n      dup3\n        /* \"#utility.yul\":7584:7596   */\n      add\n        /* \"#utility.yul\":7577:7596   */\n      swap1\n      pop\n        /* \"#utility.yul\":7236:7602   */\n      swap2\n      swap1\n      pop\n      jump\t// out\n        /* \"#utility.yul\":7608:8027   */\n    tag_95:\n        /* \"#utility.yul\":7774:7778   */\n      0x00\n        /* \"#utility.yul\":7812:7814   */\n      0x20\n        /* \"#utility.yul\":7801:7810   */\n      dup3\n        /* \"#utility.yul\":7797:7815   */\n      add\n        /* \"#utility.yul\":7789:7815   */\n      swap1\n      pop\n        /* \"#utility.yul\":7861:7870   */\n      dup2\n        /* \"#utility.yul\":7855:7859   */\n      dup2\n        /* \"#utility.yul\":7851:7871   */\n      sub\n        /* \"#utility.yul\":7847:7848   */\n      0x00\n        /* \"#utility.yul\":7836:7845   */\n      dup4\n        /* \"#utility.yul\":7832:7849   */\n      add\n        /* \"#utility.yul\":7825:7872   */\n      mstore\n        /* \"#utility.yul\":7889:8020   */\n      tag_352\n        /* \"#utility.yul\":8015:8019   */\n      dup2\n        /* \"#utility.yul\":7889:8020   */\n      tag_241\n      jump\t// in\n    tag_352:\n        /* \"#utility.yul\":7881:8020   */\n      swap1\n      pop\n        /* \"#utility.yul\":7608:8027   */\n      swap2\n      swap1\n      pop\n      jump\t// out\n        /* \"#utility.yul\":8033:8199   */\n    tag_242:\n        /* \"#utility.yul\":8173:8191   */\n      0x496e76616c696420616464726573732e00000000000000000000000000000000\n        /* \"#utility.yul\":8169:8170   */\n      0x00\n        /* \"#utility.yul\":8161:8167   */\n      dup3\n        /* \"#utility.yul\":8157:8171   */\n      add\n        /* \"#utility.yul\":8150:8192   */\n      mstore\n        /* \"#utility.yul\":8033:8199   */\n      pop\n      jump\t// out\n        /* \"#utility.yul\":8205:8571   */\n    tag_243:\n        /* \"#utility.yul\":8347:8350   */\n      0x00\n        /* \"#utility.yul\":8368:8435   */\n      tag_355\n        /* \"#utility.yul\":8432:8434   */\n      0x10\n        /* \"#utility.yul\":8427:8430   */\n      dup4\n        /* \"#utility.yul\":8368:8435   */\n      tag_239\n      jump\t// in\n    tag_355:\n        /* \"#utility.yul\":8361:8435   */\n      swap2\n      pop\n        /* \"#utility.yul\":8444:8537   */\n      tag_356\n        /* \"#utility.yul\":8533:8536   */\n      dup3\n        /* \"#utility.yul\":8444:8537   */\n      tag_242\n      jump\t// in\n    tag_356:\n        /* \"#utility.yul\":8562:8564   */\n      0x20\n        /* \"#utility.yul\":8557:8560   */\n      dup3\n        /* \"#utility.yul\":8553:8565   */\n      add\n        /* \"#utility.yul\":8546:8565   */\n      swap1\n      pop\n        /* \"#utility.yul\":8205:8571   */\n      swap2\n      swap1\n      pop\n      jump\t// out\n        /* \"#utility.yul\":8577:8996   */\n    tag_99:\n        /* \"#utility.yul\":8743:8747   */\n      0x00\n        /* \"#utility.yul\":8781:8783   */\n      0x20\n        /* \"#utility.yul\":8770:8779   */\n      dup3\n        /* \"#utility.yul\":8766:8784   */\n      add\n        /* \"#utility.yul\":8758:8784   */\n      swap1\n      pop\n        /* \"#utility.yul\":8830:8839   */\n      dup2\n        /* \"#utility.yul\":8824:8828   */\n      dup2\n        /* \"#utility.yul\":8820:8840   */\n      sub\n        /* \"#utility.yul\":8816:8817   */\n      0x00\n        /* \"#utility.yul\":8805:8814   */\n      dup4\n        /* \"#utility.yul\":8801:8818   */\n      add\n        /* \"#utility.yul\":8794:8841   */\n      mstore\n        /* \"#utility.yul\":8858:8989   */\n      tag_358\n        /* \"#utility.yul\":8984:8988   */\n      dup2\n        /* \"#utility.yul\":8858:8989   */\n      tag_243\n      jump\t// in\n    tag_358:\n        /* \"#utility.yul\":8850:8989   */\n      swap1\n      pop\n        /* \"#utility.yul\":8577:8996   */\n      swap2\n      swap1\n      pop\n      jump\t// out\n        /* \"#utility.yul\":9002:9176   */\n    tag_244:\n        /* \"#utility.yul\":9142:9168   */\n      0x526563697069656e74206e6f7420726567697374657265640000000000000000\n        /* \"#utility.yul\":9138:9139   */\n      0x00\n        /* \"#utility.yul\":9130:9136   */\n      dup3\n        /* \"#utility.yul\":9126:9140   */\n      add\n        /* \"#utility.yul\":9119:9169   */\n      mstore\n        /* \"#utility.yul\":9002:9176   */\n      pop\n      jump\t// out\n        /* \"#utility.yul\":9182:9548   */\n    tag_245:\n        /* \"#utility.yul\":9324:9327   */\n      0x00\n        /* \"#utility.yul\":9345:9412   */\n      tag_361\n        /* \"#utility.yul\":9409:9411   */\n      0x18\n        /* \"#utility.yul\":9404:9407   */\n      dup4\n        /* \"#utility.yul\":9345:9412   */\n      tag_239\n      jump\t// in\n    tag_361:\n        /* \"#utility.yul\":9338:9412   */\n      swap2\n      pop\n        /* \"#utility.yul\":9421:9514   */\n      tag_362\n        /* \"#utility.yul\":9510:9513   */\n      dup3\n        /* \"#utility.yul\":9421:9514   */\n      tag_244\n      jump\t// in\n    tag_362:\n        /* \"#utility.yul\":9539:9541   */\n      0x20\n        /* \"#utility.yul\":9534:9537   */\n      dup3\n        /* \"#utility.yul\":9530:9542   */\n      add\n        /* \"#utility.yul\":9523:9542   */\n      swap1\n      pop\n        /* \"#utility.yul\":9182:9548   */\n      swap2\n      swap1\n      pop\n      jump\t// out\n        /* \"#utility.yul\":9554:9973   */\n    tag_102:\n        /* \"#utility.yul\":9720:9724   */\n      0x00\n        /* \"#utility.yul\":9758:9760   */\n      0x20\n        /* \"#utility.yul\":9747:9756   */\n      dup3\n        /* \"#utility.yul\":9743:9761   */\n      add\n        /* \"#utility.yul\":9735:9761   */\n      swap1\n      pop\n        /* \"#utility.yul\":9807:9816   */\n      dup2\n        /* \"#utility.yul\":9801:9805   */\n      dup2\n        /* \"#utility.yul\":9797:9817   */\n      sub\n        /* \"#utility.yul\":9793:9794   */\n      0x00\n        /* \"#utility.yul\":9782:9791   */\n      dup4\n        /* \"#utility.yul\":9778:9795   */\n      add\n        /* \"#utility.yul\":9771:9818   */\n      mstore\n        /* \"#utility.yul\":9835:9966   */\n      tag_364\n        /* \"#utility.yul\":9961:9965   */\n      dup2\n        /* \"#utility.yul\":9835:9966   */\n      tag_245\n      jump\t// in\n    tag_364:\n        /* \"#utility.yul\":9827:9966   */\n      swap1\n      pop\n        /* \"#utility.yul\":9554:9973   */\n      swap2\n      swap1\n      pop\n      jump\t// out\n        /* \"#utility.yul\":9979:10159   */\n    tag_246:\n        /* \"#utility.yul\":10119:10151   */\n      0x416d6f756e74206d7573742062652067726561746572207468616e20302e0000\n        /* \"#utility.yul\":10115:10116   */\n      0x00\n        /* \"#utility.yul\":10107:10113   */\n      dup3\n        /* \"#utility.yul\":10103:10117   */\n      add\n        /* \"#utility.yul\":10096:10152   */\n      mstore\n        /* \"#utility.yul\":9979:10159   */\n      pop\n      jump\t// out\n        /* \"#utility.yul\":10165:10531   */\n    tag_247:\n        /* \"#utility.yul\":10307:10310   */\n      0x00\n        /* \"#utility.yul\":10328:10395   */\n      tag_367\n        /* \"#utility.yul\":10392:10394   */\n      0x1e\n        /* \"#utility.yul\":10387:10390   */\n      dup4\n        /* \"#utility.yul\":10328:10395   */\n      tag_239\n      jump\t// in\n    tag_367:\n        /* \"#utility.yul\":10321:10395   */\n      swap2\n      pop\n        /* \"#utility.yul\":10404:10497   */\n      tag_368\n        /* \"#utility.yul\":10493:10496   */\n      dup3\n        /* \"#utility.yul\":10404:10497   */\n      tag_246\n      jump\t// in\n    tag_368:\n        /* \"#utility.yul\":10522:10524   */\n      0x20\n        /* \"#utility.yul\":10517:10520   */\n      dup3\n        /* \"#utility.yul\":10513:10525   */\n      add\n        /* \"#utility.yul\":10506:10525   */\n      swap1\n      pop\n        /* \"#utility.yul\":10165:10531   */\n      swap2\n      swap1\n      pop\n      jump\t// out\n        /* \"#utility.yul\":10537:10956   */\n    tag_105:\n        /* \"#utility.yul\":10703:10707   */\n      0x00\n        /* \"#utility.yul\":10741:10743   */\n      0x20\n        /* \"#utility.yul\":10730:10739   */\n      dup3\n        /* \"#utility.yul\":10726:10744   */\n      add\n        /* \"#utility.yul\":10718:10744   */\n      swap1\n      pop\n        /* \"#utility.yul\":10790:10799   */\n      dup2\n        /* \"#utility.yul\":10784:10788   */\n      dup2\n        /* \"#utility.yul\":10780:10800   */\n      sub\n        /* \"#utility.yul\":10776:10777   */\n      0x00\n        /* \"#utility.yul\":10765:10774   */\n      dup4\n        /* \"#utility.yul\":10761:10778   */\n      add\n        /* \"#utility.yul\":10754:10801   */\n      mstore\n        /* \"#utility.yul\":10818:10949   */\n      tag_370\n        /* \"#utility.yul\":10944:10948   */\n      dup2\n        /* \"#utility.yul\":10818:10949   */\n      tag_247\n      jump\t// in\n    tag_370:\n        /* \"#utility.yul\":10810:10949   */\n      swap1\n      pop\n        /* \"#utility.yul\":10537:10956   */\n      swap2\n      swap1\n      pop\n      jump\t// out\n        /* \"#utility.yul\":10962:11133   */\n    tag_248:\n        /* \"#utility.yul\":11102:11125   */\n      0x496e73756666696369656e742062616c616e63652e0000000000000000000000\n        /* \"#utility.yul\":11098:11099   */\n      0x00\n        /* \"#utility.yul\":11090:11096   */\n      dup3\n        /* \"#utility.yul\":11086:11100   */\n      add\n        /* \"#utility.yul\":11079:11126   */\n      mstore\n        /* \"#utility.yul\":10962:11133   */\n      pop\n      jump\t// out\n        /* \"#utility.yul\":11139:11505   */\n    tag_249:\n        /* \"#utility.yul\":11281:11284   */\n      0x00\n        /* \"#utility.yul\":11302:11369   */\n      tag_373\n        /* \"#utility.yul\":11366:11368   */\n      0x15\n        /* \"#utility.yul\":11361:11364   */\n      dup4\n        /* \"#utility.yul\":11302:11369   */\n      tag_239\n      jump\t// in\n    tag_373:\n        /* \"#utility.yul\":11295:11369   */\n      swap2\n      pop\n        /* \"#utility.yul\":11378:11471   */\n      tag_374\n        /* \"#utility.yul\":11467:11470   */\n      dup3\n        /* \"#utility.yul\":11378:11471   */\n      tag_248\n      jump\t// in\n    tag_374:\n        /* \"#utility.yul\":11496:11498   */\n      0x20\n        /* \"#utility.yul\":11491:11494   */\n      dup3\n        /* \"#utility.yul\":11487:11499   */\n      add\n        /* \"#utility.yul\":11480:11499   */\n      swap1\n      pop\n        /* \"#utility.yul\":11139:11505   */\n      swap2\n      swap1\n      pop\n      jump\t// out\n        /* \"#utility.yul\":11511:11930   */\n    tag_108:\n        /* \"#utility.yul\":11677:11681   */\n      0x00\n        /* \"#utility.yul\":11715:11717   */\n      0x20\n        /* \"#utility.yul\":11704:11713   */\n      dup3\n        /* \"#utility.yul\":11700:11718   */\n      add\n        /* \"#utility.yul\":11692:11718   */\n      swap1\n      pop\n        /* \"#utility.yul\":11764:11773   */\n      dup2\n        /* \"#utility.yul\":11758:11762   */\n      dup2\n        /* \"#utility.yul\":11754:11774   */\n      sub\n        /* \"#utility.yul\":11750:11751   */\n      0x00\n        /* \"#utility.yul\":11739:11748   */\n      dup4\n        /* \"#utility.yul\":11735:11752   */\n      add\n        /* \"#utility.yul\":11728:11775   */\n      mstore\n        /* \"#utility.yul\":11792:11923   */\n      tag_376\n        /* \"#utility.yul\":11918:11922   */\n      dup2\n        /* \"#utility.yul\":11792:11923   */\n      tag_249\n      jump\t// in\n    tag_376:\n        /* \"#utility.yul\":11784:11923   */\n      swap1\n      pop\n        /* \"#utility.yul\":11511:11930   */\n      swap2\n      swap1\n      pop\n      jump\t// out\n        /* \"#utility.yul\":11936:12116   */\n    tag_250:\n        /* \"#utility.yul\":11984:12061   */\n      0x4e487b7100000000000000000000000000000000000000000000000000000000\n        /* \"#utility.yul\":11981:11982   */\n      0x00\n        /* \"#utility.yul\":11974:12062   */\n      mstore\n        /* \"#utility.yul\":12081:12085   */\n      0x11\n        /* \"#utility.yul\":12078:12079   */\n      0x04\n        /* \"#utility.yul\":12071:12086   */\n      mstore\n        /* \"#utility.yul\":12105:12109   */\n      0x24\n        /* \"#utility.yul\":12102:12103   */\n      0x00\n        /* \"#utility.yul\":12095:12110   */\n      revert\n        /* \"#utility.yul\":12122:12316   */\n    tag_110:\n        /* \"#utility.yul\":12162:12166   */\n      0x00\n        /* \"#utility.yul\":12182:12202   */\n      tag_379\n        /* \"#utility.yul\":12200:12201   */\n      dup3\n        /* \"#utility.yul\":12182:12202   */\n      tag_222\n      jump\t// in\n    tag_379:\n        /* \"#utility.yul\":12177:12202   */\n      swap2\n      pop\n        /* \"#utility.yul\":12216:12236   */\n      tag_380\n        /* \"#utility.yul\":12234:12235   */\n      dup4\n        /* \"#utility.yul\":12216:12236   */\n      tag_222\n      jump\t// in\n    tag_380:\n        /* \"#utility.yul\":12211:12236   */\n      swap3\n      pop\n        /* \"#utility.yul\":12260:12261   */\n      dup3\n        /* \"#utility.yul\":12257:12258   */\n      dup3\n        /* \"#utility.yul\":12253:12262   */\n      sub\n        /* \"#utility.yul\":12245:12262   */\n      swap1\n      pop\n        /* \"#utility.yul\":12284:12285   */\n      dup2\n        /* \"#utility.yul\":12278:12282   */\n      dup2\n        /* \"#utility.yul\":12275:12286   */\n      gt\n        /* \"#utility.yul\":12272:12309   */\n      iszero\n      tag_381\n      jumpi\n        /* \"#utility.yul\":12289:12307   */\n      tag_382\n      tag_250\n      jump\t// in\n    tag_382:\n        /* \"#utility.yul\":12272:12309   */\n    tag_381:\n        /* \"#utility.yul\":12122:12316   */\n      swap3\n      swap2\n      pop\n      pop\n      jump\t// out\n        /* \"#utility.yul\":12322:12513   */\n    tag_112:\n        /* \"#utility.yul\":12362:12365   */\n      0x00\n        /* \"#utility.yul\":12381:12401   */\n      tag_384\n        /* \"#utility.yul\":12399:12400   */\n      dup3\n        /* \"#utility.yul\":12381:12401   */\n      tag_222\n      jump\t// in\n    tag_384:\n        /* \"#utility.yul\":12376:12401   */\n      swap2\n      pop\n        /* \"#utility.yul\":12415:12435   */\n      tag_385\n        /* \"#utility.yul\":12433:12434   */\n      dup4\n        /* \"#utility.yul\":12415:12435   */\n      tag_222\n      jump\t// in\n    tag_385:\n        /* \"#utility.yul\":12410:12435   */\n      swap3\n      pop\n        /* \"#utility.yul\":12458:12459   */\n      dup3\n        /* \"#utility.yul\":12455:12456   */\n      dup3\n        /* \"#utility.yul\":12451:12460   */\n      add\n        /* \"#utility.yul\":12444:12460   */\n      swap1\n      pop\n        /* \"#utility.yul\":12479:12482   */\n      dup1\n        /* \"#utility.yul\":12476:12477   */\n      dup3\n        /* \"#utility.yul\":12473:12483   */\n      gt\n        /* \"#utility.yul\":12470:12506   */\n      iszero\n      tag_386\n      jumpi\n        /* \"#utility.yul\":12486:12504   */\n      tag_387\n      tag_250\n      jump\t// in\n    tag_387:\n        /* \"#utility.yul\":12470:12506   */\n    tag_386:\n        /* \"#utility.yul\":12322:12513   */\n      swap3\n      swap2\n      pop\n      pop\n      jump\t// out\n        /* \"#utility.yul\":12519:12666   */\n    tag_251:\n        /* \"#utility.yul\":12620:12631   */\n      0x00\n        /* \"#utility.yul\":12657:12660   */\n      dup2\n        /* \"#utility.yul\":12642:12660   */\n      swap1\n      pop\n        /* \"#utility.yul\":12519:12666   */\n      swap3\n      swap2\n      pop\n      pop\n      jump\t// out\n        /* \"#utility.yul\":12672:12786   */\n    tag_252:\n      pop\n      jump\t// out\n        /* \"#utility.yul\":12792:13190   */\n    tag_253:\n        /* \"#utility.yul\":12951:12954   */\n      0x00\n        /* \"#utility.yul\":12972:13055   */\n      tag_391\n        /* \"#utility.yul\":13053:13054   */\n      0x00\n        /* \"#utility.yul\":13048:13051   */\n      dup4\n        /* \"#utility.yul\":12972:13055   */\n      tag_251\n      jump\t// in\n    tag_391:\n        /* \"#utility.yul\":12965:13055   */\n      swap2\n      pop\n        /* \"#utility.yul\":13064:13157   */\n      tag_392\n        /* \"#utility.yul\":13153:13156   */\n      dup3\n        /* \"#utility.yul\":13064:13157   */\n      tag_252\n      jump\t// in\n    tag_392:\n        /* \"#utility.yul\":13182:13183   */\n      0x00\n        /* \"#utility.yul\":13177:13180   */\n      dup3\n        /* \"#utility.yul\":13173:13184   */\n      add\n        /* \"#utility.yul\":13166:13184   */\n      swap1\n      pop\n        /* \"#utility.yul\":12792:13190   */\n      swap2\n      swap1\n      pop\n      jump\t// out\n        /* \"#utility.yul\":13196:13575   */\n    tag_135:\n        /* \"#utility.yul\":13380:13383   */\n      0x00\n        /* \"#utility.yul\":13402:13549   */\n      tag_394\n        /* \"#utility.yul\":13545:13548   */\n      dup3\n        /* \"#utility.yul\":13402:13549   */\n      tag_253\n      jump\t// in\n    tag_394:\n        /* \"#utility.yul\":13395:13549   */\n      swap2\n      pop\n        /* \"#utility.yul\":13566:13569   */\n      dup2\n        /* \"#utility.yul\":13559:13569   */\n      swap1\n      pop\n        /* \"#utility.yul\":13196:13575   */\n      swap2\n      swap1\n      pop\n      jump\t// out\n        /* \"#utility.yul\":13581:13747   */\n    tag_254:\n        /* \"#utility.yul\":13721:13739   */\n      0x5472616e73666572206661696c65642e00000000000000000000000000000000\n        /* \"#utility.yul\":13717:13718   */\n      0x00\n        /* \"#utility.yul\":13709:13715   */\n      dup3\n        /* \"#utility.yul\":13705:13719   */\n      add\n        /* \"#utility.yul\":13698:13740   */\n      mstore\n        /* \"#utility.yul\":13581:13747   */\n      pop\n      jump\t// out\n        /* \"#utility.yul\":13753:14119   */\n    tag_255:\n        /* \"#utility.yul\":13895:13898   */\n      0x00\n        /* \"#utility.yul\":13916:13983   */\n      tag_397\n        /* \"#utility.yul\":13980:13982   */\n      0x10\n        /* \"#utility.yul\":13975:13978   */\n      dup4\n        /* \"#utility.yul\":13916:13983   */\n      tag_239\n      jump\t// in\n    tag_397:\n        /* \"#utility.yul\":13909:13983   */\n      swap2\n      pop\n        /* \"#utility.yul\":13992:14085   */\n      tag_398\n        /* \"#utility.yul\":14081:14084   */\n      dup3\n        /* \"#utility.yul\":13992:14085   */\n      tag_254\n      jump\t// in\n    tag_398:\n        /* \"#utility.yul\":14110:14112   */\n      0x20\n        /* \"#utility.yul\":14105:14108   */\n      dup3\n        /* \"#utility.yul\":14101:14113   */\n      add\n        /* \"#utility.yul\":14094:14113   */\n      swap1\n      pop\n        /* \"#utility.yul\":13753:14119   */\n      swap2\n      swap1\n      pop\n      jump\t// out\n        /* \"#utility.yul\":14125:14544   */\n    tag_141:\n        /* \"#utility.yul\":14291:14295   */\n      0x00\n        /* \"#utility.yul\":14329:14331   */\n      0x20\n        /* \"#utility.yul\":14318:14327   */\n      dup3\n        /* \"#utility.yul\":14314:14332   */\n      add\n        /* \"#utility.yul\":14306:14332   */\n      swap1\n      pop\n        /* \"#utility.yul\":14378:14387   */\n      dup2\n        /* \"#utility.yul\":14372:14376   */\n      dup2\n        /* \"#utility.yul\":14368:14388   */\n      sub\n        /* \"#utility.yul\":14364:14365   */\n      0x00\n        /* \"#utility.yul\":14353:14362   */\n      dup4\n        /* \"#utility.yul\":14349:14366   */\n      add\n        /* \"#utility.yul\":14342:14389   */\n      mstore\n        /* \"#utility.yul\":14406:14537   */\n      tag_400\n        /* \"#utility.yul\":14532:14536   */\n      dup2\n        /* \"#utility.yul\":14406:14537   */\n      tag_255\n      jump\t// in\n    tag_400:\n        /* \"#utility.yul\":14398:14537   */\n      swap1\n      pop\n        /* \"#utility.yul\":14125:14544   */\n      swap2\n      swap1\n      pop\n      jump\t// out\n        /* \"#utility.yul\":14550:14722   */\n    tag_256:\n        /* \"#utility.yul\":14690:14714   */\n      0x41646472657373206e6f74207265676973746572656400000000000000000000\n        /* \"#utility.yul\":14686:14687   */\n      0x00\n        /* \"#utility.yul\":14678:14684   */\n      dup3\n        /* \"#utility.yul\":14674:14688   */\n      add\n        /* \"#utility.yul\":14667:14715   */\n      mstore\n        /* \"#utility.yul\":14550:14722   */\n      pop\n      jump\t// out\n        /* \"#utility.yul\":14728:15094   */\n    tag_257:\n        /* \"#utility.yul\":14870:14873   */\n      0x00\n        /* \"#utility.yul\":14891:14958   */\n      tag_403\n        /* \"#utility.yul\":14955:14957   */\n      0x16\n        /* \"#utility.yul\":14950:14953   */\n      dup4\n        /* \"#utility.yul\":14891:14958   */\n      tag_239\n      jump\t// in\n    tag_403:\n        /* \"#utility.yul\":14884:14958   */\n      swap2\n      pop\n        /* \"#utility.yul\":14967:15060   */\n      tag_404\n        /* \"#utility.yul\":15056:15059   */\n      dup3\n        /* \"#utility.yul\":14967:15060   */\n      tag_256\n      jump\t// in\n    tag_404:\n        /* \"#utility.yul\":15085:15087   */\n      0x20\n        /* \"#utility.yul\":15080:15083   */\n      dup3\n        /* \"#utility.yul\":15076:15088   */\n      add\n        /* \"#utility.yul\":15069:15088   */\n      swap1\n      pop\n        /* \"#utility.yul\":14728:15094   */\n      swap2\n      swap1\n      pop\n      jump\t// out\n        /* \"#utility.yul\":15100:15519   */\n    tag_150:\n        /* \"#utility.yul\":15266:15270   */\n      0x00\n        /* \"#utility.yul\":15304:15306   */\n      0x20\n        /* \"#utility.yul\":15293:15302   */\n      dup3\n        /* \"#utility.yul\":15289:15307   */\n      add\n        /* \"#utility.yul\":15281:15307   */\n      swap1\n      pop\n        /* \"#utility.yul\":15353:15362   */\n      dup2\n        /* \"#utility.yul\":15347:15351   */\n      dup2\n        /* \"#utility.yul\":15343:15363   */\n      sub\n        /* \"#utility.yul\":15339:15340   */\n      0x00\n        /* \"#utility.yul\":15328:15337   */\n      dup4\n        /* \"#utility.yul\":15324:15341   */\n      add\n        /* \"#utility.yul\":15317:15364   */\n      mstore\n        /* \"#utility.yul\":15381:15512   */\n      tag_406\n        /* \"#utility.yul\":15507:15511   */\n      dup2\n        /* \"#utility.yul\":15381:15512   */\n      tag_257\n      jump\t// in\n    tag_406:\n        /* \"#utility.yul\":15373:15512   */\n      swap1\n      pop\n        /* \"#utility.yul\":15100:15519   */\n      swap2\n      swap1\n      pop\n      jump\t// out\n        /* \"#utility.yul\":15525:15697   */\n    tag_258:\n        /* \"#utility.yul\":15665:15689   */\n      0x4465627420616d6f756e7420696e636f72726563742e00000000000000000000\n        /* \"#utility.yul\":15661:15662   */\n      0x00\n        /* \"#utility.yul\":15653:15659   */\n      dup3\n        /* \"#utility.yul\":15649:15663   */\n      add\n        /* \"#utility.yul\":15642:15690   */\n      mstore\n        /* \"#utility.yul\":15525:15697   */\n      pop\n      jump\t// out\n        /* \"#utility.yul\":15703:16069   */\n    tag_259:\n        /* \"#utility.yul\":15845:15848   */\n      0x00\n        /* \"#utility.yul\":15866:15933   */\n      tag_409\n        /* \"#utility.yul\":15930:15932   */\n      0x16\n        /* \"#utility.yul\":15925:15928   */\n      dup4\n        /* \"#utility.yul\":15866:15933   */\n      tag_239\n      jump\t// in\n    tag_409:\n        /* \"#utility.yul\":15859:15933   */\n      swap2\n      pop\n        /* \"#utility.yul\":15942:16035   */\n      tag_410\n        /* \"#utility.yul\":16031:16034   */\n      dup3\n        /* \"#utility.yul\":15942:16035   */\n      tag_258\n      jump\t// in\n    tag_410:\n        /* \"#utility.yul\":16060:16062   */\n      0x20\n        /* \"#utility.yul\":16055:16058   */\n      dup3\n        /* \"#utility.yul\":16051:16063   */\n      add\n        /* \"#utility.yul\":16044:16063   */\n      swap1\n      pop\n        /* \"#utility.yul\":15703:16069   */\n      swap2\n      swap1\n      pop\n      jump\t// out\n        /* \"#utility.yul\":16075:16494   */\n    tag_157:\n        /* \"#utility.yul\":16241:16245   */\n      0x00\n        /* \"#utility.yul\":16279:16281   */\n      0x20\n        /* \"#utility.yul\":16268:16277   */\n      dup3\n        /* \"#utility.yul\":16264:16282   */\n      add\n        /* \"#utility.yul\":16256:16282   */\n      swap1\n      pop\n        /* \"#utility.yul\":16328:16337   */\n      dup2\n        /* \"#utility.yul\":16322:16326   */\n      dup2\n        /* \"#utility.yul\":16318:16338   */\n      sub\n        /* \"#utility.yul\":16314:16315   */\n      0x00\n        /* \"#utility.yul\":16303:16312   */\n      dup4\n        /* \"#utility.yul\":16299:16316   */\n      add\n        /* \"#utility.yul\":16292:16339   */\n      mstore\n        /* \"#utility.yul\":16356:16487   */\n      tag_412\n        /* \"#utility.yul\":16482:16486   */\n      dup2\n        /* \"#utility.yul\":16356:16487   */\n      tag_259\n      jump\t// in\n    tag_412:\n        /* \"#utility.yul\":16348:16487   */\n      swap1\n      pop\n        /* \"#utility.yul\":16075:16494   */\n      swap2\n      swap1\n      pop\n      jump\t// out\n        /* \"#utility.yul\":16500:16664   */\n    tag_260:\n        /* \"#utility.yul\":16640:16656   */\n      0x4d7573742073656e64204554482e000000000000000000000000000000000000\n        /* \"#utility.yul\":16636:16637   */\n      0x00\n        /* \"#utility.yul\":16628:16634   */\n      dup3\n        /* \"#utility.yul\":16624:16638   */\n      add\n        /* \"#utility.yul\":16617:16657   */\n      mstore\n        /* \"#utility.yul\":16500:16664   */\n      pop\n      jump\t// out\n        /* \"#utility.yul\":16670:17036   */\n    tag_261:\n        /* \"#utility.yul\":16812:16815   */\n      0x00\n        /* \"#utility.yul\":16833:16900   */\n      tag_415\n        /* \"#utility.yul\":16897:16899   */\n      0x0e\n        /* \"#utility.yul\":16892:16895   */\n      dup4\n        /* \"#utility.yul\":16833:16900   */\n      tag_239\n      jump\t// in\n    tag_415:\n        /* \"#utility.yul\":16826:16900   */\n      swap2\n      pop\n        /* \"#utility.yul\":16909:17002   */\n      tag_416\n        /* \"#utility.yul\":16998:17001   */\n      dup3\n        /* \"#utility.yul\":16909:17002   */\n      tag_260\n      jump\t// in\n    tag_416:\n        /* \"#utility.yul\":17027:17029   */\n      0x20\n        /* \"#utility.yul\":17022:17025   */\n      dup3\n        /* \"#utility.yul\":17018:17030   */\n      add\n        /* \"#utility.yul\":17011:17030   */\n      swap1\n      pop\n        /* \"#utility.yul\":16670:17036   */\n      swap2\n      swap1\n      pop\n      jump\t// out\n        /* \"#utility.yul\":17042:17461   */\n    tag_171:\n        /* \"#utility.yul\":17208:17212   */\n      0x00\n        /* \"#utility.yul\":17246:17248   */\n      0x20\n        /* \"#utility.yul\":17235:17244   */\n      dup3\n        /* \"#utility.yul\":17231:17249   */\n      add\n        /* \"#utility.yul\":17223:17249   */\n      swap1\n      pop\n        /* \"#utility.yul\":17295:17304   */\n      dup2\n        /* \"#utility.yul\":17289:17293   */\n      dup2\n        /* \"#utility.yul\":17285:17305   */\n      sub\n        /* \"#utility.yul\":17281:17282   */\n      0x00\n        /* \"#utility.yul\":17270:17279   */\n      dup4\n        /* \"#utility.yul\":17266:17283   */\n      add\n        /* \"#utility.yul\":17259:17306   */\n      mstore\n        /* \"#utility.yul\":17323:17454   */\n      tag_418\n        /* \"#utility.yul\":17449:17453   */\n      dup2\n        /* \"#utility.yul\":17323:17454   */\n      tag_261\n      jump\t// in\n    tag_418:\n        /* \"#utility.yul\":17315:17454   */\n      swap1\n      pop\n        /* \"#utility.yul\":17042:17461   */\n      swap2\n      swap1\n      pop\n      jump\t// out\n        /* \"#utility.yul\":17467:17628   */\n    tag_262:\n        /* \"#utility.yul\":17607:17620   */\n      0x4f6e6c79206f776e65722e000000000000000000000000000000000000000000\n        /* \"#utility.yul\":17603:17604   */\n      0x00\n        /* \"#utility.yul\":17595:17601   */\n      dup3\n        /* \"#utility.yul\":17591:17605   */\n      add\n        /* \"#utility.yul\":17584:17621   */\n      mstore\n        /* \"#utility.yul\":17467:17628   */\n      pop\n      jump\t// out\n        /* \"#utility.yul\":17634:18000   */\n    tag_263:\n        /* \"#utility.yul\":17776:17779   */\n      0x00\n        /* \"#utility.yul\":17797:17864   */\n      tag_421\n        /* \"#utility.yul\":17861:17863   */\n      0x0b\n        /* \"#utility.yul\":17856:17859   */\n      dup4\n        /* \"#utility.yul\":17797:17864   */\n      tag_239\n      jump\t// in\n    tag_421:\n        /* \"#utility.yul\":17790:17864   */\n      swap2\n      pop\n        /* \"#utility.yul\":17873:17966   */\n      tag_422\n        /* \"#utility.yul\":17962:17965   */\n      dup3\n        /* \"#utility.yul\":17873:17966   */\n      tag_262\n      jump\t// in\n    tag_422:\n        /* \"#utility.yul\":17991:17993   */\n      0x20\n        /* \"#utility.yul\":17986:17989   */\n      dup3\n        /* \"#utility.yul\":17982:17994   */\n      add\n        /* \"#utility.yul\":17975:17994   */\n      swap1\n      pop\n        /* \"#utility.yul\":17634:18000   */\n      swap2\n      swap1\n      pop\n      jump\t// out\n        /* \"#utility.yul\":18006:18425   */\n    tag_196:\n        /* \"#utility.yul\":18172:18176   */\n      0x00\n        /* \"#utility.yul\":18210:18212   */\n      0x20\n        /* \"#utility.yul\":18199:18208   */\n      dup3\n        /* \"#utility.yul\":18195:18213   */\n      add\n        /* \"#utility.yul\":18187:18213   */\n      swap1\n      pop\n        /* \"#utility.yul\":18259:18268   */\n      dup2\n        /* \"#utility.yul\":18253:18257   */\n      dup2\n        /* \"#utility.yul\":18249:18269   */\n      sub\n        /* \"#utility.yul\":18245:18246   */\n      0x00\n        /* \"#utility.yul\":18234:18243   */\n      dup4\n        /* \"#utility.yul\":18230:18247   */\n      add\n        /* \"#utility.yul\":18223:18270   */\n      mstore\n        /* \"#utility.yul\":18287:18418   */\n      tag_424\n        /* \"#utility.yul\":18413:18417   */\n      dup2\n        /* \"#utility.yul\":18287:18418   */\n      tag_263\n      jump\t// in\n    tag_424:\n        /* \"#utility.yul\":18279:18418   */\n      swap1\n      pop\n        /* \"#utility.yul\":18006:18425   */\n      swap2\n      swap1\n      pop\n      jump\t// out\n        /* \"#utility.yul\":18431:18600   */\n    tag_264:\n        /* \"#utility.yul\":18571:18592   */\n      0x416c726561647920726567697374657265642e00000000000000000000000000\n        /* \"#utility.yul\":18567:18568   */\n      0x00\n        /* \"#utility.yul\":18559:18565   */\n      dup3\n        /* \"#utility.yul\":18555:18569   */\n      add\n        /* \"#utility.yul\":18548:18593   */\n      mstore\n        /* \"#utility.yul\":18431:18600   */\n      pop\n      jump\t// out\n        /* \"#utility.yul\":18606:18972   */\n    tag_265:\n        /* \"#utility.yul\":18748:18751   */\n      0x00\n        /* \"#utility.yul\":18769:18836   */\n      tag_427\n        /* \"#utility.yul\":18833:18835   */\n      0x13\n        /* \"#utility.yul\":18828:18831   */\n      dup4\n        /* \"#utility.yul\":18769:18836   */\n      tag_239\n      jump\t// in\n    tag_427:\n        /* \"#utility.yul\":18762:18836   */\n      swap2\n      pop\n        /* \"#utility.yul\":18845:18938   */\n      tag_428\n        /* \"#utility.yul\":18934:18937   */\n      dup3\n        /* \"#utility.yul\":18845:18938   */\n      tag_264\n      jump\t// in\n    tag_428:\n        /* \"#utility.yul\":18963:18965   */\n      0x20\n        /* \"#utility.yul\":18958:18961   */\n      dup3\n        /* \"#utility.yul\":18954:18966   */\n      add\n        /* \"#utility.yul\":18947:18966   */\n      swap1\n      pop\n        /* \"#utility.yul\":18606:18972   */\n      swap2\n      swap1\n      pop\n      jump\t// out\n        /* \"#utility.yul\":18978:19397   */\n    tag_202:\n        /* \"#utility.yul\":19144:19148   */\n      0x00\n        /* \"#utility.yul\":19182:19184   */\n      0x20\n        /* \"#utility.yul\":19171:19180   */\n      dup3\n        /* \"#utility.yul\":19167:19185   */\n      add\n        /* \"#utility.yul\":19159:19185   */\n      swap1\n      pop\n        /* \"#utility.yul\":19231:19240   */\n      dup2\n        /* \"#utility.yul\":19225:19229   */\n      dup2\n        /* \"#utility.yul\":19221:19241   */\n      sub\n        /* \"#utility.yul\":19217:19218   */\n      0x00\n        /* \"#utility.yul\":19206:19215   */\n      dup4\n        /* \"#utility.yul\":19202:19219   */\n      add\n        /* \"#utility.yul\":19195:19242   */\n      mstore\n        /* \"#utility.yul\":19259:19390   */\n      tag_430\n        /* \"#utility.yul\":19385:19389   */\n      dup2\n        /* \"#utility.yul\":19259:19390   */\n      tag_265\n      jump\t// in\n    tag_430:\n        /* \"#utility.yul\":19251:19390   */\n      swap1\n      pop\n        /* \"#utility.yul\":18978:19397   */\n      swap2\n      swap1\n      pop\n      jump\t// out\n\n    auxdata: 0xa264697066735822122089ebfc65dab72443923cff0e9893c0f83783682e5fa4cc25ad345a3abf028b1364736f6c634300081e0033\n}\n",
				"bytecode": {
					"linkReferences": {},
					"object": "608060405234801561000f575f5ffd5b50335f5f6101000a81548173ffffffffffffffffffffffffffffffffffffffff021916908373ffffffffffffffffffffffffffffffffffffffff160217905550600160025f3373ffffffffffffffffffffffffffffffffffffffff1673ffffffffffffffffffffffffffffffffffffffff1681526020019081526020015f205f6101000a81548160ff021916908315150217905550600133908060018154018082558091505060019003905f5260205f20015f9091909190916101000a81548173ffffffffffffffffffffffffffffffffffffffff021916908373ffffffffffffffffffffffffffffffffffffffff1602179055506122a7806101115f395ff3fe6080604052600436106100e7575f3560e01c80638da5cb5b11610089578063d6081fff11610058578063d6081fff146102db578063d7a1cfe114610303578063e48608411461032b578063fa74542d14610367576100e7565b80638da5cb5b14610255578063a49e225a1461027f578063c71daccb146102a7578063cafe82cf146102d1576100e7565b8063272b39e0116100c5578063272b39e01461018b57806327e235e3146101b55780632e1a7d4d146101f15780634ac1c33d14610219576100e7565b806305b1137b146100eb5780630735f7241461011357806321668a011461014f575b5f5ffd5b3480156100f6575f5ffd5b50610111600480360381019061010c9190611a70565b61038f565b005b34801561011e575f5ffd5b5061013960048036038101906101349190611ae9565b6106bf565b6040516101469190611b23565b60405180910390f35b34801561015a575f5ffd5b5061017560048036038101906101709190611b3c565b6107c9565b6040516101829190611b76565b60405180910390f35b348015610196575f5ffd5b5061019f610804565b6040516101ac9190611c46565b60405180910390f35b3480156101c0575f5ffd5b506101db60048036038101906101d69190611ae9565b610918565b6040516101e89190611b23565b60405180910390f35b3480156101fc575f5ffd5b5061021760048036038101906102129190611b3c565b61092d565b005b348015610224575f5ffd5b5061023f600480360381019061023a9190611c66565b610b35565b60405161024c9190611b23565b60405180910390f35b348015610260575f5ffd5b50610269610b55565b6040516102769190611b76565b60405180910390f35b34801561028a575f5ffd5b506102a560048036038101906102a09190611ca4565b610b79565b005b3480156102b2575f5ffd5b506102bb610fae565b6040516102c89190611b23565b60405180910390f35b6102d961107b565b005b3480156102e6575f5ffd5b5061030160048036038101906102fc9190611a70565b61119b565b005b34801561030e575f5ffd5b5061032960048036038101906103249190611ae9565b611530565b005b348015610336575f5ffd5b50610351600480360381019061034c9190611ae9565b61176e565b60405161035e9190611cfc565b60405180910390f35b348015610372575f5ffd5b5061038d60048036038101906103889190611ca4565b61178b565b005b60025f3373ffffffffffffffffffffffffffffffffffffffff1673ffffffffffffffffffffffffffffffffffffffff1681526020019081526020015f205f9054906101000a900460ff16610418576040517f08c379a000000000000000000000000000000000000000000000000000000000815260040161040f90611d6f565b60405180910390fd5b5f73ffffffffffffffffffffffffffffffffffffffff168273ffffffffffffffffffffffffffffffffffffffff1603610486576040517f08c379a000000000000000000000000000000000000000000000000000000000815260040161047d90611dd7565b60405180910390fd5b60025f8373ffffffffffffffffffffffffffffffffffffffff1673ffffffffffffffffffffffffffffffffffffffff1681526020019081526020015f205f9054906101000a900460ff1661050f576040517f08c379a000000000000000000000000000000000000000000000000000000000815260040161050690611e3f565b60405180910390fd5b5f8111610551576040517f08c379a000000000000000000000000000000000000000000000000000000000815260040161054890611ea7565b60405180910390fd5b8060035f3373ffffffffffffffffffffffffffffffffffffffff1673ffffffffffffffffffffffffffffffffffffffff1681526020019081526020015f205410156105d1576040517f08c379a00000000000000000000000000000000000000000000000000000000081526004016105c890611f0f565b60405180910390fd5b8060035f3373ffffffffffffffffffffffffffffffffffffffff1673ffffffffffffffffffffffffffffffffffffffff1681526020019081526020015f205f82825461061d9190611f5a565b925050819055508060035f8473ffffffffffffffffffffffffffffffffffffffff1673ffffffffffffffffffffffffffffffffffffffff1681526020019081526020015f205f8282546106709190611f8d565b925050819055508173ffffffffffffffffffffffffffffffffffffffff166108fc8290811502906040515f60405180830381858888f193505050501580156106ba573d5f5f3e3d5ffd5b505050565b5f60025f3373ffffffffffffffffffffffffffffffffffffffff1673ffffffffffffffffffffffffffffffffffffffff1681526020019081526020015f205f9054906101000a900460ff16610749576040517f08c379a000000000000000000000000000000000000000000000000000000000815260040161074090611d6f565b60405180910390fd5b60045f3373ffffffffffffffffffffffffffffffffffffffff1673ffffffffffffffffffffffffffffffffffffffff1681526020019081526020015f205f8373ffffffffffffffffffffffffffffffffffffffff1673ffffffffffffffffffffffffffffffffffffffff1681526020019081526020015f20549050919050565b600181815481106107d8575f80fd5b905f5260205f20015f915054906101000a900473ffffffffffffffffffffffffffffffffffffffff1681565b606060025f3373ffffffffffffffffffffffffffffffffffffffff1673ffffffffffffffffffffffffffffffffffffffff1681526020019081526020015f205f9054906101000a900460ff1661088f576040517f08c379a000000000000000000000000000000000000000000000000000000000815260040161088690611d6f565b60405180910390fd5b600180548060200260200160405190810160405280929190818152602001828054801561090e57602002820191905f5260205f20905b815f9054906101000a900473ffffffffffffffffffffffffffffffffffffffff1673ffffffffffffffffffffffffffffffffffffffff16815260200190600101908083116108c5575b5050505050905090565b6003602052805f5260405f205f915090505481565b60025f3373ffffffffffffffffffffffffffffffffffffffff1673ffffffffffffffffffffffffffffffffffffffff1681526020019081526020015f205f9054906101000a900460ff166109b6576040517f08c379a00000000000000000000000000000000000000000000000000000000081526004016109ad90611d6f565b60405180910390fd5b8060035f3373ffffffffffffffffffffffffffffffffffffffff1673ffffffffffffffffffffffffffffffffffffffff1681526020019081526020015f20541015610a36576040517f08c379a0000000000000000000000000000000000000000000000000000000008152600401610a2d90611f0f565b60405180910390fd5b8060035f3373ffffffffffffffffffffffffffffffffffffffff1673ffffffffffffffffffffffffffffffffffffffff1681526020019081526020015f205f828254610a829190611f5a565b925050819055505f3373ffffffffffffffffffffffffffffffffffffffff1682604051610aae90611fed565b5f6040518083038185875af1925050503d805f8114610ae8576040519150601f19603f3d011682016040523d82523d5f602084013e610aed565b606091505b5050905080610b31576040517f08c379a0000000000000000000000000000000000000000000000000000000008152600401610b289061204b565b60405180910390fd5b5050565b6004602052815f5260405f20602052805f5260405f205f91509150505481565b5f5f9054906101000a900473ffffffffffffffffffffffffffffffffffffffff1681565b60025f3373ffffffffffffffffffffffffffffffffffffffff1673ffffffffffffffffffffffffffffffffffffffff1681526020019081526020015f205f9054906101000a900460ff16610c02576040517f08c379a0000000000000000000000000000000000000000000000000000000008152600401610bf990611d6f565b60405180910390fd5b5f73ffffffffffffffffffffffffffffffffffffffff168273ffffffffffffffffffffffffffffffffffffffff1603610c70576040517f08c379a0000000000000000000000000000000000000000000000000000000008152600401610c6790611dd7565b60405180910390fd5b60025f8373ffffffffffffffffffffffffffffffffffffffff1673ffffffffffffffffffffffffffffffffffffffff1681526020019081526020015f205f9054906101000a900460ff16610cf9576040517f08c379a0000000000000000000000000000000000000000000000000000000008152600401610cf0906120b3565b60405180910390fd5b5f8111610d3b576040517f08c379a0000000000000000000000000000000000000000000000000000000008152600401610d3290611ea7565b60405180910390fd5b8060035f3373ffffffffffffffffffffffffffffffffffffffff1673ffffffffffffffffffffffffffffffffffffffff1681526020019081526020015f20541015610dbb576040517f08c379a0000000000000000000000000000000000000000000000000000000008152600401610db290611f0f565b60405180910390fd5b8060045f3373ffffffffffffffffffffffffffffffffffffffff1673ffffffffffffffffffffffffffffffffffffffff1681526020019081526020015f205f8473ffffffffffffffffffffffffffffffffffffffff1673ffffffffffffffffffffffffffffffffffffffff1681526020019081526020015f20541015610e76576040517f08c379a0000000000000000000000000000000000000000000000000000000008152600401610e6d9061211b565b60405180910390fd5b8060035f3373ffffffffffffffffffffffffffffffffffffffff1673ffffffffffffffffffffffffffffffffffffffff1681526020019081526020015f205f828254610ec29190611f5a565b925050819055508060035f8473ffffffffffffffffffffffffffffffffffffffff1673ffffffffffffffffffffffffffffffffffffffff1681526020019081526020015f205f828254610f159190611f8d565b925050819055508060045f3373ffffffffffffffffffffffffffffffffffffffff1673ffffffffffffffffffffffffffffffffffffffff1681526020019081526020015f205f8473ffffffffffffffffffffffffffffffffffffffff1673ffffffffffffffffffffffffffffffffffffffff1681526020019081526020015f205f828254610fa39190611f5a565b925050819055505050565b5f60025f3373ffffffffffffffffffffffffffffffffffffffff1673ffffffffffffffffffffffffffffffffffffffff1681526020019081526020015f205f9054906101000a900460ff16611038576040517f08c379a000000000000000000000000000000000000000000000000000000000815260040161102f90611d6f565b60405180910390fd5b60035f3373ffffffffffffffffffffffffffffffffffffffff1673ffffffffffffffffffffffffffffffffffffffff1681526020019081526020015f2054905090565b60025f3373ffffffffffffffffffffffffffffffffffffffff1673ffffffffffffffffffffffffffffffffffffffff1681526020019081526020015f205f9054906101000a900460ff16611104576040517f08c379a00000000000000000000000000000000000000000000000000000000081526004016110fb90611d6f565b60405180910390fd5b5f3411611146576040517f08c379a000000000000000000000000000000000000000000000000000000000815260040161113d90612183565b60405180910390fd5b3460035f3373ffffffffffffffffffffffffffffffffffffffff1673ffffffffffffffffffffffffffffffffffffffff1681526020019081526020015f205f8282546111929190611f8d565b92505081905550565b60025f3373ffffffffffffffffffffffffffffffffffffffff1673ffffffffffffffffffffffffffffffffffffffff1681526020019081526020015f205f9054906101000a900460ff16611224576040517f08c379a000000000000000000000000000000000000000000000000000000000815260040161121b90611d6f565b60405180910390fd5b5f73ffffffffffffffffffffffffffffffffffffffff168273ffffffffffffffffffffffffffffffffffffffff1603611292576040517f08c379a000000000000000000000000000000000000000000000000000000000815260040161128990611dd7565b60405180910390fd5b60025f8373ffffffffffffffffffffffffffffffffffffffff1673ffffffffffffffffffffffffffffffffffffffff1681526020019081526020015f205f9054906101000a900460ff1661131b576040517f08c379a000000000000000000000000000000000000000000000000000000000815260040161131290611e3f565b60405180910390fd5b5f811161135d576040517f08c379a000000000000000000000000000000000000000000000000000000000815260040161135490611ea7565b60405180910390fd5b8060035f3373ffffffffffffffffffffffffffffffffffffffff1673ffffffffffffffffffffffffffffffffffffffff1681526020019081526020015f205410156113dd576040517f08c379a00000000000000000000000000000000000000000000000000000000081526004016113d490611f0f565b60405180910390fd5b8060035f3373ffffffffffffffffffffffffffffffffffffffff1673ffffffffffffffffffffffffffffffffffffffff1681526020019081526020015f205f8282546114299190611f5a565b925050819055508060035f8473ffffffffffffffffffffffffffffffffffffffff1673ffffffffffffffffffffffffffffffffffffffff1681526020019081526020015f205f82825461147c9190611f8d565b925050819055505f8273ffffffffffffffffffffffffffffffffffffffff16826040516114a890611fed565b5f6040518083038185875af1925050503d805f81146114e2576040519150601f19603f3d011682016040523d82523d5f602084013e6114e7565b606091505b505090508061152b576040517f08c379a00000000000000000000000000000000000000000000000000000000081526004016115229061204b565b60405180910390fd5b505050565b5f5f9054906101000a900473ffffffffffffffffffffffffffffffffffffffff1673ffffffffffffffffffffffffffffffffffffffff163373ffffffffffffffffffffffffffffffffffffffff16146115be576040517f08c379a00000000000000000000000000000000000000000000000000000000081526004016115b5906121eb565b60405180910390fd5b5f73ffffffffffffffffffffffffffffffffffffffff168173ffffffffffffffffffffffffffffffffffffffff160361162c576040517f08c379a000000000000000000000000000000000000000000000000000000000815260040161162390611dd7565b60405180910390fd5b60025f8273ffffffffffffffffffffffffffffffffffffffff1673ffffffffffffffffffffffffffffffffffffffff1681526020019081526020015f205f9054906101000a900460ff16156116b6576040517f08c379a00000000000000000000000000000000000000000000000000000000081526004016116ad90612253565b60405180910390fd5b600160025f8373ffffffffffffffffffffffffffffffffffffffff1673ffffffffffffffffffffffffffffffffffffffff1681526020019081526020015f205f6101000a81548160ff021916908315150217905550600181908060018154018082558091505060019003905f5260205f20015f9091909190916101000a81548173ffffffffffffffffffffffffffffffffffffffff021916908373ffffffffffffffffffffffffffffffffffffffff16021790555050565b6002602052805f5260405f205f915054906101000a900460ff1681565b60025f3373ffffffffffffffffffffffffffffffffffffffff1673ffffffffffffffffffffffffffffffffffffffff1681526020019081526020015f205f9054906101000a900460ff16611814576040517f08c379a000000000000000000000000000000000000000000000000000000000815260040161180b90611d6f565b60405180910390fd5b5f73ffffffffffffffffffffffffffffffffffffffff168273ffffffffffffffffffffffffffffffffffffffff1603611882576040517f08c379a000000000000000000000000000000000000000000000000000000000815260040161187990611dd7565b60405180910390fd5b60025f8373ffffffffffffffffffffffffffffffffffffffff1673ffffffffffffffffffffffffffffffffffffffff1681526020019081526020015f205f9054906101000a900460ff1661190b576040517f08c379a0000000000000000000000000000000000000000000000000000000008152600401611902906120b3565b60405180910390fd5b5f811161194d576040517f08c379a000000000000000000000000000000000000000000000000000000000815260040161194490611ea7565b60405180910390fd5b8060045f8473ffffffffffffffffffffffffffffffffffffffff1673ffffffffffffffffffffffffffffffffffffffff1681526020019081526020015f205f3373ffffffffffffffffffffffffffffffffffffffff1673ffffffffffffffffffffffffffffffffffffffff1681526020019081526020015f205f8282546119d49190611f8d565b925050819055505050565b5f5ffd5b5f73ffffffffffffffffffffffffffffffffffffffff82169050919050565b5f611a0c826119e3565b9050919050565b611a1c81611a02565b8114611a26575f5ffd5b50565b5f81359050611a3781611a13565b92915050565b5f819050919050565b611a4f81611a3d565b8114611a59575f5ffd5b50565b5f81359050611a6a81611a46565b92915050565b5f5f60408385031215611a8657611a856119df565b5b5f611a9385828601611a29565b9250506020611aa485828601611a5c565b9150509250929050565b5f611ab8826119e3565b9050919050565b611ac881611aae565b8114611ad2575f5ffd5b50565b5f81359050611ae381611abf565b92915050565b5f60208284031215611afe57611afd6119df565b5b5f611b0b84828501611ad5565b91505092915050565b611b1d81611a3d565b82525050565b5f602082019050611b365f830184611b14565b92915050565b5f60208284031215611b5157611b506119df565b5b5f611b5e84828501611a5c565b91505092915050565b611b7081611aae565b82525050565b5f602082019050611b895f830184611b67565b92915050565b5f81519050919050565b5f82825260208201905092915050565b5f819050602082019050919050565b611bc181611aae565b82525050565b5f611bd28383611bb8565b60208301905092915050565b5f602082019050919050565b5f611bf482611b8f565b611bfe8185611b99565b9350611c0983611ba9565b805f5b83811015611c39578151611c208882611bc7565b9750611c2b83611bde565b925050600181019050611c0c565b5085935050505092915050565b5f6020820190508181035f830152611c5e8184611bea565b905092915050565b5f5f60408385031215611c7c57611c7b6119df565b5b5f611c8985828601611ad5565b9250506020611c9a85828601611ad5565b9150509250929050565b5f5f60408385031215611cba57611cb96119df565b5b5f611cc785828601611ad5565b9250506020611cd885828601611a5c565b9150509250929050565b5f8115159050919050565b611cf681611ce2565b82525050565b5f602082019050611d0f5f830184611ced565b92915050565b5f82825260208201905092915050565b7f796f7520617265206e6f7420726567697374657265642e0000000000000000005f82015250565b5f611d59601783611d15565b9150611d6482611d25565b602082019050919050565b5f6020820190508181035f830152611d8681611d4d565b9050919050565b7f496e76616c696420616464726573732e000000000000000000000000000000005f82015250565b5f611dc1601083611d15565b9150611dcc82611d8d565b602082019050919050565b5f6020820190508181035f830152611dee81611db5565b9050919050565b7f526563697069656e74206e6f74207265676973746572656400000000000000005f82015250565b5f611e29601883611d15565b9150611e3482611df5565b602082019050919050565b5f6020820190508181035f830152611e5681611e1d565b9050919050565b7f416d6f756e74206d7573742062652067726561746572207468616e20302e00005f82015250565b5f611e91601e83611d15565b9150611e9c82611e5d565b602082019050919050565b5f6020820190508181035f830152611ebe81611e85565b9050919050565b7f496e73756666696369656e742062616c616e63652e00000000000000000000005f82015250565b5f611ef9601583611d15565b9150611f0482611ec5565b602082019050919050565b5f6020820190508181035f830152611f2681611eed565b9050919050565b7f4e487b71000000000000000000000000000000000000000000000000000000005f52601160045260245ffd5b5f611f6482611a3d565b9150611f6f83611a3d565b9250828203905081811115611f8757611f86611f2d565b5b92915050565b5f611f9782611a3d565b9150611fa283611a3d565b9250828201905080821115611fba57611fb9611f2d565b5b92915050565b5f81905092915050565b50565b5f611fd85f83611fc0565b9150611fe382611fca565b5f82019050919050565b5f611ff782611fcd565b9150819050919050565b7f5472616e73666572206661696c65642e000000000000000000000000000000005f82015250565b5f612035601083611d15565b915061204082612001565b602082019050919050565b5f6020820190508181035f83015261206281612029565b9050919050565b7f41646472657373206e6f742072656769737465726564000000000000000000005f82015250565b5f61209d601683611d15565b91506120a882612069565b602082019050919050565b5f6020820190508181035f8301526120ca81612091565b9050919050565b7f4465627420616d6f756e7420696e636f72726563742e000000000000000000005f82015250565b5f612105601683611d15565b9150612110826120d1565b602082019050919050565b5f6020820190508181035f830152612132816120f9565b9050919050565b7f4d7573742073656e64204554482e0000000000000000000000000000000000005f82015250565b5f61216d600e83611d15565b915061217882612139565b602082019050919050565b5f6020820190508181035f83015261219a81612161565b9050919050565b7f4f6e6c79206f776e65722e0000000000000000000000000000000000000000005f82015250565b5f6121d5600b83611d15565b91506121e0826121a1565b602082019050919050565b5f6020820190508181035f830152612202816121c9565b9050919050565b7f416c726561647920726567697374657265642e000000000000000000000000005f82015250565b5f61223d601383611d15565b915061224882612209565b602082019050919050565b5f6020820190508181035f83015261226a81612231565b905091905056fea264697066735822122089ebfc65dab72443923cff0e9893c0f83783682e5fa4cc25ad345a3abf028b1364736f6c634300081e0033",
					"opcodes": "PUSH1 0x80 PUSH1 0x40 MSTORE CALLVALUE DUP1 ISZERO PUSH2 0xF JUMPI PUSH0 PUSH0 REVERT JUMPDEST POP CALLER PUSH0 PUSH0 PUSH2 0x100 EXP DUP2 SLOAD DUP2 PUSH20 0xFFFFFFFFFFFFFFFFFFFFFFFFFFFFFFFFFFFFFFFF MUL NOT AND SWAP1 DUP4 PUSH20 0xFFFFFFFFFFFFFFFFFFFFFFFFFFFFFFFFFFFFFFFF AND MUL OR SWAP1 SSTORE POP PUSH1 0x1 PUSH1 0x2 PUSH0 CALLER PUSH20 0xFFFFFFFFFFFFFFFFFFFFFFFFFFFFFFFFFFFFFFFF AND PUSH20 0xFFFFFFFFFFFFFFFFFFFFFFFFFFFFFFFFFFFFFFFF AND DUP2 MSTORE PUSH1 0x20 ADD SWAP1 DUP2 MSTORE PUSH1 0x20 ADD PUSH0 KECCAK256 PUSH0 PUSH2 0x100 EXP DUP2 SLOAD DUP2 PUSH1 0xFF MUL NOT AND SWAP1 DUP4 ISZERO ISZERO MUL OR SWAP1 SSTORE POP PUSH1 0x1 CALLER SWAP1 DUP1 PUSH1 0x1 DUP2 SLOAD ADD DUP1 DUP3 SSTORE DUP1 SWAP2 POP POP PUSH1 0x1 SWAP1 SUB SWAP1 PUSH0 MSTORE PUSH1 0x20 PUSH0 KECCAK256 ADD PUSH0 SWAP1 SWAP2 SWAP1 SWAP2 SWAP1 SWAP2 PUSH2 0x100 EXP DUP2 SLOAD DUP2 PUSH20 0xFFFFFFFFFFFFFFFFFFFFFFFFFFFFFFFFFFFFFFFF MUL NOT AND SWAP1 DUP4 PUSH20 0xFFFFFFFFFFFFFFFFFFFFFFFFFFFFFFFFFFFFFFFF AND MUL OR SWAP1 SSTORE POP PUSH2 0x22A7 DUP1 PUSH2 0x111 PUSH0 CODECOPY PUSH0 RETURN INVALID PUSH1 0x80 PUSH1 0x40 MSTORE PUSH1 0x4 CALLDATASIZE LT PUSH2 0xE7 JUMPI PUSH0 CALLDATALOAD PUSH1 0xE0 SHR DUP1 PUSH4 0x8DA5CB5B GT PUSH2 0x89 JUMPI DUP1 PUSH4 0xD6081FFF GT PUSH2 0x58 JUMPI DUP1 PUSH4 0xD6081FFF EQ PUSH2 0x2DB JUMPI DUP1 PUSH4 0xD7A1CFE1 EQ PUSH2 0x303 JUMPI DUP1 PUSH4 0xE4860841 EQ PUSH2 0x32B JUMPI DUP1 PUSH4 0xFA74542D EQ PUSH2 0x367 JUMPI PUSH2 0xE7 JUMP JUMPDEST DUP1 PUSH4 0x8DA5CB5B EQ PUSH2 0x255 JUMPI DUP1 PUSH4 0xA49E225A EQ PUSH2 0x27F JUMPI DUP1 PUSH4 0xC71DACCB EQ PUSH2 0x2A7 JUMPI DUP1 PUSH4 0xCAFE82CF EQ PUSH2 0x2D1 JUMPI PUSH2 0xE7 JUMP JUMPDEST DUP1 PUSH4 0x272B39E0 GT PUSH2 0xC5 JUMPI DUP1 PUSH4 0x272B39E0 EQ PUSH2 0x18B JUMPI DUP1 PUSH4 0x27E235E3 EQ PUSH2 0x1B5 JUMPI DUP1 PUSH4 0x2E1A7D4D EQ PUSH2 0x1F1 JUMPI DUP1 PUSH4 0x4AC1C33D EQ PUSH2 0x219 JUMPI PUSH2 0xE7 JUMP JUMPDEST DUP1 PUSH4 0x5B1137B EQ PUSH2 0xEB JUMPI DUP1 PUSH4 0x735F724 EQ PUSH2 0x113 JUMPI DUP1 PUSH4 0x21668A01 EQ PUSH2 0x14F JUMPI JUMPDEST PUSH0 PUSH0 REVERT JUMPDEST CALLVALUE DUP1 ISZERO PUSH2 0xF6 JUMPI PUSH0 PUSH0 REVERT JUMPDEST POP PUSH2 0x111 PUSH1 0x4 DUP1 CALLDATASIZE SUB DUP2 ADD SWAP1 PUSH2 0x10C SWAP2 SWAP1 PUSH2 0x1A70 JUMP JUMPDEST PUSH2 0x38F JUMP JUMPDEST STOP JUMPDEST CALLVALUE DUP1 ISZERO PUSH2 0x11E JUMPI PUSH0 PUSH0 REVERT JUMPDEST POP PUSH2 0x139 PUSH1 0x4 DUP1 CALLDATASIZE SUB DUP2 ADD SWAP1 PUSH2 0x134 SWAP2 SWAP1 PUSH2 0x1AE9 JUMP JUMPDEST PUSH2 0x6BF JUMP JUMPDEST PUSH1 0x40 MLOAD PUSH2 0x146 SWAP2 SWAP1 PUSH2 0x1B23 JUMP JUMPDEST PUSH1 0x40 MLOAD DUP1 SWAP2 SUB SWAP1 RETURN JUMPDEST CALLVALUE DUP1 ISZERO PUSH2 0x15A JUMPI PUSH0 PUSH0 REVERT JUMPDEST POP PUSH2 0x175 PUSH1 0x4 DUP1 CALLDATASIZE SUB DUP2 ADD SWAP1 PUSH2 0x170 SWAP2 SWAP1 PUSH2 0x1B3C JUMP JUMPDEST PUSH2 0x7C9 JUMP JUMPDEST PUSH1 0x40 MLOAD PUSH2 0x182 SWAP2 SWAP1 PUSH2 0x1B76 JUMP JUMPDEST PUSH1 0x40 MLOAD DUP1 SWAP2 SUB SWAP1 RETURN JUMPDEST CALLVALUE DUP1 ISZERO PUSH2 0x196 JUMPI PUSH0 PUSH0 REVERT JUMPDEST POP PUSH2 0x19F PUSH2 0x804 JUMP JUMPDEST PUSH1 0x40 MLOAD PUSH2 0x1AC SWAP2 SWAP1 PUSH2 0x1C46 JUMP JUMPDEST PUSH1 0x40 MLOAD DUP1 SWAP2 SUB SWAP1 RETURN JUMPDEST CALLVALUE DUP1 ISZERO PUSH2 0x1C0 JUMPI PUSH0 PUSH0 REVERT JUMPDEST POP PUSH2 0x1DB PUSH1 0x4 DUP1 CALLDATASIZE SUB DUP2 ADD SWAP1 PUSH2 0x1D6 SWAP2 SWAP1 PUSH2 0x1AE9 JUMP JUMPDEST PUSH2 0x918 JUMP JUMPDEST PUSH1 0x40 MLOAD PUSH2 0x1E8 SWAP2 SWAP1 PUSH2 0x1B23 JUMP JUMPDEST PUSH1 0x40 MLOAD DUP1 SWAP2 SUB SWAP1 RETURN JUMPDEST CALLVALUE DUP1 ISZERO PUSH2 0x1FC JUMPI PUSH0 PUSH0 REVERT JUMPDEST POP PUSH2 0x217 PUSH1 0x4 DUP1 CALLDATASIZE SUB DUP2 ADD SWAP1 PUSH2 0x212 SWAP2 SWAP1 PUSH2 0x1B3C JUMP JUMPDEST PUSH2 0x92D JUMP JUMPDEST STOP JUMPDEST CALLVALUE DUP1 ISZERO PUSH2 0x224 JUMPI PUSH0 PUSH0 REVERT JUMPDEST POP PUSH2 0x23F PUSH1 0x4 DUP1 CALLDATASIZE SUB DUP2 ADD SWAP1 PUSH2 0x23A SWAP2 SWAP1 PUSH2 0x1C66 JUMP JUMPDEST PUSH2 0xB35 JUMP JUMPDEST PUSH1 0x40 MLOAD PUSH2 0x24C SWAP2 SWAP1 PUSH2 0x1B23 JUMP JUMPDEST PUSH1 0x40 MLOAD DUP1 SWAP2 SUB SWAP1 RETURN JUMPDEST CALLVALUE DUP1 ISZERO PUSH2 0x260 JUMPI PUSH0 PUSH0 REVERT JUMPDEST POP PUSH2 0x269 PUSH2 0xB55 JUMP JUMPDEST PUSH1 0x40 MLOAD PUSH2 0x276 SWAP2 SWAP1 PUSH2 0x1B76 JUMP JUMPDEST PUSH1 0x40 MLOAD DUP1 SWAP2 SUB SWAP1 RETURN JUMPDEST CALLVALUE DUP1 ISZERO PUSH2 0x28A JUMPI PUSH0 PUSH0 REVERT JUMPDEST POP PUSH2 0x2A5 PUSH1 0x4 DUP1 CALLDATASIZE SUB DUP2 ADD SWAP1 PUSH2 0x2A0 SWAP2 SWAP1 PUSH2 0x1CA4 JUMP JUMPDEST PUSH2 0xB79 JUMP JUMPDEST STOP JUMPDEST CALLVALUE DUP1 ISZERO PUSH2 0x2B2 JUMPI PUSH0 PUSH0 REVERT JUMPDEST POP PUSH2 0x2BB PUSH2 0xFAE JUMP JUMPDEST PUSH1 0x40 MLOAD PUSH2 0x2C8 SWAP2 SWAP1 PUSH2 0x1B23 JUMP JUMPDEST PUSH1 0x40 MLOAD DUP1 SWAP2 SUB SWAP1 RETURN JUMPDEST PUSH2 0x2D9 PUSH2 0x107B JUMP JUMPDEST STOP JUMPDEST CALLVALUE DUP1 ISZERO PUSH2 0x2E6 JUMPI PUSH0 PUSH0 REVERT JUMPDEST POP PUSH2 0x301 PUSH1 0x4 DUP1 CALLDATASIZE SUB DUP2 ADD SWAP1 PUSH2 0x2FC SWAP2 SWAP1 PUSH2 0x1A70 JUMP JUMPDEST PUSH2 0x119B JUMP JUMPDEST STOP JUMPDEST CALLVALUE DUP1 ISZERO PUSH2 0x30E JUMPI PUSH0 PUSH0 REVERT JUMPDEST POP PUSH2 0x329 PUSH1 0x4 DUP1 CALLDATASIZE SUB DUP2 ADD SWAP1 PUSH2 0x324 SWAP2 SWAP1 PUSH2 0x1AE9 JUMP JUMPDEST PUSH2 0x1530 JUMP JUMPDEST STOP JUMPDEST CALLVALUE DUP1 ISZERO PUSH2 0x336 JUMPI PUSH0 PUSH0 REVERT JUMPDEST POP PUSH2 0x351 PUSH1 0x4 DUP1 CALLDATASIZE SUB DUP2 ADD SWAP1 PUSH2 0x34C SWAP2 SWAP1 PUSH2 0x1AE9 JUMP JUMPDEST PUSH2 0x176E JUMP JUMPDEST PUSH1 0x40 MLOAD PUSH2 0x35E SWAP2 SWAP1 PUSH2 0x1CFC JUMP JUMPDEST PUSH1 0x40 MLOAD DUP1 SWAP2 SUB SWAP1 RETURN JUMPDEST CALLVALUE DUP1 ISZERO PUSH2 0x372 JUMPI PUSH0 PUSH0 REVERT JUMPDEST POP PUSH2 0x38D PUSH1 0x4 DUP1 CALLDATASIZE SUB DUP2 ADD SWAP1 PUSH2 0x388 SWAP2 SWAP1 PUSH2 0x1CA4 JUMP JUMPDEST PUSH2 0x178B JUMP JUMPDEST STOP JUMPDEST PUSH1 0x2 PUSH0 CALLER PUSH20 0xFFFFFFFFFFFFFFFFFFFFFFFFFFFFFFFFFFFFFFFF AND PUSH20 0xFFFFFFFFFFFFFFFFFFFFFFFFFFFFFFFFFFFFFFFF AND DUP2 MSTORE PUSH1 0x20 ADD SWAP1 DUP2 MSTORE PUSH1 0x20 ADD PUSH0 KECCAK256 PUSH0 SWAP1 SLOAD SWAP1 PUSH2 0x100 EXP SWAP1 DIV PUSH1 0xFF AND PUSH2 0x418 JUMPI PUSH1 0x40 MLOAD PUSH32 0x8C379A000000000000000000000000000000000000000000000000000000000 DUP2 MSTORE PUSH1 0x4 ADD PUSH2 0x40F SWAP1 PUSH2 0x1D6F JUMP JUMPDEST PUSH1 0x40 MLOAD DUP1 SWAP2 SUB SWAP1 REVERT JUMPDEST PUSH0 PUSH20 0xFFFFFFFFFFFFFFFFFFFFFFFFFFFFFFFFFFFFFFFF AND DUP3 PUSH20 0xFFFFFFFFFFFFFFFFFFFFFFFFFFFFFFFFFFFFFFFF AND SUB PUSH2 0x486 JUMPI PUSH1 0x40 MLOAD PUSH32 0x8C379A000000000000000000000000000000000000000000000000000000000 DUP2 MSTORE PUSH1 0x4 ADD PUSH2 0x47D SWAP1 PUSH2 0x1DD7 JUMP JUMPDEST PUSH1 0x40 MLOAD DUP1 SWAP2 SUB SWAP1 REVERT JUMPDEST PUSH1 0x2 PUSH0 DUP4 PUSH20 0xFFFFFFFFFFFFFFFFFFFFFFFFFFFFFFFFFFFFFFFF AND PUSH20 0xFFFFFFFFFFFFFFFFFFFFFFFFFFFFFFFFFFFFFFFF AND DUP2 MSTORE PUSH1 0x20 ADD SWAP1 DUP2 MSTORE PUSH1 0x20 ADD PUSH0 KECCAK256 PUSH0 SWAP1 SLOAD SWAP1 PUSH2 0x100 EXP SWAP1 DIV PUSH1 0xFF AND PUSH2 0x50F JUMPI PUSH1 0x40 MLOAD PUSH32 0x8C379A000000000000000000000000000000000000000000000000000000000 DUP2 MSTORE PUSH1 0x4 ADD PUSH2 0x506 SWAP1 PUSH2 0x1E3F JUMP JUMPDEST PUSH1 0x40 MLOAD DUP1 SWAP2 SUB SWAP1 REVERT JUMPDEST PUSH0 DUP2 GT PUSH2 0x551 JUMPI PUSH1 0x40 MLOAD PUSH32 0x8C379A000000000000000000000000000000000000000000000000000000000 DUP2 MSTORE PUSH1 0x4 ADD PUSH2 0x548 SWAP1 PUSH2 0x1EA7 JUMP JUMPDEST PUSH1 0x40 MLOAD DUP1 SWAP2 SUB SWAP1 REVERT JUMPDEST DUP1 PUSH1 0x3 PUSH0 CALLER PUSH20 0xFFFFFFFFFFFFFFFFFFFFFFFFFFFFFFFFFFFFFFFF AND PUSH20 0xFFFFFFFFFFFFFFFFFFFFFFFFFFFFFFFFFFFFFFFF AND DUP2 MSTORE PUSH1 0x20 ADD SWAP1 DUP2 MSTORE PUSH1 0x20 ADD PUSH0 KECCAK256 SLOAD LT ISZERO PUSH2 0x5D1 JUMPI PUSH1 0x40 MLOAD PUSH32 0x8C379A000000000000000000000000000000000000000000000000000000000 DUP2 MSTORE PUSH1 0x4 ADD PUSH2 0x5C8 SWAP1 PUSH2 0x1F0F JUMP JUMPDEST PUSH1 0x40 MLOAD DUP1 SWAP2 SUB SWAP1 REVERT JUMPDEST DUP1 PUSH1 0x3 PUSH0 CALLER PUSH20 0xFFFFFFFFFFFFFFFFFFFFFFFFFFFFFFFFFFFFFFFF AND PUSH20 0xFFFFFFFFFFFFFFFFFFFFFFFFFFFFFFFFFFFFFFFF AND DUP2 MSTORE PUSH1 0x20 ADD SWAP1 DUP2 MSTORE PUSH1 0x20 ADD PUSH0 KECCAK256 PUSH0 DUP3 DUP3 SLOAD PUSH2 0x61D SWAP2 SWAP1 PUSH2 0x1F5A JUMP JUMPDEST SWAP3 POP POP DUP2 SWAP1 SSTORE POP DUP1 PUSH1 0x3 PUSH0 DUP5 PUSH20 0xFFFFFFFFFFFFFFFFFFFFFFFFFFFFFFFFFFFFFFFF AND PUSH20 0xFFFFFFFFFFFFFFFFFFFFFFFFFFFFFFFFFFFFFFFF AND DUP2 MSTORE PUSH1 0x20 ADD SWAP1 DUP2 MSTORE PUSH1 0x20 ADD PUSH0 KECCAK256 PUSH0 DUP3 DUP3 SLOAD PUSH2 0x670 SWAP2 SWAP1 PUSH2 0x1F8D JUMP JUMPDEST SWAP3 POP POP DUP2 SWAP1 SSTORE POP DUP2 PUSH20 0xFFFFFFFFFFFFFFFFFFFFFFFFFFFFFFFFFFFFFFFF AND PUSH2 0x8FC DUP3 SWAP1 DUP2 ISZERO MUL SWAP1 PUSH1 0x40 MLOAD PUSH0 PUSH1 0x40 MLOAD DUP1 DUP4 SUB DUP2 DUP6 DUP9 DUP9 CALL SWAP4 POP POP POP POP ISZERO DUP1 ISZERO PUSH2 0x6BA JUMPI RETURNDATASIZE PUSH0 PUSH0 RETURNDATACOPY RETURNDATASIZE PUSH0 REVERT JUMPDEST POP POP POP JUMP JUMPDEST PUSH0 PUSH1 0x2 PUSH0 CALLER PUSH20 0xFFFFFFFFFFFFFFFFFFFFFFFFFFFFFFFFFFFFFFFF AND PUSH20 0xFFFFFFFFFFFFFFFFFFFFFFFFFFFFFFFFFFFFFFFF AND DUP2 MSTORE PUSH1 0x20 ADD SWAP1 DUP2 MSTORE PUSH1 0x20 ADD PUSH0 KECCAK256 PUSH0 SWAP1 SLOAD SWAP1 PUSH2 0x100 EXP SWAP1 DIV PUSH1 0xFF AND PUSH2 0x749 JUMPI PUSH1 0x40 MLOAD PUSH32 0x8C379A000000000000000000000000000000000000000000000000000000000 DUP2 MSTORE PUSH1 0x4 ADD PUSH2 0x740 SWAP1 PUSH2 0x1D6F JUMP JUMPDEST PUSH1 0x40 MLOAD DUP1 SWAP2 SUB SWAP1 REVERT JUMPDEST PUSH1 0x4 PUSH0 CALLER PUSH20 0xFFFFFFFFFFFFFFFFFFFFFFFFFFFFFFFFFFFFFFFF AND PUSH20 0xFFFFFFFFFFFFFFFFFFFFFFFFFFFFFFFFFFFFFFFF AND DUP2 MSTORE PUSH1 0x20 ADD SWAP1 DUP2 MSTORE PUSH1 0x20 ADD PUSH0 KECCAK256 PUSH0 DUP4 PUSH20 0xFFFFFFFFFFFFFFFFFFFFFFFFFFFFFFFFFFFFFFFF AND PUSH20 0xFFFFFFFFFFFFFFFFFFFFFFFFFFFFFFFFFFFFFFFF AND DUP2 MSTORE PUSH1 0x20 ADD SWAP1 DUP2 MSTORE PUSH1 0x20 ADD PUSH0 KECCAK256 SLOAD SWAP1 POP SWAP2 SWAP1 POP JUMP JUMPDEST PUSH1 0x1 DUP2 DUP2 SLOAD DUP2 LT PUSH2 0x7D8 JUMPI PUSH0 DUP1 REVERT JUMPDEST SWAP1 PUSH0 MSTORE PUSH1 0x20 PUSH0 KECCAK256 ADD PUSH0 SWAP2 POP SLOAD SWAP1 PUSH2 0x100 EXP SWAP1 DIV PUSH20 0xFFFFFFFFFFFFFFFFFFFFFFFFFFFFFFFFFFFFFFFF AND DUP2 JUMP JUMPDEST PUSH1 0x60 PUSH1 0x2 PUSH0 CALLER PUSH20 0xFFFFFFFFFFFFFFFFFFFFFFFFFFFFFFFFFFFFFFFF AND PUSH20 0xFFFFFFFFFFFFFFFFFFFFFFFFFFFFFFFFFFFFFFFF AND DUP2 MSTORE PUSH1 0x20 ADD SWAP1 DUP2 MSTORE PUSH1 0x20 ADD PUSH0 KECCAK256 PUSH0 SWAP1 SLOAD SWAP1 PUSH2 0x100 EXP SWAP1 DIV PUSH1 0xFF AND PUSH2 0x88F JUMPI PUSH1 0x40 MLOAD PUSH32 0x8C379A000000000000000000000000000000000000000000000000000000000 DUP2 MSTORE PUSH1 0x4 ADD PUSH2 0x886 SWAP1 PUSH2 0x1D6F JUMP JUMPDEST PUSH1 0x40 MLOAD DUP1 SWAP2 SUB SWAP1 REVERT JUMPDEST PUSH1 0x1 DUP1 SLOAD DUP1 PUSH1 0x20 MUL PUSH1 0x20 ADD PUSH1 0x40 MLOAD SWAP1 DUP2 ADD PUSH1 0x40 MSTORE DUP1 SWAP3 SWAP2 SWAP1 DUP2 DUP2 MSTORE PUSH1 0x20 ADD DUP3 DUP1 SLOAD DUP1 ISZERO PUSH2 0x90E JUMPI PUSH1 0x20 MUL DUP3 ADD SWAP2 SWAP1 PUSH0 MSTORE PUSH1 0x20 PUSH0 KECCAK256 SWAP1 JUMPDEST DUP2 PUSH0 SWAP1 SLOAD SWAP1 PUSH2 0x100 EXP SWAP1 DIV PUSH20 0xFFFFFFFFFFFFFFFFFFFFFFFFFFFFFFFFFFFFFFFF AND PUSH20 0xFFFFFFFFFFFFFFFFFFFFFFFFFFFFFFFFFFFFFFFF AND DUP2 MSTORE PUSH1 0x20 ADD SWAP1 PUSH1 0x1 ADD SWAP1 DUP1 DUP4 GT PUSH2 0x8C5 JUMPI JUMPDEST POP POP POP POP POP SWAP1 POP SWAP1 JUMP JUMPDEST PUSH1 0x3 PUSH1 0x20 MSTORE DUP1 PUSH0 MSTORE PUSH1 0x40 PUSH0 KECCAK256 PUSH0 SWAP2 POP SWAP1 POP SLOAD DUP2 JUMP JUMPDEST PUSH1 0x2 PUSH0 CALLER PUSH20 0xFFFFFFFFFFFFFFFFFFFFFFFFFFFFFFFFFFFFFFFF AND PUSH20 0xFFFFFFFFFFFFFFFFFFFFFFFFFFFFFFFFFFFFFFFF AND DUP2 MSTORE PUSH1 0x20 ADD SWAP1 DUP2 MSTORE PUSH1 0x20 ADD PUSH0 KECCAK256 PUSH0 SWAP1 SLOAD SWAP1 PUSH2 0x100 EXP SWAP1 DIV PUSH1 0xFF AND PUSH2 0x9B6 JUMPI PUSH1 0x40 MLOAD PUSH32 0x8C379A000000000000000000000000000000000000000000000000000000000 DUP2 MSTORE PUSH1 0x4 ADD PUSH2 0x9AD SWAP1 PUSH2 0x1D6F JUMP JUMPDEST PUSH1 0x40 MLOAD DUP1 SWAP2 SUB SWAP1 REVERT JUMPDEST DUP1 PUSH1 0x3 PUSH0 CALLER PUSH20 0xFFFFFFFFFFFFFFFFFFFFFFFFFFFFFFFFFFFFFFFF AND PUSH20 0xFFFFFFFFFFFFFFFFFFFFFFFFFFFFFFFFFFFFFFFF AND DUP2 MSTORE PUSH1 0x20 ADD SWAP1 DUP2 MSTORE PUSH1 0x20 ADD PUSH0 KECCAK256 SLOAD LT ISZERO PUSH2 0xA36 JUMPI PUSH1 0x40 MLOAD PUSH32 0x8C379A000000000000000000000000000000000000000000000000000000000 DUP2 MSTORE PUSH1 0x4 ADD PUSH2 0xA2D SWAP1 PUSH2 0x1F0F JUMP JUMPDEST PUSH1 0x40 MLOAD DUP1 SWAP2 SUB SWAP1 REVERT JUMPDEST DUP1 PUSH1 0x3 PUSH0 CALLER PUSH20 0xFFFFFFFFFFFFFFFFFFFFFFFFFFFFFFFFFFFFFFFF AND PUSH20 0xFFFFFFFFFFFFFFFFFFFFFFFFFFFFFFFFFFFFFFFF AND DUP2 MSTORE PUSH1 0x20 ADD SWAP1 DUP2 MSTORE PUSH1 0x20 ADD PUSH0 KECCAK256 PUSH0 DUP3 DUP3 SLOAD PUSH2 0xA82 SWAP2 SWAP1 PUSH2 0x1F5A JUMP JUMPDEST SWAP3 POP POP DUP2 SWAP1 SSTORE POP PUSH0 CALLER PUSH20 0xFFFFFFFFFFFFFFFFFFFFFFFFFFFFFFFFFFFFFFFF AND DUP3 PUSH1 0x40 MLOAD PUSH2 0xAAE SWAP1 PUSH2 0x1FED JUMP JUMPDEST PUSH0 PUSH1 0x40 MLOAD DUP1 DUP4 SUB DUP2 DUP6 DUP8 GAS CALL SWAP3 POP POP POP RETURNDATASIZE DUP1 PUSH0 DUP2 EQ PUSH2 0xAE8 JUMPI PUSH1 0x40 MLOAD SWAP2 POP PUSH1 0x1F NOT PUSH1 0x3F RETURNDATASIZE ADD AND DUP3 ADD PUSH1 0x40 MSTORE RETURNDATASIZE DUP3 MSTORE RETURNDATASIZE PUSH0 PUSH1 0x20 DUP5 ADD RETURNDATACOPY PUSH2 0xAED JUMP JUMPDEST PUSH1 0x60 SWAP2 POP JUMPDEST POP POP SWAP1 POP DUP1 PUSH2 0xB31 JUMPI PUSH1 0x40 MLOAD PUSH32 0x8C379A000000000000000000000000000000000000000000000000000000000 DUP2 MSTORE PUSH1 0x4 ADD PUSH2 0xB28 SWAP1 PUSH2 0x204B JUMP JUMPDEST PUSH1 0x40 MLOAD DUP1 SWAP2 SUB SWAP1 REVERT JUMPDEST POP POP JUMP JUMPDEST PUSH1 0x4 PUSH1 0x20 MSTORE DUP2 PUSH0 MSTORE PUSH1 0x40 PUSH0 KECCAK256 PUSH1 0x20 MSTORE DUP1 PUSH0 MSTORE PUSH1 0x40 PUSH0 KECCAK256 PUSH0 SWAP2 POP SWAP2 POP POP SLOAD DUP2 JUMP JUMPDEST PUSH0 PUSH0 SWAP1 SLOAD SWAP1 PUSH2 0x100 EXP SWAP1 DIV PUSH20 0xFFFFFFFFFFFFFFFFFFFFFFFFFFFFFFFFFFFFFFFF AND DUP2 JUMP JUMPDEST PUSH1 0x2 PUSH0 CALLER PUSH20 0xFFFFFFFFFFFFFFFFFFFFFFFFFFFFFFFFFFFFFFFF AND PUSH20 0xFFFFFFFFFFFFFFFFFFFFFFFFFFFFFFFFFFFFFFFF AND DUP2 MSTORE PUSH1 0x20 ADD SWAP1 DUP2 MSTORE PUSH1 0x20 ADD PUSH0 KECCAK256 PUSH0 SWAP1 SLOAD SWAP1 PUSH2 0x100 EXP SWAP1 DIV PUSH1 0xFF AND PUSH2 0xC02 JUMPI PUSH1 0x40 MLOAD PUSH32 0x8C379A000000000000000000000000000000000000000000000000000000000 DUP2 MSTORE PUSH1 0x4 ADD PUSH2 0xBF9 SWAP1 PUSH2 0x1D6F JUMP JUMPDEST PUSH1 0x40 MLOAD DUP1 SWAP2 SUB SWAP1 REVERT JUMPDEST PUSH0 PUSH20 0xFFFFFFFFFFFFFFFFFFFFFFFFFFFFFFFFFFFFFFFF AND DUP3 PUSH20 0xFFFFFFFFFFFFFFFFFFFFFFFFFFFFFFFFFFFFFFFF AND SUB PUSH2 0xC70 JUMPI PUSH1 0x40 MLOAD PUSH32 0x8C379A000000000000000000000000000000000000000000000000000000000 DUP2 MSTORE PUSH1 0x4 ADD PUSH2 0xC67 SWAP1 PUSH2 0x1DD7 JUMP JUMPDEST PUSH1 0x40 MLOAD DUP1 SWAP2 SUB SWAP1 REVERT JUMPDEST PUSH1 0x2 PUSH0 DUP4 PUSH20 0xFFFFFFFFFFFFFFFFFFFFFFFFFFFFFFFFFFFFFFFF AND PUSH20 0xFFFFFFFFFFFFFFFFFFFFFFFFFFFFFFFFFFFFFFFF AND DUP2 MSTORE PUSH1 0x20 ADD SWAP1 DUP2 MSTORE PUSH1 0x20 ADD PUSH0 KECCAK256 PUSH0 SWAP1 SLOAD SWAP1 PUSH2 0x100 EXP SWAP1 DIV PUSH1 0xFF AND PUSH2 0xCF9 JUMPI PUSH1 0x40 MLOAD PUSH32 0x8C379A000000000000000000000000000000000000000000000000000000000 DUP2 MSTORE PUSH1 0x4 ADD PUSH2 0xCF0 SWAP1 PUSH2 0x20B3 JUMP JUMPDEST PUSH1 0x40 MLOAD DUP1 SWAP2 SUB SWAP1 REVERT JUMPDEST PUSH0 DUP2 GT PUSH2 0xD3B JUMPI PUSH1 0x40 MLOAD PUSH32 0x8C379A000000000000000000000000000000000000000000000000000000000 DUP2 MSTORE PUSH1 0x4 ADD PUSH2 0xD32 SWAP1 PUSH2 0x1EA7 JUMP JUMPDEST PUSH1 0x40 MLOAD DUP1 SWAP2 SUB SWAP1 REVERT JUMPDEST DUP1 PUSH1 0x3 PUSH0 CALLER PUSH20 0xFFFFFFFFFFFFFFFFFFFFFFFFFFFFFFFFFFFFFFFF AND PUSH20 0xFFFFFFFFFFFFFFFFFFFFFFFFFFFFFFFFFFFFFFFF AND DUP2 MSTORE PUSH1 0x20 ADD SWAP1 DUP2 MSTORE PUSH1 0x20 ADD PUSH0 KECCAK256 SLOAD LT ISZERO PUSH2 0xDBB JUMPI PUSH1 0x40 MLOAD PUSH32 0x8C379A000000000000000000000000000000000000000000000000000000000 DUP2 MSTORE PUSH1 0x4 ADD PUSH2 0xDB2 SWAP1 PUSH2 0x1F0F JUMP JUMPDEST PUSH1 0x40 MLOAD DUP1 SWAP2 SUB SWAP1 REVERT JUMPDEST DUP1 PUSH1 0x4 PUSH0 CALLER PUSH20 0xFFFFFFFFFFFFFFFFFFFFFFFFFFFFFFFFFFFFFFFF AND PUSH20 0xFFFFFFFFFFFFFFFFFFFFFFFFFFFFFFFFFFFFFFFF AND DUP2 MSTORE PUSH1 0x20 ADD SWAP1 DUP2 MSTORE PUSH1 0x20 ADD PUSH0 KECCAK256 PUSH0 DUP5 PUSH20 0xFFFFFFFFFFFFFFFFFFFFFFFFFFFFFFFFFFFFFFFF AND PUSH20 0xFFFFFFFFFFFFFFFFFFFFFFFFFFFFFFFFFFFFFFFF AND DUP2 MSTORE PUSH1 0x20 ADD SWAP1 DUP2 MSTORE PUSH1 0x20 ADD PUSH0 KECCAK256 SLOAD LT ISZERO PUSH2 0xE76 JUMPI PUSH1 0x40 MLOAD PUSH32 0x8C379A000000000000000000000000000000000000000000000000000000000 DUP2 MSTORE PUSH1 0x4 ADD PUSH2 0xE6D SWAP1 PUSH2 0x211B JUMP JUMPDEST PUSH1 0x40 MLOAD DUP1 SWAP2 SUB SWAP1 REVERT JUMPDEST DUP1 PUSH1 0x3 PUSH0 CALLER PUSH20 0xFFFFFFFFFFFFFFFFFFFFFFFFFFFFFFFFFFFFFFFF AND PUSH20 0xFFFFFFFFFFFFFFFFFFFFFFFFFFFFFFFFFFFFFFFF AND DUP2 MSTORE PUSH1 0x20 ADD SWAP1 DUP2 MSTORE PUSH1 0x20 ADD PUSH0 KECCAK256 PUSH0 DUP3 DUP3 SLOAD PUSH2 0xEC2 SWAP2 SWAP1 PUSH2 0x1F5A JUMP JUMPDEST SWAP3 POP POP DUP2 SWAP1 SSTORE POP DUP1 PUSH1 0x3 PUSH0 DUP5 PUSH20 0xFFFFFFFFFFFFFFFFFFFFFFFFFFFFFFFFFFFFFFFF AND PUSH20 0xFFFFFFFFFFFFFFFFFFFFFFFFFFFFFFFFFFFFFFFF AND DUP2 MSTORE PUSH1 0x20 ADD SWAP1 DUP2 MSTORE PUSH1 0x20 ADD PUSH0 KECCAK256 PUSH0 DUP3 DUP3 SLOAD PUSH2 0xF15 SWAP2 SWAP1 PUSH2 0x1F8D JUMP JUMPDEST SWAP3 POP POP DUP2 SWAP1 SSTORE POP DUP1 PUSH1 0x4 PUSH0 CALLER PUSH20 0xFFFFFFFFFFFFFFFFFFFFFFFFFFFFFFFFFFFFFFFF AND PUSH20 0xFFFFFFFFFFFFFFFFFFFFFFFFFFFFFFFFFFFFFFFF AND DUP2 MSTORE PUSH1 0x20 ADD SWAP1 DUP2 MSTORE PUSH1 0x20 ADD PUSH0 KECCAK256 PUSH0 DUP5 PUSH20 0xFFFFFFFFFFFFFFFFFFFFFFFFFFFFFFFFFFFFFFFF AND PUSH20 0xFFFFFFFFFFFFFFFFFFFFFFFFFFFFFFFFFFFFFFFF AND DUP2 MSTORE PUSH1 0x20 ADD SWAP1 DUP2 MSTORE PUSH1 0x20 ADD PUSH0 KECCAK256 PUSH0 DUP3 DUP3 SLOAD PUSH2 0xFA3 SWAP2 SWAP1 PUSH2 0x1F5A JUMP JUMPDEST SWAP3 POP POP DUP2 SWAP1 SSTORE POP POP POP JUMP JUMPDEST PUSH0 PUSH1 0x2 PUSH0 CALLER PUSH20 0xFFFFFFFFFFFFFFFFFFFFFFFFFFFFFFFFFFFFFFFF AND PUSH20 0xFFFFFFFFFFFFFFFFFFFFFFFFFFFFFFFFFFFFFFFF AND DUP2 MSTORE PUSH1 0x20 ADD SWAP1 DUP2 MSTORE PUSH1 0x20 ADD PUSH0 KECCAK256 PUSH0 SWAP1 SLOAD SWAP1 PUSH2 0x100 EXP SWAP1 DIV PUSH1 0xFF AND PUSH2 0x1038 JUMPI PUSH1 0x40 MLOAD PUSH32 0x8C379A000000000000000000000000000000000000000000000000000000000 DUP2 MSTORE PUSH1 0x4 ADD PUSH2 0x102F SWAP1 PUSH2 0x1D6F JUMP JUMPDEST PUSH1 0x40 MLOAD DUP1 SWAP2 SUB SWAP1 REVERT JUMPDEST PUSH1 0x3 PUSH0 CALLER PUSH20 0xFFFFFFFFFFFFFFFFFFFFFFFFFFFFFFFFFFFFFFFF AND PUSH20 0xFFFFFFFFFFFFFFFFFFFFFFFFFFFFFFFFFFFFFFFF AND DUP2 MSTORE PUSH1 0x20 ADD SWAP1 DUP2 MSTORE PUSH1 0x20 ADD PUSH0 KECCAK256 SLOAD SWAP1 POP SWAP1 JUMP JUMPDEST PUSH1 0x2 PUSH0 CALLER PUSH20 0xFFFFFFFFFFFFFFFFFFFFFFFFFFFFFFFFFFFFFFFF AND PUSH20 0xFFFFFFFFFFFFFFFFFFFFFFFFFFFFFFFFFFFFFFFF AND DUP2 MSTORE PUSH1 0x20 ADD SWAP1 DUP2 MSTORE PUSH1 0x20 ADD PUSH0 KECCAK256 PUSH0 SWAP1 SLOAD SWAP1 PUSH2 0x100 EXP SWAP1 DIV PUSH1 0xFF AND PUSH2 0x1104 JUMPI PUSH1 0x40 MLOAD PUSH32 0x8C379A000000000000000000000000000000000000000000000000000000000 DUP2 MSTORE PUSH1 0x4 ADD PUSH2 0x10FB SWAP1 PUSH2 0x1D6F JUMP JUMPDEST PUSH1 0x40 MLOAD DUP1 SWAP2 SUB SWAP1 REVERT JUMPDEST PUSH0 CALLVALUE GT PUSH2 0x1146 JUMPI PUSH1 0x40 MLOAD PUSH32 0x8C379A000000000000000000000000000000000000000000000000000000000 DUP2 MSTORE PUSH1 0x4 ADD PUSH2 0x113D SWAP1 PUSH2 0x2183 JUMP JUMPDEST PUSH1 0x40 MLOAD DUP1 SWAP2 SUB SWAP1 REVERT JUMPDEST CALLVALUE PUSH1 0x3 PUSH0 CALLER PUSH20 0xFFFFFFFFFFFFFFFFFFFFFFFFFFFFFFFFFFFFFFFF AND PUSH20 0xFFFFFFFFFFFFFFFFFFFFFFFFFFFFFFFFFFFFFFFF AND DUP2 MSTORE PUSH1 0x20 ADD SWAP1 DUP2 MSTORE PUSH1 0x20 ADD PUSH0 KECCAK256 PUSH0 DUP3 DUP3 SLOAD PUSH2 0x1192 SWAP2 SWAP1 PUSH2 0x1F8D JUMP JUMPDEST SWAP3 POP POP DUP2 SWAP1 SSTORE POP JUMP JUMPDEST PUSH1 0x2 PUSH0 CALLER PUSH20 0xFFFFFFFFFFFFFFFFFFFFFFFFFFFFFFFFFFFFFFFF AND PUSH20 0xFFFFFFFFFFFFFFFFFFFFFFFFFFFFFFFFFFFFFFFF AND DUP2 MSTORE PUSH1 0x20 ADD SWAP1 DUP2 MSTORE PUSH1 0x20 ADD PUSH0 KECCAK256 PUSH0 SWAP1 SLOAD SWAP1 PUSH2 0x100 EXP SWAP1 DIV PUSH1 0xFF AND PUSH2 0x1224 JUMPI PUSH1 0x40 MLOAD PUSH32 0x8C379A000000000000000000000000000000000000000000000000000000000 DUP2 MSTORE PUSH1 0x4 ADD PUSH2 0x121B SWAP1 PUSH2 0x1D6F JUMP JUMPDEST PUSH1 0x40 MLOAD DUP1 SWAP2 SUB SWAP1 REVERT JUMPDEST PUSH0 PUSH20 0xFFFFFFFFFFFFFFFFFFFFFFFFFFFFFFFFFFFFFFFF AND DUP3 PUSH20 0xFFFFFFFFFFFFFFFFFFFFFFFFFFFFFFFFFFFFFFFF AND SUB PUSH2 0x1292 JUMPI PUSH1 0x40 MLOAD PUSH32 0x8C379A000000000000000000000000000000000000000000000000000000000 DUP2 MSTORE PUSH1 0x4 ADD PUSH2 0x1289 SWAP1 PUSH2 0x1DD7 JUMP JUMPDEST PUSH1 0x40 MLOAD DUP1 SWAP2 SUB SWAP1 REVERT JUMPDEST PUSH1 0x2 PUSH0 DUP4 PUSH20 0xFFFFFFFFFFFFFFFFFFFFFFFFFFFFFFFFFFFFFFFF AND PUSH20 0xFFFFFFFFFFFFFFFFFFFFFFFFFFFFFFFFFFFFFFFF AND DUP2 MSTORE PUSH1 0x20 ADD SWAP1 DUP2 MSTORE PUSH1 0x20 ADD PUSH0 KECCAK256 PUSH0 SWAP1 SLOAD SWAP1 PUSH2 0x100 EXP SWAP1 DIV PUSH1 0xFF AND PUSH2 0x131B JUMPI PUSH1 0x40 MLOAD PUSH32 0x8C379A000000000000000000000000000000000000000000000000000000000 DUP2 MSTORE PUSH1 0x4 ADD PUSH2 0x1312 SWAP1 PUSH2 0x1E3F JUMP JUMPDEST PUSH1 0x40 MLOAD DUP1 SWAP2 SUB SWAP1 REVERT JUMPDEST PUSH0 DUP2 GT PUSH2 0x135D JUMPI PUSH1 0x40 MLOAD PUSH32 0x8C379A000000000000000000000000000000000000000000000000000000000 DUP2 MSTORE PUSH1 0x4 ADD PUSH2 0x1354 SWAP1 PUSH2 0x1EA7 JUMP JUMPDEST PUSH1 0x40 MLOAD DUP1 SWAP2 SUB SWAP1 REVERT JUMPDEST DUP1 PUSH1 0x3 PUSH0 CALLER PUSH20 0xFFFFFFFFFFFFFFFFFFFFFFFFFFFFFFFFFFFFFFFF AND PUSH20 0xFFFFFFFFFFFFFFFFFFFFFFFFFFFFFFFFFFFFFFFF AND DUP2 MSTORE PUSH1 0x20 ADD SWAP1 DUP2 MSTORE PUSH1 0x20 ADD PUSH0 KECCAK256 SLOAD LT ISZERO PUSH2 0x13DD JUMPI PUSH1 0x40 MLOAD PUSH32 0x8C379A000000000000000000000000000000000000000000000000000000000 DUP2 MSTORE PUSH1 0x4 ADD PUSH2 0x13D4 SWAP1 PUSH2 0x1F0F JUMP JUMPDEST PUSH1 0x40 MLOAD DUP1 SWAP2 SUB SWAP1 REVERT JUMPDEST DUP1 PUSH1 0x3 PUSH0 CALLER PUSH20 0xFFFFFFFFFFFFFFFFFFFFFFFFFFFFFFFFFFFFFFFF AND PUSH20 0xFFFFFFFFFFFFFFFFFFFFFFFFFFFFFFFFFFFFFFFF AND DUP2 MSTORE PUSH1 0x20 ADD SWAP1 DUP2 MSTORE PUSH1 0x20 ADD PUSH0 KECCAK256 PUSH0 DUP3 DUP3 SLOAD PUSH2 0x1429 SWAP2 SWAP1 PUSH2 0x1F5A JUMP JUMPDEST SWAP3 POP POP DUP2 SWAP1 SSTORE POP DUP1 PUSH1 0x3 PUSH0 DUP5 PUSH20 0xFFFFFFFFFFFFFFFFFFFFFFFFFFFFFFFFFFFFFFFF AND PUSH20 0xFFFFFFFFFFFFFFFFFFFFFFFFFFFFFFFFFFFFFFFF AND DUP2 MSTORE PUSH1 0x20 ADD SWAP1 DUP2 MSTORE PUSH1 0x20 ADD PUSH0 KECCAK256 PUSH0 DUP3 DUP3 SLOAD PUSH2 0x147C SWAP2 SWAP1 PUSH2 0x1F8D JUMP JUMPDEST SWAP3 POP POP DUP2 SWAP1 SSTORE POP PUSH0 DUP3 PUSH20 0xFFFFFFFFFFFFFFFFFFFFFFFFFFFFFFFFFFFFFFFF AND DUP3 PUSH1 0x40 MLOAD PUSH2 0x14A8 SWAP1 PUSH2 0x1FED JUMP JUMPDEST PUSH0 PUSH1 0x40 MLOAD DUP1 DUP4 SUB DUP2 DUP6 DUP8 GAS CALL SWAP3 POP POP POP RETURNDATASIZE DUP1 PUSH0 DUP2 EQ PUSH2 0x14E2 JUMPI PUSH1 0x40 MLOAD SWAP2 POP PUSH1 0x1F NOT PUSH1 0x3F RETURNDATASIZE ADD AND DUP3 ADD PUSH1 0x40 MSTORE RETURNDATASIZE DUP3 MSTORE RETURNDATASIZE PUSH0 PUSH1 0x20 DUP5 ADD RETURNDATACOPY PUSH2 0x14E7 JUMP JUMPDEST PUSH1 0x60 SWAP2 POP JUMPDEST POP POP SWAP1 POP DUP1 PUSH2 0x152B JUMPI PUSH1 0x40 MLOAD PUSH32 0x8C379A000000000000000000000000000000000000000000000000000000000 DUP2 MSTORE PUSH1 0x4 ADD PUSH2 0x1522 SWAP1 PUSH2 0x204B JUMP JUMPDEST PUSH1 0x40 MLOAD DUP1 SWAP2 SUB SWAP1 REVERT JUMPDEST POP POP POP JUMP JUMPDEST PUSH0 PUSH0 SWAP1 SLOAD SWAP1 PUSH2 0x100 EXP SWAP1 DIV PUSH20 0xFFFFFFFFFFFFFFFFFFFFFFFFFFFFFFFFFFFFFFFF AND PUSH20 0xFFFFFFFFFFFFFFFFFFFFFFFFFFFFFFFFFFFFFFFF AND CALLER PUSH20 0xFFFFFFFFFFFFFFFFFFFFFFFFFFFFFFFFFFFFFFFF AND EQ PUSH2 0x15BE JUMPI PUSH1 0x40 MLOAD PUSH32 0x8C379A000000000000000000000000000000000000000000000000000000000 DUP2 MSTORE PUSH1 0x4 ADD PUSH2 0x15B5 SWAP1 PUSH2 0x21EB JUMP JUMPDEST PUSH1 0x40 MLOAD DUP1 SWAP2 SUB SWAP1 REVERT JUMPDEST PUSH0 PUSH20 0xFFFFFFFFFFFFFFFFFFFFFFFFFFFFFFFFFFFFFFFF AND DUP2 PUSH20 0xFFFFFFFFFFFFFFFFFFFFFFFFFFFFFFFFFFFFFFFF AND SUB PUSH2 0x162C JUMPI PUSH1 0x40 MLOAD PUSH32 0x8C379A000000000000000000000000000000000000000000000000000000000 DUP2 MSTORE PUSH1 0x4 ADD PUSH2 0x1623 SWAP1 PUSH2 0x1DD7 JUMP JUMPDEST PUSH1 0x40 MLOAD DUP1 SWAP2 SUB SWAP1 REVERT JUMPDEST PUSH1 0x2 PUSH0 DUP3 PUSH20 0xFFFFFFFFFFFFFFFFFFFFFFFFFFFFFFFFFFFFFFFF AND PUSH20 0xFFFFFFFFFFFFFFFFFFFFFFFFFFFFFFFFFFFFFFFF AND DUP2 MSTORE PUSH1 0x20 ADD SWAP1 DUP2 MSTORE PUSH1 0x20 ADD PUSH0 KECCAK256 PUSH0 SWAP1 SLOAD SWAP1 PUSH2 0x100 EXP SWAP1 DIV PUSH1 0xFF AND ISZERO PUSH2 0x16B6 JUMPI PUSH1 0x40 MLOAD PUSH32 0x8C379A000000000000000000000000000000000000000000000000000000000 DUP2 MSTORE PUSH1 0x4 ADD PUSH2 0x16AD SWAP1 PUSH2 0x2253 JUMP JUMPDEST PUSH1 0x40 MLOAD DUP1 SWAP2 SUB SWAP1 REVERT JUMPDEST PUSH1 0x1 PUSH1 0x2 PUSH0 DUP4 PUSH20 0xFFFFFFFFFFFFFFFFFFFFFFFFFFFFFFFFFFFFFFFF AND PUSH20 0xFFFFFFFFFFFFFFFFFFFFFFFFFFFFFFFFFFFFFFFF AND DUP2 MSTORE PUSH1 0x20 ADD SWAP1 DUP2 MSTORE PUSH1 0x20 ADD PUSH0 KECCAK256 PUSH0 PUSH2 0x100 EXP DUP2 SLOAD DUP2 PUSH1 0xFF MUL NOT AND SWAP1 DUP4 ISZERO ISZERO MUL OR SWAP1 SSTORE POP PUSH1 0x1 DUP2 SWAP1 DUP1 PUSH1 0x1 DUP2 SLOAD ADD DUP1 DUP3 SSTORE DUP1 SWAP2 POP POP PUSH1 0x1 SWAP1 SUB SWAP1 PUSH0 MSTORE PUSH1 0x20 PUSH0 KECCAK256 ADD PUSH0 SWAP1 SWAP2 SWAP1 SWAP2 SWAP1 SWAP2 PUSH2 0x100 EXP DUP2 SLOAD DUP2 PUSH20 0xFFFFFFFFFFFFFFFFFFFFFFFFFFFFFFFFFFFFFFFF MUL NOT AND SWAP1 DUP4 PUSH20 0xFFFFFFFFFFFFFFFFFFFFFFFFFFFFFFFFFFFFFFFF AND MUL OR SWAP1 SSTORE POP POP JUMP JUMPDEST PUSH1 0x2 PUSH1 0x20 MSTORE DUP1 PUSH0 MSTORE PUSH1 0x40 PUSH0 KECCAK256 PUSH0 SWAP2 POP SLOAD SWAP1 PUSH2 0x100 EXP SWAP1 DIV PUSH1 0xFF AND DUP2 JUMP JUMPDEST PUSH1 0x2 PUSH0 CALLER PUSH20 0xFFFFFFFFFFFFFFFFFFFFFFFFFFFFFFFFFFFFFFFF AND PUSH20 0xFFFFFFFFFFFFFFFFFFFFFFFFFFFFFFFFFFFFFFFF AND DUP2 MSTORE PUSH1 0x20 ADD SWAP1 DUP2 MSTORE PUSH1 0x20 ADD PUSH0 KECCAK256 PUSH0 SWAP1 SLOAD SWAP1 PUSH2 0x100 EXP SWAP1 DIV PUSH1 0xFF AND PUSH2 0x1814 JUMPI PUSH1 0x40 MLOAD PUSH32 0x8C379A000000000000000000000000000000000000000000000000000000000 DUP2 MSTORE PUSH1 0x4 ADD PUSH2 0x180B SWAP1 PUSH2 0x1D6F JUMP JUMPDEST PUSH1 0x40 MLOAD DUP1 SWAP2 SUB SWAP1 REVERT JUMPDEST PUSH0 PUSH20 0xFFFFFFFFFFFFFFFFFFFFFFFFFFFFFFFFFFFFFFFF AND DUP3 PUSH20 0xFFFFFFFFFFFFFFFFFFFFFFFFFFFFFFFFFFFFFFFF AND SUB PUSH2 0x1882 JUMPI PUSH1 0x40 MLOAD PUSH32 0x8C379A000000000000000000000000000000000000000000000000000000000 DUP2 MSTORE PUSH1 0x4 ADD PUSH2 0x1879 SWAP1 PUSH2 0x1DD7 JUMP JUMPDEST PUSH1 0x40 MLOAD DUP1 SWAP2 SUB SWAP1 REVERT JUMPDEST PUSH1 0x2 PUSH0 DUP4 PUSH20 0xFFFFFFFFFFFFFFFFFFFFFFFFFFFFFFFFFFFFFFFF AND PUSH20 0xFFFFFFFFFFFFFFFFFFFFFFFFFFFFFFFFFFFFFFFF AND DUP2 MSTORE PUSH1 0x20 ADD SWAP1 DUP2 MSTORE PUSH1 0x20 ADD PUSH0 KECCAK256 PUSH0 SWAP1 SLOAD SWAP1 PUSH2 0x100 EXP SWAP1 DIV PUSH1 0xFF AND PUSH2 0x190B JUMPI PUSH1 0x40 MLOAD PUSH32 0x8C379A000000000000000000000000000000000000000000000000000000000 DUP2 MSTORE PUSH1 0x4 ADD PUSH2 0x1902 SWAP1 PUSH2 0x20B3 JUMP JUMPDEST PUSH1 0x40 MLOAD DUP1 SWAP2 SUB SWAP1 REVERT JUMPDEST PUSH0 DUP2 GT PUSH2 0x194D JUMPI PUSH1 0x40 MLOAD PUSH32 0x8C379A000000000000000000000000000000000000000000000000000000000 DUP2 MSTORE PUSH1 0x4 ADD PUSH2 0x1944 SWAP1 PUSH2 0x1EA7 JUMP JUMPDEST PUSH1 0x40 MLOAD DUP1 SWAP2 SUB SWAP1 REVERT JUMPDEST DUP1 PUSH1 0x4 PUSH0 DUP5 PUSH20 0xFFFFFFFFFFFFFFFFFFFFFFFFFFFFFFFFFFFFFFFF AND PUSH20 0xFFFFFFFFFFFFFFFFFFFFFFFFFFFFFFFFFFFFFFFF AND DUP2 MSTORE PUSH1 0x20 ADD SWAP1 DUP2 MSTORE PUSH1 0x20 ADD PUSH0 KECCAK256 PUSH0 CALLER PUSH20 0xFFFFFFFFFFFFFFFFFFFFFFFFFFFFFFFFFFFFFFFF AND PUSH20 0xFFFFFFFFFFFFFFFFFFFFFFFFFFFFFFFFFFFFFFFF AND DUP2 MSTORE PUSH1 0x20 ADD SWAP1 DUP2 MSTORE PUSH1 0x20 ADD PUSH0 KECCAK256 PUSH0 DUP3 DUP3 SLOAD PUSH2 0x19D4 SWAP2 SWAP1 PUSH2 0x1F8D JUMP JUMPDEST SWAP3 POP POP DUP2 SWAP1 SSTORE POP POP POP JUMP JUMPDEST PUSH0 PUSH0 REVERT JUMPDEST PUSH0 PUSH20 0xFFFFFFFFFFFFFFFFFFFFFFFFFFFFFFFFFFFFFFFF DUP3 AND SWAP1 POP SWAP2 SWAP1 POP JUMP JUMPDEST PUSH0 PUSH2 0x1A0C DUP3 PUSH2 0x19E3 JUMP JUMPDEST SWAP1 POP SWAP2 SWAP1 POP JUMP JUMPDEST PUSH2 0x1A1C DUP2 PUSH2 0x1A02 JUMP JUMPDEST DUP2 EQ PUSH2 0x1A26 JUMPI PUSH0 PUSH0 REVERT JUMPDEST POP JUMP JUMPDEST PUSH0 DUP2 CALLDATALOAD SWAP1 POP PUSH2 0x1A37 DUP2 PUSH2 0x1A13 JUMP JUMPDEST SWAP3 SWAP2 POP POP JUMP JUMPDEST PUSH0 DUP2 SWAP1 POP SWAP2 SWAP1 POP JUMP JUMPDEST PUSH2 0x1A4F DUP2 PUSH2 0x1A3D JUMP JUMPDEST DUP2 EQ PUSH2 0x1A59 JUMPI PUSH0 PUSH0 REVERT JUMPDEST POP JUMP JUMPDEST PUSH0 DUP2 CALLDATALOAD SWAP1 POP PUSH2 0x1A6A DUP2 PUSH2 0x1A46 JUMP JUMPDEST SWAP3 SWAP2 POP POP JUMP JUMPDEST PUSH0 PUSH0 PUSH1 0x40 DUP4 DUP6 SUB SLT ISZERO PUSH2 0x1A86 JUMPI PUSH2 0x1A85 PUSH2 0x19DF JUMP JUMPDEST JUMPDEST PUSH0 PUSH2 0x1A93 DUP6 DUP3 DUP7 ADD PUSH2 0x1A29 JUMP JUMPDEST SWAP3 POP POP PUSH1 0x20 PUSH2 0x1AA4 DUP6 DUP3 DUP7 ADD PUSH2 0x1A5C JUMP JUMPDEST SWAP2 POP POP SWAP3 POP SWAP3 SWAP1 POP JUMP JUMPDEST PUSH0 PUSH2 0x1AB8 DUP3 PUSH2 0x19E3 JUMP JUMPDEST SWAP1 POP SWAP2 SWAP1 POP JUMP JUMPDEST PUSH2 0x1AC8 DUP2 PUSH2 0x1AAE JUMP JUMPDEST DUP2 EQ PUSH2 0x1AD2 JUMPI PUSH0 PUSH0 REVERT JUMPDEST POP JUMP JUMPDEST PUSH0 DUP2 CALLDATALOAD SWAP1 POP PUSH2 0x1AE3 DUP2 PUSH2 0x1ABF JUMP JUMPDEST SWAP3 SWAP2 POP POP JUMP JUMPDEST PUSH0 PUSH1 0x20 DUP3 DUP5 SUB SLT ISZERO PUSH2 0x1AFE JUMPI PUSH2 0x1AFD PUSH2 0x19DF JUMP JUMPDEST JUMPDEST PUSH0 PUSH2 0x1B0B DUP5 DUP3 DUP6 ADD PUSH2 0x1AD5 JUMP JUMPDEST SWAP2 POP POP SWAP3 SWAP2 POP POP JUMP JUMPDEST PUSH2 0x1B1D DUP2 PUSH2 0x1A3D JUMP JUMPDEST DUP3 MSTORE POP POP JUMP JUMPDEST PUSH0 PUSH1 0x20 DUP3 ADD SWAP1 POP PUSH2 0x1B36 PUSH0 DUP4 ADD DUP5 PUSH2 0x1B14 JUMP JUMPDEST SWAP3 SWAP2 POP POP JUMP JUMPDEST PUSH0 PUSH1 0x20 DUP3 DUP5 SUB SLT ISZERO PUSH2 0x1B51 JUMPI PUSH2 0x1B50 PUSH2 0x19DF JUMP JUMPDEST JUMPDEST PUSH0 PUSH2 0x1B5E DUP5 DUP3 DUP6 ADD PUSH2 0x1A5C JUMP JUMPDEST SWAP2 POP POP SWAP3 SWAP2 POP POP JUMP JUMPDEST PUSH2 0x1B70 DUP2 PUSH2 0x1AAE JUMP JUMPDEST DUP3 MSTORE POP POP JUMP JUMPDEST PUSH0 PUSH1 0x20 DUP3 ADD SWAP1 POP PUSH2 0x1B89 PUSH0 DUP4 ADD DUP5 PUSH2 0x1B67 JUMP JUMPDEST SWAP3 SWAP2 POP POP JUMP JUMPDEST PUSH0 DUP2 MLOAD SWAP1 POP SWAP2 SWAP1 POP JUMP JUMPDEST PUSH0 DUP3 DUP3 MSTORE PUSH1 0x20 DUP3 ADD SWAP1 POP SWAP3 SWAP2 POP POP JUMP JUMPDEST PUSH0 DUP2 SWAP1 POP PUSH1 0x20 DUP3 ADD SWAP1 POP SWAP2 SWAP1 POP JUMP JUMPDEST PUSH2 0x1BC1 DUP2 PUSH2 0x1AAE JUMP JUMPDEST DUP3 MSTORE POP POP JUMP JUMPDEST PUSH0 PUSH2 0x1BD2 DUP4 DUP4 PUSH2 0x1BB8 JUMP JUMPDEST PUSH1 0x20 DUP4 ADD SWAP1 POP SWAP3 SWAP2 POP POP JUMP JUMPDEST PUSH0 PUSH1 0x20 DUP3 ADD SWAP1 POP SWAP2 SWAP1 POP JUMP JUMPDEST PUSH0 PUSH2 0x1BF4 DUP3 PUSH2 0x1B8F JUMP JUMPDEST PUSH2 0x1BFE DUP2 DUP6 PUSH2 0x1B99 JUMP JUMPDEST SWAP4 POP PUSH2 0x1C09 DUP4 PUSH2 0x1BA9 JUMP JUMPDEST DUP1 PUSH0 JUMPDEST DUP4 DUP2 LT ISZERO PUSH2 0x1C39 JUMPI DUP2 MLOAD PUSH2 0x1C20 DUP9 DUP3 PUSH2 0x1BC7 JUMP JUMPDEST SWAP8 POP PUSH2 0x1C2B DUP4 PUSH2 0x1BDE JUMP JUMPDEST SWAP3 POP POP PUSH1 0x1 DUP2 ADD SWAP1 POP PUSH2 0x1C0C JUMP JUMPDEST POP DUP6 SWAP4 POP POP POP POP SWAP3 SWAP2 POP POP JUMP JUMPDEST PUSH0 PUSH1 0x20 DUP3 ADD SWAP1 POP DUP2 DUP2 SUB PUSH0 DUP4 ADD MSTORE PUSH2 0x1C5E DUP2 DUP5 PUSH2 0x1BEA JUMP JUMPDEST SWAP1 POP SWAP3 SWAP2 POP POP JUMP JUMPDEST PUSH0 PUSH0 PUSH1 0x40 DUP4 DUP6 SUB SLT ISZERO PUSH2 0x1C7C JUMPI PUSH2 0x1C7B PUSH2 0x19DF JUMP JUMPDEST JUMPDEST PUSH0 PUSH2 0x1C89 DUP6 DUP3 DUP7 ADD PUSH2 0x1AD5 JUMP JUMPDEST SWAP3 POP POP PUSH1 0x20 PUSH2 0x1C9A DUP6 DUP3 DUP7 ADD PUSH2 0x1AD5 JUMP JUMPDEST SWAP2 POP POP SWAP3 POP SWAP3 SWAP1 POP JUMP JUMPDEST PUSH0 PUSH0 PUSH1 0x40 DUP4 DUP6 SUB SLT ISZERO PUSH2 0x1CBA JUMPI PUSH2 0x1CB9 PUSH2 0x19DF JUMP JUMPDEST JUMPDEST PUSH0 PUSH2 0x1CC7 DUP6 DUP3 DUP7 ADD PUSH2 0x1AD5 JUMP JUMPDEST SWAP3 POP POP PUSH1 0x20 PUSH2 0x1CD8 DUP6 DUP3 DUP7 ADD PUSH2 0x1A5C JUMP JUMPDEST SWAP2 POP POP SWAP3 POP SWAP3 SWAP1 POP JUMP JUMPDEST PUSH0 DUP2 ISZERO ISZERO SWAP1 POP SWAP2 SWAP1 POP JUMP JUMPDEST PUSH2 0x1CF6 DUP2 PUSH2 0x1CE2 JUMP JUMPDEST DUP3 MSTORE POP POP JUMP JUMPDEST PUSH0 PUSH1 0x20 DUP3 ADD SWAP1 POP PUSH2 0x1D0F PUSH0 DUP4 ADD DUP5 PUSH2 0x1CED JUMP JUMPDEST SWAP3 SWAP2 POP POP JUMP JUMPDEST PUSH0 DUP3 DUP3 MSTORE PUSH1 0x20 DUP3 ADD SWAP1 POP SWAP3 SWAP2 POP POP JUMP JUMPDEST PUSH32 0x796F7520617265206E6F7420726567697374657265642E000000000000000000 PUSH0 DUP3 ADD MSTORE POP JUMP JUMPDEST PUSH0 PUSH2 0x1D59 PUSH1 0x17 DUP4 PUSH2 0x1D15 JUMP JUMPDEST SWAP2 POP PUSH2 0x1D64 DUP3 PUSH2 0x1D25 JUMP JUMPDEST PUSH1 0x20 DUP3 ADD SWAP1 POP SWAP2 SWAP1 POP JUMP JUMPDEST PUSH0 PUSH1 0x20 DUP3 ADD SWAP1 POP DUP2 DUP2 SUB PUSH0 DUP4 ADD MSTORE PUSH2 0x1D86 DUP2 PUSH2 0x1D4D JUMP JUMPDEST SWAP1 POP SWAP2 SWAP1 POP JUMP JUMPDEST PUSH32 0x496E76616C696420616464726573732E00000000000000000000000000000000 PUSH0 DUP3 ADD MSTORE POP JUMP JUMPDEST PUSH0 PUSH2 0x1DC1 PUSH1 0x10 DUP4 PUSH2 0x1D15 JUMP JUMPDEST SWAP2 POP PUSH2 0x1DCC DUP3 PUSH2 0x1D8D JUMP JUMPDEST PUSH1 0x20 DUP3 ADD SWAP1 POP SWAP2 SWAP1 POP JUMP JUMPDEST PUSH0 PUSH1 0x20 DUP3 ADD SWAP1 POP DUP2 DUP2 SUB PUSH0 DUP4 ADD MSTORE PUSH2 0x1DEE DUP2 PUSH2 0x1DB5 JUMP JUMPDEST SWAP1 POP SWAP2 SWAP1 POP JUMP JUMPDEST PUSH32 0x526563697069656E74206E6F7420726567697374657265640000000000000000 PUSH0 DUP3 ADD MSTORE POP JUMP JUMPDEST PUSH0 PUSH2 0x1E29 PUSH1 0x18 DUP4 PUSH2 0x1D15 JUMP JUMPDEST SWAP2 POP PUSH2 0x1E34 DUP3 PUSH2 0x1DF5 JUMP JUMPDEST PUSH1 0x20 DUP3 ADD SWAP1 POP SWAP2 SWAP1 POP JUMP JUMPDEST PUSH0 PUSH1 0x20 DUP3 ADD SWAP1 POP DUP2 DUP2 SUB PUSH0 DUP4 ADD MSTORE PUSH2 0x1E56 DUP2 PUSH2 0x1E1D JUMP JUMPDEST SWAP1 POP SWAP2 SWAP1 POP JUMP JUMPDEST PUSH32 0x416D6F756E74206D7573742062652067726561746572207468616E20302E0000 PUSH0 DUP3 ADD MSTORE POP JUMP JUMPDEST PUSH0 PUSH2 0x1E91 PUSH1 0x1E DUP4 PUSH2 0x1D15 JUMP JUMPDEST SWAP2 POP PUSH2 0x1E9C DUP3 PUSH2 0x1E5D JUMP JUMPDEST PUSH1 0x20 DUP3 ADD SWAP1 POP SWAP2 SWAP1 POP JUMP JUMPDEST PUSH0 PUSH1 0x20 DUP3 ADD SWAP1 POP DUP2 DUP2 SUB PUSH0 DUP4 ADD MSTORE PUSH2 0x1EBE DUP2 PUSH2 0x1E85 JUMP JUMPDEST SWAP1 POP SWAP2 SWAP1 POP JUMP JUMPDEST PUSH32 0x496E73756666696369656E742062616C616E63652E0000000000000000000000 PUSH0 DUP3 ADD MSTORE POP JUMP JUMPDEST PUSH0 PUSH2 0x1EF9 PUSH1 0x15 DUP4 PUSH2 0x1D15 JUMP JUMPDEST SWAP2 POP PUSH2 0x1F04 DUP3 PUSH2 0x1EC5 JUMP JUMPDEST PUSH1 0x20 DUP3 ADD SWAP1 POP SWAP2 SWAP1 POP JUMP JUMPDEST PUSH0 PUSH1 0x20 DUP3 ADD SWAP1 POP DUP2 DUP2 SUB PUSH0 DUP4 ADD MSTORE PUSH2 0x1F26 DUP2 PUSH2 0x1EED JUMP JUMPDEST SWAP1 POP SWAP2 SWAP1 POP JUMP JUMPDEST PUSH32 0x4E487B7100000000000000000000000000000000000000000000000000000000 PUSH0 MSTORE PUSH1 0x11 PUSH1 0x4 MSTORE PUSH1 0x24 PUSH0 REVERT JUMPDEST PUSH0 PUSH2 0x1F64 DUP3 PUSH2 0x1A3D JUMP JUMPDEST SWAP2 POP PUSH2 0x1F6F DUP4 PUSH2 0x1A3D JUMP JUMPDEST SWAP3 POP DUP3 DUP3 SUB SWAP1 POP DUP2 DUP2 GT ISZERO PUSH2 0x1F87 JUMPI PUSH2 0x1F86 PUSH2 0x1F2D JUMP JUMPDEST JUMPDEST SWAP3 SWAP2 POP POP JUMP JUMPDEST PUSH0 PUSH2 0x1F97 DUP3 PUSH2 0x1A3D JUMP JUMPDEST SWAP2 POP PUSH2 0x1FA2 DUP4 PUSH2 0x1A3D JUMP JUMPDEST SWAP3 POP DUP3 DUP3 ADD SWAP1 POP DUP1 DUP3 GT ISZERO PUSH2 0x1FBA JUMPI PUSH2 0x1FB9 PUSH2 0x1F2D JUMP JUMPDEST JUMPDEST SWAP3 SWAP2 POP POP JUMP JUMPDEST PUSH0 DUP2 SWAP1 POP SWAP3 SWAP2 POP POP JUMP JUMPDEST POP JUMP JUMPDEST PUSH0 PUSH2 0x1FD8 PUSH0 DUP4 PUSH2 0x1FC0 JUMP JUMPDEST SWAP2 POP PUSH2 0x1FE3 DUP3 PUSH2 0x1FCA JUMP JUMPDEST PUSH0 DUP3 ADD SWAP1 POP SWAP2 SWAP1 POP JUMP JUMPDEST PUSH0 PUSH2 0x1FF7 DUP3 PUSH2 0x1FCD JUMP JUMPDEST SWAP2 POP DUP2 SWAP1 POP SWAP2 SWAP1 POP JUMP JUMPDEST PUSH32 0x5472616E73666572206661696C65642E00000000000000000000000000000000 PUSH0 DUP3 ADD MSTORE POP JUMP JUMPDEST PUSH0 PUSH2 0x2035 PUSH1 0x10 DUP4 PUSH2 0x1D15 JUMP JUMPDEST SWAP2 POP PUSH2 0x2040 DUP3 PUSH2 0x2001 JUMP JUMPDEST PUSH1 0x20 DUP3 ADD SWAP1 POP SWAP2 SWAP1 POP JUMP JUMPDEST PUSH0 PUSH1 0x20 DUP3 ADD SWAP1 POP DUP2 DUP2 SUB PUSH0 DUP4 ADD MSTORE PUSH2 0x2062 DUP2 PUSH2 0x2029 JUMP JUMPDEST SWAP1 POP SWAP2 SWAP1 POP JUMP JUMPDEST PUSH32 0x41646472657373206E6F74207265676973746572656400000000000000000000 PUSH0 DUP3 ADD MSTORE POP JUMP JUMPDEST PUSH0 PUSH2 0x209D PUSH1 0x16 DUP4 PUSH2 0x1D15 JUMP JUMPDEST SWAP2 POP PUSH2 0x20A8 DUP3 PUSH2 0x2069 JUMP JUMPDEST PUSH1 0x20 DUP3 ADD SWAP1 POP SWAP2 SWAP1 POP JUMP JUMPDEST PUSH0 PUSH1 0x20 DUP3 ADD SWAP1 POP DUP2 DUP2 SUB PUSH0 DUP4 ADD MSTORE PUSH2 0x20CA DUP2 PUSH2 0x2091 JUMP JUMPDEST SWAP1 POP SWAP2 SWAP1 POP JUMP JUMPDEST PUSH32 0x4465627420616D6F756E7420696E636F72726563742E00000000000000000000 PUSH0 DUP3 ADD MSTORE POP JUMP JUMPDEST PUSH0 PUSH2 0x2105 PUSH1 0x16 DUP4 PUSH2 0x1D15 JUMP JUMPDEST SWAP2 POP PUSH2 0x2110 DUP3 PUSH2 0x20D1 JUMP JUMPDEST PUSH1 0x20 DUP3 ADD SWAP1 POP SWAP2 SWAP1 POP JUMP JUMPDEST PUSH0 PUSH1 0x20 DUP3 ADD SWAP1 POP DUP2 DUP2 SUB PUSH0 DUP4 ADD MSTORE PUSH2 0x2132 DUP2 PUSH2 0x20F9 JUMP JUMPDEST SWAP1 POP SWAP2 SWAP1 POP JUMP JUMPDEST PUSH32 0x4D7573742073656E64204554482E000000000000000000000000000000000000 PUSH0 DUP3 ADD MSTORE POP JUMP JUMPDEST PUSH0 PUSH2 0x216D PUSH1 0xE DUP4 PUSH2 0x1D15 JUMP JUMPDEST SWAP2 POP PUSH2 0x2178 DUP3 PUSH2 0x2139 JUMP JUMPDEST PUSH1 0x20 DUP3 ADD SWAP1 POP SWAP2 SWAP1 POP JUMP JUMPDEST PUSH0 PUSH1 0x20 DUP3 ADD SWAP1 POP DUP2 DUP2 SUB PUSH0 DUP4 ADD MSTORE PUSH2 0x219A DUP2 PUSH2 0x2161 JUMP JUMPDEST SWAP1 POP SWAP2 SWAP1 POP JUMP JUMPDEST PUSH32 0x4F6E6C79206F776E65722E000000000000000000000000000000000000000000 PUSH0 DUP3 ADD MSTORE POP JUMP JUMPDEST PUSH0 PUSH2 0x21D5 PUSH1 0xB DUP4 PUSH2 0x1D15 JUMP JUMPDEST SWAP2 POP PUSH2 0x21E0 DUP3 PUSH2 0x21A1 JUMP JUMPDEST PUSH1 0x20 DUP3 ADD SWAP1 POP SWAP2 SWAP1 POP JUMP JUMPDEST PUSH0 PUSH1 0x20 DUP3 ADD SWAP1 POP DUP2 DUP2 SUB PUSH0 DUP4 ADD MSTORE PUSH2 0x2202 DUP2 PUSH2 0x21C9 JUMP JUMPDEST SWAP1 POP SWAP2 SWAP1 POP JUMP JUMPDEST PUSH32 0x416C726561647920726567697374657265642E00000000000000000000000000 PUSH0 DUP3 ADD MSTORE POP JUMP JUMPDEST PUSH0 PUSH2 0x223D PUSH1 0x13 DUP4 PUSH2 0x1D15 JUMP JUMPDEST SWAP2 POP PUSH2 0x2248 DUP3 PUSH2 0x2209 JUMP JUMPDEST PUSH1 0x20 DUP3 ADD SWAP1 POP SWAP2 SWAP1 POP JUMP JUMPDEST PUSH0 PUSH1 0x20 DUP3 ADD SWAP1 POP DUP2 DUP2 SUB PUSH0 DUP4 ADD MSTORE PUSH2 0x226A DUP2 PUSH2 0x2231 JUMP JUMPDEST SWAP1 POP SWAP2 SWAP1 POP JUMP INVALID LOG2 PUSH5 0x6970667358 0x22 SLT KECCAK256 DUP10 0xEB 0xFC PUSH6 0xDAB72443923C SELFDESTRUCT 0xE SWAP9 SWAP4 0xC0 EXTCALL CALLDATACOPY DUP4 PUSH9 0x2E5FA4CC25AD345A3A 0xBF MUL DUP12 SGT PUSH5 0x736F6C6343 STOP ADDMOD 0x1E STOP CALLER "
				},
				"gasEstimates": {
					"creation": {
						"codeDepositCost": "1774200",
						"executionCost": "99059",
						"totalCost": "1873259"
					},
					"external": {
						"addFriend(address)": "77868",
						"balances(address)": "2847",
						"checkBalance()": "4825",
						"checkDebt(address)": "5201",
						"checkFriendList()": "infinite",
						"debts(address,address)": "infinite",
						"depositIntoWallet()": "infinite",
						"friendList(uint256)": "5012",
						"owner()": "2530",
						"payFromWallet(address,uint256)": "infinite",
						"recordDebt(address,uint256)": "infinite",
						"registeredFriends(address)": "2899",
						"transferEther(address,uint256)": "infinite",
						"transferEtherViaCall(address,uint256)": "infinite",
						"withdraw(uint256)": "infinite"
					}
				},
				"methodIdentifiers": {
					"addFriend(address)": "d7a1cfe1",
					"balances(address)": "27e235e3",
					"checkBalance()": "c71daccb",
					"checkDebt(address)": "0735f724",
					"checkFriendList()": "272b39e0",
					"debts(address,address)": "4ac1c33d",
					"depositIntoWallet()": "cafe82cf",
					"friendList(uint256)": "21668a01",
					"owner()": "8da5cb5b",
					"payFromWallet(address,uint256)": "a49e225a",
					"recordDebt(address,uint256)": "fa74542d",
					"registeredFriends(address)": "e4860841",
					"transferEther(address,uint256)": "05b1137b",
					"transferEtherViaCall(address,uint256)": "d6081fff",
					"withdraw(uint256)": "2e1a7d4d"
				}
			},
			"storageLayout": {
				"storage": [
					{
						"astId": 3,
						"contract": "submissions/0xFancy/dat7.sol:SimpleIOU",
						"label": "owner",
						"offset": 0,
						"slot": "0",
						"type": "t_address"
					},
					{
						"astId": 6,
						"contract": "submissions/0xFancy/dat7.sol:SimpleIOU",
						"label": "friendList",
						"offset": 0,
						"slot": "1",
						"type": "t_array(t_address)dyn_storage"
					},
					{
						"astId": 10,
						"contract": "submissions/0xFancy/dat7.sol:SimpleIOU",
						"label": "registeredFriends",
						"offset": 0,
						"slot": "2",
						"type": "t_mapping(t_address,t_bool)"
					},
					{
						"astId": 14,
						"contract": "submissions/0xFancy/dat7.sol:SimpleIOU",
						"label": "balances",
						"offset": 0,
						"slot": "3",
						"type": "t_mapping(t_address,t_uint256)"
					},
					{
						"astId": 20,
						"contract": "submissions/0xFancy/dat7.sol:SimpleIOU",
						"label": "debts",
						"offset": 0,
						"slot": "4",
						"type": "t_mapping(t_address,t_mapping(t_address,t_uint256))"
					}
				],
				"types": {
					"t_address": {
						"encoding": "inplace",
						"label": "address",
						"numberOfBytes": "20"
					},
					"t_array(t_address)dyn_storage": {
						"base": "t_address",
						"encoding": "dynamic_array",
						"label": "address[]",
						"numberOfBytes": "32"
					},
					"t_bool": {
						"encoding": "inplace",
						"label": "bool",
						"numberOfBytes": "1"
					},
					"t_mapping(t_address,t_bool)": {
						"encoding": "mapping",
						"key": "t_address",
						"label": "mapping(address => bool)",
						"numberOfBytes": "32",
						"value": "t_bool"
					},
					"t_mapping(t_address,t_mapping(t_address,t_uint256))": {
						"encoding": "mapping",
						"key": "t_address",
						"label": "mapping(address => mapping(address => uint256))",
						"numberOfBytes": "32",
						"value": "t_mapping(t_address,t_uint256)"
					},
					"t_mapping(t_address,t_uint256)": {
						"encoding": "mapping",
						"key": "t_address",
						"label": "mapping(address => uint256)",
						"numberOfBytes": "32",
						"value": "t_uint256"
					},
					"t_uint256": {
						"encoding": "inplace",
						"label": "uint256",
						"numberOfBytes": "32"
					}
				}
			},
			"userdoc": {
				"kind": "user",
				"methods": {},
				"version": 1
			}
		}
	}
}