{
	"submissions/iCat798/Day04-AuctionHouse.sol": {
		"AuctionHouse": {
			"abi": [
				{
					"inputs": [
						{
							"internalType": "string",
							"name": "_item",
							"type": "string"
						},
						{
							"internalType": "uint256",
							"name": "_biddingTime",
							"type": "uint256"
						},
						{
							"internalType": "uint256",
							"name": "_reservePrice",
							"type": "uint256"
						}
					],
					"stateMutability": "nonpayable",
					"type": "constructor"
				},
				{
					"inputs": [],
					"name": "MIN_ABSOLUTE_INCREMENT",
					"outputs": [
						{
							"internalType": "uint256",
							"name": "",
							"type": "uint256"
						}
					],
					"stateMutability": "view",
					"type": "function"
				},
				{
					"inputs": [],
					"name": "MIN_BID_INCREMENT_PERCENT",
					"outputs": [
						{
							"internalType": "uint256",
							"name": "",
							"type": "uint256"
						}
					],
					"stateMutability": "view",
					"type": "function"
				},
				{
					"inputs": [],
					"name": "auctionEndTime",
					"outputs": [
						{
							"internalType": "uint256",
							"name": "",
							"type": "uint256"
						}
					],
					"stateMutability": "view",
					"type": "function"
				},
				{
					"inputs": [
						{
							"internalType": "uint256",
							"name": "amount",
							"type": "uint256"
						}
					],
					"name": "bid",
					"outputs": [],
					"stateMutability": "nonpayable",
					"type": "function"
				},
				{
					"inputs": [
						{
							"internalType": "uint256",
							"name": "",
							"type": "uint256"
						}
					],
					"name": "bidders",
					"outputs": [
						{
							"internalType": "address",
							"name": "",
							"type": "address"
						}
					],
					"stateMutability": "view",
					"type": "function"
				},
				{
					"inputs": [
						{
							"internalType": "address",
							"name": "",
							"type": "address"
						}
					],
					"name": "bids",
					"outputs": [
						{
							"internalType": "uint256",
							"name": "",
							"type": "uint256"
						}
					],
					"stateMutability": "view",
					"type": "function"
				},
				{
					"inputs": [],
					"name": "endAuction",
					"outputs": [],
					"stateMutability": "nonpayable",
					"type": "function"
				},
				{
					"inputs": [],
					"name": "ended",
					"outputs": [
						{
							"internalType": "bool",
							"name": "",
							"type": "bool"
						}
					],
					"stateMutability": "view",
					"type": "function"
				},
				{
					"inputs": [],
					"name": "getAllBidders",
					"outputs": [
						{
							"internalType": "address[]",
							"name": "",
							"type": "address[]"
						}
					],
					"stateMutability": "view",
					"type": "function"
				},
				{
					"inputs": [],
					"name": "getWinner",
					"outputs": [
						{
							"internalType": "address",
							"name": "",
							"type": "address"
						},
						{
							"internalType": "uint256",
							"name": "",
							"type": "uint256"
						}
					],
					"stateMutability": "view",
					"type": "function"
				},
				{
					"inputs": [],
					"name": "item",
					"outputs": [
						{
							"internalType": "string",
							"name": "",
							"type": "string"
						}
					],
					"stateMutability": "view",
					"type": "function"
				},
				{
					"inputs": [],
					"name": "owner",
					"outputs": [
						{
							"internalType": "address",
							"name": "",
							"type": "address"
						}
					],
					"stateMutability": "view",
					"type": "function"
				},
				{
					"inputs": [],
					"name": "reservePrice",
					"outputs": [
						{
							"internalType": "uint256",
							"name": "",
							"type": "uint256"
						}
					],
					"stateMutability": "view",
					"type": "function"
				}
			],
			"devdoc": {
				"kind": "dev",
				"methods": {},
				"version": 1
			},
			"evm": {
				"assembly": "    /* \"submissions/iCat798/Day04-AuctionHouse.sol\":60:3445  contract AuctionHouse {... */\n  mstore(0x40, 0x80)\n    /* \"submissions/iCat798/Day04-AuctionHouse.sol\":1078:1382  constructor(string memory _item, uint _biddingTime,uint _reservePrice) {... */\n  callvalue\n  dup1\n  iszero\n  tag_1\n  jumpi\n  revert(0x00, 0x00)\ntag_1:\n  pop\n  mload(0x40)\n  sub(codesize, bytecodeSize)\n  dup1\n  bytecodeSize\n  dup4\n  codecopy\n  dup2\n  dup2\n  add\n  0x40\n  mstore\n  dup2\n  add\n  swap1\n  tag_2\n  swap2\n  swap1\n  tag_3\n  jump\t// in\ntag_2:\n    /* \"submissions/iCat798/Day04-AuctionHouse.sol\":1168:1178  msg.sender */\n  caller\n    /* \"submissions/iCat798/Day04-AuctionHouse.sol\":1160:1165  owner */\n  0x00\n  0x00\n    /* \"submissions/iCat798/Day04-AuctionHouse.sol\":1160:1178  owner = msg.sender */\n  0x0100\n  exp\n  dup2\n  sload\n  dup2\n  0xffffffffffffffffffffffffffffffffffffffff\n  mul\n  not\n  and\n  swap1\n  dup4\n  0xffffffffffffffffffffffffffffffffffffffff\n  and\n  mul\n  or\n  swap1\n  sstore\n  pop\n    /* \"submissions/iCat798/Day04-AuctionHouse.sol\":1196:1201  _item */\n  dup3\n    /* \"submissions/iCat798/Day04-AuctionHouse.sol\":1189:1193  item */\n  0x01\n    /* \"submissions/iCat798/Day04-AuctionHouse.sol\":1189:1201  item = _item */\n  swap1\n  dup2\n  tag_6\n  swap2\n  swap1\n  tag_7\n  jump\t// in\ntag_6:\n  pop\n    /* \"submissions/iCat798/Day04-AuctionHouse.sol\":1247:1259  _biddingTime */\n  dup2\n    /* \"submissions/iCat798/Day04-AuctionHouse.sol\":1229:1244  block.timestamp */\n  timestamp\n    /* \"submissions/iCat798/Day04-AuctionHouse.sol\":1229:1259  block.timestamp + _biddingTime */\n  tag_8\n  swap2\n  swap1\n  tag_9\n  jump\t// in\ntag_8:\n    /* \"submissions/iCat798/Day04-AuctionHouse.sol\":1212:1226  auctionEndTime */\n  0x02\n    /* \"submissions/iCat798/Day04-AuctionHouse.sol\":1212:1259  auctionEndTime = block.timestamp + _biddingTime */\n  dup2\n  swap1\n  sstore\n  pop\n    /* \"submissions/iCat798/Day04-AuctionHouse.sol\":1341:1354  _reservePrice */\n  dup1\n    /* \"submissions/iCat798/Day04-AuctionHouse.sol\":1326:1338  reservePrice */\n  0x06\n    /* \"submissions/iCat798/Day04-AuctionHouse.sol\":1326:1354  reservePrice = _reservePrice */\n  dup2\n  swap1\n  sstore\n  pop\n    /* \"submissions/iCat798/Day04-AuctionHouse.sol\":1078:1382  constructor(string memory _item, uint _biddingTime,uint _reservePrice) {... */\n  pop\n  pop\n  pop\n    /* \"submissions/iCat798/Day04-AuctionHouse.sol\":60:3445  contract AuctionHouse {... */\n  jump(tag_10)\n    /* \"#utility.yul\":7:82   */\ntag_11:\n    /* \"#utility.yul\":40:46   */\n  0x00\n    /* \"#utility.yul\":73:75   */\n  0x40\n    /* \"#utility.yul\":67:76   */\n  mload\n    /* \"#utility.yul\":57:76   */\n  swap1\n  pop\n    /* \"#utility.yul\":7:82   */\n  swap1\n  jump\t// out\n    /* \"#utility.yul\":88:205   */\ntag_12:\n    /* \"#utility.yul\":197:198   */\n  0x00\n    /* \"#utility.yul\":194:195   */\n  0x00\n    /* \"#utility.yul\":187:199   */\n  revert\n    /* \"#utility.yul\":211:328   */\ntag_13:\n    /* \"#utility.yul\":320:321   */\n  0x00\n    /* \"#utility.yul\":317:318   */\n  0x00\n    /* \"#utility.yul\":310:322   */\n  revert\n    /* \"#utility.yul\":334:451   */\ntag_14:\n    /* \"#utility.yul\":443:444   */\n  0x00\n    /* \"#utility.yul\":440:441   */\n  0x00\n    /* \"#utility.yul\":433:445   */\n  revert\n    /* \"#utility.yul\":457:574   */\ntag_15:\n    /* \"#utility.yul\":566:567   */\n  0x00\n    /* \"#utility.yul\":563:564   */\n  0x00\n    /* \"#utility.yul\":556:568   */\n  revert\n    /* \"#utility.yul\":580:682   */\ntag_16:\n    /* \"#utility.yul\":621:627   */\n  0x00\n    /* \"#utility.yul\":672:674   */\n  0x1f\n    /* \"#utility.yul\":668:675   */\n  not\n    /* \"#utility.yul\":663:665   */\n  0x1f\n    /* \"#utility.yul\":656:661   */\n  dup4\n    /* \"#utility.yul\":652:666   */\n  add\n    /* \"#utility.yul\":648:676   */\n  and\n    /* \"#utility.yul\":638:676   */\n  swap1\n  pop\n    /* \"#utility.yul\":580:682   */\n  swap2\n  swap1\n  pop\n  jump\t// out\n    /* \"#utility.yul\":688:868   */\ntag_17:\n    /* \"#utility.yul\":736:813   */\n  0x4e487b7100000000000000000000000000000000000000000000000000000000\n    /* \"#utility.yul\":733:734   */\n  0x00\n    /* \"#utility.yul\":726:814   */\n  mstore\n    /* \"#utility.yul\":833:837   */\n  0x41\n    /* \"#utility.yul\":830:831   */\n  0x04\n    /* \"#utility.yul\":823:838   */\n  mstore\n    /* \"#utility.yul\":857:861   */\n  0x24\n    /* \"#utility.yul\":854:855   */\n  0x00\n    /* \"#utility.yul\":847:862   */\n  revert\n    /* \"#utility.yul\":874:1155   */\ntag_18:\n    /* \"#utility.yul\":957:984   */\n  tag_55\n    /* \"#utility.yul\":979:983   */\n  dup3\n    /* \"#utility.yul\":957:984   */\n  tag_16\n  jump\t// in\ntag_55:\n    /* \"#utility.yul\":949:955   */\n  dup2\n    /* \"#utility.yul\":945:985   */\n  add\n    /* \"#utility.yul\":1087:1093   */\n  dup2\n    /* \"#utility.yul\":1075:1085   */\n  dup2\n    /* \"#utility.yul\":1072:1094   */\n  lt\n    /* \"#utility.yul\":1051:1069   */\n  0xffffffffffffffff\n    /* \"#utility.yul\":1039:1049   */\n  dup3\n    /* \"#utility.yul\":1036:1070   */\n  gt\n    /* \"#utility.yul\":1033:1095   */\n  or\n    /* \"#utility.yul\":1030:1118   */\n  iszero\n  tag_56\n  jumpi\n    /* \"#utility.yul\":1098:1116   */\n  tag_57\n  tag_17\n  jump\t// in\ntag_57:\n    /* \"#utility.yul\":1030:1118   */\ntag_56:\n    /* \"#utility.yul\":1138:1148   */\n  dup1\n    /* \"#utility.yul\":1134:1136   */\n  0x40\n    /* \"#utility.yul\":1127:1149   */\n  mstore\n    /* \"#utility.yul\":917:1155   */\n  pop\n    /* \"#utility.yul\":874:1155   */\n  pop\n  pop\n  jump\t// out\n    /* \"#utility.yul\":1161:1290   */\ntag_19:\n    /* \"#utility.yul\":1195:1201   */\n  0x00\n    /* \"#utility.yul\":1222:1242   */\n  tag_59\n  tag_11\n  jump\t// in\ntag_59:\n    /* \"#utility.yul\":1212:1242   */\n  swap1\n  pop\n    /* \"#utility.yul\":1251:1284   */\n  tag_60\n    /* \"#utility.yul\":1279:1283   */\n  dup3\n    /* \"#utility.yul\":1271:1277   */\n  dup3\n    /* \"#utility.yul\":1251:1284   */\n  tag_18\n  jump\t// in\ntag_60:\n    /* \"#utility.yul\":1161:1290   */\n  swap2\n  swap1\n  pop\n  jump\t// out\n    /* \"#utility.yul\":1296:1604   */\ntag_20:\n    /* \"#utility.yul\":1358:1362   */\n  0x00\n    /* \"#utility.yul\":1448:1466   */\n  0xffffffffffffffff\n    /* \"#utility.yul\":1440:1446   */\n  dup3\n    /* \"#utility.yul\":1437:1467   */\n  gt\n    /* \"#utility.yul\":1434:1490   */\n  iszero\n  tag_62\n  jumpi\n    /* \"#utility.yul\":1470:1488   */\n  tag_63\n  tag_17\n  jump\t// in\ntag_63:\n    /* \"#utility.yul\":1434:1490   */\ntag_62:\n    /* \"#utility.yul\":1508:1537   */\n  tag_64\n    /* \"#utility.yul\":1530:1536   */\n  dup3\n    /* \"#utility.yul\":1508:1537   */\n  tag_16\n  jump\t// in\ntag_64:\n    /* \"#utility.yul\":1500:1537   */\n  swap1\n  pop\n    /* \"#utility.yul\":1592:1596   */\n  0x20\n    /* \"#utility.yul\":1586:1590   */\n  dup2\n    /* \"#utility.yul\":1582:1597   */\n  add\n    /* \"#utility.yul\":1574:1597   */\n  swap1\n  pop\n    /* \"#utility.yul\":1296:1604   */\n  swap2\n  swap1\n  pop\n  jump\t// out\n    /* \"#utility.yul\":1610:1749   */\ntag_21:\n    /* \"#utility.yul\":1699:1705   */\n  dup3\n    /* \"#utility.yul\":1694:1697   */\n  dup2\n    /* \"#utility.yul\":1689:1692   */\n  dup4\n    /* \"#utility.yul\":1683:1706   */\n  mcopy\n    /* \"#utility.yul\":1740:1741   */\n  0x00\n    /* \"#utility.yul\":1731:1737   */\n  dup4\n    /* \"#utility.yul\":1726:1729   */\n  dup4\n    /* \"#utility.yul\":1722:1738   */\n  add\n    /* \"#utility.yul\":1715:1742   */\n  mstore\n    /* \"#utility.yul\":1610:1749   */\n  pop\n  pop\n  pop\n  jump\t// out\n    /* \"#utility.yul\":1755:2189   */\ntag_22:\n    /* \"#utility.yul\":1844:1849   */\n  0x00\n    /* \"#utility.yul\":1869:1935   */\n  tag_67\n    /* \"#utility.yul\":1885:1934   */\n  tag_68\n    /* \"#utility.yul\":1927:1933   */\n  dup5\n    /* \"#utility.yul\":1885:1934   */\n  tag_20\n  jump\t// in\ntag_68:\n    /* \"#utility.yul\":1869:1935   */\n  tag_19\n  jump\t// in\ntag_67:\n    /* \"#utility.yul\":1860:1935   */\n  swap1\n  pop\n    /* \"#utility.yul\":1958:1964   */\n  dup3\n    /* \"#utility.yul\":1951:1956   */\n  dup2\n    /* \"#utility.yul\":1944:1965   */\n  mstore\n    /* \"#utility.yul\":1996:2000   */\n  0x20\n    /* \"#utility.yul\":1989:1994   */\n  dup2\n    /* \"#utility.yul\":1985:2001   */\n  add\n    /* \"#utility.yul\":2034:2037   */\n  dup5\n    /* \"#utility.yul\":2025:2031   */\n  dup5\n    /* \"#utility.yul\":2020:2023   */\n  dup5\n    /* \"#utility.yul\":2016:2032   */\n  add\n    /* \"#utility.yul\":2013:2038   */\n  gt\n    /* \"#utility.yul\":2010:2122   */\n  iszero\n  tag_69\n  jumpi\n    /* \"#utility.yul\":2041:2120   */\n  tag_70\n  tag_15\n  jump\t// in\ntag_70:\n    /* \"#utility.yul\":2010:2122   */\ntag_69:\n    /* \"#utility.yul\":2131:2183   */\n  tag_71\n    /* \"#utility.yul\":2176:2182   */\n  dup5\n    /* \"#utility.yul\":2171:2174   */\n  dup3\n    /* \"#utility.yul\":2166:2169   */\n  dup6\n    /* \"#utility.yul\":2131:2183   */\n  tag_21\n  jump\t// in\ntag_71:\n    /* \"#utility.yul\":1850:2189   */\n  pop\n    /* \"#utility.yul\":1755:2189   */\n  swap4\n  swap3\n  pop\n  pop\n  pop\n  jump\t// out\n    /* \"#utility.yul\":2209:2564   */\ntag_23:\n    /* \"#utility.yul\":2276:2281   */\n  0x00\n    /* \"#utility.yul\":2325:2328   */\n  dup3\n    /* \"#utility.yul\":2318:2322   */\n  0x1f\n    /* \"#utility.yul\":2310:2316   */\n  dup4\n    /* \"#utility.yul\":2306:2323   */\n  add\n    /* \"#utility.yul\":2302:2329   */\n  slt\n    /* \"#utility.yul\":2292:2414   */\n  tag_73\n  jumpi\n    /* \"#utility.yul\":2333:2412   */\n  tag_74\n  tag_14\n  jump\t// in\ntag_74:\n    /* \"#utility.yul\":2292:2414   */\ntag_73:\n    /* \"#utility.yul\":2443:2449   */\n  dup2\n    /* \"#utility.yul\":2437:2450   */\n  mload\n    /* \"#utility.yul\":2468:2558   */\n  tag_75\n    /* \"#utility.yul\":2554:2557   */\n  dup5\n    /* \"#utility.yul\":2546:2552   */\n  dup3\n    /* \"#utility.yul\":2539:2543   */\n  0x20\n    /* \"#utility.yul\":2531:2537   */\n  dup7\n    /* \"#utility.yul\":2527:2544   */\n  add\n    /* \"#utility.yul\":2468:2558   */\n  tag_22\n  jump\t// in\ntag_75:\n    /* \"#utility.yul\":2459:2558   */\n  swap2\n  pop\n    /* \"#utility.yul\":2282:2564   */\n  pop\n    /* \"#utility.yul\":2209:2564   */\n  swap3\n  swap2\n  pop\n  pop\n  jump\t// out\n    /* \"#utility.yul\":2570:2647   */\ntag_24:\n    /* \"#utility.yul\":2607:2614   */\n  0x00\n    /* \"#utility.yul\":2636:2641   */\n  dup2\n    /* \"#utility.yul\":2625:2641   */\n  swap1\n  pop\n    /* \"#utility.yul\":2570:2647   */\n  swap2\n  swap1\n  pop\n  jump\t// out\n    /* \"#utility.yul\":2653:2775   */\ntag_25:\n    /* \"#utility.yul\":2726:2750   */\n  tag_78\n    /* \"#utility.yul\":2744:2749   */\n  dup2\n    /* \"#utility.yul\":2726:2750   */\n  tag_24\n  jump\t// in\ntag_78:\n    /* \"#utility.yul\":2719:2724   */\n  dup2\n    /* \"#utility.yul\":2716:2751   */\n  eq\n    /* \"#utility.yul\":2706:2769   */\n  tag_79\n  jumpi\n    /* \"#utility.yul\":2765:2766   */\n  0x00\n    /* \"#utility.yul\":2762:2763   */\n  0x00\n    /* \"#utility.yul\":2755:2767   */\n  revert\n    /* \"#utility.yul\":2706:2769   */\ntag_79:\n    /* \"#utility.yul\":2653:2775   */\n  pop\n  jump\t// out\n    /* \"#utility.yul\":2781:2924   */\ntag_26:\n    /* \"#utility.yul\":2838:2843   */\n  0x00\n    /* \"#utility.yul\":2869:2875   */\n  dup2\n    /* \"#utility.yul\":2863:2876   */\n  mload\n    /* \"#utility.yul\":2854:2876   */\n  swap1\n  pop\n    /* \"#utility.yul\":2885:2918   */\n  tag_81\n    /* \"#utility.yul\":2912:2917   */\n  dup2\n    /* \"#utility.yul\":2885:2918   */\n  tag_25\n  jump\t// in\ntag_81:\n    /* \"#utility.yul\":2781:2924   */\n  swap3\n  swap2\n  pop\n  pop\n  jump\t// out\n    /* \"#utility.yul\":2930:3766   */\ntag_3:\n    /* \"#utility.yul\":3028:3034   */\n  0x00\n    /* \"#utility.yul\":3036:3042   */\n  0x00\n    /* \"#utility.yul\":3044:3050   */\n  0x00\n    /* \"#utility.yul\":3093:3095   */\n  0x60\n    /* \"#utility.yul\":3081:3090   */\n  dup5\n    /* \"#utility.yul\":3072:3079   */\n  dup7\n    /* \"#utility.yul\":3068:3091   */\n  sub\n    /* \"#utility.yul\":3064:3096   */\n  slt\n    /* \"#utility.yul\":3061:3180   */\n  iszero\n  tag_83\n  jumpi\n    /* \"#utility.yul\":3099:3178   */\n  tag_84\n  tag_12\n  jump\t// in\ntag_84:\n    /* \"#utility.yul\":3061:3180   */\ntag_83:\n    /* \"#utility.yul\":3240:3241   */\n  0x00\n    /* \"#utility.yul\":3229:3238   */\n  dup5\n    /* \"#utility.yul\":3225:3242   */\n  add\n    /* \"#utility.yul\":3219:3243   */\n  mload\n    /* \"#utility.yul\":3270:3288   */\n  0xffffffffffffffff\n    /* \"#utility.yul\":3262:3268   */\n  dup2\n    /* \"#utility.yul\":3259:3289   */\n  gt\n    /* \"#utility.yul\":3256:3373   */\n  iszero\n  tag_85\n  jumpi\n    /* \"#utility.yul\":3292:3371   */\n  tag_86\n  tag_13\n  jump\t// in\ntag_86:\n    /* \"#utility.yul\":3256:3373   */\ntag_85:\n    /* \"#utility.yul\":3397:3471   */\n  tag_87\n    /* \"#utility.yul\":3463:3470   */\n  dup7\n    /* \"#utility.yul\":3454:3460   */\n  dup3\n    /* \"#utility.yul\":3443:3452   */\n  dup8\n    /* \"#utility.yul\":3439:3461   */\n  add\n    /* \"#utility.yul\":3397:3471   */\n  tag_23\n  jump\t// in\ntag_87:\n    /* \"#utility.yul\":3387:3471   */\n  swap4\n  pop\n    /* \"#utility.yul\":3190:3481   */\n  pop\n    /* \"#utility.yul\":3520:3522   */\n  0x20\n    /* \"#utility.yul\":3546:3610   */\n  tag_88\n    /* \"#utility.yul\":3602:3609   */\n  dup7\n    /* \"#utility.yul\":3593:3599   */\n  dup3\n    /* \"#utility.yul\":3582:3591   */\n  dup8\n    /* \"#utility.yul\":3578:3600   */\n  add\n    /* \"#utility.yul\":3546:3610   */\n  tag_26\n  jump\t// in\ntag_88:\n    /* \"#utility.yul\":3536:3610   */\n  swap3\n  pop\n    /* \"#utility.yul\":3491:3620   */\n  pop\n    /* \"#utility.yul\":3659:3661   */\n  0x40\n    /* \"#utility.yul\":3685:3749   */\n  tag_89\n    /* \"#utility.yul\":3741:3748   */\n  dup7\n    /* \"#utility.yul\":3732:3738   */\n  dup3\n    /* \"#utility.yul\":3721:3730   */\n  dup8\n    /* \"#utility.yul\":3717:3739   */\n  add\n    /* \"#utility.yul\":3685:3749   */\n  tag_26\n  jump\t// in\ntag_89:\n    /* \"#utility.yul\":3675:3749   */\n  swap2\n  pop\n    /* \"#utility.yul\":3630:3759   */\n  pop\n    /* \"#utility.yul\":2930:3766   */\n  swap3\n  pop\n  swap3\n  pop\n  swap3\n  jump\t// out\n    /* \"#utility.yul\":3772:3871   */\ntag_27:\n    /* \"#utility.yul\":3824:3830   */\n  0x00\n    /* \"#utility.yul\":3858:3863   */\n  dup2\n    /* \"#utility.yul\":3852:3864   */\n  mload\n    /* \"#utility.yul\":3842:3864   */\n  swap1\n  pop\n    /* \"#utility.yul\":3772:3871   */\n  swap2\n  swap1\n  pop\n  jump\t// out\n    /* \"#utility.yul\":3877:4057   */\ntag_28:\n    /* \"#utility.yul\":3925:4002   */\n  0x4e487b7100000000000000000000000000000000000000000000000000000000\n    /* \"#utility.yul\":3922:3923   */\n  0x00\n    /* \"#utility.yul\":3915:4003   */\n  mstore\n    /* \"#utility.yul\":4022:4026   */\n  0x22\n    /* \"#utility.yul\":4019:4020   */\n  0x04\n    /* \"#utility.yul\":4012:4027   */\n  mstore\n    /* \"#utility.yul\":4046:4050   */\n  0x24\n    /* \"#utility.yul\":4043:4044   */\n  0x00\n    /* \"#utility.yul\":4036:4051   */\n  revert\n    /* \"#utility.yul\":4063:4383   */\ntag_29:\n    /* \"#utility.yul\":4107:4113   */\n  0x00\n    /* \"#utility.yul\":4144:4145   */\n  0x02\n    /* \"#utility.yul\":4138:4142   */\n  dup3\n    /* \"#utility.yul\":4134:4146   */\n  div\n    /* \"#utility.yul\":4124:4146   */\n  swap1\n  pop\n    /* \"#utility.yul\":4191:4192   */\n  0x01\n    /* \"#utility.yul\":4185:4189   */\n  dup3\n    /* \"#utility.yul\":4181:4193   */\n  and\n    /* \"#utility.yul\":4212:4230   */\n  dup1\n    /* \"#utility.yul\":4202:4283   */\n  tag_93\n  jumpi\n    /* \"#utility.yul\":4268:4272   */\n  0x7f\n    /* \"#utility.yul\":4260:4266   */\n  dup3\n    /* \"#utility.yul\":4256:4273   */\n  and\n    /* \"#utility.yul\":4246:4273   */\n  swap2\n  pop\n    /* \"#utility.yul\":4202:4283   */\ntag_93:\n    /* \"#utility.yul\":4330:4332   */\n  0x20\n    /* \"#utility.yul\":4322:4328   */\n  dup3\n    /* \"#utility.yul\":4319:4333   */\n  lt\n    /* \"#utility.yul\":4299:4317   */\n  dup2\n    /* \"#utility.yul\":4296:4334   */\n  sub\n    /* \"#utility.yul\":4293:4377   */\n  tag_94\n  jumpi\n    /* \"#utility.yul\":4349:4367   */\n  tag_95\n  tag_28\n  jump\t// in\ntag_95:\n    /* \"#utility.yul\":4293:4377   */\ntag_94:\n    /* \"#utility.yul\":4114:4383   */\n  pop\n    /* \"#utility.yul\":4063:4383   */\n  swap2\n  swap1\n  pop\n  jump\t// out\n    /* \"#utility.yul\":4389:4530   */\ntag_30:\n    /* \"#utility.yul\":4438:4442   */\n  0x00\n    /* \"#utility.yul\":4461:4464   */\n  dup2\n    /* \"#utility.yul\":4453:4464   */\n  swap1\n  pop\n    /* \"#utility.yul\":4484:4487   */\n  dup2\n    /* \"#utility.yul\":4481:4482   */\n  0x00\n    /* \"#utility.yul\":4474:4488   */\n  mstore\n    /* \"#utility.yul\":4518:4522   */\n  0x20\n    /* \"#utility.yul\":4515:4516   */\n  0x00\n    /* \"#utility.yul\":4505:4523   */\n  keccak256\n    /* \"#utility.yul\":4497:4523   */\n  swap1\n  pop\n    /* \"#utility.yul\":4389:4530   */\n  swap2\n  swap1\n  pop\n  jump\t// out\n    /* \"#utility.yul\":4536:4629   */\ntag_31:\n    /* \"#utility.yul\":4573:4579   */\n  0x00\n    /* \"#utility.yul\":4620:4622   */\n  0x20\n    /* \"#utility.yul\":4615:4617   */\n  0x1f\n    /* \"#utility.yul\":4608:4613   */\n  dup4\n    /* \"#utility.yul\":4604:4618   */\n  add\n    /* \"#utility.yul\":4600:4623   */\n  div\n    /* \"#utility.yul\":4590:4623   */\n  swap1\n  pop\n    /* \"#utility.yul\":4536:4629   */\n  swap2\n  swap1\n  pop\n  jump\t// out\n    /* \"#utility.yul\":4635:4742   */\ntag_32:\n    /* \"#utility.yul\":4679:4687   */\n  0x00\n    /* \"#utility.yul\":4729:4734   */\n  dup3\n    /* \"#utility.yul\":4723:4727   */\n  dup3\n    /* \"#utility.yul\":4719:4735   */\n  shl\n    /* \"#utility.yul\":4698:4735   */\n  swap1\n  pop\n    /* \"#utility.yul\":4635:4742   */\n  swap3\n  swap2\n  pop\n  pop\n  jump\t// out\n    /* \"#utility.yul\":4748:5141   */\ntag_33:\n    /* \"#utility.yul\":4817:4823   */\n  0x00\n    /* \"#utility.yul\":4867:4868   */\n  0x08\n    /* \"#utility.yul\":4855:4865   */\n  dup4\n    /* \"#utility.yul\":4851:4869   */\n  mul\n    /* \"#utility.yul\":4890:4987   */\n  tag_100\n    /* \"#utility.yul\":4920:4986   */\n  0xffffffffffffffffffffffffffffffffffffffffffffffffffffffffffffffff\n    /* \"#utility.yul\":4909:4918   */\n  dup3\n    /* \"#utility.yul\":4890:4987   */\n  tag_32\n  jump\t// in\ntag_100:\n    /* \"#utility.yul\":5008:5047   */\n  tag_101\n    /* \"#utility.yul\":5038:5046   */\n  dup7\n    /* \"#utility.yul\":5027:5036   */\n  dup4\n    /* \"#utility.yul\":5008:5047   */\n  tag_32\n  jump\t// in\ntag_101:\n    /* \"#utility.yul\":4996:5047   */\n  swap6\n  pop\n    /* \"#utility.yul\":5080:5084   */\n  dup1\n    /* \"#utility.yul\":5076:5085   */\n  not\n    /* \"#utility.yul\":5069:5074   */\n  dup5\n    /* \"#utility.yul\":5065:5086   */\n  and\n    /* \"#utility.yul\":5056:5086   */\n  swap4\n  pop\n    /* \"#utility.yul\":5129:5133   */\n  dup1\n    /* \"#utility.yul\":5119:5127   */\n  dup7\n    /* \"#utility.yul\":5115:5134   */\n  and\n    /* \"#utility.yul\":5108:5113   */\n  dup5\n    /* \"#utility.yul\":5105:5135   */\n  or\n    /* \"#utility.yul\":5095:5135   */\n  swap3\n  pop\n    /* \"#utility.yul\":4824:5141   */\n  pop\n  pop\n    /* \"#utility.yul\":4748:5141   */\n  swap4\n  swap3\n  pop\n  pop\n  pop\n  jump\t// out\n    /* \"#utility.yul\":5147:5207   */\ntag_34:\n    /* \"#utility.yul\":5175:5178   */\n  0x00\n    /* \"#utility.yul\":5196:5201   */\n  dup2\n    /* \"#utility.yul\":5189:5201   */\n  swap1\n  pop\n    /* \"#utility.yul\":5147:5207   */\n  swap2\n  swap1\n  pop\n  jump\t// out\n    /* \"#utility.yul\":5213:5355   */\ntag_35:\n    /* \"#utility.yul\":5263:5272   */\n  0x00\n    /* \"#utility.yul\":5296:5349   */\n  tag_104\n    /* \"#utility.yul\":5314:5348   */\n  tag_105\n    /* \"#utility.yul\":5323:5347   */\n  tag_106\n    /* \"#utility.yul\":5341:5346   */\n  dup5\n    /* \"#utility.yul\":5323:5347   */\n  tag_24\n  jump\t// in\ntag_106:\n    /* \"#utility.yul\":5314:5348   */\n  tag_34\n  jump\t// in\ntag_105:\n    /* \"#utility.yul\":5296:5349   */\n  tag_24\n  jump\t// in\ntag_104:\n    /* \"#utility.yul\":5283:5349   */\n  swap1\n  pop\n    /* \"#utility.yul\":5213:5355   */\n  swap2\n  swap1\n  pop\n  jump\t// out\n    /* \"#utility.yul\":5361:5436   */\ntag_36:\n    /* \"#utility.yul\":5404:5407   */\n  0x00\n    /* \"#utility.yul\":5425:5430   */\n  dup2\n    /* \"#utility.yul\":5418:5430   */\n  swap1\n  pop\n    /* \"#utility.yul\":5361:5436   */\n  swap2\n  swap1\n  pop\n  jump\t// out\n    /* \"#utility.yul\":5442:5711   */\ntag_37:\n    /* \"#utility.yul\":5552:5591   */\n  tag_109\n    /* \"#utility.yul\":5583:5590   */\n  dup4\n    /* \"#utility.yul\":5552:5591   */\n  tag_35\n  jump\t// in\ntag_109:\n    /* \"#utility.yul\":5613:5704   */\n  tag_110\n    /* \"#utility.yul\":5662:5703   */\n  tag_111\n    /* \"#utility.yul\":5686:5702   */\n  dup3\n    /* \"#utility.yul\":5662:5703   */\n  tag_36\n  jump\t// in\ntag_111:\n    /* \"#utility.yul\":5654:5660   */\n  dup5\n    /* \"#utility.yul\":5647:5651   */\n  dup5\n    /* \"#utility.yul\":5641:5652   */\n  sload\n    /* \"#utility.yul\":5613:5704   */\n  tag_33\n  jump\t// in\ntag_110:\n    /* \"#utility.yul\":5607:5611   */\n  dup3\n    /* \"#utility.yul\":5600:5705   */\n  sstore\n    /* \"#utility.yul\":5518:5711   */\n  pop\n    /* \"#utility.yul\":5442:5711   */\n  pop\n  pop\n  pop\n  jump\t// out\n    /* \"#utility.yul\":5717:5790   */\ntag_38:\n    /* \"#utility.yul\":5762:5765   */\n  0x00\n    /* \"#utility.yul\":5783:5784   */\n  0x00\n    /* \"#utility.yul\":5776:5784   */\n  swap1\n  pop\n    /* \"#utility.yul\":5717:5790   */\n  swap1\n  jump\t// out\n    /* \"#utility.yul\":5796:5985   */\ntag_39:\n    /* \"#utility.yul\":5873:5905   */\n  tag_114\n  tag_38\n  jump\t// in\ntag_114:\n    /* \"#utility.yul\":5914:5979   */\n  tag_115\n    /* \"#utility.yul\":5972:5978   */\n  dup2\n    /* \"#utility.yul\":5964:5970   */\n  dup5\n    /* \"#utility.yul\":5958:5962   */\n  dup5\n    /* \"#utility.yul\":5914:5979   */\n  tag_37\n  jump\t// in\ntag_115:\n    /* \"#utility.yul\":5849:5985   */\n  pop\n    /* \"#utility.yul\":5796:5985   */\n  pop\n  pop\n  jump\t// out\n    /* \"#utility.yul\":5991:6177   */\ntag_40:\n    /* \"#utility.yul\":6051:6171   */\ntag_117:\n    /* \"#utility.yul\":6068:6071   */\n  dup2\n    /* \"#utility.yul\":6061:6066   */\n  dup2\n    /* \"#utility.yul\":6058:6072   */\n  lt\n    /* \"#utility.yul\":6051:6171   */\n  iszero\n  tag_119\n  jumpi\n    /* \"#utility.yul\":6122:6161   */\n  tag_120\n    /* \"#utility.yul\":6159:6160   */\n  0x00\n    /* \"#utility.yul\":6152:6157   */\n  dup3\n    /* \"#utility.yul\":6122:6161   */\n  tag_39\n  jump\t// in\ntag_120:\n    /* \"#utility.yul\":6095:6096   */\n  0x01\n    /* \"#utility.yul\":6088:6093   */\n  dup2\n    /* \"#utility.yul\":6084:6097   */\n  add\n    /* \"#utility.yul\":6075:6097   */\n  swap1\n  pop\n    /* \"#utility.yul\":6051:6171   */\n  jump(tag_117)\ntag_119:\n    /* \"#utility.yul\":5991:6177   */\n  pop\n  pop\n  jump\t// out\n    /* \"#utility.yul\":6183:6726   */\ntag_41:\n    /* \"#utility.yul\":6284:6286   */\n  0x1f\n    /* \"#utility.yul\":6279:6282   */\n  dup3\n    /* \"#utility.yul\":6276:6287   */\n  gt\n    /* \"#utility.yul\":6273:6719   */\n  iszero\n  tag_122\n  jumpi\n    /* \"#utility.yul\":6318:6356   */\n  tag_123\n    /* \"#utility.yul\":6350:6355   */\n  dup2\n    /* \"#utility.yul\":6318:6356   */\n  tag_30\n  jump\t// in\ntag_123:\n    /* \"#utility.yul\":6402:6431   */\n  tag_124\n    /* \"#utility.yul\":6420:6430   */\n  dup5\n    /* \"#utility.yul\":6402:6431   */\n  tag_31\n  jump\t// in\ntag_124:\n    /* \"#utility.yul\":6392:6400   */\n  dup2\n    /* \"#utility.yul\":6388:6432   */\n  add\n    /* \"#utility.yul\":6585:6587   */\n  0x20\n    /* \"#utility.yul\":6573:6583   */\n  dup6\n    /* \"#utility.yul\":6570:6588   */\n  lt\n    /* \"#utility.yul\":6567:6616   */\n  iszero\n  tag_125\n  jumpi\n    /* \"#utility.yul\":6606:6614   */\n  dup2\n    /* \"#utility.yul\":6591:6614   */\n  swap1\n  pop\n    /* \"#utility.yul\":6567:6616   */\ntag_125:\n    /* \"#utility.yul\":6629:6709   */\n  tag_126\n    /* \"#utility.yul\":6685:6707   */\n  tag_127\n    /* \"#utility.yul\":6703:6706   */\n  dup6\n    /* \"#utility.yul\":6685:6707   */\n  tag_31\n  jump\t// in\ntag_127:\n    /* \"#utility.yul\":6675:6683   */\n  dup4\n    /* \"#utility.yul\":6671:6708   */\n  add\n    /* \"#utility.yul\":6658:6669   */\n  dup3\n    /* \"#utility.yul\":6629:6709   */\n  tag_40\n  jump\t// in\ntag_126:\n    /* \"#utility.yul\":6288:6719   */\n  pop\n  pop\n    /* \"#utility.yul\":6273:6719   */\ntag_122:\n    /* \"#utility.yul\":6183:6726   */\n  pop\n  pop\n  pop\n  jump\t// out\n    /* \"#utility.yul\":6732:6849   */\ntag_42:\n    /* \"#utility.yul\":6786:6794   */\n  0x00\n    /* \"#utility.yul\":6836:6841   */\n  dup3\n    /* \"#utility.yul\":6830:6834   */\n  dup3\n    /* \"#utility.yul\":6826:6842   */\n  shr\n    /* \"#utility.yul\":6805:6842   */\n  swap1\n  pop\n    /* \"#utility.yul\":6732:6849   */\n  swap3\n  swap2\n  pop\n  pop\n  jump\t// out\n    /* \"#utility.yul\":6855:7024   */\ntag_43:\n    /* \"#utility.yul\":6899:6905   */\n  0x00\n    /* \"#utility.yul\":6932:6983   */\n  tag_130\n    /* \"#utility.yul\":6980:6981   */\n  0x00\n    /* \"#utility.yul\":6976:6982   */\n  not\n    /* \"#utility.yul\":6968:6973   */\n  dup5\n    /* \"#utility.yul\":6965:6966   */\n  0x08\n    /* \"#utility.yul\":6961:6974   */\n  mul\n    /* \"#utility.yul\":6932:6983   */\n  tag_42\n  jump\t// in\ntag_130:\n    /* \"#utility.yul\":6928:6984   */\n  not\n    /* \"#utility.yul\":7013:7017   */\n  dup1\n    /* \"#utility.yul\":7007:7011   */\n  dup4\n    /* \"#utility.yul\":7003:7018   */\n  and\n    /* \"#utility.yul\":6993:7018   */\n  swap2\n  pop\n    /* \"#utility.yul\":6906:7024   */\n  pop\n    /* \"#utility.yul\":6855:7024   */\n  swap3\n  swap2\n  pop\n  pop\n  jump\t// out\n    /* \"#utility.yul\":7029:7324   */\ntag_44:\n    /* \"#utility.yul\":7105:7109   */\n  0x00\n    /* \"#utility.yul\":7251:7280   */\n  tag_132\n    /* \"#utility.yul\":7276:7279   */\n  dup4\n    /* \"#utility.yul\":7270:7274   */\n  dup4\n    /* \"#utility.yul\":7251:7280   */\n  tag_43\n  jump\t// in\ntag_132:\n    /* \"#utility.yul\":7243:7280   */\n  swap2\n  pop\n    /* \"#utility.yul\":7313:7316   */\n  dup3\n    /* \"#utility.yul\":7310:7311   */\n  0x02\n    /* \"#utility.yul\":7306:7317   */\n  mul\n    /* \"#utility.yul\":7300:7304   */\n  dup3\n    /* \"#utility.yul\":7297:7318   */\n  or\n    /* \"#utility.yul\":7289:7318   */\n  swap1\n  pop\n    /* \"#utility.yul\":7029:7324   */\n  swap3\n  swap2\n  pop\n  pop\n  jump\t// out\n    /* \"#utility.yul\":7329:8724   */\ntag_7:\n    /* \"#utility.yul\":7446:7483   */\n  tag_134\n    /* \"#utility.yul\":7479:7482   */\n  dup3\n    /* \"#utility.yul\":7446:7483   */\n  tag_27\n  jump\t// in\ntag_134:\n    /* \"#utility.yul\":7548:7566   */\n  0xffffffffffffffff\n    /* \"#utility.yul\":7540:7546   */\n  dup2\n    /* \"#utility.yul\":7537:7567   */\n  gt\n    /* \"#utility.yul\":7534:7590   */\n  iszero\n  tag_135\n  jumpi\n    /* \"#utility.yul\":7570:7588   */\n  tag_136\n  tag_17\n  jump\t// in\ntag_136:\n    /* \"#utility.yul\":7534:7590   */\ntag_135:\n    /* \"#utility.yul\":7614:7652   */\n  tag_137\n    /* \"#utility.yul\":7646:7650   */\n  dup3\n    /* \"#utility.yul\":7640:7651   */\n  sload\n    /* \"#utility.yul\":7614:7652   */\n  tag_29\n  jump\t// in\ntag_137:\n    /* \"#utility.yul\":7699:7766   */\n  tag_138\n    /* \"#utility.yul\":7759:7765   */\n  dup3\n    /* \"#utility.yul\":7751:7757   */\n  dup3\n    /* \"#utility.yul\":7745:7749   */\n  dup6\n    /* \"#utility.yul\":7699:7766   */\n  tag_41\n  jump\t// in\ntag_138:\n    /* \"#utility.yul\":7793:7794   */\n  0x00\n    /* \"#utility.yul\":7817:7821   */\n  0x20\n    /* \"#utility.yul\":7804:7821   */\n  swap1\n  pop\n    /* \"#utility.yul\":7849:7851   */\n  0x1f\n    /* \"#utility.yul\":7841:7847   */\n  dup4\n    /* \"#utility.yul\":7838:7852   */\n  gt\n    /* \"#utility.yul\":7866:7867   */\n  0x01\n    /* \"#utility.yul\":7861:8479   */\n  dup2\n  eq\n  tag_140\n  jumpi\n    /* \"#utility.yul\":8523:8524   */\n  0x00\n    /* \"#utility.yul\":8540:8546   */\n  dup5\n    /* \"#utility.yul\":8537:8614   */\n  iszero\n  tag_141\n  jumpi\n    /* \"#utility.yul\":8589:8598   */\n  dup3\n    /* \"#utility.yul\":8584:8587   */\n  dup8\n    /* \"#utility.yul\":8580:8599   */\n  add\n    /* \"#utility.yul\":8574:8600   */\n  mload\n    /* \"#utility.yul\":8565:8600   */\n  swap1\n  pop\n    /* \"#utility.yul\":8537:8614   */\ntag_141:\n    /* \"#utility.yul\":8640:8707   */\n  tag_142\n    /* \"#utility.yul\":8700:8706   */\n  dup6\n    /* \"#utility.yul\":8693:8698   */\n  dup3\n    /* \"#utility.yul\":8640:8707   */\n  tag_44\n  jump\t// in\ntag_142:\n    /* \"#utility.yul\":8634:8638   */\n  dup7\n    /* \"#utility.yul\":8627:8708   */\n  sstore\n    /* \"#utility.yul\":8496:8718   */\n  pop\n    /* \"#utility.yul\":7831:8718   */\n  jump(tag_139)\n    /* \"#utility.yul\":7861:8479   */\ntag_140:\n    /* \"#utility.yul\":7913:7917   */\n  0x1f\n    /* \"#utility.yul\":7909:7918   */\n  not\n    /* \"#utility.yul\":7901:7907   */\n  dup5\n    /* \"#utility.yul\":7897:7919   */\n  and\n    /* \"#utility.yul\":7947:7984   */\n  tag_143\n    /* \"#utility.yul\":7979:7983   */\n  dup7\n    /* \"#utility.yul\":7947:7984   */\n  tag_30\n  jump\t// in\ntag_143:\n    /* \"#utility.yul\":8006:8007   */\n  0x00\n    /* \"#utility.yul\":8020:8228   */\ntag_144:\n    /* \"#utility.yul\":8034:8041   */\n  dup3\n    /* \"#utility.yul\":8031:8032   */\n  dup2\n    /* \"#utility.yul\":8028:8042   */\n  lt\n    /* \"#utility.yul\":8020:8228   */\n  iszero\n  tag_146\n  jumpi\n    /* \"#utility.yul\":8113:8122   */\n  dup5\n    /* \"#utility.yul\":8108:8111   */\n  dup10\n    /* \"#utility.yul\":8104:8123   */\n  add\n    /* \"#utility.yul\":8098:8124   */\n  mload\n    /* \"#utility.yul\":8090:8096   */\n  dup3\n    /* \"#utility.yul\":8083:8125   */\n  sstore\n    /* \"#utility.yul\":8164:8165   */\n  0x01\n    /* \"#utility.yul\":8156:8162   */\n  dup3\n    /* \"#utility.yul\":8152:8166   */\n  add\n    /* \"#utility.yul\":8142:8166   */\n  swap2\n  pop\n    /* \"#utility.yul\":8211:8213   */\n  0x20\n    /* \"#utility.yul\":8200:8209   */\n  dup6\n    /* \"#utility.yul\":8196:8214   */\n  add\n    /* \"#utility.yul\":8183:8214   */\n  swap5\n  pop\n    /* \"#utility.yul\":8057:8061   */\n  0x20\n    /* \"#utility.yul\":8054:8055   */\n  dup2\n    /* \"#utility.yul\":8050:8062   */\n  add\n    /* \"#utility.yul\":8045:8062   */\n  swap1\n  pop\n    /* \"#utility.yul\":8020:8228   */\n  jump(tag_144)\ntag_146:\n    /* \"#utility.yul\":8256:8262   */\n  dup7\n    /* \"#utility.yul\":8247:8254   */\n  dup4\n    /* \"#utility.yul\":8244:8263   */\n  lt\n    /* \"#utility.yul\":8241:8420   */\n  iszero\n  tag_147\n  jumpi\n    /* \"#utility.yul\":8314:8323   */\n  dup5\n    /* \"#utility.yul\":8309:8312   */\n  dup10\n    /* \"#utility.yul\":8305:8324   */\n  add\n    /* \"#utility.yul\":8299:8325   */\n  mload\n    /* \"#utility.yul\":8357:8405   */\n  tag_148\n    /* \"#utility.yul\":8399:8403   */\n  0x1f\n    /* \"#utility.yul\":8391:8397   */\n  dup10\n    /* \"#utility.yul\":8387:8404   */\n  and\n    /* \"#utility.yul\":8376:8385   */\n  dup3\n    /* \"#utility.yul\":8357:8405   */\n  tag_43\n  jump\t// in\ntag_148:\n    /* \"#utility.yul\":8349:8355   */\n  dup4\n    /* \"#utility.yul\":8342:8406   */\n  sstore\n    /* \"#utility.yul\":8264:8420   */\n  pop\n    /* \"#utility.yul\":8241:8420   */\ntag_147:\n    /* \"#utility.yul\":8466:8467   */\n  0x01\n    /* \"#utility.yul\":8462:8463   */\n  0x02\n    /* \"#utility.yul\":8454:8460   */\n  dup9\n    /* \"#utility.yul\":8450:8464   */\n  mul\n    /* \"#utility.yul\":8446:8468   */\n  add\n    /* \"#utility.yul\":8440:8444   */\n  dup9\n    /* \"#utility.yul\":8433:8469   */\n  sstore\n    /* \"#utility.yul\":7868:8479   */\n  pop\n  pop\n  pop\n    /* \"#utility.yul\":7831:8718   */\ntag_139:\n  pop\n    /* \"#utility.yul\":7421:8724   */\n  pop\n  pop\n  pop\n    /* \"#utility.yul\":7329:8724   */\n  pop\n  pop\n  jump\t// out\n    /* \"#utility.yul\":8730:8910   */\ntag_45:\n    /* \"#utility.yul\":8778:8855   */\n  0x4e487b7100000000000000000000000000000000000000000000000000000000\n    /* \"#utility.yul\":8775:8776   */\n  0x00\n    /* \"#utility.yul\":8768:8856   */\n  mstore\n    /* \"#utility.yul\":8875:8879   */\n  0x11\n    /* \"#utility.yul\":8872:8873   */\n  0x04\n    /* \"#utility.yul\":8865:8880   */\n  mstore\n    /* \"#utility.yul\":8899:8903   */\n  0x24\n    /* \"#utility.yul\":8896:8897   */\n  0x00\n    /* \"#utility.yul\":8889:8904   */\n  revert\n    /* \"#utility.yul\":8916:9107   */\ntag_9:\n    /* \"#utility.yul\":8956:8959   */\n  0x00\n    /* \"#utility.yul\":8975:8995   */\n  tag_151\n    /* \"#utility.yul\":8993:8994   */\n  dup3\n    /* \"#utility.yul\":8975:8995   */\n  tag_24\n  jump\t// in\ntag_151:\n    /* \"#utility.yul\":8970:8995   */\n  swap2\n  pop\n    /* \"#utility.yul\":9009:9029   */\n  tag_152\n    /* \"#utility.yul\":9027:9028   */\n  dup4\n    /* \"#utility.yul\":9009:9029   */\n  tag_24\n  jump\t// in\ntag_152:\n    /* \"#utility.yul\":9004:9029   */\n  swap3\n  pop\n    /* \"#utility.yul\":9052:9053   */\n  dup3\n    /* \"#utility.yul\":9049:9050   */\n  dup3\n    /* \"#utility.yul\":9045:9054   */\n  add\n    /* \"#utility.yul\":9038:9054   */\n  swap1\n  pop\n    /* \"#utility.yul\":9073:9076   */\n  dup1\n    /* \"#utility.yul\":9070:9071   */\n  dup3\n    /* \"#utility.yul\":9067:9077   */\n  gt\n    /* \"#utility.yul\":9064:9100   */\n  iszero\n  tag_153\n  jumpi\n    /* \"#utility.yul\":9080:9098   */\n  tag_154\n  tag_45\n  jump\t// in\ntag_154:\n    /* \"#utility.yul\":9064:9100   */\ntag_153:\n    /* \"#utility.yul\":8916:9107   */\n  swap3\n  swap2\n  pop\n  pop\n  jump\t// out\n    /* \"submissions/iCat798/Day04-AuctionHouse.sol\":60:3445  contract AuctionHouse {... */\ntag_10:\n  dataSize(sub_0)\n  dup1\n  dataOffset(sub_0)\n  0x00\n  codecopy\n  0x00\n  return\nstop\n\nsub_0: assembly {\n        /* \"submissions/iCat798/Day04-AuctionHouse.sol\":60:3445  contract AuctionHouse {... */\n      mstore(0x40, 0x80)\n      callvalue\n      dup1\n      iszero\n      tag_1\n      jumpi\n      revert(0x00, 0x00)\n    tag_1:\n      pop\n      jumpi(tag_2, lt(calldatasize, 0x04))\n      shr(0xe0, calldataload(0x00))\n      dup1\n      0x8da5cb5b\n      gt\n      tag_16\n      jumpi\n      dup1\n      0xcff29dfd\n      gt\n      tag_17\n      jumpi\n      dup1\n      0xcff29dfd\n      eq\n      tag_12\n      jumpi\n      dup1\n      0xdb2e1eed\n      eq\n      tag_13\n      jumpi\n      dup1\n      0xf2a4a82e\n      eq\n      tag_14\n      jumpi\n      dup1\n      0xfe67a54b\n      eq\n      tag_15\n      jumpi\n      jump(tag_2)\n    tag_17:\n      dup1\n      0x8da5cb5b\n      eq\n      tag_9\n      jumpi\n      dup1\n      0x8e7ea5b2\n      eq\n      tag_10\n      jumpi\n      dup1\n      0xbc996819\n      eq\n      tag_11\n      jumpi\n      jump(tag_2)\n    tag_16:\n      dup1\n      0x12fa6feb\n      eq\n      tag_3\n      jumpi\n      dup1\n      0x3a79d2e5\n      eq\n      tag_4\n      jumpi\n      dup1\n      0x454a2ab3\n      eq\n      tag_5\n      jumpi\n      dup1\n      0x4b449cba\n      eq\n      tag_6\n      jumpi\n      dup1\n      0x62ea82db\n      eq\n      tag_7\n      jumpi\n      dup1\n      0x6c0a1695\n      eq\n      tag_8\n      jumpi\n    tag_2:\n      revert(0x00, 0x00)\n        /* \"submissions/iCat798/Day04-AuctionHouse.sol\":454:471  bool public ended */\n    tag_3:\n      tag_18\n      tag_19\n      jump\t// in\n    tag_18:\n      mload(0x40)\n      tag_20\n      swap2\n      swap1\n      tag_21\n      jump\t// in\n    tag_20:\n      mload(0x40)\n      dup1\n      swap2\n      sub\n      swap1\n      return\n        /* \"submissions/iCat798/Day04-AuctionHouse.sol\":3075:3174  function getAllBidders() external view returns (address[] memory) {... */\n    tag_4:\n      tag_22\n      tag_23\n      jump\t// in\n    tag_22:\n      mload(0x40)\n      tag_24\n      swap2\n      swap1\n      tag_25\n      jump\t// in\n    tag_24:\n      mload(0x40)\n      dup1\n      swap2\n      sub\n      swap1\n      return\n        /* \"submissions/iCat798/Day04-AuctionHouse.sol\":1424:2673  function bid(uint amount) external {... */\n    tag_5:\n      tag_26\n      0x04\n      dup1\n      calldatasize\n      sub\n      dup2\n      add\n      swap1\n      tag_27\n      swap2\n      swap1\n      tag_28\n      jump\t// in\n    tag_27:\n      tag_29\n      jump\t// in\n    tag_26:\n      stop\n        /* \"submissions/iCat798/Day04-AuctionHouse.sol\":225:251  uint public auctionEndTime */\n    tag_6:\n      tag_30\n      tag_31\n      jump\t// in\n    tag_30:\n      mload(0x40)\n      tag_32\n      swap2\n      swap1\n      tag_33\n      jump\t// in\n    tag_32:\n      mload(0x40)\n      dup1\n      swap2\n      sub\n      swap1\n      return\n        /* \"submissions/iCat798/Day04-AuctionHouse.sol\":867:903  mapping(address => uint) public bids */\n    tag_7:\n      tag_34\n      0x04\n      dup1\n      calldatasize\n      sub\n      dup2\n      add\n      swap1\n      tag_35\n      swap2\n      swap1\n      tag_36\n      jump\t// in\n    tag_35:\n      tag_37\n      jump\t// in\n    tag_34:\n      mload(0x40)\n      tag_38\n      swap2\n      swap1\n      tag_33\n      jump\t// in\n    tag_38:\n      mload(0x40)\n      dup1\n      swap2\n      sub\n      swap1\n      return\n        /* \"submissions/iCat798/Day04-AuctionHouse.sol\":752:799  uint public constant MIN_ABSOLUTE_INCREMENT = 0 */\n    tag_8:\n      tag_39\n      tag_40\n      jump\t// in\n    tag_39:\n      mload(0x40)\n      tag_41\n      swap2\n      swap1\n      tag_33\n      jump\t// in\n    tag_41:\n      mload(0x40)\n      dup1\n      swap2\n      sub\n      swap1\n      return\n        /* \"submissions/iCat798/Day04-AuctionHouse.sol\":89:109  address public owner */\n    tag_9:\n      tag_42\n      tag_43\n      jump\t// in\n    tag_42:\n      mload(0x40)\n      tag_44\n      swap2\n      swap1\n      tag_45\n      jump\t// in\n    tag_44:\n      mload(0x40)\n      dup1\n      swap2\n      sub\n      swap1\n      return\n        /* \"submissions/iCat798/Day04-AuctionHouse.sol\":3275:3442  function getWinner() external view returns (address, uint) {... */\n    tag_10:\n      tag_46\n      tag_47\n      jump\t// in\n    tag_46:\n      mload(0x40)\n      tag_48\n      swap3\n      swap2\n      swap1\n      tag_49\n      jump\t// in\n    tag_48:\n      mload(0x40)\n      dup1\n      swap2\n      sub\n      swap1\n      return\n        /* \"submissions/iCat798/Day04-AuctionHouse.sol\":656:707  uint public constant MIN_BID_INCREMENT_PERCENT = 50 */\n    tag_11:\n      tag_50\n      tag_51\n      jump\t// in\n    tag_50:\n      mload(0x40)\n      tag_52\n      swap2\n      swap1\n      tag_33\n      jump\t// in\n    tag_52:\n      mload(0x40)\n      dup1\n      swap2\n      sub\n      swap1\n      return\n        /* \"submissions/iCat798/Day04-AuctionHouse.sol\":942:966  address[] public bidders */\n    tag_12:\n      tag_53\n      0x04\n      dup1\n      calldatasize\n      sub\n      dup2\n      add\n      swap1\n      tag_54\n      swap2\n      swap1\n      tag_28\n      jump\t// in\n    tag_54:\n      tag_55\n      jump\t// in\n    tag_53:\n      mload(0x40)\n      tag_56\n      swap2\n      swap1\n      tag_45\n      jump\t// in\n    tag_56:\n      mload(0x40)\n      dup1\n      swap2\n      sub\n      swap1\n      return\n        /* \"submissions/iCat798/Day04-AuctionHouse.sol\":562:586  uint public reservePrice */\n    tag_13:\n      tag_57\n      tag_58\n      jump\t// in\n    tag_57:\n      mload(0x40)\n      tag_59\n      swap2\n      swap1\n      tag_33\n      jump\t// in\n    tag_59:\n      mload(0x40)\n      dup1\n      swap2\n      sub\n      swap1\n      return\n        /* \"submissions/iCat798/Day04-AuctionHouse.sol\":153:171  string public item */\n    tag_14:\n      tag_60\n      tag_61\n      jump\t// in\n    tag_60:\n      mload(0x40)\n      tag_62\n      swap2\n      swap1\n      tag_63\n      jump\t// in\n    tag_62:\n      mload(0x40)\n      dup1\n      swap2\n      sub\n      swap1\n      return\n        /* \"submissions/iCat798/Day04-AuctionHouse.sol\":2750:3010  function endAuction() external {... */\n    tag_15:\n      tag_64\n      tag_65\n      jump\t// in\n    tag_64:\n      stop\n        /* \"submissions/iCat798/Day04-AuctionHouse.sol\":454:471  bool public ended */\n    tag_19:\n      0x05\n      0x00\n      swap1\n      sload\n      swap1\n      0x0100\n      exp\n      swap1\n      div\n      0xff\n      and\n      dup2\n      jump\t// out\n        /* \"submissions/iCat798/Day04-AuctionHouse.sol\":3075:3174  function getAllBidders() external view returns (address[] memory) {... */\n    tag_23:\n        /* \"submissions/iCat798/Day04-AuctionHouse.sol\":3123:3139  address[] memory */\n      0x60\n        /* \"submissions/iCat798/Day04-AuctionHouse.sol\":3159:3166  bidders */\n      0x08\n        /* \"submissions/iCat798/Day04-AuctionHouse.sol\":3152:3166  return bidders */\n      dup1\n      sload\n      dup1\n      0x20\n      mul\n      0x20\n      add\n      mload(0x40)\n      swap1\n      dup2\n      add\n      0x40\n      mstore\n      dup1\n      swap3\n      swap2\n      swap1\n      dup2\n      dup2\n      mstore\n      0x20\n      add\n      dup3\n      dup1\n      sload\n      dup1\n      iszero\n      tag_67\n      jumpi\n      0x20\n      mul\n      dup3\n      add\n      swap2\n      swap1\n      0x00\n      mstore\n      keccak256(0x00, 0x20)\n      swap1\n    tag_68:\n      dup2\n      0x00\n      swap1\n      sload\n      swap1\n      0x0100\n      exp\n      swap1\n      div\n      0xffffffffffffffffffffffffffffffffffffffff\n      and\n      0xffffffffffffffffffffffffffffffffffffffff\n      and\n      dup2\n      mstore\n      0x20\n      add\n      swap1\n      0x01\n      add\n      swap1\n      dup1\n      dup4\n      gt\n      tag_68\n      jumpi\n    tag_67:\n      pop\n      pop\n      pop\n      pop\n      pop\n      swap1\n      pop\n        /* \"submissions/iCat798/Day04-AuctionHouse.sol\":3075:3174  function getAllBidders() external view returns (address[] memory) {... */\n      swap1\n      jump\t// out\n        /* \"submissions/iCat798/Day04-AuctionHouse.sol\":1424:2673  function bid(uint amount) external {... */\n    tag_29:\n        /* \"submissions/iCat798/Day04-AuctionHouse.sol\":1496:1510  auctionEndTime */\n      sload(0x02)\n        /* \"submissions/iCat798/Day04-AuctionHouse.sol\":1478:1493  block.timestamp */\n      timestamp\n        /* \"submissions/iCat798/Day04-AuctionHouse.sol\":1478:1510  block.timestamp < auctionEndTime */\n      lt\n        /* \"submissions/iCat798/Day04-AuctionHouse.sol\":1470:1541  require(block.timestamp < auctionEndTime, \"Auction has already ended.\") */\n      tag_70\n      jumpi\n      mload(0x40)\n      0x08c379a000000000000000000000000000000000000000000000000000000000\n      dup2\n      mstore\n      0x04\n      add\n      tag_71\n      swap1\n      tag_72\n      jump\t// in\n    tag_71:\n      mload(0x40)\n      dup1\n      swap2\n      sub\n      swap1\n      revert\n    tag_70:\n        /* \"submissions/iCat798/Day04-AuctionHouse.sol\":1609:1610  0 */\n      0x00\n        /* \"submissions/iCat798/Day04-AuctionHouse.sol\":1600:1606  amount */\n      dup2\n        /* \"submissions/iCat798/Day04-AuctionHouse.sol\":1600:1610  amount > 0 */\n      gt\n        /* \"submissions/iCat798/Day04-AuctionHouse.sol\":1592:1652  require(amount > 0, \"Bid amount must be greater than zero.\") */\n      tag_73\n      jumpi\n      mload(0x40)\n      0x08c379a000000000000000000000000000000000000000000000000000000000\n      dup2\n      mstore\n      0x04\n      add\n      tag_74\n      swap1\n      tag_75\n      jump\t// in\n    tag_74:\n      mload(0x40)\n      dup1\n      swap2\n      sub\n      swap1\n      revert\n    tag_73:\n        /* \"submissions/iCat798/Day04-AuctionHouse.sol\":1721:1725  bids */\n      0x07\n        /* \"submissions/iCat798/Day04-AuctionHouse.sol\":1721:1737  bids[msg.sender] */\n      0x00\n        /* \"submissions/iCat798/Day04-AuctionHouse.sol\":1726:1736  msg.sender */\n      caller\n        /* \"submissions/iCat798/Day04-AuctionHouse.sol\":1721:1737  bids[msg.sender] */\n      0xffffffffffffffffffffffffffffffffffffffff\n      and\n      0xffffffffffffffffffffffffffffffffffffffff\n      and\n      dup2\n      mstore\n      0x20\n      add\n      swap1\n      dup2\n      mstore\n      0x20\n      add\n      0x00\n      keccak256\n      sload\n        /* \"submissions/iCat798/Day04-AuctionHouse.sol\":1712:1718  amount */\n      dup2\n        /* \"submissions/iCat798/Day04-AuctionHouse.sol\":1712:1737  amount > bids[msg.sender] */\n      gt\n        /* \"submissions/iCat798/Day04-AuctionHouse.sol\":1704:1787  require(amount > bids[msg.sender], \"New bid must be higher than your current bid.\") */\n      tag_76\n      jumpi\n      mload(0x40)\n      0x08c379a000000000000000000000000000000000000000000000000000000000\n      dup2\n      mstore\n      0x04\n      add\n      tag_77\n      swap1\n      tag_78\n      jump\t// in\n    tag_77:\n      mload(0x40)\n      dup1\n      swap2\n      sub\n      swap1\n      revert\n    tag_76:\n        /* \"submissions/iCat798/Day04-AuctionHouse.sol\":1856:1868  reservePrice */\n      sload(0x06)\n        /* \"submissions/iCat798/Day04-AuctionHouse.sol\":1846:1852  amount */\n      dup2\n        /* \"submissions/iCat798/Day04-AuctionHouse.sol\":1846:1868  amount >= reservePrice */\n      lt\n      iszero\n        /* \"submissions/iCat798/Day04-AuctionHouse.sol\":1838:1912  require(amount >= reservePrice, \"Bid must be at least the reserve price.\") */\n      tag_79\n      jumpi\n      mload(0x40)\n      0x08c379a000000000000000000000000000000000000000000000000000000000\n      dup2\n      mstore\n      0x04\n      add\n      tag_80\n      swap1\n      tag_81\n      jump\t// in\n    tag_80:\n      mload(0x40)\n      dup1\n      swap2\n      sub\n      swap1\n      revert\n    tag_79:\n        /* \"submissions/iCat798/Day04-AuctionHouse.sol\":2011:2012  0 */\n      0x00\n        /* \"submissions/iCat798/Day04-AuctionHouse.sol\":1998:2008  highestBid */\n      sload(0x04)\n        /* \"submissions/iCat798/Day04-AuctionHouse.sol\":1998:2012  highestBid > 0 */\n      gt\n        /* \"submissions/iCat798/Day04-AuctionHouse.sol\":1994:2289  if (highestBid > 0) {... */\n      iszero\n      tag_82\n      jumpi\n        /* \"submissions/iCat798/Day04-AuctionHouse.sol\":2029:2048  uint minRequiredBid */\n      0x00\n        /* \"submissions/iCat798/Day04-AuctionHouse.sol\":798:799  0 */\n      0x00\n        /* \"submissions/iCat798/Day04-AuctionHouse.sol\":2123:2126  100 */\n      0x64\n        /* \"submissions/iCat798/Day04-AuctionHouse.sol\":705:707  50 */\n      0x32\n        /* \"submissions/iCat798/Day04-AuctionHouse.sol\":2082:2092  highestBid */\n      sload(0x04)\n        /* \"submissions/iCat798/Day04-AuctionHouse.sol\":2082:2120  highestBid * MIN_BID_INCREMENT_PERCENT */\n      tag_83\n      swap2\n      swap1\n      tag_84\n      jump\t// in\n    tag_83:\n        /* \"submissions/iCat798/Day04-AuctionHouse.sol\":2082:2126  highestBid * MIN_BID_INCREMENT_PERCENT / 100 */\n      tag_85\n      swap2\n      swap1\n      tag_86\n      jump\t// in\n    tag_85:\n        /* \"submissions/iCat798/Day04-AuctionHouse.sol\":2051:2061  highestBid */\n      sload(0x04)\n        /* \"submissions/iCat798/Day04-AuctionHouse.sol\":2051:2127  highestBid +... */\n      tag_87\n      swap2\n      swap1\n      tag_88\n      jump\t// in\n    tag_87:\n        /* \"submissions/iCat798/Day04-AuctionHouse.sol\":2051:2169  highestBid +... */\n      tag_89\n      swap2\n      swap1\n      tag_88\n      jump\t// in\n    tag_89:\n        /* \"submissions/iCat798/Day04-AuctionHouse.sol\":2029:2169  uint minRequiredBid = highestBid +... */\n      swap1\n      pop\n        /* \"submissions/iCat798/Day04-AuctionHouse.sol\":2202:2216  minRequiredBid */\n      dup1\n        /* \"submissions/iCat798/Day04-AuctionHouse.sol\":2192:2198  amount */\n      dup3\n        /* \"submissions/iCat798/Day04-AuctionHouse.sol\":2192:2216  amount >= minRequiredBid */\n      lt\n      iszero\n        /* \"submissions/iCat798/Day04-AuctionHouse.sol\":2184:2277  require(amount >= minRequiredBid, \"Bid must be at least X% higher than current highest bid.\") */\n      tag_90\n      jumpi\n      mload(0x40)\n      0x08c379a000000000000000000000000000000000000000000000000000000000\n      dup2\n      mstore\n      0x04\n      add\n      tag_91\n      swap1\n      tag_92\n      jump\t// in\n    tag_91:\n      mload(0x40)\n      dup1\n      swap2\n      sub\n      swap1\n      revert\n    tag_90:\n        /* \"submissions/iCat798/Day04-AuctionHouse.sol\":2014:2289  {... */\n      pop\n        /* \"submissions/iCat798/Day04-AuctionHouse.sol\":1994:2289  if (highestBid > 0) {... */\n    tag_82:\n        /* \"submissions/iCat798/Day04-AuctionHouse.sol\":2359:2360  0 */\n      0x00\n        /* \"submissions/iCat798/Day04-AuctionHouse.sol\":2339:2343  bids */\n      0x07\n        /* \"submissions/iCat798/Day04-AuctionHouse.sol\":2339:2355  bids[msg.sender] */\n      0x00\n        /* \"submissions/iCat798/Day04-AuctionHouse.sol\":2344:2354  msg.sender */\n      caller\n        /* \"submissions/iCat798/Day04-AuctionHouse.sol\":2339:2355  bids[msg.sender] */\n      0xffffffffffffffffffffffffffffffffffffffff\n      and\n      0xffffffffffffffffffffffffffffffffffffffff\n      and\n      dup2\n      mstore\n      0x20\n      add\n      swap1\n      dup2\n      mstore\n      0x20\n      add\n      0x00\n      keccak256\n      sload\n        /* \"submissions/iCat798/Day04-AuctionHouse.sol\":2339:2360  bids[msg.sender] == 0 */\n      sub\n        /* \"submissions/iCat798/Day04-AuctionHouse.sol\":2335:2449  if (bids[msg.sender] == 0) {... */\n      tag_93\n      jumpi\n        /* \"submissions/iCat798/Day04-AuctionHouse.sol\":2377:2384  bidders */\n      0x08\n        /* \"submissions/iCat798/Day04-AuctionHouse.sol\":2390:2400  msg.sender */\n      caller\n        /* \"submissions/iCat798/Day04-AuctionHouse.sol\":2377:2401  bidders.push(msg.sender) */\n      swap1\n      dup1\n      0x01\n      dup2\n      sload\n      add\n      dup1\n      dup3\n      sstore\n      dup1\n      swap2\n      pop\n      pop\n      0x01\n      swap1\n      sub\n      swap1\n      0x00\n      mstore\n      keccak256(0x00, 0x20)\n      add\n      0x00\n      swap1\n      swap2\n      swap1\n      swap2\n      swap1\n      swap2\n      0x0100\n      exp\n      dup2\n      sload\n      dup2\n      0xffffffffffffffffffffffffffffffffffffffff\n      mul\n      not\n      and\n      swap1\n      dup4\n      0xffffffffffffffffffffffffffffffffffffffff\n      and\n      mul\n      or\n      swap1\n      sstore\n      pop\n        /* \"submissions/iCat798/Day04-AuctionHouse.sol\":2335:2449  if (bids[msg.sender] == 0) {... */\n    tag_93:\n        /* \"submissions/iCat798/Day04-AuctionHouse.sol\":2480:2486  amount */\n      dup1\n        /* \"submissions/iCat798/Day04-AuctionHouse.sol\":2461:2465  bids */\n      0x07\n        /* \"submissions/iCat798/Day04-AuctionHouse.sol\":2461:2477  bids[msg.sender] */\n      0x00\n        /* \"submissions/iCat798/Day04-AuctionHouse.sol\":2466:2476  msg.sender */\n      caller\n        /* \"submissions/iCat798/Day04-AuctionHouse.sol\":2461:2477  bids[msg.sender] */\n      0xffffffffffffffffffffffffffffffffffffffff\n      and\n      0xffffffffffffffffffffffffffffffffffffffff\n      and\n      dup2\n      mstore\n      0x20\n      add\n      swap1\n      dup2\n      mstore\n      0x20\n      add\n      0x00\n      keccak256\n        /* \"submissions/iCat798/Day04-AuctionHouse.sol\":2461:2486  bids[msg.sender] = amount */\n      dup2\n      swap1\n      sstore\n      pop\n        /* \"submissions/iCat798/Day04-AuctionHouse.sol\":2567:2577  highestBid */\n      sload(0x04)\n        /* \"submissions/iCat798/Day04-AuctionHouse.sol\":2558:2564  amount */\n      dup2\n        /* \"submissions/iCat798/Day04-AuctionHouse.sol\":2558:2577  amount > highestBid */\n      gt\n        /* \"submissions/iCat798/Day04-AuctionHouse.sol\":2554:2666  if (amount > highestBid) {... */\n      iszero\n      tag_95\n      jumpi\n        /* \"submissions/iCat798/Day04-AuctionHouse.sol\":2607:2613  amount */\n      dup1\n        /* \"submissions/iCat798/Day04-AuctionHouse.sol\":2594:2604  highestBid */\n      0x04\n        /* \"submissions/iCat798/Day04-AuctionHouse.sol\":2594:2613  highestBid = amount */\n      dup2\n      swap1\n      sstore\n      pop\n        /* \"submissions/iCat798/Day04-AuctionHouse.sol\":2644:2654  msg.sender */\n      caller\n        /* \"submissions/iCat798/Day04-AuctionHouse.sol\":2628:2641  highestBidder */\n      0x03\n      0x00\n        /* \"submissions/iCat798/Day04-AuctionHouse.sol\":2628:2654  highestBidder = msg.sender */\n      0x0100\n      exp\n      dup2\n      sload\n      dup2\n      0xffffffffffffffffffffffffffffffffffffffff\n      mul\n      not\n      and\n      swap1\n      dup4\n      0xffffffffffffffffffffffffffffffffffffffff\n      and\n      mul\n      or\n      swap1\n      sstore\n      pop\n        /* \"submissions/iCat798/Day04-AuctionHouse.sol\":2554:2666  if (amount > highestBid) {... */\n    tag_95:\n        /* \"submissions/iCat798/Day04-AuctionHouse.sol\":1424:2673  function bid(uint amount) external {... */\n      pop\n      jump\t// out\n        /* \"submissions/iCat798/Day04-AuctionHouse.sol\":225:251  uint public auctionEndTime */\n    tag_31:\n      sload(0x02)\n      dup2\n      jump\t// out\n        /* \"submissions/iCat798/Day04-AuctionHouse.sol\":867:903  mapping(address => uint) public bids */\n    tag_37:\n      mstore(0x20, 0x07)\n      dup1\n      0x00\n      mstore\n      keccak256(0x00, 0x40)\n      0x00\n      swap2\n      pop\n      swap1\n      pop\n      sload\n      dup2\n      jump\t// out\n        /* \"submissions/iCat798/Day04-AuctionHouse.sol\":752:799  uint public constant MIN_ABSOLUTE_INCREMENT = 0 */\n    tag_40:\n        /* \"submissions/iCat798/Day04-AuctionHouse.sol\":798:799  0 */\n      0x00\n        /* \"submissions/iCat798/Day04-AuctionHouse.sol\":752:799  uint public constant MIN_ABSOLUTE_INCREMENT = 0 */\n      dup2\n      jump\t// out\n        /* \"submissions/iCat798/Day04-AuctionHouse.sol\":89:109  address public owner */\n    tag_43:\n      0x00\n      0x00\n      swap1\n      sload\n      swap1\n      0x0100\n      exp\n      swap1\n      div\n      0xffffffffffffffffffffffffffffffffffffffff\n      and\n      dup2\n      jump\t// out\n        /* \"submissions/iCat798/Day04-AuctionHouse.sol\":3275:3442  function getWinner() external view returns (address, uint) {... */\n    tag_47:\n        /* \"submissions/iCat798/Day04-AuctionHouse.sol\":3319:3326  address */\n      0x00\n        /* \"submissions/iCat798/Day04-AuctionHouse.sol\":3328:3332  uint */\n      0x00\n        /* \"submissions/iCat798/Day04-AuctionHouse.sol\":3353:3358  ended */\n      0x05\n      0x00\n      swap1\n      sload\n      swap1\n      0x0100\n      exp\n      swap1\n      div\n      0xff\n      and\n        /* \"submissions/iCat798/Day04-AuctionHouse.sol\":3345:3389  require(ended, \"Auction has not ended yet.\") */\n      tag_97\n      jumpi\n      mload(0x40)\n      0x08c379a000000000000000000000000000000000000000000000000000000000\n      dup2\n      mstore\n      0x04\n      add\n      tag_98\n      swap1\n      tag_99\n      jump\t// in\n    tag_98:\n      mload(0x40)\n      dup1\n      swap2\n      sub\n      swap1\n      revert\n    tag_97:\n        /* \"submissions/iCat798/Day04-AuctionHouse.sol\":3408:3421  highestBidder */\n      0x03\n      0x00\n      swap1\n      sload\n      swap1\n      0x0100\n      exp\n      swap1\n      div\n      0xffffffffffffffffffffffffffffffffffffffff\n      and\n        /* \"submissions/iCat798/Day04-AuctionHouse.sol\":3423:3433  highestBid */\n      sload(0x04)\n        /* \"submissions/iCat798/Day04-AuctionHouse.sol\":3400:3434  return (highestBidder, highestBid) */\n      swap2\n      pop\n      swap2\n      pop\n        /* \"submissions/iCat798/Day04-AuctionHouse.sol\":3275:3442  function getWinner() external view returns (address, uint) {... */\n      swap1\n      swap2\n      jump\t// out\n        /* \"submissions/iCat798/Day04-AuctionHouse.sol\":656:707  uint public constant MIN_BID_INCREMENT_PERCENT = 50 */\n    tag_51:\n        /* \"submissions/iCat798/Day04-AuctionHouse.sol\":705:707  50 */\n      0x32\n        /* \"submissions/iCat798/Day04-AuctionHouse.sol\":656:707  uint public constant MIN_BID_INCREMENT_PERCENT = 50 */\n      dup2\n      jump\t// out\n        /* \"submissions/iCat798/Day04-AuctionHouse.sol\":942:966  address[] public bidders */\n    tag_55:\n      0x08\n      dup2\n      dup2\n      sload\n      dup2\n      lt\n      tag_100\n      jumpi\n      0x00\n      dup1\n      revert\n    tag_100:\n      swap1\n      0x00\n      mstore\n      keccak256(0x00, 0x20)\n      add\n      0x00\n      swap2\n      pop\n      sload\n      swap1\n      0x0100\n      exp\n      swap1\n      div\n      0xffffffffffffffffffffffffffffffffffffffff\n      and\n      dup2\n      jump\t// out\n        /* \"submissions/iCat798/Day04-AuctionHouse.sol\":562:586  uint public reservePrice */\n    tag_58:\n      sload(0x06)\n      dup2\n      jump\t// out\n        /* \"submissions/iCat798/Day04-AuctionHouse.sol\":153:171  string public item */\n    tag_61:\n      0x01\n      dup1\n      sload\n      tag_102\n      swap1\n      tag_103\n      jump\t// in\n    tag_102:\n      dup1\n      0x1f\n      add\n      0x20\n      dup1\n      swap2\n      div\n      mul\n      0x20\n      add\n      mload(0x40)\n      swap1\n      dup2\n      add\n      0x40\n      mstore\n      dup1\n      swap3\n      swap2\n      swap1\n      dup2\n      dup2\n      mstore\n      0x20\n      add\n      dup3\n      dup1\n      sload\n      tag_104\n      swap1\n      tag_103\n      jump\t// in\n    tag_104:\n      dup1\n      iszero\n      tag_105\n      jumpi\n      dup1\n      0x1f\n      lt\n      tag_106\n      jumpi\n      0x0100\n      dup1\n      dup4\n      sload\n      div\n      mul\n      dup4\n      mstore\n      swap2\n      0x20\n      add\n      swap2\n      jump(tag_105)\n    tag_106:\n      dup3\n      add\n      swap2\n      swap1\n      0x00\n      mstore\n      keccak256(0x00, 0x20)\n      swap1\n    tag_107:\n      dup2\n      sload\n      dup2\n      mstore\n      swap1\n      0x01\n      add\n      swap1\n      0x20\n      add\n      dup1\n      dup4\n      gt\n      tag_107\n      jumpi\n      dup3\n      swap1\n      sub\n      0x1f\n      and\n      dup3\n      add\n      swap2\n    tag_105:\n      pop\n      pop\n      pop\n      pop\n      pop\n      dup2\n      jump\t// out\n        /* \"submissions/iCat798/Day04-AuctionHouse.sol\":2750:3010  function endAuction() external {... */\n    tag_65:\n        /* \"submissions/iCat798/Day04-AuctionHouse.sol\":2819:2833  auctionEndTime */\n      sload(0x02)\n        /* \"submissions/iCat798/Day04-AuctionHouse.sol\":2800:2815  block.timestamp */\n      timestamp\n        /* \"submissions/iCat798/Day04-AuctionHouse.sol\":2800:2833  block.timestamp >= auctionEndTime */\n      lt\n      iszero\n        /* \"submissions/iCat798/Day04-AuctionHouse.sol\":2792:2863  require(block.timestamp >= auctionEndTime, \"Auction hasn't ended yet.\") */\n      tag_109\n      jumpi\n      mload(0x40)\n      0x08c379a000000000000000000000000000000000000000000000000000000000\n      dup2\n      mstore\n      0x04\n      add\n      tag_110\n      swap1\n      tag_111\n      jump\t// in\n    tag_110:\n      mload(0x40)\n      dup1\n      swap2\n      sub\n      swap1\n      revert\n    tag_109:\n        /* \"submissions/iCat798/Day04-AuctionHouse.sol\":2883:2888  ended */\n      0x05\n      0x00\n      swap1\n      sload\n      swap1\n      0x0100\n      exp\n      swap1\n      div\n      0xff\n      and\n        /* \"submissions/iCat798/Day04-AuctionHouse.sol\":2882:2888  !ended */\n      iszero\n        /* \"submissions/iCat798/Day04-AuctionHouse.sol\":2874:2920  require(!ended, \"Auction end already called.\") */\n      tag_112\n      jumpi\n      mload(0x40)\n      0x08c379a000000000000000000000000000000000000000000000000000000000\n      dup2\n      mstore\n      0x04\n      add\n      tag_113\n      swap1\n      tag_114\n      jump\t// in\n    tag_113:\n      mload(0x40)\n      dup1\n      swap2\n      sub\n      swap1\n      revert\n    tag_112:\n        /* \"submissions/iCat798/Day04-AuctionHouse.sol\":2998:3002  true */\n      0x01\n        /* \"submissions/iCat798/Day04-AuctionHouse.sol\":2990:2995  ended */\n      0x05\n      0x00\n        /* \"submissions/iCat798/Day04-AuctionHouse.sol\":2990:3002  ended = true */\n      0x0100\n      exp\n      dup2\n      sload\n      dup2\n      0xff\n      mul\n      not\n      and\n      swap1\n      dup4\n      iszero\n      iszero\n      mul\n      or\n      swap1\n      sstore\n      pop\n        /* \"submissions/iCat798/Day04-AuctionHouse.sol\":2750:3010  function endAuction() external {... */\n      jump\t// out\n        /* \"#utility.yul\":7:97   */\n    tag_115:\n        /* \"#utility.yul\":41:48   */\n      0x00\n        /* \"#utility.yul\":84:89   */\n      dup2\n        /* \"#utility.yul\":77:90   */\n      iszero\n        /* \"#utility.yul\":70:91   */\n      iszero\n        /* \"#utility.yul\":59:91   */\n      swap1\n      pop\n        /* \"#utility.yul\":7:97   */\n      swap2\n      swap1\n      pop\n      jump\t// out\n        /* \"#utility.yul\":103:212   */\n    tag_116:\n        /* \"#utility.yul\":184:205   */\n      tag_163\n        /* \"#utility.yul\":199:204   */\n      dup2\n        /* \"#utility.yul\":184:205   */\n      tag_115\n      jump\t// in\n    tag_163:\n        /* \"#utility.yul\":179:182   */\n      dup3\n        /* \"#utility.yul\":172:206   */\n      mstore\n        /* \"#utility.yul\":103:212   */\n      pop\n      pop\n      jump\t// out\n        /* \"#utility.yul\":218:428   */\n    tag_21:\n        /* \"#utility.yul\":305:309   */\n      0x00\n        /* \"#utility.yul\":343:345   */\n      0x20\n        /* \"#utility.yul\":332:341   */\n      dup3\n        /* \"#utility.yul\":328:346   */\n      add\n        /* \"#utility.yul\":320:346   */\n      swap1\n      pop\n        /* \"#utility.yul\":356:421   */\n      tag_165\n        /* \"#utility.yul\":418:419   */\n      0x00\n        /* \"#utility.yul\":407:416   */\n      dup4\n        /* \"#utility.yul\":403:420   */\n      add\n        /* \"#utility.yul\":394:400   */\n      dup5\n        /* \"#utility.yul\":356:421   */\n      tag_116\n      jump\t// in\n    tag_165:\n        /* \"#utility.yul\":218:428   */\n      swap3\n      swap2\n      pop\n      pop\n      jump\t// out\n        /* \"#utility.yul\":434:548   */\n    tag_117:\n        /* \"#utility.yul\":501:507   */\n      0x00\n        /* \"#utility.yul\":535:540   */\n      dup2\n        /* \"#utility.yul\":529:541   */\n      mload\n        /* \"#utility.yul\":519:541   */\n      swap1\n      pop\n        /* \"#utility.yul\":434:548   */\n      swap2\n      swap1\n      pop\n      jump\t// out\n        /* \"#utility.yul\":554:738   */\n    tag_118:\n        /* \"#utility.yul\":653:664   */\n      0x00\n        /* \"#utility.yul\":687:693   */\n      dup3\n        /* \"#utility.yul\":682:685   */\n      dup3\n        /* \"#utility.yul\":675:694   */\n      mstore\n        /* \"#utility.yul\":727:731   */\n      0x20\n        /* \"#utility.yul\":722:725   */\n      dup3\n        /* \"#utility.yul\":718:732   */\n      add\n        /* \"#utility.yul\":703:732   */\n      swap1\n      pop\n        /* \"#utility.yul\":554:738   */\n      swap3\n      swap2\n      pop\n      pop\n      jump\t// out\n        /* \"#utility.yul\":744:876   */\n    tag_119:\n        /* \"#utility.yul\":811:815   */\n      0x00\n        /* \"#utility.yul\":834:837   */\n      dup2\n        /* \"#utility.yul\":826:837   */\n      swap1\n      pop\n        /* \"#utility.yul\":864:868   */\n      0x20\n        /* \"#utility.yul\":859:862   */\n      dup3\n        /* \"#utility.yul\":855:869   */\n      add\n        /* \"#utility.yul\":847:869   */\n      swap1\n      pop\n        /* \"#utility.yul\":744:876   */\n      swap2\n      swap1\n      pop\n      jump\t// out\n        /* \"#utility.yul\":882:1008   */\n    tag_120:\n        /* \"#utility.yul\":919:926   */\n      0x00\n        /* \"#utility.yul\":959:1001   */\n      0xffffffffffffffffffffffffffffffffffffffff\n        /* \"#utility.yul\":952:957   */\n      dup3\n        /* \"#utility.yul\":948:1002   */\n      and\n        /* \"#utility.yul\":937:1002   */\n      swap1\n      pop\n        /* \"#utility.yul\":882:1008   */\n      swap2\n      swap1\n      pop\n      jump\t// out\n        /* \"#utility.yul\":1014:1110   */\n    tag_121:\n        /* \"#utility.yul\":1051:1058   */\n      0x00\n        /* \"#utility.yul\":1080:1104   */\n      tag_171\n        /* \"#utility.yul\":1098:1103   */\n      dup3\n        /* \"#utility.yul\":1080:1104   */\n      tag_120\n      jump\t// in\n    tag_171:\n        /* \"#utility.yul\":1069:1104   */\n      swap1\n      pop\n        /* \"#utility.yul\":1014:1110   */\n      swap2\n      swap1\n      pop\n      jump\t// out\n        /* \"#utility.yul\":1116:1224   */\n    tag_122:\n        /* \"#utility.yul\":1193:1217   */\n      tag_173\n        /* \"#utility.yul\":1211:1216   */\n      dup2\n        /* \"#utility.yul\":1193:1217   */\n      tag_121\n      jump\t// in\n    tag_173:\n        /* \"#utility.yul\":1188:1191   */\n      dup3\n        /* \"#utility.yul\":1181:1218   */\n      mstore\n        /* \"#utility.yul\":1116:1224   */\n      pop\n      pop\n      jump\t// out\n        /* \"#utility.yul\":1230:1409   */\n    tag_123:\n        /* \"#utility.yul\":1299:1309   */\n      0x00\n        /* \"#utility.yul\":1320:1366   */\n      tag_175\n        /* \"#utility.yul\":1362:1365   */\n      dup4\n        /* \"#utility.yul\":1354:1360   */\n      dup4\n        /* \"#utility.yul\":1320:1366   */\n      tag_122\n      jump\t// in\n    tag_175:\n        /* \"#utility.yul\":1398:1402   */\n      0x20\n        /* \"#utility.yul\":1393:1396   */\n      dup4\n        /* \"#utility.yul\":1389:1403   */\n      add\n        /* \"#utility.yul\":1375:1403   */\n      swap1\n      pop\n        /* \"#utility.yul\":1230:1409   */\n      swap3\n      swap2\n      pop\n      pop\n      jump\t// out\n        /* \"#utility.yul\":1415:1528   */\n    tag_124:\n        /* \"#utility.yul\":1485:1489   */\n      0x00\n        /* \"#utility.yul\":1517:1521   */\n      0x20\n        /* \"#utility.yul\":1512:1515   */\n      dup3\n        /* \"#utility.yul\":1508:1522   */\n      add\n        /* \"#utility.yul\":1500:1522   */\n      swap1\n      pop\n        /* \"#utility.yul\":1415:1528   */\n      swap2\n      swap1\n      pop\n      jump\t// out\n        /* \"#utility.yul\":1564:2296   */\n    tag_125:\n        /* \"#utility.yul\":1683:1686   */\n      0x00\n        /* \"#utility.yul\":1712:1766   */\n      tag_178\n        /* \"#utility.yul\":1760:1765   */\n      dup3\n        /* \"#utility.yul\":1712:1766   */\n      tag_117\n      jump\t// in\n    tag_178:\n        /* \"#utility.yul\":1782:1868   */\n      tag_179\n        /* \"#utility.yul\":1861:1867   */\n      dup2\n        /* \"#utility.yul\":1856:1859   */\n      dup6\n        /* \"#utility.yul\":1782:1868   */\n      tag_118\n      jump\t// in\n    tag_179:\n        /* \"#utility.yul\":1775:1868   */\n      swap4\n      pop\n        /* \"#utility.yul\":1892:1948   */\n      tag_180\n        /* \"#utility.yul\":1942:1947   */\n      dup4\n        /* \"#utility.yul\":1892:1948   */\n      tag_119\n      jump\t// in\n    tag_180:\n        /* \"#utility.yul\":1971:1978   */\n      dup1\n        /* \"#utility.yul\":2002:2003   */\n      0x00\n        /* \"#utility.yul\":1987:2271   */\n    tag_181:\n        /* \"#utility.yul\":2012:2018   */\n      dup4\n        /* \"#utility.yul\":2009:2010   */\n      dup2\n        /* \"#utility.yul\":2006:2019   */\n      lt\n        /* \"#utility.yul\":1987:2271   */\n      iszero\n      tag_183\n      jumpi\n        /* \"#utility.yul\":2088:2094   */\n      dup2\n        /* \"#utility.yul\":2082:2095   */\n      mload\n        /* \"#utility.yul\":2115:2178   */\n      tag_184\n        /* \"#utility.yul\":2174:2177   */\n      dup9\n        /* \"#utility.yul\":2159:2172   */\n      dup3\n        /* \"#utility.yul\":2115:2178   */\n      tag_123\n      jump\t// in\n    tag_184:\n        /* \"#utility.yul\":2108:2178   */\n      swap8\n      pop\n        /* \"#utility.yul\":2201:2261   */\n      tag_185\n        /* \"#utility.yul\":2254:2260   */\n      dup4\n        /* \"#utility.yul\":2201:2261   */\n      tag_124\n      jump\t// in\n    tag_185:\n        /* \"#utility.yul\":2191:2261   */\n      swap3\n      pop\n        /* \"#utility.yul\":2047:2271   */\n      pop\n        /* \"#utility.yul\":2034:2035   */\n      0x01\n        /* \"#utility.yul\":2031:2032   */\n      dup2\n        /* \"#utility.yul\":2027:2036   */\n      add\n        /* \"#utility.yul\":2022:2036   */\n      swap1\n      pop\n        /* \"#utility.yul\":1987:2271   */\n      jump(tag_181)\n    tag_183:\n        /* \"#utility.yul\":1991:2005   */\n      pop\n        /* \"#utility.yul\":2287:2290   */\n      dup6\n        /* \"#utility.yul\":2280:2290   */\n      swap4\n      pop\n        /* \"#utility.yul\":1688:2296   */\n      pop\n      pop\n      pop\n        /* \"#utility.yul\":1564:2296   */\n      swap3\n      swap2\n      pop\n      pop\n      jump\t// out\n        /* \"#utility.yul\":2302:2675   */\n    tag_25:\n        /* \"#utility.yul\":2445:2449   */\n      0x00\n        /* \"#utility.yul\":2483:2485   */\n      0x20\n        /* \"#utility.yul\":2472:2481   */\n      dup3\n        /* \"#utility.yul\":2468:2486   */\n      add\n        /* \"#utility.yul\":2460:2486   */\n      swap1\n      pop\n        /* \"#utility.yul\":2532:2541   */\n      dup2\n        /* \"#utility.yul\":2526:2530   */\n      dup2\n        /* \"#utility.yul\":2522:2542   */\n      sub\n        /* \"#utility.yul\":2518:2519   */\n      0x00\n        /* \"#utility.yul\":2507:2516   */\n      dup4\n        /* \"#utility.yul\":2503:2520   */\n      add\n        /* \"#utility.yul\":2496:2543   */\n      mstore\n        /* \"#utility.yul\":2560:2668   */\n      tag_187\n        /* \"#utility.yul\":2663:2667   */\n      dup2\n        /* \"#utility.yul\":2654:2660   */\n      dup5\n        /* \"#utility.yul\":2560:2668   */\n      tag_125\n      jump\t// in\n    tag_187:\n        /* \"#utility.yul\":2552:2668   */\n      swap1\n      pop\n        /* \"#utility.yul\":2302:2675   */\n      swap3\n      swap2\n      pop\n      pop\n      jump\t// out\n        /* \"#utility.yul\":2762:2879   */\n    tag_127:\n        /* \"#utility.yul\":2871:2872   */\n      0x00\n        /* \"#utility.yul\":2868:2869   */\n      0x00\n        /* \"#utility.yul\":2861:2873   */\n      revert\n        /* \"#utility.yul\":3008:3085   */\n    tag_129:\n        /* \"#utility.yul\":3045:3052   */\n      0x00\n        /* \"#utility.yul\":3074:3079   */\n      dup2\n        /* \"#utility.yul\":3063:3079   */\n      swap1\n      pop\n        /* \"#utility.yul\":3008:3085   */\n      swap2\n      swap1\n      pop\n      jump\t// out\n        /* \"#utility.yul\":3091:3213   */\n    tag_130:\n        /* \"#utility.yul\":3164:3188   */\n      tag_193\n        /* \"#utility.yul\":3182:3187   */\n      dup2\n        /* \"#utility.yul\":3164:3188   */\n      tag_129\n      jump\t// in\n    tag_193:\n        /* \"#utility.yul\":3157:3162   */\n      dup2\n        /* \"#utility.yul\":3154:3189   */\n      eq\n        /* \"#utility.yul\":3144:3207   */\n      tag_194\n      jumpi\n        /* \"#utility.yul\":3203:3204   */\n      0x00\n        /* \"#utility.yul\":3200:3201   */\n      0x00\n        /* \"#utility.yul\":3193:3205   */\n      revert\n        /* \"#utility.yul\":3144:3207   */\n    tag_194:\n        /* \"#utility.yul\":3091:3213   */\n      pop\n      jump\t// out\n        /* \"#utility.yul\":3219:3358   */\n    tag_131:\n        /* \"#utility.yul\":3265:3270   */\n      0x00\n        /* \"#utility.yul\":3303:3309   */\n      dup2\n        /* \"#utility.yul\":3290:3310   */\n      calldataload\n        /* \"#utility.yul\":3281:3310   */\n      swap1\n      pop\n        /* \"#utility.yul\":3319:3352   */\n      tag_196\n        /* \"#utility.yul\":3346:3351   */\n      dup2\n        /* \"#utility.yul\":3319:3352   */\n      tag_130\n      jump\t// in\n    tag_196:\n        /* \"#utility.yul\":3219:3358   */\n      swap3\n      swap2\n      pop\n      pop\n      jump\t// out\n        /* \"#utility.yul\":3364:3693   */\n    tag_28:\n        /* \"#utility.yul\":3423:3429   */\n      0x00\n        /* \"#utility.yul\":3472:3474   */\n      0x20\n        /* \"#utility.yul\":3460:3469   */\n      dup3\n        /* \"#utility.yul\":3451:3458   */\n      dup5\n        /* \"#utility.yul\":3447:3470   */\n      sub\n        /* \"#utility.yul\":3443:3475   */\n      slt\n        /* \"#utility.yul\":3440:3559   */\n      iszero\n      tag_198\n      jumpi\n        /* \"#utility.yul\":3478:3557   */\n      tag_199\n      tag_127\n      jump\t// in\n    tag_199:\n        /* \"#utility.yul\":3440:3559   */\n    tag_198:\n        /* \"#utility.yul\":3598:3599   */\n      0x00\n        /* \"#utility.yul\":3623:3676   */\n      tag_200\n        /* \"#utility.yul\":3668:3675   */\n      dup5\n        /* \"#utility.yul\":3659:3665   */\n      dup3\n        /* \"#utility.yul\":3648:3657   */\n      dup6\n        /* \"#utility.yul\":3644:3666   */\n      add\n        /* \"#utility.yul\":3623:3676   */\n      tag_131\n      jump\t// in\n    tag_200:\n        /* \"#utility.yul\":3613:3676   */\n      swap2\n      pop\n        /* \"#utility.yul\":3569:3686   */\n      pop\n        /* \"#utility.yul\":3364:3693   */\n      swap3\n      swap2\n      pop\n      pop\n      jump\t// out\n        /* \"#utility.yul\":3699:3817   */\n    tag_132:\n        /* \"#utility.yul\":3786:3810   */\n      tag_202\n        /* \"#utility.yul\":3804:3809   */\n      dup2\n        /* \"#utility.yul\":3786:3810   */\n      tag_129\n      jump\t// in\n    tag_202:\n        /* \"#utility.yul\":3781:3784   */\n      dup3\n        /* \"#utility.yul\":3774:3811   */\n      mstore\n        /* \"#utility.yul\":3699:3817   */\n      pop\n      pop\n      jump\t// out\n        /* \"#utility.yul\":3823:4045   */\n    tag_33:\n        /* \"#utility.yul\":3916:3920   */\n      0x00\n        /* \"#utility.yul\":3954:3956   */\n      0x20\n        /* \"#utility.yul\":3943:3952   */\n      dup3\n        /* \"#utility.yul\":3939:3957   */\n      add\n        /* \"#utility.yul\":3931:3957   */\n      swap1\n      pop\n        /* \"#utility.yul\":3967:4038   */\n      tag_204\n        /* \"#utility.yul\":4035:4036   */\n      0x00\n        /* \"#utility.yul\":4024:4033   */\n      dup4\n        /* \"#utility.yul\":4020:4037   */\n      add\n        /* \"#utility.yul\":4011:4017   */\n      dup5\n        /* \"#utility.yul\":3967:4038   */\n      tag_132\n      jump\t// in\n    tag_204:\n        /* \"#utility.yul\":3823:4045   */\n      swap3\n      swap2\n      pop\n      pop\n      jump\t// out\n        /* \"#utility.yul\":4051:4173   */\n    tag_133:\n        /* \"#utility.yul\":4124:4148   */\n      tag_206\n        /* \"#utility.yul\":4142:4147   */\n      dup2\n        /* \"#utility.yul\":4124:4148   */\n      tag_121\n      jump\t// in\n    tag_206:\n        /* \"#utility.yul\":4117:4122   */\n      dup2\n        /* \"#utility.yul\":4114:4149   */\n      eq\n        /* \"#utility.yul\":4104:4167   */\n      tag_207\n      jumpi\n        /* \"#utility.yul\":4163:4164   */\n      0x00\n        /* \"#utility.yul\":4160:4161   */\n      0x00\n        /* \"#utility.yul\":4153:4165   */\n      revert\n        /* \"#utility.yul\":4104:4167   */\n    tag_207:\n        /* \"#utility.yul\":4051:4173   */\n      pop\n      jump\t// out\n        /* \"#utility.yul\":4179:4318   */\n    tag_134:\n        /* \"#utility.yul\":4225:4230   */\n      0x00\n        /* \"#utility.yul\":4263:4269   */\n      dup2\n        /* \"#utility.yul\":4250:4270   */\n      calldataload\n        /* \"#utility.yul\":4241:4270   */\n      swap1\n      pop\n        /* \"#utility.yul\":4279:4312   */\n      tag_209\n        /* \"#utility.yul\":4306:4311   */\n      dup2\n        /* \"#utility.yul\":4279:4312   */\n      tag_133\n      jump\t// in\n    tag_209:\n        /* \"#utility.yul\":4179:4318   */\n      swap3\n      swap2\n      pop\n      pop\n      jump\t// out\n        /* \"#utility.yul\":4324:4653   */\n    tag_36:\n        /* \"#utility.yul\":4383:4389   */\n      0x00\n        /* \"#utility.yul\":4432:4434   */\n      0x20\n        /* \"#utility.yul\":4420:4429   */\n      dup3\n        /* \"#utility.yul\":4411:4418   */\n      dup5\n        /* \"#utility.yul\":4407:4430   */\n      sub\n        /* \"#utility.yul\":4403:4435   */\n      slt\n        /* \"#utility.yul\":4400:4519   */\n      iszero\n      tag_211\n      jumpi\n        /* \"#utility.yul\":4438:4517   */\n      tag_212\n      tag_127\n      jump\t// in\n    tag_212:\n        /* \"#utility.yul\":4400:4519   */\n    tag_211:\n        /* \"#utility.yul\":4558:4559   */\n      0x00\n        /* \"#utility.yul\":4583:4636   */\n      tag_213\n        /* \"#utility.yul\":4628:4635   */\n      dup5\n        /* \"#utility.yul\":4619:4625   */\n      dup3\n        /* \"#utility.yul\":4608:4617   */\n      dup6\n        /* \"#utility.yul\":4604:4626   */\n      add\n        /* \"#utility.yul\":4583:4636   */\n      tag_134\n      jump\t// in\n    tag_213:\n        /* \"#utility.yul\":4573:4636   */\n      swap2\n      pop\n        /* \"#utility.yul\":4529:4646   */\n      pop\n        /* \"#utility.yul\":4324:4653   */\n      swap3\n      swap2\n      pop\n      pop\n      jump\t// out\n        /* \"#utility.yul\":4659:4777   */\n    tag_135:\n        /* \"#utility.yul\":4746:4770   */\n      tag_215\n        /* \"#utility.yul\":4764:4769   */\n      dup2\n        /* \"#utility.yul\":4746:4770   */\n      tag_121\n      jump\t// in\n    tag_215:\n        /* \"#utility.yul\":4741:4744   */\n      dup3\n        /* \"#utility.yul\":4734:4771   */\n      mstore\n        /* \"#utility.yul\":4659:4777   */\n      pop\n      pop\n      jump\t// out\n        /* \"#utility.yul\":4783:5005   */\n    tag_45:\n        /* \"#utility.yul\":4876:4880   */\n      0x00\n        /* \"#utility.yul\":4914:4916   */\n      0x20\n        /* \"#utility.yul\":4903:4912   */\n      dup3\n        /* \"#utility.yul\":4899:4917   */\n      add\n        /* \"#utility.yul\":4891:4917   */\n      swap1\n      pop\n        /* \"#utility.yul\":4927:4998   */\n      tag_217\n        /* \"#utility.yul\":4995:4996   */\n      0x00\n        /* \"#utility.yul\":4984:4993   */\n      dup4\n        /* \"#utility.yul\":4980:4997   */\n      add\n        /* \"#utility.yul\":4971:4977   */\n      dup5\n        /* \"#utility.yul\":4927:4998   */\n      tag_135\n      jump\t// in\n    tag_217:\n        /* \"#utility.yul\":4783:5005   */\n      swap3\n      swap2\n      pop\n      pop\n      jump\t// out\n        /* \"#utility.yul\":5011:5343   */\n    tag_49:\n        /* \"#utility.yul\":5132:5136   */\n      0x00\n        /* \"#utility.yul\":5170:5172   */\n      0x40\n        /* \"#utility.yul\":5159:5168   */\n      dup3\n        /* \"#utility.yul\":5155:5173   */\n      add\n        /* \"#utility.yul\":5147:5173   */\n      swap1\n      pop\n        /* \"#utility.yul\":5183:5254   */\n      tag_219\n        /* \"#utility.yul\":5251:5252   */\n      0x00\n        /* \"#utility.yul\":5240:5249   */\n      dup4\n        /* \"#utility.yul\":5236:5253   */\n      add\n        /* \"#utility.yul\":5227:5233   */\n      dup6\n        /* \"#utility.yul\":5183:5254   */\n      tag_135\n      jump\t// in\n    tag_219:\n        /* \"#utility.yul\":5264:5336   */\n      tag_220\n        /* \"#utility.yul\":5332:5334   */\n      0x20\n        /* \"#utility.yul\":5321:5330   */\n      dup4\n        /* \"#utility.yul\":5317:5335   */\n      add\n        /* \"#utility.yul\":5308:5314   */\n      dup5\n        /* \"#utility.yul\":5264:5336   */\n      tag_132\n      jump\t// in\n    tag_220:\n        /* \"#utility.yul\":5011:5343   */\n      swap4\n      swap3\n      pop\n      pop\n      pop\n      jump\t// out\n        /* \"#utility.yul\":5349:5448   */\n    tag_136:\n        /* \"#utility.yul\":5401:5407   */\n      0x00\n        /* \"#utility.yul\":5435:5440   */\n      dup2\n        /* \"#utility.yul\":5429:5441   */\n      mload\n        /* \"#utility.yul\":5419:5441   */\n      swap1\n      pop\n        /* \"#utility.yul\":5349:5448   */\n      swap2\n      swap1\n      pop\n      jump\t// out\n        /* \"#utility.yul\":5454:5623   */\n    tag_137:\n        /* \"#utility.yul\":5538:5549   */\n      0x00\n        /* \"#utility.yul\":5572:5578   */\n      dup3\n        /* \"#utility.yul\":5567:5570   */\n      dup3\n        /* \"#utility.yul\":5560:5579   */\n      mstore\n        /* \"#utility.yul\":5612:5616   */\n      0x20\n        /* \"#utility.yul\":5607:5610   */\n      dup3\n        /* \"#utility.yul\":5603:5617   */\n      add\n        /* \"#utility.yul\":5588:5617   */\n      swap1\n      pop\n        /* \"#utility.yul\":5454:5623   */\n      swap3\n      swap2\n      pop\n      pop\n      jump\t// out\n        /* \"#utility.yul\":5629:5768   */\n    tag_138:\n        /* \"#utility.yul\":5718:5724   */\n      dup3\n        /* \"#utility.yul\":5713:5716   */\n      dup2\n        /* \"#utility.yul\":5708:5711   */\n      dup4\n        /* \"#utility.yul\":5702:5725   */\n      mcopy\n        /* \"#utility.yul\":5759:5760   */\n      0x00\n        /* \"#utility.yul\":5750:5756   */\n      dup4\n        /* \"#utility.yul\":5745:5748   */\n      dup4\n        /* \"#utility.yul\":5741:5757   */\n      add\n        /* \"#utility.yul\":5734:5761   */\n      mstore\n        /* \"#utility.yul\":5629:5768   */\n      pop\n      pop\n      pop\n      jump\t// out\n        /* \"#utility.yul\":5774:5876   */\n    tag_139:\n        /* \"#utility.yul\":5815:5821   */\n      0x00\n        /* \"#utility.yul\":5866:5868   */\n      0x1f\n        /* \"#utility.yul\":5862:5869   */\n      not\n        /* \"#utility.yul\":5857:5859   */\n      0x1f\n        /* \"#utility.yul\":5850:5855   */\n      dup4\n        /* \"#utility.yul\":5846:5860   */\n      add\n        /* \"#utility.yul\":5842:5870   */\n      and\n        /* \"#utility.yul\":5832:5870   */\n      swap1\n      pop\n        /* \"#utility.yul\":5774:5876   */\n      swap2\n      swap1\n      pop\n      jump\t// out\n        /* \"#utility.yul\":5882:6259   */\n    tag_140:\n        /* \"#utility.yul\":5970:5973   */\n      0x00\n        /* \"#utility.yul\":5998:6037   */\n      tag_226\n        /* \"#utility.yul\":6031:6036   */\n      dup3\n        /* \"#utility.yul\":5998:6037   */\n      tag_136\n      jump\t// in\n    tag_226:\n        /* \"#utility.yul\":6053:6124   */\n      tag_227\n        /* \"#utility.yul\":6117:6123   */\n      dup2\n        /* \"#utility.yul\":6112:6115   */\n      dup6\n        /* \"#utility.yul\":6053:6124   */\n      tag_137\n      jump\t// in\n    tag_227:\n        /* \"#utility.yul\":6046:6124   */\n      swap4\n      pop\n        /* \"#utility.yul\":6133:6198   */\n      tag_228\n        /* \"#utility.yul\":6191:6197   */\n      dup2\n        /* \"#utility.yul\":6186:6189   */\n      dup6\n        /* \"#utility.yul\":6179:6183   */\n      0x20\n        /* \"#utility.yul\":6172:6177   */\n      dup7\n        /* \"#utility.yul\":6168:6184   */\n      add\n        /* \"#utility.yul\":6133:6198   */\n      tag_138\n      jump\t// in\n    tag_228:\n        /* \"#utility.yul\":6223:6252   */\n      tag_229\n        /* \"#utility.yul\":6245:6251   */\n      dup2\n        /* \"#utility.yul\":6223:6252   */\n      tag_139\n      jump\t// in\n    tag_229:\n        /* \"#utility.yul\":6218:6221   */\n      dup5\n        /* \"#utility.yul\":6214:6253   */\n      add\n        /* \"#utility.yul\":6207:6253   */\n      swap2\n      pop\n        /* \"#utility.yul\":5974:6259   */\n      pop\n        /* \"#utility.yul\":5882:6259   */\n      swap3\n      swap2\n      pop\n      pop\n      jump\t// out\n        /* \"#utility.yul\":6265:6578   */\n    tag_63:\n        /* \"#utility.yul\":6378:6382   */\n      0x00\n        /* \"#utility.yul\":6416:6418   */\n      0x20\n        /* \"#utility.yul\":6405:6414   */\n      dup3\n        /* \"#utility.yul\":6401:6419   */\n      add\n        /* \"#utility.yul\":6393:6419   */\n      swap1\n      pop\n        /* \"#utility.yul\":6465:6474   */\n      dup2\n        /* \"#utility.yul\":6459:6463   */\n      dup2\n        /* \"#utility.yul\":6455:6475   */\n      sub\n        /* \"#utility.yul\":6451:6452   */\n      0x00\n        /* \"#utility.yul\":6440:6449   */\n      dup4\n        /* \"#utility.yul\":6436:6453   */\n      add\n        /* \"#utility.yul\":6429:6476   */\n      mstore\n        /* \"#utility.yul\":6493:6571   */\n      tag_231\n        /* \"#utility.yul\":6566:6570   */\n      dup2\n        /* \"#utility.yul\":6557:6563   */\n      dup5\n        /* \"#utility.yul\":6493:6571   */\n      tag_140\n      jump\t// in\n    tag_231:\n        /* \"#utility.yul\":6485:6571   */\n      swap1\n      pop\n        /* \"#utility.yul\":6265:6578   */\n      swap3\n      swap2\n      pop\n      pop\n      jump\t// out\n        /* \"#utility.yul\":6584:6760   */\n    tag_141:\n        /* \"#utility.yul\":6724:6752   */\n      0x41756374696f6e2068617320616c726561647920656e6465642e000000000000\n        /* \"#utility.yul\":6720:6721   */\n      0x00\n        /* \"#utility.yul\":6712:6718   */\n      dup3\n        /* \"#utility.yul\":6708:6722   */\n      add\n        /* \"#utility.yul\":6701:6753   */\n      mstore\n        /* \"#utility.yul\":6584:6760   */\n      pop\n      jump\t// out\n        /* \"#utility.yul\":6766:7132   */\n    tag_142:\n        /* \"#utility.yul\":6908:6911   */\n      0x00\n        /* \"#utility.yul\":6929:6996   */\n      tag_234\n        /* \"#utility.yul\":6993:6995   */\n      0x1a\n        /* \"#utility.yul\":6988:6991   */\n      dup4\n        /* \"#utility.yul\":6929:6996   */\n      tag_137\n      jump\t// in\n    tag_234:\n        /* \"#utility.yul\":6922:6996   */\n      swap2\n      pop\n        /* \"#utility.yul\":7005:7098   */\n      tag_235\n        /* \"#utility.yul\":7094:7097   */\n      dup3\n        /* \"#utility.yul\":7005:7098   */\n      tag_141\n      jump\t// in\n    tag_235:\n        /* \"#utility.yul\":7123:7125   */\n      0x20\n        /* \"#utility.yul\":7118:7121   */\n      dup3\n        /* \"#utility.yul\":7114:7126   */\n      add\n        /* \"#utility.yul\":7107:7126   */\n      swap1\n      pop\n        /* \"#utility.yul\":6766:7132   */\n      swap2\n      swap1\n      pop\n      jump\t// out\n        /* \"#utility.yul\":7138:7557   */\n    tag_72:\n        /* \"#utility.yul\":7304:7308   */\n      0x00\n        /* \"#utility.yul\":7342:7344   */\n      0x20\n        /* \"#utility.yul\":7331:7340   */\n      dup3\n        /* \"#utility.yul\":7327:7345   */\n      add\n        /* \"#utility.yul\":7319:7345   */\n      swap1\n      pop\n        /* \"#utility.yul\":7391:7400   */\n      dup2\n        /* \"#utility.yul\":7385:7389   */\n      dup2\n        /* \"#utility.yul\":7381:7401   */\n      sub\n        /* \"#utility.yul\":7377:7378   */\n      0x00\n        /* \"#utility.yul\":7366:7375   */\n      dup4\n        /* \"#utility.yul\":7362:7379   */\n      add\n        /* \"#utility.yul\":7355:7402   */\n      mstore\n        /* \"#utility.yul\":7419:7550   */\n      tag_237\n        /* \"#utility.yul\":7545:7549   */\n      dup2\n        /* \"#utility.yul\":7419:7550   */\n      tag_142\n      jump\t// in\n    tag_237:\n        /* \"#utility.yul\":7411:7550   */\n      swap1\n      pop\n        /* \"#utility.yul\":7138:7557   */\n      swap2\n      swap1\n      pop\n      jump\t// out\n        /* \"#utility.yul\":7563:7787   */\n    tag_143:\n        /* \"#utility.yul\":7703:7737   */\n      0x42696420616d6f756e74206d7573742062652067726561746572207468616e20\n        /* \"#utility.yul\":7699:7700   */\n      0x00\n        /* \"#utility.yul\":7691:7697   */\n      dup3\n        /* \"#utility.yul\":7687:7701   */\n      add\n        /* \"#utility.yul\":7680:7738   */\n      mstore\n        /* \"#utility.yul\":7772:7779   */\n      0x7a65726f2e000000000000000000000000000000000000000000000000000000\n        /* \"#utility.yul\":7767:7769   */\n      0x20\n        /* \"#utility.yul\":7759:7765   */\n      dup3\n        /* \"#utility.yul\":7755:7770   */\n      add\n        /* \"#utility.yul\":7748:7780   */\n      mstore\n        /* \"#utility.yul\":7563:7787   */\n      pop\n      jump\t// out\n        /* \"#utility.yul\":7793:8159   */\n    tag_144:\n        /* \"#utility.yul\":7935:7938   */\n      0x00\n        /* \"#utility.yul\":7956:8023   */\n      tag_240\n        /* \"#utility.yul\":8020:8022   */\n      0x25\n        /* \"#utility.yul\":8015:8018   */\n      dup4\n        /* \"#utility.yul\":7956:8023   */\n      tag_137\n      jump\t// in\n    tag_240:\n        /* \"#utility.yul\":7949:8023   */\n      swap2\n      pop\n        /* \"#utility.yul\":8032:8125   */\n      tag_241\n        /* \"#utility.yul\":8121:8124   */\n      dup3\n        /* \"#utility.yul\":8032:8125   */\n      tag_143\n      jump\t// in\n    tag_241:\n        /* \"#utility.yul\":8150:8152   */\n      0x40\n        /* \"#utility.yul\":8145:8148   */\n      dup3\n        /* \"#utility.yul\":8141:8153   */\n      add\n        /* \"#utility.yul\":8134:8153   */\n      swap1\n      pop\n        /* \"#utility.yul\":7793:8159   */\n      swap2\n      swap1\n      pop\n      jump\t// out\n        /* \"#utility.yul\":8165:8584   */\n    tag_75:\n        /* \"#utility.yul\":8331:8335   */\n      0x00\n        /* \"#utility.yul\":8369:8371   */\n      0x20\n        /* \"#utility.yul\":8358:8367   */\n      dup3\n        /* \"#utility.yul\":8354:8372   */\n      add\n        /* \"#utility.yul\":8346:8372   */\n      swap1\n      pop\n        /* \"#utility.yul\":8418:8427   */\n      dup2\n        /* \"#utility.yul\":8412:8416   */\n      dup2\n        /* \"#utility.yul\":8408:8428   */\n      sub\n        /* \"#utility.yul\":8404:8405   */\n      0x00\n        /* \"#utility.yul\":8393:8402   */\n      dup4\n        /* \"#utility.yul\":8389:8406   */\n      add\n        /* \"#utility.yul\":8382:8429   */\n      mstore\n        /* \"#utility.yul\":8446:8577   */\n      tag_243\n        /* \"#utility.yul\":8572:8576   */\n      dup2\n        /* \"#utility.yul\":8446:8577   */\n      tag_144\n      jump\t// in\n    tag_243:\n        /* \"#utility.yul\":8438:8577   */\n      swap1\n      pop\n        /* \"#utility.yul\":8165:8584   */\n      swap2\n      swap1\n      pop\n      jump\t// out\n        /* \"#utility.yul\":8590:8822   */\n    tag_145:\n        /* \"#utility.yul\":8730:8764   */\n      0x4e657720626964206d75737420626520686967686572207468616e20796f7572\n        /* \"#utility.yul\":8726:8727   */\n      0x00\n        /* \"#utility.yul\":8718:8724   */\n      dup3\n        /* \"#utility.yul\":8714:8728   */\n      add\n        /* \"#utility.yul\":8707:8765   */\n      mstore\n        /* \"#utility.yul\":8799:8814   */\n      0x2063757272656e74206269642e00000000000000000000000000000000000000\n        /* \"#utility.yul\":8794:8796   */\n      0x20\n        /* \"#utility.yul\":8786:8792   */\n      dup3\n        /* \"#utility.yul\":8782:8797   */\n      add\n        /* \"#utility.yul\":8775:8815   */\n      mstore\n        /* \"#utility.yul\":8590:8822   */\n      pop\n      jump\t// out\n        /* \"#utility.yul\":8828:9194   */\n    tag_146:\n        /* \"#utility.yul\":8970:8973   */\n      0x00\n        /* \"#utility.yul\":8991:9058   */\n      tag_246\n        /* \"#utility.yul\":9055:9057   */\n      0x2d\n        /* \"#utility.yul\":9050:9053   */\n      dup4\n        /* \"#utility.yul\":8991:9058   */\n      tag_137\n      jump\t// in\n    tag_246:\n        /* \"#utility.yul\":8984:9058   */\n      swap2\n      pop\n        /* \"#utility.yul\":9067:9160   */\n      tag_247\n        /* \"#utility.yul\":9156:9159   */\n      dup3\n        /* \"#utility.yul\":9067:9160   */\n      tag_145\n      jump\t// in\n    tag_247:\n        /* \"#utility.yul\":9185:9187   */\n      0x40\n        /* \"#utility.yul\":9180:9183   */\n      dup3\n        /* \"#utility.yul\":9176:9188   */\n      add\n        /* \"#utility.yul\":9169:9188   */\n      swap1\n      pop\n        /* \"#utility.yul\":8828:9194   */\n      swap2\n      swap1\n      pop\n      jump\t// out\n        /* \"#utility.yul\":9200:9619   */\n    tag_78:\n        /* \"#utility.yul\":9366:9370   */\n      0x00\n        /* \"#utility.yul\":9404:9406   */\n      0x20\n        /* \"#utility.yul\":9393:9402   */\n      dup3\n        /* \"#utility.yul\":9389:9407   */\n      add\n        /* \"#utility.yul\":9381:9407   */\n      swap1\n      pop\n        /* \"#utility.yul\":9453:9462   */\n      dup2\n        /* \"#utility.yul\":9447:9451   */\n      dup2\n        /* \"#utility.yul\":9443:9463   */\n      sub\n        /* \"#utility.yul\":9439:9440   */\n      0x00\n        /* \"#utility.yul\":9428:9437   */\n      dup4\n        /* \"#utility.yul\":9424:9441   */\n      add\n        /* \"#utility.yul\":9417:9464   */\n      mstore\n        /* \"#utility.yul\":9481:9612   */\n      tag_249\n        /* \"#utility.yul\":9607:9611   */\n      dup2\n        /* \"#utility.yul\":9481:9612   */\n      tag_146\n      jump\t// in\n    tag_249:\n        /* \"#utility.yul\":9473:9612   */\n      swap1\n      pop\n        /* \"#utility.yul\":9200:9619   */\n      swap2\n      swap1\n      pop\n      jump\t// out\n        /* \"#utility.yul\":9625:9851   */\n    tag_147:\n        /* \"#utility.yul\":9765:9799   */\n      0x426964206d757374206265206174206c65617374207468652072657365727665\n        /* \"#utility.yul\":9761:9762   */\n      0x00\n        /* \"#utility.yul\":9753:9759   */\n      dup3\n        /* \"#utility.yul\":9749:9763   */\n      add\n        /* \"#utility.yul\":9742:9800   */\n      mstore\n        /* \"#utility.yul\":9834:9843   */\n      0x2070726963652e00000000000000000000000000000000000000000000000000\n        /* \"#utility.yul\":9829:9831   */\n      0x20\n        /* \"#utility.yul\":9821:9827   */\n      dup3\n        /* \"#utility.yul\":9817:9832   */\n      add\n        /* \"#utility.yul\":9810:9844   */\n      mstore\n        /* \"#utility.yul\":9625:9851   */\n      pop\n      jump\t// out\n        /* \"#utility.yul\":9857:10223   */\n    tag_148:\n        /* \"#utility.yul\":9999:10002   */\n      0x00\n        /* \"#utility.yul\":10020:10087   */\n      tag_252\n        /* \"#utility.yul\":10084:10086   */\n      0x27\n        /* \"#utility.yul\":10079:10082   */\n      dup4\n        /* \"#utility.yul\":10020:10087   */\n      tag_137\n      jump\t// in\n    tag_252:\n        /* \"#utility.yul\":10013:10087   */\n      swap2\n      pop\n        /* \"#utility.yul\":10096:10189   */\n      tag_253\n        /* \"#utility.yul\":10185:10188   */\n      dup3\n        /* \"#utility.yul\":10096:10189   */\n      tag_147\n      jump\t// in\n    tag_253:\n        /* \"#utility.yul\":10214:10216   */\n      0x40\n        /* \"#utility.yul\":10209:10212   */\n      dup3\n        /* \"#utility.yul\":10205:10217   */\n      add\n        /* \"#utility.yul\":10198:10217   */\n      swap1\n      pop\n        /* \"#utility.yul\":9857:10223   */\n      swap2\n      swap1\n      pop\n      jump\t// out\n        /* \"#utility.yul\":10229:10648   */\n    tag_81:\n        /* \"#utility.yul\":10395:10399   */\n      0x00\n        /* \"#utility.yul\":10433:10435   */\n      0x20\n        /* \"#utility.yul\":10422:10431   */\n      dup3\n        /* \"#utility.yul\":10418:10436   */\n      add\n        /* \"#utility.yul\":10410:10436   */\n      swap1\n      pop\n        /* \"#utility.yul\":10482:10491   */\n      dup2\n        /* \"#utility.yul\":10476:10480   */\n      dup2\n        /* \"#utility.yul\":10472:10492   */\n      sub\n        /* \"#utility.yul\":10468:10469   */\n      0x00\n        /* \"#utility.yul\":10457:10466   */\n      dup4\n        /* \"#utility.yul\":10453:10470   */\n      add\n        /* \"#utility.yul\":10446:10493   */\n      mstore\n        /* \"#utility.yul\":10510:10641   */\n      tag_255\n        /* \"#utility.yul\":10636:10640   */\n      dup2\n        /* \"#utility.yul\":10510:10641   */\n      tag_148\n      jump\t// in\n    tag_255:\n        /* \"#utility.yul\":10502:10641   */\n      swap1\n      pop\n        /* \"#utility.yul\":10229:10648   */\n      swap2\n      swap1\n      pop\n      jump\t// out\n        /* \"#utility.yul\":10654:10834   */\n    tag_149:\n        /* \"#utility.yul\":10702:10779   */\n      0x4e487b7100000000000000000000000000000000000000000000000000000000\n        /* \"#utility.yul\":10699:10700   */\n      0x00\n        /* \"#utility.yul\":10692:10780   */\n      mstore\n        /* \"#utility.yul\":10799:10803   */\n      0x11\n        /* \"#utility.yul\":10796:10797   */\n      0x04\n        /* \"#utility.yul\":10789:10804   */\n      mstore\n        /* \"#utility.yul\":10823:10827   */\n      0x24\n        /* \"#utility.yul\":10820:10821   */\n      0x00\n        /* \"#utility.yul\":10813:10828   */\n      revert\n        /* \"#utility.yul\":10840:11250   */\n    tag_84:\n        /* \"#utility.yul\":10880:10887   */\n      0x00\n        /* \"#utility.yul\":10903:10923   */\n      tag_258\n        /* \"#utility.yul\":10921:10922   */\n      dup3\n        /* \"#utility.yul\":10903:10923   */\n      tag_129\n      jump\t// in\n    tag_258:\n        /* \"#utility.yul\":10898:10923   */\n      swap2\n      pop\n        /* \"#utility.yul\":10937:10957   */\n      tag_259\n        /* \"#utility.yul\":10955:10956   */\n      dup4\n        /* \"#utility.yul\":10937:10957   */\n      tag_129\n      jump\t// in\n    tag_259:\n        /* \"#utility.yul\":10932:10957   */\n      swap3\n      pop\n        /* \"#utility.yul\":10992:10993   */\n      dup3\n        /* \"#utility.yul\":10989:10990   */\n      dup3\n        /* \"#utility.yul\":10985:10994   */\n      mul\n        /* \"#utility.yul\":11014:11044   */\n      tag_260\n        /* \"#utility.yul\":11032:11043   */\n      dup2\n        /* \"#utility.yul\":11014:11044   */\n      tag_129\n      jump\t// in\n    tag_260:\n        /* \"#utility.yul\":11003:11044   */\n      swap2\n      pop\n        /* \"#utility.yul\":11193:11194   */\n      dup3\n        /* \"#utility.yul\":11184:11191   */\n      dup3\n        /* \"#utility.yul\":11180:11195   */\n      div\n        /* \"#utility.yul\":11177:11178   */\n      dup5\n        /* \"#utility.yul\":11174:11196   */\n      eq\n        /* \"#utility.yul\":11154:11155   */\n      dup4\n        /* \"#utility.yul\":11147:11156   */\n      iszero\n        /* \"#utility.yul\":11127:11210   */\n      or\n        /* \"#utility.yul\":11104:11243   */\n      tag_261\n      jumpi\n        /* \"#utility.yul\":11223:11241   */\n      tag_262\n      tag_149\n      jump\t// in\n    tag_262:\n        /* \"#utility.yul\":11104:11243   */\n    tag_261:\n        /* \"#utility.yul\":10888:11250   */\n      pop\n        /* \"#utility.yul\":10840:11250   */\n      swap3\n      swap2\n      pop\n      pop\n      jump\t// out\n        /* \"#utility.yul\":11256:11436   */\n    tag_150:\n        /* \"#utility.yul\":11304:11381   */\n      0x4e487b7100000000000000000000000000000000000000000000000000000000\n        /* \"#utility.yul\":11301:11302   */\n      0x00\n        /* \"#utility.yul\":11294:11382   */\n      mstore\n        /* \"#utility.yul\":11401:11405   */\n      0x12\n        /* \"#utility.yul\":11398:11399   */\n      0x04\n        /* \"#utility.yul\":11391:11406   */\n      mstore\n        /* \"#utility.yul\":11425:11429   */\n      0x24\n        /* \"#utility.yul\":11422:11423   */\n      0x00\n        /* \"#utility.yul\":11415:11430   */\n      revert\n        /* \"#utility.yul\":11442:11627   */\n    tag_86:\n        /* \"#utility.yul\":11482:11483   */\n      0x00\n        /* \"#utility.yul\":11499:11519   */\n      tag_265\n        /* \"#utility.yul\":11517:11518   */\n      dup3\n        /* \"#utility.yul\":11499:11519   */\n      tag_129\n      jump\t// in\n    tag_265:\n        /* \"#utility.yul\":11494:11519   */\n      swap2\n      pop\n        /* \"#utility.yul\":11533:11553   */\n      tag_266\n        /* \"#utility.yul\":11551:11552   */\n      dup4\n        /* \"#utility.yul\":11533:11553   */\n      tag_129\n      jump\t// in\n    tag_266:\n        /* \"#utility.yul\":11528:11553   */\n      swap3\n      pop\n        /* \"#utility.yul\":11572:11573   */\n      dup3\n        /* \"#utility.yul\":11562:11597   */\n      tag_267\n      jumpi\n        /* \"#utility.yul\":11577:11595   */\n      tag_268\n      tag_150\n      jump\t// in\n    tag_268:\n        /* \"#utility.yul\":11562:11597   */\n    tag_267:\n        /* \"#utility.yul\":11619:11620   */\n      dup3\n        /* \"#utility.yul\":11616:11617   */\n      dup3\n        /* \"#utility.yul\":11612:11621   */\n      div\n        /* \"#utility.yul\":11607:11621   */\n      swap1\n      pop\n        /* \"#utility.yul\":11442:11627   */\n      swap3\n      swap2\n      pop\n      pop\n      jump\t// out\n        /* \"#utility.yul\":11633:11824   */\n    tag_88:\n        /* \"#utility.yul\":11673:11676   */\n      0x00\n        /* \"#utility.yul\":11692:11712   */\n      tag_270\n        /* \"#utility.yul\":11710:11711   */\n      dup3\n        /* \"#utility.yul\":11692:11712   */\n      tag_129\n      jump\t// in\n    tag_270:\n        /* \"#utility.yul\":11687:11712   */\n      swap2\n      pop\n        /* \"#utility.yul\":11726:11746   */\n      tag_271\n        /* \"#utility.yul\":11744:11745   */\n      dup4\n        /* \"#utility.yul\":11726:11746   */\n      tag_129\n      jump\t// in\n    tag_271:\n        /* \"#utility.yul\":11721:11746   */\n      swap3\n      pop\n        /* \"#utility.yul\":11769:11770   */\n      dup3\n        /* \"#utility.yul\":11766:11767   */\n      dup3\n        /* \"#utility.yul\":11762:11771   */\n      add\n        /* \"#utility.yul\":11755:11771   */\n      swap1\n      pop\n        /* \"#utility.yul\":11790:11793   */\n      dup1\n        /* \"#utility.yul\":11787:11788   */\n      dup3\n        /* \"#utility.yul\":11784:11794   */\n      gt\n        /* \"#utility.yul\":11781:11817   */\n      iszero\n      tag_272\n      jumpi\n        /* \"#utility.yul\":11797:11815   */\n      tag_273\n      tag_149\n      jump\t// in\n    tag_273:\n        /* \"#utility.yul\":11781:11817   */\n    tag_272:\n        /* \"#utility.yul\":11633:11824   */\n      swap3\n      swap2\n      pop\n      pop\n      jump\t// out\n        /* \"#utility.yul\":11830:12073   */\n    tag_151:\n        /* \"#utility.yul\":11970:12004   */\n      0x426964206d757374206265206174206c65617374205825206869676865722074\n        /* \"#utility.yul\":11966:11967   */\n      0x00\n        /* \"#utility.yul\":11958:11964   */\n      dup3\n        /* \"#utility.yul\":11954:11968   */\n      add\n        /* \"#utility.yul\":11947:12005   */\n      mstore\n        /* \"#utility.yul\":12039:12065   */\n      0x68616e2063757272656e742068696768657374206269642e0000000000000000\n        /* \"#utility.yul\":12034:12036   */\n      0x20\n        /* \"#utility.yul\":12026:12032   */\n      dup3\n        /* \"#utility.yul\":12022:12037   */\n      add\n        /* \"#utility.yul\":12015:12066   */\n      mstore\n        /* \"#utility.yul\":11830:12073   */\n      pop\n      jump\t// out\n        /* \"#utility.yul\":12079:12445   */\n    tag_152:\n        /* \"#utility.yul\":12221:12224   */\n      0x00\n        /* \"#utility.yul\":12242:12309   */\n      tag_276\n        /* \"#utility.yul\":12306:12308   */\n      0x38\n        /* \"#utility.yul\":12301:12304   */\n      dup4\n        /* \"#utility.yul\":12242:12309   */\n      tag_137\n      jump\t// in\n    tag_276:\n        /* \"#utility.yul\":12235:12309   */\n      swap2\n      pop\n        /* \"#utility.yul\":12318:12411   */\n      tag_277\n        /* \"#utility.yul\":12407:12410   */\n      dup3\n        /* \"#utility.yul\":12318:12411   */\n      tag_151\n      jump\t// in\n    tag_277:\n        /* \"#utility.yul\":12436:12438   */\n      0x40\n        /* \"#utility.yul\":12431:12434   */\n      dup3\n        /* \"#utility.yul\":12427:12439   */\n      add\n        /* \"#utility.yul\":12420:12439   */\n      swap1\n      pop\n        /* \"#utility.yul\":12079:12445   */\n      swap2\n      swap1\n      pop\n      jump\t// out\n        /* \"#utility.yul\":12451:12870   */\n    tag_92:\n        /* \"#utility.yul\":12617:12621   */\n      0x00\n        /* \"#utility.yul\":12655:12657   */\n      0x20\n        /* \"#utility.yul\":12644:12653   */\n      dup3\n        /* \"#utility.yul\":12640:12658   */\n      add\n        /* \"#utility.yul\":12632:12658   */\n      swap1\n      pop\n        /* \"#utility.yul\":12704:12713   */\n      dup2\n        /* \"#utility.yul\":12698:12702   */\n      dup2\n        /* \"#utility.yul\":12694:12714   */\n      sub\n        /* \"#utility.yul\":12690:12691   */\n      0x00\n        /* \"#utility.yul\":12679:12688   */\n      dup4\n        /* \"#utility.yul\":12675:12692   */\n      add\n        /* \"#utility.yul\":12668:12715   */\n      mstore\n        /* \"#utility.yul\":12732:12863   */\n      tag_279\n        /* \"#utility.yul\":12858:12862   */\n      dup2\n        /* \"#utility.yul\":12732:12863   */\n      tag_152\n      jump\t// in\n    tag_279:\n        /* \"#utility.yul\":12724:12863   */\n      swap1\n      pop\n        /* \"#utility.yul\":12451:12870   */\n      swap2\n      swap1\n      pop\n      jump\t// out\n        /* \"#utility.yul\":12876:13052   */\n    tag_153:\n        /* \"#utility.yul\":13016:13044   */\n      0x41756374696f6e20686173206e6f7420656e646564207965742e000000000000\n        /* \"#utility.yul\":13012:13013   */\n      0x00\n        /* \"#utility.yul\":13004:13010   */\n      dup3\n        /* \"#utility.yul\":13000:13014   */\n      add\n        /* \"#utility.yul\":12993:13045   */\n      mstore\n        /* \"#utility.yul\":12876:13052   */\n      pop\n      jump\t// out\n        /* \"#utility.yul\":13058:13424   */\n    tag_154:\n        /* \"#utility.yul\":13200:13203   */\n      0x00\n        /* \"#utility.yul\":13221:13288   */\n      tag_282\n        /* \"#utility.yul\":13285:13287   */\n      0x1a\n        /* \"#utility.yul\":13280:13283   */\n      dup4\n        /* \"#utility.yul\":13221:13288   */\n      tag_137\n      jump\t// in\n    tag_282:\n        /* \"#utility.yul\":13214:13288   */\n      swap2\n      pop\n        /* \"#utility.yul\":13297:13390   */\n      tag_283\n        /* \"#utility.yul\":13386:13389   */\n      dup3\n        /* \"#utility.yul\":13297:13390   */\n      tag_153\n      jump\t// in\n    tag_283:\n        /* \"#utility.yul\":13415:13417   */\n      0x20\n        /* \"#utility.yul\":13410:13413   */\n      dup3\n        /* \"#utility.yul\":13406:13418   */\n      add\n        /* \"#utility.yul\":13399:13418   */\n      swap1\n      pop\n        /* \"#utility.yul\":13058:13424   */\n      swap2\n      swap1\n      pop\n      jump\t// out\n        /* \"#utility.yul\":13430:13849   */\n    tag_99:\n        /* \"#utility.yul\":13596:13600   */\n      0x00\n        /* \"#utility.yul\":13634:13636   */\n      0x20\n        /* \"#utility.yul\":13623:13632   */\n      dup3\n        /* \"#utility.yul\":13619:13637   */\n      add\n        /* \"#utility.yul\":13611:13637   */\n      swap1\n      pop\n        /* \"#utility.yul\":13683:13692   */\n      dup2\n        /* \"#utility.yul\":13677:13681   */\n      dup2\n        /* \"#utility.yul\":13673:13693   */\n      sub\n        /* \"#utility.yul\":13669:13670   */\n      0x00\n        /* \"#utility.yul\":13658:13667   */\n      dup4\n        /* \"#utility.yul\":13654:13671   */\n      add\n        /* \"#utility.yul\":13647:13694   */\n      mstore\n        /* \"#utility.yul\":13711:13842   */\n      tag_285\n        /* \"#utility.yul\":13837:13841   */\n      dup2\n        /* \"#utility.yul\":13711:13842   */\n      tag_154\n      jump\t// in\n    tag_285:\n        /* \"#utility.yul\":13703:13842   */\n      swap1\n      pop\n        /* \"#utility.yul\":13430:13849   */\n      swap2\n      swap1\n      pop\n      jump\t// out\n        /* \"#utility.yul\":13855:14035   */\n    tag_155:\n        /* \"#utility.yul\":13903:13980   */\n      0x4e487b7100000000000000000000000000000000000000000000000000000000\n        /* \"#utility.yul\":13900:13901   */\n      0x00\n        /* \"#utility.yul\":13893:13981   */\n      mstore\n        /* \"#utility.yul\":14000:14004   */\n      0x22\n        /* \"#utility.yul\":13997:13998   */\n      0x04\n        /* \"#utility.yul\":13990:14005   */\n      mstore\n        /* \"#utility.yul\":14024:14028   */\n      0x24\n        /* \"#utility.yul\":14021:14022   */\n      0x00\n        /* \"#utility.yul\":14014:14029   */\n      revert\n        /* \"#utility.yul\":14041:14361   */\n    tag_103:\n        /* \"#utility.yul\":14085:14091   */\n      0x00\n        /* \"#utility.yul\":14122:14123   */\n      0x02\n        /* \"#utility.yul\":14116:14120   */\n      dup3\n        /* \"#utility.yul\":14112:14124   */\n      div\n        /* \"#utility.yul\":14102:14124   */\n      swap1\n      pop\n        /* \"#utility.yul\":14169:14170   */\n      0x01\n        /* \"#utility.yul\":14163:14167   */\n      dup3\n        /* \"#utility.yul\":14159:14171   */\n      and\n        /* \"#utility.yul\":14190:14208   */\n      dup1\n        /* \"#utility.yul\":14180:14261   */\n      tag_288\n      jumpi\n        /* \"#utility.yul\":14246:14250   */\n      0x7f\n        /* \"#utility.yul\":14238:14244   */\n      dup3\n        /* \"#utility.yul\":14234:14251   */\n      and\n        /* \"#utility.yul\":14224:14251   */\n      swap2\n      pop\n        /* \"#utility.yul\":14180:14261   */\n    tag_288:\n        /* \"#utility.yul\":14308:14310   */\n      0x20\n        /* \"#utility.yul\":14300:14306   */\n      dup3\n        /* \"#utility.yul\":14297:14311   */\n      lt\n        /* \"#utility.yul\":14277:14295   */\n      dup2\n        /* \"#utility.yul\":14274:14312   */\n      sub\n        /* \"#utility.yul\":14271:14355   */\n      tag_289\n      jumpi\n        /* \"#utility.yul\":14327:14345   */\n      tag_290\n      tag_155\n      jump\t// in\n    tag_290:\n        /* \"#utility.yul\":14271:14355   */\n    tag_289:\n        /* \"#utility.yul\":14092:14361   */\n      pop\n        /* \"#utility.yul\":14041:14361   */\n      swap2\n      swap1\n      pop\n      jump\t// out\n        /* \"#utility.yul\":14367:14542   */\n    tag_156:\n        /* \"#utility.yul\":14507:14534   */\n      0x41756374696f6e206861736e277420656e646564207965742e00000000000000\n        /* \"#utility.yul\":14503:14504   */\n      0x00\n        /* \"#utility.yul\":14495:14501   */\n      dup3\n        /* \"#utility.yul\":14491:14505   */\n      add\n        /* \"#utility.yul\":14484:14535   */\n      mstore\n        /* \"#utility.yul\":14367:14542   */\n      pop\n      jump\t// out\n        /* \"#utility.yul\":14548:14914   */\n    tag_157:\n        /* \"#utility.yul\":14690:14693   */\n      0x00\n        /* \"#utility.yul\":14711:14778   */\n      tag_293\n        /* \"#utility.yul\":14775:14777   */\n      0x19\n        /* \"#utility.yul\":14770:14773   */\n      dup4\n        /* \"#utility.yul\":14711:14778   */\n      tag_137\n      jump\t// in\n    tag_293:\n        /* \"#utility.yul\":14704:14778   */\n      swap2\n      pop\n        /* \"#utility.yul\":14787:14880   */\n      tag_294\n        /* \"#utility.yul\":14876:14879   */\n      dup3\n        /* \"#utility.yul\":14787:14880   */\n      tag_156\n      jump\t// in\n    tag_294:\n        /* \"#utility.yul\":14905:14907   */\n      0x20\n        /* \"#utility.yul\":14900:14903   */\n      dup3\n        /* \"#utility.yul\":14896:14908   */\n      add\n        /* \"#utility.yul\":14889:14908   */\n      swap1\n      pop\n        /* \"#utility.yul\":14548:14914   */\n      swap2\n      swap1\n      pop\n      jump\t// out\n        /* \"#utility.yul\":14920:15339   */\n    tag_111:\n        /* \"#utility.yul\":15086:15090   */\n      0x00\n        /* \"#utility.yul\":15124:15126   */\n      0x20\n        /* \"#utility.yul\":15113:15122   */\n      dup3\n        /* \"#utility.yul\":15109:15127   */\n      add\n        /* \"#utility.yul\":15101:15127   */\n      swap1\n      pop\n        /* \"#utility.yul\":15173:15182   */\n      dup2\n        /* \"#utility.yul\":15167:15171   */\n      dup2\n        /* \"#utility.yul\":15163:15183   */\n      sub\n        /* \"#utility.yul\":15159:15160   */\n      0x00\n        /* \"#utility.yul\":15148:15157   */\n      dup4\n        /* \"#utility.yul\":15144:15161   */\n      add\n        /* \"#utility.yul\":15137:15184   */\n      mstore\n        /* \"#utility.yul\":15201:15332   */\n      tag_296\n        /* \"#utility.yul\":15327:15331   */\n      dup2\n        /* \"#utility.yul\":15201:15332   */\n      tag_157\n      jump\t// in\n    tag_296:\n        /* \"#utility.yul\":15193:15332   */\n      swap1\n      pop\n        /* \"#utility.yul\":14920:15339   */\n      swap2\n      swap1\n      pop\n      jump\t// out\n        /* \"#utility.yul\":15345:15522   */\n    tag_158:\n        /* \"#utility.yul\":15485:15514   */\n      0x41756374696f6e20656e6420616c72656164792063616c6c65642e0000000000\n        /* \"#utility.yul\":15481:15482   */\n      0x00\n        /* \"#utility.yul\":15473:15479   */\n      dup3\n        /* \"#utility.yul\":15469:15483   */\n      add\n        /* \"#utility.yul\":15462:15515   */\n      mstore\n        /* \"#utility.yul\":15345:15522   */\n      pop\n      jump\t// out\n        /* \"#utility.yul\":15528:15894   */\n    tag_159:\n        /* \"#utility.yul\":15670:15673   */\n      0x00\n        /* \"#utility.yul\":15691:15758   */\n      tag_299\n        /* \"#utility.yul\":15755:15757   */\n      0x1b\n        /* \"#utility.yul\":15750:15753   */\n      dup4\n        /* \"#utility.yul\":15691:15758   */\n      tag_137\n      jump\t// in\n    tag_299:\n        /* \"#utility.yul\":15684:15758   */\n      swap2\n      pop\n        /* \"#utility.yul\":15767:15860   */\n      tag_300\n        /* \"#utility.yul\":15856:15859   */\n      dup3\n        /* \"#utility.yul\":15767:15860   */\n      tag_158\n      jump\t// in\n    tag_300:\n        /* \"#utility.yul\":15885:15887   */\n      0x20\n        /* \"#utility.yul\":15880:15883   */\n      dup3\n        /* \"#utility.yul\":15876:15888   */\n      add\n        /* \"#utility.yul\":15869:15888   */\n      swap1\n      pop\n        /* \"#utility.yul\":15528:15894   */\n      swap2\n      swap1\n      pop\n      jump\t// out\n        /* \"#utility.yul\":15900:16319   */\n    tag_114:\n        /* \"#utility.yul\":16066:16070   */\n      0x00\n        /* \"#utility.yul\":16104:16106   */\n      0x20\n        /* \"#utility.yul\":16093:16102   */\n      dup3\n        /* \"#utility.yul\":16089:16107   */\n      add\n        /* \"#utility.yul\":16081:16107   */\n      swap1\n      pop\n        /* \"#utility.yul\":16153:16162   */\n      dup2\n        /* \"#utility.yul\":16147:16151   */\n      dup2\n        /* \"#utility.yul\":16143:16163   */\n      sub\n        /* \"#utility.yul\":16139:16140   */\n      0x00\n        /* \"#utility.yul\":16128:16137   */\n      dup4\n        /* \"#utility.yul\":16124:16141   */\n      add\n        /* \"#utility.yul\":16117:16164   */\n      mstore\n        /* \"#utility.yul\":16181:16312   */\n      tag_302\n        /* \"#utility.yul\":16307:16311   */\n      dup2\n        /* \"#utility.yul\":16181:16312   */\n      tag_159\n      jump\t// in\n    tag_302:\n        /* \"#utility.yul\":16173:16312   */\n      swap1\n      pop\n        /* \"#utility.yul\":15900:16319   */\n      swap2\n      swap1\n      pop\n      jump\t// out\n\n    auxdata: 0xa264697066735822122024a8185c279980cdb3b0c90fab4a7a0af14d978c2d965d69d14e0eff61d73a3464736f6c634300081e0033\n}\n",
				"bytecode": {
					"linkReferences": {},
					"object": "608060405234801561000f575f5ffd5b5060405161168138038061168183398181016040528101906100319190610221565b335f5f6101000a81548173ffffffffffffffffffffffffffffffffffffffff021916908373ffffffffffffffffffffffffffffffffffffffff160217905550826001908161007f9190610494565b50814261008c9190610590565b600281905550806006819055505050506105c3565b5f604051905090565b5f5ffd5b5f5ffd5b5f5ffd5b5f5ffd5b5f601f19601f8301169050919050565b7f4e487b71000000000000000000000000000000000000000000000000000000005f52604160045260245ffd5b610100826100ba565b810181811067ffffffffffffffff8211171561011f5761011e6100ca565b5b80604052505050565b5f6101316100a1565b905061013d82826100f7565b919050565b5f67ffffffffffffffff82111561015c5761015b6100ca565b5b610165826100ba565b9050602081019050919050565b8281835e5f83830152505050565b5f61019261018d84610142565b610128565b9050828152602081018484840111156101ae576101ad6100b6565b5b6101b9848285610172565b509392505050565b5f82601f8301126101d5576101d46100b2565b5b81516101e5848260208601610180565b91505092915050565b5f819050919050565b610200816101ee565b811461020a575f5ffd5b50565b5f8151905061021b816101f7565b92915050565b5f5f5f60608486031215610238576102376100aa565b5b5f84015167ffffffffffffffff811115610255576102546100ae565b5b610261868287016101c1565b93505060206102728682870161020d565b92505060406102838682870161020d565b9150509250925092565b5f81519050919050565b7f4e487b71000000000000000000000000000000000000000000000000000000005f52602260045260245ffd5b5f60028204905060018216806102db57607f821691505b6020821081036102ee576102ed610297565b5b50919050565b5f819050815f5260205f209050919050565b5f6020601f8301049050919050565b5f82821b905092915050565b5f600883026103507fffffffffffffffffffffffffffffffffffffffffffffffffffffffffffffffff82610315565b61035a8683610315565b95508019841693508086168417925050509392505050565b5f819050919050565b5f61039561039061038b846101ee565b610372565b6101ee565b9050919050565b5f819050919050565b6103ae8361037b565b6103c26103ba8261039c565b848454610321565b825550505050565b5f5f905090565b6103d96103ca565b6103e48184846103a5565b505050565b5b81811015610407576103fc5f826103d1565b6001810190506103ea565b5050565b601f82111561044c5761041d816102f4565b61042684610306565b81016020851015610435578190505b61044961044185610306565b8301826103e9565b50505b505050565b5f82821c905092915050565b5f61046c5f1984600802610451565b1980831691505092915050565b5f610484838361045d565b9150826002028217905092915050565b61049d8261028d565b67ffffffffffffffff8111156104b6576104b56100ca565b5b6104c082546102c4565b6104cb82828561040b565b5f60209050601f8311600181146104fc575f84156104ea578287015190505b6104f48582610479565b86555061055b565b601f19841661050a866102f4565b5f5b828110156105315784890151825560018201915060208501945060208101905061050c565b8683101561054e578489015161054a601f89168261045d565b8355505b6001600288020188555050505b505050505050565b7f4e487b71000000000000000000000000000000000000000000000000000000005f52601160045260245ffd5b5f61059a826101ee565b91506105a5836101ee565b92508282019050808211156105bd576105bc610563565b5b92915050565b6110b1806105d05f395ff3fe608060405234801561000f575f5ffd5b50600436106100cd575f3560e01c80638da5cb5b1161008a578063cff29dfd11610064578063cff29dfd146101f0578063db2e1eed14610220578063f2a4a82e1461023e578063fe67a54b1461025c576100cd565b80638da5cb5b146101955780638e7ea5b2146101b3578063bc996819146101d2576100cd565b806312fa6feb146100d15780633a79d2e5146100ef578063454a2ab31461010d5780634b449cba1461012957806362ea82db146101475780636c0a169514610177575b5f5ffd5b6100d9610266565b6040516100e6919061086a565b60405180910390f35b6100f7610278565b604051610104919061096a565b60405180910390f35b610127600480360381019061012291906109c1565b610303565b005b61013161060e565b60405161013e91906109fb565b60405180910390f35b610161600480360381019061015c9190610a3e565b610614565b60405161016e91906109fb565b60405180910390f35b61017f610629565b60405161018c91906109fb565b60405180910390f35b61019d61062d565b6040516101aa9190610a78565b60405180910390f35b6101bb610651565b6040516101c9929190610a91565b60405180910390f35b6101da6106ce565b6040516101e791906109fb565b60405180910390f35b61020a600480360381019061020591906109c1565b6106d3565b6040516102179190610a78565b60405180910390f35b61022861070e565b60405161023591906109fb565b60405180910390f35b610246610714565b6040516102539190610b28565b60405180910390f35b6102646107a0565b005b60055f9054906101000a900460ff1681565b606060088054806020026020016040519081016040528092919081815260200182805480156102f957602002820191905f5260205f20905b815f9054906101000a900473ffffffffffffffffffffffffffffffffffffffff1673ffffffffffffffffffffffffffffffffffffffff16815260200190600101908083116102b0575b5050505050905090565b6002544210610347576040517f08c379a000000000000000000000000000000000000000000000000000000000815260040161033e90610b92565b60405180910390fd5b5f8111610389576040517f08c379a000000000000000000000000000000000000000000000000000000000815260040161038090610c20565b60405180910390fd5b60075f3373ffffffffffffffffffffffffffffffffffffffff1673ffffffffffffffffffffffffffffffffffffffff1681526020019081526020015f20548111610408576040517f08c379a00000000000000000000000000000000000000000000000000000000081526004016103ff90610cae565b60405180910390fd5b60065481101561044d576040517f08c379a000000000000000000000000000000000000000000000000000000000815260040161044490610d3c565b60405180910390fd5b5f60045411156104d2575f5f6064603260045461046a9190610d87565b6104749190610df5565b6004546104819190610e25565b61048b9190610e25565b9050808210156104d0576040517f08c379a00000000000000000000000000000000000000000000000000000000081526004016104c790610ec8565b60405180910390fd5b505b5f60075f3373ffffffffffffffffffffffffffffffffffffffff1673ffffffffffffffffffffffffffffffffffffffff1681526020019081526020015f20540361057757600833908060018154018082558091505060019003905f5260205f20015f9091909190916101000a81548173ffffffffffffffffffffffffffffffffffffffff021916908373ffffffffffffffffffffffffffffffffffffffff1602179055505b8060075f3373ffffffffffffffffffffffffffffffffffffffff1673ffffffffffffffffffffffffffffffffffffffff1681526020019081526020015f208190555060045481111561060b57806004819055503360035f6101000a81548173ffffffffffffffffffffffffffffffffffffffff021916908373ffffffffffffffffffffffffffffffffffffffff1602179055505b50565b60025481565b6007602052805f5260405f205f915090505481565b5f81565b5f5f9054906101000a900473ffffffffffffffffffffffffffffffffffffffff1681565b5f5f60055f9054906101000a900460ff166106a1576040517f08c379a000000000000000000000000000000000000000000000000000000000815260040161069890610f30565b60405180910390fd5b60035f9054906101000a900473ffffffffffffffffffffffffffffffffffffffff16600454915091509091565b603281565b600881815481106106e2575f80fd5b905f5260205f20015f915054906101000a900473ffffffffffffffffffffffffffffffffffffffff1681565b60065481565b6001805461072190610f7b565b80601f016020809104026020016040519081016040528092919081815260200182805461074d90610f7b565b80156107985780601f1061076f57610100808354040283529160200191610798565b820191905f5260205f20905b81548152906001019060200180831161077b57829003601f168201915b505050505081565b6002544210156107e5576040517f08c379a00000000000000000000000000000000000000000000000000000000081526004016107dc90610ff5565b60405180910390fd5b60055f9054906101000a900460ff1615610834576040517f08c379a000000000000000000000000000000000000000000000000000000000815260040161082b9061105d565b60405180910390fd5b600160055f6101000a81548160ff021916908315150217905550565b5f8115159050919050565b61086481610850565b82525050565b5f60208201905061087d5f83018461085b565b92915050565b5f81519050919050565b5f82825260208201905092915050565b5f819050602082019050919050565b5f73ffffffffffffffffffffffffffffffffffffffff82169050919050565b5f6108d5826108ac565b9050919050565b6108e5816108cb565b82525050565b5f6108f683836108dc565b60208301905092915050565b5f602082019050919050565b5f61091882610883565b610922818561088d565b935061092d8361089d565b805f5b8381101561095d57815161094488826108eb565b975061094f83610902565b925050600181019050610930565b5085935050505092915050565b5f6020820190508181035f830152610982818461090e565b905092915050565b5f5ffd5b5f819050919050565b6109a08161098e565b81146109aa575f5ffd5b50565b5f813590506109bb81610997565b92915050565b5f602082840312156109d6576109d561098a565b5b5f6109e3848285016109ad565b91505092915050565b6109f58161098e565b82525050565b5f602082019050610a0e5f8301846109ec565b92915050565b610a1d816108cb565b8114610a27575f5ffd5b50565b5f81359050610a3881610a14565b92915050565b5f60208284031215610a5357610a5261098a565b5b5f610a6084828501610a2a565b91505092915050565b610a72816108cb565b82525050565b5f602082019050610a8b5f830184610a69565b92915050565b5f604082019050610aa45f830185610a69565b610ab160208301846109ec565b9392505050565b5f81519050919050565b5f82825260208201905092915050565b8281835e5f83830152505050565b5f601f19601f8301169050919050565b5f610afa82610ab8565b610b048185610ac2565b9350610b14818560208601610ad2565b610b1d81610ae0565b840191505092915050565b5f6020820190508181035f830152610b408184610af0565b905092915050565b7f41756374696f6e2068617320616c726561647920656e6465642e0000000000005f82015250565b5f610b7c601a83610ac2565b9150610b8782610b48565b602082019050919050565b5f6020820190508181035f830152610ba981610b70565b9050919050565b7f42696420616d6f756e74206d7573742062652067726561746572207468616e205f8201527f7a65726f2e000000000000000000000000000000000000000000000000000000602082015250565b5f610c0a602583610ac2565b9150610c1582610bb0565b604082019050919050565b5f6020820190508181035f830152610c3781610bfe565b9050919050565b7f4e657720626964206d75737420626520686967686572207468616e20796f75725f8201527f2063757272656e74206269642e00000000000000000000000000000000000000602082015250565b5f610c98602d83610ac2565b9150610ca382610c3e565b604082019050919050565b5f6020820190508181035f830152610cc581610c8c565b9050919050565b7f426964206d757374206265206174206c656173742074686520726573657276655f8201527f2070726963652e00000000000000000000000000000000000000000000000000602082015250565b5f610d26602783610ac2565b9150610d3182610ccc565b604082019050919050565b5f6020820190508181035f830152610d5381610d1a565b9050919050565b7f4e487b71000000000000000000000000000000000000000000000000000000005f52601160045260245ffd5b5f610d918261098e565b9150610d9c8361098e565b9250828202610daa8161098e565b91508282048414831517610dc157610dc0610d5a565b5b5092915050565b7f4e487b71000000000000000000000000000000000000000000000000000000005f52601260045260245ffd5b5f610dff8261098e565b9150610e0a8361098e565b925082610e1a57610e19610dc8565b5b828204905092915050565b5f610e2f8261098e565b9150610e3a8361098e565b9250828201905080821115610e5257610e51610d5a565b5b92915050565b7f426964206d757374206265206174206c656173742058252068696768657220745f8201527f68616e2063757272656e742068696768657374206269642e0000000000000000602082015250565b5f610eb2603883610ac2565b9150610ebd82610e58565b604082019050919050565b5f6020820190508181035f830152610edf81610ea6565b9050919050565b7f41756374696f6e20686173206e6f7420656e646564207965742e0000000000005f82015250565b5f610f1a601a83610ac2565b9150610f2582610ee6565b602082019050919050565b5f6020820190508181035f830152610f4781610f0e565b9050919050565b7f4e487b71000000000000000000000000000000000000000000000000000000005f52602260045260245ffd5b5f6002820490506001821680610f9257607f821691505b602082108103610fa557610fa4610f4e565b5b50919050565b7f41756374696f6e206861736e277420656e646564207965742e000000000000005f82015250565b5f610fdf601983610ac2565b9150610fea82610fab565b602082019050919050565b5f6020820190508181035f83015261100c81610fd3565b9050919050565b7f41756374696f6e20656e6420616c72656164792063616c6c65642e00000000005f82015250565b5f611047601b83610ac2565b915061105282611013565b602082019050919050565b5f6020820190508181035f8301526110748161103b565b905091905056fea264697066735822122024a8185c279980cdb3b0c90fab4a7a0af14d978c2d965d69d14e0eff61d73a3464736f6c634300081e0033",
					"opcodes": "PUSH1 0x80 PUSH1 0x40 MSTORE CALLVALUE DUP1 ISZERO PUSH2 0xF JUMPI PUSH0 PUSH0 REVERT JUMPDEST POP PUSH1 0x40 MLOAD PUSH2 0x1681 CODESIZE SUB DUP1 PUSH2 0x1681 DUP4 CODECOPY DUP2 DUP2 ADD PUSH1 0x40 MSTORE DUP2 ADD SWAP1 PUSH2 0x31 SWAP2 SWAP1 PUSH2 0x221 JUMP JUMPDEST CALLER PUSH0 PUSH0 PUSH2 0x100 EXP DUP2 SLOAD DUP2 PUSH20 0xFFFFFFFFFFFFFFFFFFFFFFFFFFFFFFFFFFFFFFFF MUL NOT AND SWAP1 DUP4 PUSH20 0xFFFFFFFFFFFFFFFFFFFFFFFFFFFFFFFFFFFFFFFF AND MUL OR SWAP1 SSTORE POP DUP3 PUSH1 0x1 SWAP1 DUP2 PUSH2 0x7F SWAP2 SWAP1 PUSH2 0x494 JUMP JUMPDEST POP DUP2 TIMESTAMP PUSH2 0x8C SWAP2 SWAP1 PUSH2 0x590 JUMP JUMPDEST PUSH1 0x2 DUP2 SWAP1 SSTORE POP DUP1 PUSH1 0x6 DUP2 SWAP1 SSTORE POP POP POP POP PUSH2 0x5C3 JUMP JUMPDEST PUSH0 PUSH1 0x40 MLOAD SWAP1 POP SWAP1 JUMP JUMPDEST PUSH0 PUSH0 REVERT JUMPDEST PUSH0 PUSH0 REVERT JUMPDEST PUSH0 PUSH0 REVERT JUMPDEST PUSH0 PUSH0 REVERT JUMPDEST PUSH0 PUSH1 0x1F NOT PUSH1 0x1F DUP4 ADD AND SWAP1 POP SWAP2 SWAP1 POP JUMP JUMPDEST PUSH32 0x4E487B7100000000000000000000000000000000000000000000000000000000 PUSH0 MSTORE PUSH1 0x41 PUSH1 0x4 MSTORE PUSH1 0x24 PUSH0 REVERT JUMPDEST PUSH2 0x100 DUP3 PUSH2 0xBA JUMP JUMPDEST DUP2 ADD DUP2 DUP2 LT PUSH8 0xFFFFFFFFFFFFFFFF DUP3 GT OR ISZERO PUSH2 0x11F JUMPI PUSH2 0x11E PUSH2 0xCA JUMP JUMPDEST JUMPDEST DUP1 PUSH1 0x40 MSTORE POP POP POP JUMP JUMPDEST PUSH0 PUSH2 0x131 PUSH2 0xA1 JUMP JUMPDEST SWAP1 POP PUSH2 0x13D DUP3 DUP3 PUSH2 0xF7 JUMP JUMPDEST SWAP2 SWAP1 POP JUMP JUMPDEST PUSH0 PUSH8 0xFFFFFFFFFFFFFFFF DUP3 GT ISZERO PUSH2 0x15C JUMPI PUSH2 0x15B PUSH2 0xCA JUMP JUMPDEST JUMPDEST PUSH2 0x165 DUP3 PUSH2 0xBA JUMP JUMPDEST SWAP1 POP PUSH1 0x20 DUP2 ADD SWAP1 POP SWAP2 SWAP1 POP JUMP JUMPDEST DUP3 DUP2 DUP4 MCOPY PUSH0 DUP4 DUP4 ADD MSTORE POP POP POP JUMP JUMPDEST PUSH0 PUSH2 0x192 PUSH2 0x18D DUP5 PUSH2 0x142 JUMP JUMPDEST PUSH2 0x128 JUMP JUMPDEST SWAP1 POP DUP3 DUP2 MSTORE PUSH1 0x20 DUP2 ADD DUP5 DUP5 DUP5 ADD GT ISZERO PUSH2 0x1AE JUMPI PUSH2 0x1AD PUSH2 0xB6 JUMP JUMPDEST JUMPDEST PUSH2 0x1B9 DUP5 DUP3 DUP6 PUSH2 0x172 JUMP JUMPDEST POP SWAP4 SWAP3 POP POP POP JUMP JUMPDEST PUSH0 DUP3 PUSH1 0x1F DUP4 ADD SLT PUSH2 0x1D5 JUMPI PUSH2 0x1D4 PUSH2 0xB2 JUMP JUMPDEST JUMPDEST DUP2 MLOAD PUSH2 0x1E5 DUP5 DUP3 PUSH1 0x20 DUP7 ADD PUSH2 0x180 JUMP JUMPDEST SWAP2 POP POP SWAP3 SWAP2 POP POP JUMP JUMPDEST PUSH0 DUP2 SWAP1 POP SWAP2 SWAP1 POP JUMP JUMPDEST PUSH2 0x200 DUP2 PUSH2 0x1EE JUMP JUMPDEST DUP2 EQ PUSH2 0x20A JUMPI PUSH0 PUSH0 REVERT JUMPDEST POP JUMP JUMPDEST PUSH0 DUP2 MLOAD SWAP1 POP PUSH2 0x21B DUP2 PUSH2 0x1F7 JUMP JUMPDEST SWAP3 SWAP2 POP POP JUMP JUMPDEST PUSH0 PUSH0 PUSH0 PUSH1 0x60 DUP5 DUP7 SUB SLT ISZERO PUSH2 0x238 JUMPI PUSH2 0x237 PUSH2 0xAA JUMP JUMPDEST JUMPDEST PUSH0 DUP5 ADD MLOAD PUSH8 0xFFFFFFFFFFFFFFFF DUP2 GT ISZERO PUSH2 0x255 JUMPI PUSH2 0x254 PUSH2 0xAE JUMP JUMPDEST JUMPDEST PUSH2 0x261 DUP7 DUP3 DUP8 ADD PUSH2 0x1C1 JUMP JUMPDEST SWAP4 POP POP PUSH1 0x20 PUSH2 0x272 DUP7 DUP3 DUP8 ADD PUSH2 0x20D JUMP JUMPDEST SWAP3 POP POP PUSH1 0x40 PUSH2 0x283 DUP7 DUP3 DUP8 ADD PUSH2 0x20D JUMP JUMPDEST SWAP2 POP POP SWAP3 POP SWAP3 POP SWAP3 JUMP JUMPDEST PUSH0 DUP2 MLOAD SWAP1 POP SWAP2 SWAP1 POP JUMP JUMPDEST PUSH32 0x4E487B7100000000000000000000000000000000000000000000000000000000 PUSH0 MSTORE PUSH1 0x22 PUSH1 0x4 MSTORE PUSH1 0x24 PUSH0 REVERT JUMPDEST PUSH0 PUSH1 0x2 DUP3 DIV SWAP1 POP PUSH1 0x1 DUP3 AND DUP1 PUSH2 0x2DB JUMPI PUSH1 0x7F DUP3 AND SWAP2 POP JUMPDEST PUSH1 0x20 DUP3 LT DUP2 SUB PUSH2 0x2EE JUMPI PUSH2 0x2ED PUSH2 0x297 JUMP JUMPDEST JUMPDEST POP SWAP2 SWAP1 POP JUMP JUMPDEST PUSH0 DUP2 SWAP1 POP DUP2 PUSH0 MSTORE PUSH1 0x20 PUSH0 KECCAK256 SWAP1 POP SWAP2 SWAP1 POP JUMP JUMPDEST PUSH0 PUSH1 0x20 PUSH1 0x1F DUP4 ADD DIV SWAP1 POP SWAP2 SWAP1 POP JUMP JUMPDEST PUSH0 DUP3 DUP3 SHL SWAP1 POP SWAP3 SWAP2 POP POP JUMP JUMPDEST PUSH0 PUSH1 0x8 DUP4 MUL PUSH2 0x350 PUSH32 0xFFFFFFFFFFFFFFFFFFFFFFFFFFFFFFFFFFFFFFFFFFFFFFFFFFFFFFFFFFFFFFFF DUP3 PUSH2 0x315 JUMP JUMPDEST PUSH2 0x35A DUP7 DUP4 PUSH2 0x315 JUMP JUMPDEST SWAP6 POP DUP1 NOT DUP5 AND SWAP4 POP DUP1 DUP7 AND DUP5 OR SWAP3 POP POP POP SWAP4 SWAP3 POP POP POP JUMP JUMPDEST PUSH0 DUP2 SWAP1 POP SWAP2 SWAP1 POP JUMP JUMPDEST PUSH0 PUSH2 0x395 PUSH2 0x390 PUSH2 0x38B DUP5 PUSH2 0x1EE JUMP JUMPDEST PUSH2 0x372 JUMP JUMPDEST PUSH2 0x1EE JUMP JUMPDEST SWAP1 POP SWAP2 SWAP1 POP JUMP JUMPDEST PUSH0 DUP2 SWAP1 POP SWAP2 SWAP1 POP JUMP JUMPDEST PUSH2 0x3AE DUP4 PUSH2 0x37B JUMP JUMPDEST PUSH2 0x3C2 PUSH2 0x3BA DUP3 PUSH2 0x39C JUMP JUMPDEST DUP5 DUP5 SLOAD PUSH2 0x321 JUMP JUMPDEST DUP3 SSTORE POP POP POP POP JUMP JUMPDEST PUSH0 PUSH0 SWAP1 POP SWAP1 JUMP JUMPDEST PUSH2 0x3D9 PUSH2 0x3CA JUMP JUMPDEST PUSH2 0x3E4 DUP2 DUP5 DUP5 PUSH2 0x3A5 JUMP JUMPDEST POP POP POP JUMP JUMPDEST JUMPDEST DUP2 DUP2 LT ISZERO PUSH2 0x407 JUMPI PUSH2 0x3FC PUSH0 DUP3 PUSH2 0x3D1 JUMP JUMPDEST PUSH1 0x1 DUP2 ADD SWAP1 POP PUSH2 0x3EA JUMP JUMPDEST POP POP JUMP JUMPDEST PUSH1 0x1F DUP3 GT ISZERO PUSH2 0x44C JUMPI PUSH2 0x41D DUP2 PUSH2 0x2F4 JUMP JUMPDEST PUSH2 0x426 DUP5 PUSH2 0x306 JUMP JUMPDEST DUP2 ADD PUSH1 0x20 DUP6 LT ISZERO PUSH2 0x435 JUMPI DUP2 SWAP1 POP JUMPDEST PUSH2 0x449 PUSH2 0x441 DUP6 PUSH2 0x306 JUMP JUMPDEST DUP4 ADD DUP3 PUSH2 0x3E9 JUMP JUMPDEST POP POP JUMPDEST POP POP POP JUMP JUMPDEST PUSH0 DUP3 DUP3 SHR SWAP1 POP SWAP3 SWAP2 POP POP JUMP JUMPDEST PUSH0 PUSH2 0x46C PUSH0 NOT DUP5 PUSH1 0x8 MUL PUSH2 0x451 JUMP JUMPDEST NOT DUP1 DUP4 AND SWAP2 POP POP SWAP3 SWAP2 POP POP JUMP JUMPDEST PUSH0 PUSH2 0x484 DUP4 DUP4 PUSH2 0x45D JUMP JUMPDEST SWAP2 POP DUP3 PUSH1 0x2 MUL DUP3 OR SWAP1 POP SWAP3 SWAP2 POP POP JUMP JUMPDEST PUSH2 0x49D DUP3 PUSH2 0x28D JUMP JUMPDEST PUSH8 0xFFFFFFFFFFFFFFFF DUP2 GT ISZERO PUSH2 0x4B6 JUMPI PUSH2 0x4B5 PUSH2 0xCA JUMP JUMPDEST JUMPDEST PUSH2 0x4C0 DUP3 SLOAD PUSH2 0x2C4 JUMP JUMPDEST PUSH2 0x4CB DUP3 DUP3 DUP6 PUSH2 0x40B JUMP JUMPDEST PUSH0 PUSH1 0x20 SWAP1 POP PUSH1 0x1F DUP4 GT PUSH1 0x1 DUP2 EQ PUSH2 0x4FC JUMPI PUSH0 DUP5 ISZERO PUSH2 0x4EA JUMPI DUP3 DUP8 ADD MLOAD SWAP1 POP JUMPDEST PUSH2 0x4F4 DUP6 DUP3 PUSH2 0x479 JUMP JUMPDEST DUP7 SSTORE POP PUSH2 0x55B JUMP JUMPDEST PUSH1 0x1F NOT DUP5 AND PUSH2 0x50A DUP7 PUSH2 0x2F4 JUMP JUMPDEST PUSH0 JUMPDEST DUP3 DUP2 LT ISZERO PUSH2 0x531 JUMPI DUP5 DUP10 ADD MLOAD DUP3 SSTORE PUSH1 0x1 DUP3 ADD SWAP2 POP PUSH1 0x20 DUP6 ADD SWAP5 POP PUSH1 0x20 DUP2 ADD SWAP1 POP PUSH2 0x50C JUMP JUMPDEST DUP7 DUP4 LT ISZERO PUSH2 0x54E JUMPI DUP5 DUP10 ADD MLOAD PUSH2 0x54A PUSH1 0x1F DUP10 AND DUP3 PUSH2 0x45D JUMP JUMPDEST DUP4 SSTORE POP JUMPDEST PUSH1 0x1 PUSH1 0x2 DUP9 MUL ADD DUP9 SSTORE POP POP POP JUMPDEST POP POP POP POP POP POP JUMP JUMPDEST PUSH32 0x4E487B7100000000000000000000000000000000000000000000000000000000 PUSH0 MSTORE PUSH1 0x11 PUSH1 0x4 MSTORE PUSH1 0x24 PUSH0 REVERT JUMPDEST PUSH0 PUSH2 0x59A DUP3 PUSH2 0x1EE JUMP JUMPDEST SWAP2 POP PUSH2 0x5A5 DUP4 PUSH2 0x1EE JUMP JUMPDEST SWAP3 POP DUP3 DUP3 ADD SWAP1 POP DUP1 DUP3 GT ISZERO PUSH2 0x5BD JUMPI PUSH2 0x5BC PUSH2 0x563 JUMP JUMPDEST JUMPDEST SWAP3 SWAP2 POP POP JUMP JUMPDEST PUSH2 0x10B1 DUP1 PUSH2 0x5D0 PUSH0 CODECOPY PUSH0 RETURN INVALID PUSH1 0x80 PUSH1 0x40 MSTORE CALLVALUE DUP1 ISZERO PUSH2 0xF JUMPI PUSH0 PUSH0 REVERT JUMPDEST POP PUSH1 0x4 CALLDATASIZE LT PUSH2 0xCD JUMPI PUSH0 CALLDATALOAD PUSH1 0xE0 SHR DUP1 PUSH4 0x8DA5CB5B GT PUSH2 0x8A JUMPI DUP1 PUSH4 0xCFF29DFD GT PUSH2 0x64 JUMPI DUP1 PUSH4 0xCFF29DFD EQ PUSH2 0x1F0 JUMPI DUP1 PUSH4 0xDB2E1EED EQ PUSH2 0x220 JUMPI DUP1 PUSH4 0xF2A4A82E EQ PUSH2 0x23E JUMPI DUP1 PUSH4 0xFE67A54B EQ PUSH2 0x25C JUMPI PUSH2 0xCD JUMP JUMPDEST DUP1 PUSH4 0x8DA5CB5B EQ PUSH2 0x195 JUMPI DUP1 PUSH4 0x8E7EA5B2 EQ PUSH2 0x1B3 JUMPI DUP1 PUSH4 0xBC996819 EQ PUSH2 0x1D2 JUMPI PUSH2 0xCD JUMP JUMPDEST DUP1 PUSH4 0x12FA6FEB EQ PUSH2 0xD1 JUMPI DUP1 PUSH4 0x3A79D2E5 EQ PUSH2 0xEF JUMPI DUP1 PUSH4 0x454A2AB3 EQ PUSH2 0x10D JUMPI DUP1 PUSH4 0x4B449CBA EQ PUSH2 0x129 JUMPI DUP1 PUSH4 0x62EA82DB EQ PUSH2 0x147 JUMPI DUP1 PUSH4 0x6C0A1695 EQ PUSH2 0x177 JUMPI JUMPDEST PUSH0 PUSH0 REVERT JUMPDEST PUSH2 0xD9 PUSH2 0x266 JUMP JUMPDEST PUSH1 0x40 MLOAD PUSH2 0xE6 SWAP2 SWAP1 PUSH2 0x86A JUMP JUMPDEST PUSH1 0x40 MLOAD DUP1 SWAP2 SUB SWAP1 RETURN JUMPDEST PUSH2 0xF7 PUSH2 0x278 JUMP JUMPDEST PUSH1 0x40 MLOAD PUSH2 0x104 SWAP2 SWAP1 PUSH2 0x96A JUMP JUMPDEST PUSH1 0x40 MLOAD DUP1 SWAP2 SUB SWAP1 RETURN JUMPDEST PUSH2 0x127 PUSH1 0x4 DUP1 CALLDATASIZE SUB DUP2 ADD SWAP1 PUSH2 0x122 SWAP2 SWAP1 PUSH2 0x9C1 JUMP JUMPDEST PUSH2 0x303 JUMP JUMPDEST STOP JUMPDEST PUSH2 0x131 PUSH2 0x60E JUMP JUMPDEST PUSH1 0x40 MLOAD PUSH2 0x13E SWAP2 SWAP1 PUSH2 0x9FB JUMP JUMPDEST PUSH1 0x40 MLOAD DUP1 SWAP2 SUB SWAP1 RETURN JUMPDEST PUSH2 0x161 PUSH1 0x4 DUP1 CALLDATASIZE SUB DUP2 ADD SWAP1 PUSH2 0x15C SWAP2 SWAP1 PUSH2 0xA3E JUMP JUMPDEST PUSH2 0x614 JUMP JUMPDEST PUSH1 0x40 MLOAD PUSH2 0x16E SWAP2 SWAP1 PUSH2 0x9FB JUMP JUMPDEST PUSH1 0x40 MLOAD DUP1 SWAP2 SUB SWAP1 RETURN JUMPDEST PUSH2 0x17F PUSH2 0x629 JUMP JUMPDEST PUSH1 0x40 MLOAD PUSH2 0x18C SWAP2 SWAP1 PUSH2 0x9FB JUMP JUMPDEST PUSH1 0x40 MLOAD DUP1 SWAP2 SUB SWAP1 RETURN JUMPDEST PUSH2 0x19D PUSH2 0x62D JUMP JUMPDEST PUSH1 0x40 MLOAD PUSH2 0x1AA SWAP2 SWAP1 PUSH2 0xA78 JUMP JUMPDEST PUSH1 0x40 MLOAD DUP1 SWAP2 SUB SWAP1 RETURN JUMPDEST PUSH2 0x1BB PUSH2 0x651 JUMP JUMPDEST PUSH1 0x40 MLOAD PUSH2 0x1C9 SWAP3 SWAP2 SWAP1 PUSH2 0xA91 JUMP JUMPDEST PUSH1 0x40 MLOAD DUP1 SWAP2 SUB SWAP1 RETURN JUMPDEST PUSH2 0x1DA PUSH2 0x6CE JUMP JUMPDEST PUSH1 0x40 MLOAD PUSH2 0x1E7 SWAP2 SWAP1 PUSH2 0x9FB JUMP JUMPDEST PUSH1 0x40 MLOAD DUP1 SWAP2 SUB SWAP1 RETURN JUMPDEST PUSH2 0x20A PUSH1 0x4 DUP1 CALLDATASIZE SUB DUP2 ADD SWAP1 PUSH2 0x205 SWAP2 SWAP1 PUSH2 0x9C1 JUMP JUMPDEST PUSH2 0x6D3 JUMP JUMPDEST PUSH1 0x40 MLOAD PUSH2 0x217 SWAP2 SWAP1 PUSH2 0xA78 JUMP JUMPDEST PUSH1 0x40 MLOAD DUP1 SWAP2 SUB SWAP1 RETURN JUMPDEST PUSH2 0x228 PUSH2 0x70E JUMP JUMPDEST PUSH1 0x40 MLOAD PUSH2 0x235 SWAP2 SWAP1 PUSH2 0x9FB JUMP JUMPDEST PUSH1 0x40 MLOAD DUP1 SWAP2 SUB SWAP1 RETURN JUMPDEST PUSH2 0x246 PUSH2 0x714 JUMP JUMPDEST PUSH1 0x40 MLOAD PUSH2 0x253 SWAP2 SWAP1 PUSH2 0xB28 JUMP JUMPDEST PUSH1 0x40 MLOAD DUP1 SWAP2 SUB SWAP1 RETURN JUMPDEST PUSH2 0x264 PUSH2 0x7A0 JUMP JUMPDEST STOP JUMPDEST PUSH1 0x5 PUSH0 SWAP1 SLOAD SWAP1 PUSH2 0x100 EXP SWAP1 DIV PUSH1 0xFF AND DUP2 JUMP JUMPDEST PUSH1 0x60 PUSH1 0x8 DUP1 SLOAD DUP1 PUSH1 0x20 MUL PUSH1 0x20 ADD PUSH1 0x40 MLOAD SWAP1 DUP2 ADD PUSH1 0x40 MSTORE DUP1 SWAP3 SWAP2 SWAP1 DUP2 DUP2 MSTORE PUSH1 0x20 ADD DUP3 DUP1 SLOAD DUP1 ISZERO PUSH2 0x2F9 JUMPI PUSH1 0x20 MUL DUP3 ADD SWAP2 SWAP1 PUSH0 MSTORE PUSH1 0x20 PUSH0 KECCAK256 SWAP1 JUMPDEST DUP2 PUSH0 SWAP1 SLOAD SWAP1 PUSH2 0x100 EXP SWAP1 DIV PUSH20 0xFFFFFFFFFFFFFFFFFFFFFFFFFFFFFFFFFFFFFFFF AND PUSH20 0xFFFFFFFFFFFFFFFFFFFFFFFFFFFFFFFFFFFFFFFF AND DUP2 MSTORE PUSH1 0x20 ADD SWAP1 PUSH1 0x1 ADD SWAP1 DUP1 DUP4 GT PUSH2 0x2B0 JUMPI JUMPDEST POP POP POP POP POP SWAP1 POP SWAP1 JUMP JUMPDEST PUSH1 0x2 SLOAD TIMESTAMP LT PUSH2 0x347 JUMPI PUSH1 0x40 MLOAD PUSH32 0x8C379A000000000000000000000000000000000000000000000000000000000 DUP2 MSTORE PUSH1 0x4 ADD PUSH2 0x33E SWAP1 PUSH2 0xB92 JUMP JUMPDEST PUSH1 0x40 MLOAD DUP1 SWAP2 SUB SWAP1 REVERT JUMPDEST PUSH0 DUP2 GT PUSH2 0x389 JUMPI PUSH1 0x40 MLOAD PUSH32 0x8C379A000000000000000000000000000000000000000000000000000000000 DUP2 MSTORE PUSH1 0x4 ADD PUSH2 0x380 SWAP1 PUSH2 0xC20 JUMP JUMPDEST PUSH1 0x40 MLOAD DUP1 SWAP2 SUB SWAP1 REVERT JUMPDEST PUSH1 0x7 PUSH0 CALLER PUSH20 0xFFFFFFFFFFFFFFFFFFFFFFFFFFFFFFFFFFFFFFFF AND PUSH20 0xFFFFFFFFFFFFFFFFFFFFFFFFFFFFFFFFFFFFFFFF AND DUP2 MSTORE PUSH1 0x20 ADD SWAP1 DUP2 MSTORE PUSH1 0x20 ADD PUSH0 KECCAK256 SLOAD DUP2 GT PUSH2 0x408 JUMPI PUSH1 0x40 MLOAD PUSH32 0x8C379A000000000000000000000000000000000000000000000000000000000 DUP2 MSTORE PUSH1 0x4 ADD PUSH2 0x3FF SWAP1 PUSH2 0xCAE JUMP JUMPDEST PUSH1 0x40 MLOAD DUP1 SWAP2 SUB SWAP1 REVERT JUMPDEST PUSH1 0x6 SLOAD DUP2 LT ISZERO PUSH2 0x44D JUMPI PUSH1 0x40 MLOAD PUSH32 0x8C379A000000000000000000000000000000000000000000000000000000000 DUP2 MSTORE PUSH1 0x4 ADD PUSH2 0x444 SWAP1 PUSH2 0xD3C JUMP JUMPDEST PUSH1 0x40 MLOAD DUP1 SWAP2 SUB SWAP1 REVERT JUMPDEST PUSH0 PUSH1 0x4 SLOAD GT ISZERO PUSH2 0x4D2 JUMPI PUSH0 PUSH0 PUSH1 0x64 PUSH1 0x32 PUSH1 0x4 SLOAD PUSH2 0x46A SWAP2 SWAP1 PUSH2 0xD87 JUMP JUMPDEST PUSH2 0x474 SWAP2 SWAP1 PUSH2 0xDF5 JUMP JUMPDEST PUSH1 0x4 SLOAD PUSH2 0x481 SWAP2 SWAP1 PUSH2 0xE25 JUMP JUMPDEST PUSH2 0x48B SWAP2 SWAP1 PUSH2 0xE25 JUMP JUMPDEST SWAP1 POP DUP1 DUP3 LT ISZERO PUSH2 0x4D0 JUMPI PUSH1 0x40 MLOAD PUSH32 0x8C379A000000000000000000000000000000000000000000000000000000000 DUP2 MSTORE PUSH1 0x4 ADD PUSH2 0x4C7 SWAP1 PUSH2 0xEC8 JUMP JUMPDEST PUSH1 0x40 MLOAD DUP1 SWAP2 SUB SWAP1 REVERT JUMPDEST POP JUMPDEST PUSH0 PUSH1 0x7 PUSH0 CALLER PUSH20 0xFFFFFFFFFFFFFFFFFFFFFFFFFFFFFFFFFFFFFFFF AND PUSH20 0xFFFFFFFFFFFFFFFFFFFFFFFFFFFFFFFFFFFFFFFF AND DUP2 MSTORE PUSH1 0x20 ADD SWAP1 DUP2 MSTORE PUSH1 0x20 ADD PUSH0 KECCAK256 SLOAD SUB PUSH2 0x577 JUMPI PUSH1 0x8 CALLER SWAP1 DUP1 PUSH1 0x1 DUP2 SLOAD ADD DUP1 DUP3 SSTORE DUP1 SWAP2 POP POP PUSH1 0x1 SWAP1 SUB SWAP1 PUSH0 MSTORE PUSH1 0x20 PUSH0 KECCAK256 ADD PUSH0 SWAP1 SWAP2 SWAP1 SWAP2 SWAP1 SWAP2 PUSH2 0x100 EXP DUP2 SLOAD DUP2 PUSH20 0xFFFFFFFFFFFFFFFFFFFFFFFFFFFFFFFFFFFFFFFF MUL NOT AND SWAP1 DUP4 PUSH20 0xFFFFFFFFFFFFFFFFFFFFFFFFFFFFFFFFFFFFFFFF AND MUL OR SWAP1 SSTORE POP JUMPDEST DUP1 PUSH1 0x7 PUSH0 CALLER PUSH20 0xFFFFFFFFFFFFFFFFFFFFFFFFFFFFFFFFFFFFFFFF AND PUSH20 0xFFFFFFFFFFFFFFFFFFFFFFFFFFFFFFFFFFFFFFFF AND DUP2 MSTORE PUSH1 0x20 ADD SWAP1 DUP2 MSTORE PUSH1 0x20 ADD PUSH0 KECCAK256 DUP2 SWAP1 SSTORE POP PUSH1 0x4 SLOAD DUP2 GT ISZERO PUSH2 0x60B JUMPI DUP1 PUSH1 0x4 DUP2 SWAP1 SSTORE POP CALLER PUSH1 0x3 PUSH0 PUSH2 0x100 EXP DUP2 SLOAD DUP2 PUSH20 0xFFFFFFFFFFFFFFFFFFFFFFFFFFFFFFFFFFFFFFFF MUL NOT AND SWAP1 DUP4 PUSH20 0xFFFFFFFFFFFFFFFFFFFFFFFFFFFFFFFFFFFFFFFF AND MUL OR SWAP1 SSTORE POP JUMPDEST POP JUMP JUMPDEST PUSH1 0x2 SLOAD DUP2 JUMP JUMPDEST PUSH1 0x7 PUSH1 0x20 MSTORE DUP1 PUSH0 MSTORE PUSH1 0x40 PUSH0 KECCAK256 PUSH0 SWAP2 POP SWAP1 POP SLOAD DUP2 JUMP JUMPDEST PUSH0 DUP2 JUMP JUMPDEST PUSH0 PUSH0 SWAP1 SLOAD SWAP1 PUSH2 0x100 EXP SWAP1 DIV PUSH20 0xFFFFFFFFFFFFFFFFFFFFFFFFFFFFFFFFFFFFFFFF AND DUP2 JUMP JUMPDEST PUSH0 PUSH0 PUSH1 0x5 PUSH0 SWAP1 SLOAD SWAP1 PUSH2 0x100 EXP SWAP1 DIV PUSH1 0xFF AND PUSH2 0x6A1 JUMPI PUSH1 0x40 MLOAD PUSH32 0x8C379A000000000000000000000000000000000000000000000000000000000 DUP2 MSTORE PUSH1 0x4 ADD PUSH2 0x698 SWAP1 PUSH2 0xF30 JUMP JUMPDEST PUSH1 0x40 MLOAD DUP1 SWAP2 SUB SWAP1 REVERT JUMPDEST PUSH1 0x3 PUSH0 SWAP1 SLOAD SWAP1 PUSH2 0x100 EXP SWAP1 DIV PUSH20 0xFFFFFFFFFFFFFFFFFFFFFFFFFFFFFFFFFFFFFFFF AND PUSH1 0x4 SLOAD SWAP2 POP SWAP2 POP SWAP1 SWAP2 JUMP JUMPDEST PUSH1 0x32 DUP2 JUMP JUMPDEST PUSH1 0x8 DUP2 DUP2 SLOAD DUP2 LT PUSH2 0x6E2 JUMPI PUSH0 DUP1 REVERT JUMPDEST SWAP1 PUSH0 MSTORE PUSH1 0x20 PUSH0 KECCAK256 ADD PUSH0 SWAP2 POP SLOAD SWAP1 PUSH2 0x100 EXP SWAP1 DIV PUSH20 0xFFFFFFFFFFFFFFFFFFFFFFFFFFFFFFFFFFFFFFFF AND DUP2 JUMP JUMPDEST PUSH1 0x6 SLOAD DUP2 JUMP JUMPDEST PUSH1 0x1 DUP1 SLOAD PUSH2 0x721 SWAP1 PUSH2 0xF7B JUMP JUMPDEST DUP1 PUSH1 0x1F ADD PUSH1 0x20 DUP1 SWAP2 DIV MUL PUSH1 0x20 ADD PUSH1 0x40 MLOAD SWAP1 DUP2 ADD PUSH1 0x40 MSTORE DUP1 SWAP3 SWAP2 SWAP1 DUP2 DUP2 MSTORE PUSH1 0x20 ADD DUP3 DUP1 SLOAD PUSH2 0x74D SWAP1 PUSH2 0xF7B JUMP JUMPDEST DUP1 ISZERO PUSH2 0x798 JUMPI DUP1 PUSH1 0x1F LT PUSH2 0x76F JUMPI PUSH2 0x100 DUP1 DUP4 SLOAD DIV MUL DUP4 MSTORE SWAP2 PUSH1 0x20 ADD SWAP2 PUSH2 0x798 JUMP JUMPDEST DUP3 ADD SWAP2 SWAP1 PUSH0 MSTORE PUSH1 0x20 PUSH0 KECCAK256 SWAP1 JUMPDEST DUP2 SLOAD DUP2 MSTORE SWAP1 PUSH1 0x1 ADD SWAP1 PUSH1 0x20 ADD DUP1 DUP4 GT PUSH2 0x77B JUMPI DUP3 SWAP1 SUB PUSH1 0x1F AND DUP3 ADD SWAP2 JUMPDEST POP POP POP POP POP DUP2 JUMP JUMPDEST PUSH1 0x2 SLOAD TIMESTAMP LT ISZERO PUSH2 0x7E5 JUMPI PUSH1 0x40 MLOAD PUSH32 0x8C379A000000000000000000000000000000000000000000000000000000000 DUP2 MSTORE PUSH1 0x4 ADD PUSH2 0x7DC SWAP1 PUSH2 0xFF5 JUMP JUMPDEST PUSH1 0x40 MLOAD DUP1 SWAP2 SUB SWAP1 REVERT JUMPDEST PUSH1 0x5 PUSH0 SWAP1 SLOAD SWAP1 PUSH2 0x100 EXP SWAP1 DIV PUSH1 0xFF AND ISZERO PUSH2 0x834 JUMPI PUSH1 0x40 MLOAD PUSH32 0x8C379A000000000000000000000000000000000000000000000000000000000 DUP2 MSTORE PUSH1 0x4 ADD PUSH2 0x82B SWAP1 PUSH2 0x105D JUMP JUMPDEST PUSH1 0x40 MLOAD DUP1 SWAP2 SUB SWAP1 REVERT JUMPDEST PUSH1 0x1 PUSH1 0x5 PUSH0 PUSH2 0x100 EXP DUP2 SLOAD DUP2 PUSH1 0xFF MUL NOT AND SWAP1 DUP4 ISZERO ISZERO MUL OR SWAP1 SSTORE POP JUMP JUMPDEST PUSH0 DUP2 ISZERO ISZERO SWAP1 POP SWAP2 SWAP1 POP JUMP JUMPDEST PUSH2 0x864 DUP2 PUSH2 0x850 JUMP JUMPDEST DUP3 MSTORE POP POP JUMP JUMPDEST PUSH0 PUSH1 0x20 DUP3 ADD SWAP1 POP PUSH2 0x87D PUSH0 DUP4 ADD DUP5 PUSH2 0x85B JUMP JUMPDEST SWAP3 SWAP2 POP POP JUMP JUMPDEST PUSH0 DUP2 MLOAD SWAP1 POP SWAP2 SWAP1 POP JUMP JUMPDEST PUSH0 DUP3 DUP3 MSTORE PUSH1 0x20 DUP3 ADD SWAP1 POP SWAP3 SWAP2 POP POP JUMP JUMPDEST PUSH0 DUP2 SWAP1 POP PUSH1 0x20 DUP3 ADD SWAP1 POP SWAP2 SWAP1 POP JUMP JUMPDEST PUSH0 PUSH20 0xFFFFFFFFFFFFFFFFFFFFFFFFFFFFFFFFFFFFFFFF DUP3 AND SWAP1 POP SWAP2 SWAP1 POP JUMP JUMPDEST PUSH0 PUSH2 0x8D5 DUP3 PUSH2 0x8AC JUMP JUMPDEST SWAP1 POP SWAP2 SWAP1 POP JUMP JUMPDEST PUSH2 0x8E5 DUP2 PUSH2 0x8CB JUMP JUMPDEST DUP3 MSTORE POP POP JUMP JUMPDEST PUSH0 PUSH2 0x8F6 DUP4 DUP4 PUSH2 0x8DC JUMP JUMPDEST PUSH1 0x20 DUP4 ADD SWAP1 POP SWAP3 SWAP2 POP POP JUMP JUMPDEST PUSH0 PUSH1 0x20 DUP3 ADD SWAP1 POP SWAP2 SWAP1 POP JUMP JUMPDEST PUSH0 PUSH2 0x918 DUP3 PUSH2 0x883 JUMP JUMPDEST PUSH2 0x922 DUP2 DUP6 PUSH2 0x88D JUMP JUMPDEST SWAP4 POP PUSH2 0x92D DUP4 PUSH2 0x89D JUMP JUMPDEST DUP1 PUSH0 JUMPDEST DUP4 DUP2 LT ISZERO PUSH2 0x95D JUMPI DUP2 MLOAD PUSH2 0x944 DUP9 DUP3 PUSH2 0x8EB JUMP JUMPDEST SWAP8 POP PUSH2 0x94F DUP4 PUSH2 0x902 JUMP JUMPDEST SWAP3 POP POP PUSH1 0x1 DUP2 ADD SWAP1 POP PUSH2 0x930 JUMP JUMPDEST POP DUP6 SWAP4 POP POP POP POP SWAP3 SWAP2 POP POP JUMP JUMPDEST PUSH0 PUSH1 0x20 DUP3 ADD SWAP1 POP DUP2 DUP2 SUB PUSH0 DUP4 ADD MSTORE PUSH2 0x982 DUP2 DUP5 PUSH2 0x90E JUMP JUMPDEST SWAP1 POP SWAP3 SWAP2 POP POP JUMP JUMPDEST PUSH0 PUSH0 REVERT JUMPDEST PUSH0 DUP2 SWAP1 POP SWAP2 SWAP1 POP JUMP JUMPDEST PUSH2 0x9A0 DUP2 PUSH2 0x98E JUMP JUMPDEST DUP2 EQ PUSH2 0x9AA JUMPI PUSH0 PUSH0 REVERT JUMPDEST POP JUMP JUMPDEST PUSH0 DUP2 CALLDATALOAD SWAP1 POP PUSH2 0x9BB DUP2 PUSH2 0x997 JUMP JUMPDEST SWAP3 SWAP2 POP POP JUMP JUMPDEST PUSH0 PUSH1 0x20 DUP3 DUP5 SUB SLT ISZERO PUSH2 0x9D6 JUMPI PUSH2 0x9D5 PUSH2 0x98A JUMP JUMPDEST JUMPDEST PUSH0 PUSH2 0x9E3 DUP5 DUP3 DUP6 ADD PUSH2 0x9AD JUMP JUMPDEST SWAP2 POP POP SWAP3 SWAP2 POP POP JUMP JUMPDEST PUSH2 0x9F5 DUP2 PUSH2 0x98E JUMP JUMPDEST DUP3 MSTORE POP POP JUMP JUMPDEST PUSH0 PUSH1 0x20 DUP3 ADD SWAP1 POP PUSH2 0xA0E PUSH0 DUP4 ADD DUP5 PUSH2 0x9EC JUMP JUMPDEST SWAP3 SWAP2 POP POP JUMP JUMPDEST PUSH2 0xA1D DUP2 PUSH2 0x8CB JUMP JUMPDEST DUP2 EQ PUSH2 0xA27 JUMPI PUSH0 PUSH0 REVERT JUMPDEST POP JUMP JUMPDEST PUSH0 DUP2 CALLDATALOAD SWAP1 POP PUSH2 0xA38 DUP2 PUSH2 0xA14 JUMP JUMPDEST SWAP3 SWAP2 POP POP JUMP JUMPDEST PUSH0 PUSH1 0x20 DUP3 DUP5 SUB SLT ISZERO PUSH2 0xA53 JUMPI PUSH2 0xA52 PUSH2 0x98A JUMP JUMPDEST JUMPDEST PUSH0 PUSH2 0xA60 DUP5 DUP3 DUP6 ADD PUSH2 0xA2A JUMP JUMPDEST SWAP2 POP POP SWAP3 SWAP2 POP POP JUMP JUMPDEST PUSH2 0xA72 DUP2 PUSH2 0x8CB JUMP JUMPDEST DUP3 MSTORE POP POP JUMP JUMPDEST PUSH0 PUSH1 0x20 DUP3 ADD SWAP1 POP PUSH2 0xA8B PUSH0 DUP4 ADD DUP5 PUSH2 0xA69 JUMP JUMPDEST SWAP3 SWAP2 POP POP JUMP JUMPDEST PUSH0 PUSH1 0x40 DUP3 ADD SWAP1 POP PUSH2 0xAA4 PUSH0 DUP4 ADD DUP6 PUSH2 0xA69 JUMP JUMPDEST PUSH2 0xAB1 PUSH1 0x20 DUP4 ADD DUP5 PUSH2 0x9EC JUMP JUMPDEST SWAP4 SWAP3 POP POP POP JUMP JUMPDEST PUSH0 DUP2 MLOAD SWAP1 POP SWAP2 SWAP1 POP JUMP JUMPDEST PUSH0 DUP3 DUP3 MSTORE PUSH1 0x20 DUP3 ADD SWAP1 POP SWAP3 SWAP2 POP POP JUMP JUMPDEST DUP3 DUP2 DUP4 MCOPY PUSH0 DUP4 DUP4 ADD MSTORE POP POP POP JUMP JUMPDEST PUSH0 PUSH1 0x1F NOT PUSH1 0x1F DUP4 ADD AND SWAP1 POP SWAP2 SWAP1 POP JUMP JUMPDEST PUSH0 PUSH2 0xAFA DUP3 PUSH2 0xAB8 JUMP JUMPDEST PUSH2 0xB04 DUP2 DUP6 PUSH2 0xAC2 JUMP JUMPDEST SWAP4 POP PUSH2 0xB14 DUP2 DUP6 PUSH1 0x20 DUP7 ADD PUSH2 0xAD2 JUMP JUMPDEST PUSH2 0xB1D DUP2 PUSH2 0xAE0 JUMP JUMPDEST DUP5 ADD SWAP2 POP POP SWAP3 SWAP2 POP POP JUMP JUMPDEST PUSH0 PUSH1 0x20 DUP3 ADD SWAP1 POP DUP2 DUP2 SUB PUSH0 DUP4 ADD MSTORE PUSH2 0xB40 DUP2 DUP5 PUSH2 0xAF0 JUMP JUMPDEST SWAP1 POP SWAP3 SWAP2 POP POP JUMP JUMPDEST PUSH32 0x41756374696F6E2068617320616C726561647920656E6465642E000000000000 PUSH0 DUP3 ADD MSTORE POP JUMP JUMPDEST PUSH0 PUSH2 0xB7C PUSH1 0x1A DUP4 PUSH2 0xAC2 JUMP JUMPDEST SWAP2 POP PUSH2 0xB87 DUP3 PUSH2 0xB48 JUMP JUMPDEST PUSH1 0x20 DUP3 ADD SWAP1 POP SWAP2 SWAP1 POP JUMP JUMPDEST PUSH0 PUSH1 0x20 DUP3 ADD SWAP1 POP DUP2 DUP2 SUB PUSH0 DUP4 ADD MSTORE PUSH2 0xBA9 DUP2 PUSH2 0xB70 JUMP JUMPDEST SWAP1 POP SWAP2 SWAP1 POP JUMP JUMPDEST PUSH32 0x42696420616D6F756E74206D7573742062652067726561746572207468616E20 PUSH0 DUP3 ADD MSTORE PUSH32 0x7A65726F2E000000000000000000000000000000000000000000000000000000 PUSH1 0x20 DUP3 ADD MSTORE POP JUMP JUMPDEST PUSH0 PUSH2 0xC0A PUSH1 0x25 DUP4 PUSH2 0xAC2 JUMP JUMPDEST SWAP2 POP PUSH2 0xC15 DUP3 PUSH2 0xBB0 JUMP JUMPDEST PUSH1 0x40 DUP3 ADD SWAP1 POP SWAP2 SWAP1 POP JUMP JUMPDEST PUSH0 PUSH1 0x20 DUP3 ADD SWAP1 POP DUP2 DUP2 SUB PUSH0 DUP4 ADD MSTORE PUSH2 0xC37 DUP2 PUSH2 0xBFE JUMP JUMPDEST SWAP1 POP SWAP2 SWAP1 POP JUMP JUMPDEST PUSH32 0x4E657720626964206D75737420626520686967686572207468616E20796F7572 PUSH0 DUP3 ADD MSTORE PUSH32 0x2063757272656E74206269642E00000000000000000000000000000000000000 PUSH1 0x20 DUP3 ADD MSTORE POP JUMP JUMPDEST PUSH0 PUSH2 0xC98 PUSH1 0x2D DUP4 PUSH2 0xAC2 JUMP JUMPDEST SWAP2 POP PUSH2 0xCA3 DUP3 PUSH2 0xC3E JUMP JUMPDEST PUSH1 0x40 DUP3 ADD SWAP1 POP SWAP2 SWAP1 POP JUMP JUMPDEST PUSH0 PUSH1 0x20 DUP3 ADD SWAP1 POP DUP2 DUP2 SUB PUSH0 DUP4 ADD MSTORE PUSH2 0xCC5 DUP2 PUSH2 0xC8C JUMP JUMPDEST SWAP1 POP SWAP2 SWAP1 POP JUMP JUMPDEST PUSH32 0x426964206D757374206265206174206C65617374207468652072657365727665 PUSH0 DUP3 ADD MSTORE PUSH32 0x2070726963652E00000000000000000000000000000000000000000000000000 PUSH1 0x20 DUP3 ADD MSTORE POP JUMP JUMPDEST PUSH0 PUSH2 0xD26 PUSH1 0x27 DUP4 PUSH2 0xAC2 JUMP JUMPDEST SWAP2 POP PUSH2 0xD31 DUP3 PUSH2 0xCCC JUMP JUMPDEST PUSH1 0x40 DUP3 ADD SWAP1 POP SWAP2 SWAP1 POP JUMP JUMPDEST PUSH0 PUSH1 0x20 DUP3 ADD SWAP1 POP DUP2 DUP2 SUB PUSH0 DUP4 ADD MSTORE PUSH2 0xD53 DUP2 PUSH2 0xD1A JUMP JUMPDEST SWAP1 POP SWAP2 SWAP1 POP JUMP JUMPDEST PUSH32 0x4E487B7100000000000000000000000000000000000000000000000000000000 PUSH0 MSTORE PUSH1 0x11 PUSH1 0x4 MSTORE PUSH1 0x24 PUSH0 REVERT JUMPDEST PUSH0 PUSH2 0xD91 DUP3 PUSH2 0x98E JUMP JUMPDEST SWAP2 POP PUSH2 0xD9C DUP4 PUSH2 0x98E JUMP JUMPDEST SWAP3 POP DUP3 DUP3 MUL PUSH2 0xDAA DUP2 PUSH2 0x98E JUMP JUMPDEST SWAP2 POP DUP3 DUP3 DIV DUP5 EQ DUP4 ISZERO OR PUSH2 0xDC1 JUMPI PUSH2 0xDC0 PUSH2 0xD5A JUMP JUMPDEST JUMPDEST POP SWAP3 SWAP2 POP POP JUMP JUMPDEST PUSH32 0x4E487B7100000000000000000000000000000000000000000000000000000000 PUSH0 MSTORE PUSH1 0x12 PUSH1 0x4 MSTORE PUSH1 0x24 PUSH0 REVERT JUMPDEST PUSH0 PUSH2 0xDFF DUP3 PUSH2 0x98E JUMP JUMPDEST SWAP2 POP PUSH2 0xE0A DUP4 PUSH2 0x98E JUMP JUMPDEST SWAP3 POP DUP3 PUSH2 0xE1A JUMPI PUSH2 0xE19 PUSH2 0xDC8 JUMP JUMPDEST JUMPDEST DUP3 DUP3 DIV SWAP1 POP SWAP3 SWAP2 POP POP JUMP JUMPDEST PUSH0 PUSH2 0xE2F DUP3 PUSH2 0x98E JUMP JUMPDEST SWAP2 POP PUSH2 0xE3A DUP4 PUSH2 0x98E JUMP JUMPDEST SWAP3 POP DUP3 DUP3 ADD SWAP1 POP DUP1 DUP3 GT ISZERO PUSH2 0xE52 JUMPI PUSH2 0xE51 PUSH2 0xD5A JUMP JUMPDEST JUMPDEST SWAP3 SWAP2 POP POP JUMP JUMPDEST PUSH32 0x426964206D757374206265206174206C65617374205825206869676865722074 PUSH0 DUP3 ADD MSTORE PUSH32 0x68616E2063757272656E742068696768657374206269642E0000000000000000 PUSH1 0x20 DUP3 ADD MSTORE POP JUMP JUMPDEST PUSH0 PUSH2 0xEB2 PUSH1 0x38 DUP4 PUSH2 0xAC2 JUMP JUMPDEST SWAP2 POP PUSH2 0xEBD DUP3 PUSH2 0xE58 JUMP JUMPDEST PUSH1 0x40 DUP3 ADD SWAP1 POP SWAP2 SWAP1 POP JUMP JUMPDEST PUSH0 PUSH1 0x20 DUP3 ADD SWAP1 POP DUP2 DUP2 SUB PUSH0 DUP4 ADD MSTORE PUSH2 0xEDF DUP2 PUSH2 0xEA6 JUMP JUMPDEST SWAP1 POP SWAP2 SWAP1 POP JUMP JUMPDEST PUSH32 0x41756374696F6E20686173206E6F7420656E646564207965742E000000000000 PUSH0 DUP3 ADD MSTORE POP JUMP JUMPDEST PUSH0 PUSH2 0xF1A PUSH1 0x1A DUP4 PUSH2 0xAC2 JUMP JUMPDEST SWAP2 POP PUSH2 0xF25 DUP3 PUSH2 0xEE6 JUMP JUMPDEST PUSH1 0x20 DUP3 ADD SWAP1 POP SWAP2 SWAP1 POP JUMP JUMPDEST PUSH0 PUSH1 0x20 DUP3 ADD SWAP1 POP DUP2 DUP2 SUB PUSH0 DUP4 ADD MSTORE PUSH2 0xF47 DUP2 PUSH2 0xF0E JUMP JUMPDEST SWAP1 POP SWAP2 SWAP1 POP JUMP JUMPDEST PUSH32 0x4E487B7100000000000000000000000000000000000000000000000000000000 PUSH0 MSTORE PUSH1 0x22 PUSH1 0x4 MSTORE PUSH1 0x24 PUSH0 REVERT JUMPDEST PUSH0 PUSH1 0x2 DUP3 DIV SWAP1 POP PUSH1 0x1 DUP3 AND DUP1 PUSH2 0xF92 JUMPI PUSH1 0x7F DUP3 AND SWAP2 POP JUMPDEST PUSH1 0x20 DUP3 LT DUP2 SUB PUSH2 0xFA5 JUMPI PUSH2 0xFA4 PUSH2 0xF4E JUMP JUMPDEST JUMPDEST POP SWAP2 SWAP1 POP JUMP JUMPDEST PUSH32 0x41756374696F6E206861736E277420656E646564207965742E00000000000000 PUSH0 DUP3 ADD MSTORE POP JUMP JUMPDEST PUSH0 PUSH2 0xFDF PUSH1 0x19 DUP4 PUSH2 0xAC2 JUMP JUMPDEST SWAP2 POP PUSH2 0xFEA DUP3 PUSH2 0xFAB JUMP JUMPDEST PUSH1 0x20 DUP3 ADD SWAP1 POP SWAP2 SWAP1 POP JUMP JUMPDEST PUSH0 PUSH1 0x20 DUP3 ADD SWAP1 POP DUP2 DUP2 SUB PUSH0 DUP4 ADD MSTORE PUSH2 0x100C DUP2 PUSH2 0xFD3 JUMP JUMPDEST SWAP1 POP SWAP2 SWAP1 POP JUMP JUMPDEST PUSH32 0x41756374696F6E20656E6420616C72656164792063616C6C65642E0000000000 PUSH0 DUP3 ADD MSTORE POP JUMP JUMPDEST PUSH0 PUSH2 0x1047 PUSH1 0x1B DUP4 PUSH2 0xAC2 JUMP JUMPDEST SWAP2 POP PUSH2 0x1052 DUP3 PUSH2 0x1013 JUMP JUMPDEST PUSH1 0x20 DUP3 ADD SWAP1 POP SWAP2 SWAP1 POP JUMP JUMPDEST PUSH0 PUSH1 0x20 DUP3 ADD SWAP1 POP DUP2 DUP2 SUB PUSH0 DUP4 ADD MSTORE PUSH2 0x1074 DUP2 PUSH2 0x103B JUMP JUMPDEST SWAP1 POP SWAP2 SWAP1 POP JUMP INVALID LOG2 PUSH5 0x6970667358 0x22 SLT KECCAK256 0x24 0xA8 XOR TLOAD 0x27 SWAP10 DUP1 0xCD 0xB3 0xB0 0xC9 0xF 0xAB BLOBBASEFEE PUSH27 0xAF14D978C2D965D69D14E0EFF61D73A3464736F6C634300081E00 CALLER "
				},
				"gasEstimates": {
					"creation": {
						"codeDepositCost": "854600",
						"executionCost": "infinite",
						"totalCost": "infinite"
					},
					"external": {
						"MIN_ABSOLUTE_INCREMENT()": "435",
						"MIN_BID_INCREMENT_PERCENT()": "392",
						"auctionEndTime()": "2492",
						"bid(uint256)": "infinite",
						"bidders(uint256)": "4966",
						"bids(address)": "2891",
						"endAuction()": "28777",
						"ended()": "2467",
						"getAllBidders()": "infinite",
						"getWinner()": "6924",
						"item()": "infinite",
						"owner()": "2530",
						"reservePrice()": "2469"
					}
				},
				"methodIdentifiers": {
					"MIN_ABSOLUTE_INCREMENT()": "6c0a1695",
					"MIN_BID_INCREMENT_PERCENT()": "bc996819",
					"auctionEndTime()": "4b449cba",
					"bid(uint256)": "454a2ab3",
					"bidders(uint256)": "cff29dfd",
					"bids(address)": "62ea82db",
					"endAuction()": "fe67a54b",
					"ended()": "12fa6feb",
					"getAllBidders()": "3a79d2e5",
					"getWinner()": "8e7ea5b2",
					"item()": "f2a4a82e",
					"owner()": "8da5cb5b",
					"reservePrice()": "db2e1eed"
				}
			},
			"storageLayout": {
				"storage": [
					{
						"astId": 3,
						"contract": "submissions/iCat798/Day04-AuctionHouse.sol:AuctionHouse",
						"label": "owner",
						"offset": 0,
						"slot": "0",
						"type": "t_address"
					},
					{
						"astId": 5,
						"contract": "submissions/iCat798/Day04-AuctionHouse.sol:AuctionHouse",
						"label": "item",
						"offset": 0,
						"slot": "1",
						"type": "t_string_storage"
					},
					{
						"astId": 7,
						"contract": "submissions/iCat798/Day04-AuctionHouse.sol:AuctionHouse",
						"label": "auctionEndTime",
						"offset": 0,
						"slot": "2",
						"type": "t_uint256"
					},
					{
						"astId": 9,
						"contract": "submissions/iCat798/Day04-AuctionHouse.sol:AuctionHouse",
						"label": "highestBidder",
						"offset": 0,
						"slot": "3",
						"type": "t_address"
					},
					{
						"astId": 11,
						"contract": "submissions/iCat798/Day04-AuctionHouse.sol:AuctionHouse",
						"label": "highestBid",
						"offset": 0,
						"slot": "4",
						"type": "t_uint256"
					},
					{
						"astId": 13,
						"contract": "submissions/iCat798/Day04-AuctionHouse.sol:AuctionHouse",
						"label": "ended",
						"offset": 0,
						"slot": "5",
						"type": "t_bool"
					},
					{
						"astId": 15,
						"contract": "submissions/iCat798/Day04-AuctionHouse.sol:AuctionHouse",
						"label": "reservePrice",
						"offset": 0,
						"slot": "6",
						"type": "t_uint256"
					},
					{
						"astId": 25,
						"contract": "submissions/iCat798/Day04-AuctionHouse.sol:AuctionHouse",
						"label": "bids",
						"offset": 0,
						"slot": "7",
						"type": "t_mapping(t_address,t_uint256)"
					},
					{
						"astId": 28,
						"contract": "submissions/iCat798/Day04-AuctionHouse.sol:AuctionHouse",
						"label": "bidders",
						"offset": 0,
						"slot": "8",
						"type": "t_array(t_address)dyn_storage"
					}
				],
				"types": {
					"t_address": {
						"encoding": "inplace",
						"label": "address",
						"numberOfBytes": "20"
					},
					"t_array(t_address)dyn_storage": {
						"base": "t_address",
						"encoding": "dynamic_array",
						"label": "address[]",
						"numberOfBytes": "32"
					},
					"t_bool": {
						"encoding": "inplace",
						"label": "bool",
						"numberOfBytes": "1"
					},
					"t_mapping(t_address,t_uint256)": {
						"encoding": "mapping",
						"key": "t_address",
						"label": "mapping(address => uint256)",
						"numberOfBytes": "32",
						"value": "t_uint256"
					},
					"t_string_storage": {
						"encoding": "bytes",
						"label": "string",
						"numberOfBytes": "32"
					},
					"t_uint256": {
						"encoding": "inplace",
						"label": "uint256",
						"numberOfBytes": "32"
					}
				}
			},
			"userdoc": {
				"kind": "user",
				"methods": {},
				"version": 1
			}
		}
	}
}