{
	"submissions/0xFancy/day9/ScientificCalculator.sol": {
		"ScientificCalculator": {
			"abi": [
				{
					"inputs": [
						{
							"internalType": "uint256",
							"name": "base",
							"type": "uint256"
						},
						{
							"internalType": "uint256",
							"name": "exponent",
							"type": "uint256"
						}
					],
					"name": "power",
					"outputs": [
						{
							"internalType": "uint256",
							"name": "",
							"type": "uint256"
						}
					],
					"stateMutability": "pure",
					"type": "function"
				},
				{
					"inputs": [
						{
							"internalType": "uint256",
							"name": "number",
							"type": "uint256"
						}
					],
					"name": "squareRoot",
					"outputs": [
						{
							"internalType": "uint256",
							"name": "",
							"type": "uint256"
						}
					],
					"stateMutability": "pure",
					"type": "function"
				}
			],
			"devdoc": {
				"kind": "dev",
				"methods": {},
				"version": 1
			},
			"evm": {
				"assembly": "    /* \"submissions/0xFancy/day9/ScientificCalculator.sol\":57:619  contract ScientificCalculator{... */\n  mstore(0x40, 0x80)\n  callvalue\n  dup1\n  iszero\n  tag_1\n  jumpi\n  revert(0x00, 0x00)\ntag_1:\n  pop\n  dataSize(sub_0)\n  dup1\n  dataOffset(sub_0)\n  0x00\n  codecopy\n  0x00\n  return\nstop\n\nsub_0: assembly {\n        /* \"submissions/0xFancy/day9/ScientificCalculator.sol\":57:619  contract ScientificCalculator{... */\n      mstore(0x40, 0x80)\n      callvalue\n      dup1\n      iszero\n      tag_1\n      jumpi\n      revert(0x00, 0x00)\n    tag_1:\n      pop\n      jumpi(tag_2, lt(calldatasize, 0x04))\n      shr(0xe0, calldataload(0x00))\n      dup1\n      0x7b019f89\n      eq\n      tag_3\n      jumpi\n      dup1\n      0xc04f01fc\n      eq\n      tag_4\n      jumpi\n    tag_2:\n      revert(0x00, 0x00)\n        /* \"submissions/0xFancy/day9/ScientificCalculator.sol\":282:617  function squareRoot(uint256 number) public pure returns (uint256) {... */\n    tag_3:\n      tag_5\n      0x04\n      dup1\n      calldatasize\n      sub\n      dup2\n      add\n      swap1\n      tag_6\n      swap2\n      swap1\n      tag_7\n      jump\t// in\n    tag_6:\n      tag_8\n      jump\t// in\n    tag_5:\n      mload(0x40)\n      tag_9\n      swap2\n      swap1\n      tag_10\n      jump\t// in\n    tag_9:\n      mload(0x40)\n      dup1\n      swap2\n      sub\n      swap1\n      return\n        /* \"submissions/0xFancy/day9/ScientificCalculator.sol\":92:276  function power(uint256 base, uint256 exponent) public pure returns (uint256) {... */\n    tag_4:\n      tag_11\n      0x04\n      dup1\n      calldatasize\n      sub\n      dup2\n      add\n      swap1\n      tag_12\n      swap2\n      swap1\n      tag_13\n      jump\t// in\n    tag_12:\n      tag_14\n      jump\t// in\n    tag_11:\n      mload(0x40)\n      tag_15\n      swap2\n      swap1\n      tag_10\n      jump\t// in\n    tag_15:\n      mload(0x40)\n      dup1\n      swap2\n      sub\n      swap1\n      return\n        /* \"submissions/0xFancy/day9/ScientificCalculator.sol\":282:617  function squareRoot(uint256 number) public pure returns (uint256) {... */\n    tag_8:\n        /* \"submissions/0xFancy/day9/ScientificCalculator.sol\":339:346  uint256 */\n      0x00\n        /* \"submissions/0xFancy/day9/ScientificCalculator.sol\":376:377  0 */\n      0x00\n        /* \"submissions/0xFancy/day9/ScientificCalculator.sol\":366:372  number */\n      dup3\n        /* \"submissions/0xFancy/day9/ScientificCalculator.sol\":366:377  number >= 0 */\n      lt\n      iszero\n        /* \"submissions/0xFancy/day9/ScientificCalculator.sol\":358:411  require(number >= 0, \"Should not be neative number.\") */\n      tag_17\n      jumpi\n      mload(0x40)\n      0x08c379a000000000000000000000000000000000000000000000000000000000\n      dup2\n      mstore\n      0x04\n      add\n      tag_18\n      swap1\n      tag_19\n      jump\t// in\n    tag_18:\n      mload(0x40)\n      dup1\n      swap2\n      sub\n      swap1\n      revert\n    tag_17:\n        /* \"submissions/0xFancy/day9/ScientificCalculator.sol\":434:435  0 */\n      0x00\n        /* \"submissions/0xFancy/day9/ScientificCalculator.sol\":424:430  number */\n      dup3\n        /* \"submissions/0xFancy/day9/ScientificCalculator.sol\":424:435  number == 0 */\n      sub\n        /* \"submissions/0xFancy/day9/ScientificCalculator.sol\":421:445  if(number == 0) return 0 */\n      tag_20\n      jumpi\n        /* \"submissions/0xFancy/day9/ScientificCalculator.sol\":444:445  0 */\n      0x00\n        /* \"submissions/0xFancy/day9/ScientificCalculator.sol\":437:445  return 0 */\n      swap1\n      pop\n      jump(tag_16)\n        /* \"submissions/0xFancy/day9/ScientificCalculator.sol\":421:445  if(number == 0) return 0 */\n    tag_20:\n        /* \"submissions/0xFancy/day9/ScientificCalculator.sol\":456:470  uint256 result */\n      0x00\n        /* \"submissions/0xFancy/day9/ScientificCalculator.sol\":482:483  2 */\n      0x02\n        /* \"submissions/0xFancy/day9/ScientificCalculator.sol\":473:479  number */\n      dup4\n        /* \"submissions/0xFancy/day9/ScientificCalculator.sol\":473:483  number / 2 */\n      tag_21\n      swap2\n      swap1\n      tag_22\n      jump\t// in\n    tag_21:\n        /* \"submissions/0xFancy/day9/ScientificCalculator.sol\":456:483  uint256 result = number / 2 */\n      swap1\n      pop\n        /* \"submissions/0xFancy/day9/ScientificCalculator.sol\":497:506  uint256 i */\n      0x00\n        /* \"submissions/0xFancy/day9/ScientificCalculator.sol\":509:510  0 */\n      0x00\n        /* \"submissions/0xFancy/day9/ScientificCalculator.sol\":497:510  uint256 i = 0 */\n      swap1\n      pop\n        /* \"submissions/0xFancy/day9/ScientificCalculator.sol\":493:588  for(uint256 i = 0; i < 10; i++){... */\n    tag_23:\n        /* \"submissions/0xFancy/day9/ScientificCalculator.sol\":516:518  10 */\n      0x0a\n        /* \"submissions/0xFancy/day9/ScientificCalculator.sol\":512:513  i */\n      dup2\n        /* \"submissions/0xFancy/day9/ScientificCalculator.sol\":512:518  i < 10 */\n      lt\n        /* \"submissions/0xFancy/day9/ScientificCalculator.sol\":493:588  for(uint256 i = 0; i < 10; i++){... */\n      iszero\n      tag_24\n      jumpi\n        /* \"submissions/0xFancy/day9/ScientificCalculator.sol\":576:577  2 */\n      0x02\n        /* \"submissions/0xFancy/day9/ScientificCalculator.sol\":566:572  result */\n      dup3\n        /* \"submissions/0xFancy/day9/ScientificCalculator.sol\":557:563  number */\n      dup6\n        /* \"submissions/0xFancy/day9/ScientificCalculator.sol\":557:572  number / result */\n      tag_26\n      swap2\n      swap1\n      tag_22\n      jump\t// in\n    tag_26:\n        /* \"submissions/0xFancy/day9/ScientificCalculator.sol\":548:554  result */\n      dup4\n        /* \"submissions/0xFancy/day9/ScientificCalculator.sol\":548:572  result + number / result */\n      tag_27\n      swap2\n      swap1\n      tag_28\n      jump\t// in\n    tag_27:\n        /* \"submissions/0xFancy/day9/ScientificCalculator.sol\":547:577  (result + number / result) / 2 */\n      tag_29\n      swap2\n      swap1\n      tag_22\n      jump\t// in\n    tag_29:\n        /* \"submissions/0xFancy/day9/ScientificCalculator.sol\":538:577  result = (result + number / result) / 2 */\n      swap2\n      pop\n        /* \"submissions/0xFancy/day9/ScientificCalculator.sol\":520:523  i++ */\n      dup1\n      dup1\n      0x01\n      add\n      swap2\n      pop\n      pop\n        /* \"submissions/0xFancy/day9/ScientificCalculator.sol\":493:588  for(uint256 i = 0; i < 10; i++){... */\n      jump(tag_23)\n    tag_24:\n      pop\n        /* \"submissions/0xFancy/day9/ScientificCalculator.sol\":604:610  result */\n      dup1\n        /* \"submissions/0xFancy/day9/ScientificCalculator.sol\":597:610  return result */\n      swap2\n      pop\n      pop\n        /* \"submissions/0xFancy/day9/ScientificCalculator.sol\":282:617  function squareRoot(uint256 number) public pure returns (uint256) {... */\n    tag_16:\n      swap2\n      swap1\n      pop\n      jump\t// out\n        /* \"submissions/0xFancy/day9/ScientificCalculator.sol\":92:276  function power(uint256 base, uint256 exponent) public pure returns (uint256) {... */\n    tag_14:\n        /* \"submissions/0xFancy/day9/ScientificCalculator.sol\":160:167  uint256 */\n      0x00\n        /* \"submissions/0xFancy/day9/ScientificCalculator.sol\":194:195  0 */\n      0x00\n        /* \"submissions/0xFancy/day9/ScientificCalculator.sol\":182:190  exponent */\n      dup3\n        /* \"submissions/0xFancy/day9/ScientificCalculator.sol\":182:195  exponent == 0 */\n      sub\n        /* \"submissions/0xFancy/day9/ScientificCalculator.sol\":179:269  if(exponent == 0) {... */\n      tag_31\n      jumpi\n        /* \"submissions/0xFancy/day9/ScientificCalculator.sol\":218:219  1 */\n      0x01\n        /* \"submissions/0xFancy/day9/ScientificCalculator.sol\":211:219  return 1 */\n      swap1\n      pop\n      jump(tag_30)\n        /* \"submissions/0xFancy/day9/ScientificCalculator.sol\":179:269  if(exponent == 0) {... */\n    tag_31:\n        /* \"submissions/0xFancy/day9/ScientificCalculator.sol\":260:268  exponent */\n      dup2\n        /* \"submissions/0xFancy/day9/ScientificCalculator.sol\":252:256  base */\n      dup4\n        /* \"submissions/0xFancy/day9/ScientificCalculator.sol\":252:268  base ** exponent */\n      tag_33\n      swap2\n      swap1\n      tag_34\n      jump\t// in\n    tag_33:\n        /* \"submissions/0xFancy/day9/ScientificCalculator.sol\":244:269  return (base ** exponent) */\n      swap1\n      pop\n        /* \"submissions/0xFancy/day9/ScientificCalculator.sol\":92:276  function power(uint256 base, uint256 exponent) public pure returns (uint256) {... */\n    tag_30:\n      swap3\n      swap2\n      pop\n      pop\n      jump\t// out\n        /* \"#utility.yul\":88:205   */\n    tag_36:\n        /* \"#utility.yul\":197:198   */\n      0x00\n        /* \"#utility.yul\":194:195   */\n      0x00\n        /* \"#utility.yul\":187:199   */\n      revert\n        /* \"#utility.yul\":334:411   */\n    tag_38:\n        /* \"#utility.yul\":371:378   */\n      0x00\n        /* \"#utility.yul\":400:405   */\n      dup2\n        /* \"#utility.yul\":389:405   */\n      swap1\n      pop\n        /* \"#utility.yul\":334:411   */\n      swap2\n      swap1\n      pop\n      jump\t// out\n        /* \"#utility.yul\":417:539   */\n    tag_39:\n        /* \"#utility.yul\":490:514   */\n      tag_56\n        /* \"#utility.yul\":508:513   */\n      dup2\n        /* \"#utility.yul\":490:514   */\n      tag_38\n      jump\t// in\n    tag_56:\n        /* \"#utility.yul\":483:488   */\n      dup2\n        /* \"#utility.yul\":480:515   */\n      eq\n        /* \"#utility.yul\":470:533   */\n      tag_57\n      jumpi\n        /* \"#utility.yul\":529:530   */\n      0x00\n        /* \"#utility.yul\":526:527   */\n      0x00\n        /* \"#utility.yul\":519:531   */\n      revert\n        /* \"#utility.yul\":470:533   */\n    tag_57:\n        /* \"#utility.yul\":417:539   */\n      pop\n      jump\t// out\n        /* \"#utility.yul\":545:684   */\n    tag_40:\n        /* \"#utility.yul\":591:596   */\n      0x00\n        /* \"#utility.yul\":629:635   */\n      dup2\n        /* \"#utility.yul\":616:636   */\n      calldataload\n        /* \"#utility.yul\":607:636   */\n      swap1\n      pop\n        /* \"#utility.yul\":645:678   */\n      tag_59\n        /* \"#utility.yul\":672:677   */\n      dup2\n        /* \"#utility.yul\":645:678   */\n      tag_39\n      jump\t// in\n    tag_59:\n        /* \"#utility.yul\":545:684   */\n      swap3\n      swap2\n      pop\n      pop\n      jump\t// out\n        /* \"#utility.yul\":690:1019   */\n    tag_7:\n        /* \"#utility.yul\":749:755   */\n      0x00\n        /* \"#utility.yul\":798:800   */\n      0x20\n        /* \"#utility.yul\":786:795   */\n      dup3\n        /* \"#utility.yul\":777:784   */\n      dup5\n        /* \"#utility.yul\":773:796   */\n      sub\n        /* \"#utility.yul\":769:801   */\n      slt\n        /* \"#utility.yul\":766:885   */\n      iszero\n      tag_61\n      jumpi\n        /* \"#utility.yul\":804:883   */\n      tag_62\n      tag_36\n      jump\t// in\n    tag_62:\n        /* \"#utility.yul\":766:885   */\n    tag_61:\n        /* \"#utility.yul\":924:925   */\n      0x00\n        /* \"#utility.yul\":949:1002   */\n      tag_63\n        /* \"#utility.yul\":994:1001   */\n      dup5\n        /* \"#utility.yul\":985:991   */\n      dup3\n        /* \"#utility.yul\":974:983   */\n      dup6\n        /* \"#utility.yul\":970:992   */\n      add\n        /* \"#utility.yul\":949:1002   */\n      tag_40\n      jump\t// in\n    tag_63:\n        /* \"#utility.yul\":939:1002   */\n      swap2\n      pop\n        /* \"#utility.yul\":895:1012   */\n      pop\n        /* \"#utility.yul\":690:1019   */\n      swap3\n      swap2\n      pop\n      pop\n      jump\t// out\n        /* \"#utility.yul\":1025:1143   */\n    tag_41:\n        /* \"#utility.yul\":1112:1136   */\n      tag_65\n        /* \"#utility.yul\":1130:1135   */\n      dup2\n        /* \"#utility.yul\":1112:1136   */\n      tag_38\n      jump\t// in\n    tag_65:\n        /* \"#utility.yul\":1107:1110   */\n      dup3\n        /* \"#utility.yul\":1100:1137   */\n      mstore\n        /* \"#utility.yul\":1025:1143   */\n      pop\n      pop\n      jump\t// out\n        /* \"#utility.yul\":1149:1371   */\n    tag_10:\n        /* \"#utility.yul\":1242:1246   */\n      0x00\n        /* \"#utility.yul\":1280:1282   */\n      0x20\n        /* \"#utility.yul\":1269:1278   */\n      dup3\n        /* \"#utility.yul\":1265:1283   */\n      add\n        /* \"#utility.yul\":1257:1283   */\n      swap1\n      pop\n        /* \"#utility.yul\":1293:1364   */\n      tag_67\n        /* \"#utility.yul\":1361:1362   */\n      0x00\n        /* \"#utility.yul\":1350:1359   */\n      dup4\n        /* \"#utility.yul\":1346:1363   */\n      add\n        /* \"#utility.yul\":1337:1343   */\n      dup5\n        /* \"#utility.yul\":1293:1364   */\n      tag_41\n      jump\t// in\n    tag_67:\n        /* \"#utility.yul\":1149:1371   */\n      swap3\n      swap2\n      pop\n      pop\n      jump\t// out\n        /* \"#utility.yul\":1377:1851   */\n    tag_13:\n        /* \"#utility.yul\":1445:1451   */\n      0x00\n        /* \"#utility.yul\":1453:1459   */\n      0x00\n        /* \"#utility.yul\":1502:1504   */\n      0x40\n        /* \"#utility.yul\":1490:1499   */\n      dup4\n        /* \"#utility.yul\":1481:1488   */\n      dup6\n        /* \"#utility.yul\":1477:1500   */\n      sub\n        /* \"#utility.yul\":1473:1505   */\n      slt\n        /* \"#utility.yul\":1470:1589   */\n      iszero\n      tag_69\n      jumpi\n        /* \"#utility.yul\":1508:1587   */\n      tag_70\n      tag_36\n      jump\t// in\n    tag_70:\n        /* \"#utility.yul\":1470:1589   */\n    tag_69:\n        /* \"#utility.yul\":1628:1629   */\n      0x00\n        /* \"#utility.yul\":1653:1706   */\n      tag_71\n        /* \"#utility.yul\":1698:1705   */\n      dup6\n        /* \"#utility.yul\":1689:1695   */\n      dup3\n        /* \"#utility.yul\":1678:1687   */\n      dup7\n        /* \"#utility.yul\":1674:1696   */\n      add\n        /* \"#utility.yul\":1653:1706   */\n      tag_40\n      jump\t// in\n    tag_71:\n        /* \"#utility.yul\":1643:1706   */\n      swap3\n      pop\n        /* \"#utility.yul\":1599:1716   */\n      pop\n        /* \"#utility.yul\":1755:1757   */\n      0x20\n        /* \"#utility.yul\":1781:1834   */\n      tag_72\n        /* \"#utility.yul\":1826:1833   */\n      dup6\n        /* \"#utility.yul\":1817:1823   */\n      dup3\n        /* \"#utility.yul\":1806:1815   */\n      dup7\n        /* \"#utility.yul\":1802:1824   */\n      add\n        /* \"#utility.yul\":1781:1834   */\n      tag_40\n      jump\t// in\n    tag_72:\n        /* \"#utility.yul\":1771:1834   */\n      swap2\n      pop\n        /* \"#utility.yul\":1726:1844   */\n      pop\n        /* \"#utility.yul\":1377:1851   */\n      swap3\n      pop\n      swap3\n      swap1\n      pop\n      jump\t// out\n        /* \"#utility.yul\":1857:2026   */\n    tag_42:\n        /* \"#utility.yul\":1941:1952   */\n      0x00\n        /* \"#utility.yul\":1975:1981   */\n      dup3\n        /* \"#utility.yul\":1970:1973   */\n      dup3\n        /* \"#utility.yul\":1963:1982   */\n      mstore\n        /* \"#utility.yul\":2015:2019   */\n      0x20\n        /* \"#utility.yul\":2010:2013   */\n      dup3\n        /* \"#utility.yul\":2006:2020   */\n      add\n        /* \"#utility.yul\":1991:2020   */\n      swap1\n      pop\n        /* \"#utility.yul\":1857:2026   */\n      swap3\n      swap2\n      pop\n      pop\n      jump\t// out\n        /* \"#utility.yul\":2032:2211   */\n    tag_43:\n        /* \"#utility.yul\":2172:2203   */\n      0x53686f756c64206e6f74206265206e656174697665206e756d6265722e000000\n        /* \"#utility.yul\":2168:2169   */\n      0x00\n        /* \"#utility.yul\":2160:2166   */\n      dup3\n        /* \"#utility.yul\":2156:2170   */\n      add\n        /* \"#utility.yul\":2149:2204   */\n      mstore\n        /* \"#utility.yul\":2032:2211   */\n      pop\n      jump\t// out\n        /* \"#utility.yul\":2217:2583   */\n    tag_44:\n        /* \"#utility.yul\":2359:2362   */\n      0x00\n        /* \"#utility.yul\":2380:2447   */\n      tag_76\n        /* \"#utility.yul\":2444:2446   */\n      0x1d\n        /* \"#utility.yul\":2439:2442   */\n      dup4\n        /* \"#utility.yul\":2380:2447   */\n      tag_42\n      jump\t// in\n    tag_76:\n        /* \"#utility.yul\":2373:2447   */\n      swap2\n      pop\n        /* \"#utility.yul\":2456:2549   */\n      tag_77\n        /* \"#utility.yul\":2545:2548   */\n      dup3\n        /* \"#utility.yul\":2456:2549   */\n      tag_43\n      jump\t// in\n    tag_77:\n        /* \"#utility.yul\":2574:2576   */\n      0x20\n        /* \"#utility.yul\":2569:2572   */\n      dup3\n        /* \"#utility.yul\":2565:2577   */\n      add\n        /* \"#utility.yul\":2558:2577   */\n      swap1\n      pop\n        /* \"#utility.yul\":2217:2583   */\n      swap2\n      swap1\n      pop\n      jump\t// out\n        /* \"#utility.yul\":2589:3008   */\n    tag_19:\n        /* \"#utility.yul\":2755:2759   */\n      0x00\n        /* \"#utility.yul\":2793:2795   */\n      0x20\n        /* \"#utility.yul\":2782:2791   */\n      dup3\n        /* \"#utility.yul\":2778:2796   */\n      add\n        /* \"#utility.yul\":2770:2796   */\n      swap1\n      pop\n        /* \"#utility.yul\":2842:2851   */\n      dup2\n        /* \"#utility.yul\":2836:2840   */\n      dup2\n        /* \"#utility.yul\":2832:2852   */\n      sub\n        /* \"#utility.yul\":2828:2829   */\n      0x00\n        /* \"#utility.yul\":2817:2826   */\n      dup4\n        /* \"#utility.yul\":2813:2830   */\n      add\n        /* \"#utility.yul\":2806:2853   */\n      mstore\n        /* \"#utility.yul\":2870:3001   */\n      tag_79\n        /* \"#utility.yul\":2996:3000   */\n      dup2\n        /* \"#utility.yul\":2870:3001   */\n      tag_44\n      jump\t// in\n    tag_79:\n        /* \"#utility.yul\":2862:3001   */\n      swap1\n      pop\n        /* \"#utility.yul\":2589:3008   */\n      swap2\n      swap1\n      pop\n      jump\t// out\n        /* \"#utility.yul\":3014:3194   */\n    tag_45:\n        /* \"#utility.yul\":3062:3139   */\n      0x4e487b7100000000000000000000000000000000000000000000000000000000\n        /* \"#utility.yul\":3059:3060   */\n      0x00\n        /* \"#utility.yul\":3052:3140   */\n      mstore\n        /* \"#utility.yul\":3159:3163   */\n      0x12\n        /* \"#utility.yul\":3156:3157   */\n      0x04\n        /* \"#utility.yul\":3149:3164   */\n      mstore\n        /* \"#utility.yul\":3183:3187   */\n      0x24\n        /* \"#utility.yul\":3180:3181   */\n      0x00\n        /* \"#utility.yul\":3173:3188   */\n      revert\n        /* \"#utility.yul\":3200:3380   */\n    tag_46:\n        /* \"#utility.yul\":3248:3325   */\n      0x4e487b7100000000000000000000000000000000000000000000000000000000\n        /* \"#utility.yul\":3245:3246   */\n      0x00\n        /* \"#utility.yul\":3238:3326   */\n      mstore\n        /* \"#utility.yul\":3345:3349   */\n      0x11\n        /* \"#utility.yul\":3342:3343   */\n      0x04\n        /* \"#utility.yul\":3335:3350   */\n      mstore\n        /* \"#utility.yul\":3369:3373   */\n      0x24\n        /* \"#utility.yul\":3366:3367   */\n      0x00\n        /* \"#utility.yul\":3359:3374   */\n      revert\n        /* \"#utility.yul\":3386:3571   */\n    tag_22:\n        /* \"#utility.yul\":3426:3427   */\n      0x00\n        /* \"#utility.yul\":3443:3463   */\n      tag_83\n        /* \"#utility.yul\":3461:3462   */\n      dup3\n        /* \"#utility.yul\":3443:3463   */\n      tag_38\n      jump\t// in\n    tag_83:\n        /* \"#utility.yul\":3438:3463   */\n      swap2\n      pop\n        /* \"#utility.yul\":3477:3497   */\n      tag_84\n        /* \"#utility.yul\":3495:3496   */\n      dup4\n        /* \"#utility.yul\":3477:3497   */\n      tag_38\n      jump\t// in\n    tag_84:\n        /* \"#utility.yul\":3472:3497   */\n      swap3\n      pop\n        /* \"#utility.yul\":3516:3517   */\n      dup3\n        /* \"#utility.yul\":3506:3541   */\n      tag_85\n      jumpi\n        /* \"#utility.yul\":3521:3539   */\n      tag_86\n      tag_45\n      jump\t// in\n    tag_86:\n        /* \"#utility.yul\":3506:3541   */\n    tag_85:\n        /* \"#utility.yul\":3563:3564   */\n      dup3\n        /* \"#utility.yul\":3560:3561   */\n      dup3\n        /* \"#utility.yul\":3556:3565   */\n      div\n        /* \"#utility.yul\":3551:3565   */\n      swap1\n      pop\n        /* \"#utility.yul\":3386:3571   */\n      swap3\n      swap2\n      pop\n      pop\n      jump\t// out\n        /* \"#utility.yul\":3577:3768   */\n    tag_28:\n        /* \"#utility.yul\":3617:3620   */\n      0x00\n        /* \"#utility.yul\":3636:3656   */\n      tag_88\n        /* \"#utility.yul\":3654:3655   */\n      dup3\n        /* \"#utility.yul\":3636:3656   */\n      tag_38\n      jump\t// in\n    tag_88:\n        /* \"#utility.yul\":3631:3656   */\n      swap2\n      pop\n        /* \"#utility.yul\":3670:3690   */\n      tag_89\n        /* \"#utility.yul\":3688:3689   */\n      dup4\n        /* \"#utility.yul\":3670:3690   */\n      tag_38\n      jump\t// in\n    tag_89:\n        /* \"#utility.yul\":3665:3690   */\n      swap3\n      pop\n        /* \"#utility.yul\":3713:3714   */\n      dup3\n        /* \"#utility.yul\":3710:3711   */\n      dup3\n        /* \"#utility.yul\":3706:3715   */\n      add\n        /* \"#utility.yul\":3699:3715   */\n      swap1\n      pop\n        /* \"#utility.yul\":3734:3737   */\n      dup1\n        /* \"#utility.yul\":3731:3732   */\n      dup3\n        /* \"#utility.yul\":3728:3738   */\n      gt\n        /* \"#utility.yul\":3725:3761   */\n      iszero\n      tag_90\n      jumpi\n        /* \"#utility.yul\":3741:3759   */\n      tag_91\n      tag_46\n      jump\t// in\n    tag_91:\n        /* \"#utility.yul\":3725:3761   */\n    tag_90:\n        /* \"#utility.yul\":3577:3768   */\n      swap3\n      swap2\n      pop\n      pop\n      jump\t// out\n        /* \"#utility.yul\":3774:3876   */\n    tag_47:\n        /* \"#utility.yul\":3816:3824   */\n      0x00\n        /* \"#utility.yul\":3863:3868   */\n      dup2\n        /* \"#utility.yul\":3860:3861   */\n      0x01\n        /* \"#utility.yul\":3856:3869   */\n      shr\n        /* \"#utility.yul\":3835:3869   */\n      swap1\n      pop\n        /* \"#utility.yul\":3774:3876   */\n      swap2\n      swap1\n      pop\n      jump\t// out\n        /* \"#utility.yul\":3882:4730   */\n    tag_48:\n        /* \"#utility.yul\":3943:3948   */\n      0x00\n        /* \"#utility.yul\":3950:3954   */\n      0x00\n        /* \"#utility.yul\":3974:3980   */\n      dup3\n        /* \"#utility.yul\":3965:3980   */\n      swap2\n      pop\n        /* \"#utility.yul\":3998:4003   */\n      dup4\n        /* \"#utility.yul\":3989:4003   */\n      swap1\n      pop\n        /* \"#utility.yul\":4012:4724   */\n    tag_94:\n        /* \"#utility.yul\":4033:4034   */\n      0x01\n        /* \"#utility.yul\":4023:4031   */\n      dup6\n        /* \"#utility.yul\":4020:4035   */\n      gt\n        /* \"#utility.yul\":4012:4724   */\n      iszero\n      tag_96\n      jumpi\n        /* \"#utility.yul\":4128:4132   */\n      dup1\n        /* \"#utility.yul\":4123:4126   */\n      dup7\n        /* \"#utility.yul\":4119:4133   */\n      div\n        /* \"#utility.yul\":4113:4117   */\n      dup2\n        /* \"#utility.yul\":4110:4134   */\n      gt\n        /* \"#utility.yul\":4107:4157   */\n      iszero\n      tag_97\n      jumpi\n        /* \"#utility.yul\":4137:4155   */\n      tag_98\n      tag_46\n      jump\t// in\n    tag_98:\n        /* \"#utility.yul\":4107:4157   */\n    tag_97:\n        /* \"#utility.yul\":4187:4188   */\n      0x01\n        /* \"#utility.yul\":4177:4185   */\n      dup6\n        /* \"#utility.yul\":4173:4189   */\n      and\n        /* \"#utility.yul\":4170:4621   */\n      iszero\n      tag_99\n      jumpi\n        /* \"#utility.yul\":4602:4606   */\n      dup1\n        /* \"#utility.yul\":4595:4600   */\n      dup3\n        /* \"#utility.yul\":4591:4607   */\n      mul\n        /* \"#utility.yul\":4582:4607   */\n      swap2\n      pop\n        /* \"#utility.yul\":4170:4621   */\n    tag_99:\n        /* \"#utility.yul\":4652:4656   */\n      dup1\n        /* \"#utility.yul\":4646:4650   */\n      dup2\n        /* \"#utility.yul\":4642:4657   */\n      mul\n        /* \"#utility.yul\":4634:4657   */\n      swap1\n      pop\n        /* \"#utility.yul\":4682:4714   */\n      tag_100\n        /* \"#utility.yul\":4705:4713   */\n      dup6\n        /* \"#utility.yul\":4682:4714   */\n      tag_47\n      jump\t// in\n    tag_100:\n        /* \"#utility.yul\":4670:4714   */\n      swap5\n      pop\n        /* \"#utility.yul\":4012:4724   */\n      jump(tag_94)\n    tag_96:\n        /* \"#utility.yul\":3882:4730   */\n      swap5\n      pop\n      swap5\n      swap3\n      pop\n      pop\n      pop\n      jump\t// out\n        /* \"#utility.yul\":4736:5809   */\n    tag_49:\n        /* \"#utility.yul\":4790:4795   */\n      0x00\n        /* \"#utility.yul\":4981:4989   */\n      dup3\n        /* \"#utility.yul\":4971:5011   */\n      tag_102\n      jumpi\n        /* \"#utility.yul\":5002:5003   */\n      0x01\n        /* \"#utility.yul\":4993:5003   */\n      swap1\n      pop\n        /* \"#utility.yul\":5004:5009   */\n      jump(tag_101)\n        /* \"#utility.yul\":4971:5011   */\n    tag_102:\n        /* \"#utility.yul\":5030:5034   */\n      dup2\n        /* \"#utility.yul\":5020:5056   */\n      tag_103\n      jumpi\n        /* \"#utility.yul\":5047:5048   */\n      0x00\n        /* \"#utility.yul\":5038:5048   */\n      swap1\n      pop\n        /* \"#utility.yul\":5049:5054   */\n      jump(tag_101)\n        /* \"#utility.yul\":5020:5056   */\n    tag_103:\n        /* \"#utility.yul\":5116:5120   */\n      dup2\n        /* \"#utility.yul\":5164:5165   */\n      0x01\n        /* \"#utility.yul\":5159:5186   */\n      dup2\n      eq\n      tag_105\n      jumpi\n        /* \"#utility.yul\":5200:5201   */\n      0x02\n        /* \"#utility.yul\":5195:5386   */\n      dup2\n      eq\n      tag_106\n      jumpi\n        /* \"#utility.yul\":5109:5386   */\n      jump(tag_104)\n        /* \"#utility.yul\":5159:5186   */\n    tag_105:\n        /* \"#utility.yul\":5177:5178   */\n      0x01\n        /* \"#utility.yul\":5168:5178   */\n      swap2\n      pop\n        /* \"#utility.yul\":5179:5184   */\n      pop\n      jump(tag_101)\n        /* \"#utility.yul\":5195:5386   */\n    tag_106:\n        /* \"#utility.yul\":5240:5243   */\n      0xff\n        /* \"#utility.yul\":5230:5238   */\n      dup5\n        /* \"#utility.yul\":5227:5244   */\n      gt\n        /* \"#utility.yul\":5224:5267   */\n      iszero\n      tag_107\n      jumpi\n        /* \"#utility.yul\":5247:5265   */\n      tag_108\n      tag_46\n      jump\t// in\n    tag_108:\n        /* \"#utility.yul\":5224:5267   */\n    tag_107:\n        /* \"#utility.yul\":5296:5304   */\n      dup4\n        /* \"#utility.yul\":5293:5294   */\n      0x02\n        /* \"#utility.yul\":5289:5305   */\n      exp\n        /* \"#utility.yul\":5280:5305   */\n      swap2\n      pop\n        /* \"#utility.yul\":5331:5334   */\n      dup5\n        /* \"#utility.yul\":5324:5329   */\n      dup3\n        /* \"#utility.yul\":5321:5335   */\n      gt\n        /* \"#utility.yul\":5318:5358   */\n      iszero\n      tag_109\n      jumpi\n        /* \"#utility.yul\":5338:5356   */\n      tag_110\n      tag_46\n      jump\t// in\n    tag_110:\n        /* \"#utility.yul\":5318:5358   */\n    tag_109:\n        /* \"#utility.yul\":5371:5376   */\n      pop\n      jump(tag_101)\n        /* \"#utility.yul\":5109:5386   */\n    tag_104:\n      pop\n        /* \"#utility.yul\":5495:5497   */\n      0x20\n        /* \"#utility.yul\":5485:5493   */\n      dup4\n        /* \"#utility.yul\":5482:5498   */\n      lt\n        /* \"#utility.yul\":5476:5479   */\n      0x0133\n        /* \"#utility.yul\":5470:5474   */\n      dup4\n        /* \"#utility.yul\":5467:5480   */\n      lt\n        /* \"#utility.yul\":5463:5499   */\n      and\n        /* \"#utility.yul\":5445:5447   */\n      0x4e\n        /* \"#utility.yul\":5435:5443   */\n      dup5\n        /* \"#utility.yul\":5432:5448   */\n      lt\n        /* \"#utility.yul\":5427:5429   */\n      0x0b\n        /* \"#utility.yul\":5421:5425   */\n      dup5\n        /* \"#utility.yul\":5418:5430   */\n      lt\n        /* \"#utility.yul\":5414:5449   */\n      and\n        /* \"#utility.yul\":5398:5509   */\n      or\n        /* \"#utility.yul\":5395:5641   */\n      iszero\n      tag_111\n      jumpi\n        /* \"#utility.yul\":5551:5559   */\n      dup3\n        /* \"#utility.yul\":5545:5549   */\n      dup3\n        /* \"#utility.yul\":5541:5560   */\n      exp\n        /* \"#utility.yul\":5532:5560   */\n      swap1\n      pop\n        /* \"#utility.yul\":5586:5589   */\n      dup4\n        /* \"#utility.yul\":5579:5584   */\n      dup2\n        /* \"#utility.yul\":5576:5590   */\n      gt\n        /* \"#utility.yul\":5573:5613   */\n      iszero\n      tag_112\n      jumpi\n        /* \"#utility.yul\":5593:5611   */\n      tag_113\n      tag_46\n      jump\t// in\n    tag_113:\n        /* \"#utility.yul\":5573:5613   */\n    tag_112:\n        /* \"#utility.yul\":5626:5631   */\n      jump(tag_101)\n        /* \"#utility.yul\":5395:5641   */\n    tag_111:\n        /* \"#utility.yul\":5666:5708   */\n      tag_114\n        /* \"#utility.yul\":5704:5707   */\n      dup5\n        /* \"#utility.yul\":5694:5702   */\n      dup5\n        /* \"#utility.yul\":5688:5692   */\n      dup5\n        /* \"#utility.yul\":5685:5686   */\n      0x01\n        /* \"#utility.yul\":5666:5708   */\n      tag_48\n      jump\t// in\n    tag_114:\n        /* \"#utility.yul\":5651:5708   */\n      swap3\n      pop\n      swap1\n      pop\n        /* \"#utility.yul\":5740:5744   */\n      dup2\n        /* \"#utility.yul\":5735:5738   */\n      dup5\n        /* \"#utility.yul\":5731:5745   */\n      div\n        /* \"#utility.yul\":5724:5729   */\n      dup2\n        /* \"#utility.yul\":5721:5746   */\n      gt\n        /* \"#utility.yul\":5718:5769   */\n      iszero\n      tag_115\n      jumpi\n        /* \"#utility.yul\":5749:5767   */\n      tag_116\n      tag_46\n      jump\t// in\n    tag_116:\n        /* \"#utility.yul\":5718:5769   */\n    tag_115:\n        /* \"#utility.yul\":5798:5802   */\n      dup2\n        /* \"#utility.yul\":5791:5796   */\n      dup2\n        /* \"#utility.yul\":5787:5803   */\n      mul\n        /* \"#utility.yul\":5778:5803   */\n      swap1\n      pop\n        /* \"#utility.yul\":4736:5809   */\n    tag_101:\n      swap4\n      swap3\n      pop\n      pop\n      pop\n      jump\t// out\n        /* \"#utility.yul\":5815:6100   */\n    tag_34:\n        /* \"#utility.yul\":5875:5880   */\n      0x00\n        /* \"#utility.yul\":5899:5922   */\n      tag_118\n        /* \"#utility.yul\":5917:5921   */\n      dup3\n        /* \"#utility.yul\":5899:5922   */\n      tag_38\n      jump\t// in\n    tag_118:\n        /* \"#utility.yul\":5891:5922   */\n      swap2\n      pop\n        /* \"#utility.yul\":5943:5970   */\n      tag_119\n        /* \"#utility.yul\":5961:5969   */\n      dup4\n        /* \"#utility.yul\":5943:5970   */\n      tag_38\n      jump\t// in\n    tag_119:\n        /* \"#utility.yul\":5931:5970   */\n      swap3\n      pop\n        /* \"#utility.yul\":5989:6093   */\n      tag_120\n        /* \"#utility.yul\":6026:6092   */\n      0xffffffffffffffffffffffffffffffffffffffffffffffffffffffffffffffff\n        /* \"#utility.yul\":6016:6024   */\n      dup5\n        /* \"#utility.yul\":6010:6014   */\n      dup5\n        /* \"#utility.yul\":5989:6093   */\n      tag_49\n      jump\t// in\n    tag_120:\n        /* \"#utility.yul\":5980:6093   */\n      swap1\n      pop\n        /* \"#utility.yul\":5815:6100   */\n      swap3\n      swap2\n      pop\n      pop\n      jump\t// out\n\n    auxdata: 0xa2646970667358221220e32da04da435dbb17b5d9b1359e1e2a746a555436bfb7aeea78e1fbdf81e1c8664736f6c634300081e0033\n}\n",
				"bytecode": {
					"linkReferences": {},
					"object": "6080604052348015600e575f5ffd5b506105188061001c5f395ff3fe608060405234801561000f575f5ffd5b5060043610610034575f3560e01c80637b019f8914610038578063c04f01fc14610068575b5f5ffd5b610052600480360381019061004d91906101a3565b610098565b60405161005f91906101dd565b60405180910390f35b610082600480360381019061007d91906101f6565b610146565b60405161008f91906101dd565b60405180910390f35b5f5f8210156100dc576040517f08c379a00000000000000000000000000000000000000000000000000000000081526004016100d39061028e565b60405180910390fd5b5f82036100eb575f9050610141565b5f6002836100f99190610306565b90505f5f90505b600a81101561013b57600282856101179190610306565b836101229190610336565b61012c9190610306565b91508080600101915050610100565b50809150505b919050565b5f5f82036101575760019050610166565b81836101639190610498565b90505b92915050565b5f5ffd5b5f819050919050565b61018281610170565b811461018c575f5ffd5b50565b5f8135905061019d81610179565b92915050565b5f602082840312156101b8576101b761016c565b5b5f6101c58482850161018f565b91505092915050565b6101d781610170565b82525050565b5f6020820190506101f05f8301846101ce565b92915050565b5f5f6040838503121561020c5761020b61016c565b5b5f6102198582860161018f565b925050602061022a8582860161018f565b9150509250929050565b5f82825260208201905092915050565b7f53686f756c64206e6f74206265206e656174697665206e756d6265722e0000005f82015250565b5f610278601d83610234565b915061028382610244565b602082019050919050565b5f6020820190508181035f8301526102a58161026c565b9050919050565b7f4e487b71000000000000000000000000000000000000000000000000000000005f52601260045260245ffd5b7f4e487b71000000000000000000000000000000000000000000000000000000005f52601160045260245ffd5b5f61031082610170565b915061031b83610170565b92508261032b5761032a6102ac565b5b828204905092915050565b5f61034082610170565b915061034b83610170565b9250828201905080821115610363576103626102d9565b5b92915050565b5f8160011c9050919050565b5f5f8291508390505b60018511156103be5780860481111561039a576103996102d9565b5b60018516156103a95780820291505b80810290506103b785610369565b945061037e565b94509492505050565b5f826103d65760019050610491565b816103e3575f9050610491565b81600181146103f9576002811461040357610432565b6001915050610491565b60ff841115610415576104146102d9565b5b8360020a91508482111561042c5761042b6102d9565b5b50610491565b5060208310610133831016604e8410600b84101617156104675782820a905083811115610462576104616102d9565b5b610491565b6104748484846001610375565b9250905081840481111561048b5761048a6102d9565b5b81810290505b9392505050565b5f6104a282610170565b91506104ad83610170565b92506104da7fffffffffffffffffffffffffffffffffffffffffffffffffffffffffffffffff84846103c7565b90509291505056fea2646970667358221220e32da04da435dbb17b5d9b1359e1e2a746a555436bfb7aeea78e1fbdf81e1c8664736f6c634300081e0033",
					"opcodes": "PUSH1 0x80 PUSH1 0x40 MSTORE CALLVALUE DUP1 ISZERO PUSH1 0xE JUMPI PUSH0 PUSH0 REVERT JUMPDEST POP PUSH2 0x518 DUP1 PUSH2 0x1C PUSH0 CODECOPY PUSH0 RETURN INVALID PUSH1 0x80 PUSH1 0x40 MSTORE CALLVALUE DUP1 ISZERO PUSH2 0xF JUMPI PUSH0 PUSH0 REVERT JUMPDEST POP PUSH1 0x4 CALLDATASIZE LT PUSH2 0x34 JUMPI PUSH0 CALLDATALOAD PUSH1 0xE0 SHR DUP1 PUSH4 0x7B019F89 EQ PUSH2 0x38 JUMPI DUP1 PUSH4 0xC04F01FC EQ PUSH2 0x68 JUMPI JUMPDEST PUSH0 PUSH0 REVERT JUMPDEST PUSH2 0x52 PUSH1 0x4 DUP1 CALLDATASIZE SUB DUP2 ADD SWAP1 PUSH2 0x4D SWAP2 SWAP1 PUSH2 0x1A3 JUMP JUMPDEST PUSH2 0x98 JUMP JUMPDEST PUSH1 0x40 MLOAD PUSH2 0x5F SWAP2 SWAP1 PUSH2 0x1DD JUMP JUMPDEST PUSH1 0x40 MLOAD DUP1 SWAP2 SUB SWAP1 RETURN JUMPDEST PUSH2 0x82 PUSH1 0x4 DUP1 CALLDATASIZE SUB DUP2 ADD SWAP1 PUSH2 0x7D SWAP2 SWAP1 PUSH2 0x1F6 JUMP JUMPDEST PUSH2 0x146 JUMP JUMPDEST PUSH1 0x40 MLOAD PUSH2 0x8F SWAP2 SWAP1 PUSH2 0x1DD JUMP JUMPDEST PUSH1 0x40 MLOAD DUP1 SWAP2 SUB SWAP1 RETURN JUMPDEST PUSH0 PUSH0 DUP3 LT ISZERO PUSH2 0xDC JUMPI PUSH1 0x40 MLOAD PUSH32 0x8C379A000000000000000000000000000000000000000000000000000000000 DUP2 MSTORE PUSH1 0x4 ADD PUSH2 0xD3 SWAP1 PUSH2 0x28E JUMP JUMPDEST PUSH1 0x40 MLOAD DUP1 SWAP2 SUB SWAP1 REVERT JUMPDEST PUSH0 DUP3 SUB PUSH2 0xEB JUMPI PUSH0 SWAP1 POP PUSH2 0x141 JUMP JUMPDEST PUSH0 PUSH1 0x2 DUP4 PUSH2 0xF9 SWAP2 SWAP1 PUSH2 0x306 JUMP JUMPDEST SWAP1 POP PUSH0 PUSH0 SWAP1 POP JUMPDEST PUSH1 0xA DUP2 LT ISZERO PUSH2 0x13B JUMPI PUSH1 0x2 DUP3 DUP6 PUSH2 0x117 SWAP2 SWAP1 PUSH2 0x306 JUMP JUMPDEST DUP4 PUSH2 0x122 SWAP2 SWAP1 PUSH2 0x336 JUMP JUMPDEST PUSH2 0x12C SWAP2 SWAP1 PUSH2 0x306 JUMP JUMPDEST SWAP2 POP DUP1 DUP1 PUSH1 0x1 ADD SWAP2 POP POP PUSH2 0x100 JUMP JUMPDEST POP DUP1 SWAP2 POP POP JUMPDEST SWAP2 SWAP1 POP JUMP JUMPDEST PUSH0 PUSH0 DUP3 SUB PUSH2 0x157 JUMPI PUSH1 0x1 SWAP1 POP PUSH2 0x166 JUMP JUMPDEST DUP2 DUP4 PUSH2 0x163 SWAP2 SWAP1 PUSH2 0x498 JUMP JUMPDEST SWAP1 POP JUMPDEST SWAP3 SWAP2 POP POP JUMP JUMPDEST PUSH0 PUSH0 REVERT JUMPDEST PUSH0 DUP2 SWAP1 POP SWAP2 SWAP1 POP JUMP JUMPDEST PUSH2 0x182 DUP2 PUSH2 0x170 JUMP JUMPDEST DUP2 EQ PUSH2 0x18C JUMPI PUSH0 PUSH0 REVERT JUMPDEST POP JUMP JUMPDEST PUSH0 DUP2 CALLDATALOAD SWAP1 POP PUSH2 0x19D DUP2 PUSH2 0x179 JUMP JUMPDEST SWAP3 SWAP2 POP POP JUMP JUMPDEST PUSH0 PUSH1 0x20 DUP3 DUP5 SUB SLT ISZERO PUSH2 0x1B8 JUMPI PUSH2 0x1B7 PUSH2 0x16C JUMP JUMPDEST JUMPDEST PUSH0 PUSH2 0x1C5 DUP5 DUP3 DUP6 ADD PUSH2 0x18F JUMP JUMPDEST SWAP2 POP POP SWAP3 SWAP2 POP POP JUMP JUMPDEST PUSH2 0x1D7 DUP2 PUSH2 0x170 JUMP JUMPDEST DUP3 MSTORE POP POP JUMP JUMPDEST PUSH0 PUSH1 0x20 DUP3 ADD SWAP1 POP PUSH2 0x1F0 PUSH0 DUP4 ADD DUP5 PUSH2 0x1CE JUMP JUMPDEST SWAP3 SWAP2 POP POP JUMP JUMPDEST PUSH0 PUSH0 PUSH1 0x40 DUP4 DUP6 SUB SLT ISZERO PUSH2 0x20C JUMPI PUSH2 0x20B PUSH2 0x16C JUMP JUMPDEST JUMPDEST PUSH0 PUSH2 0x219 DUP6 DUP3 DUP7 ADD PUSH2 0x18F JUMP JUMPDEST SWAP3 POP POP PUSH1 0x20 PUSH2 0x22A DUP6 DUP3 DUP7 ADD PUSH2 0x18F JUMP JUMPDEST SWAP2 POP POP SWAP3 POP SWAP3 SWAP1 POP JUMP JUMPDEST PUSH0 DUP3 DUP3 MSTORE PUSH1 0x20 DUP3 ADD SWAP1 POP SWAP3 SWAP2 POP POP JUMP JUMPDEST PUSH32 0x53686F756C64206E6F74206265206E656174697665206E756D6265722E000000 PUSH0 DUP3 ADD MSTORE POP JUMP JUMPDEST PUSH0 PUSH2 0x278 PUSH1 0x1D DUP4 PUSH2 0x234 JUMP JUMPDEST SWAP2 POP PUSH2 0x283 DUP3 PUSH2 0x244 JUMP JUMPDEST PUSH1 0x20 DUP3 ADD SWAP1 POP SWAP2 SWAP1 POP JUMP JUMPDEST PUSH0 PUSH1 0x20 DUP3 ADD SWAP1 POP DUP2 DUP2 SUB PUSH0 DUP4 ADD MSTORE PUSH2 0x2A5 DUP2 PUSH2 0x26C JUMP JUMPDEST SWAP1 POP SWAP2 SWAP1 POP JUMP JUMPDEST PUSH32 0x4E487B7100000000000000000000000000000000000000000000000000000000 PUSH0 MSTORE PUSH1 0x12 PUSH1 0x4 MSTORE PUSH1 0x24 PUSH0 REVERT JUMPDEST PUSH32 0x4E487B7100000000000000000000000000000000000000000000000000000000 PUSH0 MSTORE PUSH1 0x11 PUSH1 0x4 MSTORE PUSH1 0x24 PUSH0 REVERT JUMPDEST PUSH0 PUSH2 0x310 DUP3 PUSH2 0x170 JUMP JUMPDEST SWAP2 POP PUSH2 0x31B DUP4 PUSH2 0x170 JUMP JUMPDEST SWAP3 POP DUP3 PUSH2 0x32B JUMPI PUSH2 0x32A PUSH2 0x2AC JUMP JUMPDEST JUMPDEST DUP3 DUP3 DIV SWAP1 POP SWAP3 SWAP2 POP POP JUMP JUMPDEST PUSH0 PUSH2 0x340 DUP3 PUSH2 0x170 JUMP JUMPDEST SWAP2 POP PUSH2 0x34B DUP4 PUSH2 0x170 JUMP JUMPDEST SWAP3 POP DUP3 DUP3 ADD SWAP1 POP DUP1 DUP3 GT ISZERO PUSH2 0x363 JUMPI PUSH2 0x362 PUSH2 0x2D9 JUMP JUMPDEST JUMPDEST SWAP3 SWAP2 POP POP JUMP JUMPDEST PUSH0 DUP2 PUSH1 0x1 SHR SWAP1 POP SWAP2 SWAP1 POP JUMP JUMPDEST PUSH0 PUSH0 DUP3 SWAP2 POP DUP4 SWAP1 POP JUMPDEST PUSH1 0x1 DUP6 GT ISZERO PUSH2 0x3BE JUMPI DUP1 DUP7 DIV DUP2 GT ISZERO PUSH2 0x39A JUMPI PUSH2 0x399 PUSH2 0x2D9 JUMP JUMPDEST JUMPDEST PUSH1 0x1 DUP6 AND ISZERO PUSH2 0x3A9 JUMPI DUP1 DUP3 MUL SWAP2 POP JUMPDEST DUP1 DUP2 MUL SWAP1 POP PUSH2 0x3B7 DUP6 PUSH2 0x369 JUMP JUMPDEST SWAP5 POP PUSH2 0x37E JUMP JUMPDEST SWAP5 POP SWAP5 SWAP3 POP POP POP JUMP JUMPDEST PUSH0 DUP3 PUSH2 0x3D6 JUMPI PUSH1 0x1 SWAP1 POP PUSH2 0x491 JUMP JUMPDEST DUP2 PUSH2 0x3E3 JUMPI PUSH0 SWAP1 POP PUSH2 0x491 JUMP JUMPDEST DUP2 PUSH1 0x1 DUP2 EQ PUSH2 0x3F9 JUMPI PUSH1 0x2 DUP2 EQ PUSH2 0x403 JUMPI PUSH2 0x432 JUMP JUMPDEST PUSH1 0x1 SWAP2 POP POP PUSH2 0x491 JUMP JUMPDEST PUSH1 0xFF DUP5 GT ISZERO PUSH2 0x415 JUMPI PUSH2 0x414 PUSH2 0x2D9 JUMP JUMPDEST JUMPDEST DUP4 PUSH1 0x2 EXP SWAP2 POP DUP5 DUP3 GT ISZERO PUSH2 0x42C JUMPI PUSH2 0x42B PUSH2 0x2D9 JUMP JUMPDEST JUMPDEST POP PUSH2 0x491 JUMP JUMPDEST POP PUSH1 0x20 DUP4 LT PUSH2 0x133 DUP4 LT AND PUSH1 0x4E DUP5 LT PUSH1 0xB DUP5 LT AND OR ISZERO PUSH2 0x467 JUMPI DUP3 DUP3 EXP SWAP1 POP DUP4 DUP2 GT ISZERO PUSH2 0x462 JUMPI PUSH2 0x461 PUSH2 0x2D9 JUMP JUMPDEST JUMPDEST PUSH2 0x491 JUMP JUMPDEST PUSH2 0x474 DUP5 DUP5 DUP5 PUSH1 0x1 PUSH2 0x375 JUMP JUMPDEST SWAP3 POP SWAP1 POP DUP2 DUP5 DIV DUP2 GT ISZERO PUSH2 0x48B JUMPI PUSH2 0x48A PUSH2 0x2D9 JUMP JUMPDEST JUMPDEST DUP2 DUP2 MUL SWAP1 POP JUMPDEST SWAP4 SWAP3 POP POP POP JUMP JUMPDEST PUSH0 PUSH2 0x4A2 DUP3 PUSH2 0x170 JUMP JUMPDEST SWAP2 POP PUSH2 0x4AD DUP4 PUSH2 0x170 JUMP JUMPDEST SWAP3 POP PUSH2 0x4DA PUSH32 0xFFFFFFFFFFFFFFFFFFFFFFFFFFFFFFFFFFFFFFFFFFFFFFFFFFFFFFFFFFFFFFFF DUP5 DUP5 PUSH2 0x3C7 JUMP JUMPDEST SWAP1 POP SWAP3 SWAP2 POP POP JUMP INVALID LOG2 PUSH5 0x6970667358 0x22 SLT KECCAK256 CALLF 0x2DA0 0x4D LOG4 CALLDATALOAD 0xDB 0xB1 PUSH28 0x5D9B1359E1E2A746A555436BFB7AEEA78E1FBDF81E1C8664736F6C63 NUMBER STOP ADDMOD 0x1E STOP CALLER "
				},
				"gasEstimates": {
					"creation": {
						"codeDepositCost": "260800",
						"executionCost": "298",
						"totalCost": "261098"
					},
					"external": {
						"power(uint256,uint256)": "infinite",
						"squareRoot(uint256)": "infinite"
					}
				},
				"methodIdentifiers": {
					"power(uint256,uint256)": "c04f01fc",
					"squareRoot(uint256)": "7b019f89"
				}
			},
			"storageLayout": {
				"storage": [],
				"types": null
			},
			"userdoc": {
				"kind": "user",
				"methods": {},
				"version": 1
			}
		}
	}
}