{
	"submissions/Serena Y/Day23-SimpleLending.sol": {
		"SimpleLending": {
			"abi": [
				{
					"anonymous": false,
					"inputs": [
						{
							"indexed": true,
							"internalType": "address",
							"name": "user",
							"type": "address"
						},
						{
							"indexed": false,
							"internalType": "uint256",
							"name": "amount",
							"type": "uint256"
						}
					],
					"name": "Borrow",
					"type": "event"
				},
				{
					"anonymous": false,
					"inputs": [
						{
							"indexed": true,
							"internalType": "address",
							"name": "user",
							"type": "address"
						},
						{
							"indexed": false,
							"internalType": "uint256",
							"name": "amount",
							"type": "uint256"
						}
					],
					"name": "CollateralDeposited",
					"type": "event"
				},
				{
					"anonymous": false,
					"inputs": [
						{
							"indexed": true,
							"internalType": "address",
							"name": "user",
							"type": "address"
						},
						{
							"indexed": false,
							"internalType": "uint256",
							"name": "amount",
							"type": "uint256"
						}
					],
					"name": "CollateralWithdrawn",
					"type": "event"
				},
				{
					"anonymous": false,
					"inputs": [
						{
							"indexed": true,
							"internalType": "address",
							"name": "user",
							"type": "address"
						},
						{
							"indexed": false,
							"internalType": "uint256",
							"name": "amount",
							"type": "uint256"
						}
					],
					"name": "Deposit",
					"type": "event"
				},
				{
					"anonymous": false,
					"inputs": [
						{
							"indexed": true,
							"internalType": "address",
							"name": "user",
							"type": "address"
						},
						{
							"indexed": false,
							"internalType": "uint256",
							"name": "amount",
							"type": "uint256"
						}
					],
					"name": "Repay",
					"type": "event"
				},
				{
					"anonymous": false,
					"inputs": [
						{
							"indexed": true,
							"internalType": "address",
							"name": "user",
							"type": "address"
						},
						{
							"indexed": false,
							"internalType": "uint256",
							"name": "amount",
							"type": "uint256"
						}
					],
					"name": "Withdraw",
					"type": "event"
				},
				{
					"inputs": [
						{
							"internalType": "uint256",
							"name": "amount",
							"type": "uint256"
						}
					],
					"name": "borrow",
					"outputs": [],
					"stateMutability": "nonpayable",
					"type": "function"
				},
				{
					"inputs": [
						{
							"internalType": "address",
							"name": "",
							"type": "address"
						}
					],
					"name": "borrowBalances",
					"outputs": [
						{
							"internalType": "uint256",
							"name": "",
							"type": "uint256"
						}
					],
					"stateMutability": "view",
					"type": "function"
				},
				{
					"inputs": [
						{
							"internalType": "address",
							"name": "user",
							"type": "address"
						}
					],
					"name": "calculateInterestAccrued",
					"outputs": [
						{
							"internalType": "uint256",
							"name": "",
							"type": "uint256"
						}
					],
					"stateMutability": "view",
					"type": "function"
				},
				{
					"inputs": [
						{
							"internalType": "address",
							"name": "",
							"type": "address"
						}
					],
					"name": "collateralBalances",
					"outputs": [
						{
							"internalType": "uint256",
							"name": "",
							"type": "uint256"
						}
					],
					"stateMutability": "view",
					"type": "function"
				},
				{
					"inputs": [],
					"name": "collateralFactorBasisPoints",
					"outputs": [
						{
							"internalType": "uint256",
							"name": "",
							"type": "uint256"
						}
					],
					"stateMutability": "view",
					"type": "function"
				},
				{
					"inputs": [],
					"name": "deposit",
					"outputs": [],
					"stateMutability": "payable",
					"type": "function"
				},
				{
					"inputs": [
						{
							"internalType": "address",
							"name": "",
							"type": "address"
						}
					],
					"name": "depositBalances",
					"outputs": [
						{
							"internalType": "uint256",
							"name": "",
							"type": "uint256"
						}
					],
					"stateMutability": "view",
					"type": "function"
				},
				{
					"inputs": [],
					"name": "depositCollateral",
					"outputs": [],
					"stateMutability": "payable",
					"type": "function"
				},
				{
					"inputs": [
						{
							"internalType": "address",
							"name": "user",
							"type": "address"
						}
					],
					"name": "getMaxBorrowAmount",
					"outputs": [
						{
							"internalType": "uint256",
							"name": "",
							"type": "uint256"
						}
					],
					"stateMutability": "view",
					"type": "function"
				},
				{
					"inputs": [],
					"name": "getTotalLiquidity",
					"outputs": [
						{
							"internalType": "uint256",
							"name": "",
							"type": "uint256"
						}
					],
					"stateMutability": "view",
					"type": "function"
				},
				{
					"inputs": [],
					"name": "interestRateBasisPoints",
					"outputs": [
						{
							"internalType": "uint256",
							"name": "",
							"type": "uint256"
						}
					],
					"stateMutability": "view",
					"type": "function"
				},
				{
					"inputs": [
						{
							"internalType": "address",
							"name": "",
							"type": "address"
						}
					],
					"name": "lastInterestAccrualTimestamp",
					"outputs": [
						{
							"internalType": "uint256",
							"name": "",
							"type": "uint256"
						}
					],
					"stateMutability": "view",
					"type": "function"
				},
				{
					"inputs": [],
					"name": "repay",
					"outputs": [],
					"stateMutability": "payable",
					"type": "function"
				},
				{
					"inputs": [
						{
							"internalType": "uint256",
							"name": "amount",
							"type": "uint256"
						}
					],
					"name": "withdraw",
					"outputs": [],
					"stateMutability": "nonpayable",
					"type": "function"
				},
				{
					"inputs": [
						{
							"internalType": "uint256",
							"name": "amount",
							"type": "uint256"
						}
					],
					"name": "withdrawCollateral",
					"outputs": [],
					"stateMutability": "nonpayable",
					"type": "function"
				}
			],
			"devdoc": {
				"details": "A basic DeFi lending and borrowing platform",
				"kind": "dev",
				"methods": {},
				"title": "SimpleLending",
				"version": 1
			},
			"evm": {
				"assembly": "    /* \"submissions/Serena Y/Day23-SimpleLending.sol\":148:7589  contract SimpleLending {... */\n  mstore(0x40, 0x80)\n    /* \"submissions/Serena Y/Day23-SimpleLending.sol\":780:783  500 */\n  0x01f4\n    /* \"submissions/Serena Y/Day23-SimpleLending.sol\":739:783  uint256 public interestRateBasisPoints = 500 */\n  0x03\n  sstore\n    /* \"submissions/Serena Y/Day23-SimpleLending.sol\":1003:1007  7500 */\n  0x1d4c\n    /* \"submissions/Serena Y/Day23-SimpleLending.sol\":958:1007  uint256 public collateralFactorBasisPoints = 7500 */\n  0x04\n  sstore\n    /* \"submissions/Serena Y/Day23-SimpleLending.sol\":148:7589  contract SimpleLending {... */\n  callvalue\n  dup1\n  iszero\n  tag_1\n  jumpi\n  revert(0x00, 0x00)\ntag_1:\n  pop\n  dataSize(sub_0)\n  dup1\n  dataOffset(sub_0)\n  0x00\n  codecopy\n  0x00\n  return\nstop\n\nsub_0: assembly {\n        /* \"submissions/Serena Y/Day23-SimpleLending.sol\":148:7589  contract SimpleLending {... */\n      mstore(0x40, 0x80)\n      jumpi(tag_1, lt(calldatasize, 0x04))\n      shr(0xe0, calldataload(0x00))\n      dup1\n      0x4b79cb0f\n      gt\n      tag_17\n      jumpi\n      dup1\n      0x94e1373c\n      gt\n      tag_18\n      jumpi\n      dup1\n      0x94e1373c\n      eq\n      tag_13\n      jumpi\n      dup1\n      0xc5ebeaec\n      eq\n      tag_14\n      jumpi\n      dup1\n      0xd0e30db0\n      eq\n      tag_15\n      jumpi\n      dup1\n      0xd6f769d8\n      eq\n      tag_16\n      jumpi\n      jump(tag_1)\n    tag_18:\n      dup1\n      0x4b79cb0f\n      eq\n      tag_9\n      jumpi\n      dup1\n      0x6112fe2e\n      eq\n      tag_10\n      jumpi\n      dup1\n      0x6f758140\n      eq\n      tag_11\n      jumpi\n      dup1\n      0x85d06c45\n      eq\n      tag_12\n      jumpi\n      jump(tag_1)\n    tag_17:\n      dup1\n      0x2e1a7d4d\n      gt\n      tag_19\n      jumpi\n      dup1\n      0x2e1a7d4d\n      eq\n      tag_5\n      jumpi\n      dup1\n      0x35c7e925\n      eq\n      tag_6\n      jumpi\n      dup1\n      0x402d8883\n      eq\n      tag_7\n      jumpi\n      dup1\n      0x481bd6af\n      eq\n      tag_8\n      jumpi\n      jump(tag_1)\n    tag_19:\n      dup1\n      0x1eb903cf\n      eq\n      tag_2\n      jumpi\n      dup1\n      0x2322abf3\n      eq\n      tag_3\n      jumpi\n      dup1\n      0x29bc969d\n      eq\n      tag_4\n      jumpi\n    tag_1:\n      revert(0x00, 0x00)\n        /* \"submissions/Serena Y/Day23-SimpleLending.sol\":215:265  mapping(address => uint256) public depositBalances */\n    tag_2:\n      callvalue\n      dup1\n      iszero\n      tag_20\n      jumpi\n      revert(0x00, 0x00)\n    tag_20:\n      pop\n      tag_21\n      0x04\n      dup1\n      calldatasize\n      sub\n      dup2\n      add\n      swap1\n      tag_22\n      swap2\n      swap1\n      tag_23\n      jump\t// in\n    tag_22:\n      tag_24\n      jump\t// in\n    tag_21:\n      mload(0x40)\n      tag_25\n      swap2\n      swap1\n      tag_26\n      jump\t// in\n    tag_25:\n      mload(0x40)\n      dup1\n      swap2\n      sub\n      swap1\n      return\n        /* \"submissions/Serena Y/Day23-SimpleLending.sol\":739:783  uint256 public interestRateBasisPoints = 500 */\n    tag_3:\n      callvalue\n      dup1\n      iszero\n      tag_27\n      jumpi\n      revert(0x00, 0x00)\n    tag_27:\n      pop\n      tag_28\n      tag_29\n      jump\t// in\n    tag_28:\n      mload(0x40)\n      tag_30\n      swap2\n      swap1\n      tag_26\n      jump\t// in\n    tag_30:\n      mload(0x40)\n      dup1\n      swap2\n      sub\n      swap1\n      return\n        /* \"submissions/Serena Y/Day23-SimpleLending.sol\":496:549  mapping(address => uint256) public collateralBalances */\n    tag_4:\n      callvalue\n      dup1\n      iszero\n      tag_31\n      jumpi\n      revert(0x00, 0x00)\n    tag_31:\n      pop\n      tag_32\n      0x04\n      dup1\n      calldatasize\n      sub\n      dup2\n      add\n      swap1\n      tag_33\n      swap2\n      swap1\n      tag_23\n      jump\t// in\n    tag_33:\n      tag_34\n      jump\t// in\n    tag_32:\n      mload(0x40)\n      tag_35\n      swap2\n      swap1\n      tag_26\n      jump\t// in\n    tag_35:\n      mload(0x40)\n      dup1\n      swap2\n      sub\n      swap1\n      return\n        /* \"submissions/Serena Y/Day23-SimpleLending.sol\":2308:2826  function withdraw(uint256 amount) external {//提现... */\n    tag_5:\n      callvalue\n      dup1\n      iszero\n      tag_36\n      jumpi\n      revert(0x00, 0x00)\n    tag_36:\n      pop\n      tag_37\n      0x04\n      dup1\n      calldatasize\n      sub\n      dup2\n      add\n      swap1\n      tag_38\n      swap2\n      swap1\n      tag_39\n      jump\t// in\n    tag_38:\n      tag_40\n      jump\t// in\n    tag_37:\n      stop\n        /* \"submissions/Serena Y/Day23-SimpleLending.sol\":7403:7586  function getTotalLiquidity() external view returns (uint256) {... */\n    tag_6:\n      callvalue\n      dup1\n      iszero\n      tag_41\n      jumpi\n      revert(0x00, 0x00)\n    tag_41:\n      pop\n      tag_42\n      tag_43\n      jump\t// in\n    tag_42:\n      mload(0x40)\n      tag_44\n      swap2\n      swap1\n      tag_26\n      jump\t// in\n    tag_44:\n      mload(0x40)\n      dup1\n      swap2\n      sub\n      swap1\n      return\n        /* \"submissions/Serena Y/Day23-SimpleLending.sol\":5423:6392  function repay() external payable {... */\n    tag_7:\n      tag_45\n      tag_46\n      jump\t// in\n    tag_45:\n      stop\n        /* \"submissions/Serena Y/Day23-SimpleLending.sol\":1167:1230  mapping(address => uint256) public lastInterestAccrualTimestamp */\n    tag_8:\n      callvalue\n      dup1\n      iszero\n      tag_47\n      jumpi\n      revert(0x00, 0x00)\n    tag_47:\n      pop\n      tag_48\n      0x04\n      dup1\n      calldatasize\n      sub\n      dup2\n      add\n      swap1\n      tag_49\n      swap2\n      swap1\n      tag_23\n      jump\t// in\n    tag_49:\n      tag_50\n      jump\t// in\n    tag_48:\n      mload(0x40)\n      tag_51\n      swap2\n      swap1\n      tag_26\n      jump\t// in\n    tag_51:\n      mload(0x40)\n      dup1\n      swap2\n      sub\n      swap1\n      return\n        /* \"submissions/Serena Y/Day23-SimpleLending.sol\":7127:7395  function getMaxBorrowAmount(address user) external view returns (uint256) {... */\n    tag_9:\n      callvalue\n      dup1\n      iszero\n      tag_52\n      jumpi\n      revert(0x00, 0x00)\n    tag_52:\n      pop\n      tag_53\n      0x04\n      dup1\n      calldatasize\n      sub\n      dup2\n      add\n      swap1\n      tag_54\n      swap2\n      swap1\n      tag_23\n      jump\t// in\n    tag_54:\n      tag_55\n      jump\t// in\n    tag_53:\n      mload(0x40)\n      tag_56\n      swap2\n      swap1\n      tag_26\n      jump\t// in\n    tag_56:\n      mload(0x40)\n      dup1\n      swap2\n      sub\n      swap1\n      return\n        /* \"submissions/Serena Y/Day23-SimpleLending.sol\":3202:4242  function withdrawCollateral(uint256 amount) external {//提取抵押款... */\n    tag_10:\n      callvalue\n      dup1\n      iszero\n      tag_57\n      jumpi\n      revert(0x00, 0x00)\n    tag_57:\n      pop\n      tag_58\n      0x04\n      dup1\n      calldatasize\n      sub\n      dup2\n      add\n      swap1\n      tag_59\n      swap2\n      swap1\n      tag_39\n      jump\t// in\n    tag_59:\n      tag_60\n      jump\t// in\n    tag_58:\n      stop\n        /* \"submissions/Serena Y/Day23-SimpleLending.sol\":2834:3194  function depositCollateral() external payable {//存入抵押... */\n    tag_11:\n      tag_61\n      tag_62\n      jump\t// in\n    tag_61:\n      stop\n        /* \"submissions/Serena Y/Day23-SimpleLending.sol\":958:1007  uint256 public collateralFactorBasisPoints = 7500 */\n    tag_12:\n      callvalue\n      dup1\n      iszero\n      tag_63\n      jumpi\n      revert(0x00, 0x00)\n    tag_63:\n      pop\n      tag_64\n      tag_65\n      jump\t// in\n    tag_64:\n      mload(0x40)\n      tag_66\n      swap2\n      swap1\n      tag_26\n      jump\t// in\n    tag_66:\n      mload(0x40)\n      dup1\n      swap2\n      sub\n      swap1\n      return\n        /* \"submissions/Serena Y/Day23-SimpleLending.sol\":364:413  mapping(address => uint256) public borrowBalances */\n    tag_13:\n      callvalue\n      dup1\n      iszero\n      tag_67\n      jumpi\n      revert(0x00, 0x00)\n    tag_67:\n      pop\n      tag_68\n      0x04\n      dup1\n      calldatasize\n      sub\n      dup2\n      add\n      swap1\n      tag_69\n      swap2\n      swap1\n      tag_23\n      jump\t// in\n    tag_69:\n      tag_70\n      jump\t// in\n    tag_68:\n      mload(0x40)\n      tag_71\n      swap2\n      swap1\n      tag_26\n      jump\t// in\n    tag_71:\n      mload(0x40)\n      dup1\n      swap2\n      sub\n      swap1\n      return\n        /* \"submissions/Serena Y/Day23-SimpleLending.sol\":4250:5415  function borrow(uint256 amount) external {... */\n    tag_14:\n      callvalue\n      dup1\n      iszero\n      tag_72\n      jumpi\n      revert(0x00, 0x00)\n    tag_72:\n      pop\n      tag_73\n      0x04\n      dup1\n      calldatasize\n      sub\n      dup2\n      add\n      swap1\n      tag_74\n      swap2\n      swap1\n      tag_39\n      jump\t// in\n    tag_74:\n      tag_75\n      jump\t// in\n    tag_73:\n      stop\n        /* \"submissions/Serena Y/Day23-SimpleLending.sol\":1995:2300  function deposit() external payable {//存入eth... */\n    tag_15:\n      tag_76\n      tag_77\n      jump\t// in\n    tag_76:\n      stop\n        /* \"submissions/Serena Y/Day23-SimpleLending.sol\":6400:7119  function calculateInterestAccrued(address user) public view returns (uint256) {... */\n    tag_16:\n      callvalue\n      dup1\n      iszero\n      tag_78\n      jumpi\n      revert(0x00, 0x00)\n    tag_78:\n      pop\n      tag_79\n      0x04\n      dup1\n      calldatasize\n      sub\n      dup2\n      add\n      swap1\n      tag_80\n      swap2\n      swap1\n      tag_23\n      jump\t// in\n    tag_80:\n      tag_81\n      jump\t// in\n    tag_79:\n      mload(0x40)\n      tag_82\n      swap2\n      swap1\n      tag_26\n      jump\t// in\n    tag_82:\n      mload(0x40)\n      dup1\n      swap2\n      sub\n      swap1\n      return\n        /* \"submissions/Serena Y/Day23-SimpleLending.sol\":215:265  mapping(address => uint256) public depositBalances */\n    tag_24:\n      mstore(0x20, 0x00)\n      dup1\n      0x00\n      mstore\n      keccak256(0x00, 0x40)\n      0x00\n      swap2\n      pop\n      swap1\n      pop\n      sload\n      dup2\n      jump\t// out\n        /* \"submissions/Serena Y/Day23-SimpleLending.sol\":739:783  uint256 public interestRateBasisPoints = 500 */\n    tag_29:\n      sload(0x03)\n      dup2\n      jump\t// out\n        /* \"submissions/Serena Y/Day23-SimpleLending.sol\":496:549  mapping(address => uint256) public collateralBalances */\n    tag_34:\n      mstore(0x20, 0x02)\n      dup1\n      0x00\n      mstore\n      keccak256(0x00, 0x40)\n      0x00\n      swap2\n      pop\n      swap1\n      pop\n      sload\n      dup2\n      jump\t// out\n        /* \"submissions/Serena Y/Day23-SimpleLending.sol\":2308:2826  function withdraw(uint256 amount) external {//提现... */\n    tag_40:\n        /* \"submissions/Serena Y/Day23-SimpleLending.sol\":2387:2388  0 */\n      0x00\n        /* \"submissions/Serena Y/Day23-SimpleLending.sol\":2378:2384  amount */\n      dup2\n        /* \"submissions/Serena Y/Day23-SimpleLending.sol\":2378:2388  amount > 0 */\n      gt\n        /* \"submissions/Serena Y/Day23-SimpleLending.sol\":2370:2424  require(amount > 0, \"Must withdraw a positive amount\") */\n      tag_84\n      jumpi\n      mload(0x40)\n      0x08c379a000000000000000000000000000000000000000000000000000000000\n      dup2\n      mstore\n      0x04\n      add\n      tag_85\n      swap1\n      tag_86\n      jump\t// in\n    tag_85:\n      mload(0x40)\n      dup1\n      swap2\n      sub\n      swap1\n      revert\n    tag_84:\n        /* \"submissions/Serena Y/Day23-SimpleLending.sol\":2495:2501  amount */\n      dup1\n        /* \"submissions/Serena Y/Day23-SimpleLending.sol\":2464:2479  depositBalances */\n      0x00\n        /* \"submissions/Serena Y/Day23-SimpleLending.sol\":2464:2491  depositBalances[msg.sender] */\n      0x00\n        /* \"submissions/Serena Y/Day23-SimpleLending.sol\":2480:2490  msg.sender */\n      caller\n        /* \"submissions/Serena Y/Day23-SimpleLending.sol\":2464:2491  depositBalances[msg.sender] */\n      0xffffffffffffffffffffffffffffffffffffffff\n      and\n      0xffffffffffffffffffffffffffffffffffffffff\n      and\n      dup2\n      mstore\n      0x20\n      add\n      swap1\n      dup2\n      mstore\n      0x20\n      add\n      0x00\n      keccak256\n      sload\n        /* \"submissions/Serena Y/Day23-SimpleLending.sol\":2464:2501  depositBalances[msg.sender] >= amount */\n      lt\n      iszero\n        /* \"submissions/Serena Y/Day23-SimpleLending.sol\":2456:2526  require(depositBalances[msg.sender] >= amount, \"Insufficient balance\") */\n      tag_87\n      jumpi\n      mload(0x40)\n      0x08c379a000000000000000000000000000000000000000000000000000000000\n      dup2\n      mstore\n      0x04\n      add\n      tag_88\n      swap1\n      tag_89\n      jump\t// in\n    tag_88:\n      mload(0x40)\n      dup1\n      swap2\n      sub\n      swap1\n      revert\n    tag_87:\n        /* \"submissions/Serena Y/Day23-SimpleLending.sol\":2600:2606  amount */\n      dup1\n        /* \"submissions/Serena Y/Day23-SimpleLending.sol\":2569:2584  depositBalances */\n      0x00\n        /* \"submissions/Serena Y/Day23-SimpleLending.sol\":2569:2596  depositBalances[msg.sender] */\n      0x00\n        /* \"submissions/Serena Y/Day23-SimpleLending.sol\":2585:2595  msg.sender */\n      caller\n        /* \"submissions/Serena Y/Day23-SimpleLending.sol\":2569:2596  depositBalances[msg.sender] */\n      0xffffffffffffffffffffffffffffffffffffffff\n      and\n      0xffffffffffffffffffffffffffffffffffffffff\n      and\n      dup2\n      mstore\n      0x20\n      add\n      swap1\n      dup2\n      mstore\n      0x20\n      add\n      0x00\n      keccak256\n      0x00\n        /* \"submissions/Serena Y/Day23-SimpleLending.sol\":2569:2606  depositBalances[msg.sender] -= amount */\n      dup3\n      dup3\n      sload\n      tag_90\n      swap2\n      swap1\n      tag_91\n      jump\t// in\n    tag_90:\n      swap3\n      pop\n      pop\n      dup2\n      swap1\n      sstore\n      pop\n        /* \"submissions/Serena Y/Day23-SimpleLending.sol\":2657:2667  msg.sender */\n      caller\n        /* \"submissions/Serena Y/Day23-SimpleLending.sol\":2649:2677  payable(msg.sender).transfer */\n      0xffffffffffffffffffffffffffffffffffffffff\n      and\n        /* \"submissions/Serena Y/Day23-SimpleLending.sol\":2649:2685  payable(msg.sender).transfer(amount) */\n      0x08fc\n        /* \"submissions/Serena Y/Day23-SimpleLending.sol\":2678:2684  amount */\n      dup3\n        /* \"submissions/Serena Y/Day23-SimpleLending.sol\":2649:2685  payable(msg.sender).transfer(amount) */\n      swap1\n      dup2\n      iszero\n      mul\n      swap1\n      mload(0x40)\n      0x00\n      mload(0x40)\n      dup1\n      dup4\n      sub\n      dup2\n      dup6\n      dup9\n      dup9\n      call\n      swap4\n      pop\n      pop\n      pop\n      pop\n      iszero\n      dup1\n      iszero\n      tag_93\n      jumpi\n      returndatacopy(0x00, 0x00, returndatasize)\n      revert(0x00, returndatasize)\n    tag_93:\n      pop\n        /* \"submissions/Serena Y/Day23-SimpleLending.sol\":2756:2766  msg.sender */\n      caller\n        /* \"submissions/Serena Y/Day23-SimpleLending.sol\":2747:2775  Withdraw(msg.sender, amount) */\n      0xffffffffffffffffffffffffffffffffffffffff\n      and\n      0x884edad9ce6fa2440d8a54cc123490eb96d2768479d49ff9c7366125a9424364\n        /* \"submissions/Serena Y/Day23-SimpleLending.sol\":2768:2774  amount */\n      dup3\n        /* \"submissions/Serena Y/Day23-SimpleLending.sol\":2747:2775  Withdraw(msg.sender, amount) */\n      mload(0x40)\n      tag_94\n      swap2\n      swap1\n      tag_26\n      jump\t// in\n    tag_94:\n      mload(0x40)\n      dup1\n      swap2\n      sub\n      swap1\n      log2\n        /* \"submissions/Serena Y/Day23-SimpleLending.sol\":2308:2826  function withdraw(uint256 amount) external {//提现... */\n      pop\n      jump\t// out\n        /* \"submissions/Serena Y/Day23-SimpleLending.sol\":7403:7586  function getTotalLiquidity() external view returns (uint256) {... */\n    tag_43:\n        /* \"submissions/Serena Y/Day23-SimpleLending.sol\":7455:7462  uint256 */\n      0x00\n        /* \"submissions/Serena Y/Day23-SimpleLending.sol\":7515:7536  address(this).balance */\n      selfbalance\n        /* \"submissions/Serena Y/Day23-SimpleLending.sol\":7508:7536  return address(this).balance */\n      swap1\n      pop\n        /* \"submissions/Serena Y/Day23-SimpleLending.sol\":7403:7586  function getTotalLiquidity() external view returns (uint256) {... */\n      swap1\n      jump\t// out\n        /* \"submissions/Serena Y/Day23-SimpleLending.sol\":5423:6392  function repay() external payable {... */\n    tag_46:\n        /* \"submissions/Serena Y/Day23-SimpleLending.sol\":5518:5519  0 */\n      0x00\n        /* \"submissions/Serena Y/Day23-SimpleLending.sol\":5506:5515  msg.value */\n      callvalue\n        /* \"submissions/Serena Y/Day23-SimpleLending.sol\":5506:5519  msg.value > 0 */\n      gt\n        /* \"submissions/Serena Y/Day23-SimpleLending.sol\":5498:5552  require(msg.value > 0, \"Must repay a positive amount\") */\n      tag_97\n      jumpi\n      mload(0x40)\n      0x08c379a000000000000000000000000000000000000000000000000000000000\n      dup2\n      mstore\n      0x04\n      add\n      tag_98\n      swap1\n      tag_99\n      jump\t// in\n    tag_98:\n      mload(0x40)\n      dup1\n      swap2\n      sub\n      swap1\n      revert\n    tag_97:\n        /* \"submissions/Serena Y/Day23-SimpleLending.sol\":5600:5619  uint256 currentDebt */\n      0x00\n        /* \"submissions/Serena Y/Day23-SimpleLending.sol\":5622:5658  calculateInterestAccrued(msg.sender) */\n      tag_100\n        /* \"submissions/Serena Y/Day23-SimpleLending.sol\":5647:5657  msg.sender */\n      caller\n        /* \"submissions/Serena Y/Day23-SimpleLending.sol\":5622:5646  calculateInterestAccrued */\n      tag_81\n        /* \"submissions/Serena Y/Day23-SimpleLending.sol\":5622:5658  calculateInterestAccrued(msg.sender) */\n      jump\t// in\n    tag_100:\n        /* \"submissions/Serena Y/Day23-SimpleLending.sol\":5600:5658  uint256 currentDebt = calculateInterestAccrued(msg.sender) */\n      swap1\n      pop\n        /* \"submissions/Serena Y/Day23-SimpleLending.sol\":5727:5728  0 */\n      0x00\n        /* \"submissions/Serena Y/Day23-SimpleLending.sol\":5713:5724  currentDebt */\n      dup2\n        /* \"submissions/Serena Y/Day23-SimpleLending.sol\":5713:5728  currentDebt > 0 */\n      gt\n        /* \"submissions/Serena Y/Day23-SimpleLending.sol\":5705:5749  require(currentDebt > 0, \"No debt to repay\") */\n      tag_101\n      jumpi\n      mload(0x40)\n      0x08c379a000000000000000000000000000000000000000000000000000000000\n      dup2\n      mstore\n      0x04\n      add\n      tag_102\n      swap1\n      tag_103\n      jump\t// in\n    tag_102:\n      mload(0x40)\n      dup1\n      swap2\n      sub\n      swap1\n      revert\n    tag_101:\n        /* \"submissions/Serena Y/Day23-SimpleLending.sol\":5805:5826  uint256 amountToRepay */\n      0x00\n        /* \"submissions/Serena Y/Day23-SimpleLending.sol\":5829:5838  msg.value */\n      callvalue\n        /* \"submissions/Serena Y/Day23-SimpleLending.sol\":5805:5838  uint256 amountToRepay = msg.value */\n      swap1\n      pop\n        /* \"submissions/Serena Y/Day23-SimpleLending.sol\":5883:5894  currentDebt */\n      dup2\n        /* \"submissions/Serena Y/Day23-SimpleLending.sol\":5867:5880  amountToRepay */\n      dup2\n        /* \"submissions/Serena Y/Day23-SimpleLending.sol\":5867:5894  amountToRepay > currentDebt */\n      gt\n        /* \"submissions/Serena Y/Day23-SimpleLending.sol\":5863:6112  if (amountToRepay > currentDebt) {//如果还款金额大于总欠款... */\n      iszero\n      tag_104\n      jumpi\n        /* \"submissions/Serena Y/Day23-SimpleLending.sol\":5962:5973  currentDebt */\n      dup2\n        /* \"submissions/Serena Y/Day23-SimpleLending.sol\":5946:5973  amountToRepay = currentDebt */\n      swap1\n      pop\n        /* \"submissions/Serena Y/Day23-SimpleLending.sol\":6025:6035  msg.sender */\n      caller\n        /* \"submissions/Serena Y/Day23-SimpleLending.sol\":6017:6045  payable(msg.sender).transfer */\n      0xffffffffffffffffffffffffffffffffffffffff\n      and\n        /* \"submissions/Serena Y/Day23-SimpleLending.sol\":6017:6070  payable(msg.sender).transfer(msg.value - currentDebt) */\n      0x08fc\n        /* \"submissions/Serena Y/Day23-SimpleLending.sol\":6058:6069  currentDebt */\n      dup4\n        /* \"submissions/Serena Y/Day23-SimpleLending.sol\":6046:6055  msg.value */\n      callvalue\n        /* \"submissions/Serena Y/Day23-SimpleLending.sol\":6046:6069  msg.value - currentDebt */\n      tag_105\n      swap2\n      swap1\n      tag_91\n      jump\t// in\n    tag_105:\n        /* \"submissions/Serena Y/Day23-SimpleLending.sol\":6017:6070  payable(msg.sender).transfer(msg.value - currentDebt) */\n      swap1\n      dup2\n      iszero\n      mul\n      swap1\n      mload(0x40)\n      0x00\n      mload(0x40)\n      dup1\n      dup4\n      sub\n      dup2\n      dup6\n      dup9\n      dup9\n      call\n      swap4\n      pop\n      pop\n      pop\n      pop\n      iszero\n      dup1\n      iszero\n      tag_107\n      jumpi\n      returndatacopy(0x00, 0x00, returndatasize)\n      revert(0x00, returndatasize)\n    tag_107:\n      pop\n        /* \"submissions/Serena Y/Day23-SimpleLending.sol\":5863:6112  if (amountToRepay > currentDebt) {//如果还款金额大于总欠款... */\n    tag_104:\n        /* \"submissions/Serena Y/Day23-SimpleLending.sol\":6167:6180  amountToRepay */\n      dup1\n        /* \"submissions/Serena Y/Day23-SimpleLending.sol\":6153:6164  currentDebt */\n      dup3\n        /* \"submissions/Serena Y/Day23-SimpleLending.sol\":6153:6180  currentDebt - amountToRepay */\n      tag_108\n      swap2\n      swap1\n      tag_91\n      jump\t// in\n    tag_108:\n        /* \"submissions/Serena Y/Day23-SimpleLending.sol\":6124:6138  borrowBalances */\n      0x01\n        /* \"submissions/Serena Y/Day23-SimpleLending.sol\":6124:6150  borrowBalances[msg.sender] */\n      0x00\n        /* \"submissions/Serena Y/Day23-SimpleLending.sol\":6139:6149  msg.sender */\n      caller\n        /* \"submissions/Serena Y/Day23-SimpleLending.sol\":6124:6150  borrowBalances[msg.sender] */\n      0xffffffffffffffffffffffffffffffffffffffff\n      and\n      0xffffffffffffffffffffffffffffffffffffffff\n      and\n      dup2\n      mstore\n      0x20\n      add\n      swap1\n      dup2\n      mstore\n      0x20\n      add\n      0x00\n      keccak256\n        /* \"submissions/Serena Y/Day23-SimpleLending.sol\":6124:6180  borrowBalances[msg.sender] = currentDebt - amountToRepay */\n      dup2\n      swap1\n      sstore\n      pop\n        /* \"submissions/Serena Y/Day23-SimpleLending.sol\":6273:6288  block.timestamp */\n      timestamp\n        /* \"submissions/Serena Y/Day23-SimpleLending.sol\":6230:6258  lastInterestAccrualTimestamp */\n      0x05\n        /* \"submissions/Serena Y/Day23-SimpleLending.sol\":6230:6270  lastInterestAccrualTimestamp[msg.sender] */\n      0x00\n        /* \"submissions/Serena Y/Day23-SimpleLending.sol\":6259:6269  msg.sender */\n      caller\n        /* \"submissions/Serena Y/Day23-SimpleLending.sol\":6230:6270  lastInterestAccrualTimestamp[msg.sender] */\n      0xffffffffffffffffffffffffffffffffffffffff\n      and\n      0xffffffffffffffffffffffffffffffffffffffff\n      and\n      dup2\n      mstore\n      0x20\n      add\n      swap1\n      dup2\n      mstore\n      0x20\n      add\n      0x00\n      keccak256\n        /* \"submissions/Serena Y/Day23-SimpleLending.sol\":6230:6288  lastInterestAccrualTimestamp[msg.sender] = block.timestamp */\n      dup2\n      swap1\n      sstore\n      pop\n        /* \"submissions/Serena Y/Day23-SimpleLending.sol\":6329:6339  msg.sender */\n      caller\n        /* \"submissions/Serena Y/Day23-SimpleLending.sol\":6323:6355  Repay(msg.sender, amountToRepay) */\n      0xffffffffffffffffffffffffffffffffffffffff\n      and\n      0x5c16de4f8b59bd9caf0f49a545f25819a895ed223294290b408242e72a594231\n        /* \"submissions/Serena Y/Day23-SimpleLending.sol\":6341:6354  amountToRepay */\n      dup3\n        /* \"submissions/Serena Y/Day23-SimpleLending.sol\":6323:6355  Repay(msg.sender, amountToRepay) */\n      mload(0x40)\n      tag_109\n      swap2\n      swap1\n      tag_26\n      jump\t// in\n    tag_109:\n      mload(0x40)\n      dup1\n      swap2\n      sub\n      swap1\n      log2\n        /* \"submissions/Serena Y/Day23-SimpleLending.sol\":5457:6392  {... */\n      pop\n      pop\n        /* \"submissions/Serena Y/Day23-SimpleLending.sol\":5423:6392  function repay() external payable {... */\n      jump\t// out\n        /* \"submissions/Serena Y/Day23-SimpleLending.sol\":1167:1230  mapping(address => uint256) public lastInterestAccrualTimestamp */\n    tag_50:\n      mstore(0x20, 0x05)\n      dup1\n      0x00\n      mstore\n      keccak256(0x00, 0x40)\n      0x00\n      swap2\n      pop\n      swap1\n      pop\n      sload\n      dup2\n      jump\t// out\n        /* \"submissions/Serena Y/Day23-SimpleLending.sol\":7127:7395  function getMaxBorrowAmount(address user) external view returns (uint256) {... */\n    tag_55:\n        /* \"submissions/Serena Y/Day23-SimpleLending.sol\":7192:7199  uint256 */\n      0x00\n        /* \"submissions/Serena Y/Day23-SimpleLending.sol\":7318:7323  10000 */\n      0x2710\n        /* \"submissions/Serena Y/Day23-SimpleLending.sol\":7287:7314  collateralFactorBasisPoints */\n      sload(0x04)\n        /* \"submissions/Serena Y/Day23-SimpleLending.sol\":7260:7278  collateralBalances */\n      0x02\n        /* \"submissions/Serena Y/Day23-SimpleLending.sol\":7260:7284  collateralBalances[user] */\n      0x00\n        /* \"submissions/Serena Y/Day23-SimpleLending.sol\":7279:7283  user */\n      dup6\n        /* \"submissions/Serena Y/Day23-SimpleLending.sol\":7260:7284  collateralBalances[user] */\n      0xffffffffffffffffffffffffffffffffffffffff\n      and\n      0xffffffffffffffffffffffffffffffffffffffff\n      and\n      dup2\n      mstore\n      0x20\n      add\n      swap1\n      dup2\n      mstore\n      0x20\n      add\n      0x00\n      keccak256\n      sload\n        /* \"submissions/Serena Y/Day23-SimpleLending.sol\":7260:7314  collateralBalances[user] * collateralFactorBasisPoints */\n      tag_111\n      swap2\n      swap1\n      tag_112\n      jump\t// in\n    tag_111:\n        /* \"submissions/Serena Y/Day23-SimpleLending.sol\":7259:7323  (collateralBalances[user] * collateralFactorBasisPoints) / 10000 */\n      tag_113\n      swap2\n      swap1\n      tag_114\n      jump\t// in\n    tag_113:\n        /* \"submissions/Serena Y/Day23-SimpleLending.sol\":7252:7323  return (collateralBalances[user] * collateralFactorBasisPoints) / 10000 */\n      swap1\n      pop\n        /* \"submissions/Serena Y/Day23-SimpleLending.sol\":7127:7395  function getMaxBorrowAmount(address user) external view returns (uint256) {... */\n      swap2\n      swap1\n      pop\n      jump\t// out\n        /* \"submissions/Serena Y/Day23-SimpleLending.sol\":3202:4242  function withdrawCollateral(uint256 amount) external {//提取抵押款... */\n    tag_60:\n        /* \"submissions/Serena Y/Day23-SimpleLending.sol\":3300:3301  0 */\n      0x00\n        /* \"submissions/Serena Y/Day23-SimpleLending.sol\":3291:3297  amount */\n      dup2\n        /* \"submissions/Serena Y/Day23-SimpleLending.sol\":3291:3301  amount > 0 */\n      gt\n        /* \"submissions/Serena Y/Day23-SimpleLending.sol\":3283:3337  require(amount > 0, \"Must withdraw a positive amount\") */\n      tag_116\n      jumpi\n      mload(0x40)\n      0x08c379a000000000000000000000000000000000000000000000000000000000\n      dup2\n      mstore\n      0x04\n      add\n      tag_117\n      swap1\n      tag_86\n      jump\t// in\n    tag_117:\n      mload(0x40)\n      dup1\n      swap2\n      sub\n      swap1\n      revert\n    tag_116:\n        /* \"submissions/Serena Y/Day23-SimpleLending.sol\":3411:3417  amount */\n      dup1\n        /* \"submissions/Serena Y/Day23-SimpleLending.sol\":3377:3395  collateralBalances */\n      0x02\n        /* \"submissions/Serena Y/Day23-SimpleLending.sol\":3377:3407  collateralBalances[msg.sender] */\n      0x00\n        /* \"submissions/Serena Y/Day23-SimpleLending.sol\":3396:3406  msg.sender */\n      caller\n        /* \"submissions/Serena Y/Day23-SimpleLending.sol\":3377:3407  collateralBalances[msg.sender] */\n      0xffffffffffffffffffffffffffffffffffffffff\n      and\n      0xffffffffffffffffffffffffffffffffffffffff\n      and\n      dup2\n      mstore\n      0x20\n      add\n      swap1\n      dup2\n      mstore\n      0x20\n      add\n      0x00\n      keccak256\n      sload\n        /* \"submissions/Serena Y/Day23-SimpleLending.sol\":3377:3417  collateralBalances[msg.sender] >= amount */\n      lt\n      iszero\n        /* \"submissions/Serena Y/Day23-SimpleLending.sol\":3369:3445  require(collateralBalances[msg.sender] >= amount, \"Insufficient collateral\") */\n      tag_118\n      jumpi\n      mload(0x40)\n      0x08c379a000000000000000000000000000000000000000000000000000000000\n      dup2\n      mstore\n      0x04\n      add\n      tag_119\n      swap1\n      tag_120\n      jump\t// in\n    tag_119:\n      mload(0x40)\n      dup1\n      swap2\n      sub\n      swap1\n      revert\n    tag_118:\n        /* \"submissions/Serena Y/Day23-SimpleLending.sol\":3503:3525  uint256 borrowedAmount */\n      0x00\n        /* \"submissions/Serena Y/Day23-SimpleLending.sol\":3528:3564  calculateInterestAccrued(msg.sender) */\n      tag_121\n        /* \"submissions/Serena Y/Day23-SimpleLending.sol\":3553:3563  msg.sender */\n      caller\n        /* \"submissions/Serena Y/Day23-SimpleLending.sol\":3528:3552  calculateInterestAccrued */\n      tag_81\n        /* \"submissions/Serena Y/Day23-SimpleLending.sol\":3528:3564  calculateInterestAccrued(msg.sender) */\n      jump\t// in\n    tag_121:\n        /* \"submissions/Serena Y/Day23-SimpleLending.sol\":3503:3564  uint256 borrowedAmount = calculateInterestAccrued(msg.sender) */\n      swap1\n      pop\n        /* \"submissions/Serena Y/Day23-SimpleLending.sol\":3619:3645  uint256 requiredCollateral */\n      0x00\n        /* \"submissions/Serena Y/Day23-SimpleLending.sol\":3675:3702  collateralFactorBasisPoints */\n      sload(0x04)\n        /* \"submissions/Serena Y/Day23-SimpleLending.sol\":3666:3671  10000 */\n      0x2710\n        /* \"submissions/Serena Y/Day23-SimpleLending.sol\":3649:3663  borrowedAmount */\n      dup4\n        /* \"submissions/Serena Y/Day23-SimpleLending.sol\":3649:3671  borrowedAmount * 10000 */\n      tag_122\n      swap2\n      swap1\n      tag_112\n      jump\t// in\n    tag_122:\n        /* \"submissions/Serena Y/Day23-SimpleLending.sol\":3648:3702  (borrowedAmount * 10000) / collateralFactorBasisPoints */\n      tag_123\n      swap2\n      swap1\n      tag_114\n      jump\t// in\n    tag_123:\n        /* \"submissions/Serena Y/Day23-SimpleLending.sol\":3619:3702  uint256 requiredCollateral = (borrowedAmount * 10000) / collateralFactorBasisPoints */\n      swap1\n      pop\n        /* \"submissions/Serena Y/Day23-SimpleLending.sol\":3807:3825  requiredCollateral */\n      dup1\n        /* \"submissions/Serena Y/Day23-SimpleLending.sol\":3797:3803  amount */\n      dup4\n        /* \"submissions/Serena Y/Day23-SimpleLending.sol\":3764:3782  collateralBalances */\n      0x02\n        /* \"submissions/Serena Y/Day23-SimpleLending.sol\":3764:3794  collateralBalances[msg.sender] */\n      0x00\n        /* \"submissions/Serena Y/Day23-SimpleLending.sol\":3783:3793  msg.sender */\n      caller\n        /* \"submissions/Serena Y/Day23-SimpleLending.sol\":3764:3794  collateralBalances[msg.sender] */\n      0xffffffffffffffffffffffffffffffffffffffff\n      and\n      0xffffffffffffffffffffffffffffffffffffffff\n      and\n      dup2\n      mstore\n      0x20\n      add\n      swap1\n      dup2\n      mstore\n      0x20\n      add\n      0x00\n      keccak256\n      sload\n        /* \"submissions/Serena Y/Day23-SimpleLending.sol\":3764:3803  collateralBalances[msg.sender] - amount */\n      tag_124\n      swap2\n      swap1\n      tag_91\n      jump\t// in\n    tag_124:\n        /* \"submissions/Serena Y/Day23-SimpleLending.sol\":3764:3825  collateralBalances[msg.sender] - amount >= requiredCollateral */\n      lt\n      iszero\n        /* \"submissions/Serena Y/Day23-SimpleLending.sol\":3742:3962  require(... */\n      tag_125\n      jumpi\n      mload(0x40)\n      0x08c379a000000000000000000000000000000000000000000000000000000000\n      dup2\n      mstore\n      0x04\n      add\n      tag_126\n      swap1\n      tag_127\n      jump\t// in\n    tag_126:\n      mload(0x40)\n      dup1\n      swap2\n      sub\n      swap1\n      revert\n    tag_125:\n        /* \"submissions/Serena Y/Day23-SimpleLending.sol\":4009:4015  amount */\n      dup3\n        /* \"submissions/Serena Y/Day23-SimpleLending.sol\":3975:3993  collateralBalances */\n      0x02\n        /* \"submissions/Serena Y/Day23-SimpleLending.sol\":3975:4005  collateralBalances[msg.sender] */\n      0x00\n        /* \"submissions/Serena Y/Day23-SimpleLending.sol\":3994:4004  msg.sender */\n      caller\n        /* \"submissions/Serena Y/Day23-SimpleLending.sol\":3975:4005  collateralBalances[msg.sender] */\n      0xffffffffffffffffffffffffffffffffffffffff\n      and\n      0xffffffffffffffffffffffffffffffffffffffff\n      and\n      dup2\n      mstore\n      0x20\n      add\n      swap1\n      dup2\n      mstore\n      0x20\n      add\n      0x00\n      keccak256\n      0x00\n        /* \"submissions/Serena Y/Day23-SimpleLending.sol\":3975:4015  collateralBalances[msg.sender] -= amount */\n      dup3\n      dup3\n      sload\n      tag_128\n      swap2\n      swap1\n      tag_91\n      jump\t// in\n    tag_128:\n      swap3\n      pop\n      pop\n      dup2\n      swap1\n      sstore\n      pop\n        /* \"submissions/Serena Y/Day23-SimpleLending.sol\":4066:4076  msg.sender */\n      caller\n        /* \"submissions/Serena Y/Day23-SimpleLending.sol\":4058:4086  payable(msg.sender).transfer */\n      0xffffffffffffffffffffffffffffffffffffffff\n      and\n        /* \"submissions/Serena Y/Day23-SimpleLending.sol\":4058:4094  payable(msg.sender).transfer(amount) */\n      0x08fc\n        /* \"submissions/Serena Y/Day23-SimpleLending.sol\":4087:4093  amount */\n      dup5\n        /* \"submissions/Serena Y/Day23-SimpleLending.sol\":4058:4094  payable(msg.sender).transfer(amount) */\n      swap1\n      dup2\n      iszero\n      mul\n      swap1\n      mload(0x40)\n      0x00\n      mload(0x40)\n      dup1\n      dup4\n      sub\n      dup2\n      dup6\n      dup9\n      dup9\n      call\n      swap4\n      pop\n      pop\n      pop\n      pop\n      iszero\n      dup1\n      iszero\n      tag_130\n      jumpi\n      returndatacopy(0x00, 0x00, returndatasize)\n      revert(0x00, returndatasize)\n    tag_130:\n      pop\n        /* \"submissions/Serena Y/Day23-SimpleLending.sol\":4152:4162  msg.sender */\n      caller\n        /* \"submissions/Serena Y/Day23-SimpleLending.sol\":4132:4171  CollateralWithdrawn(msg.sender, amount) */\n      0xffffffffffffffffffffffffffffffffffffffff\n      and\n      0xc30fcfbcaac9e0deffa719714eaa82396ff506a0d0d0eebe170830177288715d\n        /* \"submissions/Serena Y/Day23-SimpleLending.sol\":4164:4170  amount */\n      dup5\n        /* \"submissions/Serena Y/Day23-SimpleLending.sol\":4132:4171  CollateralWithdrawn(msg.sender, amount) */\n      mload(0x40)\n      tag_131\n      swap2\n      swap1\n      tag_26\n      jump\t// in\n    tag_131:\n      mload(0x40)\n      dup1\n      swap2\n      sub\n      swap1\n      log2\n        /* \"submissions/Serena Y/Day23-SimpleLending.sol\":3255:4242  {//提取抵押款... */\n      pop\n      pop\n        /* \"submissions/Serena Y/Day23-SimpleLending.sol\":3202:4242  function withdrawCollateral(uint256 amount) external {//提取抵押款... */\n      pop\n      jump\t// out\n        /* \"submissions/Serena Y/Day23-SimpleLending.sol\":2834:3194  function depositCollateral() external payable {//存入抵押... */\n    tag_62:\n        /* \"submissions/Serena Y/Day23-SimpleLending.sol\":2925:2926  0 */\n      0x00\n        /* \"submissions/Serena Y/Day23-SimpleLending.sol\":2913:2922  msg.value */\n      callvalue\n        /* \"submissions/Serena Y/Day23-SimpleLending.sol\":2913:2926  msg.value > 0 */\n      gt\n        /* \"submissions/Serena Y/Day23-SimpleLending.sol\":2905:2975  require(msg.value > 0, \"Must deposit a positive amount as collateral\") */\n      tag_133\n      jumpi\n      mload(0x40)\n      0x08c379a000000000000000000000000000000000000000000000000000000000\n      dup2\n      mstore\n      0x04\n      add\n      tag_134\n      swap1\n      tag_135\n      jump\t// in\n    tag_134:\n      mload(0x40)\n      dup1\n      swap2\n      sub\n      swap1\n      revert\n    tag_133:\n        /* \"submissions/Serena Y/Day23-SimpleLending.sol\":3047:3056  msg.value */\n      callvalue\n        /* \"submissions/Serena Y/Day23-SimpleLending.sol\":3013:3031  collateralBalances */\n      0x02\n        /* \"submissions/Serena Y/Day23-SimpleLending.sol\":3013:3043  collateralBalances[msg.sender] */\n      0x00\n        /* \"submissions/Serena Y/Day23-SimpleLending.sol\":3032:3042  msg.sender */\n      caller\n        /* \"submissions/Serena Y/Day23-SimpleLending.sol\":3013:3043  collateralBalances[msg.sender] */\n      0xffffffffffffffffffffffffffffffffffffffff\n      and\n      0xffffffffffffffffffffffffffffffffffffffff\n      and\n      dup2\n      mstore\n      0x20\n      add\n      swap1\n      dup2\n      mstore\n      0x20\n      add\n      0x00\n      keccak256\n      0x00\n        /* \"submissions/Serena Y/Day23-SimpleLending.sol\":3013:3056  collateralBalances[msg.sender] += msg.value */\n      dup3\n      dup3\n      sload\n      tag_136\n      swap2\n      swap1\n      tag_137\n      jump\t// in\n    tag_136:\n      swap3\n      pop\n      pop\n      dup2\n      swap1\n      sstore\n      pop\n        /* \"submissions/Serena Y/Day23-SimpleLending.sol\":3112:3122  msg.sender */\n      caller\n        /* \"submissions/Serena Y/Day23-SimpleLending.sol\":3092:3134  CollateralDeposited(msg.sender, msg.value) */\n      0xffffffffffffffffffffffffffffffffffffffff\n      and\n      0xd7243f6f8212d5188fd054141cf6ea89cfc0d91facb8c3afe2f88a1358480142\n        /* \"submissions/Serena Y/Day23-SimpleLending.sol\":3124:3133  msg.value */\n      callvalue\n        /* \"submissions/Serena Y/Day23-SimpleLending.sol\":3092:3134  CollateralDeposited(msg.sender, msg.value) */\n      mload(0x40)\n      tag_138\n      swap2\n      swap1\n      tag_26\n      jump\t// in\n    tag_138:\n      mload(0x40)\n      dup1\n      swap2\n      sub\n      swap1\n      log2\n        /* \"submissions/Serena Y/Day23-SimpleLending.sol\":2834:3194  function depositCollateral() external payable {//存入抵押... */\n      jump\t// out\n        /* \"submissions/Serena Y/Day23-SimpleLending.sol\":958:1007  uint256 public collateralFactorBasisPoints = 7500 */\n    tag_65:\n      sload(0x04)\n      dup2\n      jump\t// out\n        /* \"submissions/Serena Y/Day23-SimpleLending.sol\":364:413  mapping(address => uint256) public borrowBalances */\n    tag_70:\n      mstore(0x20, 0x01)\n      dup1\n      0x00\n      mstore\n      keccak256(0x00, 0x40)\n      0x00\n      swap2\n      pop\n      swap1\n      pop\n      sload\n      dup2\n      jump\t// out\n        /* \"submissions/Serena Y/Day23-SimpleLending.sol\":4250:5415  function borrow(uint256 amount) external {... */\n    tag_75:\n        /* \"submissions/Serena Y/Day23-SimpleLending.sol\":4343:4344  0 */\n      0x00\n        /* \"submissions/Serena Y/Day23-SimpleLending.sol\":4334:4340  amount */\n      dup2\n        /* \"submissions/Serena Y/Day23-SimpleLending.sol\":4334:4344  amount > 0 */\n      gt\n        /* \"submissions/Serena Y/Day23-SimpleLending.sol\":4326:4378  require(amount > 0, \"Must borrow a positive amount\") */\n      tag_140\n      jumpi\n      mload(0x40)\n      0x08c379a000000000000000000000000000000000000000000000000000000000\n      dup2\n      mstore\n      0x04\n      add\n      tag_141\n      swap1\n      tag_142\n      jump\t// in\n    tag_141:\n      mload(0x40)\n      dup1\n      swap2\n      sub\n      swap1\n      revert\n    tag_140:\n        /* \"submissions/Serena Y/Day23-SimpleLending.sol\":4459:4465  amount */\n      dup1\n        /* \"submissions/Serena Y/Day23-SimpleLending.sol\":4434:4455  address(this).balance */\n      selfbalance\n        /* \"submissions/Serena Y/Day23-SimpleLending.sol\":4434:4465  address(this).balance >= amount */\n      lt\n      iszero\n        /* \"submissions/Serena Y/Day23-SimpleLending.sol\":4426:4502  require(address(this).balance >= amount, \"Not enough liquidity in the pool\") */\n      tag_143\n      jumpi\n      mload(0x40)\n      0x08c379a000000000000000000000000000000000000000000000000000000000\n      dup2\n      mstore\n      0x04\n      add\n      tag_144\n      swap1\n      tag_145\n      jump\t// in\n    tag_144:\n      mload(0x40)\n      dup1\n      swap2\n      sub\n      swap1\n      revert\n    tag_143:\n        /* \"submissions/Serena Y/Day23-SimpleLending.sol\":4563:4586  uint256 maxBorrowAmount */\n      0x00\n        /* \"submissions/Serena Y/Day23-SimpleLending.sol\":4654:4659  10000 */\n      0x2710\n        /* \"submissions/Serena Y/Day23-SimpleLending.sol\":4623:4650  collateralFactorBasisPoints */\n      sload(0x04)\n        /* \"submissions/Serena Y/Day23-SimpleLending.sol\":4590:4608  collateralBalances */\n      0x02\n        /* \"submissions/Serena Y/Day23-SimpleLending.sol\":4590:4620  collateralBalances[msg.sender] */\n      0x00\n        /* \"submissions/Serena Y/Day23-SimpleLending.sol\":4609:4619  msg.sender */\n      caller\n        /* \"submissions/Serena Y/Day23-SimpleLending.sol\":4590:4620  collateralBalances[msg.sender] */\n      0xffffffffffffffffffffffffffffffffffffffff\n      and\n      0xffffffffffffffffffffffffffffffffffffffff\n      and\n      dup2\n      mstore\n      0x20\n      add\n      swap1\n      dup2\n      mstore\n      0x20\n      add\n      0x00\n      keccak256\n      sload\n        /* \"submissions/Serena Y/Day23-SimpleLending.sol\":4590:4650  collateralBalances[msg.sender] * collateralFactorBasisPoints */\n      tag_146\n      swap2\n      swap1\n      tag_112\n      jump\t// in\n    tag_146:\n        /* \"submissions/Serena Y/Day23-SimpleLending.sol\":4589:4659  (collateralBalances[msg.sender] * collateralFactorBasisPoints) / 10000 */\n      tag_147\n      swap2\n      swap1\n      tag_114\n      jump\t// in\n    tag_147:\n        /* \"submissions/Serena Y/Day23-SimpleLending.sol\":4563:4659  uint256 maxBorrowAmount = (collateralBalances[msg.sender] * collateralFactorBasisPoints) / 10000 */\n      swap1\n      pop\n        /* \"submissions/Serena Y/Day23-SimpleLending.sol\":4723:4742  uint256 currentDebt */\n      0x00\n        /* \"submissions/Serena Y/Day23-SimpleLending.sol\":4745:4781  calculateInterestAccrued(msg.sender) */\n      tag_148\n        /* \"submissions/Serena Y/Day23-SimpleLending.sol\":4770:4780  msg.sender */\n      caller\n        /* \"submissions/Serena Y/Day23-SimpleLending.sol\":4745:4769  calculateInterestAccrued */\n      tag_81\n        /* \"submissions/Serena Y/Day23-SimpleLending.sol\":4745:4781  calculateInterestAccrued(msg.sender) */\n      jump\t// in\n    tag_148:\n        /* \"submissions/Serena Y/Day23-SimpleLending.sol\":4723:4781  uint256 currentDebt = calculateInterestAccrued(msg.sender) */\n      swap1\n      pop\n        /* \"submissions/Serena Y/Day23-SimpleLending.sol\":4875:4890  maxBorrowAmount */\n      dup2\n        /* \"submissions/Serena Y/Day23-SimpleLending.sol\":4865:4871  amount */\n      dup4\n        /* \"submissions/Serena Y/Day23-SimpleLending.sol\":4851:4862  currentDebt */\n      dup3\n        /* \"submissions/Serena Y/Day23-SimpleLending.sol\":4851:4871  currentDebt + amount */\n      tag_149\n      swap2\n      swap1\n      tag_137\n      jump\t// in\n    tag_149:\n        /* \"submissions/Serena Y/Day23-SimpleLending.sol\":4851:4890  currentDebt + amount <= maxBorrowAmount */\n      gt\n      iszero\n        /* \"submissions/Serena Y/Day23-SimpleLending.sol\":4843:4924  require(currentDebt + amount <= maxBorrowAmount, \"Exceeds allowed borrow amount\") */\n      tag_150\n      jumpi\n      mload(0x40)\n      0x08c379a000000000000000000000000000000000000000000000000000000000\n      dup2\n      mstore\n      0x04\n      add\n      tag_151\n      swap1\n      tag_152\n      jump\t// in\n    tag_151:\n      mload(0x40)\n      dup1\n      swap2\n      sub\n      swap1\n      revert\n    tag_150:\n        /* \"submissions/Serena Y/Day23-SimpleLending.sol\":5061:5067  amount */\n      dup3\n        /* \"submissions/Serena Y/Day23-SimpleLending.sol\":5047:5058  currentDebt */\n      dup2\n        /* \"submissions/Serena Y/Day23-SimpleLending.sol\":5047:5067  currentDebt + amount */\n      tag_153\n      swap2\n      swap1\n      tag_137\n      jump\t// in\n    tag_153:\n        /* \"submissions/Serena Y/Day23-SimpleLending.sol\":5018:5032  borrowBalances */\n      0x01\n        /* \"submissions/Serena Y/Day23-SimpleLending.sol\":5018:5044  borrowBalances[msg.sender] */\n      0x00\n        /* \"submissions/Serena Y/Day23-SimpleLending.sol\":5033:5043  msg.sender */\n      caller\n        /* \"submissions/Serena Y/Day23-SimpleLending.sol\":5018:5044  borrowBalances[msg.sender] */\n      0xffffffffffffffffffffffffffffffffffffffff\n      and\n      0xffffffffffffffffffffffffffffffffffffffff\n      and\n      dup2\n      mstore\n      0x20\n      add\n      swap1\n      dup2\n      mstore\n      0x20\n      add\n      0x00\n      keccak256\n        /* \"submissions/Serena Y/Day23-SimpleLending.sol\":5018:5067  borrowBalances[msg.sender] = currentDebt + amount */\n      dup2\n      swap1\n      sstore\n      pop\n        /* \"submissions/Serena Y/Day23-SimpleLending.sol\":5179:5194  block.timestamp */\n      timestamp\n        /* \"submissions/Serena Y/Day23-SimpleLending.sol\":5136:5164  lastInterestAccrualTimestamp */\n      0x05\n        /* \"submissions/Serena Y/Day23-SimpleLending.sol\":5136:5176  lastInterestAccrualTimestamp[msg.sender] */\n      0x00\n        /* \"submissions/Serena Y/Day23-SimpleLending.sol\":5165:5175  msg.sender */\n      caller\n        /* \"submissions/Serena Y/Day23-SimpleLending.sol\":5136:5176  lastInterestAccrualTimestamp[msg.sender] */\n      0xffffffffffffffffffffffffffffffffffffffff\n      and\n      0xffffffffffffffffffffffffffffffffffffffff\n      and\n      dup2\n      mstore\n      0x20\n      add\n      swap1\n      dup2\n      mstore\n      0x20\n      add\n      0x00\n      keccak256\n        /* \"submissions/Serena Y/Day23-SimpleLending.sol\":5136:5194  lastInterestAccrualTimestamp[msg.sender] = block.timestamp */\n      dup2\n      swap1\n      sstore\n      pop\n        /* \"submissions/Serena Y/Day23-SimpleLending.sol\":5278:5288  msg.sender */\n      caller\n        /* \"submissions/Serena Y/Day23-SimpleLending.sol\":5270:5298  payable(msg.sender).transfer */\n      0xffffffffffffffffffffffffffffffffffffffff\n      and\n        /* \"submissions/Serena Y/Day23-SimpleLending.sol\":5270:5306  payable(msg.sender).transfer(amount) */\n      0x08fc\n        /* \"submissions/Serena Y/Day23-SimpleLending.sol\":5299:5305  amount */\n      dup5\n        /* \"submissions/Serena Y/Day23-SimpleLending.sol\":5270:5306  payable(msg.sender).transfer(amount) */\n      swap1\n      dup2\n      iszero\n      mul\n      swap1\n      mload(0x40)\n      0x00\n      mload(0x40)\n      dup1\n      dup4\n      sub\n      dup2\n      dup6\n      dup9\n      dup9\n      call\n      swap4\n      pop\n      pop\n      pop\n      pop\n      iszero\n      dup1\n      iszero\n      tag_155\n      jumpi\n      returndatacopy(0x00, 0x00, returndatasize)\n      revert(0x00, returndatasize)\n    tag_155:\n      pop\n        /* \"submissions/Serena Y/Day23-SimpleLending.sol\":5356:5366  msg.sender */\n      caller\n        /* \"submissions/Serena Y/Day23-SimpleLending.sol\":5349:5375  Borrow(msg.sender, amount) */\n      0xffffffffffffffffffffffffffffffffffffffff\n      and\n      0xcbc04eca7e9da35cb1393a6135a199ca52e450d5e9251cbd99f7847d33a36750\n        /* \"submissions/Serena Y/Day23-SimpleLending.sol\":5368:5374  amount */\n      dup5\n        /* \"submissions/Serena Y/Day23-SimpleLending.sol\":5349:5375  Borrow(msg.sender, amount) */\n      mload(0x40)\n      tag_156\n      swap2\n      swap1\n      tag_26\n      jump\t// in\n    tag_156:\n      mload(0x40)\n      dup1\n      swap2\n      sub\n      swap1\n      log2\n        /* \"submissions/Serena Y/Day23-SimpleLending.sol\":4291:5415  {... */\n      pop\n      pop\n        /* \"submissions/Serena Y/Day23-SimpleLending.sol\":4250:5415  function borrow(uint256 amount) external {... */\n      pop\n      jump\t// out\n        /* \"submissions/Serena Y/Day23-SimpleLending.sol\":1995:2300  function deposit() external payable {//存入eth... */\n    tag_77:\n        /* \"submissions/Serena Y/Day23-SimpleLending.sol\":2073:2074  0 */\n      0x00\n        /* \"submissions/Serena Y/Day23-SimpleLending.sol\":2061:2070  msg.value */\n      callvalue\n        /* \"submissions/Serena Y/Day23-SimpleLending.sol\":2061:2074  msg.value > 0 */\n      gt\n        /* \"submissions/Serena Y/Day23-SimpleLending.sol\":2053:2109  require(msg.value > 0, \"Must deposit a positive amount\") */\n      tag_158\n      jumpi\n      mload(0x40)\n      0x08c379a000000000000000000000000000000000000000000000000000000000\n      dup2\n      mstore\n      0x04\n      add\n      tag_159\n      swap1\n      tag_160\n      jump\t// in\n    tag_159:\n      mload(0x40)\n      dup1\n      swap2\n      sub\n      swap1\n      revert\n    tag_158:\n        /* \"submissions/Serena Y/Day23-SimpleLending.sol\":2172:2181  msg.value */\n      callvalue\n        /* \"submissions/Serena Y/Day23-SimpleLending.sol\":2141:2156  depositBalances */\n      0x00\n        /* \"submissions/Serena Y/Day23-SimpleLending.sol\":2141:2168  depositBalances[msg.sender] */\n      0x00\n        /* \"submissions/Serena Y/Day23-SimpleLending.sol\":2157:2167  msg.sender */\n      caller\n        /* \"submissions/Serena Y/Day23-SimpleLending.sol\":2141:2168  depositBalances[msg.sender] */\n      0xffffffffffffffffffffffffffffffffffffffff\n      and\n      0xffffffffffffffffffffffffffffffffffffffff\n      and\n      dup2\n      mstore\n      0x20\n      add\n      swap1\n      dup2\n      mstore\n      0x20\n      add\n      0x00\n      keccak256\n      0x00\n        /* \"submissions/Serena Y/Day23-SimpleLending.sol\":2141:2181  depositBalances[msg.sender] += msg.value */\n      dup3\n      dup3\n      sload\n      tag_161\n      swap2\n      swap1\n      tag_137\n      jump\t// in\n    tag_161:\n      swap3\n      pop\n      pop\n      dup2\n      swap1\n      sstore\n      pop\n        /* \"submissions/Serena Y/Day23-SimpleLending.sol\":2225:2235  msg.sender */\n      caller\n        /* \"submissions/Serena Y/Day23-SimpleLending.sol\":2217:2247  Deposit(msg.sender, msg.value) */\n      0xffffffffffffffffffffffffffffffffffffffff\n      and\n      0xe1fffcc4923d04b559f4d29a8bfc6cda04eb5b0d3c460751c2402c5c5cc9109c\n        /* \"submissions/Serena Y/Day23-SimpleLending.sol\":2237:2246  msg.value */\n      callvalue\n        /* \"submissions/Serena Y/Day23-SimpleLending.sol\":2217:2247  Deposit(msg.sender, msg.value) */\n      mload(0x40)\n      tag_162\n      swap2\n      swap1\n      tag_26\n      jump\t// in\n    tag_162:\n      mload(0x40)\n      dup1\n      swap2\n      sub\n      swap1\n      log2\n        /* \"submissions/Serena Y/Day23-SimpleLending.sol\":1995:2300  function deposit() external payable {//存入eth... */\n      jump\t// out\n        /* \"submissions/Serena Y/Day23-SimpleLending.sol\":6400:7119  function calculateInterestAccrued(address user) public view returns (uint256) {... */\n    tag_81:\n        /* \"submissions/Serena Y/Day23-SimpleLending.sol\":6469:6476  uint256 */\n      0x00\n        /* \"submissions/Serena Y/Day23-SimpleLending.sol\":6568:6569  0 */\n      0x00\n        /* \"submissions/Serena Y/Day23-SimpleLending.sol\":6544:6558  borrowBalances */\n      0x01\n        /* \"submissions/Serena Y/Day23-SimpleLending.sol\":6544:6564  borrowBalances[user] */\n      0x00\n        /* \"submissions/Serena Y/Day23-SimpleLending.sol\":6559:6563  user */\n      dup5\n        /* \"submissions/Serena Y/Day23-SimpleLending.sol\":6544:6564  borrowBalances[user] */\n      0xffffffffffffffffffffffffffffffffffffffff\n      and\n      0xffffffffffffffffffffffffffffffffffffffff\n      and\n      dup2\n      mstore\n      0x20\n      add\n      swap1\n      dup2\n      mstore\n      0x20\n      add\n      0x00\n      keccak256\n      sload\n        /* \"submissions/Serena Y/Day23-SimpleLending.sol\":6544:6569  borrowBalances[user] == 0 */\n      sub\n        /* \"submissions/Serena Y/Day23-SimpleLending.sol\":6540:6640  if (borrowBalances[user] == 0) {//贷款账本余额为0则返回0... */\n      tag_164\n      jumpi\n        /* \"submissions/Serena Y/Day23-SimpleLending.sol\":6627:6628  0 */\n      0x00\n        /* \"submissions/Serena Y/Day23-SimpleLending.sol\":6620:6628  return 0 */\n      swap1\n      pop\n      jump(tag_163)\n        /* \"submissions/Serena Y/Day23-SimpleLending.sol\":6540:6640  if (borrowBalances[user] == 0) {//贷款账本余额为0则返回0... */\n    tag_164:\n        /* \"submissions/Serena Y/Day23-SimpleLending.sol\":6652:6671  uint256 timeElapsed */\n      0x00\n        /* \"submissions/Serena Y/Day23-SimpleLending.sol\":6692:6720  lastInterestAccrualTimestamp */\n      0x05\n        /* \"submissions/Serena Y/Day23-SimpleLending.sol\":6692:6726  lastInterestAccrualTimestamp[user] */\n      0x00\n        /* \"submissions/Serena Y/Day23-SimpleLending.sol\":6721:6725  user */\n      dup5\n        /* \"submissions/Serena Y/Day23-SimpleLending.sol\":6692:6726  lastInterestAccrualTimestamp[user] */\n      0xffffffffffffffffffffffffffffffffffffffff\n      and\n      0xffffffffffffffffffffffffffffffffffffffff\n      and\n      dup2\n      mstore\n      0x20\n      add\n      swap1\n      dup2\n      mstore\n      0x20\n      add\n      0x00\n      keccak256\n      sload\n        /* \"submissions/Serena Y/Day23-SimpleLending.sol\":6674:6689  block.timestamp */\n      timestamp\n        /* \"submissions/Serena Y/Day23-SimpleLending.sol\":6674:6726  block.timestamp - lastInterestAccrualTimestamp[user] */\n      tag_165\n      swap2\n      swap1\n      tag_91\n      jump\t// in\n    tag_165:\n        /* \"submissions/Serena Y/Day23-SimpleLending.sol\":6652:6726  uint256 timeElapsed = block.timestamp - lastInterestAccrualTimestamp[user] */\n      swap1\n      pop\n        /* \"submissions/Serena Y/Day23-SimpleLending.sol\":6799:6815  uint256 interest */\n      0x00\n        /* \"submissions/Serena Y/Day23-SimpleLending.sol\":6884:6900  10000 * 365 days */\n      0x496cebb800\n        /* \"submissions/Serena Y/Day23-SimpleLending.sol\":6868:6879  timeElapsed */\n      dup3\n        /* \"submissions/Serena Y/Day23-SimpleLending.sol\":6842:6865  interestRateBasisPoints */\n      sload(0x03)\n        /* \"submissions/Serena Y/Day23-SimpleLending.sol\":6819:6833  borrowBalances */\n      0x01\n        /* \"submissions/Serena Y/Day23-SimpleLending.sol\":6819:6839  borrowBalances[user] */\n      0x00\n        /* \"submissions/Serena Y/Day23-SimpleLending.sol\":6834:6838  user */\n      dup9\n        /* \"submissions/Serena Y/Day23-SimpleLending.sol\":6819:6839  borrowBalances[user] */\n      0xffffffffffffffffffffffffffffffffffffffff\n      and\n      0xffffffffffffffffffffffffffffffffffffffff\n      and\n      dup2\n      mstore\n      0x20\n      add\n      swap1\n      dup2\n      mstore\n      0x20\n      add\n      0x00\n      keccak256\n      sload\n        /* \"submissions/Serena Y/Day23-SimpleLending.sol\":6819:6865  borrowBalances[user] * interestRateBasisPoints */\n      tag_166\n      swap2\n      swap1\n      tag_112\n      jump\t// in\n    tag_166:\n        /* \"submissions/Serena Y/Day23-SimpleLending.sol\":6819:6879  borrowBalances[user] * interestRateBasisPoints * timeElapsed */\n      tag_167\n      swap2\n      swap1\n      tag_112\n      jump\t// in\n    tag_167:\n        /* \"submissions/Serena Y/Day23-SimpleLending.sol\":6818:6901  (borrowBalances[user] * interestRateBasisPoints * timeElapsed) / (10000 * 365 days) */\n      tag_168\n      swap2\n      swap1\n      tag_114\n      jump\t// in\n    tag_168:\n        /* \"submissions/Serena Y/Day23-SimpleLending.sol\":6799:6901  uint256 interest = (borrowBalances[user] * interestRateBasisPoints * timeElapsed) / (10000 * 365 days) */\n      swap1\n      pop\n        /* \"submissions/Serena Y/Day23-SimpleLending.sol\":7012:7020  interest */\n      dup1\n        /* \"submissions/Serena Y/Day23-SimpleLending.sol\":6989:7003  borrowBalances */\n      0x01\n        /* \"submissions/Serena Y/Day23-SimpleLending.sol\":6989:7009  borrowBalances[user] */\n      0x00\n        /* \"submissions/Serena Y/Day23-SimpleLending.sol\":7004:7008  user */\n      dup7\n        /* \"submissions/Serena Y/Day23-SimpleLending.sol\":6989:7009  borrowBalances[user] */\n      0xffffffffffffffffffffffffffffffffffffffff\n      and\n      0xffffffffffffffffffffffffffffffffffffffff\n      and\n      dup2\n      mstore\n      0x20\n      add\n      swap1\n      dup2\n      mstore\n      0x20\n      add\n      0x00\n      keccak256\n      sload\n        /* \"submissions/Serena Y/Day23-SimpleLending.sol\":6989:7020  borrowBalances[user] + interest */\n      tag_169\n      swap2\n      swap1\n      tag_137\n      jump\t// in\n    tag_169:\n        /* \"submissions/Serena Y/Day23-SimpleLending.sol\":6982:7020  return borrowBalances[user] + interest */\n      swap3\n      pop\n      pop\n      pop\n        /* \"submissions/Serena Y/Day23-SimpleLending.sol\":6400:7119  function calculateInterestAccrued(address user) public view returns (uint256) {... */\n    tag_163:\n      swap2\n      swap1\n      pop\n      jump\t// out\n        /* \"#utility.yul\":88:205   */\n    tag_171:\n        /* \"#utility.yul\":197:198   */\n      0x00\n        /* \"#utility.yul\":194:195   */\n      0x00\n        /* \"#utility.yul\":187:199   */\n      revert\n        /* \"#utility.yul\":334:460   */\n    tag_173:\n        /* \"#utility.yul\":371:378   */\n      0x00\n        /* \"#utility.yul\":411:453   */\n      0xffffffffffffffffffffffffffffffffffffffff\n        /* \"#utility.yul\":404:409   */\n      dup3\n        /* \"#utility.yul\":400:454   */\n      and\n        /* \"#utility.yul\":389:454   */\n      swap1\n      pop\n        /* \"#utility.yul\":334:460   */\n      swap2\n      swap1\n      pop\n      jump\t// out\n        /* \"#utility.yul\":466:562   */\n    tag_174:\n        /* \"#utility.yul\":503:510   */\n      0x00\n        /* \"#utility.yul\":532:556   */\n      tag_212\n        /* \"#utility.yul\":550:555   */\n      dup3\n        /* \"#utility.yul\":532:556   */\n      tag_173\n      jump\t// in\n    tag_212:\n        /* \"#utility.yul\":521:556   */\n      swap1\n      pop\n        /* \"#utility.yul\":466:562   */\n      swap2\n      swap1\n      pop\n      jump\t// out\n        /* \"#utility.yul\":568:690   */\n    tag_175:\n        /* \"#utility.yul\":641:665   */\n      tag_214\n        /* \"#utility.yul\":659:664   */\n      dup2\n        /* \"#utility.yul\":641:665   */\n      tag_174\n      jump\t// in\n    tag_214:\n        /* \"#utility.yul\":634:639   */\n      dup2\n        /* \"#utility.yul\":631:666   */\n      eq\n        /* \"#utility.yul\":621:684   */\n      tag_215\n      jumpi\n        /* \"#utility.yul\":680:681   */\n      0x00\n        /* \"#utility.yul\":677:678   */\n      0x00\n        /* \"#utility.yul\":670:682   */\n      revert\n        /* \"#utility.yul\":621:684   */\n    tag_215:\n        /* \"#utility.yul\":568:690   */\n      pop\n      jump\t// out\n        /* \"#utility.yul\":696:835   */\n    tag_176:\n        /* \"#utility.yul\":742:747   */\n      0x00\n        /* \"#utility.yul\":780:786   */\n      dup2\n        /* \"#utility.yul\":767:787   */\n      calldataload\n        /* \"#utility.yul\":758:787   */\n      swap1\n      pop\n        /* \"#utility.yul\":796:829   */\n      tag_217\n        /* \"#utility.yul\":823:828   */\n      dup2\n        /* \"#utility.yul\":796:829   */\n      tag_175\n      jump\t// in\n    tag_217:\n        /* \"#utility.yul\":696:835   */\n      swap3\n      swap2\n      pop\n      pop\n      jump\t// out\n        /* \"#utility.yul\":841:1170   */\n    tag_23:\n        /* \"#utility.yul\":900:906   */\n      0x00\n        /* \"#utility.yul\":949:951   */\n      0x20\n        /* \"#utility.yul\":937:946   */\n      dup3\n        /* \"#utility.yul\":928:935   */\n      dup5\n        /* \"#utility.yul\":924:947   */\n      sub\n        /* \"#utility.yul\":920:952   */\n      slt\n        /* \"#utility.yul\":917:1036   */\n      iszero\n      tag_219\n      jumpi\n        /* \"#utility.yul\":955:1034   */\n      tag_220\n      tag_171\n      jump\t// in\n    tag_220:\n        /* \"#utility.yul\":917:1036   */\n    tag_219:\n        /* \"#utility.yul\":1075:1076   */\n      0x00\n        /* \"#utility.yul\":1100:1153   */\n      tag_221\n        /* \"#utility.yul\":1145:1152   */\n      dup5\n        /* \"#utility.yul\":1136:1142   */\n      dup3\n        /* \"#utility.yul\":1125:1134   */\n      dup6\n        /* \"#utility.yul\":1121:1143   */\n      add\n        /* \"#utility.yul\":1100:1153   */\n      tag_176\n      jump\t// in\n    tag_221:\n        /* \"#utility.yul\":1090:1153   */\n      swap2\n      pop\n        /* \"#utility.yul\":1046:1163   */\n      pop\n        /* \"#utility.yul\":841:1170   */\n      swap3\n      swap2\n      pop\n      pop\n      jump\t// out\n        /* \"#utility.yul\":1176:1253   */\n    tag_177:\n        /* \"#utility.yul\":1213:1220   */\n      0x00\n        /* \"#utility.yul\":1242:1247   */\n      dup2\n        /* \"#utility.yul\":1231:1247   */\n      swap1\n      pop\n        /* \"#utility.yul\":1176:1253   */\n      swap2\n      swap1\n      pop\n      jump\t// out\n        /* \"#utility.yul\":1259:1377   */\n    tag_178:\n        /* \"#utility.yul\":1346:1370   */\n      tag_224\n        /* \"#utility.yul\":1364:1369   */\n      dup2\n        /* \"#utility.yul\":1346:1370   */\n      tag_177\n      jump\t// in\n    tag_224:\n        /* \"#utility.yul\":1341:1344   */\n      dup3\n        /* \"#utility.yul\":1334:1371   */\n      mstore\n        /* \"#utility.yul\":1259:1377   */\n      pop\n      pop\n      jump\t// out\n        /* \"#utility.yul\":1383:1605   */\n    tag_26:\n        /* \"#utility.yul\":1476:1480   */\n      0x00\n        /* \"#utility.yul\":1514:1516   */\n      0x20\n        /* \"#utility.yul\":1503:1512   */\n      dup3\n        /* \"#utility.yul\":1499:1517   */\n      add\n        /* \"#utility.yul\":1491:1517   */\n      swap1\n      pop\n        /* \"#utility.yul\":1527:1598   */\n      tag_226\n        /* \"#utility.yul\":1595:1596   */\n      0x00\n        /* \"#utility.yul\":1584:1593   */\n      dup4\n        /* \"#utility.yul\":1580:1597   */\n      add\n        /* \"#utility.yul\":1571:1577   */\n      dup5\n        /* \"#utility.yul\":1527:1598   */\n      tag_178\n      jump\t// in\n    tag_226:\n        /* \"#utility.yul\":1383:1605   */\n      swap3\n      swap2\n      pop\n      pop\n      jump\t// out\n        /* \"#utility.yul\":1611:1733   */\n    tag_179:\n        /* \"#utility.yul\":1684:1708   */\n      tag_228\n        /* \"#utility.yul\":1702:1707   */\n      dup2\n        /* \"#utility.yul\":1684:1708   */\n      tag_177\n      jump\t// in\n    tag_228:\n        /* \"#utility.yul\":1677:1682   */\n      dup2\n        /* \"#utility.yul\":1674:1709   */\n      eq\n        /* \"#utility.yul\":1664:1727   */\n      tag_229\n      jumpi\n        /* \"#utility.yul\":1723:1724   */\n      0x00\n        /* \"#utility.yul\":1720:1721   */\n      0x00\n        /* \"#utility.yul\":1713:1725   */\n      revert\n        /* \"#utility.yul\":1664:1727   */\n    tag_229:\n        /* \"#utility.yul\":1611:1733   */\n      pop\n      jump\t// out\n        /* \"#utility.yul\":1739:1878   */\n    tag_180:\n        /* \"#utility.yul\":1785:1790   */\n      0x00\n        /* \"#utility.yul\":1823:1829   */\n      dup2\n        /* \"#utility.yul\":1810:1830   */\n      calldataload\n        /* \"#utility.yul\":1801:1830   */\n      swap1\n      pop\n        /* \"#utility.yul\":1839:1872   */\n      tag_231\n        /* \"#utility.yul\":1866:1871   */\n      dup2\n        /* \"#utility.yul\":1839:1872   */\n      tag_179\n      jump\t// in\n    tag_231:\n        /* \"#utility.yul\":1739:1878   */\n      swap3\n      swap2\n      pop\n      pop\n      jump\t// out\n        /* \"#utility.yul\":1884:2213   */\n    tag_39:\n        /* \"#utility.yul\":1943:1949   */\n      0x00\n        /* \"#utility.yul\":1992:1994   */\n      0x20\n        /* \"#utility.yul\":1980:1989   */\n      dup3\n        /* \"#utility.yul\":1971:1978   */\n      dup5\n        /* \"#utility.yul\":1967:1990   */\n      sub\n        /* \"#utility.yul\":1963:1995   */\n      slt\n        /* \"#utility.yul\":1960:2079   */\n      iszero\n      tag_233\n      jumpi\n        /* \"#utility.yul\":1998:2077   */\n      tag_234\n      tag_171\n      jump\t// in\n    tag_234:\n        /* \"#utility.yul\":1960:2079   */\n    tag_233:\n        /* \"#utility.yul\":2118:2119   */\n      0x00\n        /* \"#utility.yul\":2143:2196   */\n      tag_235\n        /* \"#utility.yul\":2188:2195   */\n      dup5\n        /* \"#utility.yul\":2179:2185   */\n      dup3\n        /* \"#utility.yul\":2168:2177   */\n      dup6\n        /* \"#utility.yul\":2164:2186   */\n      add\n        /* \"#utility.yul\":2143:2196   */\n      tag_180\n      jump\t// in\n    tag_235:\n        /* \"#utility.yul\":2133:2196   */\n      swap2\n      pop\n        /* \"#utility.yul\":2089:2206   */\n      pop\n        /* \"#utility.yul\":1884:2213   */\n      swap3\n      swap2\n      pop\n      pop\n      jump\t// out\n        /* \"#utility.yul\":2219:2388   */\n    tag_181:\n        /* \"#utility.yul\":2303:2314   */\n      0x00\n        /* \"#utility.yul\":2337:2343   */\n      dup3\n        /* \"#utility.yul\":2332:2335   */\n      dup3\n        /* \"#utility.yul\":2325:2344   */\n      mstore\n        /* \"#utility.yul\":2377:2381   */\n      0x20\n        /* \"#utility.yul\":2372:2375   */\n      dup3\n        /* \"#utility.yul\":2368:2382   */\n      add\n        /* \"#utility.yul\":2353:2382   */\n      swap1\n      pop\n        /* \"#utility.yul\":2219:2388   */\n      swap3\n      swap2\n      pop\n      pop\n      jump\t// out\n        /* \"#utility.yul\":2394:2575   */\n    tag_182:\n        /* \"#utility.yul\":2534:2567   */\n      0x4d757374207769746864726177206120706f73697469766520616d6f756e7400\n        /* \"#utility.yul\":2530:2531   */\n      0x00\n        /* \"#utility.yul\":2522:2528   */\n      dup3\n        /* \"#utility.yul\":2518:2532   */\n      add\n        /* \"#utility.yul\":2511:2568   */\n      mstore\n        /* \"#utility.yul\":2394:2575   */\n      pop\n      jump\t// out\n        /* \"#utility.yul\":2581:2947   */\n    tag_183:\n        /* \"#utility.yul\":2723:2726   */\n      0x00\n        /* \"#utility.yul\":2744:2811   */\n      tag_239\n        /* \"#utility.yul\":2808:2810   */\n      0x1f\n        /* \"#utility.yul\":2803:2806   */\n      dup4\n        /* \"#utility.yul\":2744:2811   */\n      tag_181\n      jump\t// in\n    tag_239:\n        /* \"#utility.yul\":2737:2811   */\n      swap2\n      pop\n        /* \"#utility.yul\":2820:2913   */\n      tag_240\n        /* \"#utility.yul\":2909:2912   */\n      dup3\n        /* \"#utility.yul\":2820:2913   */\n      tag_182\n      jump\t// in\n    tag_240:\n        /* \"#utility.yul\":2938:2940   */\n      0x20\n        /* \"#utility.yul\":2933:2936   */\n      dup3\n        /* \"#utility.yul\":2929:2941   */\n      add\n        /* \"#utility.yul\":2922:2941   */\n      swap1\n      pop\n        /* \"#utility.yul\":2581:2947   */\n      swap2\n      swap1\n      pop\n      jump\t// out\n        /* \"#utility.yul\":2953:3372   */\n    tag_86:\n        /* \"#utility.yul\":3119:3123   */\n      0x00\n        /* \"#utility.yul\":3157:3159   */\n      0x20\n        /* \"#utility.yul\":3146:3155   */\n      dup3\n        /* \"#utility.yul\":3142:3160   */\n      add\n        /* \"#utility.yul\":3134:3160   */\n      swap1\n      pop\n        /* \"#utility.yul\":3206:3215   */\n      dup2\n        /* \"#utility.yul\":3200:3204   */\n      dup2\n        /* \"#utility.yul\":3196:3216   */\n      sub\n        /* \"#utility.yul\":3192:3193   */\n      0x00\n        /* \"#utility.yul\":3181:3190   */\n      dup4\n        /* \"#utility.yul\":3177:3194   */\n      add\n        /* \"#utility.yul\":3170:3217   */\n      mstore\n        /* \"#utility.yul\":3234:3365   */\n      tag_242\n        /* \"#utility.yul\":3360:3364   */\n      dup2\n        /* \"#utility.yul\":3234:3365   */\n      tag_183\n      jump\t// in\n    tag_242:\n        /* \"#utility.yul\":3226:3365   */\n      swap1\n      pop\n        /* \"#utility.yul\":2953:3372   */\n      swap2\n      swap1\n      pop\n      jump\t// out\n        /* \"#utility.yul\":3378:3548   */\n    tag_184:\n        /* \"#utility.yul\":3518:3540   */\n      0x496e73756666696369656e742062616c616e6365000000000000000000000000\n        /* \"#utility.yul\":3514:3515   */\n      0x00\n        /* \"#utility.yul\":3506:3512   */\n      dup3\n        /* \"#utility.yul\":3502:3516   */\n      add\n        /* \"#utility.yul\":3495:3541   */\n      mstore\n        /* \"#utility.yul\":3378:3548   */\n      pop\n      jump\t// out\n        /* \"#utility.yul\":3554:3920   */\n    tag_185:\n        /* \"#utility.yul\":3696:3699   */\n      0x00\n        /* \"#utility.yul\":3717:3784   */\n      tag_245\n        /* \"#utility.yul\":3781:3783   */\n      0x14\n        /* \"#utility.yul\":3776:3779   */\n      dup4\n        /* \"#utility.yul\":3717:3784   */\n      tag_181\n      jump\t// in\n    tag_245:\n        /* \"#utility.yul\":3710:3784   */\n      swap2\n      pop\n        /* \"#utility.yul\":3793:3886   */\n      tag_246\n        /* \"#utility.yul\":3882:3885   */\n      dup3\n        /* \"#utility.yul\":3793:3886   */\n      tag_184\n      jump\t// in\n    tag_246:\n        /* \"#utility.yul\":3911:3913   */\n      0x20\n        /* \"#utility.yul\":3906:3909   */\n      dup3\n        /* \"#utility.yul\":3902:3914   */\n      add\n        /* \"#utility.yul\":3895:3914   */\n      swap1\n      pop\n        /* \"#utility.yul\":3554:3920   */\n      swap2\n      swap1\n      pop\n      jump\t// out\n        /* \"#utility.yul\":3926:4345   */\n    tag_89:\n        /* \"#utility.yul\":4092:4096   */\n      0x00\n        /* \"#utility.yul\":4130:4132   */\n      0x20\n        /* \"#utility.yul\":4119:4128   */\n      dup3\n        /* \"#utility.yul\":4115:4133   */\n      add\n        /* \"#utility.yul\":4107:4133   */\n      swap1\n      pop\n        /* \"#utility.yul\":4179:4188   */\n      dup2\n        /* \"#utility.yul\":4173:4177   */\n      dup2\n        /* \"#utility.yul\":4169:4189   */\n      sub\n        /* \"#utility.yul\":4165:4166   */\n      0x00\n        /* \"#utility.yul\":4154:4163   */\n      dup4\n        /* \"#utility.yul\":4150:4167   */\n      add\n        /* \"#utility.yul\":4143:4190   */\n      mstore\n        /* \"#utility.yul\":4207:4338   */\n      tag_248\n        /* \"#utility.yul\":4333:4337   */\n      dup2\n        /* \"#utility.yul\":4207:4338   */\n      tag_185\n      jump\t// in\n    tag_248:\n        /* \"#utility.yul\":4199:4338   */\n      swap1\n      pop\n        /* \"#utility.yul\":3926:4345   */\n      swap2\n      swap1\n      pop\n      jump\t// out\n        /* \"#utility.yul\":4351:4531   */\n    tag_186:\n        /* \"#utility.yul\":4399:4476   */\n      0x4e487b7100000000000000000000000000000000000000000000000000000000\n        /* \"#utility.yul\":4396:4397   */\n      0x00\n        /* \"#utility.yul\":4389:4477   */\n      mstore\n        /* \"#utility.yul\":4496:4500   */\n      0x11\n        /* \"#utility.yul\":4493:4494   */\n      0x04\n        /* \"#utility.yul\":4486:4501   */\n      mstore\n        /* \"#utility.yul\":4520:4524   */\n      0x24\n        /* \"#utility.yul\":4517:4518   */\n      0x00\n        /* \"#utility.yul\":4510:4525   */\n      revert\n        /* \"#utility.yul\":4537:4731   */\n    tag_91:\n        /* \"#utility.yul\":4577:4581   */\n      0x00\n        /* \"#utility.yul\":4597:4617   */\n      tag_251\n        /* \"#utility.yul\":4615:4616   */\n      dup3\n        /* \"#utility.yul\":4597:4617   */\n      tag_177\n      jump\t// in\n    tag_251:\n        /* \"#utility.yul\":4592:4617   */\n      swap2\n      pop\n        /* \"#utility.yul\":4631:4651   */\n      tag_252\n        /* \"#utility.yul\":4649:4650   */\n      dup4\n        /* \"#utility.yul\":4631:4651   */\n      tag_177\n      jump\t// in\n    tag_252:\n        /* \"#utility.yul\":4626:4651   */\n      swap3\n      pop\n        /* \"#utility.yul\":4675:4676   */\n      dup3\n        /* \"#utility.yul\":4672:4673   */\n      dup3\n        /* \"#utility.yul\":4668:4677   */\n      sub\n        /* \"#utility.yul\":4660:4677   */\n      swap1\n      pop\n        /* \"#utility.yul\":4699:4700   */\n      dup2\n        /* \"#utility.yul\":4693:4697   */\n      dup2\n        /* \"#utility.yul\":4690:4701   */\n      gt\n        /* \"#utility.yul\":4687:4724   */\n      iszero\n      tag_253\n      jumpi\n        /* \"#utility.yul\":4704:4722   */\n      tag_254\n      tag_186\n      jump\t// in\n    tag_254:\n        /* \"#utility.yul\":4687:4724   */\n    tag_253:\n        /* \"#utility.yul\":4537:4731   */\n      swap3\n      swap2\n      pop\n      pop\n      jump\t// out\n        /* \"#utility.yul\":4737:4915   */\n    tag_187:\n        /* \"#utility.yul\":4877:4907   */\n      0x4d757374207265706179206120706f73697469766520616d6f756e7400000000\n        /* \"#utility.yul\":4873:4874   */\n      0x00\n        /* \"#utility.yul\":4865:4871   */\n      dup3\n        /* \"#utility.yul\":4861:4875   */\n      add\n        /* \"#utility.yul\":4854:4908   */\n      mstore\n        /* \"#utility.yul\":4737:4915   */\n      pop\n      jump\t// out\n        /* \"#utility.yul\":4921:5287   */\n    tag_188:\n        /* \"#utility.yul\":5063:5066   */\n      0x00\n        /* \"#utility.yul\":5084:5151   */\n      tag_257\n        /* \"#utility.yul\":5148:5150   */\n      0x1c\n        /* \"#utility.yul\":5143:5146   */\n      dup4\n        /* \"#utility.yul\":5084:5151   */\n      tag_181\n      jump\t// in\n    tag_257:\n        /* \"#utility.yul\":5077:5151   */\n      swap2\n      pop\n        /* \"#utility.yul\":5160:5253   */\n      tag_258\n        /* \"#utility.yul\":5249:5252   */\n      dup3\n        /* \"#utility.yul\":5160:5253   */\n      tag_187\n      jump\t// in\n    tag_258:\n        /* \"#utility.yul\":5278:5280   */\n      0x20\n        /* \"#utility.yul\":5273:5276   */\n      dup3\n        /* \"#utility.yul\":5269:5281   */\n      add\n        /* \"#utility.yul\":5262:5281   */\n      swap1\n      pop\n        /* \"#utility.yul\":4921:5287   */\n      swap2\n      swap1\n      pop\n      jump\t// out\n        /* \"#utility.yul\":5293:5712   */\n    tag_99:\n        /* \"#utility.yul\":5459:5463   */\n      0x00\n        /* \"#utility.yul\":5497:5499   */\n      0x20\n        /* \"#utility.yul\":5486:5495   */\n      dup3\n        /* \"#utility.yul\":5482:5500   */\n      add\n        /* \"#utility.yul\":5474:5500   */\n      swap1\n      pop\n        /* \"#utility.yul\":5546:5555   */\n      dup2\n        /* \"#utility.yul\":5540:5544   */\n      dup2\n        /* \"#utility.yul\":5536:5556   */\n      sub\n        /* \"#utility.yul\":5532:5533   */\n      0x00\n        /* \"#utility.yul\":5521:5530   */\n      dup4\n        /* \"#utility.yul\":5517:5534   */\n      add\n        /* \"#utility.yul\":5510:5557   */\n      mstore\n        /* \"#utility.yul\":5574:5705   */\n      tag_260\n        /* \"#utility.yul\":5700:5704   */\n      dup2\n        /* \"#utility.yul\":5574:5705   */\n      tag_188\n      jump\t// in\n    tag_260:\n        /* \"#utility.yul\":5566:5705   */\n      swap1\n      pop\n        /* \"#utility.yul\":5293:5712   */\n      swap2\n      swap1\n      pop\n      jump\t// out\n        /* \"#utility.yul\":5718:5884   */\n    tag_189:\n        /* \"#utility.yul\":5858:5876   */\n      0x4e6f206465627420746f20726570617900000000000000000000000000000000\n        /* \"#utility.yul\":5854:5855   */\n      0x00\n        /* \"#utility.yul\":5846:5852   */\n      dup3\n        /* \"#utility.yul\":5842:5856   */\n      add\n        /* \"#utility.yul\":5835:5877   */\n      mstore\n        /* \"#utility.yul\":5718:5884   */\n      pop\n      jump\t// out\n        /* \"#utility.yul\":5890:6256   */\n    tag_190:\n        /* \"#utility.yul\":6032:6035   */\n      0x00\n        /* \"#utility.yul\":6053:6120   */\n      tag_263\n        /* \"#utility.yul\":6117:6119   */\n      0x10\n        /* \"#utility.yul\":6112:6115   */\n      dup4\n        /* \"#utility.yul\":6053:6120   */\n      tag_181\n      jump\t// in\n    tag_263:\n        /* \"#utility.yul\":6046:6120   */\n      swap2\n      pop\n        /* \"#utility.yul\":6129:6222   */\n      tag_264\n        /* \"#utility.yul\":6218:6221   */\n      dup3\n        /* \"#utility.yul\":6129:6222   */\n      tag_189\n      jump\t// in\n    tag_264:\n        /* \"#utility.yul\":6247:6249   */\n      0x20\n        /* \"#utility.yul\":6242:6245   */\n      dup3\n        /* \"#utility.yul\":6238:6250   */\n      add\n        /* \"#utility.yul\":6231:6250   */\n      swap1\n      pop\n        /* \"#utility.yul\":5890:6256   */\n      swap2\n      swap1\n      pop\n      jump\t// out\n        /* \"#utility.yul\":6262:6681   */\n    tag_103:\n        /* \"#utility.yul\":6428:6432   */\n      0x00\n        /* \"#utility.yul\":6466:6468   */\n      0x20\n        /* \"#utility.yul\":6455:6464   */\n      dup3\n        /* \"#utility.yul\":6451:6469   */\n      add\n        /* \"#utility.yul\":6443:6469   */\n      swap1\n      pop\n        /* \"#utility.yul\":6515:6524   */\n      dup2\n        /* \"#utility.yul\":6509:6513   */\n      dup2\n        /* \"#utility.yul\":6505:6525   */\n      sub\n        /* \"#utility.yul\":6501:6502   */\n      0x00\n        /* \"#utility.yul\":6490:6499   */\n      dup4\n        /* \"#utility.yul\":6486:6503   */\n      add\n        /* \"#utility.yul\":6479:6526   */\n      mstore\n        /* \"#utility.yul\":6543:6674   */\n      tag_266\n        /* \"#utility.yul\":6669:6673   */\n      dup2\n        /* \"#utility.yul\":6543:6674   */\n      tag_190\n      jump\t// in\n    tag_266:\n        /* \"#utility.yul\":6535:6674   */\n      swap1\n      pop\n        /* \"#utility.yul\":6262:6681   */\n      swap2\n      swap1\n      pop\n      jump\t// out\n        /* \"#utility.yul\":6687:7097   */\n    tag_112:\n        /* \"#utility.yul\":6727:6734   */\n      0x00\n        /* \"#utility.yul\":6750:6770   */\n      tag_268\n        /* \"#utility.yul\":6768:6769   */\n      dup3\n        /* \"#utility.yul\":6750:6770   */\n      tag_177\n      jump\t// in\n    tag_268:\n        /* \"#utility.yul\":6745:6770   */\n      swap2\n      pop\n        /* \"#utility.yul\":6784:6804   */\n      tag_269\n        /* \"#utility.yul\":6802:6803   */\n      dup4\n        /* \"#utility.yul\":6784:6804   */\n      tag_177\n      jump\t// in\n    tag_269:\n        /* \"#utility.yul\":6779:6804   */\n      swap3\n      pop\n        /* \"#utility.yul\":6839:6840   */\n      dup3\n        /* \"#utility.yul\":6836:6837   */\n      dup3\n        /* \"#utility.yul\":6832:6841   */\n      mul\n        /* \"#utility.yul\":6861:6891   */\n      tag_270\n        /* \"#utility.yul\":6879:6890   */\n      dup2\n        /* \"#utility.yul\":6861:6891   */\n      tag_177\n      jump\t// in\n    tag_270:\n        /* \"#utility.yul\":6850:6891   */\n      swap2\n      pop\n        /* \"#utility.yul\":7040:7041   */\n      dup3\n        /* \"#utility.yul\":7031:7038   */\n      dup3\n        /* \"#utility.yul\":7027:7042   */\n      div\n        /* \"#utility.yul\":7024:7025   */\n      dup5\n        /* \"#utility.yul\":7021:7043   */\n      eq\n        /* \"#utility.yul\":7001:7002   */\n      dup4\n        /* \"#utility.yul\":6994:7003   */\n      iszero\n        /* \"#utility.yul\":6974:7057   */\n      or\n        /* \"#utility.yul\":6951:7090   */\n      tag_271\n      jumpi\n        /* \"#utility.yul\":7070:7088   */\n      tag_272\n      tag_186\n      jump\t// in\n    tag_272:\n        /* \"#utility.yul\":6951:7090   */\n    tag_271:\n        /* \"#utility.yul\":6735:7097   */\n      pop\n        /* \"#utility.yul\":6687:7097   */\n      swap3\n      swap2\n      pop\n      pop\n      jump\t// out\n        /* \"#utility.yul\":7103:7283   */\n    tag_191:\n        /* \"#utility.yul\":7151:7228   */\n      0x4e487b7100000000000000000000000000000000000000000000000000000000\n        /* \"#utility.yul\":7148:7149   */\n      0x00\n        /* \"#utility.yul\":7141:7229   */\n      mstore\n        /* \"#utility.yul\":7248:7252   */\n      0x12\n        /* \"#utility.yul\":7245:7246   */\n      0x04\n        /* \"#utility.yul\":7238:7253   */\n      mstore\n        /* \"#utility.yul\":7272:7276   */\n      0x24\n        /* \"#utility.yul\":7269:7270   */\n      0x00\n        /* \"#utility.yul\":7262:7277   */\n      revert\n        /* \"#utility.yul\":7289:7474   */\n    tag_114:\n        /* \"#utility.yul\":7329:7330   */\n      0x00\n        /* \"#utility.yul\":7346:7366   */\n      tag_275\n        /* \"#utility.yul\":7364:7365   */\n      dup3\n        /* \"#utility.yul\":7346:7366   */\n      tag_177\n      jump\t// in\n    tag_275:\n        /* \"#utility.yul\":7341:7366   */\n      swap2\n      pop\n        /* \"#utility.yul\":7380:7400   */\n      tag_276\n        /* \"#utility.yul\":7398:7399   */\n      dup4\n        /* \"#utility.yul\":7380:7400   */\n      tag_177\n      jump\t// in\n    tag_276:\n        /* \"#utility.yul\":7375:7400   */\n      swap3\n      pop\n        /* \"#utility.yul\":7419:7420   */\n      dup3\n        /* \"#utility.yul\":7409:7444   */\n      tag_277\n      jumpi\n        /* \"#utility.yul\":7424:7442   */\n      tag_278\n      tag_191\n      jump\t// in\n    tag_278:\n        /* \"#utility.yul\":7409:7444   */\n    tag_277:\n        /* \"#utility.yul\":7466:7467   */\n      dup3\n        /* \"#utility.yul\":7463:7464   */\n      dup3\n        /* \"#utility.yul\":7459:7468   */\n      div\n        /* \"#utility.yul\":7454:7468   */\n      swap1\n      pop\n        /* \"#utility.yul\":7289:7474   */\n      swap3\n      swap2\n      pop\n      pop\n      jump\t// out\n        /* \"#utility.yul\":7480:7653   */\n    tag_192:\n        /* \"#utility.yul\":7620:7645   */\n      0x496e73756666696369656e7420636f6c6c61746572616c000000000000000000\n        /* \"#utility.yul\":7616:7617   */\n      0x00\n        /* \"#utility.yul\":7608:7614   */\n      dup3\n        /* \"#utility.yul\":7604:7618   */\n      add\n        /* \"#utility.yul\":7597:7646   */\n      mstore\n        /* \"#utility.yul\":7480:7653   */\n      pop\n      jump\t// out\n        /* \"#utility.yul\":7659:8025   */\n    tag_193:\n        /* \"#utility.yul\":7801:7804   */\n      0x00\n        /* \"#utility.yul\":7822:7889   */\n      tag_281\n        /* \"#utility.yul\":7886:7888   */\n      0x17\n        /* \"#utility.yul\":7881:7884   */\n      dup4\n        /* \"#utility.yul\":7822:7889   */\n      tag_181\n      jump\t// in\n    tag_281:\n        /* \"#utility.yul\":7815:7889   */\n      swap2\n      pop\n        /* \"#utility.yul\":7898:7991   */\n      tag_282\n        /* \"#utility.yul\":7987:7990   */\n      dup3\n        /* \"#utility.yul\":7898:7991   */\n      tag_192\n      jump\t// in\n    tag_282:\n        /* \"#utility.yul\":8016:8018   */\n      0x20\n        /* \"#utility.yul\":8011:8014   */\n      dup3\n        /* \"#utility.yul\":8007:8019   */\n      add\n        /* \"#utility.yul\":8000:8019   */\n      swap1\n      pop\n        /* \"#utility.yul\":7659:8025   */\n      swap2\n      swap1\n      pop\n      jump\t// out\n        /* \"#utility.yul\":8031:8450   */\n    tag_120:\n        /* \"#utility.yul\":8197:8201   */\n      0x00\n        /* \"#utility.yul\":8235:8237   */\n      0x20\n        /* \"#utility.yul\":8224:8233   */\n      dup3\n        /* \"#utility.yul\":8220:8238   */\n      add\n        /* \"#utility.yul\":8212:8238   */\n      swap1\n      pop\n        /* \"#utility.yul\":8284:8293   */\n      dup2\n        /* \"#utility.yul\":8278:8282   */\n      dup2\n        /* \"#utility.yul\":8274:8294   */\n      sub\n        /* \"#utility.yul\":8270:8271   */\n      0x00\n        /* \"#utility.yul\":8259:8268   */\n      dup4\n        /* \"#utility.yul\":8255:8272   */\n      add\n        /* \"#utility.yul\":8248:8295   */\n      mstore\n        /* \"#utility.yul\":8312:8443   */\n      tag_284\n        /* \"#utility.yul\":8438:8442   */\n      dup2\n        /* \"#utility.yul\":8312:8443   */\n      tag_193\n      jump\t// in\n    tag_284:\n        /* \"#utility.yul\":8304:8443   */\n      swap1\n      pop\n        /* \"#utility.yul\":8031:8450   */\n      swap2\n      swap1\n      pop\n      jump\t// out\n        /* \"#utility.yul\":8456:8682   */\n    tag_194:\n        /* \"#utility.yul\":8596:8630   */\n      0x5769746864726177616c20776f756c6420627265616b20636f6c6c6174657261\n        /* \"#utility.yul\":8592:8593   */\n      0x00\n        /* \"#utility.yul\":8584:8590   */\n      dup3\n        /* \"#utility.yul\":8580:8594   */\n      add\n        /* \"#utility.yul\":8573:8631   */\n      mstore\n        /* \"#utility.yul\":8665:8674   */\n      0x6c20726174696f00000000000000000000000000000000000000000000000000\n        /* \"#utility.yul\":8660:8662   */\n      0x20\n        /* \"#utility.yul\":8652:8658   */\n      dup3\n        /* \"#utility.yul\":8648:8663   */\n      add\n        /* \"#utility.yul\":8641:8675   */\n      mstore\n        /* \"#utility.yul\":8456:8682   */\n      pop\n      jump\t// out\n        /* \"#utility.yul\":8688:9054   */\n    tag_195:\n        /* \"#utility.yul\":8830:8833   */\n      0x00\n        /* \"#utility.yul\":8851:8918   */\n      tag_287\n        /* \"#utility.yul\":8915:8917   */\n      0x27\n        /* \"#utility.yul\":8910:8913   */\n      dup4\n        /* \"#utility.yul\":8851:8918   */\n      tag_181\n      jump\t// in\n    tag_287:\n        /* \"#utility.yul\":8844:8918   */\n      swap2\n      pop\n        /* \"#utility.yul\":8927:9020   */\n      tag_288\n        /* \"#utility.yul\":9016:9019   */\n      dup3\n        /* \"#utility.yul\":8927:9020   */\n      tag_194\n      jump\t// in\n    tag_288:\n        /* \"#utility.yul\":9045:9047   */\n      0x40\n        /* \"#utility.yul\":9040:9043   */\n      dup3\n        /* \"#utility.yul\":9036:9048   */\n      add\n        /* \"#utility.yul\":9029:9048   */\n      swap1\n      pop\n        /* \"#utility.yul\":8688:9054   */\n      swap2\n      swap1\n      pop\n      jump\t// out\n        /* \"#utility.yul\":9060:9479   */\n    tag_127:\n        /* \"#utility.yul\":9226:9230   */\n      0x00\n        /* \"#utility.yul\":9264:9266   */\n      0x20\n        /* \"#utility.yul\":9253:9262   */\n      dup3\n        /* \"#utility.yul\":9249:9267   */\n      add\n        /* \"#utility.yul\":9241:9267   */\n      swap1\n      pop\n        /* \"#utility.yul\":9313:9322   */\n      dup2\n        /* \"#utility.yul\":9307:9311   */\n      dup2\n        /* \"#utility.yul\":9303:9323   */\n      sub\n        /* \"#utility.yul\":9299:9300   */\n      0x00\n        /* \"#utility.yul\":9288:9297   */\n      dup4\n        /* \"#utility.yul\":9284:9301   */\n      add\n        /* \"#utility.yul\":9277:9324   */\n      mstore\n        /* \"#utility.yul\":9341:9472   */\n      tag_290\n        /* \"#utility.yul\":9467:9471   */\n      dup2\n        /* \"#utility.yul\":9341:9472   */\n      tag_195\n      jump\t// in\n    tag_290:\n        /* \"#utility.yul\":9333:9472   */\n      swap1\n      pop\n        /* \"#utility.yul\":9060:9479   */\n      swap2\n      swap1\n      pop\n      jump\t// out\n        /* \"#utility.yul\":9485:9716   */\n    tag_196:\n        /* \"#utility.yul\":9625:9659   */\n      0x4d757374206465706f736974206120706f73697469766520616d6f756e742061\n        /* \"#utility.yul\":9621:9622   */\n      0x00\n        /* \"#utility.yul\":9613:9619   */\n      dup3\n        /* \"#utility.yul\":9609:9623   */\n      add\n        /* \"#utility.yul\":9602:9660   */\n      mstore\n        /* \"#utility.yul\":9694:9708   */\n      0x7320636f6c6c61746572616c0000000000000000000000000000000000000000\n        /* \"#utility.yul\":9689:9691   */\n      0x20\n        /* \"#utility.yul\":9681:9687   */\n      dup3\n        /* \"#utility.yul\":9677:9692   */\n      add\n        /* \"#utility.yul\":9670:9709   */\n      mstore\n        /* \"#utility.yul\":9485:9716   */\n      pop\n      jump\t// out\n        /* \"#utility.yul\":9722:10088   */\n    tag_197:\n        /* \"#utility.yul\":9864:9867   */\n      0x00\n        /* \"#utility.yul\":9885:9952   */\n      tag_293\n        /* \"#utility.yul\":9949:9951   */\n      0x2c\n        /* \"#utility.yul\":9944:9947   */\n      dup4\n        /* \"#utility.yul\":9885:9952   */\n      tag_181\n      jump\t// in\n    tag_293:\n        /* \"#utility.yul\":9878:9952   */\n      swap2\n      pop\n        /* \"#utility.yul\":9961:10054   */\n      tag_294\n        /* \"#utility.yul\":10050:10053   */\n      dup3\n        /* \"#utility.yul\":9961:10054   */\n      tag_196\n      jump\t// in\n    tag_294:\n        /* \"#utility.yul\":10079:10081   */\n      0x40\n        /* \"#utility.yul\":10074:10077   */\n      dup3\n        /* \"#utility.yul\":10070:10082   */\n      add\n        /* \"#utility.yul\":10063:10082   */\n      swap1\n      pop\n        /* \"#utility.yul\":9722:10088   */\n      swap2\n      swap1\n      pop\n      jump\t// out\n        /* \"#utility.yul\":10094:10513   */\n    tag_135:\n        /* \"#utility.yul\":10260:10264   */\n      0x00\n        /* \"#utility.yul\":10298:10300   */\n      0x20\n        /* \"#utility.yul\":10287:10296   */\n      dup3\n        /* \"#utility.yul\":10283:10301   */\n      add\n        /* \"#utility.yul\":10275:10301   */\n      swap1\n      pop\n        /* \"#utility.yul\":10347:10356   */\n      dup2\n        /* \"#utility.yul\":10341:10345   */\n      dup2\n        /* \"#utility.yul\":10337:10357   */\n      sub\n        /* \"#utility.yul\":10333:10334   */\n      0x00\n        /* \"#utility.yul\":10322:10331   */\n      dup4\n        /* \"#utility.yul\":10318:10335   */\n      add\n        /* \"#utility.yul\":10311:10358   */\n      mstore\n        /* \"#utility.yul\":10375:10506   */\n      tag_296\n        /* \"#utility.yul\":10501:10505   */\n      dup2\n        /* \"#utility.yul\":10375:10506   */\n      tag_197\n      jump\t// in\n    tag_296:\n        /* \"#utility.yul\":10367:10506   */\n      swap1\n      pop\n        /* \"#utility.yul\":10094:10513   */\n      swap2\n      swap1\n      pop\n      jump\t// out\n        /* \"#utility.yul\":10519:10710   */\n    tag_137:\n        /* \"#utility.yul\":10559:10562   */\n      0x00\n        /* \"#utility.yul\":10578:10598   */\n      tag_298\n        /* \"#utility.yul\":10596:10597   */\n      dup3\n        /* \"#utility.yul\":10578:10598   */\n      tag_177\n      jump\t// in\n    tag_298:\n        /* \"#utility.yul\":10573:10598   */\n      swap2\n      pop\n        /* \"#utility.yul\":10612:10632   */\n      tag_299\n        /* \"#utility.yul\":10630:10631   */\n      dup4\n        /* \"#utility.yul\":10612:10632   */\n      tag_177\n      jump\t// in\n    tag_299:\n        /* \"#utility.yul\":10607:10632   */\n      swap3\n      pop\n        /* \"#utility.yul\":10655:10656   */\n      dup3\n        /* \"#utility.yul\":10652:10653   */\n      dup3\n        /* \"#utility.yul\":10648:10657   */\n      add\n        /* \"#utility.yul\":10641:10657   */\n      swap1\n      pop\n        /* \"#utility.yul\":10676:10679   */\n      dup1\n        /* \"#utility.yul\":10673:10674   */\n      dup3\n        /* \"#utility.yul\":10670:10680   */\n      gt\n        /* \"#utility.yul\":10667:10703   */\n      iszero\n      tag_300\n      jumpi\n        /* \"#utility.yul\":10683:10701   */\n      tag_301\n      tag_186\n      jump\t// in\n    tag_301:\n        /* \"#utility.yul\":10667:10703   */\n    tag_300:\n        /* \"#utility.yul\":10519:10710   */\n      swap3\n      swap2\n      pop\n      pop\n      jump\t// out\n        /* \"#utility.yul\":10716:10895   */\n    tag_198:\n        /* \"#utility.yul\":10856:10887   */\n      0x4d75737420626f72726f77206120706f73697469766520616d6f756e74000000\n        /* \"#utility.yul\":10852:10853   */\n      0x00\n        /* \"#utility.yul\":10844:10850   */\n      dup3\n        /* \"#utility.yul\":10840:10854   */\n      add\n        /* \"#utility.yul\":10833:10888   */\n      mstore\n        /* \"#utility.yul\":10716:10895   */\n      pop\n      jump\t// out\n        /* \"#utility.yul\":10901:11267   */\n    tag_199:\n        /* \"#utility.yul\":11043:11046   */\n      0x00\n        /* \"#utility.yul\":11064:11131   */\n      tag_304\n        /* \"#utility.yul\":11128:11130   */\n      0x1d\n        /* \"#utility.yul\":11123:11126   */\n      dup4\n        /* \"#utility.yul\":11064:11131   */\n      tag_181\n      jump\t// in\n    tag_304:\n        /* \"#utility.yul\":11057:11131   */\n      swap2\n      pop\n        /* \"#utility.yul\":11140:11233   */\n      tag_305\n        /* \"#utility.yul\":11229:11232   */\n      dup3\n        /* \"#utility.yul\":11140:11233   */\n      tag_198\n      jump\t// in\n    tag_305:\n        /* \"#utility.yul\":11258:11260   */\n      0x20\n        /* \"#utility.yul\":11253:11256   */\n      dup3\n        /* \"#utility.yul\":11249:11261   */\n      add\n        /* \"#utility.yul\":11242:11261   */\n      swap1\n      pop\n        /* \"#utility.yul\":10901:11267   */\n      swap2\n      swap1\n      pop\n      jump\t// out\n        /* \"#utility.yul\":11273:11692   */\n    tag_142:\n        /* \"#utility.yul\":11439:11443   */\n      0x00\n        /* \"#utility.yul\":11477:11479   */\n      0x20\n        /* \"#utility.yul\":11466:11475   */\n      dup3\n        /* \"#utility.yul\":11462:11480   */\n      add\n        /* \"#utility.yul\":11454:11480   */\n      swap1\n      pop\n        /* \"#utility.yul\":11526:11535   */\n      dup2\n        /* \"#utility.yul\":11520:11524   */\n      dup2\n        /* \"#utility.yul\":11516:11536   */\n      sub\n        /* \"#utility.yul\":11512:11513   */\n      0x00\n        /* \"#utility.yul\":11501:11510   */\n      dup4\n        /* \"#utility.yul\":11497:11514   */\n      add\n        /* \"#utility.yul\":11490:11537   */\n      mstore\n        /* \"#utility.yul\":11554:11685   */\n      tag_307\n        /* \"#utility.yul\":11680:11684   */\n      dup2\n        /* \"#utility.yul\":11554:11685   */\n      tag_199\n      jump\t// in\n    tag_307:\n        /* \"#utility.yul\":11546:11685   */\n      swap1\n      pop\n        /* \"#utility.yul\":11273:11692   */\n      swap2\n      swap1\n      pop\n      jump\t// out\n        /* \"#utility.yul\":11698:11880   */\n    tag_200:\n        /* \"#utility.yul\":11838:11872   */\n      0x4e6f7420656e6f756768206c697175696469747920696e2074686520706f6f6c\n        /* \"#utility.yul\":11834:11835   */\n      0x00\n        /* \"#utility.yul\":11826:11832   */\n      dup3\n        /* \"#utility.yul\":11822:11836   */\n      add\n        /* \"#utility.yul\":11815:11873   */\n      mstore\n        /* \"#utility.yul\":11698:11880   */\n      pop\n      jump\t// out\n        /* \"#utility.yul\":11886:12252   */\n    tag_201:\n        /* \"#utility.yul\":12028:12031   */\n      0x00\n        /* \"#utility.yul\":12049:12116   */\n      tag_310\n        /* \"#utility.yul\":12113:12115   */\n      0x20\n        /* \"#utility.yul\":12108:12111   */\n      dup4\n        /* \"#utility.yul\":12049:12116   */\n      tag_181\n      jump\t// in\n    tag_310:\n        /* \"#utility.yul\":12042:12116   */\n      swap2\n      pop\n        /* \"#utility.yul\":12125:12218   */\n      tag_311\n        /* \"#utility.yul\":12214:12217   */\n      dup3\n        /* \"#utility.yul\":12125:12218   */\n      tag_200\n      jump\t// in\n    tag_311:\n        /* \"#utility.yul\":12243:12245   */\n      0x20\n        /* \"#utility.yul\":12238:12241   */\n      dup3\n        /* \"#utility.yul\":12234:12246   */\n      add\n        /* \"#utility.yul\":12227:12246   */\n      swap1\n      pop\n        /* \"#utility.yul\":11886:12252   */\n      swap2\n      swap1\n      pop\n      jump\t// out\n        /* \"#utility.yul\":12258:12677   */\n    tag_145:\n        /* \"#utility.yul\":12424:12428   */\n      0x00\n        /* \"#utility.yul\":12462:12464   */\n      0x20\n        /* \"#utility.yul\":12451:12460   */\n      dup3\n        /* \"#utility.yul\":12447:12465   */\n      add\n        /* \"#utility.yul\":12439:12465   */\n      swap1\n      pop\n        /* \"#utility.yul\":12511:12520   */\n      dup2\n        /* \"#utility.yul\":12505:12509   */\n      dup2\n        /* \"#utility.yul\":12501:12521   */\n      sub\n        /* \"#utility.yul\":12497:12498   */\n      0x00\n        /* \"#utility.yul\":12486:12495   */\n      dup4\n        /* \"#utility.yul\":12482:12499   */\n      add\n        /* \"#utility.yul\":12475:12522   */\n      mstore\n        /* \"#utility.yul\":12539:12670   */\n      tag_313\n        /* \"#utility.yul\":12665:12669   */\n      dup2\n        /* \"#utility.yul\":12539:12670   */\n      tag_201\n      jump\t// in\n    tag_313:\n        /* \"#utility.yul\":12531:12670   */\n      swap1\n      pop\n        /* \"#utility.yul\":12258:12677   */\n      swap2\n      swap1\n      pop\n      jump\t// out\n        /* \"#utility.yul\":12683:12862   */\n    tag_202:\n        /* \"#utility.yul\":12823:12854   */\n      0x4578636565647320616c6c6f77656420626f72726f7720616d6f756e74000000\n        /* \"#utility.yul\":12819:12820   */\n      0x00\n        /* \"#utility.yul\":12811:12817   */\n      dup3\n        /* \"#utility.yul\":12807:12821   */\n      add\n        /* \"#utility.yul\":12800:12855   */\n      mstore\n        /* \"#utility.yul\":12683:12862   */\n      pop\n      jump\t// out\n        /* \"#utility.yul\":12868:13234   */\n    tag_203:\n        /* \"#utility.yul\":13010:13013   */\n      0x00\n        /* \"#utility.yul\":13031:13098   */\n      tag_316\n        /* \"#utility.yul\":13095:13097   */\n      0x1d\n        /* \"#utility.yul\":13090:13093   */\n      dup4\n        /* \"#utility.yul\":13031:13098   */\n      tag_181\n      jump\t// in\n    tag_316:\n        /* \"#utility.yul\":13024:13098   */\n      swap2\n      pop\n        /* \"#utility.yul\":13107:13200   */\n      tag_317\n        /* \"#utility.yul\":13196:13199   */\n      dup3\n        /* \"#utility.yul\":13107:13200   */\n      tag_202\n      jump\t// in\n    tag_317:\n        /* \"#utility.yul\":13225:13227   */\n      0x20\n        /* \"#utility.yul\":13220:13223   */\n      dup3\n        /* \"#utility.yul\":13216:13228   */\n      add\n        /* \"#utility.yul\":13209:13228   */\n      swap1\n      pop\n        /* \"#utility.yul\":12868:13234   */\n      swap2\n      swap1\n      pop\n      jump\t// out\n        /* \"#utility.yul\":13240:13659   */\n    tag_152:\n        /* \"#utility.yul\":13406:13410   */\n      0x00\n        /* \"#utility.yul\":13444:13446   */\n      0x20\n        /* \"#utility.yul\":13433:13442   */\n      dup3\n        /* \"#utility.yul\":13429:13447   */\n      add\n        /* \"#utility.yul\":13421:13447   */\n      swap1\n      pop\n        /* \"#utility.yul\":13493:13502   */\n      dup2\n        /* \"#utility.yul\":13487:13491   */\n      dup2\n        /* \"#utility.yul\":13483:13503   */\n      sub\n        /* \"#utility.yul\":13479:13480   */\n      0x00\n        /* \"#utility.yul\":13468:13477   */\n      dup4\n        /* \"#utility.yul\":13464:13481   */\n      add\n        /* \"#utility.yul\":13457:13504   */\n      mstore\n        /* \"#utility.yul\":13521:13652   */\n      tag_319\n        /* \"#utility.yul\":13647:13651   */\n      dup2\n        /* \"#utility.yul\":13521:13652   */\n      tag_203\n      jump\t// in\n    tag_319:\n        /* \"#utility.yul\":13513:13652   */\n      swap1\n      pop\n        /* \"#utility.yul\":13240:13659   */\n      swap2\n      swap1\n      pop\n      jump\t// out\n        /* \"#utility.yul\":13665:13845   */\n    tag_204:\n        /* \"#utility.yul\":13805:13837   */\n      0x4d757374206465706f736974206120706f73697469766520616d6f756e740000\n        /* \"#utility.yul\":13801:13802   */\n      0x00\n        /* \"#utility.yul\":13793:13799   */\n      dup3\n        /* \"#utility.yul\":13789:13803   */\n      add\n        /* \"#utility.yul\":13782:13838   */\n      mstore\n        /* \"#utility.yul\":13665:13845   */\n      pop\n      jump\t// out\n        /* \"#utility.yul\":13851:14217   */\n    tag_205:\n        /* \"#utility.yul\":13993:13996   */\n      0x00\n        /* \"#utility.yul\":14014:14081   */\n      tag_322\n        /* \"#utility.yul\":14078:14080   */\n      0x1e\n        /* \"#utility.yul\":14073:14076   */\n      dup4\n        /* \"#utility.yul\":14014:14081   */\n      tag_181\n      jump\t// in\n    tag_322:\n        /* \"#utility.yul\":14007:14081   */\n      swap2\n      pop\n        /* \"#utility.yul\":14090:14183   */\n      tag_323\n        /* \"#utility.yul\":14179:14182   */\n      dup3\n        /* \"#utility.yul\":14090:14183   */\n      tag_204\n      jump\t// in\n    tag_323:\n        /* \"#utility.yul\":14208:14210   */\n      0x20\n        /* \"#utility.yul\":14203:14206   */\n      dup3\n        /* \"#utility.yul\":14199:14211   */\n      add\n        /* \"#utility.yul\":14192:14211   */\n      swap1\n      pop\n        /* \"#utility.yul\":13851:14217   */\n      swap2\n      swap1\n      pop\n      jump\t// out\n        /* \"#utility.yul\":14223:14642   */\n    tag_160:\n        /* \"#utility.yul\":14389:14393   */\n      0x00\n        /* \"#utility.yul\":14427:14429   */\n      0x20\n        /* \"#utility.yul\":14416:14425   */\n      dup3\n        /* \"#utility.yul\":14412:14430   */\n      add\n        /* \"#utility.yul\":14404:14430   */\n      swap1\n      pop\n        /* \"#utility.yul\":14476:14485   */\n      dup2\n        /* \"#utility.yul\":14470:14474   */\n      dup2\n        /* \"#utility.yul\":14466:14486   */\n      sub\n        /* \"#utility.yul\":14462:14463   */\n      0x00\n        /* \"#utility.yul\":14451:14460   */\n      dup4\n        /* \"#utility.yul\":14447:14464   */\n      add\n        /* \"#utility.yul\":14440:14487   */\n      mstore\n        /* \"#utility.yul\":14504:14635   */\n      tag_325\n        /* \"#utility.yul\":14630:14634   */\n      dup2\n        /* \"#utility.yul\":14504:14635   */\n      tag_205\n      jump\t// in\n    tag_325:\n        /* \"#utility.yul\":14496:14635   */\n      swap1\n      pop\n        /* \"#utility.yul\":14223:14642   */\n      swap2\n      swap1\n      pop\n      jump\t// out\n\n    auxdata: 0xa26469706673582212202ff5b353d0b4c56ae26877e30eecd07d4cbaf4a9bb80918e5427157d3310181164736f6c634300081e0033\n}\n",
				"bytecode": {
					"linkReferences": {},
					"object": "60806040526101f4600355611d4c600455348015601a575f5ffd5b506116ce806100285f395ff3fe6080604052600436106100e7575f3560e01c80634b79cb0f1161008957806394e1373c1161005857806394e1373c146102bd578063c5ebeaec146102f9578063d0e30db014610321578063d6f769d81461032b576100e7565b80634b79cb0f146102255780636112fe2e146102615780636f7581401461028957806385d06c4514610293576100e7565b80632e1a7d4d116100c55780632e1a7d4d1461018d57806335c7e925146101b5578063402d8883146101df578063481bd6af146101e9576100e7565b80631eb903cf146100eb5780632322abf31461012757806329bc969d14610151575b5f5ffd5b3480156100f6575f5ffd5b50610111600480360381019061010c9190610fe2565b610367565b60405161011e9190611025565b60405180910390f35b348015610132575f5ffd5b5061013b61037b565b6040516101489190611025565b60405180910390f35b34801561015c575f5ffd5b5061017760048036038101906101729190610fe2565b610381565b6040516101849190611025565b60405180910390f35b348015610198575f5ffd5b506101b360048036038101906101ae9190611068565b610396565b005b3480156101c0575f5ffd5b506101c961053e565b6040516101d69190611025565b60405180910390f35b6101e7610545565b005b3480156101f4575f5ffd5b5061020f600480360381019061020a9190610fe2565b610715565b60405161021c9190611025565b60405180910390f35b348015610230575f5ffd5b5061024b60048036038101906102469190610fe2565b61072a565b6040516102589190611025565b60405180910390f35b34801561026c575f5ffd5b5061028760048036038101906102829190611068565b61078a565b005b6102916109eb565b005b34801561029e575f5ffd5b506102a7610ad0565b6040516102b49190611025565b60405180910390f35b3480156102c8575f5ffd5b506102e360048036038101906102de9190610fe2565b610ad6565b6040516102f09190611025565b60405180910390f35b348015610304575f5ffd5b5061031f600480360381019061031a9190611068565b610aeb565b005b610329610d4b565b005b348015610336575f5ffd5b50610351600480360381019061034c9190610fe2565b610e2f565b60405161035e9190611025565b60405180910390f35b5f602052805f5260405f205f915090505481565b60035481565b6002602052805f5260405f205f915090505481565b5f81116103d8576040517f08c379a00000000000000000000000000000000000000000000000000000000081526004016103cf906110ed565b60405180910390fd5b805f5f3373ffffffffffffffffffffffffffffffffffffffff1673ffffffffffffffffffffffffffffffffffffffff1681526020019081526020015f20541015610457576040517f08c379a000000000000000000000000000000000000000000000000000000000815260040161044e90611155565b60405180910390fd5b805f5f3373ffffffffffffffffffffffffffffffffffffffff1673ffffffffffffffffffffffffffffffffffffffff1681526020019081526020015f205f8282546104a291906111a0565b925050819055503373ffffffffffffffffffffffffffffffffffffffff166108fc8290811502906040515f60405180830381858888f193505050501580156104ec573d5f5f3e3d5ffd5b503373ffffffffffffffffffffffffffffffffffffffff167f884edad9ce6fa2440d8a54cc123490eb96d2768479d49ff9c7366125a9424364826040516105339190611025565b60405180910390a250565b5f47905090565b5f3411610587576040517f08c379a000000000000000000000000000000000000000000000000000000000815260040161057e9061121d565b60405180910390fd5b5f61059133610e2f565b90505f81116105d5576040517f08c379a00000000000000000000000000000000000000000000000000000000081526004016105cc90611285565b60405180910390fd5b5f34905081811115610634578190503373ffffffffffffffffffffffffffffffffffffffff166108fc833461060a91906111a0565b90811502906040515f60405180830381858888f19350505050158015610632573d5f5f3e3d5ffd5b505b808261064091906111a0565b60015f3373ffffffffffffffffffffffffffffffffffffffff1673ffffffffffffffffffffffffffffffffffffffff1681526020019081526020015f20819055504260055f3373ffffffffffffffffffffffffffffffffffffffff1673ffffffffffffffffffffffffffffffffffffffff1681526020019081526020015f20819055503373ffffffffffffffffffffffffffffffffffffffff167f5c16de4f8b59bd9caf0f49a545f25819a895ed223294290b408242e72a594231826040516107099190611025565b60405180910390a25050565b6005602052805f5260405f205f915090505481565b5f61271060045460025f8573ffffffffffffffffffffffffffffffffffffffff1673ffffffffffffffffffffffffffffffffffffffff1681526020019081526020015f205461077991906112a3565b6107839190611311565b9050919050565b5f81116107cc576040517f08c379a00000000000000000000000000000000000000000000000000000000081526004016107c3906110ed565b60405180910390fd5b8060025f3373ffffffffffffffffffffffffffffffffffffffff1673ffffffffffffffffffffffffffffffffffffffff1681526020019081526020015f2054101561084c576040517f08c379a00000000000000000000000000000000000000000000000000000000081526004016108439061138b565b60405180910390fd5b5f61085633610e2f565b90505f6004546127108361086a91906112a3565b6108749190611311565b9050808360025f3373ffffffffffffffffffffffffffffffffffffffff1673ffffffffffffffffffffffffffffffffffffffff1681526020019081526020015f20546108c091906111a0565b1015610901576040517f08c379a00000000000000000000000000000000000000000000000000000000081526004016108f890611419565b60405180910390fd5b8260025f3373ffffffffffffffffffffffffffffffffffffffff1673ffffffffffffffffffffffffffffffffffffffff1681526020019081526020015f205f82825461094d91906111a0565b925050819055503373ffffffffffffffffffffffffffffffffffffffff166108fc8490811502906040515f60405180830381858888f19350505050158015610997573d5f5f3e3d5ffd5b503373ffffffffffffffffffffffffffffffffffffffff167fc30fcfbcaac9e0deffa719714eaa82396ff506a0d0d0eebe170830177288715d846040516109de9190611025565b60405180910390a2505050565b5f3411610a2d576040517f08c379a0000000000000000000000000000000000000000000000000000000008152600401610a24906114a7565b60405180910390fd5b3460025f3373ffffffffffffffffffffffffffffffffffffffff1673ffffffffffffffffffffffffffffffffffffffff1681526020019081526020015f205f828254610a7991906114c5565b925050819055503373ffffffffffffffffffffffffffffffffffffffff167fd7243f6f8212d5188fd054141cf6ea89cfc0d91facb8c3afe2f88a135848014234604051610ac69190611025565b60405180910390a2565b60045481565b6001602052805f5260405f205f915090505481565b5f8111610b2d576040517f08c379a0000000000000000000000000000000000000000000000000000000008152600401610b2490611542565b60405180910390fd5b80471015610b70576040517f08c379a0000000000000000000000000000000000000000000000000000000008152600401610b67906115aa565b60405180910390fd5b5f61271060045460025f3373ffffffffffffffffffffffffffffffffffffffff1673ffffffffffffffffffffffffffffffffffffffff1681526020019081526020015f2054610bbf91906112a3565b610bc99190611311565b90505f610bd533610e2f565b9050818382610be491906114c5565b1115610c25576040517f08c379a0000000000000000000000000000000000000000000000000000000008152600401610c1c90611612565b60405180910390fd5b8281610c3191906114c5565b60015f3373ffffffffffffffffffffffffffffffffffffffff1673ffffffffffffffffffffffffffffffffffffffff1681526020019081526020015f20819055504260055f3373ffffffffffffffffffffffffffffffffffffffff1673ffffffffffffffffffffffffffffffffffffffff1681526020019081526020015f20819055503373ffffffffffffffffffffffffffffffffffffffff166108fc8490811502906040515f60405180830381858888f19350505050158015610cf7573d5f5f3e3d5ffd5b503373ffffffffffffffffffffffffffffffffffffffff167fcbc04eca7e9da35cb1393a6135a199ca52e450d5e9251cbd99f7847d33a3675084604051610d3e9190611025565b60405180910390a2505050565b5f3411610d8d576040517f08c379a0000000000000000000000000000000000000000000000000000000008152600401610d849061167a565b60405180910390fd5b345f5f3373ffffffffffffffffffffffffffffffffffffffff1673ffffffffffffffffffffffffffffffffffffffff1681526020019081526020015f205f828254610dd891906114c5565b925050819055503373ffffffffffffffffffffffffffffffffffffffff167fe1fffcc4923d04b559f4d29a8bfc6cda04eb5b0d3c460751c2402c5c5cc9109c34604051610e259190611025565b60405180910390a2565b5f5f60015f8473ffffffffffffffffffffffffffffffffffffffff1673ffffffffffffffffffffffffffffffffffffffff1681526020019081526020015f205403610e7c575f9050610f7f565b5f60055f8473ffffffffffffffffffffffffffffffffffffffff1673ffffffffffffffffffffffffffffffffffffffff1681526020019081526020015f205442610ec691906111a0565b90505f64496cebb8008260035460015f8873ffffffffffffffffffffffffffffffffffffffff1673ffffffffffffffffffffffffffffffffffffffff1681526020019081526020015f2054610f1b91906112a3565b610f2591906112a3565b610f2f9190611311565b90508060015f8673ffffffffffffffffffffffffffffffffffffffff1673ffffffffffffffffffffffffffffffffffffffff1681526020019081526020015f2054610f7a91906114c5565b925050505b919050565b5f5ffd5b5f73ffffffffffffffffffffffffffffffffffffffff82169050919050565b5f610fb182610f88565b9050919050565b610fc181610fa7565b8114610fcb575f5ffd5b50565b5f81359050610fdc81610fb8565b92915050565b5f60208284031215610ff757610ff6610f84565b5b5f61100484828501610fce565b91505092915050565b5f819050919050565b61101f8161100d565b82525050565b5f6020820190506110385f830184611016565b92915050565b6110478161100d565b8114611051575f5ffd5b50565b5f813590506110628161103e565b92915050565b5f6020828403121561107d5761107c610f84565b5b5f61108a84828501611054565b91505092915050565b5f82825260208201905092915050565b7f4d757374207769746864726177206120706f73697469766520616d6f756e74005f82015250565b5f6110d7601f83611093565b91506110e2826110a3565b602082019050919050565b5f6020820190508181035f830152611104816110cb565b9050919050565b7f496e73756666696369656e742062616c616e63650000000000000000000000005f82015250565b5f61113f601483611093565b915061114a8261110b565b602082019050919050565b5f6020820190508181035f83015261116c81611133565b9050919050565b7f4e487b71000000000000000000000000000000000000000000000000000000005f52601160045260245ffd5b5f6111aa8261100d565b91506111b58361100d565b92508282039050818111156111cd576111cc611173565b5b92915050565b7f4d757374207265706179206120706f73697469766520616d6f756e74000000005f82015250565b5f611207601c83611093565b9150611212826111d3565b602082019050919050565b5f6020820190508181035f830152611234816111fb565b9050919050565b7f4e6f206465627420746f207265706179000000000000000000000000000000005f82015250565b5f61126f601083611093565b915061127a8261123b565b602082019050919050565b5f6020820190508181035f83015261129c81611263565b9050919050565b5f6112ad8261100d565b91506112b88361100d565b92508282026112c68161100d565b915082820484148315176112dd576112dc611173565b5b5092915050565b7f4e487b71000000000000000000000000000000000000000000000000000000005f52601260045260245ffd5b5f61131b8261100d565b91506113268361100d565b925082611336576113356112e4565b5b828204905092915050565b7f496e73756666696369656e7420636f6c6c61746572616c0000000000000000005f82015250565b5f611375601783611093565b915061138082611341565b602082019050919050565b5f6020820190508181035f8301526113a281611369565b9050919050565b7f5769746864726177616c20776f756c6420627265616b20636f6c6c61746572615f8201527f6c20726174696f00000000000000000000000000000000000000000000000000602082015250565b5f611403602783611093565b915061140e826113a9565b604082019050919050565b5f6020820190508181035f830152611430816113f7565b9050919050565b7f4d757374206465706f736974206120706f73697469766520616d6f756e7420615f8201527f7320636f6c6c61746572616c0000000000000000000000000000000000000000602082015250565b5f611491602c83611093565b915061149c82611437565b604082019050919050565b5f6020820190508181035f8301526114be81611485565b9050919050565b5f6114cf8261100d565b91506114da8361100d565b92508282019050808211156114f2576114f1611173565b5b92915050565b7f4d75737420626f72726f77206120706f73697469766520616d6f756e740000005f82015250565b5f61152c601d83611093565b9150611537826114f8565b602082019050919050565b5f6020820190508181035f83015261155981611520565b9050919050565b7f4e6f7420656e6f756768206c697175696469747920696e2074686520706f6f6c5f82015250565b5f611594602083611093565b915061159f82611560565b602082019050919050565b5f6020820190508181035f8301526115c181611588565b9050919050565b7f4578636565647320616c6c6f77656420626f72726f7720616d6f756e740000005f82015250565b5f6115fc601d83611093565b9150611607826115c8565b602082019050919050565b5f6020820190508181035f830152611629816115f0565b9050919050565b7f4d757374206465706f736974206120706f73697469766520616d6f756e7400005f82015250565b5f611664601e83611093565b915061166f82611630565b602082019050919050565b5f6020820190508181035f83015261169181611658565b905091905056fea26469706673582212202ff5b353d0b4c56ae26877e30eecd07d4cbaf4a9bb80918e5427157d3310181164736f6c634300081e0033",
					"opcodes": "PUSH1 0x80 PUSH1 0x40 MSTORE PUSH2 0x1F4 PUSH1 0x3 SSTORE PUSH2 0x1D4C PUSH1 0x4 SSTORE CALLVALUE DUP1 ISZERO PUSH1 0x1A JUMPI PUSH0 PUSH0 REVERT JUMPDEST POP PUSH2 0x16CE DUP1 PUSH2 0x28 PUSH0 CODECOPY PUSH0 RETURN INVALID PUSH1 0x80 PUSH1 0x40 MSTORE PUSH1 0x4 CALLDATASIZE LT PUSH2 0xE7 JUMPI PUSH0 CALLDATALOAD PUSH1 0xE0 SHR DUP1 PUSH4 0x4B79CB0F GT PUSH2 0x89 JUMPI DUP1 PUSH4 0x94E1373C GT PUSH2 0x58 JUMPI DUP1 PUSH4 0x94E1373C EQ PUSH2 0x2BD JUMPI DUP1 PUSH4 0xC5EBEAEC EQ PUSH2 0x2F9 JUMPI DUP1 PUSH4 0xD0E30DB0 EQ PUSH2 0x321 JUMPI DUP1 PUSH4 0xD6F769D8 EQ PUSH2 0x32B JUMPI PUSH2 0xE7 JUMP JUMPDEST DUP1 PUSH4 0x4B79CB0F EQ PUSH2 0x225 JUMPI DUP1 PUSH4 0x6112FE2E EQ PUSH2 0x261 JUMPI DUP1 PUSH4 0x6F758140 EQ PUSH2 0x289 JUMPI DUP1 PUSH4 0x85D06C45 EQ PUSH2 0x293 JUMPI PUSH2 0xE7 JUMP JUMPDEST DUP1 PUSH4 0x2E1A7D4D GT PUSH2 0xC5 JUMPI DUP1 PUSH4 0x2E1A7D4D EQ PUSH2 0x18D JUMPI DUP1 PUSH4 0x35C7E925 EQ PUSH2 0x1B5 JUMPI DUP1 PUSH4 0x402D8883 EQ PUSH2 0x1DF JUMPI DUP1 PUSH4 0x481BD6AF EQ PUSH2 0x1E9 JUMPI PUSH2 0xE7 JUMP JUMPDEST DUP1 PUSH4 0x1EB903CF EQ PUSH2 0xEB JUMPI DUP1 PUSH4 0x2322ABF3 EQ PUSH2 0x127 JUMPI DUP1 PUSH4 0x29BC969D EQ PUSH2 0x151 JUMPI JUMPDEST PUSH0 PUSH0 REVERT JUMPDEST CALLVALUE DUP1 ISZERO PUSH2 0xF6 JUMPI PUSH0 PUSH0 REVERT JUMPDEST POP PUSH2 0x111 PUSH1 0x4 DUP1 CALLDATASIZE SUB DUP2 ADD SWAP1 PUSH2 0x10C SWAP2 SWAP1 PUSH2 0xFE2 JUMP JUMPDEST PUSH2 0x367 JUMP JUMPDEST PUSH1 0x40 MLOAD PUSH2 0x11E SWAP2 SWAP1 PUSH2 0x1025 JUMP JUMPDEST PUSH1 0x40 MLOAD DUP1 SWAP2 SUB SWAP1 RETURN JUMPDEST CALLVALUE DUP1 ISZERO PUSH2 0x132 JUMPI PUSH0 PUSH0 REVERT JUMPDEST POP PUSH2 0x13B PUSH2 0x37B JUMP JUMPDEST PUSH1 0x40 MLOAD PUSH2 0x148 SWAP2 SWAP1 PUSH2 0x1025 JUMP JUMPDEST PUSH1 0x40 MLOAD DUP1 SWAP2 SUB SWAP1 RETURN JUMPDEST CALLVALUE DUP1 ISZERO PUSH2 0x15C JUMPI PUSH0 PUSH0 REVERT JUMPDEST POP PUSH2 0x177 PUSH1 0x4 DUP1 CALLDATASIZE SUB DUP2 ADD SWAP1 PUSH2 0x172 SWAP2 SWAP1 PUSH2 0xFE2 JUMP JUMPDEST PUSH2 0x381 JUMP JUMPDEST PUSH1 0x40 MLOAD PUSH2 0x184 SWAP2 SWAP1 PUSH2 0x1025 JUMP JUMPDEST PUSH1 0x40 MLOAD DUP1 SWAP2 SUB SWAP1 RETURN JUMPDEST CALLVALUE DUP1 ISZERO PUSH2 0x198 JUMPI PUSH0 PUSH0 REVERT JUMPDEST POP PUSH2 0x1B3 PUSH1 0x4 DUP1 CALLDATASIZE SUB DUP2 ADD SWAP1 PUSH2 0x1AE SWAP2 SWAP1 PUSH2 0x1068 JUMP JUMPDEST PUSH2 0x396 JUMP JUMPDEST STOP JUMPDEST CALLVALUE DUP1 ISZERO PUSH2 0x1C0 JUMPI PUSH0 PUSH0 REVERT JUMPDEST POP PUSH2 0x1C9 PUSH2 0x53E JUMP JUMPDEST PUSH1 0x40 MLOAD PUSH2 0x1D6 SWAP2 SWAP1 PUSH2 0x1025 JUMP JUMPDEST PUSH1 0x40 MLOAD DUP1 SWAP2 SUB SWAP1 RETURN JUMPDEST PUSH2 0x1E7 PUSH2 0x545 JUMP JUMPDEST STOP JUMPDEST CALLVALUE DUP1 ISZERO PUSH2 0x1F4 JUMPI PUSH0 PUSH0 REVERT JUMPDEST POP PUSH2 0x20F PUSH1 0x4 DUP1 CALLDATASIZE SUB DUP2 ADD SWAP1 PUSH2 0x20A SWAP2 SWAP1 PUSH2 0xFE2 JUMP JUMPDEST PUSH2 0x715 JUMP JUMPDEST PUSH1 0x40 MLOAD PUSH2 0x21C SWAP2 SWAP1 PUSH2 0x1025 JUMP JUMPDEST PUSH1 0x40 MLOAD DUP1 SWAP2 SUB SWAP1 RETURN JUMPDEST CALLVALUE DUP1 ISZERO PUSH2 0x230 JUMPI PUSH0 PUSH0 REVERT JUMPDEST POP PUSH2 0x24B PUSH1 0x4 DUP1 CALLDATASIZE SUB DUP2 ADD SWAP1 PUSH2 0x246 SWAP2 SWAP1 PUSH2 0xFE2 JUMP JUMPDEST PUSH2 0x72A JUMP JUMPDEST PUSH1 0x40 MLOAD PUSH2 0x258 SWAP2 SWAP1 PUSH2 0x1025 JUMP JUMPDEST PUSH1 0x40 MLOAD DUP1 SWAP2 SUB SWAP1 RETURN JUMPDEST CALLVALUE DUP1 ISZERO PUSH2 0x26C JUMPI PUSH0 PUSH0 REVERT JUMPDEST POP PUSH2 0x287 PUSH1 0x4 DUP1 CALLDATASIZE SUB DUP2 ADD SWAP1 PUSH2 0x282 SWAP2 SWAP1 PUSH2 0x1068 JUMP JUMPDEST PUSH2 0x78A JUMP JUMPDEST STOP JUMPDEST PUSH2 0x291 PUSH2 0x9EB JUMP JUMPDEST STOP JUMPDEST CALLVALUE DUP1 ISZERO PUSH2 0x29E JUMPI PUSH0 PUSH0 REVERT JUMPDEST POP PUSH2 0x2A7 PUSH2 0xAD0 JUMP JUMPDEST PUSH1 0x40 MLOAD PUSH2 0x2B4 SWAP2 SWAP1 PUSH2 0x1025 JUMP JUMPDEST PUSH1 0x40 MLOAD DUP1 SWAP2 SUB SWAP1 RETURN JUMPDEST CALLVALUE DUP1 ISZERO PUSH2 0x2C8 JUMPI PUSH0 PUSH0 REVERT JUMPDEST POP PUSH2 0x2E3 PUSH1 0x4 DUP1 CALLDATASIZE SUB DUP2 ADD SWAP1 PUSH2 0x2DE SWAP2 SWAP1 PUSH2 0xFE2 JUMP JUMPDEST PUSH2 0xAD6 JUMP JUMPDEST PUSH1 0x40 MLOAD PUSH2 0x2F0 SWAP2 SWAP1 PUSH2 0x1025 JUMP JUMPDEST PUSH1 0x40 MLOAD DUP1 SWAP2 SUB SWAP1 RETURN JUMPDEST CALLVALUE DUP1 ISZERO PUSH2 0x304 JUMPI PUSH0 PUSH0 REVERT JUMPDEST POP PUSH2 0x31F PUSH1 0x4 DUP1 CALLDATASIZE SUB DUP2 ADD SWAP1 PUSH2 0x31A SWAP2 SWAP1 PUSH2 0x1068 JUMP JUMPDEST PUSH2 0xAEB JUMP JUMPDEST STOP JUMPDEST PUSH2 0x329 PUSH2 0xD4B JUMP JUMPDEST STOP JUMPDEST CALLVALUE DUP1 ISZERO PUSH2 0x336 JUMPI PUSH0 PUSH0 REVERT JUMPDEST POP PUSH2 0x351 PUSH1 0x4 DUP1 CALLDATASIZE SUB DUP2 ADD SWAP1 PUSH2 0x34C SWAP2 SWAP1 PUSH2 0xFE2 JUMP JUMPDEST PUSH2 0xE2F JUMP JUMPDEST PUSH1 0x40 MLOAD PUSH2 0x35E SWAP2 SWAP1 PUSH2 0x1025 JUMP JUMPDEST PUSH1 0x40 MLOAD DUP1 SWAP2 SUB SWAP1 RETURN JUMPDEST PUSH0 PUSH1 0x20 MSTORE DUP1 PUSH0 MSTORE PUSH1 0x40 PUSH0 KECCAK256 PUSH0 SWAP2 POP SWAP1 POP SLOAD DUP2 JUMP JUMPDEST PUSH1 0x3 SLOAD DUP2 JUMP JUMPDEST PUSH1 0x2 PUSH1 0x20 MSTORE DUP1 PUSH0 MSTORE PUSH1 0x40 PUSH0 KECCAK256 PUSH0 SWAP2 POP SWAP1 POP SLOAD DUP2 JUMP JUMPDEST PUSH0 DUP2 GT PUSH2 0x3D8 JUMPI PUSH1 0x40 MLOAD PUSH32 0x8C379A000000000000000000000000000000000000000000000000000000000 DUP2 MSTORE PUSH1 0x4 ADD PUSH2 0x3CF SWAP1 PUSH2 0x10ED JUMP JUMPDEST PUSH1 0x40 MLOAD DUP1 SWAP2 SUB SWAP1 REVERT JUMPDEST DUP1 PUSH0 PUSH0 CALLER PUSH20 0xFFFFFFFFFFFFFFFFFFFFFFFFFFFFFFFFFFFFFFFF AND PUSH20 0xFFFFFFFFFFFFFFFFFFFFFFFFFFFFFFFFFFFFFFFF AND DUP2 MSTORE PUSH1 0x20 ADD SWAP1 DUP2 MSTORE PUSH1 0x20 ADD PUSH0 KECCAK256 SLOAD LT ISZERO PUSH2 0x457 JUMPI PUSH1 0x40 MLOAD PUSH32 0x8C379A000000000000000000000000000000000000000000000000000000000 DUP2 MSTORE PUSH1 0x4 ADD PUSH2 0x44E SWAP1 PUSH2 0x1155 JUMP JUMPDEST PUSH1 0x40 MLOAD DUP1 SWAP2 SUB SWAP1 REVERT JUMPDEST DUP1 PUSH0 PUSH0 CALLER PUSH20 0xFFFFFFFFFFFFFFFFFFFFFFFFFFFFFFFFFFFFFFFF AND PUSH20 0xFFFFFFFFFFFFFFFFFFFFFFFFFFFFFFFFFFFFFFFF AND DUP2 MSTORE PUSH1 0x20 ADD SWAP1 DUP2 MSTORE PUSH1 0x20 ADD PUSH0 KECCAK256 PUSH0 DUP3 DUP3 SLOAD PUSH2 0x4A2 SWAP2 SWAP1 PUSH2 0x11A0 JUMP JUMPDEST SWAP3 POP POP DUP2 SWAP1 SSTORE POP CALLER PUSH20 0xFFFFFFFFFFFFFFFFFFFFFFFFFFFFFFFFFFFFFFFF AND PUSH2 0x8FC DUP3 SWAP1 DUP2 ISZERO MUL SWAP1 PUSH1 0x40 MLOAD PUSH0 PUSH1 0x40 MLOAD DUP1 DUP4 SUB DUP2 DUP6 DUP9 DUP9 CALL SWAP4 POP POP POP POP ISZERO DUP1 ISZERO PUSH2 0x4EC JUMPI RETURNDATASIZE PUSH0 PUSH0 RETURNDATACOPY RETURNDATASIZE PUSH0 REVERT JUMPDEST POP CALLER PUSH20 0xFFFFFFFFFFFFFFFFFFFFFFFFFFFFFFFFFFFFFFFF AND PUSH32 0x884EDAD9CE6FA2440D8A54CC123490EB96D2768479D49FF9C7366125A9424364 DUP3 PUSH1 0x40 MLOAD PUSH2 0x533 SWAP2 SWAP1 PUSH2 0x1025 JUMP JUMPDEST PUSH1 0x40 MLOAD DUP1 SWAP2 SUB SWAP1 LOG2 POP JUMP JUMPDEST PUSH0 SELFBALANCE SWAP1 POP SWAP1 JUMP JUMPDEST PUSH0 CALLVALUE GT PUSH2 0x587 JUMPI PUSH1 0x40 MLOAD PUSH32 0x8C379A000000000000000000000000000000000000000000000000000000000 DUP2 MSTORE PUSH1 0x4 ADD PUSH2 0x57E SWAP1 PUSH2 0x121D JUMP JUMPDEST PUSH1 0x40 MLOAD DUP1 SWAP2 SUB SWAP1 REVERT JUMPDEST PUSH0 PUSH2 0x591 CALLER PUSH2 0xE2F JUMP JUMPDEST SWAP1 POP PUSH0 DUP2 GT PUSH2 0x5D5 JUMPI PUSH1 0x40 MLOAD PUSH32 0x8C379A000000000000000000000000000000000000000000000000000000000 DUP2 MSTORE PUSH1 0x4 ADD PUSH2 0x5CC SWAP1 PUSH2 0x1285 JUMP JUMPDEST PUSH1 0x40 MLOAD DUP1 SWAP2 SUB SWAP1 REVERT JUMPDEST PUSH0 CALLVALUE SWAP1 POP DUP2 DUP2 GT ISZERO PUSH2 0x634 JUMPI DUP2 SWAP1 POP CALLER PUSH20 0xFFFFFFFFFFFFFFFFFFFFFFFFFFFFFFFFFFFFFFFF AND PUSH2 0x8FC DUP4 CALLVALUE PUSH2 0x60A SWAP2 SWAP1 PUSH2 0x11A0 JUMP JUMPDEST SWAP1 DUP2 ISZERO MUL SWAP1 PUSH1 0x40 MLOAD PUSH0 PUSH1 0x40 MLOAD DUP1 DUP4 SUB DUP2 DUP6 DUP9 DUP9 CALL SWAP4 POP POP POP POP ISZERO DUP1 ISZERO PUSH2 0x632 JUMPI RETURNDATASIZE PUSH0 PUSH0 RETURNDATACOPY RETURNDATASIZE PUSH0 REVERT JUMPDEST POP JUMPDEST DUP1 DUP3 PUSH2 0x640 SWAP2 SWAP1 PUSH2 0x11A0 JUMP JUMPDEST PUSH1 0x1 PUSH0 CALLER PUSH20 0xFFFFFFFFFFFFFFFFFFFFFFFFFFFFFFFFFFFFFFFF AND PUSH20 0xFFFFFFFFFFFFFFFFFFFFFFFFFFFFFFFFFFFFFFFF AND DUP2 MSTORE PUSH1 0x20 ADD SWAP1 DUP2 MSTORE PUSH1 0x20 ADD PUSH0 KECCAK256 DUP2 SWAP1 SSTORE POP TIMESTAMP PUSH1 0x5 PUSH0 CALLER PUSH20 0xFFFFFFFFFFFFFFFFFFFFFFFFFFFFFFFFFFFFFFFF AND PUSH20 0xFFFFFFFFFFFFFFFFFFFFFFFFFFFFFFFFFFFFFFFF AND DUP2 MSTORE PUSH1 0x20 ADD SWAP1 DUP2 MSTORE PUSH1 0x20 ADD PUSH0 KECCAK256 DUP2 SWAP1 SSTORE POP CALLER PUSH20 0xFFFFFFFFFFFFFFFFFFFFFFFFFFFFFFFFFFFFFFFF AND PUSH32 0x5C16DE4F8B59BD9CAF0F49A545F25819A895ED223294290B408242E72A594231 DUP3 PUSH1 0x40 MLOAD PUSH2 0x709 SWAP2 SWAP1 PUSH2 0x1025 JUMP JUMPDEST PUSH1 0x40 MLOAD DUP1 SWAP2 SUB SWAP1 LOG2 POP POP JUMP JUMPDEST PUSH1 0x5 PUSH1 0x20 MSTORE DUP1 PUSH0 MSTORE PUSH1 0x40 PUSH0 KECCAK256 PUSH0 SWAP2 POP SWAP1 POP SLOAD DUP2 JUMP JUMPDEST PUSH0 PUSH2 0x2710 PUSH1 0x4 SLOAD PUSH1 0x2 PUSH0 DUP6 PUSH20 0xFFFFFFFFFFFFFFFFFFFFFFFFFFFFFFFFFFFFFFFF AND PUSH20 0xFFFFFFFFFFFFFFFFFFFFFFFFFFFFFFFFFFFFFFFF AND DUP2 MSTORE PUSH1 0x20 ADD SWAP1 DUP2 MSTORE PUSH1 0x20 ADD PUSH0 KECCAK256 SLOAD PUSH2 0x779 SWAP2 SWAP1 PUSH2 0x12A3 JUMP JUMPDEST PUSH2 0x783 SWAP2 SWAP1 PUSH2 0x1311 JUMP JUMPDEST SWAP1 POP SWAP2 SWAP1 POP JUMP JUMPDEST PUSH0 DUP2 GT PUSH2 0x7CC JUMPI PUSH1 0x40 MLOAD PUSH32 0x8C379A000000000000000000000000000000000000000000000000000000000 DUP2 MSTORE PUSH1 0x4 ADD PUSH2 0x7C3 SWAP1 PUSH2 0x10ED JUMP JUMPDEST PUSH1 0x40 MLOAD DUP1 SWAP2 SUB SWAP1 REVERT JUMPDEST DUP1 PUSH1 0x2 PUSH0 CALLER PUSH20 0xFFFFFFFFFFFFFFFFFFFFFFFFFFFFFFFFFFFFFFFF AND PUSH20 0xFFFFFFFFFFFFFFFFFFFFFFFFFFFFFFFFFFFFFFFF AND DUP2 MSTORE PUSH1 0x20 ADD SWAP1 DUP2 MSTORE PUSH1 0x20 ADD PUSH0 KECCAK256 SLOAD LT ISZERO PUSH2 0x84C JUMPI PUSH1 0x40 MLOAD PUSH32 0x8C379A000000000000000000000000000000000000000000000000000000000 DUP2 MSTORE PUSH1 0x4 ADD PUSH2 0x843 SWAP1 PUSH2 0x138B JUMP JUMPDEST PUSH1 0x40 MLOAD DUP1 SWAP2 SUB SWAP1 REVERT JUMPDEST PUSH0 PUSH2 0x856 CALLER PUSH2 0xE2F JUMP JUMPDEST SWAP1 POP PUSH0 PUSH1 0x4 SLOAD PUSH2 0x2710 DUP4 PUSH2 0x86A SWAP2 SWAP1 PUSH2 0x12A3 JUMP JUMPDEST PUSH2 0x874 SWAP2 SWAP1 PUSH2 0x1311 JUMP JUMPDEST SWAP1 POP DUP1 DUP4 PUSH1 0x2 PUSH0 CALLER PUSH20 0xFFFFFFFFFFFFFFFFFFFFFFFFFFFFFFFFFFFFFFFF AND PUSH20 0xFFFFFFFFFFFFFFFFFFFFFFFFFFFFFFFFFFFFFFFF AND DUP2 MSTORE PUSH1 0x20 ADD SWAP1 DUP2 MSTORE PUSH1 0x20 ADD PUSH0 KECCAK256 SLOAD PUSH2 0x8C0 SWAP2 SWAP1 PUSH2 0x11A0 JUMP JUMPDEST LT ISZERO PUSH2 0x901 JUMPI PUSH1 0x40 MLOAD PUSH32 0x8C379A000000000000000000000000000000000000000000000000000000000 DUP2 MSTORE PUSH1 0x4 ADD PUSH2 0x8F8 SWAP1 PUSH2 0x1419 JUMP JUMPDEST PUSH1 0x40 MLOAD DUP1 SWAP2 SUB SWAP1 REVERT JUMPDEST DUP3 PUSH1 0x2 PUSH0 CALLER PUSH20 0xFFFFFFFFFFFFFFFFFFFFFFFFFFFFFFFFFFFFFFFF AND PUSH20 0xFFFFFFFFFFFFFFFFFFFFFFFFFFFFFFFFFFFFFFFF AND DUP2 MSTORE PUSH1 0x20 ADD SWAP1 DUP2 MSTORE PUSH1 0x20 ADD PUSH0 KECCAK256 PUSH0 DUP3 DUP3 SLOAD PUSH2 0x94D SWAP2 SWAP1 PUSH2 0x11A0 JUMP JUMPDEST SWAP3 POP POP DUP2 SWAP1 SSTORE POP CALLER PUSH20 0xFFFFFFFFFFFFFFFFFFFFFFFFFFFFFFFFFFFFFFFF AND PUSH2 0x8FC DUP5 SWAP1 DUP2 ISZERO MUL SWAP1 PUSH1 0x40 MLOAD PUSH0 PUSH1 0x40 MLOAD DUP1 DUP4 SUB DUP2 DUP6 DUP9 DUP9 CALL SWAP4 POP POP POP POP ISZERO DUP1 ISZERO PUSH2 0x997 JUMPI RETURNDATASIZE PUSH0 PUSH0 RETURNDATACOPY RETURNDATASIZE PUSH0 REVERT JUMPDEST POP CALLER PUSH20 0xFFFFFFFFFFFFFFFFFFFFFFFFFFFFFFFFFFFFFFFF AND PUSH32 0xC30FCFBCAAC9E0DEFFA719714EAA82396FF506A0D0D0EEBE170830177288715D DUP5 PUSH1 0x40 MLOAD PUSH2 0x9DE SWAP2 SWAP1 PUSH2 0x1025 JUMP JUMPDEST PUSH1 0x40 MLOAD DUP1 SWAP2 SUB SWAP1 LOG2 POP POP POP JUMP JUMPDEST PUSH0 CALLVALUE GT PUSH2 0xA2D JUMPI PUSH1 0x40 MLOAD PUSH32 0x8C379A000000000000000000000000000000000000000000000000000000000 DUP2 MSTORE PUSH1 0x4 ADD PUSH2 0xA24 SWAP1 PUSH2 0x14A7 JUMP JUMPDEST PUSH1 0x40 MLOAD DUP1 SWAP2 SUB SWAP1 REVERT JUMPDEST CALLVALUE PUSH1 0x2 PUSH0 CALLER PUSH20 0xFFFFFFFFFFFFFFFFFFFFFFFFFFFFFFFFFFFFFFFF AND PUSH20 0xFFFFFFFFFFFFFFFFFFFFFFFFFFFFFFFFFFFFFFFF AND DUP2 MSTORE PUSH1 0x20 ADD SWAP1 DUP2 MSTORE PUSH1 0x20 ADD PUSH0 KECCAK256 PUSH0 DUP3 DUP3 SLOAD PUSH2 0xA79 SWAP2 SWAP1 PUSH2 0x14C5 JUMP JUMPDEST SWAP3 POP POP DUP2 SWAP1 SSTORE POP CALLER PUSH20 0xFFFFFFFFFFFFFFFFFFFFFFFFFFFFFFFFFFFFFFFF AND PUSH32 0xD7243F6F8212D5188FD054141CF6EA89CFC0D91FACB8C3AFE2F88A1358480142 CALLVALUE PUSH1 0x40 MLOAD PUSH2 0xAC6 SWAP2 SWAP1 PUSH2 0x1025 JUMP JUMPDEST PUSH1 0x40 MLOAD DUP1 SWAP2 SUB SWAP1 LOG2 JUMP JUMPDEST PUSH1 0x4 SLOAD DUP2 JUMP JUMPDEST PUSH1 0x1 PUSH1 0x20 MSTORE DUP1 PUSH0 MSTORE PUSH1 0x40 PUSH0 KECCAK256 PUSH0 SWAP2 POP SWAP1 POP SLOAD DUP2 JUMP JUMPDEST PUSH0 DUP2 GT PUSH2 0xB2D JUMPI PUSH1 0x40 MLOAD PUSH32 0x8C379A000000000000000000000000000000000000000000000000000000000 DUP2 MSTORE PUSH1 0x4 ADD PUSH2 0xB24 SWAP1 PUSH2 0x1542 JUMP JUMPDEST PUSH1 0x40 MLOAD DUP1 SWAP2 SUB SWAP1 REVERT JUMPDEST DUP1 SELFBALANCE LT ISZERO PUSH2 0xB70 JUMPI PUSH1 0x40 MLOAD PUSH32 0x8C379A000000000000000000000000000000000000000000000000000000000 DUP2 MSTORE PUSH1 0x4 ADD PUSH2 0xB67 SWAP1 PUSH2 0x15AA JUMP JUMPDEST PUSH1 0x40 MLOAD DUP1 SWAP2 SUB SWAP1 REVERT JUMPDEST PUSH0 PUSH2 0x2710 PUSH1 0x4 SLOAD PUSH1 0x2 PUSH0 CALLER PUSH20 0xFFFFFFFFFFFFFFFFFFFFFFFFFFFFFFFFFFFFFFFF AND PUSH20 0xFFFFFFFFFFFFFFFFFFFFFFFFFFFFFFFFFFFFFFFF AND DUP2 MSTORE PUSH1 0x20 ADD SWAP1 DUP2 MSTORE PUSH1 0x20 ADD PUSH0 KECCAK256 SLOAD PUSH2 0xBBF SWAP2 SWAP1 PUSH2 0x12A3 JUMP JUMPDEST PUSH2 0xBC9 SWAP2 SWAP1 PUSH2 0x1311 JUMP JUMPDEST SWAP1 POP PUSH0 PUSH2 0xBD5 CALLER PUSH2 0xE2F JUMP JUMPDEST SWAP1 POP DUP2 DUP4 DUP3 PUSH2 0xBE4 SWAP2 SWAP1 PUSH2 0x14C5 JUMP JUMPDEST GT ISZERO PUSH2 0xC25 JUMPI PUSH1 0x40 MLOAD PUSH32 0x8C379A000000000000000000000000000000000000000000000000000000000 DUP2 MSTORE PUSH1 0x4 ADD PUSH2 0xC1C SWAP1 PUSH2 0x1612 JUMP JUMPDEST PUSH1 0x40 MLOAD DUP1 SWAP2 SUB SWAP1 REVERT JUMPDEST DUP3 DUP2 PUSH2 0xC31 SWAP2 SWAP1 PUSH2 0x14C5 JUMP JUMPDEST PUSH1 0x1 PUSH0 CALLER PUSH20 0xFFFFFFFFFFFFFFFFFFFFFFFFFFFFFFFFFFFFFFFF AND PUSH20 0xFFFFFFFFFFFFFFFFFFFFFFFFFFFFFFFFFFFFFFFF AND DUP2 MSTORE PUSH1 0x20 ADD SWAP1 DUP2 MSTORE PUSH1 0x20 ADD PUSH0 KECCAK256 DUP2 SWAP1 SSTORE POP TIMESTAMP PUSH1 0x5 PUSH0 CALLER PUSH20 0xFFFFFFFFFFFFFFFFFFFFFFFFFFFFFFFFFFFFFFFF AND PUSH20 0xFFFFFFFFFFFFFFFFFFFFFFFFFFFFFFFFFFFFFFFF AND DUP2 MSTORE PUSH1 0x20 ADD SWAP1 DUP2 MSTORE PUSH1 0x20 ADD PUSH0 KECCAK256 DUP2 SWAP1 SSTORE POP CALLER PUSH20 0xFFFFFFFFFFFFFFFFFFFFFFFFFFFFFFFFFFFFFFFF AND PUSH2 0x8FC DUP5 SWAP1 DUP2 ISZERO MUL SWAP1 PUSH1 0x40 MLOAD PUSH0 PUSH1 0x40 MLOAD DUP1 DUP4 SUB DUP2 DUP6 DUP9 DUP9 CALL SWAP4 POP POP POP POP ISZERO DUP1 ISZERO PUSH2 0xCF7 JUMPI RETURNDATASIZE PUSH0 PUSH0 RETURNDATACOPY RETURNDATASIZE PUSH0 REVERT JUMPDEST POP CALLER PUSH20 0xFFFFFFFFFFFFFFFFFFFFFFFFFFFFFFFFFFFFFFFF AND PUSH32 0xCBC04ECA7E9DA35CB1393A6135A199CA52E450D5E9251CBD99F7847D33A36750 DUP5 PUSH1 0x40 MLOAD PUSH2 0xD3E SWAP2 SWAP1 PUSH2 0x1025 JUMP JUMPDEST PUSH1 0x40 MLOAD DUP1 SWAP2 SUB SWAP1 LOG2 POP POP POP JUMP JUMPDEST PUSH0 CALLVALUE GT PUSH2 0xD8D JUMPI PUSH1 0x40 MLOAD PUSH32 0x8C379A000000000000000000000000000000000000000000000000000000000 DUP2 MSTORE PUSH1 0x4 ADD PUSH2 0xD84 SWAP1 PUSH2 0x167A JUMP JUMPDEST PUSH1 0x40 MLOAD DUP1 SWAP2 SUB SWAP1 REVERT JUMPDEST CALLVALUE PUSH0 PUSH0 CALLER PUSH20 0xFFFFFFFFFFFFFFFFFFFFFFFFFFFFFFFFFFFFFFFF AND PUSH20 0xFFFFFFFFFFFFFFFFFFFFFFFFFFFFFFFFFFFFFFFF AND DUP2 MSTORE PUSH1 0x20 ADD SWAP1 DUP2 MSTORE PUSH1 0x20 ADD PUSH0 KECCAK256 PUSH0 DUP3 DUP3 SLOAD PUSH2 0xDD8 SWAP2 SWAP1 PUSH2 0x14C5 JUMP JUMPDEST SWAP3 POP POP DUP2 SWAP1 SSTORE POP CALLER PUSH20 0xFFFFFFFFFFFFFFFFFFFFFFFFFFFFFFFFFFFFFFFF AND PUSH32 0xE1FFFCC4923D04B559F4D29A8BFC6CDA04EB5B0D3C460751C2402C5C5CC9109C CALLVALUE PUSH1 0x40 MLOAD PUSH2 0xE25 SWAP2 SWAP1 PUSH2 0x1025 JUMP JUMPDEST PUSH1 0x40 MLOAD DUP1 SWAP2 SUB SWAP1 LOG2 JUMP JUMPDEST PUSH0 PUSH0 PUSH1 0x1 PUSH0 DUP5 PUSH20 0xFFFFFFFFFFFFFFFFFFFFFFFFFFFFFFFFFFFFFFFF AND PUSH20 0xFFFFFFFFFFFFFFFFFFFFFFFFFFFFFFFFFFFFFFFF AND DUP2 MSTORE PUSH1 0x20 ADD SWAP1 DUP2 MSTORE PUSH1 0x20 ADD PUSH0 KECCAK256 SLOAD SUB PUSH2 0xE7C JUMPI PUSH0 SWAP1 POP PUSH2 0xF7F JUMP JUMPDEST PUSH0 PUSH1 0x5 PUSH0 DUP5 PUSH20 0xFFFFFFFFFFFFFFFFFFFFFFFFFFFFFFFFFFFFFFFF AND PUSH20 0xFFFFFFFFFFFFFFFFFFFFFFFFFFFFFFFFFFFFFFFF AND DUP2 MSTORE PUSH1 0x20 ADD SWAP1 DUP2 MSTORE PUSH1 0x20 ADD PUSH0 KECCAK256 SLOAD TIMESTAMP PUSH2 0xEC6 SWAP2 SWAP1 PUSH2 0x11A0 JUMP JUMPDEST SWAP1 POP PUSH0 PUSH5 0x496CEBB800 DUP3 PUSH1 0x3 SLOAD PUSH1 0x1 PUSH0 DUP9 PUSH20 0xFFFFFFFFFFFFFFFFFFFFFFFFFFFFFFFFFFFFFFFF AND PUSH20 0xFFFFFFFFFFFFFFFFFFFFFFFFFFFFFFFFFFFFFFFF AND DUP2 MSTORE PUSH1 0x20 ADD SWAP1 DUP2 MSTORE PUSH1 0x20 ADD PUSH0 KECCAK256 SLOAD PUSH2 0xF1B SWAP2 SWAP1 PUSH2 0x12A3 JUMP JUMPDEST PUSH2 0xF25 SWAP2 SWAP1 PUSH2 0x12A3 JUMP JUMPDEST PUSH2 0xF2F SWAP2 SWAP1 PUSH2 0x1311 JUMP JUMPDEST SWAP1 POP DUP1 PUSH1 0x1 PUSH0 DUP7 PUSH20 0xFFFFFFFFFFFFFFFFFFFFFFFFFFFFFFFFFFFFFFFF AND PUSH20 0xFFFFFFFFFFFFFFFFFFFFFFFFFFFFFFFFFFFFFFFF AND DUP2 MSTORE PUSH1 0x20 ADD SWAP1 DUP2 MSTORE PUSH1 0x20 ADD PUSH0 KECCAK256 SLOAD PUSH2 0xF7A SWAP2 SWAP1 PUSH2 0x14C5 JUMP JUMPDEST SWAP3 POP POP POP JUMPDEST SWAP2 SWAP1 POP JUMP JUMPDEST PUSH0 PUSH0 REVERT JUMPDEST PUSH0 PUSH20 0xFFFFFFFFFFFFFFFFFFFFFFFFFFFFFFFFFFFFFFFF DUP3 AND SWAP1 POP SWAP2 SWAP1 POP JUMP JUMPDEST PUSH0 PUSH2 0xFB1 DUP3 PUSH2 0xF88 JUMP JUMPDEST SWAP1 POP SWAP2 SWAP1 POP JUMP JUMPDEST PUSH2 0xFC1 DUP2 PUSH2 0xFA7 JUMP JUMPDEST DUP2 EQ PUSH2 0xFCB JUMPI PUSH0 PUSH0 REVERT JUMPDEST POP JUMP JUMPDEST PUSH0 DUP2 CALLDATALOAD SWAP1 POP PUSH2 0xFDC DUP2 PUSH2 0xFB8 JUMP JUMPDEST SWAP3 SWAP2 POP POP JUMP JUMPDEST PUSH0 PUSH1 0x20 DUP3 DUP5 SUB SLT ISZERO PUSH2 0xFF7 JUMPI PUSH2 0xFF6 PUSH2 0xF84 JUMP JUMPDEST JUMPDEST PUSH0 PUSH2 0x1004 DUP5 DUP3 DUP6 ADD PUSH2 0xFCE JUMP JUMPDEST SWAP2 POP POP SWAP3 SWAP2 POP POP JUMP JUMPDEST PUSH0 DUP2 SWAP1 POP SWAP2 SWAP1 POP JUMP JUMPDEST PUSH2 0x101F DUP2 PUSH2 0x100D JUMP JUMPDEST DUP3 MSTORE POP POP JUMP JUMPDEST PUSH0 PUSH1 0x20 DUP3 ADD SWAP1 POP PUSH2 0x1038 PUSH0 DUP4 ADD DUP5 PUSH2 0x1016 JUMP JUMPDEST SWAP3 SWAP2 POP POP JUMP JUMPDEST PUSH2 0x1047 DUP2 PUSH2 0x100D JUMP JUMPDEST DUP2 EQ PUSH2 0x1051 JUMPI PUSH0 PUSH0 REVERT JUMPDEST POP JUMP JUMPDEST PUSH0 DUP2 CALLDATALOAD SWAP1 POP PUSH2 0x1062 DUP2 PUSH2 0x103E JUMP JUMPDEST SWAP3 SWAP2 POP POP JUMP JUMPDEST PUSH0 PUSH1 0x20 DUP3 DUP5 SUB SLT ISZERO PUSH2 0x107D JUMPI PUSH2 0x107C PUSH2 0xF84 JUMP JUMPDEST JUMPDEST PUSH0 PUSH2 0x108A DUP5 DUP3 DUP6 ADD PUSH2 0x1054 JUMP JUMPDEST SWAP2 POP POP SWAP3 SWAP2 POP POP JUMP JUMPDEST PUSH0 DUP3 DUP3 MSTORE PUSH1 0x20 DUP3 ADD SWAP1 POP SWAP3 SWAP2 POP POP JUMP JUMPDEST PUSH32 0x4D757374207769746864726177206120706F73697469766520616D6F756E7400 PUSH0 DUP3 ADD MSTORE POP JUMP JUMPDEST PUSH0 PUSH2 0x10D7 PUSH1 0x1F DUP4 PUSH2 0x1093 JUMP JUMPDEST SWAP2 POP PUSH2 0x10E2 DUP3 PUSH2 0x10A3 JUMP JUMPDEST PUSH1 0x20 DUP3 ADD SWAP1 POP SWAP2 SWAP1 POP JUMP JUMPDEST PUSH0 PUSH1 0x20 DUP3 ADD SWAP1 POP DUP2 DUP2 SUB PUSH0 DUP4 ADD MSTORE PUSH2 0x1104 DUP2 PUSH2 0x10CB JUMP JUMPDEST SWAP1 POP SWAP2 SWAP1 POP JUMP JUMPDEST PUSH32 0x496E73756666696369656E742062616C616E6365000000000000000000000000 PUSH0 DUP3 ADD MSTORE POP JUMP JUMPDEST PUSH0 PUSH2 0x113F PUSH1 0x14 DUP4 PUSH2 0x1093 JUMP JUMPDEST SWAP2 POP PUSH2 0x114A DUP3 PUSH2 0x110B JUMP JUMPDEST PUSH1 0x20 DUP3 ADD SWAP1 POP SWAP2 SWAP1 POP JUMP JUMPDEST PUSH0 PUSH1 0x20 DUP3 ADD SWAP1 POP DUP2 DUP2 SUB PUSH0 DUP4 ADD MSTORE PUSH2 0x116C DUP2 PUSH2 0x1133 JUMP JUMPDEST SWAP1 POP SWAP2 SWAP1 POP JUMP JUMPDEST PUSH32 0x4E487B7100000000000000000000000000000000000000000000000000000000 PUSH0 MSTORE PUSH1 0x11 PUSH1 0x4 MSTORE PUSH1 0x24 PUSH0 REVERT JUMPDEST PUSH0 PUSH2 0x11AA DUP3 PUSH2 0x100D JUMP JUMPDEST SWAP2 POP PUSH2 0x11B5 DUP4 PUSH2 0x100D JUMP JUMPDEST SWAP3 POP DUP3 DUP3 SUB SWAP1 POP DUP2 DUP2 GT ISZERO PUSH2 0x11CD JUMPI PUSH2 0x11CC PUSH2 0x1173 JUMP JUMPDEST JUMPDEST SWAP3 SWAP2 POP POP JUMP JUMPDEST PUSH32 0x4D757374207265706179206120706F73697469766520616D6F756E7400000000 PUSH0 DUP3 ADD MSTORE POP JUMP JUMPDEST PUSH0 PUSH2 0x1207 PUSH1 0x1C DUP4 PUSH2 0x1093 JUMP JUMPDEST SWAP2 POP PUSH2 0x1212 DUP3 PUSH2 0x11D3 JUMP JUMPDEST PUSH1 0x20 DUP3 ADD SWAP1 POP SWAP2 SWAP1 POP JUMP JUMPDEST PUSH0 PUSH1 0x20 DUP3 ADD SWAP1 POP DUP2 DUP2 SUB PUSH0 DUP4 ADD MSTORE PUSH2 0x1234 DUP2 PUSH2 0x11FB JUMP JUMPDEST SWAP1 POP SWAP2 SWAP1 POP JUMP JUMPDEST PUSH32 0x4E6F206465627420746F20726570617900000000000000000000000000000000 PUSH0 DUP3 ADD MSTORE POP JUMP JUMPDEST PUSH0 PUSH2 0x126F PUSH1 0x10 DUP4 PUSH2 0x1093 JUMP JUMPDEST SWAP2 POP PUSH2 0x127A DUP3 PUSH2 0x123B JUMP JUMPDEST PUSH1 0x20 DUP3 ADD SWAP1 POP SWAP2 SWAP1 POP JUMP JUMPDEST PUSH0 PUSH1 0x20 DUP3 ADD SWAP1 POP DUP2 DUP2 SUB PUSH0 DUP4 ADD MSTORE PUSH2 0x129C DUP2 PUSH2 0x1263 JUMP JUMPDEST SWAP1 POP SWAP2 SWAP1 POP JUMP JUMPDEST PUSH0 PUSH2 0x12AD DUP3 PUSH2 0x100D JUMP JUMPDEST SWAP2 POP PUSH2 0x12B8 DUP4 PUSH2 0x100D JUMP JUMPDEST SWAP3 POP DUP3 DUP3 MUL PUSH2 0x12C6 DUP2 PUSH2 0x100D JUMP JUMPDEST SWAP2 POP DUP3 DUP3 DIV DUP5 EQ DUP4 ISZERO OR PUSH2 0x12DD JUMPI PUSH2 0x12DC PUSH2 0x1173 JUMP JUMPDEST JUMPDEST POP SWAP3 SWAP2 POP POP JUMP JUMPDEST PUSH32 0x4E487B7100000000000000000000000000000000000000000000000000000000 PUSH0 MSTORE PUSH1 0x12 PUSH1 0x4 MSTORE PUSH1 0x24 PUSH0 REVERT JUMPDEST PUSH0 PUSH2 0x131B DUP3 PUSH2 0x100D JUMP JUMPDEST SWAP2 POP PUSH2 0x1326 DUP4 PUSH2 0x100D JUMP JUMPDEST SWAP3 POP DUP3 PUSH2 0x1336 JUMPI PUSH2 0x1335 PUSH2 0x12E4 JUMP JUMPDEST JUMPDEST DUP3 DUP3 DIV SWAP1 POP SWAP3 SWAP2 POP POP JUMP JUMPDEST PUSH32 0x496E73756666696369656E7420636F6C6C61746572616C000000000000000000 PUSH0 DUP3 ADD MSTORE POP JUMP JUMPDEST PUSH0 PUSH2 0x1375 PUSH1 0x17 DUP4 PUSH2 0x1093 JUMP JUMPDEST SWAP2 POP PUSH2 0x1380 DUP3 PUSH2 0x1341 JUMP JUMPDEST PUSH1 0x20 DUP3 ADD SWAP1 POP SWAP2 SWAP1 POP JUMP JUMPDEST PUSH0 PUSH1 0x20 DUP3 ADD SWAP1 POP DUP2 DUP2 SUB PUSH0 DUP4 ADD MSTORE PUSH2 0x13A2 DUP2 PUSH2 0x1369 JUMP JUMPDEST SWAP1 POP SWAP2 SWAP1 POP JUMP JUMPDEST PUSH32 0x5769746864726177616C20776F756C6420627265616B20636F6C6C6174657261 PUSH0 DUP3 ADD MSTORE PUSH32 0x6C20726174696F00000000000000000000000000000000000000000000000000 PUSH1 0x20 DUP3 ADD MSTORE POP JUMP JUMPDEST PUSH0 PUSH2 0x1403 PUSH1 0x27 DUP4 PUSH2 0x1093 JUMP JUMPDEST SWAP2 POP PUSH2 0x140E DUP3 PUSH2 0x13A9 JUMP JUMPDEST PUSH1 0x40 DUP3 ADD SWAP1 POP SWAP2 SWAP1 POP JUMP JUMPDEST PUSH0 PUSH1 0x20 DUP3 ADD SWAP1 POP DUP2 DUP2 SUB PUSH0 DUP4 ADD MSTORE PUSH2 0x1430 DUP2 PUSH2 0x13F7 JUMP JUMPDEST SWAP1 POP SWAP2 SWAP1 POP JUMP JUMPDEST PUSH32 0x4D757374206465706F736974206120706F73697469766520616D6F756E742061 PUSH0 DUP3 ADD MSTORE PUSH32 0x7320636F6C6C61746572616C0000000000000000000000000000000000000000 PUSH1 0x20 DUP3 ADD MSTORE POP JUMP JUMPDEST PUSH0 PUSH2 0x1491 PUSH1 0x2C DUP4 PUSH2 0x1093 JUMP JUMPDEST SWAP2 POP PUSH2 0x149C DUP3 PUSH2 0x1437 JUMP JUMPDEST PUSH1 0x40 DUP3 ADD SWAP1 POP SWAP2 SWAP1 POP JUMP JUMPDEST PUSH0 PUSH1 0x20 DUP3 ADD SWAP1 POP DUP2 DUP2 SUB PUSH0 DUP4 ADD MSTORE PUSH2 0x14BE DUP2 PUSH2 0x1485 JUMP JUMPDEST SWAP1 POP SWAP2 SWAP1 POP JUMP JUMPDEST PUSH0 PUSH2 0x14CF DUP3 PUSH2 0x100D JUMP JUMPDEST SWAP2 POP PUSH2 0x14DA DUP4 PUSH2 0x100D JUMP JUMPDEST SWAP3 POP DUP3 DUP3 ADD SWAP1 POP DUP1 DUP3 GT ISZERO PUSH2 0x14F2 JUMPI PUSH2 0x14F1 PUSH2 0x1173 JUMP JUMPDEST JUMPDEST SWAP3 SWAP2 POP POP JUMP JUMPDEST PUSH32 0x4D75737420626F72726F77206120706F73697469766520616D6F756E74000000 PUSH0 DUP3 ADD MSTORE POP JUMP JUMPDEST PUSH0 PUSH2 0x152C PUSH1 0x1D DUP4 PUSH2 0x1093 JUMP JUMPDEST SWAP2 POP PUSH2 0x1537 DUP3 PUSH2 0x14F8 JUMP JUMPDEST PUSH1 0x20 DUP3 ADD SWAP1 POP SWAP2 SWAP1 POP JUMP JUMPDEST PUSH0 PUSH1 0x20 DUP3 ADD SWAP1 POP DUP2 DUP2 SUB PUSH0 DUP4 ADD MSTORE PUSH2 0x1559 DUP2 PUSH2 0x1520 JUMP JUMPDEST SWAP1 POP SWAP2 SWAP1 POP JUMP JUMPDEST PUSH32 0x4E6F7420656E6F756768206C697175696469747920696E2074686520706F6F6C PUSH0 DUP3 ADD MSTORE POP JUMP JUMPDEST PUSH0 PUSH2 0x1594 PUSH1 0x20 DUP4 PUSH2 0x1093 JUMP JUMPDEST SWAP2 POP PUSH2 0x159F DUP3 PUSH2 0x1560 JUMP JUMPDEST PUSH1 0x20 DUP3 ADD SWAP1 POP SWAP2 SWAP1 POP JUMP JUMPDEST PUSH0 PUSH1 0x20 DUP3 ADD SWAP1 POP DUP2 DUP2 SUB PUSH0 DUP4 ADD MSTORE PUSH2 0x15C1 DUP2 PUSH2 0x1588 JUMP JUMPDEST SWAP1 POP SWAP2 SWAP1 POP JUMP JUMPDEST PUSH32 0x4578636565647320616C6C6F77656420626F72726F7720616D6F756E74000000 PUSH0 DUP3 ADD MSTORE POP JUMP JUMPDEST PUSH0 PUSH2 0x15FC PUSH1 0x1D DUP4 PUSH2 0x1093 JUMP JUMPDEST SWAP2 POP PUSH2 0x1607 DUP3 PUSH2 0x15C8 JUMP JUMPDEST PUSH1 0x20 DUP3 ADD SWAP1 POP SWAP2 SWAP1 POP JUMP JUMPDEST PUSH0 PUSH1 0x20 DUP3 ADD SWAP1 POP DUP2 DUP2 SUB PUSH0 DUP4 ADD MSTORE PUSH2 0x1629 DUP2 PUSH2 0x15F0 JUMP JUMPDEST SWAP1 POP SWAP2 SWAP1 POP JUMP JUMPDEST PUSH32 0x4D757374206465706F736974206120706F73697469766520616D6F756E740000 PUSH0 DUP3 ADD MSTORE POP JUMP JUMPDEST PUSH0 PUSH2 0x1664 PUSH1 0x1E DUP4 PUSH2 0x1093 JUMP JUMPDEST SWAP2 POP PUSH2 0x166F DUP3 PUSH2 0x1630 JUMP JUMPDEST PUSH1 0x20 DUP3 ADD SWAP1 POP SWAP2 SWAP1 POP JUMP JUMPDEST PUSH0 PUSH1 0x20 DUP3 ADD SWAP1 POP DUP2 DUP2 SUB PUSH0 DUP4 ADD MSTORE PUSH2 0x1691 DUP2 PUSH2 0x1658 JUMP JUMPDEST SWAP1 POP SWAP2 SWAP1 POP JUMP INVALID LOG2 PUSH5 0x6970667358 0x22 SLT KECCAK256 0x2F CREATE2 0xB3 MSTORE8 0xD0 0xB4 0xC5 PUSH11 0xE26877E30EECD07D4CBAF4 0xA9 0xBB DUP1 SWAP2 DUP15 SLOAD 0x27 ISZERO PUSH30 0x3310181164736F6C634300081E0033000000000000000000000000000000 "
				},
				"gasEstimates": {
					"creation": {
						"codeDepositCost": "1167600",
						"executionCost": "45424",
						"totalCost": "1213024"
					},
					"external": {
						"borrow(uint256)": "infinite",
						"borrowBalances(address)": "2824",
						"calculateInterestAccrued(address)": "infinite",
						"collateralBalances(address)": "2870",
						"collateralFactorBasisPoints()": "2514",
						"deposit()": "infinite",
						"depositBalances(address)": "2825",
						"depositCollateral()": "infinite",
						"getMaxBorrowAmount(address)": "infinite",
						"getTotalLiquidity()": "379",
						"interestRateBasisPoints()": "2471",
						"lastInterestAccrualTimestamp(address)": "2891",
						"repay()": "infinite",
						"withdraw(uint256)": "infinite",
						"withdrawCollateral(uint256)": "infinite"
					}
				},
				"methodIdentifiers": {
					"borrow(uint256)": "c5ebeaec",
					"borrowBalances(address)": "94e1373c",
					"calculateInterestAccrued(address)": "d6f769d8",
					"collateralBalances(address)": "29bc969d",
					"collateralFactorBasisPoints()": "85d06c45",
					"deposit()": "d0e30db0",
					"depositBalances(address)": "1eb903cf",
					"depositCollateral()": "6f758140",
					"getMaxBorrowAmount(address)": "4b79cb0f",
					"getTotalLiquidity()": "35c7e925",
					"interestRateBasisPoints()": "2322abf3",
					"lastInterestAccrualTimestamp(address)": "481bd6af",
					"repay()": "402d8883",
					"withdraw(uint256)": "2e1a7d4d",
					"withdrawCollateral(uint256)": "6112fe2e"
				}
			},
			"storageLayout": {
				"storage": [
					{
						"astId": 6,
						"contract": "submissions/Serena Y/Day23-SimpleLending.sol:SimpleLending",
						"label": "depositBalances",
						"offset": 0,
						"slot": "0",
						"type": "t_mapping(t_address,t_uint256)"
					},
					{
						"astId": 10,
						"contract": "submissions/Serena Y/Day23-SimpleLending.sol:SimpleLending",
						"label": "borrowBalances",
						"offset": 0,
						"slot": "1",
						"type": "t_mapping(t_address,t_uint256)"
					},
					{
						"astId": 14,
						"contract": "submissions/Serena Y/Day23-SimpleLending.sol:SimpleLending",
						"label": "collateralBalances",
						"offset": 0,
						"slot": "2",
						"type": "t_mapping(t_address,t_uint256)"
					},
					{
						"astId": 17,
						"contract": "submissions/Serena Y/Day23-SimpleLending.sol:SimpleLending",
						"label": "interestRateBasisPoints",
						"offset": 0,
						"slot": "3",
						"type": "t_uint256"
					},
					{
						"astId": 20,
						"contract": "submissions/Serena Y/Day23-SimpleLending.sol:SimpleLending",
						"label": "collateralFactorBasisPoints",
						"offset": 0,
						"slot": "4",
						"type": "t_uint256"
					},
					{
						"astId": 24,
						"contract": "submissions/Serena Y/Day23-SimpleLending.sol:SimpleLending",
						"label": "lastInterestAccrualTimestamp",
						"offset": 0,
						"slot": "5",
						"type": "t_mapping(t_address,t_uint256)"
					}
				],
				"types": {
					"t_address": {
						"encoding": "inplace",
						"label": "address",
						"numberOfBytes": "20"
					},
					"t_mapping(t_address,t_uint256)": {
						"encoding": "mapping",
						"key": "t_address",
						"label": "mapping(address => uint256)",
						"numberOfBytes": "32",
						"value": "t_uint256"
					},
					"t_uint256": {
						"encoding": "inplace",
						"label": "uint256",
						"numberOfBytes": "32"
					}
				}
			},
			"userdoc": {
				"kind": "user",
				"methods": {},
				"version": 1
			}
		}
	}
}