{
	"submissions/Vera/day3.sol": {
		"PollStation": {
			"abi": [
				{
					"inputs": [
						{
							"internalType": "string",
							"name": "_CandidateName",
							"type": "string"
						}
					],
					"name": "AddCandidate",
					"outputs": [],
					"stateMutability": "nonpayable",
					"type": "function"
				},
				{
					"inputs": [
						{
							"internalType": "uint256",
							"name": "",
							"type": "uint256"
						}
					],
					"name": "CandidatesName",
					"outputs": [
						{
							"internalType": "string",
							"name": "",
							"type": "string"
						}
					],
					"stateMutability": "view",
					"type": "function"
				},
				{
					"inputs": [
						{
							"internalType": "address",
							"name": "_voter",
							"type": "address"
						},
						{
							"internalType": "string",
							"name": "_CandidateName",
							"type": "string"
						}
					],
					"name": "Vote",
					"outputs": [],
					"stateMutability": "nonpayable",
					"type": "function"
				},
				{
					"inputs": [
						{
							"internalType": "string",
							"name": "",
							"type": "string"
						}
					],
					"name": "VoteCount",
					"outputs": [
						{
							"internalType": "uint256",
							"name": "",
							"type": "uint256"
						}
					],
					"stateMutability": "view",
					"type": "function"
				},
				{
					"inputs": [
						{
							"internalType": "address",
							"name": "",
							"type": "address"
						}
					],
					"name": "VoterList",
					"outputs": [
						{
							"internalType": "bool",
							"name": "",
							"type": "bool"
						}
					],
					"stateMutability": "view",
					"type": "function"
				},
				{
					"inputs": [],
					"name": "getCandidatesName",
					"outputs": [
						{
							"internalType": "string[]",
							"name": "",
							"type": "string[]"
						}
					],
					"stateMutability": "view",
					"type": "function"
				},
				{
					"inputs": [
						{
							"internalType": "string",
							"name": "_CandidateName",
							"type": "string"
						}
					],
					"name": "getVote",
					"outputs": [
						{
							"internalType": "uint256",
							"name": "",
							"type": "uint256"
						}
					],
					"stateMutability": "view",
					"type": "function"
				}
			],
			"devdoc": {
				"kind": "dev",
				"methods": {},
				"version": 1
			},
			"evm": {
				"assembly": "    /* \"submissions/Vera/day3.sol\":62:2055  contract PollStation {... */\n  mstore(0x40, 0x80)\n  callvalue\n  dup1\n  iszero\n  tag_1\n  jumpi\n  revert(0x00, 0x00)\ntag_1:\n  pop\n  dataSize(sub_0)\n  dup1\n  dataOffset(sub_0)\n  0x00\n  codecopy\n  0x00\n  return\nstop\n\nsub_0: assembly {\n        /* \"submissions/Vera/day3.sol\":62:2055  contract PollStation {... */\n      mstore(0x40, 0x80)\n      callvalue\n      dup1\n      iszero\n      tag_1\n      jumpi\n      revert(0x00, 0x00)\n    tag_1:\n      pop\n      jumpi(tag_2, lt(calldatasize, 0x04))\n      shr(0xe0, calldataload(0x00))\n      dup1\n      0x7e54b8e2\n      gt\n      tag_10\n      jumpi\n      dup1\n      0x7e54b8e2\n      eq\n      tag_6\n      jumpi\n      dup1\n      0x8dac1d75\n      eq\n      tag_7\n      jumpi\n      dup1\n      0xbaa40e5c\n      eq\n      tag_8\n      jumpi\n      dup1\n      0xc8890be6\n      eq\n      tag_9\n      jumpi\n      jump(tag_2)\n    tag_10:\n      dup1\n      0x98a51a\n      eq\n      tag_3\n      jumpi\n      dup1\n      0x130f6c7c\n      eq\n      tag_4\n      jumpi\n      dup1\n      0x563be984\n      eq\n      tag_5\n      jumpi\n    tag_2:\n      revert(0x00, 0x00)\n        /* \"submissions/Vera/day3.sol\":177:218  mapping(address => bool) public VoterList */\n    tag_3:\n      tag_11\n      0x04\n      dup1\n      calldatasize\n      sub\n      dup2\n      add\n      swap1\n      tag_12\n      swap2\n      swap1\n      tag_13\n      jump\t// in\n    tag_12:\n      tag_14\n      jump\t// in\n    tag_11:\n      mload(0x40)\n      tag_15\n      swap2\n      swap1\n      tag_16\n      jump\t// in\n    tag_15:\n      mload(0x40)\n      dup1\n      swap2\n      sub\n      swap1\n      return\n        /* \"submissions/Vera/day3.sol\":127:170  mapping(string => uint256) public VoteCount */\n    tag_4:\n      tag_17\n      0x04\n      dup1\n      calldatasize\n      sub\n      dup2\n      add\n      swap1\n      tag_18\n      swap2\n      swap1\n      tag_19\n      jump\t// in\n    tag_18:\n      tag_20\n      jump\t// in\n    tag_17:\n      mload(0x40)\n      tag_21\n      swap2\n      swap1\n      tag_22\n      jump\t// in\n    tag_21:\n      mload(0x40)\n      dup1\n      swap2\n      sub\n      swap1\n      return\n        /* \"submissions/Vera/day3.sol\":90:120  string[] public CandidatesName */\n    tag_5:\n      tag_23\n      0x04\n      dup1\n      calldatasize\n      sub\n      dup2\n      add\n      swap1\n      tag_24\n      swap2\n      swap1\n      tag_25\n      jump\t// in\n    tag_24:\n      tag_26\n      jump\t// in\n    tag_23:\n      mload(0x40)\n      tag_27\n      swap2\n      swap1\n      tag_28\n      jump\t// in\n    tag_27:\n      mload(0x40)\n      dup1\n      swap2\n      sub\n      swap1\n      return\n        /* \"submissions/Vera/day3.sol\":1341:1557  function AddCandidate(string memory _CandidateName) public {... */\n    tag_6:\n      tag_29\n      0x04\n      dup1\n      calldatasize\n      sub\n      dup2\n      add\n      swap1\n      tag_30\n      swap2\n      swap1\n      tag_19\n      jump\t// in\n    tag_30:\n      tag_31\n      jump\t// in\n    tag_29:\n      stop\n        /* \"submissions/Vera/day3.sol\":1565:1670  function getCandidatesName() public view returns(string[] memory){... */\n    tag_7:\n      tag_32\n      tag_33\n      jump\t// in\n    tag_32:\n      mload(0x40)\n      tag_34\n      swap2\n      swap1\n      tag_35\n      jump\t// in\n    tag_34:\n      mload(0x40)\n      dup1\n      swap2\n      sub\n      swap1\n      return\n        /* \"submissions/Vera/day3.sol\":1920:2050  function getVote(string memory _CandidateName) public view returns ( uint256 ) {... */\n    tag_8:\n      tag_36\n      0x04\n      dup1\n      calldatasize\n      sub\n      dup2\n      add\n      swap1\n      tag_37\n      swap2\n      swap1\n      tag_19\n      jump\t// in\n    tag_37:\n      tag_38\n      jump\t// in\n    tag_36:\n      mload(0x40)\n      tag_39\n      swap2\n      swap1\n      tag_22\n      jump\t// in\n    tag_39:\n      mload(0x40)\n      dup1\n      swap2\n      sub\n      swap1\n      return\n        /* \"submissions/Vera/day3.sol\":1679:1912  function Vote(address _voter,string memory _CandidateName) public {... */\n    tag_9:\n      tag_40\n      0x04\n      dup1\n      calldatasize\n      sub\n      dup2\n      add\n      swap1\n      tag_41\n      swap2\n      swap1\n      tag_42\n      jump\t// in\n    tag_41:\n      tag_43\n      jump\t// in\n    tag_40:\n      stop\n        /* \"submissions/Vera/day3.sol\":177:218  mapping(address => bool) public VoterList */\n    tag_14:\n      mstore(0x20, 0x02)\n      dup1\n      0x00\n      mstore\n      keccak256(0x00, 0x40)\n      0x00\n      swap2\n      pop\n      sload\n      swap1\n      0x0100\n      exp\n      swap1\n      div\n      0xff\n      and\n      dup2\n      jump\t// out\n        /* \"submissions/Vera/day3.sol\":127:170  mapping(string => uint256) public VoteCount */\n    tag_20:\n      0x01\n      dup2\n      dup1\n      mload\n      0x20\n      dup2\n      add\n      dup3\n      add\n      dup1\n      mload\n      dup5\n      dup3\n      mstore\n      0x20\n      dup4\n      add\n      0x20\n      dup6\n      add\n      keccak256\n      dup2\n      dup4\n      mstore\n      dup1\n      swap6\n      pop\n      pop\n      pop\n      pop\n      pop\n      pop\n      0x00\n      swap2\n      pop\n      swap1\n      pop\n      sload\n      dup2\n      jump\t// out\n        /* \"submissions/Vera/day3.sol\":90:120  string[] public CandidatesName */\n    tag_26:\n      0x00\n      dup2\n      dup2\n      sload\n      dup2\n      lt\n      tag_44\n      jumpi\n      0x00\n      dup1\n      revert\n    tag_44:\n      swap1\n      0x00\n      mstore\n      keccak256(0x00, 0x20)\n      add\n      0x00\n      swap2\n      pop\n      swap1\n      pop\n      dup1\n      sload\n      tag_46\n      swap1\n      tag_47\n      jump\t// in\n    tag_46:\n      dup1\n      0x1f\n      add\n      0x20\n      dup1\n      swap2\n      div\n      mul\n      0x20\n      add\n      mload(0x40)\n      swap1\n      dup2\n      add\n      0x40\n      mstore\n      dup1\n      swap3\n      swap2\n      swap1\n      dup2\n      dup2\n      mstore\n      0x20\n      add\n      dup3\n      dup1\n      sload\n      tag_48\n      swap1\n      tag_47\n      jump\t// in\n    tag_48:\n      dup1\n      iszero\n      tag_49\n      jumpi\n      dup1\n      0x1f\n      lt\n      tag_50\n      jumpi\n      0x0100\n      dup1\n      dup4\n      sload\n      div\n      mul\n      dup4\n      mstore\n      swap2\n      0x20\n      add\n      swap2\n      jump(tag_49)\n    tag_50:\n      dup3\n      add\n      swap2\n      swap1\n      0x00\n      mstore\n      keccak256(0x00, 0x20)\n      swap1\n    tag_51:\n      dup2\n      sload\n      dup2\n      mstore\n      swap1\n      0x01\n      add\n      swap1\n      0x20\n      add\n      dup1\n      dup4\n      gt\n      tag_51\n      jumpi\n      dup3\n      swap1\n      sub\n      0x1f\n      and\n      dup3\n      add\n      swap2\n    tag_49:\n      pop\n      pop\n      pop\n      pop\n      pop\n      dup2\n      jump\t// out\n        /* \"submissions/Vera/day3.sol\":1341:1557  function AddCandidate(string memory _CandidateName) public {... */\n    tag_31:\n        /* \"submissions/Vera/day3.sol\":1415:1443  HasCandidate(_CandidateName) */\n      tag_53\n        /* \"submissions/Vera/day3.sol\":1428:1442  _CandidateName */\n      dup2\n        /* \"submissions/Vera/day3.sol\":1415:1427  HasCandidate */\n      tag_54\n        /* \"submissions/Vera/day3.sol\":1415:1443  HasCandidate(_CandidateName) */\n      jump\t// in\n    tag_53:\n        /* \"submissions/Vera/day3.sol\":1411:1550  if(!HasCandidate(_CandidateName)){... */\n      tag_55\n      jumpi\n        /* \"submissions/Vera/day3.sol\":1459:1473  CandidatesName */\n      0x00\n        /* \"submissions/Vera/day3.sol\":1479:1493  _CandidateName */\n      dup2\n        /* \"submissions/Vera/day3.sol\":1459:1494  CandidatesName.push(_CandidateName) */\n      swap1\n      dup1\n      0x01\n      dup2\n      sload\n      add\n      dup1\n      dup3\n      sstore\n      dup1\n      swap2\n      pop\n      pop\n      0x01\n      swap1\n      sub\n      swap1\n      0x00\n      mstore\n      keccak256(0x00, 0x20)\n      add\n      0x00\n      swap1\n      swap2\n      swap1\n      swap2\n      swap1\n      swap2\n      pop\n      swap1\n      dup2\n      tag_57\n      swap2\n      swap1\n      tag_58\n      jump\t// in\n    tag_57:\n      pop\n        /* \"submissions/Vera/day3.sol\":1537:1538  0 */\n      0x00\n        /* \"submissions/Vera/day3.sol\":1509:1518  VoteCount */\n      0x01\n        /* \"submissions/Vera/day3.sol\":1519:1533  _CandidateName */\n      dup3\n        /* \"submissions/Vera/day3.sol\":1509:1534  VoteCount[_CandidateName] */\n      mload(0x40)\n      tag_59\n      swap2\n      swap1\n      tag_60\n      jump\t// in\n    tag_59:\n      swap1\n      dup2\n      mstore\n      0x20\n      add\n      mload(0x40)\n      dup1\n      swap2\n      sub\n      swap1\n      keccak256\n        /* \"submissions/Vera/day3.sol\":1509:1538  VoteCount[_CandidateName] = 0 */\n      dup2\n      swap1\n      sstore\n      pop\n        /* \"submissions/Vera/day3.sol\":1411:1550  if(!HasCandidate(_CandidateName)){... */\n    tag_55:\n        /* \"submissions/Vera/day3.sol\":1341:1557  function AddCandidate(string memory _CandidateName) public {... */\n      pop\n      jump\t// out\n        /* \"submissions/Vera/day3.sol\":1565:1670  function getCandidatesName() public view returns(string[] memory){... */\n    tag_33:\n        /* \"submissions/Vera/day3.sol\":1614:1629  string[] memory */\n      0x60\n        /* \"submissions/Vera/day3.sol\":1648:1662  CandidatesName */\n      0x00\n        /* \"submissions/Vera/day3.sol\":1641:1662  return CandidatesName */\n      dup1\n      sload\n      dup1\n      0x20\n      mul\n      0x20\n      add\n      mload(0x40)\n      swap1\n      dup2\n      add\n      0x40\n      mstore\n      dup1\n      swap3\n      swap2\n      swap1\n      dup2\n      dup2\n      mstore\n      0x20\n      add\n      0x00\n      swap1\n    tag_62:\n      dup3\n      dup3\n      lt\n      iszero\n      tag_63\n      jumpi\n      dup4\n      dup3\n      swap1\n      0x00\n      mstore\n      keccak256(0x00, 0x20)\n      add\n      dup1\n      sload\n      tag_65\n      swap1\n      tag_47\n      jump\t// in\n    tag_65:\n      dup1\n      0x1f\n      add\n      0x20\n      dup1\n      swap2\n      div\n      mul\n      0x20\n      add\n      mload(0x40)\n      swap1\n      dup2\n      add\n      0x40\n      mstore\n      dup1\n      swap3\n      swap2\n      swap1\n      dup2\n      dup2\n      mstore\n      0x20\n      add\n      dup3\n      dup1\n      sload\n      tag_66\n      swap1\n      tag_47\n      jump\t// in\n    tag_66:\n      dup1\n      iszero\n      tag_67\n      jumpi\n      dup1\n      0x1f\n      lt\n      tag_68\n      jumpi\n      0x0100\n      dup1\n      dup4\n      sload\n      div\n      mul\n      dup4\n      mstore\n      swap2\n      0x20\n      add\n      swap2\n      jump(tag_67)\n    tag_68:\n      dup3\n      add\n      swap2\n      swap1\n      0x00\n      mstore\n      keccak256(0x00, 0x20)\n      swap1\n    tag_69:\n      dup2\n      sload\n      dup2\n      mstore\n      swap1\n      0x01\n      add\n      swap1\n      0x20\n      add\n      dup1\n      dup4\n      gt\n      tag_69\n      jumpi\n      dup3\n      swap1\n      sub\n      0x1f\n      and\n      dup3\n      add\n      swap2\n    tag_67:\n      pop\n      pop\n      pop\n      pop\n      pop\n      dup2\n      mstore\n      0x20\n      add\n      swap1\n      0x01\n      add\n      swap1\n      jump(tag_62)\n    tag_63:\n      pop\n      pop\n      pop\n      pop\n      swap1\n      pop\n        /* \"submissions/Vera/day3.sol\":1565:1670  function getCandidatesName() public view returns(string[] memory){... */\n      swap1\n      jump\t// out\n        /* \"submissions/Vera/day3.sol\":1920:2050  function getVote(string memory _CandidateName) public view returns ( uint256 ) {... */\n    tag_38:\n        /* \"submissions/Vera/day3.sol\":1989:1996  uint256 */\n      0x00\n        /* \"submissions/Vera/day3.sol\":2017:2026  VoteCount */\n      0x01\n        /* \"submissions/Vera/day3.sol\":2027:2041  _CandidateName */\n      dup3\n        /* \"submissions/Vera/day3.sol\":2017:2042  VoteCount[_CandidateName] */\n      mload(0x40)\n      tag_71\n      swap2\n      swap1\n      tag_60\n      jump\t// in\n    tag_71:\n      swap1\n      dup2\n      mstore\n      0x20\n      add\n      mload(0x40)\n      dup1\n      swap2\n      sub\n      swap1\n      keccak256\n      sload\n        /* \"submissions/Vera/day3.sol\":2010:2042  return VoteCount[_CandidateName] */\n      swap1\n      pop\n        /* \"submissions/Vera/day3.sol\":1920:2050  function getVote(string memory _CandidateName) public view returns ( uint256 ) {... */\n      swap2\n      swap1\n      pop\n      jump\t// out\n        /* \"submissions/Vera/day3.sol\":1679:1912  function Vote(address _voter,string memory _CandidateName) public {... */\n    tag_43:\n        /* \"submissions/Vera/day3.sol\":1759:1787  HasCandidate(_CandidateName) */\n      tag_73\n        /* \"submissions/Vera/day3.sol\":1772:1786  _CandidateName */\n      dup2\n        /* \"submissions/Vera/day3.sol\":1759:1771  HasCandidate */\n      tag_54\n        /* \"submissions/Vera/day3.sol\":1759:1787  HasCandidate(_CandidateName) */\n      jump\t// in\n    tag_73:\n        /* \"submissions/Vera/day3.sol\":1759:1809  HasCandidate(_CandidateName) && !VoterList[_voter] */\n      dup1\n      iszero\n      tag_74\n      jumpi\n      pop\n        /* \"submissions/Vera/day3.sol\":1792:1801  VoterList */\n      0x02\n        /* \"submissions/Vera/day3.sol\":1792:1809  VoterList[_voter] */\n      0x00\n        /* \"submissions/Vera/day3.sol\":1802:1808  _voter */\n      dup4\n        /* \"submissions/Vera/day3.sol\":1792:1809  VoterList[_voter] */\n      0xffffffffffffffffffffffffffffffffffffffff\n      and\n      0xffffffffffffffffffffffffffffffffffffffff\n      and\n      dup2\n      mstore\n      0x20\n      add\n      swap1\n      dup2\n      mstore\n      0x20\n      add\n      0x00\n      keccak256\n      0x00\n      swap1\n      sload\n      swap1\n      0x0100\n      exp\n      swap1\n      div\n      0xff\n      and\n        /* \"submissions/Vera/day3.sol\":1791:1809  !VoterList[_voter] */\n      iszero\n        /* \"submissions/Vera/day3.sol\":1759:1809  HasCandidate(_CandidateName) && !VoterList[_voter] */\n    tag_74:\n        /* \"submissions/Vera/day3.sol\":1756:1905  if(HasCandidate(_CandidateName) && !VoterList[_voter]){... */\n      iszero\n      tag_75\n      jumpi\n        /* \"submissions/Vera/day3.sol\":1853:1854  1 */\n      0x01\n        /* \"submissions/Vera/day3.sol\":1825:1834  VoteCount */\n      dup1\n        /* \"submissions/Vera/day3.sol\":1835:1849  _CandidateName */\n      dup3\n        /* \"submissions/Vera/day3.sol\":1825:1850  VoteCount[_CandidateName] */\n      mload(0x40)\n      tag_76\n      swap2\n      swap1\n      tag_60\n      jump\t// in\n    tag_76:\n      swap1\n      dup2\n      mstore\n      0x20\n      add\n      mload(0x40)\n      dup1\n      swap2\n      sub\n      swap1\n      keccak256\n      0x00\n        /* \"submissions/Vera/day3.sol\":1825:1854  VoteCount[_CandidateName] +=1 */\n      dup3\n      dup3\n      sload\n      tag_77\n      swap2\n      swap1\n      tag_78\n      jump\t// in\n    tag_77:\n      swap3\n      pop\n      pop\n      dup2\n      swap1\n      sstore\n      pop\n        /* \"submissions/Vera/day3.sol\":1889:1893  true */\n      0x01\n        /* \"submissions/Vera/day3.sol\":1869:1878  VoterList */\n      0x02\n        /* \"submissions/Vera/day3.sol\":1869:1886  VoterList[_voter] */\n      0x00\n        /* \"submissions/Vera/day3.sol\":1879:1885  _voter */\n      dup5\n        /* \"submissions/Vera/day3.sol\":1869:1886  VoterList[_voter] */\n      0xffffffffffffffffffffffffffffffffffffffff\n      and\n      0xffffffffffffffffffffffffffffffffffffffff\n      and\n      dup2\n      mstore\n      0x20\n      add\n      swap1\n      dup2\n      mstore\n      0x20\n      add\n      0x00\n      keccak256\n      0x00\n        /* \"submissions/Vera/day3.sol\":1869:1893  VoterList[_voter] = true */\n      0x0100\n      exp\n      dup2\n      sload\n      dup2\n      0xff\n      mul\n      not\n      and\n      swap1\n      dup4\n      iszero\n      iszero\n      mul\n      or\n      swap1\n      sstore\n      pop\n        /* \"submissions/Vera/day3.sol\":1756:1905  if(HasCandidate(_CandidateName) && !VoterList[_voter]){... */\n    tag_75:\n        /* \"submissions/Vera/day3.sol\":1679:1912  function Vote(address _voter,string memory _CandidateName) public {... */\n      pop\n      pop\n      jump\t// out\n        /* \"submissions/Vera/day3.sol\":227:1333  function HasCandidate(string memory _CandidateName) private view returns  (bool) {... */\n    tag_54:\n        /* \"submissions/Vera/day3.sol\":302:306  bool */\n      0x00\n        /* \"submissions/Vera/day3.sol\":324:330  uint i */\n      0x00\n        /* \"submissions/Vera/day3.sol\":331:332  0 */\n      0x00\n        /* \"submissions/Vera/day3.sol\":324:332  uint i=0 */\n      swap1\n      pop\n        /* \"submissions/Vera/day3.sol\":319:1303  for (uint i=0; i<CandidatesName.length;i++) ... */\n    tag_80:\n        /* \"submissions/Vera/day3.sol\":336:350  CandidatesName */\n      0x00\n        /* \"submissions/Vera/day3.sol\":336:357  CandidatesName.length */\n      dup1\n      sload\n      swap1\n      pop\n        /* \"submissions/Vera/day3.sol\":334:335  i */\n      dup2\n        /* \"submissions/Vera/day3.sol\":334:357  i<CandidatesName.length */\n      lt\n        /* \"submissions/Vera/day3.sol\":319:1303  for (uint i=0; i<CandidatesName.length;i++) ... */\n      iszero\n      tag_81\n      jumpi\n        /* \"submissions/Vera/day3.sol\":1229:1243  _CandidateName */\n      dup3\n        /* \"submissions/Vera/day3.sol\":1213:1245  keccak256(bytes(_CandidateName)) */\n      dup1\n      mload\n      swap1\n      0x20\n      add\n      keccak256\n        /* \"submissions/Vera/day3.sol\":1190:1204  CandidatesName */\n      0x00\n        /* \"submissions/Vera/day3.sol\":1205:1206  i */\n      dup3\n        /* \"submissions/Vera/day3.sol\":1190:1207  CandidatesName[i] */\n      dup2\n      sload\n      dup2\n      lt\n      tag_83\n      jumpi\n      tag_84\n      tag_85\n      jump\t// in\n    tag_84:\n    tag_83:\n      swap1\n      0x00\n      mstore\n      keccak256(0x00, 0x20)\n      add\n        /* \"submissions/Vera/day3.sol\":1174:1209  keccak256(bytes(CandidatesName[i])) */\n      mload(0x40)\n      tag_87\n      swap2\n      swap1\n      tag_88\n      jump\t// in\n    tag_87:\n      mload(0x40)\n      dup1\n      swap2\n      sub\n      swap1\n      keccak256\n        /* \"submissions/Vera/day3.sol\":1174:1245  keccak256(bytes(CandidatesName[i])) == keccak256(bytes(_CandidateName)) */\n      sub\n        /* \"submissions/Vera/day3.sol\":1171:1292  if(keccak256(bytes(CandidatesName[i])) == keccak256(bytes(_CandidateName))){... */\n      tag_89\n      jumpi\n        /* \"submissions/Vera/day3.sol\":1272:1276  true */\n      0x01\n        /* \"submissions/Vera/day3.sol\":1265:1276  return true */\n      swap2\n      pop\n      pop\n      jump(tag_79)\n        /* \"submissions/Vera/day3.sol\":1171:1292  if(keccak256(bytes(CandidatesName[i])) == keccak256(bytes(_CandidateName))){... */\n    tag_89:\n        /* \"submissions/Vera/day3.sol\":358:361  i++ */\n      dup1\n      dup1\n      0x01\n      add\n      swap2\n      pop\n      pop\n        /* \"submissions/Vera/day3.sol\":319:1303  for (uint i=0; i<CandidatesName.length;i++) ... */\n      jump(tag_80)\n    tag_81:\n      pop\n        /* \"submissions/Vera/day3.sol\":1320:1325  false */\n      0x00\n        /* \"submissions/Vera/day3.sol\":1313:1325  return false */\n      swap1\n      pop\n        /* \"submissions/Vera/day3.sol\":227:1333  function HasCandidate(string memory _CandidateName) private view returns  (bool) {... */\n    tag_79:\n      swap2\n      swap1\n      pop\n      jump\t// out\n        /* \"#utility.yul\":7:82   */\n    tag_90:\n        /* \"#utility.yul\":40:46   */\n      0x00\n        /* \"#utility.yul\":73:75   */\n      0x40\n        /* \"#utility.yul\":67:76   */\n      mload\n        /* \"#utility.yul\":57:76   */\n      swap1\n      pop\n        /* \"#utility.yul\":7:82   */\n      swap1\n      jump\t// out\n        /* \"#utility.yul\":88:205   */\n    tag_91:\n        /* \"#utility.yul\":197:198   */\n      0x00\n        /* \"#utility.yul\":194:195   */\n      0x00\n        /* \"#utility.yul\":187:199   */\n      revert\n        /* \"#utility.yul\":211:328   */\n    tag_92:\n        /* \"#utility.yul\":320:321   */\n      0x00\n        /* \"#utility.yul\":317:318   */\n      0x00\n        /* \"#utility.yul\":310:322   */\n      revert\n        /* \"#utility.yul\":334:460   */\n    tag_93:\n        /* \"#utility.yul\":371:378   */\n      0x00\n        /* \"#utility.yul\":411:453   */\n      0xffffffffffffffffffffffffffffffffffffffff\n        /* \"#utility.yul\":404:409   */\n      dup3\n        /* \"#utility.yul\":400:454   */\n      and\n        /* \"#utility.yul\":389:454   */\n      swap1\n      pop\n        /* \"#utility.yul\":334:460   */\n      swap2\n      swap1\n      pop\n      jump\t// out\n        /* \"#utility.yul\":466:562   */\n    tag_94:\n        /* \"#utility.yul\":503:510   */\n      0x00\n        /* \"#utility.yul\":532:556   */\n      tag_153\n        /* \"#utility.yul\":550:555   */\n      dup3\n        /* \"#utility.yul\":532:556   */\n      tag_93\n      jump\t// in\n    tag_153:\n        /* \"#utility.yul\":521:556   */\n      swap1\n      pop\n        /* \"#utility.yul\":466:562   */\n      swap2\n      swap1\n      pop\n      jump\t// out\n        /* \"#utility.yul\":568:690   */\n    tag_95:\n        /* \"#utility.yul\":641:665   */\n      tag_155\n        /* \"#utility.yul\":659:664   */\n      dup2\n        /* \"#utility.yul\":641:665   */\n      tag_94\n      jump\t// in\n    tag_155:\n        /* \"#utility.yul\":634:639   */\n      dup2\n        /* \"#utility.yul\":631:666   */\n      eq\n        /* \"#utility.yul\":621:684   */\n      tag_156\n      jumpi\n        /* \"#utility.yul\":680:681   */\n      0x00\n        /* \"#utility.yul\":677:678   */\n      0x00\n        /* \"#utility.yul\":670:682   */\n      revert\n        /* \"#utility.yul\":621:684   */\n    tag_156:\n        /* \"#utility.yul\":568:690   */\n      pop\n      jump\t// out\n        /* \"#utility.yul\":696:835   */\n    tag_96:\n        /* \"#utility.yul\":742:747   */\n      0x00\n        /* \"#utility.yul\":780:786   */\n      dup2\n        /* \"#utility.yul\":767:787   */\n      calldataload\n        /* \"#utility.yul\":758:787   */\n      swap1\n      pop\n        /* \"#utility.yul\":796:829   */\n      tag_158\n        /* \"#utility.yul\":823:828   */\n      dup2\n        /* \"#utility.yul\":796:829   */\n      tag_95\n      jump\t// in\n    tag_158:\n        /* \"#utility.yul\":696:835   */\n      swap3\n      swap2\n      pop\n      pop\n      jump\t// out\n        /* \"#utility.yul\":841:1170   */\n    tag_13:\n        /* \"#utility.yul\":900:906   */\n      0x00\n        /* \"#utility.yul\":949:951   */\n      0x20\n        /* \"#utility.yul\":937:946   */\n      dup3\n        /* \"#utility.yul\":928:935   */\n      dup5\n        /* \"#utility.yul\":924:947   */\n      sub\n        /* \"#utility.yul\":920:952   */\n      slt\n        /* \"#utility.yul\":917:1036   */\n      iszero\n      tag_160\n      jumpi\n        /* \"#utility.yul\":955:1034   */\n      tag_161\n      tag_91\n      jump\t// in\n    tag_161:\n        /* \"#utility.yul\":917:1036   */\n    tag_160:\n        /* \"#utility.yul\":1075:1076   */\n      0x00\n        /* \"#utility.yul\":1100:1153   */\n      tag_162\n        /* \"#utility.yul\":1145:1152   */\n      dup5\n        /* \"#utility.yul\":1136:1142   */\n      dup3\n        /* \"#utility.yul\":1125:1134   */\n      dup6\n        /* \"#utility.yul\":1121:1143   */\n      add\n        /* \"#utility.yul\":1100:1153   */\n      tag_96\n      jump\t// in\n    tag_162:\n        /* \"#utility.yul\":1090:1153   */\n      swap2\n      pop\n        /* \"#utility.yul\":1046:1163   */\n      pop\n        /* \"#utility.yul\":841:1170   */\n      swap3\n      swap2\n      pop\n      pop\n      jump\t// out\n        /* \"#utility.yul\":1176:1266   */\n    tag_97:\n        /* \"#utility.yul\":1210:1217   */\n      0x00\n        /* \"#utility.yul\":1253:1258   */\n      dup2\n        /* \"#utility.yul\":1246:1259   */\n      iszero\n        /* \"#utility.yul\":1239:1260   */\n      iszero\n        /* \"#utility.yul\":1228:1260   */\n      swap1\n      pop\n        /* \"#utility.yul\":1176:1266   */\n      swap2\n      swap1\n      pop\n      jump\t// out\n        /* \"#utility.yul\":1272:1381   */\n    tag_98:\n        /* \"#utility.yul\":1353:1374   */\n      tag_165\n        /* \"#utility.yul\":1368:1373   */\n      dup2\n        /* \"#utility.yul\":1353:1374   */\n      tag_97\n      jump\t// in\n    tag_165:\n        /* \"#utility.yul\":1348:1351   */\n      dup3\n        /* \"#utility.yul\":1341:1375   */\n      mstore\n        /* \"#utility.yul\":1272:1381   */\n      pop\n      pop\n      jump\t// out\n        /* \"#utility.yul\":1387:1597   */\n    tag_16:\n        /* \"#utility.yul\":1474:1478   */\n      0x00\n        /* \"#utility.yul\":1512:1514   */\n      0x20\n        /* \"#utility.yul\":1501:1510   */\n      dup3\n        /* \"#utility.yul\":1497:1515   */\n      add\n        /* \"#utility.yul\":1489:1515   */\n      swap1\n      pop\n        /* \"#utility.yul\":1525:1590   */\n      tag_167\n        /* \"#utility.yul\":1587:1588   */\n      0x00\n        /* \"#utility.yul\":1576:1585   */\n      dup4\n        /* \"#utility.yul\":1572:1589   */\n      add\n        /* \"#utility.yul\":1563:1569   */\n      dup5\n        /* \"#utility.yul\":1525:1590   */\n      tag_98\n      jump\t// in\n    tag_167:\n        /* \"#utility.yul\":1387:1597   */\n      swap3\n      swap2\n      pop\n      pop\n      jump\t// out\n        /* \"#utility.yul\":1603:1720   */\n    tag_99:\n        /* \"#utility.yul\":1712:1713   */\n      0x00\n        /* \"#utility.yul\":1709:1710   */\n      0x00\n        /* \"#utility.yul\":1702:1714   */\n      revert\n        /* \"#utility.yul\":1726:1843   */\n    tag_100:\n        /* \"#utility.yul\":1835:1836   */\n      0x00\n        /* \"#utility.yul\":1832:1833   */\n      0x00\n        /* \"#utility.yul\":1825:1837   */\n      revert\n        /* \"#utility.yul\":1849:1951   */\n    tag_101:\n        /* \"#utility.yul\":1890:1896   */\n      0x00\n        /* \"#utility.yul\":1941:1943   */\n      0x1f\n        /* \"#utility.yul\":1937:1944   */\n      not\n        /* \"#utility.yul\":1932:1934   */\n      0x1f\n        /* \"#utility.yul\":1925:1930   */\n      dup4\n        /* \"#utility.yul\":1921:1935   */\n      add\n        /* \"#utility.yul\":1917:1945   */\n      and\n        /* \"#utility.yul\":1907:1945   */\n      swap1\n      pop\n        /* \"#utility.yul\":1849:1951   */\n      swap2\n      swap1\n      pop\n      jump\t// out\n        /* \"#utility.yul\":1957:2137   */\n    tag_102:\n        /* \"#utility.yul\":2005:2082   */\n      0x4e487b7100000000000000000000000000000000000000000000000000000000\n        /* \"#utility.yul\":2002:2003   */\n      0x00\n        /* \"#utility.yul\":1995:2083   */\n      mstore\n        /* \"#utility.yul\":2102:2106   */\n      0x41\n        /* \"#utility.yul\":2099:2100   */\n      0x04\n        /* \"#utility.yul\":2092:2107   */\n      mstore\n        /* \"#utility.yul\":2126:2130   */\n      0x24\n        /* \"#utility.yul\":2123:2124   */\n      0x00\n        /* \"#utility.yul\":2116:2131   */\n      revert\n        /* \"#utility.yul\":2143:2424   */\n    tag_103:\n        /* \"#utility.yul\":2226:2253   */\n      tag_173\n        /* \"#utility.yul\":2248:2252   */\n      dup3\n        /* \"#utility.yul\":2226:2253   */\n      tag_101\n      jump\t// in\n    tag_173:\n        /* \"#utility.yul\":2218:2224   */\n      dup2\n        /* \"#utility.yul\":2214:2254   */\n      add\n        /* \"#utility.yul\":2356:2362   */\n      dup2\n        /* \"#utility.yul\":2344:2354   */\n      dup2\n        /* \"#utility.yul\":2341:2363   */\n      lt\n        /* \"#utility.yul\":2320:2338   */\n      0xffffffffffffffff\n        /* \"#utility.yul\":2308:2318   */\n      dup3\n        /* \"#utility.yul\":2305:2339   */\n      gt\n        /* \"#utility.yul\":2302:2364   */\n      or\n        /* \"#utility.yul\":2299:2387   */\n      iszero\n      tag_174\n      jumpi\n        /* \"#utility.yul\":2367:2385   */\n      tag_175\n      tag_102\n      jump\t// in\n    tag_175:\n        /* \"#utility.yul\":2299:2387   */\n    tag_174:\n        /* \"#utility.yul\":2407:2417   */\n      dup1\n        /* \"#utility.yul\":2403:2405   */\n      0x40\n        /* \"#utility.yul\":2396:2418   */\n      mstore\n        /* \"#utility.yul\":2186:2424   */\n      pop\n        /* \"#utility.yul\":2143:2424   */\n      pop\n      pop\n      jump\t// out\n        /* \"#utility.yul\":2430:2559   */\n    tag_104:\n        /* \"#utility.yul\":2464:2470   */\n      0x00\n        /* \"#utility.yul\":2491:2511   */\n      tag_177\n      tag_90\n      jump\t// in\n    tag_177:\n        /* \"#utility.yul\":2481:2511   */\n      swap1\n      pop\n        /* \"#utility.yul\":2520:2553   */\n      tag_178\n        /* \"#utility.yul\":2548:2552   */\n      dup3\n        /* \"#utility.yul\":2540:2546   */\n      dup3\n        /* \"#utility.yul\":2520:2553   */\n      tag_103\n      jump\t// in\n    tag_178:\n        /* \"#utility.yul\":2430:2559   */\n      swap2\n      swap1\n      pop\n      jump\t// out\n        /* \"#utility.yul\":2565:2873   */\n    tag_105:\n        /* \"#utility.yul\":2627:2631   */\n      0x00\n        /* \"#utility.yul\":2717:2735   */\n      0xffffffffffffffff\n        /* \"#utility.yul\":2709:2715   */\n      dup3\n        /* \"#utility.yul\":2706:2736   */\n      gt\n        /* \"#utility.yul\":2703:2759   */\n      iszero\n      tag_180\n      jumpi\n        /* \"#utility.yul\":2739:2757   */\n      tag_181\n      tag_102\n      jump\t// in\n    tag_181:\n        /* \"#utility.yul\":2703:2759   */\n    tag_180:\n        /* \"#utility.yul\":2777:2806   */\n      tag_182\n        /* \"#utility.yul\":2799:2805   */\n      dup3\n        /* \"#utility.yul\":2777:2806   */\n      tag_101\n      jump\t// in\n    tag_182:\n        /* \"#utility.yul\":2769:2806   */\n      swap1\n      pop\n        /* \"#utility.yul\":2861:2865   */\n      0x20\n        /* \"#utility.yul\":2855:2859   */\n      dup2\n        /* \"#utility.yul\":2851:2866   */\n      add\n        /* \"#utility.yul\":2843:2866   */\n      swap1\n      pop\n        /* \"#utility.yul\":2565:2873   */\n      swap2\n      swap1\n      pop\n      jump\t// out\n        /* \"#utility.yul\":2879:3027   */\n    tag_106:\n        /* \"#utility.yul\":2977:2983   */\n      dup3\n        /* \"#utility.yul\":2972:2975   */\n      dup2\n        /* \"#utility.yul\":2967:2970   */\n      dup4\n        /* \"#utility.yul\":2954:2984   */\n      calldatacopy\n        /* \"#utility.yul\":3018:3019   */\n      0x00\n        /* \"#utility.yul\":3009:3015   */\n      dup4\n        /* \"#utility.yul\":3004:3007   */\n      dup4\n        /* \"#utility.yul\":3000:3016   */\n      add\n        /* \"#utility.yul\":2993:3020   */\n      mstore\n        /* \"#utility.yul\":2879:3027   */\n      pop\n      pop\n      pop\n      jump\t// out\n        /* \"#utility.yul\":3033:3458   */\n    tag_107:\n        /* \"#utility.yul\":3111:3116   */\n      0x00\n        /* \"#utility.yul\":3136:3202   */\n      tag_185\n        /* \"#utility.yul\":3152:3201   */\n      tag_186\n        /* \"#utility.yul\":3194:3200   */\n      dup5\n        /* \"#utility.yul\":3152:3201   */\n      tag_105\n      jump\t// in\n    tag_186:\n        /* \"#utility.yul\":3136:3202   */\n      tag_104\n      jump\t// in\n    tag_185:\n        /* \"#utility.yul\":3127:3202   */\n      swap1\n      pop\n        /* \"#utility.yul\":3225:3231   */\n      dup3\n        /* \"#utility.yul\":3218:3223   */\n      dup2\n        /* \"#utility.yul\":3211:3232   */\n      mstore\n        /* \"#utility.yul\":3263:3267   */\n      0x20\n        /* \"#utility.yul\":3256:3261   */\n      dup2\n        /* \"#utility.yul\":3252:3268   */\n      add\n        /* \"#utility.yul\":3301:3304   */\n      dup5\n        /* \"#utility.yul\":3292:3298   */\n      dup5\n        /* \"#utility.yul\":3287:3290   */\n      dup5\n        /* \"#utility.yul\":3283:3299   */\n      add\n        /* \"#utility.yul\":3280:3305   */\n      gt\n        /* \"#utility.yul\":3277:3389   */\n      iszero\n      tag_187\n      jumpi\n        /* \"#utility.yul\":3308:3387   */\n      tag_188\n      tag_100\n      jump\t// in\n    tag_188:\n        /* \"#utility.yul\":3277:3389   */\n    tag_187:\n        /* \"#utility.yul\":3398:3452   */\n      tag_189\n        /* \"#utility.yul\":3445:3451   */\n      dup5\n        /* \"#utility.yul\":3440:3443   */\n      dup3\n        /* \"#utility.yul\":3435:3438   */\n      dup6\n        /* \"#utility.yul\":3398:3452   */\n      tag_106\n      jump\t// in\n    tag_189:\n        /* \"#utility.yul\":3117:3458   */\n      pop\n        /* \"#utility.yul\":3033:3458   */\n      swap4\n      swap3\n      pop\n      pop\n      pop\n      jump\t// out\n        /* \"#utility.yul\":3478:3818   */\n    tag_108:\n        /* \"#utility.yul\":3534:3539   */\n      0x00\n        /* \"#utility.yul\":3583:3586   */\n      dup3\n        /* \"#utility.yul\":3576:3580   */\n      0x1f\n        /* \"#utility.yul\":3568:3574   */\n      dup4\n        /* \"#utility.yul\":3564:3581   */\n      add\n        /* \"#utility.yul\":3560:3587   */\n      slt\n        /* \"#utility.yul\":3550:3672   */\n      tag_191\n      jumpi\n        /* \"#utility.yul\":3591:3670   */\n      tag_192\n      tag_99\n      jump\t// in\n    tag_192:\n        /* \"#utility.yul\":3550:3672   */\n    tag_191:\n        /* \"#utility.yul\":3708:3714   */\n      dup2\n        /* \"#utility.yul\":3695:3715   */\n      calldataload\n        /* \"#utility.yul\":3733:3812   */\n      tag_193\n        /* \"#utility.yul\":3808:3811   */\n      dup5\n        /* \"#utility.yul\":3800:3806   */\n      dup3\n        /* \"#utility.yul\":3793:3797   */\n      0x20\n        /* \"#utility.yul\":3785:3791   */\n      dup7\n        /* \"#utility.yul\":3781:3798   */\n      add\n        /* \"#utility.yul\":3733:3812   */\n      tag_107\n      jump\t// in\n    tag_193:\n        /* \"#utility.yul\":3724:3812   */\n      swap2\n      pop\n        /* \"#utility.yul\":3540:3818   */\n      pop\n        /* \"#utility.yul\":3478:3818   */\n      swap3\n      swap2\n      pop\n      pop\n      jump\t// out\n        /* \"#utility.yul\":3824:4333   */\n    tag_19:\n        /* \"#utility.yul\":3893:3899   */\n      0x00\n        /* \"#utility.yul\":3942:3944   */\n      0x20\n        /* \"#utility.yul\":3930:3939   */\n      dup3\n        /* \"#utility.yul\":3921:3928   */\n      dup5\n        /* \"#utility.yul\":3917:3940   */\n      sub\n        /* \"#utility.yul\":3913:3945   */\n      slt\n        /* \"#utility.yul\":3910:4029   */\n      iszero\n      tag_195\n      jumpi\n        /* \"#utility.yul\":3948:4027   */\n      tag_196\n      tag_91\n      jump\t// in\n    tag_196:\n        /* \"#utility.yul\":3910:4029   */\n    tag_195:\n        /* \"#utility.yul\":4096:4097   */\n      0x00\n        /* \"#utility.yul\":4085:4094   */\n      dup3\n        /* \"#utility.yul\":4081:4098   */\n      add\n        /* \"#utility.yul\":4068:4099   */\n      calldataload\n        /* \"#utility.yul\":4126:4144   */\n      0xffffffffffffffff\n        /* \"#utility.yul\":4118:4124   */\n      dup2\n        /* \"#utility.yul\":4115:4145   */\n      gt\n        /* \"#utility.yul\":4112:4229   */\n      iszero\n      tag_197\n      jumpi\n        /* \"#utility.yul\":4148:4227   */\n      tag_198\n      tag_92\n      jump\t// in\n    tag_198:\n        /* \"#utility.yul\":4112:4229   */\n    tag_197:\n        /* \"#utility.yul\":4253:4316   */\n      tag_199\n        /* \"#utility.yul\":4308:4315   */\n      dup5\n        /* \"#utility.yul\":4299:4305   */\n      dup3\n        /* \"#utility.yul\":4288:4297   */\n      dup6\n        /* \"#utility.yul\":4284:4306   */\n      add\n        /* \"#utility.yul\":4253:4316   */\n      tag_108\n      jump\t// in\n    tag_199:\n        /* \"#utility.yul\":4243:4316   */\n      swap2\n      pop\n        /* \"#utility.yul\":4039:4326   */\n      pop\n        /* \"#utility.yul\":3824:4333   */\n      swap3\n      swap2\n      pop\n      pop\n      jump\t// out\n        /* \"#utility.yul\":4339:4416   */\n    tag_109:\n        /* \"#utility.yul\":4376:4383   */\n      0x00\n        /* \"#utility.yul\":4405:4410   */\n      dup2\n        /* \"#utility.yul\":4394:4410   */\n      swap1\n      pop\n        /* \"#utility.yul\":4339:4416   */\n      swap2\n      swap1\n      pop\n      jump\t// out\n        /* \"#utility.yul\":4422:4540   */\n    tag_110:\n        /* \"#utility.yul\":4509:4533   */\n      tag_202\n        /* \"#utility.yul\":4527:4532   */\n      dup2\n        /* \"#utility.yul\":4509:4533   */\n      tag_109\n      jump\t// in\n    tag_202:\n        /* \"#utility.yul\":4504:4507   */\n      dup3\n        /* \"#utility.yul\":4497:4534   */\n      mstore\n        /* \"#utility.yul\":4422:4540   */\n      pop\n      pop\n      jump\t// out\n        /* \"#utility.yul\":4546:4768   */\n    tag_22:\n        /* \"#utility.yul\":4639:4643   */\n      0x00\n        /* \"#utility.yul\":4677:4679   */\n      0x20\n        /* \"#utility.yul\":4666:4675   */\n      dup3\n        /* \"#utility.yul\":4662:4680   */\n      add\n        /* \"#utility.yul\":4654:4680   */\n      swap1\n      pop\n        /* \"#utility.yul\":4690:4761   */\n      tag_204\n        /* \"#utility.yul\":4758:4759   */\n      0x00\n        /* \"#utility.yul\":4747:4756   */\n      dup4\n        /* \"#utility.yul\":4743:4760   */\n      add\n        /* \"#utility.yul\":4734:4740   */\n      dup5\n        /* \"#utility.yul\":4690:4761   */\n      tag_110\n      jump\t// in\n    tag_204:\n        /* \"#utility.yul\":4546:4768   */\n      swap3\n      swap2\n      pop\n      pop\n      jump\t// out\n        /* \"#utility.yul\":4774:4896   */\n    tag_111:\n        /* \"#utility.yul\":4847:4871   */\n      tag_206\n        /* \"#utility.yul\":4865:4870   */\n      dup2\n        /* \"#utility.yul\":4847:4871   */\n      tag_109\n      jump\t// in\n    tag_206:\n        /* \"#utility.yul\":4840:4845   */\n      dup2\n        /* \"#utility.yul\":4837:4872   */\n      eq\n        /* \"#utility.yul\":4827:4890   */\n      tag_207\n      jumpi\n        /* \"#utility.yul\":4886:4887   */\n      0x00\n        /* \"#utility.yul\":4883:4884   */\n      0x00\n        /* \"#utility.yul\":4876:4888   */\n      revert\n        /* \"#utility.yul\":4827:4890   */\n    tag_207:\n        /* \"#utility.yul\":4774:4896   */\n      pop\n      jump\t// out\n        /* \"#utility.yul\":4902:5041   */\n    tag_112:\n        /* \"#utility.yul\":4948:4953   */\n      0x00\n        /* \"#utility.yul\":4986:4992   */\n      dup2\n        /* \"#utility.yul\":4973:4993   */\n      calldataload\n        /* \"#utility.yul\":4964:4993   */\n      swap1\n      pop\n        /* \"#utility.yul\":5002:5035   */\n      tag_209\n        /* \"#utility.yul\":5029:5034   */\n      dup2\n        /* \"#utility.yul\":5002:5035   */\n      tag_111\n      jump\t// in\n    tag_209:\n        /* \"#utility.yul\":4902:5041   */\n      swap3\n      swap2\n      pop\n      pop\n      jump\t// out\n        /* \"#utility.yul\":5047:5376   */\n    tag_25:\n        /* \"#utility.yul\":5106:5112   */\n      0x00\n        /* \"#utility.yul\":5155:5157   */\n      0x20\n        /* \"#utility.yul\":5143:5152   */\n      dup3\n        /* \"#utility.yul\":5134:5141   */\n      dup5\n        /* \"#utility.yul\":5130:5153   */\n      sub\n        /* \"#utility.yul\":5126:5158   */\n      slt\n        /* \"#utility.yul\":5123:5242   */\n      iszero\n      tag_211\n      jumpi\n        /* \"#utility.yul\":5161:5240   */\n      tag_212\n      tag_91\n      jump\t// in\n    tag_212:\n        /* \"#utility.yul\":5123:5242   */\n    tag_211:\n        /* \"#utility.yul\":5281:5282   */\n      0x00\n        /* \"#utility.yul\":5306:5359   */\n      tag_213\n        /* \"#utility.yul\":5351:5358   */\n      dup5\n        /* \"#utility.yul\":5342:5348   */\n      dup3\n        /* \"#utility.yul\":5331:5340   */\n      dup6\n        /* \"#utility.yul\":5327:5349   */\n      add\n        /* \"#utility.yul\":5306:5359   */\n      tag_112\n      jump\t// in\n    tag_213:\n        /* \"#utility.yul\":5296:5359   */\n      swap2\n      pop\n        /* \"#utility.yul\":5252:5369   */\n      pop\n        /* \"#utility.yul\":5047:5376   */\n      swap3\n      swap2\n      pop\n      pop\n      jump\t// out\n        /* \"#utility.yul\":5382:5481   */\n    tag_113:\n        /* \"#utility.yul\":5434:5440   */\n      0x00\n        /* \"#utility.yul\":5468:5473   */\n      dup2\n        /* \"#utility.yul\":5462:5474   */\n      mload\n        /* \"#utility.yul\":5452:5474   */\n      swap1\n      pop\n        /* \"#utility.yul\":5382:5481   */\n      swap2\n      swap1\n      pop\n      jump\t// out\n        /* \"#utility.yul\":5487:5656   */\n    tag_114:\n        /* \"#utility.yul\":5571:5582   */\n      0x00\n        /* \"#utility.yul\":5605:5611   */\n      dup3\n        /* \"#utility.yul\":5600:5603   */\n      dup3\n        /* \"#utility.yul\":5593:5612   */\n      mstore\n        /* \"#utility.yul\":5645:5649   */\n      0x20\n        /* \"#utility.yul\":5640:5643   */\n      dup3\n        /* \"#utility.yul\":5636:5650   */\n      add\n        /* \"#utility.yul\":5621:5650   */\n      swap1\n      pop\n        /* \"#utility.yul\":5487:5656   */\n      swap3\n      swap2\n      pop\n      pop\n      jump\t// out\n        /* \"#utility.yul\":5662:5801   */\n    tag_115:\n        /* \"#utility.yul\":5751:5757   */\n      dup3\n        /* \"#utility.yul\":5746:5749   */\n      dup2\n        /* \"#utility.yul\":5741:5744   */\n      dup4\n        /* \"#utility.yul\":5735:5758   */\n      mcopy\n        /* \"#utility.yul\":5792:5793   */\n      0x00\n        /* \"#utility.yul\":5783:5789   */\n      dup4\n        /* \"#utility.yul\":5778:5781   */\n      dup4\n        /* \"#utility.yul\":5774:5790   */\n      add\n        /* \"#utility.yul\":5767:5794   */\n      mstore\n        /* \"#utility.yul\":5662:5801   */\n      pop\n      pop\n      pop\n      jump\t// out\n        /* \"#utility.yul\":5807:6184   */\n    tag_116:\n        /* \"#utility.yul\":5895:5898   */\n      0x00\n        /* \"#utility.yul\":5923:5962   */\n      tag_218\n        /* \"#utility.yul\":5956:5961   */\n      dup3\n        /* \"#utility.yul\":5923:5962   */\n      tag_113\n      jump\t// in\n    tag_218:\n        /* \"#utility.yul\":5978:6049   */\n      tag_219\n        /* \"#utility.yul\":6042:6048   */\n      dup2\n        /* \"#utility.yul\":6037:6040   */\n      dup6\n        /* \"#utility.yul\":5978:6049   */\n      tag_114\n      jump\t// in\n    tag_219:\n        /* \"#utility.yul\":5971:6049   */\n      swap4\n      pop\n        /* \"#utility.yul\":6058:6123   */\n      tag_220\n        /* \"#utility.yul\":6116:6122   */\n      dup2\n        /* \"#utility.yul\":6111:6114   */\n      dup6\n        /* \"#utility.yul\":6104:6108   */\n      0x20\n        /* \"#utility.yul\":6097:6102   */\n      dup7\n        /* \"#utility.yul\":6093:6109   */\n      add\n        /* \"#utility.yul\":6058:6123   */\n      tag_115\n      jump\t// in\n    tag_220:\n        /* \"#utility.yul\":6148:6177   */\n      tag_221\n        /* \"#utility.yul\":6170:6176   */\n      dup2\n        /* \"#utility.yul\":6148:6177   */\n      tag_101\n      jump\t// in\n    tag_221:\n        /* \"#utility.yul\":6143:6146   */\n      dup5\n        /* \"#utility.yul\":6139:6178   */\n      add\n        /* \"#utility.yul\":6132:6178   */\n      swap2\n      pop\n        /* \"#utility.yul\":5899:6184   */\n      pop\n        /* \"#utility.yul\":5807:6184   */\n      swap3\n      swap2\n      pop\n      pop\n      jump\t// out\n        /* \"#utility.yul\":6190:6503   */\n    tag_28:\n        /* \"#utility.yul\":6303:6307   */\n      0x00\n        /* \"#utility.yul\":6341:6343   */\n      0x20\n        /* \"#utility.yul\":6330:6339   */\n      dup3\n        /* \"#utility.yul\":6326:6344   */\n      add\n        /* \"#utility.yul\":6318:6344   */\n      swap1\n      pop\n        /* \"#utility.yul\":6390:6399   */\n      dup2\n        /* \"#utility.yul\":6384:6388   */\n      dup2\n        /* \"#utility.yul\":6380:6400   */\n      sub\n        /* \"#utility.yul\":6376:6377   */\n      0x00\n        /* \"#utility.yul\":6365:6374   */\n      dup4\n        /* \"#utility.yul\":6361:6378   */\n      add\n        /* \"#utility.yul\":6354:6401   */\n      mstore\n        /* \"#utility.yul\":6418:6496   */\n      tag_223\n        /* \"#utility.yul\":6491:6495   */\n      dup2\n        /* \"#utility.yul\":6482:6488   */\n      dup5\n        /* \"#utility.yul\":6418:6496   */\n      tag_116\n      jump\t// in\n    tag_223:\n        /* \"#utility.yul\":6410:6496   */\n      swap1\n      pop\n        /* \"#utility.yul\":6190:6503   */\n      swap3\n      swap2\n      pop\n      pop\n      jump\t// out\n        /* \"#utility.yul\":6509:6633   */\n    tag_117:\n        /* \"#utility.yul\":6586:6592   */\n      0x00\n        /* \"#utility.yul\":6620:6625   */\n      dup2\n        /* \"#utility.yul\":6614:6626   */\n      mload\n        /* \"#utility.yul\":6604:6626   */\n      swap1\n      pop\n        /* \"#utility.yul\":6509:6633   */\n      swap2\n      swap1\n      pop\n      jump\t// out\n        /* \"#utility.yul\":6639:6833   */\n    tag_118:\n        /* \"#utility.yul\":6748:6759   */\n      0x00\n        /* \"#utility.yul\":6782:6788   */\n      dup3\n        /* \"#utility.yul\":6777:6780   */\n      dup3\n        /* \"#utility.yul\":6770:6789   */\n      mstore\n        /* \"#utility.yul\":6822:6826   */\n      0x20\n        /* \"#utility.yul\":6817:6820   */\n      dup3\n        /* \"#utility.yul\":6813:6827   */\n      add\n        /* \"#utility.yul\":6798:6827   */\n      swap1\n      pop\n        /* \"#utility.yul\":6639:6833   */\n      swap3\n      swap2\n      pop\n      pop\n      jump\t// out\n        /* \"#utility.yul\":6839:6981   */\n    tag_119:\n        /* \"#utility.yul\":6916:6920   */\n      0x00\n        /* \"#utility.yul\":6939:6942   */\n      dup2\n        /* \"#utility.yul\":6931:6942   */\n      swap1\n      pop\n        /* \"#utility.yul\":6969:6973   */\n      0x20\n        /* \"#utility.yul\":6964:6967   */\n      dup3\n        /* \"#utility.yul\":6960:6974   */\n      add\n        /* \"#utility.yul\":6952:6974   */\n      swap1\n      pop\n        /* \"#utility.yul\":6839:6981   */\n      swap2\n      swap1\n      pop\n      jump\t// out\n        /* \"#utility.yul\":6987:7146   */\n    tag_120:\n        /* \"#utility.yul\":7061:7072   */\n      0x00\n        /* \"#utility.yul\":7095:7101   */\n      dup3\n        /* \"#utility.yul\":7090:7093   */\n      dup3\n        /* \"#utility.yul\":7083:7102   */\n      mstore\n        /* \"#utility.yul\":7135:7139   */\n      0x20\n        /* \"#utility.yul\":7130:7133   */\n      dup3\n        /* \"#utility.yul\":7126:7140   */\n      add\n        /* \"#utility.yul\":7111:7140   */\n      swap1\n      pop\n        /* \"#utility.yul\":6987:7146   */\n      swap3\n      swap2\n      pop\n      pop\n      jump\t// out\n        /* \"#utility.yul\":7152:7509   */\n    tag_121:\n        /* \"#utility.yul\":7230:7233   */\n      0x00\n        /* \"#utility.yul\":7258:7297   */\n      tag_229\n        /* \"#utility.yul\":7291:7296   */\n      dup3\n        /* \"#utility.yul\":7258:7297   */\n      tag_113\n      jump\t// in\n    tag_229:\n        /* \"#utility.yul\":7313:7374   */\n      tag_230\n        /* \"#utility.yul\":7367:7373   */\n      dup2\n        /* \"#utility.yul\":7362:7365   */\n      dup6\n        /* \"#utility.yul\":7313:7374   */\n      tag_120\n      jump\t// in\n    tag_230:\n        /* \"#utility.yul\":7306:7374   */\n      swap4\n      pop\n        /* \"#utility.yul\":7383:7448   */\n      tag_231\n        /* \"#utility.yul\":7441:7447   */\n      dup2\n        /* \"#utility.yul\":7436:7439   */\n      dup6\n        /* \"#utility.yul\":7429:7433   */\n      0x20\n        /* \"#utility.yul\":7422:7427   */\n      dup7\n        /* \"#utility.yul\":7418:7434   */\n      add\n        /* \"#utility.yul\":7383:7448   */\n      tag_115\n      jump\t// in\n    tag_231:\n        /* \"#utility.yul\":7473:7502   */\n      tag_232\n        /* \"#utility.yul\":7495:7501   */\n      dup2\n        /* \"#utility.yul\":7473:7502   */\n      tag_101\n      jump\t// in\n    tag_232:\n        /* \"#utility.yul\":7468:7471   */\n      dup5\n        /* \"#utility.yul\":7464:7503   */\n      add\n        /* \"#utility.yul\":7457:7503   */\n      swap2\n      pop\n        /* \"#utility.yul\":7234:7509   */\n      pop\n        /* \"#utility.yul\":7152:7509   */\n      swap3\n      swap2\n      pop\n      pop\n      jump\t// out\n        /* \"#utility.yul\":7515:7711   */\n    tag_122:\n        /* \"#utility.yul\":7604:7614   */\n      0x00\n        /* \"#utility.yul\":7639:7705   */\n      tag_234\n        /* \"#utility.yul\":7701:7704   */\n      dup4\n        /* \"#utility.yul\":7693:7699   */\n      dup4\n        /* \"#utility.yul\":7639:7705   */\n      tag_121\n      jump\t// in\n    tag_234:\n        /* \"#utility.yul\":7625:7705   */\n      swap1\n      pop\n        /* \"#utility.yul\":7515:7711   */\n      swap3\n      swap2\n      pop\n      pop\n      jump\t// out\n        /* \"#utility.yul\":7717:7840   */\n    tag_123:\n        /* \"#utility.yul\":7797:7801   */\n      0x00\n        /* \"#utility.yul\":7829:7833   */\n      0x20\n        /* \"#utility.yul\":7824:7827   */\n      dup3\n        /* \"#utility.yul\":7820:7834   */\n      add\n        /* \"#utility.yul\":7812:7834   */\n      swap1\n      pop\n        /* \"#utility.yul\":7717:7840   */\n      swap2\n      swap1\n      pop\n      jump\t// out\n        /* \"#utility.yul\":7874:8865   */\n    tag_124:\n        /* \"#utility.yul\":8013:8016   */\n      0x00\n        /* \"#utility.yul\":8042:8106   */\n      tag_237\n        /* \"#utility.yul\":8100:8105   */\n      dup3\n        /* \"#utility.yul\":8042:8106   */\n      tag_117\n      jump\t// in\n    tag_237:\n        /* \"#utility.yul\":8122:8218   */\n      tag_238\n        /* \"#utility.yul\":8211:8217   */\n      dup2\n        /* \"#utility.yul\":8206:8209   */\n      dup6\n        /* \"#utility.yul\":8122:8218   */\n      tag_118\n      jump\t// in\n    tag_238:\n        /* \"#utility.yul\":8115:8218   */\n      swap4\n      pop\n        /* \"#utility.yul\":8244:8247   */\n      dup4\n        /* \"#utility.yul\":8289:8293   */\n      0x20\n        /* \"#utility.yul\":8281:8287   */\n      dup3\n        /* \"#utility.yul\":8277:8294   */\n      mul\n        /* \"#utility.yul\":8272:8275   */\n      dup6\n        /* \"#utility.yul\":8268:8295   */\n      add\n        /* \"#utility.yul\":8319:8385   */\n      tag_239\n        /* \"#utility.yul\":8379:8384   */\n      dup6\n        /* \"#utility.yul\":8319:8385   */\n      tag_119\n      jump\t// in\n    tag_239:\n        /* \"#utility.yul\":8408:8415   */\n      dup1\n        /* \"#utility.yul\":8439:8440   */\n      0x00\n        /* \"#utility.yul\":8424:8820   */\n    tag_240:\n        /* \"#utility.yul\":8449:8455   */\n      dup6\n        /* \"#utility.yul\":8446:8447   */\n      dup2\n        /* \"#utility.yul\":8443:8456   */\n      lt\n        /* \"#utility.yul\":8424:8820   */\n      iszero\n      tag_242\n      jumpi\n        /* \"#utility.yul\":8520:8529   */\n      dup5\n        /* \"#utility.yul\":8514:8518   */\n      dup5\n        /* \"#utility.yul\":8510:8530   */\n      sub\n        /* \"#utility.yul\":8505:8508   */\n      dup10\n        /* \"#utility.yul\":8498:8531   */\n      mstore\n        /* \"#utility.yul\":8571:8577   */\n      dup2\n        /* \"#utility.yul\":8565:8578   */\n      mload\n        /* \"#utility.yul\":8599:8683   */\n      tag_243\n        /* \"#utility.yul\":8678:8682   */\n      dup6\n        /* \"#utility.yul\":8663:8676   */\n      dup3\n        /* \"#utility.yul\":8599:8683   */\n      tag_122\n      jump\t// in\n    tag_243:\n        /* \"#utility.yul\":8591:8683   */\n      swap5\n      pop\n        /* \"#utility.yul\":8706:8776   */\n      tag_244\n        /* \"#utility.yul\":8769:8775   */\n      dup4\n        /* \"#utility.yul\":8706:8776   */\n      tag_123\n      jump\t// in\n    tag_244:\n        /* \"#utility.yul\":8696:8776   */\n      swap3\n      pop\n        /* \"#utility.yul\":8805:8809   */\n      0x20\n        /* \"#utility.yul\":8800:8803   */\n      dup11\n        /* \"#utility.yul\":8796:8810   */\n      add\n        /* \"#utility.yul\":8789:8810   */\n      swap10\n      pop\n        /* \"#utility.yul\":8484:8820   */\n      pop\n        /* \"#utility.yul\":8471:8472   */\n      0x01\n        /* \"#utility.yul\":8468:8469   */\n      dup2\n        /* \"#utility.yul\":8464:8473   */\n      add\n        /* \"#utility.yul\":8459:8473   */\n      swap1\n      pop\n        /* \"#utility.yul\":8424:8820   */\n      jump(tag_240)\n    tag_242:\n        /* \"#utility.yul\":8428:8442   */\n      pop\n        /* \"#utility.yul\":8836:8840   */\n      dup3\n        /* \"#utility.yul\":8829:8840   */\n      swap8\n      pop\n        /* \"#utility.yul\":8856:8859   */\n      dup8\n        /* \"#utility.yul\":8849:8859   */\n      swap6\n      pop\n        /* \"#utility.yul\":8018:8865   */\n      pop\n      pop\n      pop\n      pop\n      pop\n        /* \"#utility.yul\":7874:8865   */\n      swap3\n      swap2\n      pop\n      pop\n      jump\t// out\n        /* \"#utility.yul\":8871:9284   */\n    tag_35:\n        /* \"#utility.yul\":9034:9038   */\n      0x00\n        /* \"#utility.yul\":9072:9074   */\n      0x20\n        /* \"#utility.yul\":9061:9070   */\n      dup3\n        /* \"#utility.yul\":9057:9075   */\n      add\n        /* \"#utility.yul\":9049:9075   */\n      swap1\n      pop\n        /* \"#utility.yul\":9121:9130   */\n      dup2\n        /* \"#utility.yul\":9115:9119   */\n      dup2\n        /* \"#utility.yul\":9111:9131   */\n      sub\n        /* \"#utility.yul\":9107:9108   */\n      0x00\n        /* \"#utility.yul\":9096:9105   */\n      dup4\n        /* \"#utility.yul\":9092:9109   */\n      add\n        /* \"#utility.yul\":9085:9132   */\n      mstore\n        /* \"#utility.yul\":9149:9277   */\n      tag_246\n        /* \"#utility.yul\":9272:9276   */\n      dup2\n        /* \"#utility.yul\":9263:9269   */\n      dup5\n        /* \"#utility.yul\":9149:9277   */\n      tag_124\n      jump\t// in\n    tag_246:\n        /* \"#utility.yul\":9141:9277   */\n      swap1\n      pop\n        /* \"#utility.yul\":8871:9284   */\n      swap3\n      swap2\n      pop\n      pop\n      jump\t// out\n        /* \"#utility.yul\":9290:9944   */\n    tag_42:\n        /* \"#utility.yul\":9368:9374   */\n      0x00\n        /* \"#utility.yul\":9376:9382   */\n      0x00\n        /* \"#utility.yul\":9425:9427   */\n      0x40\n        /* \"#utility.yul\":9413:9422   */\n      dup4\n        /* \"#utility.yul\":9404:9411   */\n      dup6\n        /* \"#utility.yul\":9400:9423   */\n      sub\n        /* \"#utility.yul\":9396:9428   */\n      slt\n        /* \"#utility.yul\":9393:9512   */\n      iszero\n      tag_248\n      jumpi\n        /* \"#utility.yul\":9431:9510   */\n      tag_249\n      tag_91\n      jump\t// in\n    tag_249:\n        /* \"#utility.yul\":9393:9512   */\n    tag_248:\n        /* \"#utility.yul\":9551:9552   */\n      0x00\n        /* \"#utility.yul\":9576:9629   */\n      tag_250\n        /* \"#utility.yul\":9621:9628   */\n      dup6\n        /* \"#utility.yul\":9612:9618   */\n      dup3\n        /* \"#utility.yul\":9601:9610   */\n      dup7\n        /* \"#utility.yul\":9597:9619   */\n      add\n        /* \"#utility.yul\":9576:9629   */\n      tag_96\n      jump\t// in\n    tag_250:\n        /* \"#utility.yul\":9566:9629   */\n      swap3\n      pop\n        /* \"#utility.yul\":9522:9639   */\n      pop\n        /* \"#utility.yul\":9706:9708   */\n      0x20\n        /* \"#utility.yul\":9695:9704   */\n      dup4\n        /* \"#utility.yul\":9691:9709   */\n      add\n        /* \"#utility.yul\":9678:9710   */\n      calldataload\n        /* \"#utility.yul\":9737:9755   */\n      0xffffffffffffffff\n        /* \"#utility.yul\":9729:9735   */\n      dup2\n        /* \"#utility.yul\":9726:9756   */\n      gt\n        /* \"#utility.yul\":9723:9840   */\n      iszero\n      tag_251\n      jumpi\n        /* \"#utility.yul\":9759:9838   */\n      tag_252\n      tag_92\n      jump\t// in\n    tag_252:\n        /* \"#utility.yul\":9723:9840   */\n    tag_251:\n        /* \"#utility.yul\":9864:9927   */\n      tag_253\n        /* \"#utility.yul\":9919:9926   */\n      dup6\n        /* \"#utility.yul\":9910:9916   */\n      dup3\n        /* \"#utility.yul\":9899:9908   */\n      dup7\n        /* \"#utility.yul\":9895:9917   */\n      add\n        /* \"#utility.yul\":9864:9927   */\n      tag_108\n      jump\t// in\n    tag_253:\n        /* \"#utility.yul\":9854:9927   */\n      swap2\n      pop\n        /* \"#utility.yul\":9649:9937   */\n      pop\n        /* \"#utility.yul\":9290:9944   */\n      swap3\n      pop\n      swap3\n      swap1\n      pop\n      jump\t// out\n        /* \"#utility.yul\":9950:10130   */\n    tag_125:\n        /* \"#utility.yul\":9998:10075   */\n      0x4e487b7100000000000000000000000000000000000000000000000000000000\n        /* \"#utility.yul\":9995:9996   */\n      0x00\n        /* \"#utility.yul\":9988:10076   */\n      mstore\n        /* \"#utility.yul\":10095:10099   */\n      0x22\n        /* \"#utility.yul\":10092:10093   */\n      0x04\n        /* \"#utility.yul\":10085:10100   */\n      mstore\n        /* \"#utility.yul\":10119:10123   */\n      0x24\n        /* \"#utility.yul\":10116:10117   */\n      0x00\n        /* \"#utility.yul\":10109:10124   */\n      revert\n        /* \"#utility.yul\":10136:10456   */\n    tag_47:\n        /* \"#utility.yul\":10180:10186   */\n      0x00\n        /* \"#utility.yul\":10217:10218   */\n      0x02\n        /* \"#utility.yul\":10211:10215   */\n      dup3\n        /* \"#utility.yul\":10207:10219   */\n      div\n        /* \"#utility.yul\":10197:10219   */\n      swap1\n      pop\n        /* \"#utility.yul\":10264:10265   */\n      0x01\n        /* \"#utility.yul\":10258:10262   */\n      dup3\n        /* \"#utility.yul\":10254:10266   */\n      and\n        /* \"#utility.yul\":10285:10303   */\n      dup1\n        /* \"#utility.yul\":10275:10356   */\n      tag_256\n      jumpi\n        /* \"#utility.yul\":10341:10345   */\n      0x7f\n        /* \"#utility.yul\":10333:10339   */\n      dup3\n        /* \"#utility.yul\":10329:10346   */\n      and\n        /* \"#utility.yul\":10319:10346   */\n      swap2\n      pop\n        /* \"#utility.yul\":10275:10356   */\n    tag_256:\n        /* \"#utility.yul\":10403:10405   */\n      0x20\n        /* \"#utility.yul\":10395:10401   */\n      dup3\n        /* \"#utility.yul\":10392:10406   */\n      lt\n        /* \"#utility.yul\":10372:10390   */\n      dup2\n        /* \"#utility.yul\":10369:10407   */\n      sub\n        /* \"#utility.yul\":10366:10450   */\n      tag_257\n      jumpi\n        /* \"#utility.yul\":10422:10440   */\n      tag_258\n      tag_125\n      jump\t// in\n    tag_258:\n        /* \"#utility.yul\":10366:10450   */\n    tag_257:\n        /* \"#utility.yul\":10187:10456   */\n      pop\n        /* \"#utility.yul\":10136:10456   */\n      swap2\n      swap1\n      pop\n      jump\t// out\n        /* \"#utility.yul\":10462:10603   */\n    tag_126:\n        /* \"#utility.yul\":10511:10515   */\n      0x00\n        /* \"#utility.yul\":10534:10537   */\n      dup2\n        /* \"#utility.yul\":10526:10537   */\n      swap1\n      pop\n        /* \"#utility.yul\":10557:10560   */\n      dup2\n        /* \"#utility.yul\":10554:10555   */\n      0x00\n        /* \"#utility.yul\":10547:10561   */\n      mstore\n        /* \"#utility.yul\":10591:10595   */\n      0x20\n        /* \"#utility.yul\":10588:10589   */\n      0x00\n        /* \"#utility.yul\":10578:10596   */\n      keccak256\n        /* \"#utility.yul\":10570:10596   */\n      swap1\n      pop\n        /* \"#utility.yul\":10462:10603   */\n      swap2\n      swap1\n      pop\n      jump\t// out\n        /* \"#utility.yul\":10609:10702   */\n    tag_127:\n        /* \"#utility.yul\":10646:10652   */\n      0x00\n        /* \"#utility.yul\":10693:10695   */\n      0x20\n        /* \"#utility.yul\":10688:10690   */\n      0x1f\n        /* \"#utility.yul\":10681:10686   */\n      dup4\n        /* \"#utility.yul\":10677:10691   */\n      add\n        /* \"#utility.yul\":10673:10696   */\n      div\n        /* \"#utility.yul\":10663:10696   */\n      swap1\n      pop\n        /* \"#utility.yul\":10609:10702   */\n      swap2\n      swap1\n      pop\n      jump\t// out\n        /* \"#utility.yul\":10708:10815   */\n    tag_128:\n        /* \"#utility.yul\":10752:10760   */\n      0x00\n        /* \"#utility.yul\":10802:10807   */\n      dup3\n        /* \"#utility.yul\":10796:10800   */\n      dup3\n        /* \"#utility.yul\":10792:10808   */\n      shl\n        /* \"#utility.yul\":10771:10808   */\n      swap1\n      pop\n        /* \"#utility.yul\":10708:10815   */\n      swap3\n      swap2\n      pop\n      pop\n      jump\t// out\n        /* \"#utility.yul\":10821:11214   */\n    tag_129:\n        /* \"#utility.yul\":10890:10896   */\n      0x00\n        /* \"#utility.yul\":10940:10941   */\n      0x08\n        /* \"#utility.yul\":10928:10938   */\n      dup4\n        /* \"#utility.yul\":10924:10942   */\n      mul\n        /* \"#utility.yul\":10963:11060   */\n      tag_263\n        /* \"#utility.yul\":10993:11059   */\n      0xffffffffffffffffffffffffffffffffffffffffffffffffffffffffffffffff\n        /* \"#utility.yul\":10982:10991   */\n      dup3\n        /* \"#utility.yul\":10963:11060   */\n      tag_128\n      jump\t// in\n    tag_263:\n        /* \"#utility.yul\":11081:11120   */\n      tag_264\n        /* \"#utility.yul\":11111:11119   */\n      dup7\n        /* \"#utility.yul\":11100:11109   */\n      dup4\n        /* \"#utility.yul\":11081:11120   */\n      tag_128\n      jump\t// in\n    tag_264:\n        /* \"#utility.yul\":11069:11120   */\n      swap6\n      pop\n        /* \"#utility.yul\":11153:11157   */\n      dup1\n        /* \"#utility.yul\":11149:11158   */\n      not\n        /* \"#utility.yul\":11142:11147   */\n      dup5\n        /* \"#utility.yul\":11138:11159   */\n      and\n        /* \"#utility.yul\":11129:11159   */\n      swap4\n      pop\n        /* \"#utility.yul\":11202:11206   */\n      dup1\n        /* \"#utility.yul\":11192:11200   */\n      dup7\n        /* \"#utility.yul\":11188:11207   */\n      and\n        /* \"#utility.yul\":11181:11186   */\n      dup5\n        /* \"#utility.yul\":11178:11208   */\n      or\n        /* \"#utility.yul\":11168:11208   */\n      swap3\n      pop\n        /* \"#utility.yul\":10897:11214   */\n      pop\n      pop\n        /* \"#utility.yul\":10821:11214   */\n      swap4\n      swap3\n      pop\n      pop\n      pop\n      jump\t// out\n        /* \"#utility.yul\":11220:11280   */\n    tag_130:\n        /* \"#utility.yul\":11248:11251   */\n      0x00\n        /* \"#utility.yul\":11269:11274   */\n      dup2\n        /* \"#utility.yul\":11262:11274   */\n      swap1\n      pop\n        /* \"#utility.yul\":11220:11280   */\n      swap2\n      swap1\n      pop\n      jump\t// out\n        /* \"#utility.yul\":11286:11428   */\n    tag_131:\n        /* \"#utility.yul\":11336:11345   */\n      0x00\n        /* \"#utility.yul\":11369:11422   */\n      tag_267\n        /* \"#utility.yul\":11387:11421   */\n      tag_268\n        /* \"#utility.yul\":11396:11420   */\n      tag_269\n        /* \"#utility.yul\":11414:11419   */\n      dup5\n        /* \"#utility.yul\":11396:11420   */\n      tag_109\n      jump\t// in\n    tag_269:\n        /* \"#utility.yul\":11387:11421   */\n      tag_130\n      jump\t// in\n    tag_268:\n        /* \"#utility.yul\":11369:11422   */\n      tag_109\n      jump\t// in\n    tag_267:\n        /* \"#utility.yul\":11356:11422   */\n      swap1\n      pop\n        /* \"#utility.yul\":11286:11428   */\n      swap2\n      swap1\n      pop\n      jump\t// out\n        /* \"#utility.yul\":11434:11509   */\n    tag_132:\n        /* \"#utility.yul\":11477:11480   */\n      0x00\n        /* \"#utility.yul\":11498:11503   */\n      dup2\n        /* \"#utility.yul\":11491:11503   */\n      swap1\n      pop\n        /* \"#utility.yul\":11434:11509   */\n      swap2\n      swap1\n      pop\n      jump\t// out\n        /* \"#utility.yul\":11515:11784   */\n    tag_133:\n        /* \"#utility.yul\":11625:11664   */\n      tag_272\n        /* \"#utility.yul\":11656:11663   */\n      dup4\n        /* \"#utility.yul\":11625:11664   */\n      tag_131\n      jump\t// in\n    tag_272:\n        /* \"#utility.yul\":11686:11777   */\n      tag_273\n        /* \"#utility.yul\":11735:11776   */\n      tag_274\n        /* \"#utility.yul\":11759:11775   */\n      dup3\n        /* \"#utility.yul\":11735:11776   */\n      tag_132\n      jump\t// in\n    tag_274:\n        /* \"#utility.yul\":11727:11733   */\n      dup5\n        /* \"#utility.yul\":11720:11724   */\n      dup5\n        /* \"#utility.yul\":11714:11725   */\n      sload\n        /* \"#utility.yul\":11686:11777   */\n      tag_129\n      jump\t// in\n    tag_273:\n        /* \"#utility.yul\":11680:11684   */\n      dup3\n        /* \"#utility.yul\":11673:11778   */\n      sstore\n        /* \"#utility.yul\":11591:11784   */\n      pop\n        /* \"#utility.yul\":11515:11784   */\n      pop\n      pop\n      pop\n      jump\t// out\n        /* \"#utility.yul\":11790:11863   */\n    tag_134:\n        /* \"#utility.yul\":11835:11838   */\n      0x00\n        /* \"#utility.yul\":11856:11857   */\n      0x00\n        /* \"#utility.yul\":11849:11857   */\n      swap1\n      pop\n        /* \"#utility.yul\":11790:11863   */\n      swap1\n      jump\t// out\n        /* \"#utility.yul\":11869:12058   */\n    tag_135:\n        /* \"#utility.yul\":11946:11978   */\n      tag_277\n      tag_134\n      jump\t// in\n    tag_277:\n        /* \"#utility.yul\":11987:12052   */\n      tag_278\n        /* \"#utility.yul\":12045:12051   */\n      dup2\n        /* \"#utility.yul\":12037:12043   */\n      dup5\n        /* \"#utility.yul\":12031:12035   */\n      dup5\n        /* \"#utility.yul\":11987:12052   */\n      tag_133\n      jump\t// in\n    tag_278:\n        /* \"#utility.yul\":11922:12058   */\n      pop\n        /* \"#utility.yul\":11869:12058   */\n      pop\n      pop\n      jump\t// out\n        /* \"#utility.yul\":12064:12250   */\n    tag_136:\n        /* \"#utility.yul\":12124:12244   */\n    tag_280:\n        /* \"#utility.yul\":12141:12144   */\n      dup2\n        /* \"#utility.yul\":12134:12139   */\n      dup2\n        /* \"#utility.yul\":12131:12145   */\n      lt\n        /* \"#utility.yul\":12124:12244   */\n      iszero\n      tag_282\n      jumpi\n        /* \"#utility.yul\":12195:12234   */\n      tag_283\n        /* \"#utility.yul\":12232:12233   */\n      0x00\n        /* \"#utility.yul\":12225:12230   */\n      dup3\n        /* \"#utility.yul\":12195:12234   */\n      tag_135\n      jump\t// in\n    tag_283:\n        /* \"#utility.yul\":12168:12169   */\n      0x01\n        /* \"#utility.yul\":12161:12166   */\n      dup2\n        /* \"#utility.yul\":12157:12170   */\n      add\n        /* \"#utility.yul\":12148:12170   */\n      swap1\n      pop\n        /* \"#utility.yul\":12124:12244   */\n      jump(tag_280)\n    tag_282:\n        /* \"#utility.yul\":12064:12250   */\n      pop\n      pop\n      jump\t// out\n        /* \"#utility.yul\":12256:12799   */\n    tag_137:\n        /* \"#utility.yul\":12357:12359   */\n      0x1f\n        /* \"#utility.yul\":12352:12355   */\n      dup3\n        /* \"#utility.yul\":12349:12360   */\n      gt\n        /* \"#utility.yul\":12346:12792   */\n      iszero\n      tag_285\n      jumpi\n        /* \"#utility.yul\":12391:12429   */\n      tag_286\n        /* \"#utility.yul\":12423:12428   */\n      dup2\n        /* \"#utility.yul\":12391:12429   */\n      tag_126\n      jump\t// in\n    tag_286:\n        /* \"#utility.yul\":12475:12504   */\n      tag_287\n        /* \"#utility.yul\":12493:12503   */\n      dup5\n        /* \"#utility.yul\":12475:12504   */\n      tag_127\n      jump\t// in\n    tag_287:\n        /* \"#utility.yul\":12465:12473   */\n      dup2\n        /* \"#utility.yul\":12461:12505   */\n      add\n        /* \"#utility.yul\":12658:12660   */\n      0x20\n        /* \"#utility.yul\":12646:12656   */\n      dup6\n        /* \"#utility.yul\":12643:12661   */\n      lt\n        /* \"#utility.yul\":12640:12689   */\n      iszero\n      tag_288\n      jumpi\n        /* \"#utility.yul\":12679:12687   */\n      dup2\n        /* \"#utility.yul\":12664:12687   */\n      swap1\n      pop\n        /* \"#utility.yul\":12640:12689   */\n    tag_288:\n        /* \"#utility.yul\":12702:12782   */\n      tag_289\n        /* \"#utility.yul\":12758:12780   */\n      tag_290\n        /* \"#utility.yul\":12776:12779   */\n      dup6\n        /* \"#utility.yul\":12758:12780   */\n      tag_127\n      jump\t// in\n    tag_290:\n        /* \"#utility.yul\":12748:12756   */\n      dup4\n        /* \"#utility.yul\":12744:12781   */\n      add\n        /* \"#utility.yul\":12731:12742   */\n      dup3\n        /* \"#utility.yul\":12702:12782   */\n      tag_136\n      jump\t// in\n    tag_289:\n        /* \"#utility.yul\":12361:12792   */\n      pop\n      pop\n        /* \"#utility.yul\":12346:12792   */\n    tag_285:\n        /* \"#utility.yul\":12256:12799   */\n      pop\n      pop\n      pop\n      jump\t// out\n        /* \"#utility.yul\":12805:12922   */\n    tag_138:\n        /* \"#utility.yul\":12859:12867   */\n      0x00\n        /* \"#utility.yul\":12909:12914   */\n      dup3\n        /* \"#utility.yul\":12903:12907   */\n      dup3\n        /* \"#utility.yul\":12899:12915   */\n      shr\n        /* \"#utility.yul\":12878:12915   */\n      swap1\n      pop\n        /* \"#utility.yul\":12805:12922   */\n      swap3\n      swap2\n      pop\n      pop\n      jump\t// out\n        /* \"#utility.yul\":12928:13097   */\n    tag_139:\n        /* \"#utility.yul\":12972:12978   */\n      0x00\n        /* \"#utility.yul\":13005:13056   */\n      tag_293\n        /* \"#utility.yul\":13053:13054   */\n      0x00\n        /* \"#utility.yul\":13049:13055   */\n      not\n        /* \"#utility.yul\":13041:13046   */\n      dup5\n        /* \"#utility.yul\":13038:13039   */\n      0x08\n        /* \"#utility.yul\":13034:13047   */\n      mul\n        /* \"#utility.yul\":13005:13056   */\n      tag_138\n      jump\t// in\n    tag_293:\n        /* \"#utility.yul\":13001:13057   */\n      not\n        /* \"#utility.yul\":13086:13090   */\n      dup1\n        /* \"#utility.yul\":13080:13084   */\n      dup4\n        /* \"#utility.yul\":13076:13091   */\n      and\n        /* \"#utility.yul\":13066:13091   */\n      swap2\n      pop\n        /* \"#utility.yul\":12979:13097   */\n      pop\n        /* \"#utility.yul\":12928:13097   */\n      swap3\n      swap2\n      pop\n      pop\n      jump\t// out\n        /* \"#utility.yul\":13102:13397   */\n    tag_140:\n        /* \"#utility.yul\":13178:13182   */\n      0x00\n        /* \"#utility.yul\":13324:13353   */\n      tag_295\n        /* \"#utility.yul\":13349:13352   */\n      dup4\n        /* \"#utility.yul\":13343:13347   */\n      dup4\n        /* \"#utility.yul\":13324:13353   */\n      tag_139\n      jump\t// in\n    tag_295:\n        /* \"#utility.yul\":13316:13353   */\n      swap2\n      pop\n        /* \"#utility.yul\":13386:13389   */\n      dup3\n        /* \"#utility.yul\":13383:13384   */\n      0x02\n        /* \"#utility.yul\":13379:13390   */\n      mul\n        /* \"#utility.yul\":13373:13377   */\n      dup3\n        /* \"#utility.yul\":13370:13391   */\n      or\n        /* \"#utility.yul\":13362:13391   */\n      swap1\n      pop\n        /* \"#utility.yul\":13102:13397   */\n      swap3\n      swap2\n      pop\n      pop\n      jump\t// out\n        /* \"#utility.yul\":13402:14797   */\n    tag_58:\n        /* \"#utility.yul\":13519:13556   */\n      tag_297\n        /* \"#utility.yul\":13552:13555   */\n      dup3\n        /* \"#utility.yul\":13519:13556   */\n      tag_113\n      jump\t// in\n    tag_297:\n        /* \"#utility.yul\":13621:13639   */\n      0xffffffffffffffff\n        /* \"#utility.yul\":13613:13619   */\n      dup2\n        /* \"#utility.yul\":13610:13640   */\n      gt\n        /* \"#utility.yul\":13607:13663   */\n      iszero\n      tag_298\n      jumpi\n        /* \"#utility.yul\":13643:13661   */\n      tag_299\n      tag_102\n      jump\t// in\n    tag_299:\n        /* \"#utility.yul\":13607:13663   */\n    tag_298:\n        /* \"#utility.yul\":13687:13725   */\n      tag_300\n        /* \"#utility.yul\":13719:13723   */\n      dup3\n        /* \"#utility.yul\":13713:13724   */\n      sload\n        /* \"#utility.yul\":13687:13725   */\n      tag_47\n      jump\t// in\n    tag_300:\n        /* \"#utility.yul\":13772:13839   */\n      tag_301\n        /* \"#utility.yul\":13832:13838   */\n      dup3\n        /* \"#utility.yul\":13824:13830   */\n      dup3\n        /* \"#utility.yul\":13818:13822   */\n      dup6\n        /* \"#utility.yul\":13772:13839   */\n      tag_137\n      jump\t// in\n    tag_301:\n        /* \"#utility.yul\":13866:13867   */\n      0x00\n        /* \"#utility.yul\":13890:13894   */\n      0x20\n        /* \"#utility.yul\":13877:13894   */\n      swap1\n      pop\n        /* \"#utility.yul\":13922:13924   */\n      0x1f\n        /* \"#utility.yul\":13914:13920   */\n      dup4\n        /* \"#utility.yul\":13911:13925   */\n      gt\n        /* \"#utility.yul\":13939:13940   */\n      0x01\n        /* \"#utility.yul\":13934:14552   */\n      dup2\n      eq\n      tag_303\n      jumpi\n        /* \"#utility.yul\":14596:14597   */\n      0x00\n        /* \"#utility.yul\":14613:14619   */\n      dup5\n        /* \"#utility.yul\":14610:14687   */\n      iszero\n      tag_304\n      jumpi\n        /* \"#utility.yul\":14662:14671   */\n      dup3\n        /* \"#utility.yul\":14657:14660   */\n      dup8\n        /* \"#utility.yul\":14653:14672   */\n      add\n        /* \"#utility.yul\":14647:14673   */\n      mload\n        /* \"#utility.yul\":14638:14673   */\n      swap1\n      pop\n        /* \"#utility.yul\":14610:14687   */\n    tag_304:\n        /* \"#utility.yul\":14713:14780   */\n      tag_305\n        /* \"#utility.yul\":14773:14779   */\n      dup6\n        /* \"#utility.yul\":14766:14771   */\n      dup3\n        /* \"#utility.yul\":14713:14780   */\n      tag_140\n      jump\t// in\n    tag_305:\n        /* \"#utility.yul\":14707:14711   */\n      dup7\n        /* \"#utility.yul\":14700:14781   */\n      sstore\n        /* \"#utility.yul\":14569:14791   */\n      pop\n        /* \"#utility.yul\":13904:14791   */\n      jump(tag_302)\n        /* \"#utility.yul\":13934:14552   */\n    tag_303:\n        /* \"#utility.yul\":13986:13990   */\n      0x1f\n        /* \"#utility.yul\":13982:13991   */\n      not\n        /* \"#utility.yul\":13974:13980   */\n      dup5\n        /* \"#utility.yul\":13970:13992   */\n      and\n        /* \"#utility.yul\":14020:14057   */\n      tag_306\n        /* \"#utility.yul\":14052:14056   */\n      dup7\n        /* \"#utility.yul\":14020:14057   */\n      tag_126\n      jump\t// in\n    tag_306:\n        /* \"#utility.yul\":14079:14080   */\n      0x00\n        /* \"#utility.yul\":14093:14301   */\n    tag_307:\n        /* \"#utility.yul\":14107:14114   */\n      dup3\n        /* \"#utility.yul\":14104:14105   */\n      dup2\n        /* \"#utility.yul\":14101:14115   */\n      lt\n        /* \"#utility.yul\":14093:14301   */\n      iszero\n      tag_309\n      jumpi\n        /* \"#utility.yul\":14186:14195   */\n      dup5\n        /* \"#utility.yul\":14181:14184   */\n      dup10\n        /* \"#utility.yul\":14177:14196   */\n      add\n        /* \"#utility.yul\":14171:14197   */\n      mload\n        /* \"#utility.yul\":14163:14169   */\n      dup3\n        /* \"#utility.yul\":14156:14198   */\n      sstore\n        /* \"#utility.yul\":14237:14238   */\n      0x01\n        /* \"#utility.yul\":14229:14235   */\n      dup3\n        /* \"#utility.yul\":14225:14239   */\n      add\n        /* \"#utility.yul\":14215:14239   */\n      swap2\n      pop\n        /* \"#utility.yul\":14284:14286   */\n      0x20\n        /* \"#utility.yul\":14273:14282   */\n      dup6\n        /* \"#utility.yul\":14269:14287   */\n      add\n        /* \"#utility.yul\":14256:14287   */\n      swap5\n      pop\n        /* \"#utility.yul\":14130:14134   */\n      0x20\n        /* \"#utility.yul\":14127:14128   */\n      dup2\n        /* \"#utility.yul\":14123:14135   */\n      add\n        /* \"#utility.yul\":14118:14135   */\n      swap1\n      pop\n        /* \"#utility.yul\":14093:14301   */\n      jump(tag_307)\n    tag_309:\n        /* \"#utility.yul\":14329:14335   */\n      dup7\n        /* \"#utility.yul\":14320:14327   */\n      dup4\n        /* \"#utility.yul\":14317:14336   */\n      lt\n        /* \"#utility.yul\":14314:14493   */\n      iszero\n      tag_310\n      jumpi\n        /* \"#utility.yul\":14387:14396   */\n      dup5\n        /* \"#utility.yul\":14382:14385   */\n      dup10\n        /* \"#utility.yul\":14378:14397   */\n      add\n        /* \"#utility.yul\":14372:14398   */\n      mload\n        /* \"#utility.yul\":14430:14478   */\n      tag_311\n        /* \"#utility.yul\":14472:14476   */\n      0x1f\n        /* \"#utility.yul\":14464:14470   */\n      dup10\n        /* \"#utility.yul\":14460:14477   */\n      and\n        /* \"#utility.yul\":14449:14458   */\n      dup3\n        /* \"#utility.yul\":14430:14478   */\n      tag_139\n      jump\t// in\n    tag_311:\n        /* \"#utility.yul\":14422:14428   */\n      dup4\n        /* \"#utility.yul\":14415:14479   */\n      sstore\n        /* \"#utility.yul\":14337:14493   */\n      pop\n        /* \"#utility.yul\":14314:14493   */\n    tag_310:\n        /* \"#utility.yul\":14539:14540   */\n      0x01\n        /* \"#utility.yul\":14535:14536   */\n      0x02\n        /* \"#utility.yul\":14527:14533   */\n      dup9\n        /* \"#utility.yul\":14523:14537   */\n      mul\n        /* \"#utility.yul\":14519:14541   */\n      add\n        /* \"#utility.yul\":14513:14517   */\n      dup9\n        /* \"#utility.yul\":14506:14542   */\n      sstore\n        /* \"#utility.yul\":13941:14552   */\n      pop\n      pop\n      pop\n        /* \"#utility.yul\":13904:14791   */\n    tag_302:\n      pop\n        /* \"#utility.yul\":13494:14797   */\n      pop\n      pop\n      pop\n        /* \"#utility.yul\":13402:14797   */\n      pop\n      pop\n      jump\t// out\n        /* \"#utility.yul\":14803:14951   */\n    tag_141:\n        /* \"#utility.yul\":14905:14916   */\n      0x00\n        /* \"#utility.yul\":14942:14945   */\n      dup2\n        /* \"#utility.yul\":14927:14945   */\n      swap1\n      pop\n        /* \"#utility.yul\":14803:14951   */\n      swap3\n      swap2\n      pop\n      pop\n      jump\t// out\n        /* \"#utility.yul\":14957:15347   */\n    tag_142:\n        /* \"#utility.yul\":15063:15066   */\n      0x00\n        /* \"#utility.yul\":15091:15130   */\n      tag_314\n        /* \"#utility.yul\":15124:15129   */\n      dup3\n        /* \"#utility.yul\":15091:15130   */\n      tag_113\n      jump\t// in\n    tag_314:\n        /* \"#utility.yul\":15146:15235   */\n      tag_315\n        /* \"#utility.yul\":15228:15234   */\n      dup2\n        /* \"#utility.yul\":15223:15226   */\n      dup6\n        /* \"#utility.yul\":15146:15235   */\n      tag_141\n      jump\t// in\n    tag_315:\n        /* \"#utility.yul\":15139:15235   */\n      swap4\n      pop\n        /* \"#utility.yul\":15244:15309   */\n      tag_316\n        /* \"#utility.yul\":15302:15308   */\n      dup2\n        /* \"#utility.yul\":15297:15300   */\n      dup6\n        /* \"#utility.yul\":15290:15294   */\n      0x20\n        /* \"#utility.yul\":15283:15288   */\n      dup7\n        /* \"#utility.yul\":15279:15295   */\n      add\n        /* \"#utility.yul\":15244:15309   */\n      tag_115\n      jump\t// in\n    tag_316:\n        /* \"#utility.yul\":15334:15340   */\n      dup1\n        /* \"#utility.yul\":15329:15332   */\n      dup5\n        /* \"#utility.yul\":15325:15341   */\n      add\n        /* \"#utility.yul\":15318:15341   */\n      swap2\n      pop\n        /* \"#utility.yul\":15067:15347   */\n      pop\n        /* \"#utility.yul\":14957:15347   */\n      swap3\n      swap2\n      pop\n      pop\n      jump\t// out\n        /* \"#utility.yul\":15353:15628   */\n    tag_60:\n        /* \"#utility.yul\":15485:15488   */\n      0x00\n        /* \"#utility.yul\":15507:15602   */\n      tag_318\n        /* \"#utility.yul\":15598:15601   */\n      dup3\n        /* \"#utility.yul\":15589:15595   */\n      dup5\n        /* \"#utility.yul\":15507:15602   */\n      tag_142\n      jump\t// in\n    tag_318:\n        /* \"#utility.yul\":15500:15602   */\n      swap2\n      pop\n        /* \"#utility.yul\":15619:15622   */\n      dup2\n        /* \"#utility.yul\":15612:15622   */\n      swap1\n      pop\n        /* \"#utility.yul\":15353:15628   */\n      swap3\n      swap2\n      pop\n      pop\n      jump\t// out\n        /* \"#utility.yul\":15634:15814   */\n    tag_143:\n        /* \"#utility.yul\":15682:15759   */\n      0x4e487b7100000000000000000000000000000000000000000000000000000000\n        /* \"#utility.yul\":15679:15680   */\n      0x00\n        /* \"#utility.yul\":15672:15760   */\n      mstore\n        /* \"#utility.yul\":15779:15783   */\n      0x11\n        /* \"#utility.yul\":15776:15777   */\n      0x04\n        /* \"#utility.yul\":15769:15784   */\n      mstore\n        /* \"#utility.yul\":15803:15807   */\n      0x24\n        /* \"#utility.yul\":15800:15801   */\n      0x00\n        /* \"#utility.yul\":15793:15808   */\n      revert\n        /* \"#utility.yul\":15820:16011   */\n    tag_78:\n        /* \"#utility.yul\":15860:15863   */\n      0x00\n        /* \"#utility.yul\":15879:15899   */\n      tag_321\n        /* \"#utility.yul\":15897:15898   */\n      dup3\n        /* \"#utility.yul\":15879:15899   */\n      tag_109\n      jump\t// in\n    tag_321:\n        /* \"#utility.yul\":15874:15899   */\n      swap2\n      pop\n        /* \"#utility.yul\":15913:15933   */\n      tag_322\n        /* \"#utility.yul\":15931:15932   */\n      dup4\n        /* \"#utility.yul\":15913:15933   */\n      tag_109\n      jump\t// in\n    tag_322:\n        /* \"#utility.yul\":15908:15933   */\n      swap3\n      pop\n        /* \"#utility.yul\":15956:15957   */\n      dup3\n        /* \"#utility.yul\":15953:15954   */\n      dup3\n        /* \"#utility.yul\":15949:15958   */\n      add\n        /* \"#utility.yul\":15942:15958   */\n      swap1\n      pop\n        /* \"#utility.yul\":15977:15980   */\n      dup1\n        /* \"#utility.yul\":15974:15975   */\n      dup3\n        /* \"#utility.yul\":15971:15981   */\n      gt\n        /* \"#utility.yul\":15968:16004   */\n      iszero\n      tag_323\n      jumpi\n        /* \"#utility.yul\":15984:16002   */\n      tag_324\n      tag_143\n      jump\t// in\n    tag_324:\n        /* \"#utility.yul\":15968:16004   */\n    tag_323:\n        /* \"#utility.yul\":15820:16011   */\n      swap3\n      swap2\n      pop\n      pop\n      jump\t// out\n        /* \"#utility.yul\":16017:16197   */\n    tag_85:\n        /* \"#utility.yul\":16065:16142   */\n      0x4e487b7100000000000000000000000000000000000000000000000000000000\n        /* \"#utility.yul\":16062:16063   */\n      0x00\n        /* \"#utility.yul\":16055:16143   */\n      mstore\n        /* \"#utility.yul\":16162:16166   */\n      0x32\n        /* \"#utility.yul\":16159:16160   */\n      0x04\n        /* \"#utility.yul\":16152:16167   */\n      mstore\n        /* \"#utility.yul\":16186:16190   */\n      0x24\n        /* \"#utility.yul\":16183:16184   */\n      0x00\n        /* \"#utility.yul\":16176:16191   */\n      revert\n        /* \"#utility.yul\":16203:16350   */\n    tag_144:\n        /* \"#utility.yul\":16304:16315   */\n      0x00\n        /* \"#utility.yul\":16341:16344   */\n      dup2\n        /* \"#utility.yul\":16326:16344   */\n      swap1\n      pop\n        /* \"#utility.yul\":16203:16350   */\n      swap3\n      swap2\n      pop\n      pop\n      jump\t// out\n        /* \"#utility.yul\":16356:16500   */\n    tag_145:\n        /* \"#utility.yul\":16408:16412   */\n      0x00\n        /* \"#utility.yul\":16431:16434   */\n      dup2\n        /* \"#utility.yul\":16423:16434   */\n      swap1\n      pop\n        /* \"#utility.yul\":16454:16457   */\n      dup2\n        /* \"#utility.yul\":16451:16452   */\n      0x00\n        /* \"#utility.yul\":16444:16458   */\n      mstore\n        /* \"#utility.yul\":16488:16492   */\n      0x20\n        /* \"#utility.yul\":16485:16486   */\n      0x00\n        /* \"#utility.yul\":16475:16493   */\n      keccak256\n        /* \"#utility.yul\":16467:16493   */\n      swap1\n      pop\n        /* \"#utility.yul\":16356:16500   */\n      swap2\n      swap1\n      pop\n      jump\t// out\n        /* \"#utility.yul\":16528:17406   */\n    tag_146:\n        /* \"#utility.yul\":16633:16636   */\n      0x00\n        /* \"#utility.yul\":16670:16675   */\n      dup2\n        /* \"#utility.yul\":16664:16676   */\n      sload\n        /* \"#utility.yul\":16699:16735   */\n      tag_329\n        /* \"#utility.yul\":16725:16734   */\n      dup2\n        /* \"#utility.yul\":16699:16735   */\n      tag_47\n      jump\t// in\n    tag_329:\n        /* \"#utility.yul\":16751:16839   */\n      tag_330\n        /* \"#utility.yul\":16832:16838   */\n      dup2\n        /* \"#utility.yul\":16827:16830   */\n      dup7\n        /* \"#utility.yul\":16751:16839   */\n      tag_144\n      jump\t// in\n    tag_330:\n        /* \"#utility.yul\":16744:16839   */\n      swap5\n      pop\n        /* \"#utility.yul\":16870:16871   */\n      0x01\n        /* \"#utility.yul\":16859:16868   */\n      dup3\n        /* \"#utility.yul\":16855:16872   */\n      and\n        /* \"#utility.yul\":16886:16887   */\n      0x00\n        /* \"#utility.yul\":16881:17047   */\n      dup2\n      eq\n      tag_332\n      jumpi\n        /* \"#utility.yul\":17061:17062   */\n      0x01\n        /* \"#utility.yul\":17056:17400   */\n      dup2\n      eq\n      tag_333\n      jumpi\n        /* \"#utility.yul\":16848:17400   */\n      jump(tag_331)\n        /* \"#utility.yul\":16881:17047   */\n    tag_332:\n        /* \"#utility.yul\":16965:16969   */\n      0xff\n        /* \"#utility.yul\":16961:16970   */\n      not\n        /* \"#utility.yul\":16950:16959   */\n      dup4\n        /* \"#utility.yul\":16946:16971   */\n      and\n        /* \"#utility.yul\":16941:16944   */\n      dup7\n        /* \"#utility.yul\":16934:16972   */\n      mstore\n        /* \"#utility.yul\":17027:17033   */\n      dup2\n        /* \"#utility.yul\":17020:17034   */\n      iszero\n        /* \"#utility.yul\":17013:17035   */\n      iszero\n        /* \"#utility.yul\":17005:17011   */\n      dup3\n        /* \"#utility.yul\":17001:17036   */\n      mul\n        /* \"#utility.yul\":16996:16999   */\n      dup7\n        /* \"#utility.yul\":16992:17037   */\n      add\n        /* \"#utility.yul\":16985:17037   */\n      swap4\n      pop\n        /* \"#utility.yul\":16881:17047   */\n      jump(tag_331)\n        /* \"#utility.yul\":17056:17400   */\n    tag_333:\n        /* \"#utility.yul\":17123:17164   */\n      tag_334\n        /* \"#utility.yul\":17158:17163   */\n      dup6\n        /* \"#utility.yul\":17123:17164   */\n      tag_145\n      jump\t// in\n    tag_334:\n        /* \"#utility.yul\":17186:17187   */\n      0x00\n        /* \"#utility.yul\":17200:17354   */\n    tag_335:\n        /* \"#utility.yul\":17214:17220   */\n      dup4\n        /* \"#utility.yul\":17211:17212   */\n      dup2\n        /* \"#utility.yul\":17208:17221   */\n      lt\n        /* \"#utility.yul\":17200:17354   */\n      iszero\n      tag_337\n      jumpi\n        /* \"#utility.yul\":17288:17295   */\n      dup2\n        /* \"#utility.yul\":17282:17296   */\n      sload\n        /* \"#utility.yul\":17278:17279   */\n      dup2\n        /* \"#utility.yul\":17273:17276   */\n      dup10\n        /* \"#utility.yul\":17269:17280   */\n      add\n        /* \"#utility.yul\":17262:17297   */\n      mstore\n        /* \"#utility.yul\":17338:17339   */\n      0x01\n        /* \"#utility.yul\":17329:17336   */\n      dup3\n        /* \"#utility.yul\":17325:17340   */\n      add\n        /* \"#utility.yul\":17314:17340   */\n      swap2\n      pop\n        /* \"#utility.yul\":17236:17240   */\n      0x20\n        /* \"#utility.yul\":17233:17234   */\n      dup2\n        /* \"#utility.yul\":17229:17241   */\n      add\n        /* \"#utility.yul\":17224:17241   */\n      swap1\n      pop\n        /* \"#utility.yul\":17200:17354   */\n      jump(tag_335)\n    tag_337:\n        /* \"#utility.yul\":17383:17389   */\n      dup4\n        /* \"#utility.yul\":17378:17381   */\n      dup9\n        /* \"#utility.yul\":17374:17390   */\n      add\n        /* \"#utility.yul\":17367:17390   */\n      swap6\n      pop\n        /* \"#utility.yul\":17063:17400   */\n      pop\n      pop\n        /* \"#utility.yul\":16848:17400   */\n    tag_331:\n      pop\n        /* \"#utility.yul\":16637:17406   */\n      pop\n      pop\n        /* \"#utility.yul\":16528:17406   */\n      swap3\n      swap2\n      pop\n      pop\n      jump\t// out\n        /* \"#utility.yul\":17412:17685   */\n    tag_88:\n        /* \"#utility.yul\":17543:17546   */\n      0x00\n        /* \"#utility.yul\":17565:17659   */\n      tag_339\n        /* \"#utility.yul\":17655:17658   */\n      dup3\n        /* \"#utility.yul\":17646:17652   */\n      dup5\n        /* \"#utility.yul\":17565:17659   */\n      tag_146\n      jump\t// in\n    tag_339:\n        /* \"#utility.yul\":17558:17659   */\n      swap2\n      pop\n        /* \"#utility.yul\":17676:17679   */\n      dup2\n        /* \"#utility.yul\":17669:17679   */\n      swap1\n      pop\n        /* \"#utility.yul\":17412:17685   */\n      swap3\n      swap2\n      pop\n      pop\n      jump\t// out\n\n    auxdata: 0xa26469706673582212203652d316c00a7e7cbf3232acd1aaae45dadbaed802ea1a12fc6f79a391614d4e64736f6c634300081e0033\n}\n",
				"bytecode": {
					"linkReferences": {},
					"object": "6080604052348015600e575f5ffd5b50610ea18061001c5f395ff3fe608060405234801561000f575f5ffd5b506004361061007a575f3560e01c80637e54b8e2116100595780637e54b8e21461010e5780638dac1d751461012a578063baa40e5c14610148578063c8890be6146101785761007a565b806298a51a1461007e578063130f6c7c146100ae578063563be984146100de575b5f5ffd5b610098600480360381019061009391906105ac565b610194565b6040516100a591906105f1565b60405180910390f35b6100c860048036038101906100c39190610746565b6101b1565b6040516100d591906107a5565b60405180910390f35b6100f860048036038101906100f391906107e8565b6101de565b6040516101059190610873565b60405180910390f35b61012860048036038101906101239190610746565b610283565b005b6101326102e8565b60405161013f9190610996565b60405180910390f35b610162600480360381019061015d9190610746565b6103bb565b60405161016f91906107a5565b60405180910390f35b610192600480360381019061018d91906109b6565b6103e2565b005b6002602052805f5260405f205f915054906101000a900460ff1681565b6001818051602081018201805184825260208301602085012081835280955050505050505f915090505481565b5f81815481106101ec575f80fd5b905f5260205f20015f91509050805461020490610a3d565b80601f016020809104026020016040519081016040528092919081815260200182805461023090610a3d565b801561027b5780601f106102525761010080835404028352916020019161027b565b820191905f5260205f20905b81548152906001019060200180831161025e57829003601f168201915b505050505081565b61028c816104d1565b6102e5575f81908060018154018082558091505060019003905f5260205f20015f9091909190915090816102c09190610c0d565b505f6001826040516102d29190610d16565b9081526020016040518091039020819055505b50565b60605f805480602002602001604051908101604052809291908181526020015f905b828210156103b2578382905f5260205f2001805461032790610a3d565b80601f016020809104026020016040519081016040528092919081815260200182805461035390610a3d565b801561039e5780601f106103755761010080835404028352916020019161039e565b820191905f5260205f20905b81548152906001019060200180831161038157829003601f168201915b50505050508152602001906001019061030a565b50505050905090565b5f6001826040516103cc9190610d16565b9081526020016040518091039020549050919050565b6103eb816104d1565b801561043e575060025f8373ffffffffffffffffffffffffffffffffffffffff1673ffffffffffffffffffffffffffffffffffffffff1681526020019081526020015f205f9054906101000a900460ff16155b156104cd57600180826040516104549190610d16565b90815260200160405180910390205f8282546104709190610d59565b92505081905550600160025f8473ffffffffffffffffffffffffffffffffffffffff1673ffffffffffffffffffffffffffffffffffffffff1681526020019081526020015f205f6101000a81548160ff0219169083151502179055505b5050565b5f5f5f90505b5f805490508110156105375782805190602001205f82815481106104fe576104fd610d8c565b5b905f5260205f20016040516105139190610e55565b60405180910390200361052a57600191505061053c565b80806001019150506104d7565b505f90505b919050565b5f604051905090565b5f5ffd5b5f5ffd5b5f73ffffffffffffffffffffffffffffffffffffffff82169050919050565b5f61057b82610552565b9050919050565b61058b81610571565b8114610595575f5ffd5b50565b5f813590506105a681610582565b92915050565b5f602082840312156105c1576105c061054a565b5b5f6105ce84828501610598565b91505092915050565b5f8115159050919050565b6105eb816105d7565b82525050565b5f6020820190506106045f8301846105e2565b92915050565b5f5ffd5b5f5ffd5b5f601f19601f8301169050919050565b7f4e487b71000000000000000000000000000000000000000000000000000000005f52604160045260245ffd5b61065882610612565b810181811067ffffffffffffffff8211171561067757610676610622565b5b80604052505050565b5f610689610541565b9050610695828261064f565b919050565b5f67ffffffffffffffff8211156106b4576106b3610622565b5b6106bd82610612565b9050602081019050919050565b828183375f83830152505050565b5f6106ea6106e58461069a565b610680565b9050828152602081018484840111156107065761070561060e565b5b6107118482856106ca565b509392505050565b5f82601f83011261072d5761072c61060a565b5b813561073d8482602086016106d8565b91505092915050565b5f6020828403121561075b5761075a61054a565b5b5f82013567ffffffffffffffff8111156107785761077761054e565b5b61078484828501610719565b91505092915050565b5f819050919050565b61079f8161078d565b82525050565b5f6020820190506107b85f830184610796565b92915050565b6107c78161078d565b81146107d1575f5ffd5b50565b5f813590506107e2816107be565b92915050565b5f602082840312156107fd576107fc61054a565b5b5f61080a848285016107d4565b91505092915050565b5f81519050919050565b5f82825260208201905092915050565b8281835e5f83830152505050565b5f61084582610813565b61084f818561081d565b935061085f81856020860161082d565b61086881610612565b840191505092915050565b5f6020820190508181035f83015261088b818461083b565b905092915050565b5f81519050919050565b5f82825260208201905092915050565b5f819050602082019050919050565b5f82825260208201905092915050565b5f6108d682610813565b6108e081856108bc565b93506108f081856020860161082d565b6108f981610612565b840191505092915050565b5f61090f83836108cc565b905092915050565b5f602082019050919050565b5f61092d82610893565b610937818561089d565b935083602082028501610949856108ad565b805f5b8581101561098457848403895281516109658582610904565b945061097083610917565b925060208a0199505060018101905061094c565b50829750879550505050505092915050565b5f6020820190508181035f8301526109ae8184610923565b905092915050565b5f5f604083850312156109cc576109cb61054a565b5b5f6109d985828601610598565b925050602083013567ffffffffffffffff8111156109fa576109f961054e565b5b610a0685828601610719565b9150509250929050565b7f4e487b71000000000000000000000000000000000000000000000000000000005f52602260045260245ffd5b5f6002820490506001821680610a5457607f821691505b602082108103610a6757610a66610a10565b5b50919050565b5f819050815f5260205f209050919050565b5f6020601f8301049050919050565b5f82821b905092915050565b5f60088302610ac97fffffffffffffffffffffffffffffffffffffffffffffffffffffffffffffffff82610a8e565b610ad38683610a8e565b95508019841693508086168417925050509392505050565b5f819050919050565b5f610b0e610b09610b048461078d565b610aeb565b61078d565b9050919050565b5f819050919050565b610b2783610af4565b610b3b610b3382610b15565b848454610a9a565b825550505050565b5f5f905090565b610b52610b43565b610b5d818484610b1e565b505050565b5b81811015610b8057610b755f82610b4a565b600181019050610b63565b5050565b601f821115610bc557610b9681610a6d565b610b9f84610a7f565b81016020851015610bae578190505b610bc2610bba85610a7f565b830182610b62565b50505b505050565b5f82821c905092915050565b5f610be55f1984600802610bca565b1980831691505092915050565b5f610bfd8383610bd6565b9150826002028217905092915050565b610c1682610813565b67ffffffffffffffff811115610c2f57610c2e610622565b5b610c398254610a3d565b610c44828285610b84565b5f60209050601f831160018114610c75575f8415610c63578287015190505b610c6d8582610bf2565b865550610cd4565b601f198416610c8386610a6d565b5f5b82811015610caa57848901518255600182019150602085019450602081019050610c85565b86831015610cc75784890151610cc3601f891682610bd6565b8355505b6001600288020188555050505b505050505050565b5f81905092915050565b5f610cf082610813565b610cfa8185610cdc565b9350610d0a81856020860161082d565b80840191505092915050565b5f610d218284610ce6565b915081905092915050565b7f4e487b71000000000000000000000000000000000000000000000000000000005f52601160045260245ffd5b5f610d638261078d565b9150610d6e8361078d565b9250828201905080821115610d8657610d85610d2c565b5b92915050565b7f4e487b71000000000000000000000000000000000000000000000000000000005f52603260045260245ffd5b5f81905092915050565b5f819050815f5260205f209050919050565b5f8154610de181610a3d565b610deb8186610db9565b9450600182165f8114610e055760018114610e1a57610e4c565b60ff1983168652811515820286019350610e4c565b610e2385610dc3565b5f5b83811015610e4457815481890152600182019150602081019050610e25565b838801955050505b50505092915050565b5f610e608284610dd5565b91508190509291505056fea26469706673582212203652d316c00a7e7cbf3232acd1aaae45dadbaed802ea1a12fc6f79a391614d4e64736f6c634300081e0033",
					"opcodes": "PUSH1 0x80 PUSH1 0x40 MSTORE CALLVALUE DUP1 ISZERO PUSH1 0xE JUMPI PUSH0 PUSH0 REVERT JUMPDEST POP PUSH2 0xEA1 DUP1 PUSH2 0x1C PUSH0 CODECOPY PUSH0 RETURN INVALID PUSH1 0x80 PUSH1 0x40 MSTORE CALLVALUE DUP1 ISZERO PUSH2 0xF JUMPI PUSH0 PUSH0 REVERT JUMPDEST POP PUSH1 0x4 CALLDATASIZE LT PUSH2 0x7A JUMPI PUSH0 CALLDATALOAD PUSH1 0xE0 SHR DUP1 PUSH4 0x7E54B8E2 GT PUSH2 0x59 JUMPI DUP1 PUSH4 0x7E54B8E2 EQ PUSH2 0x10E JUMPI DUP1 PUSH4 0x8DAC1D75 EQ PUSH2 0x12A JUMPI DUP1 PUSH4 0xBAA40E5C EQ PUSH2 0x148 JUMPI DUP1 PUSH4 0xC8890BE6 EQ PUSH2 0x178 JUMPI PUSH2 0x7A JUMP JUMPDEST DUP1 PUSH3 0x98A51A EQ PUSH2 0x7E JUMPI DUP1 PUSH4 0x130F6C7C EQ PUSH2 0xAE JUMPI DUP1 PUSH4 0x563BE984 EQ PUSH2 0xDE JUMPI JUMPDEST PUSH0 PUSH0 REVERT JUMPDEST PUSH2 0x98 PUSH1 0x4 DUP1 CALLDATASIZE SUB DUP2 ADD SWAP1 PUSH2 0x93 SWAP2 SWAP1 PUSH2 0x5AC JUMP JUMPDEST PUSH2 0x194 JUMP JUMPDEST PUSH1 0x40 MLOAD PUSH2 0xA5 SWAP2 SWAP1 PUSH2 0x5F1 JUMP JUMPDEST PUSH1 0x40 MLOAD DUP1 SWAP2 SUB SWAP1 RETURN JUMPDEST PUSH2 0xC8 PUSH1 0x4 DUP1 CALLDATASIZE SUB DUP2 ADD SWAP1 PUSH2 0xC3 SWAP2 SWAP1 PUSH2 0x746 JUMP JUMPDEST PUSH2 0x1B1 JUMP JUMPDEST PUSH1 0x40 MLOAD PUSH2 0xD5 SWAP2 SWAP1 PUSH2 0x7A5 JUMP JUMPDEST PUSH1 0x40 MLOAD DUP1 SWAP2 SUB SWAP1 RETURN JUMPDEST PUSH2 0xF8 PUSH1 0x4 DUP1 CALLDATASIZE SUB DUP2 ADD SWAP1 PUSH2 0xF3 SWAP2 SWAP1 PUSH2 0x7E8 JUMP JUMPDEST PUSH2 0x1DE JUMP JUMPDEST PUSH1 0x40 MLOAD PUSH2 0x105 SWAP2 SWAP1 PUSH2 0x873 JUMP JUMPDEST PUSH1 0x40 MLOAD DUP1 SWAP2 SUB SWAP1 RETURN JUMPDEST PUSH2 0x128 PUSH1 0x4 DUP1 CALLDATASIZE SUB DUP2 ADD SWAP1 PUSH2 0x123 SWAP2 SWAP1 PUSH2 0x746 JUMP JUMPDEST PUSH2 0x283 JUMP JUMPDEST STOP JUMPDEST PUSH2 0x132 PUSH2 0x2E8 JUMP JUMPDEST PUSH1 0x40 MLOAD PUSH2 0x13F SWAP2 SWAP1 PUSH2 0x996 JUMP JUMPDEST PUSH1 0x40 MLOAD DUP1 SWAP2 SUB SWAP1 RETURN JUMPDEST PUSH2 0x162 PUSH1 0x4 DUP1 CALLDATASIZE SUB DUP2 ADD SWAP1 PUSH2 0x15D SWAP2 SWAP1 PUSH2 0x746 JUMP JUMPDEST PUSH2 0x3BB JUMP JUMPDEST PUSH1 0x40 MLOAD PUSH2 0x16F SWAP2 SWAP1 PUSH2 0x7A5 JUMP JUMPDEST PUSH1 0x40 MLOAD DUP1 SWAP2 SUB SWAP1 RETURN JUMPDEST PUSH2 0x192 PUSH1 0x4 DUP1 CALLDATASIZE SUB DUP2 ADD SWAP1 PUSH2 0x18D SWAP2 SWAP1 PUSH2 0x9B6 JUMP JUMPDEST PUSH2 0x3E2 JUMP JUMPDEST STOP JUMPDEST PUSH1 0x2 PUSH1 0x20 MSTORE DUP1 PUSH0 MSTORE PUSH1 0x40 PUSH0 KECCAK256 PUSH0 SWAP2 POP SLOAD SWAP1 PUSH2 0x100 EXP SWAP1 DIV PUSH1 0xFF AND DUP2 JUMP JUMPDEST PUSH1 0x1 DUP2 DUP1 MLOAD PUSH1 0x20 DUP2 ADD DUP3 ADD DUP1 MLOAD DUP5 DUP3 MSTORE PUSH1 0x20 DUP4 ADD PUSH1 0x20 DUP6 ADD KECCAK256 DUP2 DUP4 MSTORE DUP1 SWAP6 POP POP POP POP POP POP PUSH0 SWAP2 POP SWAP1 POP SLOAD DUP2 JUMP JUMPDEST PUSH0 DUP2 DUP2 SLOAD DUP2 LT PUSH2 0x1EC JUMPI PUSH0 DUP1 REVERT JUMPDEST SWAP1 PUSH0 MSTORE PUSH1 0x20 PUSH0 KECCAK256 ADD PUSH0 SWAP2 POP SWAP1 POP DUP1 SLOAD PUSH2 0x204 SWAP1 PUSH2 0xA3D JUMP JUMPDEST DUP1 PUSH1 0x1F ADD PUSH1 0x20 DUP1 SWAP2 DIV MUL PUSH1 0x20 ADD PUSH1 0x40 MLOAD SWAP1 DUP2 ADD PUSH1 0x40 MSTORE DUP1 SWAP3 SWAP2 SWAP1 DUP2 DUP2 MSTORE PUSH1 0x20 ADD DUP3 DUP1 SLOAD PUSH2 0x230 SWAP1 PUSH2 0xA3D JUMP JUMPDEST DUP1 ISZERO PUSH2 0x27B JUMPI DUP1 PUSH1 0x1F LT PUSH2 0x252 JUMPI PUSH2 0x100 DUP1 DUP4 SLOAD DIV MUL DUP4 MSTORE SWAP2 PUSH1 0x20 ADD SWAP2 PUSH2 0x27B JUMP JUMPDEST DUP3 ADD SWAP2 SWAP1 PUSH0 MSTORE PUSH1 0x20 PUSH0 KECCAK256 SWAP1 JUMPDEST DUP2 SLOAD DUP2 MSTORE SWAP1 PUSH1 0x1 ADD SWAP1 PUSH1 0x20 ADD DUP1 DUP4 GT PUSH2 0x25E JUMPI DUP3 SWAP1 SUB PUSH1 0x1F AND DUP3 ADD SWAP2 JUMPDEST POP POP POP POP POP DUP2 JUMP JUMPDEST PUSH2 0x28C DUP2 PUSH2 0x4D1 JUMP JUMPDEST PUSH2 0x2E5 JUMPI PUSH0 DUP2 SWAP1 DUP1 PUSH1 0x1 DUP2 SLOAD ADD DUP1 DUP3 SSTORE DUP1 SWAP2 POP POP PUSH1 0x1 SWAP1 SUB SWAP1 PUSH0 MSTORE PUSH1 0x20 PUSH0 KECCAK256 ADD PUSH0 SWAP1 SWAP2 SWAP1 SWAP2 SWAP1 SWAP2 POP SWAP1 DUP2 PUSH2 0x2C0 SWAP2 SWAP1 PUSH2 0xC0D JUMP JUMPDEST POP PUSH0 PUSH1 0x1 DUP3 PUSH1 0x40 MLOAD PUSH2 0x2D2 SWAP2 SWAP1 PUSH2 0xD16 JUMP JUMPDEST SWAP1 DUP2 MSTORE PUSH1 0x20 ADD PUSH1 0x40 MLOAD DUP1 SWAP2 SUB SWAP1 KECCAK256 DUP2 SWAP1 SSTORE POP JUMPDEST POP JUMP JUMPDEST PUSH1 0x60 PUSH0 DUP1 SLOAD DUP1 PUSH1 0x20 MUL PUSH1 0x20 ADD PUSH1 0x40 MLOAD SWAP1 DUP2 ADD PUSH1 0x40 MSTORE DUP1 SWAP3 SWAP2 SWAP1 DUP2 DUP2 MSTORE PUSH1 0x20 ADD PUSH0 SWAP1 JUMPDEST DUP3 DUP3 LT ISZERO PUSH2 0x3B2 JUMPI DUP4 DUP3 SWAP1 PUSH0 MSTORE PUSH1 0x20 PUSH0 KECCAK256 ADD DUP1 SLOAD PUSH2 0x327 SWAP1 PUSH2 0xA3D JUMP JUMPDEST DUP1 PUSH1 0x1F ADD PUSH1 0x20 DUP1 SWAP2 DIV MUL PUSH1 0x20 ADD PUSH1 0x40 MLOAD SWAP1 DUP2 ADD PUSH1 0x40 MSTORE DUP1 SWAP3 SWAP2 SWAP1 DUP2 DUP2 MSTORE PUSH1 0x20 ADD DUP3 DUP1 SLOAD PUSH2 0x353 SWAP1 PUSH2 0xA3D JUMP JUMPDEST DUP1 ISZERO PUSH2 0x39E JUMPI DUP1 PUSH1 0x1F LT PUSH2 0x375 JUMPI PUSH2 0x100 DUP1 DUP4 SLOAD DIV MUL DUP4 MSTORE SWAP2 PUSH1 0x20 ADD SWAP2 PUSH2 0x39E JUMP JUMPDEST DUP3 ADD SWAP2 SWAP1 PUSH0 MSTORE PUSH1 0x20 PUSH0 KECCAK256 SWAP1 JUMPDEST DUP2 SLOAD DUP2 MSTORE SWAP1 PUSH1 0x1 ADD SWAP1 PUSH1 0x20 ADD DUP1 DUP4 GT PUSH2 0x381 JUMPI DUP3 SWAP1 SUB PUSH1 0x1F AND DUP3 ADD SWAP2 JUMPDEST POP POP POP POP POP DUP2 MSTORE PUSH1 0x20 ADD SWAP1 PUSH1 0x1 ADD SWAP1 PUSH2 0x30A JUMP JUMPDEST POP POP POP POP SWAP1 POP SWAP1 JUMP JUMPDEST PUSH0 PUSH1 0x1 DUP3 PUSH1 0x40 MLOAD PUSH2 0x3CC SWAP2 SWAP1 PUSH2 0xD16 JUMP JUMPDEST SWAP1 DUP2 MSTORE PUSH1 0x20 ADD PUSH1 0x40 MLOAD DUP1 SWAP2 SUB SWAP1 KECCAK256 SLOAD SWAP1 POP SWAP2 SWAP1 POP JUMP JUMPDEST PUSH2 0x3EB DUP2 PUSH2 0x4D1 JUMP JUMPDEST DUP1 ISZERO PUSH2 0x43E JUMPI POP PUSH1 0x2 PUSH0 DUP4 PUSH20 0xFFFFFFFFFFFFFFFFFFFFFFFFFFFFFFFFFFFFFFFF AND PUSH20 0xFFFFFFFFFFFFFFFFFFFFFFFFFFFFFFFFFFFFFFFF AND DUP2 MSTORE PUSH1 0x20 ADD SWAP1 DUP2 MSTORE PUSH1 0x20 ADD PUSH0 KECCAK256 PUSH0 SWAP1 SLOAD SWAP1 PUSH2 0x100 EXP SWAP1 DIV PUSH1 0xFF AND ISZERO JUMPDEST ISZERO PUSH2 0x4CD JUMPI PUSH1 0x1 DUP1 DUP3 PUSH1 0x40 MLOAD PUSH2 0x454 SWAP2 SWAP1 PUSH2 0xD16 JUMP JUMPDEST SWAP1 DUP2 MSTORE PUSH1 0x20 ADD PUSH1 0x40 MLOAD DUP1 SWAP2 SUB SWAP1 KECCAK256 PUSH0 DUP3 DUP3 SLOAD PUSH2 0x470 SWAP2 SWAP1 PUSH2 0xD59 JUMP JUMPDEST SWAP3 POP POP DUP2 SWAP1 SSTORE POP PUSH1 0x1 PUSH1 0x2 PUSH0 DUP5 PUSH20 0xFFFFFFFFFFFFFFFFFFFFFFFFFFFFFFFFFFFFFFFF AND PUSH20 0xFFFFFFFFFFFFFFFFFFFFFFFFFFFFFFFFFFFFFFFF AND DUP2 MSTORE PUSH1 0x20 ADD SWAP1 DUP2 MSTORE PUSH1 0x20 ADD PUSH0 KECCAK256 PUSH0 PUSH2 0x100 EXP DUP2 SLOAD DUP2 PUSH1 0xFF MUL NOT AND SWAP1 DUP4 ISZERO ISZERO MUL OR SWAP1 SSTORE POP JUMPDEST POP POP JUMP JUMPDEST PUSH0 PUSH0 PUSH0 SWAP1 POP JUMPDEST PUSH0 DUP1 SLOAD SWAP1 POP DUP2 LT ISZERO PUSH2 0x537 JUMPI DUP3 DUP1 MLOAD SWAP1 PUSH1 0x20 ADD KECCAK256 PUSH0 DUP3 DUP2 SLOAD DUP2 LT PUSH2 0x4FE JUMPI PUSH2 0x4FD PUSH2 0xD8C JUMP JUMPDEST JUMPDEST SWAP1 PUSH0 MSTORE PUSH1 0x20 PUSH0 KECCAK256 ADD PUSH1 0x40 MLOAD PUSH2 0x513 SWAP2 SWAP1 PUSH2 0xE55 JUMP JUMPDEST PUSH1 0x40 MLOAD DUP1 SWAP2 SUB SWAP1 KECCAK256 SUB PUSH2 0x52A JUMPI PUSH1 0x1 SWAP2 POP POP PUSH2 0x53C JUMP JUMPDEST DUP1 DUP1 PUSH1 0x1 ADD SWAP2 POP POP PUSH2 0x4D7 JUMP JUMPDEST POP PUSH0 SWAP1 POP JUMPDEST SWAP2 SWAP1 POP JUMP JUMPDEST PUSH0 PUSH1 0x40 MLOAD SWAP1 POP SWAP1 JUMP JUMPDEST PUSH0 PUSH0 REVERT JUMPDEST PUSH0 PUSH0 REVERT JUMPDEST PUSH0 PUSH20 0xFFFFFFFFFFFFFFFFFFFFFFFFFFFFFFFFFFFFFFFF DUP3 AND SWAP1 POP SWAP2 SWAP1 POP JUMP JUMPDEST PUSH0 PUSH2 0x57B DUP3 PUSH2 0x552 JUMP JUMPDEST SWAP1 POP SWAP2 SWAP1 POP JUMP JUMPDEST PUSH2 0x58B DUP2 PUSH2 0x571 JUMP JUMPDEST DUP2 EQ PUSH2 0x595 JUMPI PUSH0 PUSH0 REVERT JUMPDEST POP JUMP JUMPDEST PUSH0 DUP2 CALLDATALOAD SWAP1 POP PUSH2 0x5A6 DUP2 PUSH2 0x582 JUMP JUMPDEST SWAP3 SWAP2 POP POP JUMP JUMPDEST PUSH0 PUSH1 0x20 DUP3 DUP5 SUB SLT ISZERO PUSH2 0x5C1 JUMPI PUSH2 0x5C0 PUSH2 0x54A JUMP JUMPDEST JUMPDEST PUSH0 PUSH2 0x5CE DUP5 DUP3 DUP6 ADD PUSH2 0x598 JUMP JUMPDEST SWAP2 POP POP SWAP3 SWAP2 POP POP JUMP JUMPDEST PUSH0 DUP2 ISZERO ISZERO SWAP1 POP SWAP2 SWAP1 POP JUMP JUMPDEST PUSH2 0x5EB DUP2 PUSH2 0x5D7 JUMP JUMPDEST DUP3 MSTORE POP POP JUMP JUMPDEST PUSH0 PUSH1 0x20 DUP3 ADD SWAP1 POP PUSH2 0x604 PUSH0 DUP4 ADD DUP5 PUSH2 0x5E2 JUMP JUMPDEST SWAP3 SWAP2 POP POP JUMP JUMPDEST PUSH0 PUSH0 REVERT JUMPDEST PUSH0 PUSH0 REVERT JUMPDEST PUSH0 PUSH1 0x1F NOT PUSH1 0x1F DUP4 ADD AND SWAP1 POP SWAP2 SWAP1 POP JUMP JUMPDEST PUSH32 0x4E487B7100000000000000000000000000000000000000000000000000000000 PUSH0 MSTORE PUSH1 0x41 PUSH1 0x4 MSTORE PUSH1 0x24 PUSH0 REVERT JUMPDEST PUSH2 0x658 DUP3 PUSH2 0x612 JUMP JUMPDEST DUP2 ADD DUP2 DUP2 LT PUSH8 0xFFFFFFFFFFFFFFFF DUP3 GT OR ISZERO PUSH2 0x677 JUMPI PUSH2 0x676 PUSH2 0x622 JUMP JUMPDEST JUMPDEST DUP1 PUSH1 0x40 MSTORE POP POP POP JUMP JUMPDEST PUSH0 PUSH2 0x689 PUSH2 0x541 JUMP JUMPDEST SWAP1 POP PUSH2 0x695 DUP3 DUP3 PUSH2 0x64F JUMP JUMPDEST SWAP2 SWAP1 POP JUMP JUMPDEST PUSH0 PUSH8 0xFFFFFFFFFFFFFFFF DUP3 GT ISZERO PUSH2 0x6B4 JUMPI PUSH2 0x6B3 PUSH2 0x622 JUMP JUMPDEST JUMPDEST PUSH2 0x6BD DUP3 PUSH2 0x612 JUMP JUMPDEST SWAP1 POP PUSH1 0x20 DUP2 ADD SWAP1 POP SWAP2 SWAP1 POP JUMP JUMPDEST DUP3 DUP2 DUP4 CALLDATACOPY PUSH0 DUP4 DUP4 ADD MSTORE POP POP POP JUMP JUMPDEST PUSH0 PUSH2 0x6EA PUSH2 0x6E5 DUP5 PUSH2 0x69A JUMP JUMPDEST PUSH2 0x680 JUMP JUMPDEST SWAP1 POP DUP3 DUP2 MSTORE PUSH1 0x20 DUP2 ADD DUP5 DUP5 DUP5 ADD GT ISZERO PUSH2 0x706 JUMPI PUSH2 0x705 PUSH2 0x60E JUMP JUMPDEST JUMPDEST PUSH2 0x711 DUP5 DUP3 DUP6 PUSH2 0x6CA JUMP JUMPDEST POP SWAP4 SWAP3 POP POP POP JUMP JUMPDEST PUSH0 DUP3 PUSH1 0x1F DUP4 ADD SLT PUSH2 0x72D JUMPI PUSH2 0x72C PUSH2 0x60A JUMP JUMPDEST JUMPDEST DUP2 CALLDATALOAD PUSH2 0x73D DUP5 DUP3 PUSH1 0x20 DUP7 ADD PUSH2 0x6D8 JUMP JUMPDEST SWAP2 POP POP SWAP3 SWAP2 POP POP JUMP JUMPDEST PUSH0 PUSH1 0x20 DUP3 DUP5 SUB SLT ISZERO PUSH2 0x75B JUMPI PUSH2 0x75A PUSH2 0x54A JUMP JUMPDEST JUMPDEST PUSH0 DUP3 ADD CALLDATALOAD PUSH8 0xFFFFFFFFFFFFFFFF DUP2 GT ISZERO PUSH2 0x778 JUMPI PUSH2 0x777 PUSH2 0x54E JUMP JUMPDEST JUMPDEST PUSH2 0x784 DUP5 DUP3 DUP6 ADD PUSH2 0x719 JUMP JUMPDEST SWAP2 POP POP SWAP3 SWAP2 POP POP JUMP JUMPDEST PUSH0 DUP2 SWAP1 POP SWAP2 SWAP1 POP JUMP JUMPDEST PUSH2 0x79F DUP2 PUSH2 0x78D JUMP JUMPDEST DUP3 MSTORE POP POP JUMP JUMPDEST PUSH0 PUSH1 0x20 DUP3 ADD SWAP1 POP PUSH2 0x7B8 PUSH0 DUP4 ADD DUP5 PUSH2 0x796 JUMP JUMPDEST SWAP3 SWAP2 POP POP JUMP JUMPDEST PUSH2 0x7C7 DUP2 PUSH2 0x78D JUMP JUMPDEST DUP2 EQ PUSH2 0x7D1 JUMPI PUSH0 PUSH0 REVERT JUMPDEST POP JUMP JUMPDEST PUSH0 DUP2 CALLDATALOAD SWAP1 POP PUSH2 0x7E2 DUP2 PUSH2 0x7BE JUMP JUMPDEST SWAP3 SWAP2 POP POP JUMP JUMPDEST PUSH0 PUSH1 0x20 DUP3 DUP5 SUB SLT ISZERO PUSH2 0x7FD JUMPI PUSH2 0x7FC PUSH2 0x54A JUMP JUMPDEST JUMPDEST PUSH0 PUSH2 0x80A DUP5 DUP3 DUP6 ADD PUSH2 0x7D4 JUMP JUMPDEST SWAP2 POP POP SWAP3 SWAP2 POP POP JUMP JUMPDEST PUSH0 DUP2 MLOAD SWAP1 POP SWAP2 SWAP1 POP JUMP JUMPDEST PUSH0 DUP3 DUP3 MSTORE PUSH1 0x20 DUP3 ADD SWAP1 POP SWAP3 SWAP2 POP POP JUMP JUMPDEST DUP3 DUP2 DUP4 MCOPY PUSH0 DUP4 DUP4 ADD MSTORE POP POP POP JUMP JUMPDEST PUSH0 PUSH2 0x845 DUP3 PUSH2 0x813 JUMP JUMPDEST PUSH2 0x84F DUP2 DUP6 PUSH2 0x81D JUMP JUMPDEST SWAP4 POP PUSH2 0x85F DUP2 DUP6 PUSH1 0x20 DUP7 ADD PUSH2 0x82D JUMP JUMPDEST PUSH2 0x868 DUP2 PUSH2 0x612 JUMP JUMPDEST DUP5 ADD SWAP2 POP POP SWAP3 SWAP2 POP POP JUMP JUMPDEST PUSH0 PUSH1 0x20 DUP3 ADD SWAP1 POP DUP2 DUP2 SUB PUSH0 DUP4 ADD MSTORE PUSH2 0x88B DUP2 DUP5 PUSH2 0x83B JUMP JUMPDEST SWAP1 POP SWAP3 SWAP2 POP POP JUMP JUMPDEST PUSH0 DUP2 MLOAD SWAP1 POP SWAP2 SWAP1 POP JUMP JUMPDEST PUSH0 DUP3 DUP3 MSTORE PUSH1 0x20 DUP3 ADD SWAP1 POP SWAP3 SWAP2 POP POP JUMP JUMPDEST PUSH0 DUP2 SWAP1 POP PUSH1 0x20 DUP3 ADD SWAP1 POP SWAP2 SWAP1 POP JUMP JUMPDEST PUSH0 DUP3 DUP3 MSTORE PUSH1 0x20 DUP3 ADD SWAP1 POP SWAP3 SWAP2 POP POP JUMP JUMPDEST PUSH0 PUSH2 0x8D6 DUP3 PUSH2 0x813 JUMP JUMPDEST PUSH2 0x8E0 DUP2 DUP6 PUSH2 0x8BC JUMP JUMPDEST SWAP4 POP PUSH2 0x8F0 DUP2 DUP6 PUSH1 0x20 DUP7 ADD PUSH2 0x82D JUMP JUMPDEST PUSH2 0x8F9 DUP2 PUSH2 0x612 JUMP JUMPDEST DUP5 ADD SWAP2 POP POP SWAP3 SWAP2 POP POP JUMP JUMPDEST PUSH0 PUSH2 0x90F DUP4 DUP4 PUSH2 0x8CC JUMP JUMPDEST SWAP1 POP SWAP3 SWAP2 POP POP JUMP JUMPDEST PUSH0 PUSH1 0x20 DUP3 ADD SWAP1 POP SWAP2 SWAP1 POP JUMP JUMPDEST PUSH0 PUSH2 0x92D DUP3 PUSH2 0x893 JUMP JUMPDEST PUSH2 0x937 DUP2 DUP6 PUSH2 0x89D JUMP JUMPDEST SWAP4 POP DUP4 PUSH1 0x20 DUP3 MUL DUP6 ADD PUSH2 0x949 DUP6 PUSH2 0x8AD JUMP JUMPDEST DUP1 PUSH0 JUMPDEST DUP6 DUP2 LT ISZERO PUSH2 0x984 JUMPI DUP5 DUP5 SUB DUP10 MSTORE DUP2 MLOAD PUSH2 0x965 DUP6 DUP3 PUSH2 0x904 JUMP JUMPDEST SWAP5 POP PUSH2 0x970 DUP4 PUSH2 0x917 JUMP JUMPDEST SWAP3 POP PUSH1 0x20 DUP11 ADD SWAP10 POP POP PUSH1 0x1 DUP2 ADD SWAP1 POP PUSH2 0x94C JUMP JUMPDEST POP DUP3 SWAP8 POP DUP8 SWAP6 POP POP POP POP POP POP SWAP3 SWAP2 POP POP JUMP JUMPDEST PUSH0 PUSH1 0x20 DUP3 ADD SWAP1 POP DUP2 DUP2 SUB PUSH0 DUP4 ADD MSTORE PUSH2 0x9AE DUP2 DUP5 PUSH2 0x923 JUMP JUMPDEST SWAP1 POP SWAP3 SWAP2 POP POP JUMP JUMPDEST PUSH0 PUSH0 PUSH1 0x40 DUP4 DUP6 SUB SLT ISZERO PUSH2 0x9CC JUMPI PUSH2 0x9CB PUSH2 0x54A JUMP JUMPDEST JUMPDEST PUSH0 PUSH2 0x9D9 DUP6 DUP3 DUP7 ADD PUSH2 0x598 JUMP JUMPDEST SWAP3 POP POP PUSH1 0x20 DUP4 ADD CALLDATALOAD PUSH8 0xFFFFFFFFFFFFFFFF DUP2 GT ISZERO PUSH2 0x9FA JUMPI PUSH2 0x9F9 PUSH2 0x54E JUMP JUMPDEST JUMPDEST PUSH2 0xA06 DUP6 DUP3 DUP7 ADD PUSH2 0x719 JUMP JUMPDEST SWAP2 POP POP SWAP3 POP SWAP3 SWAP1 POP JUMP JUMPDEST PUSH32 0x4E487B7100000000000000000000000000000000000000000000000000000000 PUSH0 MSTORE PUSH1 0x22 PUSH1 0x4 MSTORE PUSH1 0x24 PUSH0 REVERT JUMPDEST PUSH0 PUSH1 0x2 DUP3 DIV SWAP1 POP PUSH1 0x1 DUP3 AND DUP1 PUSH2 0xA54 JUMPI PUSH1 0x7F DUP3 AND SWAP2 POP JUMPDEST PUSH1 0x20 DUP3 LT DUP2 SUB PUSH2 0xA67 JUMPI PUSH2 0xA66 PUSH2 0xA10 JUMP JUMPDEST JUMPDEST POP SWAP2 SWAP1 POP JUMP JUMPDEST PUSH0 DUP2 SWAP1 POP DUP2 PUSH0 MSTORE PUSH1 0x20 PUSH0 KECCAK256 SWAP1 POP SWAP2 SWAP1 POP JUMP JUMPDEST PUSH0 PUSH1 0x20 PUSH1 0x1F DUP4 ADD DIV SWAP1 POP SWAP2 SWAP1 POP JUMP JUMPDEST PUSH0 DUP3 DUP3 SHL SWAP1 POP SWAP3 SWAP2 POP POP JUMP JUMPDEST PUSH0 PUSH1 0x8 DUP4 MUL PUSH2 0xAC9 PUSH32 0xFFFFFFFFFFFFFFFFFFFFFFFFFFFFFFFFFFFFFFFFFFFFFFFFFFFFFFFFFFFFFFFF DUP3 PUSH2 0xA8E JUMP JUMPDEST PUSH2 0xAD3 DUP7 DUP4 PUSH2 0xA8E JUMP JUMPDEST SWAP6 POP DUP1 NOT DUP5 AND SWAP4 POP DUP1 DUP7 AND DUP5 OR SWAP3 POP POP POP SWAP4 SWAP3 POP POP POP JUMP JUMPDEST PUSH0 DUP2 SWAP1 POP SWAP2 SWAP1 POP JUMP JUMPDEST PUSH0 PUSH2 0xB0E PUSH2 0xB09 PUSH2 0xB04 DUP5 PUSH2 0x78D JUMP JUMPDEST PUSH2 0xAEB JUMP JUMPDEST PUSH2 0x78D JUMP JUMPDEST SWAP1 POP SWAP2 SWAP1 POP JUMP JUMPDEST PUSH0 DUP2 SWAP1 POP SWAP2 SWAP1 POP JUMP JUMPDEST PUSH2 0xB27 DUP4 PUSH2 0xAF4 JUMP JUMPDEST PUSH2 0xB3B PUSH2 0xB33 DUP3 PUSH2 0xB15 JUMP JUMPDEST DUP5 DUP5 SLOAD PUSH2 0xA9A JUMP JUMPDEST DUP3 SSTORE POP POP POP POP JUMP JUMPDEST PUSH0 PUSH0 SWAP1 POP SWAP1 JUMP JUMPDEST PUSH2 0xB52 PUSH2 0xB43 JUMP JUMPDEST PUSH2 0xB5D DUP2 DUP5 DUP5 PUSH2 0xB1E JUMP JUMPDEST POP POP POP JUMP JUMPDEST JUMPDEST DUP2 DUP2 LT ISZERO PUSH2 0xB80 JUMPI PUSH2 0xB75 PUSH0 DUP3 PUSH2 0xB4A JUMP JUMPDEST PUSH1 0x1 DUP2 ADD SWAP1 POP PUSH2 0xB63 JUMP JUMPDEST POP POP JUMP JUMPDEST PUSH1 0x1F DUP3 GT ISZERO PUSH2 0xBC5 JUMPI PUSH2 0xB96 DUP2 PUSH2 0xA6D JUMP JUMPDEST PUSH2 0xB9F DUP5 PUSH2 0xA7F JUMP JUMPDEST DUP2 ADD PUSH1 0x20 DUP6 LT ISZERO PUSH2 0xBAE JUMPI DUP2 SWAP1 POP JUMPDEST PUSH2 0xBC2 PUSH2 0xBBA DUP6 PUSH2 0xA7F JUMP JUMPDEST DUP4 ADD DUP3 PUSH2 0xB62 JUMP JUMPDEST POP POP JUMPDEST POP POP POP JUMP JUMPDEST PUSH0 DUP3 DUP3 SHR SWAP1 POP SWAP3 SWAP2 POP POP JUMP JUMPDEST PUSH0 PUSH2 0xBE5 PUSH0 NOT DUP5 PUSH1 0x8 MUL PUSH2 0xBCA JUMP JUMPDEST NOT DUP1 DUP4 AND SWAP2 POP POP SWAP3 SWAP2 POP POP JUMP JUMPDEST PUSH0 PUSH2 0xBFD DUP4 DUP4 PUSH2 0xBD6 JUMP JUMPDEST SWAP2 POP DUP3 PUSH1 0x2 MUL DUP3 OR SWAP1 POP SWAP3 SWAP2 POP POP JUMP JUMPDEST PUSH2 0xC16 DUP3 PUSH2 0x813 JUMP JUMPDEST PUSH8 0xFFFFFFFFFFFFFFFF DUP2 GT ISZERO PUSH2 0xC2F JUMPI PUSH2 0xC2E PUSH2 0x622 JUMP JUMPDEST JUMPDEST PUSH2 0xC39 DUP3 SLOAD PUSH2 0xA3D JUMP JUMPDEST PUSH2 0xC44 DUP3 DUP3 DUP6 PUSH2 0xB84 JUMP JUMPDEST PUSH0 PUSH1 0x20 SWAP1 POP PUSH1 0x1F DUP4 GT PUSH1 0x1 DUP2 EQ PUSH2 0xC75 JUMPI PUSH0 DUP5 ISZERO PUSH2 0xC63 JUMPI DUP3 DUP8 ADD MLOAD SWAP1 POP JUMPDEST PUSH2 0xC6D DUP6 DUP3 PUSH2 0xBF2 JUMP JUMPDEST DUP7 SSTORE POP PUSH2 0xCD4 JUMP JUMPDEST PUSH1 0x1F NOT DUP5 AND PUSH2 0xC83 DUP7 PUSH2 0xA6D JUMP JUMPDEST PUSH0 JUMPDEST DUP3 DUP2 LT ISZERO PUSH2 0xCAA JUMPI DUP5 DUP10 ADD MLOAD DUP3 SSTORE PUSH1 0x1 DUP3 ADD SWAP2 POP PUSH1 0x20 DUP6 ADD SWAP5 POP PUSH1 0x20 DUP2 ADD SWAP1 POP PUSH2 0xC85 JUMP JUMPDEST DUP7 DUP4 LT ISZERO PUSH2 0xCC7 JUMPI DUP5 DUP10 ADD MLOAD PUSH2 0xCC3 PUSH1 0x1F DUP10 AND DUP3 PUSH2 0xBD6 JUMP JUMPDEST DUP4 SSTORE POP JUMPDEST PUSH1 0x1 PUSH1 0x2 DUP9 MUL ADD DUP9 SSTORE POP POP POP JUMPDEST POP POP POP POP POP POP JUMP JUMPDEST PUSH0 DUP2 SWAP1 POP SWAP3 SWAP2 POP POP JUMP JUMPDEST PUSH0 PUSH2 0xCF0 DUP3 PUSH2 0x813 JUMP JUMPDEST PUSH2 0xCFA DUP2 DUP6 PUSH2 0xCDC JUMP JUMPDEST SWAP4 POP PUSH2 0xD0A DUP2 DUP6 PUSH1 0x20 DUP7 ADD PUSH2 0x82D JUMP JUMPDEST DUP1 DUP5 ADD SWAP2 POP POP SWAP3 SWAP2 POP POP JUMP JUMPDEST PUSH0 PUSH2 0xD21 DUP3 DUP5 PUSH2 0xCE6 JUMP JUMPDEST SWAP2 POP DUP2 SWAP1 POP SWAP3 SWAP2 POP POP JUMP JUMPDEST PUSH32 0x4E487B7100000000000000000000000000000000000000000000000000000000 PUSH0 MSTORE PUSH1 0x11 PUSH1 0x4 MSTORE PUSH1 0x24 PUSH0 REVERT JUMPDEST PUSH0 PUSH2 0xD63 DUP3 PUSH2 0x78D JUMP JUMPDEST SWAP2 POP PUSH2 0xD6E DUP4 PUSH2 0x78D JUMP JUMPDEST SWAP3 POP DUP3 DUP3 ADD SWAP1 POP DUP1 DUP3 GT ISZERO PUSH2 0xD86 JUMPI PUSH2 0xD85 PUSH2 0xD2C JUMP JUMPDEST JUMPDEST SWAP3 SWAP2 POP POP JUMP JUMPDEST PUSH32 0x4E487B7100000000000000000000000000000000000000000000000000000000 PUSH0 MSTORE PUSH1 0x32 PUSH1 0x4 MSTORE PUSH1 0x24 PUSH0 REVERT JUMPDEST PUSH0 DUP2 SWAP1 POP SWAP3 SWAP2 POP POP JUMP JUMPDEST PUSH0 DUP2 SWAP1 POP DUP2 PUSH0 MSTORE PUSH1 0x20 PUSH0 KECCAK256 SWAP1 POP SWAP2 SWAP1 POP JUMP JUMPDEST PUSH0 DUP2 SLOAD PUSH2 0xDE1 DUP2 PUSH2 0xA3D JUMP JUMPDEST PUSH2 0xDEB DUP2 DUP7 PUSH2 0xDB9 JUMP JUMPDEST SWAP5 POP PUSH1 0x1 DUP3 AND PUSH0 DUP2 EQ PUSH2 0xE05 JUMPI PUSH1 0x1 DUP2 EQ PUSH2 0xE1A JUMPI PUSH2 0xE4C JUMP JUMPDEST PUSH1 0xFF NOT DUP4 AND DUP7 MSTORE DUP2 ISZERO ISZERO DUP3 MUL DUP7 ADD SWAP4 POP PUSH2 0xE4C JUMP JUMPDEST PUSH2 0xE23 DUP6 PUSH2 0xDC3 JUMP JUMPDEST PUSH0 JUMPDEST DUP4 DUP2 LT ISZERO PUSH2 0xE44 JUMPI DUP2 SLOAD DUP2 DUP10 ADD MSTORE PUSH1 0x1 DUP3 ADD SWAP2 POP PUSH1 0x20 DUP2 ADD SWAP1 POP PUSH2 0xE25 JUMP JUMPDEST DUP4 DUP9 ADD SWAP6 POP POP POP JUMPDEST POP POP POP SWAP3 SWAP2 POP POP JUMP JUMPDEST PUSH0 PUSH2 0xE60 DUP3 DUP5 PUSH2 0xDD5 JUMP JUMPDEST SWAP2 POP DUP2 SWAP1 POP SWAP3 SWAP2 POP POP JUMP INVALID LOG2 PUSH5 0x6970667358 0x22 SLT KECCAK256 CALLDATASIZE MSTORE 0xD3 AND 0xC0 EXP PUSH31 0x7CBF3232ACD1AAAE45DADBAED802EA1A12FC6F79A391614D4E64736F6C6343 STOP ADDMOD 0x1E STOP CALLER "
				},
				"gasEstimates": {
					"creation": {
						"codeDepositCost": "749000",
						"executionCost": "784",
						"totalCost": "749784"
					},
					"external": {
						"AddCandidate(string)": "infinite",
						"CandidatesName(uint256)": "infinite",
						"Vote(address,string)": "infinite",
						"VoteCount(string)": "infinite",
						"VoterList(address)": "2834",
						"getCandidatesName()": "infinite",
						"getVote(string)": "infinite"
					},
					"internal": {
						"HasCandidate(string memory)": "infinite"
					}
				},
				"methodIdentifiers": {
					"AddCandidate(string)": "7e54b8e2",
					"CandidatesName(uint256)": "563be984",
					"Vote(address,string)": "c8890be6",
					"VoteCount(string)": "130f6c7c",
					"VoterList(address)": "0098a51a",
					"getCandidatesName()": "8dac1d75",
					"getVote(string)": "baa40e5c"
				}
			},
			"storageLayout": {
				"storage": [
					{
						"astId": 4,
						"contract": "submissions/Vera/day3.sol:PollStation",
						"label": "CandidatesName",
						"offset": 0,
						"slot": "0",
						"type": "t_array(t_string_storage)dyn_storage"
					},
					{
						"astId": 8,
						"contract": "submissions/Vera/day3.sol:PollStation",
						"label": "VoteCount",
						"offset": 0,
						"slot": "1",
						"type": "t_mapping(t_string_memory_ptr,t_uint256)"
					},
					{
						"astId": 12,
						"contract": "submissions/Vera/day3.sol:PollStation",
						"label": "VoterList",
						"offset": 0,
						"slot": "2",
						"type": "t_mapping(t_address,t_bool)"
					}
				],
				"types": {
					"t_address": {
						"encoding": "inplace",
						"label": "address",
						"numberOfBytes": "20"
					},
					"t_array(t_string_storage)dyn_storage": {
						"base": "t_string_storage",
						"encoding": "dynamic_array",
						"label": "string[]",
						"numberOfBytes": "32"
					},
					"t_bool": {
						"encoding": "inplace",
						"label": "bool",
						"numberOfBytes": "1"
					},
					"t_mapping(t_address,t_bool)": {
						"encoding": "mapping",
						"key": "t_address",
						"label": "mapping(address => bool)",
						"numberOfBytes": "32",
						"value": "t_bool"
					},
					"t_mapping(t_string_memory_ptr,t_uint256)": {
						"encoding": "mapping",
						"key": "t_string_memory_ptr",
						"label": "mapping(string => uint256)",
						"numberOfBytes": "32",
						"value": "t_uint256"
					},
					"t_string_memory_ptr": {
						"encoding": "bytes",
						"label": "string",
						"numberOfBytes": "32"
					},
					"t_string_storage": {
						"encoding": "bytes",
						"label": "string",
						"numberOfBytes": "32"
					},
					"t_uint256": {
						"encoding": "inplace",
						"label": "uint256",
						"numberOfBytes": "32"
					}
				}
			},
			"userdoc": {
				"kind": "user",
				"methods": {},
				"version": 1
			}
		}
	}
}