{
	"submissions/0xFancy/day3.sol": {
		"Pollstation": {
			"abi": [
				{
					"inputs": [
						{
							"internalType": "string",
							"name": "_candidateNames",
							"type": "string"
						}
					],
					"name": "addCandidateNames",
					"outputs": [],
					"stateMutability": "nonpayable",
					"type": "function"
				},
				{
					"inputs": [
						{
							"internalType": "uint256",
							"name": "",
							"type": "uint256"
						}
					],
					"name": "candidateNames",
					"outputs": [
						{
							"internalType": "string",
							"name": "",
							"type": "string"
						}
					],
					"stateMutability": "view",
					"type": "function"
				},
				{
					"inputs": [],
					"name": "getcandidateNames",
					"outputs": [
						{
							"internalType": "string[]",
							"name": "",
							"type": "string[]"
						}
					],
					"stateMutability": "view",
					"type": "function"
				},
				{
					"inputs": [
						{
							"internalType": "string",
							"name": "_candidateNames",
							"type": "string"
						}
					],
					"name": "getvote",
					"outputs": [
						{
							"internalType": "uint256",
							"name": "",
							"type": "uint256"
						}
					],
					"stateMutability": "view",
					"type": "function"
				},
				{
					"inputs": [
						{
							"internalType": "string",
							"name": "",
							"type": "string"
						}
					],
					"name": "isCandidate",
					"outputs": [
						{
							"internalType": "bool",
							"name": "",
							"type": "bool"
						}
					],
					"stateMutability": "view",
					"type": "function"
				},
				{
					"inputs": [
						{
							"internalType": "string",
							"name": "_candidateNames",
							"type": "string"
						}
					],
					"name": "vote",
					"outputs": [],
					"stateMutability": "nonpayable",
					"type": "function"
				},
				{
					"inputs": [
						{
							"internalType": "string",
							"name": "",
							"type": "string"
						}
					],
					"name": "voteCount",
					"outputs": [
						{
							"internalType": "uint256",
							"name": "",
							"type": "uint256"
						}
					],
					"stateMutability": "view",
					"type": "function"
				}
			],
			"devdoc": {
				"kind": "dev",
				"methods": {},
				"version": 1
			},
			"evm": {
				"assembly": "    /* \"submissions/0xFancy/day3.sol\":57:851  contract Pollstation{... */\n  mstore(0x40, 0x80)\n  callvalue\n  dup1\n  iszero\n  tag_1\n  jumpi\n  revert(0x00, 0x00)\ntag_1:\n  pop\n  dataSize(sub_0)\n  dup1\n  dataOffset(sub_0)\n  0x00\n  codecopy\n  0x00\n  return\nstop\n\nsub_0: assembly {\n        /* \"submissions/0xFancy/day3.sol\":57:851  contract Pollstation{... */\n      mstore(0x40, 0x80)\n      callvalue\n      dup1\n      iszero\n      tag_1\n      jumpi\n      revert(0x00, 0x00)\n    tag_1:\n      pop\n      jumpi(tag_2, lt(calldatasize, 0x04))\n      shr(0xe0, calldataload(0x00))\n      dup1\n      0x8287e42f\n      gt\n      tag_10\n      jumpi\n      dup1\n      0x8287e42f\n      eq\n      tag_6\n      jumpi\n      dup1\n      0xb13593cb\n      eq\n      tag_7\n      jumpi\n      dup1\n      0xba7f7552\n      eq\n      tag_8\n      jumpi\n      dup1\n      0xfc36e15b\n      eq\n      tag_9\n      jumpi\n      jump(tag_2)\n    tag_10:\n      dup1\n      0x27a7c5d0\n      eq\n      tag_3\n      jumpi\n      dup1\n      0x51599b15\n      eq\n      tag_4\n      jumpi\n      dup1\n      0x793773e4\n      eq\n      tag_5\n      jumpi\n    tag_2:\n      revert(0x00, 0x00)\n        /* \"submissions/0xFancy/day3.sol\":424:527  function getcandidateNames() public view returns(string[] memory){... */\n    tag_3:\n      tag_11\n      tag_12\n      jump\t// in\n    tag_11:\n      mload(0x40)\n      tag_13\n      swap2\n      swap1\n      tag_14\n      jump\t// in\n    tag_13:\n      mload(0x40)\n      dup1\n      swap2\n      sub\n      swap1\n      return\n        /* \"submissions/0xFancy/day3.sol\":168:210  mapping(string => bool) public isCandidate */\n    tag_4:\n      tag_15\n      0x04\n      dup1\n      calldatasize\n      sub\n      dup2\n      add\n      swap1\n      tag_16\n      swap2\n      swap1\n      tag_17\n      jump\t// in\n    tag_16:\n      tag_18\n      jump\t// in\n    tag_15:\n      mload(0x40)\n      tag_19\n      swap2\n      swap1\n      tag_20\n      jump\t// in\n    tag_19:\n      mload(0x40)\n      dup1\n      swap2\n      sub\n      swap1\n      return\n        /* \"submissions/0xFancy/day3.sol\":721:848  function getvote(string memory _candidateNames) public view returns(uint256) {... */\n    tag_5:\n      tag_21\n      0x04\n      dup1\n      calldatasize\n      sub\n      dup2\n      add\n      swap1\n      tag_22\n      swap2\n      swap1\n      tag_17\n      jump\t// in\n    tag_22:\n      tag_23\n      jump\t// in\n    tag_21:\n      mload(0x40)\n      tag_24\n      swap2\n      swap1\n      tag_25\n      jump\t// in\n    tag_24:\n      mload(0x40)\n      dup1\n      swap2\n      sub\n      swap1\n      return\n        /* \"submissions/0xFancy/day3.sol\":83:113  string[] public candidateNames */\n    tag_6:\n      tag_26\n      0x04\n      dup1\n      calldatasize\n      sub\n      dup2\n      add\n      swap1\n      tag_27\n      swap2\n      swap1\n      tag_28\n      jump\t// in\n    tag_27:\n      tag_29\n      jump\t// in\n    tag_26:\n      mload(0x40)\n      tag_30\n      swap2\n      swap1\n      tag_31\n      jump\t// in\n    tag_30:\n      mload(0x40)\n      dup1\n      swap2\n      sub\n      swap1\n      return\n        /* \"submissions/0xFancy/day3.sol\":217:419  function addCandidateNames(string memory _candidateNames) public{... */\n    tag_7:\n      tag_32\n      0x04\n      dup1\n      calldatasize\n      sub\n      dup2\n      add\n      swap1\n      tag_33\n      swap2\n      swap1\n      tag_17\n      jump\t// in\n    tag_33:\n      tag_34\n      jump\t// in\n    tag_32:\n      stop\n        /* \"submissions/0xFancy/day3.sol\":119:162  mapping(string => uint256) public voteCount */\n    tag_8:\n      tag_35\n      0x04\n      dup1\n      calldatasize\n      sub\n      dup2\n      add\n      swap1\n      tag_36\n      swap2\n      swap1\n      tag_17\n      jump\t// in\n    tag_36:\n      tag_37\n      jump\t// in\n    tag_35:\n      mload(0x40)\n      tag_38\n      swap2\n      swap1\n      tag_25\n      jump\t// in\n    tag_38:\n      mload(0x40)\n      dup1\n      swap2\n      sub\n      swap1\n      return\n        /* \"submissions/0xFancy/day3.sol\":532:716  function vote(string memory _candidateNames) public {... */\n    tag_9:\n      tag_39\n      0x04\n      dup1\n      calldatasize\n      sub\n      dup2\n      add\n      swap1\n      tag_40\n      swap2\n      swap1\n      tag_17\n      jump\t// in\n    tag_40:\n      tag_41\n      jump\t// in\n    tag_39:\n      stop\n        /* \"submissions/0xFancy/day3.sol\":424:527  function getcandidateNames() public view returns(string[] memory){... */\n    tag_12:\n        /* \"submissions/0xFancy/day3.sol\":473:488  string[] memory */\n      0x60\n        /* \"submissions/0xFancy/day3.sol\":506:520  candidateNames */\n      0x00\n        /* \"submissions/0xFancy/day3.sol\":499:520  return candidateNames */\n      dup1\n      sload\n      dup1\n      0x20\n      mul\n      0x20\n      add\n      mload(0x40)\n      swap1\n      dup2\n      add\n      0x40\n      mstore\n      dup1\n      swap3\n      swap2\n      swap1\n      dup2\n      dup2\n      mstore\n      0x20\n      add\n      0x00\n      swap1\n    tag_43:\n      dup3\n      dup3\n      lt\n      iszero\n      tag_44\n      jumpi\n      dup4\n      dup3\n      swap1\n      0x00\n      mstore\n      keccak256(0x00, 0x20)\n      add\n      dup1\n      sload\n      tag_46\n      swap1\n      tag_47\n      jump\t// in\n    tag_46:\n      dup1\n      0x1f\n      add\n      0x20\n      dup1\n      swap2\n      div\n      mul\n      0x20\n      add\n      mload(0x40)\n      swap1\n      dup2\n      add\n      0x40\n      mstore\n      dup1\n      swap3\n      swap2\n      swap1\n      dup2\n      dup2\n      mstore\n      0x20\n      add\n      dup3\n      dup1\n      sload\n      tag_48\n      swap1\n      tag_47\n      jump\t// in\n    tag_48:\n      dup1\n      iszero\n      tag_49\n      jumpi\n      dup1\n      0x1f\n      lt\n      tag_50\n      jumpi\n      0x0100\n      dup1\n      dup4\n      sload\n      div\n      mul\n      dup4\n      mstore\n      swap2\n      0x20\n      add\n      swap2\n      jump(tag_49)\n    tag_50:\n      dup3\n      add\n      swap2\n      swap1\n      0x00\n      mstore\n      keccak256(0x00, 0x20)\n      swap1\n    tag_51:\n      dup2\n      sload\n      dup2\n      mstore\n      swap1\n      0x01\n      add\n      swap1\n      0x20\n      add\n      dup1\n      dup4\n      gt\n      tag_51\n      jumpi\n      dup3\n      swap1\n      sub\n      0x1f\n      and\n      dup3\n      add\n      swap2\n    tag_49:\n      pop\n      pop\n      pop\n      pop\n      pop\n      dup2\n      mstore\n      0x20\n      add\n      swap1\n      0x01\n      add\n      swap1\n      jump(tag_43)\n    tag_44:\n      pop\n      pop\n      pop\n      pop\n      swap1\n      pop\n        /* \"submissions/0xFancy/day3.sol\":424:527  function getcandidateNames() public view returns(string[] memory){... */\n      swap1\n      jump\t// out\n        /* \"submissions/0xFancy/day3.sol\":168:210  mapping(string => bool) public isCandidate */\n    tag_18:\n      0x02\n      dup2\n      dup1\n      mload\n      0x20\n      dup2\n      add\n      dup3\n      add\n      dup1\n      mload\n      dup5\n      dup3\n      mstore\n      0x20\n      dup4\n      add\n      0x20\n      dup6\n      add\n      keccak256\n      dup2\n      dup4\n      mstore\n      dup1\n      swap6\n      pop\n      pop\n      pop\n      pop\n      pop\n      pop\n      0x00\n      swap2\n      pop\n      sload\n      swap1\n      0x0100\n      exp\n      swap1\n      div\n      0xff\n      and\n      dup2\n      jump\t// out\n        /* \"submissions/0xFancy/day3.sol\":721:848  function getvote(string memory _candidateNames) public view returns(uint256) {... */\n    tag_23:\n        /* \"submissions/0xFancy/day3.sol\":789:796  uint256 */\n      0x00\n        /* \"submissions/0xFancy/day3.sol\":815:824  voteCount */\n      0x01\n        /* \"submissions/0xFancy/day3.sol\":825:840  _candidateNames */\n      dup3\n        /* \"submissions/0xFancy/day3.sol\":815:841  voteCount[_candidateNames] */\n      mload(0x40)\n      tag_53\n      swap2\n      swap1\n      tag_54\n      jump\t// in\n    tag_53:\n      swap1\n      dup2\n      mstore\n      0x20\n      add\n      mload(0x40)\n      dup1\n      swap2\n      sub\n      swap1\n      keccak256\n      sload\n        /* \"submissions/0xFancy/day3.sol\":808:841  return voteCount[_candidateNames] */\n      swap1\n      pop\n        /* \"submissions/0xFancy/day3.sol\":721:848  function getvote(string memory _candidateNames) public view returns(uint256) {... */\n      swap2\n      swap1\n      pop\n      jump\t// out\n        /* \"submissions/0xFancy/day3.sol\":83:113  string[] public candidateNames */\n    tag_29:\n      0x00\n      dup2\n      dup2\n      sload\n      dup2\n      lt\n      tag_55\n      jumpi\n      0x00\n      dup1\n      revert\n    tag_55:\n      swap1\n      0x00\n      mstore\n      keccak256(0x00, 0x20)\n      add\n      0x00\n      swap2\n      pop\n      swap1\n      pop\n      dup1\n      sload\n      tag_57\n      swap1\n      tag_47\n      jump\t// in\n    tag_57:\n      dup1\n      0x1f\n      add\n      0x20\n      dup1\n      swap2\n      div\n      mul\n      0x20\n      add\n      mload(0x40)\n      swap1\n      dup2\n      add\n      0x40\n      mstore\n      dup1\n      swap3\n      swap2\n      swap1\n      dup2\n      dup2\n      mstore\n      0x20\n      add\n      dup3\n      dup1\n      sload\n      tag_58\n      swap1\n      tag_47\n      jump\t// in\n    tag_58:\n      dup1\n      iszero\n      tag_59\n      jumpi\n      dup1\n      0x1f\n      lt\n      tag_60\n      jumpi\n      0x0100\n      dup1\n      dup4\n      sload\n      div\n      mul\n      dup4\n      mstore\n      swap2\n      0x20\n      add\n      swap2\n      jump(tag_59)\n    tag_60:\n      dup3\n      add\n      swap2\n      swap1\n      0x00\n      mstore\n      keccak256(0x00, 0x20)\n      swap1\n    tag_61:\n      dup2\n      sload\n      dup2\n      mstore\n      swap1\n      0x01\n      add\n      swap1\n      0x20\n      add\n      dup1\n      dup4\n      gt\n      tag_61\n      jumpi\n      dup3\n      swap1\n      sub\n      0x1f\n      and\n      dup3\n      add\n      swap2\n    tag_59:\n      pop\n      pop\n      pop\n      pop\n      pop\n      dup2\n      jump\t// out\n        /* \"submissions/0xFancy/day3.sol\":217:419  function addCandidateNames(string memory _candidateNames) public{... */\n    tag_34:\n        /* \"submissions/0xFancy/day3.sol\":291:305  candidateNames */\n      0x00\n        /* \"submissions/0xFancy/day3.sol\":311:326  _candidateNames */\n      dup2\n        /* \"submissions/0xFancy/day3.sol\":291:327  candidateNames.push(_candidateNames) */\n      swap1\n      dup1\n      0x01\n      dup2\n      sload\n      add\n      dup1\n      dup3\n      sstore\n      dup1\n      swap2\n      pop\n      pop\n      0x01\n      swap1\n      sub\n      swap1\n      0x00\n      mstore\n      keccak256(0x00, 0x20)\n      add\n      0x00\n      swap1\n      swap2\n      swap1\n      swap2\n      swap1\n      swap2\n      pop\n      swap1\n      dup2\n      tag_64\n      swap2\n      swap1\n      tag_65\n      jump\t// in\n    tag_64:\n      pop\n        /* \"submissions/0xFancy/day3.sol\":368:372  true */\n      0x01\n        /* \"submissions/0xFancy/day3.sol\":337:348  isCandidate */\n      0x02\n        /* \"submissions/0xFancy/day3.sol\":349:364  _candidateNames */\n      dup3\n        /* \"submissions/0xFancy/day3.sol\":337:365  isCandidate[_candidateNames] */\n      mload(0x40)\n      tag_66\n      swap2\n      swap1\n      tag_54\n      jump\t// in\n    tag_66:\n      swap1\n      dup2\n      mstore\n      0x20\n      add\n      mload(0x40)\n      dup1\n      swap2\n      sub\n      swap1\n      keccak256\n      0x00\n        /* \"submissions/0xFancy/day3.sol\":337:372  isCandidate[_candidateNames] = true */\n      0x0100\n      exp\n      dup2\n      sload\n      dup2\n      0xff\n      mul\n      not\n      and\n      swap1\n      dup4\n      iszero\n      iszero\n      mul\n      or\n      swap1\n      sstore\n      pop\n        /* \"submissions/0xFancy/day3.sol\":411:412  0 */\n      0x00\n        /* \"submissions/0xFancy/day3.sol\":382:391  voteCount */\n      0x01\n        /* \"submissions/0xFancy/day3.sol\":392:407  _candidateNames */\n      dup3\n        /* \"submissions/0xFancy/day3.sol\":382:408  voteCount[_candidateNames] */\n      mload(0x40)\n      tag_67\n      swap2\n      swap1\n      tag_54\n      jump\t// in\n    tag_67:\n      swap1\n      dup2\n      mstore\n      0x20\n      add\n      mload(0x40)\n      dup1\n      swap2\n      sub\n      swap1\n      keccak256\n        /* \"submissions/0xFancy/day3.sol\":382:412  voteCount[_candidateNames] = 0 */\n      dup2\n      swap1\n      sstore\n      pop\n        /* \"submissions/0xFancy/day3.sol\":217:419  function addCandidateNames(string memory _candidateNames) public{... */\n      pop\n      jump\t// out\n        /* \"submissions/0xFancy/day3.sol\":119:162  mapping(string => uint256) public voteCount */\n    tag_37:\n      0x01\n      dup2\n      dup1\n      mload\n      0x20\n      dup2\n      add\n      dup3\n      add\n      dup1\n      mload\n      dup5\n      dup3\n      mstore\n      0x20\n      dup4\n      add\n      0x20\n      dup6\n      add\n      keccak256\n      dup2\n      dup4\n      mstore\n      dup1\n      swap6\n      pop\n      pop\n      pop\n      pop\n      pop\n      pop\n      0x00\n      swap2\n      pop\n      swap1\n      pop\n      sload\n      dup2\n      jump\t// out\n        /* \"submissions/0xFancy/day3.sol\":532:716  function vote(string memory _candidateNames) public {... */\n    tag_41:\n        /* \"submissions/0xFancy/day3.sol\":602:613  isCandidate */\n      0x02\n        /* \"submissions/0xFancy/day3.sol\":614:629  _candidateNames */\n      dup2\n        /* \"submissions/0xFancy/day3.sol\":602:630  isCandidate[_candidateNames] */\n      mload(0x40)\n      tag_69\n      swap2\n      swap1\n      tag_54\n      jump\t// in\n    tag_69:\n      swap1\n      dup2\n      mstore\n      0x20\n      add\n      mload(0x40)\n      dup1\n      swap2\n      sub\n      swap1\n      keccak256\n      0x00\n      swap1\n      sload\n      swap1\n      0x0100\n      exp\n      swap1\n      div\n      0xff\n      and\n        /* \"submissions/0xFancy/day3.sol\":594:659  require(isCandidate[_candidateNames], \"Candidate does not exist\") */\n      tag_70\n      jumpi\n      mload(0x40)\n      0x08c379a000000000000000000000000000000000000000000000000000000000\n      dup2\n      mstore\n      0x04\n      add\n      tag_71\n      swap1\n      tag_72\n      jump\t// in\n    tag_71:\n      mload(0x40)\n      dup1\n      swap2\n      sub\n      swap1\n      revert\n    tag_70:\n        /* \"submissions/0xFancy/day3.sol\":699:700  1 */\n      0x01\n        /* \"submissions/0xFancy/day3.sol\":669:678  voteCount */\n      dup1\n        /* \"submissions/0xFancy/day3.sol\":679:694  _candidateNames */\n      dup3\n        /* \"submissions/0xFancy/day3.sol\":669:695  voteCount[_candidateNames] */\n      mload(0x40)\n      tag_73\n      swap2\n      swap1\n      tag_54\n      jump\t// in\n    tag_73:\n      swap1\n      dup2\n      mstore\n      0x20\n      add\n      mload(0x40)\n      dup1\n      swap2\n      sub\n      swap1\n      keccak256\n      0x00\n        /* \"submissions/0xFancy/day3.sol\":669:700  voteCount[_candidateNames] += 1 */\n      dup3\n      dup3\n      sload\n      tag_74\n      swap2\n      swap1\n      tag_75\n      jump\t// in\n    tag_74:\n      swap3\n      pop\n      pop\n      dup2\n      swap1\n      sstore\n      pop\n        /* \"submissions/0xFancy/day3.sol\":532:716  function vote(string memory _candidateNames) public {... */\n      pop\n      jump\t// out\n        /* \"#utility.yul\":7:131   */\n    tag_76:\n        /* \"#utility.yul\":84:90   */\n      0x00\n        /* \"#utility.yul\":118:123   */\n      dup2\n        /* \"#utility.yul\":112:124   */\n      mload\n        /* \"#utility.yul\":102:124   */\n      swap1\n      pop\n        /* \"#utility.yul\":7:131   */\n      swap2\n      swap1\n      pop\n      jump\t// out\n        /* \"#utility.yul\":137:331   */\n    tag_77:\n        /* \"#utility.yul\":246:257   */\n      0x00\n        /* \"#utility.yul\":280:286   */\n      dup3\n        /* \"#utility.yul\":275:278   */\n      dup3\n        /* \"#utility.yul\":268:287   */\n      mstore\n        /* \"#utility.yul\":320:324   */\n      0x20\n        /* \"#utility.yul\":315:318   */\n      dup3\n        /* \"#utility.yul\":311:325   */\n      add\n        /* \"#utility.yul\":296:325   */\n      swap1\n      pop\n        /* \"#utility.yul\":137:331   */\n      swap3\n      swap2\n      pop\n      pop\n      jump\t// out\n        /* \"#utility.yul\":337:479   */\n    tag_78:\n        /* \"#utility.yul\":414:418   */\n      0x00\n        /* \"#utility.yul\":437:440   */\n      dup2\n        /* \"#utility.yul\":429:440   */\n      swap1\n      pop\n        /* \"#utility.yul\":467:471   */\n      0x20\n        /* \"#utility.yul\":462:465   */\n      dup3\n        /* \"#utility.yul\":458:472   */\n      add\n        /* \"#utility.yul\":450:472   */\n      swap1\n      pop\n        /* \"#utility.yul\":337:479   */\n      swap2\n      swap1\n      pop\n      jump\t// out\n        /* \"#utility.yul\":485:584   */\n    tag_79:\n        /* \"#utility.yul\":537:543   */\n      0x00\n        /* \"#utility.yul\":571:576   */\n      dup2\n        /* \"#utility.yul\":565:577   */\n      mload\n        /* \"#utility.yul\":555:577   */\n      swap1\n      pop\n        /* \"#utility.yul\":485:584   */\n      swap2\n      swap1\n      pop\n      jump\t// out\n        /* \"#utility.yul\":590:749   */\n    tag_80:\n        /* \"#utility.yul\":664:675   */\n      0x00\n        /* \"#utility.yul\":698:704   */\n      dup3\n        /* \"#utility.yul\":693:696   */\n      dup3\n        /* \"#utility.yul\":686:705   */\n      mstore\n        /* \"#utility.yul\":738:742   */\n      0x20\n        /* \"#utility.yul\":733:736   */\n      dup3\n        /* \"#utility.yul\":729:743   */\n      add\n        /* \"#utility.yul\":714:743   */\n      swap1\n      pop\n        /* \"#utility.yul\":590:749   */\n      swap3\n      swap2\n      pop\n      pop\n      jump\t// out\n        /* \"#utility.yul\":755:894   */\n    tag_81:\n        /* \"#utility.yul\":844:850   */\n      dup3\n        /* \"#utility.yul\":839:842   */\n      dup2\n        /* \"#utility.yul\":834:837   */\n      dup4\n        /* \"#utility.yul\":828:851   */\n      mcopy\n        /* \"#utility.yul\":885:886   */\n      0x00\n        /* \"#utility.yul\":876:882   */\n      dup4\n        /* \"#utility.yul\":871:874   */\n      dup4\n        /* \"#utility.yul\":867:883   */\n      add\n        /* \"#utility.yul\":860:887   */\n      mstore\n        /* \"#utility.yul\":755:894   */\n      pop\n      pop\n      pop\n      jump\t// out\n        /* \"#utility.yul\":900:1002   */\n    tag_82:\n        /* \"#utility.yul\":941:947   */\n      0x00\n        /* \"#utility.yul\":992:994   */\n      0x1f\n        /* \"#utility.yul\":988:995   */\n      not\n        /* \"#utility.yul\":983:985   */\n      0x1f\n        /* \"#utility.yul\":976:981   */\n      dup4\n        /* \"#utility.yul\":972:986   */\n      add\n        /* \"#utility.yul\":968:996   */\n      and\n        /* \"#utility.yul\":958:996   */\n      swap1\n      pop\n        /* \"#utility.yul\":900:1002   */\n      swap2\n      swap1\n      pop\n      jump\t// out\n        /* \"#utility.yul\":1008:1365   */\n    tag_83:\n        /* \"#utility.yul\":1086:1089   */\n      0x00\n        /* \"#utility.yul\":1114:1153   */\n      tag_137\n        /* \"#utility.yul\":1147:1152   */\n      dup3\n        /* \"#utility.yul\":1114:1153   */\n      tag_79\n      jump\t// in\n    tag_137:\n        /* \"#utility.yul\":1169:1230   */\n      tag_138\n        /* \"#utility.yul\":1223:1229   */\n      dup2\n        /* \"#utility.yul\":1218:1221   */\n      dup6\n        /* \"#utility.yul\":1169:1230   */\n      tag_80\n      jump\t// in\n    tag_138:\n        /* \"#utility.yul\":1162:1230   */\n      swap4\n      pop\n        /* \"#utility.yul\":1239:1304   */\n      tag_139\n        /* \"#utility.yul\":1297:1303   */\n      dup2\n        /* \"#utility.yul\":1292:1295   */\n      dup6\n        /* \"#utility.yul\":1285:1289   */\n      0x20\n        /* \"#utility.yul\":1278:1283   */\n      dup7\n        /* \"#utility.yul\":1274:1290   */\n      add\n        /* \"#utility.yul\":1239:1304   */\n      tag_81\n      jump\t// in\n    tag_139:\n        /* \"#utility.yul\":1329:1358   */\n      tag_140\n        /* \"#utility.yul\":1351:1357   */\n      dup2\n        /* \"#utility.yul\":1329:1358   */\n      tag_82\n      jump\t// in\n    tag_140:\n        /* \"#utility.yul\":1324:1327   */\n      dup5\n        /* \"#utility.yul\":1320:1359   */\n      add\n        /* \"#utility.yul\":1313:1359   */\n      swap2\n      pop\n        /* \"#utility.yul\":1090:1365   */\n      pop\n        /* \"#utility.yul\":1008:1365   */\n      swap3\n      swap2\n      pop\n      pop\n      jump\t// out\n        /* \"#utility.yul\":1371:1567   */\n    tag_84:\n        /* \"#utility.yul\":1460:1470   */\n      0x00\n        /* \"#utility.yul\":1495:1561   */\n      tag_142\n        /* \"#utility.yul\":1557:1560   */\n      dup4\n        /* \"#utility.yul\":1549:1555   */\n      dup4\n        /* \"#utility.yul\":1495:1561   */\n      tag_83\n      jump\t// in\n    tag_142:\n        /* \"#utility.yul\":1481:1561   */\n      swap1\n      pop\n        /* \"#utility.yul\":1371:1567   */\n      swap3\n      swap2\n      pop\n      pop\n      jump\t// out\n        /* \"#utility.yul\":1573:1696   */\n    tag_85:\n        /* \"#utility.yul\":1653:1657   */\n      0x00\n        /* \"#utility.yul\":1685:1689   */\n      0x20\n        /* \"#utility.yul\":1680:1683   */\n      dup3\n        /* \"#utility.yul\":1676:1690   */\n      add\n        /* \"#utility.yul\":1668:1690   */\n      swap1\n      pop\n        /* \"#utility.yul\":1573:1696   */\n      swap2\n      swap1\n      pop\n      jump\t// out\n        /* \"#utility.yul\":1730:2721   */\n    tag_86:\n        /* \"#utility.yul\":1869:1872   */\n      0x00\n        /* \"#utility.yul\":1898:1962   */\n      tag_145\n        /* \"#utility.yul\":1956:1961   */\n      dup3\n        /* \"#utility.yul\":1898:1962   */\n      tag_76\n      jump\t// in\n    tag_145:\n        /* \"#utility.yul\":1978:2074   */\n      tag_146\n        /* \"#utility.yul\":2067:2073   */\n      dup2\n        /* \"#utility.yul\":2062:2065   */\n      dup6\n        /* \"#utility.yul\":1978:2074   */\n      tag_77\n      jump\t// in\n    tag_146:\n        /* \"#utility.yul\":1971:2074   */\n      swap4\n      pop\n        /* \"#utility.yul\":2100:2103   */\n      dup4\n        /* \"#utility.yul\":2145:2149   */\n      0x20\n        /* \"#utility.yul\":2137:2143   */\n      dup3\n        /* \"#utility.yul\":2133:2150   */\n      mul\n        /* \"#utility.yul\":2128:2131   */\n      dup6\n        /* \"#utility.yul\":2124:2151   */\n      add\n        /* \"#utility.yul\":2175:2241   */\n      tag_147\n        /* \"#utility.yul\":2235:2240   */\n      dup6\n        /* \"#utility.yul\":2175:2241   */\n      tag_78\n      jump\t// in\n    tag_147:\n        /* \"#utility.yul\":2264:2271   */\n      dup1\n        /* \"#utility.yul\":2295:2296   */\n      0x00\n        /* \"#utility.yul\":2280:2676   */\n    tag_148:\n        /* \"#utility.yul\":2305:2311   */\n      dup6\n        /* \"#utility.yul\":2302:2303   */\n      dup2\n        /* \"#utility.yul\":2299:2312   */\n      lt\n        /* \"#utility.yul\":2280:2676   */\n      iszero\n      tag_150\n      jumpi\n        /* \"#utility.yul\":2376:2385   */\n      dup5\n        /* \"#utility.yul\":2370:2374   */\n      dup5\n        /* \"#utility.yul\":2366:2386   */\n      sub\n        /* \"#utility.yul\":2361:2364   */\n      dup10\n        /* \"#utility.yul\":2354:2387   */\n      mstore\n        /* \"#utility.yul\":2427:2433   */\n      dup2\n        /* \"#utility.yul\":2421:2434   */\n      mload\n        /* \"#utility.yul\":2455:2539   */\n      tag_151\n        /* \"#utility.yul\":2534:2538   */\n      dup6\n        /* \"#utility.yul\":2519:2532   */\n      dup3\n        /* \"#utility.yul\":2455:2539   */\n      tag_84\n      jump\t// in\n    tag_151:\n        /* \"#utility.yul\":2447:2539   */\n      swap5\n      pop\n        /* \"#utility.yul\":2562:2632   */\n      tag_152\n        /* \"#utility.yul\":2625:2631   */\n      dup4\n        /* \"#utility.yul\":2562:2632   */\n      tag_85\n      jump\t// in\n    tag_152:\n        /* \"#utility.yul\":2552:2632   */\n      swap3\n      pop\n        /* \"#utility.yul\":2661:2665   */\n      0x20\n        /* \"#utility.yul\":2656:2659   */\n      dup11\n        /* \"#utility.yul\":2652:2666   */\n      add\n        /* \"#utility.yul\":2645:2666   */\n      swap10\n      pop\n        /* \"#utility.yul\":2340:2676   */\n      pop\n        /* \"#utility.yul\":2327:2328   */\n      0x01\n        /* \"#utility.yul\":2324:2325   */\n      dup2\n        /* \"#utility.yul\":2320:2329   */\n      add\n        /* \"#utility.yul\":2315:2329   */\n      swap1\n      pop\n        /* \"#utility.yul\":2280:2676   */\n      jump(tag_148)\n    tag_150:\n        /* \"#utility.yul\":2284:2298   */\n      pop\n        /* \"#utility.yul\":2692:2696   */\n      dup3\n        /* \"#utility.yul\":2685:2696   */\n      swap8\n      pop\n        /* \"#utility.yul\":2712:2715   */\n      dup8\n        /* \"#utility.yul\":2705:2715   */\n      swap6\n      pop\n        /* \"#utility.yul\":1874:2721   */\n      pop\n      pop\n      pop\n      pop\n      pop\n        /* \"#utility.yul\":1730:2721   */\n      swap3\n      swap2\n      pop\n      pop\n      jump\t// out\n        /* \"#utility.yul\":2727:3140   */\n    tag_14:\n        /* \"#utility.yul\":2890:2894   */\n      0x00\n        /* \"#utility.yul\":2928:2930   */\n      0x20\n        /* \"#utility.yul\":2917:2926   */\n      dup3\n        /* \"#utility.yul\":2913:2931   */\n      add\n        /* \"#utility.yul\":2905:2931   */\n      swap1\n      pop\n        /* \"#utility.yul\":2977:2986   */\n      dup2\n        /* \"#utility.yul\":2971:2975   */\n      dup2\n        /* \"#utility.yul\":2967:2987   */\n      sub\n        /* \"#utility.yul\":2963:2964   */\n      0x00\n        /* \"#utility.yul\":2952:2961   */\n      dup4\n        /* \"#utility.yul\":2948:2965   */\n      add\n        /* \"#utility.yul\":2941:2988   */\n      mstore\n        /* \"#utility.yul\":3005:3133   */\n      tag_154\n        /* \"#utility.yul\":3128:3132   */\n      dup2\n        /* \"#utility.yul\":3119:3125   */\n      dup5\n        /* \"#utility.yul\":3005:3133   */\n      tag_86\n      jump\t// in\n    tag_154:\n        /* \"#utility.yul\":2997:3133   */\n      swap1\n      pop\n        /* \"#utility.yul\":2727:3140   */\n      swap3\n      swap2\n      pop\n      pop\n      jump\t// out\n        /* \"#utility.yul\":3146:3221   */\n    tag_87:\n        /* \"#utility.yul\":3179:3185   */\n      0x00\n        /* \"#utility.yul\":3212:3214   */\n      0x40\n        /* \"#utility.yul\":3206:3215   */\n      mload\n        /* \"#utility.yul\":3196:3215   */\n      swap1\n      pop\n        /* \"#utility.yul\":3146:3221   */\n      swap1\n      jump\t// out\n        /* \"#utility.yul\":3227:3344   */\n    tag_88:\n        /* \"#utility.yul\":3336:3337   */\n      0x00\n        /* \"#utility.yul\":3333:3334   */\n      0x00\n        /* \"#utility.yul\":3326:3338   */\n      revert\n        /* \"#utility.yul\":3350:3467   */\n    tag_89:\n        /* \"#utility.yul\":3459:3460   */\n      0x00\n        /* \"#utility.yul\":3456:3457   */\n      0x00\n        /* \"#utility.yul\":3449:3461   */\n      revert\n        /* \"#utility.yul\":3473:3590   */\n    tag_90:\n        /* \"#utility.yul\":3582:3583   */\n      0x00\n        /* \"#utility.yul\":3579:3580   */\n      0x00\n        /* \"#utility.yul\":3572:3584   */\n      revert\n        /* \"#utility.yul\":3596:3713   */\n    tag_91:\n        /* \"#utility.yul\":3705:3706   */\n      0x00\n        /* \"#utility.yul\":3702:3703   */\n      0x00\n        /* \"#utility.yul\":3695:3707   */\n      revert\n        /* \"#utility.yul\":3719:3899   */\n    tag_92:\n        /* \"#utility.yul\":3767:3844   */\n      0x4e487b7100000000000000000000000000000000000000000000000000000000\n        /* \"#utility.yul\":3764:3765   */\n      0x00\n        /* \"#utility.yul\":3757:3845   */\n      mstore\n        /* \"#utility.yul\":3864:3868   */\n      0x41\n        /* \"#utility.yul\":3861:3862   */\n      0x04\n        /* \"#utility.yul\":3854:3869   */\n      mstore\n        /* \"#utility.yul\":3888:3892   */\n      0x24\n        /* \"#utility.yul\":3885:3886   */\n      0x00\n        /* \"#utility.yul\":3878:3893   */\n      revert\n        /* \"#utility.yul\":3905:4186   */\n    tag_93:\n        /* \"#utility.yul\":3988:4015   */\n      tag_162\n        /* \"#utility.yul\":4010:4014   */\n      dup3\n        /* \"#utility.yul\":3988:4015   */\n      tag_82\n      jump\t// in\n    tag_162:\n        /* \"#utility.yul\":3980:3986   */\n      dup2\n        /* \"#utility.yul\":3976:4016   */\n      add\n        /* \"#utility.yul\":4118:4124   */\n      dup2\n        /* \"#utility.yul\":4106:4116   */\n      dup2\n        /* \"#utility.yul\":4103:4125   */\n      lt\n        /* \"#utility.yul\":4082:4100   */\n      0xffffffffffffffff\n        /* \"#utility.yul\":4070:4080   */\n      dup3\n        /* \"#utility.yul\":4067:4101   */\n      gt\n        /* \"#utility.yul\":4064:4126   */\n      or\n        /* \"#utility.yul\":4061:4149   */\n      iszero\n      tag_163\n      jumpi\n        /* \"#utility.yul\":4129:4147   */\n      tag_164\n      tag_92\n      jump\t// in\n    tag_164:\n        /* \"#utility.yul\":4061:4149   */\n    tag_163:\n        /* \"#utility.yul\":4169:4179   */\n      dup1\n        /* \"#utility.yul\":4165:4167   */\n      0x40\n        /* \"#utility.yul\":4158:4180   */\n      mstore\n        /* \"#utility.yul\":3948:4186   */\n      pop\n        /* \"#utility.yul\":3905:4186   */\n      pop\n      pop\n      jump\t// out\n        /* \"#utility.yul\":4192:4321   */\n    tag_94:\n        /* \"#utility.yul\":4226:4232   */\n      0x00\n        /* \"#utility.yul\":4253:4273   */\n      tag_166\n      tag_87\n      jump\t// in\n    tag_166:\n        /* \"#utility.yul\":4243:4273   */\n      swap1\n      pop\n        /* \"#utility.yul\":4282:4315   */\n      tag_167\n        /* \"#utility.yul\":4310:4314   */\n      dup3\n        /* \"#utility.yul\":4302:4308   */\n      dup3\n        /* \"#utility.yul\":4282:4315   */\n      tag_93\n      jump\t// in\n    tag_167:\n        /* \"#utility.yul\":4192:4321   */\n      swap2\n      swap1\n      pop\n      jump\t// out\n        /* \"#utility.yul\":4327:4635   */\n    tag_95:\n        /* \"#utility.yul\":4389:4393   */\n      0x00\n        /* \"#utility.yul\":4479:4497   */\n      0xffffffffffffffff\n        /* \"#utility.yul\":4471:4477   */\n      dup3\n        /* \"#utility.yul\":4468:4498   */\n      gt\n        /* \"#utility.yul\":4465:4521   */\n      iszero\n      tag_169\n      jumpi\n        /* \"#utility.yul\":4501:4519   */\n      tag_170\n      tag_92\n      jump\t// in\n    tag_170:\n        /* \"#utility.yul\":4465:4521   */\n    tag_169:\n        /* \"#utility.yul\":4539:4568   */\n      tag_171\n        /* \"#utility.yul\":4561:4567   */\n      dup3\n        /* \"#utility.yul\":4539:4568   */\n      tag_82\n      jump\t// in\n    tag_171:\n        /* \"#utility.yul\":4531:4568   */\n      swap1\n      pop\n        /* \"#utility.yul\":4623:4627   */\n      0x20\n        /* \"#utility.yul\":4617:4621   */\n      dup2\n        /* \"#utility.yul\":4613:4628   */\n      add\n        /* \"#utility.yul\":4605:4628   */\n      swap1\n      pop\n        /* \"#utility.yul\":4327:4635   */\n      swap2\n      swap1\n      pop\n      jump\t// out\n        /* \"#utility.yul\":4641:4789   */\n    tag_96:\n        /* \"#utility.yul\":4739:4745   */\n      dup3\n        /* \"#utility.yul\":4734:4737   */\n      dup2\n        /* \"#utility.yul\":4729:4732   */\n      dup4\n        /* \"#utility.yul\":4716:4746   */\n      calldatacopy\n        /* \"#utility.yul\":4780:4781   */\n      0x00\n        /* \"#utility.yul\":4771:4777   */\n      dup4\n        /* \"#utility.yul\":4766:4769   */\n      dup4\n        /* \"#utility.yul\":4762:4778   */\n      add\n        /* \"#utility.yul\":4755:4782   */\n      mstore\n        /* \"#utility.yul\":4641:4789   */\n      pop\n      pop\n      pop\n      jump\t// out\n        /* \"#utility.yul\":4795:5220   */\n    tag_97:\n        /* \"#utility.yul\":4873:4878   */\n      0x00\n        /* \"#utility.yul\":4898:4964   */\n      tag_174\n        /* \"#utility.yul\":4914:4963   */\n      tag_175\n        /* \"#utility.yul\":4956:4962   */\n      dup5\n        /* \"#utility.yul\":4914:4963   */\n      tag_95\n      jump\t// in\n    tag_175:\n        /* \"#utility.yul\":4898:4964   */\n      tag_94\n      jump\t// in\n    tag_174:\n        /* \"#utility.yul\":4889:4964   */\n      swap1\n      pop\n        /* \"#utility.yul\":4987:4993   */\n      dup3\n        /* \"#utility.yul\":4980:4985   */\n      dup2\n        /* \"#utility.yul\":4973:4994   */\n      mstore\n        /* \"#utility.yul\":5025:5029   */\n      0x20\n        /* \"#utility.yul\":5018:5023   */\n      dup2\n        /* \"#utility.yul\":5014:5030   */\n      add\n        /* \"#utility.yul\":5063:5066   */\n      dup5\n        /* \"#utility.yul\":5054:5060   */\n      dup5\n        /* \"#utility.yul\":5049:5052   */\n      dup5\n        /* \"#utility.yul\":5045:5061   */\n      add\n        /* \"#utility.yul\":5042:5067   */\n      gt\n        /* \"#utility.yul\":5039:5151   */\n      iszero\n      tag_176\n      jumpi\n        /* \"#utility.yul\":5070:5149   */\n      tag_177\n      tag_91\n      jump\t// in\n    tag_177:\n        /* \"#utility.yul\":5039:5151   */\n    tag_176:\n        /* \"#utility.yul\":5160:5214   */\n      tag_178\n        /* \"#utility.yul\":5207:5213   */\n      dup5\n        /* \"#utility.yul\":5202:5205   */\n      dup3\n        /* \"#utility.yul\":5197:5200   */\n      dup6\n        /* \"#utility.yul\":5160:5214   */\n      tag_96\n      jump\t// in\n    tag_178:\n        /* \"#utility.yul\":4879:5220   */\n      pop\n        /* \"#utility.yul\":4795:5220   */\n      swap4\n      swap3\n      pop\n      pop\n      pop\n      jump\t// out\n        /* \"#utility.yul\":5240:5580   */\n    tag_98:\n        /* \"#utility.yul\":5296:5301   */\n      0x00\n        /* \"#utility.yul\":5345:5348   */\n      dup3\n        /* \"#utility.yul\":5338:5342   */\n      0x1f\n        /* \"#utility.yul\":5330:5336   */\n      dup4\n        /* \"#utility.yul\":5326:5343   */\n      add\n        /* \"#utility.yul\":5322:5349   */\n      slt\n        /* \"#utility.yul\":5312:5434   */\n      tag_180\n      jumpi\n        /* \"#utility.yul\":5353:5432   */\n      tag_181\n      tag_90\n      jump\t// in\n    tag_181:\n        /* \"#utility.yul\":5312:5434   */\n    tag_180:\n        /* \"#utility.yul\":5470:5476   */\n      dup2\n        /* \"#utility.yul\":5457:5477   */\n      calldataload\n        /* \"#utility.yul\":5495:5574   */\n      tag_182\n        /* \"#utility.yul\":5570:5573   */\n      dup5\n        /* \"#utility.yul\":5562:5568   */\n      dup3\n        /* \"#utility.yul\":5555:5559   */\n      0x20\n        /* \"#utility.yul\":5547:5553   */\n      dup7\n        /* \"#utility.yul\":5543:5560   */\n      add\n        /* \"#utility.yul\":5495:5574   */\n      tag_97\n      jump\t// in\n    tag_182:\n        /* \"#utility.yul\":5486:5574   */\n      swap2\n      pop\n        /* \"#utility.yul\":5302:5580   */\n      pop\n        /* \"#utility.yul\":5240:5580   */\n      swap3\n      swap2\n      pop\n      pop\n      jump\t// out\n        /* \"#utility.yul\":5586:6095   */\n    tag_17:\n        /* \"#utility.yul\":5655:5661   */\n      0x00\n        /* \"#utility.yul\":5704:5706   */\n      0x20\n        /* \"#utility.yul\":5692:5701   */\n      dup3\n        /* \"#utility.yul\":5683:5690   */\n      dup5\n        /* \"#utility.yul\":5679:5702   */\n      sub\n        /* \"#utility.yul\":5675:5707   */\n      slt\n        /* \"#utility.yul\":5672:5791   */\n      iszero\n      tag_184\n      jumpi\n        /* \"#utility.yul\":5710:5789   */\n      tag_185\n      tag_88\n      jump\t// in\n    tag_185:\n        /* \"#utility.yul\":5672:5791   */\n    tag_184:\n        /* \"#utility.yul\":5858:5859   */\n      0x00\n        /* \"#utility.yul\":5847:5856   */\n      dup3\n        /* \"#utility.yul\":5843:5860   */\n      add\n        /* \"#utility.yul\":5830:5861   */\n      calldataload\n        /* \"#utility.yul\":5888:5906   */\n      0xffffffffffffffff\n        /* \"#utility.yul\":5880:5886   */\n      dup2\n        /* \"#utility.yul\":5877:5907   */\n      gt\n        /* \"#utility.yul\":5874:5991   */\n      iszero\n      tag_186\n      jumpi\n        /* \"#utility.yul\":5910:5989   */\n      tag_187\n      tag_89\n      jump\t// in\n    tag_187:\n        /* \"#utility.yul\":5874:5991   */\n    tag_186:\n        /* \"#utility.yul\":6015:6078   */\n      tag_188\n        /* \"#utility.yul\":6070:6077   */\n      dup5\n        /* \"#utility.yul\":6061:6067   */\n      dup3\n        /* \"#utility.yul\":6050:6059   */\n      dup6\n        /* \"#utility.yul\":6046:6068   */\n      add\n        /* \"#utility.yul\":6015:6078   */\n      tag_98\n      jump\t// in\n    tag_188:\n        /* \"#utility.yul\":6005:6078   */\n      swap2\n      pop\n        /* \"#utility.yul\":5801:6088   */\n      pop\n        /* \"#utility.yul\":5586:6095   */\n      swap3\n      swap2\n      pop\n      pop\n      jump\t// out\n        /* \"#utility.yul\":6101:6191   */\n    tag_99:\n        /* \"#utility.yul\":6135:6142   */\n      0x00\n        /* \"#utility.yul\":6178:6183   */\n      dup2\n        /* \"#utility.yul\":6171:6184   */\n      iszero\n        /* \"#utility.yul\":6164:6185   */\n      iszero\n        /* \"#utility.yul\":6153:6185   */\n      swap1\n      pop\n        /* \"#utility.yul\":6101:6191   */\n      swap2\n      swap1\n      pop\n      jump\t// out\n        /* \"#utility.yul\":6197:6306   */\n    tag_100:\n        /* \"#utility.yul\":6278:6299   */\n      tag_191\n        /* \"#utility.yul\":6293:6298   */\n      dup2\n        /* \"#utility.yul\":6278:6299   */\n      tag_99\n      jump\t// in\n    tag_191:\n        /* \"#utility.yul\":6273:6276   */\n      dup3\n        /* \"#utility.yul\":6266:6300   */\n      mstore\n        /* \"#utility.yul\":6197:6306   */\n      pop\n      pop\n      jump\t// out\n        /* \"#utility.yul\":6312:6522   */\n    tag_20:\n        /* \"#utility.yul\":6399:6403   */\n      0x00\n        /* \"#utility.yul\":6437:6439   */\n      0x20\n        /* \"#utility.yul\":6426:6435   */\n      dup3\n        /* \"#utility.yul\":6422:6440   */\n      add\n        /* \"#utility.yul\":6414:6440   */\n      swap1\n      pop\n        /* \"#utility.yul\":6450:6515   */\n      tag_193\n        /* \"#utility.yul\":6512:6513   */\n      0x00\n        /* \"#utility.yul\":6501:6510   */\n      dup4\n        /* \"#utility.yul\":6497:6514   */\n      add\n        /* \"#utility.yul\":6488:6494   */\n      dup5\n        /* \"#utility.yul\":6450:6515   */\n      tag_100\n      jump\t// in\n    tag_193:\n        /* \"#utility.yul\":6312:6522   */\n      swap3\n      swap2\n      pop\n      pop\n      jump\t// out\n        /* \"#utility.yul\":6528:6605   */\n    tag_101:\n        /* \"#utility.yul\":6565:6572   */\n      0x00\n        /* \"#utility.yul\":6594:6599   */\n      dup2\n        /* \"#utility.yul\":6583:6599   */\n      swap1\n      pop\n        /* \"#utility.yul\":6528:6605   */\n      swap2\n      swap1\n      pop\n      jump\t// out\n        /* \"#utility.yul\":6611:6729   */\n    tag_102:\n        /* \"#utility.yul\":6698:6722   */\n      tag_196\n        /* \"#utility.yul\":6716:6721   */\n      dup2\n        /* \"#utility.yul\":6698:6722   */\n      tag_101\n      jump\t// in\n    tag_196:\n        /* \"#utility.yul\":6693:6696   */\n      dup3\n        /* \"#utility.yul\":6686:6723   */\n      mstore\n        /* \"#utility.yul\":6611:6729   */\n      pop\n      pop\n      jump\t// out\n        /* \"#utility.yul\":6735:6957   */\n    tag_25:\n        /* \"#utility.yul\":6828:6832   */\n      0x00\n        /* \"#utility.yul\":6866:6868   */\n      0x20\n        /* \"#utility.yul\":6855:6864   */\n      dup3\n        /* \"#utility.yul\":6851:6869   */\n      add\n        /* \"#utility.yul\":6843:6869   */\n      swap1\n      pop\n        /* \"#utility.yul\":6879:6950   */\n      tag_198\n        /* \"#utility.yul\":6947:6948   */\n      0x00\n        /* \"#utility.yul\":6936:6945   */\n      dup4\n        /* \"#utility.yul\":6932:6949   */\n      add\n        /* \"#utility.yul\":6923:6929   */\n      dup5\n        /* \"#utility.yul\":6879:6950   */\n      tag_102\n      jump\t// in\n    tag_198:\n        /* \"#utility.yul\":6735:6957   */\n      swap3\n      swap2\n      pop\n      pop\n      jump\t// out\n        /* \"#utility.yul\":6963:7085   */\n    tag_103:\n        /* \"#utility.yul\":7036:7060   */\n      tag_200\n        /* \"#utility.yul\":7054:7059   */\n      dup2\n        /* \"#utility.yul\":7036:7060   */\n      tag_101\n      jump\t// in\n    tag_200:\n        /* \"#utility.yul\":7029:7034   */\n      dup2\n        /* \"#utility.yul\":7026:7061   */\n      eq\n        /* \"#utility.yul\":7016:7079   */\n      tag_201\n      jumpi\n        /* \"#utility.yul\":7075:7076   */\n      0x00\n        /* \"#utility.yul\":7072:7073   */\n      0x00\n        /* \"#utility.yul\":7065:7077   */\n      revert\n        /* \"#utility.yul\":7016:7079   */\n    tag_201:\n        /* \"#utility.yul\":6963:7085   */\n      pop\n      jump\t// out\n        /* \"#utility.yul\":7091:7230   */\n    tag_104:\n        /* \"#utility.yul\":7137:7142   */\n      0x00\n        /* \"#utility.yul\":7175:7181   */\n      dup2\n        /* \"#utility.yul\":7162:7182   */\n      calldataload\n        /* \"#utility.yul\":7153:7182   */\n      swap1\n      pop\n        /* \"#utility.yul\":7191:7224   */\n      tag_203\n        /* \"#utility.yul\":7218:7223   */\n      dup2\n        /* \"#utility.yul\":7191:7224   */\n      tag_103\n      jump\t// in\n    tag_203:\n        /* \"#utility.yul\":7091:7230   */\n      swap3\n      swap2\n      pop\n      pop\n      jump\t// out\n        /* \"#utility.yul\":7236:7565   */\n    tag_28:\n        /* \"#utility.yul\":7295:7301   */\n      0x00\n        /* \"#utility.yul\":7344:7346   */\n      0x20\n        /* \"#utility.yul\":7332:7341   */\n      dup3\n        /* \"#utility.yul\":7323:7330   */\n      dup5\n        /* \"#utility.yul\":7319:7342   */\n      sub\n        /* \"#utility.yul\":7315:7347   */\n      slt\n        /* \"#utility.yul\":7312:7431   */\n      iszero\n      tag_205\n      jumpi\n        /* \"#utility.yul\":7350:7429   */\n      tag_206\n      tag_88\n      jump\t// in\n    tag_206:\n        /* \"#utility.yul\":7312:7431   */\n    tag_205:\n        /* \"#utility.yul\":7470:7471   */\n      0x00\n        /* \"#utility.yul\":7495:7548   */\n      tag_207\n        /* \"#utility.yul\":7540:7547   */\n      dup5\n        /* \"#utility.yul\":7531:7537   */\n      dup3\n        /* \"#utility.yul\":7520:7529   */\n      dup6\n        /* \"#utility.yul\":7516:7538   */\n      add\n        /* \"#utility.yul\":7495:7548   */\n      tag_104\n      jump\t// in\n    tag_207:\n        /* \"#utility.yul\":7485:7548   */\n      swap2\n      pop\n        /* \"#utility.yul\":7441:7558   */\n      pop\n        /* \"#utility.yul\":7236:7565   */\n      swap3\n      swap2\n      pop\n      pop\n      jump\t// out\n        /* \"#utility.yul\":7571:7740   */\n    tag_105:\n        /* \"#utility.yul\":7655:7666   */\n      0x00\n        /* \"#utility.yul\":7689:7695   */\n      dup3\n        /* \"#utility.yul\":7684:7687   */\n      dup3\n        /* \"#utility.yul\":7677:7696   */\n      mstore\n        /* \"#utility.yul\":7729:7733   */\n      0x20\n        /* \"#utility.yul\":7724:7727   */\n      dup3\n        /* \"#utility.yul\":7720:7734   */\n      add\n        /* \"#utility.yul\":7705:7734   */\n      swap1\n      pop\n        /* \"#utility.yul\":7571:7740   */\n      swap3\n      swap2\n      pop\n      pop\n      jump\t// out\n        /* \"#utility.yul\":7746:8123   */\n    tag_106:\n        /* \"#utility.yul\":7834:7837   */\n      0x00\n        /* \"#utility.yul\":7862:7901   */\n      tag_210\n        /* \"#utility.yul\":7895:7900   */\n      dup3\n        /* \"#utility.yul\":7862:7901   */\n      tag_79\n      jump\t// in\n    tag_210:\n        /* \"#utility.yul\":7917:7988   */\n      tag_211\n        /* \"#utility.yul\":7981:7987   */\n      dup2\n        /* \"#utility.yul\":7976:7979   */\n      dup6\n        /* \"#utility.yul\":7917:7988   */\n      tag_105\n      jump\t// in\n    tag_211:\n        /* \"#utility.yul\":7910:7988   */\n      swap4\n      pop\n        /* \"#utility.yul\":7997:8062   */\n      tag_212\n        /* \"#utility.yul\":8055:8061   */\n      dup2\n        /* \"#utility.yul\":8050:8053   */\n      dup6\n        /* \"#utility.yul\":8043:8047   */\n      0x20\n        /* \"#utility.yul\":8036:8041   */\n      dup7\n        /* \"#utility.yul\":8032:8048   */\n      add\n        /* \"#utility.yul\":7997:8062   */\n      tag_81\n      jump\t// in\n    tag_212:\n        /* \"#utility.yul\":8087:8116   */\n      tag_213\n        /* \"#utility.yul\":8109:8115   */\n      dup2\n        /* \"#utility.yul\":8087:8116   */\n      tag_82\n      jump\t// in\n    tag_213:\n        /* \"#utility.yul\":8082:8085   */\n      dup5\n        /* \"#utility.yul\":8078:8117   */\n      add\n        /* \"#utility.yul\":8071:8117   */\n      swap2\n      pop\n        /* \"#utility.yul\":7838:8123   */\n      pop\n        /* \"#utility.yul\":7746:8123   */\n      swap3\n      swap2\n      pop\n      pop\n      jump\t// out\n        /* \"#utility.yul\":8129:8442   */\n    tag_31:\n        /* \"#utility.yul\":8242:8246   */\n      0x00\n        /* \"#utility.yul\":8280:8282   */\n      0x20\n        /* \"#utility.yul\":8269:8278   */\n      dup3\n        /* \"#utility.yul\":8265:8283   */\n      add\n        /* \"#utility.yul\":8257:8283   */\n      swap1\n      pop\n        /* \"#utility.yul\":8329:8338   */\n      dup2\n        /* \"#utility.yul\":8323:8327   */\n      dup2\n        /* \"#utility.yul\":8319:8339   */\n      sub\n        /* \"#utility.yul\":8315:8316   */\n      0x00\n        /* \"#utility.yul\":8304:8313   */\n      dup4\n        /* \"#utility.yul\":8300:8317   */\n      add\n        /* \"#utility.yul\":8293:8340   */\n      mstore\n        /* \"#utility.yul\":8357:8435   */\n      tag_215\n        /* \"#utility.yul\":8430:8434   */\n      dup2\n        /* \"#utility.yul\":8421:8427   */\n      dup5\n        /* \"#utility.yul\":8357:8435   */\n      tag_106\n      jump\t// in\n    tag_215:\n        /* \"#utility.yul\":8349:8435   */\n      swap1\n      pop\n        /* \"#utility.yul\":8129:8442   */\n      swap3\n      swap2\n      pop\n      pop\n      jump\t// out\n        /* \"#utility.yul\":8448:8628   */\n    tag_107:\n        /* \"#utility.yul\":8496:8573   */\n      0x4e487b7100000000000000000000000000000000000000000000000000000000\n        /* \"#utility.yul\":8493:8494   */\n      0x00\n        /* \"#utility.yul\":8486:8574   */\n      mstore\n        /* \"#utility.yul\":8593:8597   */\n      0x22\n        /* \"#utility.yul\":8590:8591   */\n      0x04\n        /* \"#utility.yul\":8583:8598   */\n      mstore\n        /* \"#utility.yul\":8617:8621   */\n      0x24\n        /* \"#utility.yul\":8614:8615   */\n      0x00\n        /* \"#utility.yul\":8607:8622   */\n      revert\n        /* \"#utility.yul\":8634:8954   */\n    tag_47:\n        /* \"#utility.yul\":8678:8684   */\n      0x00\n        /* \"#utility.yul\":8715:8716   */\n      0x02\n        /* \"#utility.yul\":8709:8713   */\n      dup3\n        /* \"#utility.yul\":8705:8717   */\n      div\n        /* \"#utility.yul\":8695:8717   */\n      swap1\n      pop\n        /* \"#utility.yul\":8762:8763   */\n      0x01\n        /* \"#utility.yul\":8756:8760   */\n      dup3\n        /* \"#utility.yul\":8752:8764   */\n      and\n        /* \"#utility.yul\":8783:8801   */\n      dup1\n        /* \"#utility.yul\":8773:8854   */\n      tag_218\n      jumpi\n        /* \"#utility.yul\":8839:8843   */\n      0x7f\n        /* \"#utility.yul\":8831:8837   */\n      dup3\n        /* \"#utility.yul\":8827:8844   */\n      and\n        /* \"#utility.yul\":8817:8844   */\n      swap2\n      pop\n        /* \"#utility.yul\":8773:8854   */\n    tag_218:\n        /* \"#utility.yul\":8901:8903   */\n      0x20\n        /* \"#utility.yul\":8893:8899   */\n      dup3\n        /* \"#utility.yul\":8890:8904   */\n      lt\n        /* \"#utility.yul\":8870:8888   */\n      dup2\n        /* \"#utility.yul\":8867:8905   */\n      sub\n        /* \"#utility.yul\":8864:8948   */\n      tag_219\n      jumpi\n        /* \"#utility.yul\":8920:8938   */\n      tag_220\n      tag_107\n      jump\t// in\n    tag_220:\n        /* \"#utility.yul\":8864:8948   */\n    tag_219:\n        /* \"#utility.yul\":8685:8954   */\n      pop\n        /* \"#utility.yul\":8634:8954   */\n      swap2\n      swap1\n      pop\n      jump\t// out\n        /* \"#utility.yul\":8960:9108   */\n    tag_108:\n        /* \"#utility.yul\":9062:9073   */\n      0x00\n        /* \"#utility.yul\":9099:9102   */\n      dup2\n        /* \"#utility.yul\":9084:9102   */\n      swap1\n      pop\n        /* \"#utility.yul\":8960:9108   */\n      swap3\n      swap2\n      pop\n      pop\n      jump\t// out\n        /* \"#utility.yul\":9114:9504   */\n    tag_109:\n        /* \"#utility.yul\":9220:9223   */\n      0x00\n        /* \"#utility.yul\":9248:9287   */\n      tag_223\n        /* \"#utility.yul\":9281:9286   */\n      dup3\n        /* \"#utility.yul\":9248:9287   */\n      tag_79\n      jump\t// in\n    tag_223:\n        /* \"#utility.yul\":9303:9392   */\n      tag_224\n        /* \"#utility.yul\":9385:9391   */\n      dup2\n        /* \"#utility.yul\":9380:9383   */\n      dup6\n        /* \"#utility.yul\":9303:9392   */\n      tag_108\n      jump\t// in\n    tag_224:\n        /* \"#utility.yul\":9296:9392   */\n      swap4\n      pop\n        /* \"#utility.yul\":9401:9466   */\n      tag_225\n        /* \"#utility.yul\":9459:9465   */\n      dup2\n        /* \"#utility.yul\":9454:9457   */\n      dup6\n        /* \"#utility.yul\":9447:9451   */\n      0x20\n        /* \"#utility.yul\":9440:9445   */\n      dup7\n        /* \"#utility.yul\":9436:9452   */\n      add\n        /* \"#utility.yul\":9401:9466   */\n      tag_81\n      jump\t// in\n    tag_225:\n        /* \"#utility.yul\":9491:9497   */\n      dup1\n        /* \"#utility.yul\":9486:9489   */\n      dup5\n        /* \"#utility.yul\":9482:9498   */\n      add\n        /* \"#utility.yul\":9475:9498   */\n      swap2\n      pop\n        /* \"#utility.yul\":9224:9504   */\n      pop\n        /* \"#utility.yul\":9114:9504   */\n      swap3\n      swap2\n      pop\n      pop\n      jump\t// out\n        /* \"#utility.yul\":9510:9785   */\n    tag_54:\n        /* \"#utility.yul\":9642:9645   */\n      0x00\n        /* \"#utility.yul\":9664:9759   */\n      tag_227\n        /* \"#utility.yul\":9755:9758   */\n      dup3\n        /* \"#utility.yul\":9746:9752   */\n      dup5\n        /* \"#utility.yul\":9664:9759   */\n      tag_109\n      jump\t// in\n    tag_227:\n        /* \"#utility.yul\":9657:9759   */\n      swap2\n      pop\n        /* \"#utility.yul\":9776:9779   */\n      dup2\n        /* \"#utility.yul\":9769:9779   */\n      swap1\n      pop\n        /* \"#utility.yul\":9510:9785   */\n      swap3\n      swap2\n      pop\n      pop\n      jump\t// out\n        /* \"#utility.yul\":9791:9932   */\n    tag_110:\n        /* \"#utility.yul\":9840:9844   */\n      0x00\n        /* \"#utility.yul\":9863:9866   */\n      dup2\n        /* \"#utility.yul\":9855:9866   */\n      swap1\n      pop\n        /* \"#utility.yul\":9886:9889   */\n      dup2\n        /* \"#utility.yul\":9883:9884   */\n      0x00\n        /* \"#utility.yul\":9876:9890   */\n      mstore\n        /* \"#utility.yul\":9920:9924   */\n      0x20\n        /* \"#utility.yul\":9917:9918   */\n      0x00\n        /* \"#utility.yul\":9907:9925   */\n      keccak256\n        /* \"#utility.yul\":9899:9925   */\n      swap1\n      pop\n        /* \"#utility.yul\":9791:9932   */\n      swap2\n      swap1\n      pop\n      jump\t// out\n        /* \"#utility.yul\":9938:10031   */\n    tag_111:\n        /* \"#utility.yul\":9975:9981   */\n      0x00\n        /* \"#utility.yul\":10022:10024   */\n      0x20\n        /* \"#utility.yul\":10017:10019   */\n      0x1f\n        /* \"#utility.yul\":10010:10015   */\n      dup4\n        /* \"#utility.yul\":10006:10020   */\n      add\n        /* \"#utility.yul\":10002:10025   */\n      div\n        /* \"#utility.yul\":9992:10025   */\n      swap1\n      pop\n        /* \"#utility.yul\":9938:10031   */\n      swap2\n      swap1\n      pop\n      jump\t// out\n        /* \"#utility.yul\":10037:10144   */\n    tag_112:\n        /* \"#utility.yul\":10081:10089   */\n      0x00\n        /* \"#utility.yul\":10131:10136   */\n      dup3\n        /* \"#utility.yul\":10125:10129   */\n      dup3\n        /* \"#utility.yul\":10121:10137   */\n      shl\n        /* \"#utility.yul\":10100:10137   */\n      swap1\n      pop\n        /* \"#utility.yul\":10037:10144   */\n      swap3\n      swap2\n      pop\n      pop\n      jump\t// out\n        /* \"#utility.yul\":10150:10543   */\n    tag_113:\n        /* \"#utility.yul\":10219:10225   */\n      0x00\n        /* \"#utility.yul\":10269:10270   */\n      0x08\n        /* \"#utility.yul\":10257:10267   */\n      dup4\n        /* \"#utility.yul\":10253:10271   */\n      mul\n        /* \"#utility.yul\":10292:10389   */\n      tag_232\n        /* \"#utility.yul\":10322:10388   */\n      0xffffffffffffffffffffffffffffffffffffffffffffffffffffffffffffffff\n        /* \"#utility.yul\":10311:10320   */\n      dup3\n        /* \"#utility.yul\":10292:10389   */\n      tag_112\n      jump\t// in\n    tag_232:\n        /* \"#utility.yul\":10410:10449   */\n      tag_233\n        /* \"#utility.yul\":10440:10448   */\n      dup7\n        /* \"#utility.yul\":10429:10438   */\n      dup4\n        /* \"#utility.yul\":10410:10449   */\n      tag_112\n      jump\t// in\n    tag_233:\n        /* \"#utility.yul\":10398:10449   */\n      swap6\n      pop\n        /* \"#utility.yul\":10482:10486   */\n      dup1\n        /* \"#utility.yul\":10478:10487   */\n      not\n        /* \"#utility.yul\":10471:10476   */\n      dup5\n        /* \"#utility.yul\":10467:10488   */\n      and\n        /* \"#utility.yul\":10458:10488   */\n      swap4\n      pop\n        /* \"#utility.yul\":10531:10535   */\n      dup1\n        /* \"#utility.yul\":10521:10529   */\n      dup7\n        /* \"#utility.yul\":10517:10536   */\n      and\n        /* \"#utility.yul\":10510:10515   */\n      dup5\n        /* \"#utility.yul\":10507:10537   */\n      or\n        /* \"#utility.yul\":10497:10537   */\n      swap3\n      pop\n        /* \"#utility.yul\":10226:10543   */\n      pop\n      pop\n        /* \"#utility.yul\":10150:10543   */\n      swap4\n      swap3\n      pop\n      pop\n      pop\n      jump\t// out\n        /* \"#utility.yul\":10549:10609   */\n    tag_114:\n        /* \"#utility.yul\":10577:10580   */\n      0x00\n        /* \"#utility.yul\":10598:10603   */\n      dup2\n        /* \"#utility.yul\":10591:10603   */\n      swap1\n      pop\n        /* \"#utility.yul\":10549:10609   */\n      swap2\n      swap1\n      pop\n      jump\t// out\n        /* \"#utility.yul\":10615:10757   */\n    tag_115:\n        /* \"#utility.yul\":10665:10674   */\n      0x00\n        /* \"#utility.yul\":10698:10751   */\n      tag_236\n        /* \"#utility.yul\":10716:10750   */\n      tag_237\n        /* \"#utility.yul\":10725:10749   */\n      tag_238\n        /* \"#utility.yul\":10743:10748   */\n      dup5\n        /* \"#utility.yul\":10725:10749   */\n      tag_101\n      jump\t// in\n    tag_238:\n        /* \"#utility.yul\":10716:10750   */\n      tag_114\n      jump\t// in\n    tag_237:\n        /* \"#utility.yul\":10698:10751   */\n      tag_101\n      jump\t// in\n    tag_236:\n        /* \"#utility.yul\":10685:10751   */\n      swap1\n      pop\n        /* \"#utility.yul\":10615:10757   */\n      swap2\n      swap1\n      pop\n      jump\t// out\n        /* \"#utility.yul\":10763:10838   */\n    tag_116:\n        /* \"#utility.yul\":10806:10809   */\n      0x00\n        /* \"#utility.yul\":10827:10832   */\n      dup2\n        /* \"#utility.yul\":10820:10832   */\n      swap1\n      pop\n        /* \"#utility.yul\":10763:10838   */\n      swap2\n      swap1\n      pop\n      jump\t// out\n        /* \"#utility.yul\":10844:11113   */\n    tag_117:\n        /* \"#utility.yul\":10954:10993   */\n      tag_241\n        /* \"#utility.yul\":10985:10992   */\n      dup4\n        /* \"#utility.yul\":10954:10993   */\n      tag_115\n      jump\t// in\n    tag_241:\n        /* \"#utility.yul\":11015:11106   */\n      tag_242\n        /* \"#utility.yul\":11064:11105   */\n      tag_243\n        /* \"#utility.yul\":11088:11104   */\n      dup3\n        /* \"#utility.yul\":11064:11105   */\n      tag_116\n      jump\t// in\n    tag_243:\n        /* \"#utility.yul\":11056:11062   */\n      dup5\n        /* \"#utility.yul\":11049:11053   */\n      dup5\n        /* \"#utility.yul\":11043:11054   */\n      sload\n        /* \"#utility.yul\":11015:11106   */\n      tag_113\n      jump\t// in\n    tag_242:\n        /* \"#utility.yul\":11009:11013   */\n      dup3\n        /* \"#utility.yul\":11002:11107   */\n      sstore\n        /* \"#utility.yul\":10920:11113   */\n      pop\n        /* \"#utility.yul\":10844:11113   */\n      pop\n      pop\n      pop\n      jump\t// out\n        /* \"#utility.yul\":11119:11192   */\n    tag_118:\n        /* \"#utility.yul\":11164:11167   */\n      0x00\n        /* \"#utility.yul\":11185:11186   */\n      0x00\n        /* \"#utility.yul\":11178:11186   */\n      swap1\n      pop\n        /* \"#utility.yul\":11119:11192   */\n      swap1\n      jump\t// out\n        /* \"#utility.yul\":11198:11387   */\n    tag_119:\n        /* \"#utility.yul\":11275:11307   */\n      tag_246\n      tag_118\n      jump\t// in\n    tag_246:\n        /* \"#utility.yul\":11316:11381   */\n      tag_247\n        /* \"#utility.yul\":11374:11380   */\n      dup2\n        /* \"#utility.yul\":11366:11372   */\n      dup5\n        /* \"#utility.yul\":11360:11364   */\n      dup5\n        /* \"#utility.yul\":11316:11381   */\n      tag_117\n      jump\t// in\n    tag_247:\n        /* \"#utility.yul\":11251:11387   */\n      pop\n        /* \"#utility.yul\":11198:11387   */\n      pop\n      pop\n      jump\t// out\n        /* \"#utility.yul\":11393:11579   */\n    tag_120:\n        /* \"#utility.yul\":11453:11573   */\n    tag_249:\n        /* \"#utility.yul\":11470:11473   */\n      dup2\n        /* \"#utility.yul\":11463:11468   */\n      dup2\n        /* \"#utility.yul\":11460:11474   */\n      lt\n        /* \"#utility.yul\":11453:11573   */\n      iszero\n      tag_251\n      jumpi\n        /* \"#utility.yul\":11524:11563   */\n      tag_252\n        /* \"#utility.yul\":11561:11562   */\n      0x00\n        /* \"#utility.yul\":11554:11559   */\n      dup3\n        /* \"#utility.yul\":11524:11563   */\n      tag_119\n      jump\t// in\n    tag_252:\n        /* \"#utility.yul\":11497:11498   */\n      0x01\n        /* \"#utility.yul\":11490:11495   */\n      dup2\n        /* \"#utility.yul\":11486:11499   */\n      add\n        /* \"#utility.yul\":11477:11499   */\n      swap1\n      pop\n        /* \"#utility.yul\":11453:11573   */\n      jump(tag_249)\n    tag_251:\n        /* \"#utility.yul\":11393:11579   */\n      pop\n      pop\n      jump\t// out\n        /* \"#utility.yul\":11585:12128   */\n    tag_121:\n        /* \"#utility.yul\":11686:11688   */\n      0x1f\n        /* \"#utility.yul\":11681:11684   */\n      dup3\n        /* \"#utility.yul\":11678:11689   */\n      gt\n        /* \"#utility.yul\":11675:12121   */\n      iszero\n      tag_254\n      jumpi\n        /* \"#utility.yul\":11720:11758   */\n      tag_255\n        /* \"#utility.yul\":11752:11757   */\n      dup2\n        /* \"#utility.yul\":11720:11758   */\n      tag_110\n      jump\t// in\n    tag_255:\n        /* \"#utility.yul\":11804:11833   */\n      tag_256\n        /* \"#utility.yul\":11822:11832   */\n      dup5\n        /* \"#utility.yul\":11804:11833   */\n      tag_111\n      jump\t// in\n    tag_256:\n        /* \"#utility.yul\":11794:11802   */\n      dup2\n        /* \"#utility.yul\":11790:11834   */\n      add\n        /* \"#utility.yul\":11987:11989   */\n      0x20\n        /* \"#utility.yul\":11975:11985   */\n      dup6\n        /* \"#utility.yul\":11972:11990   */\n      lt\n        /* \"#utility.yul\":11969:12018   */\n      iszero\n      tag_257\n      jumpi\n        /* \"#utility.yul\":12008:12016   */\n      dup2\n        /* \"#utility.yul\":11993:12016   */\n      swap1\n      pop\n        /* \"#utility.yul\":11969:12018   */\n    tag_257:\n        /* \"#utility.yul\":12031:12111   */\n      tag_258\n        /* \"#utility.yul\":12087:12109   */\n      tag_259\n        /* \"#utility.yul\":12105:12108   */\n      dup6\n        /* \"#utility.yul\":12087:12109   */\n      tag_111\n      jump\t// in\n    tag_259:\n        /* \"#utility.yul\":12077:12085   */\n      dup4\n        /* \"#utility.yul\":12073:12110   */\n      add\n        /* \"#utility.yul\":12060:12071   */\n      dup3\n        /* \"#utility.yul\":12031:12111   */\n      tag_120\n      jump\t// in\n    tag_258:\n        /* \"#utility.yul\":11690:12121   */\n      pop\n      pop\n        /* \"#utility.yul\":11675:12121   */\n    tag_254:\n        /* \"#utility.yul\":11585:12128   */\n      pop\n      pop\n      pop\n      jump\t// out\n        /* \"#utility.yul\":12134:12251   */\n    tag_122:\n        /* \"#utility.yul\":12188:12196   */\n      0x00\n        /* \"#utility.yul\":12238:12243   */\n      dup3\n        /* \"#utility.yul\":12232:12236   */\n      dup3\n        /* \"#utility.yul\":12228:12244   */\n      shr\n        /* \"#utility.yul\":12207:12244   */\n      swap1\n      pop\n        /* \"#utility.yul\":12134:12251   */\n      swap3\n      swap2\n      pop\n      pop\n      jump\t// out\n        /* \"#utility.yul\":12257:12426   */\n    tag_123:\n        /* \"#utility.yul\":12301:12307   */\n      0x00\n        /* \"#utility.yul\":12334:12385   */\n      tag_262\n        /* \"#utility.yul\":12382:12383   */\n      0x00\n        /* \"#utility.yul\":12378:12384   */\n      not\n        /* \"#utility.yul\":12370:12375   */\n      dup5\n        /* \"#utility.yul\":12367:12368   */\n      0x08\n        /* \"#utility.yul\":12363:12376   */\n      mul\n        /* \"#utility.yul\":12334:12385   */\n      tag_122\n      jump\t// in\n    tag_262:\n        /* \"#utility.yul\":12330:12386   */\n      not\n        /* \"#utility.yul\":12415:12419   */\n      dup1\n        /* \"#utility.yul\":12409:12413   */\n      dup4\n        /* \"#utility.yul\":12405:12420   */\n      and\n        /* \"#utility.yul\":12395:12420   */\n      swap2\n      pop\n        /* \"#utility.yul\":12308:12426   */\n      pop\n        /* \"#utility.yul\":12257:12426   */\n      swap3\n      swap2\n      pop\n      pop\n      jump\t// out\n        /* \"#utility.yul\":12431:12726   */\n    tag_124:\n        /* \"#utility.yul\":12507:12511   */\n      0x00\n        /* \"#utility.yul\":12653:12682   */\n      tag_264\n        /* \"#utility.yul\":12678:12681   */\n      dup4\n        /* \"#utility.yul\":12672:12676   */\n      dup4\n        /* \"#utility.yul\":12653:12682   */\n      tag_123\n      jump\t// in\n    tag_264:\n        /* \"#utility.yul\":12645:12682   */\n      swap2\n      pop\n        /* \"#utility.yul\":12715:12718   */\n      dup3\n        /* \"#utility.yul\":12712:12713   */\n      0x02\n        /* \"#utility.yul\":12708:12719   */\n      mul\n        /* \"#utility.yul\":12702:12706   */\n      dup3\n        /* \"#utility.yul\":12699:12720   */\n      or\n        /* \"#utility.yul\":12691:12720   */\n      swap1\n      pop\n        /* \"#utility.yul\":12431:12726   */\n      swap3\n      swap2\n      pop\n      pop\n      jump\t// out\n        /* \"#utility.yul\":12731:14126   */\n    tag_65:\n        /* \"#utility.yul\":12848:12885   */\n      tag_266\n        /* \"#utility.yul\":12881:12884   */\n      dup3\n        /* \"#utility.yul\":12848:12885   */\n      tag_79\n      jump\t// in\n    tag_266:\n        /* \"#utility.yul\":12950:12968   */\n      0xffffffffffffffff\n        /* \"#utility.yul\":12942:12948   */\n      dup2\n        /* \"#utility.yul\":12939:12969   */\n      gt\n        /* \"#utility.yul\":12936:12992   */\n      iszero\n      tag_267\n      jumpi\n        /* \"#utility.yul\":12972:12990   */\n      tag_268\n      tag_92\n      jump\t// in\n    tag_268:\n        /* \"#utility.yul\":12936:12992   */\n    tag_267:\n        /* \"#utility.yul\":13016:13054   */\n      tag_269\n        /* \"#utility.yul\":13048:13052   */\n      dup3\n        /* \"#utility.yul\":13042:13053   */\n      sload\n        /* \"#utility.yul\":13016:13054   */\n      tag_47\n      jump\t// in\n    tag_269:\n        /* \"#utility.yul\":13101:13168   */\n      tag_270\n        /* \"#utility.yul\":13161:13167   */\n      dup3\n        /* \"#utility.yul\":13153:13159   */\n      dup3\n        /* \"#utility.yul\":13147:13151   */\n      dup6\n        /* \"#utility.yul\":13101:13168   */\n      tag_121\n      jump\t// in\n    tag_270:\n        /* \"#utility.yul\":13195:13196   */\n      0x00\n        /* \"#utility.yul\":13219:13223   */\n      0x20\n        /* \"#utility.yul\":13206:13223   */\n      swap1\n      pop\n        /* \"#utility.yul\":13251:13253   */\n      0x1f\n        /* \"#utility.yul\":13243:13249   */\n      dup4\n        /* \"#utility.yul\":13240:13254   */\n      gt\n        /* \"#utility.yul\":13268:13269   */\n      0x01\n        /* \"#utility.yul\":13263:13881   */\n      dup2\n      eq\n      tag_272\n      jumpi\n        /* \"#utility.yul\":13925:13926   */\n      0x00\n        /* \"#utility.yul\":13942:13948   */\n      dup5\n        /* \"#utility.yul\":13939:14016   */\n      iszero\n      tag_273\n      jumpi\n        /* \"#utility.yul\":13991:14000   */\n      dup3\n        /* \"#utility.yul\":13986:13989   */\n      dup8\n        /* \"#utility.yul\":13982:14001   */\n      add\n        /* \"#utility.yul\":13976:14002   */\n      mload\n        /* \"#utility.yul\":13967:14002   */\n      swap1\n      pop\n        /* \"#utility.yul\":13939:14016   */\n    tag_273:\n        /* \"#utility.yul\":14042:14109   */\n      tag_274\n        /* \"#utility.yul\":14102:14108   */\n      dup6\n        /* \"#utility.yul\":14095:14100   */\n      dup3\n        /* \"#utility.yul\":14042:14109   */\n      tag_124\n      jump\t// in\n    tag_274:\n        /* \"#utility.yul\":14036:14040   */\n      dup7\n        /* \"#utility.yul\":14029:14110   */\n      sstore\n        /* \"#utility.yul\":13898:14120   */\n      pop\n        /* \"#utility.yul\":13233:14120   */\n      jump(tag_271)\n        /* \"#utility.yul\":13263:13881   */\n    tag_272:\n        /* \"#utility.yul\":13315:13319   */\n      0x1f\n        /* \"#utility.yul\":13311:13320   */\n      not\n        /* \"#utility.yul\":13303:13309   */\n      dup5\n        /* \"#utility.yul\":13299:13321   */\n      and\n        /* \"#utility.yul\":13349:13386   */\n      tag_275\n        /* \"#utility.yul\":13381:13385   */\n      dup7\n        /* \"#utility.yul\":13349:13386   */\n      tag_110\n      jump\t// in\n    tag_275:\n        /* \"#utility.yul\":13408:13409   */\n      0x00\n        /* \"#utility.yul\":13422:13630   */\n    tag_276:\n        /* \"#utility.yul\":13436:13443   */\n      dup3\n        /* \"#utility.yul\":13433:13434   */\n      dup2\n        /* \"#utility.yul\":13430:13444   */\n      lt\n        /* \"#utility.yul\":13422:13630   */\n      iszero\n      tag_278\n      jumpi\n        /* \"#utility.yul\":13515:13524   */\n      dup5\n        /* \"#utility.yul\":13510:13513   */\n      dup10\n        /* \"#utility.yul\":13506:13525   */\n      add\n        /* \"#utility.yul\":13500:13526   */\n      mload\n        /* \"#utility.yul\":13492:13498   */\n      dup3\n        /* \"#utility.yul\":13485:13527   */\n      sstore\n        /* \"#utility.yul\":13566:13567   */\n      0x01\n        /* \"#utility.yul\":13558:13564   */\n      dup3\n        /* \"#utility.yul\":13554:13568   */\n      add\n        /* \"#utility.yul\":13544:13568   */\n      swap2\n      pop\n        /* \"#utility.yul\":13613:13615   */\n      0x20\n        /* \"#utility.yul\":13602:13611   */\n      dup6\n        /* \"#utility.yul\":13598:13616   */\n      add\n        /* \"#utility.yul\":13585:13616   */\n      swap5\n      pop\n        /* \"#utility.yul\":13459:13463   */\n      0x20\n        /* \"#utility.yul\":13456:13457   */\n      dup2\n        /* \"#utility.yul\":13452:13464   */\n      add\n        /* \"#utility.yul\":13447:13464   */\n      swap1\n      pop\n        /* \"#utility.yul\":13422:13630   */\n      jump(tag_276)\n    tag_278:\n        /* \"#utility.yul\":13658:13664   */\n      dup7\n        /* \"#utility.yul\":13649:13656   */\n      dup4\n        /* \"#utility.yul\":13646:13665   */\n      lt\n        /* \"#utility.yul\":13643:13822   */\n      iszero\n      tag_279\n      jumpi\n        /* \"#utility.yul\":13716:13725   */\n      dup5\n        /* \"#utility.yul\":13711:13714   */\n      dup10\n        /* \"#utility.yul\":13707:13726   */\n      add\n        /* \"#utility.yul\":13701:13727   */\n      mload\n        /* \"#utility.yul\":13759:13807   */\n      tag_280\n        /* \"#utility.yul\":13801:13805   */\n      0x1f\n        /* \"#utility.yul\":13793:13799   */\n      dup10\n        /* \"#utility.yul\":13789:13806   */\n      and\n        /* \"#utility.yul\":13778:13787   */\n      dup3\n        /* \"#utility.yul\":13759:13807   */\n      tag_123\n      jump\t// in\n    tag_280:\n        /* \"#utility.yul\":13751:13757   */\n      dup4\n        /* \"#utility.yul\":13744:13808   */\n      sstore\n        /* \"#utility.yul\":13666:13822   */\n      pop\n        /* \"#utility.yul\":13643:13822   */\n    tag_279:\n        /* \"#utility.yul\":13868:13869   */\n      0x01\n        /* \"#utility.yul\":13864:13865   */\n      0x02\n        /* \"#utility.yul\":13856:13862   */\n      dup9\n        /* \"#utility.yul\":13852:13866   */\n      mul\n        /* \"#utility.yul\":13848:13870   */\n      add\n        /* \"#utility.yul\":13842:13846   */\n      dup9\n        /* \"#utility.yul\":13835:13871   */\n      sstore\n        /* \"#utility.yul\":13270:13881   */\n      pop\n      pop\n      pop\n        /* \"#utility.yul\":13233:14120   */\n    tag_271:\n      pop\n        /* \"#utility.yul\":12823:14126   */\n      pop\n      pop\n      pop\n        /* \"#utility.yul\":12731:14126   */\n      pop\n      pop\n      jump\t// out\n        /* \"#utility.yul\":14132:14306   */\n    tag_125:\n        /* \"#utility.yul\":14272:14298   */\n      0x43616e64696461746520646f6573206e6f742065786973740000000000000000\n        /* \"#utility.yul\":14268:14269   */\n      0x00\n        /* \"#utility.yul\":14260:14266   */\n      dup3\n        /* \"#utility.yul\":14256:14270   */\n      add\n        /* \"#utility.yul\":14249:14299   */\n      mstore\n        /* \"#utility.yul\":14132:14306   */\n      pop\n      jump\t// out\n        /* \"#utility.yul\":14312:14678   */\n    tag_126:\n        /* \"#utility.yul\":14454:14457   */\n      0x00\n        /* \"#utility.yul\":14475:14542   */\n      tag_283\n        /* \"#utility.yul\":14539:14541   */\n      0x18\n        /* \"#utility.yul\":14534:14537   */\n      dup4\n        /* \"#utility.yul\":14475:14542   */\n      tag_105\n      jump\t// in\n    tag_283:\n        /* \"#utility.yul\":14468:14542   */\n      swap2\n      pop\n        /* \"#utility.yul\":14551:14644   */\n      tag_284\n        /* \"#utility.yul\":14640:14643   */\n      dup3\n        /* \"#utility.yul\":14551:14644   */\n      tag_125\n      jump\t// in\n    tag_284:\n        /* \"#utility.yul\":14669:14671   */\n      0x20\n        /* \"#utility.yul\":14664:14667   */\n      dup3\n        /* \"#utility.yul\":14660:14672   */\n      add\n        /* \"#utility.yul\":14653:14672   */\n      swap1\n      pop\n        /* \"#utility.yul\":14312:14678   */\n      swap2\n      swap1\n      pop\n      jump\t// out\n        /* \"#utility.yul\":14684:15103   */\n    tag_72:\n        /* \"#utility.yul\":14850:14854   */\n      0x00\n        /* \"#utility.yul\":14888:14890   */\n      0x20\n        /* \"#utility.yul\":14877:14886   */\n      dup3\n        /* \"#utility.yul\":14873:14891   */\n      add\n        /* \"#utility.yul\":14865:14891   */\n      swap1\n      pop\n        /* \"#utility.yul\":14937:14946   */\n      dup2\n        /* \"#utility.yul\":14931:14935   */\n      dup2\n        /* \"#utility.yul\":14927:14947   */\n      sub\n        /* \"#utility.yul\":14923:14924   */\n      0x00\n        /* \"#utility.yul\":14912:14921   */\n      dup4\n        /* \"#utility.yul\":14908:14925   */\n      add\n        /* \"#utility.yul\":14901:14948   */\n      mstore\n        /* \"#utility.yul\":14965:15096   */\n      tag_286\n        /* \"#utility.yul\":15091:15095   */\n      dup2\n        /* \"#utility.yul\":14965:15096   */\n      tag_126\n      jump\t// in\n    tag_286:\n        /* \"#utility.yul\":14957:15096   */\n      swap1\n      pop\n        /* \"#utility.yul\":14684:15103   */\n      swap2\n      swap1\n      pop\n      jump\t// out\n        /* \"#utility.yul\":15109:15289   */\n    tag_127:\n        /* \"#utility.yul\":15157:15234   */\n      0x4e487b7100000000000000000000000000000000000000000000000000000000\n        /* \"#utility.yul\":15154:15155   */\n      0x00\n        /* \"#utility.yul\":15147:15235   */\n      mstore\n        /* \"#utility.yul\":15254:15258   */\n      0x11\n        /* \"#utility.yul\":15251:15252   */\n      0x04\n        /* \"#utility.yul\":15244:15259   */\n      mstore\n        /* \"#utility.yul\":15278:15282   */\n      0x24\n        /* \"#utility.yul\":15275:15276   */\n      0x00\n        /* \"#utility.yul\":15268:15283   */\n      revert\n        /* \"#utility.yul\":15295:15486   */\n    tag_75:\n        /* \"#utility.yul\":15335:15338   */\n      0x00\n        /* \"#utility.yul\":15354:15374   */\n      tag_289\n        /* \"#utility.yul\":15372:15373   */\n      dup3\n        /* \"#utility.yul\":15354:15374   */\n      tag_101\n      jump\t// in\n    tag_289:\n        /* \"#utility.yul\":15349:15374   */\n      swap2\n      pop\n        /* \"#utility.yul\":15388:15408   */\n      tag_290\n        /* \"#utility.yul\":15406:15407   */\n      dup4\n        /* \"#utility.yul\":15388:15408   */\n      tag_101\n      jump\t// in\n    tag_290:\n        /* \"#utility.yul\":15383:15408   */\n      swap3\n      pop\n        /* \"#utility.yul\":15431:15432   */\n      dup3\n        /* \"#utility.yul\":15428:15429   */\n      dup3\n        /* \"#utility.yul\":15424:15433   */\n      add\n        /* \"#utility.yul\":15417:15433   */\n      swap1\n      pop\n        /* \"#utility.yul\":15452:15455   */\n      dup1\n        /* \"#utility.yul\":15449:15450   */\n      dup3\n        /* \"#utility.yul\":15446:15456   */\n      gt\n        /* \"#utility.yul\":15443:15479   */\n      iszero\n      tag_291\n      jumpi\n        /* \"#utility.yul\":15459:15477   */\n      tag_292\n      tag_127\n      jump\t// in\n    tag_292:\n        /* \"#utility.yul\":15443:15479   */\n    tag_291:\n        /* \"#utility.yul\":15295:15486   */\n      swap3\n      swap2\n      pop\n      pop\n      jump\t// out\n\n    auxdata: 0xa2646970667358221220291c296db4f328052d0297a3bac29e8f74f76501457fb4c72c87944bda25f26664736f6c634300081e0033\n}\n",
				"bytecode": {
					"linkReferences": {},
					"object": "6080604052348015600e575f5ffd5b50610cce8061001c5f395ff3fe608060405234801561000f575f5ffd5b506004361061007b575f3560e01c80638287e42f116100595780638287e42f146100fd578063b13593cb1461012d578063ba7f755214610149578063fc36e15b146101795761007b565b806327a7c5d01461007f57806351599b151461009d578063793773e4146100cd575b5f5ffd5b610087610195565b60405161009491906105ef565b60405180910390f35b6100b760048036038101906100b2919061074c565b610268565b6040516100c491906107ad565b60405180910390f35b6100e760048036038101906100e2919061074c565b61029d565b6040516100f491906107de565b60405180910390f35b61011760048036038101906101129190610821565b6102c4565b6040516101249190610894565b60405180910390f35b6101476004803603810190610142919061074c565b610369565b005b610163600480360381019061015e919061074c565b6103f6565b60405161017091906107de565b60405180910390f35b610193600480360381019061018e919061074c565b610423565b005b60605f805480602002602001604051908101604052809291908181526020015f905b8282101561025f578382905f5260205f200180546101d4906108e1565b80601f0160208091040260200160405190810160405280929190818152602001828054610200906108e1565b801561024b5780601f106102225761010080835404028352916020019161024b565b820191905f5260205f20905b81548152906001019060200180831161022e57829003601f168201915b5050505050815260200190600101906101b7565b50505050905090565b6002818051602081018201805184825260208301602085012081835280955050505050505f915054906101000a900460ff1681565b5f6001826040516102ae919061094b565b9081526020016040518091039020549050919050565b5f81815481106102d2575f80fd5b905f5260205f20015f9150905080546102ea906108e1565b80601f0160208091040260200160405190810160405280929190818152602001828054610316906108e1565b80156103615780601f1061033857610100808354040283529160200191610361565b820191905f5260205f20905b81548152906001019060200180831161034457829003601f168201915b505050505081565b5f81908060018154018082558091505060019003905f5260205f20015f9091909190915090816103999190610b01565b5060016002826040516103ac919061094b565b90815260200160405180910390205f6101000a81548160ff0219169083151502179055505f6001826040516103e1919061094b565b90815260200160405180910390208190555050565b6001818051602081018201805184825260208301602085012081835280955050505050505f915090505481565b600281604051610433919061094b565b90815260200160405180910390205f9054906101000a900460ff1661048d576040517f08c379a000000000000000000000000000000000000000000000000000000000815260040161048490610c1a565b60405180910390fd5b6001808260405161049e919061094b565b90815260200160405180910390205f8282546104ba9190610c65565b9250508190555050565b5f81519050919050565b5f82825260208201905092915050565b5f819050602082019050919050565b5f81519050919050565b5f82825260208201905092915050565b8281835e5f83830152505050565b5f601f19601f8301169050919050565b5f61052f826104ed565b61053981856104f7565b9350610549818560208601610507565b61055281610515565b840191505092915050565b5f6105688383610525565b905092915050565b5f602082019050919050565b5f610586826104c4565b61059081856104ce565b9350836020820285016105a2856104de565b805f5b858110156105dd57848403895281516105be858261055d565b94506105c983610570565b925060208a019950506001810190506105a5565b50829750879550505050505092915050565b5f6020820190508181035f830152610607818461057c565b905092915050565b5f604051905090565b5f5ffd5b5f5ffd5b5f5ffd5b5f5ffd5b7f4e487b71000000000000000000000000000000000000000000000000000000005f52604160045260245ffd5b61065e82610515565b810181811067ffffffffffffffff8211171561067d5761067c610628565b5b80604052505050565b5f61068f61060f565b905061069b8282610655565b919050565b5f67ffffffffffffffff8211156106ba576106b9610628565b5b6106c382610515565b9050602081019050919050565b828183375f83830152505050565b5f6106f06106eb846106a0565b610686565b90508281526020810184848401111561070c5761070b610624565b5b6107178482856106d0565b509392505050565b5f82601f83011261073357610732610620565b5b81356107438482602086016106de565b91505092915050565b5f6020828403121561076157610760610618565b5b5f82013567ffffffffffffffff81111561077e5761077d61061c565b5b61078a8482850161071f565b91505092915050565b5f8115159050919050565b6107a781610793565b82525050565b5f6020820190506107c05f83018461079e565b92915050565b5f819050919050565b6107d8816107c6565b82525050565b5f6020820190506107f15f8301846107cf565b92915050565b610800816107c6565b811461080a575f5ffd5b50565b5f8135905061081b816107f7565b92915050565b5f6020828403121561083657610835610618565b5b5f6108438482850161080d565b91505092915050565b5f82825260208201905092915050565b5f610866826104ed565b610870818561084c565b9350610880818560208601610507565b61088981610515565b840191505092915050565b5f6020820190508181035f8301526108ac818461085c565b905092915050565b7f4e487b71000000000000000000000000000000000000000000000000000000005f52602260045260245ffd5b5f60028204905060018216806108f857607f821691505b60208210810361090b5761090a6108b4565b5b50919050565b5f81905092915050565b5f610925826104ed565b61092f8185610911565b935061093f818560208601610507565b80840191505092915050565b5f610956828461091b565b915081905092915050565b5f819050815f5260205f209050919050565b5f6020601f8301049050919050565b5f82821b905092915050565b5f600883026109bd7fffffffffffffffffffffffffffffffffffffffffffffffffffffffffffffffff82610982565b6109c78683610982565b95508019841693508086168417925050509392505050565b5f819050919050565b5f610a026109fd6109f8846107c6565b6109df565b6107c6565b9050919050565b5f819050919050565b610a1b836109e8565b610a2f610a2782610a09565b84845461098e565b825550505050565b5f5f905090565b610a46610a37565b610a51818484610a12565b505050565b5b81811015610a7457610a695f82610a3e565b600181019050610a57565b5050565b601f821115610ab957610a8a81610961565b610a9384610973565b81016020851015610aa2578190505b610ab6610aae85610973565b830182610a56565b50505b505050565b5f82821c905092915050565b5f610ad95f1984600802610abe565b1980831691505092915050565b5f610af18383610aca565b9150826002028217905092915050565b610b0a826104ed565b67ffffffffffffffff811115610b2357610b22610628565b5b610b2d82546108e1565b610b38828285610a78565b5f60209050601f831160018114610b69575f8415610b57578287015190505b610b618582610ae6565b865550610bc8565b601f198416610b7786610961565b5f5b82811015610b9e57848901518255600182019150602085019450602081019050610b79565b86831015610bbb5784890151610bb7601f891682610aca565b8355505b6001600288020188555050505b505050505050565b7f43616e64696461746520646f6573206e6f7420657869737400000000000000005f82015250565b5f610c0460188361084c565b9150610c0f82610bd0565b602082019050919050565b5f6020820190508181035f830152610c3181610bf8565b9050919050565b7f4e487b71000000000000000000000000000000000000000000000000000000005f52601160045260245ffd5b5f610c6f826107c6565b9150610c7a836107c6565b9250828201905080821115610c9257610c91610c38565b5b9291505056fea2646970667358221220291c296db4f328052d0297a3bac29e8f74f76501457fb4c72c87944bda25f26664736f6c634300081e0033",
					"opcodes": "PUSH1 0x80 PUSH1 0x40 MSTORE CALLVALUE DUP1 ISZERO PUSH1 0xE JUMPI PUSH0 PUSH0 REVERT JUMPDEST POP PUSH2 0xCCE DUP1 PUSH2 0x1C PUSH0 CODECOPY PUSH0 RETURN INVALID PUSH1 0x80 PUSH1 0x40 MSTORE CALLVALUE DUP1 ISZERO PUSH2 0xF JUMPI PUSH0 PUSH0 REVERT JUMPDEST POP PUSH1 0x4 CALLDATASIZE LT PUSH2 0x7B JUMPI PUSH0 CALLDATALOAD PUSH1 0xE0 SHR DUP1 PUSH4 0x8287E42F GT PUSH2 0x59 JUMPI DUP1 PUSH4 0x8287E42F EQ PUSH2 0xFD JUMPI DUP1 PUSH4 0xB13593CB EQ PUSH2 0x12D JUMPI DUP1 PUSH4 0xBA7F7552 EQ PUSH2 0x149 JUMPI DUP1 PUSH4 0xFC36E15B EQ PUSH2 0x179 JUMPI PUSH2 0x7B JUMP JUMPDEST DUP1 PUSH4 0x27A7C5D0 EQ PUSH2 0x7F JUMPI DUP1 PUSH4 0x51599B15 EQ PUSH2 0x9D JUMPI DUP1 PUSH4 0x793773E4 EQ PUSH2 0xCD JUMPI JUMPDEST PUSH0 PUSH0 REVERT JUMPDEST PUSH2 0x87 PUSH2 0x195 JUMP JUMPDEST PUSH1 0x40 MLOAD PUSH2 0x94 SWAP2 SWAP1 PUSH2 0x5EF JUMP JUMPDEST PUSH1 0x40 MLOAD DUP1 SWAP2 SUB SWAP1 RETURN JUMPDEST PUSH2 0xB7 PUSH1 0x4 DUP1 CALLDATASIZE SUB DUP2 ADD SWAP1 PUSH2 0xB2 SWAP2 SWAP1 PUSH2 0x74C JUMP JUMPDEST PUSH2 0x268 JUMP JUMPDEST PUSH1 0x40 MLOAD PUSH2 0xC4 SWAP2 SWAP1 PUSH2 0x7AD JUMP JUMPDEST PUSH1 0x40 MLOAD DUP1 SWAP2 SUB SWAP1 RETURN JUMPDEST PUSH2 0xE7 PUSH1 0x4 DUP1 CALLDATASIZE SUB DUP2 ADD SWAP1 PUSH2 0xE2 SWAP2 SWAP1 PUSH2 0x74C JUMP JUMPDEST PUSH2 0x29D JUMP JUMPDEST PUSH1 0x40 MLOAD PUSH2 0xF4 SWAP2 SWAP1 PUSH2 0x7DE JUMP JUMPDEST PUSH1 0x40 MLOAD DUP1 SWAP2 SUB SWAP1 RETURN JUMPDEST PUSH2 0x117 PUSH1 0x4 DUP1 CALLDATASIZE SUB DUP2 ADD SWAP1 PUSH2 0x112 SWAP2 SWAP1 PUSH2 0x821 JUMP JUMPDEST PUSH2 0x2C4 JUMP JUMPDEST PUSH1 0x40 MLOAD PUSH2 0x124 SWAP2 SWAP1 PUSH2 0x894 JUMP JUMPDEST PUSH1 0x40 MLOAD DUP1 SWAP2 SUB SWAP1 RETURN JUMPDEST PUSH2 0x147 PUSH1 0x4 DUP1 CALLDATASIZE SUB DUP2 ADD SWAP1 PUSH2 0x142 SWAP2 SWAP1 PUSH2 0x74C JUMP JUMPDEST PUSH2 0x369 JUMP JUMPDEST STOP JUMPDEST PUSH2 0x163 PUSH1 0x4 DUP1 CALLDATASIZE SUB DUP2 ADD SWAP1 PUSH2 0x15E SWAP2 SWAP1 PUSH2 0x74C JUMP JUMPDEST PUSH2 0x3F6 JUMP JUMPDEST PUSH1 0x40 MLOAD PUSH2 0x170 SWAP2 SWAP1 PUSH2 0x7DE JUMP JUMPDEST PUSH1 0x40 MLOAD DUP1 SWAP2 SUB SWAP1 RETURN JUMPDEST PUSH2 0x193 PUSH1 0x4 DUP1 CALLDATASIZE SUB DUP2 ADD SWAP1 PUSH2 0x18E SWAP2 SWAP1 PUSH2 0x74C JUMP JUMPDEST PUSH2 0x423 JUMP JUMPDEST STOP JUMPDEST PUSH1 0x60 PUSH0 DUP1 SLOAD DUP1 PUSH1 0x20 MUL PUSH1 0x20 ADD PUSH1 0x40 MLOAD SWAP1 DUP2 ADD PUSH1 0x40 MSTORE DUP1 SWAP3 SWAP2 SWAP1 DUP2 DUP2 MSTORE PUSH1 0x20 ADD PUSH0 SWAP1 JUMPDEST DUP3 DUP3 LT ISZERO PUSH2 0x25F JUMPI DUP4 DUP3 SWAP1 PUSH0 MSTORE PUSH1 0x20 PUSH0 KECCAK256 ADD DUP1 SLOAD PUSH2 0x1D4 SWAP1 PUSH2 0x8E1 JUMP JUMPDEST DUP1 PUSH1 0x1F ADD PUSH1 0x20 DUP1 SWAP2 DIV MUL PUSH1 0x20 ADD PUSH1 0x40 MLOAD SWAP1 DUP2 ADD PUSH1 0x40 MSTORE DUP1 SWAP3 SWAP2 SWAP1 DUP2 DUP2 MSTORE PUSH1 0x20 ADD DUP3 DUP1 SLOAD PUSH2 0x200 SWAP1 PUSH2 0x8E1 JUMP JUMPDEST DUP1 ISZERO PUSH2 0x24B JUMPI DUP1 PUSH1 0x1F LT PUSH2 0x222 JUMPI PUSH2 0x100 DUP1 DUP4 SLOAD DIV MUL DUP4 MSTORE SWAP2 PUSH1 0x20 ADD SWAP2 PUSH2 0x24B JUMP JUMPDEST DUP3 ADD SWAP2 SWAP1 PUSH0 MSTORE PUSH1 0x20 PUSH0 KECCAK256 SWAP1 JUMPDEST DUP2 SLOAD DUP2 MSTORE SWAP1 PUSH1 0x1 ADD SWAP1 PUSH1 0x20 ADD DUP1 DUP4 GT PUSH2 0x22E JUMPI DUP3 SWAP1 SUB PUSH1 0x1F AND DUP3 ADD SWAP2 JUMPDEST POP POP POP POP POP DUP2 MSTORE PUSH1 0x20 ADD SWAP1 PUSH1 0x1 ADD SWAP1 PUSH2 0x1B7 JUMP JUMPDEST POP POP POP POP SWAP1 POP SWAP1 JUMP JUMPDEST PUSH1 0x2 DUP2 DUP1 MLOAD PUSH1 0x20 DUP2 ADD DUP3 ADD DUP1 MLOAD DUP5 DUP3 MSTORE PUSH1 0x20 DUP4 ADD PUSH1 0x20 DUP6 ADD KECCAK256 DUP2 DUP4 MSTORE DUP1 SWAP6 POP POP POP POP POP POP PUSH0 SWAP2 POP SLOAD SWAP1 PUSH2 0x100 EXP SWAP1 DIV PUSH1 0xFF AND DUP2 JUMP JUMPDEST PUSH0 PUSH1 0x1 DUP3 PUSH1 0x40 MLOAD PUSH2 0x2AE SWAP2 SWAP1 PUSH2 0x94B JUMP JUMPDEST SWAP1 DUP2 MSTORE PUSH1 0x20 ADD PUSH1 0x40 MLOAD DUP1 SWAP2 SUB SWAP1 KECCAK256 SLOAD SWAP1 POP SWAP2 SWAP1 POP JUMP JUMPDEST PUSH0 DUP2 DUP2 SLOAD DUP2 LT PUSH2 0x2D2 JUMPI PUSH0 DUP1 REVERT JUMPDEST SWAP1 PUSH0 MSTORE PUSH1 0x20 PUSH0 KECCAK256 ADD PUSH0 SWAP2 POP SWAP1 POP DUP1 SLOAD PUSH2 0x2EA SWAP1 PUSH2 0x8E1 JUMP JUMPDEST DUP1 PUSH1 0x1F ADD PUSH1 0x20 DUP1 SWAP2 DIV MUL PUSH1 0x20 ADD PUSH1 0x40 MLOAD SWAP1 DUP2 ADD PUSH1 0x40 MSTORE DUP1 SWAP3 SWAP2 SWAP1 DUP2 DUP2 MSTORE PUSH1 0x20 ADD DUP3 DUP1 SLOAD PUSH2 0x316 SWAP1 PUSH2 0x8E1 JUMP JUMPDEST DUP1 ISZERO PUSH2 0x361 JUMPI DUP1 PUSH1 0x1F LT PUSH2 0x338 JUMPI PUSH2 0x100 DUP1 DUP4 SLOAD DIV MUL DUP4 MSTORE SWAP2 PUSH1 0x20 ADD SWAP2 PUSH2 0x361 JUMP JUMPDEST DUP3 ADD SWAP2 SWAP1 PUSH0 MSTORE PUSH1 0x20 PUSH0 KECCAK256 SWAP1 JUMPDEST DUP2 SLOAD DUP2 MSTORE SWAP1 PUSH1 0x1 ADD SWAP1 PUSH1 0x20 ADD DUP1 DUP4 GT PUSH2 0x344 JUMPI DUP3 SWAP1 SUB PUSH1 0x1F AND DUP3 ADD SWAP2 JUMPDEST POP POP POP POP POP DUP2 JUMP JUMPDEST PUSH0 DUP2 SWAP1 DUP1 PUSH1 0x1 DUP2 SLOAD ADD DUP1 DUP3 SSTORE DUP1 SWAP2 POP POP PUSH1 0x1 SWAP1 SUB SWAP1 PUSH0 MSTORE PUSH1 0x20 PUSH0 KECCAK256 ADD PUSH0 SWAP1 SWAP2 SWAP1 SWAP2 SWAP1 SWAP2 POP SWAP1 DUP2 PUSH2 0x399 SWAP2 SWAP1 PUSH2 0xB01 JUMP JUMPDEST POP PUSH1 0x1 PUSH1 0x2 DUP3 PUSH1 0x40 MLOAD PUSH2 0x3AC SWAP2 SWAP1 PUSH2 0x94B JUMP JUMPDEST SWAP1 DUP2 MSTORE PUSH1 0x20 ADD PUSH1 0x40 MLOAD DUP1 SWAP2 SUB SWAP1 KECCAK256 PUSH0 PUSH2 0x100 EXP DUP2 SLOAD DUP2 PUSH1 0xFF MUL NOT AND SWAP1 DUP4 ISZERO ISZERO MUL OR SWAP1 SSTORE POP PUSH0 PUSH1 0x1 DUP3 PUSH1 0x40 MLOAD PUSH2 0x3E1 SWAP2 SWAP1 PUSH2 0x94B JUMP JUMPDEST SWAP1 DUP2 MSTORE PUSH1 0x20 ADD PUSH1 0x40 MLOAD DUP1 SWAP2 SUB SWAP1 KECCAK256 DUP2 SWAP1 SSTORE POP POP JUMP JUMPDEST PUSH1 0x1 DUP2 DUP1 MLOAD PUSH1 0x20 DUP2 ADD DUP3 ADD DUP1 MLOAD DUP5 DUP3 MSTORE PUSH1 0x20 DUP4 ADD PUSH1 0x20 DUP6 ADD KECCAK256 DUP2 DUP4 MSTORE DUP1 SWAP6 POP POP POP POP POP POP PUSH0 SWAP2 POP SWAP1 POP SLOAD DUP2 JUMP JUMPDEST PUSH1 0x2 DUP2 PUSH1 0x40 MLOAD PUSH2 0x433 SWAP2 SWAP1 PUSH2 0x94B JUMP JUMPDEST SWAP1 DUP2 MSTORE PUSH1 0x20 ADD PUSH1 0x40 MLOAD DUP1 SWAP2 SUB SWAP1 KECCAK256 PUSH0 SWAP1 SLOAD SWAP1 PUSH2 0x100 EXP SWAP1 DIV PUSH1 0xFF AND PUSH2 0x48D JUMPI PUSH1 0x40 MLOAD PUSH32 0x8C379A000000000000000000000000000000000000000000000000000000000 DUP2 MSTORE PUSH1 0x4 ADD PUSH2 0x484 SWAP1 PUSH2 0xC1A JUMP JUMPDEST PUSH1 0x40 MLOAD DUP1 SWAP2 SUB SWAP1 REVERT JUMPDEST PUSH1 0x1 DUP1 DUP3 PUSH1 0x40 MLOAD PUSH2 0x49E SWAP2 SWAP1 PUSH2 0x94B JUMP JUMPDEST SWAP1 DUP2 MSTORE PUSH1 0x20 ADD PUSH1 0x40 MLOAD DUP1 SWAP2 SUB SWAP1 KECCAK256 PUSH0 DUP3 DUP3 SLOAD PUSH2 0x4BA SWAP2 SWAP1 PUSH2 0xC65 JUMP JUMPDEST SWAP3 POP POP DUP2 SWAP1 SSTORE POP POP JUMP JUMPDEST PUSH0 DUP2 MLOAD SWAP1 POP SWAP2 SWAP1 POP JUMP JUMPDEST PUSH0 DUP3 DUP3 MSTORE PUSH1 0x20 DUP3 ADD SWAP1 POP SWAP3 SWAP2 POP POP JUMP JUMPDEST PUSH0 DUP2 SWAP1 POP PUSH1 0x20 DUP3 ADD SWAP1 POP SWAP2 SWAP1 POP JUMP JUMPDEST PUSH0 DUP2 MLOAD SWAP1 POP SWAP2 SWAP1 POP JUMP JUMPDEST PUSH0 DUP3 DUP3 MSTORE PUSH1 0x20 DUP3 ADD SWAP1 POP SWAP3 SWAP2 POP POP JUMP JUMPDEST DUP3 DUP2 DUP4 MCOPY PUSH0 DUP4 DUP4 ADD MSTORE POP POP POP JUMP JUMPDEST PUSH0 PUSH1 0x1F NOT PUSH1 0x1F DUP4 ADD AND SWAP1 POP SWAP2 SWAP1 POP JUMP JUMPDEST PUSH0 PUSH2 0x52F DUP3 PUSH2 0x4ED JUMP JUMPDEST PUSH2 0x539 DUP2 DUP6 PUSH2 0x4F7 JUMP JUMPDEST SWAP4 POP PUSH2 0x549 DUP2 DUP6 PUSH1 0x20 DUP7 ADD PUSH2 0x507 JUMP JUMPDEST PUSH2 0x552 DUP2 PUSH2 0x515 JUMP JUMPDEST DUP5 ADD SWAP2 POP POP SWAP3 SWAP2 POP POP JUMP JUMPDEST PUSH0 PUSH2 0x568 DUP4 DUP4 PUSH2 0x525 JUMP JUMPDEST SWAP1 POP SWAP3 SWAP2 POP POP JUMP JUMPDEST PUSH0 PUSH1 0x20 DUP3 ADD SWAP1 POP SWAP2 SWAP1 POP JUMP JUMPDEST PUSH0 PUSH2 0x586 DUP3 PUSH2 0x4C4 JUMP JUMPDEST PUSH2 0x590 DUP2 DUP6 PUSH2 0x4CE JUMP JUMPDEST SWAP4 POP DUP4 PUSH1 0x20 DUP3 MUL DUP6 ADD PUSH2 0x5A2 DUP6 PUSH2 0x4DE JUMP JUMPDEST DUP1 PUSH0 JUMPDEST DUP6 DUP2 LT ISZERO PUSH2 0x5DD JUMPI DUP5 DUP5 SUB DUP10 MSTORE DUP2 MLOAD PUSH2 0x5BE DUP6 DUP3 PUSH2 0x55D JUMP JUMPDEST SWAP5 POP PUSH2 0x5C9 DUP4 PUSH2 0x570 JUMP JUMPDEST SWAP3 POP PUSH1 0x20 DUP11 ADD SWAP10 POP POP PUSH1 0x1 DUP2 ADD SWAP1 POP PUSH2 0x5A5 JUMP JUMPDEST POP DUP3 SWAP8 POP DUP8 SWAP6 POP POP POP POP POP POP SWAP3 SWAP2 POP POP JUMP JUMPDEST PUSH0 PUSH1 0x20 DUP3 ADD SWAP1 POP DUP2 DUP2 SUB PUSH0 DUP4 ADD MSTORE PUSH2 0x607 DUP2 DUP5 PUSH2 0x57C JUMP JUMPDEST SWAP1 POP SWAP3 SWAP2 POP POP JUMP JUMPDEST PUSH0 PUSH1 0x40 MLOAD SWAP1 POP SWAP1 JUMP JUMPDEST PUSH0 PUSH0 REVERT JUMPDEST PUSH0 PUSH0 REVERT JUMPDEST PUSH0 PUSH0 REVERT JUMPDEST PUSH0 PUSH0 REVERT JUMPDEST PUSH32 0x4E487B7100000000000000000000000000000000000000000000000000000000 PUSH0 MSTORE PUSH1 0x41 PUSH1 0x4 MSTORE PUSH1 0x24 PUSH0 REVERT JUMPDEST PUSH2 0x65E DUP3 PUSH2 0x515 JUMP JUMPDEST DUP2 ADD DUP2 DUP2 LT PUSH8 0xFFFFFFFFFFFFFFFF DUP3 GT OR ISZERO PUSH2 0x67D JUMPI PUSH2 0x67C PUSH2 0x628 JUMP JUMPDEST JUMPDEST DUP1 PUSH1 0x40 MSTORE POP POP POP JUMP JUMPDEST PUSH0 PUSH2 0x68F PUSH2 0x60F JUMP JUMPDEST SWAP1 POP PUSH2 0x69B DUP3 DUP3 PUSH2 0x655 JUMP JUMPDEST SWAP2 SWAP1 POP JUMP JUMPDEST PUSH0 PUSH8 0xFFFFFFFFFFFFFFFF DUP3 GT ISZERO PUSH2 0x6BA JUMPI PUSH2 0x6B9 PUSH2 0x628 JUMP JUMPDEST JUMPDEST PUSH2 0x6C3 DUP3 PUSH2 0x515 JUMP JUMPDEST SWAP1 POP PUSH1 0x20 DUP2 ADD SWAP1 POP SWAP2 SWAP1 POP JUMP JUMPDEST DUP3 DUP2 DUP4 CALLDATACOPY PUSH0 DUP4 DUP4 ADD MSTORE POP POP POP JUMP JUMPDEST PUSH0 PUSH2 0x6F0 PUSH2 0x6EB DUP5 PUSH2 0x6A0 JUMP JUMPDEST PUSH2 0x686 JUMP JUMPDEST SWAP1 POP DUP3 DUP2 MSTORE PUSH1 0x20 DUP2 ADD DUP5 DUP5 DUP5 ADD GT ISZERO PUSH2 0x70C JUMPI PUSH2 0x70B PUSH2 0x624 JUMP JUMPDEST JUMPDEST PUSH2 0x717 DUP5 DUP3 DUP6 PUSH2 0x6D0 JUMP JUMPDEST POP SWAP4 SWAP3 POP POP POP JUMP JUMPDEST PUSH0 DUP3 PUSH1 0x1F DUP4 ADD SLT PUSH2 0x733 JUMPI PUSH2 0x732 PUSH2 0x620 JUMP JUMPDEST JUMPDEST DUP2 CALLDATALOAD PUSH2 0x743 DUP5 DUP3 PUSH1 0x20 DUP7 ADD PUSH2 0x6DE JUMP JUMPDEST SWAP2 POP POP SWAP3 SWAP2 POP POP JUMP JUMPDEST PUSH0 PUSH1 0x20 DUP3 DUP5 SUB SLT ISZERO PUSH2 0x761 JUMPI PUSH2 0x760 PUSH2 0x618 JUMP JUMPDEST JUMPDEST PUSH0 DUP3 ADD CALLDATALOAD PUSH8 0xFFFFFFFFFFFFFFFF DUP2 GT ISZERO PUSH2 0x77E JUMPI PUSH2 0x77D PUSH2 0x61C JUMP JUMPDEST JUMPDEST PUSH2 0x78A DUP5 DUP3 DUP6 ADD PUSH2 0x71F JUMP JUMPDEST SWAP2 POP POP SWAP3 SWAP2 POP POP JUMP JUMPDEST PUSH0 DUP2 ISZERO ISZERO SWAP1 POP SWAP2 SWAP1 POP JUMP JUMPDEST PUSH2 0x7A7 DUP2 PUSH2 0x793 JUMP JUMPDEST DUP3 MSTORE POP POP JUMP JUMPDEST PUSH0 PUSH1 0x20 DUP3 ADD SWAP1 POP PUSH2 0x7C0 PUSH0 DUP4 ADD DUP5 PUSH2 0x79E JUMP JUMPDEST SWAP3 SWAP2 POP POP JUMP JUMPDEST PUSH0 DUP2 SWAP1 POP SWAP2 SWAP1 POP JUMP JUMPDEST PUSH2 0x7D8 DUP2 PUSH2 0x7C6 JUMP JUMPDEST DUP3 MSTORE POP POP JUMP JUMPDEST PUSH0 PUSH1 0x20 DUP3 ADD SWAP1 POP PUSH2 0x7F1 PUSH0 DUP4 ADD DUP5 PUSH2 0x7CF JUMP JUMPDEST SWAP3 SWAP2 POP POP JUMP JUMPDEST PUSH2 0x800 DUP2 PUSH2 0x7C6 JUMP JUMPDEST DUP2 EQ PUSH2 0x80A JUMPI PUSH0 PUSH0 REVERT JUMPDEST POP JUMP JUMPDEST PUSH0 DUP2 CALLDATALOAD SWAP1 POP PUSH2 0x81B DUP2 PUSH2 0x7F7 JUMP JUMPDEST SWAP3 SWAP2 POP POP JUMP JUMPDEST PUSH0 PUSH1 0x20 DUP3 DUP5 SUB SLT ISZERO PUSH2 0x836 JUMPI PUSH2 0x835 PUSH2 0x618 JUMP JUMPDEST JUMPDEST PUSH0 PUSH2 0x843 DUP5 DUP3 DUP6 ADD PUSH2 0x80D JUMP JUMPDEST SWAP2 POP POP SWAP3 SWAP2 POP POP JUMP JUMPDEST PUSH0 DUP3 DUP3 MSTORE PUSH1 0x20 DUP3 ADD SWAP1 POP SWAP3 SWAP2 POP POP JUMP JUMPDEST PUSH0 PUSH2 0x866 DUP3 PUSH2 0x4ED JUMP JUMPDEST PUSH2 0x870 DUP2 DUP6 PUSH2 0x84C JUMP JUMPDEST SWAP4 POP PUSH2 0x880 DUP2 DUP6 PUSH1 0x20 DUP7 ADD PUSH2 0x507 JUMP JUMPDEST PUSH2 0x889 DUP2 PUSH2 0x515 JUMP JUMPDEST DUP5 ADD SWAP2 POP POP SWAP3 SWAP2 POP POP JUMP JUMPDEST PUSH0 PUSH1 0x20 DUP3 ADD SWAP1 POP DUP2 DUP2 SUB PUSH0 DUP4 ADD MSTORE PUSH2 0x8AC DUP2 DUP5 PUSH2 0x85C JUMP JUMPDEST SWAP1 POP SWAP3 SWAP2 POP POP JUMP JUMPDEST PUSH32 0x4E487B7100000000000000000000000000000000000000000000000000000000 PUSH0 MSTORE PUSH1 0x22 PUSH1 0x4 MSTORE PUSH1 0x24 PUSH0 REVERT JUMPDEST PUSH0 PUSH1 0x2 DUP3 DIV SWAP1 POP PUSH1 0x1 DUP3 AND DUP1 PUSH2 0x8F8 JUMPI PUSH1 0x7F DUP3 AND SWAP2 POP JUMPDEST PUSH1 0x20 DUP3 LT DUP2 SUB PUSH2 0x90B JUMPI PUSH2 0x90A PUSH2 0x8B4 JUMP JUMPDEST JUMPDEST POP SWAP2 SWAP1 POP JUMP JUMPDEST PUSH0 DUP2 SWAP1 POP SWAP3 SWAP2 POP POP JUMP JUMPDEST PUSH0 PUSH2 0x925 DUP3 PUSH2 0x4ED JUMP JUMPDEST PUSH2 0x92F DUP2 DUP6 PUSH2 0x911 JUMP JUMPDEST SWAP4 POP PUSH2 0x93F DUP2 DUP6 PUSH1 0x20 DUP7 ADD PUSH2 0x507 JUMP JUMPDEST DUP1 DUP5 ADD SWAP2 POP POP SWAP3 SWAP2 POP POP JUMP JUMPDEST PUSH0 PUSH2 0x956 DUP3 DUP5 PUSH2 0x91B JUMP JUMPDEST SWAP2 POP DUP2 SWAP1 POP SWAP3 SWAP2 POP POP JUMP JUMPDEST PUSH0 DUP2 SWAP1 POP DUP2 PUSH0 MSTORE PUSH1 0x20 PUSH0 KECCAK256 SWAP1 POP SWAP2 SWAP1 POP JUMP JUMPDEST PUSH0 PUSH1 0x20 PUSH1 0x1F DUP4 ADD DIV SWAP1 POP SWAP2 SWAP1 POP JUMP JUMPDEST PUSH0 DUP3 DUP3 SHL SWAP1 POP SWAP3 SWAP2 POP POP JUMP JUMPDEST PUSH0 PUSH1 0x8 DUP4 MUL PUSH2 0x9BD PUSH32 0xFFFFFFFFFFFFFFFFFFFFFFFFFFFFFFFFFFFFFFFFFFFFFFFFFFFFFFFFFFFFFFFF DUP3 PUSH2 0x982 JUMP JUMPDEST PUSH2 0x9C7 DUP7 DUP4 PUSH2 0x982 JUMP JUMPDEST SWAP6 POP DUP1 NOT DUP5 AND SWAP4 POP DUP1 DUP7 AND DUP5 OR SWAP3 POP POP POP SWAP4 SWAP3 POP POP POP JUMP JUMPDEST PUSH0 DUP2 SWAP1 POP SWAP2 SWAP1 POP JUMP JUMPDEST PUSH0 PUSH2 0xA02 PUSH2 0x9FD PUSH2 0x9F8 DUP5 PUSH2 0x7C6 JUMP JUMPDEST PUSH2 0x9DF JUMP JUMPDEST PUSH2 0x7C6 JUMP JUMPDEST SWAP1 POP SWAP2 SWAP1 POP JUMP JUMPDEST PUSH0 DUP2 SWAP1 POP SWAP2 SWAP1 POP JUMP JUMPDEST PUSH2 0xA1B DUP4 PUSH2 0x9E8 JUMP JUMPDEST PUSH2 0xA2F PUSH2 0xA27 DUP3 PUSH2 0xA09 JUMP JUMPDEST DUP5 DUP5 SLOAD PUSH2 0x98E JUMP JUMPDEST DUP3 SSTORE POP POP POP POP JUMP JUMPDEST PUSH0 PUSH0 SWAP1 POP SWAP1 JUMP JUMPDEST PUSH2 0xA46 PUSH2 0xA37 JUMP JUMPDEST PUSH2 0xA51 DUP2 DUP5 DUP5 PUSH2 0xA12 JUMP JUMPDEST POP POP POP JUMP JUMPDEST JUMPDEST DUP2 DUP2 LT ISZERO PUSH2 0xA74 JUMPI PUSH2 0xA69 PUSH0 DUP3 PUSH2 0xA3E JUMP JUMPDEST PUSH1 0x1 DUP2 ADD SWAP1 POP PUSH2 0xA57 JUMP JUMPDEST POP POP JUMP JUMPDEST PUSH1 0x1F DUP3 GT ISZERO PUSH2 0xAB9 JUMPI PUSH2 0xA8A DUP2 PUSH2 0x961 JUMP JUMPDEST PUSH2 0xA93 DUP5 PUSH2 0x973 JUMP JUMPDEST DUP2 ADD PUSH1 0x20 DUP6 LT ISZERO PUSH2 0xAA2 JUMPI DUP2 SWAP1 POP JUMPDEST PUSH2 0xAB6 PUSH2 0xAAE DUP6 PUSH2 0x973 JUMP JUMPDEST DUP4 ADD DUP3 PUSH2 0xA56 JUMP JUMPDEST POP POP JUMPDEST POP POP POP JUMP JUMPDEST PUSH0 DUP3 DUP3 SHR SWAP1 POP SWAP3 SWAP2 POP POP JUMP JUMPDEST PUSH0 PUSH2 0xAD9 PUSH0 NOT DUP5 PUSH1 0x8 MUL PUSH2 0xABE JUMP JUMPDEST NOT DUP1 DUP4 AND SWAP2 POP POP SWAP3 SWAP2 POP POP JUMP JUMPDEST PUSH0 PUSH2 0xAF1 DUP4 DUP4 PUSH2 0xACA JUMP JUMPDEST SWAP2 POP DUP3 PUSH1 0x2 MUL DUP3 OR SWAP1 POP SWAP3 SWAP2 POP POP JUMP JUMPDEST PUSH2 0xB0A DUP3 PUSH2 0x4ED JUMP JUMPDEST PUSH8 0xFFFFFFFFFFFFFFFF DUP2 GT ISZERO PUSH2 0xB23 JUMPI PUSH2 0xB22 PUSH2 0x628 JUMP JUMPDEST JUMPDEST PUSH2 0xB2D DUP3 SLOAD PUSH2 0x8E1 JUMP JUMPDEST PUSH2 0xB38 DUP3 DUP3 DUP6 PUSH2 0xA78 JUMP JUMPDEST PUSH0 PUSH1 0x20 SWAP1 POP PUSH1 0x1F DUP4 GT PUSH1 0x1 DUP2 EQ PUSH2 0xB69 JUMPI PUSH0 DUP5 ISZERO PUSH2 0xB57 JUMPI DUP3 DUP8 ADD MLOAD SWAP1 POP JUMPDEST PUSH2 0xB61 DUP6 DUP3 PUSH2 0xAE6 JUMP JUMPDEST DUP7 SSTORE POP PUSH2 0xBC8 JUMP JUMPDEST PUSH1 0x1F NOT DUP5 AND PUSH2 0xB77 DUP7 PUSH2 0x961 JUMP JUMPDEST PUSH0 JUMPDEST DUP3 DUP2 LT ISZERO PUSH2 0xB9E JUMPI DUP5 DUP10 ADD MLOAD DUP3 SSTORE PUSH1 0x1 DUP3 ADD SWAP2 POP PUSH1 0x20 DUP6 ADD SWAP5 POP PUSH1 0x20 DUP2 ADD SWAP1 POP PUSH2 0xB79 JUMP JUMPDEST DUP7 DUP4 LT ISZERO PUSH2 0xBBB JUMPI DUP5 DUP10 ADD MLOAD PUSH2 0xBB7 PUSH1 0x1F DUP10 AND DUP3 PUSH2 0xACA JUMP JUMPDEST DUP4 SSTORE POP JUMPDEST PUSH1 0x1 PUSH1 0x2 DUP9 MUL ADD DUP9 SSTORE POP POP POP JUMPDEST POP POP POP POP POP POP JUMP JUMPDEST PUSH32 0x43616E64696461746520646F6573206E6F742065786973740000000000000000 PUSH0 DUP3 ADD MSTORE POP JUMP JUMPDEST PUSH0 PUSH2 0xC04 PUSH1 0x18 DUP4 PUSH2 0x84C JUMP JUMPDEST SWAP2 POP PUSH2 0xC0F DUP3 PUSH2 0xBD0 JUMP JUMPDEST PUSH1 0x20 DUP3 ADD SWAP1 POP SWAP2 SWAP1 POP JUMP JUMPDEST PUSH0 PUSH1 0x20 DUP3 ADD SWAP1 POP DUP2 DUP2 SUB PUSH0 DUP4 ADD MSTORE PUSH2 0xC31 DUP2 PUSH2 0xBF8 JUMP JUMPDEST SWAP1 POP SWAP2 SWAP1 POP JUMP JUMPDEST PUSH32 0x4E487B7100000000000000000000000000000000000000000000000000000000 PUSH0 MSTORE PUSH1 0x11 PUSH1 0x4 MSTORE PUSH1 0x24 PUSH0 REVERT JUMPDEST PUSH0 PUSH2 0xC6F DUP3 PUSH2 0x7C6 JUMP JUMPDEST SWAP2 POP PUSH2 0xC7A DUP4 PUSH2 0x7C6 JUMP JUMPDEST SWAP3 POP DUP3 DUP3 ADD SWAP1 POP DUP1 DUP3 GT ISZERO PUSH2 0xC92 JUMPI PUSH2 0xC91 PUSH2 0xC38 JUMP JUMPDEST JUMPDEST SWAP3 SWAP2 POP POP JUMP INVALID LOG2 PUSH5 0x6970667358 0x22 SLT KECCAK256 0x29 SHR 0x29 PUSH14 0xB4F328052D0297A3BAC29E8F74F7 PUSH6 0x1457FB4C72C DUP8 SWAP5 0x4B 0xDA 0x25 CALLCODE PUSH7 0x64736F6C634300 ADDMOD 0x1E STOP CALLER "
				},
				"gasEstimates": {
					"creation": {
						"codeDepositCost": "655600",
						"executionCost": "687",
						"totalCost": "656287"
					},
					"external": {
						"addCandidateNames(string)": "infinite",
						"candidateNames(uint256)": "infinite",
						"getcandidateNames()": "infinite",
						"getvote(string)": "infinite",
						"isCandidate(string)": "infinite",
						"vote(string)": "infinite",
						"voteCount(string)": "infinite"
					}
				},
				"methodIdentifiers": {
					"addCandidateNames(string)": "b13593cb",
					"candidateNames(uint256)": "8287e42f",
					"getcandidateNames()": "27a7c5d0",
					"getvote(string)": "793773e4",
					"isCandidate(string)": "51599b15",
					"vote(string)": "fc36e15b",
					"voteCount(string)": "ba7f7552"
				}
			},
			"storageLayout": {
				"storage": [
					{
						"astId": 4,
						"contract": "submissions/0xFancy/day3.sol:Pollstation",
						"label": "candidateNames",
						"offset": 0,
						"slot": "0",
						"type": "t_array(t_string_storage)dyn_storage"
					},
					{
						"astId": 8,
						"contract": "submissions/0xFancy/day3.sol:Pollstation",
						"label": "voteCount",
						"offset": 0,
						"slot": "1",
						"type": "t_mapping(t_string_memory_ptr,t_uint256)"
					},
					{
						"astId": 12,
						"contract": "submissions/0xFancy/day3.sol:Pollstation",
						"label": "isCandidate",
						"offset": 0,
						"slot": "2",
						"type": "t_mapping(t_string_memory_ptr,t_bool)"
					}
				],
				"types": {
					"t_array(t_string_storage)dyn_storage": {
						"base": "t_string_storage",
						"encoding": "dynamic_array",
						"label": "string[]",
						"numberOfBytes": "32"
					},
					"t_bool": {
						"encoding": "inplace",
						"label": "bool",
						"numberOfBytes": "1"
					},
					"t_mapping(t_string_memory_ptr,t_bool)": {
						"encoding": "mapping",
						"key": "t_string_memory_ptr",
						"label": "mapping(string => bool)",
						"numberOfBytes": "32",
						"value": "t_bool"
					},
					"t_mapping(t_string_memory_ptr,t_uint256)": {
						"encoding": "mapping",
						"key": "t_string_memory_ptr",
						"label": "mapping(string => uint256)",
						"numberOfBytes": "32",
						"value": "t_uint256"
					},
					"t_string_memory_ptr": {
						"encoding": "bytes",
						"label": "string",
						"numberOfBytes": "32"
					},
					"t_string_storage": {
						"encoding": "bytes",
						"label": "string",
						"numberOfBytes": "32"
					},
					"t_uint256": {
						"encoding": "inplace",
						"label": "uint256",
						"numberOfBytes": "32"
					}
				}
			},
			"userdoc": {
				"kind": "user",
				"methods": {},
				"version": 1
			}
		}
	}
}