{
	"submissions/Serena Y/Day15-GasEfficientVoting.sol": {
		"GasEfficientVoting": {
			"abi": [
				{
					"anonymous": false,
					"inputs": [
						{
							"indexed": true,
							"internalType": "address",
							"name": "voter",
							"type": "address"
						},
						{
							"indexed": true,
							"internalType": "uint8",
							"name": "proposalId",
							"type": "uint8"
						}
					],
					"name": "Voted",
					"type": "event"
				},
				{
					"anonymous": false,
					"inputs": [
						{
							"indexed": true,
							"internalType": "uint8",
							"name": "proposalId",
							"type": "uint8"
						},
						{
							"indexed": true,
							"internalType": "bytes32",
							"name": "name",
							"type": "bytes32"
						}
					],
					"name": "proposalCreated",
					"type": "event"
				},
				{
					"anonymous": false,
					"inputs": [
						{
							"indexed": true,
							"internalType": "uint8",
							"name": "proposalId",
							"type": "uint8"
						}
					],
					"name": "proposalExecuted",
					"type": "event"
				},
				{
					"inputs": [
						{
							"internalType": "bytes32",
							"name": "name",
							"type": "bytes32"
						},
						{
							"internalType": "uint32",
							"name": "duration",
							"type": "uint32"
						}
					],
					"name": "creatProposal",
					"outputs": [],
					"stateMutability": "nonpayable",
					"type": "function"
				},
				{
					"inputs": [
						{
							"internalType": "uint8",
							"name": "proposalId",
							"type": "uint8"
						}
					],
					"name": "executedPropsal",
					"outputs": [],
					"stateMutability": "nonpayable",
					"type": "function"
				},
				{
					"inputs": [],
					"name": "proposalCount",
					"outputs": [
						{
							"internalType": "uint8",
							"name": "",
							"type": "uint8"
						}
					],
					"stateMutability": "view",
					"type": "function"
				},
				{
					"inputs": [
						{
							"internalType": "uint8",
							"name": "",
							"type": "uint8"
						}
					],
					"name": "proposalVoterCount",
					"outputs": [
						{
							"internalType": "uint32",
							"name": "",
							"type": "uint32"
						}
					],
					"stateMutability": "view",
					"type": "function"
				},
				{
					"inputs": [
						{
							"internalType": "uint8",
							"name": "",
							"type": "uint8"
						}
					],
					"name": "proposals",
					"outputs": [
						{
							"internalType": "bytes32",
							"name": "name",
							"type": "bytes32"
						},
						{
							"internalType": "uint32",
							"name": "voteCount",
							"type": "uint32"
						},
						{
							"internalType": "uint32",
							"name": "startTime",
							"type": "uint32"
						},
						{
							"internalType": "uint32",
							"name": "endTime",
							"type": "uint32"
						},
						{
							"internalType": "bool",
							"name": "executed",
							"type": "bool"
						}
					],
					"stateMutability": "view",
					"type": "function"
				},
				{
					"inputs": [
						{
							"internalType": "uint8",
							"name": "proposalId",
							"type": "uint8"
						}
					],
					"name": "vote",
					"outputs": [],
					"stateMutability": "nonpayable",
					"type": "function"
				},
				{
					"inputs": [
						{
							"internalType": "address",
							"name": "",
							"type": "address"
						}
					],
					"name": "voterRegistry",
					"outputs": [
						{
							"internalType": "uint256",
							"name": "",
							"type": "uint256"
						}
					],
					"stateMutability": "view",
					"type": "function"
				}
			],
			"devdoc": {
				"kind": "dev",
				"methods": {},
				"version": 1
			},
			"evm": {
				"assembly": "    /* \"submissions/Serena Y/Day15-GasEfficientVoting.sol\":60:2965  contract GasEfficientVoting{... */\n  mstore(0x40, 0x80)\n  callvalue\n  dup1\n  iszero\n  tag_1\n  jumpi\n  revert(0x00, 0x00)\ntag_1:\n  pop\n  dataSize(sub_0)\n  dup1\n  dataOffset(sub_0)\n  0x00\n  codecopy\n  0x00\n  return\nstop\n\nsub_0: assembly {\n        /* \"submissions/Serena Y/Day15-GasEfficientVoting.sol\":60:2965  contract GasEfficientVoting{... */\n      mstore(0x40, 0x80)\n      callvalue\n      dup1\n      iszero\n      tag_1\n      jumpi\n      revert(0x00, 0x00)\n    tag_1:\n      pop\n      jumpi(tag_2, lt(calldatasize, 0x04))\n      shr(0xe0, calldataload(0x00))\n      dup1\n      0x84acf0f5\n      gt\n      tag_10\n      jumpi\n      dup1\n      0x84acf0f5\n      eq\n      tag_6\n      jumpi\n      dup1\n      0xa8593a14\n      eq\n      tag_7\n      jumpi\n      dup1\n      0xb3f98adc\n      eq\n      tag_8\n      jumpi\n      dup1\n      0xda35c664\n      eq\n      tag_9\n      jumpi\n      jump(tag_2)\n    tag_10:\n      dup1\n      0x356442d7\n      eq\n      tag_3\n      jumpi\n      dup1\n      0x4763d4e7\n      eq\n      tag_4\n      jumpi\n      dup1\n      0x6760b1c0\n      eq\n      tag_5\n      jumpi\n    tag_2:\n      revert(0x00, 0x00)\n        /* \"submissions/Serena Y/Day15-GasEfficientVoting.sol\":786:1566  function creatProposal(bytes32 name,uint32 duration) external{... */\n    tag_3:\n      tag_11\n      0x04\n      dup1\n      calldatasize\n      sub\n      dup2\n      add\n      swap1\n      tag_12\n      swap2\n      swap1\n      tag_13\n      jump\t// in\n    tag_12:\n      tag_14\n      jump\t// in\n    tag_11:\n      stop\n        /* \"submissions/Serena Y/Day15-GasEfficientVoting.sol\":480:525  mapping(address=>uint256)public voterRegistry */\n    tag_4:\n      tag_15\n      0x04\n      dup1\n      calldatasize\n      sub\n      dup2\n      add\n      swap1\n      tag_16\n      swap2\n      swap1\n      tag_17\n      jump\t// in\n    tag_16:\n      tag_18\n      jump\t// in\n    tag_15:\n      mload(0x40)\n      tag_19\n      swap2\n      swap1\n      tag_20\n      jump\t// in\n    tag_19:\n      mload(0x40)\n      dup1\n      swap2\n      sub\n      swap1\n      return\n        /* \"submissions/Serena Y/Day15-GasEfficientVoting.sol\":532:579  mapping(uint8=>uint32)public proposalVoterCount */\n    tag_5:\n      tag_21\n      0x04\n      dup1\n      calldatasize\n      sub\n      dup2\n      add\n      swap1\n      tag_22\n      swap2\n      swap1\n      tag_23\n      jump\t// in\n    tag_22:\n      tag_24\n      jump\t// in\n    tag_21:\n      mload(0x40)\n      tag_25\n      swap2\n      swap1\n      tag_26\n      jump\t// in\n    tag_25:\n      mload(0x40)\n      dup1\n      swap2\n      sub\n      swap1\n      return\n        /* \"submissions/Serena Y/Day15-GasEfficientVoting.sol\":433:473  mapping(uint8=>Proposal)public proposals */\n    tag_6:\n      tag_27\n      0x04\n      dup1\n      calldatasize\n      sub\n      dup2\n      add\n      swap1\n      tag_28\n      swap2\n      swap1\n      tag_23\n      jump\t// in\n    tag_28:\n      tag_29\n      jump\t// in\n    tag_27:\n      mload(0x40)\n      tag_30\n      swap6\n      swap5\n      swap4\n      swap3\n      swap2\n      swap1\n      tag_31\n      jump\t// in\n    tag_30:\n      mload(0x40)\n      dup1\n      swap2\n      sub\n      swap1\n      return\n        /* \"submissions/Serena Y/Day15-GasEfficientVoting.sol\":2640:2960  function executedPropsal(uint8 proposalId) public{... */\n    tag_7:\n      tag_32\n      0x04\n      dup1\n      calldatasize\n      sub\n      dup2\n      add\n      swap1\n      tag_33\n      swap2\n      swap1\n      tag_23\n      jump\t// in\n    tag_33:\n      tag_34\n      jump\t// in\n    tag_32:\n      stop\n        /* \"submissions/Serena Y/Day15-GasEfficientVoting.sol\":1988:2632  function vote(uint8 proposalId) external {... */\n    tag_8:\n      tag_35\n      0x04\n      dup1\n      calldatasize\n      sub\n      dup2\n      add\n      swap1\n      tag_36\n      swap2\n      swap1\n      tag_23\n      jump\t// in\n    tag_36:\n      tag_37\n      jump\t// in\n    tag_35:\n      stop\n        /* \"submissions/Serena Y/Day15-GasEfficientVoting.sol\":96:122  uint8 public proposalCount */\n    tag_9:\n      tag_38\n      tag_39\n      jump\t// in\n    tag_38:\n      mload(0x40)\n      tag_40\n      swap2\n      swap1\n      tag_41\n      jump\t// in\n    tag_40:\n      mload(0x40)\n      dup1\n      swap2\n      sub\n      swap1\n      return\n        /* \"submissions/Serena Y/Day15-GasEfficientVoting.sol\":786:1566  function creatProposal(bytes32 name,uint32 duration) external{... */\n    tag_14:\n        /* \"submissions/Serena Y/Day15-GasEfficientVoting.sol\":858:874  uint8 proposalId */\n      0x00\n        /* \"submissions/Serena Y/Day15-GasEfficientVoting.sol\":876:889  proposalCount */\n      0x00\n      0x00\n      swap1\n      sload\n      swap1\n      0x0100\n      exp\n      swap1\n      div\n      0xff\n      and\n        /* \"submissions/Serena Y/Day15-GasEfficientVoting.sol\":858:889  uint8 proposalId= proposalCount */\n      swap1\n      pop\n        /* \"submissions/Serena Y/Day15-GasEfficientVoting.sol\":900:913  proposalCount */\n      0x00\n      0x00\n        /* \"submissions/Serena Y/Day15-GasEfficientVoting.sol\":900:915  proposalCount++ */\n      dup2\n      dup2\n      swap1\n      sload\n      swap1\n      0x0100\n      exp\n      swap1\n      div\n      0xff\n      and\n      dup1\n      swap3\n      swap2\n      swap1\n      tag_43\n      swap1\n      tag_44\n      jump\t// in\n    tag_43:\n      swap2\n      swap1\n      0x0100\n      exp\n      dup2\n      sload\n      dup2\n      0xff\n      mul\n      not\n      and\n      swap1\n      dup4\n      0xff\n      and\n      mul\n      or\n      swap1\n      sstore\n      pop\n      pop\n        /* \"submissions/Serena Y/Day15-GasEfficientVoting.sol\":943:944  0 */\n      0x00\n        /* \"submissions/Serena Y/Day15-GasEfficientVoting.sol\":934:942  duration */\n      dup3\n        /* \"submissions/Serena Y/Day15-GasEfficientVoting.sol\":934:944  duration>0 */\n      0xffffffff\n      and\n      gt\n        /* \"submissions/Serena Y/Day15-GasEfficientVoting.sol\":926:968  require(duration>0,\"Duration must be > 0\") */\n      tag_45\n      jumpi\n      mload(0x40)\n      0x08c379a000000000000000000000000000000000000000000000000000000000\n      dup2\n      mstore\n      0x04\n      add\n      tag_46\n      swap1\n      tag_47\n      jump\t// in\n    tag_46:\n      mload(0x40)\n      dup1\n      swap2\n      sub\n      swap1\n      revert\n    tag_45:\n        /* \"submissions/Serena Y/Day15-GasEfficientVoting.sol\":1211:1238  Proposal memory newProposal */\n      0x00\n        /* \"submissions/Serena Y/Day15-GasEfficientVoting.sol\":1241:1451  Proposal({... */\n      mload(0x40)\n      dup1\n      0xa0\n      add\n      0x40\n      mstore\n      dup1\n        /* \"submissions/Serena Y/Day15-GasEfficientVoting.sol\":1271:1275  name */\n      dup6\n        /* \"submissions/Serena Y/Day15-GasEfficientVoting.sol\":1241:1451  Proposal({... */\n      dup2\n      mstore\n      0x20\n      add\n        /* \"submissions/Serena Y/Day15-GasEfficientVoting.sol\":1301:1302  0 */\n      0x00\n        /* \"submissions/Serena Y/Day15-GasEfficientVoting.sol\":1241:1451  Proposal({... */\n      0xffffffff\n      and\n      dup2\n      mstore\n      0x20\n      add\n        /* \"submissions/Serena Y/Day15-GasEfficientVoting.sol\":1335:1350  block.timestamp */\n      timestamp\n        /* \"submissions/Serena Y/Day15-GasEfficientVoting.sol\":1241:1451  Proposal({... */\n      0xffffffff\n      and\n      dup2\n      mstore\n      0x20\n      add\n        /* \"submissions/Serena Y/Day15-GasEfficientVoting.sol\":1400:1408  duration */\n      dup5\n        /* \"submissions/Serena Y/Day15-GasEfficientVoting.sol\":1382:1408  block.timestamp + duration */\n      0xffffffff\n      and\n        /* \"submissions/Serena Y/Day15-GasEfficientVoting.sol\":1382:1397  block.timestamp */\n      timestamp\n        /* \"submissions/Serena Y/Day15-GasEfficientVoting.sol\":1382:1408  block.timestamp + duration */\n      tag_48\n      swap2\n      swap1\n      tag_49\n      jump\t// in\n    tag_48:\n        /* \"submissions/Serena Y/Day15-GasEfficientVoting.sol\":1241:1451  Proposal({... */\n      0xffffffff\n      and\n      dup2\n      mstore\n      0x20\n      add\n        /* \"submissions/Serena Y/Day15-GasEfficientVoting.sol\":1434:1439  false */\n      0x00\n        /* \"submissions/Serena Y/Day15-GasEfficientVoting.sol\":1241:1451  Proposal({... */\n      iszero\n      iszero\n      dup2\n      mstore\n      pop\n        /* \"submissions/Serena Y/Day15-GasEfficientVoting.sol\":1211:1451  Proposal memory newProposal = Proposal({... */\n      swap1\n      pop\n        /* \"submissions/Serena Y/Day15-GasEfficientVoting.sol\":1488:1499  newProposal */\n      dup1\n        /* \"submissions/Serena Y/Day15-GasEfficientVoting.sol\":1464:1473  proposals */\n      0x01\n        /* \"submissions/Serena Y/Day15-GasEfficientVoting.sol\":1464:1485  proposals[proposalId] */\n      0x00\n        /* \"submissions/Serena Y/Day15-GasEfficientVoting.sol\":1474:1484  proposalId */\n      dup5\n        /* \"submissions/Serena Y/Day15-GasEfficientVoting.sol\":1464:1485  proposals[proposalId] */\n      0xff\n      and\n      0xff\n      and\n      dup2\n      mstore\n      0x20\n      add\n      swap1\n      dup2\n      mstore\n      0x20\n      add\n      0x00\n      keccak256\n        /* \"submissions/Serena Y/Day15-GasEfficientVoting.sol\":1464:1499  proposals[proposalId] = newProposal */\n      0x00\n      dup3\n      add\n      mload\n      dup2\n      0x00\n      add\n      sstore\n      0x20\n      dup3\n      add\n      mload\n      dup2\n      0x01\n      add\n      exp(0x0100, 0x00)\n      dup2\n      sload\n      dup2\n      0xffffffff\n      mul\n      not\n      and\n      swap1\n      dup4\n      0xffffffff\n      and\n      mul\n      or\n      swap1\n      sstore\n      pop\n      0x40\n      dup3\n      add\n      mload\n      dup2\n      0x01\n      add\n      exp(0x0100, 0x04)\n      dup2\n      sload\n      dup2\n      0xffffffff\n      mul\n      not\n      and\n      swap1\n      dup4\n      0xffffffff\n      and\n      mul\n      or\n      swap1\n      sstore\n      pop\n      0x60\n      dup3\n      add\n      mload\n      dup2\n      0x01\n      add\n      exp(0x0100, 0x08)\n      dup2\n      sload\n      dup2\n      0xffffffff\n      mul\n      not\n      and\n      swap1\n      dup4\n      0xffffffff\n      and\n      mul\n      or\n      swap1\n      sstore\n      pop\n      0x80\n      dup3\n      add\n      mload\n      dup2\n      0x01\n      add\n      exp(0x0100, 0x0c)\n      dup2\n      sload\n      dup2\n      0xff\n      mul\n      not\n      and\n      swap1\n      dup4\n      iszero\n      iszero\n      mul\n      or\n      swap1\n      sstore\n      pop\n      swap1\n      pop\n      pop\n        /* \"submissions/Serena Y/Day15-GasEfficientVoting.sol\":1553:1557  name */\n      dup4\n        /* \"submissions/Serena Y/Day15-GasEfficientVoting.sol\":1541:1551  proposalId */\n      dup3\n        /* \"submissions/Serena Y/Day15-GasEfficientVoting.sol\":1525:1558  proposalCreated(proposalId, name) */\n      0xff\n      and\n      0x6c7710c2a1c50986a0a925432a5e03d36955fcdcd97d649c8f0791afa862ecee\n      mload(0x40)\n      mload(0x40)\n      dup1\n      swap2\n      sub\n      swap1\n      log3\n        /* \"submissions/Serena Y/Day15-GasEfficientVoting.sol\":847:1566  {... */\n      pop\n      pop\n        /* \"submissions/Serena Y/Day15-GasEfficientVoting.sol\":786:1566  function creatProposal(bytes32 name,uint32 duration) external{... */\n      pop\n      pop\n      jump\t// out\n        /* \"submissions/Serena Y/Day15-GasEfficientVoting.sol\":480:525  mapping(address=>uint256)public voterRegistry */\n    tag_18:\n      mstore(0x20, 0x02)\n      dup1\n      0x00\n      mstore\n      keccak256(0x00, 0x40)\n      0x00\n      swap2\n      pop\n      swap1\n      pop\n      sload\n      dup2\n      jump\t// out\n        /* \"submissions/Serena Y/Day15-GasEfficientVoting.sol\":532:579  mapping(uint8=>uint32)public proposalVoterCount */\n    tag_24:\n      mstore(0x20, 0x03)\n      dup1\n      0x00\n      mstore\n      keccak256(0x00, 0x40)\n      0x00\n      swap2\n      pop\n      sload\n      swap1\n      0x0100\n      exp\n      swap1\n      div\n      0xffffffff\n      and\n      dup2\n      jump\t// out\n        /* \"submissions/Serena Y/Day15-GasEfficientVoting.sol\":433:473  mapping(uint8=>Proposal)public proposals */\n    tag_29:\n      mstore(0x20, 0x01)\n      dup1\n      0x00\n      mstore\n      keccak256(0x00, 0x40)\n      0x00\n      swap2\n      pop\n      swap1\n      pop\n      dup1\n      0x00\n      add\n      sload\n      swap1\n      dup1\n      0x01\n      add\n      0x00\n      swap1\n      sload\n      swap1\n      0x0100\n      exp\n      swap1\n      div\n      0xffffffff\n      and\n      swap1\n      dup1\n      0x01\n      add\n      0x04\n      swap1\n      sload\n      swap1\n      0x0100\n      exp\n      swap1\n      div\n      0xffffffff\n      and\n      swap1\n      dup1\n      0x01\n      add\n      0x08\n      swap1\n      sload\n      swap1\n      0x0100\n      exp\n      swap1\n      div\n      0xffffffff\n      and\n      swap1\n      dup1\n      0x01\n      add\n      0x0c\n      swap1\n      sload\n      swap1\n      0x0100\n      exp\n      swap1\n      div\n      0xff\n      and\n      swap1\n      pop\n      dup6\n      jump\t// out\n        /* \"submissions/Serena Y/Day15-GasEfficientVoting.sol\":2640:2960  function executedPropsal(uint8 proposalId) public{... */\n    tag_34:\n        /* \"submissions/Serena Y/Day15-GasEfficientVoting.sol\":2700:2725  Proposal storage proposal */\n      0x00\n        /* \"submissions/Serena Y/Day15-GasEfficientVoting.sol\":2726:2735  proposals */\n      0x01\n        /* \"submissions/Serena Y/Day15-GasEfficientVoting.sol\":2726:2747  proposals[proposalId] */\n      0x00\n        /* \"submissions/Serena Y/Day15-GasEfficientVoting.sol\":2736:2746  proposalId */\n      dup4\n        /* \"submissions/Serena Y/Day15-GasEfficientVoting.sol\":2726:2747  proposals[proposalId] */\n      0xff\n      and\n      0xff\n      and\n      dup2\n      mstore\n      0x20\n      add\n      swap1\n      dup2\n      mstore\n      0x20\n      add\n      0x00\n      keccak256\n        /* \"submissions/Serena Y/Day15-GasEfficientVoting.sol\":2700:2747  Proposal storage proposal=proposals[proposalId] */\n      swap1\n      pop\n        /* \"submissions/Serena Y/Day15-GasEfficientVoting.sol\":2782:2790  proposal */\n      dup1\n        /* \"submissions/Serena Y/Day15-GasEfficientVoting.sol\":2782:2798  proposal.endTime */\n      0x01\n      add\n      0x08\n      swap1\n      sload\n      swap1\n      0x0100\n      exp\n      swap1\n      div\n      0xffffffff\n      and\n        /* \"submissions/Serena Y/Day15-GasEfficientVoting.sol\":2766:2798  block.timestamp>proposal.endTime */\n      0xffffffff\n      and\n        /* \"submissions/Serena Y/Day15-GasEfficientVoting.sol\":2766:2781  block.timestamp */\n      timestamp\n        /* \"submissions/Serena Y/Day15-GasEfficientVoting.sol\":2766:2798  block.timestamp>proposal.endTime */\n      gt\n        /* \"submissions/Serena Y/Day15-GasEfficientVoting.sol\":2758:2811  require(block.timestamp>proposal.endTime,\"too early\") */\n      tag_51\n      jumpi\n      mload(0x40)\n      0x08c379a000000000000000000000000000000000000000000000000000000000\n      dup2\n      mstore\n      0x04\n      add\n      tag_52\n      swap1\n      tag_53\n      jump\t// in\n    tag_52:\n      mload(0x40)\n      dup1\n      swap2\n      sub\n      swap1\n      revert\n    tag_51:\n        /* \"submissions/Serena Y/Day15-GasEfficientVoting.sol\":2831:2839  proposal */\n      dup1\n        /* \"submissions/Serena Y/Day15-GasEfficientVoting.sol\":2831:2848  proposal.executed */\n      0x01\n      add\n      0x0c\n      swap1\n      sload\n      swap1\n      0x0100\n      exp\n      swap1\n      div\n      0xff\n      and\n        /* \"submissions/Serena Y/Day15-GasEfficientVoting.sol\":2830:2848  !proposal.executed */\n      iszero\n        /* \"submissions/Serena Y/Day15-GasEfficientVoting.sol\":2822:2868  require(!proposal.executed,\"already executed\") */\n      tag_54\n      jumpi\n      mload(0x40)\n      0x08c379a000000000000000000000000000000000000000000000000000000000\n      dup2\n      mstore\n      0x04\n      add\n      tag_55\n      swap1\n      tag_56\n      jump\t// in\n    tag_55:\n      mload(0x40)\n      dup1\n      swap2\n      sub\n      swap1\n      revert\n    tag_54:\n        /* \"submissions/Serena Y/Day15-GasEfficientVoting.sol\":2906:2907  0 */\n      0x00\n        /* \"submissions/Serena Y/Day15-GasEfficientVoting.sol\":2887:2895  proposal */\n      dup2\n        /* \"submissions/Serena Y/Day15-GasEfficientVoting.sol\":2887:2905  proposal.voteCount */\n      0x01\n      add\n      0x00\n      swap1\n      sload\n      swap1\n      0x0100\n      exp\n      swap1\n      div\n      0xffffffff\n      and\n        /* \"submissions/Serena Y/Day15-GasEfficientVoting.sol\":2887:2907  proposal.voteCount>0 */\n      0xffffffff\n      and\n      gt\n        /* \"submissions/Serena Y/Day15-GasEfficientVoting.sol\":2879:2919  require(proposal.voteCount>0,\"no votes\") */\n      tag_57\n      jumpi\n      mload(0x40)\n      0x08c379a000000000000000000000000000000000000000000000000000000000\n      dup2\n      mstore\n      0x04\n      add\n      tag_58\n      swap1\n      tag_59\n      jump\t// in\n    tag_58:\n      mload(0x40)\n      dup1\n      swap2\n      sub\n      swap1\n      revert\n    tag_57:\n        /* \"submissions/Serena Y/Day15-GasEfficientVoting.sol\":2948:2952  true */\n      0x01\n        /* \"submissions/Serena Y/Day15-GasEfficientVoting.sol\":2930:2938  proposal */\n      dup2\n        /* \"submissions/Serena Y/Day15-GasEfficientVoting.sol\":2930:2947  proposal.executed */\n      0x01\n      add\n      0x0c\n        /* \"submissions/Serena Y/Day15-GasEfficientVoting.sol\":2930:2952  proposal.executed=true */\n      0x0100\n      exp\n      dup2\n      sload\n      dup2\n      0xff\n      mul\n      not\n      and\n      swap1\n      dup4\n      iszero\n      iszero\n      mul\n      or\n      swap1\n      sstore\n      pop\n        /* \"submissions/Serena Y/Day15-GasEfficientVoting.sol\":2689:2960  {... */\n      pop\n        /* \"submissions/Serena Y/Day15-GasEfficientVoting.sol\":2640:2960  function executedPropsal(uint8 proposalId) public{... */\n      pop\n      jump\t// out\n        /* \"submissions/Serena Y/Day15-GasEfficientVoting.sol\":1988:2632  function vote(uint8 proposalId) external {... */\n    tag_37:\n        /* \"submissions/Serena Y/Day15-GasEfficientVoting.sol\":2057:2070  proposalCount */\n      0x00\n      0x00\n      swap1\n      sload\n      swap1\n      0x0100\n      exp\n      swap1\n      div\n      0xff\n      and\n        /* \"submissions/Serena Y/Day15-GasEfficientVoting.sol\":2044:2070  proposalId < proposalCount */\n      0xff\n      and\n        /* \"submissions/Serena Y/Day15-GasEfficientVoting.sol\":2044:2054  proposalId */\n      dup2\n        /* \"submissions/Serena Y/Day15-GasEfficientVoting.sol\":2044:2070  proposalId < proposalCount */\n      0xff\n      and\n      lt\n        /* \"submissions/Serena Y/Day15-GasEfficientVoting.sol\":2036:2091  require(proposalId < proposalCount, \"Invalid proposal\") */\n      tag_61\n      jumpi\n      mload(0x40)\n      0x08c379a000000000000000000000000000000000000000000000000000000000\n      dup2\n      mstore\n      0x04\n      add\n      tag_62\n      swap1\n      tag_63\n      jump\t// in\n    tag_62:\n      mload(0x40)\n      dup1\n      swap2\n      sub\n      swap1\n      revert\n    tag_61:\n        /* \"submissions/Serena Y/Day15-GasEfficientVoting.sol\":2100:2118  uint32 currentTime */\n      0x00\n        /* \"submissions/Serena Y/Day15-GasEfficientVoting.sol\":2128:2143  block.timestamp */\n      timestamp\n        /* \"submissions/Serena Y/Day15-GasEfficientVoting.sol\":2100:2144  uint32 currentTime = uint32(block.timestamp) */\n      swap1\n      pop\n        /* \"submissions/Serena Y/Day15-GasEfficientVoting.sol\":2174:2183  proposals */\n      0x01\n        /* \"submissions/Serena Y/Day15-GasEfficientVoting.sol\":2174:2195  proposals[proposalId] */\n      0x00\n        /* \"submissions/Serena Y/Day15-GasEfficientVoting.sol\":2184:2194  proposalId */\n      dup4\n        /* \"submissions/Serena Y/Day15-GasEfficientVoting.sol\":2174:2195  proposals[proposalId] */\n      0xff\n      and\n      0xff\n      and\n      dup2\n      mstore\n      0x20\n      add\n      swap1\n      dup2\n      mstore\n      0x20\n      add\n      0x00\n      keccak256\n        /* \"submissions/Serena Y/Day15-GasEfficientVoting.sol\":2174:2205  proposals[proposalId].startTime */\n      0x01\n      add\n      0x04\n      swap1\n      sload\n      swap1\n      0x0100\n      exp\n      swap1\n      div\n      0xffffffff\n      and\n        /* \"submissions/Serena Y/Day15-GasEfficientVoting.sol\":2159:2205  currentTime >= proposals[proposalId].startTime */\n      0xffffffff\n      and\n        /* \"submissions/Serena Y/Day15-GasEfficientVoting.sol\":2159:2170  currentTime */\n      dup2\n        /* \"submissions/Serena Y/Day15-GasEfficientVoting.sol\":2159:2205  currentTime >= proposals[proposalId].startTime */\n      0xffffffff\n      and\n      lt\n      iszero\n        /* \"submissions/Serena Y/Day15-GasEfficientVoting.sol\":2151:2228  require(currentTime >= proposals[proposalId].startTime, \"Voting not started\") */\n      tag_64\n      jumpi\n      mload(0x40)\n      0x08c379a000000000000000000000000000000000000000000000000000000000\n      dup2\n      mstore\n      0x04\n      add\n      tag_65\n      swap1\n      tag_66\n      jump\t// in\n    tag_65:\n      mload(0x40)\n      dup1\n      swap2\n      sub\n      swap1\n      revert\n    tag_64:\n        /* \"submissions/Serena Y/Day15-GasEfficientVoting.sol\":2258:2267  proposals */\n      0x01\n        /* \"submissions/Serena Y/Day15-GasEfficientVoting.sol\":2258:2279  proposals[proposalId] */\n      0x00\n        /* \"submissions/Serena Y/Day15-GasEfficientVoting.sol\":2268:2278  proposalId */\n      dup4\n        /* \"submissions/Serena Y/Day15-GasEfficientVoting.sol\":2258:2279  proposals[proposalId] */\n      0xff\n      and\n      0xff\n      and\n      dup2\n      mstore\n      0x20\n      add\n      swap1\n      dup2\n      mstore\n      0x20\n      add\n      0x00\n      keccak256\n        /* \"submissions/Serena Y/Day15-GasEfficientVoting.sol\":2258:2287  proposals[proposalId].endTime */\n      0x01\n      add\n      0x08\n      swap1\n      sload\n      swap1\n      0x0100\n      exp\n      swap1\n      div\n      0xffffffff\n      and\n        /* \"submissions/Serena Y/Day15-GasEfficientVoting.sol\":2243:2287  currentTime <= proposals[proposalId].endTime */\n      0xffffffff\n      and\n        /* \"submissions/Serena Y/Day15-GasEfficientVoting.sol\":2243:2254  currentTime */\n      dup2\n        /* \"submissions/Serena Y/Day15-GasEfficientVoting.sol\":2243:2287  currentTime <= proposals[proposalId].endTime */\n      0xffffffff\n      and\n      gt\n      iszero\n        /* \"submissions/Serena Y/Day15-GasEfficientVoting.sol\":2235:2304  require(currentTime <= proposals[proposalId].endTime, \"Voting ended\") */\n      tag_67\n      jumpi\n      mload(0x40)\n      0x08c379a000000000000000000000000000000000000000000000000000000000\n      dup2\n      mstore\n      0x04\n      add\n      tag_68\n      swap1\n      tag_69\n      jump\t// in\n    tag_68:\n      mload(0x40)\n      dup1\n      swap2\n      sub\n      swap1\n      revert\n    tag_67:\n        /* \"submissions/Serena Y/Day15-GasEfficientVoting.sol\":2313:2330  uint256 voterData */\n      0x00\n        /* \"submissions/Serena Y/Day15-GasEfficientVoting.sol\":2333:2346  voterRegistry */\n      0x02\n        /* \"submissions/Serena Y/Day15-GasEfficientVoting.sol\":2333:2358  voterRegistry[msg.sender] */\n      0x00\n        /* \"submissions/Serena Y/Day15-GasEfficientVoting.sol\":2347:2357  msg.sender */\n      caller\n        /* \"submissions/Serena Y/Day15-GasEfficientVoting.sol\":2333:2358  voterRegistry[msg.sender] */\n      0xffffffffffffffffffffffffffffffffffffffff\n      and\n      0xffffffffffffffffffffffffffffffffffffffff\n      and\n      dup2\n      mstore\n      0x20\n      add\n      swap1\n      dup2\n      mstore\n      0x20\n      add\n      0x00\n      keccak256\n      sload\n        /* \"submissions/Serena Y/Day15-GasEfficientVoting.sol\":2313:2358  uint256 voterData = voterRegistry[msg.sender] */\n      swap1\n      pop\n        /* \"submissions/Serena Y/Day15-GasEfficientVoting.sol\":2365:2377  uint256 mask */\n      0x00\n        /* \"submissions/Serena Y/Day15-GasEfficientVoting.sol\":2385:2395  proposalId */\n      dup4\n        /* \"submissions/Serena Y/Day15-GasEfficientVoting.sol\":2380:2395  1 << proposalId */\n      0xff\n      and\n        /* \"submissions/Serena Y/Day15-GasEfficientVoting.sol\":2380:2381  1 */\n      0x01\n        /* \"submissions/Serena Y/Day15-GasEfficientVoting.sol\":2380:2395  1 << proposalId */\n      swap1\n      shl\n        /* \"submissions/Serena Y/Day15-GasEfficientVoting.sol\":2365:2395  uint256 mask = 1 << proposalId */\n      swap1\n      pop\n        /* \"submissions/Serena Y/Day15-GasEfficientVoting.sol\":2432:2433  0 */\n      0x00\n        /* \"submissions/Serena Y/Day15-GasEfficientVoting.sol\":2423:2427  mask */\n      dup2\n        /* \"submissions/Serena Y/Day15-GasEfficientVoting.sol\":2411:2420  voterData */\n      dup4\n        /* \"submissions/Serena Y/Day15-GasEfficientVoting.sol\":2411:2427  voterData & mask */\n      and\n        /* \"submissions/Serena Y/Day15-GasEfficientVoting.sol\":2410:2433  (voterData & mask) == 0 */\n      eq\n        /* \"submissions/Serena Y/Day15-GasEfficientVoting.sol\":2402:2451  require((voterData & mask) == 0, \"Already voted\") */\n      tag_70\n      jumpi\n      mload(0x40)\n      0x08c379a000000000000000000000000000000000000000000000000000000000\n      dup2\n      mstore\n      0x04\n      add\n      tag_71\n      swap1\n      tag_72\n      jump\t// in\n    tag_71:\n      mload(0x40)\n      dup1\n      swap2\n      sub\n      swap1\n      revert\n    tag_70:\n        /* \"submissions/Serena Y/Day15-GasEfficientVoting.sol\":2500:2504  mask */\n      dup1\n        /* \"submissions/Serena Y/Day15-GasEfficientVoting.sol\":2488:2497  voterData */\n      dup3\n        /* \"submissions/Serena Y/Day15-GasEfficientVoting.sol\":2488:2504  voterData | mask */\n      or\n        /* \"submissions/Serena Y/Day15-GasEfficientVoting.sol\":2460:2473  voterRegistry */\n      0x02\n        /* \"submissions/Serena Y/Day15-GasEfficientVoting.sol\":2460:2485  voterRegistry[msg.sender] */\n      0x00\n        /* \"submissions/Serena Y/Day15-GasEfficientVoting.sol\":2474:2484  msg.sender */\n      caller\n        /* \"submissions/Serena Y/Day15-GasEfficientVoting.sol\":2460:2485  voterRegistry[msg.sender] */\n      0xffffffffffffffffffffffffffffffffffffffff\n      and\n      0xffffffffffffffffffffffffffffffffffffffff\n      and\n      dup2\n      mstore\n      0x20\n      add\n      swap1\n      dup2\n      mstore\n      0x20\n      add\n      0x00\n      keccak256\n        /* \"submissions/Serena Y/Day15-GasEfficientVoting.sol\":2460:2504  voterRegistry[msg.sender] = voterData | mask */\n      dup2\n      swap1\n      sstore\n      pop\n        /* \"submissions/Serena Y/Day15-GasEfficientVoting.sol\":2513:2522  proposals */\n      0x01\n        /* \"submissions/Serena Y/Day15-GasEfficientVoting.sol\":2513:2534  proposals[proposalId] */\n      0x00\n        /* \"submissions/Serena Y/Day15-GasEfficientVoting.sol\":2523:2533  proposalId */\n      dup6\n        /* \"submissions/Serena Y/Day15-GasEfficientVoting.sol\":2513:2534  proposals[proposalId] */\n      0xff\n      and\n      0xff\n      and\n      dup2\n      mstore\n      0x20\n      add\n      swap1\n      dup2\n      mstore\n      0x20\n      add\n      0x00\n      keccak256\n        /* \"submissions/Serena Y/Day15-GasEfficientVoting.sol\":2513:2544  proposals[proposalId].voteCount */\n      0x01\n      add\n      0x00\n        /* \"submissions/Serena Y/Day15-GasEfficientVoting.sol\":2513:2546  proposals[proposalId].voteCount++ */\n      dup2\n      dup2\n      swap1\n      sload\n      swap1\n      0x0100\n      exp\n      swap1\n      div\n      0xffffffff\n      and\n      dup1\n      swap3\n      swap2\n      swap1\n      tag_73\n      swap1\n      tag_74\n      jump\t// in\n    tag_73:\n      swap2\n      swap1\n      0x0100\n      exp\n      dup2\n      sload\n      dup2\n      0xffffffff\n      mul\n      not\n      and\n      swap1\n      dup4\n      0xffffffff\n      and\n      mul\n      or\n      swap1\n      sstore\n      pop\n      pop\n        /* \"submissions/Serena Y/Day15-GasEfficientVoting.sol\":2553:2571  proposalVoterCount */\n      0x03\n        /* \"submissions/Serena Y/Day15-GasEfficientVoting.sol\":2553:2583  proposalVoterCount[proposalId] */\n      0x00\n        /* \"submissions/Serena Y/Day15-GasEfficientVoting.sol\":2572:2582  proposalId */\n      dup6\n        /* \"submissions/Serena Y/Day15-GasEfficientVoting.sol\":2553:2583  proposalVoterCount[proposalId] */\n      0xff\n      and\n      0xff\n      and\n      dup2\n      mstore\n      0x20\n      add\n      swap1\n      dup2\n      mstore\n      0x20\n      add\n      0x00\n      keccak256\n      0x00\n        /* \"submissions/Serena Y/Day15-GasEfficientVoting.sol\":2553:2585  proposalVoterCount[proposalId]++ */\n      dup2\n      dup2\n      swap1\n      sload\n      swap1\n      0x0100\n      exp\n      swap1\n      div\n      0xffffffff\n      and\n      dup1\n      swap3\n      swap2\n      swap1\n      tag_75\n      swap1\n      tag_74\n      jump\t// in\n    tag_75:\n      swap2\n      swap1\n      0x0100\n      exp\n      dup2\n      sload\n      dup2\n      0xffffffff\n      mul\n      not\n      and\n      swap1\n      dup4\n      0xffffffff\n      and\n      mul\n      or\n      swap1\n      sstore\n      pop\n      pop\n        /* \"submissions/Serena Y/Day15-GasEfficientVoting.sol\":2617:2627  proposalId */\n      dup4\n        /* \"submissions/Serena Y/Day15-GasEfficientVoting.sol\":2599:2628  Voted(msg.sender, proposalId) */\n      0xff\n      and\n        /* \"submissions/Serena Y/Day15-GasEfficientVoting.sol\":2605:2615  msg.sender */\n      caller\n        /* \"submissions/Serena Y/Day15-GasEfficientVoting.sol\":2599:2628  Voted(msg.sender, proposalId) */\n      0xffffffffffffffffffffffffffffffffffffffff\n      and\n      0x14075e33dffdc00c1fcaf75d0f86d667170be57fb566b12b41b499e5fa53b125\n      mload(0x40)\n      mload(0x40)\n      dup1\n      swap2\n      sub\n      swap1\n      log3\n        /* \"submissions/Serena Y/Day15-GasEfficientVoting.sol\":2029:2632  {... */\n      pop\n      pop\n      pop\n        /* \"submissions/Serena Y/Day15-GasEfficientVoting.sol\":1988:2632  function vote(uint8 proposalId) external {... */\n      pop\n      jump\t// out\n        /* \"submissions/Serena Y/Day15-GasEfficientVoting.sol\":96:122  uint8 public proposalCount */\n    tag_39:\n      0x00\n      0x00\n      swap1\n      sload\n      swap1\n      0x0100\n      exp\n      swap1\n      div\n      0xff\n      and\n      dup2\n      jump\t// out\n        /* \"#utility.yul\":88:205   */\n    tag_77:\n        /* \"#utility.yul\":197:198   */\n      0x00\n        /* \"#utility.yul\":194:195   */\n      0x00\n        /* \"#utility.yul\":187:199   */\n      revert\n        /* \"#utility.yul\":334:411   */\n    tag_79:\n        /* \"#utility.yul\":371:378   */\n      0x00\n        /* \"#utility.yul\":400:405   */\n      dup2\n        /* \"#utility.yul\":389:405   */\n      swap1\n      pop\n        /* \"#utility.yul\":334:411   */\n      swap2\n      swap1\n      pop\n      jump\t// out\n        /* \"#utility.yul\":417:539   */\n    tag_80:\n        /* \"#utility.yul\":490:514   */\n      tag_123\n        /* \"#utility.yul\":508:513   */\n      dup2\n        /* \"#utility.yul\":490:514   */\n      tag_79\n      jump\t// in\n    tag_123:\n        /* \"#utility.yul\":483:488   */\n      dup2\n        /* \"#utility.yul\":480:515   */\n      eq\n        /* \"#utility.yul\":470:533   */\n      tag_124\n      jumpi\n        /* \"#utility.yul\":529:530   */\n      0x00\n        /* \"#utility.yul\":526:527   */\n      0x00\n        /* \"#utility.yul\":519:531   */\n      revert\n        /* \"#utility.yul\":470:533   */\n    tag_124:\n        /* \"#utility.yul\":417:539   */\n      pop\n      jump\t// out\n        /* \"#utility.yul\":545:684   */\n    tag_81:\n        /* \"#utility.yul\":591:596   */\n      0x00\n        /* \"#utility.yul\":629:635   */\n      dup2\n        /* \"#utility.yul\":616:636   */\n      calldataload\n        /* \"#utility.yul\":607:636   */\n      swap1\n      pop\n        /* \"#utility.yul\":645:678   */\n      tag_126\n        /* \"#utility.yul\":672:677   */\n      dup2\n        /* \"#utility.yul\":645:678   */\n      tag_80\n      jump\t// in\n    tag_126:\n        /* \"#utility.yul\":545:684   */\n      swap3\n      swap2\n      pop\n      pop\n      jump\t// out\n        /* \"#utility.yul\":690:783   */\n    tag_82:\n        /* \"#utility.yul\":726:733   */\n      0x00\n        /* \"#utility.yul\":766:776   */\n      0xffffffff\n        /* \"#utility.yul\":759:764   */\n      dup3\n        /* \"#utility.yul\":755:777   */\n      and\n        /* \"#utility.yul\":744:777   */\n      swap1\n      pop\n        /* \"#utility.yul\":690:783   */\n      swap2\n      swap1\n      pop\n      jump\t// out\n        /* \"#utility.yul\":789:909   */\n    tag_83:\n        /* \"#utility.yul\":861:884   */\n      tag_129\n        /* \"#utility.yul\":878:883   */\n      dup2\n        /* \"#utility.yul\":861:884   */\n      tag_82\n      jump\t// in\n    tag_129:\n        /* \"#utility.yul\":854:859   */\n      dup2\n        /* \"#utility.yul\":851:885   */\n      eq\n        /* \"#utility.yul\":841:903   */\n      tag_130\n      jumpi\n        /* \"#utility.yul\":899:900   */\n      0x00\n        /* \"#utility.yul\":896:897   */\n      0x00\n        /* \"#utility.yul\":889:901   */\n      revert\n        /* \"#utility.yul\":841:903   */\n    tag_130:\n        /* \"#utility.yul\":789:909   */\n      pop\n      jump\t// out\n        /* \"#utility.yul\":915:1052   */\n    tag_84:\n        /* \"#utility.yul\":960:965   */\n      0x00\n        /* \"#utility.yul\":998:1004   */\n      dup2\n        /* \"#utility.yul\":985:1005   */\n      calldataload\n        /* \"#utility.yul\":976:1005   */\n      swap1\n      pop\n        /* \"#utility.yul\":1014:1046   */\n      tag_132\n        /* \"#utility.yul\":1040:1045   */\n      dup2\n        /* \"#utility.yul\":1014:1046   */\n      tag_83\n      jump\t// in\n    tag_132:\n        /* \"#utility.yul\":915:1052   */\n      swap3\n      swap2\n      pop\n      pop\n      jump\t// out\n        /* \"#utility.yul\":1058:1530   */\n    tag_13:\n        /* \"#utility.yul\":1125:1131   */\n      0x00\n        /* \"#utility.yul\":1133:1139   */\n      0x00\n        /* \"#utility.yul\":1182:1184   */\n      0x40\n        /* \"#utility.yul\":1170:1179   */\n      dup4\n        /* \"#utility.yul\":1161:1168   */\n      dup6\n        /* \"#utility.yul\":1157:1180   */\n      sub\n        /* \"#utility.yul\":1153:1185   */\n      slt\n        /* \"#utility.yul\":1150:1269   */\n      iszero\n      tag_134\n      jumpi\n        /* \"#utility.yul\":1188:1267   */\n      tag_135\n      tag_77\n      jump\t// in\n    tag_135:\n        /* \"#utility.yul\":1150:1269   */\n    tag_134:\n        /* \"#utility.yul\":1308:1309   */\n      0x00\n        /* \"#utility.yul\":1333:1386   */\n      tag_136\n        /* \"#utility.yul\":1378:1385   */\n      dup6\n        /* \"#utility.yul\":1369:1375   */\n      dup3\n        /* \"#utility.yul\":1358:1367   */\n      dup7\n        /* \"#utility.yul\":1354:1376   */\n      add\n        /* \"#utility.yul\":1333:1386   */\n      tag_81\n      jump\t// in\n    tag_136:\n        /* \"#utility.yul\":1323:1386   */\n      swap3\n      pop\n        /* \"#utility.yul\":1279:1396   */\n      pop\n        /* \"#utility.yul\":1435:1437   */\n      0x20\n        /* \"#utility.yul\":1461:1513   */\n      tag_137\n        /* \"#utility.yul\":1505:1512   */\n      dup6\n        /* \"#utility.yul\":1496:1502   */\n      dup3\n        /* \"#utility.yul\":1485:1494   */\n      dup7\n        /* \"#utility.yul\":1481:1503   */\n      add\n        /* \"#utility.yul\":1461:1513   */\n      tag_84\n      jump\t// in\n    tag_137:\n        /* \"#utility.yul\":1451:1513   */\n      swap2\n      pop\n        /* \"#utility.yul\":1406:1523   */\n      pop\n        /* \"#utility.yul\":1058:1530   */\n      swap3\n      pop\n      swap3\n      swap1\n      pop\n      jump\t// out\n        /* \"#utility.yul\":1536:1662   */\n    tag_85:\n        /* \"#utility.yul\":1573:1580   */\n      0x00\n        /* \"#utility.yul\":1613:1655   */\n      0xffffffffffffffffffffffffffffffffffffffff\n        /* \"#utility.yul\":1606:1611   */\n      dup3\n        /* \"#utility.yul\":1602:1656   */\n      and\n        /* \"#utility.yul\":1591:1656   */\n      swap1\n      pop\n        /* \"#utility.yul\":1536:1662   */\n      swap2\n      swap1\n      pop\n      jump\t// out\n        /* \"#utility.yul\":1668:1764   */\n    tag_86:\n        /* \"#utility.yul\":1705:1712   */\n      0x00\n        /* \"#utility.yul\":1734:1758   */\n      tag_140\n        /* \"#utility.yul\":1752:1757   */\n      dup3\n        /* \"#utility.yul\":1734:1758   */\n      tag_85\n      jump\t// in\n    tag_140:\n        /* \"#utility.yul\":1723:1758   */\n      swap1\n      pop\n        /* \"#utility.yul\":1668:1764   */\n      swap2\n      swap1\n      pop\n      jump\t// out\n        /* \"#utility.yul\":1770:1892   */\n    tag_87:\n        /* \"#utility.yul\":1843:1867   */\n      tag_142\n        /* \"#utility.yul\":1861:1866   */\n      dup2\n        /* \"#utility.yul\":1843:1867   */\n      tag_86\n      jump\t// in\n    tag_142:\n        /* \"#utility.yul\":1836:1841   */\n      dup2\n        /* \"#utility.yul\":1833:1868   */\n      eq\n        /* \"#utility.yul\":1823:1886   */\n      tag_143\n      jumpi\n        /* \"#utility.yul\":1882:1883   */\n      0x00\n        /* \"#utility.yul\":1879:1880   */\n      0x00\n        /* \"#utility.yul\":1872:1884   */\n      revert\n        /* \"#utility.yul\":1823:1886   */\n    tag_143:\n        /* \"#utility.yul\":1770:1892   */\n      pop\n      jump\t// out\n        /* \"#utility.yul\":1898:2037   */\n    tag_88:\n        /* \"#utility.yul\":1944:1949   */\n      0x00\n        /* \"#utility.yul\":1982:1988   */\n      dup2\n        /* \"#utility.yul\":1969:1989   */\n      calldataload\n        /* \"#utility.yul\":1960:1989   */\n      swap1\n      pop\n        /* \"#utility.yul\":1998:2031   */\n      tag_145\n        /* \"#utility.yul\":2025:2030   */\n      dup2\n        /* \"#utility.yul\":1998:2031   */\n      tag_87\n      jump\t// in\n    tag_145:\n        /* \"#utility.yul\":1898:2037   */\n      swap3\n      swap2\n      pop\n      pop\n      jump\t// out\n        /* \"#utility.yul\":2043:2372   */\n    tag_17:\n        /* \"#utility.yul\":2102:2108   */\n      0x00\n        /* \"#utility.yul\":2151:2153   */\n      0x20\n        /* \"#utility.yul\":2139:2148   */\n      dup3\n        /* \"#utility.yul\":2130:2137   */\n      dup5\n        /* \"#utility.yul\":2126:2149   */\n      sub\n        /* \"#utility.yul\":2122:2154   */\n      slt\n        /* \"#utility.yul\":2119:2238   */\n      iszero\n      tag_147\n      jumpi\n        /* \"#utility.yul\":2157:2236   */\n      tag_148\n      tag_77\n      jump\t// in\n    tag_148:\n        /* \"#utility.yul\":2119:2238   */\n    tag_147:\n        /* \"#utility.yul\":2277:2278   */\n      0x00\n        /* \"#utility.yul\":2302:2355   */\n      tag_149\n        /* \"#utility.yul\":2347:2354   */\n      dup5\n        /* \"#utility.yul\":2338:2344   */\n      dup3\n        /* \"#utility.yul\":2327:2336   */\n      dup6\n        /* \"#utility.yul\":2323:2345   */\n      add\n        /* \"#utility.yul\":2302:2355   */\n      tag_88\n      jump\t// in\n    tag_149:\n        /* \"#utility.yul\":2292:2355   */\n      swap2\n      pop\n        /* \"#utility.yul\":2248:2365   */\n      pop\n        /* \"#utility.yul\":2043:2372   */\n      swap3\n      swap2\n      pop\n      pop\n      jump\t// out\n        /* \"#utility.yul\":2378:2455   */\n    tag_89:\n        /* \"#utility.yul\":2415:2422   */\n      0x00\n        /* \"#utility.yul\":2444:2449   */\n      dup2\n        /* \"#utility.yul\":2433:2449   */\n      swap1\n      pop\n        /* \"#utility.yul\":2378:2455   */\n      swap2\n      swap1\n      pop\n      jump\t// out\n        /* \"#utility.yul\":2461:2579   */\n    tag_90:\n        /* \"#utility.yul\":2548:2572   */\n      tag_152\n        /* \"#utility.yul\":2566:2571   */\n      dup2\n        /* \"#utility.yul\":2548:2572   */\n      tag_89\n      jump\t// in\n    tag_152:\n        /* \"#utility.yul\":2543:2546   */\n      dup3\n        /* \"#utility.yul\":2536:2573   */\n      mstore\n        /* \"#utility.yul\":2461:2579   */\n      pop\n      pop\n      jump\t// out\n        /* \"#utility.yul\":2585:2807   */\n    tag_20:\n        /* \"#utility.yul\":2678:2682   */\n      0x00\n        /* \"#utility.yul\":2716:2718   */\n      0x20\n        /* \"#utility.yul\":2705:2714   */\n      dup3\n        /* \"#utility.yul\":2701:2719   */\n      add\n        /* \"#utility.yul\":2693:2719   */\n      swap1\n      pop\n        /* \"#utility.yul\":2729:2800   */\n      tag_154\n        /* \"#utility.yul\":2797:2798   */\n      0x00\n        /* \"#utility.yul\":2786:2795   */\n      dup4\n        /* \"#utility.yul\":2782:2799   */\n      add\n        /* \"#utility.yul\":2773:2779   */\n      dup5\n        /* \"#utility.yul\":2729:2800   */\n      tag_90\n      jump\t// in\n    tag_154:\n        /* \"#utility.yul\":2585:2807   */\n      swap3\n      swap2\n      pop\n      pop\n      jump\t// out\n        /* \"#utility.yul\":2813:2899   */\n    tag_91:\n        /* \"#utility.yul\":2848:2855   */\n      0x00\n        /* \"#utility.yul\":2888:2892   */\n      0xff\n        /* \"#utility.yul\":2881:2886   */\n      dup3\n        /* \"#utility.yul\":2877:2893   */\n      and\n        /* \"#utility.yul\":2866:2893   */\n      swap1\n      pop\n        /* \"#utility.yul\":2813:2899   */\n      swap2\n      swap1\n      pop\n      jump\t// out\n        /* \"#utility.yul\":2905:3023   */\n    tag_92:\n        /* \"#utility.yul\":2976:2998   */\n      tag_157\n        /* \"#utility.yul\":2992:2997   */\n      dup2\n        /* \"#utility.yul\":2976:2998   */\n      tag_91\n      jump\t// in\n    tag_157:\n        /* \"#utility.yul\":2969:2974   */\n      dup2\n        /* \"#utility.yul\":2966:2999   */\n      eq\n        /* \"#utility.yul\":2956:3017   */\n      tag_158\n      jumpi\n        /* \"#utility.yul\":3013:3014   */\n      0x00\n        /* \"#utility.yul\":3010:3011   */\n      0x00\n        /* \"#utility.yul\":3003:3015   */\n      revert\n        /* \"#utility.yul\":2956:3017   */\n    tag_158:\n        /* \"#utility.yul\":2905:3023   */\n      pop\n      jump\t// out\n        /* \"#utility.yul\":3029:3164   */\n    tag_93:\n        /* \"#utility.yul\":3073:3078   */\n      0x00\n        /* \"#utility.yul\":3111:3117   */\n      dup2\n        /* \"#utility.yul\":3098:3118   */\n      calldataload\n        /* \"#utility.yul\":3089:3118   */\n      swap1\n      pop\n        /* \"#utility.yul\":3127:3158   */\n      tag_160\n        /* \"#utility.yul\":3152:3157   */\n      dup2\n        /* \"#utility.yul\":3127:3158   */\n      tag_92\n      jump\t// in\n    tag_160:\n        /* \"#utility.yul\":3029:3164   */\n      swap3\n      swap2\n      pop\n      pop\n      jump\t// out\n        /* \"#utility.yul\":3170:3495   */\n    tag_23:\n        /* \"#utility.yul\":3227:3233   */\n      0x00\n        /* \"#utility.yul\":3276:3278   */\n      0x20\n        /* \"#utility.yul\":3264:3273   */\n      dup3\n        /* \"#utility.yul\":3255:3262   */\n      dup5\n        /* \"#utility.yul\":3251:3274   */\n      sub\n        /* \"#utility.yul\":3247:3279   */\n      slt\n        /* \"#utility.yul\":3244:3363   */\n      iszero\n      tag_162\n      jumpi\n        /* \"#utility.yul\":3282:3361   */\n      tag_163\n      tag_77\n      jump\t// in\n    tag_163:\n        /* \"#utility.yul\":3244:3363   */\n    tag_162:\n        /* \"#utility.yul\":3402:3403   */\n      0x00\n        /* \"#utility.yul\":3427:3478   */\n      tag_164\n        /* \"#utility.yul\":3470:3477   */\n      dup5\n        /* \"#utility.yul\":3461:3467   */\n      dup3\n        /* \"#utility.yul\":3450:3459   */\n      dup6\n        /* \"#utility.yul\":3446:3468   */\n      add\n        /* \"#utility.yul\":3427:3478   */\n      tag_93\n      jump\t// in\n    tag_164:\n        /* \"#utility.yul\":3417:3478   */\n      swap2\n      pop\n        /* \"#utility.yul\":3373:3488   */\n      pop\n        /* \"#utility.yul\":3170:3495   */\n      swap3\n      swap2\n      pop\n      pop\n      jump\t// out\n        /* \"#utility.yul\":3501:3616   */\n    tag_94:\n        /* \"#utility.yul\":3586:3609   */\n      tag_166\n        /* \"#utility.yul\":3603:3608   */\n      dup2\n        /* \"#utility.yul\":3586:3609   */\n      tag_82\n      jump\t// in\n    tag_166:\n        /* \"#utility.yul\":3581:3584   */\n      dup3\n        /* \"#utility.yul\":3574:3610   */\n      mstore\n        /* \"#utility.yul\":3501:3616   */\n      pop\n      pop\n      jump\t// out\n        /* \"#utility.yul\":3622:3840   */\n    tag_26:\n        /* \"#utility.yul\":3713:3717   */\n      0x00\n        /* \"#utility.yul\":3751:3753   */\n      0x20\n        /* \"#utility.yul\":3740:3749   */\n      dup3\n        /* \"#utility.yul\":3736:3754   */\n      add\n        /* \"#utility.yul\":3728:3754   */\n      swap1\n      pop\n        /* \"#utility.yul\":3764:3833   */\n      tag_168\n        /* \"#utility.yul\":3830:3831   */\n      0x00\n        /* \"#utility.yul\":3819:3828   */\n      dup4\n        /* \"#utility.yul\":3815:3832   */\n      add\n        /* \"#utility.yul\":3806:3812   */\n      dup5\n        /* \"#utility.yul\":3764:3833   */\n      tag_94\n      jump\t// in\n    tag_168:\n        /* \"#utility.yul\":3622:3840   */\n      swap3\n      swap2\n      pop\n      pop\n      jump\t// out\n        /* \"#utility.yul\":3846:3964   */\n    tag_95:\n        /* \"#utility.yul\":3933:3957   */\n      tag_170\n        /* \"#utility.yul\":3951:3956   */\n      dup2\n        /* \"#utility.yul\":3933:3957   */\n      tag_79\n      jump\t// in\n    tag_170:\n        /* \"#utility.yul\":3928:3931   */\n      dup3\n        /* \"#utility.yul\":3921:3958   */\n      mstore\n        /* \"#utility.yul\":3846:3964   */\n      pop\n      pop\n      jump\t// out\n        /* \"#utility.yul\":3970:4060   */\n    tag_96:\n        /* \"#utility.yul\":4004:4011   */\n      0x00\n        /* \"#utility.yul\":4047:4052   */\n      dup2\n        /* \"#utility.yul\":4040:4053   */\n      iszero\n        /* \"#utility.yul\":4033:4054   */\n      iszero\n        /* \"#utility.yul\":4022:4054   */\n      swap1\n      pop\n        /* \"#utility.yul\":3970:4060   */\n      swap2\n      swap1\n      pop\n      jump\t// out\n        /* \"#utility.yul\":4066:4175   */\n    tag_97:\n        /* \"#utility.yul\":4147:4168   */\n      tag_173\n        /* \"#utility.yul\":4162:4167   */\n      dup2\n        /* \"#utility.yul\":4147:4168   */\n      tag_96\n      jump\t// in\n    tag_173:\n        /* \"#utility.yul\":4142:4145   */\n      dup3\n        /* \"#utility.yul\":4135:4169   */\n      mstore\n        /* \"#utility.yul\":4066:4175   */\n      pop\n      pop\n      jump\t// out\n        /* \"#utility.yul\":4181:4821   */\n    tag_31:\n        /* \"#utility.yul\":4374:4378   */\n      0x00\n        /* \"#utility.yul\":4412:4415   */\n      0xa0\n        /* \"#utility.yul\":4401:4410   */\n      dup3\n        /* \"#utility.yul\":4397:4416   */\n      add\n        /* \"#utility.yul\":4389:4416   */\n      swap1\n      pop\n        /* \"#utility.yul\":4426:4497   */\n      tag_175\n        /* \"#utility.yul\":4494:4495   */\n      0x00\n        /* \"#utility.yul\":4483:4492   */\n      dup4\n        /* \"#utility.yul\":4479:4496   */\n      add\n        /* \"#utility.yul\":4470:4476   */\n      dup9\n        /* \"#utility.yul\":4426:4497   */\n      tag_95\n      jump\t// in\n    tag_175:\n        /* \"#utility.yul\":4507:4577   */\n      tag_176\n        /* \"#utility.yul\":4573:4575   */\n      0x20\n        /* \"#utility.yul\":4562:4571   */\n      dup4\n        /* \"#utility.yul\":4558:4576   */\n      add\n        /* \"#utility.yul\":4549:4555   */\n      dup8\n        /* \"#utility.yul\":4507:4577   */\n      tag_94\n      jump\t// in\n    tag_176:\n        /* \"#utility.yul\":4587:4657   */\n      tag_177\n        /* \"#utility.yul\":4653:4655   */\n      0x40\n        /* \"#utility.yul\":4642:4651   */\n      dup4\n        /* \"#utility.yul\":4638:4656   */\n      add\n        /* \"#utility.yul\":4629:4635   */\n      dup7\n        /* \"#utility.yul\":4587:4657   */\n      tag_94\n      jump\t// in\n    tag_177:\n        /* \"#utility.yul\":4667:4737   */\n      tag_178\n        /* \"#utility.yul\":4733:4735   */\n      0x60\n        /* \"#utility.yul\":4722:4731   */\n      dup4\n        /* \"#utility.yul\":4718:4736   */\n      add\n        /* \"#utility.yul\":4709:4715   */\n      dup6\n        /* \"#utility.yul\":4667:4737   */\n      tag_94\n      jump\t// in\n    tag_178:\n        /* \"#utility.yul\":4747:4814   */\n      tag_179\n        /* \"#utility.yul\":4809:4812   */\n      0x80\n        /* \"#utility.yul\":4798:4807   */\n      dup4\n        /* \"#utility.yul\":4794:4813   */\n      add\n        /* \"#utility.yul\":4785:4791   */\n      dup5\n        /* \"#utility.yul\":4747:4814   */\n      tag_97\n      jump\t// in\n    tag_179:\n        /* \"#utility.yul\":4181:4821   */\n      swap7\n      swap6\n      pop\n      pop\n      pop\n      pop\n      pop\n      pop\n      jump\t// out\n        /* \"#utility.yul\":4827:4939   */\n    tag_98:\n        /* \"#utility.yul\":4910:4932   */\n      tag_181\n        /* \"#utility.yul\":4926:4931   */\n      dup2\n        /* \"#utility.yul\":4910:4932   */\n      tag_91\n      jump\t// in\n    tag_181:\n        /* \"#utility.yul\":4905:4908   */\n      dup3\n        /* \"#utility.yul\":4898:4933   */\n      mstore\n        /* \"#utility.yul\":4827:4939   */\n      pop\n      pop\n      jump\t// out\n        /* \"#utility.yul\":4945:5159   */\n    tag_41:\n        /* \"#utility.yul\":5034:5038   */\n      0x00\n        /* \"#utility.yul\":5072:5074   */\n      0x20\n        /* \"#utility.yul\":5061:5070   */\n      dup3\n        /* \"#utility.yul\":5057:5075   */\n      add\n        /* \"#utility.yul\":5049:5075   */\n      swap1\n      pop\n        /* \"#utility.yul\":5085:5152   */\n      tag_183\n        /* \"#utility.yul\":5149:5150   */\n      0x00\n        /* \"#utility.yul\":5138:5147   */\n      dup4\n        /* \"#utility.yul\":5134:5151   */\n      add\n        /* \"#utility.yul\":5125:5131   */\n      dup5\n        /* \"#utility.yul\":5085:5152   */\n      tag_98\n      jump\t// in\n    tag_183:\n        /* \"#utility.yul\":4945:5159   */\n      swap3\n      swap2\n      pop\n      pop\n      jump\t// out\n        /* \"#utility.yul\":5165:5345   */\n    tag_99:\n        /* \"#utility.yul\":5213:5290   */\n      0x4e487b7100000000000000000000000000000000000000000000000000000000\n        /* \"#utility.yul\":5210:5211   */\n      0x00\n        /* \"#utility.yul\":5203:5291   */\n      mstore\n        /* \"#utility.yul\":5310:5314   */\n      0x11\n        /* \"#utility.yul\":5307:5308   */\n      0x04\n        /* \"#utility.yul\":5300:5315   */\n      mstore\n        /* \"#utility.yul\":5334:5338   */\n      0x24\n        /* \"#utility.yul\":5331:5332   */\n      0x00\n        /* \"#utility.yul\":5324:5339   */\n      revert\n        /* \"#utility.yul\":5351:5518   */\n    tag_44:\n        /* \"#utility.yul\":5388:5391   */\n      0x00\n        /* \"#utility.yul\":5411:5433   */\n      tag_186\n        /* \"#utility.yul\":5427:5432   */\n      dup3\n        /* \"#utility.yul\":5411:5433   */\n      tag_91\n      jump\t// in\n    tag_186:\n        /* \"#utility.yul\":5402:5433   */\n      swap2\n      pop\n        /* \"#utility.yul\":5455:5459   */\n      0xff\n        /* \"#utility.yul\":5448:5453   */\n      dup3\n        /* \"#utility.yul\":5445:5460   */\n      sub\n        /* \"#utility.yul\":5442:5483   */\n      tag_187\n      jumpi\n        /* \"#utility.yul\":5463:5481   */\n      tag_188\n      tag_99\n      jump\t// in\n    tag_188:\n        /* \"#utility.yul\":5442:5483   */\n    tag_187:\n        /* \"#utility.yul\":5510:5511   */\n      0x01\n        /* \"#utility.yul\":5503:5508   */\n      dup3\n        /* \"#utility.yul\":5499:5512   */\n      add\n        /* \"#utility.yul\":5492:5512   */\n      swap1\n      pop\n        /* \"#utility.yul\":5351:5518   */\n      swap2\n      swap1\n      pop\n      jump\t// out\n        /* \"#utility.yul\":5524:5693   */\n    tag_100:\n        /* \"#utility.yul\":5608:5619   */\n      0x00\n        /* \"#utility.yul\":5642:5648   */\n      dup3\n        /* \"#utility.yul\":5637:5640   */\n      dup3\n        /* \"#utility.yul\":5630:5649   */\n      mstore\n        /* \"#utility.yul\":5682:5686   */\n      0x20\n        /* \"#utility.yul\":5677:5680   */\n      dup3\n        /* \"#utility.yul\":5673:5687   */\n      add\n        /* \"#utility.yul\":5658:5687   */\n      swap1\n      pop\n        /* \"#utility.yul\":5524:5693   */\n      swap3\n      swap2\n      pop\n      pop\n      jump\t// out\n        /* \"#utility.yul\":5699:5869   */\n    tag_101:\n        /* \"#utility.yul\":5839:5861   */\n      0x4475726174696f6e206d757374206265203e2030000000000000000000000000\n        /* \"#utility.yul\":5835:5836   */\n      0x00\n        /* \"#utility.yul\":5827:5833   */\n      dup3\n        /* \"#utility.yul\":5823:5837   */\n      add\n        /* \"#utility.yul\":5816:5862   */\n      mstore\n        /* \"#utility.yul\":5699:5869   */\n      pop\n      jump\t// out\n        /* \"#utility.yul\":5875:6241   */\n    tag_102:\n        /* \"#utility.yul\":6017:6020   */\n      0x00\n        /* \"#utility.yul\":6038:6105   */\n      tag_192\n        /* \"#utility.yul\":6102:6104   */\n      0x14\n        /* \"#utility.yul\":6097:6100   */\n      dup4\n        /* \"#utility.yul\":6038:6105   */\n      tag_100\n      jump\t// in\n    tag_192:\n        /* \"#utility.yul\":6031:6105   */\n      swap2\n      pop\n        /* \"#utility.yul\":6114:6207   */\n      tag_193\n        /* \"#utility.yul\":6203:6206   */\n      dup3\n        /* \"#utility.yul\":6114:6207   */\n      tag_101\n      jump\t// in\n    tag_193:\n        /* \"#utility.yul\":6232:6234   */\n      0x20\n        /* \"#utility.yul\":6227:6230   */\n      dup3\n        /* \"#utility.yul\":6223:6235   */\n      add\n        /* \"#utility.yul\":6216:6235   */\n      swap1\n      pop\n        /* \"#utility.yul\":5875:6241   */\n      swap2\n      swap1\n      pop\n      jump\t// out\n        /* \"#utility.yul\":6247:6666   */\n    tag_47:\n        /* \"#utility.yul\":6413:6417   */\n      0x00\n        /* \"#utility.yul\":6451:6453   */\n      0x20\n        /* \"#utility.yul\":6440:6449   */\n      dup3\n        /* \"#utility.yul\":6436:6454   */\n      add\n        /* \"#utility.yul\":6428:6454   */\n      swap1\n      pop\n        /* \"#utility.yul\":6500:6509   */\n      dup2\n        /* \"#utility.yul\":6494:6498   */\n      dup2\n        /* \"#utility.yul\":6490:6510   */\n      sub\n        /* \"#utility.yul\":6486:6487   */\n      0x00\n        /* \"#utility.yul\":6475:6484   */\n      dup4\n        /* \"#utility.yul\":6471:6488   */\n      add\n        /* \"#utility.yul\":6464:6511   */\n      mstore\n        /* \"#utility.yul\":6528:6659   */\n      tag_195\n        /* \"#utility.yul\":6654:6658   */\n      dup2\n        /* \"#utility.yul\":6528:6659   */\n      tag_102\n      jump\t// in\n    tag_195:\n        /* \"#utility.yul\":6520:6659   */\n      swap1\n      pop\n        /* \"#utility.yul\":6247:6666   */\n      swap2\n      swap1\n      pop\n      jump\t// out\n        /* \"#utility.yul\":6672:6863   */\n    tag_49:\n        /* \"#utility.yul\":6712:6715   */\n      0x00\n        /* \"#utility.yul\":6731:6751   */\n      tag_197\n        /* \"#utility.yul\":6749:6750   */\n      dup3\n        /* \"#utility.yul\":6731:6751   */\n      tag_89\n      jump\t// in\n    tag_197:\n        /* \"#utility.yul\":6726:6751   */\n      swap2\n      pop\n        /* \"#utility.yul\":6765:6785   */\n      tag_198\n        /* \"#utility.yul\":6783:6784   */\n      dup4\n        /* \"#utility.yul\":6765:6785   */\n      tag_89\n      jump\t// in\n    tag_198:\n        /* \"#utility.yul\":6760:6785   */\n      swap3\n      pop\n        /* \"#utility.yul\":6808:6809   */\n      dup3\n        /* \"#utility.yul\":6805:6806   */\n      dup3\n        /* \"#utility.yul\":6801:6810   */\n      add\n        /* \"#utility.yul\":6794:6810   */\n      swap1\n      pop\n        /* \"#utility.yul\":6829:6832   */\n      dup1\n        /* \"#utility.yul\":6826:6827   */\n      dup3\n        /* \"#utility.yul\":6823:6833   */\n      gt\n        /* \"#utility.yul\":6820:6856   */\n      iszero\n      tag_199\n      jumpi\n        /* \"#utility.yul\":6836:6854   */\n      tag_200\n      tag_99\n      jump\t// in\n    tag_200:\n        /* \"#utility.yul\":6820:6856   */\n    tag_199:\n        /* \"#utility.yul\":6672:6863   */\n      swap3\n      swap2\n      pop\n      pop\n      jump\t// out\n        /* \"#utility.yul\":6869:7028   */\n    tag_103:\n        /* \"#utility.yul\":7009:7020   */\n      0x746f6f206561726c790000000000000000000000000000000000000000000000\n        /* \"#utility.yul\":7005:7006   */\n      0x00\n        /* \"#utility.yul\":6997:7003   */\n      dup3\n        /* \"#utility.yul\":6993:7007   */\n      add\n        /* \"#utility.yul\":6986:7021   */\n      mstore\n        /* \"#utility.yul\":6869:7028   */\n      pop\n      jump\t// out\n        /* \"#utility.yul\":7034:7399   */\n    tag_104:\n        /* \"#utility.yul\":7176:7179   */\n      0x00\n        /* \"#utility.yul\":7197:7263   */\n      tag_203\n        /* \"#utility.yul\":7261:7262   */\n      0x09\n        /* \"#utility.yul\":7256:7259   */\n      dup4\n        /* \"#utility.yul\":7197:7263   */\n      tag_100\n      jump\t// in\n    tag_203:\n        /* \"#utility.yul\":7190:7263   */\n      swap2\n      pop\n        /* \"#utility.yul\":7272:7365   */\n      tag_204\n        /* \"#utility.yul\":7361:7364   */\n      dup3\n        /* \"#utility.yul\":7272:7365   */\n      tag_103\n      jump\t// in\n    tag_204:\n        /* \"#utility.yul\":7390:7392   */\n      0x20\n        /* \"#utility.yul\":7385:7388   */\n      dup3\n        /* \"#utility.yul\":7381:7393   */\n      add\n        /* \"#utility.yul\":7374:7393   */\n      swap1\n      pop\n        /* \"#utility.yul\":7034:7399   */\n      swap2\n      swap1\n      pop\n      jump\t// out\n        /* \"#utility.yul\":7405:7824   */\n    tag_53:\n        /* \"#utility.yul\":7571:7575   */\n      0x00\n        /* \"#utility.yul\":7609:7611   */\n      0x20\n        /* \"#utility.yul\":7598:7607   */\n      dup3\n        /* \"#utility.yul\":7594:7612   */\n      add\n        /* \"#utility.yul\":7586:7612   */\n      swap1\n      pop\n        /* \"#utility.yul\":7658:7667   */\n      dup2\n        /* \"#utility.yul\":7652:7656   */\n      dup2\n        /* \"#utility.yul\":7648:7668   */\n      sub\n        /* \"#utility.yul\":7644:7645   */\n      0x00\n        /* \"#utility.yul\":7633:7642   */\n      dup4\n        /* \"#utility.yul\":7629:7646   */\n      add\n        /* \"#utility.yul\":7622:7669   */\n      mstore\n        /* \"#utility.yul\":7686:7817   */\n      tag_206\n        /* \"#utility.yul\":7812:7816   */\n      dup2\n        /* \"#utility.yul\":7686:7817   */\n      tag_104\n      jump\t// in\n    tag_206:\n        /* \"#utility.yul\":7678:7817   */\n      swap1\n      pop\n        /* \"#utility.yul\":7405:7824   */\n      swap2\n      swap1\n      pop\n      jump\t// out\n        /* \"#utility.yul\":7830:7996   */\n    tag_105:\n        /* \"#utility.yul\":7970:7988   */\n      0x616c726561647920657865637574656400000000000000000000000000000000\n        /* \"#utility.yul\":7966:7967   */\n      0x00\n        /* \"#utility.yul\":7958:7964   */\n      dup3\n        /* \"#utility.yul\":7954:7968   */\n      add\n        /* \"#utility.yul\":7947:7989   */\n      mstore\n        /* \"#utility.yul\":7830:7996   */\n      pop\n      jump\t// out\n        /* \"#utility.yul\":8002:8368   */\n    tag_106:\n        /* \"#utility.yul\":8144:8147   */\n      0x00\n        /* \"#utility.yul\":8165:8232   */\n      tag_209\n        /* \"#utility.yul\":8229:8231   */\n      0x10\n        /* \"#utility.yul\":8224:8227   */\n      dup4\n        /* \"#utility.yul\":8165:8232   */\n      tag_100\n      jump\t// in\n    tag_209:\n        /* \"#utility.yul\":8158:8232   */\n      swap2\n      pop\n        /* \"#utility.yul\":8241:8334   */\n      tag_210\n        /* \"#utility.yul\":8330:8333   */\n      dup3\n        /* \"#utility.yul\":8241:8334   */\n      tag_105\n      jump\t// in\n    tag_210:\n        /* \"#utility.yul\":8359:8361   */\n      0x20\n        /* \"#utility.yul\":8354:8357   */\n      dup3\n        /* \"#utility.yul\":8350:8362   */\n      add\n        /* \"#utility.yul\":8343:8362   */\n      swap1\n      pop\n        /* \"#utility.yul\":8002:8368   */\n      swap2\n      swap1\n      pop\n      jump\t// out\n        /* \"#utility.yul\":8374:8793   */\n    tag_56:\n        /* \"#utility.yul\":8540:8544   */\n      0x00\n        /* \"#utility.yul\":8578:8580   */\n      0x20\n        /* \"#utility.yul\":8567:8576   */\n      dup3\n        /* \"#utility.yul\":8563:8581   */\n      add\n        /* \"#utility.yul\":8555:8581   */\n      swap1\n      pop\n        /* \"#utility.yul\":8627:8636   */\n      dup2\n        /* \"#utility.yul\":8621:8625   */\n      dup2\n        /* \"#utility.yul\":8617:8637   */\n      sub\n        /* \"#utility.yul\":8613:8614   */\n      0x00\n        /* \"#utility.yul\":8602:8611   */\n      dup4\n        /* \"#utility.yul\":8598:8615   */\n      add\n        /* \"#utility.yul\":8591:8638   */\n      mstore\n        /* \"#utility.yul\":8655:8786   */\n      tag_212\n        /* \"#utility.yul\":8781:8785   */\n      dup2\n        /* \"#utility.yul\":8655:8786   */\n      tag_106\n      jump\t// in\n    tag_212:\n        /* \"#utility.yul\":8647:8786   */\n      swap1\n      pop\n        /* \"#utility.yul\":8374:8793   */\n      swap2\n      swap1\n      pop\n      jump\t// out\n        /* \"#utility.yul\":8799:8957   */\n    tag_107:\n        /* \"#utility.yul\":8939:8949   */\n      0x6e6f20766f746573000000000000000000000000000000000000000000000000\n        /* \"#utility.yul\":8935:8936   */\n      0x00\n        /* \"#utility.yul\":8927:8933   */\n      dup3\n        /* \"#utility.yul\":8923:8937   */\n      add\n        /* \"#utility.yul\":8916:8950   */\n      mstore\n        /* \"#utility.yul\":8799:8957   */\n      pop\n      jump\t// out\n        /* \"#utility.yul\":8963:9328   */\n    tag_108:\n        /* \"#utility.yul\":9105:9108   */\n      0x00\n        /* \"#utility.yul\":9126:9192   */\n      tag_215\n        /* \"#utility.yul\":9190:9191   */\n      0x08\n        /* \"#utility.yul\":9185:9188   */\n      dup4\n        /* \"#utility.yul\":9126:9192   */\n      tag_100\n      jump\t// in\n    tag_215:\n        /* \"#utility.yul\":9119:9192   */\n      swap2\n      pop\n        /* \"#utility.yul\":9201:9294   */\n      tag_216\n        /* \"#utility.yul\":9290:9293   */\n      dup3\n        /* \"#utility.yul\":9201:9294   */\n      tag_107\n      jump\t// in\n    tag_216:\n        /* \"#utility.yul\":9319:9321   */\n      0x20\n        /* \"#utility.yul\":9314:9317   */\n      dup3\n        /* \"#utility.yul\":9310:9322   */\n      add\n        /* \"#utility.yul\":9303:9322   */\n      swap1\n      pop\n        /* \"#utility.yul\":8963:9328   */\n      swap2\n      swap1\n      pop\n      jump\t// out\n        /* \"#utility.yul\":9334:9753   */\n    tag_59:\n        /* \"#utility.yul\":9500:9504   */\n      0x00\n        /* \"#utility.yul\":9538:9540   */\n      0x20\n        /* \"#utility.yul\":9527:9536   */\n      dup3\n        /* \"#utility.yul\":9523:9541   */\n      add\n        /* \"#utility.yul\":9515:9541   */\n      swap1\n      pop\n        /* \"#utility.yul\":9587:9596   */\n      dup2\n        /* \"#utility.yul\":9581:9585   */\n      dup2\n        /* \"#utility.yul\":9577:9597   */\n      sub\n        /* \"#utility.yul\":9573:9574   */\n      0x00\n        /* \"#utility.yul\":9562:9571   */\n      dup4\n        /* \"#utility.yul\":9558:9575   */\n      add\n        /* \"#utility.yul\":9551:9598   */\n      mstore\n        /* \"#utility.yul\":9615:9746   */\n      tag_218\n        /* \"#utility.yul\":9741:9745   */\n      dup2\n        /* \"#utility.yul\":9615:9746   */\n      tag_108\n      jump\t// in\n    tag_218:\n        /* \"#utility.yul\":9607:9746   */\n      swap1\n      pop\n        /* \"#utility.yul\":9334:9753   */\n      swap2\n      swap1\n      pop\n      jump\t// out\n        /* \"#utility.yul\":9759:9925   */\n    tag_109:\n        /* \"#utility.yul\":9899:9917   */\n      0x496e76616c69642070726f706f73616c00000000000000000000000000000000\n        /* \"#utility.yul\":9895:9896   */\n      0x00\n        /* \"#utility.yul\":9887:9893   */\n      dup3\n        /* \"#utility.yul\":9883:9897   */\n      add\n        /* \"#utility.yul\":9876:9918   */\n      mstore\n        /* \"#utility.yul\":9759:9925   */\n      pop\n      jump\t// out\n        /* \"#utility.yul\":9931:10297   */\n    tag_110:\n        /* \"#utility.yul\":10073:10076   */\n      0x00\n        /* \"#utility.yul\":10094:10161   */\n      tag_221\n        /* \"#utility.yul\":10158:10160   */\n      0x10\n        /* \"#utility.yul\":10153:10156   */\n      dup4\n        /* \"#utility.yul\":10094:10161   */\n      tag_100\n      jump\t// in\n    tag_221:\n        /* \"#utility.yul\":10087:10161   */\n      swap2\n      pop\n        /* \"#utility.yul\":10170:10263   */\n      tag_222\n        /* \"#utility.yul\":10259:10262   */\n      dup3\n        /* \"#utility.yul\":10170:10263   */\n      tag_109\n      jump\t// in\n    tag_222:\n        /* \"#utility.yul\":10288:10290   */\n      0x20\n        /* \"#utility.yul\":10283:10286   */\n      dup3\n        /* \"#utility.yul\":10279:10291   */\n      add\n        /* \"#utility.yul\":10272:10291   */\n      swap1\n      pop\n        /* \"#utility.yul\":9931:10297   */\n      swap2\n      swap1\n      pop\n      jump\t// out\n        /* \"#utility.yul\":10303:10722   */\n    tag_63:\n        /* \"#utility.yul\":10469:10473   */\n      0x00\n        /* \"#utility.yul\":10507:10509   */\n      0x20\n        /* \"#utility.yul\":10496:10505   */\n      dup3\n        /* \"#utility.yul\":10492:10510   */\n      add\n        /* \"#utility.yul\":10484:10510   */\n      swap1\n      pop\n        /* \"#utility.yul\":10556:10565   */\n      dup2\n        /* \"#utility.yul\":10550:10554   */\n      dup2\n        /* \"#utility.yul\":10546:10566   */\n      sub\n        /* \"#utility.yul\":10542:10543   */\n      0x00\n        /* \"#utility.yul\":10531:10540   */\n      dup4\n        /* \"#utility.yul\":10527:10544   */\n      add\n        /* \"#utility.yul\":10520:10567   */\n      mstore\n        /* \"#utility.yul\":10584:10715   */\n      tag_224\n        /* \"#utility.yul\":10710:10714   */\n      dup2\n        /* \"#utility.yul\":10584:10715   */\n      tag_110\n      jump\t// in\n    tag_224:\n        /* \"#utility.yul\":10576:10715   */\n      swap1\n      pop\n        /* \"#utility.yul\":10303:10722   */\n      swap2\n      swap1\n      pop\n      jump\t// out\n        /* \"#utility.yul\":10728:10896   */\n    tag_111:\n        /* \"#utility.yul\":10868:10888   */\n      0x566f74696e67206e6f7420737461727465640000000000000000000000000000\n        /* \"#utility.yul\":10864:10865   */\n      0x00\n        /* \"#utility.yul\":10856:10862   */\n      dup3\n        /* \"#utility.yul\":10852:10866   */\n      add\n        /* \"#utility.yul\":10845:10889   */\n      mstore\n        /* \"#utility.yul\":10728:10896   */\n      pop\n      jump\t// out\n        /* \"#utility.yul\":10902:11268   */\n    tag_112:\n        /* \"#utility.yul\":11044:11047   */\n      0x00\n        /* \"#utility.yul\":11065:11132   */\n      tag_227\n        /* \"#utility.yul\":11129:11131   */\n      0x12\n        /* \"#utility.yul\":11124:11127   */\n      dup4\n        /* \"#utility.yul\":11065:11132   */\n      tag_100\n      jump\t// in\n    tag_227:\n        /* \"#utility.yul\":11058:11132   */\n      swap2\n      pop\n        /* \"#utility.yul\":11141:11234   */\n      tag_228\n        /* \"#utility.yul\":11230:11233   */\n      dup3\n        /* \"#utility.yul\":11141:11234   */\n      tag_111\n      jump\t// in\n    tag_228:\n        /* \"#utility.yul\":11259:11261   */\n      0x20\n        /* \"#utility.yul\":11254:11257   */\n      dup3\n        /* \"#utility.yul\":11250:11262   */\n      add\n        /* \"#utility.yul\":11243:11262   */\n      swap1\n      pop\n        /* \"#utility.yul\":10902:11268   */\n      swap2\n      swap1\n      pop\n      jump\t// out\n        /* \"#utility.yul\":11274:11693   */\n    tag_66:\n        /* \"#utility.yul\":11440:11444   */\n      0x00\n        /* \"#utility.yul\":11478:11480   */\n      0x20\n        /* \"#utility.yul\":11467:11476   */\n      dup3\n        /* \"#utility.yul\":11463:11481   */\n      add\n        /* \"#utility.yul\":11455:11481   */\n      swap1\n      pop\n        /* \"#utility.yul\":11527:11536   */\n      dup2\n        /* \"#utility.yul\":11521:11525   */\n      dup2\n        /* \"#utility.yul\":11517:11537   */\n      sub\n        /* \"#utility.yul\":11513:11514   */\n      0x00\n        /* \"#utility.yul\":11502:11511   */\n      dup4\n        /* \"#utility.yul\":11498:11515   */\n      add\n        /* \"#utility.yul\":11491:11538   */\n      mstore\n        /* \"#utility.yul\":11555:11686   */\n      tag_230\n        /* \"#utility.yul\":11681:11685   */\n      dup2\n        /* \"#utility.yul\":11555:11686   */\n      tag_112\n      jump\t// in\n    tag_230:\n        /* \"#utility.yul\":11547:11686   */\n      swap1\n      pop\n        /* \"#utility.yul\":11274:11693   */\n      swap2\n      swap1\n      pop\n      jump\t// out\n        /* \"#utility.yul\":11699:11861   */\n    tag_113:\n        /* \"#utility.yul\":11839:11853   */\n      0x566f74696e6720656e6465640000000000000000000000000000000000000000\n        /* \"#utility.yul\":11835:11836   */\n      0x00\n        /* \"#utility.yul\":11827:11833   */\n      dup3\n        /* \"#utility.yul\":11823:11837   */\n      add\n        /* \"#utility.yul\":11816:11854   */\n      mstore\n        /* \"#utility.yul\":11699:11861   */\n      pop\n      jump\t// out\n        /* \"#utility.yul\":11867:12233   */\n    tag_114:\n        /* \"#utility.yul\":12009:12012   */\n      0x00\n        /* \"#utility.yul\":12030:12097   */\n      tag_233\n        /* \"#utility.yul\":12094:12096   */\n      0x0c\n        /* \"#utility.yul\":12089:12092   */\n      dup4\n        /* \"#utility.yul\":12030:12097   */\n      tag_100\n      jump\t// in\n    tag_233:\n        /* \"#utility.yul\":12023:12097   */\n      swap2\n      pop\n        /* \"#utility.yul\":12106:12199   */\n      tag_234\n        /* \"#utility.yul\":12195:12198   */\n      dup3\n        /* \"#utility.yul\":12106:12199   */\n      tag_113\n      jump\t// in\n    tag_234:\n        /* \"#utility.yul\":12224:12226   */\n      0x20\n        /* \"#utility.yul\":12219:12222   */\n      dup3\n        /* \"#utility.yul\":12215:12227   */\n      add\n        /* \"#utility.yul\":12208:12227   */\n      swap1\n      pop\n        /* \"#utility.yul\":11867:12233   */\n      swap2\n      swap1\n      pop\n      jump\t// out\n        /* \"#utility.yul\":12239:12658   */\n    tag_69:\n        /* \"#utility.yul\":12405:12409   */\n      0x00\n        /* \"#utility.yul\":12443:12445   */\n      0x20\n        /* \"#utility.yul\":12432:12441   */\n      dup3\n        /* \"#utility.yul\":12428:12446   */\n      add\n        /* \"#utility.yul\":12420:12446   */\n      swap1\n      pop\n        /* \"#utility.yul\":12492:12501   */\n      dup2\n        /* \"#utility.yul\":12486:12490   */\n      dup2\n        /* \"#utility.yul\":12482:12502   */\n      sub\n        /* \"#utility.yul\":12478:12479   */\n      0x00\n        /* \"#utility.yul\":12467:12476   */\n      dup4\n        /* \"#utility.yul\":12463:12480   */\n      add\n        /* \"#utility.yul\":12456:12503   */\n      mstore\n        /* \"#utility.yul\":12520:12651   */\n      tag_236\n        /* \"#utility.yul\":12646:12650   */\n      dup2\n        /* \"#utility.yul\":12520:12651   */\n      tag_114\n      jump\t// in\n    tag_236:\n        /* \"#utility.yul\":12512:12651   */\n      swap1\n      pop\n        /* \"#utility.yul\":12239:12658   */\n      swap2\n      swap1\n      pop\n      jump\t// out\n        /* \"#utility.yul\":12664:12827   */\n    tag_115:\n        /* \"#utility.yul\":12804:12819   */\n      0x416c726561647920766f74656400000000000000000000000000000000000000\n        /* \"#utility.yul\":12800:12801   */\n      0x00\n        /* \"#utility.yul\":12792:12798   */\n      dup3\n        /* \"#utility.yul\":12788:12802   */\n      add\n        /* \"#utility.yul\":12781:12820   */\n      mstore\n        /* \"#utility.yul\":12664:12827   */\n      pop\n      jump\t// out\n        /* \"#utility.yul\":12833:13199   */\n    tag_116:\n        /* \"#utility.yul\":12975:12978   */\n      0x00\n        /* \"#utility.yul\":12996:13063   */\n      tag_239\n        /* \"#utility.yul\":13060:13062   */\n      0x0d\n        /* \"#utility.yul\":13055:13058   */\n      dup4\n        /* \"#utility.yul\":12996:13063   */\n      tag_100\n      jump\t// in\n    tag_239:\n        /* \"#utility.yul\":12989:13063   */\n      swap2\n      pop\n        /* \"#utility.yul\":13072:13165   */\n      tag_240\n        /* \"#utility.yul\":13161:13164   */\n      dup3\n        /* \"#utility.yul\":13072:13165   */\n      tag_115\n      jump\t// in\n    tag_240:\n        /* \"#utility.yul\":13190:13192   */\n      0x20\n        /* \"#utility.yul\":13185:13188   */\n      dup3\n        /* \"#utility.yul\":13181:13193   */\n      add\n        /* \"#utility.yul\":13174:13193   */\n      swap1\n      pop\n        /* \"#utility.yul\":12833:13199   */\n      swap2\n      swap1\n      pop\n      jump\t// out\n        /* \"#utility.yul\":13205:13624   */\n    tag_72:\n        /* \"#utility.yul\":13371:13375   */\n      0x00\n        /* \"#utility.yul\":13409:13411   */\n      0x20\n        /* \"#utility.yul\":13398:13407   */\n      dup3\n        /* \"#utility.yul\":13394:13412   */\n      add\n        /* \"#utility.yul\":13386:13412   */\n      swap1\n      pop\n        /* \"#utility.yul\":13458:13467   */\n      dup2\n        /* \"#utility.yul\":13452:13456   */\n      dup2\n        /* \"#utility.yul\":13448:13468   */\n      sub\n        /* \"#utility.yul\":13444:13445   */\n      0x00\n        /* \"#utility.yul\":13433:13442   */\n      dup4\n        /* \"#utility.yul\":13429:13446   */\n      add\n        /* \"#utility.yul\":13422:13469   */\n      mstore\n        /* \"#utility.yul\":13486:13617   */\n      tag_242\n        /* \"#utility.yul\":13612:13616   */\n      dup2\n        /* \"#utility.yul\":13486:13617   */\n      tag_116\n      jump\t// in\n    tag_242:\n        /* \"#utility.yul\":13478:13617   */\n      swap1\n      pop\n        /* \"#utility.yul\":13205:13624   */\n      swap2\n      swap1\n      pop\n      jump\t// out\n        /* \"#utility.yul\":13630:13805   */\n    tag_74:\n        /* \"#utility.yul\":13668:13671   */\n      0x00\n        /* \"#utility.yul\":13691:13714   */\n      tag_244\n        /* \"#utility.yul\":13708:13713   */\n      dup3\n        /* \"#utility.yul\":13691:13714   */\n      tag_82\n      jump\t// in\n    tag_244:\n        /* \"#utility.yul\":13682:13714   */\n      swap2\n      pop\n        /* \"#utility.yul\":13736:13746   */\n      0xffffffff\n        /* \"#utility.yul\":13729:13734   */\n      dup3\n        /* \"#utility.yul\":13726:13747   */\n      sub\n        /* \"#utility.yul\":13723:13770   */\n      tag_245\n      jumpi\n        /* \"#utility.yul\":13750:13768   */\n      tag_246\n      tag_99\n      jump\t// in\n    tag_246:\n        /* \"#utility.yul\":13723:13770   */\n    tag_245:\n        /* \"#utility.yul\":13797:13798   */\n      0x01\n        /* \"#utility.yul\":13790:13795   */\n      dup3\n        /* \"#utility.yul\":13786:13799   */\n      add\n        /* \"#utility.yul\":13779:13799   */\n      swap1\n      pop\n        /* \"#utility.yul\":13630:13805   */\n      swap2\n      swap1\n      pop\n      jump\t// out\n\n    auxdata: 0xa26469706673582212206d7405e31632f59577987469e4008c486679875b806b914a36215568e51e59be64736f6c634300081e0033\n}\n",
				"bytecode": {
					"linkReferences": {},
					"object": "6080604052348015600e575f5ffd5b50610f2a8061001c5f395ff3fe608060405234801561000f575f5ffd5b506004361061007b575f3560e01c806384acf0f51161005957806384acf0f5146100fb578063a8593a141461012f578063b3f98adc1461014b578063da35c664146101675761007b565b8063356442d71461007f5780634763d4e71461009b5780636760b1c0146100cb575b5f5ffd5b610099600480360381019061009491906108d2565b610185565b005b6100b560048036038101906100b0919061096a565b610351565b6040516100c291906109ad565b60405180910390f35b6100e560048036038101906100e091906109fc565b610366565b6040516100f29190610a36565b60405180910390f35b610115600480360381019061011091906109fc565b610386565b604051610126959493929190610a78565b60405180910390f35b610149600480360381019061014491906109fc565b6103f4565b005b610165600480360381019061016091906109fc565b610538565b005b61016f610851565b60405161017c9190610ad8565b60405180910390f35b5f5f5f9054906101000a900460ff1690505f5f81819054906101000a900460ff16809291906101b390610b1e565b91906101000a81548160ff021916908360ff160217905550505f8263ffffffff1611610214576040517f08c379a000000000000000000000000000000000000000000000000000000000815260040161020b90610ba0565b60405180910390fd5b5f6040518060a001604052808581526020015f63ffffffff1681526020014263ffffffff1681526020018463ffffffff16426102509190610bbe565b63ffffffff1681526020015f151581525090508060015f8460ff1660ff1681526020019081526020015f205f820151815f01556020820151816001015f6101000a81548163ffffffff021916908363ffffffff16021790555060408201518160010160046101000a81548163ffffffff021916908363ffffffff16021790555060608201518160010160086101000a81548163ffffffff021916908363ffffffff160217905550608082015181600101600c6101000a81548160ff021916908315150217905550905050838260ff167f6c7710c2a1c50986a0a925432a5e03d36955fcdcd97d649c8f0791afa862ecee60405160405180910390a350505050565b6002602052805f5260405f205f915090505481565b6003602052805f5260405f205f915054906101000a900463ffffffff1681565b6001602052805f5260405f205f91509050805f015490806001015f9054906101000a900463ffffffff16908060010160049054906101000a900463ffffffff16908060010160089054906101000a900463ffffffff169080600101600c9054906101000a900460ff16905085565b5f60015f8360ff1660ff1681526020019081526020015f2090508060010160089054906101000a900463ffffffff1663ffffffff16421161046a576040517f08c379a000000000000000000000000000000000000000000000000000000000815260040161046190610c3b565b60405180910390fd5b80600101600c9054906101000a900460ff16156104bc576040517f08c379a00000000000000000000000000000000000000000000000000000000081526004016104b390610ca3565b60405180910390fd5b5f816001015f9054906101000a900463ffffffff1663ffffffff1611610517576040517f08c379a000000000000000000000000000000000000000000000000000000000815260040161050e90610d0b565b60405180910390fd5b600181600101600c6101000a81548160ff0219169083151502179055505050565b5f5f9054906101000a900460ff1660ff168160ff161061058d576040517f08c379a000000000000000000000000000000000000000000000000000000000815260040161058490610d73565b60405180910390fd5b5f42905060015f8360ff1660ff1681526020019081526020015f2060010160049054906101000a900463ffffffff1663ffffffff168163ffffffff16101561060a576040517f08c379a000000000000000000000000000000000000000000000000000000000815260040161060190610ddb565b60405180910390fd5b60015f8360ff1660ff1681526020019081526020015f2060010160089054906101000a900463ffffffff1663ffffffff168163ffffffff161115610683576040517f08c379a000000000000000000000000000000000000000000000000000000000815260040161067a90610e43565b60405180910390fd5b5f60025f3373ffffffffffffffffffffffffffffffffffffffff1673ffffffffffffffffffffffffffffffffffffffff1681526020019081526020015f205490505f8360ff166001901b90505f81831614610713576040517f08c379a000000000000000000000000000000000000000000000000000000000815260040161070a90610eab565b60405180910390fd5b80821760025f3373ffffffffffffffffffffffffffffffffffffffff1673ffffffffffffffffffffffffffffffffffffffff1681526020019081526020015f208190555060015f8560ff1660ff1681526020019081526020015f206001015f81819054906101000a900463ffffffff168092919061079090610ec9565b91906101000a81548163ffffffff021916908363ffffffff1602179055505060035f8560ff1660ff1681526020019081526020015f205f81819054906101000a900463ffffffff16809291906107e590610ec9565b91906101000a81548163ffffffff021916908363ffffffff160217905550508360ff163373ffffffffffffffffffffffffffffffffffffffff167f14075e33dffdc00c1fcaf75d0f86d667170be57fb566b12b41b499e5fa53b12560405160405180910390a350505050565b5f5f9054906101000a900460ff1681565b5f5ffd5b5f819050919050565b61087881610866565b8114610882575f5ffd5b50565b5f813590506108938161086f565b92915050565b5f63ffffffff82169050919050565b6108b181610899565b81146108bb575f5ffd5b50565b5f813590506108cc816108a8565b92915050565b5f5f604083850312156108e8576108e7610862565b5b5f6108f585828601610885565b9250506020610906858286016108be565b9150509250929050565b5f73ffffffffffffffffffffffffffffffffffffffff82169050919050565b5f61093982610910565b9050919050565b6109498161092f565b8114610953575f5ffd5b50565b5f8135905061096481610940565b92915050565b5f6020828403121561097f5761097e610862565b5b5f61098c84828501610956565b91505092915050565b5f819050919050565b6109a781610995565b82525050565b5f6020820190506109c05f83018461099e565b92915050565b5f60ff82169050919050565b6109db816109c6565b81146109e5575f5ffd5b50565b5f813590506109f6816109d2565b92915050565b5f60208284031215610a1157610a10610862565b5b5f610a1e848285016109e8565b91505092915050565b610a3081610899565b82525050565b5f602082019050610a495f830184610a27565b92915050565b610a5881610866565b82525050565b5f8115159050919050565b610a7281610a5e565b82525050565b5f60a082019050610a8b5f830188610a4f565b610a986020830187610a27565b610aa56040830186610a27565b610ab26060830185610a27565b610abf6080830184610a69565b9695505050505050565b610ad2816109c6565b82525050565b5f602082019050610aeb5f830184610ac9565b92915050565b7f4e487b71000000000000000000000000000000000000000000000000000000005f52601160045260245ffd5b5f610b28826109c6565b915060ff8203610b3b57610b3a610af1565b5b600182019050919050565b5f82825260208201905092915050565b7f4475726174696f6e206d757374206265203e20300000000000000000000000005f82015250565b5f610b8a601483610b46565b9150610b9582610b56565b602082019050919050565b5f6020820190508181035f830152610bb781610b7e565b9050919050565b5f610bc882610995565b9150610bd383610995565b9250828201905080821115610beb57610bea610af1565b5b92915050565b7f746f6f206561726c7900000000000000000000000000000000000000000000005f82015250565b5f610c25600983610b46565b9150610c3082610bf1565b602082019050919050565b5f6020820190508181035f830152610c5281610c19565b9050919050565b7f616c7265616479206578656375746564000000000000000000000000000000005f82015250565b5f610c8d601083610b46565b9150610c9882610c59565b602082019050919050565b5f6020820190508181035f830152610cba81610c81565b9050919050565b7f6e6f20766f7465730000000000000000000000000000000000000000000000005f82015250565b5f610cf5600883610b46565b9150610d0082610cc1565b602082019050919050565b5f6020820190508181035f830152610d2281610ce9565b9050919050565b7f496e76616c69642070726f706f73616c000000000000000000000000000000005f82015250565b5f610d5d601083610b46565b9150610d6882610d29565b602082019050919050565b5f6020820190508181035f830152610d8a81610d51565b9050919050565b7f566f74696e67206e6f74207374617274656400000000000000000000000000005f82015250565b5f610dc5601283610b46565b9150610dd082610d91565b602082019050919050565b5f6020820190508181035f830152610df281610db9565b9050919050565b7f566f74696e6720656e64656400000000000000000000000000000000000000005f82015250565b5f610e2d600c83610b46565b9150610e3882610df9565b602082019050919050565b5f6020820190508181035f830152610e5a81610e21565b9050919050565b7f416c726561647920766f746564000000000000000000000000000000000000005f82015250565b5f610e95600d83610b46565b9150610ea082610e61565b602082019050919050565b5f6020820190508181035f830152610ec281610e89565b9050919050565b5f610ed382610899565b915063ffffffff8203610ee957610ee8610af1565b5b60018201905091905056fea26469706673582212206d7405e31632f59577987469e4008c486679875b806b914a36215568e51e59be64736f6c634300081e0033",
					"opcodes": "PUSH1 0x80 PUSH1 0x40 MSTORE CALLVALUE DUP1 ISZERO PUSH1 0xE JUMPI PUSH0 PUSH0 REVERT JUMPDEST POP PUSH2 0xF2A DUP1 PUSH2 0x1C PUSH0 CODECOPY PUSH0 RETURN INVALID PUSH1 0x80 PUSH1 0x40 MSTORE CALLVALUE DUP1 ISZERO PUSH2 0xF JUMPI PUSH0 PUSH0 REVERT JUMPDEST POP PUSH1 0x4 CALLDATASIZE LT PUSH2 0x7B JUMPI PUSH0 CALLDATALOAD PUSH1 0xE0 SHR DUP1 PUSH4 0x84ACF0F5 GT PUSH2 0x59 JUMPI DUP1 PUSH4 0x84ACF0F5 EQ PUSH2 0xFB JUMPI DUP1 PUSH4 0xA8593A14 EQ PUSH2 0x12F JUMPI DUP1 PUSH4 0xB3F98ADC EQ PUSH2 0x14B JUMPI DUP1 PUSH4 0xDA35C664 EQ PUSH2 0x167 JUMPI PUSH2 0x7B JUMP JUMPDEST DUP1 PUSH4 0x356442D7 EQ PUSH2 0x7F JUMPI DUP1 PUSH4 0x4763D4E7 EQ PUSH2 0x9B JUMPI DUP1 PUSH4 0x6760B1C0 EQ PUSH2 0xCB JUMPI JUMPDEST PUSH0 PUSH0 REVERT JUMPDEST PUSH2 0x99 PUSH1 0x4 DUP1 CALLDATASIZE SUB DUP2 ADD SWAP1 PUSH2 0x94 SWAP2 SWAP1 PUSH2 0x8D2 JUMP JUMPDEST PUSH2 0x185 JUMP JUMPDEST STOP JUMPDEST PUSH2 0xB5 PUSH1 0x4 DUP1 CALLDATASIZE SUB DUP2 ADD SWAP1 PUSH2 0xB0 SWAP2 SWAP1 PUSH2 0x96A JUMP JUMPDEST PUSH2 0x351 JUMP JUMPDEST PUSH1 0x40 MLOAD PUSH2 0xC2 SWAP2 SWAP1 PUSH2 0x9AD JUMP JUMPDEST PUSH1 0x40 MLOAD DUP1 SWAP2 SUB SWAP1 RETURN JUMPDEST PUSH2 0xE5 PUSH1 0x4 DUP1 CALLDATASIZE SUB DUP2 ADD SWAP1 PUSH2 0xE0 SWAP2 SWAP1 PUSH2 0x9FC JUMP JUMPDEST PUSH2 0x366 JUMP JUMPDEST PUSH1 0x40 MLOAD PUSH2 0xF2 SWAP2 SWAP1 PUSH2 0xA36 JUMP JUMPDEST PUSH1 0x40 MLOAD DUP1 SWAP2 SUB SWAP1 RETURN JUMPDEST PUSH2 0x115 PUSH1 0x4 DUP1 CALLDATASIZE SUB DUP2 ADD SWAP1 PUSH2 0x110 SWAP2 SWAP1 PUSH2 0x9FC JUMP JUMPDEST PUSH2 0x386 JUMP JUMPDEST PUSH1 0x40 MLOAD PUSH2 0x126 SWAP6 SWAP5 SWAP4 SWAP3 SWAP2 SWAP1 PUSH2 0xA78 JUMP JUMPDEST PUSH1 0x40 MLOAD DUP1 SWAP2 SUB SWAP1 RETURN JUMPDEST PUSH2 0x149 PUSH1 0x4 DUP1 CALLDATASIZE SUB DUP2 ADD SWAP1 PUSH2 0x144 SWAP2 SWAP1 PUSH2 0x9FC JUMP JUMPDEST PUSH2 0x3F4 JUMP JUMPDEST STOP JUMPDEST PUSH2 0x165 PUSH1 0x4 DUP1 CALLDATASIZE SUB DUP2 ADD SWAP1 PUSH2 0x160 SWAP2 SWAP1 PUSH2 0x9FC JUMP JUMPDEST PUSH2 0x538 JUMP JUMPDEST STOP JUMPDEST PUSH2 0x16F PUSH2 0x851 JUMP JUMPDEST PUSH1 0x40 MLOAD PUSH2 0x17C SWAP2 SWAP1 PUSH2 0xAD8 JUMP JUMPDEST PUSH1 0x40 MLOAD DUP1 SWAP2 SUB SWAP1 RETURN JUMPDEST PUSH0 PUSH0 PUSH0 SWAP1 SLOAD SWAP1 PUSH2 0x100 EXP SWAP1 DIV PUSH1 0xFF AND SWAP1 POP PUSH0 PUSH0 DUP2 DUP2 SWAP1 SLOAD SWAP1 PUSH2 0x100 EXP SWAP1 DIV PUSH1 0xFF AND DUP1 SWAP3 SWAP2 SWAP1 PUSH2 0x1B3 SWAP1 PUSH2 0xB1E JUMP JUMPDEST SWAP2 SWAP1 PUSH2 0x100 EXP DUP2 SLOAD DUP2 PUSH1 0xFF MUL NOT AND SWAP1 DUP4 PUSH1 0xFF AND MUL OR SWAP1 SSTORE POP POP PUSH0 DUP3 PUSH4 0xFFFFFFFF AND GT PUSH2 0x214 JUMPI PUSH1 0x40 MLOAD PUSH32 0x8C379A000000000000000000000000000000000000000000000000000000000 DUP2 MSTORE PUSH1 0x4 ADD PUSH2 0x20B SWAP1 PUSH2 0xBA0 JUMP JUMPDEST PUSH1 0x40 MLOAD DUP1 SWAP2 SUB SWAP1 REVERT JUMPDEST PUSH0 PUSH1 0x40 MLOAD DUP1 PUSH1 0xA0 ADD PUSH1 0x40 MSTORE DUP1 DUP6 DUP2 MSTORE PUSH1 0x20 ADD PUSH0 PUSH4 0xFFFFFFFF AND DUP2 MSTORE PUSH1 0x20 ADD TIMESTAMP PUSH4 0xFFFFFFFF AND DUP2 MSTORE PUSH1 0x20 ADD DUP5 PUSH4 0xFFFFFFFF AND TIMESTAMP PUSH2 0x250 SWAP2 SWAP1 PUSH2 0xBBE JUMP JUMPDEST PUSH4 0xFFFFFFFF AND DUP2 MSTORE PUSH1 0x20 ADD PUSH0 ISZERO ISZERO DUP2 MSTORE POP SWAP1 POP DUP1 PUSH1 0x1 PUSH0 DUP5 PUSH1 0xFF AND PUSH1 0xFF AND DUP2 MSTORE PUSH1 0x20 ADD SWAP1 DUP2 MSTORE PUSH1 0x20 ADD PUSH0 KECCAK256 PUSH0 DUP3 ADD MLOAD DUP2 PUSH0 ADD SSTORE PUSH1 0x20 DUP3 ADD MLOAD DUP2 PUSH1 0x1 ADD PUSH0 PUSH2 0x100 EXP DUP2 SLOAD DUP2 PUSH4 0xFFFFFFFF MUL NOT AND SWAP1 DUP4 PUSH4 0xFFFFFFFF AND MUL OR SWAP1 SSTORE POP PUSH1 0x40 DUP3 ADD MLOAD DUP2 PUSH1 0x1 ADD PUSH1 0x4 PUSH2 0x100 EXP DUP2 SLOAD DUP2 PUSH4 0xFFFFFFFF MUL NOT AND SWAP1 DUP4 PUSH4 0xFFFFFFFF AND MUL OR SWAP1 SSTORE POP PUSH1 0x60 DUP3 ADD MLOAD DUP2 PUSH1 0x1 ADD PUSH1 0x8 PUSH2 0x100 EXP DUP2 SLOAD DUP2 PUSH4 0xFFFFFFFF MUL NOT AND SWAP1 DUP4 PUSH4 0xFFFFFFFF AND MUL OR SWAP1 SSTORE POP PUSH1 0x80 DUP3 ADD MLOAD DUP2 PUSH1 0x1 ADD PUSH1 0xC PUSH2 0x100 EXP DUP2 SLOAD DUP2 PUSH1 0xFF MUL NOT AND SWAP1 DUP4 ISZERO ISZERO MUL OR SWAP1 SSTORE POP SWAP1 POP POP DUP4 DUP3 PUSH1 0xFF AND PUSH32 0x6C7710C2A1C50986A0A925432A5E03D36955FCDCD97D649C8F0791AFA862ECEE PUSH1 0x40 MLOAD PUSH1 0x40 MLOAD DUP1 SWAP2 SUB SWAP1 LOG3 POP POP POP POP JUMP JUMPDEST PUSH1 0x2 PUSH1 0x20 MSTORE DUP1 PUSH0 MSTORE PUSH1 0x40 PUSH0 KECCAK256 PUSH0 SWAP2 POP SWAP1 POP SLOAD DUP2 JUMP JUMPDEST PUSH1 0x3 PUSH1 0x20 MSTORE DUP1 PUSH0 MSTORE PUSH1 0x40 PUSH0 KECCAK256 PUSH0 SWAP2 POP SLOAD SWAP1 PUSH2 0x100 EXP SWAP1 DIV PUSH4 0xFFFFFFFF AND DUP2 JUMP JUMPDEST PUSH1 0x1 PUSH1 0x20 MSTORE DUP1 PUSH0 MSTORE PUSH1 0x40 PUSH0 KECCAK256 PUSH0 SWAP2 POP SWAP1 POP DUP1 PUSH0 ADD SLOAD SWAP1 DUP1 PUSH1 0x1 ADD PUSH0 SWAP1 SLOAD SWAP1 PUSH2 0x100 EXP SWAP1 DIV PUSH4 0xFFFFFFFF AND SWAP1 DUP1 PUSH1 0x1 ADD PUSH1 0x4 SWAP1 SLOAD SWAP1 PUSH2 0x100 EXP SWAP1 DIV PUSH4 0xFFFFFFFF AND SWAP1 DUP1 PUSH1 0x1 ADD PUSH1 0x8 SWAP1 SLOAD SWAP1 PUSH2 0x100 EXP SWAP1 DIV PUSH4 0xFFFFFFFF AND SWAP1 DUP1 PUSH1 0x1 ADD PUSH1 0xC SWAP1 SLOAD SWAP1 PUSH2 0x100 EXP SWAP1 DIV PUSH1 0xFF AND SWAP1 POP DUP6 JUMP JUMPDEST PUSH0 PUSH1 0x1 PUSH0 DUP4 PUSH1 0xFF AND PUSH1 0xFF AND DUP2 MSTORE PUSH1 0x20 ADD SWAP1 DUP2 MSTORE PUSH1 0x20 ADD PUSH0 KECCAK256 SWAP1 POP DUP1 PUSH1 0x1 ADD PUSH1 0x8 SWAP1 SLOAD SWAP1 PUSH2 0x100 EXP SWAP1 DIV PUSH4 0xFFFFFFFF AND PUSH4 0xFFFFFFFF AND TIMESTAMP GT PUSH2 0x46A JUMPI PUSH1 0x40 MLOAD PUSH32 0x8C379A000000000000000000000000000000000000000000000000000000000 DUP2 MSTORE PUSH1 0x4 ADD PUSH2 0x461 SWAP1 PUSH2 0xC3B JUMP JUMPDEST PUSH1 0x40 MLOAD DUP1 SWAP2 SUB SWAP1 REVERT JUMPDEST DUP1 PUSH1 0x1 ADD PUSH1 0xC SWAP1 SLOAD SWAP1 PUSH2 0x100 EXP SWAP1 DIV PUSH1 0xFF AND ISZERO PUSH2 0x4BC JUMPI PUSH1 0x40 MLOAD PUSH32 0x8C379A000000000000000000000000000000000000000000000000000000000 DUP2 MSTORE PUSH1 0x4 ADD PUSH2 0x4B3 SWAP1 PUSH2 0xCA3 JUMP JUMPDEST PUSH1 0x40 MLOAD DUP1 SWAP2 SUB SWAP1 REVERT JUMPDEST PUSH0 DUP2 PUSH1 0x1 ADD PUSH0 SWAP1 SLOAD SWAP1 PUSH2 0x100 EXP SWAP1 DIV PUSH4 0xFFFFFFFF AND PUSH4 0xFFFFFFFF AND GT PUSH2 0x517 JUMPI PUSH1 0x40 MLOAD PUSH32 0x8C379A000000000000000000000000000000000000000000000000000000000 DUP2 MSTORE PUSH1 0x4 ADD PUSH2 0x50E SWAP1 PUSH2 0xD0B JUMP JUMPDEST PUSH1 0x40 MLOAD DUP1 SWAP2 SUB SWAP1 REVERT JUMPDEST PUSH1 0x1 DUP2 PUSH1 0x1 ADD PUSH1 0xC PUSH2 0x100 EXP DUP2 SLOAD DUP2 PUSH1 0xFF MUL NOT AND SWAP1 DUP4 ISZERO ISZERO MUL OR SWAP1 SSTORE POP POP POP JUMP JUMPDEST PUSH0 PUSH0 SWAP1 SLOAD SWAP1 PUSH2 0x100 EXP SWAP1 DIV PUSH1 0xFF AND PUSH1 0xFF AND DUP2 PUSH1 0xFF AND LT PUSH2 0x58D JUMPI PUSH1 0x40 MLOAD PUSH32 0x8C379A000000000000000000000000000000000000000000000000000000000 DUP2 MSTORE PUSH1 0x4 ADD PUSH2 0x584 SWAP1 PUSH2 0xD73 JUMP JUMPDEST PUSH1 0x40 MLOAD DUP1 SWAP2 SUB SWAP1 REVERT JUMPDEST PUSH0 TIMESTAMP SWAP1 POP PUSH1 0x1 PUSH0 DUP4 PUSH1 0xFF AND PUSH1 0xFF AND DUP2 MSTORE PUSH1 0x20 ADD SWAP1 DUP2 MSTORE PUSH1 0x20 ADD PUSH0 KECCAK256 PUSH1 0x1 ADD PUSH1 0x4 SWAP1 SLOAD SWAP1 PUSH2 0x100 EXP SWAP1 DIV PUSH4 0xFFFFFFFF AND PUSH4 0xFFFFFFFF AND DUP2 PUSH4 0xFFFFFFFF AND LT ISZERO PUSH2 0x60A JUMPI PUSH1 0x40 MLOAD PUSH32 0x8C379A000000000000000000000000000000000000000000000000000000000 DUP2 MSTORE PUSH1 0x4 ADD PUSH2 0x601 SWAP1 PUSH2 0xDDB JUMP JUMPDEST PUSH1 0x40 MLOAD DUP1 SWAP2 SUB SWAP1 REVERT JUMPDEST PUSH1 0x1 PUSH0 DUP4 PUSH1 0xFF AND PUSH1 0xFF AND DUP2 MSTORE PUSH1 0x20 ADD SWAP1 DUP2 MSTORE PUSH1 0x20 ADD PUSH0 KECCAK256 PUSH1 0x1 ADD PUSH1 0x8 SWAP1 SLOAD SWAP1 PUSH2 0x100 EXP SWAP1 DIV PUSH4 0xFFFFFFFF AND PUSH4 0xFFFFFFFF AND DUP2 PUSH4 0xFFFFFFFF AND GT ISZERO PUSH2 0x683 JUMPI PUSH1 0x40 MLOAD PUSH32 0x8C379A000000000000000000000000000000000000000000000000000000000 DUP2 MSTORE PUSH1 0x4 ADD PUSH2 0x67A SWAP1 PUSH2 0xE43 JUMP JUMPDEST PUSH1 0x40 MLOAD DUP1 SWAP2 SUB SWAP1 REVERT JUMPDEST PUSH0 PUSH1 0x2 PUSH0 CALLER PUSH20 0xFFFFFFFFFFFFFFFFFFFFFFFFFFFFFFFFFFFFFFFF AND PUSH20 0xFFFFFFFFFFFFFFFFFFFFFFFFFFFFFFFFFFFFFFFF AND DUP2 MSTORE PUSH1 0x20 ADD SWAP1 DUP2 MSTORE PUSH1 0x20 ADD PUSH0 KECCAK256 SLOAD SWAP1 POP PUSH0 DUP4 PUSH1 0xFF AND PUSH1 0x1 SWAP1 SHL SWAP1 POP PUSH0 DUP2 DUP4 AND EQ PUSH2 0x713 JUMPI PUSH1 0x40 MLOAD PUSH32 0x8C379A000000000000000000000000000000000000000000000000000000000 DUP2 MSTORE PUSH1 0x4 ADD PUSH2 0x70A SWAP1 PUSH2 0xEAB JUMP JUMPDEST PUSH1 0x40 MLOAD DUP1 SWAP2 SUB SWAP1 REVERT JUMPDEST DUP1 DUP3 OR PUSH1 0x2 PUSH0 CALLER PUSH20 0xFFFFFFFFFFFFFFFFFFFFFFFFFFFFFFFFFFFFFFFF AND PUSH20 0xFFFFFFFFFFFFFFFFFFFFFFFFFFFFFFFFFFFFFFFF AND DUP2 MSTORE PUSH1 0x20 ADD SWAP1 DUP2 MSTORE PUSH1 0x20 ADD PUSH0 KECCAK256 DUP2 SWAP1 SSTORE POP PUSH1 0x1 PUSH0 DUP6 PUSH1 0xFF AND PUSH1 0xFF AND DUP2 MSTORE PUSH1 0x20 ADD SWAP1 DUP2 MSTORE PUSH1 0x20 ADD PUSH0 KECCAK256 PUSH1 0x1 ADD PUSH0 DUP2 DUP2 SWAP1 SLOAD SWAP1 PUSH2 0x100 EXP SWAP1 DIV PUSH4 0xFFFFFFFF AND DUP1 SWAP3 SWAP2 SWAP1 PUSH2 0x790 SWAP1 PUSH2 0xEC9 JUMP JUMPDEST SWAP2 SWAP1 PUSH2 0x100 EXP DUP2 SLOAD DUP2 PUSH4 0xFFFFFFFF MUL NOT AND SWAP1 DUP4 PUSH4 0xFFFFFFFF AND MUL OR SWAP1 SSTORE POP POP PUSH1 0x3 PUSH0 DUP6 PUSH1 0xFF AND PUSH1 0xFF AND DUP2 MSTORE PUSH1 0x20 ADD SWAP1 DUP2 MSTORE PUSH1 0x20 ADD PUSH0 KECCAK256 PUSH0 DUP2 DUP2 SWAP1 SLOAD SWAP1 PUSH2 0x100 EXP SWAP1 DIV PUSH4 0xFFFFFFFF AND DUP1 SWAP3 SWAP2 SWAP1 PUSH2 0x7E5 SWAP1 PUSH2 0xEC9 JUMP JUMPDEST SWAP2 SWAP1 PUSH2 0x100 EXP DUP2 SLOAD DUP2 PUSH4 0xFFFFFFFF MUL NOT AND SWAP1 DUP4 PUSH4 0xFFFFFFFF AND MUL OR SWAP1 SSTORE POP POP DUP4 PUSH1 0xFF AND CALLER PUSH20 0xFFFFFFFFFFFFFFFFFFFFFFFFFFFFFFFFFFFFFFFF AND PUSH32 0x14075E33DFFDC00C1FCAF75D0F86D667170BE57FB566B12B41B499E5FA53B125 PUSH1 0x40 MLOAD PUSH1 0x40 MLOAD DUP1 SWAP2 SUB SWAP1 LOG3 POP POP POP POP JUMP JUMPDEST PUSH0 PUSH0 SWAP1 SLOAD SWAP1 PUSH2 0x100 EXP SWAP1 DIV PUSH1 0xFF AND DUP2 JUMP JUMPDEST PUSH0 PUSH0 REVERT JUMPDEST PUSH0 DUP2 SWAP1 POP SWAP2 SWAP1 POP JUMP JUMPDEST PUSH2 0x878 DUP2 PUSH2 0x866 JUMP JUMPDEST DUP2 EQ PUSH2 0x882 JUMPI PUSH0 PUSH0 REVERT JUMPDEST POP JUMP JUMPDEST PUSH0 DUP2 CALLDATALOAD SWAP1 POP PUSH2 0x893 DUP2 PUSH2 0x86F JUMP JUMPDEST SWAP3 SWAP2 POP POP JUMP JUMPDEST PUSH0 PUSH4 0xFFFFFFFF DUP3 AND SWAP1 POP SWAP2 SWAP1 POP JUMP JUMPDEST PUSH2 0x8B1 DUP2 PUSH2 0x899 JUMP JUMPDEST DUP2 EQ PUSH2 0x8BB JUMPI PUSH0 PUSH0 REVERT JUMPDEST POP JUMP JUMPDEST PUSH0 DUP2 CALLDATALOAD SWAP1 POP PUSH2 0x8CC DUP2 PUSH2 0x8A8 JUMP JUMPDEST SWAP3 SWAP2 POP POP JUMP JUMPDEST PUSH0 PUSH0 PUSH1 0x40 DUP4 DUP6 SUB SLT ISZERO PUSH2 0x8E8 JUMPI PUSH2 0x8E7 PUSH2 0x862 JUMP JUMPDEST JUMPDEST PUSH0 PUSH2 0x8F5 DUP6 DUP3 DUP7 ADD PUSH2 0x885 JUMP JUMPDEST SWAP3 POP POP PUSH1 0x20 PUSH2 0x906 DUP6 DUP3 DUP7 ADD PUSH2 0x8BE JUMP JUMPDEST SWAP2 POP POP SWAP3 POP SWAP3 SWAP1 POP JUMP JUMPDEST PUSH0 PUSH20 0xFFFFFFFFFFFFFFFFFFFFFFFFFFFFFFFFFFFFFFFF DUP3 AND SWAP1 POP SWAP2 SWAP1 POP JUMP JUMPDEST PUSH0 PUSH2 0x939 DUP3 PUSH2 0x910 JUMP JUMPDEST SWAP1 POP SWAP2 SWAP1 POP JUMP JUMPDEST PUSH2 0x949 DUP2 PUSH2 0x92F JUMP JUMPDEST DUP2 EQ PUSH2 0x953 JUMPI PUSH0 PUSH0 REVERT JUMPDEST POP JUMP JUMPDEST PUSH0 DUP2 CALLDATALOAD SWAP1 POP PUSH2 0x964 DUP2 PUSH2 0x940 JUMP JUMPDEST SWAP3 SWAP2 POP POP JUMP JUMPDEST PUSH0 PUSH1 0x20 DUP3 DUP5 SUB SLT ISZERO PUSH2 0x97F JUMPI PUSH2 0x97E PUSH2 0x862 JUMP JUMPDEST JUMPDEST PUSH0 PUSH2 0x98C DUP5 DUP3 DUP6 ADD PUSH2 0x956 JUMP JUMPDEST SWAP2 POP POP SWAP3 SWAP2 POP POP JUMP JUMPDEST PUSH0 DUP2 SWAP1 POP SWAP2 SWAP1 POP JUMP JUMPDEST PUSH2 0x9A7 DUP2 PUSH2 0x995 JUMP JUMPDEST DUP3 MSTORE POP POP JUMP JUMPDEST PUSH0 PUSH1 0x20 DUP3 ADD SWAP1 POP PUSH2 0x9C0 PUSH0 DUP4 ADD DUP5 PUSH2 0x99E JUMP JUMPDEST SWAP3 SWAP2 POP POP JUMP JUMPDEST PUSH0 PUSH1 0xFF DUP3 AND SWAP1 POP SWAP2 SWAP1 POP JUMP JUMPDEST PUSH2 0x9DB DUP2 PUSH2 0x9C6 JUMP JUMPDEST DUP2 EQ PUSH2 0x9E5 JUMPI PUSH0 PUSH0 REVERT JUMPDEST POP JUMP JUMPDEST PUSH0 DUP2 CALLDATALOAD SWAP1 POP PUSH2 0x9F6 DUP2 PUSH2 0x9D2 JUMP JUMPDEST SWAP3 SWAP2 POP POP JUMP JUMPDEST PUSH0 PUSH1 0x20 DUP3 DUP5 SUB SLT ISZERO PUSH2 0xA11 JUMPI PUSH2 0xA10 PUSH2 0x862 JUMP JUMPDEST JUMPDEST PUSH0 PUSH2 0xA1E DUP5 DUP3 DUP6 ADD PUSH2 0x9E8 JUMP JUMPDEST SWAP2 POP POP SWAP3 SWAP2 POP POP JUMP JUMPDEST PUSH2 0xA30 DUP2 PUSH2 0x899 JUMP JUMPDEST DUP3 MSTORE POP POP JUMP JUMPDEST PUSH0 PUSH1 0x20 DUP3 ADD SWAP1 POP PUSH2 0xA49 PUSH0 DUP4 ADD DUP5 PUSH2 0xA27 JUMP JUMPDEST SWAP3 SWAP2 POP POP JUMP JUMPDEST PUSH2 0xA58 DUP2 PUSH2 0x866 JUMP JUMPDEST DUP3 MSTORE POP POP JUMP JUMPDEST PUSH0 DUP2 ISZERO ISZERO SWAP1 POP SWAP2 SWAP1 POP JUMP JUMPDEST PUSH2 0xA72 DUP2 PUSH2 0xA5E JUMP JUMPDEST DUP3 MSTORE POP POP JUMP JUMPDEST PUSH0 PUSH1 0xA0 DUP3 ADD SWAP1 POP PUSH2 0xA8B PUSH0 DUP4 ADD DUP9 PUSH2 0xA4F JUMP JUMPDEST PUSH2 0xA98 PUSH1 0x20 DUP4 ADD DUP8 PUSH2 0xA27 JUMP JUMPDEST PUSH2 0xAA5 PUSH1 0x40 DUP4 ADD DUP7 PUSH2 0xA27 JUMP JUMPDEST PUSH2 0xAB2 PUSH1 0x60 DUP4 ADD DUP6 PUSH2 0xA27 JUMP JUMPDEST PUSH2 0xABF PUSH1 0x80 DUP4 ADD DUP5 PUSH2 0xA69 JUMP JUMPDEST SWAP7 SWAP6 POP POP POP POP POP POP JUMP JUMPDEST PUSH2 0xAD2 DUP2 PUSH2 0x9C6 JUMP JUMPDEST DUP3 MSTORE POP POP JUMP JUMPDEST PUSH0 PUSH1 0x20 DUP3 ADD SWAP1 POP PUSH2 0xAEB PUSH0 DUP4 ADD DUP5 PUSH2 0xAC9 JUMP JUMPDEST SWAP3 SWAP2 POP POP JUMP JUMPDEST PUSH32 0x4E487B7100000000000000000000000000000000000000000000000000000000 PUSH0 MSTORE PUSH1 0x11 PUSH1 0x4 MSTORE PUSH1 0x24 PUSH0 REVERT JUMPDEST PUSH0 PUSH2 0xB28 DUP3 PUSH2 0x9C6 JUMP JUMPDEST SWAP2 POP PUSH1 0xFF DUP3 SUB PUSH2 0xB3B JUMPI PUSH2 0xB3A PUSH2 0xAF1 JUMP JUMPDEST JUMPDEST PUSH1 0x1 DUP3 ADD SWAP1 POP SWAP2 SWAP1 POP JUMP JUMPDEST PUSH0 DUP3 DUP3 MSTORE PUSH1 0x20 DUP3 ADD SWAP1 POP SWAP3 SWAP2 POP POP JUMP JUMPDEST PUSH32 0x4475726174696F6E206D757374206265203E2030000000000000000000000000 PUSH0 DUP3 ADD MSTORE POP JUMP JUMPDEST PUSH0 PUSH2 0xB8A PUSH1 0x14 DUP4 PUSH2 0xB46 JUMP JUMPDEST SWAP2 POP PUSH2 0xB95 DUP3 PUSH2 0xB56 JUMP JUMPDEST PUSH1 0x20 DUP3 ADD SWAP1 POP SWAP2 SWAP1 POP JUMP JUMPDEST PUSH0 PUSH1 0x20 DUP3 ADD SWAP1 POP DUP2 DUP2 SUB PUSH0 DUP4 ADD MSTORE PUSH2 0xBB7 DUP2 PUSH2 0xB7E JUMP JUMPDEST SWAP1 POP SWAP2 SWAP1 POP JUMP JUMPDEST PUSH0 PUSH2 0xBC8 DUP3 PUSH2 0x995 JUMP JUMPDEST SWAP2 POP PUSH2 0xBD3 DUP4 PUSH2 0x995 JUMP JUMPDEST SWAP3 POP DUP3 DUP3 ADD SWAP1 POP DUP1 DUP3 GT ISZERO PUSH2 0xBEB JUMPI PUSH2 0xBEA PUSH2 0xAF1 JUMP JUMPDEST JUMPDEST SWAP3 SWAP2 POP POP JUMP JUMPDEST PUSH32 0x746F6F206561726C790000000000000000000000000000000000000000000000 PUSH0 DUP3 ADD MSTORE POP JUMP JUMPDEST PUSH0 PUSH2 0xC25 PUSH1 0x9 DUP4 PUSH2 0xB46 JUMP JUMPDEST SWAP2 POP PUSH2 0xC30 DUP3 PUSH2 0xBF1 JUMP JUMPDEST PUSH1 0x20 DUP3 ADD SWAP1 POP SWAP2 SWAP1 POP JUMP JUMPDEST PUSH0 PUSH1 0x20 DUP3 ADD SWAP1 POP DUP2 DUP2 SUB PUSH0 DUP4 ADD MSTORE PUSH2 0xC52 DUP2 PUSH2 0xC19 JUMP JUMPDEST SWAP1 POP SWAP2 SWAP1 POP JUMP JUMPDEST PUSH32 0x616C726561647920657865637574656400000000000000000000000000000000 PUSH0 DUP3 ADD MSTORE POP JUMP JUMPDEST PUSH0 PUSH2 0xC8D PUSH1 0x10 DUP4 PUSH2 0xB46 JUMP JUMPDEST SWAP2 POP PUSH2 0xC98 DUP3 PUSH2 0xC59 JUMP JUMPDEST PUSH1 0x20 DUP3 ADD SWAP1 POP SWAP2 SWAP1 POP JUMP JUMPDEST PUSH0 PUSH1 0x20 DUP3 ADD SWAP1 POP DUP2 DUP2 SUB PUSH0 DUP4 ADD MSTORE PUSH2 0xCBA DUP2 PUSH2 0xC81 JUMP JUMPDEST SWAP1 POP SWAP2 SWAP1 POP JUMP JUMPDEST PUSH32 0x6E6F20766F746573000000000000000000000000000000000000000000000000 PUSH0 DUP3 ADD MSTORE POP JUMP JUMPDEST PUSH0 PUSH2 0xCF5 PUSH1 0x8 DUP4 PUSH2 0xB46 JUMP JUMPDEST SWAP2 POP PUSH2 0xD00 DUP3 PUSH2 0xCC1 JUMP JUMPDEST PUSH1 0x20 DUP3 ADD SWAP1 POP SWAP2 SWAP1 POP JUMP JUMPDEST PUSH0 PUSH1 0x20 DUP3 ADD SWAP1 POP DUP2 DUP2 SUB PUSH0 DUP4 ADD MSTORE PUSH2 0xD22 DUP2 PUSH2 0xCE9 JUMP JUMPDEST SWAP1 POP SWAP2 SWAP1 POP JUMP JUMPDEST PUSH32 0x496E76616C69642070726F706F73616C00000000000000000000000000000000 PUSH0 DUP3 ADD MSTORE POP JUMP JUMPDEST PUSH0 PUSH2 0xD5D PUSH1 0x10 DUP4 PUSH2 0xB46 JUMP JUMPDEST SWAP2 POP PUSH2 0xD68 DUP3 PUSH2 0xD29 JUMP JUMPDEST PUSH1 0x20 DUP3 ADD SWAP1 POP SWAP2 SWAP1 POP JUMP JUMPDEST PUSH0 PUSH1 0x20 DUP3 ADD SWAP1 POP DUP2 DUP2 SUB PUSH0 DUP4 ADD MSTORE PUSH2 0xD8A DUP2 PUSH2 0xD51 JUMP JUMPDEST SWAP1 POP SWAP2 SWAP1 POP JUMP JUMPDEST PUSH32 0x566F74696E67206E6F7420737461727465640000000000000000000000000000 PUSH0 DUP3 ADD MSTORE POP JUMP JUMPDEST PUSH0 PUSH2 0xDC5 PUSH1 0x12 DUP4 PUSH2 0xB46 JUMP JUMPDEST SWAP2 POP PUSH2 0xDD0 DUP3 PUSH2 0xD91 JUMP JUMPDEST PUSH1 0x20 DUP3 ADD SWAP1 POP SWAP2 SWAP1 POP JUMP JUMPDEST PUSH0 PUSH1 0x20 DUP3 ADD SWAP1 POP DUP2 DUP2 SUB PUSH0 DUP4 ADD MSTORE PUSH2 0xDF2 DUP2 PUSH2 0xDB9 JUMP JUMPDEST SWAP1 POP SWAP2 SWAP1 POP JUMP JUMPDEST PUSH32 0x566F74696E6720656E6465640000000000000000000000000000000000000000 PUSH0 DUP3 ADD MSTORE POP JUMP JUMPDEST PUSH0 PUSH2 0xE2D PUSH1 0xC DUP4 PUSH2 0xB46 JUMP JUMPDEST SWAP2 POP PUSH2 0xE38 DUP3 PUSH2 0xDF9 JUMP JUMPDEST PUSH1 0x20 DUP3 ADD SWAP1 POP SWAP2 SWAP1 POP JUMP JUMPDEST PUSH0 PUSH1 0x20 DUP3 ADD SWAP1 POP DUP2 DUP2 SUB PUSH0 DUP4 ADD MSTORE PUSH2 0xE5A DUP2 PUSH2 0xE21 JUMP JUMPDEST SWAP1 POP SWAP2 SWAP1 POP JUMP JUMPDEST PUSH32 0x416C726561647920766F74656400000000000000000000000000000000000000 PUSH0 DUP3 ADD MSTORE POP JUMP JUMPDEST PUSH0 PUSH2 0xE95 PUSH1 0xD DUP4 PUSH2 0xB46 JUMP JUMPDEST SWAP2 POP PUSH2 0xEA0 DUP3 PUSH2 0xE61 JUMP JUMPDEST PUSH1 0x20 DUP3 ADD SWAP1 POP SWAP2 SWAP1 POP JUMP JUMPDEST PUSH0 PUSH1 0x20 DUP3 ADD SWAP1 POP DUP2 DUP2 SUB PUSH0 DUP4 ADD MSTORE PUSH2 0xEC2 DUP2 PUSH2 0xE89 JUMP JUMPDEST SWAP1 POP SWAP2 SWAP1 POP JUMP JUMPDEST PUSH0 PUSH2 0xED3 DUP3 PUSH2 0x899 JUMP JUMPDEST SWAP2 POP PUSH4 0xFFFFFFFF DUP3 SUB PUSH2 0xEE9 JUMPI PUSH2 0xEE8 PUSH2 0xAF1 JUMP JUMPDEST JUMPDEST PUSH1 0x1 DUP3 ADD SWAP1 POP SWAP2 SWAP1 POP JUMP INVALID LOG2 PUSH5 0x6970667358 0x22 SLT KECCAK256 PUSH14 0x7405E31632F59577987469E4008C BASEFEE PUSH7 0x79875B806B914A CALLDATASIZE 0x21 SSTORE PUSH9 0xE51E59BE64736F6C63 NUMBER STOP ADDMOD 0x1E STOP CALLER "
				},
				"gasEstimates": {
					"creation": {
						"codeDepositCost": "776400",
						"executionCost": "810",
						"totalCost": "777210"
					},
					"external": {
						"creatProposal(bytes32,uint32)": "infinite",
						"executedPropsal(uint8)": "31453",
						"proposalCount()": "2531",
						"proposalVoterCount(uint8)": "2836",
						"proposals(uint8)": "infinite",
						"vote(uint8)": "infinite",
						"voterRegistry(address)": "2825"
					}
				},
				"methodIdentifiers": {
					"creatProposal(bytes32,uint32)": "356442d7",
					"executedPropsal(uint8)": "a8593a14",
					"proposalCount()": "da35c664",
					"proposalVoterCount(uint8)": "6760b1c0",
					"proposals(uint8)": "84acf0f5",
					"vote(uint8)": "b3f98adc",
					"voterRegistry(address)": "4763d4e7"
				}
			},
			"storageLayout": {
				"storage": [
					{
						"astId": 3,
						"contract": "submissions/Serena Y/Day15-GasEfficientVoting.sol:GasEfficientVoting",
						"label": "proposalCount",
						"offset": 0,
						"slot": "0",
						"type": "t_uint8"
					},
					{
						"astId": 19,
						"contract": "submissions/Serena Y/Day15-GasEfficientVoting.sol:GasEfficientVoting",
						"label": "proposals",
						"offset": 0,
						"slot": "1",
						"type": "t_mapping(t_uint8,t_struct(Proposal)14_storage)"
					},
					{
						"astId": 23,
						"contract": "submissions/Serena Y/Day15-GasEfficientVoting.sol:GasEfficientVoting",
						"label": "voterRegistry",
						"offset": 0,
						"slot": "2",
						"type": "t_mapping(t_address,t_uint256)"
					},
					{
						"astId": 27,
						"contract": "submissions/Serena Y/Day15-GasEfficientVoting.sol:GasEfficientVoting",
						"label": "proposalVoterCount",
						"offset": 0,
						"slot": "3",
						"type": "t_mapping(t_uint8,t_uint32)"
					}
				],
				"types": {
					"t_address": {
						"encoding": "inplace",
						"label": "address",
						"numberOfBytes": "20"
					},
					"t_bool": {
						"encoding": "inplace",
						"label": "bool",
						"numberOfBytes": "1"
					},
					"t_bytes32": {
						"encoding": "inplace",
						"label": "bytes32",
						"numberOfBytes": "32"
					},
					"t_mapping(t_address,t_uint256)": {
						"encoding": "mapping",
						"key": "t_address",
						"label": "mapping(address => uint256)",
						"numberOfBytes": "32",
						"value": "t_uint256"
					},
					"t_mapping(t_uint8,t_struct(Proposal)14_storage)": {
						"encoding": "mapping",
						"key": "t_uint8",
						"label": "mapping(uint8 => struct GasEfficientVoting.Proposal)",
						"numberOfBytes": "32",
						"value": "t_struct(Proposal)14_storage"
					},
					"t_mapping(t_uint8,t_uint32)": {
						"encoding": "mapping",
						"key": "t_uint8",
						"label": "mapping(uint8 => uint32)",
						"numberOfBytes": "32",
						"value": "t_uint32"
					},
					"t_struct(Proposal)14_storage": {
						"encoding": "inplace",
						"label": "struct GasEfficientVoting.Proposal",
						"members": [
							{
								"astId": 5,
								"contract": "submissions/Serena Y/Day15-GasEfficientVoting.sol:GasEfficientVoting",
								"label": "name",
								"offset": 0,
								"slot": "0",
								"type": "t_bytes32"
							},
							{
								"astId": 7,
								"contract": "submissions/Serena Y/Day15-GasEfficientVoting.sol:GasEfficientVoting",
								"label": "voteCount",
								"offset": 0,
								"slot": "1",
								"type": "t_uint32"
							},
							{
								"astId": 9,
								"contract": "submissions/Serena Y/Day15-GasEfficientVoting.sol:GasEfficientVoting",
								"label": "startTime",
								"offset": 4,
								"slot": "1",
								"type": "t_uint32"
							},
							{
								"astId": 11,
								"contract": "submissions/Serena Y/Day15-GasEfficientVoting.sol:GasEfficientVoting",
								"label": "endTime",
								"offset": 8,
								"slot": "1",
								"type": "t_uint32"
							},
							{
								"astId": 13,
								"contract": "submissions/Serena Y/Day15-GasEfficientVoting.sol:GasEfficientVoting",
								"label": "executed",
								"offset": 12,
								"slot": "1",
								"type": "t_bool"
							}
						],
						"numberOfBytes": "64"
					},
					"t_uint256": {
						"encoding": "inplace",
						"label": "uint256",
						"numberOfBytes": "32"
					},
					"t_uint32": {
						"encoding": "inplace",
						"label": "uint32",
						"numberOfBytes": "4"
					},
					"t_uint8": {
						"encoding": "inplace",
						"label": "uint8",
						"numberOfBytes": "1"
					}
				}
			},
			"userdoc": {
				"kind": "user",
				"methods": {},
				"version": 1
			}
		}
	}
}