{
	"submissions/MeseretBirhanu/day3/PollStation.sol": {
		"PollStation": {
			"abi": [
				{
					"inputs": [
						{
							"internalType": "uint32",
							"name": "",
							"type": "uint32"
						}
					],
					"name": "currentCandidates",
					"outputs": [
						{
							"internalType": "string",
							"name": "name",
							"type": "string"
						},
						{
							"internalType": "uint32",
							"name": "id",
							"type": "uint32"
						},
						{
							"internalType": "uint32",
							"name": "votes",
							"type": "uint32"
						}
					],
					"stateMutability": "view",
					"type": "function"
				},
				{
					"inputs": [
						{
							"internalType": "address",
							"name": "",
							"type": "address"
						}
					],
					"name": "hasVoted",
					"outputs": [
						{
							"internalType": "bool",
							"name": "",
							"type": "bool"
						}
					],
					"stateMutability": "view",
					"type": "function"
				},
				{
					"inputs": [
						{
							"internalType": "string",
							"name": "_name",
							"type": "string"
						}
					],
					"name": "registerforCandidate",
					"outputs": [],
					"stateMutability": "nonpayable",
					"type": "function"
				},
				{
					"inputs": [],
					"name": "totalCandidtes",
					"outputs": [
						{
							"internalType": "uint32",
							"name": "",
							"type": "uint32"
						}
					],
					"stateMutability": "view",
					"type": "function"
				},
				{
					"inputs": [
						{
							"internalType": "address",
							"name": "",
							"type": "address"
						}
					],
					"name": "userVotes",
					"outputs": [
						{
							"internalType": "string",
							"name": "name",
							"type": "string"
						},
						{
							"internalType": "uint32",
							"name": "id",
							"type": "uint32"
						},
						{
							"internalType": "uint32",
							"name": "votes",
							"type": "uint32"
						}
					],
					"stateMutability": "view",
					"type": "function"
				},
				{
					"inputs": [
						{
							"internalType": "uint32",
							"name": "_id",
							"type": "uint32"
						}
					],
					"name": "vote",
					"outputs": [],
					"stateMutability": "nonpayable",
					"type": "function"
				},
				{
					"inputs": [
						{
							"internalType": "uint256",
							"name": "",
							"type": "uint256"
						}
					],
					"name": "voters",
					"outputs": [
						{
							"internalType": "address",
							"name": "",
							"type": "address"
						}
					],
					"stateMutability": "view",
					"type": "function"
				}
			],
			"devdoc": {
				"kind": "dev",
				"methods": {},
				"version": 1
			},
			"evm": {
				"assembly": "    /* \"submissions/MeseretBirhanu/day3/PollStation.sol\":61:919  contract PollStation{... */\n  mstore(0x40, 0x80)\n  callvalue\n  dup1\n  iszero\n  tag_1\n  jumpi\n  revert(0x00, 0x00)\ntag_1:\n  pop\n  dataSize(sub_0)\n  dup1\n  dataOffset(sub_0)\n  0x00\n  codecopy\n  0x00\n  return\nstop\n\nsub_0: assembly {\n        /* \"submissions/MeseretBirhanu/day3/PollStation.sol\":61:919  contract PollStation{... */\n      mstore(0x40, 0x80)\n      callvalue\n      dup1\n      iszero\n      tag_1\n      jumpi\n      revert(0x00, 0x00)\n    tag_1:\n      pop\n      jumpi(tag_2, lt(calldatasize, 0x04))\n      shr(0xe0, calldataload(0x00))\n      dup1\n      0x9094c763\n      gt\n      tag_10\n      jumpi\n      dup1\n      0x9094c763\n      eq\n      tag_6\n      jumpi\n      dup1\n      0x978331cf\n      eq\n      tag_7\n      jumpi\n      dup1\n      0xa91bd423\n      eq\n      tag_8\n      jumpi\n      dup1\n      0xda58c7d9\n      eq\n      tag_9\n      jumpi\n      jump(tag_2)\n    tag_10:\n      dup1\n      0x09eef43e\n      eq\n      tag_3\n      jumpi\n      dup1\n      0x62190150\n      eq\n      tag_4\n      jumpi\n      dup1\n      0x867d6803\n      eq\n      tag_5\n      jumpi\n    tag_2:\n      revert(0x00, 0x00)\n        /* \"submissions/MeseretBirhanu/day3/PollStation.sol\":333:373  mapping(address => bool) public hasVoted */\n    tag_3:\n      tag_11\n      0x04\n      dup1\n      calldatasize\n      sub\n      dup2\n      add\n      swap1\n      tag_12\n      swap2\n      swap1\n      tag_13\n      jump\t// in\n    tag_12:\n      tag_14\n      jump\t// in\n    tag_11:\n      mload(0x40)\n      tag_15\n      swap2\n      swap1\n      tag_16\n      jump\t// in\n    tag_15:\n      mload(0x40)\n      dup1\n      swap2\n      sub\n      swap1\n      return\n        /* \"submissions/MeseretBirhanu/day3/PollStation.sol\":283:326  mapping(address=>Candidate)public userVotes */\n    tag_4:\n      tag_17\n      0x04\n      dup1\n      calldatasize\n      sub\n      dup2\n      add\n      swap1\n      tag_18\n      swap2\n      swap1\n      tag_13\n      jump\t// in\n    tag_18:\n      tag_19\n      jump\t// in\n    tag_17:\n      mload(0x40)\n      tag_20\n      swap4\n      swap3\n      swap2\n      swap1\n      tag_21\n      jump\t// in\n    tag_20:\n      mload(0x40)\n      dup1\n      swap2\n      sub\n      swap1\n      return\n        /* \"submissions/MeseretBirhanu/day3/PollStation.sol\":187:215  uint32 public totalCandidtes */\n    tag_5:\n      tag_22\n      tag_23\n      jump\t// in\n    tag_22:\n      mload(0x40)\n      tag_24\n      swap2\n      swap1\n      tag_25\n      jump\t// in\n    tag_24:\n      mload(0x40)\n      dup1\n      swap2\n      sub\n      swap1\n      return\n        /* \"submissions/MeseretBirhanu/day3/PollStation.sol\":601:916  function vote(uint32 _id)public{... */\n    tag_6:\n      tag_26\n      0x04\n      dup1\n      calldatasize\n      sub\n      dup2\n      add\n      swap1\n      tag_27\n      swap2\n      swap1\n      tag_28\n      jump\t// in\n    tag_27:\n      tag_29\n      jump\t// in\n    tag_26:\n      stop\n        /* \"submissions/MeseretBirhanu/day3/PollStation.sol\":414:577  function registerforCandidate(string memory _name) public{... */\n    tag_7:\n      tag_30\n      0x04\n      dup1\n      calldatasize\n      sub\n      dup2\n      add\n      swap1\n      tag_31\n      swap2\n      swap1\n      tag_32\n      jump\t// in\n    tag_31:\n      tag_33\n      jump\t// in\n    tag_30:\n      stop\n        /* \"submissions/MeseretBirhanu/day3/PollStation.sol\":222:276  mapping (uint32 => Candidate) public currentCandidates */\n    tag_8:\n      tag_34\n      0x04\n      dup1\n      calldatasize\n      sub\n      dup2\n      add\n      swap1\n      tag_35\n      swap2\n      swap1\n      tag_28\n      jump\t// in\n    tag_35:\n      tag_36\n      jump\t// in\n    tag_34:\n      mload(0x40)\n      tag_37\n      swap4\n      swap3\n      swap2\n      swap1\n      tag_21\n      jump\t// in\n    tag_37:\n      mload(0x40)\n      dup1\n      swap2\n      sub\n      swap1\n      return\n        /* \"submissions/MeseretBirhanu/day3/PollStation.sol\":382:405  address[] public voters */\n    tag_9:\n      tag_38\n      0x04\n      dup1\n      calldatasize\n      sub\n      dup2\n      add\n      swap1\n      tag_39\n      swap2\n      swap1\n      tag_40\n      jump\t// in\n    tag_39:\n      tag_41\n      jump\t// in\n    tag_38:\n      mload(0x40)\n      tag_42\n      swap2\n      swap1\n      tag_43\n      jump\t// in\n    tag_42:\n      mload(0x40)\n      dup1\n      swap2\n      sub\n      swap1\n      return\n        /* \"submissions/MeseretBirhanu/day3/PollStation.sol\":333:373  mapping(address => bool) public hasVoted */\n    tag_14:\n      mstore(0x20, 0x03)\n      dup1\n      0x00\n      mstore\n      keccak256(0x00, 0x40)\n      0x00\n      swap2\n      pop\n      sload\n      swap1\n      0x0100\n      exp\n      swap1\n      div\n      0xff\n      and\n      dup2\n      jump\t// out\n        /* \"submissions/MeseretBirhanu/day3/PollStation.sol\":283:326  mapping(address=>Candidate)public userVotes */\n    tag_19:\n      mstore(0x20, 0x02)\n      dup1\n      0x00\n      mstore\n      keccak256(0x00, 0x40)\n      0x00\n      swap2\n      pop\n      swap1\n      pop\n      dup1\n      0x00\n      add\n      dup1\n      sload\n      tag_44\n      swap1\n      tag_45\n      jump\t// in\n    tag_44:\n      dup1\n      0x1f\n      add\n      0x20\n      dup1\n      swap2\n      div\n      mul\n      0x20\n      add\n      mload(0x40)\n      swap1\n      dup2\n      add\n      0x40\n      mstore\n      dup1\n      swap3\n      swap2\n      swap1\n      dup2\n      dup2\n      mstore\n      0x20\n      add\n      dup3\n      dup1\n      sload\n      tag_46\n      swap1\n      tag_45\n      jump\t// in\n    tag_46:\n      dup1\n      iszero\n      tag_47\n      jumpi\n      dup1\n      0x1f\n      lt\n      tag_48\n      jumpi\n      0x0100\n      dup1\n      dup4\n      sload\n      div\n      mul\n      dup4\n      mstore\n      swap2\n      0x20\n      add\n      swap2\n      jump(tag_47)\n    tag_48:\n      dup3\n      add\n      swap2\n      swap1\n      0x00\n      mstore\n      keccak256(0x00, 0x20)\n      swap1\n    tag_49:\n      dup2\n      sload\n      dup2\n      mstore\n      swap1\n      0x01\n      add\n      swap1\n      0x20\n      add\n      dup1\n      dup4\n      gt\n      tag_49\n      jumpi\n      dup3\n      swap1\n      sub\n      0x1f\n      and\n      dup3\n      add\n      swap2\n    tag_47:\n      pop\n      pop\n      pop\n      pop\n      pop\n      swap1\n      dup1\n      0x01\n      add\n      0x00\n      swap1\n      sload\n      swap1\n      0x0100\n      exp\n      swap1\n      div\n      0xffffffff\n      and\n      swap1\n      dup1\n      0x01\n      add\n      0x04\n      swap1\n      sload\n      swap1\n      0x0100\n      exp\n      swap1\n      div\n      0xffffffff\n      and\n      swap1\n      pop\n      dup4\n      jump\t// out\n        /* \"submissions/MeseretBirhanu/day3/PollStation.sol\":187:215  uint32 public totalCandidtes */\n    tag_23:\n      0x00\n      0x00\n      swap1\n      sload\n      swap1\n      0x0100\n      exp\n      swap1\n      div\n      0xffffffff\n      and\n      dup2\n      jump\t// out\n        /* \"submissions/MeseretBirhanu/day3/PollStation.sol\":601:916  function vote(uint32 _id)public{... */\n    tag_29:\n        /* \"submissions/MeseretBirhanu/day3/PollStation.sol\":648:656  hasVoted */\n      0x03\n        /* \"submissions/MeseretBirhanu/day3/PollStation.sol\":648:668  hasVoted[msg.sender] */\n      0x00\n        /* \"submissions/MeseretBirhanu/day3/PollStation.sol\":657:667  msg.sender */\n      caller\n        /* \"submissions/MeseretBirhanu/day3/PollStation.sol\":648:668  hasVoted[msg.sender] */\n      0xffffffffffffffffffffffffffffffffffffffff\n      and\n      0xffffffffffffffffffffffffffffffffffffffff\n      and\n      dup2\n      mstore\n      0x20\n      add\n      swap1\n      dup2\n      mstore\n      0x20\n      add\n      0x00\n      keccak256\n      0x00\n      swap1\n      sload\n      swap1\n      0x0100\n      exp\n      swap1\n      div\n      0xff\n      and\n        /* \"submissions/MeseretBirhanu/day3/PollStation.sol\":647:668  !hasVoted[msg.sender] */\n      iszero\n        /* \"submissions/MeseretBirhanu/day3/PollStation.sol\":639:689  require(!hasVoted[msg.sender],\"You already voted\") */\n      tag_51\n      jumpi\n      mload(0x40)\n      0x08c379a000000000000000000000000000000000000000000000000000000000\n      dup2\n      mstore\n      0x04\n      add\n      tag_52\n      swap1\n      tag_53\n      jump\t// in\n    tag_52:\n      mload(0x40)\n      dup1\n      swap2\n      sub\n      swap1\n      revert\n    tag_51:\n        /* \"submissions/MeseretBirhanu/day3/PollStation.sol\":708:709  0 */\n      0x00\n        /* \"submissions/MeseretBirhanu/day3/PollStation.sol\":704:707  _id */\n      dup2\n        /* \"submissions/MeseretBirhanu/day3/PollStation.sol\":704:709  _id>0 */\n      0xffffffff\n      and\n      gt\n        /* \"submissions/MeseretBirhanu/day3/PollStation.sol\":704:732  _id>0 && _id<=totalCandidtes */\n      dup1\n      iszero\n      tag_54\n      jumpi\n      pop\n        /* \"submissions/MeseretBirhanu/day3/PollStation.sol\":718:732  totalCandidtes */\n      0x00\n      0x00\n      swap1\n      sload\n      swap1\n      0x0100\n      exp\n      swap1\n      div\n      0xffffffff\n      and\n        /* \"submissions/MeseretBirhanu/day3/PollStation.sol\":713:732  _id<=totalCandidtes */\n      0xffffffff\n      and\n        /* \"submissions/MeseretBirhanu/day3/PollStation.sol\":713:716  _id */\n      dup2\n        /* \"submissions/MeseretBirhanu/day3/PollStation.sol\":713:732  _id<=totalCandidtes */\n      0xffffffff\n      and\n      gt\n      iszero\n        /* \"submissions/MeseretBirhanu/day3/PollStation.sol\":704:732  _id>0 && _id<=totalCandidtes */\n    tag_54:\n        /* \"submissions/MeseretBirhanu/day3/PollStation.sol\":696:756  require(_id>0 && _id<=totalCandidtes,\"invalid candidate id\") */\n      tag_55\n      jumpi\n      mload(0x40)\n      0x08c379a000000000000000000000000000000000000000000000000000000000\n      dup2\n      mstore\n      0x04\n      add\n      tag_56\n      swap1\n      tag_57\n      jump\t// in\n    tag_56:\n      mload(0x40)\n      dup1\n      swap2\n      sub\n      swap1\n      revert\n    tag_55:\n        /* \"submissions/MeseretBirhanu/day3/PollStation.sol\":787:804  currentCandidates */\n      0x01\n        /* \"submissions/MeseretBirhanu/day3/PollStation.sol\":787:809  currentCandidates[_id] */\n      0x00\n        /* \"submissions/MeseretBirhanu/day3/PollStation.sol\":805:808  _id */\n      dup3\n        /* \"submissions/MeseretBirhanu/day3/PollStation.sol\":787:809  currentCandidates[_id] */\n      0xffffffff\n      and\n      0xffffffff\n      and\n      dup2\n      mstore\n      0x20\n      add\n      swap1\n      dup2\n      mstore\n      0x20\n      add\n      0x00\n      keccak256\n        /* \"submissions/MeseretBirhanu/day3/PollStation.sol\":763:772  userVotes */\n      0x02\n        /* \"submissions/MeseretBirhanu/day3/PollStation.sol\":763:784  userVotes[msg.sender] */\n      0x00\n        /* \"submissions/MeseretBirhanu/day3/PollStation.sol\":773:783  msg.sender */\n      caller\n        /* \"submissions/MeseretBirhanu/day3/PollStation.sol\":763:784  userVotes[msg.sender] */\n      0xffffffffffffffffffffffffffffffffffffffff\n      and\n      0xffffffffffffffffffffffffffffffffffffffff\n      and\n      dup2\n      mstore\n      0x20\n      add\n      swap1\n      dup2\n      mstore\n      0x20\n      add\n      0x00\n      keccak256\n        /* \"submissions/MeseretBirhanu/day3/PollStation.sol\":763:809  userVotes[msg.sender] = currentCandidates[_id] */\n      0x00\n      dup3\n      add\n      dup2\n      0x00\n      add\n      swap1\n      dup2\n      tag_58\n      swap2\n      swap1\n      tag_59\n      jump\t// in\n    tag_58:\n      pop\n      0x01\n      dup3\n      add\n      0x00\n      swap1\n      sload\n      swap1\n      0x0100\n      exp\n      swap1\n      div\n      0xffffffff\n      and\n      dup2\n      0x01\n      add\n      exp(0x0100, 0x00)\n      dup2\n      sload\n      dup2\n      0xffffffff\n      mul\n      not\n      and\n      swap1\n      dup4\n      0xffffffff\n      and\n      mul\n      or\n      swap1\n      sstore\n      pop\n      0x01\n      dup3\n      add\n      0x04\n      swap1\n      sload\n      swap1\n      0x0100\n      exp\n      swap1\n      div\n      0xffffffff\n      and\n      dup2\n      0x01\n      add\n      exp(0x0100, 0x04)\n      dup2\n      sload\n      dup2\n      0xffffffff\n      mul\n      not\n      and\n      swap1\n      dup4\n      0xffffffff\n      and\n      mul\n      or\n      swap1\n      sstore\n      pop\n      swap1\n      pop\n      pop\n        /* \"submissions/MeseretBirhanu/day3/PollStation.sol\":816:833  currentCandidates */\n      0x01\n        /* \"submissions/MeseretBirhanu/day3/PollStation.sol\":816:838  currentCandidates[_id] */\n      0x00\n        /* \"submissions/MeseretBirhanu/day3/PollStation.sol\":834:837  _id */\n      dup3\n        /* \"submissions/MeseretBirhanu/day3/PollStation.sol\":816:838  currentCandidates[_id] */\n      0xffffffff\n      and\n      0xffffffff\n      and\n      dup2\n      mstore\n      0x20\n      add\n      swap1\n      dup2\n      mstore\n      0x20\n      add\n      0x00\n      keccak256\n        /* \"submissions/MeseretBirhanu/day3/PollStation.sol\":816:844  currentCandidates[_id].votes */\n      0x01\n      add\n      0x04\n        /* \"submissions/MeseretBirhanu/day3/PollStation.sol\":816:846  currentCandidates[_id].votes++ */\n      dup2\n      dup2\n      swap1\n      sload\n      swap1\n      0x0100\n      exp\n      swap1\n      div\n      0xffffffff\n      and\n      dup1\n      swap3\n      swap2\n      swap1\n      tag_60\n      swap1\n      tag_61\n      jump\t// in\n    tag_60:\n      swap2\n      swap1\n      0x0100\n      exp\n      dup2\n      sload\n      dup2\n      0xffffffff\n      mul\n      not\n      and\n      swap1\n      dup4\n      0xffffffff\n      and\n      mul\n      or\n      swap1\n      sstore\n      pop\n      pop\n        /* \"submissions/MeseretBirhanu/day3/PollStation.sol\":874:878  true */\n      0x01\n        /* \"submissions/MeseretBirhanu/day3/PollStation.sol\":853:861  hasVoted */\n      0x03\n        /* \"submissions/MeseretBirhanu/day3/PollStation.sol\":853:873  hasVoted[msg.sender] */\n      0x00\n        /* \"submissions/MeseretBirhanu/day3/PollStation.sol\":862:872  msg.sender */\n      caller\n        /* \"submissions/MeseretBirhanu/day3/PollStation.sol\":853:873  hasVoted[msg.sender] */\n      0xffffffffffffffffffffffffffffffffffffffff\n      and\n      0xffffffffffffffffffffffffffffffffffffffff\n      and\n      dup2\n      mstore\n      0x20\n      add\n      swap1\n      dup2\n      mstore\n      0x20\n      add\n      0x00\n      keccak256\n      0x00\n        /* \"submissions/MeseretBirhanu/day3/PollStation.sol\":853:878  hasVoted[msg.sender]=true */\n      0x0100\n      exp\n      dup2\n      sload\n      dup2\n      0xff\n      mul\n      not\n      and\n      swap1\n      dup4\n      iszero\n      iszero\n      mul\n      or\n      swap1\n      sstore\n      pop\n        /* \"submissions/MeseretBirhanu/day3/PollStation.sol\":886:892  voters */\n      0x04\n        /* \"submissions/MeseretBirhanu/day3/PollStation.sol\":898:908  msg.sender */\n      caller\n        /* \"submissions/MeseretBirhanu/day3/PollStation.sol\":886:909  voters.push(msg.sender) */\n      swap1\n      dup1\n      0x01\n      dup2\n      sload\n      add\n      dup1\n      dup3\n      sstore\n      dup1\n      swap2\n      pop\n      pop\n      0x01\n      swap1\n      sub\n      swap1\n      0x00\n      mstore\n      keccak256(0x00, 0x20)\n      add\n      0x00\n      swap1\n      swap2\n      swap1\n      swap2\n      swap1\n      swap2\n      0x0100\n      exp\n      dup2\n      sload\n      dup2\n      0xffffffffffffffffffffffffffffffffffffffff\n      mul\n      not\n      and\n      swap1\n      dup4\n      0xffffffffffffffffffffffffffffffffffffffff\n      and\n      mul\n      or\n      swap1\n      sstore\n      pop\n        /* \"submissions/MeseretBirhanu/day3/PollStation.sol\":601:916  function vote(uint32 _id)public{... */\n      pop\n      jump\t// out\n        /* \"submissions/MeseretBirhanu/day3/PollStation.sol\":414:577  function registerforCandidate(string memory _name) public{... */\n    tag_33:\n        /* \"submissions/MeseretBirhanu/day3/PollStation.sol\":478:492  totalCandidtes */\n      0x00\n      0x00\n        /* \"submissions/MeseretBirhanu/day3/PollStation.sol\":478:494  totalCandidtes++ */\n      dup2\n      dup2\n      swap1\n      sload\n      swap1\n      0x0100\n      exp\n      swap1\n      div\n      0xffffffff\n      and\n      dup1\n      swap3\n      swap2\n      swap1\n      tag_64\n      swap1\n      tag_61\n      jump\t// in\n    tag_64:\n      swap2\n      swap1\n      0x0100\n      exp\n      dup2\n      sload\n      dup2\n      0xffffffff\n      mul\n      not\n      and\n      swap1\n      dup4\n      0xffffffff\n      and\n      mul\n      or\n      swap1\n      sstore\n      pop\n      pop\n        /* \"submissions/MeseretBirhanu/day3/PollStation.sol\":536:570  Candidate(_name, totalCandidtes,0) */\n      mload(0x40)\n      dup1\n      0x60\n      add\n      0x40\n      mstore\n      dup1\n        /* \"submissions/MeseretBirhanu/day3/PollStation.sol\":546:551  _name */\n      dup3\n        /* \"submissions/MeseretBirhanu/day3/PollStation.sol\":536:570  Candidate(_name, totalCandidtes,0) */\n      dup2\n      mstore\n      0x20\n      add\n        /* \"submissions/MeseretBirhanu/day3/PollStation.sol\":553:567  totalCandidtes */\n      0x00\n      0x00\n      swap1\n      sload\n      swap1\n      0x0100\n      exp\n      swap1\n      div\n      0xffffffff\n      and\n        /* \"submissions/MeseretBirhanu/day3/PollStation.sol\":536:570  Candidate(_name, totalCandidtes,0) */\n      0xffffffff\n      and\n      dup2\n      mstore\n      0x20\n      add\n        /* \"submissions/MeseretBirhanu/day3/PollStation.sol\":568:569  0 */\n      0x00\n        /* \"submissions/MeseretBirhanu/day3/PollStation.sol\":536:570  Candidate(_name, totalCandidtes,0) */\n      0xffffffff\n      and\n      dup2\n      mstore\n      pop\n        /* \"submissions/MeseretBirhanu/day3/PollStation.sol\":500:517  currentCandidates */\n      0x01\n        /* \"submissions/MeseretBirhanu/day3/PollStation.sol\":500:533  currentCandidates[totalCandidtes] */\n      0x00\n        /* \"submissions/MeseretBirhanu/day3/PollStation.sol\":518:532  totalCandidtes */\n      0x00\n      0x00\n      swap1\n      sload\n      swap1\n      0x0100\n      exp\n      swap1\n      div\n      0xffffffff\n      and\n        /* \"submissions/MeseretBirhanu/day3/PollStation.sol\":500:533  currentCandidates[totalCandidtes] */\n      0xffffffff\n      and\n      0xffffffff\n      and\n      dup2\n      mstore\n      0x20\n      add\n      swap1\n      dup2\n      mstore\n      0x20\n      add\n      0x00\n      keccak256\n        /* \"submissions/MeseretBirhanu/day3/PollStation.sol\":500:570  currentCandidates[totalCandidtes] = Candidate(_name, totalCandidtes,0) */\n      0x00\n      dup3\n      add\n      mload\n      dup2\n      0x00\n      add\n      swap1\n      dup2\n      tag_65\n      swap2\n      swap1\n      tag_66\n      jump\t// in\n    tag_65:\n      pop\n      0x20\n      dup3\n      add\n      mload\n      dup2\n      0x01\n      add\n      exp(0x0100, 0x00)\n      dup2\n      sload\n      dup2\n      0xffffffff\n      mul\n      not\n      and\n      swap1\n      dup4\n      0xffffffff\n      and\n      mul\n      or\n      swap1\n      sstore\n      pop\n      0x40\n      dup3\n      add\n      mload\n      dup2\n      0x01\n      add\n      exp(0x0100, 0x04)\n      dup2\n      sload\n      dup2\n      0xffffffff\n      mul\n      not\n      and\n      swap1\n      dup4\n      0xffffffff\n      and\n      mul\n      or\n      swap1\n      sstore\n      pop\n      swap1\n      pop\n      pop\n        /* \"submissions/MeseretBirhanu/day3/PollStation.sol\":414:577  function registerforCandidate(string memory _name) public{... */\n      pop\n      jump\t// out\n        /* \"submissions/MeseretBirhanu/day3/PollStation.sol\":222:276  mapping (uint32 => Candidate) public currentCandidates */\n    tag_36:\n      mstore(0x20, 0x01)\n      dup1\n      0x00\n      mstore\n      keccak256(0x00, 0x40)\n      0x00\n      swap2\n      pop\n      swap1\n      pop\n      dup1\n      0x00\n      add\n      dup1\n      sload\n      tag_67\n      swap1\n      tag_45\n      jump\t// in\n    tag_67:\n      dup1\n      0x1f\n      add\n      0x20\n      dup1\n      swap2\n      div\n      mul\n      0x20\n      add\n      mload(0x40)\n      swap1\n      dup2\n      add\n      0x40\n      mstore\n      dup1\n      swap3\n      swap2\n      swap1\n      dup2\n      dup2\n      mstore\n      0x20\n      add\n      dup3\n      dup1\n      sload\n      tag_68\n      swap1\n      tag_45\n      jump\t// in\n    tag_68:\n      dup1\n      iszero\n      tag_69\n      jumpi\n      dup1\n      0x1f\n      lt\n      tag_70\n      jumpi\n      0x0100\n      dup1\n      dup4\n      sload\n      div\n      mul\n      dup4\n      mstore\n      swap2\n      0x20\n      add\n      swap2\n      jump(tag_69)\n    tag_70:\n      dup3\n      add\n      swap2\n      swap1\n      0x00\n      mstore\n      keccak256(0x00, 0x20)\n      swap1\n    tag_71:\n      dup2\n      sload\n      dup2\n      mstore\n      swap1\n      0x01\n      add\n      swap1\n      0x20\n      add\n      dup1\n      dup4\n      gt\n      tag_71\n      jumpi\n      dup3\n      swap1\n      sub\n      0x1f\n      and\n      dup3\n      add\n      swap2\n    tag_69:\n      pop\n      pop\n      pop\n      pop\n      pop\n      swap1\n      dup1\n      0x01\n      add\n      0x00\n      swap1\n      sload\n      swap1\n      0x0100\n      exp\n      swap1\n      div\n      0xffffffff\n      and\n      swap1\n      dup1\n      0x01\n      add\n      0x04\n      swap1\n      sload\n      swap1\n      0x0100\n      exp\n      swap1\n      div\n      0xffffffff\n      and\n      swap1\n      pop\n      dup4\n      jump\t// out\n        /* \"submissions/MeseretBirhanu/day3/PollStation.sol\":382:405  address[] public voters */\n    tag_41:\n      0x04\n      dup2\n      dup2\n      sload\n      dup2\n      lt\n      tag_72\n      jumpi\n      0x00\n      dup1\n      revert\n    tag_72:\n      swap1\n      0x00\n      mstore\n      keccak256(0x00, 0x20)\n      add\n      0x00\n      swap2\n      pop\n      sload\n      swap1\n      0x0100\n      exp\n      swap1\n      div\n      0xffffffffffffffffffffffffffffffffffffffff\n      and\n      dup2\n      jump\t// out\n        /* \"#utility.yul\":7:82   */\n    tag_74:\n        /* \"#utility.yul\":40:46   */\n      0x00\n        /* \"#utility.yul\":73:75   */\n      0x40\n        /* \"#utility.yul\":67:76   */\n      mload\n        /* \"#utility.yul\":57:76   */\n      swap1\n      pop\n        /* \"#utility.yul\":7:82   */\n      swap1\n      jump\t// out\n        /* \"#utility.yul\":88:205   */\n    tag_75:\n        /* \"#utility.yul\":197:198   */\n      0x00\n        /* \"#utility.yul\":194:195   */\n      0x00\n        /* \"#utility.yul\":187:199   */\n      revert\n        /* \"#utility.yul\":211:328   */\n    tag_76:\n        /* \"#utility.yul\":320:321   */\n      0x00\n        /* \"#utility.yul\":317:318   */\n      0x00\n        /* \"#utility.yul\":310:322   */\n      revert\n        /* \"#utility.yul\":334:460   */\n    tag_77:\n        /* \"#utility.yul\":371:378   */\n      0x00\n        /* \"#utility.yul\":411:453   */\n      0xffffffffffffffffffffffffffffffffffffffff\n        /* \"#utility.yul\":404:409   */\n      dup3\n        /* \"#utility.yul\":400:454   */\n      and\n        /* \"#utility.yul\":389:454   */\n      swap1\n      pop\n        /* \"#utility.yul\":334:460   */\n      swap2\n      swap1\n      pop\n      jump\t// out\n        /* \"#utility.yul\":466:562   */\n    tag_78:\n        /* \"#utility.yul\":503:510   */\n      0x00\n        /* \"#utility.yul\":532:556   */\n      tag_133\n        /* \"#utility.yul\":550:555   */\n      dup3\n        /* \"#utility.yul\":532:556   */\n      tag_77\n      jump\t// in\n    tag_133:\n        /* \"#utility.yul\":521:556   */\n      swap1\n      pop\n        /* \"#utility.yul\":466:562   */\n      swap2\n      swap1\n      pop\n      jump\t// out\n        /* \"#utility.yul\":568:690   */\n    tag_79:\n        /* \"#utility.yul\":641:665   */\n      tag_135\n        /* \"#utility.yul\":659:664   */\n      dup2\n        /* \"#utility.yul\":641:665   */\n      tag_78\n      jump\t// in\n    tag_135:\n        /* \"#utility.yul\":634:639   */\n      dup2\n        /* \"#utility.yul\":631:666   */\n      eq\n        /* \"#utility.yul\":621:684   */\n      tag_136\n      jumpi\n        /* \"#utility.yul\":680:681   */\n      0x00\n        /* \"#utility.yul\":677:678   */\n      0x00\n        /* \"#utility.yul\":670:682   */\n      revert\n        /* \"#utility.yul\":621:684   */\n    tag_136:\n        /* \"#utility.yul\":568:690   */\n      pop\n      jump\t// out\n        /* \"#utility.yul\":696:835   */\n    tag_80:\n        /* \"#utility.yul\":742:747   */\n      0x00\n        /* \"#utility.yul\":780:786   */\n      dup2\n        /* \"#utility.yul\":767:787   */\n      calldataload\n        /* \"#utility.yul\":758:787   */\n      swap1\n      pop\n        /* \"#utility.yul\":796:829   */\n      tag_138\n        /* \"#utility.yul\":823:828   */\n      dup2\n        /* \"#utility.yul\":796:829   */\n      tag_79\n      jump\t// in\n    tag_138:\n        /* \"#utility.yul\":696:835   */\n      swap3\n      swap2\n      pop\n      pop\n      jump\t// out\n        /* \"#utility.yul\":841:1170   */\n    tag_13:\n        /* \"#utility.yul\":900:906   */\n      0x00\n        /* \"#utility.yul\":949:951   */\n      0x20\n        /* \"#utility.yul\":937:946   */\n      dup3\n        /* \"#utility.yul\":928:935   */\n      dup5\n        /* \"#utility.yul\":924:947   */\n      sub\n        /* \"#utility.yul\":920:952   */\n      slt\n        /* \"#utility.yul\":917:1036   */\n      iszero\n      tag_140\n      jumpi\n        /* \"#utility.yul\":955:1034   */\n      tag_141\n      tag_75\n      jump\t// in\n    tag_141:\n        /* \"#utility.yul\":917:1036   */\n    tag_140:\n        /* \"#utility.yul\":1075:1076   */\n      0x00\n        /* \"#utility.yul\":1100:1153   */\n      tag_142\n        /* \"#utility.yul\":1145:1152   */\n      dup5\n        /* \"#utility.yul\":1136:1142   */\n      dup3\n        /* \"#utility.yul\":1125:1134   */\n      dup6\n        /* \"#utility.yul\":1121:1143   */\n      add\n        /* \"#utility.yul\":1100:1153   */\n      tag_80\n      jump\t// in\n    tag_142:\n        /* \"#utility.yul\":1090:1153   */\n      swap2\n      pop\n        /* \"#utility.yul\":1046:1163   */\n      pop\n        /* \"#utility.yul\":841:1170   */\n      swap3\n      swap2\n      pop\n      pop\n      jump\t// out\n        /* \"#utility.yul\":1176:1266   */\n    tag_81:\n        /* \"#utility.yul\":1210:1217   */\n      0x00\n        /* \"#utility.yul\":1253:1258   */\n      dup2\n        /* \"#utility.yul\":1246:1259   */\n      iszero\n        /* \"#utility.yul\":1239:1260   */\n      iszero\n        /* \"#utility.yul\":1228:1260   */\n      swap1\n      pop\n        /* \"#utility.yul\":1176:1266   */\n      swap2\n      swap1\n      pop\n      jump\t// out\n        /* \"#utility.yul\":1272:1381   */\n    tag_82:\n        /* \"#utility.yul\":1353:1374   */\n      tag_145\n        /* \"#utility.yul\":1368:1373   */\n      dup2\n        /* \"#utility.yul\":1353:1374   */\n      tag_81\n      jump\t// in\n    tag_145:\n        /* \"#utility.yul\":1348:1351   */\n      dup3\n        /* \"#utility.yul\":1341:1375   */\n      mstore\n        /* \"#utility.yul\":1272:1381   */\n      pop\n      pop\n      jump\t// out\n        /* \"#utility.yul\":1387:1597   */\n    tag_16:\n        /* \"#utility.yul\":1474:1478   */\n      0x00\n        /* \"#utility.yul\":1512:1514   */\n      0x20\n        /* \"#utility.yul\":1501:1510   */\n      dup3\n        /* \"#utility.yul\":1497:1515   */\n      add\n        /* \"#utility.yul\":1489:1515   */\n      swap1\n      pop\n        /* \"#utility.yul\":1525:1590   */\n      tag_147\n        /* \"#utility.yul\":1587:1588   */\n      0x00\n        /* \"#utility.yul\":1576:1585   */\n      dup4\n        /* \"#utility.yul\":1572:1589   */\n      add\n        /* \"#utility.yul\":1563:1569   */\n      dup5\n        /* \"#utility.yul\":1525:1590   */\n      tag_82\n      jump\t// in\n    tag_147:\n        /* \"#utility.yul\":1387:1597   */\n      swap3\n      swap2\n      pop\n      pop\n      jump\t// out\n        /* \"#utility.yul\":1603:1702   */\n    tag_83:\n        /* \"#utility.yul\":1655:1661   */\n      0x00\n        /* \"#utility.yul\":1689:1694   */\n      dup2\n        /* \"#utility.yul\":1683:1695   */\n      mload\n        /* \"#utility.yul\":1673:1695   */\n      swap1\n      pop\n        /* \"#utility.yul\":1603:1702   */\n      swap2\n      swap1\n      pop\n      jump\t// out\n        /* \"#utility.yul\":1708:1877   */\n    tag_84:\n        /* \"#utility.yul\":1792:1803   */\n      0x00\n        /* \"#utility.yul\":1826:1832   */\n      dup3\n        /* \"#utility.yul\":1821:1824   */\n      dup3\n        /* \"#utility.yul\":1814:1833   */\n      mstore\n        /* \"#utility.yul\":1866:1870   */\n      0x20\n        /* \"#utility.yul\":1861:1864   */\n      dup3\n        /* \"#utility.yul\":1857:1871   */\n      add\n        /* \"#utility.yul\":1842:1871   */\n      swap1\n      pop\n        /* \"#utility.yul\":1708:1877   */\n      swap3\n      swap2\n      pop\n      pop\n      jump\t// out\n        /* \"#utility.yul\":1883:2022   */\n    tag_85:\n        /* \"#utility.yul\":1972:1978   */\n      dup3\n        /* \"#utility.yul\":1967:1970   */\n      dup2\n        /* \"#utility.yul\":1962:1965   */\n      dup4\n        /* \"#utility.yul\":1956:1979   */\n      mcopy\n        /* \"#utility.yul\":2013:2014   */\n      0x00\n        /* \"#utility.yul\":2004:2010   */\n      dup4\n        /* \"#utility.yul\":1999:2002   */\n      dup4\n        /* \"#utility.yul\":1995:2011   */\n      add\n        /* \"#utility.yul\":1988:2015   */\n      mstore\n        /* \"#utility.yul\":1883:2022   */\n      pop\n      pop\n      pop\n      jump\t// out\n        /* \"#utility.yul\":2028:2130   */\n    tag_86:\n        /* \"#utility.yul\":2069:2075   */\n      0x00\n        /* \"#utility.yul\":2120:2122   */\n      0x1f\n        /* \"#utility.yul\":2116:2123   */\n      not\n        /* \"#utility.yul\":2111:2113   */\n      0x1f\n        /* \"#utility.yul\":2104:2109   */\n      dup4\n        /* \"#utility.yul\":2100:2114   */\n      add\n        /* \"#utility.yul\":2096:2124   */\n      and\n        /* \"#utility.yul\":2086:2124   */\n      swap1\n      pop\n        /* \"#utility.yul\":2028:2130   */\n      swap2\n      swap1\n      pop\n      jump\t// out\n        /* \"#utility.yul\":2136:2513   */\n    tag_87:\n        /* \"#utility.yul\":2224:2227   */\n      0x00\n        /* \"#utility.yul\":2252:2291   */\n      tag_153\n        /* \"#utility.yul\":2285:2290   */\n      dup3\n        /* \"#utility.yul\":2252:2291   */\n      tag_83\n      jump\t// in\n    tag_153:\n        /* \"#utility.yul\":2307:2378   */\n      tag_154\n        /* \"#utility.yul\":2371:2377   */\n      dup2\n        /* \"#utility.yul\":2366:2369   */\n      dup6\n        /* \"#utility.yul\":2307:2378   */\n      tag_84\n      jump\t// in\n    tag_154:\n        /* \"#utility.yul\":2300:2378   */\n      swap4\n      pop\n        /* \"#utility.yul\":2387:2452   */\n      tag_155\n        /* \"#utility.yul\":2445:2451   */\n      dup2\n        /* \"#utility.yul\":2440:2443   */\n      dup6\n        /* \"#utility.yul\":2433:2437   */\n      0x20\n        /* \"#utility.yul\":2426:2431   */\n      dup7\n        /* \"#utility.yul\":2422:2438   */\n      add\n        /* \"#utility.yul\":2387:2452   */\n      tag_85\n      jump\t// in\n    tag_155:\n        /* \"#utility.yul\":2477:2506   */\n      tag_156\n        /* \"#utility.yul\":2499:2505   */\n      dup2\n        /* \"#utility.yul\":2477:2506   */\n      tag_86\n      jump\t// in\n    tag_156:\n        /* \"#utility.yul\":2472:2475   */\n      dup5\n        /* \"#utility.yul\":2468:2507   */\n      add\n        /* \"#utility.yul\":2461:2507   */\n      swap2\n      pop\n        /* \"#utility.yul\":2228:2513   */\n      pop\n        /* \"#utility.yul\":2136:2513   */\n      swap3\n      swap2\n      pop\n      pop\n      jump\t// out\n        /* \"#utility.yul\":2519:2612   */\n    tag_88:\n        /* \"#utility.yul\":2555:2562   */\n      0x00\n        /* \"#utility.yul\":2595:2605   */\n      0xffffffff\n        /* \"#utility.yul\":2588:2593   */\n      dup3\n        /* \"#utility.yul\":2584:2606   */\n      and\n        /* \"#utility.yul\":2573:2606   */\n      swap1\n      pop\n        /* \"#utility.yul\":2519:2612   */\n      swap2\n      swap1\n      pop\n      jump\t// out\n        /* \"#utility.yul\":2618:2733   */\n    tag_89:\n        /* \"#utility.yul\":2703:2726   */\n      tag_159\n        /* \"#utility.yul\":2720:2725   */\n      dup2\n        /* \"#utility.yul\":2703:2726   */\n      tag_88\n      jump\t// in\n    tag_159:\n        /* \"#utility.yul\":2698:2701   */\n      dup3\n        /* \"#utility.yul\":2691:2727   */\n      mstore\n        /* \"#utility.yul\":2618:2733   */\n      pop\n      pop\n      jump\t// out\n        /* \"#utility.yul\":2739:3264   */\n    tag_21:\n        /* \"#utility.yul\":2904:2908   */\n      0x00\n        /* \"#utility.yul\":2942:2944   */\n      0x60\n        /* \"#utility.yul\":2931:2940   */\n      dup3\n        /* \"#utility.yul\":2927:2945   */\n      add\n        /* \"#utility.yul\":2919:2945   */\n      swap1\n      pop\n        /* \"#utility.yul\":2991:3000   */\n      dup2\n        /* \"#utility.yul\":2985:2989   */\n      dup2\n        /* \"#utility.yul\":2981:3001   */\n      sub\n        /* \"#utility.yul\":2977:2978   */\n      0x00\n        /* \"#utility.yul\":2966:2975   */\n      dup4\n        /* \"#utility.yul\":2962:2979   */\n      add\n        /* \"#utility.yul\":2955:3002   */\n      mstore\n        /* \"#utility.yul\":3019:3097   */\n      tag_161\n        /* \"#utility.yul\":3092:3096   */\n      dup2\n        /* \"#utility.yul\":3083:3089   */\n      dup7\n        /* \"#utility.yul\":3019:3097   */\n      tag_87\n      jump\t// in\n    tag_161:\n        /* \"#utility.yul\":3011:3097   */\n      swap1\n      pop\n        /* \"#utility.yul\":3107:3177   */\n      tag_162\n        /* \"#utility.yul\":3173:3175   */\n      0x20\n        /* \"#utility.yul\":3162:3171   */\n      dup4\n        /* \"#utility.yul\":3158:3176   */\n      add\n        /* \"#utility.yul\":3149:3155   */\n      dup6\n        /* \"#utility.yul\":3107:3177   */\n      tag_89\n      jump\t// in\n    tag_162:\n        /* \"#utility.yul\":3187:3257   */\n      tag_163\n        /* \"#utility.yul\":3253:3255   */\n      0x40\n        /* \"#utility.yul\":3242:3251   */\n      dup4\n        /* \"#utility.yul\":3238:3256   */\n      add\n        /* \"#utility.yul\":3229:3235   */\n      dup5\n        /* \"#utility.yul\":3187:3257   */\n      tag_89\n      jump\t// in\n    tag_163:\n        /* \"#utility.yul\":2739:3264   */\n      swap5\n      swap4\n      pop\n      pop\n      pop\n      pop\n      jump\t// out\n        /* \"#utility.yul\":3270:3488   */\n    tag_25:\n        /* \"#utility.yul\":3361:3365   */\n      0x00\n        /* \"#utility.yul\":3399:3401   */\n      0x20\n        /* \"#utility.yul\":3388:3397   */\n      dup3\n        /* \"#utility.yul\":3384:3402   */\n      add\n        /* \"#utility.yul\":3376:3402   */\n      swap1\n      pop\n        /* \"#utility.yul\":3412:3481   */\n      tag_165\n        /* \"#utility.yul\":3478:3479   */\n      0x00\n        /* \"#utility.yul\":3467:3476   */\n      dup4\n        /* \"#utility.yul\":3463:3480   */\n      add\n        /* \"#utility.yul\":3454:3460   */\n      dup5\n        /* \"#utility.yul\":3412:3481   */\n      tag_89\n      jump\t// in\n    tag_165:\n        /* \"#utility.yul\":3270:3488   */\n      swap3\n      swap2\n      pop\n      pop\n      jump\t// out\n        /* \"#utility.yul\":3494:3614   */\n    tag_90:\n        /* \"#utility.yul\":3566:3589   */\n      tag_167\n        /* \"#utility.yul\":3583:3588   */\n      dup2\n        /* \"#utility.yul\":3566:3589   */\n      tag_88\n      jump\t// in\n    tag_167:\n        /* \"#utility.yul\":3559:3564   */\n      dup2\n        /* \"#utility.yul\":3556:3590   */\n      eq\n        /* \"#utility.yul\":3546:3608   */\n      tag_168\n      jumpi\n        /* \"#utility.yul\":3604:3605   */\n      0x00\n        /* \"#utility.yul\":3601:3602   */\n      0x00\n        /* \"#utility.yul\":3594:3606   */\n      revert\n        /* \"#utility.yul\":3546:3608   */\n    tag_168:\n        /* \"#utility.yul\":3494:3614   */\n      pop\n      jump\t// out\n        /* \"#utility.yul\":3620:3757   */\n    tag_91:\n        /* \"#utility.yul\":3665:3670   */\n      0x00\n        /* \"#utility.yul\":3703:3709   */\n      dup2\n        /* \"#utility.yul\":3690:3710   */\n      calldataload\n        /* \"#utility.yul\":3681:3710   */\n      swap1\n      pop\n        /* \"#utility.yul\":3719:3751   */\n      tag_170\n        /* \"#utility.yul\":3745:3750   */\n      dup2\n        /* \"#utility.yul\":3719:3751   */\n      tag_90\n      jump\t// in\n    tag_170:\n        /* \"#utility.yul\":3620:3757   */\n      swap3\n      swap2\n      pop\n      pop\n      jump\t// out\n        /* \"#utility.yul\":3763:4090   */\n    tag_28:\n        /* \"#utility.yul\":3821:3827   */\n      0x00\n        /* \"#utility.yul\":3870:3872   */\n      0x20\n        /* \"#utility.yul\":3858:3867   */\n      dup3\n        /* \"#utility.yul\":3849:3856   */\n      dup5\n        /* \"#utility.yul\":3845:3868   */\n      sub\n        /* \"#utility.yul\":3841:3873   */\n      slt\n        /* \"#utility.yul\":3838:3957   */\n      iszero\n      tag_172\n      jumpi\n        /* \"#utility.yul\":3876:3955   */\n      tag_173\n      tag_75\n      jump\t// in\n    tag_173:\n        /* \"#utility.yul\":3838:3957   */\n    tag_172:\n        /* \"#utility.yul\":3996:3997   */\n      0x00\n        /* \"#utility.yul\":4021:4073   */\n      tag_174\n        /* \"#utility.yul\":4065:4072   */\n      dup5\n        /* \"#utility.yul\":4056:4062   */\n      dup3\n        /* \"#utility.yul\":4045:4054   */\n      dup6\n        /* \"#utility.yul\":4041:4063   */\n      add\n        /* \"#utility.yul\":4021:4073   */\n      tag_91\n      jump\t// in\n    tag_174:\n        /* \"#utility.yul\":4011:4073   */\n      swap2\n      pop\n        /* \"#utility.yul\":3967:4083   */\n      pop\n        /* \"#utility.yul\":3763:4090   */\n      swap3\n      swap2\n      pop\n      pop\n      jump\t// out\n        /* \"#utility.yul\":4096:4213   */\n    tag_92:\n        /* \"#utility.yul\":4205:4206   */\n      0x00\n        /* \"#utility.yul\":4202:4203   */\n      0x00\n        /* \"#utility.yul\":4195:4207   */\n      revert\n        /* \"#utility.yul\":4219:4336   */\n    tag_93:\n        /* \"#utility.yul\":4328:4329   */\n      0x00\n        /* \"#utility.yul\":4325:4326   */\n      0x00\n        /* \"#utility.yul\":4318:4330   */\n      revert\n        /* \"#utility.yul\":4342:4522   */\n    tag_94:\n        /* \"#utility.yul\":4390:4467   */\n      0x4e487b7100000000000000000000000000000000000000000000000000000000\n        /* \"#utility.yul\":4387:4388   */\n      0x00\n        /* \"#utility.yul\":4380:4468   */\n      mstore\n        /* \"#utility.yul\":4487:4491   */\n      0x41\n        /* \"#utility.yul\":4484:4485   */\n      0x04\n        /* \"#utility.yul\":4477:4492   */\n      mstore\n        /* \"#utility.yul\":4511:4515   */\n      0x24\n        /* \"#utility.yul\":4508:4509   */\n      0x00\n        /* \"#utility.yul\":4501:4516   */\n      revert\n        /* \"#utility.yul\":4528:4809   */\n    tag_95:\n        /* \"#utility.yul\":4611:4638   */\n      tag_179\n        /* \"#utility.yul\":4633:4637   */\n      dup3\n        /* \"#utility.yul\":4611:4638   */\n      tag_86\n      jump\t// in\n    tag_179:\n        /* \"#utility.yul\":4603:4609   */\n      dup2\n        /* \"#utility.yul\":4599:4639   */\n      add\n        /* \"#utility.yul\":4741:4747   */\n      dup2\n        /* \"#utility.yul\":4729:4739   */\n      dup2\n        /* \"#utility.yul\":4726:4748   */\n      lt\n        /* \"#utility.yul\":4705:4723   */\n      0xffffffffffffffff\n        /* \"#utility.yul\":4693:4703   */\n      dup3\n        /* \"#utility.yul\":4690:4724   */\n      gt\n        /* \"#utility.yul\":4687:4749   */\n      or\n        /* \"#utility.yul\":4684:4772   */\n      iszero\n      tag_180\n      jumpi\n        /* \"#utility.yul\":4752:4770   */\n      tag_181\n      tag_94\n      jump\t// in\n    tag_181:\n        /* \"#utility.yul\":4684:4772   */\n    tag_180:\n        /* \"#utility.yul\":4792:4802   */\n      dup1\n        /* \"#utility.yul\":4788:4790   */\n      0x40\n        /* \"#utility.yul\":4781:4803   */\n      mstore\n        /* \"#utility.yul\":4571:4809   */\n      pop\n        /* \"#utility.yul\":4528:4809   */\n      pop\n      pop\n      jump\t// out\n        /* \"#utility.yul\":4815:4944   */\n    tag_96:\n        /* \"#utility.yul\":4849:4855   */\n      0x00\n        /* \"#utility.yul\":4876:4896   */\n      tag_183\n      tag_74\n      jump\t// in\n    tag_183:\n        /* \"#utility.yul\":4866:4896   */\n      swap1\n      pop\n        /* \"#utility.yul\":4905:4938   */\n      tag_184\n        /* \"#utility.yul\":4933:4937   */\n      dup3\n        /* \"#utility.yul\":4925:4931   */\n      dup3\n        /* \"#utility.yul\":4905:4938   */\n      tag_95\n      jump\t// in\n    tag_184:\n        /* \"#utility.yul\":4815:4944   */\n      swap2\n      swap1\n      pop\n      jump\t// out\n        /* \"#utility.yul\":4950:5258   */\n    tag_97:\n        /* \"#utility.yul\":5012:5016   */\n      0x00\n        /* \"#utility.yul\":5102:5120   */\n      0xffffffffffffffff\n        /* \"#utility.yul\":5094:5100   */\n      dup3\n        /* \"#utility.yul\":5091:5121   */\n      gt\n        /* \"#utility.yul\":5088:5144   */\n      iszero\n      tag_186\n      jumpi\n        /* \"#utility.yul\":5124:5142   */\n      tag_187\n      tag_94\n      jump\t// in\n    tag_187:\n        /* \"#utility.yul\":5088:5144   */\n    tag_186:\n        /* \"#utility.yul\":5162:5191   */\n      tag_188\n        /* \"#utility.yul\":5184:5190   */\n      dup3\n        /* \"#utility.yul\":5162:5191   */\n      tag_86\n      jump\t// in\n    tag_188:\n        /* \"#utility.yul\":5154:5191   */\n      swap1\n      pop\n        /* \"#utility.yul\":5246:5250   */\n      0x20\n        /* \"#utility.yul\":5240:5244   */\n      dup2\n        /* \"#utility.yul\":5236:5251   */\n      add\n        /* \"#utility.yul\":5228:5251   */\n      swap1\n      pop\n        /* \"#utility.yul\":4950:5258   */\n      swap2\n      swap1\n      pop\n      jump\t// out\n        /* \"#utility.yul\":5264:5412   */\n    tag_98:\n        /* \"#utility.yul\":5362:5368   */\n      dup3\n        /* \"#utility.yul\":5357:5360   */\n      dup2\n        /* \"#utility.yul\":5352:5355   */\n      dup4\n        /* \"#utility.yul\":5339:5369   */\n      calldatacopy\n        /* \"#utility.yul\":5403:5404   */\n      0x00\n        /* \"#utility.yul\":5394:5400   */\n      dup4\n        /* \"#utility.yul\":5389:5392   */\n      dup4\n        /* \"#utility.yul\":5385:5401   */\n      add\n        /* \"#utility.yul\":5378:5405   */\n      mstore\n        /* \"#utility.yul\":5264:5412   */\n      pop\n      pop\n      pop\n      jump\t// out\n        /* \"#utility.yul\":5418:5843   */\n    tag_99:\n        /* \"#utility.yul\":5496:5501   */\n      0x00\n        /* \"#utility.yul\":5521:5587   */\n      tag_191\n        /* \"#utility.yul\":5537:5586   */\n      tag_192\n        /* \"#utility.yul\":5579:5585   */\n      dup5\n        /* \"#utility.yul\":5537:5586   */\n      tag_97\n      jump\t// in\n    tag_192:\n        /* \"#utility.yul\":5521:5587   */\n      tag_96\n      jump\t// in\n    tag_191:\n        /* \"#utility.yul\":5512:5587   */\n      swap1\n      pop\n        /* \"#utility.yul\":5610:5616   */\n      dup3\n        /* \"#utility.yul\":5603:5608   */\n      dup2\n        /* \"#utility.yul\":5596:5617   */\n      mstore\n        /* \"#utility.yul\":5648:5652   */\n      0x20\n        /* \"#utility.yul\":5641:5646   */\n      dup2\n        /* \"#utility.yul\":5637:5653   */\n      add\n        /* \"#utility.yul\":5686:5689   */\n      dup5\n        /* \"#utility.yul\":5677:5683   */\n      dup5\n        /* \"#utility.yul\":5672:5675   */\n      dup5\n        /* \"#utility.yul\":5668:5684   */\n      add\n        /* \"#utility.yul\":5665:5690   */\n      gt\n        /* \"#utility.yul\":5662:5774   */\n      iszero\n      tag_193\n      jumpi\n        /* \"#utility.yul\":5693:5772   */\n      tag_194\n      tag_93\n      jump\t// in\n    tag_194:\n        /* \"#utility.yul\":5662:5774   */\n    tag_193:\n        /* \"#utility.yul\":5783:5837   */\n      tag_195\n        /* \"#utility.yul\":5830:5836   */\n      dup5\n        /* \"#utility.yul\":5825:5828   */\n      dup3\n        /* \"#utility.yul\":5820:5823   */\n      dup6\n        /* \"#utility.yul\":5783:5837   */\n      tag_98\n      jump\t// in\n    tag_195:\n        /* \"#utility.yul\":5502:5843   */\n      pop\n        /* \"#utility.yul\":5418:5843   */\n      swap4\n      swap3\n      pop\n      pop\n      pop\n      jump\t// out\n        /* \"#utility.yul\":5863:6203   */\n    tag_100:\n        /* \"#utility.yul\":5919:5924   */\n      0x00\n        /* \"#utility.yul\":5968:5971   */\n      dup3\n        /* \"#utility.yul\":5961:5965   */\n      0x1f\n        /* \"#utility.yul\":5953:5959   */\n      dup4\n        /* \"#utility.yul\":5949:5966   */\n      add\n        /* \"#utility.yul\":5945:5972   */\n      slt\n        /* \"#utility.yul\":5935:6057   */\n      tag_197\n      jumpi\n        /* \"#utility.yul\":5976:6055   */\n      tag_198\n      tag_92\n      jump\t// in\n    tag_198:\n        /* \"#utility.yul\":5935:6057   */\n    tag_197:\n        /* \"#utility.yul\":6093:6099   */\n      dup2\n        /* \"#utility.yul\":6080:6100   */\n      calldataload\n        /* \"#utility.yul\":6118:6197   */\n      tag_199\n        /* \"#utility.yul\":6193:6196   */\n      dup5\n        /* \"#utility.yul\":6185:6191   */\n      dup3\n        /* \"#utility.yul\":6178:6182   */\n      0x20\n        /* \"#utility.yul\":6170:6176   */\n      dup7\n        /* \"#utility.yul\":6166:6183   */\n      add\n        /* \"#utility.yul\":6118:6197   */\n      tag_99\n      jump\t// in\n    tag_199:\n        /* \"#utility.yul\":6109:6197   */\n      swap2\n      pop\n        /* \"#utility.yul\":5925:6203   */\n      pop\n        /* \"#utility.yul\":5863:6203   */\n      swap3\n      swap2\n      pop\n      pop\n      jump\t// out\n        /* \"#utility.yul\":6209:6718   */\n    tag_32:\n        /* \"#utility.yul\":6278:6284   */\n      0x00\n        /* \"#utility.yul\":6327:6329   */\n      0x20\n        /* \"#utility.yul\":6315:6324   */\n      dup3\n        /* \"#utility.yul\":6306:6313   */\n      dup5\n        /* \"#utility.yul\":6302:6325   */\n      sub\n        /* \"#utility.yul\":6298:6330   */\n      slt\n        /* \"#utility.yul\":6295:6414   */\n      iszero\n      tag_201\n      jumpi\n        /* \"#utility.yul\":6333:6412   */\n      tag_202\n      tag_75\n      jump\t// in\n    tag_202:\n        /* \"#utility.yul\":6295:6414   */\n    tag_201:\n        /* \"#utility.yul\":6481:6482   */\n      0x00\n        /* \"#utility.yul\":6470:6479   */\n      dup3\n        /* \"#utility.yul\":6466:6483   */\n      add\n        /* \"#utility.yul\":6453:6484   */\n      calldataload\n        /* \"#utility.yul\":6511:6529   */\n      0xffffffffffffffff\n        /* \"#utility.yul\":6503:6509   */\n      dup2\n        /* \"#utility.yul\":6500:6530   */\n      gt\n        /* \"#utility.yul\":6497:6614   */\n      iszero\n      tag_203\n      jumpi\n        /* \"#utility.yul\":6533:6612   */\n      tag_204\n      tag_76\n      jump\t// in\n    tag_204:\n        /* \"#utility.yul\":6497:6614   */\n    tag_203:\n        /* \"#utility.yul\":6638:6701   */\n      tag_205\n        /* \"#utility.yul\":6693:6700   */\n      dup5\n        /* \"#utility.yul\":6684:6690   */\n      dup3\n        /* \"#utility.yul\":6673:6682   */\n      dup6\n        /* \"#utility.yul\":6669:6691   */\n      add\n        /* \"#utility.yul\":6638:6701   */\n      tag_100\n      jump\t// in\n    tag_205:\n        /* \"#utility.yul\":6628:6701   */\n      swap2\n      pop\n        /* \"#utility.yul\":6424:6711   */\n      pop\n        /* \"#utility.yul\":6209:6718   */\n      swap3\n      swap2\n      pop\n      pop\n      jump\t// out\n        /* \"#utility.yul\":6724:6801   */\n    tag_101:\n        /* \"#utility.yul\":6761:6768   */\n      0x00\n        /* \"#utility.yul\":6790:6795   */\n      dup2\n        /* \"#utility.yul\":6779:6795   */\n      swap1\n      pop\n        /* \"#utility.yul\":6724:6801   */\n      swap2\n      swap1\n      pop\n      jump\t// out\n        /* \"#utility.yul\":6807:6929   */\n    tag_102:\n        /* \"#utility.yul\":6880:6904   */\n      tag_208\n        /* \"#utility.yul\":6898:6903   */\n      dup2\n        /* \"#utility.yul\":6880:6904   */\n      tag_101\n      jump\t// in\n    tag_208:\n        /* \"#utility.yul\":6873:6878   */\n      dup2\n        /* \"#utility.yul\":6870:6905   */\n      eq\n        /* \"#utility.yul\":6860:6923   */\n      tag_209\n      jumpi\n        /* \"#utility.yul\":6919:6920   */\n      0x00\n        /* \"#utility.yul\":6916:6917   */\n      0x00\n        /* \"#utility.yul\":6909:6921   */\n      revert\n        /* \"#utility.yul\":6860:6923   */\n    tag_209:\n        /* \"#utility.yul\":6807:6929   */\n      pop\n      jump\t// out\n        /* \"#utility.yul\":6935:7074   */\n    tag_103:\n        /* \"#utility.yul\":6981:6986   */\n      0x00\n        /* \"#utility.yul\":7019:7025   */\n      dup2\n        /* \"#utility.yul\":7006:7026   */\n      calldataload\n        /* \"#utility.yul\":6997:7026   */\n      swap1\n      pop\n        /* \"#utility.yul\":7035:7068   */\n      tag_211\n        /* \"#utility.yul\":7062:7067   */\n      dup2\n        /* \"#utility.yul\":7035:7068   */\n      tag_102\n      jump\t// in\n    tag_211:\n        /* \"#utility.yul\":6935:7074   */\n      swap3\n      swap2\n      pop\n      pop\n      jump\t// out\n        /* \"#utility.yul\":7080:7409   */\n    tag_40:\n        /* \"#utility.yul\":7139:7145   */\n      0x00\n        /* \"#utility.yul\":7188:7190   */\n      0x20\n        /* \"#utility.yul\":7176:7185   */\n      dup3\n        /* \"#utility.yul\":7167:7174   */\n      dup5\n        /* \"#utility.yul\":7163:7186   */\n      sub\n        /* \"#utility.yul\":7159:7191   */\n      slt\n        /* \"#utility.yul\":7156:7275   */\n      iszero\n      tag_213\n      jumpi\n        /* \"#utility.yul\":7194:7273   */\n      tag_214\n      tag_75\n      jump\t// in\n    tag_214:\n        /* \"#utility.yul\":7156:7275   */\n    tag_213:\n        /* \"#utility.yul\":7314:7315   */\n      0x00\n        /* \"#utility.yul\":7339:7392   */\n      tag_215\n        /* \"#utility.yul\":7384:7391   */\n      dup5\n        /* \"#utility.yul\":7375:7381   */\n      dup3\n        /* \"#utility.yul\":7364:7373   */\n      dup6\n        /* \"#utility.yul\":7360:7382   */\n      add\n        /* \"#utility.yul\":7339:7392   */\n      tag_103\n      jump\t// in\n    tag_215:\n        /* \"#utility.yul\":7329:7392   */\n      swap2\n      pop\n        /* \"#utility.yul\":7285:7402   */\n      pop\n        /* \"#utility.yul\":7080:7409   */\n      swap3\n      swap2\n      pop\n      pop\n      jump\t// out\n        /* \"#utility.yul\":7415:7533   */\n    tag_104:\n        /* \"#utility.yul\":7502:7526   */\n      tag_217\n        /* \"#utility.yul\":7520:7525   */\n      dup2\n        /* \"#utility.yul\":7502:7526   */\n      tag_78\n      jump\t// in\n    tag_217:\n        /* \"#utility.yul\":7497:7500   */\n      dup3\n        /* \"#utility.yul\":7490:7527   */\n      mstore\n        /* \"#utility.yul\":7415:7533   */\n      pop\n      pop\n      jump\t// out\n        /* \"#utility.yul\":7539:7761   */\n    tag_43:\n        /* \"#utility.yul\":7632:7636   */\n      0x00\n        /* \"#utility.yul\":7670:7672   */\n      0x20\n        /* \"#utility.yul\":7659:7668   */\n      dup3\n        /* \"#utility.yul\":7655:7673   */\n      add\n        /* \"#utility.yul\":7647:7673   */\n      swap1\n      pop\n        /* \"#utility.yul\":7683:7754   */\n      tag_219\n        /* \"#utility.yul\":7751:7752   */\n      0x00\n        /* \"#utility.yul\":7740:7749   */\n      dup4\n        /* \"#utility.yul\":7736:7753   */\n      add\n        /* \"#utility.yul\":7727:7733   */\n      dup5\n        /* \"#utility.yul\":7683:7754   */\n      tag_104\n      jump\t// in\n    tag_219:\n        /* \"#utility.yul\":7539:7761   */\n      swap3\n      swap2\n      pop\n      pop\n      jump\t// out\n        /* \"#utility.yul\":7767:7947   */\n    tag_105:\n        /* \"#utility.yul\":7815:7892   */\n      0x4e487b7100000000000000000000000000000000000000000000000000000000\n        /* \"#utility.yul\":7812:7813   */\n      0x00\n        /* \"#utility.yul\":7805:7893   */\n      mstore\n        /* \"#utility.yul\":7912:7916   */\n      0x22\n        /* \"#utility.yul\":7909:7910   */\n      0x04\n        /* \"#utility.yul\":7902:7917   */\n      mstore\n        /* \"#utility.yul\":7936:7940   */\n      0x24\n        /* \"#utility.yul\":7933:7934   */\n      0x00\n        /* \"#utility.yul\":7926:7941   */\n      revert\n        /* \"#utility.yul\":7953:8273   */\n    tag_45:\n        /* \"#utility.yul\":7997:8003   */\n      0x00\n        /* \"#utility.yul\":8034:8035   */\n      0x02\n        /* \"#utility.yul\":8028:8032   */\n      dup3\n        /* \"#utility.yul\":8024:8036   */\n      div\n        /* \"#utility.yul\":8014:8036   */\n      swap1\n      pop\n        /* \"#utility.yul\":8081:8082   */\n      0x01\n        /* \"#utility.yul\":8075:8079   */\n      dup3\n        /* \"#utility.yul\":8071:8083   */\n      and\n        /* \"#utility.yul\":8102:8120   */\n      dup1\n        /* \"#utility.yul\":8092:8173   */\n      tag_222\n      jumpi\n        /* \"#utility.yul\":8158:8162   */\n      0x7f\n        /* \"#utility.yul\":8150:8156   */\n      dup3\n        /* \"#utility.yul\":8146:8163   */\n      and\n        /* \"#utility.yul\":8136:8163   */\n      swap2\n      pop\n        /* \"#utility.yul\":8092:8173   */\n    tag_222:\n        /* \"#utility.yul\":8220:8222   */\n      0x20\n        /* \"#utility.yul\":8212:8218   */\n      dup3\n        /* \"#utility.yul\":8209:8223   */\n      lt\n        /* \"#utility.yul\":8189:8207   */\n      dup2\n        /* \"#utility.yul\":8186:8224   */\n      sub\n        /* \"#utility.yul\":8183:8267   */\n      tag_223\n      jumpi\n        /* \"#utility.yul\":8239:8257   */\n      tag_224\n      tag_105\n      jump\t// in\n    tag_224:\n        /* \"#utility.yul\":8183:8267   */\n    tag_223:\n        /* \"#utility.yul\":8004:8273   */\n      pop\n        /* \"#utility.yul\":7953:8273   */\n      swap2\n      swap1\n      pop\n      jump\t// out\n        /* \"#utility.yul\":8279:8446   */\n    tag_106:\n        /* \"#utility.yul\":8419:8438   */\n      0x596f7520616c726561647920766f746564000000000000000000000000000000\n        /* \"#utility.yul\":8415:8416   */\n      0x00\n        /* \"#utility.yul\":8407:8413   */\n      dup3\n        /* \"#utility.yul\":8403:8417   */\n      add\n        /* \"#utility.yul\":8396:8439   */\n      mstore\n        /* \"#utility.yul\":8279:8446   */\n      pop\n      jump\t// out\n        /* \"#utility.yul\":8452:8818   */\n    tag_107:\n        /* \"#utility.yul\":8594:8597   */\n      0x00\n        /* \"#utility.yul\":8615:8682   */\n      tag_227\n        /* \"#utility.yul\":8679:8681   */\n      0x11\n        /* \"#utility.yul\":8674:8677   */\n      dup4\n        /* \"#utility.yul\":8615:8682   */\n      tag_84\n      jump\t// in\n    tag_227:\n        /* \"#utility.yul\":8608:8682   */\n      swap2\n      pop\n        /* \"#utility.yul\":8691:8784   */\n      tag_228\n        /* \"#utility.yul\":8780:8783   */\n      dup3\n        /* \"#utility.yul\":8691:8784   */\n      tag_106\n      jump\t// in\n    tag_228:\n        /* \"#utility.yul\":8809:8811   */\n      0x20\n        /* \"#utility.yul\":8804:8807   */\n      dup3\n        /* \"#utility.yul\":8800:8812   */\n      add\n        /* \"#utility.yul\":8793:8812   */\n      swap1\n      pop\n        /* \"#utility.yul\":8452:8818   */\n      swap2\n      swap1\n      pop\n      jump\t// out\n        /* \"#utility.yul\":8824:9243   */\n    tag_53:\n        /* \"#utility.yul\":8990:8994   */\n      0x00\n        /* \"#utility.yul\":9028:9030   */\n      0x20\n        /* \"#utility.yul\":9017:9026   */\n      dup3\n        /* \"#utility.yul\":9013:9031   */\n      add\n        /* \"#utility.yul\":9005:9031   */\n      swap1\n      pop\n        /* \"#utility.yul\":9077:9086   */\n      dup2\n        /* \"#utility.yul\":9071:9075   */\n      dup2\n        /* \"#utility.yul\":9067:9087   */\n      sub\n        /* \"#utility.yul\":9063:9064   */\n      0x00\n        /* \"#utility.yul\":9052:9061   */\n      dup4\n        /* \"#utility.yul\":9048:9065   */\n      add\n        /* \"#utility.yul\":9041:9088   */\n      mstore\n        /* \"#utility.yul\":9105:9236   */\n      tag_230\n        /* \"#utility.yul\":9231:9235   */\n      dup2\n        /* \"#utility.yul\":9105:9236   */\n      tag_107\n      jump\t// in\n    tag_230:\n        /* \"#utility.yul\":9097:9236   */\n      swap1\n      pop\n        /* \"#utility.yul\":8824:9243   */\n      swap2\n      swap1\n      pop\n      jump\t// out\n        /* \"#utility.yul\":9249:9419   */\n    tag_108:\n        /* \"#utility.yul\":9389:9411   */\n      0x696e76616c69642063616e646964617465206964000000000000000000000000\n        /* \"#utility.yul\":9385:9386   */\n      0x00\n        /* \"#utility.yul\":9377:9383   */\n      dup3\n        /* \"#utility.yul\":9373:9387   */\n      add\n        /* \"#utility.yul\":9366:9412   */\n      mstore\n        /* \"#utility.yul\":9249:9419   */\n      pop\n      jump\t// out\n        /* \"#utility.yul\":9425:9791   */\n    tag_109:\n        /* \"#utility.yul\":9567:9570   */\n      0x00\n        /* \"#utility.yul\":9588:9655   */\n      tag_233\n        /* \"#utility.yul\":9652:9654   */\n      0x14\n        /* \"#utility.yul\":9647:9650   */\n      dup4\n        /* \"#utility.yul\":9588:9655   */\n      tag_84\n      jump\t// in\n    tag_233:\n        /* \"#utility.yul\":9581:9655   */\n      swap2\n      pop\n        /* \"#utility.yul\":9664:9757   */\n      tag_234\n        /* \"#utility.yul\":9753:9756   */\n      dup3\n        /* \"#utility.yul\":9664:9757   */\n      tag_108\n      jump\t// in\n    tag_234:\n        /* \"#utility.yul\":9782:9784   */\n      0x20\n        /* \"#utility.yul\":9777:9780   */\n      dup3\n        /* \"#utility.yul\":9773:9785   */\n      add\n        /* \"#utility.yul\":9766:9785   */\n      swap1\n      pop\n        /* \"#utility.yul\":9425:9791   */\n      swap2\n      swap1\n      pop\n      jump\t// out\n        /* \"#utility.yul\":9797:10216   */\n    tag_57:\n        /* \"#utility.yul\":9963:9967   */\n      0x00\n        /* \"#utility.yul\":10001:10003   */\n      0x20\n        /* \"#utility.yul\":9990:9999   */\n      dup3\n        /* \"#utility.yul\":9986:10004   */\n      add\n        /* \"#utility.yul\":9978:10004   */\n      swap1\n      pop\n        /* \"#utility.yul\":10050:10059   */\n      dup2\n        /* \"#utility.yul\":10044:10048   */\n      dup2\n        /* \"#utility.yul\":10040:10060   */\n      sub\n        /* \"#utility.yul\":10036:10037   */\n      0x00\n        /* \"#utility.yul\":10025:10034   */\n      dup4\n        /* \"#utility.yul\":10021:10038   */\n      add\n        /* \"#utility.yul\":10014:10061   */\n      mstore\n        /* \"#utility.yul\":10078:10209   */\n      tag_236\n        /* \"#utility.yul\":10204:10208   */\n      dup2\n        /* \"#utility.yul\":10078:10209   */\n      tag_109\n      jump\t// in\n    tag_236:\n        /* \"#utility.yul\":10070:10209   */\n      swap1\n      pop\n        /* \"#utility.yul\":9797:10216   */\n      swap2\n      swap1\n      pop\n      jump\t// out\n        /* \"#utility.yul\":10222:10371   */\n    tag_110:\n        /* \"#utility.yul\":10271:10277   */\n      0x00\n        /* \"#utility.yul\":10305:10310   */\n      dup2\n        /* \"#utility.yul\":10299:10311   */\n      sload\n        /* \"#utility.yul\":10289:10311   */\n      swap1\n      pop\n        /* \"#utility.yul\":10331:10364   */\n      tag_238\n        /* \"#utility.yul\":10357:10363   */\n      dup2\n        /* \"#utility.yul\":10331:10364   */\n      tag_45\n      jump\t// in\n    tag_238:\n        /* \"#utility.yul\":10321:10364   */\n      swap1\n      pop\n        /* \"#utility.yul\":10222:10371   */\n      swap2\n      swap1\n      pop\n      jump\t// out\n        /* \"#utility.yul\":10377:10518   */\n    tag_111:\n        /* \"#utility.yul\":10426:10430   */\n      0x00\n        /* \"#utility.yul\":10449:10452   */\n      dup2\n        /* \"#utility.yul\":10441:10452   */\n      swap1\n      pop\n        /* \"#utility.yul\":10472:10475   */\n      dup2\n        /* \"#utility.yul\":10469:10470   */\n      0x00\n        /* \"#utility.yul\":10462:10476   */\n      mstore\n        /* \"#utility.yul\":10506:10510   */\n      0x20\n        /* \"#utility.yul\":10503:10504   */\n      0x00\n        /* \"#utility.yul\":10493:10511   */\n      keccak256\n        /* \"#utility.yul\":10485:10511   */\n      swap1\n      pop\n        /* \"#utility.yul\":10377:10518   */\n      swap2\n      swap1\n      pop\n      jump\t// out\n        /* \"#utility.yul\":10524:10617   */\n    tag_112:\n        /* \"#utility.yul\":10561:10567   */\n      0x00\n        /* \"#utility.yul\":10608:10610   */\n      0x20\n        /* \"#utility.yul\":10603:10605   */\n      0x1f\n        /* \"#utility.yul\":10596:10601   */\n      dup4\n        /* \"#utility.yul\":10592:10606   */\n      add\n        /* \"#utility.yul\":10588:10611   */\n      div\n        /* \"#utility.yul\":10578:10611   */\n      swap1\n      pop\n        /* \"#utility.yul\":10524:10617   */\n      swap2\n      swap1\n      pop\n      jump\t// out\n        /* \"#utility.yul\":10623:10730   */\n    tag_113:\n        /* \"#utility.yul\":10667:10675   */\n      0x00\n        /* \"#utility.yul\":10717:10722   */\n      dup3\n        /* \"#utility.yul\":10711:10715   */\n      dup3\n        /* \"#utility.yul\":10707:10723   */\n      shl\n        /* \"#utility.yul\":10686:10723   */\n      swap1\n      pop\n        /* \"#utility.yul\":10623:10730   */\n      swap3\n      swap2\n      pop\n      pop\n      jump\t// out\n        /* \"#utility.yul\":10736:11129   */\n    tag_114:\n        /* \"#utility.yul\":10805:10811   */\n      0x00\n        /* \"#utility.yul\":10855:10856   */\n      0x08\n        /* \"#utility.yul\":10843:10853   */\n      dup4\n        /* \"#utility.yul\":10839:10857   */\n      mul\n        /* \"#utility.yul\":10878:10975   */\n      tag_243\n        /* \"#utility.yul\":10908:10974   */\n      0xffffffffffffffffffffffffffffffffffffffffffffffffffffffffffffffff\n        /* \"#utility.yul\":10897:10906   */\n      dup3\n        /* \"#utility.yul\":10878:10975   */\n      tag_113\n      jump\t// in\n    tag_243:\n        /* \"#utility.yul\":10996:11035   */\n      tag_244\n        /* \"#utility.yul\":11026:11034   */\n      dup7\n        /* \"#utility.yul\":11015:11024   */\n      dup4\n        /* \"#utility.yul\":10996:11035   */\n      tag_113\n      jump\t// in\n    tag_244:\n        /* \"#utility.yul\":10984:11035   */\n      swap6\n      pop\n        /* \"#utility.yul\":11068:11072   */\n      dup1\n        /* \"#utility.yul\":11064:11073   */\n      not\n        /* \"#utility.yul\":11057:11062   */\n      dup5\n        /* \"#utility.yul\":11053:11074   */\n      and\n        /* \"#utility.yul\":11044:11074   */\n      swap4\n      pop\n        /* \"#utility.yul\":11117:11121   */\n      dup1\n        /* \"#utility.yul\":11107:11115   */\n      dup7\n        /* \"#utility.yul\":11103:11122   */\n      and\n        /* \"#utility.yul\":11096:11101   */\n      dup5\n        /* \"#utility.yul\":11093:11123   */\n      or\n        /* \"#utility.yul\":11083:11123   */\n      swap3\n      pop\n        /* \"#utility.yul\":10812:11129   */\n      pop\n      pop\n        /* \"#utility.yul\":10736:11129   */\n      swap4\n      swap3\n      pop\n      pop\n      pop\n      jump\t// out\n        /* \"#utility.yul\":11135:11195   */\n    tag_115:\n        /* \"#utility.yul\":11163:11166   */\n      0x00\n        /* \"#utility.yul\":11184:11189   */\n      dup2\n        /* \"#utility.yul\":11177:11189   */\n      swap1\n      pop\n        /* \"#utility.yul\":11135:11195   */\n      swap2\n      swap1\n      pop\n      jump\t// out\n        /* \"#utility.yul\":11201:11343   */\n    tag_116:\n        /* \"#utility.yul\":11251:11260   */\n      0x00\n        /* \"#utility.yul\":11284:11337   */\n      tag_247\n        /* \"#utility.yul\":11302:11336   */\n      tag_248\n        /* \"#utility.yul\":11311:11335   */\n      tag_249\n        /* \"#utility.yul\":11329:11334   */\n      dup5\n        /* \"#utility.yul\":11311:11335   */\n      tag_101\n      jump\t// in\n    tag_249:\n        /* \"#utility.yul\":11302:11336   */\n      tag_115\n      jump\t// in\n    tag_248:\n        /* \"#utility.yul\":11284:11337   */\n      tag_101\n      jump\t// in\n    tag_247:\n        /* \"#utility.yul\":11271:11337   */\n      swap1\n      pop\n        /* \"#utility.yul\":11201:11343   */\n      swap2\n      swap1\n      pop\n      jump\t// out\n        /* \"#utility.yul\":11349:11424   */\n    tag_117:\n        /* \"#utility.yul\":11392:11395   */\n      0x00\n        /* \"#utility.yul\":11413:11418   */\n      dup2\n        /* \"#utility.yul\":11406:11418   */\n      swap1\n      pop\n        /* \"#utility.yul\":11349:11424   */\n      swap2\n      swap1\n      pop\n      jump\t// out\n        /* \"#utility.yul\":11430:11699   */\n    tag_118:\n        /* \"#utility.yul\":11540:11579   */\n      tag_252\n        /* \"#utility.yul\":11571:11578   */\n      dup4\n        /* \"#utility.yul\":11540:11579   */\n      tag_116\n      jump\t// in\n    tag_252:\n        /* \"#utility.yul\":11601:11692   */\n      tag_253\n        /* \"#utility.yul\":11650:11691   */\n      tag_254\n        /* \"#utility.yul\":11674:11690   */\n      dup3\n        /* \"#utility.yul\":11650:11691   */\n      tag_117\n      jump\t// in\n    tag_254:\n        /* \"#utility.yul\":11642:11648   */\n      dup5\n        /* \"#utility.yul\":11635:11639   */\n      dup5\n        /* \"#utility.yul\":11629:11640   */\n      sload\n        /* \"#utility.yul\":11601:11692   */\n      tag_114\n      jump\t// in\n    tag_253:\n        /* \"#utility.yul\":11595:11599   */\n      dup3\n        /* \"#utility.yul\":11588:11693   */\n      sstore\n        /* \"#utility.yul\":11506:11699   */\n      pop\n        /* \"#utility.yul\":11430:11699   */\n      pop\n      pop\n      pop\n      jump\t// out\n        /* \"#utility.yul\":11705:11778   */\n    tag_119:\n        /* \"#utility.yul\":11750:11753   */\n      0x00\n        /* \"#utility.yul\":11771:11772   */\n      0x00\n        /* \"#utility.yul\":11764:11772   */\n      swap1\n      pop\n        /* \"#utility.yul\":11705:11778   */\n      swap1\n      jump\t// out\n        /* \"#utility.yul\":11784:11973   */\n    tag_120:\n        /* \"#utility.yul\":11861:11893   */\n      tag_257\n      tag_119\n      jump\t// in\n    tag_257:\n        /* \"#utility.yul\":11902:11967   */\n      tag_258\n        /* \"#utility.yul\":11960:11966   */\n      dup2\n        /* \"#utility.yul\":11952:11958   */\n      dup5\n        /* \"#utility.yul\":11946:11950   */\n      dup5\n        /* \"#utility.yul\":11902:11967   */\n      tag_118\n      jump\t// in\n    tag_258:\n        /* \"#utility.yul\":11837:11973   */\n      pop\n        /* \"#utility.yul\":11784:11973   */\n      pop\n      pop\n      jump\t// out\n        /* \"#utility.yul\":11979:12165   */\n    tag_121:\n        /* \"#utility.yul\":12039:12159   */\n    tag_260:\n        /* \"#utility.yul\":12056:12059   */\n      dup2\n        /* \"#utility.yul\":12049:12054   */\n      dup2\n        /* \"#utility.yul\":12046:12060   */\n      lt\n        /* \"#utility.yul\":12039:12159   */\n      iszero\n      tag_262\n      jumpi\n        /* \"#utility.yul\":12110:12149   */\n      tag_263\n        /* \"#utility.yul\":12147:12148   */\n      0x00\n        /* \"#utility.yul\":12140:12145   */\n      dup3\n        /* \"#utility.yul\":12110:12149   */\n      tag_120\n      jump\t// in\n    tag_263:\n        /* \"#utility.yul\":12083:12084   */\n      0x01\n        /* \"#utility.yul\":12076:12081   */\n      dup2\n        /* \"#utility.yul\":12072:12085   */\n      add\n        /* \"#utility.yul\":12063:12085   */\n      swap1\n      pop\n        /* \"#utility.yul\":12039:12159   */\n      jump(tag_260)\n    tag_262:\n        /* \"#utility.yul\":11979:12165   */\n      pop\n      pop\n      jump\t// out\n        /* \"#utility.yul\":12171:12714   */\n    tag_122:\n        /* \"#utility.yul\":12272:12274   */\n      0x1f\n        /* \"#utility.yul\":12267:12270   */\n      dup3\n        /* \"#utility.yul\":12264:12275   */\n      gt\n        /* \"#utility.yul\":12261:12707   */\n      iszero\n      tag_265\n      jumpi\n        /* \"#utility.yul\":12306:12344   */\n      tag_266\n        /* \"#utility.yul\":12338:12343   */\n      dup2\n        /* \"#utility.yul\":12306:12344   */\n      tag_111\n      jump\t// in\n    tag_266:\n        /* \"#utility.yul\":12390:12419   */\n      tag_267\n        /* \"#utility.yul\":12408:12418   */\n      dup5\n        /* \"#utility.yul\":12390:12419   */\n      tag_112\n      jump\t// in\n    tag_267:\n        /* \"#utility.yul\":12380:12388   */\n      dup2\n        /* \"#utility.yul\":12376:12420   */\n      add\n        /* \"#utility.yul\":12573:12575   */\n      0x20\n        /* \"#utility.yul\":12561:12571   */\n      dup6\n        /* \"#utility.yul\":12558:12576   */\n      lt\n        /* \"#utility.yul\":12555:12604   */\n      iszero\n      tag_268\n      jumpi\n        /* \"#utility.yul\":12594:12602   */\n      dup2\n        /* \"#utility.yul\":12579:12602   */\n      swap1\n      pop\n        /* \"#utility.yul\":12555:12604   */\n    tag_268:\n        /* \"#utility.yul\":12617:12697   */\n      tag_269\n        /* \"#utility.yul\":12673:12695   */\n      tag_270\n        /* \"#utility.yul\":12691:12694   */\n      dup6\n        /* \"#utility.yul\":12673:12695   */\n      tag_112\n      jump\t// in\n    tag_270:\n        /* \"#utility.yul\":12663:12671   */\n      dup4\n        /* \"#utility.yul\":12659:12696   */\n      add\n        /* \"#utility.yul\":12646:12657   */\n      dup3\n        /* \"#utility.yul\":12617:12697   */\n      tag_121\n      jump\t// in\n    tag_269:\n        /* \"#utility.yul\":12276:12707   */\n      pop\n      pop\n        /* \"#utility.yul\":12261:12707   */\n    tag_265:\n        /* \"#utility.yul\":12171:12714   */\n      pop\n      pop\n      pop\n      jump\t// out\n        /* \"#utility.yul\":12720:12837   */\n    tag_123:\n        /* \"#utility.yul\":12774:12782   */\n      0x00\n        /* \"#utility.yul\":12824:12829   */\n      dup3\n        /* \"#utility.yul\":12818:12822   */\n      dup3\n        /* \"#utility.yul\":12814:12830   */\n      shr\n        /* \"#utility.yul\":12793:12830   */\n      swap1\n      pop\n        /* \"#utility.yul\":12720:12837   */\n      swap3\n      swap2\n      pop\n      pop\n      jump\t// out\n        /* \"#utility.yul\":12843:13012   */\n    tag_124:\n        /* \"#utility.yul\":12887:12893   */\n      0x00\n        /* \"#utility.yul\":12920:12971   */\n      tag_273\n        /* \"#utility.yul\":12968:12969   */\n      0x00\n        /* \"#utility.yul\":12964:12970   */\n      not\n        /* \"#utility.yul\":12956:12961   */\n      dup5\n        /* \"#utility.yul\":12953:12954   */\n      0x08\n        /* \"#utility.yul\":12949:12962   */\n      mul\n        /* \"#utility.yul\":12920:12971   */\n      tag_123\n      jump\t// in\n    tag_273:\n        /* \"#utility.yul\":12916:12972   */\n      not\n        /* \"#utility.yul\":13001:13005   */\n      dup1\n        /* \"#utility.yul\":12995:12999   */\n      dup4\n        /* \"#utility.yul\":12991:13006   */\n      and\n        /* \"#utility.yul\":12981:13006   */\n      swap2\n      pop\n        /* \"#utility.yul\":12894:13012   */\n      pop\n        /* \"#utility.yul\":12843:13012   */\n      swap3\n      swap2\n      pop\n      pop\n      jump\t// out\n        /* \"#utility.yul\":13017:13312   */\n    tag_125:\n        /* \"#utility.yul\":13093:13097   */\n      0x00\n        /* \"#utility.yul\":13239:13268   */\n      tag_275\n        /* \"#utility.yul\":13264:13267   */\n      dup4\n        /* \"#utility.yul\":13258:13262   */\n      dup4\n        /* \"#utility.yul\":13239:13268   */\n      tag_124\n      jump\t// in\n    tag_275:\n        /* \"#utility.yul\":13231:13268   */\n      swap2\n      pop\n        /* \"#utility.yul\":13301:13304   */\n      dup3\n        /* \"#utility.yul\":13298:13299   */\n      0x02\n        /* \"#utility.yul\":13294:13305   */\n      mul\n        /* \"#utility.yul\":13288:13292   */\n      dup3\n        /* \"#utility.yul\":13285:13306   */\n      or\n        /* \"#utility.yul\":13277:13306   */\n      swap1\n      pop\n        /* \"#utility.yul\":13017:13312   */\n      swap3\n      swap2\n      pop\n      pop\n      jump\t// out\n        /* \"#utility.yul\":13317:14768   */\n    tag_59:\n        /* \"#utility.yul\":13428:13431   */\n      dup2\n        /* \"#utility.yul\":13422:13426   */\n      dup2\n        /* \"#utility.yul\":13419:13432   */\n      sub\n        /* \"#utility.yul\":13416:13442   */\n      tag_277\n      jumpi\n        /* \"#utility.yul\":13435:13440   */\n      pop\n      pop\n      jump(tag_276)\n        /* \"#utility.yul\":13416:13442   */\n    tag_277:\n        /* \"#utility.yul\":13466:13500   */\n      tag_278\n        /* \"#utility.yul\":13496:13499   */\n      dup3\n        /* \"#utility.yul\":13466:13500   */\n      tag_110\n      jump\t// in\n    tag_278:\n        /* \"#utility.yul\":13565:13583   */\n      0xffffffffffffffff\n        /* \"#utility.yul\":13557:13563   */\n      dup2\n        /* \"#utility.yul\":13554:13584   */\n      gt\n        /* \"#utility.yul\":13551:13607   */\n      iszero\n      tag_279\n      jumpi\n        /* \"#utility.yul\":13587:13605   */\n      tag_280\n      tag_94\n      jump\t// in\n    tag_280:\n        /* \"#utility.yul\":13551:13607   */\n    tag_279:\n        /* \"#utility.yul\":13631:13669   */\n      tag_281\n        /* \"#utility.yul\":13663:13667   */\n      dup3\n        /* \"#utility.yul\":13657:13668   */\n      sload\n        /* \"#utility.yul\":13631:13669   */\n      tag_45\n      jump\t// in\n    tag_281:\n        /* \"#utility.yul\":13716:13783   */\n      tag_282\n        /* \"#utility.yul\":13776:13782   */\n      dup3\n        /* \"#utility.yul\":13768:13774   */\n      dup3\n        /* \"#utility.yul\":13762:13766   */\n      dup6\n        /* \"#utility.yul\":13716:13783   */\n      tag_122\n      jump\t// in\n    tag_282:\n        /* \"#utility.yul\":13810:13811   */\n      0x00\n        /* \"#utility.yul\":13839:13841   */\n      0x1f\n        /* \"#utility.yul\":13831:13837   */\n      dup4\n        /* \"#utility.yul\":13828:13842   */\n      gt\n        /* \"#utility.yul\":13856:13857   */\n      0x01\n        /* \"#utility.yul\":13851:14523   */\n      dup2\n      eq\n      tag_284\n      jumpi\n        /* \"#utility.yul\":14567:14568   */\n      0x00\n        /* \"#utility.yul\":14584:14590   */\n      dup5\n        /* \"#utility.yul\":14581:14658   */\n      iszero\n      tag_285\n      jumpi\n        /* \"#utility.yul\":14633:14642   */\n      dup3\n        /* \"#utility.yul\":14628:14631   */\n      dup8\n        /* \"#utility.yul\":14624:14643   */\n      add\n        /* \"#utility.yul\":14618:14644   */\n      sload\n        /* \"#utility.yul\":14609:14644   */\n      swap1\n      pop\n        /* \"#utility.yul\":14581:14658   */\n    tag_285:\n        /* \"#utility.yul\":14684:14751   */\n      tag_286\n        /* \"#utility.yul\":14744:14750   */\n      dup6\n        /* \"#utility.yul\":14737:14742   */\n      dup3\n        /* \"#utility.yul\":14684:14751   */\n      tag_125\n      jump\t// in\n    tag_286:\n        /* \"#utility.yul\":14678:14682   */\n      dup7\n        /* \"#utility.yul\":14671:14752   */\n      sstore\n        /* \"#utility.yul\":14540:14762   */\n      pop\n        /* \"#utility.yul\":13821:14762   */\n      jump(tag_283)\n        /* \"#utility.yul\":13851:14523   */\n    tag_284:\n        /* \"#utility.yul\":13903:13907   */\n      0x1f\n        /* \"#utility.yul\":13899:13908   */\n      not\n        /* \"#utility.yul\":13891:13897   */\n      dup5\n        /* \"#utility.yul\":13887:13909   */\n      and\n        /* \"#utility.yul\":13929:13965   */\n      tag_287\n        /* \"#utility.yul\":13961:13964   */\n      dup8\n        /* \"#utility.yul\":13929:13965   */\n      tag_111\n      jump\t// in\n    tag_287:\n        /* \"#utility.yul\":13922:13965   */\n      swap7\n      pop\n        /* \"#utility.yul\":13992:14029   */\n      tag_288\n        /* \"#utility.yul\":14024:14028   */\n      dup7\n        /* \"#utility.yul\":13992:14029   */\n      tag_111\n      jump\t// in\n    tag_288:\n        /* \"#utility.yul\":14051:14052   */\n      0x00\n        /* \"#utility.yul\":14065:14272   */\n    tag_289:\n        /* \"#utility.yul\":14079:14086   */\n      dup3\n        /* \"#utility.yul\":14076:14077   */\n      dup2\n        /* \"#utility.yul\":14073:14087   */\n      lt\n        /* \"#utility.yul\":14065:14272   */\n      iszero\n      tag_291\n      jumpi\n        /* \"#utility.yul\":14158:14167   */\n      dup5\n        /* \"#utility.yul\":14153:14156   */\n      dup10\n        /* \"#utility.yul\":14149:14168   */\n      add\n        /* \"#utility.yul\":14143:14169   */\n      sload\n        /* \"#utility.yul\":14135:14141   */\n      dup3\n        /* \"#utility.yul\":14128:14170   */\n      sstore\n        /* \"#utility.yul\":14209:14210   */\n      0x01\n        /* \"#utility.yul\":14201:14207   */\n      dup3\n        /* \"#utility.yul\":14197:14211   */\n      add\n        /* \"#utility.yul\":14187:14211   */\n      swap2\n      pop\n        /* \"#utility.yul\":14256:14257   */\n      0x01\n        /* \"#utility.yul\":14245:14254   */\n      dup6\n        /* \"#utility.yul\":14241:14258   */\n      add\n        /* \"#utility.yul\":14228:14258   */\n      swap5\n      pop\n        /* \"#utility.yul\":14102:14106   */\n      0x20\n        /* \"#utility.yul\":14099:14100   */\n      dup2\n        /* \"#utility.yul\":14095:14107   */\n      add\n        /* \"#utility.yul\":14090:14107   */\n      swap1\n      pop\n        /* \"#utility.yul\":14065:14272   */\n      jump(tag_289)\n    tag_291:\n        /* \"#utility.yul\":14300:14306   */\n      dup7\n        /* \"#utility.yul\":14291:14298   */\n      dup4\n        /* \"#utility.yul\":14288:14307   */\n      lt\n        /* \"#utility.yul\":14285:14464   */\n      iszero\n      tag_292\n      jumpi\n        /* \"#utility.yul\":14358:14367   */\n      dup5\n        /* \"#utility.yul\":14353:14356   */\n      dup10\n        /* \"#utility.yul\":14349:14368   */\n      add\n        /* \"#utility.yul\":14343:14369   */\n      sload\n        /* \"#utility.yul\":14401:14449   */\n      tag_293\n        /* \"#utility.yul\":14443:14447   */\n      0x1f\n        /* \"#utility.yul\":14435:14441   */\n      dup10\n        /* \"#utility.yul\":14431:14448   */\n      and\n        /* \"#utility.yul\":14420:14429   */\n      dup3\n        /* \"#utility.yul\":14401:14449   */\n      tag_124\n      jump\t// in\n    tag_293:\n        /* \"#utility.yul\":14393:14399   */\n      dup4\n        /* \"#utility.yul\":14386:14450   */\n      sstore\n        /* \"#utility.yul\":14308:14464   */\n      pop\n        /* \"#utility.yul\":14285:14464   */\n    tag_292:\n        /* \"#utility.yul\":14510:14511   */\n      0x01\n        /* \"#utility.yul\":14506:14507   */\n      0x02\n        /* \"#utility.yul\":14498:14504   */\n      dup9\n        /* \"#utility.yul\":14494:14508   */\n      mul\n        /* \"#utility.yul\":14490:14512   */\n      add\n        /* \"#utility.yul\":14484:14488   */\n      dup9\n        /* \"#utility.yul\":14477:14513   */\n      sstore\n        /* \"#utility.yul\":13858:14523   */\n      pop\n      pop\n      pop\n        /* \"#utility.yul\":13821:14762   */\n    tag_283:\n      pop\n        /* \"#utility.yul\":13406:14768   */\n      pop\n      pop\n      pop\n        /* \"#utility.yul\":13317:14768   */\n      pop\n      pop\n    tag_276:\n      jump\t// out\n        /* \"#utility.yul\":14774:14954   */\n    tag_126:\n        /* \"#utility.yul\":14822:14899   */\n      0x4e487b7100000000000000000000000000000000000000000000000000000000\n        /* \"#utility.yul\":14819:14820   */\n      0x00\n        /* \"#utility.yul\":14812:14900   */\n      mstore\n        /* \"#utility.yul\":14919:14923   */\n      0x11\n        /* \"#utility.yul\":14916:14917   */\n      0x04\n        /* \"#utility.yul\":14909:14924   */\n      mstore\n        /* \"#utility.yul\":14943:14947   */\n      0x24\n        /* \"#utility.yul\":14940:14941   */\n      0x00\n        /* \"#utility.yul\":14933:14948   */\n      revert\n        /* \"#utility.yul\":14960:15135   */\n    tag_61:\n        /* \"#utility.yul\":14998:15001   */\n      0x00\n        /* \"#utility.yul\":15021:15044   */\n      tag_296\n        /* \"#utility.yul\":15038:15043   */\n      dup3\n        /* \"#utility.yul\":15021:15044   */\n      tag_88\n      jump\t// in\n    tag_296:\n        /* \"#utility.yul\":15012:15044   */\n      swap2\n      pop\n        /* \"#utility.yul\":15066:15076   */\n      0xffffffff\n        /* \"#utility.yul\":15059:15064   */\n      dup3\n        /* \"#utility.yul\":15056:15077   */\n      sub\n        /* \"#utility.yul\":15053:15100   */\n      tag_297\n      jumpi\n        /* \"#utility.yul\":15080:15098   */\n      tag_298\n      tag_126\n      jump\t// in\n    tag_298:\n        /* \"#utility.yul\":15053:15100   */\n    tag_297:\n        /* \"#utility.yul\":15127:15128   */\n      0x01\n        /* \"#utility.yul\":15120:15125   */\n      dup3\n        /* \"#utility.yul\":15116:15129   */\n      add\n        /* \"#utility.yul\":15109:15129   */\n      swap1\n      pop\n        /* \"#utility.yul\":14960:15135   */\n      swap2\n      swap1\n      pop\n      jump\t// out\n        /* \"#utility.yul\":15141:16536   */\n    tag_66:\n        /* \"#utility.yul\":15258:15295   */\n      tag_300\n        /* \"#utility.yul\":15291:15294   */\n      dup3\n        /* \"#utility.yul\":15258:15295   */\n      tag_83\n      jump\t// in\n    tag_300:\n        /* \"#utility.yul\":15360:15378   */\n      0xffffffffffffffff\n        /* \"#utility.yul\":15352:15358   */\n      dup2\n        /* \"#utility.yul\":15349:15379   */\n      gt\n        /* \"#utility.yul\":15346:15402   */\n      iszero\n      tag_301\n      jumpi\n        /* \"#utility.yul\":15382:15400   */\n      tag_302\n      tag_94\n      jump\t// in\n    tag_302:\n        /* \"#utility.yul\":15346:15402   */\n    tag_301:\n        /* \"#utility.yul\":15426:15464   */\n      tag_303\n        /* \"#utility.yul\":15458:15462   */\n      dup3\n        /* \"#utility.yul\":15452:15463   */\n      sload\n        /* \"#utility.yul\":15426:15464   */\n      tag_45\n      jump\t// in\n    tag_303:\n        /* \"#utility.yul\":15511:15578   */\n      tag_304\n        /* \"#utility.yul\":15571:15577   */\n      dup3\n        /* \"#utility.yul\":15563:15569   */\n      dup3\n        /* \"#utility.yul\":15557:15561   */\n      dup6\n        /* \"#utility.yul\":15511:15578   */\n      tag_122\n      jump\t// in\n    tag_304:\n        /* \"#utility.yul\":15605:15606   */\n      0x00\n        /* \"#utility.yul\":15629:15633   */\n      0x20\n        /* \"#utility.yul\":15616:15633   */\n      swap1\n      pop\n        /* \"#utility.yul\":15661:15663   */\n      0x1f\n        /* \"#utility.yul\":15653:15659   */\n      dup4\n        /* \"#utility.yul\":15650:15664   */\n      gt\n        /* \"#utility.yul\":15678:15679   */\n      0x01\n        /* \"#utility.yul\":15673:16291   */\n      dup2\n      eq\n      tag_306\n      jumpi\n        /* \"#utility.yul\":16335:16336   */\n      0x00\n        /* \"#utility.yul\":16352:16358   */\n      dup5\n        /* \"#utility.yul\":16349:16426   */\n      iszero\n      tag_307\n      jumpi\n        /* \"#utility.yul\":16401:16410   */\n      dup3\n        /* \"#utility.yul\":16396:16399   */\n      dup8\n        /* \"#utility.yul\":16392:16411   */\n      add\n        /* \"#utility.yul\":16386:16412   */\n      mload\n        /* \"#utility.yul\":16377:16412   */\n      swap1\n      pop\n        /* \"#utility.yul\":16349:16426   */\n    tag_307:\n        /* \"#utility.yul\":16452:16519   */\n      tag_308\n        /* \"#utility.yul\":16512:16518   */\n      dup6\n        /* \"#utility.yul\":16505:16510   */\n      dup3\n        /* \"#utility.yul\":16452:16519   */\n      tag_125\n      jump\t// in\n    tag_308:\n        /* \"#utility.yul\":16446:16450   */\n      dup7\n        /* \"#utility.yul\":16439:16520   */\n      sstore\n        /* \"#utility.yul\":16308:16530   */\n      pop\n        /* \"#utility.yul\":15643:16530   */\n      jump(tag_305)\n        /* \"#utility.yul\":15673:16291   */\n    tag_306:\n        /* \"#utility.yul\":15725:15729   */\n      0x1f\n        /* \"#utility.yul\":15721:15730   */\n      not\n        /* \"#utility.yul\":15713:15719   */\n      dup5\n        /* \"#utility.yul\":15709:15731   */\n      and\n        /* \"#utility.yul\":15759:15796   */\n      tag_309\n        /* \"#utility.yul\":15791:15795   */\n      dup7\n        /* \"#utility.yul\":15759:15796   */\n      tag_111\n      jump\t// in\n    tag_309:\n        /* \"#utility.yul\":15818:15819   */\n      0x00\n        /* \"#utility.yul\":15832:16040   */\n    tag_310:\n        /* \"#utility.yul\":15846:15853   */\n      dup3\n        /* \"#utility.yul\":15843:15844   */\n      dup2\n        /* \"#utility.yul\":15840:15854   */\n      lt\n        /* \"#utility.yul\":15832:16040   */\n      iszero\n      tag_312\n      jumpi\n        /* \"#utility.yul\":15925:15934   */\n      dup5\n        /* \"#utility.yul\":15920:15923   */\n      dup10\n        /* \"#utility.yul\":15916:15935   */\n      add\n        /* \"#utility.yul\":15910:15936   */\n      mload\n        /* \"#utility.yul\":15902:15908   */\n      dup3\n        /* \"#utility.yul\":15895:15937   */\n      sstore\n        /* \"#utility.yul\":15976:15977   */\n      0x01\n        /* \"#utility.yul\":15968:15974   */\n      dup3\n        /* \"#utility.yul\":15964:15978   */\n      add\n        /* \"#utility.yul\":15954:15978   */\n      swap2\n      pop\n        /* \"#utility.yul\":16023:16025   */\n      0x20\n        /* \"#utility.yul\":16012:16021   */\n      dup6\n        /* \"#utility.yul\":16008:16026   */\n      add\n        /* \"#utility.yul\":15995:16026   */\n      swap5\n      pop\n        /* \"#utility.yul\":15869:15873   */\n      0x20\n        /* \"#utility.yul\":15866:15867   */\n      dup2\n        /* \"#utility.yul\":15862:15874   */\n      add\n        /* \"#utility.yul\":15857:15874   */\n      swap1\n      pop\n        /* \"#utility.yul\":15832:16040   */\n      jump(tag_310)\n    tag_312:\n        /* \"#utility.yul\":16068:16074   */\n      dup7\n        /* \"#utility.yul\":16059:16066   */\n      dup4\n        /* \"#utility.yul\":16056:16075   */\n      lt\n        /* \"#utility.yul\":16053:16232   */\n      iszero\n      tag_313\n      jumpi\n        /* \"#utility.yul\":16126:16135   */\n      dup5\n        /* \"#utility.yul\":16121:16124   */\n      dup10\n        /* \"#utility.yul\":16117:16136   */\n      add\n        /* \"#utility.yul\":16111:16137   */\n      mload\n        /* \"#utility.yul\":16169:16217   */\n      tag_314\n        /* \"#utility.yul\":16211:16215   */\n      0x1f\n        /* \"#utility.yul\":16203:16209   */\n      dup10\n        /* \"#utility.yul\":16199:16216   */\n      and\n        /* \"#utility.yul\":16188:16197   */\n      dup3\n        /* \"#utility.yul\":16169:16217   */\n      tag_124\n      jump\t// in\n    tag_314:\n        /* \"#utility.yul\":16161:16167   */\n      dup4\n        /* \"#utility.yul\":16154:16218   */\n      sstore\n        /* \"#utility.yul\":16076:16232   */\n      pop\n        /* \"#utility.yul\":16053:16232   */\n    tag_313:\n        /* \"#utility.yul\":16278:16279   */\n      0x01\n        /* \"#utility.yul\":16274:16275   */\n      0x02\n        /* \"#utility.yul\":16266:16272   */\n      dup9\n        /* \"#utility.yul\":16262:16276   */\n      mul\n        /* \"#utility.yul\":16258:16280   */\n      add\n        /* \"#utility.yul\":16252:16256   */\n      dup9\n        /* \"#utility.yul\":16245:16281   */\n      sstore\n        /* \"#utility.yul\":15680:16291   */\n      pop\n      pop\n      pop\n        /* \"#utility.yul\":15643:16530   */\n    tag_305:\n      pop\n        /* \"#utility.yul\":15233:16536   */\n      pop\n      pop\n      pop\n        /* \"#utility.yul\":15141:16536   */\n      pop\n      pop\n      jump\t// out\n\n    auxdata: 0xa2646970667358221220bb736e9e9acff9b6d86be5c41348a57aba241b1c089c926a3ed220d910165c8264736f6c634300081f0033\n}\n",
				"bytecode": {
					"linkReferences": {},
					"object": "6080604052348015600e575f5ffd5b506110b08061001c5f395ff3fe608060405234801561000f575f5ffd5b506004361061007b575f3560e01c80639094c763116100595780639094c763146100ff578063978331cf1461011b578063a91bd42314610137578063da58c7d9146101695761007b565b806309eef43e1461007f57806362190150146100af578063867d6803146100e1575b5f5ffd5b610099600480360381019061009491906107fd565b610199565b6040516100a69190610842565b60405180910390f35b6100c960048036038101906100c491906107fd565b6101b6565b6040516100d8939291906108e9565b60405180910390f35b6100e9610281565b6040516100f69190610925565b60405180910390f35b61011960048036038101906101149190610968565b610295565b005b61013560048036038101906101309190610abf565b610582565b005b610151600480360381019061014c9190610968565b61068c565b604051610160939291906108e9565b60405180910390f35b610183600480360381019061017e9190610b39565b610757565b6040516101909190610b73565b60405180910390f35b6003602052805f5260405f205f915054906101000a900460ff1681565b6002602052805f5260405f205f91509050805f0180546101d590610bb9565b80601f016020809104026020016040519081016040528092919081815260200182805461020190610bb9565b801561024c5780601f106102235761010080835404028352916020019161024c565b820191905f5260205f20905b81548152906001019060200180831161022f57829003601f168201915b505050505090806001015f9054906101000a900463ffffffff16908060010160049054906101000a900463ffffffff16905083565b5f5f9054906101000a900463ffffffff1681565b60035f3373ffffffffffffffffffffffffffffffffffffffff1673ffffffffffffffffffffffffffffffffffffffff1681526020019081526020015f205f9054906101000a900460ff161561031f576040517f08c379a000000000000000000000000000000000000000000000000000000000815260040161031690610c33565b60405180910390fd5b5f8163ffffffff1611801561035057505f5f9054906101000a900463ffffffff1663ffffffff168163ffffffff1611155b61038f576040517f08c379a000000000000000000000000000000000000000000000000000000000815260040161038690610c9b565b60405180910390fd5b60015f8263ffffffff1663ffffffff1681526020019081526020015f2060025f3373ffffffffffffffffffffffffffffffffffffffff1673ffffffffffffffffffffffffffffffffffffffff1681526020019081526020015f205f8201815f0190816103fb9190610e6e565b50600182015f9054906101000a900463ffffffff16816001015f6101000a81548163ffffffff021916908363ffffffff1602179055506001820160049054906101000a900463ffffffff168160010160046101000a81548163ffffffff021916908363ffffffff16021790555090505060015f8263ffffffff1663ffffffff1681526020019081526020015f20600101600481819054906101000a900463ffffffff16809291906104ab90610f80565b91906101000a81548163ffffffff021916908363ffffffff16021790555050600160035f3373ffffffffffffffffffffffffffffffffffffffff1673ffffffffffffffffffffffffffffffffffffffff1681526020019081526020015f205f6101000a81548160ff021916908315150217905550600433908060018154018082558091505060019003905f5260205f20015f9091909190916101000a81548173ffffffffffffffffffffffffffffffffffffffff021916908373ffffffffffffffffffffffffffffffffffffffff16021790555050565b5f5f81819054906101000a900463ffffffff16809291906105a290610f80565b91906101000a81548163ffffffff021916908363ffffffff1602179055505060405180606001604052808281526020015f5f9054906101000a900463ffffffff1663ffffffff1681526020015f63ffffffff1681525060015f5f5f9054906101000a900463ffffffff1663ffffffff1663ffffffff1681526020019081526020015f205f820151815f0190816106389190610fab565b506020820151816001015f6101000a81548163ffffffff021916908363ffffffff16021790555060408201518160010160046101000a81548163ffffffff021916908363ffffffff16021790555090505050565b6001602052805f5260405f205f91509050805f0180546106ab90610bb9565b80601f01602080910402602001604051908101604052809291908181526020018280546106d790610bb9565b80156107225780601f106106f957610100808354040283529160200191610722565b820191905f5260205f20905b81548152906001019060200180831161070557829003601f168201915b505050505090806001015f9054906101000a900463ffffffff16908060010160049054906101000a900463ffffffff16905083565b60048181548110610766575f80fd5b905f5260205f20015f915054906101000a900473ffffffffffffffffffffffffffffffffffffffff1681565b5f604051905090565b5f5ffd5b5f5ffd5b5f73ffffffffffffffffffffffffffffffffffffffff82169050919050565b5f6107cc826107a3565b9050919050565b6107dc816107c2565b81146107e6575f5ffd5b50565b5f813590506107f7816107d3565b92915050565b5f602082840312156108125761081161079b565b5b5f61081f848285016107e9565b91505092915050565b5f8115159050919050565b61083c81610828565b82525050565b5f6020820190506108555f830184610833565b92915050565b5f81519050919050565b5f82825260208201905092915050565b8281835e5f83830152505050565b5f601f19601f8301169050919050565b5f61089d8261085b565b6108a78185610865565b93506108b7818560208601610875565b6108c081610883565b840191505092915050565b5f63ffffffff82169050919050565b6108e3816108cb565b82525050565b5f6060820190508181035f8301526109018186610893565b905061091060208301856108da565b61091d60408301846108da565b949350505050565b5f6020820190506109385f8301846108da565b92915050565b610947816108cb565b8114610951575f5ffd5b50565b5f813590506109628161093e565b92915050565b5f6020828403121561097d5761097c61079b565b5b5f61098a84828501610954565b91505092915050565b5f5ffd5b5f5ffd5b7f4e487b71000000000000000000000000000000000000000000000000000000005f52604160045260245ffd5b6109d182610883565b810181811067ffffffffffffffff821117156109f0576109ef61099b565b5b80604052505050565b5f610a02610792565b9050610a0e82826109c8565b919050565b5f67ffffffffffffffff821115610a2d57610a2c61099b565b5b610a3682610883565b9050602081019050919050565b828183375f83830152505050565b5f610a63610a5e84610a13565b6109f9565b905082815260208101848484011115610a7f57610a7e610997565b5b610a8a848285610a43565b509392505050565b5f82601f830112610aa657610aa5610993565b5b8135610ab6848260208601610a51565b91505092915050565b5f60208284031215610ad457610ad361079b565b5b5f82013567ffffffffffffffff811115610af157610af061079f565b5b610afd84828501610a92565b91505092915050565b5f819050919050565b610b1881610b06565b8114610b22575f5ffd5b50565b5f81359050610b3381610b0f565b92915050565b5f60208284031215610b4e57610b4d61079b565b5b5f610b5b84828501610b25565b91505092915050565b610b6d816107c2565b82525050565b5f602082019050610b865f830184610b64565b92915050565b7f4e487b71000000000000000000000000000000000000000000000000000000005f52602260045260245ffd5b5f6002820490506001821680610bd057607f821691505b602082108103610be357610be2610b8c565b5b50919050565b7f596f7520616c726561647920766f7465640000000000000000000000000000005f82015250565b5f610c1d601183610865565b9150610c2882610be9565b602082019050919050565b5f6020820190508181035f830152610c4a81610c11565b9050919050565b7f696e76616c69642063616e6469646174652069640000000000000000000000005f82015250565b5f610c85601483610865565b9150610c9082610c51565b602082019050919050565b5f6020820190508181035f830152610cb281610c79565b9050919050565b5f81549050610cc781610bb9565b9050919050565b5f819050815f5260205f209050919050565b5f6020601f8301049050919050565b5f82821b905092915050565b5f60088302610d2a7fffffffffffffffffffffffffffffffffffffffffffffffffffffffffffffffff82610cef565b610d348683610cef565b95508019841693508086168417925050509392505050565b5f819050919050565b5f610d6f610d6a610d6584610b06565b610d4c565b610b06565b9050919050565b5f819050919050565b610d8883610d55565b610d9c610d9482610d76565b848454610cfb565b825550505050565b5f5f905090565b610db3610da4565b610dbe818484610d7f565b505050565b5b81811015610de157610dd65f82610dab565b600181019050610dc4565b5050565b601f821115610e2657610df781610cce565b610e0084610ce0565b81016020851015610e0f578190505b610e23610e1b85610ce0565b830182610dc3565b50505b505050565b5f82821c905092915050565b5f610e465f1984600802610e2b565b1980831691505092915050565b5f610e5e8383610e37565b9150826002028217905092915050565b818103610e7c575050610f51565b610e8582610cb9565b67ffffffffffffffff811115610e9e57610e9d61099b565b5b610ea88254610bb9565b610eb3828285610de5565b5f601f831160018114610ee0575f8415610ece578287015490505b610ed88582610e53565b865550610f4a565b601f198416610eee87610cce565b9650610ef986610cce565b5f5b82811015610f2057848901548255600182019150600185019450602081019050610efb565b86831015610f3d5784890154610f39601f891682610e37565b8355505b6001600288020188555050505b5050505050505b565b7f4e487b71000000000000000000000000000000000000000000000000000000005f52601160045260245ffd5b5f610f8a826108cb565b915063ffffffff8203610fa057610f9f610f53565b5b600182019050919050565b610fb48261085b565b67ffffffffffffffff811115610fcd57610fcc61099b565b5b610fd78254610bb9565b610fe2828285610de5565b5f60209050601f831160018114611013575f8415611001578287015190505b61100b8582610e53565b865550611072565b601f19841661102186610cce565b5f5b8281101561104857848901518255600182019150602085019450602081019050611023565b868310156110655784890151611061601f891682610e37565b8355505b6001600288020188555050505b50505050505056fea2646970667358221220bb736e9e9acff9b6d86be5c41348a57aba241b1c089c926a3ed220d910165c8264736f6c634300081f0033",
					"opcodes": "PUSH1 0x80 PUSH1 0x40 MSTORE CALLVALUE DUP1 ISZERO PUSH1 0xE JUMPI PUSH0 PUSH0 REVERT JUMPDEST POP PUSH2 0x10B0 DUP1 PUSH2 0x1C PUSH0 CODECOPY PUSH0 RETURN INVALID PUSH1 0x80 PUSH1 0x40 MSTORE CALLVALUE DUP1 ISZERO PUSH2 0xF JUMPI PUSH0 PUSH0 REVERT JUMPDEST POP PUSH1 0x4 CALLDATASIZE LT PUSH2 0x7B JUMPI PUSH0 CALLDATALOAD PUSH1 0xE0 SHR DUP1 PUSH4 0x9094C763 GT PUSH2 0x59 JUMPI DUP1 PUSH4 0x9094C763 EQ PUSH2 0xFF JUMPI DUP1 PUSH4 0x978331CF EQ PUSH2 0x11B JUMPI DUP1 PUSH4 0xA91BD423 EQ PUSH2 0x137 JUMPI DUP1 PUSH4 0xDA58C7D9 EQ PUSH2 0x169 JUMPI PUSH2 0x7B JUMP JUMPDEST DUP1 PUSH4 0x9EEF43E EQ PUSH2 0x7F JUMPI DUP1 PUSH4 0x62190150 EQ PUSH2 0xAF JUMPI DUP1 PUSH4 0x867D6803 EQ PUSH2 0xE1 JUMPI JUMPDEST PUSH0 PUSH0 REVERT JUMPDEST PUSH2 0x99 PUSH1 0x4 DUP1 CALLDATASIZE SUB DUP2 ADD SWAP1 PUSH2 0x94 SWAP2 SWAP1 PUSH2 0x7FD JUMP JUMPDEST PUSH2 0x199 JUMP JUMPDEST PUSH1 0x40 MLOAD PUSH2 0xA6 SWAP2 SWAP1 PUSH2 0x842 JUMP JUMPDEST PUSH1 0x40 MLOAD DUP1 SWAP2 SUB SWAP1 RETURN JUMPDEST PUSH2 0xC9 PUSH1 0x4 DUP1 CALLDATASIZE SUB DUP2 ADD SWAP1 PUSH2 0xC4 SWAP2 SWAP1 PUSH2 0x7FD JUMP JUMPDEST PUSH2 0x1B6 JUMP JUMPDEST PUSH1 0x40 MLOAD PUSH2 0xD8 SWAP4 SWAP3 SWAP2 SWAP1 PUSH2 0x8E9 JUMP JUMPDEST PUSH1 0x40 MLOAD DUP1 SWAP2 SUB SWAP1 RETURN JUMPDEST PUSH2 0xE9 PUSH2 0x281 JUMP JUMPDEST PUSH1 0x40 MLOAD PUSH2 0xF6 SWAP2 SWAP1 PUSH2 0x925 JUMP JUMPDEST PUSH1 0x40 MLOAD DUP1 SWAP2 SUB SWAP1 RETURN JUMPDEST PUSH2 0x119 PUSH1 0x4 DUP1 CALLDATASIZE SUB DUP2 ADD SWAP1 PUSH2 0x114 SWAP2 SWAP1 PUSH2 0x968 JUMP JUMPDEST PUSH2 0x295 JUMP JUMPDEST STOP JUMPDEST PUSH2 0x135 PUSH1 0x4 DUP1 CALLDATASIZE SUB DUP2 ADD SWAP1 PUSH2 0x130 SWAP2 SWAP1 PUSH2 0xABF JUMP JUMPDEST PUSH2 0x582 JUMP JUMPDEST STOP JUMPDEST PUSH2 0x151 PUSH1 0x4 DUP1 CALLDATASIZE SUB DUP2 ADD SWAP1 PUSH2 0x14C SWAP2 SWAP1 PUSH2 0x968 JUMP JUMPDEST PUSH2 0x68C JUMP JUMPDEST PUSH1 0x40 MLOAD PUSH2 0x160 SWAP4 SWAP3 SWAP2 SWAP1 PUSH2 0x8E9 JUMP JUMPDEST PUSH1 0x40 MLOAD DUP1 SWAP2 SUB SWAP1 RETURN JUMPDEST PUSH2 0x183 PUSH1 0x4 DUP1 CALLDATASIZE SUB DUP2 ADD SWAP1 PUSH2 0x17E SWAP2 SWAP1 PUSH2 0xB39 JUMP JUMPDEST PUSH2 0x757 JUMP JUMPDEST PUSH1 0x40 MLOAD PUSH2 0x190 SWAP2 SWAP1 PUSH2 0xB73 JUMP JUMPDEST PUSH1 0x40 MLOAD DUP1 SWAP2 SUB SWAP1 RETURN JUMPDEST PUSH1 0x3 PUSH1 0x20 MSTORE DUP1 PUSH0 MSTORE PUSH1 0x40 PUSH0 KECCAK256 PUSH0 SWAP2 POP SLOAD SWAP1 PUSH2 0x100 EXP SWAP1 DIV PUSH1 0xFF AND DUP2 JUMP JUMPDEST PUSH1 0x2 PUSH1 0x20 MSTORE DUP1 PUSH0 MSTORE PUSH1 0x40 PUSH0 KECCAK256 PUSH0 SWAP2 POP SWAP1 POP DUP1 PUSH0 ADD DUP1 SLOAD PUSH2 0x1D5 SWAP1 PUSH2 0xBB9 JUMP JUMPDEST DUP1 PUSH1 0x1F ADD PUSH1 0x20 DUP1 SWAP2 DIV MUL PUSH1 0x20 ADD PUSH1 0x40 MLOAD SWAP1 DUP2 ADD PUSH1 0x40 MSTORE DUP1 SWAP3 SWAP2 SWAP1 DUP2 DUP2 MSTORE PUSH1 0x20 ADD DUP3 DUP1 SLOAD PUSH2 0x201 SWAP1 PUSH2 0xBB9 JUMP JUMPDEST DUP1 ISZERO PUSH2 0x24C JUMPI DUP1 PUSH1 0x1F LT PUSH2 0x223 JUMPI PUSH2 0x100 DUP1 DUP4 SLOAD DIV MUL DUP4 MSTORE SWAP2 PUSH1 0x20 ADD SWAP2 PUSH2 0x24C JUMP JUMPDEST DUP3 ADD SWAP2 SWAP1 PUSH0 MSTORE PUSH1 0x20 PUSH0 KECCAK256 SWAP1 JUMPDEST DUP2 SLOAD DUP2 MSTORE SWAP1 PUSH1 0x1 ADD SWAP1 PUSH1 0x20 ADD DUP1 DUP4 GT PUSH2 0x22F JUMPI DUP3 SWAP1 SUB PUSH1 0x1F AND DUP3 ADD SWAP2 JUMPDEST POP POP POP POP POP SWAP1 DUP1 PUSH1 0x1 ADD PUSH0 SWAP1 SLOAD SWAP1 PUSH2 0x100 EXP SWAP1 DIV PUSH4 0xFFFFFFFF AND SWAP1 DUP1 PUSH1 0x1 ADD PUSH1 0x4 SWAP1 SLOAD SWAP1 PUSH2 0x100 EXP SWAP1 DIV PUSH4 0xFFFFFFFF AND SWAP1 POP DUP4 JUMP JUMPDEST PUSH0 PUSH0 SWAP1 SLOAD SWAP1 PUSH2 0x100 EXP SWAP1 DIV PUSH4 0xFFFFFFFF AND DUP2 JUMP JUMPDEST PUSH1 0x3 PUSH0 CALLER PUSH20 0xFFFFFFFFFFFFFFFFFFFFFFFFFFFFFFFFFFFFFFFF AND PUSH20 0xFFFFFFFFFFFFFFFFFFFFFFFFFFFFFFFFFFFFFFFF AND DUP2 MSTORE PUSH1 0x20 ADD SWAP1 DUP2 MSTORE PUSH1 0x20 ADD PUSH0 KECCAK256 PUSH0 SWAP1 SLOAD SWAP1 PUSH2 0x100 EXP SWAP1 DIV PUSH1 0xFF AND ISZERO PUSH2 0x31F JUMPI PUSH1 0x40 MLOAD PUSH32 0x8C379A000000000000000000000000000000000000000000000000000000000 DUP2 MSTORE PUSH1 0x4 ADD PUSH2 0x316 SWAP1 PUSH2 0xC33 JUMP JUMPDEST PUSH1 0x40 MLOAD DUP1 SWAP2 SUB SWAP1 REVERT JUMPDEST PUSH0 DUP2 PUSH4 0xFFFFFFFF AND GT DUP1 ISZERO PUSH2 0x350 JUMPI POP PUSH0 PUSH0 SWAP1 SLOAD SWAP1 PUSH2 0x100 EXP SWAP1 DIV PUSH4 0xFFFFFFFF AND PUSH4 0xFFFFFFFF AND DUP2 PUSH4 0xFFFFFFFF AND GT ISZERO JUMPDEST PUSH2 0x38F JUMPI PUSH1 0x40 MLOAD PUSH32 0x8C379A000000000000000000000000000000000000000000000000000000000 DUP2 MSTORE PUSH1 0x4 ADD PUSH2 0x386 SWAP1 PUSH2 0xC9B JUMP JUMPDEST PUSH1 0x40 MLOAD DUP1 SWAP2 SUB SWAP1 REVERT JUMPDEST PUSH1 0x1 PUSH0 DUP3 PUSH4 0xFFFFFFFF AND PUSH4 0xFFFFFFFF AND DUP2 MSTORE PUSH1 0x20 ADD SWAP1 DUP2 MSTORE PUSH1 0x20 ADD PUSH0 KECCAK256 PUSH1 0x2 PUSH0 CALLER PUSH20 0xFFFFFFFFFFFFFFFFFFFFFFFFFFFFFFFFFFFFFFFF AND PUSH20 0xFFFFFFFFFFFFFFFFFFFFFFFFFFFFFFFFFFFFFFFF AND DUP2 MSTORE PUSH1 0x20 ADD SWAP1 DUP2 MSTORE PUSH1 0x20 ADD PUSH0 KECCAK256 PUSH0 DUP3 ADD DUP2 PUSH0 ADD SWAP1 DUP2 PUSH2 0x3FB SWAP2 SWAP1 PUSH2 0xE6E JUMP JUMPDEST POP PUSH1 0x1 DUP3 ADD PUSH0 SWAP1 SLOAD SWAP1 PUSH2 0x100 EXP SWAP1 DIV PUSH4 0xFFFFFFFF AND DUP2 PUSH1 0x1 ADD PUSH0 PUSH2 0x100 EXP DUP2 SLOAD DUP2 PUSH4 0xFFFFFFFF MUL NOT AND SWAP1 DUP4 PUSH4 0xFFFFFFFF AND MUL OR SWAP1 SSTORE POP PUSH1 0x1 DUP3 ADD PUSH1 0x4 SWAP1 SLOAD SWAP1 PUSH2 0x100 EXP SWAP1 DIV PUSH4 0xFFFFFFFF AND DUP2 PUSH1 0x1 ADD PUSH1 0x4 PUSH2 0x100 EXP DUP2 SLOAD DUP2 PUSH4 0xFFFFFFFF MUL NOT AND SWAP1 DUP4 PUSH4 0xFFFFFFFF AND MUL OR SWAP1 SSTORE POP SWAP1 POP POP PUSH1 0x1 PUSH0 DUP3 PUSH4 0xFFFFFFFF AND PUSH4 0xFFFFFFFF AND DUP2 MSTORE PUSH1 0x20 ADD SWAP1 DUP2 MSTORE PUSH1 0x20 ADD PUSH0 KECCAK256 PUSH1 0x1 ADD PUSH1 0x4 DUP2 DUP2 SWAP1 SLOAD SWAP1 PUSH2 0x100 EXP SWAP1 DIV PUSH4 0xFFFFFFFF AND DUP1 SWAP3 SWAP2 SWAP1 PUSH2 0x4AB SWAP1 PUSH2 0xF80 JUMP JUMPDEST SWAP2 SWAP1 PUSH2 0x100 EXP DUP2 SLOAD DUP2 PUSH4 0xFFFFFFFF MUL NOT AND SWAP1 DUP4 PUSH4 0xFFFFFFFF AND MUL OR SWAP1 SSTORE POP POP PUSH1 0x1 PUSH1 0x3 PUSH0 CALLER PUSH20 0xFFFFFFFFFFFFFFFFFFFFFFFFFFFFFFFFFFFFFFFF AND PUSH20 0xFFFFFFFFFFFFFFFFFFFFFFFFFFFFFFFFFFFFFFFF AND DUP2 MSTORE PUSH1 0x20 ADD SWAP1 DUP2 MSTORE PUSH1 0x20 ADD PUSH0 KECCAK256 PUSH0 PUSH2 0x100 EXP DUP2 SLOAD DUP2 PUSH1 0xFF MUL NOT AND SWAP1 DUP4 ISZERO ISZERO MUL OR SWAP1 SSTORE POP PUSH1 0x4 CALLER SWAP1 DUP1 PUSH1 0x1 DUP2 SLOAD ADD DUP1 DUP3 SSTORE DUP1 SWAP2 POP POP PUSH1 0x1 SWAP1 SUB SWAP1 PUSH0 MSTORE PUSH1 0x20 PUSH0 KECCAK256 ADD PUSH0 SWAP1 SWAP2 SWAP1 SWAP2 SWAP1 SWAP2 PUSH2 0x100 EXP DUP2 SLOAD DUP2 PUSH20 0xFFFFFFFFFFFFFFFFFFFFFFFFFFFFFFFFFFFFFFFF MUL NOT AND SWAP1 DUP4 PUSH20 0xFFFFFFFFFFFFFFFFFFFFFFFFFFFFFFFFFFFFFFFF AND MUL OR SWAP1 SSTORE POP POP JUMP JUMPDEST PUSH0 PUSH0 DUP2 DUP2 SWAP1 SLOAD SWAP1 PUSH2 0x100 EXP SWAP1 DIV PUSH4 0xFFFFFFFF AND DUP1 SWAP3 SWAP2 SWAP1 PUSH2 0x5A2 SWAP1 PUSH2 0xF80 JUMP JUMPDEST SWAP2 SWAP1 PUSH2 0x100 EXP DUP2 SLOAD DUP2 PUSH4 0xFFFFFFFF MUL NOT AND SWAP1 DUP4 PUSH4 0xFFFFFFFF AND MUL OR SWAP1 SSTORE POP POP PUSH1 0x40 MLOAD DUP1 PUSH1 0x60 ADD PUSH1 0x40 MSTORE DUP1 DUP3 DUP2 MSTORE PUSH1 0x20 ADD PUSH0 PUSH0 SWAP1 SLOAD SWAP1 PUSH2 0x100 EXP SWAP1 DIV PUSH4 0xFFFFFFFF AND PUSH4 0xFFFFFFFF AND DUP2 MSTORE PUSH1 0x20 ADD PUSH0 PUSH4 0xFFFFFFFF AND DUP2 MSTORE POP PUSH1 0x1 PUSH0 PUSH0 PUSH0 SWAP1 SLOAD SWAP1 PUSH2 0x100 EXP SWAP1 DIV PUSH4 0xFFFFFFFF AND PUSH4 0xFFFFFFFF AND PUSH4 0xFFFFFFFF AND DUP2 MSTORE PUSH1 0x20 ADD SWAP1 DUP2 MSTORE PUSH1 0x20 ADD PUSH0 KECCAK256 PUSH0 DUP3 ADD MLOAD DUP2 PUSH0 ADD SWAP1 DUP2 PUSH2 0x638 SWAP2 SWAP1 PUSH2 0xFAB JUMP JUMPDEST POP PUSH1 0x20 DUP3 ADD MLOAD DUP2 PUSH1 0x1 ADD PUSH0 PUSH2 0x100 EXP DUP2 SLOAD DUP2 PUSH4 0xFFFFFFFF MUL NOT AND SWAP1 DUP4 PUSH4 0xFFFFFFFF AND MUL OR SWAP1 SSTORE POP PUSH1 0x40 DUP3 ADD MLOAD DUP2 PUSH1 0x1 ADD PUSH1 0x4 PUSH2 0x100 EXP DUP2 SLOAD DUP2 PUSH4 0xFFFFFFFF MUL NOT AND SWAP1 DUP4 PUSH4 0xFFFFFFFF AND MUL OR SWAP1 SSTORE POP SWAP1 POP POP POP JUMP JUMPDEST PUSH1 0x1 PUSH1 0x20 MSTORE DUP1 PUSH0 MSTORE PUSH1 0x40 PUSH0 KECCAK256 PUSH0 SWAP2 POP SWAP1 POP DUP1 PUSH0 ADD DUP1 SLOAD PUSH2 0x6AB SWAP1 PUSH2 0xBB9 JUMP JUMPDEST DUP1 PUSH1 0x1F ADD PUSH1 0x20 DUP1 SWAP2 DIV MUL PUSH1 0x20 ADD PUSH1 0x40 MLOAD SWAP1 DUP2 ADD PUSH1 0x40 MSTORE DUP1 SWAP3 SWAP2 SWAP1 DUP2 DUP2 MSTORE PUSH1 0x20 ADD DUP3 DUP1 SLOAD PUSH2 0x6D7 SWAP1 PUSH2 0xBB9 JUMP JUMPDEST DUP1 ISZERO PUSH2 0x722 JUMPI DUP1 PUSH1 0x1F LT PUSH2 0x6F9 JUMPI PUSH2 0x100 DUP1 DUP4 SLOAD DIV MUL DUP4 MSTORE SWAP2 PUSH1 0x20 ADD SWAP2 PUSH2 0x722 JUMP JUMPDEST DUP3 ADD SWAP2 SWAP1 PUSH0 MSTORE PUSH1 0x20 PUSH0 KECCAK256 SWAP1 JUMPDEST DUP2 SLOAD DUP2 MSTORE SWAP1 PUSH1 0x1 ADD SWAP1 PUSH1 0x20 ADD DUP1 DUP4 GT PUSH2 0x705 JUMPI DUP3 SWAP1 SUB PUSH1 0x1F AND DUP3 ADD SWAP2 JUMPDEST POP POP POP POP POP SWAP1 DUP1 PUSH1 0x1 ADD PUSH0 SWAP1 SLOAD SWAP1 PUSH2 0x100 EXP SWAP1 DIV PUSH4 0xFFFFFFFF AND SWAP1 DUP1 PUSH1 0x1 ADD PUSH1 0x4 SWAP1 SLOAD SWAP1 PUSH2 0x100 EXP SWAP1 DIV PUSH4 0xFFFFFFFF AND SWAP1 POP DUP4 JUMP JUMPDEST PUSH1 0x4 DUP2 DUP2 SLOAD DUP2 LT PUSH2 0x766 JUMPI PUSH0 DUP1 REVERT JUMPDEST SWAP1 PUSH0 MSTORE PUSH1 0x20 PUSH0 KECCAK256 ADD PUSH0 SWAP2 POP SLOAD SWAP1 PUSH2 0x100 EXP SWAP1 DIV PUSH20 0xFFFFFFFFFFFFFFFFFFFFFFFFFFFFFFFFFFFFFFFF AND DUP2 JUMP JUMPDEST PUSH0 PUSH1 0x40 MLOAD SWAP1 POP SWAP1 JUMP JUMPDEST PUSH0 PUSH0 REVERT JUMPDEST PUSH0 PUSH0 REVERT JUMPDEST PUSH0 PUSH20 0xFFFFFFFFFFFFFFFFFFFFFFFFFFFFFFFFFFFFFFFF DUP3 AND SWAP1 POP SWAP2 SWAP1 POP JUMP JUMPDEST PUSH0 PUSH2 0x7CC DUP3 PUSH2 0x7A3 JUMP JUMPDEST SWAP1 POP SWAP2 SWAP1 POP JUMP JUMPDEST PUSH2 0x7DC DUP2 PUSH2 0x7C2 JUMP JUMPDEST DUP2 EQ PUSH2 0x7E6 JUMPI PUSH0 PUSH0 REVERT JUMPDEST POP JUMP JUMPDEST PUSH0 DUP2 CALLDATALOAD SWAP1 POP PUSH2 0x7F7 DUP2 PUSH2 0x7D3 JUMP JUMPDEST SWAP3 SWAP2 POP POP JUMP JUMPDEST PUSH0 PUSH1 0x20 DUP3 DUP5 SUB SLT ISZERO PUSH2 0x812 JUMPI PUSH2 0x811 PUSH2 0x79B JUMP JUMPDEST JUMPDEST PUSH0 PUSH2 0x81F DUP5 DUP3 DUP6 ADD PUSH2 0x7E9 JUMP JUMPDEST SWAP2 POP POP SWAP3 SWAP2 POP POP JUMP JUMPDEST PUSH0 DUP2 ISZERO ISZERO SWAP1 POP SWAP2 SWAP1 POP JUMP JUMPDEST PUSH2 0x83C DUP2 PUSH2 0x828 JUMP JUMPDEST DUP3 MSTORE POP POP JUMP JUMPDEST PUSH0 PUSH1 0x20 DUP3 ADD SWAP1 POP PUSH2 0x855 PUSH0 DUP4 ADD DUP5 PUSH2 0x833 JUMP JUMPDEST SWAP3 SWAP2 POP POP JUMP JUMPDEST PUSH0 DUP2 MLOAD SWAP1 POP SWAP2 SWAP1 POP JUMP JUMPDEST PUSH0 DUP3 DUP3 MSTORE PUSH1 0x20 DUP3 ADD SWAP1 POP SWAP3 SWAP2 POP POP JUMP JUMPDEST DUP3 DUP2 DUP4 MCOPY PUSH0 DUP4 DUP4 ADD MSTORE POP POP POP JUMP JUMPDEST PUSH0 PUSH1 0x1F NOT PUSH1 0x1F DUP4 ADD AND SWAP1 POP SWAP2 SWAP1 POP JUMP JUMPDEST PUSH0 PUSH2 0x89D DUP3 PUSH2 0x85B JUMP JUMPDEST PUSH2 0x8A7 DUP2 DUP6 PUSH2 0x865 JUMP JUMPDEST SWAP4 POP PUSH2 0x8B7 DUP2 DUP6 PUSH1 0x20 DUP7 ADD PUSH2 0x875 JUMP JUMPDEST PUSH2 0x8C0 DUP2 PUSH2 0x883 JUMP JUMPDEST DUP5 ADD SWAP2 POP POP SWAP3 SWAP2 POP POP JUMP JUMPDEST PUSH0 PUSH4 0xFFFFFFFF DUP3 AND SWAP1 POP SWAP2 SWAP1 POP JUMP JUMPDEST PUSH2 0x8E3 DUP2 PUSH2 0x8CB JUMP JUMPDEST DUP3 MSTORE POP POP JUMP JUMPDEST PUSH0 PUSH1 0x60 DUP3 ADD SWAP1 POP DUP2 DUP2 SUB PUSH0 DUP4 ADD MSTORE PUSH2 0x901 DUP2 DUP7 PUSH2 0x893 JUMP JUMPDEST SWAP1 POP PUSH2 0x910 PUSH1 0x20 DUP4 ADD DUP6 PUSH2 0x8DA JUMP JUMPDEST PUSH2 0x91D PUSH1 0x40 DUP4 ADD DUP5 PUSH2 0x8DA JUMP JUMPDEST SWAP5 SWAP4 POP POP POP POP JUMP JUMPDEST PUSH0 PUSH1 0x20 DUP3 ADD SWAP1 POP PUSH2 0x938 PUSH0 DUP4 ADD DUP5 PUSH2 0x8DA JUMP JUMPDEST SWAP3 SWAP2 POP POP JUMP JUMPDEST PUSH2 0x947 DUP2 PUSH2 0x8CB JUMP JUMPDEST DUP2 EQ PUSH2 0x951 JUMPI PUSH0 PUSH0 REVERT JUMPDEST POP JUMP JUMPDEST PUSH0 DUP2 CALLDATALOAD SWAP1 POP PUSH2 0x962 DUP2 PUSH2 0x93E JUMP JUMPDEST SWAP3 SWAP2 POP POP JUMP JUMPDEST PUSH0 PUSH1 0x20 DUP3 DUP5 SUB SLT ISZERO PUSH2 0x97D JUMPI PUSH2 0x97C PUSH2 0x79B JUMP JUMPDEST JUMPDEST PUSH0 PUSH2 0x98A DUP5 DUP3 DUP6 ADD PUSH2 0x954 JUMP JUMPDEST SWAP2 POP POP SWAP3 SWAP2 POP POP JUMP JUMPDEST PUSH0 PUSH0 REVERT JUMPDEST PUSH0 PUSH0 REVERT JUMPDEST PUSH32 0x4E487B7100000000000000000000000000000000000000000000000000000000 PUSH0 MSTORE PUSH1 0x41 PUSH1 0x4 MSTORE PUSH1 0x24 PUSH0 REVERT JUMPDEST PUSH2 0x9D1 DUP3 PUSH2 0x883 JUMP JUMPDEST DUP2 ADD DUP2 DUP2 LT PUSH8 0xFFFFFFFFFFFFFFFF DUP3 GT OR ISZERO PUSH2 0x9F0 JUMPI PUSH2 0x9EF PUSH2 0x99B JUMP JUMPDEST JUMPDEST DUP1 PUSH1 0x40 MSTORE POP POP POP JUMP JUMPDEST PUSH0 PUSH2 0xA02 PUSH2 0x792 JUMP JUMPDEST SWAP1 POP PUSH2 0xA0E DUP3 DUP3 PUSH2 0x9C8 JUMP JUMPDEST SWAP2 SWAP1 POP JUMP JUMPDEST PUSH0 PUSH8 0xFFFFFFFFFFFFFFFF DUP3 GT ISZERO PUSH2 0xA2D JUMPI PUSH2 0xA2C PUSH2 0x99B JUMP JUMPDEST JUMPDEST PUSH2 0xA36 DUP3 PUSH2 0x883 JUMP JUMPDEST SWAP1 POP PUSH1 0x20 DUP2 ADD SWAP1 POP SWAP2 SWAP1 POP JUMP JUMPDEST DUP3 DUP2 DUP4 CALLDATACOPY PUSH0 DUP4 DUP4 ADD MSTORE POP POP POP JUMP JUMPDEST PUSH0 PUSH2 0xA63 PUSH2 0xA5E DUP5 PUSH2 0xA13 JUMP JUMPDEST PUSH2 0x9F9 JUMP JUMPDEST SWAP1 POP DUP3 DUP2 MSTORE PUSH1 0x20 DUP2 ADD DUP5 DUP5 DUP5 ADD GT ISZERO PUSH2 0xA7F JUMPI PUSH2 0xA7E PUSH2 0x997 JUMP JUMPDEST JUMPDEST PUSH2 0xA8A DUP5 DUP3 DUP6 PUSH2 0xA43 JUMP JUMPDEST POP SWAP4 SWAP3 POP POP POP JUMP JUMPDEST PUSH0 DUP3 PUSH1 0x1F DUP4 ADD SLT PUSH2 0xAA6 JUMPI PUSH2 0xAA5 PUSH2 0x993 JUMP JUMPDEST JUMPDEST DUP2 CALLDATALOAD PUSH2 0xAB6 DUP5 DUP3 PUSH1 0x20 DUP7 ADD PUSH2 0xA51 JUMP JUMPDEST SWAP2 POP POP SWAP3 SWAP2 POP POP JUMP JUMPDEST PUSH0 PUSH1 0x20 DUP3 DUP5 SUB SLT ISZERO PUSH2 0xAD4 JUMPI PUSH2 0xAD3 PUSH2 0x79B JUMP JUMPDEST JUMPDEST PUSH0 DUP3 ADD CALLDATALOAD PUSH8 0xFFFFFFFFFFFFFFFF DUP2 GT ISZERO PUSH2 0xAF1 JUMPI PUSH2 0xAF0 PUSH2 0x79F JUMP JUMPDEST JUMPDEST PUSH2 0xAFD DUP5 DUP3 DUP6 ADD PUSH2 0xA92 JUMP JUMPDEST SWAP2 POP POP SWAP3 SWAP2 POP POP JUMP JUMPDEST PUSH0 DUP2 SWAP1 POP SWAP2 SWAP1 POP JUMP JUMPDEST PUSH2 0xB18 DUP2 PUSH2 0xB06 JUMP JUMPDEST DUP2 EQ PUSH2 0xB22 JUMPI PUSH0 PUSH0 REVERT JUMPDEST POP JUMP JUMPDEST PUSH0 DUP2 CALLDATALOAD SWAP1 POP PUSH2 0xB33 DUP2 PUSH2 0xB0F JUMP JUMPDEST SWAP3 SWAP2 POP POP JUMP JUMPDEST PUSH0 PUSH1 0x20 DUP3 DUP5 SUB SLT ISZERO PUSH2 0xB4E JUMPI PUSH2 0xB4D PUSH2 0x79B JUMP JUMPDEST JUMPDEST PUSH0 PUSH2 0xB5B DUP5 DUP3 DUP6 ADD PUSH2 0xB25 JUMP JUMPDEST SWAP2 POP POP SWAP3 SWAP2 POP POP JUMP JUMPDEST PUSH2 0xB6D DUP2 PUSH2 0x7C2 JUMP JUMPDEST DUP3 MSTORE POP POP JUMP JUMPDEST PUSH0 PUSH1 0x20 DUP3 ADD SWAP1 POP PUSH2 0xB86 PUSH0 DUP4 ADD DUP5 PUSH2 0xB64 JUMP JUMPDEST SWAP3 SWAP2 POP POP JUMP JUMPDEST PUSH32 0x4E487B7100000000000000000000000000000000000000000000000000000000 PUSH0 MSTORE PUSH1 0x22 PUSH1 0x4 MSTORE PUSH1 0x24 PUSH0 REVERT JUMPDEST PUSH0 PUSH1 0x2 DUP3 DIV SWAP1 POP PUSH1 0x1 DUP3 AND DUP1 PUSH2 0xBD0 JUMPI PUSH1 0x7F DUP3 AND SWAP2 POP JUMPDEST PUSH1 0x20 DUP3 LT DUP2 SUB PUSH2 0xBE3 JUMPI PUSH2 0xBE2 PUSH2 0xB8C JUMP JUMPDEST JUMPDEST POP SWAP2 SWAP1 POP JUMP JUMPDEST PUSH32 0x596F7520616C726561647920766F746564000000000000000000000000000000 PUSH0 DUP3 ADD MSTORE POP JUMP JUMPDEST PUSH0 PUSH2 0xC1D PUSH1 0x11 DUP4 PUSH2 0x865 JUMP JUMPDEST SWAP2 POP PUSH2 0xC28 DUP3 PUSH2 0xBE9 JUMP JUMPDEST PUSH1 0x20 DUP3 ADD SWAP1 POP SWAP2 SWAP1 POP JUMP JUMPDEST PUSH0 PUSH1 0x20 DUP3 ADD SWAP1 POP DUP2 DUP2 SUB PUSH0 DUP4 ADD MSTORE PUSH2 0xC4A DUP2 PUSH2 0xC11 JUMP JUMPDEST SWAP1 POP SWAP2 SWAP1 POP JUMP JUMPDEST PUSH32 0x696E76616C69642063616E646964617465206964000000000000000000000000 PUSH0 DUP3 ADD MSTORE POP JUMP JUMPDEST PUSH0 PUSH2 0xC85 PUSH1 0x14 DUP4 PUSH2 0x865 JUMP JUMPDEST SWAP2 POP PUSH2 0xC90 DUP3 PUSH2 0xC51 JUMP JUMPDEST PUSH1 0x20 DUP3 ADD SWAP1 POP SWAP2 SWAP1 POP JUMP JUMPDEST PUSH0 PUSH1 0x20 DUP3 ADD SWAP1 POP DUP2 DUP2 SUB PUSH0 DUP4 ADD MSTORE PUSH2 0xCB2 DUP2 PUSH2 0xC79 JUMP JUMPDEST SWAP1 POP SWAP2 SWAP1 POP JUMP JUMPDEST PUSH0 DUP2 SLOAD SWAP1 POP PUSH2 0xCC7 DUP2 PUSH2 0xBB9 JUMP JUMPDEST SWAP1 POP SWAP2 SWAP1 POP JUMP JUMPDEST PUSH0 DUP2 SWAP1 POP DUP2 PUSH0 MSTORE PUSH1 0x20 PUSH0 KECCAK256 SWAP1 POP SWAP2 SWAP1 POP JUMP JUMPDEST PUSH0 PUSH1 0x20 PUSH1 0x1F DUP4 ADD DIV SWAP1 POP SWAP2 SWAP1 POP JUMP JUMPDEST PUSH0 DUP3 DUP3 SHL SWAP1 POP SWAP3 SWAP2 POP POP JUMP JUMPDEST PUSH0 PUSH1 0x8 DUP4 MUL PUSH2 0xD2A PUSH32 0xFFFFFFFFFFFFFFFFFFFFFFFFFFFFFFFFFFFFFFFFFFFFFFFFFFFFFFFFFFFFFFFF DUP3 PUSH2 0xCEF JUMP JUMPDEST PUSH2 0xD34 DUP7 DUP4 PUSH2 0xCEF JUMP JUMPDEST SWAP6 POP DUP1 NOT DUP5 AND SWAP4 POP DUP1 DUP7 AND DUP5 OR SWAP3 POP POP POP SWAP4 SWAP3 POP POP POP JUMP JUMPDEST PUSH0 DUP2 SWAP1 POP SWAP2 SWAP1 POP JUMP JUMPDEST PUSH0 PUSH2 0xD6F PUSH2 0xD6A PUSH2 0xD65 DUP5 PUSH2 0xB06 JUMP JUMPDEST PUSH2 0xD4C JUMP JUMPDEST PUSH2 0xB06 JUMP JUMPDEST SWAP1 POP SWAP2 SWAP1 POP JUMP JUMPDEST PUSH0 DUP2 SWAP1 POP SWAP2 SWAP1 POP JUMP JUMPDEST PUSH2 0xD88 DUP4 PUSH2 0xD55 JUMP JUMPDEST PUSH2 0xD9C PUSH2 0xD94 DUP3 PUSH2 0xD76 JUMP JUMPDEST DUP5 DUP5 SLOAD PUSH2 0xCFB JUMP JUMPDEST DUP3 SSTORE POP POP POP POP JUMP JUMPDEST PUSH0 PUSH0 SWAP1 POP SWAP1 JUMP JUMPDEST PUSH2 0xDB3 PUSH2 0xDA4 JUMP JUMPDEST PUSH2 0xDBE DUP2 DUP5 DUP5 PUSH2 0xD7F JUMP JUMPDEST POP POP POP JUMP JUMPDEST JUMPDEST DUP2 DUP2 LT ISZERO PUSH2 0xDE1 JUMPI PUSH2 0xDD6 PUSH0 DUP3 PUSH2 0xDAB JUMP JUMPDEST PUSH1 0x1 DUP2 ADD SWAP1 POP PUSH2 0xDC4 JUMP JUMPDEST POP POP JUMP JUMPDEST PUSH1 0x1F DUP3 GT ISZERO PUSH2 0xE26 JUMPI PUSH2 0xDF7 DUP2 PUSH2 0xCCE JUMP JUMPDEST PUSH2 0xE00 DUP5 PUSH2 0xCE0 JUMP JUMPDEST DUP2 ADD PUSH1 0x20 DUP6 LT ISZERO PUSH2 0xE0F JUMPI DUP2 SWAP1 POP JUMPDEST PUSH2 0xE23 PUSH2 0xE1B DUP6 PUSH2 0xCE0 JUMP JUMPDEST DUP4 ADD DUP3 PUSH2 0xDC3 JUMP JUMPDEST POP POP JUMPDEST POP POP POP JUMP JUMPDEST PUSH0 DUP3 DUP3 SHR SWAP1 POP SWAP3 SWAP2 POP POP JUMP JUMPDEST PUSH0 PUSH2 0xE46 PUSH0 NOT DUP5 PUSH1 0x8 MUL PUSH2 0xE2B JUMP JUMPDEST NOT DUP1 DUP4 AND SWAP2 POP POP SWAP3 SWAP2 POP POP JUMP JUMPDEST PUSH0 PUSH2 0xE5E DUP4 DUP4 PUSH2 0xE37 JUMP JUMPDEST SWAP2 POP DUP3 PUSH1 0x2 MUL DUP3 OR SWAP1 POP SWAP3 SWAP2 POP POP JUMP JUMPDEST DUP2 DUP2 SUB PUSH2 0xE7C JUMPI POP POP PUSH2 0xF51 JUMP JUMPDEST PUSH2 0xE85 DUP3 PUSH2 0xCB9 JUMP JUMPDEST PUSH8 0xFFFFFFFFFFFFFFFF DUP2 GT ISZERO PUSH2 0xE9E JUMPI PUSH2 0xE9D PUSH2 0x99B JUMP JUMPDEST JUMPDEST PUSH2 0xEA8 DUP3 SLOAD PUSH2 0xBB9 JUMP JUMPDEST PUSH2 0xEB3 DUP3 DUP3 DUP6 PUSH2 0xDE5 JUMP JUMPDEST PUSH0 PUSH1 0x1F DUP4 GT PUSH1 0x1 DUP2 EQ PUSH2 0xEE0 JUMPI PUSH0 DUP5 ISZERO PUSH2 0xECE JUMPI DUP3 DUP8 ADD SLOAD SWAP1 POP JUMPDEST PUSH2 0xED8 DUP6 DUP3 PUSH2 0xE53 JUMP JUMPDEST DUP7 SSTORE POP PUSH2 0xF4A JUMP JUMPDEST PUSH1 0x1F NOT DUP5 AND PUSH2 0xEEE DUP8 PUSH2 0xCCE JUMP JUMPDEST SWAP7 POP PUSH2 0xEF9 DUP7 PUSH2 0xCCE JUMP JUMPDEST PUSH0 JUMPDEST DUP3 DUP2 LT ISZERO PUSH2 0xF20 JUMPI DUP5 DUP10 ADD SLOAD DUP3 SSTORE PUSH1 0x1 DUP3 ADD SWAP2 POP PUSH1 0x1 DUP6 ADD SWAP5 POP PUSH1 0x20 DUP2 ADD SWAP1 POP PUSH2 0xEFB JUMP JUMPDEST DUP7 DUP4 LT ISZERO PUSH2 0xF3D JUMPI DUP5 DUP10 ADD SLOAD PUSH2 0xF39 PUSH1 0x1F DUP10 AND DUP3 PUSH2 0xE37 JUMP JUMPDEST DUP4 SSTORE POP JUMPDEST PUSH1 0x1 PUSH1 0x2 DUP9 MUL ADD DUP9 SSTORE POP POP POP JUMPDEST POP POP POP POP POP POP JUMPDEST JUMP JUMPDEST PUSH32 0x4E487B7100000000000000000000000000000000000000000000000000000000 PUSH0 MSTORE PUSH1 0x11 PUSH1 0x4 MSTORE PUSH1 0x24 PUSH0 REVERT JUMPDEST PUSH0 PUSH2 0xF8A DUP3 PUSH2 0x8CB JUMP JUMPDEST SWAP2 POP PUSH4 0xFFFFFFFF DUP3 SUB PUSH2 0xFA0 JUMPI PUSH2 0xF9F PUSH2 0xF53 JUMP JUMPDEST JUMPDEST PUSH1 0x1 DUP3 ADD SWAP1 POP SWAP2 SWAP1 POP JUMP JUMPDEST PUSH2 0xFB4 DUP3 PUSH2 0x85B JUMP JUMPDEST PUSH8 0xFFFFFFFFFFFFFFFF DUP2 GT ISZERO PUSH2 0xFCD JUMPI PUSH2 0xFCC PUSH2 0x99B JUMP JUMPDEST JUMPDEST PUSH2 0xFD7 DUP3 SLOAD PUSH2 0xBB9 JUMP JUMPDEST PUSH2 0xFE2 DUP3 DUP3 DUP6 PUSH2 0xDE5 JUMP JUMPDEST PUSH0 PUSH1 0x20 SWAP1 POP PUSH1 0x1F DUP4 GT PUSH1 0x1 DUP2 EQ PUSH2 0x1013 JUMPI PUSH0 DUP5 ISZERO PUSH2 0x1001 JUMPI DUP3 DUP8 ADD MLOAD SWAP1 POP JUMPDEST PUSH2 0x100B DUP6 DUP3 PUSH2 0xE53 JUMP JUMPDEST DUP7 SSTORE POP PUSH2 0x1072 JUMP JUMPDEST PUSH1 0x1F NOT DUP5 AND PUSH2 0x1021 DUP7 PUSH2 0xCCE JUMP JUMPDEST PUSH0 JUMPDEST DUP3 DUP2 LT ISZERO PUSH2 0x1048 JUMPI DUP5 DUP10 ADD MLOAD DUP3 SSTORE PUSH1 0x1 DUP3 ADD SWAP2 POP PUSH1 0x20 DUP6 ADD SWAP5 POP PUSH1 0x20 DUP2 ADD SWAP1 POP PUSH2 0x1023 JUMP JUMPDEST DUP7 DUP4 LT ISZERO PUSH2 0x1065 JUMPI DUP5 DUP10 ADD MLOAD PUSH2 0x1061 PUSH1 0x1F DUP10 AND DUP3 PUSH2 0xE37 JUMP JUMPDEST DUP4 SSTORE POP JUMPDEST PUSH1 0x1 PUSH1 0x2 DUP9 MUL ADD DUP9 SSTORE POP POP POP JUMPDEST POP POP POP POP POP POP JUMP INVALID LOG2 PUSH5 0x6970667358 0x22 SLT KECCAK256 0xBB PUSH20 0x6E9E9ACFF9B6D86BE5C41348A57ABA241B1C089C SWAP3 PUSH11 0x3ED220D910165C8264736F PUSH13 0x634300081F0033000000000000 "
				},
				"gasEstimates": {
					"creation": {
						"codeDepositCost": "854400",
						"executionCost": "888",
						"totalCost": "855288"
					},
					"external": {
						"currentCandidates(uint32)": "infinite",
						"hasVoted(address)": "2834",
						"registerforCandidate(string)": "infinite",
						"totalCandidtes()": "2510",
						"userVotes(address)": "infinite",
						"vote(uint32)": "infinite",
						"voters(uint256)": "5010"
					}
				},
				"methodIdentifiers": {
					"currentCandidates(uint32)": "a91bd423",
					"hasVoted(address)": "09eef43e",
					"registerforCandidate(string)": "978331cf",
					"totalCandidtes()": "867d6803",
					"userVotes(address)": "62190150",
					"vote(uint32)": "9094c763",
					"voters(uint256)": "da58c7d9"
				}
			},
			"storageLayout": {
				"storage": [
					{
						"astId": 10,
						"contract": "submissions/MeseretBirhanu/day3/PollStation.sol:PollStation",
						"label": "totalCandidtes",
						"offset": 0,
						"slot": "0",
						"type": "t_uint32"
					},
					{
						"astId": 15,
						"contract": "submissions/MeseretBirhanu/day3/PollStation.sol:PollStation",
						"label": "currentCandidates",
						"offset": 0,
						"slot": "1",
						"type": "t_mapping(t_uint32,t_struct(Candidate)8_storage)"
					},
					{
						"astId": 20,
						"contract": "submissions/MeseretBirhanu/day3/PollStation.sol:PollStation",
						"label": "userVotes",
						"offset": 0,
						"slot": "2",
						"type": "t_mapping(t_address,t_struct(Candidate)8_storage)"
					},
					{
						"astId": 24,
						"contract": "submissions/MeseretBirhanu/day3/PollStation.sol:PollStation",
						"label": "hasVoted",
						"offset": 0,
						"slot": "3",
						"type": "t_mapping(t_address,t_bool)"
					},
					{
						"astId": 27,
						"contract": "submissions/MeseretBirhanu/day3/PollStation.sol:PollStation",
						"label": "voters",
						"offset": 0,
						"slot": "4",
						"type": "t_array(t_address)dyn_storage"
					}
				],
				"types": {
					"t_address": {
						"encoding": "inplace",
						"label": "address",
						"numberOfBytes": "20"
					},
					"t_array(t_address)dyn_storage": {
						"base": "t_address",
						"encoding": "dynamic_array",
						"label": "address[]",
						"numberOfBytes": "32"
					},
					"t_bool": {
						"encoding": "inplace",
						"label": "bool",
						"numberOfBytes": "1"
					},
					"t_mapping(t_address,t_bool)": {
						"encoding": "mapping",
						"key": "t_address",
						"label": "mapping(address => bool)",
						"numberOfBytes": "32",
						"value": "t_bool"
					},
					"t_mapping(t_address,t_struct(Candidate)8_storage)": {
						"encoding": "mapping",
						"key": "t_address",
						"label": "mapping(address => struct PollStation.Candidate)",
						"numberOfBytes": "32",
						"value": "t_struct(Candidate)8_storage"
					},
					"t_mapping(t_uint32,t_struct(Candidate)8_storage)": {
						"encoding": "mapping",
						"key": "t_uint32",
						"label": "mapping(uint32 => struct PollStation.Candidate)",
						"numberOfBytes": "32",
						"value": "t_struct(Candidate)8_storage"
					},
					"t_string_storage": {
						"encoding": "bytes",
						"label": "string",
						"numberOfBytes": "32"
					},
					"t_struct(Candidate)8_storage": {
						"encoding": "inplace",
						"label": "struct PollStation.Candidate",
						"members": [
							{
								"astId": 3,
								"contract": "submissions/MeseretBirhanu/day3/PollStation.sol:PollStation",
								"label": "name",
								"offset": 0,
								"slot": "0",
								"type": "t_string_storage"
							},
							{
								"astId": 5,
								"contract": "submissions/MeseretBirhanu/day3/PollStation.sol:PollStation",
								"label": "id",
								"offset": 0,
								"slot": "1",
								"type": "t_uint32"
							},
							{
								"astId": 7,
								"contract": "submissions/MeseretBirhanu/day3/PollStation.sol:PollStation",
								"label": "votes",
								"offset": 4,
								"slot": "1",
								"type": "t_uint32"
							}
						],
						"numberOfBytes": "64"
					},
					"t_uint32": {
						"encoding": "inplace",
						"label": "uint32",
						"numberOfBytes": "4"
					}
				}
			},
			"userdoc": {
				"kind": "user",
				"methods": {},
				"version": 1
			}
		}
	}
}