{
	"submissions/Serena Y/Day17-SubscriptionLogicV2.sol": {
		"SubscriptionLogicV2": {
			"abi": [
				{
					"inputs": [
						{
							"internalType": "uint8",
							"name": "planId",
							"type": "uint8"
						},
						{
							"internalType": "uint256",
							"name": "price",
							"type": "uint256"
						},
						{
							"internalType": "uint256",
							"name": "duration",
							"type": "uint256"
						}
					],
					"name": "addPlan",
					"outputs": [],
					"stateMutability": "nonpayable",
					"type": "function"
				},
				{
					"inputs": [
						{
							"internalType": "address",
							"name": "user",
							"type": "address"
						}
					],
					"name": "isActive",
					"outputs": [
						{
							"internalType": "bool",
							"name": "",
							"type": "bool"
						}
					],
					"stateMutability": "view",
					"type": "function"
				},
				{
					"inputs": [],
					"name": "logicContract",
					"outputs": [
						{
							"internalType": "address",
							"name": "",
							"type": "address"
						}
					],
					"stateMutability": "view",
					"type": "function"
				},
				{
					"inputs": [],
					"name": "owner",
					"outputs": [
						{
							"internalType": "address",
							"name": "",
							"type": "address"
						}
					],
					"stateMutability": "view",
					"type": "function"
				},
				{
					"inputs": [
						{
							"internalType": "address",
							"name": "user",
							"type": "address"
						}
					],
					"name": "pause",
					"outputs": [],
					"stateMutability": "nonpayable",
					"type": "function"
				},
				{
					"inputs": [
						{
							"internalType": "uint8",
							"name": "",
							"type": "uint8"
						}
					],
					"name": "planDuration",
					"outputs": [
						{
							"internalType": "uint256",
							"name": "",
							"type": "uint256"
						}
					],
					"stateMutability": "view",
					"type": "function"
				},
				{
					"inputs": [
						{
							"internalType": "uint8",
							"name": "",
							"type": "uint8"
						}
					],
					"name": "planPrices",
					"outputs": [
						{
							"internalType": "uint256",
							"name": "",
							"type": "uint256"
						}
					],
					"stateMutability": "view",
					"type": "function"
				},
				{
					"inputs": [
						{
							"internalType": "address",
							"name": "user",
							"type": "address"
						}
					],
					"name": "resumeAccount",
					"outputs": [],
					"stateMutability": "nonpayable",
					"type": "function"
				},
				{
					"inputs": [
						{
							"internalType": "uint8",
							"name": "planId",
							"type": "uint8"
						}
					],
					"name": "subscribe",
					"outputs": [],
					"stateMutability": "payable",
					"type": "function"
				},
				{
					"inputs": [
						{
							"internalType": "address",
							"name": "",
							"type": "address"
						}
					],
					"name": "subscriptions",
					"outputs": [
						{
							"internalType": "uint8",
							"name": "planId",
							"type": "uint8"
						},
						{
							"internalType": "uint256",
							"name": "expiry",
							"type": "uint256"
						},
						{
							"internalType": "bool",
							"name": "paused",
							"type": "bool"
						}
					],
					"stateMutability": "view",
					"type": "function"
				}
			],
			"devdoc": {
				"kind": "dev",
				"methods": {},
				"version": 1
			},
			"evm": {
				"assembly": "    /* \"submissions/Serena Y/Day17-SubscriptionLogicV2.sol\":105:1547  contract  SubscriptionLogicV2 is SubscriptionLogicV1 {... */\n  mstore(0x40, 0x80)\n  callvalue\n  dup1\n  iszero\n  tag_1\n  jumpi\n  revert(0x00, 0x00)\ntag_1:\n  pop\n  dataSize(sub_0)\n  dup1\n  dataOffset(sub_0)\n  0x00\n  codecopy\n  0x00\n  return\nstop\n\nsub_0: assembly {\n        /* \"submissions/Serena Y/Day17-SubscriptionLogicV2.sol\":105:1547  contract  SubscriptionLogicV2 is SubscriptionLogicV1 {... */\n      mstore(0x40, 0x80)\n      jumpi(tag_1, lt(calldatasize, 0x04))\n      shr(0xe0, calldataload(0x00))\n      dup1\n      0xb33187e7\n      gt\n      tag_12\n      jumpi\n      dup1\n      0xb33187e7\n      eq\n      tag_7\n      jumpi\n      dup1\n      0xcc0e97c9\n      eq\n      tag_8\n      jumpi\n      dup1\n      0xcc2d49d8\n      eq\n      tag_9\n      jumpi\n      dup1\n      0xf046395a\n      eq\n      tag_10\n      jumpi\n      dup1\n      0xf66d9820\n      eq\n      tag_11\n      jumpi\n      jump(tag_1)\n    tag_12:\n      dup1\n      0x49c7e639\n      eq\n      tag_2\n      jumpi\n      dup1\n      0x76a67a51\n      eq\n      tag_3\n      jumpi\n      dup1\n      0x76ca4f72\n      eq\n      tag_4\n      jumpi\n      dup1\n      0x8da5cb5b\n      eq\n      tag_5\n      jumpi\n      dup1\n      0x9f8a13d7\n      eq\n      tag_6\n      jumpi\n    tag_1:\n      revert(0x00, 0x00)\n        /* \"submissions/Serena Y/Day17-SubscriptionLogicV2.sol\":345:848  function subscribe(uint8 planId) external payable override {... */\n    tag_2:\n      tag_13\n      0x04\n      dup1\n      calldatasize\n      sub\n      dup2\n      add\n      swap1\n      tag_14\n      swap2\n      swap1\n      tag_15\n      jump\t// in\n    tag_14:\n      tag_16\n      jump\t// in\n    tag_13:\n      stop\n        /* \"submissions/Serena Y/Day17-SubscriptionLogicV2.sol\":1055:1387  function pause(address user) external  {... */\n    tag_3:\n      callvalue\n      dup1\n      iszero\n      tag_17\n      jumpi\n      revert(0x00, 0x00)\n    tag_17:\n      pop\n      tag_18\n      0x04\n      dup1\n      calldatasize\n      sub\n      dup2\n      add\n      swap1\n      tag_19\n      swap2\n      swap1\n      tag_20\n      jump\t// in\n    tag_19:\n      tag_21\n      jump\t// in\n    tag_18:\n      stop\n        /* \"submissions/Serena Y/Day17-SubscriptionStorageLayout.sol\":652:695  mapping(uint8=>uint256) public planDuration */\n    tag_4:\n      callvalue\n      dup1\n      iszero\n      tag_22\n      jumpi\n      revert(0x00, 0x00)\n    tag_22:\n      pop\n      tag_23\n      0x04\n      dup1\n      calldatasize\n      sub\n      dup2\n      add\n      swap1\n      tag_24\n      swap2\n      swap1\n      tag_15\n      jump\t// in\n    tag_24:\n      tag_25\n      jump\t// in\n    tag_23:\n      mload(0x40)\n      tag_26\n      swap2\n      swap1\n      tag_27\n      jump\t// in\n    tag_26:\n      mload(0x40)\n      dup1\n      swap2\n      sub\n      swap1\n      return\n        /* \"submissions/Serena Y/Day17-SubscriptionStorageLayout.sol\":328:348  address public owner */\n    tag_5:\n      callvalue\n      dup1\n      iszero\n      tag_28\n      jumpi\n      revert(0x00, 0x00)\n    tag_28:\n      pop\n      tag_29\n      tag_30\n      jump\t// in\n    tag_29:\n      mload(0x40)\n      tag_31\n      swap2\n      swap1\n      tag_32\n      jump\t// in\n    tag_31:\n      mload(0x40)\n      dup1\n      swap2\n      sub\n      swap1\n      return\n        /* \"submissions/Serena Y/Day17-SubscriptionLogicV2.sol\":856:1047  function isActive(address user) external view override returns (bool) {... */\n    tag_6:\n      callvalue\n      dup1\n      iszero\n      tag_33\n      jumpi\n      revert(0x00, 0x00)\n    tag_33:\n      pop\n      tag_34\n      0x04\n      dup1\n      calldatasize\n      sub\n      dup2\n      add\n      swap1\n      tag_35\n      swap2\n      swap1\n      tag_20\n      jump\t// in\n    tag_35:\n      tag_36\n      jump\t// in\n    tag_34:\n      mload(0x40)\n      tag_37\n      swap2\n      swap1\n      tag_38\n      jump\t// in\n    tag_37:\n      mload(0x40)\n      dup1\n      swap2\n      sub\n      swap1\n      return\n        /* \"submissions/Serena Y/Day17-SubscriptionStorageLayout.sol\":576:617  mapping(uint8=>uint256) public planPrices */\n    tag_7:\n      callvalue\n      dup1\n      iszero\n      tag_39\n      jumpi\n      revert(0x00, 0x00)\n    tag_39:\n      pop\n      tag_40\n      0x04\n      dup1\n      calldatasize\n      sub\n      dup2\n      add\n      swap1\n      tag_41\n      swap2\n      swap1\n      tag_15\n      jump\t// in\n    tag_41:\n      tag_42\n      jump\t// in\n    tag_40:\n      mload(0x40)\n      tag_43\n      swap2\n      swap1\n      tag_27\n      jump\t// in\n    tag_43:\n      mload(0x40)\n      dup1\n      swap2\n      sub\n      swap1\n      return\n        /* \"submissions/Serena Y/Day17-SubscriptionStorageLayout.sol\":297:325  address public logicContract */\n    tag_8:\n      callvalue\n      dup1\n      iszero\n      tag_44\n      jumpi\n      revert(0x00, 0x00)\n    tag_44:\n      pop\n      tag_45\n      tag_46\n      jump\t// in\n    tag_45:\n      mload(0x40)\n      tag_47\n      swap2\n      swap1\n      tag_32\n      jump\t// in\n    tag_47:\n      mload(0x40)\n      dup1\n      swap2\n      sub\n      swap1\n      return\n        /* \"submissions/Serena Y/Day17-SubscriptionLogicV2.sol\":167:337  function addPlan(uint8 planId, uint256 price, uint256 duration) external override  {... */\n    tag_9:\n      callvalue\n      dup1\n      iszero\n      tag_48\n      jumpi\n      revert(0x00, 0x00)\n    tag_48:\n      pop\n      tag_49\n      0x04\n      dup1\n      calldatasize\n      sub\n      dup2\n      add\n      swap1\n      tag_50\n      swap2\n      swap1\n      tag_51\n      jump\t// in\n    tag_50:\n      tag_52\n      jump\t// in\n    tag_49:\n      stop\n        /* \"submissions/Serena Y/Day17-SubscriptionStorageLayout.sol\":502:553  mapping(address=>Subscription) public subscriptions */\n    tag_10:\n      callvalue\n      dup1\n      iszero\n      tag_53\n      jumpi\n      revert(0x00, 0x00)\n    tag_53:\n      pop\n      tag_54\n      0x04\n      dup1\n      calldatasize\n      sub\n      dup2\n      add\n      swap1\n      tag_55\n      swap2\n      swap1\n      tag_20\n      jump\t// in\n    tag_55:\n      tag_56\n      jump\t// in\n    tag_54:\n      mload(0x40)\n      tag_57\n      swap4\n      swap3\n      swap2\n      swap1\n      tag_58\n      jump\t// in\n    tag_57:\n      mload(0x40)\n      dup1\n      swap2\n      sub\n      swap1\n      return\n        /* \"submissions/Serena Y/Day17-SubscriptionLogicV2.sol\":1395:1544  function resumeAccount(address user) external{... */\n    tag_11:\n      callvalue\n      dup1\n      iszero\n      tag_59\n      jumpi\n      revert(0x00, 0x00)\n    tag_59:\n      pop\n      tag_60\n      0x04\n      dup1\n      calldatasize\n      sub\n      dup2\n      add\n      swap1\n      tag_61\n      swap2\n      swap1\n      tag_20\n      jump\t// in\n    tag_61:\n      tag_62\n      jump\t// in\n    tag_60:\n      stop\n        /* \"submissions/Serena Y/Day17-SubscriptionLogicV2.sol\":345:848  function subscribe(uint8 planId) external payable override {... */\n    tag_16:\n        /* \"submissions/Serena Y/Day17-SubscriptionLogicV2.sol\":444:445  0 */\n      0x00\n        /* \"submissions/Serena Y/Day17-SubscriptionLogicV2.sol\":423:433  planPrices */\n      0x03\n        /* \"submissions/Serena Y/Day17-SubscriptionLogicV2.sol\":423:441  planPrices[planId] */\n      0x00\n        /* \"submissions/Serena Y/Day17-SubscriptionLogicV2.sol\":434:440  planId */\n      dup4\n        /* \"submissions/Serena Y/Day17-SubscriptionLogicV2.sol\":423:441  planPrices[planId] */\n      0xff\n      and\n      0xff\n      and\n      dup2\n      mstore\n      0x20\n      add\n      swap1\n      dup2\n      mstore\n      0x20\n      add\n      0x00\n      keccak256\n      sload\n        /* \"submissions/Serena Y/Day17-SubscriptionLogicV2.sol\":423:445  planPrices[planId] > 0 */\n      gt\n        /* \"submissions/Serena Y/Day17-SubscriptionLogicV2.sol\":415:462  require(planPrices[planId] > 0, \"Invalid plan\") */\n      tag_64\n      jumpi\n      mload(0x40)\n      0x08c379a000000000000000000000000000000000000000000000000000000000\n      dup2\n      mstore\n      0x04\n      add\n      tag_65\n      swap1\n      tag_66\n      jump\t// in\n    tag_65:\n      mload(0x40)\n      dup1\n      swap2\n      sub\n      swap1\n      revert\n    tag_64:\n        /* \"submissions/Serena Y/Day17-SubscriptionLogicV2.sol\":494:504  planPrices */\n      0x03\n        /* \"submissions/Serena Y/Day17-SubscriptionLogicV2.sol\":494:512  planPrices[planId] */\n      0x00\n        /* \"submissions/Serena Y/Day17-SubscriptionLogicV2.sol\":505:511  planId */\n      dup3\n        /* \"submissions/Serena Y/Day17-SubscriptionLogicV2.sol\":494:512  planPrices[planId] */\n      0xff\n      and\n      0xff\n      and\n      dup2\n      mstore\n      0x20\n      add\n      swap1\n      dup2\n      mstore\n      0x20\n      add\n      0x00\n      keccak256\n      sload\n        /* \"submissions/Serena Y/Day17-SubscriptionLogicV2.sol\":481:490  msg.value */\n      callvalue\n        /* \"submissions/Serena Y/Day17-SubscriptionLogicV2.sol\":481:512  msg.value >= planPrices[planId] */\n      lt\n      iszero\n        /* \"submissions/Serena Y/Day17-SubscriptionLogicV2.sol\":473:537  require(msg.value >= planPrices[planId], \"Insufficient payment\") */\n      tag_67\n      jumpi\n      mload(0x40)\n      0x08c379a000000000000000000000000000000000000000000000000000000000\n      dup2\n      mstore\n      0x04\n      add\n      tag_68\n      swap1\n      tag_69\n      jump\t// in\n    tag_68:\n      mload(0x40)\n      dup1\n      swap2\n      sub\n      swap1\n      revert\n    tag_67:\n        /* \"submissions/Serena Y/Day17-SubscriptionLogicV2.sol\":550:572  Subscription storage s */\n      0x00\n        /* \"submissions/Serena Y/Day17-SubscriptionLogicV2.sol\":575:588  subscriptions */\n      0x02\n        /* \"submissions/Serena Y/Day17-SubscriptionLogicV2.sol\":575:600  subscriptions[msg.sender] */\n      0x00\n        /* \"submissions/Serena Y/Day17-SubscriptionLogicV2.sol\":589:599  msg.sender */\n      caller\n        /* \"submissions/Serena Y/Day17-SubscriptionLogicV2.sol\":575:600  subscriptions[msg.sender] */\n      0xffffffffffffffffffffffffffffffffffffffff\n      and\n      0xffffffffffffffffffffffffffffffffffffffff\n      and\n      dup2\n      mstore\n      0x20\n      add\n      swap1\n      dup2\n      mstore\n      0x20\n      add\n      0x00\n      keccak256\n        /* \"submissions/Serena Y/Day17-SubscriptionLogicV2.sol\":550:600  Subscription storage s = subscriptions[msg.sender] */\n      swap1\n      pop\n        /* \"submissions/Serena Y/Day17-SubscriptionLogicV2.sol\":633:634  s */\n      dup1\n        /* \"submissions/Serena Y/Day17-SubscriptionLogicV2.sol\":633:641  s.expiry */\n      0x01\n      add\n      sload\n        /* \"submissions/Serena Y/Day17-SubscriptionLogicV2.sol\":615:630  block.timestamp */\n      timestamp\n        /* \"submissions/Serena Y/Day17-SubscriptionLogicV2.sol\":615:641  block.timestamp < s.expiry */\n      lt\n        /* \"submissions/Serena Y/Day17-SubscriptionLogicV2.sol\":611:784  if (block.timestamp < s.expiry) {... */\n      iszero\n      tag_70\n      jumpi\n        /* \"submissions/Serena Y/Day17-SubscriptionLogicV2.sol\":670:682  planDuration */\n      0x04\n        /* \"submissions/Serena Y/Day17-SubscriptionLogicV2.sol\":670:690  planDuration[planId] */\n      0x00\n        /* \"submissions/Serena Y/Day17-SubscriptionLogicV2.sol\":683:689  planId */\n      dup4\n        /* \"submissions/Serena Y/Day17-SubscriptionLogicV2.sol\":670:690  planDuration[planId] */\n      0xff\n      and\n      0xff\n      and\n      dup2\n      mstore\n      0x20\n      add\n      swap1\n      dup2\n      mstore\n      0x20\n      add\n      0x00\n      keccak256\n      sload\n        /* \"submissions/Serena Y/Day17-SubscriptionLogicV2.sol\":658:659  s */\n      dup2\n        /* \"submissions/Serena Y/Day17-SubscriptionLogicV2.sol\":658:666  s.expiry */\n      0x01\n      add\n      0x00\n        /* \"submissions/Serena Y/Day17-SubscriptionLogicV2.sol\":658:690  s.expiry += planDuration[planId] */\n      dup3\n      dup3\n      sload\n      tag_71\n      swap2\n      swap1\n      tag_72\n      jump\t// in\n    tag_71:\n      swap3\n      pop\n      pop\n      dup2\n      swap1\n      sstore\n      pop\n        /* \"submissions/Serena Y/Day17-SubscriptionLogicV2.sol\":611:784  if (block.timestamp < s.expiry) {... */\n      jump(tag_73)\n    tag_70:\n        /* \"submissions/Serena Y/Day17-SubscriptionLogicV2.sol\":752:764  planDuration */\n      0x04\n        /* \"submissions/Serena Y/Day17-SubscriptionLogicV2.sol\":752:772  planDuration[planId] */\n      0x00\n        /* \"submissions/Serena Y/Day17-SubscriptionLogicV2.sol\":765:771  planId */\n      dup4\n        /* \"submissions/Serena Y/Day17-SubscriptionLogicV2.sol\":752:772  planDuration[planId] */\n      0xff\n      and\n      0xff\n      and\n      dup2\n      mstore\n      0x20\n      add\n      swap1\n      dup2\n      mstore\n      0x20\n      add\n      0x00\n      keccak256\n      sload\n        /* \"submissions/Serena Y/Day17-SubscriptionLogicV2.sol\":734:749  block.timestamp */\n      timestamp\n        /* \"submissions/Serena Y/Day17-SubscriptionLogicV2.sol\":734:772  block.timestamp + planDuration[planId] */\n      tag_74\n      swap2\n      swap1\n      tag_72\n      jump\t// in\n    tag_74:\n        /* \"submissions/Serena Y/Day17-SubscriptionLogicV2.sol\":723:724  s */\n      dup2\n        /* \"submissions/Serena Y/Day17-SubscriptionLogicV2.sol\":723:731  s.expiry */\n      0x01\n      add\n        /* \"submissions/Serena Y/Day17-SubscriptionLogicV2.sol\":723:772  s.expiry = block.timestamp + planDuration[planId] */\n      dup2\n      swap1\n      sstore\n      pop\n        /* \"submissions/Serena Y/Day17-SubscriptionLogicV2.sol\":611:784  if (block.timestamp < s.expiry) {... */\n    tag_73:\n        /* \"submissions/Serena Y/Day17-SubscriptionLogicV2.sol\":807:813  planId */\n      dup2\n        /* \"submissions/Serena Y/Day17-SubscriptionLogicV2.sol\":796:797  s */\n      dup2\n        /* \"submissions/Serena Y/Day17-SubscriptionLogicV2.sol\":796:804  s.planId */\n      0x00\n      add\n      0x00\n        /* \"submissions/Serena Y/Day17-SubscriptionLogicV2.sol\":796:813  s.planId = planId */\n      0x0100\n      exp\n      dup2\n      sload\n      dup2\n      0xff\n      mul\n      not\n      and\n      swap1\n      dup4\n      0xff\n      and\n      mul\n      or\n      swap1\n      sstore\n      pop\n        /* \"submissions/Serena Y/Day17-SubscriptionLogicV2.sol\":835:840  false */\n      0x00\n        /* \"submissions/Serena Y/Day17-SubscriptionLogicV2.sol\":824:825  s */\n      dup2\n        /* \"submissions/Serena Y/Day17-SubscriptionLogicV2.sol\":824:832  s.paused */\n      0x02\n      add\n      0x00\n        /* \"submissions/Serena Y/Day17-SubscriptionLogicV2.sol\":824:840  s.paused = false */\n      0x0100\n      exp\n      dup2\n      sload\n      dup2\n      0xff\n      mul\n      not\n      and\n      swap1\n      dup4\n      iszero\n      iszero\n      mul\n      or\n      swap1\n      sstore\n      pop\n        /* \"submissions/Serena Y/Day17-SubscriptionLogicV2.sol\":404:848  {... */\n      pop\n        /* \"submissions/Serena Y/Day17-SubscriptionLogicV2.sol\":345:848  function subscribe(uint8 planId) external payable override {... */\n      pop\n      jump\t// out\n        /* \"submissions/Serena Y/Day17-SubscriptionLogicV2.sol\":1055:1387  function pause(address user) external  {... */\n    tag_21:\n        /* \"submissions/Serena Y/Day17-SubscriptionLogicV2.sol\":1211:1215  user */\n      dup1\n        /* \"submissions/Serena Y/Day17-SubscriptionLogicV2.sol\":1197:1215  msg.sender == user */\n      0xffffffffffffffffffffffffffffffffffffffff\n      and\n        /* \"submissions/Serena Y/Day17-SubscriptionLogicV2.sol\":1197:1207  msg.sender */\n      caller\n        /* \"submissions/Serena Y/Day17-SubscriptionLogicV2.sol\":1197:1215  msg.sender == user */\n      0xffffffffffffffffffffffffffffffffffffffff\n      and\n      eq\n        /* \"submissions/Serena Y/Day17-SubscriptionLogicV2.sol\":1189:1234  require(msg.sender == user, \"Not authorized\") */\n      tag_76\n      jumpi\n      mload(0x40)\n      0x08c379a000000000000000000000000000000000000000000000000000000000\n      dup2\n      mstore\n      0x04\n      add\n      tag_77\n      swap1\n      tag_78\n      jump\t// in\n    tag_77:\n      mload(0x40)\n      dup1\n      swap2\n      sub\n      swap1\n      revert\n    tag_76:\n        /* \"submissions/Serena Y/Day17-SubscriptionLogicV2.sol\":1321:1325  true */\n      0x01\n        /* \"submissions/Serena Y/Day17-SubscriptionLogicV2.sol\":1292:1305  subscriptions */\n      0x02\n        /* \"submissions/Serena Y/Day17-SubscriptionLogicV2.sol\":1292:1311  subscriptions[user] */\n      0x00\n        /* \"submissions/Serena Y/Day17-SubscriptionLogicV2.sol\":1306:1310  user */\n      dup4\n        /* \"submissions/Serena Y/Day17-SubscriptionLogicV2.sol\":1292:1311  subscriptions[user] */\n      0xffffffffffffffffffffffffffffffffffffffff\n      and\n      0xffffffffffffffffffffffffffffffffffffffff\n      and\n      dup2\n      mstore\n      0x20\n      add\n      swap1\n      dup2\n      mstore\n      0x20\n      add\n      0x00\n      keccak256\n        /* \"submissions/Serena Y/Day17-SubscriptionLogicV2.sol\":1292:1318  subscriptions[user].paused */\n      0x02\n      add\n      0x00\n        /* \"submissions/Serena Y/Day17-SubscriptionLogicV2.sol\":1292:1325  subscriptions[user].paused = true */\n      0x0100\n      exp\n      dup2\n      sload\n      dup2\n      0xff\n      mul\n      not\n      and\n      swap1\n      dup4\n      iszero\n      iszero\n      mul\n      or\n      swap1\n      sstore\n      pop\n        /* \"submissions/Serena Y/Day17-SubscriptionLogicV2.sol\":1055:1387  function pause(address user) external  {... */\n      pop\n      jump\t// out\n        /* \"submissions/Serena Y/Day17-SubscriptionStorageLayout.sol\":652:695  mapping(uint8=>uint256) public planDuration */\n    tag_25:\n      mstore(0x20, 0x04)\n      dup1\n      0x00\n      mstore\n      keccak256(0x00, 0x40)\n      0x00\n      swap2\n      pop\n      swap1\n      pop\n      sload\n      dup2\n      jump\t// out\n        /* \"submissions/Serena Y/Day17-SubscriptionStorageLayout.sol\":328:348  address public owner */\n    tag_30:\n      0x01\n      0x00\n      swap1\n      sload\n      swap1\n      0x0100\n      exp\n      swap1\n      div\n      0xffffffffffffffffffffffffffffffffffffffff\n      and\n      dup2\n      jump\t// out\n        /* \"submissions/Serena Y/Day17-SubscriptionLogicV2.sol\":856:1047  function isActive(address user) external view override returns (bool) {... */\n    tag_36:\n        /* \"submissions/Serena Y/Day17-SubscriptionLogicV2.sol\":920:924  bool */\n      0x00\n        /* \"submissions/Serena Y/Day17-SubscriptionLogicV2.sol\":937:958  Subscription memory s */\n      0x00\n        /* \"submissions/Serena Y/Day17-SubscriptionLogicV2.sol\":961:974  subscriptions */\n      0x02\n        /* \"submissions/Serena Y/Day17-SubscriptionLogicV2.sol\":961:980  subscriptions[user] */\n      0x00\n        /* \"submissions/Serena Y/Day17-SubscriptionLogicV2.sol\":975:979  user */\n      dup5\n        /* \"submissions/Serena Y/Day17-SubscriptionLogicV2.sol\":961:980  subscriptions[user] */\n      0xffffffffffffffffffffffffffffffffffffffff\n      and\n      0xffffffffffffffffffffffffffffffffffffffff\n      and\n      dup2\n      mstore\n      0x20\n      add\n      swap1\n      dup2\n      mstore\n      0x20\n      add\n      0x00\n      keccak256\n        /* \"submissions/Serena Y/Day17-SubscriptionLogicV2.sol\":937:980  Subscription memory s = subscriptions[user] */\n      mload(0x40)\n      dup1\n      0x60\n      add\n      0x40\n      mstore\n      swap1\n      dup2\n      0x00\n      dup3\n      add\n      0x00\n      swap1\n      sload\n      swap1\n      0x0100\n      exp\n      swap1\n      div\n      0xff\n      and\n      0xff\n      and\n      0xff\n      and\n      dup2\n      mstore\n      0x20\n      add\n      0x01\n      dup3\n      add\n      sload\n      dup2\n      mstore\n      0x20\n      add\n      0x02\n      dup3\n      add\n      0x00\n      swap1\n      sload\n      swap1\n      0x0100\n      exp\n      swap1\n      div\n      0xff\n      and\n      iszero\n      iszero\n      iszero\n      iszero\n      dup2\n      mstore\n      pop\n      pop\n      swap1\n      pop\n        /* \"submissions/Serena Y/Day17-SubscriptionLogicV2.sol\":1017:1018  s */\n      dup1\n        /* \"submissions/Serena Y/Day17-SubscriptionLogicV2.sol\":1017:1025  s.expiry */\n      0x20\n      add\n      mload\n        /* \"submissions/Serena Y/Day17-SubscriptionLogicV2.sol\":999:1014  block.timestamp */\n      timestamp\n        /* \"submissions/Serena Y/Day17-SubscriptionLogicV2.sol\":999:1025  block.timestamp < s.expiry */\n      lt\n        /* \"submissions/Serena Y/Day17-SubscriptionLogicV2.sol\":999:1038  block.timestamp < s.expiry && !s.paused */\n      dup1\n      iszero\n      tag_80\n      jumpi\n      pop\n        /* \"submissions/Serena Y/Day17-SubscriptionLogicV2.sol\":1030:1031  s */\n      dup1\n        /* \"submissions/Serena Y/Day17-SubscriptionLogicV2.sol\":1030:1038  s.paused */\n      0x40\n      add\n      mload\n        /* \"submissions/Serena Y/Day17-SubscriptionLogicV2.sol\":1029:1038  !s.paused */\n      iszero\n        /* \"submissions/Serena Y/Day17-SubscriptionLogicV2.sol\":999:1038  block.timestamp < s.expiry && !s.paused */\n    tag_80:\n        /* \"submissions/Serena Y/Day17-SubscriptionLogicV2.sol\":991:1039  return (block.timestamp < s.expiry && !s.paused) */\n      swap2\n      pop\n      pop\n        /* \"submissions/Serena Y/Day17-SubscriptionLogicV2.sol\":856:1047  function isActive(address user) external view override returns (bool) {... */\n      swap2\n      swap1\n      pop\n      jump\t// out\n        /* \"submissions/Serena Y/Day17-SubscriptionStorageLayout.sol\":576:617  mapping(uint8=>uint256) public planPrices */\n    tag_42:\n      mstore(0x20, 0x03)\n      dup1\n      0x00\n      mstore\n      keccak256(0x00, 0x40)\n      0x00\n      swap2\n      pop\n      swap1\n      pop\n      sload\n      dup2\n      jump\t// out\n        /* \"submissions/Serena Y/Day17-SubscriptionStorageLayout.sol\":297:325  address public logicContract */\n    tag_46:\n      0x00\n      0x00\n      swap1\n      sload\n      swap1\n      0x0100\n      exp\n      swap1\n      div\n      0xffffffffffffffffffffffffffffffffffffffff\n      and\n      dup2\n      jump\t// out\n        /* \"submissions/Serena Y/Day17-SubscriptionLogicV2.sol\":167:337  function addPlan(uint8 planId, uint256 price, uint256 duration) external override  {... */\n    tag_52:\n        /* \"submissions/Serena Y/Day17-SubscriptionLogicV2.sol\":282:287  price */\n      dup2\n        /* \"submissions/Serena Y/Day17-SubscriptionLogicV2.sol\":261:271  planPrices */\n      0x03\n        /* \"submissions/Serena Y/Day17-SubscriptionLogicV2.sol\":261:279  planPrices[planId] */\n      0x00\n        /* \"submissions/Serena Y/Day17-SubscriptionLogicV2.sol\":272:278  planId */\n      dup6\n        /* \"submissions/Serena Y/Day17-SubscriptionLogicV2.sol\":261:279  planPrices[planId] */\n      0xff\n      and\n      0xff\n      and\n      dup2\n      mstore\n      0x20\n      add\n      swap1\n      dup2\n      mstore\n      0x20\n      add\n      0x00\n      keccak256\n        /* \"submissions/Serena Y/Day17-SubscriptionLogicV2.sol\":261:287  planPrices[planId] = price */\n      dup2\n      swap1\n      sstore\n      pop\n        /* \"submissions/Serena Y/Day17-SubscriptionLogicV2.sol\":321:329  duration */\n      dup1\n        /* \"submissions/Serena Y/Day17-SubscriptionLogicV2.sol\":298:310  planDuration */\n      0x04\n        /* \"submissions/Serena Y/Day17-SubscriptionLogicV2.sol\":298:318  planDuration[planId] */\n      0x00\n        /* \"submissions/Serena Y/Day17-SubscriptionLogicV2.sol\":311:317  planId */\n      dup6\n        /* \"submissions/Serena Y/Day17-SubscriptionLogicV2.sol\":298:318  planDuration[planId] */\n      0xff\n      and\n      0xff\n      and\n      dup2\n      mstore\n      0x20\n      add\n      swap1\n      dup2\n      mstore\n      0x20\n      add\n      0x00\n      keccak256\n        /* \"submissions/Serena Y/Day17-SubscriptionLogicV2.sol\":298:329  planDuration[planId] = duration */\n      dup2\n      swap1\n      sstore\n      pop\n        /* \"submissions/Serena Y/Day17-SubscriptionLogicV2.sol\":167:337  function addPlan(uint8 planId, uint256 price, uint256 duration) external override  {... */\n      pop\n      pop\n      pop\n      jump\t// out\n        /* \"submissions/Serena Y/Day17-SubscriptionStorageLayout.sol\":502:553  mapping(address=>Subscription) public subscriptions */\n    tag_56:\n      mstore(0x20, 0x02)\n      dup1\n      0x00\n      mstore\n      keccak256(0x00, 0x40)\n      0x00\n      swap2\n      pop\n      swap1\n      pop\n      dup1\n      0x00\n      add\n      0x00\n      swap1\n      sload\n      swap1\n      0x0100\n      exp\n      swap1\n      div\n      0xff\n      and\n      swap1\n      dup1\n      0x01\n      add\n      sload\n      swap1\n      dup1\n      0x02\n      add\n      0x00\n      swap1\n      sload\n      swap1\n      0x0100\n      exp\n      swap1\n      div\n      0xff\n      and\n      swap1\n      pop\n      dup4\n      jump\t// out\n        /* \"submissions/Serena Y/Day17-SubscriptionLogicV2.sol\":1395:1544  function resumeAccount(address user) external{... */\n    tag_62:\n        /* \"submissions/Serena Y/Day17-SubscriptionLogicV2.sol\":1471:1475  user */\n      dup1\n        /* \"submissions/Serena Y/Day17-SubscriptionLogicV2.sol\":1459:1475  msg.sender==user */\n      0xffffffffffffffffffffffffffffffffffffffff\n      and\n        /* \"submissions/Serena Y/Day17-SubscriptionLogicV2.sol\":1459:1469  msg.sender */\n      caller\n        /* \"submissions/Serena Y/Day17-SubscriptionLogicV2.sol\":1459:1475  msg.sender==user */\n      0xffffffffffffffffffffffffffffffffffffffff\n      and\n      eq\n        /* \"submissions/Serena Y/Day17-SubscriptionLogicV2.sol\":1451:1493  require(msg.sender==user,\"Not authorized\") */\n      tag_83\n      jumpi\n      mload(0x40)\n      0x08c379a000000000000000000000000000000000000000000000000000000000\n      dup2\n      mstore\n      0x04\n      add\n      tag_84\n      swap1\n      tag_78\n      jump\t// in\n    tag_84:\n      mload(0x40)\n      dup1\n      swap2\n      sub\n      swap1\n      revert\n    tag_83:\n        /* \"submissions/Serena Y/Day17-SubscriptionLogicV2.sol\":1531:1536  false */\n      0x00\n        /* \"submissions/Serena Y/Day17-SubscriptionLogicV2.sol\":1504:1517  subscriptions */\n      0x02\n        /* \"submissions/Serena Y/Day17-SubscriptionLogicV2.sol\":1504:1523  subscriptions[user] */\n      0x00\n        /* \"submissions/Serena Y/Day17-SubscriptionLogicV2.sol\":1518:1522  user */\n      dup4\n        /* \"submissions/Serena Y/Day17-SubscriptionLogicV2.sol\":1504:1523  subscriptions[user] */\n      0xffffffffffffffffffffffffffffffffffffffff\n      and\n      0xffffffffffffffffffffffffffffffffffffffff\n      and\n      dup2\n      mstore\n      0x20\n      add\n      swap1\n      dup2\n      mstore\n      0x20\n      add\n      0x00\n      keccak256\n        /* \"submissions/Serena Y/Day17-SubscriptionLogicV2.sol\":1504:1530  subscriptions[user].paused */\n      0x02\n      add\n      0x00\n        /* \"submissions/Serena Y/Day17-SubscriptionLogicV2.sol\":1504:1536  subscriptions[user].paused=false */\n      0x0100\n      exp\n      dup2\n      sload\n      dup2\n      0xff\n      mul\n      not\n      and\n      swap1\n      dup4\n      iszero\n      iszero\n      mul\n      or\n      swap1\n      sstore\n      pop\n        /* \"submissions/Serena Y/Day17-SubscriptionLogicV2.sol\":1395:1544  function resumeAccount(address user) external{... */\n      pop\n      jump\t// out\n        /* \"#utility.yul\":88:205   */\n    tag_86:\n        /* \"#utility.yul\":197:198   */\n      0x00\n        /* \"#utility.yul\":194:195   */\n      0x00\n        /* \"#utility.yul\":187:199   */\n      revert\n        /* \"#utility.yul\":334:420   */\n    tag_88:\n        /* \"#utility.yul\":369:376   */\n      0x00\n        /* \"#utility.yul\":409:413   */\n      0xff\n        /* \"#utility.yul\":402:407   */\n      dup3\n        /* \"#utility.yul\":398:414   */\n      and\n        /* \"#utility.yul\":387:414   */\n      swap1\n      pop\n        /* \"#utility.yul\":334:420   */\n      swap2\n      swap1\n      pop\n      jump\t// out\n        /* \"#utility.yul\":426:544   */\n    tag_89:\n        /* \"#utility.yul\":497:519   */\n      tag_117\n        /* \"#utility.yul\":513:518   */\n      dup2\n        /* \"#utility.yul\":497:519   */\n      tag_88\n      jump\t// in\n    tag_117:\n        /* \"#utility.yul\":490:495   */\n      dup2\n        /* \"#utility.yul\":487:520   */\n      eq\n        /* \"#utility.yul\":477:538   */\n      tag_118\n      jumpi\n        /* \"#utility.yul\":534:535   */\n      0x00\n        /* \"#utility.yul\":531:532   */\n      0x00\n        /* \"#utility.yul\":524:536   */\n      revert\n        /* \"#utility.yul\":477:538   */\n    tag_118:\n        /* \"#utility.yul\":426:544   */\n      pop\n      jump\t// out\n        /* \"#utility.yul\":550:685   */\n    tag_90:\n        /* \"#utility.yul\":594:599   */\n      0x00\n        /* \"#utility.yul\":632:638   */\n      dup2\n        /* \"#utility.yul\":619:639   */\n      calldataload\n        /* \"#utility.yul\":610:639   */\n      swap1\n      pop\n        /* \"#utility.yul\":648:679   */\n      tag_120\n        /* \"#utility.yul\":673:678   */\n      dup2\n        /* \"#utility.yul\":648:679   */\n      tag_89\n      jump\t// in\n    tag_120:\n        /* \"#utility.yul\":550:685   */\n      swap3\n      swap2\n      pop\n      pop\n      jump\t// out\n        /* \"#utility.yul\":691:1016   */\n    tag_15:\n        /* \"#utility.yul\":748:754   */\n      0x00\n        /* \"#utility.yul\":797:799   */\n      0x20\n        /* \"#utility.yul\":785:794   */\n      dup3\n        /* \"#utility.yul\":776:783   */\n      dup5\n        /* \"#utility.yul\":772:795   */\n      sub\n        /* \"#utility.yul\":768:800   */\n      slt\n        /* \"#utility.yul\":765:884   */\n      iszero\n      tag_122\n      jumpi\n        /* \"#utility.yul\":803:882   */\n      tag_123\n      tag_86\n      jump\t// in\n    tag_123:\n        /* \"#utility.yul\":765:884   */\n    tag_122:\n        /* \"#utility.yul\":923:924   */\n      0x00\n        /* \"#utility.yul\":948:999   */\n      tag_124\n        /* \"#utility.yul\":991:998   */\n      dup5\n        /* \"#utility.yul\":982:988   */\n      dup3\n        /* \"#utility.yul\":971:980   */\n      dup6\n        /* \"#utility.yul\":967:989   */\n      add\n        /* \"#utility.yul\":948:999   */\n      tag_90\n      jump\t// in\n    tag_124:\n        /* \"#utility.yul\":938:999   */\n      swap2\n      pop\n        /* \"#utility.yul\":894:1009   */\n      pop\n        /* \"#utility.yul\":691:1016   */\n      swap3\n      swap2\n      pop\n      pop\n      jump\t// out\n        /* \"#utility.yul\":1022:1148   */\n    tag_91:\n        /* \"#utility.yul\":1059:1066   */\n      0x00\n        /* \"#utility.yul\":1099:1141   */\n      0xffffffffffffffffffffffffffffffffffffffff\n        /* \"#utility.yul\":1092:1097   */\n      dup3\n        /* \"#utility.yul\":1088:1142   */\n      and\n        /* \"#utility.yul\":1077:1142   */\n      swap1\n      pop\n        /* \"#utility.yul\":1022:1148   */\n      swap2\n      swap1\n      pop\n      jump\t// out\n        /* \"#utility.yul\":1154:1250   */\n    tag_92:\n        /* \"#utility.yul\":1191:1198   */\n      0x00\n        /* \"#utility.yul\":1220:1244   */\n      tag_127\n        /* \"#utility.yul\":1238:1243   */\n      dup3\n        /* \"#utility.yul\":1220:1244   */\n      tag_91\n      jump\t// in\n    tag_127:\n        /* \"#utility.yul\":1209:1244   */\n      swap1\n      pop\n        /* \"#utility.yul\":1154:1250   */\n      swap2\n      swap1\n      pop\n      jump\t// out\n        /* \"#utility.yul\":1256:1378   */\n    tag_93:\n        /* \"#utility.yul\":1329:1353   */\n      tag_129\n        /* \"#utility.yul\":1347:1352   */\n      dup2\n        /* \"#utility.yul\":1329:1353   */\n      tag_92\n      jump\t// in\n    tag_129:\n        /* \"#utility.yul\":1322:1327   */\n      dup2\n        /* \"#utility.yul\":1319:1354   */\n      eq\n        /* \"#utility.yul\":1309:1372   */\n      tag_130\n      jumpi\n        /* \"#utility.yul\":1368:1369   */\n      0x00\n        /* \"#utility.yul\":1365:1366   */\n      0x00\n        /* \"#utility.yul\":1358:1370   */\n      revert\n        /* \"#utility.yul\":1309:1372   */\n    tag_130:\n        /* \"#utility.yul\":1256:1378   */\n      pop\n      jump\t// out\n        /* \"#utility.yul\":1384:1523   */\n    tag_94:\n        /* \"#utility.yul\":1430:1435   */\n      0x00\n        /* \"#utility.yul\":1468:1474   */\n      dup2\n        /* \"#utility.yul\":1455:1475   */\n      calldataload\n        /* \"#utility.yul\":1446:1475   */\n      swap1\n      pop\n        /* \"#utility.yul\":1484:1517   */\n      tag_132\n        /* \"#utility.yul\":1511:1516   */\n      dup2\n        /* \"#utility.yul\":1484:1517   */\n      tag_93\n      jump\t// in\n    tag_132:\n        /* \"#utility.yul\":1384:1523   */\n      swap3\n      swap2\n      pop\n      pop\n      jump\t// out\n        /* \"#utility.yul\":1529:1858   */\n    tag_20:\n        /* \"#utility.yul\":1588:1594   */\n      0x00\n        /* \"#utility.yul\":1637:1639   */\n      0x20\n        /* \"#utility.yul\":1625:1634   */\n      dup3\n        /* \"#utility.yul\":1616:1623   */\n      dup5\n        /* \"#utility.yul\":1612:1635   */\n      sub\n        /* \"#utility.yul\":1608:1640   */\n      slt\n        /* \"#utility.yul\":1605:1724   */\n      iszero\n      tag_134\n      jumpi\n        /* \"#utility.yul\":1643:1722   */\n      tag_135\n      tag_86\n      jump\t// in\n    tag_135:\n        /* \"#utility.yul\":1605:1724   */\n    tag_134:\n        /* \"#utility.yul\":1763:1764   */\n      0x00\n        /* \"#utility.yul\":1788:1841   */\n      tag_136\n        /* \"#utility.yul\":1833:1840   */\n      dup5\n        /* \"#utility.yul\":1824:1830   */\n      dup3\n        /* \"#utility.yul\":1813:1822   */\n      dup6\n        /* \"#utility.yul\":1809:1831   */\n      add\n        /* \"#utility.yul\":1788:1841   */\n      tag_94\n      jump\t// in\n    tag_136:\n        /* \"#utility.yul\":1778:1841   */\n      swap2\n      pop\n        /* \"#utility.yul\":1734:1851   */\n      pop\n        /* \"#utility.yul\":1529:1858   */\n      swap3\n      swap2\n      pop\n      pop\n      jump\t// out\n        /* \"#utility.yul\":1864:1941   */\n    tag_95:\n        /* \"#utility.yul\":1901:1908   */\n      0x00\n        /* \"#utility.yul\":1930:1935   */\n      dup2\n        /* \"#utility.yul\":1919:1935   */\n      swap1\n      pop\n        /* \"#utility.yul\":1864:1941   */\n      swap2\n      swap1\n      pop\n      jump\t// out\n        /* \"#utility.yul\":1947:2065   */\n    tag_96:\n        /* \"#utility.yul\":2034:2058   */\n      tag_139\n        /* \"#utility.yul\":2052:2057   */\n      dup2\n        /* \"#utility.yul\":2034:2058   */\n      tag_95\n      jump\t// in\n    tag_139:\n        /* \"#utility.yul\":2029:2032   */\n      dup3\n        /* \"#utility.yul\":2022:2059   */\n      mstore\n        /* \"#utility.yul\":1947:2065   */\n      pop\n      pop\n      jump\t// out\n        /* \"#utility.yul\":2071:2293   */\n    tag_27:\n        /* \"#utility.yul\":2164:2168   */\n      0x00\n        /* \"#utility.yul\":2202:2204   */\n      0x20\n        /* \"#utility.yul\":2191:2200   */\n      dup3\n        /* \"#utility.yul\":2187:2205   */\n      add\n        /* \"#utility.yul\":2179:2205   */\n      swap1\n      pop\n        /* \"#utility.yul\":2215:2286   */\n      tag_141\n        /* \"#utility.yul\":2283:2284   */\n      0x00\n        /* \"#utility.yul\":2272:2281   */\n      dup4\n        /* \"#utility.yul\":2268:2285   */\n      add\n        /* \"#utility.yul\":2259:2265   */\n      dup5\n        /* \"#utility.yul\":2215:2286   */\n      tag_96\n      jump\t// in\n    tag_141:\n        /* \"#utility.yul\":2071:2293   */\n      swap3\n      swap2\n      pop\n      pop\n      jump\t// out\n        /* \"#utility.yul\":2299:2417   */\n    tag_97:\n        /* \"#utility.yul\":2386:2410   */\n      tag_143\n        /* \"#utility.yul\":2404:2409   */\n      dup2\n        /* \"#utility.yul\":2386:2410   */\n      tag_92\n      jump\t// in\n    tag_143:\n        /* \"#utility.yul\":2381:2384   */\n      dup3\n        /* \"#utility.yul\":2374:2411   */\n      mstore\n        /* \"#utility.yul\":2299:2417   */\n      pop\n      pop\n      jump\t// out\n        /* \"#utility.yul\":2423:2645   */\n    tag_32:\n        /* \"#utility.yul\":2516:2520   */\n      0x00\n        /* \"#utility.yul\":2554:2556   */\n      0x20\n        /* \"#utility.yul\":2543:2552   */\n      dup3\n        /* \"#utility.yul\":2539:2557   */\n      add\n        /* \"#utility.yul\":2531:2557   */\n      swap1\n      pop\n        /* \"#utility.yul\":2567:2638   */\n      tag_145\n        /* \"#utility.yul\":2635:2636   */\n      0x00\n        /* \"#utility.yul\":2624:2633   */\n      dup4\n        /* \"#utility.yul\":2620:2637   */\n      add\n        /* \"#utility.yul\":2611:2617   */\n      dup5\n        /* \"#utility.yul\":2567:2638   */\n      tag_97\n      jump\t// in\n    tag_145:\n        /* \"#utility.yul\":2423:2645   */\n      swap3\n      swap2\n      pop\n      pop\n      jump\t// out\n        /* \"#utility.yul\":2651:2741   */\n    tag_98:\n        /* \"#utility.yul\":2685:2692   */\n      0x00\n        /* \"#utility.yul\":2728:2733   */\n      dup2\n        /* \"#utility.yul\":2721:2734   */\n      iszero\n        /* \"#utility.yul\":2714:2735   */\n      iszero\n        /* \"#utility.yul\":2703:2735   */\n      swap1\n      pop\n        /* \"#utility.yul\":2651:2741   */\n      swap2\n      swap1\n      pop\n      jump\t// out\n        /* \"#utility.yul\":2747:2856   */\n    tag_99:\n        /* \"#utility.yul\":2828:2849   */\n      tag_148\n        /* \"#utility.yul\":2843:2848   */\n      dup2\n        /* \"#utility.yul\":2828:2849   */\n      tag_98\n      jump\t// in\n    tag_148:\n        /* \"#utility.yul\":2823:2826   */\n      dup3\n        /* \"#utility.yul\":2816:2850   */\n      mstore\n        /* \"#utility.yul\":2747:2856   */\n      pop\n      pop\n      jump\t// out\n        /* \"#utility.yul\":2862:3072   */\n    tag_38:\n        /* \"#utility.yul\":2949:2953   */\n      0x00\n        /* \"#utility.yul\":2987:2989   */\n      0x20\n        /* \"#utility.yul\":2976:2985   */\n      dup3\n        /* \"#utility.yul\":2972:2990   */\n      add\n        /* \"#utility.yul\":2964:2990   */\n      swap1\n      pop\n        /* \"#utility.yul\":3000:3065   */\n      tag_150\n        /* \"#utility.yul\":3062:3063   */\n      0x00\n        /* \"#utility.yul\":3051:3060   */\n      dup4\n        /* \"#utility.yul\":3047:3064   */\n      add\n        /* \"#utility.yul\":3038:3044   */\n      dup5\n        /* \"#utility.yul\":3000:3065   */\n      tag_99\n      jump\t// in\n    tag_150:\n        /* \"#utility.yul\":2862:3072   */\n      swap3\n      swap2\n      pop\n      pop\n      jump\t// out\n        /* \"#utility.yul\":3078:3200   */\n    tag_100:\n        /* \"#utility.yul\":3151:3175   */\n      tag_152\n        /* \"#utility.yul\":3169:3174   */\n      dup2\n        /* \"#utility.yul\":3151:3175   */\n      tag_95\n      jump\t// in\n    tag_152:\n        /* \"#utility.yul\":3144:3149   */\n      dup2\n        /* \"#utility.yul\":3141:3176   */\n      eq\n        /* \"#utility.yul\":3131:3194   */\n      tag_153\n      jumpi\n        /* \"#utility.yul\":3190:3191   */\n      0x00\n        /* \"#utility.yul\":3187:3188   */\n      0x00\n        /* \"#utility.yul\":3180:3192   */\n      revert\n        /* \"#utility.yul\":3131:3194   */\n    tag_153:\n        /* \"#utility.yul\":3078:3200   */\n      pop\n      jump\t// out\n        /* \"#utility.yul\":3206:3345   */\n    tag_101:\n        /* \"#utility.yul\":3252:3257   */\n      0x00\n        /* \"#utility.yul\":3290:3296   */\n      dup2\n        /* \"#utility.yul\":3277:3297   */\n      calldataload\n        /* \"#utility.yul\":3268:3297   */\n      swap1\n      pop\n        /* \"#utility.yul\":3306:3339   */\n      tag_155\n        /* \"#utility.yul\":3333:3338   */\n      dup2\n        /* \"#utility.yul\":3306:3339   */\n      tag_100\n      jump\t// in\n    tag_155:\n        /* \"#utility.yul\":3206:3345   */\n      swap3\n      swap2\n      pop\n      pop\n      jump\t// out\n        /* \"#utility.yul\":3351:3966   */\n    tag_51:\n        /* \"#utility.yul\":3426:3432   */\n      0x00\n        /* \"#utility.yul\":3434:3440   */\n      0x00\n        /* \"#utility.yul\":3442:3448   */\n      0x00\n        /* \"#utility.yul\":3491:3493   */\n      0x60\n        /* \"#utility.yul\":3479:3488   */\n      dup5\n        /* \"#utility.yul\":3470:3477   */\n      dup7\n        /* \"#utility.yul\":3466:3489   */\n      sub\n        /* \"#utility.yul\":3462:3494   */\n      slt\n        /* \"#utility.yul\":3459:3578   */\n      iszero\n      tag_157\n      jumpi\n        /* \"#utility.yul\":3497:3576   */\n      tag_158\n      tag_86\n      jump\t// in\n    tag_158:\n        /* \"#utility.yul\":3459:3578   */\n    tag_157:\n        /* \"#utility.yul\":3617:3618   */\n      0x00\n        /* \"#utility.yul\":3642:3693   */\n      tag_159\n        /* \"#utility.yul\":3685:3692   */\n      dup7\n        /* \"#utility.yul\":3676:3682   */\n      dup3\n        /* \"#utility.yul\":3665:3674   */\n      dup8\n        /* \"#utility.yul\":3661:3683   */\n      add\n        /* \"#utility.yul\":3642:3693   */\n      tag_90\n      jump\t// in\n    tag_159:\n        /* \"#utility.yul\":3632:3693   */\n      swap4\n      pop\n        /* \"#utility.yul\":3588:3703   */\n      pop\n        /* \"#utility.yul\":3742:3744   */\n      0x20\n        /* \"#utility.yul\":3768:3821   */\n      tag_160\n        /* \"#utility.yul\":3813:3820   */\n      dup7\n        /* \"#utility.yul\":3804:3810   */\n      dup3\n        /* \"#utility.yul\":3793:3802   */\n      dup8\n        /* \"#utility.yul\":3789:3811   */\n      add\n        /* \"#utility.yul\":3768:3821   */\n      tag_101\n      jump\t// in\n    tag_160:\n        /* \"#utility.yul\":3758:3821   */\n      swap3\n      pop\n        /* \"#utility.yul\":3713:3831   */\n      pop\n        /* \"#utility.yul\":3870:3872   */\n      0x40\n        /* \"#utility.yul\":3896:3949   */\n      tag_161\n        /* \"#utility.yul\":3941:3948   */\n      dup7\n        /* \"#utility.yul\":3932:3938   */\n      dup3\n        /* \"#utility.yul\":3921:3930   */\n      dup8\n        /* \"#utility.yul\":3917:3939   */\n      add\n        /* \"#utility.yul\":3896:3949   */\n      tag_101\n      jump\t// in\n    tag_161:\n        /* \"#utility.yul\":3886:3949   */\n      swap2\n      pop\n        /* \"#utility.yul\":3841:3959   */\n      pop\n        /* \"#utility.yul\":3351:3966   */\n      swap3\n      pop\n      swap3\n      pop\n      swap3\n      jump\t// out\n        /* \"#utility.yul\":3972:4084   */\n    tag_102:\n        /* \"#utility.yul\":4055:4077   */\n      tag_163\n        /* \"#utility.yul\":4071:4076   */\n      dup2\n        /* \"#utility.yul\":4055:4077   */\n      tag_88\n      jump\t// in\n    tag_163:\n        /* \"#utility.yul\":4050:4053   */\n      dup3\n        /* \"#utility.yul\":4043:4078   */\n      mstore\n        /* \"#utility.yul\":3972:4084   */\n      pop\n      pop\n      jump\t// out\n        /* \"#utility.yul\":4090:4512   */\n    tag_58:\n        /* \"#utility.yul\":4229:4233   */\n      0x00\n        /* \"#utility.yul\":4267:4269   */\n      0x60\n        /* \"#utility.yul\":4256:4265   */\n      dup3\n        /* \"#utility.yul\":4252:4270   */\n      add\n        /* \"#utility.yul\":4244:4270   */\n      swap1\n      pop\n        /* \"#utility.yul\":4280:4347   */\n      tag_165\n        /* \"#utility.yul\":4344:4345   */\n      0x00\n        /* \"#utility.yul\":4333:4342   */\n      dup4\n        /* \"#utility.yul\":4329:4346   */\n      add\n        /* \"#utility.yul\":4320:4326   */\n      dup7\n        /* \"#utility.yul\":4280:4347   */\n      tag_102\n      jump\t// in\n    tag_165:\n        /* \"#utility.yul\":4357:4429   */\n      tag_166\n        /* \"#utility.yul\":4425:4427   */\n      0x20\n        /* \"#utility.yul\":4414:4423   */\n      dup4\n        /* \"#utility.yul\":4410:4428   */\n      add\n        /* \"#utility.yul\":4401:4407   */\n      dup6\n        /* \"#utility.yul\":4357:4429   */\n      tag_96\n      jump\t// in\n    tag_166:\n        /* \"#utility.yul\":4439:4505   */\n      tag_167\n        /* \"#utility.yul\":4501:4503   */\n      0x40\n        /* \"#utility.yul\":4490:4499   */\n      dup4\n        /* \"#utility.yul\":4486:4504   */\n      add\n        /* \"#utility.yul\":4477:4483   */\n      dup5\n        /* \"#utility.yul\":4439:4505   */\n      tag_99\n      jump\t// in\n    tag_167:\n        /* \"#utility.yul\":4090:4512   */\n      swap5\n      swap4\n      pop\n      pop\n      pop\n      pop\n      jump\t// out\n        /* \"#utility.yul\":4518:4687   */\n    tag_103:\n        /* \"#utility.yul\":4602:4613   */\n      0x00\n        /* \"#utility.yul\":4636:4642   */\n      dup3\n        /* \"#utility.yul\":4631:4634   */\n      dup3\n        /* \"#utility.yul\":4624:4643   */\n      mstore\n        /* \"#utility.yul\":4676:4680   */\n      0x20\n        /* \"#utility.yul\":4671:4674   */\n      dup3\n        /* \"#utility.yul\":4667:4681   */\n      add\n        /* \"#utility.yul\":4652:4681   */\n      swap1\n      pop\n        /* \"#utility.yul\":4518:4687   */\n      swap3\n      swap2\n      pop\n      pop\n      jump\t// out\n        /* \"#utility.yul\":4693:4855   */\n    tag_104:\n        /* \"#utility.yul\":4833:4847   */\n      0x496e76616c696420706c616e0000000000000000000000000000000000000000\n        /* \"#utility.yul\":4829:4830   */\n      0x00\n        /* \"#utility.yul\":4821:4827   */\n      dup3\n        /* \"#utility.yul\":4817:4831   */\n      add\n        /* \"#utility.yul\":4810:4848   */\n      mstore\n        /* \"#utility.yul\":4693:4855   */\n      pop\n      jump\t// out\n        /* \"#utility.yul\":4861:5227   */\n    tag_105:\n        /* \"#utility.yul\":5003:5006   */\n      0x00\n        /* \"#utility.yul\":5024:5091   */\n      tag_171\n        /* \"#utility.yul\":5088:5090   */\n      0x0c\n        /* \"#utility.yul\":5083:5086   */\n      dup4\n        /* \"#utility.yul\":5024:5091   */\n      tag_103\n      jump\t// in\n    tag_171:\n        /* \"#utility.yul\":5017:5091   */\n      swap2\n      pop\n        /* \"#utility.yul\":5100:5193   */\n      tag_172\n        /* \"#utility.yul\":5189:5192   */\n      dup3\n        /* \"#utility.yul\":5100:5193   */\n      tag_104\n      jump\t// in\n    tag_172:\n        /* \"#utility.yul\":5218:5220   */\n      0x20\n        /* \"#utility.yul\":5213:5216   */\n      dup3\n        /* \"#utility.yul\":5209:5221   */\n      add\n        /* \"#utility.yul\":5202:5221   */\n      swap1\n      pop\n        /* \"#utility.yul\":4861:5227   */\n      swap2\n      swap1\n      pop\n      jump\t// out\n        /* \"#utility.yul\":5233:5652   */\n    tag_66:\n        /* \"#utility.yul\":5399:5403   */\n      0x00\n        /* \"#utility.yul\":5437:5439   */\n      0x20\n        /* \"#utility.yul\":5426:5435   */\n      dup3\n        /* \"#utility.yul\":5422:5440   */\n      add\n        /* \"#utility.yul\":5414:5440   */\n      swap1\n      pop\n        /* \"#utility.yul\":5486:5495   */\n      dup2\n        /* \"#utility.yul\":5480:5484   */\n      dup2\n        /* \"#utility.yul\":5476:5496   */\n      sub\n        /* \"#utility.yul\":5472:5473   */\n      0x00\n        /* \"#utility.yul\":5461:5470   */\n      dup4\n        /* \"#utility.yul\":5457:5474   */\n      add\n        /* \"#utility.yul\":5450:5497   */\n      mstore\n        /* \"#utility.yul\":5514:5645   */\n      tag_174\n        /* \"#utility.yul\":5640:5644   */\n      dup2\n        /* \"#utility.yul\":5514:5645   */\n      tag_105\n      jump\t// in\n    tag_174:\n        /* \"#utility.yul\":5506:5645   */\n      swap1\n      pop\n        /* \"#utility.yul\":5233:5652   */\n      swap2\n      swap1\n      pop\n      jump\t// out\n        /* \"#utility.yul\":5658:5828   */\n    tag_106:\n        /* \"#utility.yul\":5798:5820   */\n      0x496e73756666696369656e74207061796d656e74000000000000000000000000\n        /* \"#utility.yul\":5794:5795   */\n      0x00\n        /* \"#utility.yul\":5786:5792   */\n      dup3\n        /* \"#utility.yul\":5782:5796   */\n      add\n        /* \"#utility.yul\":5775:5821   */\n      mstore\n        /* \"#utility.yul\":5658:5828   */\n      pop\n      jump\t// out\n        /* \"#utility.yul\":5834:6200   */\n    tag_107:\n        /* \"#utility.yul\":5976:5979   */\n      0x00\n        /* \"#utility.yul\":5997:6064   */\n      tag_177\n        /* \"#utility.yul\":6061:6063   */\n      0x14\n        /* \"#utility.yul\":6056:6059   */\n      dup4\n        /* \"#utility.yul\":5997:6064   */\n      tag_103\n      jump\t// in\n    tag_177:\n        /* \"#utility.yul\":5990:6064   */\n      swap2\n      pop\n        /* \"#utility.yul\":6073:6166   */\n      tag_178\n        /* \"#utility.yul\":6162:6165   */\n      dup3\n        /* \"#utility.yul\":6073:6166   */\n      tag_106\n      jump\t// in\n    tag_178:\n        /* \"#utility.yul\":6191:6193   */\n      0x20\n        /* \"#utility.yul\":6186:6189   */\n      dup3\n        /* \"#utility.yul\":6182:6194   */\n      add\n        /* \"#utility.yul\":6175:6194   */\n      swap1\n      pop\n        /* \"#utility.yul\":5834:6200   */\n      swap2\n      swap1\n      pop\n      jump\t// out\n        /* \"#utility.yul\":6206:6625   */\n    tag_69:\n        /* \"#utility.yul\":6372:6376   */\n      0x00\n        /* \"#utility.yul\":6410:6412   */\n      0x20\n        /* \"#utility.yul\":6399:6408   */\n      dup3\n        /* \"#utility.yul\":6395:6413   */\n      add\n        /* \"#utility.yul\":6387:6413   */\n      swap1\n      pop\n        /* \"#utility.yul\":6459:6468   */\n      dup2\n        /* \"#utility.yul\":6453:6457   */\n      dup2\n        /* \"#utility.yul\":6449:6469   */\n      sub\n        /* \"#utility.yul\":6445:6446   */\n      0x00\n        /* \"#utility.yul\":6434:6443   */\n      dup4\n        /* \"#utility.yul\":6430:6447   */\n      add\n        /* \"#utility.yul\":6423:6470   */\n      mstore\n        /* \"#utility.yul\":6487:6618   */\n      tag_180\n        /* \"#utility.yul\":6613:6617   */\n      dup2\n        /* \"#utility.yul\":6487:6618   */\n      tag_107\n      jump\t// in\n    tag_180:\n        /* \"#utility.yul\":6479:6618   */\n      swap1\n      pop\n        /* \"#utility.yul\":6206:6625   */\n      swap2\n      swap1\n      pop\n      jump\t// out\n        /* \"#utility.yul\":6631:6811   */\n    tag_108:\n        /* \"#utility.yul\":6679:6756   */\n      0x4e487b7100000000000000000000000000000000000000000000000000000000\n        /* \"#utility.yul\":6676:6677   */\n      0x00\n        /* \"#utility.yul\":6669:6757   */\n      mstore\n        /* \"#utility.yul\":6776:6780   */\n      0x11\n        /* \"#utility.yul\":6773:6774   */\n      0x04\n        /* \"#utility.yul\":6766:6781   */\n      mstore\n        /* \"#utility.yul\":6800:6804   */\n      0x24\n        /* \"#utility.yul\":6797:6798   */\n      0x00\n        /* \"#utility.yul\":6790:6805   */\n      revert\n        /* \"#utility.yul\":6817:7008   */\n    tag_72:\n        /* \"#utility.yul\":6857:6860   */\n      0x00\n        /* \"#utility.yul\":6876:6896   */\n      tag_183\n        /* \"#utility.yul\":6894:6895   */\n      dup3\n        /* \"#utility.yul\":6876:6896   */\n      tag_95\n      jump\t// in\n    tag_183:\n        /* \"#utility.yul\":6871:6896   */\n      swap2\n      pop\n        /* \"#utility.yul\":6910:6930   */\n      tag_184\n        /* \"#utility.yul\":6928:6929   */\n      dup4\n        /* \"#utility.yul\":6910:6930   */\n      tag_95\n      jump\t// in\n    tag_184:\n        /* \"#utility.yul\":6905:6930   */\n      swap3\n      pop\n        /* \"#utility.yul\":6953:6954   */\n      dup3\n        /* \"#utility.yul\":6950:6951   */\n      dup3\n        /* \"#utility.yul\":6946:6955   */\n      add\n        /* \"#utility.yul\":6939:6955   */\n      swap1\n      pop\n        /* \"#utility.yul\":6974:6977   */\n      dup1\n        /* \"#utility.yul\":6971:6972   */\n      dup3\n        /* \"#utility.yul\":6968:6978   */\n      gt\n        /* \"#utility.yul\":6965:7001   */\n      iszero\n      tag_185\n      jumpi\n        /* \"#utility.yul\":6981:6999   */\n      tag_186\n      tag_108\n      jump\t// in\n    tag_186:\n        /* \"#utility.yul\":6965:7001   */\n    tag_185:\n        /* \"#utility.yul\":6817:7008   */\n      swap3\n      swap2\n      pop\n      pop\n      jump\t// out\n        /* \"#utility.yul\":7014:7178   */\n    tag_109:\n        /* \"#utility.yul\":7154:7170   */\n      0x4e6f7420617574686f72697a6564000000000000000000000000000000000000\n        /* \"#utility.yul\":7150:7151   */\n      0x00\n        /* \"#utility.yul\":7142:7148   */\n      dup3\n        /* \"#utility.yul\":7138:7152   */\n      add\n        /* \"#utility.yul\":7131:7171   */\n      mstore\n        /* \"#utility.yul\":7014:7178   */\n      pop\n      jump\t// out\n        /* \"#utility.yul\":7184:7550   */\n    tag_110:\n        /* \"#utility.yul\":7326:7329   */\n      0x00\n        /* \"#utility.yul\":7347:7414   */\n      tag_189\n        /* \"#utility.yul\":7411:7413   */\n      0x0e\n        /* \"#utility.yul\":7406:7409   */\n      dup4\n        /* \"#utility.yul\":7347:7414   */\n      tag_103\n      jump\t// in\n    tag_189:\n        /* \"#utility.yul\":7340:7414   */\n      swap2\n      pop\n        /* \"#utility.yul\":7423:7516   */\n      tag_190\n        /* \"#utility.yul\":7512:7515   */\n      dup3\n        /* \"#utility.yul\":7423:7516   */\n      tag_109\n      jump\t// in\n    tag_190:\n        /* \"#utility.yul\":7541:7543   */\n      0x20\n        /* \"#utility.yul\":7536:7539   */\n      dup3\n        /* \"#utility.yul\":7532:7544   */\n      add\n        /* \"#utility.yul\":7525:7544   */\n      swap1\n      pop\n        /* \"#utility.yul\":7184:7550   */\n      swap2\n      swap1\n      pop\n      jump\t// out\n        /* \"#utility.yul\":7556:7975   */\n    tag_78:\n        /* \"#utility.yul\":7722:7726   */\n      0x00\n        /* \"#utility.yul\":7760:7762   */\n      0x20\n        /* \"#utility.yul\":7749:7758   */\n      dup3\n        /* \"#utility.yul\":7745:7763   */\n      add\n        /* \"#utility.yul\":7737:7763   */\n      swap1\n      pop\n        /* \"#utility.yul\":7809:7818   */\n      dup2\n        /* \"#utility.yul\":7803:7807   */\n      dup2\n        /* \"#utility.yul\":7799:7819   */\n      sub\n        /* \"#utility.yul\":7795:7796   */\n      0x00\n        /* \"#utility.yul\":7784:7793   */\n      dup4\n        /* \"#utility.yul\":7780:7797   */\n      add\n        /* \"#utility.yul\":7773:7820   */\n      mstore\n        /* \"#utility.yul\":7837:7968   */\n      tag_192\n        /* \"#utility.yul\":7963:7967   */\n      dup2\n        /* \"#utility.yul\":7837:7968   */\n      tag_110\n      jump\t// in\n    tag_192:\n        /* \"#utility.yul\":7829:7968   */\n      swap1\n      pop\n        /* \"#utility.yul\":7556:7975   */\n      swap2\n      swap1\n      pop\n      jump\t// out\n\n    auxdata: 0xa26469706673582212206368e41e2b4de8f4b5aa32853e309df31715c2dcfffd7bf3e609ddd7070f24f964736f6c634300081e0033\n}\n",
				"bytecode": {
					"linkReferences": {},
					"object": "6080604052348015600e575f5ffd5b50610b428061001c5f395ff3fe608060405260043610610090575f3560e01c8063b33187e711610058578063b33187e71461017a578063cc0e97c9146101b6578063cc2d49d8146101e0578063f046395a14610208578063f66d98201461024657610090565b806349c7e6391461009457806376a67a51146100b057806376ca4f72146100d85780638da5cb5b146101145780639f8a13d71461013e575b5f5ffd5b6100ae60048036038101906100a9919061076a565b61026e565b005b3480156100bb575f5ffd5b506100d660048036038101906100d191906107ef565b610409565b005b3480156100e3575f5ffd5b506100fe60048036038101906100f9919061076a565b6104d2565b60405161010b9190610832565b60405180910390f35b34801561011f575f5ffd5b506101286104e7565b604051610135919061085a565b60405180910390f35b348015610149575f5ffd5b50610164600480360381019061015f91906107ef565b61050c565b604051610171919061088d565b60405180910390f35b348015610185575f5ffd5b506101a0600480360381019061019b919061076a565b6105b4565b6040516101ad9190610832565b60405180910390f35b3480156101c1575f5ffd5b506101ca6105c9565b6040516101d7919061085a565b60405180910390f35b3480156101eb575f5ffd5b50610206600480360381019061020191906108d0565b6105ed565b005b348015610213575f5ffd5b5061022e600480360381019061022991906107ef565b61062a565b60405161023d9392919061092f565b60405180910390f35b348015610251575f5ffd5b5061026c600480360381019061026791906107ef565b610668565b005b5f60035f8360ff1660ff1681526020019081526020015f2054116102c7576040517f08c379a00000000000000000000000000000000000000000000000000000000081526004016102be906109be565b60405180910390fd5b60035f8260ff1660ff1681526020019081526020015f2054341015610321576040517f08c379a000000000000000000000000000000000000000000000000000000000815260040161031890610a26565b60405180910390fd5b5f60025f3373ffffffffffffffffffffffffffffffffffffffff1673ffffffffffffffffffffffffffffffffffffffff1681526020019081526020015f20905080600101544210156103a35760045f8360ff1660ff1681526020019081526020015f2054816001015f8282546103979190610a71565b925050819055506103cf565b60045f8360ff1660ff1681526020019081526020015f2054426103c69190610a71565b81600101819055505b81815f015f6101000a81548160ff021916908360ff1602179055505f816002015f6101000a81548160ff0219169083151502179055505050565b8073ffffffffffffffffffffffffffffffffffffffff163373ffffffffffffffffffffffffffffffffffffffff1614610477576040517f08c379a000000000000000000000000000000000000000000000000000000000815260040161046e90610aee565b60405180910390fd5b600160025f8373ffffffffffffffffffffffffffffffffffffffff1673ffffffffffffffffffffffffffffffffffffffff1681526020019081526020015f206002015f6101000a81548160ff02191690831515021790555050565b6004602052805f5260405f205f915090505481565b60015f9054906101000a900473ffffffffffffffffffffffffffffffffffffffff1681565b5f5f60025f8473ffffffffffffffffffffffffffffffffffffffff1673ffffffffffffffffffffffffffffffffffffffff1681526020019081526020015f206040518060600160405290815f82015f9054906101000a900460ff1660ff1660ff16815260200160018201548152602001600282015f9054906101000a900460ff16151515158152505090508060200151421080156105ac57508060400151155b915050919050565b6003602052805f5260405f205f915090505481565b5f5f9054906101000a900473ffffffffffffffffffffffffffffffffffffffff1681565b8160035f8560ff1660ff1681526020019081526020015f20819055508060045f8560ff1660ff1681526020019081526020015f2081905550505050565b6002602052805f5260405f205f91509050805f015f9054906101000a900460ff1690806001015490806002015f9054906101000a900460ff16905083565b8073ffffffffffffffffffffffffffffffffffffffff163373ffffffffffffffffffffffffffffffffffffffff16146106d6576040517f08c379a00000000000000000000000000000000000000000000000000000000081526004016106cd90610aee565b60405180910390fd5b5f60025f8373ffffffffffffffffffffffffffffffffffffffff1673ffffffffffffffffffffffffffffffffffffffff1681526020019081526020015f206002015f6101000a81548160ff02191690831515021790555050565b5f5ffd5b5f60ff82169050919050565b61074981610734565b8114610753575f5ffd5b50565b5f8135905061076481610740565b92915050565b5f6020828403121561077f5761077e610730565b5b5f61078c84828501610756565b91505092915050565b5f73ffffffffffffffffffffffffffffffffffffffff82169050919050565b5f6107be82610795565b9050919050565b6107ce816107b4565b81146107d8575f5ffd5b50565b5f813590506107e9816107c5565b92915050565b5f6020828403121561080457610803610730565b5b5f610811848285016107db565b91505092915050565b5f819050919050565b61082c8161081a565b82525050565b5f6020820190506108455f830184610823565b92915050565b610854816107b4565b82525050565b5f60208201905061086d5f83018461084b565b92915050565b5f8115159050919050565b61088781610873565b82525050565b5f6020820190506108a05f83018461087e565b92915050565b6108af8161081a565b81146108b9575f5ffd5b50565b5f813590506108ca816108a6565b92915050565b5f5f5f606084860312156108e7576108e6610730565b5b5f6108f486828701610756565b9350506020610905868287016108bc565b9250506040610916868287016108bc565b9150509250925092565b61092981610734565b82525050565b5f6060820190506109425f830186610920565b61094f6020830185610823565b61095c604083018461087e565b949350505050565b5f82825260208201905092915050565b7f496e76616c696420706c616e00000000000000000000000000000000000000005f82015250565b5f6109a8600c83610964565b91506109b382610974565b602082019050919050565b5f6020820190508181035f8301526109d58161099c565b9050919050565b7f496e73756666696369656e74207061796d656e740000000000000000000000005f82015250565b5f610a10601483610964565b9150610a1b826109dc565b602082019050919050565b5f6020820190508181035f830152610a3d81610a04565b9050919050565b7f4e487b71000000000000000000000000000000000000000000000000000000005f52601160045260245ffd5b5f610a7b8261081a565b9150610a868361081a565b9250828201905080821115610a9e57610a9d610a44565b5b92915050565b7f4e6f7420617574686f72697a65640000000000000000000000000000000000005f82015250565b5f610ad8600e83610964565b9150610ae382610aa4565b602082019050919050565b5f6020820190508181035f830152610b0581610acc565b905091905056fea26469706673582212206368e41e2b4de8f4b5aa32853e309df31715c2dcfffd7bf3e609ddd7070f24f964736f6c634300081e0033",
					"opcodes": "PUSH1 0x80 PUSH1 0x40 MSTORE CALLVALUE DUP1 ISZERO PUSH1 0xE JUMPI PUSH0 PUSH0 REVERT JUMPDEST POP PUSH2 0xB42 DUP1 PUSH2 0x1C PUSH0 CODECOPY PUSH0 RETURN INVALID PUSH1 0x80 PUSH1 0x40 MSTORE PUSH1 0x4 CALLDATASIZE LT PUSH2 0x90 JUMPI PUSH0 CALLDATALOAD PUSH1 0xE0 SHR DUP1 PUSH4 0xB33187E7 GT PUSH2 0x58 JUMPI DUP1 PUSH4 0xB33187E7 EQ PUSH2 0x17A JUMPI DUP1 PUSH4 0xCC0E97C9 EQ PUSH2 0x1B6 JUMPI DUP1 PUSH4 0xCC2D49D8 EQ PUSH2 0x1E0 JUMPI DUP1 PUSH4 0xF046395A EQ PUSH2 0x208 JUMPI DUP1 PUSH4 0xF66D9820 EQ PUSH2 0x246 JUMPI PUSH2 0x90 JUMP JUMPDEST DUP1 PUSH4 0x49C7E639 EQ PUSH2 0x94 JUMPI DUP1 PUSH4 0x76A67A51 EQ PUSH2 0xB0 JUMPI DUP1 PUSH4 0x76CA4F72 EQ PUSH2 0xD8 JUMPI DUP1 PUSH4 0x8DA5CB5B EQ PUSH2 0x114 JUMPI DUP1 PUSH4 0x9F8A13D7 EQ PUSH2 0x13E JUMPI JUMPDEST PUSH0 PUSH0 REVERT JUMPDEST PUSH2 0xAE PUSH1 0x4 DUP1 CALLDATASIZE SUB DUP2 ADD SWAP1 PUSH2 0xA9 SWAP2 SWAP1 PUSH2 0x76A JUMP JUMPDEST PUSH2 0x26E JUMP JUMPDEST STOP JUMPDEST CALLVALUE DUP1 ISZERO PUSH2 0xBB JUMPI PUSH0 PUSH0 REVERT JUMPDEST POP PUSH2 0xD6 PUSH1 0x4 DUP1 CALLDATASIZE SUB DUP2 ADD SWAP1 PUSH2 0xD1 SWAP2 SWAP1 PUSH2 0x7EF JUMP JUMPDEST PUSH2 0x409 JUMP JUMPDEST STOP JUMPDEST CALLVALUE DUP1 ISZERO PUSH2 0xE3 JUMPI PUSH0 PUSH0 REVERT JUMPDEST POP PUSH2 0xFE PUSH1 0x4 DUP1 CALLDATASIZE SUB DUP2 ADD SWAP1 PUSH2 0xF9 SWAP2 SWAP1 PUSH2 0x76A JUMP JUMPDEST PUSH2 0x4D2 JUMP JUMPDEST PUSH1 0x40 MLOAD PUSH2 0x10B SWAP2 SWAP1 PUSH2 0x832 JUMP JUMPDEST PUSH1 0x40 MLOAD DUP1 SWAP2 SUB SWAP1 RETURN JUMPDEST CALLVALUE DUP1 ISZERO PUSH2 0x11F JUMPI PUSH0 PUSH0 REVERT JUMPDEST POP PUSH2 0x128 PUSH2 0x4E7 JUMP JUMPDEST PUSH1 0x40 MLOAD PUSH2 0x135 SWAP2 SWAP1 PUSH2 0x85A JUMP JUMPDEST PUSH1 0x40 MLOAD DUP1 SWAP2 SUB SWAP1 RETURN JUMPDEST CALLVALUE DUP1 ISZERO PUSH2 0x149 JUMPI PUSH0 PUSH0 REVERT JUMPDEST POP PUSH2 0x164 PUSH1 0x4 DUP1 CALLDATASIZE SUB DUP2 ADD SWAP1 PUSH2 0x15F SWAP2 SWAP1 PUSH2 0x7EF JUMP JUMPDEST PUSH2 0x50C JUMP JUMPDEST PUSH1 0x40 MLOAD PUSH2 0x171 SWAP2 SWAP1 PUSH2 0x88D JUMP JUMPDEST PUSH1 0x40 MLOAD DUP1 SWAP2 SUB SWAP1 RETURN JUMPDEST CALLVALUE DUP1 ISZERO PUSH2 0x185 JUMPI PUSH0 PUSH0 REVERT JUMPDEST POP PUSH2 0x1A0 PUSH1 0x4 DUP1 CALLDATASIZE SUB DUP2 ADD SWAP1 PUSH2 0x19B SWAP2 SWAP1 PUSH2 0x76A JUMP JUMPDEST PUSH2 0x5B4 JUMP JUMPDEST PUSH1 0x40 MLOAD PUSH2 0x1AD SWAP2 SWAP1 PUSH2 0x832 JUMP JUMPDEST PUSH1 0x40 MLOAD DUP1 SWAP2 SUB SWAP1 RETURN JUMPDEST CALLVALUE DUP1 ISZERO PUSH2 0x1C1 JUMPI PUSH0 PUSH0 REVERT JUMPDEST POP PUSH2 0x1CA PUSH2 0x5C9 JUMP JUMPDEST PUSH1 0x40 MLOAD PUSH2 0x1D7 SWAP2 SWAP1 PUSH2 0x85A JUMP JUMPDEST PUSH1 0x40 MLOAD DUP1 SWAP2 SUB SWAP1 RETURN JUMPDEST CALLVALUE DUP1 ISZERO PUSH2 0x1EB JUMPI PUSH0 PUSH0 REVERT JUMPDEST POP PUSH2 0x206 PUSH1 0x4 DUP1 CALLDATASIZE SUB DUP2 ADD SWAP1 PUSH2 0x201 SWAP2 SWAP1 PUSH2 0x8D0 JUMP JUMPDEST PUSH2 0x5ED JUMP JUMPDEST STOP JUMPDEST CALLVALUE DUP1 ISZERO PUSH2 0x213 JUMPI PUSH0 PUSH0 REVERT JUMPDEST POP PUSH2 0x22E PUSH1 0x4 DUP1 CALLDATASIZE SUB DUP2 ADD SWAP1 PUSH2 0x229 SWAP2 SWAP1 PUSH2 0x7EF JUMP JUMPDEST PUSH2 0x62A JUMP JUMPDEST PUSH1 0x40 MLOAD PUSH2 0x23D SWAP4 SWAP3 SWAP2 SWAP1 PUSH2 0x92F JUMP JUMPDEST PUSH1 0x40 MLOAD DUP1 SWAP2 SUB SWAP1 RETURN JUMPDEST CALLVALUE DUP1 ISZERO PUSH2 0x251 JUMPI PUSH0 PUSH0 REVERT JUMPDEST POP PUSH2 0x26C PUSH1 0x4 DUP1 CALLDATASIZE SUB DUP2 ADD SWAP1 PUSH2 0x267 SWAP2 SWAP1 PUSH2 0x7EF JUMP JUMPDEST PUSH2 0x668 JUMP JUMPDEST STOP JUMPDEST PUSH0 PUSH1 0x3 PUSH0 DUP4 PUSH1 0xFF AND PUSH1 0xFF AND DUP2 MSTORE PUSH1 0x20 ADD SWAP1 DUP2 MSTORE PUSH1 0x20 ADD PUSH0 KECCAK256 SLOAD GT PUSH2 0x2C7 JUMPI PUSH1 0x40 MLOAD PUSH32 0x8C379A000000000000000000000000000000000000000000000000000000000 DUP2 MSTORE PUSH1 0x4 ADD PUSH2 0x2BE SWAP1 PUSH2 0x9BE JUMP JUMPDEST PUSH1 0x40 MLOAD DUP1 SWAP2 SUB SWAP1 REVERT JUMPDEST PUSH1 0x3 PUSH0 DUP3 PUSH1 0xFF AND PUSH1 0xFF AND DUP2 MSTORE PUSH1 0x20 ADD SWAP1 DUP2 MSTORE PUSH1 0x20 ADD PUSH0 KECCAK256 SLOAD CALLVALUE LT ISZERO PUSH2 0x321 JUMPI PUSH1 0x40 MLOAD PUSH32 0x8C379A000000000000000000000000000000000000000000000000000000000 DUP2 MSTORE PUSH1 0x4 ADD PUSH2 0x318 SWAP1 PUSH2 0xA26 JUMP JUMPDEST PUSH1 0x40 MLOAD DUP1 SWAP2 SUB SWAP1 REVERT JUMPDEST PUSH0 PUSH1 0x2 PUSH0 CALLER PUSH20 0xFFFFFFFFFFFFFFFFFFFFFFFFFFFFFFFFFFFFFFFF AND PUSH20 0xFFFFFFFFFFFFFFFFFFFFFFFFFFFFFFFFFFFFFFFF AND DUP2 MSTORE PUSH1 0x20 ADD SWAP1 DUP2 MSTORE PUSH1 0x20 ADD PUSH0 KECCAK256 SWAP1 POP DUP1 PUSH1 0x1 ADD SLOAD TIMESTAMP LT ISZERO PUSH2 0x3A3 JUMPI PUSH1 0x4 PUSH0 DUP4 PUSH1 0xFF AND PUSH1 0xFF AND DUP2 MSTORE PUSH1 0x20 ADD SWAP1 DUP2 MSTORE PUSH1 0x20 ADD PUSH0 KECCAK256 SLOAD DUP2 PUSH1 0x1 ADD PUSH0 DUP3 DUP3 SLOAD PUSH2 0x397 SWAP2 SWAP1 PUSH2 0xA71 JUMP JUMPDEST SWAP3 POP POP DUP2 SWAP1 SSTORE POP PUSH2 0x3CF JUMP JUMPDEST PUSH1 0x4 PUSH0 DUP4 PUSH1 0xFF AND PUSH1 0xFF AND DUP2 MSTORE PUSH1 0x20 ADD SWAP1 DUP2 MSTORE PUSH1 0x20 ADD PUSH0 KECCAK256 SLOAD TIMESTAMP PUSH2 0x3C6 SWAP2 SWAP1 PUSH2 0xA71 JUMP JUMPDEST DUP2 PUSH1 0x1 ADD DUP2 SWAP1 SSTORE POP JUMPDEST DUP2 DUP2 PUSH0 ADD PUSH0 PUSH2 0x100 EXP DUP2 SLOAD DUP2 PUSH1 0xFF MUL NOT AND SWAP1 DUP4 PUSH1 0xFF AND MUL OR SWAP1 SSTORE POP PUSH0 DUP2 PUSH1 0x2 ADD PUSH0 PUSH2 0x100 EXP DUP2 SLOAD DUP2 PUSH1 0xFF MUL NOT AND SWAP1 DUP4 ISZERO ISZERO MUL OR SWAP1 SSTORE POP POP POP JUMP JUMPDEST DUP1 PUSH20 0xFFFFFFFFFFFFFFFFFFFFFFFFFFFFFFFFFFFFFFFF AND CALLER PUSH20 0xFFFFFFFFFFFFFFFFFFFFFFFFFFFFFFFFFFFFFFFF AND EQ PUSH2 0x477 JUMPI PUSH1 0x40 MLOAD PUSH32 0x8C379A000000000000000000000000000000000000000000000000000000000 DUP2 MSTORE PUSH1 0x4 ADD PUSH2 0x46E SWAP1 PUSH2 0xAEE JUMP JUMPDEST PUSH1 0x40 MLOAD DUP1 SWAP2 SUB SWAP1 REVERT JUMPDEST PUSH1 0x1 PUSH1 0x2 PUSH0 DUP4 PUSH20 0xFFFFFFFFFFFFFFFFFFFFFFFFFFFFFFFFFFFFFFFF AND PUSH20 0xFFFFFFFFFFFFFFFFFFFFFFFFFFFFFFFFFFFFFFFF AND DUP2 MSTORE PUSH1 0x20 ADD SWAP1 DUP2 MSTORE PUSH1 0x20 ADD PUSH0 KECCAK256 PUSH1 0x2 ADD PUSH0 PUSH2 0x100 EXP DUP2 SLOAD DUP2 PUSH1 0xFF MUL NOT AND SWAP1 DUP4 ISZERO ISZERO MUL OR SWAP1 SSTORE POP POP JUMP JUMPDEST PUSH1 0x4 PUSH1 0x20 MSTORE DUP1 PUSH0 MSTORE PUSH1 0x40 PUSH0 KECCAK256 PUSH0 SWAP2 POP SWAP1 POP SLOAD DUP2 JUMP JUMPDEST PUSH1 0x1 PUSH0 SWAP1 SLOAD SWAP1 PUSH2 0x100 EXP SWAP1 DIV PUSH20 0xFFFFFFFFFFFFFFFFFFFFFFFFFFFFFFFFFFFFFFFF AND DUP2 JUMP JUMPDEST PUSH0 PUSH0 PUSH1 0x2 PUSH0 DUP5 PUSH20 0xFFFFFFFFFFFFFFFFFFFFFFFFFFFFFFFFFFFFFFFF AND PUSH20 0xFFFFFFFFFFFFFFFFFFFFFFFFFFFFFFFFFFFFFFFF AND DUP2 MSTORE PUSH1 0x20 ADD SWAP1 DUP2 MSTORE PUSH1 0x20 ADD PUSH0 KECCAK256 PUSH1 0x40 MLOAD DUP1 PUSH1 0x60 ADD PUSH1 0x40 MSTORE SWAP1 DUP2 PUSH0 DUP3 ADD PUSH0 SWAP1 SLOAD SWAP1 PUSH2 0x100 EXP SWAP1 DIV PUSH1 0xFF AND PUSH1 0xFF AND PUSH1 0xFF AND DUP2 MSTORE PUSH1 0x20 ADD PUSH1 0x1 DUP3 ADD SLOAD DUP2 MSTORE PUSH1 0x20 ADD PUSH1 0x2 DUP3 ADD PUSH0 SWAP1 SLOAD SWAP1 PUSH2 0x100 EXP SWAP1 DIV PUSH1 0xFF AND ISZERO ISZERO ISZERO ISZERO DUP2 MSTORE POP POP SWAP1 POP DUP1 PUSH1 0x20 ADD MLOAD TIMESTAMP LT DUP1 ISZERO PUSH2 0x5AC JUMPI POP DUP1 PUSH1 0x40 ADD MLOAD ISZERO JUMPDEST SWAP2 POP POP SWAP2 SWAP1 POP JUMP JUMPDEST PUSH1 0x3 PUSH1 0x20 MSTORE DUP1 PUSH0 MSTORE PUSH1 0x40 PUSH0 KECCAK256 PUSH0 SWAP2 POP SWAP1 POP SLOAD DUP2 JUMP JUMPDEST PUSH0 PUSH0 SWAP1 SLOAD SWAP1 PUSH2 0x100 EXP SWAP1 DIV PUSH20 0xFFFFFFFFFFFFFFFFFFFFFFFFFFFFFFFFFFFFFFFF AND DUP2 JUMP JUMPDEST DUP2 PUSH1 0x3 PUSH0 DUP6 PUSH1 0xFF AND PUSH1 0xFF AND DUP2 MSTORE PUSH1 0x20 ADD SWAP1 DUP2 MSTORE PUSH1 0x20 ADD PUSH0 KECCAK256 DUP2 SWAP1 SSTORE POP DUP1 PUSH1 0x4 PUSH0 DUP6 PUSH1 0xFF AND PUSH1 0xFF AND DUP2 MSTORE PUSH1 0x20 ADD SWAP1 DUP2 MSTORE PUSH1 0x20 ADD PUSH0 KECCAK256 DUP2 SWAP1 SSTORE POP POP POP POP JUMP JUMPDEST PUSH1 0x2 PUSH1 0x20 MSTORE DUP1 PUSH0 MSTORE PUSH1 0x40 PUSH0 KECCAK256 PUSH0 SWAP2 POP SWAP1 POP DUP1 PUSH0 ADD PUSH0 SWAP1 SLOAD SWAP1 PUSH2 0x100 EXP SWAP1 DIV PUSH1 0xFF AND SWAP1 DUP1 PUSH1 0x1 ADD SLOAD SWAP1 DUP1 PUSH1 0x2 ADD PUSH0 SWAP1 SLOAD SWAP1 PUSH2 0x100 EXP SWAP1 DIV PUSH1 0xFF AND SWAP1 POP DUP4 JUMP JUMPDEST DUP1 PUSH20 0xFFFFFFFFFFFFFFFFFFFFFFFFFFFFFFFFFFFFFFFF AND CALLER PUSH20 0xFFFFFFFFFFFFFFFFFFFFFFFFFFFFFFFFFFFFFFFF AND EQ PUSH2 0x6D6 JUMPI PUSH1 0x40 MLOAD PUSH32 0x8C379A000000000000000000000000000000000000000000000000000000000 DUP2 MSTORE PUSH1 0x4 ADD PUSH2 0x6CD SWAP1 PUSH2 0xAEE JUMP JUMPDEST PUSH1 0x40 MLOAD DUP1 SWAP2 SUB SWAP1 REVERT JUMPDEST PUSH0 PUSH1 0x2 PUSH0 DUP4 PUSH20 0xFFFFFFFFFFFFFFFFFFFFFFFFFFFFFFFFFFFFFFFF AND PUSH20 0xFFFFFFFFFFFFFFFFFFFFFFFFFFFFFFFFFFFFFFFF AND DUP2 MSTORE PUSH1 0x20 ADD SWAP1 DUP2 MSTORE PUSH1 0x20 ADD PUSH0 KECCAK256 PUSH1 0x2 ADD PUSH0 PUSH2 0x100 EXP DUP2 SLOAD DUP2 PUSH1 0xFF MUL NOT AND SWAP1 DUP4 ISZERO ISZERO MUL OR SWAP1 SSTORE POP POP JUMP JUMPDEST PUSH0 PUSH0 REVERT JUMPDEST PUSH0 PUSH1 0xFF DUP3 AND SWAP1 POP SWAP2 SWAP1 POP JUMP JUMPDEST PUSH2 0x749 DUP2 PUSH2 0x734 JUMP JUMPDEST DUP2 EQ PUSH2 0x753 JUMPI PUSH0 PUSH0 REVERT JUMPDEST POP JUMP JUMPDEST PUSH0 DUP2 CALLDATALOAD SWAP1 POP PUSH2 0x764 DUP2 PUSH2 0x740 JUMP JUMPDEST SWAP3 SWAP2 POP POP JUMP JUMPDEST PUSH0 PUSH1 0x20 DUP3 DUP5 SUB SLT ISZERO PUSH2 0x77F JUMPI PUSH2 0x77E PUSH2 0x730 JUMP JUMPDEST JUMPDEST PUSH0 PUSH2 0x78C DUP5 DUP3 DUP6 ADD PUSH2 0x756 JUMP JUMPDEST SWAP2 POP POP SWAP3 SWAP2 POP POP JUMP JUMPDEST PUSH0 PUSH20 0xFFFFFFFFFFFFFFFFFFFFFFFFFFFFFFFFFFFFFFFF DUP3 AND SWAP1 POP SWAP2 SWAP1 POP JUMP JUMPDEST PUSH0 PUSH2 0x7BE DUP3 PUSH2 0x795 JUMP JUMPDEST SWAP1 POP SWAP2 SWAP1 POP JUMP JUMPDEST PUSH2 0x7CE DUP2 PUSH2 0x7B4 JUMP JUMPDEST DUP2 EQ PUSH2 0x7D8 JUMPI PUSH0 PUSH0 REVERT JUMPDEST POP JUMP JUMPDEST PUSH0 DUP2 CALLDATALOAD SWAP1 POP PUSH2 0x7E9 DUP2 PUSH2 0x7C5 JUMP JUMPDEST SWAP3 SWAP2 POP POP JUMP JUMPDEST PUSH0 PUSH1 0x20 DUP3 DUP5 SUB SLT ISZERO PUSH2 0x804 JUMPI PUSH2 0x803 PUSH2 0x730 JUMP JUMPDEST JUMPDEST PUSH0 PUSH2 0x811 DUP5 DUP3 DUP6 ADD PUSH2 0x7DB JUMP JUMPDEST SWAP2 POP POP SWAP3 SWAP2 POP POP JUMP JUMPDEST PUSH0 DUP2 SWAP1 POP SWAP2 SWAP1 POP JUMP JUMPDEST PUSH2 0x82C DUP2 PUSH2 0x81A JUMP JUMPDEST DUP3 MSTORE POP POP JUMP JUMPDEST PUSH0 PUSH1 0x20 DUP3 ADD SWAP1 POP PUSH2 0x845 PUSH0 DUP4 ADD DUP5 PUSH2 0x823 JUMP JUMPDEST SWAP3 SWAP2 POP POP JUMP JUMPDEST PUSH2 0x854 DUP2 PUSH2 0x7B4 JUMP JUMPDEST DUP3 MSTORE POP POP JUMP JUMPDEST PUSH0 PUSH1 0x20 DUP3 ADD SWAP1 POP PUSH2 0x86D PUSH0 DUP4 ADD DUP5 PUSH2 0x84B JUMP JUMPDEST SWAP3 SWAP2 POP POP JUMP JUMPDEST PUSH0 DUP2 ISZERO ISZERO SWAP1 POP SWAP2 SWAP1 POP JUMP JUMPDEST PUSH2 0x887 DUP2 PUSH2 0x873 JUMP JUMPDEST DUP3 MSTORE POP POP JUMP JUMPDEST PUSH0 PUSH1 0x20 DUP3 ADD SWAP1 POP PUSH2 0x8A0 PUSH0 DUP4 ADD DUP5 PUSH2 0x87E JUMP JUMPDEST SWAP3 SWAP2 POP POP JUMP JUMPDEST PUSH2 0x8AF DUP2 PUSH2 0x81A JUMP JUMPDEST DUP2 EQ PUSH2 0x8B9 JUMPI PUSH0 PUSH0 REVERT JUMPDEST POP JUMP JUMPDEST PUSH0 DUP2 CALLDATALOAD SWAP1 POP PUSH2 0x8CA DUP2 PUSH2 0x8A6 JUMP JUMPDEST SWAP3 SWAP2 POP POP JUMP JUMPDEST PUSH0 PUSH0 PUSH0 PUSH1 0x60 DUP5 DUP7 SUB SLT ISZERO PUSH2 0x8E7 JUMPI PUSH2 0x8E6 PUSH2 0x730 JUMP JUMPDEST JUMPDEST PUSH0 PUSH2 0x8F4 DUP7 DUP3 DUP8 ADD PUSH2 0x756 JUMP JUMPDEST SWAP4 POP POP PUSH1 0x20 PUSH2 0x905 DUP7 DUP3 DUP8 ADD PUSH2 0x8BC JUMP JUMPDEST SWAP3 POP POP PUSH1 0x40 PUSH2 0x916 DUP7 DUP3 DUP8 ADD PUSH2 0x8BC JUMP JUMPDEST SWAP2 POP POP SWAP3 POP SWAP3 POP SWAP3 JUMP JUMPDEST PUSH2 0x929 DUP2 PUSH2 0x734 JUMP JUMPDEST DUP3 MSTORE POP POP JUMP JUMPDEST PUSH0 PUSH1 0x60 DUP3 ADD SWAP1 POP PUSH2 0x942 PUSH0 DUP4 ADD DUP7 PUSH2 0x920 JUMP JUMPDEST PUSH2 0x94F PUSH1 0x20 DUP4 ADD DUP6 PUSH2 0x823 JUMP JUMPDEST PUSH2 0x95C PUSH1 0x40 DUP4 ADD DUP5 PUSH2 0x87E JUMP JUMPDEST SWAP5 SWAP4 POP POP POP POP JUMP JUMPDEST PUSH0 DUP3 DUP3 MSTORE PUSH1 0x20 DUP3 ADD SWAP1 POP SWAP3 SWAP2 POP POP JUMP JUMPDEST PUSH32 0x496E76616C696420706C616E0000000000000000000000000000000000000000 PUSH0 DUP3 ADD MSTORE POP JUMP JUMPDEST PUSH0 PUSH2 0x9A8 PUSH1 0xC DUP4 PUSH2 0x964 JUMP JUMPDEST SWAP2 POP PUSH2 0x9B3 DUP3 PUSH2 0x974 JUMP JUMPDEST PUSH1 0x20 DUP3 ADD SWAP1 POP SWAP2 SWAP1 POP JUMP JUMPDEST PUSH0 PUSH1 0x20 DUP3 ADD SWAP1 POP DUP2 DUP2 SUB PUSH0 DUP4 ADD MSTORE PUSH2 0x9D5 DUP2 PUSH2 0x99C JUMP JUMPDEST SWAP1 POP SWAP2 SWAP1 POP JUMP JUMPDEST PUSH32 0x496E73756666696369656E74207061796D656E74000000000000000000000000 PUSH0 DUP3 ADD MSTORE POP JUMP JUMPDEST PUSH0 PUSH2 0xA10 PUSH1 0x14 DUP4 PUSH2 0x964 JUMP JUMPDEST SWAP2 POP PUSH2 0xA1B DUP3 PUSH2 0x9DC JUMP JUMPDEST PUSH1 0x20 DUP3 ADD SWAP1 POP SWAP2 SWAP1 POP JUMP JUMPDEST PUSH0 PUSH1 0x20 DUP3 ADD SWAP1 POP DUP2 DUP2 SUB PUSH0 DUP4 ADD MSTORE PUSH2 0xA3D DUP2 PUSH2 0xA04 JUMP JUMPDEST SWAP1 POP SWAP2 SWAP1 POP JUMP JUMPDEST PUSH32 0x4E487B7100000000000000000000000000000000000000000000000000000000 PUSH0 MSTORE PUSH1 0x11 PUSH1 0x4 MSTORE PUSH1 0x24 PUSH0 REVERT JUMPDEST PUSH0 PUSH2 0xA7B DUP3 PUSH2 0x81A JUMP JUMPDEST SWAP2 POP PUSH2 0xA86 DUP4 PUSH2 0x81A JUMP JUMPDEST SWAP3 POP DUP3 DUP3 ADD SWAP1 POP DUP1 DUP3 GT ISZERO PUSH2 0xA9E JUMPI PUSH2 0xA9D PUSH2 0xA44 JUMP JUMPDEST JUMPDEST SWAP3 SWAP2 POP POP JUMP JUMPDEST PUSH32 0x4E6F7420617574686F72697A6564000000000000000000000000000000000000 PUSH0 DUP3 ADD MSTORE POP JUMP JUMPDEST PUSH0 PUSH2 0xAD8 PUSH1 0xE DUP4 PUSH2 0x964 JUMP JUMPDEST SWAP2 POP PUSH2 0xAE3 DUP3 PUSH2 0xAA4 JUMP JUMPDEST PUSH1 0x20 DUP3 ADD SWAP1 POP SWAP2 SWAP1 POP JUMP JUMPDEST PUSH0 PUSH1 0x20 DUP3 ADD SWAP1 POP DUP2 DUP2 SUB PUSH0 DUP4 ADD MSTORE PUSH2 0xB05 DUP2 PUSH2 0xACC JUMP JUMPDEST SWAP1 POP SWAP2 SWAP1 POP JUMP INVALID LOG2 PUSH5 0x6970667358 0x22 SLT KECCAK256 PUSH4 0x68E41E2B 0x4D 0xE8 DELEGATECALL 0xB5 0xAA ORIGIN DUP6 RETURNDATACOPY ADDRESS SWAP14 RETURN OR ISZERO 0xC2 0xDC SELFDESTRUCT REVERT PUSH28 0xF3E609DDD7070F24F964736F6C634300081E00330000000000000000 "
				},
				"gasEstimates": {
					"creation": {
						"codeDepositCost": "576400",
						"executionCost": "611",
						"totalCost": "577011"
					},
					"external": {
						"addPlan(uint8,uint256,uint256)": "infinite",
						"isActive(address)": "7377",
						"logicContract()": "2529",
						"owner()": "2575",
						"pause(address)": "24866",
						"planDuration(uint8)": "2805",
						"planPrices(uint8)": "2760",
						"resumeAccount(address)": "24930",
						"subscribe(uint8)": "infinite",
						"subscriptions(address)": "7385"
					}
				},
				"methodIdentifiers": {
					"addPlan(uint8,uint256,uint256)": "cc2d49d8",
					"isActive(address)": "9f8a13d7",
					"logicContract()": "cc0e97c9",
					"owner()": "8da5cb5b",
					"pause(address)": "76a67a51",
					"planDuration(uint8)": "76ca4f72",
					"planPrices(uint8)": "b33187e7",
					"resumeAccount(address)": "f66d9820",
					"subscribe(uint8)": "49c7e639",
					"subscriptions(address)": "f046395a"
				}
			},
			"storageLayout": {
				"storage": [
					{
						"astId": 300,
						"contract": "submissions/Serena Y/Day17-SubscriptionLogicV2.sol:SubscriptionLogicV2",
						"label": "logicContract",
						"offset": 0,
						"slot": "0",
						"type": "t_address"
					},
					{
						"astId": 302,
						"contract": "submissions/Serena Y/Day17-SubscriptionLogicV2.sol:SubscriptionLogicV2",
						"label": "owner",
						"offset": 0,
						"slot": "1",
						"type": "t_address"
					},
					{
						"astId": 314,
						"contract": "submissions/Serena Y/Day17-SubscriptionLogicV2.sol:SubscriptionLogicV2",
						"label": "subscriptions",
						"offset": 0,
						"slot": "2",
						"type": "t_mapping(t_address,t_struct(Subscription)309_storage)"
					},
					{
						"astId": 318,
						"contract": "submissions/Serena Y/Day17-SubscriptionLogicV2.sol:SubscriptionLogicV2",
						"label": "planPrices",
						"offset": 0,
						"slot": "3",
						"type": "t_mapping(t_uint8,t_uint256)"
					},
					{
						"astId": 322,
						"contract": "submissions/Serena Y/Day17-SubscriptionLogicV2.sol:SubscriptionLogicV2",
						"label": "planDuration",
						"offset": 0,
						"slot": "4",
						"type": "t_mapping(t_uint8,t_uint256)"
					}
				],
				"types": {
					"t_address": {
						"encoding": "inplace",
						"label": "address",
						"numberOfBytes": "20"
					},
					"t_bool": {
						"encoding": "inplace",
						"label": "bool",
						"numberOfBytes": "1"
					},
					"t_mapping(t_address,t_struct(Subscription)309_storage)": {
						"encoding": "mapping",
						"key": "t_address",
						"label": "mapping(address => struct SubscriptionStorageLayout.Subscription)",
						"numberOfBytes": "32",
						"value": "t_struct(Subscription)309_storage"
					},
					"t_mapping(t_uint8,t_uint256)": {
						"encoding": "mapping",
						"key": "t_uint8",
						"label": "mapping(uint8 => uint256)",
						"numberOfBytes": "32",
						"value": "t_uint256"
					},
					"t_struct(Subscription)309_storage": {
						"encoding": "inplace",
						"label": "struct SubscriptionStorageLayout.Subscription",
						"members": [
							{
								"astId": 304,
								"contract": "submissions/Serena Y/Day17-SubscriptionLogicV2.sol:SubscriptionLogicV2",
								"label": "planId",
								"offset": 0,
								"slot": "0",
								"type": "t_uint8"
							},
							{
								"astId": 306,
								"contract": "submissions/Serena Y/Day17-SubscriptionLogicV2.sol:SubscriptionLogicV2",
								"label": "expiry",
								"offset": 0,
								"slot": "1",
								"type": "t_uint256"
							},
							{
								"astId": 308,
								"contract": "submissions/Serena Y/Day17-SubscriptionLogicV2.sol:SubscriptionLogicV2",
								"label": "paused",
								"offset": 0,
								"slot": "2",
								"type": "t_bool"
							}
						],
						"numberOfBytes": "96"
					},
					"t_uint256": {
						"encoding": "inplace",
						"label": "uint256",
						"numberOfBytes": "32"
					},
					"t_uint8": {
						"encoding": "inplace",
						"label": "uint8",
						"numberOfBytes": "1"
					}
				}
			},
			"userdoc": {
				"kind": "user",
				"methods": {},
				"version": 1
			}
		}
	}
}