{
	"submissions/Vera/day5.sol": {
		"AdminOnly": {
			"abi": [
				{
					"inputs": [],
					"stateMutability": "nonpayable",
					"type": "constructor"
				},
				{
					"inputs": [],
					"name": "Owner",
					"outputs": [
						{
							"internalType": "address",
							"name": "",
							"type": "address"
						}
					],
					"stateMutability": "view",
					"type": "function"
				},
				{
					"inputs": [
						{
							"internalType": "uint256",
							"name": "_amount",
							"type": "uint256"
						}
					],
					"name": "addTreasure",
					"outputs": [],
					"stateMutability": "nonpayable",
					"type": "function"
				},
				{
					"inputs": [
						{
							"internalType": "address",
							"name": "",
							"type": "address"
						}
					],
					"name": "approveList",
					"outputs": [
						{
							"internalType": "uint256",
							"name": "",
							"type": "uint256"
						}
					],
					"stateMutability": "view",
					"type": "function"
				},
				{
					"inputs": [
						{
							"internalType": "address",
							"name": "_user",
							"type": "address"
						},
						{
							"internalType": "uint256",
							"name": "_amount",
							"type": "uint256"
						}
					],
					"name": "approveWithdrawl",
					"outputs": [],
					"stateMutability": "nonpayable",
					"type": "function"
				},
				{
					"inputs": [],
					"name": "checkStatus",
					"outputs": [
						{
							"internalType": "uint256",
							"name": "",
							"type": "uint256"
						},
						{
							"internalType": "bool",
							"name": "",
							"type": "bool"
						}
					],
					"stateMutability": "view",
					"type": "function"
				},
				{
					"inputs": [],
					"name": "getTreasureDetails",
					"outputs": [
						{
							"internalType": "uint256",
							"name": "",
							"type": "uint256"
						}
					],
					"stateMutability": "view",
					"type": "function"
				},
				{
					"inputs": [
						{
							"internalType": "address",
							"name": "",
							"type": "address"
						}
					],
					"name": "hasWithdrawn",
					"outputs": [
						{
							"internalType": "bool",
							"name": "",
							"type": "bool"
						}
					],
					"stateMutability": "view",
					"type": "function"
				},
				{
					"inputs": [
						{
							"internalType": "address",
							"name": "_user",
							"type": "address"
						}
					],
					"name": "resetWithdrawalStatus",
					"outputs": [],
					"stateMutability": "nonpayable",
					"type": "function"
				},
				{
					"inputs": [
						{
							"internalType": "address",
							"name": "_newOwner",
							"type": "address"
						}
					],
					"name": "transferOwnership",
					"outputs": [],
					"stateMutability": "nonpayable",
					"type": "function"
				},
				{
					"inputs": [
						{
							"internalType": "uint256",
							"name": "_amount",
							"type": "uint256"
						}
					],
					"name": "withdrawTreasure",
					"outputs": [],
					"stateMutability": "nonpayable",
					"type": "function"
				}
			],
			"devdoc": {
				"kind": "dev",
				"methods": {},
				"version": 1
			},
			"evm": {
				"assembly": "    /* \"submissions/Vera/day5.sol\":62:2631  contract AdminOnly {... */\n  mstore(0x40, 0x80)\n    /* \"submissions/Vera/day5.sol\":179:194  block.timestamp */\n  timestamp\n    /* \"submissions/Vera/day5.sol\":163:194  uint256 timer = block.timestamp */\n  0x02\n  sstore\n    /* \"submissions/Vera/day5.sol\":329:379  constructor(){... */\n  callvalue\n  dup1\n  iszero\n  tag_1\n  jumpi\n  revert(0x00, 0x00)\ntag_1:\n  pop\n    /* \"submissions/Vera/day5.sol\":361:371  msg.sender */\n  caller\n    /* \"submissions/Vera/day5.sol\":353:358  Owner */\n  0x00\n  0x00\n    /* \"submissions/Vera/day5.sol\":353:371  Owner = msg.sender */\n  0x0100\n  exp\n  dup2\n  sload\n  dup2\n  0xffffffffffffffffffffffffffffffffffffffff\n  mul\n  not\n  and\n  swap1\n  dup4\n  0xffffffffffffffffffffffffffffffffffffffff\n  and\n  mul\n  or\n  swap1\n  sstore\n  pop\n    /* \"submissions/Vera/day5.sol\":62:2631  contract AdminOnly {... */\n  dataSize(sub_0)\n  dup1\n  dataOffset(sub_0)\n  0x00\n  codecopy\n  0x00\n  return\nstop\n\nsub_0: assembly {\n        /* \"submissions/Vera/day5.sol\":62:2631  contract AdminOnly {... */\n      mstore(0x40, 0x80)\n      callvalue\n      dup1\n      iszero\n      tag_1\n      jumpi\n      revert(0x00, 0x00)\n    tag_1:\n      pop\n      jumpi(tag_2, lt(calldatasize, 0x04))\n      shr(0xe0, calldataload(0x00))\n      dup1\n      0x94f36263\n      gt\n      tag_13\n      jumpi\n      dup1\n      0x94f36263\n      eq\n      tag_8\n      jumpi\n      dup1\n      0xaca5b346\n      eq\n      tag_9\n      jumpi\n      dup1\n      0xb4a99a4e\n      eq\n      tag_10\n      jumpi\n      dup1\n      0xe0147005\n      eq\n      tag_11\n      jumpi\n      dup1\n      0xf2fde38b\n      eq\n      tag_12\n      jumpi\n      jump(tag_2)\n    tag_13:\n      dup1\n      0x3b7104f2\n      eq\n      tag_3\n      jumpi\n      dup1\n      0x5e2c19db\n      eq\n      tag_4\n      jumpi\n      dup1\n      0x62f5e563\n      eq\n      tag_5\n      jumpi\n      dup1\n      0x774124fa\n      eq\n      tag_6\n      jumpi\n      dup1\n      0x941907de\n      eq\n      tag_7\n      jumpi\n    tag_2:\n      revert(0x00, 0x00)\n        /* \"submissions/Vera/day5.sol\":2439:2626  function checkStatus() view external returns(uint256,bool){... */\n    tag_3:\n      tag_14\n      tag_15\n      jump\t// in\n    tag_14:\n      mload(0x40)\n      tag_16\n      swap3\n      swap2\n      swap1\n      tag_17\n      jump\t// in\n    tag_16:\n      mload(0x40)\n      dup1\n      swap2\n      sub\n      swap1\n      return\n        /* \"submissions/Vera/day5.sol\":256:300  mapping(address => bool) public hasWithdrawn */\n    tag_4:\n      tag_18\n      0x04\n      dup1\n      calldatasize\n      sub\n      dup2\n      add\n      swap1\n      tag_19\n      swap2\n      swap1\n      tag_20\n      jump\t// in\n    tag_19:\n      tag_21\n      jump\t// in\n    tag_18:\n      mload(0x40)\n      tag_22\n      swap2\n      swap1\n      tag_23\n      jump\t// in\n    tag_22:\n      mload(0x40)\n      dup1\n      swap2\n      sub\n      swap1\n      return\n        /* \"submissions/Vera/day5.sol\":203:249  mapping(address => uint256) public approveList */\n    tag_5:\n      tag_24\n      0x04\n      dup1\n      calldatasize\n      sub\n      dup2\n      add\n      swap1\n      tag_25\n      swap2\n      swap1\n      tag_20\n      jump\t// in\n    tag_25:\n      tag_26\n      jump\t// in\n    tag_24:\n      mload(0x40)\n      tag_27\n      swap2\n      swap1\n      tag_28\n      jump\t// in\n    tag_27:\n      mload(0x40)\n      dup1\n      swap2\n      sub\n      swap1\n      return\n        /* \"submissions/Vera/day5.sol\":1223:1334  function getTreasureDetails() public view onlyOwner returns (uint256){... */\n    tag_6:\n      tag_29\n      tag_30\n      jump\t// in\n    tag_29:\n      mload(0x40)\n      tag_31\n      swap2\n      swap1\n      tag_28\n      jump\t// in\n    tag_31:\n      mload(0x40)\n      dup1\n      swap2\n      sub\n      swap1\n      return\n        /* \"submissions/Vera/day5.sol\":1362:1525  function resetWithdrawalStatus(address _user) public onlyOwner{... */\n    tag_7:\n      tag_32\n      0x04\n      dup1\n      calldatasize\n      sub\n      dup2\n      add\n      swap1\n      tag_33\n      swap2\n      swap1\n      tag_20\n      jump\t// in\n    tag_33:\n      tag_34\n      jump\t// in\n    tag_32:\n      stop\n        /* \"submissions/Vera/day5.sol\":881:1189  function approveWithdrawl(address _user,uint256 _amount)public onlyOwner{... */\n    tag_8:\n      tag_35\n      0x04\n      dup1\n      calldatasize\n      sub\n      dup2\n      add\n      swap1\n      tag_36\n      swap2\n      swap1\n      tag_37\n      jump\t// in\n    tag_36:\n      tag_38\n      jump\t// in\n    tag_35:\n      stop\n        /* \"submissions/Vera/day5.sol\":1550:2342  function withdrawTreasure(uint256 _amount) public {... */\n    tag_9:\n      tag_39\n      0x04\n      dup1\n      calldatasize\n      sub\n      dup2\n      add\n      swap1\n      tag_40\n      swap2\n      swap1\n      tag_41\n      jump\t// in\n    tag_40:\n      tag_42\n      jump\t// in\n    tag_39:\n      stop\n        /* \"submissions/Vera/day5.sol\":88:108  address public Owner */\n    tag_10:\n      tag_43\n      tag_44\n      jump\t// in\n    tag_43:\n      mload(0x40)\n      tag_45\n      swap2\n      swap1\n      tag_46\n      jump\t// in\n    tag_45:\n      mload(0x40)\n      dup1\n      swap2\n      sub\n      swap1\n      return\n        /* \"submissions/Vera/day5.sol\":763:859  function addTreasure(uint256 _amount) public onlyOwner{... */\n    tag_11:\n      tag_47\n      0x04\n      dup1\n      calldatasize\n      sub\n      dup2\n      add\n      swap1\n      tag_48\n      swap2\n      swap1\n      tag_41\n      jump\t// in\n    tag_48:\n      tag_49\n      jump\t// in\n    tag_47:\n      stop\n        /* \"submissions/Vera/day5.sol\":573:753  function transferOwnership(address _newOwner)public onlyOwner{... */\n    tag_12:\n      tag_50\n      0x04\n      dup1\n      calldatasize\n      sub\n      dup2\n      add\n      swap1\n      tag_51\n      swap2\n      swap1\n      tag_20\n      jump\t// in\n    tag_51:\n      tag_52\n      jump\t// in\n    tag_50:\n      stop\n        /* \"submissions/Vera/day5.sol\":2439:2626  function checkStatus() view external returns(uint256,bool){... */\n    tag_15:\n        /* \"submissions/Vera/day5.sol\":2484:2491  uint256 */\n      0x00\n        /* \"submissions/Vera/day5.sol\":2492:2496  bool */\n      0x00\n        /* \"submissions/Vera/day5.sol\":2528:2533  Owner */\n      0x00\n      0x00\n      swap1\n      sload\n      swap1\n      0x0100\n      exp\n      swap1\n      div\n      0xffffffffffffffffffffffffffffffffffffffff\n      and\n        /* \"submissions/Vera/day5.sol\":2516:2533  msg.sender!=Owner */\n      0xffffffffffffffffffffffffffffffffffffffff\n      and\n        /* \"submissions/Vera/day5.sol\":2516:2526  msg.sender */\n      caller\n        /* \"submissions/Vera/day5.sol\":2516:2533  msg.sender!=Owner */\n      0xffffffffffffffffffffffffffffffffffffffff\n      and\n      sub\n        /* \"submissions/Vera/day5.sol\":2508:2550  require(msg.sender!=Owner,\"You are Owner\") */\n      tag_54\n      jumpi\n      mload(0x40)\n      0x08c379a000000000000000000000000000000000000000000000000000000000\n      dup2\n      mstore\n      0x04\n      add\n      tag_55\n      swap1\n      tag_56\n      jump\t// in\n    tag_55:\n      mload(0x40)\n      dup1\n      swap2\n      sub\n      swap1\n      revert\n    tag_54:\n        /* \"submissions/Vera/day5.sol\":2569:2580  approveList */\n      0x03\n        /* \"submissions/Vera/day5.sol\":2569:2592  approveList[msg.sender] */\n      0x00\n        /* \"submissions/Vera/day5.sol\":2581:2591  msg.sender */\n      caller\n        /* \"submissions/Vera/day5.sol\":2569:2592  approveList[msg.sender] */\n      0xffffffffffffffffffffffffffffffffffffffff\n      and\n      0xffffffffffffffffffffffffffffffffffffffff\n      and\n      dup2\n      mstore\n      0x20\n      add\n      swap1\n      dup2\n      mstore\n      0x20\n      add\n      0x00\n      keccak256\n      sload\n        /* \"submissions/Vera/day5.sol\":2593:2605  hasWithdrawn */\n      0x04\n        /* \"submissions/Vera/day5.sol\":2593:2617  hasWithdrawn[msg.sender] */\n      0x00\n        /* \"submissions/Vera/day5.sol\":2606:2616  msg.sender */\n      caller\n        /* \"submissions/Vera/day5.sol\":2593:2617  hasWithdrawn[msg.sender] */\n      0xffffffffffffffffffffffffffffffffffffffff\n      and\n      0xffffffffffffffffffffffffffffffffffffffff\n      and\n      dup2\n      mstore\n      0x20\n      add\n      swap1\n      dup2\n      mstore\n      0x20\n      add\n      0x00\n      keccak256\n      0x00\n      swap1\n      sload\n      swap1\n      0x0100\n      exp\n      swap1\n      div\n      0xff\n      and\n        /* \"submissions/Vera/day5.sol\":2561:2618  return (approveList[msg.sender],hasWithdrawn[msg.sender]) */\n      swap2\n      pop\n      swap2\n      pop\n        /* \"submissions/Vera/day5.sol\":2439:2626  function checkStatus() view external returns(uint256,bool){... */\n      swap1\n      swap2\n      jump\t// out\n        /* \"submissions/Vera/day5.sol\":256:300  mapping(address => bool) public hasWithdrawn */\n    tag_21:\n      mstore(0x20, 0x04)\n      dup1\n      0x00\n      mstore\n      keccak256(0x00, 0x40)\n      0x00\n      swap2\n      pop\n      sload\n      swap1\n      0x0100\n      exp\n      swap1\n      div\n      0xff\n      and\n      dup2\n      jump\t// out\n        /* \"submissions/Vera/day5.sol\":203:249  mapping(address => uint256) public approveList */\n    tag_26:\n      mstore(0x20, 0x03)\n      dup1\n      0x00\n      mstore\n      keccak256(0x00, 0x40)\n      0x00\n      swap2\n      pop\n      swap1\n      pop\n      sload\n      dup2\n      jump\t// out\n        /* \"submissions/Vera/day5.sol\":1223:1334  function getTreasureDetails() public view onlyOwner returns (uint256){... */\n    tag_30:\n        /* \"submissions/Vera/day5.sol\":1284:1291  uint256 */\n      0x00\n        /* \"submissions/Vera/day5.sol\":460:465  Owner */\n      0x00\n      0x00\n      swap1\n      sload\n      swap1\n      0x0100\n      exp\n      swap1\n      div\n      0xffffffffffffffffffffffffffffffffffffffff\n      and\n        /* \"submissions/Vera/day5.sol\":446:465  msg.sender == Owner */\n      0xffffffffffffffffffffffffffffffffffffffff\n      and\n        /* \"submissions/Vera/day5.sol\":446:456  msg.sender */\n      caller\n        /* \"submissions/Vera/day5.sol\":446:465  msg.sender == Owner */\n      0xffffffffffffffffffffffffffffffffffffffff\n      and\n      eq\n        /* \"submissions/Vera/day5.sol\":438:522  require(msg.sender == Owner,\"Access denied: Only the owner can perform this action\") */\n      tag_58\n      jumpi\n      mload(0x40)\n      0x08c379a000000000000000000000000000000000000000000000000000000000\n      dup2\n      mstore\n      0x04\n      add\n      tag_59\n      swap1\n      tag_60\n      jump\t// in\n    tag_59:\n      mload(0x40)\n      dup1\n      swap2\n      sub\n      swap1\n      revert\n    tag_58:\n        /* \"submissions/Vera/day5.sol\":1311:1325  treasureAmount */\n      sload(0x01)\n        /* \"submissions/Vera/day5.sol\":1303:1326  return (treasureAmount) */\n      swap1\n      pop\n        /* \"submissions/Vera/day5.sol\":1223:1334  function getTreasureDetails() public view onlyOwner returns (uint256){... */\n      swap1\n      jump\t// out\n        /* \"submissions/Vera/day5.sol\":1362:1525  function resetWithdrawalStatus(address _user) public onlyOwner{... */\n    tag_34:\n        /* \"submissions/Vera/day5.sol\":460:465  Owner */\n      0x00\n      0x00\n      swap1\n      sload\n      swap1\n      0x0100\n      exp\n      swap1\n      div\n      0xffffffffffffffffffffffffffffffffffffffff\n      and\n        /* \"submissions/Vera/day5.sol\":446:465  msg.sender == Owner */\n      0xffffffffffffffffffffffffffffffffffffffff\n      and\n        /* \"submissions/Vera/day5.sol\":446:456  msg.sender */\n      caller\n        /* \"submissions/Vera/day5.sol\":446:465  msg.sender == Owner */\n      0xffffffffffffffffffffffffffffffffffffffff\n      and\n      eq\n        /* \"submissions/Vera/day5.sol\":438:522  require(msg.sender == Owner,\"Access denied: Only the owner can perform this action\") */\n      tag_63\n      jumpi\n      mload(0x40)\n      0x08c379a000000000000000000000000000000000000000000000000000000000\n      dup2\n      mstore\n      0x04\n      add\n      tag_64\n      swap1\n      tag_60\n      jump\t// in\n    tag_64:\n      mload(0x40)\n      dup1\n      swap2\n      sub\n      swap1\n      revert\n    tag_63:\n        /* \"submissions/Vera/day5.sol\":1460:1461  0 */\n      0x00\n        /* \"submissions/Vera/day5.sol\":1443:1462  _user != address(0) */\n      0xffffffffffffffffffffffffffffffffffffffff\n      and\n        /* \"submissions/Vera/day5.sol\":1443:1448  _user */\n      dup2\n        /* \"submissions/Vera/day5.sol\":1443:1462  _user != address(0) */\n      0xffffffffffffffffffffffffffffffffffffffff\n      and\n      sub\n        /* \"submissions/Vera/day5.sol\":1435:1479  require(_user != address(0),\"Empty address\") */\n      tag_66\n      jumpi\n      mload(0x40)\n      0x08c379a000000000000000000000000000000000000000000000000000000000\n      dup2\n      mstore\n      0x04\n      add\n      tag_67\n      swap1\n      tag_68\n      jump\t// in\n    tag_67:\n      mload(0x40)\n      dup1\n      swap2\n      sub\n      swap1\n      revert\n    tag_66:\n        /* \"submissions/Vera/day5.sol\":1512:1517  false */\n      0x00\n        /* \"submissions/Vera/day5.sol\":1490:1502  hasWithdrawn */\n      0x04\n        /* \"submissions/Vera/day5.sol\":1490:1509  hasWithdrawn[_user] */\n      0x00\n        /* \"submissions/Vera/day5.sol\":1503:1508  _user */\n      dup4\n        /* \"submissions/Vera/day5.sol\":1490:1509  hasWithdrawn[_user] */\n      0xffffffffffffffffffffffffffffffffffffffff\n      and\n      0xffffffffffffffffffffffffffffffffffffffff\n      and\n      dup2\n      mstore\n      0x20\n      add\n      swap1\n      dup2\n      mstore\n      0x20\n      add\n      0x00\n      keccak256\n      0x00\n        /* \"submissions/Vera/day5.sol\":1490:1517  hasWithdrawn[_user] = false */\n      0x0100\n      exp\n      dup2\n      sload\n      dup2\n      0xff\n      mul\n      not\n      and\n      swap1\n      dup4\n      iszero\n      iszero\n      mul\n      or\n      swap1\n      sstore\n      pop\n        /* \"submissions/Vera/day5.sol\":1362:1525  function resetWithdrawalStatus(address _user) public onlyOwner{... */\n      pop\n      jump\t// out\n        /* \"submissions/Vera/day5.sol\":881:1189  function approveWithdrawl(address _user,uint256 _amount)public onlyOwner{... */\n    tag_38:\n        /* \"submissions/Vera/day5.sol\":460:465  Owner */\n      0x00\n      0x00\n      swap1\n      sload\n      swap1\n      0x0100\n      exp\n      swap1\n      div\n      0xffffffffffffffffffffffffffffffffffffffff\n      and\n        /* \"submissions/Vera/day5.sol\":446:465  msg.sender == Owner */\n      0xffffffffffffffffffffffffffffffffffffffff\n      and\n        /* \"submissions/Vera/day5.sol\":446:456  msg.sender */\n      caller\n        /* \"submissions/Vera/day5.sol\":446:465  msg.sender == Owner */\n      0xffffffffffffffffffffffffffffffffffffffff\n      and\n      eq\n        /* \"submissions/Vera/day5.sol\":438:522  require(msg.sender == Owner,\"Access denied: Only the owner can perform this action\") */\n      tag_70\n      jumpi\n      mload(0x40)\n      0x08c379a000000000000000000000000000000000000000000000000000000000\n      dup2\n      mstore\n      0x04\n      add\n      tag_71\n      swap1\n      tag_60\n      jump\t// in\n    tag_71:\n      mload(0x40)\n      dup1\n      swap2\n      sub\n      swap1\n      revert\n    tag_70:\n        /* \"submissions/Vera/day5.sol\":989:990  0 */\n      0x00\n        /* \"submissions/Vera/day5.sol\":972:991  _user != address(0) */\n      0xffffffffffffffffffffffffffffffffffffffff\n      and\n        /* \"submissions/Vera/day5.sol\":972:977  _user */\n      dup3\n        /* \"submissions/Vera/day5.sol\":972:991  _user != address(0) */\n      0xffffffffffffffffffffffffffffffffffffffff\n      and\n      sub\n        /* \"submissions/Vera/day5.sol\":964:1023  require(_user != address(0),\"Can't approvel empty address\") */\n      tag_73\n      jumpi\n      mload(0x40)\n      0x08c379a000000000000000000000000000000000000000000000000000000000\n      dup2\n      mstore\n      0x04\n      add\n      tag_74\n      swap1\n      tag_75\n      jump\t// in\n    tag_74:\n      mload(0x40)\n      dup1\n      swap2\n      sub\n      swap1\n      revert\n    tag_73:\n        /* \"submissions/Vera/day5.sol\":1053:1067  treasureAmount */\n      sload(0x01)\n        /* \"submissions/Vera/day5.sol\":1042:1049  _amount */\n      dup2\n        /* \"submissions/Vera/day5.sol\":1042:1067  _amount <= treasureAmount */\n      gt\n      iszero\n        /* \"submissions/Vera/day5.sol\":1034:1100  require(_amount <= treasureAmount,\"Not enough treasure available\") */\n      tag_76\n      jumpi\n      mload(0x40)\n      0x08c379a000000000000000000000000000000000000000000000000000000000\n      dup2\n      mstore\n      0x04\n      add\n      tag_77\n      swap1\n      tag_78\n      jump\t// in\n    tag_77:\n      mload(0x40)\n      dup1\n      swap2\n      sub\n      swap1\n      revert\n    tag_76:\n        /* \"submissions/Vera/day5.sol\":1174:1181  _amount */\n      dup1\n        /* \"submissions/Vera/day5.sol\":1153:1164  approveList */\n      0x03\n        /* \"submissions/Vera/day5.sol\":1153:1171  approveList[_user] */\n      0x00\n        /* \"submissions/Vera/day5.sol\":1165:1170  _user */\n      dup5\n        /* \"submissions/Vera/day5.sol\":1153:1171  approveList[_user] */\n      0xffffffffffffffffffffffffffffffffffffffff\n      and\n      0xffffffffffffffffffffffffffffffffffffffff\n      and\n      dup2\n      mstore\n      0x20\n      add\n      swap1\n      dup2\n      mstore\n      0x20\n      add\n      0x00\n      keccak256\n        /* \"submissions/Vera/day5.sol\":1153:1181  approveList[_user] = _amount */\n      dup2\n      swap1\n      sstore\n      pop\n        /* \"submissions/Vera/day5.sol\":881:1189  function approveWithdrawl(address _user,uint256 _amount)public onlyOwner{... */\n      pop\n      pop\n      jump\t// out\n        /* \"submissions/Vera/day5.sol\":1550:2342  function withdrawTreasure(uint256 _amount) public {... */\n    tag_42:\n        /* \"submissions/Vera/day5.sol\":1630:1644  treasureAmount */\n      sload(0x01)\n        /* \"submissions/Vera/day5.sol\":1619:1626  _amount */\n      dup2\n        /* \"submissions/Vera/day5.sol\":1619:1644  _amount <= treasureAmount */\n      gt\n      iszero\n        /* \"submissions/Vera/day5.sol\":1611:1677  require(_amount <= treasureAmount,\"Not enough treasure available\") */\n      tag_80\n      jumpi\n      mload(0x40)\n      0x08c379a000000000000000000000000000000000000000000000000000000000\n      dup2\n      mstore\n      0x04\n      add\n      tag_81\n      swap1\n      tag_78\n      jump\t// in\n    tag_81:\n      mload(0x40)\n      dup1\n      swap2\n      sub\n      swap1\n      revert\n    tag_80:\n        /* \"submissions/Vera/day5.sol\":1705:1710  Owner */\n      0x00\n      0x00\n      swap1\n      sload\n      swap1\n      0x0100\n      exp\n      swap1\n      div\n      0xffffffffffffffffffffffffffffffffffffffff\n      and\n        /* \"submissions/Vera/day5.sol\":1691:1710  msg.sender == Owner */\n      0xffffffffffffffffffffffffffffffffffffffff\n      and\n        /* \"submissions/Vera/day5.sol\":1691:1701  msg.sender */\n      caller\n        /* \"submissions/Vera/day5.sol\":1691:1710  msg.sender == Owner */\n      0xffffffffffffffffffffffffffffffffffffffff\n      and\n      sub\n        /* \"submissions/Vera/day5.sol\":1688:1784  if(msg.sender == Owner){... */\n      tag_82\n      jumpi\n        /* \"submissions/Vera/day5.sol\":1744:1751  _amount */\n      dup1\n        /* \"submissions/Vera/day5.sol\":1726:1740  treasureAmount */\n      0x01\n      0x00\n        /* \"submissions/Vera/day5.sol\":1726:1751  treasureAmount -= _amount */\n      dup3\n      dup3\n      sload\n      tag_83\n      swap2\n      swap1\n      tag_84\n      jump\t// in\n    tag_83:\n      swap3\n      pop\n      pop\n      dup2\n      swap1\n      sstore\n      pop\n        /* \"submissions/Vera/day5.sol\":1766:1773  return; */\n      jump(tag_79)\n        /* \"submissions/Vera/day5.sol\":1688:1784  if(msg.sender == Owner){... */\n    tag_82:\n        /* \"submissions/Vera/day5.sol\":1794:1811  uint256 allowance */\n      0x00\n        /* \"submissions/Vera/day5.sol\":1814:1825  approveList */\n      0x03\n        /* \"submissions/Vera/day5.sol\":1814:1837  approveList[msg.sender] */\n      0x00\n        /* \"submissions/Vera/day5.sol\":1826:1836  msg.sender */\n      caller\n        /* \"submissions/Vera/day5.sol\":1814:1837  approveList[msg.sender] */\n      0xffffffffffffffffffffffffffffffffffffffff\n      and\n      0xffffffffffffffffffffffffffffffffffffffff\n      and\n      dup2\n      mstore\n      0x20\n      add\n      swap1\n      dup2\n      mstore\n      0x20\n      add\n      0x00\n      keccak256\n      sload\n        /* \"submissions/Vera/day5.sol\":1794:1837  uint256 allowance = approveList[msg.sender] */\n      swap1\n      pop\n        /* \"submissions/Vera/day5.sol\":1872:1877  timer */\n      sload(0x02)\n        /* \"submissions/Vera/day5.sol\":1856:1871  block.timestamp */\n      timestamp\n        /* \"submissions/Vera/day5.sol\":1856:1877  block.timestamp>timer */\n      gt\n        /* \"submissions/Vera/day5.sol\":1848:1899  require(block.timestamp>timer,\"Cooling down......\") */\n      tag_85\n      jumpi\n      mload(0x40)\n      0x08c379a000000000000000000000000000000000000000000000000000000000\n      dup2\n      mstore\n      0x04\n      add\n      tag_86\n      swap1\n      tag_87\n      jump\t// in\n    tag_86:\n      mload(0x40)\n      dup1\n      swap2\n      sub\n      swap1\n      revert\n    tag_85:\n        /* \"submissions/Vera/day5.sol\":1919:1931  hasWithdrawn */\n      0x04\n        /* \"submissions/Vera/day5.sol\":1919:1943  hasWithdrawn[msg.sender] */\n      0x00\n        /* \"submissions/Vera/day5.sol\":1932:1942  msg.sender */\n      caller\n        /* \"submissions/Vera/day5.sol\":1919:1943  hasWithdrawn[msg.sender] */\n      0xffffffffffffffffffffffffffffffffffffffff\n      and\n      0xffffffffffffffffffffffffffffffffffffffff\n      and\n      dup2\n      mstore\n      0x20\n      add\n      swap1\n      dup2\n      mstore\n      0x20\n      add\n      0x00\n      keccak256\n      0x00\n      swap1\n      sload\n      swap1\n      0x0100\n      exp\n      swap1\n      div\n      0xff\n      and\n        /* \"submissions/Vera/day5.sol\":1918:1943  !hasWithdrawn[msg.sender] */\n      iszero\n        /* \"submissions/Vera/day5.sol\":1910:1987  require(!hasWithdrawn[msg.sender],\"You have already withdrawn your treasure\") */\n      tag_88\n      jumpi\n      mload(0x40)\n      0x08c379a000000000000000000000000000000000000000000000000000000000\n      dup2\n      mstore\n      0x04\n      add\n      tag_89\n      swap1\n      tag_90\n      jump\t// in\n    tag_89:\n      mload(0x40)\n      dup1\n      swap2\n      sub\n      swap1\n      revert\n    tag_88:\n        /* \"submissions/Vera/day5.sol\":2016:2017  0 */\n      0x00\n        /* \"submissions/Vera/day5.sol\":2006:2015  allowance */\n      dup2\n        /* \"submissions/Vera/day5.sol\":2006:2017  allowance>0 */\n      gt\n        /* \"submissions/Vera/day5.sol\":1998:2058  require(allowance>0,\"You don't have any treasure allowance\") */\n      tag_91\n      jumpi\n      mload(0x40)\n      0x08c379a000000000000000000000000000000000000000000000000000000000\n      dup2\n      mstore\n      0x04\n      add\n      tag_92\n      swap1\n      tag_93\n      jump\t// in\n    tag_92:\n      mload(0x40)\n      dup1\n      swap2\n      sub\n      swap1\n      revert\n    tag_91:\n        /* \"submissions/Vera/day5.sol\":2085:2099  treasureAmount */\n      sload(0x01)\n        /* \"submissions/Vera/day5.sol\":2077:2084  _amount */\n      dup3\n        /* \"submissions/Vera/day5.sol\":2077:2099  _amount<treasureAmount */\n      lt\n        /* \"submissions/Vera/day5.sol\":2069:2135  require(_amount<treasureAmount,\"Not enough treasure in the chest\") */\n      tag_94\n      jumpi\n      mload(0x40)\n      0x08c379a000000000000000000000000000000000000000000000000000000000\n      dup2\n      mstore\n      0x04\n      add\n      tag_95\n      swap1\n      tag_96\n      jump\t// in\n    tag_95:\n      mload(0x40)\n      dup1\n      swap2\n      sub\n      swap1\n      revert\n    tag_94:\n        /* \"submissions/Vera/day5.sol\":2163:2172  allowance */\n      dup1\n        /* \"submissions/Vera/day5.sol\":2154:2161  _amount */\n      dup3\n        /* \"submissions/Vera/day5.sol\":2154:2172  _amount<=allowance */\n      gt\n      iszero\n        /* \"submissions/Vera/day5.sol\":2146:2216  require(_amount<=allowance,\"You don't have enough treasure allowance\") */\n      tag_97\n      jumpi\n      mload(0x40)\n      0x08c379a000000000000000000000000000000000000000000000000000000000\n      dup2\n      mstore\n      0x04\n      add\n      tag_98\n      swap1\n      tag_99\n      jump\t// in\n    tag_98:\n      mload(0x40)\n      dup1\n      swap2\n      sub\n      swap1\n      revert\n    tag_97:\n        /* \"submissions/Vera/day5.sol\":2254:2258  true */\n      0x01\n        /* \"submissions/Vera/day5.sol\":2227:2239  hasWithdrawn */\n      0x04\n        /* \"submissions/Vera/day5.sol\":2227:2251  hasWithdrawn[msg.sender] */\n      0x00\n        /* \"submissions/Vera/day5.sol\":2240:2250  msg.sender */\n      caller\n        /* \"submissions/Vera/day5.sol\":2227:2251  hasWithdrawn[msg.sender] */\n      0xffffffffffffffffffffffffffffffffffffffff\n      and\n      0xffffffffffffffffffffffffffffffffffffffff\n      and\n      dup2\n      mstore\n      0x20\n      add\n      swap1\n      dup2\n      mstore\n      0x20\n      add\n      0x00\n      keccak256\n      0x00\n        /* \"submissions/Vera/day5.sol\":2227:2258  hasWithdrawn[msg.sender] = true */\n      0x0100\n      exp\n      dup2\n      sload\n      dup2\n      0xff\n      mul\n      not\n      and\n      swap1\n      dup4\n      iszero\n      iszero\n      mul\n      or\n      swap1\n      sstore\n      pop\n        /* \"submissions/Vera/day5.sol\":2287:2294  _amount */\n      dup2\n        /* \"submissions/Vera/day5.sol\":2269:2283  treasureAmount */\n      0x01\n      0x00\n        /* \"submissions/Vera/day5.sol\":2269:2294  treasureAmount -= _amount */\n      dup3\n      dup3\n      sload\n      tag_100\n      swap2\n      swap1\n      tag_84\n      jump\t// in\n    tag_100:\n      swap3\n      pop\n      pop\n      dup2\n      swap1\n      sstore\n      pop\n        /* \"submissions/Vera/day5.sol\":2331:2334  120 */\n      0x78\n        /* \"submissions/Vera/day5.sol\":2315:2330  block.timestamp */\n      timestamp\n        /* \"submissions/Vera/day5.sol\":2315:2334  block.timestamp+120 */\n      tag_101\n      swap2\n      swap1\n      tag_102\n      jump\t// in\n    tag_101:\n        /* \"submissions/Vera/day5.sol\":2307:2312  timer */\n      0x02\n        /* \"submissions/Vera/day5.sol\":2307:2334  timer = block.timestamp+120 */\n      dup2\n      swap1\n      sstore\n      pop\n        /* \"submissions/Vera/day5.sol\":1600:2342  {... */\n      pop\n        /* \"submissions/Vera/day5.sol\":1550:2342  function withdrawTreasure(uint256 _amount) public {... */\n    tag_79:\n      pop\n      jump\t// out\n        /* \"submissions/Vera/day5.sol\":88:108  address public Owner */\n    tag_44:\n      0x00\n      0x00\n      swap1\n      sload\n      swap1\n      0x0100\n      exp\n      swap1\n      div\n      0xffffffffffffffffffffffffffffffffffffffff\n      and\n      dup2\n      jump\t// out\n        /* \"submissions/Vera/day5.sol\":763:859  function addTreasure(uint256 _amount) public onlyOwner{... */\n    tag_49:\n        /* \"submissions/Vera/day5.sol\":460:465  Owner */\n      0x00\n      0x00\n      swap1\n      sload\n      swap1\n      0x0100\n      exp\n      swap1\n      div\n      0xffffffffffffffffffffffffffffffffffffffff\n      and\n        /* \"submissions/Vera/day5.sol\":446:465  msg.sender == Owner */\n      0xffffffffffffffffffffffffffffffffffffffff\n      and\n        /* \"submissions/Vera/day5.sol\":446:456  msg.sender */\n      caller\n        /* \"submissions/Vera/day5.sol\":446:465  msg.sender == Owner */\n      0xffffffffffffffffffffffffffffffffffffffff\n      and\n      eq\n        /* \"submissions/Vera/day5.sol\":438:522  require(msg.sender == Owner,\"Access denied: Only the owner can perform this action\") */\n      tag_104\n      jumpi\n      mload(0x40)\n      0x08c379a000000000000000000000000000000000000000000000000000000000\n      dup2\n      mstore\n      0x04\n      add\n      tag_105\n      swap1\n      tag_60\n      jump\t// in\n    tag_105:\n      mload(0x40)\n      dup1\n      swap2\n      sub\n      swap1\n      revert\n    tag_104:\n        /* \"submissions/Vera/day5.sol\":844:851  _amount */\n      dup1\n        /* \"submissions/Vera/day5.sol\":828:842  treasureAmount */\n      0x01\n      0x00\n        /* \"submissions/Vera/day5.sol\":828:851  treasureAmount+=_amount */\n      dup3\n      dup3\n      sload\n      tag_107\n      swap2\n      swap1\n      tag_102\n      jump\t// in\n    tag_107:\n      swap3\n      pop\n      pop\n      dup2\n      swap1\n      sstore\n      pop\n        /* \"submissions/Vera/day5.sol\":763:859  function addTreasure(uint256 _amount) public onlyOwner{... */\n      pop\n      jump\t// out\n        /* \"submissions/Vera/day5.sol\":573:753  function transferOwnership(address _newOwner)public onlyOwner{... */\n    tag_52:\n        /* \"submissions/Vera/day5.sol\":460:465  Owner */\n      0x00\n      0x00\n      swap1\n      sload\n      swap1\n      0x0100\n      exp\n      swap1\n      div\n      0xffffffffffffffffffffffffffffffffffffffff\n      and\n        /* \"submissions/Vera/day5.sol\":446:465  msg.sender == Owner */\n      0xffffffffffffffffffffffffffffffffffffffff\n      and\n        /* \"submissions/Vera/day5.sol\":446:456  msg.sender */\n      caller\n        /* \"submissions/Vera/day5.sol\":446:465  msg.sender == Owner */\n      0xffffffffffffffffffffffffffffffffffffffff\n      and\n      eq\n        /* \"submissions/Vera/day5.sol\":438:522  require(msg.sender == Owner,\"Access denied: Only the owner can perform this action\") */\n      tag_109\n      jumpi\n      mload(0x40)\n      0x08c379a000000000000000000000000000000000000000000000000000000000\n      dup2\n      mstore\n      0x04\n      add\n      tag_110\n      swap1\n      tag_60\n      jump\t// in\n    tag_110:\n      mload(0x40)\n      dup1\n      swap2\n      sub\n      swap1\n      revert\n    tag_109:\n        /* \"submissions/Vera/day5.sol\":674:675  0 */\n      0x00\n        /* \"submissions/Vera/day5.sol\":653:676  _newOwner != address(0) */\n      0xffffffffffffffffffffffffffffffffffffffff\n      and\n        /* \"submissions/Vera/day5.sol\":653:662  _newOwner */\n      dup2\n        /* \"submissions/Vera/day5.sol\":653:676  _newOwner != address(0) */\n      0xffffffffffffffffffffffffffffffffffffffff\n      and\n      sub\n        /* \"submissions/Vera/day5.sol\":645:717  require(_newOwner != address(0),\"Can't change owner to a empty address\") */\n      tag_112\n      jumpi\n      mload(0x40)\n      0x08c379a000000000000000000000000000000000000000000000000000000000\n      dup2\n      mstore\n      0x04\n      add\n      tag_113\n      swap1\n      tag_114\n      jump\t// in\n    tag_113:\n      mload(0x40)\n      dup1\n      swap2\n      sub\n      swap1\n      revert\n    tag_112:\n        /* \"submissions/Vera/day5.sol\":736:745  _newOwner */\n      dup1\n        /* \"submissions/Vera/day5.sol\":728:733  Owner */\n      0x00\n      0x00\n        /* \"submissions/Vera/day5.sol\":728:745  Owner = _newOwner */\n      0x0100\n      exp\n      dup2\n      sload\n      dup2\n      0xffffffffffffffffffffffffffffffffffffffff\n      mul\n      not\n      and\n      swap1\n      dup4\n      0xffffffffffffffffffffffffffffffffffffffff\n      and\n      mul\n      or\n      swap1\n      sstore\n      pop\n        /* \"submissions/Vera/day5.sol\":573:753  function transferOwnership(address _newOwner)public onlyOwner{... */\n      pop\n      jump\t// out\n        /* \"#utility.yul\":7:84   */\n    tag_115:\n        /* \"#utility.yul\":44:51   */\n      0x00\n        /* \"#utility.yul\":73:78   */\n      dup2\n        /* \"#utility.yul\":62:78   */\n      swap1\n      pop\n        /* \"#utility.yul\":7:84   */\n      swap2\n      swap1\n      pop\n      jump\t// out\n        /* \"#utility.yul\":90:208   */\n    tag_116:\n        /* \"#utility.yul\":177:201   */\n      tag_156\n        /* \"#utility.yul\":195:200   */\n      dup2\n        /* \"#utility.yul\":177:201   */\n      tag_115\n      jump\t// in\n    tag_156:\n        /* \"#utility.yul\":172:175   */\n      dup3\n        /* \"#utility.yul\":165:202   */\n      mstore\n        /* \"#utility.yul\":90:208   */\n      pop\n      pop\n      jump\t// out\n        /* \"#utility.yul\":214:304   */\n    tag_117:\n        /* \"#utility.yul\":248:255   */\n      0x00\n        /* \"#utility.yul\":291:296   */\n      dup2\n        /* \"#utility.yul\":284:297   */\n      iszero\n        /* \"#utility.yul\":277:298   */\n      iszero\n        /* \"#utility.yul\":266:298   */\n      swap1\n      pop\n        /* \"#utility.yul\":214:304   */\n      swap2\n      swap1\n      pop\n      jump\t// out\n        /* \"#utility.yul\":310:419   */\n    tag_118:\n        /* \"#utility.yul\":391:412   */\n      tag_159\n        /* \"#utility.yul\":406:411   */\n      dup2\n        /* \"#utility.yul\":391:412   */\n      tag_117\n      jump\t// in\n    tag_159:\n        /* \"#utility.yul\":386:389   */\n      dup3\n        /* \"#utility.yul\":379:413   */\n      mstore\n        /* \"#utility.yul\":310:419   */\n      pop\n      pop\n      jump\t// out\n        /* \"#utility.yul\":425:745   */\n    tag_17:\n        /* \"#utility.yul\":540:544   */\n      0x00\n        /* \"#utility.yul\":578:580   */\n      0x40\n        /* \"#utility.yul\":567:576   */\n      dup3\n        /* \"#utility.yul\":563:581   */\n      add\n        /* \"#utility.yul\":555:581   */\n      swap1\n      pop\n        /* \"#utility.yul\":591:662   */\n      tag_161\n        /* \"#utility.yul\":659:660   */\n      0x00\n        /* \"#utility.yul\":648:657   */\n      dup4\n        /* \"#utility.yul\":644:661   */\n      add\n        /* \"#utility.yul\":635:641   */\n      dup6\n        /* \"#utility.yul\":591:662   */\n      tag_116\n      jump\t// in\n    tag_161:\n        /* \"#utility.yul\":672:738   */\n      tag_162\n        /* \"#utility.yul\":734:736   */\n      0x20\n        /* \"#utility.yul\":723:732   */\n      dup4\n        /* \"#utility.yul\":719:737   */\n      add\n        /* \"#utility.yul\":710:716   */\n      dup5\n        /* \"#utility.yul\":672:738   */\n      tag_118\n      jump\t// in\n    tag_162:\n        /* \"#utility.yul\":425:745   */\n      swap4\n      swap3\n      pop\n      pop\n      pop\n      jump\t// out\n        /* \"#utility.yul\":832:949   */\n    tag_120:\n        /* \"#utility.yul\":941:942   */\n      0x00\n        /* \"#utility.yul\":938:939   */\n      0x00\n        /* \"#utility.yul\":931:943   */\n      revert\n        /* \"#utility.yul\":1078:1204   */\n    tag_122:\n        /* \"#utility.yul\":1115:1122   */\n      0x00\n        /* \"#utility.yul\":1155:1197   */\n      0xffffffffffffffffffffffffffffffffffffffff\n        /* \"#utility.yul\":1148:1153   */\n      dup3\n        /* \"#utility.yul\":1144:1198   */\n      and\n        /* \"#utility.yul\":1133:1198   */\n      swap1\n      pop\n        /* \"#utility.yul\":1078:1204   */\n      swap2\n      swap1\n      pop\n      jump\t// out\n        /* \"#utility.yul\":1210:1306   */\n    tag_123:\n        /* \"#utility.yul\":1247:1254   */\n      0x00\n        /* \"#utility.yul\":1276:1300   */\n      tag_168\n        /* \"#utility.yul\":1294:1299   */\n      dup3\n        /* \"#utility.yul\":1276:1300   */\n      tag_122\n      jump\t// in\n    tag_168:\n        /* \"#utility.yul\":1265:1300   */\n      swap1\n      pop\n        /* \"#utility.yul\":1210:1306   */\n      swap2\n      swap1\n      pop\n      jump\t// out\n        /* \"#utility.yul\":1312:1434   */\n    tag_124:\n        /* \"#utility.yul\":1385:1409   */\n      tag_170\n        /* \"#utility.yul\":1403:1408   */\n      dup2\n        /* \"#utility.yul\":1385:1409   */\n      tag_123\n      jump\t// in\n    tag_170:\n        /* \"#utility.yul\":1378:1383   */\n      dup2\n        /* \"#utility.yul\":1375:1410   */\n      eq\n        /* \"#utility.yul\":1365:1428   */\n      tag_171\n      jumpi\n        /* \"#utility.yul\":1424:1425   */\n      0x00\n        /* \"#utility.yul\":1421:1422   */\n      0x00\n        /* \"#utility.yul\":1414:1426   */\n      revert\n        /* \"#utility.yul\":1365:1428   */\n    tag_171:\n        /* \"#utility.yul\":1312:1434   */\n      pop\n      jump\t// out\n        /* \"#utility.yul\":1440:1579   */\n    tag_125:\n        /* \"#utility.yul\":1486:1491   */\n      0x00\n        /* \"#utility.yul\":1524:1530   */\n      dup2\n        /* \"#utility.yul\":1511:1531   */\n      calldataload\n        /* \"#utility.yul\":1502:1531   */\n      swap1\n      pop\n        /* \"#utility.yul\":1540:1573   */\n      tag_173\n        /* \"#utility.yul\":1567:1572   */\n      dup2\n        /* \"#utility.yul\":1540:1573   */\n      tag_124\n      jump\t// in\n    tag_173:\n        /* \"#utility.yul\":1440:1579   */\n      swap3\n      swap2\n      pop\n      pop\n      jump\t// out\n        /* \"#utility.yul\":1585:1914   */\n    tag_20:\n        /* \"#utility.yul\":1644:1650   */\n      0x00\n        /* \"#utility.yul\":1693:1695   */\n      0x20\n        /* \"#utility.yul\":1681:1690   */\n      dup3\n        /* \"#utility.yul\":1672:1679   */\n      dup5\n        /* \"#utility.yul\":1668:1691   */\n      sub\n        /* \"#utility.yul\":1664:1696   */\n      slt\n        /* \"#utility.yul\":1661:1780   */\n      iszero\n      tag_175\n      jumpi\n        /* \"#utility.yul\":1699:1778   */\n      tag_176\n      tag_120\n      jump\t// in\n    tag_176:\n        /* \"#utility.yul\":1661:1780   */\n    tag_175:\n        /* \"#utility.yul\":1819:1820   */\n      0x00\n        /* \"#utility.yul\":1844:1897   */\n      tag_177\n        /* \"#utility.yul\":1889:1896   */\n      dup5\n        /* \"#utility.yul\":1880:1886   */\n      dup3\n        /* \"#utility.yul\":1869:1878   */\n      dup6\n        /* \"#utility.yul\":1865:1887   */\n      add\n        /* \"#utility.yul\":1844:1897   */\n      tag_125\n      jump\t// in\n    tag_177:\n        /* \"#utility.yul\":1834:1897   */\n      swap2\n      pop\n        /* \"#utility.yul\":1790:1907   */\n      pop\n        /* \"#utility.yul\":1585:1914   */\n      swap3\n      swap2\n      pop\n      pop\n      jump\t// out\n        /* \"#utility.yul\":1920:2130   */\n    tag_23:\n        /* \"#utility.yul\":2007:2011   */\n      0x00\n        /* \"#utility.yul\":2045:2047   */\n      0x20\n        /* \"#utility.yul\":2034:2043   */\n      dup3\n        /* \"#utility.yul\":2030:2048   */\n      add\n        /* \"#utility.yul\":2022:2048   */\n      swap1\n      pop\n        /* \"#utility.yul\":2058:2123   */\n      tag_179\n        /* \"#utility.yul\":2120:2121   */\n      0x00\n        /* \"#utility.yul\":2109:2118   */\n      dup4\n        /* \"#utility.yul\":2105:2122   */\n      add\n        /* \"#utility.yul\":2096:2102   */\n      dup5\n        /* \"#utility.yul\":2058:2123   */\n      tag_118\n      jump\t// in\n    tag_179:\n        /* \"#utility.yul\":1920:2130   */\n      swap3\n      swap2\n      pop\n      pop\n      jump\t// out\n        /* \"#utility.yul\":2136:2358   */\n    tag_28:\n        /* \"#utility.yul\":2229:2233   */\n      0x00\n        /* \"#utility.yul\":2267:2269   */\n      0x20\n        /* \"#utility.yul\":2256:2265   */\n      dup3\n        /* \"#utility.yul\":2252:2270   */\n      add\n        /* \"#utility.yul\":2244:2270   */\n      swap1\n      pop\n        /* \"#utility.yul\":2280:2351   */\n      tag_181\n        /* \"#utility.yul\":2348:2349   */\n      0x00\n        /* \"#utility.yul\":2337:2346   */\n      dup4\n        /* \"#utility.yul\":2333:2350   */\n      add\n        /* \"#utility.yul\":2324:2330   */\n      dup5\n        /* \"#utility.yul\":2280:2351   */\n      tag_116\n      jump\t// in\n    tag_181:\n        /* \"#utility.yul\":2136:2358   */\n      swap3\n      swap2\n      pop\n      pop\n      jump\t// out\n        /* \"#utility.yul\":2364:2486   */\n    tag_126:\n        /* \"#utility.yul\":2437:2461   */\n      tag_183\n        /* \"#utility.yul\":2455:2460   */\n      dup2\n        /* \"#utility.yul\":2437:2461   */\n      tag_115\n      jump\t// in\n    tag_183:\n        /* \"#utility.yul\":2430:2435   */\n      dup2\n        /* \"#utility.yul\":2427:2462   */\n      eq\n        /* \"#utility.yul\":2417:2480   */\n      tag_184\n      jumpi\n        /* \"#utility.yul\":2476:2477   */\n      0x00\n        /* \"#utility.yul\":2473:2474   */\n      0x00\n        /* \"#utility.yul\":2466:2478   */\n      revert\n        /* \"#utility.yul\":2417:2480   */\n    tag_184:\n        /* \"#utility.yul\":2364:2486   */\n      pop\n      jump\t// out\n        /* \"#utility.yul\":2492:2631   */\n    tag_127:\n        /* \"#utility.yul\":2538:2543   */\n      0x00\n        /* \"#utility.yul\":2576:2582   */\n      dup2\n        /* \"#utility.yul\":2563:2583   */\n      calldataload\n        /* \"#utility.yul\":2554:2583   */\n      swap1\n      pop\n        /* \"#utility.yul\":2592:2625   */\n      tag_186\n        /* \"#utility.yul\":2619:2624   */\n      dup2\n        /* \"#utility.yul\":2592:2625   */\n      tag_126\n      jump\t// in\n    tag_186:\n        /* \"#utility.yul\":2492:2631   */\n      swap3\n      swap2\n      pop\n      pop\n      jump\t// out\n        /* \"#utility.yul\":2637:3111   */\n    tag_37:\n        /* \"#utility.yul\":2705:2711   */\n      0x00\n        /* \"#utility.yul\":2713:2719   */\n      0x00\n        /* \"#utility.yul\":2762:2764   */\n      0x40\n        /* \"#utility.yul\":2750:2759   */\n      dup4\n        /* \"#utility.yul\":2741:2748   */\n      dup6\n        /* \"#utility.yul\":2737:2760   */\n      sub\n        /* \"#utility.yul\":2733:2765   */\n      slt\n        /* \"#utility.yul\":2730:2849   */\n      iszero\n      tag_188\n      jumpi\n        /* \"#utility.yul\":2768:2847   */\n      tag_189\n      tag_120\n      jump\t// in\n    tag_189:\n        /* \"#utility.yul\":2730:2849   */\n    tag_188:\n        /* \"#utility.yul\":2888:2889   */\n      0x00\n        /* \"#utility.yul\":2913:2966   */\n      tag_190\n        /* \"#utility.yul\":2958:2965   */\n      dup6\n        /* \"#utility.yul\":2949:2955   */\n      dup3\n        /* \"#utility.yul\":2938:2947   */\n      dup7\n        /* \"#utility.yul\":2934:2956   */\n      add\n        /* \"#utility.yul\":2913:2966   */\n      tag_125\n      jump\t// in\n    tag_190:\n        /* \"#utility.yul\":2903:2966   */\n      swap3\n      pop\n        /* \"#utility.yul\":2859:2976   */\n      pop\n        /* \"#utility.yul\":3015:3017   */\n      0x20\n        /* \"#utility.yul\":3041:3094   */\n      tag_191\n        /* \"#utility.yul\":3086:3093   */\n      dup6\n        /* \"#utility.yul\":3077:3083   */\n      dup3\n        /* \"#utility.yul\":3066:3075   */\n      dup7\n        /* \"#utility.yul\":3062:3084   */\n      add\n        /* \"#utility.yul\":3041:3094   */\n      tag_127\n      jump\t// in\n    tag_191:\n        /* \"#utility.yul\":3031:3094   */\n      swap2\n      pop\n        /* \"#utility.yul\":2986:3104   */\n      pop\n        /* \"#utility.yul\":2637:3111   */\n      swap3\n      pop\n      swap3\n      swap1\n      pop\n      jump\t// out\n        /* \"#utility.yul\":3117:3446   */\n    tag_41:\n        /* \"#utility.yul\":3176:3182   */\n      0x00\n        /* \"#utility.yul\":3225:3227   */\n      0x20\n        /* \"#utility.yul\":3213:3222   */\n      dup3\n        /* \"#utility.yul\":3204:3211   */\n      dup5\n        /* \"#utility.yul\":3200:3223   */\n      sub\n        /* \"#utility.yul\":3196:3228   */\n      slt\n        /* \"#utility.yul\":3193:3312   */\n      iszero\n      tag_193\n      jumpi\n        /* \"#utility.yul\":3231:3310   */\n      tag_194\n      tag_120\n      jump\t// in\n    tag_194:\n        /* \"#utility.yul\":3193:3312   */\n    tag_193:\n        /* \"#utility.yul\":3351:3352   */\n      0x00\n        /* \"#utility.yul\":3376:3429   */\n      tag_195\n        /* \"#utility.yul\":3421:3428   */\n      dup5\n        /* \"#utility.yul\":3412:3418   */\n      dup3\n        /* \"#utility.yul\":3401:3410   */\n      dup6\n        /* \"#utility.yul\":3397:3419   */\n      add\n        /* \"#utility.yul\":3376:3429   */\n      tag_127\n      jump\t// in\n    tag_195:\n        /* \"#utility.yul\":3366:3429   */\n      swap2\n      pop\n        /* \"#utility.yul\":3322:3439   */\n      pop\n        /* \"#utility.yul\":3117:3446   */\n      swap3\n      swap2\n      pop\n      pop\n      jump\t// out\n        /* \"#utility.yul\":3452:3570   */\n    tag_128:\n        /* \"#utility.yul\":3539:3563   */\n      tag_197\n        /* \"#utility.yul\":3557:3562   */\n      dup2\n        /* \"#utility.yul\":3539:3563   */\n      tag_123\n      jump\t// in\n    tag_197:\n        /* \"#utility.yul\":3534:3537   */\n      dup3\n        /* \"#utility.yul\":3527:3564   */\n      mstore\n        /* \"#utility.yul\":3452:3570   */\n      pop\n      pop\n      jump\t// out\n        /* \"#utility.yul\":3576:3798   */\n    tag_46:\n        /* \"#utility.yul\":3669:3673   */\n      0x00\n        /* \"#utility.yul\":3707:3709   */\n      0x20\n        /* \"#utility.yul\":3696:3705   */\n      dup3\n        /* \"#utility.yul\":3692:3710   */\n      add\n        /* \"#utility.yul\":3684:3710   */\n      swap1\n      pop\n        /* \"#utility.yul\":3720:3791   */\n      tag_199\n        /* \"#utility.yul\":3788:3789   */\n      0x00\n        /* \"#utility.yul\":3777:3786   */\n      dup4\n        /* \"#utility.yul\":3773:3790   */\n      add\n        /* \"#utility.yul\":3764:3770   */\n      dup5\n        /* \"#utility.yul\":3720:3791   */\n      tag_128\n      jump\t// in\n    tag_199:\n        /* \"#utility.yul\":3576:3798   */\n      swap3\n      swap2\n      pop\n      pop\n      jump\t// out\n        /* \"#utility.yul\":3804:3973   */\n    tag_129:\n        /* \"#utility.yul\":3888:3899   */\n      0x00\n        /* \"#utility.yul\":3922:3928   */\n      dup3\n        /* \"#utility.yul\":3917:3920   */\n      dup3\n        /* \"#utility.yul\":3910:3929   */\n      mstore\n        /* \"#utility.yul\":3962:3966   */\n      0x20\n        /* \"#utility.yul\":3957:3960   */\n      dup3\n        /* \"#utility.yul\":3953:3967   */\n      add\n        /* \"#utility.yul\":3938:3967   */\n      swap1\n      pop\n        /* \"#utility.yul\":3804:3973   */\n      swap3\n      swap2\n      pop\n      pop\n      jump\t// out\n        /* \"#utility.yul\":3979:4142   */\n    tag_130:\n        /* \"#utility.yul\":4119:4134   */\n      0x596f7520617265204f776e657200000000000000000000000000000000000000\n        /* \"#utility.yul\":4115:4116   */\n      0x00\n        /* \"#utility.yul\":4107:4113   */\n      dup3\n        /* \"#utility.yul\":4103:4117   */\n      add\n        /* \"#utility.yul\":4096:4135   */\n      mstore\n        /* \"#utility.yul\":3979:4142   */\n      pop\n      jump\t// out\n        /* \"#utility.yul\":4148:4514   */\n    tag_131:\n        /* \"#utility.yul\":4290:4293   */\n      0x00\n        /* \"#utility.yul\":4311:4378   */\n      tag_203\n        /* \"#utility.yul\":4375:4377   */\n      0x0d\n        /* \"#utility.yul\":4370:4373   */\n      dup4\n        /* \"#utility.yul\":4311:4378   */\n      tag_129\n      jump\t// in\n    tag_203:\n        /* \"#utility.yul\":4304:4378   */\n      swap2\n      pop\n        /* \"#utility.yul\":4387:4480   */\n      tag_204\n        /* \"#utility.yul\":4476:4479   */\n      dup3\n        /* \"#utility.yul\":4387:4480   */\n      tag_130\n      jump\t// in\n    tag_204:\n        /* \"#utility.yul\":4505:4507   */\n      0x20\n        /* \"#utility.yul\":4500:4503   */\n      dup3\n        /* \"#utility.yul\":4496:4508   */\n      add\n        /* \"#utility.yul\":4489:4508   */\n      swap1\n      pop\n        /* \"#utility.yul\":4148:4514   */\n      swap2\n      swap1\n      pop\n      jump\t// out\n        /* \"#utility.yul\":4520:4939   */\n    tag_56:\n        /* \"#utility.yul\":4686:4690   */\n      0x00\n        /* \"#utility.yul\":4724:4726   */\n      0x20\n        /* \"#utility.yul\":4713:4722   */\n      dup3\n        /* \"#utility.yul\":4709:4727   */\n      add\n        /* \"#utility.yul\":4701:4727   */\n      swap1\n      pop\n        /* \"#utility.yul\":4773:4782   */\n      dup2\n        /* \"#utility.yul\":4767:4771   */\n      dup2\n        /* \"#utility.yul\":4763:4783   */\n      sub\n        /* \"#utility.yul\":4759:4760   */\n      0x00\n        /* \"#utility.yul\":4748:4757   */\n      dup4\n        /* \"#utility.yul\":4744:4761   */\n      add\n        /* \"#utility.yul\":4737:4784   */\n      mstore\n        /* \"#utility.yul\":4801:4932   */\n      tag_206\n        /* \"#utility.yul\":4927:4931   */\n      dup2\n        /* \"#utility.yul\":4801:4932   */\n      tag_131\n      jump\t// in\n    tag_206:\n        /* \"#utility.yul\":4793:4932   */\n      swap1\n      pop\n        /* \"#utility.yul\":4520:4939   */\n      swap2\n      swap1\n      pop\n      jump\t// out\n        /* \"#utility.yul\":4945:5185   */\n    tag_132:\n        /* \"#utility.yul\":5085:5119   */\n      0x4163636573732064656e6965643a204f6e6c7920746865206f776e6572206361\n        /* \"#utility.yul\":5081:5082   */\n      0x00\n        /* \"#utility.yul\":5073:5079   */\n      dup3\n        /* \"#utility.yul\":5069:5083   */\n      add\n        /* \"#utility.yul\":5062:5120   */\n      mstore\n        /* \"#utility.yul\":5154:5177   */\n      0x6e20706572666f726d207468697320616374696f6e0000000000000000000000\n        /* \"#utility.yul\":5149:5151   */\n      0x20\n        /* \"#utility.yul\":5141:5147   */\n      dup3\n        /* \"#utility.yul\":5137:5152   */\n      add\n        /* \"#utility.yul\":5130:5178   */\n      mstore\n        /* \"#utility.yul\":4945:5185   */\n      pop\n      jump\t// out\n        /* \"#utility.yul\":5191:5557   */\n    tag_133:\n        /* \"#utility.yul\":5333:5336   */\n      0x00\n        /* \"#utility.yul\":5354:5421   */\n      tag_209\n        /* \"#utility.yul\":5418:5420   */\n      0x35\n        /* \"#utility.yul\":5413:5416   */\n      dup4\n        /* \"#utility.yul\":5354:5421   */\n      tag_129\n      jump\t// in\n    tag_209:\n        /* \"#utility.yul\":5347:5421   */\n      swap2\n      pop\n        /* \"#utility.yul\":5430:5523   */\n      tag_210\n        /* \"#utility.yul\":5519:5522   */\n      dup3\n        /* \"#utility.yul\":5430:5523   */\n      tag_132\n      jump\t// in\n    tag_210:\n        /* \"#utility.yul\":5548:5550   */\n      0x40\n        /* \"#utility.yul\":5543:5546   */\n      dup3\n        /* \"#utility.yul\":5539:5551   */\n      add\n        /* \"#utility.yul\":5532:5551   */\n      swap1\n      pop\n        /* \"#utility.yul\":5191:5557   */\n      swap2\n      swap1\n      pop\n      jump\t// out\n        /* \"#utility.yul\":5563:5982   */\n    tag_60:\n        /* \"#utility.yul\":5729:5733   */\n      0x00\n        /* \"#utility.yul\":5767:5769   */\n      0x20\n        /* \"#utility.yul\":5756:5765   */\n      dup3\n        /* \"#utility.yul\":5752:5770   */\n      add\n        /* \"#utility.yul\":5744:5770   */\n      swap1\n      pop\n        /* \"#utility.yul\":5816:5825   */\n      dup2\n        /* \"#utility.yul\":5810:5814   */\n      dup2\n        /* \"#utility.yul\":5806:5826   */\n      sub\n        /* \"#utility.yul\":5802:5803   */\n      0x00\n        /* \"#utility.yul\":5791:5800   */\n      dup4\n        /* \"#utility.yul\":5787:5804   */\n      add\n        /* \"#utility.yul\":5780:5827   */\n      mstore\n        /* \"#utility.yul\":5844:5975   */\n      tag_212\n        /* \"#utility.yul\":5970:5974   */\n      dup2\n        /* \"#utility.yul\":5844:5975   */\n      tag_133\n      jump\t// in\n    tag_212:\n        /* \"#utility.yul\":5836:5975   */\n      swap1\n      pop\n        /* \"#utility.yul\":5563:5982   */\n      swap2\n      swap1\n      pop\n      jump\t// out\n        /* \"#utility.yul\":5988:6151   */\n    tag_134:\n        /* \"#utility.yul\":6128:6143   */\n      0x456d707479206164647265737300000000000000000000000000000000000000\n        /* \"#utility.yul\":6124:6125   */\n      0x00\n        /* \"#utility.yul\":6116:6122   */\n      dup3\n        /* \"#utility.yul\":6112:6126   */\n      add\n        /* \"#utility.yul\":6105:6144   */\n      mstore\n        /* \"#utility.yul\":5988:6151   */\n      pop\n      jump\t// out\n        /* \"#utility.yul\":6157:6523   */\n    tag_135:\n        /* \"#utility.yul\":6299:6302   */\n      0x00\n        /* \"#utility.yul\":6320:6387   */\n      tag_215\n        /* \"#utility.yul\":6384:6386   */\n      0x0d\n        /* \"#utility.yul\":6379:6382   */\n      dup4\n        /* \"#utility.yul\":6320:6387   */\n      tag_129\n      jump\t// in\n    tag_215:\n        /* \"#utility.yul\":6313:6387   */\n      swap2\n      pop\n        /* \"#utility.yul\":6396:6489   */\n      tag_216\n        /* \"#utility.yul\":6485:6488   */\n      dup3\n        /* \"#utility.yul\":6396:6489   */\n      tag_134\n      jump\t// in\n    tag_216:\n        /* \"#utility.yul\":6514:6516   */\n      0x20\n        /* \"#utility.yul\":6509:6512   */\n      dup3\n        /* \"#utility.yul\":6505:6517   */\n      add\n        /* \"#utility.yul\":6498:6517   */\n      swap1\n      pop\n        /* \"#utility.yul\":6157:6523   */\n      swap2\n      swap1\n      pop\n      jump\t// out\n        /* \"#utility.yul\":6529:6948   */\n    tag_68:\n        /* \"#utility.yul\":6695:6699   */\n      0x00\n        /* \"#utility.yul\":6733:6735   */\n      0x20\n        /* \"#utility.yul\":6722:6731   */\n      dup3\n        /* \"#utility.yul\":6718:6736   */\n      add\n        /* \"#utility.yul\":6710:6736   */\n      swap1\n      pop\n        /* \"#utility.yul\":6782:6791   */\n      dup2\n        /* \"#utility.yul\":6776:6780   */\n      dup2\n        /* \"#utility.yul\":6772:6792   */\n      sub\n        /* \"#utility.yul\":6768:6769   */\n      0x00\n        /* \"#utility.yul\":6757:6766   */\n      dup4\n        /* \"#utility.yul\":6753:6770   */\n      add\n        /* \"#utility.yul\":6746:6793   */\n      mstore\n        /* \"#utility.yul\":6810:6941   */\n      tag_218\n        /* \"#utility.yul\":6936:6940   */\n      dup2\n        /* \"#utility.yul\":6810:6941   */\n      tag_135\n      jump\t// in\n    tag_218:\n        /* \"#utility.yul\":6802:6941   */\n      swap1\n      pop\n        /* \"#utility.yul\":6529:6948   */\n      swap2\n      swap1\n      pop\n      jump\t// out\n        /* \"#utility.yul\":6954:7132   */\n    tag_136:\n        /* \"#utility.yul\":7094:7124   */\n      0x43616e277420617070726f76656c20656d707479206164647265737300000000\n        /* \"#utility.yul\":7090:7091   */\n      0x00\n        /* \"#utility.yul\":7082:7088   */\n      dup3\n        /* \"#utility.yul\":7078:7092   */\n      add\n        /* \"#utility.yul\":7071:7125   */\n      mstore\n        /* \"#utility.yul\":6954:7132   */\n      pop\n      jump\t// out\n        /* \"#utility.yul\":7138:7504   */\n    tag_137:\n        /* \"#utility.yul\":7280:7283   */\n      0x00\n        /* \"#utility.yul\":7301:7368   */\n      tag_221\n        /* \"#utility.yul\":7365:7367   */\n      0x1c\n        /* \"#utility.yul\":7360:7363   */\n      dup4\n        /* \"#utility.yul\":7301:7368   */\n      tag_129\n      jump\t// in\n    tag_221:\n        /* \"#utility.yul\":7294:7368   */\n      swap2\n      pop\n        /* \"#utility.yul\":7377:7470   */\n      tag_222\n        /* \"#utility.yul\":7466:7469   */\n      dup3\n        /* \"#utility.yul\":7377:7470   */\n      tag_136\n      jump\t// in\n    tag_222:\n        /* \"#utility.yul\":7495:7497   */\n      0x20\n        /* \"#utility.yul\":7490:7493   */\n      dup3\n        /* \"#utility.yul\":7486:7498   */\n      add\n        /* \"#utility.yul\":7479:7498   */\n      swap1\n      pop\n        /* \"#utility.yul\":7138:7504   */\n      swap2\n      swap1\n      pop\n      jump\t// out\n        /* \"#utility.yul\":7510:7929   */\n    tag_75:\n        /* \"#utility.yul\":7676:7680   */\n      0x00\n        /* \"#utility.yul\":7714:7716   */\n      0x20\n        /* \"#utility.yul\":7703:7712   */\n      dup3\n        /* \"#utility.yul\":7699:7717   */\n      add\n        /* \"#utility.yul\":7691:7717   */\n      swap1\n      pop\n        /* \"#utility.yul\":7763:7772   */\n      dup2\n        /* \"#utility.yul\":7757:7761   */\n      dup2\n        /* \"#utility.yul\":7753:7773   */\n      sub\n        /* \"#utility.yul\":7749:7750   */\n      0x00\n        /* \"#utility.yul\":7738:7747   */\n      dup4\n        /* \"#utility.yul\":7734:7751   */\n      add\n        /* \"#utility.yul\":7727:7774   */\n      mstore\n        /* \"#utility.yul\":7791:7922   */\n      tag_224\n        /* \"#utility.yul\":7917:7921   */\n      dup2\n        /* \"#utility.yul\":7791:7922   */\n      tag_137\n      jump\t// in\n    tag_224:\n        /* \"#utility.yul\":7783:7922   */\n      swap1\n      pop\n        /* \"#utility.yul\":7510:7929   */\n      swap2\n      swap1\n      pop\n      jump\t// out\n        /* \"#utility.yul\":7935:8114   */\n    tag_138:\n        /* \"#utility.yul\":8075:8106   */\n      0x4e6f7420656e6f75676820747265617375726520617661696c61626c65000000\n        /* \"#utility.yul\":8071:8072   */\n      0x00\n        /* \"#utility.yul\":8063:8069   */\n      dup3\n        /* \"#utility.yul\":8059:8073   */\n      add\n        /* \"#utility.yul\":8052:8107   */\n      mstore\n        /* \"#utility.yul\":7935:8114   */\n      pop\n      jump\t// out\n        /* \"#utility.yul\":8120:8486   */\n    tag_139:\n        /* \"#utility.yul\":8262:8265   */\n      0x00\n        /* \"#utility.yul\":8283:8350   */\n      tag_227\n        /* \"#utility.yul\":8347:8349   */\n      0x1d\n        /* \"#utility.yul\":8342:8345   */\n      dup4\n        /* \"#utility.yul\":8283:8350   */\n      tag_129\n      jump\t// in\n    tag_227:\n        /* \"#utility.yul\":8276:8350   */\n      swap2\n      pop\n        /* \"#utility.yul\":8359:8452   */\n      tag_228\n        /* \"#utility.yul\":8448:8451   */\n      dup3\n        /* \"#utility.yul\":8359:8452   */\n      tag_138\n      jump\t// in\n    tag_228:\n        /* \"#utility.yul\":8477:8479   */\n      0x20\n        /* \"#utility.yul\":8472:8475   */\n      dup3\n        /* \"#utility.yul\":8468:8480   */\n      add\n        /* \"#utility.yul\":8461:8480   */\n      swap1\n      pop\n        /* \"#utility.yul\":8120:8486   */\n      swap2\n      swap1\n      pop\n      jump\t// out\n        /* \"#utility.yul\":8492:8911   */\n    tag_78:\n        /* \"#utility.yul\":8658:8662   */\n      0x00\n        /* \"#utility.yul\":8696:8698   */\n      0x20\n        /* \"#utility.yul\":8685:8694   */\n      dup3\n        /* \"#utility.yul\":8681:8699   */\n      add\n        /* \"#utility.yul\":8673:8699   */\n      swap1\n      pop\n        /* \"#utility.yul\":8745:8754   */\n      dup2\n        /* \"#utility.yul\":8739:8743   */\n      dup2\n        /* \"#utility.yul\":8735:8755   */\n      sub\n        /* \"#utility.yul\":8731:8732   */\n      0x00\n        /* \"#utility.yul\":8720:8729   */\n      dup4\n        /* \"#utility.yul\":8716:8733   */\n      add\n        /* \"#utility.yul\":8709:8756   */\n      mstore\n        /* \"#utility.yul\":8773:8904   */\n      tag_230\n        /* \"#utility.yul\":8899:8903   */\n      dup2\n        /* \"#utility.yul\":8773:8904   */\n      tag_139\n      jump\t// in\n    tag_230:\n        /* \"#utility.yul\":8765:8904   */\n      swap1\n      pop\n        /* \"#utility.yul\":8492:8911   */\n      swap2\n      swap1\n      pop\n      jump\t// out\n        /* \"#utility.yul\":8917:9097   */\n    tag_140:\n        /* \"#utility.yul\":8965:9042   */\n      0x4e487b7100000000000000000000000000000000000000000000000000000000\n        /* \"#utility.yul\":8962:8963   */\n      0x00\n        /* \"#utility.yul\":8955:9043   */\n      mstore\n        /* \"#utility.yul\":9062:9066   */\n      0x11\n        /* \"#utility.yul\":9059:9060   */\n      0x04\n        /* \"#utility.yul\":9052:9067   */\n      mstore\n        /* \"#utility.yul\":9086:9090   */\n      0x24\n        /* \"#utility.yul\":9083:9084   */\n      0x00\n        /* \"#utility.yul\":9076:9091   */\n      revert\n        /* \"#utility.yul\":9103:9297   */\n    tag_84:\n        /* \"#utility.yul\":9143:9147   */\n      0x00\n        /* \"#utility.yul\":9163:9183   */\n      tag_233\n        /* \"#utility.yul\":9181:9182   */\n      dup3\n        /* \"#utility.yul\":9163:9183   */\n      tag_115\n      jump\t// in\n    tag_233:\n        /* \"#utility.yul\":9158:9183   */\n      swap2\n      pop\n        /* \"#utility.yul\":9197:9217   */\n      tag_234\n        /* \"#utility.yul\":9215:9216   */\n      dup4\n        /* \"#utility.yul\":9197:9217   */\n      tag_115\n      jump\t// in\n    tag_234:\n        /* \"#utility.yul\":9192:9217   */\n      swap3\n      pop\n        /* \"#utility.yul\":9241:9242   */\n      dup3\n        /* \"#utility.yul\":9238:9239   */\n      dup3\n        /* \"#utility.yul\":9234:9243   */\n      sub\n        /* \"#utility.yul\":9226:9243   */\n      swap1\n      pop\n        /* \"#utility.yul\":9265:9266   */\n      dup2\n        /* \"#utility.yul\":9259:9263   */\n      dup2\n        /* \"#utility.yul\":9256:9267   */\n      gt\n        /* \"#utility.yul\":9253:9290   */\n      iszero\n      tag_235\n      jumpi\n        /* \"#utility.yul\":9270:9288   */\n      tag_236\n      tag_140\n      jump\t// in\n    tag_236:\n        /* \"#utility.yul\":9253:9290   */\n    tag_235:\n        /* \"#utility.yul\":9103:9297   */\n      swap3\n      swap2\n      pop\n      pop\n      jump\t// out\n        /* \"#utility.yul\":9303:9471   */\n    tag_141:\n        /* \"#utility.yul\":9443:9463   */\n      0x436f6f6c696e6720646f776e2e2e2e2e2e2e0000000000000000000000000000\n        /* \"#utility.yul\":9439:9440   */\n      0x00\n        /* \"#utility.yul\":9431:9437   */\n      dup3\n        /* \"#utility.yul\":9427:9441   */\n      add\n        /* \"#utility.yul\":9420:9464   */\n      mstore\n        /* \"#utility.yul\":9303:9471   */\n      pop\n      jump\t// out\n        /* \"#utility.yul\":9477:9843   */\n    tag_142:\n        /* \"#utility.yul\":9619:9622   */\n      0x00\n        /* \"#utility.yul\":9640:9707   */\n      tag_239\n        /* \"#utility.yul\":9704:9706   */\n      0x12\n        /* \"#utility.yul\":9699:9702   */\n      dup4\n        /* \"#utility.yul\":9640:9707   */\n      tag_129\n      jump\t// in\n    tag_239:\n        /* \"#utility.yul\":9633:9707   */\n      swap2\n      pop\n        /* \"#utility.yul\":9716:9809   */\n      tag_240\n        /* \"#utility.yul\":9805:9808   */\n      dup3\n        /* \"#utility.yul\":9716:9809   */\n      tag_141\n      jump\t// in\n    tag_240:\n        /* \"#utility.yul\":9834:9836   */\n      0x20\n        /* \"#utility.yul\":9829:9832   */\n      dup3\n        /* \"#utility.yul\":9825:9837   */\n      add\n        /* \"#utility.yul\":9818:9837   */\n      swap1\n      pop\n        /* \"#utility.yul\":9477:9843   */\n      swap2\n      swap1\n      pop\n      jump\t// out\n        /* \"#utility.yul\":9849:10268   */\n    tag_87:\n        /* \"#utility.yul\":10015:10019   */\n      0x00\n        /* \"#utility.yul\":10053:10055   */\n      0x20\n        /* \"#utility.yul\":10042:10051   */\n      dup3\n        /* \"#utility.yul\":10038:10056   */\n      add\n        /* \"#utility.yul\":10030:10056   */\n      swap1\n      pop\n        /* \"#utility.yul\":10102:10111   */\n      dup2\n        /* \"#utility.yul\":10096:10100   */\n      dup2\n        /* \"#utility.yul\":10092:10112   */\n      sub\n        /* \"#utility.yul\":10088:10089   */\n      0x00\n        /* \"#utility.yul\":10077:10086   */\n      dup4\n        /* \"#utility.yul\":10073:10090   */\n      add\n        /* \"#utility.yul\":10066:10113   */\n      mstore\n        /* \"#utility.yul\":10130:10261   */\n      tag_242\n        /* \"#utility.yul\":10256:10260   */\n      dup2\n        /* \"#utility.yul\":10130:10261   */\n      tag_142\n      jump\t// in\n    tag_242:\n        /* \"#utility.yul\":10122:10261   */\n      swap1\n      pop\n        /* \"#utility.yul\":9849:10268   */\n      swap2\n      swap1\n      pop\n      jump\t// out\n        /* \"#utility.yul\":10274:10501   */\n    tag_143:\n        /* \"#utility.yul\":10414:10448   */\n      0x596f75206861766520616c72656164792077697468647261776e20796f757220\n        /* \"#utility.yul\":10410:10411   */\n      0x00\n        /* \"#utility.yul\":10402:10408   */\n      dup3\n        /* \"#utility.yul\":10398:10412   */\n      add\n        /* \"#utility.yul\":10391:10449   */\n      mstore\n        /* \"#utility.yul\":10483:10493   */\n      0x7472656173757265000000000000000000000000000000000000000000000000\n        /* \"#utility.yul\":10478:10480   */\n      0x20\n        /* \"#utility.yul\":10470:10476   */\n      dup3\n        /* \"#utility.yul\":10466:10481   */\n      add\n        /* \"#utility.yul\":10459:10494   */\n      mstore\n        /* \"#utility.yul\":10274:10501   */\n      pop\n      jump\t// out\n        /* \"#utility.yul\":10507:10873   */\n    tag_144:\n        /* \"#utility.yul\":10649:10652   */\n      0x00\n        /* \"#utility.yul\":10670:10737   */\n      tag_245\n        /* \"#utility.yul\":10734:10736   */\n      0x28\n        /* \"#utility.yul\":10729:10732   */\n      dup4\n        /* \"#utility.yul\":10670:10737   */\n      tag_129\n      jump\t// in\n    tag_245:\n        /* \"#utility.yul\":10663:10737   */\n      swap2\n      pop\n        /* \"#utility.yul\":10746:10839   */\n      tag_246\n        /* \"#utility.yul\":10835:10838   */\n      dup3\n        /* \"#utility.yul\":10746:10839   */\n      tag_143\n      jump\t// in\n    tag_246:\n        /* \"#utility.yul\":10864:10866   */\n      0x40\n        /* \"#utility.yul\":10859:10862   */\n      dup3\n        /* \"#utility.yul\":10855:10867   */\n      add\n        /* \"#utility.yul\":10848:10867   */\n      swap1\n      pop\n        /* \"#utility.yul\":10507:10873   */\n      swap2\n      swap1\n      pop\n      jump\t// out\n        /* \"#utility.yul\":10879:11298   */\n    tag_90:\n        /* \"#utility.yul\":11045:11049   */\n      0x00\n        /* \"#utility.yul\":11083:11085   */\n      0x20\n        /* \"#utility.yul\":11072:11081   */\n      dup3\n        /* \"#utility.yul\":11068:11086   */\n      add\n        /* \"#utility.yul\":11060:11086   */\n      swap1\n      pop\n        /* \"#utility.yul\":11132:11141   */\n      dup2\n        /* \"#utility.yul\":11126:11130   */\n      dup2\n        /* \"#utility.yul\":11122:11142   */\n      sub\n        /* \"#utility.yul\":11118:11119   */\n      0x00\n        /* \"#utility.yul\":11107:11116   */\n      dup4\n        /* \"#utility.yul\":11103:11120   */\n      add\n        /* \"#utility.yul\":11096:11143   */\n      mstore\n        /* \"#utility.yul\":11160:11291   */\n      tag_248\n        /* \"#utility.yul\":11286:11290   */\n      dup2\n        /* \"#utility.yul\":11160:11291   */\n      tag_144\n      jump\t// in\n    tag_248:\n        /* \"#utility.yul\":11152:11291   */\n      swap1\n      pop\n        /* \"#utility.yul\":10879:11298   */\n      swap2\n      swap1\n      pop\n      jump\t// out\n        /* \"#utility.yul\":11304:11528   */\n    tag_145:\n        /* \"#utility.yul\":11444:11478   */\n      0x596f7520646f6e2774206861766520616e7920747265617375726520616c6c6f\n        /* \"#utility.yul\":11440:11441   */\n      0x00\n        /* \"#utility.yul\":11432:11438   */\n      dup3\n        /* \"#utility.yul\":11428:11442   */\n      add\n        /* \"#utility.yul\":11421:11479   */\n      mstore\n        /* \"#utility.yul\":11513:11520   */\n      0x77616e6365000000000000000000000000000000000000000000000000000000\n        /* \"#utility.yul\":11508:11510   */\n      0x20\n        /* \"#utility.yul\":11500:11506   */\n      dup3\n        /* \"#utility.yul\":11496:11511   */\n      add\n        /* \"#utility.yul\":11489:11521   */\n      mstore\n        /* \"#utility.yul\":11304:11528   */\n      pop\n      jump\t// out\n        /* \"#utility.yul\":11534:11900   */\n    tag_146:\n        /* \"#utility.yul\":11676:11679   */\n      0x00\n        /* \"#utility.yul\":11697:11764   */\n      tag_251\n        /* \"#utility.yul\":11761:11763   */\n      0x25\n        /* \"#utility.yul\":11756:11759   */\n      dup4\n        /* \"#utility.yul\":11697:11764   */\n      tag_129\n      jump\t// in\n    tag_251:\n        /* \"#utility.yul\":11690:11764   */\n      swap2\n      pop\n        /* \"#utility.yul\":11773:11866   */\n      tag_252\n        /* \"#utility.yul\":11862:11865   */\n      dup3\n        /* \"#utility.yul\":11773:11866   */\n      tag_145\n      jump\t// in\n    tag_252:\n        /* \"#utility.yul\":11891:11893   */\n      0x40\n        /* \"#utility.yul\":11886:11889   */\n      dup3\n        /* \"#utility.yul\":11882:11894   */\n      add\n        /* \"#utility.yul\":11875:11894   */\n      swap1\n      pop\n        /* \"#utility.yul\":11534:11900   */\n      swap2\n      swap1\n      pop\n      jump\t// out\n        /* \"#utility.yul\":11906:12325   */\n    tag_93:\n        /* \"#utility.yul\":12072:12076   */\n      0x00\n        /* \"#utility.yul\":12110:12112   */\n      0x20\n        /* \"#utility.yul\":12099:12108   */\n      dup3\n        /* \"#utility.yul\":12095:12113   */\n      add\n        /* \"#utility.yul\":12087:12113   */\n      swap1\n      pop\n        /* \"#utility.yul\":12159:12168   */\n      dup2\n        /* \"#utility.yul\":12153:12157   */\n      dup2\n        /* \"#utility.yul\":12149:12169   */\n      sub\n        /* \"#utility.yul\":12145:12146   */\n      0x00\n        /* \"#utility.yul\":12134:12143   */\n      dup4\n        /* \"#utility.yul\":12130:12147   */\n      add\n        /* \"#utility.yul\":12123:12170   */\n      mstore\n        /* \"#utility.yul\":12187:12318   */\n      tag_254\n        /* \"#utility.yul\":12313:12317   */\n      dup2\n        /* \"#utility.yul\":12187:12318   */\n      tag_146\n      jump\t// in\n    tag_254:\n        /* \"#utility.yul\":12179:12318   */\n      swap1\n      pop\n        /* \"#utility.yul\":11906:12325   */\n      swap2\n      swap1\n      pop\n      jump\t// out\n        /* \"#utility.yul\":12331:12513   */\n    tag_147:\n        /* \"#utility.yul\":12471:12505   */\n      0x4e6f7420656e6f75676820747265617375726520696e20746865206368657374\n        /* \"#utility.yul\":12467:12468   */\n      0x00\n        /* \"#utility.yul\":12459:12465   */\n      dup3\n        /* \"#utility.yul\":12455:12469   */\n      add\n        /* \"#utility.yul\":12448:12506   */\n      mstore\n        /* \"#utility.yul\":12331:12513   */\n      pop\n      jump\t// out\n        /* \"#utility.yul\":12519:12885   */\n    tag_148:\n        /* \"#utility.yul\":12661:12664   */\n      0x00\n        /* \"#utility.yul\":12682:12749   */\n      tag_257\n        /* \"#utility.yul\":12746:12748   */\n      0x20\n        /* \"#utility.yul\":12741:12744   */\n      dup4\n        /* \"#utility.yul\":12682:12749   */\n      tag_129\n      jump\t// in\n    tag_257:\n        /* \"#utility.yul\":12675:12749   */\n      swap2\n      pop\n        /* \"#utility.yul\":12758:12851   */\n      tag_258\n        /* \"#utility.yul\":12847:12850   */\n      dup3\n        /* \"#utility.yul\":12758:12851   */\n      tag_147\n      jump\t// in\n    tag_258:\n        /* \"#utility.yul\":12876:12878   */\n      0x20\n        /* \"#utility.yul\":12871:12874   */\n      dup3\n        /* \"#utility.yul\":12867:12879   */\n      add\n        /* \"#utility.yul\":12860:12879   */\n      swap1\n      pop\n        /* \"#utility.yul\":12519:12885   */\n      swap2\n      swap1\n      pop\n      jump\t// out\n        /* \"#utility.yul\":12891:13310   */\n    tag_96:\n        /* \"#utility.yul\":13057:13061   */\n      0x00\n        /* \"#utility.yul\":13095:13097   */\n      0x20\n        /* \"#utility.yul\":13084:13093   */\n      dup3\n        /* \"#utility.yul\":13080:13098   */\n      add\n        /* \"#utility.yul\":13072:13098   */\n      swap1\n      pop\n        /* \"#utility.yul\":13144:13153   */\n      dup2\n        /* \"#utility.yul\":13138:13142   */\n      dup2\n        /* \"#utility.yul\":13134:13154   */\n      sub\n        /* \"#utility.yul\":13130:13131   */\n      0x00\n        /* \"#utility.yul\":13119:13128   */\n      dup4\n        /* \"#utility.yul\":13115:13132   */\n      add\n        /* \"#utility.yul\":13108:13155   */\n      mstore\n        /* \"#utility.yul\":13172:13303   */\n      tag_260\n        /* \"#utility.yul\":13298:13302   */\n      dup2\n        /* \"#utility.yul\":13172:13303   */\n      tag_148\n      jump\t// in\n    tag_260:\n        /* \"#utility.yul\":13164:13303   */\n      swap1\n      pop\n        /* \"#utility.yul\":12891:13310   */\n      swap2\n      swap1\n      pop\n      jump\t// out\n        /* \"#utility.yul\":13316:13543   */\n    tag_149:\n        /* \"#utility.yul\":13456:13490   */\n      0x596f7520646f6e2774206861766520656e6f7567682074726561737572652061\n        /* \"#utility.yul\":13452:13453   */\n      0x00\n        /* \"#utility.yul\":13444:13450   */\n      dup3\n        /* \"#utility.yul\":13440:13454   */\n      add\n        /* \"#utility.yul\":13433:13491   */\n      mstore\n        /* \"#utility.yul\":13525:13535   */\n      0x6c6c6f77616e6365000000000000000000000000000000000000000000000000\n        /* \"#utility.yul\":13520:13522   */\n      0x20\n        /* \"#utility.yul\":13512:13518   */\n      dup3\n        /* \"#utility.yul\":13508:13523   */\n      add\n        /* \"#utility.yul\":13501:13536   */\n      mstore\n        /* \"#utility.yul\":13316:13543   */\n      pop\n      jump\t// out\n        /* \"#utility.yul\":13549:13915   */\n    tag_150:\n        /* \"#utility.yul\":13691:13694   */\n      0x00\n        /* \"#utility.yul\":13712:13779   */\n      tag_263\n        /* \"#utility.yul\":13776:13778   */\n      0x28\n        /* \"#utility.yul\":13771:13774   */\n      dup4\n        /* \"#utility.yul\":13712:13779   */\n      tag_129\n      jump\t// in\n    tag_263:\n        /* \"#utility.yul\":13705:13779   */\n      swap2\n      pop\n        /* \"#utility.yul\":13788:13881   */\n      tag_264\n        /* \"#utility.yul\":13877:13880   */\n      dup3\n        /* \"#utility.yul\":13788:13881   */\n      tag_149\n      jump\t// in\n    tag_264:\n        /* \"#utility.yul\":13906:13908   */\n      0x40\n        /* \"#utility.yul\":13901:13904   */\n      dup3\n        /* \"#utility.yul\":13897:13909   */\n      add\n        /* \"#utility.yul\":13890:13909   */\n      swap1\n      pop\n        /* \"#utility.yul\":13549:13915   */\n      swap2\n      swap1\n      pop\n      jump\t// out\n        /* \"#utility.yul\":13921:14340   */\n    tag_99:\n        /* \"#utility.yul\":14087:14091   */\n      0x00\n        /* \"#utility.yul\":14125:14127   */\n      0x20\n        /* \"#utility.yul\":14114:14123   */\n      dup3\n        /* \"#utility.yul\":14110:14128   */\n      add\n        /* \"#utility.yul\":14102:14128   */\n      swap1\n      pop\n        /* \"#utility.yul\":14174:14183   */\n      dup2\n        /* \"#utility.yul\":14168:14172   */\n      dup2\n        /* \"#utility.yul\":14164:14184   */\n      sub\n        /* \"#utility.yul\":14160:14161   */\n      0x00\n        /* \"#utility.yul\":14149:14158   */\n      dup4\n        /* \"#utility.yul\":14145:14162   */\n      add\n        /* \"#utility.yul\":14138:14185   */\n      mstore\n        /* \"#utility.yul\":14202:14333   */\n      tag_266\n        /* \"#utility.yul\":14328:14332   */\n      dup2\n        /* \"#utility.yul\":14202:14333   */\n      tag_150\n      jump\t// in\n    tag_266:\n        /* \"#utility.yul\":14194:14333   */\n      swap1\n      pop\n        /* \"#utility.yul\":13921:14340   */\n      swap2\n      swap1\n      pop\n      jump\t// out\n        /* \"#utility.yul\":14346:14537   */\n    tag_102:\n        /* \"#utility.yul\":14386:14389   */\n      0x00\n        /* \"#utility.yul\":14405:14425   */\n      tag_268\n        /* \"#utility.yul\":14423:14424   */\n      dup3\n        /* \"#utility.yul\":14405:14425   */\n      tag_115\n      jump\t// in\n    tag_268:\n        /* \"#utility.yul\":14400:14425   */\n      swap2\n      pop\n        /* \"#utility.yul\":14439:14459   */\n      tag_269\n        /* \"#utility.yul\":14457:14458   */\n      dup4\n        /* \"#utility.yul\":14439:14459   */\n      tag_115\n      jump\t// in\n    tag_269:\n        /* \"#utility.yul\":14434:14459   */\n      swap3\n      pop\n        /* \"#utility.yul\":14482:14483   */\n      dup3\n        /* \"#utility.yul\":14479:14480   */\n      dup3\n        /* \"#utility.yul\":14475:14484   */\n      add\n        /* \"#utility.yul\":14468:14484   */\n      swap1\n      pop\n        /* \"#utility.yul\":14503:14506   */\n      dup1\n        /* \"#utility.yul\":14500:14501   */\n      dup3\n        /* \"#utility.yul\":14497:14507   */\n      gt\n        /* \"#utility.yul\":14494:14530   */\n      iszero\n      tag_270\n      jumpi\n        /* \"#utility.yul\":14510:14528   */\n      tag_271\n      tag_140\n      jump\t// in\n    tag_271:\n        /* \"#utility.yul\":14494:14530   */\n    tag_270:\n        /* \"#utility.yul\":14346:14537   */\n      swap3\n      swap2\n      pop\n      pop\n      jump\t// out\n        /* \"#utility.yul\":14543:14767   */\n    tag_151:\n        /* \"#utility.yul\":14683:14717   */\n      0x43616e2774206368616e6765206f776e657220746f206120656d707479206164\n        /* \"#utility.yul\":14679:14680   */\n      0x00\n        /* \"#utility.yul\":14671:14677   */\n      dup3\n        /* \"#utility.yul\":14667:14681   */\n      add\n        /* \"#utility.yul\":14660:14718   */\n      mstore\n        /* \"#utility.yul\":14752:14759   */\n      0x6472657373000000000000000000000000000000000000000000000000000000\n        /* \"#utility.yul\":14747:14749   */\n      0x20\n        /* \"#utility.yul\":14739:14745   */\n      dup3\n        /* \"#utility.yul\":14735:14750   */\n      add\n        /* \"#utility.yul\":14728:14760   */\n      mstore\n        /* \"#utility.yul\":14543:14767   */\n      pop\n      jump\t// out\n        /* \"#utility.yul\":14773:15139   */\n    tag_152:\n        /* \"#utility.yul\":14915:14918   */\n      0x00\n        /* \"#utility.yul\":14936:15003   */\n      tag_274\n        /* \"#utility.yul\":15000:15002   */\n      0x25\n        /* \"#utility.yul\":14995:14998   */\n      dup4\n        /* \"#utility.yul\":14936:15003   */\n      tag_129\n      jump\t// in\n    tag_274:\n        /* \"#utility.yul\":14929:15003   */\n      swap2\n      pop\n        /* \"#utility.yul\":15012:15105   */\n      tag_275\n        /* \"#utility.yul\":15101:15104   */\n      dup3\n        /* \"#utility.yul\":15012:15105   */\n      tag_151\n      jump\t// in\n    tag_275:\n        /* \"#utility.yul\":15130:15132   */\n      0x40\n        /* \"#utility.yul\":15125:15128   */\n      dup3\n        /* \"#utility.yul\":15121:15133   */\n      add\n        /* \"#utility.yul\":15114:15133   */\n      swap1\n      pop\n        /* \"#utility.yul\":14773:15139   */\n      swap2\n      swap1\n      pop\n      jump\t// out\n        /* \"#utility.yul\":15145:15564   */\n    tag_114:\n        /* \"#utility.yul\":15311:15315   */\n      0x00\n        /* \"#utility.yul\":15349:15351   */\n      0x20\n        /* \"#utility.yul\":15338:15347   */\n      dup3\n        /* \"#utility.yul\":15334:15352   */\n      add\n        /* \"#utility.yul\":15326:15352   */\n      swap1\n      pop\n        /* \"#utility.yul\":15398:15407   */\n      dup2\n        /* \"#utility.yul\":15392:15396   */\n      dup2\n        /* \"#utility.yul\":15388:15408   */\n      sub\n        /* \"#utility.yul\":15384:15385   */\n      0x00\n        /* \"#utility.yul\":15373:15382   */\n      dup4\n        /* \"#utility.yul\":15369:15386   */\n      add\n        /* \"#utility.yul\":15362:15409   */\n      mstore\n        /* \"#utility.yul\":15426:15557   */\n      tag_277\n        /* \"#utility.yul\":15552:15556   */\n      dup2\n        /* \"#utility.yul\":15426:15557   */\n      tag_152\n      jump\t// in\n    tag_277:\n        /* \"#utility.yul\":15418:15557   */\n      swap1\n      pop\n        /* \"#utility.yul\":15145:15564   */\n      swap2\n      swap1\n      pop\n      jump\t// out\n\n    auxdata: 0xa2646970667358221220e212cc0b91e4177e07c30805cc4d31aafb4cc621025e6405c2fe0938b7044d8564736f6c634300081e0033\n}\n",
				"bytecode": {
					"linkReferences": {},
					"object": "6080604052426002553480156012575f5ffd5b50335f5f6101000a81548173ffffffffffffffffffffffffffffffffffffffff021916908373ffffffffffffffffffffffffffffffffffffffff1602179055506113a58061005f5f395ff3fe608060405234801561000f575f5ffd5b506004361061009c575f3560e01c806394f362631161006457806394f3626314610159578063aca5b34614610175578063b4a99a4e14610191578063e0147005146101af578063f2fde38b146101cb5761009c565b80633b7104f2146100a05780635e2c19db146100bf57806362f5e563146100ef578063774124fa1461011f578063941907de1461013d575b5f5ffd5b6100a86101e7565b6040516100b6929190610bf9565b60405180910390f35b6100d960048036038101906100d49190610c7e565b610307565b6040516100e69190610ca9565b60405180910390f35b61010960048036038101906101049190610c7e565b610324565b6040516101169190610cc2565b60405180910390f35b610127610339565b6040516101349190610cc2565b60405180910390f35b61015760048036038101906101529190610c7e565b6103d0565b005b610173600480360381019061016e9190610d05565b610523565b005b61018f600480360381019061018a9190610d43565b6106aa565b005b6101996109bc565b6040516101a69190610d7d565b60405180910390f35b6101c960048036038101906101c49190610d43565b6109e0565b005b6101e560048036038101906101e09190610c7e565b610a89565b005b5f5f5f5f9054906101000a900473ffffffffffffffffffffffffffffffffffffffff1673ffffffffffffffffffffffffffffffffffffffff163373ffffffffffffffffffffffffffffffffffffffff1603610277576040517f08c379a000000000000000000000000000000000000000000000000000000000815260040161026e90610df0565b60405180910390fd5b60035f3373ffffffffffffffffffffffffffffffffffffffff1673ffffffffffffffffffffffffffffffffffffffff1681526020019081526020015f205460045f3373ffffffffffffffffffffffffffffffffffffffff1673ffffffffffffffffffffffffffffffffffffffff1681526020019081526020015f205f9054906101000a900460ff16915091509091565b6004602052805f5260405f205f915054906101000a900460ff1681565b6003602052805f5260405f205f915090505481565b5f5f5f9054906101000a900473ffffffffffffffffffffffffffffffffffffffff1673ffffffffffffffffffffffffffffffffffffffff163373ffffffffffffffffffffffffffffffffffffffff16146103c8576040517f08c379a00000000000000000000000000000000000000000000000000000000081526004016103bf90610e7e565b60405180910390fd5b600154905090565b5f5f9054906101000a900473ffffffffffffffffffffffffffffffffffffffff1673ffffffffffffffffffffffffffffffffffffffff163373ffffffffffffffffffffffffffffffffffffffff161461045e576040517f08c379a000000000000000000000000000000000000000000000000000000000815260040161045590610e7e565b60405180910390fd5b5f73ffffffffffffffffffffffffffffffffffffffff168173ffffffffffffffffffffffffffffffffffffffff16036104cc576040517f08c379a00000000000000000000000000000000000000000000000000000000081526004016104c390610ee6565b60405180910390fd5b5f60045f8373ffffffffffffffffffffffffffffffffffffffff1673ffffffffffffffffffffffffffffffffffffffff1681526020019081526020015f205f6101000a81548160ff02191690831515021790555050565b5f5f9054906101000a900473ffffffffffffffffffffffffffffffffffffffff1673ffffffffffffffffffffffffffffffffffffffff163373ffffffffffffffffffffffffffffffffffffffff16146105b1576040517f08c379a00000000000000000000000000000000000000000000000000000000081526004016105a890610e7e565b60405180910390fd5b5f73ffffffffffffffffffffffffffffffffffffffff168273ffffffffffffffffffffffffffffffffffffffff160361061f576040517f08c379a000000000000000000000000000000000000000000000000000000000815260040161061690610f4e565b60405180910390fd5b600154811115610664576040517f08c379a000000000000000000000000000000000000000000000000000000000815260040161065b90610fb6565b60405180910390fd5b8060035f8473ffffffffffffffffffffffffffffffffffffffff1673ffffffffffffffffffffffffffffffffffffffff1681526020019081526020015f20819055505050565b6001548111156106ef576040517f08c379a00000000000000000000000000000000000000000000000000000000081526004016106e690610fb6565b60405180910390fd5b5f5f9054906101000a900473ffffffffffffffffffffffffffffffffffffffff1673ffffffffffffffffffffffffffffffffffffffff163373ffffffffffffffffffffffffffffffffffffffff160361075f578060015f8282546107539190611001565b925050819055506109b9565b5f60035f3373ffffffffffffffffffffffffffffffffffffffff1673ffffffffffffffffffffffffffffffffffffffff1681526020019081526020015f2054905060025442116107e4576040517f08c379a00000000000000000000000000000000000000000000000000000000081526004016107db9061107e565b60405180910390fd5b60045f3373ffffffffffffffffffffffffffffffffffffffff1673ffffffffffffffffffffffffffffffffffffffff1681526020019081526020015f205f9054906101000a900460ff161561086e576040517f08c379a00000000000000000000000000000000000000000000000000000000081526004016108659061110c565b60405180910390fd5b5f81116108b0576040517f08c379a00000000000000000000000000000000000000000000000000000000081526004016108a79061119a565b60405180910390fd5b60015482106108f4576040517f08c379a00000000000000000000000000000000000000000000000000000000081526004016108eb90611202565b60405180910390fd5b80821115610937576040517f08c379a000000000000000000000000000000000000000000000000000000000815260040161092e90611290565b60405180910390fd5b600160045f3373ffffffffffffffffffffffffffffffffffffffff1673ffffffffffffffffffffffffffffffffffffffff1681526020019081526020015f205f6101000a81548160ff0219169083151502179055508160015f82825461099d9190611001565b925050819055506078426109b191906112ae565b600281905550505b50565b5f5f9054906101000a900473ffffffffffffffffffffffffffffffffffffffff1681565b5f5f9054906101000a900473ffffffffffffffffffffffffffffffffffffffff1673ffffffffffffffffffffffffffffffffffffffff163373ffffffffffffffffffffffffffffffffffffffff1614610a6e576040517f08c379a0000000000000000000000000000000000000000000000000000000008152600401610a6590610e7e565b60405180910390fd5b8060015f828254610a7f91906112ae565b9250508190555050565b5f5f9054906101000a900473ffffffffffffffffffffffffffffffffffffffff1673ffffffffffffffffffffffffffffffffffffffff163373ffffffffffffffffffffffffffffffffffffffff1614610b17576040517f08c379a0000000000000000000000000000000000000000000000000000000008152600401610b0e90610e7e565b60405180910390fd5b5f73ffffffffffffffffffffffffffffffffffffffff168173ffffffffffffffffffffffffffffffffffffffff1603610b85576040517f08c379a0000000000000000000000000000000000000000000000000000000008152600401610b7c90611351565b60405180910390fd5b805f5f6101000a81548173ffffffffffffffffffffffffffffffffffffffff021916908373ffffffffffffffffffffffffffffffffffffffff16021790555050565b5f819050919050565b610bd981610bc7565b82525050565b5f8115159050919050565b610bf381610bdf565b82525050565b5f604082019050610c0c5f830185610bd0565b610c196020830184610bea565b9392505050565b5f5ffd5b5f73ffffffffffffffffffffffffffffffffffffffff82169050919050565b5f610c4d82610c24565b9050919050565b610c5d81610c43565b8114610c67575f5ffd5b50565b5f81359050610c7881610c54565b92915050565b5f60208284031215610c9357610c92610c20565b5b5f610ca084828501610c6a565b91505092915050565b5f602082019050610cbc5f830184610bea565b92915050565b5f602082019050610cd55f830184610bd0565b92915050565b610ce481610bc7565b8114610cee575f5ffd5b50565b5f81359050610cff81610cdb565b92915050565b5f5f60408385031215610d1b57610d1a610c20565b5b5f610d2885828601610c6a565b9250506020610d3985828601610cf1565b9150509250929050565b5f60208284031215610d5857610d57610c20565b5b5f610d6584828501610cf1565b91505092915050565b610d7781610c43565b82525050565b5f602082019050610d905f830184610d6e565b92915050565b5f82825260208201905092915050565b7f596f7520617265204f776e6572000000000000000000000000000000000000005f82015250565b5f610dda600d83610d96565b9150610de582610da6565b602082019050919050565b5f6020820190508181035f830152610e0781610dce565b9050919050565b7f4163636573732064656e6965643a204f6e6c7920746865206f776e65722063615f8201527f6e20706572666f726d207468697320616374696f6e0000000000000000000000602082015250565b5f610e68603583610d96565b9150610e7382610e0e565b604082019050919050565b5f6020820190508181035f830152610e9581610e5c565b9050919050565b7f456d7074792061646472657373000000000000000000000000000000000000005f82015250565b5f610ed0600d83610d96565b9150610edb82610e9c565b602082019050919050565b5f6020820190508181035f830152610efd81610ec4565b9050919050565b7f43616e277420617070726f76656c20656d7074792061646472657373000000005f82015250565b5f610f38601c83610d96565b9150610f4382610f04565b602082019050919050565b5f6020820190508181035f830152610f6581610f2c565b9050919050565b7f4e6f7420656e6f75676820747265617375726520617661696c61626c650000005f82015250565b5f610fa0601d83610d96565b9150610fab82610f6c565b602082019050919050565b5f6020820190508181035f830152610fcd81610f94565b9050919050565b7f4e487b71000000000000000000000000000000000000000000000000000000005f52601160045260245ffd5b5f61100b82610bc7565b915061101683610bc7565b925082820390508181111561102e5761102d610fd4565b5b92915050565b7f436f6f6c696e6720646f776e2e2e2e2e2e2e00000000000000000000000000005f82015250565b5f611068601283610d96565b915061107382611034565b602082019050919050565b5f6020820190508181035f8301526110958161105c565b9050919050565b7f596f75206861766520616c72656164792077697468647261776e20796f7572205f8201527f7472656173757265000000000000000000000000000000000000000000000000602082015250565b5f6110f6602883610d96565b91506111018261109c565b604082019050919050565b5f6020820190508181035f830152611123816110ea565b9050919050565b7f596f7520646f6e2774206861766520616e7920747265617375726520616c6c6f5f8201527f77616e6365000000000000000000000000000000000000000000000000000000602082015250565b5f611184602583610d96565b915061118f8261112a565b604082019050919050565b5f6020820190508181035f8301526111b181611178565b9050919050565b7f4e6f7420656e6f75676820747265617375726520696e207468652063686573745f82015250565b5f6111ec602083610d96565b91506111f7826111b8565b602082019050919050565b5f6020820190508181035f830152611219816111e0565b9050919050565b7f596f7520646f6e2774206861766520656e6f75676820747265617375726520615f8201527f6c6c6f77616e6365000000000000000000000000000000000000000000000000602082015250565b5f61127a602883610d96565b915061128582611220565b604082019050919050565b5f6020820190508181035f8301526112a78161126e565b9050919050565b5f6112b882610bc7565b91506112c383610bc7565b92508282019050808211156112db576112da610fd4565b5b92915050565b7f43616e2774206368616e6765206f776e657220746f206120656d7074792061645f8201527f6472657373000000000000000000000000000000000000000000000000000000602082015250565b5f61133b602583610d96565b9150611346826112e1565b604082019050919050565b5f6020820190508181035f8301526113688161132f565b905091905056fea2646970667358221220e212cc0b91e4177e07c30805cc4d31aafb4cc621025e6405c2fe0938b7044d8564736f6c634300081e0033",
					"opcodes": "PUSH1 0x80 PUSH1 0x40 MSTORE TIMESTAMP PUSH1 0x2 SSTORE CALLVALUE DUP1 ISZERO PUSH1 0x12 JUMPI PUSH0 PUSH0 REVERT JUMPDEST POP CALLER PUSH0 PUSH0 PUSH2 0x100 EXP DUP2 SLOAD DUP2 PUSH20 0xFFFFFFFFFFFFFFFFFFFFFFFFFFFFFFFFFFFFFFFF MUL NOT AND SWAP1 DUP4 PUSH20 0xFFFFFFFFFFFFFFFFFFFFFFFFFFFFFFFFFFFFFFFF AND MUL OR SWAP1 SSTORE POP PUSH2 0x13A5 DUP1 PUSH2 0x5F PUSH0 CODECOPY PUSH0 RETURN INVALID PUSH1 0x80 PUSH1 0x40 MSTORE CALLVALUE DUP1 ISZERO PUSH2 0xF JUMPI PUSH0 PUSH0 REVERT JUMPDEST POP PUSH1 0x4 CALLDATASIZE LT PUSH2 0x9C JUMPI PUSH0 CALLDATALOAD PUSH1 0xE0 SHR DUP1 PUSH4 0x94F36263 GT PUSH2 0x64 JUMPI DUP1 PUSH4 0x94F36263 EQ PUSH2 0x159 JUMPI DUP1 PUSH4 0xACA5B346 EQ PUSH2 0x175 JUMPI DUP1 PUSH4 0xB4A99A4E EQ PUSH2 0x191 JUMPI DUP1 PUSH4 0xE0147005 EQ PUSH2 0x1AF JUMPI DUP1 PUSH4 0xF2FDE38B EQ PUSH2 0x1CB JUMPI PUSH2 0x9C JUMP JUMPDEST DUP1 PUSH4 0x3B7104F2 EQ PUSH2 0xA0 JUMPI DUP1 PUSH4 0x5E2C19DB EQ PUSH2 0xBF JUMPI DUP1 PUSH4 0x62F5E563 EQ PUSH2 0xEF JUMPI DUP1 PUSH4 0x774124FA EQ PUSH2 0x11F JUMPI DUP1 PUSH4 0x941907DE EQ PUSH2 0x13D JUMPI JUMPDEST PUSH0 PUSH0 REVERT JUMPDEST PUSH2 0xA8 PUSH2 0x1E7 JUMP JUMPDEST PUSH1 0x40 MLOAD PUSH2 0xB6 SWAP3 SWAP2 SWAP1 PUSH2 0xBF9 JUMP JUMPDEST PUSH1 0x40 MLOAD DUP1 SWAP2 SUB SWAP1 RETURN JUMPDEST PUSH2 0xD9 PUSH1 0x4 DUP1 CALLDATASIZE SUB DUP2 ADD SWAP1 PUSH2 0xD4 SWAP2 SWAP1 PUSH2 0xC7E JUMP JUMPDEST PUSH2 0x307 JUMP JUMPDEST PUSH1 0x40 MLOAD PUSH2 0xE6 SWAP2 SWAP1 PUSH2 0xCA9 JUMP JUMPDEST PUSH1 0x40 MLOAD DUP1 SWAP2 SUB SWAP1 RETURN JUMPDEST PUSH2 0x109 PUSH1 0x4 DUP1 CALLDATASIZE SUB DUP2 ADD SWAP1 PUSH2 0x104 SWAP2 SWAP1 PUSH2 0xC7E JUMP JUMPDEST PUSH2 0x324 JUMP JUMPDEST PUSH1 0x40 MLOAD PUSH2 0x116 SWAP2 SWAP1 PUSH2 0xCC2 JUMP JUMPDEST PUSH1 0x40 MLOAD DUP1 SWAP2 SUB SWAP1 RETURN JUMPDEST PUSH2 0x127 PUSH2 0x339 JUMP JUMPDEST PUSH1 0x40 MLOAD PUSH2 0x134 SWAP2 SWAP1 PUSH2 0xCC2 JUMP JUMPDEST PUSH1 0x40 MLOAD DUP1 SWAP2 SUB SWAP1 RETURN JUMPDEST PUSH2 0x157 PUSH1 0x4 DUP1 CALLDATASIZE SUB DUP2 ADD SWAP1 PUSH2 0x152 SWAP2 SWAP1 PUSH2 0xC7E JUMP JUMPDEST PUSH2 0x3D0 JUMP JUMPDEST STOP JUMPDEST PUSH2 0x173 PUSH1 0x4 DUP1 CALLDATASIZE SUB DUP2 ADD SWAP1 PUSH2 0x16E SWAP2 SWAP1 PUSH2 0xD05 JUMP JUMPDEST PUSH2 0x523 JUMP JUMPDEST STOP JUMPDEST PUSH2 0x18F PUSH1 0x4 DUP1 CALLDATASIZE SUB DUP2 ADD SWAP1 PUSH2 0x18A SWAP2 SWAP1 PUSH2 0xD43 JUMP JUMPDEST PUSH2 0x6AA JUMP JUMPDEST STOP JUMPDEST PUSH2 0x199 PUSH2 0x9BC JUMP JUMPDEST PUSH1 0x40 MLOAD PUSH2 0x1A6 SWAP2 SWAP1 PUSH2 0xD7D JUMP JUMPDEST PUSH1 0x40 MLOAD DUP1 SWAP2 SUB SWAP1 RETURN JUMPDEST PUSH2 0x1C9 PUSH1 0x4 DUP1 CALLDATASIZE SUB DUP2 ADD SWAP1 PUSH2 0x1C4 SWAP2 SWAP1 PUSH2 0xD43 JUMP JUMPDEST PUSH2 0x9E0 JUMP JUMPDEST STOP JUMPDEST PUSH2 0x1E5 PUSH1 0x4 DUP1 CALLDATASIZE SUB DUP2 ADD SWAP1 PUSH2 0x1E0 SWAP2 SWAP1 PUSH2 0xC7E JUMP JUMPDEST PUSH2 0xA89 JUMP JUMPDEST STOP JUMPDEST PUSH0 PUSH0 PUSH0 PUSH0 SWAP1 SLOAD SWAP1 PUSH2 0x100 EXP SWAP1 DIV PUSH20 0xFFFFFFFFFFFFFFFFFFFFFFFFFFFFFFFFFFFFFFFF AND PUSH20 0xFFFFFFFFFFFFFFFFFFFFFFFFFFFFFFFFFFFFFFFF AND CALLER PUSH20 0xFFFFFFFFFFFFFFFFFFFFFFFFFFFFFFFFFFFFFFFF AND SUB PUSH2 0x277 JUMPI PUSH1 0x40 MLOAD PUSH32 0x8C379A000000000000000000000000000000000000000000000000000000000 DUP2 MSTORE PUSH1 0x4 ADD PUSH2 0x26E SWAP1 PUSH2 0xDF0 JUMP JUMPDEST PUSH1 0x40 MLOAD DUP1 SWAP2 SUB SWAP1 REVERT JUMPDEST PUSH1 0x3 PUSH0 CALLER PUSH20 0xFFFFFFFFFFFFFFFFFFFFFFFFFFFFFFFFFFFFFFFF AND PUSH20 0xFFFFFFFFFFFFFFFFFFFFFFFFFFFFFFFFFFFFFFFF AND DUP2 MSTORE PUSH1 0x20 ADD SWAP1 DUP2 MSTORE PUSH1 0x20 ADD PUSH0 KECCAK256 SLOAD PUSH1 0x4 PUSH0 CALLER PUSH20 0xFFFFFFFFFFFFFFFFFFFFFFFFFFFFFFFFFFFFFFFF AND PUSH20 0xFFFFFFFFFFFFFFFFFFFFFFFFFFFFFFFFFFFFFFFF AND DUP2 MSTORE PUSH1 0x20 ADD SWAP1 DUP2 MSTORE PUSH1 0x20 ADD PUSH0 KECCAK256 PUSH0 SWAP1 SLOAD SWAP1 PUSH2 0x100 EXP SWAP1 DIV PUSH1 0xFF AND SWAP2 POP SWAP2 POP SWAP1 SWAP2 JUMP JUMPDEST PUSH1 0x4 PUSH1 0x20 MSTORE DUP1 PUSH0 MSTORE PUSH1 0x40 PUSH0 KECCAK256 PUSH0 SWAP2 POP SLOAD SWAP1 PUSH2 0x100 EXP SWAP1 DIV PUSH1 0xFF AND DUP2 JUMP JUMPDEST PUSH1 0x3 PUSH1 0x20 MSTORE DUP1 PUSH0 MSTORE PUSH1 0x40 PUSH0 KECCAK256 PUSH0 SWAP2 POP SWAP1 POP SLOAD DUP2 JUMP JUMPDEST PUSH0 PUSH0 PUSH0 SWAP1 SLOAD SWAP1 PUSH2 0x100 EXP SWAP1 DIV PUSH20 0xFFFFFFFFFFFFFFFFFFFFFFFFFFFFFFFFFFFFFFFF AND PUSH20 0xFFFFFFFFFFFFFFFFFFFFFFFFFFFFFFFFFFFFFFFF AND CALLER PUSH20 0xFFFFFFFFFFFFFFFFFFFFFFFFFFFFFFFFFFFFFFFF AND EQ PUSH2 0x3C8 JUMPI PUSH1 0x40 MLOAD PUSH32 0x8C379A000000000000000000000000000000000000000000000000000000000 DUP2 MSTORE PUSH1 0x4 ADD PUSH2 0x3BF SWAP1 PUSH2 0xE7E JUMP JUMPDEST PUSH1 0x40 MLOAD DUP1 SWAP2 SUB SWAP1 REVERT JUMPDEST PUSH1 0x1 SLOAD SWAP1 POP SWAP1 JUMP JUMPDEST PUSH0 PUSH0 SWAP1 SLOAD SWAP1 PUSH2 0x100 EXP SWAP1 DIV PUSH20 0xFFFFFFFFFFFFFFFFFFFFFFFFFFFFFFFFFFFFFFFF AND PUSH20 0xFFFFFFFFFFFFFFFFFFFFFFFFFFFFFFFFFFFFFFFF AND CALLER PUSH20 0xFFFFFFFFFFFFFFFFFFFFFFFFFFFFFFFFFFFFFFFF AND EQ PUSH2 0x45E JUMPI PUSH1 0x40 MLOAD PUSH32 0x8C379A000000000000000000000000000000000000000000000000000000000 DUP2 MSTORE PUSH1 0x4 ADD PUSH2 0x455 SWAP1 PUSH2 0xE7E JUMP JUMPDEST PUSH1 0x40 MLOAD DUP1 SWAP2 SUB SWAP1 REVERT JUMPDEST PUSH0 PUSH20 0xFFFFFFFFFFFFFFFFFFFFFFFFFFFFFFFFFFFFFFFF AND DUP2 PUSH20 0xFFFFFFFFFFFFFFFFFFFFFFFFFFFFFFFFFFFFFFFF AND SUB PUSH2 0x4CC JUMPI PUSH1 0x40 MLOAD PUSH32 0x8C379A000000000000000000000000000000000000000000000000000000000 DUP2 MSTORE PUSH1 0x4 ADD PUSH2 0x4C3 SWAP1 PUSH2 0xEE6 JUMP JUMPDEST PUSH1 0x40 MLOAD DUP1 SWAP2 SUB SWAP1 REVERT JUMPDEST PUSH0 PUSH1 0x4 PUSH0 DUP4 PUSH20 0xFFFFFFFFFFFFFFFFFFFFFFFFFFFFFFFFFFFFFFFF AND PUSH20 0xFFFFFFFFFFFFFFFFFFFFFFFFFFFFFFFFFFFFFFFF AND DUP2 MSTORE PUSH1 0x20 ADD SWAP1 DUP2 MSTORE PUSH1 0x20 ADD PUSH0 KECCAK256 PUSH0 PUSH2 0x100 EXP DUP2 SLOAD DUP2 PUSH1 0xFF MUL NOT AND SWAP1 DUP4 ISZERO ISZERO MUL OR SWAP1 SSTORE POP POP JUMP JUMPDEST PUSH0 PUSH0 SWAP1 SLOAD SWAP1 PUSH2 0x100 EXP SWAP1 DIV PUSH20 0xFFFFFFFFFFFFFFFFFFFFFFFFFFFFFFFFFFFFFFFF AND PUSH20 0xFFFFFFFFFFFFFFFFFFFFFFFFFFFFFFFFFFFFFFFF AND CALLER PUSH20 0xFFFFFFFFFFFFFFFFFFFFFFFFFFFFFFFFFFFFFFFF AND EQ PUSH2 0x5B1 JUMPI PUSH1 0x40 MLOAD PUSH32 0x8C379A000000000000000000000000000000000000000000000000000000000 DUP2 MSTORE PUSH1 0x4 ADD PUSH2 0x5A8 SWAP1 PUSH2 0xE7E JUMP JUMPDEST PUSH1 0x40 MLOAD DUP1 SWAP2 SUB SWAP1 REVERT JUMPDEST PUSH0 PUSH20 0xFFFFFFFFFFFFFFFFFFFFFFFFFFFFFFFFFFFFFFFF AND DUP3 PUSH20 0xFFFFFFFFFFFFFFFFFFFFFFFFFFFFFFFFFFFFFFFF AND SUB PUSH2 0x61F JUMPI PUSH1 0x40 MLOAD PUSH32 0x8C379A000000000000000000000000000000000000000000000000000000000 DUP2 MSTORE PUSH1 0x4 ADD PUSH2 0x616 SWAP1 PUSH2 0xF4E JUMP JUMPDEST PUSH1 0x40 MLOAD DUP1 SWAP2 SUB SWAP1 REVERT JUMPDEST PUSH1 0x1 SLOAD DUP2 GT ISZERO PUSH2 0x664 JUMPI PUSH1 0x40 MLOAD PUSH32 0x8C379A000000000000000000000000000000000000000000000000000000000 DUP2 MSTORE PUSH1 0x4 ADD PUSH2 0x65B SWAP1 PUSH2 0xFB6 JUMP JUMPDEST PUSH1 0x40 MLOAD DUP1 SWAP2 SUB SWAP1 REVERT JUMPDEST DUP1 PUSH1 0x3 PUSH0 DUP5 PUSH20 0xFFFFFFFFFFFFFFFFFFFFFFFFFFFFFFFFFFFFFFFF AND PUSH20 0xFFFFFFFFFFFFFFFFFFFFFFFFFFFFFFFFFFFFFFFF AND DUP2 MSTORE PUSH1 0x20 ADD SWAP1 DUP2 MSTORE PUSH1 0x20 ADD PUSH0 KECCAK256 DUP2 SWAP1 SSTORE POP POP POP JUMP JUMPDEST PUSH1 0x1 SLOAD DUP2 GT ISZERO PUSH2 0x6EF JUMPI PUSH1 0x40 MLOAD PUSH32 0x8C379A000000000000000000000000000000000000000000000000000000000 DUP2 MSTORE PUSH1 0x4 ADD PUSH2 0x6E6 SWAP1 PUSH2 0xFB6 JUMP JUMPDEST PUSH1 0x40 MLOAD DUP1 SWAP2 SUB SWAP1 REVERT JUMPDEST PUSH0 PUSH0 SWAP1 SLOAD SWAP1 PUSH2 0x100 EXP SWAP1 DIV PUSH20 0xFFFFFFFFFFFFFFFFFFFFFFFFFFFFFFFFFFFFFFFF AND PUSH20 0xFFFFFFFFFFFFFFFFFFFFFFFFFFFFFFFFFFFFFFFF AND CALLER PUSH20 0xFFFFFFFFFFFFFFFFFFFFFFFFFFFFFFFFFFFFFFFF AND SUB PUSH2 0x75F JUMPI DUP1 PUSH1 0x1 PUSH0 DUP3 DUP3 SLOAD PUSH2 0x753 SWAP2 SWAP1 PUSH2 0x1001 JUMP JUMPDEST SWAP3 POP POP DUP2 SWAP1 SSTORE POP PUSH2 0x9B9 JUMP JUMPDEST PUSH0 PUSH1 0x3 PUSH0 CALLER PUSH20 0xFFFFFFFFFFFFFFFFFFFFFFFFFFFFFFFFFFFFFFFF AND PUSH20 0xFFFFFFFFFFFFFFFFFFFFFFFFFFFFFFFFFFFFFFFF AND DUP2 MSTORE PUSH1 0x20 ADD SWAP1 DUP2 MSTORE PUSH1 0x20 ADD PUSH0 KECCAK256 SLOAD SWAP1 POP PUSH1 0x2 SLOAD TIMESTAMP GT PUSH2 0x7E4 JUMPI PUSH1 0x40 MLOAD PUSH32 0x8C379A000000000000000000000000000000000000000000000000000000000 DUP2 MSTORE PUSH1 0x4 ADD PUSH2 0x7DB SWAP1 PUSH2 0x107E JUMP JUMPDEST PUSH1 0x40 MLOAD DUP1 SWAP2 SUB SWAP1 REVERT JUMPDEST PUSH1 0x4 PUSH0 CALLER PUSH20 0xFFFFFFFFFFFFFFFFFFFFFFFFFFFFFFFFFFFFFFFF AND PUSH20 0xFFFFFFFFFFFFFFFFFFFFFFFFFFFFFFFFFFFFFFFF AND DUP2 MSTORE PUSH1 0x20 ADD SWAP1 DUP2 MSTORE PUSH1 0x20 ADD PUSH0 KECCAK256 PUSH0 SWAP1 SLOAD SWAP1 PUSH2 0x100 EXP SWAP1 DIV PUSH1 0xFF AND ISZERO PUSH2 0x86E JUMPI PUSH1 0x40 MLOAD PUSH32 0x8C379A000000000000000000000000000000000000000000000000000000000 DUP2 MSTORE PUSH1 0x4 ADD PUSH2 0x865 SWAP1 PUSH2 0x110C JUMP JUMPDEST PUSH1 0x40 MLOAD DUP1 SWAP2 SUB SWAP1 REVERT JUMPDEST PUSH0 DUP2 GT PUSH2 0x8B0 JUMPI PUSH1 0x40 MLOAD PUSH32 0x8C379A000000000000000000000000000000000000000000000000000000000 DUP2 MSTORE PUSH1 0x4 ADD PUSH2 0x8A7 SWAP1 PUSH2 0x119A JUMP JUMPDEST PUSH1 0x40 MLOAD DUP1 SWAP2 SUB SWAP1 REVERT JUMPDEST PUSH1 0x1 SLOAD DUP3 LT PUSH2 0x8F4 JUMPI PUSH1 0x40 MLOAD PUSH32 0x8C379A000000000000000000000000000000000000000000000000000000000 DUP2 MSTORE PUSH1 0x4 ADD PUSH2 0x8EB SWAP1 PUSH2 0x1202 JUMP JUMPDEST PUSH1 0x40 MLOAD DUP1 SWAP2 SUB SWAP1 REVERT JUMPDEST DUP1 DUP3 GT ISZERO PUSH2 0x937 JUMPI PUSH1 0x40 MLOAD PUSH32 0x8C379A000000000000000000000000000000000000000000000000000000000 DUP2 MSTORE PUSH1 0x4 ADD PUSH2 0x92E SWAP1 PUSH2 0x1290 JUMP JUMPDEST PUSH1 0x40 MLOAD DUP1 SWAP2 SUB SWAP1 REVERT JUMPDEST PUSH1 0x1 PUSH1 0x4 PUSH0 CALLER PUSH20 0xFFFFFFFFFFFFFFFFFFFFFFFFFFFFFFFFFFFFFFFF AND PUSH20 0xFFFFFFFFFFFFFFFFFFFFFFFFFFFFFFFFFFFFFFFF AND DUP2 MSTORE PUSH1 0x20 ADD SWAP1 DUP2 MSTORE PUSH1 0x20 ADD PUSH0 KECCAK256 PUSH0 PUSH2 0x100 EXP DUP2 SLOAD DUP2 PUSH1 0xFF MUL NOT AND SWAP1 DUP4 ISZERO ISZERO MUL OR SWAP1 SSTORE POP DUP2 PUSH1 0x1 PUSH0 DUP3 DUP3 SLOAD PUSH2 0x99D SWAP2 SWAP1 PUSH2 0x1001 JUMP JUMPDEST SWAP3 POP POP DUP2 SWAP1 SSTORE POP PUSH1 0x78 TIMESTAMP PUSH2 0x9B1 SWAP2 SWAP1 PUSH2 0x12AE JUMP JUMPDEST PUSH1 0x2 DUP2 SWAP1 SSTORE POP POP JUMPDEST POP JUMP JUMPDEST PUSH0 PUSH0 SWAP1 SLOAD SWAP1 PUSH2 0x100 EXP SWAP1 DIV PUSH20 0xFFFFFFFFFFFFFFFFFFFFFFFFFFFFFFFFFFFFFFFF AND DUP2 JUMP JUMPDEST PUSH0 PUSH0 SWAP1 SLOAD SWAP1 PUSH2 0x100 EXP SWAP1 DIV PUSH20 0xFFFFFFFFFFFFFFFFFFFFFFFFFFFFFFFFFFFFFFFF AND PUSH20 0xFFFFFFFFFFFFFFFFFFFFFFFFFFFFFFFFFFFFFFFF AND CALLER PUSH20 0xFFFFFFFFFFFFFFFFFFFFFFFFFFFFFFFFFFFFFFFF AND EQ PUSH2 0xA6E JUMPI PUSH1 0x40 MLOAD PUSH32 0x8C379A000000000000000000000000000000000000000000000000000000000 DUP2 MSTORE PUSH1 0x4 ADD PUSH2 0xA65 SWAP1 PUSH2 0xE7E JUMP JUMPDEST PUSH1 0x40 MLOAD DUP1 SWAP2 SUB SWAP1 REVERT JUMPDEST DUP1 PUSH1 0x1 PUSH0 DUP3 DUP3 SLOAD PUSH2 0xA7F SWAP2 SWAP1 PUSH2 0x12AE JUMP JUMPDEST SWAP3 POP POP DUP2 SWAP1 SSTORE POP POP JUMP JUMPDEST PUSH0 PUSH0 SWAP1 SLOAD SWAP1 PUSH2 0x100 EXP SWAP1 DIV PUSH20 0xFFFFFFFFFFFFFFFFFFFFFFFFFFFFFFFFFFFFFFFF AND PUSH20 0xFFFFFFFFFFFFFFFFFFFFFFFFFFFFFFFFFFFFFFFF AND CALLER PUSH20 0xFFFFFFFFFFFFFFFFFFFFFFFFFFFFFFFFFFFFFFFF AND EQ PUSH2 0xB17 JUMPI PUSH1 0x40 MLOAD PUSH32 0x8C379A000000000000000000000000000000000000000000000000000000000 DUP2 MSTORE PUSH1 0x4 ADD PUSH2 0xB0E SWAP1 PUSH2 0xE7E JUMP JUMPDEST PUSH1 0x40 MLOAD DUP1 SWAP2 SUB SWAP1 REVERT JUMPDEST PUSH0 PUSH20 0xFFFFFFFFFFFFFFFFFFFFFFFFFFFFFFFFFFFFFFFF AND DUP2 PUSH20 0xFFFFFFFFFFFFFFFFFFFFFFFFFFFFFFFFFFFFFFFF AND SUB PUSH2 0xB85 JUMPI PUSH1 0x40 MLOAD PUSH32 0x8C379A000000000000000000000000000000000000000000000000000000000 DUP2 MSTORE PUSH1 0x4 ADD PUSH2 0xB7C SWAP1 PUSH2 0x1351 JUMP JUMPDEST PUSH1 0x40 MLOAD DUP1 SWAP2 SUB SWAP1 REVERT JUMPDEST DUP1 PUSH0 PUSH0 PUSH2 0x100 EXP DUP2 SLOAD DUP2 PUSH20 0xFFFFFFFFFFFFFFFFFFFFFFFFFFFFFFFFFFFFFFFF MUL NOT AND SWAP1 DUP4 PUSH20 0xFFFFFFFFFFFFFFFFFFFFFFFFFFFFFFFFFFFFFFFF AND MUL OR SWAP1 SSTORE POP POP JUMP JUMPDEST PUSH0 DUP2 SWAP1 POP SWAP2 SWAP1 POP JUMP JUMPDEST PUSH2 0xBD9 DUP2 PUSH2 0xBC7 JUMP JUMPDEST DUP3 MSTORE POP POP JUMP JUMPDEST PUSH0 DUP2 ISZERO ISZERO SWAP1 POP SWAP2 SWAP1 POP JUMP JUMPDEST PUSH2 0xBF3 DUP2 PUSH2 0xBDF JUMP JUMPDEST DUP3 MSTORE POP POP JUMP JUMPDEST PUSH0 PUSH1 0x40 DUP3 ADD SWAP1 POP PUSH2 0xC0C PUSH0 DUP4 ADD DUP6 PUSH2 0xBD0 JUMP JUMPDEST PUSH2 0xC19 PUSH1 0x20 DUP4 ADD DUP5 PUSH2 0xBEA JUMP JUMPDEST SWAP4 SWAP3 POP POP POP JUMP JUMPDEST PUSH0 PUSH0 REVERT JUMPDEST PUSH0 PUSH20 0xFFFFFFFFFFFFFFFFFFFFFFFFFFFFFFFFFFFFFFFF DUP3 AND SWAP1 POP SWAP2 SWAP1 POP JUMP JUMPDEST PUSH0 PUSH2 0xC4D DUP3 PUSH2 0xC24 JUMP JUMPDEST SWAP1 POP SWAP2 SWAP1 POP JUMP JUMPDEST PUSH2 0xC5D DUP2 PUSH2 0xC43 JUMP JUMPDEST DUP2 EQ PUSH2 0xC67 JUMPI PUSH0 PUSH0 REVERT JUMPDEST POP JUMP JUMPDEST PUSH0 DUP2 CALLDATALOAD SWAP1 POP PUSH2 0xC78 DUP2 PUSH2 0xC54 JUMP JUMPDEST SWAP3 SWAP2 POP POP JUMP JUMPDEST PUSH0 PUSH1 0x20 DUP3 DUP5 SUB SLT ISZERO PUSH2 0xC93 JUMPI PUSH2 0xC92 PUSH2 0xC20 JUMP JUMPDEST JUMPDEST PUSH0 PUSH2 0xCA0 DUP5 DUP3 DUP6 ADD PUSH2 0xC6A JUMP JUMPDEST SWAP2 POP POP SWAP3 SWAP2 POP POP JUMP JUMPDEST PUSH0 PUSH1 0x20 DUP3 ADD SWAP1 POP PUSH2 0xCBC PUSH0 DUP4 ADD DUP5 PUSH2 0xBEA JUMP JUMPDEST SWAP3 SWAP2 POP POP JUMP JUMPDEST PUSH0 PUSH1 0x20 DUP3 ADD SWAP1 POP PUSH2 0xCD5 PUSH0 DUP4 ADD DUP5 PUSH2 0xBD0 JUMP JUMPDEST SWAP3 SWAP2 POP POP JUMP JUMPDEST PUSH2 0xCE4 DUP2 PUSH2 0xBC7 JUMP JUMPDEST DUP2 EQ PUSH2 0xCEE JUMPI PUSH0 PUSH0 REVERT JUMPDEST POP JUMP JUMPDEST PUSH0 DUP2 CALLDATALOAD SWAP1 POP PUSH2 0xCFF DUP2 PUSH2 0xCDB JUMP JUMPDEST SWAP3 SWAP2 POP POP JUMP JUMPDEST PUSH0 PUSH0 PUSH1 0x40 DUP4 DUP6 SUB SLT ISZERO PUSH2 0xD1B JUMPI PUSH2 0xD1A PUSH2 0xC20 JUMP JUMPDEST JUMPDEST PUSH0 PUSH2 0xD28 DUP6 DUP3 DUP7 ADD PUSH2 0xC6A JUMP JUMPDEST SWAP3 POP POP PUSH1 0x20 PUSH2 0xD39 DUP6 DUP3 DUP7 ADD PUSH2 0xCF1 JUMP JUMPDEST SWAP2 POP POP SWAP3 POP SWAP3 SWAP1 POP JUMP JUMPDEST PUSH0 PUSH1 0x20 DUP3 DUP5 SUB SLT ISZERO PUSH2 0xD58 JUMPI PUSH2 0xD57 PUSH2 0xC20 JUMP JUMPDEST JUMPDEST PUSH0 PUSH2 0xD65 DUP5 DUP3 DUP6 ADD PUSH2 0xCF1 JUMP JUMPDEST SWAP2 POP POP SWAP3 SWAP2 POP POP JUMP JUMPDEST PUSH2 0xD77 DUP2 PUSH2 0xC43 JUMP JUMPDEST DUP3 MSTORE POP POP JUMP JUMPDEST PUSH0 PUSH1 0x20 DUP3 ADD SWAP1 POP PUSH2 0xD90 PUSH0 DUP4 ADD DUP5 PUSH2 0xD6E JUMP JUMPDEST SWAP3 SWAP2 POP POP JUMP JUMPDEST PUSH0 DUP3 DUP3 MSTORE PUSH1 0x20 DUP3 ADD SWAP1 POP SWAP3 SWAP2 POP POP JUMP JUMPDEST PUSH32 0x596F7520617265204F776E657200000000000000000000000000000000000000 PUSH0 DUP3 ADD MSTORE POP JUMP JUMPDEST PUSH0 PUSH2 0xDDA PUSH1 0xD DUP4 PUSH2 0xD96 JUMP JUMPDEST SWAP2 POP PUSH2 0xDE5 DUP3 PUSH2 0xDA6 JUMP JUMPDEST PUSH1 0x20 DUP3 ADD SWAP1 POP SWAP2 SWAP1 POP JUMP JUMPDEST PUSH0 PUSH1 0x20 DUP3 ADD SWAP1 POP DUP2 DUP2 SUB PUSH0 DUP4 ADD MSTORE PUSH2 0xE07 DUP2 PUSH2 0xDCE JUMP JUMPDEST SWAP1 POP SWAP2 SWAP1 POP JUMP JUMPDEST PUSH32 0x4163636573732064656E6965643A204F6E6C7920746865206F776E6572206361 PUSH0 DUP3 ADD MSTORE PUSH32 0x6E20706572666F726D207468697320616374696F6E0000000000000000000000 PUSH1 0x20 DUP3 ADD MSTORE POP JUMP JUMPDEST PUSH0 PUSH2 0xE68 PUSH1 0x35 DUP4 PUSH2 0xD96 JUMP JUMPDEST SWAP2 POP PUSH2 0xE73 DUP3 PUSH2 0xE0E JUMP JUMPDEST PUSH1 0x40 DUP3 ADD SWAP1 POP SWAP2 SWAP1 POP JUMP JUMPDEST PUSH0 PUSH1 0x20 DUP3 ADD SWAP1 POP DUP2 DUP2 SUB PUSH0 DUP4 ADD MSTORE PUSH2 0xE95 DUP2 PUSH2 0xE5C JUMP JUMPDEST SWAP1 POP SWAP2 SWAP1 POP JUMP JUMPDEST PUSH32 0x456D707479206164647265737300000000000000000000000000000000000000 PUSH0 DUP3 ADD MSTORE POP JUMP JUMPDEST PUSH0 PUSH2 0xED0 PUSH1 0xD DUP4 PUSH2 0xD96 JUMP JUMPDEST SWAP2 POP PUSH2 0xEDB DUP3 PUSH2 0xE9C JUMP JUMPDEST PUSH1 0x20 DUP3 ADD SWAP1 POP SWAP2 SWAP1 POP JUMP JUMPDEST PUSH0 PUSH1 0x20 DUP3 ADD SWAP1 POP DUP2 DUP2 SUB PUSH0 DUP4 ADD MSTORE PUSH2 0xEFD DUP2 PUSH2 0xEC4 JUMP JUMPDEST SWAP1 POP SWAP2 SWAP1 POP JUMP JUMPDEST PUSH32 0x43616E277420617070726F76656C20656D707479206164647265737300000000 PUSH0 DUP3 ADD MSTORE POP JUMP JUMPDEST PUSH0 PUSH2 0xF38 PUSH1 0x1C DUP4 PUSH2 0xD96 JUMP JUMPDEST SWAP2 POP PUSH2 0xF43 DUP3 PUSH2 0xF04 JUMP JUMPDEST PUSH1 0x20 DUP3 ADD SWAP1 POP SWAP2 SWAP1 POP JUMP JUMPDEST PUSH0 PUSH1 0x20 DUP3 ADD SWAP1 POP DUP2 DUP2 SUB PUSH0 DUP4 ADD MSTORE PUSH2 0xF65 DUP2 PUSH2 0xF2C JUMP JUMPDEST SWAP1 POP SWAP2 SWAP1 POP JUMP JUMPDEST PUSH32 0x4E6F7420656E6F75676820747265617375726520617661696C61626C65000000 PUSH0 DUP3 ADD MSTORE POP JUMP JUMPDEST PUSH0 PUSH2 0xFA0 PUSH1 0x1D DUP4 PUSH2 0xD96 JUMP JUMPDEST SWAP2 POP PUSH2 0xFAB DUP3 PUSH2 0xF6C JUMP JUMPDEST PUSH1 0x20 DUP3 ADD SWAP1 POP SWAP2 SWAP1 POP JUMP JUMPDEST PUSH0 PUSH1 0x20 DUP3 ADD SWAP1 POP DUP2 DUP2 SUB PUSH0 DUP4 ADD MSTORE PUSH2 0xFCD DUP2 PUSH2 0xF94 JUMP JUMPDEST SWAP1 POP SWAP2 SWAP1 POP JUMP JUMPDEST PUSH32 0x4E487B7100000000000000000000000000000000000000000000000000000000 PUSH0 MSTORE PUSH1 0x11 PUSH1 0x4 MSTORE PUSH1 0x24 PUSH0 REVERT JUMPDEST PUSH0 PUSH2 0x100B DUP3 PUSH2 0xBC7 JUMP JUMPDEST SWAP2 POP PUSH2 0x1016 DUP4 PUSH2 0xBC7 JUMP JUMPDEST SWAP3 POP DUP3 DUP3 SUB SWAP1 POP DUP2 DUP2 GT ISZERO PUSH2 0x102E JUMPI PUSH2 0x102D PUSH2 0xFD4 JUMP JUMPDEST JUMPDEST SWAP3 SWAP2 POP POP JUMP JUMPDEST PUSH32 0x436F6F6C696E6720646F776E2E2E2E2E2E2E0000000000000000000000000000 PUSH0 DUP3 ADD MSTORE POP JUMP JUMPDEST PUSH0 PUSH2 0x1068 PUSH1 0x12 DUP4 PUSH2 0xD96 JUMP JUMPDEST SWAP2 POP PUSH2 0x1073 DUP3 PUSH2 0x1034 JUMP JUMPDEST PUSH1 0x20 DUP3 ADD SWAP1 POP SWAP2 SWAP1 POP JUMP JUMPDEST PUSH0 PUSH1 0x20 DUP3 ADD SWAP1 POP DUP2 DUP2 SUB PUSH0 DUP4 ADD MSTORE PUSH2 0x1095 DUP2 PUSH2 0x105C JUMP JUMPDEST SWAP1 POP SWAP2 SWAP1 POP JUMP JUMPDEST PUSH32 0x596F75206861766520616C72656164792077697468647261776E20796F757220 PUSH0 DUP3 ADD MSTORE PUSH32 0x7472656173757265000000000000000000000000000000000000000000000000 PUSH1 0x20 DUP3 ADD MSTORE POP JUMP JUMPDEST PUSH0 PUSH2 0x10F6 PUSH1 0x28 DUP4 PUSH2 0xD96 JUMP JUMPDEST SWAP2 POP PUSH2 0x1101 DUP3 PUSH2 0x109C JUMP JUMPDEST PUSH1 0x40 DUP3 ADD SWAP1 POP SWAP2 SWAP1 POP JUMP JUMPDEST PUSH0 PUSH1 0x20 DUP3 ADD SWAP1 POP DUP2 DUP2 SUB PUSH0 DUP4 ADD MSTORE PUSH2 0x1123 DUP2 PUSH2 0x10EA JUMP JUMPDEST SWAP1 POP SWAP2 SWAP1 POP JUMP JUMPDEST PUSH32 0x596F7520646F6E2774206861766520616E7920747265617375726520616C6C6F PUSH0 DUP3 ADD MSTORE PUSH32 0x77616E6365000000000000000000000000000000000000000000000000000000 PUSH1 0x20 DUP3 ADD MSTORE POP JUMP JUMPDEST PUSH0 PUSH2 0x1184 PUSH1 0x25 DUP4 PUSH2 0xD96 JUMP JUMPDEST SWAP2 POP PUSH2 0x118F DUP3 PUSH2 0x112A JUMP JUMPDEST PUSH1 0x40 DUP3 ADD SWAP1 POP SWAP2 SWAP1 POP JUMP JUMPDEST PUSH0 PUSH1 0x20 DUP3 ADD SWAP1 POP DUP2 DUP2 SUB PUSH0 DUP4 ADD MSTORE PUSH2 0x11B1 DUP2 PUSH2 0x1178 JUMP JUMPDEST SWAP1 POP SWAP2 SWAP1 POP JUMP JUMPDEST PUSH32 0x4E6F7420656E6F75676820747265617375726520696E20746865206368657374 PUSH0 DUP3 ADD MSTORE POP JUMP JUMPDEST PUSH0 PUSH2 0x11EC PUSH1 0x20 DUP4 PUSH2 0xD96 JUMP JUMPDEST SWAP2 POP PUSH2 0x11F7 DUP3 PUSH2 0x11B8 JUMP JUMPDEST PUSH1 0x20 DUP3 ADD SWAP1 POP SWAP2 SWAP1 POP JUMP JUMPDEST PUSH0 PUSH1 0x20 DUP3 ADD SWAP1 POP DUP2 DUP2 SUB PUSH0 DUP4 ADD MSTORE PUSH2 0x1219 DUP2 PUSH2 0x11E0 JUMP JUMPDEST SWAP1 POP SWAP2 SWAP1 POP JUMP JUMPDEST PUSH32 0x596F7520646F6E2774206861766520656E6F7567682074726561737572652061 PUSH0 DUP3 ADD MSTORE PUSH32 0x6C6C6F77616E6365000000000000000000000000000000000000000000000000 PUSH1 0x20 DUP3 ADD MSTORE POP JUMP JUMPDEST PUSH0 PUSH2 0x127A PUSH1 0x28 DUP4 PUSH2 0xD96 JUMP JUMPDEST SWAP2 POP PUSH2 0x1285 DUP3 PUSH2 0x1220 JUMP JUMPDEST PUSH1 0x40 DUP3 ADD SWAP1 POP SWAP2 SWAP1 POP JUMP JUMPDEST PUSH0 PUSH1 0x20 DUP3 ADD SWAP1 POP DUP2 DUP2 SUB PUSH0 DUP4 ADD MSTORE PUSH2 0x12A7 DUP2 PUSH2 0x126E JUMP JUMPDEST SWAP1 POP SWAP2 SWAP1 POP JUMP JUMPDEST PUSH0 PUSH2 0x12B8 DUP3 PUSH2 0xBC7 JUMP JUMPDEST SWAP2 POP PUSH2 0x12C3 DUP4 PUSH2 0xBC7 JUMP JUMPDEST SWAP3 POP DUP3 DUP3 ADD SWAP1 POP DUP1 DUP3 GT ISZERO PUSH2 0x12DB JUMPI PUSH2 0x12DA PUSH2 0xFD4 JUMP JUMPDEST JUMPDEST SWAP3 SWAP2 POP POP JUMP JUMPDEST PUSH32 0x43616E2774206368616E6765206F776E657220746F206120656D707479206164 PUSH0 DUP3 ADD MSTORE PUSH32 0x6472657373000000000000000000000000000000000000000000000000000000 PUSH1 0x20 DUP3 ADD MSTORE POP JUMP JUMPDEST PUSH0 PUSH2 0x133B PUSH1 0x25 DUP4 PUSH2 0xD96 JUMP JUMPDEST SWAP2 POP PUSH2 0x1346 DUP3 PUSH2 0x12E1 JUMP JUMPDEST PUSH1 0x40 DUP3 ADD SWAP1 POP SWAP2 SWAP1 POP JUMP JUMPDEST PUSH0 PUSH1 0x20 DUP3 ADD SWAP1 POP DUP2 DUP2 SUB PUSH0 DUP4 ADD MSTORE PUSH2 0x1368 DUP2 PUSH2 0x132F JUMP JUMPDEST SWAP1 POP SWAP2 SWAP1 POP JUMP INVALID LOG2 PUSH5 0x6970667358 0x22 SLT KECCAK256 0xE2 SLT 0xCC SIGNEXTEND SWAP2 RETF OR PUSH31 0x7C30805CC4D31AAFB4CC621025E6405C2FE0938B7044D8564736F6C634300 ADDMOD 0x1E STOP CALLER "
				},
				"gasEstimates": {
					"creation": {
						"codeDepositCost": "1005800",
						"executionCost": "47414",
						"totalCost": "1053214"
					},
					"external": {
						"Owner()": "2551",
						"addTreasure(uint256)": "infinite",
						"approveList(address)": "2847",
						"approveWithdrawl(address,uint256)": "27149",
						"checkStatus()": "7028",
						"getTreasureDetails()": "4667",
						"hasWithdrawn(address)": "2856",
						"resetWithdrawalStatus(address)": "27093",
						"transferOwnership(address)": "27004",
						"withdrawTreasure(uint256)": "infinite"
					}
				},
				"methodIdentifiers": {
					"Owner()": "b4a99a4e",
					"addTreasure(uint256)": "e0147005",
					"approveList(address)": "62f5e563",
					"approveWithdrawl(address,uint256)": "94f36263",
					"checkStatus()": "3b7104f2",
					"getTreasureDetails()": "774124fa",
					"hasWithdrawn(address)": "5e2c19db",
					"resetWithdrawalStatus(address)": "941907de",
					"transferOwnership(address)": "f2fde38b",
					"withdrawTreasure(uint256)": "aca5b346"
				}
			},
			"storageLayout": {
				"storage": [
					{
						"astId": 3,
						"contract": "submissions/Vera/day5.sol:AdminOnly",
						"label": "Owner",
						"offset": 0,
						"slot": "0",
						"type": "t_address"
					},
					{
						"astId": 5,
						"contract": "submissions/Vera/day5.sol:AdminOnly",
						"label": "treasureAmount",
						"offset": 0,
						"slot": "1",
						"type": "t_uint256"
					},
					{
						"astId": 9,
						"contract": "submissions/Vera/day5.sol:AdminOnly",
						"label": "timer",
						"offset": 0,
						"slot": "2",
						"type": "t_uint256"
					},
					{
						"astId": 13,
						"contract": "submissions/Vera/day5.sol:AdminOnly",
						"label": "approveList",
						"offset": 0,
						"slot": "3",
						"type": "t_mapping(t_address,t_uint256)"
					},
					{
						"astId": 17,
						"contract": "submissions/Vera/day5.sol:AdminOnly",
						"label": "hasWithdrawn",
						"offset": 0,
						"slot": "4",
						"type": "t_mapping(t_address,t_bool)"
					}
				],
				"types": {
					"t_address": {
						"encoding": "inplace",
						"label": "address",
						"numberOfBytes": "20"
					},
					"t_bool": {
						"encoding": "inplace",
						"label": "bool",
						"numberOfBytes": "1"
					},
					"t_mapping(t_address,t_bool)": {
						"encoding": "mapping",
						"key": "t_address",
						"label": "mapping(address => bool)",
						"numberOfBytes": "32",
						"value": "t_bool"
					},
					"t_mapping(t_address,t_uint256)": {
						"encoding": "mapping",
						"key": "t_address",
						"label": "mapping(address => uint256)",
						"numberOfBytes": "32",
						"value": "t_uint256"
					},
					"t_uint256": {
						"encoding": "inplace",
						"label": "uint256",
						"numberOfBytes": "32"
					}
				}
			},
			"userdoc": {
				"kind": "user",
				"methods": {},
				"version": 1
			}
		}
	}
}