{
	"submissions/Vickywu/Day2SaveMyName.sol": {
		"SaveMyname": {
			"abi": [
				{
					"inputs": [
						{
							"internalType": "string",
							"name": "_name",
							"type": "string"
						},
						{
							"internalType": "string",
							"name": "_bio",
							"type": "string"
						},
						{
							"internalType": "string",
							"name": "_age",
							"type": "string"
						},
						{
							"internalType": "string",
							"name": "_occupation",
							"type": "string"
						}
					],
					"name": "add",
					"outputs": [],
					"stateMutability": "nonpayable",
					"type": "function"
				},
				{
					"inputs": [],
					"name": "retrieve",
					"outputs": [
						{
							"internalType": "string",
							"name": "",
							"type": "string"
						},
						{
							"internalType": "string",
							"name": "",
							"type": "string"
						},
						{
							"internalType": "string",
							"name": "",
							"type": "string"
						},
						{
							"internalType": "string",
							"name": "",
							"type": "string"
						}
					],
					"stateMutability": "view",
					"type": "function"
				}
			],
			"devdoc": {
				"kind": "dev",
				"methods": {},
				"version": 1
			},
			"evm": {
				"assembly": "    /* \"submissions/Vickywu/Day2SaveMyName.sol\":57:534  contract SaveMyname {... */\n  mstore(0x40, 0x80)\n  callvalue\n  dup1\n  iszero\n  tag_1\n  jumpi\n  revert(0x00, 0x00)\ntag_1:\n  pop\n  dataSize(sub_0)\n  dup1\n  dataOffset(sub_0)\n  0x00\n  codecopy\n  0x00\n  return\nstop\n\nsub_0: assembly {\n        /* \"submissions/Vickywu/Day2SaveMyName.sol\":57:534  contract SaveMyname {... */\n      mstore(0x40, 0x80)\n      callvalue\n      dup1\n      iszero\n      tag_1\n      jumpi\n      revert(0x00, 0x00)\n    tag_1:\n      pop\n      jumpi(tag_2, lt(calldatasize, 0x04))\n      shr(0xe0, calldataload(0x00))\n      dup1\n      0x2e64cec1\n      eq\n      tag_3\n      jumpi\n      dup1\n      0x878fc108\n      eq\n      tag_4\n      jumpi\n    tag_2:\n      revert(0x00, 0x00)\n        /* \"submissions/Vickywu/Day2SaveMyName.sol\":379:527  function retrieve() public view returns(string memory, string memory, string memory, string memory){... */\n    tag_3:\n      tag_5\n      tag_6\n      jump\t// in\n    tag_5:\n      mload(0x40)\n      tag_7\n      swap5\n      swap4\n      swap3\n      swap2\n      swap1\n      tag_8\n      jump\t// in\n    tag_7:\n      mload(0x40)\n      dup1\n      swap2\n      sub\n      swap1\n      return\n        /* \"submissions/Vickywu/Day2SaveMyName.sol\":161:373  function add (string memory _name, string memory _bio, string memory _age, string memory _occupation )public {... */\n    tag_4:\n      tag_9\n      0x04\n      dup1\n      calldatasize\n      sub\n      dup2\n      add\n      swap1\n      tag_10\n      swap2\n      swap1\n      tag_11\n      jump\t// in\n    tag_10:\n      tag_12\n      jump\t// in\n    tag_9:\n      stop\n        /* \"submissions/Vickywu/Day2SaveMyName.sol\":379:527  function retrieve() public view returns(string memory, string memory, string memory, string memory){... */\n    tag_6:\n        /* \"submissions/Vickywu/Day2SaveMyName.sol\":419:432  string memory */\n      0x60\n        /* \"submissions/Vickywu/Day2SaveMyName.sol\":434:447  string memory */\n      dup1\n        /* \"submissions/Vickywu/Day2SaveMyName.sol\":449:462  string memory */\n      0x60\n        /* \"submissions/Vickywu/Day2SaveMyName.sol\":464:477  string memory */\n      dup1\n        /* \"submissions/Vickywu/Day2SaveMyName.sol\":496:500  name */\n      0x00\n        /* \"submissions/Vickywu/Day2SaveMyName.sol\":501:504  bio */\n      0x01\n        /* \"submissions/Vickywu/Day2SaveMyName.sol\":505:508  age */\n      0x02\n        /* \"submissions/Vickywu/Day2SaveMyName.sol\":509:519  occupation */\n      0x03\n        /* \"submissions/Vickywu/Day2SaveMyName.sol\":488:520  return (name,bio,age,occupation) */\n      dup4\n      dup1\n      sload\n      tag_14\n      swap1\n      tag_15\n      jump\t// in\n    tag_14:\n      dup1\n      0x1f\n      add\n      0x20\n      dup1\n      swap2\n      div\n      mul\n      0x20\n      add\n      mload(0x40)\n      swap1\n      dup2\n      add\n      0x40\n      mstore\n      dup1\n      swap3\n      swap2\n      swap1\n      dup2\n      dup2\n      mstore\n      0x20\n      add\n      dup3\n      dup1\n      sload\n      tag_16\n      swap1\n      tag_15\n      jump\t// in\n    tag_16:\n      dup1\n      iszero\n      tag_17\n      jumpi\n      dup1\n      0x1f\n      lt\n      tag_18\n      jumpi\n      0x0100\n      dup1\n      dup4\n      sload\n      div\n      mul\n      dup4\n      mstore\n      swap2\n      0x20\n      add\n      swap2\n      jump(tag_17)\n    tag_18:\n      dup3\n      add\n      swap2\n      swap1\n      0x00\n      mstore\n      keccak256(0x00, 0x20)\n      swap1\n    tag_19:\n      dup2\n      sload\n      dup2\n      mstore\n      swap1\n      0x01\n      add\n      swap1\n      0x20\n      add\n      dup1\n      dup4\n      gt\n      tag_19\n      jumpi\n      dup3\n      swap1\n      sub\n      0x1f\n      and\n      dup3\n      add\n      swap2\n    tag_17:\n      pop\n      pop\n      pop\n      pop\n      pop\n      swap4\n      pop\n      dup3\n      dup1\n      sload\n      tag_20\n      swap1\n      tag_15\n      jump\t// in\n    tag_20:\n      dup1\n      0x1f\n      add\n      0x20\n      dup1\n      swap2\n      div\n      mul\n      0x20\n      add\n      mload(0x40)\n      swap1\n      dup2\n      add\n      0x40\n      mstore\n      dup1\n      swap3\n      swap2\n      swap1\n      dup2\n      dup2\n      mstore\n      0x20\n      add\n      dup3\n      dup1\n      sload\n      tag_21\n      swap1\n      tag_15\n      jump\t// in\n    tag_21:\n      dup1\n      iszero\n      tag_22\n      jumpi\n      dup1\n      0x1f\n      lt\n      tag_23\n      jumpi\n      0x0100\n      dup1\n      dup4\n      sload\n      div\n      mul\n      dup4\n      mstore\n      swap2\n      0x20\n      add\n      swap2\n      jump(tag_22)\n    tag_23:\n      dup3\n      add\n      swap2\n      swap1\n      0x00\n      mstore\n      keccak256(0x00, 0x20)\n      swap1\n    tag_24:\n      dup2\n      sload\n      dup2\n      mstore\n      swap1\n      0x01\n      add\n      swap1\n      0x20\n      add\n      dup1\n      dup4\n      gt\n      tag_24\n      jumpi\n      dup3\n      swap1\n      sub\n      0x1f\n      and\n      dup3\n      add\n      swap2\n    tag_22:\n      pop\n      pop\n      pop\n      pop\n      pop\n      swap3\n      pop\n      dup2\n      dup1\n      sload\n      tag_25\n      swap1\n      tag_15\n      jump\t// in\n    tag_25:\n      dup1\n      0x1f\n      add\n      0x20\n      dup1\n      swap2\n      div\n      mul\n      0x20\n      add\n      mload(0x40)\n      swap1\n      dup2\n      add\n      0x40\n      mstore\n      dup1\n      swap3\n      swap2\n      swap1\n      dup2\n      dup2\n      mstore\n      0x20\n      add\n      dup3\n      dup1\n      sload\n      tag_26\n      swap1\n      tag_15\n      jump\t// in\n    tag_26:\n      dup1\n      iszero\n      tag_27\n      jumpi\n      dup1\n      0x1f\n      lt\n      tag_28\n      jumpi\n      0x0100\n      dup1\n      dup4\n      sload\n      div\n      mul\n      dup4\n      mstore\n      swap2\n      0x20\n      add\n      swap2\n      jump(tag_27)\n    tag_28:\n      dup3\n      add\n      swap2\n      swap1\n      0x00\n      mstore\n      keccak256(0x00, 0x20)\n      swap1\n    tag_29:\n      dup2\n      sload\n      dup2\n      mstore\n      swap1\n      0x01\n      add\n      swap1\n      0x20\n      add\n      dup1\n      dup4\n      gt\n      tag_29\n      jumpi\n      dup3\n      swap1\n      sub\n      0x1f\n      and\n      dup3\n      add\n      swap2\n    tag_27:\n      pop\n      pop\n      pop\n      pop\n      pop\n      swap2\n      pop\n      dup1\n      dup1\n      sload\n      tag_30\n      swap1\n      tag_15\n      jump\t// in\n    tag_30:\n      dup1\n      0x1f\n      add\n      0x20\n      dup1\n      swap2\n      div\n      mul\n      0x20\n      add\n      mload(0x40)\n      swap1\n      dup2\n      add\n      0x40\n      mstore\n      dup1\n      swap3\n      swap2\n      swap1\n      dup2\n      dup2\n      mstore\n      0x20\n      add\n      dup3\n      dup1\n      sload\n      tag_31\n      swap1\n      tag_15\n      jump\t// in\n    tag_31:\n      dup1\n      iszero\n      tag_32\n      jumpi\n      dup1\n      0x1f\n      lt\n      tag_33\n      jumpi\n      0x0100\n      dup1\n      dup4\n      sload\n      div\n      mul\n      dup4\n      mstore\n      swap2\n      0x20\n      add\n      swap2\n      jump(tag_32)\n    tag_33:\n      dup3\n      add\n      swap2\n      swap1\n      0x00\n      mstore\n      keccak256(0x00, 0x20)\n      swap1\n    tag_34:\n      dup2\n      sload\n      dup2\n      mstore\n      swap1\n      0x01\n      add\n      swap1\n      0x20\n      add\n      dup1\n      dup4\n      gt\n      tag_34\n      jumpi\n      dup3\n      swap1\n      sub\n      0x1f\n      and\n      dup3\n      add\n      swap2\n    tag_32:\n      pop\n      pop\n      pop\n      pop\n      pop\n      swap1\n      pop\n      swap4\n      pop\n      swap4\n      pop\n      swap4\n      pop\n      swap4\n      pop\n        /* \"submissions/Vickywu/Day2SaveMyName.sol\":379:527  function retrieve() public view returns(string memory, string memory, string memory, string memory){... */\n      swap1\n      swap2\n      swap3\n      swap4\n      jump\t// out\n        /* \"submissions/Vickywu/Day2SaveMyName.sol\":161:373  function add (string memory _name, string memory _bio, string memory _age, string memory _occupation )public {... */\n    tag_12:\n        /* \"submissions/Vickywu/Day2SaveMyName.sol\":287:292  _name */\n      dup4\n        /* \"submissions/Vickywu/Day2SaveMyName.sol\":280:284  name */\n      0x00\n        /* \"submissions/Vickywu/Day2SaveMyName.sol\":280:292  name = _name */\n      swap1\n      dup2\n      tag_36\n      swap2\n      swap1\n      tag_37\n      jump\t// in\n    tag_36:\n      pop\n        /* \"submissions/Vickywu/Day2SaveMyName.sol\":308:312  _bio */\n      dup3\n        /* \"submissions/Vickywu/Day2SaveMyName.sol\":302:305  bio */\n      0x01\n        /* \"submissions/Vickywu/Day2SaveMyName.sol\":302:312  bio = _bio */\n      swap1\n      dup2\n      tag_38\n      swap2\n      swap1\n      tag_37\n      jump\t// in\n    tag_38:\n      pop\n        /* \"submissions/Vickywu/Day2SaveMyName.sol\":328:332  _age */\n      dup2\n        /* \"submissions/Vickywu/Day2SaveMyName.sol\":322:325  age */\n      0x02\n        /* \"submissions/Vickywu/Day2SaveMyName.sol\":322:332  age = _age */\n      swap1\n      dup2\n      tag_39\n      swap2\n      swap1\n      tag_37\n      jump\t// in\n    tag_39:\n      pop\n        /* \"submissions/Vickywu/Day2SaveMyName.sol\":355:366  _occupation */\n      dup1\n        /* \"submissions/Vickywu/Day2SaveMyName.sol\":342:352  occupation */\n      0x03\n        /* \"submissions/Vickywu/Day2SaveMyName.sol\":342:366  occupation = _occupation */\n      swap1\n      dup2\n      tag_40\n      swap2\n      swap1\n      tag_37\n      jump\t// in\n    tag_40:\n      pop\n        /* \"submissions/Vickywu/Day2SaveMyName.sol\":161:373  function add (string memory _name, string memory _bio, string memory _age, string memory _occupation )public {... */\n      pop\n      pop\n      pop\n      pop\n      jump\t// out\n        /* \"#utility.yul\":7:106   */\n    tag_41:\n        /* \"#utility.yul\":59:65   */\n      0x00\n        /* \"#utility.yul\":93:98   */\n      dup2\n        /* \"#utility.yul\":87:99   */\n      mload\n        /* \"#utility.yul\":77:99   */\n      swap1\n      pop\n        /* \"#utility.yul\":7:106   */\n      swap2\n      swap1\n      pop\n      jump\t// out\n        /* \"#utility.yul\":112:281   */\n    tag_42:\n        /* \"#utility.yul\":196:207   */\n      0x00\n        /* \"#utility.yul\":230:236   */\n      dup3\n        /* \"#utility.yul\":225:228   */\n      dup3\n        /* \"#utility.yul\":218:237   */\n      mstore\n        /* \"#utility.yul\":270:274   */\n      0x20\n        /* \"#utility.yul\":265:268   */\n      dup3\n        /* \"#utility.yul\":261:275   */\n      add\n        /* \"#utility.yul\":246:275   */\n      swap1\n      pop\n        /* \"#utility.yul\":112:281   */\n      swap3\n      swap2\n      pop\n      pop\n      jump\t// out\n        /* \"#utility.yul\":287:426   */\n    tag_43:\n        /* \"#utility.yul\":376:382   */\n      dup3\n        /* \"#utility.yul\":371:374   */\n      dup2\n        /* \"#utility.yul\":366:369   */\n      dup4\n        /* \"#utility.yul\":360:383   */\n      mcopy\n        /* \"#utility.yul\":417:418   */\n      0x00\n        /* \"#utility.yul\":408:414   */\n      dup4\n        /* \"#utility.yul\":403:406   */\n      dup4\n        /* \"#utility.yul\":399:415   */\n      add\n        /* \"#utility.yul\":392:419   */\n      mstore\n        /* \"#utility.yul\":287:426   */\n      pop\n      pop\n      pop\n      jump\t// out\n        /* \"#utility.yul\":432:534   */\n    tag_44:\n        /* \"#utility.yul\":473:479   */\n      0x00\n        /* \"#utility.yul\":524:526   */\n      0x1f\n        /* \"#utility.yul\":520:527   */\n      not\n        /* \"#utility.yul\":515:517   */\n      0x1f\n        /* \"#utility.yul\":508:513   */\n      dup4\n        /* \"#utility.yul\":504:518   */\n      add\n        /* \"#utility.yul\":500:528   */\n      and\n        /* \"#utility.yul\":490:528   */\n      swap1\n      pop\n        /* \"#utility.yul\":432:534   */\n      swap2\n      swap1\n      pop\n      jump\t// out\n        /* \"#utility.yul\":540:917   */\n    tag_45:\n        /* \"#utility.yul\":628:631   */\n      0x00\n        /* \"#utility.yul\":656:695   */\n      tag_81\n        /* \"#utility.yul\":689:694   */\n      dup3\n        /* \"#utility.yul\":656:695   */\n      tag_41\n      jump\t// in\n    tag_81:\n        /* \"#utility.yul\":711:782   */\n      tag_82\n        /* \"#utility.yul\":775:781   */\n      dup2\n        /* \"#utility.yul\":770:773   */\n      dup6\n        /* \"#utility.yul\":711:782   */\n      tag_42\n      jump\t// in\n    tag_82:\n        /* \"#utility.yul\":704:782   */\n      swap4\n      pop\n        /* \"#utility.yul\":791:856   */\n      tag_83\n        /* \"#utility.yul\":849:855   */\n      dup2\n        /* \"#utility.yul\":844:847   */\n      dup6\n        /* \"#utility.yul\":837:841   */\n      0x20\n        /* \"#utility.yul\":830:835   */\n      dup7\n        /* \"#utility.yul\":826:842   */\n      add\n        /* \"#utility.yul\":791:856   */\n      tag_43\n      jump\t// in\n    tag_83:\n        /* \"#utility.yul\":881:910   */\n      tag_84\n        /* \"#utility.yul\":903:909   */\n      dup2\n        /* \"#utility.yul\":881:910   */\n      tag_44\n      jump\t// in\n    tag_84:\n        /* \"#utility.yul\":876:879   */\n      dup5\n        /* \"#utility.yul\":872:911   */\n      add\n        /* \"#utility.yul\":865:911   */\n      swap2\n      pop\n        /* \"#utility.yul\":632:917   */\n      pop\n        /* \"#utility.yul\":540:917   */\n      swap3\n      swap2\n      pop\n      pop\n      jump\t// out\n        /* \"#utility.yul\":923:1840   */\n    tag_8:\n        /* \"#utility.yul\":1180:1184   */\n      0x00\n        /* \"#utility.yul\":1218:1221   */\n      0x80\n        /* \"#utility.yul\":1207:1216   */\n      dup3\n        /* \"#utility.yul\":1203:1222   */\n      add\n        /* \"#utility.yul\":1195:1222   */\n      swap1\n      pop\n        /* \"#utility.yul\":1268:1277   */\n      dup2\n        /* \"#utility.yul\":1262:1266   */\n      dup2\n        /* \"#utility.yul\":1258:1278   */\n      sub\n        /* \"#utility.yul\":1254:1255   */\n      0x00\n        /* \"#utility.yul\":1243:1252   */\n      dup4\n        /* \"#utility.yul\":1239:1256   */\n      add\n        /* \"#utility.yul\":1232:1279   */\n      mstore\n        /* \"#utility.yul\":1296:1374   */\n      tag_86\n        /* \"#utility.yul\":1369:1373   */\n      dup2\n        /* \"#utility.yul\":1360:1366   */\n      dup8\n        /* \"#utility.yul\":1296:1374   */\n      tag_45\n      jump\t// in\n    tag_86:\n        /* \"#utility.yul\":1288:1374   */\n      swap1\n      pop\n        /* \"#utility.yul\":1421:1430   */\n      dup2\n        /* \"#utility.yul\":1415:1419   */\n      dup2\n        /* \"#utility.yul\":1411:1431   */\n      sub\n        /* \"#utility.yul\":1406:1408   */\n      0x20\n        /* \"#utility.yul\":1395:1404   */\n      dup4\n        /* \"#utility.yul\":1391:1409   */\n      add\n        /* \"#utility.yul\":1384:1432   */\n      mstore\n        /* \"#utility.yul\":1449:1527   */\n      tag_87\n        /* \"#utility.yul\":1522:1526   */\n      dup2\n        /* \"#utility.yul\":1513:1519   */\n      dup7\n        /* \"#utility.yul\":1449:1527   */\n      tag_45\n      jump\t// in\n    tag_87:\n        /* \"#utility.yul\":1441:1527   */\n      swap1\n      pop\n        /* \"#utility.yul\":1574:1583   */\n      dup2\n        /* \"#utility.yul\":1568:1572   */\n      dup2\n        /* \"#utility.yul\":1564:1584   */\n      sub\n        /* \"#utility.yul\":1559:1561   */\n      0x40\n        /* \"#utility.yul\":1548:1557   */\n      dup4\n        /* \"#utility.yul\":1544:1562   */\n      add\n        /* \"#utility.yul\":1537:1585   */\n      mstore\n        /* \"#utility.yul\":1602:1680   */\n      tag_88\n        /* \"#utility.yul\":1675:1679   */\n      dup2\n        /* \"#utility.yul\":1666:1672   */\n      dup6\n        /* \"#utility.yul\":1602:1680   */\n      tag_45\n      jump\t// in\n    tag_88:\n        /* \"#utility.yul\":1594:1680   */\n      swap1\n      pop\n        /* \"#utility.yul\":1727:1736   */\n      dup2\n        /* \"#utility.yul\":1721:1725   */\n      dup2\n        /* \"#utility.yul\":1717:1737   */\n      sub\n        /* \"#utility.yul\":1712:1714   */\n      0x60\n        /* \"#utility.yul\":1701:1710   */\n      dup4\n        /* \"#utility.yul\":1697:1715   */\n      add\n        /* \"#utility.yul\":1690:1738   */\n      mstore\n        /* \"#utility.yul\":1755:1833   */\n      tag_89\n        /* \"#utility.yul\":1828:1832   */\n      dup2\n        /* \"#utility.yul\":1819:1825   */\n      dup5\n        /* \"#utility.yul\":1755:1833   */\n      tag_45\n      jump\t// in\n    tag_89:\n        /* \"#utility.yul\":1747:1833   */\n      swap1\n      pop\n        /* \"#utility.yul\":923:1840   */\n      swap6\n      swap5\n      pop\n      pop\n      pop\n      pop\n      pop\n      jump\t// out\n        /* \"#utility.yul\":1846:1921   */\n    tag_46:\n        /* \"#utility.yul\":1879:1885   */\n      0x00\n        /* \"#utility.yul\":1912:1914   */\n      0x40\n        /* \"#utility.yul\":1906:1915   */\n      mload\n        /* \"#utility.yul\":1896:1915   */\n      swap1\n      pop\n        /* \"#utility.yul\":1846:1921   */\n      swap1\n      jump\t// out\n        /* \"#utility.yul\":1927:2044   */\n    tag_47:\n        /* \"#utility.yul\":2036:2037   */\n      0x00\n        /* \"#utility.yul\":2033:2034   */\n      0x00\n        /* \"#utility.yul\":2026:2038   */\n      revert\n        /* \"#utility.yul\":2050:2167   */\n    tag_48:\n        /* \"#utility.yul\":2159:2160   */\n      0x00\n        /* \"#utility.yul\":2156:2157   */\n      0x00\n        /* \"#utility.yul\":2149:2161   */\n      revert\n        /* \"#utility.yul\":2173:2290   */\n    tag_49:\n        /* \"#utility.yul\":2282:2283   */\n      0x00\n        /* \"#utility.yul\":2279:2280   */\n      0x00\n        /* \"#utility.yul\":2272:2284   */\n      revert\n        /* \"#utility.yul\":2296:2413   */\n    tag_50:\n        /* \"#utility.yul\":2405:2406   */\n      0x00\n        /* \"#utility.yul\":2402:2403   */\n      0x00\n        /* \"#utility.yul\":2395:2407   */\n      revert\n        /* \"#utility.yul\":2419:2599   */\n    tag_51:\n        /* \"#utility.yul\":2467:2544   */\n      0x4e487b7100000000000000000000000000000000000000000000000000000000\n        /* \"#utility.yul\":2464:2465   */\n      0x00\n        /* \"#utility.yul\":2457:2545   */\n      mstore\n        /* \"#utility.yul\":2564:2568   */\n      0x41\n        /* \"#utility.yul\":2561:2562   */\n      0x04\n        /* \"#utility.yul\":2554:2569   */\n      mstore\n        /* \"#utility.yul\":2588:2592   */\n      0x24\n        /* \"#utility.yul\":2585:2586   */\n      0x00\n        /* \"#utility.yul\":2578:2593   */\n      revert\n        /* \"#utility.yul\":2605:2886   */\n    tag_52:\n        /* \"#utility.yul\":2688:2715   */\n      tag_97\n        /* \"#utility.yul\":2710:2714   */\n      dup3\n        /* \"#utility.yul\":2688:2715   */\n      tag_44\n      jump\t// in\n    tag_97:\n        /* \"#utility.yul\":2680:2686   */\n      dup2\n        /* \"#utility.yul\":2676:2716   */\n      add\n        /* \"#utility.yul\":2818:2824   */\n      dup2\n        /* \"#utility.yul\":2806:2816   */\n      dup2\n        /* \"#utility.yul\":2803:2825   */\n      lt\n        /* \"#utility.yul\":2782:2800   */\n      0xffffffffffffffff\n        /* \"#utility.yul\":2770:2780   */\n      dup3\n        /* \"#utility.yul\":2767:2801   */\n      gt\n        /* \"#utility.yul\":2764:2826   */\n      or\n        /* \"#utility.yul\":2761:2849   */\n      iszero\n      tag_98\n      jumpi\n        /* \"#utility.yul\":2829:2847   */\n      tag_99\n      tag_51\n      jump\t// in\n    tag_99:\n        /* \"#utility.yul\":2761:2849   */\n    tag_98:\n        /* \"#utility.yul\":2869:2879   */\n      dup1\n        /* \"#utility.yul\":2865:2867   */\n      0x40\n        /* \"#utility.yul\":2858:2880   */\n      mstore\n        /* \"#utility.yul\":2648:2886   */\n      pop\n        /* \"#utility.yul\":2605:2886   */\n      pop\n      pop\n      jump\t// out\n        /* \"#utility.yul\":2892:3021   */\n    tag_53:\n        /* \"#utility.yul\":2926:2932   */\n      0x00\n        /* \"#utility.yul\":2953:2973   */\n      tag_101\n      tag_46\n      jump\t// in\n    tag_101:\n        /* \"#utility.yul\":2943:2973   */\n      swap1\n      pop\n        /* \"#utility.yul\":2982:3015   */\n      tag_102\n        /* \"#utility.yul\":3010:3014   */\n      dup3\n        /* \"#utility.yul\":3002:3008   */\n      dup3\n        /* \"#utility.yul\":2982:3015   */\n      tag_52\n      jump\t// in\n    tag_102:\n        /* \"#utility.yul\":2892:3021   */\n      swap2\n      swap1\n      pop\n      jump\t// out\n        /* \"#utility.yul\":3027:3335   */\n    tag_54:\n        /* \"#utility.yul\":3089:3093   */\n      0x00\n        /* \"#utility.yul\":3179:3197   */\n      0xffffffffffffffff\n        /* \"#utility.yul\":3171:3177   */\n      dup3\n        /* \"#utility.yul\":3168:3198   */\n      gt\n        /* \"#utility.yul\":3165:3221   */\n      iszero\n      tag_104\n      jumpi\n        /* \"#utility.yul\":3201:3219   */\n      tag_105\n      tag_51\n      jump\t// in\n    tag_105:\n        /* \"#utility.yul\":3165:3221   */\n    tag_104:\n        /* \"#utility.yul\":3239:3268   */\n      tag_106\n        /* \"#utility.yul\":3261:3267   */\n      dup3\n        /* \"#utility.yul\":3239:3268   */\n      tag_44\n      jump\t// in\n    tag_106:\n        /* \"#utility.yul\":3231:3268   */\n      swap1\n      pop\n        /* \"#utility.yul\":3323:3327   */\n      0x20\n        /* \"#utility.yul\":3317:3321   */\n      dup2\n        /* \"#utility.yul\":3313:3328   */\n      add\n        /* \"#utility.yul\":3305:3328   */\n      swap1\n      pop\n        /* \"#utility.yul\":3027:3335   */\n      swap2\n      swap1\n      pop\n      jump\t// out\n        /* \"#utility.yul\":3341:3489   */\n    tag_55:\n        /* \"#utility.yul\":3439:3445   */\n      dup3\n        /* \"#utility.yul\":3434:3437   */\n      dup2\n        /* \"#utility.yul\":3429:3432   */\n      dup4\n        /* \"#utility.yul\":3416:3446   */\n      calldatacopy\n        /* \"#utility.yul\":3480:3481   */\n      0x00\n        /* \"#utility.yul\":3471:3477   */\n      dup4\n        /* \"#utility.yul\":3466:3469   */\n      dup4\n        /* \"#utility.yul\":3462:3478   */\n      add\n        /* \"#utility.yul\":3455:3482   */\n      mstore\n        /* \"#utility.yul\":3341:3489   */\n      pop\n      pop\n      pop\n      jump\t// out\n        /* \"#utility.yul\":3495:3920   */\n    tag_56:\n        /* \"#utility.yul\":3573:3578   */\n      0x00\n        /* \"#utility.yul\":3598:3664   */\n      tag_109\n        /* \"#utility.yul\":3614:3663   */\n      tag_110\n        /* \"#utility.yul\":3656:3662   */\n      dup5\n        /* \"#utility.yul\":3614:3663   */\n      tag_54\n      jump\t// in\n    tag_110:\n        /* \"#utility.yul\":3598:3664   */\n      tag_53\n      jump\t// in\n    tag_109:\n        /* \"#utility.yul\":3589:3664   */\n      swap1\n      pop\n        /* \"#utility.yul\":3687:3693   */\n      dup3\n        /* \"#utility.yul\":3680:3685   */\n      dup2\n        /* \"#utility.yul\":3673:3694   */\n      mstore\n        /* \"#utility.yul\":3725:3729   */\n      0x20\n        /* \"#utility.yul\":3718:3723   */\n      dup2\n        /* \"#utility.yul\":3714:3730   */\n      add\n        /* \"#utility.yul\":3763:3766   */\n      dup5\n        /* \"#utility.yul\":3754:3760   */\n      dup5\n        /* \"#utility.yul\":3749:3752   */\n      dup5\n        /* \"#utility.yul\":3745:3761   */\n      add\n        /* \"#utility.yul\":3742:3767   */\n      gt\n        /* \"#utility.yul\":3739:3851   */\n      iszero\n      tag_111\n      jumpi\n        /* \"#utility.yul\":3770:3849   */\n      tag_112\n      tag_50\n      jump\t// in\n    tag_112:\n        /* \"#utility.yul\":3739:3851   */\n    tag_111:\n        /* \"#utility.yul\":3860:3914   */\n      tag_113\n        /* \"#utility.yul\":3907:3913   */\n      dup5\n        /* \"#utility.yul\":3902:3905   */\n      dup3\n        /* \"#utility.yul\":3897:3900   */\n      dup6\n        /* \"#utility.yul\":3860:3914   */\n      tag_55\n      jump\t// in\n    tag_113:\n        /* \"#utility.yul\":3579:3920   */\n      pop\n        /* \"#utility.yul\":3495:3920   */\n      swap4\n      swap3\n      pop\n      pop\n      pop\n      jump\t// out\n        /* \"#utility.yul\":3940:4280   */\n    tag_57:\n        /* \"#utility.yul\":3996:4001   */\n      0x00\n        /* \"#utility.yul\":4045:4048   */\n      dup3\n        /* \"#utility.yul\":4038:4042   */\n      0x1f\n        /* \"#utility.yul\":4030:4036   */\n      dup4\n        /* \"#utility.yul\":4026:4043   */\n      add\n        /* \"#utility.yul\":4022:4049   */\n      slt\n        /* \"#utility.yul\":4012:4134   */\n      tag_115\n      jumpi\n        /* \"#utility.yul\":4053:4132   */\n      tag_116\n      tag_49\n      jump\t// in\n    tag_116:\n        /* \"#utility.yul\":4012:4134   */\n    tag_115:\n        /* \"#utility.yul\":4170:4176   */\n      dup2\n        /* \"#utility.yul\":4157:4177   */\n      calldataload\n        /* \"#utility.yul\":4195:4274   */\n      tag_117\n        /* \"#utility.yul\":4270:4273   */\n      dup5\n        /* \"#utility.yul\":4262:4268   */\n      dup3\n        /* \"#utility.yul\":4255:4259   */\n      0x20\n        /* \"#utility.yul\":4247:4253   */\n      dup7\n        /* \"#utility.yul\":4243:4260   */\n      add\n        /* \"#utility.yul\":4195:4274   */\n      tag_56\n      jump\t// in\n    tag_117:\n        /* \"#utility.yul\":4186:4274   */\n      swap2\n      pop\n        /* \"#utility.yul\":4002:4280   */\n      pop\n        /* \"#utility.yul\":3940:4280   */\n      swap3\n      swap2\n      pop\n      pop\n      jump\t// out\n        /* \"#utility.yul\":4286:5771   */\n    tag_11:\n        /* \"#utility.yul\":4412:4418   */\n      0x00\n        /* \"#utility.yul\":4420:4426   */\n      0x00\n        /* \"#utility.yul\":4428:4434   */\n      0x00\n        /* \"#utility.yul\":4436:4442   */\n      0x00\n        /* \"#utility.yul\":4485:4488   */\n      0x80\n        /* \"#utility.yul\":4473:4482   */\n      dup6\n        /* \"#utility.yul\":4464:4471   */\n      dup8\n        /* \"#utility.yul\":4460:4483   */\n      sub\n        /* \"#utility.yul\":4456:4489   */\n      slt\n        /* \"#utility.yul\":4453:4573   */\n      iszero\n      tag_119\n      jumpi\n        /* \"#utility.yul\":4492:4571   */\n      tag_120\n      tag_47\n      jump\t// in\n    tag_120:\n        /* \"#utility.yul\":4453:4573   */\n    tag_119:\n        /* \"#utility.yul\":4640:4641   */\n      0x00\n        /* \"#utility.yul\":4629:4638   */\n      dup6\n        /* \"#utility.yul\":4625:4642   */\n      add\n        /* \"#utility.yul\":4612:4643   */\n      calldataload\n        /* \"#utility.yul\":4670:4688   */\n      0xffffffffffffffff\n        /* \"#utility.yul\":4662:4668   */\n      dup2\n        /* \"#utility.yul\":4659:4689   */\n      gt\n        /* \"#utility.yul\":4656:4773   */\n      iszero\n      tag_121\n      jumpi\n        /* \"#utility.yul\":4692:4771   */\n      tag_122\n      tag_48\n      jump\t// in\n    tag_122:\n        /* \"#utility.yul\":4656:4773   */\n    tag_121:\n        /* \"#utility.yul\":4797:4860   */\n      tag_123\n        /* \"#utility.yul\":4852:4859   */\n      dup8\n        /* \"#utility.yul\":4843:4849   */\n      dup3\n        /* \"#utility.yul\":4832:4841   */\n      dup9\n        /* \"#utility.yul\":4828:4850   */\n      add\n        /* \"#utility.yul\":4797:4860   */\n      tag_57\n      jump\t// in\n    tag_123:\n        /* \"#utility.yul\":4787:4860   */\n      swap5\n      pop\n        /* \"#utility.yul\":4583:4870   */\n      pop\n        /* \"#utility.yul\":4937:4939   */\n      0x20\n        /* \"#utility.yul\":4926:4935   */\n      dup6\n        /* \"#utility.yul\":4922:4940   */\n      add\n        /* \"#utility.yul\":4909:4941   */\n      calldataload\n        /* \"#utility.yul\":4968:4986   */\n      0xffffffffffffffff\n        /* \"#utility.yul\":4960:4966   */\n      dup2\n        /* \"#utility.yul\":4957:4987   */\n      gt\n        /* \"#utility.yul\":4954:5071   */\n      iszero\n      tag_124\n      jumpi\n        /* \"#utility.yul\":4990:5069   */\n      tag_125\n      tag_48\n      jump\t// in\n    tag_125:\n        /* \"#utility.yul\":4954:5071   */\n    tag_124:\n        /* \"#utility.yul\":5095:5158   */\n      tag_126\n        /* \"#utility.yul\":5150:5157   */\n      dup8\n        /* \"#utility.yul\":5141:5147   */\n      dup3\n        /* \"#utility.yul\":5130:5139   */\n      dup9\n        /* \"#utility.yul\":5126:5148   */\n      add\n        /* \"#utility.yul\":5095:5158   */\n      tag_57\n      jump\t// in\n    tag_126:\n        /* \"#utility.yul\":5085:5158   */\n      swap4\n      pop\n        /* \"#utility.yul\":4880:5168   */\n      pop\n        /* \"#utility.yul\":5235:5237   */\n      0x40\n        /* \"#utility.yul\":5224:5233   */\n      dup6\n        /* \"#utility.yul\":5220:5238   */\n      add\n        /* \"#utility.yul\":5207:5239   */\n      calldataload\n        /* \"#utility.yul\":5266:5284   */\n      0xffffffffffffffff\n        /* \"#utility.yul\":5258:5264   */\n      dup2\n        /* \"#utility.yul\":5255:5285   */\n      gt\n        /* \"#utility.yul\":5252:5369   */\n      iszero\n      tag_127\n      jumpi\n        /* \"#utility.yul\":5288:5367   */\n      tag_128\n      tag_48\n      jump\t// in\n    tag_128:\n        /* \"#utility.yul\":5252:5369   */\n    tag_127:\n        /* \"#utility.yul\":5393:5456   */\n      tag_129\n        /* \"#utility.yul\":5448:5455   */\n      dup8\n        /* \"#utility.yul\":5439:5445   */\n      dup3\n        /* \"#utility.yul\":5428:5437   */\n      dup9\n        /* \"#utility.yul\":5424:5446   */\n      add\n        /* \"#utility.yul\":5393:5456   */\n      tag_57\n      jump\t// in\n    tag_129:\n        /* \"#utility.yul\":5383:5456   */\n      swap3\n      pop\n        /* \"#utility.yul\":5178:5466   */\n      pop\n        /* \"#utility.yul\":5533:5535   */\n      0x60\n        /* \"#utility.yul\":5522:5531   */\n      dup6\n        /* \"#utility.yul\":5518:5536   */\n      add\n        /* \"#utility.yul\":5505:5537   */\n      calldataload\n        /* \"#utility.yul\":5564:5582   */\n      0xffffffffffffffff\n        /* \"#utility.yul\":5556:5562   */\n      dup2\n        /* \"#utility.yul\":5553:5583   */\n      gt\n        /* \"#utility.yul\":5550:5667   */\n      iszero\n      tag_130\n      jumpi\n        /* \"#utility.yul\":5586:5665   */\n      tag_131\n      tag_48\n      jump\t// in\n    tag_131:\n        /* \"#utility.yul\":5550:5667   */\n    tag_130:\n        /* \"#utility.yul\":5691:5754   */\n      tag_132\n        /* \"#utility.yul\":5746:5753   */\n      dup8\n        /* \"#utility.yul\":5737:5743   */\n      dup3\n        /* \"#utility.yul\":5726:5735   */\n      dup9\n        /* \"#utility.yul\":5722:5744   */\n      add\n        /* \"#utility.yul\":5691:5754   */\n      tag_57\n      jump\t// in\n    tag_132:\n        /* \"#utility.yul\":5681:5754   */\n      swap2\n      pop\n        /* \"#utility.yul\":5476:5764   */\n      pop\n        /* \"#utility.yul\":4286:5771   */\n      swap3\n      swap6\n      swap2\n      swap5\n      pop\n      swap3\n      pop\n      jump\t// out\n        /* \"#utility.yul\":5777:5957   */\n    tag_58:\n        /* \"#utility.yul\":5825:5902   */\n      0x4e487b7100000000000000000000000000000000000000000000000000000000\n        /* \"#utility.yul\":5822:5823   */\n      0x00\n        /* \"#utility.yul\":5815:5903   */\n      mstore\n        /* \"#utility.yul\":5922:5926   */\n      0x22\n        /* \"#utility.yul\":5919:5920   */\n      0x04\n        /* \"#utility.yul\":5912:5927   */\n      mstore\n        /* \"#utility.yul\":5946:5950   */\n      0x24\n        /* \"#utility.yul\":5943:5944   */\n      0x00\n        /* \"#utility.yul\":5936:5951   */\n      revert\n        /* \"#utility.yul\":5963:6283   */\n    tag_15:\n        /* \"#utility.yul\":6007:6013   */\n      0x00\n        /* \"#utility.yul\":6044:6045   */\n      0x02\n        /* \"#utility.yul\":6038:6042   */\n      dup3\n        /* \"#utility.yul\":6034:6046   */\n      div\n        /* \"#utility.yul\":6024:6046   */\n      swap1\n      pop\n        /* \"#utility.yul\":6091:6092   */\n      0x01\n        /* \"#utility.yul\":6085:6089   */\n      dup3\n        /* \"#utility.yul\":6081:6093   */\n      and\n        /* \"#utility.yul\":6112:6130   */\n      dup1\n        /* \"#utility.yul\":6102:6183   */\n      tag_135\n      jumpi\n        /* \"#utility.yul\":6168:6172   */\n      0x7f\n        /* \"#utility.yul\":6160:6166   */\n      dup3\n        /* \"#utility.yul\":6156:6173   */\n      and\n        /* \"#utility.yul\":6146:6173   */\n      swap2\n      pop\n        /* \"#utility.yul\":6102:6183   */\n    tag_135:\n        /* \"#utility.yul\":6230:6232   */\n      0x20\n        /* \"#utility.yul\":6222:6228   */\n      dup3\n        /* \"#utility.yul\":6219:6233   */\n      lt\n        /* \"#utility.yul\":6199:6217   */\n      dup2\n        /* \"#utility.yul\":6196:6234   */\n      sub\n        /* \"#utility.yul\":6193:6277   */\n      tag_136\n      jumpi\n        /* \"#utility.yul\":6249:6267   */\n      tag_137\n      tag_58\n      jump\t// in\n    tag_137:\n        /* \"#utility.yul\":6193:6277   */\n    tag_136:\n        /* \"#utility.yul\":6014:6283   */\n      pop\n        /* \"#utility.yul\":5963:6283   */\n      swap2\n      swap1\n      pop\n      jump\t// out\n        /* \"#utility.yul\":6289:6430   */\n    tag_59:\n        /* \"#utility.yul\":6338:6342   */\n      0x00\n        /* \"#utility.yul\":6361:6364   */\n      dup2\n        /* \"#utility.yul\":6353:6364   */\n      swap1\n      pop\n        /* \"#utility.yul\":6384:6387   */\n      dup2\n        /* \"#utility.yul\":6381:6382   */\n      0x00\n        /* \"#utility.yul\":6374:6388   */\n      mstore\n        /* \"#utility.yul\":6418:6422   */\n      0x20\n        /* \"#utility.yul\":6415:6416   */\n      0x00\n        /* \"#utility.yul\":6405:6423   */\n      keccak256\n        /* \"#utility.yul\":6397:6423   */\n      swap1\n      pop\n        /* \"#utility.yul\":6289:6430   */\n      swap2\n      swap1\n      pop\n      jump\t// out\n        /* \"#utility.yul\":6436:6529   */\n    tag_60:\n        /* \"#utility.yul\":6473:6479   */\n      0x00\n        /* \"#utility.yul\":6520:6522   */\n      0x20\n        /* \"#utility.yul\":6515:6517   */\n      0x1f\n        /* \"#utility.yul\":6508:6513   */\n      dup4\n        /* \"#utility.yul\":6504:6518   */\n      add\n        /* \"#utility.yul\":6500:6523   */\n      div\n        /* \"#utility.yul\":6490:6523   */\n      swap1\n      pop\n        /* \"#utility.yul\":6436:6529   */\n      swap2\n      swap1\n      pop\n      jump\t// out\n        /* \"#utility.yul\":6535:6642   */\n    tag_61:\n        /* \"#utility.yul\":6579:6587   */\n      0x00\n        /* \"#utility.yul\":6629:6634   */\n      dup3\n        /* \"#utility.yul\":6623:6627   */\n      dup3\n        /* \"#utility.yul\":6619:6635   */\n      shl\n        /* \"#utility.yul\":6598:6635   */\n      swap1\n      pop\n        /* \"#utility.yul\":6535:6642   */\n      swap3\n      swap2\n      pop\n      pop\n      jump\t// out\n        /* \"#utility.yul\":6648:7041   */\n    tag_62:\n        /* \"#utility.yul\":6717:6723   */\n      0x00\n        /* \"#utility.yul\":6767:6768   */\n      0x08\n        /* \"#utility.yul\":6755:6765   */\n      dup4\n        /* \"#utility.yul\":6751:6769   */\n      mul\n        /* \"#utility.yul\":6790:6887   */\n      tag_142\n        /* \"#utility.yul\":6820:6886   */\n      0xffffffffffffffffffffffffffffffffffffffffffffffffffffffffffffffff\n        /* \"#utility.yul\":6809:6818   */\n      dup3\n        /* \"#utility.yul\":6790:6887   */\n      tag_61\n      jump\t// in\n    tag_142:\n        /* \"#utility.yul\":6908:6947   */\n      tag_143\n        /* \"#utility.yul\":6938:6946   */\n      dup7\n        /* \"#utility.yul\":6927:6936   */\n      dup4\n        /* \"#utility.yul\":6908:6947   */\n      tag_61\n      jump\t// in\n    tag_143:\n        /* \"#utility.yul\":6896:6947   */\n      swap6\n      pop\n        /* \"#utility.yul\":6980:6984   */\n      dup1\n        /* \"#utility.yul\":6976:6985   */\n      not\n        /* \"#utility.yul\":6969:6974   */\n      dup5\n        /* \"#utility.yul\":6965:6986   */\n      and\n        /* \"#utility.yul\":6956:6986   */\n      swap4\n      pop\n        /* \"#utility.yul\":7029:7033   */\n      dup1\n        /* \"#utility.yul\":7019:7027   */\n      dup7\n        /* \"#utility.yul\":7015:7034   */\n      and\n        /* \"#utility.yul\":7008:7013   */\n      dup5\n        /* \"#utility.yul\":7005:7035   */\n      or\n        /* \"#utility.yul\":6995:7035   */\n      swap3\n      pop\n        /* \"#utility.yul\":6724:7041   */\n      pop\n      pop\n        /* \"#utility.yul\":6648:7041   */\n      swap4\n      swap3\n      pop\n      pop\n      pop\n      jump\t// out\n        /* \"#utility.yul\":7047:7124   */\n    tag_63:\n        /* \"#utility.yul\":7084:7091   */\n      0x00\n        /* \"#utility.yul\":7113:7118   */\n      dup2\n        /* \"#utility.yul\":7102:7118   */\n      swap1\n      pop\n        /* \"#utility.yul\":7047:7124   */\n      swap2\n      swap1\n      pop\n      jump\t// out\n        /* \"#utility.yul\":7130:7190   */\n    tag_64:\n        /* \"#utility.yul\":7158:7161   */\n      0x00\n        /* \"#utility.yul\":7179:7184   */\n      dup2\n        /* \"#utility.yul\":7172:7184   */\n      swap1\n      pop\n        /* \"#utility.yul\":7130:7190   */\n      swap2\n      swap1\n      pop\n      jump\t// out\n        /* \"#utility.yul\":7196:7338   */\n    tag_65:\n        /* \"#utility.yul\":7246:7255   */\n      0x00\n        /* \"#utility.yul\":7279:7332   */\n      tag_147\n        /* \"#utility.yul\":7297:7331   */\n      tag_148\n        /* \"#utility.yul\":7306:7330   */\n      tag_149\n        /* \"#utility.yul\":7324:7329   */\n      dup5\n        /* \"#utility.yul\":7306:7330   */\n      tag_63\n      jump\t// in\n    tag_149:\n        /* \"#utility.yul\":7297:7331   */\n      tag_64\n      jump\t// in\n    tag_148:\n        /* \"#utility.yul\":7279:7332   */\n      tag_63\n      jump\t// in\n    tag_147:\n        /* \"#utility.yul\":7266:7332   */\n      swap1\n      pop\n        /* \"#utility.yul\":7196:7338   */\n      swap2\n      swap1\n      pop\n      jump\t// out\n        /* \"#utility.yul\":7344:7419   */\n    tag_66:\n        /* \"#utility.yul\":7387:7390   */\n      0x00\n        /* \"#utility.yul\":7408:7413   */\n      dup2\n        /* \"#utility.yul\":7401:7413   */\n      swap1\n      pop\n        /* \"#utility.yul\":7344:7419   */\n      swap2\n      swap1\n      pop\n      jump\t// out\n        /* \"#utility.yul\":7425:7694   */\n    tag_67:\n        /* \"#utility.yul\":7535:7574   */\n      tag_152\n        /* \"#utility.yul\":7566:7573   */\n      dup4\n        /* \"#utility.yul\":7535:7574   */\n      tag_65\n      jump\t// in\n    tag_152:\n        /* \"#utility.yul\":7596:7687   */\n      tag_153\n        /* \"#utility.yul\":7645:7686   */\n      tag_154\n        /* \"#utility.yul\":7669:7685   */\n      dup3\n        /* \"#utility.yul\":7645:7686   */\n      tag_66\n      jump\t// in\n    tag_154:\n        /* \"#utility.yul\":7637:7643   */\n      dup5\n        /* \"#utility.yul\":7630:7634   */\n      dup5\n        /* \"#utility.yul\":7624:7635   */\n      sload\n        /* \"#utility.yul\":7596:7687   */\n      tag_62\n      jump\t// in\n    tag_153:\n        /* \"#utility.yul\":7590:7594   */\n      dup3\n        /* \"#utility.yul\":7583:7688   */\n      sstore\n        /* \"#utility.yul\":7501:7694   */\n      pop\n        /* \"#utility.yul\":7425:7694   */\n      pop\n      pop\n      pop\n      jump\t// out\n        /* \"#utility.yul\":7700:7773   */\n    tag_68:\n        /* \"#utility.yul\":7745:7748   */\n      0x00\n        /* \"#utility.yul\":7766:7767   */\n      0x00\n        /* \"#utility.yul\":7759:7767   */\n      swap1\n      pop\n        /* \"#utility.yul\":7700:7773   */\n      swap1\n      jump\t// out\n        /* \"#utility.yul\":7779:7968   */\n    tag_69:\n        /* \"#utility.yul\":7856:7888   */\n      tag_157\n      tag_68\n      jump\t// in\n    tag_157:\n        /* \"#utility.yul\":7897:7962   */\n      tag_158\n        /* \"#utility.yul\":7955:7961   */\n      dup2\n        /* \"#utility.yul\":7947:7953   */\n      dup5\n        /* \"#utility.yul\":7941:7945   */\n      dup5\n        /* \"#utility.yul\":7897:7962   */\n      tag_67\n      jump\t// in\n    tag_158:\n        /* \"#utility.yul\":7832:7968   */\n      pop\n        /* \"#utility.yul\":7779:7968   */\n      pop\n      pop\n      jump\t// out\n        /* \"#utility.yul\":7974:8160   */\n    tag_70:\n        /* \"#utility.yul\":8034:8154   */\n    tag_160:\n        /* \"#utility.yul\":8051:8054   */\n      dup2\n        /* \"#utility.yul\":8044:8049   */\n      dup2\n        /* \"#utility.yul\":8041:8055   */\n      lt\n        /* \"#utility.yul\":8034:8154   */\n      iszero\n      tag_162\n      jumpi\n        /* \"#utility.yul\":8105:8144   */\n      tag_163\n        /* \"#utility.yul\":8142:8143   */\n      0x00\n        /* \"#utility.yul\":8135:8140   */\n      dup3\n        /* \"#utility.yul\":8105:8144   */\n      tag_69\n      jump\t// in\n    tag_163:\n        /* \"#utility.yul\":8078:8079   */\n      0x01\n        /* \"#utility.yul\":8071:8076   */\n      dup2\n        /* \"#utility.yul\":8067:8080   */\n      add\n        /* \"#utility.yul\":8058:8080   */\n      swap1\n      pop\n        /* \"#utility.yul\":8034:8154   */\n      jump(tag_160)\n    tag_162:\n        /* \"#utility.yul\":7974:8160   */\n      pop\n      pop\n      jump\t// out\n        /* \"#utility.yul\":8166:8709   */\n    tag_71:\n        /* \"#utility.yul\":8267:8269   */\n      0x1f\n        /* \"#utility.yul\":8262:8265   */\n      dup3\n        /* \"#utility.yul\":8259:8270   */\n      gt\n        /* \"#utility.yul\":8256:8702   */\n      iszero\n      tag_165\n      jumpi\n        /* \"#utility.yul\":8301:8339   */\n      tag_166\n        /* \"#utility.yul\":8333:8338   */\n      dup2\n        /* \"#utility.yul\":8301:8339   */\n      tag_59\n      jump\t// in\n    tag_166:\n        /* \"#utility.yul\":8385:8414   */\n      tag_167\n        /* \"#utility.yul\":8403:8413   */\n      dup5\n        /* \"#utility.yul\":8385:8414   */\n      tag_60\n      jump\t// in\n    tag_167:\n        /* \"#utility.yul\":8375:8383   */\n      dup2\n        /* \"#utility.yul\":8371:8415   */\n      add\n        /* \"#utility.yul\":8568:8570   */\n      0x20\n        /* \"#utility.yul\":8556:8566   */\n      dup6\n        /* \"#utility.yul\":8553:8571   */\n      lt\n        /* \"#utility.yul\":8550:8599   */\n      iszero\n      tag_168\n      jumpi\n        /* \"#utility.yul\":8589:8597   */\n      dup2\n        /* \"#utility.yul\":8574:8597   */\n      swap1\n      pop\n        /* \"#utility.yul\":8550:8599   */\n    tag_168:\n        /* \"#utility.yul\":8612:8692   */\n      tag_169\n        /* \"#utility.yul\":8668:8690   */\n      tag_170\n        /* \"#utility.yul\":8686:8689   */\n      dup6\n        /* \"#utility.yul\":8668:8690   */\n      tag_60\n      jump\t// in\n    tag_170:\n        /* \"#utility.yul\":8658:8666   */\n      dup4\n        /* \"#utility.yul\":8654:8691   */\n      add\n        /* \"#utility.yul\":8641:8652   */\n      dup3\n        /* \"#utility.yul\":8612:8692   */\n      tag_70\n      jump\t// in\n    tag_169:\n        /* \"#utility.yul\":8271:8702   */\n      pop\n      pop\n        /* \"#utility.yul\":8256:8702   */\n    tag_165:\n        /* \"#utility.yul\":8166:8709   */\n      pop\n      pop\n      pop\n      jump\t// out\n        /* \"#utility.yul\":8715:8832   */\n    tag_72:\n        /* \"#utility.yul\":8769:8777   */\n      0x00\n        /* \"#utility.yul\":8819:8824   */\n      dup3\n        /* \"#utility.yul\":8813:8817   */\n      dup3\n        /* \"#utility.yul\":8809:8825   */\n      shr\n        /* \"#utility.yul\":8788:8825   */\n      swap1\n      pop\n        /* \"#utility.yul\":8715:8832   */\n      swap3\n      swap2\n      pop\n      pop\n      jump\t// out\n        /* \"#utility.yul\":8838:9007   */\n    tag_73:\n        /* \"#utility.yul\":8882:8888   */\n      0x00\n        /* \"#utility.yul\":8915:8966   */\n      tag_173\n        /* \"#utility.yul\":8963:8964   */\n      0x00\n        /* \"#utility.yul\":8959:8965   */\n      not\n        /* \"#utility.yul\":8951:8956   */\n      dup5\n        /* \"#utility.yul\":8948:8949   */\n      0x08\n        /* \"#utility.yul\":8944:8957   */\n      mul\n        /* \"#utility.yul\":8915:8966   */\n      tag_72\n      jump\t// in\n    tag_173:\n        /* \"#utility.yul\":8911:8967   */\n      not\n        /* \"#utility.yul\":8996:9000   */\n      dup1\n        /* \"#utility.yul\":8990:8994   */\n      dup4\n        /* \"#utility.yul\":8986:9001   */\n      and\n        /* \"#utility.yul\":8976:9001   */\n      swap2\n      pop\n        /* \"#utility.yul\":8889:9007   */\n      pop\n        /* \"#utility.yul\":8838:9007   */\n      swap3\n      swap2\n      pop\n      pop\n      jump\t// out\n        /* \"#utility.yul\":9012:9307   */\n    tag_74:\n        /* \"#utility.yul\":9088:9092   */\n      0x00\n        /* \"#utility.yul\":9234:9263   */\n      tag_175\n        /* \"#utility.yul\":9259:9262   */\n      dup4\n        /* \"#utility.yul\":9253:9257   */\n      dup4\n        /* \"#utility.yul\":9234:9263   */\n      tag_73\n      jump\t// in\n    tag_175:\n        /* \"#utility.yul\":9226:9263   */\n      swap2\n      pop\n        /* \"#utility.yul\":9296:9299   */\n      dup3\n        /* \"#utility.yul\":9293:9294   */\n      0x02\n        /* \"#utility.yul\":9289:9300   */\n      mul\n        /* \"#utility.yul\":9283:9287   */\n      dup3\n        /* \"#utility.yul\":9280:9301   */\n      or\n        /* \"#utility.yul\":9272:9301   */\n      swap1\n      pop\n        /* \"#utility.yul\":9012:9307   */\n      swap3\n      swap2\n      pop\n      pop\n      jump\t// out\n        /* \"#utility.yul\":9312:10707   */\n    tag_37:\n        /* \"#utility.yul\":9429:9466   */\n      tag_177\n        /* \"#utility.yul\":9462:9465   */\n      dup3\n        /* \"#utility.yul\":9429:9466   */\n      tag_41\n      jump\t// in\n    tag_177:\n        /* \"#utility.yul\":9531:9549   */\n      0xffffffffffffffff\n        /* \"#utility.yul\":9523:9529   */\n      dup2\n        /* \"#utility.yul\":9520:9550   */\n      gt\n        /* \"#utility.yul\":9517:9573   */\n      iszero\n      tag_178\n      jumpi\n        /* \"#utility.yul\":9553:9571   */\n      tag_179\n      tag_51\n      jump\t// in\n    tag_179:\n        /* \"#utility.yul\":9517:9573   */\n    tag_178:\n        /* \"#utility.yul\":9597:9635   */\n      tag_180\n        /* \"#utility.yul\":9629:9633   */\n      dup3\n        /* \"#utility.yul\":9623:9634   */\n      sload\n        /* \"#utility.yul\":9597:9635   */\n      tag_15\n      jump\t// in\n    tag_180:\n        /* \"#utility.yul\":9682:9749   */\n      tag_181\n        /* \"#utility.yul\":9742:9748   */\n      dup3\n        /* \"#utility.yul\":9734:9740   */\n      dup3\n        /* \"#utility.yul\":9728:9732   */\n      dup6\n        /* \"#utility.yul\":9682:9749   */\n      tag_71\n      jump\t// in\n    tag_181:\n        /* \"#utility.yul\":9776:9777   */\n      0x00\n        /* \"#utility.yul\":9800:9804   */\n      0x20\n        /* \"#utility.yul\":9787:9804   */\n      swap1\n      pop\n        /* \"#utility.yul\":9832:9834   */\n      0x1f\n        /* \"#utility.yul\":9824:9830   */\n      dup4\n        /* \"#utility.yul\":9821:9835   */\n      gt\n        /* \"#utility.yul\":9849:9850   */\n      0x01\n        /* \"#utility.yul\":9844:10462   */\n      dup2\n      eq\n      tag_183\n      jumpi\n        /* \"#utility.yul\":10506:10507   */\n      0x00\n        /* \"#utility.yul\":10523:10529   */\n      dup5\n        /* \"#utility.yul\":10520:10597   */\n      iszero\n      tag_184\n      jumpi\n        /* \"#utility.yul\":10572:10581   */\n      dup3\n        /* \"#utility.yul\":10567:10570   */\n      dup8\n        /* \"#utility.yul\":10563:10582   */\n      add\n        /* \"#utility.yul\":10557:10583   */\n      mload\n        /* \"#utility.yul\":10548:10583   */\n      swap1\n      pop\n        /* \"#utility.yul\":10520:10597   */\n    tag_184:\n        /* \"#utility.yul\":10623:10690   */\n      tag_185\n        /* \"#utility.yul\":10683:10689   */\n      dup6\n        /* \"#utility.yul\":10676:10681   */\n      dup3\n        /* \"#utility.yul\":10623:10690   */\n      tag_74\n      jump\t// in\n    tag_185:\n        /* \"#utility.yul\":10617:10621   */\n      dup7\n        /* \"#utility.yul\":10610:10691   */\n      sstore\n        /* \"#utility.yul\":10479:10701   */\n      pop\n        /* \"#utility.yul\":9814:10701   */\n      jump(tag_182)\n        /* \"#utility.yul\":9844:10462   */\n    tag_183:\n        /* \"#utility.yul\":9896:9900   */\n      0x1f\n        /* \"#utility.yul\":9892:9901   */\n      not\n        /* \"#utility.yul\":9884:9890   */\n      dup5\n        /* \"#utility.yul\":9880:9902   */\n      and\n        /* \"#utility.yul\":9930:9967   */\n      tag_186\n        /* \"#utility.yul\":9962:9966   */\n      dup7\n        /* \"#utility.yul\":9930:9967   */\n      tag_59\n      jump\t// in\n    tag_186:\n        /* \"#utility.yul\":9989:9990   */\n      0x00\n        /* \"#utility.yul\":10003:10211   */\n    tag_187:\n        /* \"#utility.yul\":10017:10024   */\n      dup3\n        /* \"#utility.yul\":10014:10015   */\n      dup2\n        /* \"#utility.yul\":10011:10025   */\n      lt\n        /* \"#utility.yul\":10003:10211   */\n      iszero\n      tag_189\n      jumpi\n        /* \"#utility.yul\":10096:10105   */\n      dup5\n        /* \"#utility.yul\":10091:10094   */\n      dup10\n        /* \"#utility.yul\":10087:10106   */\n      add\n        /* \"#utility.yul\":10081:10107   */\n      mload\n        /* \"#utility.yul\":10073:10079   */\n      dup3\n        /* \"#utility.yul\":10066:10108   */\n      sstore\n        /* \"#utility.yul\":10147:10148   */\n      0x01\n        /* \"#utility.yul\":10139:10145   */\n      dup3\n        /* \"#utility.yul\":10135:10149   */\n      add\n        /* \"#utility.yul\":10125:10149   */\n      swap2\n      pop\n        /* \"#utility.yul\":10194:10196   */\n      0x20\n        /* \"#utility.yul\":10183:10192   */\n      dup6\n        /* \"#utility.yul\":10179:10197   */\n      add\n        /* \"#utility.yul\":10166:10197   */\n      swap5\n      pop\n        /* \"#utility.yul\":10040:10044   */\n      0x20\n        /* \"#utility.yul\":10037:10038   */\n      dup2\n        /* \"#utility.yul\":10033:10045   */\n      add\n        /* \"#utility.yul\":10028:10045   */\n      swap1\n      pop\n        /* \"#utility.yul\":10003:10211   */\n      jump(tag_187)\n    tag_189:\n        /* \"#utility.yul\":10239:10245   */\n      dup7\n        /* \"#utility.yul\":10230:10237   */\n      dup4\n        /* \"#utility.yul\":10227:10246   */\n      lt\n        /* \"#utility.yul\":10224:10403   */\n      iszero\n      tag_190\n      jumpi\n        /* \"#utility.yul\":10297:10306   */\n      dup5\n        /* \"#utility.yul\":10292:10295   */\n      dup10\n        /* \"#utility.yul\":10288:10307   */\n      add\n        /* \"#utility.yul\":10282:10308   */\n      mload\n        /* \"#utility.yul\":10340:10388   */\n      tag_191\n        /* \"#utility.yul\":10382:10386   */\n      0x1f\n        /* \"#utility.yul\":10374:10380   */\n      dup10\n        /* \"#utility.yul\":10370:10387   */\n      and\n        /* \"#utility.yul\":10359:10368   */\n      dup3\n        /* \"#utility.yul\":10340:10388   */\n      tag_73\n      jump\t// in\n    tag_191:\n        /* \"#utility.yul\":10332:10338   */\n      dup4\n        /* \"#utility.yul\":10325:10389   */\n      sstore\n        /* \"#utility.yul\":10247:10403   */\n      pop\n        /* \"#utility.yul\":10224:10403   */\n    tag_190:\n        /* \"#utility.yul\":10449:10450   */\n      0x01\n        /* \"#utility.yul\":10445:10446   */\n      0x02\n        /* \"#utility.yul\":10437:10443   */\n      dup9\n        /* \"#utility.yul\":10433:10447   */\n      mul\n        /* \"#utility.yul\":10429:10451   */\n      add\n        /* \"#utility.yul\":10423:10427   */\n      dup9\n        /* \"#utility.yul\":10416:10452   */\n      sstore\n        /* \"#utility.yul\":9851:10462   */\n      pop\n      pop\n      pop\n        /* \"#utility.yul\":9814:10701   */\n    tag_182:\n      pop\n        /* \"#utility.yul\":9404:10707   */\n      pop\n      pop\n      pop\n        /* \"#utility.yul\":9312:10707   */\n      pop\n      pop\n      jump\t// out\n\n    auxdata: 0xa2646970667358221220ce45cbcc6980aed4d9e8d838d172e5d9574d11aaf74ea368dab4e039ba737cba64736f6c634300081e0033\n}\n",
				"bytecode": {
					"linkReferences": {},
					"object": "6080604052348015600e575f5ffd5b506108e88061001c5f395ff3fe608060405234801561000f575f5ffd5b5060043610610034575f3560e01c80632e64cec114610038578063878fc10814610059575b5f5ffd5b610040610075565b604051610050949392919061036d565b60405180910390f35b610073600480360381019061006e9190610509565b6102b8565b005b6060806060805f60016002600383805461008e9061060a565b80601f01602080910402602001604051908101604052809291908181526020018280546100ba9061060a565b80156101055780601f106100dc57610100808354040283529160200191610105565b820191905f5260205f20905b8154815290600101906020018083116100e857829003601f168201915b505050505093508280546101189061060a565b80601f01602080910402602001604051908101604052809291908181526020018280546101449061060a565b801561018f5780601f106101665761010080835404028352916020019161018f565b820191905f5260205f20905b81548152906001019060200180831161017257829003601f168201915b505050505092508180546101a29061060a565b80601f01602080910402602001604051908101604052809291908181526020018280546101ce9061060a565b80156102195780601f106101f057610100808354040283529160200191610219565b820191905f5260205f20905b8154815290600101906020018083116101fc57829003601f168201915b5050505050915080805461022c9061060a565b80601f01602080910402602001604051908101604052809291908181526020018280546102589061060a565b80156102a35780601f1061027a576101008083540402835291602001916102a3565b820191905f5260205f20905b81548152906001019060200180831161028657829003601f168201915b50505050509050935093509350935090919293565b835f90816102c691906107e3565b5082600190816102d691906107e3565b5081600290816102e691906107e3565b5080600390816102f691906107e3565b5050505050565b5f81519050919050565b5f82825260208201905092915050565b8281835e5f83830152505050565b5f601f19601f8301169050919050565b5f61033f826102fd565b6103498185610307565b9350610359818560208601610317565b61036281610325565b840191505092915050565b5f6080820190508181035f8301526103858187610335565b905081810360208301526103998186610335565b905081810360408301526103ad8185610335565b905081810360608301526103c18184610335565b905095945050505050565b5f604051905090565b5f5ffd5b5f5ffd5b5f5ffd5b5f5ffd5b7f4e487b71000000000000000000000000000000000000000000000000000000005f52604160045260245ffd5b61041b82610325565b810181811067ffffffffffffffff8211171561043a576104396103e5565b5b80604052505050565b5f61044c6103cc565b90506104588282610412565b919050565b5f67ffffffffffffffff821115610477576104766103e5565b5b61048082610325565b9050602081019050919050565b828183375f83830152505050565b5f6104ad6104a88461045d565b610443565b9050828152602081018484840111156104c9576104c86103e1565b5b6104d484828561048d565b509392505050565b5f82601f8301126104f0576104ef6103dd565b5b813561050084826020860161049b565b91505092915050565b5f5f5f5f60808587031215610521576105206103d5565b5b5f85013567ffffffffffffffff81111561053e5761053d6103d9565b5b61054a878288016104dc565b945050602085013567ffffffffffffffff81111561056b5761056a6103d9565b5b610577878288016104dc565b935050604085013567ffffffffffffffff811115610598576105976103d9565b5b6105a4878288016104dc565b925050606085013567ffffffffffffffff8111156105c5576105c46103d9565b5b6105d1878288016104dc565b91505092959194509250565b7f4e487b71000000000000000000000000000000000000000000000000000000005f52602260045260245ffd5b5f600282049050600182168061062157607f821691505b602082108103610634576106336105dd565b5b50919050565b5f819050815f5260205f209050919050565b5f6020601f8301049050919050565b5f82821b905092915050565b5f600883026106967fffffffffffffffffffffffffffffffffffffffffffffffffffffffffffffffff8261065b565b6106a0868361065b565b95508019841693508086168417925050509392505050565b5f819050919050565b5f819050919050565b5f6106e46106df6106da846106b8565b6106c1565b6106b8565b9050919050565b5f819050919050565b6106fd836106ca565b610711610709826106eb565b848454610667565b825550505050565b5f5f905090565b610728610719565b6107338184846106f4565b505050565b5b818110156107565761074b5f82610720565b600181019050610739565b5050565b601f82111561079b5761076c8161063a565b6107758461064c565b81016020851015610784578190505b6107986107908561064c565b830182610738565b50505b505050565b5f82821c905092915050565b5f6107bb5f19846008026107a0565b1980831691505092915050565b5f6107d383836107ac565b9150826002028217905092915050565b6107ec826102fd565b67ffffffffffffffff811115610805576108046103e5565b5b61080f825461060a565b61081a82828561075a565b5f60209050601f83116001811461084b575f8415610839578287015190505b61084385826107c8565b8655506108aa565b601f1984166108598661063a565b5f5b828110156108805784890151825560018201915060208501945060208101905061085b565b8683101561089d5784890151610899601f8916826107ac565b8355505b6001600288020188555050505b50505050505056fea2646970667358221220ce45cbcc6980aed4d9e8d838d172e5d9574d11aaf74ea368dab4e039ba737cba64736f6c634300081e0033",
					"opcodes": "PUSH1 0x80 PUSH1 0x40 MSTORE CALLVALUE DUP1 ISZERO PUSH1 0xE JUMPI PUSH0 PUSH0 REVERT JUMPDEST POP PUSH2 0x8E8 DUP1 PUSH2 0x1C PUSH0 CODECOPY PUSH0 RETURN INVALID PUSH1 0x80 PUSH1 0x40 MSTORE CALLVALUE DUP1 ISZERO PUSH2 0xF JUMPI PUSH0 PUSH0 REVERT JUMPDEST POP PUSH1 0x4 CALLDATASIZE LT PUSH2 0x34 JUMPI PUSH0 CALLDATALOAD PUSH1 0xE0 SHR DUP1 PUSH4 0x2E64CEC1 EQ PUSH2 0x38 JUMPI DUP1 PUSH4 0x878FC108 EQ PUSH2 0x59 JUMPI JUMPDEST PUSH0 PUSH0 REVERT JUMPDEST PUSH2 0x40 PUSH2 0x75 JUMP JUMPDEST PUSH1 0x40 MLOAD PUSH2 0x50 SWAP5 SWAP4 SWAP3 SWAP2 SWAP1 PUSH2 0x36D JUMP JUMPDEST PUSH1 0x40 MLOAD DUP1 SWAP2 SUB SWAP1 RETURN JUMPDEST PUSH2 0x73 PUSH1 0x4 DUP1 CALLDATASIZE SUB DUP2 ADD SWAP1 PUSH2 0x6E SWAP2 SWAP1 PUSH2 0x509 JUMP JUMPDEST PUSH2 0x2B8 JUMP JUMPDEST STOP JUMPDEST PUSH1 0x60 DUP1 PUSH1 0x60 DUP1 PUSH0 PUSH1 0x1 PUSH1 0x2 PUSH1 0x3 DUP4 DUP1 SLOAD PUSH2 0x8E SWAP1 PUSH2 0x60A JUMP JUMPDEST DUP1 PUSH1 0x1F ADD PUSH1 0x20 DUP1 SWAP2 DIV MUL PUSH1 0x20 ADD PUSH1 0x40 MLOAD SWAP1 DUP2 ADD PUSH1 0x40 MSTORE DUP1 SWAP3 SWAP2 SWAP1 DUP2 DUP2 MSTORE PUSH1 0x20 ADD DUP3 DUP1 SLOAD PUSH2 0xBA SWAP1 PUSH2 0x60A JUMP JUMPDEST DUP1 ISZERO PUSH2 0x105 JUMPI DUP1 PUSH1 0x1F LT PUSH2 0xDC JUMPI PUSH2 0x100 DUP1 DUP4 SLOAD DIV MUL DUP4 MSTORE SWAP2 PUSH1 0x20 ADD SWAP2 PUSH2 0x105 JUMP JUMPDEST DUP3 ADD SWAP2 SWAP1 PUSH0 MSTORE PUSH1 0x20 PUSH0 KECCAK256 SWAP1 JUMPDEST DUP2 SLOAD DUP2 MSTORE SWAP1 PUSH1 0x1 ADD SWAP1 PUSH1 0x20 ADD DUP1 DUP4 GT PUSH2 0xE8 JUMPI DUP3 SWAP1 SUB PUSH1 0x1F AND DUP3 ADD SWAP2 JUMPDEST POP POP POP POP POP SWAP4 POP DUP3 DUP1 SLOAD PUSH2 0x118 SWAP1 PUSH2 0x60A JUMP JUMPDEST DUP1 PUSH1 0x1F ADD PUSH1 0x20 DUP1 SWAP2 DIV MUL PUSH1 0x20 ADD PUSH1 0x40 MLOAD SWAP1 DUP2 ADD PUSH1 0x40 MSTORE DUP1 SWAP3 SWAP2 SWAP1 DUP2 DUP2 MSTORE PUSH1 0x20 ADD DUP3 DUP1 SLOAD PUSH2 0x144 SWAP1 PUSH2 0x60A JUMP JUMPDEST DUP1 ISZERO PUSH2 0x18F JUMPI DUP1 PUSH1 0x1F LT PUSH2 0x166 JUMPI PUSH2 0x100 DUP1 DUP4 SLOAD DIV MUL DUP4 MSTORE SWAP2 PUSH1 0x20 ADD SWAP2 PUSH2 0x18F JUMP JUMPDEST DUP3 ADD SWAP2 SWAP1 PUSH0 MSTORE PUSH1 0x20 PUSH0 KECCAK256 SWAP1 JUMPDEST DUP2 SLOAD DUP2 MSTORE SWAP1 PUSH1 0x1 ADD SWAP1 PUSH1 0x20 ADD DUP1 DUP4 GT PUSH2 0x172 JUMPI DUP3 SWAP1 SUB PUSH1 0x1F AND DUP3 ADD SWAP2 JUMPDEST POP POP POP POP POP SWAP3 POP DUP2 DUP1 SLOAD PUSH2 0x1A2 SWAP1 PUSH2 0x60A JUMP JUMPDEST DUP1 PUSH1 0x1F ADD PUSH1 0x20 DUP1 SWAP2 DIV MUL PUSH1 0x20 ADD PUSH1 0x40 MLOAD SWAP1 DUP2 ADD PUSH1 0x40 MSTORE DUP1 SWAP3 SWAP2 SWAP1 DUP2 DUP2 MSTORE PUSH1 0x20 ADD DUP3 DUP1 SLOAD PUSH2 0x1CE SWAP1 PUSH2 0x60A JUMP JUMPDEST DUP1 ISZERO PUSH2 0x219 JUMPI DUP1 PUSH1 0x1F LT PUSH2 0x1F0 JUMPI PUSH2 0x100 DUP1 DUP4 SLOAD DIV MUL DUP4 MSTORE SWAP2 PUSH1 0x20 ADD SWAP2 PUSH2 0x219 JUMP JUMPDEST DUP3 ADD SWAP2 SWAP1 PUSH0 MSTORE PUSH1 0x20 PUSH0 KECCAK256 SWAP1 JUMPDEST DUP2 SLOAD DUP2 MSTORE SWAP1 PUSH1 0x1 ADD SWAP1 PUSH1 0x20 ADD DUP1 DUP4 GT PUSH2 0x1FC JUMPI DUP3 SWAP1 SUB PUSH1 0x1F AND DUP3 ADD SWAP2 JUMPDEST POP POP POP POP POP SWAP2 POP DUP1 DUP1 SLOAD PUSH2 0x22C SWAP1 PUSH2 0x60A JUMP JUMPDEST DUP1 PUSH1 0x1F ADD PUSH1 0x20 DUP1 SWAP2 DIV MUL PUSH1 0x20 ADD PUSH1 0x40 MLOAD SWAP1 DUP2 ADD PUSH1 0x40 MSTORE DUP1 SWAP3 SWAP2 SWAP1 DUP2 DUP2 MSTORE PUSH1 0x20 ADD DUP3 DUP1 SLOAD PUSH2 0x258 SWAP1 PUSH2 0x60A JUMP JUMPDEST DUP1 ISZERO PUSH2 0x2A3 JUMPI DUP1 PUSH1 0x1F LT PUSH2 0x27A JUMPI PUSH2 0x100 DUP1 DUP4 SLOAD DIV MUL DUP4 MSTORE SWAP2 PUSH1 0x20 ADD SWAP2 PUSH2 0x2A3 JUMP JUMPDEST DUP3 ADD SWAP2 SWAP1 PUSH0 MSTORE PUSH1 0x20 PUSH0 KECCAK256 SWAP1 JUMPDEST DUP2 SLOAD DUP2 MSTORE SWAP1 PUSH1 0x1 ADD SWAP1 PUSH1 0x20 ADD DUP1 DUP4 GT PUSH2 0x286 JUMPI DUP3 SWAP1 SUB PUSH1 0x1F AND DUP3 ADD SWAP2 JUMPDEST POP POP POP POP POP SWAP1 POP SWAP4 POP SWAP4 POP SWAP4 POP SWAP4 POP SWAP1 SWAP2 SWAP3 SWAP4 JUMP JUMPDEST DUP4 PUSH0 SWAP1 DUP2 PUSH2 0x2C6 SWAP2 SWAP1 PUSH2 0x7E3 JUMP JUMPDEST POP DUP3 PUSH1 0x1 SWAP1 DUP2 PUSH2 0x2D6 SWAP2 SWAP1 PUSH2 0x7E3 JUMP JUMPDEST POP DUP2 PUSH1 0x2 SWAP1 DUP2 PUSH2 0x2E6 SWAP2 SWAP1 PUSH2 0x7E3 JUMP JUMPDEST POP DUP1 PUSH1 0x3 SWAP1 DUP2 PUSH2 0x2F6 SWAP2 SWAP1 PUSH2 0x7E3 JUMP JUMPDEST POP POP POP POP POP JUMP JUMPDEST PUSH0 DUP2 MLOAD SWAP1 POP SWAP2 SWAP1 POP JUMP JUMPDEST PUSH0 DUP3 DUP3 MSTORE PUSH1 0x20 DUP3 ADD SWAP1 POP SWAP3 SWAP2 POP POP JUMP JUMPDEST DUP3 DUP2 DUP4 MCOPY PUSH0 DUP4 DUP4 ADD MSTORE POP POP POP JUMP JUMPDEST PUSH0 PUSH1 0x1F NOT PUSH1 0x1F DUP4 ADD AND SWAP1 POP SWAP2 SWAP1 POP JUMP JUMPDEST PUSH0 PUSH2 0x33F DUP3 PUSH2 0x2FD JUMP JUMPDEST PUSH2 0x349 DUP2 DUP6 PUSH2 0x307 JUMP JUMPDEST SWAP4 POP PUSH2 0x359 DUP2 DUP6 PUSH1 0x20 DUP7 ADD PUSH2 0x317 JUMP JUMPDEST PUSH2 0x362 DUP2 PUSH2 0x325 JUMP JUMPDEST DUP5 ADD SWAP2 POP POP SWAP3 SWAP2 POP POP JUMP JUMPDEST PUSH0 PUSH1 0x80 DUP3 ADD SWAP1 POP DUP2 DUP2 SUB PUSH0 DUP4 ADD MSTORE PUSH2 0x385 DUP2 DUP8 PUSH2 0x335 JUMP JUMPDEST SWAP1 POP DUP2 DUP2 SUB PUSH1 0x20 DUP4 ADD MSTORE PUSH2 0x399 DUP2 DUP7 PUSH2 0x335 JUMP JUMPDEST SWAP1 POP DUP2 DUP2 SUB PUSH1 0x40 DUP4 ADD MSTORE PUSH2 0x3AD DUP2 DUP6 PUSH2 0x335 JUMP JUMPDEST SWAP1 POP DUP2 DUP2 SUB PUSH1 0x60 DUP4 ADD MSTORE PUSH2 0x3C1 DUP2 DUP5 PUSH2 0x335 JUMP JUMPDEST SWAP1 POP SWAP6 SWAP5 POP POP POP POP POP JUMP JUMPDEST PUSH0 PUSH1 0x40 MLOAD SWAP1 POP SWAP1 JUMP JUMPDEST PUSH0 PUSH0 REVERT JUMPDEST PUSH0 PUSH0 REVERT JUMPDEST PUSH0 PUSH0 REVERT JUMPDEST PUSH0 PUSH0 REVERT JUMPDEST PUSH32 0x4E487B7100000000000000000000000000000000000000000000000000000000 PUSH0 MSTORE PUSH1 0x41 PUSH1 0x4 MSTORE PUSH1 0x24 PUSH0 REVERT JUMPDEST PUSH2 0x41B DUP3 PUSH2 0x325 JUMP JUMPDEST DUP2 ADD DUP2 DUP2 LT PUSH8 0xFFFFFFFFFFFFFFFF DUP3 GT OR ISZERO PUSH2 0x43A JUMPI PUSH2 0x439 PUSH2 0x3E5 JUMP JUMPDEST JUMPDEST DUP1 PUSH1 0x40 MSTORE POP POP POP JUMP JUMPDEST PUSH0 PUSH2 0x44C PUSH2 0x3CC JUMP JUMPDEST SWAP1 POP PUSH2 0x458 DUP3 DUP3 PUSH2 0x412 JUMP JUMPDEST SWAP2 SWAP1 POP JUMP JUMPDEST PUSH0 PUSH8 0xFFFFFFFFFFFFFFFF DUP3 GT ISZERO PUSH2 0x477 JUMPI PUSH2 0x476 PUSH2 0x3E5 JUMP JUMPDEST JUMPDEST PUSH2 0x480 DUP3 PUSH2 0x325 JUMP JUMPDEST SWAP1 POP PUSH1 0x20 DUP2 ADD SWAP1 POP SWAP2 SWAP1 POP JUMP JUMPDEST DUP3 DUP2 DUP4 CALLDATACOPY PUSH0 DUP4 DUP4 ADD MSTORE POP POP POP JUMP JUMPDEST PUSH0 PUSH2 0x4AD PUSH2 0x4A8 DUP5 PUSH2 0x45D JUMP JUMPDEST PUSH2 0x443 JUMP JUMPDEST SWAP1 POP DUP3 DUP2 MSTORE PUSH1 0x20 DUP2 ADD DUP5 DUP5 DUP5 ADD GT ISZERO PUSH2 0x4C9 JUMPI PUSH2 0x4C8 PUSH2 0x3E1 JUMP JUMPDEST JUMPDEST PUSH2 0x4D4 DUP5 DUP3 DUP6 PUSH2 0x48D JUMP JUMPDEST POP SWAP4 SWAP3 POP POP POP JUMP JUMPDEST PUSH0 DUP3 PUSH1 0x1F DUP4 ADD SLT PUSH2 0x4F0 JUMPI PUSH2 0x4EF PUSH2 0x3DD JUMP JUMPDEST JUMPDEST DUP2 CALLDATALOAD PUSH2 0x500 DUP5 DUP3 PUSH1 0x20 DUP7 ADD PUSH2 0x49B JUMP JUMPDEST SWAP2 POP POP SWAP3 SWAP2 POP POP JUMP JUMPDEST PUSH0 PUSH0 PUSH0 PUSH0 PUSH1 0x80 DUP6 DUP8 SUB SLT ISZERO PUSH2 0x521 JUMPI PUSH2 0x520 PUSH2 0x3D5 JUMP JUMPDEST JUMPDEST PUSH0 DUP6 ADD CALLDATALOAD PUSH8 0xFFFFFFFFFFFFFFFF DUP2 GT ISZERO PUSH2 0x53E JUMPI PUSH2 0x53D PUSH2 0x3D9 JUMP JUMPDEST JUMPDEST PUSH2 0x54A DUP8 DUP3 DUP9 ADD PUSH2 0x4DC JUMP JUMPDEST SWAP5 POP POP PUSH1 0x20 DUP6 ADD CALLDATALOAD PUSH8 0xFFFFFFFFFFFFFFFF DUP2 GT ISZERO PUSH2 0x56B JUMPI PUSH2 0x56A PUSH2 0x3D9 JUMP JUMPDEST JUMPDEST PUSH2 0x577 DUP8 DUP3 DUP9 ADD PUSH2 0x4DC JUMP JUMPDEST SWAP4 POP POP PUSH1 0x40 DUP6 ADD CALLDATALOAD PUSH8 0xFFFFFFFFFFFFFFFF DUP2 GT ISZERO PUSH2 0x598 JUMPI PUSH2 0x597 PUSH2 0x3D9 JUMP JUMPDEST JUMPDEST PUSH2 0x5A4 DUP8 DUP3 DUP9 ADD PUSH2 0x4DC JUMP JUMPDEST SWAP3 POP POP PUSH1 0x60 DUP6 ADD CALLDATALOAD PUSH8 0xFFFFFFFFFFFFFFFF DUP2 GT ISZERO PUSH2 0x5C5 JUMPI PUSH2 0x5C4 PUSH2 0x3D9 JUMP JUMPDEST JUMPDEST PUSH2 0x5D1 DUP8 DUP3 DUP9 ADD PUSH2 0x4DC JUMP JUMPDEST SWAP2 POP POP SWAP3 SWAP6 SWAP2 SWAP5 POP SWAP3 POP JUMP JUMPDEST PUSH32 0x4E487B7100000000000000000000000000000000000000000000000000000000 PUSH0 MSTORE PUSH1 0x22 PUSH1 0x4 MSTORE PUSH1 0x24 PUSH0 REVERT JUMPDEST PUSH0 PUSH1 0x2 DUP3 DIV SWAP1 POP PUSH1 0x1 DUP3 AND DUP1 PUSH2 0x621 JUMPI PUSH1 0x7F DUP3 AND SWAP2 POP JUMPDEST PUSH1 0x20 DUP3 LT DUP2 SUB PUSH2 0x634 JUMPI PUSH2 0x633 PUSH2 0x5DD JUMP JUMPDEST JUMPDEST POP SWAP2 SWAP1 POP JUMP JUMPDEST PUSH0 DUP2 SWAP1 POP DUP2 PUSH0 MSTORE PUSH1 0x20 PUSH0 KECCAK256 SWAP1 POP SWAP2 SWAP1 POP JUMP JUMPDEST PUSH0 PUSH1 0x20 PUSH1 0x1F DUP4 ADD DIV SWAP1 POP SWAP2 SWAP1 POP JUMP JUMPDEST PUSH0 DUP3 DUP3 SHL SWAP1 POP SWAP3 SWAP2 POP POP JUMP JUMPDEST PUSH0 PUSH1 0x8 DUP4 MUL PUSH2 0x696 PUSH32 0xFFFFFFFFFFFFFFFFFFFFFFFFFFFFFFFFFFFFFFFFFFFFFFFFFFFFFFFFFFFFFFFF DUP3 PUSH2 0x65B JUMP JUMPDEST PUSH2 0x6A0 DUP7 DUP4 PUSH2 0x65B JUMP JUMPDEST SWAP6 POP DUP1 NOT DUP5 AND SWAP4 POP DUP1 DUP7 AND DUP5 OR SWAP3 POP POP POP SWAP4 SWAP3 POP POP POP JUMP JUMPDEST PUSH0 DUP2 SWAP1 POP SWAP2 SWAP1 POP JUMP JUMPDEST PUSH0 DUP2 SWAP1 POP SWAP2 SWAP1 POP JUMP JUMPDEST PUSH0 PUSH2 0x6E4 PUSH2 0x6DF PUSH2 0x6DA DUP5 PUSH2 0x6B8 JUMP JUMPDEST PUSH2 0x6C1 JUMP JUMPDEST PUSH2 0x6B8 JUMP JUMPDEST SWAP1 POP SWAP2 SWAP1 POP JUMP JUMPDEST PUSH0 DUP2 SWAP1 POP SWAP2 SWAP1 POP JUMP JUMPDEST PUSH2 0x6FD DUP4 PUSH2 0x6CA JUMP JUMPDEST PUSH2 0x711 PUSH2 0x709 DUP3 PUSH2 0x6EB JUMP JUMPDEST DUP5 DUP5 SLOAD PUSH2 0x667 JUMP JUMPDEST DUP3 SSTORE POP POP POP POP JUMP JUMPDEST PUSH0 PUSH0 SWAP1 POP SWAP1 JUMP JUMPDEST PUSH2 0x728 PUSH2 0x719 JUMP JUMPDEST PUSH2 0x733 DUP2 DUP5 DUP5 PUSH2 0x6F4 JUMP JUMPDEST POP POP POP JUMP JUMPDEST JUMPDEST DUP2 DUP2 LT ISZERO PUSH2 0x756 JUMPI PUSH2 0x74B PUSH0 DUP3 PUSH2 0x720 JUMP JUMPDEST PUSH1 0x1 DUP2 ADD SWAP1 POP PUSH2 0x739 JUMP JUMPDEST POP POP JUMP JUMPDEST PUSH1 0x1F DUP3 GT ISZERO PUSH2 0x79B JUMPI PUSH2 0x76C DUP2 PUSH2 0x63A JUMP JUMPDEST PUSH2 0x775 DUP5 PUSH2 0x64C JUMP JUMPDEST DUP2 ADD PUSH1 0x20 DUP6 LT ISZERO PUSH2 0x784 JUMPI DUP2 SWAP1 POP JUMPDEST PUSH2 0x798 PUSH2 0x790 DUP6 PUSH2 0x64C JUMP JUMPDEST DUP4 ADD DUP3 PUSH2 0x738 JUMP JUMPDEST POP POP JUMPDEST POP POP POP JUMP JUMPDEST PUSH0 DUP3 DUP3 SHR SWAP1 POP SWAP3 SWAP2 POP POP JUMP JUMPDEST PUSH0 PUSH2 0x7BB PUSH0 NOT DUP5 PUSH1 0x8 MUL PUSH2 0x7A0 JUMP JUMPDEST NOT DUP1 DUP4 AND SWAP2 POP POP SWAP3 SWAP2 POP POP JUMP JUMPDEST PUSH0 PUSH2 0x7D3 DUP4 DUP4 PUSH2 0x7AC JUMP JUMPDEST SWAP2 POP DUP3 PUSH1 0x2 MUL DUP3 OR SWAP1 POP SWAP3 SWAP2 POP POP JUMP JUMPDEST PUSH2 0x7EC DUP3 PUSH2 0x2FD JUMP JUMPDEST PUSH8 0xFFFFFFFFFFFFFFFF DUP2 GT ISZERO PUSH2 0x805 JUMPI PUSH2 0x804 PUSH2 0x3E5 JUMP JUMPDEST JUMPDEST PUSH2 0x80F DUP3 SLOAD PUSH2 0x60A JUMP JUMPDEST PUSH2 0x81A DUP3 DUP3 DUP6 PUSH2 0x75A JUMP JUMPDEST PUSH0 PUSH1 0x20 SWAP1 POP PUSH1 0x1F DUP4 GT PUSH1 0x1 DUP2 EQ PUSH2 0x84B JUMPI PUSH0 DUP5 ISZERO PUSH2 0x839 JUMPI DUP3 DUP8 ADD MLOAD SWAP1 POP JUMPDEST PUSH2 0x843 DUP6 DUP3 PUSH2 0x7C8 JUMP JUMPDEST DUP7 SSTORE POP PUSH2 0x8AA JUMP JUMPDEST PUSH1 0x1F NOT DUP5 AND PUSH2 0x859 DUP7 PUSH2 0x63A JUMP JUMPDEST PUSH0 JUMPDEST DUP3 DUP2 LT ISZERO PUSH2 0x880 JUMPI DUP5 DUP10 ADD MLOAD DUP3 SSTORE PUSH1 0x1 DUP3 ADD SWAP2 POP PUSH1 0x20 DUP6 ADD SWAP5 POP PUSH1 0x20 DUP2 ADD SWAP1 POP PUSH2 0x85B JUMP JUMPDEST DUP7 DUP4 LT ISZERO PUSH2 0x89D JUMPI DUP5 DUP10 ADD MLOAD PUSH2 0x899 PUSH1 0x1F DUP10 AND DUP3 PUSH2 0x7AC JUMP JUMPDEST DUP4 SSTORE POP JUMPDEST PUSH1 0x1 PUSH1 0x2 DUP9 MUL ADD DUP9 SSTORE POP POP POP JUMPDEST POP POP POP POP POP POP JUMP INVALID LOG2 PUSH5 0x6970667358 0x22 SLT KECCAK256 0xCE GASLIMIT 0xCB 0xCC PUSH10 0x80AED4D9E8D838D172E5 0xD9 JUMPI 0x4D GT 0xAA 0xF7 0x4E LOG3 PUSH9 0xDAB4E039BA737CBA64 PUSH20 0x6F6C634300081E00330000000000000000000000 "
				},
				"gasEstimates": {
					"creation": {
						"codeDepositCost": "456000",
						"executionCost": "491",
						"totalCost": "456491"
					},
					"external": {
						"add(string,string,string,string)": "infinite",
						"retrieve()": "infinite"
					}
				},
				"methodIdentifiers": {
					"add(string,string,string,string)": "878fc108",
					"retrieve()": "2e64cec1"
				}
			},
			"storageLayout": {
				"storage": [
					{
						"astId": 3,
						"contract": "submissions/Vickywu/Day2SaveMyName.sol:SaveMyname",
						"label": "name",
						"offset": 0,
						"slot": "0",
						"type": "t_string_storage"
					},
					{
						"astId": 5,
						"contract": "submissions/Vickywu/Day2SaveMyName.sol:SaveMyname",
						"label": "bio",
						"offset": 0,
						"slot": "1",
						"type": "t_string_storage"
					},
					{
						"astId": 7,
						"contract": "submissions/Vickywu/Day2SaveMyName.sol:SaveMyname",
						"label": "age",
						"offset": 0,
						"slot": "2",
						"type": "t_string_storage"
					},
					{
						"astId": 9,
						"contract": "submissions/Vickywu/Day2SaveMyName.sol:SaveMyname",
						"label": "occupation",
						"offset": 0,
						"slot": "3",
						"type": "t_string_storage"
					}
				],
				"types": {
					"t_string_storage": {
						"encoding": "bytes",
						"label": "string",
						"numberOfBytes": "32"
					}
				}
			},
			"userdoc": {
				"kind": "user",
				"methods": {},
				"version": 1
			}
		}
	}
}