{
	"submissions/Serena Y/Day9-ScientificCalculator.sol": {
		"ScientificCalculator": {
			"abi": [
				{
					"inputs": [
						{
							"internalType": "uint256",
							"name": "base",
							"type": "uint256"
						},
						{
							"internalType": "uint256",
							"name": "exponent",
							"type": "uint256"
						}
					],
					"name": "power",
					"outputs": [
						{
							"internalType": "uint256",
							"name": "",
							"type": "uint256"
						}
					],
					"stateMutability": "pure",
					"type": "function"
				},
				{
					"inputs": [
						{
							"internalType": "int256",
							"name": "number",
							"type": "int256"
						}
					],
					"name": "squareRoot",
					"outputs": [
						{
							"internalType": "int256",
							"name": "",
							"type": "int256"
						}
					],
					"stateMutability": "pure",
					"type": "function"
				}
			],
			"devdoc": {
				"kind": "dev",
				"methods": {},
				"version": 1
			},
			"evm": {
				"assembly": "    /* \"submissions/Serena Y/Day9-ScientificCalculator.sol\":60:558  contract ScientificCalculator{... */\n  mstore(0x40, 0x80)\n  callvalue\n  dup1\n  iszero\n  tag_1\n  jumpi\n  revert(0x00, 0x00)\ntag_1:\n  pop\n  dataSize(sub_0)\n  dup1\n  dataOffset(sub_0)\n  0x00\n  codecopy\n  0x00\n  return\nstop\n\nsub_0: assembly {\n        /* \"submissions/Serena Y/Day9-ScientificCalculator.sol\":60:558  contract ScientificCalculator{... */\n      mstore(0x40, 0x80)\n      callvalue\n      dup1\n      iszero\n      tag_1\n      jumpi\n      revert(0x00, 0x00)\n    tag_1:\n      pop\n      jumpi(tag_2, lt(calldatasize, 0x04))\n      shr(0xe0, calldataload(0x00))\n      dup1\n      0xb96868f9\n      eq\n      tag_3\n      jumpi\n      dup1\n      0xc04f01fc\n      eq\n      tag_4\n      jumpi\n    tag_2:\n      revert(0x00, 0x00)\n        /* \"submissions/Serena Y/Day9-ScientificCalculator.sol\":249:555  function squareRoot(int256 number) public pure returns(int256){... */\n    tag_3:\n      tag_5\n      0x04\n      dup1\n      calldatasize\n      sub\n      dup2\n      add\n      swap1\n      tag_6\n      swap2\n      swap1\n      tag_7\n      jump\t// in\n    tag_6:\n      tag_8\n      jump\t// in\n    tag_5:\n      mload(0x40)\n      tag_9\n      swap2\n      swap1\n      tag_10\n      jump\t// in\n    tag_9:\n      mload(0x40)\n      dup1\n      swap2\n      sub\n      swap1\n      return\n        /* \"submissions/Serena Y/Day9-ScientificCalculator.sol\":96:243  function power(uint256 base, uint256 exponent)  public pure returns(uint256){... */\n    tag_4:\n      tag_11\n      0x04\n      dup1\n      calldatasize\n      sub\n      dup2\n      add\n      swap1\n      tag_12\n      swap2\n      swap1\n      tag_13\n      jump\t// in\n    tag_12:\n      tag_14\n      jump\t// in\n    tag_11:\n      mload(0x40)\n      tag_15\n      swap2\n      swap1\n      tag_16\n      jump\t// in\n    tag_15:\n      mload(0x40)\n      dup1\n      swap2\n      sub\n      swap1\n      return\n        /* \"submissions/Serena Y/Day9-ScientificCalculator.sol\":249:555  function squareRoot(int256 number) public pure returns(int256){... */\n    tag_8:\n        /* \"submissions/Serena Y/Day9-ScientificCalculator.sol\":304:310  int256 */\n      0x00\n        /* \"submissions/Serena Y/Day9-ScientificCalculator.sol\":334:335  0 */\n      0x00\n        /* \"submissions/Serena Y/Day9-ScientificCalculator.sol\":326:332  number */\n      dup3\n        /* \"submissions/Serena Y/Day9-ScientificCalculator.sol\":326:335  number>=0 */\n      slt\n      iszero\n        /* \"submissions/Serena Y/Day9-ScientificCalculator.sol\":318:387  require(number>=0, \"Cannot calculate square root of negative number\") */\n      tag_18\n      jumpi\n      mload(0x40)\n      0x08c379a000000000000000000000000000000000000000000000000000000000\n      dup2\n      mstore\n      0x04\n      add\n      tag_19\n      swap1\n      tag_20\n      jump\t// in\n    tag_19:\n      mload(0x40)\n      dup1\n      swap2\n      sub\n      swap1\n      revert\n    tag_18:\n        /* \"submissions/Serena Y/Day9-ScientificCalculator.sol\":405:406  0 */\n      0x00\n        /* \"submissions/Serena Y/Day9-ScientificCalculator.sol\":397:403  number */\n      dup3\n        /* \"submissions/Serena Y/Day9-ScientificCalculator.sol\":397:406  number==0 */\n      sub\n        /* \"submissions/Serena Y/Day9-ScientificCalculator.sol\":394:415  if(number==0)return 0 */\n      tag_21\n      jumpi\n        /* \"submissions/Serena Y/Day9-ScientificCalculator.sol\":414:415  0 */\n      0x00\n        /* \"submissions/Serena Y/Day9-ScientificCalculator.sol\":407:415  return 0 */\n      swap1\n      pop\n      jump(tag_17)\n        /* \"submissions/Serena Y/Day9-ScientificCalculator.sol\":394:415  if(number==0)return 0 */\n    tag_21:\n        /* \"submissions/Serena Y/Day9-ScientificCalculator.sol\":424:437  int256 result */\n      0x00\n        /* \"submissions/Serena Y/Day9-ScientificCalculator.sol\":445:446  2 */\n      0x02\n        /* \"submissions/Serena Y/Day9-ScientificCalculator.sol\":438:444  number */\n      dup4\n        /* \"submissions/Serena Y/Day9-ScientificCalculator.sol\":438:446  number/2 */\n      tag_22\n      swap2\n      swap1\n      tag_23\n      jump\t// in\n    tag_22:\n        /* \"submissions/Serena Y/Day9-ScientificCalculator.sol\":424:446  int256 result=number/2 */\n      swap1\n      pop\n        /* \"submissions/Serena Y/Day9-ScientificCalculator.sol\":457:466  uint256 i */\n      0x00\n        /* \"submissions/Serena Y/Day9-ScientificCalculator.sol\":467:468  0 */\n      0x00\n        /* \"submissions/Serena Y/Day9-ScientificCalculator.sol\":457:468  uint256 i=0 */\n      swap1\n      pop\n        /* \"submissions/Serena Y/Day9-ScientificCalculator.sol\":453:528  for(uint256 i=0;i<10;i++){... */\n    tag_24:\n        /* \"submissions/Serena Y/Day9-ScientificCalculator.sol\":471:473  10 */\n      0x0a\n        /* \"submissions/Serena Y/Day9-ScientificCalculator.sol\":469:470  i */\n      dup2\n        /* \"submissions/Serena Y/Day9-ScientificCalculator.sol\":469:473  i<10 */\n      lt\n        /* \"submissions/Serena Y/Day9-ScientificCalculator.sol\":453:528  for(uint256 i=0;i<10;i++){... */\n      iszero\n      tag_25\n      jumpi\n        /* \"submissions/Serena Y/Day9-ScientificCalculator.sol\":519:520  2 */\n      0x02\n        /* \"submissions/Serena Y/Day9-ScientificCalculator.sol\":511:517  result */\n      dup3\n        /* \"submissions/Serena Y/Day9-ScientificCalculator.sol\":504:510  number */\n      dup6\n        /* \"submissions/Serena Y/Day9-ScientificCalculator.sol\":504:517  number/result */\n      tag_27\n      swap2\n      swap1\n      tag_23\n      jump\t// in\n    tag_27:\n        /* \"submissions/Serena Y/Day9-ScientificCalculator.sol\":497:503  result */\n      dup4\n        /* \"submissions/Serena Y/Day9-ScientificCalculator.sol\":497:517  result+number/result */\n      tag_28\n      swap2\n      swap1\n      tag_29\n      jump\t// in\n    tag_28:\n        /* \"submissions/Serena Y/Day9-ScientificCalculator.sol\":496:520  (result+number/result)/2 */\n      tag_30\n      swap2\n      swap1\n      tag_23\n      jump\t// in\n    tag_30:\n        /* \"submissions/Serena Y/Day9-ScientificCalculator.sol\":489:520  result=(result+number/result)/2 */\n      swap2\n      pop\n        /* \"submissions/Serena Y/Day9-ScientificCalculator.sol\":474:477  i++ */\n      dup1\n      dup1\n      0x01\n      add\n      swap2\n      pop\n      pop\n        /* \"submissions/Serena Y/Day9-ScientificCalculator.sol\":453:528  for(uint256 i=0;i<10;i++){... */\n      jump(tag_24)\n    tag_25:\n      pop\n        /* \"submissions/Serena Y/Day9-ScientificCalculator.sol\":541:547  result */\n      dup1\n        /* \"submissions/Serena Y/Day9-ScientificCalculator.sol\":534:547  return result */\n      swap2\n      pop\n      pop\n        /* \"submissions/Serena Y/Day9-ScientificCalculator.sol\":249:555  function squareRoot(int256 number) public pure returns(int256){... */\n    tag_17:\n      swap2\n      swap1\n      pop\n      jump\t// out\n        /* \"submissions/Serena Y/Day9-ScientificCalculator.sol\":96:243  function power(uint256 base, uint256 exponent)  public pure returns(uint256){... */\n    tag_14:\n        /* \"submissions/Serena Y/Day9-ScientificCalculator.sol\":164:171  uint256 */\n      0x00\n        /* \"submissions/Serena Y/Day9-ScientificCalculator.sol\":192:193  0 */\n      0x00\n        /* \"submissions/Serena Y/Day9-ScientificCalculator.sol\":182:190  exponent */\n      dup3\n        /* \"submissions/Serena Y/Day9-ScientificCalculator.sol\":182:193  exponent==0 */\n      sub\n        /* \"submissions/Serena Y/Day9-ScientificCalculator.sol\":179:237  if(exponent==0) return 1;... */\n      tag_32\n      jumpi\n        /* \"submissions/Serena Y/Day9-ScientificCalculator.sol\":202:203  1 */\n      0x01\n        /* \"submissions/Serena Y/Day9-ScientificCalculator.sol\":195:203  return 1 */\n      swap1\n      pop\n      jump(tag_31)\n        /* \"submissions/Serena Y/Day9-ScientificCalculator.sol\":179:237  if(exponent==0) return 1;... */\n    tag_32:\n        /* \"submissions/Serena Y/Day9-ScientificCalculator.sol\":228:236  exponent */\n      dup2\n        /* \"submissions/Serena Y/Day9-ScientificCalculator.sol\":222:226  base */\n      dup4\n        /* \"submissions/Serena Y/Day9-ScientificCalculator.sol\":222:236  base**exponent */\n      tag_34\n      swap2\n      swap1\n      tag_35\n      jump\t// in\n    tag_34:\n        /* \"submissions/Serena Y/Day9-ScientificCalculator.sol\":215:237  return(base**exponent) */\n      swap1\n      pop\n        /* \"submissions/Serena Y/Day9-ScientificCalculator.sol\":96:243  function power(uint256 base, uint256 exponent)  public pure returns(uint256){... */\n    tag_31:\n      swap3\n      swap2\n      pop\n      pop\n      jump\t// out\n        /* \"#utility.yul\":88:205   */\n    tag_37:\n        /* \"#utility.yul\":197:198   */\n      0x00\n        /* \"#utility.yul\":194:195   */\n      0x00\n        /* \"#utility.yul\":187:199   */\n      revert\n        /* \"#utility.yul\":334:410   */\n    tag_39:\n        /* \"#utility.yul\":370:377   */\n      0x00\n        /* \"#utility.yul\":399:404   */\n      dup2\n        /* \"#utility.yul\":388:404   */\n      swap1\n      pop\n        /* \"#utility.yul\":334:410   */\n      swap2\n      swap1\n      pop\n      jump\t// out\n        /* \"#utility.yul\":416:536   */\n    tag_40:\n        /* \"#utility.yul\":488:511   */\n      tag_61\n        /* \"#utility.yul\":505:510   */\n      dup2\n        /* \"#utility.yul\":488:511   */\n      tag_39\n      jump\t// in\n    tag_61:\n        /* \"#utility.yul\":481:486   */\n      dup2\n        /* \"#utility.yul\":478:512   */\n      eq\n        /* \"#utility.yul\":468:530   */\n      tag_62\n      jumpi\n        /* \"#utility.yul\":526:527   */\n      0x00\n        /* \"#utility.yul\":523:524   */\n      0x00\n        /* \"#utility.yul\":516:528   */\n      revert\n        /* \"#utility.yul\":468:530   */\n    tag_62:\n        /* \"#utility.yul\":416:536   */\n      pop\n      jump\t// out\n        /* \"#utility.yul\":542:679   */\n    tag_41:\n        /* \"#utility.yul\":587:592   */\n      0x00\n        /* \"#utility.yul\":625:631   */\n      dup2\n        /* \"#utility.yul\":612:632   */\n      calldataload\n        /* \"#utility.yul\":603:632   */\n      swap1\n      pop\n        /* \"#utility.yul\":641:673   */\n      tag_64\n        /* \"#utility.yul\":667:672   */\n      dup2\n        /* \"#utility.yul\":641:673   */\n      tag_40\n      jump\t// in\n    tag_64:\n        /* \"#utility.yul\":542:679   */\n      swap3\n      swap2\n      pop\n      pop\n      jump\t// out\n        /* \"#utility.yul\":685:1012   */\n    tag_7:\n        /* \"#utility.yul\":743:749   */\n      0x00\n        /* \"#utility.yul\":792:794   */\n      0x20\n        /* \"#utility.yul\":780:789   */\n      dup3\n        /* \"#utility.yul\":771:778   */\n      dup5\n        /* \"#utility.yul\":767:790   */\n      sub\n        /* \"#utility.yul\":763:795   */\n      slt\n        /* \"#utility.yul\":760:879   */\n      iszero\n      tag_66\n      jumpi\n        /* \"#utility.yul\":798:877   */\n      tag_67\n      tag_37\n      jump\t// in\n    tag_67:\n        /* \"#utility.yul\":760:879   */\n    tag_66:\n        /* \"#utility.yul\":918:919   */\n      0x00\n        /* \"#utility.yul\":943:995   */\n      tag_68\n        /* \"#utility.yul\":987:994   */\n      dup5\n        /* \"#utility.yul\":978:984   */\n      dup3\n        /* \"#utility.yul\":967:976   */\n      dup6\n        /* \"#utility.yul\":963:985   */\n      add\n        /* \"#utility.yul\":943:995   */\n      tag_41\n      jump\t// in\n    tag_68:\n        /* \"#utility.yul\":933:995   */\n      swap2\n      pop\n        /* \"#utility.yul\":889:1005   */\n      pop\n        /* \"#utility.yul\":685:1012   */\n      swap3\n      swap2\n      pop\n      pop\n      jump\t// out\n        /* \"#utility.yul\":1018:1133   */\n    tag_42:\n        /* \"#utility.yul\":1103:1126   */\n      tag_70\n        /* \"#utility.yul\":1120:1125   */\n      dup2\n        /* \"#utility.yul\":1103:1126   */\n      tag_39\n      jump\t// in\n    tag_70:\n        /* \"#utility.yul\":1098:1101   */\n      dup3\n        /* \"#utility.yul\":1091:1127   */\n      mstore\n        /* \"#utility.yul\":1018:1133   */\n      pop\n      pop\n      jump\t// out\n        /* \"#utility.yul\":1139:1357   */\n    tag_10:\n        /* \"#utility.yul\":1230:1234   */\n      0x00\n        /* \"#utility.yul\":1268:1270   */\n      0x20\n        /* \"#utility.yul\":1257:1266   */\n      dup3\n        /* \"#utility.yul\":1253:1271   */\n      add\n        /* \"#utility.yul\":1245:1271   */\n      swap1\n      pop\n        /* \"#utility.yul\":1281:1350   */\n      tag_72\n        /* \"#utility.yul\":1347:1348   */\n      0x00\n        /* \"#utility.yul\":1336:1345   */\n      dup4\n        /* \"#utility.yul\":1332:1349   */\n      add\n        /* \"#utility.yul\":1323:1329   */\n      dup5\n        /* \"#utility.yul\":1281:1350   */\n      tag_42\n      jump\t// in\n    tag_72:\n        /* \"#utility.yul\":1139:1357   */\n      swap3\n      swap2\n      pop\n      pop\n      jump\t// out\n        /* \"#utility.yul\":1363:1440   */\n    tag_43:\n        /* \"#utility.yul\":1400:1407   */\n      0x00\n        /* \"#utility.yul\":1429:1434   */\n      dup2\n        /* \"#utility.yul\":1418:1434   */\n      swap1\n      pop\n        /* \"#utility.yul\":1363:1440   */\n      swap2\n      swap1\n      pop\n      jump\t// out\n        /* \"#utility.yul\":1446:1568   */\n    tag_44:\n        /* \"#utility.yul\":1519:1543   */\n      tag_75\n        /* \"#utility.yul\":1537:1542   */\n      dup2\n        /* \"#utility.yul\":1519:1543   */\n      tag_43\n      jump\t// in\n    tag_75:\n        /* \"#utility.yul\":1512:1517   */\n      dup2\n        /* \"#utility.yul\":1509:1544   */\n      eq\n        /* \"#utility.yul\":1499:1562   */\n      tag_76\n      jumpi\n        /* \"#utility.yul\":1558:1559   */\n      0x00\n        /* \"#utility.yul\":1555:1556   */\n      0x00\n        /* \"#utility.yul\":1548:1560   */\n      revert\n        /* \"#utility.yul\":1499:1562   */\n    tag_76:\n        /* \"#utility.yul\":1446:1568   */\n      pop\n      jump\t// out\n        /* \"#utility.yul\":1574:1713   */\n    tag_45:\n        /* \"#utility.yul\":1620:1625   */\n      0x00\n        /* \"#utility.yul\":1658:1664   */\n      dup2\n        /* \"#utility.yul\":1645:1665   */\n      calldataload\n        /* \"#utility.yul\":1636:1665   */\n      swap1\n      pop\n        /* \"#utility.yul\":1674:1707   */\n      tag_78\n        /* \"#utility.yul\":1701:1706   */\n      dup2\n        /* \"#utility.yul\":1674:1707   */\n      tag_44\n      jump\t// in\n    tag_78:\n        /* \"#utility.yul\":1574:1713   */\n      swap3\n      swap2\n      pop\n      pop\n      jump\t// out\n        /* \"#utility.yul\":1719:2193   */\n    tag_13:\n        /* \"#utility.yul\":1787:1793   */\n      0x00\n        /* \"#utility.yul\":1795:1801   */\n      0x00\n        /* \"#utility.yul\":1844:1846   */\n      0x40\n        /* \"#utility.yul\":1832:1841   */\n      dup4\n        /* \"#utility.yul\":1823:1830   */\n      dup6\n        /* \"#utility.yul\":1819:1842   */\n      sub\n        /* \"#utility.yul\":1815:1847   */\n      slt\n        /* \"#utility.yul\":1812:1931   */\n      iszero\n      tag_80\n      jumpi\n        /* \"#utility.yul\":1850:1929   */\n      tag_81\n      tag_37\n      jump\t// in\n    tag_81:\n        /* \"#utility.yul\":1812:1931   */\n    tag_80:\n        /* \"#utility.yul\":1970:1971   */\n      0x00\n        /* \"#utility.yul\":1995:2048   */\n      tag_82\n        /* \"#utility.yul\":2040:2047   */\n      dup6\n        /* \"#utility.yul\":2031:2037   */\n      dup3\n        /* \"#utility.yul\":2020:2029   */\n      dup7\n        /* \"#utility.yul\":2016:2038   */\n      add\n        /* \"#utility.yul\":1995:2048   */\n      tag_45\n      jump\t// in\n    tag_82:\n        /* \"#utility.yul\":1985:2048   */\n      swap3\n      pop\n        /* \"#utility.yul\":1941:2058   */\n      pop\n        /* \"#utility.yul\":2097:2099   */\n      0x20\n        /* \"#utility.yul\":2123:2176   */\n      tag_83\n        /* \"#utility.yul\":2168:2175   */\n      dup6\n        /* \"#utility.yul\":2159:2165   */\n      dup3\n        /* \"#utility.yul\":2148:2157   */\n      dup7\n        /* \"#utility.yul\":2144:2166   */\n      add\n        /* \"#utility.yul\":2123:2176   */\n      tag_45\n      jump\t// in\n    tag_83:\n        /* \"#utility.yul\":2113:2176   */\n      swap2\n      pop\n        /* \"#utility.yul\":2068:2186   */\n      pop\n        /* \"#utility.yul\":1719:2193   */\n      swap3\n      pop\n      swap3\n      swap1\n      pop\n      jump\t// out\n        /* \"#utility.yul\":2199:2317   */\n    tag_46:\n        /* \"#utility.yul\":2286:2310   */\n      tag_85\n        /* \"#utility.yul\":2304:2309   */\n      dup2\n        /* \"#utility.yul\":2286:2310   */\n      tag_43\n      jump\t// in\n    tag_85:\n        /* \"#utility.yul\":2281:2284   */\n      dup3\n        /* \"#utility.yul\":2274:2311   */\n      mstore\n        /* \"#utility.yul\":2199:2317   */\n      pop\n      pop\n      jump\t// out\n        /* \"#utility.yul\":2323:2545   */\n    tag_16:\n        /* \"#utility.yul\":2416:2420   */\n      0x00\n        /* \"#utility.yul\":2454:2456   */\n      0x20\n        /* \"#utility.yul\":2443:2452   */\n      dup3\n        /* \"#utility.yul\":2439:2457   */\n      add\n        /* \"#utility.yul\":2431:2457   */\n      swap1\n      pop\n        /* \"#utility.yul\":2467:2538   */\n      tag_87\n        /* \"#utility.yul\":2535:2536   */\n      0x00\n        /* \"#utility.yul\":2524:2533   */\n      dup4\n        /* \"#utility.yul\":2520:2537   */\n      add\n        /* \"#utility.yul\":2511:2517   */\n      dup5\n        /* \"#utility.yul\":2467:2538   */\n      tag_46\n      jump\t// in\n    tag_87:\n        /* \"#utility.yul\":2323:2545   */\n      swap3\n      swap2\n      pop\n      pop\n      jump\t// out\n        /* \"#utility.yul\":2551:2720   */\n    tag_47:\n        /* \"#utility.yul\":2635:2646   */\n      0x00\n        /* \"#utility.yul\":2669:2675   */\n      dup3\n        /* \"#utility.yul\":2664:2667   */\n      dup3\n        /* \"#utility.yul\":2657:2676   */\n      mstore\n        /* \"#utility.yul\":2709:2713   */\n      0x20\n        /* \"#utility.yul\":2704:2707   */\n      dup3\n        /* \"#utility.yul\":2700:2714   */\n      add\n        /* \"#utility.yul\":2685:2714   */\n      swap1\n      pop\n        /* \"#utility.yul\":2551:2720   */\n      swap3\n      swap2\n      pop\n      pop\n      jump\t// out\n        /* \"#utility.yul\":2726:2960   */\n    tag_48:\n        /* \"#utility.yul\":2866:2900   */\n      0x43616e6e6f742063616c63756c6174652073717561726520726f6f74206f6620\n        /* \"#utility.yul\":2862:2863   */\n      0x00\n        /* \"#utility.yul\":2854:2860   */\n      dup3\n        /* \"#utility.yul\":2850:2864   */\n      add\n        /* \"#utility.yul\":2843:2901   */\n      mstore\n        /* \"#utility.yul\":2935:2952   */\n      0x6e65676174697665206e756d6265720000000000000000000000000000000000\n        /* \"#utility.yul\":2930:2932   */\n      0x20\n        /* \"#utility.yul\":2922:2928   */\n      dup3\n        /* \"#utility.yul\":2918:2933   */\n      add\n        /* \"#utility.yul\":2911:2953   */\n      mstore\n        /* \"#utility.yul\":2726:2960   */\n      pop\n      jump\t// out\n        /* \"#utility.yul\":2966:3332   */\n    tag_49:\n        /* \"#utility.yul\":3108:3111   */\n      0x00\n        /* \"#utility.yul\":3129:3196   */\n      tag_91\n        /* \"#utility.yul\":3193:3195   */\n      0x2f\n        /* \"#utility.yul\":3188:3191   */\n      dup4\n        /* \"#utility.yul\":3129:3196   */\n      tag_47\n      jump\t// in\n    tag_91:\n        /* \"#utility.yul\":3122:3196   */\n      swap2\n      pop\n        /* \"#utility.yul\":3205:3298   */\n      tag_92\n        /* \"#utility.yul\":3294:3297   */\n      dup3\n        /* \"#utility.yul\":3205:3298   */\n      tag_48\n      jump\t// in\n    tag_92:\n        /* \"#utility.yul\":3323:3325   */\n      0x40\n        /* \"#utility.yul\":3318:3321   */\n      dup3\n        /* \"#utility.yul\":3314:3326   */\n      add\n        /* \"#utility.yul\":3307:3326   */\n      swap1\n      pop\n        /* \"#utility.yul\":2966:3332   */\n      swap2\n      swap1\n      pop\n      jump\t// out\n        /* \"#utility.yul\":3338:3757   */\n    tag_20:\n        /* \"#utility.yul\":3504:3508   */\n      0x00\n        /* \"#utility.yul\":3542:3544   */\n      0x20\n        /* \"#utility.yul\":3531:3540   */\n      dup3\n        /* \"#utility.yul\":3527:3545   */\n      add\n        /* \"#utility.yul\":3519:3545   */\n      swap1\n      pop\n        /* \"#utility.yul\":3591:3600   */\n      dup2\n        /* \"#utility.yul\":3585:3589   */\n      dup2\n        /* \"#utility.yul\":3581:3601   */\n      sub\n        /* \"#utility.yul\":3577:3578   */\n      0x00\n        /* \"#utility.yul\":3566:3575   */\n      dup4\n        /* \"#utility.yul\":3562:3579   */\n      add\n        /* \"#utility.yul\":3555:3602   */\n      mstore\n        /* \"#utility.yul\":3619:3750   */\n      tag_94\n        /* \"#utility.yul\":3745:3749   */\n      dup2\n        /* \"#utility.yul\":3619:3750   */\n      tag_49\n      jump\t// in\n    tag_94:\n        /* \"#utility.yul\":3611:3750   */\n      swap1\n      pop\n        /* \"#utility.yul\":3338:3757   */\n      swap2\n      swap1\n      pop\n      jump\t// out\n        /* \"#utility.yul\":3763:3943   */\n    tag_50:\n        /* \"#utility.yul\":3811:3888   */\n      0x4e487b7100000000000000000000000000000000000000000000000000000000\n        /* \"#utility.yul\":3808:3809   */\n      0x00\n        /* \"#utility.yul\":3801:3889   */\n      mstore\n        /* \"#utility.yul\":3908:3912   */\n      0x12\n        /* \"#utility.yul\":3905:3906   */\n      0x04\n        /* \"#utility.yul\":3898:3913   */\n      mstore\n        /* \"#utility.yul\":3932:3936   */\n      0x24\n        /* \"#utility.yul\":3929:3930   */\n      0x00\n        /* \"#utility.yul\":3922:3937   */\n      revert\n        /* \"#utility.yul\":3949:4129   */\n    tag_51:\n        /* \"#utility.yul\":3997:4074   */\n      0x4e487b7100000000000000000000000000000000000000000000000000000000\n        /* \"#utility.yul\":3994:3995   */\n      0x00\n        /* \"#utility.yul\":3987:4075   */\n      mstore\n        /* \"#utility.yul\":4094:4098   */\n      0x11\n        /* \"#utility.yul\":4091:4092   */\n      0x04\n        /* \"#utility.yul\":4084:4099   */\n      mstore\n        /* \"#utility.yul\":4118:4122   */\n      0x24\n        /* \"#utility.yul\":4115:4116   */\n      0x00\n        /* \"#utility.yul\":4108:4123   */\n      revert\n        /* \"#utility.yul\":4135:4520   */\n    tag_23:\n        /* \"#utility.yul\":4174:4175   */\n      0x00\n        /* \"#utility.yul\":4191:4210   */\n      tag_98\n        /* \"#utility.yul\":4208:4209   */\n      dup3\n        /* \"#utility.yul\":4191:4210   */\n      tag_39\n      jump\t// in\n    tag_98:\n        /* \"#utility.yul\":4186:4210   */\n      swap2\n      pop\n        /* \"#utility.yul\":4224:4243   */\n      tag_99\n        /* \"#utility.yul\":4241:4242   */\n      dup4\n        /* \"#utility.yul\":4224:4243   */\n      tag_39\n      jump\t// in\n    tag_99:\n        /* \"#utility.yul\":4219:4243   */\n      swap3\n      pop\n        /* \"#utility.yul\":4262:4263   */\n      dup3\n        /* \"#utility.yul\":4252:4287   */\n      tag_100\n      jumpi\n        /* \"#utility.yul\":4267:4285   */\n      tag_101\n      tag_50\n      jump\t// in\n    tag_101:\n        /* \"#utility.yul\":4252:4287   */\n    tag_100:\n        /* \"#utility.yul\":4453:4454   */\n      0x01\n        /* \"#utility.yul\":4450:4451   */\n      0x00\n        /* \"#utility.yul\":4446:4455   */\n      sub\n        /* \"#utility.yul\":4443:4444   */\n      dup4\n        /* \"#utility.yul\":4440:4456   */\n      eq\n        /* \"#utility.yul\":4359:4425   */\n      0x8000000000000000000000000000000000000000000000000000000000000000\n        /* \"#utility.yul\":4356:4357   */\n      dup4\n        /* \"#utility.yul\":4353:4426   */\n      eq\n        /* \"#utility.yul\":4336:4466   */\n      and\n        /* \"#utility.yul\":4333:4489   */\n      iszero\n      tag_102\n      jumpi\n        /* \"#utility.yul\":4469:4487   */\n      tag_103\n      tag_51\n      jump\t// in\n    tag_103:\n        /* \"#utility.yul\":4333:4489   */\n    tag_102:\n        /* \"#utility.yul\":4512:4513   */\n      dup3\n        /* \"#utility.yul\":4509:4510   */\n      dup3\n        /* \"#utility.yul\":4504:4514   */\n      sdiv\n        /* \"#utility.yul\":4499:4514   */\n      swap1\n      pop\n        /* \"#utility.yul\":4135:4520   */\n      swap3\n      swap2\n      pop\n      pop\n      jump\t// out\n        /* \"#utility.yul\":4526:4901   */\n    tag_29:\n        /* \"#utility.yul\":4565:4568   */\n      0x00\n        /* \"#utility.yul\":4584:4603   */\n      tag_105\n        /* \"#utility.yul\":4601:4602   */\n      dup3\n        /* \"#utility.yul\":4584:4603   */\n      tag_39\n      jump\t// in\n    tag_105:\n        /* \"#utility.yul\":4579:4603   */\n      swap2\n      pop\n        /* \"#utility.yul\":4617:4636   */\n      tag_106\n        /* \"#utility.yul\":4634:4635   */\n      dup4\n        /* \"#utility.yul\":4617:4636   */\n      tag_39\n      jump\t// in\n    tag_106:\n        /* \"#utility.yul\":4612:4636   */\n      swap3\n      pop\n        /* \"#utility.yul\":4659:4660   */\n      dup3\n        /* \"#utility.yul\":4656:4657   */\n      dup3\n        /* \"#utility.yul\":4652:4661   */\n      add\n        /* \"#utility.yul\":4645:4661   */\n      swap1\n      pop\n        /* \"#utility.yul\":4857:4858   */\n      dup3\n        /* \"#utility.yul\":4852:4855   */\n      dup2\n        /* \"#utility.yul\":4848:4859   */\n      slt\n        /* \"#utility.yul\":4841:4860   */\n      iszero\n        /* \"#utility.yul\":4837:4838   */\n      0x00\n        /* \"#utility.yul\":4834:4835   */\n      dup4\n        /* \"#utility.yul\":4830:4839   */\n      slt\n        /* \"#utility.yul\":4826:4861   */\n      and\n        /* \"#utility.yul\":4809:4810   */\n      dup4\n        /* \"#utility.yul\":4804:4807   */\n      dup3\n        /* \"#utility.yul\":4800:4811   */\n      slt\n        /* \"#utility.yul\":4795:4796   */\n      0x00\n        /* \"#utility.yul\":4792:4793   */\n      dup5\n        /* \"#utility.yul\":4788:4797   */\n      slt\n        /* \"#utility.yul\":4781:4798   */\n      iszero\n        /* \"#utility.yul\":4777:4812   */\n      and\n        /* \"#utility.yul\":4761:4871   */\n      or\n        /* \"#utility.yul\":4758:4894   */\n      iszero\n      tag_107\n      jumpi\n        /* \"#utility.yul\":4874:4892   */\n      tag_108\n      tag_51\n      jump\t// in\n    tag_108:\n        /* \"#utility.yul\":4758:4894   */\n    tag_107:\n        /* \"#utility.yul\":4526:4901   */\n      swap3\n      swap2\n      pop\n      pop\n      jump\t// out\n        /* \"#utility.yul\":4907:5009   */\n    tag_52:\n        /* \"#utility.yul\":4949:4957   */\n      0x00\n        /* \"#utility.yul\":4996:5001   */\n      dup2\n        /* \"#utility.yul\":4993:4994   */\n      0x01\n        /* \"#utility.yul\":4989:5002   */\n      shr\n        /* \"#utility.yul\":4968:5002   */\n      swap1\n      pop\n        /* \"#utility.yul\":4907:5009   */\n      swap2\n      swap1\n      pop\n      jump\t// out\n        /* \"#utility.yul\":5015:5863   */\n    tag_53:\n        /* \"#utility.yul\":5076:5081   */\n      0x00\n        /* \"#utility.yul\":5083:5087   */\n      0x00\n        /* \"#utility.yul\":5107:5113   */\n      dup3\n        /* \"#utility.yul\":5098:5113   */\n      swap2\n      pop\n        /* \"#utility.yul\":5131:5136   */\n      dup4\n        /* \"#utility.yul\":5122:5136   */\n      swap1\n      pop\n        /* \"#utility.yul\":5145:5857   */\n    tag_111:\n        /* \"#utility.yul\":5166:5167   */\n      0x01\n        /* \"#utility.yul\":5156:5164   */\n      dup6\n        /* \"#utility.yul\":5153:5168   */\n      gt\n        /* \"#utility.yul\":5145:5857   */\n      iszero\n      tag_113\n      jumpi\n        /* \"#utility.yul\":5261:5265   */\n      dup1\n        /* \"#utility.yul\":5256:5259   */\n      dup7\n        /* \"#utility.yul\":5252:5266   */\n      div\n        /* \"#utility.yul\":5246:5250   */\n      dup2\n        /* \"#utility.yul\":5243:5267   */\n      gt\n        /* \"#utility.yul\":5240:5290   */\n      iszero\n      tag_114\n      jumpi\n        /* \"#utility.yul\":5270:5288   */\n      tag_115\n      tag_51\n      jump\t// in\n    tag_115:\n        /* \"#utility.yul\":5240:5290   */\n    tag_114:\n        /* \"#utility.yul\":5320:5321   */\n      0x01\n        /* \"#utility.yul\":5310:5318   */\n      dup6\n        /* \"#utility.yul\":5306:5322   */\n      and\n        /* \"#utility.yul\":5303:5754   */\n      iszero\n      tag_116\n      jumpi\n        /* \"#utility.yul\":5735:5739   */\n      dup1\n        /* \"#utility.yul\":5728:5733   */\n      dup3\n        /* \"#utility.yul\":5724:5740   */\n      mul\n        /* \"#utility.yul\":5715:5740   */\n      swap2\n      pop\n        /* \"#utility.yul\":5303:5754   */\n    tag_116:\n        /* \"#utility.yul\":5785:5789   */\n      dup1\n        /* \"#utility.yul\":5779:5783   */\n      dup2\n        /* \"#utility.yul\":5775:5790   */\n      mul\n        /* \"#utility.yul\":5767:5790   */\n      swap1\n      pop\n        /* \"#utility.yul\":5815:5847   */\n      tag_117\n        /* \"#utility.yul\":5838:5846   */\n      dup6\n        /* \"#utility.yul\":5815:5847   */\n      tag_52\n      jump\t// in\n    tag_117:\n        /* \"#utility.yul\":5803:5847   */\n      swap5\n      pop\n        /* \"#utility.yul\":5145:5857   */\n      jump(tag_111)\n    tag_113:\n        /* \"#utility.yul\":5015:5863   */\n      swap5\n      pop\n      swap5\n      swap3\n      pop\n      pop\n      pop\n      jump\t// out\n        /* \"#utility.yul\":5869:6942   */\n    tag_54:\n        /* \"#utility.yul\":5923:5928   */\n      0x00\n        /* \"#utility.yul\":6114:6122   */\n      dup3\n        /* \"#utility.yul\":6104:6144   */\n      tag_119\n      jumpi\n        /* \"#utility.yul\":6135:6136   */\n      0x01\n        /* \"#utility.yul\":6126:6136   */\n      swap1\n      pop\n        /* \"#utility.yul\":6137:6142   */\n      jump(tag_118)\n        /* \"#utility.yul\":6104:6144   */\n    tag_119:\n        /* \"#utility.yul\":6163:6167   */\n      dup2\n        /* \"#utility.yul\":6153:6189   */\n      tag_120\n      jumpi\n        /* \"#utility.yul\":6180:6181   */\n      0x00\n        /* \"#utility.yul\":6171:6181   */\n      swap1\n      pop\n        /* \"#utility.yul\":6182:6187   */\n      jump(tag_118)\n        /* \"#utility.yul\":6153:6189   */\n    tag_120:\n        /* \"#utility.yul\":6249:6253   */\n      dup2\n        /* \"#utility.yul\":6297:6298   */\n      0x01\n        /* \"#utility.yul\":6292:6319   */\n      dup2\n      eq\n      tag_122\n      jumpi\n        /* \"#utility.yul\":6333:6334   */\n      0x02\n        /* \"#utility.yul\":6328:6519   */\n      dup2\n      eq\n      tag_123\n      jumpi\n        /* \"#utility.yul\":6242:6519   */\n      jump(tag_121)\n        /* \"#utility.yul\":6292:6319   */\n    tag_122:\n        /* \"#utility.yul\":6310:6311   */\n      0x01\n        /* \"#utility.yul\":6301:6311   */\n      swap2\n      pop\n        /* \"#utility.yul\":6312:6317   */\n      pop\n      jump(tag_118)\n        /* \"#utility.yul\":6328:6519   */\n    tag_123:\n        /* \"#utility.yul\":6373:6376   */\n      0xff\n        /* \"#utility.yul\":6363:6371   */\n      dup5\n        /* \"#utility.yul\":6360:6377   */\n      gt\n        /* \"#utility.yul\":6357:6400   */\n      iszero\n      tag_124\n      jumpi\n        /* \"#utility.yul\":6380:6398   */\n      tag_125\n      tag_51\n      jump\t// in\n    tag_125:\n        /* \"#utility.yul\":6357:6400   */\n    tag_124:\n        /* \"#utility.yul\":6429:6437   */\n      dup4\n        /* \"#utility.yul\":6426:6427   */\n      0x02\n        /* \"#utility.yul\":6422:6438   */\n      exp\n        /* \"#utility.yul\":6413:6438   */\n      swap2\n      pop\n        /* \"#utility.yul\":6464:6467   */\n      dup5\n        /* \"#utility.yul\":6457:6462   */\n      dup3\n        /* \"#utility.yul\":6454:6468   */\n      gt\n        /* \"#utility.yul\":6451:6491   */\n      iszero\n      tag_126\n      jumpi\n        /* \"#utility.yul\":6471:6489   */\n      tag_127\n      tag_51\n      jump\t// in\n    tag_127:\n        /* \"#utility.yul\":6451:6491   */\n    tag_126:\n        /* \"#utility.yul\":6504:6509   */\n      pop\n      jump(tag_118)\n        /* \"#utility.yul\":6242:6519   */\n    tag_121:\n      pop\n        /* \"#utility.yul\":6628:6630   */\n      0x20\n        /* \"#utility.yul\":6618:6626   */\n      dup4\n        /* \"#utility.yul\":6615:6631   */\n      lt\n        /* \"#utility.yul\":6609:6612   */\n      0x0133\n        /* \"#utility.yul\":6603:6607   */\n      dup4\n        /* \"#utility.yul\":6600:6613   */\n      lt\n        /* \"#utility.yul\":6596:6632   */\n      and\n        /* \"#utility.yul\":6578:6580   */\n      0x4e\n        /* \"#utility.yul\":6568:6576   */\n      dup5\n        /* \"#utility.yul\":6565:6581   */\n      lt\n        /* \"#utility.yul\":6560:6562   */\n      0x0b\n        /* \"#utility.yul\":6554:6558   */\n      dup5\n        /* \"#utility.yul\":6551:6563   */\n      lt\n        /* \"#utility.yul\":6547:6582   */\n      and\n        /* \"#utility.yul\":6531:6642   */\n      or\n        /* \"#utility.yul\":6528:6774   */\n      iszero\n      tag_128\n      jumpi\n        /* \"#utility.yul\":6684:6692   */\n      dup3\n        /* \"#utility.yul\":6678:6682   */\n      dup3\n        /* \"#utility.yul\":6674:6693   */\n      exp\n        /* \"#utility.yul\":6665:6693   */\n      swap1\n      pop\n        /* \"#utility.yul\":6719:6722   */\n      dup4\n        /* \"#utility.yul\":6712:6717   */\n      dup2\n        /* \"#utility.yul\":6709:6723   */\n      gt\n        /* \"#utility.yul\":6706:6746   */\n      iszero\n      tag_129\n      jumpi\n        /* \"#utility.yul\":6726:6744   */\n      tag_130\n      tag_51\n      jump\t// in\n    tag_130:\n        /* \"#utility.yul\":6706:6746   */\n    tag_129:\n        /* \"#utility.yul\":6759:6764   */\n      jump(tag_118)\n        /* \"#utility.yul\":6528:6774   */\n    tag_128:\n        /* \"#utility.yul\":6799:6841   */\n      tag_131\n        /* \"#utility.yul\":6837:6840   */\n      dup5\n        /* \"#utility.yul\":6827:6835   */\n      dup5\n        /* \"#utility.yul\":6821:6825   */\n      dup5\n        /* \"#utility.yul\":6818:6819   */\n      0x01\n        /* \"#utility.yul\":6799:6841   */\n      tag_53\n      jump\t// in\n    tag_131:\n        /* \"#utility.yul\":6784:6841   */\n      swap3\n      pop\n      swap1\n      pop\n        /* \"#utility.yul\":6873:6877   */\n      dup2\n        /* \"#utility.yul\":6868:6871   */\n      dup5\n        /* \"#utility.yul\":6864:6878   */\n      div\n        /* \"#utility.yul\":6857:6862   */\n      dup2\n        /* \"#utility.yul\":6854:6879   */\n      gt\n        /* \"#utility.yul\":6851:6902   */\n      iszero\n      tag_132\n      jumpi\n        /* \"#utility.yul\":6882:6900   */\n      tag_133\n      tag_51\n      jump\t// in\n    tag_133:\n        /* \"#utility.yul\":6851:6902   */\n    tag_132:\n        /* \"#utility.yul\":6931:6935   */\n      dup2\n        /* \"#utility.yul\":6924:6929   */\n      dup2\n        /* \"#utility.yul\":6920:6936   */\n      mul\n        /* \"#utility.yul\":6911:6936   */\n      swap1\n      pop\n        /* \"#utility.yul\":5869:6942   */\n    tag_118:\n      swap4\n      swap3\n      pop\n      pop\n      pop\n      jump\t// out\n        /* \"#utility.yul\":6948:7233   */\n    tag_35:\n        /* \"#utility.yul\":7008:7013   */\n      0x00\n        /* \"#utility.yul\":7032:7055   */\n      tag_135\n        /* \"#utility.yul\":7050:7054   */\n      dup3\n        /* \"#utility.yul\":7032:7055   */\n      tag_43\n      jump\t// in\n    tag_135:\n        /* \"#utility.yul\":7024:7055   */\n      swap2\n      pop\n        /* \"#utility.yul\":7076:7103   */\n      tag_136\n        /* \"#utility.yul\":7094:7102   */\n      dup4\n        /* \"#utility.yul\":7076:7103   */\n      tag_43\n      jump\t// in\n    tag_136:\n        /* \"#utility.yul\":7064:7103   */\n      swap3\n      pop\n        /* \"#utility.yul\":7122:7226   */\n      tag_137\n        /* \"#utility.yul\":7159:7225   */\n      0xffffffffffffffffffffffffffffffffffffffffffffffffffffffffffffffff\n        /* \"#utility.yul\":7149:7157   */\n      dup5\n        /* \"#utility.yul\":7143:7147   */\n      dup5\n        /* \"#utility.yul\":7122:7226   */\n      tag_54\n      jump\t// in\n    tag_137:\n        /* \"#utility.yul\":7113:7226   */\n      swap1\n      pop\n        /* \"#utility.yul\":6948:7233   */\n      swap3\n      swap2\n      pop\n      pop\n      jump\t// out\n\n    auxdata: 0xa26469706673582212207743c5d89d07c78498fbb53b68a5b2d83a4354184ead7ff2024ba4ac4c01254264736f6c634300081e0033\n}\n",
				"bytecode": {
					"linkReferences": {},
					"object": "6080604052348015600e575f5ffd5b506105df8061001c5f395ff3fe608060405234801561000f575f5ffd5b5060043610610034575f3560e01c8063b96868f914610038578063c04f01fc14610068575b5f5ffd5b610052600480360381019061004d91906101a3565b610098565b60405161005f91906101dd565b60405180910390f35b610082600480360381019061007d9190610229565b610146565b60405161008f9190610276565b60405180910390f35b5f5f8212156100dc576040517f08c379a00000000000000000000000000000000000000000000000000000000081526004016100d39061030f565b60405180910390fd5b5f82036100eb575f9050610141565b5f6002836100f99190610387565b90505f5f90505b600a81101561013b57600282856101179190610387565b8361012291906103ef565b61012c9190610387565b91508080600101915050610100565b50809150505b919050565b5f5f82036101575760019050610166565b8183610163919061055f565b90505b92915050565b5f5ffd5b5f819050919050565b61018281610170565b811461018c575f5ffd5b50565b5f8135905061019d81610179565b92915050565b5f602082840312156101b8576101b761016c565b5b5f6101c58482850161018f565b91505092915050565b6101d781610170565b82525050565b5f6020820190506101f05f8301846101ce565b92915050565b5f819050919050565b610208816101f6565b8114610212575f5ffd5b50565b5f81359050610223816101ff565b92915050565b5f5f6040838503121561023f5761023e61016c565b5b5f61024c85828601610215565b925050602061025d85828601610215565b9150509250929050565b610270816101f6565b82525050565b5f6020820190506102895f830184610267565b92915050565b5f82825260208201905092915050565b7f43616e6e6f742063616c63756c6174652073717561726520726f6f74206f66205f8201527f6e65676174697665206e756d6265720000000000000000000000000000000000602082015250565b5f6102f9602f8361028f565b91506103048261029f565b604082019050919050565b5f6020820190508181035f830152610326816102ed565b9050919050565b7f4e487b71000000000000000000000000000000000000000000000000000000005f52601260045260245ffd5b7f4e487b71000000000000000000000000000000000000000000000000000000005f52601160045260245ffd5b5f61039182610170565b915061039c83610170565b9250826103ac576103ab61032d565b5b60015f0383147f8000000000000000000000000000000000000000000000000000000000000000831416156103e4576103e361035a565b5b828205905092915050565b5f6103f982610170565b915061040483610170565b92508282019050828112155f8312168382125f84121516171561042a5761042961035a565b5b92915050565b5f8160011c9050919050565b5f5f8291508390505b6001851115610485578086048111156104615761046061035a565b5b60018516156104705780820291505b808102905061047e85610430565b9450610445565b94509492505050565b5f8261049d5760019050610558565b816104aa575f9050610558565b81600181146104c057600281146104ca576104f9565b6001915050610558565b60ff8411156104dc576104db61035a565b5b8360020a9150848211156104f3576104f261035a565b5b50610558565b5060208310610133831016604e8410600b841016171561052e5782820a9050838111156105295761052861035a565b5b610558565b61053b848484600161043c565b925090508184048111156105525761055161035a565b5b81810290505b9392505050565b5f610569826101f6565b9150610574836101f6565b92506105a17fffffffffffffffffffffffffffffffffffffffffffffffffffffffffffffffff848461048e565b90509291505056fea26469706673582212207743c5d89d07c78498fbb53b68a5b2d83a4354184ead7ff2024ba4ac4c01254264736f6c634300081e0033",
					"opcodes": "PUSH1 0x80 PUSH1 0x40 MSTORE CALLVALUE DUP1 ISZERO PUSH1 0xE JUMPI PUSH0 PUSH0 REVERT JUMPDEST POP PUSH2 0x5DF DUP1 PUSH2 0x1C PUSH0 CODECOPY PUSH0 RETURN INVALID PUSH1 0x80 PUSH1 0x40 MSTORE CALLVALUE DUP1 ISZERO PUSH2 0xF JUMPI PUSH0 PUSH0 REVERT JUMPDEST POP PUSH1 0x4 CALLDATASIZE LT PUSH2 0x34 JUMPI PUSH0 CALLDATALOAD PUSH1 0xE0 SHR DUP1 PUSH4 0xB96868F9 EQ PUSH2 0x38 JUMPI DUP1 PUSH4 0xC04F01FC EQ PUSH2 0x68 JUMPI JUMPDEST PUSH0 PUSH0 REVERT JUMPDEST PUSH2 0x52 PUSH1 0x4 DUP1 CALLDATASIZE SUB DUP2 ADD SWAP1 PUSH2 0x4D SWAP2 SWAP1 PUSH2 0x1A3 JUMP JUMPDEST PUSH2 0x98 JUMP JUMPDEST PUSH1 0x40 MLOAD PUSH2 0x5F SWAP2 SWAP1 PUSH2 0x1DD JUMP JUMPDEST PUSH1 0x40 MLOAD DUP1 SWAP2 SUB SWAP1 RETURN JUMPDEST PUSH2 0x82 PUSH1 0x4 DUP1 CALLDATASIZE SUB DUP2 ADD SWAP1 PUSH2 0x7D SWAP2 SWAP1 PUSH2 0x229 JUMP JUMPDEST PUSH2 0x146 JUMP JUMPDEST PUSH1 0x40 MLOAD PUSH2 0x8F SWAP2 SWAP1 PUSH2 0x276 JUMP JUMPDEST PUSH1 0x40 MLOAD DUP1 SWAP2 SUB SWAP1 RETURN JUMPDEST PUSH0 PUSH0 DUP3 SLT ISZERO PUSH2 0xDC JUMPI PUSH1 0x40 MLOAD PUSH32 0x8C379A000000000000000000000000000000000000000000000000000000000 DUP2 MSTORE PUSH1 0x4 ADD PUSH2 0xD3 SWAP1 PUSH2 0x30F JUMP JUMPDEST PUSH1 0x40 MLOAD DUP1 SWAP2 SUB SWAP1 REVERT JUMPDEST PUSH0 DUP3 SUB PUSH2 0xEB JUMPI PUSH0 SWAP1 POP PUSH2 0x141 JUMP JUMPDEST PUSH0 PUSH1 0x2 DUP4 PUSH2 0xF9 SWAP2 SWAP1 PUSH2 0x387 JUMP JUMPDEST SWAP1 POP PUSH0 PUSH0 SWAP1 POP JUMPDEST PUSH1 0xA DUP2 LT ISZERO PUSH2 0x13B JUMPI PUSH1 0x2 DUP3 DUP6 PUSH2 0x117 SWAP2 SWAP1 PUSH2 0x387 JUMP JUMPDEST DUP4 PUSH2 0x122 SWAP2 SWAP1 PUSH2 0x3EF JUMP JUMPDEST PUSH2 0x12C SWAP2 SWAP1 PUSH2 0x387 JUMP JUMPDEST SWAP2 POP DUP1 DUP1 PUSH1 0x1 ADD SWAP2 POP POP PUSH2 0x100 JUMP JUMPDEST POP DUP1 SWAP2 POP POP JUMPDEST SWAP2 SWAP1 POP JUMP JUMPDEST PUSH0 PUSH0 DUP3 SUB PUSH2 0x157 JUMPI PUSH1 0x1 SWAP1 POP PUSH2 0x166 JUMP JUMPDEST DUP2 DUP4 PUSH2 0x163 SWAP2 SWAP1 PUSH2 0x55F JUMP JUMPDEST SWAP1 POP JUMPDEST SWAP3 SWAP2 POP POP JUMP JUMPDEST PUSH0 PUSH0 REVERT JUMPDEST PUSH0 DUP2 SWAP1 POP SWAP2 SWAP1 POP JUMP JUMPDEST PUSH2 0x182 DUP2 PUSH2 0x170 JUMP JUMPDEST DUP2 EQ PUSH2 0x18C JUMPI PUSH0 PUSH0 REVERT JUMPDEST POP JUMP JUMPDEST PUSH0 DUP2 CALLDATALOAD SWAP1 POP PUSH2 0x19D DUP2 PUSH2 0x179 JUMP JUMPDEST SWAP3 SWAP2 POP POP JUMP JUMPDEST PUSH0 PUSH1 0x20 DUP3 DUP5 SUB SLT ISZERO PUSH2 0x1B8 JUMPI PUSH2 0x1B7 PUSH2 0x16C JUMP JUMPDEST JUMPDEST PUSH0 PUSH2 0x1C5 DUP5 DUP3 DUP6 ADD PUSH2 0x18F JUMP JUMPDEST SWAP2 POP POP SWAP3 SWAP2 POP POP JUMP JUMPDEST PUSH2 0x1D7 DUP2 PUSH2 0x170 JUMP JUMPDEST DUP3 MSTORE POP POP JUMP JUMPDEST PUSH0 PUSH1 0x20 DUP3 ADD SWAP1 POP PUSH2 0x1F0 PUSH0 DUP4 ADD DUP5 PUSH2 0x1CE JUMP JUMPDEST SWAP3 SWAP2 POP POP JUMP JUMPDEST PUSH0 DUP2 SWAP1 POP SWAP2 SWAP1 POP JUMP JUMPDEST PUSH2 0x208 DUP2 PUSH2 0x1F6 JUMP JUMPDEST DUP2 EQ PUSH2 0x212 JUMPI PUSH0 PUSH0 REVERT JUMPDEST POP JUMP JUMPDEST PUSH0 DUP2 CALLDATALOAD SWAP1 POP PUSH2 0x223 DUP2 PUSH2 0x1FF JUMP JUMPDEST SWAP3 SWAP2 POP POP JUMP JUMPDEST PUSH0 PUSH0 PUSH1 0x40 DUP4 DUP6 SUB SLT ISZERO PUSH2 0x23F JUMPI PUSH2 0x23E PUSH2 0x16C JUMP JUMPDEST JUMPDEST PUSH0 PUSH2 0x24C DUP6 DUP3 DUP7 ADD PUSH2 0x215 JUMP JUMPDEST SWAP3 POP POP PUSH1 0x20 PUSH2 0x25D DUP6 DUP3 DUP7 ADD PUSH2 0x215 JUMP JUMPDEST SWAP2 POP POP SWAP3 POP SWAP3 SWAP1 POP JUMP JUMPDEST PUSH2 0x270 DUP2 PUSH2 0x1F6 JUMP JUMPDEST DUP3 MSTORE POP POP JUMP JUMPDEST PUSH0 PUSH1 0x20 DUP3 ADD SWAP1 POP PUSH2 0x289 PUSH0 DUP4 ADD DUP5 PUSH2 0x267 JUMP JUMPDEST SWAP3 SWAP2 POP POP JUMP JUMPDEST PUSH0 DUP3 DUP3 MSTORE PUSH1 0x20 DUP3 ADD SWAP1 POP SWAP3 SWAP2 POP POP JUMP JUMPDEST PUSH32 0x43616E6E6F742063616C63756C6174652073717561726520726F6F74206F6620 PUSH0 DUP3 ADD MSTORE PUSH32 0x6E65676174697665206E756D6265720000000000000000000000000000000000 PUSH1 0x20 DUP3 ADD MSTORE POP JUMP JUMPDEST PUSH0 PUSH2 0x2F9 PUSH1 0x2F DUP4 PUSH2 0x28F JUMP JUMPDEST SWAP2 POP PUSH2 0x304 DUP3 PUSH2 0x29F JUMP JUMPDEST PUSH1 0x40 DUP3 ADD SWAP1 POP SWAP2 SWAP1 POP JUMP JUMPDEST PUSH0 PUSH1 0x20 DUP3 ADD SWAP1 POP DUP2 DUP2 SUB PUSH0 DUP4 ADD MSTORE PUSH2 0x326 DUP2 PUSH2 0x2ED JUMP JUMPDEST SWAP1 POP SWAP2 SWAP1 POP JUMP JUMPDEST PUSH32 0x4E487B7100000000000000000000000000000000000000000000000000000000 PUSH0 MSTORE PUSH1 0x12 PUSH1 0x4 MSTORE PUSH1 0x24 PUSH0 REVERT JUMPDEST PUSH32 0x4E487B7100000000000000000000000000000000000000000000000000000000 PUSH0 MSTORE PUSH1 0x11 PUSH1 0x4 MSTORE PUSH1 0x24 PUSH0 REVERT JUMPDEST PUSH0 PUSH2 0x391 DUP3 PUSH2 0x170 JUMP JUMPDEST SWAP2 POP PUSH2 0x39C DUP4 PUSH2 0x170 JUMP JUMPDEST SWAP3 POP DUP3 PUSH2 0x3AC JUMPI PUSH2 0x3AB PUSH2 0x32D JUMP JUMPDEST JUMPDEST PUSH1 0x1 PUSH0 SUB DUP4 EQ PUSH32 0x8000000000000000000000000000000000000000000000000000000000000000 DUP4 EQ AND ISZERO PUSH2 0x3E4 JUMPI PUSH2 0x3E3 PUSH2 0x35A JUMP JUMPDEST JUMPDEST DUP3 DUP3 SDIV SWAP1 POP SWAP3 SWAP2 POP POP JUMP JUMPDEST PUSH0 PUSH2 0x3F9 DUP3 PUSH2 0x170 JUMP JUMPDEST SWAP2 POP PUSH2 0x404 DUP4 PUSH2 0x170 JUMP JUMPDEST SWAP3 POP DUP3 DUP3 ADD SWAP1 POP DUP3 DUP2 SLT ISZERO PUSH0 DUP4 SLT AND DUP4 DUP3 SLT PUSH0 DUP5 SLT ISZERO AND OR ISZERO PUSH2 0x42A JUMPI PUSH2 0x429 PUSH2 0x35A JUMP JUMPDEST JUMPDEST SWAP3 SWAP2 POP POP JUMP JUMPDEST PUSH0 DUP2 PUSH1 0x1 SHR SWAP1 POP SWAP2 SWAP1 POP JUMP JUMPDEST PUSH0 PUSH0 DUP3 SWAP2 POP DUP4 SWAP1 POP JUMPDEST PUSH1 0x1 DUP6 GT ISZERO PUSH2 0x485 JUMPI DUP1 DUP7 DIV DUP2 GT ISZERO PUSH2 0x461 JUMPI PUSH2 0x460 PUSH2 0x35A JUMP JUMPDEST JUMPDEST PUSH1 0x1 DUP6 AND ISZERO PUSH2 0x470 JUMPI DUP1 DUP3 MUL SWAP2 POP JUMPDEST DUP1 DUP2 MUL SWAP1 POP PUSH2 0x47E DUP6 PUSH2 0x430 JUMP JUMPDEST SWAP5 POP PUSH2 0x445 JUMP JUMPDEST SWAP5 POP SWAP5 SWAP3 POP POP POP JUMP JUMPDEST PUSH0 DUP3 PUSH2 0x49D JUMPI PUSH1 0x1 SWAP1 POP PUSH2 0x558 JUMP JUMPDEST DUP2 PUSH2 0x4AA JUMPI PUSH0 SWAP1 POP PUSH2 0x558 JUMP JUMPDEST DUP2 PUSH1 0x1 DUP2 EQ PUSH2 0x4C0 JUMPI PUSH1 0x2 DUP2 EQ PUSH2 0x4CA JUMPI PUSH2 0x4F9 JUMP JUMPDEST PUSH1 0x1 SWAP2 POP POP PUSH2 0x558 JUMP JUMPDEST PUSH1 0xFF DUP5 GT ISZERO PUSH2 0x4DC JUMPI PUSH2 0x4DB PUSH2 0x35A JUMP JUMPDEST JUMPDEST DUP4 PUSH1 0x2 EXP SWAP2 POP DUP5 DUP3 GT ISZERO PUSH2 0x4F3 JUMPI PUSH2 0x4F2 PUSH2 0x35A JUMP JUMPDEST JUMPDEST POP PUSH2 0x558 JUMP JUMPDEST POP PUSH1 0x20 DUP4 LT PUSH2 0x133 DUP4 LT AND PUSH1 0x4E DUP5 LT PUSH1 0xB DUP5 LT AND OR ISZERO PUSH2 0x52E JUMPI DUP3 DUP3 EXP SWAP1 POP DUP4 DUP2 GT ISZERO PUSH2 0x529 JUMPI PUSH2 0x528 PUSH2 0x35A JUMP JUMPDEST JUMPDEST PUSH2 0x558 JUMP JUMPDEST PUSH2 0x53B DUP5 DUP5 DUP5 PUSH1 0x1 PUSH2 0x43C JUMP JUMPDEST SWAP3 POP SWAP1 POP DUP2 DUP5 DIV DUP2 GT ISZERO PUSH2 0x552 JUMPI PUSH2 0x551 PUSH2 0x35A JUMP JUMPDEST JUMPDEST DUP2 DUP2 MUL SWAP1 POP JUMPDEST SWAP4 SWAP3 POP POP POP JUMP JUMPDEST PUSH0 PUSH2 0x569 DUP3 PUSH2 0x1F6 JUMP JUMPDEST SWAP2 POP PUSH2 0x574 DUP4 PUSH2 0x1F6 JUMP JUMPDEST SWAP3 POP PUSH2 0x5A1 PUSH32 0xFFFFFFFFFFFFFFFFFFFFFFFFFFFFFFFFFFFFFFFFFFFFFFFFFFFFFFFFFFFFFFFF DUP5 DUP5 PUSH2 0x48E JUMP JUMPDEST SWAP1 POP SWAP3 SWAP2 POP POP JUMP INVALID LOG2 PUSH5 0x6970667358 0x22 SLT KECCAK256 PUSH24 0x43C5D89D07C78498FBB53B68A5B2D83A4354184EAD7FF202 0x4B LOG4 0xAC 0x4C ADD 0x25 TIMESTAMP PUSH5 0x736F6C6343 STOP ADDMOD 0x1E STOP CALLER "
				},
				"gasEstimates": {
					"creation": {
						"codeDepositCost": "300600",
						"executionCost": "335",
						"totalCost": "300935"
					},
					"external": {
						"power(uint256,uint256)": "infinite",
						"squareRoot(int256)": "infinite"
					}
				},
				"methodIdentifiers": {
					"power(uint256,uint256)": "c04f01fc",
					"squareRoot(int256)": "b96868f9"
				}
			},
			"storageLayout": {
				"storage": [],
				"types": null
			},
			"userdoc": {
				"kind": "user",
				"methods": {},
				"version": 1
			}
		}
	}
}