{
	"submissions/Vera/day2_userInfo.sol": {
		"PersonalInfo": {
			"abi": [
				{
					"inputs": [
						{
							"internalType": "string",
							"name": "_name",
							"type": "string"
						},
						{
							"internalType": "string",
							"name": "_bio",
							"type": "string"
						}
					],
					"name": "add",
					"outputs": [],
					"stateMutability": "nonpayable",
					"type": "function"
				},
				{
					"inputs": [
						{
							"internalType": "string",
							"name": "_name",
							"type": "string"
						},
						{
							"internalType": "string",
							"name": "_bio",
							"type": "string"
						}
					],
					"name": "addAndRetrieve",
					"outputs": [
						{
							"internalType": "string",
							"name": "",
							"type": "string"
						},
						{
							"internalType": "string",
							"name": "",
							"type": "string"
						}
					],
					"stateMutability": "nonpayable",
					"type": "function"
				},
				{
					"inputs": [],
					"name": "retrieve",
					"outputs": [
						{
							"internalType": "string",
							"name": "",
							"type": "string"
						},
						{
							"internalType": "string",
							"name": "",
							"type": "string"
						}
					],
					"stateMutability": "view",
					"type": "function"
				}
			],
			"devdoc": {
				"kind": "dev",
				"methods": {},
				"version": 1
			},
			"evm": {
				"assembly": "    /* \"submissions/Vera/day2_userInfo.sol\":62:585  contract PersonalInfo {... */\n  mstore(0x40, 0x80)\n  callvalue\n  dup1\n  iszero\n  tag_1\n  jumpi\n  revert(0x00, 0x00)\ntag_1:\n  pop\n  dataSize(sub_0)\n  dup1\n  dataOffset(sub_0)\n  0x00\n  codecopy\n  0x00\n  return\nstop\n\nsub_0: assembly {\n        /* \"submissions/Vera/day2_userInfo.sol\":62:585  contract PersonalInfo {... */\n      mstore(0x40, 0x80)\n      callvalue\n      dup1\n      iszero\n      tag_1\n      jumpi\n      revert(0x00, 0x00)\n    tag_1:\n      pop\n      jumpi(tag_2, lt(calldatasize, 0x04))\n      shr(0xe0, calldataload(0x00))\n      dup1\n      0x098c2657\n      eq\n      tag_3\n      jumpi\n      dup1\n      0x2e64cec1\n      eq\n      tag_4\n      jumpi\n      dup1\n      0xebdf86ca\n      eq\n      tag_5\n      jumpi\n    tag_2:\n      revert(0x00, 0x00)\n        /* \"submissions/Vera/day2_userInfo.sol\":356:582  function addAndRetrieve(string memory _name, string memory _bio) public returns (string memory, string memory){... */\n    tag_3:\n      tag_6\n      0x04\n      dup1\n      calldatasize\n      sub\n      dup2\n      add\n      swap1\n      tag_7\n      swap2\n      swap1\n      tag_8\n      jump\t// in\n    tag_7:\n      tag_9\n      jump\t// in\n    tag_6:\n      mload(0x40)\n      tag_10\n      swap3\n      swap2\n      swap1\n      tag_11\n      jump\t// in\n    tag_10:\n      mload(0x40)\n      dup1\n      swap2\n      sub\n      swap1\n      return\n        /* \"submissions/Vera/day2_userInfo.sol\":244:350  function retrieve() public view returns (string memory, string memory){... */\n    tag_4:\n      tag_12\n      tag_13\n      jump\t// in\n    tag_12:\n      mload(0x40)\n      tag_14\n      swap3\n      swap2\n      swap1\n      tag_11\n      jump\t// in\n    tag_14:\n      mload(0x40)\n      dup1\n      swap2\n      sub\n      swap1\n      return\n        /* \"submissions/Vera/day2_userInfo.sol\":126:238  function add(string memory _name,string memory _bio) public {... */\n    tag_5:\n      tag_15\n      0x04\n      dup1\n      calldatasize\n      sub\n      dup2\n      add\n      swap1\n      tag_16\n      swap2\n      swap1\n      tag_8\n      jump\t// in\n    tag_16:\n      tag_17\n      jump\t// in\n    tag_15:\n      stop\n        /* \"submissions/Vera/day2_userInfo.sol\":356:582  function addAndRetrieve(string memory _name, string memory _bio) public returns (string memory, string memory){... */\n    tag_9:\n        /* \"submissions/Vera/day2_userInfo.sol\":437:450  string memory */\n      0x60\n        /* \"submissions/Vera/day2_userInfo.sol\":452:465  string memory */\n      dup1\n        /* \"submissions/Vera/day2_userInfo.sol\":484:489  _name */\n      dup4\n        /* \"submissions/Vera/day2_userInfo.sol\":477:481  name */\n      0x00\n        /* \"submissions/Vera/day2_userInfo.sol\":477:489  name = _name */\n      swap1\n      dup2\n      tag_19\n      swap2\n      swap1\n      tag_20\n      jump\t// in\n    tag_19:\n      pop\n        /* \"submissions/Vera/day2_userInfo.sol\":506:510  _bio */\n      dup3\n        /* \"submissions/Vera/day2_userInfo.sol\":500:503  bio */\n      0x01\n        /* \"submissions/Vera/day2_userInfo.sol\":500:510  bio = _bio */\n      swap1\n      dup2\n      tag_21\n      swap2\n      swap1\n      tag_20\n      jump\t// in\n    tag_21:\n      pop\n        /* \"submissions/Vera/day2_userInfo.sol\":564:568  name */\n      0x00\n        /* \"submissions/Vera/day2_userInfo.sol\":570:573  bio */\n      0x01\n        /* \"submissions/Vera/day2_userInfo.sol\":556:574  return (name, bio) */\n      dup2\n      dup1\n      sload\n      tag_22\n      swap1\n      tag_23\n      jump\t// in\n    tag_22:\n      dup1\n      0x1f\n      add\n      0x20\n      dup1\n      swap2\n      div\n      mul\n      0x20\n      add\n      mload(0x40)\n      swap1\n      dup2\n      add\n      0x40\n      mstore\n      dup1\n      swap3\n      swap2\n      swap1\n      dup2\n      dup2\n      mstore\n      0x20\n      add\n      dup3\n      dup1\n      sload\n      tag_24\n      swap1\n      tag_23\n      jump\t// in\n    tag_24:\n      dup1\n      iszero\n      tag_25\n      jumpi\n      dup1\n      0x1f\n      lt\n      tag_26\n      jumpi\n      0x0100\n      dup1\n      dup4\n      sload\n      div\n      mul\n      dup4\n      mstore\n      swap2\n      0x20\n      add\n      swap2\n      jump(tag_25)\n    tag_26:\n      dup3\n      add\n      swap2\n      swap1\n      0x00\n      mstore\n      keccak256(0x00, 0x20)\n      swap1\n    tag_27:\n      dup2\n      sload\n      dup2\n      mstore\n      swap1\n      0x01\n      add\n      swap1\n      0x20\n      add\n      dup1\n      dup4\n      gt\n      tag_27\n      jumpi\n      dup3\n      swap1\n      sub\n      0x1f\n      and\n      dup3\n      add\n      swap2\n    tag_25:\n      pop\n      pop\n      pop\n      pop\n      pop\n      swap2\n      pop\n      dup1\n      dup1\n      sload\n      tag_28\n      swap1\n      tag_23\n      jump\t// in\n    tag_28:\n      dup1\n      0x1f\n      add\n      0x20\n      dup1\n      swap2\n      div\n      mul\n      0x20\n      add\n      mload(0x40)\n      swap1\n      dup2\n      add\n      0x40\n      mstore\n      dup1\n      swap3\n      swap2\n      swap1\n      dup2\n      dup2\n      mstore\n      0x20\n      add\n      dup3\n      dup1\n      sload\n      tag_29\n      swap1\n      tag_23\n      jump\t// in\n    tag_29:\n      dup1\n      iszero\n      tag_30\n      jumpi\n      dup1\n      0x1f\n      lt\n      tag_31\n      jumpi\n      0x0100\n      dup1\n      dup4\n      sload\n      div\n      mul\n      dup4\n      mstore\n      swap2\n      0x20\n      add\n      swap2\n      jump(tag_30)\n    tag_31:\n      dup3\n      add\n      swap2\n      swap1\n      0x00\n      mstore\n      keccak256(0x00, 0x20)\n      swap1\n    tag_32:\n      dup2\n      sload\n      dup2\n      mstore\n      swap1\n      0x01\n      add\n      swap1\n      0x20\n      add\n      dup1\n      dup4\n      gt\n      tag_32\n      jumpi\n      dup3\n      swap1\n      sub\n      0x1f\n      and\n      dup3\n      add\n      swap2\n    tag_30:\n      pop\n      pop\n      pop\n      pop\n      pop\n      swap1\n      pop\n      swap2\n      pop\n      swap2\n      pop\n        /* \"submissions/Vera/day2_userInfo.sol\":356:582  function addAndRetrieve(string memory _name, string memory _bio) public returns (string memory, string memory){... */\n      swap3\n      pop\n      swap3\n      swap1\n      pop\n      jump\t// out\n        /* \"submissions/Vera/day2_userInfo.sol\":244:350  function retrieve() public view returns (string memory, string memory){... */\n    tag_13:\n        /* \"submissions/Vera/day2_userInfo.sol\":285:298  string memory */\n      0x60\n        /* \"submissions/Vera/day2_userInfo.sol\":300:313  string memory */\n      dup1\n        /* \"submissions/Vera/day2_userInfo.sol\":333:337  name */\n      0x00\n        /* \"submissions/Vera/day2_userInfo.sol\":338:341  bio */\n      0x01\n        /* \"submissions/Vera/day2_userInfo.sol\":325:342  return (name,bio) */\n      dup2\n      dup1\n      sload\n      tag_34\n      swap1\n      tag_23\n      jump\t// in\n    tag_34:\n      dup1\n      0x1f\n      add\n      0x20\n      dup1\n      swap2\n      div\n      mul\n      0x20\n      add\n      mload(0x40)\n      swap1\n      dup2\n      add\n      0x40\n      mstore\n      dup1\n      swap3\n      swap2\n      swap1\n      dup2\n      dup2\n      mstore\n      0x20\n      add\n      dup3\n      dup1\n      sload\n      tag_35\n      swap1\n      tag_23\n      jump\t// in\n    tag_35:\n      dup1\n      iszero\n      tag_36\n      jumpi\n      dup1\n      0x1f\n      lt\n      tag_37\n      jumpi\n      0x0100\n      dup1\n      dup4\n      sload\n      div\n      mul\n      dup4\n      mstore\n      swap2\n      0x20\n      add\n      swap2\n      jump(tag_36)\n    tag_37:\n      dup3\n      add\n      swap2\n      swap1\n      0x00\n      mstore\n      keccak256(0x00, 0x20)\n      swap1\n    tag_38:\n      dup2\n      sload\n      dup2\n      mstore\n      swap1\n      0x01\n      add\n      swap1\n      0x20\n      add\n      dup1\n      dup4\n      gt\n      tag_38\n      jumpi\n      dup3\n      swap1\n      sub\n      0x1f\n      and\n      dup3\n      add\n      swap2\n    tag_36:\n      pop\n      pop\n      pop\n      pop\n      pop\n      swap2\n      pop\n      dup1\n      dup1\n      sload\n      tag_39\n      swap1\n      tag_23\n      jump\t// in\n    tag_39:\n      dup1\n      0x1f\n      add\n      0x20\n      dup1\n      swap2\n      div\n      mul\n      0x20\n      add\n      mload(0x40)\n      swap1\n      dup2\n      add\n      0x40\n      mstore\n      dup1\n      swap3\n      swap2\n      swap1\n      dup2\n      dup2\n      mstore\n      0x20\n      add\n      dup3\n      dup1\n      sload\n      tag_40\n      swap1\n      tag_23\n      jump\t// in\n    tag_40:\n      dup1\n      iszero\n      tag_41\n      jumpi\n      dup1\n      0x1f\n      lt\n      tag_42\n      jumpi\n      0x0100\n      dup1\n      dup4\n      sload\n      div\n      mul\n      dup4\n      mstore\n      swap2\n      0x20\n      add\n      swap2\n      jump(tag_41)\n    tag_42:\n      dup3\n      add\n      swap2\n      swap1\n      0x00\n      mstore\n      keccak256(0x00, 0x20)\n      swap1\n    tag_43:\n      dup2\n      sload\n      dup2\n      mstore\n      swap1\n      0x01\n      add\n      swap1\n      0x20\n      add\n      dup1\n      dup4\n      gt\n      tag_43\n      jumpi\n      dup3\n      swap1\n      sub\n      0x1f\n      and\n      dup3\n      add\n      swap2\n    tag_41:\n      pop\n      pop\n      pop\n      pop\n      pop\n      swap1\n      pop\n      swap2\n      pop\n      swap2\n      pop\n        /* \"submissions/Vera/day2_userInfo.sol\":244:350  function retrieve() public view returns (string memory, string memory){... */\n      swap1\n      swap2\n      jump\t// out\n        /* \"submissions/Vera/day2_userInfo.sol\":126:238  function add(string memory _name,string memory _bio) public {... */\n    tag_17:\n        /* \"submissions/Vera/day2_userInfo.sol\":204:209  _name */\n      dup2\n        /* \"submissions/Vera/day2_userInfo.sol\":197:201  name */\n      0x00\n        /* \"submissions/Vera/day2_userInfo.sol\":197:209  name = _name */\n      swap1\n      dup2\n      tag_45\n      swap2\n      swap1\n      tag_20\n      jump\t// in\n    tag_45:\n      pop\n        /* \"submissions/Vera/day2_userInfo.sol\":226:230  _bio */\n      dup1\n        /* \"submissions/Vera/day2_userInfo.sol\":220:223  bio */\n      0x01\n        /* \"submissions/Vera/day2_userInfo.sol\":220:230  bio = _bio */\n      swap1\n      dup2\n      tag_46\n      swap2\n      swap1\n      tag_20\n      jump\t// in\n    tag_46:\n      pop\n        /* \"submissions/Vera/day2_userInfo.sol\":126:238  function add(string memory _name,string memory _bio) public {... */\n      pop\n      pop\n      jump\t// out\n        /* \"#utility.yul\":7:82   */\n    tag_47:\n        /* \"#utility.yul\":40:46   */\n      0x00\n        /* \"#utility.yul\":73:75   */\n      0x40\n        /* \"#utility.yul\":67:76   */\n      mload\n        /* \"#utility.yul\":57:76   */\n      swap1\n      pop\n        /* \"#utility.yul\":7:82   */\n      swap1\n      jump\t// out\n        /* \"#utility.yul\":88:205   */\n    tag_48:\n        /* \"#utility.yul\":197:198   */\n      0x00\n        /* \"#utility.yul\":194:195   */\n      0x00\n        /* \"#utility.yul\":187:199   */\n      revert\n        /* \"#utility.yul\":211:328   */\n    tag_49:\n        /* \"#utility.yul\":320:321   */\n      0x00\n        /* \"#utility.yul\":317:318   */\n      0x00\n        /* \"#utility.yul\":310:322   */\n      revert\n        /* \"#utility.yul\":334:451   */\n    tag_50:\n        /* \"#utility.yul\":443:444   */\n      0x00\n        /* \"#utility.yul\":440:441   */\n      0x00\n        /* \"#utility.yul\":433:445   */\n      revert\n        /* \"#utility.yul\":457:574   */\n    tag_51:\n        /* \"#utility.yul\":566:567   */\n      0x00\n        /* \"#utility.yul\":563:564   */\n      0x00\n        /* \"#utility.yul\":556:568   */\n      revert\n        /* \"#utility.yul\":580:682   */\n    tag_52:\n        /* \"#utility.yul\":621:627   */\n      0x00\n        /* \"#utility.yul\":672:674   */\n      0x1f\n        /* \"#utility.yul\":668:675   */\n      not\n        /* \"#utility.yul\":663:665   */\n      0x1f\n        /* \"#utility.yul\":656:661   */\n      dup4\n        /* \"#utility.yul\":652:666   */\n      add\n        /* \"#utility.yul\":648:676   */\n      and\n        /* \"#utility.yul\":638:676   */\n      swap1\n      pop\n        /* \"#utility.yul\":580:682   */\n      swap2\n      swap1\n      pop\n      jump\t// out\n        /* \"#utility.yul\":688:868   */\n    tag_53:\n        /* \"#utility.yul\":736:813   */\n      0x4e487b7100000000000000000000000000000000000000000000000000000000\n        /* \"#utility.yul\":733:734   */\n      0x00\n        /* \"#utility.yul\":726:814   */\n      mstore\n        /* \"#utility.yul\":833:837   */\n      0x41\n        /* \"#utility.yul\":830:831   */\n      0x04\n        /* \"#utility.yul\":823:838   */\n      mstore\n        /* \"#utility.yul\":857:861   */\n      0x24\n        /* \"#utility.yul\":854:855   */\n      0x00\n        /* \"#utility.yul\":847:862   */\n      revert\n        /* \"#utility.yul\":874:1155   */\n    tag_54:\n        /* \"#utility.yul\":957:984   */\n      tag_90\n        /* \"#utility.yul\":979:983   */\n      dup3\n        /* \"#utility.yul\":957:984   */\n      tag_52\n      jump\t// in\n    tag_90:\n        /* \"#utility.yul\":949:955   */\n      dup2\n        /* \"#utility.yul\":945:985   */\n      add\n        /* \"#utility.yul\":1087:1093   */\n      dup2\n        /* \"#utility.yul\":1075:1085   */\n      dup2\n        /* \"#utility.yul\":1072:1094   */\n      lt\n        /* \"#utility.yul\":1051:1069   */\n      0xffffffffffffffff\n        /* \"#utility.yul\":1039:1049   */\n      dup3\n        /* \"#utility.yul\":1036:1070   */\n      gt\n        /* \"#utility.yul\":1033:1095   */\n      or\n        /* \"#utility.yul\":1030:1118   */\n      iszero\n      tag_91\n      jumpi\n        /* \"#utility.yul\":1098:1116   */\n      tag_92\n      tag_53\n      jump\t// in\n    tag_92:\n        /* \"#utility.yul\":1030:1118   */\n    tag_91:\n        /* \"#utility.yul\":1138:1148   */\n      dup1\n        /* \"#utility.yul\":1134:1136   */\n      0x40\n        /* \"#utility.yul\":1127:1149   */\n      mstore\n        /* \"#utility.yul\":917:1155   */\n      pop\n        /* \"#utility.yul\":874:1155   */\n      pop\n      pop\n      jump\t// out\n        /* \"#utility.yul\":1161:1290   */\n    tag_55:\n        /* \"#utility.yul\":1195:1201   */\n      0x00\n        /* \"#utility.yul\":1222:1242   */\n      tag_94\n      tag_47\n      jump\t// in\n    tag_94:\n        /* \"#utility.yul\":1212:1242   */\n      swap1\n      pop\n        /* \"#utility.yul\":1251:1284   */\n      tag_95\n        /* \"#utility.yul\":1279:1283   */\n      dup3\n        /* \"#utility.yul\":1271:1277   */\n      dup3\n        /* \"#utility.yul\":1251:1284   */\n      tag_54\n      jump\t// in\n    tag_95:\n        /* \"#utility.yul\":1161:1290   */\n      swap2\n      swap1\n      pop\n      jump\t// out\n        /* \"#utility.yul\":1296:1604   */\n    tag_56:\n        /* \"#utility.yul\":1358:1362   */\n      0x00\n        /* \"#utility.yul\":1448:1466   */\n      0xffffffffffffffff\n        /* \"#utility.yul\":1440:1446   */\n      dup3\n        /* \"#utility.yul\":1437:1467   */\n      gt\n        /* \"#utility.yul\":1434:1490   */\n      iszero\n      tag_97\n      jumpi\n        /* \"#utility.yul\":1470:1488   */\n      tag_98\n      tag_53\n      jump\t// in\n    tag_98:\n        /* \"#utility.yul\":1434:1490   */\n    tag_97:\n        /* \"#utility.yul\":1508:1537   */\n      tag_99\n        /* \"#utility.yul\":1530:1536   */\n      dup3\n        /* \"#utility.yul\":1508:1537   */\n      tag_52\n      jump\t// in\n    tag_99:\n        /* \"#utility.yul\":1500:1537   */\n      swap1\n      pop\n        /* \"#utility.yul\":1592:1596   */\n      0x20\n        /* \"#utility.yul\":1586:1590   */\n      dup2\n        /* \"#utility.yul\":1582:1597   */\n      add\n        /* \"#utility.yul\":1574:1597   */\n      swap1\n      pop\n        /* \"#utility.yul\":1296:1604   */\n      swap2\n      swap1\n      pop\n      jump\t// out\n        /* \"#utility.yul\":1610:1758   */\n    tag_57:\n        /* \"#utility.yul\":1708:1714   */\n      dup3\n        /* \"#utility.yul\":1703:1706   */\n      dup2\n        /* \"#utility.yul\":1698:1701   */\n      dup4\n        /* \"#utility.yul\":1685:1715   */\n      calldatacopy\n        /* \"#utility.yul\":1749:1750   */\n      0x00\n        /* \"#utility.yul\":1740:1746   */\n      dup4\n        /* \"#utility.yul\":1735:1738   */\n      dup4\n        /* \"#utility.yul\":1731:1747   */\n      add\n        /* \"#utility.yul\":1724:1751   */\n      mstore\n        /* \"#utility.yul\":1610:1758   */\n      pop\n      pop\n      pop\n      jump\t// out\n        /* \"#utility.yul\":1764:2189   */\n    tag_58:\n        /* \"#utility.yul\":1842:1847   */\n      0x00\n        /* \"#utility.yul\":1867:1933   */\n      tag_102\n        /* \"#utility.yul\":1883:1932   */\n      tag_103\n        /* \"#utility.yul\":1925:1931   */\n      dup5\n        /* \"#utility.yul\":1883:1932   */\n      tag_56\n      jump\t// in\n    tag_103:\n        /* \"#utility.yul\":1867:1933   */\n      tag_55\n      jump\t// in\n    tag_102:\n        /* \"#utility.yul\":1858:1933   */\n      swap1\n      pop\n        /* \"#utility.yul\":1956:1962   */\n      dup3\n        /* \"#utility.yul\":1949:1954   */\n      dup2\n        /* \"#utility.yul\":1942:1963   */\n      mstore\n        /* \"#utility.yul\":1994:1998   */\n      0x20\n        /* \"#utility.yul\":1987:1992   */\n      dup2\n        /* \"#utility.yul\":1983:1999   */\n      add\n        /* \"#utility.yul\":2032:2035   */\n      dup5\n        /* \"#utility.yul\":2023:2029   */\n      dup5\n        /* \"#utility.yul\":2018:2021   */\n      dup5\n        /* \"#utility.yul\":2014:2030   */\n      add\n        /* \"#utility.yul\":2011:2036   */\n      gt\n        /* \"#utility.yul\":2008:2120   */\n      iszero\n      tag_104\n      jumpi\n        /* \"#utility.yul\":2039:2118   */\n      tag_105\n      tag_51\n      jump\t// in\n    tag_105:\n        /* \"#utility.yul\":2008:2120   */\n    tag_104:\n        /* \"#utility.yul\":2129:2183   */\n      tag_106\n        /* \"#utility.yul\":2176:2182   */\n      dup5\n        /* \"#utility.yul\":2171:2174   */\n      dup3\n        /* \"#utility.yul\":2166:2169   */\n      dup6\n        /* \"#utility.yul\":2129:2183   */\n      tag_57\n      jump\t// in\n    tag_106:\n        /* \"#utility.yul\":1848:2189   */\n      pop\n        /* \"#utility.yul\":1764:2189   */\n      swap4\n      swap3\n      pop\n      pop\n      pop\n      jump\t// out\n        /* \"#utility.yul\":2209:2549   */\n    tag_59:\n        /* \"#utility.yul\":2265:2270   */\n      0x00\n        /* \"#utility.yul\":2314:2317   */\n      dup3\n        /* \"#utility.yul\":2307:2311   */\n      0x1f\n        /* \"#utility.yul\":2299:2305   */\n      dup4\n        /* \"#utility.yul\":2295:2312   */\n      add\n        /* \"#utility.yul\":2291:2318   */\n      slt\n        /* \"#utility.yul\":2281:2403   */\n      tag_108\n      jumpi\n        /* \"#utility.yul\":2322:2401   */\n      tag_109\n      tag_50\n      jump\t// in\n    tag_109:\n        /* \"#utility.yul\":2281:2403   */\n    tag_108:\n        /* \"#utility.yul\":2439:2445   */\n      dup2\n        /* \"#utility.yul\":2426:2446   */\n      calldataload\n        /* \"#utility.yul\":2464:2543   */\n      tag_110\n        /* \"#utility.yul\":2539:2542   */\n      dup5\n        /* \"#utility.yul\":2531:2537   */\n      dup3\n        /* \"#utility.yul\":2524:2528   */\n      0x20\n        /* \"#utility.yul\":2516:2522   */\n      dup7\n        /* \"#utility.yul\":2512:2529   */\n      add\n        /* \"#utility.yul\":2464:2543   */\n      tag_58\n      jump\t// in\n    tag_110:\n        /* \"#utility.yul\":2455:2543   */\n      swap2\n      pop\n        /* \"#utility.yul\":2271:2549   */\n      pop\n        /* \"#utility.yul\":2209:2549   */\n      swap3\n      swap2\n      pop\n      pop\n      jump\t// out\n        /* \"#utility.yul\":2555:3389   */\n    tag_8:\n        /* \"#utility.yul\":2643:2649   */\n      0x00\n        /* \"#utility.yul\":2651:2657   */\n      0x00\n        /* \"#utility.yul\":2700:2702   */\n      0x40\n        /* \"#utility.yul\":2688:2697   */\n      dup4\n        /* \"#utility.yul\":2679:2686   */\n      dup6\n        /* \"#utility.yul\":2675:2698   */\n      sub\n        /* \"#utility.yul\":2671:2703   */\n      slt\n        /* \"#utility.yul\":2668:2787   */\n      iszero\n      tag_112\n      jumpi\n        /* \"#utility.yul\":2706:2785   */\n      tag_113\n      tag_48\n      jump\t// in\n    tag_113:\n        /* \"#utility.yul\":2668:2787   */\n    tag_112:\n        /* \"#utility.yul\":2854:2855   */\n      0x00\n        /* \"#utility.yul\":2843:2852   */\n      dup4\n        /* \"#utility.yul\":2839:2856   */\n      add\n        /* \"#utility.yul\":2826:2857   */\n      calldataload\n        /* \"#utility.yul\":2884:2902   */\n      0xffffffffffffffff\n        /* \"#utility.yul\":2876:2882   */\n      dup2\n        /* \"#utility.yul\":2873:2903   */\n      gt\n        /* \"#utility.yul\":2870:2987   */\n      iszero\n      tag_114\n      jumpi\n        /* \"#utility.yul\":2906:2985   */\n      tag_115\n      tag_49\n      jump\t// in\n    tag_115:\n        /* \"#utility.yul\":2870:2987   */\n    tag_114:\n        /* \"#utility.yul\":3011:3074   */\n      tag_116\n        /* \"#utility.yul\":3066:3073   */\n      dup6\n        /* \"#utility.yul\":3057:3063   */\n      dup3\n        /* \"#utility.yul\":3046:3055   */\n      dup7\n        /* \"#utility.yul\":3042:3064   */\n      add\n        /* \"#utility.yul\":3011:3074   */\n      tag_59\n      jump\t// in\n    tag_116:\n        /* \"#utility.yul\":3001:3074   */\n      swap3\n      pop\n        /* \"#utility.yul\":2797:3084   */\n      pop\n        /* \"#utility.yul\":3151:3153   */\n      0x20\n        /* \"#utility.yul\":3140:3149   */\n      dup4\n        /* \"#utility.yul\":3136:3154   */\n      add\n        /* \"#utility.yul\":3123:3155   */\n      calldataload\n        /* \"#utility.yul\":3182:3200   */\n      0xffffffffffffffff\n        /* \"#utility.yul\":3174:3180   */\n      dup2\n        /* \"#utility.yul\":3171:3201   */\n      gt\n        /* \"#utility.yul\":3168:3285   */\n      iszero\n      tag_117\n      jumpi\n        /* \"#utility.yul\":3204:3283   */\n      tag_118\n      tag_49\n      jump\t// in\n    tag_118:\n        /* \"#utility.yul\":3168:3285   */\n    tag_117:\n        /* \"#utility.yul\":3309:3372   */\n      tag_119\n        /* \"#utility.yul\":3364:3371   */\n      dup6\n        /* \"#utility.yul\":3355:3361   */\n      dup3\n        /* \"#utility.yul\":3344:3353   */\n      dup7\n        /* \"#utility.yul\":3340:3362   */\n      add\n        /* \"#utility.yul\":3309:3372   */\n      tag_59\n      jump\t// in\n    tag_119:\n        /* \"#utility.yul\":3299:3372   */\n      swap2\n      pop\n        /* \"#utility.yul\":3094:3382   */\n      pop\n        /* \"#utility.yul\":2555:3389   */\n      swap3\n      pop\n      swap3\n      swap1\n      pop\n      jump\t// out\n        /* \"#utility.yul\":3395:3494   */\n    tag_60:\n        /* \"#utility.yul\":3447:3453   */\n      0x00\n        /* \"#utility.yul\":3481:3486   */\n      dup2\n        /* \"#utility.yul\":3475:3487   */\n      mload\n        /* \"#utility.yul\":3465:3487   */\n      swap1\n      pop\n        /* \"#utility.yul\":3395:3494   */\n      swap2\n      swap1\n      pop\n      jump\t// out\n        /* \"#utility.yul\":3500:3669   */\n    tag_61:\n        /* \"#utility.yul\":3584:3595   */\n      0x00\n        /* \"#utility.yul\":3618:3624   */\n      dup3\n        /* \"#utility.yul\":3613:3616   */\n      dup3\n        /* \"#utility.yul\":3606:3625   */\n      mstore\n        /* \"#utility.yul\":3658:3662   */\n      0x20\n        /* \"#utility.yul\":3653:3656   */\n      dup3\n        /* \"#utility.yul\":3649:3663   */\n      add\n        /* \"#utility.yul\":3634:3663   */\n      swap1\n      pop\n        /* \"#utility.yul\":3500:3669   */\n      swap3\n      swap2\n      pop\n      pop\n      jump\t// out\n        /* \"#utility.yul\":3675:3814   */\n    tag_62:\n        /* \"#utility.yul\":3764:3770   */\n      dup3\n        /* \"#utility.yul\":3759:3762   */\n      dup2\n        /* \"#utility.yul\":3754:3757   */\n      dup4\n        /* \"#utility.yul\":3748:3771   */\n      mcopy\n        /* \"#utility.yul\":3805:3806   */\n      0x00\n        /* \"#utility.yul\":3796:3802   */\n      dup4\n        /* \"#utility.yul\":3791:3794   */\n      dup4\n        /* \"#utility.yul\":3787:3803   */\n      add\n        /* \"#utility.yul\":3780:3807   */\n      mstore\n        /* \"#utility.yul\":3675:3814   */\n      pop\n      pop\n      pop\n      jump\t// out\n        /* \"#utility.yul\":3820:4197   */\n    tag_63:\n        /* \"#utility.yul\":3908:3911   */\n      0x00\n        /* \"#utility.yul\":3936:3975   */\n      tag_124\n        /* \"#utility.yul\":3969:3974   */\n      dup3\n        /* \"#utility.yul\":3936:3975   */\n      tag_60\n      jump\t// in\n    tag_124:\n        /* \"#utility.yul\":3991:4062   */\n      tag_125\n        /* \"#utility.yul\":4055:4061   */\n      dup2\n        /* \"#utility.yul\":4050:4053   */\n      dup6\n        /* \"#utility.yul\":3991:4062   */\n      tag_61\n      jump\t// in\n    tag_125:\n        /* \"#utility.yul\":3984:4062   */\n      swap4\n      pop\n        /* \"#utility.yul\":4071:4136   */\n      tag_126\n        /* \"#utility.yul\":4129:4135   */\n      dup2\n        /* \"#utility.yul\":4124:4127   */\n      dup6\n        /* \"#utility.yul\":4117:4121   */\n      0x20\n        /* \"#utility.yul\":4110:4115   */\n      dup7\n        /* \"#utility.yul\":4106:4122   */\n      add\n        /* \"#utility.yul\":4071:4136   */\n      tag_62\n      jump\t// in\n    tag_126:\n        /* \"#utility.yul\":4161:4190   */\n      tag_127\n        /* \"#utility.yul\":4183:4189   */\n      dup2\n        /* \"#utility.yul\":4161:4190   */\n      tag_52\n      jump\t// in\n    tag_127:\n        /* \"#utility.yul\":4156:4159   */\n      dup5\n        /* \"#utility.yul\":4152:4191   */\n      add\n        /* \"#utility.yul\":4145:4191   */\n      swap2\n      pop\n        /* \"#utility.yul\":3912:4197   */\n      pop\n        /* \"#utility.yul\":3820:4197   */\n      swap3\n      swap2\n      pop\n      pop\n      jump\t// out\n        /* \"#utility.yul\":4203:4717   */\n    tag_11:\n        /* \"#utility.yul\":4364:4368   */\n      0x00\n        /* \"#utility.yul\":4402:4404   */\n      0x40\n        /* \"#utility.yul\":4391:4400   */\n      dup3\n        /* \"#utility.yul\":4387:4405   */\n      add\n        /* \"#utility.yul\":4379:4405   */\n      swap1\n      pop\n        /* \"#utility.yul\":4451:4460   */\n      dup2\n        /* \"#utility.yul\":4445:4449   */\n      dup2\n        /* \"#utility.yul\":4441:4461   */\n      sub\n        /* \"#utility.yul\":4437:4438   */\n      0x00\n        /* \"#utility.yul\":4426:4435   */\n      dup4\n        /* \"#utility.yul\":4422:4439   */\n      add\n        /* \"#utility.yul\":4415:4462   */\n      mstore\n        /* \"#utility.yul\":4479:4557   */\n      tag_129\n        /* \"#utility.yul\":4552:4556   */\n      dup2\n        /* \"#utility.yul\":4543:4549   */\n      dup6\n        /* \"#utility.yul\":4479:4557   */\n      tag_63\n      jump\t// in\n    tag_129:\n        /* \"#utility.yul\":4471:4557   */\n      swap1\n      pop\n        /* \"#utility.yul\":4604:4613   */\n      dup2\n        /* \"#utility.yul\":4598:4602   */\n      dup2\n        /* \"#utility.yul\":4594:4614   */\n      sub\n        /* \"#utility.yul\":4589:4591   */\n      0x20\n        /* \"#utility.yul\":4578:4587   */\n      dup4\n        /* \"#utility.yul\":4574:4592   */\n      add\n        /* \"#utility.yul\":4567:4615   */\n      mstore\n        /* \"#utility.yul\":4632:4710   */\n      tag_130\n        /* \"#utility.yul\":4705:4709   */\n      dup2\n        /* \"#utility.yul\":4696:4702   */\n      dup5\n        /* \"#utility.yul\":4632:4710   */\n      tag_63\n      jump\t// in\n    tag_130:\n        /* \"#utility.yul\":4624:4710   */\n      swap1\n      pop\n        /* \"#utility.yul\":4203:4717   */\n      swap4\n      swap3\n      pop\n      pop\n      pop\n      jump\t// out\n        /* \"#utility.yul\":4723:4903   */\n    tag_64:\n        /* \"#utility.yul\":4771:4848   */\n      0x4e487b7100000000000000000000000000000000000000000000000000000000\n        /* \"#utility.yul\":4768:4769   */\n      0x00\n        /* \"#utility.yul\":4761:4849   */\n      mstore\n        /* \"#utility.yul\":4868:4872   */\n      0x22\n        /* \"#utility.yul\":4865:4866   */\n      0x04\n        /* \"#utility.yul\":4858:4873   */\n      mstore\n        /* \"#utility.yul\":4892:4896   */\n      0x24\n        /* \"#utility.yul\":4889:4890   */\n      0x00\n        /* \"#utility.yul\":4882:4897   */\n      revert\n        /* \"#utility.yul\":4909:5229   */\n    tag_23:\n        /* \"#utility.yul\":4953:4959   */\n      0x00\n        /* \"#utility.yul\":4990:4991   */\n      0x02\n        /* \"#utility.yul\":4984:4988   */\n      dup3\n        /* \"#utility.yul\":4980:4992   */\n      div\n        /* \"#utility.yul\":4970:4992   */\n      swap1\n      pop\n        /* \"#utility.yul\":5037:5038   */\n      0x01\n        /* \"#utility.yul\":5031:5035   */\n      dup3\n        /* \"#utility.yul\":5027:5039   */\n      and\n        /* \"#utility.yul\":5058:5076   */\n      dup1\n        /* \"#utility.yul\":5048:5129   */\n      tag_133\n      jumpi\n        /* \"#utility.yul\":5114:5118   */\n      0x7f\n        /* \"#utility.yul\":5106:5112   */\n      dup3\n        /* \"#utility.yul\":5102:5119   */\n      and\n        /* \"#utility.yul\":5092:5119   */\n      swap2\n      pop\n        /* \"#utility.yul\":5048:5129   */\n    tag_133:\n        /* \"#utility.yul\":5176:5178   */\n      0x20\n        /* \"#utility.yul\":5168:5174   */\n      dup3\n        /* \"#utility.yul\":5165:5179   */\n      lt\n        /* \"#utility.yul\":5145:5163   */\n      dup2\n        /* \"#utility.yul\":5142:5180   */\n      sub\n        /* \"#utility.yul\":5139:5223   */\n      tag_134\n      jumpi\n        /* \"#utility.yul\":5195:5213   */\n      tag_135\n      tag_64\n      jump\t// in\n    tag_135:\n        /* \"#utility.yul\":5139:5223   */\n    tag_134:\n        /* \"#utility.yul\":4960:5229   */\n      pop\n        /* \"#utility.yul\":4909:5229   */\n      swap2\n      swap1\n      pop\n      jump\t// out\n        /* \"#utility.yul\":5235:5376   */\n    tag_65:\n        /* \"#utility.yul\":5284:5288   */\n      0x00\n        /* \"#utility.yul\":5307:5310   */\n      dup2\n        /* \"#utility.yul\":5299:5310   */\n      swap1\n      pop\n        /* \"#utility.yul\":5330:5333   */\n      dup2\n        /* \"#utility.yul\":5327:5328   */\n      0x00\n        /* \"#utility.yul\":5320:5334   */\n      mstore\n        /* \"#utility.yul\":5364:5368   */\n      0x20\n        /* \"#utility.yul\":5361:5362   */\n      0x00\n        /* \"#utility.yul\":5351:5369   */\n      keccak256\n        /* \"#utility.yul\":5343:5369   */\n      swap1\n      pop\n        /* \"#utility.yul\":5235:5376   */\n      swap2\n      swap1\n      pop\n      jump\t// out\n        /* \"#utility.yul\":5382:5475   */\n    tag_66:\n        /* \"#utility.yul\":5419:5425   */\n      0x00\n        /* \"#utility.yul\":5466:5468   */\n      0x20\n        /* \"#utility.yul\":5461:5463   */\n      0x1f\n        /* \"#utility.yul\":5454:5459   */\n      dup4\n        /* \"#utility.yul\":5450:5464   */\n      add\n        /* \"#utility.yul\":5446:5469   */\n      div\n        /* \"#utility.yul\":5436:5469   */\n      swap1\n      pop\n        /* \"#utility.yul\":5382:5475   */\n      swap2\n      swap1\n      pop\n      jump\t// out\n        /* \"#utility.yul\":5481:5588   */\n    tag_67:\n        /* \"#utility.yul\":5525:5533   */\n      0x00\n        /* \"#utility.yul\":5575:5580   */\n      dup3\n        /* \"#utility.yul\":5569:5573   */\n      dup3\n        /* \"#utility.yul\":5565:5581   */\n      shl\n        /* \"#utility.yul\":5544:5581   */\n      swap1\n      pop\n        /* \"#utility.yul\":5481:5588   */\n      swap3\n      swap2\n      pop\n      pop\n      jump\t// out\n        /* \"#utility.yul\":5594:5987   */\n    tag_68:\n        /* \"#utility.yul\":5663:5669   */\n      0x00\n        /* \"#utility.yul\":5713:5714   */\n      0x08\n        /* \"#utility.yul\":5701:5711   */\n      dup4\n        /* \"#utility.yul\":5697:5715   */\n      mul\n        /* \"#utility.yul\":5736:5833   */\n      tag_140\n        /* \"#utility.yul\":5766:5832   */\n      0xffffffffffffffffffffffffffffffffffffffffffffffffffffffffffffffff\n        /* \"#utility.yul\":5755:5764   */\n      dup3\n        /* \"#utility.yul\":5736:5833   */\n      tag_67\n      jump\t// in\n    tag_140:\n        /* \"#utility.yul\":5854:5893   */\n      tag_141\n        /* \"#utility.yul\":5884:5892   */\n      dup7\n        /* \"#utility.yul\":5873:5882   */\n      dup4\n        /* \"#utility.yul\":5854:5893   */\n      tag_67\n      jump\t// in\n    tag_141:\n        /* \"#utility.yul\":5842:5893   */\n      swap6\n      pop\n        /* \"#utility.yul\":5926:5930   */\n      dup1\n        /* \"#utility.yul\":5922:5931   */\n      not\n        /* \"#utility.yul\":5915:5920   */\n      dup5\n        /* \"#utility.yul\":5911:5932   */\n      and\n        /* \"#utility.yul\":5902:5932   */\n      swap4\n      pop\n        /* \"#utility.yul\":5975:5979   */\n      dup1\n        /* \"#utility.yul\":5965:5973   */\n      dup7\n        /* \"#utility.yul\":5961:5980   */\n      and\n        /* \"#utility.yul\":5954:5959   */\n      dup5\n        /* \"#utility.yul\":5951:5981   */\n      or\n        /* \"#utility.yul\":5941:5981   */\n      swap3\n      pop\n        /* \"#utility.yul\":5670:5987   */\n      pop\n      pop\n        /* \"#utility.yul\":5594:5987   */\n      swap4\n      swap3\n      pop\n      pop\n      pop\n      jump\t// out\n        /* \"#utility.yul\":5993:6070   */\n    tag_69:\n        /* \"#utility.yul\":6030:6037   */\n      0x00\n        /* \"#utility.yul\":6059:6064   */\n      dup2\n        /* \"#utility.yul\":6048:6064   */\n      swap1\n      pop\n        /* \"#utility.yul\":5993:6070   */\n      swap2\n      swap1\n      pop\n      jump\t// out\n        /* \"#utility.yul\":6076:6136   */\n    tag_70:\n        /* \"#utility.yul\":6104:6107   */\n      0x00\n        /* \"#utility.yul\":6125:6130   */\n      dup2\n        /* \"#utility.yul\":6118:6130   */\n      swap1\n      pop\n        /* \"#utility.yul\":6076:6136   */\n      swap2\n      swap1\n      pop\n      jump\t// out\n        /* \"#utility.yul\":6142:6284   */\n    tag_71:\n        /* \"#utility.yul\":6192:6201   */\n      0x00\n        /* \"#utility.yul\":6225:6278   */\n      tag_145\n        /* \"#utility.yul\":6243:6277   */\n      tag_146\n        /* \"#utility.yul\":6252:6276   */\n      tag_147\n        /* \"#utility.yul\":6270:6275   */\n      dup5\n        /* \"#utility.yul\":6252:6276   */\n      tag_69\n      jump\t// in\n    tag_147:\n        /* \"#utility.yul\":6243:6277   */\n      tag_70\n      jump\t// in\n    tag_146:\n        /* \"#utility.yul\":6225:6278   */\n      tag_69\n      jump\t// in\n    tag_145:\n        /* \"#utility.yul\":6212:6278   */\n      swap1\n      pop\n        /* \"#utility.yul\":6142:6284   */\n      swap2\n      swap1\n      pop\n      jump\t// out\n        /* \"#utility.yul\":6290:6365   */\n    tag_72:\n        /* \"#utility.yul\":6333:6336   */\n      0x00\n        /* \"#utility.yul\":6354:6359   */\n      dup2\n        /* \"#utility.yul\":6347:6359   */\n      swap1\n      pop\n        /* \"#utility.yul\":6290:6365   */\n      swap2\n      swap1\n      pop\n      jump\t// out\n        /* \"#utility.yul\":6371:6640   */\n    tag_73:\n        /* \"#utility.yul\":6481:6520   */\n      tag_150\n        /* \"#utility.yul\":6512:6519   */\n      dup4\n        /* \"#utility.yul\":6481:6520   */\n      tag_71\n      jump\t// in\n    tag_150:\n        /* \"#utility.yul\":6542:6633   */\n      tag_151\n        /* \"#utility.yul\":6591:6632   */\n      tag_152\n        /* \"#utility.yul\":6615:6631   */\n      dup3\n        /* \"#utility.yul\":6591:6632   */\n      tag_72\n      jump\t// in\n    tag_152:\n        /* \"#utility.yul\":6583:6589   */\n      dup5\n        /* \"#utility.yul\":6576:6580   */\n      dup5\n        /* \"#utility.yul\":6570:6581   */\n      sload\n        /* \"#utility.yul\":6542:6633   */\n      tag_68\n      jump\t// in\n    tag_151:\n        /* \"#utility.yul\":6536:6540   */\n      dup3\n        /* \"#utility.yul\":6529:6634   */\n      sstore\n        /* \"#utility.yul\":6447:6640   */\n      pop\n        /* \"#utility.yul\":6371:6640   */\n      pop\n      pop\n      pop\n      jump\t// out\n        /* \"#utility.yul\":6646:6719   */\n    tag_74:\n        /* \"#utility.yul\":6691:6694   */\n      0x00\n        /* \"#utility.yul\":6712:6713   */\n      0x00\n        /* \"#utility.yul\":6705:6713   */\n      swap1\n      pop\n        /* \"#utility.yul\":6646:6719   */\n      swap1\n      jump\t// out\n        /* \"#utility.yul\":6725:6914   */\n    tag_75:\n        /* \"#utility.yul\":6802:6834   */\n      tag_155\n      tag_74\n      jump\t// in\n    tag_155:\n        /* \"#utility.yul\":6843:6908   */\n      tag_156\n        /* \"#utility.yul\":6901:6907   */\n      dup2\n        /* \"#utility.yul\":6893:6899   */\n      dup5\n        /* \"#utility.yul\":6887:6891   */\n      dup5\n        /* \"#utility.yul\":6843:6908   */\n      tag_73\n      jump\t// in\n    tag_156:\n        /* \"#utility.yul\":6778:6914   */\n      pop\n        /* \"#utility.yul\":6725:6914   */\n      pop\n      pop\n      jump\t// out\n        /* \"#utility.yul\":6920:7106   */\n    tag_76:\n        /* \"#utility.yul\":6980:7100   */\n    tag_158:\n        /* \"#utility.yul\":6997:7000   */\n      dup2\n        /* \"#utility.yul\":6990:6995   */\n      dup2\n        /* \"#utility.yul\":6987:7001   */\n      lt\n        /* \"#utility.yul\":6980:7100   */\n      iszero\n      tag_160\n      jumpi\n        /* \"#utility.yul\":7051:7090   */\n      tag_161\n        /* \"#utility.yul\":7088:7089   */\n      0x00\n        /* \"#utility.yul\":7081:7086   */\n      dup3\n        /* \"#utility.yul\":7051:7090   */\n      tag_75\n      jump\t// in\n    tag_161:\n        /* \"#utility.yul\":7024:7025   */\n      0x01\n        /* \"#utility.yul\":7017:7022   */\n      dup2\n        /* \"#utility.yul\":7013:7026   */\n      add\n        /* \"#utility.yul\":7004:7026   */\n      swap1\n      pop\n        /* \"#utility.yul\":6980:7100   */\n      jump(tag_158)\n    tag_160:\n        /* \"#utility.yul\":6920:7106   */\n      pop\n      pop\n      jump\t// out\n        /* \"#utility.yul\":7112:7655   */\n    tag_77:\n        /* \"#utility.yul\":7213:7215   */\n      0x1f\n        /* \"#utility.yul\":7208:7211   */\n      dup3\n        /* \"#utility.yul\":7205:7216   */\n      gt\n        /* \"#utility.yul\":7202:7648   */\n      iszero\n      tag_163\n      jumpi\n        /* \"#utility.yul\":7247:7285   */\n      tag_164\n        /* \"#utility.yul\":7279:7284   */\n      dup2\n        /* \"#utility.yul\":7247:7285   */\n      tag_65\n      jump\t// in\n    tag_164:\n        /* \"#utility.yul\":7331:7360   */\n      tag_165\n        /* \"#utility.yul\":7349:7359   */\n      dup5\n        /* \"#utility.yul\":7331:7360   */\n      tag_66\n      jump\t// in\n    tag_165:\n        /* \"#utility.yul\":7321:7329   */\n      dup2\n        /* \"#utility.yul\":7317:7361   */\n      add\n        /* \"#utility.yul\":7514:7516   */\n      0x20\n        /* \"#utility.yul\":7502:7512   */\n      dup6\n        /* \"#utility.yul\":7499:7517   */\n      lt\n        /* \"#utility.yul\":7496:7545   */\n      iszero\n      tag_166\n      jumpi\n        /* \"#utility.yul\":7535:7543   */\n      dup2\n        /* \"#utility.yul\":7520:7543   */\n      swap1\n      pop\n        /* \"#utility.yul\":7496:7545   */\n    tag_166:\n        /* \"#utility.yul\":7558:7638   */\n      tag_167\n        /* \"#utility.yul\":7614:7636   */\n      tag_168\n        /* \"#utility.yul\":7632:7635   */\n      dup6\n        /* \"#utility.yul\":7614:7636   */\n      tag_66\n      jump\t// in\n    tag_168:\n        /* \"#utility.yul\":7604:7612   */\n      dup4\n        /* \"#utility.yul\":7600:7637   */\n      add\n        /* \"#utility.yul\":7587:7598   */\n      dup3\n        /* \"#utility.yul\":7558:7638   */\n      tag_76\n      jump\t// in\n    tag_167:\n        /* \"#utility.yul\":7217:7648   */\n      pop\n      pop\n        /* \"#utility.yul\":7202:7648   */\n    tag_163:\n        /* \"#utility.yul\":7112:7655   */\n      pop\n      pop\n      pop\n      jump\t// out\n        /* \"#utility.yul\":7661:7778   */\n    tag_78:\n        /* \"#utility.yul\":7715:7723   */\n      0x00\n        /* \"#utility.yul\":7765:7770   */\n      dup3\n        /* \"#utility.yul\":7759:7763   */\n      dup3\n        /* \"#utility.yul\":7755:7771   */\n      shr\n        /* \"#utility.yul\":7734:7771   */\n      swap1\n      pop\n        /* \"#utility.yul\":7661:7778   */\n      swap3\n      swap2\n      pop\n      pop\n      jump\t// out\n        /* \"#utility.yul\":7784:7953   */\n    tag_79:\n        /* \"#utility.yul\":7828:7834   */\n      0x00\n        /* \"#utility.yul\":7861:7912   */\n      tag_171\n        /* \"#utility.yul\":7909:7910   */\n      0x00\n        /* \"#utility.yul\":7905:7911   */\n      not\n        /* \"#utility.yul\":7897:7902   */\n      dup5\n        /* \"#utility.yul\":7894:7895   */\n      0x08\n        /* \"#utility.yul\":7890:7903   */\n      mul\n        /* \"#utility.yul\":7861:7912   */\n      tag_78\n      jump\t// in\n    tag_171:\n        /* \"#utility.yul\":7857:7913   */\n      not\n        /* \"#utility.yul\":7942:7946   */\n      dup1\n        /* \"#utility.yul\":7936:7940   */\n      dup4\n        /* \"#utility.yul\":7932:7947   */\n      and\n        /* \"#utility.yul\":7922:7947   */\n      swap2\n      pop\n        /* \"#utility.yul\":7835:7953   */\n      pop\n        /* \"#utility.yul\":7784:7953   */\n      swap3\n      swap2\n      pop\n      pop\n      jump\t// out\n        /* \"#utility.yul\":7958:8253   */\n    tag_80:\n        /* \"#utility.yul\":8034:8038   */\n      0x00\n        /* \"#utility.yul\":8180:8209   */\n      tag_173\n        /* \"#utility.yul\":8205:8208   */\n      dup4\n        /* \"#utility.yul\":8199:8203   */\n      dup4\n        /* \"#utility.yul\":8180:8209   */\n      tag_79\n      jump\t// in\n    tag_173:\n        /* \"#utility.yul\":8172:8209   */\n      swap2\n      pop\n        /* \"#utility.yul\":8242:8245   */\n      dup3\n        /* \"#utility.yul\":8239:8240   */\n      0x02\n        /* \"#utility.yul\":8235:8246   */\n      mul\n        /* \"#utility.yul\":8229:8233   */\n      dup3\n        /* \"#utility.yul\":8226:8247   */\n      or\n        /* \"#utility.yul\":8218:8247   */\n      swap1\n      pop\n        /* \"#utility.yul\":7958:8253   */\n      swap3\n      swap2\n      pop\n      pop\n      jump\t// out\n        /* \"#utility.yul\":8258:9653   */\n    tag_20:\n        /* \"#utility.yul\":8375:8412   */\n      tag_175\n        /* \"#utility.yul\":8408:8411   */\n      dup3\n        /* \"#utility.yul\":8375:8412   */\n      tag_60\n      jump\t// in\n    tag_175:\n        /* \"#utility.yul\":8477:8495   */\n      0xffffffffffffffff\n        /* \"#utility.yul\":8469:8475   */\n      dup2\n        /* \"#utility.yul\":8466:8496   */\n      gt\n        /* \"#utility.yul\":8463:8519   */\n      iszero\n      tag_176\n      jumpi\n        /* \"#utility.yul\":8499:8517   */\n      tag_177\n      tag_53\n      jump\t// in\n    tag_177:\n        /* \"#utility.yul\":8463:8519   */\n    tag_176:\n        /* \"#utility.yul\":8543:8581   */\n      tag_178\n        /* \"#utility.yul\":8575:8579   */\n      dup3\n        /* \"#utility.yul\":8569:8580   */\n      sload\n        /* \"#utility.yul\":8543:8581   */\n      tag_23\n      jump\t// in\n    tag_178:\n        /* \"#utility.yul\":8628:8695   */\n      tag_179\n        /* \"#utility.yul\":8688:8694   */\n      dup3\n        /* \"#utility.yul\":8680:8686   */\n      dup3\n        /* \"#utility.yul\":8674:8678   */\n      dup6\n        /* \"#utility.yul\":8628:8695   */\n      tag_77\n      jump\t// in\n    tag_179:\n        /* \"#utility.yul\":8722:8723   */\n      0x00\n        /* \"#utility.yul\":8746:8750   */\n      0x20\n        /* \"#utility.yul\":8733:8750   */\n      swap1\n      pop\n        /* \"#utility.yul\":8778:8780   */\n      0x1f\n        /* \"#utility.yul\":8770:8776   */\n      dup4\n        /* \"#utility.yul\":8767:8781   */\n      gt\n        /* \"#utility.yul\":8795:8796   */\n      0x01\n        /* \"#utility.yul\":8790:9408   */\n      dup2\n      eq\n      tag_181\n      jumpi\n        /* \"#utility.yul\":9452:9453   */\n      0x00\n        /* \"#utility.yul\":9469:9475   */\n      dup5\n        /* \"#utility.yul\":9466:9543   */\n      iszero\n      tag_182\n      jumpi\n        /* \"#utility.yul\":9518:9527   */\n      dup3\n        /* \"#utility.yul\":9513:9516   */\n      dup8\n        /* \"#utility.yul\":9509:9528   */\n      add\n        /* \"#utility.yul\":9503:9529   */\n      mload\n        /* \"#utility.yul\":9494:9529   */\n      swap1\n      pop\n        /* \"#utility.yul\":9466:9543   */\n    tag_182:\n        /* \"#utility.yul\":9569:9636   */\n      tag_183\n        /* \"#utility.yul\":9629:9635   */\n      dup6\n        /* \"#utility.yul\":9622:9627   */\n      dup3\n        /* \"#utility.yul\":9569:9636   */\n      tag_80\n      jump\t// in\n    tag_183:\n        /* \"#utility.yul\":9563:9567   */\n      dup7\n        /* \"#utility.yul\":9556:9637   */\n      sstore\n        /* \"#utility.yul\":9425:9647   */\n      pop\n        /* \"#utility.yul\":8760:9647   */\n      jump(tag_180)\n        /* \"#utility.yul\":8790:9408   */\n    tag_181:\n        /* \"#utility.yul\":8842:8846   */\n      0x1f\n        /* \"#utility.yul\":8838:8847   */\n      not\n        /* \"#utility.yul\":8830:8836   */\n      dup5\n        /* \"#utility.yul\":8826:8848   */\n      and\n        /* \"#utility.yul\":8876:8913   */\n      tag_184\n        /* \"#utility.yul\":8908:8912   */\n      dup7\n        /* \"#utility.yul\":8876:8913   */\n      tag_65\n      jump\t// in\n    tag_184:\n        /* \"#utility.yul\":8935:8936   */\n      0x00\n        /* \"#utility.yul\":8949:9157   */\n    tag_185:\n        /* \"#utility.yul\":8963:8970   */\n      dup3\n        /* \"#utility.yul\":8960:8961   */\n      dup2\n        /* \"#utility.yul\":8957:8971   */\n      lt\n        /* \"#utility.yul\":8949:9157   */\n      iszero\n      tag_187\n      jumpi\n        /* \"#utility.yul\":9042:9051   */\n      dup5\n        /* \"#utility.yul\":9037:9040   */\n      dup10\n        /* \"#utility.yul\":9033:9052   */\n      add\n        /* \"#utility.yul\":9027:9053   */\n      mload\n        /* \"#utility.yul\":9019:9025   */\n      dup3\n        /* \"#utility.yul\":9012:9054   */\n      sstore\n        /* \"#utility.yul\":9093:9094   */\n      0x01\n        /* \"#utility.yul\":9085:9091   */\n      dup3\n        /* \"#utility.yul\":9081:9095   */\n      add\n        /* \"#utility.yul\":9071:9095   */\n      swap2\n      pop\n        /* \"#utility.yul\":9140:9142   */\n      0x20\n        /* \"#utility.yul\":9129:9138   */\n      dup6\n        /* \"#utility.yul\":9125:9143   */\n      add\n        /* \"#utility.yul\":9112:9143   */\n      swap5\n      pop\n        /* \"#utility.yul\":8986:8990   */\n      0x20\n        /* \"#utility.yul\":8983:8984   */\n      dup2\n        /* \"#utility.yul\":8979:8991   */\n      add\n        /* \"#utility.yul\":8974:8991   */\n      swap1\n      pop\n        /* \"#utility.yul\":8949:9157   */\n      jump(tag_185)\n    tag_187:\n        /* \"#utility.yul\":9185:9191   */\n      dup7\n        /* \"#utility.yul\":9176:9183   */\n      dup4\n        /* \"#utility.yul\":9173:9192   */\n      lt\n        /* \"#utility.yul\":9170:9349   */\n      iszero\n      tag_188\n      jumpi\n        /* \"#utility.yul\":9243:9252   */\n      dup5\n        /* \"#utility.yul\":9238:9241   */\n      dup10\n        /* \"#utility.yul\":9234:9253   */\n      add\n        /* \"#utility.yul\":9228:9254   */\n      mload\n        /* \"#utility.yul\":9286:9334   */\n      tag_189\n        /* \"#utility.yul\":9328:9332   */\n      0x1f\n        /* \"#utility.yul\":9320:9326   */\n      dup10\n        /* \"#utility.yul\":9316:9333   */\n      and\n        /* \"#utility.yul\":9305:9314   */\n      dup3\n        /* \"#utility.yul\":9286:9334   */\n      tag_79\n      jump\t// in\n    tag_189:\n        /* \"#utility.yul\":9278:9284   */\n      dup4\n        /* \"#utility.yul\":9271:9335   */\n      sstore\n        /* \"#utility.yul\":9193:9349   */\n      pop\n        /* \"#utility.yul\":9170:9349   */\n    tag_188:\n        /* \"#utility.yul\":9395:9396   */\n      0x01\n        /* \"#utility.yul\":9391:9392   */\n      0x02\n        /* \"#utility.yul\":9383:9389   */\n      dup9\n        /* \"#utility.yul\":9379:9393   */\n      mul\n        /* \"#utility.yul\":9375:9397   */\n      add\n        /* \"#utility.yul\":9369:9373   */\n      dup9\n        /* \"#utility.yul\":9362:9398   */\n      sstore\n        /* \"#utility.yul\":8797:9408   */\n      pop\n      pop\n      pop\n        /* \"#utility.yul\":8760:9647   */\n    tag_180:\n      pop\n        /* \"#utility.yul\":8350:9653   */\n      pop\n      pop\n      pop\n        /* \"#utility.yul\":8258:9653   */\n      pop\n      pop\n      jump\t// out\n\n    auxdata: 0xa2646970667358221220db97e4eca92c45fec2ad07b0dc569f0109af83c6987c4601e9bb4ffab5f91fa064736f6c634300081e0033\n}\n",
				"bytecode": {
					"linkReferences": {},
					"object": "6080604052348015600e575f5ffd5b5061089b8061001c5f395ff3fe608060405234801561000f575f5ffd5b506004361061003f575f3560e01c8063098c2657146100435780632e64cec114610074578063ebdf86ca14610093575b5f5ffd5b61005d60048036038101906100589190610485565b6100af565b60405161006b92919061055b565b60405180910390f35b61007c6101f3565b60405161008a92919061055b565b60405180910390f35b6100ad60048036038101906100a89190610485565b610315565b005b606080835f90816100c09190610796565b5082600190816100d09190610796565b505f60018180546100e0906105bd565b80601f016020809104026020016040519081016040528092919081815260200182805461010c906105bd565b80156101575780601f1061012e57610100808354040283529160200191610157565b820191905f5260205f20905b81548152906001019060200180831161013a57829003601f168201915b5050505050915080805461016a906105bd565b80601f0160208091040260200160405190810160405280929190818152602001828054610196906105bd565b80156101e15780601f106101b8576101008083540402835291602001916101e1565b820191905f5260205f20905b8154815290600101906020018083116101c457829003601f168201915b50505050509050915091509250929050565b6060805f6001818054610205906105bd565b80601f0160208091040260200160405190810160405280929190818152602001828054610231906105bd565b801561027c5780601f106102535761010080835404028352916020019161027c565b820191905f5260205f20905b81548152906001019060200180831161025f57829003601f168201915b5050505050915080805461028f906105bd565b80601f01602080910402602001604051908101604052809291908181526020018280546102bb906105bd565b80156103065780601f106102dd57610100808354040283529160200191610306565b820191905f5260205f20905b8154815290600101906020018083116102e957829003601f168201915b50505050509050915091509091565b815f90816103239190610796565b5080600190816103339190610796565b505050565b5f604051905090565b5f5ffd5b5f5ffd5b5f5ffd5b5f5ffd5b5f601f19601f8301169050919050565b7f4e487b71000000000000000000000000000000000000000000000000000000005f52604160045260245ffd5b61039782610351565b810181811067ffffffffffffffff821117156103b6576103b5610361565b5b80604052505050565b5f6103c8610338565b90506103d4828261038e565b919050565b5f67ffffffffffffffff8211156103f3576103f2610361565b5b6103fc82610351565b9050602081019050919050565b828183375f83830152505050565b5f610429610424846103d9565b6103bf565b9050828152602081018484840111156104455761044461034d565b5b610450848285610409565b509392505050565b5f82601f83011261046c5761046b610349565b5b813561047c848260208601610417565b91505092915050565b5f5f6040838503121561049b5761049a610341565b5b5f83013567ffffffffffffffff8111156104b8576104b7610345565b5b6104c485828601610458565b925050602083013567ffffffffffffffff8111156104e5576104e4610345565b5b6104f185828601610458565b9150509250929050565b5f81519050919050565b5f82825260208201905092915050565b8281835e5f83830152505050565b5f61052d826104fb565b6105378185610505565b9350610547818560208601610515565b61055081610351565b840191505092915050565b5f6040820190508181035f8301526105738185610523565b905081810360208301526105878184610523565b90509392505050565b7f4e487b71000000000000000000000000000000000000000000000000000000005f52602260045260245ffd5b5f60028204905060018216806105d457607f821691505b6020821081036105e7576105e6610590565b5b50919050565b5f819050815f5260205f209050919050565b5f6020601f8301049050919050565b5f82821b905092915050565b5f600883026106497fffffffffffffffffffffffffffffffffffffffffffffffffffffffffffffffff8261060e565b610653868361060e565b95508019841693508086168417925050509392505050565b5f819050919050565b5f819050919050565b5f61069761069261068d8461066b565b610674565b61066b565b9050919050565b5f819050919050565b6106b08361067d565b6106c46106bc8261069e565b84845461061a565b825550505050565b5f5f905090565b6106db6106cc565b6106e68184846106a7565b505050565b5b81811015610709576106fe5f826106d3565b6001810190506106ec565b5050565b601f82111561074e5761071f816105ed565b610728846105ff565b81016020851015610737578190505b61074b610743856105ff565b8301826106eb565b50505b505050565b5f82821c905092915050565b5f61076e5f1984600802610753565b1980831691505092915050565b5f610786838361075f565b9150826002028217905092915050565b61079f826104fb565b67ffffffffffffffff8111156107b8576107b7610361565b5b6107c282546105bd565b6107cd82828561070d565b5f60209050601f8311600181146107fe575f84156107ec578287015190505b6107f6858261077b565b86555061085d565b601f19841661080c866105ed565b5f5b828110156108335784890151825560018201915060208501945060208101905061080e565b86831015610850578489015161084c601f89168261075f565b8355505b6001600288020188555050505b50505050505056fea2646970667358221220db97e4eca92c45fec2ad07b0dc569f0109af83c6987c4601e9bb4ffab5f91fa064736f6c634300081e0033",
					"opcodes": "PUSH1 0x80 PUSH1 0x40 MSTORE CALLVALUE DUP1 ISZERO PUSH1 0xE JUMPI PUSH0 PUSH0 REVERT JUMPDEST POP PUSH2 0x89B DUP1 PUSH2 0x1C PUSH0 CODECOPY PUSH0 RETURN INVALID PUSH1 0x80 PUSH1 0x40 MSTORE CALLVALUE DUP1 ISZERO PUSH2 0xF JUMPI PUSH0 PUSH0 REVERT JUMPDEST POP PUSH1 0x4 CALLDATASIZE LT PUSH2 0x3F JUMPI PUSH0 CALLDATALOAD PUSH1 0xE0 SHR DUP1 PUSH4 0x98C2657 EQ PUSH2 0x43 JUMPI DUP1 PUSH4 0x2E64CEC1 EQ PUSH2 0x74 JUMPI DUP1 PUSH4 0xEBDF86CA EQ PUSH2 0x93 JUMPI JUMPDEST PUSH0 PUSH0 REVERT JUMPDEST PUSH2 0x5D PUSH1 0x4 DUP1 CALLDATASIZE SUB DUP2 ADD SWAP1 PUSH2 0x58 SWAP2 SWAP1 PUSH2 0x485 JUMP JUMPDEST PUSH2 0xAF JUMP JUMPDEST PUSH1 0x40 MLOAD PUSH2 0x6B SWAP3 SWAP2 SWAP1 PUSH2 0x55B JUMP JUMPDEST PUSH1 0x40 MLOAD DUP1 SWAP2 SUB SWAP1 RETURN JUMPDEST PUSH2 0x7C PUSH2 0x1F3 JUMP JUMPDEST PUSH1 0x40 MLOAD PUSH2 0x8A SWAP3 SWAP2 SWAP1 PUSH2 0x55B JUMP JUMPDEST PUSH1 0x40 MLOAD DUP1 SWAP2 SUB SWAP1 RETURN JUMPDEST PUSH2 0xAD PUSH1 0x4 DUP1 CALLDATASIZE SUB DUP2 ADD SWAP1 PUSH2 0xA8 SWAP2 SWAP1 PUSH2 0x485 JUMP JUMPDEST PUSH2 0x315 JUMP JUMPDEST STOP JUMPDEST PUSH1 0x60 DUP1 DUP4 PUSH0 SWAP1 DUP2 PUSH2 0xC0 SWAP2 SWAP1 PUSH2 0x796 JUMP JUMPDEST POP DUP3 PUSH1 0x1 SWAP1 DUP2 PUSH2 0xD0 SWAP2 SWAP1 PUSH2 0x796 JUMP JUMPDEST POP PUSH0 PUSH1 0x1 DUP2 DUP1 SLOAD PUSH2 0xE0 SWAP1 PUSH2 0x5BD JUMP JUMPDEST DUP1 PUSH1 0x1F ADD PUSH1 0x20 DUP1 SWAP2 DIV MUL PUSH1 0x20 ADD PUSH1 0x40 MLOAD SWAP1 DUP2 ADD PUSH1 0x40 MSTORE DUP1 SWAP3 SWAP2 SWAP1 DUP2 DUP2 MSTORE PUSH1 0x20 ADD DUP3 DUP1 SLOAD PUSH2 0x10C SWAP1 PUSH2 0x5BD JUMP JUMPDEST DUP1 ISZERO PUSH2 0x157 JUMPI DUP1 PUSH1 0x1F LT PUSH2 0x12E JUMPI PUSH2 0x100 DUP1 DUP4 SLOAD DIV MUL DUP4 MSTORE SWAP2 PUSH1 0x20 ADD SWAP2 PUSH2 0x157 JUMP JUMPDEST DUP3 ADD SWAP2 SWAP1 PUSH0 MSTORE PUSH1 0x20 PUSH0 KECCAK256 SWAP1 JUMPDEST DUP2 SLOAD DUP2 MSTORE SWAP1 PUSH1 0x1 ADD SWAP1 PUSH1 0x20 ADD DUP1 DUP4 GT PUSH2 0x13A JUMPI DUP3 SWAP1 SUB PUSH1 0x1F AND DUP3 ADD SWAP2 JUMPDEST POP POP POP POP POP SWAP2 POP DUP1 DUP1 SLOAD PUSH2 0x16A SWAP1 PUSH2 0x5BD JUMP JUMPDEST DUP1 PUSH1 0x1F ADD PUSH1 0x20 DUP1 SWAP2 DIV MUL PUSH1 0x20 ADD PUSH1 0x40 MLOAD SWAP1 DUP2 ADD PUSH1 0x40 MSTORE DUP1 SWAP3 SWAP2 SWAP1 DUP2 DUP2 MSTORE PUSH1 0x20 ADD DUP3 DUP1 SLOAD PUSH2 0x196 SWAP1 PUSH2 0x5BD JUMP JUMPDEST DUP1 ISZERO PUSH2 0x1E1 JUMPI DUP1 PUSH1 0x1F LT PUSH2 0x1B8 JUMPI PUSH2 0x100 DUP1 DUP4 SLOAD DIV MUL DUP4 MSTORE SWAP2 PUSH1 0x20 ADD SWAP2 PUSH2 0x1E1 JUMP JUMPDEST DUP3 ADD SWAP2 SWAP1 PUSH0 MSTORE PUSH1 0x20 PUSH0 KECCAK256 SWAP1 JUMPDEST DUP2 SLOAD DUP2 MSTORE SWAP1 PUSH1 0x1 ADD SWAP1 PUSH1 0x20 ADD DUP1 DUP4 GT PUSH2 0x1C4 JUMPI DUP3 SWAP1 SUB PUSH1 0x1F AND DUP3 ADD SWAP2 JUMPDEST POP POP POP POP POP SWAP1 POP SWAP2 POP SWAP2 POP SWAP3 POP SWAP3 SWAP1 POP JUMP JUMPDEST PUSH1 0x60 DUP1 PUSH0 PUSH1 0x1 DUP2 DUP1 SLOAD PUSH2 0x205 SWAP1 PUSH2 0x5BD JUMP JUMPDEST DUP1 PUSH1 0x1F ADD PUSH1 0x20 DUP1 SWAP2 DIV MUL PUSH1 0x20 ADD PUSH1 0x40 MLOAD SWAP1 DUP2 ADD PUSH1 0x40 MSTORE DUP1 SWAP3 SWAP2 SWAP1 DUP2 DUP2 MSTORE PUSH1 0x20 ADD DUP3 DUP1 SLOAD PUSH2 0x231 SWAP1 PUSH2 0x5BD JUMP JUMPDEST DUP1 ISZERO PUSH2 0x27C JUMPI DUP1 PUSH1 0x1F LT PUSH2 0x253 JUMPI PUSH2 0x100 DUP1 DUP4 SLOAD DIV MUL DUP4 MSTORE SWAP2 PUSH1 0x20 ADD SWAP2 PUSH2 0x27C JUMP JUMPDEST DUP3 ADD SWAP2 SWAP1 PUSH0 MSTORE PUSH1 0x20 PUSH0 KECCAK256 SWAP1 JUMPDEST DUP2 SLOAD DUP2 MSTORE SWAP1 PUSH1 0x1 ADD SWAP1 PUSH1 0x20 ADD DUP1 DUP4 GT PUSH2 0x25F JUMPI DUP3 SWAP1 SUB PUSH1 0x1F AND DUP3 ADD SWAP2 JUMPDEST POP POP POP POP POP SWAP2 POP DUP1 DUP1 SLOAD PUSH2 0x28F SWAP1 PUSH2 0x5BD JUMP JUMPDEST DUP1 PUSH1 0x1F ADD PUSH1 0x20 DUP1 SWAP2 DIV MUL PUSH1 0x20 ADD PUSH1 0x40 MLOAD SWAP1 DUP2 ADD PUSH1 0x40 MSTORE DUP1 SWAP3 SWAP2 SWAP1 DUP2 DUP2 MSTORE PUSH1 0x20 ADD DUP3 DUP1 SLOAD PUSH2 0x2BB SWAP1 PUSH2 0x5BD JUMP JUMPDEST DUP1 ISZERO PUSH2 0x306 JUMPI DUP1 PUSH1 0x1F LT PUSH2 0x2DD JUMPI PUSH2 0x100 DUP1 DUP4 SLOAD DIV MUL DUP4 MSTORE SWAP2 PUSH1 0x20 ADD SWAP2 PUSH2 0x306 JUMP JUMPDEST DUP3 ADD SWAP2 SWAP1 PUSH0 MSTORE PUSH1 0x20 PUSH0 KECCAK256 SWAP1 JUMPDEST DUP2 SLOAD DUP2 MSTORE SWAP1 PUSH1 0x1 ADD SWAP1 PUSH1 0x20 ADD DUP1 DUP4 GT PUSH2 0x2E9 JUMPI DUP3 SWAP1 SUB PUSH1 0x1F AND DUP3 ADD SWAP2 JUMPDEST POP POP POP POP POP SWAP1 POP SWAP2 POP SWAP2 POP SWAP1 SWAP2 JUMP JUMPDEST DUP2 PUSH0 SWAP1 DUP2 PUSH2 0x323 SWAP2 SWAP1 PUSH2 0x796 JUMP JUMPDEST POP DUP1 PUSH1 0x1 SWAP1 DUP2 PUSH2 0x333 SWAP2 SWAP1 PUSH2 0x796 JUMP JUMPDEST POP POP POP JUMP JUMPDEST PUSH0 PUSH1 0x40 MLOAD SWAP1 POP SWAP1 JUMP JUMPDEST PUSH0 PUSH0 REVERT JUMPDEST PUSH0 PUSH0 REVERT JUMPDEST PUSH0 PUSH0 REVERT JUMPDEST PUSH0 PUSH0 REVERT JUMPDEST PUSH0 PUSH1 0x1F NOT PUSH1 0x1F DUP4 ADD AND SWAP1 POP SWAP2 SWAP1 POP JUMP JUMPDEST PUSH32 0x4E487B7100000000000000000000000000000000000000000000000000000000 PUSH0 MSTORE PUSH1 0x41 PUSH1 0x4 MSTORE PUSH1 0x24 PUSH0 REVERT JUMPDEST PUSH2 0x397 DUP3 PUSH2 0x351 JUMP JUMPDEST DUP2 ADD DUP2 DUP2 LT PUSH8 0xFFFFFFFFFFFFFFFF DUP3 GT OR ISZERO PUSH2 0x3B6 JUMPI PUSH2 0x3B5 PUSH2 0x361 JUMP JUMPDEST JUMPDEST DUP1 PUSH1 0x40 MSTORE POP POP POP JUMP JUMPDEST PUSH0 PUSH2 0x3C8 PUSH2 0x338 JUMP JUMPDEST SWAP1 POP PUSH2 0x3D4 DUP3 DUP3 PUSH2 0x38E JUMP JUMPDEST SWAP2 SWAP1 POP JUMP JUMPDEST PUSH0 PUSH8 0xFFFFFFFFFFFFFFFF DUP3 GT ISZERO PUSH2 0x3F3 JUMPI PUSH2 0x3F2 PUSH2 0x361 JUMP JUMPDEST JUMPDEST PUSH2 0x3FC DUP3 PUSH2 0x351 JUMP JUMPDEST SWAP1 POP PUSH1 0x20 DUP2 ADD SWAP1 POP SWAP2 SWAP1 POP JUMP JUMPDEST DUP3 DUP2 DUP4 CALLDATACOPY PUSH0 DUP4 DUP4 ADD MSTORE POP POP POP JUMP JUMPDEST PUSH0 PUSH2 0x429 PUSH2 0x424 DUP5 PUSH2 0x3D9 JUMP JUMPDEST PUSH2 0x3BF JUMP JUMPDEST SWAP1 POP DUP3 DUP2 MSTORE PUSH1 0x20 DUP2 ADD DUP5 DUP5 DUP5 ADD GT ISZERO PUSH2 0x445 JUMPI PUSH2 0x444 PUSH2 0x34D JUMP JUMPDEST JUMPDEST PUSH2 0x450 DUP5 DUP3 DUP6 PUSH2 0x409 JUMP JUMPDEST POP SWAP4 SWAP3 POP POP POP JUMP JUMPDEST PUSH0 DUP3 PUSH1 0x1F DUP4 ADD SLT PUSH2 0x46C JUMPI PUSH2 0x46B PUSH2 0x349 JUMP JUMPDEST JUMPDEST DUP2 CALLDATALOAD PUSH2 0x47C DUP5 DUP3 PUSH1 0x20 DUP7 ADD PUSH2 0x417 JUMP JUMPDEST SWAP2 POP POP SWAP3 SWAP2 POP POP JUMP JUMPDEST PUSH0 PUSH0 PUSH1 0x40 DUP4 DUP6 SUB SLT ISZERO PUSH2 0x49B JUMPI PUSH2 0x49A PUSH2 0x341 JUMP JUMPDEST JUMPDEST PUSH0 DUP4 ADD CALLDATALOAD PUSH8 0xFFFFFFFFFFFFFFFF DUP2 GT ISZERO PUSH2 0x4B8 JUMPI PUSH2 0x4B7 PUSH2 0x345 JUMP JUMPDEST JUMPDEST PUSH2 0x4C4 DUP6 DUP3 DUP7 ADD PUSH2 0x458 JUMP JUMPDEST SWAP3 POP POP PUSH1 0x20 DUP4 ADD CALLDATALOAD PUSH8 0xFFFFFFFFFFFFFFFF DUP2 GT ISZERO PUSH2 0x4E5 JUMPI PUSH2 0x4E4 PUSH2 0x345 JUMP JUMPDEST JUMPDEST PUSH2 0x4F1 DUP6 DUP3 DUP7 ADD PUSH2 0x458 JUMP JUMPDEST SWAP2 POP POP SWAP3 POP SWAP3 SWAP1 POP JUMP JUMPDEST PUSH0 DUP2 MLOAD SWAP1 POP SWAP2 SWAP1 POP JUMP JUMPDEST PUSH0 DUP3 DUP3 MSTORE PUSH1 0x20 DUP3 ADD SWAP1 POP SWAP3 SWAP2 POP POP JUMP JUMPDEST DUP3 DUP2 DUP4 MCOPY PUSH0 DUP4 DUP4 ADD MSTORE POP POP POP JUMP JUMPDEST PUSH0 PUSH2 0x52D DUP3 PUSH2 0x4FB JUMP JUMPDEST PUSH2 0x537 DUP2 DUP6 PUSH2 0x505 JUMP JUMPDEST SWAP4 POP PUSH2 0x547 DUP2 DUP6 PUSH1 0x20 DUP7 ADD PUSH2 0x515 JUMP JUMPDEST PUSH2 0x550 DUP2 PUSH2 0x351 JUMP JUMPDEST DUP5 ADD SWAP2 POP POP SWAP3 SWAP2 POP POP JUMP JUMPDEST PUSH0 PUSH1 0x40 DUP3 ADD SWAP1 POP DUP2 DUP2 SUB PUSH0 DUP4 ADD MSTORE PUSH2 0x573 DUP2 DUP6 PUSH2 0x523 JUMP JUMPDEST SWAP1 POP DUP2 DUP2 SUB PUSH1 0x20 DUP4 ADD MSTORE PUSH2 0x587 DUP2 DUP5 PUSH2 0x523 JUMP JUMPDEST SWAP1 POP SWAP4 SWAP3 POP POP POP JUMP JUMPDEST PUSH32 0x4E487B7100000000000000000000000000000000000000000000000000000000 PUSH0 MSTORE PUSH1 0x22 PUSH1 0x4 MSTORE PUSH1 0x24 PUSH0 REVERT JUMPDEST PUSH0 PUSH1 0x2 DUP3 DIV SWAP1 POP PUSH1 0x1 DUP3 AND DUP1 PUSH2 0x5D4 JUMPI PUSH1 0x7F DUP3 AND SWAP2 POP JUMPDEST PUSH1 0x20 DUP3 LT DUP2 SUB PUSH2 0x5E7 JUMPI PUSH2 0x5E6 PUSH2 0x590 JUMP JUMPDEST JUMPDEST POP SWAP2 SWAP1 POP JUMP JUMPDEST PUSH0 DUP2 SWAP1 POP DUP2 PUSH0 MSTORE PUSH1 0x20 PUSH0 KECCAK256 SWAP1 POP SWAP2 SWAP1 POP JUMP JUMPDEST PUSH0 PUSH1 0x20 PUSH1 0x1F DUP4 ADD DIV SWAP1 POP SWAP2 SWAP1 POP JUMP JUMPDEST PUSH0 DUP3 DUP3 SHL SWAP1 POP SWAP3 SWAP2 POP POP JUMP JUMPDEST PUSH0 PUSH1 0x8 DUP4 MUL PUSH2 0x649 PUSH32 0xFFFFFFFFFFFFFFFFFFFFFFFFFFFFFFFFFFFFFFFFFFFFFFFFFFFFFFFFFFFFFFFF DUP3 PUSH2 0x60E JUMP JUMPDEST PUSH2 0x653 DUP7 DUP4 PUSH2 0x60E JUMP JUMPDEST SWAP6 POP DUP1 NOT DUP5 AND SWAP4 POP DUP1 DUP7 AND DUP5 OR SWAP3 POP POP POP SWAP4 SWAP3 POP POP POP JUMP JUMPDEST PUSH0 DUP2 SWAP1 POP SWAP2 SWAP1 POP JUMP JUMPDEST PUSH0 DUP2 SWAP1 POP SWAP2 SWAP1 POP JUMP JUMPDEST PUSH0 PUSH2 0x697 PUSH2 0x692 PUSH2 0x68D DUP5 PUSH2 0x66B JUMP JUMPDEST PUSH2 0x674 JUMP JUMPDEST PUSH2 0x66B JUMP JUMPDEST SWAP1 POP SWAP2 SWAP1 POP JUMP JUMPDEST PUSH0 DUP2 SWAP1 POP SWAP2 SWAP1 POP JUMP JUMPDEST PUSH2 0x6B0 DUP4 PUSH2 0x67D JUMP JUMPDEST PUSH2 0x6C4 PUSH2 0x6BC DUP3 PUSH2 0x69E JUMP JUMPDEST DUP5 DUP5 SLOAD PUSH2 0x61A JUMP JUMPDEST DUP3 SSTORE POP POP POP POP JUMP JUMPDEST PUSH0 PUSH0 SWAP1 POP SWAP1 JUMP JUMPDEST PUSH2 0x6DB PUSH2 0x6CC JUMP JUMPDEST PUSH2 0x6E6 DUP2 DUP5 DUP5 PUSH2 0x6A7 JUMP JUMPDEST POP POP POP JUMP JUMPDEST JUMPDEST DUP2 DUP2 LT ISZERO PUSH2 0x709 JUMPI PUSH2 0x6FE PUSH0 DUP3 PUSH2 0x6D3 JUMP JUMPDEST PUSH1 0x1 DUP2 ADD SWAP1 POP PUSH2 0x6EC JUMP JUMPDEST POP POP JUMP JUMPDEST PUSH1 0x1F DUP3 GT ISZERO PUSH2 0x74E JUMPI PUSH2 0x71F DUP2 PUSH2 0x5ED JUMP JUMPDEST PUSH2 0x728 DUP5 PUSH2 0x5FF JUMP JUMPDEST DUP2 ADD PUSH1 0x20 DUP6 LT ISZERO PUSH2 0x737 JUMPI DUP2 SWAP1 POP JUMPDEST PUSH2 0x74B PUSH2 0x743 DUP6 PUSH2 0x5FF JUMP JUMPDEST DUP4 ADD DUP3 PUSH2 0x6EB JUMP JUMPDEST POP POP JUMPDEST POP POP POP JUMP JUMPDEST PUSH0 DUP3 DUP3 SHR SWAP1 POP SWAP3 SWAP2 POP POP JUMP JUMPDEST PUSH0 PUSH2 0x76E PUSH0 NOT DUP5 PUSH1 0x8 MUL PUSH2 0x753 JUMP JUMPDEST NOT DUP1 DUP4 AND SWAP2 POP POP SWAP3 SWAP2 POP POP JUMP JUMPDEST PUSH0 PUSH2 0x786 DUP4 DUP4 PUSH2 0x75F JUMP JUMPDEST SWAP2 POP DUP3 PUSH1 0x2 MUL DUP3 OR SWAP1 POP SWAP3 SWAP2 POP POP JUMP JUMPDEST PUSH2 0x79F DUP3 PUSH2 0x4FB JUMP JUMPDEST PUSH8 0xFFFFFFFFFFFFFFFF DUP2 GT ISZERO PUSH2 0x7B8 JUMPI PUSH2 0x7B7 PUSH2 0x361 JUMP JUMPDEST JUMPDEST PUSH2 0x7C2 DUP3 SLOAD PUSH2 0x5BD JUMP JUMPDEST PUSH2 0x7CD DUP3 DUP3 DUP6 PUSH2 0x70D JUMP JUMPDEST PUSH0 PUSH1 0x20 SWAP1 POP PUSH1 0x1F DUP4 GT PUSH1 0x1 DUP2 EQ PUSH2 0x7FE JUMPI PUSH0 DUP5 ISZERO PUSH2 0x7EC JUMPI DUP3 DUP8 ADD MLOAD SWAP1 POP JUMPDEST PUSH2 0x7F6 DUP6 DUP3 PUSH2 0x77B JUMP JUMPDEST DUP7 SSTORE POP PUSH2 0x85D JUMP JUMPDEST PUSH1 0x1F NOT DUP5 AND PUSH2 0x80C DUP7 PUSH2 0x5ED JUMP JUMPDEST PUSH0 JUMPDEST DUP3 DUP2 LT ISZERO PUSH2 0x833 JUMPI DUP5 DUP10 ADD MLOAD DUP3 SSTORE PUSH1 0x1 DUP3 ADD SWAP2 POP PUSH1 0x20 DUP6 ADD SWAP5 POP PUSH1 0x20 DUP2 ADD SWAP1 POP PUSH2 0x80E JUMP JUMPDEST DUP7 DUP4 LT ISZERO PUSH2 0x850 JUMPI DUP5 DUP10 ADD MLOAD PUSH2 0x84C PUSH1 0x1F DUP10 AND DUP3 PUSH2 0x75F JUMP JUMPDEST DUP4 SSTORE POP JUMPDEST PUSH1 0x1 PUSH1 0x2 DUP9 MUL ADD DUP9 SSTORE POP POP POP JUMPDEST POP POP POP POP POP POP JUMP INVALID LOG2 PUSH5 0x6970667358 0x22 SLT KECCAK256 0xDB SWAP8 RETF EOFCREATE 0xA9 0x2C GASLIMIT INVALID 0xC2 0xAD SMOD 0xB0 0xDC JUMP SWAP16 ADD MULMOD 0xAF DUP4 0xC6 SWAP9 PUSH29 0x4601E9BB4FFAB5F91FA064736F6C634300081E00330000000000000000 "
				},
				"gasEstimates": {
					"creation": {
						"codeDepositCost": "440600",
						"executionCost": "472",
						"totalCost": "441072"
					},
					"external": {
						"add(string,string)": "infinite",
						"addAndRetrieve(string,string)": "infinite",
						"retrieve()": "infinite"
					}
				},
				"methodIdentifiers": {
					"add(string,string)": "ebdf86ca",
					"addAndRetrieve(string,string)": "098c2657",
					"retrieve()": "2e64cec1"
				}
			},
			"storageLayout": {
				"storage": [
					{
						"astId": 3,
						"contract": "submissions/Vera/day2_userInfo.sol:PersonalInfo",
						"label": "name",
						"offset": 0,
						"slot": "0",
						"type": "t_string_storage"
					},
					{
						"astId": 5,
						"contract": "submissions/Vera/day2_userInfo.sol:PersonalInfo",
						"label": "bio",
						"offset": 0,
						"slot": "1",
						"type": "t_string_storage"
					}
				],
				"types": {
					"t_string_storage": {
						"encoding": "bytes",
						"label": "string",
						"numberOfBytes": "32"
					}
				}
			},
			"userdoc": {
				"kind": "user",
				"methods": {},
				"version": 1
			}
		}
	}
}