{
	"submissions/0xFancy/day8.sol": {
		"TipJar": {
			"abi": [
				{
					"inputs": [],
					"stateMutability": "nonpayable",
					"type": "constructor"
				},
				{
					"inputs": [
						{
							"internalType": "string",
							"name": "_currencyCode",
							"type": "string"
						},
						{
							"internalType": "uint256",
							"name": "_rateToEth",
							"type": "uint256"
						}
					],
					"name": "addCurrency",
					"outputs": [],
					"stateMutability": "nonpayable",
					"type": "function"
				},
				{
					"inputs": [
						{
							"internalType": "string",
							"name": "",
							"type": "string"
						}
					],
					"name": "conversionRates",
					"outputs": [
						{
							"internalType": "uint256",
							"name": "",
							"type": "uint256"
						}
					],
					"stateMutability": "view",
					"type": "function"
				},
				{
					"inputs": [
						{
							"internalType": "string",
							"name": "_currencyCode",
							"type": "string"
						},
						{
							"internalType": "uint256",
							"name": "_amount",
							"type": "uint256"
						}
					],
					"name": "convertToEth",
					"outputs": [
						{
							"internalType": "uint256",
							"name": "",
							"type": "uint256"
						}
					],
					"stateMutability": "view",
					"type": "function"
				},
				{
					"inputs": [],
					"name": "getContractBalance",
					"outputs": [
						{
							"internalType": "uint256",
							"name": "",
							"type": "uint256"
						}
					],
					"stateMutability": "view",
					"type": "function"
				},
				{
					"inputs": [
						{
							"internalType": "string",
							"name": "_currencyCode",
							"type": "string"
						}
					],
					"name": "getConversionRate",
					"outputs": [
						{
							"internalType": "uint256",
							"name": "",
							"type": "uint256"
						}
					],
					"stateMutability": "view",
					"type": "function"
				},
				{
					"inputs": [],
					"name": "getSupportedCurrencies",
					"outputs": [
						{
							"internalType": "string[]",
							"name": "",
							"type": "string[]"
						}
					],
					"stateMutability": "view",
					"type": "function"
				},
				{
					"inputs": [
						{
							"internalType": "string",
							"name": "_currencyCode",
							"type": "string"
						}
					],
					"name": "getTipPerCurrency",
					"outputs": [
						{
							"internalType": "uint256",
							"name": "",
							"type": "uint256"
						}
					],
					"stateMutability": "view",
					"type": "function"
				},
				{
					"inputs": [
						{
							"internalType": "address",
							"name": "_tipper",
							"type": "address"
						}
					],
					"name": "getTipperContributions",
					"outputs": [
						{
							"internalType": "uint256",
							"name": "",
							"type": "uint256"
						}
					],
					"stateMutability": "view",
					"type": "function"
				},
				{
					"inputs": [],
					"name": "getTotalTipsReceived",
					"outputs": [
						{
							"internalType": "uint256",
							"name": "",
							"type": "uint256"
						}
					],
					"stateMutability": "view",
					"type": "function"
				},
				{
					"inputs": [],
					"name": "owner",
					"outputs": [
						{
							"internalType": "address",
							"name": "",
							"type": "address"
						}
					],
					"stateMutability": "view",
					"type": "function"
				},
				{
					"inputs": [
						{
							"internalType": "address",
							"name": "_newOwner",
							"type": "address"
						}
					],
					"name": "ransferOwnerShip",
					"outputs": [],
					"stateMutability": "nonpayable",
					"type": "function"
				},
				{
					"inputs": [
						{
							"internalType": "uint256",
							"name": "",
							"type": "uint256"
						}
					],
					"name": "supportCurrencies",
					"outputs": [
						{
							"internalType": "string",
							"name": "",
							"type": "string"
						}
					],
					"stateMutability": "view",
					"type": "function"
				},
				{
					"inputs": [
						{
							"internalType": "string",
							"name": "_currencyCode",
							"type": "string"
						},
						{
							"internalType": "uint256",
							"name": "_amount",
							"type": "uint256"
						}
					],
					"name": "tipInCurrency",
					"outputs": [],
					"stateMutability": "payable",
					"type": "function"
				},
				{
					"inputs": [],
					"name": "tipInEth",
					"outputs": [],
					"stateMutability": "payable",
					"type": "function"
				},
				{
					"inputs": [
						{
							"internalType": "address",
							"name": "",
							"type": "address"
						}
					],
					"name": "tipperContributions",
					"outputs": [
						{
							"internalType": "uint256",
							"name": "",
							"type": "uint256"
						}
					],
					"stateMutability": "view",
					"type": "function"
				},
				{
					"inputs": [
						{
							"internalType": "string",
							"name": "",
							"type": "string"
						}
					],
					"name": "tipsPerCurrency",
					"outputs": [
						{
							"internalType": "uint256",
							"name": "",
							"type": "uint256"
						}
					],
					"stateMutability": "view",
					"type": "function"
				},
				{
					"inputs": [],
					"name": "totalTipsReceived",
					"outputs": [
						{
							"internalType": "uint256",
							"name": "",
							"type": "uint256"
						}
					],
					"stateMutability": "view",
					"type": "function"
				},
				{
					"inputs": [],
					"name": "withDrawTips",
					"outputs": [],
					"stateMutability": "nonpayable",
					"type": "function"
				}
			],
			"devdoc": {
				"kind": "dev",
				"methods": {},
				"version": 1
			},
			"evm": {
				"assembly": "    /* \"submissions/0xFancy/day8.sol\":57:3704  contract TipJar{... */\n  mstore(0x40, 0x80)\n    /* \"submissions/0xFancy/day8.sol\":1061:1279  constructor() {... */\n  callvalue\n  dup1\n  iszero\n  tag_1\n  jumpi\n  revert(0x00, 0x00)\ntag_1:\n  pop\n    /* \"submissions/0xFancy/day8.sol\":1093:1103  msg.sender */\n  caller\n    /* \"submissions/0xFancy/day8.sol\":1085:1090  owner */\n  0x00\n  0x00\n    /* \"submissions/0xFancy/day8.sol\":1085:1103  owner = msg.sender */\n  0x0100\n  exp\n  dup2\n  sload\n  dup2\n  0xffffffffffffffffffffffffffffffffffffffff\n  mul\n  not\n  and\n  swap1\n  dup4\n  0xffffffffffffffffffffffffffffffffffffffff\n  and\n  mul\n  or\n  swap1\n  sstore\n  pop\n    /* \"submissions/0xFancy/day8.sol\":1122:1152  addCurrency(\"USD\", 5 * 10**14) */\n  tag_4\n  mload(0x40)\n  dup1\n  0x40\n  add\n  0x40\n  mstore\n  dup1\n  0x03\n  dup2\n  mstore\n  0x20\n  add\n  0x5553440000000000000000000000000000000000000000000000000000000000\n  dup2\n  mstore\n  pop\n    /* \"submissions/0xFancy/day8.sol\":1141:1151  5 * 10**14 */\n  0x01c6bf52634000\n    /* \"submissions/0xFancy/day8.sol\":1122:1133  addCurrency */\n  shl(0x20, tag_5)\n    /* \"submissions/0xFancy/day8.sol\":1122:1152  addCurrency(\"USD\", 5 * 10**14) */\n  0x20\n  shr\n  jump\t// in\ntag_4:\n    /* \"submissions/0xFancy/day8.sol\":1162:1192  addCurrency(\"EUR\", 6 * 10**14) */\n  tag_6\n  mload(0x40)\n  dup1\n  0x40\n  add\n  0x40\n  mstore\n  dup1\n  0x03\n  dup2\n  mstore\n  0x20\n  add\n  0x4555520000000000000000000000000000000000000000000000000000000000\n  dup2\n  mstore\n  pop\n    /* \"submissions/0xFancy/day8.sol\":1181:1191  6 * 10**14 */\n  0x0221b262dd8000\n    /* \"submissions/0xFancy/day8.sol\":1162:1173  addCurrency */\n  shl(0x20, tag_5)\n    /* \"submissions/0xFancy/day8.sol\":1162:1192  addCurrency(\"EUR\", 6 * 10**14) */\n  0x20\n  shr\n  jump\t// in\ntag_6:\n    /* \"submissions/0xFancy/day8.sol\":1202:1232  addCurrency(\"JPY\", 4 * 10**12) */\n  tag_7\n  mload(0x40)\n  dup1\n  0x40\n  add\n  0x40\n  mstore\n  dup1\n  0x03\n  dup2\n  mstore\n  0x20\n  add\n  0x4a50590000000000000000000000000000000000000000000000000000000000\n  dup2\n  mstore\n  pop\n    /* \"submissions/0xFancy/day8.sol\":1221:1231  4 * 10**12 */\n  0x03a352944000\n    /* \"submissions/0xFancy/day8.sol\":1202:1213  addCurrency */\n  shl(0x20, tag_5)\n    /* \"submissions/0xFancy/day8.sol\":1202:1232  addCurrency(\"JPY\", 4 * 10**12) */\n  0x20\n  shr\n  jump\t// in\ntag_7:\n    /* \"submissions/0xFancy/day8.sol\":1242:1272  addCurrency(\"GBP\", 7 * 10**14) */\n  tag_8\n  mload(0x40)\n  dup1\n  0x40\n  add\n  0x40\n  mstore\n  dup1\n  0x03\n  dup2\n  mstore\n  0x20\n  add\n  0x4742500000000000000000000000000000000000000000000000000000000000\n  dup2\n  mstore\n  pop\n    /* \"submissions/0xFancy/day8.sol\":1261:1271  7 * 10**14 */\n  0x027ca57357c000\n    /* \"submissions/0xFancy/day8.sol\":1242:1253  addCurrency */\n  shl(0x20, tag_5)\n    /* \"submissions/0xFancy/day8.sol\":1242:1272  addCurrency(\"GBP\", 7 * 10**14) */\n  0x20\n  shr\n  jump\t// in\ntag_8:\n    /* \"submissions/0xFancy/day8.sol\":57:3704  contract TipJar{... */\n  jump(tag_9)\n    /* \"submissions/0xFancy/day8.sol\":471:1056  function addCurrency(string memory _currencyCode, uint256 _rateToEth) public onlyOwner{... */\ntag_5:\n    /* \"submissions/0xFancy/day8.sol\":401:406  owner */\n  0x00\n  0x00\n  swap1\n  sload\n  swap1\n  0x0100\n  exp\n  swap1\n  div\n  0xffffffffffffffffffffffffffffffffffffffff\n  and\n    /* \"submissions/0xFancy/day8.sol\":387:406  msg.sender == owner */\n  0xffffffffffffffffffffffffffffffffffffffff\n  and\n    /* \"submissions/0xFancy/day8.sol\":387:397  msg.sender */\n  caller\n    /* \"submissions/0xFancy/day8.sol\":387:406  msg.sender == owner */\n  0xffffffffffffffffffffffffffffffffffffffff\n  and\n  eq\n    /* \"submissions/0xFancy/day8.sol\":379:445  require(msg.sender == owner, \"Only owner can perform this action\") */\n  tag_11\n  jumpi\n  mload(0x40)\n  0x08c379a000000000000000000000000000000000000000000000000000000000\n  dup2\n  mstore\n  0x04\n  add\n  tag_12\n  swap1\n  tag_13\n  jump\t// in\ntag_12:\n  mload(0x40)\n  dup1\n  swap2\n  sub\n  swap1\n  revert\ntag_11:\n    /* \"submissions/0xFancy/day8.sol\":588:589  0 */\n  0x00\n    /* \"submissions/0xFancy/day8.sol\":575:585  _rateToEth */\n  dup2\n    /* \"submissions/0xFancy/day8.sol\":575:589  _rateToEth > 0 */\n  gt\n    /* \"submissions/0xFancy/day8.sol\":567:631  require(_rateToEth > 0,\"Converion rate must be greater than 0.\") */\n  tag_15\n  jumpi\n  mload(0x40)\n  0x08c379a000000000000000000000000000000000000000000000000000000000\n  dup2\n  mstore\n  0x04\n  add\n  tag_16\n  swap1\n  tag_17\n  jump\t// in\ntag_16:\n  mload(0x40)\n  dup1\n  swap2\n  sub\n  swap1\n  revert\ntag_15:\n    /* \"submissions/0xFancy/day8.sol\":641:660  bool currenctExists */\n  0x00\n    /* \"submissions/0xFancy/day8.sol\":663:668  false */\n  0x00\n    /* \"submissions/0xFancy/day8.sol\":641:668  bool currenctExists = false */\n  swap1\n  pop\n    /* \"submissions/0xFancy/day8.sol\":683:689  uint i */\n  0x00\n    /* \"submissions/0xFancy/day8.sol\":692:693  0 */\n  0x00\n    /* \"submissions/0xFancy/day8.sol\":683:693  uint i = 0 */\n  swap1\n  pop\n    /* \"submissions/0xFancy/day8.sol\":678:1051  for (uint i = 0; i < supportCurrencies.length; i++){... */\ntag_18:\n    /* \"submissions/0xFancy/day8.sol\":699:716  supportCurrencies */\n  0x02\n    /* \"submissions/0xFancy/day8.sol\":699:723  supportCurrencies.length */\n  dup1\n  sload\n  swap1\n  pop\n    /* \"submissions/0xFancy/day8.sol\":695:696  i */\n  dup2\n    /* \"submissions/0xFancy/day8.sol\":695:723  i < supportCurrencies.length */\n  lt\n    /* \"submissions/0xFancy/day8.sol\":678:1051  for (uint i = 0; i < supportCurrencies.length; i++){... */\n  iszero\n  tag_19\n  jumpi\n    /* \"submissions/0xFancy/day8.sol\":805:818  _currencyCode */\n  dup4\n    /* \"submissions/0xFancy/day8.sol\":789:820  keccak256(bytes(_currencyCode)) */\n  dup1\n  mload\n  swap1\n  0x20\n  add\n  keccak256\n    /* \"submissions/0xFancy/day8.sol\":762:779  supportCurrencies */\n  0x02\n    /* \"submissions/0xFancy/day8.sol\":780:781  i */\n  dup3\n    /* \"submissions/0xFancy/day8.sol\":762:782  supportCurrencies[i] */\n  dup2\n  sload\n  dup2\n  lt\n  tag_21\n  jumpi\n  tag_22\n  tag_23\n  jump\t// in\ntag_22:\ntag_21:\n  swap1\n  0x00\n  mstore\n  keccak256(0x00, 0x20)\n  add\n    /* \"submissions/0xFancy/day8.sol\":746:785  keccak256(bytes(supportCurrencies[i]) ) */\n  mload(0x40)\n  tag_25\n  swap2\n  swap1\n  tag_26\n  jump\t// in\ntag_25:\n  mload(0x40)\n  dup1\n  swap2\n  sub\n  swap1\n  keccak256\n    /* \"submissions/0xFancy/day8.sol\":746:820  keccak256(bytes(supportCurrencies[i]) ) == keccak256(bytes(_currencyCode)) */\n  sub\n    /* \"submissions/0xFancy/day8.sol\":743:898  if(keccak256(bytes(supportCurrencies[i]) ) == keccak256(bytes(_currencyCode))){... */\n  tag_27\n  jumpi\n    /* \"submissions/0xFancy/day8.sol\":856:860  true */\n  0x01\n    /* \"submissions/0xFancy/day8.sol\":839:860  currenctExists = true */\n  swap2\n  pop\n    /* \"submissions/0xFancy/day8.sol\":878:883  break */\n  jump(tag_19)\n    /* \"submissions/0xFancy/day8.sol\":743:898  if(keccak256(bytes(supportCurrencies[i]) ) == keccak256(bytes(_currencyCode))){... */\ntag_27:\n    /* \"submissions/0xFancy/day8.sol\":911:925  currenctExists */\n  dup2\n    /* \"submissions/0xFancy/day8.sol\":907:988  if(!currenctExists){... */\n  tag_28\n  jumpi\n    /* \"submissions/0xFancy/day8.sol\":940:957  supportCurrencies */\n  0x02\n    /* \"submissions/0xFancy/day8.sol\":963:976  _currencyCode */\n  dup5\n    /* \"submissions/0xFancy/day8.sol\":940:977  supportCurrencies.push(_currencyCode) */\n  swap1\n  dup1\n  0x01\n  dup2\n  sload\n  add\n  dup1\n  dup3\n  sstore\n  dup1\n  swap2\n  pop\n  pop\n  0x01\n  swap1\n  sub\n  swap1\n  0x00\n  mstore\n  keccak256(0x00, 0x20)\n  add\n  0x00\n  swap1\n  swap2\n  swap1\n  swap2\n  swap1\n  swap2\n  pop\n  swap1\n  dup2\n  tag_30\n  swap2\n  swap1\n  tag_31\n  jump\t// in\ntag_30:\n  pop\n    /* \"submissions/0xFancy/day8.sol\":907:988  if(!currenctExists){... */\ntag_28:\n    /* \"submissions/0xFancy/day8.sol\":1030:1040  _rateToEth */\n  dup3\n    /* \"submissions/0xFancy/day8.sol\":997:1012  conversionRates */\n  0x01\n    /* \"submissions/0xFancy/day8.sol\":1013:1026  _currencyCode */\n  dup6\n    /* \"submissions/0xFancy/day8.sol\":997:1027  conversionRates[_currencyCode] */\n  mload(0x40)\n  tag_32\n  swap2\n  swap1\n  tag_33\n  jump\t// in\ntag_32:\n  swap1\n  dup2\n  mstore\n  0x20\n  add\n  mload(0x40)\n  dup1\n  swap2\n  sub\n  swap1\n  keccak256\n    /* \"submissions/0xFancy/day8.sol\":997:1040  conversionRates[_currencyCode] = _rateToEth */\n  dup2\n  swap1\n  sstore\n  pop\n    /* \"submissions/0xFancy/day8.sol\":725:728  i++ */\n  dup1\n  dup1\n  0x01\n  add\n  swap2\n  pop\n  pop\n    /* \"submissions/0xFancy/day8.sol\":678:1051  for (uint i = 0; i < supportCurrencies.length; i++){... */\n  jump(tag_18)\ntag_19:\n  pop\n    /* \"submissions/0xFancy/day8.sol\":557:1056  {... */\n  pop\n    /* \"submissions/0xFancy/day8.sol\":471:1056  function addCurrency(string memory _currencyCode, uint256 _rateToEth) public onlyOwner{... */\n  pop\n  pop\n  jump\t// out\n    /* \"#utility.yul\":7:176   */\ntag_34:\n    /* \"#utility.yul\":91:102   */\n  0x00\n    /* \"#utility.yul\":125:131   */\n  dup3\n    /* \"#utility.yul\":120:123   */\n  dup3\n    /* \"#utility.yul\":113:132   */\n  mstore\n    /* \"#utility.yul\":165:169   */\n  0x20\n    /* \"#utility.yul\":160:163   */\n  dup3\n    /* \"#utility.yul\":156:170   */\n  add\n    /* \"#utility.yul\":141:170   */\n  swap1\n  pop\n    /* \"#utility.yul\":7:176   */\n  swap3\n  swap2\n  pop\n  pop\n  jump\t// out\n    /* \"#utility.yul\":182:403   */\ntag_35:\n    /* \"#utility.yul\":322:356   */\n  0x4f6e6c79206f776e65722063616e20706572666f726d20746869732061637469\n    /* \"#utility.yul\":318:319   */\n  0x00\n    /* \"#utility.yul\":310:316   */\n  dup3\n    /* \"#utility.yul\":306:320   */\n  add\n    /* \"#utility.yul\":299:357   */\n  mstore\n    /* \"#utility.yul\":391:395   */\n  0x6f6e000000000000000000000000000000000000000000000000000000000000\n    /* \"#utility.yul\":386:388   */\n  0x20\n    /* \"#utility.yul\":378:384   */\n  dup3\n    /* \"#utility.yul\":374:389   */\n  add\n    /* \"#utility.yul\":367:396   */\n  mstore\n    /* \"#utility.yul\":182:403   */\n  pop\n  jump\t// out\n    /* \"#utility.yul\":409:775   */\ntag_36:\n    /* \"#utility.yul\":551:554   */\n  0x00\n    /* \"#utility.yul\":572:639   */\n  tag_69\n    /* \"#utility.yul\":636:638   */\n  0x22\n    /* \"#utility.yul\":631:634   */\n  dup4\n    /* \"#utility.yul\":572:639   */\n  tag_34\n  jump\t// in\ntag_69:\n    /* \"#utility.yul\":565:639   */\n  swap2\n  pop\n    /* \"#utility.yul\":648:741   */\n  tag_70\n    /* \"#utility.yul\":737:740   */\n  dup3\n    /* \"#utility.yul\":648:741   */\n  tag_35\n  jump\t// in\ntag_70:\n    /* \"#utility.yul\":766:768   */\n  0x40\n    /* \"#utility.yul\":761:764   */\n  dup3\n    /* \"#utility.yul\":757:769   */\n  add\n    /* \"#utility.yul\":750:769   */\n  swap1\n  pop\n    /* \"#utility.yul\":409:775   */\n  swap2\n  swap1\n  pop\n  jump\t// out\n    /* \"#utility.yul\":781:1200   */\ntag_13:\n    /* \"#utility.yul\":947:951   */\n  0x00\n    /* \"#utility.yul\":985:987   */\n  0x20\n    /* \"#utility.yul\":974:983   */\n  dup3\n    /* \"#utility.yul\":970:988   */\n  add\n    /* \"#utility.yul\":962:988   */\n  swap1\n  pop\n    /* \"#utility.yul\":1034:1043   */\n  dup2\n    /* \"#utility.yul\":1028:1032   */\n  dup2\n    /* \"#utility.yul\":1024:1044   */\n  sub\n    /* \"#utility.yul\":1020:1021   */\n  0x00\n    /* \"#utility.yul\":1009:1018   */\n  dup4\n    /* \"#utility.yul\":1005:1022   */\n  add\n    /* \"#utility.yul\":998:1045   */\n  mstore\n    /* \"#utility.yul\":1062:1193   */\n  tag_72\n    /* \"#utility.yul\":1188:1192   */\n  dup2\n    /* \"#utility.yul\":1062:1193   */\n  tag_36\n  jump\t// in\ntag_72:\n    /* \"#utility.yul\":1054:1193   */\n  swap1\n  pop\n    /* \"#utility.yul\":781:1200   */\n  swap2\n  swap1\n  pop\n  jump\t// out\n    /* \"#utility.yul\":1206:1431   */\ntag_37:\n    /* \"#utility.yul\":1346:1380   */\n  0x436f6e766572696f6e2072617465206d75737420626520677265617465722074\n    /* \"#utility.yul\":1342:1343   */\n  0x00\n    /* \"#utility.yul\":1334:1340   */\n  dup3\n    /* \"#utility.yul\":1330:1344   */\n  add\n    /* \"#utility.yul\":1323:1381   */\n  mstore\n    /* \"#utility.yul\":1415:1423   */\n  0x68616e20302e0000000000000000000000000000000000000000000000000000\n    /* \"#utility.yul\":1410:1412   */\n  0x20\n    /* \"#utility.yul\":1402:1408   */\n  dup3\n    /* \"#utility.yul\":1398:1413   */\n  add\n    /* \"#utility.yul\":1391:1424   */\n  mstore\n    /* \"#utility.yul\":1206:1431   */\n  pop\n  jump\t// out\n    /* \"#utility.yul\":1437:1803   */\ntag_38:\n    /* \"#utility.yul\":1579:1582   */\n  0x00\n    /* \"#utility.yul\":1600:1667   */\n  tag_75\n    /* \"#utility.yul\":1664:1666   */\n  0x26\n    /* \"#utility.yul\":1659:1662   */\n  dup4\n    /* \"#utility.yul\":1600:1667   */\n  tag_34\n  jump\t// in\ntag_75:\n    /* \"#utility.yul\":1593:1667   */\n  swap2\n  pop\n    /* \"#utility.yul\":1676:1769   */\n  tag_76\n    /* \"#utility.yul\":1765:1768   */\n  dup3\n    /* \"#utility.yul\":1676:1769   */\n  tag_37\n  jump\t// in\ntag_76:\n    /* \"#utility.yul\":1794:1796   */\n  0x40\n    /* \"#utility.yul\":1789:1792   */\n  dup3\n    /* \"#utility.yul\":1785:1797   */\n  add\n    /* \"#utility.yul\":1778:1797   */\n  swap1\n  pop\n    /* \"#utility.yul\":1437:1803   */\n  swap2\n  swap1\n  pop\n  jump\t// out\n    /* \"#utility.yul\":1809:2228   */\ntag_17:\n    /* \"#utility.yul\":1975:1979   */\n  0x00\n    /* \"#utility.yul\":2013:2015   */\n  0x20\n    /* \"#utility.yul\":2002:2011   */\n  dup3\n    /* \"#utility.yul\":1998:2016   */\n  add\n    /* \"#utility.yul\":1990:2016   */\n  swap1\n  pop\n    /* \"#utility.yul\":2062:2071   */\n  dup2\n    /* \"#utility.yul\":2056:2060   */\n  dup2\n    /* \"#utility.yul\":2052:2072   */\n  sub\n    /* \"#utility.yul\":2048:2049   */\n  0x00\n    /* \"#utility.yul\":2037:2046   */\n  dup4\n    /* \"#utility.yul\":2033:2050   */\n  add\n    /* \"#utility.yul\":2026:2073   */\n  mstore\n    /* \"#utility.yul\":2090:2221   */\n  tag_78\n    /* \"#utility.yul\":2216:2220   */\n  dup2\n    /* \"#utility.yul\":2090:2221   */\n  tag_38\n  jump\t// in\ntag_78:\n    /* \"#utility.yul\":2082:2221   */\n  swap1\n  pop\n    /* \"#utility.yul\":1809:2228   */\n  swap2\n  swap1\n  pop\n  jump\t// out\n    /* \"#utility.yul\":2234:2414   */\ntag_23:\n    /* \"#utility.yul\":2282:2359   */\n  0x4e487b7100000000000000000000000000000000000000000000000000000000\n    /* \"#utility.yul\":2279:2280   */\n  0x00\n    /* \"#utility.yul\":2272:2360   */\n  mstore\n    /* \"#utility.yul\":2379:2383   */\n  0x32\n    /* \"#utility.yul\":2376:2377   */\n  0x04\n    /* \"#utility.yul\":2369:2384   */\n  mstore\n    /* \"#utility.yul\":2403:2407   */\n  0x24\n    /* \"#utility.yul\":2400:2401   */\n  0x00\n    /* \"#utility.yul\":2393:2408   */\n  revert\n    /* \"#utility.yul\":2420:2600   */\ntag_39:\n    /* \"#utility.yul\":2468:2545   */\n  0x4e487b7100000000000000000000000000000000000000000000000000000000\n    /* \"#utility.yul\":2465:2466   */\n  0x00\n    /* \"#utility.yul\":2458:2546   */\n  mstore\n    /* \"#utility.yul\":2565:2569   */\n  0x22\n    /* \"#utility.yul\":2562:2563   */\n  0x04\n    /* \"#utility.yul\":2555:2570   */\n  mstore\n    /* \"#utility.yul\":2589:2593   */\n  0x24\n    /* \"#utility.yul\":2586:2587   */\n  0x00\n    /* \"#utility.yul\":2579:2594   */\n  revert\n    /* \"#utility.yul\":2606:2926   */\ntag_40:\n    /* \"#utility.yul\":2650:2656   */\n  0x00\n    /* \"#utility.yul\":2687:2688   */\n  0x02\n    /* \"#utility.yul\":2681:2685   */\n  dup3\n    /* \"#utility.yul\":2677:2689   */\n  div\n    /* \"#utility.yul\":2667:2689   */\n  swap1\n  pop\n    /* \"#utility.yul\":2734:2735   */\n  0x01\n    /* \"#utility.yul\":2728:2732   */\n  dup3\n    /* \"#utility.yul\":2724:2736   */\n  and\n    /* \"#utility.yul\":2755:2773   */\n  dup1\n    /* \"#utility.yul\":2745:2826   */\n  tag_82\n  jumpi\n    /* \"#utility.yul\":2811:2815   */\n  0x7f\n    /* \"#utility.yul\":2803:2809   */\n  dup3\n    /* \"#utility.yul\":2799:2816   */\n  and\n    /* \"#utility.yul\":2789:2816   */\n  swap2\n  pop\n    /* \"#utility.yul\":2745:2826   */\ntag_82:\n    /* \"#utility.yul\":2873:2875   */\n  0x20\n    /* \"#utility.yul\":2865:2871   */\n  dup3\n    /* \"#utility.yul\":2862:2876   */\n  lt\n    /* \"#utility.yul\":2842:2860   */\n  dup2\n    /* \"#utility.yul\":2839:2877   */\n  sub\n    /* \"#utility.yul\":2836:2920   */\n  tag_83\n  jumpi\n    /* \"#utility.yul\":2892:2910   */\n  tag_84\n  tag_39\n  jump\t// in\ntag_84:\n    /* \"#utility.yul\":2836:2920   */\ntag_83:\n    /* \"#utility.yul\":2657:2926   */\n  pop\n    /* \"#utility.yul\":2606:2926   */\n  swap2\n  swap1\n  pop\n  jump\t// out\n    /* \"#utility.yul\":2932:3079   */\ntag_41:\n    /* \"#utility.yul\":3033:3044   */\n  0x00\n    /* \"#utility.yul\":3070:3073   */\n  dup2\n    /* \"#utility.yul\":3055:3073   */\n  swap1\n  pop\n    /* \"#utility.yul\":2932:3079   */\n  swap3\n  swap2\n  pop\n  pop\n  jump\t// out\n    /* \"#utility.yul\":3085:3229   */\ntag_42:\n    /* \"#utility.yul\":3137:3141   */\n  0x00\n    /* \"#utility.yul\":3160:3163   */\n  dup2\n    /* \"#utility.yul\":3152:3163   */\n  swap1\n  pop\n    /* \"#utility.yul\":3183:3186   */\n  dup2\n    /* \"#utility.yul\":3180:3181   */\n  0x00\n    /* \"#utility.yul\":3173:3187   */\n  mstore\n    /* \"#utility.yul\":3217:3221   */\n  0x20\n    /* \"#utility.yul\":3214:3215   */\n  0x00\n    /* \"#utility.yul\":3204:3222   */\n  keccak256\n    /* \"#utility.yul\":3196:3222   */\n  swap1\n  pop\n    /* \"#utility.yul\":3085:3229   */\n  swap2\n  swap1\n  pop\n  jump\t// out\n    /* \"#utility.yul\":3257:4135   */\ntag_43:\n    /* \"#utility.yul\":3362:3365   */\n  0x00\n    /* \"#utility.yul\":3399:3404   */\n  dup2\n    /* \"#utility.yul\":3393:3405   */\n  sload\n    /* \"#utility.yul\":3428:3464   */\n  tag_88\n    /* \"#utility.yul\":3454:3463   */\n  dup2\n    /* \"#utility.yul\":3428:3464   */\n  tag_40\n  jump\t// in\ntag_88:\n    /* \"#utility.yul\":3480:3568   */\n  tag_89\n    /* \"#utility.yul\":3561:3567   */\n  dup2\n    /* \"#utility.yul\":3556:3559   */\n  dup7\n    /* \"#utility.yul\":3480:3568   */\n  tag_41\n  jump\t// in\ntag_89:\n    /* \"#utility.yul\":3473:3568   */\n  swap5\n  pop\n    /* \"#utility.yul\":3599:3600   */\n  0x01\n    /* \"#utility.yul\":3588:3597   */\n  dup3\n    /* \"#utility.yul\":3584:3601   */\n  and\n    /* \"#utility.yul\":3615:3616   */\n  0x00\n    /* \"#utility.yul\":3610:3776   */\n  dup2\n  eq\n  tag_91\n  jumpi\n    /* \"#utility.yul\":3790:3791   */\n  0x01\n    /* \"#utility.yul\":3785:4129   */\n  dup2\n  eq\n  tag_92\n  jumpi\n    /* \"#utility.yul\":3577:4129   */\n  jump(tag_90)\n    /* \"#utility.yul\":3610:3776   */\ntag_91:\n    /* \"#utility.yul\":3694:3698   */\n  0xff\n    /* \"#utility.yul\":3690:3699   */\n  not\n    /* \"#utility.yul\":3679:3688   */\n  dup4\n    /* \"#utility.yul\":3675:3700   */\n  and\n    /* \"#utility.yul\":3670:3673   */\n  dup7\n    /* \"#utility.yul\":3663:3701   */\n  mstore\n    /* \"#utility.yul\":3756:3762   */\n  dup2\n    /* \"#utility.yul\":3749:3763   */\n  iszero\n    /* \"#utility.yul\":3742:3764   */\n  iszero\n    /* \"#utility.yul\":3734:3740   */\n  dup3\n    /* \"#utility.yul\":3730:3765   */\n  mul\n    /* \"#utility.yul\":3725:3728   */\n  dup7\n    /* \"#utility.yul\":3721:3766   */\n  add\n    /* \"#utility.yul\":3714:3766   */\n  swap4\n  pop\n    /* \"#utility.yul\":3610:3776   */\n  jump(tag_90)\n    /* \"#utility.yul\":3785:4129   */\ntag_92:\n    /* \"#utility.yul\":3852:3893   */\n  tag_93\n    /* \"#utility.yul\":3887:3892   */\n  dup6\n    /* \"#utility.yul\":3852:3893   */\n  tag_42\n  jump\t// in\ntag_93:\n    /* \"#utility.yul\":3915:3916   */\n  0x00\n    /* \"#utility.yul\":3929:4083   */\ntag_94:\n    /* \"#utility.yul\":3943:3949   */\n  dup4\n    /* \"#utility.yul\":3940:3941   */\n  dup2\n    /* \"#utility.yul\":3937:3950   */\n  lt\n    /* \"#utility.yul\":3929:4083   */\n  iszero\n  tag_96\n  jumpi\n    /* \"#utility.yul\":4017:4024   */\n  dup2\n    /* \"#utility.yul\":4011:4025   */\n  sload\n    /* \"#utility.yul\":4007:4008   */\n  dup2\n    /* \"#utility.yul\":4002:4005   */\n  dup10\n    /* \"#utility.yul\":3998:4009   */\n  add\n    /* \"#utility.yul\":3991:4026   */\n  mstore\n    /* \"#utility.yul\":4067:4068   */\n  0x01\n    /* \"#utility.yul\":4058:4065   */\n  dup3\n    /* \"#utility.yul\":4054:4069   */\n  add\n    /* \"#utility.yul\":4043:4069   */\n  swap2\n  pop\n    /* \"#utility.yul\":3965:3969   */\n  0x20\n    /* \"#utility.yul\":3962:3963   */\n  dup2\n    /* \"#utility.yul\":3958:3970   */\n  add\n    /* \"#utility.yul\":3953:3970   */\n  swap1\n  pop\n    /* \"#utility.yul\":3929:4083   */\n  jump(tag_94)\ntag_96:\n    /* \"#utility.yul\":4112:4118   */\n  dup4\n    /* \"#utility.yul\":4107:4110   */\n  dup9\n    /* \"#utility.yul\":4103:4119   */\n  add\n    /* \"#utility.yul\":4096:4119   */\n  swap6\n  pop\n    /* \"#utility.yul\":3792:4129   */\n  pop\n  pop\n    /* \"#utility.yul\":3577:4129   */\ntag_90:\n  pop\n    /* \"#utility.yul\":3366:4135   */\n  pop\n  pop\n    /* \"#utility.yul\":3257:4135   */\n  swap3\n  swap2\n  pop\n  pop\n  jump\t// out\n    /* \"#utility.yul\":4141:4414   */\ntag_26:\n    /* \"#utility.yul\":4272:4275   */\n  0x00\n    /* \"#utility.yul\":4294:4388   */\n  tag_98\n    /* \"#utility.yul\":4384:4387   */\n  dup3\n    /* \"#utility.yul\":4375:4381   */\n  dup5\n    /* \"#utility.yul\":4294:4388   */\n  tag_43\n  jump\t// in\ntag_98:\n    /* \"#utility.yul\":4287:4388   */\n  swap2\n  pop\n    /* \"#utility.yul\":4405:4408   */\n  dup2\n    /* \"#utility.yul\":4398:4408   */\n  swap1\n  pop\n    /* \"#utility.yul\":4141:4414   */\n  swap3\n  swap2\n  pop\n  pop\n  jump\t// out\n    /* \"#utility.yul\":4420:4519   */\ntag_44:\n    /* \"#utility.yul\":4472:4478   */\n  0x00\n    /* \"#utility.yul\":4506:4511   */\n  dup2\n    /* \"#utility.yul\":4500:4512   */\n  mload\n    /* \"#utility.yul\":4490:4512   */\n  swap1\n  pop\n    /* \"#utility.yul\":4420:4519   */\n  swap2\n  swap1\n  pop\n  jump\t// out\n    /* \"#utility.yul\":4525:4705   */\ntag_45:\n    /* \"#utility.yul\":4573:4650   */\n  0x4e487b7100000000000000000000000000000000000000000000000000000000\n    /* \"#utility.yul\":4570:4571   */\n  0x00\n    /* \"#utility.yul\":4563:4651   */\n  mstore\n    /* \"#utility.yul\":4670:4674   */\n  0x41\n    /* \"#utility.yul\":4667:4668   */\n  0x04\n    /* \"#utility.yul\":4660:4675   */\n  mstore\n    /* \"#utility.yul\":4694:4698   */\n  0x24\n    /* \"#utility.yul\":4691:4692   */\n  0x00\n    /* \"#utility.yul\":4684:4699   */\n  revert\n    /* \"#utility.yul\":4711:4852   */\ntag_46:\n    /* \"#utility.yul\":4760:4764   */\n  0x00\n    /* \"#utility.yul\":4783:4786   */\n  dup2\n    /* \"#utility.yul\":4775:4786   */\n  swap1\n  pop\n    /* \"#utility.yul\":4806:4809   */\n  dup2\n    /* \"#utility.yul\":4803:4804   */\n  0x00\n    /* \"#utility.yul\":4796:4810   */\n  mstore\n    /* \"#utility.yul\":4840:4844   */\n  0x20\n    /* \"#utility.yul\":4837:4838   */\n  0x00\n    /* \"#utility.yul\":4827:4845   */\n  keccak256\n    /* \"#utility.yul\":4819:4845   */\n  swap1\n  pop\n    /* \"#utility.yul\":4711:4852   */\n  swap2\n  swap1\n  pop\n  jump\t// out\n    /* \"#utility.yul\":4858:4951   */\ntag_47:\n    /* \"#utility.yul\":4895:4901   */\n  0x00\n    /* \"#utility.yul\":4942:4944   */\n  0x20\n    /* \"#utility.yul\":4937:4939   */\n  0x1f\n    /* \"#utility.yul\":4930:4935   */\n  dup4\n    /* \"#utility.yul\":4926:4940   */\n  add\n    /* \"#utility.yul\":4922:4945   */\n  div\n    /* \"#utility.yul\":4912:4945   */\n  swap1\n  pop\n    /* \"#utility.yul\":4858:4951   */\n  swap2\n  swap1\n  pop\n  jump\t// out\n    /* \"#utility.yul\":4957:5064   */\ntag_48:\n    /* \"#utility.yul\":5001:5009   */\n  0x00\n    /* \"#utility.yul\":5051:5056   */\n  dup3\n    /* \"#utility.yul\":5045:5049   */\n  dup3\n    /* \"#utility.yul\":5041:5057   */\n  shl\n    /* \"#utility.yul\":5020:5057   */\n  swap1\n  pop\n    /* \"#utility.yul\":4957:5064   */\n  swap3\n  swap2\n  pop\n  pop\n  jump\t// out\n    /* \"#utility.yul\":5070:5463   */\ntag_49:\n    /* \"#utility.yul\":5139:5145   */\n  0x00\n    /* \"#utility.yul\":5189:5190   */\n  0x08\n    /* \"#utility.yul\":5177:5187   */\n  dup4\n    /* \"#utility.yul\":5173:5191   */\n  mul\n    /* \"#utility.yul\":5212:5309   */\n  tag_105\n    /* \"#utility.yul\":5242:5308   */\n  0xffffffffffffffffffffffffffffffffffffffffffffffffffffffffffffffff\n    /* \"#utility.yul\":5231:5240   */\n  dup3\n    /* \"#utility.yul\":5212:5309   */\n  tag_48\n  jump\t// in\ntag_105:\n    /* \"#utility.yul\":5330:5369   */\n  tag_106\n    /* \"#utility.yul\":5360:5368   */\n  dup7\n    /* \"#utility.yul\":5349:5358   */\n  dup4\n    /* \"#utility.yul\":5330:5369   */\n  tag_48\n  jump\t// in\ntag_106:\n    /* \"#utility.yul\":5318:5369   */\n  swap6\n  pop\n    /* \"#utility.yul\":5402:5406   */\n  dup1\n    /* \"#utility.yul\":5398:5407   */\n  not\n    /* \"#utility.yul\":5391:5396   */\n  dup5\n    /* \"#utility.yul\":5387:5408   */\n  and\n    /* \"#utility.yul\":5378:5408   */\n  swap4\n  pop\n    /* \"#utility.yul\":5451:5455   */\n  dup1\n    /* \"#utility.yul\":5441:5449   */\n  dup7\n    /* \"#utility.yul\":5437:5456   */\n  and\n    /* \"#utility.yul\":5430:5435   */\n  dup5\n    /* \"#utility.yul\":5427:5457   */\n  or\n    /* \"#utility.yul\":5417:5457   */\n  swap3\n  pop\n    /* \"#utility.yul\":5146:5463   */\n  pop\n  pop\n    /* \"#utility.yul\":5070:5463   */\n  swap4\n  swap3\n  pop\n  pop\n  pop\n  jump\t// out\n    /* \"#utility.yul\":5469:5546   */\ntag_50:\n    /* \"#utility.yul\":5506:5513   */\n  0x00\n    /* \"#utility.yul\":5535:5540   */\n  dup2\n    /* \"#utility.yul\":5524:5540   */\n  swap1\n  pop\n    /* \"#utility.yul\":5469:5546   */\n  swap2\n  swap1\n  pop\n  jump\t// out\n    /* \"#utility.yul\":5552:5612   */\ntag_51:\n    /* \"#utility.yul\":5580:5583   */\n  0x00\n    /* \"#utility.yul\":5601:5606   */\n  dup2\n    /* \"#utility.yul\":5594:5606   */\n  swap1\n  pop\n    /* \"#utility.yul\":5552:5612   */\n  swap2\n  swap1\n  pop\n  jump\t// out\n    /* \"#utility.yul\":5618:5760   */\ntag_52:\n    /* \"#utility.yul\":5668:5677   */\n  0x00\n    /* \"#utility.yul\":5701:5754   */\n  tag_110\n    /* \"#utility.yul\":5719:5753   */\n  tag_111\n    /* \"#utility.yul\":5728:5752   */\n  tag_112\n    /* \"#utility.yul\":5746:5751   */\n  dup5\n    /* \"#utility.yul\":5728:5752   */\n  tag_50\n  jump\t// in\ntag_112:\n    /* \"#utility.yul\":5719:5753   */\n  tag_51\n  jump\t// in\ntag_111:\n    /* \"#utility.yul\":5701:5754   */\n  tag_50\n  jump\t// in\ntag_110:\n    /* \"#utility.yul\":5688:5754   */\n  swap1\n  pop\n    /* \"#utility.yul\":5618:5760   */\n  swap2\n  swap1\n  pop\n  jump\t// out\n    /* \"#utility.yul\":5766:5841   */\ntag_53:\n    /* \"#utility.yul\":5809:5812   */\n  0x00\n    /* \"#utility.yul\":5830:5835   */\n  dup2\n    /* \"#utility.yul\":5823:5835   */\n  swap1\n  pop\n    /* \"#utility.yul\":5766:5841   */\n  swap2\n  swap1\n  pop\n  jump\t// out\n    /* \"#utility.yul\":5847:6116   */\ntag_54:\n    /* \"#utility.yul\":5957:5996   */\n  tag_115\n    /* \"#utility.yul\":5988:5995   */\n  dup4\n    /* \"#utility.yul\":5957:5996   */\n  tag_52\n  jump\t// in\ntag_115:\n    /* \"#utility.yul\":6018:6109   */\n  tag_116\n    /* \"#utility.yul\":6067:6108   */\n  tag_117\n    /* \"#utility.yul\":6091:6107   */\n  dup3\n    /* \"#utility.yul\":6067:6108   */\n  tag_53\n  jump\t// in\ntag_117:\n    /* \"#utility.yul\":6059:6065   */\n  dup5\n    /* \"#utility.yul\":6052:6056   */\n  dup5\n    /* \"#utility.yul\":6046:6057   */\n  sload\n    /* \"#utility.yul\":6018:6109   */\n  tag_49\n  jump\t// in\ntag_116:\n    /* \"#utility.yul\":6012:6016   */\n  dup3\n    /* \"#utility.yul\":6005:6110   */\n  sstore\n    /* \"#utility.yul\":5923:6116   */\n  pop\n    /* \"#utility.yul\":5847:6116   */\n  pop\n  pop\n  pop\n  jump\t// out\n    /* \"#utility.yul\":6122:6195   */\ntag_55:\n    /* \"#utility.yul\":6167:6170   */\n  0x00\n    /* \"#utility.yul\":6188:6189   */\n  0x00\n    /* \"#utility.yul\":6181:6189   */\n  swap1\n  pop\n    /* \"#utility.yul\":6122:6195   */\n  swap1\n  jump\t// out\n    /* \"#utility.yul\":6201:6390   */\ntag_56:\n    /* \"#utility.yul\":6278:6310   */\n  tag_120\n  tag_55\n  jump\t// in\ntag_120:\n    /* \"#utility.yul\":6319:6384   */\n  tag_121\n    /* \"#utility.yul\":6377:6383   */\n  dup2\n    /* \"#utility.yul\":6369:6375   */\n  dup5\n    /* \"#utility.yul\":6363:6367   */\n  dup5\n    /* \"#utility.yul\":6319:6384   */\n  tag_54\n  jump\t// in\ntag_121:\n    /* \"#utility.yul\":6254:6390   */\n  pop\n    /* \"#utility.yul\":6201:6390   */\n  pop\n  pop\n  jump\t// out\n    /* \"#utility.yul\":6396:6582   */\ntag_57:\n    /* \"#utility.yul\":6456:6576   */\ntag_123:\n    /* \"#utility.yul\":6473:6476   */\n  dup2\n    /* \"#utility.yul\":6466:6471   */\n  dup2\n    /* \"#utility.yul\":6463:6477   */\n  lt\n    /* \"#utility.yul\":6456:6576   */\n  iszero\n  tag_125\n  jumpi\n    /* \"#utility.yul\":6527:6566   */\n  tag_126\n    /* \"#utility.yul\":6564:6565   */\n  0x00\n    /* \"#utility.yul\":6557:6562   */\n  dup3\n    /* \"#utility.yul\":6527:6566   */\n  tag_56\n  jump\t// in\ntag_126:\n    /* \"#utility.yul\":6500:6501   */\n  0x01\n    /* \"#utility.yul\":6493:6498   */\n  dup2\n    /* \"#utility.yul\":6489:6502   */\n  add\n    /* \"#utility.yul\":6480:6502   */\n  swap1\n  pop\n    /* \"#utility.yul\":6456:6576   */\n  jump(tag_123)\ntag_125:\n    /* \"#utility.yul\":6396:6582   */\n  pop\n  pop\n  jump\t// out\n    /* \"#utility.yul\":6588:7131   */\ntag_58:\n    /* \"#utility.yul\":6689:6691   */\n  0x1f\n    /* \"#utility.yul\":6684:6687   */\n  dup3\n    /* \"#utility.yul\":6681:6692   */\n  gt\n    /* \"#utility.yul\":6678:7124   */\n  iszero\n  tag_128\n  jumpi\n    /* \"#utility.yul\":6723:6761   */\n  tag_129\n    /* \"#utility.yul\":6755:6760   */\n  dup2\n    /* \"#utility.yul\":6723:6761   */\n  tag_46\n  jump\t// in\ntag_129:\n    /* \"#utility.yul\":6807:6836   */\n  tag_130\n    /* \"#utility.yul\":6825:6835   */\n  dup5\n    /* \"#utility.yul\":6807:6836   */\n  tag_47\n  jump\t// in\ntag_130:\n    /* \"#utility.yul\":6797:6805   */\n  dup2\n    /* \"#utility.yul\":6793:6837   */\n  add\n    /* \"#utility.yul\":6990:6992   */\n  0x20\n    /* \"#utility.yul\":6978:6988   */\n  dup6\n    /* \"#utility.yul\":6975:6993   */\n  lt\n    /* \"#utility.yul\":6972:7021   */\n  iszero\n  tag_131\n  jumpi\n    /* \"#utility.yul\":7011:7019   */\n  dup2\n    /* \"#utility.yul\":6996:7019   */\n  swap1\n  pop\n    /* \"#utility.yul\":6972:7021   */\ntag_131:\n    /* \"#utility.yul\":7034:7114   */\n  tag_132\n    /* \"#utility.yul\":7090:7112   */\n  tag_133\n    /* \"#utility.yul\":7108:7111   */\n  dup6\n    /* \"#utility.yul\":7090:7112   */\n  tag_47\n  jump\t// in\ntag_133:\n    /* \"#utility.yul\":7080:7088   */\n  dup4\n    /* \"#utility.yul\":7076:7113   */\n  add\n    /* \"#utility.yul\":7063:7074   */\n  dup3\n    /* \"#utility.yul\":7034:7114   */\n  tag_57\n  jump\t// in\ntag_132:\n    /* \"#utility.yul\":6693:7124   */\n  pop\n  pop\n    /* \"#utility.yul\":6678:7124   */\ntag_128:\n    /* \"#utility.yul\":6588:7131   */\n  pop\n  pop\n  pop\n  jump\t// out\n    /* \"#utility.yul\":7137:7254   */\ntag_59:\n    /* \"#utility.yul\":7191:7199   */\n  0x00\n    /* \"#utility.yul\":7241:7246   */\n  dup3\n    /* \"#utility.yul\":7235:7239   */\n  dup3\n    /* \"#utility.yul\":7231:7247   */\n  shr\n    /* \"#utility.yul\":7210:7247   */\n  swap1\n  pop\n    /* \"#utility.yul\":7137:7254   */\n  swap3\n  swap2\n  pop\n  pop\n  jump\t// out\n    /* \"#utility.yul\":7260:7429   */\ntag_60:\n    /* \"#utility.yul\":7304:7310   */\n  0x00\n    /* \"#utility.yul\":7337:7388   */\n  tag_136\n    /* \"#utility.yul\":7385:7386   */\n  0x00\n    /* \"#utility.yul\":7381:7387   */\n  not\n    /* \"#utility.yul\":7373:7378   */\n  dup5\n    /* \"#utility.yul\":7370:7371   */\n  0x08\n    /* \"#utility.yul\":7366:7379   */\n  mul\n    /* \"#utility.yul\":7337:7388   */\n  tag_59\n  jump\t// in\ntag_136:\n    /* \"#utility.yul\":7333:7389   */\n  not\n    /* \"#utility.yul\":7418:7422   */\n  dup1\n    /* \"#utility.yul\":7412:7416   */\n  dup4\n    /* \"#utility.yul\":7408:7423   */\n  and\n    /* \"#utility.yul\":7398:7423   */\n  swap2\n  pop\n    /* \"#utility.yul\":7311:7429   */\n  pop\n    /* \"#utility.yul\":7260:7429   */\n  swap3\n  swap2\n  pop\n  pop\n  jump\t// out\n    /* \"#utility.yul\":7434:7729   */\ntag_61:\n    /* \"#utility.yul\":7510:7514   */\n  0x00\n    /* \"#utility.yul\":7656:7685   */\n  tag_138\n    /* \"#utility.yul\":7681:7684   */\n  dup4\n    /* \"#utility.yul\":7675:7679   */\n  dup4\n    /* \"#utility.yul\":7656:7685   */\n  tag_60\n  jump\t// in\ntag_138:\n    /* \"#utility.yul\":7648:7685   */\n  swap2\n  pop\n    /* \"#utility.yul\":7718:7721   */\n  dup3\n    /* \"#utility.yul\":7715:7716   */\n  0x02\n    /* \"#utility.yul\":7711:7722   */\n  mul\n    /* \"#utility.yul\":7705:7709   */\n  dup3\n    /* \"#utility.yul\":7702:7723   */\n  or\n    /* \"#utility.yul\":7694:7723   */\n  swap1\n  pop\n    /* \"#utility.yul\":7434:7729   */\n  swap3\n  swap2\n  pop\n  pop\n  jump\t// out\n    /* \"#utility.yul\":7734:9129   */\ntag_31:\n    /* \"#utility.yul\":7851:7888   */\n  tag_140\n    /* \"#utility.yul\":7884:7887   */\n  dup3\n    /* \"#utility.yul\":7851:7888   */\n  tag_44\n  jump\t// in\ntag_140:\n    /* \"#utility.yul\":7953:7971   */\n  0xffffffffffffffff\n    /* \"#utility.yul\":7945:7951   */\n  dup2\n    /* \"#utility.yul\":7942:7972   */\n  gt\n    /* \"#utility.yul\":7939:7995   */\n  iszero\n  tag_141\n  jumpi\n    /* \"#utility.yul\":7975:7993   */\n  tag_142\n  tag_45\n  jump\t// in\ntag_142:\n    /* \"#utility.yul\":7939:7995   */\ntag_141:\n    /* \"#utility.yul\":8019:8057   */\n  tag_143\n    /* \"#utility.yul\":8051:8055   */\n  dup3\n    /* \"#utility.yul\":8045:8056   */\n  sload\n    /* \"#utility.yul\":8019:8057   */\n  tag_40\n  jump\t// in\ntag_143:\n    /* \"#utility.yul\":8104:8171   */\n  tag_144\n    /* \"#utility.yul\":8164:8170   */\n  dup3\n    /* \"#utility.yul\":8156:8162   */\n  dup3\n    /* \"#utility.yul\":8150:8154   */\n  dup6\n    /* \"#utility.yul\":8104:8171   */\n  tag_58\n  jump\t// in\ntag_144:\n    /* \"#utility.yul\":8198:8199   */\n  0x00\n    /* \"#utility.yul\":8222:8226   */\n  0x20\n    /* \"#utility.yul\":8209:8226   */\n  swap1\n  pop\n    /* \"#utility.yul\":8254:8256   */\n  0x1f\n    /* \"#utility.yul\":8246:8252   */\n  dup4\n    /* \"#utility.yul\":8243:8257   */\n  gt\n    /* \"#utility.yul\":8271:8272   */\n  0x01\n    /* \"#utility.yul\":8266:8884   */\n  dup2\n  eq\n  tag_146\n  jumpi\n    /* \"#utility.yul\":8928:8929   */\n  0x00\n    /* \"#utility.yul\":8945:8951   */\n  dup5\n    /* \"#utility.yul\":8942:9019   */\n  iszero\n  tag_147\n  jumpi\n    /* \"#utility.yul\":8994:9003   */\n  dup3\n    /* \"#utility.yul\":8989:8992   */\n  dup8\n    /* \"#utility.yul\":8985:9004   */\n  add\n    /* \"#utility.yul\":8979:9005   */\n  mload\n    /* \"#utility.yul\":8970:9005   */\n  swap1\n  pop\n    /* \"#utility.yul\":8942:9019   */\ntag_147:\n    /* \"#utility.yul\":9045:9112   */\n  tag_148\n    /* \"#utility.yul\":9105:9111   */\n  dup6\n    /* \"#utility.yul\":9098:9103   */\n  dup3\n    /* \"#utility.yul\":9045:9112   */\n  tag_61\n  jump\t// in\ntag_148:\n    /* \"#utility.yul\":9039:9043   */\n  dup7\n    /* \"#utility.yul\":9032:9113   */\n  sstore\n    /* \"#utility.yul\":8901:9123   */\n  pop\n    /* \"#utility.yul\":8236:9123   */\n  jump(tag_145)\n    /* \"#utility.yul\":8266:8884   */\ntag_146:\n    /* \"#utility.yul\":8318:8322   */\n  0x1f\n    /* \"#utility.yul\":8314:8323   */\n  not\n    /* \"#utility.yul\":8306:8312   */\n  dup5\n    /* \"#utility.yul\":8302:8324   */\n  and\n    /* \"#utility.yul\":8352:8389   */\n  tag_149\n    /* \"#utility.yul\":8384:8388   */\n  dup7\n    /* \"#utility.yul\":8352:8389   */\n  tag_46\n  jump\t// in\ntag_149:\n    /* \"#utility.yul\":8411:8412   */\n  0x00\n    /* \"#utility.yul\":8425:8633   */\ntag_150:\n    /* \"#utility.yul\":8439:8446   */\n  dup3\n    /* \"#utility.yul\":8436:8437   */\n  dup2\n    /* \"#utility.yul\":8433:8447   */\n  lt\n    /* \"#utility.yul\":8425:8633   */\n  iszero\n  tag_152\n  jumpi\n    /* \"#utility.yul\":8518:8527   */\n  dup5\n    /* \"#utility.yul\":8513:8516   */\n  dup10\n    /* \"#utility.yul\":8509:8528   */\n  add\n    /* \"#utility.yul\":8503:8529   */\n  mload\n    /* \"#utility.yul\":8495:8501   */\n  dup3\n    /* \"#utility.yul\":8488:8530   */\n  sstore\n    /* \"#utility.yul\":8569:8570   */\n  0x01\n    /* \"#utility.yul\":8561:8567   */\n  dup3\n    /* \"#utility.yul\":8557:8571   */\n  add\n    /* \"#utility.yul\":8547:8571   */\n  swap2\n  pop\n    /* \"#utility.yul\":8616:8618   */\n  0x20\n    /* \"#utility.yul\":8605:8614   */\n  dup6\n    /* \"#utility.yul\":8601:8619   */\n  add\n    /* \"#utility.yul\":8588:8619   */\n  swap5\n  pop\n    /* \"#utility.yul\":8462:8466   */\n  0x20\n    /* \"#utility.yul\":8459:8460   */\n  dup2\n    /* \"#utility.yul\":8455:8467   */\n  add\n    /* \"#utility.yul\":8450:8467   */\n  swap1\n  pop\n    /* \"#utility.yul\":8425:8633   */\n  jump(tag_150)\ntag_152:\n    /* \"#utility.yul\":8661:8667   */\n  dup7\n    /* \"#utility.yul\":8652:8659   */\n  dup4\n    /* \"#utility.yul\":8649:8668   */\n  lt\n    /* \"#utility.yul\":8646:8825   */\n  iszero\n  tag_153\n  jumpi\n    /* \"#utility.yul\":8719:8728   */\n  dup5\n    /* \"#utility.yul\":8714:8717   */\n  dup10\n    /* \"#utility.yul\":8710:8729   */\n  add\n    /* \"#utility.yul\":8704:8730   */\n  mload\n    /* \"#utility.yul\":8762:8810   */\n  tag_154\n    /* \"#utility.yul\":8804:8808   */\n  0x1f\n    /* \"#utility.yul\":8796:8802   */\n  dup10\n    /* \"#utility.yul\":8792:8809   */\n  and\n    /* \"#utility.yul\":8781:8790   */\n  dup3\n    /* \"#utility.yul\":8762:8810   */\n  tag_60\n  jump\t// in\ntag_154:\n    /* \"#utility.yul\":8754:8760   */\n  dup4\n    /* \"#utility.yul\":8747:8811   */\n  sstore\n    /* \"#utility.yul\":8669:8825   */\n  pop\n    /* \"#utility.yul\":8646:8825   */\ntag_153:\n    /* \"#utility.yul\":8871:8872   */\n  0x01\n    /* \"#utility.yul\":8867:8868   */\n  0x02\n    /* \"#utility.yul\":8859:8865   */\n  dup9\n    /* \"#utility.yul\":8855:8869   */\n  mul\n    /* \"#utility.yul\":8851:8873   */\n  add\n    /* \"#utility.yul\":8845:8849   */\n  dup9\n    /* \"#utility.yul\":8838:8874   */\n  sstore\n    /* \"#utility.yul\":8273:8884   */\n  pop\n  pop\n  pop\n    /* \"#utility.yul\":8236:9123   */\ntag_145:\n  pop\n    /* \"#utility.yul\":7826:9129   */\n  pop\n  pop\n  pop\n    /* \"#utility.yul\":7734:9129   */\n  pop\n  pop\n  jump\t// out\n    /* \"#utility.yul\":9135:9283   */\ntag_62:\n    /* \"#utility.yul\":9237:9248   */\n  0x00\n    /* \"#utility.yul\":9274:9277   */\n  dup2\n    /* \"#utility.yul\":9259:9277   */\n  swap1\n  pop\n    /* \"#utility.yul\":9135:9283   */\n  swap3\n  swap2\n  pop\n  pop\n  jump\t// out\n    /* \"#utility.yul\":9289:9428   */\ntag_63:\n    /* \"#utility.yul\":9378:9384   */\n  dup3\n    /* \"#utility.yul\":9373:9376   */\n  dup2\n    /* \"#utility.yul\":9368:9371   */\n  dup4\n    /* \"#utility.yul\":9362:9385   */\n  mcopy\n    /* \"#utility.yul\":9419:9420   */\n  0x00\n    /* \"#utility.yul\":9410:9416   */\n  dup4\n    /* \"#utility.yul\":9405:9408   */\n  dup4\n    /* \"#utility.yul\":9401:9417   */\n  add\n    /* \"#utility.yul\":9394:9421   */\n  mstore\n    /* \"#utility.yul\":9289:9428   */\n  pop\n  pop\n  pop\n  jump\t// out\n    /* \"#utility.yul\":9434:9824   */\ntag_64:\n    /* \"#utility.yul\":9540:9543   */\n  0x00\n    /* \"#utility.yul\":9568:9607   */\n  tag_158\n    /* \"#utility.yul\":9601:9606   */\n  dup3\n    /* \"#utility.yul\":9568:9607   */\n  tag_44\n  jump\t// in\ntag_158:\n    /* \"#utility.yul\":9623:9712   */\n  tag_159\n    /* \"#utility.yul\":9705:9711   */\n  dup2\n    /* \"#utility.yul\":9700:9703   */\n  dup6\n    /* \"#utility.yul\":9623:9712   */\n  tag_62\n  jump\t// in\ntag_159:\n    /* \"#utility.yul\":9616:9712   */\n  swap4\n  pop\n    /* \"#utility.yul\":9721:9786   */\n  tag_160\n    /* \"#utility.yul\":9779:9785   */\n  dup2\n    /* \"#utility.yul\":9774:9777   */\n  dup6\n    /* \"#utility.yul\":9767:9771   */\n  0x20\n    /* \"#utility.yul\":9760:9765   */\n  dup7\n    /* \"#utility.yul\":9756:9772   */\n  add\n    /* \"#utility.yul\":9721:9786   */\n  tag_63\n  jump\t// in\ntag_160:\n    /* \"#utility.yul\":9811:9817   */\n  dup1\n    /* \"#utility.yul\":9806:9809   */\n  dup5\n    /* \"#utility.yul\":9802:9818   */\n  add\n    /* \"#utility.yul\":9795:9818   */\n  swap2\n  pop\n    /* \"#utility.yul\":9544:9824   */\n  pop\n    /* \"#utility.yul\":9434:9824   */\n  swap3\n  swap2\n  pop\n  pop\n  jump\t// out\n    /* \"#utility.yul\":9830:10105   */\ntag_33:\n    /* \"#utility.yul\":9962:9965   */\n  0x00\n    /* \"#utility.yul\":9984:10079   */\n  tag_162\n    /* \"#utility.yul\":10075:10078   */\n  dup3\n    /* \"#utility.yul\":10066:10072   */\n  dup5\n    /* \"#utility.yul\":9984:10079   */\n  tag_64\n  jump\t// in\ntag_162:\n    /* \"#utility.yul\":9977:10079   */\n  swap2\n  pop\n    /* \"#utility.yul\":10096:10099   */\n  dup2\n    /* \"#utility.yul\":10089:10099   */\n  swap1\n  pop\n    /* \"#utility.yul\":9830:10105   */\n  swap3\n  swap2\n  pop\n  pop\n  jump\t// out\n    /* \"submissions/0xFancy/day8.sol\":57:3704  contract TipJar{... */\ntag_9:\n  dataSize(sub_0)\n  dup1\n  dataOffset(sub_0)\n  0x00\n  codecopy\n  0x00\n  return\nstop\n\nsub_0: assembly {\n        /* \"submissions/0xFancy/day8.sol\":57:3704  contract TipJar{... */\n      mstore(0x40, 0x80)\n      jumpi(tag_1, lt(calldatasize, 0x04))\n      shr(0xe0, calldataload(0x00))\n      dup1\n      0x6de0938b\n      gt\n      tag_20\n      jumpi\n      dup1\n      0x9c88e42d\n      gt\n      tag_21\n      jumpi\n      dup1\n      0x9c88e42d\n      eq\n      tag_15\n      jumpi\n      dup1\n      0x9e5797ec\n      eq\n      tag_16\n      jumpi\n      dup1\n      0xb8443702\n      eq\n      tag_17\n      jumpi\n      dup1\n      0xe792fe59\n      eq\n      tag_18\n      jumpi\n      dup1\n      0xefe8c084\n      eq\n      tag_19\n      jumpi\n      jump(tag_1)\n    tag_21:\n      dup1\n      0x6de0938b\n      eq\n      tag_11\n      jumpi\n      dup1\n      0x6f9fb98a\n      eq\n      tag_12\n      jumpi\n      dup1\n      0x8da5cb5b\n      eq\n      tag_13\n      jumpi\n      dup1\n      0x98c4c713\n      eq\n      tag_14\n      jumpi\n      jump(tag_1)\n    tag_20:\n      dup1\n      0x264509f6\n      gt\n      tag_22\n      jumpi\n      dup1\n      0x264509f6\n      eq\n      tag_6\n      jumpi\n      dup1\n      0x2ce75863\n      eq\n      tag_7\n      jumpi\n      dup1\n      0x5c41fece\n      eq\n      tag_8\n      jumpi\n      dup1\n      0x5c49c825\n      eq\n      tag_9\n      jumpi\n      dup1\n      0x6416ef2d\n      eq\n      tag_10\n      jumpi\n      jump(tag_1)\n    tag_22:\n      dup1\n      0x0a5a1e9a\n      eq\n      tag_2\n      jumpi\n      dup1\n      0x0d9ba15f\n      eq\n      tag_3\n      jumpi\n      dup1\n      0x10e1d1d4\n      eq\n      tag_4\n      jumpi\n      dup1\n      0x1fac531b\n      eq\n      tag_5\n      jumpi\n    tag_1:\n      revert(0x00, 0x00)\n        /* \"submissions/0xFancy/day8.sol\":2375:2694  function withDrawTips() public onlyOwner{... */\n    tag_2:\n      callvalue\n      dup1\n      iszero\n      tag_23\n      jumpi\n      revert(0x00, 0x00)\n    tag_23:\n      pop\n      tag_24\n      tag_25\n      jump\t// in\n    tag_24:\n      stop\n        /* \"submissions/0xFancy/day8.sol\":293:342  mapping(string => uint256) public tipsPerCurrency */\n    tag_3:\n      callvalue\n      dup1\n      iszero\n      tag_26\n      jumpi\n      revert(0x00, 0x00)\n    tag_26:\n      pop\n      tag_27\n      0x04\n      dup1\n      calldatasize\n      sub\n      dup2\n      add\n      swap1\n      tag_28\n      swap2\n      swap1\n      tag_29\n      jump\t// in\n    tag_28:\n      tag_30\n      jump\t// in\n    tag_27:\n      mload(0x40)\n      tag_31\n      swap2\n      swap1\n      tag_32\n      jump\t// in\n    tag_31:\n      mload(0x40)\n      dup1\n      swap2\n      sub\n      swap1\n      return\n        /* \"submissions/0xFancy/day8.sol\":233:287  mapping(address => uint256) public tipperContributions */\n    tag_4:\n      callvalue\n      dup1\n      iszero\n      tag_33\n      jumpi\n      revert(0x00, 0x00)\n    tag_33:\n      pop\n      tag_34\n      0x04\n      dup1\n      calldatasize\n      sub\n      dup2\n      add\n      swap1\n      tag_35\n      swap2\n      swap1\n      tag_36\n      jump\t// in\n    tag_35:\n      tag_37\n      jump\t// in\n    tag_34:\n      mload(0x40)\n      tag_38\n      swap2\n      swap1\n      tag_32\n      jump\t// in\n    tag_38:\n      mload(0x40)\n      dup1\n      swap2\n      sub\n      swap1\n      return\n        /* \"submissions/0xFancy/day8.sol\":3482:3702  function getConversionRate(string memory _currencyCode) public view returns (uint256) {... */\n    tag_5:\n      callvalue\n      dup1\n      iszero\n      tag_39\n      jumpi\n      revert(0x00, 0x00)\n    tag_39:\n      pop\n      tag_40\n      0x04\n      dup1\n      calldatasize\n      sub\n      dup2\n      add\n      swap1\n      tag_41\n      swap2\n      swap1\n      tag_29\n      jump\t// in\n    tag_41:\n      tag_42\n      jump\t// in\n    tag_40:\n      mload(0x40)\n      tag_43\n      swap2\n      swap1\n      tag_32\n      jump\t// in\n    tag_43:\n      mload(0x40)\n      dup1\n      swap2\n      sub\n      swap1\n      return\n        /* \"submissions/0xFancy/day8.sol\":2700:2857  function ransferOwnerShip(address _newOwner) public onlyOwner{... */\n    tag_6:\n      callvalue\n      dup1\n      iszero\n      tag_44\n      jumpi\n      revert(0x00, 0x00)\n    tag_44:\n      pop\n      tag_45\n      0x04\n      dup1\n      calldatasize\n      sub\n      dup2\n      add\n      swap1\n      tag_46\n      swap2\n      swap1\n      tag_36\n      jump\t// in\n    tag_46:\n      tag_47\n      jump\t// in\n    tag_45:\n      stop\n        /* \"submissions/0xFancy/day8.sol\":2863:2976  function getSupportedCurrencies() public view returns (string[] memory) {... */\n    tag_7:\n      callvalue\n      dup1\n      iszero\n      tag_48\n      jumpi\n      revert(0x00, 0x00)\n    tag_48:\n      pop\n      tag_49\n      tag_50\n      jump\t// in\n    tag_49:\n      mload(0x40)\n      tag_51\n      swap2\n      swap1\n      tag_52\n      jump\t// in\n    tag_51:\n      mload(0x40)\n      dup1\n      swap2\n      sub\n      swap1\n      return\n        /* \"submissions/0xFancy/day8.sol\":104:150  mapping(string => uint) public conversionRates */\n    tag_8:\n      callvalue\n      dup1\n      iszero\n      tag_53\n      jumpi\n      revert(0x00, 0x00)\n    tag_53:\n      pop\n      tag_54\n      0x04\n      dup1\n      calldatasize\n      sub\n      dup2\n      add\n      swap1\n      tag_55\n      swap2\n      swap1\n      tag_29\n      jump\t// in\n    tag_55:\n      tag_56\n      jump\t// in\n    tag_54:\n      mload(0x40)\n      tag_57\n      swap2\n      swap1\n      tag_32\n      jump\t// in\n    tag_57:\n      mload(0x40)\n      dup1\n      swap2\n      sub\n      swap1\n      return\n        /* \"submissions/0xFancy/day8.sol\":471:1056  function addCurrency(string memory _currencyCode, uint256 _rateToEth) public onlyOwner{... */\n    tag_9:\n      callvalue\n      dup1\n      iszero\n      tag_58\n      jumpi\n      revert(0x00, 0x00)\n    tag_58:\n      pop\n      tag_59\n      0x04\n      dup1\n      calldatasize\n      sub\n      dup2\n      add\n      swap1\n      tag_60\n      swap2\n      swap1\n      tag_61\n      jump\t// in\n    tag_60:\n      tag_62\n      jump\t// in\n    tag_59:\n      stop\n        /* \"submissions/0xFancy/day8.sol\":156:189  string[] public supportCurrencies */\n    tag_10:\n      callvalue\n      dup1\n      iszero\n      tag_63\n      jumpi\n      revert(0x00, 0x00)\n    tag_63:\n      pop\n      tag_64\n      0x04\n      dup1\n      calldatasize\n      sub\n      dup2\n      add\n      swap1\n      tag_65\n      swap2\n      swap1\n      tag_66\n      jump\t// in\n    tag_65:\n      tag_67\n      jump\t// in\n    tag_64:\n      mload(0x40)\n      tag_68\n      swap2\n      swap1\n      tag_69\n      jump\t// in\n    tag_68:\n      mload(0x40)\n      dup1\n      swap2\n      sub\n      swap1\n      return\n        /* \"submissions/0xFancy/day8.sol\":1285:1563  function convertToEth(string memory _currencyCode, uint256 _amount) public  view returns(uint256){... */\n    tag_11:\n      callvalue\n      dup1\n      iszero\n      tag_70\n      jumpi\n      revert(0x00, 0x00)\n    tag_70:\n      pop\n      tag_71\n      0x04\n      dup1\n      calldatasize\n      sub\n      dup2\n      add\n      swap1\n      tag_72\n      swap2\n      swap1\n      tag_61\n      jump\t// in\n    tag_72:\n      tag_73\n      jump\t// in\n    tag_71:\n      mload(0x40)\n      tag_74\n      swap2\n      swap1\n      tag_32\n      jump\t// in\n    tag_74:\n      mload(0x40)\n      dup1\n      swap2\n      sub\n      swap1\n      return\n        /* \"submissions/0xFancy/day8.sol\":2982:3087  function getContractBalance() public view returns (uint256) {... */\n    tag_12:\n      callvalue\n      dup1\n      iszero\n      tag_75\n      jumpi\n      revert(0x00, 0x00)\n    tag_75:\n      pop\n      tag_76\n      tag_77\n      jump\t// in\n    tag_76:\n      mload(0x40)\n      tag_78\n      swap2\n      swap1\n      tag_32\n      jump\t// in\n    tag_78:\n      mload(0x40)\n      dup1\n      swap2\n      sub\n      swap1\n      return\n        /* \"submissions/0xFancy/day8.sol\":78:98  address public owner */\n    tag_13:\n      callvalue\n      dup1\n      iszero\n      tag_79\n      jumpi\n      revert(0x00, 0x00)\n    tag_79:\n      pop\n      tag_80\n      tag_81\n      jump\t// in\n    tag_80:\n      mload(0x40)\n      tag_82\n      swap2\n      swap1\n      tag_83\n      jump\t// in\n    tag_82:\n      mload(0x40)\n      dup1\n      swap2\n      sub\n      swap1\n      return\n        /* \"submissions/0xFancy/day8.sol\":3092:3223  function getTipperContributions(address _tipper) public view returns (uint256) {... */\n    tag_14:\n      callvalue\n      dup1\n      iszero\n      tag_84\n      jumpi\n      revert(0x00, 0x00)\n    tag_84:\n      pop\n      tag_85\n      0x04\n      dup1\n      calldatasize\n      sub\n      dup2\n      add\n      swap1\n      tag_86\n      swap2\n      swap1\n      tag_36\n      jump\t// in\n    tag_86:\n      tag_87\n      jump\t// in\n    tag_85:\n      mload(0x40)\n      tag_88\n      swap2\n      swap1\n      tag_32\n      jump\t// in\n    tag_88:\n      mload(0x40)\n      dup1\n      swap2\n      sub\n      swap1\n      return\n        /* \"submissions/0xFancy/day8.sol\":1832:2369  function tipInCurrency(string memory _currencyCode, uint _amount) public payable{... */\n    tag_15:\n      tag_89\n      0x04\n      dup1\n      calldatasize\n      sub\n      dup2\n      add\n      swap1\n      tag_90\n      swap2\n      swap1\n      tag_61\n      jump\t// in\n    tag_90:\n      tag_91\n      jump\t// in\n    tag_89:\n      stop\n        /* \"submissions/0xFancy/day8.sol\":3337:3477  function getTipPerCurrency(string memory _currencyCode) public view returns (uint256) {... */\n    tag_16:\n      callvalue\n      dup1\n      iszero\n      tag_92\n      jumpi\n      revert(0x00, 0x00)\n    tag_92:\n      pop\n      tag_93\n      0x04\n      dup1\n      calldatasize\n      sub\n      dup2\n      add\n      swap1\n      tag_94\n      swap2\n      swap1\n      tag_29\n      jump\t// in\n    tag_94:\n      tag_95\n      jump\t// in\n    tag_93:\n      mload(0x40)\n      tag_96\n      swap2\n      swap1\n      tag_32\n      jump\t// in\n    tag_96:\n      mload(0x40)\n      dup1\n      swap2\n      sub\n      swap1\n      return\n        /* \"submissions/0xFancy/day8.sol\":1569:1822  function tipInEth() public payable{... */\n    tag_17:\n      tag_97\n      tag_98\n      jump\t// in\n    tag_97:\n      stop\n        /* \"submissions/0xFancy/day8.sol\":3229:3332  function getTotalTipsReceived() public view returns (uint256) {... */\n    tag_18:\n      callvalue\n      dup1\n      iszero\n      tag_99\n      jumpi\n      revert(0x00, 0x00)\n    tag_99:\n      pop\n      tag_100\n      tag_101\n      jump\t// in\n    tag_100:\n      mload(0x40)\n      tag_102\n      swap2\n      swap1\n      tag_32\n      jump\t// in\n    tag_102:\n      mload(0x40)\n      dup1\n      swap2\n      sub\n      swap1\n      return\n        /* \"submissions/0xFancy/day8.sol\":195:227  uint256 public totalTipsReceived */\n    tag_19:\n      callvalue\n      dup1\n      iszero\n      tag_103\n      jumpi\n      revert(0x00, 0x00)\n    tag_103:\n      pop\n      tag_104\n      tag_105\n      jump\t// in\n    tag_104:\n      mload(0x40)\n      tag_106\n      swap2\n      swap1\n      tag_32\n      jump\t// in\n    tag_106:\n      mload(0x40)\n      dup1\n      swap2\n      sub\n      swap1\n      return\n        /* \"submissions/0xFancy/day8.sol\":2375:2694  function withDrawTips() public onlyOwner{... */\n    tag_25:\n        /* \"submissions/0xFancy/day8.sol\":401:406  owner */\n      0x00\n      0x00\n      swap1\n      sload\n      swap1\n      0x0100\n      exp\n      swap1\n      div\n      0xffffffffffffffffffffffffffffffffffffffff\n      and\n        /* \"submissions/0xFancy/day8.sol\":387:406  msg.sender == owner */\n      0xffffffffffffffffffffffffffffffffffffffff\n      and\n        /* \"submissions/0xFancy/day8.sol\":387:397  msg.sender */\n      caller\n        /* \"submissions/0xFancy/day8.sol\":387:406  msg.sender == owner */\n      0xffffffffffffffffffffffffffffffffffffffff\n      and\n      eq\n        /* \"submissions/0xFancy/day8.sol\":379:445  require(msg.sender == owner, \"Only owner can perform this action\") */\n      tag_108\n      jumpi\n      mload(0x40)\n      0x08c379a000000000000000000000000000000000000000000000000000000000\n      dup2\n      mstore\n      0x04\n      add\n      tag_109\n      swap1\n      tag_110\n      jump\t// in\n    tag_109:\n      mload(0x40)\n      dup1\n      swap2\n      sub\n      swap1\n      revert\n    tag_108:\n        /* \"submissions/0xFancy/day8.sol\":2425:2448  uint256 contractBalance */\n      0x00\n        /* \"submissions/0xFancy/day8.sol\":2451:2472  address(this).balance */\n      selfbalance\n        /* \"submissions/0xFancy/day8.sol\":2425:2472  uint256 contractBalance = address(this).balance */\n      swap1\n      pop\n        /* \"submissions/0xFancy/day8.sol\":2508:2509  0 */\n      0x00\n        /* \"submissions/0xFancy/day8.sol\":2490:2505  contractBalance */\n      dup2\n        /* \"submissions/0xFancy/day8.sol\":2490:2509  contractBalance > 0 */\n      gt\n        /* \"submissions/0xFancy/day8.sol\":2482:2534  require(contractBalance > 0, \"No tips to withdraw.\") */\n      tag_112\n      jumpi\n      mload(0x40)\n      0x08c379a000000000000000000000000000000000000000000000000000000000\n      dup2\n      mstore\n      0x04\n      add\n      tag_113\n      swap1\n      tag_114\n      jump\t// in\n    tag_113:\n      mload(0x40)\n      dup1\n      swap2\n      sub\n      swap1\n      revert\n    tag_112:\n        /* \"submissions/0xFancy/day8.sol\":2545:2557  bool success */\n      0x00\n        /* \"submissions/0xFancy/day8.sol\":2571:2576  owner */\n      0x00\n      0x00\n      swap1\n      sload\n      swap1\n      0x0100\n      exp\n      swap1\n      div\n      0xffffffffffffffffffffffffffffffffffffffff\n      and\n        /* \"submissions/0xFancy/day8.sol\":2563:2582  payable(owner).call */\n      0xffffffffffffffffffffffffffffffffffffffff\n      and\n        /* \"submissions/0xFancy/day8.sol\":2590:2605  contractBalance */\n      dup3\n        /* \"submissions/0xFancy/day8.sol\":2563:2610  payable(owner).call{value: contractBalance}(\"\") */\n      mload(0x40)\n      tag_115\n      swap1\n      tag_116\n      jump\t// in\n    tag_115:\n      0x00\n      mload(0x40)\n      dup1\n      dup4\n      sub\n      dup2\n      dup6\n      dup8\n      gas\n      call\n      swap3\n      pop\n      pop\n      pop\n      returndatasize\n      dup1\n      0x00\n      dup2\n      eq\n      tag_119\n      jumpi\n      mload(0x40)\n      swap2\n      pop\n      and(add(returndatasize, 0x3f), not(0x1f))\n      dup3\n      add\n      0x40\n      mstore\n      returndatasize\n      dup3\n      mstore\n      returndatasize\n      0x00\n      0x20\n      dup5\n      add\n      returndatacopy\n      jump(tag_118)\n    tag_119:\n      0x60\n      swap2\n      pop\n    tag_118:\n      pop\n        /* \"submissions/0xFancy/day8.sol\":2544:2610  (bool success, ) = payable(owner).call{value: contractBalance}(\"\") */\n      pop\n      swap1\n      pop\n        /* \"submissions/0xFancy/day8.sol\":2628:2635  success */\n      dup1\n        /* \"submissions/0xFancy/day8.sol\":2620:2656  require(success, \"Transfer Failed.\") */\n      tag_120\n      jumpi\n      mload(0x40)\n      0x08c379a000000000000000000000000000000000000000000000000000000000\n      dup2\n      mstore\n      0x04\n      add\n      tag_121\n      swap1\n      tag_122\n      jump\t// in\n    tag_121:\n      mload(0x40)\n      dup1\n      swap2\n      sub\n      swap1\n      revert\n    tag_120:\n        /* \"submissions/0xFancy/day8.sol\":2686:2687  0 */\n      0x00\n        /* \"submissions/0xFancy/day8.sol\":2666:2683  totalTipsReceived */\n      0x03\n        /* \"submissions/0xFancy/day8.sol\":2666:2687  totalTipsReceived = 0 */\n      dup2\n      swap1\n      sstore\n      pop\n        /* \"submissions/0xFancy/day8.sol\":2415:2694  {... */\n      pop\n      pop\n        /* \"submissions/0xFancy/day8.sol\":2375:2694  function withDrawTips() public onlyOwner{... */\n      jump\t// out\n        /* \"submissions/0xFancy/day8.sol\":293:342  mapping(string => uint256) public tipsPerCurrency */\n    tag_30:\n      0x05\n      dup2\n      dup1\n      mload\n      0x20\n      dup2\n      add\n      dup3\n      add\n      dup1\n      mload\n      dup5\n      dup3\n      mstore\n      0x20\n      dup4\n      add\n      0x20\n      dup6\n      add\n      keccak256\n      dup2\n      dup4\n      mstore\n      dup1\n      swap6\n      pop\n      pop\n      pop\n      pop\n      pop\n      pop\n      0x00\n      swap2\n      pop\n      swap1\n      pop\n      sload\n      dup2\n      jump\t// out\n        /* \"submissions/0xFancy/day8.sol\":233:287  mapping(address => uint256) public tipperContributions */\n    tag_37:\n      mstore(0x20, 0x04)\n      dup1\n      0x00\n      mstore\n      keccak256(0x00, 0x40)\n      0x00\n      swap2\n      pop\n      swap1\n      pop\n      sload\n      dup2\n      jump\t// out\n        /* \"submissions/0xFancy/day8.sol\":3482:3702  function getConversionRate(string memory _currencyCode) public view returns (uint256) {... */\n    tag_42:\n        /* \"submissions/0xFancy/day8.sol\":3559:3566  uint256 */\n      0x00\n        /* \"submissions/0xFancy/day8.sol\":3619:3620  0 */\n      0x00\n        /* \"submissions/0xFancy/day8.sol\":3586:3601  conversionRates */\n      0x01\n        /* \"submissions/0xFancy/day8.sol\":3602:3615  _currencyCode */\n      dup4\n        /* \"submissions/0xFancy/day8.sol\":3586:3616  conversionRates[_currencyCode] */\n      mload(0x40)\n      tag_124\n      swap2\n      swap1\n      tag_125\n      jump\t// in\n    tag_124:\n      swap1\n      dup2\n      mstore\n      0x20\n      add\n      mload(0x40)\n      dup1\n      swap2\n      sub\n      swap1\n      keccak256\n      sload\n        /* \"submissions/0xFancy/day8.sol\":3586:3620  conversionRates[_currencyCode] > 0 */\n      gt\n        /* \"submissions/0xFancy/day8.sol\":3578:3648  require(conversionRates[_currencyCode] > 0, \"Currency not supported.\") */\n      tag_126\n      jumpi\n      mload(0x40)\n      0x08c379a000000000000000000000000000000000000000000000000000000000\n      dup2\n      mstore\n      0x04\n      add\n      tag_127\n      swap1\n      tag_128\n      jump\t// in\n    tag_127:\n      mload(0x40)\n      dup1\n      swap2\n      sub\n      swap1\n      revert\n    tag_126:\n        /* \"submissions/0xFancy/day8.sol\":3665:3680  conversionRates */\n      0x01\n        /* \"submissions/0xFancy/day8.sol\":3681:3694  _currencyCode */\n      dup3\n        /* \"submissions/0xFancy/day8.sol\":3665:3695  conversionRates[_currencyCode] */\n      mload(0x40)\n      tag_129\n      swap2\n      swap1\n      tag_125\n      jump\t// in\n    tag_129:\n      swap1\n      dup2\n      mstore\n      0x20\n      add\n      mload(0x40)\n      dup1\n      swap2\n      sub\n      swap1\n      keccak256\n      sload\n        /* \"submissions/0xFancy/day8.sol\":3658:3695  return conversionRates[_currencyCode] */\n      swap1\n      pop\n        /* \"submissions/0xFancy/day8.sol\":3482:3702  function getConversionRate(string memory _currencyCode) public view returns (uint256) {... */\n      swap2\n      swap1\n      pop\n      jump\t// out\n        /* \"submissions/0xFancy/day8.sol\":2700:2857  function ransferOwnerShip(address _newOwner) public onlyOwner{... */\n    tag_47:\n        /* \"submissions/0xFancy/day8.sol\":401:406  owner */\n      0x00\n      0x00\n      swap1\n      sload\n      swap1\n      0x0100\n      exp\n      swap1\n      div\n      0xffffffffffffffffffffffffffffffffffffffff\n      and\n        /* \"submissions/0xFancy/day8.sol\":387:406  msg.sender == owner */\n      0xffffffffffffffffffffffffffffffffffffffff\n      and\n        /* \"submissions/0xFancy/day8.sol\":387:397  msg.sender */\n      caller\n        /* \"submissions/0xFancy/day8.sol\":387:406  msg.sender == owner */\n      0xffffffffffffffffffffffffffffffffffffffff\n      and\n      eq\n        /* \"submissions/0xFancy/day8.sol\":379:445  require(msg.sender == owner, \"Only owner can perform this action\") */\n      tag_131\n      jumpi\n      mload(0x40)\n      0x08c379a000000000000000000000000000000000000000000000000000000000\n      dup2\n      mstore\n      0x04\n      add\n      tag_132\n      swap1\n      tag_110\n      jump\t// in\n    tag_132:\n      mload(0x40)\n      dup1\n      swap2\n      sub\n      swap1\n      revert\n    tag_131:\n        /* \"submissions/0xFancy/day8.sol\":2800:2801  0 */\n      0x00\n        /* \"submissions/0xFancy/day8.sol\":2779:2802  _newOwner != address(0) */\n      0xffffffffffffffffffffffffffffffffffffffff\n      and\n        /* \"submissions/0xFancy/day8.sol\":2779:2788  _newOwner */\n      dup2\n        /* \"submissions/0xFancy/day8.sol\":2779:2802  _newOwner != address(0) */\n      0xffffffffffffffffffffffffffffffffffffffff\n      and\n      sub\n        /* \"submissions/0xFancy/day8.sol\":2771:2823  require(_newOwner != address(0), \"Invalid address.\") */\n      tag_134\n      jumpi\n      mload(0x40)\n      0x08c379a000000000000000000000000000000000000000000000000000000000\n      dup2\n      mstore\n      0x04\n      add\n      tag_135\n      swap1\n      tag_136\n      jump\t// in\n    tag_135:\n      mload(0x40)\n      dup1\n      swap2\n      sub\n      swap1\n      revert\n    tag_134:\n        /* \"submissions/0xFancy/day8.sol\":2841:2850  _newOwner */\n      dup1\n        /* \"submissions/0xFancy/day8.sol\":2833:2838  owner */\n      0x00\n      0x00\n        /* \"submissions/0xFancy/day8.sol\":2833:2850  owner = _newOwner */\n      0x0100\n      exp\n      dup2\n      sload\n      dup2\n      0xffffffffffffffffffffffffffffffffffffffff\n      mul\n      not\n      and\n      swap1\n      dup4\n      0xffffffffffffffffffffffffffffffffffffffff\n      and\n      mul\n      or\n      swap1\n      sstore\n      pop\n        /* \"submissions/0xFancy/day8.sol\":2700:2857  function ransferOwnerShip(address _newOwner) public onlyOwner{... */\n      pop\n      jump\t// out\n        /* \"submissions/0xFancy/day8.sol\":2863:2976  function getSupportedCurrencies() public view returns (string[] memory) {... */\n    tag_50:\n        /* \"submissions/0xFancy/day8.sol\":2918:2933  string[] memory */\n      0x60\n        /* \"submissions/0xFancy/day8.sol\":2952:2969  supportCurrencies */\n      0x02\n        /* \"submissions/0xFancy/day8.sol\":2945:2969  return supportCurrencies */\n      dup1\n      sload\n      dup1\n      0x20\n      mul\n      0x20\n      add\n      mload(0x40)\n      swap1\n      dup2\n      add\n      0x40\n      mstore\n      dup1\n      swap3\n      swap2\n      swap1\n      dup2\n      dup2\n      mstore\n      0x20\n      add\n      0x00\n      swap1\n    tag_138:\n      dup3\n      dup3\n      lt\n      iszero\n      tag_139\n      jumpi\n      dup4\n      dup3\n      swap1\n      0x00\n      mstore\n      keccak256(0x00, 0x20)\n      add\n      dup1\n      sload\n      tag_141\n      swap1\n      tag_142\n      jump\t// in\n    tag_141:\n      dup1\n      0x1f\n      add\n      0x20\n      dup1\n      swap2\n      div\n      mul\n      0x20\n      add\n      mload(0x40)\n      swap1\n      dup2\n      add\n      0x40\n      mstore\n      dup1\n      swap3\n      swap2\n      swap1\n      dup2\n      dup2\n      mstore\n      0x20\n      add\n      dup3\n      dup1\n      sload\n      tag_143\n      swap1\n      tag_142\n      jump\t// in\n    tag_143:\n      dup1\n      iszero\n      tag_144\n      jumpi\n      dup1\n      0x1f\n      lt\n      tag_145\n      jumpi\n      0x0100\n      dup1\n      dup4\n      sload\n      div\n      mul\n      dup4\n      mstore\n      swap2\n      0x20\n      add\n      swap2\n      jump(tag_144)\n    tag_145:\n      dup3\n      add\n      swap2\n      swap1\n      0x00\n      mstore\n      keccak256(0x00, 0x20)\n      swap1\n    tag_146:\n      dup2\n      sload\n      dup2\n      mstore\n      swap1\n      0x01\n      add\n      swap1\n      0x20\n      add\n      dup1\n      dup4\n      gt\n      tag_146\n      jumpi\n      dup3\n      swap1\n      sub\n      0x1f\n      and\n      dup3\n      add\n      swap2\n    tag_144:\n      pop\n      pop\n      pop\n      pop\n      pop\n      dup2\n      mstore\n      0x20\n      add\n      swap1\n      0x01\n      add\n      swap1\n      jump(tag_138)\n    tag_139:\n      pop\n      pop\n      pop\n      pop\n      swap1\n      pop\n        /* \"submissions/0xFancy/day8.sol\":2863:2976  function getSupportedCurrencies() public view returns (string[] memory) {... */\n      swap1\n      jump\t// out\n        /* \"submissions/0xFancy/day8.sol\":104:150  mapping(string => uint) public conversionRates */\n    tag_56:\n      0x01\n      dup2\n      dup1\n      mload\n      0x20\n      dup2\n      add\n      dup3\n      add\n      dup1\n      mload\n      dup5\n      dup3\n      mstore\n      0x20\n      dup4\n      add\n      0x20\n      dup6\n      add\n      keccak256\n      dup2\n      dup4\n      mstore\n      dup1\n      swap6\n      pop\n      pop\n      pop\n      pop\n      pop\n      pop\n      0x00\n      swap2\n      pop\n      swap1\n      pop\n      sload\n      dup2\n      jump\t// out\n        /* \"submissions/0xFancy/day8.sol\":471:1056  function addCurrency(string memory _currencyCode, uint256 _rateToEth) public onlyOwner{... */\n    tag_62:\n        /* \"submissions/0xFancy/day8.sol\":401:406  owner */\n      0x00\n      0x00\n      swap1\n      sload\n      swap1\n      0x0100\n      exp\n      swap1\n      div\n      0xffffffffffffffffffffffffffffffffffffffff\n      and\n        /* \"submissions/0xFancy/day8.sol\":387:406  msg.sender == owner */\n      0xffffffffffffffffffffffffffffffffffffffff\n      and\n        /* \"submissions/0xFancy/day8.sol\":387:397  msg.sender */\n      caller\n        /* \"submissions/0xFancy/day8.sol\":387:406  msg.sender == owner */\n      0xffffffffffffffffffffffffffffffffffffffff\n      and\n      eq\n        /* \"submissions/0xFancy/day8.sol\":379:445  require(msg.sender == owner, \"Only owner can perform this action\") */\n      tag_148\n      jumpi\n      mload(0x40)\n      0x08c379a000000000000000000000000000000000000000000000000000000000\n      dup2\n      mstore\n      0x04\n      add\n      tag_149\n      swap1\n      tag_110\n      jump\t// in\n    tag_149:\n      mload(0x40)\n      dup1\n      swap2\n      sub\n      swap1\n      revert\n    tag_148:\n        /* \"submissions/0xFancy/day8.sol\":588:589  0 */\n      0x00\n        /* \"submissions/0xFancy/day8.sol\":575:585  _rateToEth */\n      dup2\n        /* \"submissions/0xFancy/day8.sol\":575:589  _rateToEth > 0 */\n      gt\n        /* \"submissions/0xFancy/day8.sol\":567:631  require(_rateToEth > 0,\"Converion rate must be greater than 0.\") */\n      tag_151\n      jumpi\n      mload(0x40)\n      0x08c379a000000000000000000000000000000000000000000000000000000000\n      dup2\n      mstore\n      0x04\n      add\n      tag_152\n      swap1\n      tag_153\n      jump\t// in\n    tag_152:\n      mload(0x40)\n      dup1\n      swap2\n      sub\n      swap1\n      revert\n    tag_151:\n        /* \"submissions/0xFancy/day8.sol\":641:660  bool currenctExists */\n      0x00\n        /* \"submissions/0xFancy/day8.sol\":663:668  false */\n      0x00\n        /* \"submissions/0xFancy/day8.sol\":641:668  bool currenctExists = false */\n      swap1\n      pop\n        /* \"submissions/0xFancy/day8.sol\":683:689  uint i */\n      0x00\n        /* \"submissions/0xFancy/day8.sol\":692:693  0 */\n      0x00\n        /* \"submissions/0xFancy/day8.sol\":683:693  uint i = 0 */\n      swap1\n      pop\n        /* \"submissions/0xFancy/day8.sol\":678:1051  for (uint i = 0; i < supportCurrencies.length; i++){... */\n    tag_154:\n        /* \"submissions/0xFancy/day8.sol\":699:716  supportCurrencies */\n      0x02\n        /* \"submissions/0xFancy/day8.sol\":699:723  supportCurrencies.length */\n      dup1\n      sload\n      swap1\n      pop\n        /* \"submissions/0xFancy/day8.sol\":695:696  i */\n      dup2\n        /* \"submissions/0xFancy/day8.sol\":695:723  i < supportCurrencies.length */\n      lt\n        /* \"submissions/0xFancy/day8.sol\":678:1051  for (uint i = 0; i < supportCurrencies.length; i++){... */\n      iszero\n      tag_155\n      jumpi\n        /* \"submissions/0xFancy/day8.sol\":805:818  _currencyCode */\n      dup4\n        /* \"submissions/0xFancy/day8.sol\":789:820  keccak256(bytes(_currencyCode)) */\n      dup1\n      mload\n      swap1\n      0x20\n      add\n      keccak256\n        /* \"submissions/0xFancy/day8.sol\":762:779  supportCurrencies */\n      0x02\n        /* \"submissions/0xFancy/day8.sol\":780:781  i */\n      dup3\n        /* \"submissions/0xFancy/day8.sol\":762:782  supportCurrencies[i] */\n      dup2\n      sload\n      dup2\n      lt\n      tag_157\n      jumpi\n      tag_158\n      tag_159\n      jump\t// in\n    tag_158:\n    tag_157:\n      swap1\n      0x00\n      mstore\n      keccak256(0x00, 0x20)\n      add\n        /* \"submissions/0xFancy/day8.sol\":746:785  keccak256(bytes(supportCurrencies[i]) ) */\n      mload(0x40)\n      tag_161\n      swap2\n      swap1\n      tag_162\n      jump\t// in\n    tag_161:\n      mload(0x40)\n      dup1\n      swap2\n      sub\n      swap1\n      keccak256\n        /* \"submissions/0xFancy/day8.sol\":746:820  keccak256(bytes(supportCurrencies[i]) ) == keccak256(bytes(_currencyCode)) */\n      sub\n        /* \"submissions/0xFancy/day8.sol\":743:898  if(keccak256(bytes(supportCurrencies[i]) ) == keccak256(bytes(_currencyCode))){... */\n      tag_163\n      jumpi\n        /* \"submissions/0xFancy/day8.sol\":856:860  true */\n      0x01\n        /* \"submissions/0xFancy/day8.sol\":839:860  currenctExists = true */\n      swap2\n      pop\n        /* \"submissions/0xFancy/day8.sol\":878:883  break */\n      jump(tag_155)\n        /* \"submissions/0xFancy/day8.sol\":743:898  if(keccak256(bytes(supportCurrencies[i]) ) == keccak256(bytes(_currencyCode))){... */\n    tag_163:\n        /* \"submissions/0xFancy/day8.sol\":911:925  currenctExists */\n      dup2\n        /* \"submissions/0xFancy/day8.sol\":907:988  if(!currenctExists){... */\n      tag_164\n      jumpi\n        /* \"submissions/0xFancy/day8.sol\":940:957  supportCurrencies */\n      0x02\n        /* \"submissions/0xFancy/day8.sol\":963:976  _currencyCode */\n      dup5\n        /* \"submissions/0xFancy/day8.sol\":940:977  supportCurrencies.push(_currencyCode) */\n      swap1\n      dup1\n      0x01\n      dup2\n      sload\n      add\n      dup1\n      dup3\n      sstore\n      dup1\n      swap2\n      pop\n      pop\n      0x01\n      swap1\n      sub\n      swap1\n      0x00\n      mstore\n      keccak256(0x00, 0x20)\n      add\n      0x00\n      swap1\n      swap2\n      swap1\n      swap2\n      swap1\n      swap2\n      pop\n      swap1\n      dup2\n      tag_166\n      swap2\n      swap1\n      tag_167\n      jump\t// in\n    tag_166:\n      pop\n        /* \"submissions/0xFancy/day8.sol\":907:988  if(!currenctExists){... */\n    tag_164:\n        /* \"submissions/0xFancy/day8.sol\":1030:1040  _rateToEth */\n      dup3\n        /* \"submissions/0xFancy/day8.sol\":997:1012  conversionRates */\n      0x01\n        /* \"submissions/0xFancy/day8.sol\":1013:1026  _currencyCode */\n      dup6\n        /* \"submissions/0xFancy/day8.sol\":997:1027  conversionRates[_currencyCode] */\n      mload(0x40)\n      tag_168\n      swap2\n      swap1\n      tag_125\n      jump\t// in\n    tag_168:\n      swap1\n      dup2\n      mstore\n      0x20\n      add\n      mload(0x40)\n      dup1\n      swap2\n      sub\n      swap1\n      keccak256\n        /* \"submissions/0xFancy/day8.sol\":997:1040  conversionRates[_currencyCode] = _rateToEth */\n      dup2\n      swap1\n      sstore\n      pop\n        /* \"submissions/0xFancy/day8.sol\":725:728  i++ */\n      dup1\n      dup1\n      0x01\n      add\n      swap2\n      pop\n      pop\n        /* \"submissions/0xFancy/day8.sol\":678:1051  for (uint i = 0; i < supportCurrencies.length; i++){... */\n      jump(tag_154)\n    tag_155:\n      pop\n        /* \"submissions/0xFancy/day8.sol\":557:1056  {... */\n      pop\n        /* \"submissions/0xFancy/day8.sol\":471:1056  function addCurrency(string memory _currencyCode, uint256 _rateToEth) public onlyOwner{... */\n      pop\n      pop\n      jump\t// out\n        /* \"submissions/0xFancy/day8.sol\":156:189  string[] public supportCurrencies */\n    tag_67:\n      0x02\n      dup2\n      dup2\n      sload\n      dup2\n      lt\n      tag_169\n      jumpi\n      0x00\n      dup1\n      revert\n    tag_169:\n      swap1\n      0x00\n      mstore\n      keccak256(0x00, 0x20)\n      add\n      0x00\n      swap2\n      pop\n      swap1\n      pop\n      dup1\n      sload\n      tag_171\n      swap1\n      tag_142\n      jump\t// in\n    tag_171:\n      dup1\n      0x1f\n      add\n      0x20\n      dup1\n      swap2\n      div\n      mul\n      0x20\n      add\n      mload(0x40)\n      swap1\n      dup2\n      add\n      0x40\n      mstore\n      dup1\n      swap3\n      swap2\n      swap1\n      dup2\n      dup2\n      mstore\n      0x20\n      add\n      dup3\n      dup1\n      sload\n      tag_172\n      swap1\n      tag_142\n      jump\t// in\n    tag_172:\n      dup1\n      iszero\n      tag_173\n      jumpi\n      dup1\n      0x1f\n      lt\n      tag_174\n      jumpi\n      0x0100\n      dup1\n      dup4\n      sload\n      div\n      mul\n      dup4\n      mstore\n      swap2\n      0x20\n      add\n      swap2\n      jump(tag_173)\n    tag_174:\n      dup3\n      add\n      swap2\n      swap1\n      0x00\n      mstore\n      keccak256(0x00, 0x20)\n      swap1\n    tag_175:\n      dup2\n      sload\n      dup2\n      mstore\n      swap1\n      0x01\n      add\n      swap1\n      0x20\n      add\n      dup1\n      dup4\n      gt\n      tag_175\n      jumpi\n      dup3\n      swap1\n      sub\n      0x1f\n      and\n      dup3\n      add\n      swap2\n    tag_173:\n      pop\n      pop\n      pop\n      pop\n      pop\n      dup2\n      jump\t// out\n        /* \"submissions/0xFancy/day8.sol\":1285:1563  function convertToEth(string memory _currencyCode, uint256 _amount) public  view returns(uint256){... */\n    tag_73:\n        /* \"submissions/0xFancy/day8.sol\":1374:1381  uint256 */\n      0x00\n        /* \"submissions/0xFancy/day8.sol\":1433:1434  0 */\n      0x00\n        /* \"submissions/0xFancy/day8.sol\":1400:1415  conversionRates */\n      0x01\n        /* \"submissions/0xFancy/day8.sol\":1416:1429  _currencyCode */\n      dup5\n        /* \"submissions/0xFancy/day8.sol\":1400:1430  conversionRates[_currencyCode] */\n      mload(0x40)\n      tag_177\n      swap2\n      swap1\n      tag_125\n      jump\t// in\n    tag_177:\n      swap1\n      dup2\n      mstore\n      0x20\n      add\n      mload(0x40)\n      dup1\n      swap2\n      sub\n      swap1\n      keccak256\n      sload\n        /* \"submissions/0xFancy/day8.sol\":1400:1434  conversionRates[_currencyCode] > 0 */\n      gt\n        /* \"submissions/0xFancy/day8.sol\":1392:1460  require(conversionRates[_currencyCode] > 0, \"Currency not support.\") */\n      tag_178\n      jumpi\n      mload(0x40)\n      0x08c379a000000000000000000000000000000000000000000000000000000000\n      dup2\n      mstore\n      0x04\n      add\n      tag_179\n      swap1\n      tag_180\n      jump\t// in\n    tag_179:\n      mload(0x40)\n      dup1\n      swap2\n      sub\n      swap1\n      revert\n    tag_178:\n        /* \"submissions/0xFancy/day8.sol\":1470:1487  uint256 ethAmount */\n      0x00\n        /* \"submissions/0xFancy/day8.sol\":1500:1515  conversionRates */\n      0x01\n        /* \"submissions/0xFancy/day8.sol\":1516:1529  _currencyCode */\n      dup5\n        /* \"submissions/0xFancy/day8.sol\":1500:1530  conversionRates[_currencyCode] */\n      mload(0x40)\n      tag_181\n      swap2\n      swap1\n      tag_125\n      jump\t// in\n    tag_181:\n      swap1\n      dup2\n      mstore\n      0x20\n      add\n      mload(0x40)\n      dup1\n      swap2\n      sub\n      swap1\n      keccak256\n      sload\n        /* \"submissions/0xFancy/day8.sol\":1490:1497  _amount */\n      dup4\n        /* \"submissions/0xFancy/day8.sol\":1490:1530  _amount * conversionRates[_currencyCode] */\n      tag_182\n      swap2\n      swap1\n      tag_183\n      jump\t// in\n    tag_182:\n        /* \"submissions/0xFancy/day8.sol\":1470:1530  uint256 ethAmount = _amount * conversionRates[_currencyCode] */\n      swap1\n      pop\n        /* \"submissions/0xFancy/day8.sol\":1547:1556  ethAmount */\n      dup1\n        /* \"submissions/0xFancy/day8.sol\":1540:1556  return ethAmount */\n      swap2\n      pop\n      pop\n        /* \"submissions/0xFancy/day8.sol\":1285:1563  function convertToEth(string memory _currencyCode, uint256 _amount) public  view returns(uint256){... */\n      swap3\n      swap2\n      pop\n      pop\n      jump\t// out\n        /* \"submissions/0xFancy/day8.sol\":2982:3087  function getContractBalance() public view returns (uint256) {... */\n    tag_77:\n        /* \"submissions/0xFancy/day8.sol\":3033:3040  uint256 */\n      0x00\n        /* \"submissions/0xFancy/day8.sol\":3059:3080  address(this).balance */\n      selfbalance\n        /* \"submissions/0xFancy/day8.sol\":3052:3080  return address(this).balance */\n      swap1\n      pop\n        /* \"submissions/0xFancy/day8.sol\":2982:3087  function getContractBalance() public view returns (uint256) {... */\n      swap1\n      jump\t// out\n        /* \"submissions/0xFancy/day8.sol\":78:98  address public owner */\n    tag_81:\n      0x00\n      0x00\n      swap1\n      sload\n      swap1\n      0x0100\n      exp\n      swap1\n      div\n      0xffffffffffffffffffffffffffffffffffffffff\n      and\n      dup2\n      jump\t// out\n        /* \"submissions/0xFancy/day8.sol\":3092:3223  function getTipperContributions(address _tipper) public view returns (uint256) {... */\n    tag_87:\n        /* \"submissions/0xFancy/day8.sol\":3162:3169  uint256 */\n      0x00\n        /* \"submissions/0xFancy/day8.sol\":3188:3207  tipperContributions */\n      0x04\n        /* \"submissions/0xFancy/day8.sol\":3188:3216  tipperContributions[_tipper] */\n      0x00\n        /* \"submissions/0xFancy/day8.sol\":3208:3215  _tipper */\n      dup4\n        /* \"submissions/0xFancy/day8.sol\":3188:3216  tipperContributions[_tipper] */\n      0xffffffffffffffffffffffffffffffffffffffff\n      and\n      0xffffffffffffffffffffffffffffffffffffffff\n      and\n      dup2\n      mstore\n      0x20\n      add\n      swap1\n      dup2\n      mstore\n      0x20\n      add\n      0x00\n      keccak256\n      sload\n        /* \"submissions/0xFancy/day8.sol\":3181:3216  return tipperContributions[_tipper] */\n      swap1\n      pop\n        /* \"submissions/0xFancy/day8.sol\":3092:3223  function getTipperContributions(address _tipper) public view returns (uint256) {... */\n      swap2\n      swap1\n      pop\n      jump\t// out\n        /* \"submissions/0xFancy/day8.sol\":1832:2369  function tipInCurrency(string memory _currencyCode, uint _amount) public payable{... */\n    tag_91:\n        /* \"submissions/0xFancy/day8.sol\":1963:1964  0 */\n      0x00\n        /* \"submissions/0xFancy/day8.sol\":1930:1945  conversionRates */\n      0x01\n        /* \"submissions/0xFancy/day8.sol\":1946:1959  _currencyCode */\n      dup4\n        /* \"submissions/0xFancy/day8.sol\":1930:1960  conversionRates[_currencyCode] */\n      mload(0x40)\n      tag_187\n      swap2\n      swap1\n      tag_125\n      jump\t// in\n    tag_187:\n      swap1\n      dup2\n      mstore\n      0x20\n      add\n      mload(0x40)\n      dup1\n      swap2\n      sub\n      swap1\n      keccak256\n      sload\n        /* \"submissions/0xFancy/day8.sol\":1930:1964  conversionRates[_currencyCode] > 0 */\n      gt\n        /* \"submissions/0xFancy/day8.sol\":1922:1990  require(conversionRates[_currencyCode] > 0, \"Currency not support.\") */\n      tag_188\n      jumpi\n      mload(0x40)\n      0x08c379a000000000000000000000000000000000000000000000000000000000\n      dup2\n      mstore\n      0x04\n      add\n      tag_189\n      swap1\n      tag_180\n      jump\t// in\n    tag_189:\n      mload(0x40)\n      dup1\n      swap2\n      sub\n      swap1\n      revert\n    tag_188:\n        /* \"submissions/0xFancy/day8.sol\":2018:2019  0 */\n      0x00\n        /* \"submissions/0xFancy/day8.sol\":2008:2015  _amount */\n      dup2\n        /* \"submissions/0xFancy/day8.sol\":2008:2019  _amount > 0 */\n      gt\n        /* \"submissions/0xFancy/day8.sol\":2000:2061  require(_amount > 0, \"Tip amount must be greater than zero.\") */\n      tag_190\n      jumpi\n      mload(0x40)\n      0x08c379a000000000000000000000000000000000000000000000000000000000\n      dup2\n      mstore\n      0x04\n      add\n      tag_191\n      swap1\n      tag_192\n      jump\t// in\n    tag_191:\n      mload(0x40)\n      dup1\n      swap2\n      sub\n      swap1\n      revert\n    tag_190:\n        /* \"submissions/0xFancy/day8.sol\":2072:2089  uint256 ethAmount */\n      0x00\n        /* \"submissions/0xFancy/day8.sol\":2092:2128  convertToEth(_currencyCode, _amount) */\n      tag_193\n        /* \"submissions/0xFancy/day8.sol\":2105:2118  _currencyCode */\n      dup4\n        /* \"submissions/0xFancy/day8.sol\":2120:2127  _amount */\n      dup4\n        /* \"submissions/0xFancy/day8.sol\":2092:2104  convertToEth */\n      tag_73\n        /* \"submissions/0xFancy/day8.sol\":2092:2128  convertToEth(_currencyCode, _amount) */\n      jump\t// in\n    tag_193:\n        /* \"submissions/0xFancy/day8.sol\":2072:2128  uint256 ethAmount = convertToEth(_currencyCode, _amount) */\n      swap1\n      pop\n        /* \"submissions/0xFancy/day8.sol\":2159:2168  ethAmount */\n      dup1\n        /* \"submissions/0xFancy/day8.sol\":2146:2155  msg.value */\n      callvalue\n        /* \"submissions/0xFancy/day8.sol\":2146:2168  msg.value == ethAmount */\n      eq\n        /* \"submissions/0xFancy/day8.sol\":2138:2217  require(msg.value == ethAmount, \"Sent ETH doesn't match the converted amount.\") */\n      tag_194\n      jumpi\n      mload(0x40)\n      0x08c379a000000000000000000000000000000000000000000000000000000000\n      dup2\n      mstore\n      0x04\n      add\n      tag_195\n      swap1\n      tag_196\n      jump\t// in\n    tag_195:\n      mload(0x40)\n      dup1\n      swap2\n      sub\n      swap1\n      revert\n    tag_194:\n        /* \"submissions/0xFancy/day8.sol\":2262:2271  msg.value */\n      callvalue\n        /* \"submissions/0xFancy/day8.sol\":2227:2246  tipperContributions */\n      0x04\n        /* \"submissions/0xFancy/day8.sol\":2227:2258  tipperContributions[msg.sender] */\n      0x00\n        /* \"submissions/0xFancy/day8.sol\":2247:2257  msg.sender */\n      caller\n        /* \"submissions/0xFancy/day8.sol\":2227:2258  tipperContributions[msg.sender] */\n      0xffffffffffffffffffffffffffffffffffffffff\n      and\n      0xffffffffffffffffffffffffffffffffffffffff\n      and\n      dup2\n      mstore\n      0x20\n      add\n      swap1\n      dup2\n      mstore\n      0x20\n      add\n      0x00\n      keccak256\n      0x00\n        /* \"submissions/0xFancy/day8.sol\":2227:2271  tipperContributions[msg.sender] += msg.value */\n      dup3\n      dup3\n      sload\n      tag_197\n      swap2\n      swap1\n      tag_198\n      jump\t// in\n    tag_197:\n      swap3\n      pop\n      pop\n      dup2\n      swap1\n      sstore\n      pop\n        /* \"submissions/0xFancy/day8.sol\":2302:2311  msg.value */\n      callvalue\n        /* \"submissions/0xFancy/day8.sol\":2281:2298  totalTipsReceived */\n      0x03\n      0x00\n        /* \"submissions/0xFancy/day8.sol\":2281:2311  totalTipsReceived += msg.value */\n      dup3\n      dup3\n      sload\n      tag_199\n      swap2\n      swap1\n      tag_198\n      jump\t// in\n    tag_199:\n      swap3\n      pop\n      pop\n      dup2\n      swap1\n      sstore\n      pop\n        /* \"submissions/0xFancy/day8.sol\":2355:2362  _amount */\n      dup2\n        /* \"submissions/0xFancy/day8.sol\":2321:2336  tipsPerCurrency */\n      0x05\n        /* \"submissions/0xFancy/day8.sol\":2337:2350  _currencyCode */\n      dup5\n        /* \"submissions/0xFancy/day8.sol\":2321:2351  tipsPerCurrency[_currencyCode] */\n      mload(0x40)\n      tag_200\n      swap2\n      swap1\n      tag_125\n      jump\t// in\n    tag_200:\n      swap1\n      dup2\n      mstore\n      0x20\n      add\n      mload(0x40)\n      dup1\n      swap2\n      sub\n      swap1\n      keccak256\n      0x00\n        /* \"submissions/0xFancy/day8.sol\":2321:2362  tipsPerCurrency[_currencyCode] += _amount */\n      dup3\n      dup3\n      sload\n      tag_201\n      swap2\n      swap1\n      tag_198\n      jump\t// in\n    tag_201:\n      swap3\n      pop\n      pop\n      dup2\n      swap1\n      sstore\n      pop\n        /* \"submissions/0xFancy/day8.sol\":1912:2369  {... */\n      pop\n        /* \"submissions/0xFancy/day8.sol\":1832:2369  function tipInCurrency(string memory _currencyCode, uint _amount) public payable{... */\n      pop\n      pop\n      jump\t// out\n        /* \"submissions/0xFancy/day8.sol\":3337:3477  function getTipPerCurrency(string memory _currencyCode) public view returns (uint256) {... */\n    tag_95:\n        /* \"submissions/0xFancy/day8.sol\":3414:3421  uint256 */\n      0x00\n        /* \"submissions/0xFancy/day8.sol\":3440:3455  tipsPerCurrency */\n      0x05\n        /* \"submissions/0xFancy/day8.sol\":3456:3469  _currencyCode */\n      dup3\n        /* \"submissions/0xFancy/day8.sol\":3440:3470  tipsPerCurrency[_currencyCode] */\n      mload(0x40)\n      tag_203\n      swap2\n      swap1\n      tag_125\n      jump\t// in\n    tag_203:\n      swap1\n      dup2\n      mstore\n      0x20\n      add\n      mload(0x40)\n      dup1\n      swap2\n      sub\n      swap1\n      keccak256\n      sload\n        /* \"submissions/0xFancy/day8.sol\":3433:3470  return tipsPerCurrency[_currencyCode] */\n      swap1\n      pop\n        /* \"submissions/0xFancy/day8.sol\":3337:3477  function getTipPerCurrency(string memory _currencyCode) public view returns (uint256) {... */\n      swap2\n      swap1\n      pop\n      jump\t// out\n        /* \"submissions/0xFancy/day8.sol\":1569:1822  function tipInEth() public payable{... */\n    tag_98:\n        /* \"submissions/0xFancy/day8.sol\":1633:1634  0 */\n      0x00\n        /* \"submissions/0xFancy/day8.sol\":1621:1630  msg.value */\n      callvalue\n        /* \"submissions/0xFancy/day8.sol\":1621:1634  msg.value > 0 */\n      gt\n        /* \"submissions/0xFancy/day8.sol\":1613:1676  require(msg.value > 0, \"Tip amount must be greater than zero.\") */\n      tag_205\n      jumpi\n      mload(0x40)\n      0x08c379a000000000000000000000000000000000000000000000000000000000\n      dup2\n      mstore\n      0x04\n      add\n      tag_206\n      swap1\n      tag_192\n      jump\t// in\n    tag_206:\n      mload(0x40)\n      dup1\n      swap2\n      sub\n      swap1\n      revert\n    tag_205:\n        /* \"submissions/0xFancy/day8.sol\":1721:1730  msg.value */\n      callvalue\n        /* \"submissions/0xFancy/day8.sol\":1686:1705  tipperContributions */\n      0x04\n        /* \"submissions/0xFancy/day8.sol\":1686:1717  tipperContributions[msg.sender] */\n      0x00\n        /* \"submissions/0xFancy/day8.sol\":1706:1716  msg.sender */\n      caller\n        /* \"submissions/0xFancy/day8.sol\":1686:1717  tipperContributions[msg.sender] */\n      0xffffffffffffffffffffffffffffffffffffffff\n      and\n      0xffffffffffffffffffffffffffffffffffffffff\n      and\n      dup2\n      mstore\n      0x20\n      add\n      swap1\n      dup2\n      mstore\n      0x20\n      add\n      0x00\n      keccak256\n      0x00\n        /* \"submissions/0xFancy/day8.sol\":1686:1730  tipperContributions[msg.sender] += msg.value */\n      dup3\n      dup3\n      sload\n      tag_207\n      swap2\n      swap1\n      tag_198\n      jump\t// in\n    tag_207:\n      swap3\n      pop\n      pop\n      dup2\n      swap1\n      sstore\n      pop\n        /* \"submissions/0xFancy/day8.sol\":1761:1770  msg.value */\n      callvalue\n        /* \"submissions/0xFancy/day8.sol\":1740:1757  totalTipsReceived */\n      0x03\n      0x00\n        /* \"submissions/0xFancy/day8.sol\":1740:1770  totalTipsReceived += msg.value */\n      dup3\n      dup3\n      sload\n      tag_208\n      swap2\n      swap1\n      tag_198\n      jump\t// in\n    tag_208:\n      swap3\n      pop\n      pop\n      dup2\n      swap1\n      sstore\n      pop\n        /* \"submissions/0xFancy/day8.sol\":1806:1815  msg.value */\n      callvalue\n        /* \"submissions/0xFancy/day8.sol\":1780:1795  tipsPerCurrency */\n      0x05\n        /* \"submissions/0xFancy/day8.sol\":1780:1802  tipsPerCurrency[\"ETH\"] */\n      mload(0x40)\n      tag_209\n      swap1\n      tag_210\n      jump\t// in\n    tag_209:\n      swap1\n      dup2\n      mstore\n      0x20\n      add\n      mload(0x40)\n      dup1\n      swap2\n      sub\n      swap1\n      keccak256\n      0x00\n        /* \"submissions/0xFancy/day8.sol\":1780:1815  tipsPerCurrency[\"ETH\"] += msg.value */\n      dup3\n      dup3\n      sload\n      tag_211\n      swap2\n      swap1\n      tag_198\n      jump\t// in\n    tag_211:\n      swap3\n      pop\n      pop\n      dup2\n      swap1\n      sstore\n      pop\n        /* \"submissions/0xFancy/day8.sol\":1569:1822  function tipInEth() public payable{... */\n      jump\t// out\n        /* \"submissions/0xFancy/day8.sol\":3229:3332  function getTotalTipsReceived() public view returns (uint256) {... */\n    tag_101:\n        /* \"submissions/0xFancy/day8.sol\":3282:3289  uint256 */\n      0x00\n        /* \"submissions/0xFancy/day8.sol\":3308:3325  totalTipsReceived */\n      sload(0x03)\n        /* \"submissions/0xFancy/day8.sol\":3301:3325  return totalTipsReceived */\n      swap1\n      pop\n        /* \"submissions/0xFancy/day8.sol\":3229:3332  function getTotalTipsReceived() public view returns (uint256) {... */\n      swap1\n      jump\t// out\n        /* \"submissions/0xFancy/day8.sol\":195:227  uint256 public totalTipsReceived */\n    tag_105:\n      sload(0x03)\n      dup2\n      jump\t// out\n        /* \"#utility.yul\":7:82   */\n    tag_213:\n        /* \"#utility.yul\":40:46   */\n      0x00\n        /* \"#utility.yul\":73:75   */\n      0x40\n        /* \"#utility.yul\":67:76   */\n      mload\n        /* \"#utility.yul\":57:76   */\n      swap1\n      pop\n        /* \"#utility.yul\":7:82   */\n      swap1\n      jump\t// out\n        /* \"#utility.yul\":88:205   */\n    tag_214:\n        /* \"#utility.yul\":197:198   */\n      0x00\n        /* \"#utility.yul\":194:195   */\n      0x00\n        /* \"#utility.yul\":187:199   */\n      revert\n        /* \"#utility.yul\":211:328   */\n    tag_215:\n        /* \"#utility.yul\":320:321   */\n      0x00\n        /* \"#utility.yul\":317:318   */\n      0x00\n        /* \"#utility.yul\":310:322   */\n      revert\n        /* \"#utility.yul\":334:451   */\n    tag_216:\n        /* \"#utility.yul\":443:444   */\n      0x00\n        /* \"#utility.yul\":440:441   */\n      0x00\n        /* \"#utility.yul\":433:445   */\n      revert\n        /* \"#utility.yul\":457:574   */\n    tag_217:\n        /* \"#utility.yul\":566:567   */\n      0x00\n        /* \"#utility.yul\":563:564   */\n      0x00\n        /* \"#utility.yul\":556:568   */\n      revert\n        /* \"#utility.yul\":580:682   */\n    tag_218:\n        /* \"#utility.yul\":621:627   */\n      0x00\n        /* \"#utility.yul\":672:674   */\n      0x1f\n        /* \"#utility.yul\":668:675   */\n      not\n        /* \"#utility.yul\":663:665   */\n      0x1f\n        /* \"#utility.yul\":656:661   */\n      dup4\n        /* \"#utility.yul\":652:666   */\n      add\n        /* \"#utility.yul\":648:676   */\n      and\n        /* \"#utility.yul\":638:676   */\n      swap1\n      pop\n        /* \"#utility.yul\":580:682   */\n      swap2\n      swap1\n      pop\n      jump\t// out\n        /* \"#utility.yul\":688:868   */\n    tag_219:\n        /* \"#utility.yul\":736:813   */\n      0x4e487b7100000000000000000000000000000000000000000000000000000000\n        /* \"#utility.yul\":733:734   */\n      0x00\n        /* \"#utility.yul\":726:814   */\n      mstore\n        /* \"#utility.yul\":833:837   */\n      0x41\n        /* \"#utility.yul\":830:831   */\n      0x04\n        /* \"#utility.yul\":823:838   */\n      mstore\n        /* \"#utility.yul\":857:861   */\n      0x24\n        /* \"#utility.yul\":854:855   */\n      0x00\n        /* \"#utility.yul\":847:862   */\n      revert\n        /* \"#utility.yul\":874:1155   */\n    tag_220:\n        /* \"#utility.yul\":957:984   */\n      tag_300\n        /* \"#utility.yul\":979:983   */\n      dup3\n        /* \"#utility.yul\":957:984   */\n      tag_218\n      jump\t// in\n    tag_300:\n        /* \"#utility.yul\":949:955   */\n      dup2\n        /* \"#utility.yul\":945:985   */\n      add\n        /* \"#utility.yul\":1087:1093   */\n      dup2\n        /* \"#utility.yul\":1075:1085   */\n      dup2\n        /* \"#utility.yul\":1072:1094   */\n      lt\n        /* \"#utility.yul\":1051:1069   */\n      0xffffffffffffffff\n        /* \"#utility.yul\":1039:1049   */\n      dup3\n        /* \"#utility.yul\":1036:1070   */\n      gt\n        /* \"#utility.yul\":1033:1095   */\n      or\n        /* \"#utility.yul\":1030:1118   */\n      iszero\n      tag_301\n      jumpi\n        /* \"#utility.yul\":1098:1116   */\n      tag_302\n      tag_219\n      jump\t// in\n    tag_302:\n        /* \"#utility.yul\":1030:1118   */\n    tag_301:\n        /* \"#utility.yul\":1138:1148   */\n      dup1\n        /* \"#utility.yul\":1134:1136   */\n      0x40\n        /* \"#utility.yul\":1127:1149   */\n      mstore\n        /* \"#utility.yul\":917:1155   */\n      pop\n        /* \"#utility.yul\":874:1155   */\n      pop\n      pop\n      jump\t// out\n        /* \"#utility.yul\":1161:1290   */\n    tag_221:\n        /* \"#utility.yul\":1195:1201   */\n      0x00\n        /* \"#utility.yul\":1222:1242   */\n      tag_304\n      tag_213\n      jump\t// in\n    tag_304:\n        /* \"#utility.yul\":1212:1242   */\n      swap1\n      pop\n        /* \"#utility.yul\":1251:1284   */\n      tag_305\n        /* \"#utility.yul\":1279:1283   */\n      dup3\n        /* \"#utility.yul\":1271:1277   */\n      dup3\n        /* \"#utility.yul\":1251:1284   */\n      tag_220\n      jump\t// in\n    tag_305:\n        /* \"#utility.yul\":1161:1290   */\n      swap2\n      swap1\n      pop\n      jump\t// out\n        /* \"#utility.yul\":1296:1604   */\n    tag_222:\n        /* \"#utility.yul\":1358:1362   */\n      0x00\n        /* \"#utility.yul\":1448:1466   */\n      0xffffffffffffffff\n        /* \"#utility.yul\":1440:1446   */\n      dup3\n        /* \"#utility.yul\":1437:1467   */\n      gt\n        /* \"#utility.yul\":1434:1490   */\n      iszero\n      tag_307\n      jumpi\n        /* \"#utility.yul\":1470:1488   */\n      tag_308\n      tag_219\n      jump\t// in\n    tag_308:\n        /* \"#utility.yul\":1434:1490   */\n    tag_307:\n        /* \"#utility.yul\":1508:1537   */\n      tag_309\n        /* \"#utility.yul\":1530:1536   */\n      dup3\n        /* \"#utility.yul\":1508:1537   */\n      tag_218\n      jump\t// in\n    tag_309:\n        /* \"#utility.yul\":1500:1537   */\n      swap1\n      pop\n        /* \"#utility.yul\":1592:1596   */\n      0x20\n        /* \"#utility.yul\":1586:1590   */\n      dup2\n        /* \"#utility.yul\":1582:1597   */\n      add\n        /* \"#utility.yul\":1574:1597   */\n      swap1\n      pop\n        /* \"#utility.yul\":1296:1604   */\n      swap2\n      swap1\n      pop\n      jump\t// out\n        /* \"#utility.yul\":1610:1758   */\n    tag_223:\n        /* \"#utility.yul\":1708:1714   */\n      dup3\n        /* \"#utility.yul\":1703:1706   */\n      dup2\n        /* \"#utility.yul\":1698:1701   */\n      dup4\n        /* \"#utility.yul\":1685:1715   */\n      calldatacopy\n        /* \"#utility.yul\":1749:1750   */\n      0x00\n        /* \"#utility.yul\":1740:1746   */\n      dup4\n        /* \"#utility.yul\":1735:1738   */\n      dup4\n        /* \"#utility.yul\":1731:1747   */\n      add\n        /* \"#utility.yul\":1724:1751   */\n      mstore\n        /* \"#utility.yul\":1610:1758   */\n      pop\n      pop\n      pop\n      jump\t// out\n        /* \"#utility.yul\":1764:2189   */\n    tag_224:\n        /* \"#utility.yul\":1842:1847   */\n      0x00\n        /* \"#utility.yul\":1867:1933   */\n      tag_312\n        /* \"#utility.yul\":1883:1932   */\n      tag_313\n        /* \"#utility.yul\":1925:1931   */\n      dup5\n        /* \"#utility.yul\":1883:1932   */\n      tag_222\n      jump\t// in\n    tag_313:\n        /* \"#utility.yul\":1867:1933   */\n      tag_221\n      jump\t// in\n    tag_312:\n        /* \"#utility.yul\":1858:1933   */\n      swap1\n      pop\n        /* \"#utility.yul\":1956:1962   */\n      dup3\n        /* \"#utility.yul\":1949:1954   */\n      dup2\n        /* \"#utility.yul\":1942:1963   */\n      mstore\n        /* \"#utility.yul\":1994:1998   */\n      0x20\n        /* \"#utility.yul\":1987:1992   */\n      dup2\n        /* \"#utility.yul\":1983:1999   */\n      add\n        /* \"#utility.yul\":2032:2035   */\n      dup5\n        /* \"#utility.yul\":2023:2029   */\n      dup5\n        /* \"#utility.yul\":2018:2021   */\n      dup5\n        /* \"#utility.yul\":2014:2030   */\n      add\n        /* \"#utility.yul\":2011:2036   */\n      gt\n        /* \"#utility.yul\":2008:2120   */\n      iszero\n      tag_314\n      jumpi\n        /* \"#utility.yul\":2039:2118   */\n      tag_315\n      tag_217\n      jump\t// in\n    tag_315:\n        /* \"#utility.yul\":2008:2120   */\n    tag_314:\n        /* \"#utility.yul\":2129:2183   */\n      tag_316\n        /* \"#utility.yul\":2176:2182   */\n      dup5\n        /* \"#utility.yul\":2171:2174   */\n      dup3\n        /* \"#utility.yul\":2166:2169   */\n      dup6\n        /* \"#utility.yul\":2129:2183   */\n      tag_223\n      jump\t// in\n    tag_316:\n        /* \"#utility.yul\":1848:2189   */\n      pop\n        /* \"#utility.yul\":1764:2189   */\n      swap4\n      swap3\n      pop\n      pop\n      pop\n      jump\t// out\n        /* \"#utility.yul\":2209:2549   */\n    tag_225:\n        /* \"#utility.yul\":2265:2270   */\n      0x00\n        /* \"#utility.yul\":2314:2317   */\n      dup3\n        /* \"#utility.yul\":2307:2311   */\n      0x1f\n        /* \"#utility.yul\":2299:2305   */\n      dup4\n        /* \"#utility.yul\":2295:2312   */\n      add\n        /* \"#utility.yul\":2291:2318   */\n      slt\n        /* \"#utility.yul\":2281:2403   */\n      tag_318\n      jumpi\n        /* \"#utility.yul\":2322:2401   */\n      tag_319\n      tag_216\n      jump\t// in\n    tag_319:\n        /* \"#utility.yul\":2281:2403   */\n    tag_318:\n        /* \"#utility.yul\":2439:2445   */\n      dup2\n        /* \"#utility.yul\":2426:2446   */\n      calldataload\n        /* \"#utility.yul\":2464:2543   */\n      tag_320\n        /* \"#utility.yul\":2539:2542   */\n      dup5\n        /* \"#utility.yul\":2531:2537   */\n      dup3\n        /* \"#utility.yul\":2524:2528   */\n      0x20\n        /* \"#utility.yul\":2516:2522   */\n      dup7\n        /* \"#utility.yul\":2512:2529   */\n      add\n        /* \"#utility.yul\":2464:2543   */\n      tag_224\n      jump\t// in\n    tag_320:\n        /* \"#utility.yul\":2455:2543   */\n      swap2\n      pop\n        /* \"#utility.yul\":2271:2549   */\n      pop\n        /* \"#utility.yul\":2209:2549   */\n      swap3\n      swap2\n      pop\n      pop\n      jump\t// out\n        /* \"#utility.yul\":2555:3064   */\n    tag_29:\n        /* \"#utility.yul\":2624:2630   */\n      0x00\n        /* \"#utility.yul\":2673:2675   */\n      0x20\n        /* \"#utility.yul\":2661:2670   */\n      dup3\n        /* \"#utility.yul\":2652:2659   */\n      dup5\n        /* \"#utility.yul\":2648:2671   */\n      sub\n        /* \"#utility.yul\":2644:2676   */\n      slt\n        /* \"#utility.yul\":2641:2760   */\n      iszero\n      tag_322\n      jumpi\n        /* \"#utility.yul\":2679:2758   */\n      tag_323\n      tag_214\n      jump\t// in\n    tag_323:\n        /* \"#utility.yul\":2641:2760   */\n    tag_322:\n        /* \"#utility.yul\":2827:2828   */\n      0x00\n        /* \"#utility.yul\":2816:2825   */\n      dup3\n        /* \"#utility.yul\":2812:2829   */\n      add\n        /* \"#utility.yul\":2799:2830   */\n      calldataload\n        /* \"#utility.yul\":2857:2875   */\n      0xffffffffffffffff\n        /* \"#utility.yul\":2849:2855   */\n      dup2\n        /* \"#utility.yul\":2846:2876   */\n      gt\n        /* \"#utility.yul\":2843:2960   */\n      iszero\n      tag_324\n      jumpi\n        /* \"#utility.yul\":2879:2958   */\n      tag_325\n      tag_215\n      jump\t// in\n    tag_325:\n        /* \"#utility.yul\":2843:2960   */\n    tag_324:\n        /* \"#utility.yul\":2984:3047   */\n      tag_326\n        /* \"#utility.yul\":3039:3046   */\n      dup5\n        /* \"#utility.yul\":3030:3036   */\n      dup3\n        /* \"#utility.yul\":3019:3028   */\n      dup6\n        /* \"#utility.yul\":3015:3037   */\n      add\n        /* \"#utility.yul\":2984:3047   */\n      tag_225\n      jump\t// in\n    tag_326:\n        /* \"#utility.yul\":2974:3047   */\n      swap2\n      pop\n        /* \"#utility.yul\":2770:3057   */\n      pop\n        /* \"#utility.yul\":2555:3064   */\n      swap3\n      swap2\n      pop\n      pop\n      jump\t// out\n        /* \"#utility.yul\":3070:3147   */\n    tag_226:\n        /* \"#utility.yul\":3107:3114   */\n      0x00\n        /* \"#utility.yul\":3136:3141   */\n      dup2\n        /* \"#utility.yul\":3125:3141   */\n      swap1\n      pop\n        /* \"#utility.yul\":3070:3147   */\n      swap2\n      swap1\n      pop\n      jump\t// out\n        /* \"#utility.yul\":3153:3271   */\n    tag_227:\n        /* \"#utility.yul\":3240:3264   */\n      tag_329\n        /* \"#utility.yul\":3258:3263   */\n      dup2\n        /* \"#utility.yul\":3240:3264   */\n      tag_226\n      jump\t// in\n    tag_329:\n        /* \"#utility.yul\":3235:3238   */\n      dup3\n        /* \"#utility.yul\":3228:3265   */\n      mstore\n        /* \"#utility.yul\":3153:3271   */\n      pop\n      pop\n      jump\t// out\n        /* \"#utility.yul\":3277:3499   */\n    tag_32:\n        /* \"#utility.yul\":3370:3374   */\n      0x00\n        /* \"#utility.yul\":3408:3410   */\n      0x20\n        /* \"#utility.yul\":3397:3406   */\n      dup3\n        /* \"#utility.yul\":3393:3411   */\n      add\n        /* \"#utility.yul\":3385:3411   */\n      swap1\n      pop\n        /* \"#utility.yul\":3421:3492   */\n      tag_331\n        /* \"#utility.yul\":3489:3490   */\n      0x00\n        /* \"#utility.yul\":3478:3487   */\n      dup4\n        /* \"#utility.yul\":3474:3491   */\n      add\n        /* \"#utility.yul\":3465:3471   */\n      dup5\n        /* \"#utility.yul\":3421:3492   */\n      tag_227\n      jump\t// in\n    tag_331:\n        /* \"#utility.yul\":3277:3499   */\n      swap3\n      swap2\n      pop\n      pop\n      jump\t// out\n        /* \"#utility.yul\":3505:3631   */\n    tag_228:\n        /* \"#utility.yul\":3542:3549   */\n      0x00\n        /* \"#utility.yul\":3582:3624   */\n      0xffffffffffffffffffffffffffffffffffffffff\n        /* \"#utility.yul\":3575:3580   */\n      dup3\n        /* \"#utility.yul\":3571:3625   */\n      and\n        /* \"#utility.yul\":3560:3625   */\n      swap1\n      pop\n        /* \"#utility.yul\":3505:3631   */\n      swap2\n      swap1\n      pop\n      jump\t// out\n        /* \"#utility.yul\":3637:3733   */\n    tag_229:\n        /* \"#utility.yul\":3674:3681   */\n      0x00\n        /* \"#utility.yul\":3703:3727   */\n      tag_334\n        /* \"#utility.yul\":3721:3726   */\n      dup3\n        /* \"#utility.yul\":3703:3727   */\n      tag_228\n      jump\t// in\n    tag_334:\n        /* \"#utility.yul\":3692:3727   */\n      swap1\n      pop\n        /* \"#utility.yul\":3637:3733   */\n      swap2\n      swap1\n      pop\n      jump\t// out\n        /* \"#utility.yul\":3739:3861   */\n    tag_230:\n        /* \"#utility.yul\":3812:3836   */\n      tag_336\n        /* \"#utility.yul\":3830:3835   */\n      dup2\n        /* \"#utility.yul\":3812:3836   */\n      tag_229\n      jump\t// in\n    tag_336:\n        /* \"#utility.yul\":3805:3810   */\n      dup2\n        /* \"#utility.yul\":3802:3837   */\n      eq\n        /* \"#utility.yul\":3792:3855   */\n      tag_337\n      jumpi\n        /* \"#utility.yul\":3851:3852   */\n      0x00\n        /* \"#utility.yul\":3848:3849   */\n      0x00\n        /* \"#utility.yul\":3841:3853   */\n      revert\n        /* \"#utility.yul\":3792:3855   */\n    tag_337:\n        /* \"#utility.yul\":3739:3861   */\n      pop\n      jump\t// out\n        /* \"#utility.yul\":3867:4006   */\n    tag_231:\n        /* \"#utility.yul\":3913:3918   */\n      0x00\n        /* \"#utility.yul\":3951:3957   */\n      dup2\n        /* \"#utility.yul\":3938:3958   */\n      calldataload\n        /* \"#utility.yul\":3929:3958   */\n      swap1\n      pop\n        /* \"#utility.yul\":3967:4000   */\n      tag_339\n        /* \"#utility.yul\":3994:3999   */\n      dup2\n        /* \"#utility.yul\":3967:4000   */\n      tag_230\n      jump\t// in\n    tag_339:\n        /* \"#utility.yul\":3867:4006   */\n      swap3\n      swap2\n      pop\n      pop\n      jump\t// out\n        /* \"#utility.yul\":4012:4341   */\n    tag_36:\n        /* \"#utility.yul\":4071:4077   */\n      0x00\n        /* \"#utility.yul\":4120:4122   */\n      0x20\n        /* \"#utility.yul\":4108:4117   */\n      dup3\n        /* \"#utility.yul\":4099:4106   */\n      dup5\n        /* \"#utility.yul\":4095:4118   */\n      sub\n        /* \"#utility.yul\":4091:4123   */\n      slt\n        /* \"#utility.yul\":4088:4207   */\n      iszero\n      tag_341\n      jumpi\n        /* \"#utility.yul\":4126:4205   */\n      tag_342\n      tag_214\n      jump\t// in\n    tag_342:\n        /* \"#utility.yul\":4088:4207   */\n    tag_341:\n        /* \"#utility.yul\":4246:4247   */\n      0x00\n        /* \"#utility.yul\":4271:4324   */\n      tag_343\n        /* \"#utility.yul\":4316:4323   */\n      dup5\n        /* \"#utility.yul\":4307:4313   */\n      dup3\n        /* \"#utility.yul\":4296:4305   */\n      dup6\n        /* \"#utility.yul\":4292:4314   */\n      add\n        /* \"#utility.yul\":4271:4324   */\n      tag_231\n      jump\t// in\n    tag_343:\n        /* \"#utility.yul\":4261:4324   */\n      swap2\n      pop\n        /* \"#utility.yul\":4217:4334   */\n      pop\n        /* \"#utility.yul\":4012:4341   */\n      swap3\n      swap2\n      pop\n      pop\n      jump\t// out\n        /* \"#utility.yul\":4347:4471   */\n    tag_232:\n        /* \"#utility.yul\":4424:4430   */\n      0x00\n        /* \"#utility.yul\":4458:4463   */\n      dup2\n        /* \"#utility.yul\":4452:4464   */\n      mload\n        /* \"#utility.yul\":4442:4464   */\n      swap1\n      pop\n        /* \"#utility.yul\":4347:4471   */\n      swap2\n      swap1\n      pop\n      jump\t// out\n        /* \"#utility.yul\":4477:4671   */\n    tag_233:\n        /* \"#utility.yul\":4586:4597   */\n      0x00\n        /* \"#utility.yul\":4620:4626   */\n      dup3\n        /* \"#utility.yul\":4615:4618   */\n      dup3\n        /* \"#utility.yul\":4608:4627   */\n      mstore\n        /* \"#utility.yul\":4660:4664   */\n      0x20\n        /* \"#utility.yul\":4655:4658   */\n      dup3\n        /* \"#utility.yul\":4651:4665   */\n      add\n        /* \"#utility.yul\":4636:4665   */\n      swap1\n      pop\n        /* \"#utility.yul\":4477:4671   */\n      swap3\n      swap2\n      pop\n      pop\n      jump\t// out\n        /* \"#utility.yul\":4677:4819   */\n    tag_234:\n        /* \"#utility.yul\":4754:4758   */\n      0x00\n        /* \"#utility.yul\":4777:4780   */\n      dup2\n        /* \"#utility.yul\":4769:4780   */\n      swap1\n      pop\n        /* \"#utility.yul\":4807:4811   */\n      0x20\n        /* \"#utility.yul\":4802:4805   */\n      dup3\n        /* \"#utility.yul\":4798:4812   */\n      add\n        /* \"#utility.yul\":4790:4812   */\n      swap1\n      pop\n        /* \"#utility.yul\":4677:4819   */\n      swap2\n      swap1\n      pop\n      jump\t// out\n        /* \"#utility.yul\":4825:4924   */\n    tag_235:\n        /* \"#utility.yul\":4877:4883   */\n      0x00\n        /* \"#utility.yul\":4911:4916   */\n      dup2\n        /* \"#utility.yul\":4905:4917   */\n      mload\n        /* \"#utility.yul\":4895:4917   */\n      swap1\n      pop\n        /* \"#utility.yul\":4825:4924   */\n      swap2\n      swap1\n      pop\n      jump\t// out\n        /* \"#utility.yul\":4930:5089   */\n    tag_236:\n        /* \"#utility.yul\":5004:5015   */\n      0x00\n        /* \"#utility.yul\":5038:5044   */\n      dup3\n        /* \"#utility.yul\":5033:5036   */\n      dup3\n        /* \"#utility.yul\":5026:5045   */\n      mstore\n        /* \"#utility.yul\":5078:5082   */\n      0x20\n        /* \"#utility.yul\":5073:5076   */\n      dup3\n        /* \"#utility.yul\":5069:5083   */\n      add\n        /* \"#utility.yul\":5054:5083   */\n      swap1\n      pop\n        /* \"#utility.yul\":4930:5089   */\n      swap3\n      swap2\n      pop\n      pop\n      jump\t// out\n        /* \"#utility.yul\":5095:5234   */\n    tag_237:\n        /* \"#utility.yul\":5184:5190   */\n      dup3\n        /* \"#utility.yul\":5179:5182   */\n      dup2\n        /* \"#utility.yul\":5174:5177   */\n      dup4\n        /* \"#utility.yul\":5168:5191   */\n      mcopy\n        /* \"#utility.yul\":5225:5226   */\n      0x00\n        /* \"#utility.yul\":5216:5222   */\n      dup4\n        /* \"#utility.yul\":5211:5214   */\n      dup4\n        /* \"#utility.yul\":5207:5223   */\n      add\n        /* \"#utility.yul\":5200:5227   */\n      mstore\n        /* \"#utility.yul\":5095:5234   */\n      pop\n      pop\n      pop\n      jump\t// out\n        /* \"#utility.yul\":5240:5597   */\n    tag_238:\n        /* \"#utility.yul\":5318:5321   */\n      0x00\n        /* \"#utility.yul\":5346:5385   */\n      tag_351\n        /* \"#utility.yul\":5379:5384   */\n      dup3\n        /* \"#utility.yul\":5346:5385   */\n      tag_235\n      jump\t// in\n    tag_351:\n        /* \"#utility.yul\":5401:5462   */\n      tag_352\n        /* \"#utility.yul\":5455:5461   */\n      dup2\n        /* \"#utility.yul\":5450:5453   */\n      dup6\n        /* \"#utility.yul\":5401:5462   */\n      tag_236\n      jump\t// in\n    tag_352:\n        /* \"#utility.yul\":5394:5462   */\n      swap4\n      pop\n        /* \"#utility.yul\":5471:5536   */\n      tag_353\n        /* \"#utility.yul\":5529:5535   */\n      dup2\n        /* \"#utility.yul\":5524:5527   */\n      dup6\n        /* \"#utility.yul\":5517:5521   */\n      0x20\n        /* \"#utility.yul\":5510:5515   */\n      dup7\n        /* \"#utility.yul\":5506:5522   */\n      add\n        /* \"#utility.yul\":5471:5536   */\n      tag_237\n      jump\t// in\n    tag_353:\n        /* \"#utility.yul\":5561:5590   */\n      tag_354\n        /* \"#utility.yul\":5583:5589   */\n      dup2\n        /* \"#utility.yul\":5561:5590   */\n      tag_218\n      jump\t// in\n    tag_354:\n        /* \"#utility.yul\":5556:5559   */\n      dup5\n        /* \"#utility.yul\":5552:5591   */\n      add\n        /* \"#utility.yul\":5545:5591   */\n      swap2\n      pop\n        /* \"#utility.yul\":5322:5597   */\n      pop\n        /* \"#utility.yul\":5240:5597   */\n      swap3\n      swap2\n      pop\n      pop\n      jump\t// out\n        /* \"#utility.yul\":5603:5799   */\n    tag_239:\n        /* \"#utility.yul\":5692:5702   */\n      0x00\n        /* \"#utility.yul\":5727:5793   */\n      tag_356\n        /* \"#utility.yul\":5789:5792   */\n      dup4\n        /* \"#utility.yul\":5781:5787   */\n      dup4\n        /* \"#utility.yul\":5727:5793   */\n      tag_238\n      jump\t// in\n    tag_356:\n        /* \"#utility.yul\":5713:5793   */\n      swap1\n      pop\n        /* \"#utility.yul\":5603:5799   */\n      swap3\n      swap2\n      pop\n      pop\n      jump\t// out\n        /* \"#utility.yul\":5805:5928   */\n    tag_240:\n        /* \"#utility.yul\":5885:5889   */\n      0x00\n        /* \"#utility.yul\":5917:5921   */\n      0x20\n        /* \"#utility.yul\":5912:5915   */\n      dup3\n        /* \"#utility.yul\":5908:5922   */\n      add\n        /* \"#utility.yul\":5900:5922   */\n      swap1\n      pop\n        /* \"#utility.yul\":5805:5928   */\n      swap2\n      swap1\n      pop\n      jump\t// out\n        /* \"#utility.yul\":5962:6953   */\n    tag_241:\n        /* \"#utility.yul\":6101:6104   */\n      0x00\n        /* \"#utility.yul\":6130:6194   */\n      tag_359\n        /* \"#utility.yul\":6188:6193   */\n      dup3\n        /* \"#utility.yul\":6130:6194   */\n      tag_232\n      jump\t// in\n    tag_359:\n        /* \"#utility.yul\":6210:6306   */\n      tag_360\n        /* \"#utility.yul\":6299:6305   */\n      dup2\n        /* \"#utility.yul\":6294:6297   */\n      dup6\n        /* \"#utility.yul\":6210:6306   */\n      tag_233\n      jump\t// in\n    tag_360:\n        /* \"#utility.yul\":6203:6306   */\n      swap4\n      pop\n        /* \"#utility.yul\":6332:6335   */\n      dup4\n        /* \"#utility.yul\":6377:6381   */\n      0x20\n        /* \"#utility.yul\":6369:6375   */\n      dup3\n        /* \"#utility.yul\":6365:6382   */\n      mul\n        /* \"#utility.yul\":6360:6363   */\n      dup6\n        /* \"#utility.yul\":6356:6383   */\n      add\n        /* \"#utility.yul\":6407:6473   */\n      tag_361\n        /* \"#utility.yul\":6467:6472   */\n      dup6\n        /* \"#utility.yul\":6407:6473   */\n      tag_234\n      jump\t// in\n    tag_361:\n        /* \"#utility.yul\":6496:6503   */\n      dup1\n        /* \"#utility.yul\":6527:6528   */\n      0x00\n        /* \"#utility.yul\":6512:6908   */\n    tag_362:\n        /* \"#utility.yul\":6537:6543   */\n      dup6\n        /* \"#utility.yul\":6534:6535   */\n      dup2\n        /* \"#utility.yul\":6531:6544   */\n      lt\n        /* \"#utility.yul\":6512:6908   */\n      iszero\n      tag_364\n      jumpi\n        /* \"#utility.yul\":6608:6617   */\n      dup5\n        /* \"#utility.yul\":6602:6606   */\n      dup5\n        /* \"#utility.yul\":6598:6618   */\n      sub\n        /* \"#utility.yul\":6593:6596   */\n      dup10\n        /* \"#utility.yul\":6586:6619   */\n      mstore\n        /* \"#utility.yul\":6659:6665   */\n      dup2\n        /* \"#utility.yul\":6653:6666   */\n      mload\n        /* \"#utility.yul\":6687:6771   */\n      tag_365\n        /* \"#utility.yul\":6766:6770   */\n      dup6\n        /* \"#utility.yul\":6751:6764   */\n      dup3\n        /* \"#utility.yul\":6687:6771   */\n      tag_239\n      jump\t// in\n    tag_365:\n        /* \"#utility.yul\":6679:6771   */\n      swap5\n      pop\n        /* \"#utility.yul\":6794:6864   */\n      tag_366\n        /* \"#utility.yul\":6857:6863   */\n      dup4\n        /* \"#utility.yul\":6794:6864   */\n      tag_240\n      jump\t// in\n    tag_366:\n        /* \"#utility.yul\":6784:6864   */\n      swap3\n      pop\n        /* \"#utility.yul\":6893:6897   */\n      0x20\n        /* \"#utility.yul\":6888:6891   */\n      dup11\n        /* \"#utility.yul\":6884:6898   */\n      add\n        /* \"#utility.yul\":6877:6898   */\n      swap10\n      pop\n        /* \"#utility.yul\":6572:6908   */\n      pop\n        /* \"#utility.yul\":6559:6560   */\n      0x01\n        /* \"#utility.yul\":6556:6557   */\n      dup2\n        /* \"#utility.yul\":6552:6561   */\n      add\n        /* \"#utility.yul\":6547:6561   */\n      swap1\n      pop\n        /* \"#utility.yul\":6512:6908   */\n      jump(tag_362)\n    tag_364:\n        /* \"#utility.yul\":6516:6530   */\n      pop\n        /* \"#utility.yul\":6924:6928   */\n      dup3\n        /* \"#utility.yul\":6917:6928   */\n      swap8\n      pop\n        /* \"#utility.yul\":6944:6947   */\n      dup8\n        /* \"#utility.yul\":6937:6947   */\n      swap6\n      pop\n        /* \"#utility.yul\":6106:6953   */\n      pop\n      pop\n      pop\n      pop\n      pop\n        /* \"#utility.yul\":5962:6953   */\n      swap3\n      swap2\n      pop\n      pop\n      jump\t// out\n        /* \"#utility.yul\":6959:7372   */\n    tag_52:\n        /* \"#utility.yul\":7122:7126   */\n      0x00\n        /* \"#utility.yul\":7160:7162   */\n      0x20\n        /* \"#utility.yul\":7149:7158   */\n      dup3\n        /* \"#utility.yul\":7145:7163   */\n      add\n        /* \"#utility.yul\":7137:7163   */\n      swap1\n      pop\n        /* \"#utility.yul\":7209:7218   */\n      dup2\n        /* \"#utility.yul\":7203:7207   */\n      dup2\n        /* \"#utility.yul\":7199:7219   */\n      sub\n        /* \"#utility.yul\":7195:7196   */\n      0x00\n        /* \"#utility.yul\":7184:7193   */\n      dup4\n        /* \"#utility.yul\":7180:7197   */\n      add\n        /* \"#utility.yul\":7173:7220   */\n      mstore\n        /* \"#utility.yul\":7237:7365   */\n      tag_368\n        /* \"#utility.yul\":7360:7364   */\n      dup2\n        /* \"#utility.yul\":7351:7357   */\n      dup5\n        /* \"#utility.yul\":7237:7365   */\n      tag_241\n      jump\t// in\n    tag_368:\n        /* \"#utility.yul\":7229:7365   */\n      swap1\n      pop\n        /* \"#utility.yul\":6959:7372   */\n      swap3\n      swap2\n      pop\n      pop\n      jump\t// out\n        /* \"#utility.yul\":7378:7500   */\n    tag_242:\n        /* \"#utility.yul\":7451:7475   */\n      tag_370\n        /* \"#utility.yul\":7469:7474   */\n      dup2\n        /* \"#utility.yul\":7451:7475   */\n      tag_226\n      jump\t// in\n    tag_370:\n        /* \"#utility.yul\":7444:7449   */\n      dup2\n        /* \"#utility.yul\":7441:7476   */\n      eq\n        /* \"#utility.yul\":7431:7494   */\n      tag_371\n      jumpi\n        /* \"#utility.yul\":7490:7491   */\n      0x00\n        /* \"#utility.yul\":7487:7488   */\n      0x00\n        /* \"#utility.yul\":7480:7492   */\n      revert\n        /* \"#utility.yul\":7431:7494   */\n    tag_371:\n        /* \"#utility.yul\":7378:7500   */\n      pop\n      jump\t// out\n        /* \"#utility.yul\":7506:7645   */\n    tag_243:\n        /* \"#utility.yul\":7552:7557   */\n      0x00\n        /* \"#utility.yul\":7590:7596   */\n      dup2\n        /* \"#utility.yul\":7577:7597   */\n      calldataload\n        /* \"#utility.yul\":7568:7597   */\n      swap1\n      pop\n        /* \"#utility.yul\":7606:7639   */\n      tag_373\n        /* \"#utility.yul\":7633:7638   */\n      dup2\n        /* \"#utility.yul\":7606:7639   */\n      tag_242\n      jump\t// in\n    tag_373:\n        /* \"#utility.yul\":7506:7645   */\n      swap3\n      swap2\n      pop\n      pop\n      jump\t// out\n        /* \"#utility.yul\":7651:8305   */\n    tag_61:\n        /* \"#utility.yul\":7729:7735   */\n      0x00\n        /* \"#utility.yul\":7737:7743   */\n      0x00\n        /* \"#utility.yul\":7786:7788   */\n      0x40\n        /* \"#utility.yul\":7774:7783   */\n      dup4\n        /* \"#utility.yul\":7765:7772   */\n      dup6\n        /* \"#utility.yul\":7761:7784   */\n      sub\n        /* \"#utility.yul\":7757:7789   */\n      slt\n        /* \"#utility.yul\":7754:7873   */\n      iszero\n      tag_375\n      jumpi\n        /* \"#utility.yul\":7792:7871   */\n      tag_376\n      tag_214\n      jump\t// in\n    tag_376:\n        /* \"#utility.yul\":7754:7873   */\n    tag_375:\n        /* \"#utility.yul\":7940:7941   */\n      0x00\n        /* \"#utility.yul\":7929:7938   */\n      dup4\n        /* \"#utility.yul\":7925:7942   */\n      add\n        /* \"#utility.yul\":7912:7943   */\n      calldataload\n        /* \"#utility.yul\":7970:7988   */\n      0xffffffffffffffff\n        /* \"#utility.yul\":7962:7968   */\n      dup2\n        /* \"#utility.yul\":7959:7989   */\n      gt\n        /* \"#utility.yul\":7956:8073   */\n      iszero\n      tag_377\n      jumpi\n        /* \"#utility.yul\":7992:8071   */\n      tag_378\n      tag_215\n      jump\t// in\n    tag_378:\n        /* \"#utility.yul\":7956:8073   */\n    tag_377:\n        /* \"#utility.yul\":8097:8160   */\n      tag_379\n        /* \"#utility.yul\":8152:8159   */\n      dup6\n        /* \"#utility.yul\":8143:8149   */\n      dup3\n        /* \"#utility.yul\":8132:8141   */\n      dup7\n        /* \"#utility.yul\":8128:8150   */\n      add\n        /* \"#utility.yul\":8097:8160   */\n      tag_225\n      jump\t// in\n    tag_379:\n        /* \"#utility.yul\":8087:8160   */\n      swap3\n      pop\n        /* \"#utility.yul\":7883:8170   */\n      pop\n        /* \"#utility.yul\":8209:8211   */\n      0x20\n        /* \"#utility.yul\":8235:8288   */\n      tag_380\n        /* \"#utility.yul\":8280:8287   */\n      dup6\n        /* \"#utility.yul\":8271:8277   */\n      dup3\n        /* \"#utility.yul\":8260:8269   */\n      dup7\n        /* \"#utility.yul\":8256:8278   */\n      add\n        /* \"#utility.yul\":8235:8288   */\n      tag_243\n      jump\t// in\n    tag_380:\n        /* \"#utility.yul\":8225:8288   */\n      swap2\n      pop\n        /* \"#utility.yul\":8180:8298   */\n      pop\n        /* \"#utility.yul\":7651:8305   */\n      swap3\n      pop\n      swap3\n      swap1\n      pop\n      jump\t// out\n        /* \"#utility.yul\":8311:8640   */\n    tag_66:\n        /* \"#utility.yul\":8370:8376   */\n      0x00\n        /* \"#utility.yul\":8419:8421   */\n      0x20\n        /* \"#utility.yul\":8407:8416   */\n      dup3\n        /* \"#utility.yul\":8398:8405   */\n      dup5\n        /* \"#utility.yul\":8394:8417   */\n      sub\n        /* \"#utility.yul\":8390:8422   */\n      slt\n        /* \"#utility.yul\":8387:8506   */\n      iszero\n      tag_382\n      jumpi\n        /* \"#utility.yul\":8425:8504   */\n      tag_383\n      tag_214\n      jump\t// in\n    tag_383:\n        /* \"#utility.yul\":8387:8506   */\n    tag_382:\n        /* \"#utility.yul\":8545:8546   */\n      0x00\n        /* \"#utility.yul\":8570:8623   */\n      tag_384\n        /* \"#utility.yul\":8615:8622   */\n      dup5\n        /* \"#utility.yul\":8606:8612   */\n      dup3\n        /* \"#utility.yul\":8595:8604   */\n      dup6\n        /* \"#utility.yul\":8591:8613   */\n      add\n        /* \"#utility.yul\":8570:8623   */\n      tag_243\n      jump\t// in\n    tag_384:\n        /* \"#utility.yul\":8560:8623   */\n      swap2\n      pop\n        /* \"#utility.yul\":8516:8633   */\n      pop\n        /* \"#utility.yul\":8311:8640   */\n      swap3\n      swap2\n      pop\n      pop\n      jump\t// out\n        /* \"#utility.yul\":8646:8815   */\n    tag_244:\n        /* \"#utility.yul\":8730:8741   */\n      0x00\n        /* \"#utility.yul\":8764:8770   */\n      dup3\n        /* \"#utility.yul\":8759:8762   */\n      dup3\n        /* \"#utility.yul\":8752:8771   */\n      mstore\n        /* \"#utility.yul\":8804:8808   */\n      0x20\n        /* \"#utility.yul\":8799:8802   */\n      dup3\n        /* \"#utility.yul\":8795:8809   */\n      add\n        /* \"#utility.yul\":8780:8809   */\n      swap1\n      pop\n        /* \"#utility.yul\":8646:8815   */\n      swap3\n      swap2\n      pop\n      pop\n      jump\t// out\n        /* \"#utility.yul\":8821:9198   */\n    tag_245:\n        /* \"#utility.yul\":8909:8912   */\n      0x00\n        /* \"#utility.yul\":8937:8976   */\n      tag_387\n        /* \"#utility.yul\":8970:8975   */\n      dup3\n        /* \"#utility.yul\":8937:8976   */\n      tag_235\n      jump\t// in\n    tag_387:\n        /* \"#utility.yul\":8992:9063   */\n      tag_388\n        /* \"#utility.yul\":9056:9062   */\n      dup2\n        /* \"#utility.yul\":9051:9054   */\n      dup6\n        /* \"#utility.yul\":8992:9063   */\n      tag_244\n      jump\t// in\n    tag_388:\n        /* \"#utility.yul\":8985:9063   */\n      swap4\n      pop\n        /* \"#utility.yul\":9072:9137   */\n      tag_389\n        /* \"#utility.yul\":9130:9136   */\n      dup2\n        /* \"#utility.yul\":9125:9128   */\n      dup6\n        /* \"#utility.yul\":9118:9122   */\n      0x20\n        /* \"#utility.yul\":9111:9116   */\n      dup7\n        /* \"#utility.yul\":9107:9123   */\n      add\n        /* \"#utility.yul\":9072:9137   */\n      tag_237\n      jump\t// in\n    tag_389:\n        /* \"#utility.yul\":9162:9191   */\n      tag_390\n        /* \"#utility.yul\":9184:9190   */\n      dup2\n        /* \"#utility.yul\":9162:9191   */\n      tag_218\n      jump\t// in\n    tag_390:\n        /* \"#utility.yul\":9157:9160   */\n      dup5\n        /* \"#utility.yul\":9153:9192   */\n      add\n        /* \"#utility.yul\":9146:9192   */\n      swap2\n      pop\n        /* \"#utility.yul\":8913:9198   */\n      pop\n        /* \"#utility.yul\":8821:9198   */\n      swap3\n      swap2\n      pop\n      pop\n      jump\t// out\n        /* \"#utility.yul\":9204:9517   */\n    tag_69:\n        /* \"#utility.yul\":9317:9321   */\n      0x00\n        /* \"#utility.yul\":9355:9357   */\n      0x20\n        /* \"#utility.yul\":9344:9353   */\n      dup3\n        /* \"#utility.yul\":9340:9358   */\n      add\n        /* \"#utility.yul\":9332:9358   */\n      swap1\n      pop\n        /* \"#utility.yul\":9404:9413   */\n      dup2\n        /* \"#utility.yul\":9398:9402   */\n      dup2\n        /* \"#utility.yul\":9394:9414   */\n      sub\n        /* \"#utility.yul\":9390:9391   */\n      0x00\n        /* \"#utility.yul\":9379:9388   */\n      dup4\n        /* \"#utility.yul\":9375:9392   */\n      add\n        /* \"#utility.yul\":9368:9415   */\n      mstore\n        /* \"#utility.yul\":9432:9510   */\n      tag_392\n        /* \"#utility.yul\":9505:9509   */\n      dup2\n        /* \"#utility.yul\":9496:9502   */\n      dup5\n        /* \"#utility.yul\":9432:9510   */\n      tag_245\n      jump\t// in\n    tag_392:\n        /* \"#utility.yul\":9424:9510   */\n      swap1\n      pop\n        /* \"#utility.yul\":9204:9517   */\n      swap3\n      swap2\n      pop\n      pop\n      jump\t// out\n        /* \"#utility.yul\":9523:9641   */\n    tag_246:\n        /* \"#utility.yul\":9610:9634   */\n      tag_394\n        /* \"#utility.yul\":9628:9633   */\n      dup2\n        /* \"#utility.yul\":9610:9634   */\n      tag_229\n      jump\t// in\n    tag_394:\n        /* \"#utility.yul\":9605:9608   */\n      dup3\n        /* \"#utility.yul\":9598:9635   */\n      mstore\n        /* \"#utility.yul\":9523:9641   */\n      pop\n      pop\n      jump\t// out\n        /* \"#utility.yul\":9647:9869   */\n    tag_83:\n        /* \"#utility.yul\":9740:9744   */\n      0x00\n        /* \"#utility.yul\":9778:9780   */\n      0x20\n        /* \"#utility.yul\":9767:9776   */\n      dup3\n        /* \"#utility.yul\":9763:9781   */\n      add\n        /* \"#utility.yul\":9755:9781   */\n      swap1\n      pop\n        /* \"#utility.yul\":9791:9862   */\n      tag_396\n        /* \"#utility.yul\":9859:9860   */\n      0x00\n        /* \"#utility.yul\":9848:9857   */\n      dup4\n        /* \"#utility.yul\":9844:9861   */\n      add\n        /* \"#utility.yul\":9835:9841   */\n      dup5\n        /* \"#utility.yul\":9791:9862   */\n      tag_246\n      jump\t// in\n    tag_396:\n        /* \"#utility.yul\":9647:9869   */\n      swap3\n      swap2\n      pop\n      pop\n      jump\t// out\n        /* \"#utility.yul\":9875:10096   */\n    tag_247:\n        /* \"#utility.yul\":10015:10049   */\n      0x4f6e6c79206f776e65722063616e20706572666f726d20746869732061637469\n        /* \"#utility.yul\":10011:10012   */\n      0x00\n        /* \"#utility.yul\":10003:10009   */\n      dup3\n        /* \"#utility.yul\":9999:10013   */\n      add\n        /* \"#utility.yul\":9992:10050   */\n      mstore\n        /* \"#utility.yul\":10084:10088   */\n      0x6f6e000000000000000000000000000000000000000000000000000000000000\n        /* \"#utility.yul\":10079:10081   */\n      0x20\n        /* \"#utility.yul\":10071:10077   */\n      dup3\n        /* \"#utility.yul\":10067:10082   */\n      add\n        /* \"#utility.yul\":10060:10089   */\n      mstore\n        /* \"#utility.yul\":9875:10096   */\n      pop\n      jump\t// out\n        /* \"#utility.yul\":10102:10468   */\n    tag_248:\n        /* \"#utility.yul\":10244:10247   */\n      0x00\n        /* \"#utility.yul\":10265:10332   */\n      tag_399\n        /* \"#utility.yul\":10329:10331   */\n      0x22\n        /* \"#utility.yul\":10324:10327   */\n      dup4\n        /* \"#utility.yul\":10265:10332   */\n      tag_244\n      jump\t// in\n    tag_399:\n        /* \"#utility.yul\":10258:10332   */\n      swap2\n      pop\n        /* \"#utility.yul\":10341:10434   */\n      tag_400\n        /* \"#utility.yul\":10430:10433   */\n      dup3\n        /* \"#utility.yul\":10341:10434   */\n      tag_247\n      jump\t// in\n    tag_400:\n        /* \"#utility.yul\":10459:10461   */\n      0x40\n        /* \"#utility.yul\":10454:10457   */\n      dup3\n        /* \"#utility.yul\":10450:10462   */\n      add\n        /* \"#utility.yul\":10443:10462   */\n      swap1\n      pop\n        /* \"#utility.yul\":10102:10468   */\n      swap2\n      swap1\n      pop\n      jump\t// out\n        /* \"#utility.yul\":10474:10893   */\n    tag_110:\n        /* \"#utility.yul\":10640:10644   */\n      0x00\n        /* \"#utility.yul\":10678:10680   */\n      0x20\n        /* \"#utility.yul\":10667:10676   */\n      dup3\n        /* \"#utility.yul\":10663:10681   */\n      add\n        /* \"#utility.yul\":10655:10681   */\n      swap1\n      pop\n        /* \"#utility.yul\":10727:10736   */\n      dup2\n        /* \"#utility.yul\":10721:10725   */\n      dup2\n        /* \"#utility.yul\":10717:10737   */\n      sub\n        /* \"#utility.yul\":10713:10714   */\n      0x00\n        /* \"#utility.yul\":10702:10711   */\n      dup4\n        /* \"#utility.yul\":10698:10715   */\n      add\n        /* \"#utility.yul\":10691:10738   */\n      mstore\n        /* \"#utility.yul\":10755:10886   */\n      tag_402\n        /* \"#utility.yul\":10881:10885   */\n      dup2\n        /* \"#utility.yul\":10755:10886   */\n      tag_248\n      jump\t// in\n    tag_402:\n        /* \"#utility.yul\":10747:10886   */\n      swap1\n      pop\n        /* \"#utility.yul\":10474:10893   */\n      swap2\n      swap1\n      pop\n      jump\t// out\n        /* \"#utility.yul\":10899:11069   */\n    tag_249:\n        /* \"#utility.yul\":11039:11061   */\n      0x4e6f207469707320746f2077697468647261772e000000000000000000000000\n        /* \"#utility.yul\":11035:11036   */\n      0x00\n        /* \"#utility.yul\":11027:11033   */\n      dup3\n        /* \"#utility.yul\":11023:11037   */\n      add\n        /* \"#utility.yul\":11016:11062   */\n      mstore\n        /* \"#utility.yul\":10899:11069   */\n      pop\n      jump\t// out\n        /* \"#utility.yul\":11075:11441   */\n    tag_250:\n        /* \"#utility.yul\":11217:11220   */\n      0x00\n        /* \"#utility.yul\":11238:11305   */\n      tag_405\n        /* \"#utility.yul\":11302:11304   */\n      0x14\n        /* \"#utility.yul\":11297:11300   */\n      dup4\n        /* \"#utility.yul\":11238:11305   */\n      tag_244\n      jump\t// in\n    tag_405:\n        /* \"#utility.yul\":11231:11305   */\n      swap2\n      pop\n        /* \"#utility.yul\":11314:11407   */\n      tag_406\n        /* \"#utility.yul\":11403:11406   */\n      dup3\n        /* \"#utility.yul\":11314:11407   */\n      tag_249\n      jump\t// in\n    tag_406:\n        /* \"#utility.yul\":11432:11434   */\n      0x20\n        /* \"#utility.yul\":11427:11430   */\n      dup3\n        /* \"#utility.yul\":11423:11435   */\n      add\n        /* \"#utility.yul\":11416:11435   */\n      swap1\n      pop\n        /* \"#utility.yul\":11075:11441   */\n      swap2\n      swap1\n      pop\n      jump\t// out\n        /* \"#utility.yul\":11447:11866   */\n    tag_114:\n        /* \"#utility.yul\":11613:11617   */\n      0x00\n        /* \"#utility.yul\":11651:11653   */\n      0x20\n        /* \"#utility.yul\":11640:11649   */\n      dup3\n        /* \"#utility.yul\":11636:11654   */\n      add\n        /* \"#utility.yul\":11628:11654   */\n      swap1\n      pop\n        /* \"#utility.yul\":11700:11709   */\n      dup2\n        /* \"#utility.yul\":11694:11698   */\n      dup2\n        /* \"#utility.yul\":11690:11710   */\n      sub\n        /* \"#utility.yul\":11686:11687   */\n      0x00\n        /* \"#utility.yul\":11675:11684   */\n      dup4\n        /* \"#utility.yul\":11671:11688   */\n      add\n        /* \"#utility.yul\":11664:11711   */\n      mstore\n        /* \"#utility.yul\":11728:11859   */\n      tag_408\n        /* \"#utility.yul\":11854:11858   */\n      dup2\n        /* \"#utility.yul\":11728:11859   */\n      tag_250\n      jump\t// in\n    tag_408:\n        /* \"#utility.yul\":11720:11859   */\n      swap1\n      pop\n        /* \"#utility.yul\":11447:11866   */\n      swap2\n      swap1\n      pop\n      jump\t// out\n        /* \"#utility.yul\":11872:12019   */\n    tag_251:\n        /* \"#utility.yul\":11973:11984   */\n      0x00\n        /* \"#utility.yul\":12010:12013   */\n      dup2\n        /* \"#utility.yul\":11995:12013   */\n      swap1\n      pop\n        /* \"#utility.yul\":11872:12019   */\n      swap3\n      swap2\n      pop\n      pop\n      jump\t// out\n        /* \"#utility.yul\":12025:12139   */\n    tag_252:\n      pop\n      jump\t// out\n        /* \"#utility.yul\":12145:12543   */\n    tag_253:\n        /* \"#utility.yul\":12304:12307   */\n      0x00\n        /* \"#utility.yul\":12325:12408   */\n      tag_412\n        /* \"#utility.yul\":12406:12407   */\n      0x00\n        /* \"#utility.yul\":12401:12404   */\n      dup4\n        /* \"#utility.yul\":12325:12408   */\n      tag_251\n      jump\t// in\n    tag_412:\n        /* \"#utility.yul\":12318:12408   */\n      swap2\n      pop\n        /* \"#utility.yul\":12417:12510   */\n      tag_413\n        /* \"#utility.yul\":12506:12509   */\n      dup3\n        /* \"#utility.yul\":12417:12510   */\n      tag_252\n      jump\t// in\n    tag_413:\n        /* \"#utility.yul\":12535:12536   */\n      0x00\n        /* \"#utility.yul\":12530:12533   */\n      dup3\n        /* \"#utility.yul\":12526:12537   */\n      add\n        /* \"#utility.yul\":12519:12537   */\n      swap1\n      pop\n        /* \"#utility.yul\":12145:12543   */\n      swap2\n      swap1\n      pop\n      jump\t// out\n        /* \"#utility.yul\":12549:12928   */\n    tag_116:\n        /* \"#utility.yul\":12733:12736   */\n      0x00\n        /* \"#utility.yul\":12755:12902   */\n      tag_415\n        /* \"#utility.yul\":12898:12901   */\n      dup3\n        /* \"#utility.yul\":12755:12902   */\n      tag_253\n      jump\t// in\n    tag_415:\n        /* \"#utility.yul\":12748:12902   */\n      swap2\n      pop\n        /* \"#utility.yul\":12919:12922   */\n      dup2\n        /* \"#utility.yul\":12912:12922   */\n      swap1\n      pop\n        /* \"#utility.yul\":12549:12928   */\n      swap2\n      swap1\n      pop\n      jump\t// out\n        /* \"#utility.yul\":12934:13100   */\n    tag_254:\n        /* \"#utility.yul\":13074:13092   */\n      0x5472616e73666572204661696c65642e00000000000000000000000000000000\n        /* \"#utility.yul\":13070:13071   */\n      0x00\n        /* \"#utility.yul\":13062:13068   */\n      dup3\n        /* \"#utility.yul\":13058:13072   */\n      add\n        /* \"#utility.yul\":13051:13093   */\n      mstore\n        /* \"#utility.yul\":12934:13100   */\n      pop\n      jump\t// out\n        /* \"#utility.yul\":13106:13472   */\n    tag_255:\n        /* \"#utility.yul\":13248:13251   */\n      0x00\n        /* \"#utility.yul\":13269:13336   */\n      tag_418\n        /* \"#utility.yul\":13333:13335   */\n      0x10\n        /* \"#utility.yul\":13328:13331   */\n      dup4\n        /* \"#utility.yul\":13269:13336   */\n      tag_244\n      jump\t// in\n    tag_418:\n        /* \"#utility.yul\":13262:13336   */\n      swap2\n      pop\n        /* \"#utility.yul\":13345:13438   */\n      tag_419\n        /* \"#utility.yul\":13434:13437   */\n      dup3\n        /* \"#utility.yul\":13345:13438   */\n      tag_254\n      jump\t// in\n    tag_419:\n        /* \"#utility.yul\":13463:13465   */\n      0x20\n        /* \"#utility.yul\":13458:13461   */\n      dup3\n        /* \"#utility.yul\":13454:13466   */\n      add\n        /* \"#utility.yul\":13447:13466   */\n      swap1\n      pop\n        /* \"#utility.yul\":13106:13472   */\n      swap2\n      swap1\n      pop\n      jump\t// out\n        /* \"#utility.yul\":13478:13897   */\n    tag_122:\n        /* \"#utility.yul\":13644:13648   */\n      0x00\n        /* \"#utility.yul\":13682:13684   */\n      0x20\n        /* \"#utility.yul\":13671:13680   */\n      dup3\n        /* \"#utility.yul\":13667:13685   */\n      add\n        /* \"#utility.yul\":13659:13685   */\n      swap1\n      pop\n        /* \"#utility.yul\":13731:13740   */\n      dup2\n        /* \"#utility.yul\":13725:13729   */\n      dup2\n        /* \"#utility.yul\":13721:13741   */\n      sub\n        /* \"#utility.yul\":13717:13718   */\n      0x00\n        /* \"#utility.yul\":13706:13715   */\n      dup4\n        /* \"#utility.yul\":13702:13719   */\n      add\n        /* \"#utility.yul\":13695:13742   */\n      mstore\n        /* \"#utility.yul\":13759:13890   */\n      tag_421\n        /* \"#utility.yul\":13885:13889   */\n      dup2\n        /* \"#utility.yul\":13759:13890   */\n      tag_255\n      jump\t// in\n    tag_421:\n        /* \"#utility.yul\":13751:13890   */\n      swap1\n      pop\n        /* \"#utility.yul\":13478:13897   */\n      swap2\n      swap1\n      pop\n      jump\t// out\n        /* \"#utility.yul\":13903:14051   */\n    tag_256:\n        /* \"#utility.yul\":14005:14016   */\n      0x00\n        /* \"#utility.yul\":14042:14045   */\n      dup2\n        /* \"#utility.yul\":14027:14045   */\n      swap1\n      pop\n        /* \"#utility.yul\":13903:14051   */\n      swap3\n      swap2\n      pop\n      pop\n      jump\t// out\n        /* \"#utility.yul\":14057:14447   */\n    tag_257:\n        /* \"#utility.yul\":14163:14166   */\n      0x00\n        /* \"#utility.yul\":14191:14230   */\n      tag_424\n        /* \"#utility.yul\":14224:14229   */\n      dup3\n        /* \"#utility.yul\":14191:14230   */\n      tag_235\n      jump\t// in\n    tag_424:\n        /* \"#utility.yul\":14246:14335   */\n      tag_425\n        /* \"#utility.yul\":14328:14334   */\n      dup2\n        /* \"#utility.yul\":14323:14326   */\n      dup6\n        /* \"#utility.yul\":14246:14335   */\n      tag_256\n      jump\t// in\n    tag_425:\n        /* \"#utility.yul\":14239:14335   */\n      swap4\n      pop\n        /* \"#utility.yul\":14344:14409   */\n      tag_426\n        /* \"#utility.yul\":14402:14408   */\n      dup2\n        /* \"#utility.yul\":14397:14400   */\n      dup6\n        /* \"#utility.yul\":14390:14394   */\n      0x20\n        /* \"#utility.yul\":14383:14388   */\n      dup7\n        /* \"#utility.yul\":14379:14395   */\n      add\n        /* \"#utility.yul\":14344:14409   */\n      tag_237\n      jump\t// in\n    tag_426:\n        /* \"#utility.yul\":14434:14440   */\n      dup1\n        /* \"#utility.yul\":14429:14432   */\n      dup5\n        /* \"#utility.yul\":14425:14441   */\n      add\n        /* \"#utility.yul\":14418:14441   */\n      swap2\n      pop\n        /* \"#utility.yul\":14167:14447   */\n      pop\n        /* \"#utility.yul\":14057:14447   */\n      swap3\n      swap2\n      pop\n      pop\n      jump\t// out\n        /* \"#utility.yul\":14453:14728   */\n    tag_125:\n        /* \"#utility.yul\":14585:14588   */\n      0x00\n        /* \"#utility.yul\":14607:14702   */\n      tag_428\n        /* \"#utility.yul\":14698:14701   */\n      dup3\n        /* \"#utility.yul\":14689:14695   */\n      dup5\n        /* \"#utility.yul\":14607:14702   */\n      tag_257\n      jump\t// in\n    tag_428:\n        /* \"#utility.yul\":14600:14702   */\n      swap2\n      pop\n        /* \"#utility.yul\":14719:14722   */\n      dup2\n        /* \"#utility.yul\":14712:14722   */\n      swap1\n      pop\n        /* \"#utility.yul\":14453:14728   */\n      swap3\n      swap2\n      pop\n      pop\n      jump\t// out\n        /* \"#utility.yul\":14734:14907   */\n    tag_258:\n        /* \"#utility.yul\":14874:14899   */\n      0x43757272656e6379206e6f7420737570706f727465642e000000000000000000\n        /* \"#utility.yul\":14870:14871   */\n      0x00\n        /* \"#utility.yul\":14862:14868   */\n      dup3\n        /* \"#utility.yul\":14858:14872   */\n      add\n        /* \"#utility.yul\":14851:14900   */\n      mstore\n        /* \"#utility.yul\":14734:14907   */\n      pop\n      jump\t// out\n        /* \"#utility.yul\":14913:15279   */\n    tag_259:\n        /* \"#utility.yul\":15055:15058   */\n      0x00\n        /* \"#utility.yul\":15076:15143   */\n      tag_431\n        /* \"#utility.yul\":15140:15142   */\n      0x17\n        /* \"#utility.yul\":15135:15138   */\n      dup4\n        /* \"#utility.yul\":15076:15143   */\n      tag_244\n      jump\t// in\n    tag_431:\n        /* \"#utility.yul\":15069:15143   */\n      swap2\n      pop\n        /* \"#utility.yul\":15152:15245   */\n      tag_432\n        /* \"#utility.yul\":15241:15244   */\n      dup3\n        /* \"#utility.yul\":15152:15245   */\n      tag_258\n      jump\t// in\n    tag_432:\n        /* \"#utility.yul\":15270:15272   */\n      0x20\n        /* \"#utility.yul\":15265:15268   */\n      dup3\n        /* \"#utility.yul\":15261:15273   */\n      add\n        /* \"#utility.yul\":15254:15273   */\n      swap1\n      pop\n        /* \"#utility.yul\":14913:15279   */\n      swap2\n      swap1\n      pop\n      jump\t// out\n        /* \"#utility.yul\":15285:15704   */\n    tag_128:\n        /* \"#utility.yul\":15451:15455   */\n      0x00\n        /* \"#utility.yul\":15489:15491   */\n      0x20\n        /* \"#utility.yul\":15478:15487   */\n      dup3\n        /* \"#utility.yul\":15474:15492   */\n      add\n        /* \"#utility.yul\":15466:15492   */\n      swap1\n      pop\n        /* \"#utility.yul\":15538:15547   */\n      dup2\n        /* \"#utility.yul\":15532:15536   */\n      dup2\n        /* \"#utility.yul\":15528:15548   */\n      sub\n        /* \"#utility.yul\":15524:15525   */\n      0x00\n        /* \"#utility.yul\":15513:15522   */\n      dup4\n        /* \"#utility.yul\":15509:15526   */\n      add\n        /* \"#utility.yul\":15502:15549   */\n      mstore\n        /* \"#utility.yul\":15566:15697   */\n      tag_434\n        /* \"#utility.yul\":15692:15696   */\n      dup2\n        /* \"#utility.yul\":15566:15697   */\n      tag_259\n      jump\t// in\n    tag_434:\n        /* \"#utility.yul\":15558:15697   */\n      swap1\n      pop\n        /* \"#utility.yul\":15285:15704   */\n      swap2\n      swap1\n      pop\n      jump\t// out\n        /* \"#utility.yul\":15710:15876   */\n    tag_260:\n        /* \"#utility.yul\":15850:15868   */\n      0x496e76616c696420616464726573732e00000000000000000000000000000000\n        /* \"#utility.yul\":15846:15847   */\n      0x00\n        /* \"#utility.yul\":15838:15844   */\n      dup3\n        /* \"#utility.yul\":15834:15848   */\n      add\n        /* \"#utility.yul\":15827:15869   */\n      mstore\n        /* \"#utility.yul\":15710:15876   */\n      pop\n      jump\t// out\n        /* \"#utility.yul\":15882:16248   */\n    tag_261:\n        /* \"#utility.yul\":16024:16027   */\n      0x00\n        /* \"#utility.yul\":16045:16112   */\n      tag_437\n        /* \"#utility.yul\":16109:16111   */\n      0x10\n        /* \"#utility.yul\":16104:16107   */\n      dup4\n        /* \"#utility.yul\":16045:16112   */\n      tag_244\n      jump\t// in\n    tag_437:\n        /* \"#utility.yul\":16038:16112   */\n      swap2\n      pop\n        /* \"#utility.yul\":16121:16214   */\n      tag_438\n        /* \"#utility.yul\":16210:16213   */\n      dup3\n        /* \"#utility.yul\":16121:16214   */\n      tag_260\n      jump\t// in\n    tag_438:\n        /* \"#utility.yul\":16239:16241   */\n      0x20\n        /* \"#utility.yul\":16234:16237   */\n      dup3\n        /* \"#utility.yul\":16230:16242   */\n      add\n        /* \"#utility.yul\":16223:16242   */\n      swap1\n      pop\n        /* \"#utility.yul\":15882:16248   */\n      swap2\n      swap1\n      pop\n      jump\t// out\n        /* \"#utility.yul\":16254:16673   */\n    tag_136:\n        /* \"#utility.yul\":16420:16424   */\n      0x00\n        /* \"#utility.yul\":16458:16460   */\n      0x20\n        /* \"#utility.yul\":16447:16456   */\n      dup3\n        /* \"#utility.yul\":16443:16461   */\n      add\n        /* \"#utility.yul\":16435:16461   */\n      swap1\n      pop\n        /* \"#utility.yul\":16507:16516   */\n      dup2\n        /* \"#utility.yul\":16501:16505   */\n      dup2\n        /* \"#utility.yul\":16497:16517   */\n      sub\n        /* \"#utility.yul\":16493:16494   */\n      0x00\n        /* \"#utility.yul\":16482:16491   */\n      dup4\n        /* \"#utility.yul\":16478:16495   */\n      add\n        /* \"#utility.yul\":16471:16518   */\n      mstore\n        /* \"#utility.yul\":16535:16666   */\n      tag_440\n        /* \"#utility.yul\":16661:16665   */\n      dup2\n        /* \"#utility.yul\":16535:16666   */\n      tag_261\n      jump\t// in\n    tag_440:\n        /* \"#utility.yul\":16527:16666   */\n      swap1\n      pop\n        /* \"#utility.yul\":16254:16673   */\n      swap2\n      swap1\n      pop\n      jump\t// out\n        /* \"#utility.yul\":16679:16859   */\n    tag_262:\n        /* \"#utility.yul\":16727:16804   */\n      0x4e487b7100000000000000000000000000000000000000000000000000000000\n        /* \"#utility.yul\":16724:16725   */\n      0x00\n        /* \"#utility.yul\":16717:16805   */\n      mstore\n        /* \"#utility.yul\":16824:16828   */\n      0x22\n        /* \"#utility.yul\":16821:16822   */\n      0x04\n        /* \"#utility.yul\":16814:16829   */\n      mstore\n        /* \"#utility.yul\":16848:16852   */\n      0x24\n        /* \"#utility.yul\":16845:16846   */\n      0x00\n        /* \"#utility.yul\":16838:16853   */\n      revert\n        /* \"#utility.yul\":16865:17185   */\n    tag_142:\n        /* \"#utility.yul\":16909:16915   */\n      0x00\n        /* \"#utility.yul\":16946:16947   */\n      0x02\n        /* \"#utility.yul\":16940:16944   */\n      dup3\n        /* \"#utility.yul\":16936:16948   */\n      div\n        /* \"#utility.yul\":16926:16948   */\n      swap1\n      pop\n        /* \"#utility.yul\":16993:16994   */\n      0x01\n        /* \"#utility.yul\":16987:16991   */\n      dup3\n        /* \"#utility.yul\":16983:16995   */\n      and\n        /* \"#utility.yul\":17014:17032   */\n      dup1\n        /* \"#utility.yul\":17004:17085   */\n      tag_443\n      jumpi\n        /* \"#utility.yul\":17070:17074   */\n      0x7f\n        /* \"#utility.yul\":17062:17068   */\n      dup3\n        /* \"#utility.yul\":17058:17075   */\n      and\n        /* \"#utility.yul\":17048:17075   */\n      swap2\n      pop\n        /* \"#utility.yul\":17004:17085   */\n    tag_443:\n        /* \"#utility.yul\":17132:17134   */\n      0x20\n        /* \"#utility.yul\":17124:17130   */\n      dup3\n        /* \"#utility.yul\":17121:17135   */\n      lt\n        /* \"#utility.yul\":17101:17119   */\n      dup2\n        /* \"#utility.yul\":17098:17136   */\n      sub\n        /* \"#utility.yul\":17095:17179   */\n      tag_444\n      jumpi\n        /* \"#utility.yul\":17151:17169   */\n      tag_445\n      tag_262\n      jump\t// in\n    tag_445:\n        /* \"#utility.yul\":17095:17179   */\n    tag_444:\n        /* \"#utility.yul\":16916:17185   */\n      pop\n        /* \"#utility.yul\":16865:17185   */\n      swap2\n      swap1\n      pop\n      jump\t// out\n        /* \"#utility.yul\":17191:17416   */\n    tag_263:\n        /* \"#utility.yul\":17331:17365   */\n      0x436f6e766572696f6e2072617465206d75737420626520677265617465722074\n        /* \"#utility.yul\":17327:17328   */\n      0x00\n        /* \"#utility.yul\":17319:17325   */\n      dup3\n        /* \"#utility.yul\":17315:17329   */\n      add\n        /* \"#utility.yul\":17308:17366   */\n      mstore\n        /* \"#utility.yul\":17400:17408   */\n      0x68616e20302e0000000000000000000000000000000000000000000000000000\n        /* \"#utility.yul\":17395:17397   */\n      0x20\n        /* \"#utility.yul\":17387:17393   */\n      dup3\n        /* \"#utility.yul\":17383:17398   */\n      add\n        /* \"#utility.yul\":17376:17409   */\n      mstore\n        /* \"#utility.yul\":17191:17416   */\n      pop\n      jump\t// out\n        /* \"#utility.yul\":17422:17788   */\n    tag_264:\n        /* \"#utility.yul\":17564:17567   */\n      0x00\n        /* \"#utility.yul\":17585:17652   */\n      tag_448\n        /* \"#utility.yul\":17649:17651   */\n      0x26\n        /* \"#utility.yul\":17644:17647   */\n      dup4\n        /* \"#utility.yul\":17585:17652   */\n      tag_244\n      jump\t// in\n    tag_448:\n        /* \"#utility.yul\":17578:17652   */\n      swap2\n      pop\n        /* \"#utility.yul\":17661:17754   */\n      tag_449\n        /* \"#utility.yul\":17750:17753   */\n      dup3\n        /* \"#utility.yul\":17661:17754   */\n      tag_263\n      jump\t// in\n    tag_449:\n        /* \"#utility.yul\":17779:17781   */\n      0x40\n        /* \"#utility.yul\":17774:17777   */\n      dup3\n        /* \"#utility.yul\":17770:17782   */\n      add\n        /* \"#utility.yul\":17763:17782   */\n      swap1\n      pop\n        /* \"#utility.yul\":17422:17788   */\n      swap2\n      swap1\n      pop\n      jump\t// out\n        /* \"#utility.yul\":17794:18213   */\n    tag_153:\n        /* \"#utility.yul\":17960:17964   */\n      0x00\n        /* \"#utility.yul\":17998:18000   */\n      0x20\n        /* \"#utility.yul\":17987:17996   */\n      dup3\n        /* \"#utility.yul\":17983:18001   */\n      add\n        /* \"#utility.yul\":17975:18001   */\n      swap1\n      pop\n        /* \"#utility.yul\":18047:18056   */\n      dup2\n        /* \"#utility.yul\":18041:18045   */\n      dup2\n        /* \"#utility.yul\":18037:18057   */\n      sub\n        /* \"#utility.yul\":18033:18034   */\n      0x00\n        /* \"#utility.yul\":18022:18031   */\n      dup4\n        /* \"#utility.yul\":18018:18035   */\n      add\n        /* \"#utility.yul\":18011:18058   */\n      mstore\n        /* \"#utility.yul\":18075:18206   */\n      tag_451\n        /* \"#utility.yul\":18201:18205   */\n      dup2\n        /* \"#utility.yul\":18075:18206   */\n      tag_264\n      jump\t// in\n    tag_451:\n        /* \"#utility.yul\":18067:18206   */\n      swap1\n      pop\n        /* \"#utility.yul\":17794:18213   */\n      swap2\n      swap1\n      pop\n      jump\t// out\n        /* \"#utility.yul\":18219:18399   */\n    tag_159:\n        /* \"#utility.yul\":18267:18344   */\n      0x4e487b7100000000000000000000000000000000000000000000000000000000\n        /* \"#utility.yul\":18264:18265   */\n      0x00\n        /* \"#utility.yul\":18257:18345   */\n      mstore\n        /* \"#utility.yul\":18364:18368   */\n      0x32\n        /* \"#utility.yul\":18361:18362   */\n      0x04\n        /* \"#utility.yul\":18354:18369   */\n      mstore\n        /* \"#utility.yul\":18388:18392   */\n      0x24\n        /* \"#utility.yul\":18385:18386   */\n      0x00\n        /* \"#utility.yul\":18378:18393   */\n      revert\n        /* \"#utility.yul\":18405:18549   */\n    tag_265:\n        /* \"#utility.yul\":18457:18461   */\n      0x00\n        /* \"#utility.yul\":18480:18483   */\n      dup2\n        /* \"#utility.yul\":18472:18483   */\n      swap1\n      pop\n        /* \"#utility.yul\":18503:18506   */\n      dup2\n        /* \"#utility.yul\":18500:18501   */\n      0x00\n        /* \"#utility.yul\":18493:18507   */\n      mstore\n        /* \"#utility.yul\":18537:18541   */\n      0x20\n        /* \"#utility.yul\":18534:18535   */\n      0x00\n        /* \"#utility.yul\":18524:18542   */\n      keccak256\n        /* \"#utility.yul\":18516:18542   */\n      swap1\n      pop\n        /* \"#utility.yul\":18405:18549   */\n      swap2\n      swap1\n      pop\n      jump\t// out\n        /* \"#utility.yul\":18577:19455   */\n    tag_266:\n        /* \"#utility.yul\":18682:18685   */\n      0x00\n        /* \"#utility.yul\":18719:18724   */\n      dup2\n        /* \"#utility.yul\":18713:18725   */\n      sload\n        /* \"#utility.yul\":18748:18784   */\n      tag_455\n        /* \"#utility.yul\":18774:18783   */\n      dup2\n        /* \"#utility.yul\":18748:18784   */\n      tag_142\n      jump\t// in\n    tag_455:\n        /* \"#utility.yul\":18800:18888   */\n      tag_456\n        /* \"#utility.yul\":18881:18887   */\n      dup2\n        /* \"#utility.yul\":18876:18879   */\n      dup7\n        /* \"#utility.yul\":18800:18888   */\n      tag_251\n      jump\t// in\n    tag_456:\n        /* \"#utility.yul\":18793:18888   */\n      swap5\n      pop\n        /* \"#utility.yul\":18919:18920   */\n      0x01\n        /* \"#utility.yul\":18908:18917   */\n      dup3\n        /* \"#utility.yul\":18904:18921   */\n      and\n        /* \"#utility.yul\":18935:18936   */\n      0x00\n        /* \"#utility.yul\":18930:19096   */\n      dup2\n      eq\n      tag_458\n      jumpi\n        /* \"#utility.yul\":19110:19111   */\n      0x01\n        /* \"#utility.yul\":19105:19449   */\n      dup2\n      eq\n      tag_459\n      jumpi\n        /* \"#utility.yul\":18897:19449   */\n      jump(tag_457)\n        /* \"#utility.yul\":18930:19096   */\n    tag_458:\n        /* \"#utility.yul\":19014:19018   */\n      0xff\n        /* \"#utility.yul\":19010:19019   */\n      not\n        /* \"#utility.yul\":18999:19008   */\n      dup4\n        /* \"#utility.yul\":18995:19020   */\n      and\n        /* \"#utility.yul\":18990:18993   */\n      dup7\n        /* \"#utility.yul\":18983:19021   */\n      mstore\n        /* \"#utility.yul\":19076:19082   */\n      dup2\n        /* \"#utility.yul\":19069:19083   */\n      iszero\n        /* \"#utility.yul\":19062:19084   */\n      iszero\n        /* \"#utility.yul\":19054:19060   */\n      dup3\n        /* \"#utility.yul\":19050:19085   */\n      mul\n        /* \"#utility.yul\":19045:19048   */\n      dup7\n        /* \"#utility.yul\":19041:19086   */\n      add\n        /* \"#utility.yul\":19034:19086   */\n      swap4\n      pop\n        /* \"#utility.yul\":18930:19096   */\n      jump(tag_457)\n        /* \"#utility.yul\":19105:19449   */\n    tag_459:\n        /* \"#utility.yul\":19172:19213   */\n      tag_460\n        /* \"#utility.yul\":19207:19212   */\n      dup6\n        /* \"#utility.yul\":19172:19213   */\n      tag_265\n      jump\t// in\n    tag_460:\n        /* \"#utility.yul\":19235:19236   */\n      0x00\n        /* \"#utility.yul\":19249:19403   */\n    tag_461:\n        /* \"#utility.yul\":19263:19269   */\n      dup4\n        /* \"#utility.yul\":19260:19261   */\n      dup2\n        /* \"#utility.yul\":19257:19270   */\n      lt\n        /* \"#utility.yul\":19249:19403   */\n      iszero\n      tag_463\n      jumpi\n        /* \"#utility.yul\":19337:19344   */\n      dup2\n        /* \"#utility.yul\":19331:19345   */\n      sload\n        /* \"#utility.yul\":19327:19328   */\n      dup2\n        /* \"#utility.yul\":19322:19325   */\n      dup10\n        /* \"#utility.yul\":19318:19329   */\n      add\n        /* \"#utility.yul\":19311:19346   */\n      mstore\n        /* \"#utility.yul\":19387:19388   */\n      0x01\n        /* \"#utility.yul\":19378:19385   */\n      dup3\n        /* \"#utility.yul\":19374:19389   */\n      add\n        /* \"#utility.yul\":19363:19389   */\n      swap2\n      pop\n        /* \"#utility.yul\":19285:19289   */\n      0x20\n        /* \"#utility.yul\":19282:19283   */\n      dup2\n        /* \"#utility.yul\":19278:19290   */\n      add\n        /* \"#utility.yul\":19273:19290   */\n      swap1\n      pop\n        /* \"#utility.yul\":19249:19403   */\n      jump(tag_461)\n    tag_463:\n        /* \"#utility.yul\":19432:19438   */\n      dup4\n        /* \"#utility.yul\":19427:19430   */\n      dup9\n        /* \"#utility.yul\":19423:19439   */\n      add\n        /* \"#utility.yul\":19416:19439   */\n      swap6\n      pop\n        /* \"#utility.yul\":19112:19449   */\n      pop\n      pop\n        /* \"#utility.yul\":18897:19449   */\n    tag_457:\n      pop\n        /* \"#utility.yul\":18686:19455   */\n      pop\n      pop\n        /* \"#utility.yul\":18577:19455   */\n      swap3\n      swap2\n      pop\n      pop\n      jump\t// out\n        /* \"#utility.yul\":19461:19734   */\n    tag_162:\n        /* \"#utility.yul\":19592:19595   */\n      0x00\n        /* \"#utility.yul\":19614:19708   */\n      tag_465\n        /* \"#utility.yul\":19704:19707   */\n      dup3\n        /* \"#utility.yul\":19695:19701   */\n      dup5\n        /* \"#utility.yul\":19614:19708   */\n      tag_266\n      jump\t// in\n    tag_465:\n        /* \"#utility.yul\":19607:19708   */\n      swap2\n      pop\n        /* \"#utility.yul\":19725:19728   */\n      dup2\n        /* \"#utility.yul\":19718:19728   */\n      swap1\n      pop\n        /* \"#utility.yul\":19461:19734   */\n      swap3\n      swap2\n      pop\n      pop\n      jump\t// out\n        /* \"#utility.yul\":19740:19881   */\n    tag_267:\n        /* \"#utility.yul\":19789:19793   */\n      0x00\n        /* \"#utility.yul\":19812:19815   */\n      dup2\n        /* \"#utility.yul\":19804:19815   */\n      swap1\n      pop\n        /* \"#utility.yul\":19835:19838   */\n      dup2\n        /* \"#utility.yul\":19832:19833   */\n      0x00\n        /* \"#utility.yul\":19825:19839   */\n      mstore\n        /* \"#utility.yul\":19869:19873   */\n      0x20\n        /* \"#utility.yul\":19866:19867   */\n      0x00\n        /* \"#utility.yul\":19856:19874   */\n      keccak256\n        /* \"#utility.yul\":19848:19874   */\n      swap1\n      pop\n        /* \"#utility.yul\":19740:19881   */\n      swap2\n      swap1\n      pop\n      jump\t// out\n        /* \"#utility.yul\":19887:19980   */\n    tag_268:\n        /* \"#utility.yul\":19924:19930   */\n      0x00\n        /* \"#utility.yul\":19971:19973   */\n      0x20\n        /* \"#utility.yul\":19966:19968   */\n      0x1f\n        /* \"#utility.yul\":19959:19964   */\n      dup4\n        /* \"#utility.yul\":19955:19969   */\n      add\n        /* \"#utility.yul\":19951:19974   */\n      div\n        /* \"#utility.yul\":19941:19974   */\n      swap1\n      pop\n        /* \"#utility.yul\":19887:19980   */\n      swap2\n      swap1\n      pop\n      jump\t// out\n        /* \"#utility.yul\":19986:20093   */\n    tag_269:\n        /* \"#utility.yul\":20030:20038   */\n      0x00\n        /* \"#utility.yul\":20080:20085   */\n      dup3\n        /* \"#utility.yul\":20074:20078   */\n      dup3\n        /* \"#utility.yul\":20070:20086   */\n      shl\n        /* \"#utility.yul\":20049:20086   */\n      swap1\n      pop\n        /* \"#utility.yul\":19986:20093   */\n      swap3\n      swap2\n      pop\n      pop\n      jump\t// out\n        /* \"#utility.yul\":20099:20492   */\n    tag_270:\n        /* \"#utility.yul\":20168:20174   */\n      0x00\n        /* \"#utility.yul\":20218:20219   */\n      0x08\n        /* \"#utility.yul\":20206:20216   */\n      dup4\n        /* \"#utility.yul\":20202:20220   */\n      mul\n        /* \"#utility.yul\":20241:20338   */\n      tag_470\n        /* \"#utility.yul\":20271:20337   */\n      0xffffffffffffffffffffffffffffffffffffffffffffffffffffffffffffffff\n        /* \"#utility.yul\":20260:20269   */\n      dup3\n        /* \"#utility.yul\":20241:20338   */\n      tag_269\n      jump\t// in\n    tag_470:\n        /* \"#utility.yul\":20359:20398   */\n      tag_471\n        /* \"#utility.yul\":20389:20397   */\n      dup7\n        /* \"#utility.yul\":20378:20387   */\n      dup4\n        /* \"#utility.yul\":20359:20398   */\n      tag_269\n      jump\t// in\n    tag_471:\n        /* \"#utility.yul\":20347:20398   */\n      swap6\n      pop\n        /* \"#utility.yul\":20431:20435   */\n      dup1\n        /* \"#utility.yul\":20427:20436   */\n      not\n        /* \"#utility.yul\":20420:20425   */\n      dup5\n        /* \"#utility.yul\":20416:20437   */\n      and\n        /* \"#utility.yul\":20407:20437   */\n      swap4\n      pop\n        /* \"#utility.yul\":20480:20484   */\n      dup1\n        /* \"#utility.yul\":20470:20478   */\n      dup7\n        /* \"#utility.yul\":20466:20485   */\n      and\n        /* \"#utility.yul\":20459:20464   */\n      dup5\n        /* \"#utility.yul\":20456:20486   */\n      or\n        /* \"#utility.yul\":20446:20486   */\n      swap3\n      pop\n        /* \"#utility.yul\":20175:20492   */\n      pop\n      pop\n        /* \"#utility.yul\":20099:20492   */\n      swap4\n      swap3\n      pop\n      pop\n      pop\n      jump\t// out\n        /* \"#utility.yul\":20498:20558   */\n    tag_271:\n        /* \"#utility.yul\":20526:20529   */\n      0x00\n        /* \"#utility.yul\":20547:20552   */\n      dup2\n        /* \"#utility.yul\":20540:20552   */\n      swap1\n      pop\n        /* \"#utility.yul\":20498:20558   */\n      swap2\n      swap1\n      pop\n      jump\t// out\n        /* \"#utility.yul\":20564:20706   */\n    tag_272:\n        /* \"#utility.yul\":20614:20623   */\n      0x00\n        /* \"#utility.yul\":20647:20700   */\n      tag_474\n        /* \"#utility.yul\":20665:20699   */\n      tag_475\n        /* \"#utility.yul\":20674:20698   */\n      tag_476\n        /* \"#utility.yul\":20692:20697   */\n      dup5\n        /* \"#utility.yul\":20674:20698   */\n      tag_226\n      jump\t// in\n    tag_476:\n        /* \"#utility.yul\":20665:20699   */\n      tag_271\n      jump\t// in\n    tag_475:\n        /* \"#utility.yul\":20647:20700   */\n      tag_226\n      jump\t// in\n    tag_474:\n        /* \"#utility.yul\":20634:20700   */\n      swap1\n      pop\n        /* \"#utility.yul\":20564:20706   */\n      swap2\n      swap1\n      pop\n      jump\t// out\n        /* \"#utility.yul\":20712:20787   */\n    tag_273:\n        /* \"#utility.yul\":20755:20758   */\n      0x00\n        /* \"#utility.yul\":20776:20781   */\n      dup2\n        /* \"#utility.yul\":20769:20781   */\n      swap1\n      pop\n        /* \"#utility.yul\":20712:20787   */\n      swap2\n      swap1\n      pop\n      jump\t// out\n        /* \"#utility.yul\":20793:21062   */\n    tag_274:\n        /* \"#utility.yul\":20903:20942   */\n      tag_479\n        /* \"#utility.yul\":20934:20941   */\n      dup4\n        /* \"#utility.yul\":20903:20942   */\n      tag_272\n      jump\t// in\n    tag_479:\n        /* \"#utility.yul\":20964:21055   */\n      tag_480\n        /* \"#utility.yul\":21013:21054   */\n      tag_481\n        /* \"#utility.yul\":21037:21053   */\n      dup3\n        /* \"#utility.yul\":21013:21054   */\n      tag_273\n      jump\t// in\n    tag_481:\n        /* \"#utility.yul\":21005:21011   */\n      dup5\n        /* \"#utility.yul\":20998:21002   */\n      dup5\n        /* \"#utility.yul\":20992:21003   */\n      sload\n        /* \"#utility.yul\":20964:21055   */\n      tag_270\n      jump\t// in\n    tag_480:\n        /* \"#utility.yul\":20958:20962   */\n      dup3\n        /* \"#utility.yul\":20951:21056   */\n      sstore\n        /* \"#utility.yul\":20869:21062   */\n      pop\n        /* \"#utility.yul\":20793:21062   */\n      pop\n      pop\n      pop\n      jump\t// out\n        /* \"#utility.yul\":21068:21141   */\n    tag_275:\n        /* \"#utility.yul\":21113:21116   */\n      0x00\n        /* \"#utility.yul\":21134:21135   */\n      0x00\n        /* \"#utility.yul\":21127:21135   */\n      swap1\n      pop\n        /* \"#utility.yul\":21068:21141   */\n      swap1\n      jump\t// out\n        /* \"#utility.yul\":21147:21336   */\n    tag_276:\n        /* \"#utility.yul\":21224:21256   */\n      tag_484\n      tag_275\n      jump\t// in\n    tag_484:\n        /* \"#utility.yul\":21265:21330   */\n      tag_485\n        /* \"#utility.yul\":21323:21329   */\n      dup2\n        /* \"#utility.yul\":21315:21321   */\n      dup5\n        /* \"#utility.yul\":21309:21313   */\n      dup5\n        /* \"#utility.yul\":21265:21330   */\n      tag_274\n      jump\t// in\n    tag_485:\n        /* \"#utility.yul\":21200:21336   */\n      pop\n        /* \"#utility.yul\":21147:21336   */\n      pop\n      pop\n      jump\t// out\n        /* \"#utility.yul\":21342:21528   */\n    tag_277:\n        /* \"#utility.yul\":21402:21522   */\n    tag_487:\n        /* \"#utility.yul\":21419:21422   */\n      dup2\n        /* \"#utility.yul\":21412:21417   */\n      dup2\n        /* \"#utility.yul\":21409:21423   */\n      lt\n        /* \"#utility.yul\":21402:21522   */\n      iszero\n      tag_489\n      jumpi\n        /* \"#utility.yul\":21473:21512   */\n      tag_490\n        /* \"#utility.yul\":21510:21511   */\n      0x00\n        /* \"#utility.yul\":21503:21508   */\n      dup3\n        /* \"#utility.yul\":21473:21512   */\n      tag_276\n      jump\t// in\n    tag_490:\n        /* \"#utility.yul\":21446:21447   */\n      0x01\n        /* \"#utility.yul\":21439:21444   */\n      dup2\n        /* \"#utility.yul\":21435:21448   */\n      add\n        /* \"#utility.yul\":21426:21448   */\n      swap1\n      pop\n        /* \"#utility.yul\":21402:21522   */\n      jump(tag_487)\n    tag_489:\n        /* \"#utility.yul\":21342:21528   */\n      pop\n      pop\n      jump\t// out\n        /* \"#utility.yul\":21534:22077   */\n    tag_278:\n        /* \"#utility.yul\":21635:21637   */\n      0x1f\n        /* \"#utility.yul\":21630:21633   */\n      dup3\n        /* \"#utility.yul\":21627:21638   */\n      gt\n        /* \"#utility.yul\":21624:22070   */\n      iszero\n      tag_492\n      jumpi\n        /* \"#utility.yul\":21669:21707   */\n      tag_493\n        /* \"#utility.yul\":21701:21706   */\n      dup2\n        /* \"#utility.yul\":21669:21707   */\n      tag_267\n      jump\t// in\n    tag_493:\n        /* \"#utility.yul\":21753:21782   */\n      tag_494\n        /* \"#utility.yul\":21771:21781   */\n      dup5\n        /* \"#utility.yul\":21753:21782   */\n      tag_268\n      jump\t// in\n    tag_494:\n        /* \"#utility.yul\":21743:21751   */\n      dup2\n        /* \"#utility.yul\":21739:21783   */\n      add\n        /* \"#utility.yul\":21936:21938   */\n      0x20\n        /* \"#utility.yul\":21924:21934   */\n      dup6\n        /* \"#utility.yul\":21921:21939   */\n      lt\n        /* \"#utility.yul\":21918:21967   */\n      iszero\n      tag_495\n      jumpi\n        /* \"#utility.yul\":21957:21965   */\n      dup2\n        /* \"#utility.yul\":21942:21965   */\n      swap1\n      pop\n        /* \"#utility.yul\":21918:21967   */\n    tag_495:\n        /* \"#utility.yul\":21980:22060   */\n      tag_496\n        /* \"#utility.yul\":22036:22058   */\n      tag_497\n        /* \"#utility.yul\":22054:22057   */\n      dup6\n        /* \"#utility.yul\":22036:22058   */\n      tag_268\n      jump\t// in\n    tag_497:\n        /* \"#utility.yul\":22026:22034   */\n      dup4\n        /* \"#utility.yul\":22022:22059   */\n      add\n        /* \"#utility.yul\":22009:22020   */\n      dup3\n        /* \"#utility.yul\":21980:22060   */\n      tag_277\n      jump\t// in\n    tag_496:\n        /* \"#utility.yul\":21639:22070   */\n      pop\n      pop\n        /* \"#utility.yul\":21624:22070   */\n    tag_492:\n        /* \"#utility.yul\":21534:22077   */\n      pop\n      pop\n      pop\n      jump\t// out\n        /* \"#utility.yul\":22083:22200   */\n    tag_279:\n        /* \"#utility.yul\":22137:22145   */\n      0x00\n        /* \"#utility.yul\":22187:22192   */\n      dup3\n        /* \"#utility.yul\":22181:22185   */\n      dup3\n        /* \"#utility.yul\":22177:22193   */\n      shr\n        /* \"#utility.yul\":22156:22193   */\n      swap1\n      pop\n        /* \"#utility.yul\":22083:22200   */\n      swap3\n      swap2\n      pop\n      pop\n      jump\t// out\n        /* \"#utility.yul\":22206:22375   */\n    tag_280:\n        /* \"#utility.yul\":22250:22256   */\n      0x00\n        /* \"#utility.yul\":22283:22334   */\n      tag_500\n        /* \"#utility.yul\":22331:22332   */\n      0x00\n        /* \"#utility.yul\":22327:22333   */\n      not\n        /* \"#utility.yul\":22319:22324   */\n      dup5\n        /* \"#utility.yul\":22316:22317   */\n      0x08\n        /* \"#utility.yul\":22312:22325   */\n      mul\n        /* \"#utility.yul\":22283:22334   */\n      tag_279\n      jump\t// in\n    tag_500:\n        /* \"#utility.yul\":22279:22335   */\n      not\n        /* \"#utility.yul\":22364:22368   */\n      dup1\n        /* \"#utility.yul\":22358:22362   */\n      dup4\n        /* \"#utility.yul\":22354:22369   */\n      and\n        /* \"#utility.yul\":22344:22369   */\n      swap2\n      pop\n        /* \"#utility.yul\":22257:22375   */\n      pop\n        /* \"#utility.yul\":22206:22375   */\n      swap3\n      swap2\n      pop\n      pop\n      jump\t// out\n        /* \"#utility.yul\":22380:22675   */\n    tag_281:\n        /* \"#utility.yul\":22456:22460   */\n      0x00\n        /* \"#utility.yul\":22602:22631   */\n      tag_502\n        /* \"#utility.yul\":22627:22630   */\n      dup4\n        /* \"#utility.yul\":22621:22625   */\n      dup4\n        /* \"#utility.yul\":22602:22631   */\n      tag_280\n      jump\t// in\n    tag_502:\n        /* \"#utility.yul\":22594:22631   */\n      swap2\n      pop\n        /* \"#utility.yul\":22664:22667   */\n      dup3\n        /* \"#utility.yul\":22661:22662   */\n      0x02\n        /* \"#utility.yul\":22657:22668   */\n      mul\n        /* \"#utility.yul\":22651:22655   */\n      dup3\n        /* \"#utility.yul\":22648:22669   */\n      or\n        /* \"#utility.yul\":22640:22669   */\n      swap1\n      pop\n        /* \"#utility.yul\":22380:22675   */\n      swap3\n      swap2\n      pop\n      pop\n      jump\t// out\n        /* \"#utility.yul\":22680:24075   */\n    tag_167:\n        /* \"#utility.yul\":22797:22834   */\n      tag_504\n        /* \"#utility.yul\":22830:22833   */\n      dup3\n        /* \"#utility.yul\":22797:22834   */\n      tag_235\n      jump\t// in\n    tag_504:\n        /* \"#utility.yul\":22899:22917   */\n      0xffffffffffffffff\n        /* \"#utility.yul\":22891:22897   */\n      dup2\n        /* \"#utility.yul\":22888:22918   */\n      gt\n        /* \"#utility.yul\":22885:22941   */\n      iszero\n      tag_505\n      jumpi\n        /* \"#utility.yul\":22921:22939   */\n      tag_506\n      tag_219\n      jump\t// in\n    tag_506:\n        /* \"#utility.yul\":22885:22941   */\n    tag_505:\n        /* \"#utility.yul\":22965:23003   */\n      tag_507\n        /* \"#utility.yul\":22997:23001   */\n      dup3\n        /* \"#utility.yul\":22991:23002   */\n      sload\n        /* \"#utility.yul\":22965:23003   */\n      tag_142\n      jump\t// in\n    tag_507:\n        /* \"#utility.yul\":23050:23117   */\n      tag_508\n        /* \"#utility.yul\":23110:23116   */\n      dup3\n        /* \"#utility.yul\":23102:23108   */\n      dup3\n        /* \"#utility.yul\":23096:23100   */\n      dup6\n        /* \"#utility.yul\":23050:23117   */\n      tag_278\n      jump\t// in\n    tag_508:\n        /* \"#utility.yul\":23144:23145   */\n      0x00\n        /* \"#utility.yul\":23168:23172   */\n      0x20\n        /* \"#utility.yul\":23155:23172   */\n      swap1\n      pop\n        /* \"#utility.yul\":23200:23202   */\n      0x1f\n        /* \"#utility.yul\":23192:23198   */\n      dup4\n        /* \"#utility.yul\":23189:23203   */\n      gt\n        /* \"#utility.yul\":23217:23218   */\n      0x01\n        /* \"#utility.yul\":23212:23830   */\n      dup2\n      eq\n      tag_510\n      jumpi\n        /* \"#utility.yul\":23874:23875   */\n      0x00\n        /* \"#utility.yul\":23891:23897   */\n      dup5\n        /* \"#utility.yul\":23888:23965   */\n      iszero\n      tag_511\n      jumpi\n        /* \"#utility.yul\":23940:23949   */\n      dup3\n        /* \"#utility.yul\":23935:23938   */\n      dup8\n        /* \"#utility.yul\":23931:23950   */\n      add\n        /* \"#utility.yul\":23925:23951   */\n      mload\n        /* \"#utility.yul\":23916:23951   */\n      swap1\n      pop\n        /* \"#utility.yul\":23888:23965   */\n    tag_511:\n        /* \"#utility.yul\":23991:24058   */\n      tag_512\n        /* \"#utility.yul\":24051:24057   */\n      dup6\n        /* \"#utility.yul\":24044:24049   */\n      dup3\n        /* \"#utility.yul\":23991:24058   */\n      tag_281\n      jump\t// in\n    tag_512:\n        /* \"#utility.yul\":23985:23989   */\n      dup7\n        /* \"#utility.yul\":23978:24059   */\n      sstore\n        /* \"#utility.yul\":23847:24069   */\n      pop\n        /* \"#utility.yul\":23182:24069   */\n      jump(tag_509)\n        /* \"#utility.yul\":23212:23830   */\n    tag_510:\n        /* \"#utility.yul\":23264:23268   */\n      0x1f\n        /* \"#utility.yul\":23260:23269   */\n      not\n        /* \"#utility.yul\":23252:23258   */\n      dup5\n        /* \"#utility.yul\":23248:23270   */\n      and\n        /* \"#utility.yul\":23298:23335   */\n      tag_513\n        /* \"#utility.yul\":23330:23334   */\n      dup7\n        /* \"#utility.yul\":23298:23335   */\n      tag_267\n      jump\t// in\n    tag_513:\n        /* \"#utility.yul\":23357:23358   */\n      0x00\n        /* \"#utility.yul\":23371:23579   */\n    tag_514:\n        /* \"#utility.yul\":23385:23392   */\n      dup3\n        /* \"#utility.yul\":23382:23383   */\n      dup2\n        /* \"#utility.yul\":23379:23393   */\n      lt\n        /* \"#utility.yul\":23371:23579   */\n      iszero\n      tag_516\n      jumpi\n        /* \"#utility.yul\":23464:23473   */\n      dup5\n        /* \"#utility.yul\":23459:23462   */\n      dup10\n        /* \"#utility.yul\":23455:23474   */\n      add\n        /* \"#utility.yul\":23449:23475   */\n      mload\n        /* \"#utility.yul\":23441:23447   */\n      dup3\n        /* \"#utility.yul\":23434:23476   */\n      sstore\n        /* \"#utility.yul\":23515:23516   */\n      0x01\n        /* \"#utility.yul\":23507:23513   */\n      dup3\n        /* \"#utility.yul\":23503:23517   */\n      add\n        /* \"#utility.yul\":23493:23517   */\n      swap2\n      pop\n        /* \"#utility.yul\":23562:23564   */\n      0x20\n        /* \"#utility.yul\":23551:23560   */\n      dup6\n        /* \"#utility.yul\":23547:23565   */\n      add\n        /* \"#utility.yul\":23534:23565   */\n      swap5\n      pop\n        /* \"#utility.yul\":23408:23412   */\n      0x20\n        /* \"#utility.yul\":23405:23406   */\n      dup2\n        /* \"#utility.yul\":23401:23413   */\n      add\n        /* \"#utility.yul\":23396:23413   */\n      swap1\n      pop\n        /* \"#utility.yul\":23371:23579   */\n      jump(tag_514)\n    tag_516:\n        /* \"#utility.yul\":23607:23613   */\n      dup7\n        /* \"#utility.yul\":23598:23605   */\n      dup4\n        /* \"#utility.yul\":23595:23614   */\n      lt\n        /* \"#utility.yul\":23592:23771   */\n      iszero\n      tag_517\n      jumpi\n        /* \"#utility.yul\":23665:23674   */\n      dup5\n        /* \"#utility.yul\":23660:23663   */\n      dup10\n        /* \"#utility.yul\":23656:23675   */\n      add\n        /* \"#utility.yul\":23650:23676   */\n      mload\n        /* \"#utility.yul\":23708:23756   */\n      tag_518\n        /* \"#utility.yul\":23750:23754   */\n      0x1f\n        /* \"#utility.yul\":23742:23748   */\n      dup10\n        /* \"#utility.yul\":23738:23755   */\n      and\n        /* \"#utility.yul\":23727:23736   */\n      dup3\n        /* \"#utility.yul\":23708:23756   */\n      tag_280\n      jump\t// in\n    tag_518:\n        /* \"#utility.yul\":23700:23706   */\n      dup4\n        /* \"#utility.yul\":23693:23757   */\n      sstore\n        /* \"#utility.yul\":23615:23771   */\n      pop\n        /* \"#utility.yul\":23592:23771   */\n    tag_517:\n        /* \"#utility.yul\":23817:23818   */\n      0x01\n        /* \"#utility.yul\":23813:23814   */\n      0x02\n        /* \"#utility.yul\":23805:23811   */\n      dup9\n        /* \"#utility.yul\":23801:23815   */\n      mul\n        /* \"#utility.yul\":23797:23819   */\n      add\n        /* \"#utility.yul\":23791:23795   */\n      dup9\n        /* \"#utility.yul\":23784:23820   */\n      sstore\n        /* \"#utility.yul\":23219:23830   */\n      pop\n      pop\n      pop\n        /* \"#utility.yul\":23182:24069   */\n    tag_509:\n      pop\n        /* \"#utility.yul\":22772:24075   */\n      pop\n      pop\n      pop\n        /* \"#utility.yul\":22680:24075   */\n      pop\n      pop\n      jump\t// out\n        /* \"#utility.yul\":24081:24252   */\n    tag_282:\n        /* \"#utility.yul\":24221:24244   */\n      0x43757272656e6379206e6f7420737570706f72742e0000000000000000000000\n        /* \"#utility.yul\":24217:24218   */\n      0x00\n        /* \"#utility.yul\":24209:24215   */\n      dup3\n        /* \"#utility.yul\":24205:24219   */\n      add\n        /* \"#utility.yul\":24198:24245   */\n      mstore\n        /* \"#utility.yul\":24081:24252   */\n      pop\n      jump\t// out\n        /* \"#utility.yul\":24258:24624   */\n    tag_283:\n        /* \"#utility.yul\":24400:24403   */\n      0x00\n        /* \"#utility.yul\":24421:24488   */\n      tag_521\n        /* \"#utility.yul\":24485:24487   */\n      0x15\n        /* \"#utility.yul\":24480:24483   */\n      dup4\n        /* \"#utility.yul\":24421:24488   */\n      tag_244\n      jump\t// in\n    tag_521:\n        /* \"#utility.yul\":24414:24488   */\n      swap2\n      pop\n        /* \"#utility.yul\":24497:24590   */\n      tag_522\n        /* \"#utility.yul\":24586:24589   */\n      dup3\n        /* \"#utility.yul\":24497:24590   */\n      tag_282\n      jump\t// in\n    tag_522:\n        /* \"#utility.yul\":24615:24617   */\n      0x20\n        /* \"#utility.yul\":24610:24613   */\n      dup3\n        /* \"#utility.yul\":24606:24618   */\n      add\n        /* \"#utility.yul\":24599:24618   */\n      swap1\n      pop\n        /* \"#utility.yul\":24258:24624   */\n      swap2\n      swap1\n      pop\n      jump\t// out\n        /* \"#utility.yul\":24630:25049   */\n    tag_180:\n        /* \"#utility.yul\":24796:24800   */\n      0x00\n        /* \"#utility.yul\":24834:24836   */\n      0x20\n        /* \"#utility.yul\":24823:24832   */\n      dup3\n        /* \"#utility.yul\":24819:24837   */\n      add\n        /* \"#utility.yul\":24811:24837   */\n      swap1\n      pop\n        /* \"#utility.yul\":24883:24892   */\n      dup2\n        /* \"#utility.yul\":24877:24881   */\n      dup2\n        /* \"#utility.yul\":24873:24893   */\n      sub\n        /* \"#utility.yul\":24869:24870   */\n      0x00\n        /* \"#utility.yul\":24858:24867   */\n      dup4\n        /* \"#utility.yul\":24854:24871   */\n      add\n        /* \"#utility.yul\":24847:24894   */\n      mstore\n        /* \"#utility.yul\":24911:25042   */\n      tag_524\n        /* \"#utility.yul\":25037:25041   */\n      dup2\n        /* \"#utility.yul\":24911:25042   */\n      tag_283\n      jump\t// in\n    tag_524:\n        /* \"#utility.yul\":24903:25042   */\n      swap1\n      pop\n        /* \"#utility.yul\":24630:25049   */\n      swap2\n      swap1\n      pop\n      jump\t// out\n        /* \"#utility.yul\":25055:25235   */\n    tag_284:\n        /* \"#utility.yul\":25103:25180   */\n      0x4e487b7100000000000000000000000000000000000000000000000000000000\n        /* \"#utility.yul\":25100:25101   */\n      0x00\n        /* \"#utility.yul\":25093:25181   */\n      mstore\n        /* \"#utility.yul\":25200:25204   */\n      0x11\n        /* \"#utility.yul\":25197:25198   */\n      0x04\n        /* \"#utility.yul\":25190:25205   */\n      mstore\n        /* \"#utility.yul\":25224:25228   */\n      0x24\n        /* \"#utility.yul\":25221:25222   */\n      0x00\n        /* \"#utility.yul\":25214:25229   */\n      revert\n        /* \"#utility.yul\":25241:25651   */\n    tag_183:\n        /* \"#utility.yul\":25281:25288   */\n      0x00\n        /* \"#utility.yul\":25304:25324   */\n      tag_527\n        /* \"#utility.yul\":25322:25323   */\n      dup3\n        /* \"#utility.yul\":25304:25324   */\n      tag_226\n      jump\t// in\n    tag_527:\n        /* \"#utility.yul\":25299:25324   */\n      swap2\n      pop\n        /* \"#utility.yul\":25338:25358   */\n      tag_528\n        /* \"#utility.yul\":25356:25357   */\n      dup4\n        /* \"#utility.yul\":25338:25358   */\n      tag_226\n      jump\t// in\n    tag_528:\n        /* \"#utility.yul\":25333:25358   */\n      swap3\n      pop\n        /* \"#utility.yul\":25393:25394   */\n      dup3\n        /* \"#utility.yul\":25390:25391   */\n      dup3\n        /* \"#utility.yul\":25386:25395   */\n      mul\n        /* \"#utility.yul\":25415:25445   */\n      tag_529\n        /* \"#utility.yul\":25433:25444   */\n      dup2\n        /* \"#utility.yul\":25415:25445   */\n      tag_226\n      jump\t// in\n    tag_529:\n        /* \"#utility.yul\":25404:25445   */\n      swap2\n      pop\n        /* \"#utility.yul\":25594:25595   */\n      dup3\n        /* \"#utility.yul\":25585:25592   */\n      dup3\n        /* \"#utility.yul\":25581:25596   */\n      div\n        /* \"#utility.yul\":25578:25579   */\n      dup5\n        /* \"#utility.yul\":25575:25597   */\n      eq\n        /* \"#utility.yul\":25555:25556   */\n      dup4\n        /* \"#utility.yul\":25548:25557   */\n      iszero\n        /* \"#utility.yul\":25528:25611   */\n      or\n        /* \"#utility.yul\":25505:25644   */\n      tag_530\n      jumpi\n        /* \"#utility.yul\":25624:25642   */\n      tag_531\n      tag_284\n      jump\t// in\n    tag_531:\n        /* \"#utility.yul\":25505:25644   */\n    tag_530:\n        /* \"#utility.yul\":25289:25651   */\n      pop\n        /* \"#utility.yul\":25241:25651   */\n      swap3\n      swap2\n      pop\n      pop\n      jump\t// out\n        /* \"#utility.yul\":25657:25881   */\n    tag_285:\n        /* \"#utility.yul\":25797:25831   */\n      0x54697020616d6f756e74206d7573742062652067726561746572207468616e20\n        /* \"#utility.yul\":25793:25794   */\n      0x00\n        /* \"#utility.yul\":25785:25791   */\n      dup3\n        /* \"#utility.yul\":25781:25795   */\n      add\n        /* \"#utility.yul\":25774:25832   */\n      mstore\n        /* \"#utility.yul\":25866:25873   */\n      0x7a65726f2e000000000000000000000000000000000000000000000000000000\n        /* \"#utility.yul\":25861:25863   */\n      0x20\n        /* \"#utility.yul\":25853:25859   */\n      dup3\n        /* \"#utility.yul\":25849:25864   */\n      add\n        /* \"#utility.yul\":25842:25874   */\n      mstore\n        /* \"#utility.yul\":25657:25881   */\n      pop\n      jump\t// out\n        /* \"#utility.yul\":25887:26253   */\n    tag_286:\n        /* \"#utility.yul\":26029:26032   */\n      0x00\n        /* \"#utility.yul\":26050:26117   */\n      tag_534\n        /* \"#utility.yul\":26114:26116   */\n      0x25\n        /* \"#utility.yul\":26109:26112   */\n      dup4\n        /* \"#utility.yul\":26050:26117   */\n      tag_244\n      jump\t// in\n    tag_534:\n        /* \"#utility.yul\":26043:26117   */\n      swap2\n      pop\n        /* \"#utility.yul\":26126:26219   */\n      tag_535\n        /* \"#utility.yul\":26215:26218   */\n      dup3\n        /* \"#utility.yul\":26126:26219   */\n      tag_285\n      jump\t// in\n    tag_535:\n        /* \"#utility.yul\":26244:26246   */\n      0x40\n        /* \"#utility.yul\":26239:26242   */\n      dup3\n        /* \"#utility.yul\":26235:26247   */\n      add\n        /* \"#utility.yul\":26228:26247   */\n      swap1\n      pop\n        /* \"#utility.yul\":25887:26253   */\n      swap2\n      swap1\n      pop\n      jump\t// out\n        /* \"#utility.yul\":26259:26678   */\n    tag_192:\n        /* \"#utility.yul\":26425:26429   */\n      0x00\n        /* \"#utility.yul\":26463:26465   */\n      0x20\n        /* \"#utility.yul\":26452:26461   */\n      dup3\n        /* \"#utility.yul\":26448:26466   */\n      add\n        /* \"#utility.yul\":26440:26466   */\n      swap1\n      pop\n        /* \"#utility.yul\":26512:26521   */\n      dup2\n        /* \"#utility.yul\":26506:26510   */\n      dup2\n        /* \"#utility.yul\":26502:26522   */\n      sub\n        /* \"#utility.yul\":26498:26499   */\n      0x00\n        /* \"#utility.yul\":26487:26496   */\n      dup4\n        /* \"#utility.yul\":26483:26500   */\n      add\n        /* \"#utility.yul\":26476:26523   */\n      mstore\n        /* \"#utility.yul\":26540:26671   */\n      tag_537\n        /* \"#utility.yul\":26666:26670   */\n      dup2\n        /* \"#utility.yul\":26540:26671   */\n      tag_286\n      jump\t// in\n    tag_537:\n        /* \"#utility.yul\":26532:26671   */\n      swap1\n      pop\n        /* \"#utility.yul\":26259:26678   */\n      swap2\n      swap1\n      pop\n      jump\t// out\n        /* \"#utility.yul\":26684:26915   */\n    tag_287:\n        /* \"#utility.yul\":26824:26858   */\n      0x53656e742045544820646f65736e2774206d617463682074686520636f6e7665\n        /* \"#utility.yul\":26820:26821   */\n      0x00\n        /* \"#utility.yul\":26812:26818   */\n      dup3\n        /* \"#utility.yul\":26808:26822   */\n      add\n        /* \"#utility.yul\":26801:26859   */\n      mstore\n        /* \"#utility.yul\":26893:26907   */\n      0x7274656420616d6f756e742e0000000000000000000000000000000000000000\n        /* \"#utility.yul\":26888:26890   */\n      0x20\n        /* \"#utility.yul\":26880:26886   */\n      dup3\n        /* \"#utility.yul\":26876:26891   */\n      add\n        /* \"#utility.yul\":26869:26908   */\n      mstore\n        /* \"#utility.yul\":26684:26915   */\n      pop\n      jump\t// out\n        /* \"#utility.yul\":26921:27287   */\n    tag_288:\n        /* \"#utility.yul\":27063:27066   */\n      0x00\n        /* \"#utility.yul\":27084:27151   */\n      tag_540\n        /* \"#utility.yul\":27148:27150   */\n      0x2c\n        /* \"#utility.yul\":27143:27146   */\n      dup4\n        /* \"#utility.yul\":27084:27151   */\n      tag_244\n      jump\t// in\n    tag_540:\n        /* \"#utility.yul\":27077:27151   */\n      swap2\n      pop\n        /* \"#utility.yul\":27160:27253   */\n      tag_541\n        /* \"#utility.yul\":27249:27252   */\n      dup3\n        /* \"#utility.yul\":27160:27253   */\n      tag_287\n      jump\t// in\n    tag_541:\n        /* \"#utility.yul\":27278:27280   */\n      0x40\n        /* \"#utility.yul\":27273:27276   */\n      dup3\n        /* \"#utility.yul\":27269:27281   */\n      add\n        /* \"#utility.yul\":27262:27281   */\n      swap1\n      pop\n        /* \"#utility.yul\":26921:27287   */\n      swap2\n      swap1\n      pop\n      jump\t// out\n        /* \"#utility.yul\":27293:27712   */\n    tag_196:\n        /* \"#utility.yul\":27459:27463   */\n      0x00\n        /* \"#utility.yul\":27497:27499   */\n      0x20\n        /* \"#utility.yul\":27486:27495   */\n      dup3\n        /* \"#utility.yul\":27482:27500   */\n      add\n        /* \"#utility.yul\":27474:27500   */\n      swap1\n      pop\n        /* \"#utility.yul\":27546:27555   */\n      dup2\n        /* \"#utility.yul\":27540:27544   */\n      dup2\n        /* \"#utility.yul\":27536:27556   */\n      sub\n        /* \"#utility.yul\":27532:27533   */\n      0x00\n        /* \"#utility.yul\":27521:27530   */\n      dup4\n        /* \"#utility.yul\":27517:27534   */\n      add\n        /* \"#utility.yul\":27510:27557   */\n      mstore\n        /* \"#utility.yul\":27574:27705   */\n      tag_543\n        /* \"#utility.yul\":27700:27704   */\n      dup2\n        /* \"#utility.yul\":27574:27705   */\n      tag_288\n      jump\t// in\n    tag_543:\n        /* \"#utility.yul\":27566:27705   */\n      swap1\n      pop\n        /* \"#utility.yul\":27293:27712   */\n      swap2\n      swap1\n      pop\n      jump\t// out\n        /* \"#utility.yul\":27718:27909   */\n    tag_198:\n        /* \"#utility.yul\":27758:27761   */\n      0x00\n        /* \"#utility.yul\":27777:27797   */\n      tag_545\n        /* \"#utility.yul\":27795:27796   */\n      dup3\n        /* \"#utility.yul\":27777:27797   */\n      tag_226\n      jump\t// in\n    tag_545:\n        /* \"#utility.yul\":27772:27797   */\n      swap2\n      pop\n        /* \"#utility.yul\":27811:27831   */\n      tag_546\n        /* \"#utility.yul\":27829:27830   */\n      dup4\n        /* \"#utility.yul\":27811:27831   */\n      tag_226\n      jump\t// in\n    tag_546:\n        /* \"#utility.yul\":27806:27831   */\n      swap3\n      pop\n        /* \"#utility.yul\":27854:27855   */\n      dup3\n        /* \"#utility.yul\":27851:27852   */\n      dup3\n        /* \"#utility.yul\":27847:27856   */\n      add\n        /* \"#utility.yul\":27840:27856   */\n      swap1\n      pop\n        /* \"#utility.yul\":27875:27878   */\n      dup1\n        /* \"#utility.yul\":27872:27873   */\n      dup3\n        /* \"#utility.yul\":27869:27879   */\n      gt\n        /* \"#utility.yul\":27866:27902   */\n      iszero\n      tag_547\n      jumpi\n        /* \"#utility.yul\":27882:27900   */\n      tag_548\n      tag_284\n      jump\t// in\n    tag_548:\n        /* \"#utility.yul\":27866:27902   */\n    tag_547:\n        /* \"#utility.yul\":27718:27909   */\n      swap3\n      swap2\n      pop\n      pop\n      jump\t// out\n        /* \"#utility.yul\":27915:28068   */\n    tag_289:\n        /* \"#utility.yul\":28055:28060   */\n      0x4554480000000000000000000000000000000000000000000000000000000000\n        /* \"#utility.yul\":28051:28052   */\n      0x00\n        /* \"#utility.yul\":28043:28049   */\n      dup3\n        /* \"#utility.yul\":28039:28053   */\n      add\n        /* \"#utility.yul\":28032:28061   */\n      mstore\n        /* \"#utility.yul\":27915:28068   */\n      pop\n      jump\t// out\n        /* \"#utility.yul\":28074:28474   */\n    tag_290:\n        /* \"#utility.yul\":28234:28237   */\n      0x00\n        /* \"#utility.yul\":28255:28339   */\n      tag_551\n        /* \"#utility.yul\":28337:28338   */\n      0x03\n        /* \"#utility.yul\":28332:28335   */\n      dup4\n        /* \"#utility.yul\":28255:28339   */\n      tag_256\n      jump\t// in\n    tag_551:\n        /* \"#utility.yul\":28248:28339   */\n      swap2\n      pop\n        /* \"#utility.yul\":28348:28441   */\n      tag_552\n        /* \"#utility.yul\":28437:28440   */\n      dup3\n        /* \"#utility.yul\":28348:28441   */\n      tag_289\n      jump\t// in\n    tag_552:\n        /* \"#utility.yul\":28466:28467   */\n      0x03\n        /* \"#utility.yul\":28461:28464   */\n      dup3\n        /* \"#utility.yul\":28457:28468   */\n      add\n        /* \"#utility.yul\":28450:28468   */\n      swap1\n      pop\n        /* \"#utility.yul\":28074:28474   */\n      swap2\n      swap1\n      pop\n      jump\t// out\n        /* \"#utility.yul\":28480:28861   */\n    tag_210:\n        /* \"#utility.yul\":28665:28668   */\n      0x00\n        /* \"#utility.yul\":28687:28835   */\n      tag_554\n        /* \"#utility.yul\":28831:28834   */\n      dup3\n        /* \"#utility.yul\":28687:28835   */\n      tag_290\n      jump\t// in\n    tag_554:\n        /* \"#utility.yul\":28680:28835   */\n      swap2\n      pop\n        /* \"#utility.yul\":28852:28855   */\n      dup2\n        /* \"#utility.yul\":28845:28855   */\n      swap1\n      pop\n        /* \"#utility.yul\":28480:28861   */\n      swap2\n      swap1\n      pop\n      jump\t// out\n\n    auxdata: 0xa264697066735822122035489092e7c58cbcfd35c495e57f55d81f1285b0e09397a91173c7c20193193564736f6c634300081e0033\n}\n",
				"bytecode": {
					"linkReferences": {},
					"object": "608060405234801561000f575f5ffd5b50335f5f6101000a81548173ffffffffffffffffffffffffffffffffffffffff021916908373ffffffffffffffffffffffffffffffffffffffff16021790555061009b6040518060400160405280600381526020017f55534400000000000000000000000000000000000000000000000000000000008152506601c6bf5263400061018360201b60201c565b6100e76040518060400160405280600381526020017f4555520000000000000000000000000000000000000000000000000000000000815250660221b262dd800061018360201b60201c565b6101326040518060400160405280600381526020017f4a505900000000000000000000000000000000000000000000000000000000008152506503a35294400061018360201b60201c565b61017e6040518060400160405280600381526020017f474250000000000000000000000000000000000000000000000000000000000081525066027ca57357c00061018360201b60201c565b610893565b5f5f9054906101000a900473ffffffffffffffffffffffffffffffffffffffff1673ffffffffffffffffffffffffffffffffffffffff163373ffffffffffffffffffffffffffffffffffffffff1614610211576040517f08c379a00000000000000000000000000000000000000000000000000000000081526004016102089061039e565b60405180910390fd5b5f8111610253576040517f08c379a000000000000000000000000000000000000000000000000000000000815260040161024a9061042c565b60405180910390fd5b5f5f90505f5f90505b600280549050811015610318578380519060200120600282815481106102855761028461044a565b5b905f5260205f200160405161029a9190610570565b6040518091039020036102b05760019150610318565b816102e857600284908060018154018082558091505060019003905f5260205f20015f9091909190915090816102e69190610766565b505b826001856040516102f9919061087d565b908152602001604051809103902081905550808060010191505061025c565b50505050565b5f82825260208201905092915050565b7f4f6e6c79206f776e65722063616e20706572666f726d207468697320616374695f8201527f6f6e000000000000000000000000000000000000000000000000000000000000602082015250565b5f61038860228361031e565b91506103938261032e565b604082019050919050565b5f6020820190508181035f8301526103b58161037c565b9050919050565b7f436f6e766572696f6e2072617465206d757374206265206772656174657220745f8201527f68616e20302e0000000000000000000000000000000000000000000000000000602082015250565b5f61041660268361031e565b9150610421826103bc565b604082019050919050565b5f6020820190508181035f8301526104438161040a565b9050919050565b7f4e487b71000000000000000000000000000000000000000000000000000000005f52603260045260245ffd5b7f4e487b71000000000000000000000000000000000000000000000000000000005f52602260045260245ffd5b5f60028204905060018216806104bb57607f821691505b6020821081036104ce576104cd610477565b5b50919050565b5f81905092915050565b5f819050815f5260205f209050919050565b5f81546104fc816104a4565b61050681866104d4565b9450600182165f8114610520576001811461053557610567565b60ff1983168652811515820286019350610567565b61053e856104de565b5f5b8381101561055f57815481890152600182019150602081019050610540565b838801955050505b50505092915050565b5f61057b82846104f0565b915081905092915050565b5f81519050919050565b7f4e487b71000000000000000000000000000000000000000000000000000000005f52604160045260245ffd5b5f819050815f5260205f209050919050565b5f6020601f8301049050919050565b5f82821b905092915050565b5f600883026106197fffffffffffffffffffffffffffffffffffffffffffffffffffffffffffffffff826105de565b61062386836105de565b95508019841693508086168417925050509392505050565b5f819050919050565b5f819050919050565b5f61066761066261065d8461063b565b610644565b61063b565b9050919050565b5f819050919050565b6106808361064d565b61069461068c8261066e565b8484546105ea565b825550505050565b5f5f905090565b6106ab61069c565b6106b6818484610677565b505050565b5b818110156106d9576106ce5f826106a3565b6001810190506106bc565b5050565b601f82111561071e576106ef816105bd565b6106f8846105cf565b81016020851015610707578190505b61071b610713856105cf565b8301826106bb565b50505b505050565b5f82821c905092915050565b5f61073e5f1984600802610723565b1980831691505092915050565b5f610756838361072f565b9150826002028217905092915050565b61076f82610586565b67ffffffffffffffff81111561078857610787610590565b5b61079282546104a4565b61079d8282856106dd565b5f60209050601f8311600181146107ce575f84156107bc578287015190505b6107c6858261074b565b86555061082d565b601f1984166107dc866105bd565b5f5b82811015610803578489015182556001820191506020850194506020810190506107de565b86831015610820578489015161081c601f89168261072f565b8355505b6001600288020188555050505b505050505050565b5f81905092915050565b8281835e5f83830152505050565b5f61085782610586565b6108618185610835565b935061087181856020860161083f565b80840191505092915050565b5f610888828461084d565b915081905092915050565b611d5a806108a05f395ff3fe608060405260043610610108575f3560e01c80636de0938b116100945780639c88e42d116100635780639c88e42d146103945780639e5797ec146103b0578063b8443702146103ec578063e792fe59146103f6578063efe8c0841461042057610108565b80636de0938b146102c85780636f9fb98a146103045780638da5cb5b1461032e57806398c4c7131461035857610108565b8063264509f6116100db578063264509f6146101d65780632ce75863146101fe5780635c41fece146102285780635c49c825146102645780636416ef2d1461028c57610108565b80630a5a1e9a1461010c5780630d9ba15f1461012257806310e1d1d41461015e5780631fac531b1461019a575b5f5ffd5b348015610117575f5ffd5b5061012061044a565b005b34801561012d575f5ffd5b506101486004803603810190610143919061103c565b6105f1565b604051610155919061109b565b60405180910390f35b348015610169575f5ffd5b50610184600480360381019061017f919061110e565b61061e565b604051610191919061109b565b60405180910390f35b3480156101a5575f5ffd5b506101c060048036038101906101bb919061103c565b610633565b6040516101cd919061109b565b60405180910390f35b3480156101e1575f5ffd5b506101fc60048036038101906101f7919061110e565b6106ba565b005b348015610209575f5ffd5b506102126107f8565b60405161021f9190611254565b60405180910390f35b348015610233575f5ffd5b5061024e6004803603810190610249919061103c565b6108cc565b60405161025b919061109b565b60405180910390f35b34801561026f575f5ffd5b5061028a6004803603810190610285919061129e565b6108f9565b005b348015610297575f5ffd5b506102b260048036038101906102ad91906112f8565b610a94565b6040516102bf919061136b565b60405180910390f35b3480156102d3575f5ffd5b506102ee60048036038101906102e9919061129e565b610b3a565b6040516102fb919061109b565b60405180910390f35b34801561030f575f5ffd5b50610318610bd2565b604051610325919061109b565b60405180910390f35b348015610339575f5ffd5b50610342610bd9565b60405161034f919061139a565b60405180910390f35b348015610363575f5ffd5b5061037e6004803603810190610379919061110e565b610bfd565b60405161038b919061109b565b60405180910390f35b6103ae60048036038101906103a9919061129e565b610c43565b005b3480156103bb575f5ffd5b506103d660048036038101906103d1919061103c565b610dd8565b6040516103e3919061109b565b60405180910390f35b6103f4610dff565b005b348015610401575f5ffd5b5061040a610ee0565b604051610417919061109b565b60405180910390f35b34801561042b575f5ffd5b50610434610ee9565b604051610441919061109b565b60405180910390f35b5f5f9054906101000a900473ffffffffffffffffffffffffffffffffffffffff1673ffffffffffffffffffffffffffffffffffffffff163373ffffffffffffffffffffffffffffffffffffffff16146104d8576040517f08c379a00000000000000000000000000000000000000000000000000000000081526004016104cf90611423565b60405180910390fd5b5f4790505f811161051e576040517f08c379a00000000000000000000000000000000000000000000000000000000081526004016105159061148b565b60405180910390fd5b5f5f5f9054906101000a900473ffffffffffffffffffffffffffffffffffffffff1673ffffffffffffffffffffffffffffffffffffffff1682604051610563906114d6565b5f6040518083038185875af1925050503d805f811461059d576040519150601f19603f3d011682016040523d82523d5f602084013e6105a2565b606091505b50509050806105e6576040517f08c379a00000000000000000000000000000000000000000000000000000000081526004016105dd90611534565b60405180910390fd5b5f6003819055505050565b6005818051602081018201805184825260208301602085012081835280955050505050505f915090505481565b6004602052805f5260405f205f915090505481565b5f5f600183604051610645919061158c565b90815260200160405180910390205411610694576040517f08c379a000000000000000000000000000000000000000000000000000000000815260040161068b906115ec565b60405180910390fd5b6001826040516106a4919061158c565b9081526020016040518091039020549050919050565b5f5f9054906101000a900473ffffffffffffffffffffffffffffffffffffffff1673ffffffffffffffffffffffffffffffffffffffff163373ffffffffffffffffffffffffffffffffffffffff1614610748576040517f08c379a000000000000000000000000000000000000000000000000000000000815260040161073f90611423565b60405180910390fd5b5f73ffffffffffffffffffffffffffffffffffffffff168173ffffffffffffffffffffffffffffffffffffffff16036107b6576040517f08c379a00000000000000000000000000000000000000000000000000000000081526004016107ad90611654565b60405180910390fd5b805f5f6101000a81548173ffffffffffffffffffffffffffffffffffffffff021916908373ffffffffffffffffffffffffffffffffffffffff16021790555050565b60606002805480602002602001604051908101604052809291908181526020015f905b828210156108c3578382905f5260205f200180546108389061169f565b80601f01602080910402602001604051908101604052809291908181526020018280546108649061169f565b80156108af5780601f10610886576101008083540402835291602001916108af565b820191905f5260205f20905b81548152906001019060200180831161089257829003601f168201915b50505050508152602001906001019061081b565b50505050905090565b6001818051602081018201805184825260208301602085012081835280955050505050505f915090505481565b5f5f9054906101000a900473ffffffffffffffffffffffffffffffffffffffff1673ffffffffffffffffffffffffffffffffffffffff163373ffffffffffffffffffffffffffffffffffffffff1614610987576040517f08c379a000000000000000000000000000000000000000000000000000000000815260040161097e90611423565b60405180910390fd5b5f81116109c9576040517f08c379a00000000000000000000000000000000000000000000000000000000081526004016109c09061173f565b60405180910390fd5b5f5f90505f5f90505b600280549050811015610a8e578380519060200120600282815481106109fb576109fa61175d565b5b905f5260205f2001604051610a10919061181c565b604051809103902003610a265760019150610a8e565b81610a5e57600284908060018154018082558091505060019003905f5260205f20015f909190919091509081610a5c91906119d2565b505b82600185604051610a6f919061158c565b90815260200160405180910390208190555080806001019150506109d2565b50505050565b60028181548110610aa3575f80fd5b905f5260205f20015f915090508054610abb9061169f565b80601f0160208091040260200160405190810160405280929190818152602001828054610ae79061169f565b8015610b325780601f10610b0957610100808354040283529160200191610b32565b820191905f5260205f20905b815481529060010190602001808311610b1557829003601f168201915b505050505081565b5f5f600184604051610b4c919061158c565b90815260200160405180910390205411610b9b576040517f08c379a0000000000000000000000000000000000000000000000000000000008152600401610b9290611aeb565b60405180910390fd5b5f600184604051610bac919061158c565b90815260200160405180910390205483610bc69190611b36565b90508091505092915050565b5f47905090565b5f5f9054906101000a900473ffffffffffffffffffffffffffffffffffffffff1681565b5f60045f8373ffffffffffffffffffffffffffffffffffffffff1673ffffffffffffffffffffffffffffffffffffffff1681526020019081526020015f20549050919050565b5f600183604051610c54919061158c565b90815260200160405180910390205411610ca3576040517f08c379a0000000000000000000000000000000000000000000000000000000008152600401610c9a90611aeb565b60405180910390fd5b5f8111610ce5576040517f08c379a0000000000000000000000000000000000000000000000000000000008152600401610cdc90611be7565b60405180910390fd5b5f610cf08383610b3a565b9050803414610d34576040517f08c379a0000000000000000000000000000000000000000000000000000000008152600401610d2b90611c75565b60405180910390fd5b3460045f3373ffffffffffffffffffffffffffffffffffffffff1673ffffffffffffffffffffffffffffffffffffffff1681526020019081526020015f205f828254610d809190611c93565b925050819055503460035f828254610d989190611c93565b9250508190555081600584604051610db0919061158c565b90815260200160405180910390205f828254610dcc9190611c93565b92505081905550505050565b5f600582604051610de9919061158c565b9081526020016040518091039020549050919050565b5f3411610e41576040517f08c379a0000000000000000000000000000000000000000000000000000000008152600401610e3890611be7565b60405180910390fd5b3460045f3373ffffffffffffffffffffffffffffffffffffffff1673ffffffffffffffffffffffffffffffffffffffff1681526020019081526020015f205f828254610e8d9190611c93565b925050819055503460035f828254610ea59190611c93565b92505081905550346005604051610ebb90611d10565b90815260200160405180910390205f828254610ed79190611c93565b92505081905550565b5f600354905090565b60035481565b5f604051905090565b5f5ffd5b5f5ffd5b5f5ffd5b5f5ffd5b5f601f19601f8301169050919050565b7f4e487b71000000000000000000000000000000000000000000000000000000005f52604160045260245ffd5b610f4e82610f08565b810181811067ffffffffffffffff82111715610f6d57610f6c610f18565b5b80604052505050565b5f610f7f610eef565b9050610f8b8282610f45565b919050565b5f67ffffffffffffffff821115610faa57610fa9610f18565b5b610fb382610f08565b9050602081019050919050565b828183375f83830152505050565b5f610fe0610fdb84610f90565b610f76565b905082815260208101848484011115610ffc57610ffb610f04565b5b611007848285610fc0565b509392505050565b5f82601f83011261102357611022610f00565b5b8135611033848260208601610fce565b91505092915050565b5f6020828403121561105157611050610ef8565b5b5f82013567ffffffffffffffff81111561106e5761106d610efc565b5b61107a8482850161100f565b91505092915050565b5f819050919050565b61109581611083565b82525050565b5f6020820190506110ae5f83018461108c565b92915050565b5f73ffffffffffffffffffffffffffffffffffffffff82169050919050565b5f6110dd826110b4565b9050919050565b6110ed816110d3565b81146110f7575f5ffd5b50565b5f81359050611108816110e4565b92915050565b5f6020828403121561112357611122610ef8565b5b5f611130848285016110fa565b91505092915050565b5f81519050919050565b5f82825260208201905092915050565b5f819050602082019050919050565b5f81519050919050565b5f82825260208201905092915050565b8281835e5f83830152505050565b5f61119482611162565b61119e818561116c565b93506111ae81856020860161117c565b6111b781610f08565b840191505092915050565b5f6111cd838361118a565b905092915050565b5f602082019050919050565b5f6111eb82611139565b6111f58185611143565b93508360208202850161120785611153565b805f5b85811015611242578484038952815161122385826111c2565b945061122e836111d5565b925060208a0199505060018101905061120a565b50829750879550505050505092915050565b5f6020820190508181035f83015261126c81846111e1565b905092915050565b61127d81611083565b8114611287575f5ffd5b50565b5f8135905061129881611274565b92915050565b5f5f604083850312156112b4576112b3610ef8565b5b5f83013567ffffffffffffffff8111156112d1576112d0610efc565b5b6112dd8582860161100f565b92505060206112ee8582860161128a565b9150509250929050565b5f6020828403121561130d5761130c610ef8565b5b5f61131a8482850161128a565b91505092915050565b5f82825260208201905092915050565b5f61133d82611162565b6113478185611323565b935061135781856020860161117c565b61136081610f08565b840191505092915050565b5f6020820190508181035f8301526113838184611333565b905092915050565b611394816110d3565b82525050565b5f6020820190506113ad5f83018461138b565b92915050565b7f4f6e6c79206f776e65722063616e20706572666f726d207468697320616374695f8201527f6f6e000000000000000000000000000000000000000000000000000000000000602082015250565b5f61140d602283611323565b9150611418826113b3565b604082019050919050565b5f6020820190508181035f83015261143a81611401565b9050919050565b7f4e6f207469707320746f2077697468647261772e0000000000000000000000005f82015250565b5f611475601483611323565b915061148082611441565b602082019050919050565b5f6020820190508181035f8301526114a281611469565b9050919050565b5f81905092915050565b50565b5f6114c15f836114a9565b91506114cc826114b3565b5f82019050919050565b5f6114e0826114b6565b9150819050919050565b7f5472616e73666572204661696c65642e000000000000000000000000000000005f82015250565b5f61151e601083611323565b9150611529826114ea565b602082019050919050565b5f6020820190508181035f83015261154b81611512565b9050919050565b5f81905092915050565b5f61156682611162565b6115708185611552565b935061158081856020860161117c565b80840191505092915050565b5f611597828461155c565b915081905092915050565b7f43757272656e6379206e6f7420737570706f727465642e0000000000000000005f82015250565b5f6115d6601783611323565b91506115e1826115a2565b602082019050919050565b5f6020820190508181035f830152611603816115ca565b9050919050565b7f496e76616c696420616464726573732e000000000000000000000000000000005f82015250565b5f61163e601083611323565b91506116498261160a565b602082019050919050565b5f6020820190508181035f83015261166b81611632565b9050919050565b7f4e487b71000000000000000000000000000000000000000000000000000000005f52602260045260245ffd5b5f60028204905060018216806116b657607f821691505b6020821081036116c9576116c8611672565b5b50919050565b7f436f6e766572696f6e2072617465206d757374206265206772656174657220745f8201527f68616e20302e0000000000000000000000000000000000000000000000000000602082015250565b5f611729602683611323565b9150611734826116cf565b604082019050919050565b5f6020820190508181035f8301526117568161171d565b9050919050565b7f4e487b71000000000000000000000000000000000000000000000000000000005f52603260045260245ffd5b5f819050815f5260205f209050919050565b5f81546117a88161169f565b6117b281866114a9565b9450600182165f81146117cc57600181146117e157611813565b60ff1983168652811515820286019350611813565b6117ea8561178a565b5f5b8381101561180b578154818901526001820191506020810190506117ec565b838801955050505b50505092915050565b5f611827828461179c565b915081905092915050565b5f819050815f5260205f209050919050565b5f6020601f8301049050919050565b5f82821b905092915050565b5f6008830261188e7fffffffffffffffffffffffffffffffffffffffffffffffffffffffffffffffff82611853565b6118988683611853565b95508019841693508086168417925050509392505050565b5f819050919050565b5f6118d36118ce6118c984611083565b6118b0565b611083565b9050919050565b5f819050919050565b6118ec836118b9565b6119006118f8826118da565b84845461185f565b825550505050565b5f5f905090565b611917611908565b6119228184846118e3565b505050565b5b818110156119455761193a5f8261190f565b600181019050611928565b5050565b601f82111561198a5761195b81611832565b61196484611844565b81016020851015611973578190505b61198761197f85611844565b830182611927565b50505b505050565b5f82821c905092915050565b5f6119aa5f198460080261198f565b1980831691505092915050565b5f6119c2838361199b565b9150826002028217905092915050565b6119db82611162565b67ffffffffffffffff8111156119f4576119f3610f18565b5b6119fe825461169f565b611a09828285611949565b5f60209050601f831160018114611a3a575f8415611a28578287015190505b611a3285826119b7565b865550611a99565b601f198416611a4886611832565b5f5b82811015611a6f57848901518255600182019150602085019450602081019050611a4a565b86831015611a8c5784890151611a88601f89168261199b565b8355505b6001600288020188555050505b505050505050565b7f43757272656e6379206e6f7420737570706f72742e00000000000000000000005f82015250565b5f611ad5601583611323565b9150611ae082611aa1565b602082019050919050565b5f6020820190508181035f830152611b0281611ac9565b9050919050565b7f4e487b71000000000000000000000000000000000000000000000000000000005f52601160045260245ffd5b5f611b4082611083565b9150611b4b83611083565b9250828202611b5981611083565b91508282048414831517611b7057611b6f611b09565b5b5092915050565b7f54697020616d6f756e74206d7573742062652067726561746572207468616e205f8201527f7a65726f2e000000000000000000000000000000000000000000000000000000602082015250565b5f611bd1602583611323565b9150611bdc82611b77565b604082019050919050565b5f6020820190508181035f830152611bfe81611bc5565b9050919050565b7f53656e742045544820646f65736e2774206d617463682074686520636f6e76655f8201527f7274656420616d6f756e742e0000000000000000000000000000000000000000602082015250565b5f611c5f602c83611323565b9150611c6a82611c05565b604082019050919050565b5f6020820190508181035f830152611c8c81611c53565b9050919050565b5f611c9d82611083565b9150611ca883611083565b9250828201905080821115611cc057611cbf611b09565b5b92915050565b7f45544800000000000000000000000000000000000000000000000000000000005f82015250565b5f611cfa600383611552565b9150611d0582611cc6565b600382019050919050565b5f611d1a82611cee565b915081905091905056fea264697066735822122035489092e7c58cbcfd35c495e57f55d81f1285b0e09397a91173c7c20193193564736f6c634300081e0033",
					"opcodes": "PUSH1 0x80 PUSH1 0x40 MSTORE CALLVALUE DUP1 ISZERO PUSH2 0xF JUMPI PUSH0 PUSH0 REVERT JUMPDEST POP CALLER PUSH0 PUSH0 PUSH2 0x100 EXP DUP2 SLOAD DUP2 PUSH20 0xFFFFFFFFFFFFFFFFFFFFFFFFFFFFFFFFFFFFFFFF MUL NOT AND SWAP1 DUP4 PUSH20 0xFFFFFFFFFFFFFFFFFFFFFFFFFFFFFFFFFFFFFFFF AND MUL OR SWAP1 SSTORE POP PUSH2 0x9B PUSH1 0x40 MLOAD DUP1 PUSH1 0x40 ADD PUSH1 0x40 MSTORE DUP1 PUSH1 0x3 DUP2 MSTORE PUSH1 0x20 ADD PUSH32 0x5553440000000000000000000000000000000000000000000000000000000000 DUP2 MSTORE POP PUSH7 0x1C6BF52634000 PUSH2 0x183 PUSH1 0x20 SHL PUSH1 0x20 SHR JUMP JUMPDEST PUSH2 0xE7 PUSH1 0x40 MLOAD DUP1 PUSH1 0x40 ADD PUSH1 0x40 MSTORE DUP1 PUSH1 0x3 DUP2 MSTORE PUSH1 0x20 ADD PUSH32 0x4555520000000000000000000000000000000000000000000000000000000000 DUP2 MSTORE POP PUSH7 0x221B262DD8000 PUSH2 0x183 PUSH1 0x20 SHL PUSH1 0x20 SHR JUMP JUMPDEST PUSH2 0x132 PUSH1 0x40 MLOAD DUP1 PUSH1 0x40 ADD PUSH1 0x40 MSTORE DUP1 PUSH1 0x3 DUP2 MSTORE PUSH1 0x20 ADD PUSH32 0x4A50590000000000000000000000000000000000000000000000000000000000 DUP2 MSTORE POP PUSH6 0x3A352944000 PUSH2 0x183 PUSH1 0x20 SHL PUSH1 0x20 SHR JUMP JUMPDEST PUSH2 0x17E PUSH1 0x40 MLOAD DUP1 PUSH1 0x40 ADD PUSH1 0x40 MSTORE DUP1 PUSH1 0x3 DUP2 MSTORE PUSH1 0x20 ADD PUSH32 0x4742500000000000000000000000000000000000000000000000000000000000 DUP2 MSTORE POP PUSH7 0x27CA57357C000 PUSH2 0x183 PUSH1 0x20 SHL PUSH1 0x20 SHR JUMP JUMPDEST PUSH2 0x893 JUMP JUMPDEST PUSH0 PUSH0 SWAP1 SLOAD SWAP1 PUSH2 0x100 EXP SWAP1 DIV PUSH20 0xFFFFFFFFFFFFFFFFFFFFFFFFFFFFFFFFFFFFFFFF AND PUSH20 0xFFFFFFFFFFFFFFFFFFFFFFFFFFFFFFFFFFFFFFFF AND CALLER PUSH20 0xFFFFFFFFFFFFFFFFFFFFFFFFFFFFFFFFFFFFFFFF AND EQ PUSH2 0x211 JUMPI PUSH1 0x40 MLOAD PUSH32 0x8C379A000000000000000000000000000000000000000000000000000000000 DUP2 MSTORE PUSH1 0x4 ADD PUSH2 0x208 SWAP1 PUSH2 0x39E JUMP JUMPDEST PUSH1 0x40 MLOAD DUP1 SWAP2 SUB SWAP1 REVERT JUMPDEST PUSH0 DUP2 GT PUSH2 0x253 JUMPI PUSH1 0x40 MLOAD PUSH32 0x8C379A000000000000000000000000000000000000000000000000000000000 DUP2 MSTORE PUSH1 0x4 ADD PUSH2 0x24A SWAP1 PUSH2 0x42C JUMP JUMPDEST PUSH1 0x40 MLOAD DUP1 SWAP2 SUB SWAP1 REVERT JUMPDEST PUSH0 PUSH0 SWAP1 POP PUSH0 PUSH0 SWAP1 POP JUMPDEST PUSH1 0x2 DUP1 SLOAD SWAP1 POP DUP2 LT ISZERO PUSH2 0x318 JUMPI DUP4 DUP1 MLOAD SWAP1 PUSH1 0x20 ADD KECCAK256 PUSH1 0x2 DUP3 DUP2 SLOAD DUP2 LT PUSH2 0x285 JUMPI PUSH2 0x284 PUSH2 0x44A JUMP JUMPDEST JUMPDEST SWAP1 PUSH0 MSTORE PUSH1 0x20 PUSH0 KECCAK256 ADD PUSH1 0x40 MLOAD PUSH2 0x29A SWAP2 SWAP1 PUSH2 0x570 JUMP JUMPDEST PUSH1 0x40 MLOAD DUP1 SWAP2 SUB SWAP1 KECCAK256 SUB PUSH2 0x2B0 JUMPI PUSH1 0x1 SWAP2 POP PUSH2 0x318 JUMP JUMPDEST DUP2 PUSH2 0x2E8 JUMPI PUSH1 0x2 DUP5 SWAP1 DUP1 PUSH1 0x1 DUP2 SLOAD ADD DUP1 DUP3 SSTORE DUP1 SWAP2 POP POP PUSH1 0x1 SWAP1 SUB SWAP1 PUSH0 MSTORE PUSH1 0x20 PUSH0 KECCAK256 ADD PUSH0 SWAP1 SWAP2 SWAP1 SWAP2 SWAP1 SWAP2 POP SWAP1 DUP2 PUSH2 0x2E6 SWAP2 SWAP1 PUSH2 0x766 JUMP JUMPDEST POP JUMPDEST DUP3 PUSH1 0x1 DUP6 PUSH1 0x40 MLOAD PUSH2 0x2F9 SWAP2 SWAP1 PUSH2 0x87D JUMP JUMPDEST SWAP1 DUP2 MSTORE PUSH1 0x20 ADD PUSH1 0x40 MLOAD DUP1 SWAP2 SUB SWAP1 KECCAK256 DUP2 SWAP1 SSTORE POP DUP1 DUP1 PUSH1 0x1 ADD SWAP2 POP POP PUSH2 0x25C JUMP JUMPDEST POP POP POP POP JUMP JUMPDEST PUSH0 DUP3 DUP3 MSTORE PUSH1 0x20 DUP3 ADD SWAP1 POP SWAP3 SWAP2 POP POP JUMP JUMPDEST PUSH32 0x4F6E6C79206F776E65722063616E20706572666F726D20746869732061637469 PUSH0 DUP3 ADD MSTORE PUSH32 0x6F6E000000000000000000000000000000000000000000000000000000000000 PUSH1 0x20 DUP3 ADD MSTORE POP JUMP JUMPDEST PUSH0 PUSH2 0x388 PUSH1 0x22 DUP4 PUSH2 0x31E JUMP JUMPDEST SWAP2 POP PUSH2 0x393 DUP3 PUSH2 0x32E JUMP JUMPDEST PUSH1 0x40 DUP3 ADD SWAP1 POP SWAP2 SWAP1 POP JUMP JUMPDEST PUSH0 PUSH1 0x20 DUP3 ADD SWAP1 POP DUP2 DUP2 SUB PUSH0 DUP4 ADD MSTORE PUSH2 0x3B5 DUP2 PUSH2 0x37C JUMP JUMPDEST SWAP1 POP SWAP2 SWAP1 POP JUMP JUMPDEST PUSH32 0x436F6E766572696F6E2072617465206D75737420626520677265617465722074 PUSH0 DUP3 ADD MSTORE PUSH32 0x68616E20302E0000000000000000000000000000000000000000000000000000 PUSH1 0x20 DUP3 ADD MSTORE POP JUMP JUMPDEST PUSH0 PUSH2 0x416 PUSH1 0x26 DUP4 PUSH2 0x31E JUMP JUMPDEST SWAP2 POP PUSH2 0x421 DUP3 PUSH2 0x3BC JUMP JUMPDEST PUSH1 0x40 DUP3 ADD SWAP1 POP SWAP2 SWAP1 POP JUMP JUMPDEST PUSH0 PUSH1 0x20 DUP3 ADD SWAP1 POP DUP2 DUP2 SUB PUSH0 DUP4 ADD MSTORE PUSH2 0x443 DUP2 PUSH2 0x40A JUMP JUMPDEST SWAP1 POP SWAP2 SWAP1 POP JUMP JUMPDEST PUSH32 0x4E487B7100000000000000000000000000000000000000000000000000000000 PUSH0 MSTORE PUSH1 0x32 PUSH1 0x4 MSTORE PUSH1 0x24 PUSH0 REVERT JUMPDEST PUSH32 0x4E487B7100000000000000000000000000000000000000000000000000000000 PUSH0 MSTORE PUSH1 0x22 PUSH1 0x4 MSTORE PUSH1 0x24 PUSH0 REVERT JUMPDEST PUSH0 PUSH1 0x2 DUP3 DIV SWAP1 POP PUSH1 0x1 DUP3 AND DUP1 PUSH2 0x4BB JUMPI PUSH1 0x7F DUP3 AND SWAP2 POP JUMPDEST PUSH1 0x20 DUP3 LT DUP2 SUB PUSH2 0x4CE JUMPI PUSH2 0x4CD PUSH2 0x477 JUMP JUMPDEST JUMPDEST POP SWAP2 SWAP1 POP JUMP JUMPDEST PUSH0 DUP2 SWAP1 POP SWAP3 SWAP2 POP POP JUMP JUMPDEST PUSH0 DUP2 SWAP1 POP DUP2 PUSH0 MSTORE PUSH1 0x20 PUSH0 KECCAK256 SWAP1 POP SWAP2 SWAP1 POP JUMP JUMPDEST PUSH0 DUP2 SLOAD PUSH2 0x4FC DUP2 PUSH2 0x4A4 JUMP JUMPDEST PUSH2 0x506 DUP2 DUP7 PUSH2 0x4D4 JUMP JUMPDEST SWAP5 POP PUSH1 0x1 DUP3 AND PUSH0 DUP2 EQ PUSH2 0x520 JUMPI PUSH1 0x1 DUP2 EQ PUSH2 0x535 JUMPI PUSH2 0x567 JUMP JUMPDEST PUSH1 0xFF NOT DUP4 AND DUP7 MSTORE DUP2 ISZERO ISZERO DUP3 MUL DUP7 ADD SWAP4 POP PUSH2 0x567 JUMP JUMPDEST PUSH2 0x53E DUP6 PUSH2 0x4DE JUMP JUMPDEST PUSH0 JUMPDEST DUP4 DUP2 LT ISZERO PUSH2 0x55F JUMPI DUP2 SLOAD DUP2 DUP10 ADD MSTORE PUSH1 0x1 DUP3 ADD SWAP2 POP PUSH1 0x20 DUP2 ADD SWAP1 POP PUSH2 0x540 JUMP JUMPDEST DUP4 DUP9 ADD SWAP6 POP POP POP JUMPDEST POP POP POP SWAP3 SWAP2 POP POP JUMP JUMPDEST PUSH0 PUSH2 0x57B DUP3 DUP5 PUSH2 0x4F0 JUMP JUMPDEST SWAP2 POP DUP2 SWAP1 POP SWAP3 SWAP2 POP POP JUMP JUMPDEST PUSH0 DUP2 MLOAD SWAP1 POP SWAP2 SWAP1 POP JUMP JUMPDEST PUSH32 0x4E487B7100000000000000000000000000000000000000000000000000000000 PUSH0 MSTORE PUSH1 0x41 PUSH1 0x4 MSTORE PUSH1 0x24 PUSH0 REVERT JUMPDEST PUSH0 DUP2 SWAP1 POP DUP2 PUSH0 MSTORE PUSH1 0x20 PUSH0 KECCAK256 SWAP1 POP SWAP2 SWAP1 POP JUMP JUMPDEST PUSH0 PUSH1 0x20 PUSH1 0x1F DUP4 ADD DIV SWAP1 POP SWAP2 SWAP1 POP JUMP JUMPDEST PUSH0 DUP3 DUP3 SHL SWAP1 POP SWAP3 SWAP2 POP POP JUMP JUMPDEST PUSH0 PUSH1 0x8 DUP4 MUL PUSH2 0x619 PUSH32 0xFFFFFFFFFFFFFFFFFFFFFFFFFFFFFFFFFFFFFFFFFFFFFFFFFFFFFFFFFFFFFFFF DUP3 PUSH2 0x5DE JUMP JUMPDEST PUSH2 0x623 DUP7 DUP4 PUSH2 0x5DE JUMP JUMPDEST SWAP6 POP DUP1 NOT DUP5 AND SWAP4 POP DUP1 DUP7 AND DUP5 OR SWAP3 POP POP POP SWAP4 SWAP3 POP POP POP JUMP JUMPDEST PUSH0 DUP2 SWAP1 POP SWAP2 SWAP1 POP JUMP JUMPDEST PUSH0 DUP2 SWAP1 POP SWAP2 SWAP1 POP JUMP JUMPDEST PUSH0 PUSH2 0x667 PUSH2 0x662 PUSH2 0x65D DUP5 PUSH2 0x63B JUMP JUMPDEST PUSH2 0x644 JUMP JUMPDEST PUSH2 0x63B JUMP JUMPDEST SWAP1 POP SWAP2 SWAP1 POP JUMP JUMPDEST PUSH0 DUP2 SWAP1 POP SWAP2 SWAP1 POP JUMP JUMPDEST PUSH2 0x680 DUP4 PUSH2 0x64D JUMP JUMPDEST PUSH2 0x694 PUSH2 0x68C DUP3 PUSH2 0x66E JUMP JUMPDEST DUP5 DUP5 SLOAD PUSH2 0x5EA JUMP JUMPDEST DUP3 SSTORE POP POP POP POP JUMP JUMPDEST PUSH0 PUSH0 SWAP1 POP SWAP1 JUMP JUMPDEST PUSH2 0x6AB PUSH2 0x69C JUMP JUMPDEST PUSH2 0x6B6 DUP2 DUP5 DUP5 PUSH2 0x677 JUMP JUMPDEST POP POP POP JUMP JUMPDEST JUMPDEST DUP2 DUP2 LT ISZERO PUSH2 0x6D9 JUMPI PUSH2 0x6CE PUSH0 DUP3 PUSH2 0x6A3 JUMP JUMPDEST PUSH1 0x1 DUP2 ADD SWAP1 POP PUSH2 0x6BC JUMP JUMPDEST POP POP JUMP JUMPDEST PUSH1 0x1F DUP3 GT ISZERO PUSH2 0x71E JUMPI PUSH2 0x6EF DUP2 PUSH2 0x5BD JUMP JUMPDEST PUSH2 0x6F8 DUP5 PUSH2 0x5CF JUMP JUMPDEST DUP2 ADD PUSH1 0x20 DUP6 LT ISZERO PUSH2 0x707 JUMPI DUP2 SWAP1 POP JUMPDEST PUSH2 0x71B PUSH2 0x713 DUP6 PUSH2 0x5CF JUMP JUMPDEST DUP4 ADD DUP3 PUSH2 0x6BB JUMP JUMPDEST POP POP JUMPDEST POP POP POP JUMP JUMPDEST PUSH0 DUP3 DUP3 SHR SWAP1 POP SWAP3 SWAP2 POP POP JUMP JUMPDEST PUSH0 PUSH2 0x73E PUSH0 NOT DUP5 PUSH1 0x8 MUL PUSH2 0x723 JUMP JUMPDEST NOT DUP1 DUP4 AND SWAP2 POP POP SWAP3 SWAP2 POP POP JUMP JUMPDEST PUSH0 PUSH2 0x756 DUP4 DUP4 PUSH2 0x72F JUMP JUMPDEST SWAP2 POP DUP3 PUSH1 0x2 MUL DUP3 OR SWAP1 POP SWAP3 SWAP2 POP POP JUMP JUMPDEST PUSH2 0x76F DUP3 PUSH2 0x586 JUMP JUMPDEST PUSH8 0xFFFFFFFFFFFFFFFF DUP2 GT ISZERO PUSH2 0x788 JUMPI PUSH2 0x787 PUSH2 0x590 JUMP JUMPDEST JUMPDEST PUSH2 0x792 DUP3 SLOAD PUSH2 0x4A4 JUMP JUMPDEST PUSH2 0x79D DUP3 DUP3 DUP6 PUSH2 0x6DD JUMP JUMPDEST PUSH0 PUSH1 0x20 SWAP1 POP PUSH1 0x1F DUP4 GT PUSH1 0x1 DUP2 EQ PUSH2 0x7CE JUMPI PUSH0 DUP5 ISZERO PUSH2 0x7BC JUMPI DUP3 DUP8 ADD MLOAD SWAP1 POP JUMPDEST PUSH2 0x7C6 DUP6 DUP3 PUSH2 0x74B JUMP JUMPDEST DUP7 SSTORE POP PUSH2 0x82D JUMP JUMPDEST PUSH1 0x1F NOT DUP5 AND PUSH2 0x7DC DUP7 PUSH2 0x5BD JUMP JUMPDEST PUSH0 JUMPDEST DUP3 DUP2 LT ISZERO PUSH2 0x803 JUMPI DUP5 DUP10 ADD MLOAD DUP3 SSTORE PUSH1 0x1 DUP3 ADD SWAP2 POP PUSH1 0x20 DUP6 ADD SWAP5 POP PUSH1 0x20 DUP2 ADD SWAP1 POP PUSH2 0x7DE JUMP JUMPDEST DUP7 DUP4 LT ISZERO PUSH2 0x820 JUMPI DUP5 DUP10 ADD MLOAD PUSH2 0x81C PUSH1 0x1F DUP10 AND DUP3 PUSH2 0x72F JUMP JUMPDEST DUP4 SSTORE POP JUMPDEST PUSH1 0x1 PUSH1 0x2 DUP9 MUL ADD DUP9 SSTORE POP POP POP JUMPDEST POP POP POP POP POP POP JUMP JUMPDEST PUSH0 DUP2 SWAP1 POP SWAP3 SWAP2 POP POP JUMP JUMPDEST DUP3 DUP2 DUP4 MCOPY PUSH0 DUP4 DUP4 ADD MSTORE POP POP POP JUMP JUMPDEST PUSH0 PUSH2 0x857 DUP3 PUSH2 0x586 JUMP JUMPDEST PUSH2 0x861 DUP2 DUP6 PUSH2 0x835 JUMP JUMPDEST SWAP4 POP PUSH2 0x871 DUP2 DUP6 PUSH1 0x20 DUP7 ADD PUSH2 0x83F JUMP JUMPDEST DUP1 DUP5 ADD SWAP2 POP POP SWAP3 SWAP2 POP POP JUMP JUMPDEST PUSH0 PUSH2 0x888 DUP3 DUP5 PUSH2 0x84D JUMP JUMPDEST SWAP2 POP DUP2 SWAP1 POP SWAP3 SWAP2 POP POP JUMP JUMPDEST PUSH2 0x1D5A DUP1 PUSH2 0x8A0 PUSH0 CODECOPY PUSH0 RETURN INVALID PUSH1 0x80 PUSH1 0x40 MSTORE PUSH1 0x4 CALLDATASIZE LT PUSH2 0x108 JUMPI PUSH0 CALLDATALOAD PUSH1 0xE0 SHR DUP1 PUSH4 0x6DE0938B GT PUSH2 0x94 JUMPI DUP1 PUSH4 0x9C88E42D GT PUSH2 0x63 JUMPI DUP1 PUSH4 0x9C88E42D EQ PUSH2 0x394 JUMPI DUP1 PUSH4 0x9E5797EC EQ PUSH2 0x3B0 JUMPI DUP1 PUSH4 0xB8443702 EQ PUSH2 0x3EC JUMPI DUP1 PUSH4 0xE792FE59 EQ PUSH2 0x3F6 JUMPI DUP1 PUSH4 0xEFE8C084 EQ PUSH2 0x420 JUMPI PUSH2 0x108 JUMP JUMPDEST DUP1 PUSH4 0x6DE0938B EQ PUSH2 0x2C8 JUMPI DUP1 PUSH4 0x6F9FB98A EQ PUSH2 0x304 JUMPI DUP1 PUSH4 0x8DA5CB5B EQ PUSH2 0x32E JUMPI DUP1 PUSH4 0x98C4C713 EQ PUSH2 0x358 JUMPI PUSH2 0x108 JUMP JUMPDEST DUP1 PUSH4 0x264509F6 GT PUSH2 0xDB JUMPI DUP1 PUSH4 0x264509F6 EQ PUSH2 0x1D6 JUMPI DUP1 PUSH4 0x2CE75863 EQ PUSH2 0x1FE JUMPI DUP1 PUSH4 0x5C41FECE EQ PUSH2 0x228 JUMPI DUP1 PUSH4 0x5C49C825 EQ PUSH2 0x264 JUMPI DUP1 PUSH4 0x6416EF2D EQ PUSH2 0x28C JUMPI PUSH2 0x108 JUMP JUMPDEST DUP1 PUSH4 0xA5A1E9A EQ PUSH2 0x10C JUMPI DUP1 PUSH4 0xD9BA15F EQ PUSH2 0x122 JUMPI DUP1 PUSH4 0x10E1D1D4 EQ PUSH2 0x15E JUMPI DUP1 PUSH4 0x1FAC531B EQ PUSH2 0x19A JUMPI JUMPDEST PUSH0 PUSH0 REVERT JUMPDEST CALLVALUE DUP1 ISZERO PUSH2 0x117 JUMPI PUSH0 PUSH0 REVERT JUMPDEST POP PUSH2 0x120 PUSH2 0x44A JUMP JUMPDEST STOP JUMPDEST CALLVALUE DUP1 ISZERO PUSH2 0x12D JUMPI PUSH0 PUSH0 REVERT JUMPDEST POP PUSH2 0x148 PUSH1 0x4 DUP1 CALLDATASIZE SUB DUP2 ADD SWAP1 PUSH2 0x143 SWAP2 SWAP1 PUSH2 0x103C JUMP JUMPDEST PUSH2 0x5F1 JUMP JUMPDEST PUSH1 0x40 MLOAD PUSH2 0x155 SWAP2 SWAP1 PUSH2 0x109B JUMP JUMPDEST PUSH1 0x40 MLOAD DUP1 SWAP2 SUB SWAP1 RETURN JUMPDEST CALLVALUE DUP1 ISZERO PUSH2 0x169 JUMPI PUSH0 PUSH0 REVERT JUMPDEST POP PUSH2 0x184 PUSH1 0x4 DUP1 CALLDATASIZE SUB DUP2 ADD SWAP1 PUSH2 0x17F SWAP2 SWAP1 PUSH2 0x110E JUMP JUMPDEST PUSH2 0x61E JUMP JUMPDEST PUSH1 0x40 MLOAD PUSH2 0x191 SWAP2 SWAP1 PUSH2 0x109B JUMP JUMPDEST PUSH1 0x40 MLOAD DUP1 SWAP2 SUB SWAP1 RETURN JUMPDEST CALLVALUE DUP1 ISZERO PUSH2 0x1A5 JUMPI PUSH0 PUSH0 REVERT JUMPDEST POP PUSH2 0x1C0 PUSH1 0x4 DUP1 CALLDATASIZE SUB DUP2 ADD SWAP1 PUSH2 0x1BB SWAP2 SWAP1 PUSH2 0x103C JUMP JUMPDEST PUSH2 0x633 JUMP JUMPDEST PUSH1 0x40 MLOAD PUSH2 0x1CD SWAP2 SWAP1 PUSH2 0x109B JUMP JUMPDEST PUSH1 0x40 MLOAD DUP1 SWAP2 SUB SWAP1 RETURN JUMPDEST CALLVALUE DUP1 ISZERO PUSH2 0x1E1 JUMPI PUSH0 PUSH0 REVERT JUMPDEST POP PUSH2 0x1FC PUSH1 0x4 DUP1 CALLDATASIZE SUB DUP2 ADD SWAP1 PUSH2 0x1F7 SWAP2 SWAP1 PUSH2 0x110E JUMP JUMPDEST PUSH2 0x6BA JUMP JUMPDEST STOP JUMPDEST CALLVALUE DUP1 ISZERO PUSH2 0x209 JUMPI PUSH0 PUSH0 REVERT JUMPDEST POP PUSH2 0x212 PUSH2 0x7F8 JUMP JUMPDEST PUSH1 0x40 MLOAD PUSH2 0x21F SWAP2 SWAP1 PUSH2 0x1254 JUMP JUMPDEST PUSH1 0x40 MLOAD DUP1 SWAP2 SUB SWAP1 RETURN JUMPDEST CALLVALUE DUP1 ISZERO PUSH2 0x233 JUMPI PUSH0 PUSH0 REVERT JUMPDEST POP PUSH2 0x24E PUSH1 0x4 DUP1 CALLDATASIZE SUB DUP2 ADD SWAP1 PUSH2 0x249 SWAP2 SWAP1 PUSH2 0x103C JUMP JUMPDEST PUSH2 0x8CC JUMP JUMPDEST PUSH1 0x40 MLOAD PUSH2 0x25B SWAP2 SWAP1 PUSH2 0x109B JUMP JUMPDEST PUSH1 0x40 MLOAD DUP1 SWAP2 SUB SWAP1 RETURN JUMPDEST CALLVALUE DUP1 ISZERO PUSH2 0x26F JUMPI PUSH0 PUSH0 REVERT JUMPDEST POP PUSH2 0x28A PUSH1 0x4 DUP1 CALLDATASIZE SUB DUP2 ADD SWAP1 PUSH2 0x285 SWAP2 SWAP1 PUSH2 0x129E JUMP JUMPDEST PUSH2 0x8F9 JUMP JUMPDEST STOP JUMPDEST CALLVALUE DUP1 ISZERO PUSH2 0x297 JUMPI PUSH0 PUSH0 REVERT JUMPDEST POP PUSH2 0x2B2 PUSH1 0x4 DUP1 CALLDATASIZE SUB DUP2 ADD SWAP1 PUSH2 0x2AD SWAP2 SWAP1 PUSH2 0x12F8 JUMP JUMPDEST PUSH2 0xA94 JUMP JUMPDEST PUSH1 0x40 MLOAD PUSH2 0x2BF SWAP2 SWAP1 PUSH2 0x136B JUMP JUMPDEST PUSH1 0x40 MLOAD DUP1 SWAP2 SUB SWAP1 RETURN JUMPDEST CALLVALUE DUP1 ISZERO PUSH2 0x2D3 JUMPI PUSH0 PUSH0 REVERT JUMPDEST POP PUSH2 0x2EE PUSH1 0x4 DUP1 CALLDATASIZE SUB DUP2 ADD SWAP1 PUSH2 0x2E9 SWAP2 SWAP1 PUSH2 0x129E JUMP JUMPDEST PUSH2 0xB3A JUMP JUMPDEST PUSH1 0x40 MLOAD PUSH2 0x2FB SWAP2 SWAP1 PUSH2 0x109B JUMP JUMPDEST PUSH1 0x40 MLOAD DUP1 SWAP2 SUB SWAP1 RETURN JUMPDEST CALLVALUE DUP1 ISZERO PUSH2 0x30F JUMPI PUSH0 PUSH0 REVERT JUMPDEST POP PUSH2 0x318 PUSH2 0xBD2 JUMP JUMPDEST PUSH1 0x40 MLOAD PUSH2 0x325 SWAP2 SWAP1 PUSH2 0x109B JUMP JUMPDEST PUSH1 0x40 MLOAD DUP1 SWAP2 SUB SWAP1 RETURN JUMPDEST CALLVALUE DUP1 ISZERO PUSH2 0x339 JUMPI PUSH0 PUSH0 REVERT JUMPDEST POP PUSH2 0x342 PUSH2 0xBD9 JUMP JUMPDEST PUSH1 0x40 MLOAD PUSH2 0x34F SWAP2 SWAP1 PUSH2 0x139A JUMP JUMPDEST PUSH1 0x40 MLOAD DUP1 SWAP2 SUB SWAP1 RETURN JUMPDEST CALLVALUE DUP1 ISZERO PUSH2 0x363 JUMPI PUSH0 PUSH0 REVERT JUMPDEST POP PUSH2 0x37E PUSH1 0x4 DUP1 CALLDATASIZE SUB DUP2 ADD SWAP1 PUSH2 0x379 SWAP2 SWAP1 PUSH2 0x110E JUMP JUMPDEST PUSH2 0xBFD JUMP JUMPDEST PUSH1 0x40 MLOAD PUSH2 0x38B SWAP2 SWAP1 PUSH2 0x109B JUMP JUMPDEST PUSH1 0x40 MLOAD DUP1 SWAP2 SUB SWAP1 RETURN JUMPDEST PUSH2 0x3AE PUSH1 0x4 DUP1 CALLDATASIZE SUB DUP2 ADD SWAP1 PUSH2 0x3A9 SWAP2 SWAP1 PUSH2 0x129E JUMP JUMPDEST PUSH2 0xC43 JUMP JUMPDEST STOP JUMPDEST CALLVALUE DUP1 ISZERO PUSH2 0x3BB JUMPI PUSH0 PUSH0 REVERT JUMPDEST POP PUSH2 0x3D6 PUSH1 0x4 DUP1 CALLDATASIZE SUB DUP2 ADD SWAP1 PUSH2 0x3D1 SWAP2 SWAP1 PUSH2 0x103C JUMP JUMPDEST PUSH2 0xDD8 JUMP JUMPDEST PUSH1 0x40 MLOAD PUSH2 0x3E3 SWAP2 SWAP1 PUSH2 0x109B JUMP JUMPDEST PUSH1 0x40 MLOAD DUP1 SWAP2 SUB SWAP1 RETURN JUMPDEST PUSH2 0x3F4 PUSH2 0xDFF JUMP JUMPDEST STOP JUMPDEST CALLVALUE DUP1 ISZERO PUSH2 0x401 JUMPI PUSH0 PUSH0 REVERT JUMPDEST POP PUSH2 0x40A PUSH2 0xEE0 JUMP JUMPDEST PUSH1 0x40 MLOAD PUSH2 0x417 SWAP2 SWAP1 PUSH2 0x109B JUMP JUMPDEST PUSH1 0x40 MLOAD DUP1 SWAP2 SUB SWAP1 RETURN JUMPDEST CALLVALUE DUP1 ISZERO PUSH2 0x42B JUMPI PUSH0 PUSH0 REVERT JUMPDEST POP PUSH2 0x434 PUSH2 0xEE9 JUMP JUMPDEST PUSH1 0x40 MLOAD PUSH2 0x441 SWAP2 SWAP1 PUSH2 0x109B JUMP JUMPDEST PUSH1 0x40 MLOAD DUP1 SWAP2 SUB SWAP1 RETURN JUMPDEST PUSH0 PUSH0 SWAP1 SLOAD SWAP1 PUSH2 0x100 EXP SWAP1 DIV PUSH20 0xFFFFFFFFFFFFFFFFFFFFFFFFFFFFFFFFFFFFFFFF AND PUSH20 0xFFFFFFFFFFFFFFFFFFFFFFFFFFFFFFFFFFFFFFFF AND CALLER PUSH20 0xFFFFFFFFFFFFFFFFFFFFFFFFFFFFFFFFFFFFFFFF AND EQ PUSH2 0x4D8 JUMPI PUSH1 0x40 MLOAD PUSH32 0x8C379A000000000000000000000000000000000000000000000000000000000 DUP2 MSTORE PUSH1 0x4 ADD PUSH2 0x4CF SWAP1 PUSH2 0x1423 JUMP JUMPDEST PUSH1 0x40 MLOAD DUP1 SWAP2 SUB SWAP1 REVERT JUMPDEST PUSH0 SELFBALANCE SWAP1 POP PUSH0 DUP2 GT PUSH2 0x51E JUMPI PUSH1 0x40 MLOAD PUSH32 0x8C379A000000000000000000000000000000000000000000000000000000000 DUP2 MSTORE PUSH1 0x4 ADD PUSH2 0x515 SWAP1 PUSH2 0x148B JUMP JUMPDEST PUSH1 0x40 MLOAD DUP1 SWAP2 SUB SWAP1 REVERT JUMPDEST PUSH0 PUSH0 PUSH0 SWAP1 SLOAD SWAP1 PUSH2 0x100 EXP SWAP1 DIV PUSH20 0xFFFFFFFFFFFFFFFFFFFFFFFFFFFFFFFFFFFFFFFF AND PUSH20 0xFFFFFFFFFFFFFFFFFFFFFFFFFFFFFFFFFFFFFFFF AND DUP3 PUSH1 0x40 MLOAD PUSH2 0x563 SWAP1 PUSH2 0x14D6 JUMP JUMPDEST PUSH0 PUSH1 0x40 MLOAD DUP1 DUP4 SUB DUP2 DUP6 DUP8 GAS CALL SWAP3 POP POP POP RETURNDATASIZE DUP1 PUSH0 DUP2 EQ PUSH2 0x59D JUMPI PUSH1 0x40 MLOAD SWAP2 POP PUSH1 0x1F NOT PUSH1 0x3F RETURNDATASIZE ADD AND DUP3 ADD PUSH1 0x40 MSTORE RETURNDATASIZE DUP3 MSTORE RETURNDATASIZE PUSH0 PUSH1 0x20 DUP5 ADD RETURNDATACOPY PUSH2 0x5A2 JUMP JUMPDEST PUSH1 0x60 SWAP2 POP JUMPDEST POP POP SWAP1 POP DUP1 PUSH2 0x5E6 JUMPI PUSH1 0x40 MLOAD PUSH32 0x8C379A000000000000000000000000000000000000000000000000000000000 DUP2 MSTORE PUSH1 0x4 ADD PUSH2 0x5DD SWAP1 PUSH2 0x1534 JUMP JUMPDEST PUSH1 0x40 MLOAD DUP1 SWAP2 SUB SWAP1 REVERT JUMPDEST PUSH0 PUSH1 0x3 DUP2 SWAP1 SSTORE POP POP POP JUMP JUMPDEST PUSH1 0x5 DUP2 DUP1 MLOAD PUSH1 0x20 DUP2 ADD DUP3 ADD DUP1 MLOAD DUP5 DUP3 MSTORE PUSH1 0x20 DUP4 ADD PUSH1 0x20 DUP6 ADD KECCAK256 DUP2 DUP4 MSTORE DUP1 SWAP6 POP POP POP POP POP POP PUSH0 SWAP2 POP SWAP1 POP SLOAD DUP2 JUMP JUMPDEST PUSH1 0x4 PUSH1 0x20 MSTORE DUP1 PUSH0 MSTORE PUSH1 0x40 PUSH0 KECCAK256 PUSH0 SWAP2 POP SWAP1 POP SLOAD DUP2 JUMP JUMPDEST PUSH0 PUSH0 PUSH1 0x1 DUP4 PUSH1 0x40 MLOAD PUSH2 0x645 SWAP2 SWAP1 PUSH2 0x158C JUMP JUMPDEST SWAP1 DUP2 MSTORE PUSH1 0x20 ADD PUSH1 0x40 MLOAD DUP1 SWAP2 SUB SWAP1 KECCAK256 SLOAD GT PUSH2 0x694 JUMPI PUSH1 0x40 MLOAD PUSH32 0x8C379A000000000000000000000000000000000000000000000000000000000 DUP2 MSTORE PUSH1 0x4 ADD PUSH2 0x68B SWAP1 PUSH2 0x15EC JUMP JUMPDEST PUSH1 0x40 MLOAD DUP1 SWAP2 SUB SWAP1 REVERT JUMPDEST PUSH1 0x1 DUP3 PUSH1 0x40 MLOAD PUSH2 0x6A4 SWAP2 SWAP1 PUSH2 0x158C JUMP JUMPDEST SWAP1 DUP2 MSTORE PUSH1 0x20 ADD PUSH1 0x40 MLOAD DUP1 SWAP2 SUB SWAP1 KECCAK256 SLOAD SWAP1 POP SWAP2 SWAP1 POP JUMP JUMPDEST PUSH0 PUSH0 SWAP1 SLOAD SWAP1 PUSH2 0x100 EXP SWAP1 DIV PUSH20 0xFFFFFFFFFFFFFFFFFFFFFFFFFFFFFFFFFFFFFFFF AND PUSH20 0xFFFFFFFFFFFFFFFFFFFFFFFFFFFFFFFFFFFFFFFF AND CALLER PUSH20 0xFFFFFFFFFFFFFFFFFFFFFFFFFFFFFFFFFFFFFFFF AND EQ PUSH2 0x748 JUMPI PUSH1 0x40 MLOAD PUSH32 0x8C379A000000000000000000000000000000000000000000000000000000000 DUP2 MSTORE PUSH1 0x4 ADD PUSH2 0x73F SWAP1 PUSH2 0x1423 JUMP JUMPDEST PUSH1 0x40 MLOAD DUP1 SWAP2 SUB SWAP1 REVERT JUMPDEST PUSH0 PUSH20 0xFFFFFFFFFFFFFFFFFFFFFFFFFFFFFFFFFFFFFFFF AND DUP2 PUSH20 0xFFFFFFFFFFFFFFFFFFFFFFFFFFFFFFFFFFFFFFFF AND SUB PUSH2 0x7B6 JUMPI PUSH1 0x40 MLOAD PUSH32 0x8C379A000000000000000000000000000000000000000000000000000000000 DUP2 MSTORE PUSH1 0x4 ADD PUSH2 0x7AD SWAP1 PUSH2 0x1654 JUMP JUMPDEST PUSH1 0x40 MLOAD DUP1 SWAP2 SUB SWAP1 REVERT JUMPDEST DUP1 PUSH0 PUSH0 PUSH2 0x100 EXP DUP2 SLOAD DUP2 PUSH20 0xFFFFFFFFFFFFFFFFFFFFFFFFFFFFFFFFFFFFFFFF MUL NOT AND SWAP1 DUP4 PUSH20 0xFFFFFFFFFFFFFFFFFFFFFFFFFFFFFFFFFFFFFFFF AND MUL OR SWAP1 SSTORE POP POP JUMP JUMPDEST PUSH1 0x60 PUSH1 0x2 DUP1 SLOAD DUP1 PUSH1 0x20 MUL PUSH1 0x20 ADD PUSH1 0x40 MLOAD SWAP1 DUP2 ADD PUSH1 0x40 MSTORE DUP1 SWAP3 SWAP2 SWAP1 DUP2 DUP2 MSTORE PUSH1 0x20 ADD PUSH0 SWAP1 JUMPDEST DUP3 DUP3 LT ISZERO PUSH2 0x8C3 JUMPI DUP4 DUP3 SWAP1 PUSH0 MSTORE PUSH1 0x20 PUSH0 KECCAK256 ADD DUP1 SLOAD PUSH2 0x838 SWAP1 PUSH2 0x169F JUMP JUMPDEST DUP1 PUSH1 0x1F ADD PUSH1 0x20 DUP1 SWAP2 DIV MUL PUSH1 0x20 ADD PUSH1 0x40 MLOAD SWAP1 DUP2 ADD PUSH1 0x40 MSTORE DUP1 SWAP3 SWAP2 SWAP1 DUP2 DUP2 MSTORE PUSH1 0x20 ADD DUP3 DUP1 SLOAD PUSH2 0x864 SWAP1 PUSH2 0x169F JUMP JUMPDEST DUP1 ISZERO PUSH2 0x8AF JUMPI DUP1 PUSH1 0x1F LT PUSH2 0x886 JUMPI PUSH2 0x100 DUP1 DUP4 SLOAD DIV MUL DUP4 MSTORE SWAP2 PUSH1 0x20 ADD SWAP2 PUSH2 0x8AF JUMP JUMPDEST DUP3 ADD SWAP2 SWAP1 PUSH0 MSTORE PUSH1 0x20 PUSH0 KECCAK256 SWAP1 JUMPDEST DUP2 SLOAD DUP2 MSTORE SWAP1 PUSH1 0x1 ADD SWAP1 PUSH1 0x20 ADD DUP1 DUP4 GT PUSH2 0x892 JUMPI DUP3 SWAP1 SUB PUSH1 0x1F AND DUP3 ADD SWAP2 JUMPDEST POP POP POP POP POP DUP2 MSTORE PUSH1 0x20 ADD SWAP1 PUSH1 0x1 ADD SWAP1 PUSH2 0x81B JUMP JUMPDEST POP POP POP POP SWAP1 POP SWAP1 JUMP JUMPDEST PUSH1 0x1 DUP2 DUP1 MLOAD PUSH1 0x20 DUP2 ADD DUP3 ADD DUP1 MLOAD DUP5 DUP3 MSTORE PUSH1 0x20 DUP4 ADD PUSH1 0x20 DUP6 ADD KECCAK256 DUP2 DUP4 MSTORE DUP1 SWAP6 POP POP POP POP POP POP PUSH0 SWAP2 POP SWAP1 POP SLOAD DUP2 JUMP JUMPDEST PUSH0 PUSH0 SWAP1 SLOAD SWAP1 PUSH2 0x100 EXP SWAP1 DIV PUSH20 0xFFFFFFFFFFFFFFFFFFFFFFFFFFFFFFFFFFFFFFFF AND PUSH20 0xFFFFFFFFFFFFFFFFFFFFFFFFFFFFFFFFFFFFFFFF AND CALLER PUSH20 0xFFFFFFFFFFFFFFFFFFFFFFFFFFFFFFFFFFFFFFFF AND EQ PUSH2 0x987 JUMPI PUSH1 0x40 MLOAD PUSH32 0x8C379A000000000000000000000000000000000000000000000000000000000 DUP2 MSTORE PUSH1 0x4 ADD PUSH2 0x97E SWAP1 PUSH2 0x1423 JUMP JUMPDEST PUSH1 0x40 MLOAD DUP1 SWAP2 SUB SWAP1 REVERT JUMPDEST PUSH0 DUP2 GT PUSH2 0x9C9 JUMPI PUSH1 0x40 MLOAD PUSH32 0x8C379A000000000000000000000000000000000000000000000000000000000 DUP2 MSTORE PUSH1 0x4 ADD PUSH2 0x9C0 SWAP1 PUSH2 0x173F JUMP JUMPDEST PUSH1 0x40 MLOAD DUP1 SWAP2 SUB SWAP1 REVERT JUMPDEST PUSH0 PUSH0 SWAP1 POP PUSH0 PUSH0 SWAP1 POP JUMPDEST PUSH1 0x2 DUP1 SLOAD SWAP1 POP DUP2 LT ISZERO PUSH2 0xA8E JUMPI DUP4 DUP1 MLOAD SWAP1 PUSH1 0x20 ADD KECCAK256 PUSH1 0x2 DUP3 DUP2 SLOAD DUP2 LT PUSH2 0x9FB JUMPI PUSH2 0x9FA PUSH2 0x175D JUMP JUMPDEST JUMPDEST SWAP1 PUSH0 MSTORE PUSH1 0x20 PUSH0 KECCAK256 ADD PUSH1 0x40 MLOAD PUSH2 0xA10 SWAP2 SWAP1 PUSH2 0x181C JUMP JUMPDEST PUSH1 0x40 MLOAD DUP1 SWAP2 SUB SWAP1 KECCAK256 SUB PUSH2 0xA26 JUMPI PUSH1 0x1 SWAP2 POP PUSH2 0xA8E JUMP JUMPDEST DUP2 PUSH2 0xA5E JUMPI PUSH1 0x2 DUP5 SWAP1 DUP1 PUSH1 0x1 DUP2 SLOAD ADD DUP1 DUP3 SSTORE DUP1 SWAP2 POP POP PUSH1 0x1 SWAP1 SUB SWAP1 PUSH0 MSTORE PUSH1 0x20 PUSH0 KECCAK256 ADD PUSH0 SWAP1 SWAP2 SWAP1 SWAP2 SWAP1 SWAP2 POP SWAP1 DUP2 PUSH2 0xA5C SWAP2 SWAP1 PUSH2 0x19D2 JUMP JUMPDEST POP JUMPDEST DUP3 PUSH1 0x1 DUP6 PUSH1 0x40 MLOAD PUSH2 0xA6F SWAP2 SWAP1 PUSH2 0x158C JUMP JUMPDEST SWAP1 DUP2 MSTORE PUSH1 0x20 ADD PUSH1 0x40 MLOAD DUP1 SWAP2 SUB SWAP1 KECCAK256 DUP2 SWAP1 SSTORE POP DUP1 DUP1 PUSH1 0x1 ADD SWAP2 POP POP PUSH2 0x9D2 JUMP JUMPDEST POP POP POP POP JUMP JUMPDEST PUSH1 0x2 DUP2 DUP2 SLOAD DUP2 LT PUSH2 0xAA3 JUMPI PUSH0 DUP1 REVERT JUMPDEST SWAP1 PUSH0 MSTORE PUSH1 0x20 PUSH0 KECCAK256 ADD PUSH0 SWAP2 POP SWAP1 POP DUP1 SLOAD PUSH2 0xABB SWAP1 PUSH2 0x169F JUMP JUMPDEST DUP1 PUSH1 0x1F ADD PUSH1 0x20 DUP1 SWAP2 DIV MUL PUSH1 0x20 ADD PUSH1 0x40 MLOAD SWAP1 DUP2 ADD PUSH1 0x40 MSTORE DUP1 SWAP3 SWAP2 SWAP1 DUP2 DUP2 MSTORE PUSH1 0x20 ADD DUP3 DUP1 SLOAD PUSH2 0xAE7 SWAP1 PUSH2 0x169F JUMP JUMPDEST DUP1 ISZERO PUSH2 0xB32 JUMPI DUP1 PUSH1 0x1F LT PUSH2 0xB09 JUMPI PUSH2 0x100 DUP1 DUP4 SLOAD DIV MUL DUP4 MSTORE SWAP2 PUSH1 0x20 ADD SWAP2 PUSH2 0xB32 JUMP JUMPDEST DUP3 ADD SWAP2 SWAP1 PUSH0 MSTORE PUSH1 0x20 PUSH0 KECCAK256 SWAP1 JUMPDEST DUP2 SLOAD DUP2 MSTORE SWAP1 PUSH1 0x1 ADD SWAP1 PUSH1 0x20 ADD DUP1 DUP4 GT PUSH2 0xB15 JUMPI DUP3 SWAP1 SUB PUSH1 0x1F AND DUP3 ADD SWAP2 JUMPDEST POP POP POP POP POP DUP2 JUMP JUMPDEST PUSH0 PUSH0 PUSH1 0x1 DUP5 PUSH1 0x40 MLOAD PUSH2 0xB4C SWAP2 SWAP1 PUSH2 0x158C JUMP JUMPDEST SWAP1 DUP2 MSTORE PUSH1 0x20 ADD PUSH1 0x40 MLOAD DUP1 SWAP2 SUB SWAP1 KECCAK256 SLOAD GT PUSH2 0xB9B JUMPI PUSH1 0x40 MLOAD PUSH32 0x8C379A000000000000000000000000000000000000000000000000000000000 DUP2 MSTORE PUSH1 0x4 ADD PUSH2 0xB92 SWAP1 PUSH2 0x1AEB JUMP JUMPDEST PUSH1 0x40 MLOAD DUP1 SWAP2 SUB SWAP1 REVERT JUMPDEST PUSH0 PUSH1 0x1 DUP5 PUSH1 0x40 MLOAD PUSH2 0xBAC SWAP2 SWAP1 PUSH2 0x158C JUMP JUMPDEST SWAP1 DUP2 MSTORE PUSH1 0x20 ADD PUSH1 0x40 MLOAD DUP1 SWAP2 SUB SWAP1 KECCAK256 SLOAD DUP4 PUSH2 0xBC6 SWAP2 SWAP1 PUSH2 0x1B36 JUMP JUMPDEST SWAP1 POP DUP1 SWAP2 POP POP SWAP3 SWAP2 POP POP JUMP JUMPDEST PUSH0 SELFBALANCE SWAP1 POP SWAP1 JUMP JUMPDEST PUSH0 PUSH0 SWAP1 SLOAD SWAP1 PUSH2 0x100 EXP SWAP1 DIV PUSH20 0xFFFFFFFFFFFFFFFFFFFFFFFFFFFFFFFFFFFFFFFF AND DUP2 JUMP JUMPDEST PUSH0 PUSH1 0x4 PUSH0 DUP4 PUSH20 0xFFFFFFFFFFFFFFFFFFFFFFFFFFFFFFFFFFFFFFFF AND PUSH20 0xFFFFFFFFFFFFFFFFFFFFFFFFFFFFFFFFFFFFFFFF AND DUP2 MSTORE PUSH1 0x20 ADD SWAP1 DUP2 MSTORE PUSH1 0x20 ADD PUSH0 KECCAK256 SLOAD SWAP1 POP SWAP2 SWAP1 POP JUMP JUMPDEST PUSH0 PUSH1 0x1 DUP4 PUSH1 0x40 MLOAD PUSH2 0xC54 SWAP2 SWAP1 PUSH2 0x158C JUMP JUMPDEST SWAP1 DUP2 MSTORE PUSH1 0x20 ADD PUSH1 0x40 MLOAD DUP1 SWAP2 SUB SWAP1 KECCAK256 SLOAD GT PUSH2 0xCA3 JUMPI PUSH1 0x40 MLOAD PUSH32 0x8C379A000000000000000000000000000000000000000000000000000000000 DUP2 MSTORE PUSH1 0x4 ADD PUSH2 0xC9A SWAP1 PUSH2 0x1AEB JUMP JUMPDEST PUSH1 0x40 MLOAD DUP1 SWAP2 SUB SWAP1 REVERT JUMPDEST PUSH0 DUP2 GT PUSH2 0xCE5 JUMPI PUSH1 0x40 MLOAD PUSH32 0x8C379A000000000000000000000000000000000000000000000000000000000 DUP2 MSTORE PUSH1 0x4 ADD PUSH2 0xCDC SWAP1 PUSH2 0x1BE7 JUMP JUMPDEST PUSH1 0x40 MLOAD DUP1 SWAP2 SUB SWAP1 REVERT JUMPDEST PUSH0 PUSH2 0xCF0 DUP4 DUP4 PUSH2 0xB3A JUMP JUMPDEST SWAP1 POP DUP1 CALLVALUE EQ PUSH2 0xD34 JUMPI PUSH1 0x40 MLOAD PUSH32 0x8C379A000000000000000000000000000000000000000000000000000000000 DUP2 MSTORE PUSH1 0x4 ADD PUSH2 0xD2B SWAP1 PUSH2 0x1C75 JUMP JUMPDEST PUSH1 0x40 MLOAD DUP1 SWAP2 SUB SWAP1 REVERT JUMPDEST CALLVALUE PUSH1 0x4 PUSH0 CALLER PUSH20 0xFFFFFFFFFFFFFFFFFFFFFFFFFFFFFFFFFFFFFFFF AND PUSH20 0xFFFFFFFFFFFFFFFFFFFFFFFFFFFFFFFFFFFFFFFF AND DUP2 MSTORE PUSH1 0x20 ADD SWAP1 DUP2 MSTORE PUSH1 0x20 ADD PUSH0 KECCAK256 PUSH0 DUP3 DUP3 SLOAD PUSH2 0xD80 SWAP2 SWAP1 PUSH2 0x1C93 JUMP JUMPDEST SWAP3 POP POP DUP2 SWAP1 SSTORE POP CALLVALUE PUSH1 0x3 PUSH0 DUP3 DUP3 SLOAD PUSH2 0xD98 SWAP2 SWAP1 PUSH2 0x1C93 JUMP JUMPDEST SWAP3 POP POP DUP2 SWAP1 SSTORE POP DUP2 PUSH1 0x5 DUP5 PUSH1 0x40 MLOAD PUSH2 0xDB0 SWAP2 SWAP1 PUSH2 0x158C JUMP JUMPDEST SWAP1 DUP2 MSTORE PUSH1 0x20 ADD PUSH1 0x40 MLOAD DUP1 SWAP2 SUB SWAP1 KECCAK256 PUSH0 DUP3 DUP3 SLOAD PUSH2 0xDCC SWAP2 SWAP1 PUSH2 0x1C93 JUMP JUMPDEST SWAP3 POP POP DUP2 SWAP1 SSTORE POP POP POP POP JUMP JUMPDEST PUSH0 PUSH1 0x5 DUP3 PUSH1 0x40 MLOAD PUSH2 0xDE9 SWAP2 SWAP1 PUSH2 0x158C JUMP JUMPDEST SWAP1 DUP2 MSTORE PUSH1 0x20 ADD PUSH1 0x40 MLOAD DUP1 SWAP2 SUB SWAP1 KECCAK256 SLOAD SWAP1 POP SWAP2 SWAP1 POP JUMP JUMPDEST PUSH0 CALLVALUE GT PUSH2 0xE41 JUMPI PUSH1 0x40 MLOAD PUSH32 0x8C379A000000000000000000000000000000000000000000000000000000000 DUP2 MSTORE PUSH1 0x4 ADD PUSH2 0xE38 SWAP1 PUSH2 0x1BE7 JUMP JUMPDEST PUSH1 0x40 MLOAD DUP1 SWAP2 SUB SWAP1 REVERT JUMPDEST CALLVALUE PUSH1 0x4 PUSH0 CALLER PUSH20 0xFFFFFFFFFFFFFFFFFFFFFFFFFFFFFFFFFFFFFFFF AND PUSH20 0xFFFFFFFFFFFFFFFFFFFFFFFFFFFFFFFFFFFFFFFF AND DUP2 MSTORE PUSH1 0x20 ADD SWAP1 DUP2 MSTORE PUSH1 0x20 ADD PUSH0 KECCAK256 PUSH0 DUP3 DUP3 SLOAD PUSH2 0xE8D SWAP2 SWAP1 PUSH2 0x1C93 JUMP JUMPDEST SWAP3 POP POP DUP2 SWAP1 SSTORE POP CALLVALUE PUSH1 0x3 PUSH0 DUP3 DUP3 SLOAD PUSH2 0xEA5 SWAP2 SWAP1 PUSH2 0x1C93 JUMP JUMPDEST SWAP3 POP POP DUP2 SWAP1 SSTORE POP CALLVALUE PUSH1 0x5 PUSH1 0x40 MLOAD PUSH2 0xEBB SWAP1 PUSH2 0x1D10 JUMP JUMPDEST SWAP1 DUP2 MSTORE PUSH1 0x20 ADD PUSH1 0x40 MLOAD DUP1 SWAP2 SUB SWAP1 KECCAK256 PUSH0 DUP3 DUP3 SLOAD PUSH2 0xED7 SWAP2 SWAP1 PUSH2 0x1C93 JUMP JUMPDEST SWAP3 POP POP DUP2 SWAP1 SSTORE POP JUMP JUMPDEST PUSH0 PUSH1 0x3 SLOAD SWAP1 POP SWAP1 JUMP JUMPDEST PUSH1 0x3 SLOAD DUP2 JUMP JUMPDEST PUSH0 PUSH1 0x40 MLOAD SWAP1 POP SWAP1 JUMP JUMPDEST PUSH0 PUSH0 REVERT JUMPDEST PUSH0 PUSH0 REVERT JUMPDEST PUSH0 PUSH0 REVERT JUMPDEST PUSH0 PUSH0 REVERT JUMPDEST PUSH0 PUSH1 0x1F NOT PUSH1 0x1F DUP4 ADD AND SWAP1 POP SWAP2 SWAP1 POP JUMP JUMPDEST PUSH32 0x4E487B7100000000000000000000000000000000000000000000000000000000 PUSH0 MSTORE PUSH1 0x41 PUSH1 0x4 MSTORE PUSH1 0x24 PUSH0 REVERT JUMPDEST PUSH2 0xF4E DUP3 PUSH2 0xF08 JUMP JUMPDEST DUP2 ADD DUP2 DUP2 LT PUSH8 0xFFFFFFFFFFFFFFFF DUP3 GT OR ISZERO PUSH2 0xF6D JUMPI PUSH2 0xF6C PUSH2 0xF18 JUMP JUMPDEST JUMPDEST DUP1 PUSH1 0x40 MSTORE POP POP POP JUMP JUMPDEST PUSH0 PUSH2 0xF7F PUSH2 0xEEF JUMP JUMPDEST SWAP1 POP PUSH2 0xF8B DUP3 DUP3 PUSH2 0xF45 JUMP JUMPDEST SWAP2 SWAP1 POP JUMP JUMPDEST PUSH0 PUSH8 0xFFFFFFFFFFFFFFFF DUP3 GT ISZERO PUSH2 0xFAA JUMPI PUSH2 0xFA9 PUSH2 0xF18 JUMP JUMPDEST JUMPDEST PUSH2 0xFB3 DUP3 PUSH2 0xF08 JUMP JUMPDEST SWAP1 POP PUSH1 0x20 DUP2 ADD SWAP1 POP SWAP2 SWAP1 POP JUMP JUMPDEST DUP3 DUP2 DUP4 CALLDATACOPY PUSH0 DUP4 DUP4 ADD MSTORE POP POP POP JUMP JUMPDEST PUSH0 PUSH2 0xFE0 PUSH2 0xFDB DUP5 PUSH2 0xF90 JUMP JUMPDEST PUSH2 0xF76 JUMP JUMPDEST SWAP1 POP DUP3 DUP2 MSTORE PUSH1 0x20 DUP2 ADD DUP5 DUP5 DUP5 ADD GT ISZERO PUSH2 0xFFC JUMPI PUSH2 0xFFB PUSH2 0xF04 JUMP JUMPDEST JUMPDEST PUSH2 0x1007 DUP5 DUP3 DUP6 PUSH2 0xFC0 JUMP JUMPDEST POP SWAP4 SWAP3 POP POP POP JUMP JUMPDEST PUSH0 DUP3 PUSH1 0x1F DUP4 ADD SLT PUSH2 0x1023 JUMPI PUSH2 0x1022 PUSH2 0xF00 JUMP JUMPDEST JUMPDEST DUP2 CALLDATALOAD PUSH2 0x1033 DUP5 DUP3 PUSH1 0x20 DUP7 ADD PUSH2 0xFCE JUMP JUMPDEST SWAP2 POP POP SWAP3 SWAP2 POP POP JUMP JUMPDEST PUSH0 PUSH1 0x20 DUP3 DUP5 SUB SLT ISZERO PUSH2 0x1051 JUMPI PUSH2 0x1050 PUSH2 0xEF8 JUMP JUMPDEST JUMPDEST PUSH0 DUP3 ADD CALLDATALOAD PUSH8 0xFFFFFFFFFFFFFFFF DUP2 GT ISZERO PUSH2 0x106E JUMPI PUSH2 0x106D PUSH2 0xEFC JUMP JUMPDEST JUMPDEST PUSH2 0x107A DUP5 DUP3 DUP6 ADD PUSH2 0x100F JUMP JUMPDEST SWAP2 POP POP SWAP3 SWAP2 POP POP JUMP JUMPDEST PUSH0 DUP2 SWAP1 POP SWAP2 SWAP1 POP JUMP JUMPDEST PUSH2 0x1095 DUP2 PUSH2 0x1083 JUMP JUMPDEST DUP3 MSTORE POP POP JUMP JUMPDEST PUSH0 PUSH1 0x20 DUP3 ADD SWAP1 POP PUSH2 0x10AE PUSH0 DUP4 ADD DUP5 PUSH2 0x108C JUMP JUMPDEST SWAP3 SWAP2 POP POP JUMP JUMPDEST PUSH0 PUSH20 0xFFFFFFFFFFFFFFFFFFFFFFFFFFFFFFFFFFFFFFFF DUP3 AND SWAP1 POP SWAP2 SWAP1 POP JUMP JUMPDEST PUSH0 PUSH2 0x10DD DUP3 PUSH2 0x10B4 JUMP JUMPDEST SWAP1 POP SWAP2 SWAP1 POP JUMP JUMPDEST PUSH2 0x10ED DUP2 PUSH2 0x10D3 JUMP JUMPDEST DUP2 EQ PUSH2 0x10F7 JUMPI PUSH0 PUSH0 REVERT JUMPDEST POP JUMP JUMPDEST PUSH0 DUP2 CALLDATALOAD SWAP1 POP PUSH2 0x1108 DUP2 PUSH2 0x10E4 JUMP JUMPDEST SWAP3 SWAP2 POP POP JUMP JUMPDEST PUSH0 PUSH1 0x20 DUP3 DUP5 SUB SLT ISZERO PUSH2 0x1123 JUMPI PUSH2 0x1122 PUSH2 0xEF8 JUMP JUMPDEST JUMPDEST PUSH0 PUSH2 0x1130 DUP5 DUP3 DUP6 ADD PUSH2 0x10FA JUMP JUMPDEST SWAP2 POP POP SWAP3 SWAP2 POP POP JUMP JUMPDEST PUSH0 DUP2 MLOAD SWAP1 POP SWAP2 SWAP1 POP JUMP JUMPDEST PUSH0 DUP3 DUP3 MSTORE PUSH1 0x20 DUP3 ADD SWAP1 POP SWAP3 SWAP2 POP POP JUMP JUMPDEST PUSH0 DUP2 SWAP1 POP PUSH1 0x20 DUP3 ADD SWAP1 POP SWAP2 SWAP1 POP JUMP JUMPDEST PUSH0 DUP2 MLOAD SWAP1 POP SWAP2 SWAP1 POP JUMP JUMPDEST PUSH0 DUP3 DUP3 MSTORE PUSH1 0x20 DUP3 ADD SWAP1 POP SWAP3 SWAP2 POP POP JUMP JUMPDEST DUP3 DUP2 DUP4 MCOPY PUSH0 DUP4 DUP4 ADD MSTORE POP POP POP JUMP JUMPDEST PUSH0 PUSH2 0x1194 DUP3 PUSH2 0x1162 JUMP JUMPDEST PUSH2 0x119E DUP2 DUP6 PUSH2 0x116C JUMP JUMPDEST SWAP4 POP PUSH2 0x11AE DUP2 DUP6 PUSH1 0x20 DUP7 ADD PUSH2 0x117C JUMP JUMPDEST PUSH2 0x11B7 DUP2 PUSH2 0xF08 JUMP JUMPDEST DUP5 ADD SWAP2 POP POP SWAP3 SWAP2 POP POP JUMP JUMPDEST PUSH0 PUSH2 0x11CD DUP4 DUP4 PUSH2 0x118A JUMP JUMPDEST SWAP1 POP SWAP3 SWAP2 POP POP JUMP JUMPDEST PUSH0 PUSH1 0x20 DUP3 ADD SWAP1 POP SWAP2 SWAP1 POP JUMP JUMPDEST PUSH0 PUSH2 0x11EB DUP3 PUSH2 0x1139 JUMP JUMPDEST PUSH2 0x11F5 DUP2 DUP6 PUSH2 0x1143 JUMP JUMPDEST SWAP4 POP DUP4 PUSH1 0x20 DUP3 MUL DUP6 ADD PUSH2 0x1207 DUP6 PUSH2 0x1153 JUMP JUMPDEST DUP1 PUSH0 JUMPDEST DUP6 DUP2 LT ISZERO PUSH2 0x1242 JUMPI DUP5 DUP5 SUB DUP10 MSTORE DUP2 MLOAD PUSH2 0x1223 DUP6 DUP3 PUSH2 0x11C2 JUMP JUMPDEST SWAP5 POP PUSH2 0x122E DUP4 PUSH2 0x11D5 JUMP JUMPDEST SWAP3 POP PUSH1 0x20 DUP11 ADD SWAP10 POP POP PUSH1 0x1 DUP2 ADD SWAP1 POP PUSH2 0x120A JUMP JUMPDEST POP DUP3 SWAP8 POP DUP8 SWAP6 POP POP POP POP POP POP SWAP3 SWAP2 POP POP JUMP JUMPDEST PUSH0 PUSH1 0x20 DUP3 ADD SWAP1 POP DUP2 DUP2 SUB PUSH0 DUP4 ADD MSTORE PUSH2 0x126C DUP2 DUP5 PUSH2 0x11E1 JUMP JUMPDEST SWAP1 POP SWAP3 SWAP2 POP POP JUMP JUMPDEST PUSH2 0x127D DUP2 PUSH2 0x1083 JUMP JUMPDEST DUP2 EQ PUSH2 0x1287 JUMPI PUSH0 PUSH0 REVERT JUMPDEST POP JUMP JUMPDEST PUSH0 DUP2 CALLDATALOAD SWAP1 POP PUSH2 0x1298 DUP2 PUSH2 0x1274 JUMP JUMPDEST SWAP3 SWAP2 POP POP JUMP JUMPDEST PUSH0 PUSH0 PUSH1 0x40 DUP4 DUP6 SUB SLT ISZERO PUSH2 0x12B4 JUMPI PUSH2 0x12B3 PUSH2 0xEF8 JUMP JUMPDEST JUMPDEST PUSH0 DUP4 ADD CALLDATALOAD PUSH8 0xFFFFFFFFFFFFFFFF DUP2 GT ISZERO PUSH2 0x12D1 JUMPI PUSH2 0x12D0 PUSH2 0xEFC JUMP JUMPDEST JUMPDEST PUSH2 0x12DD DUP6 DUP3 DUP7 ADD PUSH2 0x100F JUMP JUMPDEST SWAP3 POP POP PUSH1 0x20 PUSH2 0x12EE DUP6 DUP3 DUP7 ADD PUSH2 0x128A JUMP JUMPDEST SWAP2 POP POP SWAP3 POP SWAP3 SWAP1 POP JUMP JUMPDEST PUSH0 PUSH1 0x20 DUP3 DUP5 SUB SLT ISZERO PUSH2 0x130D JUMPI PUSH2 0x130C PUSH2 0xEF8 JUMP JUMPDEST JUMPDEST PUSH0 PUSH2 0x131A DUP5 DUP3 DUP6 ADD PUSH2 0x128A JUMP JUMPDEST SWAP2 POP POP SWAP3 SWAP2 POP POP JUMP JUMPDEST PUSH0 DUP3 DUP3 MSTORE PUSH1 0x20 DUP3 ADD SWAP1 POP SWAP3 SWAP2 POP POP JUMP JUMPDEST PUSH0 PUSH2 0x133D DUP3 PUSH2 0x1162 JUMP JUMPDEST PUSH2 0x1347 DUP2 DUP6 PUSH2 0x1323 JUMP JUMPDEST SWAP4 POP PUSH2 0x1357 DUP2 DUP6 PUSH1 0x20 DUP7 ADD PUSH2 0x117C JUMP JUMPDEST PUSH2 0x1360 DUP2 PUSH2 0xF08 JUMP JUMPDEST DUP5 ADD SWAP2 POP POP SWAP3 SWAP2 POP POP JUMP JUMPDEST PUSH0 PUSH1 0x20 DUP3 ADD SWAP1 POP DUP2 DUP2 SUB PUSH0 DUP4 ADD MSTORE PUSH2 0x1383 DUP2 DUP5 PUSH2 0x1333 JUMP JUMPDEST SWAP1 POP SWAP3 SWAP2 POP POP JUMP JUMPDEST PUSH2 0x1394 DUP2 PUSH2 0x10D3 JUMP JUMPDEST DUP3 MSTORE POP POP JUMP JUMPDEST PUSH0 PUSH1 0x20 DUP3 ADD SWAP1 POP PUSH2 0x13AD PUSH0 DUP4 ADD DUP5 PUSH2 0x138B JUMP JUMPDEST SWAP3 SWAP2 POP POP JUMP JUMPDEST PUSH32 0x4F6E6C79206F776E65722063616E20706572666F726D20746869732061637469 PUSH0 DUP3 ADD MSTORE PUSH32 0x6F6E000000000000000000000000000000000000000000000000000000000000 PUSH1 0x20 DUP3 ADD MSTORE POP JUMP JUMPDEST PUSH0 PUSH2 0x140D PUSH1 0x22 DUP4 PUSH2 0x1323 JUMP JUMPDEST SWAP2 POP PUSH2 0x1418 DUP3 PUSH2 0x13B3 JUMP JUMPDEST PUSH1 0x40 DUP3 ADD SWAP1 POP SWAP2 SWAP1 POP JUMP JUMPDEST PUSH0 PUSH1 0x20 DUP3 ADD SWAP1 POP DUP2 DUP2 SUB PUSH0 DUP4 ADD MSTORE PUSH2 0x143A DUP2 PUSH2 0x1401 JUMP JUMPDEST SWAP1 POP SWAP2 SWAP1 POP JUMP JUMPDEST PUSH32 0x4E6F207469707320746F2077697468647261772E000000000000000000000000 PUSH0 DUP3 ADD MSTORE POP JUMP JUMPDEST PUSH0 PUSH2 0x1475 PUSH1 0x14 DUP4 PUSH2 0x1323 JUMP JUMPDEST SWAP2 POP PUSH2 0x1480 DUP3 PUSH2 0x1441 JUMP JUMPDEST PUSH1 0x20 DUP3 ADD SWAP1 POP SWAP2 SWAP1 POP JUMP JUMPDEST PUSH0 PUSH1 0x20 DUP3 ADD SWAP1 POP DUP2 DUP2 SUB PUSH0 DUP4 ADD MSTORE PUSH2 0x14A2 DUP2 PUSH2 0x1469 JUMP JUMPDEST SWAP1 POP SWAP2 SWAP1 POP JUMP JUMPDEST PUSH0 DUP2 SWAP1 POP SWAP3 SWAP2 POP POP JUMP JUMPDEST POP JUMP JUMPDEST PUSH0 PUSH2 0x14C1 PUSH0 DUP4 PUSH2 0x14A9 JUMP JUMPDEST SWAP2 POP PUSH2 0x14CC DUP3 PUSH2 0x14B3 JUMP JUMPDEST PUSH0 DUP3 ADD SWAP1 POP SWAP2 SWAP1 POP JUMP JUMPDEST PUSH0 PUSH2 0x14E0 DUP3 PUSH2 0x14B6 JUMP JUMPDEST SWAP2 POP DUP2 SWAP1 POP SWAP2 SWAP1 POP JUMP JUMPDEST PUSH32 0x5472616E73666572204661696C65642E00000000000000000000000000000000 PUSH0 DUP3 ADD MSTORE POP JUMP JUMPDEST PUSH0 PUSH2 0x151E PUSH1 0x10 DUP4 PUSH2 0x1323 JUMP JUMPDEST SWAP2 POP PUSH2 0x1529 DUP3 PUSH2 0x14EA JUMP JUMPDEST PUSH1 0x20 DUP3 ADD SWAP1 POP SWAP2 SWAP1 POP JUMP JUMPDEST PUSH0 PUSH1 0x20 DUP3 ADD SWAP1 POP DUP2 DUP2 SUB PUSH0 DUP4 ADD MSTORE PUSH2 0x154B DUP2 PUSH2 0x1512 JUMP JUMPDEST SWAP1 POP SWAP2 SWAP1 POP JUMP JUMPDEST PUSH0 DUP2 SWAP1 POP SWAP3 SWAP2 POP POP JUMP JUMPDEST PUSH0 PUSH2 0x1566 DUP3 PUSH2 0x1162 JUMP JUMPDEST PUSH2 0x1570 DUP2 DUP6 PUSH2 0x1552 JUMP JUMPDEST SWAP4 POP PUSH2 0x1580 DUP2 DUP6 PUSH1 0x20 DUP7 ADD PUSH2 0x117C JUMP JUMPDEST DUP1 DUP5 ADD SWAP2 POP POP SWAP3 SWAP2 POP POP JUMP JUMPDEST PUSH0 PUSH2 0x1597 DUP3 DUP5 PUSH2 0x155C JUMP JUMPDEST SWAP2 POP DUP2 SWAP1 POP SWAP3 SWAP2 POP POP JUMP JUMPDEST PUSH32 0x43757272656E6379206E6F7420737570706F727465642E000000000000000000 PUSH0 DUP3 ADD MSTORE POP JUMP JUMPDEST PUSH0 PUSH2 0x15D6 PUSH1 0x17 DUP4 PUSH2 0x1323 JUMP JUMPDEST SWAP2 POP PUSH2 0x15E1 DUP3 PUSH2 0x15A2 JUMP JUMPDEST PUSH1 0x20 DUP3 ADD SWAP1 POP SWAP2 SWAP1 POP JUMP JUMPDEST PUSH0 PUSH1 0x20 DUP3 ADD SWAP1 POP DUP2 DUP2 SUB PUSH0 DUP4 ADD MSTORE PUSH2 0x1603 DUP2 PUSH2 0x15CA JUMP JUMPDEST SWAP1 POP SWAP2 SWAP1 POP JUMP JUMPDEST PUSH32 0x496E76616C696420616464726573732E00000000000000000000000000000000 PUSH0 DUP3 ADD MSTORE POP JUMP JUMPDEST PUSH0 PUSH2 0x163E PUSH1 0x10 DUP4 PUSH2 0x1323 JUMP JUMPDEST SWAP2 POP PUSH2 0x1649 DUP3 PUSH2 0x160A JUMP JUMPDEST PUSH1 0x20 DUP3 ADD SWAP1 POP SWAP2 SWAP1 POP JUMP JUMPDEST PUSH0 PUSH1 0x20 DUP3 ADD SWAP1 POP DUP2 DUP2 SUB PUSH0 DUP4 ADD MSTORE PUSH2 0x166B DUP2 PUSH2 0x1632 JUMP JUMPDEST SWAP1 POP SWAP2 SWAP1 POP JUMP JUMPDEST PUSH32 0x4E487B7100000000000000000000000000000000000000000000000000000000 PUSH0 MSTORE PUSH1 0x22 PUSH1 0x4 MSTORE PUSH1 0x24 PUSH0 REVERT JUMPDEST PUSH0 PUSH1 0x2 DUP3 DIV SWAP1 POP PUSH1 0x1 DUP3 AND DUP1 PUSH2 0x16B6 JUMPI PUSH1 0x7F DUP3 AND SWAP2 POP JUMPDEST PUSH1 0x20 DUP3 LT DUP2 SUB PUSH2 0x16C9 JUMPI PUSH2 0x16C8 PUSH2 0x1672 JUMP JUMPDEST JUMPDEST POP SWAP2 SWAP1 POP JUMP JUMPDEST PUSH32 0x436F6E766572696F6E2072617465206D75737420626520677265617465722074 PUSH0 DUP3 ADD MSTORE PUSH32 0x68616E20302E0000000000000000000000000000000000000000000000000000 PUSH1 0x20 DUP3 ADD MSTORE POP JUMP JUMPDEST PUSH0 PUSH2 0x1729 PUSH1 0x26 DUP4 PUSH2 0x1323 JUMP JUMPDEST SWAP2 POP PUSH2 0x1734 DUP3 PUSH2 0x16CF JUMP JUMPDEST PUSH1 0x40 DUP3 ADD SWAP1 POP SWAP2 SWAP1 POP JUMP JUMPDEST PUSH0 PUSH1 0x20 DUP3 ADD SWAP1 POP DUP2 DUP2 SUB PUSH0 DUP4 ADD MSTORE PUSH2 0x1756 DUP2 PUSH2 0x171D JUMP JUMPDEST SWAP1 POP SWAP2 SWAP1 POP JUMP JUMPDEST PUSH32 0x4E487B7100000000000000000000000000000000000000000000000000000000 PUSH0 MSTORE PUSH1 0x32 PUSH1 0x4 MSTORE PUSH1 0x24 PUSH0 REVERT JUMPDEST PUSH0 DUP2 SWAP1 POP DUP2 PUSH0 MSTORE PUSH1 0x20 PUSH0 KECCAK256 SWAP1 POP SWAP2 SWAP1 POP JUMP JUMPDEST PUSH0 DUP2 SLOAD PUSH2 0x17A8 DUP2 PUSH2 0x169F JUMP JUMPDEST PUSH2 0x17B2 DUP2 DUP7 PUSH2 0x14A9 JUMP JUMPDEST SWAP5 POP PUSH1 0x1 DUP3 AND PUSH0 DUP2 EQ PUSH2 0x17CC JUMPI PUSH1 0x1 DUP2 EQ PUSH2 0x17E1 JUMPI PUSH2 0x1813 JUMP JUMPDEST PUSH1 0xFF NOT DUP4 AND DUP7 MSTORE DUP2 ISZERO ISZERO DUP3 MUL DUP7 ADD SWAP4 POP PUSH2 0x1813 JUMP JUMPDEST PUSH2 0x17EA DUP6 PUSH2 0x178A JUMP JUMPDEST PUSH0 JUMPDEST DUP4 DUP2 LT ISZERO PUSH2 0x180B JUMPI DUP2 SLOAD DUP2 DUP10 ADD MSTORE PUSH1 0x1 DUP3 ADD SWAP2 POP PUSH1 0x20 DUP2 ADD SWAP1 POP PUSH2 0x17EC JUMP JUMPDEST DUP4 DUP9 ADD SWAP6 POP POP POP JUMPDEST POP POP POP SWAP3 SWAP2 POP POP JUMP JUMPDEST PUSH0 PUSH2 0x1827 DUP3 DUP5 PUSH2 0x179C JUMP JUMPDEST SWAP2 POP DUP2 SWAP1 POP SWAP3 SWAP2 POP POP JUMP JUMPDEST PUSH0 DUP2 SWAP1 POP DUP2 PUSH0 MSTORE PUSH1 0x20 PUSH0 KECCAK256 SWAP1 POP SWAP2 SWAP1 POP JUMP JUMPDEST PUSH0 PUSH1 0x20 PUSH1 0x1F DUP4 ADD DIV SWAP1 POP SWAP2 SWAP1 POP JUMP JUMPDEST PUSH0 DUP3 DUP3 SHL SWAP1 POP SWAP3 SWAP2 POP POP JUMP JUMPDEST PUSH0 PUSH1 0x8 DUP4 MUL PUSH2 0x188E PUSH32 0xFFFFFFFFFFFFFFFFFFFFFFFFFFFFFFFFFFFFFFFFFFFFFFFFFFFFFFFFFFFFFFFF DUP3 PUSH2 0x1853 JUMP JUMPDEST PUSH2 0x1898 DUP7 DUP4 PUSH2 0x1853 JUMP JUMPDEST SWAP6 POP DUP1 NOT DUP5 AND SWAP4 POP DUP1 DUP7 AND DUP5 OR SWAP3 POP POP POP SWAP4 SWAP3 POP POP POP JUMP JUMPDEST PUSH0 DUP2 SWAP1 POP SWAP2 SWAP1 POP JUMP JUMPDEST PUSH0 PUSH2 0x18D3 PUSH2 0x18CE PUSH2 0x18C9 DUP5 PUSH2 0x1083 JUMP JUMPDEST PUSH2 0x18B0 JUMP JUMPDEST PUSH2 0x1083 JUMP JUMPDEST SWAP1 POP SWAP2 SWAP1 POP JUMP JUMPDEST PUSH0 DUP2 SWAP1 POP SWAP2 SWAP1 POP JUMP JUMPDEST PUSH2 0x18EC DUP4 PUSH2 0x18B9 JUMP JUMPDEST PUSH2 0x1900 PUSH2 0x18F8 DUP3 PUSH2 0x18DA JUMP JUMPDEST DUP5 DUP5 SLOAD PUSH2 0x185F JUMP JUMPDEST DUP3 SSTORE POP POP POP POP JUMP JUMPDEST PUSH0 PUSH0 SWAP1 POP SWAP1 JUMP JUMPDEST PUSH2 0x1917 PUSH2 0x1908 JUMP JUMPDEST PUSH2 0x1922 DUP2 DUP5 DUP5 PUSH2 0x18E3 JUMP JUMPDEST POP POP POP JUMP JUMPDEST JUMPDEST DUP2 DUP2 LT ISZERO PUSH2 0x1945 JUMPI PUSH2 0x193A PUSH0 DUP3 PUSH2 0x190F JUMP JUMPDEST PUSH1 0x1 DUP2 ADD SWAP1 POP PUSH2 0x1928 JUMP JUMPDEST POP POP JUMP JUMPDEST PUSH1 0x1F DUP3 GT ISZERO PUSH2 0x198A JUMPI PUSH2 0x195B DUP2 PUSH2 0x1832 JUMP JUMPDEST PUSH2 0x1964 DUP5 PUSH2 0x1844 JUMP JUMPDEST DUP2 ADD PUSH1 0x20 DUP6 LT ISZERO PUSH2 0x1973 JUMPI DUP2 SWAP1 POP JUMPDEST PUSH2 0x1987 PUSH2 0x197F DUP6 PUSH2 0x1844 JUMP JUMPDEST DUP4 ADD DUP3 PUSH2 0x1927 JUMP JUMPDEST POP POP JUMPDEST POP POP POP JUMP JUMPDEST PUSH0 DUP3 DUP3 SHR SWAP1 POP SWAP3 SWAP2 POP POP JUMP JUMPDEST PUSH0 PUSH2 0x19AA PUSH0 NOT DUP5 PUSH1 0x8 MUL PUSH2 0x198F JUMP JUMPDEST NOT DUP1 DUP4 AND SWAP2 POP POP SWAP3 SWAP2 POP POP JUMP JUMPDEST PUSH0 PUSH2 0x19C2 DUP4 DUP4 PUSH2 0x199B JUMP JUMPDEST SWAP2 POP DUP3 PUSH1 0x2 MUL DUP3 OR SWAP1 POP SWAP3 SWAP2 POP POP JUMP JUMPDEST PUSH2 0x19DB DUP3 PUSH2 0x1162 JUMP JUMPDEST PUSH8 0xFFFFFFFFFFFFFFFF DUP2 GT ISZERO PUSH2 0x19F4 JUMPI PUSH2 0x19F3 PUSH2 0xF18 JUMP JUMPDEST JUMPDEST PUSH2 0x19FE DUP3 SLOAD PUSH2 0x169F JUMP JUMPDEST PUSH2 0x1A09 DUP3 DUP3 DUP6 PUSH2 0x1949 JUMP JUMPDEST PUSH0 PUSH1 0x20 SWAP1 POP PUSH1 0x1F DUP4 GT PUSH1 0x1 DUP2 EQ PUSH2 0x1A3A JUMPI PUSH0 DUP5 ISZERO PUSH2 0x1A28 JUMPI DUP3 DUP8 ADD MLOAD SWAP1 POP JUMPDEST PUSH2 0x1A32 DUP6 DUP3 PUSH2 0x19B7 JUMP JUMPDEST DUP7 SSTORE POP PUSH2 0x1A99 JUMP JUMPDEST PUSH1 0x1F NOT DUP5 AND PUSH2 0x1A48 DUP7 PUSH2 0x1832 JUMP JUMPDEST PUSH0 JUMPDEST DUP3 DUP2 LT ISZERO PUSH2 0x1A6F JUMPI DUP5 DUP10 ADD MLOAD DUP3 SSTORE PUSH1 0x1 DUP3 ADD SWAP2 POP PUSH1 0x20 DUP6 ADD SWAP5 POP PUSH1 0x20 DUP2 ADD SWAP1 POP PUSH2 0x1A4A JUMP JUMPDEST DUP7 DUP4 LT ISZERO PUSH2 0x1A8C JUMPI DUP5 DUP10 ADD MLOAD PUSH2 0x1A88 PUSH1 0x1F DUP10 AND DUP3 PUSH2 0x199B JUMP JUMPDEST DUP4 SSTORE POP JUMPDEST PUSH1 0x1 PUSH1 0x2 DUP9 MUL ADD DUP9 SSTORE POP POP POP JUMPDEST POP POP POP POP POP POP JUMP JUMPDEST PUSH32 0x43757272656E6379206E6F7420737570706F72742E0000000000000000000000 PUSH0 DUP3 ADD MSTORE POP JUMP JUMPDEST PUSH0 PUSH2 0x1AD5 PUSH1 0x15 DUP4 PUSH2 0x1323 JUMP JUMPDEST SWAP2 POP PUSH2 0x1AE0 DUP3 PUSH2 0x1AA1 JUMP JUMPDEST PUSH1 0x20 DUP3 ADD SWAP1 POP SWAP2 SWAP1 POP JUMP JUMPDEST PUSH0 PUSH1 0x20 DUP3 ADD SWAP1 POP DUP2 DUP2 SUB PUSH0 DUP4 ADD MSTORE PUSH2 0x1B02 DUP2 PUSH2 0x1AC9 JUMP JUMPDEST SWAP1 POP SWAP2 SWAP1 POP JUMP JUMPDEST PUSH32 0x4E487B7100000000000000000000000000000000000000000000000000000000 PUSH0 MSTORE PUSH1 0x11 PUSH1 0x4 MSTORE PUSH1 0x24 PUSH0 REVERT JUMPDEST PUSH0 PUSH2 0x1B40 DUP3 PUSH2 0x1083 JUMP JUMPDEST SWAP2 POP PUSH2 0x1B4B DUP4 PUSH2 0x1083 JUMP JUMPDEST SWAP3 POP DUP3 DUP3 MUL PUSH2 0x1B59 DUP2 PUSH2 0x1083 JUMP JUMPDEST SWAP2 POP DUP3 DUP3 DIV DUP5 EQ DUP4 ISZERO OR PUSH2 0x1B70 JUMPI PUSH2 0x1B6F PUSH2 0x1B09 JUMP JUMPDEST JUMPDEST POP SWAP3 SWAP2 POP POP JUMP JUMPDEST PUSH32 0x54697020616D6F756E74206D7573742062652067726561746572207468616E20 PUSH0 DUP3 ADD MSTORE PUSH32 0x7A65726F2E000000000000000000000000000000000000000000000000000000 PUSH1 0x20 DUP3 ADD MSTORE POP JUMP JUMPDEST PUSH0 PUSH2 0x1BD1 PUSH1 0x25 DUP4 PUSH2 0x1323 JUMP JUMPDEST SWAP2 POP PUSH2 0x1BDC DUP3 PUSH2 0x1B77 JUMP JUMPDEST PUSH1 0x40 DUP3 ADD SWAP1 POP SWAP2 SWAP1 POP JUMP JUMPDEST PUSH0 PUSH1 0x20 DUP3 ADD SWAP1 POP DUP2 DUP2 SUB PUSH0 DUP4 ADD MSTORE PUSH2 0x1BFE DUP2 PUSH2 0x1BC5 JUMP JUMPDEST SWAP1 POP SWAP2 SWAP1 POP JUMP JUMPDEST PUSH32 0x53656E742045544820646F65736E2774206D617463682074686520636F6E7665 PUSH0 DUP3 ADD MSTORE PUSH32 0x7274656420616D6F756E742E0000000000000000000000000000000000000000 PUSH1 0x20 DUP3 ADD MSTORE POP JUMP JUMPDEST PUSH0 PUSH2 0x1C5F PUSH1 0x2C DUP4 PUSH2 0x1323 JUMP JUMPDEST SWAP2 POP PUSH2 0x1C6A DUP3 PUSH2 0x1C05 JUMP JUMPDEST PUSH1 0x40 DUP3 ADD SWAP1 POP SWAP2 SWAP1 POP JUMP JUMPDEST PUSH0 PUSH1 0x20 DUP3 ADD SWAP1 POP DUP2 DUP2 SUB PUSH0 DUP4 ADD MSTORE PUSH2 0x1C8C DUP2 PUSH2 0x1C53 JUMP JUMPDEST SWAP1 POP SWAP2 SWAP1 POP JUMP JUMPDEST PUSH0 PUSH2 0x1C9D DUP3 PUSH2 0x1083 JUMP JUMPDEST SWAP2 POP PUSH2 0x1CA8 DUP4 PUSH2 0x1083 JUMP JUMPDEST SWAP3 POP DUP3 DUP3 ADD SWAP1 POP DUP1 DUP3 GT ISZERO PUSH2 0x1CC0 JUMPI PUSH2 0x1CBF PUSH2 0x1B09 JUMP JUMPDEST JUMPDEST SWAP3 SWAP2 POP POP JUMP JUMPDEST PUSH32 0x4554480000000000000000000000000000000000000000000000000000000000 PUSH0 DUP3 ADD MSTORE POP JUMP JUMPDEST PUSH0 PUSH2 0x1CFA PUSH1 0x3 DUP4 PUSH2 0x1552 JUMP JUMPDEST SWAP2 POP PUSH2 0x1D05 DUP3 PUSH2 0x1CC6 JUMP JUMPDEST PUSH1 0x3 DUP3 ADD SWAP1 POP SWAP2 SWAP1 POP JUMP JUMPDEST PUSH0 PUSH2 0x1D1A DUP3 PUSH2 0x1CEE JUMP JUMPDEST SWAP2 POP DUP2 SWAP1 POP SWAP2 SWAP1 POP JUMP INVALID LOG2 PUSH5 0x6970667358 0x22 SLT KECCAK256 CALLDATALOAD BASEFEE SWAP1 SWAP3 SWAPN 0xC5 DUP13 0xBC REVERT CALLDATALOAD 0xC4 SWAP6 JUMPF 0x7F55 0xD8 0x1F SLT DUP6 0xB0 RJUMP 0x9397 0xA9 GT PUSH20 0xC7C20193193564736F6C634300081E0033000000 "
				},
				"gasEstimates": {
					"creation": {
						"codeDepositCost": "1502800",
						"executionCost": "infinite",
						"totalCost": "infinite"
					},
					"external": {
						"addCurrency(string,uint256)": "infinite",
						"conversionRates(string)": "infinite",
						"convertToEth(string,uint256)": "infinite",
						"getContractBalance()": "379",
						"getConversionRate(string)": "infinite",
						"getSupportedCurrencies()": "infinite",
						"getTipPerCurrency(string)": "infinite",
						"getTipperContributions(address)": "2918",
						"getTotalTipsReceived()": "2520",
						"owner()": "2574",
						"ransferOwnerShip(address)": "26939",
						"supportCurrencies(uint256)": "infinite",
						"tipInCurrency(string,uint256)": "infinite",
						"tipInEth()": "infinite",
						"tipperContributions(address)": "2870",
						"tipsPerCurrency(string)": "infinite",
						"totalTipsReceived()": "2535",
						"withDrawTips()": "infinite"
					}
				},
				"methodIdentifiers": {
					"addCurrency(string,uint256)": "5c49c825",
					"conversionRates(string)": "5c41fece",
					"convertToEth(string,uint256)": "6de0938b",
					"getContractBalance()": "6f9fb98a",
					"getConversionRate(string)": "1fac531b",
					"getSupportedCurrencies()": "2ce75863",
					"getTipPerCurrency(string)": "9e5797ec",
					"getTipperContributions(address)": "98c4c713",
					"getTotalTipsReceived()": "e792fe59",
					"owner()": "8da5cb5b",
					"ransferOwnerShip(address)": "264509f6",
					"supportCurrencies(uint256)": "6416ef2d",
					"tipInCurrency(string,uint256)": "9c88e42d",
					"tipInEth()": "b8443702",
					"tipperContributions(address)": "10e1d1d4",
					"tipsPerCurrency(string)": "0d9ba15f",
					"totalTipsReceived()": "efe8c084",
					"withDrawTips()": "0a5a1e9a"
				}
			},
			"storageLayout": {
				"storage": [
					{
						"astId": 3,
						"contract": "submissions/0xFancy/day8.sol:TipJar",
						"label": "owner",
						"offset": 0,
						"slot": "0",
						"type": "t_address"
					},
					{
						"astId": 7,
						"contract": "submissions/0xFancy/day8.sol:TipJar",
						"label": "conversionRates",
						"offset": 0,
						"slot": "1",
						"type": "t_mapping(t_string_memory_ptr,t_uint256)"
					},
					{
						"astId": 10,
						"contract": "submissions/0xFancy/day8.sol:TipJar",
						"label": "supportCurrencies",
						"offset": 0,
						"slot": "2",
						"type": "t_array(t_string_storage)dyn_storage"
					},
					{
						"astId": 12,
						"contract": "submissions/0xFancy/day8.sol:TipJar",
						"label": "totalTipsReceived",
						"offset": 0,
						"slot": "3",
						"type": "t_uint256"
					},
					{
						"astId": 16,
						"contract": "submissions/0xFancy/day8.sol:TipJar",
						"label": "tipperContributions",
						"offset": 0,
						"slot": "4",
						"type": "t_mapping(t_address,t_uint256)"
					},
					{
						"astId": 20,
						"contract": "submissions/0xFancy/day8.sol:TipJar",
						"label": "tipsPerCurrency",
						"offset": 0,
						"slot": "5",
						"type": "t_mapping(t_string_memory_ptr,t_uint256)"
					}
				],
				"types": {
					"t_address": {
						"encoding": "inplace",
						"label": "address",
						"numberOfBytes": "20"
					},
					"t_array(t_string_storage)dyn_storage": {
						"base": "t_string_storage",
						"encoding": "dynamic_array",
						"label": "string[]",
						"numberOfBytes": "32"
					},
					"t_mapping(t_address,t_uint256)": {
						"encoding": "mapping",
						"key": "t_address",
						"label": "mapping(address => uint256)",
						"numberOfBytes": "32",
						"value": "t_uint256"
					},
					"t_mapping(t_string_memory_ptr,t_uint256)": {
						"encoding": "mapping",
						"key": "t_string_memory_ptr",
						"label": "mapping(string => uint256)",
						"numberOfBytes": "32",
						"value": "t_uint256"
					},
					"t_string_memory_ptr": {
						"encoding": "bytes",
						"label": "string",
						"numberOfBytes": "32"
					},
					"t_string_storage": {
						"encoding": "bytes",
						"label": "string",
						"numberOfBytes": "32"
					},
					"t_uint256": {
						"encoding": "inplace",
						"label": "uint256",
						"numberOfBytes": "32"
					}
				}
			},
			"userdoc": {
				"kind": "user",
				"methods": {},
				"version": 1
			}
		}
	}
}