{
	"submissions/Vera/day6.sol": {
		"SavingGroup": {
			"abi": [
				{
					"inputs": [],
					"stateMutability": "nonpayable",
					"type": "constructor"
				},
				{
					"inputs": [
						{
							"internalType": "address",
							"name": "_member",
							"type": "address"
						}
					],
					"name": "addMembers",
					"outputs": [],
					"stateMutability": "nonpayable",
					"type": "function"
				},
				{
					"inputs": [],
					"name": "bankManager",
					"outputs": [
						{
							"internalType": "address",
							"name": "",
							"type": "address"
						}
					],
					"stateMutability": "view",
					"type": "function"
				},
				{
					"inputs": [],
					"name": "deposit",
					"outputs": [],
					"stateMutability": "payable",
					"type": "function"
				},
				{
					"inputs": [],
					"name": "getBalanceDetail",
					"outputs": [
						{
							"internalType": "uint256",
							"name": "",
							"type": "uint256"
						}
					],
					"stateMutability": "view",
					"type": "function"
				},
				{
					"inputs": [],
					"name": "getMembers",
					"outputs": [
						{
							"internalType": "address[]",
							"name": "",
							"type": "address[]"
						}
					],
					"stateMutability": "view",
					"type": "function"
				},
				{
					"inputs": [
						{
							"internalType": "uint256",
							"name": "",
							"type": "uint256"
						}
					],
					"name": "members",
					"outputs": [
						{
							"internalType": "address",
							"name": "",
							"type": "address"
						}
					],
					"stateMutability": "view",
					"type": "function"
				},
				{
					"inputs": [
						{
							"internalType": "address",
							"name": "",
							"type": "address"
						}
					],
					"name": "registeredMembers",
					"outputs": [
						{
							"internalType": "bool",
							"name": "",
							"type": "bool"
						}
					],
					"stateMutability": "view",
					"type": "function"
				},
				{
					"inputs": [
						{
							"internalType": "uint256",
							"name": "_amount",
							"type": "uint256"
						}
					],
					"name": "withdraw",
					"outputs": [],
					"stateMutability": "nonpayable",
					"type": "function"
				}
			],
			"devdoc": {
				"kind": "dev",
				"methods": {},
				"version": 1
			},
			"evm": {
				"assembly": "    /* \"submissions/Vera/day6.sol\":62:2611  contract SavingGroup{... */\n  mstore(0x40, 0x80)\n    /* \"submissions/Vera/day6.sol\":400:403  300 */\n  0x012c\n    /* \"submissions/Vera/day6.sol\":384:403  uint256 timer = 300 */\n  0x05\n  sstore\n    /* \"submissions/Vera/day6.sol\":412:634  constructor(){... */\n  callvalue\n  dup1\n  iszero\n  tag_1\n  jumpi\n  revert(0x00, 0x00)\ntag_1:\n  pop\n    /* \"submissions/Vera/day6.sol\":450:460  msg.sender */\n  caller\n    /* \"submissions/Vera/day6.sol\":436:447  bankManager */\n  0x00\n  0x00\n    /* \"submissions/Vera/day6.sol\":436:460  bankManager = msg.sender */\n  0x0100\n  exp\n  dup2\n  sload\n  dup2\n  0xffffffffffffffffffffffffffffffffffffffff\n  mul\n  not\n  and\n  swap1\n  dup4\n  0xffffffffffffffffffffffffffffffffffffffff\n  and\n  mul\n  or\n  swap1\n  sstore\n  pop\n    /* \"submissions/Vera/day6.sol\":503:507  true */\n  0x01\n    /* \"submissions/Vera/day6.sol\":471:488  registeredMembers */\n  0x02\n    /* \"submissions/Vera/day6.sol\":471:500  registeredMembers[msg.sender] */\n  0x00\n    /* \"submissions/Vera/day6.sol\":489:499  msg.sender */\n  caller\n    /* \"submissions/Vera/day6.sol\":471:500  registeredMembers[msg.sender] */\n  0xffffffffffffffffffffffffffffffffffffffff\n  and\n  0xffffffffffffffffffffffffffffffffffffffff\n  and\n  dup2\n  mstore\n  0x20\n  add\n  swap1\n  dup2\n  mstore\n  0x20\n  add\n  0x00\n  keccak256\n  0x00\n    /* \"submissions/Vera/day6.sol\":471:507  registeredMembers[msg.sender] = true */\n  0x0100\n  exp\n  dup2\n  sload\n  dup2\n  0xff\n  mul\n  not\n  and\n  swap1\n  dup4\n  iszero\n  iszero\n  mul\n  or\n  swap1\n  sstore\n  pop\n    /* \"submissions/Vera/day6.sol\":576:591  block.timestamp */\n  timestamp\n    /* \"submissions/Vera/day6.sol\":548:561  withdrawTimer */\n  0x04\n    /* \"submissions/Vera/day6.sol\":548:573  withdrawTimer[msg.sender] */\n  0x00\n    /* \"submissions/Vera/day6.sol\":562:572  msg.sender */\n  caller\n    /* \"submissions/Vera/day6.sol\":548:573  withdrawTimer[msg.sender] */\n  0xffffffffffffffffffffffffffffffffffffffff\n  and\n  0xffffffffffffffffffffffffffffffffffffffff\n  and\n  dup2\n  mstore\n  0x20\n  add\n  swap1\n  dup2\n  mstore\n  0x20\n  add\n  0x00\n  keccak256\n    /* \"submissions/Vera/day6.sol\":548:591  withdrawTimer[msg.sender] = block.timestamp */\n  dup2\n  swap1\n  sstore\n  pop\n    /* \"submissions/Vera/day6.sol\":602:609  members */\n  0x01\n    /* \"submissions/Vera/day6.sol\":615:625  msg.sender */\n  caller\n    /* \"submissions/Vera/day6.sol\":602:626  members.push(msg.sender) */\n  swap1\n  dup1\n  0x01\n  dup2\n  sload\n  add\n  dup1\n  dup3\n  sstore\n  dup1\n  swap2\n  pop\n  pop\n  0x01\n  swap1\n  sub\n  swap1\n  0x00\n  mstore\n  keccak256(0x00, 0x20)\n  add\n  0x00\n  swap1\n  swap2\n  swap1\n  swap2\n  swap1\n  swap2\n  0x0100\n  exp\n  dup2\n  sload\n  dup2\n  0xffffffffffffffffffffffffffffffffffffffff\n  mul\n  not\n  and\n  swap1\n  dup4\n  0xffffffffffffffffffffffffffffffffffffffff\n  and\n  mul\n  or\n  swap1\n  sstore\n  pop\n    /* \"submissions/Vera/day6.sol\":62:2611  contract SavingGroup{... */\n  dataSize(sub_0)\n  dup1\n  dataOffset(sub_0)\n  0x00\n  codecopy\n  0x00\n  return\nstop\n\nsub_0: assembly {\n        /* \"submissions/Vera/day6.sol\":62:2611  contract SavingGroup{... */\n      mstore(0x40, 0x80)\n      jumpi(tag_1, lt(calldatasize, 0x04))\n      shr(0xe0, calldataload(0x00))\n      dup1\n      0x939f284c\n      gt\n      tag_10\n      jumpi\n      dup1\n      0x939f284c\n      eq\n      tag_6\n      jumpi\n      dup1\n      0x9eab5253\n      eq\n      tag_7\n      jumpi\n      dup1\n      0xd0e30db0\n      eq\n      tag_8\n      jumpi\n      dup1\n      0xe9e2990e\n      eq\n      tag_9\n      jumpi\n      jump(tag_1)\n    tag_10:\n      dup1\n      0x2e1a7d4d\n      eq\n      tag_2\n      jumpi\n      dup1\n      0x5daf08ca\n      eq\n      tag_3\n      jumpi\n      dup1\n      0x7254647a\n      eq\n      tag_4\n      jumpi\n      dup1\n      0x8e49c52c\n      eq\n      tag_5\n      jumpi\n    tag_1:\n      revert(0x00, 0x00)\n        /* \"submissions/Vera/day6.sol\":1737:2604  function withdraw(uint256 _amount)public onlyRegisteredMember{... */\n    tag_2:\n      callvalue\n      dup1\n      iszero\n      tag_11\n      jumpi\n      revert(0x00, 0x00)\n    tag_11:\n      pop\n      tag_12\n      0x04\n      dup1\n      calldatasize\n      sub\n      dup2\n      add\n      swap1\n      tag_13\n      swap2\n      swap1\n      tag_14\n      jump\t// in\n    tag_13:\n      tag_15\n      jump\t// in\n    tag_12:\n      stop\n        /* \"submissions/Vera/day6.sol\":122:146  address[] public members */\n    tag_3:\n      callvalue\n      dup1\n      iszero\n      tag_16\n      jumpi\n      revert(0x00, 0x00)\n    tag_16:\n      pop\n      tag_17\n      0x04\n      dup1\n      calldatasize\n      sub\n      dup2\n      add\n      swap1\n      tag_18\n      swap2\n      swap1\n      tag_14\n      jump\t// in\n    tag_18:\n      tag_19\n      jump\t// in\n    tag_17:\n      mload(0x40)\n      tag_20\n      swap2\n      swap1\n      tag_21\n      jump\t// in\n    tag_20:\n      mload(0x40)\n      dup1\n      swap2\n      sub\n      swap1\n      return\n        /* \"submissions/Vera/day6.sol\":153:203  mapping (address => bool) public registeredMembers */\n    tag_4:\n      callvalue\n      dup1\n      iszero\n      tag_22\n      jumpi\n      revert(0x00, 0x00)\n    tag_22:\n      pop\n      tag_23\n      0x04\n      dup1\n      calldatasize\n      sub\n      dup2\n      add\n      swap1\n      tag_24\n      swap2\n      swap1\n      tag_25\n      jump\t// in\n    tag_24:\n      tag_26\n      jump\t// in\n    tag_23:\n      mload(0x40)\n      tag_27\n      swap2\n      swap1\n      tag_28\n      jump\t// in\n    tag_27:\n      mload(0x40)\n      dup1\n      swap2\n      sub\n      swap1\n      return\n        /* \"submissions/Vera/day6.sol\":1552:1673  function getBalanceDetail()public view onlyRegisteredMember returns(uint256){... */\n    tag_5:\n      callvalue\n      dup1\n      iszero\n      tag_29\n      jumpi\n      revert(0x00, 0x00)\n    tag_29:\n      pop\n      tag_30\n      tag_31\n      jump\t// in\n    tag_30:\n      mload(0x40)\n      tag_32\n      swap2\n      swap1\n      tag_33\n      jump\t// in\n    tag_32:\n      mload(0x40)\n      dup1\n      swap2\n      sub\n      swap1\n      return\n        /* \"submissions/Vera/day6.sol\":917:1285  function addMembers(address _member) public OnlyBankManager{... */\n    tag_6:\n      callvalue\n      dup1\n      iszero\n      tag_34\n      jumpi\n      revert(0x00, 0x00)\n    tag_34:\n      pop\n      tag_35\n      0x04\n      dup1\n      calldatasize\n      sub\n      dup2\n      add\n      swap1\n      tag_36\n      swap2\n      swap1\n      tag_25\n      jump\t// in\n    tag_36:\n      tag_37\n      jump\t// in\n    tag_35:\n      stop\n        /* \"submissions/Vera/day6.sol\":1293:1385  function getMembers() public view returns(address[] memory){... */\n    tag_7:\n      callvalue\n      dup1\n      iszero\n      tag_38\n      jumpi\n      revert(0x00, 0x00)\n    tag_38:\n      pop\n      tag_39\n      tag_40\n      jump\t// in\n    tag_39:\n      mload(0x40)\n      tag_41\n      swap2\n      swap1\n      tag_42\n      jump\t// in\n    tag_41:\n      mload(0x40)\n      dup1\n      swap2\n      sub\n      swap1\n      return\n        /* \"submissions/Vera/day6.sol\":1393:1544  function deposit() public payable onlyRegisteredMember{... */\n    tag_8:\n      tag_43\n      tag_44\n      jump\t// in\n    tag_43:\n      stop\n        /* \"submissions/Vera/day6.sol\":89:115  address public bankManager */\n    tag_9:\n      callvalue\n      dup1\n      iszero\n      tag_45\n      jumpi\n      revert(0x00, 0x00)\n    tag_45:\n      pop\n      tag_46\n      tag_47\n      jump\t// in\n    tag_46:\n      mload(0x40)\n      tag_48\n      swap2\n      swap1\n      tag_21\n      jump\t// in\n    tag_48:\n      mload(0x40)\n      dup1\n      swap2\n      sub\n      swap1\n      return\n        /* \"submissions/Vera/day6.sol\":1737:2604  function withdraw(uint256 _amount)public onlyRegisteredMember{... */\n    tag_15:\n        /* \"submissions/Vera/day6.sol\":835:852  registeredMembers */\n      0x02\n        /* \"submissions/Vera/day6.sol\":835:864  registeredMembers[msg.sender] */\n      0x00\n        /* \"submissions/Vera/day6.sol\":853:863  msg.sender */\n      caller\n        /* \"submissions/Vera/day6.sol\":835:864  registeredMembers[msg.sender] */\n      0xffffffffffffffffffffffffffffffffffffffff\n      and\n      0xffffffffffffffffffffffffffffffffffffffff\n      and\n      dup2\n      mstore\n      0x20\n      add\n      swap1\n      dup2\n      mstore\n      0x20\n      add\n      0x00\n      keccak256\n      0x00\n      swap1\n      sload\n      swap1\n      0x0100\n      exp\n      swap1\n      div\n      0xff\n      and\n        /* \"submissions/Vera/day6.sol\":827:889  require(registeredMembers[msg.sender],\"Member not registered\") */\n      tag_50\n      jumpi\n      mload(0x40)\n      0x08c379a000000000000000000000000000000000000000000000000000000000\n      dup2\n      mstore\n      0x04\n      add\n      tag_51\n      swap1\n      tag_52\n      jump\t// in\n    tag_51:\n      mload(0x40)\n      dup1\n      swap2\n      sub\n      swap1\n      revert\n    tag_50:\n        /* \"submissions/Vera/day6.sol\":1827:1828  0 */\n      0x00\n        /* \"submissions/Vera/day6.sol\":1817:1824  _amount */\n      dup2\n        /* \"submissions/Vera/day6.sol\":1817:1828  _amount > 0 */\n      gt\n        /* \"submissions/Vera/day6.sol\":1809:1873  require(_amount > 0, \"Withdrawal amount must be greater than 0\") */\n      tag_54\n      jumpi\n      mload(0x40)\n      0x08c379a000000000000000000000000000000000000000000000000000000000\n      dup2\n      mstore\n      0x04\n      add\n      tag_55\n      swap1\n      tag_56\n      jump\t// in\n    tag_55:\n      mload(0x40)\n      dup1\n      swap2\n      sub\n      swap1\n      revert\n    tag_54:\n        /* \"submissions/Vera/day6.sol\":1903:1910  balance */\n      0x03\n        /* \"submissions/Vera/day6.sol\":1903:1922  balance[msg.sender] */\n      0x00\n        /* \"submissions/Vera/day6.sol\":1911:1921  msg.sender */\n      caller\n        /* \"submissions/Vera/day6.sol\":1903:1922  balance[msg.sender] */\n      0xffffffffffffffffffffffffffffffffffffffff\n      and\n      0xffffffffffffffffffffffffffffffffffffffff\n      and\n      dup2\n      mstore\n      0x20\n      add\n      swap1\n      dup2\n      mstore\n      0x20\n      add\n      0x00\n      keccak256\n      sload\n        /* \"submissions/Vera/day6.sol\":1892:1899  _amount */\n      dup2\n        /* \"submissions/Vera/day6.sol\":1892:1922  _amount <= balance[msg.sender] */\n      gt\n      iszero\n        /* \"submissions/Vera/day6.sol\":1884:1962  require(_amount <= balance[msg.sender], \"Insufficient balance for withdrawal\") */\n      tag_57\n      jumpi\n      mload(0x40)\n      0x08c379a000000000000000000000000000000000000000000000000000000000\n      dup2\n      mstore\n      0x04\n      add\n      tag_58\n      swap1\n      tag_59\n      jump\t// in\n    tag_58:\n      mload(0x40)\n      dup1\n      swap2\n      sub\n      swap1\n      revert\n    tag_57:\n        /* \"submissions/Vera/day6.sol\":1997:2010  withdrawTimer */\n      0x04\n        /* \"submissions/Vera/day6.sol\":1997:2022  withdrawTimer[msg.sender] */\n      0x00\n        /* \"submissions/Vera/day6.sol\":2011:2021  msg.sender */\n      caller\n        /* \"submissions/Vera/day6.sol\":1997:2022  withdrawTimer[msg.sender] */\n      0xffffffffffffffffffffffffffffffffffffffff\n      and\n      0xffffffffffffffffffffffffffffffffffffffff\n      and\n      dup2\n      mstore\n      0x20\n      add\n      swap1\n      dup2\n      mstore\n      0x20\n      add\n      0x00\n      keccak256\n      sload\n        /* \"submissions/Vera/day6.sol\":1981:1996  block.timestamp */\n      timestamp\n        /* \"submissions/Vera/day6.sol\":1981:2022  block.timestamp>withdrawTimer[msg.sender] */\n      gt\n        /* \"submissions/Vera/day6.sol\":1973:2060  require(block.timestamp>withdrawTimer[msg.sender], \"5-minute wait between withdrawals\") */\n      tag_60\n      jumpi\n      mload(0x40)\n      0x08c379a000000000000000000000000000000000000000000000000000000000\n      dup2\n      mstore\n      0x04\n      add\n      tag_61\n      swap1\n      tag_62\n      jump\t// in\n    tag_61:\n      mload(0x40)\n      dup1\n      swap2\n      sub\n      swap1\n      revert\n    tag_60:\n        /* \"submissions/Vera/day6.sol\":2094:2101  _amount */\n      dup1\n        /* \"submissions/Vera/day6.sol\":2073:2080  balance */\n      0x03\n        /* \"submissions/Vera/day6.sol\":2073:2092  balance[msg.sender] */\n      0x00\n        /* \"submissions/Vera/day6.sol\":2081:2091  msg.sender */\n      caller\n        /* \"submissions/Vera/day6.sol\":2073:2092  balance[msg.sender] */\n      0xffffffffffffffffffffffffffffffffffffffff\n      and\n      0xffffffffffffffffffffffffffffffffffffffff\n      and\n      dup2\n      mstore\n      0x20\n      add\n      swap1\n      dup2\n      mstore\n      0x20\n      add\n      0x00\n      keccak256\n      0x00\n        /* \"submissions/Vera/day6.sol\":2073:2101  balance[msg.sender]-=_amount */\n      dup3\n      dup3\n      sload\n      tag_63\n      swap2\n      swap1\n      tag_64\n      jump\t// in\n    tag_63:\n      swap3\n      pop\n      pop\n      dup2\n      swap1\n      sstore\n      pop\n        /* \"submissions/Vera/day6.sol\":2509:2519  msg.sender */\n      caller\n        /* \"submissions/Vera/day6.sol\":2500:2529  payable (msg.sender).transfer */\n      0xffffffffffffffffffffffffffffffffffffffff\n      and\n        /* \"submissions/Vera/day6.sol\":2500:2538  payable (msg.sender).transfer(_amount) */\n      0x08fc\n        /* \"submissions/Vera/day6.sol\":2530:2537  _amount */\n      dup3\n        /* \"submissions/Vera/day6.sol\":2500:2538  payable (msg.sender).transfer(_amount) */\n      swap1\n      dup2\n      iszero\n      mul\n      swap1\n      mload(0x40)\n      0x00\n      mload(0x40)\n      dup1\n      dup4\n      sub\n      dup2\n      dup6\n      dup9\n      dup9\n      call\n      swap4\n      pop\n      pop\n      pop\n      pop\n      iszero\n      dup1\n      iszero\n      tag_66\n      jumpi\n      returndatacopy(0x00, 0x00, returndatasize)\n      revert(0x00, returndatasize)\n    tag_66:\n      pop\n        /* \"submissions/Vera/day6.sol\":2591:2596  timer */\n      sload(0x05)\n        /* \"submissions/Vera/day6.sol\":2575:2590  block.timestamp */\n      timestamp\n        /* \"submissions/Vera/day6.sol\":2575:2596  block.timestamp+timer */\n      tag_67\n      swap2\n      swap1\n      tag_68\n      jump\t// in\n    tag_67:\n        /* \"submissions/Vera/day6.sol\":2549:2562  withdrawTimer */\n      0x04\n        /* \"submissions/Vera/day6.sol\":2549:2574  withdrawTimer[msg.sender] */\n      0x00\n        /* \"submissions/Vera/day6.sol\":2563:2573  msg.sender */\n      caller\n        /* \"submissions/Vera/day6.sol\":2549:2574  withdrawTimer[msg.sender] */\n      0xffffffffffffffffffffffffffffffffffffffff\n      and\n      0xffffffffffffffffffffffffffffffffffffffff\n      and\n      dup2\n      mstore\n      0x20\n      add\n      swap1\n      dup2\n      mstore\n      0x20\n      add\n      0x00\n      keccak256\n        /* \"submissions/Vera/day6.sol\":2549:2596  withdrawTimer[msg.sender]=block.timestamp+timer */\n      dup2\n      swap1\n      sstore\n      pop\n        /* \"submissions/Vera/day6.sol\":1737:2604  function withdraw(uint256 _amount)public onlyRegisteredMember{... */\n      pop\n      jump\t// out\n        /* \"submissions/Vera/day6.sol\":122:146  address[] public members */\n    tag_19:\n      0x01\n      dup2\n      dup2\n      sload\n      dup2\n      lt\n      tag_69\n      jumpi\n      0x00\n      dup1\n      revert\n    tag_69:\n      swap1\n      0x00\n      mstore\n      keccak256(0x00, 0x20)\n      add\n      0x00\n      swap2\n      pop\n      sload\n      swap1\n      0x0100\n      exp\n      swap1\n      div\n      0xffffffffffffffffffffffffffffffffffffffff\n      and\n      dup2\n      jump\t// out\n        /* \"submissions/Vera/day6.sol\":153:203  mapping (address => bool) public registeredMembers */\n    tag_26:\n      mstore(0x20, 0x02)\n      dup1\n      0x00\n      mstore\n      keccak256(0x00, 0x40)\n      0x00\n      swap2\n      pop\n      sload\n      swap1\n      0x0100\n      exp\n      swap1\n      div\n      0xff\n      and\n      dup2\n      jump\t// out\n        /* \"submissions/Vera/day6.sol\":1552:1673  function getBalanceDetail()public view onlyRegisteredMember returns(uint256){... */\n    tag_31:\n        /* \"submissions/Vera/day6.sol\":1620:1627  uint256 */\n      0x00\n        /* \"submissions/Vera/day6.sol\":835:852  registeredMembers */\n      0x02\n        /* \"submissions/Vera/day6.sol\":835:864  registeredMembers[msg.sender] */\n      0x00\n        /* \"submissions/Vera/day6.sol\":853:863  msg.sender */\n      caller\n        /* \"submissions/Vera/day6.sol\":835:864  registeredMembers[msg.sender] */\n      0xffffffffffffffffffffffffffffffffffffffff\n      and\n      0xffffffffffffffffffffffffffffffffffffffff\n      and\n      dup2\n      mstore\n      0x20\n      add\n      swap1\n      dup2\n      mstore\n      0x20\n      add\n      0x00\n      keccak256\n      0x00\n      swap1\n      sload\n      swap1\n      0x0100\n      exp\n      swap1\n      div\n      0xff\n      and\n        /* \"submissions/Vera/day6.sol\":827:889  require(registeredMembers[msg.sender],\"Member not registered\") */\n      tag_72\n      jumpi\n      mload(0x40)\n      0x08c379a000000000000000000000000000000000000000000000000000000000\n      dup2\n      mstore\n      0x04\n      add\n      tag_73\n      swap1\n      tag_52\n      jump\t// in\n    tag_73:\n      mload(0x40)\n      dup1\n      swap2\n      sub\n      swap1\n      revert\n    tag_72:\n        /* \"submissions/Vera/day6.sol\":1646:1653  balance */\n      0x03\n        /* \"submissions/Vera/day6.sol\":1646:1665  balance[msg.sender] */\n      0x00\n        /* \"submissions/Vera/day6.sol\":1654:1664  msg.sender */\n      caller\n        /* \"submissions/Vera/day6.sol\":1646:1665  balance[msg.sender] */\n      0xffffffffffffffffffffffffffffffffffffffff\n      and\n      0xffffffffffffffffffffffffffffffffffffffff\n      and\n      dup2\n      mstore\n      0x20\n      add\n      swap1\n      dup2\n      mstore\n      0x20\n      add\n      0x00\n      keccak256\n      sload\n        /* \"submissions/Vera/day6.sol\":1639:1665  return balance[msg.sender] */\n      swap1\n      pop\n        /* \"submissions/Vera/day6.sol\":1552:1673  function getBalanceDetail()public view onlyRegisteredMember returns(uint256){... */\n      swap1\n      jump\t// out\n        /* \"submissions/Vera/day6.sol\":917:1285  function addMembers(address _member) public OnlyBankManager{... */\n    tag_37:\n        /* \"submissions/Vera/day6.sol\":701:712  bankManager */\n      0x00\n      0x00\n      swap1\n      sload\n      swap1\n      0x0100\n      exp\n      swap1\n      div\n      0xffffffffffffffffffffffffffffffffffffffff\n      and\n        /* \"submissions/Vera/day6.sol\":687:712  msg.sender == bankManager */\n      0xffffffffffffffffffffffffffffffffffffffff\n      and\n        /* \"submissions/Vera/day6.sol\":687:697  msg.sender */\n      caller\n        /* \"submissions/Vera/day6.sol\":687:712  msg.sender == bankManager */\n      0xffffffffffffffffffffffffffffffffffffffff\n      and\n      eq\n        /* \"submissions/Vera/day6.sol\":679:757  require(msg.sender == bankManager,\"Only bank manager can perform this action\") */\n      tag_76\n      jumpi\n      mload(0x40)\n      0x08c379a000000000000000000000000000000000000000000000000000000000\n      dup2\n      mstore\n      0x04\n      add\n      tag_77\n      swap1\n      tag_78\n      jump\t// in\n    tag_77:\n      mload(0x40)\n      dup1\n      swap2\n      sub\n      swap1\n      revert\n    tag_76:\n        /* \"submissions/Vera/day6.sol\":1014:1015  0 */\n      0x00\n        /* \"submissions/Vera/day6.sol\":995:1016  _member != address(0) */\n      0xffffffffffffffffffffffffffffffffffffffff\n      and\n        /* \"submissions/Vera/day6.sol\":995:1002  _member */\n      dup2\n        /* \"submissions/Vera/day6.sol\":995:1016  _member != address(0) */\n      0xffffffffffffffffffffffffffffffffffffffff\n      and\n      sub\n        /* \"submissions/Vera/day6.sol\":987:1035  require(_member != address(0),\"Invalid address\") */\n      tag_80\n      jumpi\n      mload(0x40)\n      0x08c379a000000000000000000000000000000000000000000000000000000000\n      dup2\n      mstore\n      0x04\n      add\n      tag_81\n      swap1\n      tag_82\n      jump\t// in\n    tag_81:\n      mload(0x40)\n      dup1\n      swap2\n      sub\n      swap1\n      revert\n    tag_80:\n        /* \"submissions/Vera/day6.sol\":1055:1072  registeredMembers */\n      0x02\n        /* \"submissions/Vera/day6.sol\":1055:1081  registeredMembers[_member] */\n      0x00\n        /* \"submissions/Vera/day6.sol\":1073:1080  _member */\n      dup3\n        /* \"submissions/Vera/day6.sol\":1055:1081  registeredMembers[_member] */\n      0xffffffffffffffffffffffffffffffffffffffff\n      and\n      0xffffffffffffffffffffffffffffffffffffffff\n      and\n      dup2\n      mstore\n      0x20\n      add\n      swap1\n      dup2\n      mstore\n      0x20\n      add\n      0x00\n      keccak256\n      0x00\n      swap1\n      sload\n      swap1\n      0x0100\n      exp\n      swap1\n      div\n      0xff\n      and\n        /* \"submissions/Vera/day6.sol\":1054:1081  !registeredMembers[_member] */\n      iszero\n        /* \"submissions/Vera/day6.sol\":1046:1118  require(!registeredMembers[_member],\"This member is already registered\") */\n      tag_83\n      jumpi\n      mload(0x40)\n      0x08c379a000000000000000000000000000000000000000000000000000000000\n      dup2\n      mstore\n      0x04\n      add\n      tag_84\n      swap1\n      tag_85\n      jump\t// in\n    tag_84:\n      mload(0x40)\n      dup1\n      swap2\n      sub\n      swap1\n      revert\n    tag_83:\n        /* \"submissions/Vera/day6.sol\":1160:1164  true */\n      0x01\n        /* \"submissions/Vera/day6.sol\":1131:1148  registeredMembers */\n      0x02\n        /* \"submissions/Vera/day6.sol\":1131:1157  registeredMembers[_member] */\n      0x00\n        /* \"submissions/Vera/day6.sol\":1149:1156  _member */\n      dup4\n        /* \"submissions/Vera/day6.sol\":1131:1157  registeredMembers[_member] */\n      0xffffffffffffffffffffffffffffffffffffffff\n      and\n      0xffffffffffffffffffffffffffffffffffffffff\n      and\n      dup2\n      mstore\n      0x20\n      add\n      swap1\n      dup2\n      mstore\n      0x20\n      add\n      0x00\n      keccak256\n      0x00\n        /* \"submissions/Vera/day6.sol\":1131:1164  registeredMembers[_member] = true */\n      0x0100\n      exp\n      dup2\n      sload\n      dup2\n      0xff\n      mul\n      not\n      and\n      swap1\n      dup4\n      iszero\n      iszero\n      mul\n      or\n      swap1\n      sstore\n      pop\n        /* \"submissions/Vera/day6.sol\":1230:1245  block.timestamp */\n      timestamp\n        /* \"submissions/Vera/day6.sol\":1205:1218  withdrawTimer */\n      0x04\n        /* \"submissions/Vera/day6.sol\":1205:1227  withdrawTimer[_member] */\n      0x00\n        /* \"submissions/Vera/day6.sol\":1219:1226  _member */\n      dup4\n        /* \"submissions/Vera/day6.sol\":1205:1227  withdrawTimer[_member] */\n      0xffffffffffffffffffffffffffffffffffffffff\n      and\n      0xffffffffffffffffffffffffffffffffffffffff\n      and\n      dup2\n      mstore\n      0x20\n      add\n      swap1\n      dup2\n      mstore\n      0x20\n      add\n      0x00\n      keccak256\n        /* \"submissions/Vera/day6.sol\":1205:1245  withdrawTimer[_member] = block.timestamp */\n      dup2\n      swap1\n      sstore\n      pop\n        /* \"submissions/Vera/day6.sol\":1256:1263  members */\n      0x01\n        /* \"submissions/Vera/day6.sol\":1269:1276  _member */\n      dup2\n        /* \"submissions/Vera/day6.sol\":1256:1277  members.push(_member) */\n      swap1\n      dup1\n      0x01\n      dup2\n      sload\n      add\n      dup1\n      dup3\n      sstore\n      dup1\n      swap2\n      pop\n      pop\n      0x01\n      swap1\n      sub\n      swap1\n      0x00\n      mstore\n      keccak256(0x00, 0x20)\n      add\n      0x00\n      swap1\n      swap2\n      swap1\n      swap2\n      swap1\n      swap2\n      0x0100\n      exp\n      dup2\n      sload\n      dup2\n      0xffffffffffffffffffffffffffffffffffffffff\n      mul\n      not\n      and\n      swap1\n      dup4\n      0xffffffffffffffffffffffffffffffffffffffff\n      and\n      mul\n      or\n      swap1\n      sstore\n      pop\n        /* \"submissions/Vera/day6.sol\":917:1285  function addMembers(address _member) public OnlyBankManager{... */\n      pop\n      jump\t// out\n        /* \"submissions/Vera/day6.sol\":1293:1385  function getMembers() public view returns(address[] memory){... */\n    tag_40:\n        /* \"submissions/Vera/day6.sol\":1335:1351  address[] memory */\n      0x60\n        /* \"submissions/Vera/day6.sol\":1370:1377  members */\n      0x01\n        /* \"submissions/Vera/day6.sol\":1363:1377  return members */\n      dup1\n      sload\n      dup1\n      0x20\n      mul\n      0x20\n      add\n      mload(0x40)\n      swap1\n      dup2\n      add\n      0x40\n      mstore\n      dup1\n      swap3\n      swap2\n      swap1\n      dup2\n      dup2\n      mstore\n      0x20\n      add\n      dup3\n      dup1\n      sload\n      dup1\n      iszero\n      tag_88\n      jumpi\n      0x20\n      mul\n      dup3\n      add\n      swap2\n      swap1\n      0x00\n      mstore\n      keccak256(0x00, 0x20)\n      swap1\n    tag_89:\n      dup2\n      0x00\n      swap1\n      sload\n      swap1\n      0x0100\n      exp\n      swap1\n      div\n      0xffffffffffffffffffffffffffffffffffffffff\n      and\n      0xffffffffffffffffffffffffffffffffffffffff\n      and\n      dup2\n      mstore\n      0x20\n      add\n      swap1\n      0x01\n      add\n      swap1\n      dup1\n      dup4\n      gt\n      tag_89\n      jumpi\n    tag_88:\n      pop\n      pop\n      pop\n      pop\n      pop\n      swap1\n      pop\n        /* \"submissions/Vera/day6.sol\":1293:1385  function getMembers() public view returns(address[] memory){... */\n      swap1\n      jump\t// out\n        /* \"submissions/Vera/day6.sol\":1393:1544  function deposit() public payable onlyRegisteredMember{... */\n    tag_44:\n        /* \"submissions/Vera/day6.sol\":835:852  registeredMembers */\n      0x02\n        /* \"submissions/Vera/day6.sol\":835:864  registeredMembers[msg.sender] */\n      0x00\n        /* \"submissions/Vera/day6.sol\":853:863  msg.sender */\n      caller\n        /* \"submissions/Vera/day6.sol\":835:864  registeredMembers[msg.sender] */\n      0xffffffffffffffffffffffffffffffffffffffff\n      and\n      0xffffffffffffffffffffffffffffffffffffffff\n      and\n      dup2\n      mstore\n      0x20\n      add\n      swap1\n      dup2\n      mstore\n      0x20\n      add\n      0x00\n      keccak256\n      0x00\n      swap1\n      sload\n      swap1\n      0x0100\n      exp\n      swap1\n      div\n      0xff\n      and\n        /* \"submissions/Vera/day6.sol\":827:889  require(registeredMembers[msg.sender],\"Member not registered\") */\n      tag_91\n      jumpi\n      mload(0x40)\n      0x08c379a000000000000000000000000000000000000000000000000000000000\n      dup2\n      mstore\n      0x04\n      add\n      tag_92\n      swap1\n      tag_52\n      jump\t// in\n    tag_92:\n      mload(0x40)\n      dup1\n      swap2\n      sub\n      swap1\n      revert\n    tag_91:\n        /* \"submissions/Vera/day6.sol\":1476:1477  0 */\n      0x00\n        /* \"submissions/Vera/day6.sol\":1466:1475  msg.value */\n      callvalue\n        /* \"submissions/Vera/day6.sol\":1466:1477  msg.value>0 */\n      gt\n        /* \"submissions/Vera/day6.sol\":1458:1495  require(msg.value>0,\"Invalid amount\") */\n      tag_94\n      jumpi\n      mload(0x40)\n      0x08c379a000000000000000000000000000000000000000000000000000000000\n      dup2\n      mstore\n      0x04\n      add\n      tag_95\n      swap1\n      tag_96\n      jump\t// in\n    tag_95:\n      mload(0x40)\n      dup1\n      swap2\n      sub\n      swap1\n      revert\n    tag_94:\n        /* \"submissions/Vera/day6.sol\":1527:1536  msg.value */\n      callvalue\n        /* \"submissions/Vera/day6.sol\":1506:1513  balance */\n      0x03\n        /* \"submissions/Vera/day6.sol\":1506:1525  balance[msg.sender] */\n      0x00\n        /* \"submissions/Vera/day6.sol\":1514:1524  msg.sender */\n      caller\n        /* \"submissions/Vera/day6.sol\":1506:1525  balance[msg.sender] */\n      0xffffffffffffffffffffffffffffffffffffffff\n      and\n      0xffffffffffffffffffffffffffffffffffffffff\n      and\n      dup2\n      mstore\n      0x20\n      add\n      swap1\n      dup2\n      mstore\n      0x20\n      add\n      0x00\n      keccak256\n      0x00\n        /* \"submissions/Vera/day6.sol\":1506:1536  balance[msg.sender]+=msg.value */\n      dup3\n      dup3\n      sload\n      tag_97\n      swap2\n      swap1\n      tag_68\n      jump\t// in\n    tag_97:\n      swap3\n      pop\n      pop\n      dup2\n      swap1\n      sstore\n      pop\n        /* \"submissions/Vera/day6.sol\":1393:1544  function deposit() public payable onlyRegisteredMember{... */\n      jump\t// out\n        /* \"submissions/Vera/day6.sol\":89:115  address public bankManager */\n    tag_47:\n      0x00\n      0x00\n      swap1\n      sload\n      swap1\n      0x0100\n      exp\n      swap1\n      div\n      0xffffffffffffffffffffffffffffffffffffffff\n      and\n      dup2\n      jump\t// out\n        /* \"#utility.yul\":88:205   */\n    tag_99:\n        /* \"#utility.yul\":197:198   */\n      0x00\n        /* \"#utility.yul\":194:195   */\n      0x00\n        /* \"#utility.yul\":187:199   */\n      revert\n        /* \"#utility.yul\":334:411   */\n    tag_101:\n        /* \"#utility.yul\":371:378   */\n      0x00\n        /* \"#utility.yul\":400:405   */\n      dup2\n        /* \"#utility.yul\":389:405   */\n      swap1\n      pop\n        /* \"#utility.yul\":334:411   */\n      swap2\n      swap1\n      pop\n      jump\t// out\n        /* \"#utility.yul\":417:539   */\n    tag_102:\n        /* \"#utility.yul\":490:514   */\n      tag_143\n        /* \"#utility.yul\":508:513   */\n      dup2\n        /* \"#utility.yul\":490:514   */\n      tag_101\n      jump\t// in\n    tag_143:\n        /* \"#utility.yul\":483:488   */\n      dup2\n        /* \"#utility.yul\":480:515   */\n      eq\n        /* \"#utility.yul\":470:533   */\n      tag_144\n      jumpi\n        /* \"#utility.yul\":529:530   */\n      0x00\n        /* \"#utility.yul\":526:527   */\n      0x00\n        /* \"#utility.yul\":519:531   */\n      revert\n        /* \"#utility.yul\":470:533   */\n    tag_144:\n        /* \"#utility.yul\":417:539   */\n      pop\n      jump\t// out\n        /* \"#utility.yul\":545:684   */\n    tag_103:\n        /* \"#utility.yul\":591:596   */\n      0x00\n        /* \"#utility.yul\":629:635   */\n      dup2\n        /* \"#utility.yul\":616:636   */\n      calldataload\n        /* \"#utility.yul\":607:636   */\n      swap1\n      pop\n        /* \"#utility.yul\":645:678   */\n      tag_146\n        /* \"#utility.yul\":672:677   */\n      dup2\n        /* \"#utility.yul\":645:678   */\n      tag_102\n      jump\t// in\n    tag_146:\n        /* \"#utility.yul\":545:684   */\n      swap3\n      swap2\n      pop\n      pop\n      jump\t// out\n        /* \"#utility.yul\":690:1019   */\n    tag_14:\n        /* \"#utility.yul\":749:755   */\n      0x00\n        /* \"#utility.yul\":798:800   */\n      0x20\n        /* \"#utility.yul\":786:795   */\n      dup3\n        /* \"#utility.yul\":777:784   */\n      dup5\n        /* \"#utility.yul\":773:796   */\n      sub\n        /* \"#utility.yul\":769:801   */\n      slt\n        /* \"#utility.yul\":766:885   */\n      iszero\n      tag_148\n      jumpi\n        /* \"#utility.yul\":804:883   */\n      tag_149\n      tag_99\n      jump\t// in\n    tag_149:\n        /* \"#utility.yul\":766:885   */\n    tag_148:\n        /* \"#utility.yul\":924:925   */\n      0x00\n        /* \"#utility.yul\":949:1002   */\n      tag_150\n        /* \"#utility.yul\":994:1001   */\n      dup5\n        /* \"#utility.yul\":985:991   */\n      dup3\n        /* \"#utility.yul\":974:983   */\n      dup6\n        /* \"#utility.yul\":970:992   */\n      add\n        /* \"#utility.yul\":949:1002   */\n      tag_103\n      jump\t// in\n    tag_150:\n        /* \"#utility.yul\":939:1002   */\n      swap2\n      pop\n        /* \"#utility.yul\":895:1012   */\n      pop\n        /* \"#utility.yul\":690:1019   */\n      swap3\n      swap2\n      pop\n      pop\n      jump\t// out\n        /* \"#utility.yul\":1025:1151   */\n    tag_104:\n        /* \"#utility.yul\":1062:1069   */\n      0x00\n        /* \"#utility.yul\":1102:1144   */\n      0xffffffffffffffffffffffffffffffffffffffff\n        /* \"#utility.yul\":1095:1100   */\n      dup3\n        /* \"#utility.yul\":1091:1145   */\n      and\n        /* \"#utility.yul\":1080:1145   */\n      swap1\n      pop\n        /* \"#utility.yul\":1025:1151   */\n      swap2\n      swap1\n      pop\n      jump\t// out\n        /* \"#utility.yul\":1157:1253   */\n    tag_105:\n        /* \"#utility.yul\":1194:1201   */\n      0x00\n        /* \"#utility.yul\":1223:1247   */\n      tag_153\n        /* \"#utility.yul\":1241:1246   */\n      dup3\n        /* \"#utility.yul\":1223:1247   */\n      tag_104\n      jump\t// in\n    tag_153:\n        /* \"#utility.yul\":1212:1247   */\n      swap1\n      pop\n        /* \"#utility.yul\":1157:1253   */\n      swap2\n      swap1\n      pop\n      jump\t// out\n        /* \"#utility.yul\":1259:1377   */\n    tag_106:\n        /* \"#utility.yul\":1346:1370   */\n      tag_155\n        /* \"#utility.yul\":1364:1369   */\n      dup2\n        /* \"#utility.yul\":1346:1370   */\n      tag_105\n      jump\t// in\n    tag_155:\n        /* \"#utility.yul\":1341:1344   */\n      dup3\n        /* \"#utility.yul\":1334:1371   */\n      mstore\n        /* \"#utility.yul\":1259:1377   */\n      pop\n      pop\n      jump\t// out\n        /* \"#utility.yul\":1383:1605   */\n    tag_21:\n        /* \"#utility.yul\":1476:1480   */\n      0x00\n        /* \"#utility.yul\":1514:1516   */\n      0x20\n        /* \"#utility.yul\":1503:1512   */\n      dup3\n        /* \"#utility.yul\":1499:1517   */\n      add\n        /* \"#utility.yul\":1491:1517   */\n      swap1\n      pop\n        /* \"#utility.yul\":1527:1598   */\n      tag_157\n        /* \"#utility.yul\":1595:1596   */\n      0x00\n        /* \"#utility.yul\":1584:1593   */\n      dup4\n        /* \"#utility.yul\":1580:1597   */\n      add\n        /* \"#utility.yul\":1571:1577   */\n      dup5\n        /* \"#utility.yul\":1527:1598   */\n      tag_106\n      jump\t// in\n    tag_157:\n        /* \"#utility.yul\":1383:1605   */\n      swap3\n      swap2\n      pop\n      pop\n      jump\t// out\n        /* \"#utility.yul\":1611:1733   */\n    tag_107:\n        /* \"#utility.yul\":1684:1708   */\n      tag_159\n        /* \"#utility.yul\":1702:1707   */\n      dup2\n        /* \"#utility.yul\":1684:1708   */\n      tag_105\n      jump\t// in\n    tag_159:\n        /* \"#utility.yul\":1677:1682   */\n      dup2\n        /* \"#utility.yul\":1674:1709   */\n      eq\n        /* \"#utility.yul\":1664:1727   */\n      tag_160\n      jumpi\n        /* \"#utility.yul\":1723:1724   */\n      0x00\n        /* \"#utility.yul\":1720:1721   */\n      0x00\n        /* \"#utility.yul\":1713:1725   */\n      revert\n        /* \"#utility.yul\":1664:1727   */\n    tag_160:\n        /* \"#utility.yul\":1611:1733   */\n      pop\n      jump\t// out\n        /* \"#utility.yul\":1739:1878   */\n    tag_108:\n        /* \"#utility.yul\":1785:1790   */\n      0x00\n        /* \"#utility.yul\":1823:1829   */\n      dup2\n        /* \"#utility.yul\":1810:1830   */\n      calldataload\n        /* \"#utility.yul\":1801:1830   */\n      swap1\n      pop\n        /* \"#utility.yul\":1839:1872   */\n      tag_162\n        /* \"#utility.yul\":1866:1871   */\n      dup2\n        /* \"#utility.yul\":1839:1872   */\n      tag_107\n      jump\t// in\n    tag_162:\n        /* \"#utility.yul\":1739:1878   */\n      swap3\n      swap2\n      pop\n      pop\n      jump\t// out\n        /* \"#utility.yul\":1884:2213   */\n    tag_25:\n        /* \"#utility.yul\":1943:1949   */\n      0x00\n        /* \"#utility.yul\":1992:1994   */\n      0x20\n        /* \"#utility.yul\":1980:1989   */\n      dup3\n        /* \"#utility.yul\":1971:1978   */\n      dup5\n        /* \"#utility.yul\":1967:1990   */\n      sub\n        /* \"#utility.yul\":1963:1995   */\n      slt\n        /* \"#utility.yul\":1960:2079   */\n      iszero\n      tag_164\n      jumpi\n        /* \"#utility.yul\":1998:2077   */\n      tag_165\n      tag_99\n      jump\t// in\n    tag_165:\n        /* \"#utility.yul\":1960:2079   */\n    tag_164:\n        /* \"#utility.yul\":2118:2119   */\n      0x00\n        /* \"#utility.yul\":2143:2196   */\n      tag_166\n        /* \"#utility.yul\":2188:2195   */\n      dup5\n        /* \"#utility.yul\":2179:2185   */\n      dup3\n        /* \"#utility.yul\":2168:2177   */\n      dup6\n        /* \"#utility.yul\":2164:2186   */\n      add\n        /* \"#utility.yul\":2143:2196   */\n      tag_108\n      jump\t// in\n    tag_166:\n        /* \"#utility.yul\":2133:2196   */\n      swap2\n      pop\n        /* \"#utility.yul\":2089:2206   */\n      pop\n        /* \"#utility.yul\":1884:2213   */\n      swap3\n      swap2\n      pop\n      pop\n      jump\t// out\n        /* \"#utility.yul\":2219:2309   */\n    tag_109:\n        /* \"#utility.yul\":2253:2260   */\n      0x00\n        /* \"#utility.yul\":2296:2301   */\n      dup2\n        /* \"#utility.yul\":2289:2302   */\n      iszero\n        /* \"#utility.yul\":2282:2303   */\n      iszero\n        /* \"#utility.yul\":2271:2303   */\n      swap1\n      pop\n        /* \"#utility.yul\":2219:2309   */\n      swap2\n      swap1\n      pop\n      jump\t// out\n        /* \"#utility.yul\":2315:2424   */\n    tag_110:\n        /* \"#utility.yul\":2396:2417   */\n      tag_169\n        /* \"#utility.yul\":2411:2416   */\n      dup2\n        /* \"#utility.yul\":2396:2417   */\n      tag_109\n      jump\t// in\n    tag_169:\n        /* \"#utility.yul\":2391:2394   */\n      dup3\n        /* \"#utility.yul\":2384:2418   */\n      mstore\n        /* \"#utility.yul\":2315:2424   */\n      pop\n      pop\n      jump\t// out\n        /* \"#utility.yul\":2430:2640   */\n    tag_28:\n        /* \"#utility.yul\":2517:2521   */\n      0x00\n        /* \"#utility.yul\":2555:2557   */\n      0x20\n        /* \"#utility.yul\":2544:2553   */\n      dup3\n        /* \"#utility.yul\":2540:2558   */\n      add\n        /* \"#utility.yul\":2532:2558   */\n      swap1\n      pop\n        /* \"#utility.yul\":2568:2633   */\n      tag_171\n        /* \"#utility.yul\":2630:2631   */\n      0x00\n        /* \"#utility.yul\":2619:2628   */\n      dup4\n        /* \"#utility.yul\":2615:2632   */\n      add\n        /* \"#utility.yul\":2606:2612   */\n      dup5\n        /* \"#utility.yul\":2568:2633   */\n      tag_110\n      jump\t// in\n    tag_171:\n        /* \"#utility.yul\":2430:2640   */\n      swap3\n      swap2\n      pop\n      pop\n      jump\t// out\n        /* \"#utility.yul\":2646:2764   */\n    tag_111:\n        /* \"#utility.yul\":2733:2757   */\n      tag_173\n        /* \"#utility.yul\":2751:2756   */\n      dup2\n        /* \"#utility.yul\":2733:2757   */\n      tag_101\n      jump\t// in\n    tag_173:\n        /* \"#utility.yul\":2728:2731   */\n      dup3\n        /* \"#utility.yul\":2721:2758   */\n      mstore\n        /* \"#utility.yul\":2646:2764   */\n      pop\n      pop\n      jump\t// out\n        /* \"#utility.yul\":2770:2992   */\n    tag_33:\n        /* \"#utility.yul\":2863:2867   */\n      0x00\n        /* \"#utility.yul\":2901:2903   */\n      0x20\n        /* \"#utility.yul\":2890:2899   */\n      dup3\n        /* \"#utility.yul\":2886:2904   */\n      add\n        /* \"#utility.yul\":2878:2904   */\n      swap1\n      pop\n        /* \"#utility.yul\":2914:2985   */\n      tag_175\n        /* \"#utility.yul\":2982:2983   */\n      0x00\n        /* \"#utility.yul\":2971:2980   */\n      dup4\n        /* \"#utility.yul\":2967:2984   */\n      add\n        /* \"#utility.yul\":2958:2964   */\n      dup5\n        /* \"#utility.yul\":2914:2985   */\n      tag_111\n      jump\t// in\n    tag_175:\n        /* \"#utility.yul\":2770:2992   */\n      swap3\n      swap2\n      pop\n      pop\n      jump\t// out\n        /* \"#utility.yul\":2998:3112   */\n    tag_112:\n        /* \"#utility.yul\":3065:3071   */\n      0x00\n        /* \"#utility.yul\":3099:3104   */\n      dup2\n        /* \"#utility.yul\":3093:3105   */\n      mload\n        /* \"#utility.yul\":3083:3105   */\n      swap1\n      pop\n        /* \"#utility.yul\":2998:3112   */\n      swap2\n      swap1\n      pop\n      jump\t// out\n        /* \"#utility.yul\":3118:3302   */\n    tag_113:\n        /* \"#utility.yul\":3217:3228   */\n      0x00\n        /* \"#utility.yul\":3251:3257   */\n      dup3\n        /* \"#utility.yul\":3246:3249   */\n      dup3\n        /* \"#utility.yul\":3239:3258   */\n      mstore\n        /* \"#utility.yul\":3291:3295   */\n      0x20\n        /* \"#utility.yul\":3286:3289   */\n      dup3\n        /* \"#utility.yul\":3282:3296   */\n      add\n        /* \"#utility.yul\":3267:3296   */\n      swap1\n      pop\n        /* \"#utility.yul\":3118:3302   */\n      swap3\n      swap2\n      pop\n      pop\n      jump\t// out\n        /* \"#utility.yul\":3308:3440   */\n    tag_114:\n        /* \"#utility.yul\":3375:3379   */\n      0x00\n        /* \"#utility.yul\":3398:3401   */\n      dup2\n        /* \"#utility.yul\":3390:3401   */\n      swap1\n      pop\n        /* \"#utility.yul\":3428:3432   */\n      0x20\n        /* \"#utility.yul\":3423:3426   */\n      dup3\n        /* \"#utility.yul\":3419:3433   */\n      add\n        /* \"#utility.yul\":3411:3433   */\n      swap1\n      pop\n        /* \"#utility.yul\":3308:3440   */\n      swap2\n      swap1\n      pop\n      jump\t// out\n        /* \"#utility.yul\":3446:3554   */\n    tag_115:\n        /* \"#utility.yul\":3523:3547   */\n      tag_180\n        /* \"#utility.yul\":3541:3546   */\n      dup2\n        /* \"#utility.yul\":3523:3547   */\n      tag_105\n      jump\t// in\n    tag_180:\n        /* \"#utility.yul\":3518:3521   */\n      dup3\n        /* \"#utility.yul\":3511:3548   */\n      mstore\n        /* \"#utility.yul\":3446:3554   */\n      pop\n      pop\n      jump\t// out\n        /* \"#utility.yul\":3560:3739   */\n    tag_116:\n        /* \"#utility.yul\":3629:3639   */\n      0x00\n        /* \"#utility.yul\":3650:3696   */\n      tag_182\n        /* \"#utility.yul\":3692:3695   */\n      dup4\n        /* \"#utility.yul\":3684:3690   */\n      dup4\n        /* \"#utility.yul\":3650:3696   */\n      tag_115\n      jump\t// in\n    tag_182:\n        /* \"#utility.yul\":3728:3732   */\n      0x20\n        /* \"#utility.yul\":3723:3726   */\n      dup4\n        /* \"#utility.yul\":3719:3733   */\n      add\n        /* \"#utility.yul\":3705:3733   */\n      swap1\n      pop\n        /* \"#utility.yul\":3560:3739   */\n      swap3\n      swap2\n      pop\n      pop\n      jump\t// out\n        /* \"#utility.yul\":3745:3858   */\n    tag_117:\n        /* \"#utility.yul\":3815:3819   */\n      0x00\n        /* \"#utility.yul\":3847:3851   */\n      0x20\n        /* \"#utility.yul\":3842:3845   */\n      dup3\n        /* \"#utility.yul\":3838:3852   */\n      add\n        /* \"#utility.yul\":3830:3852   */\n      swap1\n      pop\n        /* \"#utility.yul\":3745:3858   */\n      swap2\n      swap1\n      pop\n      jump\t// out\n        /* \"#utility.yul\":3894:4626   */\n    tag_118:\n        /* \"#utility.yul\":4013:4016   */\n      0x00\n        /* \"#utility.yul\":4042:4096   */\n      tag_185\n        /* \"#utility.yul\":4090:4095   */\n      dup3\n        /* \"#utility.yul\":4042:4096   */\n      tag_112\n      jump\t// in\n    tag_185:\n        /* \"#utility.yul\":4112:4198   */\n      tag_186\n        /* \"#utility.yul\":4191:4197   */\n      dup2\n        /* \"#utility.yul\":4186:4189   */\n      dup6\n        /* \"#utility.yul\":4112:4198   */\n      tag_113\n      jump\t// in\n    tag_186:\n        /* \"#utility.yul\":4105:4198   */\n      swap4\n      pop\n        /* \"#utility.yul\":4222:4278   */\n      tag_187\n        /* \"#utility.yul\":4272:4277   */\n      dup4\n        /* \"#utility.yul\":4222:4278   */\n      tag_114\n      jump\t// in\n    tag_187:\n        /* \"#utility.yul\":4301:4308   */\n      dup1\n        /* \"#utility.yul\":4332:4333   */\n      0x00\n        /* \"#utility.yul\":4317:4601   */\n    tag_188:\n        /* \"#utility.yul\":4342:4348   */\n      dup4\n        /* \"#utility.yul\":4339:4340   */\n      dup2\n        /* \"#utility.yul\":4336:4349   */\n      lt\n        /* \"#utility.yul\":4317:4601   */\n      iszero\n      tag_190\n      jumpi\n        /* \"#utility.yul\":4418:4424   */\n      dup2\n        /* \"#utility.yul\":4412:4425   */\n      mload\n        /* \"#utility.yul\":4445:4508   */\n      tag_191\n        /* \"#utility.yul\":4504:4507   */\n      dup9\n        /* \"#utility.yul\":4489:4502   */\n      dup3\n        /* \"#utility.yul\":4445:4508   */\n      tag_116\n      jump\t// in\n    tag_191:\n        /* \"#utility.yul\":4438:4508   */\n      swap8\n      pop\n        /* \"#utility.yul\":4531:4591   */\n      tag_192\n        /* \"#utility.yul\":4584:4590   */\n      dup4\n        /* \"#utility.yul\":4531:4591   */\n      tag_117\n      jump\t// in\n    tag_192:\n        /* \"#utility.yul\":4521:4591   */\n      swap3\n      pop\n        /* \"#utility.yul\":4377:4601   */\n      pop\n        /* \"#utility.yul\":4364:4365   */\n      0x01\n        /* \"#utility.yul\":4361:4362   */\n      dup2\n        /* \"#utility.yul\":4357:4366   */\n      add\n        /* \"#utility.yul\":4352:4366   */\n      swap1\n      pop\n        /* \"#utility.yul\":4317:4601   */\n      jump(tag_188)\n    tag_190:\n        /* \"#utility.yul\":4321:4335   */\n      pop\n        /* \"#utility.yul\":4617:4620   */\n      dup6\n        /* \"#utility.yul\":4610:4620   */\n      swap4\n      pop\n        /* \"#utility.yul\":4018:4626   */\n      pop\n      pop\n      pop\n        /* \"#utility.yul\":3894:4626   */\n      swap3\n      swap2\n      pop\n      pop\n      jump\t// out\n        /* \"#utility.yul\":4632:5005   */\n    tag_42:\n        /* \"#utility.yul\":4775:4779   */\n      0x00\n        /* \"#utility.yul\":4813:4815   */\n      0x20\n        /* \"#utility.yul\":4802:4811   */\n      dup3\n        /* \"#utility.yul\":4798:4816   */\n      add\n        /* \"#utility.yul\":4790:4816   */\n      swap1\n      pop\n        /* \"#utility.yul\":4862:4871   */\n      dup2\n        /* \"#utility.yul\":4856:4860   */\n      dup2\n        /* \"#utility.yul\":4852:4872   */\n      sub\n        /* \"#utility.yul\":4848:4849   */\n      0x00\n        /* \"#utility.yul\":4837:4846   */\n      dup4\n        /* \"#utility.yul\":4833:4850   */\n      add\n        /* \"#utility.yul\":4826:4873   */\n      mstore\n        /* \"#utility.yul\":4890:4998   */\n      tag_194\n        /* \"#utility.yul\":4993:4997   */\n      dup2\n        /* \"#utility.yul\":4984:4990   */\n      dup5\n        /* \"#utility.yul\":4890:4998   */\n      tag_118\n      jump\t// in\n    tag_194:\n        /* \"#utility.yul\":4882:4998   */\n      swap1\n      pop\n        /* \"#utility.yul\":4632:5005   */\n      swap3\n      swap2\n      pop\n      pop\n      jump\t// out\n        /* \"#utility.yul\":5011:5180   */\n    tag_119:\n        /* \"#utility.yul\":5095:5106   */\n      0x00\n        /* \"#utility.yul\":5129:5135   */\n      dup3\n        /* \"#utility.yul\":5124:5127   */\n      dup3\n        /* \"#utility.yul\":5117:5136   */\n      mstore\n        /* \"#utility.yul\":5169:5173   */\n      0x20\n        /* \"#utility.yul\":5164:5167   */\n      dup3\n        /* \"#utility.yul\":5160:5174   */\n      add\n        /* \"#utility.yul\":5145:5174   */\n      swap1\n      pop\n        /* \"#utility.yul\":5011:5180   */\n      swap3\n      swap2\n      pop\n      pop\n      jump\t// out\n        /* \"#utility.yul\":5186:5357   */\n    tag_120:\n        /* \"#utility.yul\":5326:5349   */\n      0x4d656d626572206e6f7420726567697374657265640000000000000000000000\n        /* \"#utility.yul\":5322:5323   */\n      0x00\n        /* \"#utility.yul\":5314:5320   */\n      dup3\n        /* \"#utility.yul\":5310:5324   */\n      add\n        /* \"#utility.yul\":5303:5350   */\n      mstore\n        /* \"#utility.yul\":5186:5357   */\n      pop\n      jump\t// out\n        /* \"#utility.yul\":5363:5729   */\n    tag_121:\n        /* \"#utility.yul\":5505:5508   */\n      0x00\n        /* \"#utility.yul\":5526:5593   */\n      tag_198\n        /* \"#utility.yul\":5590:5592   */\n      0x15\n        /* \"#utility.yul\":5585:5588   */\n      dup4\n        /* \"#utility.yul\":5526:5593   */\n      tag_119\n      jump\t// in\n    tag_198:\n        /* \"#utility.yul\":5519:5593   */\n      swap2\n      pop\n        /* \"#utility.yul\":5602:5695   */\n      tag_199\n        /* \"#utility.yul\":5691:5694   */\n      dup3\n        /* \"#utility.yul\":5602:5695   */\n      tag_120\n      jump\t// in\n    tag_199:\n        /* \"#utility.yul\":5720:5722   */\n      0x20\n        /* \"#utility.yul\":5715:5718   */\n      dup3\n        /* \"#utility.yul\":5711:5723   */\n      add\n        /* \"#utility.yul\":5704:5723   */\n      swap1\n      pop\n        /* \"#utility.yul\":5363:5729   */\n      swap2\n      swap1\n      pop\n      jump\t// out\n        /* \"#utility.yul\":5735:6154   */\n    tag_52:\n        /* \"#utility.yul\":5901:5905   */\n      0x00\n        /* \"#utility.yul\":5939:5941   */\n      0x20\n        /* \"#utility.yul\":5928:5937   */\n      dup3\n        /* \"#utility.yul\":5924:5942   */\n      add\n        /* \"#utility.yul\":5916:5942   */\n      swap1\n      pop\n        /* \"#utility.yul\":5988:5997   */\n      dup2\n        /* \"#utility.yul\":5982:5986   */\n      dup2\n        /* \"#utility.yul\":5978:5998   */\n      sub\n        /* \"#utility.yul\":5974:5975   */\n      0x00\n        /* \"#utility.yul\":5963:5972   */\n      dup4\n        /* \"#utility.yul\":5959:5976   */\n      add\n        /* \"#utility.yul\":5952:5999   */\n      mstore\n        /* \"#utility.yul\":6016:6147   */\n      tag_201\n        /* \"#utility.yul\":6142:6146   */\n      dup2\n        /* \"#utility.yul\":6016:6147   */\n      tag_121\n      jump\t// in\n    tag_201:\n        /* \"#utility.yul\":6008:6147   */\n      swap1\n      pop\n        /* \"#utility.yul\":5735:6154   */\n      swap2\n      swap1\n      pop\n      jump\t// out\n        /* \"#utility.yul\":6160:6387   */\n    tag_122:\n        /* \"#utility.yul\":6300:6334   */\n      0x5769746864726177616c20616d6f756e74206d75737420626520677265617465\n        /* \"#utility.yul\":6296:6297   */\n      0x00\n        /* \"#utility.yul\":6288:6294   */\n      dup3\n        /* \"#utility.yul\":6284:6298   */\n      add\n        /* \"#utility.yul\":6277:6335   */\n      mstore\n        /* \"#utility.yul\":6369:6379   */\n      0x72207468616e2030000000000000000000000000000000000000000000000000\n        /* \"#utility.yul\":6364:6366   */\n      0x20\n        /* \"#utility.yul\":6356:6362   */\n      dup3\n        /* \"#utility.yul\":6352:6367   */\n      add\n        /* \"#utility.yul\":6345:6380   */\n      mstore\n        /* \"#utility.yul\":6160:6387   */\n      pop\n      jump\t// out\n        /* \"#utility.yul\":6393:6759   */\n    tag_123:\n        /* \"#utility.yul\":6535:6538   */\n      0x00\n        /* \"#utility.yul\":6556:6623   */\n      tag_204\n        /* \"#utility.yul\":6620:6622   */\n      0x28\n        /* \"#utility.yul\":6615:6618   */\n      dup4\n        /* \"#utility.yul\":6556:6623   */\n      tag_119\n      jump\t// in\n    tag_204:\n        /* \"#utility.yul\":6549:6623   */\n      swap2\n      pop\n        /* \"#utility.yul\":6632:6725   */\n      tag_205\n        /* \"#utility.yul\":6721:6724   */\n      dup3\n        /* \"#utility.yul\":6632:6725   */\n      tag_122\n      jump\t// in\n    tag_205:\n        /* \"#utility.yul\":6750:6752   */\n      0x40\n        /* \"#utility.yul\":6745:6748   */\n      dup3\n        /* \"#utility.yul\":6741:6753   */\n      add\n        /* \"#utility.yul\":6734:6753   */\n      swap1\n      pop\n        /* \"#utility.yul\":6393:6759   */\n      swap2\n      swap1\n      pop\n      jump\t// out\n        /* \"#utility.yul\":6765:7184   */\n    tag_56:\n        /* \"#utility.yul\":6931:6935   */\n      0x00\n        /* \"#utility.yul\":6969:6971   */\n      0x20\n        /* \"#utility.yul\":6958:6967   */\n      dup3\n        /* \"#utility.yul\":6954:6972   */\n      add\n        /* \"#utility.yul\":6946:6972   */\n      swap1\n      pop\n        /* \"#utility.yul\":7018:7027   */\n      dup2\n        /* \"#utility.yul\":7012:7016   */\n      dup2\n        /* \"#utility.yul\":7008:7028   */\n      sub\n        /* \"#utility.yul\":7004:7005   */\n      0x00\n        /* \"#utility.yul\":6993:7002   */\n      dup4\n        /* \"#utility.yul\":6989:7006   */\n      add\n        /* \"#utility.yul\":6982:7029   */\n      mstore\n        /* \"#utility.yul\":7046:7177   */\n      tag_207\n        /* \"#utility.yul\":7172:7176   */\n      dup2\n        /* \"#utility.yul\":7046:7177   */\n      tag_123\n      jump\t// in\n    tag_207:\n        /* \"#utility.yul\":7038:7177   */\n      swap1\n      pop\n        /* \"#utility.yul\":6765:7184   */\n      swap2\n      swap1\n      pop\n      jump\t// out\n        /* \"#utility.yul\":7190:7412   */\n    tag_124:\n        /* \"#utility.yul\":7330:7364   */\n      0x496e73756666696369656e742062616c616e636520666f722077697468647261\n        /* \"#utility.yul\":7326:7327   */\n      0x00\n        /* \"#utility.yul\":7318:7324   */\n      dup3\n        /* \"#utility.yul\":7314:7328   */\n      add\n        /* \"#utility.yul\":7307:7365   */\n      mstore\n        /* \"#utility.yul\":7399:7404   */\n      0x77616c0000000000000000000000000000000000000000000000000000000000\n        /* \"#utility.yul\":7394:7396   */\n      0x20\n        /* \"#utility.yul\":7386:7392   */\n      dup3\n        /* \"#utility.yul\":7382:7397   */\n      add\n        /* \"#utility.yul\":7375:7405   */\n      mstore\n        /* \"#utility.yul\":7190:7412   */\n      pop\n      jump\t// out\n        /* \"#utility.yul\":7418:7784   */\n    tag_125:\n        /* \"#utility.yul\":7560:7563   */\n      0x00\n        /* \"#utility.yul\":7581:7648   */\n      tag_210\n        /* \"#utility.yul\":7645:7647   */\n      0x23\n        /* \"#utility.yul\":7640:7643   */\n      dup4\n        /* \"#utility.yul\":7581:7648   */\n      tag_119\n      jump\t// in\n    tag_210:\n        /* \"#utility.yul\":7574:7648   */\n      swap2\n      pop\n        /* \"#utility.yul\":7657:7750   */\n      tag_211\n        /* \"#utility.yul\":7746:7749   */\n      dup3\n        /* \"#utility.yul\":7657:7750   */\n      tag_124\n      jump\t// in\n    tag_211:\n        /* \"#utility.yul\":7775:7777   */\n      0x40\n        /* \"#utility.yul\":7770:7773   */\n      dup3\n        /* \"#utility.yul\":7766:7778   */\n      add\n        /* \"#utility.yul\":7759:7778   */\n      swap1\n      pop\n        /* \"#utility.yul\":7418:7784   */\n      swap2\n      swap1\n      pop\n      jump\t// out\n        /* \"#utility.yul\":7790:8209   */\n    tag_59:\n        /* \"#utility.yul\":7956:7960   */\n      0x00\n        /* \"#utility.yul\":7994:7996   */\n      0x20\n        /* \"#utility.yul\":7983:7992   */\n      dup3\n        /* \"#utility.yul\":7979:7997   */\n      add\n        /* \"#utility.yul\":7971:7997   */\n      swap1\n      pop\n        /* \"#utility.yul\":8043:8052   */\n      dup2\n        /* \"#utility.yul\":8037:8041   */\n      dup2\n        /* \"#utility.yul\":8033:8053   */\n      sub\n        /* \"#utility.yul\":8029:8030   */\n      0x00\n        /* \"#utility.yul\":8018:8027   */\n      dup4\n        /* \"#utility.yul\":8014:8031   */\n      add\n        /* \"#utility.yul\":8007:8054   */\n      mstore\n        /* \"#utility.yul\":8071:8202   */\n      tag_213\n        /* \"#utility.yul\":8197:8201   */\n      dup2\n        /* \"#utility.yul\":8071:8202   */\n      tag_125\n      jump\t// in\n    tag_213:\n        /* \"#utility.yul\":8063:8202   */\n      swap1\n      pop\n        /* \"#utility.yul\":7790:8209   */\n      swap2\n      swap1\n      pop\n      jump\t// out\n        /* \"#utility.yul\":8215:8435   */\n    tag_126:\n        /* \"#utility.yul\":8355:8389   */\n      0x352d6d696e7574652077616974206265747765656e207769746864726177616c\n        /* \"#utility.yul\":8351:8352   */\n      0x00\n        /* \"#utility.yul\":8343:8349   */\n      dup3\n        /* \"#utility.yul\":8339:8353   */\n      add\n        /* \"#utility.yul\":8332:8390   */\n      mstore\n        /* \"#utility.yul\":8424:8427   */\n      0x7300000000000000000000000000000000000000000000000000000000000000\n        /* \"#utility.yul\":8419:8421   */\n      0x20\n        /* \"#utility.yul\":8411:8417   */\n      dup3\n        /* \"#utility.yul\":8407:8422   */\n      add\n        /* \"#utility.yul\":8400:8428   */\n      mstore\n        /* \"#utility.yul\":8215:8435   */\n      pop\n      jump\t// out\n        /* \"#utility.yul\":8441:8807   */\n    tag_127:\n        /* \"#utility.yul\":8583:8586   */\n      0x00\n        /* \"#utility.yul\":8604:8671   */\n      tag_216\n        /* \"#utility.yul\":8668:8670   */\n      0x21\n        /* \"#utility.yul\":8663:8666   */\n      dup4\n        /* \"#utility.yul\":8604:8671   */\n      tag_119\n      jump\t// in\n    tag_216:\n        /* \"#utility.yul\":8597:8671   */\n      swap2\n      pop\n        /* \"#utility.yul\":8680:8773   */\n      tag_217\n        /* \"#utility.yul\":8769:8772   */\n      dup3\n        /* \"#utility.yul\":8680:8773   */\n      tag_126\n      jump\t// in\n    tag_217:\n        /* \"#utility.yul\":8798:8800   */\n      0x40\n        /* \"#utility.yul\":8793:8796   */\n      dup3\n        /* \"#utility.yul\":8789:8801   */\n      add\n        /* \"#utility.yul\":8782:8801   */\n      swap1\n      pop\n        /* \"#utility.yul\":8441:8807   */\n      swap2\n      swap1\n      pop\n      jump\t// out\n        /* \"#utility.yul\":8813:9232   */\n    tag_62:\n        /* \"#utility.yul\":8979:8983   */\n      0x00\n        /* \"#utility.yul\":9017:9019   */\n      0x20\n        /* \"#utility.yul\":9006:9015   */\n      dup3\n        /* \"#utility.yul\":9002:9020   */\n      add\n        /* \"#utility.yul\":8994:9020   */\n      swap1\n      pop\n        /* \"#utility.yul\":9066:9075   */\n      dup2\n        /* \"#utility.yul\":9060:9064   */\n      dup2\n        /* \"#utility.yul\":9056:9076   */\n      sub\n        /* \"#utility.yul\":9052:9053   */\n      0x00\n        /* \"#utility.yul\":9041:9050   */\n      dup4\n        /* \"#utility.yul\":9037:9054   */\n      add\n        /* \"#utility.yul\":9030:9077   */\n      mstore\n        /* \"#utility.yul\":9094:9225   */\n      tag_219\n        /* \"#utility.yul\":9220:9224   */\n      dup2\n        /* \"#utility.yul\":9094:9225   */\n      tag_127\n      jump\t// in\n    tag_219:\n        /* \"#utility.yul\":9086:9225   */\n      swap1\n      pop\n        /* \"#utility.yul\":8813:9232   */\n      swap2\n      swap1\n      pop\n      jump\t// out\n        /* \"#utility.yul\":9238:9418   */\n    tag_128:\n        /* \"#utility.yul\":9286:9363   */\n      0x4e487b7100000000000000000000000000000000000000000000000000000000\n        /* \"#utility.yul\":9283:9284   */\n      0x00\n        /* \"#utility.yul\":9276:9364   */\n      mstore\n        /* \"#utility.yul\":9383:9387   */\n      0x11\n        /* \"#utility.yul\":9380:9381   */\n      0x04\n        /* \"#utility.yul\":9373:9388   */\n      mstore\n        /* \"#utility.yul\":9407:9411   */\n      0x24\n        /* \"#utility.yul\":9404:9405   */\n      0x00\n        /* \"#utility.yul\":9397:9412   */\n      revert\n        /* \"#utility.yul\":9424:9618   */\n    tag_64:\n        /* \"#utility.yul\":9464:9468   */\n      0x00\n        /* \"#utility.yul\":9484:9504   */\n      tag_222\n        /* \"#utility.yul\":9502:9503   */\n      dup3\n        /* \"#utility.yul\":9484:9504   */\n      tag_101\n      jump\t// in\n    tag_222:\n        /* \"#utility.yul\":9479:9504   */\n      swap2\n      pop\n        /* \"#utility.yul\":9518:9538   */\n      tag_223\n        /* \"#utility.yul\":9536:9537   */\n      dup4\n        /* \"#utility.yul\":9518:9538   */\n      tag_101\n      jump\t// in\n    tag_223:\n        /* \"#utility.yul\":9513:9538   */\n      swap3\n      pop\n        /* \"#utility.yul\":9562:9563   */\n      dup3\n        /* \"#utility.yul\":9559:9560   */\n      dup3\n        /* \"#utility.yul\":9555:9564   */\n      sub\n        /* \"#utility.yul\":9547:9564   */\n      swap1\n      pop\n        /* \"#utility.yul\":9586:9587   */\n      dup2\n        /* \"#utility.yul\":9580:9584   */\n      dup2\n        /* \"#utility.yul\":9577:9588   */\n      gt\n        /* \"#utility.yul\":9574:9611   */\n      iszero\n      tag_224\n      jumpi\n        /* \"#utility.yul\":9591:9609   */\n      tag_225\n      tag_128\n      jump\t// in\n    tag_225:\n        /* \"#utility.yul\":9574:9611   */\n    tag_224:\n        /* \"#utility.yul\":9424:9618   */\n      swap3\n      swap2\n      pop\n      pop\n      jump\t// out\n        /* \"#utility.yul\":9624:9815   */\n    tag_68:\n        /* \"#utility.yul\":9664:9667   */\n      0x00\n        /* \"#utility.yul\":9683:9703   */\n      tag_227\n        /* \"#utility.yul\":9701:9702   */\n      dup3\n        /* \"#utility.yul\":9683:9703   */\n      tag_101\n      jump\t// in\n    tag_227:\n        /* \"#utility.yul\":9678:9703   */\n      swap2\n      pop\n        /* \"#utility.yul\":9717:9737   */\n      tag_228\n        /* \"#utility.yul\":9735:9736   */\n      dup4\n        /* \"#utility.yul\":9717:9737   */\n      tag_101\n      jump\t// in\n    tag_228:\n        /* \"#utility.yul\":9712:9737   */\n      swap3\n      pop\n        /* \"#utility.yul\":9760:9761   */\n      dup3\n        /* \"#utility.yul\":9757:9758   */\n      dup3\n        /* \"#utility.yul\":9753:9762   */\n      add\n        /* \"#utility.yul\":9746:9762   */\n      swap1\n      pop\n        /* \"#utility.yul\":9781:9784   */\n      dup1\n        /* \"#utility.yul\":9778:9779   */\n      dup3\n        /* \"#utility.yul\":9775:9785   */\n      gt\n        /* \"#utility.yul\":9772:9808   */\n      iszero\n      tag_229\n      jumpi\n        /* \"#utility.yul\":9788:9806   */\n      tag_230\n      tag_128\n      jump\t// in\n    tag_230:\n        /* \"#utility.yul\":9772:9808   */\n    tag_229:\n        /* \"#utility.yul\":9624:9815   */\n      swap3\n      swap2\n      pop\n      pop\n      jump\t// out\n        /* \"#utility.yul\":9821:10049   */\n    tag_129:\n        /* \"#utility.yul\":9961:9995   */\n      0x4f6e6c792062616e6b206d616e616765722063616e20706572666f726d207468\n        /* \"#utility.yul\":9957:9958   */\n      0x00\n        /* \"#utility.yul\":9949:9955   */\n      dup3\n        /* \"#utility.yul\":9945:9959   */\n      add\n        /* \"#utility.yul\":9938:9996   */\n      mstore\n        /* \"#utility.yul\":10030:10041   */\n      0x697320616374696f6e0000000000000000000000000000000000000000000000\n        /* \"#utility.yul\":10025:10027   */\n      0x20\n        /* \"#utility.yul\":10017:10023   */\n      dup3\n        /* \"#utility.yul\":10013:10028   */\n      add\n        /* \"#utility.yul\":10006:10042   */\n      mstore\n        /* \"#utility.yul\":9821:10049   */\n      pop\n      jump\t// out\n        /* \"#utility.yul\":10055:10421   */\n    tag_130:\n        /* \"#utility.yul\":10197:10200   */\n      0x00\n        /* \"#utility.yul\":10218:10285   */\n      tag_233\n        /* \"#utility.yul\":10282:10284   */\n      0x29\n        /* \"#utility.yul\":10277:10280   */\n      dup4\n        /* \"#utility.yul\":10218:10285   */\n      tag_119\n      jump\t// in\n    tag_233:\n        /* \"#utility.yul\":10211:10285   */\n      swap2\n      pop\n        /* \"#utility.yul\":10294:10387   */\n      tag_234\n        /* \"#utility.yul\":10383:10386   */\n      dup3\n        /* \"#utility.yul\":10294:10387   */\n      tag_129\n      jump\t// in\n    tag_234:\n        /* \"#utility.yul\":10412:10414   */\n      0x40\n        /* \"#utility.yul\":10407:10410   */\n      dup3\n        /* \"#utility.yul\":10403:10415   */\n      add\n        /* \"#utility.yul\":10396:10415   */\n      swap1\n      pop\n        /* \"#utility.yul\":10055:10421   */\n      swap2\n      swap1\n      pop\n      jump\t// out\n        /* \"#utility.yul\":10427:10846   */\n    tag_78:\n        /* \"#utility.yul\":10593:10597   */\n      0x00\n        /* \"#utility.yul\":10631:10633   */\n      0x20\n        /* \"#utility.yul\":10620:10629   */\n      dup3\n        /* \"#utility.yul\":10616:10634   */\n      add\n        /* \"#utility.yul\":10608:10634   */\n      swap1\n      pop\n        /* \"#utility.yul\":10680:10689   */\n      dup2\n        /* \"#utility.yul\":10674:10678   */\n      dup2\n        /* \"#utility.yul\":10670:10690   */\n      sub\n        /* \"#utility.yul\":10666:10667   */\n      0x00\n        /* \"#utility.yul\":10655:10664   */\n      dup4\n        /* \"#utility.yul\":10651:10668   */\n      add\n        /* \"#utility.yul\":10644:10691   */\n      mstore\n        /* \"#utility.yul\":10708:10839   */\n      tag_236\n        /* \"#utility.yul\":10834:10838   */\n      dup2\n        /* \"#utility.yul\":10708:10839   */\n      tag_130\n      jump\t// in\n    tag_236:\n        /* \"#utility.yul\":10700:10839   */\n      swap1\n      pop\n        /* \"#utility.yul\":10427:10846   */\n      swap2\n      swap1\n      pop\n      jump\t// out\n        /* \"#utility.yul\":10852:11017   */\n    tag_131:\n        /* \"#utility.yul\":10992:11009   */\n      0x496e76616c696420616464726573730000000000000000000000000000000000\n        /* \"#utility.yul\":10988:10989   */\n      0x00\n        /* \"#utility.yul\":10980:10986   */\n      dup3\n        /* \"#utility.yul\":10976:10990   */\n      add\n        /* \"#utility.yul\":10969:11010   */\n      mstore\n        /* \"#utility.yul\":10852:11017   */\n      pop\n      jump\t// out\n        /* \"#utility.yul\":11023:11389   */\n    tag_132:\n        /* \"#utility.yul\":11165:11168   */\n      0x00\n        /* \"#utility.yul\":11186:11253   */\n      tag_239\n        /* \"#utility.yul\":11250:11252   */\n      0x0f\n        /* \"#utility.yul\":11245:11248   */\n      dup4\n        /* \"#utility.yul\":11186:11253   */\n      tag_119\n      jump\t// in\n    tag_239:\n        /* \"#utility.yul\":11179:11253   */\n      swap2\n      pop\n        /* \"#utility.yul\":11262:11355   */\n      tag_240\n        /* \"#utility.yul\":11351:11354   */\n      dup3\n        /* \"#utility.yul\":11262:11355   */\n      tag_131\n      jump\t// in\n    tag_240:\n        /* \"#utility.yul\":11380:11382   */\n      0x20\n        /* \"#utility.yul\":11375:11378   */\n      dup3\n        /* \"#utility.yul\":11371:11383   */\n      add\n        /* \"#utility.yul\":11364:11383   */\n      swap1\n      pop\n        /* \"#utility.yul\":11023:11389   */\n      swap2\n      swap1\n      pop\n      jump\t// out\n        /* \"#utility.yul\":11395:11814   */\n    tag_82:\n        /* \"#utility.yul\":11561:11565   */\n      0x00\n        /* \"#utility.yul\":11599:11601   */\n      0x20\n        /* \"#utility.yul\":11588:11597   */\n      dup3\n        /* \"#utility.yul\":11584:11602   */\n      add\n        /* \"#utility.yul\":11576:11602   */\n      swap1\n      pop\n        /* \"#utility.yul\":11648:11657   */\n      dup2\n        /* \"#utility.yul\":11642:11646   */\n      dup2\n        /* \"#utility.yul\":11638:11658   */\n      sub\n        /* \"#utility.yul\":11634:11635   */\n      0x00\n        /* \"#utility.yul\":11623:11632   */\n      dup4\n        /* \"#utility.yul\":11619:11636   */\n      add\n        /* \"#utility.yul\":11612:11659   */\n      mstore\n        /* \"#utility.yul\":11676:11807   */\n      tag_242\n        /* \"#utility.yul\":11802:11806   */\n      dup2\n        /* \"#utility.yul\":11676:11807   */\n      tag_132\n      jump\t// in\n    tag_242:\n        /* \"#utility.yul\":11668:11807   */\n      swap1\n      pop\n        /* \"#utility.yul\":11395:11814   */\n      swap2\n      swap1\n      pop\n      jump\t// out\n        /* \"#utility.yul\":11820:12040   */\n    tag_133:\n        /* \"#utility.yul\":11960:11994   */\n      0x54686973206d656d62657220697320616c726561647920726567697374657265\n        /* \"#utility.yul\":11956:11957   */\n      0x00\n        /* \"#utility.yul\":11948:11954   */\n      dup3\n        /* \"#utility.yul\":11944:11958   */\n      add\n        /* \"#utility.yul\":11937:11995   */\n      mstore\n        /* \"#utility.yul\":12029:12032   */\n      0x6400000000000000000000000000000000000000000000000000000000000000\n        /* \"#utility.yul\":12024:12026   */\n      0x20\n        /* \"#utility.yul\":12016:12022   */\n      dup3\n        /* \"#utility.yul\":12012:12027   */\n      add\n        /* \"#utility.yul\":12005:12033   */\n      mstore\n        /* \"#utility.yul\":11820:12040   */\n      pop\n      jump\t// out\n        /* \"#utility.yul\":12046:12412   */\n    tag_134:\n        /* \"#utility.yul\":12188:12191   */\n      0x00\n        /* \"#utility.yul\":12209:12276   */\n      tag_245\n        /* \"#utility.yul\":12273:12275   */\n      0x21\n        /* \"#utility.yul\":12268:12271   */\n      dup4\n        /* \"#utility.yul\":12209:12276   */\n      tag_119\n      jump\t// in\n    tag_245:\n        /* \"#utility.yul\":12202:12276   */\n      swap2\n      pop\n        /* \"#utility.yul\":12285:12378   */\n      tag_246\n        /* \"#utility.yul\":12374:12377   */\n      dup3\n        /* \"#utility.yul\":12285:12378   */\n      tag_133\n      jump\t// in\n    tag_246:\n        /* \"#utility.yul\":12403:12405   */\n      0x40\n        /* \"#utility.yul\":12398:12401   */\n      dup3\n        /* \"#utility.yul\":12394:12406   */\n      add\n        /* \"#utility.yul\":12387:12406   */\n      swap1\n      pop\n        /* \"#utility.yul\":12046:12412   */\n      swap2\n      swap1\n      pop\n      jump\t// out\n        /* \"#utility.yul\":12418:12837   */\n    tag_85:\n        /* \"#utility.yul\":12584:12588   */\n      0x00\n        /* \"#utility.yul\":12622:12624   */\n      0x20\n        /* \"#utility.yul\":12611:12620   */\n      dup3\n        /* \"#utility.yul\":12607:12625   */\n      add\n        /* \"#utility.yul\":12599:12625   */\n      swap1\n      pop\n        /* \"#utility.yul\":12671:12680   */\n      dup2\n        /* \"#utility.yul\":12665:12669   */\n      dup2\n        /* \"#utility.yul\":12661:12681   */\n      sub\n        /* \"#utility.yul\":12657:12658   */\n      0x00\n        /* \"#utility.yul\":12646:12655   */\n      dup4\n        /* \"#utility.yul\":12642:12659   */\n      add\n        /* \"#utility.yul\":12635:12682   */\n      mstore\n        /* \"#utility.yul\":12699:12830   */\n      tag_248\n        /* \"#utility.yul\":12825:12829   */\n      dup2\n        /* \"#utility.yul\":12699:12830   */\n      tag_134\n      jump\t// in\n    tag_248:\n        /* \"#utility.yul\":12691:12830   */\n      swap1\n      pop\n        /* \"#utility.yul\":12418:12837   */\n      swap2\n      swap1\n      pop\n      jump\t// out\n        /* \"#utility.yul\":12843:13007   */\n    tag_135:\n        /* \"#utility.yul\":12983:12999   */\n      0x496e76616c696420616d6f756e74000000000000000000000000000000000000\n        /* \"#utility.yul\":12979:12980   */\n      0x00\n        /* \"#utility.yul\":12971:12977   */\n      dup3\n        /* \"#utility.yul\":12967:12981   */\n      add\n        /* \"#utility.yul\":12960:13000   */\n      mstore\n        /* \"#utility.yul\":12843:13007   */\n      pop\n      jump\t// out\n        /* \"#utility.yul\":13013:13379   */\n    tag_136:\n        /* \"#utility.yul\":13155:13158   */\n      0x00\n        /* \"#utility.yul\":13176:13243   */\n      tag_251\n        /* \"#utility.yul\":13240:13242   */\n      0x0e\n        /* \"#utility.yul\":13235:13238   */\n      dup4\n        /* \"#utility.yul\":13176:13243   */\n      tag_119\n      jump\t// in\n    tag_251:\n        /* \"#utility.yul\":13169:13243   */\n      swap2\n      pop\n        /* \"#utility.yul\":13252:13345   */\n      tag_252\n        /* \"#utility.yul\":13341:13344   */\n      dup3\n        /* \"#utility.yul\":13252:13345   */\n      tag_135\n      jump\t// in\n    tag_252:\n        /* \"#utility.yul\":13370:13372   */\n      0x20\n        /* \"#utility.yul\":13365:13368   */\n      dup3\n        /* \"#utility.yul\":13361:13373   */\n      add\n        /* \"#utility.yul\":13354:13373   */\n      swap1\n      pop\n        /* \"#utility.yul\":13013:13379   */\n      swap2\n      swap1\n      pop\n      jump\t// out\n        /* \"#utility.yul\":13385:13804   */\n    tag_96:\n        /* \"#utility.yul\":13551:13555   */\n      0x00\n        /* \"#utility.yul\":13589:13591   */\n      0x20\n        /* \"#utility.yul\":13578:13587   */\n      dup3\n        /* \"#utility.yul\":13574:13592   */\n      add\n        /* \"#utility.yul\":13566:13592   */\n      swap1\n      pop\n        /* \"#utility.yul\":13638:13647   */\n      dup2\n        /* \"#utility.yul\":13632:13636   */\n      dup2\n        /* \"#utility.yul\":13628:13648   */\n      sub\n        /* \"#utility.yul\":13624:13625   */\n      0x00\n        /* \"#utility.yul\":13613:13622   */\n      dup4\n        /* \"#utility.yul\":13609:13626   */\n      add\n        /* \"#utility.yul\":13602:13649   */\n      mstore\n        /* \"#utility.yul\":13666:13797   */\n      tag_254\n        /* \"#utility.yul\":13792:13796   */\n      dup2\n        /* \"#utility.yul\":13666:13797   */\n      tag_136\n      jump\t// in\n    tag_254:\n        /* \"#utility.yul\":13658:13797   */\n      swap1\n      pop\n        /* \"#utility.yul\":13385:13804   */\n      swap2\n      swap1\n      pop\n      jump\t// out\n\n    auxdata: 0xa2646970667358221220d17cb1bdd6fde9a0c42a5c783929e937fd4fb2aa46cbab2e68a4ec481caee0b064736f6c634300081e0033\n}\n",
				"bytecode": {
					"linkReferences": {},
					"object": "608060405261012c600555348015610015575f5ffd5b50335f5f6101000a81548173ffffffffffffffffffffffffffffffffffffffff021916908373ffffffffffffffffffffffffffffffffffffffff160217905550600160025f3373ffffffffffffffffffffffffffffffffffffffff1673ffffffffffffffffffffffffffffffffffffffff1681526020019081526020015f205f6101000a81548160ff0219169083151502179055504260045f3373ffffffffffffffffffffffffffffffffffffffff1673ffffffffffffffffffffffffffffffffffffffff1681526020019081526020015f2081905550600133908060018154018082558091505060019003905f5260205f20015f9091909190916101000a81548173ffffffffffffffffffffffffffffffffffffffff021916908373ffffffffffffffffffffffffffffffffffffffff16021790555061110d806101595f395ff3fe60806040526004361061007a575f3560e01c8063939f284c1161004d578063939f284c146101485780639eab525314610170578063d0e30db01461019a578063e9e2990e146101a45761007a565b80632e1a7d4d1461007e5780635daf08ca146100a65780637254647a146100e25780638e49c52c1461011e575b5f5ffd5b348015610089575f5ffd5b506100a4600480360381019061009f9190610a2c565b6101ce565b005b3480156100b1575f5ffd5b506100cc60048036038101906100c79190610a2c565b610481565b6040516100d99190610a96565b60405180910390f35b3480156100ed575f5ffd5b5061010860048036038101906101039190610ad9565b6104bc565b6040516101159190610b1e565b60405180910390f35b348015610129575f5ffd5b506101326104d9565b60405161013f9190610b46565b60405180910390f35b348015610153575f5ffd5b5061016e60048036038101906101699190610ad9565b6105a6565b005b34801561017b575f5ffd5b50610184610826565b6040516101919190610c16565b60405180910390f35b6101a26108b1565b005b3480156101af575f5ffd5b506101b86109d1565b6040516101c59190610a96565b60405180910390f35b60025f3373ffffffffffffffffffffffffffffffffffffffff1673ffffffffffffffffffffffffffffffffffffffff1681526020019081526020015f205f9054906101000a900460ff16610257576040517f08c379a000000000000000000000000000000000000000000000000000000000815260040161024e90610c90565b60405180910390fd5b5f8111610299576040517f08c379a000000000000000000000000000000000000000000000000000000000815260040161029090610d1e565b60405180910390fd5b60035f3373ffffffffffffffffffffffffffffffffffffffff1673ffffffffffffffffffffffffffffffffffffffff1681526020019081526020015f2054811115610319576040517f08c379a000000000000000000000000000000000000000000000000000000000815260040161031090610dac565b60405180910390fd5b60045f3373ffffffffffffffffffffffffffffffffffffffff1673ffffffffffffffffffffffffffffffffffffffff1681526020019081526020015f20544211610398576040517f08c379a000000000000000000000000000000000000000000000000000000000815260040161038f90610e3a565b60405180910390fd5b8060035f3373ffffffffffffffffffffffffffffffffffffffff1673ffffffffffffffffffffffffffffffffffffffff1681526020019081526020015f205f8282546103e49190610e85565b925050819055503373ffffffffffffffffffffffffffffffffffffffff166108fc8290811502906040515f60405180830381858888f1935050505015801561042e573d5f5f3e3d5ffd5b506005544261043d9190610eb8565b60045f3373ffffffffffffffffffffffffffffffffffffffff1673ffffffffffffffffffffffffffffffffffffffff1681526020019081526020015f208190555050565b60018181548110610490575f80fd5b905f5260205f20015f915054906101000a900473ffffffffffffffffffffffffffffffffffffffff1681565b6002602052805f5260405f205f915054906101000a900460ff1681565b5f60025f3373ffffffffffffffffffffffffffffffffffffffff1673ffffffffffffffffffffffffffffffffffffffff1681526020019081526020015f205f9054906101000a900460ff16610563576040517f08c379a000000000000000000000000000000000000000000000000000000000815260040161055a90610c90565b60405180910390fd5b60035f3373ffffffffffffffffffffffffffffffffffffffff1673ffffffffffffffffffffffffffffffffffffffff1681526020019081526020015f2054905090565b5f5f9054906101000a900473ffffffffffffffffffffffffffffffffffffffff1673ffffffffffffffffffffffffffffffffffffffff163373ffffffffffffffffffffffffffffffffffffffff1614610634576040517f08c379a000000000000000000000000000000000000000000000000000000000815260040161062b90610f5b565b60405180910390fd5b5f73ffffffffffffffffffffffffffffffffffffffff168173ffffffffffffffffffffffffffffffffffffffff16036106a2576040517f08c379a000000000000000000000000000000000000000000000000000000000815260040161069990610fc3565b60405180910390fd5b60025f8273ffffffffffffffffffffffffffffffffffffffff1673ffffffffffffffffffffffffffffffffffffffff1681526020019081526020015f205f9054906101000a900460ff161561072c576040517f08c379a000000000000000000000000000000000000000000000000000000000815260040161072390611051565b60405180910390fd5b600160025f8373ffffffffffffffffffffffffffffffffffffffff1673ffffffffffffffffffffffffffffffffffffffff1681526020019081526020015f205f6101000a81548160ff0219169083151502179055504260045f8373ffffffffffffffffffffffffffffffffffffffff1673ffffffffffffffffffffffffffffffffffffffff1681526020019081526020015f2081905550600181908060018154018082558091505060019003905f5260205f20015f9091909190916101000a81548173ffffffffffffffffffffffffffffffffffffffff021916908373ffffffffffffffffffffffffffffffffffffffff16021790555050565b606060018054806020026020016040519081016040528092919081815260200182805480156108a757602002820191905f5260205f20905b815f9054906101000a900473ffffffffffffffffffffffffffffffffffffffff1673ffffffffffffffffffffffffffffffffffffffff168152602001906001019080831161085e575b5050505050905090565b60025f3373ffffffffffffffffffffffffffffffffffffffff1673ffffffffffffffffffffffffffffffffffffffff1681526020019081526020015f205f9054906101000a900460ff1661093a576040517f08c379a000000000000000000000000000000000000000000000000000000000815260040161093190610c90565b60405180910390fd5b5f341161097c576040517f08c379a0000000000000000000000000000000000000000000000000000000008152600401610973906110b9565b60405180910390fd5b3460035f3373ffffffffffffffffffffffffffffffffffffffff1673ffffffffffffffffffffffffffffffffffffffff1681526020019081526020015f205f8282546109c89190610eb8565b92505081905550565b5f5f9054906101000a900473ffffffffffffffffffffffffffffffffffffffff1681565b5f5ffd5b5f819050919050565b610a0b816109f9565b8114610a15575f5ffd5b50565b5f81359050610a2681610a02565b92915050565b5f60208284031215610a4157610a406109f5565b5b5f610a4e84828501610a18565b91505092915050565b5f73ffffffffffffffffffffffffffffffffffffffff82169050919050565b5f610a8082610a57565b9050919050565b610a9081610a76565b82525050565b5f602082019050610aa95f830184610a87565b92915050565b610ab881610a76565b8114610ac2575f5ffd5b50565b5f81359050610ad381610aaf565b92915050565b5f60208284031215610aee57610aed6109f5565b5b5f610afb84828501610ac5565b91505092915050565b5f8115159050919050565b610b1881610b04565b82525050565b5f602082019050610b315f830184610b0f565b92915050565b610b40816109f9565b82525050565b5f602082019050610b595f830184610b37565b92915050565b5f81519050919050565b5f82825260208201905092915050565b5f819050602082019050919050565b610b9181610a76565b82525050565b5f610ba28383610b88565b60208301905092915050565b5f602082019050919050565b5f610bc482610b5f565b610bce8185610b69565b9350610bd983610b79565b805f5b83811015610c09578151610bf08882610b97565b9750610bfb83610bae565b925050600181019050610bdc565b5085935050505092915050565b5f6020820190508181035f830152610c2e8184610bba565b905092915050565b5f82825260208201905092915050565b7f4d656d626572206e6f74207265676973746572656400000000000000000000005f82015250565b5f610c7a601583610c36565b9150610c8582610c46565b602082019050919050565b5f6020820190508181035f830152610ca781610c6e565b9050919050565b7f5769746864726177616c20616d6f756e74206d757374206265206772656174655f8201527f72207468616e2030000000000000000000000000000000000000000000000000602082015250565b5f610d08602883610c36565b9150610d1382610cae565b604082019050919050565b5f6020820190508181035f830152610d3581610cfc565b9050919050565b7f496e73756666696369656e742062616c616e636520666f7220776974686472615f8201527f77616c0000000000000000000000000000000000000000000000000000000000602082015250565b5f610d96602383610c36565b9150610da182610d3c565b604082019050919050565b5f6020820190508181035f830152610dc381610d8a565b9050919050565b7f352d6d696e7574652077616974206265747765656e207769746864726177616c5f8201527f7300000000000000000000000000000000000000000000000000000000000000602082015250565b5f610e24602183610c36565b9150610e2f82610dca565b604082019050919050565b5f6020820190508181035f830152610e5181610e18565b9050919050565b7f4e487b71000000000000000000000000000000000000000000000000000000005f52601160045260245ffd5b5f610e8f826109f9565b9150610e9a836109f9565b9250828203905081811115610eb257610eb1610e58565b5b92915050565b5f610ec2826109f9565b9150610ecd836109f9565b9250828201905080821115610ee557610ee4610e58565b5b92915050565b7f4f6e6c792062616e6b206d616e616765722063616e20706572666f726d2074685f8201527f697320616374696f6e0000000000000000000000000000000000000000000000602082015250565b5f610f45602983610c36565b9150610f5082610eeb565b604082019050919050565b5f6020820190508181035f830152610f7281610f39565b9050919050565b7f496e76616c6964206164647265737300000000000000000000000000000000005f82015250565b5f610fad600f83610c36565b9150610fb882610f79565b602082019050919050565b5f6020820190508181035f830152610fda81610fa1565b9050919050565b7f54686973206d656d62657220697320616c7265616479207265676973746572655f8201527f6400000000000000000000000000000000000000000000000000000000000000602082015250565b5f61103b602183610c36565b915061104682610fe1565b604082019050919050565b5f6020820190508181035f8301526110688161102f565b9050919050565b7f496e76616c696420616d6f756e740000000000000000000000000000000000005f82015250565b5f6110a3600e83610c36565b91506110ae8261106f565b602082019050919050565b5f6020820190508181035f8301526110d081611097565b905091905056fea2646970667358221220d17cb1bdd6fde9a0c42a5c783929e937fd4fb2aa46cbab2e68a4ec481caee0b064736f6c634300081e0033",
					"opcodes": "PUSH1 0x80 PUSH1 0x40 MSTORE PUSH2 0x12C PUSH1 0x5 SSTORE CALLVALUE DUP1 ISZERO PUSH2 0x15 JUMPI PUSH0 PUSH0 REVERT JUMPDEST POP CALLER PUSH0 PUSH0 PUSH2 0x100 EXP DUP2 SLOAD DUP2 PUSH20 0xFFFFFFFFFFFFFFFFFFFFFFFFFFFFFFFFFFFFFFFF MUL NOT AND SWAP1 DUP4 PUSH20 0xFFFFFFFFFFFFFFFFFFFFFFFFFFFFFFFFFFFFFFFF AND MUL OR SWAP1 SSTORE POP PUSH1 0x1 PUSH1 0x2 PUSH0 CALLER PUSH20 0xFFFFFFFFFFFFFFFFFFFFFFFFFFFFFFFFFFFFFFFF AND PUSH20 0xFFFFFFFFFFFFFFFFFFFFFFFFFFFFFFFFFFFFFFFF AND DUP2 MSTORE PUSH1 0x20 ADD SWAP1 DUP2 MSTORE PUSH1 0x20 ADD PUSH0 KECCAK256 PUSH0 PUSH2 0x100 EXP DUP2 SLOAD DUP2 PUSH1 0xFF MUL NOT AND SWAP1 DUP4 ISZERO ISZERO MUL OR SWAP1 SSTORE POP TIMESTAMP PUSH1 0x4 PUSH0 CALLER PUSH20 0xFFFFFFFFFFFFFFFFFFFFFFFFFFFFFFFFFFFFFFFF AND PUSH20 0xFFFFFFFFFFFFFFFFFFFFFFFFFFFFFFFFFFFFFFFF AND DUP2 MSTORE PUSH1 0x20 ADD SWAP1 DUP2 MSTORE PUSH1 0x20 ADD PUSH0 KECCAK256 DUP2 SWAP1 SSTORE POP PUSH1 0x1 CALLER SWAP1 DUP1 PUSH1 0x1 DUP2 SLOAD ADD DUP1 DUP3 SSTORE DUP1 SWAP2 POP POP PUSH1 0x1 SWAP1 SUB SWAP1 PUSH0 MSTORE PUSH1 0x20 PUSH0 KECCAK256 ADD PUSH0 SWAP1 SWAP2 SWAP1 SWAP2 SWAP1 SWAP2 PUSH2 0x100 EXP DUP2 SLOAD DUP2 PUSH20 0xFFFFFFFFFFFFFFFFFFFFFFFFFFFFFFFFFFFFFFFF MUL NOT AND SWAP1 DUP4 PUSH20 0xFFFFFFFFFFFFFFFFFFFFFFFFFFFFFFFFFFFFFFFF AND MUL OR SWAP1 SSTORE POP PUSH2 0x110D DUP1 PUSH2 0x159 PUSH0 CODECOPY PUSH0 RETURN INVALID PUSH1 0x80 PUSH1 0x40 MSTORE PUSH1 0x4 CALLDATASIZE LT PUSH2 0x7A JUMPI PUSH0 CALLDATALOAD PUSH1 0xE0 SHR DUP1 PUSH4 0x939F284C GT PUSH2 0x4D JUMPI DUP1 PUSH4 0x939F284C EQ PUSH2 0x148 JUMPI DUP1 PUSH4 0x9EAB5253 EQ PUSH2 0x170 JUMPI DUP1 PUSH4 0xD0E30DB0 EQ PUSH2 0x19A JUMPI DUP1 PUSH4 0xE9E2990E EQ PUSH2 0x1A4 JUMPI PUSH2 0x7A JUMP JUMPDEST DUP1 PUSH4 0x2E1A7D4D EQ PUSH2 0x7E JUMPI DUP1 PUSH4 0x5DAF08CA EQ PUSH2 0xA6 JUMPI DUP1 PUSH4 0x7254647A EQ PUSH2 0xE2 JUMPI DUP1 PUSH4 0x8E49C52C EQ PUSH2 0x11E JUMPI JUMPDEST PUSH0 PUSH0 REVERT JUMPDEST CALLVALUE DUP1 ISZERO PUSH2 0x89 JUMPI PUSH0 PUSH0 REVERT JUMPDEST POP PUSH2 0xA4 PUSH1 0x4 DUP1 CALLDATASIZE SUB DUP2 ADD SWAP1 PUSH2 0x9F SWAP2 SWAP1 PUSH2 0xA2C JUMP JUMPDEST PUSH2 0x1CE JUMP JUMPDEST STOP JUMPDEST CALLVALUE DUP1 ISZERO PUSH2 0xB1 JUMPI PUSH0 PUSH0 REVERT JUMPDEST POP PUSH2 0xCC PUSH1 0x4 DUP1 CALLDATASIZE SUB DUP2 ADD SWAP1 PUSH2 0xC7 SWAP2 SWAP1 PUSH2 0xA2C JUMP JUMPDEST PUSH2 0x481 JUMP JUMPDEST PUSH1 0x40 MLOAD PUSH2 0xD9 SWAP2 SWAP1 PUSH2 0xA96 JUMP JUMPDEST PUSH1 0x40 MLOAD DUP1 SWAP2 SUB SWAP1 RETURN JUMPDEST CALLVALUE DUP1 ISZERO PUSH2 0xED JUMPI PUSH0 PUSH0 REVERT JUMPDEST POP PUSH2 0x108 PUSH1 0x4 DUP1 CALLDATASIZE SUB DUP2 ADD SWAP1 PUSH2 0x103 SWAP2 SWAP1 PUSH2 0xAD9 JUMP JUMPDEST PUSH2 0x4BC JUMP JUMPDEST PUSH1 0x40 MLOAD PUSH2 0x115 SWAP2 SWAP1 PUSH2 0xB1E JUMP JUMPDEST PUSH1 0x40 MLOAD DUP1 SWAP2 SUB SWAP1 RETURN JUMPDEST CALLVALUE DUP1 ISZERO PUSH2 0x129 JUMPI PUSH0 PUSH0 REVERT JUMPDEST POP PUSH2 0x132 PUSH2 0x4D9 JUMP JUMPDEST PUSH1 0x40 MLOAD PUSH2 0x13F SWAP2 SWAP1 PUSH2 0xB46 JUMP JUMPDEST PUSH1 0x40 MLOAD DUP1 SWAP2 SUB SWAP1 RETURN JUMPDEST CALLVALUE DUP1 ISZERO PUSH2 0x153 JUMPI PUSH0 PUSH0 REVERT JUMPDEST POP PUSH2 0x16E PUSH1 0x4 DUP1 CALLDATASIZE SUB DUP2 ADD SWAP1 PUSH2 0x169 SWAP2 SWAP1 PUSH2 0xAD9 JUMP JUMPDEST PUSH2 0x5A6 JUMP JUMPDEST STOP JUMPDEST CALLVALUE DUP1 ISZERO PUSH2 0x17B JUMPI PUSH0 PUSH0 REVERT JUMPDEST POP PUSH2 0x184 PUSH2 0x826 JUMP JUMPDEST PUSH1 0x40 MLOAD PUSH2 0x191 SWAP2 SWAP1 PUSH2 0xC16 JUMP JUMPDEST PUSH1 0x40 MLOAD DUP1 SWAP2 SUB SWAP1 RETURN JUMPDEST PUSH2 0x1A2 PUSH2 0x8B1 JUMP JUMPDEST STOP JUMPDEST CALLVALUE DUP1 ISZERO PUSH2 0x1AF JUMPI PUSH0 PUSH0 REVERT JUMPDEST POP PUSH2 0x1B8 PUSH2 0x9D1 JUMP JUMPDEST PUSH1 0x40 MLOAD PUSH2 0x1C5 SWAP2 SWAP1 PUSH2 0xA96 JUMP JUMPDEST PUSH1 0x40 MLOAD DUP1 SWAP2 SUB SWAP1 RETURN JUMPDEST PUSH1 0x2 PUSH0 CALLER PUSH20 0xFFFFFFFFFFFFFFFFFFFFFFFFFFFFFFFFFFFFFFFF AND PUSH20 0xFFFFFFFFFFFFFFFFFFFFFFFFFFFFFFFFFFFFFFFF AND DUP2 MSTORE PUSH1 0x20 ADD SWAP1 DUP2 MSTORE PUSH1 0x20 ADD PUSH0 KECCAK256 PUSH0 SWAP1 SLOAD SWAP1 PUSH2 0x100 EXP SWAP1 DIV PUSH1 0xFF AND PUSH2 0x257 JUMPI PUSH1 0x40 MLOAD PUSH32 0x8C379A000000000000000000000000000000000000000000000000000000000 DUP2 MSTORE PUSH1 0x4 ADD PUSH2 0x24E SWAP1 PUSH2 0xC90 JUMP JUMPDEST PUSH1 0x40 MLOAD DUP1 SWAP2 SUB SWAP1 REVERT JUMPDEST PUSH0 DUP2 GT PUSH2 0x299 JUMPI PUSH1 0x40 MLOAD PUSH32 0x8C379A000000000000000000000000000000000000000000000000000000000 DUP2 MSTORE PUSH1 0x4 ADD PUSH2 0x290 SWAP1 PUSH2 0xD1E JUMP JUMPDEST PUSH1 0x40 MLOAD DUP1 SWAP2 SUB SWAP1 REVERT JUMPDEST PUSH1 0x3 PUSH0 CALLER PUSH20 0xFFFFFFFFFFFFFFFFFFFFFFFFFFFFFFFFFFFFFFFF AND PUSH20 0xFFFFFFFFFFFFFFFFFFFFFFFFFFFFFFFFFFFFFFFF AND DUP2 MSTORE PUSH1 0x20 ADD SWAP1 DUP2 MSTORE PUSH1 0x20 ADD PUSH0 KECCAK256 SLOAD DUP2 GT ISZERO PUSH2 0x319 JUMPI PUSH1 0x40 MLOAD PUSH32 0x8C379A000000000000000000000000000000000000000000000000000000000 DUP2 MSTORE PUSH1 0x4 ADD PUSH2 0x310 SWAP1 PUSH2 0xDAC JUMP JUMPDEST PUSH1 0x40 MLOAD DUP1 SWAP2 SUB SWAP1 REVERT JUMPDEST PUSH1 0x4 PUSH0 CALLER PUSH20 0xFFFFFFFFFFFFFFFFFFFFFFFFFFFFFFFFFFFFFFFF AND PUSH20 0xFFFFFFFFFFFFFFFFFFFFFFFFFFFFFFFFFFFFFFFF AND DUP2 MSTORE PUSH1 0x20 ADD SWAP1 DUP2 MSTORE PUSH1 0x20 ADD PUSH0 KECCAK256 SLOAD TIMESTAMP GT PUSH2 0x398 JUMPI PUSH1 0x40 MLOAD PUSH32 0x8C379A000000000000000000000000000000000000000000000000000000000 DUP2 MSTORE PUSH1 0x4 ADD PUSH2 0x38F SWAP1 PUSH2 0xE3A JUMP JUMPDEST PUSH1 0x40 MLOAD DUP1 SWAP2 SUB SWAP1 REVERT JUMPDEST DUP1 PUSH1 0x3 PUSH0 CALLER PUSH20 0xFFFFFFFFFFFFFFFFFFFFFFFFFFFFFFFFFFFFFFFF AND PUSH20 0xFFFFFFFFFFFFFFFFFFFFFFFFFFFFFFFFFFFFFFFF AND DUP2 MSTORE PUSH1 0x20 ADD SWAP1 DUP2 MSTORE PUSH1 0x20 ADD PUSH0 KECCAK256 PUSH0 DUP3 DUP3 SLOAD PUSH2 0x3E4 SWAP2 SWAP1 PUSH2 0xE85 JUMP JUMPDEST SWAP3 POP POP DUP2 SWAP1 SSTORE POP CALLER PUSH20 0xFFFFFFFFFFFFFFFFFFFFFFFFFFFFFFFFFFFFFFFF AND PUSH2 0x8FC DUP3 SWAP1 DUP2 ISZERO MUL SWAP1 PUSH1 0x40 MLOAD PUSH0 PUSH1 0x40 MLOAD DUP1 DUP4 SUB DUP2 DUP6 DUP9 DUP9 CALL SWAP4 POP POP POP POP ISZERO DUP1 ISZERO PUSH2 0x42E JUMPI RETURNDATASIZE PUSH0 PUSH0 RETURNDATACOPY RETURNDATASIZE PUSH0 REVERT JUMPDEST POP PUSH1 0x5 SLOAD TIMESTAMP PUSH2 0x43D SWAP2 SWAP1 PUSH2 0xEB8 JUMP JUMPDEST PUSH1 0x4 PUSH0 CALLER PUSH20 0xFFFFFFFFFFFFFFFFFFFFFFFFFFFFFFFFFFFFFFFF AND PUSH20 0xFFFFFFFFFFFFFFFFFFFFFFFFFFFFFFFFFFFFFFFF AND DUP2 MSTORE PUSH1 0x20 ADD SWAP1 DUP2 MSTORE PUSH1 0x20 ADD PUSH0 KECCAK256 DUP2 SWAP1 SSTORE POP POP JUMP JUMPDEST PUSH1 0x1 DUP2 DUP2 SLOAD DUP2 LT PUSH2 0x490 JUMPI PUSH0 DUP1 REVERT JUMPDEST SWAP1 PUSH0 MSTORE PUSH1 0x20 PUSH0 KECCAK256 ADD PUSH0 SWAP2 POP SLOAD SWAP1 PUSH2 0x100 EXP SWAP1 DIV PUSH20 0xFFFFFFFFFFFFFFFFFFFFFFFFFFFFFFFFFFFFFFFF AND DUP2 JUMP JUMPDEST PUSH1 0x2 PUSH1 0x20 MSTORE DUP1 PUSH0 MSTORE PUSH1 0x40 PUSH0 KECCAK256 PUSH0 SWAP2 POP SLOAD SWAP1 PUSH2 0x100 EXP SWAP1 DIV PUSH1 0xFF AND DUP2 JUMP JUMPDEST PUSH0 PUSH1 0x2 PUSH0 CALLER PUSH20 0xFFFFFFFFFFFFFFFFFFFFFFFFFFFFFFFFFFFFFFFF AND PUSH20 0xFFFFFFFFFFFFFFFFFFFFFFFFFFFFFFFFFFFFFFFF AND DUP2 MSTORE PUSH1 0x20 ADD SWAP1 DUP2 MSTORE PUSH1 0x20 ADD PUSH0 KECCAK256 PUSH0 SWAP1 SLOAD SWAP1 PUSH2 0x100 EXP SWAP1 DIV PUSH1 0xFF AND PUSH2 0x563 JUMPI PUSH1 0x40 MLOAD PUSH32 0x8C379A000000000000000000000000000000000000000000000000000000000 DUP2 MSTORE PUSH1 0x4 ADD PUSH2 0x55A SWAP1 PUSH2 0xC90 JUMP JUMPDEST PUSH1 0x40 MLOAD DUP1 SWAP2 SUB SWAP1 REVERT JUMPDEST PUSH1 0x3 PUSH0 CALLER PUSH20 0xFFFFFFFFFFFFFFFFFFFFFFFFFFFFFFFFFFFFFFFF AND PUSH20 0xFFFFFFFFFFFFFFFFFFFFFFFFFFFFFFFFFFFFFFFF AND DUP2 MSTORE PUSH1 0x20 ADD SWAP1 DUP2 MSTORE PUSH1 0x20 ADD PUSH0 KECCAK256 SLOAD SWAP1 POP SWAP1 JUMP JUMPDEST PUSH0 PUSH0 SWAP1 SLOAD SWAP1 PUSH2 0x100 EXP SWAP1 DIV PUSH20 0xFFFFFFFFFFFFFFFFFFFFFFFFFFFFFFFFFFFFFFFF AND PUSH20 0xFFFFFFFFFFFFFFFFFFFFFFFFFFFFFFFFFFFFFFFF AND CALLER PUSH20 0xFFFFFFFFFFFFFFFFFFFFFFFFFFFFFFFFFFFFFFFF AND EQ PUSH2 0x634 JUMPI PUSH1 0x40 MLOAD PUSH32 0x8C379A000000000000000000000000000000000000000000000000000000000 DUP2 MSTORE PUSH1 0x4 ADD PUSH2 0x62B SWAP1 PUSH2 0xF5B JUMP JUMPDEST PUSH1 0x40 MLOAD DUP1 SWAP2 SUB SWAP1 REVERT JUMPDEST PUSH0 PUSH20 0xFFFFFFFFFFFFFFFFFFFFFFFFFFFFFFFFFFFFFFFF AND DUP2 PUSH20 0xFFFFFFFFFFFFFFFFFFFFFFFFFFFFFFFFFFFFFFFF AND SUB PUSH2 0x6A2 JUMPI PUSH1 0x40 MLOAD PUSH32 0x8C379A000000000000000000000000000000000000000000000000000000000 DUP2 MSTORE PUSH1 0x4 ADD PUSH2 0x699 SWAP1 PUSH2 0xFC3 JUMP JUMPDEST PUSH1 0x40 MLOAD DUP1 SWAP2 SUB SWAP1 REVERT JUMPDEST PUSH1 0x2 PUSH0 DUP3 PUSH20 0xFFFFFFFFFFFFFFFFFFFFFFFFFFFFFFFFFFFFFFFF AND PUSH20 0xFFFFFFFFFFFFFFFFFFFFFFFFFFFFFFFFFFFFFFFF AND DUP2 MSTORE PUSH1 0x20 ADD SWAP1 DUP2 MSTORE PUSH1 0x20 ADD PUSH0 KECCAK256 PUSH0 SWAP1 SLOAD SWAP1 PUSH2 0x100 EXP SWAP1 DIV PUSH1 0xFF AND ISZERO PUSH2 0x72C JUMPI PUSH1 0x40 MLOAD PUSH32 0x8C379A000000000000000000000000000000000000000000000000000000000 DUP2 MSTORE PUSH1 0x4 ADD PUSH2 0x723 SWAP1 PUSH2 0x1051 JUMP JUMPDEST PUSH1 0x40 MLOAD DUP1 SWAP2 SUB SWAP1 REVERT JUMPDEST PUSH1 0x1 PUSH1 0x2 PUSH0 DUP4 PUSH20 0xFFFFFFFFFFFFFFFFFFFFFFFFFFFFFFFFFFFFFFFF AND PUSH20 0xFFFFFFFFFFFFFFFFFFFFFFFFFFFFFFFFFFFFFFFF AND DUP2 MSTORE PUSH1 0x20 ADD SWAP1 DUP2 MSTORE PUSH1 0x20 ADD PUSH0 KECCAK256 PUSH0 PUSH2 0x100 EXP DUP2 SLOAD DUP2 PUSH1 0xFF MUL NOT AND SWAP1 DUP4 ISZERO ISZERO MUL OR SWAP1 SSTORE POP TIMESTAMP PUSH1 0x4 PUSH0 DUP4 PUSH20 0xFFFFFFFFFFFFFFFFFFFFFFFFFFFFFFFFFFFFFFFF AND PUSH20 0xFFFFFFFFFFFFFFFFFFFFFFFFFFFFFFFFFFFFFFFF AND DUP2 MSTORE PUSH1 0x20 ADD SWAP1 DUP2 MSTORE PUSH1 0x20 ADD PUSH0 KECCAK256 DUP2 SWAP1 SSTORE POP PUSH1 0x1 DUP2 SWAP1 DUP1 PUSH1 0x1 DUP2 SLOAD ADD DUP1 DUP3 SSTORE DUP1 SWAP2 POP POP PUSH1 0x1 SWAP1 SUB SWAP1 PUSH0 MSTORE PUSH1 0x20 PUSH0 KECCAK256 ADD PUSH0 SWAP1 SWAP2 SWAP1 SWAP2 SWAP1 SWAP2 PUSH2 0x100 EXP DUP2 SLOAD DUP2 PUSH20 0xFFFFFFFFFFFFFFFFFFFFFFFFFFFFFFFFFFFFFFFF MUL NOT AND SWAP1 DUP4 PUSH20 0xFFFFFFFFFFFFFFFFFFFFFFFFFFFFFFFFFFFFFFFF AND MUL OR SWAP1 SSTORE POP POP JUMP JUMPDEST PUSH1 0x60 PUSH1 0x1 DUP1 SLOAD DUP1 PUSH1 0x20 MUL PUSH1 0x20 ADD PUSH1 0x40 MLOAD SWAP1 DUP2 ADD PUSH1 0x40 MSTORE DUP1 SWAP3 SWAP2 SWAP1 DUP2 DUP2 MSTORE PUSH1 0x20 ADD DUP3 DUP1 SLOAD DUP1 ISZERO PUSH2 0x8A7 JUMPI PUSH1 0x20 MUL DUP3 ADD SWAP2 SWAP1 PUSH0 MSTORE PUSH1 0x20 PUSH0 KECCAK256 SWAP1 JUMPDEST DUP2 PUSH0 SWAP1 SLOAD SWAP1 PUSH2 0x100 EXP SWAP1 DIV PUSH20 0xFFFFFFFFFFFFFFFFFFFFFFFFFFFFFFFFFFFFFFFF AND PUSH20 0xFFFFFFFFFFFFFFFFFFFFFFFFFFFFFFFFFFFFFFFF AND DUP2 MSTORE PUSH1 0x20 ADD SWAP1 PUSH1 0x1 ADD SWAP1 DUP1 DUP4 GT PUSH2 0x85E JUMPI JUMPDEST POP POP POP POP POP SWAP1 POP SWAP1 JUMP JUMPDEST PUSH1 0x2 PUSH0 CALLER PUSH20 0xFFFFFFFFFFFFFFFFFFFFFFFFFFFFFFFFFFFFFFFF AND PUSH20 0xFFFFFFFFFFFFFFFFFFFFFFFFFFFFFFFFFFFFFFFF AND DUP2 MSTORE PUSH1 0x20 ADD SWAP1 DUP2 MSTORE PUSH1 0x20 ADD PUSH0 KECCAK256 PUSH0 SWAP1 SLOAD SWAP1 PUSH2 0x100 EXP SWAP1 DIV PUSH1 0xFF AND PUSH2 0x93A JUMPI PUSH1 0x40 MLOAD PUSH32 0x8C379A000000000000000000000000000000000000000000000000000000000 DUP2 MSTORE PUSH1 0x4 ADD PUSH2 0x931 SWAP1 PUSH2 0xC90 JUMP JUMPDEST PUSH1 0x40 MLOAD DUP1 SWAP2 SUB SWAP1 REVERT JUMPDEST PUSH0 CALLVALUE GT PUSH2 0x97C JUMPI PUSH1 0x40 MLOAD PUSH32 0x8C379A000000000000000000000000000000000000000000000000000000000 DUP2 MSTORE PUSH1 0x4 ADD PUSH2 0x973 SWAP1 PUSH2 0x10B9 JUMP JUMPDEST PUSH1 0x40 MLOAD DUP1 SWAP2 SUB SWAP1 REVERT JUMPDEST CALLVALUE PUSH1 0x3 PUSH0 CALLER PUSH20 0xFFFFFFFFFFFFFFFFFFFFFFFFFFFFFFFFFFFFFFFF AND PUSH20 0xFFFFFFFFFFFFFFFFFFFFFFFFFFFFFFFFFFFFFFFF AND DUP2 MSTORE PUSH1 0x20 ADD SWAP1 DUP2 MSTORE PUSH1 0x20 ADD PUSH0 KECCAK256 PUSH0 DUP3 DUP3 SLOAD PUSH2 0x9C8 SWAP2 SWAP1 PUSH2 0xEB8 JUMP JUMPDEST SWAP3 POP POP DUP2 SWAP1 SSTORE POP JUMP JUMPDEST PUSH0 PUSH0 SWAP1 SLOAD SWAP1 PUSH2 0x100 EXP SWAP1 DIV PUSH20 0xFFFFFFFFFFFFFFFFFFFFFFFFFFFFFFFFFFFFFFFF AND DUP2 JUMP JUMPDEST PUSH0 PUSH0 REVERT JUMPDEST PUSH0 DUP2 SWAP1 POP SWAP2 SWAP1 POP JUMP JUMPDEST PUSH2 0xA0B DUP2 PUSH2 0x9F9 JUMP JUMPDEST DUP2 EQ PUSH2 0xA15 JUMPI PUSH0 PUSH0 REVERT JUMPDEST POP JUMP JUMPDEST PUSH0 DUP2 CALLDATALOAD SWAP1 POP PUSH2 0xA26 DUP2 PUSH2 0xA02 JUMP JUMPDEST SWAP3 SWAP2 POP POP JUMP JUMPDEST PUSH0 PUSH1 0x20 DUP3 DUP5 SUB SLT ISZERO PUSH2 0xA41 JUMPI PUSH2 0xA40 PUSH2 0x9F5 JUMP JUMPDEST JUMPDEST PUSH0 PUSH2 0xA4E DUP5 DUP3 DUP6 ADD PUSH2 0xA18 JUMP JUMPDEST SWAP2 POP POP SWAP3 SWAP2 POP POP JUMP JUMPDEST PUSH0 PUSH20 0xFFFFFFFFFFFFFFFFFFFFFFFFFFFFFFFFFFFFFFFF DUP3 AND SWAP1 POP SWAP2 SWAP1 POP JUMP JUMPDEST PUSH0 PUSH2 0xA80 DUP3 PUSH2 0xA57 JUMP JUMPDEST SWAP1 POP SWAP2 SWAP1 POP JUMP JUMPDEST PUSH2 0xA90 DUP2 PUSH2 0xA76 JUMP JUMPDEST DUP3 MSTORE POP POP JUMP JUMPDEST PUSH0 PUSH1 0x20 DUP3 ADD SWAP1 POP PUSH2 0xAA9 PUSH0 DUP4 ADD DUP5 PUSH2 0xA87 JUMP JUMPDEST SWAP3 SWAP2 POP POP JUMP JUMPDEST PUSH2 0xAB8 DUP2 PUSH2 0xA76 JUMP JUMPDEST DUP2 EQ PUSH2 0xAC2 JUMPI PUSH0 PUSH0 REVERT JUMPDEST POP JUMP JUMPDEST PUSH0 DUP2 CALLDATALOAD SWAP1 POP PUSH2 0xAD3 DUP2 PUSH2 0xAAF JUMP JUMPDEST SWAP3 SWAP2 POP POP JUMP JUMPDEST PUSH0 PUSH1 0x20 DUP3 DUP5 SUB SLT ISZERO PUSH2 0xAEE JUMPI PUSH2 0xAED PUSH2 0x9F5 JUMP JUMPDEST JUMPDEST PUSH0 PUSH2 0xAFB DUP5 DUP3 DUP6 ADD PUSH2 0xAC5 JUMP JUMPDEST SWAP2 POP POP SWAP3 SWAP2 POP POP JUMP JUMPDEST PUSH0 DUP2 ISZERO ISZERO SWAP1 POP SWAP2 SWAP1 POP JUMP JUMPDEST PUSH2 0xB18 DUP2 PUSH2 0xB04 JUMP JUMPDEST DUP3 MSTORE POP POP JUMP JUMPDEST PUSH0 PUSH1 0x20 DUP3 ADD SWAP1 POP PUSH2 0xB31 PUSH0 DUP4 ADD DUP5 PUSH2 0xB0F JUMP JUMPDEST SWAP3 SWAP2 POP POP JUMP JUMPDEST PUSH2 0xB40 DUP2 PUSH2 0x9F9 JUMP JUMPDEST DUP3 MSTORE POP POP JUMP JUMPDEST PUSH0 PUSH1 0x20 DUP3 ADD SWAP1 POP PUSH2 0xB59 PUSH0 DUP4 ADD DUP5 PUSH2 0xB37 JUMP JUMPDEST SWAP3 SWAP2 POP POP JUMP JUMPDEST PUSH0 DUP2 MLOAD SWAP1 POP SWAP2 SWAP1 POP JUMP JUMPDEST PUSH0 DUP3 DUP3 MSTORE PUSH1 0x20 DUP3 ADD SWAP1 POP SWAP3 SWAP2 POP POP JUMP JUMPDEST PUSH0 DUP2 SWAP1 POP PUSH1 0x20 DUP3 ADD SWAP1 POP SWAP2 SWAP1 POP JUMP JUMPDEST PUSH2 0xB91 DUP2 PUSH2 0xA76 JUMP JUMPDEST DUP3 MSTORE POP POP JUMP JUMPDEST PUSH0 PUSH2 0xBA2 DUP4 DUP4 PUSH2 0xB88 JUMP JUMPDEST PUSH1 0x20 DUP4 ADD SWAP1 POP SWAP3 SWAP2 POP POP JUMP JUMPDEST PUSH0 PUSH1 0x20 DUP3 ADD SWAP1 POP SWAP2 SWAP1 POP JUMP JUMPDEST PUSH0 PUSH2 0xBC4 DUP3 PUSH2 0xB5F JUMP JUMPDEST PUSH2 0xBCE DUP2 DUP6 PUSH2 0xB69 JUMP JUMPDEST SWAP4 POP PUSH2 0xBD9 DUP4 PUSH2 0xB79 JUMP JUMPDEST DUP1 PUSH0 JUMPDEST DUP4 DUP2 LT ISZERO PUSH2 0xC09 JUMPI DUP2 MLOAD PUSH2 0xBF0 DUP9 DUP3 PUSH2 0xB97 JUMP JUMPDEST SWAP8 POP PUSH2 0xBFB DUP4 PUSH2 0xBAE JUMP JUMPDEST SWAP3 POP POP PUSH1 0x1 DUP2 ADD SWAP1 POP PUSH2 0xBDC JUMP JUMPDEST POP DUP6 SWAP4 POP POP POP POP SWAP3 SWAP2 POP POP JUMP JUMPDEST PUSH0 PUSH1 0x20 DUP3 ADD SWAP1 POP DUP2 DUP2 SUB PUSH0 DUP4 ADD MSTORE PUSH2 0xC2E DUP2 DUP5 PUSH2 0xBBA JUMP JUMPDEST SWAP1 POP SWAP3 SWAP2 POP POP JUMP JUMPDEST PUSH0 DUP3 DUP3 MSTORE PUSH1 0x20 DUP3 ADD SWAP1 POP SWAP3 SWAP2 POP POP JUMP JUMPDEST PUSH32 0x4D656D626572206E6F7420726567697374657265640000000000000000000000 PUSH0 DUP3 ADD MSTORE POP JUMP JUMPDEST PUSH0 PUSH2 0xC7A PUSH1 0x15 DUP4 PUSH2 0xC36 JUMP JUMPDEST SWAP2 POP PUSH2 0xC85 DUP3 PUSH2 0xC46 JUMP JUMPDEST PUSH1 0x20 DUP3 ADD SWAP1 POP SWAP2 SWAP1 POP JUMP JUMPDEST PUSH0 PUSH1 0x20 DUP3 ADD SWAP1 POP DUP2 DUP2 SUB PUSH0 DUP4 ADD MSTORE PUSH2 0xCA7 DUP2 PUSH2 0xC6E JUMP JUMPDEST SWAP1 POP SWAP2 SWAP1 POP JUMP JUMPDEST PUSH32 0x5769746864726177616C20616D6F756E74206D75737420626520677265617465 PUSH0 DUP3 ADD MSTORE PUSH32 0x72207468616E2030000000000000000000000000000000000000000000000000 PUSH1 0x20 DUP3 ADD MSTORE POP JUMP JUMPDEST PUSH0 PUSH2 0xD08 PUSH1 0x28 DUP4 PUSH2 0xC36 JUMP JUMPDEST SWAP2 POP PUSH2 0xD13 DUP3 PUSH2 0xCAE JUMP JUMPDEST PUSH1 0x40 DUP3 ADD SWAP1 POP SWAP2 SWAP1 POP JUMP JUMPDEST PUSH0 PUSH1 0x20 DUP3 ADD SWAP1 POP DUP2 DUP2 SUB PUSH0 DUP4 ADD MSTORE PUSH2 0xD35 DUP2 PUSH2 0xCFC JUMP JUMPDEST SWAP1 POP SWAP2 SWAP1 POP JUMP JUMPDEST PUSH32 0x496E73756666696369656E742062616C616E636520666F722077697468647261 PUSH0 DUP3 ADD MSTORE PUSH32 0x77616C0000000000000000000000000000000000000000000000000000000000 PUSH1 0x20 DUP3 ADD MSTORE POP JUMP JUMPDEST PUSH0 PUSH2 0xD96 PUSH1 0x23 DUP4 PUSH2 0xC36 JUMP JUMPDEST SWAP2 POP PUSH2 0xDA1 DUP3 PUSH2 0xD3C JUMP JUMPDEST PUSH1 0x40 DUP3 ADD SWAP1 POP SWAP2 SWAP1 POP JUMP JUMPDEST PUSH0 PUSH1 0x20 DUP3 ADD SWAP1 POP DUP2 DUP2 SUB PUSH0 DUP4 ADD MSTORE PUSH2 0xDC3 DUP2 PUSH2 0xD8A JUMP JUMPDEST SWAP1 POP SWAP2 SWAP1 POP JUMP JUMPDEST PUSH32 0x352D6D696E7574652077616974206265747765656E207769746864726177616C PUSH0 DUP3 ADD MSTORE PUSH32 0x7300000000000000000000000000000000000000000000000000000000000000 PUSH1 0x20 DUP3 ADD MSTORE POP JUMP JUMPDEST PUSH0 PUSH2 0xE24 PUSH1 0x21 DUP4 PUSH2 0xC36 JUMP JUMPDEST SWAP2 POP PUSH2 0xE2F DUP3 PUSH2 0xDCA JUMP JUMPDEST PUSH1 0x40 DUP3 ADD SWAP1 POP SWAP2 SWAP1 POP JUMP JUMPDEST PUSH0 PUSH1 0x20 DUP3 ADD SWAP1 POP DUP2 DUP2 SUB PUSH0 DUP4 ADD MSTORE PUSH2 0xE51 DUP2 PUSH2 0xE18 JUMP JUMPDEST SWAP1 POP SWAP2 SWAP1 POP JUMP JUMPDEST PUSH32 0x4E487B7100000000000000000000000000000000000000000000000000000000 PUSH0 MSTORE PUSH1 0x11 PUSH1 0x4 MSTORE PUSH1 0x24 PUSH0 REVERT JUMPDEST PUSH0 PUSH2 0xE8F DUP3 PUSH2 0x9F9 JUMP JUMPDEST SWAP2 POP PUSH2 0xE9A DUP4 PUSH2 0x9F9 JUMP JUMPDEST SWAP3 POP DUP3 DUP3 SUB SWAP1 POP DUP2 DUP2 GT ISZERO PUSH2 0xEB2 JUMPI PUSH2 0xEB1 PUSH2 0xE58 JUMP JUMPDEST JUMPDEST SWAP3 SWAP2 POP POP JUMP JUMPDEST PUSH0 PUSH2 0xEC2 DUP3 PUSH2 0x9F9 JUMP JUMPDEST SWAP2 POP PUSH2 0xECD DUP4 PUSH2 0x9F9 JUMP JUMPDEST SWAP3 POP DUP3 DUP3 ADD SWAP1 POP DUP1 DUP3 GT ISZERO PUSH2 0xEE5 JUMPI PUSH2 0xEE4 PUSH2 0xE58 JUMP JUMPDEST JUMPDEST SWAP3 SWAP2 POP POP JUMP JUMPDEST PUSH32 0x4F6E6C792062616E6B206D616E616765722063616E20706572666F726D207468 PUSH0 DUP3 ADD MSTORE PUSH32 0x697320616374696F6E0000000000000000000000000000000000000000000000 PUSH1 0x20 DUP3 ADD MSTORE POP JUMP JUMPDEST PUSH0 PUSH2 0xF45 PUSH1 0x29 DUP4 PUSH2 0xC36 JUMP JUMPDEST SWAP2 POP PUSH2 0xF50 DUP3 PUSH2 0xEEB JUMP JUMPDEST PUSH1 0x40 DUP3 ADD SWAP1 POP SWAP2 SWAP1 POP JUMP JUMPDEST PUSH0 PUSH1 0x20 DUP3 ADD SWAP1 POP DUP2 DUP2 SUB PUSH0 DUP4 ADD MSTORE PUSH2 0xF72 DUP2 PUSH2 0xF39 JUMP JUMPDEST SWAP1 POP SWAP2 SWAP1 POP JUMP JUMPDEST PUSH32 0x496E76616C696420616464726573730000000000000000000000000000000000 PUSH0 DUP3 ADD MSTORE POP JUMP JUMPDEST PUSH0 PUSH2 0xFAD PUSH1 0xF DUP4 PUSH2 0xC36 JUMP JUMPDEST SWAP2 POP PUSH2 0xFB8 DUP3 PUSH2 0xF79 JUMP JUMPDEST PUSH1 0x20 DUP3 ADD SWAP1 POP SWAP2 SWAP1 POP JUMP JUMPDEST PUSH0 PUSH1 0x20 DUP3 ADD SWAP1 POP DUP2 DUP2 SUB PUSH0 DUP4 ADD MSTORE PUSH2 0xFDA DUP2 PUSH2 0xFA1 JUMP JUMPDEST SWAP1 POP SWAP2 SWAP1 POP JUMP JUMPDEST PUSH32 0x54686973206D656D62657220697320616C726561647920726567697374657265 PUSH0 DUP3 ADD MSTORE PUSH32 0x6400000000000000000000000000000000000000000000000000000000000000 PUSH1 0x20 DUP3 ADD MSTORE POP JUMP JUMPDEST PUSH0 PUSH2 0x103B PUSH1 0x21 DUP4 PUSH2 0xC36 JUMP JUMPDEST SWAP2 POP PUSH2 0x1046 DUP3 PUSH2 0xFE1 JUMP JUMPDEST PUSH1 0x40 DUP3 ADD SWAP1 POP SWAP2 SWAP1 POP JUMP JUMPDEST PUSH0 PUSH1 0x20 DUP3 ADD SWAP1 POP DUP2 DUP2 SUB PUSH0 DUP4 ADD MSTORE PUSH2 0x1068 DUP2 PUSH2 0x102F JUMP JUMPDEST SWAP1 POP SWAP2 SWAP1 POP JUMP JUMPDEST PUSH32 0x496E76616C696420616D6F756E74000000000000000000000000000000000000 PUSH0 DUP3 ADD MSTORE POP JUMP JUMPDEST PUSH0 PUSH2 0x10A3 PUSH1 0xE DUP4 PUSH2 0xC36 JUMP JUMPDEST SWAP2 POP PUSH2 0x10AE DUP3 PUSH2 0x106F JUMP JUMPDEST PUSH1 0x20 DUP3 ADD SWAP1 POP SWAP2 SWAP1 POP JUMP JUMPDEST PUSH0 PUSH1 0x20 DUP3 ADD SWAP1 POP DUP2 DUP2 SUB PUSH0 DUP4 ADD MSTORE PUSH2 0x10D0 DUP2 PUSH2 0x1097 JUMP JUMPDEST SWAP1 POP SWAP2 SWAP1 POP JUMP INVALID LOG2 PUSH5 0x6970667358 0x22 SLT KECCAK256 DATALOADN 0x7CB1 0xBD 0xD6 REVERT 0xE9 LOG0 0xC4 0x2A TLOAD PUSH25 0x3929E937FD4FB2AA46CBAB2E68A4EC481CAEE0B064736F6C63 NUMBER STOP ADDMOD 0x1E STOP CALLER "
				},
				"gasEstimates": {
					"creation": {
						"codeDepositCost": "873000",
						"executionCost": "142405",
						"totalCost": "1015405"
					},
					"external": {
						"addMembers(address)": "100025",
						"bankManager()": "2573",
						"deposit()": "infinite",
						"getBalanceDetail()": "4825",
						"getMembers()": "infinite",
						"members(uint256)": "4967",
						"registeredMembers(address)": "2878",
						"withdraw(uint256)": "infinite"
					}
				},
				"methodIdentifiers": {
					"addMembers(address)": "939f284c",
					"bankManager()": "e9e2990e",
					"deposit()": "d0e30db0",
					"getBalanceDetail()": "8e49c52c",
					"getMembers()": "9eab5253",
					"members(uint256)": "5daf08ca",
					"registeredMembers(address)": "7254647a",
					"withdraw(uint256)": "2e1a7d4d"
				}
			},
			"storageLayout": {
				"storage": [
					{
						"astId": 3,
						"contract": "submissions/Vera/day6.sol:SavingGroup",
						"label": "bankManager",
						"offset": 0,
						"slot": "0",
						"type": "t_address"
					},
					{
						"astId": 6,
						"contract": "submissions/Vera/day6.sol:SavingGroup",
						"label": "members",
						"offset": 0,
						"slot": "1",
						"type": "t_array(t_address)dyn_storage"
					},
					{
						"astId": 10,
						"contract": "submissions/Vera/day6.sol:SavingGroup",
						"label": "registeredMembers",
						"offset": 0,
						"slot": "2",
						"type": "t_mapping(t_address,t_bool)"
					},
					{
						"astId": 14,
						"contract": "submissions/Vera/day6.sol:SavingGroup",
						"label": "balance",
						"offset": 0,
						"slot": "3",
						"type": "t_mapping(t_address,t_uint256)"
					},
					{
						"astId": 18,
						"contract": "submissions/Vera/day6.sol:SavingGroup",
						"label": "withdrawTimer",
						"offset": 0,
						"slot": "4",
						"type": "t_mapping(t_address,t_uint256)"
					},
					{
						"astId": 21,
						"contract": "submissions/Vera/day6.sol:SavingGroup",
						"label": "timer",
						"offset": 0,
						"slot": "5",
						"type": "t_uint256"
					}
				],
				"types": {
					"t_address": {
						"encoding": "inplace",
						"label": "address",
						"numberOfBytes": "20"
					},
					"t_array(t_address)dyn_storage": {
						"base": "t_address",
						"encoding": "dynamic_array",
						"label": "address[]",
						"numberOfBytes": "32"
					},
					"t_bool": {
						"encoding": "inplace",
						"label": "bool",
						"numberOfBytes": "1"
					},
					"t_mapping(t_address,t_bool)": {
						"encoding": "mapping",
						"key": "t_address",
						"label": "mapping(address => bool)",
						"numberOfBytes": "32",
						"value": "t_bool"
					},
					"t_mapping(t_address,t_uint256)": {
						"encoding": "mapping",
						"key": "t_address",
						"label": "mapping(address => uint256)",
						"numberOfBytes": "32",
						"value": "t_uint256"
					},
					"t_uint256": {
						"encoding": "inplace",
						"label": "uint256",
						"numberOfBytes": "32"
					}
				}
			},
			"userdoc": {
				"kind": "user",
				"methods": {},
				"version": 1
			}
		}
	}
}