{
	"submissions/yuriofi/Day5.sol": {
		"AdminOnly": {
			"abi": [
				{
					"inputs": [],
					"stateMutability": "nonpayable",
					"type": "constructor"
				},
				{
					"inputs": [
						{
							"internalType": "uint256",
							"name": "amount",
							"type": "uint256"
						}
					],
					"name": "addTreasure",
					"outputs": [],
					"stateMutability": "nonpayable",
					"type": "function"
				},
				{
					"inputs": [
						{
							"internalType": "address",
							"name": "recipient",
							"type": "address"
						},
						{
							"internalType": "uint256",
							"name": "amount",
							"type": "uint256"
						}
					],
					"name": "approveWithdrawal",
					"outputs": [],
					"stateMutability": "nonpayable",
					"type": "function"
				},
				{
					"inputs": [],
					"name": "getTreasureDetails",
					"outputs": [
						{
							"internalType": "uint256",
							"name": "",
							"type": "uint256"
						}
					],
					"stateMutability": "view",
					"type": "function"
				},
				{
					"inputs": [
						{
							"internalType": "address",
							"name": "",
							"type": "address"
						}
					],
					"name": "hasWithdrawn",
					"outputs": [
						{
							"internalType": "bool",
							"name": "",
							"type": "bool"
						}
					],
					"stateMutability": "view",
					"type": "function"
				},
				{
					"inputs": [],
					"name": "owner",
					"outputs": [
						{
							"internalType": "address",
							"name": "",
							"type": "address"
						}
					],
					"stateMutability": "view",
					"type": "function"
				},
				{
					"inputs": [
						{
							"internalType": "address",
							"name": "user",
							"type": "address"
						}
					],
					"name": "resetWithdrawalStatus",
					"outputs": [],
					"stateMutability": "nonpayable",
					"type": "function"
				},
				{
					"inputs": [
						{
							"internalType": "address",
							"name": "newOwner",
							"type": "address"
						}
					],
					"name": "transferOwnership",
					"outputs": [],
					"stateMutability": "nonpayable",
					"type": "function"
				},
				{
					"inputs": [],
					"name": "treasureAmount",
					"outputs": [
						{
							"internalType": "uint256",
							"name": "",
							"type": "uint256"
						}
					],
					"stateMutability": "view",
					"type": "function"
				},
				{
					"inputs": [
						{
							"internalType": "uint256",
							"name": "amount",
							"type": "uint256"
						}
					],
					"name": "withdrawTreasure",
					"outputs": [],
					"stateMutability": "nonpayable",
					"type": "function"
				},
				{
					"inputs": [
						{
							"internalType": "address",
							"name": "",
							"type": "address"
						}
					],
					"name": "withdrawalAllowance",
					"outputs": [
						{
							"internalType": "uint256",
							"name": "",
							"type": "uint256"
						}
					],
					"stateMutability": "view",
					"type": "function"
				}
			],
			"devdoc": {
				"kind": "dev",
				"methods": {},
				"version": 1
			},
			"evm": {
				"assembly": "    /* \"submissions/yuriofi/Day5.sol\":61:1879  contract AdminOnly{... */\n  mstore(0x40, 0x80)\n    /* \"submissions/yuriofi/Day5.sol\":263:311  constructor(){... */\n  callvalue\n  dup1\n  iszero\n  tag_1\n  jumpi\n  revert(0x00, 0x00)\ntag_1:\n  pop\n    /* \"submissions/yuriofi/Day5.sol\":293:303  msg.sender */\n  caller\n    /* \"submissions/yuriofi/Day5.sol\":287:292  owner */\n  0x00\n  0x00\n    /* \"submissions/yuriofi/Day5.sol\":287:303  owner=msg.sender */\n  0x0100\n  exp\n  dup2\n  sload\n  dup2\n  0xffffffffffffffffffffffffffffffffffffffff\n  mul\n  not\n  and\n  swap1\n  dup4\n  0xffffffffffffffffffffffffffffffffffffffff\n  and\n  mul\n  or\n  swap1\n  sstore\n  pop\n    /* \"submissions/yuriofi/Day5.sol\":61:1879  contract AdminOnly{... */\n  dataSize(sub_0)\n  dup1\n  dataOffset(sub_0)\n  0x00\n  codecopy\n  0x00\n  return\nstop\n\nsub_0: assembly {\n        /* \"submissions/yuriofi/Day5.sol\":61:1879  contract AdminOnly{... */\n      mstore(0x40, 0x80)\n      callvalue\n      dup1\n      iszero\n      tag_1\n      jumpi\n      revert(0x00, 0x00)\n    tag_1:\n      pop\n      jumpi(tag_2, lt(calldatasize, 0x04))\n      shr(0xe0, calldataload(0x00))\n      dup1\n      0xaca5b346\n      gt\n      tag_13\n      jumpi\n      dup1\n      0xaca5b346\n      eq\n      tag_8\n      jumpi\n      dup1\n      0xdfbb36f9\n      eq\n      tag_9\n      jumpi\n      dup1\n      0xe0147005\n      eq\n      tag_10\n      jumpi\n      dup1\n      0xf2fde38b\n      eq\n      tag_11\n      jumpi\n      dup1\n      0xf4970e71\n      eq\n      tag_12\n      jumpi\n      jump(tag_2)\n    tag_13:\n      dup1\n      0x5b238ee5\n      eq\n      tag_3\n      jumpi\n      dup1\n      0x5e2c19db\n      eq\n      tag_4\n      jumpi\n      dup1\n      0x774124fa\n      eq\n      tag_5\n      jumpi\n      dup1\n      0x8da5cb5b\n      eq\n      tag_6\n      jumpi\n      dup1\n      0x941907de\n      eq\n      tag_7\n      jumpi\n    tag_2:\n      revert(0x00, 0x00)\n        /* \"submissions/yuriofi/Day5.sol\":113:142  uint256 public treasureAmount */\n    tag_3:\n      tag_14\n      tag_15\n      jump\t// in\n    tag_14:\n      mload(0x40)\n      tag_16\n      swap2\n      swap1\n      tag_17\n      jump\t// in\n    tag_16:\n      mload(0x40)\n      dup1\n      swap2\n      sub\n      swap1\n      return\n        /* \"submissions/yuriofi/Day5.sol\":211:252  mapping(address=>bool)public hasWithdrawn */\n    tag_4:\n      tag_18\n      0x04\n      dup1\n      calldatasize\n      sub\n      dup2\n      add\n      swap1\n      tag_19\n      swap2\n      swap1\n      tag_20\n      jump\t// in\n    tag_19:\n      tag_21\n      jump\t// in\n    tag_18:\n      mload(0x40)\n      tag_22\n      swap2\n      swap1\n      tag_23\n      jump\t// in\n    tag_22:\n      mload(0x40)\n      dup1\n      swap2\n      sub\n      swap1\n      return\n        /* \"submissions/yuriofi/Day5.sol\":1748:1854  function getTreasureDetails() public view onlyOwner returns (uint256) {... */\n    tag_5:\n      tag_24\n      tag_25\n      jump\t// in\n    tag_24:\n      mload(0x40)\n      tag_26\n      swap2\n      swap1\n      tag_17\n      jump\t// in\n    tag_26:\n      mload(0x40)\n      dup1\n      swap2\n      sub\n      swap1\n      return\n        /* \"submissions/yuriofi/Day5.sol\":86:106  address public owner */\n    tag_6:\n      tag_27\n      tag_28\n      jump\t// in\n    tag_27:\n      mload(0x40)\n      tag_29\n      swap2\n      swap1\n      tag_30\n      jump\t// in\n    tag_29:\n      mload(0x40)\n      dup1\n      swap2\n      sub\n      swap1\n      return\n        /* \"submissions/yuriofi/Day5.sol\":1477:1582  function resetWithdrawalStatus(address user) public onlyOwner {... */\n    tag_7:\n      tag_31\n      0x04\n      dup1\n      calldatasize\n      sub\n      dup2\n      add\n      swap1\n      tag_32\n      swap2\n      swap1\n      tag_20\n      jump\t// in\n    tag_32:\n      tag_33\n      jump\t// in\n    tag_31:\n      stop\n        /* \"submissions/yuriofi/Day5.sol\":777:1469  function withdrawTreasure(uint256 amount)public {... */\n    tag_8:\n      tag_34\n      0x04\n      dup1\n      calldatasize\n      sub\n      dup2\n      add\n      swap1\n      tag_35\n      swap2\n      swap1\n      tag_36\n      jump\t// in\n    tag_35:\n      tag_37\n      jump\t// in\n    tag_34:\n      stop\n        /* \"submissions/yuriofi/Day5.sol\":149:204  mapping (address => uint256) public withdrawalAllowance */\n    tag_9:\n      tag_38\n      0x04\n      dup1\n      calldatasize\n      sub\n      dup2\n      add\n      swap1\n      tag_39\n      swap2\n      swap1\n      tag_20\n      jump\t// in\n    tag_39:\n      tag_40\n      jump\t// in\n    tag_38:\n      mload(0x40)\n      tag_41\n      swap2\n      swap1\n      tag_17\n      jump\t// in\n    tag_41:\n      mload(0x40)\n      dup1\n      swap2\n      sub\n      swap1\n      return\n        /* \"submissions/yuriofi/Day5.sol\":460:554  function addTreasure(uint256 amount) public onlyOwner{... */\n    tag_10:\n      tag_42\n      0x04\n      dup1\n      calldatasize\n      sub\n      dup2\n      add\n      swap1\n      tag_43\n      swap2\n      swap1\n      tag_36\n      jump\t// in\n    tag_43:\n      tag_44\n      jump\t// in\n    tag_42:\n      stop\n        /* \"submissions/yuriofi/Day5.sol\":1590:1740  function transferOwnership(address newOwner) public onlyOwner {... */\n    tag_11:\n      tag_45\n      0x04\n      dup1\n      calldatasize\n      sub\n      dup2\n      add\n      swap1\n      tag_46\n      swap2\n      swap1\n      tag_20\n      jump\t// in\n    tag_46:\n      tag_47\n      jump\t// in\n    tag_45:\n      stop\n        /* \"submissions/yuriofi/Day5.sol\":562:769  function approveWithdrawal(address recipient,uint256 amount) public onlyOwner{... */\n    tag_12:\n      tag_48\n      0x04\n      dup1\n      calldatasize\n      sub\n      dup2\n      add\n      swap1\n      tag_49\n      swap2\n      swap1\n      tag_50\n      jump\t// in\n    tag_49:\n      tag_51\n      jump\t// in\n    tag_48:\n      stop\n        /* \"submissions/yuriofi/Day5.sol\":113:142  uint256 public treasureAmount */\n    tag_15:\n      sload(0x01)\n      dup2\n      jump\t// out\n        /* \"submissions/yuriofi/Day5.sol\":211:252  mapping(address=>bool)public hasWithdrawn */\n    tag_21:\n      mstore(0x20, 0x03)\n      dup1\n      0x00\n      mstore\n      keccak256(0x00, 0x40)\n      0x00\n      swap2\n      pop\n      sload\n      swap1\n      0x0100\n      exp\n      swap1\n      div\n      0xff\n      and\n      dup2\n      jump\t// out\n        /* \"submissions/yuriofi/Day5.sol\":1748:1854  function getTreasureDetails() public view onlyOwner returns (uint256) {... */\n    tag_25:\n        /* \"submissions/yuriofi/Day5.sol\":1809:1816  uint256 */\n      0x00\n        /* \"submissions/yuriofi/Day5.sol\":370:375  owner */\n      0x00\n      0x00\n      swap1\n      sload\n      swap1\n      0x0100\n      exp\n      swap1\n      div\n      0xffffffffffffffffffffffffffffffffffffffff\n      and\n        /* \"submissions/yuriofi/Day5.sol\":358:375  msg.sender==owner */\n      0xffffffffffffffffffffffffffffffffffffffff\n      and\n        /* \"submissions/yuriofi/Day5.sol\":358:368  msg.sender */\n      caller\n        /* \"submissions/yuriofi/Day5.sol\":358:375  msg.sender==owner */\n      0xffffffffffffffffffffffffffffffffffffffff\n      and\n      eq\n        /* \"submissions/yuriofi/Day5.sol\":350:432  require(msg.sender==owner,\"Access denied: Only the owner can perform this action\") */\n      tag_53\n      jumpi\n      mload(0x40)\n      0x08c379a000000000000000000000000000000000000000000000000000000000\n      dup2\n      mstore\n      0x04\n      add\n      tag_54\n      swap1\n      tag_55\n      jump\t// in\n    tag_54:\n      mload(0x40)\n      dup1\n      swap2\n      sub\n      swap1\n      revert\n    tag_53:\n        /* \"submissions/yuriofi/Day5.sol\":1832:1846  treasureAmount */\n      sload(0x01)\n        /* \"submissions/yuriofi/Day5.sol\":1825:1846  return treasureAmount */\n      swap1\n      pop\n        /* \"submissions/yuriofi/Day5.sol\":1748:1854  function getTreasureDetails() public view onlyOwner returns (uint256) {... */\n      swap1\n      jump\t// out\n        /* \"submissions/yuriofi/Day5.sol\":86:106  address public owner */\n    tag_28:\n      0x00\n      0x00\n      swap1\n      sload\n      swap1\n      0x0100\n      exp\n      swap1\n      div\n      0xffffffffffffffffffffffffffffffffffffffff\n      and\n      dup2\n      jump\t// out\n        /* \"submissions/yuriofi/Day5.sol\":1477:1582  function resetWithdrawalStatus(address user) public onlyOwner {... */\n    tag_33:\n        /* \"submissions/yuriofi/Day5.sol\":370:375  owner */\n      0x00\n      0x00\n      swap1\n      sload\n      swap1\n      0x0100\n      exp\n      swap1\n      div\n      0xffffffffffffffffffffffffffffffffffffffff\n      and\n        /* \"submissions/yuriofi/Day5.sol\":358:375  msg.sender==owner */\n      0xffffffffffffffffffffffffffffffffffffffff\n      and\n        /* \"submissions/yuriofi/Day5.sol\":358:368  msg.sender */\n      caller\n        /* \"submissions/yuriofi/Day5.sol\":358:375  msg.sender==owner */\n      0xffffffffffffffffffffffffffffffffffffffff\n      and\n      eq\n        /* \"submissions/yuriofi/Day5.sol\":350:432  require(msg.sender==owner,\"Access denied: Only the owner can perform this action\") */\n      tag_58\n      jumpi\n      mload(0x40)\n      0x08c379a000000000000000000000000000000000000000000000000000000000\n      dup2\n      mstore\n      0x04\n      add\n      tag_59\n      swap1\n      tag_55\n      jump\t// in\n    tag_59:\n      mload(0x40)\n      dup1\n      swap2\n      sub\n      swap1\n      revert\n    tag_58:\n        /* \"submissions/yuriofi/Day5.sol\":1567:1572  false */\n      0x00\n        /* \"submissions/yuriofi/Day5.sol\":1546:1558  hasWithdrawn */\n      0x03\n        /* \"submissions/yuriofi/Day5.sol\":1546:1564  hasWithdrawn[user] */\n      0x00\n        /* \"submissions/yuriofi/Day5.sol\":1559:1563  user */\n      dup4\n        /* \"submissions/yuriofi/Day5.sol\":1546:1564  hasWithdrawn[user] */\n      0xffffffffffffffffffffffffffffffffffffffff\n      and\n      0xffffffffffffffffffffffffffffffffffffffff\n      and\n      dup2\n      mstore\n      0x20\n      add\n      swap1\n      dup2\n      mstore\n      0x20\n      add\n      0x00\n      keccak256\n      0x00\n        /* \"submissions/yuriofi/Day5.sol\":1546:1572  hasWithdrawn[user] = false */\n      0x0100\n      exp\n      dup2\n      sload\n      dup2\n      0xff\n      mul\n      not\n      and\n      swap1\n      dup4\n      iszero\n      iszero\n      mul\n      or\n      swap1\n      sstore\n      pop\n        /* \"submissions/yuriofi/Day5.sol\":1477:1582  function resetWithdrawalStatus(address user) public onlyOwner {... */\n      pop\n      jump\t// out\n        /* \"submissions/yuriofi/Day5.sol\":777:1469  function withdrawTreasure(uint256 amount)public {... */\n    tag_37:\n        /* \"submissions/yuriofi/Day5.sol\":851:856  owner */\n      0x00\n      0x00\n      swap1\n      sload\n      swap1\n      0x0100\n      exp\n      swap1\n      div\n      0xffffffffffffffffffffffffffffffffffffffff\n      and\n        /* \"submissions/yuriofi/Day5.sol\":839:856  msg.sender==owner */\n      0xffffffffffffffffffffffffffffffffffffffff\n      and\n        /* \"submissions/yuriofi/Day5.sol\":839:849  msg.sender */\n      caller\n        /* \"submissions/yuriofi/Day5.sol\":839:856  msg.sender==owner */\n      0xffffffffffffffffffffffffffffffffffffffff\n      and\n      sub\n        /* \"submissions/yuriofi/Day5.sol\":836:1022  if(msg.sender==owner){... */\n      tag_62\n      jumpi\n        /* \"submissions/yuriofi/Day5.sol\":888:902  treasureAmount */\n      sload(0x01)\n        /* \"submissions/yuriofi/Day5.sol\":880:886  amount */\n      dup2\n        /* \"submissions/yuriofi/Day5.sol\":880:902  amount<=treasureAmount */\n      gt\n      iszero\n        /* \"submissions/yuriofi/Day5.sol\":872:952  require(amount<=treasureAmount,\"Not enough treasure available for this action.\") */\n      tag_63\n      jumpi\n      mload(0x40)\n      0x08c379a000000000000000000000000000000000000000000000000000000000\n      dup2\n      mstore\n      0x04\n      add\n      tag_64\n      swap1\n      tag_65\n      jump\t// in\n    tag_64:\n      mload(0x40)\n      dup1\n      swap2\n      sub\n      swap1\n      revert\n    tag_63:\n        /* \"submissions/yuriofi/Day5.sol\":983:989  amount */\n      dup1\n        /* \"submissions/yuriofi/Day5.sol\":967:981  treasureAmount */\n      0x01\n      0x00\n        /* \"submissions/yuriofi/Day5.sol\":967:989  treasureAmount-=amount */\n      dup3\n      dup3\n      sload\n      tag_66\n      swap2\n      swap1\n      tag_67\n      jump\t// in\n    tag_66:\n      swap3\n      pop\n      pop\n      dup2\n      swap1\n      sstore\n      pop\n        /* \"submissions/yuriofi/Day5.sol\":1004:1011  return; */\n      jump(tag_61)\n        /* \"submissions/yuriofi/Day5.sol\":836:1022  if(msg.sender==owner){... */\n    tag_62:\n        /* \"submissions/yuriofi/Day5.sol\":1032:1049  uint256 allowance */\n      0x00\n        /* \"submissions/yuriofi/Day5.sol\":1052:1071  withdrawalAllowance */\n      0x02\n        /* \"submissions/yuriofi/Day5.sol\":1052:1083  withdrawalAllowance[msg.sender] */\n      0x00\n        /* \"submissions/yuriofi/Day5.sol\":1072:1082  msg.sender */\n      caller\n        /* \"submissions/yuriofi/Day5.sol\":1052:1083  withdrawalAllowance[msg.sender] */\n      0xffffffffffffffffffffffffffffffffffffffff\n      and\n      0xffffffffffffffffffffffffffffffffffffffff\n      and\n      dup2\n      mstore\n      0x20\n      add\n      swap1\n      dup2\n      mstore\n      0x20\n      add\n      0x00\n      keccak256\n      sload\n        /* \"submissions/yuriofi/Day5.sol\":1032:1083  uint256 allowance = withdrawalAllowance[msg.sender] */\n      swap1\n      pop\n        /* \"submissions/yuriofi/Day5.sol\":1114:1115  0 */\n      0x00\n        /* \"submissions/yuriofi/Day5.sol\":1102:1111  allowance */\n      dup2\n        /* \"submissions/yuriofi/Day5.sol\":1102:1115  allowance > 0 */\n      gt\n        /* \"submissions/yuriofi/Day5.sol\":1094:1157  require(allowance > 0, \"You don't have any treasure allowance\") */\n      tag_68\n      jumpi\n      mload(0x40)\n      0x08c379a000000000000000000000000000000000000000000000000000000000\n      dup2\n      mstore\n      0x04\n      add\n      tag_69\n      swap1\n      tag_70\n      jump\t// in\n    tag_69:\n      mload(0x40)\n      dup1\n      swap2\n      sub\n      swap1\n      revert\n    tag_68:\n        /* \"submissions/yuriofi/Day5.sol\":1177:1189  hasWithdrawn */\n      0x03\n        /* \"submissions/yuriofi/Day5.sol\":1177:1201  hasWithdrawn[msg.sender] */\n      0x00\n        /* \"submissions/yuriofi/Day5.sol\":1190:1200  msg.sender */\n      caller\n        /* \"submissions/yuriofi/Day5.sol\":1177:1201  hasWithdrawn[msg.sender] */\n      0xffffffffffffffffffffffffffffffffffffffff\n      and\n      0xffffffffffffffffffffffffffffffffffffffff\n      and\n      dup2\n      mstore\n      0x20\n      add\n      swap1\n      dup2\n      mstore\n      0x20\n      add\n      0x00\n      keccak256\n      0x00\n      swap1\n      sload\n      swap1\n      0x0100\n      exp\n      swap1\n      div\n      0xff\n      and\n        /* \"submissions/yuriofi/Day5.sol\":1176:1201  !hasWithdrawn[msg.sender] */\n      iszero\n        /* \"submissions/yuriofi/Day5.sol\":1168:1246  require(!hasWithdrawn[msg.sender], \"You have already withdrawn your treasure\") */\n      tag_71\n      jumpi\n      mload(0x40)\n      0x08c379a000000000000000000000000000000000000000000000000000000000\n      dup2\n      mstore\n      0x04\n      add\n      tag_72\n      swap1\n      tag_73\n      jump\t// in\n    tag_72:\n      mload(0x40)\n      dup1\n      swap2\n      sub\n      swap1\n      revert\n    tag_71:\n        /* \"submissions/yuriofi/Day5.sol\":1278:1292  treasureAmount */\n      sload(0x01)\n        /* \"submissions/yuriofi/Day5.sol\":1265:1274  allowance */\n      dup2\n        /* \"submissions/yuriofi/Day5.sol\":1265:1292  allowance <= treasureAmount */\n      gt\n      iszero\n        /* \"submissions/yuriofi/Day5.sol\":1257:1329  require(allowance <= treasureAmount, \"Not enough treasure in the chest\") */\n      tag_74\n      jumpi\n      mload(0x40)\n      0x08c379a000000000000000000000000000000000000000000000000000000000\n      dup2\n      mstore\n      0x04\n      add\n      tag_75\n      swap1\n      tag_76\n      jump\t// in\n    tag_75:\n      mload(0x40)\n      dup1\n      swap2\n      sub\n      swap1\n      revert\n    tag_74:\n        /* \"submissions/yuriofi/Day5.sol\":1369:1373  true */\n      0x01\n        /* \"submissions/yuriofi/Day5.sol\":1342:1354  hasWithdrawn */\n      0x03\n        /* \"submissions/yuriofi/Day5.sol\":1342:1366  hasWithdrawn[msg.sender] */\n      0x00\n        /* \"submissions/yuriofi/Day5.sol\":1355:1365  msg.sender */\n      caller\n        /* \"submissions/yuriofi/Day5.sol\":1342:1366  hasWithdrawn[msg.sender] */\n      0xffffffffffffffffffffffffffffffffffffffff\n      and\n      0xffffffffffffffffffffffffffffffffffffffff\n      and\n      dup2\n      mstore\n      0x20\n      add\n      swap1\n      dup2\n      mstore\n      0x20\n      add\n      0x00\n      keccak256\n      0x00\n        /* \"submissions/yuriofi/Day5.sol\":1342:1373  hasWithdrawn[msg.sender] = true */\n      0x0100\n      exp\n      dup2\n      sload\n      dup2\n      0xff\n      mul\n      not\n      and\n      swap1\n      dup4\n      iszero\n      iszero\n      mul\n      or\n      swap1\n      sstore\n      pop\n        /* \"submissions/yuriofi/Day5.sol\":1402:1411  allowance */\n      dup1\n        /* \"submissions/yuriofi/Day5.sol\":1384:1398  treasureAmount */\n      0x01\n      0x00\n        /* \"submissions/yuriofi/Day5.sol\":1384:1411  treasureAmount -= allowance */\n      dup3\n      dup3\n      sload\n      tag_77\n      swap2\n      swap1\n      tag_67\n      jump\t// in\n    tag_77:\n      swap3\n      pop\n      pop\n      dup2\n      swap1\n      sstore\n      pop\n        /* \"submissions/yuriofi/Day5.sol\":1456:1457  0 */\n      0x00\n        /* \"submissions/yuriofi/Day5.sol\":1422:1441  withdrawalAllowance */\n      0x02\n        /* \"submissions/yuriofi/Day5.sol\":1422:1453  withdrawalAllowance[msg.sender] */\n      0x00\n        /* \"submissions/yuriofi/Day5.sol\":1442:1452  msg.sender */\n      caller\n        /* \"submissions/yuriofi/Day5.sol\":1422:1453  withdrawalAllowance[msg.sender] */\n      0xffffffffffffffffffffffffffffffffffffffff\n      and\n      0xffffffffffffffffffffffffffffffffffffffff\n      and\n      dup2\n      mstore\n      0x20\n      add\n      swap1\n      dup2\n      mstore\n      0x20\n      add\n      0x00\n      keccak256\n        /* \"submissions/yuriofi/Day5.sol\":1422:1457  withdrawalAllowance[msg.sender] = 0 */\n      dup2\n      swap1\n      sstore\n      pop\n        /* \"submissions/yuriofi/Day5.sol\":825:1469  {... */\n      pop\n        /* \"submissions/yuriofi/Day5.sol\":777:1469  function withdrawTreasure(uint256 amount)public {... */\n    tag_61:\n      pop\n      jump\t// out\n        /* \"submissions/yuriofi/Day5.sol\":149:204  mapping (address => uint256) public withdrawalAllowance */\n    tag_40:\n      mstore(0x20, 0x02)\n      dup1\n      0x00\n      mstore\n      keccak256(0x00, 0x40)\n      0x00\n      swap2\n      pop\n      swap1\n      pop\n      sload\n      dup2\n      jump\t// out\n        /* \"submissions/yuriofi/Day5.sol\":460:554  function addTreasure(uint256 amount) public onlyOwner{... */\n    tag_44:\n        /* \"submissions/yuriofi/Day5.sol\":370:375  owner */\n      0x00\n      0x00\n      swap1\n      sload\n      swap1\n      0x0100\n      exp\n      swap1\n      div\n      0xffffffffffffffffffffffffffffffffffffffff\n      and\n        /* \"submissions/yuriofi/Day5.sol\":358:375  msg.sender==owner */\n      0xffffffffffffffffffffffffffffffffffffffff\n      and\n        /* \"submissions/yuriofi/Day5.sol\":358:368  msg.sender */\n      caller\n        /* \"submissions/yuriofi/Day5.sol\":358:375  msg.sender==owner */\n      0xffffffffffffffffffffffffffffffffffffffff\n      and\n      eq\n        /* \"submissions/yuriofi/Day5.sol\":350:432  require(msg.sender==owner,\"Access denied: Only the owner can perform this action\") */\n      tag_79\n      jumpi\n      mload(0x40)\n      0x08c379a000000000000000000000000000000000000000000000000000000000\n      dup2\n      mstore\n      0x04\n      add\n      tag_80\n      swap1\n      tag_55\n      jump\t// in\n    tag_80:\n      mload(0x40)\n      dup1\n      swap2\n      sub\n      swap1\n      revert\n    tag_79:\n        /* \"submissions/yuriofi/Day5.sol\":540:546  amount */\n      dup1\n        /* \"submissions/yuriofi/Day5.sol\":524:538  treasureAmount */\n      0x01\n      0x00\n        /* \"submissions/yuriofi/Day5.sol\":524:546  treasureAmount+=amount */\n      dup3\n      dup3\n      sload\n      tag_82\n      swap2\n      swap1\n      tag_83\n      jump\t// in\n    tag_82:\n      swap3\n      pop\n      pop\n      dup2\n      swap1\n      sstore\n      pop\n        /* \"submissions/yuriofi/Day5.sol\":460:554  function addTreasure(uint256 amount) public onlyOwner{... */\n      pop\n      jump\t// out\n        /* \"submissions/yuriofi/Day5.sol\":1590:1740  function transferOwnership(address newOwner) public onlyOwner {... */\n    tag_47:\n        /* \"submissions/yuriofi/Day5.sol\":370:375  owner */\n      0x00\n      0x00\n      swap1\n      sload\n      swap1\n      0x0100\n      exp\n      swap1\n      div\n      0xffffffffffffffffffffffffffffffffffffffff\n      and\n        /* \"submissions/yuriofi/Day5.sol\":358:375  msg.sender==owner */\n      0xffffffffffffffffffffffffffffffffffffffff\n      and\n        /* \"submissions/yuriofi/Day5.sol\":358:368  msg.sender */\n      caller\n        /* \"submissions/yuriofi/Day5.sol\":358:375  msg.sender==owner */\n      0xffffffffffffffffffffffffffffffffffffffff\n      and\n      eq\n        /* \"submissions/yuriofi/Day5.sol\":350:432  require(msg.sender==owner,\"Access denied: Only the owner can perform this action\") */\n      tag_85\n      jumpi\n      mload(0x40)\n      0x08c379a000000000000000000000000000000000000000000000000000000000\n      dup2\n      mstore\n      0x04\n      add\n      tag_86\n      swap1\n      tag_55\n      jump\t// in\n    tag_86:\n      mload(0x40)\n      dup1\n      swap2\n      sub\n      swap1\n      revert\n    tag_85:\n        /* \"submissions/yuriofi/Day5.sol\":1687:1688  0 */\n      0x00\n        /* \"submissions/yuriofi/Day5.sol\":1667:1689  newOwner != address(0) */\n      0xffffffffffffffffffffffffffffffffffffffff\n      and\n        /* \"submissions/yuriofi/Day5.sol\":1667:1675  newOwner */\n      dup2\n        /* \"submissions/yuriofi/Day5.sol\":1667:1689  newOwner != address(0) */\n      0xffffffffffffffffffffffffffffffffffffffff\n      and\n      sub\n        /* \"submissions/yuriofi/Day5.sol\":1659:1709  require(newOwner != address(0), \"Invalid address\") */\n      tag_88\n      jumpi\n      mload(0x40)\n      0x08c379a000000000000000000000000000000000000000000000000000000000\n      dup2\n      mstore\n      0x04\n      add\n      tag_89\n      swap1\n      tag_90\n      jump\t// in\n    tag_89:\n      mload(0x40)\n      dup1\n      swap2\n      sub\n      swap1\n      revert\n    tag_88:\n        /* \"submissions/yuriofi/Day5.sol\":1724:1732  newOwner */\n      dup1\n        /* \"submissions/yuriofi/Day5.sol\":1716:1721  owner */\n      0x00\n      0x00\n        /* \"submissions/yuriofi/Day5.sol\":1716:1732  owner = newOwner */\n      0x0100\n      exp\n      dup2\n      sload\n      dup2\n      0xffffffffffffffffffffffffffffffffffffffff\n      mul\n      not\n      and\n      swap1\n      dup4\n      0xffffffffffffffffffffffffffffffffffffffff\n      and\n      mul\n      or\n      swap1\n      sstore\n      pop\n        /* \"submissions/yuriofi/Day5.sol\":1590:1740  function transferOwnership(address newOwner) public onlyOwner {... */\n      pop\n      jump\t// out\n        /* \"submissions/yuriofi/Day5.sol\":562:769  function approveWithdrawal(address recipient,uint256 amount) public onlyOwner{... */\n    tag_51:\n        /* \"submissions/yuriofi/Day5.sol\":370:375  owner */\n      0x00\n      0x00\n      swap1\n      sload\n      swap1\n      0x0100\n      exp\n      swap1\n      div\n      0xffffffffffffffffffffffffffffffffffffffff\n      and\n        /* \"submissions/yuriofi/Day5.sol\":358:375  msg.sender==owner */\n      0xffffffffffffffffffffffffffffffffffffffff\n      and\n        /* \"submissions/yuriofi/Day5.sol\":358:368  msg.sender */\n      caller\n        /* \"submissions/yuriofi/Day5.sol\":358:375  msg.sender==owner */\n      0xffffffffffffffffffffffffffffffffffffffff\n      and\n      eq\n        /* \"submissions/yuriofi/Day5.sol\":350:432  require(msg.sender==owner,\"Access denied: Only the owner can perform this action\") */\n      tag_92\n      jumpi\n      mload(0x40)\n      0x08c379a000000000000000000000000000000000000000000000000000000000\n      dup2\n      mstore\n      0x04\n      add\n      tag_93\n      swap1\n      tag_55\n      jump\t// in\n    tag_93:\n      mload(0x40)\n      dup1\n      swap2\n      sub\n      swap1\n      revert\n    tag_92:\n        /* \"submissions/yuriofi/Day5.sol\":666:680  treasureAmount */\n      sload(0x01)\n        /* \"submissions/yuriofi/Day5.sol\":658:664  amount */\n      dup2\n        /* \"submissions/yuriofi/Day5.sol\":658:680  amount<=treasureAmount */\n      gt\n      iszero\n        /* \"submissions/yuriofi/Day5.sol\":650:713  require(amount<=treasureAmount,\"Not enough treasure available\") */\n      tag_95\n      jumpi\n      mload(0x40)\n      0x08c379a000000000000000000000000000000000000000000000000000000000\n      dup2\n      mstore\n      0x04\n      add\n      tag_96\n      swap1\n      tag_97\n      jump\t// in\n    tag_96:\n      mload(0x40)\n      dup1\n      swap2\n      sub\n      swap1\n      revert\n    tag_95:\n        /* \"submissions/yuriofi/Day5.sol\":755:761  amount */\n      dup1\n        /* \"submissions/yuriofi/Day5.sol\":724:743  withdrawalAllowance */\n      0x02\n        /* \"submissions/yuriofi/Day5.sol\":724:754  withdrawalAllowance[recipient] */\n      0x00\n        /* \"submissions/yuriofi/Day5.sol\":744:753  recipient */\n      dup5\n        /* \"submissions/yuriofi/Day5.sol\":724:754  withdrawalAllowance[recipient] */\n      0xffffffffffffffffffffffffffffffffffffffff\n      and\n      0xffffffffffffffffffffffffffffffffffffffff\n      and\n      dup2\n      mstore\n      0x20\n      add\n      swap1\n      dup2\n      mstore\n      0x20\n      add\n      0x00\n      keccak256\n        /* \"submissions/yuriofi/Day5.sol\":724:761  withdrawalAllowance[recipient]=amount */\n      dup2\n      swap1\n      sstore\n      pop\n        /* \"submissions/yuriofi/Day5.sol\":562:769  function approveWithdrawal(address recipient,uint256 amount) public onlyOwner{... */\n      pop\n      pop\n      jump\t// out\n        /* \"#utility.yul\":7:84   */\n    tag_98:\n        /* \"#utility.yul\":44:51   */\n      0x00\n        /* \"#utility.yul\":73:78   */\n      dup2\n        /* \"#utility.yul\":62:78   */\n      swap1\n      pop\n        /* \"#utility.yul\":7:84   */\n      swap2\n      swap1\n      pop\n      jump\t// out\n        /* \"#utility.yul\":90:208   */\n    tag_99:\n        /* \"#utility.yul\":177:201   */\n      tag_131\n        /* \"#utility.yul\":195:200   */\n      dup2\n        /* \"#utility.yul\":177:201   */\n      tag_98\n      jump\t// in\n    tag_131:\n        /* \"#utility.yul\":172:175   */\n      dup3\n        /* \"#utility.yul\":165:202   */\n      mstore\n        /* \"#utility.yul\":90:208   */\n      pop\n      pop\n      jump\t// out\n        /* \"#utility.yul\":214:436   */\n    tag_17:\n        /* \"#utility.yul\":307:311   */\n      0x00\n        /* \"#utility.yul\":345:347   */\n      0x20\n        /* \"#utility.yul\":334:343   */\n      dup3\n        /* \"#utility.yul\":330:348   */\n      add\n        /* \"#utility.yul\":322:348   */\n      swap1\n      pop\n        /* \"#utility.yul\":358:429   */\n      tag_133\n        /* \"#utility.yul\":426:427   */\n      0x00\n        /* \"#utility.yul\":415:424   */\n      dup4\n        /* \"#utility.yul\":411:428   */\n      add\n        /* \"#utility.yul\":402:408   */\n      dup5\n        /* \"#utility.yul\":358:429   */\n      tag_99\n      jump\t// in\n    tag_133:\n        /* \"#utility.yul\":214:436   */\n      swap3\n      swap2\n      pop\n      pop\n      jump\t// out\n        /* \"#utility.yul\":523:640   */\n    tag_101:\n        /* \"#utility.yul\":632:633   */\n      0x00\n        /* \"#utility.yul\":629:630   */\n      0x00\n        /* \"#utility.yul\":622:634   */\n      revert\n        /* \"#utility.yul\":769:895   */\n    tag_103:\n        /* \"#utility.yul\":806:813   */\n      0x00\n        /* \"#utility.yul\":846:888   */\n      0xffffffffffffffffffffffffffffffffffffffff\n        /* \"#utility.yul\":839:844   */\n      dup3\n        /* \"#utility.yul\":835:889   */\n      and\n        /* \"#utility.yul\":824:889   */\n      swap1\n      pop\n        /* \"#utility.yul\":769:895   */\n      swap2\n      swap1\n      pop\n      jump\t// out\n        /* \"#utility.yul\":901:997   */\n    tag_104:\n        /* \"#utility.yul\":938:945   */\n      0x00\n        /* \"#utility.yul\":967:991   */\n      tag_139\n        /* \"#utility.yul\":985:990   */\n      dup3\n        /* \"#utility.yul\":967:991   */\n      tag_103\n      jump\t// in\n    tag_139:\n        /* \"#utility.yul\":956:991   */\n      swap1\n      pop\n        /* \"#utility.yul\":901:997   */\n      swap2\n      swap1\n      pop\n      jump\t// out\n        /* \"#utility.yul\":1003:1125   */\n    tag_105:\n        /* \"#utility.yul\":1076:1100   */\n      tag_141\n        /* \"#utility.yul\":1094:1099   */\n      dup2\n        /* \"#utility.yul\":1076:1100   */\n      tag_104\n      jump\t// in\n    tag_141:\n        /* \"#utility.yul\":1069:1074   */\n      dup2\n        /* \"#utility.yul\":1066:1101   */\n      eq\n        /* \"#utility.yul\":1056:1119   */\n      tag_142\n      jumpi\n        /* \"#utility.yul\":1115:1116   */\n      0x00\n        /* \"#utility.yul\":1112:1113   */\n      0x00\n        /* \"#utility.yul\":1105:1117   */\n      revert\n        /* \"#utility.yul\":1056:1119   */\n    tag_142:\n        /* \"#utility.yul\":1003:1125   */\n      pop\n      jump\t// out\n        /* \"#utility.yul\":1131:1270   */\n    tag_106:\n        /* \"#utility.yul\":1177:1182   */\n      0x00\n        /* \"#utility.yul\":1215:1221   */\n      dup2\n        /* \"#utility.yul\":1202:1222   */\n      calldataload\n        /* \"#utility.yul\":1193:1222   */\n      swap1\n      pop\n        /* \"#utility.yul\":1231:1264   */\n      tag_144\n        /* \"#utility.yul\":1258:1263   */\n      dup2\n        /* \"#utility.yul\":1231:1264   */\n      tag_105\n      jump\t// in\n    tag_144:\n        /* \"#utility.yul\":1131:1270   */\n      swap3\n      swap2\n      pop\n      pop\n      jump\t// out\n        /* \"#utility.yul\":1276:1605   */\n    tag_20:\n        /* \"#utility.yul\":1335:1341   */\n      0x00\n        /* \"#utility.yul\":1384:1386   */\n      0x20\n        /* \"#utility.yul\":1372:1381   */\n      dup3\n        /* \"#utility.yul\":1363:1370   */\n      dup5\n        /* \"#utility.yul\":1359:1382   */\n      sub\n        /* \"#utility.yul\":1355:1387   */\n      slt\n        /* \"#utility.yul\":1352:1471   */\n      iszero\n      tag_146\n      jumpi\n        /* \"#utility.yul\":1390:1469   */\n      tag_147\n      tag_101\n      jump\t// in\n    tag_147:\n        /* \"#utility.yul\":1352:1471   */\n    tag_146:\n        /* \"#utility.yul\":1510:1511   */\n      0x00\n        /* \"#utility.yul\":1535:1588   */\n      tag_148\n        /* \"#utility.yul\":1580:1587   */\n      dup5\n        /* \"#utility.yul\":1571:1577   */\n      dup3\n        /* \"#utility.yul\":1560:1569   */\n      dup6\n        /* \"#utility.yul\":1556:1578   */\n      add\n        /* \"#utility.yul\":1535:1588   */\n      tag_106\n      jump\t// in\n    tag_148:\n        /* \"#utility.yul\":1525:1588   */\n      swap2\n      pop\n        /* \"#utility.yul\":1481:1598   */\n      pop\n        /* \"#utility.yul\":1276:1605   */\n      swap3\n      swap2\n      pop\n      pop\n      jump\t// out\n        /* \"#utility.yul\":1611:1701   */\n    tag_107:\n        /* \"#utility.yul\":1645:1652   */\n      0x00\n        /* \"#utility.yul\":1688:1693   */\n      dup2\n        /* \"#utility.yul\":1681:1694   */\n      iszero\n        /* \"#utility.yul\":1674:1695   */\n      iszero\n        /* \"#utility.yul\":1663:1695   */\n      swap1\n      pop\n        /* \"#utility.yul\":1611:1701   */\n      swap2\n      swap1\n      pop\n      jump\t// out\n        /* \"#utility.yul\":1707:1816   */\n    tag_108:\n        /* \"#utility.yul\":1788:1809   */\n      tag_151\n        /* \"#utility.yul\":1803:1808   */\n      dup2\n        /* \"#utility.yul\":1788:1809   */\n      tag_107\n      jump\t// in\n    tag_151:\n        /* \"#utility.yul\":1783:1786   */\n      dup3\n        /* \"#utility.yul\":1776:1810   */\n      mstore\n        /* \"#utility.yul\":1707:1816   */\n      pop\n      pop\n      jump\t// out\n        /* \"#utility.yul\":1822:2032   */\n    tag_23:\n        /* \"#utility.yul\":1909:1913   */\n      0x00\n        /* \"#utility.yul\":1947:1949   */\n      0x20\n        /* \"#utility.yul\":1936:1945   */\n      dup3\n        /* \"#utility.yul\":1932:1950   */\n      add\n        /* \"#utility.yul\":1924:1950   */\n      swap1\n      pop\n        /* \"#utility.yul\":1960:2025   */\n      tag_153\n        /* \"#utility.yul\":2022:2023   */\n      0x00\n        /* \"#utility.yul\":2011:2020   */\n      dup4\n        /* \"#utility.yul\":2007:2024   */\n      add\n        /* \"#utility.yul\":1998:2004   */\n      dup5\n        /* \"#utility.yul\":1960:2025   */\n      tag_108\n      jump\t// in\n    tag_153:\n        /* \"#utility.yul\":1822:2032   */\n      swap3\n      swap2\n      pop\n      pop\n      jump\t// out\n        /* \"#utility.yul\":2038:2156   */\n    tag_109:\n        /* \"#utility.yul\":2125:2149   */\n      tag_155\n        /* \"#utility.yul\":2143:2148   */\n      dup2\n        /* \"#utility.yul\":2125:2149   */\n      tag_104\n      jump\t// in\n    tag_155:\n        /* \"#utility.yul\":2120:2123   */\n      dup3\n        /* \"#utility.yul\":2113:2150   */\n      mstore\n        /* \"#utility.yul\":2038:2156   */\n      pop\n      pop\n      jump\t// out\n        /* \"#utility.yul\":2162:2384   */\n    tag_30:\n        /* \"#utility.yul\":2255:2259   */\n      0x00\n        /* \"#utility.yul\":2293:2295   */\n      0x20\n        /* \"#utility.yul\":2282:2291   */\n      dup3\n        /* \"#utility.yul\":2278:2296   */\n      add\n        /* \"#utility.yul\":2270:2296   */\n      swap1\n      pop\n        /* \"#utility.yul\":2306:2377   */\n      tag_157\n        /* \"#utility.yul\":2374:2375   */\n      0x00\n        /* \"#utility.yul\":2363:2372   */\n      dup4\n        /* \"#utility.yul\":2359:2376   */\n      add\n        /* \"#utility.yul\":2350:2356   */\n      dup5\n        /* \"#utility.yul\":2306:2377   */\n      tag_109\n      jump\t// in\n    tag_157:\n        /* \"#utility.yul\":2162:2384   */\n      swap3\n      swap2\n      pop\n      pop\n      jump\t// out\n        /* \"#utility.yul\":2390:2512   */\n    tag_110:\n        /* \"#utility.yul\":2463:2487   */\n      tag_159\n        /* \"#utility.yul\":2481:2486   */\n      dup2\n        /* \"#utility.yul\":2463:2487   */\n      tag_98\n      jump\t// in\n    tag_159:\n        /* \"#utility.yul\":2456:2461   */\n      dup2\n        /* \"#utility.yul\":2453:2488   */\n      eq\n        /* \"#utility.yul\":2443:2506   */\n      tag_160\n      jumpi\n        /* \"#utility.yul\":2502:2503   */\n      0x00\n        /* \"#utility.yul\":2499:2500   */\n      0x00\n        /* \"#utility.yul\":2492:2504   */\n      revert\n        /* \"#utility.yul\":2443:2506   */\n    tag_160:\n        /* \"#utility.yul\":2390:2512   */\n      pop\n      jump\t// out\n        /* \"#utility.yul\":2518:2657   */\n    tag_111:\n        /* \"#utility.yul\":2564:2569   */\n      0x00\n        /* \"#utility.yul\":2602:2608   */\n      dup2\n        /* \"#utility.yul\":2589:2609   */\n      calldataload\n        /* \"#utility.yul\":2580:2609   */\n      swap1\n      pop\n        /* \"#utility.yul\":2618:2651   */\n      tag_162\n        /* \"#utility.yul\":2645:2650   */\n      dup2\n        /* \"#utility.yul\":2618:2651   */\n      tag_110\n      jump\t// in\n    tag_162:\n        /* \"#utility.yul\":2518:2657   */\n      swap3\n      swap2\n      pop\n      pop\n      jump\t// out\n        /* \"#utility.yul\":2663:2992   */\n    tag_36:\n        /* \"#utility.yul\":2722:2728   */\n      0x00\n        /* \"#utility.yul\":2771:2773   */\n      0x20\n        /* \"#utility.yul\":2759:2768   */\n      dup3\n        /* \"#utility.yul\":2750:2757   */\n      dup5\n        /* \"#utility.yul\":2746:2769   */\n      sub\n        /* \"#utility.yul\":2742:2774   */\n      slt\n        /* \"#utility.yul\":2739:2858   */\n      iszero\n      tag_164\n      jumpi\n        /* \"#utility.yul\":2777:2856   */\n      tag_165\n      tag_101\n      jump\t// in\n    tag_165:\n        /* \"#utility.yul\":2739:2858   */\n    tag_164:\n        /* \"#utility.yul\":2897:2898   */\n      0x00\n        /* \"#utility.yul\":2922:2975   */\n      tag_166\n        /* \"#utility.yul\":2967:2974   */\n      dup5\n        /* \"#utility.yul\":2958:2964   */\n      dup3\n        /* \"#utility.yul\":2947:2956   */\n      dup6\n        /* \"#utility.yul\":2943:2965   */\n      add\n        /* \"#utility.yul\":2922:2975   */\n      tag_111\n      jump\t// in\n    tag_166:\n        /* \"#utility.yul\":2912:2975   */\n      swap2\n      pop\n        /* \"#utility.yul\":2868:2985   */\n      pop\n        /* \"#utility.yul\":2663:2992   */\n      swap3\n      swap2\n      pop\n      pop\n      jump\t// out\n        /* \"#utility.yul\":2998:3472   */\n    tag_50:\n        /* \"#utility.yul\":3066:3072   */\n      0x00\n        /* \"#utility.yul\":3074:3080   */\n      0x00\n        /* \"#utility.yul\":3123:3125   */\n      0x40\n        /* \"#utility.yul\":3111:3120   */\n      dup4\n        /* \"#utility.yul\":3102:3109   */\n      dup6\n        /* \"#utility.yul\":3098:3121   */\n      sub\n        /* \"#utility.yul\":3094:3126   */\n      slt\n        /* \"#utility.yul\":3091:3210   */\n      iszero\n      tag_168\n      jumpi\n        /* \"#utility.yul\":3129:3208   */\n      tag_169\n      tag_101\n      jump\t// in\n    tag_169:\n        /* \"#utility.yul\":3091:3210   */\n    tag_168:\n        /* \"#utility.yul\":3249:3250   */\n      0x00\n        /* \"#utility.yul\":3274:3327   */\n      tag_170\n        /* \"#utility.yul\":3319:3326   */\n      dup6\n        /* \"#utility.yul\":3310:3316   */\n      dup3\n        /* \"#utility.yul\":3299:3308   */\n      dup7\n        /* \"#utility.yul\":3295:3317   */\n      add\n        /* \"#utility.yul\":3274:3327   */\n      tag_106\n      jump\t// in\n    tag_170:\n        /* \"#utility.yul\":3264:3327   */\n      swap3\n      pop\n        /* \"#utility.yul\":3220:3337   */\n      pop\n        /* \"#utility.yul\":3376:3378   */\n      0x20\n        /* \"#utility.yul\":3402:3455   */\n      tag_171\n        /* \"#utility.yul\":3447:3454   */\n      dup6\n        /* \"#utility.yul\":3438:3444   */\n      dup3\n        /* \"#utility.yul\":3427:3436   */\n      dup7\n        /* \"#utility.yul\":3423:3445   */\n      add\n        /* \"#utility.yul\":3402:3455   */\n      tag_111\n      jump\t// in\n    tag_171:\n        /* \"#utility.yul\":3392:3455   */\n      swap2\n      pop\n        /* \"#utility.yul\":3347:3465   */\n      pop\n        /* \"#utility.yul\":2998:3472   */\n      swap3\n      pop\n      swap3\n      swap1\n      pop\n      jump\t// out\n        /* \"#utility.yul\":3478:3647   */\n    tag_112:\n        /* \"#utility.yul\":3562:3573   */\n      0x00\n        /* \"#utility.yul\":3596:3602   */\n      dup3\n        /* \"#utility.yul\":3591:3594   */\n      dup3\n        /* \"#utility.yul\":3584:3603   */\n      mstore\n        /* \"#utility.yul\":3636:3640   */\n      0x20\n        /* \"#utility.yul\":3631:3634   */\n      dup3\n        /* \"#utility.yul\":3627:3641   */\n      add\n        /* \"#utility.yul\":3612:3641   */\n      swap1\n      pop\n        /* \"#utility.yul\":3478:3647   */\n      swap3\n      swap2\n      pop\n      pop\n      jump\t// out\n        /* \"#utility.yul\":3653:3893   */\n    tag_113:\n        /* \"#utility.yul\":3793:3827   */\n      0x4163636573732064656e6965643a204f6e6c7920746865206f776e6572206361\n        /* \"#utility.yul\":3789:3790   */\n      0x00\n        /* \"#utility.yul\":3781:3787   */\n      dup3\n        /* \"#utility.yul\":3777:3791   */\n      add\n        /* \"#utility.yul\":3770:3828   */\n      mstore\n        /* \"#utility.yul\":3862:3885   */\n      0x6e20706572666f726d207468697320616374696f6e0000000000000000000000\n        /* \"#utility.yul\":3857:3859   */\n      0x20\n        /* \"#utility.yul\":3849:3855   */\n      dup3\n        /* \"#utility.yul\":3845:3860   */\n      add\n        /* \"#utility.yul\":3838:3886   */\n      mstore\n        /* \"#utility.yul\":3653:3893   */\n      pop\n      jump\t// out\n        /* \"#utility.yul\":3899:4265   */\n    tag_114:\n        /* \"#utility.yul\":4041:4044   */\n      0x00\n        /* \"#utility.yul\":4062:4129   */\n      tag_175\n        /* \"#utility.yul\":4126:4128   */\n      0x35\n        /* \"#utility.yul\":4121:4124   */\n      dup4\n        /* \"#utility.yul\":4062:4129   */\n      tag_112\n      jump\t// in\n    tag_175:\n        /* \"#utility.yul\":4055:4129   */\n      swap2\n      pop\n        /* \"#utility.yul\":4138:4231   */\n      tag_176\n        /* \"#utility.yul\":4227:4230   */\n      dup3\n        /* \"#utility.yul\":4138:4231   */\n      tag_113\n      jump\t// in\n    tag_176:\n        /* \"#utility.yul\":4256:4258   */\n      0x40\n        /* \"#utility.yul\":4251:4254   */\n      dup3\n        /* \"#utility.yul\":4247:4259   */\n      add\n        /* \"#utility.yul\":4240:4259   */\n      swap1\n      pop\n        /* \"#utility.yul\":3899:4265   */\n      swap2\n      swap1\n      pop\n      jump\t// out\n        /* \"#utility.yul\":4271:4690   */\n    tag_55:\n        /* \"#utility.yul\":4437:4441   */\n      0x00\n        /* \"#utility.yul\":4475:4477   */\n      0x20\n        /* \"#utility.yul\":4464:4473   */\n      dup3\n        /* \"#utility.yul\":4460:4478   */\n      add\n        /* \"#utility.yul\":4452:4478   */\n      swap1\n      pop\n        /* \"#utility.yul\":4524:4533   */\n      dup2\n        /* \"#utility.yul\":4518:4522   */\n      dup2\n        /* \"#utility.yul\":4514:4534   */\n      sub\n        /* \"#utility.yul\":4510:4511   */\n      0x00\n        /* \"#utility.yul\":4499:4508   */\n      dup4\n        /* \"#utility.yul\":4495:4512   */\n      add\n        /* \"#utility.yul\":4488:4535   */\n      mstore\n        /* \"#utility.yul\":4552:4683   */\n      tag_178\n        /* \"#utility.yul\":4678:4682   */\n      dup2\n        /* \"#utility.yul\":4552:4683   */\n      tag_114\n      jump\t// in\n    tag_178:\n        /* \"#utility.yul\":4544:4683   */\n      swap1\n      pop\n        /* \"#utility.yul\":4271:4690   */\n      swap2\n      swap1\n      pop\n      jump\t// out\n        /* \"#utility.yul\":4696:4929   */\n    tag_115:\n        /* \"#utility.yul\":4836:4870   */\n      0x4e6f7420656e6f75676820747265617375726520617661696c61626c6520666f\n        /* \"#utility.yul\":4832:4833   */\n      0x00\n        /* \"#utility.yul\":4824:4830   */\n      dup3\n        /* \"#utility.yul\":4820:4834   */\n      add\n        /* \"#utility.yul\":4813:4871   */\n      mstore\n        /* \"#utility.yul\":4905:4921   */\n      0x72207468697320616374696f6e2e000000000000000000000000000000000000\n        /* \"#utility.yul\":4900:4902   */\n      0x20\n        /* \"#utility.yul\":4892:4898   */\n      dup3\n        /* \"#utility.yul\":4888:4903   */\n      add\n        /* \"#utility.yul\":4881:4922   */\n      mstore\n        /* \"#utility.yul\":4696:4929   */\n      pop\n      jump\t// out\n        /* \"#utility.yul\":4935:5301   */\n    tag_116:\n        /* \"#utility.yul\":5077:5080   */\n      0x00\n        /* \"#utility.yul\":5098:5165   */\n      tag_181\n        /* \"#utility.yul\":5162:5164   */\n      0x2e\n        /* \"#utility.yul\":5157:5160   */\n      dup4\n        /* \"#utility.yul\":5098:5165   */\n      tag_112\n      jump\t// in\n    tag_181:\n        /* \"#utility.yul\":5091:5165   */\n      swap2\n      pop\n        /* \"#utility.yul\":5174:5267   */\n      tag_182\n        /* \"#utility.yul\":5263:5266   */\n      dup3\n        /* \"#utility.yul\":5174:5267   */\n      tag_115\n      jump\t// in\n    tag_182:\n        /* \"#utility.yul\":5292:5294   */\n      0x40\n        /* \"#utility.yul\":5287:5290   */\n      dup3\n        /* \"#utility.yul\":5283:5295   */\n      add\n        /* \"#utility.yul\":5276:5295   */\n      swap1\n      pop\n        /* \"#utility.yul\":4935:5301   */\n      swap2\n      swap1\n      pop\n      jump\t// out\n        /* \"#utility.yul\":5307:5726   */\n    tag_65:\n        /* \"#utility.yul\":5473:5477   */\n      0x00\n        /* \"#utility.yul\":5511:5513   */\n      0x20\n        /* \"#utility.yul\":5500:5509   */\n      dup3\n        /* \"#utility.yul\":5496:5514   */\n      add\n        /* \"#utility.yul\":5488:5514   */\n      swap1\n      pop\n        /* \"#utility.yul\":5560:5569   */\n      dup2\n        /* \"#utility.yul\":5554:5558   */\n      dup2\n        /* \"#utility.yul\":5550:5570   */\n      sub\n        /* \"#utility.yul\":5546:5547   */\n      0x00\n        /* \"#utility.yul\":5535:5544   */\n      dup4\n        /* \"#utility.yul\":5531:5548   */\n      add\n        /* \"#utility.yul\":5524:5571   */\n      mstore\n        /* \"#utility.yul\":5588:5719   */\n      tag_184\n        /* \"#utility.yul\":5714:5718   */\n      dup2\n        /* \"#utility.yul\":5588:5719   */\n      tag_116\n      jump\t// in\n    tag_184:\n        /* \"#utility.yul\":5580:5719   */\n      swap1\n      pop\n        /* \"#utility.yul\":5307:5726   */\n      swap2\n      swap1\n      pop\n      jump\t// out\n        /* \"#utility.yul\":5732:5912   */\n    tag_117:\n        /* \"#utility.yul\":5780:5857   */\n      0x4e487b7100000000000000000000000000000000000000000000000000000000\n        /* \"#utility.yul\":5777:5778   */\n      0x00\n        /* \"#utility.yul\":5770:5858   */\n      mstore\n        /* \"#utility.yul\":5877:5881   */\n      0x11\n        /* \"#utility.yul\":5874:5875   */\n      0x04\n        /* \"#utility.yul\":5867:5882   */\n      mstore\n        /* \"#utility.yul\":5901:5905   */\n      0x24\n        /* \"#utility.yul\":5898:5899   */\n      0x00\n        /* \"#utility.yul\":5891:5906   */\n      revert\n        /* \"#utility.yul\":5918:6112   */\n    tag_67:\n        /* \"#utility.yul\":5958:5962   */\n      0x00\n        /* \"#utility.yul\":5978:5998   */\n      tag_187\n        /* \"#utility.yul\":5996:5997   */\n      dup3\n        /* \"#utility.yul\":5978:5998   */\n      tag_98\n      jump\t// in\n    tag_187:\n        /* \"#utility.yul\":5973:5998   */\n      swap2\n      pop\n        /* \"#utility.yul\":6012:6032   */\n      tag_188\n        /* \"#utility.yul\":6030:6031   */\n      dup4\n        /* \"#utility.yul\":6012:6032   */\n      tag_98\n      jump\t// in\n    tag_188:\n        /* \"#utility.yul\":6007:6032   */\n      swap3\n      pop\n        /* \"#utility.yul\":6056:6057   */\n      dup3\n        /* \"#utility.yul\":6053:6054   */\n      dup3\n        /* \"#utility.yul\":6049:6058   */\n      sub\n        /* \"#utility.yul\":6041:6058   */\n      swap1\n      pop\n        /* \"#utility.yul\":6080:6081   */\n      dup2\n        /* \"#utility.yul\":6074:6078   */\n      dup2\n        /* \"#utility.yul\":6071:6082   */\n      gt\n        /* \"#utility.yul\":6068:6105   */\n      iszero\n      tag_189\n      jumpi\n        /* \"#utility.yul\":6085:6103   */\n      tag_190\n      tag_117\n      jump\t// in\n    tag_190:\n        /* \"#utility.yul\":6068:6105   */\n    tag_189:\n        /* \"#utility.yul\":5918:6112   */\n      swap3\n      swap2\n      pop\n      pop\n      jump\t// out\n        /* \"#utility.yul\":6118:6342   */\n    tag_118:\n        /* \"#utility.yul\":6258:6292   */\n      0x596f7520646f6e2774206861766520616e7920747265617375726520616c6c6f\n        /* \"#utility.yul\":6254:6255   */\n      0x00\n        /* \"#utility.yul\":6246:6252   */\n      dup3\n        /* \"#utility.yul\":6242:6256   */\n      add\n        /* \"#utility.yul\":6235:6293   */\n      mstore\n        /* \"#utility.yul\":6327:6334   */\n      0x77616e6365000000000000000000000000000000000000000000000000000000\n        /* \"#utility.yul\":6322:6324   */\n      0x20\n        /* \"#utility.yul\":6314:6320   */\n      dup3\n        /* \"#utility.yul\":6310:6325   */\n      add\n        /* \"#utility.yul\":6303:6335   */\n      mstore\n        /* \"#utility.yul\":6118:6342   */\n      pop\n      jump\t// out\n        /* \"#utility.yul\":6348:6714   */\n    tag_119:\n        /* \"#utility.yul\":6490:6493   */\n      0x00\n        /* \"#utility.yul\":6511:6578   */\n      tag_193\n        /* \"#utility.yul\":6575:6577   */\n      0x25\n        /* \"#utility.yul\":6570:6573   */\n      dup4\n        /* \"#utility.yul\":6511:6578   */\n      tag_112\n      jump\t// in\n    tag_193:\n        /* \"#utility.yul\":6504:6578   */\n      swap2\n      pop\n        /* \"#utility.yul\":6587:6680   */\n      tag_194\n        /* \"#utility.yul\":6676:6679   */\n      dup3\n        /* \"#utility.yul\":6587:6680   */\n      tag_118\n      jump\t// in\n    tag_194:\n        /* \"#utility.yul\":6705:6707   */\n      0x40\n        /* \"#utility.yul\":6700:6703   */\n      dup3\n        /* \"#utility.yul\":6696:6708   */\n      add\n        /* \"#utility.yul\":6689:6708   */\n      swap1\n      pop\n        /* \"#utility.yul\":6348:6714   */\n      swap2\n      swap1\n      pop\n      jump\t// out\n        /* \"#utility.yul\":6720:7139   */\n    tag_70:\n        /* \"#utility.yul\":6886:6890   */\n      0x00\n        /* \"#utility.yul\":6924:6926   */\n      0x20\n        /* \"#utility.yul\":6913:6922   */\n      dup3\n        /* \"#utility.yul\":6909:6927   */\n      add\n        /* \"#utility.yul\":6901:6927   */\n      swap1\n      pop\n        /* \"#utility.yul\":6973:6982   */\n      dup2\n        /* \"#utility.yul\":6967:6971   */\n      dup2\n        /* \"#utility.yul\":6963:6983   */\n      sub\n        /* \"#utility.yul\":6959:6960   */\n      0x00\n        /* \"#utility.yul\":6948:6957   */\n      dup4\n        /* \"#utility.yul\":6944:6961   */\n      add\n        /* \"#utility.yul\":6937:6984   */\n      mstore\n        /* \"#utility.yul\":7001:7132   */\n      tag_196\n        /* \"#utility.yul\":7127:7131   */\n      dup2\n        /* \"#utility.yul\":7001:7132   */\n      tag_119\n      jump\t// in\n    tag_196:\n        /* \"#utility.yul\":6993:7132   */\n      swap1\n      pop\n        /* \"#utility.yul\":6720:7139   */\n      swap2\n      swap1\n      pop\n      jump\t// out\n        /* \"#utility.yul\":7145:7372   */\n    tag_120:\n        /* \"#utility.yul\":7285:7319   */\n      0x596f75206861766520616c72656164792077697468647261776e20796f757220\n        /* \"#utility.yul\":7281:7282   */\n      0x00\n        /* \"#utility.yul\":7273:7279   */\n      dup3\n        /* \"#utility.yul\":7269:7283   */\n      add\n        /* \"#utility.yul\":7262:7320   */\n      mstore\n        /* \"#utility.yul\":7354:7364   */\n      0x7472656173757265000000000000000000000000000000000000000000000000\n        /* \"#utility.yul\":7349:7351   */\n      0x20\n        /* \"#utility.yul\":7341:7347   */\n      dup3\n        /* \"#utility.yul\":7337:7352   */\n      add\n        /* \"#utility.yul\":7330:7365   */\n      mstore\n        /* \"#utility.yul\":7145:7372   */\n      pop\n      jump\t// out\n        /* \"#utility.yul\":7378:7744   */\n    tag_121:\n        /* \"#utility.yul\":7520:7523   */\n      0x00\n        /* \"#utility.yul\":7541:7608   */\n      tag_199\n        /* \"#utility.yul\":7605:7607   */\n      0x28\n        /* \"#utility.yul\":7600:7603   */\n      dup4\n        /* \"#utility.yul\":7541:7608   */\n      tag_112\n      jump\t// in\n    tag_199:\n        /* \"#utility.yul\":7534:7608   */\n      swap2\n      pop\n        /* \"#utility.yul\":7617:7710   */\n      tag_200\n        /* \"#utility.yul\":7706:7709   */\n      dup3\n        /* \"#utility.yul\":7617:7710   */\n      tag_120\n      jump\t// in\n    tag_200:\n        /* \"#utility.yul\":7735:7737   */\n      0x40\n        /* \"#utility.yul\":7730:7733   */\n      dup3\n        /* \"#utility.yul\":7726:7738   */\n      add\n        /* \"#utility.yul\":7719:7738   */\n      swap1\n      pop\n        /* \"#utility.yul\":7378:7744   */\n      swap2\n      swap1\n      pop\n      jump\t// out\n        /* \"#utility.yul\":7750:8169   */\n    tag_73:\n        /* \"#utility.yul\":7916:7920   */\n      0x00\n        /* \"#utility.yul\":7954:7956   */\n      0x20\n        /* \"#utility.yul\":7943:7952   */\n      dup3\n        /* \"#utility.yul\":7939:7957   */\n      add\n        /* \"#utility.yul\":7931:7957   */\n      swap1\n      pop\n        /* \"#utility.yul\":8003:8012   */\n      dup2\n        /* \"#utility.yul\":7997:8001   */\n      dup2\n        /* \"#utility.yul\":7993:8013   */\n      sub\n        /* \"#utility.yul\":7989:7990   */\n      0x00\n        /* \"#utility.yul\":7978:7987   */\n      dup4\n        /* \"#utility.yul\":7974:7991   */\n      add\n        /* \"#utility.yul\":7967:8014   */\n      mstore\n        /* \"#utility.yul\":8031:8162   */\n      tag_202\n        /* \"#utility.yul\":8157:8161   */\n      dup2\n        /* \"#utility.yul\":8031:8162   */\n      tag_121\n      jump\t// in\n    tag_202:\n        /* \"#utility.yul\":8023:8162   */\n      swap1\n      pop\n        /* \"#utility.yul\":7750:8169   */\n      swap2\n      swap1\n      pop\n      jump\t// out\n        /* \"#utility.yul\":8175:8357   */\n    tag_122:\n        /* \"#utility.yul\":8315:8349   */\n      0x4e6f7420656e6f75676820747265617375726520696e20746865206368657374\n        /* \"#utility.yul\":8311:8312   */\n      0x00\n        /* \"#utility.yul\":8303:8309   */\n      dup3\n        /* \"#utility.yul\":8299:8313   */\n      add\n        /* \"#utility.yul\":8292:8350   */\n      mstore\n        /* \"#utility.yul\":8175:8357   */\n      pop\n      jump\t// out\n        /* \"#utility.yul\":8363:8729   */\n    tag_123:\n        /* \"#utility.yul\":8505:8508   */\n      0x00\n        /* \"#utility.yul\":8526:8593   */\n      tag_205\n        /* \"#utility.yul\":8590:8592   */\n      0x20\n        /* \"#utility.yul\":8585:8588   */\n      dup4\n        /* \"#utility.yul\":8526:8593   */\n      tag_112\n      jump\t// in\n    tag_205:\n        /* \"#utility.yul\":8519:8593   */\n      swap2\n      pop\n        /* \"#utility.yul\":8602:8695   */\n      tag_206\n        /* \"#utility.yul\":8691:8694   */\n      dup3\n        /* \"#utility.yul\":8602:8695   */\n      tag_122\n      jump\t// in\n    tag_206:\n        /* \"#utility.yul\":8720:8722   */\n      0x20\n        /* \"#utility.yul\":8715:8718   */\n      dup3\n        /* \"#utility.yul\":8711:8723   */\n      add\n        /* \"#utility.yul\":8704:8723   */\n      swap1\n      pop\n        /* \"#utility.yul\":8363:8729   */\n      swap2\n      swap1\n      pop\n      jump\t// out\n        /* \"#utility.yul\":8735:9154   */\n    tag_76:\n        /* \"#utility.yul\":8901:8905   */\n      0x00\n        /* \"#utility.yul\":8939:8941   */\n      0x20\n        /* \"#utility.yul\":8928:8937   */\n      dup3\n        /* \"#utility.yul\":8924:8942   */\n      add\n        /* \"#utility.yul\":8916:8942   */\n      swap1\n      pop\n        /* \"#utility.yul\":8988:8997   */\n      dup2\n        /* \"#utility.yul\":8982:8986   */\n      dup2\n        /* \"#utility.yul\":8978:8998   */\n      sub\n        /* \"#utility.yul\":8974:8975   */\n      0x00\n        /* \"#utility.yul\":8963:8972   */\n      dup4\n        /* \"#utility.yul\":8959:8976   */\n      add\n        /* \"#utility.yul\":8952:8999   */\n      mstore\n        /* \"#utility.yul\":9016:9147   */\n      tag_208\n        /* \"#utility.yul\":9142:9146   */\n      dup2\n        /* \"#utility.yul\":9016:9147   */\n      tag_123\n      jump\t// in\n    tag_208:\n        /* \"#utility.yul\":9008:9147   */\n      swap1\n      pop\n        /* \"#utility.yul\":8735:9154   */\n      swap2\n      swap1\n      pop\n      jump\t// out\n        /* \"#utility.yul\":9160:9351   */\n    tag_83:\n        /* \"#utility.yul\":9200:9203   */\n      0x00\n        /* \"#utility.yul\":9219:9239   */\n      tag_210\n        /* \"#utility.yul\":9237:9238   */\n      dup3\n        /* \"#utility.yul\":9219:9239   */\n      tag_98\n      jump\t// in\n    tag_210:\n        /* \"#utility.yul\":9214:9239   */\n      swap2\n      pop\n        /* \"#utility.yul\":9253:9273   */\n      tag_211\n        /* \"#utility.yul\":9271:9272   */\n      dup4\n        /* \"#utility.yul\":9253:9273   */\n      tag_98\n      jump\t// in\n    tag_211:\n        /* \"#utility.yul\":9248:9273   */\n      swap3\n      pop\n        /* \"#utility.yul\":9296:9297   */\n      dup3\n        /* \"#utility.yul\":9293:9294   */\n      dup3\n        /* \"#utility.yul\":9289:9298   */\n      add\n        /* \"#utility.yul\":9282:9298   */\n      swap1\n      pop\n        /* \"#utility.yul\":9317:9320   */\n      dup1\n        /* \"#utility.yul\":9314:9315   */\n      dup3\n        /* \"#utility.yul\":9311:9321   */\n      gt\n        /* \"#utility.yul\":9308:9344   */\n      iszero\n      tag_212\n      jumpi\n        /* \"#utility.yul\":9324:9342   */\n      tag_213\n      tag_117\n      jump\t// in\n    tag_213:\n        /* \"#utility.yul\":9308:9344   */\n    tag_212:\n        /* \"#utility.yul\":9160:9351   */\n      swap3\n      swap2\n      pop\n      pop\n      jump\t// out\n        /* \"#utility.yul\":9357:9522   */\n    tag_124:\n        /* \"#utility.yul\":9497:9514   */\n      0x496e76616c696420616464726573730000000000000000000000000000000000\n        /* \"#utility.yul\":9493:9494   */\n      0x00\n        /* \"#utility.yul\":9485:9491   */\n      dup3\n        /* \"#utility.yul\":9481:9495   */\n      add\n        /* \"#utility.yul\":9474:9515   */\n      mstore\n        /* \"#utility.yul\":9357:9522   */\n      pop\n      jump\t// out\n        /* \"#utility.yul\":9528:9894   */\n    tag_125:\n        /* \"#utility.yul\":9670:9673   */\n      0x00\n        /* \"#utility.yul\":9691:9758   */\n      tag_216\n        /* \"#utility.yul\":9755:9757   */\n      0x0f\n        /* \"#utility.yul\":9750:9753   */\n      dup4\n        /* \"#utility.yul\":9691:9758   */\n      tag_112\n      jump\t// in\n    tag_216:\n        /* \"#utility.yul\":9684:9758   */\n      swap2\n      pop\n        /* \"#utility.yul\":9767:9860   */\n      tag_217\n        /* \"#utility.yul\":9856:9859   */\n      dup3\n        /* \"#utility.yul\":9767:9860   */\n      tag_124\n      jump\t// in\n    tag_217:\n        /* \"#utility.yul\":9885:9887   */\n      0x20\n        /* \"#utility.yul\":9880:9883   */\n      dup3\n        /* \"#utility.yul\":9876:9888   */\n      add\n        /* \"#utility.yul\":9869:9888   */\n      swap1\n      pop\n        /* \"#utility.yul\":9528:9894   */\n      swap2\n      swap1\n      pop\n      jump\t// out\n        /* \"#utility.yul\":9900:10319   */\n    tag_90:\n        /* \"#utility.yul\":10066:10070   */\n      0x00\n        /* \"#utility.yul\":10104:10106   */\n      0x20\n        /* \"#utility.yul\":10093:10102   */\n      dup3\n        /* \"#utility.yul\":10089:10107   */\n      add\n        /* \"#utility.yul\":10081:10107   */\n      swap1\n      pop\n        /* \"#utility.yul\":10153:10162   */\n      dup2\n        /* \"#utility.yul\":10147:10151   */\n      dup2\n        /* \"#utility.yul\":10143:10163   */\n      sub\n        /* \"#utility.yul\":10139:10140   */\n      0x00\n        /* \"#utility.yul\":10128:10137   */\n      dup4\n        /* \"#utility.yul\":10124:10141   */\n      add\n        /* \"#utility.yul\":10117:10164   */\n      mstore\n        /* \"#utility.yul\":10181:10312   */\n      tag_219\n        /* \"#utility.yul\":10307:10311   */\n      dup2\n        /* \"#utility.yul\":10181:10312   */\n      tag_125\n      jump\t// in\n    tag_219:\n        /* \"#utility.yul\":10173:10312   */\n      swap1\n      pop\n        /* \"#utility.yul\":9900:10319   */\n      swap2\n      swap1\n      pop\n      jump\t// out\n        /* \"#utility.yul\":10325:10504   */\n    tag_126:\n        /* \"#utility.yul\":10465:10496   */\n      0x4e6f7420656e6f75676820747265617375726520617661696c61626c65000000\n        /* \"#utility.yul\":10461:10462   */\n      0x00\n        /* \"#utility.yul\":10453:10459   */\n      dup3\n        /* \"#utility.yul\":10449:10463   */\n      add\n        /* \"#utility.yul\":10442:10497   */\n      mstore\n        /* \"#utility.yul\":10325:10504   */\n      pop\n      jump\t// out\n        /* \"#utility.yul\":10510:10876   */\n    tag_127:\n        /* \"#utility.yul\":10652:10655   */\n      0x00\n        /* \"#utility.yul\":10673:10740   */\n      tag_222\n        /* \"#utility.yul\":10737:10739   */\n      0x1d\n        /* \"#utility.yul\":10732:10735   */\n      dup4\n        /* \"#utility.yul\":10673:10740   */\n      tag_112\n      jump\t// in\n    tag_222:\n        /* \"#utility.yul\":10666:10740   */\n      swap2\n      pop\n        /* \"#utility.yul\":10749:10842   */\n      tag_223\n        /* \"#utility.yul\":10838:10841   */\n      dup3\n        /* \"#utility.yul\":10749:10842   */\n      tag_126\n      jump\t// in\n    tag_223:\n        /* \"#utility.yul\":10867:10869   */\n      0x20\n        /* \"#utility.yul\":10862:10865   */\n      dup3\n        /* \"#utility.yul\":10858:10870   */\n      add\n        /* \"#utility.yul\":10851:10870   */\n      swap1\n      pop\n        /* \"#utility.yul\":10510:10876   */\n      swap2\n      swap1\n      pop\n      jump\t// out\n        /* \"#utility.yul\":10882:11301   */\n    tag_97:\n        /* \"#utility.yul\":11048:11052   */\n      0x00\n        /* \"#utility.yul\":11086:11088   */\n      0x20\n        /* \"#utility.yul\":11075:11084   */\n      dup3\n        /* \"#utility.yul\":11071:11089   */\n      add\n        /* \"#utility.yul\":11063:11089   */\n      swap1\n      pop\n        /* \"#utility.yul\":11135:11144   */\n      dup2\n        /* \"#utility.yul\":11129:11133   */\n      dup2\n        /* \"#utility.yul\":11125:11145   */\n      sub\n        /* \"#utility.yul\":11121:11122   */\n      0x00\n        /* \"#utility.yul\":11110:11119   */\n      dup4\n        /* \"#utility.yul\":11106:11123   */\n      add\n        /* \"#utility.yul\":11099:11146   */\n      mstore\n        /* \"#utility.yul\":11163:11294   */\n      tag_225\n        /* \"#utility.yul\":11289:11293   */\n      dup2\n        /* \"#utility.yul\":11163:11294   */\n      tag_127\n      jump\t// in\n    tag_225:\n        /* \"#utility.yul\":11155:11294   */\n      swap1\n      pop\n        /* \"#utility.yul\":10882:11301   */\n      swap2\n      swap1\n      pop\n      jump\t// out\n\n    auxdata: 0xa26469706673582212206cf62f7ce88b5aa32af0c3922339e00d1781574cbae077e262124a3b8134f11664736f6c634300081e0033\n}\n",
				"bytecode": {
					"linkReferences": {},
					"object": "6080604052348015600e575f5ffd5b50335f5f6101000a81548173ffffffffffffffffffffffffffffffffffffffff021916908373ffffffffffffffffffffffffffffffffffffffff160217905550610f6a8061005b5f395ff3fe608060405234801561000f575f5ffd5b506004361061009c575f3560e01c8063aca5b34611610064578063aca5b34614610146578063dfbb36f914610162578063e014700514610192578063f2fde38b146101ae578063f4970e71146101ca5761009c565b80635b238ee5146100a05780635e2c19db146100be578063774124fa146100ee5780638da5cb5b1461010c578063941907de1461012a575b5f5ffd5b6100a86101e6565b6040516100b59190610991565b60405180910390f35b6100d860048036038101906100d39190610a08565b6101ec565b6040516100e59190610a4d565b60405180910390f35b6100f6610209565b6040516101039190610991565b60405180910390f35b6101146102a0565b6040516101219190610a75565b60405180910390f35b610144600480360381019061013f9190610a08565b6102c4565b005b610160600480360381019061015b9190610ab8565b6103a9565b005b61017c60048036038101906101779190610a08565b610664565b6040516101899190610991565b60405180910390f35b6101ac60048036038101906101a79190610ab8565b610679565b005b6101c860048036038101906101c39190610a08565b610722565b005b6101e460048036038101906101df9190610ae3565b610860565b005b60015481565b6003602052805f5260405f205f915054906101000a900460ff1681565b5f5f5f9054906101000a900473ffffffffffffffffffffffffffffffffffffffff1673ffffffffffffffffffffffffffffffffffffffff163373ffffffffffffffffffffffffffffffffffffffff1614610298576040517f08c379a000000000000000000000000000000000000000000000000000000000815260040161028f90610ba1565b60405180910390fd5b600154905090565b5f5f9054906101000a900473ffffffffffffffffffffffffffffffffffffffff1681565b5f5f9054906101000a900473ffffffffffffffffffffffffffffffffffffffff1673ffffffffffffffffffffffffffffffffffffffff163373ffffffffffffffffffffffffffffffffffffffff1614610352576040517f08c379a000000000000000000000000000000000000000000000000000000000815260040161034990610ba1565b60405180910390fd5b5f60035f8373ffffffffffffffffffffffffffffffffffffffff1673ffffffffffffffffffffffffffffffffffffffff1681526020019081526020015f205f6101000a81548160ff02191690831515021790555050565b5f5f9054906101000a900473ffffffffffffffffffffffffffffffffffffffff1673ffffffffffffffffffffffffffffffffffffffff163373ffffffffffffffffffffffffffffffffffffffff160361045e57600154811115610441576040517f08c379a000000000000000000000000000000000000000000000000000000000815260040161043890610c2f565b60405180910390fd5b8060015f8282546104529190610c7a565b92505081905550610661565b5f60025f3373ffffffffffffffffffffffffffffffffffffffff1673ffffffffffffffffffffffffffffffffffffffff1681526020019081526020015f205490505f81116104e1576040517f08c379a00000000000000000000000000000000000000000000000000000000081526004016104d890610d1d565b60405180910390fd5b60035f3373ffffffffffffffffffffffffffffffffffffffff1673ffffffffffffffffffffffffffffffffffffffff1681526020019081526020015f205f9054906101000a900460ff161561056b576040517f08c379a000000000000000000000000000000000000000000000000000000000815260040161056290610dab565b60405180910390fd5b6001548111156105b0576040517f08c379a00000000000000000000000000000000000000000000000000000000081526004016105a790610e13565b60405180910390fd5b600160035f3373ffffffffffffffffffffffffffffffffffffffff1673ffffffffffffffffffffffffffffffffffffffff1681526020019081526020015f205f6101000a81548160ff0219169083151502179055508060015f8282546106169190610c7a565b925050819055505f60025f3373ffffffffffffffffffffffffffffffffffffffff1673ffffffffffffffffffffffffffffffffffffffff1681526020019081526020015f2081905550505b50565b6002602052805f5260405f205f915090505481565b5f5f9054906101000a900473ffffffffffffffffffffffffffffffffffffffff1673ffffffffffffffffffffffffffffffffffffffff163373ffffffffffffffffffffffffffffffffffffffff1614610707576040517f08c379a00000000000000000000000000000000000000000000000000000000081526004016106fe90610ba1565b60405180910390fd5b8060015f8282546107189190610e31565b9250508190555050565b5f5f9054906101000a900473ffffffffffffffffffffffffffffffffffffffff1673ffffffffffffffffffffffffffffffffffffffff163373ffffffffffffffffffffffffffffffffffffffff16146107b0576040517f08c379a00000000000000000000000000000000000000000000000000000000081526004016107a790610ba1565b60405180910390fd5b5f73ffffffffffffffffffffffffffffffffffffffff168173ffffffffffffffffffffffffffffffffffffffff160361081e576040517f08c379a000000000000000000000000000000000000000000000000000000000815260040161081590610eae565b60405180910390fd5b805f5f6101000a81548173ffffffffffffffffffffffffffffffffffffffff021916908373ffffffffffffffffffffffffffffffffffffffff16021790555050565b5f5f9054906101000a900473ffffffffffffffffffffffffffffffffffffffff1673ffffffffffffffffffffffffffffffffffffffff163373ffffffffffffffffffffffffffffffffffffffff16146108ee576040517f08c379a00000000000000000000000000000000000000000000000000000000081526004016108e590610ba1565b60405180910390fd5b600154811115610933576040517f08c379a000000000000000000000000000000000000000000000000000000000815260040161092a90610f16565b60405180910390fd5b8060025f8473ffffffffffffffffffffffffffffffffffffffff1673ffffffffffffffffffffffffffffffffffffffff1681526020019081526020015f20819055505050565b5f819050919050565b61098b81610979565b82525050565b5f6020820190506109a45f830184610982565b92915050565b5f5ffd5b5f73ffffffffffffffffffffffffffffffffffffffff82169050919050565b5f6109d7826109ae565b9050919050565b6109e7816109cd565b81146109f1575f5ffd5b50565b5f81359050610a02816109de565b92915050565b5f60208284031215610a1d57610a1c6109aa565b5b5f610a2a848285016109f4565b91505092915050565b5f8115159050919050565b610a4781610a33565b82525050565b5f602082019050610a605f830184610a3e565b92915050565b610a6f816109cd565b82525050565b5f602082019050610a885f830184610a66565b92915050565b610a9781610979565b8114610aa1575f5ffd5b50565b5f81359050610ab281610a8e565b92915050565b5f60208284031215610acd57610acc6109aa565b5b5f610ada84828501610aa4565b91505092915050565b5f5f60408385031215610af957610af86109aa565b5b5f610b06858286016109f4565b9250506020610b1785828601610aa4565b9150509250929050565b5f82825260208201905092915050565b7f4163636573732064656e6965643a204f6e6c7920746865206f776e65722063615f8201527f6e20706572666f726d207468697320616374696f6e0000000000000000000000602082015250565b5f610b8b603583610b21565b9150610b9682610b31565b604082019050919050565b5f6020820190508181035f830152610bb881610b7f565b9050919050565b7f4e6f7420656e6f75676820747265617375726520617661696c61626c6520666f5f8201527f72207468697320616374696f6e2e000000000000000000000000000000000000602082015250565b5f610c19602e83610b21565b9150610c2482610bbf565b604082019050919050565b5f6020820190508181035f830152610c4681610c0d565b9050919050565b7f4e487b71000000000000000000000000000000000000000000000000000000005f52601160045260245ffd5b5f610c8482610979565b9150610c8f83610979565b9250828203905081811115610ca757610ca6610c4d565b5b92915050565b7f596f7520646f6e2774206861766520616e7920747265617375726520616c6c6f5f8201527f77616e6365000000000000000000000000000000000000000000000000000000602082015250565b5f610d07602583610b21565b9150610d1282610cad565b604082019050919050565b5f6020820190508181035f830152610d3481610cfb565b9050919050565b7f596f75206861766520616c72656164792077697468647261776e20796f7572205f8201527f7472656173757265000000000000000000000000000000000000000000000000602082015250565b5f610d95602883610b21565b9150610da082610d3b565b604082019050919050565b5f6020820190508181035f830152610dc281610d89565b9050919050565b7f4e6f7420656e6f75676820747265617375726520696e207468652063686573745f82015250565b5f610dfd602083610b21565b9150610e0882610dc9565b602082019050919050565b5f6020820190508181035f830152610e2a81610df1565b9050919050565b5f610e3b82610979565b9150610e4683610979565b9250828201905080821115610e5e57610e5d610c4d565b5b92915050565b7f496e76616c6964206164647265737300000000000000000000000000000000005f82015250565b5f610e98600f83610b21565b9150610ea382610e64565b602082019050919050565b5f6020820190508181035f830152610ec581610e8c565b9050919050565b7f4e6f7420656e6f75676820747265617375726520617661696c61626c650000005f82015250565b5f610f00601d83610b21565b9150610f0b82610ecc565b602082019050919050565b5f6020820190508181035f830152610f2d81610ef4565b905091905056fea26469706673582212206cf62f7ce88b5aa32af0c3922339e00d1781574cbae077e262124a3b8134f11664736f6c634300081e0033",
					"opcodes": "PUSH1 0x80 PUSH1 0x40 MSTORE CALLVALUE DUP1 ISZERO PUSH1 0xE JUMPI PUSH0 PUSH0 REVERT JUMPDEST POP CALLER PUSH0 PUSH0 PUSH2 0x100 EXP DUP2 SLOAD DUP2 PUSH20 0xFFFFFFFFFFFFFFFFFFFFFFFFFFFFFFFFFFFFFFFF MUL NOT AND SWAP1 DUP4 PUSH20 0xFFFFFFFFFFFFFFFFFFFFFFFFFFFFFFFFFFFFFFFF AND MUL OR SWAP1 SSTORE POP PUSH2 0xF6A DUP1 PUSH2 0x5B PUSH0 CODECOPY PUSH0 RETURN INVALID PUSH1 0x80 PUSH1 0x40 MSTORE CALLVALUE DUP1 ISZERO PUSH2 0xF JUMPI PUSH0 PUSH0 REVERT JUMPDEST POP PUSH1 0x4 CALLDATASIZE LT PUSH2 0x9C JUMPI PUSH0 CALLDATALOAD PUSH1 0xE0 SHR DUP1 PUSH4 0xACA5B346 GT PUSH2 0x64 JUMPI DUP1 PUSH4 0xACA5B346 EQ PUSH2 0x146 JUMPI DUP1 PUSH4 0xDFBB36F9 EQ PUSH2 0x162 JUMPI DUP1 PUSH4 0xE0147005 EQ PUSH2 0x192 JUMPI DUP1 PUSH4 0xF2FDE38B EQ PUSH2 0x1AE JUMPI DUP1 PUSH4 0xF4970E71 EQ PUSH2 0x1CA JUMPI PUSH2 0x9C JUMP JUMPDEST DUP1 PUSH4 0x5B238EE5 EQ PUSH2 0xA0 JUMPI DUP1 PUSH4 0x5E2C19DB EQ PUSH2 0xBE JUMPI DUP1 PUSH4 0x774124FA EQ PUSH2 0xEE JUMPI DUP1 PUSH4 0x8DA5CB5B EQ PUSH2 0x10C JUMPI DUP1 PUSH4 0x941907DE EQ PUSH2 0x12A JUMPI JUMPDEST PUSH0 PUSH0 REVERT JUMPDEST PUSH2 0xA8 PUSH2 0x1E6 JUMP JUMPDEST PUSH1 0x40 MLOAD PUSH2 0xB5 SWAP2 SWAP1 PUSH2 0x991 JUMP JUMPDEST PUSH1 0x40 MLOAD DUP1 SWAP2 SUB SWAP1 RETURN JUMPDEST PUSH2 0xD8 PUSH1 0x4 DUP1 CALLDATASIZE SUB DUP2 ADD SWAP1 PUSH2 0xD3 SWAP2 SWAP1 PUSH2 0xA08 JUMP JUMPDEST PUSH2 0x1EC JUMP JUMPDEST PUSH1 0x40 MLOAD PUSH2 0xE5 SWAP2 SWAP1 PUSH2 0xA4D JUMP JUMPDEST PUSH1 0x40 MLOAD DUP1 SWAP2 SUB SWAP1 RETURN JUMPDEST PUSH2 0xF6 PUSH2 0x209 JUMP JUMPDEST PUSH1 0x40 MLOAD PUSH2 0x103 SWAP2 SWAP1 PUSH2 0x991 JUMP JUMPDEST PUSH1 0x40 MLOAD DUP1 SWAP2 SUB SWAP1 RETURN JUMPDEST PUSH2 0x114 PUSH2 0x2A0 JUMP JUMPDEST PUSH1 0x40 MLOAD PUSH2 0x121 SWAP2 SWAP1 PUSH2 0xA75 JUMP JUMPDEST PUSH1 0x40 MLOAD DUP1 SWAP2 SUB SWAP1 RETURN JUMPDEST PUSH2 0x144 PUSH1 0x4 DUP1 CALLDATASIZE SUB DUP2 ADD SWAP1 PUSH2 0x13F SWAP2 SWAP1 PUSH2 0xA08 JUMP JUMPDEST PUSH2 0x2C4 JUMP JUMPDEST STOP JUMPDEST PUSH2 0x160 PUSH1 0x4 DUP1 CALLDATASIZE SUB DUP2 ADD SWAP1 PUSH2 0x15B SWAP2 SWAP1 PUSH2 0xAB8 JUMP JUMPDEST PUSH2 0x3A9 JUMP JUMPDEST STOP JUMPDEST PUSH2 0x17C PUSH1 0x4 DUP1 CALLDATASIZE SUB DUP2 ADD SWAP1 PUSH2 0x177 SWAP2 SWAP1 PUSH2 0xA08 JUMP JUMPDEST PUSH2 0x664 JUMP JUMPDEST PUSH1 0x40 MLOAD PUSH2 0x189 SWAP2 SWAP1 PUSH2 0x991 JUMP JUMPDEST PUSH1 0x40 MLOAD DUP1 SWAP2 SUB SWAP1 RETURN JUMPDEST PUSH2 0x1AC PUSH1 0x4 DUP1 CALLDATASIZE SUB DUP2 ADD SWAP1 PUSH2 0x1A7 SWAP2 SWAP1 PUSH2 0xAB8 JUMP JUMPDEST PUSH2 0x679 JUMP JUMPDEST STOP JUMPDEST PUSH2 0x1C8 PUSH1 0x4 DUP1 CALLDATASIZE SUB DUP2 ADD SWAP1 PUSH2 0x1C3 SWAP2 SWAP1 PUSH2 0xA08 JUMP JUMPDEST PUSH2 0x722 JUMP JUMPDEST STOP JUMPDEST PUSH2 0x1E4 PUSH1 0x4 DUP1 CALLDATASIZE SUB DUP2 ADD SWAP1 PUSH2 0x1DF SWAP2 SWAP1 PUSH2 0xAE3 JUMP JUMPDEST PUSH2 0x860 JUMP JUMPDEST STOP JUMPDEST PUSH1 0x1 SLOAD DUP2 JUMP JUMPDEST PUSH1 0x3 PUSH1 0x20 MSTORE DUP1 PUSH0 MSTORE PUSH1 0x40 PUSH0 KECCAK256 PUSH0 SWAP2 POP SLOAD SWAP1 PUSH2 0x100 EXP SWAP1 DIV PUSH1 0xFF AND DUP2 JUMP JUMPDEST PUSH0 PUSH0 PUSH0 SWAP1 SLOAD SWAP1 PUSH2 0x100 EXP SWAP1 DIV PUSH20 0xFFFFFFFFFFFFFFFFFFFFFFFFFFFFFFFFFFFFFFFF AND PUSH20 0xFFFFFFFFFFFFFFFFFFFFFFFFFFFFFFFFFFFFFFFF AND CALLER PUSH20 0xFFFFFFFFFFFFFFFFFFFFFFFFFFFFFFFFFFFFFFFF AND EQ PUSH2 0x298 JUMPI PUSH1 0x40 MLOAD PUSH32 0x8C379A000000000000000000000000000000000000000000000000000000000 DUP2 MSTORE PUSH1 0x4 ADD PUSH2 0x28F SWAP1 PUSH2 0xBA1 JUMP JUMPDEST PUSH1 0x40 MLOAD DUP1 SWAP2 SUB SWAP1 REVERT JUMPDEST PUSH1 0x1 SLOAD SWAP1 POP SWAP1 JUMP JUMPDEST PUSH0 PUSH0 SWAP1 SLOAD SWAP1 PUSH2 0x100 EXP SWAP1 DIV PUSH20 0xFFFFFFFFFFFFFFFFFFFFFFFFFFFFFFFFFFFFFFFF AND DUP2 JUMP JUMPDEST PUSH0 PUSH0 SWAP1 SLOAD SWAP1 PUSH2 0x100 EXP SWAP1 DIV PUSH20 0xFFFFFFFFFFFFFFFFFFFFFFFFFFFFFFFFFFFFFFFF AND PUSH20 0xFFFFFFFFFFFFFFFFFFFFFFFFFFFFFFFFFFFFFFFF AND CALLER PUSH20 0xFFFFFFFFFFFFFFFFFFFFFFFFFFFFFFFFFFFFFFFF AND EQ PUSH2 0x352 JUMPI PUSH1 0x40 MLOAD PUSH32 0x8C379A000000000000000000000000000000000000000000000000000000000 DUP2 MSTORE PUSH1 0x4 ADD PUSH2 0x349 SWAP1 PUSH2 0xBA1 JUMP JUMPDEST PUSH1 0x40 MLOAD DUP1 SWAP2 SUB SWAP1 REVERT JUMPDEST PUSH0 PUSH1 0x3 PUSH0 DUP4 PUSH20 0xFFFFFFFFFFFFFFFFFFFFFFFFFFFFFFFFFFFFFFFF AND PUSH20 0xFFFFFFFFFFFFFFFFFFFFFFFFFFFFFFFFFFFFFFFF AND DUP2 MSTORE PUSH1 0x20 ADD SWAP1 DUP2 MSTORE PUSH1 0x20 ADD PUSH0 KECCAK256 PUSH0 PUSH2 0x100 EXP DUP2 SLOAD DUP2 PUSH1 0xFF MUL NOT AND SWAP1 DUP4 ISZERO ISZERO MUL OR SWAP1 SSTORE POP POP JUMP JUMPDEST PUSH0 PUSH0 SWAP1 SLOAD SWAP1 PUSH2 0x100 EXP SWAP1 DIV PUSH20 0xFFFFFFFFFFFFFFFFFFFFFFFFFFFFFFFFFFFFFFFF AND PUSH20 0xFFFFFFFFFFFFFFFFFFFFFFFFFFFFFFFFFFFFFFFF AND CALLER PUSH20 0xFFFFFFFFFFFFFFFFFFFFFFFFFFFFFFFFFFFFFFFF AND SUB PUSH2 0x45E JUMPI PUSH1 0x1 SLOAD DUP2 GT ISZERO PUSH2 0x441 JUMPI PUSH1 0x40 MLOAD PUSH32 0x8C379A000000000000000000000000000000000000000000000000000000000 DUP2 MSTORE PUSH1 0x4 ADD PUSH2 0x438 SWAP1 PUSH2 0xC2F JUMP JUMPDEST PUSH1 0x40 MLOAD DUP1 SWAP2 SUB SWAP1 REVERT JUMPDEST DUP1 PUSH1 0x1 PUSH0 DUP3 DUP3 SLOAD PUSH2 0x452 SWAP2 SWAP1 PUSH2 0xC7A JUMP JUMPDEST SWAP3 POP POP DUP2 SWAP1 SSTORE POP PUSH2 0x661 JUMP JUMPDEST PUSH0 PUSH1 0x2 PUSH0 CALLER PUSH20 0xFFFFFFFFFFFFFFFFFFFFFFFFFFFFFFFFFFFFFFFF AND PUSH20 0xFFFFFFFFFFFFFFFFFFFFFFFFFFFFFFFFFFFFFFFF AND DUP2 MSTORE PUSH1 0x20 ADD SWAP1 DUP2 MSTORE PUSH1 0x20 ADD PUSH0 KECCAK256 SLOAD SWAP1 POP PUSH0 DUP2 GT PUSH2 0x4E1 JUMPI PUSH1 0x40 MLOAD PUSH32 0x8C379A000000000000000000000000000000000000000000000000000000000 DUP2 MSTORE PUSH1 0x4 ADD PUSH2 0x4D8 SWAP1 PUSH2 0xD1D JUMP JUMPDEST PUSH1 0x40 MLOAD DUP1 SWAP2 SUB SWAP1 REVERT JUMPDEST PUSH1 0x3 PUSH0 CALLER PUSH20 0xFFFFFFFFFFFFFFFFFFFFFFFFFFFFFFFFFFFFFFFF AND PUSH20 0xFFFFFFFFFFFFFFFFFFFFFFFFFFFFFFFFFFFFFFFF AND DUP2 MSTORE PUSH1 0x20 ADD SWAP1 DUP2 MSTORE PUSH1 0x20 ADD PUSH0 KECCAK256 PUSH0 SWAP1 SLOAD SWAP1 PUSH2 0x100 EXP SWAP1 DIV PUSH1 0xFF AND ISZERO PUSH2 0x56B JUMPI PUSH1 0x40 MLOAD PUSH32 0x8C379A000000000000000000000000000000000000000000000000000000000 DUP2 MSTORE PUSH1 0x4 ADD PUSH2 0x562 SWAP1 PUSH2 0xDAB JUMP JUMPDEST PUSH1 0x40 MLOAD DUP1 SWAP2 SUB SWAP1 REVERT JUMPDEST PUSH1 0x1 SLOAD DUP2 GT ISZERO PUSH2 0x5B0 JUMPI PUSH1 0x40 MLOAD PUSH32 0x8C379A000000000000000000000000000000000000000000000000000000000 DUP2 MSTORE PUSH1 0x4 ADD PUSH2 0x5A7 SWAP1 PUSH2 0xE13 JUMP JUMPDEST PUSH1 0x40 MLOAD DUP1 SWAP2 SUB SWAP1 REVERT JUMPDEST PUSH1 0x1 PUSH1 0x3 PUSH0 CALLER PUSH20 0xFFFFFFFFFFFFFFFFFFFFFFFFFFFFFFFFFFFFFFFF AND PUSH20 0xFFFFFFFFFFFFFFFFFFFFFFFFFFFFFFFFFFFFFFFF AND DUP2 MSTORE PUSH1 0x20 ADD SWAP1 DUP2 MSTORE PUSH1 0x20 ADD PUSH0 KECCAK256 PUSH0 PUSH2 0x100 EXP DUP2 SLOAD DUP2 PUSH1 0xFF MUL NOT AND SWAP1 DUP4 ISZERO ISZERO MUL OR SWAP1 SSTORE POP DUP1 PUSH1 0x1 PUSH0 DUP3 DUP3 SLOAD PUSH2 0x616 SWAP2 SWAP1 PUSH2 0xC7A JUMP JUMPDEST SWAP3 POP POP DUP2 SWAP1 SSTORE POP PUSH0 PUSH1 0x2 PUSH0 CALLER PUSH20 0xFFFFFFFFFFFFFFFFFFFFFFFFFFFFFFFFFFFFFFFF AND PUSH20 0xFFFFFFFFFFFFFFFFFFFFFFFFFFFFFFFFFFFFFFFF AND DUP2 MSTORE PUSH1 0x20 ADD SWAP1 DUP2 MSTORE PUSH1 0x20 ADD PUSH0 KECCAK256 DUP2 SWAP1 SSTORE POP POP JUMPDEST POP JUMP JUMPDEST PUSH1 0x2 PUSH1 0x20 MSTORE DUP1 PUSH0 MSTORE PUSH1 0x40 PUSH0 KECCAK256 PUSH0 SWAP2 POP SWAP1 POP SLOAD DUP2 JUMP JUMPDEST PUSH0 PUSH0 SWAP1 SLOAD SWAP1 PUSH2 0x100 EXP SWAP1 DIV PUSH20 0xFFFFFFFFFFFFFFFFFFFFFFFFFFFFFFFFFFFFFFFF AND PUSH20 0xFFFFFFFFFFFFFFFFFFFFFFFFFFFFFFFFFFFFFFFF AND CALLER PUSH20 0xFFFFFFFFFFFFFFFFFFFFFFFFFFFFFFFFFFFFFFFF AND EQ PUSH2 0x707 JUMPI PUSH1 0x40 MLOAD PUSH32 0x8C379A000000000000000000000000000000000000000000000000000000000 DUP2 MSTORE PUSH1 0x4 ADD PUSH2 0x6FE SWAP1 PUSH2 0xBA1 JUMP JUMPDEST PUSH1 0x40 MLOAD DUP1 SWAP2 SUB SWAP1 REVERT JUMPDEST DUP1 PUSH1 0x1 PUSH0 DUP3 DUP3 SLOAD PUSH2 0x718 SWAP2 SWAP1 PUSH2 0xE31 JUMP JUMPDEST SWAP3 POP POP DUP2 SWAP1 SSTORE POP POP JUMP JUMPDEST PUSH0 PUSH0 SWAP1 SLOAD SWAP1 PUSH2 0x100 EXP SWAP1 DIV PUSH20 0xFFFFFFFFFFFFFFFFFFFFFFFFFFFFFFFFFFFFFFFF AND PUSH20 0xFFFFFFFFFFFFFFFFFFFFFFFFFFFFFFFFFFFFFFFF AND CALLER PUSH20 0xFFFFFFFFFFFFFFFFFFFFFFFFFFFFFFFFFFFFFFFF AND EQ PUSH2 0x7B0 JUMPI PUSH1 0x40 MLOAD PUSH32 0x8C379A000000000000000000000000000000000000000000000000000000000 DUP2 MSTORE PUSH1 0x4 ADD PUSH2 0x7A7 SWAP1 PUSH2 0xBA1 JUMP JUMPDEST PUSH1 0x40 MLOAD DUP1 SWAP2 SUB SWAP1 REVERT JUMPDEST PUSH0 PUSH20 0xFFFFFFFFFFFFFFFFFFFFFFFFFFFFFFFFFFFFFFFF AND DUP2 PUSH20 0xFFFFFFFFFFFFFFFFFFFFFFFFFFFFFFFFFFFFFFFF AND SUB PUSH2 0x81E JUMPI PUSH1 0x40 MLOAD PUSH32 0x8C379A000000000000000000000000000000000000000000000000000000000 DUP2 MSTORE PUSH1 0x4 ADD PUSH2 0x815 SWAP1 PUSH2 0xEAE JUMP JUMPDEST PUSH1 0x40 MLOAD DUP1 SWAP2 SUB SWAP1 REVERT JUMPDEST DUP1 PUSH0 PUSH0 PUSH2 0x100 EXP DUP2 SLOAD DUP2 PUSH20 0xFFFFFFFFFFFFFFFFFFFFFFFFFFFFFFFFFFFFFFFF MUL NOT AND SWAP1 DUP4 PUSH20 0xFFFFFFFFFFFFFFFFFFFFFFFFFFFFFFFFFFFFFFFF AND MUL OR SWAP1 SSTORE POP POP JUMP JUMPDEST PUSH0 PUSH0 SWAP1 SLOAD SWAP1 PUSH2 0x100 EXP SWAP1 DIV PUSH20 0xFFFFFFFFFFFFFFFFFFFFFFFFFFFFFFFFFFFFFFFF AND PUSH20 0xFFFFFFFFFFFFFFFFFFFFFFFFFFFFFFFFFFFFFFFF AND CALLER PUSH20 0xFFFFFFFFFFFFFFFFFFFFFFFFFFFFFFFFFFFFFFFF AND EQ PUSH2 0x8EE JUMPI PUSH1 0x40 MLOAD PUSH32 0x8C379A000000000000000000000000000000000000000000000000000000000 DUP2 MSTORE PUSH1 0x4 ADD PUSH2 0x8E5 SWAP1 PUSH2 0xBA1 JUMP JUMPDEST PUSH1 0x40 MLOAD DUP1 SWAP2 SUB SWAP1 REVERT JUMPDEST PUSH1 0x1 SLOAD DUP2 GT ISZERO PUSH2 0x933 JUMPI PUSH1 0x40 MLOAD PUSH32 0x8C379A000000000000000000000000000000000000000000000000000000000 DUP2 MSTORE PUSH1 0x4 ADD PUSH2 0x92A SWAP1 PUSH2 0xF16 JUMP JUMPDEST PUSH1 0x40 MLOAD DUP1 SWAP2 SUB SWAP1 REVERT JUMPDEST DUP1 PUSH1 0x2 PUSH0 DUP5 PUSH20 0xFFFFFFFFFFFFFFFFFFFFFFFFFFFFFFFFFFFFFFFF AND PUSH20 0xFFFFFFFFFFFFFFFFFFFFFFFFFFFFFFFFFFFFFFFF AND DUP2 MSTORE PUSH1 0x20 ADD SWAP1 DUP2 MSTORE PUSH1 0x20 ADD PUSH0 KECCAK256 DUP2 SWAP1 SSTORE POP POP POP JUMP JUMPDEST PUSH0 DUP2 SWAP1 POP SWAP2 SWAP1 POP JUMP JUMPDEST PUSH2 0x98B DUP2 PUSH2 0x979 JUMP JUMPDEST DUP3 MSTORE POP POP JUMP JUMPDEST PUSH0 PUSH1 0x20 DUP3 ADD SWAP1 POP PUSH2 0x9A4 PUSH0 DUP4 ADD DUP5 PUSH2 0x982 JUMP JUMPDEST SWAP3 SWAP2 POP POP JUMP JUMPDEST PUSH0 PUSH0 REVERT JUMPDEST PUSH0 PUSH20 0xFFFFFFFFFFFFFFFFFFFFFFFFFFFFFFFFFFFFFFFF DUP3 AND SWAP1 POP SWAP2 SWAP1 POP JUMP JUMPDEST PUSH0 PUSH2 0x9D7 DUP3 PUSH2 0x9AE JUMP JUMPDEST SWAP1 POP SWAP2 SWAP1 POP JUMP JUMPDEST PUSH2 0x9E7 DUP2 PUSH2 0x9CD JUMP JUMPDEST DUP2 EQ PUSH2 0x9F1 JUMPI PUSH0 PUSH0 REVERT JUMPDEST POP JUMP JUMPDEST PUSH0 DUP2 CALLDATALOAD SWAP1 POP PUSH2 0xA02 DUP2 PUSH2 0x9DE JUMP JUMPDEST SWAP3 SWAP2 POP POP JUMP JUMPDEST PUSH0 PUSH1 0x20 DUP3 DUP5 SUB SLT ISZERO PUSH2 0xA1D JUMPI PUSH2 0xA1C PUSH2 0x9AA JUMP JUMPDEST JUMPDEST PUSH0 PUSH2 0xA2A DUP5 DUP3 DUP6 ADD PUSH2 0x9F4 JUMP JUMPDEST SWAP2 POP POP SWAP3 SWAP2 POP POP JUMP JUMPDEST PUSH0 DUP2 ISZERO ISZERO SWAP1 POP SWAP2 SWAP1 POP JUMP JUMPDEST PUSH2 0xA47 DUP2 PUSH2 0xA33 JUMP JUMPDEST DUP3 MSTORE POP POP JUMP JUMPDEST PUSH0 PUSH1 0x20 DUP3 ADD SWAP1 POP PUSH2 0xA60 PUSH0 DUP4 ADD DUP5 PUSH2 0xA3E JUMP JUMPDEST SWAP3 SWAP2 POP POP JUMP JUMPDEST PUSH2 0xA6F DUP2 PUSH2 0x9CD JUMP JUMPDEST DUP3 MSTORE POP POP JUMP JUMPDEST PUSH0 PUSH1 0x20 DUP3 ADD SWAP1 POP PUSH2 0xA88 PUSH0 DUP4 ADD DUP5 PUSH2 0xA66 JUMP JUMPDEST SWAP3 SWAP2 POP POP JUMP JUMPDEST PUSH2 0xA97 DUP2 PUSH2 0x979 JUMP JUMPDEST DUP2 EQ PUSH2 0xAA1 JUMPI PUSH0 PUSH0 REVERT JUMPDEST POP JUMP JUMPDEST PUSH0 DUP2 CALLDATALOAD SWAP1 POP PUSH2 0xAB2 DUP2 PUSH2 0xA8E JUMP JUMPDEST SWAP3 SWAP2 POP POP JUMP JUMPDEST PUSH0 PUSH1 0x20 DUP3 DUP5 SUB SLT ISZERO PUSH2 0xACD JUMPI PUSH2 0xACC PUSH2 0x9AA JUMP JUMPDEST JUMPDEST PUSH0 PUSH2 0xADA DUP5 DUP3 DUP6 ADD PUSH2 0xAA4 JUMP JUMPDEST SWAP2 POP POP SWAP3 SWAP2 POP POP JUMP JUMPDEST PUSH0 PUSH0 PUSH1 0x40 DUP4 DUP6 SUB SLT ISZERO PUSH2 0xAF9 JUMPI PUSH2 0xAF8 PUSH2 0x9AA JUMP JUMPDEST JUMPDEST PUSH0 PUSH2 0xB06 DUP6 DUP3 DUP7 ADD PUSH2 0x9F4 JUMP JUMPDEST SWAP3 POP POP PUSH1 0x20 PUSH2 0xB17 DUP6 DUP3 DUP7 ADD PUSH2 0xAA4 JUMP JUMPDEST SWAP2 POP POP SWAP3 POP SWAP3 SWAP1 POP JUMP JUMPDEST PUSH0 DUP3 DUP3 MSTORE PUSH1 0x20 DUP3 ADD SWAP1 POP SWAP3 SWAP2 POP POP JUMP JUMPDEST PUSH32 0x4163636573732064656E6965643A204F6E6C7920746865206F776E6572206361 PUSH0 DUP3 ADD MSTORE PUSH32 0x6E20706572666F726D207468697320616374696F6E0000000000000000000000 PUSH1 0x20 DUP3 ADD MSTORE POP JUMP JUMPDEST PUSH0 PUSH2 0xB8B PUSH1 0x35 DUP4 PUSH2 0xB21 JUMP JUMPDEST SWAP2 POP PUSH2 0xB96 DUP3 PUSH2 0xB31 JUMP JUMPDEST PUSH1 0x40 DUP3 ADD SWAP1 POP SWAP2 SWAP1 POP JUMP JUMPDEST PUSH0 PUSH1 0x20 DUP3 ADD SWAP1 POP DUP2 DUP2 SUB PUSH0 DUP4 ADD MSTORE PUSH2 0xBB8 DUP2 PUSH2 0xB7F JUMP JUMPDEST SWAP1 POP SWAP2 SWAP1 POP JUMP JUMPDEST PUSH32 0x4E6F7420656E6F75676820747265617375726520617661696C61626C6520666F PUSH0 DUP3 ADD MSTORE PUSH32 0x72207468697320616374696F6E2E000000000000000000000000000000000000 PUSH1 0x20 DUP3 ADD MSTORE POP JUMP JUMPDEST PUSH0 PUSH2 0xC19 PUSH1 0x2E DUP4 PUSH2 0xB21 JUMP JUMPDEST SWAP2 POP PUSH2 0xC24 DUP3 PUSH2 0xBBF JUMP JUMPDEST PUSH1 0x40 DUP3 ADD SWAP1 POP SWAP2 SWAP1 POP JUMP JUMPDEST PUSH0 PUSH1 0x20 DUP3 ADD SWAP1 POP DUP2 DUP2 SUB PUSH0 DUP4 ADD MSTORE PUSH2 0xC46 DUP2 PUSH2 0xC0D JUMP JUMPDEST SWAP1 POP SWAP2 SWAP1 POP JUMP JUMPDEST PUSH32 0x4E487B7100000000000000000000000000000000000000000000000000000000 PUSH0 MSTORE PUSH1 0x11 PUSH1 0x4 MSTORE PUSH1 0x24 PUSH0 REVERT JUMPDEST PUSH0 PUSH2 0xC84 DUP3 PUSH2 0x979 JUMP JUMPDEST SWAP2 POP PUSH2 0xC8F DUP4 PUSH2 0x979 JUMP JUMPDEST SWAP3 POP DUP3 DUP3 SUB SWAP1 POP DUP2 DUP2 GT ISZERO PUSH2 0xCA7 JUMPI PUSH2 0xCA6 PUSH2 0xC4D JUMP JUMPDEST JUMPDEST SWAP3 SWAP2 POP POP JUMP JUMPDEST PUSH32 0x596F7520646F6E2774206861766520616E7920747265617375726520616C6C6F PUSH0 DUP3 ADD MSTORE PUSH32 0x77616E6365000000000000000000000000000000000000000000000000000000 PUSH1 0x20 DUP3 ADD MSTORE POP JUMP JUMPDEST PUSH0 PUSH2 0xD07 PUSH1 0x25 DUP4 PUSH2 0xB21 JUMP JUMPDEST SWAP2 POP PUSH2 0xD12 DUP3 PUSH2 0xCAD JUMP JUMPDEST PUSH1 0x40 DUP3 ADD SWAP1 POP SWAP2 SWAP1 POP JUMP JUMPDEST PUSH0 PUSH1 0x20 DUP3 ADD SWAP1 POP DUP2 DUP2 SUB PUSH0 DUP4 ADD MSTORE PUSH2 0xD34 DUP2 PUSH2 0xCFB JUMP JUMPDEST SWAP1 POP SWAP2 SWAP1 POP JUMP JUMPDEST PUSH32 0x596F75206861766520616C72656164792077697468647261776E20796F757220 PUSH0 DUP3 ADD MSTORE PUSH32 0x7472656173757265000000000000000000000000000000000000000000000000 PUSH1 0x20 DUP3 ADD MSTORE POP JUMP JUMPDEST PUSH0 PUSH2 0xD95 PUSH1 0x28 DUP4 PUSH2 0xB21 JUMP JUMPDEST SWAP2 POP PUSH2 0xDA0 DUP3 PUSH2 0xD3B JUMP JUMPDEST PUSH1 0x40 DUP3 ADD SWAP1 POP SWAP2 SWAP1 POP JUMP JUMPDEST PUSH0 PUSH1 0x20 DUP3 ADD SWAP1 POP DUP2 DUP2 SUB PUSH0 DUP4 ADD MSTORE PUSH2 0xDC2 DUP2 PUSH2 0xD89 JUMP JUMPDEST SWAP1 POP SWAP2 SWAP1 POP JUMP JUMPDEST PUSH32 0x4E6F7420656E6F75676820747265617375726520696E20746865206368657374 PUSH0 DUP3 ADD MSTORE POP JUMP JUMPDEST PUSH0 PUSH2 0xDFD PUSH1 0x20 DUP4 PUSH2 0xB21 JUMP JUMPDEST SWAP2 POP PUSH2 0xE08 DUP3 PUSH2 0xDC9 JUMP JUMPDEST PUSH1 0x20 DUP3 ADD SWAP1 POP SWAP2 SWAP1 POP JUMP JUMPDEST PUSH0 PUSH1 0x20 DUP3 ADD SWAP1 POP DUP2 DUP2 SUB PUSH0 DUP4 ADD MSTORE PUSH2 0xE2A DUP2 PUSH2 0xDF1 JUMP JUMPDEST SWAP1 POP SWAP2 SWAP1 POP JUMP JUMPDEST PUSH0 PUSH2 0xE3B DUP3 PUSH2 0x979 JUMP JUMPDEST SWAP2 POP PUSH2 0xE46 DUP4 PUSH2 0x979 JUMP JUMPDEST SWAP3 POP DUP3 DUP3 ADD SWAP1 POP DUP1 DUP3 GT ISZERO PUSH2 0xE5E JUMPI PUSH2 0xE5D PUSH2 0xC4D JUMP JUMPDEST JUMPDEST SWAP3 SWAP2 POP POP JUMP JUMPDEST PUSH32 0x496E76616C696420616464726573730000000000000000000000000000000000 PUSH0 DUP3 ADD MSTORE POP JUMP JUMPDEST PUSH0 PUSH2 0xE98 PUSH1 0xF DUP4 PUSH2 0xB21 JUMP JUMPDEST SWAP2 POP PUSH2 0xEA3 DUP3 PUSH2 0xE64 JUMP JUMPDEST PUSH1 0x20 DUP3 ADD SWAP1 POP SWAP2 SWAP1 POP JUMP JUMPDEST PUSH0 PUSH1 0x20 DUP3 ADD SWAP1 POP DUP2 DUP2 SUB PUSH0 DUP4 ADD MSTORE PUSH2 0xEC5 DUP2 PUSH2 0xE8C JUMP JUMPDEST SWAP1 POP SWAP2 SWAP1 POP JUMP JUMPDEST PUSH32 0x4E6F7420656E6F75676820747265617375726520617661696C61626C65000000 PUSH0 DUP3 ADD MSTORE POP JUMP JUMPDEST PUSH0 PUSH2 0xF00 PUSH1 0x1D DUP4 PUSH2 0xB21 JUMP JUMPDEST SWAP2 POP PUSH2 0xF0B DUP3 PUSH2 0xECC JUMP JUMPDEST PUSH1 0x20 DUP3 ADD SWAP1 POP SWAP2 SWAP1 POP JUMP JUMPDEST PUSH0 PUSH1 0x20 DUP3 ADD SWAP1 POP DUP2 DUP2 SUB PUSH0 DUP4 ADD MSTORE PUSH2 0xF2D DUP2 PUSH2 0xEF4 JUMP JUMPDEST SWAP1 POP SWAP2 SWAP1 POP JUMP INVALID LOG2 PUSH5 0x6970667358 0x22 SLT KECCAK256 PUSH13 0xF62F7CE88B5AA32AF0C3922339 RJUMP 0xD17 DUP2 JUMPI 0x4C 0xBA RJUMP 0x77E2 PUSH3 0x124A3B DUP2 CALLVALUE CALL AND PUSH5 0x736F6C6343 STOP ADDMOD 0x1E STOP CALLER "
				},
				"gasEstimates": {
					"creation": {
						"codeDepositCost": "789200",
						"executionCost": "25087",
						"totalCost": "814287"
					},
					"external": {
						"addTreasure(uint256)": "infinite",
						"approveWithdrawal(address,uint256)": "27203",
						"getTreasureDetails()": "4645",
						"hasWithdrawn(address)": "2856",
						"owner()": "2574",
						"resetWithdrawalStatus(address)": "27059",
						"transferOwnership(address)": "26982",
						"treasureAmount()": "2426",
						"withdrawTreasure(uint256)": "infinite",
						"withdrawalAllowance(address)": "2824"
					}
				},
				"methodIdentifiers": {
					"addTreasure(uint256)": "e0147005",
					"approveWithdrawal(address,uint256)": "f4970e71",
					"getTreasureDetails()": "774124fa",
					"hasWithdrawn(address)": "5e2c19db",
					"owner()": "8da5cb5b",
					"resetWithdrawalStatus(address)": "941907de",
					"transferOwnership(address)": "f2fde38b",
					"treasureAmount()": "5b238ee5",
					"withdrawTreasure(uint256)": "aca5b346",
					"withdrawalAllowance(address)": "dfbb36f9"
				}
			},
			"storageLayout": {
				"storage": [
					{
						"astId": 3,
						"contract": "submissions/yuriofi/Day5.sol:AdminOnly",
						"label": "owner",
						"offset": 0,
						"slot": "0",
						"type": "t_address"
					},
					{
						"astId": 5,
						"contract": "submissions/yuriofi/Day5.sol:AdminOnly",
						"label": "treasureAmount",
						"offset": 0,
						"slot": "1",
						"type": "t_uint256"
					},
					{
						"astId": 9,
						"contract": "submissions/yuriofi/Day5.sol:AdminOnly",
						"label": "withdrawalAllowance",
						"offset": 0,
						"slot": "2",
						"type": "t_mapping(t_address,t_uint256)"
					},
					{
						"astId": 13,
						"contract": "submissions/yuriofi/Day5.sol:AdminOnly",
						"label": "hasWithdrawn",
						"offset": 0,
						"slot": "3",
						"type": "t_mapping(t_address,t_bool)"
					}
				],
				"types": {
					"t_address": {
						"encoding": "inplace",
						"label": "address",
						"numberOfBytes": "20"
					},
					"t_bool": {
						"encoding": "inplace",
						"label": "bool",
						"numberOfBytes": "1"
					},
					"t_mapping(t_address,t_bool)": {
						"encoding": "mapping",
						"key": "t_address",
						"label": "mapping(address => bool)",
						"numberOfBytes": "32",
						"value": "t_bool"
					},
					"t_mapping(t_address,t_uint256)": {
						"encoding": "mapping",
						"key": "t_address",
						"label": "mapping(address => uint256)",
						"numberOfBytes": "32",
						"value": "t_uint256"
					},
					"t_uint256": {
						"encoding": "inplace",
						"label": "uint256",
						"numberOfBytes": "32"
					}
				}
			},
			"userdoc": {
				"kind": "user",
				"methods": {},
				"version": 1
			}
		}
	}
}