{
	"submissions/Gabbi/day2 savemyname.sol": {
		"SaveMyName": {
			"abi": [
				{
					"inputs": [
						{
							"internalType": "string",
							"name": "_name",
							"type": "string"
						},
						{
							"internalType": "string",
							"name": "_bio",
							"type": "string"
						}
					],
					"name": "add",
					"outputs": [],
					"stateMutability": "nonpayable",
					"type": "function"
				},
				{
					"inputs": [],
					"name": "retrieve",
					"outputs": [
						{
							"internalType": "string",
							"name": "",
							"type": "string"
						},
						{
							"internalType": "string",
							"name": "",
							"type": "string"
						}
					],
					"stateMutability": "view",
					"type": "function"
				},
				{
					"inputs": [
						{
							"internalType": "string",
							"name": "_name",
							"type": "string"
						},
						{
							"internalType": "string",
							"name": "_bio",
							"type": "string"
						}
					],
					"name": "saveAndRetrieve",
					"outputs": [
						{
							"internalType": "string",
							"name": "",
							"type": "string"
						},
						{
							"internalType": "string",
							"name": "",
							"type": "string"
						}
					],
					"stateMutability": "nonpayable",
					"type": "function"
				}
			],
			"devdoc": {
				"kind": "dev",
				"methods": {},
				"version": 1
			},
			"evm": {
				"assembly": "    /* \"submissions/Gabbi/day2 savemyname.sol\":56:534  contract SaveMyName{... */\n  mstore(0x40, 0x80)\n  callvalue\n  dup1\n  iszero\n  tag_1\n  jumpi\n  0x00\n  dup1\n  revert\ntag_1:\n  pop\n  dataSize(sub_0)\n  dup1\n  dataOffset(sub_0)\n  0x00\n  codecopy\n  0x00\n  return\nstop\n\nsub_0: assembly {\n        /* \"submissions/Gabbi/day2 savemyname.sol\":56:534  contract SaveMyName{... */\n      mstore(0x40, 0x80)\n      callvalue\n      dup1\n      iszero\n      tag_1\n      jumpi\n      0x00\n      dup1\n      revert\n    tag_1:\n      pop\n      jumpi(tag_2, lt(calldatasize, 0x04))\n      shr(0xe0, calldataload(0x00))\n      dup1\n      0x2e64cec1\n      eq\n      tag_3\n      jumpi\n      dup1\n      0xaa702942\n      eq\n      tag_4\n      jumpi\n      dup1\n      0xebdf86ca\n      eq\n      tag_5\n      jumpi\n    tag_2:\n      0x00\n      dup1\n      revert\n        /* \"submissions/Gabbi/day2 savemyname.sol\":226:336  function retrieve() public view returns ( string memory, string memory){... */\n    tag_3:\n      tag_6\n      tag_7\n      jump\t// in\n    tag_6:\n      mload(0x40)\n      tag_8\n      swap3\n      swap2\n      swap1\n      tag_9\n      jump\t// in\n    tag_8:\n      mload(0x40)\n      dup1\n      swap2\n      sub\n      swap1\n      return\n        /* \"submissions/Gabbi/day2 savemyname.sol\":342:525  function saveAndRetrieve( string memory _name,string memory _bio) public returns(string memory, string memory){... */\n    tag_4:\n      tag_10\n      0x04\n      dup1\n      calldatasize\n      sub\n      dup2\n      add\n      swap1\n      tag_11\n      swap2\n      swap1\n      tag_12\n      jump\t// in\n    tag_11:\n      tag_13\n      jump\t// in\n    tag_10:\n      mload(0x40)\n      tag_14\n      swap3\n      swap2\n      swap1\n      tag_9\n      jump\t// in\n    tag_14:\n      mload(0x40)\n      dup1\n      swap2\n      sub\n      swap1\n      return\n        /* \"submissions/Gabbi/day2 savemyname.sol\":115:220  function add(string memory _name, string memory _bio) public{... */\n    tag_5:\n      tag_15\n      0x04\n      dup1\n      calldatasize\n      sub\n      dup2\n      add\n      swap1\n      tag_16\n      swap2\n      swap1\n      tag_12\n      jump\t// in\n    tag_16:\n      tag_17\n      jump\t// in\n    tag_15:\n      stop\n        /* \"submissions/Gabbi/day2 savemyname.sol\":226:336  function retrieve() public view returns ( string memory, string memory){... */\n    tag_7:\n        /* \"submissions/Gabbi/day2 savemyname.sol\":268:281  string memory */\n      0x60\n        /* \"submissions/Gabbi/day2 savemyname.sol\":283:296  string memory */\n      dup1\n        /* \"submissions/Gabbi/day2 savemyname.sol\":315:319  name */\n      0x00\n        /* \"submissions/Gabbi/day2 savemyname.sol\":321:324  bio */\n      0x01\n        /* \"submissions/Gabbi/day2 savemyname.sol\":307:325  return (name, bio) */\n      dup2\n      dup1\n      sload\n      tag_19\n      swap1\n      tag_20\n      jump\t// in\n    tag_19:\n      dup1\n      0x1f\n      add\n      0x20\n      dup1\n      swap2\n      div\n      mul\n      0x20\n      add\n      mload(0x40)\n      swap1\n      dup2\n      add\n      0x40\n      mstore\n      dup1\n      swap3\n      swap2\n      swap1\n      dup2\n      dup2\n      mstore\n      0x20\n      add\n      dup3\n      dup1\n      sload\n      tag_21\n      swap1\n      tag_20\n      jump\t// in\n    tag_21:\n      dup1\n      iszero\n      tag_22\n      jumpi\n      dup1\n      0x1f\n      lt\n      tag_23\n      jumpi\n      0x0100\n      dup1\n      dup4\n      sload\n      div\n      mul\n      dup4\n      mstore\n      swap2\n      0x20\n      add\n      swap2\n      jump(tag_22)\n    tag_23:\n      dup3\n      add\n      swap2\n      swap1\n      0x00\n      mstore\n      keccak256(0x00, 0x20)\n      swap1\n    tag_24:\n      dup2\n      sload\n      dup2\n      mstore\n      swap1\n      0x01\n      add\n      swap1\n      0x20\n      add\n      dup1\n      dup4\n      gt\n      tag_24\n      jumpi\n      dup3\n      swap1\n      sub\n      0x1f\n      and\n      dup3\n      add\n      swap2\n    tag_22:\n      pop\n      pop\n      pop\n      pop\n      pop\n      swap2\n      pop\n      dup1\n      dup1\n      sload\n      tag_25\n      swap1\n      tag_20\n      jump\t// in\n    tag_25:\n      dup1\n      0x1f\n      add\n      0x20\n      dup1\n      swap2\n      div\n      mul\n      0x20\n      add\n      mload(0x40)\n      swap1\n      dup2\n      add\n      0x40\n      mstore\n      dup1\n      swap3\n      swap2\n      swap1\n      dup2\n      dup2\n      mstore\n      0x20\n      add\n      dup3\n      dup1\n      sload\n      tag_26\n      swap1\n      tag_20\n      jump\t// in\n    tag_26:\n      dup1\n      iszero\n      tag_27\n      jumpi\n      dup1\n      0x1f\n      lt\n      tag_28\n      jumpi\n      0x0100\n      dup1\n      dup4\n      sload\n      div\n      mul\n      dup4\n      mstore\n      swap2\n      0x20\n      add\n      swap2\n      jump(tag_27)\n    tag_28:\n      dup3\n      add\n      swap2\n      swap1\n      0x00\n      mstore\n      keccak256(0x00, 0x20)\n      swap1\n    tag_29:\n      dup2\n      sload\n      dup2\n      mstore\n      swap1\n      0x01\n      add\n      swap1\n      0x20\n      add\n      dup1\n      dup4\n      gt\n      tag_29\n      jumpi\n      dup3\n      swap1\n      sub\n      0x1f\n      and\n      dup3\n      add\n      swap2\n    tag_27:\n      pop\n      pop\n      pop\n      pop\n      pop\n      swap1\n      pop\n      swap2\n      pop\n      swap2\n      pop\n        /* \"submissions/Gabbi/day2 savemyname.sol\":226:336  function retrieve() public view returns ( string memory, string memory){... */\n      swap1\n      swap2\n      jump\t// out\n        /* \"submissions/Gabbi/day2 savemyname.sol\":342:525  function saveAndRetrieve( string memory _name,string memory _bio) public returns(string memory, string memory){... */\n    tag_13:\n        /* \"submissions/Gabbi/day2 savemyname.sol\":423:436  string memory */\n      0x60\n        /* \"submissions/Gabbi/day2 savemyname.sol\":438:451  string memory */\n      dup1\n        /* \"submissions/Gabbi/day2 savemyname.sol\":467:472  _name */\n      dup4\n        /* \"submissions/Gabbi/day2 savemyname.sol\":462:466  name */\n      0x00\n        /* \"submissions/Gabbi/day2 savemyname.sol\":462:472  name=_name */\n      swap1\n      dup1\n      mload\n      swap1\n      0x20\n      add\n      swap1\n      tag_31\n      swap3\n      swap2\n      swap1\n      tag_32\n      jump\t// in\n    tag_31:\n      pop\n        /* \"submissions/Gabbi/day2 savemyname.sol\":486:490  _bio */\n      dup3\n        /* \"submissions/Gabbi/day2 savemyname.sol\":482:485  bio */\n      0x01\n        /* \"submissions/Gabbi/day2 savemyname.sol\":482:490  bio=_bio */\n      swap1\n      dup1\n      mload\n      swap1\n      0x20\n      add\n      swap1\n      tag_33\n      swap3\n      swap2\n      swap1\n      tag_32\n      jump\t// in\n    tag_33:\n      pop\n        /* \"submissions/Gabbi/day2 savemyname.sol\":508:512  name */\n      0x00\n        /* \"submissions/Gabbi/day2 savemyname.sol\":514:517  bio */\n      0x01\n        /* \"submissions/Gabbi/day2 savemyname.sol\":500:518  return (name, bio) */\n      dup2\n      dup1\n      sload\n      tag_34\n      swap1\n      tag_20\n      jump\t// in\n    tag_34:\n      dup1\n      0x1f\n      add\n      0x20\n      dup1\n      swap2\n      div\n      mul\n      0x20\n      add\n      mload(0x40)\n      swap1\n      dup2\n      add\n      0x40\n      mstore\n      dup1\n      swap3\n      swap2\n      swap1\n      dup2\n      dup2\n      mstore\n      0x20\n      add\n      dup3\n      dup1\n      sload\n      tag_35\n      swap1\n      tag_20\n      jump\t// in\n    tag_35:\n      dup1\n      iszero\n      tag_36\n      jumpi\n      dup1\n      0x1f\n      lt\n      tag_37\n      jumpi\n      0x0100\n      dup1\n      dup4\n      sload\n      div\n      mul\n      dup4\n      mstore\n      swap2\n      0x20\n      add\n      swap2\n      jump(tag_36)\n    tag_37:\n      dup3\n      add\n      swap2\n      swap1\n      0x00\n      mstore\n      keccak256(0x00, 0x20)\n      swap1\n    tag_38:\n      dup2\n      sload\n      dup2\n      mstore\n      swap1\n      0x01\n      add\n      swap1\n      0x20\n      add\n      dup1\n      dup4\n      gt\n      tag_38\n      jumpi\n      dup3\n      swap1\n      sub\n      0x1f\n      and\n      dup3\n      add\n      swap2\n    tag_36:\n      pop\n      pop\n      pop\n      pop\n      pop\n      swap2\n      pop\n      dup1\n      dup1\n      sload\n      tag_39\n      swap1\n      tag_20\n      jump\t// in\n    tag_39:\n      dup1\n      0x1f\n      add\n      0x20\n      dup1\n      swap2\n      div\n      mul\n      0x20\n      add\n      mload(0x40)\n      swap1\n      dup2\n      add\n      0x40\n      mstore\n      dup1\n      swap3\n      swap2\n      swap1\n      dup2\n      dup2\n      mstore\n      0x20\n      add\n      dup3\n      dup1\n      sload\n      tag_40\n      swap1\n      tag_20\n      jump\t// in\n    tag_40:\n      dup1\n      iszero\n      tag_41\n      jumpi\n      dup1\n      0x1f\n      lt\n      tag_42\n      jumpi\n      0x0100\n      dup1\n      dup4\n      sload\n      div\n      mul\n      dup4\n      mstore\n      swap2\n      0x20\n      add\n      swap2\n      jump(tag_41)\n    tag_42:\n      dup3\n      add\n      swap2\n      swap1\n      0x00\n      mstore\n      keccak256(0x00, 0x20)\n      swap1\n    tag_43:\n      dup2\n      sload\n      dup2\n      mstore\n      swap1\n      0x01\n      add\n      swap1\n      0x20\n      add\n      dup1\n      dup4\n      gt\n      tag_43\n      jumpi\n      dup3\n      swap1\n      sub\n      0x1f\n      and\n      dup3\n      add\n      swap2\n    tag_41:\n      pop\n      pop\n      pop\n      pop\n      pop\n      swap1\n      pop\n      swap2\n      pop\n      swap2\n      pop\n        /* \"submissions/Gabbi/day2 savemyname.sol\":342:525  function saveAndRetrieve( string memory _name,string memory _bio) public returns(string memory, string memory){... */\n      swap3\n      pop\n      swap3\n      swap1\n      pop\n      jump\t// out\n        /* \"submissions/Gabbi/day2 savemyname.sol\":115:220  function add(string memory _name, string memory _bio) public{... */\n    tag_17:\n        /* \"submissions/Gabbi/day2 savemyname.sol\":190:195  _name */\n      dup2\n        /* \"submissions/Gabbi/day2 savemyname.sol\":185:189  name */\n      0x00\n        /* \"submissions/Gabbi/day2 savemyname.sol\":185:195  name=_name */\n      swap1\n      dup1\n      mload\n      swap1\n      0x20\n      add\n      swap1\n      tag_45\n      swap3\n      swap2\n      swap1\n      tag_32\n      jump\t// in\n    tag_45:\n      pop\n        /* \"submissions/Gabbi/day2 savemyname.sol\":209:213  _bio */\n      dup1\n        /* \"submissions/Gabbi/day2 savemyname.sol\":205:208  bio */\n      0x01\n        /* \"submissions/Gabbi/day2 savemyname.sol\":205:213  bio=_bio */\n      swap1\n      dup1\n      mload\n      swap1\n      0x20\n      add\n      swap1\n      tag_46\n      swap3\n      swap2\n      swap1\n      tag_32\n      jump\t// in\n    tag_46:\n      pop\n        /* \"submissions/Gabbi/day2 savemyname.sol\":115:220  function add(string memory _name, string memory _bio) public{... */\n      pop\n      pop\n      jump\t// out\n    tag_32:\n      dup3\n      dup1\n      sload\n      tag_47\n      swap1\n      tag_20\n      jump\t// in\n    tag_47:\n      swap1\n      0x00\n      mstore\n      keccak256(0x00, 0x20)\n      swap1\n      0x1f\n      add\n      0x20\n      swap1\n      div\n      dup2\n      add\n      swap3\n      dup3\n      tag_49\n      jumpi\n      0x00\n      dup6\n      sstore\n      jump(tag_48)\n    tag_49:\n      dup3\n      0x1f\n      lt\n      tag_50\n      jumpi\n      dup1\n      mload\n      not(0xff)\n      and\n      dup4\n      dup1\n      add\n      or\n      dup6\n      sstore\n      jump(tag_48)\n    tag_50:\n      dup3\n      dup1\n      add\n      0x01\n      add\n      dup6\n      sstore\n      dup3\n      iszero\n      tag_48\n      jumpi\n      swap2\n      dup3\n      add\n    tag_51:\n      dup3\n      dup2\n      gt\n      iszero\n      tag_52\n      jumpi\n      dup3\n      mload\n      dup3\n      sstore\n      swap2\n      0x20\n      add\n      swap2\n      swap1\n      0x01\n      add\n      swap1\n      jump(tag_51)\n    tag_52:\n    tag_48:\n      pop\n      swap1\n      pop\n      tag_53\n      swap2\n      swap1\n      tag_54\n      jump\t// in\n    tag_53:\n      pop\n      swap1\n      jump\t// out\n    tag_54:\n    tag_55:\n      dup1\n      dup3\n      gt\n      iszero\n      tag_56\n      jumpi\n      0x00\n      dup2\n      0x00\n      swap1\n      sstore\n      pop\n      0x01\n      add\n      jump(tag_55)\n    tag_56:\n      pop\n      swap1\n      jump\t// out\n        /* \"#utility.yul\":7:351   */\n    tag_58:\n      0x00\n        /* \"#utility.yul\":110:175   */\n      tag_60\n        /* \"#utility.yul\":125:174   */\n      tag_61\n        /* \"#utility.yul\":167:173   */\n      dup5\n        /* \"#utility.yul\":125:174   */\n      tag_62\n      jump\t// in\n    tag_61:\n        /* \"#utility.yul\":110:175   */\n      tag_63\n      jump\t// in\n    tag_60:\n        /* \"#utility.yul\":101:175   */\n      swap1\n      pop\n        /* \"#utility.yul\":198:204   */\n      dup3\n        /* \"#utility.yul\":191:196   */\n      dup2\n        /* \"#utility.yul\":184:205   */\n      mstore\n        /* \"#utility.yul\":236:240   */\n      0x20\n        /* \"#utility.yul\":229:234   */\n      dup2\n        /* \"#utility.yul\":225:241   */\n      add\n        /* \"#utility.yul\":274:277   */\n      dup5\n        /* \"#utility.yul\":265:271   */\n      dup5\n        /* \"#utility.yul\":260:263   */\n      dup5\n        /* \"#utility.yul\":256:272   */\n      add\n        /* \"#utility.yul\":253:278   */\n      gt\n        /* \"#utility.yul\":250:252   */\n      iszero\n      tag_64\n      jumpi\n        /* \"#utility.yul\":291:292   */\n      0x00\n        /* \"#utility.yul\":288:289   */\n      dup1\n        /* \"#utility.yul\":281:293   */\n      revert\n        /* \"#utility.yul\":250:252   */\n    tag_64:\n        /* \"#utility.yul\":304:345   */\n      tag_65\n        /* \"#utility.yul\":338:344   */\n      dup5\n        /* \"#utility.yul\":333:336   */\n      dup3\n        /* \"#utility.yul\":328:331   */\n      dup6\n        /* \"#utility.yul\":304:345   */\n      tag_66\n      jump\t// in\n    tag_65:\n        /* \"#utility.yul\":91:351   */\n      pop\n      swap4\n      swap3\n      pop\n      pop\n      pop\n      jump\t// out\n        /* \"#utility.yul\":371:644   */\n    tag_67:\n      0x00\n        /* \"#utility.yul\":476:479   */\n      dup3\n        /* \"#utility.yul\":469:473   */\n      0x1f\n        /* \"#utility.yul\":461:467   */\n      dup4\n        /* \"#utility.yul\":457:474   */\n      add\n        /* \"#utility.yul\":453:480   */\n      slt\n        /* \"#utility.yul\":443:445   */\n      tag_69\n      jumpi\n        /* \"#utility.yul\":494:495   */\n      0x00\n        /* \"#utility.yul\":491:492   */\n      dup1\n        /* \"#utility.yul\":484:496   */\n      revert\n        /* \"#utility.yul\":443:445   */\n    tag_69:\n        /* \"#utility.yul\":534:540   */\n      dup2\n        /* \"#utility.yul\":521:541   */\n      calldataload\n        /* \"#utility.yul\":559:638   */\n      tag_70\n        /* \"#utility.yul\":634:637   */\n      dup5\n        /* \"#utility.yul\":626:632   */\n      dup3\n        /* \"#utility.yul\":619:623   */\n      0x20\n        /* \"#utility.yul\":611:617   */\n      dup7\n        /* \"#utility.yul\":607:624   */\n      add\n        /* \"#utility.yul\":559:638   */\n      tag_58\n      jump\t// in\n    tag_70:\n        /* \"#utility.yul\":550:638   */\n      swap2\n      pop\n        /* \"#utility.yul\":433:644   */\n      pop\n      swap3\n      swap2\n      pop\n      pop\n      jump\t// out\n        /* \"#utility.yul\":650:1283   */\n    tag_12:\n      0x00\n      dup1\n        /* \"#utility.yul\":795:797   */\n      0x40\n        /* \"#utility.yul\":783:792   */\n      dup4\n        /* \"#utility.yul\":774:781   */\n      dup6\n        /* \"#utility.yul\":770:793   */\n      sub\n        /* \"#utility.yul\":766:798   */\n      slt\n        /* \"#utility.yul\":763:765   */\n      iszero\n      tag_72\n      jumpi\n        /* \"#utility.yul\":811:812   */\n      0x00\n        /* \"#utility.yul\":808:809   */\n      dup1\n        /* \"#utility.yul\":801:813   */\n      revert\n        /* \"#utility.yul\":763:765   */\n    tag_72:\n        /* \"#utility.yul\":882:883   */\n      0x00\n        /* \"#utility.yul\":871:880   */\n      dup4\n        /* \"#utility.yul\":867:884   */\n      add\n        /* \"#utility.yul\":854:885   */\n      calldataload\n        /* \"#utility.yul\":912:930   */\n      0xffffffffffffffff\n        /* \"#utility.yul\":904:910   */\n      dup2\n        /* \"#utility.yul\":901:931   */\n      gt\n        /* \"#utility.yul\":898:900   */\n      iszero\n      tag_73\n      jumpi\n        /* \"#utility.yul\":944:945   */\n      0x00\n        /* \"#utility.yul\":941:942   */\n      dup1\n        /* \"#utility.yul\":934:946   */\n      revert\n        /* \"#utility.yul\":898:900   */\n    tag_73:\n        /* \"#utility.yul\":972:1035   */\n      tag_74\n        /* \"#utility.yul\":1027:1034   */\n      dup6\n        /* \"#utility.yul\":1018:1024   */\n      dup3\n        /* \"#utility.yul\":1007:1016   */\n      dup7\n        /* \"#utility.yul\":1003:1025   */\n      add\n        /* \"#utility.yul\":972:1035   */\n      tag_67\n      jump\t// in\n    tag_74:\n        /* \"#utility.yul\":962:1035   */\n      swap3\n      pop\n        /* \"#utility.yul\":825:1045   */\n      pop\n        /* \"#utility.yul\":1112:1114   */\n      0x20\n        /* \"#utility.yul\":1101:1110   */\n      dup4\n        /* \"#utility.yul\":1097:1115   */\n      add\n        /* \"#utility.yul\":1084:1116   */\n      calldataload\n        /* \"#utility.yul\":1143:1161   */\n      0xffffffffffffffff\n        /* \"#utility.yul\":1135:1141   */\n      dup2\n        /* \"#utility.yul\":1132:1162   */\n      gt\n        /* \"#utility.yul\":1129:1131   */\n      iszero\n      tag_75\n      jumpi\n        /* \"#utility.yul\":1175:1176   */\n      0x00\n        /* \"#utility.yul\":1172:1173   */\n      dup1\n        /* \"#utility.yul\":1165:1177   */\n      revert\n        /* \"#utility.yul\":1129:1131   */\n    tag_75:\n        /* \"#utility.yul\":1203:1266   */\n      tag_76\n        /* \"#utility.yul\":1258:1265   */\n      dup6\n        /* \"#utility.yul\":1249:1255   */\n      dup3\n        /* \"#utility.yul\":1238:1247   */\n      dup7\n        /* \"#utility.yul\":1234:1256   */\n      add\n        /* \"#utility.yul\":1203:1266   */\n      tag_67\n      jump\t// in\n    tag_76:\n        /* \"#utility.yul\":1193:1266   */\n      swap2\n      pop\n        /* \"#utility.yul\":1055:1276   */\n      pop\n        /* \"#utility.yul\":753:1283   */\n      swap3\n      pop\n      swap3\n      swap1\n      pop\n      jump\t// out\n        /* \"#utility.yul\":1289:1653   */\n    tag_77:\n      0x00\n        /* \"#utility.yul\":1405:1444   */\n      tag_79\n        /* \"#utility.yul\":1438:1443   */\n      dup3\n        /* \"#utility.yul\":1405:1444   */\n      tag_80\n      jump\t// in\n    tag_79:\n        /* \"#utility.yul\":1460:1531   */\n      tag_81\n        /* \"#utility.yul\":1524:1530   */\n      dup2\n        /* \"#utility.yul\":1519:1522   */\n      dup6\n        /* \"#utility.yul\":1460:1531   */\n      tag_82\n      jump\t// in\n    tag_81:\n        /* \"#utility.yul\":1453:1531   */\n      swap4\n      pop\n        /* \"#utility.yul\":1540:1592   */\n      tag_83\n        /* \"#utility.yul\":1585:1591   */\n      dup2\n        /* \"#utility.yul\":1580:1583   */\n      dup6\n        /* \"#utility.yul\":1573:1577   */\n      0x20\n        /* \"#utility.yul\":1566:1571   */\n      dup7\n        /* \"#utility.yul\":1562:1578   */\n      add\n        /* \"#utility.yul\":1540:1592   */\n      tag_84\n      jump\t// in\n    tag_83:\n        /* \"#utility.yul\":1617:1646   */\n      tag_85\n        /* \"#utility.yul\":1639:1645   */\n      dup2\n        /* \"#utility.yul\":1617:1646   */\n      tag_86\n      jump\t// in\n    tag_85:\n        /* \"#utility.yul\":1612:1615   */\n      dup5\n        /* \"#utility.yul\":1608:1647   */\n      add\n        /* \"#utility.yul\":1601:1647   */\n      swap2\n      pop\n        /* \"#utility.yul\":1381:1653   */\n      pop\n      swap3\n      swap2\n      pop\n      pop\n      jump\t// out\n        /* \"#utility.yul\":1659:2173   */\n    tag_9:\n      0x00\n        /* \"#utility.yul\":1858:1860   */\n      0x40\n        /* \"#utility.yul\":1847:1856   */\n      dup3\n        /* \"#utility.yul\":1843:1861   */\n      add\n        /* \"#utility.yul\":1835:1861   */\n      swap1\n      pop\n        /* \"#utility.yul\":1907:1916   */\n      dup2\n        /* \"#utility.yul\":1901:1905   */\n      dup2\n        /* \"#utility.yul\":1897:1917   */\n      sub\n        /* \"#utility.yul\":1893:1894   */\n      0x00\n        /* \"#utility.yul\":1882:1891   */\n      dup4\n        /* \"#utility.yul\":1878:1895   */\n      add\n        /* \"#utility.yul\":1871:1918   */\n      mstore\n        /* \"#utility.yul\":1935:2013   */\n      tag_88\n        /* \"#utility.yul\":2008:2012   */\n      dup2\n        /* \"#utility.yul\":1999:2005   */\n      dup6\n        /* \"#utility.yul\":1935:2013   */\n      tag_77\n      jump\t// in\n    tag_88:\n        /* \"#utility.yul\":1927:2013   */\n      swap1\n      pop\n        /* \"#utility.yul\":2060:2069   */\n      dup2\n        /* \"#utility.yul\":2054:2058   */\n      dup2\n        /* \"#utility.yul\":2050:2070   */\n      sub\n        /* \"#utility.yul\":2045:2047   */\n      0x20\n        /* \"#utility.yul\":2034:2043   */\n      dup4\n        /* \"#utility.yul\":2030:2048   */\n      add\n        /* \"#utility.yul\":2023:2071   */\n      mstore\n        /* \"#utility.yul\":2088:2166   */\n      tag_89\n        /* \"#utility.yul\":2161:2165   */\n      dup2\n        /* \"#utility.yul\":2152:2158   */\n      dup5\n        /* \"#utility.yul\":2088:2166   */\n      tag_77\n      jump\t// in\n    tag_89:\n        /* \"#utility.yul\":2080:2166   */\n      swap1\n      pop\n        /* \"#utility.yul\":1825:2173   */\n      swap4\n      swap3\n      pop\n      pop\n      pop\n      jump\t// out\n        /* \"#utility.yul\":2179:2462   */\n    tag_63:\n      0x00\n        /* \"#utility.yul\":2245:2247   */\n      0x40\n        /* \"#utility.yul\":2239:2248   */\n      mload\n        /* \"#utility.yul\":2229:2248   */\n      swap1\n      pop\n        /* \"#utility.yul\":2287:2291   */\n      dup2\n        /* \"#utility.yul\":2279:2285   */\n      dup2\n        /* \"#utility.yul\":2275:2292   */\n      add\n        /* \"#utility.yul\":2394:2400   */\n      dup2\n        /* \"#utility.yul\":2382:2392   */\n      dup2\n        /* \"#utility.yul\":2379:2401   */\n      lt\n        /* \"#utility.yul\":2358:2376   */\n      0xffffffffffffffff\n        /* \"#utility.yul\":2346:2356   */\n      dup3\n        /* \"#utility.yul\":2343:2377   */\n      gt\n        /* \"#utility.yul\":2340:2402   */\n      or\n        /* \"#utility.yul\":2337:2339   */\n      iszero\n      tag_91\n      jumpi\n        /* \"#utility.yul\":2405:2423   */\n      tag_92\n      tag_93\n      jump\t// in\n    tag_92:\n        /* \"#utility.yul\":2337:2339   */\n    tag_91:\n        /* \"#utility.yul\":2445:2455   */\n      dup1\n        /* \"#utility.yul\":2441:2443   */\n      0x40\n        /* \"#utility.yul\":2434:2456   */\n      mstore\n        /* \"#utility.yul\":2219:2462   */\n      pop\n      swap2\n      swap1\n      pop\n      jump\t// out\n        /* \"#utility.yul\":2468:2800   */\n    tag_62:\n      0x00\n        /* \"#utility.yul\":2620:2638   */\n      0xffffffffffffffff\n        /* \"#utility.yul\":2612:2618   */\n      dup3\n        /* \"#utility.yul\":2609:2639   */\n      gt\n        /* \"#utility.yul\":2606:2608   */\n      iszero\n      tag_95\n      jumpi\n        /* \"#utility.yul\":2642:2660   */\n      tag_96\n      tag_93\n      jump\t// in\n    tag_96:\n        /* \"#utility.yul\":2606:2608   */\n    tag_95:\n        /* \"#utility.yul\":2727:2731   */\n      0x1f\n        /* \"#utility.yul\":2723:2732   */\n      not\n        /* \"#utility.yul\":2716:2720   */\n      0x1f\n        /* \"#utility.yul\":2708:2714   */\n      dup4\n        /* \"#utility.yul\":2704:2721   */\n      add\n        /* \"#utility.yul\":2700:2733   */\n      and\n        /* \"#utility.yul\":2692:2733   */\n      swap1\n      pop\n        /* \"#utility.yul\":2788:2792   */\n      0x20\n        /* \"#utility.yul\":2782:2786   */\n      dup2\n        /* \"#utility.yul\":2778:2793   */\n      add\n        /* \"#utility.yul\":2770:2793   */\n      swap1\n      pop\n        /* \"#utility.yul\":2535:2800   */\n      swap2\n      swap1\n      pop\n      jump\t// out\n        /* \"#utility.yul\":2806:2905   */\n    tag_80:\n      0x00\n        /* \"#utility.yul\":2892:2897   */\n      dup2\n        /* \"#utility.yul\":2886:2898   */\n      mload\n        /* \"#utility.yul\":2876:2898   */\n      swap1\n      pop\n        /* \"#utility.yul\":2865:2905   */\n      swap2\n      swap1\n      pop\n      jump\t// out\n        /* \"#utility.yul\":2911:3080   */\n    tag_82:\n      0x00\n        /* \"#utility.yul\":3029:3035   */\n      dup3\n        /* \"#utility.yul\":3024:3027   */\n      dup3\n        /* \"#utility.yul\":3017:3036   */\n      mstore\n        /* \"#utility.yul\":3069:3073   */\n      0x20\n        /* \"#utility.yul\":3064:3067   */\n      dup3\n        /* \"#utility.yul\":3060:3074   */\n      add\n        /* \"#utility.yul\":3045:3074   */\n      swap1\n      pop\n        /* \"#utility.yul\":3007:3080   */\n      swap3\n      swap2\n      pop\n      pop\n      jump\t// out\n        /* \"#utility.yul\":3086:3240   */\n    tag_66:\n        /* \"#utility.yul\":3170:3176   */\n      dup3\n        /* \"#utility.yul\":3165:3168   */\n      dup2\n        /* \"#utility.yul\":3160:3163   */\n      dup4\n        /* \"#utility.yul\":3147:3177   */\n      calldatacopy\n        /* \"#utility.yul\":3232:3233   */\n      0x00\n        /* \"#utility.yul\":3223:3229   */\n      dup4\n        /* \"#utility.yul\":3218:3221   */\n      dup4\n        /* \"#utility.yul\":3214:3230   */\n      add\n        /* \"#utility.yul\":3207:3234   */\n      mstore\n        /* \"#utility.yul\":3137:3240   */\n      pop\n      pop\n      pop\n      jump\t// out\n        /* \"#utility.yul\":3246:3553   */\n    tag_84:\n        /* \"#utility.yul\":3314:3315   */\n      0x00\n        /* \"#utility.yul\":3324:3437   */\n    tag_101:\n        /* \"#utility.yul\":3338:3344   */\n      dup4\n        /* \"#utility.yul\":3335:3336   */\n      dup2\n        /* \"#utility.yul\":3332:3345   */\n      lt\n        /* \"#utility.yul\":3324:3437   */\n      iszero\n      tag_103\n      jumpi\n        /* \"#utility.yul\":3423:3424   */\n      dup1\n        /* \"#utility.yul\":3418:3421   */\n      dup3\n        /* \"#utility.yul\":3414:3425   */\n      add\n        /* \"#utility.yul\":3408:3426   */\n      mload\n        /* \"#utility.yul\":3404:3405   */\n      dup2\n        /* \"#utility.yul\":3399:3402   */\n      dup5\n        /* \"#utility.yul\":3395:3406   */\n      add\n        /* \"#utility.yul\":3388:3427   */\n      mstore\n        /* \"#utility.yul\":3360:3362   */\n      0x20\n        /* \"#utility.yul\":3357:3358   */\n      dup2\n        /* \"#utility.yul\":3353:3363   */\n      add\n        /* \"#utility.yul\":3348:3363   */\n      swap1\n      pop\n        /* \"#utility.yul\":3324:3437   */\n      jump(tag_101)\n    tag_103:\n        /* \"#utility.yul\":3455:3461   */\n      dup4\n        /* \"#utility.yul\":3452:3453   */\n      dup2\n        /* \"#utility.yul\":3449:3462   */\n      gt\n        /* \"#utility.yul\":3446:3448   */\n      iszero\n      tag_104\n      jumpi\n        /* \"#utility.yul\":3535:3536   */\n      0x00\n        /* \"#utility.yul\":3526:3532   */\n      dup5\n        /* \"#utility.yul\":3521:3524   */\n      dup5\n        /* \"#utility.yul\":3517:3533   */\n      add\n        /* \"#utility.yul\":3510:3537   */\n      mstore\n        /* \"#utility.yul\":3446:3448   */\n    tag_104:\n        /* \"#utility.yul\":3295:3553   */\n      pop\n      pop\n      pop\n      pop\n      jump\t// out\n        /* \"#utility.yul\":3559:3879   */\n    tag_20:\n      0x00\n        /* \"#utility.yul\":3640:3641   */\n      0x02\n        /* \"#utility.yul\":3634:3638   */\n      dup3\n        /* \"#utility.yul\":3630:3642   */\n      div\n        /* \"#utility.yul\":3620:3642   */\n      swap1\n      pop\n        /* \"#utility.yul\":3687:3688   */\n      0x01\n        /* \"#utility.yul\":3681:3685   */\n      dup3\n        /* \"#utility.yul\":3677:3689   */\n      and\n        /* \"#utility.yul\":3708:3726   */\n      dup1\n        /* \"#utility.yul\":3698:3700   */\n      tag_106\n      jumpi\n        /* \"#utility.yul\":3764:3768   */\n      0x7f\n        /* \"#utility.yul\":3756:3762   */\n      dup3\n        /* \"#utility.yul\":3752:3769   */\n      and\n        /* \"#utility.yul\":3742:3769   */\n      swap2\n      pop\n        /* \"#utility.yul\":3698:3700   */\n    tag_106:\n        /* \"#utility.yul\":3826:3828   */\n      0x20\n        /* \"#utility.yul\":3818:3824   */\n      dup3\n        /* \"#utility.yul\":3815:3829   */\n      lt\n        /* \"#utility.yul\":3795:3813   */\n      dup2\n        /* \"#utility.yul\":3792:3830   */\n      eq\n        /* \"#utility.yul\":3789:3791   */\n      iszero\n      tag_107\n      jumpi\n        /* \"#utility.yul\":3845:3863   */\n      tag_108\n      tag_109\n      jump\t// in\n    tag_108:\n        /* \"#utility.yul\":3789:3791   */\n    tag_107:\n        /* \"#utility.yul\":3610:3879   */\n      pop\n      swap2\n      swap1\n      pop\n      jump\t// out\n        /* \"#utility.yul\":3885:4065   */\n    tag_109:\n        /* \"#utility.yul\":3933:4010   */\n      0x4e487b7100000000000000000000000000000000000000000000000000000000\n        /* \"#utility.yul\":3930:3931   */\n      0x00\n        /* \"#utility.yul\":3923:4011   */\n      mstore\n        /* \"#utility.yul\":4030:4034   */\n      0x22\n        /* \"#utility.yul\":4027:4028   */\n      0x04\n        /* \"#utility.yul\":4020:4035   */\n      mstore\n        /* \"#utility.yul\":4054:4058   */\n      0x24\n        /* \"#utility.yul\":4051:4052   */\n      0x00\n        /* \"#utility.yul\":4044:4059   */\n      revert\n        /* \"#utility.yul\":4071:4251   */\n    tag_93:\n        /* \"#utility.yul\":4119:4196   */\n      0x4e487b7100000000000000000000000000000000000000000000000000000000\n        /* \"#utility.yul\":4116:4117   */\n      0x00\n        /* \"#utility.yul\":4109:4197   */\n      mstore\n        /* \"#utility.yul\":4216:4220   */\n      0x41\n        /* \"#utility.yul\":4213:4214   */\n      0x04\n        /* \"#utility.yul\":4206:4221   */\n      mstore\n        /* \"#utility.yul\":4240:4244   */\n      0x24\n        /* \"#utility.yul\":4237:4238   */\n      0x00\n        /* \"#utility.yul\":4230:4245   */\n      revert\n        /* \"#utility.yul\":4257:4359   */\n    tag_86:\n      0x00\n        /* \"#utility.yul\":4349:4351   */\n      0x1f\n        /* \"#utility.yul\":4345:4352   */\n      not\n        /* \"#utility.yul\":4340:4342   */\n      0x1f\n        /* \"#utility.yul\":4333:4338   */\n      dup4\n        /* \"#utility.yul\":4329:4343   */\n      add\n        /* \"#utility.yul\":4325:4353   */\n      and\n        /* \"#utility.yul\":4315:4353   */\n      swap1\n      pop\n        /* \"#utility.yul\":4305:4359   */\n      swap2\n      swap1\n      pop\n      jump\t// out\n\n    auxdata: 0xa2646970667358221220abb3f56e31103be64c846d394b62adb18e88ca9400cb413635a0362d4ad63bdb64736f6c63430008000033\n}\n",
				"bytecode": {
					"linkReferences": {},
					"object": "608060405234801561001057600080fd5b506106e0806100206000396000f3fe608060405234801561001057600080fd5b50600436106100415760003560e01c80632e64cec114610046578063aa70294214610065578063ebdf86ca14610096575b600080fd5b61004e6100b2565b60405161005c929190610513565b60405180910390f35b61007f600480360381019061007a919061046e565b6101d9565b60405161008d929190610513565b60405180910390f35b6100b060048036038101906100ab919061046e565b610331565b005b606080600060018180546100c590610609565b80601f01602080910402602001604051908101604052809291908181526020018280546100f190610609565b801561013e5780601f106101135761010080835404028352916020019161013e565b820191906000526020600020905b81548152906001019060200180831161012157829003601f168201915b5050505050915080805461015190610609565b80601f016020809104026020016040519081016040528092919081815260200182805461017d90610609565b80156101ca5780601f1061019f576101008083540402835291602001916101ca565b820191906000526020600020905b8154815290600101906020018083116101ad57829003601f168201915b50505050509050915091509091565b60608083600090805190602001906101f2929190610363565b508260019080519060200190610209929190610363565b506000600181805461021a90610609565b80601f016020809104026020016040519081016040528092919081815260200182805461024690610609565b80156102935780601f1061026857610100808354040283529160200191610293565b820191906000526020600020905b81548152906001019060200180831161027657829003601f168201915b505050505091508080546102a690610609565b80601f01602080910402602001604051908101604052809291908181526020018280546102d290610609565b801561031f5780601f106102f45761010080835404028352916020019161031f565b820191906000526020600020905b81548152906001019060200180831161030257829003601f168201915b50505050509050915091509250929050565b8160009080519060200190610347929190610363565b50806001908051906020019061035e929190610363565b505050565b82805461036f90610609565b90600052602060002090601f01602090048101928261039157600085556103d8565b82601f106103aa57805160ff19168380011785556103d8565b828001600101855582156103d8579182015b828111156103d75782518255916020019190600101906103bc565b5b5090506103e591906103e9565b5090565b5b808211156104025760008160009055506001016103ea565b5090565b60006104196104148461057b565b61054a565b90508281526020810184848401111561043157600080fd5b61043c8482856105c7565b509392505050565b600082601f83011261045557600080fd5b8135610465848260208601610406565b91505092915050565b6000806040838503121561048157600080fd5b600083013567ffffffffffffffff81111561049b57600080fd5b6104a785828601610444565b925050602083013567ffffffffffffffff8111156104c457600080fd5b6104d085828601610444565b9150509250929050565b60006104e5826105ab565b6104ef81856105b6565b93506104ff8185602086016105d6565b61050881610699565b840191505092915050565b6000604082019050818103600083015261052d81856104da565b9050818103602083015261054181846104da565b90509392505050565b6000604051905081810181811067ffffffffffffffff821117156105715761057061066a565b5b8060405250919050565b600067ffffffffffffffff8211156105965761059561066a565b5b601f19601f8301169050602081019050919050565b600081519050919050565b600082825260208201905092915050565b82818337600083830152505050565b60005b838110156105f45780820151818401526020810190506105d9565b83811115610603576000848401525b50505050565b6000600282049050600182168061062157607f821691505b602082108114156106355761063461063b565b5b50919050565b7f4e487b7100000000000000000000000000000000000000000000000000000000600052602260045260246000fd5b7f4e487b7100000000000000000000000000000000000000000000000000000000600052604160045260246000fd5b6000601f19601f830116905091905056fea2646970667358221220abb3f56e31103be64c846d394b62adb18e88ca9400cb413635a0362d4ad63bdb64736f6c63430008000033",
					"opcodes": "PUSH1 0x80 PUSH1 0x40 MSTORE CALLVALUE DUP1 ISZERO PUSH2 0x10 JUMPI PUSH1 0x0 DUP1 REVERT JUMPDEST POP PUSH2 0x6E0 DUP1 PUSH2 0x20 PUSH1 0x0 CODECOPY PUSH1 0x0 RETURN INVALID PUSH1 0x80 PUSH1 0x40 MSTORE CALLVALUE DUP1 ISZERO PUSH2 0x10 JUMPI PUSH1 0x0 DUP1 REVERT JUMPDEST POP PUSH1 0x4 CALLDATASIZE LT PUSH2 0x41 JUMPI PUSH1 0x0 CALLDATALOAD PUSH1 0xE0 SHR DUP1 PUSH4 0x2E64CEC1 EQ PUSH2 0x46 JUMPI DUP1 PUSH4 0xAA702942 EQ PUSH2 0x65 JUMPI DUP1 PUSH4 0xEBDF86CA EQ PUSH2 0x96 JUMPI JUMPDEST PUSH1 0x0 DUP1 REVERT JUMPDEST PUSH2 0x4E PUSH2 0xB2 JUMP JUMPDEST PUSH1 0x40 MLOAD PUSH2 0x5C SWAP3 SWAP2 SWAP1 PUSH2 0x513 JUMP JUMPDEST PUSH1 0x40 MLOAD DUP1 SWAP2 SUB SWAP1 RETURN JUMPDEST PUSH2 0x7F PUSH1 0x4 DUP1 CALLDATASIZE SUB DUP2 ADD SWAP1 PUSH2 0x7A SWAP2 SWAP1 PUSH2 0x46E JUMP JUMPDEST PUSH2 0x1D9 JUMP JUMPDEST PUSH1 0x40 MLOAD PUSH2 0x8D SWAP3 SWAP2 SWAP1 PUSH2 0x513 JUMP JUMPDEST PUSH1 0x40 MLOAD DUP1 SWAP2 SUB SWAP1 RETURN JUMPDEST PUSH2 0xB0 PUSH1 0x4 DUP1 CALLDATASIZE SUB DUP2 ADD SWAP1 PUSH2 0xAB SWAP2 SWAP1 PUSH2 0x46E JUMP JUMPDEST PUSH2 0x331 JUMP JUMPDEST STOP JUMPDEST PUSH1 0x60 DUP1 PUSH1 0x0 PUSH1 0x1 DUP2 DUP1 SLOAD PUSH2 0xC5 SWAP1 PUSH2 0x609 JUMP JUMPDEST DUP1 PUSH1 0x1F ADD PUSH1 0x20 DUP1 SWAP2 DIV MUL PUSH1 0x20 ADD PUSH1 0x40 MLOAD SWAP1 DUP2 ADD PUSH1 0x40 MSTORE DUP1 SWAP3 SWAP2 SWAP1 DUP2 DUP2 MSTORE PUSH1 0x20 ADD DUP3 DUP1 SLOAD PUSH2 0xF1 SWAP1 PUSH2 0x609 JUMP JUMPDEST DUP1 ISZERO PUSH2 0x13E JUMPI DUP1 PUSH1 0x1F LT PUSH2 0x113 JUMPI PUSH2 0x100 DUP1 DUP4 SLOAD DIV MUL DUP4 MSTORE SWAP2 PUSH1 0x20 ADD SWAP2 PUSH2 0x13E JUMP JUMPDEST DUP3 ADD SWAP2 SWAP1 PUSH1 0x0 MSTORE PUSH1 0x20 PUSH1 0x0 KECCAK256 SWAP1 JUMPDEST DUP2 SLOAD DUP2 MSTORE SWAP1 PUSH1 0x1 ADD SWAP1 PUSH1 0x20 ADD DUP1 DUP4 GT PUSH2 0x121 JUMPI DUP3 SWAP1 SUB PUSH1 0x1F AND DUP3 ADD SWAP2 JUMPDEST POP POP POP POP POP SWAP2 POP DUP1 DUP1 SLOAD PUSH2 0x151 SWAP1 PUSH2 0x609 JUMP JUMPDEST DUP1 PUSH1 0x1F ADD PUSH1 0x20 DUP1 SWAP2 DIV MUL PUSH1 0x20 ADD PUSH1 0x40 MLOAD SWAP1 DUP2 ADD PUSH1 0x40 MSTORE DUP1 SWAP3 SWAP2 SWAP1 DUP2 DUP2 MSTORE PUSH1 0x20 ADD DUP3 DUP1 SLOAD PUSH2 0x17D SWAP1 PUSH2 0x609 JUMP JUMPDEST DUP1 ISZERO PUSH2 0x1CA JUMPI DUP1 PUSH1 0x1F LT PUSH2 0x19F JUMPI PUSH2 0x100 DUP1 DUP4 SLOAD DIV MUL DUP4 MSTORE SWAP2 PUSH1 0x20 ADD SWAP2 PUSH2 0x1CA JUMP JUMPDEST DUP3 ADD SWAP2 SWAP1 PUSH1 0x0 MSTORE PUSH1 0x20 PUSH1 0x0 KECCAK256 SWAP1 JUMPDEST DUP2 SLOAD DUP2 MSTORE SWAP1 PUSH1 0x1 ADD SWAP1 PUSH1 0x20 ADD DUP1 DUP4 GT PUSH2 0x1AD JUMPI DUP3 SWAP1 SUB PUSH1 0x1F AND DUP3 ADD SWAP2 JUMPDEST POP POP POP POP POP SWAP1 POP SWAP2 POP SWAP2 POP SWAP1 SWAP2 JUMP JUMPDEST PUSH1 0x60 DUP1 DUP4 PUSH1 0x0 SWAP1 DUP1 MLOAD SWAP1 PUSH1 0x20 ADD SWAP1 PUSH2 0x1F2 SWAP3 SWAP2 SWAP1 PUSH2 0x363 JUMP JUMPDEST POP DUP3 PUSH1 0x1 SWAP1 DUP1 MLOAD SWAP1 PUSH1 0x20 ADD SWAP1 PUSH2 0x209 SWAP3 SWAP2 SWAP1 PUSH2 0x363 JUMP JUMPDEST POP PUSH1 0x0 PUSH1 0x1 DUP2 DUP1 SLOAD PUSH2 0x21A SWAP1 PUSH2 0x609 JUMP JUMPDEST DUP1 PUSH1 0x1F ADD PUSH1 0x20 DUP1 SWAP2 DIV MUL PUSH1 0x20 ADD PUSH1 0x40 MLOAD SWAP1 DUP2 ADD PUSH1 0x40 MSTORE DUP1 SWAP3 SWAP2 SWAP1 DUP2 DUP2 MSTORE PUSH1 0x20 ADD DUP3 DUP1 SLOAD PUSH2 0x246 SWAP1 PUSH2 0x609 JUMP JUMPDEST DUP1 ISZERO PUSH2 0x293 JUMPI DUP1 PUSH1 0x1F LT PUSH2 0x268 JUMPI PUSH2 0x100 DUP1 DUP4 SLOAD DIV MUL DUP4 MSTORE SWAP2 PUSH1 0x20 ADD SWAP2 PUSH2 0x293 JUMP JUMPDEST DUP3 ADD SWAP2 SWAP1 PUSH1 0x0 MSTORE PUSH1 0x20 PUSH1 0x0 KECCAK256 SWAP1 JUMPDEST DUP2 SLOAD DUP2 MSTORE SWAP1 PUSH1 0x1 ADD SWAP1 PUSH1 0x20 ADD DUP1 DUP4 GT PUSH2 0x276 JUMPI DUP3 SWAP1 SUB PUSH1 0x1F AND DUP3 ADD SWAP2 JUMPDEST POP POP POP POP POP SWAP2 POP DUP1 DUP1 SLOAD PUSH2 0x2A6 SWAP1 PUSH2 0x609 JUMP JUMPDEST DUP1 PUSH1 0x1F ADD PUSH1 0x20 DUP1 SWAP2 DIV MUL PUSH1 0x20 ADD PUSH1 0x40 MLOAD SWAP1 DUP2 ADD PUSH1 0x40 MSTORE DUP1 SWAP3 SWAP2 SWAP1 DUP2 DUP2 MSTORE PUSH1 0x20 ADD DUP3 DUP1 SLOAD PUSH2 0x2D2 SWAP1 PUSH2 0x609 JUMP JUMPDEST DUP1 ISZERO PUSH2 0x31F JUMPI DUP1 PUSH1 0x1F LT PUSH2 0x2F4 JUMPI PUSH2 0x100 DUP1 DUP4 SLOAD DIV MUL DUP4 MSTORE SWAP2 PUSH1 0x20 ADD SWAP2 PUSH2 0x31F JUMP JUMPDEST DUP3 ADD SWAP2 SWAP1 PUSH1 0x0 MSTORE PUSH1 0x20 PUSH1 0x0 KECCAK256 SWAP1 JUMPDEST DUP2 SLOAD DUP2 MSTORE SWAP1 PUSH1 0x1 ADD SWAP1 PUSH1 0x20 ADD DUP1 DUP4 GT PUSH2 0x302 JUMPI DUP3 SWAP1 SUB PUSH1 0x1F AND DUP3 ADD SWAP2 JUMPDEST POP POP POP POP POP SWAP1 POP SWAP2 POP SWAP2 POP SWAP3 POP SWAP3 SWAP1 POP JUMP JUMPDEST DUP2 PUSH1 0x0 SWAP1 DUP1 MLOAD SWAP1 PUSH1 0x20 ADD SWAP1 PUSH2 0x347 SWAP3 SWAP2 SWAP1 PUSH2 0x363 JUMP JUMPDEST POP DUP1 PUSH1 0x1 SWAP1 DUP1 MLOAD SWAP1 PUSH1 0x20 ADD SWAP1 PUSH2 0x35E SWAP3 SWAP2 SWAP1 PUSH2 0x363 JUMP JUMPDEST POP POP POP JUMP JUMPDEST DUP3 DUP1 SLOAD PUSH2 0x36F SWAP1 PUSH2 0x609 JUMP JUMPDEST SWAP1 PUSH1 0x0 MSTORE PUSH1 0x20 PUSH1 0x0 KECCAK256 SWAP1 PUSH1 0x1F ADD PUSH1 0x20 SWAP1 DIV DUP2 ADD SWAP3 DUP3 PUSH2 0x391 JUMPI PUSH1 0x0 DUP6 SSTORE PUSH2 0x3D8 JUMP JUMPDEST DUP3 PUSH1 0x1F LT PUSH2 0x3AA JUMPI DUP1 MLOAD PUSH1 0xFF NOT AND DUP4 DUP1 ADD OR DUP6 SSTORE PUSH2 0x3D8 JUMP JUMPDEST DUP3 DUP1 ADD PUSH1 0x1 ADD DUP6 SSTORE DUP3 ISZERO PUSH2 0x3D8 JUMPI SWAP2 DUP3 ADD JUMPDEST DUP3 DUP2 GT ISZERO PUSH2 0x3D7 JUMPI DUP3 MLOAD DUP3 SSTORE SWAP2 PUSH1 0x20 ADD SWAP2 SWAP1 PUSH1 0x1 ADD SWAP1 PUSH2 0x3BC JUMP JUMPDEST JUMPDEST POP SWAP1 POP PUSH2 0x3E5 SWAP2 SWAP1 PUSH2 0x3E9 JUMP JUMPDEST POP SWAP1 JUMP JUMPDEST JUMPDEST DUP1 DUP3 GT ISZERO PUSH2 0x402 JUMPI PUSH1 0x0 DUP2 PUSH1 0x0 SWAP1 SSTORE POP PUSH1 0x1 ADD PUSH2 0x3EA JUMP JUMPDEST POP SWAP1 JUMP JUMPDEST PUSH1 0x0 PUSH2 0x419 PUSH2 0x414 DUP5 PUSH2 0x57B JUMP JUMPDEST PUSH2 0x54A JUMP JUMPDEST SWAP1 POP DUP3 DUP2 MSTORE PUSH1 0x20 DUP2 ADD DUP5 DUP5 DUP5 ADD GT ISZERO PUSH2 0x431 JUMPI PUSH1 0x0 DUP1 REVERT JUMPDEST PUSH2 0x43C DUP5 DUP3 DUP6 PUSH2 0x5C7 JUMP JUMPDEST POP SWAP4 SWAP3 POP POP POP JUMP JUMPDEST PUSH1 0x0 DUP3 PUSH1 0x1F DUP4 ADD SLT PUSH2 0x455 JUMPI PUSH1 0x0 DUP1 REVERT JUMPDEST DUP2 CALLDATALOAD PUSH2 0x465 DUP5 DUP3 PUSH1 0x20 DUP7 ADD PUSH2 0x406 JUMP JUMPDEST SWAP2 POP POP SWAP3 SWAP2 POP POP JUMP JUMPDEST PUSH1 0x0 DUP1 PUSH1 0x40 DUP4 DUP6 SUB SLT ISZERO PUSH2 0x481 JUMPI PUSH1 0x0 DUP1 REVERT JUMPDEST PUSH1 0x0 DUP4 ADD CALLDATALOAD PUSH8 0xFFFFFFFFFFFFFFFF DUP2 GT ISZERO PUSH2 0x49B JUMPI PUSH1 0x0 DUP1 REVERT JUMPDEST PUSH2 0x4A7 DUP6 DUP3 DUP7 ADD PUSH2 0x444 JUMP JUMPDEST SWAP3 POP POP PUSH1 0x20 DUP4 ADD CALLDATALOAD PUSH8 0xFFFFFFFFFFFFFFFF DUP2 GT ISZERO PUSH2 0x4C4 JUMPI PUSH1 0x0 DUP1 REVERT JUMPDEST PUSH2 0x4D0 DUP6 DUP3 DUP7 ADD PUSH2 0x444 JUMP JUMPDEST SWAP2 POP POP SWAP3 POP SWAP3 SWAP1 POP JUMP JUMPDEST PUSH1 0x0 PUSH2 0x4E5 DUP3 PUSH2 0x5AB JUMP JUMPDEST PUSH2 0x4EF DUP2 DUP6 PUSH2 0x5B6 JUMP JUMPDEST SWAP4 POP PUSH2 0x4FF DUP2 DUP6 PUSH1 0x20 DUP7 ADD PUSH2 0x5D6 JUMP JUMPDEST PUSH2 0x508 DUP2 PUSH2 0x699 JUMP JUMPDEST DUP5 ADD SWAP2 POP POP SWAP3 SWAP2 POP POP JUMP JUMPDEST PUSH1 0x0 PUSH1 0x40 DUP3 ADD SWAP1 POP DUP2 DUP2 SUB PUSH1 0x0 DUP4 ADD MSTORE PUSH2 0x52D DUP2 DUP6 PUSH2 0x4DA JUMP JUMPDEST SWAP1 POP DUP2 DUP2 SUB PUSH1 0x20 DUP4 ADD MSTORE PUSH2 0x541 DUP2 DUP5 PUSH2 0x4DA JUMP JUMPDEST SWAP1 POP SWAP4 SWAP3 POP POP POP JUMP JUMPDEST PUSH1 0x0 PUSH1 0x40 MLOAD SWAP1 POP DUP2 DUP2 ADD DUP2 DUP2 LT PUSH8 0xFFFFFFFFFFFFFFFF DUP3 GT OR ISZERO PUSH2 0x571 JUMPI PUSH2 0x570 PUSH2 0x66A JUMP JUMPDEST JUMPDEST DUP1 PUSH1 0x40 MSTORE POP SWAP2 SWAP1 POP JUMP JUMPDEST PUSH1 0x0 PUSH8 0xFFFFFFFFFFFFFFFF DUP3 GT ISZERO PUSH2 0x596 JUMPI PUSH2 0x595 PUSH2 0x66A JUMP JUMPDEST JUMPDEST PUSH1 0x1F NOT PUSH1 0x1F DUP4 ADD AND SWAP1 POP PUSH1 0x20 DUP2 ADD SWAP1 POP SWAP2 SWAP1 POP JUMP JUMPDEST PUSH1 0x0 DUP2 MLOAD SWAP1 POP SWAP2 SWAP1 POP JUMP JUMPDEST PUSH1 0x0 DUP3 DUP3 MSTORE PUSH1 0x20 DUP3 ADD SWAP1 POP SWAP3 SWAP2 POP POP JUMP JUMPDEST DUP3 DUP2 DUP4 CALLDATACOPY PUSH1 0x0 DUP4 DUP4 ADD MSTORE POP POP POP JUMP JUMPDEST PUSH1 0x0 JUMPDEST DUP4 DUP2 LT ISZERO PUSH2 0x5F4 JUMPI DUP1 DUP3 ADD MLOAD DUP2 DUP5 ADD MSTORE PUSH1 0x20 DUP2 ADD SWAP1 POP PUSH2 0x5D9 JUMP JUMPDEST DUP4 DUP2 GT ISZERO PUSH2 0x603 JUMPI PUSH1 0x0 DUP5 DUP5 ADD MSTORE JUMPDEST POP POP POP POP JUMP JUMPDEST PUSH1 0x0 PUSH1 0x2 DUP3 DIV SWAP1 POP PUSH1 0x1 DUP3 AND DUP1 PUSH2 0x621 JUMPI PUSH1 0x7F DUP3 AND SWAP2 POP JUMPDEST PUSH1 0x20 DUP3 LT DUP2 EQ ISZERO PUSH2 0x635 JUMPI PUSH2 0x634 PUSH2 0x63B JUMP JUMPDEST JUMPDEST POP SWAP2 SWAP1 POP JUMP JUMPDEST PUSH32 0x4E487B7100000000000000000000000000000000000000000000000000000000 PUSH1 0x0 MSTORE PUSH1 0x22 PUSH1 0x4 MSTORE PUSH1 0x24 PUSH1 0x0 REVERT JUMPDEST PUSH32 0x4E487B7100000000000000000000000000000000000000000000000000000000 PUSH1 0x0 MSTORE PUSH1 0x41 PUSH1 0x4 MSTORE PUSH1 0x24 PUSH1 0x0 REVERT JUMPDEST PUSH1 0x0 PUSH1 0x1F NOT PUSH1 0x1F DUP4 ADD AND SWAP1 POP SWAP2 SWAP1 POP JUMP INVALID LOG2 PUSH5 0x6970667358 0x22 SLT KECCAK256 0xAB 0xB3 CREATE2 PUSH15 0x31103BE64C846D394B62ADB18E88CA SWAP5 STOP 0xCB COINBASE CALLDATASIZE CALLDATALOAD LOG0 CALLDATASIZE 0x2D 0x4A 0xD6 EXTCODESIZE 0xDB PUSH5 0x736F6C6343 STOP ADDMOD STOP STOP CALLER "
				},
				"gasEstimates": {
					"creation": {
						"codeDepositCost": "352000",
						"executionCost": "386",
						"totalCost": "352386"
					},
					"external": {
						"add(string,string)": "infinite",
						"retrieve()": "infinite",
						"saveAndRetrieve(string,string)": "infinite"
					}
				},
				"methodIdentifiers": {
					"add(string,string)": "ebdf86ca",
					"retrieve()": "2e64cec1",
					"saveAndRetrieve(string,string)": "aa702942"
				}
			},
			"storageLayout": {
				"storage": [
					{
						"astId": 3,
						"contract": "submissions/Gabbi/day2 savemyname.sol:SaveMyName",
						"label": "name",
						"offset": 0,
						"slot": "0",
						"type": "t_string_storage"
					},
					{
						"astId": 5,
						"contract": "submissions/Gabbi/day2 savemyname.sol:SaveMyName",
						"label": "bio",
						"offset": 0,
						"slot": "1",
						"type": "t_string_storage"
					}
				],
				"types": {
					"t_string_storage": {
						"encoding": "bytes",
						"label": "string",
						"numberOfBytes": "32"
					}
				}
			},
			"userdoc": {
				"kind": "user",
				"methods": {},
				"version": 1
			}
		}
	}
}