{
	"submissions/iCat798/13-预售功能设置/Day13-PreOrderToken.sol": {
		"PreOrderToken": {
			"abi": [
				{
					"inputs": [
						{
							"internalType": "uint256",
							"name": "_intitialSupply",
							"type": "uint256"
						},
						{
							"internalType": "uint256",
							"name": "_tokenPrice",
							"type": "uint256"
						},
						{
							"internalType": "uint256",
							"name": "_saleDurationInSeconds",
							"type": "uint256"
						},
						{
							"internalType": "uint256",
							"name": "_minPurchase",
							"type": "uint256"
						},
						{
							"internalType": "uint256",
							"name": "_maxPurchase",
							"type": "uint256"
						},
						{
							"internalType": "address",
							"name": "_projectOwner",
							"type": "address"
						}
					],
					"stateMutability": "nonpayable",
					"type": "constructor"
				},
				{
					"anonymous": false,
					"inputs": [
						{
							"indexed": true,
							"internalType": "address",
							"name": "owner",
							"type": "address"
						},
						{
							"indexed": true,
							"internalType": "address",
							"name": "spender",
							"type": "address"
						},
						{
							"indexed": false,
							"internalType": "uint256",
							"name": "value",
							"type": "uint256"
						}
					],
					"name": "Approval",
					"type": "event"
				},
				{
					"anonymous": false,
					"inputs": [
						{
							"indexed": false,
							"internalType": "uint256",
							"name": "totalRaised",
							"type": "uint256"
						},
						{
							"indexed": false,
							"internalType": "uint256",
							"name": "totalTokensSold",
							"type": "uint256"
						}
					],
					"name": "SaleFinalized",
					"type": "event"
				},
				{
					"anonymous": false,
					"inputs": [
						{
							"indexed": true,
							"internalType": "address",
							"name": "buyer",
							"type": "address"
						},
						{
							"indexed": false,
							"internalType": "uint256",
							"name": "etherAmount",
							"type": "uint256"
						},
						{
							"indexed": false,
							"internalType": "uint256",
							"name": "tokenAmount",
							"type": "uint256"
						}
					],
					"name": "TokensPurchased",
					"type": "event"
				},
				{
					"anonymous": false,
					"inputs": [
						{
							"indexed": true,
							"internalType": "address",
							"name": "from",
							"type": "address"
						},
						{
							"indexed": true,
							"internalType": "address",
							"name": "to",
							"type": "address"
						},
						{
							"indexed": false,
							"internalType": "uint256",
							"name": "value",
							"type": "uint256"
						}
					],
					"name": "Transfer",
					"type": "event"
				},
				{
					"inputs": [
						{
							"internalType": "address",
							"name": "",
							"type": "address"
						},
						{
							"internalType": "address",
							"name": "",
							"type": "address"
						}
					],
					"name": "allowance",
					"outputs": [
						{
							"internalType": "uint256",
							"name": "",
							"type": "uint256"
						}
					],
					"stateMutability": "view",
					"type": "function"
				},
				{
					"inputs": [
						{
							"internalType": "address",
							"name": "_spender",
							"type": "address"
						},
						{
							"internalType": "uint256",
							"name": "_value",
							"type": "uint256"
						}
					],
					"name": "approve",
					"outputs": [
						{
							"internalType": "bool",
							"name": "",
							"type": "bool"
						}
					],
					"stateMutability": "nonpayable",
					"type": "function"
				},
				{
					"inputs": [
						{
							"internalType": "address",
							"name": "",
							"type": "address"
						}
					],
					"name": "balanceOf",
					"outputs": [
						{
							"internalType": "uint256",
							"name": "",
							"type": "uint256"
						}
					],
					"stateMutability": "view",
					"type": "function"
				},
				{
					"inputs": [],
					"name": "buyTokens",
					"outputs": [],
					"stateMutability": "payable",
					"type": "function"
				},
				{
					"inputs": [],
					"name": "decimals",
					"outputs": [
						{
							"internalType": "uint8",
							"name": "",
							"type": "uint8"
						}
					],
					"stateMutability": "view",
					"type": "function"
				},
				{
					"inputs": [],
					"name": "finalizeSale",
					"outputs": [],
					"stateMutability": "payable",
					"type": "function"
				},
				{
					"inputs": [],
					"name": "finalized",
					"outputs": [
						{
							"internalType": "bool",
							"name": "",
							"type": "bool"
						}
					],
					"stateMutability": "view",
					"type": "function"
				},
				{
					"inputs": [],
					"name": "isSaleActive",
					"outputs": [
						{
							"internalType": "bool",
							"name": "",
							"type": "bool"
						}
					],
					"stateMutability": "view",
					"type": "function"
				},
				{
					"inputs": [],
					"name": "maxPurchase",
					"outputs": [
						{
							"internalType": "uint256",
							"name": "",
							"type": "uint256"
						}
					],
					"stateMutability": "view",
					"type": "function"
				},
				{
					"inputs": [],
					"name": "minPurchase",
					"outputs": [
						{
							"internalType": "uint256",
							"name": "",
							"type": "uint256"
						}
					],
					"stateMutability": "view",
					"type": "function"
				},
				{
					"inputs": [],
					"name": "name",
					"outputs": [
						{
							"internalType": "string",
							"name": "",
							"type": "string"
						}
					],
					"stateMutability": "view",
					"type": "function"
				},
				{
					"inputs": [],
					"name": "projectOwner",
					"outputs": [
						{
							"internalType": "address",
							"name": "",
							"type": "address"
						}
					],
					"stateMutability": "view",
					"type": "function"
				},
				{
					"inputs": [],
					"name": "saleEndTime",
					"outputs": [
						{
							"internalType": "uint256",
							"name": "",
							"type": "uint256"
						}
					],
					"stateMutability": "view",
					"type": "function"
				},
				{
					"inputs": [],
					"name": "saleStartTime",
					"outputs": [
						{
							"internalType": "uint256",
							"name": "",
							"type": "uint256"
						}
					],
					"stateMutability": "view",
					"type": "function"
				},
				{
					"inputs": [],
					"name": "symbol",
					"outputs": [
						{
							"internalType": "string",
							"name": "",
							"type": "string"
						}
					],
					"stateMutability": "view",
					"type": "function"
				},
				{
					"inputs": [],
					"name": "timeRemaining",
					"outputs": [
						{
							"internalType": "uint256",
							"name": "",
							"type": "uint256"
						}
					],
					"stateMutability": "view",
					"type": "function"
				},
				{
					"inputs": [],
					"name": "tokenPrice",
					"outputs": [
						{
							"internalType": "uint256",
							"name": "",
							"type": "uint256"
						}
					],
					"stateMutability": "view",
					"type": "function"
				},
				{
					"inputs": [],
					"name": "tokensAvailable",
					"outputs": [
						{
							"internalType": "uint256",
							"name": "",
							"type": "uint256"
						}
					],
					"stateMutability": "view",
					"type": "function"
				},
				{
					"inputs": [],
					"name": "totalRaised",
					"outputs": [
						{
							"internalType": "uint256",
							"name": "",
							"type": "uint256"
						}
					],
					"stateMutability": "view",
					"type": "function"
				},
				{
					"inputs": [],
					"name": "totalSupply",
					"outputs": [
						{
							"internalType": "uint256",
							"name": "",
							"type": "uint256"
						}
					],
					"stateMutability": "view",
					"type": "function"
				},
				{
					"inputs": [
						{
							"internalType": "address",
							"name": "_to",
							"type": "address"
						},
						{
							"internalType": "uint256",
							"name": "_value",
							"type": "uint256"
						}
					],
					"name": "transfer",
					"outputs": [
						{
							"internalType": "bool",
							"name": "",
							"type": "bool"
						}
					],
					"stateMutability": "nonpayable",
					"type": "function"
				},
				{
					"inputs": [
						{
							"internalType": "address",
							"name": "_from",
							"type": "address"
						},
						{
							"internalType": "address",
							"name": "_to",
							"type": "address"
						},
						{
							"internalType": "uint256",
							"name": "_value",
							"type": "uint256"
						}
					],
					"name": "transferFrom",
					"outputs": [
						{
							"internalType": "bool",
							"name": "",
							"type": "bool"
						}
					],
					"stateMutability": "nonpayable",
					"type": "function"
				},
				{
					"stateMutability": "payable",
					"type": "receive"
				}
			],
			"devdoc": {
				"kind": "dev",
				"methods": {},
				"version": 1
			},
			"evm": {
				"assembly": "    /* \"submissions/iCat798/13-\\xe9\\xa2\\x84\\xe5\\x94\\xae\\xe5\\x8a\\x9f\\xe8\\x83\\xbd\\xe8\\xae\\xbe\\xe7\\xbd\\xae/Day13-PreOrderToken.sol\":86:3506  contract PreOrderToken is MyToken {... */\n  mstore(0x40, 0x80)\n    /* \"submissions/iCat798/13-\\xe9\\xa2\\x84\\xe5\\x94\\xae\\xe5\\x8a\\x9f\\xe8\\x83\\xbd\\xe8\\xae\\xbe\\xe7\\xbd\\xae/MyToken.sol\":88:123  string public name = \"Web3 Compass\" */\n  mload(0x40)\n  dup1\n  0x40\n  add\n  0x40\n  mstore\n  dup1\n  0x0c\n  dup2\n  mstore\n  0x20\n  add\n  0x5765623320436f6d706173730000000000000000000000000000000000000000\n  dup2\n  mstore\n  pop\n  0x00\n  swap1\n  dup2\n  tag_1\n  swap2\n  swap1\n  tag_2\n  jump\t// in\ntag_1:\n  pop\n    /* \"submissions/iCat798/13-\\xe9\\xa2\\x84\\xe5\\x94\\xae\\xe5\\x8a\\x9f\\xe8\\x83\\xbd\\xe8\\xae\\xbe\\xe7\\xbd\\xae/MyToken.sol\":130:158  string public symbol = \"WBT\" */\n  mload(0x40)\n  dup1\n  0x40\n  add\n  0x40\n  mstore\n  dup1\n  0x03\n  dup2\n  mstore\n  0x20\n  add\n  0x5742540000000000000000000000000000000000000000000000000000000000\n  dup2\n  mstore\n  pop\n  0x01\n  swap1\n  dup2\n  tag_3\n  swap2\n  swap1\n  tag_2\n  jump\t// in\ntag_3:\n  pop\n    /* \"submissions/iCat798/13-\\xe9\\xa2\\x84\\xe5\\x94\\xae\\xe5\\x8a\\x9f\\xe8\\x83\\xbd\\xe8\\xae\\xbe\\xe7\\xbd\\xae/MyToken.sol\":189:191  18 */\n  0x12\n    /* \"submissions/iCat798/13-\\xe9\\xa2\\x84\\xe5\\x94\\xae\\xe5\\x8a\\x9f\\xe8\\x83\\xbd\\xe8\\xae\\xbe\\xe7\\xbd\\xae/MyToken.sol\":165:191  uint8 public decimals = 18 */\n  0x02\n  exp(0x0100, 0x00)\n  dup2\n  sload\n  dup2\n  0xff\n  mul\n  not\n  and\n  swap1\n  dup4\n  0xff\n  and\n  mul\n  or\n  swap1\n  sstore\n  pop\n    /* \"submissions/iCat798/13-\\xe9\\xa2\\x84\\xe5\\x94\\xae\\xe5\\x8a\\x9f\\xe8\\x83\\xbd\\xe8\\xae\\xbe\\xe7\\xbd\\xae/Day13-PreOrderToken.sol\":386:391  false */\n  0x00\n    /* \"submissions/iCat798/13-\\xe9\\xa2\\x84\\xe5\\x94\\xae\\xe5\\x8a\\x9f\\xe8\\x83\\xbd\\xe8\\xae\\xbe\\xe7\\xbd\\xae/Day13-PreOrderToken.sol\":362:391  bool public finalized = false */\n  0x0c\n  exp(0x0100, 0x14)\n  dup2\n  sload\n  dup2\n  0xff\n  mul\n  not\n  and\n  swap1\n  dup4\n  iszero\n  iszero\n  mul\n  or\n  swap1\n  sstore\n  pop\n    /* \"submissions/iCat798/13-\\xe9\\xa2\\x84\\xe5\\x94\\xae\\xe5\\x8a\\x9f\\xe8\\x83\\xbd\\xe8\\xae\\xbe\\xe7\\xbd\\xae/Day13-PreOrderToken.sol\":433:438  false */\n  0x00\n    /* \"submissions/iCat798/13-\\xe9\\xa2\\x84\\xe5\\x94\\xae\\xe5\\x8a\\x9f\\xe8\\x83\\xbd\\xe8\\xae\\xbe\\xe7\\xbd\\xae/Day13-PreOrderToken.sol\":398:438  bool private initialTransferDone = false */\n  0x0c\n  exp(0x0100, 0x15)\n  dup2\n  sload\n  dup2\n  0xff\n  mul\n  not\n  and\n  swap1\n  dup4\n  iszero\n  iszero\n  mul\n  or\n  swap1\n  sstore\n  pop\n    /* \"submissions/iCat798/13-\\xe9\\xa2\\x84\\xe5\\x94\\xae\\xe5\\x8a\\x9f\\xe8\\x83\\xbd\\xe8\\xae\\xbe\\xe7\\xbd\\xae/Day13-PreOrderToken.sol\":614:1212  constructor( ... */\n  callvalue\n  dup1\n  iszero\n  tag_4\n  jumpi\n  revert(0x00, 0x00)\ntag_4:\n  pop\n  mload(0x40)\n  sub(codesize, bytecodeSize)\n  dup1\n  bytecodeSize\n  dup4\n  codecopy\n  dup2\n  dup2\n  add\n  0x40\n  mstore\n  dup2\n  add\n  swap1\n  tag_5\n  swap2\n  swap1\n  tag_6\n  jump\t// in\ntag_5:\n    /* \"submissions/iCat798/13-\\xe9\\xa2\\x84\\xe5\\x94\\xae\\xe5\\x8a\\x9f\\xe8\\x83\\xbd\\xe8\\xae\\xbe\\xe7\\xbd\\xae/Day13-PreOrderToken.sol\":840:855  _intitialSupply */\n  dup6\n    /* \"submissions/iCat798/13-\\xe9\\xa2\\x84\\xe5\\x94\\xae\\xe5\\x8a\\x9f\\xe8\\x83\\xbd\\xe8\\xae\\xbe\\xe7\\xbd\\xae/MyToken.sol\":607:615  decimals */\n  0x02\n  0x00\n  swap1\n  sload\n  swap1\n  0x0100\n  exp\n  swap1\n  div\n  0xff\n  and\n    /* \"submissions/iCat798/13-\\xe9\\xa2\\x84\\xe5\\x94\\xae\\xe5\\x8a\\x9f\\xe8\\x83\\xbd\\xe8\\xae\\xbe\\xe7\\xbd\\xae/MyToken.sol\":601:603  10 */\n  0x0a\n    /* \"submissions/iCat798/13-\\xe9\\xa2\\x84\\xe5\\x94\\xae\\xe5\\x8a\\x9f\\xe8\\x83\\xbd\\xe8\\xae\\xbe\\xe7\\xbd\\xae/MyToken.sol\":601:615  10 ** decimals */\n  tag_10\n  swap2\n  swap1\n  tag_11\n  jump\t// in\ntag_10:\n    /* \"submissions/iCat798/13-\\xe9\\xa2\\x84\\xe5\\x94\\xae\\xe5\\x8a\\x9f\\xe8\\x83\\xbd\\xe8\\xae\\xbe\\xe7\\xbd\\xae/MyToken.sol\":583:597  _initialSupply */\n  dup2\n    /* \"submissions/iCat798/13-\\xe9\\xa2\\x84\\xe5\\x94\\xae\\xe5\\x8a\\x9f\\xe8\\x83\\xbd\\xe8\\xae\\xbe\\xe7\\xbd\\xae/MyToken.sol\":583:616  _initialSupply * (10 ** decimals) */\n  tag_12\n  swap2\n  swap1\n  tag_13\n  jump\t// in\ntag_12:\n    /* \"submissions/iCat798/13-\\xe9\\xa2\\x84\\xe5\\x94\\xae\\xe5\\x8a\\x9f\\xe8\\x83\\xbd\\xe8\\xae\\xbe\\xe7\\xbd\\xae/MyToken.sol\":569:580  totalSupply */\n  0x03\n    /* \"submissions/iCat798/13-\\xe9\\xa2\\x84\\xe5\\x94\\xae\\xe5\\x8a\\x9f\\xe8\\x83\\xbd\\xe8\\xae\\xbe\\xe7\\xbd\\xae/MyToken.sol\":569:616  totalSupply = _initialSupply * (10 ** decimals) */\n  dup2\n  swap1\n  sstore\n  pop\n    /* \"submissions/iCat798/13-\\xe9\\xa2\\x84\\xe5\\x94\\xae\\xe5\\x8a\\x9f\\xe8\\x83\\xbd\\xe8\\xae\\xbe\\xe7\\xbd\\xae/MyToken.sol\":651:662  totalSupply */\n  sload(0x03)\n    /* \"submissions/iCat798/13-\\xe9\\xa2\\x84\\xe5\\x94\\xae\\xe5\\x8a\\x9f\\xe8\\x83\\xbd\\xe8\\xae\\xbe\\xe7\\xbd\\xae/MyToken.sol\":627:636  balanceOf */\n  0x04\n    /* \"submissions/iCat798/13-\\xe9\\xa2\\x84\\xe5\\x94\\xae\\xe5\\x8a\\x9f\\xe8\\x83\\xbd\\xe8\\xae\\xbe\\xe7\\xbd\\xae/MyToken.sol\":627:648  balanceOf[msg.sender] */\n  0x00\n    /* \"submissions/iCat798/13-\\xe9\\xa2\\x84\\xe5\\x94\\xae\\xe5\\x8a\\x9f\\xe8\\x83\\xbd\\xe8\\xae\\xbe\\xe7\\xbd\\xae/MyToken.sol\":637:647  msg.sender */\n  caller\n    /* \"submissions/iCat798/13-\\xe9\\xa2\\x84\\xe5\\x94\\xae\\xe5\\x8a\\x9f\\xe8\\x83\\xbd\\xe8\\xae\\xbe\\xe7\\xbd\\xae/MyToken.sol\":627:648  balanceOf[msg.sender] */\n  0xffffffffffffffffffffffffffffffffffffffff\n  and\n  0xffffffffffffffffffffffffffffffffffffffff\n  and\n  dup2\n  mstore\n  0x20\n  add\n  swap1\n  dup2\n  mstore\n  0x20\n  add\n  0x00\n  keccak256\n    /* \"submissions/iCat798/13-\\xe9\\xa2\\x84\\xe5\\x94\\xae\\xe5\\x8a\\x9f\\xe8\\x83\\xbd\\xe8\\xae\\xbe\\xe7\\xbd\\xae/MyToken.sol\":627:662  balanceOf[msg.sender] = totalSupply */\n  dup2\n  swap1\n  sstore\n  pop\n    /* \"submissions/iCat798/13-\\xe9\\xa2\\x84\\xe5\\x94\\xae\\xe5\\x8a\\x9f\\xe8\\x83\\xbd\\xe8\\xae\\xbe\\xe7\\xbd\\xae/MyToken.sol\":699:709  msg.sender */\n  caller\n    /* \"submissions/iCat798/13-\\xe9\\xa2\\x84\\xe5\\x94\\xae\\xe5\\x8a\\x9f\\xe8\\x83\\xbd\\xe8\\xae\\xbe\\xe7\\xbd\\xae/MyToken.sol\":678:726  Transfer(address(0), msg.sender, _initialSupply) */\n  0xffffffffffffffffffffffffffffffffffffffff\n  and\n    /* \"submissions/iCat798/13-\\xe9\\xa2\\x84\\xe5\\x94\\xae\\xe5\\x8a\\x9f\\xe8\\x83\\xbd\\xe8\\xae\\xbe\\xe7\\xbd\\xae/MyToken.sol\":695:696  0 */\n  0x00\n    /* \"submissions/iCat798/13-\\xe9\\xa2\\x84\\xe5\\x94\\xae\\xe5\\x8a\\x9f\\xe8\\x83\\xbd\\xe8\\xae\\xbe\\xe7\\xbd\\xae/MyToken.sol\":678:726  Transfer(address(0), msg.sender, _initialSupply) */\n  0xffffffffffffffffffffffffffffffffffffffff\n  and\n  0xddf252ad1be2c89b69c2b068fc378daa952ba7f163c4a11628f55a4df523b3ef\n    /* \"submissions/iCat798/13-\\xe9\\xa2\\x84\\xe5\\x94\\xae\\xe5\\x8a\\x9f\\xe8\\x83\\xbd\\xe8\\xae\\xbe\\xe7\\xbd\\xae/MyToken.sol\":711:725  _initialSupply */\n  dup4\n    /* \"submissions/iCat798/13-\\xe9\\xa2\\x84\\xe5\\x94\\xae\\xe5\\x8a\\x9f\\xe8\\x83\\xbd\\xe8\\xae\\xbe\\xe7\\xbd\\xae/MyToken.sol\":678:726  Transfer(address(0), msg.sender, _initialSupply) */\n  mload(0x40)\n  tag_14\n  swap2\n  swap1\n  tag_15\n  jump\t// in\ntag_14:\n  mload(0x40)\n  dup1\n  swap2\n  sub\n  swap1\n  log3\n    /* \"submissions/iCat798/13-\\xe9\\xa2\\x84\\xe5\\x94\\xae\\xe5\\x8a\\x9f\\xe8\\x83\\xbd\\xe8\\xae\\xbe\\xe7\\xbd\\xae/MyToken.sol\":523:734  constructor(uint256 _initialSupply){... */\n  pop\n    /* \"submissions/iCat798/13-\\xe9\\xa2\\x84\\xe5\\x94\\xae\\xe5\\x8a\\x9f\\xe8\\x83\\xbd\\xe8\\xae\\xbe\\xe7\\xbd\\xae/Day13-PreOrderToken.sol\":880:891  _tokenPrice */\n  dup5\n    /* \"submissions/iCat798/13-\\xe9\\xa2\\x84\\xe5\\x94\\xae\\xe5\\x8a\\x9f\\xe8\\x83\\xbd\\xe8\\xae\\xbe\\xe7\\xbd\\xae/Day13-PreOrderToken.sol\":867:877  tokenPrice */\n  0x06\n    /* \"submissions/iCat798/13-\\xe9\\xa2\\x84\\xe5\\x94\\xae\\xe5\\x8a\\x9f\\xe8\\x83\\xbd\\xe8\\xae\\xbe\\xe7\\xbd\\xae/Day13-PreOrderToken.sol\":867:891  tokenPrice = _tokenPrice */\n  dup2\n  swap1\n  sstore\n  pop\n    /* \"submissions/iCat798/13-\\xe9\\xa2\\x84\\xe5\\x94\\xae\\xe5\\x8a\\x9f\\xe8\\x83\\xbd\\xe8\\xae\\xbe\\xe7\\xbd\\xae/Day13-PreOrderToken.sol\":918:933  block.timestamp */\n  timestamp\n    /* \"submissions/iCat798/13-\\xe9\\xa2\\x84\\xe5\\x94\\xae\\xe5\\x8a\\x9f\\xe8\\x83\\xbd\\xe8\\xae\\xbe\\xe7\\xbd\\xae/Day13-PreOrderToken.sol\":902:915  saleStartTime */\n  0x07\n    /* \"submissions/iCat798/13-\\xe9\\xa2\\x84\\xe5\\x94\\xae\\xe5\\x8a\\x9f\\xe8\\x83\\xbd\\xe8\\xae\\xbe\\xe7\\xbd\\xae/Day13-PreOrderToken.sol\":902:933  saleStartTime = block.timestamp */\n  dup2\n  swap1\n  sstore\n  pop\n    /* \"submissions/iCat798/13-\\xe9\\xa2\\x84\\xe5\\x94\\xae\\xe5\\x8a\\x9f\\xe8\\x83\\xbd\\xe8\\xae\\xbe\\xe7\\xbd\\xae/Day13-PreOrderToken.sol\":976:998  _saleDurationInSeconds */\n  dup4\n    /* \"submissions/iCat798/13-\\xe9\\xa2\\x84\\xe5\\x94\\xae\\xe5\\x8a\\x9f\\xe8\\x83\\xbd\\xe8\\xae\\xbe\\xe7\\xbd\\xae/Day13-PreOrderToken.sol\":958:973  block.timestamp */\n  timestamp\n    /* \"submissions/iCat798/13-\\xe9\\xa2\\x84\\xe5\\x94\\xae\\xe5\\x8a\\x9f\\xe8\\x83\\xbd\\xe8\\xae\\xbe\\xe7\\xbd\\xae/Day13-PreOrderToken.sol\":958:998  block.timestamp + _saleDurationInSeconds */\n  tag_17\n  swap2\n  swap1\n  tag_18\n  jump\t// in\ntag_17:\n    /* \"submissions/iCat798/13-\\xe9\\xa2\\x84\\xe5\\x94\\xae\\xe5\\x8a\\x9f\\xe8\\x83\\xbd\\xe8\\xae\\xbe\\xe7\\xbd\\xae/Day13-PreOrderToken.sol\":944:955  saleEndTime */\n  0x08\n    /* \"submissions/iCat798/13-\\xe9\\xa2\\x84\\xe5\\x94\\xae\\xe5\\x8a\\x9f\\xe8\\x83\\xbd\\xe8\\xae\\xbe\\xe7\\xbd\\xae/Day13-PreOrderToken.sol\":944:998  saleEndTime = block.timestamp + _saleDurationInSeconds */\n  dup2\n  swap1\n  sstore\n  pop\n    /* \"submissions/iCat798/13-\\xe9\\xa2\\x84\\xe5\\x94\\xae\\xe5\\x8a\\x9f\\xe8\\x83\\xbd\\xe8\\xae\\xbe\\xe7\\xbd\\xae/Day13-PreOrderToken.sol\":1023:1035  _minPurchase */\n  dup3\n    /* \"submissions/iCat798/13-\\xe9\\xa2\\x84\\xe5\\x94\\xae\\xe5\\x8a\\x9f\\xe8\\x83\\xbd\\xe8\\xae\\xbe\\xe7\\xbd\\xae/Day13-PreOrderToken.sol\":1009:1020  minPurchase */\n  0x09\n    /* \"submissions/iCat798/13-\\xe9\\xa2\\x84\\xe5\\x94\\xae\\xe5\\x8a\\x9f\\xe8\\x83\\xbd\\xe8\\xae\\xbe\\xe7\\xbd\\xae/Day13-PreOrderToken.sol\":1009:1035  minPurchase = _minPurchase */\n  dup2\n  swap1\n  sstore\n  pop\n    /* \"submissions/iCat798/13-\\xe9\\xa2\\x84\\xe5\\x94\\xae\\xe5\\x8a\\x9f\\xe8\\x83\\xbd\\xe8\\xae\\xbe\\xe7\\xbd\\xae/Day13-PreOrderToken.sol\":1060:1072  _maxPurchase */\n  dup2\n    /* \"submissions/iCat798/13-\\xe9\\xa2\\x84\\xe5\\x94\\xae\\xe5\\x8a\\x9f\\xe8\\x83\\xbd\\xe8\\xae\\xbe\\xe7\\xbd\\xae/Day13-PreOrderToken.sol\":1046:1057  maxPurchase */\n  0x0a\n    /* \"submissions/iCat798/13-\\xe9\\xa2\\x84\\xe5\\x94\\xae\\xe5\\x8a\\x9f\\xe8\\x83\\xbd\\xe8\\xae\\xbe\\xe7\\xbd\\xae/Day13-PreOrderToken.sol\":1046:1072  maxPurchase = _maxPurchase */\n  dup2\n  swap1\n  sstore\n  pop\n    /* \"submissions/iCat798/13-\\xe9\\xa2\\x84\\xe5\\x94\\xae\\xe5\\x8a\\x9f\\xe8\\x83\\xbd\\xe8\\xae\\xbe\\xe7\\xbd\\xae/Day13-PreOrderToken.sol\":1098:1111  _projectOwner */\n  dup1\n    /* \"submissions/iCat798/13-\\xe9\\xa2\\x84\\xe5\\x94\\xae\\xe5\\x8a\\x9f\\xe8\\x83\\xbd\\xe8\\xae\\xbe\\xe7\\xbd\\xae/Day13-PreOrderToken.sol\":1083:1095  projectOwner */\n  0x0c\n  0x00\n    /* \"submissions/iCat798/13-\\xe9\\xa2\\x84\\xe5\\x94\\xae\\xe5\\x8a\\x9f\\xe8\\x83\\xbd\\xe8\\xae\\xbe\\xe7\\xbd\\xae/Day13-PreOrderToken.sol\":1083:1111  projectOwner = _projectOwner */\n  0x0100\n  exp\n  dup2\n  sload\n  dup2\n  0xffffffffffffffffffffffffffffffffffffffff\n  mul\n  not\n  and\n  swap1\n  dup4\n  0xffffffffffffffffffffffffffffffffffffffff\n  and\n  mul\n  or\n  swap1\n  sstore\n  pop\n    /* \"submissions/iCat798/13-\\xe9\\xa2\\x84\\xe5\\x94\\xae\\xe5\\x8a\\x9f\\xe8\\x83\\xbd\\xe8\\xae\\xbe\\xe7\\xbd\\xae/Day13-PreOrderToken.sol\":1126:1175  _transfer(msg.sender, address(this), totalSupply) */\n  tag_19\n    /* \"submissions/iCat798/13-\\xe9\\xa2\\x84\\xe5\\x94\\xae\\xe5\\x8a\\x9f\\xe8\\x83\\xbd\\xe8\\xae\\xbe\\xe7\\xbd\\xae/Day13-PreOrderToken.sol\":1136:1146  msg.sender */\n  caller\n    /* \"submissions/iCat798/13-\\xe9\\xa2\\x84\\xe5\\x94\\xae\\xe5\\x8a\\x9f\\xe8\\x83\\xbd\\xe8\\xae\\xbe\\xe7\\xbd\\xae/Day13-PreOrderToken.sol\":1156:1160  this */\n  address\n    /* \"submissions/iCat798/13-\\xe9\\xa2\\x84\\xe5\\x94\\xae\\xe5\\x8a\\x9f\\xe8\\x83\\xbd\\xe8\\xae\\xbe\\xe7\\xbd\\xae/Day13-PreOrderToken.sol\":1163:1174  totalSupply */\n  sload(0x03)\n    /* \"submissions/iCat798/13-\\xe9\\xa2\\x84\\xe5\\x94\\xae\\xe5\\x8a\\x9f\\xe8\\x83\\xbd\\xe8\\xae\\xbe\\xe7\\xbd\\xae/Day13-PreOrderToken.sol\":1126:1135  _transfer */\n  shl(0x20, tag_20)\n    /* \"submissions/iCat798/13-\\xe9\\xa2\\x84\\xe5\\x94\\xae\\xe5\\x8a\\x9f\\xe8\\x83\\xbd\\xe8\\xae\\xbe\\xe7\\xbd\\xae/Day13-PreOrderToken.sol\":1126:1175  _transfer(msg.sender, address(this), totalSupply) */\n  0x20\n  shr\n  jump\t// in\ntag_19:\n    /* \"submissions/iCat798/13-\\xe9\\xa2\\x84\\xe5\\x94\\xae\\xe5\\x8a\\x9f\\xe8\\x83\\xbd\\xe8\\xae\\xbe\\xe7\\xbd\\xae/Day13-PreOrderToken.sol\":1204:1208  true */\n  0x01\n    /* \"submissions/iCat798/13-\\xe9\\xa2\\x84\\xe5\\x94\\xae\\xe5\\x8a\\x9f\\xe8\\x83\\xbd\\xe8\\xae\\xbe\\xe7\\xbd\\xae/Day13-PreOrderToken.sol\":1182:1201  initialTransferDone */\n  0x0c\n  0x15\n    /* \"submissions/iCat798/13-\\xe9\\xa2\\x84\\xe5\\x94\\xae\\xe5\\x8a\\x9f\\xe8\\x83\\xbd\\xe8\\xae\\xbe\\xe7\\xbd\\xae/Day13-PreOrderToken.sol\":1182:1208  initialTransferDone = true */\n  0x0100\n  exp\n  dup2\n  sload\n  dup2\n  0xff\n  mul\n  not\n  and\n  swap1\n  dup4\n  iszero\n  iszero\n  mul\n  or\n  swap1\n  sstore\n  pop\n    /* \"submissions/iCat798/13-\\xe9\\xa2\\x84\\xe5\\x94\\xae\\xe5\\x8a\\x9f\\xe8\\x83\\xbd\\xe8\\xae\\xbe\\xe7\\xbd\\xae/Day13-PreOrderToken.sol\":614:1212  constructor( ... */\n  pop\n  pop\n  pop\n  pop\n  pop\n  pop\n    /* \"submissions/iCat798/13-\\xe9\\xa2\\x84\\xe5\\x94\\xae\\xe5\\x8a\\x9f\\xe8\\x83\\xbd\\xe8\\xae\\xbe\\xe7\\xbd\\xae/Day13-PreOrderToken.sol\":86:3506  contract PreOrderToken is MyToken {... */\n  jump(tag_21)\n    /* \"submissions/iCat798/13-\\xe9\\xa2\\x84\\xe5\\x94\\xae\\xe5\\x8a\\x9f\\xe8\\x83\\xbd\\xe8\\xae\\xbe\\xe7\\xbd\\xae/MyToken.sol\":743:1020  function _transfer(address _from, address _to, uint256 _value)internal virtual{... */\ntag_20:\n    /* \"submissions/iCat798/13-\\xe9\\xa2\\x84\\xe5\\x94\\xae\\xe5\\x8a\\x9f\\xe8\\x83\\xbd\\xe8\\xae\\xbe\\xe7\\xbd\\xae/MyToken.sol\":855:856  0 */\n  0x00\n    /* \"submissions/iCat798/13-\\xe9\\xa2\\x84\\xe5\\x94\\xae\\xe5\\x8a\\x9f\\xe8\\x83\\xbd\\xe8\\xae\\xbe\\xe7\\xbd\\xae/MyToken.sol\":840:857  _to != address(0) */\n  0xffffffffffffffffffffffffffffffffffffffff\n  and\n    /* \"submissions/iCat798/13-\\xe9\\xa2\\x84\\xe5\\x94\\xae\\xe5\\x8a\\x9f\\xe8\\x83\\xbd\\xe8\\xae\\xbe\\xe7\\xbd\\xae/MyToken.sol\":840:843  _to */\n  dup3\n    /* \"submissions/iCat798/13-\\xe9\\xa2\\x84\\xe5\\x94\\xae\\xe5\\x8a\\x9f\\xe8\\x83\\xbd\\xe8\\xae\\xbe\\xe7\\xbd\\xae/MyToken.sol\":840:857  _to != address(0) */\n  0xffffffffffffffffffffffffffffffffffffffff\n  and\n  sub\n    /* \"submissions/iCat798/13-\\xe9\\xa2\\x84\\xe5\\x94\\xae\\xe5\\x8a\\x9f\\xe8\\x83\\xbd\\xe8\\xae\\xbe\\xe7\\xbd\\xae/MyToken.sol\":832:897  require(_to != address(0), \"Cannot transfer to the zero address\") */\n  tag_23\n  jumpi\n  mload(0x40)\n  0x08c379a000000000000000000000000000000000000000000000000000000000\n  dup2\n  mstore\n  0x04\n  add\n  tag_24\n  swap1\n  tag_25\n  jump\t// in\ntag_24:\n  mload(0x40)\n  dup1\n  swap2\n  sub\n  swap1\n  revert\ntag_23:\n    /* \"submissions/iCat798/13-\\xe9\\xa2\\x84\\xe5\\x94\\xae\\xe5\\x8a\\x9f\\xe8\\x83\\xbd\\xe8\\xae\\xbe\\xe7\\xbd\\xae/MyToken.sol\":927:933  _value */\n  dup1\n    /* \"submissions/iCat798/13-\\xe9\\xa2\\x84\\xe5\\x94\\xae\\xe5\\x8a\\x9f\\xe8\\x83\\xbd\\xe8\\xae\\xbe\\xe7\\xbd\\xae/MyToken.sol\":908:917  balanceOf */\n  0x04\n    /* \"submissions/iCat798/13-\\xe9\\xa2\\x84\\xe5\\x94\\xae\\xe5\\x8a\\x9f\\xe8\\x83\\xbd\\xe8\\xae\\xbe\\xe7\\xbd\\xae/MyToken.sol\":908:924  balanceOf[_from] */\n  0x00\n    /* \"submissions/iCat798/13-\\xe9\\xa2\\x84\\xe5\\x94\\xae\\xe5\\x8a\\x9f\\xe8\\x83\\xbd\\xe8\\xae\\xbe\\xe7\\xbd\\xae/MyToken.sol\":918:923  _from */\n  dup6\n    /* \"submissions/iCat798/13-\\xe9\\xa2\\x84\\xe5\\x94\\xae\\xe5\\x8a\\x9f\\xe8\\x83\\xbd\\xe8\\xae\\xbe\\xe7\\xbd\\xae/MyToken.sol\":908:924  balanceOf[_from] */\n  0xffffffffffffffffffffffffffffffffffffffff\n  and\n  0xffffffffffffffffffffffffffffffffffffffff\n  and\n  dup2\n  mstore\n  0x20\n  add\n  swap1\n  dup2\n  mstore\n  0x20\n  add\n  0x00\n  keccak256\n  0x00\n    /* \"submissions/iCat798/13-\\xe9\\xa2\\x84\\xe5\\x94\\xae\\xe5\\x8a\\x9f\\xe8\\x83\\xbd\\xe8\\xae\\xbe\\xe7\\xbd\\xae/MyToken.sol\":908:933  balanceOf[_from]-= _value */\n  dup3\n  dup3\n  sload\n  tag_26\n  swap2\n  swap1\n  tag_27\n  jump\t// in\ntag_26:\n  swap3\n  pop\n  pop\n  dup2\n  swap1\n  sstore\n  pop\n    /* \"submissions/iCat798/13-\\xe9\\xa2\\x84\\xe5\\x94\\xae\\xe5\\x8a\\x9f\\xe8\\x83\\xbd\\xe8\\xae\\xbe\\xe7\\xbd\\xae/MyToken.sol\":962:968  _value */\n  dup1\n    /* \"submissions/iCat798/13-\\xe9\\xa2\\x84\\xe5\\x94\\xae\\xe5\\x8a\\x9f\\xe8\\x83\\xbd\\xe8\\xae\\xbe\\xe7\\xbd\\xae/MyToken.sol\":944:953  balanceOf */\n  0x04\n    /* \"submissions/iCat798/13-\\xe9\\xa2\\x84\\xe5\\x94\\xae\\xe5\\x8a\\x9f\\xe8\\x83\\xbd\\xe8\\xae\\xbe\\xe7\\xbd\\xae/MyToken.sol\":944:958  balanceOf[_to] */\n  0x00\n    /* \"submissions/iCat798/13-\\xe9\\xa2\\x84\\xe5\\x94\\xae\\xe5\\x8a\\x9f\\xe8\\x83\\xbd\\xe8\\xae\\xbe\\xe7\\xbd\\xae/MyToken.sol\":954:957  _to */\n  dup5\n    /* \"submissions/iCat798/13-\\xe9\\xa2\\x84\\xe5\\x94\\xae\\xe5\\x8a\\x9f\\xe8\\x83\\xbd\\xe8\\xae\\xbe\\xe7\\xbd\\xae/MyToken.sol\":944:958  balanceOf[_to] */\n  0xffffffffffffffffffffffffffffffffffffffff\n  and\n  0xffffffffffffffffffffffffffffffffffffffff\n  and\n  dup2\n  mstore\n  0x20\n  add\n  swap1\n  dup2\n  mstore\n  0x20\n  add\n  0x00\n  keccak256\n  0x00\n    /* \"submissions/iCat798/13-\\xe9\\xa2\\x84\\xe5\\x94\\xae\\xe5\\x8a\\x9f\\xe8\\x83\\xbd\\xe8\\xae\\xbe\\xe7\\xbd\\xae/MyToken.sol\":944:968  balanceOf[_to] += _value */\n  dup3\n  dup3\n  sload\n  tag_28\n  swap2\n  swap1\n  tag_18\n  jump\t// in\ntag_28:\n  swap3\n  pop\n  pop\n  dup2\n  swap1\n  sstore\n  pop\n    /* \"submissions/iCat798/13-\\xe9\\xa2\\x84\\xe5\\x94\\xae\\xe5\\x8a\\x9f\\xe8\\x83\\xbd\\xe8\\xae\\xbe\\xe7\\xbd\\xae/MyToken.sol\":1000:1003  _to */\n  dup2\n    /* \"submissions/iCat798/13-\\xe9\\xa2\\x84\\xe5\\x94\\xae\\xe5\\x8a\\x9f\\xe8\\x83\\xbd\\xe8\\xae\\xbe\\xe7\\xbd\\xae/MyToken.sol\":984:1012  Transfer(_from, _to, _value) */\n  0xffffffffffffffffffffffffffffffffffffffff\n  and\n    /* \"submissions/iCat798/13-\\xe9\\xa2\\x84\\xe5\\x94\\xae\\xe5\\x8a\\x9f\\xe8\\x83\\xbd\\xe8\\xae\\xbe\\xe7\\xbd\\xae/MyToken.sol\":993:998  _from */\n  dup4\n    /* \"submissions/iCat798/13-\\xe9\\xa2\\x84\\xe5\\x94\\xae\\xe5\\x8a\\x9f\\xe8\\x83\\xbd\\xe8\\xae\\xbe\\xe7\\xbd\\xae/MyToken.sol\":984:1012  Transfer(_from, _to, _value) */\n  0xffffffffffffffffffffffffffffffffffffffff\n  and\n  0xddf252ad1be2c89b69c2b068fc378daa952ba7f163c4a11628f55a4df523b3ef\n    /* \"submissions/iCat798/13-\\xe9\\xa2\\x84\\xe5\\x94\\xae\\xe5\\x8a\\x9f\\xe8\\x83\\xbd\\xe8\\xae\\xbe\\xe7\\xbd\\xae/MyToken.sol\":1005:1011  _value */\n  dup4\n    /* \"submissions/iCat798/13-\\xe9\\xa2\\x84\\xe5\\x94\\xae\\xe5\\x8a\\x9f\\xe8\\x83\\xbd\\xe8\\xae\\xbe\\xe7\\xbd\\xae/MyToken.sol\":984:1012  Transfer(_from, _to, _value) */\n  mload(0x40)\n  tag_29\n  swap2\n  swap1\n  tag_15\n  jump\t// in\ntag_29:\n  mload(0x40)\n  dup1\n  swap2\n  sub\n  swap1\n  log3\n    /* \"submissions/iCat798/13-\\xe9\\xa2\\x84\\xe5\\x94\\xae\\xe5\\x8a\\x9f\\xe8\\x83\\xbd\\xe8\\xae\\xbe\\xe7\\xbd\\xae/MyToken.sol\":743:1020  function _transfer(address _from, address _to, uint256 _value)internal virtual{... */\n  pop\n  pop\n  pop\n  jump\t// out\n    /* \"#utility.yul\":7:106   */\ntag_30:\n    /* \"#utility.yul\":59:65   */\n  0x00\n    /* \"#utility.yul\":93:98   */\n  dup2\n    /* \"#utility.yul\":87:99   */\n  mload\n    /* \"#utility.yul\":77:99   */\n  swap1\n  pop\n    /* \"#utility.yul\":7:106   */\n  swap2\n  swap1\n  pop\n  jump\t// out\n    /* \"#utility.yul\":112:292   */\ntag_31:\n    /* \"#utility.yul\":160:237   */\n  0x4e487b7100000000000000000000000000000000000000000000000000000000\n    /* \"#utility.yul\":157:158   */\n  0x00\n    /* \"#utility.yul\":150:238   */\n  mstore\n    /* \"#utility.yul\":257:261   */\n  0x41\n    /* \"#utility.yul\":254:255   */\n  0x04\n    /* \"#utility.yul\":247:262   */\n  mstore\n    /* \"#utility.yul\":281:285   */\n  0x24\n    /* \"#utility.yul\":278:279   */\n  0x00\n    /* \"#utility.yul\":271:286   */\n  revert\n    /* \"#utility.yul\":298:478   */\ntag_32:\n    /* \"#utility.yul\":346:423   */\n  0x4e487b7100000000000000000000000000000000000000000000000000000000\n    /* \"#utility.yul\":343:344   */\n  0x00\n    /* \"#utility.yul\":336:424   */\n  mstore\n    /* \"#utility.yul\":443:447   */\n  0x22\n    /* \"#utility.yul\":440:441   */\n  0x04\n    /* \"#utility.yul\":433:448   */\n  mstore\n    /* \"#utility.yul\":467:471   */\n  0x24\n    /* \"#utility.yul\":464:465   */\n  0x00\n    /* \"#utility.yul\":457:472   */\n  revert\n    /* \"#utility.yul\":484:804   */\ntag_33:\n    /* \"#utility.yul\":528:534   */\n  0x00\n    /* \"#utility.yul\":565:566   */\n  0x02\n    /* \"#utility.yul\":559:563   */\n  dup3\n    /* \"#utility.yul\":555:567   */\n  div\n    /* \"#utility.yul\":545:567   */\n  swap1\n  pop\n    /* \"#utility.yul\":612:613   */\n  0x01\n    /* \"#utility.yul\":606:610   */\n  dup3\n    /* \"#utility.yul\":602:614   */\n  and\n    /* \"#utility.yul\":633:651   */\n  dup1\n    /* \"#utility.yul\":623:704   */\n  tag_73\n  jumpi\n    /* \"#utility.yul\":689:693   */\n  0x7f\n    /* \"#utility.yul\":681:687   */\n  dup3\n    /* \"#utility.yul\":677:694   */\n  and\n    /* \"#utility.yul\":667:694   */\n  swap2\n  pop\n    /* \"#utility.yul\":623:704   */\ntag_73:\n    /* \"#utility.yul\":751:753   */\n  0x20\n    /* \"#utility.yul\":743:749   */\n  dup3\n    /* \"#utility.yul\":740:754   */\n  lt\n    /* \"#utility.yul\":720:738   */\n  dup2\n    /* \"#utility.yul\":717:755   */\n  sub\n    /* \"#utility.yul\":714:798   */\n  tag_74\n  jumpi\n    /* \"#utility.yul\":770:788   */\n  tag_75\n  tag_32\n  jump\t// in\ntag_75:\n    /* \"#utility.yul\":714:798   */\ntag_74:\n    /* \"#utility.yul\":535:804   */\n  pop\n    /* \"#utility.yul\":484:804   */\n  swap2\n  swap1\n  pop\n  jump\t// out\n    /* \"#utility.yul\":810:951   */\ntag_34:\n    /* \"#utility.yul\":859:863   */\n  0x00\n    /* \"#utility.yul\":882:885   */\n  dup2\n    /* \"#utility.yul\":874:885   */\n  swap1\n  pop\n    /* \"#utility.yul\":905:908   */\n  dup2\n    /* \"#utility.yul\":902:903   */\n  0x00\n    /* \"#utility.yul\":895:909   */\n  mstore\n    /* \"#utility.yul\":939:943   */\n  0x20\n    /* \"#utility.yul\":936:937   */\n  0x00\n    /* \"#utility.yul\":926:944   */\n  keccak256\n    /* \"#utility.yul\":918:944   */\n  swap1\n  pop\n    /* \"#utility.yul\":810:951   */\n  swap2\n  swap1\n  pop\n  jump\t// out\n    /* \"#utility.yul\":957:1050   */\ntag_35:\n    /* \"#utility.yul\":994:1000   */\n  0x00\n    /* \"#utility.yul\":1041:1043   */\n  0x20\n    /* \"#utility.yul\":1036:1038   */\n  0x1f\n    /* \"#utility.yul\":1029:1034   */\n  dup4\n    /* \"#utility.yul\":1025:1039   */\n  add\n    /* \"#utility.yul\":1021:1044   */\n  div\n    /* \"#utility.yul\":1011:1044   */\n  swap1\n  pop\n    /* \"#utility.yul\":957:1050   */\n  swap2\n  swap1\n  pop\n  jump\t// out\n    /* \"#utility.yul\":1056:1163   */\ntag_36:\n    /* \"#utility.yul\":1100:1108   */\n  0x00\n    /* \"#utility.yul\":1150:1155   */\n  dup3\n    /* \"#utility.yul\":1144:1148   */\n  dup3\n    /* \"#utility.yul\":1140:1156   */\n  shl\n    /* \"#utility.yul\":1119:1156   */\n  swap1\n  pop\n    /* \"#utility.yul\":1056:1163   */\n  swap3\n  swap2\n  pop\n  pop\n  jump\t// out\n    /* \"#utility.yul\":1169:1562   */\ntag_37:\n    /* \"#utility.yul\":1238:1244   */\n  0x00\n    /* \"#utility.yul\":1288:1289   */\n  0x08\n    /* \"#utility.yul\":1276:1286   */\n  dup4\n    /* \"#utility.yul\":1272:1290   */\n  mul\n    /* \"#utility.yul\":1311:1408   */\n  tag_80\n    /* \"#utility.yul\":1341:1407   */\n  0xffffffffffffffffffffffffffffffffffffffffffffffffffffffffffffffff\n    /* \"#utility.yul\":1330:1339   */\n  dup3\n    /* \"#utility.yul\":1311:1408   */\n  tag_36\n  jump\t// in\ntag_80:\n    /* \"#utility.yul\":1429:1468   */\n  tag_81\n    /* \"#utility.yul\":1459:1467   */\n  dup7\n    /* \"#utility.yul\":1448:1457   */\n  dup4\n    /* \"#utility.yul\":1429:1468   */\n  tag_36\n  jump\t// in\ntag_81:\n    /* \"#utility.yul\":1417:1468   */\n  swap6\n  pop\n    /* \"#utility.yul\":1501:1505   */\n  dup1\n    /* \"#utility.yul\":1497:1506   */\n  not\n    /* \"#utility.yul\":1490:1495   */\n  dup5\n    /* \"#utility.yul\":1486:1507   */\n  and\n    /* \"#utility.yul\":1477:1507   */\n  swap4\n  pop\n    /* \"#utility.yul\":1550:1554   */\n  dup1\n    /* \"#utility.yul\":1540:1548   */\n  dup7\n    /* \"#utility.yul\":1536:1555   */\n  and\n    /* \"#utility.yul\":1529:1534   */\n  dup5\n    /* \"#utility.yul\":1526:1556   */\n  or\n    /* \"#utility.yul\":1516:1556   */\n  swap3\n  pop\n    /* \"#utility.yul\":1245:1562   */\n  pop\n  pop\n    /* \"#utility.yul\":1169:1562   */\n  swap4\n  swap3\n  pop\n  pop\n  pop\n  jump\t// out\n    /* \"#utility.yul\":1568:1645   */\ntag_38:\n    /* \"#utility.yul\":1605:1612   */\n  0x00\n    /* \"#utility.yul\":1634:1639   */\n  dup2\n    /* \"#utility.yul\":1623:1639   */\n  swap1\n  pop\n    /* \"#utility.yul\":1568:1645   */\n  swap2\n  swap1\n  pop\n  jump\t// out\n    /* \"#utility.yul\":1651:1711   */\ntag_39:\n    /* \"#utility.yul\":1679:1682   */\n  0x00\n    /* \"#utility.yul\":1700:1705   */\n  dup2\n    /* \"#utility.yul\":1693:1705   */\n  swap1\n  pop\n    /* \"#utility.yul\":1651:1711   */\n  swap2\n  swap1\n  pop\n  jump\t// out\n    /* \"#utility.yul\":1717:1859   */\ntag_40:\n    /* \"#utility.yul\":1767:1776   */\n  0x00\n    /* \"#utility.yul\":1800:1853   */\n  tag_85\n    /* \"#utility.yul\":1818:1852   */\n  tag_86\n    /* \"#utility.yul\":1827:1851   */\n  tag_87\n    /* \"#utility.yul\":1845:1850   */\n  dup5\n    /* \"#utility.yul\":1827:1851   */\n  tag_38\n  jump\t// in\ntag_87:\n    /* \"#utility.yul\":1818:1852   */\n  tag_39\n  jump\t// in\ntag_86:\n    /* \"#utility.yul\":1800:1853   */\n  tag_38\n  jump\t// in\ntag_85:\n    /* \"#utility.yul\":1787:1853   */\n  swap1\n  pop\n    /* \"#utility.yul\":1717:1859   */\n  swap2\n  swap1\n  pop\n  jump\t// out\n    /* \"#utility.yul\":1865:1940   */\ntag_41:\n    /* \"#utility.yul\":1908:1911   */\n  0x00\n    /* \"#utility.yul\":1929:1934   */\n  dup2\n    /* \"#utility.yul\":1922:1934   */\n  swap1\n  pop\n    /* \"#utility.yul\":1865:1940   */\n  swap2\n  swap1\n  pop\n  jump\t// out\n    /* \"#utility.yul\":1946:2215   */\ntag_42:\n    /* \"#utility.yul\":2056:2095   */\n  tag_90\n    /* \"#utility.yul\":2087:2094   */\n  dup4\n    /* \"#utility.yul\":2056:2095   */\n  tag_40\n  jump\t// in\ntag_90:\n    /* \"#utility.yul\":2117:2208   */\n  tag_91\n    /* \"#utility.yul\":2166:2207   */\n  tag_92\n    /* \"#utility.yul\":2190:2206   */\n  dup3\n    /* \"#utility.yul\":2166:2207   */\n  tag_41\n  jump\t// in\ntag_92:\n    /* \"#utility.yul\":2158:2164   */\n  dup5\n    /* \"#utility.yul\":2151:2155   */\n  dup5\n    /* \"#utility.yul\":2145:2156   */\n  sload\n    /* \"#utility.yul\":2117:2208   */\n  tag_37\n  jump\t// in\ntag_91:\n    /* \"#utility.yul\":2111:2115   */\n  dup3\n    /* \"#utility.yul\":2104:2209   */\n  sstore\n    /* \"#utility.yul\":2022:2215   */\n  pop\n    /* \"#utility.yul\":1946:2215   */\n  pop\n  pop\n  pop\n  jump\t// out\n    /* \"#utility.yul\":2221:2294   */\ntag_43:\n    /* \"#utility.yul\":2266:2269   */\n  0x00\n    /* \"#utility.yul\":2287:2288   */\n  0x00\n    /* \"#utility.yul\":2280:2288   */\n  swap1\n  pop\n    /* \"#utility.yul\":2221:2294   */\n  swap1\n  jump\t// out\n    /* \"#utility.yul\":2300:2489   */\ntag_44:\n    /* \"#utility.yul\":2377:2409   */\n  tag_95\n  tag_43\n  jump\t// in\ntag_95:\n    /* \"#utility.yul\":2418:2483   */\n  tag_96\n    /* \"#utility.yul\":2476:2482   */\n  dup2\n    /* \"#utility.yul\":2468:2474   */\n  dup5\n    /* \"#utility.yul\":2462:2466   */\n  dup5\n    /* \"#utility.yul\":2418:2483   */\n  tag_42\n  jump\t// in\ntag_96:\n    /* \"#utility.yul\":2353:2489   */\n  pop\n    /* \"#utility.yul\":2300:2489   */\n  pop\n  pop\n  jump\t// out\n    /* \"#utility.yul\":2495:2681   */\ntag_45:\n    /* \"#utility.yul\":2555:2675   */\ntag_98:\n    /* \"#utility.yul\":2572:2575   */\n  dup2\n    /* \"#utility.yul\":2565:2570   */\n  dup2\n    /* \"#utility.yul\":2562:2576   */\n  lt\n    /* \"#utility.yul\":2555:2675   */\n  iszero\n  tag_100\n  jumpi\n    /* \"#utility.yul\":2626:2665   */\n  tag_101\n    /* \"#utility.yul\":2663:2664   */\n  0x00\n    /* \"#utility.yul\":2656:2661   */\n  dup3\n    /* \"#utility.yul\":2626:2665   */\n  tag_44\n  jump\t// in\ntag_101:\n    /* \"#utility.yul\":2599:2600   */\n  0x01\n    /* \"#utility.yul\":2592:2597   */\n  dup2\n    /* \"#utility.yul\":2588:2601   */\n  add\n    /* \"#utility.yul\":2579:2601   */\n  swap1\n  pop\n    /* \"#utility.yul\":2555:2675   */\n  jump(tag_98)\ntag_100:\n    /* \"#utility.yul\":2495:2681   */\n  pop\n  pop\n  jump\t// out\n    /* \"#utility.yul\":2687:3230   */\ntag_46:\n    /* \"#utility.yul\":2788:2790   */\n  0x1f\n    /* \"#utility.yul\":2783:2786   */\n  dup3\n    /* \"#utility.yul\":2780:2791   */\n  gt\n    /* \"#utility.yul\":2777:3223   */\n  iszero\n  tag_103\n  jumpi\n    /* \"#utility.yul\":2822:2860   */\n  tag_104\n    /* \"#utility.yul\":2854:2859   */\n  dup2\n    /* \"#utility.yul\":2822:2860   */\n  tag_34\n  jump\t// in\ntag_104:\n    /* \"#utility.yul\":2906:2935   */\n  tag_105\n    /* \"#utility.yul\":2924:2934   */\n  dup5\n    /* \"#utility.yul\":2906:2935   */\n  tag_35\n  jump\t// in\ntag_105:\n    /* \"#utility.yul\":2896:2904   */\n  dup2\n    /* \"#utility.yul\":2892:2936   */\n  add\n    /* \"#utility.yul\":3089:3091   */\n  0x20\n    /* \"#utility.yul\":3077:3087   */\n  dup6\n    /* \"#utility.yul\":3074:3092   */\n  lt\n    /* \"#utility.yul\":3071:3120   */\n  iszero\n  tag_106\n  jumpi\n    /* \"#utility.yul\":3110:3118   */\n  dup2\n    /* \"#utility.yul\":3095:3118   */\n  swap1\n  pop\n    /* \"#utility.yul\":3071:3120   */\ntag_106:\n    /* \"#utility.yul\":3133:3213   */\n  tag_107\n    /* \"#utility.yul\":3189:3211   */\n  tag_108\n    /* \"#utility.yul\":3207:3210   */\n  dup6\n    /* \"#utility.yul\":3189:3211   */\n  tag_35\n  jump\t// in\ntag_108:\n    /* \"#utility.yul\":3179:3187   */\n  dup4\n    /* \"#utility.yul\":3175:3212   */\n  add\n    /* \"#utility.yul\":3162:3173   */\n  dup3\n    /* \"#utility.yul\":3133:3213   */\n  tag_45\n  jump\t// in\ntag_107:\n    /* \"#utility.yul\":2792:3223   */\n  pop\n  pop\n    /* \"#utility.yul\":2777:3223   */\ntag_103:\n    /* \"#utility.yul\":2687:3230   */\n  pop\n  pop\n  pop\n  jump\t// out\n    /* \"#utility.yul\":3236:3353   */\ntag_47:\n    /* \"#utility.yul\":3290:3298   */\n  0x00\n    /* \"#utility.yul\":3340:3345   */\n  dup3\n    /* \"#utility.yul\":3334:3338   */\n  dup3\n    /* \"#utility.yul\":3330:3346   */\n  shr\n    /* \"#utility.yul\":3309:3346   */\n  swap1\n  pop\n    /* \"#utility.yul\":3236:3353   */\n  swap3\n  swap2\n  pop\n  pop\n  jump\t// out\n    /* \"#utility.yul\":3359:3528   */\ntag_48:\n    /* \"#utility.yul\":3403:3409   */\n  0x00\n    /* \"#utility.yul\":3436:3487   */\n  tag_111\n    /* \"#utility.yul\":3484:3485   */\n  0x00\n    /* \"#utility.yul\":3480:3486   */\n  not\n    /* \"#utility.yul\":3472:3477   */\n  dup5\n    /* \"#utility.yul\":3469:3470   */\n  0x08\n    /* \"#utility.yul\":3465:3478   */\n  mul\n    /* \"#utility.yul\":3436:3487   */\n  tag_47\n  jump\t// in\ntag_111:\n    /* \"#utility.yul\":3432:3488   */\n  not\n    /* \"#utility.yul\":3517:3521   */\n  dup1\n    /* \"#utility.yul\":3511:3515   */\n  dup4\n    /* \"#utility.yul\":3507:3522   */\n  and\n    /* \"#utility.yul\":3497:3522   */\n  swap2\n  pop\n    /* \"#utility.yul\":3410:3528   */\n  pop\n    /* \"#utility.yul\":3359:3528   */\n  swap3\n  swap2\n  pop\n  pop\n  jump\t// out\n    /* \"#utility.yul\":3533:3828   */\ntag_49:\n    /* \"#utility.yul\":3609:3613   */\n  0x00\n    /* \"#utility.yul\":3755:3784   */\n  tag_113\n    /* \"#utility.yul\":3780:3783   */\n  dup4\n    /* \"#utility.yul\":3774:3778   */\n  dup4\n    /* \"#utility.yul\":3755:3784   */\n  tag_48\n  jump\t// in\ntag_113:\n    /* \"#utility.yul\":3747:3784   */\n  swap2\n  pop\n    /* \"#utility.yul\":3817:3820   */\n  dup3\n    /* \"#utility.yul\":3814:3815   */\n  0x02\n    /* \"#utility.yul\":3810:3821   */\n  mul\n    /* \"#utility.yul\":3804:3808   */\n  dup3\n    /* \"#utility.yul\":3801:3822   */\n  or\n    /* \"#utility.yul\":3793:3822   */\n  swap1\n  pop\n    /* \"#utility.yul\":3533:3828   */\n  swap3\n  swap2\n  pop\n  pop\n  jump\t// out\n    /* \"#utility.yul\":3833:5228   */\ntag_2:\n    /* \"#utility.yul\":3950:3987   */\n  tag_115\n    /* \"#utility.yul\":3983:3986   */\n  dup3\n    /* \"#utility.yul\":3950:3987   */\n  tag_30\n  jump\t// in\ntag_115:\n    /* \"#utility.yul\":4052:4070   */\n  0xffffffffffffffff\n    /* \"#utility.yul\":4044:4050   */\n  dup2\n    /* \"#utility.yul\":4041:4071   */\n  gt\n    /* \"#utility.yul\":4038:4094   */\n  iszero\n  tag_116\n  jumpi\n    /* \"#utility.yul\":4074:4092   */\n  tag_117\n  tag_31\n  jump\t// in\ntag_117:\n    /* \"#utility.yul\":4038:4094   */\ntag_116:\n    /* \"#utility.yul\":4118:4156   */\n  tag_118\n    /* \"#utility.yul\":4150:4154   */\n  dup3\n    /* \"#utility.yul\":4144:4155   */\n  sload\n    /* \"#utility.yul\":4118:4156   */\n  tag_33\n  jump\t// in\ntag_118:\n    /* \"#utility.yul\":4203:4270   */\n  tag_119\n    /* \"#utility.yul\":4263:4269   */\n  dup3\n    /* \"#utility.yul\":4255:4261   */\n  dup3\n    /* \"#utility.yul\":4249:4253   */\n  dup6\n    /* \"#utility.yul\":4203:4270   */\n  tag_46\n  jump\t// in\ntag_119:\n    /* \"#utility.yul\":4297:4298   */\n  0x00\n    /* \"#utility.yul\":4321:4325   */\n  0x20\n    /* \"#utility.yul\":4308:4325   */\n  swap1\n  pop\n    /* \"#utility.yul\":4353:4355   */\n  0x1f\n    /* \"#utility.yul\":4345:4351   */\n  dup4\n    /* \"#utility.yul\":4342:4356   */\n  gt\n    /* \"#utility.yul\":4370:4371   */\n  0x01\n    /* \"#utility.yul\":4365:4983   */\n  dup2\n  eq\n  tag_121\n  jumpi\n    /* \"#utility.yul\":5027:5028   */\n  0x00\n    /* \"#utility.yul\":5044:5050   */\n  dup5\n    /* \"#utility.yul\":5041:5118   */\n  iszero\n  tag_122\n  jumpi\n    /* \"#utility.yul\":5093:5102   */\n  dup3\n    /* \"#utility.yul\":5088:5091   */\n  dup8\n    /* \"#utility.yul\":5084:5103   */\n  add\n    /* \"#utility.yul\":5078:5104   */\n  mload\n    /* \"#utility.yul\":5069:5104   */\n  swap1\n  pop\n    /* \"#utility.yul\":5041:5118   */\ntag_122:\n    /* \"#utility.yul\":5144:5211   */\n  tag_123\n    /* \"#utility.yul\":5204:5210   */\n  dup6\n    /* \"#utility.yul\":5197:5202   */\n  dup3\n    /* \"#utility.yul\":5144:5211   */\n  tag_49\n  jump\t// in\ntag_123:\n    /* \"#utility.yul\":5138:5142   */\n  dup7\n    /* \"#utility.yul\":5131:5212   */\n  sstore\n    /* \"#utility.yul\":5000:5222   */\n  pop\n    /* \"#utility.yul\":4335:5222   */\n  jump(tag_120)\n    /* \"#utility.yul\":4365:4983   */\ntag_121:\n    /* \"#utility.yul\":4417:4421   */\n  0x1f\n    /* \"#utility.yul\":4413:4422   */\n  not\n    /* \"#utility.yul\":4405:4411   */\n  dup5\n    /* \"#utility.yul\":4401:4423   */\n  and\n    /* \"#utility.yul\":4451:4488   */\n  tag_124\n    /* \"#utility.yul\":4483:4487   */\n  dup7\n    /* \"#utility.yul\":4451:4488   */\n  tag_34\n  jump\t// in\ntag_124:\n    /* \"#utility.yul\":4510:4511   */\n  0x00\n    /* \"#utility.yul\":4524:4732   */\ntag_125:\n    /* \"#utility.yul\":4538:4545   */\n  dup3\n    /* \"#utility.yul\":4535:4536   */\n  dup2\n    /* \"#utility.yul\":4532:4546   */\n  lt\n    /* \"#utility.yul\":4524:4732   */\n  iszero\n  tag_127\n  jumpi\n    /* \"#utility.yul\":4617:4626   */\n  dup5\n    /* \"#utility.yul\":4612:4615   */\n  dup10\n    /* \"#utility.yul\":4608:4627   */\n  add\n    /* \"#utility.yul\":4602:4628   */\n  mload\n    /* \"#utility.yul\":4594:4600   */\n  dup3\n    /* \"#utility.yul\":4587:4629   */\n  sstore\n    /* \"#utility.yul\":4668:4669   */\n  0x01\n    /* \"#utility.yul\":4660:4666   */\n  dup3\n    /* \"#utility.yul\":4656:4670   */\n  add\n    /* \"#utility.yul\":4646:4670   */\n  swap2\n  pop\n    /* \"#utility.yul\":4715:4717   */\n  0x20\n    /* \"#utility.yul\":4704:4713   */\n  dup6\n    /* \"#utility.yul\":4700:4718   */\n  add\n    /* \"#utility.yul\":4687:4718   */\n  swap5\n  pop\n    /* \"#utility.yul\":4561:4565   */\n  0x20\n    /* \"#utility.yul\":4558:4559   */\n  dup2\n    /* \"#utility.yul\":4554:4566   */\n  add\n    /* \"#utility.yul\":4549:4566   */\n  swap1\n  pop\n    /* \"#utility.yul\":4524:4732   */\n  jump(tag_125)\ntag_127:\n    /* \"#utility.yul\":4760:4766   */\n  dup7\n    /* \"#utility.yul\":4751:4758   */\n  dup4\n    /* \"#utility.yul\":4748:4767   */\n  lt\n    /* \"#utility.yul\":4745:4924   */\n  iszero\n  tag_128\n  jumpi\n    /* \"#utility.yul\":4818:4827   */\n  dup5\n    /* \"#utility.yul\":4813:4816   */\n  dup10\n    /* \"#utility.yul\":4809:4828   */\n  add\n    /* \"#utility.yul\":4803:4829   */\n  mload\n    /* \"#utility.yul\":4861:4909   */\n  tag_129\n    /* \"#utility.yul\":4903:4907   */\n  0x1f\n    /* \"#utility.yul\":4895:4901   */\n  dup10\n    /* \"#utility.yul\":4891:4908   */\n  and\n    /* \"#utility.yul\":4880:4889   */\n  dup3\n    /* \"#utility.yul\":4861:4909   */\n  tag_48\n  jump\t// in\ntag_129:\n    /* \"#utility.yul\":4853:4859   */\n  dup4\n    /* \"#utility.yul\":4846:4910   */\n  sstore\n    /* \"#utility.yul\":4768:4924   */\n  pop\n    /* \"#utility.yul\":4745:4924   */\ntag_128:\n    /* \"#utility.yul\":4970:4971   */\n  0x01\n    /* \"#utility.yul\":4966:4967   */\n  0x02\n    /* \"#utility.yul\":4958:4964   */\n  dup9\n    /* \"#utility.yul\":4954:4968   */\n  mul\n    /* \"#utility.yul\":4950:4972   */\n  add\n    /* \"#utility.yul\":4944:4948   */\n  dup9\n    /* \"#utility.yul\":4937:4973   */\n  sstore\n    /* \"#utility.yul\":4372:4983   */\n  pop\n  pop\n  pop\n    /* \"#utility.yul\":4335:5222   */\ntag_120:\n  pop\n    /* \"#utility.yul\":3925:5228   */\n  pop\n  pop\n  pop\n    /* \"#utility.yul\":3833:5228   */\n  pop\n  pop\n  jump\t// out\n    /* \"#utility.yul\":5315:5432   */\ntag_51:\n    /* \"#utility.yul\":5424:5425   */\n  0x00\n    /* \"#utility.yul\":5421:5422   */\n  0x00\n    /* \"#utility.yul\":5414:5426   */\n  revert\n    /* \"#utility.yul\":5561:5683   */\ntag_53:\n    /* \"#utility.yul\":5634:5658   */\n  tag_134\n    /* \"#utility.yul\":5652:5657   */\n  dup2\n    /* \"#utility.yul\":5634:5658   */\n  tag_38\n  jump\t// in\ntag_134:\n    /* \"#utility.yul\":5627:5632   */\n  dup2\n    /* \"#utility.yul\":5624:5659   */\n  eq\n    /* \"#utility.yul\":5614:5677   */\n  tag_135\n  jumpi\n    /* \"#utility.yul\":5673:5674   */\n  0x00\n    /* \"#utility.yul\":5670:5671   */\n  0x00\n    /* \"#utility.yul\":5663:5675   */\n  revert\n    /* \"#utility.yul\":5614:5677   */\ntag_135:\n    /* \"#utility.yul\":5561:5683   */\n  pop\n  jump\t// out\n    /* \"#utility.yul\":5689:5832   */\ntag_54:\n    /* \"#utility.yul\":5746:5751   */\n  0x00\n    /* \"#utility.yul\":5777:5783   */\n  dup2\n    /* \"#utility.yul\":5771:5784   */\n  mload\n    /* \"#utility.yul\":5762:5784   */\n  swap1\n  pop\n    /* \"#utility.yul\":5793:5826   */\n  tag_137\n    /* \"#utility.yul\":5820:5825   */\n  dup2\n    /* \"#utility.yul\":5793:5826   */\n  tag_53\n  jump\t// in\ntag_137:\n    /* \"#utility.yul\":5689:5832   */\n  swap3\n  swap2\n  pop\n  pop\n  jump\t// out\n    /* \"#utility.yul\":5838:5964   */\ntag_55:\n    /* \"#utility.yul\":5875:5882   */\n  0x00\n    /* \"#utility.yul\":5915:5957   */\n  0xffffffffffffffffffffffffffffffffffffffff\n    /* \"#utility.yul\":5908:5913   */\n  dup3\n    /* \"#utility.yul\":5904:5958   */\n  and\n    /* \"#utility.yul\":5893:5958   */\n  swap1\n  pop\n    /* \"#utility.yul\":5838:5964   */\n  swap2\n  swap1\n  pop\n  jump\t// out\n    /* \"#utility.yul\":5970:6066   */\ntag_56:\n    /* \"#utility.yul\":6007:6014   */\n  0x00\n    /* \"#utility.yul\":6036:6060   */\n  tag_140\n    /* \"#utility.yul\":6054:6059   */\n  dup3\n    /* \"#utility.yul\":6036:6060   */\n  tag_55\n  jump\t// in\ntag_140:\n    /* \"#utility.yul\":6025:6060   */\n  swap1\n  pop\n    /* \"#utility.yul\":5970:6066   */\n  swap2\n  swap1\n  pop\n  jump\t// out\n    /* \"#utility.yul\":6072:6194   */\ntag_57:\n    /* \"#utility.yul\":6145:6169   */\n  tag_142\n    /* \"#utility.yul\":6163:6168   */\n  dup2\n    /* \"#utility.yul\":6145:6169   */\n  tag_56\n  jump\t// in\ntag_142:\n    /* \"#utility.yul\":6138:6143   */\n  dup2\n    /* \"#utility.yul\":6135:6170   */\n  eq\n    /* \"#utility.yul\":6125:6188   */\n  tag_143\n  jumpi\n    /* \"#utility.yul\":6184:6185   */\n  0x00\n    /* \"#utility.yul\":6181:6182   */\n  0x00\n    /* \"#utility.yul\":6174:6186   */\n  revert\n    /* \"#utility.yul\":6125:6188   */\ntag_143:\n    /* \"#utility.yul\":6072:6194   */\n  pop\n  jump\t// out\n    /* \"#utility.yul\":6200:6343   */\ntag_58:\n    /* \"#utility.yul\":6257:6262   */\n  0x00\n    /* \"#utility.yul\":6288:6294   */\n  dup2\n    /* \"#utility.yul\":6282:6295   */\n  mload\n    /* \"#utility.yul\":6273:6295   */\n  swap1\n  pop\n    /* \"#utility.yul\":6304:6337   */\n  tag_145\n    /* \"#utility.yul\":6331:6336   */\n  dup2\n    /* \"#utility.yul\":6304:6337   */\n  tag_57\n  jump\t// in\ntag_145:\n    /* \"#utility.yul\":6200:6343   */\n  swap3\n  swap2\n  pop\n  pop\n  jump\t// out\n    /* \"#utility.yul\":6349:7483   */\ntag_6:\n    /* \"#utility.yul\":6464:6470   */\n  0x00\n    /* \"#utility.yul\":6472:6478   */\n  0x00\n    /* \"#utility.yul\":6480:6486   */\n  0x00\n    /* \"#utility.yul\":6488:6494   */\n  0x00\n    /* \"#utility.yul\":6496:6502   */\n  0x00\n    /* \"#utility.yul\":6504:6510   */\n  0x00\n    /* \"#utility.yul\":6553:6556   */\n  0xc0\n    /* \"#utility.yul\":6541:6550   */\n  dup8\n    /* \"#utility.yul\":6532:6539   */\n  dup10\n    /* \"#utility.yul\":6528:6551   */\n  sub\n    /* \"#utility.yul\":6524:6557   */\n  slt\n    /* \"#utility.yul\":6521:6641   */\n  iszero\n  tag_147\n  jumpi\n    /* \"#utility.yul\":6560:6639   */\n  tag_148\n  tag_51\n  jump\t// in\ntag_148:\n    /* \"#utility.yul\":6521:6641   */\ntag_147:\n    /* \"#utility.yul\":6680:6681   */\n  0x00\n    /* \"#utility.yul\":6705:6769   */\n  tag_149\n    /* \"#utility.yul\":6761:6768   */\n  dup10\n    /* \"#utility.yul\":6752:6758   */\n  dup3\n    /* \"#utility.yul\":6741:6750   */\n  dup11\n    /* \"#utility.yul\":6737:6759   */\n  add\n    /* \"#utility.yul\":6705:6769   */\n  tag_54\n  jump\t// in\ntag_149:\n    /* \"#utility.yul\":6695:6769   */\n  swap7\n  pop\n    /* \"#utility.yul\":6651:6779   */\n  pop\n    /* \"#utility.yul\":6818:6820   */\n  0x20\n    /* \"#utility.yul\":6844:6908   */\n  tag_150\n    /* \"#utility.yul\":6900:6907   */\n  dup10\n    /* \"#utility.yul\":6891:6897   */\n  dup3\n    /* \"#utility.yul\":6880:6889   */\n  dup11\n    /* \"#utility.yul\":6876:6898   */\n  add\n    /* \"#utility.yul\":6844:6908   */\n  tag_54\n  jump\t// in\ntag_150:\n    /* \"#utility.yul\":6834:6908   */\n  swap6\n  pop\n    /* \"#utility.yul\":6789:6918   */\n  pop\n    /* \"#utility.yul\":6957:6959   */\n  0x40\n    /* \"#utility.yul\":6983:7047   */\n  tag_151\n    /* \"#utility.yul\":7039:7046   */\n  dup10\n    /* \"#utility.yul\":7030:7036   */\n  dup3\n    /* \"#utility.yul\":7019:7028   */\n  dup11\n    /* \"#utility.yul\":7015:7037   */\n  add\n    /* \"#utility.yul\":6983:7047   */\n  tag_54\n  jump\t// in\ntag_151:\n    /* \"#utility.yul\":6973:7047   */\n  swap5\n  pop\n    /* \"#utility.yul\":6928:7057   */\n  pop\n    /* \"#utility.yul\":7096:7098   */\n  0x60\n    /* \"#utility.yul\":7122:7186   */\n  tag_152\n    /* \"#utility.yul\":7178:7185   */\n  dup10\n    /* \"#utility.yul\":7169:7175   */\n  dup3\n    /* \"#utility.yul\":7158:7167   */\n  dup11\n    /* \"#utility.yul\":7154:7176   */\n  add\n    /* \"#utility.yul\":7122:7186   */\n  tag_54\n  jump\t// in\ntag_152:\n    /* \"#utility.yul\":7112:7186   */\n  swap4\n  pop\n    /* \"#utility.yul\":7067:7196   */\n  pop\n    /* \"#utility.yul\":7235:7238   */\n  0x80\n    /* \"#utility.yul\":7262:7326   */\n  tag_153\n    /* \"#utility.yul\":7318:7325   */\n  dup10\n    /* \"#utility.yul\":7309:7315   */\n  dup3\n    /* \"#utility.yul\":7298:7307   */\n  dup11\n    /* \"#utility.yul\":7294:7316   */\n  add\n    /* \"#utility.yul\":7262:7326   */\n  tag_54\n  jump\t// in\ntag_153:\n    /* \"#utility.yul\":7252:7326   */\n  swap3\n  pop\n    /* \"#utility.yul\":7206:7336   */\n  pop\n    /* \"#utility.yul\":7375:7378   */\n  0xa0\n    /* \"#utility.yul\":7402:7466   */\n  tag_154\n    /* \"#utility.yul\":7458:7465   */\n  dup10\n    /* \"#utility.yul\":7449:7455   */\n  dup3\n    /* \"#utility.yul\":7438:7447   */\n  dup11\n    /* \"#utility.yul\":7434:7456   */\n  add\n    /* \"#utility.yul\":7402:7466   */\n  tag_58\n  jump\t// in\ntag_154:\n    /* \"#utility.yul\":7392:7466   */\n  swap2\n  pop\n    /* \"#utility.yul\":7346:7476   */\n  pop\n    /* \"#utility.yul\":6349:7483   */\n  swap3\n  swap6\n  pop\n  swap3\n  swap6\n  pop\n  swap3\n  swap6\n  jump\t// out\n    /* \"#utility.yul\":7489:7669   */\ntag_59:\n    /* \"#utility.yul\":7537:7614   */\n  0x4e487b7100000000000000000000000000000000000000000000000000000000\n    /* \"#utility.yul\":7534:7535   */\n  0x00\n    /* \"#utility.yul\":7527:7615   */\n  mstore\n    /* \"#utility.yul\":7634:7638   */\n  0x11\n    /* \"#utility.yul\":7631:7632   */\n  0x04\n    /* \"#utility.yul\":7624:7639   */\n  mstore\n    /* \"#utility.yul\":7658:7662   */\n  0x24\n    /* \"#utility.yul\":7655:7656   */\n  0x00\n    /* \"#utility.yul\":7648:7663   */\n  revert\n    /* \"#utility.yul\":7675:7777   */\ntag_60:\n    /* \"#utility.yul\":7717:7725   */\n  0x00\n    /* \"#utility.yul\":7764:7769   */\n  dup2\n    /* \"#utility.yul\":7761:7762   */\n  0x01\n    /* \"#utility.yul\":7757:7770   */\n  shr\n    /* \"#utility.yul\":7736:7770   */\n  swap1\n  pop\n    /* \"#utility.yul\":7675:7777   */\n  swap2\n  swap1\n  pop\n  jump\t// out\n    /* \"#utility.yul\":7783:8631   */\ntag_61:\n    /* \"#utility.yul\":7844:7849   */\n  0x00\n    /* \"#utility.yul\":7851:7855   */\n  0x00\n    /* \"#utility.yul\":7875:7881   */\n  dup3\n    /* \"#utility.yul\":7866:7881   */\n  swap2\n  pop\n    /* \"#utility.yul\":7899:7904   */\n  dup4\n    /* \"#utility.yul\":7890:7904   */\n  swap1\n  pop\n    /* \"#utility.yul\":7913:8625   */\ntag_158:\n    /* \"#utility.yul\":7934:7935   */\n  0x01\n    /* \"#utility.yul\":7924:7932   */\n  dup6\n    /* \"#utility.yul\":7921:7936   */\n  gt\n    /* \"#utility.yul\":7913:8625   */\n  iszero\n  tag_160\n  jumpi\n    /* \"#utility.yul\":8029:8033   */\n  dup1\n    /* \"#utility.yul\":8024:8027   */\n  dup7\n    /* \"#utility.yul\":8020:8034   */\n  div\n    /* \"#utility.yul\":8014:8018   */\n  dup2\n    /* \"#utility.yul\":8011:8035   */\n  gt\n    /* \"#utility.yul\":8008:8058   */\n  iszero\n  tag_161\n  jumpi\n    /* \"#utility.yul\":8038:8056   */\n  tag_162\n  tag_59\n  jump\t// in\ntag_162:\n    /* \"#utility.yul\":8008:8058   */\ntag_161:\n    /* \"#utility.yul\":8088:8089   */\n  0x01\n    /* \"#utility.yul\":8078:8086   */\n  dup6\n    /* \"#utility.yul\":8074:8090   */\n  and\n    /* \"#utility.yul\":8071:8522   */\n  iszero\n  tag_163\n  jumpi\n    /* \"#utility.yul\":8503:8507   */\n  dup1\n    /* \"#utility.yul\":8496:8501   */\n  dup3\n    /* \"#utility.yul\":8492:8508   */\n  mul\n    /* \"#utility.yul\":8483:8508   */\n  swap2\n  pop\n    /* \"#utility.yul\":8071:8522   */\ntag_163:\n    /* \"#utility.yul\":8553:8557   */\n  dup1\n    /* \"#utility.yul\":8547:8551   */\n  dup2\n    /* \"#utility.yul\":8543:8558   */\n  mul\n    /* \"#utility.yul\":8535:8558   */\n  swap1\n  pop\n    /* \"#utility.yul\":8583:8615   */\n  tag_164\n    /* \"#utility.yul\":8606:8614   */\n  dup6\n    /* \"#utility.yul\":8583:8615   */\n  tag_60\n  jump\t// in\ntag_164:\n    /* \"#utility.yul\":8571:8615   */\n  swap5\n  pop\n    /* \"#utility.yul\":7913:8625   */\n  jump(tag_158)\ntag_160:\n    /* \"#utility.yul\":7783:8631   */\n  swap5\n  pop\n  swap5\n  swap3\n  pop\n  pop\n  pop\n  jump\t// out\n    /* \"#utility.yul\":8637:9710   */\ntag_62:\n    /* \"#utility.yul\":8691:8696   */\n  0x00\n    /* \"#utility.yul\":8882:8890   */\n  dup3\n    /* \"#utility.yul\":8872:8912   */\n  tag_166\n  jumpi\n    /* \"#utility.yul\":8903:8904   */\n  0x01\n    /* \"#utility.yul\":8894:8904   */\n  swap1\n  pop\n    /* \"#utility.yul\":8905:8910   */\n  jump(tag_165)\n    /* \"#utility.yul\":8872:8912   */\ntag_166:\n    /* \"#utility.yul\":8931:8935   */\n  dup2\n    /* \"#utility.yul\":8921:8957   */\n  tag_167\n  jumpi\n    /* \"#utility.yul\":8948:8949   */\n  0x00\n    /* \"#utility.yul\":8939:8949   */\n  swap1\n  pop\n    /* \"#utility.yul\":8950:8955   */\n  jump(tag_165)\n    /* \"#utility.yul\":8921:8957   */\ntag_167:\n    /* \"#utility.yul\":9017:9021   */\n  dup2\n    /* \"#utility.yul\":9065:9066   */\n  0x01\n    /* \"#utility.yul\":9060:9087   */\n  dup2\n  eq\n  tag_169\n  jumpi\n    /* \"#utility.yul\":9101:9102   */\n  0x02\n    /* \"#utility.yul\":9096:9287   */\n  dup2\n  eq\n  tag_170\n  jumpi\n    /* \"#utility.yul\":9010:9287   */\n  jump(tag_168)\n    /* \"#utility.yul\":9060:9087   */\ntag_169:\n    /* \"#utility.yul\":9078:9079   */\n  0x01\n    /* \"#utility.yul\":9069:9079   */\n  swap2\n  pop\n    /* \"#utility.yul\":9080:9085   */\n  pop\n  jump(tag_165)\n    /* \"#utility.yul\":9096:9287   */\ntag_170:\n    /* \"#utility.yul\":9141:9144   */\n  0xff\n    /* \"#utility.yul\":9131:9139   */\n  dup5\n    /* \"#utility.yul\":9128:9145   */\n  gt\n    /* \"#utility.yul\":9125:9168   */\n  iszero\n  tag_171\n  jumpi\n    /* \"#utility.yul\":9148:9166   */\n  tag_172\n  tag_59\n  jump\t// in\ntag_172:\n    /* \"#utility.yul\":9125:9168   */\ntag_171:\n    /* \"#utility.yul\":9197:9205   */\n  dup4\n    /* \"#utility.yul\":9194:9195   */\n  0x02\n    /* \"#utility.yul\":9190:9206   */\n  exp\n    /* \"#utility.yul\":9181:9206   */\n  swap2\n  pop\n    /* \"#utility.yul\":9232:9235   */\n  dup5\n    /* \"#utility.yul\":9225:9230   */\n  dup3\n    /* \"#utility.yul\":9222:9236   */\n  gt\n    /* \"#utility.yul\":9219:9259   */\n  iszero\n  tag_173\n  jumpi\n    /* \"#utility.yul\":9239:9257   */\n  tag_174\n  tag_59\n  jump\t// in\ntag_174:\n    /* \"#utility.yul\":9219:9259   */\ntag_173:\n    /* \"#utility.yul\":9272:9277   */\n  pop\n  jump(tag_165)\n    /* \"#utility.yul\":9010:9287   */\ntag_168:\n  pop\n    /* \"#utility.yul\":9396:9398   */\n  0x20\n    /* \"#utility.yul\":9386:9394   */\n  dup4\n    /* \"#utility.yul\":9383:9399   */\n  lt\n    /* \"#utility.yul\":9377:9380   */\n  0x0133\n    /* \"#utility.yul\":9371:9375   */\n  dup4\n    /* \"#utility.yul\":9368:9381   */\n  lt\n    /* \"#utility.yul\":9364:9400   */\n  and\n    /* \"#utility.yul\":9346:9348   */\n  0x4e\n    /* \"#utility.yul\":9336:9344   */\n  dup5\n    /* \"#utility.yul\":9333:9349   */\n  lt\n    /* \"#utility.yul\":9328:9330   */\n  0x0b\n    /* \"#utility.yul\":9322:9326   */\n  dup5\n    /* \"#utility.yul\":9319:9331   */\n  lt\n    /* \"#utility.yul\":9315:9350   */\n  and\n    /* \"#utility.yul\":9299:9410   */\n  or\n    /* \"#utility.yul\":9296:9542   */\n  iszero\n  tag_175\n  jumpi\n    /* \"#utility.yul\":9452:9460   */\n  dup3\n    /* \"#utility.yul\":9446:9450   */\n  dup3\n    /* \"#utility.yul\":9442:9461   */\n  exp\n    /* \"#utility.yul\":9433:9461   */\n  swap1\n  pop\n    /* \"#utility.yul\":9487:9490   */\n  dup4\n    /* \"#utility.yul\":9480:9485   */\n  dup2\n    /* \"#utility.yul\":9477:9491   */\n  gt\n    /* \"#utility.yul\":9474:9514   */\n  iszero\n  tag_176\n  jumpi\n    /* \"#utility.yul\":9494:9512   */\n  tag_177\n  tag_59\n  jump\t// in\ntag_177:\n    /* \"#utility.yul\":9474:9514   */\ntag_176:\n    /* \"#utility.yul\":9527:9532   */\n  jump(tag_165)\n    /* \"#utility.yul\":9296:9542   */\ntag_175:\n    /* \"#utility.yul\":9567:9609   */\n  tag_178\n    /* \"#utility.yul\":9605:9608   */\n  dup5\n    /* \"#utility.yul\":9595:9603   */\n  dup5\n    /* \"#utility.yul\":9589:9593   */\n  dup5\n    /* \"#utility.yul\":9586:9587   */\n  0x01\n    /* \"#utility.yul\":9567:9609   */\n  tag_61\n  jump\t// in\ntag_178:\n    /* \"#utility.yul\":9552:9609   */\n  swap3\n  pop\n  swap1\n  pop\n    /* \"#utility.yul\":9641:9645   */\n  dup2\n    /* \"#utility.yul\":9636:9639   */\n  dup5\n    /* \"#utility.yul\":9632:9646   */\n  div\n    /* \"#utility.yul\":9625:9630   */\n  dup2\n    /* \"#utility.yul\":9622:9647   */\n  gt\n    /* \"#utility.yul\":9619:9670   */\n  iszero\n  tag_179\n  jumpi\n    /* \"#utility.yul\":9650:9668   */\n  tag_180\n  tag_59\n  jump\t// in\ntag_180:\n    /* \"#utility.yul\":9619:9670   */\ntag_179:\n    /* \"#utility.yul\":9699:9703   */\n  dup2\n    /* \"#utility.yul\":9692:9697   */\n  dup2\n    /* \"#utility.yul\":9688:9704   */\n  mul\n    /* \"#utility.yul\":9679:9704   */\n  swap1\n  pop\n    /* \"#utility.yul\":8637:9710   */\ntag_165:\n  swap4\n  swap3\n  pop\n  pop\n  pop\n  jump\t// out\n    /* \"#utility.yul\":9716:9802   */\ntag_63:\n    /* \"#utility.yul\":9751:9758   */\n  0x00\n    /* \"#utility.yul\":9791:9795   */\n  0xff\n    /* \"#utility.yul\":9784:9789   */\n  dup3\n    /* \"#utility.yul\":9780:9796   */\n  and\n    /* \"#utility.yul\":9769:9796   */\n  swap1\n  pop\n    /* \"#utility.yul\":9716:9802   */\n  swap2\n  swap1\n  pop\n  jump\t// out\n    /* \"#utility.yul\":9808:10089   */\ntag_11:\n    /* \"#utility.yul\":9866:9871   */\n  0x00\n    /* \"#utility.yul\":9890:9913   */\n  tag_183\n    /* \"#utility.yul\":9908:9912   */\n  dup3\n    /* \"#utility.yul\":9890:9913   */\n  tag_38\n  jump\t// in\ntag_183:\n    /* \"#utility.yul\":9882:9913   */\n  swap2\n  pop\n    /* \"#utility.yul\":9934:9959   */\n  tag_184\n    /* \"#utility.yul\":9950:9958   */\n  dup4\n    /* \"#utility.yul\":9934:9959   */\n  tag_63\n  jump\t// in\ntag_184:\n    /* \"#utility.yul\":9922:9959   */\n  swap3\n  pop\n    /* \"#utility.yul\":9978:10082   */\n  tag_185\n    /* \"#utility.yul\":10015:10081   */\n  0xffffffffffffffffffffffffffffffffffffffffffffffffffffffffffffffff\n    /* \"#utility.yul\":10005:10013   */\n  dup5\n    /* \"#utility.yul\":9999:10003   */\n  dup5\n    /* \"#utility.yul\":9978:10082   */\n  tag_62\n  jump\t// in\ntag_185:\n    /* \"#utility.yul\":9969:10082   */\n  swap1\n  pop\n    /* \"#utility.yul\":9808:10089   */\n  swap3\n  swap2\n  pop\n  pop\n  jump\t// out\n    /* \"#utility.yul\":10095:10505   */\ntag_13:\n    /* \"#utility.yul\":10135:10142   */\n  0x00\n    /* \"#utility.yul\":10158:10178   */\n  tag_187\n    /* \"#utility.yul\":10176:10177   */\n  dup3\n    /* \"#utility.yul\":10158:10178   */\n  tag_38\n  jump\t// in\ntag_187:\n    /* \"#utility.yul\":10153:10178   */\n  swap2\n  pop\n    /* \"#utility.yul\":10192:10212   */\n  tag_188\n    /* \"#utility.yul\":10210:10211   */\n  dup4\n    /* \"#utility.yul\":10192:10212   */\n  tag_38\n  jump\t// in\ntag_188:\n    /* \"#utility.yul\":10187:10212   */\n  swap3\n  pop\n    /* \"#utility.yul\":10247:10248   */\n  dup3\n    /* \"#utility.yul\":10244:10245   */\n  dup3\n    /* \"#utility.yul\":10240:10249   */\n  mul\n    /* \"#utility.yul\":10269:10299   */\n  tag_189\n    /* \"#utility.yul\":10287:10298   */\n  dup2\n    /* \"#utility.yul\":10269:10299   */\n  tag_38\n  jump\t// in\ntag_189:\n    /* \"#utility.yul\":10258:10299   */\n  swap2\n  pop\n    /* \"#utility.yul\":10448:10449   */\n  dup3\n    /* \"#utility.yul\":10439:10446   */\n  dup3\n    /* \"#utility.yul\":10435:10450   */\n  div\n    /* \"#utility.yul\":10432:10433   */\n  dup5\n    /* \"#utility.yul\":10429:10451   */\n  eq\n    /* \"#utility.yul\":10409:10410   */\n  dup4\n    /* \"#utility.yul\":10402:10411   */\n  iszero\n    /* \"#utility.yul\":10382:10465   */\n  or\n    /* \"#utility.yul\":10359:10498   */\n  tag_190\n  jumpi\n    /* \"#utility.yul\":10478:10496   */\n  tag_191\n  tag_59\n  jump\t// in\ntag_191:\n    /* \"#utility.yul\":10359:10498   */\ntag_190:\n    /* \"#utility.yul\":10143:10505   */\n  pop\n    /* \"#utility.yul\":10095:10505   */\n  swap3\n  swap2\n  pop\n  pop\n  jump\t// out\n    /* \"#utility.yul\":10511:10629   */\ntag_64:\n    /* \"#utility.yul\":10598:10622   */\n  tag_193\n    /* \"#utility.yul\":10616:10621   */\n  dup2\n    /* \"#utility.yul\":10598:10622   */\n  tag_38\n  jump\t// in\ntag_193:\n    /* \"#utility.yul\":10593:10596   */\n  dup3\n    /* \"#utility.yul\":10586:10623   */\n  mstore\n    /* \"#utility.yul\":10511:10629   */\n  pop\n  pop\n  jump\t// out\n    /* \"#utility.yul\":10635:10857   */\ntag_15:\n    /* \"#utility.yul\":10728:10732   */\n  0x00\n    /* \"#utility.yul\":10766:10768   */\n  0x20\n    /* \"#utility.yul\":10755:10764   */\n  dup3\n    /* \"#utility.yul\":10751:10769   */\n  add\n    /* \"#utility.yul\":10743:10769   */\n  swap1\n  pop\n    /* \"#utility.yul\":10779:10850   */\n  tag_195\n    /* \"#utility.yul\":10847:10848   */\n  0x00\n    /* \"#utility.yul\":10836:10845   */\n  dup4\n    /* \"#utility.yul\":10832:10849   */\n  add\n    /* \"#utility.yul\":10823:10829   */\n  dup5\n    /* \"#utility.yul\":10779:10850   */\n  tag_64\n  jump\t// in\ntag_195:\n    /* \"#utility.yul\":10635:10857   */\n  swap3\n  swap2\n  pop\n  pop\n  jump\t// out\n    /* \"#utility.yul\":10863:11054   */\ntag_18:\n    /* \"#utility.yul\":10903:10906   */\n  0x00\n    /* \"#utility.yul\":10922:10942   */\n  tag_197\n    /* \"#utility.yul\":10940:10941   */\n  dup3\n    /* \"#utility.yul\":10922:10942   */\n  tag_38\n  jump\t// in\ntag_197:\n    /* \"#utility.yul\":10917:10942   */\n  swap2\n  pop\n    /* \"#utility.yul\":10956:10976   */\n  tag_198\n    /* \"#utility.yul\":10974:10975   */\n  dup4\n    /* \"#utility.yul\":10956:10976   */\n  tag_38\n  jump\t// in\ntag_198:\n    /* \"#utility.yul\":10951:10976   */\n  swap3\n  pop\n    /* \"#utility.yul\":10999:11000   */\n  dup3\n    /* \"#utility.yul\":10996:10997   */\n  dup3\n    /* \"#utility.yul\":10992:11001   */\n  add\n    /* \"#utility.yul\":10985:11001   */\n  swap1\n  pop\n    /* \"#utility.yul\":11020:11023   */\n  dup1\n    /* \"#utility.yul\":11017:11018   */\n  dup3\n    /* \"#utility.yul\":11014:11024   */\n  gt\n    /* \"#utility.yul\":11011:11047   */\n  iszero\n  tag_199\n  jumpi\n    /* \"#utility.yul\":11027:11045   */\n  tag_200\n  tag_59\n  jump\t// in\ntag_200:\n    /* \"#utility.yul\":11011:11047   */\ntag_199:\n    /* \"#utility.yul\":10863:11054   */\n  swap3\n  swap2\n  pop\n  pop\n  jump\t// out\n    /* \"#utility.yul\":11060:11229   */\ntag_65:\n    /* \"#utility.yul\":11144:11155   */\n  0x00\n    /* \"#utility.yul\":11178:11184   */\n  dup3\n    /* \"#utility.yul\":11173:11176   */\n  dup3\n    /* \"#utility.yul\":11166:11185   */\n  mstore\n    /* \"#utility.yul\":11218:11222   */\n  0x20\n    /* \"#utility.yul\":11213:11216   */\n  dup3\n    /* \"#utility.yul\":11209:11223   */\n  add\n    /* \"#utility.yul\":11194:11223   */\n  swap1\n  pop\n    /* \"#utility.yul\":11060:11229   */\n  swap3\n  swap2\n  pop\n  pop\n  jump\t// out\n    /* \"#utility.yul\":11235:11457   */\ntag_66:\n    /* \"#utility.yul\":11375:11409   */\n  0x43616e6e6f74207472616e7366657220746f20746865207a65726f2061646472\n    /* \"#utility.yul\":11371:11372   */\n  0x00\n    /* \"#utility.yul\":11363:11369   */\n  dup3\n    /* \"#utility.yul\":11359:11373   */\n  add\n    /* \"#utility.yul\":11352:11410   */\n  mstore\n    /* \"#utility.yul\":11444:11449   */\n  0x6573730000000000000000000000000000000000000000000000000000000000\n    /* \"#utility.yul\":11439:11441   */\n  0x20\n    /* \"#utility.yul\":11431:11437   */\n  dup3\n    /* \"#utility.yul\":11427:11442   */\n  add\n    /* \"#utility.yul\":11420:11450   */\n  mstore\n    /* \"#utility.yul\":11235:11457   */\n  pop\n  jump\t// out\n    /* \"#utility.yul\":11463:11829   */\ntag_67:\n    /* \"#utility.yul\":11605:11608   */\n  0x00\n    /* \"#utility.yul\":11626:11693   */\n  tag_204\n    /* \"#utility.yul\":11690:11692   */\n  0x23\n    /* \"#utility.yul\":11685:11688   */\n  dup4\n    /* \"#utility.yul\":11626:11693   */\n  tag_65\n  jump\t// in\ntag_204:\n    /* \"#utility.yul\":11619:11693   */\n  swap2\n  pop\n    /* \"#utility.yul\":11702:11795   */\n  tag_205\n    /* \"#utility.yul\":11791:11794   */\n  dup3\n    /* \"#utility.yul\":11702:11795   */\n  tag_66\n  jump\t// in\ntag_205:\n    /* \"#utility.yul\":11820:11822   */\n  0x40\n    /* \"#utility.yul\":11815:11818   */\n  dup3\n    /* \"#utility.yul\":11811:11823   */\n  add\n    /* \"#utility.yul\":11804:11823   */\n  swap1\n  pop\n    /* \"#utility.yul\":11463:11829   */\n  swap2\n  swap1\n  pop\n  jump\t// out\n    /* \"#utility.yul\":11835:12254   */\ntag_25:\n    /* \"#utility.yul\":12001:12005   */\n  0x00\n    /* \"#utility.yul\":12039:12041   */\n  0x20\n    /* \"#utility.yul\":12028:12037   */\n  dup3\n    /* \"#utility.yul\":12024:12042   */\n  add\n    /* \"#utility.yul\":12016:12042   */\n  swap1\n  pop\n    /* \"#utility.yul\":12088:12097   */\n  dup2\n    /* \"#utility.yul\":12082:12086   */\n  dup2\n    /* \"#utility.yul\":12078:12098   */\n  sub\n    /* \"#utility.yul\":12074:12075   */\n  0x00\n    /* \"#utility.yul\":12063:12072   */\n  dup4\n    /* \"#utility.yul\":12059:12076   */\n  add\n    /* \"#utility.yul\":12052:12099   */\n  mstore\n    /* \"#utility.yul\":12116:12247   */\n  tag_207\n    /* \"#utility.yul\":12242:12246   */\n  dup2\n    /* \"#utility.yul\":12116:12247   */\n  tag_67\n  jump\t// in\ntag_207:\n    /* \"#utility.yul\":12108:12247   */\n  swap1\n  pop\n    /* \"#utility.yul\":11835:12254   */\n  swap2\n  swap1\n  pop\n  jump\t// out\n    /* \"#utility.yul\":12260:12454   */\ntag_27:\n    /* \"#utility.yul\":12300:12304   */\n  0x00\n    /* \"#utility.yul\":12320:12340   */\n  tag_209\n    /* \"#utility.yul\":12338:12339   */\n  dup3\n    /* \"#utility.yul\":12320:12340   */\n  tag_38\n  jump\t// in\ntag_209:\n    /* \"#utility.yul\":12315:12340   */\n  swap2\n  pop\n    /* \"#utility.yul\":12354:12374   */\n  tag_210\n    /* \"#utility.yul\":12372:12373   */\n  dup4\n    /* \"#utility.yul\":12354:12374   */\n  tag_38\n  jump\t// in\ntag_210:\n    /* \"#utility.yul\":12349:12374   */\n  swap3\n  pop\n    /* \"#utility.yul\":12398:12399   */\n  dup3\n    /* \"#utility.yul\":12395:12396   */\n  dup3\n    /* \"#utility.yul\":12391:12400   */\n  sub\n    /* \"#utility.yul\":12383:12400   */\n  swap1\n  pop\n    /* \"#utility.yul\":12422:12423   */\n  dup2\n    /* \"#utility.yul\":12416:12420   */\n  dup2\n    /* \"#utility.yul\":12413:12424   */\n  gt\n    /* \"#utility.yul\":12410:12447   */\n  iszero\n  tag_211\n  jumpi\n    /* \"#utility.yul\":12427:12445   */\n  tag_212\n  tag_59\n  jump\t// in\ntag_212:\n    /* \"#utility.yul\":12410:12447   */\ntag_211:\n    /* \"#utility.yul\":12260:12454   */\n  swap3\n  swap2\n  pop\n  pop\n  jump\t// out\n    /* \"submissions/iCat798/13-\\xe9\\xa2\\x84\\xe5\\x94\\xae\\xe5\\x8a\\x9f\\xe8\\x83\\xbd\\xe8\\xae\\xbe\\xe7\\xbd\\xae/Day13-PreOrderToken.sol\":86:3506  contract PreOrderToken is MyToken {... */\ntag_21:\n  dataSize(sub_0)\n  dup1\n  dataOffset(sub_0)\n  0x00\n  codecopy\n  0x00\n  return\nstop\n\nsub_0: assembly {\n        /* \"submissions/iCat798/13-\\xe9\\xa2\\x84\\xe5\\x94\\xae\\xe5\\x8a\\x9f\\xe8\\x83\\xbd\\xe8\\xae\\xbe\\xe7\\xbd\\xae/Day13-PreOrderToken.sol\":86:3506  contract PreOrderToken is MyToken {... */\n      mstore(0x40, 0x80)\n      jumpi(tag_1, lt(calldatasize, 0x04))\n      shr(0xe0, calldataload(0x00))\n      dup1\n      0x7ff9b596\n      gt\n      tag_25\n      jumpi\n      dup1\n      0xb3f05b97\n      gt\n      tag_26\n      jumpi\n      dup1\n      0xb3f05b97\n      eq\n      tag_19\n      jumpi\n      dup1\n      0xc5c4744c\n      eq\n      tag_20\n      jumpi\n      dup1\n      0xd0febe4c\n      eq\n      tag_21\n      jumpi\n      dup1\n      0xdd62ed3e\n      eq\n      tag_22\n      jumpi\n      dup1\n      0xe3cfef60\n      eq\n      tag_23\n      jumpi\n      dup1\n      0xed338ff1\n      eq\n      tag_24\n      jumpi\n      jump(tag_2)\n    tag_26:\n      dup1\n      0x7ff9b596\n      eq\n      tag_14\n      jumpi\n      dup1\n      0x95d89b41\n      eq\n      tag_15\n      jumpi\n      dup1\n      0x977b055b\n      eq\n      tag_16\n      jumpi\n      dup1\n      0xa4475ce4\n      eq\n      tag_17\n      jumpi\n      dup1\n      0xa9059cbb\n      eq\n      tag_18\n      jumpi\n      jump(tag_2)\n    tag_25:\n      dup1\n      0x313ce567\n      gt\n      tag_27\n      jumpi\n      dup1\n      0x313ce567\n      eq\n      tag_8\n      jumpi\n      dup1\n      0x33b5b62e\n      eq\n      tag_9\n      jumpi\n      dup1\n      0x564566a8\n      eq\n      tag_10\n      jumpi\n      dup1\n      0x58a687ec\n      eq\n      tag_11\n      jumpi\n      dup1\n      0x60659a92\n      eq\n      tag_12\n      jumpi\n      dup1\n      0x70a08231\n      eq\n      tag_13\n      jumpi\n      jump(tag_2)\n    tag_27:\n      dup1\n      0x06fdde03\n      eq\n      tag_3\n      jumpi\n      dup1\n      0x095ea7b3\n      eq\n      tag_4\n      jumpi\n      dup1\n      0x18160ddd\n      eq\n      tag_5\n      jumpi\n      dup1\n      0x1cbaee2d\n      eq\n      tag_6\n      jumpi\n      dup1\n      0x23b872dd\n      eq\n      tag_7\n      jumpi\n      jump(tag_2)\n    tag_1:\n      jumpi(tag_2, calldatasize)\n        /* \"submissions/iCat798/13-\\xe9\\xa2\\x84\\xe5\\x94\\xae\\xe5\\x8a\\x9f\\xe8\\x83\\xbd\\xe8\\xae\\xbe\\xe7\\xbd\\xae/Day13-PreOrderToken.sol\":3480:3491  buyTokens() */\n      tag_30\n        /* \"submissions/iCat798/13-\\xe9\\xa2\\x84\\xe5\\x94\\xae\\xe5\\x8a\\x9f\\xe8\\x83\\xbd\\xe8\\xae\\xbe\\xe7\\xbd\\xae/Day13-PreOrderToken.sol\":3480:3489  buyTokens */\n      tag_31\n        /* \"submissions/iCat798/13-\\xe9\\xa2\\x84\\xe5\\x94\\xae\\xe5\\x8a\\x9f\\xe8\\x83\\xbd\\xe8\\xae\\xbe\\xe7\\xbd\\xae/Day13-PreOrderToken.sol\":3480:3491  buyTokens() */\n      jump\t// in\n    tag_30:\n        /* \"submissions/iCat798/13-\\xe9\\xa2\\x84\\xe5\\x94\\xae\\xe5\\x8a\\x9f\\xe8\\x83\\xbd\\xe8\\xae\\xbe\\xe7\\xbd\\xae/Day13-PreOrderToken.sol\":86:3506  contract PreOrderToken is MyToken {... */\n      stop\n    tag_2:\n      revert(0x00, 0x00)\n        /* \"submissions/iCat798/13-\\xe9\\xa2\\x84\\xe5\\x94\\xae\\xe5\\x8a\\x9f\\xe8\\x83\\xbd\\xe8\\xae\\xbe\\xe7\\xbd\\xae/MyToken.sol\":88:123  string public name = \"Web3 Compass\" */\n    tag_3:\n      callvalue\n      dup1\n      iszero\n      tag_32\n      jumpi\n      revert(0x00, 0x00)\n    tag_32:\n      pop\n      tag_33\n      tag_34\n      jump\t// in\n    tag_33:\n      mload(0x40)\n      tag_35\n      swap2\n      swap1\n      tag_36\n      jump\t// in\n    tag_35:\n      mload(0x40)\n      dup1\n      swap2\n      sub\n      swap1\n      return\n        /* \"submissions/iCat798/13-\\xe9\\xa2\\x84\\xe5\\x94\\xae\\xe5\\x8a\\x9f\\xe8\\x83\\xbd\\xe8\\xae\\xbe\\xe7\\xbd\\xae/MyToken.sol\":1644:1851  function approve(address _spender, uint256 _value)public returns(bool){... */\n    tag_4:\n      callvalue\n      dup1\n      iszero\n      tag_37\n      jumpi\n      revert(0x00, 0x00)\n    tag_37:\n      pop\n      tag_38\n      0x04\n      dup1\n      calldatasize\n      sub\n      dup2\n      add\n      swap1\n      tag_39\n      swap2\n      swap1\n      tag_40\n      jump\t// in\n    tag_39:\n      tag_41\n      jump\t// in\n    tag_38:\n      mload(0x40)\n      tag_42\n      swap2\n      swap1\n      tag_43\n      jump\t// in\n    tag_42:\n      mload(0x40)\n      dup1\n      swap2\n      sub\n      swap1\n      return\n        /* \"submissions/iCat798/13-\\xe9\\xa2\\x84\\xe5\\x94\\xae\\xe5\\x8a\\x9f\\xe8\\x83\\xbd\\xe8\\xae\\xbe\\xe7\\xbd\\xae/MyToken.sol\":198:224  uint256 public totalSupply */\n    tag_5:\n      callvalue\n      dup1\n      iszero\n      tag_44\n      jumpi\n      revert(0x00, 0x00)\n    tag_44:\n      pop\n      tag_45\n      tag_46\n      jump\t// in\n    tag_45:\n      mload(0x40)\n      tag_47\n      swap2\n      swap1\n      tag_48\n      jump\t// in\n    tag_47:\n      mload(0x40)\n      dup1\n      swap2\n      sub\n      swap1\n      return\n        /* \"submissions/iCat798/13-\\xe9\\xa2\\x84\\xe5\\x94\\xae\\xe5\\x8a\\x9f\\xe8\\x83\\xbd\\xe8\\xae\\xbe\\xe7\\xbd\\xae/Day13-PreOrderToken.sol\":161:189  uint256 public saleStartTime */\n    tag_6:\n      callvalue\n      dup1\n      iszero\n      tag_49\n      jumpi\n      revert(0x00, 0x00)\n    tag_49:\n      pop\n      tag_50\n      tag_51\n      jump\t// in\n    tag_50:\n      mload(0x40)\n      tag_52\n      swap2\n      swap1\n      tag_48\n      jump\t// in\n    tag_52:\n      mload(0x40)\n      dup1\n      swap2\n      sub\n      swap1\n      return\n        /* \"submissions/iCat798/13-\\xe9\\xa2\\x84\\xe5\\x94\\xae\\xe5\\x8a\\x9f\\xe8\\x83\\xbd\\xe8\\xae\\xbe\\xe7\\xbd\\xae/Day13-PreOrderToken.sol\":2285:2579  function transferFrom(address _from, address _to, uint256 _value)public override returns(bool){... */\n    tag_7:\n      callvalue\n      dup1\n      iszero\n      tag_53\n      jumpi\n      revert(0x00, 0x00)\n    tag_53:\n      pop\n      tag_54\n      0x04\n      dup1\n      calldatasize\n      sub\n      dup2\n      add\n      swap1\n      tag_55\n      swap2\n      swap1\n      tag_56\n      jump\t// in\n    tag_55:\n      tag_57\n      jump\t// in\n    tag_54:\n      mload(0x40)\n      tag_58\n      swap2\n      swap1\n      tag_43\n      jump\t// in\n    tag_58:\n      mload(0x40)\n      dup1\n      swap2\n      sub\n      swap1\n      return\n        /* \"submissions/iCat798/13-\\xe9\\xa2\\x84\\xe5\\x94\\xae\\xe5\\x8a\\x9f\\xe8\\x83\\xbd\\xe8\\xae\\xbe\\xe7\\xbd\\xae/MyToken.sol\":165:191  uint8 public decimals = 18 */\n    tag_8:\n      callvalue\n      dup1\n      iszero\n      tag_59\n      jumpi\n      revert(0x00, 0x00)\n    tag_59:\n      pop\n      tag_60\n      tag_61\n      jump\t// in\n    tag_60:\n      mload(0x40)\n      tag_62\n      swap2\n      swap1\n      tag_63\n      jump\t// in\n    tag_62:\n      mload(0x40)\n      dup1\n      swap2\n      sub\n      swap1\n      return\n        /* \"submissions/iCat798/13-\\xe9\\xa2\\x84\\xe5\\x94\\xae\\xe5\\x8a\\x9f\\xe8\\x83\\xbd\\xe8\\xae\\xbe\\xe7\\xbd\\xae/Day13-PreOrderToken.sol\":229:255  uint256 public minPurchase */\n    tag_9:\n      callvalue\n      dup1\n      iszero\n      tag_64\n      jumpi\n      revert(0x00, 0x00)\n    tag_64:\n      pop\n      tag_65\n      tag_66\n      jump\t// in\n    tag_65:\n      mload(0x40)\n      tag_67\n      swap2\n      swap1\n      tag_48\n      jump\t// in\n    tag_67:\n      mload(0x40)\n      dup1\n      swap2\n      sub\n      swap1\n      return\n        /* \"submissions/iCat798/13-\\xe9\\xa2\\x84\\xe5\\x94\\xae\\xe5\\x8a\\x9f\\xe8\\x83\\xbd\\xe8\\xae\\xbe\\xe7\\xbd\\xae/Day13-PreOrderToken.sol\":1218:1373  function isSaleActive()public view returns(bool){... */\n    tag_10:\n      callvalue\n      dup1\n      iszero\n      tag_68\n      jumpi\n      revert(0x00, 0x00)\n    tag_68:\n      pop\n      tag_69\n      tag_70\n      jump\t// in\n    tag_69:\n      mload(0x40)\n      tag_71\n      swap2\n      swap1\n      tag_43\n      jump\t// in\n    tag_71:\n      mload(0x40)\n      dup1\n      swap2\n      sub\n      swap1\n      return\n        /* \"submissions/iCat798/13-\\xe9\\xa2\\x84\\xe5\\x94\\xae\\xe5\\x8a\\x9f\\xe8\\x83\\xbd\\xe8\\xae\\xbe\\xe7\\xbd\\xae/Day13-PreOrderToken.sol\":2587:3125  function finalizeSale() public payable{... */\n    tag_11:\n      tag_72\n      tag_73\n      jump\t// in\n    tag_72:\n      stop\n        /* \"submissions/iCat798/13-\\xe9\\xa2\\x84\\xe5\\x94\\xae\\xe5\\x8a\\x9f\\xe8\\x83\\xbd\\xe8\\xae\\xbe\\xe7\\xbd\\xae/Day13-PreOrderToken.sol\":3331:3435  function tokensAvailable()public view returns(uint256){... */\n    tag_12:\n      callvalue\n      dup1\n      iszero\n      tag_74\n      jumpi\n      revert(0x00, 0x00)\n    tag_74:\n      pop\n      tag_75\n      tag_76\n      jump\t// in\n    tag_75:\n      mload(0x40)\n      tag_77\n      swap2\n      swap1\n      tag_48\n      jump\t// in\n    tag_77:\n      mload(0x40)\n      dup1\n      swap2\n      sub\n      swap1\n      return\n        /* \"submissions/iCat798/13-\\xe9\\xa2\\x84\\xe5\\x94\\xae\\xe5\\x8a\\x9f\\xe8\\x83\\xbd\\xe8\\xae\\xbe\\xe7\\xbd\\xae/MyToken.sol\":233:277  mapping(address => uint256) public balanceOf */\n    tag_13:\n      callvalue\n      dup1\n      iszero\n      tag_78\n      jumpi\n      revert(0x00, 0x00)\n    tag_78:\n      pop\n      tag_79\n      0x04\n      dup1\n      calldatasize\n      sub\n      dup2\n      add\n      swap1\n      tag_80\n      swap2\n      swap1\n      tag_81\n      jump\t// in\n    tag_80:\n      tag_82\n      jump\t// in\n    tag_79:\n      mload(0x40)\n      tag_83\n      swap2\n      swap1\n      tag_48\n      jump\t// in\n    tag_83:\n      mload(0x40)\n      dup1\n      swap2\n      sub\n      swap1\n      return\n        /* \"submissions/iCat798/13-\\xe9\\xa2\\x84\\xe5\\x94\\xae\\xe5\\x8a\\x9f\\xe8\\x83\\xbd\\xe8\\xae\\xbe\\xe7\\xbd\\xae/Day13-PreOrderToken.sol\":129:154  uint256 public tokenPrice */\n    tag_14:\n      callvalue\n      dup1\n      iszero\n      tag_84\n      jumpi\n      revert(0x00, 0x00)\n    tag_84:\n      pop\n      tag_85\n      tag_86\n      jump\t// in\n    tag_85:\n      mload(0x40)\n      tag_87\n      swap2\n      swap1\n      tag_48\n      jump\t// in\n    tag_87:\n      mload(0x40)\n      dup1\n      swap2\n      sub\n      swap1\n      return\n        /* \"submissions/iCat798/13-\\xe9\\xa2\\x84\\xe5\\x94\\xae\\xe5\\x8a\\x9f\\xe8\\x83\\xbd\\xe8\\xae\\xbe\\xe7\\xbd\\xae/MyToken.sol\":130:158  string public symbol = \"WBT\" */\n    tag_15:\n      callvalue\n      dup1\n      iszero\n      tag_88\n      jumpi\n      revert(0x00, 0x00)\n    tag_88:\n      pop\n      tag_89\n      tag_90\n      jump\t// in\n    tag_89:\n      mload(0x40)\n      tag_91\n      swap2\n      swap1\n      tag_36\n      jump\t// in\n    tag_91:\n      mload(0x40)\n      dup1\n      swap2\n      sub\n      swap1\n      return\n        /* \"submissions/iCat798/13-\\xe9\\xa2\\x84\\xe5\\x94\\xae\\xe5\\x8a\\x9f\\xe8\\x83\\xbd\\xe8\\xae\\xbe\\xe7\\xbd\\xae/Day13-PreOrderToken.sol\":262:288  uint256 public maxPurchase */\n    tag_16:\n      callvalue\n      dup1\n      iszero\n      tag_92\n      jumpi\n      revert(0x00, 0x00)\n    tag_92:\n      pop\n      tag_93\n      tag_94\n      jump\t// in\n    tag_93:\n      mload(0x40)\n      tag_95\n      swap2\n      swap1\n      tag_48\n      jump\t// in\n    tag_95:\n      mload(0x40)\n      dup1\n      swap2\n      sub\n      swap1\n      return\n        /* \"submissions/iCat798/13-\\xe9\\xa2\\x84\\xe5\\x94\\xae\\xe5\\x8a\\x9f\\xe8\\x83\\xbd\\xe8\\xae\\xbe\\xe7\\xbd\\xae/Day13-PreOrderToken.sol\":328:355  address public projectOwner */\n    tag_17:\n      callvalue\n      dup1\n      iszero\n      tag_96\n      jumpi\n      revert(0x00, 0x00)\n    tag_96:\n      pop\n      tag_97\n      tag_98\n      jump\t// in\n    tag_97:\n      mload(0x40)\n      tag_99\n      swap2\n      swap1\n      tag_100\n      jump\t// in\n    tag_99:\n      mload(0x40)\n      dup1\n      swap2\n      sub\n      swap1\n      return\n        /* \"submissions/iCat798/13-\\xe9\\xa2\\x84\\xe5\\x94\\xae\\xe5\\x8a\\x9f\\xe8\\x83\\xbd\\xe8\\xae\\xbe\\xe7\\xbd\\xae/Day13-PreOrderToken.sol\":1983:2277  function transfer(address _to, uint256 _value)public override returns(bool){... */\n    tag_18:\n      callvalue\n      dup1\n      iszero\n      tag_101\n      jumpi\n      revert(0x00, 0x00)\n    tag_101:\n      pop\n      tag_102\n      0x04\n      dup1\n      calldatasize\n      sub\n      dup2\n      add\n      swap1\n      tag_103\n      swap2\n      swap1\n      tag_40\n      jump\t// in\n    tag_103:\n      tag_104\n      jump\t// in\n    tag_102:\n      mload(0x40)\n      tag_105\n      swap2\n      swap1\n      tag_43\n      jump\t// in\n    tag_105:\n      mload(0x40)\n      dup1\n      swap2\n      sub\n      swap1\n      return\n        /* \"submissions/iCat798/13-\\xe9\\xa2\\x84\\xe5\\x94\\xae\\xe5\\x8a\\x9f\\xe8\\x83\\xbd\\xe8\\xae\\xbe\\xe7\\xbd\\xae/Day13-PreOrderToken.sol\":362:391  bool public finalized = false */\n    tag_19:\n      callvalue\n      dup1\n      iszero\n      tag_106\n      jumpi\n      revert(0x00, 0x00)\n    tag_106:\n      pop\n      tag_107\n      tag_108\n      jump\t// in\n    tag_107:\n      mload(0x40)\n      tag_109\n      swap2\n      swap1\n      tag_43\n      jump\t// in\n    tag_109:\n      mload(0x40)\n      dup1\n      swap2\n      sub\n      swap1\n      return\n        /* \"submissions/iCat798/13-\\xe9\\xa2\\x84\\xe5\\x94\\xae\\xe5\\x8a\\x9f\\xe8\\x83\\xbd\\xe8\\xae\\xbe\\xe7\\xbd\\xae/Day13-PreOrderToken.sol\":295:321  uint256 public totalRaised */\n    tag_20:\n      callvalue\n      dup1\n      iszero\n      tag_110\n      jumpi\n      revert(0x00, 0x00)\n    tag_110:\n      pop\n      tag_111\n      tag_112\n      jump\t// in\n    tag_111:\n      mload(0x40)\n      tag_113\n      swap2\n      swap1\n      tag_48\n      jump\t// in\n    tag_113:\n      mload(0x40)\n      dup1\n      swap2\n      sub\n      swap1\n      return\n        /* \"submissions/iCat798/13-\\xe9\\xa2\\x84\\xe5\\x94\\xae\\xe5\\x8a\\x9f\\xe8\\x83\\xbd\\xe8\\xae\\xbe\\xe7\\xbd\\xae/Day13-PreOrderToken.sol\":1381:1975  function buyTokens() public payable{... */\n    tag_21:\n      tag_114\n      tag_31\n      jump\t// in\n    tag_114:\n      stop\n        /* \"submissions/iCat798/13-\\xe9\\xa2\\x84\\xe5\\x94\\xae\\xe5\\x8a\\x9f\\xe8\\x83\\xbd\\xe8\\xae\\xbe\\xe7\\xbd\\xae/MyToken.sol\":284:350  mapping(address => mapping (address  => uint256)) public allowance */\n    tag_22:\n      callvalue\n      dup1\n      iszero\n      tag_115\n      jumpi\n      revert(0x00, 0x00)\n    tag_115:\n      pop\n      tag_116\n      0x04\n      dup1\n      calldatasize\n      sub\n      dup2\n      add\n      swap1\n      tag_117\n      swap2\n      swap1\n      tag_118\n      jump\t// in\n    tag_117:\n      tag_119\n      jump\t// in\n    tag_116:\n      mload(0x40)\n      tag_120\n      swap2\n      swap1\n      tag_48\n      jump\t// in\n    tag_120:\n      mload(0x40)\n      dup1\n      swap2\n      sub\n      swap1\n      return\n        /* \"submissions/iCat798/13-\\xe9\\xa2\\x84\\xe5\\x94\\xae\\xe5\\x8a\\x9f\\xe8\\x83\\xbd\\xe8\\xae\\xbe\\xe7\\xbd\\xae/Day13-PreOrderToken.sol\":3133:3323  function timeRemaining() public view  returns(uint256){... */\n    tag_23:\n      callvalue\n      dup1\n      iszero\n      tag_121\n      jumpi\n      revert(0x00, 0x00)\n    tag_121:\n      pop\n      tag_122\n      tag_123\n      jump\t// in\n    tag_122:\n      mload(0x40)\n      tag_124\n      swap2\n      swap1\n      tag_48\n      jump\t// in\n    tag_124:\n      mload(0x40)\n      dup1\n      swap2\n      sub\n      swap1\n      return\n        /* \"submissions/iCat798/13-\\xe9\\xa2\\x84\\xe5\\x94\\xae\\xe5\\x8a\\x9f\\xe8\\x83\\xbd\\xe8\\xae\\xbe\\xe7\\xbd\\xae/Day13-PreOrderToken.sol\":196:222  uint256 public saleEndTime */\n    tag_24:\n      callvalue\n      dup1\n      iszero\n      tag_125\n      jumpi\n      revert(0x00, 0x00)\n    tag_125:\n      pop\n      tag_126\n      tag_127\n      jump\t// in\n    tag_126:\n      mload(0x40)\n      tag_128\n      swap2\n      swap1\n      tag_48\n      jump\t// in\n    tag_128:\n      mload(0x40)\n      dup1\n      swap2\n      sub\n      swap1\n      return\n        /* \"submissions/iCat798/13-\\xe9\\xa2\\x84\\xe5\\x94\\xae\\xe5\\x8a\\x9f\\xe8\\x83\\xbd\\xe8\\xae\\xbe\\xe7\\xbd\\xae/Day13-PreOrderToken.sol\":1381:1975  function buyTokens() public payable{... */\n    tag_31:\n        /* \"submissions/iCat798/13-\\xe9\\xa2\\x84\\xe5\\x94\\xae\\xe5\\x8a\\x9f\\xe8\\x83\\xbd\\xe8\\xae\\xbe\\xe7\\xbd\\xae/Day13-PreOrderToken.sol\":1435:1449  isSaleActive() */\n      tag_130\n        /* \"submissions/iCat798/13-\\xe9\\xa2\\x84\\xe5\\x94\\xae\\xe5\\x8a\\x9f\\xe8\\x83\\xbd\\xe8\\xae\\xbe\\xe7\\xbd\\xae/Day13-PreOrderToken.sol\":1435:1447  isSaleActive */\n      tag_70\n        /* \"submissions/iCat798/13-\\xe9\\xa2\\x84\\xe5\\x94\\xae\\xe5\\x8a\\x9f\\xe8\\x83\\xbd\\xe8\\xae\\xbe\\xe7\\xbd\\xae/Day13-PreOrderToken.sol\":1435:1449  isSaleActive() */\n      jump\t// in\n    tag_130:\n        /* \"submissions/iCat798/13-\\xe9\\xa2\\x84\\xe5\\x94\\xae\\xe5\\x8a\\x9f\\xe8\\x83\\xbd\\xe8\\xae\\xbe\\xe7\\xbd\\xae/Day13-PreOrderToken.sol\":1427:1472  require(isSaleActive(), \"Sale is not active\") */\n      tag_131\n      jumpi\n      mload(0x40)\n      0x08c379a000000000000000000000000000000000000000000000000000000000\n      dup2\n      mstore\n      0x04\n      add\n      tag_132\n      swap1\n      tag_133\n      jump\t// in\n    tag_132:\n      mload(0x40)\n      dup1\n      swap2\n      sub\n      swap1\n      revert\n    tag_131:\n        /* \"submissions/iCat798/13-\\xe9\\xa2\\x84\\xe5\\x94\\xae\\xe5\\x8a\\x9f\\xe8\\x83\\xbd\\xe8\\xae\\xbe\\xe7\\xbd\\xae/Day13-PreOrderToken.sol\":1504:1515  minPurchase */\n      sload(0x09)\n        /* \"submissions/iCat798/13-\\xe9\\xa2\\x84\\xe5\\x94\\xae\\xe5\\x8a\\x9f\\xe8\\x83\\xbd\\xe8\\xae\\xbe\\xe7\\xbd\\xae/Day13-PreOrderToken.sol\":1491:1500  msg.value */\n      callvalue\n        /* \"submissions/iCat798/13-\\xe9\\xa2\\x84\\xe5\\x94\\xae\\xe5\\x8a\\x9f\\xe8\\x83\\xbd\\xe8\\xae\\xbe\\xe7\\xbd\\xae/Day13-PreOrderToken.sol\":1491:1515  msg.value >= minPurchase */\n      lt\n      iszero\n        /* \"submissions/iCat798/13-\\xe9\\xa2\\x84\\xe5\\x94\\xae\\xe5\\x8a\\x9f\\xe8\\x83\\xbd\\xe8\\xae\\xbe\\xe7\\xbd\\xae/Day13-PreOrderToken.sol\":1483:1548  require(msg.value >= minPurchase, \"Amount is below min purchase\") */\n      tag_134\n      jumpi\n      mload(0x40)\n      0x08c379a000000000000000000000000000000000000000000000000000000000\n      dup2\n      mstore\n      0x04\n      add\n      tag_135\n      swap1\n      tag_136\n      jump\t// in\n    tag_135:\n      mload(0x40)\n      dup1\n      swap2\n      sub\n      swap1\n      revert\n    tag_134:\n        /* \"submissions/iCat798/13-\\xe9\\xa2\\x84\\xe5\\x94\\xae\\xe5\\x8a\\x9f\\xe8\\x83\\xbd\\xe8\\xae\\xbe\\xe7\\xbd\\xae/Day13-PreOrderToken.sol\":1580:1591  maxPurchase */\n      sload(0x0a)\n        /* \"submissions/iCat798/13-\\xe9\\xa2\\x84\\xe5\\x94\\xae\\xe5\\x8a\\x9f\\xe8\\x83\\xbd\\xe8\\xae\\xbe\\xe7\\xbd\\xae/Day13-PreOrderToken.sol\":1567:1576  msg.value */\n      callvalue\n        /* \"submissions/iCat798/13-\\xe9\\xa2\\x84\\xe5\\x94\\xae\\xe5\\x8a\\x9f\\xe8\\x83\\xbd\\xe8\\xae\\xbe\\xe7\\xbd\\xae/Day13-PreOrderToken.sol\":1567:1591  msg.value <= maxPurchase */\n      gt\n      iszero\n        /* \"submissions/iCat798/13-\\xe9\\xa2\\x84\\xe5\\x94\\xae\\xe5\\x8a\\x9f\\xe8\\x83\\xbd\\xe8\\xae\\xbe\\xe7\\xbd\\xae/Day13-PreOrderToken.sol\":1559:1624  require(msg.value <= maxPurchase, \"Amount is above max purchase\") */\n      tag_137\n      jumpi\n      mload(0x40)\n      0x08c379a000000000000000000000000000000000000000000000000000000000\n      dup2\n      mstore\n      0x04\n      add\n      tag_138\n      swap1\n      tag_139\n      jump\t// in\n    tag_138:\n      mload(0x40)\n      dup1\n      swap2\n      sub\n      swap1\n      revert\n    tag_137:\n        /* \"submissions/iCat798/13-\\xe9\\xa2\\x84\\xe5\\x94\\xae\\xe5\\x8a\\x9f\\xe8\\x83\\xbd\\xe8\\xae\\xbe\\xe7\\xbd\\xae/Day13-PreOrderToken.sol\":1635:1654  uint256 tokenAmount */\n      0x00\n        /* \"submissions/iCat798/13-\\xe9\\xa2\\x84\\xe5\\x94\\xae\\xe5\\x8a\\x9f\\xe8\\x83\\xbd\\xe8\\xae\\xbe\\xe7\\xbd\\xae/Day13-PreOrderToken.sol\":1694:1704  tokenPrice */\n      sload(0x06)\n        /* \"submissions/iCat798/13-\\xe9\\xa2\\x84\\xe5\\x94\\xae\\xe5\\x8a\\x9f\\xe8\\x83\\xbd\\xe8\\xae\\xbe\\xe7\\xbd\\xae/Day13-PreOrderToken.sol\":1682:1690  decimals */\n      0x02\n      0x00\n      swap1\n      sload\n      swap1\n      0x0100\n      exp\n      swap1\n      div\n      0xff\n      and\n        /* \"submissions/iCat798/13-\\xe9\\xa2\\x84\\xe5\\x94\\xae\\xe5\\x8a\\x9f\\xe8\\x83\\xbd\\xe8\\xae\\xbe\\xe7\\xbd\\xae/Day13-PreOrderToken.sol\":1674:1691  uint256(decimals) */\n      0xff\n      and\n        /* \"submissions/iCat798/13-\\xe9\\xa2\\x84\\xe5\\x94\\xae\\xe5\\x8a\\x9f\\xe8\\x83\\xbd\\xe8\\xae\\xbe\\xe7\\xbd\\xae/Day13-PreOrderToken.sol\":1670:1672  10 */\n      0x0a\n        /* \"submissions/iCat798/13-\\xe9\\xa2\\x84\\xe5\\x94\\xae\\xe5\\x8a\\x9f\\xe8\\x83\\xbd\\xe8\\xae\\xbe\\xe7\\xbd\\xae/Day13-PreOrderToken.sol\":1670:1691  10**uint256(decimals) */\n      tag_140\n      swap2\n      swap1\n      tag_141\n      jump\t// in\n    tag_140:\n        /* \"submissions/iCat798/13-\\xe9\\xa2\\x84\\xe5\\x94\\xae\\xe5\\x8a\\x9f\\xe8\\x83\\xbd\\xe8\\xae\\xbe\\xe7\\xbd\\xae/Day13-PreOrderToken.sol\":1658:1667  msg.value */\n      callvalue\n        /* \"submissions/iCat798/13-\\xe9\\xa2\\x84\\xe5\\x94\\xae\\xe5\\x8a\\x9f\\xe8\\x83\\xbd\\xe8\\xae\\xbe\\xe7\\xbd\\xae/Day13-PreOrderToken.sol\":1658:1691  msg.value * 10**uint256(decimals) */\n      tag_142\n      swap2\n      swap1\n      tag_143\n      jump\t// in\n    tag_142:\n        /* \"submissions/iCat798/13-\\xe9\\xa2\\x84\\xe5\\x94\\xae\\xe5\\x8a\\x9f\\xe8\\x83\\xbd\\xe8\\xae\\xbe\\xe7\\xbd\\xae/Day13-PreOrderToken.sol\":1657:1704  (msg.value * 10**uint256(decimals))/ tokenPrice */\n      tag_144\n      swap2\n      swap1\n      tag_145\n      jump\t// in\n    tag_144:\n        /* \"submissions/iCat798/13-\\xe9\\xa2\\x84\\xe5\\x94\\xae\\xe5\\x8a\\x9f\\xe8\\x83\\xbd\\xe8\\xae\\xbe\\xe7\\xbd\\xae/Day13-PreOrderToken.sol\":1635:1704  uint256 tokenAmount = (msg.value * 10**uint256(decimals))/ tokenPrice */\n      swap1\n      pop\n        /* \"submissions/iCat798/13-\\xe9\\xa2\\x84\\xe5\\x94\\xae\\xe5\\x8a\\x9f\\xe8\\x83\\xbd\\xe8\\xae\\xbe\\xe7\\xbd\\xae/Day13-PreOrderToken.sol\":1751:1762  tokenAmount */\n      dup1\n        /* \"submissions/iCat798/13-\\xe9\\xa2\\x84\\xe5\\x94\\xae\\xe5\\x8a\\x9f\\xe8\\x83\\xbd\\xe8\\xae\\xbe\\xe7\\xbd\\xae/Day13-PreOrderToken.sol\":1723:1732  balanceOf */\n      0x04\n        /* \"submissions/iCat798/13-\\xe9\\xa2\\x84\\xe5\\x94\\xae\\xe5\\x8a\\x9f\\xe8\\x83\\xbd\\xe8\\xae\\xbe\\xe7\\xbd\\xae/Day13-PreOrderToken.sol\":1723:1747  balanceOf[address(this)] */\n      0x00\n        /* \"submissions/iCat798/13-\\xe9\\xa2\\x84\\xe5\\x94\\xae\\xe5\\x8a\\x9f\\xe8\\x83\\xbd\\xe8\\xae\\xbe\\xe7\\xbd\\xae/Day13-PreOrderToken.sol\":1741:1745  this */\n      address\n        /* \"submissions/iCat798/13-\\xe9\\xa2\\x84\\xe5\\x94\\xae\\xe5\\x8a\\x9f\\xe8\\x83\\xbd\\xe8\\xae\\xbe\\xe7\\xbd\\xae/Day13-PreOrderToken.sol\":1723:1747  balanceOf[address(this)] */\n      0xffffffffffffffffffffffffffffffffffffffff\n      and\n      0xffffffffffffffffffffffffffffffffffffffff\n      and\n      dup2\n      mstore\n      0x20\n      add\n      swap1\n      dup2\n      mstore\n      0x20\n      add\n      0x00\n      keccak256\n      sload\n        /* \"submissions/iCat798/13-\\xe9\\xa2\\x84\\xe5\\x94\\xae\\xe5\\x8a\\x9f\\xe8\\x83\\xbd\\xe8\\xae\\xbe\\xe7\\xbd\\xae/Day13-PreOrderToken.sol\":1723:1762  balanceOf[address(this)] >= tokenAmount */\n      lt\n      iszero\n        /* \"submissions/iCat798/13-\\xe9\\xa2\\x84\\xe5\\x94\\xae\\xe5\\x8a\\x9f\\xe8\\x83\\xbd\\xe8\\xae\\xbe\\xe7\\xbd\\xae/Day13-PreOrderToken.sol\":1715:1798  require(balanceOf[address(this)] >= tokenAmount, \"Not enough tokens left for sale\") */\n      tag_146\n      jumpi\n      mload(0x40)\n      0x08c379a000000000000000000000000000000000000000000000000000000000\n      dup2\n      mstore\n      0x04\n      add\n      tag_147\n      swap1\n      tag_148\n      jump\t// in\n    tag_147:\n      mload(0x40)\n      dup1\n      swap2\n      sub\n      swap1\n      revert\n    tag_146:\n        /* \"submissions/iCat798/13-\\xe9\\xa2\\x84\\xe5\\x94\\xae\\xe5\\x8a\\x9f\\xe8\\x83\\xbd\\xe8\\xae\\xbe\\xe7\\xbd\\xae/Day13-PreOrderToken.sol\":1823:1832  msg.value */\n      callvalue\n        /* \"submissions/iCat798/13-\\xe9\\xa2\\x84\\xe5\\x94\\xae\\xe5\\x8a\\x9f\\xe8\\x83\\xbd\\xe8\\xae\\xbe\\xe7\\xbd\\xae/Day13-PreOrderToken.sol\":1809:1820  totalRaised */\n      0x0b\n      0x00\n        /* \"submissions/iCat798/13-\\xe9\\xa2\\x84\\xe5\\x94\\xae\\xe5\\x8a\\x9f\\xe8\\x83\\xbd\\xe8\\xae\\xbe\\xe7\\xbd\\xae/Day13-PreOrderToken.sol\":1809:1832  totalRaised+= msg.value */\n      dup3\n      dup3\n      sload\n      tag_149\n      swap2\n      swap1\n      tag_150\n      jump\t// in\n    tag_149:\n      swap3\n      pop\n      pop\n      dup2\n      swap1\n      sstore\n      pop\n        /* \"submissions/iCat798/13-\\xe9\\xa2\\x84\\xe5\\x94\\xae\\xe5\\x8a\\x9f\\xe8\\x83\\xbd\\xe8\\xae\\xbe\\xe7\\xbd\\xae/Day13-PreOrderToken.sol\":1843:1890  _transfer(address(this),msg.sender,tokenAmount) */\n      tag_151\n        /* \"submissions/iCat798/13-\\xe9\\xa2\\x84\\xe5\\x94\\xae\\xe5\\x8a\\x9f\\xe8\\x83\\xbd\\xe8\\xae\\xbe\\xe7\\xbd\\xae/Day13-PreOrderToken.sol\":1861:1865  this */\n      address\n        /* \"submissions/iCat798/13-\\xe9\\xa2\\x84\\xe5\\x94\\xae\\xe5\\x8a\\x9f\\xe8\\x83\\xbd\\xe8\\xae\\xbe\\xe7\\xbd\\xae/Day13-PreOrderToken.sol\":1867:1877  msg.sender */\n      caller\n        /* \"submissions/iCat798/13-\\xe9\\xa2\\x84\\xe5\\x94\\xae\\xe5\\x8a\\x9f\\xe8\\x83\\xbd\\xe8\\xae\\xbe\\xe7\\xbd\\xae/Day13-PreOrderToken.sol\":1878:1889  tokenAmount */\n      dup4\n        /* \"submissions/iCat798/13-\\xe9\\xa2\\x84\\xe5\\x94\\xae\\xe5\\x8a\\x9f\\xe8\\x83\\xbd\\xe8\\xae\\xbe\\xe7\\xbd\\xae/Day13-PreOrderToken.sol\":1843:1852  _transfer */\n      tag_152\n        /* \"submissions/iCat798/13-\\xe9\\xa2\\x84\\xe5\\x94\\xae\\xe5\\x8a\\x9f\\xe8\\x83\\xbd\\xe8\\xae\\xbe\\xe7\\xbd\\xae/Day13-PreOrderToken.sol\":1843:1890  _transfer(address(this),msg.sender,tokenAmount) */\n      jump\t// in\n    tag_151:\n        /* \"submissions/iCat798/13-\\xe9\\xa2\\x84\\xe5\\x94\\xae\\xe5\\x8a\\x9f\\xe8\\x83\\xbd\\xe8\\xae\\xbe\\xe7\\xbd\\xae/Day13-PreOrderToken.sol\":1922:1932  msg.sender */\n      caller\n        /* \"submissions/iCat798/13-\\xe9\\xa2\\x84\\xe5\\x94\\xae\\xe5\\x8a\\x9f\\xe8\\x83\\xbd\\xe8\\xae\\xbe\\xe7\\xbd\\xae/Day13-PreOrderToken.sol\":1906:1957  TokensPurchased(msg.sender, msg.value, tokenAmount) */\n      0xffffffffffffffffffffffffffffffffffffffff\n      and\n      0x8fafebcaf9d154343dad25669bfa277f4fbacd7ac6b0c4fed522580e040a0f33\n        /* \"submissions/iCat798/13-\\xe9\\xa2\\x84\\xe5\\x94\\xae\\xe5\\x8a\\x9f\\xe8\\x83\\xbd\\xe8\\xae\\xbe\\xe7\\xbd\\xae/Day13-PreOrderToken.sol\":1934:1943  msg.value */\n      callvalue\n        /* \"submissions/iCat798/13-\\xe9\\xa2\\x84\\xe5\\x94\\xae\\xe5\\x8a\\x9f\\xe8\\x83\\xbd\\xe8\\xae\\xbe\\xe7\\xbd\\xae/Day13-PreOrderToken.sol\":1945:1956  tokenAmount */\n      dup4\n        /* \"submissions/iCat798/13-\\xe9\\xa2\\x84\\xe5\\x94\\xae\\xe5\\x8a\\x9f\\xe8\\x83\\xbd\\xe8\\xae\\xbe\\xe7\\xbd\\xae/Day13-PreOrderToken.sol\":1906:1957  TokensPurchased(msg.sender, msg.value, tokenAmount) */\n      mload(0x40)\n      tag_153\n      swap3\n      swap2\n      swap1\n      tag_154\n      jump\t// in\n    tag_153:\n      mload(0x40)\n      dup1\n      swap2\n      sub\n      swap1\n      log2\n        /* \"submissions/iCat798/13-\\xe9\\xa2\\x84\\xe5\\x94\\xae\\xe5\\x8a\\x9f\\xe8\\x83\\xbd\\xe8\\xae\\xbe\\xe7\\xbd\\xae/Day13-PreOrderToken.sol\":1416:1975  {... */\n      pop\n        /* \"submissions/iCat798/13-\\xe9\\xa2\\x84\\xe5\\x94\\xae\\xe5\\x8a\\x9f\\xe8\\x83\\xbd\\xe8\\xae\\xbe\\xe7\\xbd\\xae/Day13-PreOrderToken.sol\":1381:1975  function buyTokens() public payable{... */\n      jump\t// out\n        /* \"submissions/iCat798/13-\\xe9\\xa2\\x84\\xe5\\x94\\xae\\xe5\\x8a\\x9f\\xe8\\x83\\xbd\\xe8\\xae\\xbe\\xe7\\xbd\\xae/MyToken.sol\":88:123  string public name = \"Web3 Compass\" */\n    tag_34:\n      0x00\n      dup1\n      sload\n      tag_155\n      swap1\n      tag_156\n      jump\t// in\n    tag_155:\n      dup1\n      0x1f\n      add\n      0x20\n      dup1\n      swap2\n      div\n      mul\n      0x20\n      add\n      mload(0x40)\n      swap1\n      dup2\n      add\n      0x40\n      mstore\n      dup1\n      swap3\n      swap2\n      swap1\n      dup2\n      dup2\n      mstore\n      0x20\n      add\n      dup3\n      dup1\n      sload\n      tag_157\n      swap1\n      tag_156\n      jump\t// in\n    tag_157:\n      dup1\n      iszero\n      tag_158\n      jumpi\n      dup1\n      0x1f\n      lt\n      tag_159\n      jumpi\n      0x0100\n      dup1\n      dup4\n      sload\n      div\n      mul\n      dup4\n      mstore\n      swap2\n      0x20\n      add\n      swap2\n      jump(tag_158)\n    tag_159:\n      dup3\n      add\n      swap2\n      swap1\n      0x00\n      mstore\n      keccak256(0x00, 0x20)\n      swap1\n    tag_160:\n      dup2\n      sload\n      dup2\n      mstore\n      swap1\n      0x01\n      add\n      swap1\n      0x20\n      add\n      dup1\n      dup4\n      gt\n      tag_160\n      jumpi\n      dup3\n      swap1\n      sub\n      0x1f\n      and\n      dup3\n      add\n      swap2\n    tag_158:\n      pop\n      pop\n      pop\n      pop\n      pop\n      dup2\n      jump\t// out\n        /* \"submissions/iCat798/13-\\xe9\\xa2\\x84\\xe5\\x94\\xae\\xe5\\x8a\\x9f\\xe8\\x83\\xbd\\xe8\\xae\\xbe\\xe7\\xbd\\xae/MyToken.sol\":1644:1851  function approve(address _spender, uint256 _value)public returns(bool){... */\n    tag_41:\n        /* \"submissions/iCat798/13-\\xe9\\xa2\\x84\\xe5\\x94\\xae\\xe5\\x8a\\x9f\\xe8\\x83\\xbd\\xe8\\xae\\xbe\\xe7\\xbd\\xae/MyToken.sol\":1709:1713  bool */\n      0x00\n        /* \"submissions/iCat798/13-\\xe9\\xa2\\x84\\xe5\\x94\\xae\\xe5\\x8a\\x9f\\xe8\\x83\\xbd\\xe8\\xae\\xbe\\xe7\\xbd\\xae/MyToken.sol\":1759:1765  _value */\n      dup2\n        /* \"submissions/iCat798/13-\\xe9\\xa2\\x84\\xe5\\x94\\xae\\xe5\\x8a\\x9f\\xe8\\x83\\xbd\\xe8\\xae\\xbe\\xe7\\xbd\\xae/MyToken.sol\":1725:1734  allowance */\n      0x05\n        /* \"submissions/iCat798/13-\\xe9\\xa2\\x84\\xe5\\x94\\xae\\xe5\\x8a\\x9f\\xe8\\x83\\xbd\\xe8\\xae\\xbe\\xe7\\xbd\\xae/MyToken.sol\":1725:1746  allowance[msg.sender] */\n      0x00\n        /* \"submissions/iCat798/13-\\xe9\\xa2\\x84\\xe5\\x94\\xae\\xe5\\x8a\\x9f\\xe8\\x83\\xbd\\xe8\\xae\\xbe\\xe7\\xbd\\xae/MyToken.sol\":1735:1745  msg.sender */\n      caller\n        /* \"submissions/iCat798/13-\\xe9\\xa2\\x84\\xe5\\x94\\xae\\xe5\\x8a\\x9f\\xe8\\x83\\xbd\\xe8\\xae\\xbe\\xe7\\xbd\\xae/MyToken.sol\":1725:1746  allowance[msg.sender] */\n      0xffffffffffffffffffffffffffffffffffffffff\n      and\n      0xffffffffffffffffffffffffffffffffffffffff\n      and\n      dup2\n      mstore\n      0x20\n      add\n      swap1\n      dup2\n      mstore\n      0x20\n      add\n      0x00\n      keccak256\n        /* \"submissions/iCat798/13-\\xe9\\xa2\\x84\\xe5\\x94\\xae\\xe5\\x8a\\x9f\\xe8\\x83\\xbd\\xe8\\xae\\xbe\\xe7\\xbd\\xae/MyToken.sol\":1725:1756  allowance[msg.sender][_spender] */\n      0x00\n        /* \"submissions/iCat798/13-\\xe9\\xa2\\x84\\xe5\\x94\\xae\\xe5\\x8a\\x9f\\xe8\\x83\\xbd\\xe8\\xae\\xbe\\xe7\\xbd\\xae/MyToken.sol\":1747:1755  _spender */\n      dup6\n        /* \"submissions/iCat798/13-\\xe9\\xa2\\x84\\xe5\\x94\\xae\\xe5\\x8a\\x9f\\xe8\\x83\\xbd\\xe8\\xae\\xbe\\xe7\\xbd\\xae/MyToken.sol\":1725:1756  allowance[msg.sender][_spender] */\n      0xffffffffffffffffffffffffffffffffffffffff\n      and\n      0xffffffffffffffffffffffffffffffffffffffff\n      and\n      dup2\n      mstore\n      0x20\n      add\n      swap1\n      dup2\n      mstore\n      0x20\n      add\n      0x00\n      keccak256\n        /* \"submissions/iCat798/13-\\xe9\\xa2\\x84\\xe5\\x94\\xae\\xe5\\x8a\\x9f\\xe8\\x83\\xbd\\xe8\\xae\\xbe\\xe7\\xbd\\xae/MyToken.sol\":1725:1765  allowance[msg.sender][_spender] = _value */\n      dup2\n      swap1\n      sstore\n      pop\n        /* \"submissions/iCat798/13-\\xe9\\xa2\\x84\\xe5\\x94\\xae\\xe5\\x8a\\x9f\\xe8\\x83\\xbd\\xe8\\xae\\xbe\\xe7\\xbd\\xae/MyToken.sol\":1802:1810  _spender */\n      dup3\n        /* \"submissions/iCat798/13-\\xe9\\xa2\\x84\\xe5\\x94\\xae\\xe5\\x8a\\x9f\\xe8\\x83\\xbd\\xe8\\xae\\xbe\\xe7\\xbd\\xae/MyToken.sol\":1781:1819  Approval(msg.sender, _spender, _value) */\n      0xffffffffffffffffffffffffffffffffffffffff\n      and\n        /* \"submissions/iCat798/13-\\xe9\\xa2\\x84\\xe5\\x94\\xae\\xe5\\x8a\\x9f\\xe8\\x83\\xbd\\xe8\\xae\\xbe\\xe7\\xbd\\xae/MyToken.sol\":1790:1800  msg.sender */\n      caller\n        /* \"submissions/iCat798/13-\\xe9\\xa2\\x84\\xe5\\x94\\xae\\xe5\\x8a\\x9f\\xe8\\x83\\xbd\\xe8\\xae\\xbe\\xe7\\xbd\\xae/MyToken.sol\":1781:1819  Approval(msg.sender, _spender, _value) */\n      0xffffffffffffffffffffffffffffffffffffffff\n      and\n      0x8c5be1e5ebec7d5bd14f71427d1e84f3dd0314c0f7b2291e5b200ac8c7c3b925\n        /* \"submissions/iCat798/13-\\xe9\\xa2\\x84\\xe5\\x94\\xae\\xe5\\x8a\\x9f\\xe8\\x83\\xbd\\xe8\\xae\\xbe\\xe7\\xbd\\xae/MyToken.sol\":1812:1818  _value */\n      dup5\n        /* \"submissions/iCat798/13-\\xe9\\xa2\\x84\\xe5\\x94\\xae\\xe5\\x8a\\x9f\\xe8\\x83\\xbd\\xe8\\xae\\xbe\\xe7\\xbd\\xae/MyToken.sol\":1781:1819  Approval(msg.sender, _spender, _value) */\n      mload(0x40)\n      tag_162\n      swap2\n      swap1\n      tag_48\n      jump\t// in\n    tag_162:\n      mload(0x40)\n      dup1\n      swap2\n      sub\n      swap1\n      log3\n        /* \"submissions/iCat798/13-\\xe9\\xa2\\x84\\xe5\\x94\\xae\\xe5\\x8a\\x9f\\xe8\\x83\\xbd\\xe8\\xae\\xbe\\xe7\\xbd\\xae/MyToken.sol\":1837:1841  true */\n      0x01\n        /* \"submissions/iCat798/13-\\xe9\\xa2\\x84\\xe5\\x94\\xae\\xe5\\x8a\\x9f\\xe8\\x83\\xbd\\xe8\\xae\\xbe\\xe7\\xbd\\xae/MyToken.sol\":1830:1841  return true */\n      swap1\n      pop\n        /* \"submissions/iCat798/13-\\xe9\\xa2\\x84\\xe5\\x94\\xae\\xe5\\x8a\\x9f\\xe8\\x83\\xbd\\xe8\\xae\\xbe\\xe7\\xbd\\xae/MyToken.sol\":1644:1851  function approve(address _spender, uint256 _value)public returns(bool){... */\n      swap3\n      swap2\n      pop\n      pop\n      jump\t// out\n        /* \"submissions/iCat798/13-\\xe9\\xa2\\x84\\xe5\\x94\\xae\\xe5\\x8a\\x9f\\xe8\\x83\\xbd\\xe8\\xae\\xbe\\xe7\\xbd\\xae/MyToken.sol\":198:224  uint256 public totalSupply */\n    tag_46:\n      sload(0x03)\n      dup2\n      jump\t// out\n        /* \"submissions/iCat798/13-\\xe9\\xa2\\x84\\xe5\\x94\\xae\\xe5\\x8a\\x9f\\xe8\\x83\\xbd\\xe8\\xae\\xbe\\xe7\\xbd\\xae/Day13-PreOrderToken.sol\":161:189  uint256 public saleStartTime */\n    tag_51:\n      sload(0x07)\n      dup2\n      jump\t// out\n        /* \"submissions/iCat798/13-\\xe9\\xa2\\x84\\xe5\\x94\\xae\\xe5\\x8a\\x9f\\xe8\\x83\\xbd\\xe8\\xae\\xbe\\xe7\\xbd\\xae/Day13-PreOrderToken.sol\":2285:2579  function transferFrom(address _from, address _to, uint256 _value)public override returns(bool){... */\n    tag_57:\n        /* \"submissions/iCat798/13-\\xe9\\xa2\\x84\\xe5\\x94\\xae\\xe5\\x8a\\x9f\\xe8\\x83\\xbd\\xe8\\xae\\xbe\\xe7\\xbd\\xae/Day13-PreOrderToken.sol\":2374:2378  bool */\n      0x00\n        /* \"submissions/iCat798/13-\\xe9\\xa2\\x84\\xe5\\x94\\xae\\xe5\\x8a\\x9f\\xe8\\x83\\xbd\\xe8\\xae\\xbe\\xe7\\xbd\\xae/Day13-PreOrderToken.sol\":2394:2403  finalized */\n      0x0c\n      0x14\n      swap1\n      sload\n      swap1\n      0x0100\n      exp\n      swap1\n      div\n      0xff\n      and\n        /* \"submissions/iCat798/13-\\xe9\\xa2\\x84\\xe5\\x94\\xae\\xe5\\x8a\\x9f\\xe8\\x83\\xbd\\xe8\\xae\\xbe\\xe7\\xbd\\xae/Day13-PreOrderToken.sol\":2393:2403  !finalized */\n      iszero\n        /* \"submissions/iCat798/13-\\xe9\\xa2\\x84\\xe5\\x94\\xae\\xe5\\x8a\\x9f\\xe8\\x83\\xbd\\xe8\\xae\\xbe\\xe7\\xbd\\xae/Day13-PreOrderToken.sol\":2393:2429  !finalized && _from != address(this) */\n      dup1\n      iszero\n      tag_164\n      jumpi\n      pop\n        /* \"submissions/iCat798/13-\\xe9\\xa2\\x84\\xe5\\x94\\xae\\xe5\\x8a\\x9f\\xe8\\x83\\xbd\\xe8\\xae\\xbe\\xe7\\xbd\\xae/Day13-PreOrderToken.sol\":2424:2428  this */\n      address\n        /* \"submissions/iCat798/13-\\xe9\\xa2\\x84\\xe5\\x94\\xae\\xe5\\x8a\\x9f\\xe8\\x83\\xbd\\xe8\\xae\\xbe\\xe7\\xbd\\xae/Day13-PreOrderToken.sol\":2407:2429  _from != address(this) */\n      0xffffffffffffffffffffffffffffffffffffffff\n      and\n        /* \"submissions/iCat798/13-\\xe9\\xa2\\x84\\xe5\\x94\\xae\\xe5\\x8a\\x9f\\xe8\\x83\\xbd\\xe8\\xae\\xbe\\xe7\\xbd\\xae/Day13-PreOrderToken.sol\":2407:2412  _from */\n      dup5\n        /* \"submissions/iCat798/13-\\xe9\\xa2\\x84\\xe5\\x94\\xae\\xe5\\x8a\\x9f\\xe8\\x83\\xbd\\xe8\\xae\\xbe\\xe7\\xbd\\xae/Day13-PreOrderToken.sol\":2407:2429  _from != address(this) */\n      0xffffffffffffffffffffffffffffffffffffffff\n      and\n      eq\n      iszero\n        /* \"submissions/iCat798/13-\\xe9\\xa2\\x84\\xe5\\x94\\xae\\xe5\\x8a\\x9f\\xe8\\x83\\xbd\\xe8\\xae\\xbe\\xe7\\xbd\\xae/Day13-PreOrderToken.sol\":2393:2429  !finalized && _from != address(this) */\n    tag_164:\n        /* \"submissions/iCat798/13-\\xe9\\xa2\\x84\\xe5\\x94\\xae\\xe5\\x8a\\x9f\\xe8\\x83\\xbd\\xe8\\xae\\xbe\\xe7\\xbd\\xae/Day13-PreOrderToken.sol\":2390:2516  if(!finalized && _from != address(this)){... */\n      iszero\n      tag_165\n      jumpi\n        /* \"submissions/iCat798/13-\\xe9\\xa2\\x84\\xe5\\x94\\xae\\xe5\\x8a\\x9f\\xe8\\x83\\xbd\\xe8\\xae\\xbe\\xe7\\xbd\\xae/Day13-PreOrderToken.sol\":2453:2458  false */\n      0x00\n        /* \"submissions/iCat798/13-\\xe9\\xa2\\x84\\xe5\\x94\\xae\\xe5\\x8a\\x9f\\xe8\\x83\\xbd\\xe8\\xae\\xbe\\xe7\\xbd\\xae/Day13-PreOrderToken.sol\":2445:2504  require(false, \"Tokens are locked until sale is finalized\") */\n      tag_166\n      jumpi\n      mload(0x40)\n      0x08c379a000000000000000000000000000000000000000000000000000000000\n      dup2\n      mstore\n      0x04\n      add\n      tag_167\n      swap1\n      tag_168\n      jump\t// in\n    tag_167:\n      mload(0x40)\n      dup1\n      swap2\n      sub\n      swap1\n      revert\n    tag_166:\n        /* \"submissions/iCat798/13-\\xe9\\xa2\\x84\\xe5\\x94\\xae\\xe5\\x8a\\x9f\\xe8\\x83\\xbd\\xe8\\xae\\xbe\\xe7\\xbd\\xae/Day13-PreOrderToken.sol\":2390:2516  if(!finalized && _from != address(this)){... */\n    tag_165:\n        /* \"submissions/iCat798/13-\\xe9\\xa2\\x84\\xe5\\x94\\xae\\xe5\\x8a\\x9f\\xe8\\x83\\xbd\\xe8\\xae\\xbe\\xe7\\xbd\\xae/Day13-PreOrderToken.sol\":2533:2571  super.transferFrom(_from, _to, _value) */\n      tag_169\n        /* \"submissions/iCat798/13-\\xe9\\xa2\\x84\\xe5\\x94\\xae\\xe5\\x8a\\x9f\\xe8\\x83\\xbd\\xe8\\xae\\xbe\\xe7\\xbd\\xae/Day13-PreOrderToken.sol\":2552:2557  _from */\n      dup5\n        /* \"submissions/iCat798/13-\\xe9\\xa2\\x84\\xe5\\x94\\xae\\xe5\\x8a\\x9f\\xe8\\x83\\xbd\\xe8\\xae\\xbe\\xe7\\xbd\\xae/Day13-PreOrderToken.sol\":2559:2562  _to */\n      dup5\n        /* \"submissions/iCat798/13-\\xe9\\xa2\\x84\\xe5\\x94\\xae\\xe5\\x8a\\x9f\\xe8\\x83\\xbd\\xe8\\xae\\xbe\\xe7\\xbd\\xae/Day13-PreOrderToken.sol\":2564:2570  _value */\n      dup5\n        /* \"submissions/iCat798/13-\\xe9\\xa2\\x84\\xe5\\x94\\xae\\xe5\\x8a\\x9f\\xe8\\x83\\xbd\\xe8\\xae\\xbe\\xe7\\xbd\\xae/Day13-PreOrderToken.sol\":2533:2551  super.transferFrom */\n      tag_170\n        /* \"submissions/iCat798/13-\\xe9\\xa2\\x84\\xe5\\x94\\xae\\xe5\\x8a\\x9f\\xe8\\x83\\xbd\\xe8\\xae\\xbe\\xe7\\xbd\\xae/Day13-PreOrderToken.sol\":2533:2571  super.transferFrom(_from, _to, _value) */\n      jump\t// in\n    tag_169:\n        /* \"submissions/iCat798/13-\\xe9\\xa2\\x84\\xe5\\x94\\xae\\xe5\\x8a\\x9f\\xe8\\x83\\xbd\\xe8\\xae\\xbe\\xe7\\xbd\\xae/Day13-PreOrderToken.sol\":2526:2571  return super.transferFrom(_from, _to, _value) */\n      swap1\n      pop\n        /* \"submissions/iCat798/13-\\xe9\\xa2\\x84\\xe5\\x94\\xae\\xe5\\x8a\\x9f\\xe8\\x83\\xbd\\xe8\\xae\\xbe\\xe7\\xbd\\xae/Day13-PreOrderToken.sol\":2285:2579  function transferFrom(address _from, address _to, uint256 _value)public override returns(bool){... */\n      swap4\n      swap3\n      pop\n      pop\n      pop\n      jump\t// out\n        /* \"submissions/iCat798/13-\\xe9\\xa2\\x84\\xe5\\x94\\xae\\xe5\\x8a\\x9f\\xe8\\x83\\xbd\\xe8\\xae\\xbe\\xe7\\xbd\\xae/MyToken.sol\":165:191  uint8 public decimals = 18 */\n    tag_61:\n      0x02\n      0x00\n      swap1\n      sload\n      swap1\n      0x0100\n      exp\n      swap1\n      div\n      0xff\n      and\n      dup2\n      jump\t// out\n        /* \"submissions/iCat798/13-\\xe9\\xa2\\x84\\xe5\\x94\\xae\\xe5\\x8a\\x9f\\xe8\\x83\\xbd\\xe8\\xae\\xbe\\xe7\\xbd\\xae/Day13-PreOrderToken.sol\":229:255  uint256 public minPurchase */\n    tag_66:\n      sload(0x09)\n      dup2\n      jump\t// out\n        /* \"submissions/iCat798/13-\\xe9\\xa2\\x84\\xe5\\x94\\xae\\xe5\\x8a\\x9f\\xe8\\x83\\xbd\\xe8\\xae\\xbe\\xe7\\xbd\\xae/Day13-PreOrderToken.sol\":1218:1373  function isSaleActive()public view returns(bool){... */\n    tag_70:\n        /* \"submissions/iCat798/13-\\xe9\\xa2\\x84\\xe5\\x94\\xae\\xe5\\x8a\\x9f\\xe8\\x83\\xbd\\xe8\\xae\\xbe\\xe7\\xbd\\xae/Day13-PreOrderToken.sol\":1261:1265  bool */\n      0x00\n        /* \"submissions/iCat798/13-\\xe9\\xa2\\x84\\xe5\\x94\\xae\\xe5\\x8a\\x9f\\xe8\\x83\\xbd\\xe8\\xae\\xbe\\xe7\\xbd\\xae/Day13-PreOrderToken.sol\":1285:1294  finalized */\n      0x0c\n      0x14\n      swap1\n      sload\n      swap1\n      0x0100\n      exp\n      swap1\n      div\n      0xff\n      and\n        /* \"submissions/iCat798/13-\\xe9\\xa2\\x84\\xe5\\x94\\xae\\xe5\\x8a\\x9f\\xe8\\x83\\xbd\\xe8\\xae\\xbe\\xe7\\xbd\\xae/Day13-PreOrderToken.sol\":1284:1294  !finalized */\n      iszero\n        /* \"submissions/iCat798/13-\\xe9\\xa2\\x84\\xe5\\x94\\xae\\xe5\\x8a\\x9f\\xe8\\x83\\xbd\\xe8\\xae\\xbe\\xe7\\xbd\\xae/Day13-PreOrderToken.sol\":1284:1330  !finalized && block.timestamp >= saleStartTime */\n      dup1\n      iszero\n      tag_172\n      jumpi\n      pop\n        /* \"submissions/iCat798/13-\\xe9\\xa2\\x84\\xe5\\x94\\xae\\xe5\\x8a\\x9f\\xe8\\x83\\xbd\\xe8\\xae\\xbe\\xe7\\xbd\\xae/Day13-PreOrderToken.sol\":1317:1330  saleStartTime */\n      sload(0x07)\n        /* \"submissions/iCat798/13-\\xe9\\xa2\\x84\\xe5\\x94\\xae\\xe5\\x8a\\x9f\\xe8\\x83\\xbd\\xe8\\xae\\xbe\\xe7\\xbd\\xae/Day13-PreOrderToken.sol\":1298:1313  block.timestamp */\n      timestamp\n        /* \"submissions/iCat798/13-\\xe9\\xa2\\x84\\xe5\\x94\\xae\\xe5\\x8a\\x9f\\xe8\\x83\\xbd\\xe8\\xae\\xbe\\xe7\\xbd\\xae/Day13-PreOrderToken.sol\":1298:1330  block.timestamp >= saleStartTime */\n      lt\n      iszero\n        /* \"submissions/iCat798/13-\\xe9\\xa2\\x84\\xe5\\x94\\xae\\xe5\\x8a\\x9f\\xe8\\x83\\xbd\\xe8\\xae\\xbe\\xe7\\xbd\\xae/Day13-PreOrderToken.sol\":1284:1330  !finalized && block.timestamp >= saleStartTime */\n    tag_172:\n        /* \"submissions/iCat798/13-\\xe9\\xa2\\x84\\xe5\\x94\\xae\\xe5\\x8a\\x9f\\xe8\\x83\\xbd\\xe8\\xae\\xbe\\xe7\\xbd\\xae/Day13-PreOrderToken.sol\":1284:1364  !finalized && block.timestamp >= saleStartTime && block.timestamp <= saleEndTime */\n      dup1\n      iszero\n      tag_173\n      jumpi\n      pop\n        /* \"submissions/iCat798/13-\\xe9\\xa2\\x84\\xe5\\x94\\xae\\xe5\\x8a\\x9f\\xe8\\x83\\xbd\\xe8\\xae\\xbe\\xe7\\xbd\\xae/Day13-PreOrderToken.sol\":1353:1364  saleEndTime */\n      sload(0x08)\n        /* \"submissions/iCat798/13-\\xe9\\xa2\\x84\\xe5\\x94\\xae\\xe5\\x8a\\x9f\\xe8\\x83\\xbd\\xe8\\xae\\xbe\\xe7\\xbd\\xae/Day13-PreOrderToken.sol\":1334:1349  block.timestamp */\n      timestamp\n        /* \"submissions/iCat798/13-\\xe9\\xa2\\x84\\xe5\\x94\\xae\\xe5\\x8a\\x9f\\xe8\\x83\\xbd\\xe8\\xae\\xbe\\xe7\\xbd\\xae/Day13-PreOrderToken.sol\":1334:1364  block.timestamp <= saleEndTime */\n      gt\n      iszero\n        /* \"submissions/iCat798/13-\\xe9\\xa2\\x84\\xe5\\x94\\xae\\xe5\\x8a\\x9f\\xe8\\x83\\xbd\\xe8\\xae\\xbe\\xe7\\xbd\\xae/Day13-PreOrderToken.sol\":1284:1364  !finalized && block.timestamp >= saleStartTime && block.timestamp <= saleEndTime */\n    tag_173:\n        /* \"submissions/iCat798/13-\\xe9\\xa2\\x84\\xe5\\x94\\xae\\xe5\\x8a\\x9f\\xe8\\x83\\xbd\\xe8\\xae\\xbe\\xe7\\xbd\\xae/Day13-PreOrderToken.sol\":1277:1365  return(!finalized && block.timestamp >= saleStartTime && block.timestamp <= saleEndTime) */\n      swap1\n      pop\n        /* \"submissions/iCat798/13-\\xe9\\xa2\\x84\\xe5\\x94\\xae\\xe5\\x8a\\x9f\\xe8\\x83\\xbd\\xe8\\xae\\xbe\\xe7\\xbd\\xae/Day13-PreOrderToken.sol\":1218:1373  function isSaleActive()public view returns(bool){... */\n      swap1\n      jump\t// out\n        /* \"submissions/iCat798/13-\\xe9\\xa2\\x84\\xe5\\x94\\xae\\xe5\\x8a\\x9f\\xe8\\x83\\xbd\\xe8\\xae\\xbe\\xe7\\xbd\\xae/Day13-PreOrderToken.sol\":2587:3125  function finalizeSale() public payable{... */\n    tag_73:\n        /* \"submissions/iCat798/13-\\xe9\\xa2\\x84\\xe5\\x94\\xae\\xe5\\x8a\\x9f\\xe8\\x83\\xbd\\xe8\\xae\\xbe\\xe7\\xbd\\xae/Day13-PreOrderToken.sol\":2658:2670  projectOwner */\n      0x0c\n      0x00\n      swap1\n      sload\n      swap1\n      0x0100\n      exp\n      swap1\n      div\n      0xffffffffffffffffffffffffffffffffffffffff\n      and\n        /* \"submissions/iCat798/13-\\xe9\\xa2\\x84\\xe5\\x94\\xae\\xe5\\x8a\\x9f\\xe8\\x83\\xbd\\xe8\\xae\\xbe\\xe7\\xbd\\xae/Day13-PreOrderToken.sol\":2644:2670  msg.sender == projectOwner */\n      0xffffffffffffffffffffffffffffffffffffffff\n      and\n        /* \"submissions/iCat798/13-\\xe9\\xa2\\x84\\xe5\\x94\\xae\\xe5\\x8a\\x9f\\xe8\\x83\\xbd\\xe8\\xae\\xbe\\xe7\\xbd\\xae/Day13-PreOrderToken.sol\":2644:2654  msg.sender */\n      caller\n        /* \"submissions/iCat798/13-\\xe9\\xa2\\x84\\xe5\\x94\\xae\\xe5\\x8a\\x9f\\xe8\\x83\\xbd\\xe8\\xae\\xbe\\xe7\\xbd\\xae/Day13-PreOrderToken.sol\":2644:2670  msg.sender == projectOwner */\n      0xffffffffffffffffffffffffffffffffffffffff\n      and\n      eq\n        /* \"submissions/iCat798/13-\\xe9\\xa2\\x84\\xe5\\x94\\xae\\xe5\\x8a\\x9f\\xe8\\x83\\xbd\\xe8\\xae\\xbe\\xe7\\xbd\\xae/Day13-PreOrderToken.sol\":2636:2708  require(msg.sender == projectOwner, \"Only owner can call this function\") */\n      tag_175\n      jumpi\n      mload(0x40)\n      0x08c379a000000000000000000000000000000000000000000000000000000000\n      dup2\n      mstore\n      0x04\n      add\n      tag_176\n      swap1\n      tag_177\n      jump\t// in\n    tag_176:\n      mload(0x40)\n      dup1\n      swap2\n      sub\n      swap1\n      revert\n    tag_175:\n        /* \"submissions/iCat798/13-\\xe9\\xa2\\x84\\xe5\\x94\\xae\\xe5\\x8a\\x9f\\xe8\\x83\\xbd\\xe8\\xae\\xbe\\xe7\\xbd\\xae/Day13-PreOrderToken.sol\":2728:2737  finalized */\n      0x0c\n      0x14\n      swap1\n      sload\n      swap1\n      0x0100\n      exp\n      swap1\n      div\n      0xff\n      and\n        /* \"submissions/iCat798/13-\\xe9\\xa2\\x84\\xe5\\x94\\xae\\xe5\\x8a\\x9f\\xe8\\x83\\xbd\\xe8\\xae\\xbe\\xe7\\xbd\\xae/Day13-PreOrderToken.sol\":2727:2737  !finalized */\n      iszero\n        /* \"submissions/iCat798/13-\\xe9\\xa2\\x84\\xe5\\x94\\xae\\xe5\\x8a\\x9f\\xe8\\x83\\xbd\\xe8\\xae\\xbe\\xe7\\xbd\\xae/Day13-PreOrderToken.sol\":2719:2766  require(!finalized,\"Sale is already finalized\") */\n      tag_178\n      jumpi\n      mload(0x40)\n      0x08c379a000000000000000000000000000000000000000000000000000000000\n      dup2\n      mstore\n      0x04\n      add\n      tag_179\n      swap1\n      tag_180\n      jump\t// in\n    tag_179:\n      mload(0x40)\n      dup1\n      swap2\n      sub\n      swap1\n      revert\n    tag_178:\n        /* \"submissions/iCat798/13-\\xe9\\xa2\\x84\\xe5\\x94\\xae\\xe5\\x8a\\x9f\\xe8\\x83\\xbd\\xe8\\xae\\xbe\\xe7\\xbd\\xae/Day13-PreOrderToken.sol\":2804:2815  saleEndTime */\n      sload(0x08)\n        /* \"submissions/iCat798/13-\\xe9\\xa2\\x84\\xe5\\x94\\xae\\xe5\\x8a\\x9f\\xe8\\x83\\xbd\\xe8\\xae\\xbe\\xe7\\xbd\\xae/Day13-PreOrderToken.sol\":2786:2801  block.timestamp */\n      timestamp\n        /* \"submissions/iCat798/13-\\xe9\\xa2\\x84\\xe5\\x94\\xae\\xe5\\x8a\\x9f\\xe8\\x83\\xbd\\xe8\\xae\\xbe\\xe7\\xbd\\xae/Day13-PreOrderToken.sol\":2786:2815  block.timestamp > saleEndTime */\n      gt\n        /* \"submissions/iCat798/13-\\xe9\\xa2\\x84\\xe5\\x94\\xae\\xe5\\x8a\\x9f\\xe8\\x83\\xbd\\xe8\\xae\\xbe\\xe7\\xbd\\xae/Day13-PreOrderToken.sol\":2777:2841  require (block.timestamp > saleEndTime, \"Sale not finished yet\") */\n      tag_181\n      jumpi\n      mload(0x40)\n      0x08c379a000000000000000000000000000000000000000000000000000000000\n      dup2\n      mstore\n      0x04\n      add\n      tag_182\n      swap1\n      tag_183\n      jump\t// in\n    tag_182:\n      mload(0x40)\n      dup1\n      swap2\n      sub\n      swap1\n      revert\n    tag_181:\n        /* \"submissions/iCat798/13-\\xe9\\xa2\\x84\\xe5\\x94\\xae\\xe5\\x8a\\x9f\\xe8\\x83\\xbd\\xe8\\xae\\xbe\\xe7\\xbd\\xae/Day13-PreOrderToken.sol\":2864:2868  true */\n      0x01\n        /* \"submissions/iCat798/13-\\xe9\\xa2\\x84\\xe5\\x94\\xae\\xe5\\x8a\\x9f\\xe8\\x83\\xbd\\xe8\\xae\\xbe\\xe7\\xbd\\xae/Day13-PreOrderToken.sol\":2852:2861  finalized */\n      0x0c\n      0x14\n        /* \"submissions/iCat798/13-\\xe9\\xa2\\x84\\xe5\\x94\\xae\\xe5\\x8a\\x9f\\xe8\\x83\\xbd\\xe8\\xae\\xbe\\xe7\\xbd\\xae/Day13-PreOrderToken.sol\":2852:2868  finalized = true */\n      0x0100\n      exp\n      dup2\n      sload\n      dup2\n      0xff\n      mul\n      not\n      and\n      swap1\n      dup4\n      iszero\n      iszero\n      mul\n      or\n      swap1\n      sstore\n      pop\n        /* \"submissions/iCat798/13-\\xe9\\xa2\\x84\\xe5\\x94\\xae\\xe5\\x8a\\x9f\\xe8\\x83\\xbd\\xe8\\xae\\xbe\\xe7\\xbd\\xae/Day13-PreOrderToken.sol\":2879:2897  uint256 tokensSold */\n      0x00\n        /* \"submissions/iCat798/13-\\xe9\\xa2\\x84\\xe5\\x94\\xae\\xe5\\x8a\\x9f\\xe8\\x83\\xbd\\xe8\\xae\\xbe\\xe7\\xbd\\xae/Day13-PreOrderToken.sol\":2914:2923  balanceOf */\n      0x04\n        /* \"submissions/iCat798/13-\\xe9\\xa2\\x84\\xe5\\x94\\xae\\xe5\\x8a\\x9f\\xe8\\x83\\xbd\\xe8\\xae\\xbe\\xe7\\xbd\\xae/Day13-PreOrderToken.sol\":2914:2938  balanceOf[address(this)] */\n      0x00\n        /* \"submissions/iCat798/13-\\xe9\\xa2\\x84\\xe5\\x94\\xae\\xe5\\x8a\\x9f\\xe8\\x83\\xbd\\xe8\\xae\\xbe\\xe7\\xbd\\xae/Day13-PreOrderToken.sol\":2932:2936  this */\n      address\n        /* \"submissions/iCat798/13-\\xe9\\xa2\\x84\\xe5\\x94\\xae\\xe5\\x8a\\x9f\\xe8\\x83\\xbd\\xe8\\xae\\xbe\\xe7\\xbd\\xae/Day13-PreOrderToken.sol\":2914:2938  balanceOf[address(this)] */\n      0xffffffffffffffffffffffffffffffffffffffff\n      and\n      0xffffffffffffffffffffffffffffffffffffffff\n      and\n      dup2\n      mstore\n      0x20\n      add\n      swap1\n      dup2\n      mstore\n      0x20\n      add\n      0x00\n      keccak256\n      sload\n        /* \"submissions/iCat798/13-\\xe9\\xa2\\x84\\xe5\\x94\\xae\\xe5\\x8a\\x9f\\xe8\\x83\\xbd\\xe8\\xae\\xbe\\xe7\\xbd\\xae/Day13-PreOrderToken.sol\":2900:2911  totalSupply */\n      sload(0x03)\n        /* \"submissions/iCat798/13-\\xe9\\xa2\\x84\\xe5\\x94\\xae\\xe5\\x8a\\x9f\\xe8\\x83\\xbd\\xe8\\xae\\xbe\\xe7\\xbd\\xae/Day13-PreOrderToken.sol\":2900:2938  totalSupply - balanceOf[address(this)] */\n      tag_184\n      swap2\n      swap1\n      tag_185\n      jump\t// in\n    tag_184:\n        /* \"submissions/iCat798/13-\\xe9\\xa2\\x84\\xe5\\x94\\xae\\xe5\\x8a\\x9f\\xe8\\x83\\xbd\\xe8\\xae\\xbe\\xe7\\xbd\\xae/Day13-PreOrderToken.sol\":2879:2938  uint256 tokensSold = totalSupply - balanceOf[address(this)] */\n      swap1\n      pop\n        /* \"submissions/iCat798/13-\\xe9\\xa2\\x84\\xe5\\x94\\xae\\xe5\\x8a\\x9f\\xe8\\x83\\xbd\\xe8\\xae\\xbe\\xe7\\xbd\\xae/Day13-PreOrderToken.sol\":2950:2961  bool sucess */\n      0x00\n        /* \"submissions/iCat798/13-\\xe9\\xa2\\x84\\xe5\\x94\\xae\\xe5\\x8a\\x9f\\xe8\\x83\\xbd\\xe8\\xae\\xbe\\xe7\\xbd\\xae/Day13-PreOrderToken.sol\":2966:2978  projectOwner */\n      0x0c\n      0x00\n      swap1\n      sload\n      swap1\n      0x0100\n      exp\n      swap1\n      div\n      0xffffffffffffffffffffffffffffffffffffffff\n      and\n        /* \"submissions/iCat798/13-\\xe9\\xa2\\x84\\xe5\\x94\\xae\\xe5\\x8a\\x9f\\xe8\\x83\\xbd\\xe8\\xae\\xbe\\xe7\\xbd\\xae/Day13-PreOrderToken.sol\":2966:2983  projectOwner.call */\n      0xffffffffffffffffffffffffffffffffffffffff\n      and\n        /* \"submissions/iCat798/13-\\xe9\\xa2\\x84\\xe5\\x94\\xae\\xe5\\x8a\\x9f\\xe8\\x83\\xbd\\xe8\\xae\\xbe\\xe7\\xbd\\xae/Day13-PreOrderToken.sol\":2992:3013  address(this).balance */\n      selfbalance\n        /* \"submissions/iCat798/13-\\xe9\\xa2\\x84\\xe5\\x94\\xae\\xe5\\x8a\\x9f\\xe8\\x83\\xbd\\xe8\\xae\\xbe\\xe7\\xbd\\xae/Day13-PreOrderToken.sol\":2966:3018  projectOwner.call{value:  address(this).balance}(\"\") */\n      mload(0x40)\n      tag_186\n      swap1\n      tag_187\n      jump\t// in\n    tag_186:\n      0x00\n      mload(0x40)\n      dup1\n      dup4\n      sub\n      dup2\n      dup6\n      dup8\n      gas\n      call\n      swap3\n      pop\n      pop\n      pop\n      returndatasize\n      dup1\n      0x00\n      dup2\n      eq\n      tag_190\n      jumpi\n      mload(0x40)\n      swap2\n      pop\n      and(add(returndatasize, 0x3f), not(0x1f))\n      dup3\n      add\n      0x40\n      mstore\n      returndatasize\n      dup3\n      mstore\n      returndatasize\n      0x00\n      0x20\n      dup5\n      add\n      returndatacopy\n      jump(tag_189)\n    tag_190:\n      0x60\n      swap2\n      pop\n    tag_189:\n      pop\n        /* \"submissions/iCat798/13-\\xe9\\xa2\\x84\\xe5\\x94\\xae\\xe5\\x8a\\x9f\\xe8\\x83\\xbd\\xe8\\xae\\xbe\\xe7\\xbd\\xae/Day13-PreOrderToken.sol\":2949:3018  (bool sucess,) = projectOwner.call{value:  address(this).balance}(\"\") */\n      pop\n      swap1\n      pop\n        /* \"submissions/iCat798/13-\\xe9\\xa2\\x84\\xe5\\x94\\xae\\xe5\\x8a\\x9f\\xe8\\x83\\xbd\\xe8\\xae\\xbe\\xe7\\xbd\\xae/Day13-PreOrderToken.sol\":3037:3043  sucess */\n      dup1\n        /* \"submissions/iCat798/13-\\xe9\\xa2\\x84\\xe5\\x94\\xae\\xe5\\x8a\\x9f\\xe8\\x83\\xbd\\xe8\\xae\\xbe\\xe7\\xbd\\xae/Day13-PreOrderToken.sol\":3029:3063  require(sucess, \"Transfer failed\") */\n      tag_191\n      jumpi\n      mload(0x40)\n      0x08c379a000000000000000000000000000000000000000000000000000000000\n      dup2\n      mstore\n      0x04\n      add\n      tag_192\n      swap1\n      tag_193\n      jump\t// in\n    tag_192:\n      mload(0x40)\n      dup1\n      swap2\n      sub\n      swap1\n      revert\n    tag_191:\n        /* \"submissions/iCat798/13-\\xe9\\xa2\\x84\\xe5\\x94\\xae\\xe5\\x8a\\x9f\\xe8\\x83\\xbd\\xe8\\xae\\xbe\\xe7\\xbd\\xae/Day13-PreOrderToken.sol\":3079:3117  SaleFinalized(totalRaised, tokensSold) */\n      0x17b1a568460bc127a7f9a9677d502ac593fa4af690a1c3aed38bda591e196e2e\n        /* \"submissions/iCat798/13-\\xe9\\xa2\\x84\\xe5\\x94\\xae\\xe5\\x8a\\x9f\\xe8\\x83\\xbd\\xe8\\xae\\xbe\\xe7\\xbd\\xae/Day13-PreOrderToken.sol\":3093:3104  totalRaised */\n      sload(0x0b)\n        /* \"submissions/iCat798/13-\\xe9\\xa2\\x84\\xe5\\x94\\xae\\xe5\\x8a\\x9f\\xe8\\x83\\xbd\\xe8\\xae\\xbe\\xe7\\xbd\\xae/Day13-PreOrderToken.sol\":3106:3116  tokensSold */\n      dup4\n        /* \"submissions/iCat798/13-\\xe9\\xa2\\x84\\xe5\\x94\\xae\\xe5\\x8a\\x9f\\xe8\\x83\\xbd\\xe8\\xae\\xbe\\xe7\\xbd\\xae/Day13-PreOrderToken.sol\":3079:3117  SaleFinalized(totalRaised, tokensSold) */\n      mload(0x40)\n      tag_194\n      swap3\n      swap2\n      swap1\n      tag_154\n      jump\t// in\n    tag_194:\n      mload(0x40)\n      dup1\n      swap2\n      sub\n      swap1\n      log1\n        /* \"submissions/iCat798/13-\\xe9\\xa2\\x84\\xe5\\x94\\xae\\xe5\\x8a\\x9f\\xe8\\x83\\xbd\\xe8\\xae\\xbe\\xe7\\xbd\\xae/Day13-PreOrderToken.sol\":2625:3125  {... */\n      pop\n      pop\n        /* \"submissions/iCat798/13-\\xe9\\xa2\\x84\\xe5\\x94\\xae\\xe5\\x8a\\x9f\\xe8\\x83\\xbd\\xe8\\xae\\xbe\\xe7\\xbd\\xae/Day13-PreOrderToken.sol\":2587:3125  function finalizeSale() public payable{... */\n      jump\t// out\n        /* \"submissions/iCat798/13-\\xe9\\xa2\\x84\\xe5\\x94\\xae\\xe5\\x8a\\x9f\\xe8\\x83\\xbd\\xe8\\xae\\xbe\\xe7\\xbd\\xae/Day13-PreOrderToken.sol\":3331:3435  function tokensAvailable()public view returns(uint256){... */\n    tag_76:\n        /* \"submissions/iCat798/13-\\xe9\\xa2\\x84\\xe5\\x94\\xae\\xe5\\x8a\\x9f\\xe8\\x83\\xbd\\xe8\\xae\\xbe\\xe7\\xbd\\xae/Day13-PreOrderToken.sol\":3377:3384  uint256 */\n      0x00\n        /* \"submissions/iCat798/13-\\xe9\\xa2\\x84\\xe5\\x94\\xae\\xe5\\x8a\\x9f\\xe8\\x83\\xbd\\xe8\\xae\\xbe\\xe7\\xbd\\xae/Day13-PreOrderToken.sol\":3403:3412  balanceOf */\n      0x04\n        /* \"submissions/iCat798/13-\\xe9\\xa2\\x84\\xe5\\x94\\xae\\xe5\\x8a\\x9f\\xe8\\x83\\xbd\\xe8\\xae\\xbe\\xe7\\xbd\\xae/Day13-PreOrderToken.sol\":3403:3427  balanceOf[address(this)] */\n      0x00\n        /* \"submissions/iCat798/13-\\xe9\\xa2\\x84\\xe5\\x94\\xae\\xe5\\x8a\\x9f\\xe8\\x83\\xbd\\xe8\\xae\\xbe\\xe7\\xbd\\xae/Day13-PreOrderToken.sol\":3421:3425  this */\n      address\n        /* \"submissions/iCat798/13-\\xe9\\xa2\\x84\\xe5\\x94\\xae\\xe5\\x8a\\x9f\\xe8\\x83\\xbd\\xe8\\xae\\xbe\\xe7\\xbd\\xae/Day13-PreOrderToken.sol\":3403:3427  balanceOf[address(this)] */\n      0xffffffffffffffffffffffffffffffffffffffff\n      and\n      0xffffffffffffffffffffffffffffffffffffffff\n      and\n      dup2\n      mstore\n      0x20\n      add\n      swap1\n      dup2\n      mstore\n      0x20\n      add\n      0x00\n      keccak256\n      sload\n        /* \"submissions/iCat798/13-\\xe9\\xa2\\x84\\xe5\\x94\\xae\\xe5\\x8a\\x9f\\xe8\\x83\\xbd\\xe8\\xae\\xbe\\xe7\\xbd\\xae/Day13-PreOrderToken.sol\":3396:3427  return balanceOf[address(this)] */\n      swap1\n      pop\n        /* \"submissions/iCat798/13-\\xe9\\xa2\\x84\\xe5\\x94\\xae\\xe5\\x8a\\x9f\\xe8\\x83\\xbd\\xe8\\xae\\xbe\\xe7\\xbd\\xae/Day13-PreOrderToken.sol\":3331:3435  function tokensAvailable()public view returns(uint256){... */\n      swap1\n      jump\t// out\n        /* \"submissions/iCat798/13-\\xe9\\xa2\\x84\\xe5\\x94\\xae\\xe5\\x8a\\x9f\\xe8\\x83\\xbd\\xe8\\xae\\xbe\\xe7\\xbd\\xae/MyToken.sol\":233:277  mapping(address => uint256) public balanceOf */\n    tag_82:\n      mstore(0x20, 0x04)\n      dup1\n      0x00\n      mstore\n      keccak256(0x00, 0x40)\n      0x00\n      swap2\n      pop\n      swap1\n      pop\n      sload\n      dup2\n      jump\t// out\n        /* \"submissions/iCat798/13-\\xe9\\xa2\\x84\\xe5\\x94\\xae\\xe5\\x8a\\x9f\\xe8\\x83\\xbd\\xe8\\xae\\xbe\\xe7\\xbd\\xae/Day13-PreOrderToken.sol\":129:154  uint256 public tokenPrice */\n    tag_86:\n      sload(0x06)\n      dup2\n      jump\t// out\n        /* \"submissions/iCat798/13-\\xe9\\xa2\\x84\\xe5\\x94\\xae\\xe5\\x8a\\x9f\\xe8\\x83\\xbd\\xe8\\xae\\xbe\\xe7\\xbd\\xae/MyToken.sol\":130:158  string public symbol = \"WBT\" */\n    tag_90:\n      0x01\n      dup1\n      sload\n      tag_196\n      swap1\n      tag_156\n      jump\t// in\n    tag_196:\n      dup1\n      0x1f\n      add\n      0x20\n      dup1\n      swap2\n      div\n      mul\n      0x20\n      add\n      mload(0x40)\n      swap1\n      dup2\n      add\n      0x40\n      mstore\n      dup1\n      swap3\n      swap2\n      swap1\n      dup2\n      dup2\n      mstore\n      0x20\n      add\n      dup3\n      dup1\n      sload\n      tag_197\n      swap1\n      tag_156\n      jump\t// in\n    tag_197:\n      dup1\n      iszero\n      tag_198\n      jumpi\n      dup1\n      0x1f\n      lt\n      tag_199\n      jumpi\n      0x0100\n      dup1\n      dup4\n      sload\n      div\n      mul\n      dup4\n      mstore\n      swap2\n      0x20\n      add\n      swap2\n      jump(tag_198)\n    tag_199:\n      dup3\n      add\n      swap2\n      swap1\n      0x00\n      mstore\n      keccak256(0x00, 0x20)\n      swap1\n    tag_200:\n      dup2\n      sload\n      dup2\n      mstore\n      swap1\n      0x01\n      add\n      swap1\n      0x20\n      add\n      dup1\n      dup4\n      gt\n      tag_200\n      jumpi\n      dup3\n      swap1\n      sub\n      0x1f\n      and\n      dup3\n      add\n      swap2\n    tag_198:\n      pop\n      pop\n      pop\n      pop\n      pop\n      dup2\n      jump\t// out\n        /* \"submissions/iCat798/13-\\xe9\\xa2\\x84\\xe5\\x94\\xae\\xe5\\x8a\\x9f\\xe8\\x83\\xbd\\xe8\\xae\\xbe\\xe7\\xbd\\xae/Day13-PreOrderToken.sol\":262:288  uint256 public maxPurchase */\n    tag_94:\n      sload(0x0a)\n      dup2\n      jump\t// out\n        /* \"submissions/iCat798/13-\\xe9\\xa2\\x84\\xe5\\x94\\xae\\xe5\\x8a\\x9f\\xe8\\x83\\xbd\\xe8\\xae\\xbe\\xe7\\xbd\\xae/Day13-PreOrderToken.sol\":328:355  address public projectOwner */\n    tag_98:\n      0x0c\n      0x00\n      swap1\n      sload\n      swap1\n      0x0100\n      exp\n      swap1\n      div\n      0xffffffffffffffffffffffffffffffffffffffff\n      and\n      dup2\n      jump\t// out\n        /* \"submissions/iCat798/13-\\xe9\\xa2\\x84\\xe5\\x94\\xae\\xe5\\x8a\\x9f\\xe8\\x83\\xbd\\xe8\\xae\\xbe\\xe7\\xbd\\xae/Day13-PreOrderToken.sol\":1983:2277  function transfer(address _to, uint256 _value)public override returns(bool){... */\n    tag_104:\n        /* \"submissions/iCat798/13-\\xe9\\xa2\\x84\\xe5\\x94\\xae\\xe5\\x8a\\x9f\\xe8\\x83\\xbd\\xe8\\xae\\xbe\\xe7\\xbd\\xae/Day13-PreOrderToken.sol\":2053:2057  bool */\n      0x00\n        /* \"submissions/iCat798/13-\\xe9\\xa2\\x84\\xe5\\x94\\xae\\xe5\\x8a\\x9f\\xe8\\x83\\xbd\\xe8\\xae\\xbe\\xe7\\xbd\\xae/Day13-PreOrderToken.sol\":2073:2082  finalized */\n      0x0c\n      0x14\n      swap1\n      sload\n      swap1\n      0x0100\n      exp\n      swap1\n      div\n      0xff\n      and\n        /* \"submissions/iCat798/13-\\xe9\\xa2\\x84\\xe5\\x94\\xae\\xe5\\x8a\\x9f\\xe8\\x83\\xbd\\xe8\\xae\\xbe\\xe7\\xbd\\xae/Day13-PreOrderToken.sol\":2072:2082  !finalized */\n      iszero\n        /* \"submissions/iCat798/13-\\xe9\\xa2\\x84\\xe5\\x94\\xae\\xe5\\x8a\\x9f\\xe8\\x83\\xbd\\xe8\\xae\\xbe\\xe7\\xbd\\xae/Day13-PreOrderToken.sol\":2072:2113  !finalized && msg.sender != address(this) */\n      dup1\n      iszero\n      tag_202\n      jumpi\n      pop\n        /* \"submissions/iCat798/13-\\xe9\\xa2\\x84\\xe5\\x94\\xae\\xe5\\x8a\\x9f\\xe8\\x83\\xbd\\xe8\\xae\\xbe\\xe7\\xbd\\xae/Day13-PreOrderToken.sol\":2108:2112  this */\n      address\n        /* \"submissions/iCat798/13-\\xe9\\xa2\\x84\\xe5\\x94\\xae\\xe5\\x8a\\x9f\\xe8\\x83\\xbd\\xe8\\xae\\xbe\\xe7\\xbd\\xae/Day13-PreOrderToken.sol\":2086:2113  msg.sender != address(this) */\n      0xffffffffffffffffffffffffffffffffffffffff\n      and\n        /* \"submissions/iCat798/13-\\xe9\\xa2\\x84\\xe5\\x94\\xae\\xe5\\x8a\\x9f\\xe8\\x83\\xbd\\xe8\\xae\\xbe\\xe7\\xbd\\xae/Day13-PreOrderToken.sol\":2086:2096  msg.sender */\n      caller\n        /* \"submissions/iCat798/13-\\xe9\\xa2\\x84\\xe5\\x94\\xae\\xe5\\x8a\\x9f\\xe8\\x83\\xbd\\xe8\\xae\\xbe\\xe7\\xbd\\xae/Day13-PreOrderToken.sol\":2086:2113  msg.sender != address(this) */\n      0xffffffffffffffffffffffffffffffffffffffff\n      and\n      eq\n      iszero\n        /* \"submissions/iCat798/13-\\xe9\\xa2\\x84\\xe5\\x94\\xae\\xe5\\x8a\\x9f\\xe8\\x83\\xbd\\xe8\\xae\\xbe\\xe7\\xbd\\xae/Day13-PreOrderToken.sol\":2072:2113  !finalized && msg.sender != address(this) */\n    tag_202:\n        /* \"submissions/iCat798/13-\\xe9\\xa2\\x84\\xe5\\x94\\xae\\xe5\\x8a\\x9f\\xe8\\x83\\xbd\\xe8\\xae\\xbe\\xe7\\xbd\\xae/Day13-PreOrderToken.sol\":2072:2136  !finalized && msg.sender != address(this) && initialTransferDone */\n      dup1\n      iszero\n      tag_203\n      jumpi\n      pop\n        /* \"submissions/iCat798/13-\\xe9\\xa2\\x84\\xe5\\x94\\xae\\xe5\\x8a\\x9f\\xe8\\x83\\xbd\\xe8\\xae\\xbe\\xe7\\xbd\\xae/Day13-PreOrderToken.sol\":2117:2136  initialTransferDone */\n      0x0c\n      0x15\n      swap1\n      sload\n      swap1\n      0x0100\n      exp\n      swap1\n      div\n      0xff\n      and\n        /* \"submissions/iCat798/13-\\xe9\\xa2\\x84\\xe5\\x94\\xae\\xe5\\x8a\\x9f\\xe8\\x83\\xbd\\xe8\\xae\\xbe\\xe7\\xbd\\xae/Day13-PreOrderToken.sol\":2072:2136  !finalized && msg.sender != address(this) && initialTransferDone */\n    tag_203:\n        /* \"submissions/iCat798/13-\\xe9\\xa2\\x84\\xe5\\x94\\xae\\xe5\\x8a\\x9f\\xe8\\x83\\xbd\\xe8\\xae\\xbe\\xe7\\xbd\\xae/Day13-PreOrderToken.sol\":2069:2223  if(!finalized && msg.sender != address(this) && initialTransferDone){... */\n      iszero\n      tag_204\n      jumpi\n        /* \"submissions/iCat798/13-\\xe9\\xa2\\x84\\xe5\\x94\\xae\\xe5\\x8a\\x9f\\xe8\\x83\\xbd\\xe8\\xae\\xbe\\xe7\\xbd\\xae/Day13-PreOrderToken.sol\":2160:2165  false */\n      0x00\n        /* \"submissions/iCat798/13-\\xe9\\xa2\\x84\\xe5\\x94\\xae\\xe5\\x8a\\x9f\\xe8\\x83\\xbd\\xe8\\xae\\xbe\\xe7\\xbd\\xae/Day13-PreOrderToken.sol\":2152:2211  require(false, \"Tokens are locked until sale is finalized\") */\n      tag_205\n      jumpi\n      mload(0x40)\n      0x08c379a000000000000000000000000000000000000000000000000000000000\n      dup2\n      mstore\n      0x04\n      add\n      tag_206\n      swap1\n      tag_168\n      jump\t// in\n    tag_206:\n      mload(0x40)\n      dup1\n      swap2\n      sub\n      swap1\n      revert\n    tag_205:\n        /* \"submissions/iCat798/13-\\xe9\\xa2\\x84\\xe5\\x94\\xae\\xe5\\x8a\\x9f\\xe8\\x83\\xbd\\xe8\\xae\\xbe\\xe7\\xbd\\xae/Day13-PreOrderToken.sol\":2069:2223  if(!finalized && msg.sender != address(this) && initialTransferDone){... */\n    tag_204:\n        /* \"submissions/iCat798/13-\\xe9\\xa2\\x84\\xe5\\x94\\xae\\xe5\\x8a\\x9f\\xe8\\x83\\xbd\\xe8\\xae\\xbe\\xe7\\xbd\\xae/Day13-PreOrderToken.sol\":2242:2269  super.transfer(_to, _value) */\n      tag_207\n        /* \"submissions/iCat798/13-\\xe9\\xa2\\x84\\xe5\\x94\\xae\\xe5\\x8a\\x9f\\xe8\\x83\\xbd\\xe8\\xae\\xbe\\xe7\\xbd\\xae/Day13-PreOrderToken.sol\":2257:2260  _to */\n      dup4\n        /* \"submissions/iCat798/13-\\xe9\\xa2\\x84\\xe5\\x94\\xae\\xe5\\x8a\\x9f\\xe8\\x83\\xbd\\xe8\\xae\\xbe\\xe7\\xbd\\xae/Day13-PreOrderToken.sol\":2262:2268  _value */\n      dup4\n        /* \"submissions/iCat798/13-\\xe9\\xa2\\x84\\xe5\\x94\\xae\\xe5\\x8a\\x9f\\xe8\\x83\\xbd\\xe8\\xae\\xbe\\xe7\\xbd\\xae/Day13-PreOrderToken.sol\":2242:2256  super.transfer */\n      tag_208\n        /* \"submissions/iCat798/13-\\xe9\\xa2\\x84\\xe5\\x94\\xae\\xe5\\x8a\\x9f\\xe8\\x83\\xbd\\xe8\\xae\\xbe\\xe7\\xbd\\xae/Day13-PreOrderToken.sol\":2242:2269  super.transfer(_to, _value) */\n      jump\t// in\n    tag_207:\n        /* \"submissions/iCat798/13-\\xe9\\xa2\\x84\\xe5\\x94\\xae\\xe5\\x8a\\x9f\\xe8\\x83\\xbd\\xe8\\xae\\xbe\\xe7\\xbd\\xae/Day13-PreOrderToken.sol\":2235:2269  return super.transfer(_to, _value) */\n      swap1\n      pop\n        /* \"submissions/iCat798/13-\\xe9\\xa2\\x84\\xe5\\x94\\xae\\xe5\\x8a\\x9f\\xe8\\x83\\xbd\\xe8\\xae\\xbe\\xe7\\xbd\\xae/Day13-PreOrderToken.sol\":1983:2277  function transfer(address _to, uint256 _value)public override returns(bool){... */\n      swap3\n      swap2\n      pop\n      pop\n      jump\t// out\n        /* \"submissions/iCat798/13-\\xe9\\xa2\\x84\\xe5\\x94\\xae\\xe5\\x8a\\x9f\\xe8\\x83\\xbd\\xe8\\xae\\xbe\\xe7\\xbd\\xae/Day13-PreOrderToken.sol\":362:391  bool public finalized = false */\n    tag_108:\n      0x0c\n      0x14\n      swap1\n      sload\n      swap1\n      0x0100\n      exp\n      swap1\n      div\n      0xff\n      and\n      dup2\n      jump\t// out\n        /* \"submissions/iCat798/13-\\xe9\\xa2\\x84\\xe5\\x94\\xae\\xe5\\x8a\\x9f\\xe8\\x83\\xbd\\xe8\\xae\\xbe\\xe7\\xbd\\xae/Day13-PreOrderToken.sol\":295:321  uint256 public totalRaised */\n    tag_112:\n      sload(0x0b)\n      dup2\n      jump\t// out\n        /* \"submissions/iCat798/13-\\xe9\\xa2\\x84\\xe5\\x94\\xae\\xe5\\x8a\\x9f\\xe8\\x83\\xbd\\xe8\\xae\\xbe\\xe7\\xbd\\xae/MyToken.sol\":284:350  mapping(address => mapping (address  => uint256)) public allowance */\n    tag_119:\n      mstore(0x20, 0x05)\n      dup2\n      0x00\n      mstore\n      mstore(0x20, keccak256(0x00, 0x40))\n      dup1\n      0x00\n      mstore\n      keccak256(0x00, 0x40)\n      0x00\n      swap2\n      pop\n      swap2\n      pop\n      pop\n      sload\n      dup2\n      jump\t// out\n        /* \"submissions/iCat798/13-\\xe9\\xa2\\x84\\xe5\\x94\\xae\\xe5\\x8a\\x9f\\xe8\\x83\\xbd\\xe8\\xae\\xbe\\xe7\\xbd\\xae/Day13-PreOrderToken.sol\":3133:3323  function timeRemaining() public view  returns(uint256){... */\n    tag_123:\n        /* \"submissions/iCat798/13-\\xe9\\xa2\\x84\\xe5\\x94\\xae\\xe5\\x8a\\x9f\\xe8\\x83\\xbd\\xe8\\xae\\xbe\\xe7\\xbd\\xae/Day13-PreOrderToken.sol\":3179:3186  uint256 */\n      0x00\n        /* \"submissions/iCat798/13-\\xe9\\xa2\\x84\\xe5\\x94\\xae\\xe5\\x8a\\x9f\\xe8\\x83\\xbd\\xe8\\xae\\xbe\\xe7\\xbd\\xae/Day13-PreOrderToken.sol\":3220:3231  saleEndTime */\n      sload(0x08)\n        /* \"submissions/iCat798/13-\\xe9\\xa2\\x84\\xe5\\x94\\xae\\xe5\\x8a\\x9f\\xe8\\x83\\xbd\\xe8\\xae\\xbe\\xe7\\xbd\\xae/Day13-PreOrderToken.sol\":3201:3216  block.timestamp */\n      timestamp\n        /* \"submissions/iCat798/13-\\xe9\\xa2\\x84\\xe5\\x94\\xae\\xe5\\x8a\\x9f\\xe8\\x83\\xbd\\xe8\\xae\\xbe\\xe7\\xbd\\xae/Day13-PreOrderToken.sol\":3201:3231  block.timestamp >= saleEndTime */\n      lt\n        /* \"submissions/iCat798/13-\\xe9\\xa2\\x84\\xe5\\x94\\xae\\xe5\\x8a\\x9f\\xe8\\x83\\xbd\\xe8\\xae\\xbe\\xe7\\xbd\\xae/Day13-PreOrderToken.sol\":3198:3267  if(block.timestamp >= saleEndTime){... */\n      tag_210\n      jumpi\n        /* \"submissions/iCat798/13-\\xe9\\xa2\\x84\\xe5\\x94\\xae\\xe5\\x8a\\x9f\\xe8\\x83\\xbd\\xe8\\xae\\xbe\\xe7\\xbd\\xae/Day13-PreOrderToken.sol\":3254:3255  0 */\n      0x00\n        /* \"submissions/iCat798/13-\\xe9\\xa2\\x84\\xe5\\x94\\xae\\xe5\\x8a\\x9f\\xe8\\x83\\xbd\\xe8\\xae\\xbe\\xe7\\xbd\\xae/Day13-PreOrderToken.sol\":3247:3255  return 0 */\n      swap1\n      pop\n      jump(tag_209)\n        /* \"submissions/iCat798/13-\\xe9\\xa2\\x84\\xe5\\x94\\xae\\xe5\\x8a\\x9f\\xe8\\x83\\xbd\\xe8\\xae\\xbe\\xe7\\xbd\\xae/Day13-PreOrderToken.sol\":3198:3267  if(block.timestamp >= saleEndTime){... */\n    tag_210:\n        /* \"submissions/iCat798/13-\\xe9\\xa2\\x84\\xe5\\x94\\xae\\xe5\\x8a\\x9f\\xe8\\x83\\xbd\\xe8\\xae\\xbe\\xe7\\xbd\\xae/Day13-PreOrderToken.sol\":3299:3314  block.timestamp */\n      timestamp\n        /* \"submissions/iCat798/13-\\xe9\\xa2\\x84\\xe5\\x94\\xae\\xe5\\x8a\\x9f\\xe8\\x83\\xbd\\xe8\\xae\\xbe\\xe7\\xbd\\xae/Day13-PreOrderToken.sol\":3285:3296  saleEndTime */\n      sload(0x08)\n        /* \"submissions/iCat798/13-\\xe9\\xa2\\x84\\xe5\\x94\\xae\\xe5\\x8a\\x9f\\xe8\\x83\\xbd\\xe8\\xae\\xbe\\xe7\\xbd\\xae/Day13-PreOrderToken.sol\":3285:3314  saleEndTime - block.timestamp */\n      tag_211\n      swap2\n      swap1\n      tag_185\n      jump\t// in\n    tag_211:\n        /* \"submissions/iCat798/13-\\xe9\\xa2\\x84\\xe5\\x94\\xae\\xe5\\x8a\\x9f\\xe8\\x83\\xbd\\xe8\\xae\\xbe\\xe7\\xbd\\xae/Day13-PreOrderToken.sol\":3277:3315  return (saleEndTime - block.timestamp) */\n      swap1\n      pop\n        /* \"submissions/iCat798/13-\\xe9\\xa2\\x84\\xe5\\x94\\xae\\xe5\\x8a\\x9f\\xe8\\x83\\xbd\\xe8\\xae\\xbe\\xe7\\xbd\\xae/Day13-PreOrderToken.sol\":3133:3323  function timeRemaining() public view  returns(uint256){... */\n    tag_209:\n      swap1\n      jump\t// out\n        /* \"submissions/iCat798/13-\\xe9\\xa2\\x84\\xe5\\x94\\xae\\xe5\\x8a\\x9f\\xe8\\x83\\xbd\\xe8\\xae\\xbe\\xe7\\xbd\\xae/Day13-PreOrderToken.sol\":196:222  uint256 public saleEndTime */\n    tag_127:\n      sload(0x08)\n      dup2\n      jump\t// out\n        /* \"submissions/iCat798/13-\\xe9\\xa2\\x84\\xe5\\x94\\xae\\xe5\\x8a\\x9f\\xe8\\x83\\xbd\\xe8\\xae\\xbe\\xe7\\xbd\\xae/MyToken.sol\":743:1020  function _transfer(address _from, address _to, uint256 _value)internal virtual{... */\n    tag_152:\n        /* \"submissions/iCat798/13-\\xe9\\xa2\\x84\\xe5\\x94\\xae\\xe5\\x8a\\x9f\\xe8\\x83\\xbd\\xe8\\xae\\xbe\\xe7\\xbd\\xae/MyToken.sol\":855:856  0 */\n      0x00\n        /* \"submissions/iCat798/13-\\xe9\\xa2\\x84\\xe5\\x94\\xae\\xe5\\x8a\\x9f\\xe8\\x83\\xbd\\xe8\\xae\\xbe\\xe7\\xbd\\xae/MyToken.sol\":840:857  _to != address(0) */\n      0xffffffffffffffffffffffffffffffffffffffff\n      and\n        /* \"submissions/iCat798/13-\\xe9\\xa2\\x84\\xe5\\x94\\xae\\xe5\\x8a\\x9f\\xe8\\x83\\xbd\\xe8\\xae\\xbe\\xe7\\xbd\\xae/MyToken.sol\":840:843  _to */\n      dup3\n        /* \"submissions/iCat798/13-\\xe9\\xa2\\x84\\xe5\\x94\\xae\\xe5\\x8a\\x9f\\xe8\\x83\\xbd\\xe8\\xae\\xbe\\xe7\\xbd\\xae/MyToken.sol\":840:857  _to != address(0) */\n      0xffffffffffffffffffffffffffffffffffffffff\n      and\n      sub\n        /* \"submissions/iCat798/13-\\xe9\\xa2\\x84\\xe5\\x94\\xae\\xe5\\x8a\\x9f\\xe8\\x83\\xbd\\xe8\\xae\\xbe\\xe7\\xbd\\xae/MyToken.sol\":832:897  require(_to != address(0), \"Cannot transfer to the zero address\") */\n      tag_213\n      jumpi\n      mload(0x40)\n      0x08c379a000000000000000000000000000000000000000000000000000000000\n      dup2\n      mstore\n      0x04\n      add\n      tag_214\n      swap1\n      tag_215\n      jump\t// in\n    tag_214:\n      mload(0x40)\n      dup1\n      swap2\n      sub\n      swap1\n      revert\n    tag_213:\n        /* \"submissions/iCat798/13-\\xe9\\xa2\\x84\\xe5\\x94\\xae\\xe5\\x8a\\x9f\\xe8\\x83\\xbd\\xe8\\xae\\xbe\\xe7\\xbd\\xae/MyToken.sol\":927:933  _value */\n      dup1\n        /* \"submissions/iCat798/13-\\xe9\\xa2\\x84\\xe5\\x94\\xae\\xe5\\x8a\\x9f\\xe8\\x83\\xbd\\xe8\\xae\\xbe\\xe7\\xbd\\xae/MyToken.sol\":908:917  balanceOf */\n      0x04\n        /* \"submissions/iCat798/13-\\xe9\\xa2\\x84\\xe5\\x94\\xae\\xe5\\x8a\\x9f\\xe8\\x83\\xbd\\xe8\\xae\\xbe\\xe7\\xbd\\xae/MyToken.sol\":908:924  balanceOf[_from] */\n      0x00\n        /* \"submissions/iCat798/13-\\xe9\\xa2\\x84\\xe5\\x94\\xae\\xe5\\x8a\\x9f\\xe8\\x83\\xbd\\xe8\\xae\\xbe\\xe7\\xbd\\xae/MyToken.sol\":918:923  _from */\n      dup6\n        /* \"submissions/iCat798/13-\\xe9\\xa2\\x84\\xe5\\x94\\xae\\xe5\\x8a\\x9f\\xe8\\x83\\xbd\\xe8\\xae\\xbe\\xe7\\xbd\\xae/MyToken.sol\":908:924  balanceOf[_from] */\n      0xffffffffffffffffffffffffffffffffffffffff\n      and\n      0xffffffffffffffffffffffffffffffffffffffff\n      and\n      dup2\n      mstore\n      0x20\n      add\n      swap1\n      dup2\n      mstore\n      0x20\n      add\n      0x00\n      keccak256\n      0x00\n        /* \"submissions/iCat798/13-\\xe9\\xa2\\x84\\xe5\\x94\\xae\\xe5\\x8a\\x9f\\xe8\\x83\\xbd\\xe8\\xae\\xbe\\xe7\\xbd\\xae/MyToken.sol\":908:933  balanceOf[_from]-= _value */\n      dup3\n      dup3\n      sload\n      tag_216\n      swap2\n      swap1\n      tag_185\n      jump\t// in\n    tag_216:\n      swap3\n      pop\n      pop\n      dup2\n      swap1\n      sstore\n      pop\n        /* \"submissions/iCat798/13-\\xe9\\xa2\\x84\\xe5\\x94\\xae\\xe5\\x8a\\x9f\\xe8\\x83\\xbd\\xe8\\xae\\xbe\\xe7\\xbd\\xae/MyToken.sol\":962:968  _value */\n      dup1\n        /* \"submissions/iCat798/13-\\xe9\\xa2\\x84\\xe5\\x94\\xae\\xe5\\x8a\\x9f\\xe8\\x83\\xbd\\xe8\\xae\\xbe\\xe7\\xbd\\xae/MyToken.sol\":944:953  balanceOf */\n      0x04\n        /* \"submissions/iCat798/13-\\xe9\\xa2\\x84\\xe5\\x94\\xae\\xe5\\x8a\\x9f\\xe8\\x83\\xbd\\xe8\\xae\\xbe\\xe7\\xbd\\xae/MyToken.sol\":944:958  balanceOf[_to] */\n      0x00\n        /* \"submissions/iCat798/13-\\xe9\\xa2\\x84\\xe5\\x94\\xae\\xe5\\x8a\\x9f\\xe8\\x83\\xbd\\xe8\\xae\\xbe\\xe7\\xbd\\xae/MyToken.sol\":954:957  _to */\n      dup5\n        /* \"submissions/iCat798/13-\\xe9\\xa2\\x84\\xe5\\x94\\xae\\xe5\\x8a\\x9f\\xe8\\x83\\xbd\\xe8\\xae\\xbe\\xe7\\xbd\\xae/MyToken.sol\":944:958  balanceOf[_to] */\n      0xffffffffffffffffffffffffffffffffffffffff\n      and\n      0xffffffffffffffffffffffffffffffffffffffff\n      and\n      dup2\n      mstore\n      0x20\n      add\n      swap1\n      dup2\n      mstore\n      0x20\n      add\n      0x00\n      keccak256\n      0x00\n        /* \"submissions/iCat798/13-\\xe9\\xa2\\x84\\xe5\\x94\\xae\\xe5\\x8a\\x9f\\xe8\\x83\\xbd\\xe8\\xae\\xbe\\xe7\\xbd\\xae/MyToken.sol\":944:968  balanceOf[_to] += _value */\n      dup3\n      dup3\n      sload\n      tag_217\n      swap2\n      swap1\n      tag_150\n      jump\t// in\n    tag_217:\n      swap3\n      pop\n      pop\n      dup2\n      swap1\n      sstore\n      pop\n        /* \"submissions/iCat798/13-\\xe9\\xa2\\x84\\xe5\\x94\\xae\\xe5\\x8a\\x9f\\xe8\\x83\\xbd\\xe8\\xae\\xbe\\xe7\\xbd\\xae/MyToken.sol\":1000:1003  _to */\n      dup2\n        /* \"submissions/iCat798/13-\\xe9\\xa2\\x84\\xe5\\x94\\xae\\xe5\\x8a\\x9f\\xe8\\x83\\xbd\\xe8\\xae\\xbe\\xe7\\xbd\\xae/MyToken.sol\":984:1012  Transfer(_from, _to, _value) */\n      0xffffffffffffffffffffffffffffffffffffffff\n      and\n        /* \"submissions/iCat798/13-\\xe9\\xa2\\x84\\xe5\\x94\\xae\\xe5\\x8a\\x9f\\xe8\\x83\\xbd\\xe8\\xae\\xbe\\xe7\\xbd\\xae/MyToken.sol\":993:998  _from */\n      dup4\n        /* \"submissions/iCat798/13-\\xe9\\xa2\\x84\\xe5\\x94\\xae\\xe5\\x8a\\x9f\\xe8\\x83\\xbd\\xe8\\xae\\xbe\\xe7\\xbd\\xae/MyToken.sol\":984:1012  Transfer(_from, _to, _value) */\n      0xffffffffffffffffffffffffffffffffffffffff\n      and\n      0xddf252ad1be2c89b69c2b068fc378daa952ba7f163c4a11628f55a4df523b3ef\n        /* \"submissions/iCat798/13-\\xe9\\xa2\\x84\\xe5\\x94\\xae\\xe5\\x8a\\x9f\\xe8\\x83\\xbd\\xe8\\xae\\xbe\\xe7\\xbd\\xae/MyToken.sol\":1005:1011  _value */\n      dup4\n        /* \"submissions/iCat798/13-\\xe9\\xa2\\x84\\xe5\\x94\\xae\\xe5\\x8a\\x9f\\xe8\\x83\\xbd\\xe8\\xae\\xbe\\xe7\\xbd\\xae/MyToken.sol\":984:1012  Transfer(_from, _to, _value) */\n      mload(0x40)\n      tag_218\n      swap2\n      swap1\n      tag_48\n      jump\t// in\n    tag_218:\n      mload(0x40)\n      dup1\n      swap2\n      sub\n      swap1\n      log3\n        /* \"submissions/iCat798/13-\\xe9\\xa2\\x84\\xe5\\x94\\xae\\xe5\\x8a\\x9f\\xe8\\x83\\xbd\\xe8\\xae\\xbe\\xe7\\xbd\\xae/MyToken.sol\":743:1020  function _transfer(address _from, address _to, uint256 _value)internal virtual{... */\n      pop\n      pop\n      pop\n      jump\t// out\n        /* \"submissions/iCat798/13-\\xe9\\xa2\\x84\\xe5\\x94\\xae\\xe5\\x8a\\x9f\\xe8\\x83\\xbd\\xe8\\xae\\xbe\\xe7\\xbd\\xae/MyToken.sol\":1274:1636  function transferFrom(address _from, address _to, uint256 _value)public virtual returns(bool){... */\n    tag_170:\n        /* \"submissions/iCat798/13-\\xe9\\xa2\\x84\\xe5\\x94\\xae\\xe5\\x8a\\x9f\\xe8\\x83\\xbd\\xe8\\xae\\xbe\\xe7\\xbd\\xae/MyToken.sol\":1362:1366  bool */\n      0x00\n        /* \"submissions/iCat798/13-\\xe9\\xa2\\x84\\xe5\\x94\\xae\\xe5\\x8a\\x9f\\xe8\\x83\\xbd\\xe8\\xae\\xbe\\xe7\\xbd\\xae/MyToken.sol\":1406:1412  _value */\n      dup2\n        /* \"submissions/iCat798/13-\\xe9\\xa2\\x84\\xe5\\x94\\xae\\xe5\\x8a\\x9f\\xe8\\x83\\xbd\\xe8\\xae\\xbe\\xe7\\xbd\\xae/MyToken.sol\":1386:1395  balanceOf */\n      0x04\n        /* \"submissions/iCat798/13-\\xe9\\xa2\\x84\\xe5\\x94\\xae\\xe5\\x8a\\x9f\\xe8\\x83\\xbd\\xe8\\xae\\xbe\\xe7\\xbd\\xae/MyToken.sol\":1386:1402  balanceOf[_from] */\n      0x00\n        /* \"submissions/iCat798/13-\\xe9\\xa2\\x84\\xe5\\x94\\xae\\xe5\\x8a\\x9f\\xe8\\x83\\xbd\\xe8\\xae\\xbe\\xe7\\xbd\\xae/MyToken.sol\":1396:1401  _from */\n      dup7\n        /* \"submissions/iCat798/13-\\xe9\\xa2\\x84\\xe5\\x94\\xae\\xe5\\x8a\\x9f\\xe8\\x83\\xbd\\xe8\\xae\\xbe\\xe7\\xbd\\xae/MyToken.sol\":1386:1402  balanceOf[_from] */\n      0xffffffffffffffffffffffffffffffffffffffff\n      and\n      0xffffffffffffffffffffffffffffffffffffffff\n      and\n      dup2\n      mstore\n      0x20\n      add\n      swap1\n      dup2\n      mstore\n      0x20\n      add\n      0x00\n      keccak256\n      sload\n        /* \"submissions/iCat798/13-\\xe9\\xa2\\x84\\xe5\\x94\\xae\\xe5\\x8a\\x9f\\xe8\\x83\\xbd\\xe8\\xae\\xbe\\xe7\\xbd\\xae/MyToken.sol\":1386:1412  balanceOf[_from] >= _value */\n      lt\n      iszero\n        /* \"submissions/iCat798/13-\\xe9\\xa2\\x84\\xe5\\x94\\xae\\xe5\\x8a\\x9f\\xe8\\x83\\xbd\\xe8\\xae\\xbe\\xe7\\xbd\\xae/MyToken.sol\":1378:1435  require(balanceOf[_from] >= _value, \"Not enough balance\") */\n      tag_220\n      jumpi\n      mload(0x40)\n      0x08c379a000000000000000000000000000000000000000000000000000000000\n      dup2\n      mstore\n      0x04\n      add\n      tag_221\n      swap1\n      tag_222\n      jump\t// in\n    tag_221:\n      mload(0x40)\n      dup1\n      swap2\n      sub\n      swap1\n      revert\n    tag_220:\n        /* \"submissions/iCat798/13-\\xe9\\xa2\\x84\\xe5\\x94\\xae\\xe5\\x8a\\x9f\\xe8\\x83\\xbd\\xe8\\xae\\xbe\\xe7\\xbd\\xae/MyToken.sol\":1485:1491  _value */\n      dup2\n        /* \"submissions/iCat798/13-\\xe9\\xa2\\x84\\xe5\\x94\\xae\\xe5\\x8a\\x9f\\xe8\\x83\\xbd\\xe8\\xae\\xbe\\xe7\\xbd\\xae/MyToken.sol\":1454:1463  allowance */\n      0x05\n        /* \"submissions/iCat798/13-\\xe9\\xa2\\x84\\xe5\\x94\\xae\\xe5\\x8a\\x9f\\xe8\\x83\\xbd\\xe8\\xae\\xbe\\xe7\\xbd\\xae/MyToken.sol\":1454:1470  allowance[_from] */\n      0x00\n        /* \"submissions/iCat798/13-\\xe9\\xa2\\x84\\xe5\\x94\\xae\\xe5\\x8a\\x9f\\xe8\\x83\\xbd\\xe8\\xae\\xbe\\xe7\\xbd\\xae/MyToken.sol\":1464:1469  _from */\n      dup7\n        /* \"submissions/iCat798/13-\\xe9\\xa2\\x84\\xe5\\x94\\xae\\xe5\\x8a\\x9f\\xe8\\x83\\xbd\\xe8\\xae\\xbe\\xe7\\xbd\\xae/MyToken.sol\":1454:1470  allowance[_from] */\n      0xffffffffffffffffffffffffffffffffffffffff\n      and\n      0xffffffffffffffffffffffffffffffffffffffff\n      and\n      dup2\n      mstore\n      0x20\n      add\n      swap1\n      dup2\n      mstore\n      0x20\n      add\n      0x00\n      keccak256\n        /* \"submissions/iCat798/13-\\xe9\\xa2\\x84\\xe5\\x94\\xae\\xe5\\x8a\\x9f\\xe8\\x83\\xbd\\xe8\\xae\\xbe\\xe7\\xbd\\xae/MyToken.sol\":1454:1482  allowance[_from][msg.sender] */\n      0x00\n        /* \"submissions/iCat798/13-\\xe9\\xa2\\x84\\xe5\\x94\\xae\\xe5\\x8a\\x9f\\xe8\\x83\\xbd\\xe8\\xae\\xbe\\xe7\\xbd\\xae/MyToken.sol\":1471:1481  msg.sender */\n      caller\n        /* \"submissions/iCat798/13-\\xe9\\xa2\\x84\\xe5\\x94\\xae\\xe5\\x8a\\x9f\\xe8\\x83\\xbd\\xe8\\xae\\xbe\\xe7\\xbd\\xae/MyToken.sol\":1454:1482  allowance[_from][msg.sender] */\n      0xffffffffffffffffffffffffffffffffffffffff\n      and\n      0xffffffffffffffffffffffffffffffffffffffff\n      and\n      dup2\n      mstore\n      0x20\n      add\n      swap1\n      dup2\n      mstore\n      0x20\n      add\n      0x00\n      keccak256\n      sload\n        /* \"submissions/iCat798/13-\\xe9\\xa2\\x84\\xe5\\x94\\xae\\xe5\\x8a\\x9f\\xe8\\x83\\xbd\\xe8\\xae\\xbe\\xe7\\xbd\\xae/MyToken.sol\":1454:1491  allowance[_from][msg.sender]>= _value */\n      lt\n      iszero\n        /* \"submissions/iCat798/13-\\xe9\\xa2\\x84\\xe5\\x94\\xae\\xe5\\x8a\\x9f\\xe8\\x83\\xbd\\xe8\\xae\\xbe\\xe7\\xbd\\xae/MyToken.sol\":1446:1516  require(allowance[_from][msg.sender]>= _value, \"Not enough allowence\") */\n      tag_223\n      jumpi\n      mload(0x40)\n      0x08c379a000000000000000000000000000000000000000000000000000000000\n      dup2\n      mstore\n      0x04\n      add\n      tag_224\n      swap1\n      tag_225\n      jump\t// in\n    tag_224:\n      mload(0x40)\n      dup1\n      swap2\n      sub\n      swap1\n      revert\n    tag_223:\n        /* \"submissions/iCat798/13-\\xe9\\xa2\\x84\\xe5\\x94\\xae\\xe5\\x8a\\x9f\\xe8\\x83\\xbd\\xe8\\xae\\xbe\\xe7\\xbd\\xae/MyToken.sol\":1558:1564  _value */\n      dup2\n        /* \"submissions/iCat798/13-\\xe9\\xa2\\x84\\xe5\\x94\\xae\\xe5\\x8a\\x9f\\xe8\\x83\\xbd\\xe8\\xae\\xbe\\xe7\\xbd\\xae/MyToken.sol\":1527:1536  allowance */\n      0x05\n        /* \"submissions/iCat798/13-\\xe9\\xa2\\x84\\xe5\\x94\\xae\\xe5\\x8a\\x9f\\xe8\\x83\\xbd\\xe8\\xae\\xbe\\xe7\\xbd\\xae/MyToken.sol\":1527:1543  allowance[_from] */\n      0x00\n        /* \"submissions/iCat798/13-\\xe9\\xa2\\x84\\xe5\\x94\\xae\\xe5\\x8a\\x9f\\xe8\\x83\\xbd\\xe8\\xae\\xbe\\xe7\\xbd\\xae/MyToken.sol\":1537:1542  _from */\n      dup7\n        /* \"submissions/iCat798/13-\\xe9\\xa2\\x84\\xe5\\x94\\xae\\xe5\\x8a\\x9f\\xe8\\x83\\xbd\\xe8\\xae\\xbe\\xe7\\xbd\\xae/MyToken.sol\":1527:1543  allowance[_from] */\n      0xffffffffffffffffffffffffffffffffffffffff\n      and\n      0xffffffffffffffffffffffffffffffffffffffff\n      and\n      dup2\n      mstore\n      0x20\n      add\n      swap1\n      dup2\n      mstore\n      0x20\n      add\n      0x00\n      keccak256\n        /* \"submissions/iCat798/13-\\xe9\\xa2\\x84\\xe5\\x94\\xae\\xe5\\x8a\\x9f\\xe8\\x83\\xbd\\xe8\\xae\\xbe\\xe7\\xbd\\xae/MyToken.sol\":1527:1555  allowance[_from][msg.sender] */\n      0x00\n        /* \"submissions/iCat798/13-\\xe9\\xa2\\x84\\xe5\\x94\\xae\\xe5\\x8a\\x9f\\xe8\\x83\\xbd\\xe8\\xae\\xbe\\xe7\\xbd\\xae/MyToken.sol\":1544:1554  msg.sender */\n      caller\n        /* \"submissions/iCat798/13-\\xe9\\xa2\\x84\\xe5\\x94\\xae\\xe5\\x8a\\x9f\\xe8\\x83\\xbd\\xe8\\xae\\xbe\\xe7\\xbd\\xae/MyToken.sol\":1527:1555  allowance[_from][msg.sender] */\n      0xffffffffffffffffffffffffffffffffffffffff\n      and\n      0xffffffffffffffffffffffffffffffffffffffff\n      and\n      dup2\n      mstore\n      0x20\n      add\n      swap1\n      dup2\n      mstore\n      0x20\n      add\n      0x00\n      keccak256\n      0x00\n        /* \"submissions/iCat798/13-\\xe9\\xa2\\x84\\xe5\\x94\\xae\\xe5\\x8a\\x9f\\xe8\\x83\\xbd\\xe8\\xae\\xbe\\xe7\\xbd\\xae/MyToken.sol\":1527:1564  allowance[_from][msg.sender]-= _value */\n      dup3\n      dup3\n      sload\n      tag_226\n      swap2\n      swap1\n      tag_185\n      jump\t// in\n    tag_226:\n      swap3\n      pop\n      pop\n      dup2\n      swap1\n      sstore\n      pop\n        /* \"submissions/iCat798/13-\\xe9\\xa2\\x84\\xe5\\x94\\xae\\xe5\\x8a\\x9f\\xe8\\x83\\xbd\\xe8\\xae\\xbe\\xe7\\xbd\\xae/MyToken.sol\":1575:1604  _transfer(_from, _to, _value) */\n      tag_227\n        /* \"submissions/iCat798/13-\\xe9\\xa2\\x84\\xe5\\x94\\xae\\xe5\\x8a\\x9f\\xe8\\x83\\xbd\\xe8\\xae\\xbe\\xe7\\xbd\\xae/MyToken.sol\":1585:1590  _from */\n      dup5\n        /* \"submissions/iCat798/13-\\xe9\\xa2\\x84\\xe5\\x94\\xae\\xe5\\x8a\\x9f\\xe8\\x83\\xbd\\xe8\\xae\\xbe\\xe7\\xbd\\xae/MyToken.sol\":1592:1595  _to */\n      dup5\n        /* \"submissions/iCat798/13-\\xe9\\xa2\\x84\\xe5\\x94\\xae\\xe5\\x8a\\x9f\\xe8\\x83\\xbd\\xe8\\xae\\xbe\\xe7\\xbd\\xae/MyToken.sol\":1597:1603  _value */\n      dup5\n        /* \"submissions/iCat798/13-\\xe9\\xa2\\x84\\xe5\\x94\\xae\\xe5\\x8a\\x9f\\xe8\\x83\\xbd\\xe8\\xae\\xbe\\xe7\\xbd\\xae/MyToken.sol\":1575:1584  _transfer */\n      tag_152\n        /* \"submissions/iCat798/13-\\xe9\\xa2\\x84\\xe5\\x94\\xae\\xe5\\x8a\\x9f\\xe8\\x83\\xbd\\xe8\\xae\\xbe\\xe7\\xbd\\xae/MyToken.sol\":1575:1604  _transfer(_from, _to, _value) */\n      jump\t// in\n    tag_227:\n        /* \"submissions/iCat798/13-\\xe9\\xa2\\x84\\xe5\\x94\\xae\\xe5\\x8a\\x9f\\xe8\\x83\\xbd\\xe8\\xae\\xbe\\xe7\\xbd\\xae/MyToken.sol\":1622:1626  true */\n      0x01\n        /* \"submissions/iCat798/13-\\xe9\\xa2\\x84\\xe5\\x94\\xae\\xe5\\x8a\\x9f\\xe8\\x83\\xbd\\xe8\\xae\\xbe\\xe7\\xbd\\xae/MyToken.sol\":1615:1626  return true */\n      swap1\n      pop\n        /* \"submissions/iCat798/13-\\xe9\\xa2\\x84\\xe5\\x94\\xae\\xe5\\x8a\\x9f\\xe8\\x83\\xbd\\xe8\\xae\\xbe\\xe7\\xbd\\xae/MyToken.sol\":1274:1636  function transferFrom(address _from, address _to, uint256 _value)public virtual returns(bool){... */\n      swap4\n      swap3\n      pop\n      pop\n      pop\n      jump\t// out\n        /* \"submissions/iCat798/13-\\xe9\\xa2\\x84\\xe5\\x94\\xae\\xe5\\x8a\\x9f\\xe8\\x83\\xbd\\xe8\\xae\\xbe\\xe7\\xbd\\xae/MyToken.sol\":1027:1266  function transfer(address _to, uint256 _value)public virtual returns (bool success){ ... */\n    tag_208:\n        /* \"submissions/iCat798/13-\\xe9\\xa2\\x84\\xe5\\x94\\xae\\xe5\\x8a\\x9f\\xe8\\x83\\xbd\\xe8\\xae\\xbe\\xe7\\xbd\\xae/MyToken.sol\":1097:1109  bool success */\n      0x00\n        /* \"submissions/iCat798/13-\\xe9\\xa2\\x84\\xe5\\x94\\xae\\xe5\\x8a\\x9f\\xe8\\x83\\xbd\\xe8\\xae\\xbe\\xe7\\xbd\\xae/MyToken.sol\":1155:1161  _value */\n      dup2\n        /* \"submissions/iCat798/13-\\xe9\\xa2\\x84\\xe5\\x94\\xae\\xe5\\x8a\\x9f\\xe8\\x83\\xbd\\xe8\\xae\\xbe\\xe7\\xbd\\xae/MyToken.sol\":1130:1139  balanceOf */\n      0x04\n        /* \"submissions/iCat798/13-\\xe9\\xa2\\x84\\xe5\\x94\\xae\\xe5\\x8a\\x9f\\xe8\\x83\\xbd\\xe8\\xae\\xbe\\xe7\\xbd\\xae/MyToken.sol\":1130:1151  balanceOf[msg.sender] */\n      0x00\n        /* \"submissions/iCat798/13-\\xe9\\xa2\\x84\\xe5\\x94\\xae\\xe5\\x8a\\x9f\\xe8\\x83\\xbd\\xe8\\xae\\xbe\\xe7\\xbd\\xae/MyToken.sol\":1140:1150  msg.sender */\n      caller\n        /* \"submissions/iCat798/13-\\xe9\\xa2\\x84\\xe5\\x94\\xae\\xe5\\x8a\\x9f\\xe8\\x83\\xbd\\xe8\\xae\\xbe\\xe7\\xbd\\xae/MyToken.sol\":1130:1151  balanceOf[msg.sender] */\n      0xffffffffffffffffffffffffffffffffffffffff\n      and\n      0xffffffffffffffffffffffffffffffffffffffff\n      and\n      dup2\n      mstore\n      0x20\n      add\n      swap1\n      dup2\n      mstore\n      0x20\n      add\n      0x00\n      keccak256\n      sload\n        /* \"submissions/iCat798/13-\\xe9\\xa2\\x84\\xe5\\x94\\xae\\xe5\\x8a\\x9f\\xe8\\x83\\xbd\\xe8\\xae\\xbe\\xe7\\xbd\\xae/MyToken.sol\":1130:1161  balanceOf[msg.sender] >= _value */\n      lt\n      iszero\n        /* \"submissions/iCat798/13-\\xe9\\xa2\\x84\\xe5\\x94\\xae\\xe5\\x8a\\x9f\\xe8\\x83\\xbd\\xe8\\xae\\xbe\\xe7\\xbd\\xae/MyToken.sol\":1122:1185  require(balanceOf[msg.sender] >= _value , \"Not enough balance\") */\n      tag_229\n      jumpi\n      mload(0x40)\n      0x08c379a000000000000000000000000000000000000000000000000000000000\n      dup2\n      mstore\n      0x04\n      add\n      tag_230\n      swap1\n      tag_222\n      jump\t// in\n    tag_230:\n      mload(0x40)\n      dup1\n      swap2\n      sub\n      swap1\n      revert\n    tag_229:\n        /* \"submissions/iCat798/13-\\xe9\\xa2\\x84\\xe5\\x94\\xae\\xe5\\x8a\\x9f\\xe8\\x83\\xbd\\xe8\\xae\\xbe\\xe7\\xbd\\xae/MyToken.sol\":1196:1230  _transfer(msg.sender, _to, _value) */\n      tag_231\n        /* \"submissions/iCat798/13-\\xe9\\xa2\\x84\\xe5\\x94\\xae\\xe5\\x8a\\x9f\\xe8\\x83\\xbd\\xe8\\xae\\xbe\\xe7\\xbd\\xae/MyToken.sol\":1206:1216  msg.sender */\n      caller\n        /* \"submissions/iCat798/13-\\xe9\\xa2\\x84\\xe5\\x94\\xae\\xe5\\x8a\\x9f\\xe8\\x83\\xbd\\xe8\\xae\\xbe\\xe7\\xbd\\xae/MyToken.sol\":1218:1221  _to */\n      dup5\n        /* \"submissions/iCat798/13-\\xe9\\xa2\\x84\\xe5\\x94\\xae\\xe5\\x8a\\x9f\\xe8\\x83\\xbd\\xe8\\xae\\xbe\\xe7\\xbd\\xae/MyToken.sol\":1223:1229  _value */\n      dup5\n        /* \"submissions/iCat798/13-\\xe9\\xa2\\x84\\xe5\\x94\\xae\\xe5\\x8a\\x9f\\xe8\\x83\\xbd\\xe8\\xae\\xbe\\xe7\\xbd\\xae/MyToken.sol\":1196:1205  _transfer */\n      tag_152\n        /* \"submissions/iCat798/13-\\xe9\\xa2\\x84\\xe5\\x94\\xae\\xe5\\x8a\\x9f\\xe8\\x83\\xbd\\xe8\\xae\\xbe\\xe7\\xbd\\xae/MyToken.sol\":1196:1230  _transfer(msg.sender, _to, _value) */\n      jump\t// in\n    tag_231:\n        /* \"submissions/iCat798/13-\\xe9\\xa2\\x84\\xe5\\x94\\xae\\xe5\\x8a\\x9f\\xe8\\x83\\xbd\\xe8\\xae\\xbe\\xe7\\xbd\\xae/MyToken.sol\":1248:1252  true */\n      0x01\n        /* \"submissions/iCat798/13-\\xe9\\xa2\\x84\\xe5\\x94\\xae\\xe5\\x8a\\x9f\\xe8\\x83\\xbd\\xe8\\xae\\xbe\\xe7\\xbd\\xae/MyToken.sol\":1241:1252  return true */\n      swap1\n      pop\n        /* \"submissions/iCat798/13-\\xe9\\xa2\\x84\\xe5\\x94\\xae\\xe5\\x8a\\x9f\\xe8\\x83\\xbd\\xe8\\xae\\xbe\\xe7\\xbd\\xae/MyToken.sol\":1027:1266  function transfer(address _to, uint256 _value)public virtual returns (bool success){ ... */\n      swap3\n      swap2\n      pop\n      pop\n      jump\t// out\n        /* \"#utility.yul\":7:106   */\n    tag_232:\n        /* \"#utility.yul\":59:65   */\n      0x00\n        /* \"#utility.yul\":93:98   */\n      dup2\n        /* \"#utility.yul\":87:99   */\n      mload\n        /* \"#utility.yul\":77:99   */\n      swap1\n      pop\n        /* \"#utility.yul\":7:106   */\n      swap2\n      swap1\n      pop\n      jump\t// out\n        /* \"#utility.yul\":112:281   */\n    tag_233:\n        /* \"#utility.yul\":196:207   */\n      0x00\n        /* \"#utility.yul\":230:236   */\n      dup3\n        /* \"#utility.yul\":225:228   */\n      dup3\n        /* \"#utility.yul\":218:237   */\n      mstore\n        /* \"#utility.yul\":270:274   */\n      0x20\n        /* \"#utility.yul\":265:268   */\n      dup3\n        /* \"#utility.yul\":261:275   */\n      add\n        /* \"#utility.yul\":246:275   */\n      swap1\n      pop\n        /* \"#utility.yul\":112:281   */\n      swap3\n      swap2\n      pop\n      pop\n      jump\t// out\n        /* \"#utility.yul\":287:426   */\n    tag_234:\n        /* \"#utility.yul\":376:382   */\n      dup3\n        /* \"#utility.yul\":371:374   */\n      dup2\n        /* \"#utility.yul\":366:369   */\n      dup4\n        /* \"#utility.yul\":360:383   */\n      mcopy\n        /* \"#utility.yul\":417:418   */\n      0x00\n        /* \"#utility.yul\":408:414   */\n      dup4\n        /* \"#utility.yul\":403:406   */\n      dup4\n        /* \"#utility.yul\":399:415   */\n      add\n        /* \"#utility.yul\":392:419   */\n      mstore\n        /* \"#utility.yul\":287:426   */\n      pop\n      pop\n      pop\n      jump\t// out\n        /* \"#utility.yul\":432:534   */\n    tag_235:\n        /* \"#utility.yul\":473:479   */\n      0x00\n        /* \"#utility.yul\":524:526   */\n      0x1f\n        /* \"#utility.yul\":520:527   */\n      not\n        /* \"#utility.yul\":515:517   */\n      0x1f\n        /* \"#utility.yul\":508:513   */\n      dup4\n        /* \"#utility.yul\":504:518   */\n      add\n        /* \"#utility.yul\":500:528   */\n      and\n        /* \"#utility.yul\":490:528   */\n      swap1\n      pop\n        /* \"#utility.yul\":432:534   */\n      swap2\n      swap1\n      pop\n      jump\t// out\n        /* \"#utility.yul\":540:917   */\n    tag_236:\n        /* \"#utility.yul\":628:631   */\n      0x00\n        /* \"#utility.yul\":656:695   */\n      tag_292\n        /* \"#utility.yul\":689:694   */\n      dup3\n        /* \"#utility.yul\":656:695   */\n      tag_232\n      jump\t// in\n    tag_292:\n        /* \"#utility.yul\":711:782   */\n      tag_293\n        /* \"#utility.yul\":775:781   */\n      dup2\n        /* \"#utility.yul\":770:773   */\n      dup6\n        /* \"#utility.yul\":711:782   */\n      tag_233\n      jump\t// in\n    tag_293:\n        /* \"#utility.yul\":704:782   */\n      swap4\n      pop\n        /* \"#utility.yul\":791:856   */\n      tag_294\n        /* \"#utility.yul\":849:855   */\n      dup2\n        /* \"#utility.yul\":844:847   */\n      dup6\n        /* \"#utility.yul\":837:841   */\n      0x20\n        /* \"#utility.yul\":830:835   */\n      dup7\n        /* \"#utility.yul\":826:842   */\n      add\n        /* \"#utility.yul\":791:856   */\n      tag_234\n      jump\t// in\n    tag_294:\n        /* \"#utility.yul\":881:910   */\n      tag_295\n        /* \"#utility.yul\":903:909   */\n      dup2\n        /* \"#utility.yul\":881:910   */\n      tag_235\n      jump\t// in\n    tag_295:\n        /* \"#utility.yul\":876:879   */\n      dup5\n        /* \"#utility.yul\":872:911   */\n      add\n        /* \"#utility.yul\":865:911   */\n      swap2\n      pop\n        /* \"#utility.yul\":632:917   */\n      pop\n        /* \"#utility.yul\":540:917   */\n      swap3\n      swap2\n      pop\n      pop\n      jump\t// out\n        /* \"#utility.yul\":923:1236   */\n    tag_36:\n        /* \"#utility.yul\":1036:1040   */\n      0x00\n        /* \"#utility.yul\":1074:1076   */\n      0x20\n        /* \"#utility.yul\":1063:1072   */\n      dup3\n        /* \"#utility.yul\":1059:1077   */\n      add\n        /* \"#utility.yul\":1051:1077   */\n      swap1\n      pop\n        /* \"#utility.yul\":1123:1132   */\n      dup2\n        /* \"#utility.yul\":1117:1121   */\n      dup2\n        /* \"#utility.yul\":1113:1133   */\n      sub\n        /* \"#utility.yul\":1109:1110   */\n      0x00\n        /* \"#utility.yul\":1098:1107   */\n      dup4\n        /* \"#utility.yul\":1094:1111   */\n      add\n        /* \"#utility.yul\":1087:1134   */\n      mstore\n        /* \"#utility.yul\":1151:1229   */\n      tag_297\n        /* \"#utility.yul\":1224:1228   */\n      dup2\n        /* \"#utility.yul\":1215:1221   */\n      dup5\n        /* \"#utility.yul\":1151:1229   */\n      tag_236\n      jump\t// in\n    tag_297:\n        /* \"#utility.yul\":1143:1229   */\n      swap1\n      pop\n        /* \"#utility.yul\":923:1236   */\n      swap3\n      swap2\n      pop\n      pop\n      jump\t// out\n        /* \"#utility.yul\":1323:1440   */\n    tag_238:\n        /* \"#utility.yul\":1432:1433   */\n      0x00\n        /* \"#utility.yul\":1429:1430   */\n      0x00\n        /* \"#utility.yul\":1422:1434   */\n      revert\n        /* \"#utility.yul\":1569:1695   */\n    tag_240:\n        /* \"#utility.yul\":1606:1613   */\n      0x00\n        /* \"#utility.yul\":1646:1688   */\n      0xffffffffffffffffffffffffffffffffffffffff\n        /* \"#utility.yul\":1639:1644   */\n      dup3\n        /* \"#utility.yul\":1635:1689   */\n      and\n        /* \"#utility.yul\":1624:1689   */\n      swap1\n      pop\n        /* \"#utility.yul\":1569:1695   */\n      swap2\n      swap1\n      pop\n      jump\t// out\n        /* \"#utility.yul\":1701:1797   */\n    tag_241:\n        /* \"#utility.yul\":1738:1745   */\n      0x00\n        /* \"#utility.yul\":1767:1791   */\n      tag_303\n        /* \"#utility.yul\":1785:1790   */\n      dup3\n        /* \"#utility.yul\":1767:1791   */\n      tag_240\n      jump\t// in\n    tag_303:\n        /* \"#utility.yul\":1756:1791   */\n      swap1\n      pop\n        /* \"#utility.yul\":1701:1797   */\n      swap2\n      swap1\n      pop\n      jump\t// out\n        /* \"#utility.yul\":1803:1925   */\n    tag_242:\n        /* \"#utility.yul\":1876:1900   */\n      tag_305\n        /* \"#utility.yul\":1894:1899   */\n      dup2\n        /* \"#utility.yul\":1876:1900   */\n      tag_241\n      jump\t// in\n    tag_305:\n        /* \"#utility.yul\":1869:1874   */\n      dup2\n        /* \"#utility.yul\":1866:1901   */\n      eq\n        /* \"#utility.yul\":1856:1919   */\n      tag_306\n      jumpi\n        /* \"#utility.yul\":1915:1916   */\n      0x00\n        /* \"#utility.yul\":1912:1913   */\n      0x00\n        /* \"#utility.yul\":1905:1917   */\n      revert\n        /* \"#utility.yul\":1856:1919   */\n    tag_306:\n        /* \"#utility.yul\":1803:1925   */\n      pop\n      jump\t// out\n        /* \"#utility.yul\":1931:2070   */\n    tag_243:\n        /* \"#utility.yul\":1977:1982   */\n      0x00\n        /* \"#utility.yul\":2015:2021   */\n      dup2\n        /* \"#utility.yul\":2002:2022   */\n      calldataload\n        /* \"#utility.yul\":1993:2022   */\n      swap1\n      pop\n        /* \"#utility.yul\":2031:2064   */\n      tag_308\n        /* \"#utility.yul\":2058:2063   */\n      dup2\n        /* \"#utility.yul\":2031:2064   */\n      tag_242\n      jump\t// in\n    tag_308:\n        /* \"#utility.yul\":1931:2070   */\n      swap3\n      swap2\n      pop\n      pop\n      jump\t// out\n        /* \"#utility.yul\":2076:2153   */\n    tag_244:\n        /* \"#utility.yul\":2113:2120   */\n      0x00\n        /* \"#utility.yul\":2142:2147   */\n      dup2\n        /* \"#utility.yul\":2131:2147   */\n      swap1\n      pop\n        /* \"#utility.yul\":2076:2153   */\n      swap2\n      swap1\n      pop\n      jump\t// out\n        /* \"#utility.yul\":2159:2281   */\n    tag_245:\n        /* \"#utility.yul\":2232:2256   */\n      tag_311\n        /* \"#utility.yul\":2250:2255   */\n      dup2\n        /* \"#utility.yul\":2232:2256   */\n      tag_244\n      jump\t// in\n    tag_311:\n        /* \"#utility.yul\":2225:2230   */\n      dup2\n        /* \"#utility.yul\":2222:2257   */\n      eq\n        /* \"#utility.yul\":2212:2275   */\n      tag_312\n      jumpi\n        /* \"#utility.yul\":2271:2272   */\n      0x00\n        /* \"#utility.yul\":2268:2269   */\n      0x00\n        /* \"#utility.yul\":2261:2273   */\n      revert\n        /* \"#utility.yul\":2212:2275   */\n    tag_312:\n        /* \"#utility.yul\":2159:2281   */\n      pop\n      jump\t// out\n        /* \"#utility.yul\":2287:2426   */\n    tag_246:\n        /* \"#utility.yul\":2333:2338   */\n      0x00\n        /* \"#utility.yul\":2371:2377   */\n      dup2\n        /* \"#utility.yul\":2358:2378   */\n      calldataload\n        /* \"#utility.yul\":2349:2378   */\n      swap1\n      pop\n        /* \"#utility.yul\":2387:2420   */\n      tag_314\n        /* \"#utility.yul\":2414:2419   */\n      dup2\n        /* \"#utility.yul\":2387:2420   */\n      tag_245\n      jump\t// in\n    tag_314:\n        /* \"#utility.yul\":2287:2426   */\n      swap3\n      swap2\n      pop\n      pop\n      jump\t// out\n        /* \"#utility.yul\":2432:2906   */\n    tag_40:\n        /* \"#utility.yul\":2500:2506   */\n      0x00\n        /* \"#utility.yul\":2508:2514   */\n      0x00\n        /* \"#utility.yul\":2557:2559   */\n      0x40\n        /* \"#utility.yul\":2545:2554   */\n      dup4\n        /* \"#utility.yul\":2536:2543   */\n      dup6\n        /* \"#utility.yul\":2532:2555   */\n      sub\n        /* \"#utility.yul\":2528:2560   */\n      slt\n        /* \"#utility.yul\":2525:2644   */\n      iszero\n      tag_316\n      jumpi\n        /* \"#utility.yul\":2563:2642   */\n      tag_317\n      tag_238\n      jump\t// in\n    tag_317:\n        /* \"#utility.yul\":2525:2644   */\n    tag_316:\n        /* \"#utility.yul\":2683:2684   */\n      0x00\n        /* \"#utility.yul\":2708:2761   */\n      tag_318\n        /* \"#utility.yul\":2753:2760   */\n      dup6\n        /* \"#utility.yul\":2744:2750   */\n      dup3\n        /* \"#utility.yul\":2733:2742   */\n      dup7\n        /* \"#utility.yul\":2729:2751   */\n      add\n        /* \"#utility.yul\":2708:2761   */\n      tag_243\n      jump\t// in\n    tag_318:\n        /* \"#utility.yul\":2698:2761   */\n      swap3\n      pop\n        /* \"#utility.yul\":2654:2771   */\n      pop\n        /* \"#utility.yul\":2810:2812   */\n      0x20\n        /* \"#utility.yul\":2836:2889   */\n      tag_319\n        /* \"#utility.yul\":2881:2888   */\n      dup6\n        /* \"#utility.yul\":2872:2878   */\n      dup3\n        /* \"#utility.yul\":2861:2870   */\n      dup7\n        /* \"#utility.yul\":2857:2879   */\n      add\n        /* \"#utility.yul\":2836:2889   */\n      tag_246\n      jump\t// in\n    tag_319:\n        /* \"#utility.yul\":2826:2889   */\n      swap2\n      pop\n        /* \"#utility.yul\":2781:2899   */\n      pop\n        /* \"#utility.yul\":2432:2906   */\n      swap3\n      pop\n      swap3\n      swap1\n      pop\n      jump\t// out\n        /* \"#utility.yul\":2912:3002   */\n    tag_247:\n        /* \"#utility.yul\":2946:2953   */\n      0x00\n        /* \"#utility.yul\":2989:2994   */\n      dup2\n        /* \"#utility.yul\":2982:2995   */\n      iszero\n        /* \"#utility.yul\":2975:2996   */\n      iszero\n        /* \"#utility.yul\":2964:2996   */\n      swap1\n      pop\n        /* \"#utility.yul\":2912:3002   */\n      swap2\n      swap1\n      pop\n      jump\t// out\n        /* \"#utility.yul\":3008:3117   */\n    tag_248:\n        /* \"#utility.yul\":3089:3110   */\n      tag_322\n        /* \"#utility.yul\":3104:3109   */\n      dup2\n        /* \"#utility.yul\":3089:3110   */\n      tag_247\n      jump\t// in\n    tag_322:\n        /* \"#utility.yul\":3084:3087   */\n      dup3\n        /* \"#utility.yul\":3077:3111   */\n      mstore\n        /* \"#utility.yul\":3008:3117   */\n      pop\n      pop\n      jump\t// out\n        /* \"#utility.yul\":3123:3333   */\n    tag_43:\n        /* \"#utility.yul\":3210:3214   */\n      0x00\n        /* \"#utility.yul\":3248:3250   */\n      0x20\n        /* \"#utility.yul\":3237:3246   */\n      dup3\n        /* \"#utility.yul\":3233:3251   */\n      add\n        /* \"#utility.yul\":3225:3251   */\n      swap1\n      pop\n        /* \"#utility.yul\":3261:3326   */\n      tag_324\n        /* \"#utility.yul\":3323:3324   */\n      0x00\n        /* \"#utility.yul\":3312:3321   */\n      dup4\n        /* \"#utility.yul\":3308:3325   */\n      add\n        /* \"#utility.yul\":3299:3305   */\n      dup5\n        /* \"#utility.yul\":3261:3326   */\n      tag_248\n      jump\t// in\n    tag_324:\n        /* \"#utility.yul\":3123:3333   */\n      swap3\n      swap2\n      pop\n      pop\n      jump\t// out\n        /* \"#utility.yul\":3339:3457   */\n    tag_249:\n        /* \"#utility.yul\":3426:3450   */\n      tag_326\n        /* \"#utility.yul\":3444:3449   */\n      dup2\n        /* \"#utility.yul\":3426:3450   */\n      tag_244\n      jump\t// in\n    tag_326:\n        /* \"#utility.yul\":3421:3424   */\n      dup3\n        /* \"#utility.yul\":3414:3451   */\n      mstore\n        /* \"#utility.yul\":3339:3457   */\n      pop\n      pop\n      jump\t// out\n        /* \"#utility.yul\":3463:3685   */\n    tag_48:\n        /* \"#utility.yul\":3556:3560   */\n      0x00\n        /* \"#utility.yul\":3594:3596   */\n      0x20\n        /* \"#utility.yul\":3583:3592   */\n      dup3\n        /* \"#utility.yul\":3579:3597   */\n      add\n        /* \"#utility.yul\":3571:3597   */\n      swap1\n      pop\n        /* \"#utility.yul\":3607:3678   */\n      tag_328\n        /* \"#utility.yul\":3675:3676   */\n      0x00\n        /* \"#utility.yul\":3664:3673   */\n      dup4\n        /* \"#utility.yul\":3660:3677   */\n      add\n        /* \"#utility.yul\":3651:3657   */\n      dup5\n        /* \"#utility.yul\":3607:3678   */\n      tag_249\n      jump\t// in\n    tag_328:\n        /* \"#utility.yul\":3463:3685   */\n      swap3\n      swap2\n      pop\n      pop\n      jump\t// out\n        /* \"#utility.yul\":3691:4310   */\n    tag_56:\n        /* \"#utility.yul\":3768:3774   */\n      0x00\n        /* \"#utility.yul\":3776:3782   */\n      0x00\n        /* \"#utility.yul\":3784:3790   */\n      0x00\n        /* \"#utility.yul\":3833:3835   */\n      0x60\n        /* \"#utility.yul\":3821:3830   */\n      dup5\n        /* \"#utility.yul\":3812:3819   */\n      dup7\n        /* \"#utility.yul\":3808:3831   */\n      sub\n        /* \"#utility.yul\":3804:3836   */\n      slt\n        /* \"#utility.yul\":3801:3920   */\n      iszero\n      tag_330\n      jumpi\n        /* \"#utility.yul\":3839:3918   */\n      tag_331\n      tag_238\n      jump\t// in\n    tag_331:\n        /* \"#utility.yul\":3801:3920   */\n    tag_330:\n        /* \"#utility.yul\":3959:3960   */\n      0x00\n        /* \"#utility.yul\":3984:4037   */\n      tag_332\n        /* \"#utility.yul\":4029:4036   */\n      dup7\n        /* \"#utility.yul\":4020:4026   */\n      dup3\n        /* \"#utility.yul\":4009:4018   */\n      dup8\n        /* \"#utility.yul\":4005:4027   */\n      add\n        /* \"#utility.yul\":3984:4037   */\n      tag_243\n      jump\t// in\n    tag_332:\n        /* \"#utility.yul\":3974:4037   */\n      swap4\n      pop\n        /* \"#utility.yul\":3930:4047   */\n      pop\n        /* \"#utility.yul\":4086:4088   */\n      0x20\n        /* \"#utility.yul\":4112:4165   */\n      tag_333\n        /* \"#utility.yul\":4157:4164   */\n      dup7\n        /* \"#utility.yul\":4148:4154   */\n      dup3\n        /* \"#utility.yul\":4137:4146   */\n      dup8\n        /* \"#utility.yul\":4133:4155   */\n      add\n        /* \"#utility.yul\":4112:4165   */\n      tag_243\n      jump\t// in\n    tag_333:\n        /* \"#utility.yul\":4102:4165   */\n      swap3\n      pop\n        /* \"#utility.yul\":4057:4175   */\n      pop\n        /* \"#utility.yul\":4214:4216   */\n      0x40\n        /* \"#utility.yul\":4240:4293   */\n      tag_334\n        /* \"#utility.yul\":4285:4292   */\n      dup7\n        /* \"#utility.yul\":4276:4282   */\n      dup3\n        /* \"#utility.yul\":4265:4274   */\n      dup8\n        /* \"#utility.yul\":4261:4283   */\n      add\n        /* \"#utility.yul\":4240:4293   */\n      tag_246\n      jump\t// in\n    tag_334:\n        /* \"#utility.yul\":4230:4293   */\n      swap2\n      pop\n        /* \"#utility.yul\":4185:4303   */\n      pop\n        /* \"#utility.yul\":3691:4310   */\n      swap3\n      pop\n      swap3\n      pop\n      swap3\n      jump\t// out\n        /* \"#utility.yul\":4316:4402   */\n    tag_250:\n        /* \"#utility.yul\":4351:4358   */\n      0x00\n        /* \"#utility.yul\":4391:4395   */\n      0xff\n        /* \"#utility.yul\":4384:4389   */\n      dup3\n        /* \"#utility.yul\":4380:4396   */\n      and\n        /* \"#utility.yul\":4369:4396   */\n      swap1\n      pop\n        /* \"#utility.yul\":4316:4402   */\n      swap2\n      swap1\n      pop\n      jump\t// out\n        /* \"#utility.yul\":4408:4520   */\n    tag_251:\n        /* \"#utility.yul\":4491:4513   */\n      tag_337\n        /* \"#utility.yul\":4507:4512   */\n      dup2\n        /* \"#utility.yul\":4491:4513   */\n      tag_250\n      jump\t// in\n    tag_337:\n        /* \"#utility.yul\":4486:4489   */\n      dup3\n        /* \"#utility.yul\":4479:4514   */\n      mstore\n        /* \"#utility.yul\":4408:4520   */\n      pop\n      pop\n      jump\t// out\n        /* \"#utility.yul\":4526:4740   */\n    tag_63:\n        /* \"#utility.yul\":4615:4619   */\n      0x00\n        /* \"#utility.yul\":4653:4655   */\n      0x20\n        /* \"#utility.yul\":4642:4651   */\n      dup3\n        /* \"#utility.yul\":4638:4656   */\n      add\n        /* \"#utility.yul\":4630:4656   */\n      swap1\n      pop\n        /* \"#utility.yul\":4666:4733   */\n      tag_339\n        /* \"#utility.yul\":4730:4731   */\n      0x00\n        /* \"#utility.yul\":4719:4728   */\n      dup4\n        /* \"#utility.yul\":4715:4732   */\n      add\n        /* \"#utility.yul\":4706:4712   */\n      dup5\n        /* \"#utility.yul\":4666:4733   */\n      tag_251\n      jump\t// in\n    tag_339:\n        /* \"#utility.yul\":4526:4740   */\n      swap3\n      swap2\n      pop\n      pop\n      jump\t// out\n        /* \"#utility.yul\":4746:5075   */\n    tag_81:\n        /* \"#utility.yul\":4805:4811   */\n      0x00\n        /* \"#utility.yul\":4854:4856   */\n      0x20\n        /* \"#utility.yul\":4842:4851   */\n      dup3\n        /* \"#utility.yul\":4833:4840   */\n      dup5\n        /* \"#utility.yul\":4829:4852   */\n      sub\n        /* \"#utility.yul\":4825:4857   */\n      slt\n        /* \"#utility.yul\":4822:4941   */\n      iszero\n      tag_341\n      jumpi\n        /* \"#utility.yul\":4860:4939   */\n      tag_342\n      tag_238\n      jump\t// in\n    tag_342:\n        /* \"#utility.yul\":4822:4941   */\n    tag_341:\n        /* \"#utility.yul\":4980:4981   */\n      0x00\n        /* \"#utility.yul\":5005:5058   */\n      tag_343\n        /* \"#utility.yul\":5050:5057   */\n      dup5\n        /* \"#utility.yul\":5041:5047   */\n      dup3\n        /* \"#utility.yul\":5030:5039   */\n      dup6\n        /* \"#utility.yul\":5026:5048   */\n      add\n        /* \"#utility.yul\":5005:5058   */\n      tag_243\n      jump\t// in\n    tag_343:\n        /* \"#utility.yul\":4995:5058   */\n      swap2\n      pop\n        /* \"#utility.yul\":4951:5068   */\n      pop\n        /* \"#utility.yul\":4746:5075   */\n      swap3\n      swap2\n      pop\n      pop\n      jump\t// out\n        /* \"#utility.yul\":5081:5199   */\n    tag_252:\n        /* \"#utility.yul\":5168:5192   */\n      tag_345\n        /* \"#utility.yul\":5186:5191   */\n      dup2\n        /* \"#utility.yul\":5168:5192   */\n      tag_241\n      jump\t// in\n    tag_345:\n        /* \"#utility.yul\":5163:5166   */\n      dup3\n        /* \"#utility.yul\":5156:5193   */\n      mstore\n        /* \"#utility.yul\":5081:5199   */\n      pop\n      pop\n      jump\t// out\n        /* \"#utility.yul\":5205:5427   */\n    tag_100:\n        /* \"#utility.yul\":5298:5302   */\n      0x00\n        /* \"#utility.yul\":5336:5338   */\n      0x20\n        /* \"#utility.yul\":5325:5334   */\n      dup3\n        /* \"#utility.yul\":5321:5339   */\n      add\n        /* \"#utility.yul\":5313:5339   */\n      swap1\n      pop\n        /* \"#utility.yul\":5349:5420   */\n      tag_347\n        /* \"#utility.yul\":5417:5418   */\n      0x00\n        /* \"#utility.yul\":5406:5415   */\n      dup4\n        /* \"#utility.yul\":5402:5419   */\n      add\n        /* \"#utility.yul\":5393:5399   */\n      dup5\n        /* \"#utility.yul\":5349:5420   */\n      tag_252\n      jump\t// in\n    tag_347:\n        /* \"#utility.yul\":5205:5427   */\n      swap3\n      swap2\n      pop\n      pop\n      jump\t// out\n        /* \"#utility.yul\":5433:5907   */\n    tag_118:\n        /* \"#utility.yul\":5501:5507   */\n      0x00\n        /* \"#utility.yul\":5509:5515   */\n      0x00\n        /* \"#utility.yul\":5558:5560   */\n      0x40\n        /* \"#utility.yul\":5546:5555   */\n      dup4\n        /* \"#utility.yul\":5537:5544   */\n      dup6\n        /* \"#utility.yul\":5533:5556   */\n      sub\n        /* \"#utility.yul\":5529:5561   */\n      slt\n        /* \"#utility.yul\":5526:5645   */\n      iszero\n      tag_349\n      jumpi\n        /* \"#utility.yul\":5564:5643   */\n      tag_350\n      tag_238\n      jump\t// in\n    tag_350:\n        /* \"#utility.yul\":5526:5645   */\n    tag_349:\n        /* \"#utility.yul\":5684:5685   */\n      0x00\n        /* \"#utility.yul\":5709:5762   */\n      tag_351\n        /* \"#utility.yul\":5754:5761   */\n      dup6\n        /* \"#utility.yul\":5745:5751   */\n      dup3\n        /* \"#utility.yul\":5734:5743   */\n      dup7\n        /* \"#utility.yul\":5730:5752   */\n      add\n        /* \"#utility.yul\":5709:5762   */\n      tag_243\n      jump\t// in\n    tag_351:\n        /* \"#utility.yul\":5699:5762   */\n      swap3\n      pop\n        /* \"#utility.yul\":5655:5772   */\n      pop\n        /* \"#utility.yul\":5811:5813   */\n      0x20\n        /* \"#utility.yul\":5837:5890   */\n      tag_352\n        /* \"#utility.yul\":5882:5889   */\n      dup6\n        /* \"#utility.yul\":5873:5879   */\n      dup3\n        /* \"#utility.yul\":5862:5871   */\n      dup7\n        /* \"#utility.yul\":5858:5880   */\n      add\n        /* \"#utility.yul\":5837:5890   */\n      tag_243\n      jump\t// in\n    tag_352:\n        /* \"#utility.yul\":5827:5890   */\n      swap2\n      pop\n        /* \"#utility.yul\":5782:5900   */\n      pop\n        /* \"#utility.yul\":5433:5907   */\n      swap3\n      pop\n      swap3\n      swap1\n      pop\n      jump\t// out\n        /* \"#utility.yul\":5913:6081   */\n    tag_253:\n        /* \"#utility.yul\":6053:6073   */\n      0x53616c65206973206e6f74206163746976650000000000000000000000000000\n        /* \"#utility.yul\":6049:6050   */\n      0x00\n        /* \"#utility.yul\":6041:6047   */\n      dup3\n        /* \"#utility.yul\":6037:6051   */\n      add\n        /* \"#utility.yul\":6030:6074   */\n      mstore\n        /* \"#utility.yul\":5913:6081   */\n      pop\n      jump\t// out\n        /* \"#utility.yul\":6087:6453   */\n    tag_254:\n        /* \"#utility.yul\":6229:6232   */\n      0x00\n        /* \"#utility.yul\":6250:6317   */\n      tag_355\n        /* \"#utility.yul\":6314:6316   */\n      0x12\n        /* \"#utility.yul\":6309:6312   */\n      dup4\n        /* \"#utility.yul\":6250:6317   */\n      tag_233\n      jump\t// in\n    tag_355:\n        /* \"#utility.yul\":6243:6317   */\n      swap2\n      pop\n        /* \"#utility.yul\":6326:6419   */\n      tag_356\n        /* \"#utility.yul\":6415:6418   */\n      dup3\n        /* \"#utility.yul\":6326:6419   */\n      tag_253\n      jump\t// in\n    tag_356:\n        /* \"#utility.yul\":6444:6446   */\n      0x20\n        /* \"#utility.yul\":6439:6442   */\n      dup3\n        /* \"#utility.yul\":6435:6447   */\n      add\n        /* \"#utility.yul\":6428:6447   */\n      swap1\n      pop\n        /* \"#utility.yul\":6087:6453   */\n      swap2\n      swap1\n      pop\n      jump\t// out\n        /* \"#utility.yul\":6459:6878   */\n    tag_133:\n        /* \"#utility.yul\":6625:6629   */\n      0x00\n        /* \"#utility.yul\":6663:6665   */\n      0x20\n        /* \"#utility.yul\":6652:6661   */\n      dup3\n        /* \"#utility.yul\":6648:6666   */\n      add\n        /* \"#utility.yul\":6640:6666   */\n      swap1\n      pop\n        /* \"#utility.yul\":6712:6721   */\n      dup2\n        /* \"#utility.yul\":6706:6710   */\n      dup2\n        /* \"#utility.yul\":6702:6722   */\n      sub\n        /* \"#utility.yul\":6698:6699   */\n      0x00\n        /* \"#utility.yul\":6687:6696   */\n      dup4\n        /* \"#utility.yul\":6683:6700   */\n      add\n        /* \"#utility.yul\":6676:6723   */\n      mstore\n        /* \"#utility.yul\":6740:6871   */\n      tag_358\n        /* \"#utility.yul\":6866:6870   */\n      dup2\n        /* \"#utility.yul\":6740:6871   */\n      tag_254\n      jump\t// in\n    tag_358:\n        /* \"#utility.yul\":6732:6871   */\n      swap1\n      pop\n        /* \"#utility.yul\":6459:6878   */\n      swap2\n      swap1\n      pop\n      jump\t// out\n        /* \"#utility.yul\":6884:7062   */\n    tag_255:\n        /* \"#utility.yul\":7024:7054   */\n      0x416d6f756e742069732062656c6f77206d696e20707572636861736500000000\n        /* \"#utility.yul\":7020:7021   */\n      0x00\n        /* \"#utility.yul\":7012:7018   */\n      dup3\n        /* \"#utility.yul\":7008:7022   */\n      add\n        /* \"#utility.yul\":7001:7055   */\n      mstore\n        /* \"#utility.yul\":6884:7062   */\n      pop\n      jump\t// out\n        /* \"#utility.yul\":7068:7434   */\n    tag_256:\n        /* \"#utility.yul\":7210:7213   */\n      0x00\n        /* \"#utility.yul\":7231:7298   */\n      tag_361\n        /* \"#utility.yul\":7295:7297   */\n      0x1c\n        /* \"#utility.yul\":7290:7293   */\n      dup4\n        /* \"#utility.yul\":7231:7298   */\n      tag_233\n      jump\t// in\n    tag_361:\n        /* \"#utility.yul\":7224:7298   */\n      swap2\n      pop\n        /* \"#utility.yul\":7307:7400   */\n      tag_362\n        /* \"#utility.yul\":7396:7399   */\n      dup3\n        /* \"#utility.yul\":7307:7400   */\n      tag_255\n      jump\t// in\n    tag_362:\n        /* \"#utility.yul\":7425:7427   */\n      0x20\n        /* \"#utility.yul\":7420:7423   */\n      dup3\n        /* \"#utility.yul\":7416:7428   */\n      add\n        /* \"#utility.yul\":7409:7428   */\n      swap1\n      pop\n        /* \"#utility.yul\":7068:7434   */\n      swap2\n      swap1\n      pop\n      jump\t// out\n        /* \"#utility.yul\":7440:7859   */\n    tag_136:\n        /* \"#utility.yul\":7606:7610   */\n      0x00\n        /* \"#utility.yul\":7644:7646   */\n      0x20\n        /* \"#utility.yul\":7633:7642   */\n      dup3\n        /* \"#utility.yul\":7629:7647   */\n      add\n        /* \"#utility.yul\":7621:7647   */\n      swap1\n      pop\n        /* \"#utility.yul\":7693:7702   */\n      dup2\n        /* \"#utility.yul\":7687:7691   */\n      dup2\n        /* \"#utility.yul\":7683:7703   */\n      sub\n        /* \"#utility.yul\":7679:7680   */\n      0x00\n        /* \"#utility.yul\":7668:7677   */\n      dup4\n        /* \"#utility.yul\":7664:7681   */\n      add\n        /* \"#utility.yul\":7657:7704   */\n      mstore\n        /* \"#utility.yul\":7721:7852   */\n      tag_364\n        /* \"#utility.yul\":7847:7851   */\n      dup2\n        /* \"#utility.yul\":7721:7852   */\n      tag_256\n      jump\t// in\n    tag_364:\n        /* \"#utility.yul\":7713:7852   */\n      swap1\n      pop\n        /* \"#utility.yul\":7440:7859   */\n      swap2\n      swap1\n      pop\n      jump\t// out\n        /* \"#utility.yul\":7865:8043   */\n    tag_257:\n        /* \"#utility.yul\":8005:8035   */\n      0x416d6f756e742069732061626f7665206d617820707572636861736500000000\n        /* \"#utility.yul\":8001:8002   */\n      0x00\n        /* \"#utility.yul\":7993:7999   */\n      dup3\n        /* \"#utility.yul\":7989:8003   */\n      add\n        /* \"#utility.yul\":7982:8036   */\n      mstore\n        /* \"#utility.yul\":7865:8043   */\n      pop\n      jump\t// out\n        /* \"#utility.yul\":8049:8415   */\n    tag_258:\n        /* \"#utility.yul\":8191:8194   */\n      0x00\n        /* \"#utility.yul\":8212:8279   */\n      tag_367\n        /* \"#utility.yul\":8276:8278   */\n      0x1c\n        /* \"#utility.yul\":8271:8274   */\n      dup4\n        /* \"#utility.yul\":8212:8279   */\n      tag_233\n      jump\t// in\n    tag_367:\n        /* \"#utility.yul\":8205:8279   */\n      swap2\n      pop\n        /* \"#utility.yul\":8288:8381   */\n      tag_368\n        /* \"#utility.yul\":8377:8380   */\n      dup3\n        /* \"#utility.yul\":8288:8381   */\n      tag_257\n      jump\t// in\n    tag_368:\n        /* \"#utility.yul\":8406:8408   */\n      0x20\n        /* \"#utility.yul\":8401:8404   */\n      dup3\n        /* \"#utility.yul\":8397:8409   */\n      add\n        /* \"#utility.yul\":8390:8409   */\n      swap1\n      pop\n        /* \"#utility.yul\":8049:8415   */\n      swap2\n      swap1\n      pop\n      jump\t// out\n        /* \"#utility.yul\":8421:8840   */\n    tag_139:\n        /* \"#utility.yul\":8587:8591   */\n      0x00\n        /* \"#utility.yul\":8625:8627   */\n      0x20\n        /* \"#utility.yul\":8614:8623   */\n      dup3\n        /* \"#utility.yul\":8610:8628   */\n      add\n        /* \"#utility.yul\":8602:8628   */\n      swap1\n      pop\n        /* \"#utility.yul\":8674:8683   */\n      dup2\n        /* \"#utility.yul\":8668:8672   */\n      dup2\n        /* \"#utility.yul\":8664:8684   */\n      sub\n        /* \"#utility.yul\":8660:8661   */\n      0x00\n        /* \"#utility.yul\":8649:8658   */\n      dup4\n        /* \"#utility.yul\":8645:8662   */\n      add\n        /* \"#utility.yul\":8638:8685   */\n      mstore\n        /* \"#utility.yul\":8702:8833   */\n      tag_370\n        /* \"#utility.yul\":8828:8832   */\n      dup2\n        /* \"#utility.yul\":8702:8833   */\n      tag_258\n      jump\t// in\n    tag_370:\n        /* \"#utility.yul\":8694:8833   */\n      swap1\n      pop\n        /* \"#utility.yul\":8421:8840   */\n      swap2\n      swap1\n      pop\n      jump\t// out\n        /* \"#utility.yul\":8846:9026   */\n    tag_259:\n        /* \"#utility.yul\":8894:8971   */\n      0x4e487b7100000000000000000000000000000000000000000000000000000000\n        /* \"#utility.yul\":8891:8892   */\n      0x00\n        /* \"#utility.yul\":8884:8972   */\n      mstore\n        /* \"#utility.yul\":8991:8995   */\n      0x11\n        /* \"#utility.yul\":8988:8989   */\n      0x04\n        /* \"#utility.yul\":8981:8996   */\n      mstore\n        /* \"#utility.yul\":9015:9019   */\n      0x24\n        /* \"#utility.yul\":9012:9013   */\n      0x00\n        /* \"#utility.yul\":9005:9020   */\n      revert\n        /* \"#utility.yul\":9032:9134   */\n    tag_260:\n        /* \"#utility.yul\":9074:9082   */\n      0x00\n        /* \"#utility.yul\":9121:9126   */\n      dup2\n        /* \"#utility.yul\":9118:9119   */\n      0x01\n        /* \"#utility.yul\":9114:9127   */\n      shr\n        /* \"#utility.yul\":9093:9127   */\n      swap1\n      pop\n        /* \"#utility.yul\":9032:9134   */\n      swap2\n      swap1\n      pop\n      jump\t// out\n        /* \"#utility.yul\":9140:9988   */\n    tag_261:\n        /* \"#utility.yul\":9201:9206   */\n      0x00\n        /* \"#utility.yul\":9208:9212   */\n      0x00\n        /* \"#utility.yul\":9232:9238   */\n      dup3\n        /* \"#utility.yul\":9223:9238   */\n      swap2\n      pop\n        /* \"#utility.yul\":9256:9261   */\n      dup4\n        /* \"#utility.yul\":9247:9261   */\n      swap1\n      pop\n        /* \"#utility.yul\":9270:9982   */\n    tag_374:\n        /* \"#utility.yul\":9291:9292   */\n      0x01\n        /* \"#utility.yul\":9281:9289   */\n      dup6\n        /* \"#utility.yul\":9278:9293   */\n      gt\n        /* \"#utility.yul\":9270:9982   */\n      iszero\n      tag_376\n      jumpi\n        /* \"#utility.yul\":9386:9390   */\n      dup1\n        /* \"#utility.yul\":9381:9384   */\n      dup7\n        /* \"#utility.yul\":9377:9391   */\n      div\n        /* \"#utility.yul\":9371:9375   */\n      dup2\n        /* \"#utility.yul\":9368:9392   */\n      gt\n        /* \"#utility.yul\":9365:9415   */\n      iszero\n      tag_377\n      jumpi\n        /* \"#utility.yul\":9395:9413   */\n      tag_378\n      tag_259\n      jump\t// in\n    tag_378:\n        /* \"#utility.yul\":9365:9415   */\n    tag_377:\n        /* \"#utility.yul\":9445:9446   */\n      0x01\n        /* \"#utility.yul\":9435:9443   */\n      dup6\n        /* \"#utility.yul\":9431:9447   */\n      and\n        /* \"#utility.yul\":9428:9879   */\n      iszero\n      tag_379\n      jumpi\n        /* \"#utility.yul\":9860:9864   */\n      dup1\n        /* \"#utility.yul\":9853:9858   */\n      dup3\n        /* \"#utility.yul\":9849:9865   */\n      mul\n        /* \"#utility.yul\":9840:9865   */\n      swap2\n      pop\n        /* \"#utility.yul\":9428:9879   */\n    tag_379:\n        /* \"#utility.yul\":9910:9914   */\n      dup1\n        /* \"#utility.yul\":9904:9908   */\n      dup2\n        /* \"#utility.yul\":9900:9915   */\n      mul\n        /* \"#utility.yul\":9892:9915   */\n      swap1\n      pop\n        /* \"#utility.yul\":9940:9972   */\n      tag_380\n        /* \"#utility.yul\":9963:9971   */\n      dup6\n        /* \"#utility.yul\":9940:9972   */\n      tag_260\n      jump\t// in\n    tag_380:\n        /* \"#utility.yul\":9928:9972   */\n      swap5\n      pop\n        /* \"#utility.yul\":9270:9982   */\n      jump(tag_374)\n    tag_376:\n        /* \"#utility.yul\":9140:9988   */\n      swap5\n      pop\n      swap5\n      swap3\n      pop\n      pop\n      pop\n      jump\t// out\n        /* \"#utility.yul\":9994:11067   */\n    tag_262:\n        /* \"#utility.yul\":10048:10053   */\n      0x00\n        /* \"#utility.yul\":10239:10247   */\n      dup3\n        /* \"#utility.yul\":10229:10269   */\n      tag_382\n      jumpi\n        /* \"#utility.yul\":10260:10261   */\n      0x01\n        /* \"#utility.yul\":10251:10261   */\n      swap1\n      pop\n        /* \"#utility.yul\":10262:10267   */\n      jump(tag_381)\n        /* \"#utility.yul\":10229:10269   */\n    tag_382:\n        /* \"#utility.yul\":10288:10292   */\n      dup2\n        /* \"#utility.yul\":10278:10314   */\n      tag_383\n      jumpi\n        /* \"#utility.yul\":10305:10306   */\n      0x00\n        /* \"#utility.yul\":10296:10306   */\n      swap1\n      pop\n        /* \"#utility.yul\":10307:10312   */\n      jump(tag_381)\n        /* \"#utility.yul\":10278:10314   */\n    tag_383:\n        /* \"#utility.yul\":10374:10378   */\n      dup2\n        /* \"#utility.yul\":10422:10423   */\n      0x01\n        /* \"#utility.yul\":10417:10444   */\n      dup2\n      eq\n      tag_385\n      jumpi\n        /* \"#utility.yul\":10458:10459   */\n      0x02\n        /* \"#utility.yul\":10453:10644   */\n      dup2\n      eq\n      tag_386\n      jumpi\n        /* \"#utility.yul\":10367:10644   */\n      jump(tag_384)\n        /* \"#utility.yul\":10417:10444   */\n    tag_385:\n        /* \"#utility.yul\":10435:10436   */\n      0x01\n        /* \"#utility.yul\":10426:10436   */\n      swap2\n      pop\n        /* \"#utility.yul\":10437:10442   */\n      pop\n      jump(tag_381)\n        /* \"#utility.yul\":10453:10644   */\n    tag_386:\n        /* \"#utility.yul\":10498:10501   */\n      0xff\n        /* \"#utility.yul\":10488:10496   */\n      dup5\n        /* \"#utility.yul\":10485:10502   */\n      gt\n        /* \"#utility.yul\":10482:10525   */\n      iszero\n      tag_387\n      jumpi\n        /* \"#utility.yul\":10505:10523   */\n      tag_388\n      tag_259\n      jump\t// in\n    tag_388:\n        /* \"#utility.yul\":10482:10525   */\n    tag_387:\n        /* \"#utility.yul\":10554:10562   */\n      dup4\n        /* \"#utility.yul\":10551:10552   */\n      0x02\n        /* \"#utility.yul\":10547:10563   */\n      exp\n        /* \"#utility.yul\":10538:10563   */\n      swap2\n      pop\n        /* \"#utility.yul\":10589:10592   */\n      dup5\n        /* \"#utility.yul\":10582:10587   */\n      dup3\n        /* \"#utility.yul\":10579:10593   */\n      gt\n        /* \"#utility.yul\":10576:10616   */\n      iszero\n      tag_389\n      jumpi\n        /* \"#utility.yul\":10596:10614   */\n      tag_390\n      tag_259\n      jump\t// in\n    tag_390:\n        /* \"#utility.yul\":10576:10616   */\n    tag_389:\n        /* \"#utility.yul\":10629:10634   */\n      pop\n      jump(tag_381)\n        /* \"#utility.yul\":10367:10644   */\n    tag_384:\n      pop\n        /* \"#utility.yul\":10753:10755   */\n      0x20\n        /* \"#utility.yul\":10743:10751   */\n      dup4\n        /* \"#utility.yul\":10740:10756   */\n      lt\n        /* \"#utility.yul\":10734:10737   */\n      0x0133\n        /* \"#utility.yul\":10728:10732   */\n      dup4\n        /* \"#utility.yul\":10725:10738   */\n      lt\n        /* \"#utility.yul\":10721:10757   */\n      and\n        /* \"#utility.yul\":10703:10705   */\n      0x4e\n        /* \"#utility.yul\":10693:10701   */\n      dup5\n        /* \"#utility.yul\":10690:10706   */\n      lt\n        /* \"#utility.yul\":10685:10687   */\n      0x0b\n        /* \"#utility.yul\":10679:10683   */\n      dup5\n        /* \"#utility.yul\":10676:10688   */\n      lt\n        /* \"#utility.yul\":10672:10707   */\n      and\n        /* \"#utility.yul\":10656:10767   */\n      or\n        /* \"#utility.yul\":10653:10899   */\n      iszero\n      tag_391\n      jumpi\n        /* \"#utility.yul\":10809:10817   */\n      dup3\n        /* \"#utility.yul\":10803:10807   */\n      dup3\n        /* \"#utility.yul\":10799:10818   */\n      exp\n        /* \"#utility.yul\":10790:10818   */\n      swap1\n      pop\n        /* \"#utility.yul\":10844:10847   */\n      dup4\n        /* \"#utility.yul\":10837:10842   */\n      dup2\n        /* \"#utility.yul\":10834:10848   */\n      gt\n        /* \"#utility.yul\":10831:10871   */\n      iszero\n      tag_392\n      jumpi\n        /* \"#utility.yul\":10851:10869   */\n      tag_393\n      tag_259\n      jump\t// in\n    tag_393:\n        /* \"#utility.yul\":10831:10871   */\n    tag_392:\n        /* \"#utility.yul\":10884:10889   */\n      jump(tag_381)\n        /* \"#utility.yul\":10653:10899   */\n    tag_391:\n        /* \"#utility.yul\":10924:10966   */\n      tag_394\n        /* \"#utility.yul\":10962:10965   */\n      dup5\n        /* \"#utility.yul\":10952:10960   */\n      dup5\n        /* \"#utility.yul\":10946:10950   */\n      dup5\n        /* \"#utility.yul\":10943:10944   */\n      0x01\n        /* \"#utility.yul\":10924:10966   */\n      tag_261\n      jump\t// in\n    tag_394:\n        /* \"#utility.yul\":10909:10966   */\n      swap3\n      pop\n      swap1\n      pop\n        /* \"#utility.yul\":10998:11002   */\n      dup2\n        /* \"#utility.yul\":10993:10996   */\n      dup5\n        /* \"#utility.yul\":10989:11003   */\n      div\n        /* \"#utility.yul\":10982:10987   */\n      dup2\n        /* \"#utility.yul\":10979:11004   */\n      gt\n        /* \"#utility.yul\":10976:11027   */\n      iszero\n      tag_395\n      jumpi\n        /* \"#utility.yul\":11007:11025   */\n      tag_396\n      tag_259\n      jump\t// in\n    tag_396:\n        /* \"#utility.yul\":10976:11027   */\n    tag_395:\n        /* \"#utility.yul\":11056:11060   */\n      dup2\n        /* \"#utility.yul\":11049:11054   */\n      dup2\n        /* \"#utility.yul\":11045:11061   */\n      mul\n        /* \"#utility.yul\":11036:11061   */\n      swap1\n      pop\n        /* \"#utility.yul\":9994:11067   */\n    tag_381:\n      swap4\n      swap3\n      pop\n      pop\n      pop\n      jump\t// out\n        /* \"#utility.yul\":11073:11358   */\n    tag_141:\n        /* \"#utility.yul\":11133:11138   */\n      0x00\n        /* \"#utility.yul\":11157:11180   */\n      tag_398\n        /* \"#utility.yul\":11175:11179   */\n      dup3\n        /* \"#utility.yul\":11157:11180   */\n      tag_244\n      jump\t// in\n    tag_398:\n        /* \"#utility.yul\":11149:11180   */\n      swap2\n      pop\n        /* \"#utility.yul\":11201:11228   */\n      tag_399\n        /* \"#utility.yul\":11219:11227   */\n      dup4\n        /* \"#utility.yul\":11201:11228   */\n      tag_244\n      jump\t// in\n    tag_399:\n        /* \"#utility.yul\":11189:11228   */\n      swap3\n      pop\n        /* \"#utility.yul\":11247:11351   */\n      tag_400\n        /* \"#utility.yul\":11284:11350   */\n      0xffffffffffffffffffffffffffffffffffffffffffffffffffffffffffffffff\n        /* \"#utility.yul\":11274:11282   */\n      dup5\n        /* \"#utility.yul\":11268:11272   */\n      dup5\n        /* \"#utility.yul\":11247:11351   */\n      tag_262\n      jump\t// in\n    tag_400:\n        /* \"#utility.yul\":11238:11351   */\n      swap1\n      pop\n        /* \"#utility.yul\":11073:11358   */\n      swap3\n      swap2\n      pop\n      pop\n      jump\t// out\n        /* \"#utility.yul\":11364:11774   */\n    tag_143:\n        /* \"#utility.yul\":11404:11411   */\n      0x00\n        /* \"#utility.yul\":11427:11447   */\n      tag_402\n        /* \"#utility.yul\":11445:11446   */\n      dup3\n        /* \"#utility.yul\":11427:11447   */\n      tag_244\n      jump\t// in\n    tag_402:\n        /* \"#utility.yul\":11422:11447   */\n      swap2\n      pop\n        /* \"#utility.yul\":11461:11481   */\n      tag_403\n        /* \"#utility.yul\":11479:11480   */\n      dup4\n        /* \"#utility.yul\":11461:11481   */\n      tag_244\n      jump\t// in\n    tag_403:\n        /* \"#utility.yul\":11456:11481   */\n      swap3\n      pop\n        /* \"#utility.yul\":11516:11517   */\n      dup3\n        /* \"#utility.yul\":11513:11514   */\n      dup3\n        /* \"#utility.yul\":11509:11518   */\n      mul\n        /* \"#utility.yul\":11538:11568   */\n      tag_404\n        /* \"#utility.yul\":11556:11567   */\n      dup2\n        /* \"#utility.yul\":11538:11568   */\n      tag_244\n      jump\t// in\n    tag_404:\n        /* \"#utility.yul\":11527:11568   */\n      swap2\n      pop\n        /* \"#utility.yul\":11717:11718   */\n      dup3\n        /* \"#utility.yul\":11708:11715   */\n      dup3\n        /* \"#utility.yul\":11704:11719   */\n      div\n        /* \"#utility.yul\":11701:11702   */\n      dup5\n        /* \"#utility.yul\":11698:11720   */\n      eq\n        /* \"#utility.yul\":11678:11679   */\n      dup4\n        /* \"#utility.yul\":11671:11680   */\n      iszero\n        /* \"#utility.yul\":11651:11734   */\n      or\n        /* \"#utility.yul\":11628:11767   */\n      tag_405\n      jumpi\n        /* \"#utility.yul\":11747:11765   */\n      tag_406\n      tag_259\n      jump\t// in\n    tag_406:\n        /* \"#utility.yul\":11628:11767   */\n    tag_405:\n        /* \"#utility.yul\":11412:11774   */\n      pop\n        /* \"#utility.yul\":11364:11774   */\n      swap3\n      swap2\n      pop\n      pop\n      jump\t// out\n        /* \"#utility.yul\":11780:11960   */\n    tag_263:\n        /* \"#utility.yul\":11828:11905   */\n      0x4e487b7100000000000000000000000000000000000000000000000000000000\n        /* \"#utility.yul\":11825:11826   */\n      0x00\n        /* \"#utility.yul\":11818:11906   */\n      mstore\n        /* \"#utility.yul\":11925:11929   */\n      0x12\n        /* \"#utility.yul\":11922:11923   */\n      0x04\n        /* \"#utility.yul\":11915:11930   */\n      mstore\n        /* \"#utility.yul\":11949:11953   */\n      0x24\n        /* \"#utility.yul\":11946:11947   */\n      0x00\n        /* \"#utility.yul\":11939:11954   */\n      revert\n        /* \"#utility.yul\":11966:12151   */\n    tag_145:\n        /* \"#utility.yul\":12006:12007   */\n      0x00\n        /* \"#utility.yul\":12023:12043   */\n      tag_409\n        /* \"#utility.yul\":12041:12042   */\n      dup3\n        /* \"#utility.yul\":12023:12043   */\n      tag_244\n      jump\t// in\n    tag_409:\n        /* \"#utility.yul\":12018:12043   */\n      swap2\n      pop\n        /* \"#utility.yul\":12057:12077   */\n      tag_410\n        /* \"#utility.yul\":12075:12076   */\n      dup4\n        /* \"#utility.yul\":12057:12077   */\n      tag_244\n      jump\t// in\n    tag_410:\n        /* \"#utility.yul\":12052:12077   */\n      swap3\n      pop\n        /* \"#utility.yul\":12096:12097   */\n      dup3\n        /* \"#utility.yul\":12086:12121   */\n      tag_411\n      jumpi\n        /* \"#utility.yul\":12101:12119   */\n      tag_412\n      tag_263\n      jump\t// in\n    tag_412:\n        /* \"#utility.yul\":12086:12121   */\n    tag_411:\n        /* \"#utility.yul\":12143:12144   */\n      dup3\n        /* \"#utility.yul\":12140:12141   */\n      dup3\n        /* \"#utility.yul\":12136:12145   */\n      div\n        /* \"#utility.yul\":12131:12145   */\n      swap1\n      pop\n        /* \"#utility.yul\":11966:12151   */\n      swap3\n      swap2\n      pop\n      pop\n      jump\t// out\n        /* \"#utility.yul\":12157:12338   */\n    tag_264:\n        /* \"#utility.yul\":12297:12330   */\n      0x4e6f7420656e6f75676820746f6b656e73206c65667420666f722073616c6500\n        /* \"#utility.yul\":12293:12294   */\n      0x00\n        /* \"#utility.yul\":12285:12291   */\n      dup3\n        /* \"#utility.yul\":12281:12295   */\n      add\n        /* \"#utility.yul\":12274:12331   */\n      mstore\n        /* \"#utility.yul\":12157:12338   */\n      pop\n      jump\t// out\n        /* \"#utility.yul\":12344:12710   */\n    tag_265:\n        /* \"#utility.yul\":12486:12489   */\n      0x00\n        /* \"#utility.yul\":12507:12574   */\n      tag_415\n        /* \"#utility.yul\":12571:12573   */\n      0x1f\n        /* \"#utility.yul\":12566:12569   */\n      dup4\n        /* \"#utility.yul\":12507:12574   */\n      tag_233\n      jump\t// in\n    tag_415:\n        /* \"#utility.yul\":12500:12574   */\n      swap2\n      pop\n        /* \"#utility.yul\":12583:12676   */\n      tag_416\n        /* \"#utility.yul\":12672:12675   */\n      dup3\n        /* \"#utility.yul\":12583:12676   */\n      tag_264\n      jump\t// in\n    tag_416:\n        /* \"#utility.yul\":12701:12703   */\n      0x20\n        /* \"#utility.yul\":12696:12699   */\n      dup3\n        /* \"#utility.yul\":12692:12704   */\n      add\n        /* \"#utility.yul\":12685:12704   */\n      swap1\n      pop\n        /* \"#utility.yul\":12344:12710   */\n      swap2\n      swap1\n      pop\n      jump\t// out\n        /* \"#utility.yul\":12716:13135   */\n    tag_148:\n        /* \"#utility.yul\":12882:12886   */\n      0x00\n        /* \"#utility.yul\":12920:12922   */\n      0x20\n        /* \"#utility.yul\":12909:12918   */\n      dup3\n        /* \"#utility.yul\":12905:12923   */\n      add\n        /* \"#utility.yul\":12897:12923   */\n      swap1\n      pop\n        /* \"#utility.yul\":12969:12978   */\n      dup2\n        /* \"#utility.yul\":12963:12967   */\n      dup2\n        /* \"#utility.yul\":12959:12979   */\n      sub\n        /* \"#utility.yul\":12955:12956   */\n      0x00\n        /* \"#utility.yul\":12944:12953   */\n      dup4\n        /* \"#utility.yul\":12940:12957   */\n      add\n        /* \"#utility.yul\":12933:12980   */\n      mstore\n        /* \"#utility.yul\":12997:13128   */\n      tag_418\n        /* \"#utility.yul\":13123:13127   */\n      dup2\n        /* \"#utility.yul\":12997:13128   */\n      tag_265\n      jump\t// in\n    tag_418:\n        /* \"#utility.yul\":12989:13128   */\n      swap1\n      pop\n        /* \"#utility.yul\":12716:13135   */\n      swap2\n      swap1\n      pop\n      jump\t// out\n        /* \"#utility.yul\":13141:13332   */\n    tag_150:\n        /* \"#utility.yul\":13181:13184   */\n      0x00\n        /* \"#utility.yul\":13200:13220   */\n      tag_420\n        /* \"#utility.yul\":13218:13219   */\n      dup3\n        /* \"#utility.yul\":13200:13220   */\n      tag_244\n      jump\t// in\n    tag_420:\n        /* \"#utility.yul\":13195:13220   */\n      swap2\n      pop\n        /* \"#utility.yul\":13234:13254   */\n      tag_421\n        /* \"#utility.yul\":13252:13253   */\n      dup4\n        /* \"#utility.yul\":13234:13254   */\n      tag_244\n      jump\t// in\n    tag_421:\n        /* \"#utility.yul\":13229:13254   */\n      swap3\n      pop\n        /* \"#utility.yul\":13277:13278   */\n      dup3\n        /* \"#utility.yul\":13274:13275   */\n      dup3\n        /* \"#utility.yul\":13270:13279   */\n      add\n        /* \"#utility.yul\":13263:13279   */\n      swap1\n      pop\n        /* \"#utility.yul\":13298:13301   */\n      dup1\n        /* \"#utility.yul\":13295:13296   */\n      dup3\n        /* \"#utility.yul\":13292:13302   */\n      gt\n        /* \"#utility.yul\":13289:13325   */\n      iszero\n      tag_422\n      jumpi\n        /* \"#utility.yul\":13305:13323   */\n      tag_423\n      tag_259\n      jump\t// in\n    tag_423:\n        /* \"#utility.yul\":13289:13325   */\n    tag_422:\n        /* \"#utility.yul\":13141:13332   */\n      swap3\n      swap2\n      pop\n      pop\n      jump\t// out\n        /* \"#utility.yul\":13338:13670   */\n    tag_154:\n        /* \"#utility.yul\":13459:13463   */\n      0x00\n        /* \"#utility.yul\":13497:13499   */\n      0x40\n        /* \"#utility.yul\":13486:13495   */\n      dup3\n        /* \"#utility.yul\":13482:13500   */\n      add\n        /* \"#utility.yul\":13474:13500   */\n      swap1\n      pop\n        /* \"#utility.yul\":13510:13581   */\n      tag_425\n        /* \"#utility.yul\":13578:13579   */\n      0x00\n        /* \"#utility.yul\":13567:13576   */\n      dup4\n        /* \"#utility.yul\":13563:13580   */\n      add\n        /* \"#utility.yul\":13554:13560   */\n      dup6\n        /* \"#utility.yul\":13510:13581   */\n      tag_249\n      jump\t// in\n    tag_425:\n        /* \"#utility.yul\":13591:13663   */\n      tag_426\n        /* \"#utility.yul\":13659:13661   */\n      0x20\n        /* \"#utility.yul\":13648:13657   */\n      dup4\n        /* \"#utility.yul\":13644:13662   */\n      add\n        /* \"#utility.yul\":13635:13641   */\n      dup5\n        /* \"#utility.yul\":13591:13663   */\n      tag_249\n      jump\t// in\n    tag_426:\n        /* \"#utility.yul\":13338:13670   */\n      swap4\n      swap3\n      pop\n      pop\n      pop\n      jump\t// out\n        /* \"#utility.yul\":13676:13856   */\n    tag_266:\n        /* \"#utility.yul\":13724:13801   */\n      0x4e487b7100000000000000000000000000000000000000000000000000000000\n        /* \"#utility.yul\":13721:13722   */\n      0x00\n        /* \"#utility.yul\":13714:13802   */\n      mstore\n        /* \"#utility.yul\":13821:13825   */\n      0x22\n        /* \"#utility.yul\":13818:13819   */\n      0x04\n        /* \"#utility.yul\":13811:13826   */\n      mstore\n        /* \"#utility.yul\":13845:13849   */\n      0x24\n        /* \"#utility.yul\":13842:13843   */\n      0x00\n        /* \"#utility.yul\":13835:13850   */\n      revert\n        /* \"#utility.yul\":13862:14182   */\n    tag_156:\n        /* \"#utility.yul\":13906:13912   */\n      0x00\n        /* \"#utility.yul\":13943:13944   */\n      0x02\n        /* \"#utility.yul\":13937:13941   */\n      dup3\n        /* \"#utility.yul\":13933:13945   */\n      div\n        /* \"#utility.yul\":13923:13945   */\n      swap1\n      pop\n        /* \"#utility.yul\":13990:13991   */\n      0x01\n        /* \"#utility.yul\":13984:13988   */\n      dup3\n        /* \"#utility.yul\":13980:13992   */\n      and\n        /* \"#utility.yul\":14011:14029   */\n      dup1\n        /* \"#utility.yul\":14001:14082   */\n      tag_429\n      jumpi\n        /* \"#utility.yul\":14067:14071   */\n      0x7f\n        /* \"#utility.yul\":14059:14065   */\n      dup3\n        /* \"#utility.yul\":14055:14072   */\n      and\n        /* \"#utility.yul\":14045:14072   */\n      swap2\n      pop\n        /* \"#utility.yul\":14001:14082   */\n    tag_429:\n        /* \"#utility.yul\":14129:14131   */\n      0x20\n        /* \"#utility.yul\":14121:14127   */\n      dup3\n        /* \"#utility.yul\":14118:14132   */\n      lt\n        /* \"#utility.yul\":14098:14116   */\n      dup2\n        /* \"#utility.yul\":14095:14133   */\n      sub\n        /* \"#utility.yul\":14092:14176   */\n      tag_430\n      jumpi\n        /* \"#utility.yul\":14148:14166   */\n      tag_431\n      tag_266\n      jump\t// in\n    tag_431:\n        /* \"#utility.yul\":14092:14176   */\n    tag_430:\n        /* \"#utility.yul\":13913:14182   */\n      pop\n        /* \"#utility.yul\":13862:14182   */\n      swap2\n      swap1\n      pop\n      jump\t// out\n        /* \"#utility.yul\":14188:14416   */\n    tag_267:\n        /* \"#utility.yul\":14328:14362   */\n      0x546f6b656e7320617265206c6f636b656420756e74696c2073616c6520697320\n        /* \"#utility.yul\":14324:14325   */\n      0x00\n        /* \"#utility.yul\":14316:14322   */\n      dup3\n        /* \"#utility.yul\":14312:14326   */\n      add\n        /* \"#utility.yul\":14305:14363   */\n      mstore\n        /* \"#utility.yul\":14397:14408   */\n      0x66696e616c697a65640000000000000000000000000000000000000000000000\n        /* \"#utility.yul\":14392:14394   */\n      0x20\n        /* \"#utility.yul\":14384:14390   */\n      dup3\n        /* \"#utility.yul\":14380:14395   */\n      add\n        /* \"#utility.yul\":14373:14409   */\n      mstore\n        /* \"#utility.yul\":14188:14416   */\n      pop\n      jump\t// out\n        /* \"#utility.yul\":14422:14788   */\n    tag_268:\n        /* \"#utility.yul\":14564:14567   */\n      0x00\n        /* \"#utility.yul\":14585:14652   */\n      tag_434\n        /* \"#utility.yul\":14649:14651   */\n      0x29\n        /* \"#utility.yul\":14644:14647   */\n      dup4\n        /* \"#utility.yul\":14585:14652   */\n      tag_233\n      jump\t// in\n    tag_434:\n        /* \"#utility.yul\":14578:14652   */\n      swap2\n      pop\n        /* \"#utility.yul\":14661:14754   */\n      tag_435\n        /* \"#utility.yul\":14750:14753   */\n      dup3\n        /* \"#utility.yul\":14661:14754   */\n      tag_267\n      jump\t// in\n    tag_435:\n        /* \"#utility.yul\":14779:14781   */\n      0x40\n        /* \"#utility.yul\":14774:14777   */\n      dup3\n        /* \"#utility.yul\":14770:14782   */\n      add\n        /* \"#utility.yul\":14763:14782   */\n      swap1\n      pop\n        /* \"#utility.yul\":14422:14788   */\n      swap2\n      swap1\n      pop\n      jump\t// out\n        /* \"#utility.yul\":14794:15213   */\n    tag_168:\n        /* \"#utility.yul\":14960:14964   */\n      0x00\n        /* \"#utility.yul\":14998:15000   */\n      0x20\n        /* \"#utility.yul\":14987:14996   */\n      dup3\n        /* \"#utility.yul\":14983:15001   */\n      add\n        /* \"#utility.yul\":14975:15001   */\n      swap1\n      pop\n        /* \"#utility.yul\":15047:15056   */\n      dup2\n        /* \"#utility.yul\":15041:15045   */\n      dup2\n        /* \"#utility.yul\":15037:15057   */\n      sub\n        /* \"#utility.yul\":15033:15034   */\n      0x00\n        /* \"#utility.yul\":15022:15031   */\n      dup4\n        /* \"#utility.yul\":15018:15035   */\n      add\n        /* \"#utility.yul\":15011:15058   */\n      mstore\n        /* \"#utility.yul\":15075:15206   */\n      tag_437\n        /* \"#utility.yul\":15201:15205   */\n      dup2\n        /* \"#utility.yul\":15075:15206   */\n      tag_268\n      jump\t// in\n    tag_437:\n        /* \"#utility.yul\":15067:15206   */\n      swap1\n      pop\n        /* \"#utility.yul\":14794:15213   */\n      swap2\n      swap1\n      pop\n      jump\t// out\n        /* \"#utility.yul\":15219:15439   */\n    tag_269:\n        /* \"#utility.yul\":15359:15393   */\n      0x4f6e6c79206f776e65722063616e2063616c6c20746869732066756e6374696f\n        /* \"#utility.yul\":15355:15356   */\n      0x00\n        /* \"#utility.yul\":15347:15353   */\n      dup3\n        /* \"#utility.yul\":15343:15357   */\n      add\n        /* \"#utility.yul\":15336:15394   */\n      mstore\n        /* \"#utility.yul\":15428:15431   */\n      0x6e00000000000000000000000000000000000000000000000000000000000000\n        /* \"#utility.yul\":15423:15425   */\n      0x20\n        /* \"#utility.yul\":15415:15421   */\n      dup3\n        /* \"#utility.yul\":15411:15426   */\n      add\n        /* \"#utility.yul\":15404:15432   */\n      mstore\n        /* \"#utility.yul\":15219:15439   */\n      pop\n      jump\t// out\n        /* \"#utility.yul\":15445:15811   */\n    tag_270:\n        /* \"#utility.yul\":15587:15590   */\n      0x00\n        /* \"#utility.yul\":15608:15675   */\n      tag_440\n        /* \"#utility.yul\":15672:15674   */\n      0x21\n        /* \"#utility.yul\":15667:15670   */\n      dup4\n        /* \"#utility.yul\":15608:15675   */\n      tag_233\n      jump\t// in\n    tag_440:\n        /* \"#utility.yul\":15601:15675   */\n      swap2\n      pop\n        /* \"#utility.yul\":15684:15777   */\n      tag_441\n        /* \"#utility.yul\":15773:15776   */\n      dup3\n        /* \"#utility.yul\":15684:15777   */\n      tag_269\n      jump\t// in\n    tag_441:\n        /* \"#utility.yul\":15802:15804   */\n      0x40\n        /* \"#utility.yul\":15797:15800   */\n      dup3\n        /* \"#utility.yul\":15793:15805   */\n      add\n        /* \"#utility.yul\":15786:15805   */\n      swap1\n      pop\n        /* \"#utility.yul\":15445:15811   */\n      swap2\n      swap1\n      pop\n      jump\t// out\n        /* \"#utility.yul\":15817:16236   */\n    tag_177:\n        /* \"#utility.yul\":15983:15987   */\n      0x00\n        /* \"#utility.yul\":16021:16023   */\n      0x20\n        /* \"#utility.yul\":16010:16019   */\n      dup3\n        /* \"#utility.yul\":16006:16024   */\n      add\n        /* \"#utility.yul\":15998:16024   */\n      swap1\n      pop\n        /* \"#utility.yul\":16070:16079   */\n      dup2\n        /* \"#utility.yul\":16064:16068   */\n      dup2\n        /* \"#utility.yul\":16060:16080   */\n      sub\n        /* \"#utility.yul\":16056:16057   */\n      0x00\n        /* \"#utility.yul\":16045:16054   */\n      dup4\n        /* \"#utility.yul\":16041:16058   */\n      add\n        /* \"#utility.yul\":16034:16081   */\n      mstore\n        /* \"#utility.yul\":16098:16229   */\n      tag_443\n        /* \"#utility.yul\":16224:16228   */\n      dup2\n        /* \"#utility.yul\":16098:16229   */\n      tag_270\n      jump\t// in\n    tag_443:\n        /* \"#utility.yul\":16090:16229   */\n      swap1\n      pop\n        /* \"#utility.yul\":15817:16236   */\n      swap2\n      swap1\n      pop\n      jump\t// out\n        /* \"#utility.yul\":16242:16417   */\n    tag_271:\n        /* \"#utility.yul\":16382:16409   */\n      0x53616c6520697320616c72656164792066696e616c697a656400000000000000\n        /* \"#utility.yul\":16378:16379   */\n      0x00\n        /* \"#utility.yul\":16370:16376   */\n      dup3\n        /* \"#utility.yul\":16366:16380   */\n      add\n        /* \"#utility.yul\":16359:16410   */\n      mstore\n        /* \"#utility.yul\":16242:16417   */\n      pop\n      jump\t// out\n        /* \"#utility.yul\":16423:16789   */\n    tag_272:\n        /* \"#utility.yul\":16565:16568   */\n      0x00\n        /* \"#utility.yul\":16586:16653   */\n      tag_446\n        /* \"#utility.yul\":16650:16652   */\n      0x19\n        /* \"#utility.yul\":16645:16648   */\n      dup4\n        /* \"#utility.yul\":16586:16653   */\n      tag_233\n      jump\t// in\n    tag_446:\n        /* \"#utility.yul\":16579:16653   */\n      swap2\n      pop\n        /* \"#utility.yul\":16662:16755   */\n      tag_447\n        /* \"#utility.yul\":16751:16754   */\n      dup3\n        /* \"#utility.yul\":16662:16755   */\n      tag_271\n      jump\t// in\n    tag_447:\n        /* \"#utility.yul\":16780:16782   */\n      0x20\n        /* \"#utility.yul\":16775:16778   */\n      dup3\n        /* \"#utility.yul\":16771:16783   */\n      add\n        /* \"#utility.yul\":16764:16783   */\n      swap1\n      pop\n        /* \"#utility.yul\":16423:16789   */\n      swap2\n      swap1\n      pop\n      jump\t// out\n        /* \"#utility.yul\":16795:17214   */\n    tag_180:\n        /* \"#utility.yul\":16961:16965   */\n      0x00\n        /* \"#utility.yul\":16999:17001   */\n      0x20\n        /* \"#utility.yul\":16988:16997   */\n      dup3\n        /* \"#utility.yul\":16984:17002   */\n      add\n        /* \"#utility.yul\":16976:17002   */\n      swap1\n      pop\n        /* \"#utility.yul\":17048:17057   */\n      dup2\n        /* \"#utility.yul\":17042:17046   */\n      dup2\n        /* \"#utility.yul\":17038:17058   */\n      sub\n        /* \"#utility.yul\":17034:17035   */\n      0x00\n        /* \"#utility.yul\":17023:17032   */\n      dup4\n        /* \"#utility.yul\":17019:17036   */\n      add\n        /* \"#utility.yul\":17012:17059   */\n      mstore\n        /* \"#utility.yul\":17076:17207   */\n      tag_449\n        /* \"#utility.yul\":17202:17206   */\n      dup2\n        /* \"#utility.yul\":17076:17207   */\n      tag_272\n      jump\t// in\n    tag_449:\n        /* \"#utility.yul\":17068:17207   */\n      swap1\n      pop\n        /* \"#utility.yul\":16795:17214   */\n      swap2\n      swap1\n      pop\n      jump\t// out\n        /* \"#utility.yul\":17220:17391   */\n    tag_273:\n        /* \"#utility.yul\":17360:17383   */\n      0x53616c65206e6f742066696e6973686564207965740000000000000000000000\n        /* \"#utility.yul\":17356:17357   */\n      0x00\n        /* \"#utility.yul\":17348:17354   */\n      dup3\n        /* \"#utility.yul\":17344:17358   */\n      add\n        /* \"#utility.yul\":17337:17384   */\n      mstore\n        /* \"#utility.yul\":17220:17391   */\n      pop\n      jump\t// out\n        /* \"#utility.yul\":17397:17763   */\n    tag_274:\n        /* \"#utility.yul\":17539:17542   */\n      0x00\n        /* \"#utility.yul\":17560:17627   */\n      tag_452\n        /* \"#utility.yul\":17624:17626   */\n      0x15\n        /* \"#utility.yul\":17619:17622   */\n      dup4\n        /* \"#utility.yul\":17560:17627   */\n      tag_233\n      jump\t// in\n    tag_452:\n        /* \"#utility.yul\":17553:17627   */\n      swap2\n      pop\n        /* \"#utility.yul\":17636:17729   */\n      tag_453\n        /* \"#utility.yul\":17725:17728   */\n      dup3\n        /* \"#utility.yul\":17636:17729   */\n      tag_273\n      jump\t// in\n    tag_453:\n        /* \"#utility.yul\":17754:17756   */\n      0x20\n        /* \"#utility.yul\":17749:17752   */\n      dup3\n        /* \"#utility.yul\":17745:17757   */\n      add\n        /* \"#utility.yul\":17738:17757   */\n      swap1\n      pop\n        /* \"#utility.yul\":17397:17763   */\n      swap2\n      swap1\n      pop\n      jump\t// out\n        /* \"#utility.yul\":17769:18188   */\n    tag_183:\n        /* \"#utility.yul\":17935:17939   */\n      0x00\n        /* \"#utility.yul\":17973:17975   */\n      0x20\n        /* \"#utility.yul\":17962:17971   */\n      dup3\n        /* \"#utility.yul\":17958:17976   */\n      add\n        /* \"#utility.yul\":17950:17976   */\n      swap1\n      pop\n        /* \"#utility.yul\":18022:18031   */\n      dup2\n        /* \"#utility.yul\":18016:18020   */\n      dup2\n        /* \"#utility.yul\":18012:18032   */\n      sub\n        /* \"#utility.yul\":18008:18009   */\n      0x00\n        /* \"#utility.yul\":17997:18006   */\n      dup4\n        /* \"#utility.yul\":17993:18010   */\n      add\n        /* \"#utility.yul\":17986:18033   */\n      mstore\n        /* \"#utility.yul\":18050:18181   */\n      tag_455\n        /* \"#utility.yul\":18176:18180   */\n      dup2\n        /* \"#utility.yul\":18050:18181   */\n      tag_274\n      jump\t// in\n    tag_455:\n        /* \"#utility.yul\":18042:18181   */\n      swap1\n      pop\n        /* \"#utility.yul\":17769:18188   */\n      swap2\n      swap1\n      pop\n      jump\t// out\n        /* \"#utility.yul\":18194:18388   */\n    tag_185:\n        /* \"#utility.yul\":18234:18238   */\n      0x00\n        /* \"#utility.yul\":18254:18274   */\n      tag_457\n        /* \"#utility.yul\":18272:18273   */\n      dup3\n        /* \"#utility.yul\":18254:18274   */\n      tag_244\n      jump\t// in\n    tag_457:\n        /* \"#utility.yul\":18249:18274   */\n      swap2\n      pop\n        /* \"#utility.yul\":18288:18308   */\n      tag_458\n        /* \"#utility.yul\":18306:18307   */\n      dup4\n        /* \"#utility.yul\":18288:18308   */\n      tag_244\n      jump\t// in\n    tag_458:\n        /* \"#utility.yul\":18283:18308   */\n      swap3\n      pop\n        /* \"#utility.yul\":18332:18333   */\n      dup3\n        /* \"#utility.yul\":18329:18330   */\n      dup3\n        /* \"#utility.yul\":18325:18334   */\n      sub\n        /* \"#utility.yul\":18317:18334   */\n      swap1\n      pop\n        /* \"#utility.yul\":18356:18357   */\n      dup2\n        /* \"#utility.yul\":18350:18354   */\n      dup2\n        /* \"#utility.yul\":18347:18358   */\n      gt\n        /* \"#utility.yul\":18344:18381   */\n      iszero\n      tag_459\n      jumpi\n        /* \"#utility.yul\":18361:18379   */\n      tag_460\n      tag_259\n      jump\t// in\n    tag_460:\n        /* \"#utility.yul\":18344:18381   */\n    tag_459:\n        /* \"#utility.yul\":18194:18388   */\n      swap3\n      swap2\n      pop\n      pop\n      jump\t// out\n        /* \"#utility.yul\":18394:18541   */\n    tag_275:\n        /* \"#utility.yul\":18495:18506   */\n      0x00\n        /* \"#utility.yul\":18532:18535   */\n      dup2\n        /* \"#utility.yul\":18517:18535   */\n      swap1\n      pop\n        /* \"#utility.yul\":18394:18541   */\n      swap3\n      swap2\n      pop\n      pop\n      jump\t// out\n        /* \"#utility.yul\":18547:18661   */\n    tag_276:\n      pop\n      jump\t// out\n        /* \"#utility.yul\":18667:19065   */\n    tag_277:\n        /* \"#utility.yul\":18826:18829   */\n      0x00\n        /* \"#utility.yul\":18847:18930   */\n      tag_464\n        /* \"#utility.yul\":18928:18929   */\n      0x00\n        /* \"#utility.yul\":18923:18926   */\n      dup4\n        /* \"#utility.yul\":18847:18930   */\n      tag_275\n      jump\t// in\n    tag_464:\n        /* \"#utility.yul\":18840:18930   */\n      swap2\n      pop\n        /* \"#utility.yul\":18939:19032   */\n      tag_465\n        /* \"#utility.yul\":19028:19031   */\n      dup3\n        /* \"#utility.yul\":18939:19032   */\n      tag_276\n      jump\t// in\n    tag_465:\n        /* \"#utility.yul\":19057:19058   */\n      0x00\n        /* \"#utility.yul\":19052:19055   */\n      dup3\n        /* \"#utility.yul\":19048:19059   */\n      add\n        /* \"#utility.yul\":19041:19059   */\n      swap1\n      pop\n        /* \"#utility.yul\":18667:19065   */\n      swap2\n      swap1\n      pop\n      jump\t// out\n        /* \"#utility.yul\":19071:19450   */\n    tag_187:\n        /* \"#utility.yul\":19255:19258   */\n      0x00\n        /* \"#utility.yul\":19277:19424   */\n      tag_467\n        /* \"#utility.yul\":19420:19423   */\n      dup3\n        /* \"#utility.yul\":19277:19424   */\n      tag_277\n      jump\t// in\n    tag_467:\n        /* \"#utility.yul\":19270:19424   */\n      swap2\n      pop\n        /* \"#utility.yul\":19441:19444   */\n      dup2\n        /* \"#utility.yul\":19434:19444   */\n      swap1\n      pop\n        /* \"#utility.yul\":19071:19450   */\n      swap2\n      swap1\n      pop\n      jump\t// out\n        /* \"#utility.yul\":19456:19621   */\n    tag_278:\n        /* \"#utility.yul\":19596:19613   */\n      0x5472616e73666572206661696c65640000000000000000000000000000000000\n        /* \"#utility.yul\":19592:19593   */\n      0x00\n        /* \"#utility.yul\":19584:19590   */\n      dup3\n        /* \"#utility.yul\":19580:19594   */\n      add\n        /* \"#utility.yul\":19573:19614   */\n      mstore\n        /* \"#utility.yul\":19456:19621   */\n      pop\n      jump\t// out\n        /* \"#utility.yul\":19627:19993   */\n    tag_279:\n        /* \"#utility.yul\":19769:19772   */\n      0x00\n        /* \"#utility.yul\":19790:19857   */\n      tag_470\n        /* \"#utility.yul\":19854:19856   */\n      0x0f\n        /* \"#utility.yul\":19849:19852   */\n      dup4\n        /* \"#utility.yul\":19790:19857   */\n      tag_233\n      jump\t// in\n    tag_470:\n        /* \"#utility.yul\":19783:19857   */\n      swap2\n      pop\n        /* \"#utility.yul\":19866:19959   */\n      tag_471\n        /* \"#utility.yul\":19955:19958   */\n      dup3\n        /* \"#utility.yul\":19866:19959   */\n      tag_278\n      jump\t// in\n    tag_471:\n        /* \"#utility.yul\":19984:19986   */\n      0x20\n        /* \"#utility.yul\":19979:19982   */\n      dup3\n        /* \"#utility.yul\":19975:19987   */\n      add\n        /* \"#utility.yul\":19968:19987   */\n      swap1\n      pop\n        /* \"#utility.yul\":19627:19993   */\n      swap2\n      swap1\n      pop\n      jump\t// out\n        /* \"#utility.yul\":19999:20418   */\n    tag_193:\n        /* \"#utility.yul\":20165:20169   */\n      0x00\n        /* \"#utility.yul\":20203:20205   */\n      0x20\n        /* \"#utility.yul\":20192:20201   */\n      dup3\n        /* \"#utility.yul\":20188:20206   */\n      add\n        /* \"#utility.yul\":20180:20206   */\n      swap1\n      pop\n        /* \"#utility.yul\":20252:20261   */\n      dup2\n        /* \"#utility.yul\":20246:20250   */\n      dup2\n        /* \"#utility.yul\":20242:20262   */\n      sub\n        /* \"#utility.yul\":20238:20239   */\n      0x00\n        /* \"#utility.yul\":20227:20236   */\n      dup4\n        /* \"#utility.yul\":20223:20240   */\n      add\n        /* \"#utility.yul\":20216:20263   */\n      mstore\n        /* \"#utility.yul\":20280:20411   */\n      tag_473\n        /* \"#utility.yul\":20406:20410   */\n      dup2\n        /* \"#utility.yul\":20280:20411   */\n      tag_279\n      jump\t// in\n    tag_473:\n        /* \"#utility.yul\":20272:20411   */\n      swap1\n      pop\n        /* \"#utility.yul\":19999:20418   */\n      swap2\n      swap1\n      pop\n      jump\t// out\n        /* \"#utility.yul\":20424:20646   */\n    tag_280:\n        /* \"#utility.yul\":20564:20598   */\n      0x43616e6e6f74207472616e7366657220746f20746865207a65726f2061646472\n        /* \"#utility.yul\":20560:20561   */\n      0x00\n        /* \"#utility.yul\":20552:20558   */\n      dup3\n        /* \"#utility.yul\":20548:20562   */\n      add\n        /* \"#utility.yul\":20541:20599   */\n      mstore\n        /* \"#utility.yul\":20633:20638   */\n      0x6573730000000000000000000000000000000000000000000000000000000000\n        /* \"#utility.yul\":20628:20630   */\n      0x20\n        /* \"#utility.yul\":20620:20626   */\n      dup3\n        /* \"#utility.yul\":20616:20631   */\n      add\n        /* \"#utility.yul\":20609:20639   */\n      mstore\n        /* \"#utility.yul\":20424:20646   */\n      pop\n      jump\t// out\n        /* \"#utility.yul\":20652:21018   */\n    tag_281:\n        /* \"#utility.yul\":20794:20797   */\n      0x00\n        /* \"#utility.yul\":20815:20882   */\n      tag_476\n        /* \"#utility.yul\":20879:20881   */\n      0x23\n        /* \"#utility.yul\":20874:20877   */\n      dup4\n        /* \"#utility.yul\":20815:20882   */\n      tag_233\n      jump\t// in\n    tag_476:\n        /* \"#utility.yul\":20808:20882   */\n      swap2\n      pop\n        /* \"#utility.yul\":20891:20984   */\n      tag_477\n        /* \"#utility.yul\":20980:20983   */\n      dup3\n        /* \"#utility.yul\":20891:20984   */\n      tag_280\n      jump\t// in\n    tag_477:\n        /* \"#utility.yul\":21009:21011   */\n      0x40\n        /* \"#utility.yul\":21004:21007   */\n      dup3\n        /* \"#utility.yul\":21000:21012   */\n      add\n        /* \"#utility.yul\":20993:21012   */\n      swap1\n      pop\n        /* \"#utility.yul\":20652:21018   */\n      swap2\n      swap1\n      pop\n      jump\t// out\n        /* \"#utility.yul\":21024:21443   */\n    tag_215:\n        /* \"#utility.yul\":21190:21194   */\n      0x00\n        /* \"#utility.yul\":21228:21230   */\n      0x20\n        /* \"#utility.yul\":21217:21226   */\n      dup3\n        /* \"#utility.yul\":21213:21231   */\n      add\n        /* \"#utility.yul\":21205:21231   */\n      swap1\n      pop\n        /* \"#utility.yul\":21277:21286   */\n      dup2\n        /* \"#utility.yul\":21271:21275   */\n      dup2\n        /* \"#utility.yul\":21267:21287   */\n      sub\n        /* \"#utility.yul\":21263:21264   */\n      0x00\n        /* \"#utility.yul\":21252:21261   */\n      dup4\n        /* \"#utility.yul\":21248:21265   */\n      add\n        /* \"#utility.yul\":21241:21288   */\n      mstore\n        /* \"#utility.yul\":21305:21436   */\n      tag_479\n        /* \"#utility.yul\":21431:21435   */\n      dup2\n        /* \"#utility.yul\":21305:21436   */\n      tag_281\n      jump\t// in\n    tag_479:\n        /* \"#utility.yul\":21297:21436   */\n      swap1\n      pop\n        /* \"#utility.yul\":21024:21443   */\n      swap2\n      swap1\n      pop\n      jump\t// out\n        /* \"#utility.yul\":21449:21617   */\n    tag_282:\n        /* \"#utility.yul\":21589:21609   */\n      0x4e6f7420656e6f7567682062616c616e63650000000000000000000000000000\n        /* \"#utility.yul\":21585:21586   */\n      0x00\n        /* \"#utility.yul\":21577:21583   */\n      dup3\n        /* \"#utility.yul\":21573:21587   */\n      add\n        /* \"#utility.yul\":21566:21610   */\n      mstore\n        /* \"#utility.yul\":21449:21617   */\n      pop\n      jump\t// out\n        /* \"#utility.yul\":21623:21989   */\n    tag_283:\n        /* \"#utility.yul\":21765:21768   */\n      0x00\n        /* \"#utility.yul\":21786:21853   */\n      tag_482\n        /* \"#utility.yul\":21850:21852   */\n      0x12\n        /* \"#utility.yul\":21845:21848   */\n      dup4\n        /* \"#utility.yul\":21786:21853   */\n      tag_233\n      jump\t// in\n    tag_482:\n        /* \"#utility.yul\":21779:21853   */\n      swap2\n      pop\n        /* \"#utility.yul\":21862:21955   */\n      tag_483\n        /* \"#utility.yul\":21951:21954   */\n      dup3\n        /* \"#utility.yul\":21862:21955   */\n      tag_282\n      jump\t// in\n    tag_483:\n        /* \"#utility.yul\":21980:21982   */\n      0x20\n        /* \"#utility.yul\":21975:21978   */\n      dup3\n        /* \"#utility.yul\":21971:21983   */\n      add\n        /* \"#utility.yul\":21964:21983   */\n      swap1\n      pop\n        /* \"#utility.yul\":21623:21989   */\n      swap2\n      swap1\n      pop\n      jump\t// out\n        /* \"#utility.yul\":21995:22414   */\n    tag_222:\n        /* \"#utility.yul\":22161:22165   */\n      0x00\n        /* \"#utility.yul\":22199:22201   */\n      0x20\n        /* \"#utility.yul\":22188:22197   */\n      dup3\n        /* \"#utility.yul\":22184:22202   */\n      add\n        /* \"#utility.yul\":22176:22202   */\n      swap1\n      pop\n        /* \"#utility.yul\":22248:22257   */\n      dup2\n        /* \"#utility.yul\":22242:22246   */\n      dup2\n        /* \"#utility.yul\":22238:22258   */\n      sub\n        /* \"#utility.yul\":22234:22235   */\n      0x00\n        /* \"#utility.yul\":22223:22232   */\n      dup4\n        /* \"#utility.yul\":22219:22236   */\n      add\n        /* \"#utility.yul\":22212:22259   */\n      mstore\n        /* \"#utility.yul\":22276:22407   */\n      tag_485\n        /* \"#utility.yul\":22402:22406   */\n      dup2\n        /* \"#utility.yul\":22276:22407   */\n      tag_283\n      jump\t// in\n    tag_485:\n        /* \"#utility.yul\":22268:22407   */\n      swap1\n      pop\n        /* \"#utility.yul\":21995:22414   */\n      swap2\n      swap1\n      pop\n      jump\t// out\n        /* \"#utility.yul\":22420:22590   */\n    tag_284:\n        /* \"#utility.yul\":22560:22582   */\n      0x4e6f7420656e6f75676820616c6c6f77656e6365000000000000000000000000\n        /* \"#utility.yul\":22556:22557   */\n      0x00\n        /* \"#utility.yul\":22548:22554   */\n      dup3\n        /* \"#utility.yul\":22544:22558   */\n      add\n        /* \"#utility.yul\":22537:22583   */\n      mstore\n        /* \"#utility.yul\":22420:22590   */\n      pop\n      jump\t// out\n        /* \"#utility.yul\":22596:22962   */\n    tag_285:\n        /* \"#utility.yul\":22738:22741   */\n      0x00\n        /* \"#utility.yul\":22759:22826   */\n      tag_488\n        /* \"#utility.yul\":22823:22825   */\n      0x14\n        /* \"#utility.yul\":22818:22821   */\n      dup4\n        /* \"#utility.yul\":22759:22826   */\n      tag_233\n      jump\t// in\n    tag_488:\n        /* \"#utility.yul\":22752:22826   */\n      swap2\n      pop\n        /* \"#utility.yul\":22835:22928   */\n      tag_489\n        /* \"#utility.yul\":22924:22927   */\n      dup3\n        /* \"#utility.yul\":22835:22928   */\n      tag_284\n      jump\t// in\n    tag_489:\n        /* \"#utility.yul\":22953:22955   */\n      0x20\n        /* \"#utility.yul\":22948:22951   */\n      dup3\n        /* \"#utility.yul\":22944:22956   */\n      add\n        /* \"#utility.yul\":22937:22956   */\n      swap1\n      pop\n        /* \"#utility.yul\":22596:22962   */\n      swap2\n      swap1\n      pop\n      jump\t// out\n        /* \"#utility.yul\":22968:23387   */\n    tag_225:\n        /* \"#utility.yul\":23134:23138   */\n      0x00\n        /* \"#utility.yul\":23172:23174   */\n      0x20\n        /* \"#utility.yul\":23161:23170   */\n      dup3\n        /* \"#utility.yul\":23157:23175   */\n      add\n        /* \"#utility.yul\":23149:23175   */\n      swap1\n      pop\n        /* \"#utility.yul\":23221:23230   */\n      dup2\n        /* \"#utility.yul\":23215:23219   */\n      dup2\n        /* \"#utility.yul\":23211:23231   */\n      sub\n        /* \"#utility.yul\":23207:23208   */\n      0x00\n        /* \"#utility.yul\":23196:23205   */\n      dup4\n        /* \"#utility.yul\":23192:23209   */\n      add\n        /* \"#utility.yul\":23185:23232   */\n      mstore\n        /* \"#utility.yul\":23249:23380   */\n      tag_491\n        /* \"#utility.yul\":23375:23379   */\n      dup2\n        /* \"#utility.yul\":23249:23380   */\n      tag_285\n      jump\t// in\n    tag_491:\n        /* \"#utility.yul\":23241:23380   */\n      swap1\n      pop\n        /* \"#utility.yul\":22968:23387   */\n      swap2\n      swap1\n      pop\n      jump\t// out\n\n    auxdata: 0xa264697066735822122003cd841779cc960020d0fde1fc745ef5f86562fc082a1775743cc743c5414e1a64736f6c634300081e0033\n}\n",
				"bytecode": {
					"linkReferences": {},
					"object": "60806040526040518060400160405280600c81526020017f5765623320436f6d7061737300000000000000000000000000000000000000008152505f90816100479190610642565b506040518060400160405280600381526020017f57425400000000000000000000000000000000000000000000000000000000008152506001908161008c9190610642565b50601260025f6101000a81548160ff021916908360ff1602179055505f600c60146101000a81548160ff0219169083151502179055505f600c60156101000a81548160ff0219169083151502179055503480156100e7575f5ffd5b5060405161294538038061294583398181016040528101906101099190610799565b8560025f9054906101000a900460ff16600a610125919061098a565b8161013091906109d4565b60038190555060035460045f3373ffffffffffffffffffffffffffffffffffffffff1673ffffffffffffffffffffffffffffffffffffffff1681526020019081526020015f20819055503373ffffffffffffffffffffffffffffffffffffffff165f73ffffffffffffffffffffffffffffffffffffffff167fddf252ad1be2c89b69c2b068fc378daa952ba7f163c4a11628f55a4df523b3ef836040516101d79190610a24565b60405180910390a350846006819055504260078190555083426101fa9190610a3d565b6008819055508260098190555081600a8190555080600c5f6101000a81548173ffffffffffffffffffffffffffffffffffffffff021916908373ffffffffffffffffffffffffffffffffffffffff160217905550610261333060035461028760201b60201c565b6001600c60156101000a81548160ff021916908315150217905550505050505050610b41565b5f73ffffffffffffffffffffffffffffffffffffffff168273ffffffffffffffffffffffffffffffffffffffff16036102f5576040517f08c379a00000000000000000000000000000000000000000000000000000000081526004016102ec90610af0565b60405180910390fd5b8060045f8573ffffffffffffffffffffffffffffffffffffffff1673ffffffffffffffffffffffffffffffffffffffff1681526020019081526020015f205f8282546103419190610b0e565b925050819055508060045f8473ffffffffffffffffffffffffffffffffffffffff1673ffffffffffffffffffffffffffffffffffffffff1681526020019081526020015f205f8282546103949190610a3d565b925050819055508173ffffffffffffffffffffffffffffffffffffffff168373ffffffffffffffffffffffffffffffffffffffff167fddf252ad1be2c89b69c2b068fc378daa952ba7f163c4a11628f55a4df523b3ef836040516103f89190610a24565b60405180910390a3505050565b5f81519050919050565b7f4e487b71000000000000000000000000000000000000000000000000000000005f52604160045260245ffd5b7f4e487b71000000000000000000000000000000000000000000000000000000005f52602260045260245ffd5b5f600282049050600182168061048057607f821691505b6020821081036104935761049261043c565b5b50919050565b5f819050815f5260205f209050919050565b5f6020601f8301049050919050565b5f82821b905092915050565b5f600883026104f57fffffffffffffffffffffffffffffffffffffffffffffffffffffffffffffffff826104ba565b6104ff86836104ba565b95508019841693508086168417925050509392505050565b5f819050919050565b5f819050919050565b5f61054361053e61053984610517565b610520565b610517565b9050919050565b5f819050919050565b61055c83610529565b6105706105688261054a565b8484546104c6565b825550505050565b5f5f905090565b610587610578565b610592818484610553565b505050565b5b818110156105b5576105aa5f8261057f565b600181019050610598565b5050565b601f8211156105fa576105cb81610499565b6105d4846104ab565b810160208510156105e3578190505b6105f76105ef856104ab565b830182610597565b50505b505050565b5f82821c905092915050565b5f61061a5f19846008026105ff565b1980831691505092915050565b5f610632838361060b565b9150826002028217905092915050565b61064b82610405565b67ffffffffffffffff8111156106645761066361040f565b5b61066e8254610469565b6106798282856105b9565b5f60209050601f8311600181146106aa575f8415610698578287015190505b6106a28582610627565b865550610709565b601f1984166106b886610499565b5f5b828110156106df578489015182556001820191506020850194506020810190506106ba565b868310156106fc57848901516106f8601f89168261060b565b8355505b6001600288020188555050505b505050505050565b5f5ffd5b61071e81610517565b8114610728575f5ffd5b50565b5f8151905061073981610715565b92915050565b5f73ffffffffffffffffffffffffffffffffffffffff82169050919050565b5f6107688261073f565b9050919050565b6107788161075e565b8114610782575f5ffd5b50565b5f815190506107938161076f565b92915050565b5f5f5f5f5f5f60c087890312156107b3576107b2610711565b5b5f6107c089828a0161072b565b96505060206107d189828a0161072b565b95505060406107e289828a0161072b565b94505060606107f389828a0161072b565b935050608061080489828a0161072b565b92505060a061081589828a01610785565b9150509295509295509295565b7f4e487b71000000000000000000000000000000000000000000000000000000005f52601160045260245ffd5b5f8160011c9050919050565b5f5f8291508390505b60018511156108a4578086048111156108805761087f610822565b5b600185161561088f5780820291505b808102905061089d8561084f565b9450610864565b94509492505050565b5f826108bc5760019050610977565b816108c9575f9050610977565b81600181146108df57600281146108e957610918565b6001915050610977565b60ff8411156108fb576108fa610822565b5b8360020a91508482111561091257610911610822565b5b50610977565b5060208310610133831016604e8410600b841016171561094d5782820a90508381111561094857610947610822565b5b610977565b61095a848484600161085b565b9250905081840481111561097157610970610822565b5b81810290505b9392505050565b5f60ff82169050919050565b5f61099482610517565b915061099f8361097e565b92506109cc7fffffffffffffffffffffffffffffffffffffffffffffffffffffffffffffffff84846108ad565b905092915050565b5f6109de82610517565b91506109e983610517565b92508282026109f781610517565b91508282048414831517610a0e57610a0d610822565b5b5092915050565b610a1e81610517565b82525050565b5f602082019050610a375f830184610a15565b92915050565b5f610a4782610517565b9150610a5283610517565b9250828201905080821115610a6a57610a69610822565b5b92915050565b5f82825260208201905092915050565b7f43616e6e6f74207472616e7366657220746f20746865207a65726f20616464725f8201527f6573730000000000000000000000000000000000000000000000000000000000602082015250565b5f610ada602383610a70565b9150610ae582610a80565b604082019050919050565b5f6020820190508181035f830152610b0781610ace565b9050919050565b5f610b1882610517565b9150610b2383610517565b9250828203905081811115610b3b57610b3a610822565b5b92915050565b611df780610b4e5f395ff3fe608060405260043610610138575f3560e01c80637ff9b596116100aa578063b3f05b971161006e578063b3f05b9714610413578063c5c4744c1461043d578063d0febe4c14610467578063dd62ed3e14610471578063e3cfef60146104ad578063ed338ff1146104d757610147565b80637ff9b5961461032f57806395d89b4114610359578063977b055b14610383578063a4475ce4146103ad578063a9059cbb146103d757610147565b8063313ce567116100fc578063313ce5671461024157806333b5b62e1461026b578063564566a81461029557806358a687ec146102bf57806360659a92146102c957806370a08231146102f357610147565b806306fdde031461014b578063095ea7b31461017557806318160ddd146101b15780631cbaee2d146101db57806323b872dd1461020557610147565b3661014757610145610501565b005b5f5ffd5b348015610156575f5ffd5b5061015f610701565b60405161016c91906112a1565b60405180910390f35b348015610180575f5ffd5b5061019b60048036038101906101969190611352565b61078c565b6040516101a891906113aa565b60405180910390f35b3480156101bc575f5ffd5b506101c5610879565b6040516101d291906113d2565b60405180910390f35b3480156101e6575f5ffd5b506101ef61087f565b6040516101fc91906113d2565b60405180910390f35b348015610210575f5ffd5b5061022b600480360381019061022691906113eb565b610885565b60405161023891906113aa565b60405180910390f35b34801561024c575f5ffd5b50610255610929565b6040516102629190611456565b60405180910390f35b348015610276575f5ffd5b5061027f61093b565b60405161028c91906113d2565b60405180910390f35b3480156102a0575f5ffd5b506102a9610941565b6040516102b691906113aa565b60405180910390f35b6102c7610974565b005b3480156102d4575f5ffd5b506102dd610c08565b6040516102ea91906113d2565b60405180910390f35b3480156102fe575f5ffd5b506103196004803603810190610314919061146f565b610c4c565b60405161032691906113d2565b60405180910390f35b34801561033a575f5ffd5b50610343610c61565b60405161035091906113d2565b60405180910390f35b348015610364575f5ffd5b5061036d610c67565b60405161037a91906112a1565b60405180910390f35b34801561038e575f5ffd5b50610397610cf3565b6040516103a491906113d2565b60405180910390f35b3480156103b8575f5ffd5b506103c1610cf9565b6040516103ce91906114a9565b60405180910390f35b3480156103e2575f5ffd5b506103fd60048036038101906103f89190611352565b610d1e565b60405161040a91906113aa565b60405180910390f35b34801561041e575f5ffd5b50610427610dd8565b60405161043491906113aa565b60405180910390f35b348015610448575f5ffd5b50610451610deb565b60405161045e91906113d2565b60405180910390f35b61046f610501565b005b34801561047c575f5ffd5b50610497600480360381019061049291906114c2565b610df1565b6040516104a491906113d2565b60405180910390f35b3480156104b8575f5ffd5b506104c1610e11565b6040516104ce91906113d2565b60405180910390f35b3480156104e2575f5ffd5b506104eb610e37565b6040516104f891906113d2565b60405180910390f35b610509610941565b610548576040517f08c379a000000000000000000000000000000000000000000000000000000000815260040161053f9061154a565b60405180910390fd5b60095434101561058d576040517f08c379a0000000000000000000000000000000000000000000000000000000008152600401610584906115b2565b60405180910390fd5b600a543411156105d2576040517f08c379a00000000000000000000000000000000000000000000000000000000081526004016105c99061161a565b60405180910390fd5b5f60065460025f9054906101000a900460ff1660ff16600a6105f49190611794565b346105ff91906117de565b610609919061184c565b90508060045f3073ffffffffffffffffffffffffffffffffffffffff1673ffffffffffffffffffffffffffffffffffffffff1681526020019081526020015f2054101561068b576040517f08c379a0000000000000000000000000000000000000000000000000000000008152600401610682906118c6565b60405180910390fd5b34600b5f82825461069c91906118e4565b925050819055506106ae303383610e3d565b3373ffffffffffffffffffffffffffffffffffffffff167f8fafebcaf9d154343dad25669bfa277f4fbacd7ac6b0c4fed522580e040a0f3334836040516106f6929190611917565b60405180910390a250565b5f805461070d9061196b565b80601f01602080910402602001604051908101604052809291908181526020018280546107399061196b565b80156107845780601f1061075b57610100808354040283529160200191610784565b820191905f5260205f20905b81548152906001019060200180831161076757829003601f168201915b505050505081565b5f8160055f3373ffffffffffffffffffffffffffffffffffffffff1673ffffffffffffffffffffffffffffffffffffffff1681526020019081526020015f205f8573ffffffffffffffffffffffffffffffffffffffff1673ffffffffffffffffffffffffffffffffffffffff1681526020019081526020015f20819055508273ffffffffffffffffffffffffffffffffffffffff163373ffffffffffffffffffffffffffffffffffffffff167f8c5be1e5ebec7d5bd14f71427d1e84f3dd0314c0f7b2291e5b200ac8c7c3b9258460405161086791906113d2565b60405180910390a36001905092915050565b60035481565b60075481565b5f600c60149054906101000a900460ff161580156108cf57503073ffffffffffffffffffffffffffffffffffffffff168473ffffffffffffffffffffffffffffffffffffffff1614155b15610915575f610914576040517f08c379a000000000000000000000000000000000000000000000000000000000815260040161090b90611a0b565b60405180910390fd5b5b610920848484610fbb565b90509392505050565b60025f9054906101000a900460ff1681565b60095481565b5f600c60149054906101000a900460ff1615801561096157506007544210155b801561096f57506008544211155b905090565b600c5f9054906101000a900473ffffffffffffffffffffffffffffffffffffffff1673ffffffffffffffffffffffffffffffffffffffff163373ffffffffffffffffffffffffffffffffffffffff1614610a03576040517f08c379a00000000000000000000000000000000000000000000000000000000081526004016109fa90611a99565b60405180910390fd5b600c60149054906101000a900460ff1615610a53576040517f08c379a0000000000000000000000000000000000000000000000000000000008152600401610a4a90611b01565b60405180910390fd5b6008544211610a97576040517f08c379a0000000000000000000000000000000000000000000000000000000008152600401610a8e90611b69565b60405180910390fd5b6001600c60146101000a81548160ff0219169083151502179055505f60045f3073ffffffffffffffffffffffffffffffffffffffff1673ffffffffffffffffffffffffffffffffffffffff1681526020019081526020015f2054600354610afe9190611b87565b90505f600c5f9054906101000a900473ffffffffffffffffffffffffffffffffffffffff1673ffffffffffffffffffffffffffffffffffffffff1647604051610b4690611be7565b5f6040518083038185875af1925050503d805f8114610b80576040519150601f19603f3d011682016040523d82523d5f602084013e610b85565b606091505b5050905080610bc9576040517f08c379a0000000000000000000000000000000000000000000000000000000008152600401610bc090611c45565b60405180910390fd5b7f17b1a568460bc127a7f9a9677d502ac593fa4af690a1c3aed38bda591e196e2e600b5483604051610bfc929190611917565b60405180910390a15050565b5f60045f3073ffffffffffffffffffffffffffffffffffffffff1673ffffffffffffffffffffffffffffffffffffffff1681526020019081526020015f2054905090565b6004602052805f5260405f205f915090505481565b60065481565b60018054610c749061196b565b80601f0160208091040260200160405190810160405280929190818152602001828054610ca09061196b565b8015610ceb5780601f10610cc257610100808354040283529160200191610ceb565b820191905f5260205f20905b815481529060010190602001808311610cce57829003601f168201915b505050505081565b600a5481565b600c5f9054906101000a900473ffffffffffffffffffffffffffffffffffffffff1681565b5f600c60149054906101000a900460ff16158015610d6857503073ffffffffffffffffffffffffffffffffffffffff163373ffffffffffffffffffffffffffffffffffffffff1614155b8015610d805750600c60159054906101000a900460ff165b15610dc6575f610dc5576040517f08c379a0000000000000000000000000000000000000000000000000000000008152600401610dbc90611a0b565b60405180910390fd5b5b610dd0838361119b565b905092915050565b600c60149054906101000a900460ff1681565b600b5481565b6005602052815f5260405f20602052805f5260405f205f91509150505481565b5f6008544210610e23575f9050610e34565b42600854610e319190611b87565b90505b90565b60085481565b5f73ffffffffffffffffffffffffffffffffffffffff168273ffffffffffffffffffffffffffffffffffffffff1603610eab576040517f08c379a0000000000000000000000000000000000000000000000000000000008152600401610ea290611cd3565b60405180910390fd5b8060045f8573ffffffffffffffffffffffffffffffffffffffff1673ffffffffffffffffffffffffffffffffffffffff1681526020019081526020015f205f828254610ef79190611b87565b925050819055508060045f8473ffffffffffffffffffffffffffffffffffffffff1673ffffffffffffffffffffffffffffffffffffffff1681526020019081526020015f205f828254610f4a91906118e4565b925050819055508173ffffffffffffffffffffffffffffffffffffffff168373ffffffffffffffffffffffffffffffffffffffff167fddf252ad1be2c89b69c2b068fc378daa952ba7f163c4a11628f55a4df523b3ef83604051610fae91906113d2565b60405180910390a3505050565b5f8160045f8673ffffffffffffffffffffffffffffffffffffffff1673ffffffffffffffffffffffffffffffffffffffff1681526020019081526020015f2054101561103c576040517f08c379a000000000000000000000000000000000000000000000000000000000815260040161103390611d3b565b60405180910390fd5b8160055f8673ffffffffffffffffffffffffffffffffffffffff1673ffffffffffffffffffffffffffffffffffffffff1681526020019081526020015f205f3373ffffffffffffffffffffffffffffffffffffffff1673ffffffffffffffffffffffffffffffffffffffff1681526020019081526020015f205410156110f7576040517f08c379a00000000000000000000000000000000000000000000000000000000081526004016110ee90611da3565b60405180910390fd5b8160055f8673ffffffffffffffffffffffffffffffffffffffff1673ffffffffffffffffffffffffffffffffffffffff1681526020019081526020015f205f3373ffffffffffffffffffffffffffffffffffffffff1673ffffffffffffffffffffffffffffffffffffffff1681526020019081526020015f205f82825461117e9190611b87565b92505081905550611190848484610e3d565b600190509392505050565b5f8160045f3373ffffffffffffffffffffffffffffffffffffffff1673ffffffffffffffffffffffffffffffffffffffff1681526020019081526020015f2054101561121c576040517f08c379a000000000000000000000000000000000000000000000000000000000815260040161121390611d3b565b60405180910390fd5b611227338484610e3d565b6001905092915050565b5f81519050919050565b5f82825260208201905092915050565b8281835e5f83830152505050565b5f601f19601f8301169050919050565b5f61127382611231565b61127d818561123b565b935061128d81856020860161124b565b61129681611259565b840191505092915050565b5f6020820190508181035f8301526112b98184611269565b905092915050565b5f5ffd5b5f73ffffffffffffffffffffffffffffffffffffffff82169050919050565b5f6112ee826112c5565b9050919050565b6112fe816112e4565b8114611308575f5ffd5b50565b5f81359050611319816112f5565b92915050565b5f819050919050565b6113318161131f565b811461133b575f5ffd5b50565b5f8135905061134c81611328565b92915050565b5f5f60408385031215611368576113676112c1565b5b5f6113758582860161130b565b92505060206113868582860161133e565b9150509250929050565b5f8115159050919050565b6113a481611390565b82525050565b5f6020820190506113bd5f83018461139b565b92915050565b6113cc8161131f565b82525050565b5f6020820190506113e55f8301846113c3565b92915050565b5f5f5f60608486031215611402576114016112c1565b5b5f61140f8682870161130b565b93505060206114208682870161130b565b92505060406114318682870161133e565b9150509250925092565b5f60ff82169050919050565b6114508161143b565b82525050565b5f6020820190506114695f830184611447565b92915050565b5f60208284031215611484576114836112c1565b5b5f6114918482850161130b565b91505092915050565b6114a3816112e4565b82525050565b5f6020820190506114bc5f83018461149a565b92915050565b5f5f604083850312156114d8576114d76112c1565b5b5f6114e58582860161130b565b92505060206114f68582860161130b565b9150509250929050565b7f53616c65206973206e6f742061637469766500000000000000000000000000005f82015250565b5f61153460128361123b565b915061153f82611500565b602082019050919050565b5f6020820190508181035f83015261156181611528565b9050919050565b7f416d6f756e742069732062656c6f77206d696e207075726368617365000000005f82015250565b5f61159c601c8361123b565b91506115a782611568565b602082019050919050565b5f6020820190508181035f8301526115c981611590565b9050919050565b7f416d6f756e742069732061626f7665206d6178207075726368617365000000005f82015250565b5f611604601c8361123b565b915061160f826115d0565b602082019050919050565b5f6020820190508181035f830152611631816115f8565b9050919050565b7f4e487b71000000000000000000000000000000000000000000000000000000005f52601160045260245ffd5b5f8160011c9050919050565b5f5f8291508390505b60018511156116ba5780860481111561169657611695611638565b5b60018516156116a55780820291505b80810290506116b385611665565b945061167a565b94509492505050565b5f826116d2576001905061178d565b816116df575f905061178d565b81600181146116f557600281146116ff5761172e565b600191505061178d565b60ff84111561171157611710611638565b5b8360020a91508482111561172857611727611638565b5b5061178d565b5060208310610133831016604e8410600b84101617156117635782820a90508381111561175e5761175d611638565b5b61178d565b6117708484846001611671565b9250905081840481111561178757611786611638565b5b81810290505b9392505050565b5f61179e8261131f565b91506117a98361131f565b92506117d67fffffffffffffffffffffffffffffffffffffffffffffffffffffffffffffffff84846116c3565b905092915050565b5f6117e88261131f565b91506117f38361131f565b92508282026118018161131f565b9150828204841483151761181857611817611638565b5b5092915050565b7f4e487b71000000000000000000000000000000000000000000000000000000005f52601260045260245ffd5b5f6118568261131f565b91506118618361131f565b9250826118715761187061181f565b5b828204905092915050565b7f4e6f7420656e6f75676820746f6b656e73206c65667420666f722073616c65005f82015250565b5f6118b0601f8361123b565b91506118bb8261187c565b602082019050919050565b5f6020820190508181035f8301526118dd816118a4565b9050919050565b5f6118ee8261131f565b91506118f98361131f565b925082820190508082111561191157611910611638565b5b92915050565b5f60408201905061192a5f8301856113c3565b61193760208301846113c3565b9392505050565b7f4e487b71000000000000000000000000000000000000000000000000000000005f52602260045260245ffd5b5f600282049050600182168061198257607f821691505b6020821081036119955761199461193e565b5b50919050565b7f546f6b656e7320617265206c6f636b656420756e74696c2073616c65206973205f8201527f66696e616c697a65640000000000000000000000000000000000000000000000602082015250565b5f6119f560298361123b565b9150611a008261199b565b604082019050919050565b5f6020820190508181035f830152611a22816119e9565b9050919050565b7f4f6e6c79206f776e65722063616e2063616c6c20746869732066756e6374696f5f8201527f6e00000000000000000000000000000000000000000000000000000000000000602082015250565b5f611a8360218361123b565b9150611a8e82611a29565b604082019050919050565b5f6020820190508181035f830152611ab081611a77565b9050919050565b7f53616c6520697320616c72656164792066696e616c697a6564000000000000005f82015250565b5f611aeb60198361123b565b9150611af682611ab7565b602082019050919050565b5f6020820190508181035f830152611b1881611adf565b9050919050565b7f53616c65206e6f742066696e69736865642079657400000000000000000000005f82015250565b5f611b5360158361123b565b9150611b5e82611b1f565b602082019050919050565b5f6020820190508181035f830152611b8081611b47565b9050919050565b5f611b918261131f565b9150611b9c8361131f565b9250828203905081811115611bb457611bb3611638565b5b92915050565b5f81905092915050565b50565b5f611bd25f83611bba565b9150611bdd82611bc4565b5f82019050919050565b5f611bf182611bc7565b9150819050919050565b7f5472616e73666572206661696c656400000000000000000000000000000000005f82015250565b5f611c2f600f8361123b565b9150611c3a82611bfb565b602082019050919050565b5f6020820190508181035f830152611c5c81611c23565b9050919050565b7f43616e6e6f74207472616e7366657220746f20746865207a65726f20616464725f8201527f6573730000000000000000000000000000000000000000000000000000000000602082015250565b5f611cbd60238361123b565b9150611cc882611c63565b604082019050919050565b5f6020820190508181035f830152611cea81611cb1565b9050919050565b7f4e6f7420656e6f7567682062616c616e636500000000000000000000000000005f82015250565b5f611d2560128361123b565b9150611d3082611cf1565b602082019050919050565b5f6020820190508181035f830152611d5281611d19565b9050919050565b7f4e6f7420656e6f75676820616c6c6f77656e63650000000000000000000000005f82015250565b5f611d8d60148361123b565b9150611d9882611d59565b602082019050919050565b5f6020820190508181035f830152611dba81611d81565b905091905056fea264697066735822122003cd841779cc960020d0fde1fc745ef5f86562fc082a1775743cc743c5414e1a64736f6c634300081e0033",
					"opcodes": "PUSH1 0x80 PUSH1 0x40 MSTORE PUSH1 0x40 MLOAD DUP1 PUSH1 0x40 ADD PUSH1 0x40 MSTORE DUP1 PUSH1 0xC DUP2 MSTORE PUSH1 0x20 ADD PUSH32 0x5765623320436F6D706173730000000000000000000000000000000000000000 DUP2 MSTORE POP PUSH0 SWAP1 DUP2 PUSH2 0x47 SWAP2 SWAP1 PUSH2 0x642 JUMP JUMPDEST POP PUSH1 0x40 MLOAD DUP1 PUSH1 0x40 ADD PUSH1 0x40 MSTORE DUP1 PUSH1 0x3 DUP2 MSTORE PUSH1 0x20 ADD PUSH32 0x5742540000000000000000000000000000000000000000000000000000000000 DUP2 MSTORE POP PUSH1 0x1 SWAP1 DUP2 PUSH2 0x8C SWAP2 SWAP1 PUSH2 0x642 JUMP JUMPDEST POP PUSH1 0x12 PUSH1 0x2 PUSH0 PUSH2 0x100 EXP DUP2 SLOAD DUP2 PUSH1 0xFF MUL NOT AND SWAP1 DUP4 PUSH1 0xFF AND MUL OR SWAP1 SSTORE POP PUSH0 PUSH1 0xC PUSH1 0x14 PUSH2 0x100 EXP DUP2 SLOAD DUP2 PUSH1 0xFF MUL NOT AND SWAP1 DUP4 ISZERO ISZERO MUL OR SWAP1 SSTORE POP PUSH0 PUSH1 0xC PUSH1 0x15 PUSH2 0x100 EXP DUP2 SLOAD DUP2 PUSH1 0xFF MUL NOT AND SWAP1 DUP4 ISZERO ISZERO MUL OR SWAP1 SSTORE POP CALLVALUE DUP1 ISZERO PUSH2 0xE7 JUMPI PUSH0 PUSH0 REVERT JUMPDEST POP PUSH1 0x40 MLOAD PUSH2 0x2945 CODESIZE SUB DUP1 PUSH2 0x2945 DUP4 CODECOPY DUP2 DUP2 ADD PUSH1 0x40 MSTORE DUP2 ADD SWAP1 PUSH2 0x109 SWAP2 SWAP1 PUSH2 0x799 JUMP JUMPDEST DUP6 PUSH1 0x2 PUSH0 SWAP1 SLOAD SWAP1 PUSH2 0x100 EXP SWAP1 DIV PUSH1 0xFF AND PUSH1 0xA PUSH2 0x125 SWAP2 SWAP1 PUSH2 0x98A JUMP JUMPDEST DUP2 PUSH2 0x130 SWAP2 SWAP1 PUSH2 0x9D4 JUMP JUMPDEST PUSH1 0x3 DUP2 SWAP1 SSTORE POP PUSH1 0x3 SLOAD PUSH1 0x4 PUSH0 CALLER PUSH20 0xFFFFFFFFFFFFFFFFFFFFFFFFFFFFFFFFFFFFFFFF AND PUSH20 0xFFFFFFFFFFFFFFFFFFFFFFFFFFFFFFFFFFFFFFFF AND DUP2 MSTORE PUSH1 0x20 ADD SWAP1 DUP2 MSTORE PUSH1 0x20 ADD PUSH0 KECCAK256 DUP2 SWAP1 SSTORE POP CALLER PUSH20 0xFFFFFFFFFFFFFFFFFFFFFFFFFFFFFFFFFFFFFFFF AND PUSH0 PUSH20 0xFFFFFFFFFFFFFFFFFFFFFFFFFFFFFFFFFFFFFFFF AND PUSH32 0xDDF252AD1BE2C89B69C2B068FC378DAA952BA7F163C4A11628F55A4DF523B3EF DUP4 PUSH1 0x40 MLOAD PUSH2 0x1D7 SWAP2 SWAP1 PUSH2 0xA24 JUMP JUMPDEST PUSH1 0x40 MLOAD DUP1 SWAP2 SUB SWAP1 LOG3 POP DUP5 PUSH1 0x6 DUP2 SWAP1 SSTORE POP TIMESTAMP PUSH1 0x7 DUP2 SWAP1 SSTORE POP DUP4 TIMESTAMP PUSH2 0x1FA SWAP2 SWAP1 PUSH2 0xA3D JUMP JUMPDEST PUSH1 0x8 DUP2 SWAP1 SSTORE POP DUP3 PUSH1 0x9 DUP2 SWAP1 SSTORE POP DUP2 PUSH1 0xA DUP2 SWAP1 SSTORE POP DUP1 PUSH1 0xC PUSH0 PUSH2 0x100 EXP DUP2 SLOAD DUP2 PUSH20 0xFFFFFFFFFFFFFFFFFFFFFFFFFFFFFFFFFFFFFFFF MUL NOT AND SWAP1 DUP4 PUSH20 0xFFFFFFFFFFFFFFFFFFFFFFFFFFFFFFFFFFFFFFFF AND MUL OR SWAP1 SSTORE POP PUSH2 0x261 CALLER ADDRESS PUSH1 0x3 SLOAD PUSH2 0x287 PUSH1 0x20 SHL PUSH1 0x20 SHR JUMP JUMPDEST PUSH1 0x1 PUSH1 0xC PUSH1 0x15 PUSH2 0x100 EXP DUP2 SLOAD DUP2 PUSH1 0xFF MUL NOT AND SWAP1 DUP4 ISZERO ISZERO MUL OR SWAP1 SSTORE POP POP POP POP POP POP POP PUSH2 0xB41 JUMP JUMPDEST PUSH0 PUSH20 0xFFFFFFFFFFFFFFFFFFFFFFFFFFFFFFFFFFFFFFFF AND DUP3 PUSH20 0xFFFFFFFFFFFFFFFFFFFFFFFFFFFFFFFFFFFFFFFF AND SUB PUSH2 0x2F5 JUMPI PUSH1 0x40 MLOAD PUSH32 0x8C379A000000000000000000000000000000000000000000000000000000000 DUP2 MSTORE PUSH1 0x4 ADD PUSH2 0x2EC SWAP1 PUSH2 0xAF0 JUMP JUMPDEST PUSH1 0x40 MLOAD DUP1 SWAP2 SUB SWAP1 REVERT JUMPDEST DUP1 PUSH1 0x4 PUSH0 DUP6 PUSH20 0xFFFFFFFFFFFFFFFFFFFFFFFFFFFFFFFFFFFFFFFF AND PUSH20 0xFFFFFFFFFFFFFFFFFFFFFFFFFFFFFFFFFFFFFFFF AND DUP2 MSTORE PUSH1 0x20 ADD SWAP1 DUP2 MSTORE PUSH1 0x20 ADD PUSH0 KECCAK256 PUSH0 DUP3 DUP3 SLOAD PUSH2 0x341 SWAP2 SWAP1 PUSH2 0xB0E JUMP JUMPDEST SWAP3 POP POP DUP2 SWAP1 SSTORE POP DUP1 PUSH1 0x4 PUSH0 DUP5 PUSH20 0xFFFFFFFFFFFFFFFFFFFFFFFFFFFFFFFFFFFFFFFF AND PUSH20 0xFFFFFFFFFFFFFFFFFFFFFFFFFFFFFFFFFFFFFFFF AND DUP2 MSTORE PUSH1 0x20 ADD SWAP1 DUP2 MSTORE PUSH1 0x20 ADD PUSH0 KECCAK256 PUSH0 DUP3 DUP3 SLOAD PUSH2 0x394 SWAP2 SWAP1 PUSH2 0xA3D JUMP JUMPDEST SWAP3 POP POP DUP2 SWAP1 SSTORE POP DUP2 PUSH20 0xFFFFFFFFFFFFFFFFFFFFFFFFFFFFFFFFFFFFFFFF AND DUP4 PUSH20 0xFFFFFFFFFFFFFFFFFFFFFFFFFFFFFFFFFFFFFFFF AND PUSH32 0xDDF252AD1BE2C89B69C2B068FC378DAA952BA7F163C4A11628F55A4DF523B3EF DUP4 PUSH1 0x40 MLOAD PUSH2 0x3F8 SWAP2 SWAP1 PUSH2 0xA24 JUMP JUMPDEST PUSH1 0x40 MLOAD DUP1 SWAP2 SUB SWAP1 LOG3 POP POP POP JUMP JUMPDEST PUSH0 DUP2 MLOAD SWAP1 POP SWAP2 SWAP1 POP JUMP JUMPDEST PUSH32 0x4E487B7100000000000000000000000000000000000000000000000000000000 PUSH0 MSTORE PUSH1 0x41 PUSH1 0x4 MSTORE PUSH1 0x24 PUSH0 REVERT JUMPDEST PUSH32 0x4E487B7100000000000000000000000000000000000000000000000000000000 PUSH0 MSTORE PUSH1 0x22 PUSH1 0x4 MSTORE PUSH1 0x24 PUSH0 REVERT JUMPDEST PUSH0 PUSH1 0x2 DUP3 DIV SWAP1 POP PUSH1 0x1 DUP3 AND DUP1 PUSH2 0x480 JUMPI PUSH1 0x7F DUP3 AND SWAP2 POP JUMPDEST PUSH1 0x20 DUP3 LT DUP2 SUB PUSH2 0x493 JUMPI PUSH2 0x492 PUSH2 0x43C JUMP JUMPDEST JUMPDEST POP SWAP2 SWAP1 POP JUMP JUMPDEST PUSH0 DUP2 SWAP1 POP DUP2 PUSH0 MSTORE PUSH1 0x20 PUSH0 KECCAK256 SWAP1 POP SWAP2 SWAP1 POP JUMP JUMPDEST PUSH0 PUSH1 0x20 PUSH1 0x1F DUP4 ADD DIV SWAP1 POP SWAP2 SWAP1 POP JUMP JUMPDEST PUSH0 DUP3 DUP3 SHL SWAP1 POP SWAP3 SWAP2 POP POP JUMP JUMPDEST PUSH0 PUSH1 0x8 DUP4 MUL PUSH2 0x4F5 PUSH32 0xFFFFFFFFFFFFFFFFFFFFFFFFFFFFFFFFFFFFFFFFFFFFFFFFFFFFFFFFFFFFFFFF DUP3 PUSH2 0x4BA JUMP JUMPDEST PUSH2 0x4FF DUP7 DUP4 PUSH2 0x4BA JUMP JUMPDEST SWAP6 POP DUP1 NOT DUP5 AND SWAP4 POP DUP1 DUP7 AND DUP5 OR SWAP3 POP POP POP SWAP4 SWAP3 POP POP POP JUMP JUMPDEST PUSH0 DUP2 SWAP1 POP SWAP2 SWAP1 POP JUMP JUMPDEST PUSH0 DUP2 SWAP1 POP SWAP2 SWAP1 POP JUMP JUMPDEST PUSH0 PUSH2 0x543 PUSH2 0x53E PUSH2 0x539 DUP5 PUSH2 0x517 JUMP JUMPDEST PUSH2 0x520 JUMP JUMPDEST PUSH2 0x517 JUMP JUMPDEST SWAP1 POP SWAP2 SWAP1 POP JUMP JUMPDEST PUSH0 DUP2 SWAP1 POP SWAP2 SWAP1 POP JUMP JUMPDEST PUSH2 0x55C DUP4 PUSH2 0x529 JUMP JUMPDEST PUSH2 0x570 PUSH2 0x568 DUP3 PUSH2 0x54A JUMP JUMPDEST DUP5 DUP5 SLOAD PUSH2 0x4C6 JUMP JUMPDEST DUP3 SSTORE POP POP POP POP JUMP JUMPDEST PUSH0 PUSH0 SWAP1 POP SWAP1 JUMP JUMPDEST PUSH2 0x587 PUSH2 0x578 JUMP JUMPDEST PUSH2 0x592 DUP2 DUP5 DUP5 PUSH2 0x553 JUMP JUMPDEST POP POP POP JUMP JUMPDEST JUMPDEST DUP2 DUP2 LT ISZERO PUSH2 0x5B5 JUMPI PUSH2 0x5AA PUSH0 DUP3 PUSH2 0x57F JUMP JUMPDEST PUSH1 0x1 DUP2 ADD SWAP1 POP PUSH2 0x598 JUMP JUMPDEST POP POP JUMP JUMPDEST PUSH1 0x1F DUP3 GT ISZERO PUSH2 0x5FA JUMPI PUSH2 0x5CB DUP2 PUSH2 0x499 JUMP JUMPDEST PUSH2 0x5D4 DUP5 PUSH2 0x4AB JUMP JUMPDEST DUP2 ADD PUSH1 0x20 DUP6 LT ISZERO PUSH2 0x5E3 JUMPI DUP2 SWAP1 POP JUMPDEST PUSH2 0x5F7 PUSH2 0x5EF DUP6 PUSH2 0x4AB JUMP JUMPDEST DUP4 ADD DUP3 PUSH2 0x597 JUMP JUMPDEST POP POP JUMPDEST POP POP POP JUMP JUMPDEST PUSH0 DUP3 DUP3 SHR SWAP1 POP SWAP3 SWAP2 POP POP JUMP JUMPDEST PUSH0 PUSH2 0x61A PUSH0 NOT DUP5 PUSH1 0x8 MUL PUSH2 0x5FF JUMP JUMPDEST NOT DUP1 DUP4 AND SWAP2 POP POP SWAP3 SWAP2 POP POP JUMP JUMPDEST PUSH0 PUSH2 0x632 DUP4 DUP4 PUSH2 0x60B JUMP JUMPDEST SWAP2 POP DUP3 PUSH1 0x2 MUL DUP3 OR SWAP1 POP SWAP3 SWAP2 POP POP JUMP JUMPDEST PUSH2 0x64B DUP3 PUSH2 0x405 JUMP JUMPDEST PUSH8 0xFFFFFFFFFFFFFFFF DUP2 GT ISZERO PUSH2 0x664 JUMPI PUSH2 0x663 PUSH2 0x40F JUMP JUMPDEST JUMPDEST PUSH2 0x66E DUP3 SLOAD PUSH2 0x469 JUMP JUMPDEST PUSH2 0x679 DUP3 DUP3 DUP6 PUSH2 0x5B9 JUMP JUMPDEST PUSH0 PUSH1 0x20 SWAP1 POP PUSH1 0x1F DUP4 GT PUSH1 0x1 DUP2 EQ PUSH2 0x6AA JUMPI PUSH0 DUP5 ISZERO PUSH2 0x698 JUMPI DUP3 DUP8 ADD MLOAD SWAP1 POP JUMPDEST PUSH2 0x6A2 DUP6 DUP3 PUSH2 0x627 JUMP JUMPDEST DUP7 SSTORE POP PUSH2 0x709 JUMP JUMPDEST PUSH1 0x1F NOT DUP5 AND PUSH2 0x6B8 DUP7 PUSH2 0x499 JUMP JUMPDEST PUSH0 JUMPDEST DUP3 DUP2 LT ISZERO PUSH2 0x6DF JUMPI DUP5 DUP10 ADD MLOAD DUP3 SSTORE PUSH1 0x1 DUP3 ADD SWAP2 POP PUSH1 0x20 DUP6 ADD SWAP5 POP PUSH1 0x20 DUP2 ADD SWAP1 POP PUSH2 0x6BA JUMP JUMPDEST DUP7 DUP4 LT ISZERO PUSH2 0x6FC JUMPI DUP5 DUP10 ADD MLOAD PUSH2 0x6F8 PUSH1 0x1F DUP10 AND DUP3 PUSH2 0x60B JUMP JUMPDEST DUP4 SSTORE POP JUMPDEST PUSH1 0x1 PUSH1 0x2 DUP9 MUL ADD DUP9 SSTORE POP POP POP JUMPDEST POP POP POP POP POP POP JUMP JUMPDEST PUSH0 PUSH0 REVERT JUMPDEST PUSH2 0x71E DUP2 PUSH2 0x517 JUMP JUMPDEST DUP2 EQ PUSH2 0x728 JUMPI PUSH0 PUSH0 REVERT JUMPDEST POP JUMP JUMPDEST PUSH0 DUP2 MLOAD SWAP1 POP PUSH2 0x739 DUP2 PUSH2 0x715 JUMP JUMPDEST SWAP3 SWAP2 POP POP JUMP JUMPDEST PUSH0 PUSH20 0xFFFFFFFFFFFFFFFFFFFFFFFFFFFFFFFFFFFFFFFF DUP3 AND SWAP1 POP SWAP2 SWAP1 POP JUMP JUMPDEST PUSH0 PUSH2 0x768 DUP3 PUSH2 0x73F JUMP JUMPDEST SWAP1 POP SWAP2 SWAP1 POP JUMP JUMPDEST PUSH2 0x778 DUP2 PUSH2 0x75E JUMP JUMPDEST DUP2 EQ PUSH2 0x782 JUMPI PUSH0 PUSH0 REVERT JUMPDEST POP JUMP JUMPDEST PUSH0 DUP2 MLOAD SWAP1 POP PUSH2 0x793 DUP2 PUSH2 0x76F JUMP JUMPDEST SWAP3 SWAP2 POP POP JUMP JUMPDEST PUSH0 PUSH0 PUSH0 PUSH0 PUSH0 PUSH0 PUSH1 0xC0 DUP8 DUP10 SUB SLT ISZERO PUSH2 0x7B3 JUMPI PUSH2 0x7B2 PUSH2 0x711 JUMP JUMPDEST JUMPDEST PUSH0 PUSH2 0x7C0 DUP10 DUP3 DUP11 ADD PUSH2 0x72B JUMP JUMPDEST SWAP7 POP POP PUSH1 0x20 PUSH2 0x7D1 DUP10 DUP3 DUP11 ADD PUSH2 0x72B JUMP JUMPDEST SWAP6 POP POP PUSH1 0x40 PUSH2 0x7E2 DUP10 DUP3 DUP11 ADD PUSH2 0x72B JUMP JUMPDEST SWAP5 POP POP PUSH1 0x60 PUSH2 0x7F3 DUP10 DUP3 DUP11 ADD PUSH2 0x72B JUMP JUMPDEST SWAP4 POP POP PUSH1 0x80 PUSH2 0x804 DUP10 DUP3 DUP11 ADD PUSH2 0x72B JUMP JUMPDEST SWAP3 POP POP PUSH1 0xA0 PUSH2 0x815 DUP10 DUP3 DUP11 ADD PUSH2 0x785 JUMP JUMPDEST SWAP2 POP POP SWAP3 SWAP6 POP SWAP3 SWAP6 POP SWAP3 SWAP6 JUMP JUMPDEST PUSH32 0x4E487B7100000000000000000000000000000000000000000000000000000000 PUSH0 MSTORE PUSH1 0x11 PUSH1 0x4 MSTORE PUSH1 0x24 PUSH0 REVERT JUMPDEST PUSH0 DUP2 PUSH1 0x1 SHR SWAP1 POP SWAP2 SWAP1 POP JUMP JUMPDEST PUSH0 PUSH0 DUP3 SWAP2 POP DUP4 SWAP1 POP JUMPDEST PUSH1 0x1 DUP6 GT ISZERO PUSH2 0x8A4 JUMPI DUP1 DUP7 DIV DUP2 GT ISZERO PUSH2 0x880 JUMPI PUSH2 0x87F PUSH2 0x822 JUMP JUMPDEST JUMPDEST PUSH1 0x1 DUP6 AND ISZERO PUSH2 0x88F JUMPI DUP1 DUP3 MUL SWAP2 POP JUMPDEST DUP1 DUP2 MUL SWAP1 POP PUSH2 0x89D DUP6 PUSH2 0x84F JUMP JUMPDEST SWAP5 POP PUSH2 0x864 JUMP JUMPDEST SWAP5 POP SWAP5 SWAP3 POP POP POP JUMP JUMPDEST PUSH0 DUP3 PUSH2 0x8BC JUMPI PUSH1 0x1 SWAP1 POP PUSH2 0x977 JUMP JUMPDEST DUP2 PUSH2 0x8C9 JUMPI PUSH0 SWAP1 POP PUSH2 0x977 JUMP JUMPDEST DUP2 PUSH1 0x1 DUP2 EQ PUSH2 0x8DF JUMPI PUSH1 0x2 DUP2 EQ PUSH2 0x8E9 JUMPI PUSH2 0x918 JUMP JUMPDEST PUSH1 0x1 SWAP2 POP POP PUSH2 0x977 JUMP JUMPDEST PUSH1 0xFF DUP5 GT ISZERO PUSH2 0x8FB JUMPI PUSH2 0x8FA PUSH2 0x822 JUMP JUMPDEST JUMPDEST DUP4 PUSH1 0x2 EXP SWAP2 POP DUP5 DUP3 GT ISZERO PUSH2 0x912 JUMPI PUSH2 0x911 PUSH2 0x822 JUMP JUMPDEST JUMPDEST POP PUSH2 0x977 JUMP JUMPDEST POP PUSH1 0x20 DUP4 LT PUSH2 0x133 DUP4 LT AND PUSH1 0x4E DUP5 LT PUSH1 0xB DUP5 LT AND OR ISZERO PUSH2 0x94D JUMPI DUP3 DUP3 EXP SWAP1 POP DUP4 DUP2 GT ISZERO PUSH2 0x948 JUMPI PUSH2 0x947 PUSH2 0x822 JUMP JUMPDEST JUMPDEST PUSH2 0x977 JUMP JUMPDEST PUSH2 0x95A DUP5 DUP5 DUP5 PUSH1 0x1 PUSH2 0x85B JUMP JUMPDEST SWAP3 POP SWAP1 POP DUP2 DUP5 DIV DUP2 GT ISZERO PUSH2 0x971 JUMPI PUSH2 0x970 PUSH2 0x822 JUMP JUMPDEST JUMPDEST DUP2 DUP2 MUL SWAP1 POP JUMPDEST SWAP4 SWAP3 POP POP POP JUMP JUMPDEST PUSH0 PUSH1 0xFF DUP3 AND SWAP1 POP SWAP2 SWAP1 POP JUMP JUMPDEST PUSH0 PUSH2 0x994 DUP3 PUSH2 0x517 JUMP JUMPDEST SWAP2 POP PUSH2 0x99F DUP4 PUSH2 0x97E JUMP JUMPDEST SWAP3 POP PUSH2 0x9CC PUSH32 0xFFFFFFFFFFFFFFFFFFFFFFFFFFFFFFFFFFFFFFFFFFFFFFFFFFFFFFFFFFFFFFFF DUP5 DUP5 PUSH2 0x8AD JUMP JUMPDEST SWAP1 POP SWAP3 SWAP2 POP POP JUMP JUMPDEST PUSH0 PUSH2 0x9DE DUP3 PUSH2 0x517 JUMP JUMPDEST SWAP2 POP PUSH2 0x9E9 DUP4 PUSH2 0x517 JUMP JUMPDEST SWAP3 POP DUP3 DUP3 MUL PUSH2 0x9F7 DUP2 PUSH2 0x517 JUMP JUMPDEST SWAP2 POP DUP3 DUP3 DIV DUP5 EQ DUP4 ISZERO OR PUSH2 0xA0E JUMPI PUSH2 0xA0D PUSH2 0x822 JUMP JUMPDEST JUMPDEST POP SWAP3 SWAP2 POP POP JUMP JUMPDEST PUSH2 0xA1E DUP2 PUSH2 0x517 JUMP JUMPDEST DUP3 MSTORE POP POP JUMP JUMPDEST PUSH0 PUSH1 0x20 DUP3 ADD SWAP1 POP PUSH2 0xA37 PUSH0 DUP4 ADD DUP5 PUSH2 0xA15 JUMP JUMPDEST SWAP3 SWAP2 POP POP JUMP JUMPDEST PUSH0 PUSH2 0xA47 DUP3 PUSH2 0x517 JUMP JUMPDEST SWAP2 POP PUSH2 0xA52 DUP4 PUSH2 0x517 JUMP JUMPDEST SWAP3 POP DUP3 DUP3 ADD SWAP1 POP DUP1 DUP3 GT ISZERO PUSH2 0xA6A JUMPI PUSH2 0xA69 PUSH2 0x822 JUMP JUMPDEST JUMPDEST SWAP3 SWAP2 POP POP JUMP JUMPDEST PUSH0 DUP3 DUP3 MSTORE PUSH1 0x20 DUP3 ADD SWAP1 POP SWAP3 SWAP2 POP POP JUMP JUMPDEST PUSH32 0x43616E6E6F74207472616E7366657220746F20746865207A65726F2061646472 PUSH0 DUP3 ADD MSTORE PUSH32 0x6573730000000000000000000000000000000000000000000000000000000000 PUSH1 0x20 DUP3 ADD MSTORE POP JUMP JUMPDEST PUSH0 PUSH2 0xADA PUSH1 0x23 DUP4 PUSH2 0xA70 JUMP JUMPDEST SWAP2 POP PUSH2 0xAE5 DUP3 PUSH2 0xA80 JUMP JUMPDEST PUSH1 0x40 DUP3 ADD SWAP1 POP SWAP2 SWAP1 POP JUMP JUMPDEST PUSH0 PUSH1 0x20 DUP3 ADD SWAP1 POP DUP2 DUP2 SUB PUSH0 DUP4 ADD MSTORE PUSH2 0xB07 DUP2 PUSH2 0xACE JUMP JUMPDEST SWAP1 POP SWAP2 SWAP1 POP JUMP JUMPDEST PUSH0 PUSH2 0xB18 DUP3 PUSH2 0x517 JUMP JUMPDEST SWAP2 POP PUSH2 0xB23 DUP4 PUSH2 0x517 JUMP JUMPDEST SWAP3 POP DUP3 DUP3 SUB SWAP1 POP DUP2 DUP2 GT ISZERO PUSH2 0xB3B JUMPI PUSH2 0xB3A PUSH2 0x822 JUMP JUMPDEST JUMPDEST SWAP3 SWAP2 POP POP JUMP JUMPDEST PUSH2 0x1DF7 DUP1 PUSH2 0xB4E PUSH0 CODECOPY PUSH0 RETURN INVALID PUSH1 0x80 PUSH1 0x40 MSTORE PUSH1 0x4 CALLDATASIZE LT PUSH2 0x138 JUMPI PUSH0 CALLDATALOAD PUSH1 0xE0 SHR DUP1 PUSH4 0x7FF9B596 GT PUSH2 0xAA JUMPI DUP1 PUSH4 0xB3F05B97 GT PUSH2 0x6E JUMPI DUP1 PUSH4 0xB3F05B97 EQ PUSH2 0x413 JUMPI DUP1 PUSH4 0xC5C4744C EQ PUSH2 0x43D JUMPI DUP1 PUSH4 0xD0FEBE4C EQ PUSH2 0x467 JUMPI DUP1 PUSH4 0xDD62ED3E EQ PUSH2 0x471 JUMPI DUP1 PUSH4 0xE3CFEF60 EQ PUSH2 0x4AD JUMPI DUP1 PUSH4 0xED338FF1 EQ PUSH2 0x4D7 JUMPI PUSH2 0x147 JUMP JUMPDEST DUP1 PUSH4 0x7FF9B596 EQ PUSH2 0x32F JUMPI DUP1 PUSH4 0x95D89B41 EQ PUSH2 0x359 JUMPI DUP1 PUSH4 0x977B055B EQ PUSH2 0x383 JUMPI DUP1 PUSH4 0xA4475CE4 EQ PUSH2 0x3AD JUMPI DUP1 PUSH4 0xA9059CBB EQ PUSH2 0x3D7 JUMPI PUSH2 0x147 JUMP JUMPDEST DUP1 PUSH4 0x313CE567 GT PUSH2 0xFC JUMPI DUP1 PUSH4 0x313CE567 EQ PUSH2 0x241 JUMPI DUP1 PUSH4 0x33B5B62E EQ PUSH2 0x26B JUMPI DUP1 PUSH4 0x564566A8 EQ PUSH2 0x295 JUMPI DUP1 PUSH4 0x58A687EC EQ PUSH2 0x2BF JUMPI DUP1 PUSH4 0x60659A92 EQ PUSH2 0x2C9 JUMPI DUP1 PUSH4 0x70A08231 EQ PUSH2 0x2F3 JUMPI PUSH2 0x147 JUMP JUMPDEST DUP1 PUSH4 0x6FDDE03 EQ PUSH2 0x14B JUMPI DUP1 PUSH4 0x95EA7B3 EQ PUSH2 0x175 JUMPI DUP1 PUSH4 0x18160DDD EQ PUSH2 0x1B1 JUMPI DUP1 PUSH4 0x1CBAEE2D EQ PUSH2 0x1DB JUMPI DUP1 PUSH4 0x23B872DD EQ PUSH2 0x205 JUMPI PUSH2 0x147 JUMP JUMPDEST CALLDATASIZE PUSH2 0x147 JUMPI PUSH2 0x145 PUSH2 0x501 JUMP JUMPDEST STOP JUMPDEST PUSH0 PUSH0 REVERT JUMPDEST CALLVALUE DUP1 ISZERO PUSH2 0x156 JUMPI PUSH0 PUSH0 REVERT JUMPDEST POP PUSH2 0x15F PUSH2 0x701 JUMP JUMPDEST PUSH1 0x40 MLOAD PUSH2 0x16C SWAP2 SWAP1 PUSH2 0x12A1 JUMP JUMPDEST PUSH1 0x40 MLOAD DUP1 SWAP2 SUB SWAP1 RETURN JUMPDEST CALLVALUE DUP1 ISZERO PUSH2 0x180 JUMPI PUSH0 PUSH0 REVERT JUMPDEST POP PUSH2 0x19B PUSH1 0x4 DUP1 CALLDATASIZE SUB DUP2 ADD SWAP1 PUSH2 0x196 SWAP2 SWAP1 PUSH2 0x1352 JUMP JUMPDEST PUSH2 0x78C JUMP JUMPDEST PUSH1 0x40 MLOAD PUSH2 0x1A8 SWAP2 SWAP1 PUSH2 0x13AA JUMP JUMPDEST PUSH1 0x40 MLOAD DUP1 SWAP2 SUB SWAP1 RETURN JUMPDEST CALLVALUE DUP1 ISZERO PUSH2 0x1BC JUMPI PUSH0 PUSH0 REVERT JUMPDEST POP PUSH2 0x1C5 PUSH2 0x879 JUMP JUMPDEST PUSH1 0x40 MLOAD PUSH2 0x1D2 SWAP2 SWAP1 PUSH2 0x13D2 JUMP JUMPDEST PUSH1 0x40 MLOAD DUP1 SWAP2 SUB SWAP1 RETURN JUMPDEST CALLVALUE DUP1 ISZERO PUSH2 0x1E6 JUMPI PUSH0 PUSH0 REVERT JUMPDEST POP PUSH2 0x1EF PUSH2 0x87F JUMP JUMPDEST PUSH1 0x40 MLOAD PUSH2 0x1FC SWAP2 SWAP1 PUSH2 0x13D2 JUMP JUMPDEST PUSH1 0x40 MLOAD DUP1 SWAP2 SUB SWAP1 RETURN JUMPDEST CALLVALUE DUP1 ISZERO PUSH2 0x210 JUMPI PUSH0 PUSH0 REVERT JUMPDEST POP PUSH2 0x22B PUSH1 0x4 DUP1 CALLDATASIZE SUB DUP2 ADD SWAP1 PUSH2 0x226 SWAP2 SWAP1 PUSH2 0x13EB JUMP JUMPDEST PUSH2 0x885 JUMP JUMPDEST PUSH1 0x40 MLOAD PUSH2 0x238 SWAP2 SWAP1 PUSH2 0x13AA JUMP JUMPDEST PUSH1 0x40 MLOAD DUP1 SWAP2 SUB SWAP1 RETURN JUMPDEST CALLVALUE DUP1 ISZERO PUSH2 0x24C JUMPI PUSH0 PUSH0 REVERT JUMPDEST POP PUSH2 0x255 PUSH2 0x929 JUMP JUMPDEST PUSH1 0x40 MLOAD PUSH2 0x262 SWAP2 SWAP1 PUSH2 0x1456 JUMP JUMPDEST PUSH1 0x40 MLOAD DUP1 SWAP2 SUB SWAP1 RETURN JUMPDEST CALLVALUE DUP1 ISZERO PUSH2 0x276 JUMPI PUSH0 PUSH0 REVERT JUMPDEST POP PUSH2 0x27F PUSH2 0x93B JUMP JUMPDEST PUSH1 0x40 MLOAD PUSH2 0x28C SWAP2 SWAP1 PUSH2 0x13D2 JUMP JUMPDEST PUSH1 0x40 MLOAD DUP1 SWAP2 SUB SWAP1 RETURN JUMPDEST CALLVALUE DUP1 ISZERO PUSH2 0x2A0 JUMPI PUSH0 PUSH0 REVERT JUMPDEST POP PUSH2 0x2A9 PUSH2 0x941 JUMP JUMPDEST PUSH1 0x40 MLOAD PUSH2 0x2B6 SWAP2 SWAP1 PUSH2 0x13AA JUMP JUMPDEST PUSH1 0x40 MLOAD DUP1 SWAP2 SUB SWAP1 RETURN JUMPDEST PUSH2 0x2C7 PUSH2 0x974 JUMP JUMPDEST STOP JUMPDEST CALLVALUE DUP1 ISZERO PUSH2 0x2D4 JUMPI PUSH0 PUSH0 REVERT JUMPDEST POP PUSH2 0x2DD PUSH2 0xC08 JUMP JUMPDEST PUSH1 0x40 MLOAD PUSH2 0x2EA SWAP2 SWAP1 PUSH2 0x13D2 JUMP JUMPDEST PUSH1 0x40 MLOAD DUP1 SWAP2 SUB SWAP1 RETURN JUMPDEST CALLVALUE DUP1 ISZERO PUSH2 0x2FE JUMPI PUSH0 PUSH0 REVERT JUMPDEST POP PUSH2 0x319 PUSH1 0x4 DUP1 CALLDATASIZE SUB DUP2 ADD SWAP1 PUSH2 0x314 SWAP2 SWAP1 PUSH2 0x146F JUMP JUMPDEST PUSH2 0xC4C JUMP JUMPDEST PUSH1 0x40 MLOAD PUSH2 0x326 SWAP2 SWAP1 PUSH2 0x13D2 JUMP JUMPDEST PUSH1 0x40 MLOAD DUP1 SWAP2 SUB SWAP1 RETURN JUMPDEST CALLVALUE DUP1 ISZERO PUSH2 0x33A JUMPI PUSH0 PUSH0 REVERT JUMPDEST POP PUSH2 0x343 PUSH2 0xC61 JUMP JUMPDEST PUSH1 0x40 MLOAD PUSH2 0x350 SWAP2 SWAP1 PUSH2 0x13D2 JUMP JUMPDEST PUSH1 0x40 MLOAD DUP1 SWAP2 SUB SWAP1 RETURN JUMPDEST CALLVALUE DUP1 ISZERO PUSH2 0x364 JUMPI PUSH0 PUSH0 REVERT JUMPDEST POP PUSH2 0x36D PUSH2 0xC67 JUMP JUMPDEST PUSH1 0x40 MLOAD PUSH2 0x37A SWAP2 SWAP1 PUSH2 0x12A1 JUMP JUMPDEST PUSH1 0x40 MLOAD DUP1 SWAP2 SUB SWAP1 RETURN JUMPDEST CALLVALUE DUP1 ISZERO PUSH2 0x38E JUMPI PUSH0 PUSH0 REVERT JUMPDEST POP PUSH2 0x397 PUSH2 0xCF3 JUMP JUMPDEST PUSH1 0x40 MLOAD PUSH2 0x3A4 SWAP2 SWAP1 PUSH2 0x13D2 JUMP JUMPDEST PUSH1 0x40 MLOAD DUP1 SWAP2 SUB SWAP1 RETURN JUMPDEST CALLVALUE DUP1 ISZERO PUSH2 0x3B8 JUMPI PUSH0 PUSH0 REVERT JUMPDEST POP PUSH2 0x3C1 PUSH2 0xCF9 JUMP JUMPDEST PUSH1 0x40 MLOAD PUSH2 0x3CE SWAP2 SWAP1 PUSH2 0x14A9 JUMP JUMPDEST PUSH1 0x40 MLOAD DUP1 SWAP2 SUB SWAP1 RETURN JUMPDEST CALLVALUE DUP1 ISZERO PUSH2 0x3E2 JUMPI PUSH0 PUSH0 REVERT JUMPDEST POP PUSH2 0x3FD PUSH1 0x4 DUP1 CALLDATASIZE SUB DUP2 ADD SWAP1 PUSH2 0x3F8 SWAP2 SWAP1 PUSH2 0x1352 JUMP JUMPDEST PUSH2 0xD1E JUMP JUMPDEST PUSH1 0x40 MLOAD PUSH2 0x40A SWAP2 SWAP1 PUSH2 0x13AA JUMP JUMPDEST PUSH1 0x40 MLOAD DUP1 SWAP2 SUB SWAP1 RETURN JUMPDEST CALLVALUE DUP1 ISZERO PUSH2 0x41E JUMPI PUSH0 PUSH0 REVERT JUMPDEST POP PUSH2 0x427 PUSH2 0xDD8 JUMP JUMPDEST PUSH1 0x40 MLOAD PUSH2 0x434 SWAP2 SWAP1 PUSH2 0x13AA JUMP JUMPDEST PUSH1 0x40 MLOAD DUP1 SWAP2 SUB SWAP1 RETURN JUMPDEST CALLVALUE DUP1 ISZERO PUSH2 0x448 JUMPI PUSH0 PUSH0 REVERT JUMPDEST POP PUSH2 0x451 PUSH2 0xDEB JUMP JUMPDEST PUSH1 0x40 MLOAD PUSH2 0x45E SWAP2 SWAP1 PUSH2 0x13D2 JUMP JUMPDEST PUSH1 0x40 MLOAD DUP1 SWAP2 SUB SWAP1 RETURN JUMPDEST PUSH2 0x46F PUSH2 0x501 JUMP JUMPDEST STOP JUMPDEST CALLVALUE DUP1 ISZERO PUSH2 0x47C JUMPI PUSH0 PUSH0 REVERT JUMPDEST POP PUSH2 0x497 PUSH1 0x4 DUP1 CALLDATASIZE SUB DUP2 ADD SWAP1 PUSH2 0x492 SWAP2 SWAP1 PUSH2 0x14C2 JUMP JUMPDEST PUSH2 0xDF1 JUMP JUMPDEST PUSH1 0x40 MLOAD PUSH2 0x4A4 SWAP2 SWAP1 PUSH2 0x13D2 JUMP JUMPDEST PUSH1 0x40 MLOAD DUP1 SWAP2 SUB SWAP1 RETURN JUMPDEST CALLVALUE DUP1 ISZERO PUSH2 0x4B8 JUMPI PUSH0 PUSH0 REVERT JUMPDEST POP PUSH2 0x4C1 PUSH2 0xE11 JUMP JUMPDEST PUSH1 0x40 MLOAD PUSH2 0x4CE SWAP2 SWAP1 PUSH2 0x13D2 JUMP JUMPDEST PUSH1 0x40 MLOAD DUP1 SWAP2 SUB SWAP1 RETURN JUMPDEST CALLVALUE DUP1 ISZERO PUSH2 0x4E2 JUMPI PUSH0 PUSH0 REVERT JUMPDEST POP PUSH2 0x4EB PUSH2 0xE37 JUMP JUMPDEST PUSH1 0x40 MLOAD PUSH2 0x4F8 SWAP2 SWAP1 PUSH2 0x13D2 JUMP JUMPDEST PUSH1 0x40 MLOAD DUP1 SWAP2 SUB SWAP1 RETURN JUMPDEST PUSH2 0x509 PUSH2 0x941 JUMP JUMPDEST PUSH2 0x548 JUMPI PUSH1 0x40 MLOAD PUSH32 0x8C379A000000000000000000000000000000000000000000000000000000000 DUP2 MSTORE PUSH1 0x4 ADD PUSH2 0x53F SWAP1 PUSH2 0x154A JUMP JUMPDEST PUSH1 0x40 MLOAD DUP1 SWAP2 SUB SWAP1 REVERT JUMPDEST PUSH1 0x9 SLOAD CALLVALUE LT ISZERO PUSH2 0x58D JUMPI PUSH1 0x40 MLOAD PUSH32 0x8C379A000000000000000000000000000000000000000000000000000000000 DUP2 MSTORE PUSH1 0x4 ADD PUSH2 0x584 SWAP1 PUSH2 0x15B2 JUMP JUMPDEST PUSH1 0x40 MLOAD DUP1 SWAP2 SUB SWAP1 REVERT JUMPDEST PUSH1 0xA SLOAD CALLVALUE GT ISZERO PUSH2 0x5D2 JUMPI PUSH1 0x40 MLOAD PUSH32 0x8C379A000000000000000000000000000000000000000000000000000000000 DUP2 MSTORE PUSH1 0x4 ADD PUSH2 0x5C9 SWAP1 PUSH2 0x161A JUMP JUMPDEST PUSH1 0x40 MLOAD DUP1 SWAP2 SUB SWAP1 REVERT JUMPDEST PUSH0 PUSH1 0x6 SLOAD PUSH1 0x2 PUSH0 SWAP1 SLOAD SWAP1 PUSH2 0x100 EXP SWAP1 DIV PUSH1 0xFF AND PUSH1 0xFF AND PUSH1 0xA PUSH2 0x5F4 SWAP2 SWAP1 PUSH2 0x1794 JUMP JUMPDEST CALLVALUE PUSH2 0x5FF SWAP2 SWAP1 PUSH2 0x17DE JUMP JUMPDEST PUSH2 0x609 SWAP2 SWAP1 PUSH2 0x184C JUMP JUMPDEST SWAP1 POP DUP1 PUSH1 0x4 PUSH0 ADDRESS PUSH20 0xFFFFFFFFFFFFFFFFFFFFFFFFFFFFFFFFFFFFFFFF AND PUSH20 0xFFFFFFFFFFFFFFFFFFFFFFFFFFFFFFFFFFFFFFFF AND DUP2 MSTORE PUSH1 0x20 ADD SWAP1 DUP2 MSTORE PUSH1 0x20 ADD PUSH0 KECCAK256 SLOAD LT ISZERO PUSH2 0x68B JUMPI PUSH1 0x40 MLOAD PUSH32 0x8C379A000000000000000000000000000000000000000000000000000000000 DUP2 MSTORE PUSH1 0x4 ADD PUSH2 0x682 SWAP1 PUSH2 0x18C6 JUMP JUMPDEST PUSH1 0x40 MLOAD DUP1 SWAP2 SUB SWAP1 REVERT JUMPDEST CALLVALUE PUSH1 0xB PUSH0 DUP3 DUP3 SLOAD PUSH2 0x69C SWAP2 SWAP1 PUSH2 0x18E4 JUMP JUMPDEST SWAP3 POP POP DUP2 SWAP1 SSTORE POP PUSH2 0x6AE ADDRESS CALLER DUP4 PUSH2 0xE3D JUMP JUMPDEST CALLER PUSH20 0xFFFFFFFFFFFFFFFFFFFFFFFFFFFFFFFFFFFFFFFF AND PUSH32 0x8FAFEBCAF9D154343DAD25669BFA277F4FBACD7AC6B0C4FED522580E040A0F33 CALLVALUE DUP4 PUSH1 0x40 MLOAD PUSH2 0x6F6 SWAP3 SWAP2 SWAP1 PUSH2 0x1917 JUMP JUMPDEST PUSH1 0x40 MLOAD DUP1 SWAP2 SUB SWAP1 LOG2 POP JUMP JUMPDEST PUSH0 DUP1 SLOAD PUSH2 0x70D SWAP1 PUSH2 0x196B JUMP JUMPDEST DUP1 PUSH1 0x1F ADD PUSH1 0x20 DUP1 SWAP2 DIV MUL PUSH1 0x20 ADD PUSH1 0x40 MLOAD SWAP1 DUP2 ADD PUSH1 0x40 MSTORE DUP1 SWAP3 SWAP2 SWAP1 DUP2 DUP2 MSTORE PUSH1 0x20 ADD DUP3 DUP1 SLOAD PUSH2 0x739 SWAP1 PUSH2 0x196B JUMP JUMPDEST DUP1 ISZERO PUSH2 0x784 JUMPI DUP1 PUSH1 0x1F LT PUSH2 0x75B JUMPI PUSH2 0x100 DUP1 DUP4 SLOAD DIV MUL DUP4 MSTORE SWAP2 PUSH1 0x20 ADD SWAP2 PUSH2 0x784 JUMP JUMPDEST DUP3 ADD SWAP2 SWAP1 PUSH0 MSTORE PUSH1 0x20 PUSH0 KECCAK256 SWAP1 JUMPDEST DUP2 SLOAD DUP2 MSTORE SWAP1 PUSH1 0x1 ADD SWAP1 PUSH1 0x20 ADD DUP1 DUP4 GT PUSH2 0x767 JUMPI DUP3 SWAP1 SUB PUSH1 0x1F AND DUP3 ADD SWAP2 JUMPDEST POP POP POP POP POP DUP2 JUMP JUMPDEST PUSH0 DUP2 PUSH1 0x5 PUSH0 CALLER PUSH20 0xFFFFFFFFFFFFFFFFFFFFFFFFFFFFFFFFFFFFFFFF AND PUSH20 0xFFFFFFFFFFFFFFFFFFFFFFFFFFFFFFFFFFFFFFFF AND DUP2 MSTORE PUSH1 0x20 ADD SWAP1 DUP2 MSTORE PUSH1 0x20 ADD PUSH0 KECCAK256 PUSH0 DUP6 PUSH20 0xFFFFFFFFFFFFFFFFFFFFFFFFFFFFFFFFFFFFFFFF AND PUSH20 0xFFFFFFFFFFFFFFFFFFFFFFFFFFFFFFFFFFFFFFFF AND DUP2 MSTORE PUSH1 0x20 ADD SWAP1 DUP2 MSTORE PUSH1 0x20 ADD PUSH0 KECCAK256 DUP2 SWAP1 SSTORE POP DUP3 PUSH20 0xFFFFFFFFFFFFFFFFFFFFFFFFFFFFFFFFFFFFFFFF AND CALLER PUSH20 0xFFFFFFFFFFFFFFFFFFFFFFFFFFFFFFFFFFFFFFFF AND PUSH32 0x8C5BE1E5EBEC7D5BD14F71427D1E84F3DD0314C0F7B2291E5B200AC8C7C3B925 DUP5 PUSH1 0x40 MLOAD PUSH2 0x867 SWAP2 SWAP1 PUSH2 0x13D2 JUMP JUMPDEST PUSH1 0x40 MLOAD DUP1 SWAP2 SUB SWAP1 LOG3 PUSH1 0x1 SWAP1 POP SWAP3 SWAP2 POP POP JUMP JUMPDEST PUSH1 0x3 SLOAD DUP2 JUMP JUMPDEST PUSH1 0x7 SLOAD DUP2 JUMP JUMPDEST PUSH0 PUSH1 0xC PUSH1 0x14 SWAP1 SLOAD SWAP1 PUSH2 0x100 EXP SWAP1 DIV PUSH1 0xFF AND ISZERO DUP1 ISZERO PUSH2 0x8CF JUMPI POP ADDRESS PUSH20 0xFFFFFFFFFFFFFFFFFFFFFFFFFFFFFFFFFFFFFFFF AND DUP5 PUSH20 0xFFFFFFFFFFFFFFFFFFFFFFFFFFFFFFFFFFFFFFFF AND EQ ISZERO JUMPDEST ISZERO PUSH2 0x915 JUMPI PUSH0 PUSH2 0x914 JUMPI PUSH1 0x40 MLOAD PUSH32 0x8C379A000000000000000000000000000000000000000000000000000000000 DUP2 MSTORE PUSH1 0x4 ADD PUSH2 0x90B SWAP1 PUSH2 0x1A0B JUMP JUMPDEST PUSH1 0x40 MLOAD DUP1 SWAP2 SUB SWAP1 REVERT JUMPDEST JUMPDEST PUSH2 0x920 DUP5 DUP5 DUP5 PUSH2 0xFBB JUMP JUMPDEST SWAP1 POP SWAP4 SWAP3 POP POP POP JUMP JUMPDEST PUSH1 0x2 PUSH0 SWAP1 SLOAD SWAP1 PUSH2 0x100 EXP SWAP1 DIV PUSH1 0xFF AND DUP2 JUMP JUMPDEST PUSH1 0x9 SLOAD DUP2 JUMP JUMPDEST PUSH0 PUSH1 0xC PUSH1 0x14 SWAP1 SLOAD SWAP1 PUSH2 0x100 EXP SWAP1 DIV PUSH1 0xFF AND ISZERO DUP1 ISZERO PUSH2 0x961 JUMPI POP PUSH1 0x7 SLOAD TIMESTAMP LT ISZERO JUMPDEST DUP1 ISZERO PUSH2 0x96F JUMPI POP PUSH1 0x8 SLOAD TIMESTAMP GT ISZERO JUMPDEST SWAP1 POP SWAP1 JUMP JUMPDEST PUSH1 0xC PUSH0 SWAP1 SLOAD SWAP1 PUSH2 0x100 EXP SWAP1 DIV PUSH20 0xFFFFFFFFFFFFFFFFFFFFFFFFFFFFFFFFFFFFFFFF AND PUSH20 0xFFFFFFFFFFFFFFFFFFFFFFFFFFFFFFFFFFFFFFFF AND CALLER PUSH20 0xFFFFFFFFFFFFFFFFFFFFFFFFFFFFFFFFFFFFFFFF AND EQ PUSH2 0xA03 JUMPI PUSH1 0x40 MLOAD PUSH32 0x8C379A000000000000000000000000000000000000000000000000000000000 DUP2 MSTORE PUSH1 0x4 ADD PUSH2 0x9FA SWAP1 PUSH2 0x1A99 JUMP JUMPDEST PUSH1 0x40 MLOAD DUP1 SWAP2 SUB SWAP1 REVERT JUMPDEST PUSH1 0xC PUSH1 0x14 SWAP1 SLOAD SWAP1 PUSH2 0x100 EXP SWAP1 DIV PUSH1 0xFF AND ISZERO PUSH2 0xA53 JUMPI PUSH1 0x40 MLOAD PUSH32 0x8C379A000000000000000000000000000000000000000000000000000000000 DUP2 MSTORE PUSH1 0x4 ADD PUSH2 0xA4A SWAP1 PUSH2 0x1B01 JUMP JUMPDEST PUSH1 0x40 MLOAD DUP1 SWAP2 SUB SWAP1 REVERT JUMPDEST PUSH1 0x8 SLOAD TIMESTAMP GT PUSH2 0xA97 JUMPI PUSH1 0x40 MLOAD PUSH32 0x8C379A000000000000000000000000000000000000000000000000000000000 DUP2 MSTORE PUSH1 0x4 ADD PUSH2 0xA8E SWAP1 PUSH2 0x1B69 JUMP JUMPDEST PUSH1 0x40 MLOAD DUP1 SWAP2 SUB SWAP1 REVERT JUMPDEST PUSH1 0x1 PUSH1 0xC PUSH1 0x14 PUSH2 0x100 EXP DUP2 SLOAD DUP2 PUSH1 0xFF MUL NOT AND SWAP1 DUP4 ISZERO ISZERO MUL OR SWAP1 SSTORE POP PUSH0 PUSH1 0x4 PUSH0 ADDRESS PUSH20 0xFFFFFFFFFFFFFFFFFFFFFFFFFFFFFFFFFFFFFFFF AND PUSH20 0xFFFFFFFFFFFFFFFFFFFFFFFFFFFFFFFFFFFFFFFF AND DUP2 MSTORE PUSH1 0x20 ADD SWAP1 DUP2 MSTORE PUSH1 0x20 ADD PUSH0 KECCAK256 SLOAD PUSH1 0x3 SLOAD PUSH2 0xAFE SWAP2 SWAP1 PUSH2 0x1B87 JUMP JUMPDEST SWAP1 POP PUSH0 PUSH1 0xC PUSH0 SWAP1 SLOAD SWAP1 PUSH2 0x100 EXP SWAP1 DIV PUSH20 0xFFFFFFFFFFFFFFFFFFFFFFFFFFFFFFFFFFFFFFFF AND PUSH20 0xFFFFFFFFFFFFFFFFFFFFFFFFFFFFFFFFFFFFFFFF AND SELFBALANCE PUSH1 0x40 MLOAD PUSH2 0xB46 SWAP1 PUSH2 0x1BE7 JUMP JUMPDEST PUSH0 PUSH1 0x40 MLOAD DUP1 DUP4 SUB DUP2 DUP6 DUP8 GAS CALL SWAP3 POP POP POP RETURNDATASIZE DUP1 PUSH0 DUP2 EQ PUSH2 0xB80 JUMPI PUSH1 0x40 MLOAD SWAP2 POP PUSH1 0x1F NOT PUSH1 0x3F RETURNDATASIZE ADD AND DUP3 ADD PUSH1 0x40 MSTORE RETURNDATASIZE DUP3 MSTORE RETURNDATASIZE PUSH0 PUSH1 0x20 DUP5 ADD RETURNDATACOPY PUSH2 0xB85 JUMP JUMPDEST PUSH1 0x60 SWAP2 POP JUMPDEST POP POP SWAP1 POP DUP1 PUSH2 0xBC9 JUMPI PUSH1 0x40 MLOAD PUSH32 0x8C379A000000000000000000000000000000000000000000000000000000000 DUP2 MSTORE PUSH1 0x4 ADD PUSH2 0xBC0 SWAP1 PUSH2 0x1C45 JUMP JUMPDEST PUSH1 0x40 MLOAD DUP1 SWAP2 SUB SWAP1 REVERT JUMPDEST PUSH32 0x17B1A568460BC127A7F9A9677D502AC593FA4AF690A1C3AED38BDA591E196E2E PUSH1 0xB SLOAD DUP4 PUSH1 0x40 MLOAD PUSH2 0xBFC SWAP3 SWAP2 SWAP1 PUSH2 0x1917 JUMP JUMPDEST PUSH1 0x40 MLOAD DUP1 SWAP2 SUB SWAP1 LOG1 POP POP JUMP JUMPDEST PUSH0 PUSH1 0x4 PUSH0 ADDRESS PUSH20 0xFFFFFFFFFFFFFFFFFFFFFFFFFFFFFFFFFFFFFFFF AND PUSH20 0xFFFFFFFFFFFFFFFFFFFFFFFFFFFFFFFFFFFFFFFF AND DUP2 MSTORE PUSH1 0x20 ADD SWAP1 DUP2 MSTORE PUSH1 0x20 ADD PUSH0 KECCAK256 SLOAD SWAP1 POP SWAP1 JUMP JUMPDEST PUSH1 0x4 PUSH1 0x20 MSTORE DUP1 PUSH0 MSTORE PUSH1 0x40 PUSH0 KECCAK256 PUSH0 SWAP2 POP SWAP1 POP SLOAD DUP2 JUMP JUMPDEST PUSH1 0x6 SLOAD DUP2 JUMP JUMPDEST PUSH1 0x1 DUP1 SLOAD PUSH2 0xC74 SWAP1 PUSH2 0x196B JUMP JUMPDEST DUP1 PUSH1 0x1F ADD PUSH1 0x20 DUP1 SWAP2 DIV MUL PUSH1 0x20 ADD PUSH1 0x40 MLOAD SWAP1 DUP2 ADD PUSH1 0x40 MSTORE DUP1 SWAP3 SWAP2 SWAP1 DUP2 DUP2 MSTORE PUSH1 0x20 ADD DUP3 DUP1 SLOAD PUSH2 0xCA0 SWAP1 PUSH2 0x196B JUMP JUMPDEST DUP1 ISZERO PUSH2 0xCEB JUMPI DUP1 PUSH1 0x1F LT PUSH2 0xCC2 JUMPI PUSH2 0x100 DUP1 DUP4 SLOAD DIV MUL DUP4 MSTORE SWAP2 PUSH1 0x20 ADD SWAP2 PUSH2 0xCEB JUMP JUMPDEST DUP3 ADD SWAP2 SWAP1 PUSH0 MSTORE PUSH1 0x20 PUSH0 KECCAK256 SWAP1 JUMPDEST DUP2 SLOAD DUP2 MSTORE SWAP1 PUSH1 0x1 ADD SWAP1 PUSH1 0x20 ADD DUP1 DUP4 GT PUSH2 0xCCE JUMPI DUP3 SWAP1 SUB PUSH1 0x1F AND DUP3 ADD SWAP2 JUMPDEST POP POP POP POP POP DUP2 JUMP JUMPDEST PUSH1 0xA SLOAD DUP2 JUMP JUMPDEST PUSH1 0xC PUSH0 SWAP1 SLOAD SWAP1 PUSH2 0x100 EXP SWAP1 DIV PUSH20 0xFFFFFFFFFFFFFFFFFFFFFFFFFFFFFFFFFFFFFFFF AND DUP2 JUMP JUMPDEST PUSH0 PUSH1 0xC PUSH1 0x14 SWAP1 SLOAD SWAP1 PUSH2 0x100 EXP SWAP1 DIV PUSH1 0xFF AND ISZERO DUP1 ISZERO PUSH2 0xD68 JUMPI POP ADDRESS PUSH20 0xFFFFFFFFFFFFFFFFFFFFFFFFFFFFFFFFFFFFFFFF AND CALLER PUSH20 0xFFFFFFFFFFFFFFFFFFFFFFFFFFFFFFFFFFFFFFFF AND EQ ISZERO JUMPDEST DUP1 ISZERO PUSH2 0xD80 JUMPI POP PUSH1 0xC PUSH1 0x15 SWAP1 SLOAD SWAP1 PUSH2 0x100 EXP SWAP1 DIV PUSH1 0xFF AND JUMPDEST ISZERO PUSH2 0xDC6 JUMPI PUSH0 PUSH2 0xDC5 JUMPI PUSH1 0x40 MLOAD PUSH32 0x8C379A000000000000000000000000000000000000000000000000000000000 DUP2 MSTORE PUSH1 0x4 ADD PUSH2 0xDBC SWAP1 PUSH2 0x1A0B JUMP JUMPDEST PUSH1 0x40 MLOAD DUP1 SWAP2 SUB SWAP1 REVERT JUMPDEST JUMPDEST PUSH2 0xDD0 DUP4 DUP4 PUSH2 0x119B JUMP JUMPDEST SWAP1 POP SWAP3 SWAP2 POP POP JUMP JUMPDEST PUSH1 0xC PUSH1 0x14 SWAP1 SLOAD SWAP1 PUSH2 0x100 EXP SWAP1 DIV PUSH1 0xFF AND DUP2 JUMP JUMPDEST PUSH1 0xB SLOAD DUP2 JUMP JUMPDEST PUSH1 0x5 PUSH1 0x20 MSTORE DUP2 PUSH0 MSTORE PUSH1 0x40 PUSH0 KECCAK256 PUSH1 0x20 MSTORE DUP1 PUSH0 MSTORE PUSH1 0x40 PUSH0 KECCAK256 PUSH0 SWAP2 POP SWAP2 POP POP SLOAD DUP2 JUMP JUMPDEST PUSH0 PUSH1 0x8 SLOAD TIMESTAMP LT PUSH2 0xE23 JUMPI PUSH0 SWAP1 POP PUSH2 0xE34 JUMP JUMPDEST TIMESTAMP PUSH1 0x8 SLOAD PUSH2 0xE31 SWAP2 SWAP1 PUSH2 0x1B87 JUMP JUMPDEST SWAP1 POP JUMPDEST SWAP1 JUMP JUMPDEST PUSH1 0x8 SLOAD DUP2 JUMP JUMPDEST PUSH0 PUSH20 0xFFFFFFFFFFFFFFFFFFFFFFFFFFFFFFFFFFFFFFFF AND DUP3 PUSH20 0xFFFFFFFFFFFFFFFFFFFFFFFFFFFFFFFFFFFFFFFF AND SUB PUSH2 0xEAB JUMPI PUSH1 0x40 MLOAD PUSH32 0x8C379A000000000000000000000000000000000000000000000000000000000 DUP2 MSTORE PUSH1 0x4 ADD PUSH2 0xEA2 SWAP1 PUSH2 0x1CD3 JUMP JUMPDEST PUSH1 0x40 MLOAD DUP1 SWAP2 SUB SWAP1 REVERT JUMPDEST DUP1 PUSH1 0x4 PUSH0 DUP6 PUSH20 0xFFFFFFFFFFFFFFFFFFFFFFFFFFFFFFFFFFFFFFFF AND PUSH20 0xFFFFFFFFFFFFFFFFFFFFFFFFFFFFFFFFFFFFFFFF AND DUP2 MSTORE PUSH1 0x20 ADD SWAP1 DUP2 MSTORE PUSH1 0x20 ADD PUSH0 KECCAK256 PUSH0 DUP3 DUP3 SLOAD PUSH2 0xEF7 SWAP2 SWAP1 PUSH2 0x1B87 JUMP JUMPDEST SWAP3 POP POP DUP2 SWAP1 SSTORE POP DUP1 PUSH1 0x4 PUSH0 DUP5 PUSH20 0xFFFFFFFFFFFFFFFFFFFFFFFFFFFFFFFFFFFFFFFF AND PUSH20 0xFFFFFFFFFFFFFFFFFFFFFFFFFFFFFFFFFFFFFFFF AND DUP2 MSTORE PUSH1 0x20 ADD SWAP1 DUP2 MSTORE PUSH1 0x20 ADD PUSH0 KECCAK256 PUSH0 DUP3 DUP3 SLOAD PUSH2 0xF4A SWAP2 SWAP1 PUSH2 0x18E4 JUMP JUMPDEST SWAP3 POP POP DUP2 SWAP1 SSTORE POP DUP2 PUSH20 0xFFFFFFFFFFFFFFFFFFFFFFFFFFFFFFFFFFFFFFFF AND DUP4 PUSH20 0xFFFFFFFFFFFFFFFFFFFFFFFFFFFFFFFFFFFFFFFF AND PUSH32 0xDDF252AD1BE2C89B69C2B068FC378DAA952BA7F163C4A11628F55A4DF523B3EF DUP4 PUSH1 0x40 MLOAD PUSH2 0xFAE SWAP2 SWAP1 PUSH2 0x13D2 JUMP JUMPDEST PUSH1 0x40 MLOAD DUP1 SWAP2 SUB SWAP1 LOG3 POP POP POP JUMP JUMPDEST PUSH0 DUP2 PUSH1 0x4 PUSH0 DUP7 PUSH20 0xFFFFFFFFFFFFFFFFFFFFFFFFFFFFFFFFFFFFFFFF AND PUSH20 0xFFFFFFFFFFFFFFFFFFFFFFFFFFFFFFFFFFFFFFFF AND DUP2 MSTORE PUSH1 0x20 ADD SWAP1 DUP2 MSTORE PUSH1 0x20 ADD PUSH0 KECCAK256 SLOAD LT ISZERO PUSH2 0x103C JUMPI PUSH1 0x40 MLOAD PUSH32 0x8C379A000000000000000000000000000000000000000000000000000000000 DUP2 MSTORE PUSH1 0x4 ADD PUSH2 0x1033 SWAP1 PUSH2 0x1D3B JUMP JUMPDEST PUSH1 0x40 MLOAD DUP1 SWAP2 SUB SWAP1 REVERT JUMPDEST DUP2 PUSH1 0x5 PUSH0 DUP7 PUSH20 0xFFFFFFFFFFFFFFFFFFFFFFFFFFFFFFFFFFFFFFFF AND PUSH20 0xFFFFFFFFFFFFFFFFFFFFFFFFFFFFFFFFFFFFFFFF AND DUP2 MSTORE PUSH1 0x20 ADD SWAP1 DUP2 MSTORE PUSH1 0x20 ADD PUSH0 KECCAK256 PUSH0 CALLER PUSH20 0xFFFFFFFFFFFFFFFFFFFFFFFFFFFFFFFFFFFFFFFF AND PUSH20 0xFFFFFFFFFFFFFFFFFFFFFFFFFFFFFFFFFFFFFFFF AND DUP2 MSTORE PUSH1 0x20 ADD SWAP1 DUP2 MSTORE PUSH1 0x20 ADD PUSH0 KECCAK256 SLOAD LT ISZERO PUSH2 0x10F7 JUMPI PUSH1 0x40 MLOAD PUSH32 0x8C379A000000000000000000000000000000000000000000000000000000000 DUP2 MSTORE PUSH1 0x4 ADD PUSH2 0x10EE SWAP1 PUSH2 0x1DA3 JUMP JUMPDEST PUSH1 0x40 MLOAD DUP1 SWAP2 SUB SWAP1 REVERT JUMPDEST DUP2 PUSH1 0x5 PUSH0 DUP7 PUSH20 0xFFFFFFFFFFFFFFFFFFFFFFFFFFFFFFFFFFFFFFFF AND PUSH20 0xFFFFFFFFFFFFFFFFFFFFFFFFFFFFFFFFFFFFFFFF AND DUP2 MSTORE PUSH1 0x20 ADD SWAP1 DUP2 MSTORE PUSH1 0x20 ADD PUSH0 KECCAK256 PUSH0 CALLER PUSH20 0xFFFFFFFFFFFFFFFFFFFFFFFFFFFFFFFFFFFFFFFF AND PUSH20 0xFFFFFFFFFFFFFFFFFFFFFFFFFFFFFFFFFFFFFFFF AND DUP2 MSTORE PUSH1 0x20 ADD SWAP1 DUP2 MSTORE PUSH1 0x20 ADD PUSH0 KECCAK256 PUSH0 DUP3 DUP3 SLOAD PUSH2 0x117E SWAP2 SWAP1 PUSH2 0x1B87 JUMP JUMPDEST SWAP3 POP POP DUP2 SWAP1 SSTORE POP PUSH2 0x1190 DUP5 DUP5 DUP5 PUSH2 0xE3D JUMP JUMPDEST PUSH1 0x1 SWAP1 POP SWAP4 SWAP3 POP POP POP JUMP JUMPDEST PUSH0 DUP2 PUSH1 0x4 PUSH0 CALLER PUSH20 0xFFFFFFFFFFFFFFFFFFFFFFFFFFFFFFFFFFFFFFFF AND PUSH20 0xFFFFFFFFFFFFFFFFFFFFFFFFFFFFFFFFFFFFFFFF AND DUP2 MSTORE PUSH1 0x20 ADD SWAP1 DUP2 MSTORE PUSH1 0x20 ADD PUSH0 KECCAK256 SLOAD LT ISZERO PUSH2 0x121C JUMPI PUSH1 0x40 MLOAD PUSH32 0x8C379A000000000000000000000000000000000000000000000000000000000 DUP2 MSTORE PUSH1 0x4 ADD PUSH2 0x1213 SWAP1 PUSH2 0x1D3B JUMP JUMPDEST PUSH1 0x40 MLOAD DUP1 SWAP2 SUB SWAP1 REVERT JUMPDEST PUSH2 0x1227 CALLER DUP5 DUP5 PUSH2 0xE3D JUMP JUMPDEST PUSH1 0x1 SWAP1 POP SWAP3 SWAP2 POP POP JUMP JUMPDEST PUSH0 DUP2 MLOAD SWAP1 POP SWAP2 SWAP1 POP JUMP JUMPDEST PUSH0 DUP3 DUP3 MSTORE PUSH1 0x20 DUP3 ADD SWAP1 POP SWAP3 SWAP2 POP POP JUMP JUMPDEST DUP3 DUP2 DUP4 MCOPY PUSH0 DUP4 DUP4 ADD MSTORE POP POP POP JUMP JUMPDEST PUSH0 PUSH1 0x1F NOT PUSH1 0x1F DUP4 ADD AND SWAP1 POP SWAP2 SWAP1 POP JUMP JUMPDEST PUSH0 PUSH2 0x1273 DUP3 PUSH2 0x1231 JUMP JUMPDEST PUSH2 0x127D DUP2 DUP6 PUSH2 0x123B JUMP JUMPDEST SWAP4 POP PUSH2 0x128D DUP2 DUP6 PUSH1 0x20 DUP7 ADD PUSH2 0x124B JUMP JUMPDEST PUSH2 0x1296 DUP2 PUSH2 0x1259 JUMP JUMPDEST DUP5 ADD SWAP2 POP POP SWAP3 SWAP2 POP POP JUMP JUMPDEST PUSH0 PUSH1 0x20 DUP3 ADD SWAP1 POP DUP2 DUP2 SUB PUSH0 DUP4 ADD MSTORE PUSH2 0x12B9 DUP2 DUP5 PUSH2 0x1269 JUMP JUMPDEST SWAP1 POP SWAP3 SWAP2 POP POP JUMP JUMPDEST PUSH0 PUSH0 REVERT JUMPDEST PUSH0 PUSH20 0xFFFFFFFFFFFFFFFFFFFFFFFFFFFFFFFFFFFFFFFF DUP3 AND SWAP1 POP SWAP2 SWAP1 POP JUMP JUMPDEST PUSH0 PUSH2 0x12EE DUP3 PUSH2 0x12C5 JUMP JUMPDEST SWAP1 POP SWAP2 SWAP1 POP JUMP JUMPDEST PUSH2 0x12FE DUP2 PUSH2 0x12E4 JUMP JUMPDEST DUP2 EQ PUSH2 0x1308 JUMPI PUSH0 PUSH0 REVERT JUMPDEST POP JUMP JUMPDEST PUSH0 DUP2 CALLDATALOAD SWAP1 POP PUSH2 0x1319 DUP2 PUSH2 0x12F5 JUMP JUMPDEST SWAP3 SWAP2 POP POP JUMP JUMPDEST PUSH0 DUP2 SWAP1 POP SWAP2 SWAP1 POP JUMP JUMPDEST PUSH2 0x1331 DUP2 PUSH2 0x131F JUMP JUMPDEST DUP2 EQ PUSH2 0x133B JUMPI PUSH0 PUSH0 REVERT JUMPDEST POP JUMP JUMPDEST PUSH0 DUP2 CALLDATALOAD SWAP1 POP PUSH2 0x134C DUP2 PUSH2 0x1328 JUMP JUMPDEST SWAP3 SWAP2 POP POP JUMP JUMPDEST PUSH0 PUSH0 PUSH1 0x40 DUP4 DUP6 SUB SLT ISZERO PUSH2 0x1368 JUMPI PUSH2 0x1367 PUSH2 0x12C1 JUMP JUMPDEST JUMPDEST PUSH0 PUSH2 0x1375 DUP6 DUP3 DUP7 ADD PUSH2 0x130B JUMP JUMPDEST SWAP3 POP POP PUSH1 0x20 PUSH2 0x1386 DUP6 DUP3 DUP7 ADD PUSH2 0x133E JUMP JUMPDEST SWAP2 POP POP SWAP3 POP SWAP3 SWAP1 POP JUMP JUMPDEST PUSH0 DUP2 ISZERO ISZERO SWAP1 POP SWAP2 SWAP1 POP JUMP JUMPDEST PUSH2 0x13A4 DUP2 PUSH2 0x1390 JUMP JUMPDEST DUP3 MSTORE POP POP JUMP JUMPDEST PUSH0 PUSH1 0x20 DUP3 ADD SWAP1 POP PUSH2 0x13BD PUSH0 DUP4 ADD DUP5 PUSH2 0x139B JUMP JUMPDEST SWAP3 SWAP2 POP POP JUMP JUMPDEST PUSH2 0x13CC DUP2 PUSH2 0x131F JUMP JUMPDEST DUP3 MSTORE POP POP JUMP JUMPDEST PUSH0 PUSH1 0x20 DUP3 ADD SWAP1 POP PUSH2 0x13E5 PUSH0 DUP4 ADD DUP5 PUSH2 0x13C3 JUMP JUMPDEST SWAP3 SWAP2 POP POP JUMP JUMPDEST PUSH0 PUSH0 PUSH0 PUSH1 0x60 DUP5 DUP7 SUB SLT ISZERO PUSH2 0x1402 JUMPI PUSH2 0x1401 PUSH2 0x12C1 JUMP JUMPDEST JUMPDEST PUSH0 PUSH2 0x140F DUP7 DUP3 DUP8 ADD PUSH2 0x130B JUMP JUMPDEST SWAP4 POP POP PUSH1 0x20 PUSH2 0x1420 DUP7 DUP3 DUP8 ADD PUSH2 0x130B JUMP JUMPDEST SWAP3 POP POP PUSH1 0x40 PUSH2 0x1431 DUP7 DUP3 DUP8 ADD PUSH2 0x133E JUMP JUMPDEST SWAP2 POP POP SWAP3 POP SWAP3 POP SWAP3 JUMP JUMPDEST PUSH0 PUSH1 0xFF DUP3 AND SWAP1 POP SWAP2 SWAP1 POP JUMP JUMPDEST PUSH2 0x1450 DUP2 PUSH2 0x143B JUMP JUMPDEST DUP3 MSTORE POP POP JUMP JUMPDEST PUSH0 PUSH1 0x20 DUP3 ADD SWAP1 POP PUSH2 0x1469 PUSH0 DUP4 ADD DUP5 PUSH2 0x1447 JUMP JUMPDEST SWAP3 SWAP2 POP POP JUMP JUMPDEST PUSH0 PUSH1 0x20 DUP3 DUP5 SUB SLT ISZERO PUSH2 0x1484 JUMPI PUSH2 0x1483 PUSH2 0x12C1 JUMP JUMPDEST JUMPDEST PUSH0 PUSH2 0x1491 DUP5 DUP3 DUP6 ADD PUSH2 0x130B JUMP JUMPDEST SWAP2 POP POP SWAP3 SWAP2 POP POP JUMP JUMPDEST PUSH2 0x14A3 DUP2 PUSH2 0x12E4 JUMP JUMPDEST DUP3 MSTORE POP POP JUMP JUMPDEST PUSH0 PUSH1 0x20 DUP3 ADD SWAP1 POP PUSH2 0x14BC PUSH0 DUP4 ADD DUP5 PUSH2 0x149A JUMP JUMPDEST SWAP3 SWAP2 POP POP JUMP JUMPDEST PUSH0 PUSH0 PUSH1 0x40 DUP4 DUP6 SUB SLT ISZERO PUSH2 0x14D8 JUMPI PUSH2 0x14D7 PUSH2 0x12C1 JUMP JUMPDEST JUMPDEST PUSH0 PUSH2 0x14E5 DUP6 DUP3 DUP7 ADD PUSH2 0x130B JUMP JUMPDEST SWAP3 POP POP PUSH1 0x20 PUSH2 0x14F6 DUP6 DUP3 DUP7 ADD PUSH2 0x130B JUMP JUMPDEST SWAP2 POP POP SWAP3 POP SWAP3 SWAP1 POP JUMP JUMPDEST PUSH32 0x53616C65206973206E6F74206163746976650000000000000000000000000000 PUSH0 DUP3 ADD MSTORE POP JUMP JUMPDEST PUSH0 PUSH2 0x1534 PUSH1 0x12 DUP4 PUSH2 0x123B JUMP JUMPDEST SWAP2 POP PUSH2 0x153F DUP3 PUSH2 0x1500 JUMP JUMPDEST PUSH1 0x20 DUP3 ADD SWAP1 POP SWAP2 SWAP1 POP JUMP JUMPDEST PUSH0 PUSH1 0x20 DUP3 ADD SWAP1 POP DUP2 DUP2 SUB PUSH0 DUP4 ADD MSTORE PUSH2 0x1561 DUP2 PUSH2 0x1528 JUMP JUMPDEST SWAP1 POP SWAP2 SWAP1 POP JUMP JUMPDEST PUSH32 0x416D6F756E742069732062656C6F77206D696E20707572636861736500000000 PUSH0 DUP3 ADD MSTORE POP JUMP JUMPDEST PUSH0 PUSH2 0x159C PUSH1 0x1C DUP4 PUSH2 0x123B JUMP JUMPDEST SWAP2 POP PUSH2 0x15A7 DUP3 PUSH2 0x1568 JUMP JUMPDEST PUSH1 0x20 DUP3 ADD SWAP1 POP SWAP2 SWAP1 POP JUMP JUMPDEST PUSH0 PUSH1 0x20 DUP3 ADD SWAP1 POP DUP2 DUP2 SUB PUSH0 DUP4 ADD MSTORE PUSH2 0x15C9 DUP2 PUSH2 0x1590 JUMP JUMPDEST SWAP1 POP SWAP2 SWAP1 POP JUMP JUMPDEST PUSH32 0x416D6F756E742069732061626F7665206D617820707572636861736500000000 PUSH0 DUP3 ADD MSTORE POP JUMP JUMPDEST PUSH0 PUSH2 0x1604 PUSH1 0x1C DUP4 PUSH2 0x123B JUMP JUMPDEST SWAP2 POP PUSH2 0x160F DUP3 PUSH2 0x15D0 JUMP JUMPDEST PUSH1 0x20 DUP3 ADD SWAP1 POP SWAP2 SWAP1 POP JUMP JUMPDEST PUSH0 PUSH1 0x20 DUP3 ADD SWAP1 POP DUP2 DUP2 SUB PUSH0 DUP4 ADD MSTORE PUSH2 0x1631 DUP2 PUSH2 0x15F8 JUMP JUMPDEST SWAP1 POP SWAP2 SWAP1 POP JUMP JUMPDEST PUSH32 0x4E487B7100000000000000000000000000000000000000000000000000000000 PUSH0 MSTORE PUSH1 0x11 PUSH1 0x4 MSTORE PUSH1 0x24 PUSH0 REVERT JUMPDEST PUSH0 DUP2 PUSH1 0x1 SHR SWAP1 POP SWAP2 SWAP1 POP JUMP JUMPDEST PUSH0 PUSH0 DUP3 SWAP2 POP DUP4 SWAP1 POP JUMPDEST PUSH1 0x1 DUP6 GT ISZERO PUSH2 0x16BA JUMPI DUP1 DUP7 DIV DUP2 GT ISZERO PUSH2 0x1696 JUMPI PUSH2 0x1695 PUSH2 0x1638 JUMP JUMPDEST JUMPDEST PUSH1 0x1 DUP6 AND ISZERO PUSH2 0x16A5 JUMPI DUP1 DUP3 MUL SWAP2 POP JUMPDEST DUP1 DUP2 MUL SWAP1 POP PUSH2 0x16B3 DUP6 PUSH2 0x1665 JUMP JUMPDEST SWAP5 POP PUSH2 0x167A JUMP JUMPDEST SWAP5 POP SWAP5 SWAP3 POP POP POP JUMP JUMPDEST PUSH0 DUP3 PUSH2 0x16D2 JUMPI PUSH1 0x1 SWAP1 POP PUSH2 0x178D JUMP JUMPDEST DUP2 PUSH2 0x16DF JUMPI PUSH0 SWAP1 POP PUSH2 0x178D JUMP JUMPDEST DUP2 PUSH1 0x1 DUP2 EQ PUSH2 0x16F5 JUMPI PUSH1 0x2 DUP2 EQ PUSH2 0x16FF JUMPI PUSH2 0x172E JUMP JUMPDEST PUSH1 0x1 SWAP2 POP POP PUSH2 0x178D JUMP JUMPDEST PUSH1 0xFF DUP5 GT ISZERO PUSH2 0x1711 JUMPI PUSH2 0x1710 PUSH2 0x1638 JUMP JUMPDEST JUMPDEST DUP4 PUSH1 0x2 EXP SWAP2 POP DUP5 DUP3 GT ISZERO PUSH2 0x1728 JUMPI PUSH2 0x1727 PUSH2 0x1638 JUMP JUMPDEST JUMPDEST POP PUSH2 0x178D JUMP JUMPDEST POP PUSH1 0x20 DUP4 LT PUSH2 0x133 DUP4 LT AND PUSH1 0x4E DUP5 LT PUSH1 0xB DUP5 LT AND OR ISZERO PUSH2 0x1763 JUMPI DUP3 DUP3 EXP SWAP1 POP DUP4 DUP2 GT ISZERO PUSH2 0x175E JUMPI PUSH2 0x175D PUSH2 0x1638 JUMP JUMPDEST JUMPDEST PUSH2 0x178D JUMP JUMPDEST PUSH2 0x1770 DUP5 DUP5 DUP5 PUSH1 0x1 PUSH2 0x1671 JUMP JUMPDEST SWAP3 POP SWAP1 POP DUP2 DUP5 DIV DUP2 GT ISZERO PUSH2 0x1787 JUMPI PUSH2 0x1786 PUSH2 0x1638 JUMP JUMPDEST JUMPDEST DUP2 DUP2 MUL SWAP1 POP JUMPDEST SWAP4 SWAP3 POP POP POP JUMP JUMPDEST PUSH0 PUSH2 0x179E DUP3 PUSH2 0x131F JUMP JUMPDEST SWAP2 POP PUSH2 0x17A9 DUP4 PUSH2 0x131F JUMP JUMPDEST SWAP3 POP PUSH2 0x17D6 PUSH32 0xFFFFFFFFFFFFFFFFFFFFFFFFFFFFFFFFFFFFFFFFFFFFFFFFFFFFFFFFFFFFFFFF DUP5 DUP5 PUSH2 0x16C3 JUMP JUMPDEST SWAP1 POP SWAP3 SWAP2 POP POP JUMP JUMPDEST PUSH0 PUSH2 0x17E8 DUP3 PUSH2 0x131F JUMP JUMPDEST SWAP2 POP PUSH2 0x17F3 DUP4 PUSH2 0x131F JUMP JUMPDEST SWAP3 POP DUP3 DUP3 MUL PUSH2 0x1801 DUP2 PUSH2 0x131F JUMP JUMPDEST SWAP2 POP DUP3 DUP3 DIV DUP5 EQ DUP4 ISZERO OR PUSH2 0x1818 JUMPI PUSH2 0x1817 PUSH2 0x1638 JUMP JUMPDEST JUMPDEST POP SWAP3 SWAP2 POP POP JUMP JUMPDEST PUSH32 0x4E487B7100000000000000000000000000000000000000000000000000000000 PUSH0 MSTORE PUSH1 0x12 PUSH1 0x4 MSTORE PUSH1 0x24 PUSH0 REVERT JUMPDEST PUSH0 PUSH2 0x1856 DUP3 PUSH2 0x131F JUMP JUMPDEST SWAP2 POP PUSH2 0x1861 DUP4 PUSH2 0x131F JUMP JUMPDEST SWAP3 POP DUP3 PUSH2 0x1871 JUMPI PUSH2 0x1870 PUSH2 0x181F JUMP JUMPDEST JUMPDEST DUP3 DUP3 DIV SWAP1 POP SWAP3 SWAP2 POP POP JUMP JUMPDEST PUSH32 0x4E6F7420656E6F75676820746F6B656E73206C65667420666F722073616C6500 PUSH0 DUP3 ADD MSTORE POP JUMP JUMPDEST PUSH0 PUSH2 0x18B0 PUSH1 0x1F DUP4 PUSH2 0x123B JUMP JUMPDEST SWAP2 POP PUSH2 0x18BB DUP3 PUSH2 0x187C JUMP JUMPDEST PUSH1 0x20 DUP3 ADD SWAP1 POP SWAP2 SWAP1 POP JUMP JUMPDEST PUSH0 PUSH1 0x20 DUP3 ADD SWAP1 POP DUP2 DUP2 SUB PUSH0 DUP4 ADD MSTORE PUSH2 0x18DD DUP2 PUSH2 0x18A4 JUMP JUMPDEST SWAP1 POP SWAP2 SWAP1 POP JUMP JUMPDEST PUSH0 PUSH2 0x18EE DUP3 PUSH2 0x131F JUMP JUMPDEST SWAP2 POP PUSH2 0x18F9 DUP4 PUSH2 0x131F JUMP JUMPDEST SWAP3 POP DUP3 DUP3 ADD SWAP1 POP DUP1 DUP3 GT ISZERO PUSH2 0x1911 JUMPI PUSH2 0x1910 PUSH2 0x1638 JUMP JUMPDEST JUMPDEST SWAP3 SWAP2 POP POP JUMP JUMPDEST PUSH0 PUSH1 0x40 DUP3 ADD SWAP1 POP PUSH2 0x192A PUSH0 DUP4 ADD DUP6 PUSH2 0x13C3 JUMP JUMPDEST PUSH2 0x1937 PUSH1 0x20 DUP4 ADD DUP5 PUSH2 0x13C3 JUMP JUMPDEST SWAP4 SWAP3 POP POP POP JUMP JUMPDEST PUSH32 0x4E487B7100000000000000000000000000000000000000000000000000000000 PUSH0 MSTORE PUSH1 0x22 PUSH1 0x4 MSTORE PUSH1 0x24 PUSH0 REVERT JUMPDEST PUSH0 PUSH1 0x2 DUP3 DIV SWAP1 POP PUSH1 0x1 DUP3 AND DUP1 PUSH2 0x1982 JUMPI PUSH1 0x7F DUP3 AND SWAP2 POP JUMPDEST PUSH1 0x20 DUP3 LT DUP2 SUB PUSH2 0x1995 JUMPI PUSH2 0x1994 PUSH2 0x193E JUMP JUMPDEST JUMPDEST POP SWAP2 SWAP1 POP JUMP JUMPDEST PUSH32 0x546F6B656E7320617265206C6F636B656420756E74696C2073616C6520697320 PUSH0 DUP3 ADD MSTORE PUSH32 0x66696E616C697A65640000000000000000000000000000000000000000000000 PUSH1 0x20 DUP3 ADD MSTORE POP JUMP JUMPDEST PUSH0 PUSH2 0x19F5 PUSH1 0x29 DUP4 PUSH2 0x123B JUMP JUMPDEST SWAP2 POP PUSH2 0x1A00 DUP3 PUSH2 0x199B JUMP JUMPDEST PUSH1 0x40 DUP3 ADD SWAP1 POP SWAP2 SWAP1 POP JUMP JUMPDEST PUSH0 PUSH1 0x20 DUP3 ADD SWAP1 POP DUP2 DUP2 SUB PUSH0 DUP4 ADD MSTORE PUSH2 0x1A22 DUP2 PUSH2 0x19E9 JUMP JUMPDEST SWAP1 POP SWAP2 SWAP1 POP JUMP JUMPDEST PUSH32 0x4F6E6C79206F776E65722063616E2063616C6C20746869732066756E6374696F PUSH0 DUP3 ADD MSTORE PUSH32 0x6E00000000000000000000000000000000000000000000000000000000000000 PUSH1 0x20 DUP3 ADD MSTORE POP JUMP JUMPDEST PUSH0 PUSH2 0x1A83 PUSH1 0x21 DUP4 PUSH2 0x123B JUMP JUMPDEST SWAP2 POP PUSH2 0x1A8E DUP3 PUSH2 0x1A29 JUMP JUMPDEST PUSH1 0x40 DUP3 ADD SWAP1 POP SWAP2 SWAP1 POP JUMP JUMPDEST PUSH0 PUSH1 0x20 DUP3 ADD SWAP1 POP DUP2 DUP2 SUB PUSH0 DUP4 ADD MSTORE PUSH2 0x1AB0 DUP2 PUSH2 0x1A77 JUMP JUMPDEST SWAP1 POP SWAP2 SWAP1 POP JUMP JUMPDEST PUSH32 0x53616C6520697320616C72656164792066696E616C697A656400000000000000 PUSH0 DUP3 ADD MSTORE POP JUMP JUMPDEST PUSH0 PUSH2 0x1AEB PUSH1 0x19 DUP4 PUSH2 0x123B JUMP JUMPDEST SWAP2 POP PUSH2 0x1AF6 DUP3 PUSH2 0x1AB7 JUMP JUMPDEST PUSH1 0x20 DUP3 ADD SWAP1 POP SWAP2 SWAP1 POP JUMP JUMPDEST PUSH0 PUSH1 0x20 DUP3 ADD SWAP1 POP DUP2 DUP2 SUB PUSH0 DUP4 ADD MSTORE PUSH2 0x1B18 DUP2 PUSH2 0x1ADF JUMP JUMPDEST SWAP1 POP SWAP2 SWAP1 POP JUMP JUMPDEST PUSH32 0x53616C65206E6F742066696E6973686564207965740000000000000000000000 PUSH0 DUP3 ADD MSTORE POP JUMP JUMPDEST PUSH0 PUSH2 0x1B53 PUSH1 0x15 DUP4 PUSH2 0x123B JUMP JUMPDEST SWAP2 POP PUSH2 0x1B5E DUP3 PUSH2 0x1B1F JUMP JUMPDEST PUSH1 0x20 DUP3 ADD SWAP1 POP SWAP2 SWAP1 POP JUMP JUMPDEST PUSH0 PUSH1 0x20 DUP3 ADD SWAP1 POP DUP2 DUP2 SUB PUSH0 DUP4 ADD MSTORE PUSH2 0x1B80 DUP2 PUSH2 0x1B47 JUMP JUMPDEST SWAP1 POP SWAP2 SWAP1 POP JUMP JUMPDEST PUSH0 PUSH2 0x1B91 DUP3 PUSH2 0x131F JUMP JUMPDEST SWAP2 POP PUSH2 0x1B9C DUP4 PUSH2 0x131F JUMP JUMPDEST SWAP3 POP DUP3 DUP3 SUB SWAP1 POP DUP2 DUP2 GT ISZERO PUSH2 0x1BB4 JUMPI PUSH2 0x1BB3 PUSH2 0x1638 JUMP JUMPDEST JUMPDEST SWAP3 SWAP2 POP POP JUMP JUMPDEST PUSH0 DUP2 SWAP1 POP SWAP3 SWAP2 POP POP JUMP JUMPDEST POP JUMP JUMPDEST PUSH0 PUSH2 0x1BD2 PUSH0 DUP4 PUSH2 0x1BBA JUMP JUMPDEST SWAP2 POP PUSH2 0x1BDD DUP3 PUSH2 0x1BC4 JUMP JUMPDEST PUSH0 DUP3 ADD SWAP1 POP SWAP2 SWAP1 POP JUMP JUMPDEST PUSH0 PUSH2 0x1BF1 DUP3 PUSH2 0x1BC7 JUMP JUMPDEST SWAP2 POP DUP2 SWAP1 POP SWAP2 SWAP1 POP JUMP JUMPDEST PUSH32 0x5472616E73666572206661696C65640000000000000000000000000000000000 PUSH0 DUP3 ADD MSTORE POP JUMP JUMPDEST PUSH0 PUSH2 0x1C2F PUSH1 0xF DUP4 PUSH2 0x123B JUMP JUMPDEST SWAP2 POP PUSH2 0x1C3A DUP3 PUSH2 0x1BFB JUMP JUMPDEST PUSH1 0x20 DUP3 ADD SWAP1 POP SWAP2 SWAP1 POP JUMP JUMPDEST PUSH0 PUSH1 0x20 DUP3 ADD SWAP1 POP DUP2 DUP2 SUB PUSH0 DUP4 ADD MSTORE PUSH2 0x1C5C DUP2 PUSH2 0x1C23 JUMP JUMPDEST SWAP1 POP SWAP2 SWAP1 POP JUMP JUMPDEST PUSH32 0x43616E6E6F74207472616E7366657220746F20746865207A65726F2061646472 PUSH0 DUP3 ADD MSTORE PUSH32 0x6573730000000000000000000000000000000000000000000000000000000000 PUSH1 0x20 DUP3 ADD MSTORE POP JUMP JUMPDEST PUSH0 PUSH2 0x1CBD PUSH1 0x23 DUP4 PUSH2 0x123B JUMP JUMPDEST SWAP2 POP PUSH2 0x1CC8 DUP3 PUSH2 0x1C63 JUMP JUMPDEST PUSH1 0x40 DUP3 ADD SWAP1 POP SWAP2 SWAP1 POP JUMP JUMPDEST PUSH0 PUSH1 0x20 DUP3 ADD SWAP1 POP DUP2 DUP2 SUB PUSH0 DUP4 ADD MSTORE PUSH2 0x1CEA DUP2 PUSH2 0x1CB1 JUMP JUMPDEST SWAP1 POP SWAP2 SWAP1 POP JUMP JUMPDEST PUSH32 0x4E6F7420656E6F7567682062616C616E63650000000000000000000000000000 PUSH0 DUP3 ADD MSTORE POP JUMP JUMPDEST PUSH0 PUSH2 0x1D25 PUSH1 0x12 DUP4 PUSH2 0x123B JUMP JUMPDEST SWAP2 POP PUSH2 0x1D30 DUP3 PUSH2 0x1CF1 JUMP JUMPDEST PUSH1 0x20 DUP3 ADD SWAP1 POP SWAP2 SWAP1 POP JUMP JUMPDEST PUSH0 PUSH1 0x20 DUP3 ADD SWAP1 POP DUP2 DUP2 SUB PUSH0 DUP4 ADD MSTORE PUSH2 0x1D52 DUP2 PUSH2 0x1D19 JUMP JUMPDEST SWAP1 POP SWAP2 SWAP1 POP JUMP JUMPDEST PUSH32 0x4E6F7420656E6F75676820616C6C6F77656E6365000000000000000000000000 PUSH0 DUP3 ADD MSTORE POP JUMP JUMPDEST PUSH0 PUSH2 0x1D8D PUSH1 0x14 DUP4 PUSH2 0x123B JUMP JUMPDEST SWAP2 POP PUSH2 0x1D98 DUP3 PUSH2 0x1D59 JUMP JUMPDEST PUSH1 0x20 DUP3 ADD SWAP1 POP SWAP2 SWAP1 POP JUMP JUMPDEST PUSH0 PUSH1 0x20 DUP3 ADD SWAP1 POP DUP2 DUP2 SUB PUSH0 DUP4 ADD MSTORE PUSH2 0x1DBA DUP2 PUSH2 0x1D81 JUMP JUMPDEST SWAP1 POP SWAP2 SWAP1 POP JUMP INVALID LOG2 PUSH5 0x6970667358 0x22 SLT KECCAK256 SUB 0xCD DUP5 OR PUSH26 0xCC960020D0FDE1FC745EF5F86562FC082A1775743CC743C5414E BYTE PUSH5 0x736F6C6343 STOP ADDMOD 0x1E STOP CALLER "
				},
				"gasEstimates": {
					"creation": {
						"codeDepositCost": "1534200",
						"executionCost": "infinite",
						"totalCost": "infinite"
					},
					"external": {
						"allowance(address,address)": "infinite",
						"approve(address,uint256)": "infinite",
						"balanceOf(address)": "2935",
						"buyTokens()": "infinite",
						"decimals()": "2489",
						"finalizeSale()": "infinite",
						"finalized()": "2539",
						"isSaleActive()": "6860",
						"maxPurchase()": "2492",
						"minPurchase()": "2470",
						"name()": "infinite",
						"projectOwner()": "2597",
						"saleEndTime()": "2557",
						"saleStartTime()": "2515",
						"symbol()": "infinite",
						"timeRemaining()": "infinite",
						"tokenPrice()": "2448",
						"tokensAvailable()": "2630",
						"totalRaised()": "2469",
						"totalSupply()": "2493",
						"transfer(address,uint256)": "infinite",
						"transferFrom(address,address,uint256)": "infinite"
					}
				},
				"methodIdentifiers": {
					"allowance(address,address)": "dd62ed3e",
					"approve(address,uint256)": "095ea7b3",
					"balanceOf(address)": "70a08231",
					"buyTokens()": "d0febe4c",
					"decimals()": "313ce567",
					"finalizeSale()": "58a687ec",
					"finalized()": "b3f05b97",
					"isSaleActive()": "564566a8",
					"maxPurchase()": "977b055b",
					"minPurchase()": "33b5b62e",
					"name()": "06fdde03",
					"projectOwner()": "a4475ce4",
					"saleEndTime()": "ed338ff1",
					"saleStartTime()": "1cbaee2d",
					"symbol()": "95d89b41",
					"timeRemaining()": "e3cfef60",
					"tokenPrice()": "7ff9b596",
					"tokensAvailable()": "60659a92",
					"totalRaised()": "c5c4744c",
					"totalSupply()": "18160ddd",
					"transfer(address,uint256)": "a9059cbb",
					"transferFrom(address,address,uint256)": "23b872dd"
				}
			},
			"storageLayout": {
				"storage": [
					{
						"astId": 377,
						"contract": "submissions/iCat798/13-预售功能设置/Day13-PreOrderToken.sol:PreOrderToken",
						"label": "name",
						"offset": 0,
						"slot": "0",
						"type": "t_string_storage"
					},
					{
						"astId": 380,
						"contract": "submissions/iCat798/13-预售功能设置/Day13-PreOrderToken.sol:PreOrderToken",
						"label": "symbol",
						"offset": 0,
						"slot": "1",
						"type": "t_string_storage"
					},
					{
						"astId": 383,
						"contract": "submissions/iCat798/13-预售功能设置/Day13-PreOrderToken.sol:PreOrderToken",
						"label": "decimals",
						"offset": 0,
						"slot": "2",
						"type": "t_uint8"
					},
					{
						"astId": 385,
						"contract": "submissions/iCat798/13-预售功能设置/Day13-PreOrderToken.sol:PreOrderToken",
						"label": "totalSupply",
						"offset": 0,
						"slot": "3",
						"type": "t_uint256"
					},
					{
						"astId": 389,
						"contract": "submissions/iCat798/13-预售功能设置/Day13-PreOrderToken.sol:PreOrderToken",
						"label": "balanceOf",
						"offset": 0,
						"slot": "4",
						"type": "t_mapping(t_address,t_uint256)"
					},
					{
						"astId": 395,
						"contract": "submissions/iCat798/13-预售功能设置/Day13-PreOrderToken.sol:PreOrderToken",
						"label": "allowance",
						"offset": 0,
						"slot": "5",
						"type": "t_mapping(t_address,t_mapping(t_address,t_uint256))"
					},
					{
						"astId": 6,
						"contract": "submissions/iCat798/13-预售功能设置/Day13-PreOrderToken.sol:PreOrderToken",
						"label": "tokenPrice",
						"offset": 0,
						"slot": "6",
						"type": "t_uint256"
					},
					{
						"astId": 8,
						"contract": "submissions/iCat798/13-预售功能设置/Day13-PreOrderToken.sol:PreOrderToken",
						"label": "saleStartTime",
						"offset": 0,
						"slot": "7",
						"type": "t_uint256"
					},
					{
						"astId": 10,
						"contract": "submissions/iCat798/13-预售功能设置/Day13-PreOrderToken.sol:PreOrderToken",
						"label": "saleEndTime",
						"offset": 0,
						"slot": "8",
						"type": "t_uint256"
					},
					{
						"astId": 12,
						"contract": "submissions/iCat798/13-预售功能设置/Day13-PreOrderToken.sol:PreOrderToken",
						"label": "minPurchase",
						"offset": 0,
						"slot": "9",
						"type": "t_uint256"
					},
					{
						"astId": 14,
						"contract": "submissions/iCat798/13-预售功能设置/Day13-PreOrderToken.sol:PreOrderToken",
						"label": "maxPurchase",
						"offset": 0,
						"slot": "10",
						"type": "t_uint256"
					},
					{
						"astId": 16,
						"contract": "submissions/iCat798/13-预售功能设置/Day13-PreOrderToken.sol:PreOrderToken",
						"label": "totalRaised",
						"offset": 0,
						"slot": "11",
						"type": "t_uint256"
					},
					{
						"astId": 18,
						"contract": "submissions/iCat798/13-预售功能设置/Day13-PreOrderToken.sol:PreOrderToken",
						"label": "projectOwner",
						"offset": 0,
						"slot": "12",
						"type": "t_address"
					},
					{
						"astId": 21,
						"contract": "submissions/iCat798/13-预售功能设置/Day13-PreOrderToken.sol:PreOrderToken",
						"label": "finalized",
						"offset": 20,
						"slot": "12",
						"type": "t_bool"
					},
					{
						"astId": 24,
						"contract": "submissions/iCat798/13-预售功能设置/Day13-PreOrderToken.sol:PreOrderToken",
						"label": "initialTransferDone",
						"offset": 21,
						"slot": "12",
						"type": "t_bool"
					}
				],
				"types": {
					"t_address": {
						"encoding": "inplace",
						"label": "address",
						"numberOfBytes": "20"
					},
					"t_bool": {
						"encoding": "inplace",
						"label": "bool",
						"numberOfBytes": "1"
					},
					"t_mapping(t_address,t_mapping(t_address,t_uint256))": {
						"encoding": "mapping",
						"key": "t_address",
						"label": "mapping(address => mapping(address => uint256))",
						"numberOfBytes": "32",
						"value": "t_mapping(t_address,t_uint256)"
					},
					"t_mapping(t_address,t_uint256)": {
						"encoding": "mapping",
						"key": "t_address",
						"label": "mapping(address => uint256)",
						"numberOfBytes": "32",
						"value": "t_uint256"
					},
					"t_string_storage": {
						"encoding": "bytes",
						"label": "string",
						"numberOfBytes": "32"
					},
					"t_uint256": {
						"encoding": "inplace",
						"label": "uint256",
						"numberOfBytes": "32"
					},
					"t_uint8": {
						"encoding": "inplace",
						"label": "uint8",
						"numberOfBytes": "1"
					}
				}
			},
			"userdoc": {
				"kind": "user",
				"methods": {},
				"version": 1
			}
		}
	}
}