{
	"submissions/Vickywu/Day3pollstation.sol": {
		"PollStation": {
			"abi": [
				{
					"inputs": [
						{
							"internalType": "string",
							"name": "_candidateName",
							"type": "string"
						}
					],
					"name": "addCandidate",
					"outputs": [],
					"stateMutability": "nonpayable",
					"type": "function"
				},
				{
					"inputs": [
						{
							"internalType": "uint256",
							"name": "",
							"type": "uint256"
						}
					],
					"name": "candidates",
					"outputs": [
						{
							"internalType": "string",
							"name": "name",
							"type": "string"
						},
						{
							"internalType": "uint256",
							"name": "voteCount",
							"type": "uint256"
						}
					],
					"stateMutability": "view",
					"type": "function"
				},
				{
					"inputs": [
						{
							"internalType": "string",
							"name": "_candidateName",
							"type": "string"
						}
					],
					"name": "getVoteCount",
					"outputs": [
						{
							"internalType": "uint256",
							"name": "",
							"type": "uint256"
						}
					],
					"stateMutability": "view",
					"type": "function"
				},
				{
					"inputs": [
						{
							"internalType": "string",
							"name": "_candidateName",
							"type": "string"
						}
					],
					"name": "vote",
					"outputs": [],
					"stateMutability": "nonpayable",
					"type": "function"
				}
			],
			"devdoc": {
				"kind": "dev",
				"methods": {},
				"version": 1
			},
			"evm": {
				"assembly": "    /* \"submissions/Vickywu/Day3pollstation.sol\":57:1458  contract PollStation {... */\n  mstore(0x40, 0x80)\n  callvalue\n  dup1\n  iszero\n  tag_1\n  jumpi\n  revert(0x00, 0x00)\ntag_1:\n  pop\n  dataSize(sub_0)\n  dup1\n  dataOffset(sub_0)\n  0x00\n  codecopy\n  0x00\n  return\nstop\n\nsub_0: assembly {\n        /* \"submissions/Vickywu/Day3pollstation.sol\":57:1458  contract PollStation {... */\n      mstore(0x40, 0x80)\n      callvalue\n      dup1\n      iszero\n      tag_1\n      jumpi\n      revert(0x00, 0x00)\n    tag_1:\n      pop\n      jumpi(tag_2, lt(calldatasize, 0x04))\n      shr(0xe0, calldataload(0x00))\n      dup1\n      0x069953a7\n      eq\n      tag_3\n      jumpi\n      dup1\n      0x3477ee2e\n      eq\n      tag_4\n      jumpi\n      dup1\n      0x462e91ec\n      eq\n      tag_5\n      jumpi\n      dup1\n      0xfc36e15b\n      eq\n      tag_6\n      jumpi\n    tag_2:\n      revert(0x00, 0x00)\n        /* \"submissions/Vickywu/Day3pollstation.sol\":1056:1456  function getVoteCount(string memory _candidateName) public view returns (uint256) {... */\n    tag_3:\n      tag_7\n      0x04\n      dup1\n      calldatasize\n      sub\n      dup2\n      add\n      swap1\n      tag_8\n      swap2\n      swap1\n      tag_9\n      jump\t// in\n    tag_8:\n      tag_10\n      jump\t// in\n    tag_7:\n      mload(0x40)\n      tag_11\n      swap2\n      swap1\n      tag_12\n      jump\t// in\n    tag_11:\n      mload(0x40)\n      dup1\n      swap2\n      sub\n      swap1\n      return\n        /* \"submissions/Vickywu/Day3pollstation.sol\":162:191  Candidate[] public candidates */\n    tag_4:\n      tag_13\n      0x04\n      dup1\n      calldatasize\n      sub\n      dup2\n      add\n      swap1\n      tag_14\n      swap2\n      swap1\n      tag_15\n      jump\t// in\n    tag_14:\n      tag_16\n      jump\t// in\n    tag_13:\n      mload(0x40)\n      tag_17\n      swap3\n      swap2\n      swap1\n      tag_18\n      jump\t// in\n    tag_17:\n      mload(0x40)\n      dup1\n      swap2\n      sub\n      swap1\n      return\n        /* \"submissions/Vickywu/Day3pollstation.sol\":330:578  function addCandidate(string memory _candidateName) public {... */\n    tag_5:\n      tag_19\n      0x04\n      dup1\n      calldatasize\n      sub\n      dup2\n      add\n      swap1\n      tag_20\n      swap2\n      swap1\n      tag_9\n      jump\t// in\n    tag_20:\n      tag_21\n      jump\t// in\n    tag_19:\n      stop\n        /* \"submissions/Vickywu/Day3pollstation.sol\":584:1050  function vote(string memory _candidateName) public {... */\n    tag_6:\n      tag_22\n      0x04\n      dup1\n      calldatasize\n      sub\n      dup2\n      add\n      swap1\n      tag_23\n      swap2\n      swap1\n      tag_9\n      jump\t// in\n    tag_23:\n      tag_24\n      jump\t// in\n    tag_22:\n      stop\n        /* \"submissions/Vickywu/Day3pollstation.sol\":1056:1456  function getVoteCount(string memory _candidateName) public view returns (uint256) {... */\n    tag_10:\n        /* \"submissions/Vickywu/Day3pollstation.sol\":1129:1136  uint256 */\n      0x00\n        /* \"submissions/Vickywu/Day3pollstation.sol\":1156:1171  candidateExists */\n      0x01\n        /* \"submissions/Vickywu/Day3pollstation.sol\":1172:1186  _candidateName */\n      dup3\n        /* \"submissions/Vickywu/Day3pollstation.sol\":1156:1187  candidateExists[_candidateName] */\n      mload(0x40)\n      tag_26\n      swap2\n      swap1\n      tag_27\n      jump\t// in\n    tag_26:\n      swap1\n      dup2\n      mstore\n      0x20\n      add\n      mload(0x40)\n      dup1\n      swap2\n      sub\n      swap1\n      keccak256\n      0x00\n      swap1\n      sload\n      swap1\n      0x0100\n      exp\n      swap1\n      div\n      0xff\n      and\n        /* \"submissions/Vickywu/Day3pollstation.sol\":1148:1209  require(candidateExists[_candidateName], \"Invalid candidate\") */\n      tag_28\n      jumpi\n      mload(0x40)\n      0x08c379a000000000000000000000000000000000000000000000000000000000\n      dup2\n      mstore\n      0x04\n      add\n      tag_29\n      swap1\n      tag_30\n      jump\t// in\n    tag_29:\n      mload(0x40)\n      dup1\n      swap2\n      sub\n      swap1\n      revert\n    tag_28:\n        /* \"submissions/Vickywu/Day3pollstation.sol\":1224:1233  uint256 i */\n      0x00\n        /* \"submissions/Vickywu/Day3pollstation.sol\":1236:1237  0 */\n      0x00\n        /* \"submissions/Vickywu/Day3pollstation.sol\":1224:1237  uint256 i = 0 */\n      swap1\n      pop\n        /* \"submissions/Vickywu/Day3pollstation.sol\":1219:1432  for (uint256 i = 0; i < candidates.length; i++) {... */\n    tag_31:\n        /* \"submissions/Vickywu/Day3pollstation.sol\":1243:1253  candidates */\n      0x00\n        /* \"submissions/Vickywu/Day3pollstation.sol\":1243:1260  candidates.length */\n      dup1\n      sload\n      swap1\n      pop\n        /* \"submissions/Vickywu/Day3pollstation.sol\":1239:1240  i */\n      dup2\n        /* \"submissions/Vickywu/Day3pollstation.sol\":1239:1260  i < candidates.length */\n      lt\n        /* \"submissions/Vickywu/Day3pollstation.sol\":1219:1432  for (uint256 i = 0; i < candidates.length; i++) {... */\n      iszero\n      tag_32\n      jumpi\n        /* \"submissions/Vickywu/Day3pollstation.sol\":1341:1355  _candidateName */\n      dup3\n        /* \"submissions/Vickywu/Day3pollstation.sol\":1325:1357  keccak256(bytes(_candidateName)) */\n      dup1\n      mload\n      swap1\n      0x20\n      add\n      keccak256\n        /* \"submissions/Vickywu/Day3pollstation.sol\":1301:1311  candidates */\n      0x00\n        /* \"submissions/Vickywu/Day3pollstation.sol\":1312:1313  i */\n      dup3\n        /* \"submissions/Vickywu/Day3pollstation.sol\":1301:1314  candidates[i] */\n      dup2\n      sload\n      dup2\n      lt\n      tag_34\n      jumpi\n      tag_35\n      tag_36\n      jump\t// in\n    tag_35:\n    tag_34:\n      swap1\n      0x00\n      mstore\n      keccak256(0x00, 0x20)\n      swap1\n      0x02\n      mul\n      add\n        /* \"submissions/Vickywu/Day3pollstation.sol\":1301:1319  candidates[i].name */\n      0x00\n      add\n        /* \"submissions/Vickywu/Day3pollstation.sol\":1285:1321  keccak256(bytes(candidates[i].name)) */\n      mload(0x40)\n      tag_38\n      swap2\n      swap1\n      tag_39\n      jump\t// in\n    tag_38:\n      mload(0x40)\n      dup1\n      swap2\n      sub\n      swap1\n      keccak256\n        /* \"submissions/Vickywu/Day3pollstation.sol\":1285:1357  keccak256(bytes(candidates[i].name)) == keccak256(bytes(_candidateName)) */\n      sub\n        /* \"submissions/Vickywu/Day3pollstation.sol\":1281:1422  if (keccak256(bytes(candidates[i].name)) == keccak256(bytes(_candidateName))) {... */\n      tag_40\n      jumpi\n        /* \"submissions/Vickywu/Day3pollstation.sol\":1384:1394  candidates */\n      0x00\n        /* \"submissions/Vickywu/Day3pollstation.sol\":1395:1396  i */\n      dup2\n        /* \"submissions/Vickywu/Day3pollstation.sol\":1384:1397  candidates[i] */\n      dup2\n      sload\n      dup2\n      lt\n      tag_41\n      jumpi\n      tag_42\n      tag_36\n      jump\t// in\n    tag_42:\n    tag_41:\n      swap1\n      0x00\n      mstore\n      keccak256(0x00, 0x20)\n      swap1\n      0x02\n      mul\n      add\n        /* \"submissions/Vickywu/Day3pollstation.sol\":1384:1407  candidates[i].voteCount */\n      0x01\n      add\n      sload\n        /* \"submissions/Vickywu/Day3pollstation.sol\":1377:1407  return candidates[i].voteCount */\n      swap2\n      pop\n      pop\n      jump(tag_25)\n        /* \"submissions/Vickywu/Day3pollstation.sol\":1281:1422  if (keccak256(bytes(candidates[i].name)) == keccak256(bytes(_candidateName))) {... */\n    tag_40:\n        /* \"submissions/Vickywu/Day3pollstation.sol\":1262:1265  i++ */\n      dup1\n      dup1\n      0x01\n      add\n      swap2\n      pop\n      pop\n        /* \"submissions/Vickywu/Day3pollstation.sol\":1219:1432  for (uint256 i = 0; i < candidates.length; i++) {... */\n      jump(tag_31)\n    tag_32:\n      pop\n        /* \"submissions/Vickywu/Day3pollstation.sol\":1448:1449  0 */\n      0x00\n        /* \"submissions/Vickywu/Day3pollstation.sol\":1441:1449  return 0 */\n      swap1\n      pop\n        /* \"submissions/Vickywu/Day3pollstation.sol\":1056:1456  function getVoteCount(string memory _candidateName) public view returns (uint256) {... */\n    tag_25:\n      swap2\n      swap1\n      pop\n      jump\t// out\n        /* \"submissions/Vickywu/Day3pollstation.sol\":162:191  Candidate[] public candidates */\n    tag_16:\n      0x00\n      dup2\n      dup2\n      sload\n      dup2\n      lt\n      tag_44\n      jumpi\n      0x00\n      dup1\n      revert\n    tag_44:\n      swap1\n      0x00\n      mstore\n      keccak256(0x00, 0x20)\n      swap1\n      0x02\n      mul\n      add\n      0x00\n      swap2\n      pop\n      swap1\n      pop\n      dup1\n      0x00\n      add\n      dup1\n      sload\n      tag_46\n      swap1\n      tag_47\n      jump\t// in\n    tag_46:\n      dup1\n      0x1f\n      add\n      0x20\n      dup1\n      swap2\n      div\n      mul\n      0x20\n      add\n      mload(0x40)\n      swap1\n      dup2\n      add\n      0x40\n      mstore\n      dup1\n      swap3\n      swap2\n      swap1\n      dup2\n      dup2\n      mstore\n      0x20\n      add\n      dup3\n      dup1\n      sload\n      tag_48\n      swap1\n      tag_47\n      jump\t// in\n    tag_48:\n      dup1\n      iszero\n      tag_49\n      jumpi\n      dup1\n      0x1f\n      lt\n      tag_50\n      jumpi\n      0x0100\n      dup1\n      dup4\n      sload\n      div\n      mul\n      dup4\n      mstore\n      swap2\n      0x20\n      add\n      swap2\n      jump(tag_49)\n    tag_50:\n      dup3\n      add\n      swap2\n      swap1\n      0x00\n      mstore\n      keccak256(0x00, 0x20)\n      swap1\n    tag_51:\n      dup2\n      sload\n      dup2\n      mstore\n      swap1\n      0x01\n      add\n      swap1\n      0x20\n      add\n      dup1\n      dup4\n      gt\n      tag_51\n      jumpi\n      dup3\n      swap1\n      sub\n      0x1f\n      and\n      dup3\n      add\n      swap2\n    tag_49:\n      pop\n      pop\n      pop\n      pop\n      pop\n      swap1\n      dup1\n      0x01\n      add\n      sload\n      swap1\n      pop\n      dup3\n      jump\t// out\n        /* \"submissions/Vickywu/Day3pollstation.sol\":330:578  function addCandidate(string memory _candidateName) public {... */\n    tag_21:\n        /* \"submissions/Vickywu/Day3pollstation.sol\":408:423  candidateExists */\n      0x01\n        /* \"submissions/Vickywu/Day3pollstation.sol\":424:438  _candidateName */\n      dup2\n        /* \"submissions/Vickywu/Day3pollstation.sol\":408:439  candidateExists[_candidateName] */\n      mload(0x40)\n      tag_53\n      swap2\n      swap1\n      tag_27\n      jump\t// in\n    tag_53:\n      swap1\n      dup2\n      mstore\n      0x20\n      add\n      mload(0x40)\n      dup1\n      swap2\n      sub\n      swap1\n      keccak256\n      0x00\n      swap1\n      sload\n      swap1\n      0x0100\n      exp\n      swap1\n      div\n      0xff\n      and\n        /* \"submissions/Vickywu/Day3pollstation.sol\":407:439  !candidateExists[_candidateName] */\n      iszero\n        /* \"submissions/Vickywu/Day3pollstation.sol\":399:468  require(!candidateExists[_candidateName], \"Candidate already exists\") */\n      tag_54\n      jumpi\n      mload(0x40)\n      0x08c379a000000000000000000000000000000000000000000000000000000000\n      dup2\n      mstore\n      0x04\n      add\n      tag_55\n      swap1\n      tag_56\n      jump\t// in\n    tag_55:\n      mload(0x40)\n      dup1\n      swap2\n      sub\n      swap1\n      revert\n    tag_54:\n        /* \"submissions/Vickywu/Day3pollstation.sol\":478:488  candidates */\n      0x00\n        /* \"submissions/Vickywu/Day3pollstation.sol\":494:522  Candidate(_candidateName, 0) */\n      mload(0x40)\n      dup1\n      0x40\n      add\n      0x40\n      mstore\n      dup1\n        /* \"submissions/Vickywu/Day3pollstation.sol\":504:518  _candidateName */\n      dup4\n        /* \"submissions/Vickywu/Day3pollstation.sol\":494:522  Candidate(_candidateName, 0) */\n      dup2\n      mstore\n      0x20\n      add\n        /* \"submissions/Vickywu/Day3pollstation.sol\":520:521  0 */\n      0x00\n        /* \"submissions/Vickywu/Day3pollstation.sol\":494:522  Candidate(_candidateName, 0) */\n      dup2\n      mstore\n      pop\n        /* \"submissions/Vickywu/Day3pollstation.sol\":478:523  candidates.push(Candidate(_candidateName, 0)) */\n      swap1\n      dup1\n      0x01\n      dup2\n      sload\n      add\n      dup1\n      dup3\n      sstore\n      dup1\n      swap2\n      pop\n      pop\n      0x01\n      swap1\n      sub\n      swap1\n      0x00\n      mstore\n      keccak256(0x00, 0x20)\n      swap1\n      0x02\n      mul\n      add\n      0x00\n      swap1\n      swap2\n      swap1\n      swap2\n      swap1\n      swap2\n      pop\n      0x00\n      dup3\n      add\n      mload\n      dup2\n      0x00\n      add\n      swap1\n      dup2\n      tag_58\n      swap2\n      swap1\n      tag_59\n      jump\t// in\n    tag_58:\n      pop\n      0x20\n      dup3\n      add\n      mload\n      dup2\n      0x01\n      add\n      sstore\n      pop\n      pop\n        /* \"submissions/Vickywu/Day3pollstation.sol\":567:571  true */\n      0x01\n        /* \"submissions/Vickywu/Day3pollstation.sol\":533:548  candidateExists */\n      dup1\n        /* \"submissions/Vickywu/Day3pollstation.sol\":549:563  _candidateName */\n      dup3\n        /* \"submissions/Vickywu/Day3pollstation.sol\":533:564  candidateExists[_candidateName] */\n      mload(0x40)\n      tag_60\n      swap2\n      swap1\n      tag_27\n      jump\t// in\n    tag_60:\n      swap1\n      dup2\n      mstore\n      0x20\n      add\n      mload(0x40)\n      dup1\n      swap2\n      sub\n      swap1\n      keccak256\n      0x00\n        /* \"submissions/Vickywu/Day3pollstation.sol\":533:571  candidateExists[_candidateName] = true */\n      0x0100\n      exp\n      dup2\n      sload\n      dup2\n      0xff\n      mul\n      not\n      and\n      swap1\n      dup4\n      iszero\n      iszero\n      mul\n      or\n      swap1\n      sstore\n      pop\n        /* \"submissions/Vickywu/Day3pollstation.sol\":330:578  function addCandidate(string memory _candidateName) public {... */\n      pop\n      jump\t// out\n        /* \"submissions/Vickywu/Day3pollstation.sol\":584:1050  function vote(string memory _candidateName) public {... */\n    tag_24:\n        /* \"submissions/Vickywu/Day3pollstation.sol\":654:662  hasVoted */\n      0x02\n        /* \"submissions/Vickywu/Day3pollstation.sol\":654:674  hasVoted[msg.sender] */\n      0x00\n        /* \"submissions/Vickywu/Day3pollstation.sol\":663:673  msg.sender */\n      caller\n        /* \"submissions/Vickywu/Day3pollstation.sol\":654:674  hasVoted[msg.sender] */\n      0xffffffffffffffffffffffffffffffffffffffff\n      and\n      0xffffffffffffffffffffffffffffffffffffffff\n      and\n      dup2\n      mstore\n      0x20\n      add\n      swap1\n      dup2\n      mstore\n      0x20\n      add\n      0x00\n      keccak256\n      0x00\n      swap1\n      sload\n      swap1\n      0x0100\n      exp\n      swap1\n      div\n      0xff\n      and\n        /* \"submissions/Vickywu/Day3pollstation.sol\":653:674  !hasVoted[msg.sender] */\n      iszero\n        /* \"submissions/Vickywu/Day3pollstation.sol\":645:692  require(!hasVoted[msg.sender], \"Already voted\") */\n      tag_62\n      jumpi\n      mload(0x40)\n      0x08c379a000000000000000000000000000000000000000000000000000000000\n      dup2\n      mstore\n      0x04\n      add\n      tag_63\n      swap1\n      tag_64\n      jump\t// in\n    tag_63:\n      mload(0x40)\n      dup1\n      swap2\n      sub\n      swap1\n      revert\n    tag_62:\n        /* \"submissions/Vickywu/Day3pollstation.sol\":710:725  candidateExists */\n      0x01\n        /* \"submissions/Vickywu/Day3pollstation.sol\":726:740  _candidateName */\n      dup2\n        /* \"submissions/Vickywu/Day3pollstation.sol\":710:741  candidateExists[_candidateName] */\n      mload(0x40)\n      tag_65\n      swap2\n      swap1\n      tag_27\n      jump\t// in\n    tag_65:\n      swap1\n      dup2\n      mstore\n      0x20\n      add\n      mload(0x40)\n      dup1\n      swap2\n      sub\n      swap1\n      keccak256\n      0x00\n      swap1\n      sload\n      swap1\n      0x0100\n      exp\n      swap1\n      div\n      0xff\n      and\n        /* \"submissions/Vickywu/Day3pollstation.sol\":702:763  require(candidateExists[_candidateName], \"Invalid candidate\") */\n      tag_66\n      jumpi\n      mload(0x40)\n      0x08c379a000000000000000000000000000000000000000000000000000000000\n      dup2\n      mstore\n      0x04\n      add\n      tag_67\n      swap1\n      tag_30\n      jump\t// in\n    tag_67:\n      mload(0x40)\n      dup1\n      swap2\n      sub\n      swap1\n      revert\n    tag_66:\n        /* \"submissions/Vickywu/Day3pollstation.sol\":778:787  uint256 i */\n      0x00\n        /* \"submissions/Vickywu/Day3pollstation.sol\":790:791  0 */\n      0x00\n        /* \"submissions/Vickywu/Day3pollstation.sol\":778:791  uint256 i = 0 */\n      swap1\n      pop\n        /* \"submissions/Vickywu/Day3pollstation.sol\":773:1007  for (uint256 i = 0; i < candidates.length; i++) {... */\n    tag_68:\n        /* \"submissions/Vickywu/Day3pollstation.sol\":797:807  candidates */\n      0x00\n        /* \"submissions/Vickywu/Day3pollstation.sol\":797:814  candidates.length */\n      dup1\n      sload\n      swap1\n      pop\n        /* \"submissions/Vickywu/Day3pollstation.sol\":793:794  i */\n      dup2\n        /* \"submissions/Vickywu/Day3pollstation.sol\":793:814  i < candidates.length */\n      lt\n        /* \"submissions/Vickywu/Day3pollstation.sol\":773:1007  for (uint256 i = 0; i < candidates.length; i++) {... */\n      iszero\n      tag_69\n      jumpi\n        /* \"submissions/Vickywu/Day3pollstation.sol\":895:909  _candidateName */\n      dup2\n        /* \"submissions/Vickywu/Day3pollstation.sol\":879:911  keccak256(bytes(_candidateName)) */\n      dup1\n      mload\n      swap1\n      0x20\n      add\n      keccak256\n        /* \"submissions/Vickywu/Day3pollstation.sol\":855:865  candidates */\n      0x00\n        /* \"submissions/Vickywu/Day3pollstation.sol\":866:867  i */\n      dup3\n        /* \"submissions/Vickywu/Day3pollstation.sol\":855:868  candidates[i] */\n      dup2\n      sload\n      dup2\n      lt\n      tag_71\n      jumpi\n      tag_72\n      tag_36\n      jump\t// in\n    tag_72:\n    tag_71:\n      swap1\n      0x00\n      mstore\n      keccak256(0x00, 0x20)\n      swap1\n      0x02\n      mul\n      add\n        /* \"submissions/Vickywu/Day3pollstation.sol\":855:873  candidates[i].name */\n      0x00\n      add\n        /* \"submissions/Vickywu/Day3pollstation.sol\":839:875  keccak256(bytes(candidates[i].name)) */\n      mload(0x40)\n      tag_74\n      swap2\n      swap1\n      tag_39\n      jump\t// in\n    tag_74:\n      mload(0x40)\n      dup1\n      swap2\n      sub\n      swap1\n      keccak256\n        /* \"submissions/Vickywu/Day3pollstation.sol\":839:911  keccak256(bytes(candidates[i].name)) == keccak256(bytes(_candidateName)) */\n      sub\n        /* \"submissions/Vickywu/Day3pollstation.sol\":835:997  if (keccak256(bytes(candidates[i].name)) == keccak256(bytes(_candidateName))) {... */\n      tag_75\n      jumpi\n        /* \"submissions/Vickywu/Day3pollstation.sol\":958:959  1 */\n      0x01\n        /* \"submissions/Vickywu/Day3pollstation.sol\":931:941  candidates */\n      0x00\n        /* \"submissions/Vickywu/Day3pollstation.sol\":942:943  i */\n      dup3\n        /* \"submissions/Vickywu/Day3pollstation.sol\":931:944  candidates[i] */\n      dup2\n      sload\n      dup2\n      lt\n      tag_76\n      jumpi\n      tag_77\n      tag_36\n      jump\t// in\n    tag_77:\n    tag_76:\n      swap1\n      0x00\n      mstore\n      keccak256(0x00, 0x20)\n      swap1\n      0x02\n      mul\n      add\n        /* \"submissions/Vickywu/Day3pollstation.sol\":931:954  candidates[i].voteCount */\n      0x01\n      add\n      0x00\n        /* \"submissions/Vickywu/Day3pollstation.sol\":931:959  candidates[i].voteCount += 1 */\n      dup3\n      dup3\n      sload\n      tag_79\n      swap2\n      swap1\n      tag_80\n      jump\t// in\n    tag_79:\n      swap3\n      pop\n      pop\n      dup2\n      swap1\n      sstore\n      pop\n        /* \"submissions/Vickywu/Day3pollstation.sol\":977:982  break */\n      jump(tag_69)\n        /* \"submissions/Vickywu/Day3pollstation.sol\":835:997  if (keccak256(bytes(candidates[i].name)) == keccak256(bytes(_candidateName))) {... */\n    tag_75:\n        /* \"submissions/Vickywu/Day3pollstation.sol\":816:819  i++ */\n      dup1\n      dup1\n      0x01\n      add\n      swap2\n      pop\n      pop\n        /* \"submissions/Vickywu/Day3pollstation.sol\":773:1007  for (uint256 i = 0; i < candidates.length; i++) {... */\n      jump(tag_68)\n    tag_69:\n      pop\n        /* \"submissions/Vickywu/Day3pollstation.sol\":1039:1043  true */\n      0x01\n        /* \"submissions/Vickywu/Day3pollstation.sol\":1016:1024  hasVoted */\n      0x02\n        /* \"submissions/Vickywu/Day3pollstation.sol\":1016:1036  hasVoted[msg.sender] */\n      0x00\n        /* \"submissions/Vickywu/Day3pollstation.sol\":1025:1035  msg.sender */\n      caller\n        /* \"submissions/Vickywu/Day3pollstation.sol\":1016:1036  hasVoted[msg.sender] */\n      0xffffffffffffffffffffffffffffffffffffffff\n      and\n      0xffffffffffffffffffffffffffffffffffffffff\n      and\n      dup2\n      mstore\n      0x20\n      add\n      swap1\n      dup2\n      mstore\n      0x20\n      add\n      0x00\n      keccak256\n      0x00\n        /* \"submissions/Vickywu/Day3pollstation.sol\":1016:1043  hasVoted[msg.sender] = true */\n      0x0100\n      exp\n      dup2\n      sload\n      dup2\n      0xff\n      mul\n      not\n      and\n      swap1\n      dup4\n      iszero\n      iszero\n      mul\n      or\n      swap1\n      sstore\n      pop\n        /* \"submissions/Vickywu/Day3pollstation.sol\":584:1050  function vote(string memory _candidateName) public {... */\n      pop\n      jump\t// out\n        /* \"#utility.yul\":7:82   */\n    tag_81:\n        /* \"#utility.yul\":40:46   */\n      0x00\n        /* \"#utility.yul\":73:75   */\n      0x40\n        /* \"#utility.yul\":67:76   */\n      mload\n        /* \"#utility.yul\":57:76   */\n      swap1\n      pop\n        /* \"#utility.yul\":7:82   */\n      swap1\n      jump\t// out\n        /* \"#utility.yul\":88:205   */\n    tag_82:\n        /* \"#utility.yul\":197:198   */\n      0x00\n        /* \"#utility.yul\":194:195   */\n      0x00\n        /* \"#utility.yul\":187:199   */\n      revert\n        /* \"#utility.yul\":211:328   */\n    tag_83:\n        /* \"#utility.yul\":320:321   */\n      0x00\n        /* \"#utility.yul\":317:318   */\n      0x00\n        /* \"#utility.yul\":310:322   */\n      revert\n        /* \"#utility.yul\":334:451   */\n    tag_84:\n        /* \"#utility.yul\":443:444   */\n      0x00\n        /* \"#utility.yul\":440:441   */\n      0x00\n        /* \"#utility.yul\":433:445   */\n      revert\n        /* \"#utility.yul\":457:574   */\n    tag_85:\n        /* \"#utility.yul\":566:567   */\n      0x00\n        /* \"#utility.yul\":563:564   */\n      0x00\n        /* \"#utility.yul\":556:568   */\n      revert\n        /* \"#utility.yul\":580:682   */\n    tag_86:\n        /* \"#utility.yul\":621:627   */\n      0x00\n        /* \"#utility.yul\":672:674   */\n      0x1f\n        /* \"#utility.yul\":668:675   */\n      not\n        /* \"#utility.yul\":663:665   */\n      0x1f\n        /* \"#utility.yul\":656:661   */\n      dup4\n        /* \"#utility.yul\":652:666   */\n      add\n        /* \"#utility.yul\":648:676   */\n      and\n        /* \"#utility.yul\":638:676   */\n      swap1\n      pop\n        /* \"#utility.yul\":580:682   */\n      swap2\n      swap1\n      pop\n      jump\t// out\n        /* \"#utility.yul\":688:868   */\n    tag_87:\n        /* \"#utility.yul\":736:813   */\n      0x4e487b7100000000000000000000000000000000000000000000000000000000\n        /* \"#utility.yul\":733:734   */\n      0x00\n        /* \"#utility.yul\":726:814   */\n      mstore\n        /* \"#utility.yul\":833:837   */\n      0x41\n        /* \"#utility.yul\":830:831   */\n      0x04\n        /* \"#utility.yul\":823:838   */\n      mstore\n        /* \"#utility.yul\":857:861   */\n      0x24\n        /* \"#utility.yul\":854:855   */\n      0x00\n        /* \"#utility.yul\":847:862   */\n      revert\n        /* \"#utility.yul\":874:1155   */\n    tag_88:\n        /* \"#utility.yul\":957:984   */\n      tag_139\n        /* \"#utility.yul\":979:983   */\n      dup3\n        /* \"#utility.yul\":957:984   */\n      tag_86\n      jump\t// in\n    tag_139:\n        /* \"#utility.yul\":949:955   */\n      dup2\n        /* \"#utility.yul\":945:985   */\n      add\n        /* \"#utility.yul\":1087:1093   */\n      dup2\n        /* \"#utility.yul\":1075:1085   */\n      dup2\n        /* \"#utility.yul\":1072:1094   */\n      lt\n        /* \"#utility.yul\":1051:1069   */\n      0xffffffffffffffff\n        /* \"#utility.yul\":1039:1049   */\n      dup3\n        /* \"#utility.yul\":1036:1070   */\n      gt\n        /* \"#utility.yul\":1033:1095   */\n      or\n        /* \"#utility.yul\":1030:1118   */\n      iszero\n      tag_140\n      jumpi\n        /* \"#utility.yul\":1098:1116   */\n      tag_141\n      tag_87\n      jump\t// in\n    tag_141:\n        /* \"#utility.yul\":1030:1118   */\n    tag_140:\n        /* \"#utility.yul\":1138:1148   */\n      dup1\n        /* \"#utility.yul\":1134:1136   */\n      0x40\n        /* \"#utility.yul\":1127:1149   */\n      mstore\n        /* \"#utility.yul\":917:1155   */\n      pop\n        /* \"#utility.yul\":874:1155   */\n      pop\n      pop\n      jump\t// out\n        /* \"#utility.yul\":1161:1290   */\n    tag_89:\n        /* \"#utility.yul\":1195:1201   */\n      0x00\n        /* \"#utility.yul\":1222:1242   */\n      tag_143\n      tag_81\n      jump\t// in\n    tag_143:\n        /* \"#utility.yul\":1212:1242   */\n      swap1\n      pop\n        /* \"#utility.yul\":1251:1284   */\n      tag_144\n        /* \"#utility.yul\":1279:1283   */\n      dup3\n        /* \"#utility.yul\":1271:1277   */\n      dup3\n        /* \"#utility.yul\":1251:1284   */\n      tag_88\n      jump\t// in\n    tag_144:\n        /* \"#utility.yul\":1161:1290   */\n      swap2\n      swap1\n      pop\n      jump\t// out\n        /* \"#utility.yul\":1296:1604   */\n    tag_90:\n        /* \"#utility.yul\":1358:1362   */\n      0x00\n        /* \"#utility.yul\":1448:1466   */\n      0xffffffffffffffff\n        /* \"#utility.yul\":1440:1446   */\n      dup3\n        /* \"#utility.yul\":1437:1467   */\n      gt\n        /* \"#utility.yul\":1434:1490   */\n      iszero\n      tag_146\n      jumpi\n        /* \"#utility.yul\":1470:1488   */\n      tag_147\n      tag_87\n      jump\t// in\n    tag_147:\n        /* \"#utility.yul\":1434:1490   */\n    tag_146:\n        /* \"#utility.yul\":1508:1537   */\n      tag_148\n        /* \"#utility.yul\":1530:1536   */\n      dup3\n        /* \"#utility.yul\":1508:1537   */\n      tag_86\n      jump\t// in\n    tag_148:\n        /* \"#utility.yul\":1500:1537   */\n      swap1\n      pop\n        /* \"#utility.yul\":1592:1596   */\n      0x20\n        /* \"#utility.yul\":1586:1590   */\n      dup2\n        /* \"#utility.yul\":1582:1597   */\n      add\n        /* \"#utility.yul\":1574:1597   */\n      swap1\n      pop\n        /* \"#utility.yul\":1296:1604   */\n      swap2\n      swap1\n      pop\n      jump\t// out\n        /* \"#utility.yul\":1610:1758   */\n    tag_91:\n        /* \"#utility.yul\":1708:1714   */\n      dup3\n        /* \"#utility.yul\":1703:1706   */\n      dup2\n        /* \"#utility.yul\":1698:1701   */\n      dup4\n        /* \"#utility.yul\":1685:1715   */\n      calldatacopy\n        /* \"#utility.yul\":1749:1750   */\n      0x00\n        /* \"#utility.yul\":1740:1746   */\n      dup4\n        /* \"#utility.yul\":1735:1738   */\n      dup4\n        /* \"#utility.yul\":1731:1747   */\n      add\n        /* \"#utility.yul\":1724:1751   */\n      mstore\n        /* \"#utility.yul\":1610:1758   */\n      pop\n      pop\n      pop\n      jump\t// out\n        /* \"#utility.yul\":1764:2189   */\n    tag_92:\n        /* \"#utility.yul\":1842:1847   */\n      0x00\n        /* \"#utility.yul\":1867:1933   */\n      tag_151\n        /* \"#utility.yul\":1883:1932   */\n      tag_152\n        /* \"#utility.yul\":1925:1931   */\n      dup5\n        /* \"#utility.yul\":1883:1932   */\n      tag_90\n      jump\t// in\n    tag_152:\n        /* \"#utility.yul\":1867:1933   */\n      tag_89\n      jump\t// in\n    tag_151:\n        /* \"#utility.yul\":1858:1933   */\n      swap1\n      pop\n        /* \"#utility.yul\":1956:1962   */\n      dup3\n        /* \"#utility.yul\":1949:1954   */\n      dup2\n        /* \"#utility.yul\":1942:1963   */\n      mstore\n        /* \"#utility.yul\":1994:1998   */\n      0x20\n        /* \"#utility.yul\":1987:1992   */\n      dup2\n        /* \"#utility.yul\":1983:1999   */\n      add\n        /* \"#utility.yul\":2032:2035   */\n      dup5\n        /* \"#utility.yul\":2023:2029   */\n      dup5\n        /* \"#utility.yul\":2018:2021   */\n      dup5\n        /* \"#utility.yul\":2014:2030   */\n      add\n        /* \"#utility.yul\":2011:2036   */\n      gt\n        /* \"#utility.yul\":2008:2120   */\n      iszero\n      tag_153\n      jumpi\n        /* \"#utility.yul\":2039:2118   */\n      tag_154\n      tag_85\n      jump\t// in\n    tag_154:\n        /* \"#utility.yul\":2008:2120   */\n    tag_153:\n        /* \"#utility.yul\":2129:2183   */\n      tag_155\n        /* \"#utility.yul\":2176:2182   */\n      dup5\n        /* \"#utility.yul\":2171:2174   */\n      dup3\n        /* \"#utility.yul\":2166:2169   */\n      dup6\n        /* \"#utility.yul\":2129:2183   */\n      tag_91\n      jump\t// in\n    tag_155:\n        /* \"#utility.yul\":1848:2189   */\n      pop\n        /* \"#utility.yul\":1764:2189   */\n      swap4\n      swap3\n      pop\n      pop\n      pop\n      jump\t// out\n        /* \"#utility.yul\":2209:2549   */\n    tag_93:\n        /* \"#utility.yul\":2265:2270   */\n      0x00\n        /* \"#utility.yul\":2314:2317   */\n      dup3\n        /* \"#utility.yul\":2307:2311   */\n      0x1f\n        /* \"#utility.yul\":2299:2305   */\n      dup4\n        /* \"#utility.yul\":2295:2312   */\n      add\n        /* \"#utility.yul\":2291:2318   */\n      slt\n        /* \"#utility.yul\":2281:2403   */\n      tag_157\n      jumpi\n        /* \"#utility.yul\":2322:2401   */\n      tag_158\n      tag_84\n      jump\t// in\n    tag_158:\n        /* \"#utility.yul\":2281:2403   */\n    tag_157:\n        /* \"#utility.yul\":2439:2445   */\n      dup2\n        /* \"#utility.yul\":2426:2446   */\n      calldataload\n        /* \"#utility.yul\":2464:2543   */\n      tag_159\n        /* \"#utility.yul\":2539:2542   */\n      dup5\n        /* \"#utility.yul\":2531:2537   */\n      dup3\n        /* \"#utility.yul\":2524:2528   */\n      0x20\n        /* \"#utility.yul\":2516:2522   */\n      dup7\n        /* \"#utility.yul\":2512:2529   */\n      add\n        /* \"#utility.yul\":2464:2543   */\n      tag_92\n      jump\t// in\n    tag_159:\n        /* \"#utility.yul\":2455:2543   */\n      swap2\n      pop\n        /* \"#utility.yul\":2271:2549   */\n      pop\n        /* \"#utility.yul\":2209:2549   */\n      swap3\n      swap2\n      pop\n      pop\n      jump\t// out\n        /* \"#utility.yul\":2555:3064   */\n    tag_9:\n        /* \"#utility.yul\":2624:2630   */\n      0x00\n        /* \"#utility.yul\":2673:2675   */\n      0x20\n        /* \"#utility.yul\":2661:2670   */\n      dup3\n        /* \"#utility.yul\":2652:2659   */\n      dup5\n        /* \"#utility.yul\":2648:2671   */\n      sub\n        /* \"#utility.yul\":2644:2676   */\n      slt\n        /* \"#utility.yul\":2641:2760   */\n      iszero\n      tag_161\n      jumpi\n        /* \"#utility.yul\":2679:2758   */\n      tag_162\n      tag_82\n      jump\t// in\n    tag_162:\n        /* \"#utility.yul\":2641:2760   */\n    tag_161:\n        /* \"#utility.yul\":2827:2828   */\n      0x00\n        /* \"#utility.yul\":2816:2825   */\n      dup3\n        /* \"#utility.yul\":2812:2829   */\n      add\n        /* \"#utility.yul\":2799:2830   */\n      calldataload\n        /* \"#utility.yul\":2857:2875   */\n      0xffffffffffffffff\n        /* \"#utility.yul\":2849:2855   */\n      dup2\n        /* \"#utility.yul\":2846:2876   */\n      gt\n        /* \"#utility.yul\":2843:2960   */\n      iszero\n      tag_163\n      jumpi\n        /* \"#utility.yul\":2879:2958   */\n      tag_164\n      tag_83\n      jump\t// in\n    tag_164:\n        /* \"#utility.yul\":2843:2960   */\n    tag_163:\n        /* \"#utility.yul\":2984:3047   */\n      tag_165\n        /* \"#utility.yul\":3039:3046   */\n      dup5\n        /* \"#utility.yul\":3030:3036   */\n      dup3\n        /* \"#utility.yul\":3019:3028   */\n      dup6\n        /* \"#utility.yul\":3015:3037   */\n      add\n        /* \"#utility.yul\":2984:3047   */\n      tag_93\n      jump\t// in\n    tag_165:\n        /* \"#utility.yul\":2974:3047   */\n      swap2\n      pop\n        /* \"#utility.yul\":2770:3057   */\n      pop\n        /* \"#utility.yul\":2555:3064   */\n      swap3\n      swap2\n      pop\n      pop\n      jump\t// out\n        /* \"#utility.yul\":3070:3147   */\n    tag_94:\n        /* \"#utility.yul\":3107:3114   */\n      0x00\n        /* \"#utility.yul\":3136:3141   */\n      dup2\n        /* \"#utility.yul\":3125:3141   */\n      swap1\n      pop\n        /* \"#utility.yul\":3070:3147   */\n      swap2\n      swap1\n      pop\n      jump\t// out\n        /* \"#utility.yul\":3153:3271   */\n    tag_95:\n        /* \"#utility.yul\":3240:3264   */\n      tag_168\n        /* \"#utility.yul\":3258:3263   */\n      dup2\n        /* \"#utility.yul\":3240:3264   */\n      tag_94\n      jump\t// in\n    tag_168:\n        /* \"#utility.yul\":3235:3238   */\n      dup3\n        /* \"#utility.yul\":3228:3265   */\n      mstore\n        /* \"#utility.yul\":3153:3271   */\n      pop\n      pop\n      jump\t// out\n        /* \"#utility.yul\":3277:3499   */\n    tag_12:\n        /* \"#utility.yul\":3370:3374   */\n      0x00\n        /* \"#utility.yul\":3408:3410   */\n      0x20\n        /* \"#utility.yul\":3397:3406   */\n      dup3\n        /* \"#utility.yul\":3393:3411   */\n      add\n        /* \"#utility.yul\":3385:3411   */\n      swap1\n      pop\n        /* \"#utility.yul\":3421:3492   */\n      tag_170\n        /* \"#utility.yul\":3489:3490   */\n      0x00\n        /* \"#utility.yul\":3478:3487   */\n      dup4\n        /* \"#utility.yul\":3474:3491   */\n      add\n        /* \"#utility.yul\":3465:3471   */\n      dup5\n        /* \"#utility.yul\":3421:3492   */\n      tag_95\n      jump\t// in\n    tag_170:\n        /* \"#utility.yul\":3277:3499   */\n      swap3\n      swap2\n      pop\n      pop\n      jump\t// out\n        /* \"#utility.yul\":3505:3627   */\n    tag_96:\n        /* \"#utility.yul\":3578:3602   */\n      tag_172\n        /* \"#utility.yul\":3596:3601   */\n      dup2\n        /* \"#utility.yul\":3578:3602   */\n      tag_94\n      jump\t// in\n    tag_172:\n        /* \"#utility.yul\":3571:3576   */\n      dup2\n        /* \"#utility.yul\":3568:3603   */\n      eq\n        /* \"#utility.yul\":3558:3621   */\n      tag_173\n      jumpi\n        /* \"#utility.yul\":3617:3618   */\n      0x00\n        /* \"#utility.yul\":3614:3615   */\n      0x00\n        /* \"#utility.yul\":3607:3619   */\n      revert\n        /* \"#utility.yul\":3558:3621   */\n    tag_173:\n        /* \"#utility.yul\":3505:3627   */\n      pop\n      jump\t// out\n        /* \"#utility.yul\":3633:3772   */\n    tag_97:\n        /* \"#utility.yul\":3679:3684   */\n      0x00\n        /* \"#utility.yul\":3717:3723   */\n      dup2\n        /* \"#utility.yul\":3704:3724   */\n      calldataload\n        /* \"#utility.yul\":3695:3724   */\n      swap1\n      pop\n        /* \"#utility.yul\":3733:3766   */\n      tag_175\n        /* \"#utility.yul\":3760:3765   */\n      dup2\n        /* \"#utility.yul\":3733:3766   */\n      tag_96\n      jump\t// in\n    tag_175:\n        /* \"#utility.yul\":3633:3772   */\n      swap3\n      swap2\n      pop\n      pop\n      jump\t// out\n        /* \"#utility.yul\":3778:4107   */\n    tag_15:\n        /* \"#utility.yul\":3837:3843   */\n      0x00\n        /* \"#utility.yul\":3886:3888   */\n      0x20\n        /* \"#utility.yul\":3874:3883   */\n      dup3\n        /* \"#utility.yul\":3865:3872   */\n      dup5\n        /* \"#utility.yul\":3861:3884   */\n      sub\n        /* \"#utility.yul\":3857:3889   */\n      slt\n        /* \"#utility.yul\":3854:3973   */\n      iszero\n      tag_177\n      jumpi\n        /* \"#utility.yul\":3892:3971   */\n      tag_178\n      tag_82\n      jump\t// in\n    tag_178:\n        /* \"#utility.yul\":3854:3973   */\n    tag_177:\n        /* \"#utility.yul\":4012:4013   */\n      0x00\n        /* \"#utility.yul\":4037:4090   */\n      tag_179\n        /* \"#utility.yul\":4082:4089   */\n      dup5\n        /* \"#utility.yul\":4073:4079   */\n      dup3\n        /* \"#utility.yul\":4062:4071   */\n      dup6\n        /* \"#utility.yul\":4058:4080   */\n      add\n        /* \"#utility.yul\":4037:4090   */\n      tag_97\n      jump\t// in\n    tag_179:\n        /* \"#utility.yul\":4027:4090   */\n      swap2\n      pop\n        /* \"#utility.yul\":3983:4100   */\n      pop\n        /* \"#utility.yul\":3778:4107   */\n      swap3\n      swap2\n      pop\n      pop\n      jump\t// out\n        /* \"#utility.yul\":4113:4212   */\n    tag_98:\n        /* \"#utility.yul\":4165:4171   */\n      0x00\n        /* \"#utility.yul\":4199:4204   */\n      dup2\n        /* \"#utility.yul\":4193:4205   */\n      mload\n        /* \"#utility.yul\":4183:4205   */\n      swap1\n      pop\n        /* \"#utility.yul\":4113:4212   */\n      swap2\n      swap1\n      pop\n      jump\t// out\n        /* \"#utility.yul\":4218:4387   */\n    tag_99:\n        /* \"#utility.yul\":4302:4313   */\n      0x00\n        /* \"#utility.yul\":4336:4342   */\n      dup3\n        /* \"#utility.yul\":4331:4334   */\n      dup3\n        /* \"#utility.yul\":4324:4343   */\n      mstore\n        /* \"#utility.yul\":4376:4380   */\n      0x20\n        /* \"#utility.yul\":4371:4374   */\n      dup3\n        /* \"#utility.yul\":4367:4381   */\n      add\n        /* \"#utility.yul\":4352:4381   */\n      swap1\n      pop\n        /* \"#utility.yul\":4218:4387   */\n      swap3\n      swap2\n      pop\n      pop\n      jump\t// out\n        /* \"#utility.yul\":4393:4532   */\n    tag_100:\n        /* \"#utility.yul\":4482:4488   */\n      dup3\n        /* \"#utility.yul\":4477:4480   */\n      dup2\n        /* \"#utility.yul\":4472:4475   */\n      dup4\n        /* \"#utility.yul\":4466:4489   */\n      mcopy\n        /* \"#utility.yul\":4523:4524   */\n      0x00\n        /* \"#utility.yul\":4514:4520   */\n      dup4\n        /* \"#utility.yul\":4509:4512   */\n      dup4\n        /* \"#utility.yul\":4505:4521   */\n      add\n        /* \"#utility.yul\":4498:4525   */\n      mstore\n        /* \"#utility.yul\":4393:4532   */\n      pop\n      pop\n      pop\n      jump\t// out\n        /* \"#utility.yul\":4538:4915   */\n    tag_101:\n        /* \"#utility.yul\":4626:4629   */\n      0x00\n        /* \"#utility.yul\":4654:4693   */\n      tag_184\n        /* \"#utility.yul\":4687:4692   */\n      dup3\n        /* \"#utility.yul\":4654:4693   */\n      tag_98\n      jump\t// in\n    tag_184:\n        /* \"#utility.yul\":4709:4780   */\n      tag_185\n        /* \"#utility.yul\":4773:4779   */\n      dup2\n        /* \"#utility.yul\":4768:4771   */\n      dup6\n        /* \"#utility.yul\":4709:4780   */\n      tag_99\n      jump\t// in\n    tag_185:\n        /* \"#utility.yul\":4702:4780   */\n      swap4\n      pop\n        /* \"#utility.yul\":4789:4854   */\n      tag_186\n        /* \"#utility.yul\":4847:4853   */\n      dup2\n        /* \"#utility.yul\":4842:4845   */\n      dup6\n        /* \"#utility.yul\":4835:4839   */\n      0x20\n        /* \"#utility.yul\":4828:4833   */\n      dup7\n        /* \"#utility.yul\":4824:4840   */\n      add\n        /* \"#utility.yul\":4789:4854   */\n      tag_100\n      jump\t// in\n    tag_186:\n        /* \"#utility.yul\":4879:4908   */\n      tag_187\n        /* \"#utility.yul\":4901:4907   */\n      dup2\n        /* \"#utility.yul\":4879:4908   */\n      tag_86\n      jump\t// in\n    tag_187:\n        /* \"#utility.yul\":4874:4877   */\n      dup5\n        /* \"#utility.yul\":4870:4909   */\n      add\n        /* \"#utility.yul\":4863:4909   */\n      swap2\n      pop\n        /* \"#utility.yul\":4630:4915   */\n      pop\n        /* \"#utility.yul\":4538:4915   */\n      swap3\n      swap2\n      pop\n      pop\n      jump\t// out\n        /* \"#utility.yul\":4921:5344   */\n    tag_18:\n        /* \"#utility.yul\":5062:5066   */\n      0x00\n        /* \"#utility.yul\":5100:5102   */\n      0x40\n        /* \"#utility.yul\":5089:5098   */\n      dup3\n        /* \"#utility.yul\":5085:5103   */\n      add\n        /* \"#utility.yul\":5077:5103   */\n      swap1\n      pop\n        /* \"#utility.yul\":5149:5158   */\n      dup2\n        /* \"#utility.yul\":5143:5147   */\n      dup2\n        /* \"#utility.yul\":5139:5159   */\n      sub\n        /* \"#utility.yul\":5135:5136   */\n      0x00\n        /* \"#utility.yul\":5124:5133   */\n      dup4\n        /* \"#utility.yul\":5120:5137   */\n      add\n        /* \"#utility.yul\":5113:5160   */\n      mstore\n        /* \"#utility.yul\":5177:5255   */\n      tag_189\n        /* \"#utility.yul\":5250:5254   */\n      dup2\n        /* \"#utility.yul\":5241:5247   */\n      dup6\n        /* \"#utility.yul\":5177:5255   */\n      tag_101\n      jump\t// in\n    tag_189:\n        /* \"#utility.yul\":5169:5255   */\n      swap1\n      pop\n        /* \"#utility.yul\":5265:5337   */\n      tag_190\n        /* \"#utility.yul\":5333:5335   */\n      0x20\n        /* \"#utility.yul\":5322:5331   */\n      dup4\n        /* \"#utility.yul\":5318:5336   */\n      add\n        /* \"#utility.yul\":5309:5315   */\n      dup5\n        /* \"#utility.yul\":5265:5337   */\n      tag_95\n      jump\t// in\n    tag_190:\n        /* \"#utility.yul\":4921:5344   */\n      swap4\n      swap3\n      pop\n      pop\n      pop\n      jump\t// out\n        /* \"#utility.yul\":5350:5498   */\n    tag_102:\n        /* \"#utility.yul\":5452:5463   */\n      0x00\n        /* \"#utility.yul\":5489:5492   */\n      dup2\n        /* \"#utility.yul\":5474:5492   */\n      swap1\n      pop\n        /* \"#utility.yul\":5350:5498   */\n      swap3\n      swap2\n      pop\n      pop\n      jump\t// out\n        /* \"#utility.yul\":5504:5894   */\n    tag_103:\n        /* \"#utility.yul\":5610:5613   */\n      0x00\n        /* \"#utility.yul\":5638:5677   */\n      tag_193\n        /* \"#utility.yul\":5671:5676   */\n      dup3\n        /* \"#utility.yul\":5638:5677   */\n      tag_98\n      jump\t// in\n    tag_193:\n        /* \"#utility.yul\":5693:5782   */\n      tag_194\n        /* \"#utility.yul\":5775:5781   */\n      dup2\n        /* \"#utility.yul\":5770:5773   */\n      dup6\n        /* \"#utility.yul\":5693:5782   */\n      tag_102\n      jump\t// in\n    tag_194:\n        /* \"#utility.yul\":5686:5782   */\n      swap4\n      pop\n        /* \"#utility.yul\":5791:5856   */\n      tag_195\n        /* \"#utility.yul\":5849:5855   */\n      dup2\n        /* \"#utility.yul\":5844:5847   */\n      dup6\n        /* \"#utility.yul\":5837:5841   */\n      0x20\n        /* \"#utility.yul\":5830:5835   */\n      dup7\n        /* \"#utility.yul\":5826:5842   */\n      add\n        /* \"#utility.yul\":5791:5856   */\n      tag_100\n      jump\t// in\n    tag_195:\n        /* \"#utility.yul\":5881:5887   */\n      dup1\n        /* \"#utility.yul\":5876:5879   */\n      dup5\n        /* \"#utility.yul\":5872:5888   */\n      add\n        /* \"#utility.yul\":5865:5888   */\n      swap2\n      pop\n        /* \"#utility.yul\":5614:5894   */\n      pop\n        /* \"#utility.yul\":5504:5894   */\n      swap3\n      swap2\n      pop\n      pop\n      jump\t// out\n        /* \"#utility.yul\":5900:6175   */\n    tag_27:\n        /* \"#utility.yul\":6032:6035   */\n      0x00\n        /* \"#utility.yul\":6054:6149   */\n      tag_197\n        /* \"#utility.yul\":6145:6148   */\n      dup3\n        /* \"#utility.yul\":6136:6142   */\n      dup5\n        /* \"#utility.yul\":6054:6149   */\n      tag_103\n      jump\t// in\n    tag_197:\n        /* \"#utility.yul\":6047:6149   */\n      swap2\n      pop\n        /* \"#utility.yul\":6166:6169   */\n      dup2\n        /* \"#utility.yul\":6159:6169   */\n      swap1\n      pop\n        /* \"#utility.yul\":5900:6175   */\n      swap3\n      swap2\n      pop\n      pop\n      jump\t// out\n        /* \"#utility.yul\":6181:6348   */\n    tag_104:\n        /* \"#utility.yul\":6321:6340   */\n      0x496e76616c69642063616e646964617465000000000000000000000000000000\n        /* \"#utility.yul\":6317:6318   */\n      0x00\n        /* \"#utility.yul\":6309:6315   */\n      dup3\n        /* \"#utility.yul\":6305:6319   */\n      add\n        /* \"#utility.yul\":6298:6341   */\n      mstore\n        /* \"#utility.yul\":6181:6348   */\n      pop\n      jump\t// out\n        /* \"#utility.yul\":6354:6720   */\n    tag_105:\n        /* \"#utility.yul\":6496:6499   */\n      0x00\n        /* \"#utility.yul\":6517:6584   */\n      tag_200\n        /* \"#utility.yul\":6581:6583   */\n      0x11\n        /* \"#utility.yul\":6576:6579   */\n      dup4\n        /* \"#utility.yul\":6517:6584   */\n      tag_99\n      jump\t// in\n    tag_200:\n        /* \"#utility.yul\":6510:6584   */\n      swap2\n      pop\n        /* \"#utility.yul\":6593:6686   */\n      tag_201\n        /* \"#utility.yul\":6682:6685   */\n      dup3\n        /* \"#utility.yul\":6593:6686   */\n      tag_104\n      jump\t// in\n    tag_201:\n        /* \"#utility.yul\":6711:6713   */\n      0x20\n        /* \"#utility.yul\":6706:6709   */\n      dup3\n        /* \"#utility.yul\":6702:6714   */\n      add\n        /* \"#utility.yul\":6695:6714   */\n      swap1\n      pop\n        /* \"#utility.yul\":6354:6720   */\n      swap2\n      swap1\n      pop\n      jump\t// out\n        /* \"#utility.yul\":6726:7145   */\n    tag_30:\n        /* \"#utility.yul\":6892:6896   */\n      0x00\n        /* \"#utility.yul\":6930:6932   */\n      0x20\n        /* \"#utility.yul\":6919:6928   */\n      dup3\n        /* \"#utility.yul\":6915:6933   */\n      add\n        /* \"#utility.yul\":6907:6933   */\n      swap1\n      pop\n        /* \"#utility.yul\":6979:6988   */\n      dup2\n        /* \"#utility.yul\":6973:6977   */\n      dup2\n        /* \"#utility.yul\":6969:6989   */\n      sub\n        /* \"#utility.yul\":6965:6966   */\n      0x00\n        /* \"#utility.yul\":6954:6963   */\n      dup4\n        /* \"#utility.yul\":6950:6967   */\n      add\n        /* \"#utility.yul\":6943:6990   */\n      mstore\n        /* \"#utility.yul\":7007:7138   */\n      tag_203\n        /* \"#utility.yul\":7133:7137   */\n      dup2\n        /* \"#utility.yul\":7007:7138   */\n      tag_105\n      jump\t// in\n    tag_203:\n        /* \"#utility.yul\":6999:7138   */\n      swap1\n      pop\n        /* \"#utility.yul\":6726:7145   */\n      swap2\n      swap1\n      pop\n      jump\t// out\n        /* \"#utility.yul\":7151:7331   */\n    tag_36:\n        /* \"#utility.yul\":7199:7276   */\n      0x4e487b7100000000000000000000000000000000000000000000000000000000\n        /* \"#utility.yul\":7196:7197   */\n      0x00\n        /* \"#utility.yul\":7189:7277   */\n      mstore\n        /* \"#utility.yul\":7296:7300   */\n      0x32\n        /* \"#utility.yul\":7293:7294   */\n      0x04\n        /* \"#utility.yul\":7286:7301   */\n      mstore\n        /* \"#utility.yul\":7320:7324   */\n      0x24\n        /* \"#utility.yul\":7317:7318   */\n      0x00\n        /* \"#utility.yul\":7310:7325   */\n      revert\n        /* \"#utility.yul\":7337:7517   */\n    tag_106:\n        /* \"#utility.yul\":7385:7462   */\n      0x4e487b7100000000000000000000000000000000000000000000000000000000\n        /* \"#utility.yul\":7382:7383   */\n      0x00\n        /* \"#utility.yul\":7375:7463   */\n      mstore\n        /* \"#utility.yul\":7482:7486   */\n      0x22\n        /* \"#utility.yul\":7479:7480   */\n      0x04\n        /* \"#utility.yul\":7472:7487   */\n      mstore\n        /* \"#utility.yul\":7506:7510   */\n      0x24\n        /* \"#utility.yul\":7503:7504   */\n      0x00\n        /* \"#utility.yul\":7496:7511   */\n      revert\n        /* \"#utility.yul\":7523:7843   */\n    tag_47:\n        /* \"#utility.yul\":7567:7573   */\n      0x00\n        /* \"#utility.yul\":7604:7605   */\n      0x02\n        /* \"#utility.yul\":7598:7602   */\n      dup3\n        /* \"#utility.yul\":7594:7606   */\n      div\n        /* \"#utility.yul\":7584:7606   */\n      swap1\n      pop\n        /* \"#utility.yul\":7651:7652   */\n      0x01\n        /* \"#utility.yul\":7645:7649   */\n      dup3\n        /* \"#utility.yul\":7641:7653   */\n      and\n        /* \"#utility.yul\":7672:7690   */\n      dup1\n        /* \"#utility.yul\":7662:7743   */\n      tag_207\n      jumpi\n        /* \"#utility.yul\":7728:7732   */\n      0x7f\n        /* \"#utility.yul\":7720:7726   */\n      dup3\n        /* \"#utility.yul\":7716:7733   */\n      and\n        /* \"#utility.yul\":7706:7733   */\n      swap2\n      pop\n        /* \"#utility.yul\":7662:7743   */\n    tag_207:\n        /* \"#utility.yul\":7790:7792   */\n      0x20\n        /* \"#utility.yul\":7782:7788   */\n      dup3\n        /* \"#utility.yul\":7779:7793   */\n      lt\n        /* \"#utility.yul\":7759:7777   */\n      dup2\n        /* \"#utility.yul\":7756:7794   */\n      sub\n        /* \"#utility.yul\":7753:7837   */\n      tag_208\n      jumpi\n        /* \"#utility.yul\":7809:7827   */\n      tag_209\n      tag_106\n      jump\t// in\n    tag_209:\n        /* \"#utility.yul\":7753:7837   */\n    tag_208:\n        /* \"#utility.yul\":7574:7843   */\n      pop\n        /* \"#utility.yul\":7523:7843   */\n      swap2\n      swap1\n      pop\n      jump\t// out\n        /* \"#utility.yul\":7849:7996   */\n    tag_107:\n        /* \"#utility.yul\":7950:7961   */\n      0x00\n        /* \"#utility.yul\":7987:7990   */\n      dup2\n        /* \"#utility.yul\":7972:7990   */\n      swap1\n      pop\n        /* \"#utility.yul\":7849:7996   */\n      swap3\n      swap2\n      pop\n      pop\n      jump\t// out\n        /* \"#utility.yul\":8002:8146   */\n    tag_108:\n        /* \"#utility.yul\":8054:8058   */\n      0x00\n        /* \"#utility.yul\":8077:8080   */\n      dup2\n        /* \"#utility.yul\":8069:8080   */\n      swap1\n      pop\n        /* \"#utility.yul\":8100:8103   */\n      dup2\n        /* \"#utility.yul\":8097:8098   */\n      0x00\n        /* \"#utility.yul\":8090:8104   */\n      mstore\n        /* \"#utility.yul\":8134:8138   */\n      0x20\n        /* \"#utility.yul\":8131:8132   */\n      0x00\n        /* \"#utility.yul\":8121:8139   */\n      keccak256\n        /* \"#utility.yul\":8113:8139   */\n      swap1\n      pop\n        /* \"#utility.yul\":8002:8146   */\n      swap2\n      swap1\n      pop\n      jump\t// out\n        /* \"#utility.yul\":8174:9052   */\n    tag_109:\n        /* \"#utility.yul\":8279:8282   */\n      0x00\n        /* \"#utility.yul\":8316:8321   */\n      dup2\n        /* \"#utility.yul\":8310:8322   */\n      sload\n        /* \"#utility.yul\":8345:8381   */\n      tag_213\n        /* \"#utility.yul\":8371:8380   */\n      dup2\n        /* \"#utility.yul\":8345:8381   */\n      tag_47\n      jump\t// in\n    tag_213:\n        /* \"#utility.yul\":8397:8485   */\n      tag_214\n        /* \"#utility.yul\":8478:8484   */\n      dup2\n        /* \"#utility.yul\":8473:8476   */\n      dup7\n        /* \"#utility.yul\":8397:8485   */\n      tag_107\n      jump\t// in\n    tag_214:\n        /* \"#utility.yul\":8390:8485   */\n      swap5\n      pop\n        /* \"#utility.yul\":8516:8517   */\n      0x01\n        /* \"#utility.yul\":8505:8514   */\n      dup3\n        /* \"#utility.yul\":8501:8518   */\n      and\n        /* \"#utility.yul\":8532:8533   */\n      0x00\n        /* \"#utility.yul\":8527:8693   */\n      dup2\n      eq\n      tag_216\n      jumpi\n        /* \"#utility.yul\":8707:8708   */\n      0x01\n        /* \"#utility.yul\":8702:9046   */\n      dup2\n      eq\n      tag_217\n      jumpi\n        /* \"#utility.yul\":8494:9046   */\n      jump(tag_215)\n        /* \"#utility.yul\":8527:8693   */\n    tag_216:\n        /* \"#utility.yul\":8611:8615   */\n      0xff\n        /* \"#utility.yul\":8607:8616   */\n      not\n        /* \"#utility.yul\":8596:8605   */\n      dup4\n        /* \"#utility.yul\":8592:8617   */\n      and\n        /* \"#utility.yul\":8587:8590   */\n      dup7\n        /* \"#utility.yul\":8580:8618   */\n      mstore\n        /* \"#utility.yul\":8673:8679   */\n      dup2\n        /* \"#utility.yul\":8666:8680   */\n      iszero\n        /* \"#utility.yul\":8659:8681   */\n      iszero\n        /* \"#utility.yul\":8651:8657   */\n      dup3\n        /* \"#utility.yul\":8647:8682   */\n      mul\n        /* \"#utility.yul\":8642:8645   */\n      dup7\n        /* \"#utility.yul\":8638:8683   */\n      add\n        /* \"#utility.yul\":8631:8683   */\n      swap4\n      pop\n        /* \"#utility.yul\":8527:8693   */\n      jump(tag_215)\n        /* \"#utility.yul\":8702:9046   */\n    tag_217:\n        /* \"#utility.yul\":8769:8810   */\n      tag_218\n        /* \"#utility.yul\":8804:8809   */\n      dup6\n        /* \"#utility.yul\":8769:8810   */\n      tag_108\n      jump\t// in\n    tag_218:\n        /* \"#utility.yul\":8832:8833   */\n      0x00\n        /* \"#utility.yul\":8846:9000   */\n    tag_219:\n        /* \"#utility.yul\":8860:8866   */\n      dup4\n        /* \"#utility.yul\":8857:8858   */\n      dup2\n        /* \"#utility.yul\":8854:8867   */\n      lt\n        /* \"#utility.yul\":8846:9000   */\n      iszero\n      tag_221\n      jumpi\n        /* \"#utility.yul\":8934:8941   */\n      dup2\n        /* \"#utility.yul\":8928:8942   */\n      sload\n        /* \"#utility.yul\":8924:8925   */\n      dup2\n        /* \"#utility.yul\":8919:8922   */\n      dup10\n        /* \"#utility.yul\":8915:8926   */\n      add\n        /* \"#utility.yul\":8908:8943   */\n      mstore\n        /* \"#utility.yul\":8984:8985   */\n      0x01\n        /* \"#utility.yul\":8975:8982   */\n      dup3\n        /* \"#utility.yul\":8971:8986   */\n      add\n        /* \"#utility.yul\":8960:8986   */\n      swap2\n      pop\n        /* \"#utility.yul\":8882:8886   */\n      0x20\n        /* \"#utility.yul\":8879:8880   */\n      dup2\n        /* \"#utility.yul\":8875:8887   */\n      add\n        /* \"#utility.yul\":8870:8887   */\n      swap1\n      pop\n        /* \"#utility.yul\":8846:9000   */\n      jump(tag_219)\n    tag_221:\n        /* \"#utility.yul\":9029:9035   */\n      dup4\n        /* \"#utility.yul\":9024:9027   */\n      dup9\n        /* \"#utility.yul\":9020:9036   */\n      add\n        /* \"#utility.yul\":9013:9036   */\n      swap6\n      pop\n        /* \"#utility.yul\":8709:9046   */\n      pop\n      pop\n        /* \"#utility.yul\":8494:9046   */\n    tag_215:\n      pop\n        /* \"#utility.yul\":8283:9052   */\n      pop\n      pop\n        /* \"#utility.yul\":8174:9052   */\n      swap3\n      swap2\n      pop\n      pop\n      jump\t// out\n        /* \"#utility.yul\":9058:9331   */\n    tag_39:\n        /* \"#utility.yul\":9189:9192   */\n      0x00\n        /* \"#utility.yul\":9211:9305   */\n      tag_223\n        /* \"#utility.yul\":9301:9304   */\n      dup3\n        /* \"#utility.yul\":9292:9298   */\n      dup5\n        /* \"#utility.yul\":9211:9305   */\n      tag_109\n      jump\t// in\n    tag_223:\n        /* \"#utility.yul\":9204:9305   */\n      swap2\n      pop\n        /* \"#utility.yul\":9322:9325   */\n      dup2\n        /* \"#utility.yul\":9315:9325   */\n      swap1\n      pop\n        /* \"#utility.yul\":9058:9331   */\n      swap3\n      swap2\n      pop\n      pop\n      jump\t// out\n        /* \"#utility.yul\":9337:9511   */\n    tag_110:\n        /* \"#utility.yul\":9477:9503   */\n      0x43616e64696461746520616c7265616479206578697374730000000000000000\n        /* \"#utility.yul\":9473:9474   */\n      0x00\n        /* \"#utility.yul\":9465:9471   */\n      dup3\n        /* \"#utility.yul\":9461:9475   */\n      add\n        /* \"#utility.yul\":9454:9504   */\n      mstore\n        /* \"#utility.yul\":9337:9511   */\n      pop\n      jump\t// out\n        /* \"#utility.yul\":9517:9883   */\n    tag_111:\n        /* \"#utility.yul\":9659:9662   */\n      0x00\n        /* \"#utility.yul\":9680:9747   */\n      tag_226\n        /* \"#utility.yul\":9744:9746   */\n      0x18\n        /* \"#utility.yul\":9739:9742   */\n      dup4\n        /* \"#utility.yul\":9680:9747   */\n      tag_99\n      jump\t// in\n    tag_226:\n        /* \"#utility.yul\":9673:9747   */\n      swap2\n      pop\n        /* \"#utility.yul\":9756:9849   */\n      tag_227\n        /* \"#utility.yul\":9845:9848   */\n      dup3\n        /* \"#utility.yul\":9756:9849   */\n      tag_110\n      jump\t// in\n    tag_227:\n        /* \"#utility.yul\":9874:9876   */\n      0x20\n        /* \"#utility.yul\":9869:9872   */\n      dup3\n        /* \"#utility.yul\":9865:9877   */\n      add\n        /* \"#utility.yul\":9858:9877   */\n      swap1\n      pop\n        /* \"#utility.yul\":9517:9883   */\n      swap2\n      swap1\n      pop\n      jump\t// out\n        /* \"#utility.yul\":9889:10308   */\n    tag_56:\n        /* \"#utility.yul\":10055:10059   */\n      0x00\n        /* \"#utility.yul\":10093:10095   */\n      0x20\n        /* \"#utility.yul\":10082:10091   */\n      dup3\n        /* \"#utility.yul\":10078:10096   */\n      add\n        /* \"#utility.yul\":10070:10096   */\n      swap1\n      pop\n        /* \"#utility.yul\":10142:10151   */\n      dup2\n        /* \"#utility.yul\":10136:10140   */\n      dup2\n        /* \"#utility.yul\":10132:10152   */\n      sub\n        /* \"#utility.yul\":10128:10129   */\n      0x00\n        /* \"#utility.yul\":10117:10126   */\n      dup4\n        /* \"#utility.yul\":10113:10130   */\n      add\n        /* \"#utility.yul\":10106:10153   */\n      mstore\n        /* \"#utility.yul\":10170:10301   */\n      tag_229\n        /* \"#utility.yul\":10296:10300   */\n      dup2\n        /* \"#utility.yul\":10170:10301   */\n      tag_111\n      jump\t// in\n    tag_229:\n        /* \"#utility.yul\":10162:10301   */\n      swap1\n      pop\n        /* \"#utility.yul\":9889:10308   */\n      swap2\n      swap1\n      pop\n      jump\t// out\n        /* \"#utility.yul\":10314:10455   */\n    tag_112:\n        /* \"#utility.yul\":10363:10367   */\n      0x00\n        /* \"#utility.yul\":10386:10389   */\n      dup2\n        /* \"#utility.yul\":10378:10389   */\n      swap1\n      pop\n        /* \"#utility.yul\":10409:10412   */\n      dup2\n        /* \"#utility.yul\":10406:10407   */\n      0x00\n        /* \"#utility.yul\":10399:10413   */\n      mstore\n        /* \"#utility.yul\":10443:10447   */\n      0x20\n        /* \"#utility.yul\":10440:10441   */\n      0x00\n        /* \"#utility.yul\":10430:10448   */\n      keccak256\n        /* \"#utility.yul\":10422:10448   */\n      swap1\n      pop\n        /* \"#utility.yul\":10314:10455   */\n      swap2\n      swap1\n      pop\n      jump\t// out\n        /* \"#utility.yul\":10461:10554   */\n    tag_113:\n        /* \"#utility.yul\":10498:10504   */\n      0x00\n        /* \"#utility.yul\":10545:10547   */\n      0x20\n        /* \"#utility.yul\":10540:10542   */\n      0x1f\n        /* \"#utility.yul\":10533:10538   */\n      dup4\n        /* \"#utility.yul\":10529:10543   */\n      add\n        /* \"#utility.yul\":10525:10548   */\n      div\n        /* \"#utility.yul\":10515:10548   */\n      swap1\n      pop\n        /* \"#utility.yul\":10461:10554   */\n      swap2\n      swap1\n      pop\n      jump\t// out\n        /* \"#utility.yul\":10560:10667   */\n    tag_114:\n        /* \"#utility.yul\":10604:10612   */\n      0x00\n        /* \"#utility.yul\":10654:10659   */\n      dup3\n        /* \"#utility.yul\":10648:10652   */\n      dup3\n        /* \"#utility.yul\":10644:10660   */\n      shl\n        /* \"#utility.yul\":10623:10660   */\n      swap1\n      pop\n        /* \"#utility.yul\":10560:10667   */\n      swap3\n      swap2\n      pop\n      pop\n      jump\t// out\n        /* \"#utility.yul\":10673:11066   */\n    tag_115:\n        /* \"#utility.yul\":10742:10748   */\n      0x00\n        /* \"#utility.yul\":10792:10793   */\n      0x08\n        /* \"#utility.yul\":10780:10790   */\n      dup4\n        /* \"#utility.yul\":10776:10794   */\n      mul\n        /* \"#utility.yul\":10815:10912   */\n      tag_234\n        /* \"#utility.yul\":10845:10911   */\n      0xffffffffffffffffffffffffffffffffffffffffffffffffffffffffffffffff\n        /* \"#utility.yul\":10834:10843   */\n      dup3\n        /* \"#utility.yul\":10815:10912   */\n      tag_114\n      jump\t// in\n    tag_234:\n        /* \"#utility.yul\":10933:10972   */\n      tag_235\n        /* \"#utility.yul\":10963:10971   */\n      dup7\n        /* \"#utility.yul\":10952:10961   */\n      dup4\n        /* \"#utility.yul\":10933:10972   */\n      tag_114\n      jump\t// in\n    tag_235:\n        /* \"#utility.yul\":10921:10972   */\n      swap6\n      pop\n        /* \"#utility.yul\":11005:11009   */\n      dup1\n        /* \"#utility.yul\":11001:11010   */\n      not\n        /* \"#utility.yul\":10994:10999   */\n      dup5\n        /* \"#utility.yul\":10990:11011   */\n      and\n        /* \"#utility.yul\":10981:11011   */\n      swap4\n      pop\n        /* \"#utility.yul\":11054:11058   */\n      dup1\n        /* \"#utility.yul\":11044:11052   */\n      dup7\n        /* \"#utility.yul\":11040:11059   */\n      and\n        /* \"#utility.yul\":11033:11038   */\n      dup5\n        /* \"#utility.yul\":11030:11060   */\n      or\n        /* \"#utility.yul\":11020:11060   */\n      swap3\n      pop\n        /* \"#utility.yul\":10749:11066   */\n      pop\n      pop\n        /* \"#utility.yul\":10673:11066   */\n      swap4\n      swap3\n      pop\n      pop\n      pop\n      jump\t// out\n        /* \"#utility.yul\":11072:11132   */\n    tag_116:\n        /* \"#utility.yul\":11100:11103   */\n      0x00\n        /* \"#utility.yul\":11121:11126   */\n      dup2\n        /* \"#utility.yul\":11114:11126   */\n      swap1\n      pop\n        /* \"#utility.yul\":11072:11132   */\n      swap2\n      swap1\n      pop\n      jump\t// out\n        /* \"#utility.yul\":11138:11280   */\n    tag_117:\n        /* \"#utility.yul\":11188:11197   */\n      0x00\n        /* \"#utility.yul\":11221:11274   */\n      tag_238\n        /* \"#utility.yul\":11239:11273   */\n      tag_239\n        /* \"#utility.yul\":11248:11272   */\n      tag_240\n        /* \"#utility.yul\":11266:11271   */\n      dup5\n        /* \"#utility.yul\":11248:11272   */\n      tag_94\n      jump\t// in\n    tag_240:\n        /* \"#utility.yul\":11239:11273   */\n      tag_116\n      jump\t// in\n    tag_239:\n        /* \"#utility.yul\":11221:11274   */\n      tag_94\n      jump\t// in\n    tag_238:\n        /* \"#utility.yul\":11208:11274   */\n      swap1\n      pop\n        /* \"#utility.yul\":11138:11280   */\n      swap2\n      swap1\n      pop\n      jump\t// out\n        /* \"#utility.yul\":11286:11361   */\n    tag_118:\n        /* \"#utility.yul\":11329:11332   */\n      0x00\n        /* \"#utility.yul\":11350:11355   */\n      dup2\n        /* \"#utility.yul\":11343:11355   */\n      swap1\n      pop\n        /* \"#utility.yul\":11286:11361   */\n      swap2\n      swap1\n      pop\n      jump\t// out\n        /* \"#utility.yul\":11367:11636   */\n    tag_119:\n        /* \"#utility.yul\":11477:11516   */\n      tag_243\n        /* \"#utility.yul\":11508:11515   */\n      dup4\n        /* \"#utility.yul\":11477:11516   */\n      tag_117\n      jump\t// in\n    tag_243:\n        /* \"#utility.yul\":11538:11629   */\n      tag_244\n        /* \"#utility.yul\":11587:11628   */\n      tag_245\n        /* \"#utility.yul\":11611:11627   */\n      dup3\n        /* \"#utility.yul\":11587:11628   */\n      tag_118\n      jump\t// in\n    tag_245:\n        /* \"#utility.yul\":11579:11585   */\n      dup5\n        /* \"#utility.yul\":11572:11576   */\n      dup5\n        /* \"#utility.yul\":11566:11577   */\n      sload\n        /* \"#utility.yul\":11538:11629   */\n      tag_115\n      jump\t// in\n    tag_244:\n        /* \"#utility.yul\":11532:11536   */\n      dup3\n        /* \"#utility.yul\":11525:11630   */\n      sstore\n        /* \"#utility.yul\":11443:11636   */\n      pop\n        /* \"#utility.yul\":11367:11636   */\n      pop\n      pop\n      pop\n      jump\t// out\n        /* \"#utility.yul\":11642:11715   */\n    tag_120:\n        /* \"#utility.yul\":11687:11690   */\n      0x00\n        /* \"#utility.yul\":11708:11709   */\n      0x00\n        /* \"#utility.yul\":11701:11709   */\n      swap1\n      pop\n        /* \"#utility.yul\":11642:11715   */\n      swap1\n      jump\t// out\n        /* \"#utility.yul\":11721:11910   */\n    tag_121:\n        /* \"#utility.yul\":11798:11830   */\n      tag_248\n      tag_120\n      jump\t// in\n    tag_248:\n        /* \"#utility.yul\":11839:11904   */\n      tag_249\n        /* \"#utility.yul\":11897:11903   */\n      dup2\n        /* \"#utility.yul\":11889:11895   */\n      dup5\n        /* \"#utility.yul\":11883:11887   */\n      dup5\n        /* \"#utility.yul\":11839:11904   */\n      tag_119\n      jump\t// in\n    tag_249:\n        /* \"#utility.yul\":11774:11910   */\n      pop\n        /* \"#utility.yul\":11721:11910   */\n      pop\n      pop\n      jump\t// out\n        /* \"#utility.yul\":11916:12102   */\n    tag_122:\n        /* \"#utility.yul\":11976:12096   */\n    tag_251:\n        /* \"#utility.yul\":11993:11996   */\n      dup2\n        /* \"#utility.yul\":11986:11991   */\n      dup2\n        /* \"#utility.yul\":11983:11997   */\n      lt\n        /* \"#utility.yul\":11976:12096   */\n      iszero\n      tag_253\n      jumpi\n        /* \"#utility.yul\":12047:12086   */\n      tag_254\n        /* \"#utility.yul\":12084:12085   */\n      0x00\n        /* \"#utility.yul\":12077:12082   */\n      dup3\n        /* \"#utility.yul\":12047:12086   */\n      tag_121\n      jump\t// in\n    tag_254:\n        /* \"#utility.yul\":12020:12021   */\n      0x01\n        /* \"#utility.yul\":12013:12018   */\n      dup2\n        /* \"#utility.yul\":12009:12022   */\n      add\n        /* \"#utility.yul\":12000:12022   */\n      swap1\n      pop\n        /* \"#utility.yul\":11976:12096   */\n      jump(tag_251)\n    tag_253:\n        /* \"#utility.yul\":11916:12102   */\n      pop\n      pop\n      jump\t// out\n        /* \"#utility.yul\":12108:12651   */\n    tag_123:\n        /* \"#utility.yul\":12209:12211   */\n      0x1f\n        /* \"#utility.yul\":12204:12207   */\n      dup3\n        /* \"#utility.yul\":12201:12212   */\n      gt\n        /* \"#utility.yul\":12198:12644   */\n      iszero\n      tag_256\n      jumpi\n        /* \"#utility.yul\":12243:12281   */\n      tag_257\n        /* \"#utility.yul\":12275:12280   */\n      dup2\n        /* \"#utility.yul\":12243:12281   */\n      tag_112\n      jump\t// in\n    tag_257:\n        /* \"#utility.yul\":12327:12356   */\n      tag_258\n        /* \"#utility.yul\":12345:12355   */\n      dup5\n        /* \"#utility.yul\":12327:12356   */\n      tag_113\n      jump\t// in\n    tag_258:\n        /* \"#utility.yul\":12317:12325   */\n      dup2\n        /* \"#utility.yul\":12313:12357   */\n      add\n        /* \"#utility.yul\":12510:12512   */\n      0x20\n        /* \"#utility.yul\":12498:12508   */\n      dup6\n        /* \"#utility.yul\":12495:12513   */\n      lt\n        /* \"#utility.yul\":12492:12541   */\n      iszero\n      tag_259\n      jumpi\n        /* \"#utility.yul\":12531:12539   */\n      dup2\n        /* \"#utility.yul\":12516:12539   */\n      swap1\n      pop\n        /* \"#utility.yul\":12492:12541   */\n    tag_259:\n        /* \"#utility.yul\":12554:12634   */\n      tag_260\n        /* \"#utility.yul\":12610:12632   */\n      tag_261\n        /* \"#utility.yul\":12628:12631   */\n      dup6\n        /* \"#utility.yul\":12610:12632   */\n      tag_113\n      jump\t// in\n    tag_261:\n        /* \"#utility.yul\":12600:12608   */\n      dup4\n        /* \"#utility.yul\":12596:12633   */\n      add\n        /* \"#utility.yul\":12583:12594   */\n      dup3\n        /* \"#utility.yul\":12554:12634   */\n      tag_122\n      jump\t// in\n    tag_260:\n        /* \"#utility.yul\":12213:12644   */\n      pop\n      pop\n        /* \"#utility.yul\":12198:12644   */\n    tag_256:\n        /* \"#utility.yul\":12108:12651   */\n      pop\n      pop\n      pop\n      jump\t// out\n        /* \"#utility.yul\":12657:12774   */\n    tag_124:\n        /* \"#utility.yul\":12711:12719   */\n      0x00\n        /* \"#utility.yul\":12761:12766   */\n      dup3\n        /* \"#utility.yul\":12755:12759   */\n      dup3\n        /* \"#utility.yul\":12751:12767   */\n      shr\n        /* \"#utility.yul\":12730:12767   */\n      swap1\n      pop\n        /* \"#utility.yul\":12657:12774   */\n      swap3\n      swap2\n      pop\n      pop\n      jump\t// out\n        /* \"#utility.yul\":12780:12949   */\n    tag_125:\n        /* \"#utility.yul\":12824:12830   */\n      0x00\n        /* \"#utility.yul\":12857:12908   */\n      tag_264\n        /* \"#utility.yul\":12905:12906   */\n      0x00\n        /* \"#utility.yul\":12901:12907   */\n      not\n        /* \"#utility.yul\":12893:12898   */\n      dup5\n        /* \"#utility.yul\":12890:12891   */\n      0x08\n        /* \"#utility.yul\":12886:12899   */\n      mul\n        /* \"#utility.yul\":12857:12908   */\n      tag_124\n      jump\t// in\n    tag_264:\n        /* \"#utility.yul\":12853:12909   */\n      not\n        /* \"#utility.yul\":12938:12942   */\n      dup1\n        /* \"#utility.yul\":12932:12936   */\n      dup4\n        /* \"#utility.yul\":12928:12943   */\n      and\n        /* \"#utility.yul\":12918:12943   */\n      swap2\n      pop\n        /* \"#utility.yul\":12831:12949   */\n      pop\n        /* \"#utility.yul\":12780:12949   */\n      swap3\n      swap2\n      pop\n      pop\n      jump\t// out\n        /* \"#utility.yul\":12954:13249   */\n    tag_126:\n        /* \"#utility.yul\":13030:13034   */\n      0x00\n        /* \"#utility.yul\":13176:13205   */\n      tag_266\n        /* \"#utility.yul\":13201:13204   */\n      dup4\n        /* \"#utility.yul\":13195:13199   */\n      dup4\n        /* \"#utility.yul\":13176:13205   */\n      tag_125\n      jump\t// in\n    tag_266:\n        /* \"#utility.yul\":13168:13205   */\n      swap2\n      pop\n        /* \"#utility.yul\":13238:13241   */\n      dup3\n        /* \"#utility.yul\":13235:13236   */\n      0x02\n        /* \"#utility.yul\":13231:13242   */\n      mul\n        /* \"#utility.yul\":13225:13229   */\n      dup3\n        /* \"#utility.yul\":13222:13243   */\n      or\n        /* \"#utility.yul\":13214:13243   */\n      swap1\n      pop\n        /* \"#utility.yul\":12954:13249   */\n      swap3\n      swap2\n      pop\n      pop\n      jump\t// out\n        /* \"#utility.yul\":13254:14649   */\n    tag_59:\n        /* \"#utility.yul\":13371:13408   */\n      tag_268\n        /* \"#utility.yul\":13404:13407   */\n      dup3\n        /* \"#utility.yul\":13371:13408   */\n      tag_98\n      jump\t// in\n    tag_268:\n        /* \"#utility.yul\":13473:13491   */\n      0xffffffffffffffff\n        /* \"#utility.yul\":13465:13471   */\n      dup2\n        /* \"#utility.yul\":13462:13492   */\n      gt\n        /* \"#utility.yul\":13459:13515   */\n      iszero\n      tag_269\n      jumpi\n        /* \"#utility.yul\":13495:13513   */\n      tag_270\n      tag_87\n      jump\t// in\n    tag_270:\n        /* \"#utility.yul\":13459:13515   */\n    tag_269:\n        /* \"#utility.yul\":13539:13577   */\n      tag_271\n        /* \"#utility.yul\":13571:13575   */\n      dup3\n        /* \"#utility.yul\":13565:13576   */\n      sload\n        /* \"#utility.yul\":13539:13577   */\n      tag_47\n      jump\t// in\n    tag_271:\n        /* \"#utility.yul\":13624:13691   */\n      tag_272\n        /* \"#utility.yul\":13684:13690   */\n      dup3\n        /* \"#utility.yul\":13676:13682   */\n      dup3\n        /* \"#utility.yul\":13670:13674   */\n      dup6\n        /* \"#utility.yul\":13624:13691   */\n      tag_123\n      jump\t// in\n    tag_272:\n        /* \"#utility.yul\":13718:13719   */\n      0x00\n        /* \"#utility.yul\":13742:13746   */\n      0x20\n        /* \"#utility.yul\":13729:13746   */\n      swap1\n      pop\n        /* \"#utility.yul\":13774:13776   */\n      0x1f\n        /* \"#utility.yul\":13766:13772   */\n      dup4\n        /* \"#utility.yul\":13763:13777   */\n      gt\n        /* \"#utility.yul\":13791:13792   */\n      0x01\n        /* \"#utility.yul\":13786:14404   */\n      dup2\n      eq\n      tag_274\n      jumpi\n        /* \"#utility.yul\":14448:14449   */\n      0x00\n        /* \"#utility.yul\":14465:14471   */\n      dup5\n        /* \"#utility.yul\":14462:14539   */\n      iszero\n      tag_275\n      jumpi\n        /* \"#utility.yul\":14514:14523   */\n      dup3\n        /* \"#utility.yul\":14509:14512   */\n      dup8\n        /* \"#utility.yul\":14505:14524   */\n      add\n        /* \"#utility.yul\":14499:14525   */\n      mload\n        /* \"#utility.yul\":14490:14525   */\n      swap1\n      pop\n        /* \"#utility.yul\":14462:14539   */\n    tag_275:\n        /* \"#utility.yul\":14565:14632   */\n      tag_276\n        /* \"#utility.yul\":14625:14631   */\n      dup6\n        /* \"#utility.yul\":14618:14623   */\n      dup3\n        /* \"#utility.yul\":14565:14632   */\n      tag_126\n      jump\t// in\n    tag_276:\n        /* \"#utility.yul\":14559:14563   */\n      dup7\n        /* \"#utility.yul\":14552:14633   */\n      sstore\n        /* \"#utility.yul\":14421:14643   */\n      pop\n        /* \"#utility.yul\":13756:14643   */\n      jump(tag_273)\n        /* \"#utility.yul\":13786:14404   */\n    tag_274:\n        /* \"#utility.yul\":13838:13842   */\n      0x1f\n        /* \"#utility.yul\":13834:13843   */\n      not\n        /* \"#utility.yul\":13826:13832   */\n      dup5\n        /* \"#utility.yul\":13822:13844   */\n      and\n        /* \"#utility.yul\":13872:13909   */\n      tag_277\n        /* \"#utility.yul\":13904:13908   */\n      dup7\n        /* \"#utility.yul\":13872:13909   */\n      tag_112\n      jump\t// in\n    tag_277:\n        /* \"#utility.yul\":13931:13932   */\n      0x00\n        /* \"#utility.yul\":13945:14153   */\n    tag_278:\n        /* \"#utility.yul\":13959:13966   */\n      dup3\n        /* \"#utility.yul\":13956:13957   */\n      dup2\n        /* \"#utility.yul\":13953:13967   */\n      lt\n        /* \"#utility.yul\":13945:14153   */\n      iszero\n      tag_280\n      jumpi\n        /* \"#utility.yul\":14038:14047   */\n      dup5\n        /* \"#utility.yul\":14033:14036   */\n      dup10\n        /* \"#utility.yul\":14029:14048   */\n      add\n        /* \"#utility.yul\":14023:14049   */\n      mload\n        /* \"#utility.yul\":14015:14021   */\n      dup3\n        /* \"#utility.yul\":14008:14050   */\n      sstore\n        /* \"#utility.yul\":14089:14090   */\n      0x01\n        /* \"#utility.yul\":14081:14087   */\n      dup3\n        /* \"#utility.yul\":14077:14091   */\n      add\n        /* \"#utility.yul\":14067:14091   */\n      swap2\n      pop\n        /* \"#utility.yul\":14136:14138   */\n      0x20\n        /* \"#utility.yul\":14125:14134   */\n      dup6\n        /* \"#utility.yul\":14121:14139   */\n      add\n        /* \"#utility.yul\":14108:14139   */\n      swap5\n      pop\n        /* \"#utility.yul\":13982:13986   */\n      0x20\n        /* \"#utility.yul\":13979:13980   */\n      dup2\n        /* \"#utility.yul\":13975:13987   */\n      add\n        /* \"#utility.yul\":13970:13987   */\n      swap1\n      pop\n        /* \"#utility.yul\":13945:14153   */\n      jump(tag_278)\n    tag_280:\n        /* \"#utility.yul\":14181:14187   */\n      dup7\n        /* \"#utility.yul\":14172:14179   */\n      dup4\n        /* \"#utility.yul\":14169:14188   */\n      lt\n        /* \"#utility.yul\":14166:14345   */\n      iszero\n      tag_281\n      jumpi\n        /* \"#utility.yul\":14239:14248   */\n      dup5\n        /* \"#utility.yul\":14234:14237   */\n      dup10\n        /* \"#utility.yul\":14230:14249   */\n      add\n        /* \"#utility.yul\":14224:14250   */\n      mload\n        /* \"#utility.yul\":14282:14330   */\n      tag_282\n        /* \"#utility.yul\":14324:14328   */\n      0x1f\n        /* \"#utility.yul\":14316:14322   */\n      dup10\n        /* \"#utility.yul\":14312:14329   */\n      and\n        /* \"#utility.yul\":14301:14310   */\n      dup3\n        /* \"#utility.yul\":14282:14330   */\n      tag_125\n      jump\t// in\n    tag_282:\n        /* \"#utility.yul\":14274:14280   */\n      dup4\n        /* \"#utility.yul\":14267:14331   */\n      sstore\n        /* \"#utility.yul\":14189:14345   */\n      pop\n        /* \"#utility.yul\":14166:14345   */\n    tag_281:\n        /* \"#utility.yul\":14391:14392   */\n      0x01\n        /* \"#utility.yul\":14387:14388   */\n      0x02\n        /* \"#utility.yul\":14379:14385   */\n      dup9\n        /* \"#utility.yul\":14375:14389   */\n      mul\n        /* \"#utility.yul\":14371:14393   */\n      add\n        /* \"#utility.yul\":14365:14369   */\n      dup9\n        /* \"#utility.yul\":14358:14394   */\n      sstore\n        /* \"#utility.yul\":13793:14404   */\n      pop\n      pop\n      pop\n        /* \"#utility.yul\":13756:14643   */\n    tag_273:\n      pop\n        /* \"#utility.yul\":13346:14649   */\n      pop\n      pop\n      pop\n        /* \"#utility.yul\":13254:14649   */\n      pop\n      pop\n      jump\t// out\n        /* \"#utility.yul\":14655:14818   */\n    tag_127:\n        /* \"#utility.yul\":14795:14810   */\n      0x416c726561647920766f74656400000000000000000000000000000000000000\n        /* \"#utility.yul\":14791:14792   */\n      0x00\n        /* \"#utility.yul\":14783:14789   */\n      dup3\n        /* \"#utility.yul\":14779:14793   */\n      add\n        /* \"#utility.yul\":14772:14811   */\n      mstore\n        /* \"#utility.yul\":14655:14818   */\n      pop\n      jump\t// out\n        /* \"#utility.yul\":14824:15190   */\n    tag_128:\n        /* \"#utility.yul\":14966:14969   */\n      0x00\n        /* \"#utility.yul\":14987:15054   */\n      tag_285\n        /* \"#utility.yul\":15051:15053   */\n      0x0d\n        /* \"#utility.yul\":15046:15049   */\n      dup4\n        /* \"#utility.yul\":14987:15054   */\n      tag_99\n      jump\t// in\n    tag_285:\n        /* \"#utility.yul\":14980:15054   */\n      swap2\n      pop\n        /* \"#utility.yul\":15063:15156   */\n      tag_286\n        /* \"#utility.yul\":15152:15155   */\n      dup3\n        /* \"#utility.yul\":15063:15156   */\n      tag_127\n      jump\t// in\n    tag_286:\n        /* \"#utility.yul\":15181:15183   */\n      0x20\n        /* \"#utility.yul\":15176:15179   */\n      dup3\n        /* \"#utility.yul\":15172:15184   */\n      add\n        /* \"#utility.yul\":15165:15184   */\n      swap1\n      pop\n        /* \"#utility.yul\":14824:15190   */\n      swap2\n      swap1\n      pop\n      jump\t// out\n        /* \"#utility.yul\":15196:15615   */\n    tag_64:\n        /* \"#utility.yul\":15362:15366   */\n      0x00\n        /* \"#utility.yul\":15400:15402   */\n      0x20\n        /* \"#utility.yul\":15389:15398   */\n      dup3\n        /* \"#utility.yul\":15385:15403   */\n      add\n        /* \"#utility.yul\":15377:15403   */\n      swap1\n      pop\n        /* \"#utility.yul\":15449:15458   */\n      dup2\n        /* \"#utility.yul\":15443:15447   */\n      dup2\n        /* \"#utility.yul\":15439:15459   */\n      sub\n        /* \"#utility.yul\":15435:15436   */\n      0x00\n        /* \"#utility.yul\":15424:15433   */\n      dup4\n        /* \"#utility.yul\":15420:15437   */\n      add\n        /* \"#utility.yul\":15413:15460   */\n      mstore\n        /* \"#utility.yul\":15477:15608   */\n      tag_288\n        /* \"#utility.yul\":15603:15607   */\n      dup2\n        /* \"#utility.yul\":15477:15608   */\n      tag_128\n      jump\t// in\n    tag_288:\n        /* \"#utility.yul\":15469:15608   */\n      swap1\n      pop\n        /* \"#utility.yul\":15196:15615   */\n      swap2\n      swap1\n      pop\n      jump\t// out\n        /* \"#utility.yul\":15621:15801   */\n    tag_129:\n        /* \"#utility.yul\":15669:15746   */\n      0x4e487b7100000000000000000000000000000000000000000000000000000000\n        /* \"#utility.yul\":15666:15667   */\n      0x00\n        /* \"#utility.yul\":15659:15747   */\n      mstore\n        /* \"#utility.yul\":15766:15770   */\n      0x11\n        /* \"#utility.yul\":15763:15764   */\n      0x04\n        /* \"#utility.yul\":15756:15771   */\n      mstore\n        /* \"#utility.yul\":15790:15794   */\n      0x24\n        /* \"#utility.yul\":15787:15788   */\n      0x00\n        /* \"#utility.yul\":15780:15795   */\n      revert\n        /* \"#utility.yul\":15807:15998   */\n    tag_80:\n        /* \"#utility.yul\":15847:15850   */\n      0x00\n        /* \"#utility.yul\":15866:15886   */\n      tag_291\n        /* \"#utility.yul\":15884:15885   */\n      dup3\n        /* \"#utility.yul\":15866:15886   */\n      tag_94\n      jump\t// in\n    tag_291:\n        /* \"#utility.yul\":15861:15886   */\n      swap2\n      pop\n        /* \"#utility.yul\":15900:15920   */\n      tag_292\n        /* \"#utility.yul\":15918:15919   */\n      dup4\n        /* \"#utility.yul\":15900:15920   */\n      tag_94\n      jump\t// in\n    tag_292:\n        /* \"#utility.yul\":15895:15920   */\n      swap3\n      pop\n        /* \"#utility.yul\":15943:15944   */\n      dup3\n        /* \"#utility.yul\":15940:15941   */\n      dup3\n        /* \"#utility.yul\":15936:15945   */\n      add\n        /* \"#utility.yul\":15929:15945   */\n      swap1\n      pop\n        /* \"#utility.yul\":15964:15967   */\n      dup1\n        /* \"#utility.yul\":15961:15962   */\n      dup3\n        /* \"#utility.yul\":15958:15968   */\n      gt\n        /* \"#utility.yul\":15955:15991   */\n      iszero\n      tag_293\n      jumpi\n        /* \"#utility.yul\":15971:15989   */\n      tag_294\n      tag_129\n      jump\t// in\n    tag_294:\n        /* \"#utility.yul\":15955:15991   */\n    tag_293:\n        /* \"#utility.yul\":15807:15998   */\n      swap3\n      swap2\n      pop\n      pop\n      jump\t// out\n\n    auxdata: 0xa2646970667358221220089593112511cc3b42c4502e1b1b4922bf9533ef24379024f8ddb8ba9afe0b0764736f6c634300081e0033\n}\n",
				"bytecode": {
					"linkReferences": {},
					"object": "6080604052348015600e575f5ffd5b50610df88061001c5f395ff3fe608060405234801561000f575f5ffd5b506004361061004a575f3560e01c8063069953a71461004e5780633477ee2e1461007e578063462e91ec146100af578063fc36e15b146100cb575b5f5ffd5b610068600480360381019061006391906106d4565b6100e7565b6040516100759190610733565b60405180910390f35b61009860048036038101906100939190610776565b6101e8565b6040516100a6929190610801565b60405180910390f35b6100c960048036038101906100c491906106d4565b61029c565b005b6100e560048036038101906100e091906106d4565b61039b565b005b5f6001826040516100f89190610869565b90815260200160405180910390205f9054906101000a900460ff16610152576040517f08c379a0000000000000000000000000000000000000000000000000000000008152600401610149906108c9565b60405180910390fd5b5f5f90505b5f805490508110156101de5782805190602001205f828154811061017e5761017d6108e7565b5b905f5260205f2090600202015f016040516101999190610a0d565b6040518091039020036101d1575f81815481106101b9576101b86108e7565b5b905f5260205f209060020201600101549150506101e3565b8080600101915050610157565b505f90505b919050565b5f81815481106101f6575f80fd5b905f5260205f2090600202015f91509050805f01805461021590610941565b80601f016020809104026020016040519081016040528092919081815260200182805461024190610941565b801561028c5780601f106102635761010080835404028352916020019161028c565b820191905f5260205f20905b81548152906001019060200180831161026f57829003601f168201915b5050505050908060010154905082565b6001816040516102ac9190610869565b90815260200160405180910390205f9054906101000a900460ff1615610307576040517f08c379a00000000000000000000000000000000000000000000000000000000081526004016102fe90610a6d565b60405180910390fd5b5f60405180604001604052808381526020015f815250908060018154018082558091505060019003905f5260205f2090600202015f909190919091505f820151815f0190816103569190610c2b565b50602082015181600101555050600180826040516103749190610869565b90815260200160405180910390205f6101000a81548160ff02191690831515021790555050565b60025f3373ffffffffffffffffffffffffffffffffffffffff1673ffffffffffffffffffffffffffffffffffffffff1681526020019081526020015f205f9054906101000a900460ff1615610425576040517f08c379a000000000000000000000000000000000000000000000000000000000815260040161041c90610d44565b60405180910390fd5b6001816040516104359190610869565b90815260200160405180910390205f9054906101000a900460ff1661048f576040517f08c379a0000000000000000000000000000000000000000000000000000000008152600401610486906108c9565b60405180910390fd5b5f5f90505b5f8054905081101561052e5781805190602001205f82815481106104bb576104ba6108e7565b5b905f5260205f2090600202015f016040516104d69190610a0d565b6040518091039020036105215760015f82815481106104f8576104f76108e7565b5b905f5260205f2090600202016001015f8282546105159190610d8f565b9250508190555061052e565b8080600101915050610494565b50600160025f3373ffffffffffffffffffffffffffffffffffffffff1673ffffffffffffffffffffffffffffffffffffffff1681526020019081526020015f205f6101000a81548160ff02191690831515021790555050565b5f604051905090565b5f5ffd5b5f5ffd5b5f5ffd5b5f5ffd5b5f601f19601f8301169050919050565b7f4e487b71000000000000000000000000000000000000000000000000000000005f52604160045260245ffd5b6105e6826105a0565b810181811067ffffffffffffffff82111715610605576106046105b0565b5b80604052505050565b5f610617610587565b905061062382826105dd565b919050565b5f67ffffffffffffffff821115610642576106416105b0565b5b61064b826105a0565b9050602081019050919050565b828183375f83830152505050565b5f61067861067384610628565b61060e565b9050828152602081018484840111156106945761069361059c565b5b61069f848285610658565b509392505050565b5f82601f8301126106bb576106ba610598565b5b81356106cb848260208601610666565b91505092915050565b5f602082840312156106e9576106e8610590565b5b5f82013567ffffffffffffffff81111561070657610705610594565b5b610712848285016106a7565b91505092915050565b5f819050919050565b61072d8161071b565b82525050565b5f6020820190506107465f830184610724565b92915050565b6107558161071b565b811461075f575f5ffd5b50565b5f813590506107708161074c565b92915050565b5f6020828403121561078b5761078a610590565b5b5f61079884828501610762565b91505092915050565b5f81519050919050565b5f82825260208201905092915050565b8281835e5f83830152505050565b5f6107d3826107a1565b6107dd81856107ab565b93506107ed8185602086016107bb565b6107f6816105a0565b840191505092915050565b5f6040820190508181035f83015261081981856107c9565b90506108286020830184610724565b9392505050565b5f81905092915050565b5f610843826107a1565b61084d818561082f565b935061085d8185602086016107bb565b80840191505092915050565b5f6108748284610839565b915081905092915050565b7f496e76616c69642063616e6469646174650000000000000000000000000000005f82015250565b5f6108b36011836107ab565b91506108be8261087f565b602082019050919050565b5f6020820190508181035f8301526108e0816108a7565b9050919050565b7f4e487b71000000000000000000000000000000000000000000000000000000005f52603260045260245ffd5b7f4e487b71000000000000000000000000000000000000000000000000000000005f52602260045260245ffd5b5f600282049050600182168061095857607f821691505b60208210810361096b5761096a610914565b5b50919050565b5f81905092915050565b5f819050815f5260205f209050919050565b5f815461099981610941565b6109a38186610971565b9450600182165f81146109bd57600181146109d257610a04565b60ff1983168652811515820286019350610a04565b6109db8561097b565b5f5b838110156109fc578154818901526001820191506020810190506109dd565b838801955050505b50505092915050565b5f610a18828461098d565b915081905092915050565b7f43616e64696461746520616c72656164792065786973747300000000000000005f82015250565b5f610a576018836107ab565b9150610a6282610a23565b602082019050919050565b5f6020820190508181035f830152610a8481610a4b565b9050919050565b5f819050815f5260205f209050919050565b5f6020601f8301049050919050565b5f82821b905092915050565b5f60088302610ae77fffffffffffffffffffffffffffffffffffffffffffffffffffffffffffffffff82610aac565b610af18683610aac565b95508019841693508086168417925050509392505050565b5f819050919050565b5f610b2c610b27610b228461071b565b610b09565b61071b565b9050919050565b5f819050919050565b610b4583610b12565b610b59610b5182610b33565b848454610ab8565b825550505050565b5f5f905090565b610b70610b61565b610b7b818484610b3c565b505050565b5b81811015610b9e57610b935f82610b68565b600181019050610b81565b5050565b601f821115610be357610bb481610a8b565b610bbd84610a9d565b81016020851015610bcc578190505b610be0610bd885610a9d565b830182610b80565b50505b505050565b5f82821c905092915050565b5f610c035f1984600802610be8565b1980831691505092915050565b5f610c1b8383610bf4565b9150826002028217905092915050565b610c34826107a1565b67ffffffffffffffff811115610c4d57610c4c6105b0565b5b610c578254610941565b610c62828285610ba2565b5f60209050601f831160018114610c93575f8415610c81578287015190505b610c8b8582610c10565b865550610cf2565b601f198416610ca186610a8b565b5f5b82811015610cc857848901518255600182019150602085019450602081019050610ca3565b86831015610ce55784890151610ce1601f891682610bf4565b8355505b6001600288020188555050505b505050505050565b7f416c726561647920766f746564000000000000000000000000000000000000005f82015250565b5f610d2e600d836107ab565b9150610d3982610cfa565b602082019050919050565b5f6020820190508181035f830152610d5b81610d22565b9050919050565b7f4e487b71000000000000000000000000000000000000000000000000000000005f52601160045260245ffd5b5f610d998261071b565b9150610da48361071b565b9250828201905080821115610dbc57610dbb610d62565b5b9291505056fea2646970667358221220089593112511cc3b42c4502e1b1b4922bf9533ef24379024f8ddb8ba9afe0b0764736f6c634300081e0033",
					"opcodes": "PUSH1 0x80 PUSH1 0x40 MSTORE CALLVALUE DUP1 ISZERO PUSH1 0xE JUMPI PUSH0 PUSH0 REVERT JUMPDEST POP PUSH2 0xDF8 DUP1 PUSH2 0x1C PUSH0 CODECOPY PUSH0 RETURN INVALID PUSH1 0x80 PUSH1 0x40 MSTORE CALLVALUE DUP1 ISZERO PUSH2 0xF JUMPI PUSH0 PUSH0 REVERT JUMPDEST POP PUSH1 0x4 CALLDATASIZE LT PUSH2 0x4A JUMPI PUSH0 CALLDATALOAD PUSH1 0xE0 SHR DUP1 PUSH4 0x69953A7 EQ PUSH2 0x4E JUMPI DUP1 PUSH4 0x3477EE2E EQ PUSH2 0x7E JUMPI DUP1 PUSH4 0x462E91EC EQ PUSH2 0xAF JUMPI DUP1 PUSH4 0xFC36E15B EQ PUSH2 0xCB JUMPI JUMPDEST PUSH0 PUSH0 REVERT JUMPDEST PUSH2 0x68 PUSH1 0x4 DUP1 CALLDATASIZE SUB DUP2 ADD SWAP1 PUSH2 0x63 SWAP2 SWAP1 PUSH2 0x6D4 JUMP JUMPDEST PUSH2 0xE7 JUMP JUMPDEST PUSH1 0x40 MLOAD PUSH2 0x75 SWAP2 SWAP1 PUSH2 0x733 JUMP JUMPDEST PUSH1 0x40 MLOAD DUP1 SWAP2 SUB SWAP1 RETURN JUMPDEST PUSH2 0x98 PUSH1 0x4 DUP1 CALLDATASIZE SUB DUP2 ADD SWAP1 PUSH2 0x93 SWAP2 SWAP1 PUSH2 0x776 JUMP JUMPDEST PUSH2 0x1E8 JUMP JUMPDEST PUSH1 0x40 MLOAD PUSH2 0xA6 SWAP3 SWAP2 SWAP1 PUSH2 0x801 JUMP JUMPDEST PUSH1 0x40 MLOAD DUP1 SWAP2 SUB SWAP1 RETURN JUMPDEST PUSH2 0xC9 PUSH1 0x4 DUP1 CALLDATASIZE SUB DUP2 ADD SWAP1 PUSH2 0xC4 SWAP2 SWAP1 PUSH2 0x6D4 JUMP JUMPDEST PUSH2 0x29C JUMP JUMPDEST STOP JUMPDEST PUSH2 0xE5 PUSH1 0x4 DUP1 CALLDATASIZE SUB DUP2 ADD SWAP1 PUSH2 0xE0 SWAP2 SWAP1 PUSH2 0x6D4 JUMP JUMPDEST PUSH2 0x39B JUMP JUMPDEST STOP JUMPDEST PUSH0 PUSH1 0x1 DUP3 PUSH1 0x40 MLOAD PUSH2 0xF8 SWAP2 SWAP1 PUSH2 0x869 JUMP JUMPDEST SWAP1 DUP2 MSTORE PUSH1 0x20 ADD PUSH1 0x40 MLOAD DUP1 SWAP2 SUB SWAP1 KECCAK256 PUSH0 SWAP1 SLOAD SWAP1 PUSH2 0x100 EXP SWAP1 DIV PUSH1 0xFF AND PUSH2 0x152 JUMPI PUSH1 0x40 MLOAD PUSH32 0x8C379A000000000000000000000000000000000000000000000000000000000 DUP2 MSTORE PUSH1 0x4 ADD PUSH2 0x149 SWAP1 PUSH2 0x8C9 JUMP JUMPDEST PUSH1 0x40 MLOAD DUP1 SWAP2 SUB SWAP1 REVERT JUMPDEST PUSH0 PUSH0 SWAP1 POP JUMPDEST PUSH0 DUP1 SLOAD SWAP1 POP DUP2 LT ISZERO PUSH2 0x1DE JUMPI DUP3 DUP1 MLOAD SWAP1 PUSH1 0x20 ADD KECCAK256 PUSH0 DUP3 DUP2 SLOAD DUP2 LT PUSH2 0x17E JUMPI PUSH2 0x17D PUSH2 0x8E7 JUMP JUMPDEST JUMPDEST SWAP1 PUSH0 MSTORE PUSH1 0x20 PUSH0 KECCAK256 SWAP1 PUSH1 0x2 MUL ADD PUSH0 ADD PUSH1 0x40 MLOAD PUSH2 0x199 SWAP2 SWAP1 PUSH2 0xA0D JUMP JUMPDEST PUSH1 0x40 MLOAD DUP1 SWAP2 SUB SWAP1 KECCAK256 SUB PUSH2 0x1D1 JUMPI PUSH0 DUP2 DUP2 SLOAD DUP2 LT PUSH2 0x1B9 JUMPI PUSH2 0x1B8 PUSH2 0x8E7 JUMP JUMPDEST JUMPDEST SWAP1 PUSH0 MSTORE PUSH1 0x20 PUSH0 KECCAK256 SWAP1 PUSH1 0x2 MUL ADD PUSH1 0x1 ADD SLOAD SWAP2 POP POP PUSH2 0x1E3 JUMP JUMPDEST DUP1 DUP1 PUSH1 0x1 ADD SWAP2 POP POP PUSH2 0x157 JUMP JUMPDEST POP PUSH0 SWAP1 POP JUMPDEST SWAP2 SWAP1 POP JUMP JUMPDEST PUSH0 DUP2 DUP2 SLOAD DUP2 LT PUSH2 0x1F6 JUMPI PUSH0 DUP1 REVERT JUMPDEST SWAP1 PUSH0 MSTORE PUSH1 0x20 PUSH0 KECCAK256 SWAP1 PUSH1 0x2 MUL ADD PUSH0 SWAP2 POP SWAP1 POP DUP1 PUSH0 ADD DUP1 SLOAD PUSH2 0x215 SWAP1 PUSH2 0x941 JUMP JUMPDEST DUP1 PUSH1 0x1F ADD PUSH1 0x20 DUP1 SWAP2 DIV MUL PUSH1 0x20 ADD PUSH1 0x40 MLOAD SWAP1 DUP2 ADD PUSH1 0x40 MSTORE DUP1 SWAP3 SWAP2 SWAP1 DUP2 DUP2 MSTORE PUSH1 0x20 ADD DUP3 DUP1 SLOAD PUSH2 0x241 SWAP1 PUSH2 0x941 JUMP JUMPDEST DUP1 ISZERO PUSH2 0x28C JUMPI DUP1 PUSH1 0x1F LT PUSH2 0x263 JUMPI PUSH2 0x100 DUP1 DUP4 SLOAD DIV MUL DUP4 MSTORE SWAP2 PUSH1 0x20 ADD SWAP2 PUSH2 0x28C JUMP JUMPDEST DUP3 ADD SWAP2 SWAP1 PUSH0 MSTORE PUSH1 0x20 PUSH0 KECCAK256 SWAP1 JUMPDEST DUP2 SLOAD DUP2 MSTORE SWAP1 PUSH1 0x1 ADD SWAP1 PUSH1 0x20 ADD DUP1 DUP4 GT PUSH2 0x26F JUMPI DUP3 SWAP1 SUB PUSH1 0x1F AND DUP3 ADD SWAP2 JUMPDEST POP POP POP POP POP SWAP1 DUP1 PUSH1 0x1 ADD SLOAD SWAP1 POP DUP3 JUMP JUMPDEST PUSH1 0x1 DUP2 PUSH1 0x40 MLOAD PUSH2 0x2AC SWAP2 SWAP1 PUSH2 0x869 JUMP JUMPDEST SWAP1 DUP2 MSTORE PUSH1 0x20 ADD PUSH1 0x40 MLOAD DUP1 SWAP2 SUB SWAP1 KECCAK256 PUSH0 SWAP1 SLOAD SWAP1 PUSH2 0x100 EXP SWAP1 DIV PUSH1 0xFF AND ISZERO PUSH2 0x307 JUMPI PUSH1 0x40 MLOAD PUSH32 0x8C379A000000000000000000000000000000000000000000000000000000000 DUP2 MSTORE PUSH1 0x4 ADD PUSH2 0x2FE SWAP1 PUSH2 0xA6D JUMP JUMPDEST PUSH1 0x40 MLOAD DUP1 SWAP2 SUB SWAP1 REVERT JUMPDEST PUSH0 PUSH1 0x40 MLOAD DUP1 PUSH1 0x40 ADD PUSH1 0x40 MSTORE DUP1 DUP4 DUP2 MSTORE PUSH1 0x20 ADD PUSH0 DUP2 MSTORE POP SWAP1 DUP1 PUSH1 0x1 DUP2 SLOAD ADD DUP1 DUP3 SSTORE DUP1 SWAP2 POP POP PUSH1 0x1 SWAP1 SUB SWAP1 PUSH0 MSTORE PUSH1 0x20 PUSH0 KECCAK256 SWAP1 PUSH1 0x2 MUL ADD PUSH0 SWAP1 SWAP2 SWAP1 SWAP2 SWAP1 SWAP2 POP PUSH0 DUP3 ADD MLOAD DUP2 PUSH0 ADD SWAP1 DUP2 PUSH2 0x356 SWAP2 SWAP1 PUSH2 0xC2B JUMP JUMPDEST POP PUSH1 0x20 DUP3 ADD MLOAD DUP2 PUSH1 0x1 ADD SSTORE POP POP PUSH1 0x1 DUP1 DUP3 PUSH1 0x40 MLOAD PUSH2 0x374 SWAP2 SWAP1 PUSH2 0x869 JUMP JUMPDEST SWAP1 DUP2 MSTORE PUSH1 0x20 ADD PUSH1 0x40 MLOAD DUP1 SWAP2 SUB SWAP1 KECCAK256 PUSH0 PUSH2 0x100 EXP DUP2 SLOAD DUP2 PUSH1 0xFF MUL NOT AND SWAP1 DUP4 ISZERO ISZERO MUL OR SWAP1 SSTORE POP POP JUMP JUMPDEST PUSH1 0x2 PUSH0 CALLER PUSH20 0xFFFFFFFFFFFFFFFFFFFFFFFFFFFFFFFFFFFFFFFF AND PUSH20 0xFFFFFFFFFFFFFFFFFFFFFFFFFFFFFFFFFFFFFFFF AND DUP2 MSTORE PUSH1 0x20 ADD SWAP1 DUP2 MSTORE PUSH1 0x20 ADD PUSH0 KECCAK256 PUSH0 SWAP1 SLOAD SWAP1 PUSH2 0x100 EXP SWAP1 DIV PUSH1 0xFF AND ISZERO PUSH2 0x425 JUMPI PUSH1 0x40 MLOAD PUSH32 0x8C379A000000000000000000000000000000000000000000000000000000000 DUP2 MSTORE PUSH1 0x4 ADD PUSH2 0x41C SWAP1 PUSH2 0xD44 JUMP JUMPDEST PUSH1 0x40 MLOAD DUP1 SWAP2 SUB SWAP1 REVERT JUMPDEST PUSH1 0x1 DUP2 PUSH1 0x40 MLOAD PUSH2 0x435 SWAP2 SWAP1 PUSH2 0x869 JUMP JUMPDEST SWAP1 DUP2 MSTORE PUSH1 0x20 ADD PUSH1 0x40 MLOAD DUP1 SWAP2 SUB SWAP1 KECCAK256 PUSH0 SWAP1 SLOAD SWAP1 PUSH2 0x100 EXP SWAP1 DIV PUSH1 0xFF AND PUSH2 0x48F JUMPI PUSH1 0x40 MLOAD PUSH32 0x8C379A000000000000000000000000000000000000000000000000000000000 DUP2 MSTORE PUSH1 0x4 ADD PUSH2 0x486 SWAP1 PUSH2 0x8C9 JUMP JUMPDEST PUSH1 0x40 MLOAD DUP1 SWAP2 SUB SWAP1 REVERT JUMPDEST PUSH0 PUSH0 SWAP1 POP JUMPDEST PUSH0 DUP1 SLOAD SWAP1 POP DUP2 LT ISZERO PUSH2 0x52E JUMPI DUP2 DUP1 MLOAD SWAP1 PUSH1 0x20 ADD KECCAK256 PUSH0 DUP3 DUP2 SLOAD DUP2 LT PUSH2 0x4BB JUMPI PUSH2 0x4BA PUSH2 0x8E7 JUMP JUMPDEST JUMPDEST SWAP1 PUSH0 MSTORE PUSH1 0x20 PUSH0 KECCAK256 SWAP1 PUSH1 0x2 MUL ADD PUSH0 ADD PUSH1 0x40 MLOAD PUSH2 0x4D6 SWAP2 SWAP1 PUSH2 0xA0D JUMP JUMPDEST PUSH1 0x40 MLOAD DUP1 SWAP2 SUB SWAP1 KECCAK256 SUB PUSH2 0x521 JUMPI PUSH1 0x1 PUSH0 DUP3 DUP2 SLOAD DUP2 LT PUSH2 0x4F8 JUMPI PUSH2 0x4F7 PUSH2 0x8E7 JUMP JUMPDEST JUMPDEST SWAP1 PUSH0 MSTORE PUSH1 0x20 PUSH0 KECCAK256 SWAP1 PUSH1 0x2 MUL ADD PUSH1 0x1 ADD PUSH0 DUP3 DUP3 SLOAD PUSH2 0x515 SWAP2 SWAP1 PUSH2 0xD8F JUMP JUMPDEST SWAP3 POP POP DUP2 SWAP1 SSTORE POP PUSH2 0x52E JUMP JUMPDEST DUP1 DUP1 PUSH1 0x1 ADD SWAP2 POP POP PUSH2 0x494 JUMP JUMPDEST POP PUSH1 0x1 PUSH1 0x2 PUSH0 CALLER PUSH20 0xFFFFFFFFFFFFFFFFFFFFFFFFFFFFFFFFFFFFFFFF AND PUSH20 0xFFFFFFFFFFFFFFFFFFFFFFFFFFFFFFFFFFFFFFFF AND DUP2 MSTORE PUSH1 0x20 ADD SWAP1 DUP2 MSTORE PUSH1 0x20 ADD PUSH0 KECCAK256 PUSH0 PUSH2 0x100 EXP DUP2 SLOAD DUP2 PUSH1 0xFF MUL NOT AND SWAP1 DUP4 ISZERO ISZERO MUL OR SWAP1 SSTORE POP POP JUMP JUMPDEST PUSH0 PUSH1 0x40 MLOAD SWAP1 POP SWAP1 JUMP JUMPDEST PUSH0 PUSH0 REVERT JUMPDEST PUSH0 PUSH0 REVERT JUMPDEST PUSH0 PUSH0 REVERT JUMPDEST PUSH0 PUSH0 REVERT JUMPDEST PUSH0 PUSH1 0x1F NOT PUSH1 0x1F DUP4 ADD AND SWAP1 POP SWAP2 SWAP1 POP JUMP JUMPDEST PUSH32 0x4E487B7100000000000000000000000000000000000000000000000000000000 PUSH0 MSTORE PUSH1 0x41 PUSH1 0x4 MSTORE PUSH1 0x24 PUSH0 REVERT JUMPDEST PUSH2 0x5E6 DUP3 PUSH2 0x5A0 JUMP JUMPDEST DUP2 ADD DUP2 DUP2 LT PUSH8 0xFFFFFFFFFFFFFFFF DUP3 GT OR ISZERO PUSH2 0x605 JUMPI PUSH2 0x604 PUSH2 0x5B0 JUMP JUMPDEST JUMPDEST DUP1 PUSH1 0x40 MSTORE POP POP POP JUMP JUMPDEST PUSH0 PUSH2 0x617 PUSH2 0x587 JUMP JUMPDEST SWAP1 POP PUSH2 0x623 DUP3 DUP3 PUSH2 0x5DD JUMP JUMPDEST SWAP2 SWAP1 POP JUMP JUMPDEST PUSH0 PUSH8 0xFFFFFFFFFFFFFFFF DUP3 GT ISZERO PUSH2 0x642 JUMPI PUSH2 0x641 PUSH2 0x5B0 JUMP JUMPDEST JUMPDEST PUSH2 0x64B DUP3 PUSH2 0x5A0 JUMP JUMPDEST SWAP1 POP PUSH1 0x20 DUP2 ADD SWAP1 POP SWAP2 SWAP1 POP JUMP JUMPDEST DUP3 DUP2 DUP4 CALLDATACOPY PUSH0 DUP4 DUP4 ADD MSTORE POP POP POP JUMP JUMPDEST PUSH0 PUSH2 0x678 PUSH2 0x673 DUP5 PUSH2 0x628 JUMP JUMPDEST PUSH2 0x60E JUMP JUMPDEST SWAP1 POP DUP3 DUP2 MSTORE PUSH1 0x20 DUP2 ADD DUP5 DUP5 DUP5 ADD GT ISZERO PUSH2 0x694 JUMPI PUSH2 0x693 PUSH2 0x59C JUMP JUMPDEST JUMPDEST PUSH2 0x69F DUP5 DUP3 DUP6 PUSH2 0x658 JUMP JUMPDEST POP SWAP4 SWAP3 POP POP POP JUMP JUMPDEST PUSH0 DUP3 PUSH1 0x1F DUP4 ADD SLT PUSH2 0x6BB JUMPI PUSH2 0x6BA PUSH2 0x598 JUMP JUMPDEST JUMPDEST DUP2 CALLDATALOAD PUSH2 0x6CB DUP5 DUP3 PUSH1 0x20 DUP7 ADD PUSH2 0x666 JUMP JUMPDEST SWAP2 POP POP SWAP3 SWAP2 POP POP JUMP JUMPDEST PUSH0 PUSH1 0x20 DUP3 DUP5 SUB SLT ISZERO PUSH2 0x6E9 JUMPI PUSH2 0x6E8 PUSH2 0x590 JUMP JUMPDEST JUMPDEST PUSH0 DUP3 ADD CALLDATALOAD PUSH8 0xFFFFFFFFFFFFFFFF DUP2 GT ISZERO PUSH2 0x706 JUMPI PUSH2 0x705 PUSH2 0x594 JUMP JUMPDEST JUMPDEST PUSH2 0x712 DUP5 DUP3 DUP6 ADD PUSH2 0x6A7 JUMP JUMPDEST SWAP2 POP POP SWAP3 SWAP2 POP POP JUMP JUMPDEST PUSH0 DUP2 SWAP1 POP SWAP2 SWAP1 POP JUMP JUMPDEST PUSH2 0x72D DUP2 PUSH2 0x71B JUMP JUMPDEST DUP3 MSTORE POP POP JUMP JUMPDEST PUSH0 PUSH1 0x20 DUP3 ADD SWAP1 POP PUSH2 0x746 PUSH0 DUP4 ADD DUP5 PUSH2 0x724 JUMP JUMPDEST SWAP3 SWAP2 POP POP JUMP JUMPDEST PUSH2 0x755 DUP2 PUSH2 0x71B JUMP JUMPDEST DUP2 EQ PUSH2 0x75F JUMPI PUSH0 PUSH0 REVERT JUMPDEST POP JUMP JUMPDEST PUSH0 DUP2 CALLDATALOAD SWAP1 POP PUSH2 0x770 DUP2 PUSH2 0x74C JUMP JUMPDEST SWAP3 SWAP2 POP POP JUMP JUMPDEST PUSH0 PUSH1 0x20 DUP3 DUP5 SUB SLT ISZERO PUSH2 0x78B JUMPI PUSH2 0x78A PUSH2 0x590 JUMP JUMPDEST JUMPDEST PUSH0 PUSH2 0x798 DUP5 DUP3 DUP6 ADD PUSH2 0x762 JUMP JUMPDEST SWAP2 POP POP SWAP3 SWAP2 POP POP JUMP JUMPDEST PUSH0 DUP2 MLOAD SWAP1 POP SWAP2 SWAP1 POP JUMP JUMPDEST PUSH0 DUP3 DUP3 MSTORE PUSH1 0x20 DUP3 ADD SWAP1 POP SWAP3 SWAP2 POP POP JUMP JUMPDEST DUP3 DUP2 DUP4 MCOPY PUSH0 DUP4 DUP4 ADD MSTORE POP POP POP JUMP JUMPDEST PUSH0 PUSH2 0x7D3 DUP3 PUSH2 0x7A1 JUMP JUMPDEST PUSH2 0x7DD DUP2 DUP6 PUSH2 0x7AB JUMP JUMPDEST SWAP4 POP PUSH2 0x7ED DUP2 DUP6 PUSH1 0x20 DUP7 ADD PUSH2 0x7BB JUMP JUMPDEST PUSH2 0x7F6 DUP2 PUSH2 0x5A0 JUMP JUMPDEST DUP5 ADD SWAP2 POP POP SWAP3 SWAP2 POP POP JUMP JUMPDEST PUSH0 PUSH1 0x40 DUP3 ADD SWAP1 POP DUP2 DUP2 SUB PUSH0 DUP4 ADD MSTORE PUSH2 0x819 DUP2 DUP6 PUSH2 0x7C9 JUMP JUMPDEST SWAP1 POP PUSH2 0x828 PUSH1 0x20 DUP4 ADD DUP5 PUSH2 0x724 JUMP JUMPDEST SWAP4 SWAP3 POP POP POP JUMP JUMPDEST PUSH0 DUP2 SWAP1 POP SWAP3 SWAP2 POP POP JUMP JUMPDEST PUSH0 PUSH2 0x843 DUP3 PUSH2 0x7A1 JUMP JUMPDEST PUSH2 0x84D DUP2 DUP6 PUSH2 0x82F JUMP JUMPDEST SWAP4 POP PUSH2 0x85D DUP2 DUP6 PUSH1 0x20 DUP7 ADD PUSH2 0x7BB JUMP JUMPDEST DUP1 DUP5 ADD SWAP2 POP POP SWAP3 SWAP2 POP POP JUMP JUMPDEST PUSH0 PUSH2 0x874 DUP3 DUP5 PUSH2 0x839 JUMP JUMPDEST SWAP2 POP DUP2 SWAP1 POP SWAP3 SWAP2 POP POP JUMP JUMPDEST PUSH32 0x496E76616C69642063616E646964617465000000000000000000000000000000 PUSH0 DUP3 ADD MSTORE POP JUMP JUMPDEST PUSH0 PUSH2 0x8B3 PUSH1 0x11 DUP4 PUSH2 0x7AB JUMP JUMPDEST SWAP2 POP PUSH2 0x8BE DUP3 PUSH2 0x87F JUMP JUMPDEST PUSH1 0x20 DUP3 ADD SWAP1 POP SWAP2 SWAP1 POP JUMP JUMPDEST PUSH0 PUSH1 0x20 DUP3 ADD SWAP1 POP DUP2 DUP2 SUB PUSH0 DUP4 ADD MSTORE PUSH2 0x8E0 DUP2 PUSH2 0x8A7 JUMP JUMPDEST SWAP1 POP SWAP2 SWAP1 POP JUMP JUMPDEST PUSH32 0x4E487B7100000000000000000000000000000000000000000000000000000000 PUSH0 MSTORE PUSH1 0x32 PUSH1 0x4 MSTORE PUSH1 0x24 PUSH0 REVERT JUMPDEST PUSH32 0x4E487B7100000000000000000000000000000000000000000000000000000000 PUSH0 MSTORE PUSH1 0x22 PUSH1 0x4 MSTORE PUSH1 0x24 PUSH0 REVERT JUMPDEST PUSH0 PUSH1 0x2 DUP3 DIV SWAP1 POP PUSH1 0x1 DUP3 AND DUP1 PUSH2 0x958 JUMPI PUSH1 0x7F DUP3 AND SWAP2 POP JUMPDEST PUSH1 0x20 DUP3 LT DUP2 SUB PUSH2 0x96B JUMPI PUSH2 0x96A PUSH2 0x914 JUMP JUMPDEST JUMPDEST POP SWAP2 SWAP1 POP JUMP JUMPDEST PUSH0 DUP2 SWAP1 POP SWAP3 SWAP2 POP POP JUMP JUMPDEST PUSH0 DUP2 SWAP1 POP DUP2 PUSH0 MSTORE PUSH1 0x20 PUSH0 KECCAK256 SWAP1 POP SWAP2 SWAP1 POP JUMP JUMPDEST PUSH0 DUP2 SLOAD PUSH2 0x999 DUP2 PUSH2 0x941 JUMP JUMPDEST PUSH2 0x9A3 DUP2 DUP7 PUSH2 0x971 JUMP JUMPDEST SWAP5 POP PUSH1 0x1 DUP3 AND PUSH0 DUP2 EQ PUSH2 0x9BD JUMPI PUSH1 0x1 DUP2 EQ PUSH2 0x9D2 JUMPI PUSH2 0xA04 JUMP JUMPDEST PUSH1 0xFF NOT DUP4 AND DUP7 MSTORE DUP2 ISZERO ISZERO DUP3 MUL DUP7 ADD SWAP4 POP PUSH2 0xA04 JUMP JUMPDEST PUSH2 0x9DB DUP6 PUSH2 0x97B JUMP JUMPDEST PUSH0 JUMPDEST DUP4 DUP2 LT ISZERO PUSH2 0x9FC JUMPI DUP2 SLOAD DUP2 DUP10 ADD MSTORE PUSH1 0x1 DUP3 ADD SWAP2 POP PUSH1 0x20 DUP2 ADD SWAP1 POP PUSH2 0x9DD JUMP JUMPDEST DUP4 DUP9 ADD SWAP6 POP POP POP JUMPDEST POP POP POP SWAP3 SWAP2 POP POP JUMP JUMPDEST PUSH0 PUSH2 0xA18 DUP3 DUP5 PUSH2 0x98D JUMP JUMPDEST SWAP2 POP DUP2 SWAP1 POP SWAP3 SWAP2 POP POP JUMP JUMPDEST PUSH32 0x43616E64696461746520616C7265616479206578697374730000000000000000 PUSH0 DUP3 ADD MSTORE POP JUMP JUMPDEST PUSH0 PUSH2 0xA57 PUSH1 0x18 DUP4 PUSH2 0x7AB JUMP JUMPDEST SWAP2 POP PUSH2 0xA62 DUP3 PUSH2 0xA23 JUMP JUMPDEST PUSH1 0x20 DUP3 ADD SWAP1 POP SWAP2 SWAP1 POP JUMP JUMPDEST PUSH0 PUSH1 0x20 DUP3 ADD SWAP1 POP DUP2 DUP2 SUB PUSH0 DUP4 ADD MSTORE PUSH2 0xA84 DUP2 PUSH2 0xA4B JUMP JUMPDEST SWAP1 POP SWAP2 SWAP1 POP JUMP JUMPDEST PUSH0 DUP2 SWAP1 POP DUP2 PUSH0 MSTORE PUSH1 0x20 PUSH0 KECCAK256 SWAP1 POP SWAP2 SWAP1 POP JUMP JUMPDEST PUSH0 PUSH1 0x20 PUSH1 0x1F DUP4 ADD DIV SWAP1 POP SWAP2 SWAP1 POP JUMP JUMPDEST PUSH0 DUP3 DUP3 SHL SWAP1 POP SWAP3 SWAP2 POP POP JUMP JUMPDEST PUSH0 PUSH1 0x8 DUP4 MUL PUSH2 0xAE7 PUSH32 0xFFFFFFFFFFFFFFFFFFFFFFFFFFFFFFFFFFFFFFFFFFFFFFFFFFFFFFFFFFFFFFFF DUP3 PUSH2 0xAAC JUMP JUMPDEST PUSH2 0xAF1 DUP7 DUP4 PUSH2 0xAAC JUMP JUMPDEST SWAP6 POP DUP1 NOT DUP5 AND SWAP4 POP DUP1 DUP7 AND DUP5 OR SWAP3 POP POP POP SWAP4 SWAP3 POP POP POP JUMP JUMPDEST PUSH0 DUP2 SWAP1 POP SWAP2 SWAP1 POP JUMP JUMPDEST PUSH0 PUSH2 0xB2C PUSH2 0xB27 PUSH2 0xB22 DUP5 PUSH2 0x71B JUMP JUMPDEST PUSH2 0xB09 JUMP JUMPDEST PUSH2 0x71B JUMP JUMPDEST SWAP1 POP SWAP2 SWAP1 POP JUMP JUMPDEST PUSH0 DUP2 SWAP1 POP SWAP2 SWAP1 POP JUMP JUMPDEST PUSH2 0xB45 DUP4 PUSH2 0xB12 JUMP JUMPDEST PUSH2 0xB59 PUSH2 0xB51 DUP3 PUSH2 0xB33 JUMP JUMPDEST DUP5 DUP5 SLOAD PUSH2 0xAB8 JUMP JUMPDEST DUP3 SSTORE POP POP POP POP JUMP JUMPDEST PUSH0 PUSH0 SWAP1 POP SWAP1 JUMP JUMPDEST PUSH2 0xB70 PUSH2 0xB61 JUMP JUMPDEST PUSH2 0xB7B DUP2 DUP5 DUP5 PUSH2 0xB3C JUMP JUMPDEST POP POP POP JUMP JUMPDEST JUMPDEST DUP2 DUP2 LT ISZERO PUSH2 0xB9E JUMPI PUSH2 0xB93 PUSH0 DUP3 PUSH2 0xB68 JUMP JUMPDEST PUSH1 0x1 DUP2 ADD SWAP1 POP PUSH2 0xB81 JUMP JUMPDEST POP POP JUMP JUMPDEST PUSH1 0x1F DUP3 GT ISZERO PUSH2 0xBE3 JUMPI PUSH2 0xBB4 DUP2 PUSH2 0xA8B JUMP JUMPDEST PUSH2 0xBBD DUP5 PUSH2 0xA9D JUMP JUMPDEST DUP2 ADD PUSH1 0x20 DUP6 LT ISZERO PUSH2 0xBCC JUMPI DUP2 SWAP1 POP JUMPDEST PUSH2 0xBE0 PUSH2 0xBD8 DUP6 PUSH2 0xA9D JUMP JUMPDEST DUP4 ADD DUP3 PUSH2 0xB80 JUMP JUMPDEST POP POP JUMPDEST POP POP POP JUMP JUMPDEST PUSH0 DUP3 DUP3 SHR SWAP1 POP SWAP3 SWAP2 POP POP JUMP JUMPDEST PUSH0 PUSH2 0xC03 PUSH0 NOT DUP5 PUSH1 0x8 MUL PUSH2 0xBE8 JUMP JUMPDEST NOT DUP1 DUP4 AND SWAP2 POP POP SWAP3 SWAP2 POP POP JUMP JUMPDEST PUSH0 PUSH2 0xC1B DUP4 DUP4 PUSH2 0xBF4 JUMP JUMPDEST SWAP2 POP DUP3 PUSH1 0x2 MUL DUP3 OR SWAP1 POP SWAP3 SWAP2 POP POP JUMP JUMPDEST PUSH2 0xC34 DUP3 PUSH2 0x7A1 JUMP JUMPDEST PUSH8 0xFFFFFFFFFFFFFFFF DUP2 GT ISZERO PUSH2 0xC4D JUMPI PUSH2 0xC4C PUSH2 0x5B0 JUMP JUMPDEST JUMPDEST PUSH2 0xC57 DUP3 SLOAD PUSH2 0x941 JUMP JUMPDEST PUSH2 0xC62 DUP3 DUP3 DUP6 PUSH2 0xBA2 JUMP JUMPDEST PUSH0 PUSH1 0x20 SWAP1 POP PUSH1 0x1F DUP4 GT PUSH1 0x1 DUP2 EQ PUSH2 0xC93 JUMPI PUSH0 DUP5 ISZERO PUSH2 0xC81 JUMPI DUP3 DUP8 ADD MLOAD SWAP1 POP JUMPDEST PUSH2 0xC8B DUP6 DUP3 PUSH2 0xC10 JUMP JUMPDEST DUP7 SSTORE POP PUSH2 0xCF2 JUMP JUMPDEST PUSH1 0x1F NOT DUP5 AND PUSH2 0xCA1 DUP7 PUSH2 0xA8B JUMP JUMPDEST PUSH0 JUMPDEST DUP3 DUP2 LT ISZERO PUSH2 0xCC8 JUMPI DUP5 DUP10 ADD MLOAD DUP3 SSTORE PUSH1 0x1 DUP3 ADD SWAP2 POP PUSH1 0x20 DUP6 ADD SWAP5 POP PUSH1 0x20 DUP2 ADD SWAP1 POP PUSH2 0xCA3 JUMP JUMPDEST DUP7 DUP4 LT ISZERO PUSH2 0xCE5 JUMPI DUP5 DUP10 ADD MLOAD PUSH2 0xCE1 PUSH1 0x1F DUP10 AND DUP3 PUSH2 0xBF4 JUMP JUMPDEST DUP4 SSTORE POP JUMPDEST PUSH1 0x1 PUSH1 0x2 DUP9 MUL ADD DUP9 SSTORE POP POP POP JUMPDEST POP POP POP POP POP POP JUMP JUMPDEST PUSH32 0x416C726561647920766F74656400000000000000000000000000000000000000 PUSH0 DUP3 ADD MSTORE POP JUMP JUMPDEST PUSH0 PUSH2 0xD2E PUSH1 0xD DUP4 PUSH2 0x7AB JUMP JUMPDEST SWAP2 POP PUSH2 0xD39 DUP3 PUSH2 0xCFA JUMP JUMPDEST PUSH1 0x20 DUP3 ADD SWAP1 POP SWAP2 SWAP1 POP JUMP JUMPDEST PUSH0 PUSH1 0x20 DUP3 ADD SWAP1 POP DUP2 DUP2 SUB PUSH0 DUP4 ADD MSTORE PUSH2 0xD5B DUP2 PUSH2 0xD22 JUMP JUMPDEST SWAP1 POP SWAP2 SWAP1 POP JUMP JUMPDEST PUSH32 0x4E487B7100000000000000000000000000000000000000000000000000000000 PUSH0 MSTORE PUSH1 0x11 PUSH1 0x4 MSTORE PUSH1 0x24 PUSH0 REVERT JUMPDEST PUSH0 PUSH2 0xD99 DUP3 PUSH2 0x71B JUMP JUMPDEST SWAP2 POP PUSH2 0xDA4 DUP4 PUSH2 0x71B JUMP JUMPDEST SWAP3 POP DUP3 DUP3 ADD SWAP1 POP DUP1 DUP3 GT ISZERO PUSH2 0xDBC JUMPI PUSH2 0xDBB PUSH2 0xD62 JUMP JUMPDEST JUMPDEST SWAP3 SWAP2 POP POP JUMP INVALID LOG2 PUSH5 0x6970667358 0x22 SLT KECCAK256 ADDMOD SWAP6 SWAP4 GT 0x25 GT 0xCC EXTCODESIZE TIMESTAMP 0xC4 POP 0x2E SHL SHL BLOBHASH 0x22 0xBF SWAP6 CALLER 0xEF 0x24 CALLDATACOPY SWAP1 0x24 EXTCALL 0xDD 0xB8 0xBA SWAP11 INVALID SIGNEXTEND SMOD PUSH5 0x736F6C6343 STOP ADDMOD 0x1E STOP CALLER "
				},
				"gasEstimates": {
					"creation": {
						"codeDepositCost": "715200",
						"executionCost": "745",
						"totalCost": "715945"
					},
					"external": {
						"addCandidate(string)": "infinite",
						"candidates(uint256)": "infinite",
						"getVoteCount(string)": "infinite",
						"vote(string)": "infinite"
					}
				},
				"methodIdentifiers": {
					"addCandidate(string)": "462e91ec",
					"candidates(uint256)": "3477ee2e",
					"getVoteCount(string)": "069953a7",
					"vote(string)": "fc36e15b"
				}
			},
			"storageLayout": {
				"storage": [
					{
						"astId": 10,
						"contract": "submissions/Vickywu/Day3pollstation.sol:PollStation",
						"label": "candidates",
						"offset": 0,
						"slot": "0",
						"type": "t_array(t_struct(Candidate)6_storage)dyn_storage"
					},
					{
						"astId": 14,
						"contract": "submissions/Vickywu/Day3pollstation.sol:PollStation",
						"label": "candidateExists",
						"offset": 0,
						"slot": "1",
						"type": "t_mapping(t_string_memory_ptr,t_bool)"
					},
					{
						"astId": 18,
						"contract": "submissions/Vickywu/Day3pollstation.sol:PollStation",
						"label": "hasVoted",
						"offset": 0,
						"slot": "2",
						"type": "t_mapping(t_address,t_bool)"
					}
				],
				"types": {
					"t_address": {
						"encoding": "inplace",
						"label": "address",
						"numberOfBytes": "20"
					},
					"t_array(t_struct(Candidate)6_storage)dyn_storage": {
						"base": "t_struct(Candidate)6_storage",
						"encoding": "dynamic_array",
						"label": "struct PollStation.Candidate[]",
						"numberOfBytes": "32"
					},
					"t_bool": {
						"encoding": "inplace",
						"label": "bool",
						"numberOfBytes": "1"
					},
					"t_mapping(t_address,t_bool)": {
						"encoding": "mapping",
						"key": "t_address",
						"label": "mapping(address => bool)",
						"numberOfBytes": "32",
						"value": "t_bool"
					},
					"t_mapping(t_string_memory_ptr,t_bool)": {
						"encoding": "mapping",
						"key": "t_string_memory_ptr",
						"label": "mapping(string => bool)",
						"numberOfBytes": "32",
						"value": "t_bool"
					},
					"t_string_memory_ptr": {
						"encoding": "bytes",
						"label": "string",
						"numberOfBytes": "32"
					},
					"t_string_storage": {
						"encoding": "bytes",
						"label": "string",
						"numberOfBytes": "32"
					},
					"t_struct(Candidate)6_storage": {
						"encoding": "inplace",
						"label": "struct PollStation.Candidate",
						"members": [
							{
								"astId": 3,
								"contract": "submissions/Vickywu/Day3pollstation.sol:PollStation",
								"label": "name",
								"offset": 0,
								"slot": "0",
								"type": "t_string_storage"
							},
							{
								"astId": 5,
								"contract": "submissions/Vickywu/Day3pollstation.sol:PollStation",
								"label": "voteCount",
								"offset": 0,
								"slot": "1",
								"type": "t_uint256"
							}
						],
						"numberOfBytes": "64"
					},
					"t_uint256": {
						"encoding": "inplace",
						"label": "uint256",
						"numberOfBytes": "32"
					}
				}
			},
			"userdoc": {
				"kind": "user",
				"methods": {},
				"version": 1
			}
		}
	}
}