{
	"submissions/Vera/day9/Calculator.sol": {
		"Calculator": {
			"abi": [
				{
					"inputs": [],
					"stateMutability": "nonpayable",
					"type": "constructor"
				},
				{
					"inputs": [
						{
							"internalType": "uint256",
							"name": "a",
							"type": "uint256"
						},
						{
							"internalType": "uint256",
							"name": "b",
							"type": "uint256"
						}
					],
					"name": "add",
					"outputs": [
						{
							"internalType": "uint256",
							"name": "",
							"type": "uint256"
						}
					],
					"stateMutability": "pure",
					"type": "function"
				},
				{
					"inputs": [
						{
							"internalType": "uint256",
							"name": "a",
							"type": "uint256"
						},
						{
							"internalType": "uint256",
							"name": "b",
							"type": "uint256"
						}
					],
					"name": "divide",
					"outputs": [
						{
							"internalType": "uint256",
							"name": "",
							"type": "uint256"
						}
					],
					"stateMutability": "pure",
					"type": "function"
				},
				{
					"inputs": [
						{
							"internalType": "uint256",
							"name": "a",
							"type": "uint256"
						},
						{
							"internalType": "uint256",
							"name": "b",
							"type": "uint256"
						}
					],
					"name": "multiply",
					"outputs": [
						{
							"internalType": "uint256",
							"name": "",
							"type": "uint256"
						}
					],
					"stateMutability": "pure",
					"type": "function"
				},
				{
					"inputs": [
						{
							"internalType": "uint256",
							"name": "base",
							"type": "uint256"
						},
						{
							"internalType": "uint256",
							"name": "exponent",
							"type": "uint256"
						}
					],
					"name": "power",
					"outputs": [
						{
							"internalType": "uint256",
							"name": "",
							"type": "uint256"
						}
					],
					"stateMutability": "view",
					"type": "function"
				},
				{
					"inputs": [
						{
							"internalType": "address",
							"name": "_scientificCalculatorAddress",
							"type": "address"
						}
					],
					"name": "setScientificCalculatorAddress",
					"outputs": [],
					"stateMutability": "nonpayable",
					"type": "function"
				},
				{
					"inputs": [
						{
							"internalType": "uint256",
							"name": "a",
							"type": "uint256"
						},
						{
							"internalType": "uint256",
							"name": "b",
							"type": "uint256"
						}
					],
					"name": "subtract",
					"outputs": [
						{
							"internalType": "uint256",
							"name": "",
							"type": "uint256"
						}
					],
					"stateMutability": "pure",
					"type": "function"
				},
				{
					"inputs": [
						{
							"internalType": "uint256",
							"name": "number",
							"type": "uint256"
						}
					],
					"name": "suqareRoot",
					"outputs": [
						{
							"internalType": "uint256",
							"name": "",
							"type": "uint256"
						}
					],
					"stateMutability": "nonpayable",
					"type": "function"
				}
			],
			"devdoc": {
				"kind": "dev",
				"methods": {},
				"version": 1
			},
			"evm": {
				"assembly": "    /* \"submissions/Vera/day9/Calculator.sol\":102:1799  contract Calculator{... */\n  mstore(0x40, 0x80)\n    /* \"submissions/Vera/day9/Calculator.sol\":192:242  constructor(){... */\n  callvalue\n  dup1\n  iszero\n  tag_1\n  jumpi\n  revert(0x00, 0x00)\ntag_1:\n  pop\n    /* \"submissions/Vera/day9/Calculator.sol\":224:234  msg.sender */\n  caller\n    /* \"submissions/Vera/day9/Calculator.sol\":216:221  owner */\n  0x00\n  0x00\n    /* \"submissions/Vera/day9/Calculator.sol\":216:234  owner = msg.sender */\n  0x0100\n  exp\n  dup2\n  sload\n  dup2\n  0xffffffffffffffffffffffffffffffffffffffff\n  mul\n  not\n  and\n  swap1\n  dup4\n  0xffffffffffffffffffffffffffffffffffffffff\n  and\n  mul\n  or\n  swap1\n  sstore\n  pop\n    /* \"submissions/Vera/day9/Calculator.sol\":102:1799  contract Calculator{... */\n  dataSize(sub_0)\n  dup1\n  dataOffset(sub_0)\n  0x00\n  codecopy\n  0x00\n  return\nstop\n\nsub_0: assembly {\n        /* \"submissions/Vera/day9/Calculator.sol\":102:1799  contract Calculator{... */\n      mstore(0x40, 0x80)\n      callvalue\n      dup1\n      iszero\n      tag_1\n      jumpi\n      revert(0x00, 0x00)\n    tag_1:\n      pop\n      jumpi(tag_2, lt(calldatasize, 0x04))\n      shr(0xe0, calldataload(0x00))\n      dup1\n      0x45f2fca4\n      gt\n      tag_10\n      jumpi\n      dup1\n      0x45f2fca4\n      eq\n      tag_6\n      jumpi\n      dup1\n      0x771602f7\n      eq\n      tag_7\n      jumpi\n      dup1\n      0xc04f01fc\n      eq\n      tag_8\n      jumpi\n      dup1\n      0xf88e9fbf\n      eq\n      tag_9\n      jumpi\n      jump(tag_2)\n    tag_10:\n      dup1\n      0x165c4a16\n      eq\n      tag_3\n      jumpi\n      dup1\n      0x278ccfdb\n      eq\n      tag_4\n      jumpi\n      dup1\n      0x3ef5e445\n      eq\n      tag_5\n      jumpi\n    tag_2:\n      revert(0x00, 0x00)\n        /* \"submissions/Vera/day9/Calculator.sol\":839:937  function multiply(uint256 a,uint256 b)public pure returns (uint256){... */\n    tag_3:\n      tag_11\n      0x04\n      dup1\n      calldatasize\n      sub\n      dup2\n      add\n      swap1\n      tag_12\n      swap2\n      swap1\n      tag_13\n      jump\t// in\n    tag_12:\n      tag_14\n      jump\t// in\n    tag_11:\n      mload(0x40)\n      tag_15\n      swap2\n      swap1\n      tag_16\n      jump\t// in\n    tag_15:\n      mload(0x40)\n      dup1\n      swap2\n      sub\n      swap1\n      return\n        /* \"submissions/Vera/day9/Calculator.sol\":1341:1796  function suqareRoot(uint256 number)public returns (uint256){... */\n    tag_4:\n      tag_17\n      0x04\n      dup1\n      calldatasize\n      sub\n      dup2\n      add\n      swap1\n      tag_18\n      swap2\n      swap1\n      tag_19\n      jump\t// in\n    tag_18:\n      tag_20\n      jump\t// in\n    tag_17:\n      mload(0x40)\n      tag_21\n      swap2\n      swap1\n      tag_16\n      jump\t// in\n    tag_21:\n      mload(0x40)\n      dup1\n      swap2\n      sub\n      swap1\n      return\n        /* \"submissions/Vera/day9/Calculator.sol\":733:831  function subtract(uint256 a,uint256 b)public pure returns (uint256){... */\n    tag_5:\n      tag_22\n      0x04\n      dup1\n      calldatasize\n      sub\n      dup2\n      add\n      swap1\n      tag_23\n      swap2\n      swap1\n      tag_13\n      jump\t// in\n    tag_23:\n      tag_24\n      jump\t// in\n    tag_22:\n      mload(0x40)\n      tag_25\n      swap2\n      swap1\n      tag_16\n      jump\t// in\n    tag_25:\n      mload(0x40)\n      dup1\n      swap2\n      sub\n      swap1\n      return\n        /* \"submissions/Vera/day9/Calculator.sol\":374:624  function setScientificCalculatorAddress(address _scientificCalculatorAddress)public onlyOwner{... */\n    tag_6:\n      tag_26\n      0x04\n      dup1\n      calldatasize\n      sub\n      dup2\n      add\n      swap1\n      tag_27\n      swap2\n      swap1\n      tag_28\n      jump\t// in\n    tag_27:\n      tag_29\n      jump\t// in\n    tag_26:\n      stop\n        /* \"submissions/Vera/day9/Calculator.sol\":632:725  function add(uint256 a,uint256 b)public pure returns (uint256){... */\n    tag_7:\n      tag_30\n      0x04\n      dup1\n      calldatasize\n      sub\n      dup2\n      add\n      swap1\n      tag_31\n      swap2\n      swap1\n      tag_13\n      jump\t// in\n    tag_31:\n      tag_32\n      jump\t// in\n    tag_30:\n      mload(0x40)\n      tag_33\n      swap2\n      swap1\n      tag_16\n      jump\t// in\n    tag_33:\n      mload(0x40)\n      dup1\n      swap2\n      sub\n      swap1\n      return\n        /* \"submissions/Vera/day9/Calculator.sol\":1097:1333  function power(uint256 base,uint256 exponent)public view returns (uint256){... */\n    tag_8:\n      tag_34\n      0x04\n      dup1\n      calldatasize\n      sub\n      dup2\n      add\n      swap1\n      tag_35\n      swap2\n      swap1\n      tag_13\n      jump\t// in\n    tag_35:\n      tag_36\n      jump\t// in\n    tag_34:\n      mload(0x40)\n      tag_37\n      swap2\n      swap1\n      tag_16\n      jump\t// in\n    tag_37:\n      mload(0x40)\n      dup1\n      swap2\n      sub\n      swap1\n      return\n        /* \"submissions/Vera/day9/Calculator.sol\":945:1089  function divide(uint256 a,uint256 b)public pure returns (uint256){... */\n    tag_9:\n      tag_38\n      0x04\n      dup1\n      calldatasize\n      sub\n      dup2\n      add\n      swap1\n      tag_39\n      swap2\n      swap1\n      tag_13\n      jump\t// in\n    tag_39:\n      tag_40\n      jump\t// in\n    tag_38:\n      mload(0x40)\n      tag_41\n      swap2\n      swap1\n      tag_16\n      jump\t// in\n    tag_41:\n      mload(0x40)\n      dup1\n      swap2\n      sub\n      swap1\n      return\n        /* \"submissions/Vera/day9/Calculator.sol\":839:937  function multiply(uint256 a,uint256 b)public pure returns (uint256){... */\n    tag_14:\n        /* \"submissions/Vera/day9/Calculator.sol\":898:905  uint256 */\n      0x00\n        /* \"submissions/Vera/day9/Calculator.sol\":927:928  b */\n      dup2\n        /* \"submissions/Vera/day9/Calculator.sol\":925:926  a */\n      dup4\n        /* \"submissions/Vera/day9/Calculator.sol\":925:928  a*b */\n      tag_43\n      swap2\n      swap1\n      tag_44\n      jump\t// in\n    tag_43:\n        /* \"submissions/Vera/day9/Calculator.sol\":917:929  return (a*b) */\n      swap1\n      pop\n        /* \"submissions/Vera/day9/Calculator.sol\":839:937  function multiply(uint256 a,uint256 b)public pure returns (uint256){... */\n      swap3\n      swap2\n      pop\n      pop\n      jump\t// out\n        /* \"submissions/Vera/day9/Calculator.sol\":1341:1796  function suqareRoot(uint256 number)public returns (uint256){... */\n    tag_20:\n        /* \"submissions/Vera/day9/Calculator.sol\":1392:1399  uint256 */\n      0x00\n        /* \"submissions/Vera/day9/Calculator.sol\":1429:1430  0 */\n      0x00\n        /* \"submissions/Vera/day9/Calculator.sol\":1419:1425  number */\n      dup3\n        /* \"submissions/Vera/day9/Calculator.sol\":1419:1430  number >= 0 */\n      lt\n      iszero\n        /* \"submissions/Vera/day9/Calculator.sol\":1411:1482  require(number >= 0, \"Cannot calculate square root of negative number\") */\n      tag_46\n      jumpi\n      mload(0x40)\n      0x08c379a000000000000000000000000000000000000000000000000000000000\n      dup2\n      mstore\n      0x04\n      add\n      tag_47\n      swap1\n      tag_48\n      jump\t// in\n    tag_47:\n      mload(0x40)\n      dup1\n      swap2\n      sub\n      swap1\n      revert\n    tag_46:\n        /* \"submissions/Vera/day9/Calculator.sol\":1493:1510  bytes memory data */\n      0x00\n        /* \"submissions/Vera/day9/Calculator.sol\":1560:1566  number */\n      dup3\n        /* \"submissions/Vera/day9/Calculator.sol\":1513:1567  abi.encodeWithSignature(\"suqareRoot(uint256)\", number) */\n      add(0x24, mload(0x40))\n      tag_49\n      swap2\n      swap1\n      tag_16\n      jump\t// in\n    tag_49:\n      mload(0x40)\n      0x20\n      dup2\n      dup4\n      sub\n      sub\n      dup2\n      mstore\n      swap1\n      0x40\n      mstore\n      and(not(0xffffffffffffffffffffffffffffffffffffffffffffffffffffffff), 0x278ccfdb00000000000000000000000000000000000000000000000000000000)\n      0x20\n      dup3\n      add\n      dup1\n      mload\n      0xffffffffffffffffffffffffffffffffffffffffffffffffffffffff\n      dup4\n      dup2\n      dup4\n      and\n      or\n      dup4\n      mstore\n      pop\n      pop\n      pop\n      pop\n        /* \"submissions/Vera/day9/Calculator.sol\":1493:1567  bytes memory data = abi.encodeWithSignature(\"suqareRoot(uint256)\", number) */\n      swap1\n      pop\n        /* \"submissions/Vera/day9/Calculator.sol\":1579:1591  bool success */\n      0x00\n        /* \"submissions/Vera/day9/Calculator.sol\":1592:1611  bytes memory result */\n      0x00\n        /* \"submissions/Vera/day9/Calculator.sol\":1615:1642  scientificCalculatorAddress */\n      0x01\n      0x00\n      swap1\n      sload\n      swap1\n      0x0100\n      exp\n      swap1\n      div\n      0xffffffffffffffffffffffffffffffffffffffff\n      and\n        /* \"submissions/Vera/day9/Calculator.sol\":1615:1647  scientificCalculatorAddress.call */\n      0xffffffffffffffffffffffffffffffffffffffff\n      and\n        /* \"submissions/Vera/day9/Calculator.sol\":1648:1652  data */\n      dup4\n        /* \"submissions/Vera/day9/Calculator.sol\":1615:1653  scientificCalculatorAddress.call(data) */\n      mload(0x40)\n      tag_50\n      swap2\n      swap1\n      tag_51\n      jump\t// in\n    tag_50:\n      0x00\n      mload(0x40)\n      dup1\n      dup4\n      sub\n      dup2\n      0x00\n      dup7\n      gas\n      call\n      swap2\n      pop\n      pop\n      returndatasize\n      dup1\n      0x00\n      dup2\n      eq\n      tag_54\n      jumpi\n      mload(0x40)\n      swap2\n      pop\n      and(add(returndatasize, 0x3f), not(0x1f))\n      dup3\n      add\n      0x40\n      mstore\n      returndatasize\n      dup3\n      mstore\n      returndatasize\n      0x00\n      0x20\n      dup5\n      add\n      returndatacopy\n      jump(tag_53)\n    tag_54:\n      0x60\n      swap2\n      pop\n    tag_53:\n      pop\n        /* \"submissions/Vera/day9/Calculator.sol\":1578:1653  (bool success,bytes memory result) = scientificCalculatorAddress.call(data) */\n      swap2\n      pop\n      swap2\n      pop\n        /* \"submissions/Vera/day9/Calculator.sol\":1674:1681  success */\n      dup2\n        /* \"submissions/Vera/day9/Calculator.sol\":1666:1705  require(success,\"External call failed\") */\n      tag_55\n      jumpi\n      mload(0x40)\n      0x08c379a000000000000000000000000000000000000000000000000000000000\n      dup2\n      mstore\n      0x04\n      add\n      tag_56\n      swap1\n      tag_57\n      jump\t// in\n    tag_56:\n      mload(0x40)\n      dup1\n      swap2\n      sub\n      swap1\n      revert\n    tag_55:\n        /* \"submissions/Vera/day9/Calculator.sol\":1718:1730  uint256 root */\n      0x00\n        /* \"submissions/Vera/day9/Calculator.sol\":1744:1750  result */\n      dup2\n        /* \"submissions/Vera/day9/Calculator.sol\":1733:1762  abi.decode(result, (uint256)) */\n      dup1\n      0x20\n      add\n      swap1\n      mload\n      dup2\n      add\n      swap1\n      tag_58\n      swap2\n      swap1\n      tag_59\n      jump\t// in\n    tag_58:\n        /* \"submissions/Vera/day9/Calculator.sol\":1718:1762  uint256 root = abi.decode(result, (uint256)) */\n      swap1\n      pop\n        /* \"submissions/Vera/day9/Calculator.sol\":1783:1787  root */\n      dup1\n        /* \"submissions/Vera/day9/Calculator.sol\":1775:1788  return (root) */\n      swap5\n      pop\n      pop\n      pop\n      pop\n      pop\n        /* \"submissions/Vera/day9/Calculator.sol\":1341:1796  function suqareRoot(uint256 number)public returns (uint256){... */\n      swap2\n      swap1\n      pop\n      jump\t// out\n        /* \"submissions/Vera/day9/Calculator.sol\":733:831  function subtract(uint256 a,uint256 b)public pure returns (uint256){... */\n    tag_24:\n        /* \"submissions/Vera/day9/Calculator.sol\":792:799  uint256 */\n      0x00\n        /* \"submissions/Vera/day9/Calculator.sol\":821:822  b */\n      dup2\n        /* \"submissions/Vera/day9/Calculator.sol\":819:820  a */\n      dup4\n        /* \"submissions/Vera/day9/Calculator.sol\":819:822  a-b */\n      tag_61\n      swap2\n      swap1\n      tag_62\n      jump\t// in\n    tag_61:\n        /* \"submissions/Vera/day9/Calculator.sol\":811:823  return (a-b) */\n      swap1\n      pop\n        /* \"submissions/Vera/day9/Calculator.sol\":733:831  function subtract(uint256 a,uint256 b)public pure returns (uint256){... */\n      swap3\n      swap2\n      pop\n      pop\n      jump\t// out\n        /* \"submissions/Vera/day9/Calculator.sol\":374:624  function setScientificCalculatorAddress(address _scientificCalculatorAddress)public onlyOwner{... */\n    tag_29:\n        /* \"submissions/Vera/day9/Calculator.sol\":298:308  msg.sender */\n      caller\n        /* \"submissions/Vera/day9/Calculator.sol\":289:308  owner == msg.sender */\n      0xffffffffffffffffffffffffffffffffffffffff\n      and\n        /* \"submissions/Vera/day9/Calculator.sol\":289:294  owner */\n      0x00\n      0x00\n      swap1\n      sload\n      swap1\n      0x0100\n      exp\n      swap1\n      div\n      0xffffffffffffffffffffffffffffffffffffffff\n      and\n        /* \"submissions/Vera/day9/Calculator.sol\":289:308  owner == msg.sender */\n      0xffffffffffffffffffffffffffffffffffffffff\n      and\n      eq\n        /* \"submissions/Vera/day9/Calculator.sol\":281:346  require(owner == msg.sender,\"Only owner can perform this action\") */\n      tag_64\n      jumpi\n      mload(0x40)\n      0x08c379a000000000000000000000000000000000000000000000000000000000\n      dup2\n      mstore\n      0x04\n      add\n      tag_65\n      swap1\n      tag_66\n      jump\t// in\n    tag_65:\n      mload(0x40)\n      dup1\n      swap2\n      sub\n      swap1\n      revert\n    tag_64:\n        /* \"submissions/Vera/day9/Calculator.sol\":526:527  0 */\n      0x00\n        /* \"submissions/Vera/day9/Calculator.sol\":486:528  _scientificCalculatorAddress != address(0) */\n      0xffffffffffffffffffffffffffffffffffffffff\n      and\n        /* \"submissions/Vera/day9/Calculator.sol\":486:514  _scientificCalculatorAddress */\n      dup2\n        /* \"submissions/Vera/day9/Calculator.sol\":486:528  _scientificCalculatorAddress != address(0) */\n      0xffffffffffffffffffffffffffffffffffffffff\n      and\n      sub\n        /* \"submissions/Vera/day9/Calculator.sol\":478:547  require(_scientificCalculatorAddress != address(0),\"Invalid address\") */\n      tag_68\n      jumpi\n      mload(0x40)\n      0x08c379a000000000000000000000000000000000000000000000000000000000\n      dup2\n      mstore\n      0x04\n      add\n      tag_69\n      swap1\n      tag_70\n      jump\t// in\n    tag_69:\n      mload(0x40)\n      dup1\n      swap2\n      sub\n      swap1\n      revert\n    tag_68:\n        /* \"submissions/Vera/day9/Calculator.sol\":588:616  _scientificCalculatorAddress */\n      dup1\n        /* \"submissions/Vera/day9/Calculator.sol\":558:585  scientificCalculatorAddress */\n      0x01\n      0x00\n        /* \"submissions/Vera/day9/Calculator.sol\":558:616  scientificCalculatorAddress = _scientificCalculatorAddress */\n      0x0100\n      exp\n      dup2\n      sload\n      dup2\n      0xffffffffffffffffffffffffffffffffffffffff\n      mul\n      not\n      and\n      swap1\n      dup4\n      0xffffffffffffffffffffffffffffffffffffffff\n      and\n      mul\n      or\n      swap1\n      sstore\n      pop\n        /* \"submissions/Vera/day9/Calculator.sol\":374:624  function setScientificCalculatorAddress(address _scientificCalculatorAddress)public onlyOwner{... */\n      pop\n      jump\t// out\n        /* \"submissions/Vera/day9/Calculator.sol\":632:725  function add(uint256 a,uint256 b)public pure returns (uint256){... */\n    tag_32:\n        /* \"submissions/Vera/day9/Calculator.sol\":686:693  uint256 */\n      0x00\n        /* \"submissions/Vera/day9/Calculator.sol\":715:716  b */\n      dup2\n        /* \"submissions/Vera/day9/Calculator.sol\":713:714  a */\n      dup4\n        /* \"submissions/Vera/day9/Calculator.sol\":713:716  a+b */\n      tag_72\n      swap2\n      swap1\n      tag_73\n      jump\t// in\n    tag_72:\n        /* \"submissions/Vera/day9/Calculator.sol\":705:717  return (a+b) */\n      swap1\n      pop\n        /* \"submissions/Vera/day9/Calculator.sol\":632:725  function add(uint256 a,uint256 b)public pure returns (uint256){... */\n      swap3\n      swap2\n      pop\n      pop\n      jump\t// out\n        /* \"submissions/Vera/day9/Calculator.sol\":1097:1333  function power(uint256 base,uint256 exponent)public view returns (uint256){... */\n    tag_36:\n        /* \"submissions/Vera/day9/Calculator.sol\":1163:1170  uint256 */\n      0x00\n        /* \"submissions/Vera/day9/Calculator.sol\":1182:1217  ScientificCalculator scientificCalc */\n      0x00\n        /* \"submissions/Vera/day9/Calculator.sol\":1241:1268  scientificCalculatorAddress */\n      0x01\n      0x00\n      swap1\n      sload\n      swap1\n      0x0100\n      exp\n      swap1\n      div\n      0xffffffffffffffffffffffffffffffffffffffff\n      and\n        /* \"submissions/Vera/day9/Calculator.sol\":1182:1269  ScientificCalculator scientificCalc = ScientificCalculator(scientificCalculatorAddress) */\n      swap1\n      pop\n        /* \"submissions/Vera/day9/Calculator.sol\":1288:1302  scientificCalc */\n      dup1\n        /* \"submissions/Vera/day9/Calculator.sol\":1288:1308  scientificCalc.power */\n      0xffffffffffffffffffffffffffffffffffffffff\n      and\n      0xc04f01fc\n        /* \"submissions/Vera/day9/Calculator.sol\":1309:1313  base */\n      dup6\n        /* \"submissions/Vera/day9/Calculator.sol\":1315:1323  exponent */\n      dup6\n        /* \"submissions/Vera/day9/Calculator.sol\":1288:1324  scientificCalc.power(base, exponent) */\n      mload(0x40)\n      dup4\n      0xffffffff\n      and\n      0xe0\n      shl\n      dup2\n      mstore\n      0x04\n      add\n      tag_75\n      swap3\n      swap2\n      swap1\n      tag_76\n      jump\t// in\n    tag_75:\n      0x20\n      mload(0x40)\n      dup1\n      dup4\n      sub\n      dup2\n      dup7\n      gas\n      staticcall\n      iszero\n      dup1\n      iszero\n      tag_78\n      jumpi\n      returndatacopy(0x00, 0x00, returndatasize)\n      revert(0x00, returndatasize)\n    tag_78:\n      pop\n      pop\n      pop\n      pop\n      mload(0x40)\n      returndatasize\n      not(0x1f)\n      0x1f\n      dup3\n      add\n      and\n      dup3\n      add\n      dup1\n      0x40\n      mstore\n      pop\n      dup2\n      add\n      swap1\n      tag_79\n      swap2\n      swap1\n      tag_59\n      jump\t// in\n    tag_79:\n        /* \"submissions/Vera/day9/Calculator.sol\":1280:1325  return (scientificCalc.power(base, exponent)) */\n      swap2\n      pop\n      pop\n        /* \"submissions/Vera/day9/Calculator.sol\":1097:1333  function power(uint256 base,uint256 exponent)public view returns (uint256){... */\n      swap3\n      swap2\n      pop\n      pop\n      jump\t// out\n        /* \"submissions/Vera/day9/Calculator.sol\":945:1089  function divide(uint256 a,uint256 b)public pure returns (uint256){... */\n    tag_40:\n        /* \"submissions/Vera/day9/Calculator.sol\":1002:1009  uint256 */\n      0x00\n        /* \"submissions/Vera/day9/Calculator.sol\":1032:1033  0 */\n      0x00\n        /* \"submissions/Vera/day9/Calculator.sol\":1029:1030  b */\n      dup3\n        /* \"submissions/Vera/day9/Calculator.sol\":1029:1033  b!=0 */\n      sub\n        /* \"submissions/Vera/day9/Calculator.sol\":1021:1058  require(b!=0,\"Cannot divide by zero\") */\n      tag_81\n      jumpi\n      mload(0x40)\n      0x08c379a000000000000000000000000000000000000000000000000000000000\n      dup2\n      mstore\n      0x04\n      add\n      tag_82\n      swap1\n      tag_83\n      jump\t// in\n    tag_82:\n      mload(0x40)\n      dup1\n      swap2\n      sub\n      swap1\n      revert\n    tag_81:\n        /* \"submissions/Vera/day9/Calculator.sol\":1079:1080  b */\n      dup2\n        /* \"submissions/Vera/day9/Calculator.sol\":1077:1078  a */\n      dup4\n        /* \"submissions/Vera/day9/Calculator.sol\":1077:1080  a/b */\n      tag_84\n      swap2\n      swap1\n      tag_85\n      jump\t// in\n    tag_84:\n        /* \"submissions/Vera/day9/Calculator.sol\":1069:1081  return (a/b) */\n      swap1\n      pop\n        /* \"submissions/Vera/day9/Calculator.sol\":945:1089  function divide(uint256 a,uint256 b)public pure returns (uint256){... */\n      swap3\n      swap2\n      pop\n      pop\n      jump\t// out\n        /* \"#utility.yul\":88:205   */\n    tag_87:\n        /* \"#utility.yul\":197:198   */\n      0x00\n        /* \"#utility.yul\":194:195   */\n      0x00\n        /* \"#utility.yul\":187:199   */\n      revert\n        /* \"#utility.yul\":334:411   */\n    tag_89:\n        /* \"#utility.yul\":371:378   */\n      0x00\n        /* \"#utility.yul\":400:405   */\n      dup2\n        /* \"#utility.yul\":389:405   */\n      swap1\n      pop\n        /* \"#utility.yul\":334:411   */\n      swap2\n      swap1\n      pop\n      jump\t// out\n        /* \"#utility.yul\":417:539   */\n    tag_90:\n        /* \"#utility.yul\":490:514   */\n      tag_121\n        /* \"#utility.yul\":508:513   */\n      dup2\n        /* \"#utility.yul\":490:514   */\n      tag_89\n      jump\t// in\n    tag_121:\n        /* \"#utility.yul\":483:488   */\n      dup2\n        /* \"#utility.yul\":480:515   */\n      eq\n        /* \"#utility.yul\":470:533   */\n      tag_122\n      jumpi\n        /* \"#utility.yul\":529:530   */\n      0x00\n        /* \"#utility.yul\":526:527   */\n      0x00\n        /* \"#utility.yul\":519:531   */\n      revert\n        /* \"#utility.yul\":470:533   */\n    tag_122:\n        /* \"#utility.yul\":417:539   */\n      pop\n      jump\t// out\n        /* \"#utility.yul\":545:684   */\n    tag_91:\n        /* \"#utility.yul\":591:596   */\n      0x00\n        /* \"#utility.yul\":629:635   */\n      dup2\n        /* \"#utility.yul\":616:636   */\n      calldataload\n        /* \"#utility.yul\":607:636   */\n      swap1\n      pop\n        /* \"#utility.yul\":645:678   */\n      tag_124\n        /* \"#utility.yul\":672:677   */\n      dup2\n        /* \"#utility.yul\":645:678   */\n      tag_90\n      jump\t// in\n    tag_124:\n        /* \"#utility.yul\":545:684   */\n      swap3\n      swap2\n      pop\n      pop\n      jump\t// out\n        /* \"#utility.yul\":690:1164   */\n    tag_13:\n        /* \"#utility.yul\":758:764   */\n      0x00\n        /* \"#utility.yul\":766:772   */\n      0x00\n        /* \"#utility.yul\":815:817   */\n      0x40\n        /* \"#utility.yul\":803:812   */\n      dup4\n        /* \"#utility.yul\":794:801   */\n      dup6\n        /* \"#utility.yul\":790:813   */\n      sub\n        /* \"#utility.yul\":786:818   */\n      slt\n        /* \"#utility.yul\":783:902   */\n      iszero\n      tag_126\n      jumpi\n        /* \"#utility.yul\":821:900   */\n      tag_127\n      tag_87\n      jump\t// in\n    tag_127:\n        /* \"#utility.yul\":783:902   */\n    tag_126:\n        /* \"#utility.yul\":941:942   */\n      0x00\n        /* \"#utility.yul\":966:1019   */\n      tag_128\n        /* \"#utility.yul\":1011:1018   */\n      dup6\n        /* \"#utility.yul\":1002:1008   */\n      dup3\n        /* \"#utility.yul\":991:1000   */\n      dup7\n        /* \"#utility.yul\":987:1009   */\n      add\n        /* \"#utility.yul\":966:1019   */\n      tag_91\n      jump\t// in\n    tag_128:\n        /* \"#utility.yul\":956:1019   */\n      swap3\n      pop\n        /* \"#utility.yul\":912:1029   */\n      pop\n        /* \"#utility.yul\":1068:1070   */\n      0x20\n        /* \"#utility.yul\":1094:1147   */\n      tag_129\n        /* \"#utility.yul\":1139:1146   */\n      dup6\n        /* \"#utility.yul\":1130:1136   */\n      dup3\n        /* \"#utility.yul\":1119:1128   */\n      dup7\n        /* \"#utility.yul\":1115:1137   */\n      add\n        /* \"#utility.yul\":1094:1147   */\n      tag_91\n      jump\t// in\n    tag_129:\n        /* \"#utility.yul\":1084:1147   */\n      swap2\n      pop\n        /* \"#utility.yul\":1039:1157   */\n      pop\n        /* \"#utility.yul\":690:1164   */\n      swap3\n      pop\n      swap3\n      swap1\n      pop\n      jump\t// out\n        /* \"#utility.yul\":1170:1288   */\n    tag_92:\n        /* \"#utility.yul\":1257:1281   */\n      tag_131\n        /* \"#utility.yul\":1275:1280   */\n      dup2\n        /* \"#utility.yul\":1257:1281   */\n      tag_89\n      jump\t// in\n    tag_131:\n        /* \"#utility.yul\":1252:1255   */\n      dup3\n        /* \"#utility.yul\":1245:1282   */\n      mstore\n        /* \"#utility.yul\":1170:1288   */\n      pop\n      pop\n      jump\t// out\n        /* \"#utility.yul\":1294:1516   */\n    tag_16:\n        /* \"#utility.yul\":1387:1391   */\n      0x00\n        /* \"#utility.yul\":1425:1427   */\n      0x20\n        /* \"#utility.yul\":1414:1423   */\n      dup3\n        /* \"#utility.yul\":1410:1428   */\n      add\n        /* \"#utility.yul\":1402:1428   */\n      swap1\n      pop\n        /* \"#utility.yul\":1438:1509   */\n      tag_133\n        /* \"#utility.yul\":1506:1507   */\n      0x00\n        /* \"#utility.yul\":1495:1504   */\n      dup4\n        /* \"#utility.yul\":1491:1508   */\n      add\n        /* \"#utility.yul\":1482:1488   */\n      dup5\n        /* \"#utility.yul\":1438:1509   */\n      tag_92\n      jump\t// in\n    tag_133:\n        /* \"#utility.yul\":1294:1516   */\n      swap3\n      swap2\n      pop\n      pop\n      jump\t// out\n        /* \"#utility.yul\":1522:1851   */\n    tag_19:\n        /* \"#utility.yul\":1581:1587   */\n      0x00\n        /* \"#utility.yul\":1630:1632   */\n      0x20\n        /* \"#utility.yul\":1618:1627   */\n      dup3\n        /* \"#utility.yul\":1609:1616   */\n      dup5\n        /* \"#utility.yul\":1605:1628   */\n      sub\n        /* \"#utility.yul\":1601:1633   */\n      slt\n        /* \"#utility.yul\":1598:1717   */\n      iszero\n      tag_135\n      jumpi\n        /* \"#utility.yul\":1636:1715   */\n      tag_136\n      tag_87\n      jump\t// in\n    tag_136:\n        /* \"#utility.yul\":1598:1717   */\n    tag_135:\n        /* \"#utility.yul\":1756:1757   */\n      0x00\n        /* \"#utility.yul\":1781:1834   */\n      tag_137\n        /* \"#utility.yul\":1826:1833   */\n      dup5\n        /* \"#utility.yul\":1817:1823   */\n      dup3\n        /* \"#utility.yul\":1806:1815   */\n      dup6\n        /* \"#utility.yul\":1802:1824   */\n      add\n        /* \"#utility.yul\":1781:1834   */\n      tag_91\n      jump\t// in\n    tag_137:\n        /* \"#utility.yul\":1771:1834   */\n      swap2\n      pop\n        /* \"#utility.yul\":1727:1844   */\n      pop\n        /* \"#utility.yul\":1522:1851   */\n      swap3\n      swap2\n      pop\n      pop\n      jump\t// out\n        /* \"#utility.yul\":1857:1983   */\n    tag_93:\n        /* \"#utility.yul\":1894:1901   */\n      0x00\n        /* \"#utility.yul\":1934:1976   */\n      0xffffffffffffffffffffffffffffffffffffffff\n        /* \"#utility.yul\":1927:1932   */\n      dup3\n        /* \"#utility.yul\":1923:1977   */\n      and\n        /* \"#utility.yul\":1912:1977   */\n      swap1\n      pop\n        /* \"#utility.yul\":1857:1983   */\n      swap2\n      swap1\n      pop\n      jump\t// out\n        /* \"#utility.yul\":1989:2085   */\n    tag_94:\n        /* \"#utility.yul\":2026:2033   */\n      0x00\n        /* \"#utility.yul\":2055:2079   */\n      tag_140\n        /* \"#utility.yul\":2073:2078   */\n      dup3\n        /* \"#utility.yul\":2055:2079   */\n      tag_93\n      jump\t// in\n    tag_140:\n        /* \"#utility.yul\":2044:2079   */\n      swap1\n      pop\n        /* \"#utility.yul\":1989:2085   */\n      swap2\n      swap1\n      pop\n      jump\t// out\n        /* \"#utility.yul\":2091:2213   */\n    tag_95:\n        /* \"#utility.yul\":2164:2188   */\n      tag_142\n        /* \"#utility.yul\":2182:2187   */\n      dup2\n        /* \"#utility.yul\":2164:2188   */\n      tag_94\n      jump\t// in\n    tag_142:\n        /* \"#utility.yul\":2157:2162   */\n      dup2\n        /* \"#utility.yul\":2154:2189   */\n      eq\n        /* \"#utility.yul\":2144:2207   */\n      tag_143\n      jumpi\n        /* \"#utility.yul\":2203:2204   */\n      0x00\n        /* \"#utility.yul\":2200:2201   */\n      0x00\n        /* \"#utility.yul\":2193:2205   */\n      revert\n        /* \"#utility.yul\":2144:2207   */\n    tag_143:\n        /* \"#utility.yul\":2091:2213   */\n      pop\n      jump\t// out\n        /* \"#utility.yul\":2219:2358   */\n    tag_96:\n        /* \"#utility.yul\":2265:2270   */\n      0x00\n        /* \"#utility.yul\":2303:2309   */\n      dup2\n        /* \"#utility.yul\":2290:2310   */\n      calldataload\n        /* \"#utility.yul\":2281:2310   */\n      swap1\n      pop\n        /* \"#utility.yul\":2319:2352   */\n      tag_145\n        /* \"#utility.yul\":2346:2351   */\n      dup2\n        /* \"#utility.yul\":2319:2352   */\n      tag_95\n      jump\t// in\n    tag_145:\n        /* \"#utility.yul\":2219:2358   */\n      swap3\n      swap2\n      pop\n      pop\n      jump\t// out\n        /* \"#utility.yul\":2364:2693   */\n    tag_28:\n        /* \"#utility.yul\":2423:2429   */\n      0x00\n        /* \"#utility.yul\":2472:2474   */\n      0x20\n        /* \"#utility.yul\":2460:2469   */\n      dup3\n        /* \"#utility.yul\":2451:2458   */\n      dup5\n        /* \"#utility.yul\":2447:2470   */\n      sub\n        /* \"#utility.yul\":2443:2475   */\n      slt\n        /* \"#utility.yul\":2440:2559   */\n      iszero\n      tag_147\n      jumpi\n        /* \"#utility.yul\":2478:2557   */\n      tag_148\n      tag_87\n      jump\t// in\n    tag_148:\n        /* \"#utility.yul\":2440:2559   */\n    tag_147:\n        /* \"#utility.yul\":2598:2599   */\n      0x00\n        /* \"#utility.yul\":2623:2676   */\n      tag_149\n        /* \"#utility.yul\":2668:2675   */\n      dup5\n        /* \"#utility.yul\":2659:2665   */\n      dup3\n        /* \"#utility.yul\":2648:2657   */\n      dup6\n        /* \"#utility.yul\":2644:2666   */\n      add\n        /* \"#utility.yul\":2623:2676   */\n      tag_96\n      jump\t// in\n    tag_149:\n        /* \"#utility.yul\":2613:2676   */\n      swap2\n      pop\n        /* \"#utility.yul\":2569:2686   */\n      pop\n        /* \"#utility.yul\":2364:2693   */\n      swap3\n      swap2\n      pop\n      pop\n      jump\t// out\n        /* \"#utility.yul\":2699:2879   */\n    tag_97:\n        /* \"#utility.yul\":2747:2824   */\n      0x4e487b7100000000000000000000000000000000000000000000000000000000\n        /* \"#utility.yul\":2744:2745   */\n      0x00\n        /* \"#utility.yul\":2737:2825   */\n      mstore\n        /* \"#utility.yul\":2844:2848   */\n      0x11\n        /* \"#utility.yul\":2841:2842   */\n      0x04\n        /* \"#utility.yul\":2834:2849   */\n      mstore\n        /* \"#utility.yul\":2868:2872   */\n      0x24\n        /* \"#utility.yul\":2865:2866   */\n      0x00\n        /* \"#utility.yul\":2858:2873   */\n      revert\n        /* \"#utility.yul\":2885:3295   */\n    tag_44:\n        /* \"#utility.yul\":2925:2932   */\n      0x00\n        /* \"#utility.yul\":2948:2968   */\n      tag_152\n        /* \"#utility.yul\":2966:2967   */\n      dup3\n        /* \"#utility.yul\":2948:2968   */\n      tag_89\n      jump\t// in\n    tag_152:\n        /* \"#utility.yul\":2943:2968   */\n      swap2\n      pop\n        /* \"#utility.yul\":2982:3002   */\n      tag_153\n        /* \"#utility.yul\":3000:3001   */\n      dup4\n        /* \"#utility.yul\":2982:3002   */\n      tag_89\n      jump\t// in\n    tag_153:\n        /* \"#utility.yul\":2977:3002   */\n      swap3\n      pop\n        /* \"#utility.yul\":3037:3038   */\n      dup3\n        /* \"#utility.yul\":3034:3035   */\n      dup3\n        /* \"#utility.yul\":3030:3039   */\n      mul\n        /* \"#utility.yul\":3059:3089   */\n      tag_154\n        /* \"#utility.yul\":3077:3088   */\n      dup2\n        /* \"#utility.yul\":3059:3089   */\n      tag_89\n      jump\t// in\n    tag_154:\n        /* \"#utility.yul\":3048:3089   */\n      swap2\n      pop\n        /* \"#utility.yul\":3238:3239   */\n      dup3\n        /* \"#utility.yul\":3229:3236   */\n      dup3\n        /* \"#utility.yul\":3225:3240   */\n      div\n        /* \"#utility.yul\":3222:3223   */\n      dup5\n        /* \"#utility.yul\":3219:3241   */\n      eq\n        /* \"#utility.yul\":3199:3200   */\n      dup4\n        /* \"#utility.yul\":3192:3201   */\n      iszero\n        /* \"#utility.yul\":3172:3255   */\n      or\n        /* \"#utility.yul\":3149:3288   */\n      tag_155\n      jumpi\n        /* \"#utility.yul\":3268:3286   */\n      tag_156\n      tag_97\n      jump\t// in\n    tag_156:\n        /* \"#utility.yul\":3149:3288   */\n    tag_155:\n        /* \"#utility.yul\":2933:3295   */\n      pop\n        /* \"#utility.yul\":2885:3295   */\n      swap3\n      swap2\n      pop\n      pop\n      jump\t// out\n        /* \"#utility.yul\":3301:3470   */\n    tag_98:\n        /* \"#utility.yul\":3385:3396   */\n      0x00\n        /* \"#utility.yul\":3419:3425   */\n      dup3\n        /* \"#utility.yul\":3414:3417   */\n      dup3\n        /* \"#utility.yul\":3407:3426   */\n      mstore\n        /* \"#utility.yul\":3459:3463   */\n      0x20\n        /* \"#utility.yul\":3454:3457   */\n      dup3\n        /* \"#utility.yul\":3450:3464   */\n      add\n        /* \"#utility.yul\":3435:3464   */\n      swap1\n      pop\n        /* \"#utility.yul\":3301:3470   */\n      swap3\n      swap2\n      pop\n      pop\n      jump\t// out\n        /* \"#utility.yul\":3476:3710   */\n    tag_99:\n        /* \"#utility.yul\":3616:3650   */\n      0x43616e6e6f742063616c63756c6174652073717561726520726f6f74206f6620\n        /* \"#utility.yul\":3612:3613   */\n      0x00\n        /* \"#utility.yul\":3604:3610   */\n      dup3\n        /* \"#utility.yul\":3600:3614   */\n      add\n        /* \"#utility.yul\":3593:3651   */\n      mstore\n        /* \"#utility.yul\":3685:3702   */\n      0x6e65676174697665206e756d6265720000000000000000000000000000000000\n        /* \"#utility.yul\":3680:3682   */\n      0x20\n        /* \"#utility.yul\":3672:3678   */\n      dup3\n        /* \"#utility.yul\":3668:3683   */\n      add\n        /* \"#utility.yul\":3661:3703   */\n      mstore\n        /* \"#utility.yul\":3476:3710   */\n      pop\n      jump\t// out\n        /* \"#utility.yul\":3716:4082   */\n    tag_100:\n        /* \"#utility.yul\":3858:3861   */\n      0x00\n        /* \"#utility.yul\":3879:3946   */\n      tag_160\n        /* \"#utility.yul\":3943:3945   */\n      0x2f\n        /* \"#utility.yul\":3938:3941   */\n      dup4\n        /* \"#utility.yul\":3879:3946   */\n      tag_98\n      jump\t// in\n    tag_160:\n        /* \"#utility.yul\":3872:3946   */\n      swap2\n      pop\n        /* \"#utility.yul\":3955:4048   */\n      tag_161\n        /* \"#utility.yul\":4044:4047   */\n      dup3\n        /* \"#utility.yul\":3955:4048   */\n      tag_99\n      jump\t// in\n    tag_161:\n        /* \"#utility.yul\":4073:4075   */\n      0x40\n        /* \"#utility.yul\":4068:4071   */\n      dup3\n        /* \"#utility.yul\":4064:4076   */\n      add\n        /* \"#utility.yul\":4057:4076   */\n      swap1\n      pop\n        /* \"#utility.yul\":3716:4082   */\n      swap2\n      swap1\n      pop\n      jump\t// out\n        /* \"#utility.yul\":4088:4507   */\n    tag_48:\n        /* \"#utility.yul\":4254:4258   */\n      0x00\n        /* \"#utility.yul\":4292:4294   */\n      0x20\n        /* \"#utility.yul\":4281:4290   */\n      dup3\n        /* \"#utility.yul\":4277:4295   */\n      add\n        /* \"#utility.yul\":4269:4295   */\n      swap1\n      pop\n        /* \"#utility.yul\":4341:4350   */\n      dup2\n        /* \"#utility.yul\":4335:4339   */\n      dup2\n        /* \"#utility.yul\":4331:4351   */\n      sub\n        /* \"#utility.yul\":4327:4328   */\n      0x00\n        /* \"#utility.yul\":4316:4325   */\n      dup4\n        /* \"#utility.yul\":4312:4329   */\n      add\n        /* \"#utility.yul\":4305:4352   */\n      mstore\n        /* \"#utility.yul\":4369:4500   */\n      tag_163\n        /* \"#utility.yul\":4495:4499   */\n      dup2\n        /* \"#utility.yul\":4369:4500   */\n      tag_100\n      jump\t// in\n    tag_163:\n        /* \"#utility.yul\":4361:4500   */\n      swap1\n      pop\n        /* \"#utility.yul\":4088:4507   */\n      swap2\n      swap1\n      pop\n      jump\t// out\n        /* \"#utility.yul\":4513:4611   */\n    tag_101:\n        /* \"#utility.yul\":4564:4570   */\n      0x00\n        /* \"#utility.yul\":4598:4603   */\n      dup2\n        /* \"#utility.yul\":4592:4604   */\n      mload\n        /* \"#utility.yul\":4582:4604   */\n      swap1\n      pop\n        /* \"#utility.yul\":4513:4611   */\n      swap2\n      swap1\n      pop\n      jump\t// out\n        /* \"#utility.yul\":4617:4764   */\n    tag_102:\n        /* \"#utility.yul\":4718:4729   */\n      0x00\n        /* \"#utility.yul\":4755:4758   */\n      dup2\n        /* \"#utility.yul\":4740:4758   */\n      swap1\n      pop\n        /* \"#utility.yul\":4617:4764   */\n      swap3\n      swap2\n      pop\n      pop\n      jump\t// out\n        /* \"#utility.yul\":4770:4909   */\n    tag_103:\n        /* \"#utility.yul\":4859:4865   */\n      dup3\n        /* \"#utility.yul\":4854:4857   */\n      dup2\n        /* \"#utility.yul\":4849:4852   */\n      dup4\n        /* \"#utility.yul\":4843:4866   */\n      mcopy\n        /* \"#utility.yul\":4900:4901   */\n      0x00\n        /* \"#utility.yul\":4891:4897   */\n      dup4\n        /* \"#utility.yul\":4886:4889   */\n      dup4\n        /* \"#utility.yul\":4882:4898   */\n      add\n        /* \"#utility.yul\":4875:4902   */\n      mstore\n        /* \"#utility.yul\":4770:4909   */\n      pop\n      pop\n      pop\n      jump\t// out\n        /* \"#utility.yul\":4915:5301   */\n    tag_104:\n        /* \"#utility.yul\":5019:5022   */\n      0x00\n        /* \"#utility.yul\":5047:5085   */\n      tag_168\n        /* \"#utility.yul\":5079:5084   */\n      dup3\n        /* \"#utility.yul\":5047:5085   */\n      tag_101\n      jump\t// in\n    tag_168:\n        /* \"#utility.yul\":5101:5189   */\n      tag_169\n        /* \"#utility.yul\":5182:5188   */\n      dup2\n        /* \"#utility.yul\":5177:5180   */\n      dup6\n        /* \"#utility.yul\":5101:5189   */\n      tag_102\n      jump\t// in\n    tag_169:\n        /* \"#utility.yul\":5094:5189   */\n      swap4\n      pop\n        /* \"#utility.yul\":5198:5263   */\n      tag_170\n        /* \"#utility.yul\":5256:5262   */\n      dup2\n        /* \"#utility.yul\":5251:5254   */\n      dup6\n        /* \"#utility.yul\":5244:5248   */\n      0x20\n        /* \"#utility.yul\":5237:5242   */\n      dup7\n        /* \"#utility.yul\":5233:5249   */\n      add\n        /* \"#utility.yul\":5198:5263   */\n      tag_103\n      jump\t// in\n    tag_170:\n        /* \"#utility.yul\":5288:5294   */\n      dup1\n        /* \"#utility.yul\":5283:5286   */\n      dup5\n        /* \"#utility.yul\":5279:5295   */\n      add\n        /* \"#utility.yul\":5272:5295   */\n      swap2\n      pop\n        /* \"#utility.yul\":5023:5301   */\n      pop\n        /* \"#utility.yul\":4915:5301   */\n      swap3\n      swap2\n      pop\n      pop\n      jump\t// out\n        /* \"#utility.yul\":5307:5578   */\n    tag_51:\n        /* \"#utility.yul\":5437:5440   */\n      0x00\n        /* \"#utility.yul\":5459:5552   */\n      tag_172\n        /* \"#utility.yul\":5548:5551   */\n      dup3\n        /* \"#utility.yul\":5539:5545   */\n      dup5\n        /* \"#utility.yul\":5459:5552   */\n      tag_104\n      jump\t// in\n    tag_172:\n        /* \"#utility.yul\":5452:5552   */\n      swap2\n      pop\n        /* \"#utility.yul\":5569:5572   */\n      dup2\n        /* \"#utility.yul\":5562:5572   */\n      swap1\n      pop\n        /* \"#utility.yul\":5307:5578   */\n      swap3\n      swap2\n      pop\n      pop\n      jump\t// out\n        /* \"#utility.yul\":5584:5754   */\n    tag_105:\n        /* \"#utility.yul\":5724:5746   */\n      0x45787465726e616c2063616c6c206661696c6564000000000000000000000000\n        /* \"#utility.yul\":5720:5721   */\n      0x00\n        /* \"#utility.yul\":5712:5718   */\n      dup3\n        /* \"#utility.yul\":5708:5722   */\n      add\n        /* \"#utility.yul\":5701:5747   */\n      mstore\n        /* \"#utility.yul\":5584:5754   */\n      pop\n      jump\t// out\n        /* \"#utility.yul\":5760:6126   */\n    tag_106:\n        /* \"#utility.yul\":5902:5905   */\n      0x00\n        /* \"#utility.yul\":5923:5990   */\n      tag_175\n        /* \"#utility.yul\":5987:5989   */\n      0x14\n        /* \"#utility.yul\":5982:5985   */\n      dup4\n        /* \"#utility.yul\":5923:5990   */\n      tag_98\n      jump\t// in\n    tag_175:\n        /* \"#utility.yul\":5916:5990   */\n      swap2\n      pop\n        /* \"#utility.yul\":5999:6092   */\n      tag_176\n        /* \"#utility.yul\":6088:6091   */\n      dup3\n        /* \"#utility.yul\":5999:6092   */\n      tag_105\n      jump\t// in\n    tag_176:\n        /* \"#utility.yul\":6117:6119   */\n      0x20\n        /* \"#utility.yul\":6112:6115   */\n      dup3\n        /* \"#utility.yul\":6108:6120   */\n      add\n        /* \"#utility.yul\":6101:6120   */\n      swap1\n      pop\n        /* \"#utility.yul\":5760:6126   */\n      swap2\n      swap1\n      pop\n      jump\t// out\n        /* \"#utility.yul\":6132:6551   */\n    tag_57:\n        /* \"#utility.yul\":6298:6302   */\n      0x00\n        /* \"#utility.yul\":6336:6338   */\n      0x20\n        /* \"#utility.yul\":6325:6334   */\n      dup3\n        /* \"#utility.yul\":6321:6339   */\n      add\n        /* \"#utility.yul\":6313:6339   */\n      swap1\n      pop\n        /* \"#utility.yul\":6385:6394   */\n      dup2\n        /* \"#utility.yul\":6379:6383   */\n      dup2\n        /* \"#utility.yul\":6375:6395   */\n      sub\n        /* \"#utility.yul\":6371:6372   */\n      0x00\n        /* \"#utility.yul\":6360:6369   */\n      dup4\n        /* \"#utility.yul\":6356:6373   */\n      add\n        /* \"#utility.yul\":6349:6396   */\n      mstore\n        /* \"#utility.yul\":6413:6544   */\n      tag_178\n        /* \"#utility.yul\":6539:6543   */\n      dup2\n        /* \"#utility.yul\":6413:6544   */\n      tag_106\n      jump\t// in\n    tag_178:\n        /* \"#utility.yul\":6405:6544   */\n      swap1\n      pop\n        /* \"#utility.yul\":6132:6551   */\n      swap2\n      swap1\n      pop\n      jump\t// out\n        /* \"#utility.yul\":6557:6700   */\n    tag_107:\n        /* \"#utility.yul\":6614:6619   */\n      0x00\n        /* \"#utility.yul\":6645:6651   */\n      dup2\n        /* \"#utility.yul\":6639:6652   */\n      mload\n        /* \"#utility.yul\":6630:6652   */\n      swap1\n      pop\n        /* \"#utility.yul\":6661:6694   */\n      tag_180\n        /* \"#utility.yul\":6688:6693   */\n      dup2\n        /* \"#utility.yul\":6661:6694   */\n      tag_90\n      jump\t// in\n    tag_180:\n        /* \"#utility.yul\":6557:6700   */\n      swap3\n      swap2\n      pop\n      pop\n      jump\t// out\n        /* \"#utility.yul\":6706:7057   */\n    tag_59:\n        /* \"#utility.yul\":6776:6782   */\n      0x00\n        /* \"#utility.yul\":6825:6827   */\n      0x20\n        /* \"#utility.yul\":6813:6822   */\n      dup3\n        /* \"#utility.yul\":6804:6811   */\n      dup5\n        /* \"#utility.yul\":6800:6823   */\n      sub\n        /* \"#utility.yul\":6796:6828   */\n      slt\n        /* \"#utility.yul\":6793:6912   */\n      iszero\n      tag_182\n      jumpi\n        /* \"#utility.yul\":6831:6910   */\n      tag_183\n      tag_87\n      jump\t// in\n    tag_183:\n        /* \"#utility.yul\":6793:6912   */\n    tag_182:\n        /* \"#utility.yul\":6951:6952   */\n      0x00\n        /* \"#utility.yul\":6976:7040   */\n      tag_184\n        /* \"#utility.yul\":7032:7039   */\n      dup5\n        /* \"#utility.yul\":7023:7029   */\n      dup3\n        /* \"#utility.yul\":7012:7021   */\n      dup6\n        /* \"#utility.yul\":7008:7030   */\n      add\n        /* \"#utility.yul\":6976:7040   */\n      tag_107\n      jump\t// in\n    tag_184:\n        /* \"#utility.yul\":6966:7040   */\n      swap2\n      pop\n        /* \"#utility.yul\":6922:7050   */\n      pop\n        /* \"#utility.yul\":6706:7057   */\n      swap3\n      swap2\n      pop\n      pop\n      jump\t// out\n        /* \"#utility.yul\":7063:7257   */\n    tag_62:\n        /* \"#utility.yul\":7103:7107   */\n      0x00\n        /* \"#utility.yul\":7123:7143   */\n      tag_186\n        /* \"#utility.yul\":7141:7142   */\n      dup3\n        /* \"#utility.yul\":7123:7143   */\n      tag_89\n      jump\t// in\n    tag_186:\n        /* \"#utility.yul\":7118:7143   */\n      swap2\n      pop\n        /* \"#utility.yul\":7157:7177   */\n      tag_187\n        /* \"#utility.yul\":7175:7176   */\n      dup4\n        /* \"#utility.yul\":7157:7177   */\n      tag_89\n      jump\t// in\n    tag_187:\n        /* \"#utility.yul\":7152:7177   */\n      swap3\n      pop\n        /* \"#utility.yul\":7201:7202   */\n      dup3\n        /* \"#utility.yul\":7198:7199   */\n      dup3\n        /* \"#utility.yul\":7194:7203   */\n      sub\n        /* \"#utility.yul\":7186:7203   */\n      swap1\n      pop\n        /* \"#utility.yul\":7225:7226   */\n      dup2\n        /* \"#utility.yul\":7219:7223   */\n      dup2\n        /* \"#utility.yul\":7216:7227   */\n      gt\n        /* \"#utility.yul\":7213:7250   */\n      iszero\n      tag_188\n      jumpi\n        /* \"#utility.yul\":7230:7248   */\n      tag_189\n      tag_97\n      jump\t// in\n    tag_189:\n        /* \"#utility.yul\":7213:7250   */\n    tag_188:\n        /* \"#utility.yul\":7063:7257   */\n      swap3\n      swap2\n      pop\n      pop\n      jump\t// out\n        /* \"#utility.yul\":7263:7484   */\n    tag_108:\n        /* \"#utility.yul\":7403:7437   */\n      0x4f6e6c79206f776e65722063616e20706572666f726d20746869732061637469\n        /* \"#utility.yul\":7399:7400   */\n      0x00\n        /* \"#utility.yul\":7391:7397   */\n      dup3\n        /* \"#utility.yul\":7387:7401   */\n      add\n        /* \"#utility.yul\":7380:7438   */\n      mstore\n        /* \"#utility.yul\":7472:7476   */\n      0x6f6e000000000000000000000000000000000000000000000000000000000000\n        /* \"#utility.yul\":7467:7469   */\n      0x20\n        /* \"#utility.yul\":7459:7465   */\n      dup3\n        /* \"#utility.yul\":7455:7470   */\n      add\n        /* \"#utility.yul\":7448:7477   */\n      mstore\n        /* \"#utility.yul\":7263:7484   */\n      pop\n      jump\t// out\n        /* \"#utility.yul\":7490:7856   */\n    tag_109:\n        /* \"#utility.yul\":7632:7635   */\n      0x00\n        /* \"#utility.yul\":7653:7720   */\n      tag_192\n        /* \"#utility.yul\":7717:7719   */\n      0x22\n        /* \"#utility.yul\":7712:7715   */\n      dup4\n        /* \"#utility.yul\":7653:7720   */\n      tag_98\n      jump\t// in\n    tag_192:\n        /* \"#utility.yul\":7646:7720   */\n      swap2\n      pop\n        /* \"#utility.yul\":7729:7822   */\n      tag_193\n        /* \"#utility.yul\":7818:7821   */\n      dup3\n        /* \"#utility.yul\":7729:7822   */\n      tag_108\n      jump\t// in\n    tag_193:\n        /* \"#utility.yul\":7847:7849   */\n      0x40\n        /* \"#utility.yul\":7842:7845   */\n      dup3\n        /* \"#utility.yul\":7838:7850   */\n      add\n        /* \"#utility.yul\":7831:7850   */\n      swap1\n      pop\n        /* \"#utility.yul\":7490:7856   */\n      swap2\n      swap1\n      pop\n      jump\t// out\n        /* \"#utility.yul\":7862:8281   */\n    tag_66:\n        /* \"#utility.yul\":8028:8032   */\n      0x00\n        /* \"#utility.yul\":8066:8068   */\n      0x20\n        /* \"#utility.yul\":8055:8064   */\n      dup3\n        /* \"#utility.yul\":8051:8069   */\n      add\n        /* \"#utility.yul\":8043:8069   */\n      swap1\n      pop\n        /* \"#utility.yul\":8115:8124   */\n      dup2\n        /* \"#utility.yul\":8109:8113   */\n      dup2\n        /* \"#utility.yul\":8105:8125   */\n      sub\n        /* \"#utility.yul\":8101:8102   */\n      0x00\n        /* \"#utility.yul\":8090:8099   */\n      dup4\n        /* \"#utility.yul\":8086:8103   */\n      add\n        /* \"#utility.yul\":8079:8126   */\n      mstore\n        /* \"#utility.yul\":8143:8274   */\n      tag_195\n        /* \"#utility.yul\":8269:8273   */\n      dup2\n        /* \"#utility.yul\":8143:8274   */\n      tag_109\n      jump\t// in\n    tag_195:\n        /* \"#utility.yul\":8135:8274   */\n      swap1\n      pop\n        /* \"#utility.yul\":7862:8281   */\n      swap2\n      swap1\n      pop\n      jump\t// out\n        /* \"#utility.yul\":8287:8452   */\n    tag_110:\n        /* \"#utility.yul\":8427:8444   */\n      0x496e76616c696420616464726573730000000000000000000000000000000000\n        /* \"#utility.yul\":8423:8424   */\n      0x00\n        /* \"#utility.yul\":8415:8421   */\n      dup3\n        /* \"#utility.yul\":8411:8425   */\n      add\n        /* \"#utility.yul\":8404:8445   */\n      mstore\n        /* \"#utility.yul\":8287:8452   */\n      pop\n      jump\t// out\n        /* \"#utility.yul\":8458:8824   */\n    tag_111:\n        /* \"#utility.yul\":8600:8603   */\n      0x00\n        /* \"#utility.yul\":8621:8688   */\n      tag_198\n        /* \"#utility.yul\":8685:8687   */\n      0x0f\n        /* \"#utility.yul\":8680:8683   */\n      dup4\n        /* \"#utility.yul\":8621:8688   */\n      tag_98\n      jump\t// in\n    tag_198:\n        /* \"#utility.yul\":8614:8688   */\n      swap2\n      pop\n        /* \"#utility.yul\":8697:8790   */\n      tag_199\n        /* \"#utility.yul\":8786:8789   */\n      dup3\n        /* \"#utility.yul\":8697:8790   */\n      tag_110\n      jump\t// in\n    tag_199:\n        /* \"#utility.yul\":8815:8817   */\n      0x20\n        /* \"#utility.yul\":8810:8813   */\n      dup3\n        /* \"#utility.yul\":8806:8818   */\n      add\n        /* \"#utility.yul\":8799:8818   */\n      swap1\n      pop\n        /* \"#utility.yul\":8458:8824   */\n      swap2\n      swap1\n      pop\n      jump\t// out\n        /* \"#utility.yul\":8830:9249   */\n    tag_70:\n        /* \"#utility.yul\":8996:9000   */\n      0x00\n        /* \"#utility.yul\":9034:9036   */\n      0x20\n        /* \"#utility.yul\":9023:9032   */\n      dup3\n        /* \"#utility.yul\":9019:9037   */\n      add\n        /* \"#utility.yul\":9011:9037   */\n      swap1\n      pop\n        /* \"#utility.yul\":9083:9092   */\n      dup2\n        /* \"#utility.yul\":9077:9081   */\n      dup2\n        /* \"#utility.yul\":9073:9093   */\n      sub\n        /* \"#utility.yul\":9069:9070   */\n      0x00\n        /* \"#utility.yul\":9058:9067   */\n      dup4\n        /* \"#utility.yul\":9054:9071   */\n      add\n        /* \"#utility.yul\":9047:9094   */\n      mstore\n        /* \"#utility.yul\":9111:9242   */\n      tag_201\n        /* \"#utility.yul\":9237:9241   */\n      dup2\n        /* \"#utility.yul\":9111:9242   */\n      tag_111\n      jump\t// in\n    tag_201:\n        /* \"#utility.yul\":9103:9242   */\n      swap1\n      pop\n        /* \"#utility.yul\":8830:9249   */\n      swap2\n      swap1\n      pop\n      jump\t// out\n        /* \"#utility.yul\":9255:9446   */\n    tag_73:\n        /* \"#utility.yul\":9295:9298   */\n      0x00\n        /* \"#utility.yul\":9314:9334   */\n      tag_203\n        /* \"#utility.yul\":9332:9333   */\n      dup3\n        /* \"#utility.yul\":9314:9334   */\n      tag_89\n      jump\t// in\n    tag_203:\n        /* \"#utility.yul\":9309:9334   */\n      swap2\n      pop\n        /* \"#utility.yul\":9348:9368   */\n      tag_204\n        /* \"#utility.yul\":9366:9367   */\n      dup4\n        /* \"#utility.yul\":9348:9368   */\n      tag_89\n      jump\t// in\n    tag_204:\n        /* \"#utility.yul\":9343:9368   */\n      swap3\n      pop\n        /* \"#utility.yul\":9391:9392   */\n      dup3\n        /* \"#utility.yul\":9388:9389   */\n      dup3\n        /* \"#utility.yul\":9384:9393   */\n      add\n        /* \"#utility.yul\":9377:9393   */\n      swap1\n      pop\n        /* \"#utility.yul\":9412:9415   */\n      dup1\n        /* \"#utility.yul\":9409:9410   */\n      dup3\n        /* \"#utility.yul\":9406:9416   */\n      gt\n        /* \"#utility.yul\":9403:9439   */\n      iszero\n      tag_205\n      jumpi\n        /* \"#utility.yul\":9419:9437   */\n      tag_206\n      tag_97\n      jump\t// in\n    tag_206:\n        /* \"#utility.yul\":9403:9439   */\n    tag_205:\n        /* \"#utility.yul\":9255:9446   */\n      swap3\n      swap2\n      pop\n      pop\n      jump\t// out\n        /* \"#utility.yul\":9452:9784   */\n    tag_76:\n        /* \"#utility.yul\":9573:9577   */\n      0x00\n        /* \"#utility.yul\":9611:9613   */\n      0x40\n        /* \"#utility.yul\":9600:9609   */\n      dup3\n        /* \"#utility.yul\":9596:9614   */\n      add\n        /* \"#utility.yul\":9588:9614   */\n      swap1\n      pop\n        /* \"#utility.yul\":9624:9695   */\n      tag_208\n        /* \"#utility.yul\":9692:9693   */\n      0x00\n        /* \"#utility.yul\":9681:9690   */\n      dup4\n        /* \"#utility.yul\":9677:9694   */\n      add\n        /* \"#utility.yul\":9668:9674   */\n      dup6\n        /* \"#utility.yul\":9624:9695   */\n      tag_92\n      jump\t// in\n    tag_208:\n        /* \"#utility.yul\":9705:9777   */\n      tag_209\n        /* \"#utility.yul\":9773:9775   */\n      0x20\n        /* \"#utility.yul\":9762:9771   */\n      dup4\n        /* \"#utility.yul\":9758:9776   */\n      add\n        /* \"#utility.yul\":9749:9755   */\n      dup5\n        /* \"#utility.yul\":9705:9777   */\n      tag_92\n      jump\t// in\n    tag_209:\n        /* \"#utility.yul\":9452:9784   */\n      swap4\n      swap3\n      pop\n      pop\n      pop\n      jump\t// out\n        /* \"#utility.yul\":9790:9961   */\n    tag_112:\n        /* \"#utility.yul\":9930:9953   */\n      0x43616e6e6f7420646976696465206279207a65726f0000000000000000000000\n        /* \"#utility.yul\":9926:9927   */\n      0x00\n        /* \"#utility.yul\":9918:9924   */\n      dup3\n        /* \"#utility.yul\":9914:9928   */\n      add\n        /* \"#utility.yul\":9907:9954   */\n      mstore\n        /* \"#utility.yul\":9790:9961   */\n      pop\n      jump\t// out\n        /* \"#utility.yul\":9967:10333   */\n    tag_113:\n        /* \"#utility.yul\":10109:10112   */\n      0x00\n        /* \"#utility.yul\":10130:10197   */\n      tag_212\n        /* \"#utility.yul\":10194:10196   */\n      0x15\n        /* \"#utility.yul\":10189:10192   */\n      dup4\n        /* \"#utility.yul\":10130:10197   */\n      tag_98\n      jump\t// in\n    tag_212:\n        /* \"#utility.yul\":10123:10197   */\n      swap2\n      pop\n        /* \"#utility.yul\":10206:10299   */\n      tag_213\n        /* \"#utility.yul\":10295:10298   */\n      dup3\n        /* \"#utility.yul\":10206:10299   */\n      tag_112\n      jump\t// in\n    tag_213:\n        /* \"#utility.yul\":10324:10326   */\n      0x20\n        /* \"#utility.yul\":10319:10322   */\n      dup3\n        /* \"#utility.yul\":10315:10327   */\n      add\n        /* \"#utility.yul\":10308:10327   */\n      swap1\n      pop\n        /* \"#utility.yul\":9967:10333   */\n      swap2\n      swap1\n      pop\n      jump\t// out\n        /* \"#utility.yul\":10339:10758   */\n    tag_83:\n        /* \"#utility.yul\":10505:10509   */\n      0x00\n        /* \"#utility.yul\":10543:10545   */\n      0x20\n        /* \"#utility.yul\":10532:10541   */\n      dup3\n        /* \"#utility.yul\":10528:10546   */\n      add\n        /* \"#utility.yul\":10520:10546   */\n      swap1\n      pop\n        /* \"#utility.yul\":10592:10601   */\n      dup2\n        /* \"#utility.yul\":10586:10590   */\n      dup2\n        /* \"#utility.yul\":10582:10602   */\n      sub\n        /* \"#utility.yul\":10578:10579   */\n      0x00\n        /* \"#utility.yul\":10567:10576   */\n      dup4\n        /* \"#utility.yul\":10563:10580   */\n      add\n        /* \"#utility.yul\":10556:10603   */\n      mstore\n        /* \"#utility.yul\":10620:10751   */\n      tag_215\n        /* \"#utility.yul\":10746:10750   */\n      dup2\n        /* \"#utility.yul\":10620:10751   */\n      tag_113\n      jump\t// in\n    tag_215:\n        /* \"#utility.yul\":10612:10751   */\n      swap1\n      pop\n        /* \"#utility.yul\":10339:10758   */\n      swap2\n      swap1\n      pop\n      jump\t// out\n        /* \"#utility.yul\":10764:10944   */\n    tag_114:\n        /* \"#utility.yul\":10812:10889   */\n      0x4e487b7100000000000000000000000000000000000000000000000000000000\n        /* \"#utility.yul\":10809:10810   */\n      0x00\n        /* \"#utility.yul\":10802:10890   */\n      mstore\n        /* \"#utility.yul\":10909:10913   */\n      0x12\n        /* \"#utility.yul\":10906:10907   */\n      0x04\n        /* \"#utility.yul\":10899:10914   */\n      mstore\n        /* \"#utility.yul\":10933:10937   */\n      0x24\n        /* \"#utility.yul\":10930:10931   */\n      0x00\n        /* \"#utility.yul\":10923:10938   */\n      revert\n        /* \"#utility.yul\":10950:11135   */\n    tag_85:\n        /* \"#utility.yul\":10990:10991   */\n      0x00\n        /* \"#utility.yul\":11007:11027   */\n      tag_218\n        /* \"#utility.yul\":11025:11026   */\n      dup3\n        /* \"#utility.yul\":11007:11027   */\n      tag_89\n      jump\t// in\n    tag_218:\n        /* \"#utility.yul\":11002:11027   */\n      swap2\n      pop\n        /* \"#utility.yul\":11041:11061   */\n      tag_219\n        /* \"#utility.yul\":11059:11060   */\n      dup4\n        /* \"#utility.yul\":11041:11061   */\n      tag_89\n      jump\t// in\n    tag_219:\n        /* \"#utility.yul\":11036:11061   */\n      swap3\n      pop\n        /* \"#utility.yul\":11080:11081   */\n      dup3\n        /* \"#utility.yul\":11070:11105   */\n      tag_220\n      jumpi\n        /* \"#utility.yul\":11085:11103   */\n      tag_221\n      tag_114\n      jump\t// in\n    tag_221:\n        /* \"#utility.yul\":11070:11105   */\n    tag_220:\n        /* \"#utility.yul\":11127:11128   */\n      dup3\n        /* \"#utility.yul\":11124:11125   */\n      dup3\n        /* \"#utility.yul\":11120:11129   */\n      div\n        /* \"#utility.yul\":11115:11129   */\n      swap1\n      pop\n        /* \"#utility.yul\":10950:11135   */\n      swap3\n      swap2\n      pop\n      pop\n      jump\t// out\n\n    auxdata: 0xa2646970667358221220731edfbb243b9c5c561e3dc53020ccbc5f9a07b63f47fb58c03b9da94f6e142564736f6c634300081e0033\n}\n",
				"bytecode": {
					"linkReferences": {},
					"object": "6080604052348015600e575f5ffd5b50335f5f6101000a81548173ffffffffffffffffffffffffffffffffffffffff021916908373ffffffffffffffffffffffffffffffffffffffff160217905550610be28061005b5f395ff3fe608060405234801561000f575f5ffd5b506004361061007b575f3560e01c806345f2fca41161005957806345f2fca41461010f578063771602f71461012b578063c04f01fc1461015b578063f88e9fbf1461018b5761007b565b8063165c4a161461007f578063278ccfdb146100af5780633ef5e445146100df575b5f5ffd5b61009960048036038101906100949190610633565b6101bb565b6040516100a69190610680565b60405180910390f35b6100c960048036038101906100c49190610699565b6101d0565b6040516100d69190610680565b60405180910390f35b6100f960048036038101906100f49190610633565b610393565b6040516101069190610680565b60405180910390f35b6101296004803603810190610124919061071e565b6103a8565b005b61014560048036038101906101409190610633565b6104e7565b6040516101529190610680565b60405180910390f35b61017560048036038101906101709190610633565b6104fc565b6040516101829190610680565b60405180910390f35b6101a560048036038101906101a09190610633565b6105a5565b6040516101b29190610680565b60405180910390f35b5f81836101c89190610776565b905092915050565b5f5f821015610214576040517f08c379a000000000000000000000000000000000000000000000000000000000815260040161020b90610837565b60405180910390fd5b5f826040516024016102269190610680565b6040516020818303038152906040527f278ccfdb000000000000000000000000000000000000000000000000000000007bffffffffffffffffffffffffffffffffffffffffffffffffffffffff19166020820180517bffffffffffffffffffffffffffffffffffffffffffffffffffffffff838183161783525050505090505f5f60015f9054906101000a900473ffffffffffffffffffffffffffffffffffffffff1673ffffffffffffffffffffffffffffffffffffffff16836040516102ed91906108a7565b5f604051808303815f865af19150503d805f8114610326576040519150601f19603f3d011682016040523d82523d5f602084013e61032b565b606091505b509150915081610370576040517f08c379a000000000000000000000000000000000000000000000000000000000815260040161036790610907565b60405180910390fd5b5f818060200190518101906103859190610939565b905080945050505050919050565b5f81836103a09190610964565b905092915050565b3373ffffffffffffffffffffffffffffffffffffffff165f5f9054906101000a900473ffffffffffffffffffffffffffffffffffffffff1673ffffffffffffffffffffffffffffffffffffffff1614610436576040517f08c379a000000000000000000000000000000000000000000000000000000000815260040161042d90610a07565b60405180910390fd5b5f73ffffffffffffffffffffffffffffffffffffffff168173ffffffffffffffffffffffffffffffffffffffff16036104a4576040517f08c379a000000000000000000000000000000000000000000000000000000000815260040161049b90610a6f565b60405180910390fd5b8060015f6101000a81548173ffffffffffffffffffffffffffffffffffffffff021916908373ffffffffffffffffffffffffffffffffffffffff16021790555050565b5f81836104f49190610a8d565b905092915050565b5f5f60015f9054906101000a900473ffffffffffffffffffffffffffffffffffffffff1690508073ffffffffffffffffffffffffffffffffffffffff1663c04f01fc85856040518363ffffffff1660e01b815260040161055d929190610ac0565b602060405180830381865afa158015610578573d5f5f3e3d5ffd5b505050506040513d601f19601f8201168201806040525081019061059c9190610939565b91505092915050565b5f5f82036105e8576040517f08c379a00000000000000000000000000000000000000000000000000000000081526004016105df90610b31565b60405180910390fd5b81836105f49190610b7c565b905092915050565b5f5ffd5b5f819050919050565b61061281610600565b811461061c575f5ffd5b50565b5f8135905061062d81610609565b92915050565b5f5f60408385031215610649576106486105fc565b5b5f6106568582860161061f565b92505060206106678582860161061f565b9150509250929050565b61067a81610600565b82525050565b5f6020820190506106935f830184610671565b92915050565b5f602082840312156106ae576106ad6105fc565b5b5f6106bb8482850161061f565b91505092915050565b5f73ffffffffffffffffffffffffffffffffffffffff82169050919050565b5f6106ed826106c4565b9050919050565b6106fd816106e3565b8114610707575f5ffd5b50565b5f81359050610718816106f4565b92915050565b5f60208284031215610733576107326105fc565b5b5f6107408482850161070a565b91505092915050565b7f4e487b71000000000000000000000000000000000000000000000000000000005f52601160045260245ffd5b5f61078082610600565b915061078b83610600565b925082820261079981610600565b915082820484148315176107b0576107af610749565b5b5092915050565b5f82825260208201905092915050565b7f43616e6e6f742063616c63756c6174652073717561726520726f6f74206f66205f8201527f6e65676174697665206e756d6265720000000000000000000000000000000000602082015250565b5f610821602f836107b7565b915061082c826107c7565b604082019050919050565b5f6020820190508181035f83015261084e81610815565b9050919050565b5f81519050919050565b5f81905092915050565b8281835e5f83830152505050565b5f61088182610855565b61088b818561085f565b935061089b818560208601610869565b80840191505092915050565b5f6108b28284610877565b915081905092915050565b7f45787465726e616c2063616c6c206661696c65640000000000000000000000005f82015250565b5f6108f16014836107b7565b91506108fc826108bd565b602082019050919050565b5f6020820190508181035f83015261091e816108e5565b9050919050565b5f8151905061093381610609565b92915050565b5f6020828403121561094e5761094d6105fc565b5b5f61095b84828501610925565b91505092915050565b5f61096e82610600565b915061097983610600565b925082820390508181111561099157610990610749565b5b92915050565b7f4f6e6c79206f776e65722063616e20706572666f726d207468697320616374695f8201527f6f6e000000000000000000000000000000000000000000000000000000000000602082015250565b5f6109f16022836107b7565b91506109fc82610997565b604082019050919050565b5f6020820190508181035f830152610a1e816109e5565b9050919050565b7f496e76616c6964206164647265737300000000000000000000000000000000005f82015250565b5f610a59600f836107b7565b9150610a6482610a25565b602082019050919050565b5f6020820190508181035f830152610a8681610a4d565b9050919050565b5f610a9782610600565b9150610aa283610600565b9250828201905080821115610aba57610ab9610749565b5b92915050565b5f604082019050610ad35f830185610671565b610ae06020830184610671565b9392505050565b7f43616e6e6f7420646976696465206279207a65726f00000000000000000000005f82015250565b5f610b1b6015836107b7565b9150610b2682610ae7565b602082019050919050565b5f6020820190508181035f830152610b4881610b0f565b9050919050565b7f4e487b71000000000000000000000000000000000000000000000000000000005f52601260045260245ffd5b5f610b8682610600565b9150610b9183610600565b925082610ba157610ba0610b4f565b5b82820490509291505056fea2646970667358221220731edfbb243b9c5c561e3dc53020ccbc5f9a07b63f47fb58c03b9da94f6e142564736f6c634300081e0033",
					"opcodes": "PUSH1 0x80 PUSH1 0x40 MSTORE CALLVALUE DUP1 ISZERO PUSH1 0xE JUMPI PUSH0 PUSH0 REVERT JUMPDEST POP CALLER PUSH0 PUSH0 PUSH2 0x100 EXP DUP2 SLOAD DUP2 PUSH20 0xFFFFFFFFFFFFFFFFFFFFFFFFFFFFFFFFFFFFFFFF MUL NOT AND SWAP1 DUP4 PUSH20 0xFFFFFFFFFFFFFFFFFFFFFFFFFFFFFFFFFFFFFFFF AND MUL OR SWAP1 SSTORE POP PUSH2 0xBE2 DUP1 PUSH2 0x5B PUSH0 CODECOPY PUSH0 RETURN INVALID PUSH1 0x80 PUSH1 0x40 MSTORE CALLVALUE DUP1 ISZERO PUSH2 0xF JUMPI PUSH0 PUSH0 REVERT JUMPDEST POP PUSH1 0x4 CALLDATASIZE LT PUSH2 0x7B JUMPI PUSH0 CALLDATALOAD PUSH1 0xE0 SHR DUP1 PUSH4 0x45F2FCA4 GT PUSH2 0x59 JUMPI DUP1 PUSH4 0x45F2FCA4 EQ PUSH2 0x10F JUMPI DUP1 PUSH4 0x771602F7 EQ PUSH2 0x12B JUMPI DUP1 PUSH4 0xC04F01FC EQ PUSH2 0x15B JUMPI DUP1 PUSH4 0xF88E9FBF EQ PUSH2 0x18B JUMPI PUSH2 0x7B JUMP JUMPDEST DUP1 PUSH4 0x165C4A16 EQ PUSH2 0x7F JUMPI DUP1 PUSH4 0x278CCFDB EQ PUSH2 0xAF JUMPI DUP1 PUSH4 0x3EF5E445 EQ PUSH2 0xDF JUMPI JUMPDEST PUSH0 PUSH0 REVERT JUMPDEST PUSH2 0x99 PUSH1 0x4 DUP1 CALLDATASIZE SUB DUP2 ADD SWAP1 PUSH2 0x94 SWAP2 SWAP1 PUSH2 0x633 JUMP JUMPDEST PUSH2 0x1BB JUMP JUMPDEST PUSH1 0x40 MLOAD PUSH2 0xA6 SWAP2 SWAP1 PUSH2 0x680 JUMP JUMPDEST PUSH1 0x40 MLOAD DUP1 SWAP2 SUB SWAP1 RETURN JUMPDEST PUSH2 0xC9 PUSH1 0x4 DUP1 CALLDATASIZE SUB DUP2 ADD SWAP1 PUSH2 0xC4 SWAP2 SWAP1 PUSH2 0x699 JUMP JUMPDEST PUSH2 0x1D0 JUMP JUMPDEST PUSH1 0x40 MLOAD PUSH2 0xD6 SWAP2 SWAP1 PUSH2 0x680 JUMP JUMPDEST PUSH1 0x40 MLOAD DUP1 SWAP2 SUB SWAP1 RETURN JUMPDEST PUSH2 0xF9 PUSH1 0x4 DUP1 CALLDATASIZE SUB DUP2 ADD SWAP1 PUSH2 0xF4 SWAP2 SWAP1 PUSH2 0x633 JUMP JUMPDEST PUSH2 0x393 JUMP JUMPDEST PUSH1 0x40 MLOAD PUSH2 0x106 SWAP2 SWAP1 PUSH2 0x680 JUMP JUMPDEST PUSH1 0x40 MLOAD DUP1 SWAP2 SUB SWAP1 RETURN JUMPDEST PUSH2 0x129 PUSH1 0x4 DUP1 CALLDATASIZE SUB DUP2 ADD SWAP1 PUSH2 0x124 SWAP2 SWAP1 PUSH2 0x71E JUMP JUMPDEST PUSH2 0x3A8 JUMP JUMPDEST STOP JUMPDEST PUSH2 0x145 PUSH1 0x4 DUP1 CALLDATASIZE SUB DUP2 ADD SWAP1 PUSH2 0x140 SWAP2 SWAP1 PUSH2 0x633 JUMP JUMPDEST PUSH2 0x4E7 JUMP JUMPDEST PUSH1 0x40 MLOAD PUSH2 0x152 SWAP2 SWAP1 PUSH2 0x680 JUMP JUMPDEST PUSH1 0x40 MLOAD DUP1 SWAP2 SUB SWAP1 RETURN JUMPDEST PUSH2 0x175 PUSH1 0x4 DUP1 CALLDATASIZE SUB DUP2 ADD SWAP1 PUSH2 0x170 SWAP2 SWAP1 PUSH2 0x633 JUMP JUMPDEST PUSH2 0x4FC JUMP JUMPDEST PUSH1 0x40 MLOAD PUSH2 0x182 SWAP2 SWAP1 PUSH2 0x680 JUMP JUMPDEST PUSH1 0x40 MLOAD DUP1 SWAP2 SUB SWAP1 RETURN JUMPDEST PUSH2 0x1A5 PUSH1 0x4 DUP1 CALLDATASIZE SUB DUP2 ADD SWAP1 PUSH2 0x1A0 SWAP2 SWAP1 PUSH2 0x633 JUMP JUMPDEST PUSH2 0x5A5 JUMP JUMPDEST PUSH1 0x40 MLOAD PUSH2 0x1B2 SWAP2 SWAP1 PUSH2 0x680 JUMP JUMPDEST PUSH1 0x40 MLOAD DUP1 SWAP2 SUB SWAP1 RETURN JUMPDEST PUSH0 DUP2 DUP4 PUSH2 0x1C8 SWAP2 SWAP1 PUSH2 0x776 JUMP JUMPDEST SWAP1 POP SWAP3 SWAP2 POP POP JUMP JUMPDEST PUSH0 PUSH0 DUP3 LT ISZERO PUSH2 0x214 JUMPI PUSH1 0x40 MLOAD PUSH32 0x8C379A000000000000000000000000000000000000000000000000000000000 DUP2 MSTORE PUSH1 0x4 ADD PUSH2 0x20B SWAP1 PUSH2 0x837 JUMP JUMPDEST PUSH1 0x40 MLOAD DUP1 SWAP2 SUB SWAP1 REVERT JUMPDEST PUSH0 DUP3 PUSH1 0x40 MLOAD PUSH1 0x24 ADD PUSH2 0x226 SWAP2 SWAP1 PUSH2 0x680 JUMP JUMPDEST PUSH1 0x40 MLOAD PUSH1 0x20 DUP2 DUP4 SUB SUB DUP2 MSTORE SWAP1 PUSH1 0x40 MSTORE PUSH32 0x278CCFDB00000000000000000000000000000000000000000000000000000000 PUSH28 0xFFFFFFFFFFFFFFFFFFFFFFFFFFFFFFFFFFFFFFFFFFFFFFFFFFFFFFFF NOT AND PUSH1 0x20 DUP3 ADD DUP1 MLOAD PUSH28 0xFFFFFFFFFFFFFFFFFFFFFFFFFFFFFFFFFFFFFFFFFFFFFFFFFFFFFFFF DUP4 DUP2 DUP4 AND OR DUP4 MSTORE POP POP POP POP SWAP1 POP PUSH0 PUSH0 PUSH1 0x1 PUSH0 SWAP1 SLOAD SWAP1 PUSH2 0x100 EXP SWAP1 DIV PUSH20 0xFFFFFFFFFFFFFFFFFFFFFFFFFFFFFFFFFFFFFFFF AND PUSH20 0xFFFFFFFFFFFFFFFFFFFFFFFFFFFFFFFFFFFFFFFF AND DUP4 PUSH1 0x40 MLOAD PUSH2 0x2ED SWAP2 SWAP1 PUSH2 0x8A7 JUMP JUMPDEST PUSH0 PUSH1 0x40 MLOAD DUP1 DUP4 SUB DUP2 PUSH0 DUP7 GAS CALL SWAP2 POP POP RETURNDATASIZE DUP1 PUSH0 DUP2 EQ PUSH2 0x326 JUMPI PUSH1 0x40 MLOAD SWAP2 POP PUSH1 0x1F NOT PUSH1 0x3F RETURNDATASIZE ADD AND DUP3 ADD PUSH1 0x40 MSTORE RETURNDATASIZE DUP3 MSTORE RETURNDATASIZE PUSH0 PUSH1 0x20 DUP5 ADD RETURNDATACOPY PUSH2 0x32B JUMP JUMPDEST PUSH1 0x60 SWAP2 POP JUMPDEST POP SWAP2 POP SWAP2 POP DUP2 PUSH2 0x370 JUMPI PUSH1 0x40 MLOAD PUSH32 0x8C379A000000000000000000000000000000000000000000000000000000000 DUP2 MSTORE PUSH1 0x4 ADD PUSH2 0x367 SWAP1 PUSH2 0x907 JUMP JUMPDEST PUSH1 0x40 MLOAD DUP1 SWAP2 SUB SWAP1 REVERT JUMPDEST PUSH0 DUP2 DUP1 PUSH1 0x20 ADD SWAP1 MLOAD DUP2 ADD SWAP1 PUSH2 0x385 SWAP2 SWAP1 PUSH2 0x939 JUMP JUMPDEST SWAP1 POP DUP1 SWAP5 POP POP POP POP POP SWAP2 SWAP1 POP JUMP JUMPDEST PUSH0 DUP2 DUP4 PUSH2 0x3A0 SWAP2 SWAP1 PUSH2 0x964 JUMP JUMPDEST SWAP1 POP SWAP3 SWAP2 POP POP JUMP JUMPDEST CALLER PUSH20 0xFFFFFFFFFFFFFFFFFFFFFFFFFFFFFFFFFFFFFFFF AND PUSH0 PUSH0 SWAP1 SLOAD SWAP1 PUSH2 0x100 EXP SWAP1 DIV PUSH20 0xFFFFFFFFFFFFFFFFFFFFFFFFFFFFFFFFFFFFFFFF AND PUSH20 0xFFFFFFFFFFFFFFFFFFFFFFFFFFFFFFFFFFFFFFFF AND EQ PUSH2 0x436 JUMPI PUSH1 0x40 MLOAD PUSH32 0x8C379A000000000000000000000000000000000000000000000000000000000 DUP2 MSTORE PUSH1 0x4 ADD PUSH2 0x42D SWAP1 PUSH2 0xA07 JUMP JUMPDEST PUSH1 0x40 MLOAD DUP1 SWAP2 SUB SWAP1 REVERT JUMPDEST PUSH0 PUSH20 0xFFFFFFFFFFFFFFFFFFFFFFFFFFFFFFFFFFFFFFFF AND DUP2 PUSH20 0xFFFFFFFFFFFFFFFFFFFFFFFFFFFFFFFFFFFFFFFF AND SUB PUSH2 0x4A4 JUMPI PUSH1 0x40 MLOAD PUSH32 0x8C379A000000000000000000000000000000000000000000000000000000000 DUP2 MSTORE PUSH1 0x4 ADD PUSH2 0x49B SWAP1 PUSH2 0xA6F JUMP JUMPDEST PUSH1 0x40 MLOAD DUP1 SWAP2 SUB SWAP1 REVERT JUMPDEST DUP1 PUSH1 0x1 PUSH0 PUSH2 0x100 EXP DUP2 SLOAD DUP2 PUSH20 0xFFFFFFFFFFFFFFFFFFFFFFFFFFFFFFFFFFFFFFFF MUL NOT AND SWAP1 DUP4 PUSH20 0xFFFFFFFFFFFFFFFFFFFFFFFFFFFFFFFFFFFFFFFF AND MUL OR SWAP1 SSTORE POP POP JUMP JUMPDEST PUSH0 DUP2 DUP4 PUSH2 0x4F4 SWAP2 SWAP1 PUSH2 0xA8D JUMP JUMPDEST SWAP1 POP SWAP3 SWAP2 POP POP JUMP JUMPDEST PUSH0 PUSH0 PUSH1 0x1 PUSH0 SWAP1 SLOAD SWAP1 PUSH2 0x100 EXP SWAP1 DIV PUSH20 0xFFFFFFFFFFFFFFFFFFFFFFFFFFFFFFFFFFFFFFFF AND SWAP1 POP DUP1 PUSH20 0xFFFFFFFFFFFFFFFFFFFFFFFFFFFFFFFFFFFFFFFF AND PUSH4 0xC04F01FC DUP6 DUP6 PUSH1 0x40 MLOAD DUP4 PUSH4 0xFFFFFFFF AND PUSH1 0xE0 SHL DUP2 MSTORE PUSH1 0x4 ADD PUSH2 0x55D SWAP3 SWAP2 SWAP1 PUSH2 0xAC0 JUMP JUMPDEST PUSH1 0x20 PUSH1 0x40 MLOAD DUP1 DUP4 SUB DUP2 DUP7 GAS STATICCALL ISZERO DUP1 ISZERO PUSH2 0x578 JUMPI RETURNDATASIZE PUSH0 PUSH0 RETURNDATACOPY RETURNDATASIZE PUSH0 REVERT JUMPDEST POP POP POP POP PUSH1 0x40 MLOAD RETURNDATASIZE PUSH1 0x1F NOT PUSH1 0x1F DUP3 ADD AND DUP3 ADD DUP1 PUSH1 0x40 MSTORE POP DUP2 ADD SWAP1 PUSH2 0x59C SWAP2 SWAP1 PUSH2 0x939 JUMP JUMPDEST SWAP2 POP POP SWAP3 SWAP2 POP POP JUMP JUMPDEST PUSH0 PUSH0 DUP3 SUB PUSH2 0x5E8 JUMPI PUSH1 0x40 MLOAD PUSH32 0x8C379A000000000000000000000000000000000000000000000000000000000 DUP2 MSTORE PUSH1 0x4 ADD PUSH2 0x5DF SWAP1 PUSH2 0xB31 JUMP JUMPDEST PUSH1 0x40 MLOAD DUP1 SWAP2 SUB SWAP1 REVERT JUMPDEST DUP2 DUP4 PUSH2 0x5F4 SWAP2 SWAP1 PUSH2 0xB7C JUMP JUMPDEST SWAP1 POP SWAP3 SWAP2 POP POP JUMP JUMPDEST PUSH0 PUSH0 REVERT JUMPDEST PUSH0 DUP2 SWAP1 POP SWAP2 SWAP1 POP JUMP JUMPDEST PUSH2 0x612 DUP2 PUSH2 0x600 JUMP JUMPDEST DUP2 EQ PUSH2 0x61C JUMPI PUSH0 PUSH0 REVERT JUMPDEST POP JUMP JUMPDEST PUSH0 DUP2 CALLDATALOAD SWAP1 POP PUSH2 0x62D DUP2 PUSH2 0x609 JUMP JUMPDEST SWAP3 SWAP2 POP POP JUMP JUMPDEST PUSH0 PUSH0 PUSH1 0x40 DUP4 DUP6 SUB SLT ISZERO PUSH2 0x649 JUMPI PUSH2 0x648 PUSH2 0x5FC JUMP JUMPDEST JUMPDEST PUSH0 PUSH2 0x656 DUP6 DUP3 DUP7 ADD PUSH2 0x61F JUMP JUMPDEST SWAP3 POP POP PUSH1 0x20 PUSH2 0x667 DUP6 DUP3 DUP7 ADD PUSH2 0x61F JUMP JUMPDEST SWAP2 POP POP SWAP3 POP SWAP3 SWAP1 POP JUMP JUMPDEST PUSH2 0x67A DUP2 PUSH2 0x600 JUMP JUMPDEST DUP3 MSTORE POP POP JUMP JUMPDEST PUSH0 PUSH1 0x20 DUP3 ADD SWAP1 POP PUSH2 0x693 PUSH0 DUP4 ADD DUP5 PUSH2 0x671 JUMP JUMPDEST SWAP3 SWAP2 POP POP JUMP JUMPDEST PUSH0 PUSH1 0x20 DUP3 DUP5 SUB SLT ISZERO PUSH2 0x6AE JUMPI PUSH2 0x6AD PUSH2 0x5FC JUMP JUMPDEST JUMPDEST PUSH0 PUSH2 0x6BB DUP5 DUP3 DUP6 ADD PUSH2 0x61F JUMP JUMPDEST SWAP2 POP POP SWAP3 SWAP2 POP POP JUMP JUMPDEST PUSH0 PUSH20 0xFFFFFFFFFFFFFFFFFFFFFFFFFFFFFFFFFFFFFFFF DUP3 AND SWAP1 POP SWAP2 SWAP1 POP JUMP JUMPDEST PUSH0 PUSH2 0x6ED DUP3 PUSH2 0x6C4 JUMP JUMPDEST SWAP1 POP SWAP2 SWAP1 POP JUMP JUMPDEST PUSH2 0x6FD DUP2 PUSH2 0x6E3 JUMP JUMPDEST DUP2 EQ PUSH2 0x707 JUMPI PUSH0 PUSH0 REVERT JUMPDEST POP JUMP JUMPDEST PUSH0 DUP2 CALLDATALOAD SWAP1 POP PUSH2 0x718 DUP2 PUSH2 0x6F4 JUMP JUMPDEST SWAP3 SWAP2 POP POP JUMP JUMPDEST PUSH0 PUSH1 0x20 DUP3 DUP5 SUB SLT ISZERO PUSH2 0x733 JUMPI PUSH2 0x732 PUSH2 0x5FC JUMP JUMPDEST JUMPDEST PUSH0 PUSH2 0x740 DUP5 DUP3 DUP6 ADD PUSH2 0x70A JUMP JUMPDEST SWAP2 POP POP SWAP3 SWAP2 POP POP JUMP JUMPDEST PUSH32 0x4E487B7100000000000000000000000000000000000000000000000000000000 PUSH0 MSTORE PUSH1 0x11 PUSH1 0x4 MSTORE PUSH1 0x24 PUSH0 REVERT JUMPDEST PUSH0 PUSH2 0x780 DUP3 PUSH2 0x600 JUMP JUMPDEST SWAP2 POP PUSH2 0x78B DUP4 PUSH2 0x600 JUMP JUMPDEST SWAP3 POP DUP3 DUP3 MUL PUSH2 0x799 DUP2 PUSH2 0x600 JUMP JUMPDEST SWAP2 POP DUP3 DUP3 DIV DUP5 EQ DUP4 ISZERO OR PUSH2 0x7B0 JUMPI PUSH2 0x7AF PUSH2 0x749 JUMP JUMPDEST JUMPDEST POP SWAP3 SWAP2 POP POP JUMP JUMPDEST PUSH0 DUP3 DUP3 MSTORE PUSH1 0x20 DUP3 ADD SWAP1 POP SWAP3 SWAP2 POP POP JUMP JUMPDEST PUSH32 0x43616E6E6F742063616C63756C6174652073717561726520726F6F74206F6620 PUSH0 DUP3 ADD MSTORE PUSH32 0x6E65676174697665206E756D6265720000000000000000000000000000000000 PUSH1 0x20 DUP3 ADD MSTORE POP JUMP JUMPDEST PUSH0 PUSH2 0x821 PUSH1 0x2F DUP4 PUSH2 0x7B7 JUMP JUMPDEST SWAP2 POP PUSH2 0x82C DUP3 PUSH2 0x7C7 JUMP JUMPDEST PUSH1 0x40 DUP3 ADD SWAP1 POP SWAP2 SWAP1 POP JUMP JUMPDEST PUSH0 PUSH1 0x20 DUP3 ADD SWAP1 POP DUP2 DUP2 SUB PUSH0 DUP4 ADD MSTORE PUSH2 0x84E DUP2 PUSH2 0x815 JUMP JUMPDEST SWAP1 POP SWAP2 SWAP1 POP JUMP JUMPDEST PUSH0 DUP2 MLOAD SWAP1 POP SWAP2 SWAP1 POP JUMP JUMPDEST PUSH0 DUP2 SWAP1 POP SWAP3 SWAP2 POP POP JUMP JUMPDEST DUP3 DUP2 DUP4 MCOPY PUSH0 DUP4 DUP4 ADD MSTORE POP POP POP JUMP JUMPDEST PUSH0 PUSH2 0x881 DUP3 PUSH2 0x855 JUMP JUMPDEST PUSH2 0x88B DUP2 DUP6 PUSH2 0x85F JUMP JUMPDEST SWAP4 POP PUSH2 0x89B DUP2 DUP6 PUSH1 0x20 DUP7 ADD PUSH2 0x869 JUMP JUMPDEST DUP1 DUP5 ADD SWAP2 POP POP SWAP3 SWAP2 POP POP JUMP JUMPDEST PUSH0 PUSH2 0x8B2 DUP3 DUP5 PUSH2 0x877 JUMP JUMPDEST SWAP2 POP DUP2 SWAP1 POP SWAP3 SWAP2 POP POP JUMP JUMPDEST PUSH32 0x45787465726E616C2063616C6C206661696C6564000000000000000000000000 PUSH0 DUP3 ADD MSTORE POP JUMP JUMPDEST PUSH0 PUSH2 0x8F1 PUSH1 0x14 DUP4 PUSH2 0x7B7 JUMP JUMPDEST SWAP2 POP PUSH2 0x8FC DUP3 PUSH2 0x8BD JUMP JUMPDEST PUSH1 0x20 DUP3 ADD SWAP1 POP SWAP2 SWAP1 POP JUMP JUMPDEST PUSH0 PUSH1 0x20 DUP3 ADD SWAP1 POP DUP2 DUP2 SUB PUSH0 DUP4 ADD MSTORE PUSH2 0x91E DUP2 PUSH2 0x8E5 JUMP JUMPDEST SWAP1 POP SWAP2 SWAP1 POP JUMP JUMPDEST PUSH0 DUP2 MLOAD SWAP1 POP PUSH2 0x933 DUP2 PUSH2 0x609 JUMP JUMPDEST SWAP3 SWAP2 POP POP JUMP JUMPDEST PUSH0 PUSH1 0x20 DUP3 DUP5 SUB SLT ISZERO PUSH2 0x94E JUMPI PUSH2 0x94D PUSH2 0x5FC JUMP JUMPDEST JUMPDEST PUSH0 PUSH2 0x95B DUP5 DUP3 DUP6 ADD PUSH2 0x925 JUMP JUMPDEST SWAP2 POP POP SWAP3 SWAP2 POP POP JUMP JUMPDEST PUSH0 PUSH2 0x96E DUP3 PUSH2 0x600 JUMP JUMPDEST SWAP2 POP PUSH2 0x979 DUP4 PUSH2 0x600 JUMP JUMPDEST SWAP3 POP DUP3 DUP3 SUB SWAP1 POP DUP2 DUP2 GT ISZERO PUSH2 0x991 JUMPI PUSH2 0x990 PUSH2 0x749 JUMP JUMPDEST JUMPDEST SWAP3 SWAP2 POP POP JUMP JUMPDEST PUSH32 0x4F6E6C79206F776E65722063616E20706572666F726D20746869732061637469 PUSH0 DUP3 ADD MSTORE PUSH32 0x6F6E000000000000000000000000000000000000000000000000000000000000 PUSH1 0x20 DUP3 ADD MSTORE POP JUMP JUMPDEST PUSH0 PUSH2 0x9F1 PUSH1 0x22 DUP4 PUSH2 0x7B7 JUMP JUMPDEST SWAP2 POP PUSH2 0x9FC DUP3 PUSH2 0x997 JUMP JUMPDEST PUSH1 0x40 DUP3 ADD SWAP1 POP SWAP2 SWAP1 POP JUMP JUMPDEST PUSH0 PUSH1 0x20 DUP3 ADD SWAP1 POP DUP2 DUP2 SUB PUSH0 DUP4 ADD MSTORE PUSH2 0xA1E DUP2 PUSH2 0x9E5 JUMP JUMPDEST SWAP1 POP SWAP2 SWAP1 POP JUMP JUMPDEST PUSH32 0x496E76616C696420616464726573730000000000000000000000000000000000 PUSH0 DUP3 ADD MSTORE POP JUMP JUMPDEST PUSH0 PUSH2 0xA59 PUSH1 0xF DUP4 PUSH2 0x7B7 JUMP JUMPDEST SWAP2 POP PUSH2 0xA64 DUP3 PUSH2 0xA25 JUMP JUMPDEST PUSH1 0x20 DUP3 ADD SWAP1 POP SWAP2 SWAP1 POP JUMP JUMPDEST PUSH0 PUSH1 0x20 DUP3 ADD SWAP1 POP DUP2 DUP2 SUB PUSH0 DUP4 ADD MSTORE PUSH2 0xA86 DUP2 PUSH2 0xA4D JUMP JUMPDEST SWAP1 POP SWAP2 SWAP1 POP JUMP JUMPDEST PUSH0 PUSH2 0xA97 DUP3 PUSH2 0x600 JUMP JUMPDEST SWAP2 POP PUSH2 0xAA2 DUP4 PUSH2 0x600 JUMP JUMPDEST SWAP3 POP DUP3 DUP3 ADD SWAP1 POP DUP1 DUP3 GT ISZERO PUSH2 0xABA JUMPI PUSH2 0xAB9 PUSH2 0x749 JUMP JUMPDEST JUMPDEST SWAP3 SWAP2 POP POP JUMP JUMPDEST PUSH0 PUSH1 0x40 DUP3 ADD SWAP1 POP PUSH2 0xAD3 PUSH0 DUP4 ADD DUP6 PUSH2 0x671 JUMP JUMPDEST PUSH2 0xAE0 PUSH1 0x20 DUP4 ADD DUP5 PUSH2 0x671 JUMP JUMPDEST SWAP4 SWAP3 POP POP POP JUMP JUMPDEST PUSH32 0x43616E6E6F7420646976696465206279207A65726F0000000000000000000000 PUSH0 DUP3 ADD MSTORE POP JUMP JUMPDEST PUSH0 PUSH2 0xB1B PUSH1 0x15 DUP4 PUSH2 0x7B7 JUMP JUMPDEST SWAP2 POP PUSH2 0xB26 DUP3 PUSH2 0xAE7 JUMP JUMPDEST PUSH1 0x20 DUP3 ADD SWAP1 POP SWAP2 SWAP1 POP JUMP JUMPDEST PUSH0 PUSH1 0x20 DUP3 ADD SWAP1 POP DUP2 DUP2 SUB PUSH0 DUP4 ADD MSTORE PUSH2 0xB48 DUP2 PUSH2 0xB0F JUMP JUMPDEST SWAP1 POP SWAP2 SWAP1 POP JUMP JUMPDEST PUSH32 0x4E487B7100000000000000000000000000000000000000000000000000000000 PUSH0 MSTORE PUSH1 0x12 PUSH1 0x4 MSTORE PUSH1 0x24 PUSH0 REVERT JUMPDEST PUSH0 PUSH2 0xB86 DUP3 PUSH2 0x600 JUMP JUMPDEST SWAP2 POP PUSH2 0xB91 DUP4 PUSH2 0x600 JUMP JUMPDEST SWAP3 POP DUP3 PUSH2 0xBA1 JUMPI PUSH2 0xBA0 PUSH2 0xB4F JUMP JUMPDEST JUMPDEST DUP3 DUP3 DIV SWAP1 POP SWAP3 SWAP2 POP POP JUMP INVALID LOG2 PUSH5 0x6970667358 0x22 SLT KECCAK256 PUSH20 0x1EDFBB243B9C5C561E3DC53020CCBC5F9A07B63F SELFBALANCE EXTSTATICCALL PC 0xC0 EXTCODESIZE SWAP14 0xA9 0x4F PUSH15 0x142564736F6C634300081E00330000 "
				},
				"gasEstimates": {
					"creation": {
						"codeDepositCost": "608400",
						"executionCost": "24907",
						"totalCost": "633307"
					},
					"external": {
						"add(uint256,uint256)": "infinite",
						"divide(uint256,uint256)": "infinite",
						"multiply(uint256,uint256)": "infinite",
						"power(uint256,uint256)": "infinite",
						"setScientificCalculatorAddress(address)": "26917",
						"subtract(uint256,uint256)": "infinite",
						"suqareRoot(uint256)": "infinite"
					}
				},
				"methodIdentifiers": {
					"add(uint256,uint256)": "771602f7",
					"divide(uint256,uint256)": "f88e9fbf",
					"multiply(uint256,uint256)": "165c4a16",
					"power(uint256,uint256)": "c04f01fc",
					"setScientificCalculatorAddress(address)": "45f2fca4",
					"subtract(uint256,uint256)": "3ef5e445",
					"suqareRoot(uint256)": "278ccfdb"
				}
			},
			"storageLayout": {
				"storage": [
					{
						"astId": 4,
						"contract": "submissions/Vera/day9/Calculator.sol:Calculator",
						"label": "owner",
						"offset": 0,
						"slot": "0",
						"type": "t_address"
					},
					{
						"astId": 6,
						"contract": "submissions/Vera/day9/Calculator.sol:Calculator",
						"label": "scientificCalculatorAddress",
						"offset": 0,
						"slot": "1",
						"type": "t_address"
					}
				],
				"types": {
					"t_address": {
						"encoding": "inplace",
						"label": "address",
						"numberOfBytes": "20"
					}
				}
			},
			"userdoc": {
				"kind": "user",
				"methods": {},
				"version": 1
			}
		}
	}
}