{
	"submissions/Vera/day9/ScientificCalculator.sol": {
		"ScientificCalculator": {
			"abi": [
				{
					"inputs": [
						{
							"internalType": "uint256",
							"name": "base",
							"type": "uint256"
						},
						{
							"internalType": "uint256",
							"name": "exponent",
							"type": "uint256"
						}
					],
					"name": "power",
					"outputs": [
						{
							"internalType": "uint256",
							"name": "",
							"type": "uint256"
						}
					],
					"stateMutability": "pure",
					"type": "function"
				},
				{
					"inputs": [
						{
							"internalType": "uint256",
							"name": "number",
							"type": "uint256"
						}
					],
					"name": "suqareRoot",
					"outputs": [
						{
							"internalType": "uint256",
							"name": "",
							"type": "uint256"
						}
					],
					"stateMutability": "pure",
					"type": "function"
				}
			],
			"devdoc": {
				"kind": "dev",
				"methods": {},
				"version": 1
			},
			"evm": {
				"assembly": "    /* \"submissions/Vera/day9/ScientificCalculator.sol\":62:661  contract ScientificCalculator {... */\n  mstore(0x40, 0x80)\n  callvalue\n  dup1\n  iszero\n  tag_1\n  jumpi\n  revert(0x00, 0x00)\ntag_1:\n  pop\n  dataSize(sub_0)\n  dup1\n  dataOffset(sub_0)\n  0x00\n  codecopy\n  0x00\n  return\nstop\n\nsub_0: assembly {\n        /* \"submissions/Vera/day9/ScientificCalculator.sol\":62:661  contract ScientificCalculator {... */\n      mstore(0x40, 0x80)\n      callvalue\n      dup1\n      iszero\n      tag_1\n      jumpi\n      revert(0x00, 0x00)\n    tag_1:\n      pop\n      jumpi(tag_2, lt(calldatasize, 0x04))\n      shr(0xe0, calldataload(0x00))\n      dup1\n      0x278ccfdb\n      eq\n      tag_3\n      jumpi\n      dup1\n      0xc04f01fc\n      eq\n      tag_4\n      jumpi\n    tag_2:\n      revert(0x00, 0x00)\n        /* \"submissions/Vera/day9/ScientificCalculator.sol\":269:658  function suqareRoot(uint256 number)public pure returns (uint256){... */\n    tag_3:\n      tag_5\n      0x04\n      dup1\n      calldatasize\n      sub\n      dup2\n      add\n      swap1\n      tag_6\n      swap2\n      swap1\n      tag_7\n      jump\t// in\n    tag_6:\n      tag_8\n      jump\t// in\n    tag_5:\n      mload(0x40)\n      tag_9\n      swap2\n      swap1\n      tag_10\n      jump\t// in\n    tag_9:\n      mload(0x40)\n      dup1\n      swap2\n      sub\n      swap1\n      return\n        /* \"submissions/Vera/day9/ScientificCalculator.sol\":99:261  function power(uint256 base,uint256 exponent) public pure returns (uint256){... */\n    tag_4:\n      tag_11\n      0x04\n      dup1\n      calldatasize\n      sub\n      dup2\n      add\n      swap1\n      tag_12\n      swap2\n      swap1\n      tag_13\n      jump\t// in\n    tag_12:\n      tag_14\n      jump\t// in\n    tag_11:\n      mload(0x40)\n      tag_15\n      swap2\n      swap1\n      tag_10\n      jump\t// in\n    tag_15:\n      mload(0x40)\n      dup1\n      swap2\n      sub\n      swap1\n      return\n        /* \"submissions/Vera/day9/ScientificCalculator.sol\":269:658  function suqareRoot(uint256 number)public pure returns (uint256){... */\n    tag_8:\n        /* \"submissions/Vera/day9/ScientificCalculator.sol\":325:332  uint256 */\n      0x00\n        /* \"submissions/Vera/day9/ScientificCalculator.sol\":360:361  0 */\n      0x00\n        /* \"submissions/Vera/day9/ScientificCalculator.sol\":352:358  number */\n      dup3\n        /* \"submissions/Vera/day9/ScientificCalculator.sol\":352:361  number>=0 */\n      lt\n      iszero\n        /* \"submissions/Vera/day9/ScientificCalculator.sol\":344:412  require(number>=0,\"Cannot calculate square root of negative number\") */\n      tag_17\n      jumpi\n      mload(0x40)\n      0x08c379a000000000000000000000000000000000000000000000000000000000\n      dup2\n      mstore\n      0x04\n      add\n      tag_18\n      swap1\n      tag_19\n      jump\t// in\n    tag_18:\n      mload(0x40)\n      dup1\n      swap2\n      sub\n      swap1\n      revert\n    tag_17:\n        /* \"submissions/Vera/day9/ScientificCalculator.sol\":436:437  0 */\n      0x00\n        /* \"submissions/Vera/day9/ScientificCalculator.sol\":426:432  number */\n      dup3\n        /* \"submissions/Vera/day9/ScientificCalculator.sol\":426:437  number == 0 */\n      sub\n        /* \"submissions/Vera/day9/ScientificCalculator.sol\":423:651  if(number == 0) return 0;... */\n      tag_20\n      jumpi\n        /* \"submissions/Vera/day9/ScientificCalculator.sol\":446:447  0 */\n      0x00\n        /* \"submissions/Vera/day9/ScientificCalculator.sol\":439:447  return 0 */\n      swap1\n      pop\n      jump(tag_16)\n        /* \"submissions/Vera/day9/ScientificCalculator.sol\":423:651  if(number == 0) return 0;... */\n    tag_20:\n        /* \"submissions/Vera/day9/ScientificCalculator.sol\":478:492  uint256 result */\n      0x00\n        /* \"submissions/Vera/day9/ScientificCalculator.sol\":502:503  2 */\n      0x02\n        /* \"submissions/Vera/day9/ScientificCalculator.sol\":495:501  number */\n      dup4\n        /* \"submissions/Vera/day9/ScientificCalculator.sol\":495:503  number/2 */\n      tag_22\n      swap2\n      swap1\n      tag_23\n      jump\t// in\n    tag_22:\n        /* \"submissions/Vera/day9/ScientificCalculator.sol\":478:503  uint256 result = number/2 */\n      swap1\n      pop\n        /* \"submissions/Vera/day9/ScientificCalculator.sol\":523:529  uint i */\n      0x00\n        /* \"submissions/Vera/day9/ScientificCalculator.sol\":530:531  0 */\n      0x00\n        /* \"submissions/Vera/day9/ScientificCalculator.sol\":523:531  uint i=0 */\n      swap1\n      pop\n        /* \"submissions/Vera/day9/ScientificCalculator.sol\":518:612  for (uint i=0;i<=10;i++){... */\n    tag_24:\n        /* \"submissions/Vera/day9/ScientificCalculator.sol\":535:537  10 */\n      0x0a\n        /* \"submissions/Vera/day9/ScientificCalculator.sol\":532:533  i */\n      dup2\n        /* \"submissions/Vera/day9/ScientificCalculator.sol\":532:537  i<=10 */\n      gt\n        /* \"submissions/Vera/day9/ScientificCalculator.sol\":518:612  for (uint i=0;i<=10;i++){... */\n      tag_25\n      jumpi\n        /* \"submissions/Vera/day9/ScientificCalculator.sol\":595:596  2 */\n      0x02\n        /* \"submissions/Vera/day9/ScientificCalculator.sol\":587:593  result */\n      dup3\n        /* \"submissions/Vera/day9/ScientificCalculator.sol\":580:586  number */\n      dup6\n        /* \"submissions/Vera/day9/ScientificCalculator.sol\":580:593  number/result */\n      tag_27\n      swap2\n      swap1\n      tag_23\n      jump\t// in\n    tag_27:\n        /* \"submissions/Vera/day9/ScientificCalculator.sol\":571:577  result */\n      dup4\n        /* \"submissions/Vera/day9/ScientificCalculator.sol\":571:593  result + number/result */\n      tag_28\n      swap2\n      swap1\n      tag_29\n      jump\t// in\n    tag_28:\n        /* \"submissions/Vera/day9/ScientificCalculator.sol\":570:596  (result + number/result)/2 */\n      tag_30\n      swap2\n      swap1\n      tag_23\n      jump\t// in\n    tag_30:\n        /* \"submissions/Vera/day9/ScientificCalculator.sol\":561:596  result = (result + number/result)/2 */\n      swap2\n      pop\n        /* \"submissions/Vera/day9/ScientificCalculator.sol\":538:541  i++ */\n      dup1\n      dup1\n      tag_31\n      swap1\n      tag_32\n      jump\t// in\n    tag_31:\n      swap2\n      pop\n      pop\n        /* \"submissions/Vera/day9/ScientificCalculator.sol\":518:612  for (uint i=0;i<=10;i++){... */\n      jump(tag_24)\n    tag_25:\n      pop\n        /* \"submissions/Vera/day9/ScientificCalculator.sol\":633:639  result */\n      dup1\n        /* \"submissions/Vera/day9/ScientificCalculator.sol\":626:639  return result */\n      swap2\n      pop\n      pop\n        /* \"submissions/Vera/day9/ScientificCalculator.sol\":269:658  function suqareRoot(uint256 number)public pure returns (uint256){... */\n    tag_16:\n      swap2\n      swap1\n      pop\n      jump\t// out\n        /* \"submissions/Vera/day9/ScientificCalculator.sol\":99:261  function power(uint256 base,uint256 exponent) public pure returns (uint256){... */\n    tag_14:\n        /* \"submissions/Vera/day9/ScientificCalculator.sol\":166:173  uint256 */\n      0x00\n        /* \"submissions/Vera/day9/ScientificCalculator.sol\":201:202  0 */\n      0x00\n        /* \"submissions/Vera/day9/ScientificCalculator.sol\":189:197  exponent */\n      dup3\n        /* \"submissions/Vera/day9/ScientificCalculator.sol\":189:202  exponent == 0 */\n      sub\n        /* \"submissions/Vera/day9/ScientificCalculator.sol\":185:253  if (exponent == 0) return 1;... */\n      tag_34\n      jumpi\n        /* \"submissions/Vera/day9/ScientificCalculator.sol\":211:212  1 */\n      0x01\n        /* \"submissions/Vera/day9/ScientificCalculator.sol\":204:212  return 1 */\n      swap1\n      pop\n      jump(tag_33)\n        /* \"submissions/Vera/day9/ScientificCalculator.sol\":185:253  if (exponent == 0) return 1;... */\n    tag_34:\n        /* \"submissions/Vera/day9/ScientificCalculator.sol\":244:252  exponent */\n      dup2\n        /* \"submissions/Vera/day9/ScientificCalculator.sol\":236:240  base */\n      dup4\n        /* \"submissions/Vera/day9/ScientificCalculator.sol\":236:252  base ** exponent */\n      tag_36\n      swap2\n      swap1\n      tag_37\n      jump\t// in\n    tag_36:\n        /* \"submissions/Vera/day9/ScientificCalculator.sol\":228:253  return (base ** exponent) */\n      swap1\n      pop\n        /* \"submissions/Vera/day9/ScientificCalculator.sol\":99:261  function power(uint256 base,uint256 exponent) public pure returns (uint256){... */\n    tag_33:\n      swap3\n      swap2\n      pop\n      pop\n      jump\t// out\n        /* \"#utility.yul\":88:205   */\n    tag_39:\n        /* \"#utility.yul\":197:198   */\n      0x00\n        /* \"#utility.yul\":194:195   */\n      0x00\n        /* \"#utility.yul\":187:199   */\n      revert\n        /* \"#utility.yul\":334:411   */\n    tag_41:\n        /* \"#utility.yul\":371:378   */\n      0x00\n        /* \"#utility.yul\":400:405   */\n      dup2\n        /* \"#utility.yul\":389:405   */\n      swap1\n      pop\n        /* \"#utility.yul\":334:411   */\n      swap2\n      swap1\n      pop\n      jump\t// out\n        /* \"#utility.yul\":417:539   */\n    tag_42:\n        /* \"#utility.yul\":490:514   */\n      tag_59\n        /* \"#utility.yul\":508:513   */\n      dup2\n        /* \"#utility.yul\":490:514   */\n      tag_41\n      jump\t// in\n    tag_59:\n        /* \"#utility.yul\":483:488   */\n      dup2\n        /* \"#utility.yul\":480:515   */\n      eq\n        /* \"#utility.yul\":470:533   */\n      tag_60\n      jumpi\n        /* \"#utility.yul\":529:530   */\n      0x00\n        /* \"#utility.yul\":526:527   */\n      0x00\n        /* \"#utility.yul\":519:531   */\n      revert\n        /* \"#utility.yul\":470:533   */\n    tag_60:\n        /* \"#utility.yul\":417:539   */\n      pop\n      jump\t// out\n        /* \"#utility.yul\":545:684   */\n    tag_43:\n        /* \"#utility.yul\":591:596   */\n      0x00\n        /* \"#utility.yul\":629:635   */\n      dup2\n        /* \"#utility.yul\":616:636   */\n      calldataload\n        /* \"#utility.yul\":607:636   */\n      swap1\n      pop\n        /* \"#utility.yul\":645:678   */\n      tag_62\n        /* \"#utility.yul\":672:677   */\n      dup2\n        /* \"#utility.yul\":645:678   */\n      tag_42\n      jump\t// in\n    tag_62:\n        /* \"#utility.yul\":545:684   */\n      swap3\n      swap2\n      pop\n      pop\n      jump\t// out\n        /* \"#utility.yul\":690:1019   */\n    tag_7:\n        /* \"#utility.yul\":749:755   */\n      0x00\n        /* \"#utility.yul\":798:800   */\n      0x20\n        /* \"#utility.yul\":786:795   */\n      dup3\n        /* \"#utility.yul\":777:784   */\n      dup5\n        /* \"#utility.yul\":773:796   */\n      sub\n        /* \"#utility.yul\":769:801   */\n      slt\n        /* \"#utility.yul\":766:885   */\n      iszero\n      tag_64\n      jumpi\n        /* \"#utility.yul\":804:883   */\n      tag_65\n      tag_39\n      jump\t// in\n    tag_65:\n        /* \"#utility.yul\":766:885   */\n    tag_64:\n        /* \"#utility.yul\":924:925   */\n      0x00\n        /* \"#utility.yul\":949:1002   */\n      tag_66\n        /* \"#utility.yul\":994:1001   */\n      dup5\n        /* \"#utility.yul\":985:991   */\n      dup3\n        /* \"#utility.yul\":974:983   */\n      dup6\n        /* \"#utility.yul\":970:992   */\n      add\n        /* \"#utility.yul\":949:1002   */\n      tag_43\n      jump\t// in\n    tag_66:\n        /* \"#utility.yul\":939:1002   */\n      swap2\n      pop\n        /* \"#utility.yul\":895:1012   */\n      pop\n        /* \"#utility.yul\":690:1019   */\n      swap3\n      swap2\n      pop\n      pop\n      jump\t// out\n        /* \"#utility.yul\":1025:1143   */\n    tag_44:\n        /* \"#utility.yul\":1112:1136   */\n      tag_68\n        /* \"#utility.yul\":1130:1135   */\n      dup2\n        /* \"#utility.yul\":1112:1136   */\n      tag_41\n      jump\t// in\n    tag_68:\n        /* \"#utility.yul\":1107:1110   */\n      dup3\n        /* \"#utility.yul\":1100:1137   */\n      mstore\n        /* \"#utility.yul\":1025:1143   */\n      pop\n      pop\n      jump\t// out\n        /* \"#utility.yul\":1149:1371   */\n    tag_10:\n        /* \"#utility.yul\":1242:1246   */\n      0x00\n        /* \"#utility.yul\":1280:1282   */\n      0x20\n        /* \"#utility.yul\":1269:1278   */\n      dup3\n        /* \"#utility.yul\":1265:1283   */\n      add\n        /* \"#utility.yul\":1257:1283   */\n      swap1\n      pop\n        /* \"#utility.yul\":1293:1364   */\n      tag_70\n        /* \"#utility.yul\":1361:1362   */\n      0x00\n        /* \"#utility.yul\":1350:1359   */\n      dup4\n        /* \"#utility.yul\":1346:1363   */\n      add\n        /* \"#utility.yul\":1337:1343   */\n      dup5\n        /* \"#utility.yul\":1293:1364   */\n      tag_44\n      jump\t// in\n    tag_70:\n        /* \"#utility.yul\":1149:1371   */\n      swap3\n      swap2\n      pop\n      pop\n      jump\t// out\n        /* \"#utility.yul\":1377:1851   */\n    tag_13:\n        /* \"#utility.yul\":1445:1451   */\n      0x00\n        /* \"#utility.yul\":1453:1459   */\n      0x00\n        /* \"#utility.yul\":1502:1504   */\n      0x40\n        /* \"#utility.yul\":1490:1499   */\n      dup4\n        /* \"#utility.yul\":1481:1488   */\n      dup6\n        /* \"#utility.yul\":1477:1500   */\n      sub\n        /* \"#utility.yul\":1473:1505   */\n      slt\n        /* \"#utility.yul\":1470:1589   */\n      iszero\n      tag_72\n      jumpi\n        /* \"#utility.yul\":1508:1587   */\n      tag_73\n      tag_39\n      jump\t// in\n    tag_73:\n        /* \"#utility.yul\":1470:1589   */\n    tag_72:\n        /* \"#utility.yul\":1628:1629   */\n      0x00\n        /* \"#utility.yul\":1653:1706   */\n      tag_74\n        /* \"#utility.yul\":1698:1705   */\n      dup6\n        /* \"#utility.yul\":1689:1695   */\n      dup3\n        /* \"#utility.yul\":1678:1687   */\n      dup7\n        /* \"#utility.yul\":1674:1696   */\n      add\n        /* \"#utility.yul\":1653:1706   */\n      tag_43\n      jump\t// in\n    tag_74:\n        /* \"#utility.yul\":1643:1706   */\n      swap3\n      pop\n        /* \"#utility.yul\":1599:1716   */\n      pop\n        /* \"#utility.yul\":1755:1757   */\n      0x20\n        /* \"#utility.yul\":1781:1834   */\n      tag_75\n        /* \"#utility.yul\":1826:1833   */\n      dup6\n        /* \"#utility.yul\":1817:1823   */\n      dup3\n        /* \"#utility.yul\":1806:1815   */\n      dup7\n        /* \"#utility.yul\":1802:1824   */\n      add\n        /* \"#utility.yul\":1781:1834   */\n      tag_43\n      jump\t// in\n    tag_75:\n        /* \"#utility.yul\":1771:1834   */\n      swap2\n      pop\n        /* \"#utility.yul\":1726:1844   */\n      pop\n        /* \"#utility.yul\":1377:1851   */\n      swap3\n      pop\n      swap3\n      swap1\n      pop\n      jump\t// out\n        /* \"#utility.yul\":1857:2026   */\n    tag_45:\n        /* \"#utility.yul\":1941:1952   */\n      0x00\n        /* \"#utility.yul\":1975:1981   */\n      dup3\n        /* \"#utility.yul\":1970:1973   */\n      dup3\n        /* \"#utility.yul\":1963:1982   */\n      mstore\n        /* \"#utility.yul\":2015:2019   */\n      0x20\n        /* \"#utility.yul\":2010:2013   */\n      dup3\n        /* \"#utility.yul\":2006:2020   */\n      add\n        /* \"#utility.yul\":1991:2020   */\n      swap1\n      pop\n        /* \"#utility.yul\":1857:2026   */\n      swap3\n      swap2\n      pop\n      pop\n      jump\t// out\n        /* \"#utility.yul\":2032:2266   */\n    tag_46:\n        /* \"#utility.yul\":2172:2206   */\n      0x43616e6e6f742063616c63756c6174652073717561726520726f6f74206f6620\n        /* \"#utility.yul\":2168:2169   */\n      0x00\n        /* \"#utility.yul\":2160:2166   */\n      dup3\n        /* \"#utility.yul\":2156:2170   */\n      add\n        /* \"#utility.yul\":2149:2207   */\n      mstore\n        /* \"#utility.yul\":2241:2258   */\n      0x6e65676174697665206e756d6265720000000000000000000000000000000000\n        /* \"#utility.yul\":2236:2238   */\n      0x20\n        /* \"#utility.yul\":2228:2234   */\n      dup3\n        /* \"#utility.yul\":2224:2239   */\n      add\n        /* \"#utility.yul\":2217:2259   */\n      mstore\n        /* \"#utility.yul\":2032:2266   */\n      pop\n      jump\t// out\n        /* \"#utility.yul\":2272:2638   */\n    tag_47:\n        /* \"#utility.yul\":2414:2417   */\n      0x00\n        /* \"#utility.yul\":2435:2502   */\n      tag_79\n        /* \"#utility.yul\":2499:2501   */\n      0x2f\n        /* \"#utility.yul\":2494:2497   */\n      dup4\n        /* \"#utility.yul\":2435:2502   */\n      tag_45\n      jump\t// in\n    tag_79:\n        /* \"#utility.yul\":2428:2502   */\n      swap2\n      pop\n        /* \"#utility.yul\":2511:2604   */\n      tag_80\n        /* \"#utility.yul\":2600:2603   */\n      dup3\n        /* \"#utility.yul\":2511:2604   */\n      tag_46\n      jump\t// in\n    tag_80:\n        /* \"#utility.yul\":2629:2631   */\n      0x40\n        /* \"#utility.yul\":2624:2627   */\n      dup3\n        /* \"#utility.yul\":2620:2632   */\n      add\n        /* \"#utility.yul\":2613:2632   */\n      swap1\n      pop\n        /* \"#utility.yul\":2272:2638   */\n      swap2\n      swap1\n      pop\n      jump\t// out\n        /* \"#utility.yul\":2644:3063   */\n    tag_19:\n        /* \"#utility.yul\":2810:2814   */\n      0x00\n        /* \"#utility.yul\":2848:2850   */\n      0x20\n        /* \"#utility.yul\":2837:2846   */\n      dup3\n        /* \"#utility.yul\":2833:2851   */\n      add\n        /* \"#utility.yul\":2825:2851   */\n      swap1\n      pop\n        /* \"#utility.yul\":2897:2906   */\n      dup2\n        /* \"#utility.yul\":2891:2895   */\n      dup2\n        /* \"#utility.yul\":2887:2907   */\n      sub\n        /* \"#utility.yul\":2883:2884   */\n      0x00\n        /* \"#utility.yul\":2872:2881   */\n      dup4\n        /* \"#utility.yul\":2868:2885   */\n      add\n        /* \"#utility.yul\":2861:2908   */\n      mstore\n        /* \"#utility.yul\":2925:3056   */\n      tag_82\n        /* \"#utility.yul\":3051:3055   */\n      dup2\n        /* \"#utility.yul\":2925:3056   */\n      tag_47\n      jump\t// in\n    tag_82:\n        /* \"#utility.yul\":2917:3056   */\n      swap1\n      pop\n        /* \"#utility.yul\":2644:3063   */\n      swap2\n      swap1\n      pop\n      jump\t// out\n        /* \"#utility.yul\":3069:3249   */\n    tag_48:\n        /* \"#utility.yul\":3117:3194   */\n      0x4e487b7100000000000000000000000000000000000000000000000000000000\n        /* \"#utility.yul\":3114:3115   */\n      0x00\n        /* \"#utility.yul\":3107:3195   */\n      mstore\n        /* \"#utility.yul\":3214:3218   */\n      0x12\n        /* \"#utility.yul\":3211:3212   */\n      0x04\n        /* \"#utility.yul\":3204:3219   */\n      mstore\n        /* \"#utility.yul\":3238:3242   */\n      0x24\n        /* \"#utility.yul\":3235:3236   */\n      0x00\n        /* \"#utility.yul\":3228:3243   */\n      revert\n        /* \"#utility.yul\":3255:3435   */\n    tag_49:\n        /* \"#utility.yul\":3303:3380   */\n      0x4e487b7100000000000000000000000000000000000000000000000000000000\n        /* \"#utility.yul\":3300:3301   */\n      0x00\n        /* \"#utility.yul\":3293:3381   */\n      mstore\n        /* \"#utility.yul\":3400:3404   */\n      0x11\n        /* \"#utility.yul\":3397:3398   */\n      0x04\n        /* \"#utility.yul\":3390:3405   */\n      mstore\n        /* \"#utility.yul\":3424:3428   */\n      0x24\n        /* \"#utility.yul\":3421:3422   */\n      0x00\n        /* \"#utility.yul\":3414:3429   */\n      revert\n        /* \"#utility.yul\":3441:3626   */\n    tag_23:\n        /* \"#utility.yul\":3481:3482   */\n      0x00\n        /* \"#utility.yul\":3498:3518   */\n      tag_86\n        /* \"#utility.yul\":3516:3517   */\n      dup3\n        /* \"#utility.yul\":3498:3518   */\n      tag_41\n      jump\t// in\n    tag_86:\n        /* \"#utility.yul\":3493:3518   */\n      swap2\n      pop\n        /* \"#utility.yul\":3532:3552   */\n      tag_87\n        /* \"#utility.yul\":3550:3551   */\n      dup4\n        /* \"#utility.yul\":3532:3552   */\n      tag_41\n      jump\t// in\n    tag_87:\n        /* \"#utility.yul\":3527:3552   */\n      swap3\n      pop\n        /* \"#utility.yul\":3571:3572   */\n      dup3\n        /* \"#utility.yul\":3561:3596   */\n      tag_88\n      jumpi\n        /* \"#utility.yul\":3576:3594   */\n      tag_89\n      tag_48\n      jump\t// in\n    tag_89:\n        /* \"#utility.yul\":3561:3596   */\n    tag_88:\n        /* \"#utility.yul\":3618:3619   */\n      dup3\n        /* \"#utility.yul\":3615:3616   */\n      dup3\n        /* \"#utility.yul\":3611:3620   */\n      div\n        /* \"#utility.yul\":3606:3620   */\n      swap1\n      pop\n        /* \"#utility.yul\":3441:3626   */\n      swap3\n      swap2\n      pop\n      pop\n      jump\t// out\n        /* \"#utility.yul\":3632:3823   */\n    tag_29:\n        /* \"#utility.yul\":3672:3675   */\n      0x00\n        /* \"#utility.yul\":3691:3711   */\n      tag_91\n        /* \"#utility.yul\":3709:3710   */\n      dup3\n        /* \"#utility.yul\":3691:3711   */\n      tag_41\n      jump\t// in\n    tag_91:\n        /* \"#utility.yul\":3686:3711   */\n      swap2\n      pop\n        /* \"#utility.yul\":3725:3745   */\n      tag_92\n        /* \"#utility.yul\":3743:3744   */\n      dup4\n        /* \"#utility.yul\":3725:3745   */\n      tag_41\n      jump\t// in\n    tag_92:\n        /* \"#utility.yul\":3720:3745   */\n      swap3\n      pop\n        /* \"#utility.yul\":3768:3769   */\n      dup3\n        /* \"#utility.yul\":3765:3766   */\n      dup3\n        /* \"#utility.yul\":3761:3770   */\n      add\n        /* \"#utility.yul\":3754:3770   */\n      swap1\n      pop\n        /* \"#utility.yul\":3789:3792   */\n      dup1\n        /* \"#utility.yul\":3786:3787   */\n      dup3\n        /* \"#utility.yul\":3783:3793   */\n      gt\n        /* \"#utility.yul\":3780:3816   */\n      iszero\n      tag_93\n      jumpi\n        /* \"#utility.yul\":3796:3814   */\n      tag_94\n      tag_49\n      jump\t// in\n    tag_94:\n        /* \"#utility.yul\":3780:3816   */\n    tag_93:\n        /* \"#utility.yul\":3632:3823   */\n      swap3\n      swap2\n      pop\n      pop\n      jump\t// out\n        /* \"#utility.yul\":3829:4062   */\n    tag_32:\n        /* \"#utility.yul\":3868:3871   */\n      0x00\n        /* \"#utility.yul\":3891:3915   */\n      tag_96\n        /* \"#utility.yul\":3909:3914   */\n      dup3\n        /* \"#utility.yul\":3891:3915   */\n      tag_41\n      jump\t// in\n    tag_96:\n        /* \"#utility.yul\":3882:3915   */\n      swap2\n      pop\n        /* \"#utility.yul\":3937:4003   */\n      0xffffffffffffffffffffffffffffffffffffffffffffffffffffffffffffffff\n        /* \"#utility.yul\":3930:3935   */\n      dup3\n        /* \"#utility.yul\":3927:4004   */\n      sub\n        /* \"#utility.yul\":3924:4027   */\n      tag_97\n      jumpi\n        /* \"#utility.yul\":4007:4025   */\n      tag_98\n      tag_49\n      jump\t// in\n    tag_98:\n        /* \"#utility.yul\":3924:4027   */\n    tag_97:\n        /* \"#utility.yul\":4054:4055   */\n      0x01\n        /* \"#utility.yul\":4047:4052   */\n      dup3\n        /* \"#utility.yul\":4043:4056   */\n      add\n        /* \"#utility.yul\":4036:4056   */\n      swap1\n      pop\n        /* \"#utility.yul\":3829:4062   */\n      swap2\n      swap1\n      pop\n      jump\t// out\n        /* \"#utility.yul\":4068:4170   */\n    tag_50:\n        /* \"#utility.yul\":4110:4118   */\n      0x00\n        /* \"#utility.yul\":4157:4162   */\n      dup2\n        /* \"#utility.yul\":4154:4155   */\n      0x01\n        /* \"#utility.yul\":4150:4163   */\n      shr\n        /* \"#utility.yul\":4129:4163   */\n      swap1\n      pop\n        /* \"#utility.yul\":4068:4170   */\n      swap2\n      swap1\n      pop\n      jump\t// out\n        /* \"#utility.yul\":4176:5024   */\n    tag_51:\n        /* \"#utility.yul\":4237:4242   */\n      0x00\n        /* \"#utility.yul\":4244:4248   */\n      0x00\n        /* \"#utility.yul\":4268:4274   */\n      dup3\n        /* \"#utility.yul\":4259:4274   */\n      swap2\n      pop\n        /* \"#utility.yul\":4292:4297   */\n      dup4\n        /* \"#utility.yul\":4283:4297   */\n      swap1\n      pop\n        /* \"#utility.yul\":4306:5018   */\n    tag_101:\n        /* \"#utility.yul\":4327:4328   */\n      0x01\n        /* \"#utility.yul\":4317:4325   */\n      dup6\n        /* \"#utility.yul\":4314:4329   */\n      gt\n        /* \"#utility.yul\":4306:5018   */\n      iszero\n      tag_103\n      jumpi\n        /* \"#utility.yul\":4422:4426   */\n      dup1\n        /* \"#utility.yul\":4417:4420   */\n      dup7\n        /* \"#utility.yul\":4413:4427   */\n      div\n        /* \"#utility.yul\":4407:4411   */\n      dup2\n        /* \"#utility.yul\":4404:4428   */\n      gt\n        /* \"#utility.yul\":4401:4451   */\n      iszero\n      tag_104\n      jumpi\n        /* \"#utility.yul\":4431:4449   */\n      tag_105\n      tag_49\n      jump\t// in\n    tag_105:\n        /* \"#utility.yul\":4401:4451   */\n    tag_104:\n        /* \"#utility.yul\":4481:4482   */\n      0x01\n        /* \"#utility.yul\":4471:4479   */\n      dup6\n        /* \"#utility.yul\":4467:4483   */\n      and\n        /* \"#utility.yul\":4464:4915   */\n      iszero\n      tag_106\n      jumpi\n        /* \"#utility.yul\":4896:4900   */\n      dup1\n        /* \"#utility.yul\":4889:4894   */\n      dup3\n        /* \"#utility.yul\":4885:4901   */\n      mul\n        /* \"#utility.yul\":4876:4901   */\n      swap2\n      pop\n        /* \"#utility.yul\":4464:4915   */\n    tag_106:\n        /* \"#utility.yul\":4946:4950   */\n      dup1\n        /* \"#utility.yul\":4940:4944   */\n      dup2\n        /* \"#utility.yul\":4936:4951   */\n      mul\n        /* \"#utility.yul\":4928:4951   */\n      swap1\n      pop\n        /* \"#utility.yul\":4976:5008   */\n      tag_107\n        /* \"#utility.yul\":4999:5007   */\n      dup6\n        /* \"#utility.yul\":4976:5008   */\n      tag_50\n      jump\t// in\n    tag_107:\n        /* \"#utility.yul\":4964:5008   */\n      swap5\n      pop\n        /* \"#utility.yul\":4306:5018   */\n      jump(tag_101)\n    tag_103:\n        /* \"#utility.yul\":4176:5024   */\n      swap5\n      pop\n      swap5\n      swap3\n      pop\n      pop\n      pop\n      jump\t// out\n        /* \"#utility.yul\":5030:6103   */\n    tag_52:\n        /* \"#utility.yul\":5084:5089   */\n      0x00\n        /* \"#utility.yul\":5275:5283   */\n      dup3\n        /* \"#utility.yul\":5265:5305   */\n      tag_109\n      jumpi\n        /* \"#utility.yul\":5296:5297   */\n      0x01\n        /* \"#utility.yul\":5287:5297   */\n      swap1\n      pop\n        /* \"#utility.yul\":5298:5303   */\n      jump(tag_108)\n        /* \"#utility.yul\":5265:5305   */\n    tag_109:\n        /* \"#utility.yul\":5324:5328   */\n      dup2\n        /* \"#utility.yul\":5314:5350   */\n      tag_110\n      jumpi\n        /* \"#utility.yul\":5341:5342   */\n      0x00\n        /* \"#utility.yul\":5332:5342   */\n      swap1\n      pop\n        /* \"#utility.yul\":5343:5348   */\n      jump(tag_108)\n        /* \"#utility.yul\":5314:5350   */\n    tag_110:\n        /* \"#utility.yul\":5410:5414   */\n      dup2\n        /* \"#utility.yul\":5458:5459   */\n      0x01\n        /* \"#utility.yul\":5453:5480   */\n      dup2\n      eq\n      tag_112\n      jumpi\n        /* \"#utility.yul\":5494:5495   */\n      0x02\n        /* \"#utility.yul\":5489:5680   */\n      dup2\n      eq\n      tag_113\n      jumpi\n        /* \"#utility.yul\":5403:5680   */\n      jump(tag_111)\n        /* \"#utility.yul\":5453:5480   */\n    tag_112:\n        /* \"#utility.yul\":5471:5472   */\n      0x01\n        /* \"#utility.yul\":5462:5472   */\n      swap2\n      pop\n        /* \"#utility.yul\":5473:5478   */\n      pop\n      jump(tag_108)\n        /* \"#utility.yul\":5489:5680   */\n    tag_113:\n        /* \"#utility.yul\":5534:5537   */\n      0xff\n        /* \"#utility.yul\":5524:5532   */\n      dup5\n        /* \"#utility.yul\":5521:5538   */\n      gt\n        /* \"#utility.yul\":5518:5561   */\n      iszero\n      tag_114\n      jumpi\n        /* \"#utility.yul\":5541:5559   */\n      tag_115\n      tag_49\n      jump\t// in\n    tag_115:\n        /* \"#utility.yul\":5518:5561   */\n    tag_114:\n        /* \"#utility.yul\":5590:5598   */\n      dup4\n        /* \"#utility.yul\":5587:5588   */\n      0x02\n        /* \"#utility.yul\":5583:5599   */\n      exp\n        /* \"#utility.yul\":5574:5599   */\n      swap2\n      pop\n        /* \"#utility.yul\":5625:5628   */\n      dup5\n        /* \"#utility.yul\":5618:5623   */\n      dup3\n        /* \"#utility.yul\":5615:5629   */\n      gt\n        /* \"#utility.yul\":5612:5652   */\n      iszero\n      tag_116\n      jumpi\n        /* \"#utility.yul\":5632:5650   */\n      tag_117\n      tag_49\n      jump\t// in\n    tag_117:\n        /* \"#utility.yul\":5612:5652   */\n    tag_116:\n        /* \"#utility.yul\":5665:5670   */\n      pop\n      jump(tag_108)\n        /* \"#utility.yul\":5403:5680   */\n    tag_111:\n      pop\n        /* \"#utility.yul\":5789:5791   */\n      0x20\n        /* \"#utility.yul\":5779:5787   */\n      dup4\n        /* \"#utility.yul\":5776:5792   */\n      lt\n        /* \"#utility.yul\":5770:5773   */\n      0x0133\n        /* \"#utility.yul\":5764:5768   */\n      dup4\n        /* \"#utility.yul\":5761:5774   */\n      lt\n        /* \"#utility.yul\":5757:5793   */\n      and\n        /* \"#utility.yul\":5739:5741   */\n      0x4e\n        /* \"#utility.yul\":5729:5737   */\n      dup5\n        /* \"#utility.yul\":5726:5742   */\n      lt\n        /* \"#utility.yul\":5721:5723   */\n      0x0b\n        /* \"#utility.yul\":5715:5719   */\n      dup5\n        /* \"#utility.yul\":5712:5724   */\n      lt\n        /* \"#utility.yul\":5708:5743   */\n      and\n        /* \"#utility.yul\":5692:5803   */\n      or\n        /* \"#utility.yul\":5689:5935   */\n      iszero\n      tag_118\n      jumpi\n        /* \"#utility.yul\":5845:5853   */\n      dup3\n        /* \"#utility.yul\":5839:5843   */\n      dup3\n        /* \"#utility.yul\":5835:5854   */\n      exp\n        /* \"#utility.yul\":5826:5854   */\n      swap1\n      pop\n        /* \"#utility.yul\":5880:5883   */\n      dup4\n        /* \"#utility.yul\":5873:5878   */\n      dup2\n        /* \"#utility.yul\":5870:5884   */\n      gt\n        /* \"#utility.yul\":5867:5907   */\n      iszero\n      tag_119\n      jumpi\n        /* \"#utility.yul\":5887:5905   */\n      tag_120\n      tag_49\n      jump\t// in\n    tag_120:\n        /* \"#utility.yul\":5867:5907   */\n    tag_119:\n        /* \"#utility.yul\":5920:5925   */\n      jump(tag_108)\n        /* \"#utility.yul\":5689:5935   */\n    tag_118:\n        /* \"#utility.yul\":5960:6002   */\n      tag_121\n        /* \"#utility.yul\":5998:6001   */\n      dup5\n        /* \"#utility.yul\":5988:5996   */\n      dup5\n        /* \"#utility.yul\":5982:5986   */\n      dup5\n        /* \"#utility.yul\":5979:5980   */\n      0x01\n        /* \"#utility.yul\":5960:6002   */\n      tag_51\n      jump\t// in\n    tag_121:\n        /* \"#utility.yul\":5945:6002   */\n      swap3\n      pop\n      swap1\n      pop\n        /* \"#utility.yul\":6034:6038   */\n      dup2\n        /* \"#utility.yul\":6029:6032   */\n      dup5\n        /* \"#utility.yul\":6025:6039   */\n      div\n        /* \"#utility.yul\":6018:6023   */\n      dup2\n        /* \"#utility.yul\":6015:6040   */\n      gt\n        /* \"#utility.yul\":6012:6063   */\n      iszero\n      tag_122\n      jumpi\n        /* \"#utility.yul\":6043:6061   */\n      tag_123\n      tag_49\n      jump\t// in\n    tag_123:\n        /* \"#utility.yul\":6012:6063   */\n    tag_122:\n        /* \"#utility.yul\":6092:6096   */\n      dup2\n        /* \"#utility.yul\":6085:6090   */\n      dup2\n        /* \"#utility.yul\":6081:6097   */\n      mul\n        /* \"#utility.yul\":6072:6097   */\n      swap1\n      pop\n        /* \"#utility.yul\":5030:6103   */\n    tag_108:\n      swap4\n      swap3\n      pop\n      pop\n      pop\n      jump\t// out\n        /* \"#utility.yul\":6109:6394   */\n    tag_37:\n        /* \"#utility.yul\":6169:6174   */\n      0x00\n        /* \"#utility.yul\":6193:6216   */\n      tag_125\n        /* \"#utility.yul\":6211:6215   */\n      dup3\n        /* \"#utility.yul\":6193:6216   */\n      tag_41\n      jump\t// in\n    tag_125:\n        /* \"#utility.yul\":6185:6216   */\n      swap2\n      pop\n        /* \"#utility.yul\":6237:6264   */\n      tag_126\n        /* \"#utility.yul\":6255:6263   */\n      dup4\n        /* \"#utility.yul\":6237:6264   */\n      tag_41\n      jump\t// in\n    tag_126:\n        /* \"#utility.yul\":6225:6264   */\n      swap3\n      pop\n        /* \"#utility.yul\":6283:6387   */\n      tag_127\n        /* \"#utility.yul\":6320:6386   */\n      0xffffffffffffffffffffffffffffffffffffffffffffffffffffffffffffffff\n        /* \"#utility.yul\":6310:6318   */\n      dup5\n        /* \"#utility.yul\":6304:6308   */\n      dup5\n        /* \"#utility.yul\":6283:6387   */\n      tag_52\n      jump\t// in\n    tag_127:\n        /* \"#utility.yul\":6274:6387   */\n      swap1\n      pop\n        /* \"#utility.yul\":6109:6394   */\n      swap3\n      swap2\n      pop\n      pop\n      jump\t// out\n\n    auxdata: 0xa26469706673582212204da2995e9aa3ffc0855110a6334a1e363fa8f34051ee3e9501340ce49289fe8064736f6c634300081e0033\n}\n",
				"bytecode": {
					"linkReferences": {},
					"object": "6080604052348015600e575f5ffd5b5061058a8061001c5f395ff3fe608060405234801561000f575f5ffd5b5060043610610034575f3560e01c8063278ccfdb14610038578063c04f01fc14610068575b5f5ffd5b610052600480360381019061004d91906101a8565b610098565b60405161005f91906101e2565b60405180910390f35b610082600480360381019061007d91906101fb565b61014b565b60405161008f91906101e2565b60405180910390f35b5f5f8210156100dc576040517f08c379a00000000000000000000000000000000000000000000000000000000081526004016100d3906102b9565b60405180910390fd5b5f82036100eb575f9050610146565b5f6002836100f99190610331565b90505f5f90505b600a811161014057600282856101169190610331565b836101219190610361565b61012b9190610331565b9150808061013890610394565b915050610100565b50809150505b919050565b5f5f820361015c576001905061016b565b8183610168919061050a565b90505b92915050565b5f5ffd5b5f819050919050565b61018781610175565b8114610191575f5ffd5b50565b5f813590506101a28161017e565b92915050565b5f602082840312156101bd576101bc610171565b5b5f6101ca84828501610194565b91505092915050565b6101dc81610175565b82525050565b5f6020820190506101f55f8301846101d3565b92915050565b5f5f6040838503121561021157610210610171565b5b5f61021e85828601610194565b925050602061022f85828601610194565b9150509250929050565b5f82825260208201905092915050565b7f43616e6e6f742063616c63756c6174652073717561726520726f6f74206f66205f8201527f6e65676174697665206e756d6265720000000000000000000000000000000000602082015250565b5f6102a3602f83610239565b91506102ae82610249565b604082019050919050565b5f6020820190508181035f8301526102d081610297565b9050919050565b7f4e487b71000000000000000000000000000000000000000000000000000000005f52601260045260245ffd5b7f4e487b71000000000000000000000000000000000000000000000000000000005f52601160045260245ffd5b5f61033b82610175565b915061034683610175565b925082610356576103556102d7565b5b828204905092915050565b5f61036b82610175565b915061037683610175565b925082820190508082111561038e5761038d610304565b5b92915050565b5f61039e82610175565b91507fffffffffffffffffffffffffffffffffffffffffffffffffffffffffffffffff82036103d0576103cf610304565b5b600182019050919050565b5f8160011c9050919050565b5f5f8291508390505b60018511156104305780860481111561040c5761040b610304565b5b600185161561041b5780820291505b8081029050610429856103db565b94506103f0565b94509492505050565b5f826104485760019050610503565b81610455575f9050610503565b816001811461046b5760028114610475576104a4565b6001915050610503565b60ff84111561048757610486610304565b5b8360020a91508482111561049e5761049d610304565b5b50610503565b5060208310610133831016604e8410600b84101617156104d95782820a9050838111156104d4576104d3610304565b5b610503565b6104e684848460016103e7565b925090508184048111156104fd576104fc610304565b5b81810290505b9392505050565b5f61051482610175565b915061051f83610175565b925061054c7fffffffffffffffffffffffffffffffffffffffffffffffffffffffffffffffff8484610439565b90509291505056fea26469706673582212204da2995e9aa3ffc0855110a6334a1e363fa8f34051ee3e9501340ce49289fe8064736f6c634300081e0033",
					"opcodes": "PUSH1 0x80 PUSH1 0x40 MSTORE CALLVALUE DUP1 ISZERO PUSH1 0xE JUMPI PUSH0 PUSH0 REVERT JUMPDEST POP PUSH2 0x58A DUP1 PUSH2 0x1C PUSH0 CODECOPY PUSH0 RETURN INVALID PUSH1 0x80 PUSH1 0x40 MSTORE CALLVALUE DUP1 ISZERO PUSH2 0xF JUMPI PUSH0 PUSH0 REVERT JUMPDEST POP PUSH1 0x4 CALLDATASIZE LT PUSH2 0x34 JUMPI PUSH0 CALLDATALOAD PUSH1 0xE0 SHR DUP1 PUSH4 0x278CCFDB EQ PUSH2 0x38 JUMPI DUP1 PUSH4 0xC04F01FC EQ PUSH2 0x68 JUMPI JUMPDEST PUSH0 PUSH0 REVERT JUMPDEST PUSH2 0x52 PUSH1 0x4 DUP1 CALLDATASIZE SUB DUP2 ADD SWAP1 PUSH2 0x4D SWAP2 SWAP1 PUSH2 0x1A8 JUMP JUMPDEST PUSH2 0x98 JUMP JUMPDEST PUSH1 0x40 MLOAD PUSH2 0x5F SWAP2 SWAP1 PUSH2 0x1E2 JUMP JUMPDEST PUSH1 0x40 MLOAD DUP1 SWAP2 SUB SWAP1 RETURN JUMPDEST PUSH2 0x82 PUSH1 0x4 DUP1 CALLDATASIZE SUB DUP2 ADD SWAP1 PUSH2 0x7D SWAP2 SWAP1 PUSH2 0x1FB JUMP JUMPDEST PUSH2 0x14B JUMP JUMPDEST PUSH1 0x40 MLOAD PUSH2 0x8F SWAP2 SWAP1 PUSH2 0x1E2 JUMP JUMPDEST PUSH1 0x40 MLOAD DUP1 SWAP2 SUB SWAP1 RETURN JUMPDEST PUSH0 PUSH0 DUP3 LT ISZERO PUSH2 0xDC JUMPI PUSH1 0x40 MLOAD PUSH32 0x8C379A000000000000000000000000000000000000000000000000000000000 DUP2 MSTORE PUSH1 0x4 ADD PUSH2 0xD3 SWAP1 PUSH2 0x2B9 JUMP JUMPDEST PUSH1 0x40 MLOAD DUP1 SWAP2 SUB SWAP1 REVERT JUMPDEST PUSH0 DUP3 SUB PUSH2 0xEB JUMPI PUSH0 SWAP1 POP PUSH2 0x146 JUMP JUMPDEST PUSH0 PUSH1 0x2 DUP4 PUSH2 0xF9 SWAP2 SWAP1 PUSH2 0x331 JUMP JUMPDEST SWAP1 POP PUSH0 PUSH0 SWAP1 POP JUMPDEST PUSH1 0xA DUP2 GT PUSH2 0x140 JUMPI PUSH1 0x2 DUP3 DUP6 PUSH2 0x116 SWAP2 SWAP1 PUSH2 0x331 JUMP JUMPDEST DUP4 PUSH2 0x121 SWAP2 SWAP1 PUSH2 0x361 JUMP JUMPDEST PUSH2 0x12B SWAP2 SWAP1 PUSH2 0x331 JUMP JUMPDEST SWAP2 POP DUP1 DUP1 PUSH2 0x138 SWAP1 PUSH2 0x394 JUMP JUMPDEST SWAP2 POP POP PUSH2 0x100 JUMP JUMPDEST POP DUP1 SWAP2 POP POP JUMPDEST SWAP2 SWAP1 POP JUMP JUMPDEST PUSH0 PUSH0 DUP3 SUB PUSH2 0x15C JUMPI PUSH1 0x1 SWAP1 POP PUSH2 0x16B JUMP JUMPDEST DUP2 DUP4 PUSH2 0x168 SWAP2 SWAP1 PUSH2 0x50A JUMP JUMPDEST SWAP1 POP JUMPDEST SWAP3 SWAP2 POP POP JUMP JUMPDEST PUSH0 PUSH0 REVERT JUMPDEST PUSH0 DUP2 SWAP1 POP SWAP2 SWAP1 POP JUMP JUMPDEST PUSH2 0x187 DUP2 PUSH2 0x175 JUMP JUMPDEST DUP2 EQ PUSH2 0x191 JUMPI PUSH0 PUSH0 REVERT JUMPDEST POP JUMP JUMPDEST PUSH0 DUP2 CALLDATALOAD SWAP1 POP PUSH2 0x1A2 DUP2 PUSH2 0x17E JUMP JUMPDEST SWAP3 SWAP2 POP POP JUMP JUMPDEST PUSH0 PUSH1 0x20 DUP3 DUP5 SUB SLT ISZERO PUSH2 0x1BD JUMPI PUSH2 0x1BC PUSH2 0x171 JUMP JUMPDEST JUMPDEST PUSH0 PUSH2 0x1CA DUP5 DUP3 DUP6 ADD PUSH2 0x194 JUMP JUMPDEST SWAP2 POP POP SWAP3 SWAP2 POP POP JUMP JUMPDEST PUSH2 0x1DC DUP2 PUSH2 0x175 JUMP JUMPDEST DUP3 MSTORE POP POP JUMP JUMPDEST PUSH0 PUSH1 0x20 DUP3 ADD SWAP1 POP PUSH2 0x1F5 PUSH0 DUP4 ADD DUP5 PUSH2 0x1D3 JUMP JUMPDEST SWAP3 SWAP2 POP POP JUMP JUMPDEST PUSH0 PUSH0 PUSH1 0x40 DUP4 DUP6 SUB SLT ISZERO PUSH2 0x211 JUMPI PUSH2 0x210 PUSH2 0x171 JUMP JUMPDEST JUMPDEST PUSH0 PUSH2 0x21E DUP6 DUP3 DUP7 ADD PUSH2 0x194 JUMP JUMPDEST SWAP3 POP POP PUSH1 0x20 PUSH2 0x22F DUP6 DUP3 DUP7 ADD PUSH2 0x194 JUMP JUMPDEST SWAP2 POP POP SWAP3 POP SWAP3 SWAP1 POP JUMP JUMPDEST PUSH0 DUP3 DUP3 MSTORE PUSH1 0x20 DUP3 ADD SWAP1 POP SWAP3 SWAP2 POP POP JUMP JUMPDEST PUSH32 0x43616E6E6F742063616C63756C6174652073717561726520726F6F74206F6620 PUSH0 DUP3 ADD MSTORE PUSH32 0x6E65676174697665206E756D6265720000000000000000000000000000000000 PUSH1 0x20 DUP3 ADD MSTORE POP JUMP JUMPDEST PUSH0 PUSH2 0x2A3 PUSH1 0x2F DUP4 PUSH2 0x239 JUMP JUMPDEST SWAP2 POP PUSH2 0x2AE DUP3 PUSH2 0x249 JUMP JUMPDEST PUSH1 0x40 DUP3 ADD SWAP1 POP SWAP2 SWAP1 POP JUMP JUMPDEST PUSH0 PUSH1 0x20 DUP3 ADD SWAP1 POP DUP2 DUP2 SUB PUSH0 DUP4 ADD MSTORE PUSH2 0x2D0 DUP2 PUSH2 0x297 JUMP JUMPDEST SWAP1 POP SWAP2 SWAP1 POP JUMP JUMPDEST PUSH32 0x4E487B7100000000000000000000000000000000000000000000000000000000 PUSH0 MSTORE PUSH1 0x12 PUSH1 0x4 MSTORE PUSH1 0x24 PUSH0 REVERT JUMPDEST PUSH32 0x4E487B7100000000000000000000000000000000000000000000000000000000 PUSH0 MSTORE PUSH1 0x11 PUSH1 0x4 MSTORE PUSH1 0x24 PUSH0 REVERT JUMPDEST PUSH0 PUSH2 0x33B DUP3 PUSH2 0x175 JUMP JUMPDEST SWAP2 POP PUSH2 0x346 DUP4 PUSH2 0x175 JUMP JUMPDEST SWAP3 POP DUP3 PUSH2 0x356 JUMPI PUSH2 0x355 PUSH2 0x2D7 JUMP JUMPDEST JUMPDEST DUP3 DUP3 DIV SWAP1 POP SWAP3 SWAP2 POP POP JUMP JUMPDEST PUSH0 PUSH2 0x36B DUP3 PUSH2 0x175 JUMP JUMPDEST SWAP2 POP PUSH2 0x376 DUP4 PUSH2 0x175 JUMP JUMPDEST SWAP3 POP DUP3 DUP3 ADD SWAP1 POP DUP1 DUP3 GT ISZERO PUSH2 0x38E JUMPI PUSH2 0x38D PUSH2 0x304 JUMP JUMPDEST JUMPDEST SWAP3 SWAP2 POP POP JUMP JUMPDEST PUSH0 PUSH2 0x39E DUP3 PUSH2 0x175 JUMP JUMPDEST SWAP2 POP PUSH32 0xFFFFFFFFFFFFFFFFFFFFFFFFFFFFFFFFFFFFFFFFFFFFFFFFFFFFFFFFFFFFFFFF DUP3 SUB PUSH2 0x3D0 JUMPI PUSH2 0x3CF PUSH2 0x304 JUMP JUMPDEST JUMPDEST PUSH1 0x1 DUP3 ADD SWAP1 POP SWAP2 SWAP1 POP JUMP JUMPDEST PUSH0 DUP2 PUSH1 0x1 SHR SWAP1 POP SWAP2 SWAP1 POP JUMP JUMPDEST PUSH0 PUSH0 DUP3 SWAP2 POP DUP4 SWAP1 POP JUMPDEST PUSH1 0x1 DUP6 GT ISZERO PUSH2 0x430 JUMPI DUP1 DUP7 DIV DUP2 GT ISZERO PUSH2 0x40C JUMPI PUSH2 0x40B PUSH2 0x304 JUMP JUMPDEST JUMPDEST PUSH1 0x1 DUP6 AND ISZERO PUSH2 0x41B JUMPI DUP1 DUP3 MUL SWAP2 POP JUMPDEST DUP1 DUP2 MUL SWAP1 POP PUSH2 0x429 DUP6 PUSH2 0x3DB JUMP JUMPDEST SWAP5 POP PUSH2 0x3F0 JUMP JUMPDEST SWAP5 POP SWAP5 SWAP3 POP POP POP JUMP JUMPDEST PUSH0 DUP3 PUSH2 0x448 JUMPI PUSH1 0x1 SWAP1 POP PUSH2 0x503 JUMP JUMPDEST DUP2 PUSH2 0x455 JUMPI PUSH0 SWAP1 POP PUSH2 0x503 JUMP JUMPDEST DUP2 PUSH1 0x1 DUP2 EQ PUSH2 0x46B JUMPI PUSH1 0x2 DUP2 EQ PUSH2 0x475 JUMPI PUSH2 0x4A4 JUMP JUMPDEST PUSH1 0x1 SWAP2 POP POP PUSH2 0x503 JUMP JUMPDEST PUSH1 0xFF DUP5 GT ISZERO PUSH2 0x487 JUMPI PUSH2 0x486 PUSH2 0x304 JUMP JUMPDEST JUMPDEST DUP4 PUSH1 0x2 EXP SWAP2 POP DUP5 DUP3 GT ISZERO PUSH2 0x49E JUMPI PUSH2 0x49D PUSH2 0x304 JUMP JUMPDEST JUMPDEST POP PUSH2 0x503 JUMP JUMPDEST POP PUSH1 0x20 DUP4 LT PUSH2 0x133 DUP4 LT AND PUSH1 0x4E DUP5 LT PUSH1 0xB DUP5 LT AND OR ISZERO PUSH2 0x4D9 JUMPI DUP3 DUP3 EXP SWAP1 POP DUP4 DUP2 GT ISZERO PUSH2 0x4D4 JUMPI PUSH2 0x4D3 PUSH2 0x304 JUMP JUMPDEST JUMPDEST PUSH2 0x503 JUMP JUMPDEST PUSH2 0x4E6 DUP5 DUP5 DUP5 PUSH1 0x1 PUSH2 0x3E7 JUMP JUMPDEST SWAP3 POP SWAP1 POP DUP2 DUP5 DIV DUP2 GT ISZERO PUSH2 0x4FD JUMPI PUSH2 0x4FC PUSH2 0x304 JUMP JUMPDEST JUMPDEST DUP2 DUP2 MUL SWAP1 POP JUMPDEST SWAP4 SWAP3 POP POP POP JUMP JUMPDEST PUSH0 PUSH2 0x514 DUP3 PUSH2 0x175 JUMP JUMPDEST SWAP2 POP PUSH2 0x51F DUP4 PUSH2 0x175 JUMP JUMPDEST SWAP3 POP PUSH2 0x54C PUSH32 0xFFFFFFFFFFFFFFFFFFFFFFFFFFFFFFFFFFFFFFFFFFFFFFFFFFFFFFFFFFFFFFFF DUP5 DUP5 PUSH2 0x439 JUMP JUMPDEST SWAP1 POP SWAP3 SWAP2 POP POP JUMP INVALID LOG2 PUSH5 0x6970667358 0x22 SLT KECCAK256 0x4D LOG2 SWAP10 MCOPY SWAP11 LOG3 SELFDESTRUCT 0xC0 DUP6 MLOAD LT 0xA6 CALLER BLOBBASEFEE 0x1E CALLDATASIZE EXTCODEHASH 0xA8 RETURN BLOCKHASH MLOAD RETURNCONTRACT 0x3E SWAP6 ADD CALLVALUE 0xC RETF SWAP3 DUP10 INVALID DUP1 PUSH5 0x736F6C6343 STOP ADDMOD 0x1E STOP CALLER "
				},
				"gasEstimates": {
					"creation": {
						"codeDepositCost": "283600",
						"executionCost": "322",
						"totalCost": "283922"
					},
					"external": {
						"power(uint256,uint256)": "infinite",
						"suqareRoot(uint256)": "infinite"
					}
				},
				"methodIdentifiers": {
					"power(uint256,uint256)": "c04f01fc",
					"suqareRoot(uint256)": "278ccfdb"
				}
			},
			"storageLayout": {
				"storage": [],
				"types": null
			},
			"userdoc": {
				"kind": "user",
				"methods": {},
				"version": 1
			}
		}
	}
}