{
	"submissions/yuriofi/Day1.sol": {
		"ClickCounter": {
			"abi": [
				{
					"inputs": [],
					"name": "click",
					"outputs": [],
					"stateMutability": "nonpayable",
					"type": "function"
				},
				{
					"inputs": [
						{
							"internalType": "uint256",
							"name": "times",
							"type": "uint256"
						}
					],
					"name": "clickMultiple",
					"outputs": [],
					"stateMutability": "nonpayable",
					"type": "function"
				},
				{
					"inputs": [],
					"name": "counter",
					"outputs": [
						{
							"internalType": "uint256",
							"name": "",
							"type": "uint256"
						}
					],
					"stateMutability": "view",
					"type": "function"
				},
				{
					"inputs": [],
					"name": "decrease",
					"outputs": [],
					"stateMutability": "nonpayable",
					"type": "function"
				},
				{
					"inputs": [],
					"name": "getCounter",
					"outputs": [
						{
							"internalType": "uint256",
							"name": "",
							"type": "uint256"
						}
					],
					"stateMutability": "view",
					"type": "function"
				},
				{
					"inputs": [],
					"name": "reset",
					"outputs": [],
					"stateMutability": "nonpayable",
					"type": "function"
				}
			],
			"devdoc": {
				"kind": "dev",
				"methods": {},
				"version": 1
			},
			"evm": {
				"assembly": "    /* \"submissions/yuriofi/Day1.sol\":61:598  contract ClickCounter{... */\n  mstore(0x40, 0x80)\n  callvalue\n  dup1\n  iszero\n  tag_1\n  jumpi\n  revert(0x00, 0x00)\ntag_1:\n  pop\n  dataSize(sub_0)\n  dup1\n  dataOffset(sub_0)\n  0x00\n  codecopy\n  0x00\n  return\nstop\n\nsub_0: assembly {\n        /* \"submissions/yuriofi/Day1.sol\":61:598  contract ClickCounter{... */\n      mstore(0x40, 0x80)\n      callvalue\n      dup1\n      iszero\n      tag_1\n      jumpi\n      revert(0x00, 0x00)\n    tag_1:\n      pop\n      jumpi(tag_2, lt(calldatasize, 0x04))\n      shr(0xe0, calldataload(0x00))\n      dup1\n      0x4f78922c\n      eq\n      tag_3\n      jumpi\n      dup1\n      0x61bc221a\n      eq\n      tag_4\n      jumpi\n      dup1\n      0x7d55923d\n      eq\n      tag_5\n      jumpi\n      dup1\n      0x8ada066e\n      eq\n      tag_6\n      jumpi\n      dup1\n      0xd732d955\n      eq\n      tag_7\n      jumpi\n      dup1\n      0xd826f88f\n      eq\n      tag_8\n      jumpi\n    tag_2:\n      revert(0x00, 0x00)\n        /* \"submissions/yuriofi/Day1.sol\":513:593  function clickMultiple(uint256 times) public {... */\n    tag_3:\n      tag_9\n      0x04\n      dup1\n      calldatasize\n      sub\n      dup2\n      add\n      swap1\n      tag_10\n      swap2\n      swap1\n      tag_11\n      jump\t// in\n    tag_10:\n      tag_12\n      jump\t// in\n    tag_9:\n      stop\n        /* \"submissions/yuriofi/Day1.sol\":91:113  uint256 public counter */\n    tag_4:\n      tag_13\n      tag_14\n      jump\t// in\n    tag_13:\n      mload(0x40)\n      tag_15\n      swap2\n      swap1\n      tag_16\n      jump\t// in\n    tag_15:\n      mload(0x40)\n      dup1\n      swap2\n      sub\n      swap1\n      return\n        /* \"submissions/yuriofi/Day1.sol\":123:182  function click() public ... */\n    tag_5:\n      tag_17\n      tag_18\n      jump\t// in\n    tag_17:\n      stop\n        /* \"submissions/yuriofi/Day1.sol\":420:505  function getCounter() public view returns (uint256) {... */\n    tag_6:\n      tag_19\n      tag_20\n      jump\t// in\n    tag_19:\n      mload(0x40)\n      tag_21\n      swap2\n      swap1\n      tag_16\n      jump\t// in\n    tag_21:\n      mload(0x40)\n      dup1\n      swap2\n      sub\n      swap1\n      return\n        /* \"submissions/yuriofi/Day1.sol\":246:340  function decrease() public {... */\n    tag_7:\n      tag_22\n      tag_23\n      jump\t// in\n    tag_22:\n      stop\n        /* \"submissions/yuriofi/Day1.sol\":188:240  function reset() public {... */\n    tag_8:\n      tag_24\n      tag_25\n      jump\t// in\n    tag_24:\n      stop\n        /* \"submissions/yuriofi/Day1.sol\":513:593  function clickMultiple(uint256 times) public {... */\n    tag_12:\n        /* \"submissions/yuriofi/Day1.sol\":580:585  times */\n      dup1\n        /* \"submissions/yuriofi/Day1.sol\":569:576  counter */\n      0x00\n      0x00\n        /* \"submissions/yuriofi/Day1.sol\":569:585  counter += times */\n      dup3\n      dup3\n      sload\n      tag_27\n      swap2\n      swap1\n      tag_28\n      jump\t// in\n    tag_27:\n      swap3\n      pop\n      pop\n      dup2\n      swap1\n      sstore\n      pop\n        /* \"submissions/yuriofi/Day1.sol\":513:593  function clickMultiple(uint256 times) public {... */\n      pop\n      jump\t// out\n        /* \"submissions/yuriofi/Day1.sol\":91:113  uint256 public counter */\n    tag_14:\n      sload(0x00)\n      dup2\n      jump\t// out\n        /* \"submissions/yuriofi/Day1.sol\":123:182  function click() public ... */\n    tag_18:\n        /* \"submissions/yuriofi/Day1.sol\":164:171  counter */\n      0x00\n      0x00\n        /* \"submissions/yuriofi/Day1.sol\":164:174  counter ++ */\n      dup2\n      sload\n      dup1\n      swap3\n      swap2\n      swap1\n      tag_30\n      swap1\n      tag_31\n      jump\t// in\n    tag_30:\n      swap2\n      swap1\n      pop\n      sstore\n      pop\n        /* \"submissions/yuriofi/Day1.sol\":123:182  function click() public ... */\n      jump\t// out\n        /* \"submissions/yuriofi/Day1.sol\":420:505  function getCounter() public view returns (uint256) {... */\n    tag_20:\n        /* \"submissions/yuriofi/Day1.sol\":463:470  uint256 */\n      0x00\n        /* \"submissions/yuriofi/Day1.sol\":490:497  counter */\n      sload(0x00)\n        /* \"submissions/yuriofi/Day1.sol\":483:497  return counter */\n      swap1\n      pop\n        /* \"submissions/yuriofi/Day1.sol\":420:505  function getCounter() public view returns (uint256) {... */\n      swap1\n      jump\t// out\n        /* \"submissions/yuriofi/Day1.sol\":246:340  function decrease() public {... */\n    tag_23:\n        /* \"submissions/yuriofi/Day1.sol\":295:296  0 */\n      0x00\n        /* \"submissions/yuriofi/Day1.sol\":287:294  counter */\n      sload(0x00)\n        /* \"submissions/yuriofi/Day1.sol\":287:296  counter>0 */\n      gt\n        /* \"submissions/yuriofi/Day1.sol\":284:333  if(counter>0){... */\n      iszero\n      tag_34\n      jumpi\n        /* \"submissions/yuriofi/Day1.sol\":312:319  counter */\n      0x00\n      0x00\n        /* \"submissions/yuriofi/Day1.sol\":312:321  counter-- */\n      dup2\n      sload\n      dup1\n      swap3\n      swap2\n      swap1\n      tag_35\n      swap1\n      tag_36\n      jump\t// in\n    tag_35:\n      swap2\n      swap1\n      pop\n      sstore\n      pop\n        /* \"submissions/yuriofi/Day1.sol\":284:333  if(counter>0){... */\n    tag_34:\n        /* \"submissions/yuriofi/Day1.sol\":246:340  function decrease() public {... */\n      jump\t// out\n        /* \"submissions/yuriofi/Day1.sol\":188:240  function reset() public {... */\n    tag_25:\n        /* \"submissions/yuriofi/Day1.sol\":231:232  0 */\n      0x00\n        /* \"submissions/yuriofi/Day1.sol\":223:230  counter */\n      0x00\n        /* \"submissions/yuriofi/Day1.sol\":223:232  counter=0 */\n      dup2\n      swap1\n      sstore\n      pop\n        /* \"submissions/yuriofi/Day1.sol\":188:240  function reset() public {... */\n      jump\t// out\n        /* \"#utility.yul\":88:205   */\n    tag_39:\n        /* \"#utility.yul\":197:198   */\n      0x00\n        /* \"#utility.yul\":194:195   */\n      0x00\n        /* \"#utility.yul\":187:199   */\n      revert\n        /* \"#utility.yul\":334:411   */\n    tag_41:\n        /* \"#utility.yul\":371:378   */\n      0x00\n        /* \"#utility.yul\":400:405   */\n      dup2\n        /* \"#utility.yul\":389:405   */\n      swap1\n      pop\n        /* \"#utility.yul\":334:411   */\n      swap2\n      swap1\n      pop\n      jump\t// out\n        /* \"#utility.yul\":417:539   */\n    tag_42:\n        /* \"#utility.yul\":490:514   */\n      tag_52\n        /* \"#utility.yul\":508:513   */\n      dup2\n        /* \"#utility.yul\":490:514   */\n      tag_41\n      jump\t// in\n    tag_52:\n        /* \"#utility.yul\":483:488   */\n      dup2\n        /* \"#utility.yul\":480:515   */\n      eq\n        /* \"#utility.yul\":470:533   */\n      tag_53\n      jumpi\n        /* \"#utility.yul\":529:530   */\n      0x00\n        /* \"#utility.yul\":526:527   */\n      0x00\n        /* \"#utility.yul\":519:531   */\n      revert\n        /* \"#utility.yul\":470:533   */\n    tag_53:\n        /* \"#utility.yul\":417:539   */\n      pop\n      jump\t// out\n        /* \"#utility.yul\":545:684   */\n    tag_43:\n        /* \"#utility.yul\":591:596   */\n      0x00\n        /* \"#utility.yul\":629:635   */\n      dup2\n        /* \"#utility.yul\":616:636   */\n      calldataload\n        /* \"#utility.yul\":607:636   */\n      swap1\n      pop\n        /* \"#utility.yul\":645:678   */\n      tag_55\n        /* \"#utility.yul\":672:677   */\n      dup2\n        /* \"#utility.yul\":645:678   */\n      tag_42\n      jump\t// in\n    tag_55:\n        /* \"#utility.yul\":545:684   */\n      swap3\n      swap2\n      pop\n      pop\n      jump\t// out\n        /* \"#utility.yul\":690:1019   */\n    tag_11:\n        /* \"#utility.yul\":749:755   */\n      0x00\n        /* \"#utility.yul\":798:800   */\n      0x20\n        /* \"#utility.yul\":786:795   */\n      dup3\n        /* \"#utility.yul\":777:784   */\n      dup5\n        /* \"#utility.yul\":773:796   */\n      sub\n        /* \"#utility.yul\":769:801   */\n      slt\n        /* \"#utility.yul\":766:885   */\n      iszero\n      tag_57\n      jumpi\n        /* \"#utility.yul\":804:883   */\n      tag_58\n      tag_39\n      jump\t// in\n    tag_58:\n        /* \"#utility.yul\":766:885   */\n    tag_57:\n        /* \"#utility.yul\":924:925   */\n      0x00\n        /* \"#utility.yul\":949:1002   */\n      tag_59\n        /* \"#utility.yul\":994:1001   */\n      dup5\n        /* \"#utility.yul\":985:991   */\n      dup3\n        /* \"#utility.yul\":974:983   */\n      dup6\n        /* \"#utility.yul\":970:992   */\n      add\n        /* \"#utility.yul\":949:1002   */\n      tag_43\n      jump\t// in\n    tag_59:\n        /* \"#utility.yul\":939:1002   */\n      swap2\n      pop\n        /* \"#utility.yul\":895:1012   */\n      pop\n        /* \"#utility.yul\":690:1019   */\n      swap3\n      swap2\n      pop\n      pop\n      jump\t// out\n        /* \"#utility.yul\":1025:1143   */\n    tag_44:\n        /* \"#utility.yul\":1112:1136   */\n      tag_61\n        /* \"#utility.yul\":1130:1135   */\n      dup2\n        /* \"#utility.yul\":1112:1136   */\n      tag_41\n      jump\t// in\n    tag_61:\n        /* \"#utility.yul\":1107:1110   */\n      dup3\n        /* \"#utility.yul\":1100:1137   */\n      mstore\n        /* \"#utility.yul\":1025:1143   */\n      pop\n      pop\n      jump\t// out\n        /* \"#utility.yul\":1149:1371   */\n    tag_16:\n        /* \"#utility.yul\":1242:1246   */\n      0x00\n        /* \"#utility.yul\":1280:1282   */\n      0x20\n        /* \"#utility.yul\":1269:1278   */\n      dup3\n        /* \"#utility.yul\":1265:1283   */\n      add\n        /* \"#utility.yul\":1257:1283   */\n      swap1\n      pop\n        /* \"#utility.yul\":1293:1364   */\n      tag_63\n        /* \"#utility.yul\":1361:1362   */\n      0x00\n        /* \"#utility.yul\":1350:1359   */\n      dup4\n        /* \"#utility.yul\":1346:1363   */\n      add\n        /* \"#utility.yul\":1337:1343   */\n      dup5\n        /* \"#utility.yul\":1293:1364   */\n      tag_44\n      jump\t// in\n    tag_63:\n        /* \"#utility.yul\":1149:1371   */\n      swap3\n      swap2\n      pop\n      pop\n      jump\t// out\n        /* \"#utility.yul\":1377:1557   */\n    tag_45:\n        /* \"#utility.yul\":1425:1502   */\n      0x4e487b7100000000000000000000000000000000000000000000000000000000\n        /* \"#utility.yul\":1422:1423   */\n      0x00\n        /* \"#utility.yul\":1415:1503   */\n      mstore\n        /* \"#utility.yul\":1522:1526   */\n      0x11\n        /* \"#utility.yul\":1519:1520   */\n      0x04\n        /* \"#utility.yul\":1512:1527   */\n      mstore\n        /* \"#utility.yul\":1546:1550   */\n      0x24\n        /* \"#utility.yul\":1543:1544   */\n      0x00\n        /* \"#utility.yul\":1536:1551   */\n      revert\n        /* \"#utility.yul\":1563:1754   */\n    tag_28:\n        /* \"#utility.yul\":1603:1606   */\n      0x00\n        /* \"#utility.yul\":1622:1642   */\n      tag_66\n        /* \"#utility.yul\":1640:1641   */\n      dup3\n        /* \"#utility.yul\":1622:1642   */\n      tag_41\n      jump\t// in\n    tag_66:\n        /* \"#utility.yul\":1617:1642   */\n      swap2\n      pop\n        /* \"#utility.yul\":1656:1676   */\n      tag_67\n        /* \"#utility.yul\":1674:1675   */\n      dup4\n        /* \"#utility.yul\":1656:1676   */\n      tag_41\n      jump\t// in\n    tag_67:\n        /* \"#utility.yul\":1651:1676   */\n      swap3\n      pop\n        /* \"#utility.yul\":1699:1700   */\n      dup3\n        /* \"#utility.yul\":1696:1697   */\n      dup3\n        /* \"#utility.yul\":1692:1701   */\n      add\n        /* \"#utility.yul\":1685:1701   */\n      swap1\n      pop\n        /* \"#utility.yul\":1720:1723   */\n      dup1\n        /* \"#utility.yul\":1717:1718   */\n      dup3\n        /* \"#utility.yul\":1714:1724   */\n      gt\n        /* \"#utility.yul\":1711:1747   */\n      iszero\n      tag_68\n      jumpi\n        /* \"#utility.yul\":1727:1745   */\n      tag_69\n      tag_45\n      jump\t// in\n    tag_69:\n        /* \"#utility.yul\":1711:1747   */\n    tag_68:\n        /* \"#utility.yul\":1563:1754   */\n      swap3\n      swap2\n      pop\n      pop\n      jump\t// out\n        /* \"#utility.yul\":1760:1993   */\n    tag_31:\n        /* \"#utility.yul\":1799:1802   */\n      0x00\n        /* \"#utility.yul\":1822:1846   */\n      tag_71\n        /* \"#utility.yul\":1840:1845   */\n      dup3\n        /* \"#utility.yul\":1822:1846   */\n      tag_41\n      jump\t// in\n    tag_71:\n        /* \"#utility.yul\":1813:1846   */\n      swap2\n      pop\n        /* \"#utility.yul\":1868:1934   */\n      0xffffffffffffffffffffffffffffffffffffffffffffffffffffffffffffffff\n        /* \"#utility.yul\":1861:1866   */\n      dup3\n        /* \"#utility.yul\":1858:1935   */\n      sub\n        /* \"#utility.yul\":1855:1958   */\n      tag_72\n      jumpi\n        /* \"#utility.yul\":1938:1956   */\n      tag_73\n      tag_45\n      jump\t// in\n    tag_73:\n        /* \"#utility.yul\":1855:1958   */\n    tag_72:\n        /* \"#utility.yul\":1985:1986   */\n      0x01\n        /* \"#utility.yul\":1978:1983   */\n      dup3\n        /* \"#utility.yul\":1974:1987   */\n      add\n        /* \"#utility.yul\":1967:1987   */\n      swap1\n      pop\n        /* \"#utility.yul\":1760:1993   */\n      swap2\n      swap1\n      pop\n      jump\t// out\n        /* \"#utility.yul\":1999:2170   */\n    tag_36:\n        /* \"#utility.yul\":2038:2041   */\n      0x00\n        /* \"#utility.yul\":2061:2085   */\n      tag_75\n        /* \"#utility.yul\":2079:2084   */\n      dup3\n        /* \"#utility.yul\":2061:2085   */\n      tag_41\n      jump\t// in\n    tag_75:\n        /* \"#utility.yul\":2052:2085   */\n      swap2\n      pop\n        /* \"#utility.yul\":2107:2111   */\n      0x00\n        /* \"#utility.yul\":2100:2105   */\n      dup3\n        /* \"#utility.yul\":2097:2112   */\n      sub\n        /* \"#utility.yul\":2094:2135   */\n      tag_76\n      jumpi\n        /* \"#utility.yul\":2115:2133   */\n      tag_77\n      tag_45\n      jump\t// in\n    tag_77:\n        /* \"#utility.yul\":2094:2135   */\n    tag_76:\n        /* \"#utility.yul\":2162:2163   */\n      0x01\n        /* \"#utility.yul\":2155:2160   */\n      dup3\n        /* \"#utility.yul\":2151:2164   */\n      sub\n        /* \"#utility.yul\":2144:2164   */\n      swap1\n      pop\n        /* \"#utility.yul\":1999:2170   */\n      swap2\n      swap1\n      pop\n      jump\t// out\n\n    auxdata: 0xa2646970667358221220ffd43e6a38928338563ca90b5ee33716af3ea345332918742460ff5550d57ae464736f6c634300081e0033\n}\n",
				"bytecode": {
					"linkReferences": {},
					"object": "6080604052348015600e575f5ffd5b506102d18061001c5f395ff3fe608060405234801561000f575f5ffd5b5060043610610060575f3560e01c80634f78922c1461006457806361bc221a146100805780637d55923d1461009e5780638ada066e146100a8578063d732d955146100c6578063d826f88f146100d0575b5f5ffd5b61007e6004803603810190610079919061017a565b6100da565b005b6100886100f4565b60405161009591906101b4565b60405180910390f35b6100a66100f9565b005b6100b0610111565b6040516100bd91906101b4565b60405180910390f35b6100ce610119565b005b6100d861013b565b005b805f5f8282546100ea91906101fa565b9250508190555050565b5f5481565b5f5f81548092919061010a9061022d565b9190505550565b5f5f54905090565b5f5f541115610139575f5f81548092919061013390610274565b91905055505b565b5f5f81905550565b5f5ffd5b5f819050919050565b61015981610147565b8114610163575f5ffd5b50565b5f8135905061017481610150565b92915050565b5f6020828403121561018f5761018e610143565b5b5f61019c84828501610166565b91505092915050565b6101ae81610147565b82525050565b5f6020820190506101c75f8301846101a5565b92915050565b7f4e487b71000000000000000000000000000000000000000000000000000000005f52601160045260245ffd5b5f61020482610147565b915061020f83610147565b9250828201905080821115610227576102266101cd565b5b92915050565b5f61023782610147565b91507fffffffffffffffffffffffffffffffffffffffffffffffffffffffffffffffff8203610269576102686101cd565b5b600182019050919050565b5f61027e82610147565b91505f82036102905761028f6101cd565b5b60018203905091905056fea2646970667358221220ffd43e6a38928338563ca90b5ee33716af3ea345332918742460ff5550d57ae464736f6c634300081e0033",
					"opcodes": "PUSH1 0x80 PUSH1 0x40 MSTORE CALLVALUE DUP1 ISZERO PUSH1 0xE JUMPI PUSH0 PUSH0 REVERT JUMPDEST POP PUSH2 0x2D1 DUP1 PUSH2 0x1C PUSH0 CODECOPY PUSH0 RETURN INVALID PUSH1 0x80 PUSH1 0x40 MSTORE CALLVALUE DUP1 ISZERO PUSH2 0xF JUMPI PUSH0 PUSH0 REVERT JUMPDEST POP PUSH1 0x4 CALLDATASIZE LT PUSH2 0x60 JUMPI PUSH0 CALLDATALOAD PUSH1 0xE0 SHR DUP1 PUSH4 0x4F78922C EQ PUSH2 0x64 JUMPI DUP1 PUSH4 0x61BC221A EQ PUSH2 0x80 JUMPI DUP1 PUSH4 0x7D55923D EQ PUSH2 0x9E JUMPI DUP1 PUSH4 0x8ADA066E EQ PUSH2 0xA8 JUMPI DUP1 PUSH4 0xD732D955 EQ PUSH2 0xC6 JUMPI DUP1 PUSH4 0xD826F88F EQ PUSH2 0xD0 JUMPI JUMPDEST PUSH0 PUSH0 REVERT JUMPDEST PUSH2 0x7E PUSH1 0x4 DUP1 CALLDATASIZE SUB DUP2 ADD SWAP1 PUSH2 0x79 SWAP2 SWAP1 PUSH2 0x17A JUMP JUMPDEST PUSH2 0xDA JUMP JUMPDEST STOP JUMPDEST PUSH2 0x88 PUSH2 0xF4 JUMP JUMPDEST PUSH1 0x40 MLOAD PUSH2 0x95 SWAP2 SWAP1 PUSH2 0x1B4 JUMP JUMPDEST PUSH1 0x40 MLOAD DUP1 SWAP2 SUB SWAP1 RETURN JUMPDEST PUSH2 0xA6 PUSH2 0xF9 JUMP JUMPDEST STOP JUMPDEST PUSH2 0xB0 PUSH2 0x111 JUMP JUMPDEST PUSH1 0x40 MLOAD PUSH2 0xBD SWAP2 SWAP1 PUSH2 0x1B4 JUMP JUMPDEST PUSH1 0x40 MLOAD DUP1 SWAP2 SUB SWAP1 RETURN JUMPDEST PUSH2 0xCE PUSH2 0x119 JUMP JUMPDEST STOP JUMPDEST PUSH2 0xD8 PUSH2 0x13B JUMP JUMPDEST STOP JUMPDEST DUP1 PUSH0 PUSH0 DUP3 DUP3 SLOAD PUSH2 0xEA SWAP2 SWAP1 PUSH2 0x1FA JUMP JUMPDEST SWAP3 POP POP DUP2 SWAP1 SSTORE POP POP JUMP JUMPDEST PUSH0 SLOAD DUP2 JUMP JUMPDEST PUSH0 PUSH0 DUP2 SLOAD DUP1 SWAP3 SWAP2 SWAP1 PUSH2 0x10A SWAP1 PUSH2 0x22D JUMP JUMPDEST SWAP2 SWAP1 POP SSTORE POP JUMP JUMPDEST PUSH0 PUSH0 SLOAD SWAP1 POP SWAP1 JUMP JUMPDEST PUSH0 PUSH0 SLOAD GT ISZERO PUSH2 0x139 JUMPI PUSH0 PUSH0 DUP2 SLOAD DUP1 SWAP3 SWAP2 SWAP1 PUSH2 0x133 SWAP1 PUSH2 0x274 JUMP JUMPDEST SWAP2 SWAP1 POP SSTORE POP JUMPDEST JUMP JUMPDEST PUSH0 PUSH0 DUP2 SWAP1 SSTORE POP JUMP JUMPDEST PUSH0 PUSH0 REVERT JUMPDEST PUSH0 DUP2 SWAP1 POP SWAP2 SWAP1 POP JUMP JUMPDEST PUSH2 0x159 DUP2 PUSH2 0x147 JUMP JUMPDEST DUP2 EQ PUSH2 0x163 JUMPI PUSH0 PUSH0 REVERT JUMPDEST POP JUMP JUMPDEST PUSH0 DUP2 CALLDATALOAD SWAP1 POP PUSH2 0x174 DUP2 PUSH2 0x150 JUMP JUMPDEST SWAP3 SWAP2 POP POP JUMP JUMPDEST PUSH0 PUSH1 0x20 DUP3 DUP5 SUB SLT ISZERO PUSH2 0x18F JUMPI PUSH2 0x18E PUSH2 0x143 JUMP JUMPDEST JUMPDEST PUSH0 PUSH2 0x19C DUP5 DUP3 DUP6 ADD PUSH2 0x166 JUMP JUMPDEST SWAP2 POP POP SWAP3 SWAP2 POP POP JUMP JUMPDEST PUSH2 0x1AE DUP2 PUSH2 0x147 JUMP JUMPDEST DUP3 MSTORE POP POP JUMP JUMPDEST PUSH0 PUSH1 0x20 DUP3 ADD SWAP1 POP PUSH2 0x1C7 PUSH0 DUP4 ADD DUP5 PUSH2 0x1A5 JUMP JUMPDEST SWAP3 SWAP2 POP POP JUMP JUMPDEST PUSH32 0x4E487B7100000000000000000000000000000000000000000000000000000000 PUSH0 MSTORE PUSH1 0x11 PUSH1 0x4 MSTORE PUSH1 0x24 PUSH0 REVERT JUMPDEST PUSH0 PUSH2 0x204 DUP3 PUSH2 0x147 JUMP JUMPDEST SWAP2 POP PUSH2 0x20F DUP4 PUSH2 0x147 JUMP JUMPDEST SWAP3 POP DUP3 DUP3 ADD SWAP1 POP DUP1 DUP3 GT ISZERO PUSH2 0x227 JUMPI PUSH2 0x226 PUSH2 0x1CD JUMP JUMPDEST JUMPDEST SWAP3 SWAP2 POP POP JUMP JUMPDEST PUSH0 PUSH2 0x237 DUP3 PUSH2 0x147 JUMP JUMPDEST SWAP2 POP PUSH32 0xFFFFFFFFFFFFFFFFFFFFFFFFFFFFFFFFFFFFFFFFFFFFFFFFFFFFFFFFFFFFFFFF DUP3 SUB PUSH2 0x269 JUMPI PUSH2 0x268 PUSH2 0x1CD JUMP JUMPDEST JUMPDEST PUSH1 0x1 DUP3 ADD SWAP1 POP SWAP2 SWAP1 POP JUMP JUMPDEST PUSH0 PUSH2 0x27E DUP3 PUSH2 0x147 JUMP JUMPDEST SWAP2 POP PUSH0 DUP3 SUB PUSH2 0x290 JUMPI PUSH2 0x28F PUSH2 0x1CD JUMP JUMPDEST JUMPDEST PUSH1 0x1 DUP3 SUB SWAP1 POP SWAP2 SWAP1 POP JUMP INVALID LOG2 PUSH5 0x6970667358 0x22 SLT KECCAK256 SELFDESTRUCT 0xD4 RETURNDATACOPY PUSH11 0x38928338563CA90B5EE337 AND 0xAF RETURNDATACOPY LOG3 GASLIMIT CALLER 0x29 XOR PUSH21 0x2460FF5550D57AE464736F6C634300081E00330000 "
				},
				"gasEstimates": {
					"creation": {
						"codeDepositCost": "144200",
						"executionCost": "188",
						"totalCost": "144388"
					},
					"external": {
						"click()": "24518",
						"clickMultiple(uint256)": "infinite",
						"counter()": "2424",
						"decrease()": "26685",
						"getCounter()": "2475",
						"reset()": "5243"
					}
				},
				"methodIdentifiers": {
					"click()": "7d55923d",
					"clickMultiple(uint256)": "4f78922c",
					"counter()": "61bc221a",
					"decrease()": "d732d955",
					"getCounter()": "8ada066e",
					"reset()": "d826f88f"
				}
			},
			"storageLayout": {
				"storage": [
					{
						"astId": 3,
						"contract": "submissions/yuriofi/Day1.sol:ClickCounter",
						"label": "counter",
						"offset": 0,
						"slot": "0",
						"type": "t_uint256"
					}
				],
				"types": {
					"t_uint256": {
						"encoding": "inplace",
						"label": "uint256",
						"numberOfBytes": "32"
					}
				}
			},
			"userdoc": {
				"kind": "user",
				"methods": {},
				"version": 1
			}
		}
	}
}