{
	"submissions/yuriofi/Day4.sol": {
		"AuctionHouse": {
			"abi": [
				{
					"inputs": [
						{
							"internalType": "string",
							"name": "_item",
							"type": "string"
						},
						{
							"internalType": "uint256",
							"name": "_biddingTime",
							"type": "uint256"
						}
					],
					"stateMutability": "nonpayable",
					"type": "constructor"
				},
				{
					"inputs": [],
					"name": "auctionEndTime",
					"outputs": [
						{
							"internalType": "uint256",
							"name": "",
							"type": "uint256"
						}
					],
					"stateMutability": "view",
					"type": "function"
				},
				{
					"inputs": [
						{
							"internalType": "uint256",
							"name": "amount",
							"type": "uint256"
						}
					],
					"name": "bid",
					"outputs": [],
					"stateMutability": "nonpayable",
					"type": "function"
				},
				{
					"inputs": [
						{
							"internalType": "uint256",
							"name": "",
							"type": "uint256"
						}
					],
					"name": "bidders",
					"outputs": [
						{
							"internalType": "address",
							"name": "",
							"type": "address"
						}
					],
					"stateMutability": "view",
					"type": "function"
				},
				{
					"inputs": [
						{
							"internalType": "address",
							"name": "",
							"type": "address"
						}
					],
					"name": "bids",
					"outputs": [
						{
							"internalType": "uint256",
							"name": "",
							"type": "uint256"
						}
					],
					"stateMutability": "view",
					"type": "function"
				},
				{
					"inputs": [],
					"name": "endAuction",
					"outputs": [],
					"stateMutability": "nonpayable",
					"type": "function"
				},
				{
					"inputs": [],
					"name": "ended",
					"outputs": [
						{
							"internalType": "bool",
							"name": "",
							"type": "bool"
						}
					],
					"stateMutability": "view",
					"type": "function"
				},
				{
					"inputs": [],
					"name": "getAllBidders",
					"outputs": [
						{
							"internalType": "address[]",
							"name": "",
							"type": "address[]"
						}
					],
					"stateMutability": "view",
					"type": "function"
				},
				{
					"inputs": [],
					"name": "getWinner",
					"outputs": [
						{
							"internalType": "address",
							"name": "",
							"type": "address"
						},
						{
							"internalType": "uint256",
							"name": "",
							"type": "uint256"
						}
					],
					"stateMutability": "view",
					"type": "function"
				},
				{
					"inputs": [],
					"name": "item",
					"outputs": [
						{
							"internalType": "string",
							"name": "",
							"type": "string"
						}
					],
					"stateMutability": "view",
					"type": "function"
				},
				{
					"inputs": [],
					"name": "owner",
					"outputs": [
						{
							"internalType": "address",
							"name": "",
							"type": "address"
						}
					],
					"stateMutability": "view",
					"type": "function"
				}
			],
			"devdoc": {
				"kind": "dev",
				"methods": {},
				"version": 1
			},
			"evm": {
				"assembly": "    /* \"submissions/yuriofi/Day4.sol\":62:1570  contract AuctionHouse{... */\n  mstore(0x40, 0x80)\n    /* \"submissions/yuriofi/Day4.sol\":402:562  constructor(string memory _item,uint _biddingTime){... */\n  callvalue\n  dup1\n  iszero\n  tag_1\n  jumpi\n  revert(0x00, 0x00)\ntag_1:\n  pop\n  mload(0x40)\n  sub(codesize, bytecodeSize)\n  dup1\n  bytecodeSize\n  dup4\n  codecopy\n  dup2\n  dup2\n  add\n  0x40\n  mstore\n  dup2\n  add\n  swap1\n  tag_2\n  swap2\n  swap1\n  tag_3\n  jump\t// in\ntag_2:\n    /* \"submissions/yuriofi/Day4.sol\":469:479  msg.sender */\n  caller\n    /* \"submissions/yuriofi/Day4.sol\":463:468  owner */\n  0x00\n  0x00\n    /* \"submissions/yuriofi/Day4.sol\":463:479  owner=msg.sender */\n  0x0100\n  exp\n  dup2\n  sload\n  dup2\n  0xffffffffffffffffffffffffffffffffffffffff\n  mul\n  not\n  and\n  swap1\n  dup4\n  0xffffffffffffffffffffffffffffffffffffffff\n  and\n  mul\n  or\n  swap1\n  sstore\n  pop\n    /* \"submissions/yuriofi/Day4.sol\":495:500  _item */\n  dup2\n    /* \"submissions/yuriofi/Day4.sol\":490:494  item */\n  0x01\n    /* \"submissions/yuriofi/Day4.sol\":490:500  item=_item */\n  swap1\n  dup2\n  tag_6\n  swap2\n  swap1\n  tag_7\n  jump\t// in\ntag_6:\n  pop\n    /* \"submissions/yuriofi/Day4.sol\":542:554  _biddingTime */\n  dup1\n    /* \"submissions/yuriofi/Day4.sol\":526:541  block.timestamp */\n  timestamp\n    /* \"submissions/yuriofi/Day4.sol\":526:554  block.timestamp+_biddingTime */\n  tag_8\n  swap2\n  swap1\n  tag_9\n  jump\t// in\ntag_8:\n    /* \"submissions/yuriofi/Day4.sol\":511:525  auctionEndTime */\n  0x02\n    /* \"submissions/yuriofi/Day4.sol\":511:554  auctionEndTime=block.timestamp+_biddingTime */\n  dup2\n  swap1\n  sstore\n  pop\n    /* \"submissions/yuriofi/Day4.sol\":402:562  constructor(string memory _item,uint _biddingTime){... */\n  pop\n  pop\n    /* \"submissions/yuriofi/Day4.sol\":62:1570  contract AuctionHouse{... */\n  jump(tag_10)\n    /* \"#utility.yul\":7:82   */\ntag_11:\n    /* \"#utility.yul\":40:46   */\n  0x00\n    /* \"#utility.yul\":73:75   */\n  0x40\n    /* \"#utility.yul\":67:76   */\n  mload\n    /* \"#utility.yul\":57:76   */\n  swap1\n  pop\n    /* \"#utility.yul\":7:82   */\n  swap1\n  jump\t// out\n    /* \"#utility.yul\":88:205   */\ntag_12:\n    /* \"#utility.yul\":197:198   */\n  0x00\n    /* \"#utility.yul\":194:195   */\n  0x00\n    /* \"#utility.yul\":187:199   */\n  revert\n    /* \"#utility.yul\":211:328   */\ntag_13:\n    /* \"#utility.yul\":320:321   */\n  0x00\n    /* \"#utility.yul\":317:318   */\n  0x00\n    /* \"#utility.yul\":310:322   */\n  revert\n    /* \"#utility.yul\":334:451   */\ntag_14:\n    /* \"#utility.yul\":443:444   */\n  0x00\n    /* \"#utility.yul\":440:441   */\n  0x00\n    /* \"#utility.yul\":433:445   */\n  revert\n    /* \"#utility.yul\":457:574   */\ntag_15:\n    /* \"#utility.yul\":566:567   */\n  0x00\n    /* \"#utility.yul\":563:564   */\n  0x00\n    /* \"#utility.yul\":556:568   */\n  revert\n    /* \"#utility.yul\":580:682   */\ntag_16:\n    /* \"#utility.yul\":621:627   */\n  0x00\n    /* \"#utility.yul\":672:674   */\n  0x1f\n    /* \"#utility.yul\":668:675   */\n  not\n    /* \"#utility.yul\":663:665   */\n  0x1f\n    /* \"#utility.yul\":656:661   */\n  dup4\n    /* \"#utility.yul\":652:666   */\n  add\n    /* \"#utility.yul\":648:676   */\n  and\n    /* \"#utility.yul\":638:676   */\n  swap1\n  pop\n    /* \"#utility.yul\":580:682   */\n  swap2\n  swap1\n  pop\n  jump\t// out\n    /* \"#utility.yul\":688:868   */\ntag_17:\n    /* \"#utility.yul\":736:813   */\n  0x4e487b7100000000000000000000000000000000000000000000000000000000\n    /* \"#utility.yul\":733:734   */\n  0x00\n    /* \"#utility.yul\":726:814   */\n  mstore\n    /* \"#utility.yul\":833:837   */\n  0x41\n    /* \"#utility.yul\":830:831   */\n  0x04\n    /* \"#utility.yul\":823:838   */\n  mstore\n    /* \"#utility.yul\":857:861   */\n  0x24\n    /* \"#utility.yul\":854:855   */\n  0x00\n    /* \"#utility.yul\":847:862   */\n  revert\n    /* \"#utility.yul\":874:1155   */\ntag_18:\n    /* \"#utility.yul\":957:984   */\n  tag_55\n    /* \"#utility.yul\":979:983   */\n  dup3\n    /* \"#utility.yul\":957:984   */\n  tag_16\n  jump\t// in\ntag_55:\n    /* \"#utility.yul\":949:955   */\n  dup2\n    /* \"#utility.yul\":945:985   */\n  add\n    /* \"#utility.yul\":1087:1093   */\n  dup2\n    /* \"#utility.yul\":1075:1085   */\n  dup2\n    /* \"#utility.yul\":1072:1094   */\n  lt\n    /* \"#utility.yul\":1051:1069   */\n  0xffffffffffffffff\n    /* \"#utility.yul\":1039:1049   */\n  dup3\n    /* \"#utility.yul\":1036:1070   */\n  gt\n    /* \"#utility.yul\":1033:1095   */\n  or\n    /* \"#utility.yul\":1030:1118   */\n  iszero\n  tag_56\n  jumpi\n    /* \"#utility.yul\":1098:1116   */\n  tag_57\n  tag_17\n  jump\t// in\ntag_57:\n    /* \"#utility.yul\":1030:1118   */\ntag_56:\n    /* \"#utility.yul\":1138:1148   */\n  dup1\n    /* \"#utility.yul\":1134:1136   */\n  0x40\n    /* \"#utility.yul\":1127:1149   */\n  mstore\n    /* \"#utility.yul\":917:1155   */\n  pop\n    /* \"#utility.yul\":874:1155   */\n  pop\n  pop\n  jump\t// out\n    /* \"#utility.yul\":1161:1290   */\ntag_19:\n    /* \"#utility.yul\":1195:1201   */\n  0x00\n    /* \"#utility.yul\":1222:1242   */\n  tag_59\n  tag_11\n  jump\t// in\ntag_59:\n    /* \"#utility.yul\":1212:1242   */\n  swap1\n  pop\n    /* \"#utility.yul\":1251:1284   */\n  tag_60\n    /* \"#utility.yul\":1279:1283   */\n  dup3\n    /* \"#utility.yul\":1271:1277   */\n  dup3\n    /* \"#utility.yul\":1251:1284   */\n  tag_18\n  jump\t// in\ntag_60:\n    /* \"#utility.yul\":1161:1290   */\n  swap2\n  swap1\n  pop\n  jump\t// out\n    /* \"#utility.yul\":1296:1604   */\ntag_20:\n    /* \"#utility.yul\":1358:1362   */\n  0x00\n    /* \"#utility.yul\":1448:1466   */\n  0xffffffffffffffff\n    /* \"#utility.yul\":1440:1446   */\n  dup3\n    /* \"#utility.yul\":1437:1467   */\n  gt\n    /* \"#utility.yul\":1434:1490   */\n  iszero\n  tag_62\n  jumpi\n    /* \"#utility.yul\":1470:1488   */\n  tag_63\n  tag_17\n  jump\t// in\ntag_63:\n    /* \"#utility.yul\":1434:1490   */\ntag_62:\n    /* \"#utility.yul\":1508:1537   */\n  tag_64\n    /* \"#utility.yul\":1530:1536   */\n  dup3\n    /* \"#utility.yul\":1508:1537   */\n  tag_16\n  jump\t// in\ntag_64:\n    /* \"#utility.yul\":1500:1537   */\n  swap1\n  pop\n    /* \"#utility.yul\":1592:1596   */\n  0x20\n    /* \"#utility.yul\":1586:1590   */\n  dup2\n    /* \"#utility.yul\":1582:1597   */\n  add\n    /* \"#utility.yul\":1574:1597   */\n  swap1\n  pop\n    /* \"#utility.yul\":1296:1604   */\n  swap2\n  swap1\n  pop\n  jump\t// out\n    /* \"#utility.yul\":1610:1749   */\ntag_21:\n    /* \"#utility.yul\":1699:1705   */\n  dup3\n    /* \"#utility.yul\":1694:1697   */\n  dup2\n    /* \"#utility.yul\":1689:1692   */\n  dup4\n    /* \"#utility.yul\":1683:1706   */\n  mcopy\n    /* \"#utility.yul\":1740:1741   */\n  0x00\n    /* \"#utility.yul\":1731:1737   */\n  dup4\n    /* \"#utility.yul\":1726:1729   */\n  dup4\n    /* \"#utility.yul\":1722:1738   */\n  add\n    /* \"#utility.yul\":1715:1742   */\n  mstore\n    /* \"#utility.yul\":1610:1749   */\n  pop\n  pop\n  pop\n  jump\t// out\n    /* \"#utility.yul\":1755:2189   */\ntag_22:\n    /* \"#utility.yul\":1844:1849   */\n  0x00\n    /* \"#utility.yul\":1869:1935   */\n  tag_67\n    /* \"#utility.yul\":1885:1934   */\n  tag_68\n    /* \"#utility.yul\":1927:1933   */\n  dup5\n    /* \"#utility.yul\":1885:1934   */\n  tag_20\n  jump\t// in\ntag_68:\n    /* \"#utility.yul\":1869:1935   */\n  tag_19\n  jump\t// in\ntag_67:\n    /* \"#utility.yul\":1860:1935   */\n  swap1\n  pop\n    /* \"#utility.yul\":1958:1964   */\n  dup3\n    /* \"#utility.yul\":1951:1956   */\n  dup2\n    /* \"#utility.yul\":1944:1965   */\n  mstore\n    /* \"#utility.yul\":1996:2000   */\n  0x20\n    /* \"#utility.yul\":1989:1994   */\n  dup2\n    /* \"#utility.yul\":1985:2001   */\n  add\n    /* \"#utility.yul\":2034:2037   */\n  dup5\n    /* \"#utility.yul\":2025:2031   */\n  dup5\n    /* \"#utility.yul\":2020:2023   */\n  dup5\n    /* \"#utility.yul\":2016:2032   */\n  add\n    /* \"#utility.yul\":2013:2038   */\n  gt\n    /* \"#utility.yul\":2010:2122   */\n  iszero\n  tag_69\n  jumpi\n    /* \"#utility.yul\":2041:2120   */\n  tag_70\n  tag_15\n  jump\t// in\ntag_70:\n    /* \"#utility.yul\":2010:2122   */\ntag_69:\n    /* \"#utility.yul\":2131:2183   */\n  tag_71\n    /* \"#utility.yul\":2176:2182   */\n  dup5\n    /* \"#utility.yul\":2171:2174   */\n  dup3\n    /* \"#utility.yul\":2166:2169   */\n  dup6\n    /* \"#utility.yul\":2131:2183   */\n  tag_21\n  jump\t// in\ntag_71:\n    /* \"#utility.yul\":1850:2189   */\n  pop\n    /* \"#utility.yul\":1755:2189   */\n  swap4\n  swap3\n  pop\n  pop\n  pop\n  jump\t// out\n    /* \"#utility.yul\":2209:2564   */\ntag_23:\n    /* \"#utility.yul\":2276:2281   */\n  0x00\n    /* \"#utility.yul\":2325:2328   */\n  dup3\n    /* \"#utility.yul\":2318:2322   */\n  0x1f\n    /* \"#utility.yul\":2310:2316   */\n  dup4\n    /* \"#utility.yul\":2306:2323   */\n  add\n    /* \"#utility.yul\":2302:2329   */\n  slt\n    /* \"#utility.yul\":2292:2414   */\n  tag_73\n  jumpi\n    /* \"#utility.yul\":2333:2412   */\n  tag_74\n  tag_14\n  jump\t// in\ntag_74:\n    /* \"#utility.yul\":2292:2414   */\ntag_73:\n    /* \"#utility.yul\":2443:2449   */\n  dup2\n    /* \"#utility.yul\":2437:2450   */\n  mload\n    /* \"#utility.yul\":2468:2558   */\n  tag_75\n    /* \"#utility.yul\":2554:2557   */\n  dup5\n    /* \"#utility.yul\":2546:2552   */\n  dup3\n    /* \"#utility.yul\":2539:2543   */\n  0x20\n    /* \"#utility.yul\":2531:2537   */\n  dup7\n    /* \"#utility.yul\":2527:2544   */\n  add\n    /* \"#utility.yul\":2468:2558   */\n  tag_22\n  jump\t// in\ntag_75:\n    /* \"#utility.yul\":2459:2558   */\n  swap2\n  pop\n    /* \"#utility.yul\":2282:2564   */\n  pop\n    /* \"#utility.yul\":2209:2564   */\n  swap3\n  swap2\n  pop\n  pop\n  jump\t// out\n    /* \"#utility.yul\":2570:2647   */\ntag_24:\n    /* \"#utility.yul\":2607:2614   */\n  0x00\n    /* \"#utility.yul\":2636:2641   */\n  dup2\n    /* \"#utility.yul\":2625:2641   */\n  swap1\n  pop\n    /* \"#utility.yul\":2570:2647   */\n  swap2\n  swap1\n  pop\n  jump\t// out\n    /* \"#utility.yul\":2653:2775   */\ntag_25:\n    /* \"#utility.yul\":2726:2750   */\n  tag_78\n    /* \"#utility.yul\":2744:2749   */\n  dup2\n    /* \"#utility.yul\":2726:2750   */\n  tag_24\n  jump\t// in\ntag_78:\n    /* \"#utility.yul\":2719:2724   */\n  dup2\n    /* \"#utility.yul\":2716:2751   */\n  eq\n    /* \"#utility.yul\":2706:2769   */\n  tag_79\n  jumpi\n    /* \"#utility.yul\":2765:2766   */\n  0x00\n    /* \"#utility.yul\":2762:2763   */\n  0x00\n    /* \"#utility.yul\":2755:2767   */\n  revert\n    /* \"#utility.yul\":2706:2769   */\ntag_79:\n    /* \"#utility.yul\":2653:2775   */\n  pop\n  jump\t// out\n    /* \"#utility.yul\":2781:2924   */\ntag_26:\n    /* \"#utility.yul\":2838:2843   */\n  0x00\n    /* \"#utility.yul\":2869:2875   */\n  dup2\n    /* \"#utility.yul\":2863:2876   */\n  mload\n    /* \"#utility.yul\":2854:2876   */\n  swap1\n  pop\n    /* \"#utility.yul\":2885:2918   */\n  tag_81\n    /* \"#utility.yul\":2912:2917   */\n  dup2\n    /* \"#utility.yul\":2885:2918   */\n  tag_25\n  jump\t// in\ntag_81:\n    /* \"#utility.yul\":2781:2924   */\n  swap3\n  swap2\n  pop\n  pop\n  jump\t// out\n    /* \"#utility.yul\":2930:3610   */\ntag_3:\n    /* \"#utility.yul\":3019:3025   */\n  0x00\n    /* \"#utility.yul\":3027:3033   */\n  0x00\n    /* \"#utility.yul\":3076:3078   */\n  0x40\n    /* \"#utility.yul\":3064:3073   */\n  dup4\n    /* \"#utility.yul\":3055:3062   */\n  dup6\n    /* \"#utility.yul\":3051:3074   */\n  sub\n    /* \"#utility.yul\":3047:3079   */\n  slt\n    /* \"#utility.yul\":3044:3163   */\n  iszero\n  tag_83\n  jumpi\n    /* \"#utility.yul\":3082:3161   */\n  tag_84\n  tag_12\n  jump\t// in\ntag_84:\n    /* \"#utility.yul\":3044:3163   */\ntag_83:\n    /* \"#utility.yul\":3223:3224   */\n  0x00\n    /* \"#utility.yul\":3212:3221   */\n  dup4\n    /* \"#utility.yul\":3208:3225   */\n  add\n    /* \"#utility.yul\":3202:3226   */\n  mload\n    /* \"#utility.yul\":3253:3271   */\n  0xffffffffffffffff\n    /* \"#utility.yul\":3245:3251   */\n  dup2\n    /* \"#utility.yul\":3242:3272   */\n  gt\n    /* \"#utility.yul\":3239:3356   */\n  iszero\n  tag_85\n  jumpi\n    /* \"#utility.yul\":3275:3354   */\n  tag_86\n  tag_13\n  jump\t// in\ntag_86:\n    /* \"#utility.yul\":3239:3356   */\ntag_85:\n    /* \"#utility.yul\":3380:3454   */\n  tag_87\n    /* \"#utility.yul\":3446:3453   */\n  dup6\n    /* \"#utility.yul\":3437:3443   */\n  dup3\n    /* \"#utility.yul\":3426:3435   */\n  dup7\n    /* \"#utility.yul\":3422:3444   */\n  add\n    /* \"#utility.yul\":3380:3454   */\n  tag_23\n  jump\t// in\ntag_87:\n    /* \"#utility.yul\":3370:3454   */\n  swap3\n  pop\n    /* \"#utility.yul\":3173:3464   */\n  pop\n    /* \"#utility.yul\":3503:3505   */\n  0x20\n    /* \"#utility.yul\":3529:3593   */\n  tag_88\n    /* \"#utility.yul\":3585:3592   */\n  dup6\n    /* \"#utility.yul\":3576:3582   */\n  dup3\n    /* \"#utility.yul\":3565:3574   */\n  dup7\n    /* \"#utility.yul\":3561:3583   */\n  add\n    /* \"#utility.yul\":3529:3593   */\n  tag_26\n  jump\t// in\ntag_88:\n    /* \"#utility.yul\":3519:3593   */\n  swap2\n  pop\n    /* \"#utility.yul\":3474:3603   */\n  pop\n    /* \"#utility.yul\":2930:3610   */\n  swap3\n  pop\n  swap3\n  swap1\n  pop\n  jump\t// out\n    /* \"#utility.yul\":3616:3715   */\ntag_27:\n    /* \"#utility.yul\":3668:3674   */\n  0x00\n    /* \"#utility.yul\":3702:3707   */\n  dup2\n    /* \"#utility.yul\":3696:3708   */\n  mload\n    /* \"#utility.yul\":3686:3708   */\n  swap1\n  pop\n    /* \"#utility.yul\":3616:3715   */\n  swap2\n  swap1\n  pop\n  jump\t// out\n    /* \"#utility.yul\":3721:3901   */\ntag_28:\n    /* \"#utility.yul\":3769:3846   */\n  0x4e487b7100000000000000000000000000000000000000000000000000000000\n    /* \"#utility.yul\":3766:3767   */\n  0x00\n    /* \"#utility.yul\":3759:3847   */\n  mstore\n    /* \"#utility.yul\":3866:3870   */\n  0x22\n    /* \"#utility.yul\":3863:3864   */\n  0x04\n    /* \"#utility.yul\":3856:3871   */\n  mstore\n    /* \"#utility.yul\":3890:3894   */\n  0x24\n    /* \"#utility.yul\":3887:3888   */\n  0x00\n    /* \"#utility.yul\":3880:3895   */\n  revert\n    /* \"#utility.yul\":3907:4227   */\ntag_29:\n    /* \"#utility.yul\":3951:3957   */\n  0x00\n    /* \"#utility.yul\":3988:3989   */\n  0x02\n    /* \"#utility.yul\":3982:3986   */\n  dup3\n    /* \"#utility.yul\":3978:3990   */\n  div\n    /* \"#utility.yul\":3968:3990   */\n  swap1\n  pop\n    /* \"#utility.yul\":4035:4036   */\n  0x01\n    /* \"#utility.yul\":4029:4033   */\n  dup3\n    /* \"#utility.yul\":4025:4037   */\n  and\n    /* \"#utility.yul\":4056:4074   */\n  dup1\n    /* \"#utility.yul\":4046:4127   */\n  tag_92\n  jumpi\n    /* \"#utility.yul\":4112:4116   */\n  0x7f\n    /* \"#utility.yul\":4104:4110   */\n  dup3\n    /* \"#utility.yul\":4100:4117   */\n  and\n    /* \"#utility.yul\":4090:4117   */\n  swap2\n  pop\n    /* \"#utility.yul\":4046:4127   */\ntag_92:\n    /* \"#utility.yul\":4174:4176   */\n  0x20\n    /* \"#utility.yul\":4166:4172   */\n  dup3\n    /* \"#utility.yul\":4163:4177   */\n  lt\n    /* \"#utility.yul\":4143:4161   */\n  dup2\n    /* \"#utility.yul\":4140:4178   */\n  sub\n    /* \"#utility.yul\":4137:4221   */\n  tag_93\n  jumpi\n    /* \"#utility.yul\":4193:4211   */\n  tag_94\n  tag_28\n  jump\t// in\ntag_94:\n    /* \"#utility.yul\":4137:4221   */\ntag_93:\n    /* \"#utility.yul\":3958:4227   */\n  pop\n    /* \"#utility.yul\":3907:4227   */\n  swap2\n  swap1\n  pop\n  jump\t// out\n    /* \"#utility.yul\":4233:4374   */\ntag_30:\n    /* \"#utility.yul\":4282:4286   */\n  0x00\n    /* \"#utility.yul\":4305:4308   */\n  dup2\n    /* \"#utility.yul\":4297:4308   */\n  swap1\n  pop\n    /* \"#utility.yul\":4328:4331   */\n  dup2\n    /* \"#utility.yul\":4325:4326   */\n  0x00\n    /* \"#utility.yul\":4318:4332   */\n  mstore\n    /* \"#utility.yul\":4362:4366   */\n  0x20\n    /* \"#utility.yul\":4359:4360   */\n  0x00\n    /* \"#utility.yul\":4349:4367   */\n  keccak256\n    /* \"#utility.yul\":4341:4367   */\n  swap1\n  pop\n    /* \"#utility.yul\":4233:4374   */\n  swap2\n  swap1\n  pop\n  jump\t// out\n    /* \"#utility.yul\":4380:4473   */\ntag_31:\n    /* \"#utility.yul\":4417:4423   */\n  0x00\n    /* \"#utility.yul\":4464:4466   */\n  0x20\n    /* \"#utility.yul\":4459:4461   */\n  0x1f\n    /* \"#utility.yul\":4452:4457   */\n  dup4\n    /* \"#utility.yul\":4448:4462   */\n  add\n    /* \"#utility.yul\":4444:4467   */\n  div\n    /* \"#utility.yul\":4434:4467   */\n  swap1\n  pop\n    /* \"#utility.yul\":4380:4473   */\n  swap2\n  swap1\n  pop\n  jump\t// out\n    /* \"#utility.yul\":4479:4586   */\ntag_32:\n    /* \"#utility.yul\":4523:4531   */\n  0x00\n    /* \"#utility.yul\":4573:4578   */\n  dup3\n    /* \"#utility.yul\":4567:4571   */\n  dup3\n    /* \"#utility.yul\":4563:4579   */\n  shl\n    /* \"#utility.yul\":4542:4579   */\n  swap1\n  pop\n    /* \"#utility.yul\":4479:4586   */\n  swap3\n  swap2\n  pop\n  pop\n  jump\t// out\n    /* \"#utility.yul\":4592:4985   */\ntag_33:\n    /* \"#utility.yul\":4661:4667   */\n  0x00\n    /* \"#utility.yul\":4711:4712   */\n  0x08\n    /* \"#utility.yul\":4699:4709   */\n  dup4\n    /* \"#utility.yul\":4695:4713   */\n  mul\n    /* \"#utility.yul\":4734:4831   */\n  tag_99\n    /* \"#utility.yul\":4764:4830   */\n  0xffffffffffffffffffffffffffffffffffffffffffffffffffffffffffffffff\n    /* \"#utility.yul\":4753:4762   */\n  dup3\n    /* \"#utility.yul\":4734:4831   */\n  tag_32\n  jump\t// in\ntag_99:\n    /* \"#utility.yul\":4852:4891   */\n  tag_100\n    /* \"#utility.yul\":4882:4890   */\n  dup7\n    /* \"#utility.yul\":4871:4880   */\n  dup4\n    /* \"#utility.yul\":4852:4891   */\n  tag_32\n  jump\t// in\ntag_100:\n    /* \"#utility.yul\":4840:4891   */\n  swap6\n  pop\n    /* \"#utility.yul\":4924:4928   */\n  dup1\n    /* \"#utility.yul\":4920:4929   */\n  not\n    /* \"#utility.yul\":4913:4918   */\n  dup5\n    /* \"#utility.yul\":4909:4930   */\n  and\n    /* \"#utility.yul\":4900:4930   */\n  swap4\n  pop\n    /* \"#utility.yul\":4973:4977   */\n  dup1\n    /* \"#utility.yul\":4963:4971   */\n  dup7\n    /* \"#utility.yul\":4959:4978   */\n  and\n    /* \"#utility.yul\":4952:4957   */\n  dup5\n    /* \"#utility.yul\":4949:4979   */\n  or\n    /* \"#utility.yul\":4939:4979   */\n  swap3\n  pop\n    /* \"#utility.yul\":4668:4985   */\n  pop\n  pop\n    /* \"#utility.yul\":4592:4985   */\n  swap4\n  swap3\n  pop\n  pop\n  pop\n  jump\t// out\n    /* \"#utility.yul\":4991:5051   */\ntag_34:\n    /* \"#utility.yul\":5019:5022   */\n  0x00\n    /* \"#utility.yul\":5040:5045   */\n  dup2\n    /* \"#utility.yul\":5033:5045   */\n  swap1\n  pop\n    /* \"#utility.yul\":4991:5051   */\n  swap2\n  swap1\n  pop\n  jump\t// out\n    /* \"#utility.yul\":5057:5199   */\ntag_35:\n    /* \"#utility.yul\":5107:5116   */\n  0x00\n    /* \"#utility.yul\":5140:5193   */\n  tag_103\n    /* \"#utility.yul\":5158:5192   */\n  tag_104\n    /* \"#utility.yul\":5167:5191   */\n  tag_105\n    /* \"#utility.yul\":5185:5190   */\n  dup5\n    /* \"#utility.yul\":5167:5191   */\n  tag_24\n  jump\t// in\ntag_105:\n    /* \"#utility.yul\":5158:5192   */\n  tag_34\n  jump\t// in\ntag_104:\n    /* \"#utility.yul\":5140:5193   */\n  tag_24\n  jump\t// in\ntag_103:\n    /* \"#utility.yul\":5127:5193   */\n  swap1\n  pop\n    /* \"#utility.yul\":5057:5199   */\n  swap2\n  swap1\n  pop\n  jump\t// out\n    /* \"#utility.yul\":5205:5280   */\ntag_36:\n    /* \"#utility.yul\":5248:5251   */\n  0x00\n    /* \"#utility.yul\":5269:5274   */\n  dup2\n    /* \"#utility.yul\":5262:5274   */\n  swap1\n  pop\n    /* \"#utility.yul\":5205:5280   */\n  swap2\n  swap1\n  pop\n  jump\t// out\n    /* \"#utility.yul\":5286:5555   */\ntag_37:\n    /* \"#utility.yul\":5396:5435   */\n  tag_108\n    /* \"#utility.yul\":5427:5434   */\n  dup4\n    /* \"#utility.yul\":5396:5435   */\n  tag_35\n  jump\t// in\ntag_108:\n    /* \"#utility.yul\":5457:5548   */\n  tag_109\n    /* \"#utility.yul\":5506:5547   */\n  tag_110\n    /* \"#utility.yul\":5530:5546   */\n  dup3\n    /* \"#utility.yul\":5506:5547   */\n  tag_36\n  jump\t// in\ntag_110:\n    /* \"#utility.yul\":5498:5504   */\n  dup5\n    /* \"#utility.yul\":5491:5495   */\n  dup5\n    /* \"#utility.yul\":5485:5496   */\n  sload\n    /* \"#utility.yul\":5457:5548   */\n  tag_33\n  jump\t// in\ntag_109:\n    /* \"#utility.yul\":5451:5455   */\n  dup3\n    /* \"#utility.yul\":5444:5549   */\n  sstore\n    /* \"#utility.yul\":5362:5555   */\n  pop\n    /* \"#utility.yul\":5286:5555   */\n  pop\n  pop\n  pop\n  jump\t// out\n    /* \"#utility.yul\":5561:5634   */\ntag_38:\n    /* \"#utility.yul\":5606:5609   */\n  0x00\n    /* \"#utility.yul\":5627:5628   */\n  0x00\n    /* \"#utility.yul\":5620:5628   */\n  swap1\n  pop\n    /* \"#utility.yul\":5561:5634   */\n  swap1\n  jump\t// out\n    /* \"#utility.yul\":5640:5829   */\ntag_39:\n    /* \"#utility.yul\":5717:5749   */\n  tag_113\n  tag_38\n  jump\t// in\ntag_113:\n    /* \"#utility.yul\":5758:5823   */\n  tag_114\n    /* \"#utility.yul\":5816:5822   */\n  dup2\n    /* \"#utility.yul\":5808:5814   */\n  dup5\n    /* \"#utility.yul\":5802:5806   */\n  dup5\n    /* \"#utility.yul\":5758:5823   */\n  tag_37\n  jump\t// in\ntag_114:\n    /* \"#utility.yul\":5693:5829   */\n  pop\n    /* \"#utility.yul\":5640:5829   */\n  pop\n  pop\n  jump\t// out\n    /* \"#utility.yul\":5835:6021   */\ntag_40:\n    /* \"#utility.yul\":5895:6015   */\ntag_116:\n    /* \"#utility.yul\":5912:5915   */\n  dup2\n    /* \"#utility.yul\":5905:5910   */\n  dup2\n    /* \"#utility.yul\":5902:5916   */\n  lt\n    /* \"#utility.yul\":5895:6015   */\n  iszero\n  tag_118\n  jumpi\n    /* \"#utility.yul\":5966:6005   */\n  tag_119\n    /* \"#utility.yul\":6003:6004   */\n  0x00\n    /* \"#utility.yul\":5996:6001   */\n  dup3\n    /* \"#utility.yul\":5966:6005   */\n  tag_39\n  jump\t// in\ntag_119:\n    /* \"#utility.yul\":5939:5940   */\n  0x01\n    /* \"#utility.yul\":5932:5937   */\n  dup2\n    /* \"#utility.yul\":5928:5941   */\n  add\n    /* \"#utility.yul\":5919:5941   */\n  swap1\n  pop\n    /* \"#utility.yul\":5895:6015   */\n  jump(tag_116)\ntag_118:\n    /* \"#utility.yul\":5835:6021   */\n  pop\n  pop\n  jump\t// out\n    /* \"#utility.yul\":6027:6570   */\ntag_41:\n    /* \"#utility.yul\":6128:6130   */\n  0x1f\n    /* \"#utility.yul\":6123:6126   */\n  dup3\n    /* \"#utility.yul\":6120:6131   */\n  gt\n    /* \"#utility.yul\":6117:6563   */\n  iszero\n  tag_121\n  jumpi\n    /* \"#utility.yul\":6162:6200   */\n  tag_122\n    /* \"#utility.yul\":6194:6199   */\n  dup2\n    /* \"#utility.yul\":6162:6200   */\n  tag_30\n  jump\t// in\ntag_122:\n    /* \"#utility.yul\":6246:6275   */\n  tag_123\n    /* \"#utility.yul\":6264:6274   */\n  dup5\n    /* \"#utility.yul\":6246:6275   */\n  tag_31\n  jump\t// in\ntag_123:\n    /* \"#utility.yul\":6236:6244   */\n  dup2\n    /* \"#utility.yul\":6232:6276   */\n  add\n    /* \"#utility.yul\":6429:6431   */\n  0x20\n    /* \"#utility.yul\":6417:6427   */\n  dup6\n    /* \"#utility.yul\":6414:6432   */\n  lt\n    /* \"#utility.yul\":6411:6460   */\n  iszero\n  tag_124\n  jumpi\n    /* \"#utility.yul\":6450:6458   */\n  dup2\n    /* \"#utility.yul\":6435:6458   */\n  swap1\n  pop\n    /* \"#utility.yul\":6411:6460   */\ntag_124:\n    /* \"#utility.yul\":6473:6553   */\n  tag_125\n    /* \"#utility.yul\":6529:6551   */\n  tag_126\n    /* \"#utility.yul\":6547:6550   */\n  dup6\n    /* \"#utility.yul\":6529:6551   */\n  tag_31\n  jump\t// in\ntag_126:\n    /* \"#utility.yul\":6519:6527   */\n  dup4\n    /* \"#utility.yul\":6515:6552   */\n  add\n    /* \"#utility.yul\":6502:6513   */\n  dup3\n    /* \"#utility.yul\":6473:6553   */\n  tag_40\n  jump\t// in\ntag_125:\n    /* \"#utility.yul\":6132:6563   */\n  pop\n  pop\n    /* \"#utility.yul\":6117:6563   */\ntag_121:\n    /* \"#utility.yul\":6027:6570   */\n  pop\n  pop\n  pop\n  jump\t// out\n    /* \"#utility.yul\":6576:6693   */\ntag_42:\n    /* \"#utility.yul\":6630:6638   */\n  0x00\n    /* \"#utility.yul\":6680:6685   */\n  dup3\n    /* \"#utility.yul\":6674:6678   */\n  dup3\n    /* \"#utility.yul\":6670:6686   */\n  shr\n    /* \"#utility.yul\":6649:6686   */\n  swap1\n  pop\n    /* \"#utility.yul\":6576:6693   */\n  swap3\n  swap2\n  pop\n  pop\n  jump\t// out\n    /* \"#utility.yul\":6699:6868   */\ntag_43:\n    /* \"#utility.yul\":6743:6749   */\n  0x00\n    /* \"#utility.yul\":6776:6827   */\n  tag_129\n    /* \"#utility.yul\":6824:6825   */\n  0x00\n    /* \"#utility.yul\":6820:6826   */\n  not\n    /* \"#utility.yul\":6812:6817   */\n  dup5\n    /* \"#utility.yul\":6809:6810   */\n  0x08\n    /* \"#utility.yul\":6805:6818   */\n  mul\n    /* \"#utility.yul\":6776:6827   */\n  tag_42\n  jump\t// in\ntag_129:\n    /* \"#utility.yul\":6772:6828   */\n  not\n    /* \"#utility.yul\":6857:6861   */\n  dup1\n    /* \"#utility.yul\":6851:6855   */\n  dup4\n    /* \"#utility.yul\":6847:6862   */\n  and\n    /* \"#utility.yul\":6837:6862   */\n  swap2\n  pop\n    /* \"#utility.yul\":6750:6868   */\n  pop\n    /* \"#utility.yul\":6699:6868   */\n  swap3\n  swap2\n  pop\n  pop\n  jump\t// out\n    /* \"#utility.yul\":6873:7168   */\ntag_44:\n    /* \"#utility.yul\":6949:6953   */\n  0x00\n    /* \"#utility.yul\":7095:7124   */\n  tag_131\n    /* \"#utility.yul\":7120:7123   */\n  dup4\n    /* \"#utility.yul\":7114:7118   */\n  dup4\n    /* \"#utility.yul\":7095:7124   */\n  tag_43\n  jump\t// in\ntag_131:\n    /* \"#utility.yul\":7087:7124   */\n  swap2\n  pop\n    /* \"#utility.yul\":7157:7160   */\n  dup3\n    /* \"#utility.yul\":7154:7155   */\n  0x02\n    /* \"#utility.yul\":7150:7161   */\n  mul\n    /* \"#utility.yul\":7144:7148   */\n  dup3\n    /* \"#utility.yul\":7141:7162   */\n  or\n    /* \"#utility.yul\":7133:7162   */\n  swap1\n  pop\n    /* \"#utility.yul\":6873:7168   */\n  swap3\n  swap2\n  pop\n  pop\n  jump\t// out\n    /* \"#utility.yul\":7173:8568   */\ntag_7:\n    /* \"#utility.yul\":7290:7327   */\n  tag_133\n    /* \"#utility.yul\":7323:7326   */\n  dup3\n    /* \"#utility.yul\":7290:7327   */\n  tag_27\n  jump\t// in\ntag_133:\n    /* \"#utility.yul\":7392:7410   */\n  0xffffffffffffffff\n    /* \"#utility.yul\":7384:7390   */\n  dup2\n    /* \"#utility.yul\":7381:7411   */\n  gt\n    /* \"#utility.yul\":7378:7434   */\n  iszero\n  tag_134\n  jumpi\n    /* \"#utility.yul\":7414:7432   */\n  tag_135\n  tag_17\n  jump\t// in\ntag_135:\n    /* \"#utility.yul\":7378:7434   */\ntag_134:\n    /* \"#utility.yul\":7458:7496   */\n  tag_136\n    /* \"#utility.yul\":7490:7494   */\n  dup3\n    /* \"#utility.yul\":7484:7495   */\n  sload\n    /* \"#utility.yul\":7458:7496   */\n  tag_29\n  jump\t// in\ntag_136:\n    /* \"#utility.yul\":7543:7610   */\n  tag_137\n    /* \"#utility.yul\":7603:7609   */\n  dup3\n    /* \"#utility.yul\":7595:7601   */\n  dup3\n    /* \"#utility.yul\":7589:7593   */\n  dup6\n    /* \"#utility.yul\":7543:7610   */\n  tag_41\n  jump\t// in\ntag_137:\n    /* \"#utility.yul\":7637:7638   */\n  0x00\n    /* \"#utility.yul\":7661:7665   */\n  0x20\n    /* \"#utility.yul\":7648:7665   */\n  swap1\n  pop\n    /* \"#utility.yul\":7693:7695   */\n  0x1f\n    /* \"#utility.yul\":7685:7691   */\n  dup4\n    /* \"#utility.yul\":7682:7696   */\n  gt\n    /* \"#utility.yul\":7710:7711   */\n  0x01\n    /* \"#utility.yul\":7705:8323   */\n  dup2\n  eq\n  tag_139\n  jumpi\n    /* \"#utility.yul\":8367:8368   */\n  0x00\n    /* \"#utility.yul\":8384:8390   */\n  dup5\n    /* \"#utility.yul\":8381:8458   */\n  iszero\n  tag_140\n  jumpi\n    /* \"#utility.yul\":8433:8442   */\n  dup3\n    /* \"#utility.yul\":8428:8431   */\n  dup8\n    /* \"#utility.yul\":8424:8443   */\n  add\n    /* \"#utility.yul\":8418:8444   */\n  mload\n    /* \"#utility.yul\":8409:8444   */\n  swap1\n  pop\n    /* \"#utility.yul\":8381:8458   */\ntag_140:\n    /* \"#utility.yul\":8484:8551   */\n  tag_141\n    /* \"#utility.yul\":8544:8550   */\n  dup6\n    /* \"#utility.yul\":8537:8542   */\n  dup3\n    /* \"#utility.yul\":8484:8551   */\n  tag_44\n  jump\t// in\ntag_141:\n    /* \"#utility.yul\":8478:8482   */\n  dup7\n    /* \"#utility.yul\":8471:8552   */\n  sstore\n    /* \"#utility.yul\":8340:8562   */\n  pop\n    /* \"#utility.yul\":7675:8562   */\n  jump(tag_138)\n    /* \"#utility.yul\":7705:8323   */\ntag_139:\n    /* \"#utility.yul\":7757:7761   */\n  0x1f\n    /* \"#utility.yul\":7753:7762   */\n  not\n    /* \"#utility.yul\":7745:7751   */\n  dup5\n    /* \"#utility.yul\":7741:7763   */\n  and\n    /* \"#utility.yul\":7791:7828   */\n  tag_142\n    /* \"#utility.yul\":7823:7827   */\n  dup7\n    /* \"#utility.yul\":7791:7828   */\n  tag_30\n  jump\t// in\ntag_142:\n    /* \"#utility.yul\":7850:7851   */\n  0x00\n    /* \"#utility.yul\":7864:8072   */\ntag_143:\n    /* \"#utility.yul\":7878:7885   */\n  dup3\n    /* \"#utility.yul\":7875:7876   */\n  dup2\n    /* \"#utility.yul\":7872:7886   */\n  lt\n    /* \"#utility.yul\":7864:8072   */\n  iszero\n  tag_145\n  jumpi\n    /* \"#utility.yul\":7957:7966   */\n  dup5\n    /* \"#utility.yul\":7952:7955   */\n  dup10\n    /* \"#utility.yul\":7948:7967   */\n  add\n    /* \"#utility.yul\":7942:7968   */\n  mload\n    /* \"#utility.yul\":7934:7940   */\n  dup3\n    /* \"#utility.yul\":7927:7969   */\n  sstore\n    /* \"#utility.yul\":8008:8009   */\n  0x01\n    /* \"#utility.yul\":8000:8006   */\n  dup3\n    /* \"#utility.yul\":7996:8010   */\n  add\n    /* \"#utility.yul\":7986:8010   */\n  swap2\n  pop\n    /* \"#utility.yul\":8055:8057   */\n  0x20\n    /* \"#utility.yul\":8044:8053   */\n  dup6\n    /* \"#utility.yul\":8040:8058   */\n  add\n    /* \"#utility.yul\":8027:8058   */\n  swap5\n  pop\n    /* \"#utility.yul\":7901:7905   */\n  0x20\n    /* \"#utility.yul\":7898:7899   */\n  dup2\n    /* \"#utility.yul\":7894:7906   */\n  add\n    /* \"#utility.yul\":7889:7906   */\n  swap1\n  pop\n    /* \"#utility.yul\":7864:8072   */\n  jump(tag_143)\ntag_145:\n    /* \"#utility.yul\":8100:8106   */\n  dup7\n    /* \"#utility.yul\":8091:8098   */\n  dup4\n    /* \"#utility.yul\":8088:8107   */\n  lt\n    /* \"#utility.yul\":8085:8264   */\n  iszero\n  tag_146\n  jumpi\n    /* \"#utility.yul\":8158:8167   */\n  dup5\n    /* \"#utility.yul\":8153:8156   */\n  dup10\n    /* \"#utility.yul\":8149:8168   */\n  add\n    /* \"#utility.yul\":8143:8169   */\n  mload\n    /* \"#utility.yul\":8201:8249   */\n  tag_147\n    /* \"#utility.yul\":8243:8247   */\n  0x1f\n    /* \"#utility.yul\":8235:8241   */\n  dup10\n    /* \"#utility.yul\":8231:8248   */\n  and\n    /* \"#utility.yul\":8220:8229   */\n  dup3\n    /* \"#utility.yul\":8201:8249   */\n  tag_43\n  jump\t// in\ntag_147:\n    /* \"#utility.yul\":8193:8199   */\n  dup4\n    /* \"#utility.yul\":8186:8250   */\n  sstore\n    /* \"#utility.yul\":8108:8264   */\n  pop\n    /* \"#utility.yul\":8085:8264   */\ntag_146:\n    /* \"#utility.yul\":8310:8311   */\n  0x01\n    /* \"#utility.yul\":8306:8307   */\n  0x02\n    /* \"#utility.yul\":8298:8304   */\n  dup9\n    /* \"#utility.yul\":8294:8308   */\n  mul\n    /* \"#utility.yul\":8290:8312   */\n  add\n    /* \"#utility.yul\":8284:8288   */\n  dup9\n    /* \"#utility.yul\":8277:8313   */\n  sstore\n    /* \"#utility.yul\":7712:8323   */\n  pop\n  pop\n  pop\n    /* \"#utility.yul\":7675:8562   */\ntag_138:\n  pop\n    /* \"#utility.yul\":7265:8568   */\n  pop\n  pop\n  pop\n    /* \"#utility.yul\":7173:8568   */\n  pop\n  pop\n  jump\t// out\n    /* \"#utility.yul\":8574:8754   */\ntag_45:\n    /* \"#utility.yul\":8622:8699   */\n  0x4e487b7100000000000000000000000000000000000000000000000000000000\n    /* \"#utility.yul\":8619:8620   */\n  0x00\n    /* \"#utility.yul\":8612:8700   */\n  mstore\n    /* \"#utility.yul\":8719:8723   */\n  0x11\n    /* \"#utility.yul\":8716:8717   */\n  0x04\n    /* \"#utility.yul\":8709:8724   */\n  mstore\n    /* \"#utility.yul\":8743:8747   */\n  0x24\n    /* \"#utility.yul\":8740:8741   */\n  0x00\n    /* \"#utility.yul\":8733:8748   */\n  revert\n    /* \"#utility.yul\":8760:8951   */\ntag_9:\n    /* \"#utility.yul\":8800:8803   */\n  0x00\n    /* \"#utility.yul\":8819:8839   */\n  tag_150\n    /* \"#utility.yul\":8837:8838   */\n  dup3\n    /* \"#utility.yul\":8819:8839   */\n  tag_24\n  jump\t// in\ntag_150:\n    /* \"#utility.yul\":8814:8839   */\n  swap2\n  pop\n    /* \"#utility.yul\":8853:8873   */\n  tag_151\n    /* \"#utility.yul\":8871:8872   */\n  dup4\n    /* \"#utility.yul\":8853:8873   */\n  tag_24\n  jump\t// in\ntag_151:\n    /* \"#utility.yul\":8848:8873   */\n  swap3\n  pop\n    /* \"#utility.yul\":8896:8897   */\n  dup3\n    /* \"#utility.yul\":8893:8894   */\n  dup3\n    /* \"#utility.yul\":8889:8898   */\n  add\n    /* \"#utility.yul\":8882:8898   */\n  swap1\n  pop\n    /* \"#utility.yul\":8917:8920   */\n  dup1\n    /* \"#utility.yul\":8914:8915   */\n  dup3\n    /* \"#utility.yul\":8911:8921   */\n  gt\n    /* \"#utility.yul\":8908:8944   */\n  iszero\n  tag_152\n  jumpi\n    /* \"#utility.yul\":8924:8942   */\n  tag_153\n  tag_45\n  jump\t// in\ntag_153:\n    /* \"#utility.yul\":8908:8944   */\ntag_152:\n    /* \"#utility.yul\":8760:8951   */\n  swap3\n  swap2\n  pop\n  pop\n  jump\t// out\n    /* \"submissions/yuriofi/Day4.sol\":62:1570  contract AuctionHouse{... */\ntag_10:\n  dataSize(sub_0)\n  dup1\n  dataOffset(sub_0)\n  0x00\n  codecopy\n  0x00\n  return\nstop\n\nsub_0: assembly {\n        /* \"submissions/yuriofi/Day4.sol\":62:1570  contract AuctionHouse{... */\n      mstore(0x40, 0x80)\n      callvalue\n      dup1\n      iszero\n      tag_1\n      jumpi\n      revert(0x00, 0x00)\n    tag_1:\n      pop\n      jumpi(tag_2, lt(calldatasize, 0x04))\n      shr(0xe0, calldataload(0x00))\n      dup1\n      0x8da5cb5b\n      gt\n      tag_13\n      jumpi\n      dup1\n      0x8da5cb5b\n      eq\n      tag_8\n      jumpi\n      dup1\n      0x8e7ea5b2\n      eq\n      tag_9\n      jumpi\n      dup1\n      0xcff29dfd\n      eq\n      tag_10\n      jumpi\n      dup1\n      0xf2a4a82e\n      eq\n      tag_11\n      jumpi\n      dup1\n      0xfe67a54b\n      eq\n      tag_12\n      jumpi\n      jump(tag_2)\n    tag_13:\n      dup1\n      0x12fa6feb\n      eq\n      tag_3\n      jumpi\n      dup1\n      0x3a79d2e5\n      eq\n      tag_4\n      jumpi\n      dup1\n      0x454a2ab3\n      eq\n      tag_5\n      jumpi\n      dup1\n      0x4b449cba\n      eq\n      tag_6\n      jumpi\n      dup1\n      0x62ea82db\n      eq\n      tag_7\n      jumpi\n    tag_2:\n      revert(0x00, 0x00)\n        /* \"submissions/yuriofi/Day4.sol\":241:258  bool public ended */\n    tag_3:\n      tag_14\n      tag_15\n      jump\t// in\n    tag_14:\n      mload(0x40)\n      tag_16\n      swap2\n      swap1\n      tag_17\n      jump\t// in\n    tag_16:\n      mload(0x40)\n      dup1\n      swap2\n      sub\n      swap1\n      return\n        /* \"submissions/yuriofi/Day4.sol\":1469:1566  function getAllBidders() external view returns(address[] memory){... */\n    tag_4:\n      tag_18\n      tag_19\n      jump\t// in\n    tag_18:\n      mload(0x40)\n      tag_20\n      swap2\n      swap1\n      tag_21\n      jump\t// in\n    tag_20:\n      mload(0x40)\n      dup1\n      swap2\n      sub\n      swap1\n      return\n        /* \"submissions/yuriofi/Day4.sol\":570:1090  function bid(uint amount) external {... */\n    tag_5:\n      tag_22\n      0x04\n      dup1\n      calldatasize\n      sub\n      dup2\n      add\n      swap1\n      tag_23\n      swap2\n      swap1\n      tag_24\n      jump\t// in\n    tag_23:\n      tag_25\n      jump\t// in\n    tag_22:\n      stop\n        /* \"submissions/yuriofi/Day4.sol\":142:168  uint public auctionEndTime */\n    tag_6:\n      tag_26\n      tag_27\n      jump\t// in\n    tag_26:\n      mload(0x40)\n      tag_28\n      swap2\n      swap1\n      tag_29\n      jump\t// in\n    tag_28:\n      mload(0x40)\n      dup1\n      swap2\n      sub\n      swap1\n      return\n        /* \"submissions/yuriofi/Day4.sol\":328:362  mapping(address=>uint) public bids */\n    tag_7:\n      tag_30\n      0x04\n      dup1\n      calldatasize\n      sub\n      dup2\n      add\n      swap1\n      tag_31\n      swap2\n      swap1\n      tag_32\n      jump\t// in\n    tag_31:\n      tag_33\n      jump\t// in\n    tag_30:\n      mload(0x40)\n      tag_34\n      swap2\n      swap1\n      tag_29\n      jump\t// in\n    tag_34:\n      mload(0x40)\n      dup1\n      swap2\n      sub\n      swap1\n      return\n        /* \"submissions/yuriofi/Day4.sol\":90:110  address public owner */\n    tag_8:\n      tag_35\n      tag_36\n      jump\t// in\n    tag_35:\n      mload(0x40)\n      tag_37\n      swap2\n      swap1\n      tag_38\n      jump\t// in\n    tag_37:\n      mload(0x40)\n      dup1\n      swap2\n      sub\n      swap1\n      return\n        /* \"submissions/yuriofi/Day4.sol\":1300:1461  function getWinner() external view returns(address,uint){... */\n    tag_9:\n      tag_39\n      tag_40\n      jump\t// in\n    tag_39:\n      mload(0x40)\n      tag_41\n      swap3\n      swap2\n      swap1\n      tag_42\n      jump\t// in\n    tag_41:\n      mload(0x40)\n      dup1\n      swap2\n      sub\n      swap1\n      return\n        /* \"submissions/yuriofi/Day4.sol\":369:393  address[] public bidders */\n    tag_10:\n      tag_43\n      0x04\n      dup1\n      calldatasize\n      sub\n      dup2\n      add\n      swap1\n      tag_44\n      swap2\n      swap1\n      tag_24\n      jump\t// in\n    tag_44:\n      tag_45\n      jump\t// in\n    tag_43:\n      mload(0x40)\n      tag_46\n      swap2\n      swap1\n      tag_38\n      jump\t// in\n    tag_46:\n      mload(0x40)\n      dup1\n      swap2\n      sub\n      swap1\n      return\n        /* \"submissions/yuriofi/Day4.sol\":117:135  string public item */\n    tag_11:\n      tag_47\n      tag_48\n      jump\t// in\n    tag_47:\n      mload(0x40)\n      tag_49\n      swap2\n      swap1\n      tag_50\n      jump\t// in\n    tag_49:\n      mload(0x40)\n      dup1\n      swap2\n      sub\n      swap1\n      return\n        /* \"submissions/yuriofi/Day4.sol\":1098:1292  function endAuction() external {... */\n    tag_12:\n      tag_51\n      tag_52\n      jump\t// in\n    tag_51:\n      stop\n        /* \"submissions/yuriofi/Day4.sol\":241:258  bool public ended */\n    tag_15:\n      0x05\n      0x00\n      swap1\n      sload\n      swap1\n      0x0100\n      exp\n      swap1\n      div\n      0xff\n      and\n      dup2\n      jump\t// out\n        /* \"submissions/yuriofi/Day4.sol\":1469:1566  function getAllBidders() external view returns(address[] memory){... */\n    tag_19:\n        /* \"submissions/yuriofi/Day4.sol\":1516:1532  address[] memory */\n      0x60\n        /* \"submissions/yuriofi/Day4.sol\":1551:1558  bidders */\n      0x07\n        /* \"submissions/yuriofi/Day4.sol\":1544:1558  return bidders */\n      dup1\n      sload\n      dup1\n      0x20\n      mul\n      0x20\n      add\n      mload(0x40)\n      swap1\n      dup2\n      add\n      0x40\n      mstore\n      dup1\n      swap3\n      swap2\n      swap1\n      dup2\n      dup2\n      mstore\n      0x20\n      add\n      dup3\n      dup1\n      sload\n      dup1\n      iszero\n      tag_54\n      jumpi\n      0x20\n      mul\n      dup3\n      add\n      swap2\n      swap1\n      0x00\n      mstore\n      keccak256(0x00, 0x20)\n      swap1\n    tag_55:\n      dup2\n      0x00\n      swap1\n      sload\n      swap1\n      0x0100\n      exp\n      swap1\n      div\n      0xffffffffffffffffffffffffffffffffffffffff\n      and\n      0xffffffffffffffffffffffffffffffffffffffff\n      and\n      dup2\n      mstore\n      0x20\n      add\n      swap1\n      0x01\n      add\n      swap1\n      dup1\n      dup4\n      gt\n      tag_55\n      jumpi\n    tag_54:\n      pop\n      pop\n      pop\n      pop\n      pop\n      swap1\n      pop\n        /* \"submissions/yuriofi/Day4.sol\":1469:1566  function getAllBidders() external view returns(address[] memory){... */\n      swap1\n      jump\t// out\n        /* \"submissions/yuriofi/Day4.sol\":570:1090  function bid(uint amount) external {... */\n    tag_25:\n        /* \"submissions/yuriofi/Day4.sol\":640:654  auctionEndTime */\n      sload(0x02)\n        /* \"submissions/yuriofi/Day4.sol\":624:639  block.timestamp */\n      timestamp\n        /* \"submissions/yuriofi/Day4.sol\":624:654  block.timestamp<auctionEndTime */\n      lt\n        /* \"submissions/yuriofi/Day4.sol\":616:675  require(block.timestamp<auctionEndTime,\"Auction has ended\") */\n      tag_57\n      jumpi\n      mload(0x40)\n      0x08c379a000000000000000000000000000000000000000000000000000000000\n      dup2\n      mstore\n      0x04\n      add\n      tag_58\n      swap1\n      tag_59\n      jump\t// in\n    tag_58:\n      mload(0x40)\n      dup1\n      swap2\n      sub\n      swap1\n      revert\n    tag_57:\n        /* \"submissions/yuriofi/Day4.sol\":701:702  0 */\n      0x00\n        /* \"submissions/yuriofi/Day4.sol\":694:700  amount */\n      dup2\n        /* \"submissions/yuriofi/Day4.sol\":694:702  amount>0 */\n      gt\n        /* \"submissions/yuriofi/Day4.sol\":686:742  require(amount>0,\"Bid amount must be greater than zero\") */\n      tag_60\n      jumpi\n      mload(0x40)\n      0x08c379a000000000000000000000000000000000000000000000000000000000\n      dup2\n      mstore\n      0x04\n      add\n      tag_61\n      swap1\n      tag_62\n      jump\t// in\n    tag_61:\n      mload(0x40)\n      dup1\n      swap2\n      sub\n      swap1\n      revert\n    tag_60:\n        /* \"submissions/yuriofi/Day4.sol\":768:772  bids */\n      0x06\n        /* \"submissions/yuriofi/Day4.sol\":768:784  bids[msg.sender] */\n      0x00\n        /* \"submissions/yuriofi/Day4.sol\":773:783  msg.sender */\n      caller\n        /* \"submissions/yuriofi/Day4.sol\":768:784  bids[msg.sender] */\n      0xffffffffffffffffffffffffffffffffffffffff\n      and\n      0xffffffffffffffffffffffffffffffffffffffff\n      and\n      dup2\n      mstore\n      0x20\n      add\n      swap1\n      dup2\n      mstore\n      0x20\n      add\n      0x00\n      keccak256\n      sload\n        /* \"submissions/yuriofi/Day4.sol\":761:767  amount */\n      dup2\n        /* \"submissions/yuriofi/Day4.sol\":761:784  amount>bids[msg.sender] */\n      gt\n        /* \"submissions/yuriofi/Day4.sol\":753:832  require(amount>bids[msg.sender],\"Bid amount must be greater than previous bid\") */\n      tag_63\n      jumpi\n      mload(0x40)\n      0x08c379a000000000000000000000000000000000000000000000000000000000\n      dup2\n      mstore\n      0x04\n      add\n      tag_64\n      swap1\n      tag_65\n      jump\t// in\n    tag_64:\n      mload(0x40)\n      dup1\n      swap2\n      sub\n      swap1\n      revert\n    tag_63:\n        /* \"submissions/yuriofi/Day4.sol\":866:867  0 */\n      0x00\n        /* \"submissions/yuriofi/Day4.sol\":848:852  bids */\n      0x06\n        /* \"submissions/yuriofi/Day4.sol\":848:864  bids[msg.sender] */\n      0x00\n        /* \"submissions/yuriofi/Day4.sol\":853:863  msg.sender */\n      caller\n        /* \"submissions/yuriofi/Day4.sol\":848:864  bids[msg.sender] */\n      0xffffffffffffffffffffffffffffffffffffffff\n      and\n      0xffffffffffffffffffffffffffffffffffffffff\n      and\n      dup2\n      mstore\n      0x20\n      add\n      swap1\n      dup2\n      mstore\n      0x20\n      add\n      0x00\n      keccak256\n      sload\n        /* \"submissions/yuriofi/Day4.sol\":848:867  bids[msg.sender]==0 */\n      sub\n        /* \"submissions/yuriofi/Day4.sol\":845:919  if(bids[msg.sender]==0){... */\n      tag_66\n      jumpi\n        /* \"submissions/yuriofi/Day4.sol\":883:890  bidders */\n      0x07\n        /* \"submissions/yuriofi/Day4.sol\":896:906  msg.sender */\n      caller\n        /* \"submissions/yuriofi/Day4.sol\":883:907  bidders.push(msg.sender) */\n      swap1\n      dup1\n      0x01\n      dup2\n      sload\n      add\n      dup1\n      dup3\n      sstore\n      dup1\n      swap2\n      pop\n      pop\n      0x01\n      swap1\n      sub\n      swap1\n      0x00\n      mstore\n      keccak256(0x00, 0x20)\n      add\n      0x00\n      swap1\n      swap2\n      swap1\n      swap2\n      swap1\n      swap2\n      0x0100\n      exp\n      dup2\n      sload\n      dup2\n      0xffffffffffffffffffffffffffffffffffffffff\n      mul\n      not\n      and\n      swap1\n      dup4\n      0xffffffffffffffffffffffffffffffffffffffff\n      and\n      mul\n      or\n      swap1\n      sstore\n      pop\n        /* \"submissions/yuriofi/Day4.sol\":845:919  if(bids[msg.sender]==0){... */\n    tag_66:\n        /* \"submissions/yuriofi/Day4.sol\":948:954  amount */\n      dup1\n        /* \"submissions/yuriofi/Day4.sol\":931:935  bids */\n      0x06\n        /* \"submissions/yuriofi/Day4.sol\":931:947  bids[msg.sender] */\n      0x00\n        /* \"submissions/yuriofi/Day4.sol\":936:946  msg.sender */\n      caller\n        /* \"submissions/yuriofi/Day4.sol\":931:947  bids[msg.sender] */\n      0xffffffffffffffffffffffffffffffffffffffff\n      and\n      0xffffffffffffffffffffffffffffffffffffffff\n      and\n      dup2\n      mstore\n      0x20\n      add\n      swap1\n      dup2\n      mstore\n      0x20\n      add\n      0x00\n      keccak256\n        /* \"submissions/yuriofi/Day4.sol\":931:954  bids[msg.sender]=amount */\n      dup2\n      swap1\n      sstore\n      pop\n        /* \"submissions/yuriofi/Day4.sol\":985:995  highestBid */\n      sload(0x04)\n        /* \"submissions/yuriofi/Day4.sol\":978:984  amount */\n      dup2\n        /* \"submissions/yuriofi/Day4.sol\":978:995  amount>highestBid */\n      gt\n        /* \"submissions/yuriofi/Day4.sol\":975:1079  if(amount>highestBid){... */\n      iszero\n      tag_68\n      jumpi\n        /* \"submissions/yuriofi/Day4.sol\":1022:1028  amount */\n      dup1\n        /* \"submissions/yuriofi/Day4.sol\":1011:1021  highestBid */\n      0x04\n        /* \"submissions/yuriofi/Day4.sol\":1011:1028  highestBid=amount */\n      dup2\n      swap1\n      sstore\n      pop\n        /* \"submissions/yuriofi/Day4.sol\":1057:1067  msg.sender */\n      caller\n        /* \"submissions/yuriofi/Day4.sol\":1043:1056  highestBidder */\n      0x03\n      0x00\n        /* \"submissions/yuriofi/Day4.sol\":1043:1067  highestBidder=msg.sender */\n      0x0100\n      exp\n      dup2\n      sload\n      dup2\n      0xffffffffffffffffffffffffffffffffffffffff\n      mul\n      not\n      and\n      swap1\n      dup4\n      0xffffffffffffffffffffffffffffffffffffffff\n      and\n      mul\n      or\n      swap1\n      sstore\n      pop\n        /* \"submissions/yuriofi/Day4.sol\":975:1079  if(amount>highestBid){... */\n    tag_68:\n        /* \"submissions/yuriofi/Day4.sol\":570:1090  function bid(uint amount) external {... */\n      pop\n      jump\t// out\n        /* \"submissions/yuriofi/Day4.sol\":142:168  uint public auctionEndTime */\n    tag_27:\n      sload(0x02)\n      dup2\n      jump\t// out\n        /* \"submissions/yuriofi/Day4.sol\":328:362  mapping(address=>uint) public bids */\n    tag_33:\n      mstore(0x20, 0x06)\n      dup1\n      0x00\n      mstore\n      keccak256(0x00, 0x40)\n      0x00\n      swap2\n      pop\n      swap1\n      pop\n      sload\n      dup2\n      jump\t// out\n        /* \"submissions/yuriofi/Day4.sol\":90:110  address public owner */\n    tag_36:\n      0x00\n      0x00\n      swap1\n      sload\n      swap1\n      0x0100\n      exp\n      swap1\n      div\n      0xffffffffffffffffffffffffffffffffffffffff\n      and\n      dup2\n      jump\t// out\n        /* \"submissions/yuriofi/Day4.sol\":1300:1461  function getWinner() external view returns(address,uint){... */\n    tag_40:\n        /* \"submissions/yuriofi/Day4.sol\":1343:1350  address */\n      0x00\n        /* \"submissions/yuriofi/Day4.sol\":1351:1355  uint */\n      0x00\n        /* \"submissions/yuriofi/Day4.sol\":1375:1380  ended */\n      0x05\n      0x00\n      swap1\n      sload\n      swap1\n      0x0100\n      exp\n      swap1\n      div\n      0xff\n      and\n        /* \"submissions/yuriofi/Day4.sol\":1367:1409  require(ended,\"Auction hasn't ended yet.\") */\n      tag_70\n      jumpi\n      mload(0x40)\n      0x08c379a000000000000000000000000000000000000000000000000000000000\n      dup2\n      mstore\n      0x04\n      add\n      tag_71\n      swap1\n      tag_72\n      jump\t// in\n    tag_71:\n      mload(0x40)\n      dup1\n      swap2\n      sub\n      swap1\n      revert\n    tag_70:\n        /* \"submissions/yuriofi/Day4.sol\":1428:1441  highestBidder */\n      0x03\n      0x00\n      swap1\n      sload\n      swap1\n      0x0100\n      exp\n      swap1\n      div\n      0xffffffffffffffffffffffffffffffffffffffff\n      and\n        /* \"submissions/yuriofi/Day4.sol\":1442:1452  highestBid */\n      sload(0x04)\n        /* \"submissions/yuriofi/Day4.sol\":1420:1453  return (highestBidder,highestBid) */\n      swap2\n      pop\n      swap2\n      pop\n        /* \"submissions/yuriofi/Day4.sol\":1300:1461  function getWinner() external view returns(address,uint){... */\n      swap1\n      swap2\n      jump\t// out\n        /* \"submissions/yuriofi/Day4.sol\":369:393  address[] public bidders */\n    tag_45:\n      0x07\n      dup2\n      dup2\n      sload\n      dup2\n      lt\n      tag_73\n      jumpi\n      0x00\n      dup1\n      revert\n    tag_73:\n      swap1\n      0x00\n      mstore\n      keccak256(0x00, 0x20)\n      add\n      0x00\n      swap2\n      pop\n      sload\n      swap1\n      0x0100\n      exp\n      swap1\n      div\n      0xffffffffffffffffffffffffffffffffffffffff\n      and\n      dup2\n      jump\t// out\n        /* \"submissions/yuriofi/Day4.sol\":117:135  string public item */\n    tag_48:\n      0x01\n      dup1\n      sload\n      tag_75\n      swap1\n      tag_76\n      jump\t// in\n    tag_75:\n      dup1\n      0x1f\n      add\n      0x20\n      dup1\n      swap2\n      div\n      mul\n      0x20\n      add\n      mload(0x40)\n      swap1\n      dup2\n      add\n      0x40\n      mstore\n      dup1\n      swap3\n      swap2\n      swap1\n      dup2\n      dup2\n      mstore\n      0x20\n      add\n      dup3\n      dup1\n      sload\n      tag_77\n      swap1\n      tag_76\n      jump\t// in\n    tag_77:\n      dup1\n      iszero\n      tag_78\n      jumpi\n      dup1\n      0x1f\n      lt\n      tag_79\n      jumpi\n      0x0100\n      dup1\n      dup4\n      sload\n      div\n      mul\n      dup4\n      mstore\n      swap2\n      0x20\n      add\n      swap2\n      jump(tag_78)\n    tag_79:\n      dup3\n      add\n      swap2\n      swap1\n      0x00\n      mstore\n      keccak256(0x00, 0x20)\n      swap1\n    tag_80:\n      dup2\n      sload\n      dup2\n      mstore\n      swap1\n      0x01\n      add\n      swap1\n      0x20\n      add\n      dup1\n      dup4\n      gt\n      tag_80\n      jumpi\n      dup3\n      swap1\n      sub\n      0x1f\n      and\n      dup3\n      add\n      swap2\n    tag_78:\n      pop\n      pop\n      pop\n      pop\n      pop\n      dup2\n      jump\t// out\n        /* \"submissions/yuriofi/Day4.sol\":1098:1292  function endAuction() external {... */\n    tag_52:\n        /* \"submissions/yuriofi/Day4.sol\":1165:1179  auctionEndTime */\n      sload(0x02)\n        /* \"submissions/yuriofi/Day4.sol\":1148:1163  block.timestamp */\n      timestamp\n        /* \"submissions/yuriofi/Day4.sol\":1148:1179  block.timestamp>=auctionEndTime */\n      lt\n      iszero\n        /* \"submissions/yuriofi/Day4.sol\":1140:1208  require(block.timestamp>=auctionEndTime,\"Auction hasn't ended yet.\") */\n      tag_82\n      jumpi\n      mload(0x40)\n      0x08c379a000000000000000000000000000000000000000000000000000000000\n      dup2\n      mstore\n      0x04\n      add\n      tag_83\n      swap1\n      tag_72\n      jump\t// in\n    tag_83:\n      mload(0x40)\n      dup1\n      swap2\n      sub\n      swap1\n      revert\n    tag_82:\n        /* \"submissions/yuriofi/Day4.sol\":1228:1233  ended */\n      0x05\n      0x00\n      swap1\n      sload\n      swap1\n      0x0100\n      exp\n      swap1\n      div\n      0xff\n      and\n        /* \"submissions/yuriofi/Day4.sol\":1227:1233  !ended */\n      iszero\n        /* \"submissions/yuriofi/Day4.sol\":1219:1263  require(!ended,\"Auction end already called\") */\n      tag_84\n      jumpi\n      mload(0x40)\n      0x08c379a000000000000000000000000000000000000000000000000000000000\n      dup2\n      mstore\n      0x04\n      add\n      tag_85\n      swap1\n      tag_86\n      jump\t// in\n    tag_85:\n      mload(0x40)\n      dup1\n      swap2\n      sub\n      swap1\n      revert\n    tag_84:\n        /* \"submissions/yuriofi/Day4.sol\":1280:1284  true */\n      0x01\n        /* \"submissions/yuriofi/Day4.sol\":1274:1279  ended */\n      0x05\n      0x00\n        /* \"submissions/yuriofi/Day4.sol\":1274:1284  ended=true */\n      0x0100\n      exp\n      dup2\n      sload\n      dup2\n      0xff\n      mul\n      not\n      and\n      swap1\n      dup4\n      iszero\n      iszero\n      mul\n      or\n      swap1\n      sstore\n      pop\n        /* \"submissions/yuriofi/Day4.sol\":1098:1292  function endAuction() external {... */\n      jump\t// out\n        /* \"#utility.yul\":7:97   */\n    tag_87:\n        /* \"#utility.yul\":41:48   */\n      0x00\n        /* \"#utility.yul\":84:89   */\n      dup2\n        /* \"#utility.yul\":77:90   */\n      iszero\n        /* \"#utility.yul\":70:91   */\n      iszero\n        /* \"#utility.yul\":59:91   */\n      swap1\n      pop\n        /* \"#utility.yul\":7:97   */\n      swap2\n      swap1\n      pop\n      jump\t// out\n        /* \"#utility.yul\":103:212   */\n    tag_88:\n        /* \"#utility.yul\":184:205   */\n      tag_127\n        /* \"#utility.yul\":199:204   */\n      dup2\n        /* \"#utility.yul\":184:205   */\n      tag_87\n      jump\t// in\n    tag_127:\n        /* \"#utility.yul\":179:182   */\n      dup3\n        /* \"#utility.yul\":172:206   */\n      mstore\n        /* \"#utility.yul\":103:212   */\n      pop\n      pop\n      jump\t// out\n        /* \"#utility.yul\":218:428   */\n    tag_17:\n        /* \"#utility.yul\":305:309   */\n      0x00\n        /* \"#utility.yul\":343:345   */\n      0x20\n        /* \"#utility.yul\":332:341   */\n      dup3\n        /* \"#utility.yul\":328:346   */\n      add\n        /* \"#utility.yul\":320:346   */\n      swap1\n      pop\n        /* \"#utility.yul\":356:421   */\n      tag_129\n        /* \"#utility.yul\":418:419   */\n      0x00\n        /* \"#utility.yul\":407:416   */\n      dup4\n        /* \"#utility.yul\":403:420   */\n      add\n        /* \"#utility.yul\":394:400   */\n      dup5\n        /* \"#utility.yul\":356:421   */\n      tag_88\n      jump\t// in\n    tag_129:\n        /* \"#utility.yul\":218:428   */\n      swap3\n      swap2\n      pop\n      pop\n      jump\t// out\n        /* \"#utility.yul\":434:548   */\n    tag_89:\n        /* \"#utility.yul\":501:507   */\n      0x00\n        /* \"#utility.yul\":535:540   */\n      dup2\n        /* \"#utility.yul\":529:541   */\n      mload\n        /* \"#utility.yul\":519:541   */\n      swap1\n      pop\n        /* \"#utility.yul\":434:548   */\n      swap2\n      swap1\n      pop\n      jump\t// out\n        /* \"#utility.yul\":554:738   */\n    tag_90:\n        /* \"#utility.yul\":653:664   */\n      0x00\n        /* \"#utility.yul\":687:693   */\n      dup3\n        /* \"#utility.yul\":682:685   */\n      dup3\n        /* \"#utility.yul\":675:694   */\n      mstore\n        /* \"#utility.yul\":727:731   */\n      0x20\n        /* \"#utility.yul\":722:725   */\n      dup3\n        /* \"#utility.yul\":718:732   */\n      add\n        /* \"#utility.yul\":703:732   */\n      swap1\n      pop\n        /* \"#utility.yul\":554:738   */\n      swap3\n      swap2\n      pop\n      pop\n      jump\t// out\n        /* \"#utility.yul\":744:876   */\n    tag_91:\n        /* \"#utility.yul\":811:815   */\n      0x00\n        /* \"#utility.yul\":834:837   */\n      dup2\n        /* \"#utility.yul\":826:837   */\n      swap1\n      pop\n        /* \"#utility.yul\":864:868   */\n      0x20\n        /* \"#utility.yul\":859:862   */\n      dup3\n        /* \"#utility.yul\":855:869   */\n      add\n        /* \"#utility.yul\":847:869   */\n      swap1\n      pop\n        /* \"#utility.yul\":744:876   */\n      swap2\n      swap1\n      pop\n      jump\t// out\n        /* \"#utility.yul\":882:1008   */\n    tag_92:\n        /* \"#utility.yul\":919:926   */\n      0x00\n        /* \"#utility.yul\":959:1001   */\n      0xffffffffffffffffffffffffffffffffffffffff\n        /* \"#utility.yul\":952:957   */\n      dup3\n        /* \"#utility.yul\":948:1002   */\n      and\n        /* \"#utility.yul\":937:1002   */\n      swap1\n      pop\n        /* \"#utility.yul\":882:1008   */\n      swap2\n      swap1\n      pop\n      jump\t// out\n        /* \"#utility.yul\":1014:1110   */\n    tag_93:\n        /* \"#utility.yul\":1051:1058   */\n      0x00\n        /* \"#utility.yul\":1080:1104   */\n      tag_135\n        /* \"#utility.yul\":1098:1103   */\n      dup3\n        /* \"#utility.yul\":1080:1104   */\n      tag_92\n      jump\t// in\n    tag_135:\n        /* \"#utility.yul\":1069:1104   */\n      swap1\n      pop\n        /* \"#utility.yul\":1014:1110   */\n      swap2\n      swap1\n      pop\n      jump\t// out\n        /* \"#utility.yul\":1116:1224   */\n    tag_94:\n        /* \"#utility.yul\":1193:1217   */\n      tag_137\n        /* \"#utility.yul\":1211:1216   */\n      dup2\n        /* \"#utility.yul\":1193:1217   */\n      tag_93\n      jump\t// in\n    tag_137:\n        /* \"#utility.yul\":1188:1191   */\n      dup3\n        /* \"#utility.yul\":1181:1218   */\n      mstore\n        /* \"#utility.yul\":1116:1224   */\n      pop\n      pop\n      jump\t// out\n        /* \"#utility.yul\":1230:1409   */\n    tag_95:\n        /* \"#utility.yul\":1299:1309   */\n      0x00\n        /* \"#utility.yul\":1320:1366   */\n      tag_139\n        /* \"#utility.yul\":1362:1365   */\n      dup4\n        /* \"#utility.yul\":1354:1360   */\n      dup4\n        /* \"#utility.yul\":1320:1366   */\n      tag_94\n      jump\t// in\n    tag_139:\n        /* \"#utility.yul\":1398:1402   */\n      0x20\n        /* \"#utility.yul\":1393:1396   */\n      dup4\n        /* \"#utility.yul\":1389:1403   */\n      add\n        /* \"#utility.yul\":1375:1403   */\n      swap1\n      pop\n        /* \"#utility.yul\":1230:1409   */\n      swap3\n      swap2\n      pop\n      pop\n      jump\t// out\n        /* \"#utility.yul\":1415:1528   */\n    tag_96:\n        /* \"#utility.yul\":1485:1489   */\n      0x00\n        /* \"#utility.yul\":1517:1521   */\n      0x20\n        /* \"#utility.yul\":1512:1515   */\n      dup3\n        /* \"#utility.yul\":1508:1522   */\n      add\n        /* \"#utility.yul\":1500:1522   */\n      swap1\n      pop\n        /* \"#utility.yul\":1415:1528   */\n      swap2\n      swap1\n      pop\n      jump\t// out\n        /* \"#utility.yul\":1564:2296   */\n    tag_97:\n        /* \"#utility.yul\":1683:1686   */\n      0x00\n        /* \"#utility.yul\":1712:1766   */\n      tag_142\n        /* \"#utility.yul\":1760:1765   */\n      dup3\n        /* \"#utility.yul\":1712:1766   */\n      tag_89\n      jump\t// in\n    tag_142:\n        /* \"#utility.yul\":1782:1868   */\n      tag_143\n        /* \"#utility.yul\":1861:1867   */\n      dup2\n        /* \"#utility.yul\":1856:1859   */\n      dup6\n        /* \"#utility.yul\":1782:1868   */\n      tag_90\n      jump\t// in\n    tag_143:\n        /* \"#utility.yul\":1775:1868   */\n      swap4\n      pop\n        /* \"#utility.yul\":1892:1948   */\n      tag_144\n        /* \"#utility.yul\":1942:1947   */\n      dup4\n        /* \"#utility.yul\":1892:1948   */\n      tag_91\n      jump\t// in\n    tag_144:\n        /* \"#utility.yul\":1971:1978   */\n      dup1\n        /* \"#utility.yul\":2002:2003   */\n      0x00\n        /* \"#utility.yul\":1987:2271   */\n    tag_145:\n        /* \"#utility.yul\":2012:2018   */\n      dup4\n        /* \"#utility.yul\":2009:2010   */\n      dup2\n        /* \"#utility.yul\":2006:2019   */\n      lt\n        /* \"#utility.yul\":1987:2271   */\n      iszero\n      tag_147\n      jumpi\n        /* \"#utility.yul\":2088:2094   */\n      dup2\n        /* \"#utility.yul\":2082:2095   */\n      mload\n        /* \"#utility.yul\":2115:2178   */\n      tag_148\n        /* \"#utility.yul\":2174:2177   */\n      dup9\n        /* \"#utility.yul\":2159:2172   */\n      dup3\n        /* \"#utility.yul\":2115:2178   */\n      tag_95\n      jump\t// in\n    tag_148:\n        /* \"#utility.yul\":2108:2178   */\n      swap8\n      pop\n        /* \"#utility.yul\":2201:2261   */\n      tag_149\n        /* \"#utility.yul\":2254:2260   */\n      dup4\n        /* \"#utility.yul\":2201:2261   */\n      tag_96\n      jump\t// in\n    tag_149:\n        /* \"#utility.yul\":2191:2261   */\n      swap3\n      pop\n        /* \"#utility.yul\":2047:2271   */\n      pop\n        /* \"#utility.yul\":2034:2035   */\n      0x01\n        /* \"#utility.yul\":2031:2032   */\n      dup2\n        /* \"#utility.yul\":2027:2036   */\n      add\n        /* \"#utility.yul\":2022:2036   */\n      swap1\n      pop\n        /* \"#utility.yul\":1987:2271   */\n      jump(tag_145)\n    tag_147:\n        /* \"#utility.yul\":1991:2005   */\n      pop\n        /* \"#utility.yul\":2287:2290   */\n      dup6\n        /* \"#utility.yul\":2280:2290   */\n      swap4\n      pop\n        /* \"#utility.yul\":1688:2296   */\n      pop\n      pop\n      pop\n        /* \"#utility.yul\":1564:2296   */\n      swap3\n      swap2\n      pop\n      pop\n      jump\t// out\n        /* \"#utility.yul\":2302:2675   */\n    tag_21:\n        /* \"#utility.yul\":2445:2449   */\n      0x00\n        /* \"#utility.yul\":2483:2485   */\n      0x20\n        /* \"#utility.yul\":2472:2481   */\n      dup3\n        /* \"#utility.yul\":2468:2486   */\n      add\n        /* \"#utility.yul\":2460:2486   */\n      swap1\n      pop\n        /* \"#utility.yul\":2532:2541   */\n      dup2\n        /* \"#utility.yul\":2526:2530   */\n      dup2\n        /* \"#utility.yul\":2522:2542   */\n      sub\n        /* \"#utility.yul\":2518:2519   */\n      0x00\n        /* \"#utility.yul\":2507:2516   */\n      dup4\n        /* \"#utility.yul\":2503:2520   */\n      add\n        /* \"#utility.yul\":2496:2543   */\n      mstore\n        /* \"#utility.yul\":2560:2668   */\n      tag_151\n        /* \"#utility.yul\":2663:2667   */\n      dup2\n        /* \"#utility.yul\":2654:2660   */\n      dup5\n        /* \"#utility.yul\":2560:2668   */\n      tag_97\n      jump\t// in\n    tag_151:\n        /* \"#utility.yul\":2552:2668   */\n      swap1\n      pop\n        /* \"#utility.yul\":2302:2675   */\n      swap3\n      swap2\n      pop\n      pop\n      jump\t// out\n        /* \"#utility.yul\":2762:2879   */\n    tag_99:\n        /* \"#utility.yul\":2871:2872   */\n      0x00\n        /* \"#utility.yul\":2868:2869   */\n      0x00\n        /* \"#utility.yul\":2861:2873   */\n      revert\n        /* \"#utility.yul\":3008:3085   */\n    tag_101:\n        /* \"#utility.yul\":3045:3052   */\n      0x00\n        /* \"#utility.yul\":3074:3079   */\n      dup2\n        /* \"#utility.yul\":3063:3079   */\n      swap1\n      pop\n        /* \"#utility.yul\":3008:3085   */\n      swap2\n      swap1\n      pop\n      jump\t// out\n        /* \"#utility.yul\":3091:3213   */\n    tag_102:\n        /* \"#utility.yul\":3164:3188   */\n      tag_157\n        /* \"#utility.yul\":3182:3187   */\n      dup2\n        /* \"#utility.yul\":3164:3188   */\n      tag_101\n      jump\t// in\n    tag_157:\n        /* \"#utility.yul\":3157:3162   */\n      dup2\n        /* \"#utility.yul\":3154:3189   */\n      eq\n        /* \"#utility.yul\":3144:3207   */\n      tag_158\n      jumpi\n        /* \"#utility.yul\":3203:3204   */\n      0x00\n        /* \"#utility.yul\":3200:3201   */\n      0x00\n        /* \"#utility.yul\":3193:3205   */\n      revert\n        /* \"#utility.yul\":3144:3207   */\n    tag_158:\n        /* \"#utility.yul\":3091:3213   */\n      pop\n      jump\t// out\n        /* \"#utility.yul\":3219:3358   */\n    tag_103:\n        /* \"#utility.yul\":3265:3270   */\n      0x00\n        /* \"#utility.yul\":3303:3309   */\n      dup2\n        /* \"#utility.yul\":3290:3310   */\n      calldataload\n        /* \"#utility.yul\":3281:3310   */\n      swap1\n      pop\n        /* \"#utility.yul\":3319:3352   */\n      tag_160\n        /* \"#utility.yul\":3346:3351   */\n      dup2\n        /* \"#utility.yul\":3319:3352   */\n      tag_102\n      jump\t// in\n    tag_160:\n        /* \"#utility.yul\":3219:3358   */\n      swap3\n      swap2\n      pop\n      pop\n      jump\t// out\n        /* \"#utility.yul\":3364:3693   */\n    tag_24:\n        /* \"#utility.yul\":3423:3429   */\n      0x00\n        /* \"#utility.yul\":3472:3474   */\n      0x20\n        /* \"#utility.yul\":3460:3469   */\n      dup3\n        /* \"#utility.yul\":3451:3458   */\n      dup5\n        /* \"#utility.yul\":3447:3470   */\n      sub\n        /* \"#utility.yul\":3443:3475   */\n      slt\n        /* \"#utility.yul\":3440:3559   */\n      iszero\n      tag_162\n      jumpi\n        /* \"#utility.yul\":3478:3557   */\n      tag_163\n      tag_99\n      jump\t// in\n    tag_163:\n        /* \"#utility.yul\":3440:3559   */\n    tag_162:\n        /* \"#utility.yul\":3598:3599   */\n      0x00\n        /* \"#utility.yul\":3623:3676   */\n      tag_164\n        /* \"#utility.yul\":3668:3675   */\n      dup5\n        /* \"#utility.yul\":3659:3665   */\n      dup3\n        /* \"#utility.yul\":3648:3657   */\n      dup6\n        /* \"#utility.yul\":3644:3666   */\n      add\n        /* \"#utility.yul\":3623:3676   */\n      tag_103\n      jump\t// in\n    tag_164:\n        /* \"#utility.yul\":3613:3676   */\n      swap2\n      pop\n        /* \"#utility.yul\":3569:3686   */\n      pop\n        /* \"#utility.yul\":3364:3693   */\n      swap3\n      swap2\n      pop\n      pop\n      jump\t// out\n        /* \"#utility.yul\":3699:3817   */\n    tag_104:\n        /* \"#utility.yul\":3786:3810   */\n      tag_166\n        /* \"#utility.yul\":3804:3809   */\n      dup2\n        /* \"#utility.yul\":3786:3810   */\n      tag_101\n      jump\t// in\n    tag_166:\n        /* \"#utility.yul\":3781:3784   */\n      dup3\n        /* \"#utility.yul\":3774:3811   */\n      mstore\n        /* \"#utility.yul\":3699:3817   */\n      pop\n      pop\n      jump\t// out\n        /* \"#utility.yul\":3823:4045   */\n    tag_29:\n        /* \"#utility.yul\":3916:3920   */\n      0x00\n        /* \"#utility.yul\":3954:3956   */\n      0x20\n        /* \"#utility.yul\":3943:3952   */\n      dup3\n        /* \"#utility.yul\":3939:3957   */\n      add\n        /* \"#utility.yul\":3931:3957   */\n      swap1\n      pop\n        /* \"#utility.yul\":3967:4038   */\n      tag_168\n        /* \"#utility.yul\":4035:4036   */\n      0x00\n        /* \"#utility.yul\":4024:4033   */\n      dup4\n        /* \"#utility.yul\":4020:4037   */\n      add\n        /* \"#utility.yul\":4011:4017   */\n      dup5\n        /* \"#utility.yul\":3967:4038   */\n      tag_104\n      jump\t// in\n    tag_168:\n        /* \"#utility.yul\":3823:4045   */\n      swap3\n      swap2\n      pop\n      pop\n      jump\t// out\n        /* \"#utility.yul\":4051:4173   */\n    tag_105:\n        /* \"#utility.yul\":4124:4148   */\n      tag_170\n        /* \"#utility.yul\":4142:4147   */\n      dup2\n        /* \"#utility.yul\":4124:4148   */\n      tag_93\n      jump\t// in\n    tag_170:\n        /* \"#utility.yul\":4117:4122   */\n      dup2\n        /* \"#utility.yul\":4114:4149   */\n      eq\n        /* \"#utility.yul\":4104:4167   */\n      tag_171\n      jumpi\n        /* \"#utility.yul\":4163:4164   */\n      0x00\n        /* \"#utility.yul\":4160:4161   */\n      0x00\n        /* \"#utility.yul\":4153:4165   */\n      revert\n        /* \"#utility.yul\":4104:4167   */\n    tag_171:\n        /* \"#utility.yul\":4051:4173   */\n      pop\n      jump\t// out\n        /* \"#utility.yul\":4179:4318   */\n    tag_106:\n        /* \"#utility.yul\":4225:4230   */\n      0x00\n        /* \"#utility.yul\":4263:4269   */\n      dup2\n        /* \"#utility.yul\":4250:4270   */\n      calldataload\n        /* \"#utility.yul\":4241:4270   */\n      swap1\n      pop\n        /* \"#utility.yul\":4279:4312   */\n      tag_173\n        /* \"#utility.yul\":4306:4311   */\n      dup2\n        /* \"#utility.yul\":4279:4312   */\n      tag_105\n      jump\t// in\n    tag_173:\n        /* \"#utility.yul\":4179:4318   */\n      swap3\n      swap2\n      pop\n      pop\n      jump\t// out\n        /* \"#utility.yul\":4324:4653   */\n    tag_32:\n        /* \"#utility.yul\":4383:4389   */\n      0x00\n        /* \"#utility.yul\":4432:4434   */\n      0x20\n        /* \"#utility.yul\":4420:4429   */\n      dup3\n        /* \"#utility.yul\":4411:4418   */\n      dup5\n        /* \"#utility.yul\":4407:4430   */\n      sub\n        /* \"#utility.yul\":4403:4435   */\n      slt\n        /* \"#utility.yul\":4400:4519   */\n      iszero\n      tag_175\n      jumpi\n        /* \"#utility.yul\":4438:4517   */\n      tag_176\n      tag_99\n      jump\t// in\n    tag_176:\n        /* \"#utility.yul\":4400:4519   */\n    tag_175:\n        /* \"#utility.yul\":4558:4559   */\n      0x00\n        /* \"#utility.yul\":4583:4636   */\n      tag_177\n        /* \"#utility.yul\":4628:4635   */\n      dup5\n        /* \"#utility.yul\":4619:4625   */\n      dup3\n        /* \"#utility.yul\":4608:4617   */\n      dup6\n        /* \"#utility.yul\":4604:4626   */\n      add\n        /* \"#utility.yul\":4583:4636   */\n      tag_106\n      jump\t// in\n    tag_177:\n        /* \"#utility.yul\":4573:4636   */\n      swap2\n      pop\n        /* \"#utility.yul\":4529:4646   */\n      pop\n        /* \"#utility.yul\":4324:4653   */\n      swap3\n      swap2\n      pop\n      pop\n      jump\t// out\n        /* \"#utility.yul\":4659:4777   */\n    tag_107:\n        /* \"#utility.yul\":4746:4770   */\n      tag_179\n        /* \"#utility.yul\":4764:4769   */\n      dup2\n        /* \"#utility.yul\":4746:4770   */\n      tag_93\n      jump\t// in\n    tag_179:\n        /* \"#utility.yul\":4741:4744   */\n      dup3\n        /* \"#utility.yul\":4734:4771   */\n      mstore\n        /* \"#utility.yul\":4659:4777   */\n      pop\n      pop\n      jump\t// out\n        /* \"#utility.yul\":4783:5005   */\n    tag_38:\n        /* \"#utility.yul\":4876:4880   */\n      0x00\n        /* \"#utility.yul\":4914:4916   */\n      0x20\n        /* \"#utility.yul\":4903:4912   */\n      dup3\n        /* \"#utility.yul\":4899:4917   */\n      add\n        /* \"#utility.yul\":4891:4917   */\n      swap1\n      pop\n        /* \"#utility.yul\":4927:4998   */\n      tag_181\n        /* \"#utility.yul\":4995:4996   */\n      0x00\n        /* \"#utility.yul\":4984:4993   */\n      dup4\n        /* \"#utility.yul\":4980:4997   */\n      add\n        /* \"#utility.yul\":4971:4977   */\n      dup5\n        /* \"#utility.yul\":4927:4998   */\n      tag_107\n      jump\t// in\n    tag_181:\n        /* \"#utility.yul\":4783:5005   */\n      swap3\n      swap2\n      pop\n      pop\n      jump\t// out\n        /* \"#utility.yul\":5011:5343   */\n    tag_42:\n        /* \"#utility.yul\":5132:5136   */\n      0x00\n        /* \"#utility.yul\":5170:5172   */\n      0x40\n        /* \"#utility.yul\":5159:5168   */\n      dup3\n        /* \"#utility.yul\":5155:5173   */\n      add\n        /* \"#utility.yul\":5147:5173   */\n      swap1\n      pop\n        /* \"#utility.yul\":5183:5254   */\n      tag_183\n        /* \"#utility.yul\":5251:5252   */\n      0x00\n        /* \"#utility.yul\":5240:5249   */\n      dup4\n        /* \"#utility.yul\":5236:5253   */\n      add\n        /* \"#utility.yul\":5227:5233   */\n      dup6\n        /* \"#utility.yul\":5183:5254   */\n      tag_107\n      jump\t// in\n    tag_183:\n        /* \"#utility.yul\":5264:5336   */\n      tag_184\n        /* \"#utility.yul\":5332:5334   */\n      0x20\n        /* \"#utility.yul\":5321:5330   */\n      dup4\n        /* \"#utility.yul\":5317:5335   */\n      add\n        /* \"#utility.yul\":5308:5314   */\n      dup5\n        /* \"#utility.yul\":5264:5336   */\n      tag_104\n      jump\t// in\n    tag_184:\n        /* \"#utility.yul\":5011:5343   */\n      swap4\n      swap3\n      pop\n      pop\n      pop\n      jump\t// out\n        /* \"#utility.yul\":5349:5448   */\n    tag_108:\n        /* \"#utility.yul\":5401:5407   */\n      0x00\n        /* \"#utility.yul\":5435:5440   */\n      dup2\n        /* \"#utility.yul\":5429:5441   */\n      mload\n        /* \"#utility.yul\":5419:5441   */\n      swap1\n      pop\n        /* \"#utility.yul\":5349:5448   */\n      swap2\n      swap1\n      pop\n      jump\t// out\n        /* \"#utility.yul\":5454:5623   */\n    tag_109:\n        /* \"#utility.yul\":5538:5549   */\n      0x00\n        /* \"#utility.yul\":5572:5578   */\n      dup3\n        /* \"#utility.yul\":5567:5570   */\n      dup3\n        /* \"#utility.yul\":5560:5579   */\n      mstore\n        /* \"#utility.yul\":5612:5616   */\n      0x20\n        /* \"#utility.yul\":5607:5610   */\n      dup3\n        /* \"#utility.yul\":5603:5617   */\n      add\n        /* \"#utility.yul\":5588:5617   */\n      swap1\n      pop\n        /* \"#utility.yul\":5454:5623   */\n      swap3\n      swap2\n      pop\n      pop\n      jump\t// out\n        /* \"#utility.yul\":5629:5768   */\n    tag_110:\n        /* \"#utility.yul\":5718:5724   */\n      dup3\n        /* \"#utility.yul\":5713:5716   */\n      dup2\n        /* \"#utility.yul\":5708:5711   */\n      dup4\n        /* \"#utility.yul\":5702:5725   */\n      mcopy\n        /* \"#utility.yul\":5759:5760   */\n      0x00\n        /* \"#utility.yul\":5750:5756   */\n      dup4\n        /* \"#utility.yul\":5745:5748   */\n      dup4\n        /* \"#utility.yul\":5741:5757   */\n      add\n        /* \"#utility.yul\":5734:5761   */\n      mstore\n        /* \"#utility.yul\":5629:5768   */\n      pop\n      pop\n      pop\n      jump\t// out\n        /* \"#utility.yul\":5774:5876   */\n    tag_111:\n        /* \"#utility.yul\":5815:5821   */\n      0x00\n        /* \"#utility.yul\":5866:5868   */\n      0x1f\n        /* \"#utility.yul\":5862:5869   */\n      not\n        /* \"#utility.yul\":5857:5859   */\n      0x1f\n        /* \"#utility.yul\":5850:5855   */\n      dup4\n        /* \"#utility.yul\":5846:5860   */\n      add\n        /* \"#utility.yul\":5842:5870   */\n      and\n        /* \"#utility.yul\":5832:5870   */\n      swap1\n      pop\n        /* \"#utility.yul\":5774:5876   */\n      swap2\n      swap1\n      pop\n      jump\t// out\n        /* \"#utility.yul\":5882:6259   */\n    tag_112:\n        /* \"#utility.yul\":5970:5973   */\n      0x00\n        /* \"#utility.yul\":5998:6037   */\n      tag_190\n        /* \"#utility.yul\":6031:6036   */\n      dup3\n        /* \"#utility.yul\":5998:6037   */\n      tag_108\n      jump\t// in\n    tag_190:\n        /* \"#utility.yul\":6053:6124   */\n      tag_191\n        /* \"#utility.yul\":6117:6123   */\n      dup2\n        /* \"#utility.yul\":6112:6115   */\n      dup6\n        /* \"#utility.yul\":6053:6124   */\n      tag_109\n      jump\t// in\n    tag_191:\n        /* \"#utility.yul\":6046:6124   */\n      swap4\n      pop\n        /* \"#utility.yul\":6133:6198   */\n      tag_192\n        /* \"#utility.yul\":6191:6197   */\n      dup2\n        /* \"#utility.yul\":6186:6189   */\n      dup6\n        /* \"#utility.yul\":6179:6183   */\n      0x20\n        /* \"#utility.yul\":6172:6177   */\n      dup7\n        /* \"#utility.yul\":6168:6184   */\n      add\n        /* \"#utility.yul\":6133:6198   */\n      tag_110\n      jump\t// in\n    tag_192:\n        /* \"#utility.yul\":6223:6252   */\n      tag_193\n        /* \"#utility.yul\":6245:6251   */\n      dup2\n        /* \"#utility.yul\":6223:6252   */\n      tag_111\n      jump\t// in\n    tag_193:\n        /* \"#utility.yul\":6218:6221   */\n      dup5\n        /* \"#utility.yul\":6214:6253   */\n      add\n        /* \"#utility.yul\":6207:6253   */\n      swap2\n      pop\n        /* \"#utility.yul\":5974:6259   */\n      pop\n        /* \"#utility.yul\":5882:6259   */\n      swap3\n      swap2\n      pop\n      pop\n      jump\t// out\n        /* \"#utility.yul\":6265:6578   */\n    tag_50:\n        /* \"#utility.yul\":6378:6382   */\n      0x00\n        /* \"#utility.yul\":6416:6418   */\n      0x20\n        /* \"#utility.yul\":6405:6414   */\n      dup3\n        /* \"#utility.yul\":6401:6419   */\n      add\n        /* \"#utility.yul\":6393:6419   */\n      swap1\n      pop\n        /* \"#utility.yul\":6465:6474   */\n      dup2\n        /* \"#utility.yul\":6459:6463   */\n      dup2\n        /* \"#utility.yul\":6455:6475   */\n      sub\n        /* \"#utility.yul\":6451:6452   */\n      0x00\n        /* \"#utility.yul\":6440:6449   */\n      dup4\n        /* \"#utility.yul\":6436:6453   */\n      add\n        /* \"#utility.yul\":6429:6476   */\n      mstore\n        /* \"#utility.yul\":6493:6571   */\n      tag_195\n        /* \"#utility.yul\":6566:6570   */\n      dup2\n        /* \"#utility.yul\":6557:6563   */\n      dup5\n        /* \"#utility.yul\":6493:6571   */\n      tag_112\n      jump\t// in\n    tag_195:\n        /* \"#utility.yul\":6485:6571   */\n      swap1\n      pop\n        /* \"#utility.yul\":6265:6578   */\n      swap3\n      swap2\n      pop\n      pop\n      jump\t// out\n        /* \"#utility.yul\":6584:6751   */\n    tag_113:\n        /* \"#utility.yul\":6724:6743   */\n      0x41756374696f6e2068617320656e646564000000000000000000000000000000\n        /* \"#utility.yul\":6720:6721   */\n      0x00\n        /* \"#utility.yul\":6712:6718   */\n      dup3\n        /* \"#utility.yul\":6708:6722   */\n      add\n        /* \"#utility.yul\":6701:6744   */\n      mstore\n        /* \"#utility.yul\":6584:6751   */\n      pop\n      jump\t// out\n        /* \"#utility.yul\":6757:7123   */\n    tag_114:\n        /* \"#utility.yul\":6899:6902   */\n      0x00\n        /* \"#utility.yul\":6920:6987   */\n      tag_198\n        /* \"#utility.yul\":6984:6986   */\n      0x11\n        /* \"#utility.yul\":6979:6982   */\n      dup4\n        /* \"#utility.yul\":6920:6987   */\n      tag_109\n      jump\t// in\n    tag_198:\n        /* \"#utility.yul\":6913:6987   */\n      swap2\n      pop\n        /* \"#utility.yul\":6996:7089   */\n      tag_199\n        /* \"#utility.yul\":7085:7088   */\n      dup3\n        /* \"#utility.yul\":6996:7089   */\n      tag_113\n      jump\t// in\n    tag_199:\n        /* \"#utility.yul\":7114:7116   */\n      0x20\n        /* \"#utility.yul\":7109:7112   */\n      dup3\n        /* \"#utility.yul\":7105:7117   */\n      add\n        /* \"#utility.yul\":7098:7117   */\n      swap1\n      pop\n        /* \"#utility.yul\":6757:7123   */\n      swap2\n      swap1\n      pop\n      jump\t// out\n        /* \"#utility.yul\":7129:7548   */\n    tag_59:\n        /* \"#utility.yul\":7295:7299   */\n      0x00\n        /* \"#utility.yul\":7333:7335   */\n      0x20\n        /* \"#utility.yul\":7322:7331   */\n      dup3\n        /* \"#utility.yul\":7318:7336   */\n      add\n        /* \"#utility.yul\":7310:7336   */\n      swap1\n      pop\n        /* \"#utility.yul\":7382:7391   */\n      dup2\n        /* \"#utility.yul\":7376:7380   */\n      dup2\n        /* \"#utility.yul\":7372:7392   */\n      sub\n        /* \"#utility.yul\":7368:7369   */\n      0x00\n        /* \"#utility.yul\":7357:7366   */\n      dup4\n        /* \"#utility.yul\":7353:7370   */\n      add\n        /* \"#utility.yul\":7346:7393   */\n      mstore\n        /* \"#utility.yul\":7410:7541   */\n      tag_201\n        /* \"#utility.yul\":7536:7540   */\n      dup2\n        /* \"#utility.yul\":7410:7541   */\n      tag_114\n      jump\t// in\n    tag_201:\n        /* \"#utility.yul\":7402:7541   */\n      swap1\n      pop\n        /* \"#utility.yul\":7129:7548   */\n      swap2\n      swap1\n      pop\n      jump\t// out\n        /* \"#utility.yul\":7554:7777   */\n    tag_115:\n        /* \"#utility.yul\":7694:7728   */\n      0x42696420616d6f756e74206d7573742062652067726561746572207468616e20\n        /* \"#utility.yul\":7690:7691   */\n      0x00\n        /* \"#utility.yul\":7682:7688   */\n      dup3\n        /* \"#utility.yul\":7678:7692   */\n      add\n        /* \"#utility.yul\":7671:7729   */\n      mstore\n        /* \"#utility.yul\":7763:7769   */\n      0x7a65726f00000000000000000000000000000000000000000000000000000000\n        /* \"#utility.yul\":7758:7760   */\n      0x20\n        /* \"#utility.yul\":7750:7756   */\n      dup3\n        /* \"#utility.yul\":7746:7761   */\n      add\n        /* \"#utility.yul\":7739:7770   */\n      mstore\n        /* \"#utility.yul\":7554:7777   */\n      pop\n      jump\t// out\n        /* \"#utility.yul\":7783:8149   */\n    tag_116:\n        /* \"#utility.yul\":7925:7928   */\n      0x00\n        /* \"#utility.yul\":7946:8013   */\n      tag_204\n        /* \"#utility.yul\":8010:8012   */\n      0x24\n        /* \"#utility.yul\":8005:8008   */\n      dup4\n        /* \"#utility.yul\":7946:8013   */\n      tag_109\n      jump\t// in\n    tag_204:\n        /* \"#utility.yul\":7939:8013   */\n      swap2\n      pop\n        /* \"#utility.yul\":8022:8115   */\n      tag_205\n        /* \"#utility.yul\":8111:8114   */\n      dup3\n        /* \"#utility.yul\":8022:8115   */\n      tag_115\n      jump\t// in\n    tag_205:\n        /* \"#utility.yul\":8140:8142   */\n      0x40\n        /* \"#utility.yul\":8135:8138   */\n      dup3\n        /* \"#utility.yul\":8131:8143   */\n      add\n        /* \"#utility.yul\":8124:8143   */\n      swap1\n      pop\n        /* \"#utility.yul\":7783:8149   */\n      swap2\n      swap1\n      pop\n      jump\t// out\n        /* \"#utility.yul\":8155:8574   */\n    tag_62:\n        /* \"#utility.yul\":8321:8325   */\n      0x00\n        /* \"#utility.yul\":8359:8361   */\n      0x20\n        /* \"#utility.yul\":8348:8357   */\n      dup3\n        /* \"#utility.yul\":8344:8362   */\n      add\n        /* \"#utility.yul\":8336:8362   */\n      swap1\n      pop\n        /* \"#utility.yul\":8408:8417   */\n      dup2\n        /* \"#utility.yul\":8402:8406   */\n      dup2\n        /* \"#utility.yul\":8398:8418   */\n      sub\n        /* \"#utility.yul\":8394:8395   */\n      0x00\n        /* \"#utility.yul\":8383:8392   */\n      dup4\n        /* \"#utility.yul\":8379:8396   */\n      add\n        /* \"#utility.yul\":8372:8419   */\n      mstore\n        /* \"#utility.yul\":8436:8567   */\n      tag_207\n        /* \"#utility.yul\":8562:8566   */\n      dup2\n        /* \"#utility.yul\":8436:8567   */\n      tag_116\n      jump\t// in\n    tag_207:\n        /* \"#utility.yul\":8428:8567   */\n      swap1\n      pop\n        /* \"#utility.yul\":8155:8574   */\n      swap2\n      swap1\n      pop\n      jump\t// out\n        /* \"#utility.yul\":8580:8811   */\n    tag_117:\n        /* \"#utility.yul\":8720:8754   */\n      0x42696420616d6f756e74206d7573742062652067726561746572207468616e20\n        /* \"#utility.yul\":8716:8717   */\n      0x00\n        /* \"#utility.yul\":8708:8714   */\n      dup3\n        /* \"#utility.yul\":8704:8718   */\n      add\n        /* \"#utility.yul\":8697:8755   */\n      mstore\n        /* \"#utility.yul\":8789:8803   */\n      0x70726576696f7573206269640000000000000000000000000000000000000000\n        /* \"#utility.yul\":8784:8786   */\n      0x20\n        /* \"#utility.yul\":8776:8782   */\n      dup3\n        /* \"#utility.yul\":8772:8787   */\n      add\n        /* \"#utility.yul\":8765:8804   */\n      mstore\n        /* \"#utility.yul\":8580:8811   */\n      pop\n      jump\t// out\n        /* \"#utility.yul\":8817:9183   */\n    tag_118:\n        /* \"#utility.yul\":8959:8962   */\n      0x00\n        /* \"#utility.yul\":8980:9047   */\n      tag_210\n        /* \"#utility.yul\":9044:9046   */\n      0x2c\n        /* \"#utility.yul\":9039:9042   */\n      dup4\n        /* \"#utility.yul\":8980:9047   */\n      tag_109\n      jump\t// in\n    tag_210:\n        /* \"#utility.yul\":8973:9047   */\n      swap2\n      pop\n        /* \"#utility.yul\":9056:9149   */\n      tag_211\n        /* \"#utility.yul\":9145:9148   */\n      dup3\n        /* \"#utility.yul\":9056:9149   */\n      tag_117\n      jump\t// in\n    tag_211:\n        /* \"#utility.yul\":9174:9176   */\n      0x40\n        /* \"#utility.yul\":9169:9172   */\n      dup3\n        /* \"#utility.yul\":9165:9177   */\n      add\n        /* \"#utility.yul\":9158:9177   */\n      swap1\n      pop\n        /* \"#utility.yul\":8817:9183   */\n      swap2\n      swap1\n      pop\n      jump\t// out\n        /* \"#utility.yul\":9189:9608   */\n    tag_65:\n        /* \"#utility.yul\":9355:9359   */\n      0x00\n        /* \"#utility.yul\":9393:9395   */\n      0x20\n        /* \"#utility.yul\":9382:9391   */\n      dup3\n        /* \"#utility.yul\":9378:9396   */\n      add\n        /* \"#utility.yul\":9370:9396   */\n      swap1\n      pop\n        /* \"#utility.yul\":9442:9451   */\n      dup2\n        /* \"#utility.yul\":9436:9440   */\n      dup2\n        /* \"#utility.yul\":9432:9452   */\n      sub\n        /* \"#utility.yul\":9428:9429   */\n      0x00\n        /* \"#utility.yul\":9417:9426   */\n      dup4\n        /* \"#utility.yul\":9413:9430   */\n      add\n        /* \"#utility.yul\":9406:9453   */\n      mstore\n        /* \"#utility.yul\":9470:9601   */\n      tag_213\n        /* \"#utility.yul\":9596:9600   */\n      dup2\n        /* \"#utility.yul\":9470:9601   */\n      tag_118\n      jump\t// in\n    tag_213:\n        /* \"#utility.yul\":9462:9601   */\n      swap1\n      pop\n        /* \"#utility.yul\":9189:9608   */\n      swap2\n      swap1\n      pop\n      jump\t// out\n        /* \"#utility.yul\":9614:9789   */\n    tag_119:\n        /* \"#utility.yul\":9754:9781   */\n      0x41756374696f6e206861736e277420656e646564207965742e00000000000000\n        /* \"#utility.yul\":9750:9751   */\n      0x00\n        /* \"#utility.yul\":9742:9748   */\n      dup3\n        /* \"#utility.yul\":9738:9752   */\n      add\n        /* \"#utility.yul\":9731:9782   */\n      mstore\n        /* \"#utility.yul\":9614:9789   */\n      pop\n      jump\t// out\n        /* \"#utility.yul\":9795:10161   */\n    tag_120:\n        /* \"#utility.yul\":9937:9940   */\n      0x00\n        /* \"#utility.yul\":9958:10025   */\n      tag_216\n        /* \"#utility.yul\":10022:10024   */\n      0x19\n        /* \"#utility.yul\":10017:10020   */\n      dup4\n        /* \"#utility.yul\":9958:10025   */\n      tag_109\n      jump\t// in\n    tag_216:\n        /* \"#utility.yul\":9951:10025   */\n      swap2\n      pop\n        /* \"#utility.yul\":10034:10127   */\n      tag_217\n        /* \"#utility.yul\":10123:10126   */\n      dup3\n        /* \"#utility.yul\":10034:10127   */\n      tag_119\n      jump\t// in\n    tag_217:\n        /* \"#utility.yul\":10152:10154   */\n      0x20\n        /* \"#utility.yul\":10147:10150   */\n      dup3\n        /* \"#utility.yul\":10143:10155   */\n      add\n        /* \"#utility.yul\":10136:10155   */\n      swap1\n      pop\n        /* \"#utility.yul\":9795:10161   */\n      swap2\n      swap1\n      pop\n      jump\t// out\n        /* \"#utility.yul\":10167:10586   */\n    tag_72:\n        /* \"#utility.yul\":10333:10337   */\n      0x00\n        /* \"#utility.yul\":10371:10373   */\n      0x20\n        /* \"#utility.yul\":10360:10369   */\n      dup3\n        /* \"#utility.yul\":10356:10374   */\n      add\n        /* \"#utility.yul\":10348:10374   */\n      swap1\n      pop\n        /* \"#utility.yul\":10420:10429   */\n      dup2\n        /* \"#utility.yul\":10414:10418   */\n      dup2\n        /* \"#utility.yul\":10410:10430   */\n      sub\n        /* \"#utility.yul\":10406:10407   */\n      0x00\n        /* \"#utility.yul\":10395:10404   */\n      dup4\n        /* \"#utility.yul\":10391:10408   */\n      add\n        /* \"#utility.yul\":10384:10431   */\n      mstore\n        /* \"#utility.yul\":10448:10579   */\n      tag_219\n        /* \"#utility.yul\":10574:10578   */\n      dup2\n        /* \"#utility.yul\":10448:10579   */\n      tag_120\n      jump\t// in\n    tag_219:\n        /* \"#utility.yul\":10440:10579   */\n      swap1\n      pop\n        /* \"#utility.yul\":10167:10586   */\n      swap2\n      swap1\n      pop\n      jump\t// out\n        /* \"#utility.yul\":10592:10772   */\n    tag_121:\n        /* \"#utility.yul\":10640:10717   */\n      0x4e487b7100000000000000000000000000000000000000000000000000000000\n        /* \"#utility.yul\":10637:10638   */\n      0x00\n        /* \"#utility.yul\":10630:10718   */\n      mstore\n        /* \"#utility.yul\":10737:10741   */\n      0x22\n        /* \"#utility.yul\":10734:10735   */\n      0x04\n        /* \"#utility.yul\":10727:10742   */\n      mstore\n        /* \"#utility.yul\":10761:10765   */\n      0x24\n        /* \"#utility.yul\":10758:10759   */\n      0x00\n        /* \"#utility.yul\":10751:10766   */\n      revert\n        /* \"#utility.yul\":10778:11098   */\n    tag_76:\n        /* \"#utility.yul\":10822:10828   */\n      0x00\n        /* \"#utility.yul\":10859:10860   */\n      0x02\n        /* \"#utility.yul\":10853:10857   */\n      dup3\n        /* \"#utility.yul\":10849:10861   */\n      div\n        /* \"#utility.yul\":10839:10861   */\n      swap1\n      pop\n        /* \"#utility.yul\":10906:10907   */\n      0x01\n        /* \"#utility.yul\":10900:10904   */\n      dup3\n        /* \"#utility.yul\":10896:10908   */\n      and\n        /* \"#utility.yul\":10927:10945   */\n      dup1\n        /* \"#utility.yul\":10917:10998   */\n      tag_222\n      jumpi\n        /* \"#utility.yul\":10983:10987   */\n      0x7f\n        /* \"#utility.yul\":10975:10981   */\n      dup3\n        /* \"#utility.yul\":10971:10988   */\n      and\n        /* \"#utility.yul\":10961:10988   */\n      swap2\n      pop\n        /* \"#utility.yul\":10917:10998   */\n    tag_222:\n        /* \"#utility.yul\":11045:11047   */\n      0x20\n        /* \"#utility.yul\":11037:11043   */\n      dup3\n        /* \"#utility.yul\":11034:11048   */\n      lt\n        /* \"#utility.yul\":11014:11032   */\n      dup2\n        /* \"#utility.yul\":11011:11049   */\n      sub\n        /* \"#utility.yul\":11008:11092   */\n      tag_223\n      jumpi\n        /* \"#utility.yul\":11064:11082   */\n      tag_224\n      tag_121\n      jump\t// in\n    tag_224:\n        /* \"#utility.yul\":11008:11092   */\n    tag_223:\n        /* \"#utility.yul\":10829:11098   */\n      pop\n        /* \"#utility.yul\":10778:11098   */\n      swap2\n      swap1\n      pop\n      jump\t// out\n        /* \"#utility.yul\":11104:11280   */\n    tag_122:\n        /* \"#utility.yul\":11244:11272   */\n      0x41756374696f6e20656e6420616c72656164792063616c6c6564000000000000\n        /* \"#utility.yul\":11240:11241   */\n      0x00\n        /* \"#utility.yul\":11232:11238   */\n      dup3\n        /* \"#utility.yul\":11228:11242   */\n      add\n        /* \"#utility.yul\":11221:11273   */\n      mstore\n        /* \"#utility.yul\":11104:11280   */\n      pop\n      jump\t// out\n        /* \"#utility.yul\":11286:11652   */\n    tag_123:\n        /* \"#utility.yul\":11428:11431   */\n      0x00\n        /* \"#utility.yul\":11449:11516   */\n      tag_227\n        /* \"#utility.yul\":11513:11515   */\n      0x1a\n        /* \"#utility.yul\":11508:11511   */\n      dup4\n        /* \"#utility.yul\":11449:11516   */\n      tag_109\n      jump\t// in\n    tag_227:\n        /* \"#utility.yul\":11442:11516   */\n      swap2\n      pop\n        /* \"#utility.yul\":11525:11618   */\n      tag_228\n        /* \"#utility.yul\":11614:11617   */\n      dup3\n        /* \"#utility.yul\":11525:11618   */\n      tag_122\n      jump\t// in\n    tag_228:\n        /* \"#utility.yul\":11643:11645   */\n      0x20\n        /* \"#utility.yul\":11638:11641   */\n      dup3\n        /* \"#utility.yul\":11634:11646   */\n      add\n        /* \"#utility.yul\":11627:11646   */\n      swap1\n      pop\n        /* \"#utility.yul\":11286:11652   */\n      swap2\n      swap1\n      pop\n      jump\t// out\n        /* \"#utility.yul\":11658:12077   */\n    tag_86:\n        /* \"#utility.yul\":11824:11828   */\n      0x00\n        /* \"#utility.yul\":11862:11864   */\n      0x20\n        /* \"#utility.yul\":11851:11860   */\n      dup3\n        /* \"#utility.yul\":11847:11865   */\n      add\n        /* \"#utility.yul\":11839:11865   */\n      swap1\n      pop\n        /* \"#utility.yul\":11911:11920   */\n      dup2\n        /* \"#utility.yul\":11905:11909   */\n      dup2\n        /* \"#utility.yul\":11901:11921   */\n      sub\n        /* \"#utility.yul\":11897:11898   */\n      0x00\n        /* \"#utility.yul\":11886:11895   */\n      dup4\n        /* \"#utility.yul\":11882:11899   */\n      add\n        /* \"#utility.yul\":11875:11922   */\n      mstore\n        /* \"#utility.yul\":11939:12070   */\n      tag_230\n        /* \"#utility.yul\":12065:12069   */\n      dup2\n        /* \"#utility.yul\":11939:12070   */\n      tag_123\n      jump\t// in\n    tag_230:\n        /* \"#utility.yul\":11931:12070   */\n      swap1\n      pop\n        /* \"#utility.yul\":11658:12077   */\n      swap2\n      swap1\n      pop\n      jump\t// out\n\n    auxdata: 0xa2646970667358221220cb01c09735e0121b5734c7a685ac034906e34ec71c2808a0ba2df7d90adae91164736f6c634300081e0033\n}\n",
				"bytecode": {
					"linkReferences": {},
					"object": "608060405234801561000f575f5ffd5b5060405161128138038061128183398181016040528101906100319190610219565b335f5f6101000a81548173ffffffffffffffffffffffffffffffffffffffff021916908373ffffffffffffffffffffffffffffffffffffffff160217905550816001908161007f919061047a565b50804261008c9190610576565b60028190555050506105a9565b5f604051905090565b5f5ffd5b5f5ffd5b5f5ffd5b5f5ffd5b5f601f19601f8301169050919050565b7f4e487b71000000000000000000000000000000000000000000000000000000005f52604160045260245ffd5b6100f8826100b2565b810181811067ffffffffffffffff82111715610117576101166100c2565b5b80604052505050565b5f610129610099565b905061013582826100ef565b919050565b5f67ffffffffffffffff821115610154576101536100c2565b5b61015d826100b2565b9050602081019050919050565b8281835e5f83830152505050565b5f61018a6101858461013a565b610120565b9050828152602081018484840111156101a6576101a56100ae565b5b6101b184828561016a565b509392505050565b5f82601f8301126101cd576101cc6100aa565b5b81516101dd848260208601610178565b91505092915050565b5f819050919050565b6101f8816101e6565b8114610202575f5ffd5b50565b5f81519050610213816101ef565b92915050565b5f5f6040838503121561022f5761022e6100a2565b5b5f83015167ffffffffffffffff81111561024c5761024b6100a6565b5b610258858286016101b9565b925050602061026985828601610205565b9150509250929050565b5f81519050919050565b7f4e487b71000000000000000000000000000000000000000000000000000000005f52602260045260245ffd5b5f60028204905060018216806102c157607f821691505b6020821081036102d4576102d361027d565b5b50919050565b5f819050815f5260205f209050919050565b5f6020601f8301049050919050565b5f82821b905092915050565b5f600883026103367fffffffffffffffffffffffffffffffffffffffffffffffffffffffffffffffff826102fb565b61034086836102fb565b95508019841693508086168417925050509392505050565b5f819050919050565b5f61037b610376610371846101e6565b610358565b6101e6565b9050919050565b5f819050919050565b61039483610361565b6103a86103a082610382565b848454610307565b825550505050565b5f5f905090565b6103bf6103b0565b6103ca81848461038b565b505050565b5b818110156103ed576103e25f826103b7565b6001810190506103d0565b5050565b601f82111561043257610403816102da565b61040c846102ec565b8101602085101561041b578190505b61042f610427856102ec565b8301826103cf565b50505b505050565b5f82821c905092915050565b5f6104525f1984600802610437565b1980831691505092915050565b5f61046a8383610443565b9150826002028217905092915050565b61048382610273565b67ffffffffffffffff81111561049c5761049b6100c2565b5b6104a682546102aa565b6104b18282856103f1565b5f60209050601f8311600181146104e2575f84156104d0578287015190505b6104da858261045f565b865550610541565b601f1984166104f0866102da565b5f5b82811015610517578489015182556001820191506020850194506020810190506104f2565b868310156105345784890151610530601f891682610443565b8355505b6001600288020188555050505b505050505050565b7f4e487b71000000000000000000000000000000000000000000000000000000005f52601160045260245ffd5b5f610580826101e6565b915061058b836101e6565b92508282019050808211156105a3576105a2610549565b5b92915050565b610ccb806105b65f395ff3fe608060405234801561000f575f5ffd5b506004361061009c575f3560e01c80638da5cb5b116100645780638da5cb5b146101465780638e7ea5b214610164578063cff29dfd14610183578063f2a4a82e146101b3578063fe67a54b146101d15761009c565b806312fa6feb146100a05780633a79d2e5146100be578063454a2ab3146100dc5780634b449cba146100f857806362ea82db14610116575b5f5ffd5b6100a86101db565b6040516100b59190610706565b60405180910390f35b6100c66101ed565b6040516100d39190610806565b60405180910390f35b6100f660048036038101906100f1919061085d565b610278565b005b6101006104b9565b60405161010d9190610897565b60405180910390f35b610130600480360381019061012b91906108da565b6104bf565b60405161013d9190610897565b60405180910390f35b61014e6104d4565b60405161015b9190610914565b60405180910390f35b61016c6104f8565b60405161017a92919061092d565b60405180910390f35b61019d6004803603810190610198919061085d565b610575565b6040516101aa9190610914565b60405180910390f35b6101bb6105b0565b6040516101c891906109c4565b60405180910390f35b6101d961063c565b005b60055f9054906101000a900460ff1681565b6060600780548060200260200160405190810160405280929190818152602001828054801561026e57602002820191905f5260205f20905b815f9054906101000a900473ffffffffffffffffffffffffffffffffffffffff1673ffffffffffffffffffffffffffffffffffffffff1681526020019060010190808311610225575b5050505050905090565b60025442106102bc576040517f08c379a00000000000000000000000000000000000000000000000000000000081526004016102b390610a2e565b60405180910390fd5b5f81116102fe576040517f08c379a00000000000000000000000000000000000000000000000000000000081526004016102f590610abc565b60405180910390fd5b60065f3373ffffffffffffffffffffffffffffffffffffffff1673ffffffffffffffffffffffffffffffffffffffff1681526020019081526020015f2054811161037d576040517f08c379a000000000000000000000000000000000000000000000000000000000815260040161037490610b4a565b60405180910390fd5b5f60065f3373ffffffffffffffffffffffffffffffffffffffff1673ffffffffffffffffffffffffffffffffffffffff1681526020019081526020015f20540361042257600733908060018154018082558091505060019003905f5260205f20015f9091909190916101000a81548173ffffffffffffffffffffffffffffffffffffffff021916908373ffffffffffffffffffffffffffffffffffffffff1602179055505b8060065f3373ffffffffffffffffffffffffffffffffffffffff1673ffffffffffffffffffffffffffffffffffffffff1681526020019081526020015f20819055506004548111156104b657806004819055503360035f6101000a81548173ffffffffffffffffffffffffffffffffffffffff021916908373ffffffffffffffffffffffffffffffffffffffff1602179055505b50565b60025481565b6006602052805f5260405f205f915090505481565b5f5f9054906101000a900473ffffffffffffffffffffffffffffffffffffffff1681565b5f5f60055f9054906101000a900460ff16610548576040517f08c379a000000000000000000000000000000000000000000000000000000000815260040161053f90610bb2565b60405180910390fd5b60035f9054906101000a900473ffffffffffffffffffffffffffffffffffffffff16600454915091509091565b60078181548110610584575f80fd5b905f5260205f20015f915054906101000a900473ffffffffffffffffffffffffffffffffffffffff1681565b600180546105bd90610bfd565b80601f01602080910402602001604051908101604052809291908181526020018280546105e990610bfd565b80156106345780601f1061060b57610100808354040283529160200191610634565b820191905f5260205f20905b81548152906001019060200180831161061757829003601f168201915b505050505081565b600254421015610681576040517f08c379a000000000000000000000000000000000000000000000000000000000815260040161067890610bb2565b60405180910390fd5b60055f9054906101000a900460ff16156106d0576040517f08c379a00000000000000000000000000000000000000000000000000000000081526004016106c790610c77565b60405180910390fd5b600160055f6101000a81548160ff021916908315150217905550565b5f8115159050919050565b610700816106ec565b82525050565b5f6020820190506107195f8301846106f7565b92915050565b5f81519050919050565b5f82825260208201905092915050565b5f819050602082019050919050565b5f73ffffffffffffffffffffffffffffffffffffffff82169050919050565b5f61077182610748565b9050919050565b61078181610767565b82525050565b5f6107928383610778565b60208301905092915050565b5f602082019050919050565b5f6107b48261071f565b6107be8185610729565b93506107c983610739565b805f5b838110156107f95781516107e08882610787565b97506107eb8361079e565b9250506001810190506107cc565b5085935050505092915050565b5f6020820190508181035f83015261081e81846107aa565b905092915050565b5f5ffd5b5f819050919050565b61083c8161082a565b8114610846575f5ffd5b50565b5f8135905061085781610833565b92915050565b5f6020828403121561087257610871610826565b5b5f61087f84828501610849565b91505092915050565b6108918161082a565b82525050565b5f6020820190506108aa5f830184610888565b92915050565b6108b981610767565b81146108c3575f5ffd5b50565b5f813590506108d4816108b0565b92915050565b5f602082840312156108ef576108ee610826565b5b5f6108fc848285016108c6565b91505092915050565b61090e81610767565b82525050565b5f6020820190506109275f830184610905565b92915050565b5f6040820190506109405f830185610905565b61094d6020830184610888565b9392505050565b5f81519050919050565b5f82825260208201905092915050565b8281835e5f83830152505050565b5f601f19601f8301169050919050565b5f61099682610954565b6109a0818561095e565b93506109b081856020860161096e565b6109b98161097c565b840191505092915050565b5f6020820190508181035f8301526109dc818461098c565b905092915050565b7f41756374696f6e2068617320656e6465640000000000000000000000000000005f82015250565b5f610a1860118361095e565b9150610a23826109e4565b602082019050919050565b5f6020820190508181035f830152610a4581610a0c565b9050919050565b7f42696420616d6f756e74206d7573742062652067726561746572207468616e205f8201527f7a65726f00000000000000000000000000000000000000000000000000000000602082015250565b5f610aa660248361095e565b9150610ab182610a4c565b604082019050919050565b5f6020820190508181035f830152610ad381610a9a565b9050919050565b7f42696420616d6f756e74206d7573742062652067726561746572207468616e205f8201527f70726576696f7573206269640000000000000000000000000000000000000000602082015250565b5f610b34602c8361095e565b9150610b3f82610ada565b604082019050919050565b5f6020820190508181035f830152610b6181610b28565b9050919050565b7f41756374696f6e206861736e277420656e646564207965742e000000000000005f82015250565b5f610b9c60198361095e565b9150610ba782610b68565b602082019050919050565b5f6020820190508181035f830152610bc981610b90565b9050919050565b7f4e487b71000000000000000000000000000000000000000000000000000000005f52602260045260245ffd5b5f6002820490506001821680610c1457607f821691505b602082108103610c2757610c26610bd0565b5b50919050565b7f41756374696f6e20656e6420616c72656164792063616c6c65640000000000005f82015250565b5f610c61601a8361095e565b9150610c6c82610c2d565b602082019050919050565b5f6020820190508181035f830152610c8e81610c55565b905091905056fea2646970667358221220cb01c09735e0121b5734c7a685ac034906e34ec71c2808a0ba2df7d90adae91164736f6c634300081e0033",
					"opcodes": "PUSH1 0x80 PUSH1 0x40 MSTORE CALLVALUE DUP1 ISZERO PUSH2 0xF JUMPI PUSH0 PUSH0 REVERT JUMPDEST POP PUSH1 0x40 MLOAD PUSH2 0x1281 CODESIZE SUB DUP1 PUSH2 0x1281 DUP4 CODECOPY DUP2 DUP2 ADD PUSH1 0x40 MSTORE DUP2 ADD SWAP1 PUSH2 0x31 SWAP2 SWAP1 PUSH2 0x219 JUMP JUMPDEST CALLER PUSH0 PUSH0 PUSH2 0x100 EXP DUP2 SLOAD DUP2 PUSH20 0xFFFFFFFFFFFFFFFFFFFFFFFFFFFFFFFFFFFFFFFF MUL NOT AND SWAP1 DUP4 PUSH20 0xFFFFFFFFFFFFFFFFFFFFFFFFFFFFFFFFFFFFFFFF AND MUL OR SWAP1 SSTORE POP DUP2 PUSH1 0x1 SWAP1 DUP2 PUSH2 0x7F SWAP2 SWAP1 PUSH2 0x47A JUMP JUMPDEST POP DUP1 TIMESTAMP PUSH2 0x8C SWAP2 SWAP1 PUSH2 0x576 JUMP JUMPDEST PUSH1 0x2 DUP2 SWAP1 SSTORE POP POP POP PUSH2 0x5A9 JUMP JUMPDEST PUSH0 PUSH1 0x40 MLOAD SWAP1 POP SWAP1 JUMP JUMPDEST PUSH0 PUSH0 REVERT JUMPDEST PUSH0 PUSH0 REVERT JUMPDEST PUSH0 PUSH0 REVERT JUMPDEST PUSH0 PUSH0 REVERT JUMPDEST PUSH0 PUSH1 0x1F NOT PUSH1 0x1F DUP4 ADD AND SWAP1 POP SWAP2 SWAP1 POP JUMP JUMPDEST PUSH32 0x4E487B7100000000000000000000000000000000000000000000000000000000 PUSH0 MSTORE PUSH1 0x41 PUSH1 0x4 MSTORE PUSH1 0x24 PUSH0 REVERT JUMPDEST PUSH2 0xF8 DUP3 PUSH2 0xB2 JUMP JUMPDEST DUP2 ADD DUP2 DUP2 LT PUSH8 0xFFFFFFFFFFFFFFFF DUP3 GT OR ISZERO PUSH2 0x117 JUMPI PUSH2 0x116 PUSH2 0xC2 JUMP JUMPDEST JUMPDEST DUP1 PUSH1 0x40 MSTORE POP POP POP JUMP JUMPDEST PUSH0 PUSH2 0x129 PUSH2 0x99 JUMP JUMPDEST SWAP1 POP PUSH2 0x135 DUP3 DUP3 PUSH2 0xEF JUMP JUMPDEST SWAP2 SWAP1 POP JUMP JUMPDEST PUSH0 PUSH8 0xFFFFFFFFFFFFFFFF DUP3 GT ISZERO PUSH2 0x154 JUMPI PUSH2 0x153 PUSH2 0xC2 JUMP JUMPDEST JUMPDEST PUSH2 0x15D DUP3 PUSH2 0xB2 JUMP JUMPDEST SWAP1 POP PUSH1 0x20 DUP2 ADD SWAP1 POP SWAP2 SWAP1 POP JUMP JUMPDEST DUP3 DUP2 DUP4 MCOPY PUSH0 DUP4 DUP4 ADD MSTORE POP POP POP JUMP JUMPDEST PUSH0 PUSH2 0x18A PUSH2 0x185 DUP5 PUSH2 0x13A JUMP JUMPDEST PUSH2 0x120 JUMP JUMPDEST SWAP1 POP DUP3 DUP2 MSTORE PUSH1 0x20 DUP2 ADD DUP5 DUP5 DUP5 ADD GT ISZERO PUSH2 0x1A6 JUMPI PUSH2 0x1A5 PUSH2 0xAE JUMP JUMPDEST JUMPDEST PUSH2 0x1B1 DUP5 DUP3 DUP6 PUSH2 0x16A JUMP JUMPDEST POP SWAP4 SWAP3 POP POP POP JUMP JUMPDEST PUSH0 DUP3 PUSH1 0x1F DUP4 ADD SLT PUSH2 0x1CD JUMPI PUSH2 0x1CC PUSH2 0xAA JUMP JUMPDEST JUMPDEST DUP2 MLOAD PUSH2 0x1DD DUP5 DUP3 PUSH1 0x20 DUP7 ADD PUSH2 0x178 JUMP JUMPDEST SWAP2 POP POP SWAP3 SWAP2 POP POP JUMP JUMPDEST PUSH0 DUP2 SWAP1 POP SWAP2 SWAP1 POP JUMP JUMPDEST PUSH2 0x1F8 DUP2 PUSH2 0x1E6 JUMP JUMPDEST DUP2 EQ PUSH2 0x202 JUMPI PUSH0 PUSH0 REVERT JUMPDEST POP JUMP JUMPDEST PUSH0 DUP2 MLOAD SWAP1 POP PUSH2 0x213 DUP2 PUSH2 0x1EF JUMP JUMPDEST SWAP3 SWAP2 POP POP JUMP JUMPDEST PUSH0 PUSH0 PUSH1 0x40 DUP4 DUP6 SUB SLT ISZERO PUSH2 0x22F JUMPI PUSH2 0x22E PUSH2 0xA2 JUMP JUMPDEST JUMPDEST PUSH0 DUP4 ADD MLOAD PUSH8 0xFFFFFFFFFFFFFFFF DUP2 GT ISZERO PUSH2 0x24C JUMPI PUSH2 0x24B PUSH2 0xA6 JUMP JUMPDEST JUMPDEST PUSH2 0x258 DUP6 DUP3 DUP7 ADD PUSH2 0x1B9 JUMP JUMPDEST SWAP3 POP POP PUSH1 0x20 PUSH2 0x269 DUP6 DUP3 DUP7 ADD PUSH2 0x205 JUMP JUMPDEST SWAP2 POP POP SWAP3 POP SWAP3 SWAP1 POP JUMP JUMPDEST PUSH0 DUP2 MLOAD SWAP1 POP SWAP2 SWAP1 POP JUMP JUMPDEST PUSH32 0x4E487B7100000000000000000000000000000000000000000000000000000000 PUSH0 MSTORE PUSH1 0x22 PUSH1 0x4 MSTORE PUSH1 0x24 PUSH0 REVERT JUMPDEST PUSH0 PUSH1 0x2 DUP3 DIV SWAP1 POP PUSH1 0x1 DUP3 AND DUP1 PUSH2 0x2C1 JUMPI PUSH1 0x7F DUP3 AND SWAP2 POP JUMPDEST PUSH1 0x20 DUP3 LT DUP2 SUB PUSH2 0x2D4 JUMPI PUSH2 0x2D3 PUSH2 0x27D JUMP JUMPDEST JUMPDEST POP SWAP2 SWAP1 POP JUMP JUMPDEST PUSH0 DUP2 SWAP1 POP DUP2 PUSH0 MSTORE PUSH1 0x20 PUSH0 KECCAK256 SWAP1 POP SWAP2 SWAP1 POP JUMP JUMPDEST PUSH0 PUSH1 0x20 PUSH1 0x1F DUP4 ADD DIV SWAP1 POP SWAP2 SWAP1 POP JUMP JUMPDEST PUSH0 DUP3 DUP3 SHL SWAP1 POP SWAP3 SWAP2 POP POP JUMP JUMPDEST PUSH0 PUSH1 0x8 DUP4 MUL PUSH2 0x336 PUSH32 0xFFFFFFFFFFFFFFFFFFFFFFFFFFFFFFFFFFFFFFFFFFFFFFFFFFFFFFFFFFFFFFFF DUP3 PUSH2 0x2FB JUMP JUMPDEST PUSH2 0x340 DUP7 DUP4 PUSH2 0x2FB JUMP JUMPDEST SWAP6 POP DUP1 NOT DUP5 AND SWAP4 POP DUP1 DUP7 AND DUP5 OR SWAP3 POP POP POP SWAP4 SWAP3 POP POP POP JUMP JUMPDEST PUSH0 DUP2 SWAP1 POP SWAP2 SWAP1 POP JUMP JUMPDEST PUSH0 PUSH2 0x37B PUSH2 0x376 PUSH2 0x371 DUP5 PUSH2 0x1E6 JUMP JUMPDEST PUSH2 0x358 JUMP JUMPDEST PUSH2 0x1E6 JUMP JUMPDEST SWAP1 POP SWAP2 SWAP1 POP JUMP JUMPDEST PUSH0 DUP2 SWAP1 POP SWAP2 SWAP1 POP JUMP JUMPDEST PUSH2 0x394 DUP4 PUSH2 0x361 JUMP JUMPDEST PUSH2 0x3A8 PUSH2 0x3A0 DUP3 PUSH2 0x382 JUMP JUMPDEST DUP5 DUP5 SLOAD PUSH2 0x307 JUMP JUMPDEST DUP3 SSTORE POP POP POP POP JUMP JUMPDEST PUSH0 PUSH0 SWAP1 POP SWAP1 JUMP JUMPDEST PUSH2 0x3BF PUSH2 0x3B0 JUMP JUMPDEST PUSH2 0x3CA DUP2 DUP5 DUP5 PUSH2 0x38B JUMP JUMPDEST POP POP POP JUMP JUMPDEST JUMPDEST DUP2 DUP2 LT ISZERO PUSH2 0x3ED JUMPI PUSH2 0x3E2 PUSH0 DUP3 PUSH2 0x3B7 JUMP JUMPDEST PUSH1 0x1 DUP2 ADD SWAP1 POP PUSH2 0x3D0 JUMP JUMPDEST POP POP JUMP JUMPDEST PUSH1 0x1F DUP3 GT ISZERO PUSH2 0x432 JUMPI PUSH2 0x403 DUP2 PUSH2 0x2DA JUMP JUMPDEST PUSH2 0x40C DUP5 PUSH2 0x2EC JUMP JUMPDEST DUP2 ADD PUSH1 0x20 DUP6 LT ISZERO PUSH2 0x41B JUMPI DUP2 SWAP1 POP JUMPDEST PUSH2 0x42F PUSH2 0x427 DUP6 PUSH2 0x2EC JUMP JUMPDEST DUP4 ADD DUP3 PUSH2 0x3CF JUMP JUMPDEST POP POP JUMPDEST POP POP POP JUMP JUMPDEST PUSH0 DUP3 DUP3 SHR SWAP1 POP SWAP3 SWAP2 POP POP JUMP JUMPDEST PUSH0 PUSH2 0x452 PUSH0 NOT DUP5 PUSH1 0x8 MUL PUSH2 0x437 JUMP JUMPDEST NOT DUP1 DUP4 AND SWAP2 POP POP SWAP3 SWAP2 POP POP JUMP JUMPDEST PUSH0 PUSH2 0x46A DUP4 DUP4 PUSH2 0x443 JUMP JUMPDEST SWAP2 POP DUP3 PUSH1 0x2 MUL DUP3 OR SWAP1 POP SWAP3 SWAP2 POP POP JUMP JUMPDEST PUSH2 0x483 DUP3 PUSH2 0x273 JUMP JUMPDEST PUSH8 0xFFFFFFFFFFFFFFFF DUP2 GT ISZERO PUSH2 0x49C JUMPI PUSH2 0x49B PUSH2 0xC2 JUMP JUMPDEST JUMPDEST PUSH2 0x4A6 DUP3 SLOAD PUSH2 0x2AA JUMP JUMPDEST PUSH2 0x4B1 DUP3 DUP3 DUP6 PUSH2 0x3F1 JUMP JUMPDEST PUSH0 PUSH1 0x20 SWAP1 POP PUSH1 0x1F DUP4 GT PUSH1 0x1 DUP2 EQ PUSH2 0x4E2 JUMPI PUSH0 DUP5 ISZERO PUSH2 0x4D0 JUMPI DUP3 DUP8 ADD MLOAD SWAP1 POP JUMPDEST PUSH2 0x4DA DUP6 DUP3 PUSH2 0x45F JUMP JUMPDEST DUP7 SSTORE POP PUSH2 0x541 JUMP JUMPDEST PUSH1 0x1F NOT DUP5 AND PUSH2 0x4F0 DUP7 PUSH2 0x2DA JUMP JUMPDEST PUSH0 JUMPDEST DUP3 DUP2 LT ISZERO PUSH2 0x517 JUMPI DUP5 DUP10 ADD MLOAD DUP3 SSTORE PUSH1 0x1 DUP3 ADD SWAP2 POP PUSH1 0x20 DUP6 ADD SWAP5 POP PUSH1 0x20 DUP2 ADD SWAP1 POP PUSH2 0x4F2 JUMP JUMPDEST DUP7 DUP4 LT ISZERO PUSH2 0x534 JUMPI DUP5 DUP10 ADD MLOAD PUSH2 0x530 PUSH1 0x1F DUP10 AND DUP3 PUSH2 0x443 JUMP JUMPDEST DUP4 SSTORE POP JUMPDEST PUSH1 0x1 PUSH1 0x2 DUP9 MUL ADD DUP9 SSTORE POP POP POP JUMPDEST POP POP POP POP POP POP JUMP JUMPDEST PUSH32 0x4E487B7100000000000000000000000000000000000000000000000000000000 PUSH0 MSTORE PUSH1 0x11 PUSH1 0x4 MSTORE PUSH1 0x24 PUSH0 REVERT JUMPDEST PUSH0 PUSH2 0x580 DUP3 PUSH2 0x1E6 JUMP JUMPDEST SWAP2 POP PUSH2 0x58B DUP4 PUSH2 0x1E6 JUMP JUMPDEST SWAP3 POP DUP3 DUP3 ADD SWAP1 POP DUP1 DUP3 GT ISZERO PUSH2 0x5A3 JUMPI PUSH2 0x5A2 PUSH2 0x549 JUMP JUMPDEST JUMPDEST SWAP3 SWAP2 POP POP JUMP JUMPDEST PUSH2 0xCCB DUP1 PUSH2 0x5B6 PUSH0 CODECOPY PUSH0 RETURN INVALID PUSH1 0x80 PUSH1 0x40 MSTORE CALLVALUE DUP1 ISZERO PUSH2 0xF JUMPI PUSH0 PUSH0 REVERT JUMPDEST POP PUSH1 0x4 CALLDATASIZE LT PUSH2 0x9C JUMPI PUSH0 CALLDATALOAD PUSH1 0xE0 SHR DUP1 PUSH4 0x8DA5CB5B GT PUSH2 0x64 JUMPI DUP1 PUSH4 0x8DA5CB5B EQ PUSH2 0x146 JUMPI DUP1 PUSH4 0x8E7EA5B2 EQ PUSH2 0x164 JUMPI DUP1 PUSH4 0xCFF29DFD EQ PUSH2 0x183 JUMPI DUP1 PUSH4 0xF2A4A82E EQ PUSH2 0x1B3 JUMPI DUP1 PUSH4 0xFE67A54B EQ PUSH2 0x1D1 JUMPI PUSH2 0x9C JUMP JUMPDEST DUP1 PUSH4 0x12FA6FEB EQ PUSH2 0xA0 JUMPI DUP1 PUSH4 0x3A79D2E5 EQ PUSH2 0xBE JUMPI DUP1 PUSH4 0x454A2AB3 EQ PUSH2 0xDC JUMPI DUP1 PUSH4 0x4B449CBA EQ PUSH2 0xF8 JUMPI DUP1 PUSH4 0x62EA82DB EQ PUSH2 0x116 JUMPI JUMPDEST PUSH0 PUSH0 REVERT JUMPDEST PUSH2 0xA8 PUSH2 0x1DB JUMP JUMPDEST PUSH1 0x40 MLOAD PUSH2 0xB5 SWAP2 SWAP1 PUSH2 0x706 JUMP JUMPDEST PUSH1 0x40 MLOAD DUP1 SWAP2 SUB SWAP1 RETURN JUMPDEST PUSH2 0xC6 PUSH2 0x1ED JUMP JUMPDEST PUSH1 0x40 MLOAD PUSH2 0xD3 SWAP2 SWAP1 PUSH2 0x806 JUMP JUMPDEST PUSH1 0x40 MLOAD DUP1 SWAP2 SUB SWAP1 RETURN JUMPDEST PUSH2 0xF6 PUSH1 0x4 DUP1 CALLDATASIZE SUB DUP2 ADD SWAP1 PUSH2 0xF1 SWAP2 SWAP1 PUSH2 0x85D JUMP JUMPDEST PUSH2 0x278 JUMP JUMPDEST STOP JUMPDEST PUSH2 0x100 PUSH2 0x4B9 JUMP JUMPDEST PUSH1 0x40 MLOAD PUSH2 0x10D SWAP2 SWAP1 PUSH2 0x897 JUMP JUMPDEST PUSH1 0x40 MLOAD DUP1 SWAP2 SUB SWAP1 RETURN JUMPDEST PUSH2 0x130 PUSH1 0x4 DUP1 CALLDATASIZE SUB DUP2 ADD SWAP1 PUSH2 0x12B SWAP2 SWAP1 PUSH2 0x8DA JUMP JUMPDEST PUSH2 0x4BF JUMP JUMPDEST PUSH1 0x40 MLOAD PUSH2 0x13D SWAP2 SWAP1 PUSH2 0x897 JUMP JUMPDEST PUSH1 0x40 MLOAD DUP1 SWAP2 SUB SWAP1 RETURN JUMPDEST PUSH2 0x14E PUSH2 0x4D4 JUMP JUMPDEST PUSH1 0x40 MLOAD PUSH2 0x15B SWAP2 SWAP1 PUSH2 0x914 JUMP JUMPDEST PUSH1 0x40 MLOAD DUP1 SWAP2 SUB SWAP1 RETURN JUMPDEST PUSH2 0x16C PUSH2 0x4F8 JUMP JUMPDEST PUSH1 0x40 MLOAD PUSH2 0x17A SWAP3 SWAP2 SWAP1 PUSH2 0x92D JUMP JUMPDEST PUSH1 0x40 MLOAD DUP1 SWAP2 SUB SWAP1 RETURN JUMPDEST PUSH2 0x19D PUSH1 0x4 DUP1 CALLDATASIZE SUB DUP2 ADD SWAP1 PUSH2 0x198 SWAP2 SWAP1 PUSH2 0x85D JUMP JUMPDEST PUSH2 0x575 JUMP JUMPDEST PUSH1 0x40 MLOAD PUSH2 0x1AA SWAP2 SWAP1 PUSH2 0x914 JUMP JUMPDEST PUSH1 0x40 MLOAD DUP1 SWAP2 SUB SWAP1 RETURN JUMPDEST PUSH2 0x1BB PUSH2 0x5B0 JUMP JUMPDEST PUSH1 0x40 MLOAD PUSH2 0x1C8 SWAP2 SWAP1 PUSH2 0x9C4 JUMP JUMPDEST PUSH1 0x40 MLOAD DUP1 SWAP2 SUB SWAP1 RETURN JUMPDEST PUSH2 0x1D9 PUSH2 0x63C JUMP JUMPDEST STOP JUMPDEST PUSH1 0x5 PUSH0 SWAP1 SLOAD SWAP1 PUSH2 0x100 EXP SWAP1 DIV PUSH1 0xFF AND DUP2 JUMP JUMPDEST PUSH1 0x60 PUSH1 0x7 DUP1 SLOAD DUP1 PUSH1 0x20 MUL PUSH1 0x20 ADD PUSH1 0x40 MLOAD SWAP1 DUP2 ADD PUSH1 0x40 MSTORE DUP1 SWAP3 SWAP2 SWAP1 DUP2 DUP2 MSTORE PUSH1 0x20 ADD DUP3 DUP1 SLOAD DUP1 ISZERO PUSH2 0x26E JUMPI PUSH1 0x20 MUL DUP3 ADD SWAP2 SWAP1 PUSH0 MSTORE PUSH1 0x20 PUSH0 KECCAK256 SWAP1 JUMPDEST DUP2 PUSH0 SWAP1 SLOAD SWAP1 PUSH2 0x100 EXP SWAP1 DIV PUSH20 0xFFFFFFFFFFFFFFFFFFFFFFFFFFFFFFFFFFFFFFFF AND PUSH20 0xFFFFFFFFFFFFFFFFFFFFFFFFFFFFFFFFFFFFFFFF AND DUP2 MSTORE PUSH1 0x20 ADD SWAP1 PUSH1 0x1 ADD SWAP1 DUP1 DUP4 GT PUSH2 0x225 JUMPI JUMPDEST POP POP POP POP POP SWAP1 POP SWAP1 JUMP JUMPDEST PUSH1 0x2 SLOAD TIMESTAMP LT PUSH2 0x2BC JUMPI PUSH1 0x40 MLOAD PUSH32 0x8C379A000000000000000000000000000000000000000000000000000000000 DUP2 MSTORE PUSH1 0x4 ADD PUSH2 0x2B3 SWAP1 PUSH2 0xA2E JUMP JUMPDEST PUSH1 0x40 MLOAD DUP1 SWAP2 SUB SWAP1 REVERT JUMPDEST PUSH0 DUP2 GT PUSH2 0x2FE JUMPI PUSH1 0x40 MLOAD PUSH32 0x8C379A000000000000000000000000000000000000000000000000000000000 DUP2 MSTORE PUSH1 0x4 ADD PUSH2 0x2F5 SWAP1 PUSH2 0xABC JUMP JUMPDEST PUSH1 0x40 MLOAD DUP1 SWAP2 SUB SWAP1 REVERT JUMPDEST PUSH1 0x6 PUSH0 CALLER PUSH20 0xFFFFFFFFFFFFFFFFFFFFFFFFFFFFFFFFFFFFFFFF AND PUSH20 0xFFFFFFFFFFFFFFFFFFFFFFFFFFFFFFFFFFFFFFFF AND DUP2 MSTORE PUSH1 0x20 ADD SWAP1 DUP2 MSTORE PUSH1 0x20 ADD PUSH0 KECCAK256 SLOAD DUP2 GT PUSH2 0x37D JUMPI PUSH1 0x40 MLOAD PUSH32 0x8C379A000000000000000000000000000000000000000000000000000000000 DUP2 MSTORE PUSH1 0x4 ADD PUSH2 0x374 SWAP1 PUSH2 0xB4A JUMP JUMPDEST PUSH1 0x40 MLOAD DUP1 SWAP2 SUB SWAP1 REVERT JUMPDEST PUSH0 PUSH1 0x6 PUSH0 CALLER PUSH20 0xFFFFFFFFFFFFFFFFFFFFFFFFFFFFFFFFFFFFFFFF AND PUSH20 0xFFFFFFFFFFFFFFFFFFFFFFFFFFFFFFFFFFFFFFFF AND DUP2 MSTORE PUSH1 0x20 ADD SWAP1 DUP2 MSTORE PUSH1 0x20 ADD PUSH0 KECCAK256 SLOAD SUB PUSH2 0x422 JUMPI PUSH1 0x7 CALLER SWAP1 DUP1 PUSH1 0x1 DUP2 SLOAD ADD DUP1 DUP3 SSTORE DUP1 SWAP2 POP POP PUSH1 0x1 SWAP1 SUB SWAP1 PUSH0 MSTORE PUSH1 0x20 PUSH0 KECCAK256 ADD PUSH0 SWAP1 SWAP2 SWAP1 SWAP2 SWAP1 SWAP2 PUSH2 0x100 EXP DUP2 SLOAD DUP2 PUSH20 0xFFFFFFFFFFFFFFFFFFFFFFFFFFFFFFFFFFFFFFFF MUL NOT AND SWAP1 DUP4 PUSH20 0xFFFFFFFFFFFFFFFFFFFFFFFFFFFFFFFFFFFFFFFF AND MUL OR SWAP1 SSTORE POP JUMPDEST DUP1 PUSH1 0x6 PUSH0 CALLER PUSH20 0xFFFFFFFFFFFFFFFFFFFFFFFFFFFFFFFFFFFFFFFF AND PUSH20 0xFFFFFFFFFFFFFFFFFFFFFFFFFFFFFFFFFFFFFFFF AND DUP2 MSTORE PUSH1 0x20 ADD SWAP1 DUP2 MSTORE PUSH1 0x20 ADD PUSH0 KECCAK256 DUP2 SWAP1 SSTORE POP PUSH1 0x4 SLOAD DUP2 GT ISZERO PUSH2 0x4B6 JUMPI DUP1 PUSH1 0x4 DUP2 SWAP1 SSTORE POP CALLER PUSH1 0x3 PUSH0 PUSH2 0x100 EXP DUP2 SLOAD DUP2 PUSH20 0xFFFFFFFFFFFFFFFFFFFFFFFFFFFFFFFFFFFFFFFF MUL NOT AND SWAP1 DUP4 PUSH20 0xFFFFFFFFFFFFFFFFFFFFFFFFFFFFFFFFFFFFFFFF AND MUL OR SWAP1 SSTORE POP JUMPDEST POP JUMP JUMPDEST PUSH1 0x2 SLOAD DUP2 JUMP JUMPDEST PUSH1 0x6 PUSH1 0x20 MSTORE DUP1 PUSH0 MSTORE PUSH1 0x40 PUSH0 KECCAK256 PUSH0 SWAP2 POP SWAP1 POP SLOAD DUP2 JUMP JUMPDEST PUSH0 PUSH0 SWAP1 SLOAD SWAP1 PUSH2 0x100 EXP SWAP1 DIV PUSH20 0xFFFFFFFFFFFFFFFFFFFFFFFFFFFFFFFFFFFFFFFF AND DUP2 JUMP JUMPDEST PUSH0 PUSH0 PUSH1 0x5 PUSH0 SWAP1 SLOAD SWAP1 PUSH2 0x100 EXP SWAP1 DIV PUSH1 0xFF AND PUSH2 0x548 JUMPI PUSH1 0x40 MLOAD PUSH32 0x8C379A000000000000000000000000000000000000000000000000000000000 DUP2 MSTORE PUSH1 0x4 ADD PUSH2 0x53F SWAP1 PUSH2 0xBB2 JUMP JUMPDEST PUSH1 0x40 MLOAD DUP1 SWAP2 SUB SWAP1 REVERT JUMPDEST PUSH1 0x3 PUSH0 SWAP1 SLOAD SWAP1 PUSH2 0x100 EXP SWAP1 DIV PUSH20 0xFFFFFFFFFFFFFFFFFFFFFFFFFFFFFFFFFFFFFFFF AND PUSH1 0x4 SLOAD SWAP2 POP SWAP2 POP SWAP1 SWAP2 JUMP JUMPDEST PUSH1 0x7 DUP2 DUP2 SLOAD DUP2 LT PUSH2 0x584 JUMPI PUSH0 DUP1 REVERT JUMPDEST SWAP1 PUSH0 MSTORE PUSH1 0x20 PUSH0 KECCAK256 ADD PUSH0 SWAP2 POP SLOAD SWAP1 PUSH2 0x100 EXP SWAP1 DIV PUSH20 0xFFFFFFFFFFFFFFFFFFFFFFFFFFFFFFFFFFFFFFFF AND DUP2 JUMP JUMPDEST PUSH1 0x1 DUP1 SLOAD PUSH2 0x5BD SWAP1 PUSH2 0xBFD JUMP JUMPDEST DUP1 PUSH1 0x1F ADD PUSH1 0x20 DUP1 SWAP2 DIV MUL PUSH1 0x20 ADD PUSH1 0x40 MLOAD SWAP1 DUP2 ADD PUSH1 0x40 MSTORE DUP1 SWAP3 SWAP2 SWAP1 DUP2 DUP2 MSTORE PUSH1 0x20 ADD DUP3 DUP1 SLOAD PUSH2 0x5E9 SWAP1 PUSH2 0xBFD JUMP JUMPDEST DUP1 ISZERO PUSH2 0x634 JUMPI DUP1 PUSH1 0x1F LT PUSH2 0x60B JUMPI PUSH2 0x100 DUP1 DUP4 SLOAD DIV MUL DUP4 MSTORE SWAP2 PUSH1 0x20 ADD SWAP2 PUSH2 0x634 JUMP JUMPDEST DUP3 ADD SWAP2 SWAP1 PUSH0 MSTORE PUSH1 0x20 PUSH0 KECCAK256 SWAP1 JUMPDEST DUP2 SLOAD DUP2 MSTORE SWAP1 PUSH1 0x1 ADD SWAP1 PUSH1 0x20 ADD DUP1 DUP4 GT PUSH2 0x617 JUMPI DUP3 SWAP1 SUB PUSH1 0x1F AND DUP3 ADD SWAP2 JUMPDEST POP POP POP POP POP DUP2 JUMP JUMPDEST PUSH1 0x2 SLOAD TIMESTAMP LT ISZERO PUSH2 0x681 JUMPI PUSH1 0x40 MLOAD PUSH32 0x8C379A000000000000000000000000000000000000000000000000000000000 DUP2 MSTORE PUSH1 0x4 ADD PUSH2 0x678 SWAP1 PUSH2 0xBB2 JUMP JUMPDEST PUSH1 0x40 MLOAD DUP1 SWAP2 SUB SWAP1 REVERT JUMPDEST PUSH1 0x5 PUSH0 SWAP1 SLOAD SWAP1 PUSH2 0x100 EXP SWAP1 DIV PUSH1 0xFF AND ISZERO PUSH2 0x6D0 JUMPI PUSH1 0x40 MLOAD PUSH32 0x8C379A000000000000000000000000000000000000000000000000000000000 DUP2 MSTORE PUSH1 0x4 ADD PUSH2 0x6C7 SWAP1 PUSH2 0xC77 JUMP JUMPDEST PUSH1 0x40 MLOAD DUP1 SWAP2 SUB SWAP1 REVERT JUMPDEST PUSH1 0x1 PUSH1 0x5 PUSH0 PUSH2 0x100 EXP DUP2 SLOAD DUP2 PUSH1 0xFF MUL NOT AND SWAP1 DUP4 ISZERO ISZERO MUL OR SWAP1 SSTORE POP JUMP JUMPDEST PUSH0 DUP2 ISZERO ISZERO SWAP1 POP SWAP2 SWAP1 POP JUMP JUMPDEST PUSH2 0x700 DUP2 PUSH2 0x6EC JUMP JUMPDEST DUP3 MSTORE POP POP JUMP JUMPDEST PUSH0 PUSH1 0x20 DUP3 ADD SWAP1 POP PUSH2 0x719 PUSH0 DUP4 ADD DUP5 PUSH2 0x6F7 JUMP JUMPDEST SWAP3 SWAP2 POP POP JUMP JUMPDEST PUSH0 DUP2 MLOAD SWAP1 POP SWAP2 SWAP1 POP JUMP JUMPDEST PUSH0 DUP3 DUP3 MSTORE PUSH1 0x20 DUP3 ADD SWAP1 POP SWAP3 SWAP2 POP POP JUMP JUMPDEST PUSH0 DUP2 SWAP1 POP PUSH1 0x20 DUP3 ADD SWAP1 POP SWAP2 SWAP1 POP JUMP JUMPDEST PUSH0 PUSH20 0xFFFFFFFFFFFFFFFFFFFFFFFFFFFFFFFFFFFFFFFF DUP3 AND SWAP1 POP SWAP2 SWAP1 POP JUMP JUMPDEST PUSH0 PUSH2 0x771 DUP3 PUSH2 0x748 JUMP JUMPDEST SWAP1 POP SWAP2 SWAP1 POP JUMP JUMPDEST PUSH2 0x781 DUP2 PUSH2 0x767 JUMP JUMPDEST DUP3 MSTORE POP POP JUMP JUMPDEST PUSH0 PUSH2 0x792 DUP4 DUP4 PUSH2 0x778 JUMP JUMPDEST PUSH1 0x20 DUP4 ADD SWAP1 POP SWAP3 SWAP2 POP POP JUMP JUMPDEST PUSH0 PUSH1 0x20 DUP3 ADD SWAP1 POP SWAP2 SWAP1 POP JUMP JUMPDEST PUSH0 PUSH2 0x7B4 DUP3 PUSH2 0x71F JUMP JUMPDEST PUSH2 0x7BE DUP2 DUP6 PUSH2 0x729 JUMP JUMPDEST SWAP4 POP PUSH2 0x7C9 DUP4 PUSH2 0x739 JUMP JUMPDEST DUP1 PUSH0 JUMPDEST DUP4 DUP2 LT ISZERO PUSH2 0x7F9 JUMPI DUP2 MLOAD PUSH2 0x7E0 DUP9 DUP3 PUSH2 0x787 JUMP JUMPDEST SWAP8 POP PUSH2 0x7EB DUP4 PUSH2 0x79E JUMP JUMPDEST SWAP3 POP POP PUSH1 0x1 DUP2 ADD SWAP1 POP PUSH2 0x7CC JUMP JUMPDEST POP DUP6 SWAP4 POP POP POP POP SWAP3 SWAP2 POP POP JUMP JUMPDEST PUSH0 PUSH1 0x20 DUP3 ADD SWAP1 POP DUP2 DUP2 SUB PUSH0 DUP4 ADD MSTORE PUSH2 0x81E DUP2 DUP5 PUSH2 0x7AA JUMP JUMPDEST SWAP1 POP SWAP3 SWAP2 POP POP JUMP JUMPDEST PUSH0 PUSH0 REVERT JUMPDEST PUSH0 DUP2 SWAP1 POP SWAP2 SWAP1 POP JUMP JUMPDEST PUSH2 0x83C DUP2 PUSH2 0x82A JUMP JUMPDEST DUP2 EQ PUSH2 0x846 JUMPI PUSH0 PUSH0 REVERT JUMPDEST POP JUMP JUMPDEST PUSH0 DUP2 CALLDATALOAD SWAP1 POP PUSH2 0x857 DUP2 PUSH2 0x833 JUMP JUMPDEST SWAP3 SWAP2 POP POP JUMP JUMPDEST PUSH0 PUSH1 0x20 DUP3 DUP5 SUB SLT ISZERO PUSH2 0x872 JUMPI PUSH2 0x871 PUSH2 0x826 JUMP JUMPDEST JUMPDEST PUSH0 PUSH2 0x87F DUP5 DUP3 DUP6 ADD PUSH2 0x849 JUMP JUMPDEST SWAP2 POP POP SWAP3 SWAP2 POP POP JUMP JUMPDEST PUSH2 0x891 DUP2 PUSH2 0x82A JUMP JUMPDEST DUP3 MSTORE POP POP JUMP JUMPDEST PUSH0 PUSH1 0x20 DUP3 ADD SWAP1 POP PUSH2 0x8AA PUSH0 DUP4 ADD DUP5 PUSH2 0x888 JUMP JUMPDEST SWAP3 SWAP2 POP POP JUMP JUMPDEST PUSH2 0x8B9 DUP2 PUSH2 0x767 JUMP JUMPDEST DUP2 EQ PUSH2 0x8C3 JUMPI PUSH0 PUSH0 REVERT JUMPDEST POP JUMP JUMPDEST PUSH0 DUP2 CALLDATALOAD SWAP1 POP PUSH2 0x8D4 DUP2 PUSH2 0x8B0 JUMP JUMPDEST SWAP3 SWAP2 POP POP JUMP JUMPDEST PUSH0 PUSH1 0x20 DUP3 DUP5 SUB SLT ISZERO PUSH2 0x8EF JUMPI PUSH2 0x8EE PUSH2 0x826 JUMP JUMPDEST JUMPDEST PUSH0 PUSH2 0x8FC DUP5 DUP3 DUP6 ADD PUSH2 0x8C6 JUMP JUMPDEST SWAP2 POP POP SWAP3 SWAP2 POP POP JUMP JUMPDEST PUSH2 0x90E DUP2 PUSH2 0x767 JUMP JUMPDEST DUP3 MSTORE POP POP JUMP JUMPDEST PUSH0 PUSH1 0x20 DUP3 ADD SWAP1 POP PUSH2 0x927 PUSH0 DUP4 ADD DUP5 PUSH2 0x905 JUMP JUMPDEST SWAP3 SWAP2 POP POP JUMP JUMPDEST PUSH0 PUSH1 0x40 DUP3 ADD SWAP1 POP PUSH2 0x940 PUSH0 DUP4 ADD DUP6 PUSH2 0x905 JUMP JUMPDEST PUSH2 0x94D PUSH1 0x20 DUP4 ADD DUP5 PUSH2 0x888 JUMP JUMPDEST SWAP4 SWAP3 POP POP POP JUMP JUMPDEST PUSH0 DUP2 MLOAD SWAP1 POP SWAP2 SWAP1 POP JUMP JUMPDEST PUSH0 DUP3 DUP3 MSTORE PUSH1 0x20 DUP3 ADD SWAP1 POP SWAP3 SWAP2 POP POP JUMP JUMPDEST DUP3 DUP2 DUP4 MCOPY PUSH0 DUP4 DUP4 ADD MSTORE POP POP POP JUMP JUMPDEST PUSH0 PUSH1 0x1F NOT PUSH1 0x1F DUP4 ADD AND SWAP1 POP SWAP2 SWAP1 POP JUMP JUMPDEST PUSH0 PUSH2 0x996 DUP3 PUSH2 0x954 JUMP JUMPDEST PUSH2 0x9A0 DUP2 DUP6 PUSH2 0x95E JUMP JUMPDEST SWAP4 POP PUSH2 0x9B0 DUP2 DUP6 PUSH1 0x20 DUP7 ADD PUSH2 0x96E JUMP JUMPDEST PUSH2 0x9B9 DUP2 PUSH2 0x97C JUMP JUMPDEST DUP5 ADD SWAP2 POP POP SWAP3 SWAP2 POP POP JUMP JUMPDEST PUSH0 PUSH1 0x20 DUP3 ADD SWAP1 POP DUP2 DUP2 SUB PUSH0 DUP4 ADD MSTORE PUSH2 0x9DC DUP2 DUP5 PUSH2 0x98C JUMP JUMPDEST SWAP1 POP SWAP3 SWAP2 POP POP JUMP JUMPDEST PUSH32 0x41756374696F6E2068617320656E646564000000000000000000000000000000 PUSH0 DUP3 ADD MSTORE POP JUMP JUMPDEST PUSH0 PUSH2 0xA18 PUSH1 0x11 DUP4 PUSH2 0x95E JUMP JUMPDEST SWAP2 POP PUSH2 0xA23 DUP3 PUSH2 0x9E4 JUMP JUMPDEST PUSH1 0x20 DUP3 ADD SWAP1 POP SWAP2 SWAP1 POP JUMP JUMPDEST PUSH0 PUSH1 0x20 DUP3 ADD SWAP1 POP DUP2 DUP2 SUB PUSH0 DUP4 ADD MSTORE PUSH2 0xA45 DUP2 PUSH2 0xA0C JUMP JUMPDEST SWAP1 POP SWAP2 SWAP1 POP JUMP JUMPDEST PUSH32 0x42696420616D6F756E74206D7573742062652067726561746572207468616E20 PUSH0 DUP3 ADD MSTORE PUSH32 0x7A65726F00000000000000000000000000000000000000000000000000000000 PUSH1 0x20 DUP3 ADD MSTORE POP JUMP JUMPDEST PUSH0 PUSH2 0xAA6 PUSH1 0x24 DUP4 PUSH2 0x95E JUMP JUMPDEST SWAP2 POP PUSH2 0xAB1 DUP3 PUSH2 0xA4C JUMP JUMPDEST PUSH1 0x40 DUP3 ADD SWAP1 POP SWAP2 SWAP1 POP JUMP JUMPDEST PUSH0 PUSH1 0x20 DUP3 ADD SWAP1 POP DUP2 DUP2 SUB PUSH0 DUP4 ADD MSTORE PUSH2 0xAD3 DUP2 PUSH2 0xA9A JUMP JUMPDEST SWAP1 POP SWAP2 SWAP1 POP JUMP JUMPDEST PUSH32 0x42696420616D6F756E74206D7573742062652067726561746572207468616E20 PUSH0 DUP3 ADD MSTORE PUSH32 0x70726576696F7573206269640000000000000000000000000000000000000000 PUSH1 0x20 DUP3 ADD MSTORE POP JUMP JUMPDEST PUSH0 PUSH2 0xB34 PUSH1 0x2C DUP4 PUSH2 0x95E JUMP JUMPDEST SWAP2 POP PUSH2 0xB3F DUP3 PUSH2 0xADA JUMP JUMPDEST PUSH1 0x40 DUP3 ADD SWAP1 POP SWAP2 SWAP1 POP JUMP JUMPDEST PUSH0 PUSH1 0x20 DUP3 ADD SWAP1 POP DUP2 DUP2 SUB PUSH0 DUP4 ADD MSTORE PUSH2 0xB61 DUP2 PUSH2 0xB28 JUMP JUMPDEST SWAP1 POP SWAP2 SWAP1 POP JUMP JUMPDEST PUSH32 0x41756374696F6E206861736E277420656E646564207965742E00000000000000 PUSH0 DUP3 ADD MSTORE POP JUMP JUMPDEST PUSH0 PUSH2 0xB9C PUSH1 0x19 DUP4 PUSH2 0x95E JUMP JUMPDEST SWAP2 POP PUSH2 0xBA7 DUP3 PUSH2 0xB68 JUMP JUMPDEST PUSH1 0x20 DUP3 ADD SWAP1 POP SWAP2 SWAP1 POP JUMP JUMPDEST PUSH0 PUSH1 0x20 DUP3 ADD SWAP1 POP DUP2 DUP2 SUB PUSH0 DUP4 ADD MSTORE PUSH2 0xBC9 DUP2 PUSH2 0xB90 JUMP JUMPDEST SWAP1 POP SWAP2 SWAP1 POP JUMP JUMPDEST PUSH32 0x4E487B7100000000000000000000000000000000000000000000000000000000 PUSH0 MSTORE PUSH1 0x22 PUSH1 0x4 MSTORE PUSH1 0x24 PUSH0 REVERT JUMPDEST PUSH0 PUSH1 0x2 DUP3 DIV SWAP1 POP PUSH1 0x1 DUP3 AND DUP1 PUSH2 0xC14 JUMPI PUSH1 0x7F DUP3 AND SWAP2 POP JUMPDEST PUSH1 0x20 DUP3 LT DUP2 SUB PUSH2 0xC27 JUMPI PUSH2 0xC26 PUSH2 0xBD0 JUMP JUMPDEST JUMPDEST POP SWAP2 SWAP1 POP JUMP JUMPDEST PUSH32 0x41756374696F6E20656E6420616C72656164792063616C6C6564000000000000 PUSH0 DUP3 ADD MSTORE POP JUMP JUMPDEST PUSH0 PUSH2 0xC61 PUSH1 0x1A DUP4 PUSH2 0x95E JUMP JUMPDEST SWAP2 POP PUSH2 0xC6C DUP3 PUSH2 0xC2D JUMP JUMPDEST PUSH1 0x20 DUP3 ADD SWAP1 POP SWAP2 SWAP1 POP JUMP JUMPDEST PUSH0 PUSH1 0x20 DUP3 ADD SWAP1 POP DUP2 DUP2 SUB PUSH0 DUP4 ADD MSTORE PUSH2 0xC8E DUP2 PUSH2 0xC55 JUMP JUMPDEST SWAP1 POP SWAP2 SWAP1 POP JUMP INVALID LOG2 PUSH5 0x6970667358 0x22 SLT KECCAK256 0xCB ADD 0xC0 SWAP8 CALLDATALOAD RJUMP 0x121B JUMPI CALLVALUE 0xC7 0xA6 DUP6 0xAC SUB BLOBHASH MOD CALLF 0x4EC7 SHR 0x28 ADDMOD LOG0 0xBA 0x2D 0xF7 0xD9 EXP 0xDA 0xE9 GT PUSH5 0x736F6C6343 STOP ADDMOD 0x1E STOP CALLER "
				},
				"gasEstimates": {
					"creation": {
						"codeDepositCost": "655000",
						"executionCost": "infinite",
						"totalCost": "infinite"
					},
					"external": {
						"auctionEndTime()": "2492",
						"bid(uint256)": "126290",
						"bidders(uint256)": "4988",
						"bids(address)": "2891",
						"endAuction()": "28777",
						"ended()": "2467",
						"getAllBidders()": "infinite",
						"getWinner()": "6901",
						"item()": "infinite",
						"owner()": "2507"
					}
				},
				"methodIdentifiers": {
					"auctionEndTime()": "4b449cba",
					"bid(uint256)": "454a2ab3",
					"bidders(uint256)": "cff29dfd",
					"bids(address)": "62ea82db",
					"endAuction()": "fe67a54b",
					"ended()": "12fa6feb",
					"getAllBidders()": "3a79d2e5",
					"getWinner()": "8e7ea5b2",
					"item()": "f2a4a82e",
					"owner()": "8da5cb5b"
				}
			},
			"storageLayout": {
				"storage": [
					{
						"astId": 3,
						"contract": "submissions/yuriofi/Day4.sol:AuctionHouse",
						"label": "owner",
						"offset": 0,
						"slot": "0",
						"type": "t_address"
					},
					{
						"astId": 5,
						"contract": "submissions/yuriofi/Day4.sol:AuctionHouse",
						"label": "item",
						"offset": 0,
						"slot": "1",
						"type": "t_string_storage"
					},
					{
						"astId": 7,
						"contract": "submissions/yuriofi/Day4.sol:AuctionHouse",
						"label": "auctionEndTime",
						"offset": 0,
						"slot": "2",
						"type": "t_uint256"
					},
					{
						"astId": 9,
						"contract": "submissions/yuriofi/Day4.sol:AuctionHouse",
						"label": "highestBidder",
						"offset": 0,
						"slot": "3",
						"type": "t_address"
					},
					{
						"astId": 11,
						"contract": "submissions/yuriofi/Day4.sol:AuctionHouse",
						"label": "highestBid",
						"offset": 0,
						"slot": "4",
						"type": "t_uint256"
					},
					{
						"astId": 13,
						"contract": "submissions/yuriofi/Day4.sol:AuctionHouse",
						"label": "ended",
						"offset": 0,
						"slot": "5",
						"type": "t_bool"
					},
					{
						"astId": 17,
						"contract": "submissions/yuriofi/Day4.sol:AuctionHouse",
						"label": "bids",
						"offset": 0,
						"slot": "6",
						"type": "t_mapping(t_address,t_uint256)"
					},
					{
						"astId": 20,
						"contract": "submissions/yuriofi/Day4.sol:AuctionHouse",
						"label": "bidders",
						"offset": 0,
						"slot": "7",
						"type": "t_array(t_address)dyn_storage"
					}
				],
				"types": {
					"t_address": {
						"encoding": "inplace",
						"label": "address",
						"numberOfBytes": "20"
					},
					"t_array(t_address)dyn_storage": {
						"base": "t_address",
						"encoding": "dynamic_array",
						"label": "address[]",
						"numberOfBytes": "32"
					},
					"t_bool": {
						"encoding": "inplace",
						"label": "bool",
						"numberOfBytes": "1"
					},
					"t_mapping(t_address,t_uint256)": {
						"encoding": "mapping",
						"key": "t_address",
						"label": "mapping(address => uint256)",
						"numberOfBytes": "32",
						"value": "t_uint256"
					},
					"t_string_storage": {
						"encoding": "bytes",
						"label": "string",
						"numberOfBytes": "32"
					},
					"t_uint256": {
						"encoding": "inplace",
						"label": "uint256",
						"numberOfBytes": "32"
					}
				}
			},
			"userdoc": {
				"kind": "user",
				"methods": {},
				"version": 1
			}
		}
	}
}