{
	"submissions/Serena Y/Day18-CropInsurance.sol": {
		"CropInsurance": {
			"abi": [
				{
					"inputs": [
						{
							"internalType": "address",
							"name": "_weatherOracle",
							"type": "address"
						},
						{
							"internalType": "address",
							"name": "_ethUsdPriceFeed",
							"type": "address"
						}
					],
					"stateMutability": "payable",
					"type": "constructor"
				},
				{
					"inputs": [
						{
							"internalType": "address",
							"name": "owner",
							"type": "address"
						}
					],
					"name": "OwnableInvalidOwner",
					"type": "error"
				},
				{
					"inputs": [
						{
							"internalType": "address",
							"name": "account",
							"type": "address"
						}
					],
					"name": "OwnableUnauthorizedAccount",
					"type": "error"
				},
				{
					"anonymous": false,
					"inputs": [
						{
							"indexed": true,
							"internalType": "address",
							"name": "farmer",
							"type": "address"
						},
						{
							"indexed": false,
							"internalType": "uint256",
							"name": "amount",
							"type": "uint256"
						}
					],
					"name": "ClaimPaid",
					"type": "event"
				},
				{
					"anonymous": false,
					"inputs": [
						{
							"indexed": true,
							"internalType": "address",
							"name": "farmer",
							"type": "address"
						}
					],
					"name": "ClaimSubmitted",
					"type": "event"
				},
				{
					"anonymous": false,
					"inputs": [
						{
							"indexed": true,
							"internalType": "address",
							"name": "farmer",
							"type": "address"
						},
						{
							"indexed": false,
							"internalType": "uint256",
							"name": "amount",
							"type": "uint256"
						}
					],
					"name": "InsurancePurchased",
					"type": "event"
				},
				{
					"anonymous": false,
					"inputs": [
						{
							"indexed": true,
							"internalType": "address",
							"name": "previousOwner",
							"type": "address"
						},
						{
							"indexed": true,
							"internalType": "address",
							"name": "newOwner",
							"type": "address"
						}
					],
					"name": "OwnershipTransferred",
					"type": "event"
				},
				{
					"anonymous": false,
					"inputs": [
						{
							"indexed": true,
							"internalType": "address",
							"name": "farmer",
							"type": "address"
						},
						{
							"indexed": false,
							"internalType": "uint256",
							"name": "rainfall",
							"type": "uint256"
						}
					],
					"name": "RainfallChecked",
					"type": "event"
				},
				{
					"inputs": [],
					"name": "INSURANCE_PAYOUT_USD",
					"outputs": [
						{
							"internalType": "uint256",
							"name": "",
							"type": "uint256"
						}
					],
					"stateMutability": "view",
					"type": "function"
				},
				{
					"inputs": [],
					"name": "INSURANCE_PREMIUM_USD",
					"outputs": [
						{
							"internalType": "uint256",
							"name": "",
							"type": "uint256"
						}
					],
					"stateMutability": "view",
					"type": "function"
				},
				{
					"inputs": [],
					"name": "RAINFALL_THRESHOLD",
					"outputs": [
						{
							"internalType": "uint256",
							"name": "",
							"type": "uint256"
						}
					],
					"stateMutability": "view",
					"type": "function"
				},
				{
					"inputs": [],
					"name": "checkDecimals",
					"outputs": [
						{
							"internalType": "uint8",
							"name": "",
							"type": "uint8"
						}
					],
					"stateMutability": "view",
					"type": "function"
				},
				{
					"inputs": [],
					"name": "checkRainfallAndClaim",
					"outputs": [],
					"stateMutability": "nonpayable",
					"type": "function"
				},
				{
					"inputs": [],
					"name": "getBalance",
					"outputs": [
						{
							"internalType": "uint256",
							"name": "",
							"type": "uint256"
						}
					],
					"stateMutability": "view",
					"type": "function"
				},
				{
					"inputs": [],
					"name": "getCurrentRainfall",
					"outputs": [
						{
							"internalType": "uint256",
							"name": "",
							"type": "uint256"
						}
					],
					"stateMutability": "view",
					"type": "function"
				},
				{
					"inputs": [],
					"name": "getEthPrice",
					"outputs": [
						{
							"internalType": "uint256",
							"name": "",
							"type": "uint256"
						}
					],
					"stateMutability": "view",
					"type": "function"
				},
				{
					"inputs": [
						{
							"internalType": "address",
							"name": "",
							"type": "address"
						}
					],
					"name": "hasInsurance",
					"outputs": [
						{
							"internalType": "bool",
							"name": "",
							"type": "bool"
						}
					],
					"stateMutability": "view",
					"type": "function"
				},
				{
					"inputs": [
						{
							"internalType": "address",
							"name": "",
							"type": "address"
						}
					],
					"name": "lastClaimTimestamp",
					"outputs": [
						{
							"internalType": "uint256",
							"name": "",
							"type": "uint256"
						}
					],
					"stateMutability": "view",
					"type": "function"
				},
				{
					"inputs": [],
					"name": "owner",
					"outputs": [
						{
							"internalType": "address",
							"name": "",
							"type": "address"
						}
					],
					"stateMutability": "view",
					"type": "function"
				},
				{
					"inputs": [],
					"name": "purchaseInsurance",
					"outputs": [],
					"stateMutability": "payable",
					"type": "function"
				},
				{
					"inputs": [],
					"name": "renounceOwnership",
					"outputs": [],
					"stateMutability": "nonpayable",
					"type": "function"
				},
				{
					"inputs": [
						{
							"internalType": "address",
							"name": "newOwner",
							"type": "address"
						}
					],
					"name": "transferOwnership",
					"outputs": [],
					"stateMutability": "nonpayable",
					"type": "function"
				},
				{
					"inputs": [],
					"name": "withdraw",
					"outputs": [],
					"stateMutability": "nonpayable",
					"type": "function"
				},
				{
					"stateMutability": "payable",
					"type": "receive"
				}
			],
			"devdoc": {
				"errors": {
					"OwnableInvalidOwner(address)": [
						{
							"details": "The owner is not a valid owner account. (eg. `address(0)`)"
						}
					],
					"OwnableUnauthorizedAccount(address)": [
						{
							"details": "The caller account is not authorized to perform an operation."
						}
					]
				},
				"kind": "dev",
				"methods": {
					"owner()": {
						"details": "Returns the address of the current owner."
					},
					"renounceOwnership()": {
						"details": "Leaves the contract without owner. It will not be possible to call `onlyOwner` functions. Can only be called by the current owner. NOTE: Renouncing ownership will leave the contract without an owner, thereby disabling any functionality that is only available to the owner."
					},
					"transferOwnership(address)": {
						"details": "Transfers ownership of the contract to a new account (`newOwner`). Can only be called by the current owner."
					}
				},
				"version": 1
			},
			"evm": {
				"assembly": "    /* \"submissions/Serena Y/Day18-CropInsurance.sol\":279:5038  contract CropInsurance is Ownable {... */\n  mstore(0x40, 0x80)\n    /* \"submissions/Serena Y/Day18-CropInsurance.sol\":1539:1913  constructor(address _weatherOracle, address _ethUsdPriceFeed) payable Ownable(msg.sender) {... */\n  mload(0x40)\n  sub(codesize, bytecodeSize)\n  dup1\n  bytecodeSize\n  dup4\n  codecopy\n  dup2\n  dup2\n  add\n  0x40\n  mstore\n  dup2\n  add\n  swap1\n  tag_1\n  swap2\n  swap1\n  tag_2\n  jump\t// in\ntag_1:\n    /* \"submissions/Serena Y/Day18-CropInsurance.sol\":1617:1627  msg.sender */\n  caller\n    /* \"@openzeppelin/contracts/access/Ownable.sol\":1297:1298  0 */\n  0x00\n    /* \"@openzeppelin/contracts/access/Ownable.sol\":1273:1299  initialOwner == address(0) */\n  0xffffffffffffffffffffffffffffffffffffffff\n  and\n    /* \"@openzeppelin/contracts/access/Ownable.sol\":1273:1285  initialOwner */\n  dup2\n    /* \"@openzeppelin/contracts/access/Ownable.sol\":1273:1299  initialOwner == address(0) */\n  0xffffffffffffffffffffffffffffffffffffffff\n  and\n  sub\n    /* \"@openzeppelin/contracts/access/Ownable.sol\":1269:1364  if (initialOwner == address(0)) {... */\n  tag_6\n  jumpi\n    /* \"@openzeppelin/contracts/access/Ownable.sol\":1350:1351  0 */\n  0x00\n    /* \"@openzeppelin/contracts/access/Ownable.sol\":1322:1353  OwnableInvalidOwner(address(0)) */\n  mload(0x40)\n  0x1e4fbdf700000000000000000000000000000000000000000000000000000000\n  dup2\n  mstore\n  0x04\n  add\n  tag_7\n  swap2\n  swap1\n  tag_8\n  jump\t// in\ntag_7:\n  mload(0x40)\n  dup1\n  swap2\n  sub\n  swap1\n  revert\n    /* \"@openzeppelin/contracts/access/Ownable.sol\":1269:1364  if (initialOwner == address(0)) {... */\ntag_6:\n    /* \"@openzeppelin/contracts/access/Ownable.sol\":1373:1405  _transferOwnership(initialOwner) */\n  tag_9\n    /* \"@openzeppelin/contracts/access/Ownable.sol\":1392:1404  initialOwner */\n  dup2\n    /* \"@openzeppelin/contracts/access/Ownable.sol\":1373:1391  _transferOwnership */\n  shl(0x20, tag_10)\n    /* \"@openzeppelin/contracts/access/Ownable.sol\":1373:1405  _transferOwnership(initialOwner) */\n  0x20\n  shr\n  jump\t// in\ntag_9:\n    /* \"@openzeppelin/contracts/access/Ownable.sol\":1225:1412  constructor(address initialOwner) {... */\n  pop\n    /* \"submissions/Serena Y/Day18-CropInsurance.sol\":1822:1836  _weatherOracle */\n  dup2\n    /* \"submissions/Serena Y/Day18-CropInsurance.sol\":1784:1797  weatherOracle */\n  0x01\n  0x00\n    /* \"submissions/Serena Y/Day18-CropInsurance.sol\":1784:1837  weatherOracle = AggregatorV3Interface(_weatherOracle) */\n  0x0100\n  exp\n  dup2\n  sload\n  dup2\n  0xffffffffffffffffffffffffffffffffffffffff\n  mul\n  not\n  and\n  swap1\n  dup4\n  0xffffffffffffffffffffffffffffffffffffffff\n  and\n  mul\n  or\n  swap1\n  sstore\n  pop\n    /* \"submissions/Serena Y/Day18-CropInsurance.sol\":1888:1904  _ethUsdPriceFeed */\n  dup1\n    /* \"submissions/Serena Y/Day18-CropInsurance.sol\":1848:1863  ethUsdPriceFeed */\n  0x02\n  0x00\n    /* \"submissions/Serena Y/Day18-CropInsurance.sol\":1848:1905  ethUsdPriceFeed = AggregatorV3Interface(_ethUsdPriceFeed) */\n  0x0100\n  exp\n  dup2\n  sload\n  dup2\n  0xffffffffffffffffffffffffffffffffffffffff\n  mul\n  not\n  and\n  swap1\n  dup4\n  0xffffffffffffffffffffffffffffffffffffffff\n  and\n  mul\n  or\n  swap1\n  sstore\n  pop\n    /* \"submissions/Serena Y/Day18-CropInsurance.sol\":1539:1913  constructor(address _weatherOracle, address _ethUsdPriceFeed) payable Ownable(msg.sender) {... */\n  pop\n  pop\n    /* \"submissions/Serena Y/Day18-CropInsurance.sol\":279:5038  contract CropInsurance is Ownable {... */\n  jump(tag_12)\n    /* \"@openzeppelin/contracts/access/Ownable.sol\":2912:3099  function _transferOwnership(address newOwner) internal virtual {... */\ntag_10:\n    /* \"@openzeppelin/contracts/access/Ownable.sol\":2985:3001  address oldOwner */\n  0x00\n    /* \"@openzeppelin/contracts/access/Ownable.sol\":3004:3010  _owner */\n  0x00\n  0x00\n  swap1\n  sload\n  swap1\n  0x0100\n  exp\n  swap1\n  div\n  0xffffffffffffffffffffffffffffffffffffffff\n  and\n    /* \"@openzeppelin/contracts/access/Ownable.sol\":2985:3010  address oldOwner = _owner */\n  swap1\n  pop\n    /* \"@openzeppelin/contracts/access/Ownable.sol\":3029:3037  newOwner */\n  dup2\n    /* \"@openzeppelin/contracts/access/Ownable.sol\":3020:3026  _owner */\n  0x00\n  0x00\n    /* \"@openzeppelin/contracts/access/Ownable.sol\":3020:3037  _owner = newOwner */\n  0x0100\n  exp\n  dup2\n  sload\n  dup2\n  0xffffffffffffffffffffffffffffffffffffffff\n  mul\n  not\n  and\n  swap1\n  dup4\n  0xffffffffffffffffffffffffffffffffffffffff\n  and\n  mul\n  or\n  swap1\n  sstore\n  pop\n    /* \"@openzeppelin/contracts/access/Ownable.sol\":3083:3091  newOwner */\n  dup2\n    /* \"@openzeppelin/contracts/access/Ownable.sol\":3052:3092  OwnershipTransferred(oldOwner, newOwner) */\n  0xffffffffffffffffffffffffffffffffffffffff\n  and\n    /* \"@openzeppelin/contracts/access/Ownable.sol\":3073:3081  oldOwner */\n  dup2\n    /* \"@openzeppelin/contracts/access/Ownable.sol\":3052:3092  OwnershipTransferred(oldOwner, newOwner) */\n  0xffffffffffffffffffffffffffffffffffffffff\n  and\n  0x8be0079c531659141344cd1fd0a4f28419497f9722a3daafe3b4186f6b6457e0\n  mload(0x40)\n  mload(0x40)\n  dup1\n  swap2\n  sub\n  swap1\n  log3\n    /* \"@openzeppelin/contracts/access/Ownable.sol\":2975:3099  {... */\n  pop\n    /* \"@openzeppelin/contracts/access/Ownable.sol\":2912:3099  function _transferOwnership(address newOwner) internal virtual {... */\n  pop\n  jump\t// out\n    /* \"#utility.yul\":88:205   */\ntag_15:\n    /* \"#utility.yul\":197:198   */\n  0x00\n    /* \"#utility.yul\":194:195   */\n  0x00\n    /* \"#utility.yul\":187:199   */\n  revert\n    /* \"#utility.yul\":334:460   */\ntag_17:\n    /* \"#utility.yul\":371:378   */\n  0x00\n    /* \"#utility.yul\":411:453   */\n  0xffffffffffffffffffffffffffffffffffffffff\n    /* \"#utility.yul\":404:409   */\n  dup3\n    /* \"#utility.yul\":400:454   */\n  and\n    /* \"#utility.yul\":389:454   */\n  swap1\n  pop\n    /* \"#utility.yul\":334:460   */\n  swap2\n  swap1\n  pop\n  jump\t// out\n    /* \"#utility.yul\":466:562   */\ntag_18:\n    /* \"#utility.yul\":503:510   */\n  0x00\n    /* \"#utility.yul\":532:556   */\n  tag_28\n    /* \"#utility.yul\":550:555   */\n  dup3\n    /* \"#utility.yul\":532:556   */\n  tag_17\n  jump\t// in\ntag_28:\n    /* \"#utility.yul\":521:556   */\n  swap1\n  pop\n    /* \"#utility.yul\":466:562   */\n  swap2\n  swap1\n  pop\n  jump\t// out\n    /* \"#utility.yul\":568:690   */\ntag_19:\n    /* \"#utility.yul\":641:665   */\n  tag_30\n    /* \"#utility.yul\":659:664   */\n  dup2\n    /* \"#utility.yul\":641:665   */\n  tag_18\n  jump\t// in\ntag_30:\n    /* \"#utility.yul\":634:639   */\n  dup2\n    /* \"#utility.yul\":631:666   */\n  eq\n    /* \"#utility.yul\":621:684   */\n  tag_31\n  jumpi\n    /* \"#utility.yul\":680:681   */\n  0x00\n    /* \"#utility.yul\":677:678   */\n  0x00\n    /* \"#utility.yul\":670:682   */\n  revert\n    /* \"#utility.yul\":621:684   */\ntag_31:\n    /* \"#utility.yul\":568:690   */\n  pop\n  jump\t// out\n    /* \"#utility.yul\":696:839   */\ntag_20:\n    /* \"#utility.yul\":753:758   */\n  0x00\n    /* \"#utility.yul\":784:790   */\n  dup2\n    /* \"#utility.yul\":778:791   */\n  mload\n    /* \"#utility.yul\":769:791   */\n  swap1\n  pop\n    /* \"#utility.yul\":800:833   */\n  tag_33\n    /* \"#utility.yul\":827:832   */\n  dup2\n    /* \"#utility.yul\":800:833   */\n  tag_19\n  jump\t// in\ntag_33:\n    /* \"#utility.yul\":696:839   */\n  swap3\n  swap2\n  pop\n  pop\n  jump\t// out\n    /* \"#utility.yul\":845:1352   */\ntag_2:\n    /* \"#utility.yul\":924:930   */\n  0x00\n    /* \"#utility.yul\":932:938   */\n  0x00\n    /* \"#utility.yul\":981:983   */\n  0x40\n    /* \"#utility.yul\":969:978   */\n  dup4\n    /* \"#utility.yul\":960:967   */\n  dup6\n    /* \"#utility.yul\":956:979   */\n  sub\n    /* \"#utility.yul\":952:984   */\n  slt\n    /* \"#utility.yul\":949:1068   */\n  iszero\n  tag_35\n  jumpi\n    /* \"#utility.yul\":987:1066   */\n  tag_36\n  tag_15\n  jump\t// in\ntag_36:\n    /* \"#utility.yul\":949:1068   */\ntag_35:\n    /* \"#utility.yul\":1107:1108   */\n  0x00\n    /* \"#utility.yul\":1132:1196   */\n  tag_37\n    /* \"#utility.yul\":1188:1195   */\n  dup6\n    /* \"#utility.yul\":1179:1185   */\n  dup3\n    /* \"#utility.yul\":1168:1177   */\n  dup7\n    /* \"#utility.yul\":1164:1186   */\n  add\n    /* \"#utility.yul\":1132:1196   */\n  tag_20\n  jump\t// in\ntag_37:\n    /* \"#utility.yul\":1122:1196   */\n  swap3\n  pop\n    /* \"#utility.yul\":1078:1206   */\n  pop\n    /* \"#utility.yul\":1245:1247   */\n  0x20\n    /* \"#utility.yul\":1271:1335   */\n  tag_38\n    /* \"#utility.yul\":1327:1334   */\n  dup6\n    /* \"#utility.yul\":1318:1324   */\n  dup3\n    /* \"#utility.yul\":1307:1316   */\n  dup7\n    /* \"#utility.yul\":1303:1325   */\n  add\n    /* \"#utility.yul\":1271:1335   */\n  tag_20\n  jump\t// in\ntag_38:\n    /* \"#utility.yul\":1261:1335   */\n  swap2\n  pop\n    /* \"#utility.yul\":1216:1345   */\n  pop\n    /* \"#utility.yul\":845:1352   */\n  swap3\n  pop\n  swap3\n  swap1\n  pop\n  jump\t// out\n    /* \"#utility.yul\":1358:1476   */\ntag_21:\n    /* \"#utility.yul\":1445:1469   */\n  tag_40\n    /* \"#utility.yul\":1463:1468   */\n  dup2\n    /* \"#utility.yul\":1445:1469   */\n  tag_18\n  jump\t// in\ntag_40:\n    /* \"#utility.yul\":1440:1443   */\n  dup3\n    /* \"#utility.yul\":1433:1470   */\n  mstore\n    /* \"#utility.yul\":1358:1476   */\n  pop\n  pop\n  jump\t// out\n    /* \"#utility.yul\":1482:1704   */\ntag_8:\n    /* \"#utility.yul\":1575:1579   */\n  0x00\n    /* \"#utility.yul\":1613:1615   */\n  0x20\n    /* \"#utility.yul\":1602:1611   */\n  dup3\n    /* \"#utility.yul\":1598:1616   */\n  add\n    /* \"#utility.yul\":1590:1616   */\n  swap1\n  pop\n    /* \"#utility.yul\":1626:1697   */\n  tag_42\n    /* \"#utility.yul\":1694:1695   */\n  0x00\n    /* \"#utility.yul\":1683:1692   */\n  dup4\n    /* \"#utility.yul\":1679:1696   */\n  add\n    /* \"#utility.yul\":1670:1676   */\n  dup5\n    /* \"#utility.yul\":1626:1697   */\n  tag_21\n  jump\t// in\ntag_42:\n    /* \"#utility.yul\":1482:1704   */\n  swap3\n  swap2\n  pop\n  pop\n  jump\t// out\n    /* \"submissions/Serena Y/Day18-CropInsurance.sol\":279:5038  contract CropInsurance is Ownable {... */\ntag_12:\n  dataSize(sub_0)\n  dup1\n  dataOffset(sub_0)\n  0x00\n  codecopy\n  0x00\n  return\nstop\n\nsub_0: assembly {\n        /* \"submissions/Serena Y/Day18-CropInsurance.sol\":279:5038  contract CropInsurance is Ownable {... */\n      mstore(0x40, 0x80)\n      jumpi(tag_1, lt(calldatasize, 0x04))\n      shr(0xe0, calldataload(0x00))\n      dup1\n      0x715018a6\n      gt\n      tag_18\n      jumpi\n      dup1\n      0xbd9d518b\n      gt\n      tag_19\n      jumpi\n      dup1\n      0xbd9d518b\n      eq\n      tag_14\n      jumpi\n      dup1\n      0xc5f60e82\n      eq\n      tag_15\n      jumpi\n      dup1\n      0xedb8fb44\n      eq\n      tag_16\n      jumpi\n      dup1\n      0xf2fde38b\n      eq\n      tag_17\n      jumpi\n      jump(tag_2)\n    tag_19:\n      dup1\n      0x715018a6\n      eq\n      tag_10\n      jumpi\n      dup1\n      0x7c77e15c\n      eq\n      tag_11\n      jumpi\n      dup1\n      0x8cd42316\n      eq\n      tag_12\n      jumpi\n      dup1\n      0x8da5cb5b\n      eq\n      tag_13\n      jumpi\n      jump(tag_2)\n    tag_18:\n      dup1\n      0x3ccfd60b\n      gt\n      tag_20\n      jumpi\n      dup1\n      0x3ccfd60b\n      eq\n      tag_6\n      jumpi\n      dup1\n      0x5781c552\n      eq\n      tag_7\n      jumpi\n      dup1\n      0x60550d7a\n      eq\n      tag_8\n      jumpi\n      dup1\n      0x67c9b017\n      eq\n      tag_9\n      jumpi\n      jump(tag_2)\n    tag_20:\n      dup1\n      0x0c15c365\n      eq\n      tag_3\n      jumpi\n      dup1\n      0x12065fe0\n      eq\n      tag_4\n      jumpi\n      dup1\n      0x16731b24\n      eq\n      tag_5\n      jumpi\n      jump(tag_2)\n    tag_1:\n      jumpi(tag_2, calldatasize)\n      stop\n    tag_2:\n      revert(0x00, 0x00)\n        /* \"submissions/Serena Y/Day18-CropInsurance.sol\":4468:4740  function getCurrentRainfall() public view returns (uint256) {... */\n    tag_3:\n      callvalue\n      dup1\n      iszero\n      tag_23\n      jumpi\n      revert(0x00, 0x00)\n    tag_23:\n      pop\n      tag_24\n      tag_25\n      jump\t// in\n    tag_24:\n      mload(0x40)\n      tag_26\n      swap2\n      swap1\n      tag_27\n      jump\t// in\n    tag_26:\n      mload(0x40)\n      dup1\n      swap2\n      sub\n      swap1\n      return\n        /* \"submissions/Serena Y/Day18-CropInsurance.sol\":4922:5035  function getBalance() public view returns (uint256) {//获得余额... */\n    tag_4:\n      callvalue\n      dup1\n      iszero\n      tag_28\n      jumpi\n      revert(0x00, 0x00)\n    tag_28:\n      pop\n      tag_29\n      tag_30\n      jump\t// in\n    tag_29:\n      mload(0x40)\n      tag_31\n      swap2\n      swap1\n      tag_27\n      jump\t// in\n    tag_31:\n      mload(0x40)\n      dup1\n      swap2\n      sub\n      swap1\n      return\n        /* \"submissions/Serena Y/Day18-CropInsurance.sol\":669:719  uint256 public constant INSURANCE_PREMIUM_USD = 10 */\n    tag_5:\n      callvalue\n      dup1\n      iszero\n      tag_32\n      jumpi\n      revert(0x00, 0x00)\n    tag_32:\n      pop\n      tag_33\n      tag_34\n      jump\t// in\n    tag_33:\n      mload(0x40)\n      tag_35\n      swap2\n      swap1\n      tag_27\n      jump\t// in\n    tag_35:\n      mload(0x40)\n      dup1\n      swap2\n      sub\n      swap1\n      return\n        /* \"submissions/Serena Y/Day18-CropInsurance.sol\":4748:4877  function withdraw() external onlyOwner {... */\n    tag_6:\n      callvalue\n      dup1\n      iszero\n      tag_36\n      jumpi\n      revert(0x00, 0x00)\n    tag_36:\n      pop\n      tag_37\n      tag_38\n      jump\t// in\n    tag_37:\n      stop\n        /* \"submissions/Serena Y/Day18-CropInsurance.sol\":4363:4460  function checkDecimals() public view returns (uint8) {... */\n    tag_7:\n      callvalue\n      dup1\n      iszero\n      tag_39\n      jumpi\n      revert(0x00, 0x00)\n    tag_39:\n      pop\n      tag_40\n      tag_41\n      jump\t// in\n    tag_40:\n      mload(0x40)\n      tag_42\n      swap2\n      swap1\n      tag_43\n      jump\t// in\n    tag_42:\n      mload(0x40)\n      dup1\n      swap2\n      sub\n      swap1\n      return\n        /* \"submissions/Serena Y/Day18-CropInsurance.sol\":2517:3921  function checkRainfallAndClaim() external {//一个叫做检查降雨量和claim的函数，不返回值... */\n    tag_8:\n      callvalue\n      dup1\n      iszero\n      tag_44\n      jumpi\n      revert(0x00, 0x00)\n    tag_44:\n      pop\n      tag_45\n      tag_46\n      jump\t// in\n    tag_45:\n      stop\n        /* \"submissions/Serena Y/Day18-CropInsurance.sol\":3929:4357  function getEthPrice() public view returns (uint256) {... */\n    tag_9:\n      callvalue\n      dup1\n      iszero\n      tag_47\n      jumpi\n      revert(0x00, 0x00)\n    tag_47:\n      pop\n      tag_48\n      tag_49\n      jump\t// in\n    tag_48:\n      mload(0x40)\n      tag_50\n      swap2\n      swap1\n      tag_27\n      jump\t// in\n    tag_50:\n      mload(0x40)\n      dup1\n      swap2\n      sub\n      swap1\n      return\n        /* \"@openzeppelin/contracts/access/Ownable.sol\":2293:2394  function renounceOwnership() public virtual onlyOwner {... */\n    tag_10:\n      callvalue\n      dup1\n      iszero\n      tag_51\n      jumpi\n      revert(0x00, 0x00)\n    tag_51:\n      pop\n      tag_52\n      tag_53\n      jump\t// in\n    tag_52:\n      stop\n        /* \"submissions/Serena Y/Day18-CropInsurance.sol\":755:804  uint256 public constant INSURANCE_PAYOUT_USD = 50 */\n    tag_11:\n      callvalue\n      dup1\n      iszero\n      tag_54\n      jumpi\n      revert(0x00, 0x00)\n    tag_54:\n      pop\n      tag_55\n      tag_56\n      jump\t// in\n    tag_55:\n      mload(0x40)\n      tag_57\n      swap2\n      swap1\n      tag_27\n      jump\t// in\n    tag_57:\n      mload(0x40)\n      dup1\n      swap2\n      sub\n      swap1\n      return\n        /* \"submissions/Serena Y/Day18-CropInsurance.sol\":848:892  mapping(address => bool) public hasInsurance */\n    tag_12:\n      callvalue\n      dup1\n      iszero\n      tag_58\n      jumpi\n      revert(0x00, 0x00)\n    tag_58:\n      pop\n      tag_59\n      0x04\n      dup1\n      calldatasize\n      sub\n      dup2\n      add\n      swap1\n      tag_60\n      swap2\n      swap1\n      tag_61\n      jump\t// in\n    tag_60:\n      tag_62\n      jump\t// in\n    tag_59:\n      mload(0x40)\n      tag_63\n      swap2\n      swap1\n      tag_64\n      jump\t// in\n    tag_63:\n      mload(0x40)\n      dup1\n      swap2\n      sub\n      swap1\n      return\n        /* \"@openzeppelin/contracts/access/Ownable.sol\":1638:1723  function owner() public view virtual returns (address) {... */\n    tag_13:\n      callvalue\n      dup1\n      iszero\n      tag_65\n      jumpi\n      revert(0x00, 0x00)\n    tag_65:\n      pop\n      tag_66\n      tag_67\n      jump\t// in\n    tag_66:\n      mload(0x40)\n      tag_68\n      swap2\n      swap1\n      tag_69\n      jump\t// in\n    tag_68:\n      mload(0x40)\n      dup1\n      swap2\n      sub\n      swap1\n      return\n        /* \"submissions/Serena Y/Day18-CropInsurance.sol\":946:999  mapping(address => uint256) public lastClaimTimestamp */\n    tag_14:\n      callvalue\n      dup1\n      iszero\n      tag_70\n      jumpi\n      revert(0x00, 0x00)\n    tag_70:\n      pop\n      tag_71\n      0x04\n      dup1\n      calldatasize\n      sub\n      dup2\n      add\n      swap1\n      tag_72\n      swap2\n      swap1\n      tag_61\n      jump\t// in\n    tag_72:\n      tag_73\n      jump\t// in\n    tag_71:\n      mload(0x40)\n      tag_74\n      swap2\n      swap1\n      tag_27\n      jump\t// in\n    tag_74:\n      mload(0x40)\n      dup1\n      swap2\n      sub\n      swap1\n      return\n        /* \"submissions/Serena Y/Day18-CropInsurance.sol\":582:630  uint256 public constant RAINFALL_THRESHOLD = 500 */\n    tag_15:\n      callvalue\n      dup1\n      iszero\n      tag_75\n      jumpi\n      revert(0x00, 0x00)\n    tag_75:\n      pop\n      tag_76\n      tag_77\n      jump\t// in\n    tag_76:\n      mload(0x40)\n      tag_78\n      swap2\n      swap1\n      tag_27\n      jump\t// in\n    tag_78:\n      mload(0x40)\n      dup1\n      swap2\n      sub\n      swap1\n      return\n        /* \"submissions/Serena Y/Day18-CropInsurance.sol\":1921:2509  function purchaseInsurance() external payable {... */\n    tag_16:\n      tag_79\n      tag_80\n      jump\t// in\n    tag_79:\n      stop\n        /* \"@openzeppelin/contracts/access/Ownable.sol\":2543:2758  function transferOwnership(address newOwner) public virtual onlyOwner {... */\n    tag_17:\n      callvalue\n      dup1\n      iszero\n      tag_81\n      jumpi\n      revert(0x00, 0x00)\n    tag_81:\n      pop\n      tag_82\n      0x04\n      dup1\n      calldatasize\n      sub\n      dup2\n      add\n      swap1\n      tag_83\n      swap2\n      swap1\n      tag_61\n      jump\t// in\n    tag_83:\n      tag_84\n      jump\t// in\n    tag_82:\n      stop\n        /* \"submissions/Serena Y/Day18-CropInsurance.sol\":4468:4740  function getCurrentRainfall() public view returns (uint256) {... */\n    tag_25:\n        /* \"submissions/Serena Y/Day18-CropInsurance.sol\":4519:4526  uint256 */\n      0x00\n        /* \"submissions/Serena Y/Day18-CropInsurance.sol\":4568:4583  int256 rainfall */\n      0x00\n        /* \"submissions/Serena Y/Day18-CropInsurance.sol\":4628:4641  weatherOracle */\n      0x01\n      0x00\n      swap1\n      sload\n      swap1\n      0x0100\n      exp\n      swap1\n      div\n      0xffffffffffffffffffffffffffffffffffffffff\n      and\n        /* \"submissions/Serena Y/Day18-CropInsurance.sol\":4628:4657  weatherOracle.latestRoundData */\n      0xffffffffffffffffffffffffffffffffffffffff\n      and\n      0xfeaf968c\n        /* \"submissions/Serena Y/Day18-CropInsurance.sol\":4628:4659  weatherOracle.latestRoundData() */\n      mload(0x40)\n      dup2\n      0xffffffff\n      and\n      0xe0\n      shl\n      dup2\n      mstore\n      0x04\n      add\n      0xa0\n      mload(0x40)\n      dup1\n      dup4\n      sub\n      dup2\n      dup7\n      gas\n      staticcall\n      iszero\n      dup1\n      iszero\n      tag_87\n      jumpi\n      returndatacopy(0x00, 0x00, returndatasize)\n      revert(0x00, returndatasize)\n    tag_87:\n      pop\n      pop\n      pop\n      pop\n      mload(0x40)\n      returndatasize\n      not(0x1f)\n      0x1f\n      dup3\n      add\n      and\n      dup3\n      add\n      dup1\n      0x40\n      mstore\n      pop\n      dup2\n      add\n      swap1\n      tag_88\n      swap2\n      swap1\n      tag_89\n      jump\t// in\n    tag_88:\n        /* \"submissions/Serena Y/Day18-CropInsurance.sol\":4538:4659  (... */\n      pop\n      pop\n      pop\n      swap2\n      pop\n      pop\n        /* \"submissions/Serena Y/Day18-CropInsurance.sol\":4723:4731  rainfall */\n      dup1\n        /* \"submissions/Serena Y/Day18-CropInsurance.sol\":4708:4732  return uint256(rainfall) */\n      swap2\n      pop\n      pop\n        /* \"submissions/Serena Y/Day18-CropInsurance.sol\":4468:4740  function getCurrentRainfall() public view returns (uint256) {... */\n      swap1\n      jump\t// out\n        /* \"submissions/Serena Y/Day18-CropInsurance.sol\":4922:5035  function getBalance() public view returns (uint256) {//获得余额... */\n    tag_30:\n        /* \"submissions/Serena Y/Day18-CropInsurance.sol\":4965:4972  uint256 */\n      0x00\n        /* \"submissions/Serena Y/Day18-CropInsurance.sol\":5006:5027  address(this).balance */\n      selfbalance\n        /* \"submissions/Serena Y/Day18-CropInsurance.sol\":4999:5027  return address(this).balance */\n      swap1\n      pop\n        /* \"submissions/Serena Y/Day18-CropInsurance.sol\":4922:5035  function getBalance() public view returns (uint256) {//获得余额... */\n      swap1\n      jump\t// out\n        /* \"submissions/Serena Y/Day18-CropInsurance.sol\":669:719  uint256 public constant INSURANCE_PREMIUM_USD = 10 */\n    tag_34:\n        /* \"submissions/Serena Y/Day18-CropInsurance.sol\":717:719  10 */\n      0x0a\n        /* \"submissions/Serena Y/Day18-CropInsurance.sol\":669:719  uint256 public constant INSURANCE_PREMIUM_USD = 10 */\n      dup2\n      jump\t// out\n        /* \"submissions/Serena Y/Day18-CropInsurance.sol\":4748:4877  function withdraw() external onlyOwner {... */\n    tag_38:\n        /* \"@openzeppelin/contracts/access/Ownable.sol\":1531:1544  _checkOwner() */\n      tag_92\n        /* \"@openzeppelin/contracts/access/Ownable.sol\":1531:1542  _checkOwner */\n      tag_93\n        /* \"@openzeppelin/contracts/access/Ownable.sol\":1531:1544  _checkOwner() */\n      jump\t// in\n    tag_92:\n        /* \"submissions/Serena Y/Day18-CropInsurance.sol\":4806:4813  owner() */\n      tag_95\n        /* \"submissions/Serena Y/Day18-CropInsurance.sol\":4806:4811  owner */\n      tag_67\n        /* \"submissions/Serena Y/Day18-CropInsurance.sol\":4806:4813  owner() */\n      jump\t// in\n    tag_95:\n        /* \"submissions/Serena Y/Day18-CropInsurance.sol\":4798:4823  payable(owner()).transfer */\n      0xffffffffffffffffffffffffffffffffffffffff\n      and\n        /* \"submissions/Serena Y/Day18-CropInsurance.sol\":4798:4846  payable(owner()).transfer(address(this).balance) */\n      0x08fc\n        /* \"submissions/Serena Y/Day18-CropInsurance.sol\":4824:4845  address(this).balance */\n      selfbalance\n        /* \"submissions/Serena Y/Day18-CropInsurance.sol\":4798:4846  payable(owner()).transfer(address(this).balance) */\n      swap1\n      dup2\n      iszero\n      mul\n      swap1\n      mload(0x40)\n      0x00\n      mload(0x40)\n      dup1\n      dup4\n      sub\n      dup2\n      dup6\n      dup9\n      dup9\n      call\n      swap4\n      pop\n      pop\n      pop\n      pop\n      iszero\n      dup1\n      iszero\n      tag_97\n      jumpi\n      returndatacopy(0x00, 0x00, returndatasize)\n      revert(0x00, returndatasize)\n    tag_97:\n      pop\n        /* \"submissions/Serena Y/Day18-CropInsurance.sol\":4748:4877  function withdraw() external onlyOwner {... */\n      jump\t// out\n        /* \"submissions/Serena Y/Day18-CropInsurance.sol\":4363:4460  function checkDecimals() public view returns (uint8) {... */\n    tag_41:\n        /* \"submissions/Serena Y/Day18-CropInsurance.sol\":4409:4414  uint8 */\n      0x00\n        /* \"submissions/Serena Y/Day18-CropInsurance.sol\":4430:4445  ethUsdPriceFeed */\n      0x02\n      0x00\n      swap1\n      sload\n      swap1\n      0x0100\n      exp\n      swap1\n      div\n      0xffffffffffffffffffffffffffffffffffffffff\n      and\n        /* \"submissions/Serena Y/Day18-CropInsurance.sol\":4430:4454  ethUsdPriceFeed.decimals */\n      0xffffffffffffffffffffffffffffffffffffffff\n      and\n      0x313ce567\n        /* \"submissions/Serena Y/Day18-CropInsurance.sol\":4430:4456  ethUsdPriceFeed.decimals() */\n      mload(0x40)\n      dup2\n      0xffffffff\n      and\n      0xe0\n      shl\n      dup2\n      mstore\n      0x04\n      add\n      0x20\n      mload(0x40)\n      dup1\n      dup4\n      sub\n      dup2\n      dup7\n      gas\n      staticcall\n      iszero\n      dup1\n      iszero\n      tag_100\n      jumpi\n      returndatacopy(0x00, 0x00, returndatasize)\n      revert(0x00, returndatasize)\n    tag_100:\n      pop\n      pop\n      pop\n      pop\n      mload(0x40)\n      returndatasize\n      not(0x1f)\n      0x1f\n      dup3\n      add\n      and\n      dup3\n      add\n      dup1\n      0x40\n      mstore\n      pop\n      dup2\n      add\n      swap1\n      tag_101\n      swap2\n      swap1\n      tag_102\n      jump\t// in\n    tag_101:\n        /* \"submissions/Serena Y/Day18-CropInsurance.sol\":4423:4456  return ethUsdPriceFeed.decimals() */\n      swap1\n      pop\n        /* \"submissions/Serena Y/Day18-CropInsurance.sol\":4363:4460  function checkDecimals() public view returns (uint8) {... */\n      swap1\n      jump\t// out\n        /* \"submissions/Serena Y/Day18-CropInsurance.sol\":2517:3921  function checkRainfallAndClaim() external {//一个叫做检查降雨量和claim的函数，不返回值... */\n    tag_46:\n        /* \"submissions/Serena Y/Day18-CropInsurance.sol\":2639:2651  hasInsurance */\n      0x03\n        /* \"submissions/Serena Y/Day18-CropInsurance.sol\":2639:2663  hasInsurance[msg.sender] */\n      0x00\n        /* \"submissions/Serena Y/Day18-CropInsurance.sol\":2652:2662  msg.sender */\n      caller\n        /* \"submissions/Serena Y/Day18-CropInsurance.sol\":2639:2663  hasInsurance[msg.sender] */\n      0xffffffffffffffffffffffffffffffffffffffff\n      and\n      0xffffffffffffffffffffffffffffffffffffffff\n      and\n      dup2\n      mstore\n      0x20\n      add\n      swap1\n      dup2\n      mstore\n      0x20\n      add\n      0x00\n      keccak256\n      0x00\n      swap1\n      sload\n      swap1\n      0x0100\n      exp\n      swap1\n      div\n      0xff\n      and\n        /* \"submissions/Serena Y/Day18-CropInsurance.sol\":2631:2687  require(hasInsurance[msg.sender], \"No active insurance\") */\n      tag_104\n      jumpi\n      mload(0x40)\n      0x08c379a000000000000000000000000000000000000000000000000000000000\n      dup2\n      mstore\n      0x04\n      add\n      tag_105\n      swap1\n      tag_106\n      jump\t// in\n    tag_105:\n      mload(0x40)\n      dup1\n      swap2\n      sub\n      swap1\n      revert\n    tag_104:\n        /* \"submissions/Serena Y/Day18-CropInsurance.sol\":2807:2813  1 days */\n      0x015180\n        /* \"submissions/Serena Y/Day18-CropInsurance.sol\":2774:2792  lastClaimTimestamp */\n      0x04\n        /* \"submissions/Serena Y/Day18-CropInsurance.sol\":2774:2804  lastClaimTimestamp[msg.sender] */\n      0x00\n        /* \"submissions/Serena Y/Day18-CropInsurance.sol\":2793:2803  msg.sender */\n      caller\n        /* \"submissions/Serena Y/Day18-CropInsurance.sol\":2774:2804  lastClaimTimestamp[msg.sender] */\n      0xffffffffffffffffffffffffffffffffffffffff\n      and\n      0xffffffffffffffffffffffffffffffffffffffff\n      and\n      dup2\n      mstore\n      0x20\n      add\n      swap1\n      dup2\n      mstore\n      0x20\n      add\n      0x00\n      keccak256\n      sload\n        /* \"submissions/Serena Y/Day18-CropInsurance.sol\":2774:2813  lastClaimTimestamp[msg.sender] + 1 days */\n      tag_107\n      swap2\n      swap1\n      tag_108\n      jump\t// in\n    tag_107:\n        /* \"submissions/Serena Y/Day18-CropInsurance.sol\":2755:2770  block.timestamp */\n      timestamp\n        /* \"submissions/Serena Y/Day18-CropInsurance.sol\":2755:2813  block.timestamp >= lastClaimTimestamp[msg.sender] + 1 days */\n      lt\n      iszero\n        /* \"submissions/Serena Y/Day18-CropInsurance.sol\":2747:2846  require(block.timestamp >= lastClaimTimestamp[msg.sender] + 1 days, \"Must wait 24h between claims\") */\n      tag_109\n      jumpi\n      mload(0x40)\n      0x08c379a000000000000000000000000000000000000000000000000000000000\n      dup2\n      mstore\n      0x04\n      add\n      tag_110\n      swap1\n      tag_111\n      jump\t// in\n    tag_110:\n      mload(0x40)\n      dup1\n      swap2\n      sub\n      swap1\n      revert\n    tag_109:\n        /* \"submissions/Serena Y/Day18-CropInsurance.sol\":2902:2916  uint80 roundId */\n      0x00\n        /* \"submissions/Serena Y/Day18-CropInsurance.sol\":2931:2946  int256 rainfall */\n      0x00\n        /* \"submissions/Serena Y/Day18-CropInsurance.sol\":2976:2993  uint256 updatedAt */\n      0x00\n        /* \"submissions/Serena Y/Day18-CropInsurance.sol\":3008:3030  uint80 answeredInRound */\n      0x00\n        /* \"submissions/Serena Y/Day18-CropInsurance.sol\":3044:3057  weatherOracle */\n      0x01\n      0x00\n      swap1\n      sload\n      swap1\n      0x0100\n      exp\n      swap1\n      div\n      0xffffffffffffffffffffffffffffffffffffffff\n      and\n        /* \"submissions/Serena Y/Day18-CropInsurance.sol\":3044:3073  weatherOracle.latestRoundData */\n      0xffffffffffffffffffffffffffffffffffffffff\n      and\n      0xfeaf968c\n        /* \"submissions/Serena Y/Day18-CropInsurance.sol\":3044:3075  weatherOracle.latestRoundData() */\n      mload(0x40)\n      dup2\n      0xffffffff\n      and\n      0xe0\n      shl\n      dup2\n      mstore\n      0x04\n      add\n      0xa0\n      mload(0x40)\n      dup1\n      dup4\n      sub\n      dup2\n      dup7\n      gas\n      staticcall\n      iszero\n      dup1\n      iszero\n      tag_113\n      jumpi\n      returndatacopy(0x00, 0x00, returndatasize)\n      revert(0x00, returndatasize)\n    tag_113:\n      pop\n      pop\n      pop\n      pop\n      mload(0x40)\n      returndatasize\n      not(0x1f)\n      0x1f\n      dup3\n      add\n      and\n      dup3\n      add\n      dup1\n      0x40\n      mstore\n      pop\n      dup2\n      add\n      swap1\n      tag_114\n      swap2\n      swap1\n      tag_89\n      jump\t// in\n    tag_114:\n        /* \"submissions/Serena Y/Day18-CropInsurance.sol\":2887:3075  (... */\n      swap5\n      pop\n      swap5\n      pop\n      pop\n      swap4\n      pop\n      swap4\n      pop\n        /* \"submissions/Serena Y/Day18-CropInsurance.sol\":3135:3136  0 */\n      0x00\n        /* \"submissions/Serena Y/Day18-CropInsurance.sol\":3123:3132  updatedAt */\n      dup3\n        /* \"submissions/Serena Y/Day18-CropInsurance.sol\":3123:3136  updatedAt > 0 */\n      gt\n        /* \"submissions/Serena Y/Day18-CropInsurance.sol\":3115:3159  require(updatedAt > 0, \"Round not complete\") */\n      tag_115\n      jumpi\n      mload(0x40)\n      0x08c379a000000000000000000000000000000000000000000000000000000000\n      dup2\n      mstore\n      0x04\n      add\n      tag_116\n      swap1\n      tag_117\n      jump\t// in\n    tag_116:\n      mload(0x40)\n      dup1\n      swap2\n      sub\n      swap1\n      revert\n    tag_115:\n        /* \"submissions/Serena Y/Day18-CropInsurance.sol\":3197:3204  roundId */\n      dup4\n        /* \"submissions/Serena Y/Day18-CropInsurance.sol\":3178:3204  answeredInRound >= roundId */\n      0xffffffffffffffffffff\n      and\n        /* \"submissions/Serena Y/Day18-CropInsurance.sol\":3178:3193  answeredInRound */\n      dup2\n        /* \"submissions/Serena Y/Day18-CropInsurance.sol\":3178:3204  answeredInRound >= roundId */\n      0xffffffffffffffffffff\n      and\n      lt\n      iszero\n        /* \"submissions/Serena Y/Day18-CropInsurance.sol\":3170:3219  require(answeredInRound >= roundId, \"Stale data\") */\n      tag_118\n      jumpi\n      mload(0x40)\n      0x08c379a000000000000000000000000000000000000000000000000000000000\n      dup2\n      mstore\n      0x04\n      add\n      tag_119\n      swap1\n      tag_120\n      jump\t// in\n    tag_119:\n      mload(0x40)\n      dup1\n      swap2\n      sub\n      swap1\n      revert\n    tag_118:\n        /* \"submissions/Serena Y/Day18-CropInsurance.sol\":3232:3255  uint256 currentRainfall */\n      0x00\n        /* \"submissions/Serena Y/Day18-CropInsurance.sol\":3266:3274  rainfall */\n      dup4\n        /* \"submissions/Serena Y/Day18-CropInsurance.sol\":3232:3275  uint256 currentRainfall = uint256(rainfall) */\n      swap1\n      pop\n        /* \"submissions/Serena Y/Day18-CropInsurance.sol\":3307:3317  msg.sender */\n      caller\n        /* \"submissions/Serena Y/Day18-CropInsurance.sol\":3291:3335  RainfallChecked(msg.sender, currentRainfall) */\n      0xffffffffffffffffffffffffffffffffffffffff\n      and\n      0xb7ca7d3cb9a65735003fab623dde34f69b35faa87df2abb0027e416636da03f0\n        /* \"submissions/Serena Y/Day18-CropInsurance.sol\":3319:3334  currentRainfall */\n      dup3\n        /* \"submissions/Serena Y/Day18-CropInsurance.sol\":3291:3335  RainfallChecked(msg.sender, currentRainfall) */\n      mload(0x40)\n      tag_121\n      swap2\n      swap1\n      tag_27\n      jump\t// in\n    tag_121:\n      mload(0x40)\n      dup1\n      swap2\n      sub\n      swap1\n      log2\n        /* \"submissions/Serena Y/Day18-CropInsurance.sol\":627:630  500 */\n      0x01f4\n        /* \"submissions/Serena Y/Day18-CropInsurance.sol\":3352:3367  currentRainfall */\n      dup2\n        /* \"submissions/Serena Y/Day18-CropInsurance.sol\":3352:3388  currentRainfall < RAINFALL_THRESHOLD */\n      lt\n        /* \"submissions/Serena Y/Day18-CropInsurance.sol\":3348:3914  if (currentRainfall < RAINFALL_THRESHOLD) {//如果当前降雨量小于500... */\n      iszero\n      tag_122\n      jumpi\n        /* \"submissions/Serena Y/Day18-CropInsurance.sol\":3470:3485  block.timestamp */\n      timestamp\n        /* \"submissions/Serena Y/Day18-CropInsurance.sol\":3437:3455  lastClaimTimestamp */\n      0x04\n        /* \"submissions/Serena Y/Day18-CropInsurance.sol\":3437:3467  lastClaimTimestamp[msg.sender] */\n      0x00\n        /* \"submissions/Serena Y/Day18-CropInsurance.sol\":3456:3466  msg.sender */\n      caller\n        /* \"submissions/Serena Y/Day18-CropInsurance.sol\":3437:3467  lastClaimTimestamp[msg.sender] */\n      0xffffffffffffffffffffffffffffffffffffffff\n      and\n      0xffffffffffffffffffffffffffffffffffffffff\n      and\n      dup2\n      mstore\n      0x20\n      add\n      swap1\n      dup2\n      mstore\n      0x20\n      add\n      0x00\n      keccak256\n        /* \"submissions/Serena Y/Day18-CropInsurance.sol\":3437:3485  lastClaimTimestamp[msg.sender] = block.timestamp */\n      dup2\n      swap1\n      sstore\n      pop\n        /* \"submissions/Serena Y/Day18-CropInsurance.sol\":3520:3530  msg.sender */\n      caller\n        /* \"submissions/Serena Y/Day18-CropInsurance.sol\":3505:3531  ClaimSubmitted(msg.sender) */\n      0xffffffffffffffffffffffffffffffffffffffff\n      and\n      0x2ab6bfd31d4179c9c028fbfabc158037d35b199e61cc811862f484a9ed0706a1\n      mload(0x40)\n      mload(0x40)\n      dup1\n      swap2\n      sub\n      swap1\n      log2\n        /* \"submissions/Serena Y/Day18-CropInsurance.sol\":3548:3564  uint256 ethPrice */\n      0x00\n        /* \"submissions/Serena Y/Day18-CropInsurance.sol\":3567:3580  getEthPrice() */\n      tag_123\n        /* \"submissions/Serena Y/Day18-CropInsurance.sol\":3567:3578  getEthPrice */\n      tag_49\n        /* \"submissions/Serena Y/Day18-CropInsurance.sol\":3567:3580  getEthPrice() */\n      jump\t// in\n    tag_123:\n        /* \"submissions/Serena Y/Day18-CropInsurance.sol\":3548:3580  uint256 ethPrice = getEthPrice() */\n      swap1\n      pop\n        /* \"submissions/Serena Y/Day18-CropInsurance.sol\":3595:3614  uint256 payoutInEth */\n      0x00\n        /* \"submissions/Serena Y/Day18-CropInsurance.sol\":3649:3657  ethPrice */\n      dup2\n        /* \"submissions/Serena Y/Day18-CropInsurance.sol\":3641:3645  1e18 */\n      0x0de0b6b3a7640000\n        /* \"submissions/Serena Y/Day18-CropInsurance.sol\":802:804  50 */\n      0x32\n        /* \"submissions/Serena Y/Day18-CropInsurance.sol\":3618:3645  INSURANCE_PAYOUT_USD * 1e18 */\n      tag_124\n      swap2\n      swap1\n      tag_125\n      jump\t// in\n    tag_124:\n        /* \"submissions/Serena Y/Day18-CropInsurance.sol\":3617:3657  (INSURANCE_PAYOUT_USD * 1e18) / ethPrice */\n      tag_126\n      swap2\n      swap1\n      tag_127\n      jump\t// in\n    tag_126:\n        /* \"submissions/Serena Y/Day18-CropInsurance.sol\":3595:3657  uint256 payoutInEth = (INSURANCE_PAYOUT_USD * 1e18) / ethPrice */\n      swap1\n      pop\n        /* \"submissions/Serena Y/Day18-CropInsurance.sol\":3703:3715  bool success */\n      0x00\n        /* \"submissions/Serena Y/Day18-CropInsurance.sol\":3721:3731  msg.sender */\n      caller\n        /* \"submissions/Serena Y/Day18-CropInsurance.sol\":3721:3736  msg.sender.call */\n      0xffffffffffffffffffffffffffffffffffffffff\n      and\n        /* \"submissions/Serena Y/Day18-CropInsurance.sol\":3744:3755  payoutInEth */\n      dup3\n        /* \"submissions/Serena Y/Day18-CropInsurance.sol\":3721:3760  msg.sender.call{value: payoutInEth}(\"\") */\n      mload(0x40)\n      tag_128\n      swap1\n      tag_129\n      jump\t// in\n    tag_128:\n      0x00\n      mload(0x40)\n      dup1\n      dup4\n      sub\n      dup2\n      dup6\n      dup8\n      gas\n      call\n      swap3\n      pop\n      pop\n      pop\n      returndatasize\n      dup1\n      0x00\n      dup2\n      eq\n      tag_132\n      jumpi\n      mload(0x40)\n      swap2\n      pop\n      and(add(returndatasize, 0x3f), not(0x1f))\n      dup3\n      add\n      0x40\n      mstore\n      returndatasize\n      dup3\n      mstore\n      returndatasize\n      0x00\n      0x20\n      dup5\n      add\n      returndatacopy\n      jump(tag_131)\n    tag_132:\n      0x60\n      swap2\n      pop\n    tag_131:\n      pop\n        /* \"submissions/Serena Y/Day18-CropInsurance.sol\":3702:3760  (bool success, ) = msg.sender.call{value: payoutInEth}(\"\") */\n      pop\n      swap1\n      pop\n        /* \"submissions/Serena Y/Day18-CropInsurance.sol\":3805:3812  success */\n      dup1\n        /* \"submissions/Serena Y/Day18-CropInsurance.sol\":3797:3832  require(success, \"Transfer failed\") */\n      tag_133\n      jumpi\n      mload(0x40)\n      0x08c379a000000000000000000000000000000000000000000000000000000000\n      dup2\n      mstore\n      0x04\n      add\n      tag_134\n      swap1\n      tag_135\n      jump\t// in\n    tag_134:\n      mload(0x40)\n      dup1\n      swap2\n      sub\n      swap1\n      revert\n    tag_133:\n        /* \"submissions/Serena Y/Day18-CropInsurance.sol\":3864:3874  msg.sender */\n      caller\n        /* \"submissions/Serena Y/Day18-CropInsurance.sol\":3854:3888  ClaimPaid(msg.sender, payoutInEth) */\n      0xffffffffffffffffffffffffffffffffffffffff\n      and\n      0xf42cf8c29487b42c009006cba2a2a0ca0388229f3183e6e957e0a0b163585cb4\n        /* \"submissions/Serena Y/Day18-CropInsurance.sol\":3876:3887  payoutInEth */\n      dup4\n        /* \"submissions/Serena Y/Day18-CropInsurance.sol\":3854:3888  ClaimPaid(msg.sender, payoutInEth) */\n      mload(0x40)\n      tag_136\n      swap2\n      swap1\n      tag_27\n      jump\t// in\n    tag_136:\n      mload(0x40)\n      dup1\n      swap2\n      sub\n      swap1\n      log2\n        /* \"submissions/Serena Y/Day18-CropInsurance.sol\":3390:3914  {//如果当前降雨量小于500... */\n      pop\n      pop\n      pop\n        /* \"submissions/Serena Y/Day18-CropInsurance.sol\":3348:3914  if (currentRainfall < RAINFALL_THRESHOLD) {//如果当前降雨量小于500... */\n    tag_122:\n        /* \"submissions/Serena Y/Day18-CropInsurance.sol\":2559:3921  {//一个叫做检查降雨量和claim的函数，不返回值... */\n      pop\n      pop\n      pop\n      pop\n      pop\n        /* \"submissions/Serena Y/Day18-CropInsurance.sol\":2517:3921  function checkRainfallAndClaim() external {//一个叫做检查降雨量和claim的函数，不返回值... */\n      jump\t// out\n        /* \"submissions/Serena Y/Day18-CropInsurance.sol\":3929:4357  function getEthPrice() public view returns (uint256) {... */\n    tag_49:\n        /* \"submissions/Serena Y/Day18-CropInsurance.sol\":3973:3980  uint256 */\n      0x00\n        /* \"submissions/Serena Y/Day18-CropInsurance.sol\":4100:4112  int256 price */\n      0x00\n        /* \"submissions/Serena Y/Day18-CropInsurance.sol\":4157:4172  ethUsdPriceFeed */\n      0x02\n      0x00\n      swap1\n      sload\n      swap1\n      0x0100\n      exp\n      swap1\n      div\n      0xffffffffffffffffffffffffffffffffffffffff\n      and\n        /* \"submissions/Serena Y/Day18-CropInsurance.sol\":4157:4188  ethUsdPriceFeed.latestRoundData */\n      0xffffffffffffffffffffffffffffffffffffffff\n      and\n      0xfeaf968c\n        /* \"submissions/Serena Y/Day18-CropInsurance.sol\":4157:4190  ethUsdPriceFeed.latestRoundData() */\n      mload(0x40)\n      dup2\n      0xffffffff\n      and\n      0xe0\n      shl\n      dup2\n      mstore\n      0x04\n      add\n      0xa0\n      mload(0x40)\n      dup1\n      dup4\n      sub\n      dup2\n      dup7\n      gas\n      staticcall\n      iszero\n      dup1\n      iszero\n      tag_139\n      jumpi\n      returndatacopy(0x00, 0x00, returndatasize)\n      revert(0x00, returndatasize)\n    tag_139:\n      pop\n      pop\n      pop\n      pop\n      mload(0x40)\n      returndatasize\n      not(0x1f)\n      0x1f\n      dup3\n      add\n      and\n      dup3\n      add\n      dup1\n      0x40\n      mstore\n      pop\n      dup2\n      add\n      swap1\n      tag_140\n      swap2\n      swap1\n      tag_89\n      jump\t// in\n    tag_140:\n        /* \"submissions/Serena Y/Day18-CropInsurance.sol\":4070:4190  (... */\n      pop\n      pop\n      pop\n      swap2\n      pop\n      pop\n        /* \"submissions/Serena Y/Day18-CropInsurance.sol\":4272:4273  0 */\n      0x00\n        /* \"submissions/Serena Y/Day18-CropInsurance.sol\":4264:4269  price */\n      dup2\n        /* \"submissions/Serena Y/Day18-CropInsurance.sol\":4264:4273  price > 0 */\n      sgt\n        /* \"submissions/Serena Y/Day18-CropInsurance.sol\":4256:4310  require(price > 0, \"Price feed returned invalid data\") */\n      tag_141\n      jumpi\n      mload(0x40)\n      0x08c379a000000000000000000000000000000000000000000000000000000000\n      dup2\n      mstore\n      0x04\n      add\n      tag_142\n      swap1\n      tag_143\n      jump\t// in\n    tag_142:\n      mload(0x40)\n      dup1\n      swap2\n      sub\n      swap1\n      revert\n    tag_141:\n        /* \"submissions/Serena Y/Day18-CropInsurance.sol\":4345:4349  1e10 */\n      0x02540be400\n        /* \"submissions/Serena Y/Day18-CropInsurance.sol\":4336:4341  price */\n      dup2\n        /* \"submissions/Serena Y/Day18-CropInsurance.sol\":4328:4349  uint256(price) * 1e10 */\n      tag_144\n      swap2\n      swap1\n      tag_125\n      jump\t// in\n    tag_144:\n        /* \"submissions/Serena Y/Day18-CropInsurance.sol\":4321:4349  return uint256(price) * 1e10 */\n      swap2\n      pop\n      pop\n        /* \"submissions/Serena Y/Day18-CropInsurance.sol\":3929:4357  function getEthPrice() public view returns (uint256) {... */\n      swap1\n      jump\t// out\n        /* \"@openzeppelin/contracts/access/Ownable.sol\":2293:2394  function renounceOwnership() public virtual onlyOwner {... */\n    tag_53:\n        /* \"@openzeppelin/contracts/access/Ownable.sol\":1531:1544  _checkOwner() */\n      tag_146\n        /* \"@openzeppelin/contracts/access/Ownable.sol\":1531:1542  _checkOwner */\n      tag_93\n        /* \"@openzeppelin/contracts/access/Ownable.sol\":1531:1544  _checkOwner() */\n      jump\t// in\n    tag_146:\n        /* \"@openzeppelin/contracts/access/Ownable.sol\":2357:2387  _transferOwnership(address(0)) */\n      tag_148\n        /* \"@openzeppelin/contracts/access/Ownable.sol\":2384:2385  0 */\n      0x00\n        /* \"@openzeppelin/contracts/access/Ownable.sol\":2357:2375  _transferOwnership */\n      tag_149\n        /* \"@openzeppelin/contracts/access/Ownable.sol\":2357:2387  _transferOwnership(address(0)) */\n      jump\t// in\n    tag_148:\n        /* \"@openzeppelin/contracts/access/Ownable.sol\":2293:2394  function renounceOwnership() public virtual onlyOwner {... */\n      jump\t// out\n        /* \"submissions/Serena Y/Day18-CropInsurance.sol\":755:804  uint256 public constant INSURANCE_PAYOUT_USD = 50 */\n    tag_56:\n        /* \"submissions/Serena Y/Day18-CropInsurance.sol\":802:804  50 */\n      0x32\n        /* \"submissions/Serena Y/Day18-CropInsurance.sol\":755:804  uint256 public constant INSURANCE_PAYOUT_USD = 50 */\n      dup2\n      jump\t// out\n        /* \"submissions/Serena Y/Day18-CropInsurance.sol\":848:892  mapping(address => bool) public hasInsurance */\n    tag_62:\n      mstore(0x20, 0x03)\n      dup1\n      0x00\n      mstore\n      keccak256(0x00, 0x40)\n      0x00\n      swap2\n      pop\n      sload\n      swap1\n      0x0100\n      exp\n      swap1\n      div\n      0xff\n      and\n      dup2\n      jump\t// out\n        /* \"@openzeppelin/contracts/access/Ownable.sol\":1638:1723  function owner() public view virtual returns (address) {... */\n    tag_67:\n        /* \"@openzeppelin/contracts/access/Ownable.sol\":1684:1691  address */\n      0x00\n        /* \"@openzeppelin/contracts/access/Ownable.sol\":1710:1716  _owner */\n      0x00\n      0x00\n      swap1\n      sload\n      swap1\n      0x0100\n      exp\n      swap1\n      div\n      0xffffffffffffffffffffffffffffffffffffffff\n      and\n        /* \"@openzeppelin/contracts/access/Ownable.sol\":1703:1716  return _owner */\n      swap1\n      pop\n        /* \"@openzeppelin/contracts/access/Ownable.sol\":1638:1723  function owner() public view virtual returns (address) {... */\n      swap1\n      jump\t// out\n        /* \"submissions/Serena Y/Day18-CropInsurance.sol\":946:999  mapping(address => uint256) public lastClaimTimestamp */\n    tag_73:\n      mstore(0x20, 0x04)\n      dup1\n      0x00\n      mstore\n      keccak256(0x00, 0x40)\n      0x00\n      swap2\n      pop\n      swap1\n      pop\n      sload\n      dup2\n      jump\t// out\n        /* \"submissions/Serena Y/Day18-CropInsurance.sol\":582:630  uint256 public constant RAINFALL_THRESHOLD = 500 */\n    tag_77:\n        /* \"submissions/Serena Y/Day18-CropInsurance.sol\":627:630  500 */\n      0x01f4\n        /* \"submissions/Serena Y/Day18-CropInsurance.sol\":582:630  uint256 public constant RAINFALL_THRESHOLD = 500 */\n      dup2\n      jump\t// out\n        /* \"submissions/Serena Y/Day18-CropInsurance.sol\":1921:2509  function purchaseInsurance() external payable {... */\n    tag_80:\n        /* \"submissions/Serena Y/Day18-CropInsurance.sol\":1978:1994  uint256 ethPrice */\n      0x00\n        /* \"submissions/Serena Y/Day18-CropInsurance.sol\":1997:2010  getEthPrice() */\n      tag_152\n        /* \"submissions/Serena Y/Day18-CropInsurance.sol\":1997:2008  getEthPrice */\n      tag_49\n        /* \"submissions/Serena Y/Day18-CropInsurance.sol\":1997:2010  getEthPrice() */\n      jump\t// in\n    tag_152:\n        /* \"submissions/Serena Y/Day18-CropInsurance.sol\":1978:2010  uint256 ethPrice = getEthPrice() */\n      swap1\n      pop\n        /* \"submissions/Serena Y/Day18-CropInsurance.sol\":2021:2041  uint256 premiumInEth */\n      0x00\n        /* \"submissions/Serena Y/Day18-CropInsurance.sol\":2077:2085  ethPrice */\n      dup2\n        /* \"submissions/Serena Y/Day18-CropInsurance.sol\":2069:2073  1e18 */\n      0x0de0b6b3a7640000\n        /* \"submissions/Serena Y/Day18-CropInsurance.sol\":717:719  10 */\n      0x0a\n        /* \"submissions/Serena Y/Day18-CropInsurance.sol\":2045:2073  INSURANCE_PREMIUM_USD * 1e18 */\n      tag_153\n      swap2\n      swap1\n      tag_125\n      jump\t// in\n    tag_153:\n        /* \"submissions/Serena Y/Day18-CropInsurance.sol\":2044:2085  (INSURANCE_PREMIUM_USD * 1e18) / ethPrice */\n      tag_154\n      swap2\n      swap1\n      tag_127\n      jump\t// in\n    tag_154:\n        /* \"submissions/Serena Y/Day18-CropInsurance.sol\":2021:2085  uint256 premiumInEth = (INSURANCE_PREMIUM_USD * 1e18) / ethPrice */\n      swap1\n      pop\n        /* \"submissions/Serena Y/Day18-CropInsurance.sol\":2150:2162  premiumInEth */\n      dup1\n        /* \"submissions/Serena Y/Day18-CropInsurance.sol\":2137:2146  msg.value */\n      callvalue\n        /* \"submissions/Serena Y/Day18-CropInsurance.sol\":2137:2162  msg.value >= premiumInEth */\n      lt\n      iszero\n        /* \"submissions/Serena Y/Day18-CropInsurance.sol\":2129:2194  require(msg.value >= premiumInEth, \"Insufficient premium amount\") */\n      tag_155\n      jumpi\n      mload(0x40)\n      0x08c379a000000000000000000000000000000000000000000000000000000000\n      dup2\n      mstore\n      0x04\n      add\n      tag_156\n      swap1\n      tag_157\n      jump\t// in\n    tag_156:\n      mload(0x40)\n      dup1\n      swap2\n      sub\n      swap1\n      revert\n    tag_155:\n        /* \"submissions/Serena Y/Day18-CropInsurance.sol\":2248:2260  hasInsurance */\n      0x03\n        /* \"submissions/Serena Y/Day18-CropInsurance.sol\":2248:2272  hasInsurance[msg.sender] */\n      0x00\n        /* \"submissions/Serena Y/Day18-CropInsurance.sol\":2261:2271  msg.sender */\n      caller\n        /* \"submissions/Serena Y/Day18-CropInsurance.sol\":2248:2272  hasInsurance[msg.sender] */\n      0xffffffffffffffffffffffffffffffffffffffff\n      and\n      0xffffffffffffffffffffffffffffffffffffffff\n      and\n      dup2\n      mstore\n      0x20\n      add\n      swap1\n      dup2\n      mstore\n      0x20\n      add\n      0x00\n      keccak256\n      0x00\n      swap1\n      sload\n      swap1\n      0x0100\n      exp\n      swap1\n      div\n      0xff\n      and\n        /* \"submissions/Serena Y/Day18-CropInsurance.sol\":2247:2272  !hasInsurance[msg.sender] */\n      iszero\n        /* \"submissions/Serena Y/Day18-CropInsurance.sol\":2239:2292  require(!hasInsurance[msg.sender], \"Already insured\") */\n      tag_158\n      jumpi\n      mload(0x40)\n      0x08c379a000000000000000000000000000000000000000000000000000000000\n      dup2\n      mstore\n      0x04\n      add\n      tag_159\n      swap1\n      tag_160\n      jump\t// in\n    tag_159:\n      mload(0x40)\n      dup1\n      swap2\n      sub\n      swap1\n      revert\n    tag_158:\n        /* \"submissions/Serena Y/Day18-CropInsurance.sol\":2364:2368  true */\n      0x01\n        /* \"submissions/Serena Y/Day18-CropInsurance.sol\":2337:2349  hasInsurance */\n      0x03\n        /* \"submissions/Serena Y/Day18-CropInsurance.sol\":2337:2361  hasInsurance[msg.sender] */\n      0x00\n        /* \"submissions/Serena Y/Day18-CropInsurance.sol\":2350:2360  msg.sender */\n      caller\n        /* \"submissions/Serena Y/Day18-CropInsurance.sol\":2337:2361  hasInsurance[msg.sender] */\n      0xffffffffffffffffffffffffffffffffffffffff\n      and\n      0xffffffffffffffffffffffffffffffffffffffff\n      and\n      dup2\n      mstore\n      0x20\n      add\n      swap1\n      dup2\n      mstore\n      0x20\n      add\n      0x00\n      keccak256\n      0x00\n        /* \"submissions/Serena Y/Day18-CropInsurance.sol\":2337:2368  hasInsurance[msg.sender] = true */\n      0x0100\n      exp\n      dup2\n      sload\n      dup2\n      0xff\n      mul\n      not\n      and\n      swap1\n      dup4\n      iszero\n      iszero\n      mul\n      or\n      swap1\n      sstore\n      pop\n        /* \"submissions/Serena Y/Day18-CropInsurance.sol\":2435:2445  msg.sender */\n      caller\n        /* \"submissions/Serena Y/Day18-CropInsurance.sol\":2416:2457  InsurancePurchased(msg.sender, msg.value) */\n      0xffffffffffffffffffffffffffffffffffffffff\n      and\n      0x4b58308df033561e43d2c0227b19bea93ae78a05df784c985482b3fb7e154610\n        /* \"submissions/Serena Y/Day18-CropInsurance.sol\":2447:2456  msg.value */\n      callvalue\n        /* \"submissions/Serena Y/Day18-CropInsurance.sol\":2416:2457  InsurancePurchased(msg.sender, msg.value) */\n      mload(0x40)\n      tag_161\n      swap2\n      swap1\n      tag_27\n      jump\t// in\n    tag_161:\n      mload(0x40)\n      dup1\n      swap2\n      sub\n      swap1\n      log2\n        /* \"submissions/Serena Y/Day18-CropInsurance.sol\":1967:2509  {... */\n      pop\n      pop\n        /* \"submissions/Serena Y/Day18-CropInsurance.sol\":1921:2509  function purchaseInsurance() external payable {... */\n      jump\t// out\n        /* \"@openzeppelin/contracts/access/Ownable.sol\":2543:2758  function transferOwnership(address newOwner) public virtual onlyOwner {... */\n    tag_84:\n        /* \"@openzeppelin/contracts/access/Ownable.sol\":1531:1544  _checkOwner() */\n      tag_163\n        /* \"@openzeppelin/contracts/access/Ownable.sol\":1531:1542  _checkOwner */\n      tag_93\n        /* \"@openzeppelin/contracts/access/Ownable.sol\":1531:1544  _checkOwner() */\n      jump\t// in\n    tag_163:\n        /* \"@openzeppelin/contracts/access/Ownable.sol\":2647:2648  0 */\n      0x00\n        /* \"@openzeppelin/contracts/access/Ownable.sol\":2627:2649  newOwner == address(0) */\n      0xffffffffffffffffffffffffffffffffffffffff\n      and\n        /* \"@openzeppelin/contracts/access/Ownable.sol\":2627:2635  newOwner */\n      dup2\n        /* \"@openzeppelin/contracts/access/Ownable.sol\":2627:2649  newOwner == address(0) */\n      0xffffffffffffffffffffffffffffffffffffffff\n      and\n      sub\n        /* \"@openzeppelin/contracts/access/Ownable.sol\":2623:2714  if (newOwner == address(0)) {... */\n      tag_165\n      jumpi\n        /* \"@openzeppelin/contracts/access/Ownable.sol\":2700:2701  0 */\n      0x00\n        /* \"@openzeppelin/contracts/access/Ownable.sol\":2672:2703  OwnableInvalidOwner(address(0)) */\n      mload(0x40)\n      0x1e4fbdf700000000000000000000000000000000000000000000000000000000\n      dup2\n      mstore\n      0x04\n      add\n      tag_166\n      swap2\n      swap1\n      tag_69\n      jump\t// in\n    tag_166:\n      mload(0x40)\n      dup1\n      swap2\n      sub\n      swap1\n      revert\n        /* \"@openzeppelin/contracts/access/Ownable.sol\":2623:2714  if (newOwner == address(0)) {... */\n    tag_165:\n        /* \"@openzeppelin/contracts/access/Ownable.sol\":2723:2751  _transferOwnership(newOwner) */\n      tag_167\n        /* \"@openzeppelin/contracts/access/Ownable.sol\":2742:2750  newOwner */\n      dup2\n        /* \"@openzeppelin/contracts/access/Ownable.sol\":2723:2741  _transferOwnership */\n      tag_149\n        /* \"@openzeppelin/contracts/access/Ownable.sol\":2723:2751  _transferOwnership(newOwner) */\n      jump\t// in\n    tag_167:\n        /* \"@openzeppelin/contracts/access/Ownable.sol\":2543:2758  function transferOwnership(address newOwner) public virtual onlyOwner {... */\n      pop\n      jump\t// out\n        /* \"@openzeppelin/contracts/access/Ownable.sol\":1796:1958  function _checkOwner() internal view virtual {... */\n    tag_93:\n        /* \"@openzeppelin/contracts/access/Ownable.sol\":1866:1878  _msgSender() */\n      tag_169\n        /* \"@openzeppelin/contracts/access/Ownable.sol\":1866:1876  _msgSender */\n      tag_170\n        /* \"@openzeppelin/contracts/access/Ownable.sol\":1866:1878  _msgSender() */\n      jump\t// in\n    tag_169:\n        /* \"@openzeppelin/contracts/access/Ownable.sol\":1855:1878  owner() != _msgSender() */\n      0xffffffffffffffffffffffffffffffffffffffff\n      and\n        /* \"@openzeppelin/contracts/access/Ownable.sol\":1855:1862  owner() */\n      tag_171\n        /* \"@openzeppelin/contracts/access/Ownable.sol\":1855:1860  owner */\n      tag_67\n        /* \"@openzeppelin/contracts/access/Ownable.sol\":1855:1862  owner() */\n      jump\t// in\n    tag_171:\n        /* \"@openzeppelin/contracts/access/Ownable.sol\":1855:1878  owner() != _msgSender() */\n      0xffffffffffffffffffffffffffffffffffffffff\n      and\n      eq\n        /* \"@openzeppelin/contracts/access/Ownable.sol\":1851:1952  if (owner() != _msgSender()) {... */\n      tag_172\n      jumpi\n        /* \"@openzeppelin/contracts/access/Ownable.sol\":1928:1940  _msgSender() */\n      tag_173\n        /* \"@openzeppelin/contracts/access/Ownable.sol\":1928:1938  _msgSender */\n      tag_170\n        /* \"@openzeppelin/contracts/access/Ownable.sol\":1928:1940  _msgSender() */\n      jump\t// in\n    tag_173:\n        /* \"@openzeppelin/contracts/access/Ownable.sol\":1901:1941  OwnableUnauthorizedAccount(_msgSender()) */\n      mload(0x40)\n      0x118cdaa700000000000000000000000000000000000000000000000000000000\n      dup2\n      mstore\n      0x04\n      add\n      tag_174\n      swap2\n      swap1\n      tag_69\n      jump\t// in\n    tag_174:\n      mload(0x40)\n      dup1\n      swap2\n      sub\n      swap1\n      revert\n        /* \"@openzeppelin/contracts/access/Ownable.sol\":1851:1952  if (owner() != _msgSender()) {... */\n    tag_172:\n        /* \"@openzeppelin/contracts/access/Ownable.sol\":1796:1958  function _checkOwner() internal view virtual {... */\n      jump\t// out\n        /* \"@openzeppelin/contracts/access/Ownable.sol\":2912:3099  function _transferOwnership(address newOwner) internal virtual {... */\n    tag_149:\n        /* \"@openzeppelin/contracts/access/Ownable.sol\":2985:3001  address oldOwner */\n      0x00\n        /* \"@openzeppelin/contracts/access/Ownable.sol\":3004:3010  _owner */\n      0x00\n      0x00\n      swap1\n      sload\n      swap1\n      0x0100\n      exp\n      swap1\n      div\n      0xffffffffffffffffffffffffffffffffffffffff\n      and\n        /* \"@openzeppelin/contracts/access/Ownable.sol\":2985:3010  address oldOwner = _owner */\n      swap1\n      pop\n        /* \"@openzeppelin/contracts/access/Ownable.sol\":3029:3037  newOwner */\n      dup2\n        /* \"@openzeppelin/contracts/access/Ownable.sol\":3020:3026  _owner */\n      0x00\n      0x00\n        /* \"@openzeppelin/contracts/access/Ownable.sol\":3020:3037  _owner = newOwner */\n      0x0100\n      exp\n      dup2\n      sload\n      dup2\n      0xffffffffffffffffffffffffffffffffffffffff\n      mul\n      not\n      and\n      swap1\n      dup4\n      0xffffffffffffffffffffffffffffffffffffffff\n      and\n      mul\n      or\n      swap1\n      sstore\n      pop\n        /* \"@openzeppelin/contracts/access/Ownable.sol\":3083:3091  newOwner */\n      dup2\n        /* \"@openzeppelin/contracts/access/Ownable.sol\":3052:3092  OwnershipTransferred(oldOwner, newOwner) */\n      0xffffffffffffffffffffffffffffffffffffffff\n      and\n        /* \"@openzeppelin/contracts/access/Ownable.sol\":3073:3081  oldOwner */\n      dup2\n        /* \"@openzeppelin/contracts/access/Ownable.sol\":3052:3092  OwnershipTransferred(oldOwner, newOwner) */\n      0xffffffffffffffffffffffffffffffffffffffff\n      and\n      0x8be0079c531659141344cd1fd0a4f28419497f9722a3daafe3b4186f6b6457e0\n      mload(0x40)\n      mload(0x40)\n      dup1\n      swap2\n      sub\n      swap1\n      log3\n        /* \"@openzeppelin/contracts/access/Ownable.sol\":2975:3099  {... */\n      pop\n        /* \"@openzeppelin/contracts/access/Ownable.sol\":2912:3099  function _transferOwnership(address newOwner) internal virtual {... */\n      pop\n      jump\t// out\n        /* \"@openzeppelin/contracts/utils/Context.sol\":656:752  function _msgSender() internal view virtual returns (address) {... */\n    tag_170:\n        /* \"@openzeppelin/contracts/utils/Context.sol\":709:716  address */\n      0x00\n        /* \"@openzeppelin/contracts/utils/Context.sol\":735:745  msg.sender */\n      caller\n        /* \"@openzeppelin/contracts/utils/Context.sol\":728:745  return msg.sender */\n      swap1\n      pop\n        /* \"@openzeppelin/contracts/utils/Context.sol\":656:752  function _msgSender() internal view virtual returns (address) {... */\n      swap1\n      jump\t// out\n        /* \"#utility.yul\":7:84   */\n    tag_177:\n        /* \"#utility.yul\":44:51   */\n      0x00\n        /* \"#utility.yul\":73:78   */\n      dup2\n        /* \"#utility.yul\":62:78   */\n      swap1\n      pop\n        /* \"#utility.yul\":7:84   */\n      swap2\n      swap1\n      pop\n      jump\t// out\n        /* \"#utility.yul\":90:208   */\n    tag_178:\n        /* \"#utility.yul\":177:201   */\n      tag_226\n        /* \"#utility.yul\":195:200   */\n      dup2\n        /* \"#utility.yul\":177:201   */\n      tag_177\n      jump\t// in\n    tag_226:\n        /* \"#utility.yul\":172:175   */\n      dup3\n        /* \"#utility.yul\":165:202   */\n      mstore\n        /* \"#utility.yul\":90:208   */\n      pop\n      pop\n      jump\t// out\n        /* \"#utility.yul\":214:436   */\n    tag_27:\n        /* \"#utility.yul\":307:311   */\n      0x00\n        /* \"#utility.yul\":345:347   */\n      0x20\n        /* \"#utility.yul\":334:343   */\n      dup3\n        /* \"#utility.yul\":330:348   */\n      add\n        /* \"#utility.yul\":322:348   */\n      swap1\n      pop\n        /* \"#utility.yul\":358:429   */\n      tag_228\n        /* \"#utility.yul\":426:427   */\n      0x00\n        /* \"#utility.yul\":415:424   */\n      dup4\n        /* \"#utility.yul\":411:428   */\n      add\n        /* \"#utility.yul\":402:408   */\n      dup5\n        /* \"#utility.yul\":358:429   */\n      tag_178\n      jump\t// in\n    tag_228:\n        /* \"#utility.yul\":214:436   */\n      swap3\n      swap2\n      pop\n      pop\n      jump\t// out\n        /* \"#utility.yul\":442:528   */\n    tag_179:\n        /* \"#utility.yul\":477:484   */\n      0x00\n        /* \"#utility.yul\":517:521   */\n      0xff\n        /* \"#utility.yul\":510:515   */\n      dup3\n        /* \"#utility.yul\":506:522   */\n      and\n        /* \"#utility.yul\":495:522   */\n      swap1\n      pop\n        /* \"#utility.yul\":442:528   */\n      swap2\n      swap1\n      pop\n      jump\t// out\n        /* \"#utility.yul\":534:646   */\n    tag_180:\n        /* \"#utility.yul\":617:639   */\n      tag_231\n        /* \"#utility.yul\":633:638   */\n      dup2\n        /* \"#utility.yul\":617:639   */\n      tag_179\n      jump\t// in\n    tag_231:\n        /* \"#utility.yul\":612:615   */\n      dup3\n        /* \"#utility.yul\":605:640   */\n      mstore\n        /* \"#utility.yul\":534:646   */\n      pop\n      pop\n      jump\t// out\n        /* \"#utility.yul\":652:866   */\n    tag_43:\n        /* \"#utility.yul\":741:745   */\n      0x00\n        /* \"#utility.yul\":779:781   */\n      0x20\n        /* \"#utility.yul\":768:777   */\n      dup3\n        /* \"#utility.yul\":764:782   */\n      add\n        /* \"#utility.yul\":756:782   */\n      swap1\n      pop\n        /* \"#utility.yul\":792:859   */\n      tag_233\n        /* \"#utility.yul\":856:857   */\n      0x00\n        /* \"#utility.yul\":845:854   */\n      dup4\n        /* \"#utility.yul\":841:858   */\n      add\n        /* \"#utility.yul\":832:838   */\n      dup5\n        /* \"#utility.yul\":792:859   */\n      tag_180\n      jump\t// in\n    tag_233:\n        /* \"#utility.yul\":652:866   */\n      swap3\n      swap2\n      pop\n      pop\n      jump\t// out\n        /* \"#utility.yul\":953:1070   */\n    tag_182:\n        /* \"#utility.yul\":1062:1063   */\n      0x00\n        /* \"#utility.yul\":1059:1060   */\n      0x00\n        /* \"#utility.yul\":1052:1064   */\n      revert\n        /* \"#utility.yul\":1199:1325   */\n    tag_184:\n        /* \"#utility.yul\":1236:1243   */\n      0x00\n        /* \"#utility.yul\":1276:1318   */\n      0xffffffffffffffffffffffffffffffffffffffff\n        /* \"#utility.yul\":1269:1274   */\n      dup3\n        /* \"#utility.yul\":1265:1319   */\n      and\n        /* \"#utility.yul\":1254:1319   */\n      swap1\n      pop\n        /* \"#utility.yul\":1199:1325   */\n      swap2\n      swap1\n      pop\n      jump\t// out\n        /* \"#utility.yul\":1331:1427   */\n    tag_185:\n        /* \"#utility.yul\":1368:1375   */\n      0x00\n        /* \"#utility.yul\":1397:1421   */\n      tag_239\n        /* \"#utility.yul\":1415:1420   */\n      dup3\n        /* \"#utility.yul\":1397:1421   */\n      tag_184\n      jump\t// in\n    tag_239:\n        /* \"#utility.yul\":1386:1421   */\n      swap1\n      pop\n        /* \"#utility.yul\":1331:1427   */\n      swap2\n      swap1\n      pop\n      jump\t// out\n        /* \"#utility.yul\":1433:1555   */\n    tag_186:\n        /* \"#utility.yul\":1506:1530   */\n      tag_241\n        /* \"#utility.yul\":1524:1529   */\n      dup2\n        /* \"#utility.yul\":1506:1530   */\n      tag_185\n      jump\t// in\n    tag_241:\n        /* \"#utility.yul\":1499:1504   */\n      dup2\n        /* \"#utility.yul\":1496:1531   */\n      eq\n        /* \"#utility.yul\":1486:1549   */\n      tag_242\n      jumpi\n        /* \"#utility.yul\":1545:1546   */\n      0x00\n        /* \"#utility.yul\":1542:1543   */\n      0x00\n        /* \"#utility.yul\":1535:1547   */\n      revert\n        /* \"#utility.yul\":1486:1549   */\n    tag_242:\n        /* \"#utility.yul\":1433:1555   */\n      pop\n      jump\t// out\n        /* \"#utility.yul\":1561:1700   */\n    tag_187:\n        /* \"#utility.yul\":1607:1612   */\n      0x00\n        /* \"#utility.yul\":1645:1651   */\n      dup2\n        /* \"#utility.yul\":1632:1652   */\n      calldataload\n        /* \"#utility.yul\":1623:1652   */\n      swap1\n      pop\n        /* \"#utility.yul\":1661:1694   */\n      tag_244\n        /* \"#utility.yul\":1688:1693   */\n      dup2\n        /* \"#utility.yul\":1661:1694   */\n      tag_186\n      jump\t// in\n    tag_244:\n        /* \"#utility.yul\":1561:1700   */\n      swap3\n      swap2\n      pop\n      pop\n      jump\t// out\n        /* \"#utility.yul\":1706:2035   */\n    tag_61:\n        /* \"#utility.yul\":1765:1771   */\n      0x00\n        /* \"#utility.yul\":1814:1816   */\n      0x20\n        /* \"#utility.yul\":1802:1811   */\n      dup3\n        /* \"#utility.yul\":1793:1800   */\n      dup5\n        /* \"#utility.yul\":1789:1812   */\n      sub\n        /* \"#utility.yul\":1785:1817   */\n      slt\n        /* \"#utility.yul\":1782:1901   */\n      iszero\n      tag_246\n      jumpi\n        /* \"#utility.yul\":1820:1899   */\n      tag_247\n      tag_182\n      jump\t// in\n    tag_247:\n        /* \"#utility.yul\":1782:1901   */\n    tag_246:\n        /* \"#utility.yul\":1940:1941   */\n      0x00\n        /* \"#utility.yul\":1965:2018   */\n      tag_248\n        /* \"#utility.yul\":2010:2017   */\n      dup5\n        /* \"#utility.yul\":2001:2007   */\n      dup3\n        /* \"#utility.yul\":1990:1999   */\n      dup6\n        /* \"#utility.yul\":1986:2008   */\n      add\n        /* \"#utility.yul\":1965:2018   */\n      tag_187\n      jump\t// in\n    tag_248:\n        /* \"#utility.yul\":1955:2018   */\n      swap2\n      pop\n        /* \"#utility.yul\":1911:2028   */\n      pop\n        /* \"#utility.yul\":1706:2035   */\n      swap3\n      swap2\n      pop\n      pop\n      jump\t// out\n        /* \"#utility.yul\":2041:2131   */\n    tag_188:\n        /* \"#utility.yul\":2075:2082   */\n      0x00\n        /* \"#utility.yul\":2118:2123   */\n      dup2\n        /* \"#utility.yul\":2111:2124   */\n      iszero\n        /* \"#utility.yul\":2104:2125   */\n      iszero\n        /* \"#utility.yul\":2093:2125   */\n      swap1\n      pop\n        /* \"#utility.yul\":2041:2131   */\n      swap2\n      swap1\n      pop\n      jump\t// out\n        /* \"#utility.yul\":2137:2246   */\n    tag_189:\n        /* \"#utility.yul\":2218:2239   */\n      tag_251\n        /* \"#utility.yul\":2233:2238   */\n      dup2\n        /* \"#utility.yul\":2218:2239   */\n      tag_188\n      jump\t// in\n    tag_251:\n        /* \"#utility.yul\":2213:2216   */\n      dup3\n        /* \"#utility.yul\":2206:2240   */\n      mstore\n        /* \"#utility.yul\":2137:2246   */\n      pop\n      pop\n      jump\t// out\n        /* \"#utility.yul\":2252:2462   */\n    tag_64:\n        /* \"#utility.yul\":2339:2343   */\n      0x00\n        /* \"#utility.yul\":2377:2379   */\n      0x20\n        /* \"#utility.yul\":2366:2375   */\n      dup3\n        /* \"#utility.yul\":2362:2380   */\n      add\n        /* \"#utility.yul\":2354:2380   */\n      swap1\n      pop\n        /* \"#utility.yul\":2390:2455   */\n      tag_253\n        /* \"#utility.yul\":2452:2453   */\n      0x00\n        /* \"#utility.yul\":2441:2450   */\n      dup4\n        /* \"#utility.yul\":2437:2454   */\n      add\n        /* \"#utility.yul\":2428:2434   */\n      dup5\n        /* \"#utility.yul\":2390:2455   */\n      tag_189\n      jump\t// in\n    tag_253:\n        /* \"#utility.yul\":2252:2462   */\n      swap3\n      swap2\n      pop\n      pop\n      jump\t// out\n        /* \"#utility.yul\":2468:2586   */\n    tag_190:\n        /* \"#utility.yul\":2555:2579   */\n      tag_255\n        /* \"#utility.yul\":2573:2578   */\n      dup2\n        /* \"#utility.yul\":2555:2579   */\n      tag_185\n      jump\t// in\n    tag_255:\n        /* \"#utility.yul\":2550:2553   */\n      dup3\n        /* \"#utility.yul\":2543:2580   */\n      mstore\n        /* \"#utility.yul\":2468:2586   */\n      pop\n      pop\n      jump\t// out\n        /* \"#utility.yul\":2592:2814   */\n    tag_69:\n        /* \"#utility.yul\":2685:2689   */\n      0x00\n        /* \"#utility.yul\":2723:2725   */\n      0x20\n        /* \"#utility.yul\":2712:2721   */\n      dup3\n        /* \"#utility.yul\":2708:2726   */\n      add\n        /* \"#utility.yul\":2700:2726   */\n      swap1\n      pop\n        /* \"#utility.yul\":2736:2807   */\n      tag_257\n        /* \"#utility.yul\":2804:2805   */\n      0x00\n        /* \"#utility.yul\":2793:2802   */\n      dup4\n        /* \"#utility.yul\":2789:2806   */\n      add\n        /* \"#utility.yul\":2780:2786   */\n      dup5\n        /* \"#utility.yul\":2736:2807   */\n      tag_190\n      jump\t// in\n    tag_257:\n        /* \"#utility.yul\":2592:2814   */\n      swap3\n      swap2\n      pop\n      pop\n      jump\t// out\n        /* \"#utility.yul\":2820:2925   */\n    tag_191:\n        /* \"#utility.yul\":2856:2863   */\n      0x00\n        /* \"#utility.yul\":2896:2918   */\n      0xffffffffffffffffffff\n        /* \"#utility.yul\":2889:2894   */\n      dup3\n        /* \"#utility.yul\":2885:2919   */\n      and\n        /* \"#utility.yul\":2874:2919   */\n      swap1\n      pop\n        /* \"#utility.yul\":2820:2925   */\n      swap2\n      swap1\n      pop\n      jump\t// out\n        /* \"#utility.yul\":2931:3051   */\n    tag_192:\n        /* \"#utility.yul\":3003:3026   */\n      tag_260\n        /* \"#utility.yul\":3020:3025   */\n      dup2\n        /* \"#utility.yul\":3003:3026   */\n      tag_191\n      jump\t// in\n    tag_260:\n        /* \"#utility.yul\":2996:3001   */\n      dup2\n        /* \"#utility.yul\":2993:3027   */\n      eq\n        /* \"#utility.yul\":2983:3045   */\n      tag_261\n      jumpi\n        /* \"#utility.yul\":3041:3042   */\n      0x00\n        /* \"#utility.yul\":3038:3039   */\n      0x00\n        /* \"#utility.yul\":3031:3043   */\n      revert\n        /* \"#utility.yul\":2983:3045   */\n    tag_261:\n        /* \"#utility.yul\":2931:3051   */\n      pop\n      jump\t// out\n        /* \"#utility.yul\":3057:3198   */\n    tag_193:\n        /* \"#utility.yul\":3113:3118   */\n      0x00\n        /* \"#utility.yul\":3144:3150   */\n      dup2\n        /* \"#utility.yul\":3138:3151   */\n      mload\n        /* \"#utility.yul\":3129:3151   */\n      swap1\n      pop\n        /* \"#utility.yul\":3160:3192   */\n      tag_263\n        /* \"#utility.yul\":3186:3191   */\n      dup2\n        /* \"#utility.yul\":3160:3192   */\n      tag_192\n      jump\t// in\n    tag_263:\n        /* \"#utility.yul\":3057:3198   */\n      swap3\n      swap2\n      pop\n      pop\n      jump\t// out\n        /* \"#utility.yul\":3204:3280   */\n    tag_194:\n        /* \"#utility.yul\":3240:3247   */\n      0x00\n        /* \"#utility.yul\":3269:3274   */\n      dup2\n        /* \"#utility.yul\":3258:3274   */\n      swap1\n      pop\n        /* \"#utility.yul\":3204:3280   */\n      swap2\n      swap1\n      pop\n      jump\t// out\n        /* \"#utility.yul\":3286:3406   */\n    tag_195:\n        /* \"#utility.yul\":3358:3381   */\n      tag_266\n        /* \"#utility.yul\":3375:3380   */\n      dup2\n        /* \"#utility.yul\":3358:3381   */\n      tag_194\n      jump\t// in\n    tag_266:\n        /* \"#utility.yul\":3351:3356   */\n      dup2\n        /* \"#utility.yul\":3348:3382   */\n      eq\n        /* \"#utility.yul\":3338:3400   */\n      tag_267\n      jumpi\n        /* \"#utility.yul\":3396:3397   */\n      0x00\n        /* \"#utility.yul\":3393:3394   */\n      0x00\n        /* \"#utility.yul\":3386:3398   */\n      revert\n        /* \"#utility.yul\":3338:3400   */\n    tag_267:\n        /* \"#utility.yul\":3286:3406   */\n      pop\n      jump\t// out\n        /* \"#utility.yul\":3412:3553   */\n    tag_196:\n        /* \"#utility.yul\":3468:3473   */\n      0x00\n        /* \"#utility.yul\":3499:3505   */\n      dup2\n        /* \"#utility.yul\":3493:3506   */\n      mload\n        /* \"#utility.yul\":3484:3506   */\n      swap1\n      pop\n        /* \"#utility.yul\":3515:3547   */\n      tag_269\n        /* \"#utility.yul\":3541:3546   */\n      dup2\n        /* \"#utility.yul\":3515:3547   */\n      tag_195\n      jump\t// in\n    tag_269:\n        /* \"#utility.yul\":3412:3553   */\n      swap3\n      swap2\n      pop\n      pop\n      jump\t// out\n        /* \"#utility.yul\":3559:3681   */\n    tag_197:\n        /* \"#utility.yul\":3632:3656   */\n      tag_271\n        /* \"#utility.yul\":3650:3655   */\n      dup2\n        /* \"#utility.yul\":3632:3656   */\n      tag_177\n      jump\t// in\n    tag_271:\n        /* \"#utility.yul\":3625:3630   */\n      dup2\n        /* \"#utility.yul\":3622:3657   */\n      eq\n        /* \"#utility.yul\":3612:3675   */\n      tag_272\n      jumpi\n        /* \"#utility.yul\":3671:3672   */\n      0x00\n        /* \"#utility.yul\":3668:3669   */\n      0x00\n        /* \"#utility.yul\":3661:3673   */\n      revert\n        /* \"#utility.yul\":3612:3675   */\n    tag_272:\n        /* \"#utility.yul\":3559:3681   */\n      pop\n      jump\t// out\n        /* \"#utility.yul\":3687:3830   */\n    tag_198:\n        /* \"#utility.yul\":3744:3749   */\n      0x00\n        /* \"#utility.yul\":3775:3781   */\n      dup2\n        /* \"#utility.yul\":3769:3782   */\n      mload\n        /* \"#utility.yul\":3760:3782   */\n      swap1\n      pop\n        /* \"#utility.yul\":3791:3824   */\n      tag_274\n        /* \"#utility.yul\":3818:3823   */\n      dup2\n        /* \"#utility.yul\":3791:3824   */\n      tag_197\n      jump\t// in\n    tag_274:\n        /* \"#utility.yul\":3687:3830   */\n      swap3\n      swap2\n      pop\n      pop\n      jump\t// out\n        /* \"#utility.yul\":3836:4807   */\n    tag_89:\n        /* \"#utility.yul\":3939:3945   */\n      0x00\n        /* \"#utility.yul\":3947:3953   */\n      0x00\n        /* \"#utility.yul\":3955:3961   */\n      0x00\n        /* \"#utility.yul\":3963:3969   */\n      0x00\n        /* \"#utility.yul\":3971:3977   */\n      0x00\n        /* \"#utility.yul\":4020:4023   */\n      0xa0\n        /* \"#utility.yul\":4008:4017   */\n      dup7\n        /* \"#utility.yul\":3999:4006   */\n      dup9\n        /* \"#utility.yul\":3995:4018   */\n      sub\n        /* \"#utility.yul\":3991:4024   */\n      slt\n        /* \"#utility.yul\":3988:4108   */\n      iszero\n      tag_276\n      jumpi\n        /* \"#utility.yul\":4027:4106   */\n      tag_277\n      tag_182\n      jump\t// in\n    tag_277:\n        /* \"#utility.yul\":3988:4108   */\n    tag_276:\n        /* \"#utility.yul\":4147:4148   */\n      0x00\n        /* \"#utility.yul\":4172:4235   */\n      tag_278\n        /* \"#utility.yul\":4227:4234   */\n      dup9\n        /* \"#utility.yul\":4218:4224   */\n      dup3\n        /* \"#utility.yul\":4207:4216   */\n      dup10\n        /* \"#utility.yul\":4203:4225   */\n      add\n        /* \"#utility.yul\":4172:4235   */\n      tag_193\n      jump\t// in\n    tag_278:\n        /* \"#utility.yul\":4162:4235   */\n      swap6\n      pop\n        /* \"#utility.yul\":4118:4245   */\n      pop\n        /* \"#utility.yul\":4284:4286   */\n      0x20\n        /* \"#utility.yul\":4310:4373   */\n      tag_279\n        /* \"#utility.yul\":4365:4372   */\n      dup9\n        /* \"#utility.yul\":4356:4362   */\n      dup3\n        /* \"#utility.yul\":4345:4354   */\n      dup10\n        /* \"#utility.yul\":4341:4363   */\n      add\n        /* \"#utility.yul\":4310:4373   */\n      tag_196\n      jump\t// in\n    tag_279:\n        /* \"#utility.yul\":4300:4373   */\n      swap5\n      pop\n        /* \"#utility.yul\":4255:4383   */\n      pop\n        /* \"#utility.yul\":4422:4424   */\n      0x40\n        /* \"#utility.yul\":4448:4512   */\n      tag_280\n        /* \"#utility.yul\":4504:4511   */\n      dup9\n        /* \"#utility.yul\":4495:4501   */\n      dup3\n        /* \"#utility.yul\":4484:4493   */\n      dup10\n        /* \"#utility.yul\":4480:4502   */\n      add\n        /* \"#utility.yul\":4448:4512   */\n      tag_198\n      jump\t// in\n    tag_280:\n        /* \"#utility.yul\":4438:4512   */\n      swap4\n      pop\n        /* \"#utility.yul\":4393:4522   */\n      pop\n        /* \"#utility.yul\":4561:4563   */\n      0x60\n        /* \"#utility.yul\":4587:4651   */\n      tag_281\n        /* \"#utility.yul\":4643:4650   */\n      dup9\n        /* \"#utility.yul\":4634:4640   */\n      dup3\n        /* \"#utility.yul\":4623:4632   */\n      dup10\n        /* \"#utility.yul\":4619:4641   */\n      add\n        /* \"#utility.yul\":4587:4651   */\n      tag_198\n      jump\t// in\n    tag_281:\n        /* \"#utility.yul\":4577:4651   */\n      swap3\n      pop\n        /* \"#utility.yul\":4532:4661   */\n      pop\n        /* \"#utility.yul\":4700:4703   */\n      0x80\n        /* \"#utility.yul\":4727:4790   */\n      tag_282\n        /* \"#utility.yul\":4782:4789   */\n      dup9\n        /* \"#utility.yul\":4773:4779   */\n      dup3\n        /* \"#utility.yul\":4762:4771   */\n      dup10\n        /* \"#utility.yul\":4758:4780   */\n      add\n        /* \"#utility.yul\":4727:4790   */\n      tag_193\n      jump\t// in\n    tag_282:\n        /* \"#utility.yul\":4717:4790   */\n      swap2\n      pop\n        /* \"#utility.yul\":4671:4800   */\n      pop\n        /* \"#utility.yul\":3836:4807   */\n      swap3\n      swap6\n      pop\n      swap3\n      swap6\n      swap1\n      swap4\n      pop\n      jump\t// out\n        /* \"#utility.yul\":4813:4931   */\n    tag_199:\n        /* \"#utility.yul\":4884:4906   */\n      tag_284\n        /* \"#utility.yul\":4900:4905   */\n      dup2\n        /* \"#utility.yul\":4884:4906   */\n      tag_179\n      jump\t// in\n    tag_284:\n        /* \"#utility.yul\":4877:4882   */\n      dup2\n        /* \"#utility.yul\":4874:4907   */\n      eq\n        /* \"#utility.yul\":4864:4925   */\n      tag_285\n      jumpi\n        /* \"#utility.yul\":4921:4922   */\n      0x00\n        /* \"#utility.yul\":4918:4919   */\n      0x00\n        /* \"#utility.yul\":4911:4923   */\n      revert\n        /* \"#utility.yul\":4864:4925   */\n    tag_285:\n        /* \"#utility.yul\":4813:4931   */\n      pop\n      jump\t// out\n        /* \"#utility.yul\":4937:5076   */\n    tag_200:\n        /* \"#utility.yul\":4992:4997   */\n      0x00\n        /* \"#utility.yul\":5023:5029   */\n      dup2\n        /* \"#utility.yul\":5017:5030   */\n      mload\n        /* \"#utility.yul\":5008:5030   */\n      swap1\n      pop\n        /* \"#utility.yul\":5039:5070   */\n      tag_287\n        /* \"#utility.yul\":5064:5069   */\n      dup2\n        /* \"#utility.yul\":5039:5070   */\n      tag_199\n      jump\t// in\n    tag_287:\n        /* \"#utility.yul\":4937:5076   */\n      swap3\n      swap2\n      pop\n      pop\n      jump\t// out\n        /* \"#utility.yul\":5082:5429   */\n    tag_102:\n        /* \"#utility.yul\":5150:5156   */\n      0x00\n        /* \"#utility.yul\":5199:5201   */\n      0x20\n        /* \"#utility.yul\":5187:5196   */\n      dup3\n        /* \"#utility.yul\":5178:5185   */\n      dup5\n        /* \"#utility.yul\":5174:5197   */\n      sub\n        /* \"#utility.yul\":5170:5202   */\n      slt\n        /* \"#utility.yul\":5167:5286   */\n      iszero\n      tag_289\n      jumpi\n        /* \"#utility.yul\":5205:5284   */\n      tag_290\n      tag_182\n      jump\t// in\n    tag_290:\n        /* \"#utility.yul\":5167:5286   */\n    tag_289:\n        /* \"#utility.yul\":5325:5326   */\n      0x00\n        /* \"#utility.yul\":5350:5412   */\n      tag_291\n        /* \"#utility.yul\":5404:5411   */\n      dup5\n        /* \"#utility.yul\":5395:5401   */\n      dup3\n        /* \"#utility.yul\":5384:5393   */\n      dup6\n        /* \"#utility.yul\":5380:5402   */\n      add\n        /* \"#utility.yul\":5350:5412   */\n      tag_200\n      jump\t// in\n    tag_291:\n        /* \"#utility.yul\":5340:5412   */\n      swap2\n      pop\n        /* \"#utility.yul\":5296:5422   */\n      pop\n        /* \"#utility.yul\":5082:5429   */\n      swap3\n      swap2\n      pop\n      pop\n      jump\t// out\n        /* \"#utility.yul\":5435:5604   */\n    tag_201:\n        /* \"#utility.yul\":5519:5530   */\n      0x00\n        /* \"#utility.yul\":5553:5559   */\n      dup3\n        /* \"#utility.yul\":5548:5551   */\n      dup3\n        /* \"#utility.yul\":5541:5560   */\n      mstore\n        /* \"#utility.yul\":5593:5597   */\n      0x20\n        /* \"#utility.yul\":5588:5591   */\n      dup3\n        /* \"#utility.yul\":5584:5598   */\n      add\n        /* \"#utility.yul\":5569:5598   */\n      swap1\n      pop\n        /* \"#utility.yul\":5435:5604   */\n      swap3\n      swap2\n      pop\n      pop\n      jump\t// out\n        /* \"#utility.yul\":5610:5779   */\n    tag_202:\n        /* \"#utility.yul\":5750:5771   */\n      0x4e6f2061637469766520696e737572616e636500000000000000000000000000\n        /* \"#utility.yul\":5746:5747   */\n      0x00\n        /* \"#utility.yul\":5738:5744   */\n      dup3\n        /* \"#utility.yul\":5734:5748   */\n      add\n        /* \"#utility.yul\":5727:5772   */\n      mstore\n        /* \"#utility.yul\":5610:5779   */\n      pop\n      jump\t// out\n        /* \"#utility.yul\":5785:6151   */\n    tag_203:\n        /* \"#utility.yul\":5927:5930   */\n      0x00\n        /* \"#utility.yul\":5948:6015   */\n      tag_295\n        /* \"#utility.yul\":6012:6014   */\n      0x13\n        /* \"#utility.yul\":6007:6010   */\n      dup4\n        /* \"#utility.yul\":5948:6015   */\n      tag_201\n      jump\t// in\n    tag_295:\n        /* \"#utility.yul\":5941:6015   */\n      swap2\n      pop\n        /* \"#utility.yul\":6024:6117   */\n      tag_296\n        /* \"#utility.yul\":6113:6116   */\n      dup3\n        /* \"#utility.yul\":6024:6117   */\n      tag_202\n      jump\t// in\n    tag_296:\n        /* \"#utility.yul\":6142:6144   */\n      0x20\n        /* \"#utility.yul\":6137:6140   */\n      dup3\n        /* \"#utility.yul\":6133:6145   */\n      add\n        /* \"#utility.yul\":6126:6145   */\n      swap1\n      pop\n        /* \"#utility.yul\":5785:6151   */\n      swap2\n      swap1\n      pop\n      jump\t// out\n        /* \"#utility.yul\":6157:6576   */\n    tag_106:\n        /* \"#utility.yul\":6323:6327   */\n      0x00\n        /* \"#utility.yul\":6361:6363   */\n      0x20\n        /* \"#utility.yul\":6350:6359   */\n      dup3\n        /* \"#utility.yul\":6346:6364   */\n      add\n        /* \"#utility.yul\":6338:6364   */\n      swap1\n      pop\n        /* \"#utility.yul\":6410:6419   */\n      dup2\n        /* \"#utility.yul\":6404:6408   */\n      dup2\n        /* \"#utility.yul\":6400:6420   */\n      sub\n        /* \"#utility.yul\":6396:6397   */\n      0x00\n        /* \"#utility.yul\":6385:6394   */\n      dup4\n        /* \"#utility.yul\":6381:6398   */\n      add\n        /* \"#utility.yul\":6374:6421   */\n      mstore\n        /* \"#utility.yul\":6438:6569   */\n      tag_298\n        /* \"#utility.yul\":6564:6568   */\n      dup2\n        /* \"#utility.yul\":6438:6569   */\n      tag_203\n      jump\t// in\n    tag_298:\n        /* \"#utility.yul\":6430:6569   */\n      swap1\n      pop\n        /* \"#utility.yul\":6157:6576   */\n      swap2\n      swap1\n      pop\n      jump\t// out\n        /* \"#utility.yul\":6582:6762   */\n    tag_204:\n        /* \"#utility.yul\":6630:6707   */\n      0x4e487b7100000000000000000000000000000000000000000000000000000000\n        /* \"#utility.yul\":6627:6628   */\n      0x00\n        /* \"#utility.yul\":6620:6708   */\n      mstore\n        /* \"#utility.yul\":6727:6731   */\n      0x11\n        /* \"#utility.yul\":6724:6725   */\n      0x04\n        /* \"#utility.yul\":6717:6732   */\n      mstore\n        /* \"#utility.yul\":6751:6755   */\n      0x24\n        /* \"#utility.yul\":6748:6749   */\n      0x00\n        /* \"#utility.yul\":6741:6756   */\n      revert\n        /* \"#utility.yul\":6768:6959   */\n    tag_108:\n        /* \"#utility.yul\":6808:6811   */\n      0x00\n        /* \"#utility.yul\":6827:6847   */\n      tag_301\n        /* \"#utility.yul\":6845:6846   */\n      dup3\n        /* \"#utility.yul\":6827:6847   */\n      tag_177\n      jump\t// in\n    tag_301:\n        /* \"#utility.yul\":6822:6847   */\n      swap2\n      pop\n        /* \"#utility.yul\":6861:6881   */\n      tag_302\n        /* \"#utility.yul\":6879:6880   */\n      dup4\n        /* \"#utility.yul\":6861:6881   */\n      tag_177\n      jump\t// in\n    tag_302:\n        /* \"#utility.yul\":6856:6881   */\n      swap3\n      pop\n        /* \"#utility.yul\":6904:6905   */\n      dup3\n        /* \"#utility.yul\":6901:6902   */\n      dup3\n        /* \"#utility.yul\":6897:6906   */\n      add\n        /* \"#utility.yul\":6890:6906   */\n      swap1\n      pop\n        /* \"#utility.yul\":6925:6928   */\n      dup1\n        /* \"#utility.yul\":6922:6923   */\n      dup3\n        /* \"#utility.yul\":6919:6929   */\n      gt\n        /* \"#utility.yul\":6916:6952   */\n      iszero\n      tag_303\n      jumpi\n        /* \"#utility.yul\":6932:6950   */\n      tag_304\n      tag_204\n      jump\t// in\n    tag_304:\n        /* \"#utility.yul\":6916:6952   */\n    tag_303:\n        /* \"#utility.yul\":6768:6959   */\n      swap3\n      swap2\n      pop\n      pop\n      jump\t// out\n        /* \"#utility.yul\":6965:7143   */\n    tag_205:\n        /* \"#utility.yul\":7105:7135   */\n      0x4d757374207761697420323468206265747765656e20636c61696d7300000000\n        /* \"#utility.yul\":7101:7102   */\n      0x00\n        /* \"#utility.yul\":7093:7099   */\n      dup3\n        /* \"#utility.yul\":7089:7103   */\n      add\n        /* \"#utility.yul\":7082:7136   */\n      mstore\n        /* \"#utility.yul\":6965:7143   */\n      pop\n      jump\t// out\n        /* \"#utility.yul\":7149:7515   */\n    tag_206:\n        /* \"#utility.yul\":7291:7294   */\n      0x00\n        /* \"#utility.yul\":7312:7379   */\n      tag_307\n        /* \"#utility.yul\":7376:7378   */\n      0x1c\n        /* \"#utility.yul\":7371:7374   */\n      dup4\n        /* \"#utility.yul\":7312:7379   */\n      tag_201\n      jump\t// in\n    tag_307:\n        /* \"#utility.yul\":7305:7379   */\n      swap2\n      pop\n        /* \"#utility.yul\":7388:7481   */\n      tag_308\n        /* \"#utility.yul\":7477:7480   */\n      dup3\n        /* \"#utility.yul\":7388:7481   */\n      tag_205\n      jump\t// in\n    tag_308:\n        /* \"#utility.yul\":7506:7508   */\n      0x20\n        /* \"#utility.yul\":7501:7504   */\n      dup3\n        /* \"#utility.yul\":7497:7509   */\n      add\n        /* \"#utility.yul\":7490:7509   */\n      swap1\n      pop\n        /* \"#utility.yul\":7149:7515   */\n      swap2\n      swap1\n      pop\n      jump\t// out\n        /* \"#utility.yul\":7521:7940   */\n    tag_111:\n        /* \"#utility.yul\":7687:7691   */\n      0x00\n        /* \"#utility.yul\":7725:7727   */\n      0x20\n        /* \"#utility.yul\":7714:7723   */\n      dup3\n        /* \"#utility.yul\":7710:7728   */\n      add\n        /* \"#utility.yul\":7702:7728   */\n      swap1\n      pop\n        /* \"#utility.yul\":7774:7783   */\n      dup2\n        /* \"#utility.yul\":7768:7772   */\n      dup2\n        /* \"#utility.yul\":7764:7784   */\n      sub\n        /* \"#utility.yul\":7760:7761   */\n      0x00\n        /* \"#utility.yul\":7749:7758   */\n      dup4\n        /* \"#utility.yul\":7745:7762   */\n      add\n        /* \"#utility.yul\":7738:7785   */\n      mstore\n        /* \"#utility.yul\":7802:7933   */\n      tag_310\n        /* \"#utility.yul\":7928:7932   */\n      dup2\n        /* \"#utility.yul\":7802:7933   */\n      tag_206\n      jump\t// in\n    tag_310:\n        /* \"#utility.yul\":7794:7933   */\n      swap1\n      pop\n        /* \"#utility.yul\":7521:7940   */\n      swap2\n      swap1\n      pop\n      jump\t// out\n        /* \"#utility.yul\":7946:8114   */\n    tag_207:\n        /* \"#utility.yul\":8086:8106   */\n      0x526f756e64206e6f7420636f6d706c6574650000000000000000000000000000\n        /* \"#utility.yul\":8082:8083   */\n      0x00\n        /* \"#utility.yul\":8074:8080   */\n      dup3\n        /* \"#utility.yul\":8070:8084   */\n      add\n        /* \"#utility.yul\":8063:8107   */\n      mstore\n        /* \"#utility.yul\":7946:8114   */\n      pop\n      jump\t// out\n        /* \"#utility.yul\":8120:8486   */\n    tag_208:\n        /* \"#utility.yul\":8262:8265   */\n      0x00\n        /* \"#utility.yul\":8283:8350   */\n      tag_313\n        /* \"#utility.yul\":8347:8349   */\n      0x12\n        /* \"#utility.yul\":8342:8345   */\n      dup4\n        /* \"#utility.yul\":8283:8350   */\n      tag_201\n      jump\t// in\n    tag_313:\n        /* \"#utility.yul\":8276:8350   */\n      swap2\n      pop\n        /* \"#utility.yul\":8359:8452   */\n      tag_314\n        /* \"#utility.yul\":8448:8451   */\n      dup3\n        /* \"#utility.yul\":8359:8452   */\n      tag_207\n      jump\t// in\n    tag_314:\n        /* \"#utility.yul\":8477:8479   */\n      0x20\n        /* \"#utility.yul\":8472:8475   */\n      dup3\n        /* \"#utility.yul\":8468:8480   */\n      add\n        /* \"#utility.yul\":8461:8480   */\n      swap1\n      pop\n        /* \"#utility.yul\":8120:8486   */\n      swap2\n      swap1\n      pop\n      jump\t// out\n        /* \"#utility.yul\":8492:8911   */\n    tag_117:\n        /* \"#utility.yul\":8658:8662   */\n      0x00\n        /* \"#utility.yul\":8696:8698   */\n      0x20\n        /* \"#utility.yul\":8685:8694   */\n      dup3\n        /* \"#utility.yul\":8681:8699   */\n      add\n        /* \"#utility.yul\":8673:8699   */\n      swap1\n      pop\n        /* \"#utility.yul\":8745:8754   */\n      dup2\n        /* \"#utility.yul\":8739:8743   */\n      dup2\n        /* \"#utility.yul\":8735:8755   */\n      sub\n        /* \"#utility.yul\":8731:8732   */\n      0x00\n        /* \"#utility.yul\":8720:8729   */\n      dup4\n        /* \"#utility.yul\":8716:8733   */\n      add\n        /* \"#utility.yul\":8709:8756   */\n      mstore\n        /* \"#utility.yul\":8773:8904   */\n      tag_316\n        /* \"#utility.yul\":8899:8903   */\n      dup2\n        /* \"#utility.yul\":8773:8904   */\n      tag_208\n      jump\t// in\n    tag_316:\n        /* \"#utility.yul\":8765:8904   */\n      swap1\n      pop\n        /* \"#utility.yul\":8492:8911   */\n      swap2\n      swap1\n      pop\n      jump\t// out\n        /* \"#utility.yul\":8917:9077   */\n    tag_209:\n        /* \"#utility.yul\":9057:9069   */\n      0x5374616c65206461746100000000000000000000000000000000000000000000\n        /* \"#utility.yul\":9053:9054   */\n      0x00\n        /* \"#utility.yul\":9045:9051   */\n      dup3\n        /* \"#utility.yul\":9041:9055   */\n      add\n        /* \"#utility.yul\":9034:9070   */\n      mstore\n        /* \"#utility.yul\":8917:9077   */\n      pop\n      jump\t// out\n        /* \"#utility.yul\":9083:9449   */\n    tag_210:\n        /* \"#utility.yul\":9225:9228   */\n      0x00\n        /* \"#utility.yul\":9246:9313   */\n      tag_319\n        /* \"#utility.yul\":9310:9312   */\n      0x0a\n        /* \"#utility.yul\":9305:9308   */\n      dup4\n        /* \"#utility.yul\":9246:9313   */\n      tag_201\n      jump\t// in\n    tag_319:\n        /* \"#utility.yul\":9239:9313   */\n      swap2\n      pop\n        /* \"#utility.yul\":9322:9415   */\n      tag_320\n        /* \"#utility.yul\":9411:9414   */\n      dup3\n        /* \"#utility.yul\":9322:9415   */\n      tag_209\n      jump\t// in\n    tag_320:\n        /* \"#utility.yul\":9440:9442   */\n      0x20\n        /* \"#utility.yul\":9435:9438   */\n      dup3\n        /* \"#utility.yul\":9431:9443   */\n      add\n        /* \"#utility.yul\":9424:9443   */\n      swap1\n      pop\n        /* \"#utility.yul\":9083:9449   */\n      swap2\n      swap1\n      pop\n      jump\t// out\n        /* \"#utility.yul\":9455:9874   */\n    tag_120:\n        /* \"#utility.yul\":9621:9625   */\n      0x00\n        /* \"#utility.yul\":9659:9661   */\n      0x20\n        /* \"#utility.yul\":9648:9657   */\n      dup3\n        /* \"#utility.yul\":9644:9662   */\n      add\n        /* \"#utility.yul\":9636:9662   */\n      swap1\n      pop\n        /* \"#utility.yul\":9708:9717   */\n      dup2\n        /* \"#utility.yul\":9702:9706   */\n      dup2\n        /* \"#utility.yul\":9698:9718   */\n      sub\n        /* \"#utility.yul\":9694:9695   */\n      0x00\n        /* \"#utility.yul\":9683:9692   */\n      dup4\n        /* \"#utility.yul\":9679:9696   */\n      add\n        /* \"#utility.yul\":9672:9719   */\n      mstore\n        /* \"#utility.yul\":9736:9867   */\n      tag_322\n        /* \"#utility.yul\":9862:9866   */\n      dup2\n        /* \"#utility.yul\":9736:9867   */\n      tag_210\n      jump\t// in\n    tag_322:\n        /* \"#utility.yul\":9728:9867   */\n      swap1\n      pop\n        /* \"#utility.yul\":9455:9874   */\n      swap2\n      swap1\n      pop\n      jump\t// out\n        /* \"#utility.yul\":9880:10290   */\n    tag_125:\n        /* \"#utility.yul\":9920:9927   */\n      0x00\n        /* \"#utility.yul\":9943:9963   */\n      tag_324\n        /* \"#utility.yul\":9961:9962   */\n      dup3\n        /* \"#utility.yul\":9943:9963   */\n      tag_177\n      jump\t// in\n    tag_324:\n        /* \"#utility.yul\":9938:9963   */\n      swap2\n      pop\n        /* \"#utility.yul\":9977:9997   */\n      tag_325\n        /* \"#utility.yul\":9995:9996   */\n      dup4\n        /* \"#utility.yul\":9977:9997   */\n      tag_177\n      jump\t// in\n    tag_325:\n        /* \"#utility.yul\":9972:9997   */\n      swap3\n      pop\n        /* \"#utility.yul\":10032:10033   */\n      dup3\n        /* \"#utility.yul\":10029:10030   */\n      dup3\n        /* \"#utility.yul\":10025:10034   */\n      mul\n        /* \"#utility.yul\":10054:10084   */\n      tag_326\n        /* \"#utility.yul\":10072:10083   */\n      dup2\n        /* \"#utility.yul\":10054:10084   */\n      tag_177\n      jump\t// in\n    tag_326:\n        /* \"#utility.yul\":10043:10084   */\n      swap2\n      pop\n        /* \"#utility.yul\":10233:10234   */\n      dup3\n        /* \"#utility.yul\":10224:10231   */\n      dup3\n        /* \"#utility.yul\":10220:10235   */\n      div\n        /* \"#utility.yul\":10217:10218   */\n      dup5\n        /* \"#utility.yul\":10214:10236   */\n      eq\n        /* \"#utility.yul\":10194:10195   */\n      dup4\n        /* \"#utility.yul\":10187:10196   */\n      iszero\n        /* \"#utility.yul\":10167:10250   */\n      or\n        /* \"#utility.yul\":10144:10283   */\n      tag_327\n      jumpi\n        /* \"#utility.yul\":10263:10281   */\n      tag_328\n      tag_204\n      jump\t// in\n    tag_328:\n        /* \"#utility.yul\":10144:10283   */\n    tag_327:\n        /* \"#utility.yul\":9928:10290   */\n      pop\n        /* \"#utility.yul\":9880:10290   */\n      swap3\n      swap2\n      pop\n      pop\n      jump\t// out\n        /* \"#utility.yul\":10296:10476   */\n    tag_211:\n        /* \"#utility.yul\":10344:10421   */\n      0x4e487b7100000000000000000000000000000000000000000000000000000000\n        /* \"#utility.yul\":10341:10342   */\n      0x00\n        /* \"#utility.yul\":10334:10422   */\n      mstore\n        /* \"#utility.yul\":10441:10445   */\n      0x12\n        /* \"#utility.yul\":10438:10439   */\n      0x04\n        /* \"#utility.yul\":10431:10446   */\n      mstore\n        /* \"#utility.yul\":10465:10469   */\n      0x24\n        /* \"#utility.yul\":10462:10463   */\n      0x00\n        /* \"#utility.yul\":10455:10470   */\n      revert\n        /* \"#utility.yul\":10482:10667   */\n    tag_127:\n        /* \"#utility.yul\":10522:10523   */\n      0x00\n        /* \"#utility.yul\":10539:10559   */\n      tag_331\n        /* \"#utility.yul\":10557:10558   */\n      dup3\n        /* \"#utility.yul\":10539:10559   */\n      tag_177\n      jump\t// in\n    tag_331:\n        /* \"#utility.yul\":10534:10559   */\n      swap2\n      pop\n        /* \"#utility.yul\":10573:10593   */\n      tag_332\n        /* \"#utility.yul\":10591:10592   */\n      dup4\n        /* \"#utility.yul\":10573:10593   */\n      tag_177\n      jump\t// in\n    tag_332:\n        /* \"#utility.yul\":10568:10593   */\n      swap3\n      pop\n        /* \"#utility.yul\":10612:10613   */\n      dup3\n        /* \"#utility.yul\":10602:10637   */\n      tag_333\n      jumpi\n        /* \"#utility.yul\":10617:10635   */\n      tag_334\n      tag_211\n      jump\t// in\n    tag_334:\n        /* \"#utility.yul\":10602:10637   */\n    tag_333:\n        /* \"#utility.yul\":10659:10660   */\n      dup3\n        /* \"#utility.yul\":10656:10657   */\n      dup3\n        /* \"#utility.yul\":10652:10661   */\n      div\n        /* \"#utility.yul\":10647:10661   */\n      swap1\n      pop\n        /* \"#utility.yul\":10482:10667   */\n      swap3\n      swap2\n      pop\n      pop\n      jump\t// out\n        /* \"#utility.yul\":10673:10820   */\n    tag_212:\n        /* \"#utility.yul\":10774:10785   */\n      0x00\n        /* \"#utility.yul\":10811:10814   */\n      dup2\n        /* \"#utility.yul\":10796:10814   */\n      swap1\n      pop\n        /* \"#utility.yul\":10673:10820   */\n      swap3\n      swap2\n      pop\n      pop\n      jump\t// out\n        /* \"#utility.yul\":10826:10940   */\n    tag_213:\n      pop\n      jump\t// out\n        /* \"#utility.yul\":10946:11344   */\n    tag_214:\n        /* \"#utility.yul\":11105:11108   */\n      0x00\n        /* \"#utility.yul\":11126:11209   */\n      tag_338\n        /* \"#utility.yul\":11207:11208   */\n      0x00\n        /* \"#utility.yul\":11202:11205   */\n      dup4\n        /* \"#utility.yul\":11126:11209   */\n      tag_212\n      jump\t// in\n    tag_338:\n        /* \"#utility.yul\":11119:11209   */\n      swap2\n      pop\n        /* \"#utility.yul\":11218:11311   */\n      tag_339\n        /* \"#utility.yul\":11307:11310   */\n      dup3\n        /* \"#utility.yul\":11218:11311   */\n      tag_213\n      jump\t// in\n    tag_339:\n        /* \"#utility.yul\":11336:11337   */\n      0x00\n        /* \"#utility.yul\":11331:11334   */\n      dup3\n        /* \"#utility.yul\":11327:11338   */\n      add\n        /* \"#utility.yul\":11320:11338   */\n      swap1\n      pop\n        /* \"#utility.yul\":10946:11344   */\n      swap2\n      swap1\n      pop\n      jump\t// out\n        /* \"#utility.yul\":11350:11729   */\n    tag_129:\n        /* \"#utility.yul\":11534:11537   */\n      0x00\n        /* \"#utility.yul\":11556:11703   */\n      tag_341\n        /* \"#utility.yul\":11699:11702   */\n      dup3\n        /* \"#utility.yul\":11556:11703   */\n      tag_214\n      jump\t// in\n    tag_341:\n        /* \"#utility.yul\":11549:11703   */\n      swap2\n      pop\n        /* \"#utility.yul\":11720:11723   */\n      dup2\n        /* \"#utility.yul\":11713:11723   */\n      swap1\n      pop\n        /* \"#utility.yul\":11350:11729   */\n      swap2\n      swap1\n      pop\n      jump\t// out\n        /* \"#utility.yul\":11735:11900   */\n    tag_215:\n        /* \"#utility.yul\":11875:11892   */\n      0x5472616e73666572206661696c65640000000000000000000000000000000000\n        /* \"#utility.yul\":11871:11872   */\n      0x00\n        /* \"#utility.yul\":11863:11869   */\n      dup3\n        /* \"#utility.yul\":11859:11873   */\n      add\n        /* \"#utility.yul\":11852:11893   */\n      mstore\n        /* \"#utility.yul\":11735:11900   */\n      pop\n      jump\t// out\n        /* \"#utility.yul\":11906:12272   */\n    tag_216:\n        /* \"#utility.yul\":12048:12051   */\n      0x00\n        /* \"#utility.yul\":12069:12136   */\n      tag_344\n        /* \"#utility.yul\":12133:12135   */\n      0x0f\n        /* \"#utility.yul\":12128:12131   */\n      dup4\n        /* \"#utility.yul\":12069:12136   */\n      tag_201\n      jump\t// in\n    tag_344:\n        /* \"#utility.yul\":12062:12136   */\n      swap2\n      pop\n        /* \"#utility.yul\":12145:12238   */\n      tag_345\n        /* \"#utility.yul\":12234:12237   */\n      dup3\n        /* \"#utility.yul\":12145:12238   */\n      tag_215\n      jump\t// in\n    tag_345:\n        /* \"#utility.yul\":12263:12265   */\n      0x20\n        /* \"#utility.yul\":12258:12261   */\n      dup3\n        /* \"#utility.yul\":12254:12266   */\n      add\n        /* \"#utility.yul\":12247:12266   */\n      swap1\n      pop\n        /* \"#utility.yul\":11906:12272   */\n      swap2\n      swap1\n      pop\n      jump\t// out\n        /* \"#utility.yul\":12278:12697   */\n    tag_135:\n        /* \"#utility.yul\":12444:12448   */\n      0x00\n        /* \"#utility.yul\":12482:12484   */\n      0x20\n        /* \"#utility.yul\":12471:12480   */\n      dup3\n        /* \"#utility.yul\":12467:12485   */\n      add\n        /* \"#utility.yul\":12459:12485   */\n      swap1\n      pop\n        /* \"#utility.yul\":12531:12540   */\n      dup2\n        /* \"#utility.yul\":12525:12529   */\n      dup2\n        /* \"#utility.yul\":12521:12541   */\n      sub\n        /* \"#utility.yul\":12517:12518   */\n      0x00\n        /* \"#utility.yul\":12506:12515   */\n      dup4\n        /* \"#utility.yul\":12502:12519   */\n      add\n        /* \"#utility.yul\":12495:12542   */\n      mstore\n        /* \"#utility.yul\":12559:12690   */\n      tag_347\n        /* \"#utility.yul\":12685:12689   */\n      dup2\n        /* \"#utility.yul\":12559:12690   */\n      tag_216\n      jump\t// in\n    tag_347:\n        /* \"#utility.yul\":12551:12690   */\n      swap1\n      pop\n        /* \"#utility.yul\":12278:12697   */\n      swap2\n      swap1\n      pop\n      jump\t// out\n        /* \"#utility.yul\":12703:12885   */\n    tag_217:\n        /* \"#utility.yul\":12843:12877   */\n      0x507269636520666565642072657475726e656420696e76616c69642064617461\n        /* \"#utility.yul\":12839:12840   */\n      0x00\n        /* \"#utility.yul\":12831:12837   */\n      dup3\n        /* \"#utility.yul\":12827:12841   */\n      add\n        /* \"#utility.yul\":12820:12878   */\n      mstore\n        /* \"#utility.yul\":12703:12885   */\n      pop\n      jump\t// out\n        /* \"#utility.yul\":12891:13257   */\n    tag_218:\n        /* \"#utility.yul\":13033:13036   */\n      0x00\n        /* \"#utility.yul\":13054:13121   */\n      tag_350\n        /* \"#utility.yul\":13118:13120   */\n      0x20\n        /* \"#utility.yul\":13113:13116   */\n      dup4\n        /* \"#utility.yul\":13054:13121   */\n      tag_201\n      jump\t// in\n    tag_350:\n        /* \"#utility.yul\":13047:13121   */\n      swap2\n      pop\n        /* \"#utility.yul\":13130:13223   */\n      tag_351\n        /* \"#utility.yul\":13219:13222   */\n      dup3\n        /* \"#utility.yul\":13130:13223   */\n      tag_217\n      jump\t// in\n    tag_351:\n        /* \"#utility.yul\":13248:13250   */\n      0x20\n        /* \"#utility.yul\":13243:13246   */\n      dup3\n        /* \"#utility.yul\":13239:13251   */\n      add\n        /* \"#utility.yul\":13232:13251   */\n      swap1\n      pop\n        /* \"#utility.yul\":12891:13257   */\n      swap2\n      swap1\n      pop\n      jump\t// out\n        /* \"#utility.yul\":13263:13682   */\n    tag_143:\n        /* \"#utility.yul\":13429:13433   */\n      0x00\n        /* \"#utility.yul\":13467:13469   */\n      0x20\n        /* \"#utility.yul\":13456:13465   */\n      dup3\n        /* \"#utility.yul\":13452:13470   */\n      add\n        /* \"#utility.yul\":13444:13470   */\n      swap1\n      pop\n        /* \"#utility.yul\":13516:13525   */\n      dup2\n        /* \"#utility.yul\":13510:13514   */\n      dup2\n        /* \"#utility.yul\":13506:13526   */\n      sub\n        /* \"#utility.yul\":13502:13503   */\n      0x00\n        /* \"#utility.yul\":13491:13500   */\n      dup4\n        /* \"#utility.yul\":13487:13504   */\n      add\n        /* \"#utility.yul\":13480:13527   */\n      mstore\n        /* \"#utility.yul\":13544:13675   */\n      tag_353\n        /* \"#utility.yul\":13670:13674   */\n      dup2\n        /* \"#utility.yul\":13544:13675   */\n      tag_218\n      jump\t// in\n    tag_353:\n        /* \"#utility.yul\":13536:13675   */\n      swap1\n      pop\n        /* \"#utility.yul\":13263:13682   */\n      swap2\n      swap1\n      pop\n      jump\t// out\n        /* \"#utility.yul\":13688:13865   */\n    tag_219:\n        /* \"#utility.yul\":13828:13857   */\n      0x496e73756666696369656e74207072656d69756d20616d6f756e740000000000\n        /* \"#utility.yul\":13824:13825   */\n      0x00\n        /* \"#utility.yul\":13816:13822   */\n      dup3\n        /* \"#utility.yul\":13812:13826   */\n      add\n        /* \"#utility.yul\":13805:13858   */\n      mstore\n        /* \"#utility.yul\":13688:13865   */\n      pop\n      jump\t// out\n        /* \"#utility.yul\":13871:14237   */\n    tag_220:\n        /* \"#utility.yul\":14013:14016   */\n      0x00\n        /* \"#utility.yul\":14034:14101   */\n      tag_356\n        /* \"#utility.yul\":14098:14100   */\n      0x1b\n        /* \"#utility.yul\":14093:14096   */\n      dup4\n        /* \"#utility.yul\":14034:14101   */\n      tag_201\n      jump\t// in\n    tag_356:\n        /* \"#utility.yul\":14027:14101   */\n      swap2\n      pop\n        /* \"#utility.yul\":14110:14203   */\n      tag_357\n        /* \"#utility.yul\":14199:14202   */\n      dup3\n        /* \"#utility.yul\":14110:14203   */\n      tag_219\n      jump\t// in\n    tag_357:\n        /* \"#utility.yul\":14228:14230   */\n      0x20\n        /* \"#utility.yul\":14223:14226   */\n      dup3\n        /* \"#utility.yul\":14219:14231   */\n      add\n        /* \"#utility.yul\":14212:14231   */\n      swap1\n      pop\n        /* \"#utility.yul\":13871:14237   */\n      swap2\n      swap1\n      pop\n      jump\t// out\n        /* \"#utility.yul\":14243:14662   */\n    tag_157:\n        /* \"#utility.yul\":14409:14413   */\n      0x00\n        /* \"#utility.yul\":14447:14449   */\n      0x20\n        /* \"#utility.yul\":14436:14445   */\n      dup3\n        /* \"#utility.yul\":14432:14450   */\n      add\n        /* \"#utility.yul\":14424:14450   */\n      swap1\n      pop\n        /* \"#utility.yul\":14496:14505   */\n      dup2\n        /* \"#utility.yul\":14490:14494   */\n      dup2\n        /* \"#utility.yul\":14486:14506   */\n      sub\n        /* \"#utility.yul\":14482:14483   */\n      0x00\n        /* \"#utility.yul\":14471:14480   */\n      dup4\n        /* \"#utility.yul\":14467:14484   */\n      add\n        /* \"#utility.yul\":14460:14507   */\n      mstore\n        /* \"#utility.yul\":14524:14655   */\n      tag_359\n        /* \"#utility.yul\":14650:14654   */\n      dup2\n        /* \"#utility.yul\":14524:14655   */\n      tag_220\n      jump\t// in\n    tag_359:\n        /* \"#utility.yul\":14516:14655   */\n      swap1\n      pop\n        /* \"#utility.yul\":14243:14662   */\n      swap2\n      swap1\n      pop\n      jump\t// out\n        /* \"#utility.yul\":14668:14833   */\n    tag_221:\n        /* \"#utility.yul\":14808:14825   */\n      0x416c726561647920696e73757265640000000000000000000000000000000000\n        /* \"#utility.yul\":14804:14805   */\n      0x00\n        /* \"#utility.yul\":14796:14802   */\n      dup3\n        /* \"#utility.yul\":14792:14806   */\n      add\n        /* \"#utility.yul\":14785:14826   */\n      mstore\n        /* \"#utility.yul\":14668:14833   */\n      pop\n      jump\t// out\n        /* \"#utility.yul\":14839:15205   */\n    tag_222:\n        /* \"#utility.yul\":14981:14984   */\n      0x00\n        /* \"#utility.yul\":15002:15069   */\n      tag_362\n        /* \"#utility.yul\":15066:15068   */\n      0x0f\n        /* \"#utility.yul\":15061:15064   */\n      dup4\n        /* \"#utility.yul\":15002:15069   */\n      tag_201\n      jump\t// in\n    tag_362:\n        /* \"#utility.yul\":14995:15069   */\n      swap2\n      pop\n        /* \"#utility.yul\":15078:15171   */\n      tag_363\n        /* \"#utility.yul\":15167:15170   */\n      dup3\n        /* \"#utility.yul\":15078:15171   */\n      tag_221\n      jump\t// in\n    tag_363:\n        /* \"#utility.yul\":15196:15198   */\n      0x20\n        /* \"#utility.yul\":15191:15194   */\n      dup3\n        /* \"#utility.yul\":15187:15199   */\n      add\n        /* \"#utility.yul\":15180:15199   */\n      swap1\n      pop\n        /* \"#utility.yul\":14839:15205   */\n      swap2\n      swap1\n      pop\n      jump\t// out\n        /* \"#utility.yul\":15211:15630   */\n    tag_160:\n        /* \"#utility.yul\":15377:15381   */\n      0x00\n        /* \"#utility.yul\":15415:15417   */\n      0x20\n        /* \"#utility.yul\":15404:15413   */\n      dup3\n        /* \"#utility.yul\":15400:15418   */\n      add\n        /* \"#utility.yul\":15392:15418   */\n      swap1\n      pop\n        /* \"#utility.yul\":15464:15473   */\n      dup2\n        /* \"#utility.yul\":15458:15462   */\n      dup2\n        /* \"#utility.yul\":15454:15474   */\n      sub\n        /* \"#utility.yul\":15450:15451   */\n      0x00\n        /* \"#utility.yul\":15439:15448   */\n      dup4\n        /* \"#utility.yul\":15435:15452   */\n      add\n        /* \"#utility.yul\":15428:15475   */\n      mstore\n        /* \"#utility.yul\":15492:15623   */\n      tag_365\n        /* \"#utility.yul\":15618:15622   */\n      dup2\n        /* \"#utility.yul\":15492:15623   */\n      tag_222\n      jump\t// in\n    tag_365:\n        /* \"#utility.yul\":15484:15623   */\n      swap1\n      pop\n        /* \"#utility.yul\":15211:15630   */\n      swap2\n      swap1\n      pop\n      jump\t// out\n\n    auxdata: 0xa26469706673582212208b93e0bad0093d00073fc882028af7b07405079cd70a995317c2b71381c9adf664736f6c634300081e0033\n}\n",
				"bytecode": {
					"linkReferences": {},
					"object": "60806040526040516118333803806118338339818101604052810190610025919061024c565b335f73ffffffffffffffffffffffffffffffffffffffff168173ffffffffffffffffffffffffffffffffffffffff1603610096575f6040517f1e4fbdf700000000000000000000000000000000000000000000000000000000815260040161008d9190610299565b60405180910390fd5b6100a58161012d60201b60201c565b508160015f6101000a81548173ffffffffffffffffffffffffffffffffffffffff021916908373ffffffffffffffffffffffffffffffffffffffff1602179055508060025f6101000a81548173ffffffffffffffffffffffffffffffffffffffff021916908373ffffffffffffffffffffffffffffffffffffffff16021790555050506102b2565b5f5f5f9054906101000a900473ffffffffffffffffffffffffffffffffffffffff169050815f5f6101000a81548173ffffffffffffffffffffffffffffffffffffffff021916908373ffffffffffffffffffffffffffffffffffffffff1602179055508173ffffffffffffffffffffffffffffffffffffffff168173ffffffffffffffffffffffffffffffffffffffff167f8be0079c531659141344cd1fd0a4f28419497f9722a3daafe3b4186f6b6457e060405160405180910390a35050565b5f5ffd5b5f73ffffffffffffffffffffffffffffffffffffffff82169050919050565b5f61021b826101f2565b9050919050565b61022b81610211565b8114610235575f5ffd5b50565b5f8151905061024681610222565b92915050565b5f5f60408385031215610262576102616101ee565b5b5f61026f85828601610238565b925050602061028085828601610238565b9150509250929050565b61029381610211565b82525050565b5f6020820190506102ac5f83018461028a565b92915050565b611574806102bf5f395ff3fe6080604052600436106100eb575f3560e01c8063715018a611610089578063bd9d518b11610058578063bd9d518b1461029a578063c5f60e82146102d6578063edb8fb4414610300578063f2fde38b1461030a576100f2565b8063715018a6146101f45780637c77e15c1461020a5780638cd42316146102345780638da5cb5b14610270576100f2565b80633ccfd60b116100c55780633ccfd60b146101745780635781c5521461018a57806360550d7a146101b457806367c9b017146101ca576100f2565b80630c15c365146100f657806312065fe01461012057806316731b241461014a576100f2565b366100f257005b5f5ffd5b348015610101575f5ffd5b5061010a610332565b6040516101179190610e16565b60405180910390f35b34801561012b575f5ffd5b506101346103cf565b6040516101419190610e16565b60405180910390f35b348015610155575f5ffd5b5061015e6103d6565b60405161016b9190610e16565b60405180910390f35b34801561017f575f5ffd5b506101886103db565b005b348015610195575f5ffd5b5061019e610430565b6040516101ab9190610e4a565b60405180910390f35b3480156101bf575f5ffd5b506101c86104c4565b005b3480156101d5575f5ffd5b506101de610923565b6040516101eb9190610e16565b60405180910390f35b3480156101ff575f5ffd5b50610208610a12565b005b348015610215575f5ffd5b5061021e610a25565b60405161022b9190610e16565b60405180910390f35b34801561023f575f5ffd5b5061025a60048036038101906102559190610ec1565b610a2a565b6040516102679190610f06565b60405180910390f35b34801561027b575f5ffd5b50610284610a47565b6040516102919190610f2e565b60405180910390f35b3480156102a5575f5ffd5b506102c060048036038101906102bb9190610ec1565b610a6e565b6040516102cd9190610e16565b60405180910390f35b3480156102e1575f5ffd5b506102ea610a83565b6040516102f79190610e16565b60405180910390f35b610308610a89565b005b348015610315575f5ffd5b50610330600480360381019061032b9190610ec1565b610c2b565b005b5f5f60015f9054906101000a900473ffffffffffffffffffffffffffffffffffffffff1673ffffffffffffffffffffffffffffffffffffffff1663feaf968c6040518163ffffffff1660e01b815260040160a060405180830381865afa15801561039e573d5f5f3e3d5ffd5b505050506040513d601f19601f820116820180604052508101906103c29190610fe3565b5050509150508091505090565b5f47905090565b600a81565b6103e3610caf565b6103eb610a47565b73ffffffffffffffffffffffffffffffffffffffff166108fc4790811502906040515f60405180830381858888f1935050505015801561042d573d5f5f3e3d5ffd5b50565b5f60025f9054906101000a900473ffffffffffffffffffffffffffffffffffffffff1673ffffffffffffffffffffffffffffffffffffffff1663313ce5676040518163ffffffff1660e01b8152600401602060405180830381865afa15801561049b573d5f5f3e3d5ffd5b505050506040513d601f19601f820116820180604052508101906104bf9190611084565b905090565b60035f3373ffffffffffffffffffffffffffffffffffffffff1673ffffffffffffffffffffffffffffffffffffffff1681526020019081526020015f205f9054906101000a900460ff1661054d576040517f08c379a000000000000000000000000000000000000000000000000000000000815260040161054490611109565b60405180910390fd5b6201518060045f3373ffffffffffffffffffffffffffffffffffffffff1673ffffffffffffffffffffffffffffffffffffffff1681526020019081526020015f20546105999190611154565b4210156105db576040517f08c379a00000000000000000000000000000000000000000000000000000000081526004016105d2906111d1565b60405180910390fd5b5f5f5f5f60015f9054906101000a900473ffffffffffffffffffffffffffffffffffffffff1673ffffffffffffffffffffffffffffffffffffffff1663feaf968c6040518163ffffffff1660e01b815260040160a060405180830381865afa158015610649573d5f5f3e3d5ffd5b505050506040513d601f19601f8201168201806040525081019061066d9190610fe3565b9450945050935093505f82116106b8576040517f08c379a00000000000000000000000000000000000000000000000000000000081526004016106af90611239565b60405180910390fd5b8369ffffffffffffffffffff168169ffffffffffffffffffff161015610713576040517f08c379a000000000000000000000000000000000000000000000000000000000815260040161070a906112a1565b60405180910390fd5b5f8390503373ffffffffffffffffffffffffffffffffffffffff167fb7ca7d3cb9a65735003fab623dde34f69b35faa87df2abb0027e416636da03f08260405161075d9190610e16565b60405180910390a26101f481101561091c574260045f3373ffffffffffffffffffffffffffffffffffffffff1673ffffffffffffffffffffffffffffffffffffffff1681526020019081526020015f20819055503373ffffffffffffffffffffffffffffffffffffffff167f2ab6bfd31d4179c9c028fbfabc158037d35b199e61cc811862f484a9ed0706a160405160405180910390a25f6107fd610923565b90505f81670de0b6b3a7640000603261081691906112bf565b610820919061132d565b90505f3373ffffffffffffffffffffffffffffffffffffffff16826040516108479061138a565b5f6040518083038185875af1925050503d805f8114610881576040519150601f19603f3d011682016040523d82523d5f602084013e610886565b606091505b50509050806108ca576040517f08c379a00000000000000000000000000000000000000000000000000000000081526004016108c1906113e8565b60405180910390fd5b3373ffffffffffffffffffffffffffffffffffffffff167ff42cf8c29487b42c009006cba2a2a0ca0388229f3183e6e957e0a0b163585cb4836040516109109190610e16565b60405180910390a25050505b5050505050565b5f5f60025f9054906101000a900473ffffffffffffffffffffffffffffffffffffffff1673ffffffffffffffffffffffffffffffffffffffff1663feaf968c6040518163ffffffff1660e01b815260040160a060405180830381865afa15801561098f573d5f5f3e3d5ffd5b505050506040513d601f19601f820116820180604052508101906109b39190610fe3565b5050509150505f81136109fb576040517f08c379a00000000000000000000000000000000000000000000000000000000081526004016109f290611450565b60405180910390fd5b6402540be40081610a0c91906112bf565b91505090565b610a1a610caf565b610a235f610d36565b565b603281565b6003602052805f5260405f205f915054906101000a900460ff1681565b5f5f5f9054906101000a900473ffffffffffffffffffffffffffffffffffffffff16905090565b6004602052805f5260405f205f915090505481565b6101f481565b5f610a92610923565b90505f81670de0b6b3a7640000600a610aab91906112bf565b610ab5919061132d565b905080341015610afa576040517f08c379a0000000000000000000000000000000000000000000000000000000008152600401610af1906114b8565b60405180910390fd5b60035f3373ffffffffffffffffffffffffffffffffffffffff1673ffffffffffffffffffffffffffffffffffffffff1681526020019081526020015f205f9054906101000a900460ff1615610b84576040517f08c379a0000000000000000000000000000000000000000000000000000000008152600401610b7b90611520565b60405180910390fd5b600160035f3373ffffffffffffffffffffffffffffffffffffffff1673ffffffffffffffffffffffffffffffffffffffff1681526020019081526020015f205f6101000a81548160ff0219169083151502179055503373ffffffffffffffffffffffffffffffffffffffff167f4b58308df033561e43d2c0227b19bea93ae78a05df784c985482b3fb7e15461034604051610c1f9190610e16565b60405180910390a25050565b610c33610caf565b5f73ffffffffffffffffffffffffffffffffffffffff168173ffffffffffffffffffffffffffffffffffffffff1603610ca3575f6040517f1e4fbdf7000000000000000000000000000000000000000000000000000000008152600401610c9a9190610f2e565b60405180910390fd5b610cac81610d36565b50565b610cb7610df7565b73ffffffffffffffffffffffffffffffffffffffff16610cd5610a47565b73ffffffffffffffffffffffffffffffffffffffff1614610d3457610cf8610df7565b6040517f118cdaa7000000000000000000000000000000000000000000000000000000008152600401610d2b9190610f2e565b60405180910390fd5b565b5f5f5f9054906101000a900473ffffffffffffffffffffffffffffffffffffffff169050815f5f6101000a81548173ffffffffffffffffffffffffffffffffffffffff021916908373ffffffffffffffffffffffffffffffffffffffff1602179055508173ffffffffffffffffffffffffffffffffffffffff168173ffffffffffffffffffffffffffffffffffffffff167f8be0079c531659141344cd1fd0a4f28419497f9722a3daafe3b4186f6b6457e060405160405180910390a35050565b5f33905090565b5f819050919050565b610e1081610dfe565b82525050565b5f602082019050610e295f830184610e07565b92915050565b5f60ff82169050919050565b610e4481610e2f565b82525050565b5f602082019050610e5d5f830184610e3b565b92915050565b5f5ffd5b5f73ffffffffffffffffffffffffffffffffffffffff82169050919050565b5f610e9082610e67565b9050919050565b610ea081610e86565b8114610eaa575f5ffd5b50565b5f81359050610ebb81610e97565b92915050565b5f60208284031215610ed657610ed5610e63565b5b5f610ee384828501610ead565b91505092915050565b5f8115159050919050565b610f0081610eec565b82525050565b5f602082019050610f195f830184610ef7565b92915050565b610f2881610e86565b82525050565b5f602082019050610f415f830184610f1f565b92915050565b5f69ffffffffffffffffffff82169050919050565b610f6581610f47565b8114610f6f575f5ffd5b50565b5f81519050610f8081610f5c565b92915050565b5f819050919050565b610f9881610f86565b8114610fa2575f5ffd5b50565b5f81519050610fb381610f8f565b92915050565b610fc281610dfe565b8114610fcc575f5ffd5b50565b5f81519050610fdd81610fb9565b92915050565b5f5f5f5f5f60a08688031215610ffc57610ffb610e63565b5b5f61100988828901610f72565b955050602061101a88828901610fa5565b945050604061102b88828901610fcf565b935050606061103c88828901610fcf565b925050608061104d88828901610f72565b9150509295509295909350565b61106381610e2f565b811461106d575f5ffd5b50565b5f8151905061107e8161105a565b92915050565b5f6020828403121561109957611098610e63565b5b5f6110a684828501611070565b91505092915050565b5f82825260208201905092915050565b7f4e6f2061637469766520696e737572616e6365000000000000000000000000005f82015250565b5f6110f36013836110af565b91506110fe826110bf565b602082019050919050565b5f6020820190508181035f830152611120816110e7565b9050919050565b7f4e487b71000000000000000000000000000000000000000000000000000000005f52601160045260245ffd5b5f61115e82610dfe565b915061116983610dfe565b925082820190508082111561118157611180611127565b5b92915050565b7f4d757374207761697420323468206265747765656e20636c61696d73000000005f82015250565b5f6111bb601c836110af565b91506111c682611187565b602082019050919050565b5f6020820190508181035f8301526111e8816111af565b9050919050565b7f526f756e64206e6f7420636f6d706c65746500000000000000000000000000005f82015250565b5f6112236012836110af565b915061122e826111ef565b602082019050919050565b5f6020820190508181035f83015261125081611217565b9050919050565b7f5374616c652064617461000000000000000000000000000000000000000000005f82015250565b5f61128b600a836110af565b915061129682611257565b602082019050919050565b5f6020820190508181035f8301526112b88161127f565b9050919050565b5f6112c982610dfe565b91506112d483610dfe565b92508282026112e281610dfe565b915082820484148315176112f9576112f8611127565b5b5092915050565b7f4e487b71000000000000000000000000000000000000000000000000000000005f52601260045260245ffd5b5f61133782610dfe565b915061134283610dfe565b92508261135257611351611300565b5b828204905092915050565b5f81905092915050565b50565b5f6113755f8361135d565b915061138082611367565b5f82019050919050565b5f6113948261136a565b9150819050919050565b7f5472616e73666572206661696c656400000000000000000000000000000000005f82015250565b5f6113d2600f836110af565b91506113dd8261139e565b602082019050919050565b5f6020820190508181035f8301526113ff816113c6565b9050919050565b7f507269636520666565642072657475726e656420696e76616c696420646174615f82015250565b5f61143a6020836110af565b915061144582611406565b602082019050919050565b5f6020820190508181035f8301526114678161142e565b9050919050565b7f496e73756666696369656e74207072656d69756d20616d6f756e7400000000005f82015250565b5f6114a2601b836110af565b91506114ad8261146e565b602082019050919050565b5f6020820190508181035f8301526114cf81611496565b9050919050565b7f416c726561647920696e737572656400000000000000000000000000000000005f82015250565b5f61150a600f836110af565b9150611515826114d6565b602082019050919050565b5f6020820190508181035f830152611537816114fe565b905091905056fea26469706673582212208b93e0bad0093d00073fc882028af7b07405079cd70a995317c2b71381c9adf664736f6c634300081e0033",
					"opcodes": "PUSH1 0x80 PUSH1 0x40 MSTORE PUSH1 0x40 MLOAD PUSH2 0x1833 CODESIZE SUB DUP1 PUSH2 0x1833 DUP4 CODECOPY DUP2 DUP2 ADD PUSH1 0x40 MSTORE DUP2 ADD SWAP1 PUSH2 0x25 SWAP2 SWAP1 PUSH2 0x24C JUMP JUMPDEST CALLER PUSH0 PUSH20 0xFFFFFFFFFFFFFFFFFFFFFFFFFFFFFFFFFFFFFFFF AND DUP2 PUSH20 0xFFFFFFFFFFFFFFFFFFFFFFFFFFFFFFFFFFFFFFFF AND SUB PUSH2 0x96 JUMPI PUSH0 PUSH1 0x40 MLOAD PUSH32 0x1E4FBDF700000000000000000000000000000000000000000000000000000000 DUP2 MSTORE PUSH1 0x4 ADD PUSH2 0x8D SWAP2 SWAP1 PUSH2 0x299 JUMP JUMPDEST PUSH1 0x40 MLOAD DUP1 SWAP2 SUB SWAP1 REVERT JUMPDEST PUSH2 0xA5 DUP2 PUSH2 0x12D PUSH1 0x20 SHL PUSH1 0x20 SHR JUMP JUMPDEST POP DUP2 PUSH1 0x1 PUSH0 PUSH2 0x100 EXP DUP2 SLOAD DUP2 PUSH20 0xFFFFFFFFFFFFFFFFFFFFFFFFFFFFFFFFFFFFFFFF MUL NOT AND SWAP1 DUP4 PUSH20 0xFFFFFFFFFFFFFFFFFFFFFFFFFFFFFFFFFFFFFFFF AND MUL OR SWAP1 SSTORE POP DUP1 PUSH1 0x2 PUSH0 PUSH2 0x100 EXP DUP2 SLOAD DUP2 PUSH20 0xFFFFFFFFFFFFFFFFFFFFFFFFFFFFFFFFFFFFFFFF MUL NOT AND SWAP1 DUP4 PUSH20 0xFFFFFFFFFFFFFFFFFFFFFFFFFFFFFFFFFFFFFFFF AND MUL OR SWAP1 SSTORE POP POP POP PUSH2 0x2B2 JUMP JUMPDEST PUSH0 PUSH0 PUSH0 SWAP1 SLOAD SWAP1 PUSH2 0x100 EXP SWAP1 DIV PUSH20 0xFFFFFFFFFFFFFFFFFFFFFFFFFFFFFFFFFFFFFFFF AND SWAP1 POP DUP2 PUSH0 PUSH0 PUSH2 0x100 EXP DUP2 SLOAD DUP2 PUSH20 0xFFFFFFFFFFFFFFFFFFFFFFFFFFFFFFFFFFFFFFFF MUL NOT AND SWAP1 DUP4 PUSH20 0xFFFFFFFFFFFFFFFFFFFFFFFFFFFFFFFFFFFFFFFF AND MUL OR SWAP1 SSTORE POP DUP2 PUSH20 0xFFFFFFFFFFFFFFFFFFFFFFFFFFFFFFFFFFFFFFFF AND DUP2 PUSH20 0xFFFFFFFFFFFFFFFFFFFFFFFFFFFFFFFFFFFFFFFF AND PUSH32 0x8BE0079C531659141344CD1FD0A4F28419497F9722A3DAAFE3B4186F6B6457E0 PUSH1 0x40 MLOAD PUSH1 0x40 MLOAD DUP1 SWAP2 SUB SWAP1 LOG3 POP POP JUMP JUMPDEST PUSH0 PUSH0 REVERT JUMPDEST PUSH0 PUSH20 0xFFFFFFFFFFFFFFFFFFFFFFFFFFFFFFFFFFFFFFFF DUP3 AND SWAP1 POP SWAP2 SWAP1 POP JUMP JUMPDEST PUSH0 PUSH2 0x21B DUP3 PUSH2 0x1F2 JUMP JUMPDEST SWAP1 POP SWAP2 SWAP1 POP JUMP JUMPDEST PUSH2 0x22B DUP2 PUSH2 0x211 JUMP JUMPDEST DUP2 EQ PUSH2 0x235 JUMPI PUSH0 PUSH0 REVERT JUMPDEST POP JUMP JUMPDEST PUSH0 DUP2 MLOAD SWAP1 POP PUSH2 0x246 DUP2 PUSH2 0x222 JUMP JUMPDEST SWAP3 SWAP2 POP POP JUMP JUMPDEST PUSH0 PUSH0 PUSH1 0x40 DUP4 DUP6 SUB SLT ISZERO PUSH2 0x262 JUMPI PUSH2 0x261 PUSH2 0x1EE JUMP JUMPDEST JUMPDEST PUSH0 PUSH2 0x26F DUP6 DUP3 DUP7 ADD PUSH2 0x238 JUMP JUMPDEST SWAP3 POP POP PUSH1 0x20 PUSH2 0x280 DUP6 DUP3 DUP7 ADD PUSH2 0x238 JUMP JUMPDEST SWAP2 POP POP SWAP3 POP SWAP3 SWAP1 POP JUMP JUMPDEST PUSH2 0x293 DUP2 PUSH2 0x211 JUMP JUMPDEST DUP3 MSTORE POP POP JUMP JUMPDEST PUSH0 PUSH1 0x20 DUP3 ADD SWAP1 POP PUSH2 0x2AC PUSH0 DUP4 ADD DUP5 PUSH2 0x28A JUMP JUMPDEST SWAP3 SWAP2 POP POP JUMP JUMPDEST PUSH2 0x1574 DUP1 PUSH2 0x2BF PUSH0 CODECOPY PUSH0 RETURN INVALID PUSH1 0x80 PUSH1 0x40 MSTORE PUSH1 0x4 CALLDATASIZE LT PUSH2 0xEB JUMPI PUSH0 CALLDATALOAD PUSH1 0xE0 SHR DUP1 PUSH4 0x715018A6 GT PUSH2 0x89 JUMPI DUP1 PUSH4 0xBD9D518B GT PUSH2 0x58 JUMPI DUP1 PUSH4 0xBD9D518B EQ PUSH2 0x29A JUMPI DUP1 PUSH4 0xC5F60E82 EQ PUSH2 0x2D6 JUMPI DUP1 PUSH4 0xEDB8FB44 EQ PUSH2 0x300 JUMPI DUP1 PUSH4 0xF2FDE38B EQ PUSH2 0x30A JUMPI PUSH2 0xF2 JUMP JUMPDEST DUP1 PUSH4 0x715018A6 EQ PUSH2 0x1F4 JUMPI DUP1 PUSH4 0x7C77E15C EQ PUSH2 0x20A JUMPI DUP1 PUSH4 0x8CD42316 EQ PUSH2 0x234 JUMPI DUP1 PUSH4 0x8DA5CB5B EQ PUSH2 0x270 JUMPI PUSH2 0xF2 JUMP JUMPDEST DUP1 PUSH4 0x3CCFD60B GT PUSH2 0xC5 JUMPI DUP1 PUSH4 0x3CCFD60B EQ PUSH2 0x174 JUMPI DUP1 PUSH4 0x5781C552 EQ PUSH2 0x18A JUMPI DUP1 PUSH4 0x60550D7A EQ PUSH2 0x1B4 JUMPI DUP1 PUSH4 0x67C9B017 EQ PUSH2 0x1CA JUMPI PUSH2 0xF2 JUMP JUMPDEST DUP1 PUSH4 0xC15C365 EQ PUSH2 0xF6 JUMPI DUP1 PUSH4 0x12065FE0 EQ PUSH2 0x120 JUMPI DUP1 PUSH4 0x16731B24 EQ PUSH2 0x14A JUMPI PUSH2 0xF2 JUMP JUMPDEST CALLDATASIZE PUSH2 0xF2 JUMPI STOP JUMPDEST PUSH0 PUSH0 REVERT JUMPDEST CALLVALUE DUP1 ISZERO PUSH2 0x101 JUMPI PUSH0 PUSH0 REVERT JUMPDEST POP PUSH2 0x10A PUSH2 0x332 JUMP JUMPDEST PUSH1 0x40 MLOAD PUSH2 0x117 SWAP2 SWAP1 PUSH2 0xE16 JUMP JUMPDEST PUSH1 0x40 MLOAD DUP1 SWAP2 SUB SWAP1 RETURN JUMPDEST CALLVALUE DUP1 ISZERO PUSH2 0x12B JUMPI PUSH0 PUSH0 REVERT JUMPDEST POP PUSH2 0x134 PUSH2 0x3CF JUMP JUMPDEST PUSH1 0x40 MLOAD PUSH2 0x141 SWAP2 SWAP1 PUSH2 0xE16 JUMP JUMPDEST PUSH1 0x40 MLOAD DUP1 SWAP2 SUB SWAP1 RETURN JUMPDEST CALLVALUE DUP1 ISZERO PUSH2 0x155 JUMPI PUSH0 PUSH0 REVERT JUMPDEST POP PUSH2 0x15E PUSH2 0x3D6 JUMP JUMPDEST PUSH1 0x40 MLOAD PUSH2 0x16B SWAP2 SWAP1 PUSH2 0xE16 JUMP JUMPDEST PUSH1 0x40 MLOAD DUP1 SWAP2 SUB SWAP1 RETURN JUMPDEST CALLVALUE DUP1 ISZERO PUSH2 0x17F JUMPI PUSH0 PUSH0 REVERT JUMPDEST POP PUSH2 0x188 PUSH2 0x3DB JUMP JUMPDEST STOP JUMPDEST CALLVALUE DUP1 ISZERO PUSH2 0x195 JUMPI PUSH0 PUSH0 REVERT JUMPDEST POP PUSH2 0x19E PUSH2 0x430 JUMP JUMPDEST PUSH1 0x40 MLOAD PUSH2 0x1AB SWAP2 SWAP1 PUSH2 0xE4A JUMP JUMPDEST PUSH1 0x40 MLOAD DUP1 SWAP2 SUB SWAP1 RETURN JUMPDEST CALLVALUE DUP1 ISZERO PUSH2 0x1BF JUMPI PUSH0 PUSH0 REVERT JUMPDEST POP PUSH2 0x1C8 PUSH2 0x4C4 JUMP JUMPDEST STOP JUMPDEST CALLVALUE DUP1 ISZERO PUSH2 0x1D5 JUMPI PUSH0 PUSH0 REVERT JUMPDEST POP PUSH2 0x1DE PUSH2 0x923 JUMP JUMPDEST PUSH1 0x40 MLOAD PUSH2 0x1EB SWAP2 SWAP1 PUSH2 0xE16 JUMP JUMPDEST PUSH1 0x40 MLOAD DUP1 SWAP2 SUB SWAP1 RETURN JUMPDEST CALLVALUE DUP1 ISZERO PUSH2 0x1FF JUMPI PUSH0 PUSH0 REVERT JUMPDEST POP PUSH2 0x208 PUSH2 0xA12 JUMP JUMPDEST STOP JUMPDEST CALLVALUE DUP1 ISZERO PUSH2 0x215 JUMPI PUSH0 PUSH0 REVERT JUMPDEST POP PUSH2 0x21E PUSH2 0xA25 JUMP JUMPDEST PUSH1 0x40 MLOAD PUSH2 0x22B SWAP2 SWAP1 PUSH2 0xE16 JUMP JUMPDEST PUSH1 0x40 MLOAD DUP1 SWAP2 SUB SWAP1 RETURN JUMPDEST CALLVALUE DUP1 ISZERO PUSH2 0x23F JUMPI PUSH0 PUSH0 REVERT JUMPDEST POP PUSH2 0x25A PUSH1 0x4 DUP1 CALLDATASIZE SUB DUP2 ADD SWAP1 PUSH2 0x255 SWAP2 SWAP1 PUSH2 0xEC1 JUMP JUMPDEST PUSH2 0xA2A JUMP JUMPDEST PUSH1 0x40 MLOAD PUSH2 0x267 SWAP2 SWAP1 PUSH2 0xF06 JUMP JUMPDEST PUSH1 0x40 MLOAD DUP1 SWAP2 SUB SWAP1 RETURN JUMPDEST CALLVALUE DUP1 ISZERO PUSH2 0x27B JUMPI PUSH0 PUSH0 REVERT JUMPDEST POP PUSH2 0x284 PUSH2 0xA47 JUMP JUMPDEST PUSH1 0x40 MLOAD PUSH2 0x291 SWAP2 SWAP1 PUSH2 0xF2E JUMP JUMPDEST PUSH1 0x40 MLOAD DUP1 SWAP2 SUB SWAP1 RETURN JUMPDEST CALLVALUE DUP1 ISZERO PUSH2 0x2A5 JUMPI PUSH0 PUSH0 REVERT JUMPDEST POP PUSH2 0x2C0 PUSH1 0x4 DUP1 CALLDATASIZE SUB DUP2 ADD SWAP1 PUSH2 0x2BB SWAP2 SWAP1 PUSH2 0xEC1 JUMP JUMPDEST PUSH2 0xA6E JUMP JUMPDEST PUSH1 0x40 MLOAD PUSH2 0x2CD SWAP2 SWAP1 PUSH2 0xE16 JUMP JUMPDEST PUSH1 0x40 MLOAD DUP1 SWAP2 SUB SWAP1 RETURN JUMPDEST CALLVALUE DUP1 ISZERO PUSH2 0x2E1 JUMPI PUSH0 PUSH0 REVERT JUMPDEST POP PUSH2 0x2EA PUSH2 0xA83 JUMP JUMPDEST PUSH1 0x40 MLOAD PUSH2 0x2F7 SWAP2 SWAP1 PUSH2 0xE16 JUMP JUMPDEST PUSH1 0x40 MLOAD DUP1 SWAP2 SUB SWAP1 RETURN JUMPDEST PUSH2 0x308 PUSH2 0xA89 JUMP JUMPDEST STOP JUMPDEST CALLVALUE DUP1 ISZERO PUSH2 0x315 JUMPI PUSH0 PUSH0 REVERT JUMPDEST POP PUSH2 0x330 PUSH1 0x4 DUP1 CALLDATASIZE SUB DUP2 ADD SWAP1 PUSH2 0x32B SWAP2 SWAP1 PUSH2 0xEC1 JUMP JUMPDEST PUSH2 0xC2B JUMP JUMPDEST STOP JUMPDEST PUSH0 PUSH0 PUSH1 0x1 PUSH0 SWAP1 SLOAD SWAP1 PUSH2 0x100 EXP SWAP1 DIV PUSH20 0xFFFFFFFFFFFFFFFFFFFFFFFFFFFFFFFFFFFFFFFF AND PUSH20 0xFFFFFFFFFFFFFFFFFFFFFFFFFFFFFFFFFFFFFFFF AND PUSH4 0xFEAF968C PUSH1 0x40 MLOAD DUP2 PUSH4 0xFFFFFFFF AND PUSH1 0xE0 SHL DUP2 MSTORE PUSH1 0x4 ADD PUSH1 0xA0 PUSH1 0x40 MLOAD DUP1 DUP4 SUB DUP2 DUP7 GAS STATICCALL ISZERO DUP1 ISZERO PUSH2 0x39E JUMPI RETURNDATASIZE PUSH0 PUSH0 RETURNDATACOPY RETURNDATASIZE PUSH0 REVERT JUMPDEST POP POP POP POP PUSH1 0x40 MLOAD RETURNDATASIZE PUSH1 0x1F NOT PUSH1 0x1F DUP3 ADD AND DUP3 ADD DUP1 PUSH1 0x40 MSTORE POP DUP2 ADD SWAP1 PUSH2 0x3C2 SWAP2 SWAP1 PUSH2 0xFE3 JUMP JUMPDEST POP POP POP SWAP2 POP POP DUP1 SWAP2 POP POP SWAP1 JUMP JUMPDEST PUSH0 SELFBALANCE SWAP1 POP SWAP1 JUMP JUMPDEST PUSH1 0xA DUP2 JUMP JUMPDEST PUSH2 0x3E3 PUSH2 0xCAF JUMP JUMPDEST PUSH2 0x3EB PUSH2 0xA47 JUMP JUMPDEST PUSH20 0xFFFFFFFFFFFFFFFFFFFFFFFFFFFFFFFFFFFFFFFF AND PUSH2 0x8FC SELFBALANCE SWAP1 DUP2 ISZERO MUL SWAP1 PUSH1 0x40 MLOAD PUSH0 PUSH1 0x40 MLOAD DUP1 DUP4 SUB DUP2 DUP6 DUP9 DUP9 CALL SWAP4 POP POP POP POP ISZERO DUP1 ISZERO PUSH2 0x42D JUMPI RETURNDATASIZE PUSH0 PUSH0 RETURNDATACOPY RETURNDATASIZE PUSH0 REVERT JUMPDEST POP JUMP JUMPDEST PUSH0 PUSH1 0x2 PUSH0 SWAP1 SLOAD SWAP1 PUSH2 0x100 EXP SWAP1 DIV PUSH20 0xFFFFFFFFFFFFFFFFFFFFFFFFFFFFFFFFFFFFFFFF AND PUSH20 0xFFFFFFFFFFFFFFFFFFFFFFFFFFFFFFFFFFFFFFFF AND PUSH4 0x313CE567 PUSH1 0x40 MLOAD DUP2 PUSH4 0xFFFFFFFF AND PUSH1 0xE0 SHL DUP2 MSTORE PUSH1 0x4 ADD PUSH1 0x20 PUSH1 0x40 MLOAD DUP1 DUP4 SUB DUP2 DUP7 GAS STATICCALL ISZERO DUP1 ISZERO PUSH2 0x49B JUMPI RETURNDATASIZE PUSH0 PUSH0 RETURNDATACOPY RETURNDATASIZE PUSH0 REVERT JUMPDEST POP POP POP POP PUSH1 0x40 MLOAD RETURNDATASIZE PUSH1 0x1F NOT PUSH1 0x1F DUP3 ADD AND DUP3 ADD DUP1 PUSH1 0x40 MSTORE POP DUP2 ADD SWAP1 PUSH2 0x4BF SWAP2 SWAP1 PUSH2 0x1084 JUMP JUMPDEST SWAP1 POP SWAP1 JUMP JUMPDEST PUSH1 0x3 PUSH0 CALLER PUSH20 0xFFFFFFFFFFFFFFFFFFFFFFFFFFFFFFFFFFFFFFFF AND PUSH20 0xFFFFFFFFFFFFFFFFFFFFFFFFFFFFFFFFFFFFFFFF AND DUP2 MSTORE PUSH1 0x20 ADD SWAP1 DUP2 MSTORE PUSH1 0x20 ADD PUSH0 KECCAK256 PUSH0 SWAP1 SLOAD SWAP1 PUSH2 0x100 EXP SWAP1 DIV PUSH1 0xFF AND PUSH2 0x54D JUMPI PUSH1 0x40 MLOAD PUSH32 0x8C379A000000000000000000000000000000000000000000000000000000000 DUP2 MSTORE PUSH1 0x4 ADD PUSH2 0x544 SWAP1 PUSH2 0x1109 JUMP JUMPDEST PUSH1 0x40 MLOAD DUP1 SWAP2 SUB SWAP1 REVERT JUMPDEST PUSH3 0x15180 PUSH1 0x4 PUSH0 CALLER PUSH20 0xFFFFFFFFFFFFFFFFFFFFFFFFFFFFFFFFFFFFFFFF AND PUSH20 0xFFFFFFFFFFFFFFFFFFFFFFFFFFFFFFFFFFFFFFFF AND DUP2 MSTORE PUSH1 0x20 ADD SWAP1 DUP2 MSTORE PUSH1 0x20 ADD PUSH0 KECCAK256 SLOAD PUSH2 0x599 SWAP2 SWAP1 PUSH2 0x1154 JUMP JUMPDEST TIMESTAMP LT ISZERO PUSH2 0x5DB JUMPI PUSH1 0x40 MLOAD PUSH32 0x8C379A000000000000000000000000000000000000000000000000000000000 DUP2 MSTORE PUSH1 0x4 ADD PUSH2 0x5D2 SWAP1 PUSH2 0x11D1 JUMP JUMPDEST PUSH1 0x40 MLOAD DUP1 SWAP2 SUB SWAP1 REVERT JUMPDEST PUSH0 PUSH0 PUSH0 PUSH0 PUSH1 0x1 PUSH0 SWAP1 SLOAD SWAP1 PUSH2 0x100 EXP SWAP1 DIV PUSH20 0xFFFFFFFFFFFFFFFFFFFFFFFFFFFFFFFFFFFFFFFF AND PUSH20 0xFFFFFFFFFFFFFFFFFFFFFFFFFFFFFFFFFFFFFFFF AND PUSH4 0xFEAF968C PUSH1 0x40 MLOAD DUP2 PUSH4 0xFFFFFFFF AND PUSH1 0xE0 SHL DUP2 MSTORE PUSH1 0x4 ADD PUSH1 0xA0 PUSH1 0x40 MLOAD DUP1 DUP4 SUB DUP2 DUP7 GAS STATICCALL ISZERO DUP1 ISZERO PUSH2 0x649 JUMPI RETURNDATASIZE PUSH0 PUSH0 RETURNDATACOPY RETURNDATASIZE PUSH0 REVERT JUMPDEST POP POP POP POP PUSH1 0x40 MLOAD RETURNDATASIZE PUSH1 0x1F NOT PUSH1 0x1F DUP3 ADD AND DUP3 ADD DUP1 PUSH1 0x40 MSTORE POP DUP2 ADD SWAP1 PUSH2 0x66D SWAP2 SWAP1 PUSH2 0xFE3 JUMP JUMPDEST SWAP5 POP SWAP5 POP POP SWAP4 POP SWAP4 POP PUSH0 DUP3 GT PUSH2 0x6B8 JUMPI PUSH1 0x40 MLOAD PUSH32 0x8C379A000000000000000000000000000000000000000000000000000000000 DUP2 MSTORE PUSH1 0x4 ADD PUSH2 0x6AF SWAP1 PUSH2 0x1239 JUMP JUMPDEST PUSH1 0x40 MLOAD DUP1 SWAP2 SUB SWAP1 REVERT JUMPDEST DUP4 PUSH10 0xFFFFFFFFFFFFFFFFFFFF AND DUP2 PUSH10 0xFFFFFFFFFFFFFFFFFFFF AND LT ISZERO PUSH2 0x713 JUMPI PUSH1 0x40 MLOAD PUSH32 0x8C379A000000000000000000000000000000000000000000000000000000000 DUP2 MSTORE PUSH1 0x4 ADD PUSH2 0x70A SWAP1 PUSH2 0x12A1 JUMP JUMPDEST PUSH1 0x40 MLOAD DUP1 SWAP2 SUB SWAP1 REVERT JUMPDEST PUSH0 DUP4 SWAP1 POP CALLER PUSH20 0xFFFFFFFFFFFFFFFFFFFFFFFFFFFFFFFFFFFFFFFF AND PUSH32 0xB7CA7D3CB9A65735003FAB623DDE34F69B35FAA87DF2ABB0027E416636DA03F0 DUP3 PUSH1 0x40 MLOAD PUSH2 0x75D SWAP2 SWAP1 PUSH2 0xE16 JUMP JUMPDEST PUSH1 0x40 MLOAD DUP1 SWAP2 SUB SWAP1 LOG2 PUSH2 0x1F4 DUP2 LT ISZERO PUSH2 0x91C JUMPI TIMESTAMP PUSH1 0x4 PUSH0 CALLER PUSH20 0xFFFFFFFFFFFFFFFFFFFFFFFFFFFFFFFFFFFFFFFF AND PUSH20 0xFFFFFFFFFFFFFFFFFFFFFFFFFFFFFFFFFFFFFFFF AND DUP2 MSTORE PUSH1 0x20 ADD SWAP1 DUP2 MSTORE PUSH1 0x20 ADD PUSH0 KECCAK256 DUP2 SWAP1 SSTORE POP CALLER PUSH20 0xFFFFFFFFFFFFFFFFFFFFFFFFFFFFFFFFFFFFFFFF AND PUSH32 0x2AB6BFD31D4179C9C028FBFABC158037D35B199E61CC811862F484A9ED0706A1 PUSH1 0x40 MLOAD PUSH1 0x40 MLOAD DUP1 SWAP2 SUB SWAP1 LOG2 PUSH0 PUSH2 0x7FD PUSH2 0x923 JUMP JUMPDEST SWAP1 POP PUSH0 DUP2 PUSH8 0xDE0B6B3A7640000 PUSH1 0x32 PUSH2 0x816 SWAP2 SWAP1 PUSH2 0x12BF JUMP JUMPDEST PUSH2 0x820 SWAP2 SWAP1 PUSH2 0x132D JUMP JUMPDEST SWAP1 POP PUSH0 CALLER PUSH20 0xFFFFFFFFFFFFFFFFFFFFFFFFFFFFFFFFFFFFFFFF AND DUP3 PUSH1 0x40 MLOAD PUSH2 0x847 SWAP1 PUSH2 0x138A JUMP JUMPDEST PUSH0 PUSH1 0x40 MLOAD DUP1 DUP4 SUB DUP2 DUP6 DUP8 GAS CALL SWAP3 POP POP POP RETURNDATASIZE DUP1 PUSH0 DUP2 EQ PUSH2 0x881 JUMPI PUSH1 0x40 MLOAD SWAP2 POP PUSH1 0x1F NOT PUSH1 0x3F RETURNDATASIZE ADD AND DUP3 ADD PUSH1 0x40 MSTORE RETURNDATASIZE DUP3 MSTORE RETURNDATASIZE PUSH0 PUSH1 0x20 DUP5 ADD RETURNDATACOPY PUSH2 0x886 JUMP JUMPDEST PUSH1 0x60 SWAP2 POP JUMPDEST POP POP SWAP1 POP DUP1 PUSH2 0x8CA JUMPI PUSH1 0x40 MLOAD PUSH32 0x8C379A000000000000000000000000000000000000000000000000000000000 DUP2 MSTORE PUSH1 0x4 ADD PUSH2 0x8C1 SWAP1 PUSH2 0x13E8 JUMP JUMPDEST PUSH1 0x40 MLOAD DUP1 SWAP2 SUB SWAP1 REVERT JUMPDEST CALLER PUSH20 0xFFFFFFFFFFFFFFFFFFFFFFFFFFFFFFFFFFFFFFFF AND PUSH32 0xF42CF8C29487B42C009006CBA2A2A0CA0388229F3183E6E957E0A0B163585CB4 DUP4 PUSH1 0x40 MLOAD PUSH2 0x910 SWAP2 SWAP1 PUSH2 0xE16 JUMP JUMPDEST PUSH1 0x40 MLOAD DUP1 SWAP2 SUB SWAP1 LOG2 POP POP POP JUMPDEST POP POP POP POP POP JUMP JUMPDEST PUSH0 PUSH0 PUSH1 0x2 PUSH0 SWAP1 SLOAD SWAP1 PUSH2 0x100 EXP SWAP1 DIV PUSH20 0xFFFFFFFFFFFFFFFFFFFFFFFFFFFFFFFFFFFFFFFF AND PUSH20 0xFFFFFFFFFFFFFFFFFFFFFFFFFFFFFFFFFFFFFFFF AND PUSH4 0xFEAF968C PUSH1 0x40 MLOAD DUP2 PUSH4 0xFFFFFFFF AND PUSH1 0xE0 SHL DUP2 MSTORE PUSH1 0x4 ADD PUSH1 0xA0 PUSH1 0x40 MLOAD DUP1 DUP4 SUB DUP2 DUP7 GAS STATICCALL ISZERO DUP1 ISZERO PUSH2 0x98F JUMPI RETURNDATASIZE PUSH0 PUSH0 RETURNDATACOPY RETURNDATASIZE PUSH0 REVERT JUMPDEST POP POP POP POP PUSH1 0x40 MLOAD RETURNDATASIZE PUSH1 0x1F NOT PUSH1 0x1F DUP3 ADD AND DUP3 ADD DUP1 PUSH1 0x40 MSTORE POP DUP2 ADD SWAP1 PUSH2 0x9B3 SWAP2 SWAP1 PUSH2 0xFE3 JUMP JUMPDEST POP POP POP SWAP2 POP POP PUSH0 DUP2 SGT PUSH2 0x9FB JUMPI PUSH1 0x40 MLOAD PUSH32 0x8C379A000000000000000000000000000000000000000000000000000000000 DUP2 MSTORE PUSH1 0x4 ADD PUSH2 0x9F2 SWAP1 PUSH2 0x1450 JUMP JUMPDEST PUSH1 0x40 MLOAD DUP1 SWAP2 SUB SWAP1 REVERT JUMPDEST PUSH5 0x2540BE400 DUP2 PUSH2 0xA0C SWAP2 SWAP1 PUSH2 0x12BF JUMP JUMPDEST SWAP2 POP POP SWAP1 JUMP JUMPDEST PUSH2 0xA1A PUSH2 0xCAF JUMP JUMPDEST PUSH2 0xA23 PUSH0 PUSH2 0xD36 JUMP JUMPDEST JUMP JUMPDEST PUSH1 0x32 DUP2 JUMP JUMPDEST PUSH1 0x3 PUSH1 0x20 MSTORE DUP1 PUSH0 MSTORE PUSH1 0x40 PUSH0 KECCAK256 PUSH0 SWAP2 POP SLOAD SWAP1 PUSH2 0x100 EXP SWAP1 DIV PUSH1 0xFF AND DUP2 JUMP JUMPDEST PUSH0 PUSH0 PUSH0 SWAP1 SLOAD SWAP1 PUSH2 0x100 EXP SWAP1 DIV PUSH20 0xFFFFFFFFFFFFFFFFFFFFFFFFFFFFFFFFFFFFFFFF AND SWAP1 POP SWAP1 JUMP JUMPDEST PUSH1 0x4 PUSH1 0x20 MSTORE DUP1 PUSH0 MSTORE PUSH1 0x40 PUSH0 KECCAK256 PUSH0 SWAP2 POP SWAP1 POP SLOAD DUP2 JUMP JUMPDEST PUSH2 0x1F4 DUP2 JUMP JUMPDEST PUSH0 PUSH2 0xA92 PUSH2 0x923 JUMP JUMPDEST SWAP1 POP PUSH0 DUP2 PUSH8 0xDE0B6B3A7640000 PUSH1 0xA PUSH2 0xAAB SWAP2 SWAP1 PUSH2 0x12BF JUMP JUMPDEST PUSH2 0xAB5 SWAP2 SWAP1 PUSH2 0x132D JUMP JUMPDEST SWAP1 POP DUP1 CALLVALUE LT ISZERO PUSH2 0xAFA JUMPI PUSH1 0x40 MLOAD PUSH32 0x8C379A000000000000000000000000000000000000000000000000000000000 DUP2 MSTORE PUSH1 0x4 ADD PUSH2 0xAF1 SWAP1 PUSH2 0x14B8 JUMP JUMPDEST PUSH1 0x40 MLOAD DUP1 SWAP2 SUB SWAP1 REVERT JUMPDEST PUSH1 0x3 PUSH0 CALLER PUSH20 0xFFFFFFFFFFFFFFFFFFFFFFFFFFFFFFFFFFFFFFFF AND PUSH20 0xFFFFFFFFFFFFFFFFFFFFFFFFFFFFFFFFFFFFFFFF AND DUP2 MSTORE PUSH1 0x20 ADD SWAP1 DUP2 MSTORE PUSH1 0x20 ADD PUSH0 KECCAK256 PUSH0 SWAP1 SLOAD SWAP1 PUSH2 0x100 EXP SWAP1 DIV PUSH1 0xFF AND ISZERO PUSH2 0xB84 JUMPI PUSH1 0x40 MLOAD PUSH32 0x8C379A000000000000000000000000000000000000000000000000000000000 DUP2 MSTORE PUSH1 0x4 ADD PUSH2 0xB7B SWAP1 PUSH2 0x1520 JUMP JUMPDEST PUSH1 0x40 MLOAD DUP1 SWAP2 SUB SWAP1 REVERT JUMPDEST PUSH1 0x1 PUSH1 0x3 PUSH0 CALLER PUSH20 0xFFFFFFFFFFFFFFFFFFFFFFFFFFFFFFFFFFFFFFFF AND PUSH20 0xFFFFFFFFFFFFFFFFFFFFFFFFFFFFFFFFFFFFFFFF AND DUP2 MSTORE PUSH1 0x20 ADD SWAP1 DUP2 MSTORE PUSH1 0x20 ADD PUSH0 KECCAK256 PUSH0 PUSH2 0x100 EXP DUP2 SLOAD DUP2 PUSH1 0xFF MUL NOT AND SWAP1 DUP4 ISZERO ISZERO MUL OR SWAP1 SSTORE POP CALLER PUSH20 0xFFFFFFFFFFFFFFFFFFFFFFFFFFFFFFFFFFFFFFFF AND PUSH32 0x4B58308DF033561E43D2C0227B19BEA93AE78A05DF784C985482B3FB7E154610 CALLVALUE PUSH1 0x40 MLOAD PUSH2 0xC1F SWAP2 SWAP1 PUSH2 0xE16 JUMP JUMPDEST PUSH1 0x40 MLOAD DUP1 SWAP2 SUB SWAP1 LOG2 POP POP JUMP JUMPDEST PUSH2 0xC33 PUSH2 0xCAF JUMP JUMPDEST PUSH0 PUSH20 0xFFFFFFFFFFFFFFFFFFFFFFFFFFFFFFFFFFFFFFFF AND DUP2 PUSH20 0xFFFFFFFFFFFFFFFFFFFFFFFFFFFFFFFFFFFFFFFF AND SUB PUSH2 0xCA3 JUMPI PUSH0 PUSH1 0x40 MLOAD PUSH32 0x1E4FBDF700000000000000000000000000000000000000000000000000000000 DUP2 MSTORE PUSH1 0x4 ADD PUSH2 0xC9A SWAP2 SWAP1 PUSH2 0xF2E JUMP JUMPDEST PUSH1 0x40 MLOAD DUP1 SWAP2 SUB SWAP1 REVERT JUMPDEST PUSH2 0xCAC DUP2 PUSH2 0xD36 JUMP JUMPDEST POP JUMP JUMPDEST PUSH2 0xCB7 PUSH2 0xDF7 JUMP JUMPDEST PUSH20 0xFFFFFFFFFFFFFFFFFFFFFFFFFFFFFFFFFFFFFFFF AND PUSH2 0xCD5 PUSH2 0xA47 JUMP JUMPDEST PUSH20 0xFFFFFFFFFFFFFFFFFFFFFFFFFFFFFFFFFFFFFFFF AND EQ PUSH2 0xD34 JUMPI PUSH2 0xCF8 PUSH2 0xDF7 JUMP JUMPDEST PUSH1 0x40 MLOAD PUSH32 0x118CDAA700000000000000000000000000000000000000000000000000000000 DUP2 MSTORE PUSH1 0x4 ADD PUSH2 0xD2B SWAP2 SWAP1 PUSH2 0xF2E JUMP JUMPDEST PUSH1 0x40 MLOAD DUP1 SWAP2 SUB SWAP1 REVERT JUMPDEST JUMP JUMPDEST PUSH0 PUSH0 PUSH0 SWAP1 SLOAD SWAP1 PUSH2 0x100 EXP SWAP1 DIV PUSH20 0xFFFFFFFFFFFFFFFFFFFFFFFFFFFFFFFFFFFFFFFF AND SWAP1 POP DUP2 PUSH0 PUSH0 PUSH2 0x100 EXP DUP2 SLOAD DUP2 PUSH20 0xFFFFFFFFFFFFFFFFFFFFFFFFFFFFFFFFFFFFFFFF MUL NOT AND SWAP1 DUP4 PUSH20 0xFFFFFFFFFFFFFFFFFFFFFFFFFFFFFFFFFFFFFFFF AND MUL OR SWAP1 SSTORE POP DUP2 PUSH20 0xFFFFFFFFFFFFFFFFFFFFFFFFFFFFFFFFFFFFFFFF AND DUP2 PUSH20 0xFFFFFFFFFFFFFFFFFFFFFFFFFFFFFFFFFFFFFFFF AND PUSH32 0x8BE0079C531659141344CD1FD0A4F28419497F9722A3DAAFE3B4186F6B6457E0 PUSH1 0x40 MLOAD PUSH1 0x40 MLOAD DUP1 SWAP2 SUB SWAP1 LOG3 POP POP JUMP JUMPDEST PUSH0 CALLER SWAP1 POP SWAP1 JUMP JUMPDEST PUSH0 DUP2 SWAP1 POP SWAP2 SWAP1 POP JUMP JUMPDEST PUSH2 0xE10 DUP2 PUSH2 0xDFE JUMP JUMPDEST DUP3 MSTORE POP POP JUMP JUMPDEST PUSH0 PUSH1 0x20 DUP3 ADD SWAP1 POP PUSH2 0xE29 PUSH0 DUP4 ADD DUP5 PUSH2 0xE07 JUMP JUMPDEST SWAP3 SWAP2 POP POP JUMP JUMPDEST PUSH0 PUSH1 0xFF DUP3 AND SWAP1 POP SWAP2 SWAP1 POP JUMP JUMPDEST PUSH2 0xE44 DUP2 PUSH2 0xE2F JUMP JUMPDEST DUP3 MSTORE POP POP JUMP JUMPDEST PUSH0 PUSH1 0x20 DUP3 ADD SWAP1 POP PUSH2 0xE5D PUSH0 DUP4 ADD DUP5 PUSH2 0xE3B JUMP JUMPDEST SWAP3 SWAP2 POP POP JUMP JUMPDEST PUSH0 PUSH0 REVERT JUMPDEST PUSH0 PUSH20 0xFFFFFFFFFFFFFFFFFFFFFFFFFFFFFFFFFFFFFFFF DUP3 AND SWAP1 POP SWAP2 SWAP1 POP JUMP JUMPDEST PUSH0 PUSH2 0xE90 DUP3 PUSH2 0xE67 JUMP JUMPDEST SWAP1 POP SWAP2 SWAP1 POP JUMP JUMPDEST PUSH2 0xEA0 DUP2 PUSH2 0xE86 JUMP JUMPDEST DUP2 EQ PUSH2 0xEAA JUMPI PUSH0 PUSH0 REVERT JUMPDEST POP JUMP JUMPDEST PUSH0 DUP2 CALLDATALOAD SWAP1 POP PUSH2 0xEBB DUP2 PUSH2 0xE97 JUMP JUMPDEST SWAP3 SWAP2 POP POP JUMP JUMPDEST PUSH0 PUSH1 0x20 DUP3 DUP5 SUB SLT ISZERO PUSH2 0xED6 JUMPI PUSH2 0xED5 PUSH2 0xE63 JUMP JUMPDEST JUMPDEST PUSH0 PUSH2 0xEE3 DUP5 DUP3 DUP6 ADD PUSH2 0xEAD JUMP JUMPDEST SWAP2 POP POP SWAP3 SWAP2 POP POP JUMP JUMPDEST PUSH0 DUP2 ISZERO ISZERO SWAP1 POP SWAP2 SWAP1 POP JUMP JUMPDEST PUSH2 0xF00 DUP2 PUSH2 0xEEC JUMP JUMPDEST DUP3 MSTORE POP POP JUMP JUMPDEST PUSH0 PUSH1 0x20 DUP3 ADD SWAP1 POP PUSH2 0xF19 PUSH0 DUP4 ADD DUP5 PUSH2 0xEF7 JUMP JUMPDEST SWAP3 SWAP2 POP POP JUMP JUMPDEST PUSH2 0xF28 DUP2 PUSH2 0xE86 JUMP JUMPDEST DUP3 MSTORE POP POP JUMP JUMPDEST PUSH0 PUSH1 0x20 DUP3 ADD SWAP1 POP PUSH2 0xF41 PUSH0 DUP4 ADD DUP5 PUSH2 0xF1F JUMP JUMPDEST SWAP3 SWAP2 POP POP JUMP JUMPDEST PUSH0 PUSH10 0xFFFFFFFFFFFFFFFFFFFF DUP3 AND SWAP1 POP SWAP2 SWAP1 POP JUMP JUMPDEST PUSH2 0xF65 DUP2 PUSH2 0xF47 JUMP JUMPDEST DUP2 EQ PUSH2 0xF6F JUMPI PUSH0 PUSH0 REVERT JUMPDEST POP JUMP JUMPDEST PUSH0 DUP2 MLOAD SWAP1 POP PUSH2 0xF80 DUP2 PUSH2 0xF5C JUMP JUMPDEST SWAP3 SWAP2 POP POP JUMP JUMPDEST PUSH0 DUP2 SWAP1 POP SWAP2 SWAP1 POP JUMP JUMPDEST PUSH2 0xF98 DUP2 PUSH2 0xF86 JUMP JUMPDEST DUP2 EQ PUSH2 0xFA2 JUMPI PUSH0 PUSH0 REVERT JUMPDEST POP JUMP JUMPDEST PUSH0 DUP2 MLOAD SWAP1 POP PUSH2 0xFB3 DUP2 PUSH2 0xF8F JUMP JUMPDEST SWAP3 SWAP2 POP POP JUMP JUMPDEST PUSH2 0xFC2 DUP2 PUSH2 0xDFE JUMP JUMPDEST DUP2 EQ PUSH2 0xFCC JUMPI PUSH0 PUSH0 REVERT JUMPDEST POP JUMP JUMPDEST PUSH0 DUP2 MLOAD SWAP1 POP PUSH2 0xFDD DUP2 PUSH2 0xFB9 JUMP JUMPDEST SWAP3 SWAP2 POP POP JUMP JUMPDEST PUSH0 PUSH0 PUSH0 PUSH0 PUSH0 PUSH1 0xA0 DUP7 DUP9 SUB SLT ISZERO PUSH2 0xFFC JUMPI PUSH2 0xFFB PUSH2 0xE63 JUMP JUMPDEST JUMPDEST PUSH0 PUSH2 0x1009 DUP9 DUP3 DUP10 ADD PUSH2 0xF72 JUMP JUMPDEST SWAP6 POP POP PUSH1 0x20 PUSH2 0x101A DUP9 DUP3 DUP10 ADD PUSH2 0xFA5 JUMP JUMPDEST SWAP5 POP POP PUSH1 0x40 PUSH2 0x102B DUP9 DUP3 DUP10 ADD PUSH2 0xFCF JUMP JUMPDEST SWAP4 POP POP PUSH1 0x60 PUSH2 0x103C DUP9 DUP3 DUP10 ADD PUSH2 0xFCF JUMP JUMPDEST SWAP3 POP POP PUSH1 0x80 PUSH2 0x104D DUP9 DUP3 DUP10 ADD PUSH2 0xF72 JUMP JUMPDEST SWAP2 POP POP SWAP3 SWAP6 POP SWAP3 SWAP6 SWAP1 SWAP4 POP JUMP JUMPDEST PUSH2 0x1063 DUP2 PUSH2 0xE2F JUMP JUMPDEST DUP2 EQ PUSH2 0x106D JUMPI PUSH0 PUSH0 REVERT JUMPDEST POP JUMP JUMPDEST PUSH0 DUP2 MLOAD SWAP1 POP PUSH2 0x107E DUP2 PUSH2 0x105A JUMP JUMPDEST SWAP3 SWAP2 POP POP JUMP JUMPDEST PUSH0 PUSH1 0x20 DUP3 DUP5 SUB SLT ISZERO PUSH2 0x1099 JUMPI PUSH2 0x1098 PUSH2 0xE63 JUMP JUMPDEST JUMPDEST PUSH0 PUSH2 0x10A6 DUP5 DUP3 DUP6 ADD PUSH2 0x1070 JUMP JUMPDEST SWAP2 POP POP SWAP3 SWAP2 POP POP JUMP JUMPDEST PUSH0 DUP3 DUP3 MSTORE PUSH1 0x20 DUP3 ADD SWAP1 POP SWAP3 SWAP2 POP POP JUMP JUMPDEST PUSH32 0x4E6F2061637469766520696E737572616E636500000000000000000000000000 PUSH0 DUP3 ADD MSTORE POP JUMP JUMPDEST PUSH0 PUSH2 0x10F3 PUSH1 0x13 DUP4 PUSH2 0x10AF JUMP JUMPDEST SWAP2 POP PUSH2 0x10FE DUP3 PUSH2 0x10BF JUMP JUMPDEST PUSH1 0x20 DUP3 ADD SWAP1 POP SWAP2 SWAP1 POP JUMP JUMPDEST PUSH0 PUSH1 0x20 DUP3 ADD SWAP1 POP DUP2 DUP2 SUB PUSH0 DUP4 ADD MSTORE PUSH2 0x1120 DUP2 PUSH2 0x10E7 JUMP JUMPDEST SWAP1 POP SWAP2 SWAP1 POP JUMP JUMPDEST PUSH32 0x4E487B7100000000000000000000000000000000000000000000000000000000 PUSH0 MSTORE PUSH1 0x11 PUSH1 0x4 MSTORE PUSH1 0x24 PUSH0 REVERT JUMPDEST PUSH0 PUSH2 0x115E DUP3 PUSH2 0xDFE JUMP JUMPDEST SWAP2 POP PUSH2 0x1169 DUP4 PUSH2 0xDFE JUMP JUMPDEST SWAP3 POP DUP3 DUP3 ADD SWAP1 POP DUP1 DUP3 GT ISZERO PUSH2 0x1181 JUMPI PUSH2 0x1180 PUSH2 0x1127 JUMP JUMPDEST JUMPDEST SWAP3 SWAP2 POP POP JUMP JUMPDEST PUSH32 0x4D757374207761697420323468206265747765656E20636C61696D7300000000 PUSH0 DUP3 ADD MSTORE POP JUMP JUMPDEST PUSH0 PUSH2 0x11BB PUSH1 0x1C DUP4 PUSH2 0x10AF JUMP JUMPDEST SWAP2 POP PUSH2 0x11C6 DUP3 PUSH2 0x1187 JUMP JUMPDEST PUSH1 0x20 DUP3 ADD SWAP1 POP SWAP2 SWAP1 POP JUMP JUMPDEST PUSH0 PUSH1 0x20 DUP3 ADD SWAP1 POP DUP2 DUP2 SUB PUSH0 DUP4 ADD MSTORE PUSH2 0x11E8 DUP2 PUSH2 0x11AF JUMP JUMPDEST SWAP1 POP SWAP2 SWAP1 POP JUMP JUMPDEST PUSH32 0x526F756E64206E6F7420636F6D706C6574650000000000000000000000000000 PUSH0 DUP3 ADD MSTORE POP JUMP JUMPDEST PUSH0 PUSH2 0x1223 PUSH1 0x12 DUP4 PUSH2 0x10AF JUMP JUMPDEST SWAP2 POP PUSH2 0x122E DUP3 PUSH2 0x11EF JUMP JUMPDEST PUSH1 0x20 DUP3 ADD SWAP1 POP SWAP2 SWAP1 POP JUMP JUMPDEST PUSH0 PUSH1 0x20 DUP3 ADD SWAP1 POP DUP2 DUP2 SUB PUSH0 DUP4 ADD MSTORE PUSH2 0x1250 DUP2 PUSH2 0x1217 JUMP JUMPDEST SWAP1 POP SWAP2 SWAP1 POP JUMP JUMPDEST PUSH32 0x5374616C65206461746100000000000000000000000000000000000000000000 PUSH0 DUP3 ADD MSTORE POP JUMP JUMPDEST PUSH0 PUSH2 0x128B PUSH1 0xA DUP4 PUSH2 0x10AF JUMP JUMPDEST SWAP2 POP PUSH2 0x1296 DUP3 PUSH2 0x1257 JUMP JUMPDEST PUSH1 0x20 DUP3 ADD SWAP1 POP SWAP2 SWAP1 POP JUMP JUMPDEST PUSH0 PUSH1 0x20 DUP3 ADD SWAP1 POP DUP2 DUP2 SUB PUSH0 DUP4 ADD MSTORE PUSH2 0x12B8 DUP2 PUSH2 0x127F JUMP JUMPDEST SWAP1 POP SWAP2 SWAP1 POP JUMP JUMPDEST PUSH0 PUSH2 0x12C9 DUP3 PUSH2 0xDFE JUMP JUMPDEST SWAP2 POP PUSH2 0x12D4 DUP4 PUSH2 0xDFE JUMP JUMPDEST SWAP3 POP DUP3 DUP3 MUL PUSH2 0x12E2 DUP2 PUSH2 0xDFE JUMP JUMPDEST SWAP2 POP DUP3 DUP3 DIV DUP5 EQ DUP4 ISZERO OR PUSH2 0x12F9 JUMPI PUSH2 0x12F8 PUSH2 0x1127 JUMP JUMPDEST JUMPDEST POP SWAP3 SWAP2 POP POP JUMP JUMPDEST PUSH32 0x4E487B7100000000000000000000000000000000000000000000000000000000 PUSH0 MSTORE PUSH1 0x12 PUSH1 0x4 MSTORE PUSH1 0x24 PUSH0 REVERT JUMPDEST PUSH0 PUSH2 0x1337 DUP3 PUSH2 0xDFE JUMP JUMPDEST SWAP2 POP PUSH2 0x1342 DUP4 PUSH2 0xDFE JUMP JUMPDEST SWAP3 POP DUP3 PUSH2 0x1352 JUMPI PUSH2 0x1351 PUSH2 0x1300 JUMP JUMPDEST JUMPDEST DUP3 DUP3 DIV SWAP1 POP SWAP3 SWAP2 POP POP JUMP JUMPDEST PUSH0 DUP2 SWAP1 POP SWAP3 SWAP2 POP POP JUMP JUMPDEST POP JUMP JUMPDEST PUSH0 PUSH2 0x1375 PUSH0 DUP4 PUSH2 0x135D JUMP JUMPDEST SWAP2 POP PUSH2 0x1380 DUP3 PUSH2 0x1367 JUMP JUMPDEST PUSH0 DUP3 ADD SWAP1 POP SWAP2 SWAP1 POP JUMP JUMPDEST PUSH0 PUSH2 0x1394 DUP3 PUSH2 0x136A JUMP JUMPDEST SWAP2 POP DUP2 SWAP1 POP SWAP2 SWAP1 POP JUMP JUMPDEST PUSH32 0x5472616E73666572206661696C65640000000000000000000000000000000000 PUSH0 DUP3 ADD MSTORE POP JUMP JUMPDEST PUSH0 PUSH2 0x13D2 PUSH1 0xF DUP4 PUSH2 0x10AF JUMP JUMPDEST SWAP2 POP PUSH2 0x13DD DUP3 PUSH2 0x139E JUMP JUMPDEST PUSH1 0x20 DUP3 ADD SWAP1 POP SWAP2 SWAP1 POP JUMP JUMPDEST PUSH0 PUSH1 0x20 DUP3 ADD SWAP1 POP DUP2 DUP2 SUB PUSH0 DUP4 ADD MSTORE PUSH2 0x13FF DUP2 PUSH2 0x13C6 JUMP JUMPDEST SWAP1 POP SWAP2 SWAP1 POP JUMP JUMPDEST PUSH32 0x507269636520666565642072657475726E656420696E76616C69642064617461 PUSH0 DUP3 ADD MSTORE POP JUMP JUMPDEST PUSH0 PUSH2 0x143A PUSH1 0x20 DUP4 PUSH2 0x10AF JUMP JUMPDEST SWAP2 POP PUSH2 0x1445 DUP3 PUSH2 0x1406 JUMP JUMPDEST PUSH1 0x20 DUP3 ADD SWAP1 POP SWAP2 SWAP1 POP JUMP JUMPDEST PUSH0 PUSH1 0x20 DUP3 ADD SWAP1 POP DUP2 DUP2 SUB PUSH0 DUP4 ADD MSTORE PUSH2 0x1467 DUP2 PUSH2 0x142E JUMP JUMPDEST SWAP1 POP SWAP2 SWAP1 POP JUMP JUMPDEST PUSH32 0x496E73756666696369656E74207072656D69756D20616D6F756E740000000000 PUSH0 DUP3 ADD MSTORE POP JUMP JUMPDEST PUSH0 PUSH2 0x14A2 PUSH1 0x1B DUP4 PUSH2 0x10AF JUMP JUMPDEST SWAP2 POP PUSH2 0x14AD DUP3 PUSH2 0x146E JUMP JUMPDEST PUSH1 0x20 DUP3 ADD SWAP1 POP SWAP2 SWAP1 POP JUMP JUMPDEST PUSH0 PUSH1 0x20 DUP3 ADD SWAP1 POP DUP2 DUP2 SUB PUSH0 DUP4 ADD MSTORE PUSH2 0x14CF DUP2 PUSH2 0x1496 JUMP JUMPDEST SWAP1 POP SWAP2 SWAP1 POP JUMP JUMPDEST PUSH32 0x416C726561647920696E73757265640000000000000000000000000000000000 PUSH0 DUP3 ADD MSTORE POP JUMP JUMPDEST PUSH0 PUSH2 0x150A PUSH1 0xF DUP4 PUSH2 0x10AF JUMP JUMPDEST SWAP2 POP PUSH2 0x1515 DUP3 PUSH2 0x14D6 JUMP JUMPDEST PUSH1 0x20 DUP3 ADD SWAP1 POP SWAP2 SWAP1 POP JUMP JUMPDEST PUSH0 PUSH1 0x20 DUP3 ADD SWAP1 POP DUP2 DUP2 SUB PUSH0 DUP4 ADD MSTORE PUSH2 0x1537 DUP2 PUSH2 0x14FE JUMP JUMPDEST SWAP1 POP SWAP2 SWAP1 POP JUMP INVALID LOG2 PUSH5 0x6970667358 0x22 SLT KECCAK256 DUP12 SWAP4 RJUMP 0xBAD0 MULMOD RETURNDATASIZE STOP SMOD EXTCODEHASH 0xC8 DUP3 MUL DUP11 0xF7 0xB0 PUSH21 0x5079CD70A995317C2B71381C9ADF664736F6C6343 STOP ADDMOD 0x1E STOP CALLER "
				},
				"gasEstimates": {
					"creation": {
						"codeDepositCost": "1098400",
						"executionCost": "infinite",
						"totalCost": "infinite"
					},
					"external": {
						"INSURANCE_PAYOUT_USD()": "370",
						"INSURANCE_PREMIUM_USD()": "393",
						"RAINFALL_THRESHOLD()": "369",
						"checkDecimals()": "infinite",
						"checkRainfallAndClaim()": "infinite",
						"getBalance()": "380",
						"getCurrentRainfall()": "infinite",
						"getEthPrice()": "infinite",
						"hasInsurance(address)": "2900",
						"lastClaimTimestamp(address)": "2824",
						"owner()": "2603",
						"purchaseInsurance()": "infinite",
						"renounceOwnership()": "infinite",
						"transferOwnership(address)": "infinite",
						"withdraw()": "infinite"
					}
				},
				"methodIdentifiers": {
					"INSURANCE_PAYOUT_USD()": "7c77e15c",
					"INSURANCE_PREMIUM_USD()": "16731b24",
					"RAINFALL_THRESHOLD()": "c5f60e82",
					"checkDecimals()": "5781c552",
					"checkRainfallAndClaim()": "60550d7a",
					"getBalance()": "12065fe0",
					"getCurrentRainfall()": "0c15c365",
					"getEthPrice()": "67c9b017",
					"hasInsurance(address)": "8cd42316",
					"lastClaimTimestamp(address)": "bd9d518b",
					"owner()": "8da5cb5b",
					"purchaseInsurance()": "edb8fb44",
					"renounceOwnership()": "715018a6",
					"transferOwnership(address)": "f2fde38b",
					"withdraw()": "3ccfd60b"
				}
			},
			"storageLayout": {
				"storage": [
					{
						"astId": 54,
						"contract": "submissions/Serena Y/Day18-CropInsurance.sol:CropInsurance",
						"label": "_owner",
						"offset": 0,
						"slot": "0",
						"type": "t_address"
					},
					{
						"astId": 232,
						"contract": "submissions/Serena Y/Day18-CropInsurance.sol:CropInsurance",
						"label": "weatherOracle",
						"offset": 0,
						"slot": "1",
						"type": "t_contract(AggregatorV3Interface)45"
					},
					{
						"astId": 235,
						"contract": "submissions/Serena Y/Day18-CropInsurance.sol:CropInsurance",
						"label": "ethUsdPriceFeed",
						"offset": 0,
						"slot": "2",
						"type": "t_contract(AggregatorV3Interface)45"
					},
					{
						"astId": 248,
						"contract": "submissions/Serena Y/Day18-CropInsurance.sol:CropInsurance",
						"label": "hasInsurance",
						"offset": 0,
						"slot": "3",
						"type": "t_mapping(t_address,t_bool)"
					},
					{
						"astId": 252,
						"contract": "submissions/Serena Y/Day18-CropInsurance.sol:CropInsurance",
						"label": "lastClaimTimestamp",
						"offset": 0,
						"slot": "4",
						"type": "t_mapping(t_address,t_uint256)"
					}
				],
				"types": {
					"t_address": {
						"encoding": "inplace",
						"label": "address",
						"numberOfBytes": "20"
					},
					"t_bool": {
						"encoding": "inplace",
						"label": "bool",
						"numberOfBytes": "1"
					},
					"t_contract(AggregatorV3Interface)45": {
						"encoding": "inplace",
						"label": "contract AggregatorV3Interface",
						"numberOfBytes": "20"
					},
					"t_mapping(t_address,t_bool)": {
						"encoding": "mapping",
						"key": "t_address",
						"label": "mapping(address => bool)",
						"numberOfBytes": "32",
						"value": "t_bool"
					},
					"t_mapping(t_address,t_uint256)": {
						"encoding": "mapping",
						"key": "t_address",
						"label": "mapping(address => uint256)",
						"numberOfBytes": "32",
						"value": "t_uint256"
					},
					"t_uint256": {
						"encoding": "inplace",
						"label": "uint256",
						"numberOfBytes": "32"
					}
				}
			},
			"userdoc": {
				"kind": "user",
				"methods": {},
				"version": 1
			}
		}
	}
}