{
	"submissions/0xFancy/day4.sol": {
		"AuctionHouse": {
			"abi": [
				{
					"inputs": [
						{
							"internalType": "string",
							"name": "_item",
							"type": "string"
						},
						{
							"internalType": "uint256",
							"name": "_biddingTime",
							"type": "uint256"
						}
					],
					"stateMutability": "nonpayable",
					"type": "constructor"
				},
				{
					"inputs": [],
					"name": "auctionendtime",
					"outputs": [
						{
							"internalType": "uint256",
							"name": "",
							"type": "uint256"
						}
					],
					"stateMutability": "view",
					"type": "function"
				},
				{
					"inputs": [
						{
							"internalType": "uint256",
							"name": "amount",
							"type": "uint256"
						}
					],
					"name": "bid",
					"outputs": [],
					"stateMutability": "nonpayable",
					"type": "function"
				},
				{
					"inputs": [
						{
							"internalType": "uint256",
							"name": "",
							"type": "uint256"
						}
					],
					"name": "bidders",
					"outputs": [
						{
							"internalType": "address",
							"name": "",
							"type": "address"
						}
					],
					"stateMutability": "view",
					"type": "function"
				},
				{
					"inputs": [
						{
							"internalType": "address",
							"name": "",
							"type": "address"
						}
					],
					"name": "bids",
					"outputs": [
						{
							"internalType": "uint256",
							"name": "",
							"type": "uint256"
						}
					],
					"stateMutability": "view",
					"type": "function"
				},
				{
					"inputs": [],
					"name": "endAuction",
					"outputs": [],
					"stateMutability": "nonpayable",
					"type": "function"
				},
				{
					"inputs": [],
					"name": "ended",
					"outputs": [
						{
							"internalType": "bool",
							"name": "",
							"type": "bool"
						}
					],
					"stateMutability": "view",
					"type": "function"
				},
				{
					"inputs": [],
					"name": "getAllBidders",
					"outputs": [
						{
							"internalType": "address[]",
							"name": "",
							"type": "address[]"
						}
					],
					"stateMutability": "view",
					"type": "function"
				},
				{
					"inputs": [],
					"name": "getWinner",
					"outputs": [
						{
							"internalType": "address",
							"name": "",
							"type": "address"
						},
						{
							"internalType": "uint256",
							"name": "",
							"type": "uint256"
						}
					],
					"stateMutability": "view",
					"type": "function"
				},
				{
					"inputs": [],
					"name": "item",
					"outputs": [
						{
							"internalType": "string",
							"name": "",
							"type": "string"
						}
					],
					"stateMutability": "view",
					"type": "function"
				},
				{
					"inputs": [],
					"name": "owner",
					"outputs": [
						{
							"internalType": "address",
							"name": "",
							"type": "address"
						}
					],
					"stateMutability": "view",
					"type": "function"
				}
			],
			"devdoc": {
				"kind": "dev",
				"methods": {},
				"version": 1
			},
			"evm": {
				"assembly": "    /* \"submissions/0xFancy/day4.sol\":57:1497  contract AuctionHouse{... */\n  mstore(0x40, 0x80)\n    /* \"submissions/0xFancy/day4.sol\":325:490  constructor(string memory _item, uint _biddingTime){... */\n  callvalue\n  dup1\n  iszero\n  tag_1\n  jumpi\n  revert(0x00, 0x00)\ntag_1:\n  pop\n  mload(0x40)\n  sub(codesize, bytecodeSize)\n  dup1\n  bytecodeSize\n  dup4\n  codecopy\n  dup2\n  dup2\n  add\n  0x40\n  mstore\n  dup2\n  add\n  swap1\n  tag_2\n  swap2\n  swap1\n  tag_3\n  jump\t// in\ntag_2:\n    /* \"submissions/0xFancy/day4.sol\":394:404  msg.sender */\n  caller\n    /* \"submissions/0xFancy/day4.sol\":386:391  owner */\n  0x00\n  0x00\n    /* \"submissions/0xFancy/day4.sol\":386:404  owner = msg.sender */\n  0x0100\n  exp\n  dup2\n  sload\n  dup2\n  0xffffffffffffffffffffffffffffffffffffffff\n  mul\n  not\n  and\n  swap1\n  dup4\n  0xffffffffffffffffffffffffffffffffffffffff\n  and\n  mul\n  or\n  swap1\n  sstore\n  pop\n    /* \"submissions/0xFancy/day4.sol\":421:426  _item */\n  dup2\n    /* \"submissions/0xFancy/day4.sol\":414:418  item */\n  0x01\n    /* \"submissions/0xFancy/day4.sol\":414:426  item = _item */\n  swap1\n  dup2\n  tag_6\n  swap2\n  swap1\n  tag_7\n  jump\t// in\ntag_6:\n  pop\n    /* \"submissions/0xFancy/day4.sol\":471:483  _biddingTime */\n  dup1\n    /* \"submissions/0xFancy/day4.sol\":453:468  block.timestamp */\n  timestamp\n    /* \"submissions/0xFancy/day4.sol\":453:483  block.timestamp + _biddingTime */\n  tag_8\n  swap2\n  swap1\n  tag_9\n  jump\t// in\ntag_8:\n    /* \"submissions/0xFancy/day4.sol\":436:450  auctionendtime */\n  0x02\n    /* \"submissions/0xFancy/day4.sol\":436:483  auctionendtime = block.timestamp + _biddingTime */\n  dup2\n  swap1\n  sstore\n  pop\n    /* \"submissions/0xFancy/day4.sol\":325:490  constructor(string memory _item, uint _biddingTime){... */\n  pop\n  pop\n    /* \"submissions/0xFancy/day4.sol\":57:1497  contract AuctionHouse{... */\n  jump(tag_10)\n    /* \"#utility.yul\":7:82   */\ntag_11:\n    /* \"#utility.yul\":40:46   */\n  0x00\n    /* \"#utility.yul\":73:75   */\n  0x40\n    /* \"#utility.yul\":67:76   */\n  mload\n    /* \"#utility.yul\":57:76   */\n  swap1\n  pop\n    /* \"#utility.yul\":7:82   */\n  swap1\n  jump\t// out\n    /* \"#utility.yul\":88:205   */\ntag_12:\n    /* \"#utility.yul\":197:198   */\n  0x00\n    /* \"#utility.yul\":194:195   */\n  0x00\n    /* \"#utility.yul\":187:199   */\n  revert\n    /* \"#utility.yul\":211:328   */\ntag_13:\n    /* \"#utility.yul\":320:321   */\n  0x00\n    /* \"#utility.yul\":317:318   */\n  0x00\n    /* \"#utility.yul\":310:322   */\n  revert\n    /* \"#utility.yul\":334:451   */\ntag_14:\n    /* \"#utility.yul\":443:444   */\n  0x00\n    /* \"#utility.yul\":440:441   */\n  0x00\n    /* \"#utility.yul\":433:445   */\n  revert\n    /* \"#utility.yul\":457:574   */\ntag_15:\n    /* \"#utility.yul\":566:567   */\n  0x00\n    /* \"#utility.yul\":563:564   */\n  0x00\n    /* \"#utility.yul\":556:568   */\n  revert\n    /* \"#utility.yul\":580:682   */\ntag_16:\n    /* \"#utility.yul\":621:627   */\n  0x00\n    /* \"#utility.yul\":672:674   */\n  0x1f\n    /* \"#utility.yul\":668:675   */\n  not\n    /* \"#utility.yul\":663:665   */\n  0x1f\n    /* \"#utility.yul\":656:661   */\n  dup4\n    /* \"#utility.yul\":652:666   */\n  add\n    /* \"#utility.yul\":648:676   */\n  and\n    /* \"#utility.yul\":638:676   */\n  swap1\n  pop\n    /* \"#utility.yul\":580:682   */\n  swap2\n  swap1\n  pop\n  jump\t// out\n    /* \"#utility.yul\":688:868   */\ntag_17:\n    /* \"#utility.yul\":736:813   */\n  0x4e487b7100000000000000000000000000000000000000000000000000000000\n    /* \"#utility.yul\":733:734   */\n  0x00\n    /* \"#utility.yul\":726:814   */\n  mstore\n    /* \"#utility.yul\":833:837   */\n  0x41\n    /* \"#utility.yul\":830:831   */\n  0x04\n    /* \"#utility.yul\":823:838   */\n  mstore\n    /* \"#utility.yul\":857:861   */\n  0x24\n    /* \"#utility.yul\":854:855   */\n  0x00\n    /* \"#utility.yul\":847:862   */\n  revert\n    /* \"#utility.yul\":874:1155   */\ntag_18:\n    /* \"#utility.yul\":957:984   */\n  tag_55\n    /* \"#utility.yul\":979:983   */\n  dup3\n    /* \"#utility.yul\":957:984   */\n  tag_16\n  jump\t// in\ntag_55:\n    /* \"#utility.yul\":949:955   */\n  dup2\n    /* \"#utility.yul\":945:985   */\n  add\n    /* \"#utility.yul\":1087:1093   */\n  dup2\n    /* \"#utility.yul\":1075:1085   */\n  dup2\n    /* \"#utility.yul\":1072:1094   */\n  lt\n    /* \"#utility.yul\":1051:1069   */\n  0xffffffffffffffff\n    /* \"#utility.yul\":1039:1049   */\n  dup3\n    /* \"#utility.yul\":1036:1070   */\n  gt\n    /* \"#utility.yul\":1033:1095   */\n  or\n    /* \"#utility.yul\":1030:1118   */\n  iszero\n  tag_56\n  jumpi\n    /* \"#utility.yul\":1098:1116   */\n  tag_57\n  tag_17\n  jump\t// in\ntag_57:\n    /* \"#utility.yul\":1030:1118   */\ntag_56:\n    /* \"#utility.yul\":1138:1148   */\n  dup1\n    /* \"#utility.yul\":1134:1136   */\n  0x40\n    /* \"#utility.yul\":1127:1149   */\n  mstore\n    /* \"#utility.yul\":917:1155   */\n  pop\n    /* \"#utility.yul\":874:1155   */\n  pop\n  pop\n  jump\t// out\n    /* \"#utility.yul\":1161:1290   */\ntag_19:\n    /* \"#utility.yul\":1195:1201   */\n  0x00\n    /* \"#utility.yul\":1222:1242   */\n  tag_59\n  tag_11\n  jump\t// in\ntag_59:\n    /* \"#utility.yul\":1212:1242   */\n  swap1\n  pop\n    /* \"#utility.yul\":1251:1284   */\n  tag_60\n    /* \"#utility.yul\":1279:1283   */\n  dup3\n    /* \"#utility.yul\":1271:1277   */\n  dup3\n    /* \"#utility.yul\":1251:1284   */\n  tag_18\n  jump\t// in\ntag_60:\n    /* \"#utility.yul\":1161:1290   */\n  swap2\n  swap1\n  pop\n  jump\t// out\n    /* \"#utility.yul\":1296:1604   */\ntag_20:\n    /* \"#utility.yul\":1358:1362   */\n  0x00\n    /* \"#utility.yul\":1448:1466   */\n  0xffffffffffffffff\n    /* \"#utility.yul\":1440:1446   */\n  dup3\n    /* \"#utility.yul\":1437:1467   */\n  gt\n    /* \"#utility.yul\":1434:1490   */\n  iszero\n  tag_62\n  jumpi\n    /* \"#utility.yul\":1470:1488   */\n  tag_63\n  tag_17\n  jump\t// in\ntag_63:\n    /* \"#utility.yul\":1434:1490   */\ntag_62:\n    /* \"#utility.yul\":1508:1537   */\n  tag_64\n    /* \"#utility.yul\":1530:1536   */\n  dup3\n    /* \"#utility.yul\":1508:1537   */\n  tag_16\n  jump\t// in\ntag_64:\n    /* \"#utility.yul\":1500:1537   */\n  swap1\n  pop\n    /* \"#utility.yul\":1592:1596   */\n  0x20\n    /* \"#utility.yul\":1586:1590   */\n  dup2\n    /* \"#utility.yul\":1582:1597   */\n  add\n    /* \"#utility.yul\":1574:1597   */\n  swap1\n  pop\n    /* \"#utility.yul\":1296:1604   */\n  swap2\n  swap1\n  pop\n  jump\t// out\n    /* \"#utility.yul\":1610:1749   */\ntag_21:\n    /* \"#utility.yul\":1699:1705   */\n  dup3\n    /* \"#utility.yul\":1694:1697   */\n  dup2\n    /* \"#utility.yul\":1689:1692   */\n  dup4\n    /* \"#utility.yul\":1683:1706   */\n  mcopy\n    /* \"#utility.yul\":1740:1741   */\n  0x00\n    /* \"#utility.yul\":1731:1737   */\n  dup4\n    /* \"#utility.yul\":1726:1729   */\n  dup4\n    /* \"#utility.yul\":1722:1738   */\n  add\n    /* \"#utility.yul\":1715:1742   */\n  mstore\n    /* \"#utility.yul\":1610:1749   */\n  pop\n  pop\n  pop\n  jump\t// out\n    /* \"#utility.yul\":1755:2189   */\ntag_22:\n    /* \"#utility.yul\":1844:1849   */\n  0x00\n    /* \"#utility.yul\":1869:1935   */\n  tag_67\n    /* \"#utility.yul\":1885:1934   */\n  tag_68\n    /* \"#utility.yul\":1927:1933   */\n  dup5\n    /* \"#utility.yul\":1885:1934   */\n  tag_20\n  jump\t// in\ntag_68:\n    /* \"#utility.yul\":1869:1935   */\n  tag_19\n  jump\t// in\ntag_67:\n    /* \"#utility.yul\":1860:1935   */\n  swap1\n  pop\n    /* \"#utility.yul\":1958:1964   */\n  dup3\n    /* \"#utility.yul\":1951:1956   */\n  dup2\n    /* \"#utility.yul\":1944:1965   */\n  mstore\n    /* \"#utility.yul\":1996:2000   */\n  0x20\n    /* \"#utility.yul\":1989:1994   */\n  dup2\n    /* \"#utility.yul\":1985:2001   */\n  add\n    /* \"#utility.yul\":2034:2037   */\n  dup5\n    /* \"#utility.yul\":2025:2031   */\n  dup5\n    /* \"#utility.yul\":2020:2023   */\n  dup5\n    /* \"#utility.yul\":2016:2032   */\n  add\n    /* \"#utility.yul\":2013:2038   */\n  gt\n    /* \"#utility.yul\":2010:2122   */\n  iszero\n  tag_69\n  jumpi\n    /* \"#utility.yul\":2041:2120   */\n  tag_70\n  tag_15\n  jump\t// in\ntag_70:\n    /* \"#utility.yul\":2010:2122   */\ntag_69:\n    /* \"#utility.yul\":2131:2183   */\n  tag_71\n    /* \"#utility.yul\":2176:2182   */\n  dup5\n    /* \"#utility.yul\":2171:2174   */\n  dup3\n    /* \"#utility.yul\":2166:2169   */\n  dup6\n    /* \"#utility.yul\":2131:2183   */\n  tag_21\n  jump\t// in\ntag_71:\n    /* \"#utility.yul\":1850:2189   */\n  pop\n    /* \"#utility.yul\":1755:2189   */\n  swap4\n  swap3\n  pop\n  pop\n  pop\n  jump\t// out\n    /* \"#utility.yul\":2209:2564   */\ntag_23:\n    /* \"#utility.yul\":2276:2281   */\n  0x00\n    /* \"#utility.yul\":2325:2328   */\n  dup3\n    /* \"#utility.yul\":2318:2322   */\n  0x1f\n    /* \"#utility.yul\":2310:2316   */\n  dup4\n    /* \"#utility.yul\":2306:2323   */\n  add\n    /* \"#utility.yul\":2302:2329   */\n  slt\n    /* \"#utility.yul\":2292:2414   */\n  tag_73\n  jumpi\n    /* \"#utility.yul\":2333:2412   */\n  tag_74\n  tag_14\n  jump\t// in\ntag_74:\n    /* \"#utility.yul\":2292:2414   */\ntag_73:\n    /* \"#utility.yul\":2443:2449   */\n  dup2\n    /* \"#utility.yul\":2437:2450   */\n  mload\n    /* \"#utility.yul\":2468:2558   */\n  tag_75\n    /* \"#utility.yul\":2554:2557   */\n  dup5\n    /* \"#utility.yul\":2546:2552   */\n  dup3\n    /* \"#utility.yul\":2539:2543   */\n  0x20\n    /* \"#utility.yul\":2531:2537   */\n  dup7\n    /* \"#utility.yul\":2527:2544   */\n  add\n    /* \"#utility.yul\":2468:2558   */\n  tag_22\n  jump\t// in\ntag_75:\n    /* \"#utility.yul\":2459:2558   */\n  swap2\n  pop\n    /* \"#utility.yul\":2282:2564   */\n  pop\n    /* \"#utility.yul\":2209:2564   */\n  swap3\n  swap2\n  pop\n  pop\n  jump\t// out\n    /* \"#utility.yul\":2570:2647   */\ntag_24:\n    /* \"#utility.yul\":2607:2614   */\n  0x00\n    /* \"#utility.yul\":2636:2641   */\n  dup2\n    /* \"#utility.yul\":2625:2641   */\n  swap1\n  pop\n    /* \"#utility.yul\":2570:2647   */\n  swap2\n  swap1\n  pop\n  jump\t// out\n    /* \"#utility.yul\":2653:2775   */\ntag_25:\n    /* \"#utility.yul\":2726:2750   */\n  tag_78\n    /* \"#utility.yul\":2744:2749   */\n  dup2\n    /* \"#utility.yul\":2726:2750   */\n  tag_24\n  jump\t// in\ntag_78:\n    /* \"#utility.yul\":2719:2724   */\n  dup2\n    /* \"#utility.yul\":2716:2751   */\n  eq\n    /* \"#utility.yul\":2706:2769   */\n  tag_79\n  jumpi\n    /* \"#utility.yul\":2765:2766   */\n  0x00\n    /* \"#utility.yul\":2762:2763   */\n  0x00\n    /* \"#utility.yul\":2755:2767   */\n  revert\n    /* \"#utility.yul\":2706:2769   */\ntag_79:\n    /* \"#utility.yul\":2653:2775   */\n  pop\n  jump\t// out\n    /* \"#utility.yul\":2781:2924   */\ntag_26:\n    /* \"#utility.yul\":2838:2843   */\n  0x00\n    /* \"#utility.yul\":2869:2875   */\n  dup2\n    /* \"#utility.yul\":2863:2876   */\n  mload\n    /* \"#utility.yul\":2854:2876   */\n  swap1\n  pop\n    /* \"#utility.yul\":2885:2918   */\n  tag_81\n    /* \"#utility.yul\":2912:2917   */\n  dup2\n    /* \"#utility.yul\":2885:2918   */\n  tag_25\n  jump\t// in\ntag_81:\n    /* \"#utility.yul\":2781:2924   */\n  swap3\n  swap2\n  pop\n  pop\n  jump\t// out\n    /* \"#utility.yul\":2930:3610   */\ntag_3:\n    /* \"#utility.yul\":3019:3025   */\n  0x00\n    /* \"#utility.yul\":3027:3033   */\n  0x00\n    /* \"#utility.yul\":3076:3078   */\n  0x40\n    /* \"#utility.yul\":3064:3073   */\n  dup4\n    /* \"#utility.yul\":3055:3062   */\n  dup6\n    /* \"#utility.yul\":3051:3074   */\n  sub\n    /* \"#utility.yul\":3047:3079   */\n  slt\n    /* \"#utility.yul\":3044:3163   */\n  iszero\n  tag_83\n  jumpi\n    /* \"#utility.yul\":3082:3161   */\n  tag_84\n  tag_12\n  jump\t// in\ntag_84:\n    /* \"#utility.yul\":3044:3163   */\ntag_83:\n    /* \"#utility.yul\":3223:3224   */\n  0x00\n    /* \"#utility.yul\":3212:3221   */\n  dup4\n    /* \"#utility.yul\":3208:3225   */\n  add\n    /* \"#utility.yul\":3202:3226   */\n  mload\n    /* \"#utility.yul\":3253:3271   */\n  0xffffffffffffffff\n    /* \"#utility.yul\":3245:3251   */\n  dup2\n    /* \"#utility.yul\":3242:3272   */\n  gt\n    /* \"#utility.yul\":3239:3356   */\n  iszero\n  tag_85\n  jumpi\n    /* \"#utility.yul\":3275:3354   */\n  tag_86\n  tag_13\n  jump\t// in\ntag_86:\n    /* \"#utility.yul\":3239:3356   */\ntag_85:\n    /* \"#utility.yul\":3380:3454   */\n  tag_87\n    /* \"#utility.yul\":3446:3453   */\n  dup6\n    /* \"#utility.yul\":3437:3443   */\n  dup3\n    /* \"#utility.yul\":3426:3435   */\n  dup7\n    /* \"#utility.yul\":3422:3444   */\n  add\n    /* \"#utility.yul\":3380:3454   */\n  tag_23\n  jump\t// in\ntag_87:\n    /* \"#utility.yul\":3370:3454   */\n  swap3\n  pop\n    /* \"#utility.yul\":3173:3464   */\n  pop\n    /* \"#utility.yul\":3503:3505   */\n  0x20\n    /* \"#utility.yul\":3529:3593   */\n  tag_88\n    /* \"#utility.yul\":3585:3592   */\n  dup6\n    /* \"#utility.yul\":3576:3582   */\n  dup3\n    /* \"#utility.yul\":3565:3574   */\n  dup7\n    /* \"#utility.yul\":3561:3583   */\n  add\n    /* \"#utility.yul\":3529:3593   */\n  tag_26\n  jump\t// in\ntag_88:\n    /* \"#utility.yul\":3519:3593   */\n  swap2\n  pop\n    /* \"#utility.yul\":3474:3603   */\n  pop\n    /* \"#utility.yul\":2930:3610   */\n  swap3\n  pop\n  swap3\n  swap1\n  pop\n  jump\t// out\n    /* \"#utility.yul\":3616:3715   */\ntag_27:\n    /* \"#utility.yul\":3668:3674   */\n  0x00\n    /* \"#utility.yul\":3702:3707   */\n  dup2\n    /* \"#utility.yul\":3696:3708   */\n  mload\n    /* \"#utility.yul\":3686:3708   */\n  swap1\n  pop\n    /* \"#utility.yul\":3616:3715   */\n  swap2\n  swap1\n  pop\n  jump\t// out\n    /* \"#utility.yul\":3721:3901   */\ntag_28:\n    /* \"#utility.yul\":3769:3846   */\n  0x4e487b7100000000000000000000000000000000000000000000000000000000\n    /* \"#utility.yul\":3766:3767   */\n  0x00\n    /* \"#utility.yul\":3759:3847   */\n  mstore\n    /* \"#utility.yul\":3866:3870   */\n  0x22\n    /* \"#utility.yul\":3863:3864   */\n  0x04\n    /* \"#utility.yul\":3856:3871   */\n  mstore\n    /* \"#utility.yul\":3890:3894   */\n  0x24\n    /* \"#utility.yul\":3887:3888   */\n  0x00\n    /* \"#utility.yul\":3880:3895   */\n  revert\n    /* \"#utility.yul\":3907:4227   */\ntag_29:\n    /* \"#utility.yul\":3951:3957   */\n  0x00\n    /* \"#utility.yul\":3988:3989   */\n  0x02\n    /* \"#utility.yul\":3982:3986   */\n  dup3\n    /* \"#utility.yul\":3978:3990   */\n  div\n    /* \"#utility.yul\":3968:3990   */\n  swap1\n  pop\n    /* \"#utility.yul\":4035:4036   */\n  0x01\n    /* \"#utility.yul\":4029:4033   */\n  dup3\n    /* \"#utility.yul\":4025:4037   */\n  and\n    /* \"#utility.yul\":4056:4074   */\n  dup1\n    /* \"#utility.yul\":4046:4127   */\n  tag_92\n  jumpi\n    /* \"#utility.yul\":4112:4116   */\n  0x7f\n    /* \"#utility.yul\":4104:4110   */\n  dup3\n    /* \"#utility.yul\":4100:4117   */\n  and\n    /* \"#utility.yul\":4090:4117   */\n  swap2\n  pop\n    /* \"#utility.yul\":4046:4127   */\ntag_92:\n    /* \"#utility.yul\":4174:4176   */\n  0x20\n    /* \"#utility.yul\":4166:4172   */\n  dup3\n    /* \"#utility.yul\":4163:4177   */\n  lt\n    /* \"#utility.yul\":4143:4161   */\n  dup2\n    /* \"#utility.yul\":4140:4178   */\n  sub\n    /* \"#utility.yul\":4137:4221   */\n  tag_93\n  jumpi\n    /* \"#utility.yul\":4193:4211   */\n  tag_94\n  tag_28\n  jump\t// in\ntag_94:\n    /* \"#utility.yul\":4137:4221   */\ntag_93:\n    /* \"#utility.yul\":3958:4227   */\n  pop\n    /* \"#utility.yul\":3907:4227   */\n  swap2\n  swap1\n  pop\n  jump\t// out\n    /* \"#utility.yul\":4233:4374   */\ntag_30:\n    /* \"#utility.yul\":4282:4286   */\n  0x00\n    /* \"#utility.yul\":4305:4308   */\n  dup2\n    /* \"#utility.yul\":4297:4308   */\n  swap1\n  pop\n    /* \"#utility.yul\":4328:4331   */\n  dup2\n    /* \"#utility.yul\":4325:4326   */\n  0x00\n    /* \"#utility.yul\":4318:4332   */\n  mstore\n    /* \"#utility.yul\":4362:4366   */\n  0x20\n    /* \"#utility.yul\":4359:4360   */\n  0x00\n    /* \"#utility.yul\":4349:4367   */\n  keccak256\n    /* \"#utility.yul\":4341:4367   */\n  swap1\n  pop\n    /* \"#utility.yul\":4233:4374   */\n  swap2\n  swap1\n  pop\n  jump\t// out\n    /* \"#utility.yul\":4380:4473   */\ntag_31:\n    /* \"#utility.yul\":4417:4423   */\n  0x00\n    /* \"#utility.yul\":4464:4466   */\n  0x20\n    /* \"#utility.yul\":4459:4461   */\n  0x1f\n    /* \"#utility.yul\":4452:4457   */\n  dup4\n    /* \"#utility.yul\":4448:4462   */\n  add\n    /* \"#utility.yul\":4444:4467   */\n  div\n    /* \"#utility.yul\":4434:4467   */\n  swap1\n  pop\n    /* \"#utility.yul\":4380:4473   */\n  swap2\n  swap1\n  pop\n  jump\t// out\n    /* \"#utility.yul\":4479:4586   */\ntag_32:\n    /* \"#utility.yul\":4523:4531   */\n  0x00\n    /* \"#utility.yul\":4573:4578   */\n  dup3\n    /* \"#utility.yul\":4567:4571   */\n  dup3\n    /* \"#utility.yul\":4563:4579   */\n  shl\n    /* \"#utility.yul\":4542:4579   */\n  swap1\n  pop\n    /* \"#utility.yul\":4479:4586   */\n  swap3\n  swap2\n  pop\n  pop\n  jump\t// out\n    /* \"#utility.yul\":4592:4985   */\ntag_33:\n    /* \"#utility.yul\":4661:4667   */\n  0x00\n    /* \"#utility.yul\":4711:4712   */\n  0x08\n    /* \"#utility.yul\":4699:4709   */\n  dup4\n    /* \"#utility.yul\":4695:4713   */\n  mul\n    /* \"#utility.yul\":4734:4831   */\n  tag_99\n    /* \"#utility.yul\":4764:4830   */\n  0xffffffffffffffffffffffffffffffffffffffffffffffffffffffffffffffff\n    /* \"#utility.yul\":4753:4762   */\n  dup3\n    /* \"#utility.yul\":4734:4831   */\n  tag_32\n  jump\t// in\ntag_99:\n    /* \"#utility.yul\":4852:4891   */\n  tag_100\n    /* \"#utility.yul\":4882:4890   */\n  dup7\n    /* \"#utility.yul\":4871:4880   */\n  dup4\n    /* \"#utility.yul\":4852:4891   */\n  tag_32\n  jump\t// in\ntag_100:\n    /* \"#utility.yul\":4840:4891   */\n  swap6\n  pop\n    /* \"#utility.yul\":4924:4928   */\n  dup1\n    /* \"#utility.yul\":4920:4929   */\n  not\n    /* \"#utility.yul\":4913:4918   */\n  dup5\n    /* \"#utility.yul\":4909:4930   */\n  and\n    /* \"#utility.yul\":4900:4930   */\n  swap4\n  pop\n    /* \"#utility.yul\":4973:4977   */\n  dup1\n    /* \"#utility.yul\":4963:4971   */\n  dup7\n    /* \"#utility.yul\":4959:4978   */\n  and\n    /* \"#utility.yul\":4952:4957   */\n  dup5\n    /* \"#utility.yul\":4949:4979   */\n  or\n    /* \"#utility.yul\":4939:4979   */\n  swap3\n  pop\n    /* \"#utility.yul\":4668:4985   */\n  pop\n  pop\n    /* \"#utility.yul\":4592:4985   */\n  swap4\n  swap3\n  pop\n  pop\n  pop\n  jump\t// out\n    /* \"#utility.yul\":4991:5051   */\ntag_34:\n    /* \"#utility.yul\":5019:5022   */\n  0x00\n    /* \"#utility.yul\":5040:5045   */\n  dup2\n    /* \"#utility.yul\":5033:5045   */\n  swap1\n  pop\n    /* \"#utility.yul\":4991:5051   */\n  swap2\n  swap1\n  pop\n  jump\t// out\n    /* \"#utility.yul\":5057:5199   */\ntag_35:\n    /* \"#utility.yul\":5107:5116   */\n  0x00\n    /* \"#utility.yul\":5140:5193   */\n  tag_103\n    /* \"#utility.yul\":5158:5192   */\n  tag_104\n    /* \"#utility.yul\":5167:5191   */\n  tag_105\n    /* \"#utility.yul\":5185:5190   */\n  dup5\n    /* \"#utility.yul\":5167:5191   */\n  tag_24\n  jump\t// in\ntag_105:\n    /* \"#utility.yul\":5158:5192   */\n  tag_34\n  jump\t// in\ntag_104:\n    /* \"#utility.yul\":5140:5193   */\n  tag_24\n  jump\t// in\ntag_103:\n    /* \"#utility.yul\":5127:5193   */\n  swap1\n  pop\n    /* \"#utility.yul\":5057:5199   */\n  swap2\n  swap1\n  pop\n  jump\t// out\n    /* \"#utility.yul\":5205:5280   */\ntag_36:\n    /* \"#utility.yul\":5248:5251   */\n  0x00\n    /* \"#utility.yul\":5269:5274   */\n  dup2\n    /* \"#utility.yul\":5262:5274   */\n  swap1\n  pop\n    /* \"#utility.yul\":5205:5280   */\n  swap2\n  swap1\n  pop\n  jump\t// out\n    /* \"#utility.yul\":5286:5555   */\ntag_37:\n    /* \"#utility.yul\":5396:5435   */\n  tag_108\n    /* \"#utility.yul\":5427:5434   */\n  dup4\n    /* \"#utility.yul\":5396:5435   */\n  tag_35\n  jump\t// in\ntag_108:\n    /* \"#utility.yul\":5457:5548   */\n  tag_109\n    /* \"#utility.yul\":5506:5547   */\n  tag_110\n    /* \"#utility.yul\":5530:5546   */\n  dup3\n    /* \"#utility.yul\":5506:5547   */\n  tag_36\n  jump\t// in\ntag_110:\n    /* \"#utility.yul\":5498:5504   */\n  dup5\n    /* \"#utility.yul\":5491:5495   */\n  dup5\n    /* \"#utility.yul\":5485:5496   */\n  sload\n    /* \"#utility.yul\":5457:5548   */\n  tag_33\n  jump\t// in\ntag_109:\n    /* \"#utility.yul\":5451:5455   */\n  dup3\n    /* \"#utility.yul\":5444:5549   */\n  sstore\n    /* \"#utility.yul\":5362:5555   */\n  pop\n    /* \"#utility.yul\":5286:5555   */\n  pop\n  pop\n  pop\n  jump\t// out\n    /* \"#utility.yul\":5561:5634   */\ntag_38:\n    /* \"#utility.yul\":5606:5609   */\n  0x00\n    /* \"#utility.yul\":5627:5628   */\n  0x00\n    /* \"#utility.yul\":5620:5628   */\n  swap1\n  pop\n    /* \"#utility.yul\":5561:5634   */\n  swap1\n  jump\t// out\n    /* \"#utility.yul\":5640:5829   */\ntag_39:\n    /* \"#utility.yul\":5717:5749   */\n  tag_113\n  tag_38\n  jump\t// in\ntag_113:\n    /* \"#utility.yul\":5758:5823   */\n  tag_114\n    /* \"#utility.yul\":5816:5822   */\n  dup2\n    /* \"#utility.yul\":5808:5814   */\n  dup5\n    /* \"#utility.yul\":5802:5806   */\n  dup5\n    /* \"#utility.yul\":5758:5823   */\n  tag_37\n  jump\t// in\ntag_114:\n    /* \"#utility.yul\":5693:5829   */\n  pop\n    /* \"#utility.yul\":5640:5829   */\n  pop\n  pop\n  jump\t// out\n    /* \"#utility.yul\":5835:6021   */\ntag_40:\n    /* \"#utility.yul\":5895:6015   */\ntag_116:\n    /* \"#utility.yul\":5912:5915   */\n  dup2\n    /* \"#utility.yul\":5905:5910   */\n  dup2\n    /* \"#utility.yul\":5902:5916   */\n  lt\n    /* \"#utility.yul\":5895:6015   */\n  iszero\n  tag_118\n  jumpi\n    /* \"#utility.yul\":5966:6005   */\n  tag_119\n    /* \"#utility.yul\":6003:6004   */\n  0x00\n    /* \"#utility.yul\":5996:6001   */\n  dup3\n    /* \"#utility.yul\":5966:6005   */\n  tag_39\n  jump\t// in\ntag_119:\n    /* \"#utility.yul\":5939:5940   */\n  0x01\n    /* \"#utility.yul\":5932:5937   */\n  dup2\n    /* \"#utility.yul\":5928:5941   */\n  add\n    /* \"#utility.yul\":5919:5941   */\n  swap1\n  pop\n    /* \"#utility.yul\":5895:6015   */\n  jump(tag_116)\ntag_118:\n    /* \"#utility.yul\":5835:6021   */\n  pop\n  pop\n  jump\t// out\n    /* \"#utility.yul\":6027:6570   */\ntag_41:\n    /* \"#utility.yul\":6128:6130   */\n  0x1f\n    /* \"#utility.yul\":6123:6126   */\n  dup3\n    /* \"#utility.yul\":6120:6131   */\n  gt\n    /* \"#utility.yul\":6117:6563   */\n  iszero\n  tag_121\n  jumpi\n    /* \"#utility.yul\":6162:6200   */\n  tag_122\n    /* \"#utility.yul\":6194:6199   */\n  dup2\n    /* \"#utility.yul\":6162:6200   */\n  tag_30\n  jump\t// in\ntag_122:\n    /* \"#utility.yul\":6246:6275   */\n  tag_123\n    /* \"#utility.yul\":6264:6274   */\n  dup5\n    /* \"#utility.yul\":6246:6275   */\n  tag_31\n  jump\t// in\ntag_123:\n    /* \"#utility.yul\":6236:6244   */\n  dup2\n    /* \"#utility.yul\":6232:6276   */\n  add\n    /* \"#utility.yul\":6429:6431   */\n  0x20\n    /* \"#utility.yul\":6417:6427   */\n  dup6\n    /* \"#utility.yul\":6414:6432   */\n  lt\n    /* \"#utility.yul\":6411:6460   */\n  iszero\n  tag_124\n  jumpi\n    /* \"#utility.yul\":6450:6458   */\n  dup2\n    /* \"#utility.yul\":6435:6458   */\n  swap1\n  pop\n    /* \"#utility.yul\":6411:6460   */\ntag_124:\n    /* \"#utility.yul\":6473:6553   */\n  tag_125\n    /* \"#utility.yul\":6529:6551   */\n  tag_126\n    /* \"#utility.yul\":6547:6550   */\n  dup6\n    /* \"#utility.yul\":6529:6551   */\n  tag_31\n  jump\t// in\ntag_126:\n    /* \"#utility.yul\":6519:6527   */\n  dup4\n    /* \"#utility.yul\":6515:6552   */\n  add\n    /* \"#utility.yul\":6502:6513   */\n  dup3\n    /* \"#utility.yul\":6473:6553   */\n  tag_40\n  jump\t// in\ntag_125:\n    /* \"#utility.yul\":6132:6563   */\n  pop\n  pop\n    /* \"#utility.yul\":6117:6563   */\ntag_121:\n    /* \"#utility.yul\":6027:6570   */\n  pop\n  pop\n  pop\n  jump\t// out\n    /* \"#utility.yul\":6576:6693   */\ntag_42:\n    /* \"#utility.yul\":6630:6638   */\n  0x00\n    /* \"#utility.yul\":6680:6685   */\n  dup3\n    /* \"#utility.yul\":6674:6678   */\n  dup3\n    /* \"#utility.yul\":6670:6686   */\n  shr\n    /* \"#utility.yul\":6649:6686   */\n  swap1\n  pop\n    /* \"#utility.yul\":6576:6693   */\n  swap3\n  swap2\n  pop\n  pop\n  jump\t// out\n    /* \"#utility.yul\":6699:6868   */\ntag_43:\n    /* \"#utility.yul\":6743:6749   */\n  0x00\n    /* \"#utility.yul\":6776:6827   */\n  tag_129\n    /* \"#utility.yul\":6824:6825   */\n  0x00\n    /* \"#utility.yul\":6820:6826   */\n  not\n    /* \"#utility.yul\":6812:6817   */\n  dup5\n    /* \"#utility.yul\":6809:6810   */\n  0x08\n    /* \"#utility.yul\":6805:6818   */\n  mul\n    /* \"#utility.yul\":6776:6827   */\n  tag_42\n  jump\t// in\ntag_129:\n    /* \"#utility.yul\":6772:6828   */\n  not\n    /* \"#utility.yul\":6857:6861   */\n  dup1\n    /* \"#utility.yul\":6851:6855   */\n  dup4\n    /* \"#utility.yul\":6847:6862   */\n  and\n    /* \"#utility.yul\":6837:6862   */\n  swap2\n  pop\n    /* \"#utility.yul\":6750:6868   */\n  pop\n    /* \"#utility.yul\":6699:6868   */\n  swap3\n  swap2\n  pop\n  pop\n  jump\t// out\n    /* \"#utility.yul\":6873:7168   */\ntag_44:\n    /* \"#utility.yul\":6949:6953   */\n  0x00\n    /* \"#utility.yul\":7095:7124   */\n  tag_131\n    /* \"#utility.yul\":7120:7123   */\n  dup4\n    /* \"#utility.yul\":7114:7118   */\n  dup4\n    /* \"#utility.yul\":7095:7124   */\n  tag_43\n  jump\t// in\ntag_131:\n    /* \"#utility.yul\":7087:7124   */\n  swap2\n  pop\n    /* \"#utility.yul\":7157:7160   */\n  dup3\n    /* \"#utility.yul\":7154:7155   */\n  0x02\n    /* \"#utility.yul\":7150:7161   */\n  mul\n    /* \"#utility.yul\":7144:7148   */\n  dup3\n    /* \"#utility.yul\":7141:7162   */\n  or\n    /* \"#utility.yul\":7133:7162   */\n  swap1\n  pop\n    /* \"#utility.yul\":6873:7168   */\n  swap3\n  swap2\n  pop\n  pop\n  jump\t// out\n    /* \"#utility.yul\":7173:8568   */\ntag_7:\n    /* \"#utility.yul\":7290:7327   */\n  tag_133\n    /* \"#utility.yul\":7323:7326   */\n  dup3\n    /* \"#utility.yul\":7290:7327   */\n  tag_27\n  jump\t// in\ntag_133:\n    /* \"#utility.yul\":7392:7410   */\n  0xffffffffffffffff\n    /* \"#utility.yul\":7384:7390   */\n  dup2\n    /* \"#utility.yul\":7381:7411   */\n  gt\n    /* \"#utility.yul\":7378:7434   */\n  iszero\n  tag_134\n  jumpi\n    /* \"#utility.yul\":7414:7432   */\n  tag_135\n  tag_17\n  jump\t// in\ntag_135:\n    /* \"#utility.yul\":7378:7434   */\ntag_134:\n    /* \"#utility.yul\":7458:7496   */\n  tag_136\n    /* \"#utility.yul\":7490:7494   */\n  dup3\n    /* \"#utility.yul\":7484:7495   */\n  sload\n    /* \"#utility.yul\":7458:7496   */\n  tag_29\n  jump\t// in\ntag_136:\n    /* \"#utility.yul\":7543:7610   */\n  tag_137\n    /* \"#utility.yul\":7603:7609   */\n  dup3\n    /* \"#utility.yul\":7595:7601   */\n  dup3\n    /* \"#utility.yul\":7589:7593   */\n  dup6\n    /* \"#utility.yul\":7543:7610   */\n  tag_41\n  jump\t// in\ntag_137:\n    /* \"#utility.yul\":7637:7638   */\n  0x00\n    /* \"#utility.yul\":7661:7665   */\n  0x20\n    /* \"#utility.yul\":7648:7665   */\n  swap1\n  pop\n    /* \"#utility.yul\":7693:7695   */\n  0x1f\n    /* \"#utility.yul\":7685:7691   */\n  dup4\n    /* \"#utility.yul\":7682:7696   */\n  gt\n    /* \"#utility.yul\":7710:7711   */\n  0x01\n    /* \"#utility.yul\":7705:8323   */\n  dup2\n  eq\n  tag_139\n  jumpi\n    /* \"#utility.yul\":8367:8368   */\n  0x00\n    /* \"#utility.yul\":8384:8390   */\n  dup5\n    /* \"#utility.yul\":8381:8458   */\n  iszero\n  tag_140\n  jumpi\n    /* \"#utility.yul\":8433:8442   */\n  dup3\n    /* \"#utility.yul\":8428:8431   */\n  dup8\n    /* \"#utility.yul\":8424:8443   */\n  add\n    /* \"#utility.yul\":8418:8444   */\n  mload\n    /* \"#utility.yul\":8409:8444   */\n  swap1\n  pop\n    /* \"#utility.yul\":8381:8458   */\ntag_140:\n    /* \"#utility.yul\":8484:8551   */\n  tag_141\n    /* \"#utility.yul\":8544:8550   */\n  dup6\n    /* \"#utility.yul\":8537:8542   */\n  dup3\n    /* \"#utility.yul\":8484:8551   */\n  tag_44\n  jump\t// in\ntag_141:\n    /* \"#utility.yul\":8478:8482   */\n  dup7\n    /* \"#utility.yul\":8471:8552   */\n  sstore\n    /* \"#utility.yul\":8340:8562   */\n  pop\n    /* \"#utility.yul\":7675:8562   */\n  jump(tag_138)\n    /* \"#utility.yul\":7705:8323   */\ntag_139:\n    /* \"#utility.yul\":7757:7761   */\n  0x1f\n    /* \"#utility.yul\":7753:7762   */\n  not\n    /* \"#utility.yul\":7745:7751   */\n  dup5\n    /* \"#utility.yul\":7741:7763   */\n  and\n    /* \"#utility.yul\":7791:7828   */\n  tag_142\n    /* \"#utility.yul\":7823:7827   */\n  dup7\n    /* \"#utility.yul\":7791:7828   */\n  tag_30\n  jump\t// in\ntag_142:\n    /* \"#utility.yul\":7850:7851   */\n  0x00\n    /* \"#utility.yul\":7864:8072   */\ntag_143:\n    /* \"#utility.yul\":7878:7885   */\n  dup3\n    /* \"#utility.yul\":7875:7876   */\n  dup2\n    /* \"#utility.yul\":7872:7886   */\n  lt\n    /* \"#utility.yul\":7864:8072   */\n  iszero\n  tag_145\n  jumpi\n    /* \"#utility.yul\":7957:7966   */\n  dup5\n    /* \"#utility.yul\":7952:7955   */\n  dup10\n    /* \"#utility.yul\":7948:7967   */\n  add\n    /* \"#utility.yul\":7942:7968   */\n  mload\n    /* \"#utility.yul\":7934:7940   */\n  dup3\n    /* \"#utility.yul\":7927:7969   */\n  sstore\n    /* \"#utility.yul\":8008:8009   */\n  0x01\n    /* \"#utility.yul\":8000:8006   */\n  dup3\n    /* \"#utility.yul\":7996:8010   */\n  add\n    /* \"#utility.yul\":7986:8010   */\n  swap2\n  pop\n    /* \"#utility.yul\":8055:8057   */\n  0x20\n    /* \"#utility.yul\":8044:8053   */\n  dup6\n    /* \"#utility.yul\":8040:8058   */\n  add\n    /* \"#utility.yul\":8027:8058   */\n  swap5\n  pop\n    /* \"#utility.yul\":7901:7905   */\n  0x20\n    /* \"#utility.yul\":7898:7899   */\n  dup2\n    /* \"#utility.yul\":7894:7906   */\n  add\n    /* \"#utility.yul\":7889:7906   */\n  swap1\n  pop\n    /* \"#utility.yul\":7864:8072   */\n  jump(tag_143)\ntag_145:\n    /* \"#utility.yul\":8100:8106   */\n  dup7\n    /* \"#utility.yul\":8091:8098   */\n  dup4\n    /* \"#utility.yul\":8088:8107   */\n  lt\n    /* \"#utility.yul\":8085:8264   */\n  iszero\n  tag_146\n  jumpi\n    /* \"#utility.yul\":8158:8167   */\n  dup5\n    /* \"#utility.yul\":8153:8156   */\n  dup10\n    /* \"#utility.yul\":8149:8168   */\n  add\n    /* \"#utility.yul\":8143:8169   */\n  mload\n    /* \"#utility.yul\":8201:8249   */\n  tag_147\n    /* \"#utility.yul\":8243:8247   */\n  0x1f\n    /* \"#utility.yul\":8235:8241   */\n  dup10\n    /* \"#utility.yul\":8231:8248   */\n  and\n    /* \"#utility.yul\":8220:8229   */\n  dup3\n    /* \"#utility.yul\":8201:8249   */\n  tag_43\n  jump\t// in\ntag_147:\n    /* \"#utility.yul\":8193:8199   */\n  dup4\n    /* \"#utility.yul\":8186:8250   */\n  sstore\n    /* \"#utility.yul\":8108:8264   */\n  pop\n    /* \"#utility.yul\":8085:8264   */\ntag_146:\n    /* \"#utility.yul\":8310:8311   */\n  0x01\n    /* \"#utility.yul\":8306:8307   */\n  0x02\n    /* \"#utility.yul\":8298:8304   */\n  dup9\n    /* \"#utility.yul\":8294:8308   */\n  mul\n    /* \"#utility.yul\":8290:8312   */\n  add\n    /* \"#utility.yul\":8284:8288   */\n  dup9\n    /* \"#utility.yul\":8277:8313   */\n  sstore\n    /* \"#utility.yul\":7712:8323   */\n  pop\n  pop\n  pop\n    /* \"#utility.yul\":7675:8562   */\ntag_138:\n  pop\n    /* \"#utility.yul\":7265:8568   */\n  pop\n  pop\n  pop\n    /* \"#utility.yul\":7173:8568   */\n  pop\n  pop\n  jump\t// out\n    /* \"#utility.yul\":8574:8754   */\ntag_45:\n    /* \"#utility.yul\":8622:8699   */\n  0x4e487b7100000000000000000000000000000000000000000000000000000000\n    /* \"#utility.yul\":8619:8620   */\n  0x00\n    /* \"#utility.yul\":8612:8700   */\n  mstore\n    /* \"#utility.yul\":8719:8723   */\n  0x11\n    /* \"#utility.yul\":8716:8717   */\n  0x04\n    /* \"#utility.yul\":8709:8724   */\n  mstore\n    /* \"#utility.yul\":8743:8747   */\n  0x24\n    /* \"#utility.yul\":8740:8741   */\n  0x00\n    /* \"#utility.yul\":8733:8748   */\n  revert\n    /* \"#utility.yul\":8760:8951   */\ntag_9:\n    /* \"#utility.yul\":8800:8803   */\n  0x00\n    /* \"#utility.yul\":8819:8839   */\n  tag_150\n    /* \"#utility.yul\":8837:8838   */\n  dup3\n    /* \"#utility.yul\":8819:8839   */\n  tag_24\n  jump\t// in\ntag_150:\n    /* \"#utility.yul\":8814:8839   */\n  swap2\n  pop\n    /* \"#utility.yul\":8853:8873   */\n  tag_151\n    /* \"#utility.yul\":8871:8872   */\n  dup4\n    /* \"#utility.yul\":8853:8873   */\n  tag_24\n  jump\t// in\ntag_151:\n    /* \"#utility.yul\":8848:8873   */\n  swap3\n  pop\n    /* \"#utility.yul\":8896:8897   */\n  dup3\n    /* \"#utility.yul\":8893:8894   */\n  dup3\n    /* \"#utility.yul\":8889:8898   */\n  add\n    /* \"#utility.yul\":8882:8898   */\n  swap1\n  pop\n    /* \"#utility.yul\":8917:8920   */\n  dup1\n    /* \"#utility.yul\":8914:8915   */\n  dup3\n    /* \"#utility.yul\":8911:8921   */\n  gt\n    /* \"#utility.yul\":8908:8944   */\n  iszero\n  tag_152\n  jumpi\n    /* \"#utility.yul\":8924:8942   */\n  tag_153\n  tag_45\n  jump\t// in\ntag_153:\n    /* \"#utility.yul\":8908:8944   */\ntag_152:\n    /* \"#utility.yul\":8760:8951   */\n  swap3\n  swap2\n  pop\n  pop\n  jump\t// out\n    /* \"submissions/0xFancy/day4.sol\":57:1497  contract AuctionHouse{... */\ntag_10:\n  dataSize(sub_0)\n  dup1\n  dataOffset(sub_0)\n  0x00\n  codecopy\n  0x00\n  return\nstop\n\nsub_0: assembly {\n        /* \"submissions/0xFancy/day4.sol\":57:1497  contract AuctionHouse{... */\n      mstore(0x40, 0x80)\n      callvalue\n      dup1\n      iszero\n      tag_1\n      jumpi\n      revert(0x00, 0x00)\n    tag_1:\n      pop\n      jumpi(tag_2, lt(calldatasize, 0x04))\n      shr(0xe0, calldataload(0x00))\n      dup1\n      0x8da5cb5b\n      gt\n      tag_13\n      jumpi\n      dup1\n      0x8da5cb5b\n      eq\n      tag_8\n      jumpi\n      dup1\n      0x8e7ea5b2\n      eq\n      tag_9\n      jumpi\n      dup1\n      0xcff29dfd\n      eq\n      tag_10\n      jumpi\n      dup1\n      0xf2a4a82e\n      eq\n      tag_11\n      jumpi\n      dup1\n      0xfe67a54b\n      eq\n      tag_12\n      jumpi\n      jump(tag_2)\n    tag_13:\n      dup1\n      0x12fa6feb\n      eq\n      tag_3\n      jumpi\n      dup1\n      0x3a79d2e5\n      eq\n      tag_4\n      jumpi\n      dup1\n      0x41709bcb\n      eq\n      tag_5\n      jumpi\n      dup1\n      0x454a2ab3\n      eq\n      tag_6\n      jumpi\n      dup1\n      0x62ea82db\n      eq\n      tag_7\n      jumpi\n    tag_2:\n      revert(0x00, 0x00)\n        /* \"submissions/0xFancy/day4.sol\":230:247  bool public ended */\n    tag_3:\n      tag_14\n      tag_15\n      jump\t// in\n    tag_14:\n      mload(0x40)\n      tag_16\n      swap2\n      swap1\n      tag_17\n      jump\t// in\n    tag_16:\n      mload(0x40)\n      dup1\n      swap2\n      sub\n      swap1\n      return\n        /* \"submissions/0xFancy/day4.sol\":1398:1494  function getAllBidders() external view returns(address[] memory) {... */\n    tag_4:\n      tag_18\n      tag_19\n      jump\t// in\n    tag_18:\n      mload(0x40)\n      tag_20\n      swap2\n      swap1\n      tag_21\n      jump\t// in\n    tag_20:\n      mload(0x40)\n      dup1\n      swap2\n      sub\n      swap1\n      return\n        /* \"submissions/0xFancy/day4.sol\":134:160  uint public auctionendtime */\n    tag_5:\n      tag_22\n      tag_23\n      jump\t// in\n    tag_22:\n      mload(0x40)\n      tag_24\n      swap2\n      swap1\n      tag_25\n      jump\t// in\n    tag_24:\n      mload(0x40)\n      dup1\n      swap2\n      sub\n      swap1\n      return\n        /* \"submissions/0xFancy/day4.sol\":504:1022  function bid(uint amount) external{... */\n    tag_6:\n      tag_26\n      0x04\n      dup1\n      calldatasize\n      sub\n      dup2\n      add\n      swap1\n      tag_27\n      swap2\n      swap1\n      tag_28\n      jump\t// in\n    tag_27:\n      tag_29\n      jump\t// in\n    tag_26:\n      stop\n        /* \"submissions/0xFancy/day4.sol\":253:289  mapping(address => uint) public bids */\n    tag_7:\n      tag_30\n      0x04\n      dup1\n      calldatasize\n      sub\n      dup2\n      add\n      swap1\n      tag_31\n      swap2\n      swap1\n      tag_32\n      jump\t// in\n    tag_31:\n      tag_33\n      jump\t// in\n    tag_30:\n      mload(0x40)\n      tag_34\n      swap2\n      swap1\n      tag_25\n      jump\t// in\n    tag_34:\n      mload(0x40)\n      dup1\n      swap2\n      sub\n      swap1\n      return\n        /* \"submissions/0xFancy/day4.sol\":84:104  address public owner */\n    tag_8:\n      tag_35\n      tag_36\n      jump\t// in\n    tag_35:\n      mload(0x40)\n      tag_37\n      swap2\n      swap1\n      tag_38\n      jump\t// in\n    tag_37:\n      mload(0x40)\n      dup1\n      swap2\n      sub\n      swap1\n      return\n        /* \"submissions/0xFancy/day4.sol\":1232:1392  function getWinner() external view returns(address, uint){... */\n    tag_9:\n      tag_39\n      tag_40\n      jump\t// in\n    tag_39:\n      mload(0x40)\n      tag_41\n      swap3\n      swap2\n      swap1\n      tag_42\n      jump\t// in\n    tag_41:\n      mload(0x40)\n      dup1\n      swap2\n      sub\n      swap1\n      return\n        /* \"submissions/0xFancy/day4.sol\":295:319  address[] public bidders */\n    tag_10:\n      tag_43\n      0x04\n      dup1\n      calldatasize\n      sub\n      dup2\n      add\n      swap1\n      tag_44\n      swap2\n      swap1\n      tag_28\n      jump\t// in\n    tag_44:\n      tag_45\n      jump\t// in\n    tag_43:\n      mload(0x40)\n      tag_46\n      swap2\n      swap1\n      tag_38\n      jump\t// in\n    tag_46:\n      mload(0x40)\n      dup1\n      swap2\n      sub\n      swap1\n      return\n        /* \"submissions/0xFancy/day4.sol\":110:128  string public item */\n    tag_11:\n      tag_47\n      tag_48\n      jump\t// in\n    tag_47:\n      mload(0x40)\n      tag_49\n      swap2\n      swap1\n      tag_50\n      jump\t// in\n    tag_49:\n      mload(0x40)\n      dup1\n      swap2\n      sub\n      swap1\n      return\n        /* \"submissions/0xFancy/day4.sol\":1028:1223  function endAuction() external {... */\n    tag_12:\n      tag_51\n      tag_52\n      jump\t// in\n    tag_51:\n      stop\n        /* \"submissions/0xFancy/day4.sol\":230:247  bool public ended */\n    tag_15:\n      0x05\n      0x00\n      swap1\n      sload\n      swap1\n      0x0100\n      exp\n      swap1\n      div\n      0xff\n      and\n      dup2\n      jump\t// out\n        /* \"submissions/0xFancy/day4.sol\":1398:1494  function getAllBidders() external view returns(address[] memory) {... */\n    tag_19:\n        /* \"submissions/0xFancy/day4.sol\":1445:1461  address[] memory */\n      0x60\n        /* \"submissions/0xFancy/day4.sol\":1480:1487  bidders */\n      0x07\n        /* \"submissions/0xFancy/day4.sol\":1473:1487  return bidders */\n      dup1\n      sload\n      dup1\n      0x20\n      mul\n      0x20\n      add\n      mload(0x40)\n      swap1\n      dup2\n      add\n      0x40\n      mstore\n      dup1\n      swap3\n      swap2\n      swap1\n      dup2\n      dup2\n      mstore\n      0x20\n      add\n      dup3\n      dup1\n      sload\n      dup1\n      iszero\n      tag_54\n      jumpi\n      0x20\n      mul\n      dup3\n      add\n      swap2\n      swap1\n      0x00\n      mstore\n      keccak256(0x00, 0x20)\n      swap1\n    tag_55:\n      dup2\n      0x00\n      swap1\n      sload\n      swap1\n      0x0100\n      exp\n      swap1\n      div\n      0xffffffffffffffffffffffffffffffffffffffff\n      and\n      0xffffffffffffffffffffffffffffffffffffffff\n      and\n      dup2\n      mstore\n      0x20\n      add\n      swap1\n      0x01\n      add\n      swap1\n      dup1\n      dup4\n      gt\n      tag_55\n      jumpi\n    tag_54:\n      pop\n      pop\n      pop\n      pop\n      pop\n      swap1\n      pop\n        /* \"submissions/0xFancy/day4.sol\":1398:1494  function getAllBidders() external view returns(address[] memory) {... */\n      swap1\n      jump\t// out\n        /* \"submissions/0xFancy/day4.sol\":134:160  uint public auctionendtime */\n    tag_23:\n      sload(0x02)\n      dup2\n      jump\t// out\n        /* \"submissions/0xFancy/day4.sol\":504:1022  function bid(uint amount) external{... */\n    tag_29:\n        /* \"submissions/0xFancy/day4.sol\":574:588  auctionendtime */\n      sload(0x02)\n        /* \"submissions/0xFancy/day4.sol\":556:571  block.timestamp */\n      timestamp\n        /* \"submissions/0xFancy/day4.sol\":556:588  block.timestamp < auctionendtime */\n      lt\n        /* \"submissions/0xFancy/day4.sol\":548:610  require(block.timestamp < auctionendtime, \"Auction has ended\") */\n      tag_57\n      jumpi\n      mload(0x40)\n      0x08c379a000000000000000000000000000000000000000000000000000000000\n      dup2\n      mstore\n      0x04\n      add\n      tag_58\n      swap1\n      tag_59\n      jump\t// in\n    tag_58:\n      mload(0x40)\n      dup1\n      swap2\n      sub\n      swap1\n      revert\n    tag_57:\n        /* \"submissions/0xFancy/day4.sol\":662:663  0 */\n      0x00\n        /* \"submissions/0xFancy/day4.sol\":653:659  amount */\n      dup2\n        /* \"submissions/0xFancy/day4.sol\":653:663  amount > 0 */\n      gt\n        /* \"submissions/0xFancy/day4.sol\":645:705  require(amount > 0, \"Bid amount must be greater than zero.\") */\n      tag_60\n      jumpi\n      mload(0x40)\n      0x08c379a000000000000000000000000000000000000000000000000000000000\n      dup2\n      mstore\n      0x04\n      add\n      tag_61\n      swap1\n      tag_62\n      jump\t// in\n    tag_61:\n      mload(0x40)\n      dup1\n      swap2\n      sub\n      swap1\n      revert\n    tag_60:\n        /* \"submissions/0xFancy/day4.sol\":757:760  100 */\n      0x64\n        /* \"submissions/0xFancy/day4.sol\":752:755  105 */\n      0x69\n        /* \"submissions/0xFancy/day4.sol\":733:737  bids */\n      0x06\n        /* \"submissions/0xFancy/day4.sol\":733:749  bids[msg.sender] */\n      0x00\n        /* \"submissions/0xFancy/day4.sol\":738:748  msg.sender */\n      caller\n        /* \"submissions/0xFancy/day4.sol\":733:749  bids[msg.sender] */\n      0xffffffffffffffffffffffffffffffffffffffff\n      and\n      0xffffffffffffffffffffffffffffffffffffffff\n      and\n      dup2\n      mstore\n      0x20\n      add\n      swap1\n      dup2\n      mstore\n      0x20\n      add\n      0x00\n      keccak256\n      sload\n        /* \"submissions/0xFancy/day4.sol\":733:755  bids[msg.sender] * 105 */\n      tag_63\n      swap2\n      swap1\n      tag_64\n      jump\t// in\n    tag_63:\n        /* \"submissions/0xFancy/day4.sol\":732:760  (bids[msg.sender] * 105)/100 */\n      tag_65\n      swap2\n      swap1\n      tag_66\n      jump\t// in\n    tag_65:\n        /* \"submissions/0xFancy/day4.sol\":723:729  amount */\n      dup2\n        /* \"submissions/0xFancy/day4.sol\":723:760  amount > (bids[msg.sender] * 105)/100 */\n      gt\n        /* \"submissions/0xFancy/day4.sol\":715:779  require(amount > (bids[msg.sender] * 105)/100, \"Bid is too low\") */\n      tag_67\n      jumpi\n      mload(0x40)\n      0x08c379a000000000000000000000000000000000000000000000000000000000\n      dup2\n      mstore\n      0x04\n      add\n      tag_68\n      swap1\n      tag_69\n      jump\t// in\n    tag_68:\n      mload(0x40)\n      dup1\n      swap2\n      sub\n      swap1\n      revert\n    tag_67:\n        /* \"submissions/0xFancy/day4.sol\":812:813  0 */\n      0x00\n        /* \"submissions/0xFancy/day4.sol\":792:796  bids */\n      0x06\n        /* \"submissions/0xFancy/day4.sol\":792:808  bids[msg.sender] */\n      0x00\n        /* \"submissions/0xFancy/day4.sol\":797:807  msg.sender */\n      caller\n        /* \"submissions/0xFancy/day4.sol\":792:808  bids[msg.sender] */\n      0xffffffffffffffffffffffffffffffffffffffff\n      and\n      0xffffffffffffffffffffffffffffffffffffffff\n      and\n      dup2\n      mstore\n      0x20\n      add\n      swap1\n      dup2\n      mstore\n      0x20\n      add\n      0x00\n      keccak256\n      sload\n        /* \"submissions/0xFancy/day4.sol\":792:813  bids[msg.sender] == 0 */\n      sub\n        /* \"submissions/0xFancy/day4.sol\":789:863  if(bids[msg.sender] == 0){... */\n      tag_70\n      jumpi\n        /* \"submissions/0xFancy/day4.sol\":828:835  bidders */\n      0x07\n        /* \"submissions/0xFancy/day4.sol\":841:851  msg.sender */\n      caller\n        /* \"submissions/0xFancy/day4.sol\":828:852  bidders.push(msg.sender) */\n      swap1\n      dup1\n      0x01\n      dup2\n      sload\n      add\n      dup1\n      dup3\n      sstore\n      dup1\n      swap2\n      pop\n      pop\n      0x01\n      swap1\n      sub\n      swap1\n      0x00\n      mstore\n      keccak256(0x00, 0x20)\n      add\n      0x00\n      swap1\n      swap2\n      swap1\n      swap2\n      swap1\n      swap2\n      0x0100\n      exp\n      dup2\n      sload\n      dup2\n      0xffffffffffffffffffffffffffffffffffffffff\n      mul\n      not\n      and\n      swap1\n      dup4\n      0xffffffffffffffffffffffffffffffffffffffff\n      and\n      mul\n      or\n      swap1\n      sstore\n      pop\n        /* \"submissions/0xFancy/day4.sol\":789:863  if(bids[msg.sender] == 0){... */\n    tag_70:\n        /* \"submissions/0xFancy/day4.sol\":891:897  amount */\n      dup1\n        /* \"submissions/0xFancy/day4.sol\":872:876  bids */\n      0x06\n        /* \"submissions/0xFancy/day4.sol\":872:888  bids[msg.sender] */\n      0x00\n        /* \"submissions/0xFancy/day4.sol\":877:887  msg.sender */\n      caller\n        /* \"submissions/0xFancy/day4.sol\":872:888  bids[msg.sender] */\n      0xffffffffffffffffffffffffffffffffffffffff\n      and\n      0xffffffffffffffffffffffffffffffffffffffff\n      and\n      dup2\n      mstore\n      0x20\n      add\n      swap1\n      dup2\n      mstore\n      0x20\n      add\n      0x00\n      keccak256\n        /* \"submissions/0xFancy/day4.sol\":872:897  bids[msg.sender] = amount */\n      dup2\n      swap1\n      sstore\n      pop\n        /* \"submissions/0xFancy/day4.sol\":919:929  highestBid */\n      sload(0x04)\n        /* \"submissions/0xFancy/day4.sol\":910:916  amount */\n      dup2\n        /* \"submissions/0xFancy/day4.sol\":910:929  amount > highestBid */\n      gt\n        /* \"submissions/0xFancy/day4.sol\":907:1015  if(amount > highestBid) {... */\n      iszero\n      tag_72\n      jumpi\n        /* \"submissions/0xFancy/day4.sol\":958:964  amount */\n      dup1\n        /* \"submissions/0xFancy/day4.sol\":945:955  highestBid */\n      0x04\n        /* \"submissions/0xFancy/day4.sol\":945:964  highestBid = amount */\n      dup2\n      swap1\n      sstore\n      pop\n        /* \"submissions/0xFancy/day4.sol\":994:1004  msg.sender */\n      caller\n        /* \"submissions/0xFancy/day4.sol\":978:991  highestBidder */\n      0x03\n      0x00\n        /* \"submissions/0xFancy/day4.sol\":978:1004  highestBidder = msg.sender */\n      0x0100\n      exp\n      dup2\n      sload\n      dup2\n      0xffffffffffffffffffffffffffffffffffffffff\n      mul\n      not\n      and\n      swap1\n      dup4\n      0xffffffffffffffffffffffffffffffffffffffff\n      and\n      mul\n      or\n      swap1\n      sstore\n      pop\n        /* \"submissions/0xFancy/day4.sol\":907:1015  if(amount > highestBid) {... */\n    tag_72:\n        /* \"submissions/0xFancy/day4.sol\":504:1022  function bid(uint amount) external{... */\n      pop\n      jump\t// out\n        /* \"submissions/0xFancy/day4.sol\":253:289  mapping(address => uint) public bids */\n    tag_33:\n      mstore(0x20, 0x06)\n      dup1\n      0x00\n      mstore\n      keccak256(0x00, 0x40)\n      0x00\n      swap2\n      pop\n      swap1\n      pop\n      sload\n      dup2\n      jump\t// out\n        /* \"submissions/0xFancy/day4.sol\":84:104  address public owner */\n    tag_36:\n      0x00\n      0x00\n      swap1\n      sload\n      swap1\n      0x0100\n      exp\n      swap1\n      div\n      0xffffffffffffffffffffffffffffffffffffffff\n      and\n      dup2\n      jump\t// out\n        /* \"submissions/0xFancy/day4.sol\":1232:1392  function getWinner() external view returns(address, uint){... */\n    tag_40:\n        /* \"submissions/0xFancy/day4.sol\":1275:1282  address */\n      0x00\n        /* \"submissions/0xFancy/day4.sol\":1284:1288  uint */\n      0x00\n        /* \"submissions/0xFancy/day4.sol\":1307:1312  ended */\n      0x05\n      0x00\n      swap1\n      sload\n      swap1\n      0x0100\n      exp\n      swap1\n      div\n      0xff\n      and\n        /* \"submissions/0xFancy/day4.sol\":1299:1341  require(ended, \"Auction hasn't ended yet\") */\n      tag_74\n      jumpi\n      mload(0x40)\n      0x08c379a000000000000000000000000000000000000000000000000000000000\n      dup2\n      mstore\n      0x04\n      add\n      tag_75\n      swap1\n      tag_76\n      jump\t// in\n    tag_75:\n      mload(0x40)\n      dup1\n      swap2\n      sub\n      swap1\n      revert\n    tag_74:\n        /* \"submissions/0xFancy/day4.sol\":1359:1372  highestBidder */\n      0x03\n      0x00\n      swap1\n      sload\n      swap1\n      0x0100\n      exp\n      swap1\n      div\n      0xffffffffffffffffffffffffffffffffffffffff\n      and\n        /* \"submissions/0xFancy/day4.sol\":1374:1384  highestBid */\n      sload(0x04)\n        /* \"submissions/0xFancy/day4.sol\":1351:1385  return (highestBidder, highestBid) */\n      swap2\n      pop\n      swap2\n      pop\n        /* \"submissions/0xFancy/day4.sol\":1232:1392  function getWinner() external view returns(address, uint){... */\n      swap1\n      swap2\n      jump\t// out\n        /* \"submissions/0xFancy/day4.sol\":295:319  address[] public bidders */\n    tag_45:\n      0x07\n      dup2\n      dup2\n      sload\n      dup2\n      lt\n      tag_77\n      jumpi\n      0x00\n      dup1\n      revert\n    tag_77:\n      swap1\n      0x00\n      mstore\n      keccak256(0x00, 0x20)\n      add\n      0x00\n      swap2\n      pop\n      sload\n      swap1\n      0x0100\n      exp\n      swap1\n      div\n      0xffffffffffffffffffffffffffffffffffffffff\n      and\n      dup2\n      jump\t// out\n        /* \"submissions/0xFancy/day4.sol\":110:128  string public item */\n    tag_48:\n      0x01\n      dup1\n      sload\n      tag_79\n      swap1\n      tag_80\n      jump\t// in\n    tag_79:\n      dup1\n      0x1f\n      add\n      0x20\n      dup1\n      swap2\n      div\n      mul\n      0x20\n      add\n      mload(0x40)\n      swap1\n      dup2\n      add\n      0x40\n      mstore\n      dup1\n      swap3\n      swap2\n      swap1\n      dup2\n      dup2\n      mstore\n      0x20\n      add\n      dup3\n      dup1\n      sload\n      tag_81\n      swap1\n      tag_80\n      jump\t// in\n    tag_81:\n      dup1\n      iszero\n      tag_82\n      jumpi\n      dup1\n      0x1f\n      lt\n      tag_83\n      jumpi\n      0x0100\n      dup1\n      dup4\n      sload\n      div\n      mul\n      dup4\n      mstore\n      swap2\n      0x20\n      add\n      swap2\n      jump(tag_82)\n    tag_83:\n      dup3\n      add\n      swap2\n      swap1\n      0x00\n      mstore\n      keccak256(0x00, 0x20)\n      swap1\n    tag_84:\n      dup2\n      sload\n      dup2\n      mstore\n      swap1\n      0x01\n      add\n      swap1\n      0x20\n      add\n      dup1\n      dup4\n      gt\n      tag_84\n      jumpi\n      dup3\n      swap1\n      sub\n      0x1f\n      and\n      dup3\n      add\n      swap2\n    tag_82:\n      pop\n      pop\n      pop\n      pop\n      pop\n      dup2\n      jump\t// out\n        /* \"submissions/0xFancy/day4.sol\":1028:1223  function endAuction() external {... */\n    tag_52:\n        /* \"submissions/0xFancy/day4.sol\":1096:1110  auctionendtime */\n      sload(0x02)\n        /* \"submissions/0xFancy/day4.sol\":1077:1092  block.timestamp */\n      timestamp\n        /* \"submissions/0xFancy/day4.sol\":1077:1110  block.timestamp >= auctionendtime */\n      lt\n      iszero\n        /* \"submissions/0xFancy/day4.sol\":1069:1139  require(block.timestamp >= auctionendtime, \"Auction hasn't ended yet\") */\n      tag_86\n      jumpi\n      mload(0x40)\n      0x08c379a000000000000000000000000000000000000000000000000000000000\n      dup2\n      mstore\n      0x04\n      add\n      tag_87\n      swap1\n      tag_76\n      jump\t// in\n    tag_87:\n      mload(0x40)\n      dup1\n      swap2\n      sub\n      swap1\n      revert\n    tag_86:\n        /* \"submissions/0xFancy/day4.sol\":1158:1163  ended */\n      0x05\n      0x00\n      swap1\n      sload\n      swap1\n      0x0100\n      exp\n      swap1\n      div\n      0xff\n      and\n        /* \"submissions/0xFancy/day4.sol\":1157:1163  !ended */\n      iszero\n        /* \"submissions/0xFancy/day4.sol\":1149:1194  require(!ended, \"Auction end already called\") */\n      tag_88\n      jumpi\n      mload(0x40)\n      0x08c379a000000000000000000000000000000000000000000000000000000000\n      dup2\n      mstore\n      0x04\n      add\n      tag_89\n      swap1\n      tag_90\n      jump\t// in\n    tag_89:\n      mload(0x40)\n      dup1\n      swap2\n      sub\n      swap1\n      revert\n    tag_88:\n        /* \"submissions/0xFancy/day4.sol\":1212:1216  true */\n      0x01\n        /* \"submissions/0xFancy/day4.sol\":1204:1209  ended */\n      0x05\n      0x00\n        /* \"submissions/0xFancy/day4.sol\":1204:1216  ended = true */\n      0x0100\n      exp\n      dup2\n      sload\n      dup2\n      0xff\n      mul\n      not\n      and\n      swap1\n      dup4\n      iszero\n      iszero\n      mul\n      or\n      swap1\n      sstore\n      pop\n        /* \"submissions/0xFancy/day4.sol\":1028:1223  function endAuction() external {... */\n      jump\t// out\n        /* \"#utility.yul\":7:97   */\n    tag_91:\n        /* \"#utility.yul\":41:48   */\n      0x00\n        /* \"#utility.yul\":84:89   */\n      dup2\n        /* \"#utility.yul\":77:90   */\n      iszero\n        /* \"#utility.yul\":70:91   */\n      iszero\n        /* \"#utility.yul\":59:91   */\n      swap1\n      pop\n        /* \"#utility.yul\":7:97   */\n      swap2\n      swap1\n      pop\n      jump\t// out\n        /* \"#utility.yul\":103:212   */\n    tag_92:\n        /* \"#utility.yul\":184:205   */\n      tag_133\n        /* \"#utility.yul\":199:204   */\n      dup2\n        /* \"#utility.yul\":184:205   */\n      tag_91\n      jump\t// in\n    tag_133:\n        /* \"#utility.yul\":179:182   */\n      dup3\n        /* \"#utility.yul\":172:206   */\n      mstore\n        /* \"#utility.yul\":103:212   */\n      pop\n      pop\n      jump\t// out\n        /* \"#utility.yul\":218:428   */\n    tag_17:\n        /* \"#utility.yul\":305:309   */\n      0x00\n        /* \"#utility.yul\":343:345   */\n      0x20\n        /* \"#utility.yul\":332:341   */\n      dup3\n        /* \"#utility.yul\":328:346   */\n      add\n        /* \"#utility.yul\":320:346   */\n      swap1\n      pop\n        /* \"#utility.yul\":356:421   */\n      tag_135\n        /* \"#utility.yul\":418:419   */\n      0x00\n        /* \"#utility.yul\":407:416   */\n      dup4\n        /* \"#utility.yul\":403:420   */\n      add\n        /* \"#utility.yul\":394:400   */\n      dup5\n        /* \"#utility.yul\":356:421   */\n      tag_92\n      jump\t// in\n    tag_135:\n        /* \"#utility.yul\":218:428   */\n      swap3\n      swap2\n      pop\n      pop\n      jump\t// out\n        /* \"#utility.yul\":434:548   */\n    tag_93:\n        /* \"#utility.yul\":501:507   */\n      0x00\n        /* \"#utility.yul\":535:540   */\n      dup2\n        /* \"#utility.yul\":529:541   */\n      mload\n        /* \"#utility.yul\":519:541   */\n      swap1\n      pop\n        /* \"#utility.yul\":434:548   */\n      swap2\n      swap1\n      pop\n      jump\t// out\n        /* \"#utility.yul\":554:738   */\n    tag_94:\n        /* \"#utility.yul\":653:664   */\n      0x00\n        /* \"#utility.yul\":687:693   */\n      dup3\n        /* \"#utility.yul\":682:685   */\n      dup3\n        /* \"#utility.yul\":675:694   */\n      mstore\n        /* \"#utility.yul\":727:731   */\n      0x20\n        /* \"#utility.yul\":722:725   */\n      dup3\n        /* \"#utility.yul\":718:732   */\n      add\n        /* \"#utility.yul\":703:732   */\n      swap1\n      pop\n        /* \"#utility.yul\":554:738   */\n      swap3\n      swap2\n      pop\n      pop\n      jump\t// out\n        /* \"#utility.yul\":744:876   */\n    tag_95:\n        /* \"#utility.yul\":811:815   */\n      0x00\n        /* \"#utility.yul\":834:837   */\n      dup2\n        /* \"#utility.yul\":826:837   */\n      swap1\n      pop\n        /* \"#utility.yul\":864:868   */\n      0x20\n        /* \"#utility.yul\":859:862   */\n      dup3\n        /* \"#utility.yul\":855:869   */\n      add\n        /* \"#utility.yul\":847:869   */\n      swap1\n      pop\n        /* \"#utility.yul\":744:876   */\n      swap2\n      swap1\n      pop\n      jump\t// out\n        /* \"#utility.yul\":882:1008   */\n    tag_96:\n        /* \"#utility.yul\":919:926   */\n      0x00\n        /* \"#utility.yul\":959:1001   */\n      0xffffffffffffffffffffffffffffffffffffffff\n        /* \"#utility.yul\":952:957   */\n      dup3\n        /* \"#utility.yul\":948:1002   */\n      and\n        /* \"#utility.yul\":937:1002   */\n      swap1\n      pop\n        /* \"#utility.yul\":882:1008   */\n      swap2\n      swap1\n      pop\n      jump\t// out\n        /* \"#utility.yul\":1014:1110   */\n    tag_97:\n        /* \"#utility.yul\":1051:1058   */\n      0x00\n        /* \"#utility.yul\":1080:1104   */\n      tag_141\n        /* \"#utility.yul\":1098:1103   */\n      dup3\n        /* \"#utility.yul\":1080:1104   */\n      tag_96\n      jump\t// in\n    tag_141:\n        /* \"#utility.yul\":1069:1104   */\n      swap1\n      pop\n        /* \"#utility.yul\":1014:1110   */\n      swap2\n      swap1\n      pop\n      jump\t// out\n        /* \"#utility.yul\":1116:1224   */\n    tag_98:\n        /* \"#utility.yul\":1193:1217   */\n      tag_143\n        /* \"#utility.yul\":1211:1216   */\n      dup2\n        /* \"#utility.yul\":1193:1217   */\n      tag_97\n      jump\t// in\n    tag_143:\n        /* \"#utility.yul\":1188:1191   */\n      dup3\n        /* \"#utility.yul\":1181:1218   */\n      mstore\n        /* \"#utility.yul\":1116:1224   */\n      pop\n      pop\n      jump\t// out\n        /* \"#utility.yul\":1230:1409   */\n    tag_99:\n        /* \"#utility.yul\":1299:1309   */\n      0x00\n        /* \"#utility.yul\":1320:1366   */\n      tag_145\n        /* \"#utility.yul\":1362:1365   */\n      dup4\n        /* \"#utility.yul\":1354:1360   */\n      dup4\n        /* \"#utility.yul\":1320:1366   */\n      tag_98\n      jump\t// in\n    tag_145:\n        /* \"#utility.yul\":1398:1402   */\n      0x20\n        /* \"#utility.yul\":1393:1396   */\n      dup4\n        /* \"#utility.yul\":1389:1403   */\n      add\n        /* \"#utility.yul\":1375:1403   */\n      swap1\n      pop\n        /* \"#utility.yul\":1230:1409   */\n      swap3\n      swap2\n      pop\n      pop\n      jump\t// out\n        /* \"#utility.yul\":1415:1528   */\n    tag_100:\n        /* \"#utility.yul\":1485:1489   */\n      0x00\n        /* \"#utility.yul\":1517:1521   */\n      0x20\n        /* \"#utility.yul\":1512:1515   */\n      dup3\n        /* \"#utility.yul\":1508:1522   */\n      add\n        /* \"#utility.yul\":1500:1522   */\n      swap1\n      pop\n        /* \"#utility.yul\":1415:1528   */\n      swap2\n      swap1\n      pop\n      jump\t// out\n        /* \"#utility.yul\":1564:2296   */\n    tag_101:\n        /* \"#utility.yul\":1683:1686   */\n      0x00\n        /* \"#utility.yul\":1712:1766   */\n      tag_148\n        /* \"#utility.yul\":1760:1765   */\n      dup3\n        /* \"#utility.yul\":1712:1766   */\n      tag_93\n      jump\t// in\n    tag_148:\n        /* \"#utility.yul\":1782:1868   */\n      tag_149\n        /* \"#utility.yul\":1861:1867   */\n      dup2\n        /* \"#utility.yul\":1856:1859   */\n      dup6\n        /* \"#utility.yul\":1782:1868   */\n      tag_94\n      jump\t// in\n    tag_149:\n        /* \"#utility.yul\":1775:1868   */\n      swap4\n      pop\n        /* \"#utility.yul\":1892:1948   */\n      tag_150\n        /* \"#utility.yul\":1942:1947   */\n      dup4\n        /* \"#utility.yul\":1892:1948   */\n      tag_95\n      jump\t// in\n    tag_150:\n        /* \"#utility.yul\":1971:1978   */\n      dup1\n        /* \"#utility.yul\":2002:2003   */\n      0x00\n        /* \"#utility.yul\":1987:2271   */\n    tag_151:\n        /* \"#utility.yul\":2012:2018   */\n      dup4\n        /* \"#utility.yul\":2009:2010   */\n      dup2\n        /* \"#utility.yul\":2006:2019   */\n      lt\n        /* \"#utility.yul\":1987:2271   */\n      iszero\n      tag_153\n      jumpi\n        /* \"#utility.yul\":2088:2094   */\n      dup2\n        /* \"#utility.yul\":2082:2095   */\n      mload\n        /* \"#utility.yul\":2115:2178   */\n      tag_154\n        /* \"#utility.yul\":2174:2177   */\n      dup9\n        /* \"#utility.yul\":2159:2172   */\n      dup3\n        /* \"#utility.yul\":2115:2178   */\n      tag_99\n      jump\t// in\n    tag_154:\n        /* \"#utility.yul\":2108:2178   */\n      swap8\n      pop\n        /* \"#utility.yul\":2201:2261   */\n      tag_155\n        /* \"#utility.yul\":2254:2260   */\n      dup4\n        /* \"#utility.yul\":2201:2261   */\n      tag_100\n      jump\t// in\n    tag_155:\n        /* \"#utility.yul\":2191:2261   */\n      swap3\n      pop\n        /* \"#utility.yul\":2047:2271   */\n      pop\n        /* \"#utility.yul\":2034:2035   */\n      0x01\n        /* \"#utility.yul\":2031:2032   */\n      dup2\n        /* \"#utility.yul\":2027:2036   */\n      add\n        /* \"#utility.yul\":2022:2036   */\n      swap1\n      pop\n        /* \"#utility.yul\":1987:2271   */\n      jump(tag_151)\n    tag_153:\n        /* \"#utility.yul\":1991:2005   */\n      pop\n        /* \"#utility.yul\":2287:2290   */\n      dup6\n        /* \"#utility.yul\":2280:2290   */\n      swap4\n      pop\n        /* \"#utility.yul\":1688:2296   */\n      pop\n      pop\n      pop\n        /* \"#utility.yul\":1564:2296   */\n      swap3\n      swap2\n      pop\n      pop\n      jump\t// out\n        /* \"#utility.yul\":2302:2675   */\n    tag_21:\n        /* \"#utility.yul\":2445:2449   */\n      0x00\n        /* \"#utility.yul\":2483:2485   */\n      0x20\n        /* \"#utility.yul\":2472:2481   */\n      dup3\n        /* \"#utility.yul\":2468:2486   */\n      add\n        /* \"#utility.yul\":2460:2486   */\n      swap1\n      pop\n        /* \"#utility.yul\":2532:2541   */\n      dup2\n        /* \"#utility.yul\":2526:2530   */\n      dup2\n        /* \"#utility.yul\":2522:2542   */\n      sub\n        /* \"#utility.yul\":2518:2519   */\n      0x00\n        /* \"#utility.yul\":2507:2516   */\n      dup4\n        /* \"#utility.yul\":2503:2520   */\n      add\n        /* \"#utility.yul\":2496:2543   */\n      mstore\n        /* \"#utility.yul\":2560:2668   */\n      tag_157\n        /* \"#utility.yul\":2663:2667   */\n      dup2\n        /* \"#utility.yul\":2654:2660   */\n      dup5\n        /* \"#utility.yul\":2560:2668   */\n      tag_101\n      jump\t// in\n    tag_157:\n        /* \"#utility.yul\":2552:2668   */\n      swap1\n      pop\n        /* \"#utility.yul\":2302:2675   */\n      swap3\n      swap2\n      pop\n      pop\n      jump\t// out\n        /* \"#utility.yul\":2681:2758   */\n    tag_102:\n        /* \"#utility.yul\":2718:2725   */\n      0x00\n        /* \"#utility.yul\":2747:2752   */\n      dup2\n        /* \"#utility.yul\":2736:2752   */\n      swap1\n      pop\n        /* \"#utility.yul\":2681:2758   */\n      swap2\n      swap1\n      pop\n      jump\t// out\n        /* \"#utility.yul\":2764:2882   */\n    tag_103:\n        /* \"#utility.yul\":2851:2875   */\n      tag_160\n        /* \"#utility.yul\":2869:2874   */\n      dup2\n        /* \"#utility.yul\":2851:2875   */\n      tag_102\n      jump\t// in\n    tag_160:\n        /* \"#utility.yul\":2846:2849   */\n      dup3\n        /* \"#utility.yul\":2839:2876   */\n      mstore\n        /* \"#utility.yul\":2764:2882   */\n      pop\n      pop\n      jump\t// out\n        /* \"#utility.yul\":2888:3110   */\n    tag_25:\n        /* \"#utility.yul\":2981:2985   */\n      0x00\n        /* \"#utility.yul\":3019:3021   */\n      0x20\n        /* \"#utility.yul\":3008:3017   */\n      dup3\n        /* \"#utility.yul\":3004:3022   */\n      add\n        /* \"#utility.yul\":2996:3022   */\n      swap1\n      pop\n        /* \"#utility.yul\":3032:3103   */\n      tag_162\n        /* \"#utility.yul\":3100:3101   */\n      0x00\n        /* \"#utility.yul\":3089:3098   */\n      dup4\n        /* \"#utility.yul\":3085:3102   */\n      add\n        /* \"#utility.yul\":3076:3082   */\n      dup5\n        /* \"#utility.yul\":3032:3103   */\n      tag_103\n      jump\t// in\n    tag_162:\n        /* \"#utility.yul\":2888:3110   */\n      swap3\n      swap2\n      pop\n      pop\n      jump\t// out\n        /* \"#utility.yul\":3197:3314   */\n    tag_105:\n        /* \"#utility.yul\":3306:3307   */\n      0x00\n        /* \"#utility.yul\":3303:3304   */\n      0x00\n        /* \"#utility.yul\":3296:3308   */\n      revert\n        /* \"#utility.yul\":3443:3565   */\n    tag_107:\n        /* \"#utility.yul\":3516:3540   */\n      tag_167\n        /* \"#utility.yul\":3534:3539   */\n      dup2\n        /* \"#utility.yul\":3516:3540   */\n      tag_102\n      jump\t// in\n    tag_167:\n        /* \"#utility.yul\":3509:3514   */\n      dup2\n        /* \"#utility.yul\":3506:3541   */\n      eq\n        /* \"#utility.yul\":3496:3559   */\n      tag_168\n      jumpi\n        /* \"#utility.yul\":3555:3556   */\n      0x00\n        /* \"#utility.yul\":3552:3553   */\n      0x00\n        /* \"#utility.yul\":3545:3557   */\n      revert\n        /* \"#utility.yul\":3496:3559   */\n    tag_168:\n        /* \"#utility.yul\":3443:3565   */\n      pop\n      jump\t// out\n        /* \"#utility.yul\":3571:3710   */\n    tag_108:\n        /* \"#utility.yul\":3617:3622   */\n      0x00\n        /* \"#utility.yul\":3655:3661   */\n      dup2\n        /* \"#utility.yul\":3642:3662   */\n      calldataload\n        /* \"#utility.yul\":3633:3662   */\n      swap1\n      pop\n        /* \"#utility.yul\":3671:3704   */\n      tag_170\n        /* \"#utility.yul\":3698:3703   */\n      dup2\n        /* \"#utility.yul\":3671:3704   */\n      tag_107\n      jump\t// in\n    tag_170:\n        /* \"#utility.yul\":3571:3710   */\n      swap3\n      swap2\n      pop\n      pop\n      jump\t// out\n        /* \"#utility.yul\":3716:4045   */\n    tag_28:\n        /* \"#utility.yul\":3775:3781   */\n      0x00\n        /* \"#utility.yul\":3824:3826   */\n      0x20\n        /* \"#utility.yul\":3812:3821   */\n      dup3\n        /* \"#utility.yul\":3803:3810   */\n      dup5\n        /* \"#utility.yul\":3799:3822   */\n      sub\n        /* \"#utility.yul\":3795:3827   */\n      slt\n        /* \"#utility.yul\":3792:3911   */\n      iszero\n      tag_172\n      jumpi\n        /* \"#utility.yul\":3830:3909   */\n      tag_173\n      tag_105\n      jump\t// in\n    tag_173:\n        /* \"#utility.yul\":3792:3911   */\n    tag_172:\n        /* \"#utility.yul\":3950:3951   */\n      0x00\n        /* \"#utility.yul\":3975:4028   */\n      tag_174\n        /* \"#utility.yul\":4020:4027   */\n      dup5\n        /* \"#utility.yul\":4011:4017   */\n      dup3\n        /* \"#utility.yul\":4000:4009   */\n      dup6\n        /* \"#utility.yul\":3996:4018   */\n      add\n        /* \"#utility.yul\":3975:4028   */\n      tag_108\n      jump\t// in\n    tag_174:\n        /* \"#utility.yul\":3965:4028   */\n      swap2\n      pop\n        /* \"#utility.yul\":3921:4038   */\n      pop\n        /* \"#utility.yul\":3716:4045   */\n      swap3\n      swap2\n      pop\n      pop\n      jump\t// out\n        /* \"#utility.yul\":4051:4173   */\n    tag_109:\n        /* \"#utility.yul\":4124:4148   */\n      tag_176\n        /* \"#utility.yul\":4142:4147   */\n      dup2\n        /* \"#utility.yul\":4124:4148   */\n      tag_97\n      jump\t// in\n    tag_176:\n        /* \"#utility.yul\":4117:4122   */\n      dup2\n        /* \"#utility.yul\":4114:4149   */\n      eq\n        /* \"#utility.yul\":4104:4167   */\n      tag_177\n      jumpi\n        /* \"#utility.yul\":4163:4164   */\n      0x00\n        /* \"#utility.yul\":4160:4161   */\n      0x00\n        /* \"#utility.yul\":4153:4165   */\n      revert\n        /* \"#utility.yul\":4104:4167   */\n    tag_177:\n        /* \"#utility.yul\":4051:4173   */\n      pop\n      jump\t// out\n        /* \"#utility.yul\":4179:4318   */\n    tag_110:\n        /* \"#utility.yul\":4225:4230   */\n      0x00\n        /* \"#utility.yul\":4263:4269   */\n      dup2\n        /* \"#utility.yul\":4250:4270   */\n      calldataload\n        /* \"#utility.yul\":4241:4270   */\n      swap1\n      pop\n        /* \"#utility.yul\":4279:4312   */\n      tag_179\n        /* \"#utility.yul\":4306:4311   */\n      dup2\n        /* \"#utility.yul\":4279:4312   */\n      tag_109\n      jump\t// in\n    tag_179:\n        /* \"#utility.yul\":4179:4318   */\n      swap3\n      swap2\n      pop\n      pop\n      jump\t// out\n        /* \"#utility.yul\":4324:4653   */\n    tag_32:\n        /* \"#utility.yul\":4383:4389   */\n      0x00\n        /* \"#utility.yul\":4432:4434   */\n      0x20\n        /* \"#utility.yul\":4420:4429   */\n      dup3\n        /* \"#utility.yul\":4411:4418   */\n      dup5\n        /* \"#utility.yul\":4407:4430   */\n      sub\n        /* \"#utility.yul\":4403:4435   */\n      slt\n        /* \"#utility.yul\":4400:4519   */\n      iszero\n      tag_181\n      jumpi\n        /* \"#utility.yul\":4438:4517   */\n      tag_182\n      tag_105\n      jump\t// in\n    tag_182:\n        /* \"#utility.yul\":4400:4519   */\n    tag_181:\n        /* \"#utility.yul\":4558:4559   */\n      0x00\n        /* \"#utility.yul\":4583:4636   */\n      tag_183\n        /* \"#utility.yul\":4628:4635   */\n      dup5\n        /* \"#utility.yul\":4619:4625   */\n      dup3\n        /* \"#utility.yul\":4608:4617   */\n      dup6\n        /* \"#utility.yul\":4604:4626   */\n      add\n        /* \"#utility.yul\":4583:4636   */\n      tag_110\n      jump\t// in\n    tag_183:\n        /* \"#utility.yul\":4573:4636   */\n      swap2\n      pop\n        /* \"#utility.yul\":4529:4646   */\n      pop\n        /* \"#utility.yul\":4324:4653   */\n      swap3\n      swap2\n      pop\n      pop\n      jump\t// out\n        /* \"#utility.yul\":4659:4777   */\n    tag_111:\n        /* \"#utility.yul\":4746:4770   */\n      tag_185\n        /* \"#utility.yul\":4764:4769   */\n      dup2\n        /* \"#utility.yul\":4746:4770   */\n      tag_97\n      jump\t// in\n    tag_185:\n        /* \"#utility.yul\":4741:4744   */\n      dup3\n        /* \"#utility.yul\":4734:4771   */\n      mstore\n        /* \"#utility.yul\":4659:4777   */\n      pop\n      pop\n      jump\t// out\n        /* \"#utility.yul\":4783:5005   */\n    tag_38:\n        /* \"#utility.yul\":4876:4880   */\n      0x00\n        /* \"#utility.yul\":4914:4916   */\n      0x20\n        /* \"#utility.yul\":4903:4912   */\n      dup3\n        /* \"#utility.yul\":4899:4917   */\n      add\n        /* \"#utility.yul\":4891:4917   */\n      swap1\n      pop\n        /* \"#utility.yul\":4927:4998   */\n      tag_187\n        /* \"#utility.yul\":4995:4996   */\n      0x00\n        /* \"#utility.yul\":4984:4993   */\n      dup4\n        /* \"#utility.yul\":4980:4997   */\n      add\n        /* \"#utility.yul\":4971:4977   */\n      dup5\n        /* \"#utility.yul\":4927:4998   */\n      tag_111\n      jump\t// in\n    tag_187:\n        /* \"#utility.yul\":4783:5005   */\n      swap3\n      swap2\n      pop\n      pop\n      jump\t// out\n        /* \"#utility.yul\":5011:5343   */\n    tag_42:\n        /* \"#utility.yul\":5132:5136   */\n      0x00\n        /* \"#utility.yul\":5170:5172   */\n      0x40\n        /* \"#utility.yul\":5159:5168   */\n      dup3\n        /* \"#utility.yul\":5155:5173   */\n      add\n        /* \"#utility.yul\":5147:5173   */\n      swap1\n      pop\n        /* \"#utility.yul\":5183:5254   */\n      tag_189\n        /* \"#utility.yul\":5251:5252   */\n      0x00\n        /* \"#utility.yul\":5240:5249   */\n      dup4\n        /* \"#utility.yul\":5236:5253   */\n      add\n        /* \"#utility.yul\":5227:5233   */\n      dup6\n        /* \"#utility.yul\":5183:5254   */\n      tag_111\n      jump\t// in\n    tag_189:\n        /* \"#utility.yul\":5264:5336   */\n      tag_190\n        /* \"#utility.yul\":5332:5334   */\n      0x20\n        /* \"#utility.yul\":5321:5330   */\n      dup4\n        /* \"#utility.yul\":5317:5335   */\n      add\n        /* \"#utility.yul\":5308:5314   */\n      dup5\n        /* \"#utility.yul\":5264:5336   */\n      tag_103\n      jump\t// in\n    tag_190:\n        /* \"#utility.yul\":5011:5343   */\n      swap4\n      swap3\n      pop\n      pop\n      pop\n      jump\t// out\n        /* \"#utility.yul\":5349:5448   */\n    tag_112:\n        /* \"#utility.yul\":5401:5407   */\n      0x00\n        /* \"#utility.yul\":5435:5440   */\n      dup2\n        /* \"#utility.yul\":5429:5441   */\n      mload\n        /* \"#utility.yul\":5419:5441   */\n      swap1\n      pop\n        /* \"#utility.yul\":5349:5448   */\n      swap2\n      swap1\n      pop\n      jump\t// out\n        /* \"#utility.yul\":5454:5623   */\n    tag_113:\n        /* \"#utility.yul\":5538:5549   */\n      0x00\n        /* \"#utility.yul\":5572:5578   */\n      dup3\n        /* \"#utility.yul\":5567:5570   */\n      dup3\n        /* \"#utility.yul\":5560:5579   */\n      mstore\n        /* \"#utility.yul\":5612:5616   */\n      0x20\n        /* \"#utility.yul\":5607:5610   */\n      dup3\n        /* \"#utility.yul\":5603:5617   */\n      add\n        /* \"#utility.yul\":5588:5617   */\n      swap1\n      pop\n        /* \"#utility.yul\":5454:5623   */\n      swap3\n      swap2\n      pop\n      pop\n      jump\t// out\n        /* \"#utility.yul\":5629:5768   */\n    tag_114:\n        /* \"#utility.yul\":5718:5724   */\n      dup3\n        /* \"#utility.yul\":5713:5716   */\n      dup2\n        /* \"#utility.yul\":5708:5711   */\n      dup4\n        /* \"#utility.yul\":5702:5725   */\n      mcopy\n        /* \"#utility.yul\":5759:5760   */\n      0x00\n        /* \"#utility.yul\":5750:5756   */\n      dup4\n        /* \"#utility.yul\":5745:5748   */\n      dup4\n        /* \"#utility.yul\":5741:5757   */\n      add\n        /* \"#utility.yul\":5734:5761   */\n      mstore\n        /* \"#utility.yul\":5629:5768   */\n      pop\n      pop\n      pop\n      jump\t// out\n        /* \"#utility.yul\":5774:5876   */\n    tag_115:\n        /* \"#utility.yul\":5815:5821   */\n      0x00\n        /* \"#utility.yul\":5866:5868   */\n      0x1f\n        /* \"#utility.yul\":5862:5869   */\n      not\n        /* \"#utility.yul\":5857:5859   */\n      0x1f\n        /* \"#utility.yul\":5850:5855   */\n      dup4\n        /* \"#utility.yul\":5846:5860   */\n      add\n        /* \"#utility.yul\":5842:5870   */\n      and\n        /* \"#utility.yul\":5832:5870   */\n      swap1\n      pop\n        /* \"#utility.yul\":5774:5876   */\n      swap2\n      swap1\n      pop\n      jump\t// out\n        /* \"#utility.yul\":5882:6259   */\n    tag_116:\n        /* \"#utility.yul\":5970:5973   */\n      0x00\n        /* \"#utility.yul\":5998:6037   */\n      tag_196\n        /* \"#utility.yul\":6031:6036   */\n      dup3\n        /* \"#utility.yul\":5998:6037   */\n      tag_112\n      jump\t// in\n    tag_196:\n        /* \"#utility.yul\":6053:6124   */\n      tag_197\n        /* \"#utility.yul\":6117:6123   */\n      dup2\n        /* \"#utility.yul\":6112:6115   */\n      dup6\n        /* \"#utility.yul\":6053:6124   */\n      tag_113\n      jump\t// in\n    tag_197:\n        /* \"#utility.yul\":6046:6124   */\n      swap4\n      pop\n        /* \"#utility.yul\":6133:6198   */\n      tag_198\n        /* \"#utility.yul\":6191:6197   */\n      dup2\n        /* \"#utility.yul\":6186:6189   */\n      dup6\n        /* \"#utility.yul\":6179:6183   */\n      0x20\n        /* \"#utility.yul\":6172:6177   */\n      dup7\n        /* \"#utility.yul\":6168:6184   */\n      add\n        /* \"#utility.yul\":6133:6198   */\n      tag_114\n      jump\t// in\n    tag_198:\n        /* \"#utility.yul\":6223:6252   */\n      tag_199\n        /* \"#utility.yul\":6245:6251   */\n      dup2\n        /* \"#utility.yul\":6223:6252   */\n      tag_115\n      jump\t// in\n    tag_199:\n        /* \"#utility.yul\":6218:6221   */\n      dup5\n        /* \"#utility.yul\":6214:6253   */\n      add\n        /* \"#utility.yul\":6207:6253   */\n      swap2\n      pop\n        /* \"#utility.yul\":5974:6259   */\n      pop\n        /* \"#utility.yul\":5882:6259   */\n      swap3\n      swap2\n      pop\n      pop\n      jump\t// out\n        /* \"#utility.yul\":6265:6578   */\n    tag_50:\n        /* \"#utility.yul\":6378:6382   */\n      0x00\n        /* \"#utility.yul\":6416:6418   */\n      0x20\n        /* \"#utility.yul\":6405:6414   */\n      dup3\n        /* \"#utility.yul\":6401:6419   */\n      add\n        /* \"#utility.yul\":6393:6419   */\n      swap1\n      pop\n        /* \"#utility.yul\":6465:6474   */\n      dup2\n        /* \"#utility.yul\":6459:6463   */\n      dup2\n        /* \"#utility.yul\":6455:6475   */\n      sub\n        /* \"#utility.yul\":6451:6452   */\n      0x00\n        /* \"#utility.yul\":6440:6449   */\n      dup4\n        /* \"#utility.yul\":6436:6453   */\n      add\n        /* \"#utility.yul\":6429:6476   */\n      mstore\n        /* \"#utility.yul\":6493:6571   */\n      tag_201\n        /* \"#utility.yul\":6566:6570   */\n      dup2\n        /* \"#utility.yul\":6557:6563   */\n      dup5\n        /* \"#utility.yul\":6493:6571   */\n      tag_116\n      jump\t// in\n    tag_201:\n        /* \"#utility.yul\":6485:6571   */\n      swap1\n      pop\n        /* \"#utility.yul\":6265:6578   */\n      swap3\n      swap2\n      pop\n      pop\n      jump\t// out\n        /* \"#utility.yul\":6584:6751   */\n    tag_117:\n        /* \"#utility.yul\":6724:6743   */\n      0x41756374696f6e2068617320656e646564000000000000000000000000000000\n        /* \"#utility.yul\":6720:6721   */\n      0x00\n        /* \"#utility.yul\":6712:6718   */\n      dup3\n        /* \"#utility.yul\":6708:6722   */\n      add\n        /* \"#utility.yul\":6701:6744   */\n      mstore\n        /* \"#utility.yul\":6584:6751   */\n      pop\n      jump\t// out\n        /* \"#utility.yul\":6757:7123   */\n    tag_118:\n        /* \"#utility.yul\":6899:6902   */\n      0x00\n        /* \"#utility.yul\":6920:6987   */\n      tag_204\n        /* \"#utility.yul\":6984:6986   */\n      0x11\n        /* \"#utility.yul\":6979:6982   */\n      dup4\n        /* \"#utility.yul\":6920:6987   */\n      tag_113\n      jump\t// in\n    tag_204:\n        /* \"#utility.yul\":6913:6987   */\n      swap2\n      pop\n        /* \"#utility.yul\":6996:7089   */\n      tag_205\n        /* \"#utility.yul\":7085:7088   */\n      dup3\n        /* \"#utility.yul\":6996:7089   */\n      tag_117\n      jump\t// in\n    tag_205:\n        /* \"#utility.yul\":7114:7116   */\n      0x20\n        /* \"#utility.yul\":7109:7112   */\n      dup3\n        /* \"#utility.yul\":7105:7117   */\n      add\n        /* \"#utility.yul\":7098:7117   */\n      swap1\n      pop\n        /* \"#utility.yul\":6757:7123   */\n      swap2\n      swap1\n      pop\n      jump\t// out\n        /* \"#utility.yul\":7129:7548   */\n    tag_59:\n        /* \"#utility.yul\":7295:7299   */\n      0x00\n        /* \"#utility.yul\":7333:7335   */\n      0x20\n        /* \"#utility.yul\":7322:7331   */\n      dup3\n        /* \"#utility.yul\":7318:7336   */\n      add\n        /* \"#utility.yul\":7310:7336   */\n      swap1\n      pop\n        /* \"#utility.yul\":7382:7391   */\n      dup2\n        /* \"#utility.yul\":7376:7380   */\n      dup2\n        /* \"#utility.yul\":7372:7392   */\n      sub\n        /* \"#utility.yul\":7368:7369   */\n      0x00\n        /* \"#utility.yul\":7357:7366   */\n      dup4\n        /* \"#utility.yul\":7353:7370   */\n      add\n        /* \"#utility.yul\":7346:7393   */\n      mstore\n        /* \"#utility.yul\":7410:7541   */\n      tag_207\n        /* \"#utility.yul\":7536:7540   */\n      dup2\n        /* \"#utility.yul\":7410:7541   */\n      tag_118\n      jump\t// in\n    tag_207:\n        /* \"#utility.yul\":7402:7541   */\n      swap1\n      pop\n        /* \"#utility.yul\":7129:7548   */\n      swap2\n      swap1\n      pop\n      jump\t// out\n        /* \"#utility.yul\":7554:7778   */\n    tag_119:\n        /* \"#utility.yul\":7694:7728   */\n      0x42696420616d6f756e74206d7573742062652067726561746572207468616e20\n        /* \"#utility.yul\":7690:7691   */\n      0x00\n        /* \"#utility.yul\":7682:7688   */\n      dup3\n        /* \"#utility.yul\":7678:7692   */\n      add\n        /* \"#utility.yul\":7671:7729   */\n      mstore\n        /* \"#utility.yul\":7763:7770   */\n      0x7a65726f2e000000000000000000000000000000000000000000000000000000\n        /* \"#utility.yul\":7758:7760   */\n      0x20\n        /* \"#utility.yul\":7750:7756   */\n      dup3\n        /* \"#utility.yul\":7746:7761   */\n      add\n        /* \"#utility.yul\":7739:7771   */\n      mstore\n        /* \"#utility.yul\":7554:7778   */\n      pop\n      jump\t// out\n        /* \"#utility.yul\":7784:8150   */\n    tag_120:\n        /* \"#utility.yul\":7926:7929   */\n      0x00\n        /* \"#utility.yul\":7947:8014   */\n      tag_210\n        /* \"#utility.yul\":8011:8013   */\n      0x25\n        /* \"#utility.yul\":8006:8009   */\n      dup4\n        /* \"#utility.yul\":7947:8014   */\n      tag_113\n      jump\t// in\n    tag_210:\n        /* \"#utility.yul\":7940:8014   */\n      swap2\n      pop\n        /* \"#utility.yul\":8023:8116   */\n      tag_211\n        /* \"#utility.yul\":8112:8115   */\n      dup3\n        /* \"#utility.yul\":8023:8116   */\n      tag_119\n      jump\t// in\n    tag_211:\n        /* \"#utility.yul\":8141:8143   */\n      0x40\n        /* \"#utility.yul\":8136:8139   */\n      dup3\n        /* \"#utility.yul\":8132:8144   */\n      add\n        /* \"#utility.yul\":8125:8144   */\n      swap1\n      pop\n        /* \"#utility.yul\":7784:8150   */\n      swap2\n      swap1\n      pop\n      jump\t// out\n        /* \"#utility.yul\":8156:8575   */\n    tag_62:\n        /* \"#utility.yul\":8322:8326   */\n      0x00\n        /* \"#utility.yul\":8360:8362   */\n      0x20\n        /* \"#utility.yul\":8349:8358   */\n      dup3\n        /* \"#utility.yul\":8345:8363   */\n      add\n        /* \"#utility.yul\":8337:8363   */\n      swap1\n      pop\n        /* \"#utility.yul\":8409:8418   */\n      dup2\n        /* \"#utility.yul\":8403:8407   */\n      dup2\n        /* \"#utility.yul\":8399:8419   */\n      sub\n        /* \"#utility.yul\":8395:8396   */\n      0x00\n        /* \"#utility.yul\":8384:8393   */\n      dup4\n        /* \"#utility.yul\":8380:8397   */\n      add\n        /* \"#utility.yul\":8373:8420   */\n      mstore\n        /* \"#utility.yul\":8437:8568   */\n      tag_213\n        /* \"#utility.yul\":8563:8567   */\n      dup2\n        /* \"#utility.yul\":8437:8568   */\n      tag_120\n      jump\t// in\n    tag_213:\n        /* \"#utility.yul\":8429:8568   */\n      swap1\n      pop\n        /* \"#utility.yul\":8156:8575   */\n      swap2\n      swap1\n      pop\n      jump\t// out\n        /* \"#utility.yul\":8581:8761   */\n    tag_121:\n        /* \"#utility.yul\":8629:8706   */\n      0x4e487b7100000000000000000000000000000000000000000000000000000000\n        /* \"#utility.yul\":8626:8627   */\n      0x00\n        /* \"#utility.yul\":8619:8707   */\n      mstore\n        /* \"#utility.yul\":8726:8730   */\n      0x11\n        /* \"#utility.yul\":8723:8724   */\n      0x04\n        /* \"#utility.yul\":8716:8731   */\n      mstore\n        /* \"#utility.yul\":8750:8754   */\n      0x24\n        /* \"#utility.yul\":8747:8748   */\n      0x00\n        /* \"#utility.yul\":8740:8755   */\n      revert\n        /* \"#utility.yul\":8767:9177   */\n    tag_64:\n        /* \"#utility.yul\":8807:8814   */\n      0x00\n        /* \"#utility.yul\":8830:8850   */\n      tag_216\n        /* \"#utility.yul\":8848:8849   */\n      dup3\n        /* \"#utility.yul\":8830:8850   */\n      tag_102\n      jump\t// in\n    tag_216:\n        /* \"#utility.yul\":8825:8850   */\n      swap2\n      pop\n        /* \"#utility.yul\":8864:8884   */\n      tag_217\n        /* \"#utility.yul\":8882:8883   */\n      dup4\n        /* \"#utility.yul\":8864:8884   */\n      tag_102\n      jump\t// in\n    tag_217:\n        /* \"#utility.yul\":8859:8884   */\n      swap3\n      pop\n        /* \"#utility.yul\":8919:8920   */\n      dup3\n        /* \"#utility.yul\":8916:8917   */\n      dup3\n        /* \"#utility.yul\":8912:8921   */\n      mul\n        /* \"#utility.yul\":8941:8971   */\n      tag_218\n        /* \"#utility.yul\":8959:8970   */\n      dup2\n        /* \"#utility.yul\":8941:8971   */\n      tag_102\n      jump\t// in\n    tag_218:\n        /* \"#utility.yul\":8930:8971   */\n      swap2\n      pop\n        /* \"#utility.yul\":9120:9121   */\n      dup3\n        /* \"#utility.yul\":9111:9118   */\n      dup3\n        /* \"#utility.yul\":9107:9122   */\n      div\n        /* \"#utility.yul\":9104:9105   */\n      dup5\n        /* \"#utility.yul\":9101:9123   */\n      eq\n        /* \"#utility.yul\":9081:9082   */\n      dup4\n        /* \"#utility.yul\":9074:9083   */\n      iszero\n        /* \"#utility.yul\":9054:9137   */\n      or\n        /* \"#utility.yul\":9031:9170   */\n      tag_219\n      jumpi\n        /* \"#utility.yul\":9150:9168   */\n      tag_220\n      tag_121\n      jump\t// in\n    tag_220:\n        /* \"#utility.yul\":9031:9170   */\n    tag_219:\n        /* \"#utility.yul\":8815:9177   */\n      pop\n        /* \"#utility.yul\":8767:9177   */\n      swap3\n      swap2\n      pop\n      pop\n      jump\t// out\n        /* \"#utility.yul\":9183:9363   */\n    tag_122:\n        /* \"#utility.yul\":9231:9308   */\n      0x4e487b7100000000000000000000000000000000000000000000000000000000\n        /* \"#utility.yul\":9228:9229   */\n      0x00\n        /* \"#utility.yul\":9221:9309   */\n      mstore\n        /* \"#utility.yul\":9328:9332   */\n      0x12\n        /* \"#utility.yul\":9325:9326   */\n      0x04\n        /* \"#utility.yul\":9318:9333   */\n      mstore\n        /* \"#utility.yul\":9352:9356   */\n      0x24\n        /* \"#utility.yul\":9349:9350   */\n      0x00\n        /* \"#utility.yul\":9342:9357   */\n      revert\n        /* \"#utility.yul\":9369:9554   */\n    tag_66:\n        /* \"#utility.yul\":9409:9410   */\n      0x00\n        /* \"#utility.yul\":9426:9446   */\n      tag_223\n        /* \"#utility.yul\":9444:9445   */\n      dup3\n        /* \"#utility.yul\":9426:9446   */\n      tag_102\n      jump\t// in\n    tag_223:\n        /* \"#utility.yul\":9421:9446   */\n      swap2\n      pop\n        /* \"#utility.yul\":9460:9480   */\n      tag_224\n        /* \"#utility.yul\":9478:9479   */\n      dup4\n        /* \"#utility.yul\":9460:9480   */\n      tag_102\n      jump\t// in\n    tag_224:\n        /* \"#utility.yul\":9455:9480   */\n      swap3\n      pop\n        /* \"#utility.yul\":9499:9500   */\n      dup3\n        /* \"#utility.yul\":9489:9524   */\n      tag_225\n      jumpi\n        /* \"#utility.yul\":9504:9522   */\n      tag_226\n      tag_122\n      jump\t// in\n    tag_226:\n        /* \"#utility.yul\":9489:9524   */\n    tag_225:\n        /* \"#utility.yul\":9546:9547   */\n      dup3\n        /* \"#utility.yul\":9543:9544   */\n      dup3\n        /* \"#utility.yul\":9539:9548   */\n      div\n        /* \"#utility.yul\":9534:9548   */\n      swap1\n      pop\n        /* \"#utility.yul\":9369:9554   */\n      swap3\n      swap2\n      pop\n      pop\n      jump\t// out\n        /* \"#utility.yul\":9560:9724   */\n    tag_123:\n        /* \"#utility.yul\":9700:9716   */\n      0x42696420697320746f6f206c6f77000000000000000000000000000000000000\n        /* \"#utility.yul\":9696:9697   */\n      0x00\n        /* \"#utility.yul\":9688:9694   */\n      dup3\n        /* \"#utility.yul\":9684:9698   */\n      add\n        /* \"#utility.yul\":9677:9717   */\n      mstore\n        /* \"#utility.yul\":9560:9724   */\n      pop\n      jump\t// out\n        /* \"#utility.yul\":9730:10096   */\n    tag_124:\n        /* \"#utility.yul\":9872:9875   */\n      0x00\n        /* \"#utility.yul\":9893:9960   */\n      tag_229\n        /* \"#utility.yul\":9957:9959   */\n      0x0e\n        /* \"#utility.yul\":9952:9955   */\n      dup4\n        /* \"#utility.yul\":9893:9960   */\n      tag_113\n      jump\t// in\n    tag_229:\n        /* \"#utility.yul\":9886:9960   */\n      swap2\n      pop\n        /* \"#utility.yul\":9969:10062   */\n      tag_230\n        /* \"#utility.yul\":10058:10061   */\n      dup3\n        /* \"#utility.yul\":9969:10062   */\n      tag_123\n      jump\t// in\n    tag_230:\n        /* \"#utility.yul\":10087:10089   */\n      0x20\n        /* \"#utility.yul\":10082:10085   */\n      dup3\n        /* \"#utility.yul\":10078:10090   */\n      add\n        /* \"#utility.yul\":10071:10090   */\n      swap1\n      pop\n        /* \"#utility.yul\":9730:10096   */\n      swap2\n      swap1\n      pop\n      jump\t// out\n        /* \"#utility.yul\":10102:10521   */\n    tag_69:\n        /* \"#utility.yul\":10268:10272   */\n      0x00\n        /* \"#utility.yul\":10306:10308   */\n      0x20\n        /* \"#utility.yul\":10295:10304   */\n      dup3\n        /* \"#utility.yul\":10291:10309   */\n      add\n        /* \"#utility.yul\":10283:10309   */\n      swap1\n      pop\n        /* \"#utility.yul\":10355:10364   */\n      dup2\n        /* \"#utility.yul\":10349:10353   */\n      dup2\n        /* \"#utility.yul\":10345:10365   */\n      sub\n        /* \"#utility.yul\":10341:10342   */\n      0x00\n        /* \"#utility.yul\":10330:10339   */\n      dup4\n        /* \"#utility.yul\":10326:10343   */\n      add\n        /* \"#utility.yul\":10319:10366   */\n      mstore\n        /* \"#utility.yul\":10383:10514   */\n      tag_232\n        /* \"#utility.yul\":10509:10513   */\n      dup2\n        /* \"#utility.yul\":10383:10514   */\n      tag_124\n      jump\t// in\n    tag_232:\n        /* \"#utility.yul\":10375:10514   */\n      swap1\n      pop\n        /* \"#utility.yul\":10102:10521   */\n      swap2\n      swap1\n      pop\n      jump\t// out\n        /* \"#utility.yul\":10527:10701   */\n    tag_125:\n        /* \"#utility.yul\":10667:10693   */\n      0x41756374696f6e206861736e277420656e646564207965740000000000000000\n        /* \"#utility.yul\":10663:10664   */\n      0x00\n        /* \"#utility.yul\":10655:10661   */\n      dup3\n        /* \"#utility.yul\":10651:10665   */\n      add\n        /* \"#utility.yul\":10644:10694   */\n      mstore\n        /* \"#utility.yul\":10527:10701   */\n      pop\n      jump\t// out\n        /* \"#utility.yul\":10707:11073   */\n    tag_126:\n        /* \"#utility.yul\":10849:10852   */\n      0x00\n        /* \"#utility.yul\":10870:10937   */\n      tag_235\n        /* \"#utility.yul\":10934:10936   */\n      0x18\n        /* \"#utility.yul\":10929:10932   */\n      dup4\n        /* \"#utility.yul\":10870:10937   */\n      tag_113\n      jump\t// in\n    tag_235:\n        /* \"#utility.yul\":10863:10937   */\n      swap2\n      pop\n        /* \"#utility.yul\":10946:11039   */\n      tag_236\n        /* \"#utility.yul\":11035:11038   */\n      dup3\n        /* \"#utility.yul\":10946:11039   */\n      tag_125\n      jump\t// in\n    tag_236:\n        /* \"#utility.yul\":11064:11066   */\n      0x20\n        /* \"#utility.yul\":11059:11062   */\n      dup3\n        /* \"#utility.yul\":11055:11067   */\n      add\n        /* \"#utility.yul\":11048:11067   */\n      swap1\n      pop\n        /* \"#utility.yul\":10707:11073   */\n      swap2\n      swap1\n      pop\n      jump\t// out\n        /* \"#utility.yul\":11079:11498   */\n    tag_76:\n        /* \"#utility.yul\":11245:11249   */\n      0x00\n        /* \"#utility.yul\":11283:11285   */\n      0x20\n        /* \"#utility.yul\":11272:11281   */\n      dup3\n        /* \"#utility.yul\":11268:11286   */\n      add\n        /* \"#utility.yul\":11260:11286   */\n      swap1\n      pop\n        /* \"#utility.yul\":11332:11341   */\n      dup2\n        /* \"#utility.yul\":11326:11330   */\n      dup2\n        /* \"#utility.yul\":11322:11342   */\n      sub\n        /* \"#utility.yul\":11318:11319   */\n      0x00\n        /* \"#utility.yul\":11307:11316   */\n      dup4\n        /* \"#utility.yul\":11303:11320   */\n      add\n        /* \"#utility.yul\":11296:11343   */\n      mstore\n        /* \"#utility.yul\":11360:11491   */\n      tag_238\n        /* \"#utility.yul\":11486:11490   */\n      dup2\n        /* \"#utility.yul\":11360:11491   */\n      tag_126\n      jump\t// in\n    tag_238:\n        /* \"#utility.yul\":11352:11491   */\n      swap1\n      pop\n        /* \"#utility.yul\":11079:11498   */\n      swap2\n      swap1\n      pop\n      jump\t// out\n        /* \"#utility.yul\":11504:11684   */\n    tag_127:\n        /* \"#utility.yul\":11552:11629   */\n      0x4e487b7100000000000000000000000000000000000000000000000000000000\n        /* \"#utility.yul\":11549:11550   */\n      0x00\n        /* \"#utility.yul\":11542:11630   */\n      mstore\n        /* \"#utility.yul\":11649:11653   */\n      0x22\n        /* \"#utility.yul\":11646:11647   */\n      0x04\n        /* \"#utility.yul\":11639:11654   */\n      mstore\n        /* \"#utility.yul\":11673:11677   */\n      0x24\n        /* \"#utility.yul\":11670:11671   */\n      0x00\n        /* \"#utility.yul\":11663:11678   */\n      revert\n        /* \"#utility.yul\":11690:12010   */\n    tag_80:\n        /* \"#utility.yul\":11734:11740   */\n      0x00\n        /* \"#utility.yul\":11771:11772   */\n      0x02\n        /* \"#utility.yul\":11765:11769   */\n      dup3\n        /* \"#utility.yul\":11761:11773   */\n      div\n        /* \"#utility.yul\":11751:11773   */\n      swap1\n      pop\n        /* \"#utility.yul\":11818:11819   */\n      0x01\n        /* \"#utility.yul\":11812:11816   */\n      dup3\n        /* \"#utility.yul\":11808:11820   */\n      and\n        /* \"#utility.yul\":11839:11857   */\n      dup1\n        /* \"#utility.yul\":11829:11910   */\n      tag_241\n      jumpi\n        /* \"#utility.yul\":11895:11899   */\n      0x7f\n        /* \"#utility.yul\":11887:11893   */\n      dup3\n        /* \"#utility.yul\":11883:11900   */\n      and\n        /* \"#utility.yul\":11873:11900   */\n      swap2\n      pop\n        /* \"#utility.yul\":11829:11910   */\n    tag_241:\n        /* \"#utility.yul\":11957:11959   */\n      0x20\n        /* \"#utility.yul\":11949:11955   */\n      dup3\n        /* \"#utility.yul\":11946:11960   */\n      lt\n        /* \"#utility.yul\":11926:11944   */\n      dup2\n        /* \"#utility.yul\":11923:11961   */\n      sub\n        /* \"#utility.yul\":11920:12004   */\n      tag_242\n      jumpi\n        /* \"#utility.yul\":11976:11994   */\n      tag_243\n      tag_127\n      jump\t// in\n    tag_243:\n        /* \"#utility.yul\":11920:12004   */\n    tag_242:\n        /* \"#utility.yul\":11741:12010   */\n      pop\n        /* \"#utility.yul\":11690:12010   */\n      swap2\n      swap1\n      pop\n      jump\t// out\n        /* \"#utility.yul\":12016:12192   */\n    tag_128:\n        /* \"#utility.yul\":12156:12184   */\n      0x41756374696f6e20656e6420616c72656164792063616c6c6564000000000000\n        /* \"#utility.yul\":12152:12153   */\n      0x00\n        /* \"#utility.yul\":12144:12150   */\n      dup3\n        /* \"#utility.yul\":12140:12154   */\n      add\n        /* \"#utility.yul\":12133:12185   */\n      mstore\n        /* \"#utility.yul\":12016:12192   */\n      pop\n      jump\t// out\n        /* \"#utility.yul\":12198:12564   */\n    tag_129:\n        /* \"#utility.yul\":12340:12343   */\n      0x00\n        /* \"#utility.yul\":12361:12428   */\n      tag_246\n        /* \"#utility.yul\":12425:12427   */\n      0x1a\n        /* \"#utility.yul\":12420:12423   */\n      dup4\n        /* \"#utility.yul\":12361:12428   */\n      tag_113\n      jump\t// in\n    tag_246:\n        /* \"#utility.yul\":12354:12428   */\n      swap2\n      pop\n        /* \"#utility.yul\":12437:12530   */\n      tag_247\n        /* \"#utility.yul\":12526:12529   */\n      dup3\n        /* \"#utility.yul\":12437:12530   */\n      tag_128\n      jump\t// in\n    tag_247:\n        /* \"#utility.yul\":12555:12557   */\n      0x20\n        /* \"#utility.yul\":12550:12553   */\n      dup3\n        /* \"#utility.yul\":12546:12558   */\n      add\n        /* \"#utility.yul\":12539:12558   */\n      swap1\n      pop\n        /* \"#utility.yul\":12198:12564   */\n      swap2\n      swap1\n      pop\n      jump\t// out\n        /* \"#utility.yul\":12570:12989   */\n    tag_90:\n        /* \"#utility.yul\":12736:12740   */\n      0x00\n        /* \"#utility.yul\":12774:12776   */\n      0x20\n        /* \"#utility.yul\":12763:12772   */\n      dup3\n        /* \"#utility.yul\":12759:12777   */\n      add\n        /* \"#utility.yul\":12751:12777   */\n      swap1\n      pop\n        /* \"#utility.yul\":12823:12832   */\n      dup2\n        /* \"#utility.yul\":12817:12821   */\n      dup2\n        /* \"#utility.yul\":12813:12833   */\n      sub\n        /* \"#utility.yul\":12809:12810   */\n      0x00\n        /* \"#utility.yul\":12798:12807   */\n      dup4\n        /* \"#utility.yul\":12794:12811   */\n      add\n        /* \"#utility.yul\":12787:12834   */\n      mstore\n        /* \"#utility.yul\":12851:12982   */\n      tag_249\n        /* \"#utility.yul\":12977:12981   */\n      dup2\n        /* \"#utility.yul\":12851:12982   */\n      tag_129\n      jump\t// in\n    tag_249:\n        /* \"#utility.yul\":12843:12982   */\n      swap1\n      pop\n        /* \"#utility.yul\":12570:12989   */\n      swap2\n      swap1\n      pop\n      jump\t// out\n\n    auxdata: 0xa26469706673582212203cd490d6a3b0d5cfc0cf220be2aa8e86f5ba8b0b16ba4d36f13c87d45ecefefd64736f6c634300081e0033\n}\n",
				"bytecode": {
					"linkReferences": {},
					"object": "608060405234801561000f575f5ffd5b5060405161133e38038061133e83398181016040528101906100319190610219565b335f5f6101000a81548173ffffffffffffffffffffffffffffffffffffffff021916908373ffffffffffffffffffffffffffffffffffffffff160217905550816001908161007f919061047a565b50804261008c9190610576565b60028190555050506105a9565b5f604051905090565b5f5ffd5b5f5ffd5b5f5ffd5b5f5ffd5b5f601f19601f8301169050919050565b7f4e487b71000000000000000000000000000000000000000000000000000000005f52604160045260245ffd5b6100f8826100b2565b810181811067ffffffffffffffff82111715610117576101166100c2565b5b80604052505050565b5f610129610099565b905061013582826100ef565b919050565b5f67ffffffffffffffff821115610154576101536100c2565b5b61015d826100b2565b9050602081019050919050565b8281835e5f83830152505050565b5f61018a6101858461013a565b610120565b9050828152602081018484840111156101a6576101a56100ae565b5b6101b184828561016a565b509392505050565b5f82601f8301126101cd576101cc6100aa565b5b81516101dd848260208601610178565b91505092915050565b5f819050919050565b6101f8816101e6565b8114610202575f5ffd5b50565b5f81519050610213816101ef565b92915050565b5f5f6040838503121561022f5761022e6100a2565b5b5f83015167ffffffffffffffff81111561024c5761024b6100a6565b5b610258858286016101b9565b925050602061026985828601610205565b9150509250929050565b5f81519050919050565b7f4e487b71000000000000000000000000000000000000000000000000000000005f52602260045260245ffd5b5f60028204905060018216806102c157607f821691505b6020821081036102d4576102d361027d565b5b50919050565b5f819050815f5260205f209050919050565b5f6020601f8301049050919050565b5f82821b905092915050565b5f600883026103367fffffffffffffffffffffffffffffffffffffffffffffffffffffffffffffffff826102fb565b61034086836102fb565b95508019841693508086168417925050509392505050565b5f819050919050565b5f61037b610376610371846101e6565b610358565b6101e6565b9050919050565b5f819050919050565b61039483610361565b6103a86103a082610382565b848454610307565b825550505050565b5f5f905090565b6103bf6103b0565b6103ca81848461038b565b505050565b5b818110156103ed576103e25f826103b7565b6001810190506103d0565b5050565b601f82111561043257610403816102da565b61040c846102ec565b8101602085101561041b578190505b61042f610427856102ec565b8301826103cf565b50505b505050565b5f82821c905092915050565b5f6104525f1984600802610437565b1980831691505092915050565b5f61046a8383610443565b9150826002028217905092915050565b61048382610273565b67ffffffffffffffff81111561049c5761049b6100c2565b5b6104a682546102aa565b6104b18282856103f1565b5f60209050601f8311600181146104e2575f84156104d0578287015190505b6104da858261045f565b865550610541565b601f1984166104f0866102da565b5f5b82811015610517578489015182556001820191506020850194506020810190506104f2565b868310156105345784890151610530601f891682610443565b8355505b6001600288020188555050505b505050505050565b7f4e487b71000000000000000000000000000000000000000000000000000000005f52601160045260245ffd5b5f610580826101e6565b915061058b836101e6565b92508282019050808211156105a3576105a2610549565b5b92915050565b610d88806105b65f395ff3fe608060405234801561000f575f5ffd5b506004361061009c575f3560e01c80638da5cb5b116100645780638da5cb5b146101465780638e7ea5b214610164578063cff29dfd14610183578063f2a4a82e146101b3578063fe67a54b146101d15761009c565b806312fa6feb146100a05780633a79d2e5146100be57806341709bcb146100dc578063454a2ab3146100fa57806362ea82db14610116575b5f5ffd5b6100a86101db565b6040516100b5919061071e565b60405180910390f35b6100c66101ed565b6040516100d3919061081e565b60405180910390f35b6100e4610278565b6040516100f19190610856565b60405180910390f35b610114600480360381019061010f919061089d565b61027e565b005b610130600480360381019061012b91906108f2565b6104d7565b60405161013d9190610856565b60405180910390f35b61014e6104ec565b60405161015b919061092c565b60405180910390f35b61016c610510565b60405161017a929190610945565b60405180910390f35b61019d6004803603810190610198919061089d565b61058d565b6040516101aa919061092c565b60405180910390f35b6101bb6105c8565b6040516101c891906109dc565b60405180910390f35b6101d9610654565b005b60055f9054906101000a900460ff1681565b6060600780548060200260200160405190810160405280929190818152602001828054801561026e57602002820191905f5260205f20905b815f9054906101000a900473ffffffffffffffffffffffffffffffffffffffff1673ffffffffffffffffffffffffffffffffffffffff1681526020019060010190808311610225575b5050505050905090565b60025481565b60025442106102c2576040517f08c379a00000000000000000000000000000000000000000000000000000000081526004016102b990610a46565b60405180910390fd5b5f8111610304576040517f08c379a00000000000000000000000000000000000000000000000000000000081526004016102fb90610ad4565b60405180910390fd5b6064606960065f3373ffffffffffffffffffffffffffffffffffffffff1673ffffffffffffffffffffffffffffffffffffffff1681526020019081526020015f20546103509190610b1f565b61035a9190610b8d565b811161039b576040517f08c379a000000000000000000000000000000000000000000000000000000000815260040161039290610c07565b60405180910390fd5b5f60065f3373ffffffffffffffffffffffffffffffffffffffff1673ffffffffffffffffffffffffffffffffffffffff1681526020019081526020015f20540361044057600733908060018154018082558091505060019003905f5260205f20015f9091909190916101000a81548173ffffffffffffffffffffffffffffffffffffffff021916908373ffffffffffffffffffffffffffffffffffffffff1602179055505b8060065f3373ffffffffffffffffffffffffffffffffffffffff1673ffffffffffffffffffffffffffffffffffffffff1681526020019081526020015f20819055506004548111156104d457806004819055503360035f6101000a81548173ffffffffffffffffffffffffffffffffffffffff021916908373ffffffffffffffffffffffffffffffffffffffff1602179055505b50565b6006602052805f5260405f205f915090505481565b5f5f9054906101000a900473ffffffffffffffffffffffffffffffffffffffff1681565b5f5f60055f9054906101000a900460ff16610560576040517f08c379a000000000000000000000000000000000000000000000000000000000815260040161055790610c6f565b60405180910390fd5b60035f9054906101000a900473ffffffffffffffffffffffffffffffffffffffff16600454915091509091565b6007818154811061059c575f80fd5b905f5260205f20015f915054906101000a900473ffffffffffffffffffffffffffffffffffffffff1681565b600180546105d590610cba565b80601f016020809104026020016040519081016040528092919081815260200182805461060190610cba565b801561064c5780601f106106235761010080835404028352916020019161064c565b820191905f5260205f20905b81548152906001019060200180831161062f57829003601f168201915b505050505081565b600254421015610699576040517f08c379a000000000000000000000000000000000000000000000000000000000815260040161069090610c6f565b60405180910390fd5b60055f9054906101000a900460ff16156106e8576040517f08c379a00000000000000000000000000000000000000000000000000000000081526004016106df90610d34565b60405180910390fd5b600160055f6101000a81548160ff021916908315150217905550565b5f8115159050919050565b61071881610704565b82525050565b5f6020820190506107315f83018461070f565b92915050565b5f81519050919050565b5f82825260208201905092915050565b5f819050602082019050919050565b5f73ffffffffffffffffffffffffffffffffffffffff82169050919050565b5f61078982610760565b9050919050565b6107998161077f565b82525050565b5f6107aa8383610790565b60208301905092915050565b5f602082019050919050565b5f6107cc82610737565b6107d68185610741565b93506107e183610751565b805f5b838110156108115781516107f8888261079f565b9750610803836107b6565b9250506001810190506107e4565b5085935050505092915050565b5f6020820190508181035f83015261083681846107c2565b905092915050565b5f819050919050565b6108508161083e565b82525050565b5f6020820190506108695f830184610847565b92915050565b5f5ffd5b61087c8161083e565b8114610886575f5ffd5b50565b5f8135905061089781610873565b92915050565b5f602082840312156108b2576108b161086f565b5b5f6108bf84828501610889565b91505092915050565b6108d18161077f565b81146108db575f5ffd5b50565b5f813590506108ec816108c8565b92915050565b5f602082840312156109075761090661086f565b5b5f610914848285016108de565b91505092915050565b6109268161077f565b82525050565b5f60208201905061093f5f83018461091d565b92915050565b5f6040820190506109585f83018561091d565b6109656020830184610847565b9392505050565b5f81519050919050565b5f82825260208201905092915050565b8281835e5f83830152505050565b5f601f19601f8301169050919050565b5f6109ae8261096c565b6109b88185610976565b93506109c8818560208601610986565b6109d181610994565b840191505092915050565b5f6020820190508181035f8301526109f481846109a4565b905092915050565b7f41756374696f6e2068617320656e6465640000000000000000000000000000005f82015250565b5f610a30601183610976565b9150610a3b826109fc565b602082019050919050565b5f6020820190508181035f830152610a5d81610a24565b9050919050565b7f42696420616d6f756e74206d7573742062652067726561746572207468616e205f8201527f7a65726f2e000000000000000000000000000000000000000000000000000000602082015250565b5f610abe602583610976565b9150610ac982610a64565b604082019050919050565b5f6020820190508181035f830152610aeb81610ab2565b9050919050565b7f4e487b71000000000000000000000000000000000000000000000000000000005f52601160045260245ffd5b5f610b298261083e565b9150610b348361083e565b9250828202610b428161083e565b91508282048414831517610b5957610b58610af2565b5b5092915050565b7f4e487b71000000000000000000000000000000000000000000000000000000005f52601260045260245ffd5b5f610b978261083e565b9150610ba28361083e565b925082610bb257610bb1610b60565b5b828204905092915050565b7f42696420697320746f6f206c6f770000000000000000000000000000000000005f82015250565b5f610bf1600e83610976565b9150610bfc82610bbd565b602082019050919050565b5f6020820190508181035f830152610c1e81610be5565b9050919050565b7f41756374696f6e206861736e277420656e6465642079657400000000000000005f82015250565b5f610c59601883610976565b9150610c6482610c25565b602082019050919050565b5f6020820190508181035f830152610c8681610c4d565b9050919050565b7f4e487b71000000000000000000000000000000000000000000000000000000005f52602260045260245ffd5b5f6002820490506001821680610cd157607f821691505b602082108103610ce457610ce3610c8d565b5b50919050565b7f41756374696f6e20656e6420616c72656164792063616c6c65640000000000005f82015250565b5f610d1e601a83610976565b9150610d2982610cea565b602082019050919050565b5f6020820190508181035f830152610d4b81610d12565b905091905056fea26469706673582212203cd490d6a3b0d5cfc0cf220be2aa8e86f5ba8b0b16ba4d36f13c87d45ecefefd64736f6c634300081e0033",
					"opcodes": "PUSH1 0x80 PUSH1 0x40 MSTORE CALLVALUE DUP1 ISZERO PUSH2 0xF JUMPI PUSH0 PUSH0 REVERT JUMPDEST POP PUSH1 0x40 MLOAD PUSH2 0x133E CODESIZE SUB DUP1 PUSH2 0x133E DUP4 CODECOPY DUP2 DUP2 ADD PUSH1 0x40 MSTORE DUP2 ADD SWAP1 PUSH2 0x31 SWAP2 SWAP1 PUSH2 0x219 JUMP JUMPDEST CALLER PUSH0 PUSH0 PUSH2 0x100 EXP DUP2 SLOAD DUP2 PUSH20 0xFFFFFFFFFFFFFFFFFFFFFFFFFFFFFFFFFFFFFFFF MUL NOT AND SWAP1 DUP4 PUSH20 0xFFFFFFFFFFFFFFFFFFFFFFFFFFFFFFFFFFFFFFFF AND MUL OR SWAP1 SSTORE POP DUP2 PUSH1 0x1 SWAP1 DUP2 PUSH2 0x7F SWAP2 SWAP1 PUSH2 0x47A JUMP JUMPDEST POP DUP1 TIMESTAMP PUSH2 0x8C SWAP2 SWAP1 PUSH2 0x576 JUMP JUMPDEST PUSH1 0x2 DUP2 SWAP1 SSTORE POP POP POP PUSH2 0x5A9 JUMP JUMPDEST PUSH0 PUSH1 0x40 MLOAD SWAP1 POP SWAP1 JUMP JUMPDEST PUSH0 PUSH0 REVERT JUMPDEST PUSH0 PUSH0 REVERT JUMPDEST PUSH0 PUSH0 REVERT JUMPDEST PUSH0 PUSH0 REVERT JUMPDEST PUSH0 PUSH1 0x1F NOT PUSH1 0x1F DUP4 ADD AND SWAP1 POP SWAP2 SWAP1 POP JUMP JUMPDEST PUSH32 0x4E487B7100000000000000000000000000000000000000000000000000000000 PUSH0 MSTORE PUSH1 0x41 PUSH1 0x4 MSTORE PUSH1 0x24 PUSH0 REVERT JUMPDEST PUSH2 0xF8 DUP3 PUSH2 0xB2 JUMP JUMPDEST DUP2 ADD DUP2 DUP2 LT PUSH8 0xFFFFFFFFFFFFFFFF DUP3 GT OR ISZERO PUSH2 0x117 JUMPI PUSH2 0x116 PUSH2 0xC2 JUMP JUMPDEST JUMPDEST DUP1 PUSH1 0x40 MSTORE POP POP POP JUMP JUMPDEST PUSH0 PUSH2 0x129 PUSH2 0x99 JUMP JUMPDEST SWAP1 POP PUSH2 0x135 DUP3 DUP3 PUSH2 0xEF JUMP JUMPDEST SWAP2 SWAP1 POP JUMP JUMPDEST PUSH0 PUSH8 0xFFFFFFFFFFFFFFFF DUP3 GT ISZERO PUSH2 0x154 JUMPI PUSH2 0x153 PUSH2 0xC2 JUMP JUMPDEST JUMPDEST PUSH2 0x15D DUP3 PUSH2 0xB2 JUMP JUMPDEST SWAP1 POP PUSH1 0x20 DUP2 ADD SWAP1 POP SWAP2 SWAP1 POP JUMP JUMPDEST DUP3 DUP2 DUP4 MCOPY PUSH0 DUP4 DUP4 ADD MSTORE POP POP POP JUMP JUMPDEST PUSH0 PUSH2 0x18A PUSH2 0x185 DUP5 PUSH2 0x13A JUMP JUMPDEST PUSH2 0x120 JUMP JUMPDEST SWAP1 POP DUP3 DUP2 MSTORE PUSH1 0x20 DUP2 ADD DUP5 DUP5 DUP5 ADD GT ISZERO PUSH2 0x1A6 JUMPI PUSH2 0x1A5 PUSH2 0xAE JUMP JUMPDEST JUMPDEST PUSH2 0x1B1 DUP5 DUP3 DUP6 PUSH2 0x16A JUMP JUMPDEST POP SWAP4 SWAP3 POP POP POP JUMP JUMPDEST PUSH0 DUP3 PUSH1 0x1F DUP4 ADD SLT PUSH2 0x1CD JUMPI PUSH2 0x1CC PUSH2 0xAA JUMP JUMPDEST JUMPDEST DUP2 MLOAD PUSH2 0x1DD DUP5 DUP3 PUSH1 0x20 DUP7 ADD PUSH2 0x178 JUMP JUMPDEST SWAP2 POP POP SWAP3 SWAP2 POP POP JUMP JUMPDEST PUSH0 DUP2 SWAP1 POP SWAP2 SWAP1 POP JUMP JUMPDEST PUSH2 0x1F8 DUP2 PUSH2 0x1E6 JUMP JUMPDEST DUP2 EQ PUSH2 0x202 JUMPI PUSH0 PUSH0 REVERT JUMPDEST POP JUMP JUMPDEST PUSH0 DUP2 MLOAD SWAP1 POP PUSH2 0x213 DUP2 PUSH2 0x1EF JUMP JUMPDEST SWAP3 SWAP2 POP POP JUMP JUMPDEST PUSH0 PUSH0 PUSH1 0x40 DUP4 DUP6 SUB SLT ISZERO PUSH2 0x22F JUMPI PUSH2 0x22E PUSH2 0xA2 JUMP JUMPDEST JUMPDEST PUSH0 DUP4 ADD MLOAD PUSH8 0xFFFFFFFFFFFFFFFF DUP2 GT ISZERO PUSH2 0x24C JUMPI PUSH2 0x24B PUSH2 0xA6 JUMP JUMPDEST JUMPDEST PUSH2 0x258 DUP6 DUP3 DUP7 ADD PUSH2 0x1B9 JUMP JUMPDEST SWAP3 POP POP PUSH1 0x20 PUSH2 0x269 DUP6 DUP3 DUP7 ADD PUSH2 0x205 JUMP JUMPDEST SWAP2 POP POP SWAP3 POP SWAP3 SWAP1 POP JUMP JUMPDEST PUSH0 DUP2 MLOAD SWAP1 POP SWAP2 SWAP1 POP JUMP JUMPDEST PUSH32 0x4E487B7100000000000000000000000000000000000000000000000000000000 PUSH0 MSTORE PUSH1 0x22 PUSH1 0x4 MSTORE PUSH1 0x24 PUSH0 REVERT JUMPDEST PUSH0 PUSH1 0x2 DUP3 DIV SWAP1 POP PUSH1 0x1 DUP3 AND DUP1 PUSH2 0x2C1 JUMPI PUSH1 0x7F DUP3 AND SWAP2 POP JUMPDEST PUSH1 0x20 DUP3 LT DUP2 SUB PUSH2 0x2D4 JUMPI PUSH2 0x2D3 PUSH2 0x27D JUMP JUMPDEST JUMPDEST POP SWAP2 SWAP1 POP JUMP JUMPDEST PUSH0 DUP2 SWAP1 POP DUP2 PUSH0 MSTORE PUSH1 0x20 PUSH0 KECCAK256 SWAP1 POP SWAP2 SWAP1 POP JUMP JUMPDEST PUSH0 PUSH1 0x20 PUSH1 0x1F DUP4 ADD DIV SWAP1 POP SWAP2 SWAP1 POP JUMP JUMPDEST PUSH0 DUP3 DUP3 SHL SWAP1 POP SWAP3 SWAP2 POP POP JUMP JUMPDEST PUSH0 PUSH1 0x8 DUP4 MUL PUSH2 0x336 PUSH32 0xFFFFFFFFFFFFFFFFFFFFFFFFFFFFFFFFFFFFFFFFFFFFFFFFFFFFFFFFFFFFFFFF DUP3 PUSH2 0x2FB JUMP JUMPDEST PUSH2 0x340 DUP7 DUP4 PUSH2 0x2FB JUMP JUMPDEST SWAP6 POP DUP1 NOT DUP5 AND SWAP4 POP DUP1 DUP7 AND DUP5 OR SWAP3 POP POP POP SWAP4 SWAP3 POP POP POP JUMP JUMPDEST PUSH0 DUP2 SWAP1 POP SWAP2 SWAP1 POP JUMP JUMPDEST PUSH0 PUSH2 0x37B PUSH2 0x376 PUSH2 0x371 DUP5 PUSH2 0x1E6 JUMP JUMPDEST PUSH2 0x358 JUMP JUMPDEST PUSH2 0x1E6 JUMP JUMPDEST SWAP1 POP SWAP2 SWAP1 POP JUMP JUMPDEST PUSH0 DUP2 SWAP1 POP SWAP2 SWAP1 POP JUMP JUMPDEST PUSH2 0x394 DUP4 PUSH2 0x361 JUMP JUMPDEST PUSH2 0x3A8 PUSH2 0x3A0 DUP3 PUSH2 0x382 JUMP JUMPDEST DUP5 DUP5 SLOAD PUSH2 0x307 JUMP JUMPDEST DUP3 SSTORE POP POP POP POP JUMP JUMPDEST PUSH0 PUSH0 SWAP1 POP SWAP1 JUMP JUMPDEST PUSH2 0x3BF PUSH2 0x3B0 JUMP JUMPDEST PUSH2 0x3CA DUP2 DUP5 DUP5 PUSH2 0x38B JUMP JUMPDEST POP POP POP JUMP JUMPDEST JUMPDEST DUP2 DUP2 LT ISZERO PUSH2 0x3ED JUMPI PUSH2 0x3E2 PUSH0 DUP3 PUSH2 0x3B7 JUMP JUMPDEST PUSH1 0x1 DUP2 ADD SWAP1 POP PUSH2 0x3D0 JUMP JUMPDEST POP POP JUMP JUMPDEST PUSH1 0x1F DUP3 GT ISZERO PUSH2 0x432 JUMPI PUSH2 0x403 DUP2 PUSH2 0x2DA JUMP JUMPDEST PUSH2 0x40C DUP5 PUSH2 0x2EC JUMP JUMPDEST DUP2 ADD PUSH1 0x20 DUP6 LT ISZERO PUSH2 0x41B JUMPI DUP2 SWAP1 POP JUMPDEST PUSH2 0x42F PUSH2 0x427 DUP6 PUSH2 0x2EC JUMP JUMPDEST DUP4 ADD DUP3 PUSH2 0x3CF JUMP JUMPDEST POP POP JUMPDEST POP POP POP JUMP JUMPDEST PUSH0 DUP3 DUP3 SHR SWAP1 POP SWAP3 SWAP2 POP POP JUMP JUMPDEST PUSH0 PUSH2 0x452 PUSH0 NOT DUP5 PUSH1 0x8 MUL PUSH2 0x437 JUMP JUMPDEST NOT DUP1 DUP4 AND SWAP2 POP POP SWAP3 SWAP2 POP POP JUMP JUMPDEST PUSH0 PUSH2 0x46A DUP4 DUP4 PUSH2 0x443 JUMP JUMPDEST SWAP2 POP DUP3 PUSH1 0x2 MUL DUP3 OR SWAP1 POP SWAP3 SWAP2 POP POP JUMP JUMPDEST PUSH2 0x483 DUP3 PUSH2 0x273 JUMP JUMPDEST PUSH8 0xFFFFFFFFFFFFFFFF DUP2 GT ISZERO PUSH2 0x49C JUMPI PUSH2 0x49B PUSH2 0xC2 JUMP JUMPDEST JUMPDEST PUSH2 0x4A6 DUP3 SLOAD PUSH2 0x2AA JUMP JUMPDEST PUSH2 0x4B1 DUP3 DUP3 DUP6 PUSH2 0x3F1 JUMP JUMPDEST PUSH0 PUSH1 0x20 SWAP1 POP PUSH1 0x1F DUP4 GT PUSH1 0x1 DUP2 EQ PUSH2 0x4E2 JUMPI PUSH0 DUP5 ISZERO PUSH2 0x4D0 JUMPI DUP3 DUP8 ADD MLOAD SWAP1 POP JUMPDEST PUSH2 0x4DA DUP6 DUP3 PUSH2 0x45F JUMP JUMPDEST DUP7 SSTORE POP PUSH2 0x541 JUMP JUMPDEST PUSH1 0x1F NOT DUP5 AND PUSH2 0x4F0 DUP7 PUSH2 0x2DA JUMP JUMPDEST PUSH0 JUMPDEST DUP3 DUP2 LT ISZERO PUSH2 0x517 JUMPI DUP5 DUP10 ADD MLOAD DUP3 SSTORE PUSH1 0x1 DUP3 ADD SWAP2 POP PUSH1 0x20 DUP6 ADD SWAP5 POP PUSH1 0x20 DUP2 ADD SWAP1 POP PUSH2 0x4F2 JUMP JUMPDEST DUP7 DUP4 LT ISZERO PUSH2 0x534 JUMPI DUP5 DUP10 ADD MLOAD PUSH2 0x530 PUSH1 0x1F DUP10 AND DUP3 PUSH2 0x443 JUMP JUMPDEST DUP4 SSTORE POP JUMPDEST PUSH1 0x1 PUSH1 0x2 DUP9 MUL ADD DUP9 SSTORE POP POP POP JUMPDEST POP POP POP POP POP POP JUMP JUMPDEST PUSH32 0x4E487B7100000000000000000000000000000000000000000000000000000000 PUSH0 MSTORE PUSH1 0x11 PUSH1 0x4 MSTORE PUSH1 0x24 PUSH0 REVERT JUMPDEST PUSH0 PUSH2 0x580 DUP3 PUSH2 0x1E6 JUMP JUMPDEST SWAP2 POP PUSH2 0x58B DUP4 PUSH2 0x1E6 JUMP JUMPDEST SWAP3 POP DUP3 DUP3 ADD SWAP1 POP DUP1 DUP3 GT ISZERO PUSH2 0x5A3 JUMPI PUSH2 0x5A2 PUSH2 0x549 JUMP JUMPDEST JUMPDEST SWAP3 SWAP2 POP POP JUMP JUMPDEST PUSH2 0xD88 DUP1 PUSH2 0x5B6 PUSH0 CODECOPY PUSH0 RETURN INVALID PUSH1 0x80 PUSH1 0x40 MSTORE CALLVALUE DUP1 ISZERO PUSH2 0xF JUMPI PUSH0 PUSH0 REVERT JUMPDEST POP PUSH1 0x4 CALLDATASIZE LT PUSH2 0x9C JUMPI PUSH0 CALLDATALOAD PUSH1 0xE0 SHR DUP1 PUSH4 0x8DA5CB5B GT PUSH2 0x64 JUMPI DUP1 PUSH4 0x8DA5CB5B EQ PUSH2 0x146 JUMPI DUP1 PUSH4 0x8E7EA5B2 EQ PUSH2 0x164 JUMPI DUP1 PUSH4 0xCFF29DFD EQ PUSH2 0x183 JUMPI DUP1 PUSH4 0xF2A4A82E EQ PUSH2 0x1B3 JUMPI DUP1 PUSH4 0xFE67A54B EQ PUSH2 0x1D1 JUMPI PUSH2 0x9C JUMP JUMPDEST DUP1 PUSH4 0x12FA6FEB EQ PUSH2 0xA0 JUMPI DUP1 PUSH4 0x3A79D2E5 EQ PUSH2 0xBE JUMPI DUP1 PUSH4 0x41709BCB EQ PUSH2 0xDC JUMPI DUP1 PUSH4 0x454A2AB3 EQ PUSH2 0xFA JUMPI DUP1 PUSH4 0x62EA82DB EQ PUSH2 0x116 JUMPI JUMPDEST PUSH0 PUSH0 REVERT JUMPDEST PUSH2 0xA8 PUSH2 0x1DB JUMP JUMPDEST PUSH1 0x40 MLOAD PUSH2 0xB5 SWAP2 SWAP1 PUSH2 0x71E JUMP JUMPDEST PUSH1 0x40 MLOAD DUP1 SWAP2 SUB SWAP1 RETURN JUMPDEST PUSH2 0xC6 PUSH2 0x1ED JUMP JUMPDEST PUSH1 0x40 MLOAD PUSH2 0xD3 SWAP2 SWAP1 PUSH2 0x81E JUMP JUMPDEST PUSH1 0x40 MLOAD DUP1 SWAP2 SUB SWAP1 RETURN JUMPDEST PUSH2 0xE4 PUSH2 0x278 JUMP JUMPDEST PUSH1 0x40 MLOAD PUSH2 0xF1 SWAP2 SWAP1 PUSH2 0x856 JUMP JUMPDEST PUSH1 0x40 MLOAD DUP1 SWAP2 SUB SWAP1 RETURN JUMPDEST PUSH2 0x114 PUSH1 0x4 DUP1 CALLDATASIZE SUB DUP2 ADD SWAP1 PUSH2 0x10F SWAP2 SWAP1 PUSH2 0x89D JUMP JUMPDEST PUSH2 0x27E JUMP JUMPDEST STOP JUMPDEST PUSH2 0x130 PUSH1 0x4 DUP1 CALLDATASIZE SUB DUP2 ADD SWAP1 PUSH2 0x12B SWAP2 SWAP1 PUSH2 0x8F2 JUMP JUMPDEST PUSH2 0x4D7 JUMP JUMPDEST PUSH1 0x40 MLOAD PUSH2 0x13D SWAP2 SWAP1 PUSH2 0x856 JUMP JUMPDEST PUSH1 0x40 MLOAD DUP1 SWAP2 SUB SWAP1 RETURN JUMPDEST PUSH2 0x14E PUSH2 0x4EC JUMP JUMPDEST PUSH1 0x40 MLOAD PUSH2 0x15B SWAP2 SWAP1 PUSH2 0x92C JUMP JUMPDEST PUSH1 0x40 MLOAD DUP1 SWAP2 SUB SWAP1 RETURN JUMPDEST PUSH2 0x16C PUSH2 0x510 JUMP JUMPDEST PUSH1 0x40 MLOAD PUSH2 0x17A SWAP3 SWAP2 SWAP1 PUSH2 0x945 JUMP JUMPDEST PUSH1 0x40 MLOAD DUP1 SWAP2 SUB SWAP1 RETURN JUMPDEST PUSH2 0x19D PUSH1 0x4 DUP1 CALLDATASIZE SUB DUP2 ADD SWAP1 PUSH2 0x198 SWAP2 SWAP1 PUSH2 0x89D JUMP JUMPDEST PUSH2 0x58D JUMP JUMPDEST PUSH1 0x40 MLOAD PUSH2 0x1AA SWAP2 SWAP1 PUSH2 0x92C JUMP JUMPDEST PUSH1 0x40 MLOAD DUP1 SWAP2 SUB SWAP1 RETURN JUMPDEST PUSH2 0x1BB PUSH2 0x5C8 JUMP JUMPDEST PUSH1 0x40 MLOAD PUSH2 0x1C8 SWAP2 SWAP1 PUSH2 0x9DC JUMP JUMPDEST PUSH1 0x40 MLOAD DUP1 SWAP2 SUB SWAP1 RETURN JUMPDEST PUSH2 0x1D9 PUSH2 0x654 JUMP JUMPDEST STOP JUMPDEST PUSH1 0x5 PUSH0 SWAP1 SLOAD SWAP1 PUSH2 0x100 EXP SWAP1 DIV PUSH1 0xFF AND DUP2 JUMP JUMPDEST PUSH1 0x60 PUSH1 0x7 DUP1 SLOAD DUP1 PUSH1 0x20 MUL PUSH1 0x20 ADD PUSH1 0x40 MLOAD SWAP1 DUP2 ADD PUSH1 0x40 MSTORE DUP1 SWAP3 SWAP2 SWAP1 DUP2 DUP2 MSTORE PUSH1 0x20 ADD DUP3 DUP1 SLOAD DUP1 ISZERO PUSH2 0x26E JUMPI PUSH1 0x20 MUL DUP3 ADD SWAP2 SWAP1 PUSH0 MSTORE PUSH1 0x20 PUSH0 KECCAK256 SWAP1 JUMPDEST DUP2 PUSH0 SWAP1 SLOAD SWAP1 PUSH2 0x100 EXP SWAP1 DIV PUSH20 0xFFFFFFFFFFFFFFFFFFFFFFFFFFFFFFFFFFFFFFFF AND PUSH20 0xFFFFFFFFFFFFFFFFFFFFFFFFFFFFFFFFFFFFFFFF AND DUP2 MSTORE PUSH1 0x20 ADD SWAP1 PUSH1 0x1 ADD SWAP1 DUP1 DUP4 GT PUSH2 0x225 JUMPI JUMPDEST POP POP POP POP POP SWAP1 POP SWAP1 JUMP JUMPDEST PUSH1 0x2 SLOAD DUP2 JUMP JUMPDEST PUSH1 0x2 SLOAD TIMESTAMP LT PUSH2 0x2C2 JUMPI PUSH1 0x40 MLOAD PUSH32 0x8C379A000000000000000000000000000000000000000000000000000000000 DUP2 MSTORE PUSH1 0x4 ADD PUSH2 0x2B9 SWAP1 PUSH2 0xA46 JUMP JUMPDEST PUSH1 0x40 MLOAD DUP1 SWAP2 SUB SWAP1 REVERT JUMPDEST PUSH0 DUP2 GT PUSH2 0x304 JUMPI PUSH1 0x40 MLOAD PUSH32 0x8C379A000000000000000000000000000000000000000000000000000000000 DUP2 MSTORE PUSH1 0x4 ADD PUSH2 0x2FB SWAP1 PUSH2 0xAD4 JUMP JUMPDEST PUSH1 0x40 MLOAD DUP1 SWAP2 SUB SWAP1 REVERT JUMPDEST PUSH1 0x64 PUSH1 0x69 PUSH1 0x6 PUSH0 CALLER PUSH20 0xFFFFFFFFFFFFFFFFFFFFFFFFFFFFFFFFFFFFFFFF AND PUSH20 0xFFFFFFFFFFFFFFFFFFFFFFFFFFFFFFFFFFFFFFFF AND DUP2 MSTORE PUSH1 0x20 ADD SWAP1 DUP2 MSTORE PUSH1 0x20 ADD PUSH0 KECCAK256 SLOAD PUSH2 0x350 SWAP2 SWAP1 PUSH2 0xB1F JUMP JUMPDEST PUSH2 0x35A SWAP2 SWAP1 PUSH2 0xB8D JUMP JUMPDEST DUP2 GT PUSH2 0x39B JUMPI PUSH1 0x40 MLOAD PUSH32 0x8C379A000000000000000000000000000000000000000000000000000000000 DUP2 MSTORE PUSH1 0x4 ADD PUSH2 0x392 SWAP1 PUSH2 0xC07 JUMP JUMPDEST PUSH1 0x40 MLOAD DUP1 SWAP2 SUB SWAP1 REVERT JUMPDEST PUSH0 PUSH1 0x6 PUSH0 CALLER PUSH20 0xFFFFFFFFFFFFFFFFFFFFFFFFFFFFFFFFFFFFFFFF AND PUSH20 0xFFFFFFFFFFFFFFFFFFFFFFFFFFFFFFFFFFFFFFFF AND DUP2 MSTORE PUSH1 0x20 ADD SWAP1 DUP2 MSTORE PUSH1 0x20 ADD PUSH0 KECCAK256 SLOAD SUB PUSH2 0x440 JUMPI PUSH1 0x7 CALLER SWAP1 DUP1 PUSH1 0x1 DUP2 SLOAD ADD DUP1 DUP3 SSTORE DUP1 SWAP2 POP POP PUSH1 0x1 SWAP1 SUB SWAP1 PUSH0 MSTORE PUSH1 0x20 PUSH0 KECCAK256 ADD PUSH0 SWAP1 SWAP2 SWAP1 SWAP2 SWAP1 SWAP2 PUSH2 0x100 EXP DUP2 SLOAD DUP2 PUSH20 0xFFFFFFFFFFFFFFFFFFFFFFFFFFFFFFFFFFFFFFFF MUL NOT AND SWAP1 DUP4 PUSH20 0xFFFFFFFFFFFFFFFFFFFFFFFFFFFFFFFFFFFFFFFF AND MUL OR SWAP1 SSTORE POP JUMPDEST DUP1 PUSH1 0x6 PUSH0 CALLER PUSH20 0xFFFFFFFFFFFFFFFFFFFFFFFFFFFFFFFFFFFFFFFF AND PUSH20 0xFFFFFFFFFFFFFFFFFFFFFFFFFFFFFFFFFFFFFFFF AND DUP2 MSTORE PUSH1 0x20 ADD SWAP1 DUP2 MSTORE PUSH1 0x20 ADD PUSH0 KECCAK256 DUP2 SWAP1 SSTORE POP PUSH1 0x4 SLOAD DUP2 GT ISZERO PUSH2 0x4D4 JUMPI DUP1 PUSH1 0x4 DUP2 SWAP1 SSTORE POP CALLER PUSH1 0x3 PUSH0 PUSH2 0x100 EXP DUP2 SLOAD DUP2 PUSH20 0xFFFFFFFFFFFFFFFFFFFFFFFFFFFFFFFFFFFFFFFF MUL NOT AND SWAP1 DUP4 PUSH20 0xFFFFFFFFFFFFFFFFFFFFFFFFFFFFFFFFFFFFFFFF AND MUL OR SWAP1 SSTORE POP JUMPDEST POP JUMP JUMPDEST PUSH1 0x6 PUSH1 0x20 MSTORE DUP1 PUSH0 MSTORE PUSH1 0x40 PUSH0 KECCAK256 PUSH0 SWAP2 POP SWAP1 POP SLOAD DUP2 JUMP JUMPDEST PUSH0 PUSH0 SWAP1 SLOAD SWAP1 PUSH2 0x100 EXP SWAP1 DIV PUSH20 0xFFFFFFFFFFFFFFFFFFFFFFFFFFFFFFFFFFFFFFFF AND DUP2 JUMP JUMPDEST PUSH0 PUSH0 PUSH1 0x5 PUSH0 SWAP1 SLOAD SWAP1 PUSH2 0x100 EXP SWAP1 DIV PUSH1 0xFF AND PUSH2 0x560 JUMPI PUSH1 0x40 MLOAD PUSH32 0x8C379A000000000000000000000000000000000000000000000000000000000 DUP2 MSTORE PUSH1 0x4 ADD PUSH2 0x557 SWAP1 PUSH2 0xC6F JUMP JUMPDEST PUSH1 0x40 MLOAD DUP1 SWAP2 SUB SWAP1 REVERT JUMPDEST PUSH1 0x3 PUSH0 SWAP1 SLOAD SWAP1 PUSH2 0x100 EXP SWAP1 DIV PUSH20 0xFFFFFFFFFFFFFFFFFFFFFFFFFFFFFFFFFFFFFFFF AND PUSH1 0x4 SLOAD SWAP2 POP SWAP2 POP SWAP1 SWAP2 JUMP JUMPDEST PUSH1 0x7 DUP2 DUP2 SLOAD DUP2 LT PUSH2 0x59C JUMPI PUSH0 DUP1 REVERT JUMPDEST SWAP1 PUSH0 MSTORE PUSH1 0x20 PUSH0 KECCAK256 ADD PUSH0 SWAP2 POP SLOAD SWAP1 PUSH2 0x100 EXP SWAP1 DIV PUSH20 0xFFFFFFFFFFFFFFFFFFFFFFFFFFFFFFFFFFFFFFFF AND DUP2 JUMP JUMPDEST PUSH1 0x1 DUP1 SLOAD PUSH2 0x5D5 SWAP1 PUSH2 0xCBA JUMP JUMPDEST DUP1 PUSH1 0x1F ADD PUSH1 0x20 DUP1 SWAP2 DIV MUL PUSH1 0x20 ADD PUSH1 0x40 MLOAD SWAP1 DUP2 ADD PUSH1 0x40 MSTORE DUP1 SWAP3 SWAP2 SWAP1 DUP2 DUP2 MSTORE PUSH1 0x20 ADD DUP3 DUP1 SLOAD PUSH2 0x601 SWAP1 PUSH2 0xCBA JUMP JUMPDEST DUP1 ISZERO PUSH2 0x64C JUMPI DUP1 PUSH1 0x1F LT PUSH2 0x623 JUMPI PUSH2 0x100 DUP1 DUP4 SLOAD DIV MUL DUP4 MSTORE SWAP2 PUSH1 0x20 ADD SWAP2 PUSH2 0x64C JUMP JUMPDEST DUP3 ADD SWAP2 SWAP1 PUSH0 MSTORE PUSH1 0x20 PUSH0 KECCAK256 SWAP1 JUMPDEST DUP2 SLOAD DUP2 MSTORE SWAP1 PUSH1 0x1 ADD SWAP1 PUSH1 0x20 ADD DUP1 DUP4 GT PUSH2 0x62F JUMPI DUP3 SWAP1 SUB PUSH1 0x1F AND DUP3 ADD SWAP2 JUMPDEST POP POP POP POP POP DUP2 JUMP JUMPDEST PUSH1 0x2 SLOAD TIMESTAMP LT ISZERO PUSH2 0x699 JUMPI PUSH1 0x40 MLOAD PUSH32 0x8C379A000000000000000000000000000000000000000000000000000000000 DUP2 MSTORE PUSH1 0x4 ADD PUSH2 0x690 SWAP1 PUSH2 0xC6F JUMP JUMPDEST PUSH1 0x40 MLOAD DUP1 SWAP2 SUB SWAP1 REVERT JUMPDEST PUSH1 0x5 PUSH0 SWAP1 SLOAD SWAP1 PUSH2 0x100 EXP SWAP1 DIV PUSH1 0xFF AND ISZERO PUSH2 0x6E8 JUMPI PUSH1 0x40 MLOAD PUSH32 0x8C379A000000000000000000000000000000000000000000000000000000000 DUP2 MSTORE PUSH1 0x4 ADD PUSH2 0x6DF SWAP1 PUSH2 0xD34 JUMP JUMPDEST PUSH1 0x40 MLOAD DUP1 SWAP2 SUB SWAP1 REVERT JUMPDEST PUSH1 0x1 PUSH1 0x5 PUSH0 PUSH2 0x100 EXP DUP2 SLOAD DUP2 PUSH1 0xFF MUL NOT AND SWAP1 DUP4 ISZERO ISZERO MUL OR SWAP1 SSTORE POP JUMP JUMPDEST PUSH0 DUP2 ISZERO ISZERO SWAP1 POP SWAP2 SWAP1 POP JUMP JUMPDEST PUSH2 0x718 DUP2 PUSH2 0x704 JUMP JUMPDEST DUP3 MSTORE POP POP JUMP JUMPDEST PUSH0 PUSH1 0x20 DUP3 ADD SWAP1 POP PUSH2 0x731 PUSH0 DUP4 ADD DUP5 PUSH2 0x70F JUMP JUMPDEST SWAP3 SWAP2 POP POP JUMP JUMPDEST PUSH0 DUP2 MLOAD SWAP1 POP SWAP2 SWAP1 POP JUMP JUMPDEST PUSH0 DUP3 DUP3 MSTORE PUSH1 0x20 DUP3 ADD SWAP1 POP SWAP3 SWAP2 POP POP JUMP JUMPDEST PUSH0 DUP2 SWAP1 POP PUSH1 0x20 DUP3 ADD SWAP1 POP SWAP2 SWAP1 POP JUMP JUMPDEST PUSH0 PUSH20 0xFFFFFFFFFFFFFFFFFFFFFFFFFFFFFFFFFFFFFFFF DUP3 AND SWAP1 POP SWAP2 SWAP1 POP JUMP JUMPDEST PUSH0 PUSH2 0x789 DUP3 PUSH2 0x760 JUMP JUMPDEST SWAP1 POP SWAP2 SWAP1 POP JUMP JUMPDEST PUSH2 0x799 DUP2 PUSH2 0x77F JUMP JUMPDEST DUP3 MSTORE POP POP JUMP JUMPDEST PUSH0 PUSH2 0x7AA DUP4 DUP4 PUSH2 0x790 JUMP JUMPDEST PUSH1 0x20 DUP4 ADD SWAP1 POP SWAP3 SWAP2 POP POP JUMP JUMPDEST PUSH0 PUSH1 0x20 DUP3 ADD SWAP1 POP SWAP2 SWAP1 POP JUMP JUMPDEST PUSH0 PUSH2 0x7CC DUP3 PUSH2 0x737 JUMP JUMPDEST PUSH2 0x7D6 DUP2 DUP6 PUSH2 0x741 JUMP JUMPDEST SWAP4 POP PUSH2 0x7E1 DUP4 PUSH2 0x751 JUMP JUMPDEST DUP1 PUSH0 JUMPDEST DUP4 DUP2 LT ISZERO PUSH2 0x811 JUMPI DUP2 MLOAD PUSH2 0x7F8 DUP9 DUP3 PUSH2 0x79F JUMP JUMPDEST SWAP8 POP PUSH2 0x803 DUP4 PUSH2 0x7B6 JUMP JUMPDEST SWAP3 POP POP PUSH1 0x1 DUP2 ADD SWAP1 POP PUSH2 0x7E4 JUMP JUMPDEST POP DUP6 SWAP4 POP POP POP POP SWAP3 SWAP2 POP POP JUMP JUMPDEST PUSH0 PUSH1 0x20 DUP3 ADD SWAP1 POP DUP2 DUP2 SUB PUSH0 DUP4 ADD MSTORE PUSH2 0x836 DUP2 DUP5 PUSH2 0x7C2 JUMP JUMPDEST SWAP1 POP SWAP3 SWAP2 POP POP JUMP JUMPDEST PUSH0 DUP2 SWAP1 POP SWAP2 SWAP1 POP JUMP JUMPDEST PUSH2 0x850 DUP2 PUSH2 0x83E JUMP JUMPDEST DUP3 MSTORE POP POP JUMP JUMPDEST PUSH0 PUSH1 0x20 DUP3 ADD SWAP1 POP PUSH2 0x869 PUSH0 DUP4 ADD DUP5 PUSH2 0x847 JUMP JUMPDEST SWAP3 SWAP2 POP POP JUMP JUMPDEST PUSH0 PUSH0 REVERT JUMPDEST PUSH2 0x87C DUP2 PUSH2 0x83E JUMP JUMPDEST DUP2 EQ PUSH2 0x886 JUMPI PUSH0 PUSH0 REVERT JUMPDEST POP JUMP JUMPDEST PUSH0 DUP2 CALLDATALOAD SWAP1 POP PUSH2 0x897 DUP2 PUSH2 0x873 JUMP JUMPDEST SWAP3 SWAP2 POP POP JUMP JUMPDEST PUSH0 PUSH1 0x20 DUP3 DUP5 SUB SLT ISZERO PUSH2 0x8B2 JUMPI PUSH2 0x8B1 PUSH2 0x86F JUMP JUMPDEST JUMPDEST PUSH0 PUSH2 0x8BF DUP5 DUP3 DUP6 ADD PUSH2 0x889 JUMP JUMPDEST SWAP2 POP POP SWAP3 SWAP2 POP POP JUMP JUMPDEST PUSH2 0x8D1 DUP2 PUSH2 0x77F JUMP JUMPDEST DUP2 EQ PUSH2 0x8DB JUMPI PUSH0 PUSH0 REVERT JUMPDEST POP JUMP JUMPDEST PUSH0 DUP2 CALLDATALOAD SWAP1 POP PUSH2 0x8EC DUP2 PUSH2 0x8C8 JUMP JUMPDEST SWAP3 SWAP2 POP POP JUMP JUMPDEST PUSH0 PUSH1 0x20 DUP3 DUP5 SUB SLT ISZERO PUSH2 0x907 JUMPI PUSH2 0x906 PUSH2 0x86F JUMP JUMPDEST JUMPDEST PUSH0 PUSH2 0x914 DUP5 DUP3 DUP6 ADD PUSH2 0x8DE JUMP JUMPDEST SWAP2 POP POP SWAP3 SWAP2 POP POP JUMP JUMPDEST PUSH2 0x926 DUP2 PUSH2 0x77F JUMP JUMPDEST DUP3 MSTORE POP POP JUMP JUMPDEST PUSH0 PUSH1 0x20 DUP3 ADD SWAP1 POP PUSH2 0x93F PUSH0 DUP4 ADD DUP5 PUSH2 0x91D JUMP JUMPDEST SWAP3 SWAP2 POP POP JUMP JUMPDEST PUSH0 PUSH1 0x40 DUP3 ADD SWAP1 POP PUSH2 0x958 PUSH0 DUP4 ADD DUP6 PUSH2 0x91D JUMP JUMPDEST PUSH2 0x965 PUSH1 0x20 DUP4 ADD DUP5 PUSH2 0x847 JUMP JUMPDEST SWAP4 SWAP3 POP POP POP JUMP JUMPDEST PUSH0 DUP2 MLOAD SWAP1 POP SWAP2 SWAP1 POP JUMP JUMPDEST PUSH0 DUP3 DUP3 MSTORE PUSH1 0x20 DUP3 ADD SWAP1 POP SWAP3 SWAP2 POP POP JUMP JUMPDEST DUP3 DUP2 DUP4 MCOPY PUSH0 DUP4 DUP4 ADD MSTORE POP POP POP JUMP JUMPDEST PUSH0 PUSH1 0x1F NOT PUSH1 0x1F DUP4 ADD AND SWAP1 POP SWAP2 SWAP1 POP JUMP JUMPDEST PUSH0 PUSH2 0x9AE DUP3 PUSH2 0x96C JUMP JUMPDEST PUSH2 0x9B8 DUP2 DUP6 PUSH2 0x976 JUMP JUMPDEST SWAP4 POP PUSH2 0x9C8 DUP2 DUP6 PUSH1 0x20 DUP7 ADD PUSH2 0x986 JUMP JUMPDEST PUSH2 0x9D1 DUP2 PUSH2 0x994 JUMP JUMPDEST DUP5 ADD SWAP2 POP POP SWAP3 SWAP2 POP POP JUMP JUMPDEST PUSH0 PUSH1 0x20 DUP3 ADD SWAP1 POP DUP2 DUP2 SUB PUSH0 DUP4 ADD MSTORE PUSH2 0x9F4 DUP2 DUP5 PUSH2 0x9A4 JUMP JUMPDEST SWAP1 POP SWAP3 SWAP2 POP POP JUMP JUMPDEST PUSH32 0x41756374696F6E2068617320656E646564000000000000000000000000000000 PUSH0 DUP3 ADD MSTORE POP JUMP JUMPDEST PUSH0 PUSH2 0xA30 PUSH1 0x11 DUP4 PUSH2 0x976 JUMP JUMPDEST SWAP2 POP PUSH2 0xA3B DUP3 PUSH2 0x9FC JUMP JUMPDEST PUSH1 0x20 DUP3 ADD SWAP1 POP SWAP2 SWAP1 POP JUMP JUMPDEST PUSH0 PUSH1 0x20 DUP3 ADD SWAP1 POP DUP2 DUP2 SUB PUSH0 DUP4 ADD MSTORE PUSH2 0xA5D DUP2 PUSH2 0xA24 JUMP JUMPDEST SWAP1 POP SWAP2 SWAP1 POP JUMP JUMPDEST PUSH32 0x42696420616D6F756E74206D7573742062652067726561746572207468616E20 PUSH0 DUP3 ADD MSTORE PUSH32 0x7A65726F2E000000000000000000000000000000000000000000000000000000 PUSH1 0x20 DUP3 ADD MSTORE POP JUMP JUMPDEST PUSH0 PUSH2 0xABE PUSH1 0x25 DUP4 PUSH2 0x976 JUMP JUMPDEST SWAP2 POP PUSH2 0xAC9 DUP3 PUSH2 0xA64 JUMP JUMPDEST PUSH1 0x40 DUP3 ADD SWAP1 POP SWAP2 SWAP1 POP JUMP JUMPDEST PUSH0 PUSH1 0x20 DUP3 ADD SWAP1 POP DUP2 DUP2 SUB PUSH0 DUP4 ADD MSTORE PUSH2 0xAEB DUP2 PUSH2 0xAB2 JUMP JUMPDEST SWAP1 POP SWAP2 SWAP1 POP JUMP JUMPDEST PUSH32 0x4E487B7100000000000000000000000000000000000000000000000000000000 PUSH0 MSTORE PUSH1 0x11 PUSH1 0x4 MSTORE PUSH1 0x24 PUSH0 REVERT JUMPDEST PUSH0 PUSH2 0xB29 DUP3 PUSH2 0x83E JUMP JUMPDEST SWAP2 POP PUSH2 0xB34 DUP4 PUSH2 0x83E JUMP JUMPDEST SWAP3 POP DUP3 DUP3 MUL PUSH2 0xB42 DUP2 PUSH2 0x83E JUMP JUMPDEST SWAP2 POP DUP3 DUP3 DIV DUP5 EQ DUP4 ISZERO OR PUSH2 0xB59 JUMPI PUSH2 0xB58 PUSH2 0xAF2 JUMP JUMPDEST JUMPDEST POP SWAP3 SWAP2 POP POP JUMP JUMPDEST PUSH32 0x4E487B7100000000000000000000000000000000000000000000000000000000 PUSH0 MSTORE PUSH1 0x12 PUSH1 0x4 MSTORE PUSH1 0x24 PUSH0 REVERT JUMPDEST PUSH0 PUSH2 0xB97 DUP3 PUSH2 0x83E JUMP JUMPDEST SWAP2 POP PUSH2 0xBA2 DUP4 PUSH2 0x83E JUMP JUMPDEST SWAP3 POP DUP3 PUSH2 0xBB2 JUMPI PUSH2 0xBB1 PUSH2 0xB60 JUMP JUMPDEST JUMPDEST DUP3 DUP3 DIV SWAP1 POP SWAP3 SWAP2 POP POP JUMP JUMPDEST PUSH32 0x42696420697320746F6F206C6F77000000000000000000000000000000000000 PUSH0 DUP3 ADD MSTORE POP JUMP JUMPDEST PUSH0 PUSH2 0xBF1 PUSH1 0xE DUP4 PUSH2 0x976 JUMP JUMPDEST SWAP2 POP PUSH2 0xBFC DUP3 PUSH2 0xBBD JUMP JUMPDEST PUSH1 0x20 DUP3 ADD SWAP1 POP SWAP2 SWAP1 POP JUMP JUMPDEST PUSH0 PUSH1 0x20 DUP3 ADD SWAP1 POP DUP2 DUP2 SUB PUSH0 DUP4 ADD MSTORE PUSH2 0xC1E DUP2 PUSH2 0xBE5 JUMP JUMPDEST SWAP1 POP SWAP2 SWAP1 POP JUMP JUMPDEST PUSH32 0x41756374696F6E206861736E277420656E646564207965740000000000000000 PUSH0 DUP3 ADD MSTORE POP JUMP JUMPDEST PUSH0 PUSH2 0xC59 PUSH1 0x18 DUP4 PUSH2 0x976 JUMP JUMPDEST SWAP2 POP PUSH2 0xC64 DUP3 PUSH2 0xC25 JUMP JUMPDEST PUSH1 0x20 DUP3 ADD SWAP1 POP SWAP2 SWAP1 POP JUMP JUMPDEST PUSH0 PUSH1 0x20 DUP3 ADD SWAP1 POP DUP2 DUP2 SUB PUSH0 DUP4 ADD MSTORE PUSH2 0xC86 DUP2 PUSH2 0xC4D JUMP JUMPDEST SWAP1 POP SWAP2 SWAP1 POP JUMP JUMPDEST PUSH32 0x4E487B7100000000000000000000000000000000000000000000000000000000 PUSH0 MSTORE PUSH1 0x22 PUSH1 0x4 MSTORE PUSH1 0x24 PUSH0 REVERT JUMPDEST PUSH0 PUSH1 0x2 DUP3 DIV SWAP1 POP PUSH1 0x1 DUP3 AND DUP1 PUSH2 0xCD1 JUMPI PUSH1 0x7F DUP3 AND SWAP2 POP JUMPDEST PUSH1 0x20 DUP3 LT DUP2 SUB PUSH2 0xCE4 JUMPI PUSH2 0xCE3 PUSH2 0xC8D JUMP JUMPDEST JUMPDEST POP SWAP2 SWAP1 POP JUMP JUMPDEST PUSH32 0x41756374696F6E20656E6420616C72656164792063616C6C6564000000000000 PUSH0 DUP3 ADD MSTORE POP JUMP JUMPDEST PUSH0 PUSH2 0xD1E PUSH1 0x1A DUP4 PUSH2 0x976 JUMP JUMPDEST SWAP2 POP PUSH2 0xD29 DUP3 PUSH2 0xCEA JUMP JUMPDEST PUSH1 0x20 DUP3 ADD SWAP1 POP SWAP2 SWAP1 POP JUMP JUMPDEST PUSH0 PUSH1 0x20 DUP3 ADD SWAP1 POP DUP2 DUP2 SUB PUSH0 DUP4 ADD MSTORE PUSH2 0xD4B DUP2 PUSH2 0xD12 JUMP JUMPDEST SWAP1 POP SWAP2 SWAP1 POP JUMP INVALID LOG2 PUSH5 0x6970667358 0x22 SLT KECCAK256 EXTCODECOPY 0xD4 SWAP1 0xD6 LOG3 0xB0 0xD5 0xCF 0xC0 0xCF 0x22 SIGNEXTEND 0xE2 0xAA DUP15 DUP7 CREATE2 0xBA DUP12 SIGNEXTEND AND 0xBA 0x4D CALLDATASIZE CALL EXTCODECOPY DUP8 0xD4 MCOPY 0xCE INVALID REVERT PUSH5 0x736F6C6343 STOP ADDMOD 0x1E STOP CALLER "
				},
				"gasEstimates": {
					"creation": {
						"codeDepositCost": "692800",
						"executionCost": "infinite",
						"totalCost": "infinite"
					},
					"external": {
						"auctionendtime()": "2470",
						"bid(uint256)": "infinite",
						"bidders(uint256)": "4988",
						"bids(address)": "2891",
						"endAuction()": "28777",
						"ended()": "2467",
						"getAllBidders()": "infinite",
						"getWinner()": "6901",
						"item()": "infinite",
						"owner()": "2507"
					}
				},
				"methodIdentifiers": {
					"auctionendtime()": "41709bcb",
					"bid(uint256)": "454a2ab3",
					"bidders(uint256)": "cff29dfd",
					"bids(address)": "62ea82db",
					"endAuction()": "fe67a54b",
					"ended()": "12fa6feb",
					"getAllBidders()": "3a79d2e5",
					"getWinner()": "8e7ea5b2",
					"item()": "f2a4a82e",
					"owner()": "8da5cb5b"
				}
			},
			"storageLayout": {
				"storage": [
					{
						"astId": 3,
						"contract": "submissions/0xFancy/day4.sol:AuctionHouse",
						"label": "owner",
						"offset": 0,
						"slot": "0",
						"type": "t_address"
					},
					{
						"astId": 5,
						"contract": "submissions/0xFancy/day4.sol:AuctionHouse",
						"label": "item",
						"offset": 0,
						"slot": "1",
						"type": "t_string_storage"
					},
					{
						"astId": 7,
						"contract": "submissions/0xFancy/day4.sol:AuctionHouse",
						"label": "auctionendtime",
						"offset": 0,
						"slot": "2",
						"type": "t_uint256"
					},
					{
						"astId": 9,
						"contract": "submissions/0xFancy/day4.sol:AuctionHouse",
						"label": "highestBidder",
						"offset": 0,
						"slot": "3",
						"type": "t_address"
					},
					{
						"astId": 11,
						"contract": "submissions/0xFancy/day4.sol:AuctionHouse",
						"label": "highestBid",
						"offset": 0,
						"slot": "4",
						"type": "t_uint256"
					},
					{
						"astId": 13,
						"contract": "submissions/0xFancy/day4.sol:AuctionHouse",
						"label": "ended",
						"offset": 0,
						"slot": "5",
						"type": "t_bool"
					},
					{
						"astId": 17,
						"contract": "submissions/0xFancy/day4.sol:AuctionHouse",
						"label": "bids",
						"offset": 0,
						"slot": "6",
						"type": "t_mapping(t_address,t_uint256)"
					},
					{
						"astId": 20,
						"contract": "submissions/0xFancy/day4.sol:AuctionHouse",
						"label": "bidders",
						"offset": 0,
						"slot": "7",
						"type": "t_array(t_address)dyn_storage"
					}
				],
				"types": {
					"t_address": {
						"encoding": "inplace",
						"label": "address",
						"numberOfBytes": "20"
					},
					"t_array(t_address)dyn_storage": {
						"base": "t_address",
						"encoding": "dynamic_array",
						"label": "address[]",
						"numberOfBytes": "32"
					},
					"t_bool": {
						"encoding": "inplace",
						"label": "bool",
						"numberOfBytes": "1"
					},
					"t_mapping(t_address,t_uint256)": {
						"encoding": "mapping",
						"key": "t_address",
						"label": "mapping(address => uint256)",
						"numberOfBytes": "32",
						"value": "t_uint256"
					},
					"t_string_storage": {
						"encoding": "bytes",
						"label": "string",
						"numberOfBytes": "32"
					},
					"t_uint256": {
						"encoding": "inplace",
						"label": "uint256",
						"numberOfBytes": "32"
					}
				}
			},
			"userdoc": {
				"kind": "user",
				"methods": {},
				"version": 1
			}
		}
	}
}