{
	"submissions/Serena Y/Day21-SimpleNFT.sol": {
		"SimpleNFT": {
			"abi": [
				{
					"inputs": [
						{
							"internalType": "string",
							"name": "name_",
							"type": "string"
						},
						{
							"internalType": "string",
							"name": "symbol_",
							"type": "string"
						}
					],
					"stateMutability": "nonpayable",
					"type": "constructor"
				},
				{
					"anonymous": false,
					"inputs": [
						{
							"indexed": true,
							"internalType": "address",
							"name": "owner",
							"type": "address"
						},
						{
							"indexed": true,
							"internalType": "address",
							"name": "approved",
							"type": "address"
						},
						{
							"indexed": true,
							"internalType": "uint256",
							"name": "tokenId",
							"type": "uint256"
						}
					],
					"name": "Approval",
					"type": "event"
				},
				{
					"anonymous": false,
					"inputs": [
						{
							"indexed": true,
							"internalType": "address",
							"name": "owner",
							"type": "address"
						},
						{
							"indexed": true,
							"internalType": "address",
							"name": "operator",
							"type": "address"
						},
						{
							"indexed": false,
							"internalType": "bool",
							"name": "approved",
							"type": "bool"
						}
					],
					"name": "ApprovalForAll",
					"type": "event"
				},
				{
					"anonymous": false,
					"inputs": [
						{
							"indexed": true,
							"internalType": "address",
							"name": "from",
							"type": "address"
						},
						{
							"indexed": true,
							"internalType": "address",
							"name": "to",
							"type": "address"
						},
						{
							"indexed": true,
							"internalType": "uint256",
							"name": "tokenId",
							"type": "uint256"
						}
					],
					"name": "Transfer",
					"type": "event"
				},
				{
					"inputs": [
						{
							"internalType": "address",
							"name": "to",
							"type": "address"
						},
						{
							"internalType": "uint256",
							"name": "tokenId",
							"type": "uint256"
						}
					],
					"name": "approve",
					"outputs": [],
					"stateMutability": "nonpayable",
					"type": "function"
				},
				{
					"inputs": [
						{
							"internalType": "address",
							"name": "owner",
							"type": "address"
						}
					],
					"name": "balanceOf",
					"outputs": [
						{
							"internalType": "uint256",
							"name": "",
							"type": "uint256"
						}
					],
					"stateMutability": "view",
					"type": "function"
				},
				{
					"inputs": [
						{
							"internalType": "uint256",
							"name": "tokenId",
							"type": "uint256"
						}
					],
					"name": "getApproved",
					"outputs": [
						{
							"internalType": "address",
							"name": "",
							"type": "address"
						}
					],
					"stateMutability": "view",
					"type": "function"
				},
				{
					"inputs": [
						{
							"internalType": "address",
							"name": "owner",
							"type": "address"
						},
						{
							"internalType": "address",
							"name": "operator",
							"type": "address"
						}
					],
					"name": "isApprovedForAll",
					"outputs": [
						{
							"internalType": "bool",
							"name": "",
							"type": "bool"
						}
					],
					"stateMutability": "view",
					"type": "function"
				},
				{
					"inputs": [
						{
							"internalType": "address",
							"name": "to",
							"type": "address"
						},
						{
							"internalType": "string",
							"name": "uri",
							"type": "string"
						}
					],
					"name": "mint",
					"outputs": [],
					"stateMutability": "nonpayable",
					"type": "function"
				},
				{
					"inputs": [],
					"name": "name",
					"outputs": [
						{
							"internalType": "string",
							"name": "",
							"type": "string"
						}
					],
					"stateMutability": "view",
					"type": "function"
				},
				{
					"inputs": [
						{
							"internalType": "uint256",
							"name": "tokenId",
							"type": "uint256"
						}
					],
					"name": "ownerOf",
					"outputs": [
						{
							"internalType": "address",
							"name": "",
							"type": "address"
						}
					],
					"stateMutability": "view",
					"type": "function"
				},
				{
					"inputs": [
						{
							"internalType": "address",
							"name": "from",
							"type": "address"
						},
						{
							"internalType": "address",
							"name": "to",
							"type": "address"
						},
						{
							"internalType": "uint256",
							"name": "tokenId",
							"type": "uint256"
						}
					],
					"name": "safeTransferFrom",
					"outputs": [],
					"stateMutability": "nonpayable",
					"type": "function"
				},
				{
					"inputs": [
						{
							"internalType": "address",
							"name": "from",
							"type": "address"
						},
						{
							"internalType": "address",
							"name": "to",
							"type": "address"
						},
						{
							"internalType": "uint256",
							"name": "tokenId",
							"type": "uint256"
						},
						{
							"internalType": "bytes",
							"name": "data",
							"type": "bytes"
						}
					],
					"name": "safeTransferFrom",
					"outputs": [],
					"stateMutability": "nonpayable",
					"type": "function"
				},
				{
					"inputs": [
						{
							"internalType": "address",
							"name": "operator",
							"type": "address"
						},
						{
							"internalType": "bool",
							"name": "approved",
							"type": "bool"
						}
					],
					"name": "setApprovalForAll",
					"outputs": [],
					"stateMutability": "nonpayable",
					"type": "function"
				},
				{
					"inputs": [],
					"name": "symbol",
					"outputs": [
						{
							"internalType": "string",
							"name": "",
							"type": "string"
						}
					],
					"stateMutability": "view",
					"type": "function"
				},
				{
					"inputs": [
						{
							"internalType": "uint256",
							"name": "tokenId",
							"type": "uint256"
						}
					],
					"name": "tokenURI",
					"outputs": [
						{
							"internalType": "string",
							"name": "",
							"type": "string"
						}
					],
					"stateMutability": "view",
					"type": "function"
				},
				{
					"inputs": [
						{
							"internalType": "address",
							"name": "from",
							"type": "address"
						},
						{
							"internalType": "address",
							"name": "to",
							"type": "address"
						},
						{
							"internalType": "uint256",
							"name": "tokenId",
							"type": "uint256"
						}
					],
					"name": "transferFrom",
					"outputs": [],
					"stateMutability": "nonpayable",
					"type": "function"
				}
			],
			"devdoc": {
				"kind": "dev",
				"methods": {},
				"version": 1
			},
			"evm": {
				"assembly": "    /* \"submissions/Serena Y/Day21-SimpleNFT.sol\":1387:8856  contract SimpleNFT is IERC721 {//构建一个名为SimpleNFT的新合约，它将遵循ERC-721规则... */\n  mstore(0x40, 0x80)\n    /* \"submissions/Serena Y/Day21-SimpleNFT.sol\":1597:1598  1 */\n  0x01\n    /* \"submissions/Serena Y/Day21-SimpleNFT.sol\":1563:1598  uint256 private _tokenIdCounter = 1 */\n  0x02\n  sstore\n    /* \"submissions/Serena Y/Day21-SimpleNFT.sol\":2376:2525  constructor(string memory name_, string memory symbol_) {//初始化代币的名字和符号... */\n  callvalue\n  dup1\n  iszero\n  tag_1\n  jumpi\n  revert(0x00, 0x00)\ntag_1:\n  pop\n  mload(0x40)\n  sub(codesize, bytecodeSize)\n  dup1\n  bytecodeSize\n  dup4\n  codecopy\n  dup2\n  dup2\n  add\n  0x40\n  mstore\n  dup2\n  add\n  swap1\n  tag_2\n  swap2\n  swap1\n  tag_3\n  jump\t// in\ntag_2:\n    /* \"submissions/Serena Y/Day21-SimpleNFT.sol\":2485:2490  name_ */\n  dup2\n    /* \"submissions/Serena Y/Day21-SimpleNFT.sol\":2478:2482  name */\n  0x00\n    /* \"submissions/Serena Y/Day21-SimpleNFT.sol\":2478:2490  name = name_ */\n  swap1\n  dup2\n  tag_6\n  swap2\n  swap1\n  tag_7\n  jump\t// in\ntag_6:\n  pop\n    /* \"submissions/Serena Y/Day21-SimpleNFT.sol\":2510:2517  symbol_ */\n  dup1\n    /* \"submissions/Serena Y/Day21-SimpleNFT.sol\":2501:2507  symbol */\n  0x01\n    /* \"submissions/Serena Y/Day21-SimpleNFT.sol\":2501:2517  symbol = symbol_ */\n  swap1\n  dup2\n  tag_8\n  swap2\n  swap1\n  tag_7\n  jump\t// in\ntag_8:\n  pop\n    /* \"submissions/Serena Y/Day21-SimpleNFT.sol\":2376:2525  constructor(string memory name_, string memory symbol_) {//初始化代币的名字和符号... */\n  pop\n  pop\n    /* \"submissions/Serena Y/Day21-SimpleNFT.sol\":1387:8856  contract SimpleNFT is IERC721 {//构建一个名为SimpleNFT的新合约，它将遵循ERC-721规则... */\n  jump(tag_9)\n    /* \"#utility.yul\":7:82   */\ntag_10:\n    /* \"#utility.yul\":40:46   */\n  0x00\n    /* \"#utility.yul\":73:75   */\n  0x40\n    /* \"#utility.yul\":67:76   */\n  mload\n    /* \"#utility.yul\":57:76   */\n  swap1\n  pop\n    /* \"#utility.yul\":7:82   */\n  swap1\n  jump\t// out\n    /* \"#utility.yul\":88:205   */\ntag_11:\n    /* \"#utility.yul\":197:198   */\n  0x00\n    /* \"#utility.yul\":194:195   */\n  0x00\n    /* \"#utility.yul\":187:199   */\n  revert\n    /* \"#utility.yul\":211:328   */\ntag_12:\n    /* \"#utility.yul\":320:321   */\n  0x00\n    /* \"#utility.yul\":317:318   */\n  0x00\n    /* \"#utility.yul\":310:322   */\n  revert\n    /* \"#utility.yul\":334:451   */\ntag_13:\n    /* \"#utility.yul\":443:444   */\n  0x00\n    /* \"#utility.yul\":440:441   */\n  0x00\n    /* \"#utility.yul\":433:445   */\n  revert\n    /* \"#utility.yul\":457:574   */\ntag_14:\n    /* \"#utility.yul\":566:567   */\n  0x00\n    /* \"#utility.yul\":563:564   */\n  0x00\n    /* \"#utility.yul\":556:568   */\n  revert\n    /* \"#utility.yul\":580:682   */\ntag_15:\n    /* \"#utility.yul\":621:627   */\n  0x00\n    /* \"#utility.yul\":672:674   */\n  0x1f\n    /* \"#utility.yul\":668:675   */\n  not\n    /* \"#utility.yul\":663:665   */\n  0x1f\n    /* \"#utility.yul\":656:661   */\n  dup4\n    /* \"#utility.yul\":652:666   */\n  add\n    /* \"#utility.yul\":648:676   */\n  and\n    /* \"#utility.yul\":638:676   */\n  swap1\n  pop\n    /* \"#utility.yul\":580:682   */\n  swap2\n  swap1\n  pop\n  jump\t// out\n    /* \"#utility.yul\":688:868   */\ntag_16:\n    /* \"#utility.yul\":736:813   */\n  0x4e487b7100000000000000000000000000000000000000000000000000000000\n    /* \"#utility.yul\":733:734   */\n  0x00\n    /* \"#utility.yul\":726:814   */\n  mstore\n    /* \"#utility.yul\":833:837   */\n  0x41\n    /* \"#utility.yul\":830:831   */\n  0x04\n    /* \"#utility.yul\":823:838   */\n  mstore\n    /* \"#utility.yul\":857:861   */\n  0x24\n    /* \"#utility.yul\":854:855   */\n  0x00\n    /* \"#utility.yul\":847:862   */\n  revert\n    /* \"#utility.yul\":874:1155   */\ntag_17:\n    /* \"#utility.yul\":957:984   */\n  tag_51\n    /* \"#utility.yul\":979:983   */\n  dup3\n    /* \"#utility.yul\":957:984   */\n  tag_15\n  jump\t// in\ntag_51:\n    /* \"#utility.yul\":949:955   */\n  dup2\n    /* \"#utility.yul\":945:985   */\n  add\n    /* \"#utility.yul\":1087:1093   */\n  dup2\n    /* \"#utility.yul\":1075:1085   */\n  dup2\n    /* \"#utility.yul\":1072:1094   */\n  lt\n    /* \"#utility.yul\":1051:1069   */\n  0xffffffffffffffff\n    /* \"#utility.yul\":1039:1049   */\n  dup3\n    /* \"#utility.yul\":1036:1070   */\n  gt\n    /* \"#utility.yul\":1033:1095   */\n  or\n    /* \"#utility.yul\":1030:1118   */\n  iszero\n  tag_52\n  jumpi\n    /* \"#utility.yul\":1098:1116   */\n  tag_53\n  tag_16\n  jump\t// in\ntag_53:\n    /* \"#utility.yul\":1030:1118   */\ntag_52:\n    /* \"#utility.yul\":1138:1148   */\n  dup1\n    /* \"#utility.yul\":1134:1136   */\n  0x40\n    /* \"#utility.yul\":1127:1149   */\n  mstore\n    /* \"#utility.yul\":917:1155   */\n  pop\n    /* \"#utility.yul\":874:1155   */\n  pop\n  pop\n  jump\t// out\n    /* \"#utility.yul\":1161:1290   */\ntag_18:\n    /* \"#utility.yul\":1195:1201   */\n  0x00\n    /* \"#utility.yul\":1222:1242   */\n  tag_55\n  tag_10\n  jump\t// in\ntag_55:\n    /* \"#utility.yul\":1212:1242   */\n  swap1\n  pop\n    /* \"#utility.yul\":1251:1284   */\n  tag_56\n    /* \"#utility.yul\":1279:1283   */\n  dup3\n    /* \"#utility.yul\":1271:1277   */\n  dup3\n    /* \"#utility.yul\":1251:1284   */\n  tag_17\n  jump\t// in\ntag_56:\n    /* \"#utility.yul\":1161:1290   */\n  swap2\n  swap1\n  pop\n  jump\t// out\n    /* \"#utility.yul\":1296:1604   */\ntag_19:\n    /* \"#utility.yul\":1358:1362   */\n  0x00\n    /* \"#utility.yul\":1448:1466   */\n  0xffffffffffffffff\n    /* \"#utility.yul\":1440:1446   */\n  dup3\n    /* \"#utility.yul\":1437:1467   */\n  gt\n    /* \"#utility.yul\":1434:1490   */\n  iszero\n  tag_58\n  jumpi\n    /* \"#utility.yul\":1470:1488   */\n  tag_59\n  tag_16\n  jump\t// in\ntag_59:\n    /* \"#utility.yul\":1434:1490   */\ntag_58:\n    /* \"#utility.yul\":1508:1537   */\n  tag_60\n    /* \"#utility.yul\":1530:1536   */\n  dup3\n    /* \"#utility.yul\":1508:1537   */\n  tag_15\n  jump\t// in\ntag_60:\n    /* \"#utility.yul\":1500:1537   */\n  swap1\n  pop\n    /* \"#utility.yul\":1592:1596   */\n  0x20\n    /* \"#utility.yul\":1586:1590   */\n  dup2\n    /* \"#utility.yul\":1582:1597   */\n  add\n    /* \"#utility.yul\":1574:1597   */\n  swap1\n  pop\n    /* \"#utility.yul\":1296:1604   */\n  swap2\n  swap1\n  pop\n  jump\t// out\n    /* \"#utility.yul\":1610:1749   */\ntag_20:\n    /* \"#utility.yul\":1699:1705   */\n  dup3\n    /* \"#utility.yul\":1694:1697   */\n  dup2\n    /* \"#utility.yul\":1689:1692   */\n  dup4\n    /* \"#utility.yul\":1683:1706   */\n  mcopy\n    /* \"#utility.yul\":1740:1741   */\n  0x00\n    /* \"#utility.yul\":1731:1737   */\n  dup4\n    /* \"#utility.yul\":1726:1729   */\n  dup4\n    /* \"#utility.yul\":1722:1738   */\n  add\n    /* \"#utility.yul\":1715:1742   */\n  mstore\n    /* \"#utility.yul\":1610:1749   */\n  pop\n  pop\n  pop\n  jump\t// out\n    /* \"#utility.yul\":1755:2189   */\ntag_21:\n    /* \"#utility.yul\":1844:1849   */\n  0x00\n    /* \"#utility.yul\":1869:1935   */\n  tag_63\n    /* \"#utility.yul\":1885:1934   */\n  tag_64\n    /* \"#utility.yul\":1927:1933   */\n  dup5\n    /* \"#utility.yul\":1885:1934   */\n  tag_19\n  jump\t// in\ntag_64:\n    /* \"#utility.yul\":1869:1935   */\n  tag_18\n  jump\t// in\ntag_63:\n    /* \"#utility.yul\":1860:1935   */\n  swap1\n  pop\n    /* \"#utility.yul\":1958:1964   */\n  dup3\n    /* \"#utility.yul\":1951:1956   */\n  dup2\n    /* \"#utility.yul\":1944:1965   */\n  mstore\n    /* \"#utility.yul\":1996:2000   */\n  0x20\n    /* \"#utility.yul\":1989:1994   */\n  dup2\n    /* \"#utility.yul\":1985:2001   */\n  add\n    /* \"#utility.yul\":2034:2037   */\n  dup5\n    /* \"#utility.yul\":2025:2031   */\n  dup5\n    /* \"#utility.yul\":2020:2023   */\n  dup5\n    /* \"#utility.yul\":2016:2032   */\n  add\n    /* \"#utility.yul\":2013:2038   */\n  gt\n    /* \"#utility.yul\":2010:2122   */\n  iszero\n  tag_65\n  jumpi\n    /* \"#utility.yul\":2041:2120   */\n  tag_66\n  tag_14\n  jump\t// in\ntag_66:\n    /* \"#utility.yul\":2010:2122   */\ntag_65:\n    /* \"#utility.yul\":2131:2183   */\n  tag_67\n    /* \"#utility.yul\":2176:2182   */\n  dup5\n    /* \"#utility.yul\":2171:2174   */\n  dup3\n    /* \"#utility.yul\":2166:2169   */\n  dup6\n    /* \"#utility.yul\":2131:2183   */\n  tag_20\n  jump\t// in\ntag_67:\n    /* \"#utility.yul\":1850:2189   */\n  pop\n    /* \"#utility.yul\":1755:2189   */\n  swap4\n  swap3\n  pop\n  pop\n  pop\n  jump\t// out\n    /* \"#utility.yul\":2209:2564   */\ntag_22:\n    /* \"#utility.yul\":2276:2281   */\n  0x00\n    /* \"#utility.yul\":2325:2328   */\n  dup3\n    /* \"#utility.yul\":2318:2322   */\n  0x1f\n    /* \"#utility.yul\":2310:2316   */\n  dup4\n    /* \"#utility.yul\":2306:2323   */\n  add\n    /* \"#utility.yul\":2302:2329   */\n  slt\n    /* \"#utility.yul\":2292:2414   */\n  tag_69\n  jumpi\n    /* \"#utility.yul\":2333:2412   */\n  tag_70\n  tag_13\n  jump\t// in\ntag_70:\n    /* \"#utility.yul\":2292:2414   */\ntag_69:\n    /* \"#utility.yul\":2443:2449   */\n  dup2\n    /* \"#utility.yul\":2437:2450   */\n  mload\n    /* \"#utility.yul\":2468:2558   */\n  tag_71\n    /* \"#utility.yul\":2554:2557   */\n  dup5\n    /* \"#utility.yul\":2546:2552   */\n  dup3\n    /* \"#utility.yul\":2539:2543   */\n  0x20\n    /* \"#utility.yul\":2531:2537   */\n  dup7\n    /* \"#utility.yul\":2527:2544   */\n  add\n    /* \"#utility.yul\":2468:2558   */\n  tag_21\n  jump\t// in\ntag_71:\n    /* \"#utility.yul\":2459:2558   */\n  swap2\n  pop\n    /* \"#utility.yul\":2282:2564   */\n  pop\n    /* \"#utility.yul\":2209:2564   */\n  swap3\n  swap2\n  pop\n  pop\n  jump\t// out\n    /* \"#utility.yul\":2570:3423   */\ntag_3:\n    /* \"#utility.yul\":2669:2675   */\n  0x00\n    /* \"#utility.yul\":2677:2683   */\n  0x00\n    /* \"#utility.yul\":2726:2728   */\n  0x40\n    /* \"#utility.yul\":2714:2723   */\n  dup4\n    /* \"#utility.yul\":2705:2712   */\n  dup6\n    /* \"#utility.yul\":2701:2724   */\n  sub\n    /* \"#utility.yul\":2697:2729   */\n  slt\n    /* \"#utility.yul\":2694:2813   */\n  iszero\n  tag_73\n  jumpi\n    /* \"#utility.yul\":2732:2811   */\n  tag_74\n  tag_11\n  jump\t// in\ntag_74:\n    /* \"#utility.yul\":2694:2813   */\ntag_73:\n    /* \"#utility.yul\":2873:2874   */\n  0x00\n    /* \"#utility.yul\":2862:2871   */\n  dup4\n    /* \"#utility.yul\":2858:2875   */\n  add\n    /* \"#utility.yul\":2852:2876   */\n  mload\n    /* \"#utility.yul\":2903:2921   */\n  0xffffffffffffffff\n    /* \"#utility.yul\":2895:2901   */\n  dup2\n    /* \"#utility.yul\":2892:2922   */\n  gt\n    /* \"#utility.yul\":2889:3006   */\n  iszero\n  tag_75\n  jumpi\n    /* \"#utility.yul\":2925:3004   */\n  tag_76\n  tag_12\n  jump\t// in\ntag_76:\n    /* \"#utility.yul\":2889:3006   */\ntag_75:\n    /* \"#utility.yul\":3030:3104   */\n  tag_77\n    /* \"#utility.yul\":3096:3103   */\n  dup6\n    /* \"#utility.yul\":3087:3093   */\n  dup3\n    /* \"#utility.yul\":3076:3085   */\n  dup7\n    /* \"#utility.yul\":3072:3094   */\n  add\n    /* \"#utility.yul\":3030:3104   */\n  tag_22\n  jump\t// in\ntag_77:\n    /* \"#utility.yul\":3020:3104   */\n  swap3\n  pop\n    /* \"#utility.yul\":2823:3114   */\n  pop\n    /* \"#utility.yul\":3174:3176   */\n  0x20\n    /* \"#utility.yul\":3163:3172   */\n  dup4\n    /* \"#utility.yul\":3159:3177   */\n  add\n    /* \"#utility.yul\":3153:3178   */\n  mload\n    /* \"#utility.yul\":3205:3223   */\n  0xffffffffffffffff\n    /* \"#utility.yul\":3197:3203   */\n  dup2\n    /* \"#utility.yul\":3194:3224   */\n  gt\n    /* \"#utility.yul\":3191:3308   */\n  iszero\n  tag_78\n  jumpi\n    /* \"#utility.yul\":3227:3306   */\n  tag_79\n  tag_12\n  jump\t// in\ntag_79:\n    /* \"#utility.yul\":3191:3308   */\ntag_78:\n    /* \"#utility.yul\":3332:3406   */\n  tag_80\n    /* \"#utility.yul\":3398:3405   */\n  dup6\n    /* \"#utility.yul\":3389:3395   */\n  dup3\n    /* \"#utility.yul\":3378:3387   */\n  dup7\n    /* \"#utility.yul\":3374:3396   */\n  add\n    /* \"#utility.yul\":3332:3406   */\n  tag_22\n  jump\t// in\ntag_80:\n    /* \"#utility.yul\":3322:3406   */\n  swap2\n  pop\n    /* \"#utility.yul\":3124:3416   */\n  pop\n    /* \"#utility.yul\":2570:3423   */\n  swap3\n  pop\n  swap3\n  swap1\n  pop\n  jump\t// out\n    /* \"#utility.yul\":3429:3528   */\ntag_23:\n    /* \"#utility.yul\":3481:3487   */\n  0x00\n    /* \"#utility.yul\":3515:3520   */\n  dup2\n    /* \"#utility.yul\":3509:3521   */\n  mload\n    /* \"#utility.yul\":3499:3521   */\n  swap1\n  pop\n    /* \"#utility.yul\":3429:3528   */\n  swap2\n  swap1\n  pop\n  jump\t// out\n    /* \"#utility.yul\":3534:3714   */\ntag_24:\n    /* \"#utility.yul\":3582:3659   */\n  0x4e487b7100000000000000000000000000000000000000000000000000000000\n    /* \"#utility.yul\":3579:3580   */\n  0x00\n    /* \"#utility.yul\":3572:3660   */\n  mstore\n    /* \"#utility.yul\":3679:3683   */\n  0x22\n    /* \"#utility.yul\":3676:3677   */\n  0x04\n    /* \"#utility.yul\":3669:3684   */\n  mstore\n    /* \"#utility.yul\":3703:3707   */\n  0x24\n    /* \"#utility.yul\":3700:3701   */\n  0x00\n    /* \"#utility.yul\":3693:3708   */\n  revert\n    /* \"#utility.yul\":3720:4040   */\ntag_25:\n    /* \"#utility.yul\":3764:3770   */\n  0x00\n    /* \"#utility.yul\":3801:3802   */\n  0x02\n    /* \"#utility.yul\":3795:3799   */\n  dup3\n    /* \"#utility.yul\":3791:3803   */\n  div\n    /* \"#utility.yul\":3781:3803   */\n  swap1\n  pop\n    /* \"#utility.yul\":3848:3849   */\n  0x01\n    /* \"#utility.yul\":3842:3846   */\n  dup3\n    /* \"#utility.yul\":3838:3850   */\n  and\n    /* \"#utility.yul\":3869:3887   */\n  dup1\n    /* \"#utility.yul\":3859:3940   */\n  tag_84\n  jumpi\n    /* \"#utility.yul\":3925:3929   */\n  0x7f\n    /* \"#utility.yul\":3917:3923   */\n  dup3\n    /* \"#utility.yul\":3913:3930   */\n  and\n    /* \"#utility.yul\":3903:3930   */\n  swap2\n  pop\n    /* \"#utility.yul\":3859:3940   */\ntag_84:\n    /* \"#utility.yul\":3987:3989   */\n  0x20\n    /* \"#utility.yul\":3979:3985   */\n  dup3\n    /* \"#utility.yul\":3976:3990   */\n  lt\n    /* \"#utility.yul\":3956:3974   */\n  dup2\n    /* \"#utility.yul\":3953:3991   */\n  sub\n    /* \"#utility.yul\":3950:4034   */\n  tag_85\n  jumpi\n    /* \"#utility.yul\":4006:4024   */\n  tag_86\n  tag_24\n  jump\t// in\ntag_86:\n    /* \"#utility.yul\":3950:4034   */\ntag_85:\n    /* \"#utility.yul\":3771:4040   */\n  pop\n    /* \"#utility.yul\":3720:4040   */\n  swap2\n  swap1\n  pop\n  jump\t// out\n    /* \"#utility.yul\":4046:4187   */\ntag_26:\n    /* \"#utility.yul\":4095:4099   */\n  0x00\n    /* \"#utility.yul\":4118:4121   */\n  dup2\n    /* \"#utility.yul\":4110:4121   */\n  swap1\n  pop\n    /* \"#utility.yul\":4141:4144   */\n  dup2\n    /* \"#utility.yul\":4138:4139   */\n  0x00\n    /* \"#utility.yul\":4131:4145   */\n  mstore\n    /* \"#utility.yul\":4175:4179   */\n  0x20\n    /* \"#utility.yul\":4172:4173   */\n  0x00\n    /* \"#utility.yul\":4162:4180   */\n  keccak256\n    /* \"#utility.yul\":4154:4180   */\n  swap1\n  pop\n    /* \"#utility.yul\":4046:4187   */\n  swap2\n  swap1\n  pop\n  jump\t// out\n    /* \"#utility.yul\":4193:4286   */\ntag_27:\n    /* \"#utility.yul\":4230:4236   */\n  0x00\n    /* \"#utility.yul\":4277:4279   */\n  0x20\n    /* \"#utility.yul\":4272:4274   */\n  0x1f\n    /* \"#utility.yul\":4265:4270   */\n  dup4\n    /* \"#utility.yul\":4261:4275   */\n  add\n    /* \"#utility.yul\":4257:4280   */\n  div\n    /* \"#utility.yul\":4247:4280   */\n  swap1\n  pop\n    /* \"#utility.yul\":4193:4286   */\n  swap2\n  swap1\n  pop\n  jump\t// out\n    /* \"#utility.yul\":4292:4399   */\ntag_28:\n    /* \"#utility.yul\":4336:4344   */\n  0x00\n    /* \"#utility.yul\":4386:4391   */\n  dup3\n    /* \"#utility.yul\":4380:4384   */\n  dup3\n    /* \"#utility.yul\":4376:4392   */\n  shl\n    /* \"#utility.yul\":4355:4392   */\n  swap1\n  pop\n    /* \"#utility.yul\":4292:4399   */\n  swap3\n  swap2\n  pop\n  pop\n  jump\t// out\n    /* \"#utility.yul\":4405:4798   */\ntag_29:\n    /* \"#utility.yul\":4474:4480   */\n  0x00\n    /* \"#utility.yul\":4524:4525   */\n  0x08\n    /* \"#utility.yul\":4512:4522   */\n  dup4\n    /* \"#utility.yul\":4508:4526   */\n  mul\n    /* \"#utility.yul\":4547:4644   */\n  tag_91\n    /* \"#utility.yul\":4577:4643   */\n  0xffffffffffffffffffffffffffffffffffffffffffffffffffffffffffffffff\n    /* \"#utility.yul\":4566:4575   */\n  dup3\n    /* \"#utility.yul\":4547:4644   */\n  tag_28\n  jump\t// in\ntag_91:\n    /* \"#utility.yul\":4665:4704   */\n  tag_92\n    /* \"#utility.yul\":4695:4703   */\n  dup7\n    /* \"#utility.yul\":4684:4693   */\n  dup4\n    /* \"#utility.yul\":4665:4704   */\n  tag_28\n  jump\t// in\ntag_92:\n    /* \"#utility.yul\":4653:4704   */\n  swap6\n  pop\n    /* \"#utility.yul\":4737:4741   */\n  dup1\n    /* \"#utility.yul\":4733:4742   */\n  not\n    /* \"#utility.yul\":4726:4731   */\n  dup5\n    /* \"#utility.yul\":4722:4743   */\n  and\n    /* \"#utility.yul\":4713:4743   */\n  swap4\n  pop\n    /* \"#utility.yul\":4786:4790   */\n  dup1\n    /* \"#utility.yul\":4776:4784   */\n  dup7\n    /* \"#utility.yul\":4772:4791   */\n  and\n    /* \"#utility.yul\":4765:4770   */\n  dup5\n    /* \"#utility.yul\":4762:4792   */\n  or\n    /* \"#utility.yul\":4752:4792   */\n  swap3\n  pop\n    /* \"#utility.yul\":4481:4798   */\n  pop\n  pop\n    /* \"#utility.yul\":4405:4798   */\n  swap4\n  swap3\n  pop\n  pop\n  pop\n  jump\t// out\n    /* \"#utility.yul\":4804:4881   */\ntag_30:\n    /* \"#utility.yul\":4841:4848   */\n  0x00\n    /* \"#utility.yul\":4870:4875   */\n  dup2\n    /* \"#utility.yul\":4859:4875   */\n  swap1\n  pop\n    /* \"#utility.yul\":4804:4881   */\n  swap2\n  swap1\n  pop\n  jump\t// out\n    /* \"#utility.yul\":4887:4947   */\ntag_31:\n    /* \"#utility.yul\":4915:4918   */\n  0x00\n    /* \"#utility.yul\":4936:4941   */\n  dup2\n    /* \"#utility.yul\":4929:4941   */\n  swap1\n  pop\n    /* \"#utility.yul\":4887:4947   */\n  swap2\n  swap1\n  pop\n  jump\t// out\n    /* \"#utility.yul\":4953:5095   */\ntag_32:\n    /* \"#utility.yul\":5003:5012   */\n  0x00\n    /* \"#utility.yul\":5036:5089   */\n  tag_96\n    /* \"#utility.yul\":5054:5088   */\n  tag_97\n    /* \"#utility.yul\":5063:5087   */\n  tag_98\n    /* \"#utility.yul\":5081:5086   */\n  dup5\n    /* \"#utility.yul\":5063:5087   */\n  tag_30\n  jump\t// in\ntag_98:\n    /* \"#utility.yul\":5054:5088   */\n  tag_31\n  jump\t// in\ntag_97:\n    /* \"#utility.yul\":5036:5089   */\n  tag_30\n  jump\t// in\ntag_96:\n    /* \"#utility.yul\":5023:5089   */\n  swap1\n  pop\n    /* \"#utility.yul\":4953:5095   */\n  swap2\n  swap1\n  pop\n  jump\t// out\n    /* \"#utility.yul\":5101:5176   */\ntag_33:\n    /* \"#utility.yul\":5144:5147   */\n  0x00\n    /* \"#utility.yul\":5165:5170   */\n  dup2\n    /* \"#utility.yul\":5158:5170   */\n  swap1\n  pop\n    /* \"#utility.yul\":5101:5176   */\n  swap2\n  swap1\n  pop\n  jump\t// out\n    /* \"#utility.yul\":5182:5451   */\ntag_34:\n    /* \"#utility.yul\":5292:5331   */\n  tag_101\n    /* \"#utility.yul\":5323:5330   */\n  dup4\n    /* \"#utility.yul\":5292:5331   */\n  tag_32\n  jump\t// in\ntag_101:\n    /* \"#utility.yul\":5353:5444   */\n  tag_102\n    /* \"#utility.yul\":5402:5443   */\n  tag_103\n    /* \"#utility.yul\":5426:5442   */\n  dup3\n    /* \"#utility.yul\":5402:5443   */\n  tag_33\n  jump\t// in\ntag_103:\n    /* \"#utility.yul\":5394:5400   */\n  dup5\n    /* \"#utility.yul\":5387:5391   */\n  dup5\n    /* \"#utility.yul\":5381:5392   */\n  sload\n    /* \"#utility.yul\":5353:5444   */\n  tag_29\n  jump\t// in\ntag_102:\n    /* \"#utility.yul\":5347:5351   */\n  dup3\n    /* \"#utility.yul\":5340:5445   */\n  sstore\n    /* \"#utility.yul\":5258:5451   */\n  pop\n    /* \"#utility.yul\":5182:5451   */\n  pop\n  pop\n  pop\n  jump\t// out\n    /* \"#utility.yul\":5457:5530   */\ntag_35:\n    /* \"#utility.yul\":5502:5505   */\n  0x00\n    /* \"#utility.yul\":5523:5524   */\n  0x00\n    /* \"#utility.yul\":5516:5524   */\n  swap1\n  pop\n    /* \"#utility.yul\":5457:5530   */\n  swap1\n  jump\t// out\n    /* \"#utility.yul\":5536:5725   */\ntag_36:\n    /* \"#utility.yul\":5613:5645   */\n  tag_106\n  tag_35\n  jump\t// in\ntag_106:\n    /* \"#utility.yul\":5654:5719   */\n  tag_107\n    /* \"#utility.yul\":5712:5718   */\n  dup2\n    /* \"#utility.yul\":5704:5710   */\n  dup5\n    /* \"#utility.yul\":5698:5702   */\n  dup5\n    /* \"#utility.yul\":5654:5719   */\n  tag_34\n  jump\t// in\ntag_107:\n    /* \"#utility.yul\":5589:5725   */\n  pop\n    /* \"#utility.yul\":5536:5725   */\n  pop\n  pop\n  jump\t// out\n    /* \"#utility.yul\":5731:5917   */\ntag_37:\n    /* \"#utility.yul\":5791:5911   */\ntag_109:\n    /* \"#utility.yul\":5808:5811   */\n  dup2\n    /* \"#utility.yul\":5801:5806   */\n  dup2\n    /* \"#utility.yul\":5798:5812   */\n  lt\n    /* \"#utility.yul\":5791:5911   */\n  iszero\n  tag_111\n  jumpi\n    /* \"#utility.yul\":5862:5901   */\n  tag_112\n    /* \"#utility.yul\":5899:5900   */\n  0x00\n    /* \"#utility.yul\":5892:5897   */\n  dup3\n    /* \"#utility.yul\":5862:5901   */\n  tag_36\n  jump\t// in\ntag_112:\n    /* \"#utility.yul\":5835:5836   */\n  0x01\n    /* \"#utility.yul\":5828:5833   */\n  dup2\n    /* \"#utility.yul\":5824:5837   */\n  add\n    /* \"#utility.yul\":5815:5837   */\n  swap1\n  pop\n    /* \"#utility.yul\":5791:5911   */\n  jump(tag_109)\ntag_111:\n    /* \"#utility.yul\":5731:5917   */\n  pop\n  pop\n  jump\t// out\n    /* \"#utility.yul\":5923:6466   */\ntag_38:\n    /* \"#utility.yul\":6024:6026   */\n  0x1f\n    /* \"#utility.yul\":6019:6022   */\n  dup3\n    /* \"#utility.yul\":6016:6027   */\n  gt\n    /* \"#utility.yul\":6013:6459   */\n  iszero\n  tag_114\n  jumpi\n    /* \"#utility.yul\":6058:6096   */\n  tag_115\n    /* \"#utility.yul\":6090:6095   */\n  dup2\n    /* \"#utility.yul\":6058:6096   */\n  tag_26\n  jump\t// in\ntag_115:\n    /* \"#utility.yul\":6142:6171   */\n  tag_116\n    /* \"#utility.yul\":6160:6170   */\n  dup5\n    /* \"#utility.yul\":6142:6171   */\n  tag_27\n  jump\t// in\ntag_116:\n    /* \"#utility.yul\":6132:6140   */\n  dup2\n    /* \"#utility.yul\":6128:6172   */\n  add\n    /* \"#utility.yul\":6325:6327   */\n  0x20\n    /* \"#utility.yul\":6313:6323   */\n  dup6\n    /* \"#utility.yul\":6310:6328   */\n  lt\n    /* \"#utility.yul\":6307:6356   */\n  iszero\n  tag_117\n  jumpi\n    /* \"#utility.yul\":6346:6354   */\n  dup2\n    /* \"#utility.yul\":6331:6354   */\n  swap1\n  pop\n    /* \"#utility.yul\":6307:6356   */\ntag_117:\n    /* \"#utility.yul\":6369:6449   */\n  tag_118\n    /* \"#utility.yul\":6425:6447   */\n  tag_119\n    /* \"#utility.yul\":6443:6446   */\n  dup6\n    /* \"#utility.yul\":6425:6447   */\n  tag_27\n  jump\t// in\ntag_119:\n    /* \"#utility.yul\":6415:6423   */\n  dup4\n    /* \"#utility.yul\":6411:6448   */\n  add\n    /* \"#utility.yul\":6398:6409   */\n  dup3\n    /* \"#utility.yul\":6369:6449   */\n  tag_37\n  jump\t// in\ntag_118:\n    /* \"#utility.yul\":6028:6459   */\n  pop\n  pop\n    /* \"#utility.yul\":6013:6459   */\ntag_114:\n    /* \"#utility.yul\":5923:6466   */\n  pop\n  pop\n  pop\n  jump\t// out\n    /* \"#utility.yul\":6472:6589   */\ntag_39:\n    /* \"#utility.yul\":6526:6534   */\n  0x00\n    /* \"#utility.yul\":6576:6581   */\n  dup3\n    /* \"#utility.yul\":6570:6574   */\n  dup3\n    /* \"#utility.yul\":6566:6582   */\n  shr\n    /* \"#utility.yul\":6545:6582   */\n  swap1\n  pop\n    /* \"#utility.yul\":6472:6589   */\n  swap3\n  swap2\n  pop\n  pop\n  jump\t// out\n    /* \"#utility.yul\":6595:6764   */\ntag_40:\n    /* \"#utility.yul\":6639:6645   */\n  0x00\n    /* \"#utility.yul\":6672:6723   */\n  tag_122\n    /* \"#utility.yul\":6720:6721   */\n  0x00\n    /* \"#utility.yul\":6716:6722   */\n  not\n    /* \"#utility.yul\":6708:6713   */\n  dup5\n    /* \"#utility.yul\":6705:6706   */\n  0x08\n    /* \"#utility.yul\":6701:6714   */\n  mul\n    /* \"#utility.yul\":6672:6723   */\n  tag_39\n  jump\t// in\ntag_122:\n    /* \"#utility.yul\":6668:6724   */\n  not\n    /* \"#utility.yul\":6753:6757   */\n  dup1\n    /* \"#utility.yul\":6747:6751   */\n  dup4\n    /* \"#utility.yul\":6743:6758   */\n  and\n    /* \"#utility.yul\":6733:6758   */\n  swap2\n  pop\n    /* \"#utility.yul\":6646:6764   */\n  pop\n    /* \"#utility.yul\":6595:6764   */\n  swap3\n  swap2\n  pop\n  pop\n  jump\t// out\n    /* \"#utility.yul\":6769:7064   */\ntag_41:\n    /* \"#utility.yul\":6845:6849   */\n  0x00\n    /* \"#utility.yul\":6991:7020   */\n  tag_124\n    /* \"#utility.yul\":7016:7019   */\n  dup4\n    /* \"#utility.yul\":7010:7014   */\n  dup4\n    /* \"#utility.yul\":6991:7020   */\n  tag_40\n  jump\t// in\ntag_124:\n    /* \"#utility.yul\":6983:7020   */\n  swap2\n  pop\n    /* \"#utility.yul\":7053:7056   */\n  dup3\n    /* \"#utility.yul\":7050:7051   */\n  0x02\n    /* \"#utility.yul\":7046:7057   */\n  mul\n    /* \"#utility.yul\":7040:7044   */\n  dup3\n    /* \"#utility.yul\":7037:7058   */\n  or\n    /* \"#utility.yul\":7029:7058   */\n  swap1\n  pop\n    /* \"#utility.yul\":6769:7064   */\n  swap3\n  swap2\n  pop\n  pop\n  jump\t// out\n    /* \"#utility.yul\":7069:8464   */\ntag_7:\n    /* \"#utility.yul\":7186:7223   */\n  tag_126\n    /* \"#utility.yul\":7219:7222   */\n  dup3\n    /* \"#utility.yul\":7186:7223   */\n  tag_23\n  jump\t// in\ntag_126:\n    /* \"#utility.yul\":7288:7306   */\n  0xffffffffffffffff\n    /* \"#utility.yul\":7280:7286   */\n  dup2\n    /* \"#utility.yul\":7277:7307   */\n  gt\n    /* \"#utility.yul\":7274:7330   */\n  iszero\n  tag_127\n  jumpi\n    /* \"#utility.yul\":7310:7328   */\n  tag_128\n  tag_16\n  jump\t// in\ntag_128:\n    /* \"#utility.yul\":7274:7330   */\ntag_127:\n    /* \"#utility.yul\":7354:7392   */\n  tag_129\n    /* \"#utility.yul\":7386:7390   */\n  dup3\n    /* \"#utility.yul\":7380:7391   */\n  sload\n    /* \"#utility.yul\":7354:7392   */\n  tag_25\n  jump\t// in\ntag_129:\n    /* \"#utility.yul\":7439:7506   */\n  tag_130\n    /* \"#utility.yul\":7499:7505   */\n  dup3\n    /* \"#utility.yul\":7491:7497   */\n  dup3\n    /* \"#utility.yul\":7485:7489   */\n  dup6\n    /* \"#utility.yul\":7439:7506   */\n  tag_38\n  jump\t// in\ntag_130:\n    /* \"#utility.yul\":7533:7534   */\n  0x00\n    /* \"#utility.yul\":7557:7561   */\n  0x20\n    /* \"#utility.yul\":7544:7561   */\n  swap1\n  pop\n    /* \"#utility.yul\":7589:7591   */\n  0x1f\n    /* \"#utility.yul\":7581:7587   */\n  dup4\n    /* \"#utility.yul\":7578:7592   */\n  gt\n    /* \"#utility.yul\":7606:7607   */\n  0x01\n    /* \"#utility.yul\":7601:8219   */\n  dup2\n  eq\n  tag_132\n  jumpi\n    /* \"#utility.yul\":8263:8264   */\n  0x00\n    /* \"#utility.yul\":8280:8286   */\n  dup5\n    /* \"#utility.yul\":8277:8354   */\n  iszero\n  tag_133\n  jumpi\n    /* \"#utility.yul\":8329:8338   */\n  dup3\n    /* \"#utility.yul\":8324:8327   */\n  dup8\n    /* \"#utility.yul\":8320:8339   */\n  add\n    /* \"#utility.yul\":8314:8340   */\n  mload\n    /* \"#utility.yul\":8305:8340   */\n  swap1\n  pop\n    /* \"#utility.yul\":8277:8354   */\ntag_133:\n    /* \"#utility.yul\":8380:8447   */\n  tag_134\n    /* \"#utility.yul\":8440:8446   */\n  dup6\n    /* \"#utility.yul\":8433:8438   */\n  dup3\n    /* \"#utility.yul\":8380:8447   */\n  tag_41\n  jump\t// in\ntag_134:\n    /* \"#utility.yul\":8374:8378   */\n  dup7\n    /* \"#utility.yul\":8367:8448   */\n  sstore\n    /* \"#utility.yul\":8236:8458   */\n  pop\n    /* \"#utility.yul\":7571:8458   */\n  jump(tag_131)\n    /* \"#utility.yul\":7601:8219   */\ntag_132:\n    /* \"#utility.yul\":7653:7657   */\n  0x1f\n    /* \"#utility.yul\":7649:7658   */\n  not\n    /* \"#utility.yul\":7641:7647   */\n  dup5\n    /* \"#utility.yul\":7637:7659   */\n  and\n    /* \"#utility.yul\":7687:7724   */\n  tag_135\n    /* \"#utility.yul\":7719:7723   */\n  dup7\n    /* \"#utility.yul\":7687:7724   */\n  tag_26\n  jump\t// in\ntag_135:\n    /* \"#utility.yul\":7746:7747   */\n  0x00\n    /* \"#utility.yul\":7760:7968   */\ntag_136:\n    /* \"#utility.yul\":7774:7781   */\n  dup3\n    /* \"#utility.yul\":7771:7772   */\n  dup2\n    /* \"#utility.yul\":7768:7782   */\n  lt\n    /* \"#utility.yul\":7760:7968   */\n  iszero\n  tag_138\n  jumpi\n    /* \"#utility.yul\":7853:7862   */\n  dup5\n    /* \"#utility.yul\":7848:7851   */\n  dup10\n    /* \"#utility.yul\":7844:7863   */\n  add\n    /* \"#utility.yul\":7838:7864   */\n  mload\n    /* \"#utility.yul\":7830:7836   */\n  dup3\n    /* \"#utility.yul\":7823:7865   */\n  sstore\n    /* \"#utility.yul\":7904:7905   */\n  0x01\n    /* \"#utility.yul\":7896:7902   */\n  dup3\n    /* \"#utility.yul\":7892:7906   */\n  add\n    /* \"#utility.yul\":7882:7906   */\n  swap2\n  pop\n    /* \"#utility.yul\":7951:7953   */\n  0x20\n    /* \"#utility.yul\":7940:7949   */\n  dup6\n    /* \"#utility.yul\":7936:7954   */\n  add\n    /* \"#utility.yul\":7923:7954   */\n  swap5\n  pop\n    /* \"#utility.yul\":7797:7801   */\n  0x20\n    /* \"#utility.yul\":7794:7795   */\n  dup2\n    /* \"#utility.yul\":7790:7802   */\n  add\n    /* \"#utility.yul\":7785:7802   */\n  swap1\n  pop\n    /* \"#utility.yul\":7760:7968   */\n  jump(tag_136)\ntag_138:\n    /* \"#utility.yul\":7996:8002   */\n  dup7\n    /* \"#utility.yul\":7987:7994   */\n  dup4\n    /* \"#utility.yul\":7984:8003   */\n  lt\n    /* \"#utility.yul\":7981:8160   */\n  iszero\n  tag_139\n  jumpi\n    /* \"#utility.yul\":8054:8063   */\n  dup5\n    /* \"#utility.yul\":8049:8052   */\n  dup10\n    /* \"#utility.yul\":8045:8064   */\n  add\n    /* \"#utility.yul\":8039:8065   */\n  mload\n    /* \"#utility.yul\":8097:8145   */\n  tag_140\n    /* \"#utility.yul\":8139:8143   */\n  0x1f\n    /* \"#utility.yul\":8131:8137   */\n  dup10\n    /* \"#utility.yul\":8127:8144   */\n  and\n    /* \"#utility.yul\":8116:8125   */\n  dup3\n    /* \"#utility.yul\":8097:8145   */\n  tag_40\n  jump\t// in\ntag_140:\n    /* \"#utility.yul\":8089:8095   */\n  dup4\n    /* \"#utility.yul\":8082:8146   */\n  sstore\n    /* \"#utility.yul\":8004:8160   */\n  pop\n    /* \"#utility.yul\":7981:8160   */\ntag_139:\n    /* \"#utility.yul\":8206:8207   */\n  0x01\n    /* \"#utility.yul\":8202:8203   */\n  0x02\n    /* \"#utility.yul\":8194:8200   */\n  dup9\n    /* \"#utility.yul\":8190:8204   */\n  mul\n    /* \"#utility.yul\":8186:8208   */\n  add\n    /* \"#utility.yul\":8180:8184   */\n  dup9\n    /* \"#utility.yul\":8173:8209   */\n  sstore\n    /* \"#utility.yul\":7608:8219   */\n  pop\n  pop\n  pop\n    /* \"#utility.yul\":7571:8458   */\ntag_131:\n  pop\n    /* \"#utility.yul\":7161:8464   */\n  pop\n  pop\n  pop\n    /* \"#utility.yul\":7069:8464   */\n  pop\n  pop\n  jump\t// out\n    /* \"submissions/Serena Y/Day21-SimpleNFT.sol\":1387:8856  contract SimpleNFT is IERC721 {//构建一个名为SimpleNFT的新合约，它将遵循ERC-721规则... */\ntag_9:\n  dataSize(sub_0)\n  dup1\n  dataOffset(sub_0)\n  0x00\n  codecopy\n  0x00\n  return\nstop\n\nsub_0: assembly {\n        /* \"submissions/Serena Y/Day21-SimpleNFT.sol\":1387:8856  contract SimpleNFT is IERC721 {//构建一个名为SimpleNFT的新合约，它将遵循ERC-721规则... */\n      mstore(0x40, 0x80)\n      callvalue\n      dup1\n      iszero\n      tag_1\n      jumpi\n      revert(0x00, 0x00)\n    tag_1:\n      pop\n      jumpi(tag_2, lt(calldatasize, 0x04))\n      shr(0xe0, calldataload(0x00))\n      dup1\n      0x70a08231\n      gt\n      tag_16\n      jumpi\n      dup1\n      0xb88d4fde\n      gt\n      tag_17\n      jumpi\n      dup1\n      0xb88d4fde\n      eq\n      tag_12\n      jumpi\n      dup1\n      0xc87b56dd\n      eq\n      tag_13\n      jumpi\n      dup1\n      0xd0def521\n      eq\n      tag_14\n      jumpi\n      dup1\n      0xe985e9c5\n      eq\n      tag_15\n      jumpi\n      jump(tag_2)\n    tag_17:\n      dup1\n      0x70a08231\n      eq\n      tag_9\n      jumpi\n      dup1\n      0x95d89b41\n      eq\n      tag_10\n      jumpi\n      dup1\n      0xa22cb465\n      eq\n      tag_11\n      jumpi\n      jump(tag_2)\n    tag_16:\n      dup1\n      0x06fdde03\n      eq\n      tag_3\n      jumpi\n      dup1\n      0x081812fc\n      eq\n      tag_4\n      jumpi\n      dup1\n      0x095ea7b3\n      eq\n      tag_5\n      jumpi\n      dup1\n      0x23b872dd\n      eq\n      tag_6\n      jumpi\n      dup1\n      0x42842e0e\n      eq\n      tag_7\n      jumpi\n      dup1\n      0x6352211e\n      eq\n      tag_8\n      jumpi\n    tag_2:\n      revert(0x00, 0x00)\n        /* \"submissions/Serena Y/Day21-SimpleNFT.sol\":1493:1511  string public name */\n    tag_3:\n      tag_18\n      tag_19\n      jump\t// in\n    tag_18:\n      mload(0x40)\n      tag_20\n      swap2\n      swap1\n      tag_21\n      jump\t// in\n    tag_20:\n      mload(0x40)\n      dup1\n      swap2\n      sub\n      swap1\n      return\n        /* \"submissions/Serena Y/Day21-SimpleNFT.sol\":3635:3991  function getApproved(uint256 tokenId) public view override returns (address) {... */\n    tag_4:\n      tag_22\n      0x04\n      dup1\n      calldatasize\n      sub\n      dup2\n      add\n      swap1\n      tag_23\n      swap2\n      swap1\n      tag_24\n      jump\t// in\n    tag_23:\n      tag_25\n      jump\t// in\n    tag_22:\n      mload(0x40)\n      tag_26\n      swap2\n      swap1\n      tag_27\n      jump\t// in\n    tag_26:\n      mload(0x40)\n      dup1\n      swap2\n      sub\n      swap1\n      return\n        /* \"submissions/Serena Y/Day21-SimpleNFT.sol\":3131:3627  function approve(address to, uint256 tokenId) public override {... */\n    tag_5:\n      tag_28\n      0x04\n      dup1\n      calldatasize\n      sub\n      dup2\n      add\n      swap1\n      tag_29\n      swap2\n      swap1\n      tag_30\n      jump\t// in\n    tag_29:\n      tag_31\n      jump\t// in\n    tag_28:\n      stop\n        /* \"submissions/Serena Y/Day21-SimpleNFT.sol\":4820:5224  function transferFrom(address from, address to, uint256 tokenId) public override {... */\n    tag_6:\n      tag_32\n      0x04\n      dup1\n      calldatasize\n      sub\n      dup2\n      add\n      swap1\n      tag_33\n      swap2\n      swap1\n      tag_34\n      jump\t// in\n    tag_33:\n      tag_35\n      jump\t// in\n    tag_32:\n      stop\n        /* \"submissions/Serena Y/Day21-SimpleNFT.sol\":5546:5776  function safeTransferFrom(address from, address to, uint256 tokenId) public  override {//简易版... */\n    tag_7:\n      tag_36\n      0x04\n      dup1\n      calldatasize\n      sub\n      dup2\n      add\n      swap1\n      tag_37\n      swap2\n      swap1\n      tag_34\n      jump\t// in\n    tag_37:\n      tag_38\n      jump\t// in\n    tag_36:\n      stop\n        /* \"submissions/Serena Y/Day21-SimpleNFT.sol\":2799:3123  function ownerOf(uint256 tokenId) public view override returns (address) {... */\n    tag_8:\n      tag_39\n      0x04\n      dup1\n      calldatasize\n      sub\n      dup2\n      add\n      swap1\n      tag_40\n      swap2\n      swap1\n      tag_24\n      jump\t// in\n    tag_40:\n      tag_41\n      jump\t// in\n    tag_39:\n      mload(0x40)\n      tag_42\n      swap2\n      swap1\n      tag_27\n      jump\t// in\n    tag_42:\n      mload(0x40)\n      dup1\n      swap2\n      sub\n      swap1\n      return\n        /* \"submissions/Serena Y/Day21-SimpleNFT.sol\":2533:2791  function balanceOf(address owner) public view override returns (uint256) {... */\n    tag_9:\n      tag_43\n      0x04\n      dup1\n      calldatasize\n      sub\n      dup2\n      add\n      swap1\n      tag_44\n      swap2\n      swap1\n      tag_45\n      jump\t// in\n    tag_44:\n      tag_46\n      jump\t// in\n    tag_43:\n      mload(0x40)\n      tag_47\n      swap2\n      swap1\n      tag_48\n      jump\t// in\n    tag_47:\n      mload(0x40)\n      dup1\n      swap2\n      sub\n      swap1\n      return\n        /* \"submissions/Serena Y/Day21-SimpleNFT.sol\":1526:1546  string public symbol */\n    tag_10:\n      tag_49\n      tag_50\n      jump\t// in\n    tag_49:\n      mload(0x40)\n      tag_51\n      swap2\n      swap1\n      tag_21\n      jump\t// in\n    tag_51:\n      mload(0x40)\n      dup1\n      swap2\n      sub\n      swap1\n      return\n        /* \"submissions/Serena Y/Day21-SimpleNFT.sol\":3999:4478  function setApprovalForAll(address operator, bool approved) public override {... */\n    tag_11:\n      tag_52\n      0x04\n      dup1\n      calldatasize\n      sub\n      dup2\n      add\n      swap1\n      tag_53\n      swap2\n      swap1\n      tag_54\n      jump\t// in\n    tag_53:\n      tag_55\n      jump\t// in\n    tag_52:\n      stop\n        /* \"submissions/Serena Y/Day21-SimpleNFT.sol\":5232:5538  function safeTransferFrom(address from, address to, uint256 tokenId, bytes calldata data) public override {... */\n    tag_12:\n      tag_56\n      0x04\n      dup1\n      calldatasize\n      sub\n      dup2\n      add\n      swap1\n      tag_57\n      swap2\n      swap1\n      tag_58\n      jump\t// in\n    tag_57:\n      tag_59\n      jump\t// in\n    tag_56:\n      stop\n        /* \"submissions/Serena Y/Day21-SimpleNFT.sol\":6256:6563  function tokenURI(uint256 tokenId) public view returns (string memory) {... */\n    tag_13:\n      tag_60\n      0x04\n      dup1\n      calldatasize\n      sub\n      dup2\n      add\n      swap1\n      tag_61\n      swap2\n      swap1\n      tag_24\n      jump\t// in\n    tag_61:\n      tag_62\n      jump\t// in\n    tag_60:\n      mload(0x40)\n      tag_63\n      swap2\n      swap1\n      tag_21\n      jump\t// in\n    tag_63:\n      mload(0x40)\n      dup1\n      swap2\n      sub\n      swap1\n      return\n        /* \"submissions/Serena Y/Day21-SimpleNFT.sol\":5792:6248  function mint(address to, string memory uri) public {//一个叫做铸造的函数，需要地址和url... */\n    tag_14:\n      tag_64\n      0x04\n      dup1\n      calldatasize\n      sub\n      dup2\n      add\n      swap1\n      tag_65\n      swap2\n      swap1\n      tag_66\n      jump\t// in\n    tag_65:\n      tag_67\n      jump\t// in\n    tag_64:\n      stop\n        /* \"submissions/Serena Y/Day21-SimpleNFT.sol\":4486:4812  function isApprovedForAll(address owner, address operator) public view override returns (bool) {... */\n    tag_15:\n      tag_68\n      0x04\n      dup1\n      calldatasize\n      sub\n      dup2\n      add\n      swap1\n      tag_69\n      swap2\n      swap1\n      tag_70\n      jump\t// in\n    tag_69:\n      tag_71\n      jump\t// in\n    tag_68:\n      mload(0x40)\n      tag_72\n      swap2\n      swap1\n      tag_73\n      jump\t// in\n    tag_72:\n      mload(0x40)\n      dup1\n      swap2\n      sub\n      swap1\n      return\n        /* \"submissions/Serena Y/Day21-SimpleNFT.sol\":1493:1511  string public name */\n    tag_19:\n      0x00\n      dup1\n      sload\n      tag_74\n      swap1\n      tag_75\n      jump\t// in\n    tag_74:\n      dup1\n      0x1f\n      add\n      0x20\n      dup1\n      swap2\n      div\n      mul\n      0x20\n      add\n      mload(0x40)\n      swap1\n      dup2\n      add\n      0x40\n      mstore\n      dup1\n      swap3\n      swap2\n      swap1\n      dup2\n      dup2\n      mstore\n      0x20\n      add\n      dup3\n      dup1\n      sload\n      tag_76\n      swap1\n      tag_75\n      jump\t// in\n    tag_76:\n      dup1\n      iszero\n      tag_77\n      jumpi\n      dup1\n      0x1f\n      lt\n      tag_78\n      jumpi\n      0x0100\n      dup1\n      dup4\n      sload\n      div\n      mul\n      dup4\n      mstore\n      swap2\n      0x20\n      add\n      swap2\n      jump(tag_77)\n    tag_78:\n      dup3\n      add\n      swap2\n      swap1\n      0x00\n      mstore\n      keccak256(0x00, 0x20)\n      swap1\n    tag_79:\n      dup2\n      sload\n      dup2\n      mstore\n      swap1\n      0x01\n      add\n      swap1\n      0x20\n      add\n      dup1\n      dup4\n      gt\n      tag_79\n      jumpi\n      dup3\n      swap1\n      sub\n      0x1f\n      and\n      dup3\n      add\n      swap2\n    tag_77:\n      pop\n      pop\n      pop\n      pop\n      pop\n      dup2\n      jump\t// out\n        /* \"submissions/Serena Y/Day21-SimpleNFT.sol\":3635:3991  function getApproved(uint256 tokenId) public view override returns (address) {... */\n    tag_25:\n        /* \"submissions/Serena Y/Day21-SimpleNFT.sol\":3703:3710  address */\n      0x00\n        /* \"submissions/Serena Y/Day21-SimpleNFT.sol\":3852:3853  0 */\n      0x00\n        /* \"submissions/Serena Y/Day21-SimpleNFT.sol\":3824:3854  _owners[tokenId] != address(0) */\n      0xffffffffffffffffffffffffffffffffffffffff\n      and\n        /* \"submissions/Serena Y/Day21-SimpleNFT.sol\":3824:3831  _owners */\n      0x03\n        /* \"submissions/Serena Y/Day21-SimpleNFT.sol\":3824:3840  _owners[tokenId] */\n      0x00\n        /* \"submissions/Serena Y/Day21-SimpleNFT.sol\":3832:3839  tokenId */\n      dup5\n        /* \"submissions/Serena Y/Day21-SimpleNFT.sol\":3824:3840  _owners[tokenId] */\n      dup2\n      mstore\n      0x20\n      add\n      swap1\n      dup2\n      mstore\n      0x20\n      add\n      0x00\n      keccak256\n      0x00\n      swap1\n      sload\n      swap1\n      0x0100\n      exp\n      swap1\n      div\n      0xffffffffffffffffffffffffffffffffffffffff\n      and\n        /* \"submissions/Serena Y/Day21-SimpleNFT.sol\":3824:3854  _owners[tokenId] != address(0) */\n      0xffffffffffffffffffffffffffffffffffffffff\n      and\n      sub\n        /* \"submissions/Serena Y/Day21-SimpleNFT.sol\":3816:3878  require(_owners[tokenId] != address(0), \"Token doesn't exist\") */\n      tag_81\n      jumpi\n      mload(0x40)\n      0x08c379a000000000000000000000000000000000000000000000000000000000\n      dup2\n      mstore\n      0x04\n      add\n      tag_82\n      swap1\n      tag_83\n      jump\t// in\n    tag_82:\n      mload(0x40)\n      dup1\n      swap2\n      sub\n      swap1\n      revert\n    tag_81:\n        /* \"submissions/Serena Y/Day21-SimpleNFT.sol\":3922:3937  _tokenApprovals */\n      0x05\n        /* \"submissions/Serena Y/Day21-SimpleNFT.sol\":3922:3946  _tokenApprovals[tokenId] */\n      0x00\n        /* \"submissions/Serena Y/Day21-SimpleNFT.sol\":3938:3945  tokenId */\n      dup4\n        /* \"submissions/Serena Y/Day21-SimpleNFT.sol\":3922:3946  _tokenApprovals[tokenId] */\n      dup2\n      mstore\n      0x20\n      add\n      swap1\n      dup2\n      mstore\n      0x20\n      add\n      0x00\n      keccak256\n      0x00\n      swap1\n      sload\n      swap1\n      0x0100\n      exp\n      swap1\n      div\n      0xffffffffffffffffffffffffffffffffffffffff\n      and\n        /* \"submissions/Serena Y/Day21-SimpleNFT.sol\":3915:3946  return _tokenApprovals[tokenId] */\n      swap1\n      pop\n        /* \"submissions/Serena Y/Day21-SimpleNFT.sol\":3635:3991  function getApproved(uint256 tokenId) public view override returns (address) {... */\n      swap2\n      swap1\n      pop\n      jump\t// out\n        /* \"submissions/Serena Y/Day21-SimpleNFT.sol\":3131:3627  function approve(address to, uint256 tokenId) public override {... */\n    tag_31:\n        /* \"submissions/Serena Y/Day21-SimpleNFT.sol\":3204:3217  address owner */\n      0x00\n        /* \"submissions/Serena Y/Day21-SimpleNFT.sol\":3220:3236  ownerOf(tokenId) */\n      tag_85\n        /* \"submissions/Serena Y/Day21-SimpleNFT.sol\":3228:3235  tokenId */\n      dup3\n        /* \"submissions/Serena Y/Day21-SimpleNFT.sol\":3220:3227  ownerOf */\n      tag_41\n        /* \"submissions/Serena Y/Day21-SimpleNFT.sol\":3220:3236  ownerOf(tokenId) */\n      jump\t// in\n    tag_85:\n        /* \"submissions/Serena Y/Day21-SimpleNFT.sol\":3204:3236  address owner = ownerOf(tokenId) */\n      swap1\n      pop\n        /* \"submissions/Serena Y/Day21-SimpleNFT.sol\":3293:3298  owner */\n      dup1\n        /* \"submissions/Serena Y/Day21-SimpleNFT.sol\":3287:3298  to != owner */\n      0xffffffffffffffffffffffffffffffffffffffff\n      and\n        /* \"submissions/Serena Y/Day21-SimpleNFT.sol\":3287:3289  to */\n      dup4\n        /* \"submissions/Serena Y/Day21-SimpleNFT.sol\":3287:3298  to != owner */\n      0xffffffffffffffffffffffffffffffffffffffff\n      and\n      sub\n        /* \"submissions/Serena Y/Day21-SimpleNFT.sol\":3279:3316  require(to != owner, \"Already owner\") */\n      tag_86\n      jumpi\n      mload(0x40)\n      0x08c379a000000000000000000000000000000000000000000000000000000000\n      dup2\n      mstore\n      0x04\n      add\n      tag_87\n      swap1\n      tag_88\n      jump\t// in\n    tag_87:\n      mload(0x40)\n      dup1\n      swap2\n      sub\n      swap1\n      revert\n    tag_86:\n        /* \"submissions/Serena Y/Day21-SimpleNFT.sol\":3391:3396  owner */\n      dup1\n        /* \"submissions/Serena Y/Day21-SimpleNFT.sol\":3377:3396  msg.sender == owner */\n      0xffffffffffffffffffffffffffffffffffffffff\n      and\n        /* \"submissions/Serena Y/Day21-SimpleNFT.sol\":3377:3387  msg.sender */\n      caller\n        /* \"submissions/Serena Y/Day21-SimpleNFT.sol\":3377:3396  msg.sender == owner */\n      0xffffffffffffffffffffffffffffffffffffffff\n      and\n      eq\n        /* \"submissions/Serena Y/Day21-SimpleNFT.sol\":3377:3435  msg.sender == owner || isApprovedForAll(owner, msg.sender) */\n      dup1\n      tag_89\n      jumpi\n      pop\n        /* \"submissions/Serena Y/Day21-SimpleNFT.sol\":3400:3435  isApprovedForAll(owner, msg.sender) */\n      tag_90\n        /* \"submissions/Serena Y/Day21-SimpleNFT.sol\":3417:3422  owner */\n      dup2\n        /* \"submissions/Serena Y/Day21-SimpleNFT.sol\":3424:3434  msg.sender */\n      caller\n        /* \"submissions/Serena Y/Day21-SimpleNFT.sol\":3400:3416  isApprovedForAll */\n      tag_71\n        /* \"submissions/Serena Y/Day21-SimpleNFT.sol\":3400:3435  isApprovedForAll(owner, msg.sender) */\n      jump\t// in\n    tag_90:\n        /* \"submissions/Serena Y/Day21-SimpleNFT.sol\":3377:3435  msg.sender == owner || isApprovedForAll(owner, msg.sender) */\n    tag_89:\n        /* \"submissions/Serena Y/Day21-SimpleNFT.sol\":3369:3454  require(msg.sender == owner || isApprovedForAll(owner, msg.sender), \"Not authorized\") */\n      tag_91\n      jumpi\n      mload(0x40)\n      0x08c379a000000000000000000000000000000000000000000000000000000000\n      dup2\n      mstore\n      0x04\n      add\n      tag_92\n      swap1\n      tag_93\n      jump\t// in\n    tag_92:\n      mload(0x40)\n      dup1\n      swap2\n      sub\n      swap1\n      revert\n    tag_91:\n        /* \"submissions/Serena Y/Day21-SimpleNFT.sol\":3494:3496  to */\n      dup3\n        /* \"submissions/Serena Y/Day21-SimpleNFT.sol\":3467:3482  _tokenApprovals */\n      0x05\n        /* \"submissions/Serena Y/Day21-SimpleNFT.sol\":3467:3491  _tokenApprovals[tokenId] */\n      0x00\n        /* \"submissions/Serena Y/Day21-SimpleNFT.sol\":3483:3490  tokenId */\n      dup5\n        /* \"submissions/Serena Y/Day21-SimpleNFT.sol\":3467:3491  _tokenApprovals[tokenId] */\n      dup2\n      mstore\n      0x20\n      add\n      swap1\n      dup2\n      mstore\n      0x20\n      add\n      0x00\n      keccak256\n      0x00\n        /* \"submissions/Serena Y/Day21-SimpleNFT.sol\":3467:3496  _tokenApprovals[tokenId] = to */\n      0x0100\n      exp\n      dup2\n      sload\n      dup2\n      0xffffffffffffffffffffffffffffffffffffffff\n      mul\n      not\n      and\n      swap1\n      dup4\n      0xffffffffffffffffffffffffffffffffffffffff\n      and\n      mul\n      or\n      swap1\n      sstore\n      pop\n        /* \"submissions/Serena Y/Day21-SimpleNFT.sol\":3574:3581  tokenId */\n      dup2\n        /* \"submissions/Serena Y/Day21-SimpleNFT.sol\":3570:3572  to */\n      dup4\n        /* \"submissions/Serena Y/Day21-SimpleNFT.sol\":3554:3582  Approval(owner, to, tokenId) */\n      0xffffffffffffffffffffffffffffffffffffffff\n      and\n        /* \"submissions/Serena Y/Day21-SimpleNFT.sol\":3563:3568  owner */\n      dup3\n        /* \"submissions/Serena Y/Day21-SimpleNFT.sol\":3554:3582  Approval(owner, to, tokenId) */\n      0xffffffffffffffffffffffffffffffffffffffff\n      and\n      0x8c5be1e5ebec7d5bd14f71427d1e84f3dd0314c0f7b2291e5b200ac8c7c3b925\n      mload(0x40)\n      mload(0x40)\n      dup1\n      swap2\n      sub\n      swap1\n      log4\n        /* \"submissions/Serena Y/Day21-SimpleNFT.sol\":3193:3627  {... */\n      pop\n        /* \"submissions/Serena Y/Day21-SimpleNFT.sol\":3131:3627  function approve(address to, uint256 tokenId) public override {... */\n      pop\n      pop\n      jump\t// out\n        /* \"submissions/Serena Y/Day21-SimpleNFT.sol\":4820:5224  function transferFrom(address from, address to, uint256 tokenId) public override {... */\n    tag_35:\n        /* \"submissions/Serena Y/Day21-SimpleNFT.sol\":5026:5065  _isApprovedOrOwner(msg.sender, tokenId) */\n      tag_95\n        /* \"submissions/Serena Y/Day21-SimpleNFT.sol\":5045:5055  msg.sender */\n      caller\n        /* \"submissions/Serena Y/Day21-SimpleNFT.sol\":5057:5064  tokenId */\n      dup3\n        /* \"submissions/Serena Y/Day21-SimpleNFT.sol\":5026:5044  _isApprovedOrOwner */\n      tag_96\n        /* \"submissions/Serena Y/Day21-SimpleNFT.sol\":5026:5065  _isApprovedOrOwner(msg.sender, tokenId) */\n      jump\t// in\n    tag_95:\n        /* \"submissions/Serena Y/Day21-SimpleNFT.sol\":5018:5084  require(_isApprovedOrOwner(msg.sender, tokenId), \"Not authorized\") */\n      tag_97\n      jumpi\n      mload(0x40)\n      0x08c379a000000000000000000000000000000000000000000000000000000000\n      dup2\n      mstore\n      0x04\n      add\n      tag_98\n      swap1\n      tag_93\n      jump\t// in\n    tag_98:\n      mload(0x40)\n      dup1\n      swap2\n      sub\n      swap1\n      revert\n    tag_97:\n        /* \"submissions/Serena Y/Day21-SimpleNFT.sol\":5147:5175  _transfer(from, to, tokenId) */\n      tag_99\n        /* \"submissions/Serena Y/Day21-SimpleNFT.sol\":5157:5161  from */\n      dup4\n        /* \"submissions/Serena Y/Day21-SimpleNFT.sol\":5163:5165  to */\n      dup4\n        /* \"submissions/Serena Y/Day21-SimpleNFT.sol\":5167:5174  tokenId */\n      dup4\n        /* \"submissions/Serena Y/Day21-SimpleNFT.sol\":5147:5156  _transfer */\n      tag_100\n        /* \"submissions/Serena Y/Day21-SimpleNFT.sol\":5147:5175  _transfer(from, to, tokenId) */\n      jump\t// in\n    tag_99:\n        /* \"submissions/Serena Y/Day21-SimpleNFT.sol\":4820:5224  function transferFrom(address from, address to, uint256 tokenId) public override {... */\n      pop\n      pop\n      pop\n      jump\t// out\n        /* \"submissions/Serena Y/Day21-SimpleNFT.sol\":5546:5776  function safeTransferFrom(address from, address to, uint256 tokenId) public  override {//简易版... */\n    tag_38:\n        /* \"submissions/Serena Y/Day21-SimpleNFT.sol\":5654:5658  this */\n      address\n        /* \"submissions/Serena Y/Day21-SimpleNFT.sol\":5654:5675  this.safeTransferFrom */\n      0xffffffffffffffffffffffffffffffffffffffff\n      and\n      0xb88d4fde\n        /* \"submissions/Serena Y/Day21-SimpleNFT.sol\":5676:5680  from */\n      dup5\n        /* \"submissions/Serena Y/Day21-SimpleNFT.sol\":5682:5684  to */\n      dup5\n        /* \"submissions/Serena Y/Day21-SimpleNFT.sol\":5686:5693  tokenId */\n      dup5\n        /* \"submissions/Serena Y/Day21-SimpleNFT.sol\":5654:5697  this.safeTransferFrom(from, to, tokenId,\"\") */\n      mload(0x40)\n      dup5\n      0xffffffff\n      and\n      0xe0\n      shl\n      dup2\n      mstore\n      0x04\n      add\n      tag_102\n      swap4\n      swap3\n      swap2\n      swap1\n      tag_103\n      jump\t// in\n    tag_102:\n      0x00\n      mload(0x40)\n      dup1\n      dup4\n      sub\n      dup2\n      0x00\n      dup8\n      dup1\n      extcodesize\n      iszero\n      dup1\n      iszero\n      tag_104\n      jumpi\n      revert(0x00, 0x00)\n    tag_104:\n      pop\n      gas\n      call\n      iszero\n      dup1\n      iszero\n      tag_106\n      jumpi\n      returndatacopy(0x00, 0x00, returndatasize)\n      revert(0x00, returndatasize)\n    tag_106:\n      pop\n      pop\n      pop\n      pop\n        /* \"submissions/Serena Y/Day21-SimpleNFT.sol\":5546:5776  function safeTransferFrom(address from, address to, uint256 tokenId) public  override {//简易版... */\n      pop\n      pop\n      pop\n      jump\t// out\n        /* \"submissions/Serena Y/Day21-SimpleNFT.sol\":2799:3123  function ownerOf(uint256 tokenId) public view override returns (address) {... */\n    tag_41:\n        /* \"submissions/Serena Y/Day21-SimpleNFT.sol\":2863:2870  address */\n      0x00\n        /* \"submissions/Serena Y/Day21-SimpleNFT.sol\":2929:2942  address owner */\n      0x00\n        /* \"submissions/Serena Y/Day21-SimpleNFT.sol\":2945:2952  _owners */\n      0x03\n        /* \"submissions/Serena Y/Day21-SimpleNFT.sol\":2945:2961  _owners[tokenId] */\n      0x00\n        /* \"submissions/Serena Y/Day21-SimpleNFT.sol\":2953:2960  tokenId */\n      dup5\n        /* \"submissions/Serena Y/Day21-SimpleNFT.sol\":2945:2961  _owners[tokenId] */\n      dup2\n      mstore\n      0x20\n      add\n      swap1\n      dup2\n      mstore\n      0x20\n      add\n      0x00\n      keccak256\n      0x00\n      swap1\n      sload\n      swap1\n      0x0100\n      exp\n      swap1\n      div\n      0xffffffffffffffffffffffffffffffffffffffff\n      and\n        /* \"submissions/Serena Y/Day21-SimpleNFT.sol\":2929:2961  address owner = _owners[tokenId] */\n      swap1\n      pop\n        /* \"submissions/Serena Y/Day21-SimpleNFT.sol\":3020:3021  0 */\n      0x00\n        /* \"submissions/Serena Y/Day21-SimpleNFT.sol\":3003:3022  owner != address(0) */\n      0xffffffffffffffffffffffffffffffffffffffff\n      and\n        /* \"submissions/Serena Y/Day21-SimpleNFT.sol\":3003:3008  owner */\n      dup2\n        /* \"submissions/Serena Y/Day21-SimpleNFT.sol\":3003:3022  owner != address(0) */\n      0xffffffffffffffffffffffffffffffffffffffff\n      and\n      sub\n        /* \"submissions/Serena Y/Day21-SimpleNFT.sol\":2995:3046  require(owner != address(0), \"Token doesn't exist\") */\n      tag_108\n      jumpi\n      mload(0x40)\n      0x08c379a000000000000000000000000000000000000000000000000000000000\n      dup2\n      mstore\n      0x04\n      add\n      tag_109\n      swap1\n      tag_83\n      jump\t// in\n    tag_109:\n      mload(0x40)\n      dup1\n      swap2\n      sub\n      swap1\n      revert\n    tag_108:\n        /* \"submissions/Serena Y/Day21-SimpleNFT.sol\":3091:3096  owner */\n      dup1\n        /* \"submissions/Serena Y/Day21-SimpleNFT.sol\":3084:3096  return owner */\n      swap2\n      pop\n      pop\n        /* \"submissions/Serena Y/Day21-SimpleNFT.sol\":2799:3123  function ownerOf(uint256 tokenId) public view override returns (address) {... */\n      swap2\n      swap1\n      pop\n      jump\t// out\n        /* \"submissions/Serena Y/Day21-SimpleNFT.sol\":2533:2791  function balanceOf(address owner) public view override returns (uint256) {... */\n    tag_46:\n        /* \"submissions/Serena Y/Day21-SimpleNFT.sol\":2597:2604  uint256 */\n      0x00\n        /* \"submissions/Serena Y/Day21-SimpleNFT.sol\":2681:2682  0 */\n      0x00\n        /* \"submissions/Serena Y/Day21-SimpleNFT.sol\":2664:2683  owner != address(0) */\n      0xffffffffffffffffffffffffffffffffffffffff\n      and\n        /* \"submissions/Serena Y/Day21-SimpleNFT.sol\":2664:2669  owner */\n      dup3\n        /* \"submissions/Serena Y/Day21-SimpleNFT.sol\":2664:2683  owner != address(0) */\n      0xffffffffffffffffffffffffffffffffffffffff\n      and\n      sub\n        /* \"submissions/Serena Y/Day21-SimpleNFT.sol\":2656:2700  require(owner != address(0), \"Zero address\") */\n      tag_111\n      jumpi\n      mload(0x40)\n      0x08c379a000000000000000000000000000000000000000000000000000000000\n      dup2\n      mstore\n      0x04\n      add\n      tag_112\n      swap1\n      tag_113\n      jump\t// in\n    tag_112:\n      mload(0x40)\n      dup1\n      swap2\n      sub\n      swap1\n      revert\n    tag_111:\n        /* \"submissions/Serena Y/Day21-SimpleNFT.sol\":2745:2754  _balances */\n      0x04\n        /* \"submissions/Serena Y/Day21-SimpleNFT.sol\":2745:2761  _balances[owner] */\n      0x00\n        /* \"submissions/Serena Y/Day21-SimpleNFT.sol\":2755:2760  owner */\n      dup4\n        /* \"submissions/Serena Y/Day21-SimpleNFT.sol\":2745:2761  _balances[owner] */\n      0xffffffffffffffffffffffffffffffffffffffff\n      and\n      0xffffffffffffffffffffffffffffffffffffffff\n      and\n      dup2\n      mstore\n      0x20\n      add\n      swap1\n      dup2\n      mstore\n      0x20\n      add\n      0x00\n      keccak256\n      sload\n        /* \"submissions/Serena Y/Day21-SimpleNFT.sol\":2738:2761  return _balances[owner] */\n      swap1\n      pop\n        /* \"submissions/Serena Y/Day21-SimpleNFT.sol\":2533:2791  function balanceOf(address owner) public view override returns (uint256) {... */\n      swap2\n      swap1\n      pop\n      jump\t// out\n        /* \"submissions/Serena Y/Day21-SimpleNFT.sol\":1526:1546  string public symbol */\n    tag_50:\n      0x01\n      dup1\n      sload\n      tag_114\n      swap1\n      tag_75\n      jump\t// in\n    tag_114:\n      dup1\n      0x1f\n      add\n      0x20\n      dup1\n      swap2\n      div\n      mul\n      0x20\n      add\n      mload(0x40)\n      swap1\n      dup2\n      add\n      0x40\n      mstore\n      dup1\n      swap3\n      swap2\n      swap1\n      dup2\n      dup2\n      mstore\n      0x20\n      add\n      dup3\n      dup1\n      sload\n      tag_115\n      swap1\n      tag_75\n      jump\t// in\n    tag_115:\n      dup1\n      iszero\n      tag_116\n      jumpi\n      dup1\n      0x1f\n      lt\n      tag_117\n      jumpi\n      0x0100\n      dup1\n      dup4\n      sload\n      div\n      mul\n      dup4\n      mstore\n      swap2\n      0x20\n      add\n      swap2\n      jump(tag_116)\n    tag_117:\n      dup3\n      add\n      swap2\n      swap1\n      0x00\n      mstore\n      keccak256(0x00, 0x20)\n      swap1\n    tag_118:\n      dup2\n      sload\n      dup2\n      mstore\n      swap1\n      0x01\n      add\n      swap1\n      0x20\n      add\n      dup1\n      dup4\n      gt\n      tag_118\n      jumpi\n      dup3\n      swap1\n      sub\n      0x1f\n      and\n      dup3\n      add\n      swap2\n    tag_116:\n      pop\n      pop\n      pop\n      pop\n      pop\n      dup2\n      jump\t// out\n        /* \"submissions/Serena Y/Day21-SimpleNFT.sol\":3999:4478  function setApprovalForAll(address operator, bool approved) public override {... */\n    tag_55:\n        /* \"submissions/Serena Y/Day21-SimpleNFT.sol\":4198:4208  msg.sender */\n      caller\n        /* \"submissions/Serena Y/Day21-SimpleNFT.sol\":4186:4208  operator != msg.sender */\n      0xffffffffffffffffffffffffffffffffffffffff\n      and\n        /* \"submissions/Serena Y/Day21-SimpleNFT.sol\":4186:4194  operator */\n      dup3\n        /* \"submissions/Serena Y/Day21-SimpleNFT.sol\":4186:4208  operator != msg.sender */\n      0xffffffffffffffffffffffffffffffffffffffff\n      and\n      sub\n        /* \"submissions/Serena Y/Day21-SimpleNFT.sol\":4178:4226  require(operator != msg.sender, \"Self approval\") */\n      tag_120\n      jumpi\n      mload(0x40)\n      0x08c379a000000000000000000000000000000000000000000000000000000000\n      dup2\n      mstore\n      0x04\n      add\n      tag_121\n      swap1\n      tag_122\n      jump\t// in\n    tag_121:\n      mload(0x40)\n      dup1\n      swap2\n      sub\n      swap1\n      revert\n    tag_120:\n        /* \"submissions/Serena Y/Day21-SimpleNFT.sol\":4313:4321  approved */\n      dup1\n        /* \"submissions/Serena Y/Day21-SimpleNFT.sol\":4270:4288  _operatorApprovals */\n      0x06\n        /* \"submissions/Serena Y/Day21-SimpleNFT.sol\":4270:4300  _operatorApprovals[msg.sender] */\n      0x00\n        /* \"submissions/Serena Y/Day21-SimpleNFT.sol\":4289:4299  msg.sender */\n      caller\n        /* \"submissions/Serena Y/Day21-SimpleNFT.sol\":4270:4300  _operatorApprovals[msg.sender] */\n      0xffffffffffffffffffffffffffffffffffffffff\n      and\n      0xffffffffffffffffffffffffffffffffffffffff\n      and\n      dup2\n      mstore\n      0x20\n      add\n      swap1\n      dup2\n      mstore\n      0x20\n      add\n      0x00\n      keccak256\n        /* \"submissions/Serena Y/Day21-SimpleNFT.sol\":4270:4310  _operatorApprovals[msg.sender][operator] */\n      0x00\n        /* \"submissions/Serena Y/Day21-SimpleNFT.sol\":4301:4309  operator */\n      dup5\n        /* \"submissions/Serena Y/Day21-SimpleNFT.sol\":4270:4310  _operatorApprovals[msg.sender][operator] */\n      0xffffffffffffffffffffffffffffffffffffffff\n      and\n      0xffffffffffffffffffffffffffffffffffffffff\n      and\n      dup2\n      mstore\n      0x20\n      add\n      swap1\n      dup2\n      mstore\n      0x20\n      add\n      0x00\n      keccak256\n      0x00\n        /* \"submissions/Serena Y/Day21-SimpleNFT.sol\":4270:4321  _operatorApprovals[msg.sender][operator] = approved */\n      0x0100\n      exp\n      dup2\n      sload\n      dup2\n      0xff\n      mul\n      not\n      and\n      swap1\n      dup4\n      iszero\n      iszero\n      mul\n      or\n      swap1\n      sstore\n      pop\n        /* \"submissions/Serena Y/Day21-SimpleNFT.sol\":4396:4404  operator */\n      dup2\n        /* \"submissions/Serena Y/Day21-SimpleNFT.sol\":4369:4415  ApprovalForAll(msg.sender, operator, approved) */\n      0xffffffffffffffffffffffffffffffffffffffff\n      and\n        /* \"submissions/Serena Y/Day21-SimpleNFT.sol\":4384:4394  msg.sender */\n      caller\n        /* \"submissions/Serena Y/Day21-SimpleNFT.sol\":4369:4415  ApprovalForAll(msg.sender, operator, approved) */\n      0xffffffffffffffffffffffffffffffffffffffff\n      and\n      0x17307eab39ab6107e8899845ad3d59bd9653f200f220920489ca2b5937696c31\n        /* \"submissions/Serena Y/Day21-SimpleNFT.sol\":4406:4414  approved */\n      dup4\n        /* \"submissions/Serena Y/Day21-SimpleNFT.sol\":4369:4415  ApprovalForAll(msg.sender, operator, approved) */\n      mload(0x40)\n      tag_123\n      swap2\n      swap1\n      tag_73\n      jump\t// in\n    tag_123:\n      mload(0x40)\n      dup1\n      swap2\n      sub\n      swap1\n      log3\n        /* \"submissions/Serena Y/Day21-SimpleNFT.sol\":3999:4478  function setApprovalForAll(address operator, bool approved) public override {... */\n      pop\n      pop\n      jump\t// out\n        /* \"submissions/Serena Y/Day21-SimpleNFT.sol\":5232:5538  function safeTransferFrom(address from, address to, uint256 tokenId, bytes calldata data) public override {... */\n    tag_59:\n        /* \"submissions/Serena Y/Day21-SimpleNFT.sol\":5357:5396  _isApprovedOrOwner(msg.sender, tokenId) */\n      tag_125\n        /* \"submissions/Serena Y/Day21-SimpleNFT.sol\":5376:5386  msg.sender */\n      caller\n        /* \"submissions/Serena Y/Day21-SimpleNFT.sol\":5388:5395  tokenId */\n      dup5\n        /* \"submissions/Serena Y/Day21-SimpleNFT.sol\":5357:5375  _isApprovedOrOwner */\n      tag_96\n        /* \"submissions/Serena Y/Day21-SimpleNFT.sol\":5357:5396  _isApprovedOrOwner(msg.sender, tokenId) */\n      jump\t// in\n    tag_125:\n        /* \"submissions/Serena Y/Day21-SimpleNFT.sol\":5349:5415  require(_isApprovedOrOwner(msg.sender, tokenId), \"Not authorized\") */\n      tag_126\n      jumpi\n      mload(0x40)\n      0x08c379a000000000000000000000000000000000000000000000000000000000\n      dup2\n      mstore\n      0x04\n      add\n      tag_127\n      swap1\n      tag_93\n      jump\t// in\n    tag_127:\n      mload(0x40)\n      dup1\n      swap2\n      sub\n      swap1\n      revert\n    tag_126:\n        /* \"submissions/Serena Y/Day21-SimpleNFT.sol\":5458:5496  _safeTransfer(from, to, tokenId, data) */\n      tag_128\n        /* \"submissions/Serena Y/Day21-SimpleNFT.sol\":5472:5476  from */\n      dup6\n        /* \"submissions/Serena Y/Day21-SimpleNFT.sol\":5478:5480  to */\n      dup6\n        /* \"submissions/Serena Y/Day21-SimpleNFT.sol\":5482:5489  tokenId */\n      dup6\n        /* \"submissions/Serena Y/Day21-SimpleNFT.sol\":5491:5495  data */\n      dup6\n      dup6\n        /* \"submissions/Serena Y/Day21-SimpleNFT.sol\":5458:5496  _safeTransfer(from, to, tokenId, data) */\n      dup1\n      dup1\n      0x1f\n      add\n      0x20\n      dup1\n      swap2\n      div\n      mul\n      0x20\n      add\n      mload(0x40)\n      swap1\n      dup2\n      add\n      0x40\n      mstore\n      dup1\n      swap4\n      swap3\n      swap2\n      swap1\n      dup2\n      dup2\n      mstore\n      0x20\n      add\n      dup4\n      dup4\n      dup1\n      dup3\n      dup5\n      calldatacopy\n      0x00\n      dup2\n      dup5\n      add\n      mstore\n      not(0x1f)\n      0x1f\n      dup3\n      add\n      and\n      swap1\n      pop\n      dup1\n      dup4\n      add\n      swap3\n      pop\n      pop\n      pop\n      pop\n      pop\n      pop\n      pop\n        /* \"submissions/Serena Y/Day21-SimpleNFT.sol\":5458:5471  _safeTransfer */\n      tag_129\n        /* \"submissions/Serena Y/Day21-SimpleNFT.sol\":5458:5496  _safeTransfer(from, to, tokenId, data) */\n      jump\t// in\n    tag_128:\n        /* \"submissions/Serena Y/Day21-SimpleNFT.sol\":5232:5538  function safeTransferFrom(address from, address to, uint256 tokenId, bytes calldata data) public override {... */\n      pop\n      pop\n      pop\n      pop\n      pop\n      jump\t// out\n        /* \"submissions/Serena Y/Day21-SimpleNFT.sol\":6256:6563  function tokenURI(uint256 tokenId) public view returns (string memory) {... */\n    tag_62:\n        /* \"submissions/Serena Y/Day21-SimpleNFT.sol\":6312:6325  string memory */\n      0x60\n        /* \"submissions/Serena Y/Day21-SimpleNFT.sol\":6444:6445  0 */\n      0x00\n        /* \"submissions/Serena Y/Day21-SimpleNFT.sol\":6416:6446  _owners[tokenId] != address(0) */\n      0xffffffffffffffffffffffffffffffffffffffff\n      and\n        /* \"submissions/Serena Y/Day21-SimpleNFT.sol\":6416:6423  _owners */\n      0x03\n        /* \"submissions/Serena Y/Day21-SimpleNFT.sol\":6416:6432  _owners[tokenId] */\n      0x00\n        /* \"submissions/Serena Y/Day21-SimpleNFT.sol\":6424:6431  tokenId */\n      dup5\n        /* \"submissions/Serena Y/Day21-SimpleNFT.sol\":6416:6432  _owners[tokenId] */\n      dup2\n      mstore\n      0x20\n      add\n      swap1\n      dup2\n      mstore\n      0x20\n      add\n      0x00\n      keccak256\n      0x00\n      swap1\n      sload\n      swap1\n      0x0100\n      exp\n      swap1\n      div\n      0xffffffffffffffffffffffffffffffffffffffff\n      and\n        /* \"submissions/Serena Y/Day21-SimpleNFT.sol\":6416:6446  _owners[tokenId] != address(0) */\n      0xffffffffffffffffffffffffffffffffffffffff\n      and\n      sub\n        /* \"submissions/Serena Y/Day21-SimpleNFT.sol\":6408:6470  require(_owners[tokenId] != address(0), \"Token doesn't exist\") */\n      tag_131\n      jumpi\n      mload(0x40)\n      0x08c379a000000000000000000000000000000000000000000000000000000000\n      dup2\n      mstore\n      0x04\n      add\n      tag_132\n      swap1\n      tag_83\n      jump\t// in\n    tag_132:\n      mload(0x40)\n      dup1\n      swap2\n      sub\n      swap1\n      revert\n    tag_131:\n        /* \"submissions/Serena Y/Day21-SimpleNFT.sol\":6525:6535  _tokenURIs */\n      0x07\n        /* \"submissions/Serena Y/Day21-SimpleNFT.sol\":6525:6544  _tokenURIs[tokenId] */\n      0x00\n        /* \"submissions/Serena Y/Day21-SimpleNFT.sol\":6536:6543  tokenId */\n      dup4\n        /* \"submissions/Serena Y/Day21-SimpleNFT.sol\":6525:6544  _tokenURIs[tokenId] */\n      dup2\n      mstore\n      0x20\n      add\n      swap1\n      dup2\n      mstore\n      0x20\n      add\n      0x00\n      keccak256\n        /* \"submissions/Serena Y/Day21-SimpleNFT.sol\":6518:6544  return _tokenURIs[tokenId] */\n      dup1\n      sload\n      tag_133\n      swap1\n      tag_75\n      jump\t// in\n    tag_133:\n      dup1\n      0x1f\n      add\n      0x20\n      dup1\n      swap2\n      div\n      mul\n      0x20\n      add\n      mload(0x40)\n      swap1\n      dup2\n      add\n      0x40\n      mstore\n      dup1\n      swap3\n      swap2\n      swap1\n      dup2\n      dup2\n      mstore\n      0x20\n      add\n      dup3\n      dup1\n      sload\n      tag_134\n      swap1\n      tag_75\n      jump\t// in\n    tag_134:\n      dup1\n      iszero\n      tag_135\n      jumpi\n      dup1\n      0x1f\n      lt\n      tag_136\n      jumpi\n      0x0100\n      dup1\n      dup4\n      sload\n      div\n      mul\n      dup4\n      mstore\n      swap2\n      0x20\n      add\n      swap2\n      jump(tag_135)\n    tag_136:\n      dup3\n      add\n      swap2\n      swap1\n      0x00\n      mstore\n      keccak256(0x00, 0x20)\n      swap1\n    tag_137:\n      dup2\n      sload\n      dup2\n      mstore\n      swap1\n      0x01\n      add\n      swap1\n      0x20\n      add\n      dup1\n      dup4\n      gt\n      tag_137\n      jumpi\n      dup3\n      swap1\n      sub\n      0x1f\n      and\n      dup3\n      add\n      swap2\n    tag_135:\n      pop\n      pop\n      pop\n      pop\n      pop\n      swap1\n      pop\n        /* \"submissions/Serena Y/Day21-SimpleNFT.sol\":6256:6563  function tokenURI(uint256 tokenId) public view returns (string memory) {... */\n      swap2\n      swap1\n      pop\n      jump\t// out\n        /* \"submissions/Serena Y/Day21-SimpleNFT.sol\":5792:6248  function mint(address to, string memory uri) public {//一个叫做铸造的函数，需要地址和url... */\n    tag_67:\n        /* \"submissions/Serena Y/Day21-SimpleNFT.sol\":5905:5920  uint256 tokenId */\n      0x00\n        /* \"submissions/Serena Y/Day21-SimpleNFT.sol\":5923:5938  _tokenIdCounter */\n      sload(0x02)\n        /* \"submissions/Serena Y/Day21-SimpleNFT.sol\":5905:5938  uint256 tokenId = _tokenIdCounter */\n      swap1\n      pop\n        /* \"submissions/Serena Y/Day21-SimpleNFT.sol\":5964:5979  _tokenIdCounter */\n      0x02\n      0x00\n        /* \"submissions/Serena Y/Day21-SimpleNFT.sol\":5964:5981  _tokenIdCounter++ */\n      dup2\n      sload\n      dup1\n      swap3\n      swap2\n      swap1\n      tag_139\n      swap1\n      tag_140\n      jump\t// in\n    tag_139:\n      swap2\n      swap1\n      pop\n      sstore\n      pop\n        /* \"submissions/Serena Y/Day21-SimpleNFT.sol\":6046:6048  to */\n      dup3\n        /* \"submissions/Serena Y/Day21-SimpleNFT.sol\":6027:6034  _owners */\n      0x03\n        /* \"submissions/Serena Y/Day21-SimpleNFT.sol\":6027:6043  _owners[tokenId] */\n      0x00\n        /* \"submissions/Serena Y/Day21-SimpleNFT.sol\":6035:6042  tokenId */\n      dup4\n        /* \"submissions/Serena Y/Day21-SimpleNFT.sol\":6027:6043  _owners[tokenId] */\n      dup2\n      mstore\n      0x20\n      add\n      swap1\n      dup2\n      mstore\n      0x20\n      add\n      0x00\n      keccak256\n      0x00\n        /* \"submissions/Serena Y/Day21-SimpleNFT.sol\":6027:6048  _owners[tokenId] = to */\n      0x0100\n      exp\n      dup2\n      sload\n      dup2\n      0xffffffffffffffffffffffffffffffffffffffff\n      mul\n      not\n      and\n      swap1\n      dup4\n      0xffffffffffffffffffffffffffffffffffffffff\n      and\n      mul\n      or\n      swap1\n      sstore\n      pop\n        /* \"submissions/Serena Y/Day21-SimpleNFT.sol\":6098:6099  1 */\n      0x01\n        /* \"submissions/Serena Y/Day21-SimpleNFT.sol\":6081:6090  _balances */\n      0x04\n        /* \"submissions/Serena Y/Day21-SimpleNFT.sol\":6081:6094  _balances[to] */\n      0x00\n        /* \"submissions/Serena Y/Day21-SimpleNFT.sol\":6091:6093  to */\n      dup6\n        /* \"submissions/Serena Y/Day21-SimpleNFT.sol\":6081:6094  _balances[to] */\n      0xffffffffffffffffffffffffffffffffffffffff\n      and\n      0xffffffffffffffffffffffffffffffffffffffff\n      and\n      dup2\n      mstore\n      0x20\n      add\n      swap1\n      dup2\n      mstore\n      0x20\n      add\n      0x00\n      keccak256\n      0x00\n        /* \"submissions/Serena Y/Day21-SimpleNFT.sol\":6081:6099  _balances[to] += 1 */\n      dup3\n      dup3\n      sload\n      tag_141\n      swap2\n      swap1\n      tag_142\n      jump\t// in\n    tag_141:\n      swap3\n      pop\n      pop\n      dup2\n      swap1\n      sstore\n      pop\n        /* \"submissions/Serena Y/Day21-SimpleNFT.sol\":6152:6155  uri */\n      dup2\n        /* \"submissions/Serena Y/Day21-SimpleNFT.sol\":6130:6140  _tokenURIs */\n      0x07\n        /* \"submissions/Serena Y/Day21-SimpleNFT.sol\":6130:6149  _tokenURIs[tokenId] */\n      0x00\n        /* \"submissions/Serena Y/Day21-SimpleNFT.sol\":6141:6148  tokenId */\n      dup4\n        /* \"submissions/Serena Y/Day21-SimpleNFT.sol\":6130:6149  _tokenURIs[tokenId] */\n      dup2\n      mstore\n      0x20\n      add\n      swap1\n      dup2\n      mstore\n      0x20\n      add\n      0x00\n      keccak256\n        /* \"submissions/Serena Y/Day21-SimpleNFT.sol\":6130:6155  _tokenURIs[tokenId] = uri */\n      swap1\n      dup2\n      tag_143\n      swap2\n      swap1\n      tag_144\n      jump\t// in\n    tag_143:\n      pop\n        /* \"submissions/Serena Y/Day21-SimpleNFT.sol\":6218:6225  tokenId */\n      dup1\n        /* \"submissions/Serena Y/Day21-SimpleNFT.sol\":6214:6216  to */\n      dup4\n        /* \"submissions/Serena Y/Day21-SimpleNFT.sol\":6193:6226  Transfer(address(0), to, tokenId) */\n      0xffffffffffffffffffffffffffffffffffffffff\n      and\n        /* \"submissions/Serena Y/Day21-SimpleNFT.sol\":6210:6211  0 */\n      0x00\n        /* \"submissions/Serena Y/Day21-SimpleNFT.sol\":6193:6226  Transfer(address(0), to, tokenId) */\n      0xffffffffffffffffffffffffffffffffffffffff\n      and\n      0xddf252ad1be2c89b69c2b068fc378daa952ba7f163c4a11628f55a4df523b3ef\n      mload(0x40)\n      mload(0x40)\n      dup1\n      swap2\n      sub\n      swap1\n      log4\n        /* \"submissions/Serena Y/Day21-SimpleNFT.sol\":5844:6248  {//一个叫做铸造的函数，需要地址和url... */\n      pop\n        /* \"submissions/Serena Y/Day21-SimpleNFT.sol\":5792:6248  function mint(address to, string memory uri) public {//一个叫做铸造的函数，需要地址和url... */\n      pop\n      pop\n      jump\t// out\n        /* \"submissions/Serena Y/Day21-SimpleNFT.sol\":4486:4812  function isApprovedForAll(address owner, address operator) public view override returns (bool) {... */\n    tag_71:\n        /* \"submissions/Serena Y/Day21-SimpleNFT.sol\":4575:4579  bool */\n      0x00\n        /* \"submissions/Serena Y/Day21-SimpleNFT.sol\":4752:4770  _operatorApprovals */\n      0x06\n        /* \"submissions/Serena Y/Day21-SimpleNFT.sol\":4752:4777  _operatorApprovals[owner] */\n      0x00\n        /* \"submissions/Serena Y/Day21-SimpleNFT.sol\":4771:4776  owner */\n      dup5\n        /* \"submissions/Serena Y/Day21-SimpleNFT.sol\":4752:4777  _operatorApprovals[owner] */\n      0xffffffffffffffffffffffffffffffffffffffff\n      and\n      0xffffffffffffffffffffffffffffffffffffffff\n      and\n      dup2\n      mstore\n      0x20\n      add\n      swap1\n      dup2\n      mstore\n      0x20\n      add\n      0x00\n      keccak256\n        /* \"submissions/Serena Y/Day21-SimpleNFT.sol\":4752:4787  _operatorApprovals[owner][operator] */\n      0x00\n        /* \"submissions/Serena Y/Day21-SimpleNFT.sol\":4778:4786  operator */\n      dup4\n        /* \"submissions/Serena Y/Day21-SimpleNFT.sol\":4752:4787  _operatorApprovals[owner][operator] */\n      0xffffffffffffffffffffffffffffffffffffffff\n      and\n      0xffffffffffffffffffffffffffffffffffffffff\n      and\n      dup2\n      mstore\n      0x20\n      add\n      swap1\n      dup2\n      mstore\n      0x20\n      add\n      0x00\n      keccak256\n      0x00\n      swap1\n      sload\n      swap1\n      0x0100\n      exp\n      swap1\n      div\n      0xff\n      and\n        /* \"submissions/Serena Y/Day21-SimpleNFT.sol\":4745:4787  return _operatorApprovals[owner][operator] */\n      swap1\n      pop\n        /* \"submissions/Serena Y/Day21-SimpleNFT.sol\":4486:4812  function isApprovedForAll(address owner, address operator) public view override returns (bool) {... */\n      swap3\n      swap2\n      pop\n      pop\n      jump\t// out\n        /* \"submissions/Serena Y/Day21-SimpleNFT.sol\":7779:8177  function _isApprovedOrOwner(address spender, uint256 tokenId) internal view returns (bool) {... */\n    tag_96:\n        /* \"submissions/Serena Y/Day21-SimpleNFT.sol\":7864:7868  bool */\n      0x00\n        /* \"submissions/Serena Y/Day21-SimpleNFT.sol\":7881:7894  address owner */\n      0x00\n        /* \"submissions/Serena Y/Day21-SimpleNFT.sol\":7897:7913  ownerOf(tokenId) */\n      tag_147\n        /* \"submissions/Serena Y/Day21-SimpleNFT.sol\":7905:7912  tokenId */\n      dup4\n        /* \"submissions/Serena Y/Day21-SimpleNFT.sol\":7897:7904  ownerOf */\n      tag_41\n        /* \"submissions/Serena Y/Day21-SimpleNFT.sol\":7897:7913  ownerOf(tokenId) */\n      jump\t// in\n    tag_147:\n        /* \"submissions/Serena Y/Day21-SimpleNFT.sol\":7881:7913  address owner = ownerOf(tokenId) */\n      swap1\n      pop\n        /* \"submissions/Serena Y/Day21-SimpleNFT.sol\":7943:7948  owner */\n      dup1\n        /* \"submissions/Serena Y/Day21-SimpleNFT.sol\":7932:7948  spender == owner */\n      0xffffffffffffffffffffffffffffffffffffffff\n      and\n        /* \"submissions/Serena Y/Day21-SimpleNFT.sol\":7932:7939  spender */\n      dup5\n        /* \"submissions/Serena Y/Day21-SimpleNFT.sol\":7932:7948  spender == owner */\n      0xffffffffffffffffffffffffffffffffffffffff\n      and\n      eq\n        /* \"submissions/Serena Y/Day21-SimpleNFT.sol\":7932:7983  spender == owner || getApproved(tokenId) == spender */\n      dup1\n      tag_148\n      jumpi\n      pop\n        /* \"submissions/Serena Y/Day21-SimpleNFT.sol\":7976:7983  spender */\n      dup4\n        /* \"submissions/Serena Y/Day21-SimpleNFT.sol\":7952:7983  getApproved(tokenId) == spender */\n      0xffffffffffffffffffffffffffffffffffffffff\n      and\n        /* \"submissions/Serena Y/Day21-SimpleNFT.sol\":7952:7972  getApproved(tokenId) */\n      tag_149\n        /* \"submissions/Serena Y/Day21-SimpleNFT.sol\":7964:7971  tokenId */\n      dup5\n        /* \"submissions/Serena Y/Day21-SimpleNFT.sol\":7952:7963  getApproved */\n      tag_25\n        /* \"submissions/Serena Y/Day21-SimpleNFT.sol\":7952:7972  getApproved(tokenId) */\n      jump\t// in\n    tag_149:\n        /* \"submissions/Serena Y/Day21-SimpleNFT.sol\":7952:7983  getApproved(tokenId) == spender */\n      0xffffffffffffffffffffffffffffffffffffffff\n      and\n      eq\n        /* \"submissions/Serena Y/Day21-SimpleNFT.sol\":7932:7983  spender == owner || getApproved(tokenId) == spender */\n    tag_148:\n        /* \"submissions/Serena Y/Day21-SimpleNFT.sol\":7932:8019  spender == owner || getApproved(tokenId) == spender || isApprovedForAll(owner, spender) */\n      dup1\n      tag_150\n      jumpi\n      pop\n        /* \"submissions/Serena Y/Day21-SimpleNFT.sol\":7987:8019  isApprovedForAll(owner, spender) */\n      tag_151\n        /* \"submissions/Serena Y/Day21-SimpleNFT.sol\":8004:8009  owner */\n      dup2\n        /* \"submissions/Serena Y/Day21-SimpleNFT.sol\":8011:8018  spender */\n      dup6\n        /* \"submissions/Serena Y/Day21-SimpleNFT.sol\":7987:8003  isApprovedForAll */\n      tag_71\n        /* \"submissions/Serena Y/Day21-SimpleNFT.sol\":7987:8019  isApprovedForAll(owner, spender) */\n      jump\t// in\n    tag_151:\n        /* \"submissions/Serena Y/Day21-SimpleNFT.sol\":7932:8019  spender == owner || getApproved(tokenId) == spender || isApprovedForAll(owner, spender) */\n    tag_150:\n        /* \"submissions/Serena Y/Day21-SimpleNFT.sol\":7924:8020  return (spender == owner || getApproved(tokenId) == spender || isApprovedForAll(owner, spender)) */\n      swap2\n      pop\n      pop\n        /* \"submissions/Serena Y/Day21-SimpleNFT.sol\":7779:8177  function _isApprovedOrOwner(address spender, uint256 tokenId) internal view returns (bool) {... */\n      swap3\n      swap2\n      pop\n      pop\n      jump\t// out\n        /* \"submissions/Serena Y/Day21-SimpleNFT.sol\":6571:7327  function _transfer(address from, address to, uint256 tokenId) internal virtual {... */\n    tag_100:\n        /* \"submissions/Serena Y/Day21-SimpleNFT.sol\":6792:6796  from */\n      dup3\n        /* \"submissions/Serena Y/Day21-SimpleNFT.sol\":6772:6796  ownerOf(tokenId) == from */\n      0xffffffffffffffffffffffffffffffffffffffff\n      and\n        /* \"submissions/Serena Y/Day21-SimpleNFT.sol\":6772:6788  ownerOf(tokenId) */\n      tag_153\n        /* \"submissions/Serena Y/Day21-SimpleNFT.sol\":6780:6787  tokenId */\n      dup3\n        /* \"submissions/Serena Y/Day21-SimpleNFT.sol\":6772:6779  ownerOf */\n      tag_41\n        /* \"submissions/Serena Y/Day21-SimpleNFT.sol\":6772:6788  ownerOf(tokenId) */\n      jump\t// in\n    tag_153:\n        /* \"submissions/Serena Y/Day21-SimpleNFT.sol\":6772:6796  ownerOf(tokenId) == from */\n      0xffffffffffffffffffffffffffffffffffffffff\n      and\n      eq\n        /* \"submissions/Serena Y/Day21-SimpleNFT.sol\":6764:6810  require(ownerOf(tokenId) == from, \"Not owner\") */\n      tag_154\n      jumpi\n      mload(0x40)\n      0x08c379a000000000000000000000000000000000000000000000000000000000\n      dup2\n      mstore\n      0x04\n      add\n      tag_155\n      swap1\n      tag_156\n      jump\t// in\n    tag_155:\n      mload(0x40)\n      dup1\n      swap2\n      sub\n      swap1\n      revert\n    tag_154:\n        /* \"submissions/Serena Y/Day21-SimpleNFT.sol\":6901:6902  0 */\n      0x00\n        /* \"submissions/Serena Y/Day21-SimpleNFT.sol\":6887:6903  to != address(0) */\n      0xffffffffffffffffffffffffffffffffffffffff\n      and\n        /* \"submissions/Serena Y/Day21-SimpleNFT.sol\":6887:6889  to */\n      dup3\n        /* \"submissions/Serena Y/Day21-SimpleNFT.sol\":6887:6903  to != address(0) */\n      0xffffffffffffffffffffffffffffffffffffffff\n      and\n      sub\n        /* \"submissions/Serena Y/Day21-SimpleNFT.sol\":6879:6920  require(to != address(0), \"Zero address\") */\n      tag_157\n      jumpi\n      mload(0x40)\n      0x08c379a000000000000000000000000000000000000000000000000000000000\n      dup2\n      mstore\n      0x04\n      add\n      tag_158\n      swap1\n      tag_113\n      jump\t// in\n    tag_158:\n      mload(0x40)\n      dup1\n      swap2\n      sub\n      swap1\n      revert\n    tag_157:\n        /* \"submissions/Serena Y/Day21-SimpleNFT.sol\":7000:7001  1 */\n      0x01\n        /* \"submissions/Serena Y/Day21-SimpleNFT.sol\":6981:6990  _balances */\n      0x04\n        /* \"submissions/Serena Y/Day21-SimpleNFT.sol\":6981:6996  _balances[from] */\n      0x00\n        /* \"submissions/Serena Y/Day21-SimpleNFT.sol\":6991:6995  from */\n      dup6\n        /* \"submissions/Serena Y/Day21-SimpleNFT.sol\":6981:6996  _balances[from] */\n      0xffffffffffffffffffffffffffffffffffffffff\n      and\n      0xffffffffffffffffffffffffffffffffffffffff\n      and\n      dup2\n      mstore\n      0x20\n      add\n      swap1\n      dup2\n      mstore\n      0x20\n      add\n      0x00\n      keccak256\n      0x00\n        /* \"submissions/Serena Y/Day21-SimpleNFT.sol\":6981:7001  _balances[from] -= 1 */\n      dup3\n      dup3\n      sload\n      tag_159\n      swap2\n      swap1\n      tag_160\n      jump\t// in\n    tag_159:\n      swap3\n      pop\n      pop\n      dup2\n      swap1\n      sstore\n      pop\n        /* \"submissions/Serena Y/Day21-SimpleNFT.sol\":7051:7052  1 */\n      0x01\n        /* \"submissions/Serena Y/Day21-SimpleNFT.sol\":7034:7043  _balances */\n      0x04\n        /* \"submissions/Serena Y/Day21-SimpleNFT.sol\":7034:7047  _balances[to] */\n      0x00\n        /* \"submissions/Serena Y/Day21-SimpleNFT.sol\":7044:7046  to */\n      dup5\n        /* \"submissions/Serena Y/Day21-SimpleNFT.sol\":7034:7047  _balances[to] */\n      0xffffffffffffffffffffffffffffffffffffffff\n      and\n      0xffffffffffffffffffffffffffffffffffffffff\n      and\n      dup2\n      mstore\n      0x20\n      add\n      swap1\n      dup2\n      mstore\n      0x20\n      add\n      0x00\n      keccak256\n      0x00\n        /* \"submissions/Serena Y/Day21-SimpleNFT.sol\":7034:7052  _balances[to] += 1 */\n      dup3\n      dup3\n      sload\n      tag_161\n      swap2\n      swap1\n      tag_142\n      jump\t// in\n    tag_161:\n      swap3\n      pop\n      pop\n      dup2\n      swap1\n      sstore\n      pop\n        /* \"submissions/Serena Y/Day21-SimpleNFT.sol\":7101:7103  to */\n      dup2\n        /* \"submissions/Serena Y/Day21-SimpleNFT.sol\":7082:7089  _owners */\n      0x03\n        /* \"submissions/Serena Y/Day21-SimpleNFT.sol\":7082:7098  _owners[tokenId] */\n      0x00\n        /* \"submissions/Serena Y/Day21-SimpleNFT.sol\":7090:7097  tokenId */\n      dup4\n        /* \"submissions/Serena Y/Day21-SimpleNFT.sol\":7082:7098  _owners[tokenId] */\n      dup2\n      mstore\n      0x20\n      add\n      swap1\n      dup2\n      mstore\n      0x20\n      add\n      0x00\n      keccak256\n      0x00\n        /* \"submissions/Serena Y/Day21-SimpleNFT.sol\":7082:7103  _owners[tokenId] = to */\n      0x0100\n      exp\n      dup2\n      sload\n      dup2\n      0xffffffffffffffffffffffffffffffffffffffff\n      mul\n      not\n      and\n      swap1\n      dup4\n      0xffffffffffffffffffffffffffffffffffffffff\n      and\n      mul\n      or\n      swap1\n      sstore\n      pop\n        /* \"submissions/Serena Y/Day21-SimpleNFT.sol\":7146:7161  _tokenApprovals */\n      0x05\n        /* \"submissions/Serena Y/Day21-SimpleNFT.sol\":7146:7170  _tokenApprovals[tokenId] */\n      0x00\n        /* \"submissions/Serena Y/Day21-SimpleNFT.sol\":7162:7169  tokenId */\n      dup3\n        /* \"submissions/Serena Y/Day21-SimpleNFT.sol\":7146:7170  _tokenApprovals[tokenId] */\n      dup2\n      mstore\n      0x20\n      add\n      swap1\n      dup2\n      mstore\n      0x20\n      add\n      0x00\n      keccak256\n      0x00\n        /* \"submissions/Serena Y/Day21-SimpleNFT.sol\":7139:7170  delete _tokenApprovals[tokenId] */\n      0x0100\n      exp\n      dup2\n      sload\n      swap1\n      0xffffffffffffffffffffffffffffffffffffffff\n      mul\n      not\n      and\n      swap1\n      sstore\n        /* \"submissions/Serena Y/Day21-SimpleNFT.sol\":7282:7289  tokenId */\n      dup1\n        /* \"submissions/Serena Y/Day21-SimpleNFT.sol\":7278:7280  to */\n      dup3\n        /* \"submissions/Serena Y/Day21-SimpleNFT.sol\":7263:7290  Transfer(from, to, tokenId) */\n      0xffffffffffffffffffffffffffffffffffffffff\n      and\n        /* \"submissions/Serena Y/Day21-SimpleNFT.sol\":7272:7276  from */\n      dup5\n        /* \"submissions/Serena Y/Day21-SimpleNFT.sol\":7263:7290  Transfer(from, to, tokenId) */\n      0xffffffffffffffffffffffffffffffffffffffff\n      and\n      0xddf252ad1be2c89b69c2b068fc378daa952ba7f163c4a11628f55a4df523b3ef\n      mload(0x40)\n      mload(0x40)\n      dup1\n      swap2\n      sub\n      swap1\n      log4\n        /* \"submissions/Serena Y/Day21-SimpleNFT.sol\":6571:7327  function _transfer(address from, address to, uint256 tokenId) internal virtual {... */\n      pop\n      pop\n      pop\n      jump\t// out\n        /* \"submissions/Serena Y/Day21-SimpleNFT.sol\":7335:7771  function _safeTransfer(address from, address to, uint256 tokenId, bytes memory data) internal virtual {... */\n    tag_129:\n        /* \"submissions/Serena Y/Day21-SimpleNFT.sol\":7481:7509  _transfer(from, to, tokenId) */\n      tag_163\n        /* \"submissions/Serena Y/Day21-SimpleNFT.sol\":7491:7495  from */\n      dup5\n        /* \"submissions/Serena Y/Day21-SimpleNFT.sol\":7497:7499  to */\n      dup5\n        /* \"submissions/Serena Y/Day21-SimpleNFT.sol\":7501:7508  tokenId */\n      dup5\n        /* \"submissions/Serena Y/Day21-SimpleNFT.sol\":7481:7490  _transfer */\n      tag_100\n        /* \"submissions/Serena Y/Day21-SimpleNFT.sol\":7481:7509  _transfer(from, to, tokenId) */\n      jump\t// in\n    tag_163:\n        /* \"submissions/Serena Y/Day21-SimpleNFT.sol\":7550:7597  _checkOnERC721Received(from, to, tokenId, data) */\n      tag_164\n        /* \"submissions/Serena Y/Day21-SimpleNFT.sol\":7573:7577  from */\n      dup5\n        /* \"submissions/Serena Y/Day21-SimpleNFT.sol\":7579:7581  to */\n      dup5\n        /* \"submissions/Serena Y/Day21-SimpleNFT.sol\":7583:7590  tokenId */\n      dup5\n        /* \"submissions/Serena Y/Day21-SimpleNFT.sol\":7592:7596  data */\n      dup5\n        /* \"submissions/Serena Y/Day21-SimpleNFT.sol\":7550:7572  _checkOnERC721Received */\n      tag_165\n        /* \"submissions/Serena Y/Day21-SimpleNFT.sol\":7550:7597  _checkOnERC721Received(from, to, tokenId, data) */\n      jump\t// in\n    tag_164:\n        /* \"submissions/Serena Y/Day21-SimpleNFT.sol\":7542:7620  require(_checkOnERC721Received(from, to, tokenId, data), \"Not ERC721Receiver\") */\n      tag_166\n      jumpi\n      mload(0x40)\n      0x08c379a000000000000000000000000000000000000000000000000000000000\n      dup2\n      mstore\n      0x04\n      add\n      tag_167\n      swap1\n      tag_168\n      jump\t// in\n    tag_167:\n      mload(0x40)\n      dup1\n      swap2\n      sub\n      swap1\n      revert\n    tag_166:\n        /* \"submissions/Serena Y/Day21-SimpleNFT.sol\":7335:7771  function _safeTransfer(address from, address to, uint256 tokenId, bytes memory data) internal virtual {... */\n      pop\n      pop\n      pop\n      pop\n      jump\t// out\n        /* \"submissions/Serena Y/Day21-SimpleNFT.sol\":8227:8853  function _checkOnERC721Received(address from, address to, uint256 tokenId, bytes memory data) private returns (bool) {... */\n    tag_165:\n        /* \"submissions/Serena Y/Day21-SimpleNFT.sol\":8338:8342  bool */\n      0x00\n        /* \"submissions/Serena Y/Day21-SimpleNFT.sol\":8376:8377  0 */\n      0x00\n        /* \"submissions/Serena Y/Day21-SimpleNFT.sol\":8359:8361  to */\n      dup5\n        /* \"submissions/Serena Y/Day21-SimpleNFT.sol\":8359:8373  to.code.length */\n      0xffffffffffffffffffffffffffffffffffffffff\n      and\n      extcodesize\n        /* \"submissions/Serena Y/Day21-SimpleNFT.sol\":8359:8377  to.code.length > 0 */\n      gt\n        /* \"submissions/Serena Y/Day21-SimpleNFT.sol\":8355:8788  if (to.code.length > 0) {//如果to这个地址的代码大于0 说明它是合约... */\n      iszero\n      tag_170\n      jumpi\n        /* \"submissions/Serena Y/Day21-SimpleNFT.sol\":8471:8473  to */\n      dup4\n        /* \"submissions/Serena Y/Day21-SimpleNFT.sol\":8455:8491  IERC721Receiver(to).onERC721Received */\n      0xffffffffffffffffffffffffffffffffffffffff\n      and\n      0x150b7a02\n        /* \"submissions/Serena Y/Day21-SimpleNFT.sol\":8492:8502  msg.sender */\n      caller\n        /* \"submissions/Serena Y/Day21-SimpleNFT.sol\":8504:8508  from */\n      dup8\n        /* \"submissions/Serena Y/Day21-SimpleNFT.sol\":8510:8517  tokenId */\n      dup7\n        /* \"submissions/Serena Y/Day21-SimpleNFT.sol\":8519:8523  data */\n      dup7\n        /* \"submissions/Serena Y/Day21-SimpleNFT.sol\":8455:8524  IERC721Receiver(to).onERC721Received(msg.sender, from, tokenId, data) */\n      mload(0x40)\n      dup6\n      0xffffffff\n      and\n      0xe0\n      shl\n      dup2\n      mstore\n      0x04\n      add\n      tag_171\n      swap5\n      swap4\n      swap3\n      swap2\n      swap1\n      tag_172\n      jump\t// in\n    tag_171:\n      0x20\n      mload(0x40)\n      dup1\n      dup4\n      sub\n      dup2\n      0x00\n      dup8\n      gas\n      call\n      swap3\n      pop\n      pop\n      pop\n      dup1\n      iszero\n      tag_173\n      jumpi\n      pop\n      mload(0x40)\n      returndatasize\n      not(0x1f)\n      0x1f\n      dup3\n      add\n      and\n      dup3\n      add\n      dup1\n      0x40\n      mstore\n      pop\n      dup2\n      add\n      swap1\n      tag_174\n      swap2\n      swap1\n      tag_175\n      jump\t// in\n    tag_174:\n      0x01\n    tag_173:\n        /* \"submissions/Serena Y/Day21-SimpleNFT.sol\":8451:8777  try IERC721Receiver(to).onERC721Received(msg.sender, from, tokenId, data) returns (bytes4 retval) {... */\n      tag_176\n      jumpi\n        /* \"submissions/Serena Y/Day21-SimpleNFT.sol\":8756:8761  false */\n      0x00\n        /* \"submissions/Serena Y/Day21-SimpleNFT.sol\":8749:8761  return false */\n      swap1\n      pop\n      jump(tag_169)\n        /* \"submissions/Serena Y/Day21-SimpleNFT.sol\":8451:8777  try IERC721Receiver(to).onERC721Received(msg.sender, from, tokenId, data) returns (bytes4 retval) {... */\n    tag_176:\n        /* \"submissions/Serena Y/Day21-SimpleNFT.sol\":8666:8707  IERC721Receiver.onERC721Received.selector */\n      shl(0xe0, 0x150b7a02)\n        /* \"submissions/Serena Y/Day21-SimpleNFT.sol\":8656:8707  retval == IERC721Receiver.onERC721Received.selector */\n      not(0xffffffffffffffffffffffffffffffffffffffffffffffffffffffff)\n      and\n        /* \"submissions/Serena Y/Day21-SimpleNFT.sol\":8656:8662  retval */\n      dup2\n        /* \"submissions/Serena Y/Day21-SimpleNFT.sol\":8656:8707  retval == IERC721Receiver.onERC721Received.selector */\n      not(0xffffffffffffffffffffffffffffffffffffffffffffffffffffffff)\n      and\n      eq\n        /* \"submissions/Serena Y/Day21-SimpleNFT.sol\":8649:8707  return retval == IERC721Receiver.onERC721Received.selector */\n      swap2\n      pop\n      pop\n      jump(tag_169)\n        /* \"submissions/Serena Y/Day21-SimpleNFT.sol\":8355:8788  if (to.code.length > 0) {//如果to这个地址的代码大于0 说明它是合约... */\n    tag_170:\n        /* \"submissions/Serena Y/Day21-SimpleNFT.sol\":8805:8809  true */\n      0x01\n        /* \"submissions/Serena Y/Day21-SimpleNFT.sol\":8798:8809  return true */\n      swap1\n      pop\n        /* \"submissions/Serena Y/Day21-SimpleNFT.sol\":8227:8853  function _checkOnERC721Received(address from, address to, uint256 tokenId, bytes memory data) private returns (bool) {... */\n    tag_169:\n      swap5\n      swap4\n      pop\n      pop\n      pop\n      pop\n      jump\t// out\n        /* \"#utility.yul\":7:106   */\n    tag_181:\n        /* \"#utility.yul\":59:65   */\n      0x00\n        /* \"#utility.yul\":93:98   */\n      dup2\n        /* \"#utility.yul\":87:99   */\n      mload\n        /* \"#utility.yul\":77:99   */\n      swap1\n      pop\n        /* \"#utility.yul\":7:106   */\n      swap2\n      swap1\n      pop\n      jump\t// out\n        /* \"#utility.yul\":112:281   */\n    tag_182:\n        /* \"#utility.yul\":196:207   */\n      0x00\n        /* \"#utility.yul\":230:236   */\n      dup3\n        /* \"#utility.yul\":225:228   */\n      dup3\n        /* \"#utility.yul\":218:237   */\n      mstore\n        /* \"#utility.yul\":270:274   */\n      0x20\n        /* \"#utility.yul\":265:268   */\n      dup3\n        /* \"#utility.yul\":261:275   */\n      add\n        /* \"#utility.yul\":246:275   */\n      swap1\n      pop\n        /* \"#utility.yul\":112:281   */\n      swap3\n      swap2\n      pop\n      pop\n      jump\t// out\n        /* \"#utility.yul\":287:426   */\n    tag_183:\n        /* \"#utility.yul\":376:382   */\n      dup3\n        /* \"#utility.yul\":371:374   */\n      dup2\n        /* \"#utility.yul\":366:369   */\n      dup4\n        /* \"#utility.yul\":360:383   */\n      mcopy\n        /* \"#utility.yul\":417:418   */\n      0x00\n        /* \"#utility.yul\":408:414   */\n      dup4\n        /* \"#utility.yul\":403:406   */\n      dup4\n        /* \"#utility.yul\":399:415   */\n      add\n        /* \"#utility.yul\":392:419   */\n      mstore\n        /* \"#utility.yul\":287:426   */\n      pop\n      pop\n      pop\n      jump\t// out\n        /* \"#utility.yul\":432:534   */\n    tag_184:\n        /* \"#utility.yul\":473:479   */\n      0x00\n        /* \"#utility.yul\":524:526   */\n      0x1f\n        /* \"#utility.yul\":520:527   */\n      not\n        /* \"#utility.yul\":515:517   */\n      0x1f\n        /* \"#utility.yul\":508:513   */\n      dup4\n        /* \"#utility.yul\":504:518   */\n      add\n        /* \"#utility.yul\":500:528   */\n      and\n        /* \"#utility.yul\":490:528   */\n      swap1\n      pop\n        /* \"#utility.yul\":432:534   */\n      swap2\n      swap1\n      pop\n      jump\t// out\n        /* \"#utility.yul\":540:917   */\n    tag_185:\n        /* \"#utility.yul\":628:631   */\n      0x00\n        /* \"#utility.yul\":656:695   */\n      tag_259\n        /* \"#utility.yul\":689:694   */\n      dup3\n        /* \"#utility.yul\":656:695   */\n      tag_181\n      jump\t// in\n    tag_259:\n        /* \"#utility.yul\":711:782   */\n      tag_260\n        /* \"#utility.yul\":775:781   */\n      dup2\n        /* \"#utility.yul\":770:773   */\n      dup6\n        /* \"#utility.yul\":711:782   */\n      tag_182\n      jump\t// in\n    tag_260:\n        /* \"#utility.yul\":704:782   */\n      swap4\n      pop\n        /* \"#utility.yul\":791:856   */\n      tag_261\n        /* \"#utility.yul\":849:855   */\n      dup2\n        /* \"#utility.yul\":844:847   */\n      dup6\n        /* \"#utility.yul\":837:841   */\n      0x20\n        /* \"#utility.yul\":830:835   */\n      dup7\n        /* \"#utility.yul\":826:842   */\n      add\n        /* \"#utility.yul\":791:856   */\n      tag_183\n      jump\t// in\n    tag_261:\n        /* \"#utility.yul\":881:910   */\n      tag_262\n        /* \"#utility.yul\":903:909   */\n      dup2\n        /* \"#utility.yul\":881:910   */\n      tag_184\n      jump\t// in\n    tag_262:\n        /* \"#utility.yul\":876:879   */\n      dup5\n        /* \"#utility.yul\":872:911   */\n      add\n        /* \"#utility.yul\":865:911   */\n      swap2\n      pop\n        /* \"#utility.yul\":632:917   */\n      pop\n        /* \"#utility.yul\":540:917   */\n      swap3\n      swap2\n      pop\n      pop\n      jump\t// out\n        /* \"#utility.yul\":923:1236   */\n    tag_21:\n        /* \"#utility.yul\":1036:1040   */\n      0x00\n        /* \"#utility.yul\":1074:1076   */\n      0x20\n        /* \"#utility.yul\":1063:1072   */\n      dup3\n        /* \"#utility.yul\":1059:1077   */\n      add\n        /* \"#utility.yul\":1051:1077   */\n      swap1\n      pop\n        /* \"#utility.yul\":1123:1132   */\n      dup2\n        /* \"#utility.yul\":1117:1121   */\n      dup2\n        /* \"#utility.yul\":1113:1133   */\n      sub\n        /* \"#utility.yul\":1109:1110   */\n      0x00\n        /* \"#utility.yul\":1098:1107   */\n      dup4\n        /* \"#utility.yul\":1094:1111   */\n      add\n        /* \"#utility.yul\":1087:1134   */\n      mstore\n        /* \"#utility.yul\":1151:1229   */\n      tag_264\n        /* \"#utility.yul\":1224:1228   */\n      dup2\n        /* \"#utility.yul\":1215:1221   */\n      dup5\n        /* \"#utility.yul\":1151:1229   */\n      tag_185\n      jump\t// in\n    tag_264:\n        /* \"#utility.yul\":1143:1229   */\n      swap1\n      pop\n        /* \"#utility.yul\":923:1236   */\n      swap3\n      swap2\n      pop\n      pop\n      jump\t// out\n        /* \"#utility.yul\":1242:1317   */\n    tag_186:\n        /* \"#utility.yul\":1275:1281   */\n      0x00\n        /* \"#utility.yul\":1308:1310   */\n      0x40\n        /* \"#utility.yul\":1302:1311   */\n      mload\n        /* \"#utility.yul\":1292:1311   */\n      swap1\n      pop\n        /* \"#utility.yul\":1242:1317   */\n      swap1\n      jump\t// out\n        /* \"#utility.yul\":1323:1440   */\n    tag_187:\n        /* \"#utility.yul\":1432:1433   */\n      0x00\n        /* \"#utility.yul\":1429:1430   */\n      0x00\n        /* \"#utility.yul\":1422:1434   */\n      revert\n        /* \"#utility.yul\":1446:1563   */\n    tag_188:\n        /* \"#utility.yul\":1555:1556   */\n      0x00\n        /* \"#utility.yul\":1552:1553   */\n      0x00\n        /* \"#utility.yul\":1545:1557   */\n      revert\n        /* \"#utility.yul\":1569:1646   */\n    tag_189:\n        /* \"#utility.yul\":1606:1613   */\n      0x00\n        /* \"#utility.yul\":1635:1640   */\n      dup2\n        /* \"#utility.yul\":1624:1640   */\n      swap1\n      pop\n        /* \"#utility.yul\":1569:1646   */\n      swap2\n      swap1\n      pop\n      jump\t// out\n        /* \"#utility.yul\":1652:1774   */\n    tag_190:\n        /* \"#utility.yul\":1725:1749   */\n      tag_270\n        /* \"#utility.yul\":1743:1748   */\n      dup2\n        /* \"#utility.yul\":1725:1749   */\n      tag_189\n      jump\t// in\n    tag_270:\n        /* \"#utility.yul\":1718:1723   */\n      dup2\n        /* \"#utility.yul\":1715:1750   */\n      eq\n        /* \"#utility.yul\":1705:1768   */\n      tag_271\n      jumpi\n        /* \"#utility.yul\":1764:1765   */\n      0x00\n        /* \"#utility.yul\":1761:1762   */\n      0x00\n        /* \"#utility.yul\":1754:1766   */\n      revert\n        /* \"#utility.yul\":1705:1768   */\n    tag_271:\n        /* \"#utility.yul\":1652:1774   */\n      pop\n      jump\t// out\n        /* \"#utility.yul\":1780:1919   */\n    tag_191:\n        /* \"#utility.yul\":1826:1831   */\n      0x00\n        /* \"#utility.yul\":1864:1870   */\n      dup2\n        /* \"#utility.yul\":1851:1871   */\n      calldataload\n        /* \"#utility.yul\":1842:1871   */\n      swap1\n      pop\n        /* \"#utility.yul\":1880:1913   */\n      tag_273\n        /* \"#utility.yul\":1907:1912   */\n      dup2\n        /* \"#utility.yul\":1880:1913   */\n      tag_190\n      jump\t// in\n    tag_273:\n        /* \"#utility.yul\":1780:1919   */\n      swap3\n      swap2\n      pop\n      pop\n      jump\t// out\n        /* \"#utility.yul\":1925:2254   */\n    tag_24:\n        /* \"#utility.yul\":1984:1990   */\n      0x00\n        /* \"#utility.yul\":2033:2035   */\n      0x20\n        /* \"#utility.yul\":2021:2030   */\n      dup3\n        /* \"#utility.yul\":2012:2019   */\n      dup5\n        /* \"#utility.yul\":2008:2031   */\n      sub\n        /* \"#utility.yul\":2004:2036   */\n      slt\n        /* \"#utility.yul\":2001:2120   */\n      iszero\n      tag_275\n      jumpi\n        /* \"#utility.yul\":2039:2118   */\n      tag_276\n      tag_187\n      jump\t// in\n    tag_276:\n        /* \"#utility.yul\":2001:2120   */\n    tag_275:\n        /* \"#utility.yul\":2159:2160   */\n      0x00\n        /* \"#utility.yul\":2184:2237   */\n      tag_277\n        /* \"#utility.yul\":2229:2236   */\n      dup5\n        /* \"#utility.yul\":2220:2226   */\n      dup3\n        /* \"#utility.yul\":2209:2218   */\n      dup6\n        /* \"#utility.yul\":2205:2227   */\n      add\n        /* \"#utility.yul\":2184:2237   */\n      tag_191\n      jump\t// in\n    tag_277:\n        /* \"#utility.yul\":2174:2237   */\n      swap2\n      pop\n        /* \"#utility.yul\":2130:2247   */\n      pop\n        /* \"#utility.yul\":1925:2254   */\n      swap3\n      swap2\n      pop\n      pop\n      jump\t// out\n        /* \"#utility.yul\":2260:2386   */\n    tag_192:\n        /* \"#utility.yul\":2297:2304   */\n      0x00\n        /* \"#utility.yul\":2337:2379   */\n      0xffffffffffffffffffffffffffffffffffffffff\n        /* \"#utility.yul\":2330:2335   */\n      dup3\n        /* \"#utility.yul\":2326:2380   */\n      and\n        /* \"#utility.yul\":2315:2380   */\n      swap1\n      pop\n        /* \"#utility.yul\":2260:2386   */\n      swap2\n      swap1\n      pop\n      jump\t// out\n        /* \"#utility.yul\":2392:2488   */\n    tag_193:\n        /* \"#utility.yul\":2429:2436   */\n      0x00\n        /* \"#utility.yul\":2458:2482   */\n      tag_280\n        /* \"#utility.yul\":2476:2481   */\n      dup3\n        /* \"#utility.yul\":2458:2482   */\n      tag_192\n      jump\t// in\n    tag_280:\n        /* \"#utility.yul\":2447:2482   */\n      swap1\n      pop\n        /* \"#utility.yul\":2392:2488   */\n      swap2\n      swap1\n      pop\n      jump\t// out\n        /* \"#utility.yul\":2494:2612   */\n    tag_194:\n        /* \"#utility.yul\":2581:2605   */\n      tag_282\n        /* \"#utility.yul\":2599:2604   */\n      dup2\n        /* \"#utility.yul\":2581:2605   */\n      tag_193\n      jump\t// in\n    tag_282:\n        /* \"#utility.yul\":2576:2579   */\n      dup3\n        /* \"#utility.yul\":2569:2606   */\n      mstore\n        /* \"#utility.yul\":2494:2612   */\n      pop\n      pop\n      jump\t// out\n        /* \"#utility.yul\":2618:2840   */\n    tag_27:\n        /* \"#utility.yul\":2711:2715   */\n      0x00\n        /* \"#utility.yul\":2749:2751   */\n      0x20\n        /* \"#utility.yul\":2738:2747   */\n      dup3\n        /* \"#utility.yul\":2734:2752   */\n      add\n        /* \"#utility.yul\":2726:2752   */\n      swap1\n      pop\n        /* \"#utility.yul\":2762:2833   */\n      tag_284\n        /* \"#utility.yul\":2830:2831   */\n      0x00\n        /* \"#utility.yul\":2819:2828   */\n      dup4\n        /* \"#utility.yul\":2815:2832   */\n      add\n        /* \"#utility.yul\":2806:2812   */\n      dup5\n        /* \"#utility.yul\":2762:2833   */\n      tag_194\n      jump\t// in\n    tag_284:\n        /* \"#utility.yul\":2618:2840   */\n      swap3\n      swap2\n      pop\n      pop\n      jump\t// out\n        /* \"#utility.yul\":2846:2968   */\n    tag_195:\n        /* \"#utility.yul\":2919:2943   */\n      tag_286\n        /* \"#utility.yul\":2937:2942   */\n      dup2\n        /* \"#utility.yul\":2919:2943   */\n      tag_193\n      jump\t// in\n    tag_286:\n        /* \"#utility.yul\":2912:2917   */\n      dup2\n        /* \"#utility.yul\":2909:2944   */\n      eq\n        /* \"#utility.yul\":2899:2962   */\n      tag_287\n      jumpi\n        /* \"#utility.yul\":2958:2959   */\n      0x00\n        /* \"#utility.yul\":2955:2956   */\n      0x00\n        /* \"#utility.yul\":2948:2960   */\n      revert\n        /* \"#utility.yul\":2899:2962   */\n    tag_287:\n        /* \"#utility.yul\":2846:2968   */\n      pop\n      jump\t// out\n        /* \"#utility.yul\":2974:3113   */\n    tag_196:\n        /* \"#utility.yul\":3020:3025   */\n      0x00\n        /* \"#utility.yul\":3058:3064   */\n      dup2\n        /* \"#utility.yul\":3045:3065   */\n      calldataload\n        /* \"#utility.yul\":3036:3065   */\n      swap1\n      pop\n        /* \"#utility.yul\":3074:3107   */\n      tag_289\n        /* \"#utility.yul\":3101:3106   */\n      dup2\n        /* \"#utility.yul\":3074:3107   */\n      tag_195\n      jump\t// in\n    tag_289:\n        /* \"#utility.yul\":2974:3113   */\n      swap3\n      swap2\n      pop\n      pop\n      jump\t// out\n        /* \"#utility.yul\":3119:3593   */\n    tag_30:\n        /* \"#utility.yul\":3187:3193   */\n      0x00\n        /* \"#utility.yul\":3195:3201   */\n      0x00\n        /* \"#utility.yul\":3244:3246   */\n      0x40\n        /* \"#utility.yul\":3232:3241   */\n      dup4\n        /* \"#utility.yul\":3223:3230   */\n      dup6\n        /* \"#utility.yul\":3219:3242   */\n      sub\n        /* \"#utility.yul\":3215:3247   */\n      slt\n        /* \"#utility.yul\":3212:3331   */\n      iszero\n      tag_291\n      jumpi\n        /* \"#utility.yul\":3250:3329   */\n      tag_292\n      tag_187\n      jump\t// in\n    tag_292:\n        /* \"#utility.yul\":3212:3331   */\n    tag_291:\n        /* \"#utility.yul\":3370:3371   */\n      0x00\n        /* \"#utility.yul\":3395:3448   */\n      tag_293\n        /* \"#utility.yul\":3440:3447   */\n      dup6\n        /* \"#utility.yul\":3431:3437   */\n      dup3\n        /* \"#utility.yul\":3420:3429   */\n      dup7\n        /* \"#utility.yul\":3416:3438   */\n      add\n        /* \"#utility.yul\":3395:3448   */\n      tag_196\n      jump\t// in\n    tag_293:\n        /* \"#utility.yul\":3385:3448   */\n      swap3\n      pop\n        /* \"#utility.yul\":3341:3458   */\n      pop\n        /* \"#utility.yul\":3497:3499   */\n      0x20\n        /* \"#utility.yul\":3523:3576   */\n      tag_294\n        /* \"#utility.yul\":3568:3575   */\n      dup6\n        /* \"#utility.yul\":3559:3565   */\n      dup3\n        /* \"#utility.yul\":3548:3557   */\n      dup7\n        /* \"#utility.yul\":3544:3566   */\n      add\n        /* \"#utility.yul\":3523:3576   */\n      tag_191\n      jump\t// in\n    tag_294:\n        /* \"#utility.yul\":3513:3576   */\n      swap2\n      pop\n        /* \"#utility.yul\":3468:3586   */\n      pop\n        /* \"#utility.yul\":3119:3593   */\n      swap3\n      pop\n      swap3\n      swap1\n      pop\n      jump\t// out\n        /* \"#utility.yul\":3599:4218   */\n    tag_34:\n        /* \"#utility.yul\":3676:3682   */\n      0x00\n        /* \"#utility.yul\":3684:3690   */\n      0x00\n        /* \"#utility.yul\":3692:3698   */\n      0x00\n        /* \"#utility.yul\":3741:3743   */\n      0x60\n        /* \"#utility.yul\":3729:3738   */\n      dup5\n        /* \"#utility.yul\":3720:3727   */\n      dup7\n        /* \"#utility.yul\":3716:3739   */\n      sub\n        /* \"#utility.yul\":3712:3744   */\n      slt\n        /* \"#utility.yul\":3709:3828   */\n      iszero\n      tag_296\n      jumpi\n        /* \"#utility.yul\":3747:3826   */\n      tag_297\n      tag_187\n      jump\t// in\n    tag_297:\n        /* \"#utility.yul\":3709:3828   */\n    tag_296:\n        /* \"#utility.yul\":3867:3868   */\n      0x00\n        /* \"#utility.yul\":3892:3945   */\n      tag_298\n        /* \"#utility.yul\":3937:3944   */\n      dup7\n        /* \"#utility.yul\":3928:3934   */\n      dup3\n        /* \"#utility.yul\":3917:3926   */\n      dup8\n        /* \"#utility.yul\":3913:3935   */\n      add\n        /* \"#utility.yul\":3892:3945   */\n      tag_196\n      jump\t// in\n    tag_298:\n        /* \"#utility.yul\":3882:3945   */\n      swap4\n      pop\n        /* \"#utility.yul\":3838:3955   */\n      pop\n        /* \"#utility.yul\":3994:3996   */\n      0x20\n        /* \"#utility.yul\":4020:4073   */\n      tag_299\n        /* \"#utility.yul\":4065:4072   */\n      dup7\n        /* \"#utility.yul\":4056:4062   */\n      dup3\n        /* \"#utility.yul\":4045:4054   */\n      dup8\n        /* \"#utility.yul\":4041:4063   */\n      add\n        /* \"#utility.yul\":4020:4073   */\n      tag_196\n      jump\t// in\n    tag_299:\n        /* \"#utility.yul\":4010:4073   */\n      swap3\n      pop\n        /* \"#utility.yul\":3965:4083   */\n      pop\n        /* \"#utility.yul\":4122:4124   */\n      0x40\n        /* \"#utility.yul\":4148:4201   */\n      tag_300\n        /* \"#utility.yul\":4193:4200   */\n      dup7\n        /* \"#utility.yul\":4184:4190   */\n      dup3\n        /* \"#utility.yul\":4173:4182   */\n      dup8\n        /* \"#utility.yul\":4169:4191   */\n      add\n        /* \"#utility.yul\":4148:4201   */\n      tag_191\n      jump\t// in\n    tag_300:\n        /* \"#utility.yul\":4138:4201   */\n      swap2\n      pop\n        /* \"#utility.yul\":4093:4211   */\n      pop\n        /* \"#utility.yul\":3599:4218   */\n      swap3\n      pop\n      swap3\n      pop\n      swap3\n      jump\t// out\n        /* \"#utility.yul\":4224:4553   */\n    tag_45:\n        /* \"#utility.yul\":4283:4289   */\n      0x00\n        /* \"#utility.yul\":4332:4334   */\n      0x20\n        /* \"#utility.yul\":4320:4329   */\n      dup3\n        /* \"#utility.yul\":4311:4318   */\n      dup5\n        /* \"#utility.yul\":4307:4330   */\n      sub\n        /* \"#utility.yul\":4303:4335   */\n      slt\n        /* \"#utility.yul\":4300:4419   */\n      iszero\n      tag_302\n      jumpi\n        /* \"#utility.yul\":4338:4417   */\n      tag_303\n      tag_187\n      jump\t// in\n    tag_303:\n        /* \"#utility.yul\":4300:4419   */\n    tag_302:\n        /* \"#utility.yul\":4458:4459   */\n      0x00\n        /* \"#utility.yul\":4483:4536   */\n      tag_304\n        /* \"#utility.yul\":4528:4535   */\n      dup5\n        /* \"#utility.yul\":4519:4525   */\n      dup3\n        /* \"#utility.yul\":4508:4517   */\n      dup6\n        /* \"#utility.yul\":4504:4526   */\n      add\n        /* \"#utility.yul\":4483:4536   */\n      tag_196\n      jump\t// in\n    tag_304:\n        /* \"#utility.yul\":4473:4536   */\n      swap2\n      pop\n        /* \"#utility.yul\":4429:4546   */\n      pop\n        /* \"#utility.yul\":4224:4553   */\n      swap3\n      swap2\n      pop\n      pop\n      jump\t// out\n        /* \"#utility.yul\":4559:4677   */\n    tag_197:\n        /* \"#utility.yul\":4646:4670   */\n      tag_306\n        /* \"#utility.yul\":4664:4669   */\n      dup2\n        /* \"#utility.yul\":4646:4670   */\n      tag_189\n      jump\t// in\n    tag_306:\n        /* \"#utility.yul\":4641:4644   */\n      dup3\n        /* \"#utility.yul\":4634:4671   */\n      mstore\n        /* \"#utility.yul\":4559:4677   */\n      pop\n      pop\n      jump\t// out\n        /* \"#utility.yul\":4683:4905   */\n    tag_48:\n        /* \"#utility.yul\":4776:4780   */\n      0x00\n        /* \"#utility.yul\":4814:4816   */\n      0x20\n        /* \"#utility.yul\":4803:4812   */\n      dup3\n        /* \"#utility.yul\":4799:4817   */\n      add\n        /* \"#utility.yul\":4791:4817   */\n      swap1\n      pop\n        /* \"#utility.yul\":4827:4898   */\n      tag_308\n        /* \"#utility.yul\":4895:4896   */\n      0x00\n        /* \"#utility.yul\":4884:4893   */\n      dup4\n        /* \"#utility.yul\":4880:4897   */\n      add\n        /* \"#utility.yul\":4871:4877   */\n      dup5\n        /* \"#utility.yul\":4827:4898   */\n      tag_197\n      jump\t// in\n    tag_308:\n        /* \"#utility.yul\":4683:4905   */\n      swap3\n      swap2\n      pop\n      pop\n      jump\t// out\n        /* \"#utility.yul\":4911:5001   */\n    tag_198:\n        /* \"#utility.yul\":4945:4952   */\n      0x00\n        /* \"#utility.yul\":4988:4993   */\n      dup2\n        /* \"#utility.yul\":4981:4994   */\n      iszero\n        /* \"#utility.yul\":4974:4995   */\n      iszero\n        /* \"#utility.yul\":4963:4995   */\n      swap1\n      pop\n        /* \"#utility.yul\":4911:5001   */\n      swap2\n      swap1\n      pop\n      jump\t// out\n        /* \"#utility.yul\":5007:5123   */\n    tag_199:\n        /* \"#utility.yul\":5077:5098   */\n      tag_311\n        /* \"#utility.yul\":5092:5097   */\n      dup2\n        /* \"#utility.yul\":5077:5098   */\n      tag_198\n      jump\t// in\n    tag_311:\n        /* \"#utility.yul\":5070:5075   */\n      dup2\n        /* \"#utility.yul\":5067:5099   */\n      eq\n        /* \"#utility.yul\":5057:5117   */\n      tag_312\n      jumpi\n        /* \"#utility.yul\":5113:5114   */\n      0x00\n        /* \"#utility.yul\":5110:5111   */\n      0x00\n        /* \"#utility.yul\":5103:5115   */\n      revert\n        /* \"#utility.yul\":5057:5117   */\n    tag_312:\n        /* \"#utility.yul\":5007:5123   */\n      pop\n      jump\t// out\n        /* \"#utility.yul\":5129:5262   */\n    tag_200:\n        /* \"#utility.yul\":5172:5177   */\n      0x00\n        /* \"#utility.yul\":5210:5216   */\n      dup2\n        /* \"#utility.yul\":5197:5217   */\n      calldataload\n        /* \"#utility.yul\":5188:5217   */\n      swap1\n      pop\n        /* \"#utility.yul\":5226:5256   */\n      tag_314\n        /* \"#utility.yul\":5250:5255   */\n      dup2\n        /* \"#utility.yul\":5226:5256   */\n      tag_199\n      jump\t// in\n    tag_314:\n        /* \"#utility.yul\":5129:5262   */\n      swap3\n      swap2\n      pop\n      pop\n      jump\t// out\n        /* \"#utility.yul\":5268:5736   */\n    tag_54:\n        /* \"#utility.yul\":5333:5339   */\n      0x00\n        /* \"#utility.yul\":5341:5347   */\n      0x00\n        /* \"#utility.yul\":5390:5392   */\n      0x40\n        /* \"#utility.yul\":5378:5387   */\n      dup4\n        /* \"#utility.yul\":5369:5376   */\n      dup6\n        /* \"#utility.yul\":5365:5388   */\n      sub\n        /* \"#utility.yul\":5361:5393   */\n      slt\n        /* \"#utility.yul\":5358:5477   */\n      iszero\n      tag_316\n      jumpi\n        /* \"#utility.yul\":5396:5475   */\n      tag_317\n      tag_187\n      jump\t// in\n    tag_317:\n        /* \"#utility.yul\":5358:5477   */\n    tag_316:\n        /* \"#utility.yul\":5516:5517   */\n      0x00\n        /* \"#utility.yul\":5541:5594   */\n      tag_318\n        /* \"#utility.yul\":5586:5593   */\n      dup6\n        /* \"#utility.yul\":5577:5583   */\n      dup3\n        /* \"#utility.yul\":5566:5575   */\n      dup7\n        /* \"#utility.yul\":5562:5584   */\n      add\n        /* \"#utility.yul\":5541:5594   */\n      tag_196\n      jump\t// in\n    tag_318:\n        /* \"#utility.yul\":5531:5594   */\n      swap3\n      pop\n        /* \"#utility.yul\":5487:5604   */\n      pop\n        /* \"#utility.yul\":5643:5645   */\n      0x20\n        /* \"#utility.yul\":5669:5719   */\n      tag_319\n        /* \"#utility.yul\":5711:5718   */\n      dup6\n        /* \"#utility.yul\":5702:5708   */\n      dup3\n        /* \"#utility.yul\":5691:5700   */\n      dup7\n        /* \"#utility.yul\":5687:5709   */\n      add\n        /* \"#utility.yul\":5669:5719   */\n      tag_200\n      jump\t// in\n    tag_319:\n        /* \"#utility.yul\":5659:5719   */\n      swap2\n      pop\n        /* \"#utility.yul\":5614:5729   */\n      pop\n        /* \"#utility.yul\":5268:5736   */\n      swap3\n      pop\n      swap3\n      swap1\n      pop\n      jump\t// out\n        /* \"#utility.yul\":5742:5859   */\n    tag_201:\n        /* \"#utility.yul\":5851:5852   */\n      0x00\n        /* \"#utility.yul\":5848:5849   */\n      0x00\n        /* \"#utility.yul\":5841:5853   */\n      revert\n        /* \"#utility.yul\":5865:5982   */\n    tag_202:\n        /* \"#utility.yul\":5974:5975   */\n      0x00\n        /* \"#utility.yul\":5971:5972   */\n      0x00\n        /* \"#utility.yul\":5964:5976   */\n      revert\n        /* \"#utility.yul\":5988:6105   */\n    tag_203:\n        /* \"#utility.yul\":6097:6098   */\n      0x00\n        /* \"#utility.yul\":6094:6095   */\n      0x00\n        /* \"#utility.yul\":6087:6099   */\n      revert\n        /* \"#utility.yul\":6124:6676   */\n    tag_204:\n        /* \"#utility.yul\":6181:6189   */\n      0x00\n        /* \"#utility.yul\":6191:6197   */\n      0x00\n        /* \"#utility.yul\":6241:6244   */\n      dup4\n        /* \"#utility.yul\":6234:6238   */\n      0x1f\n        /* \"#utility.yul\":6226:6232   */\n      dup5\n        /* \"#utility.yul\":6222:6239   */\n      add\n        /* \"#utility.yul\":6218:6245   */\n      slt\n        /* \"#utility.yul\":6208:6330   */\n      tag_324\n      jumpi\n        /* \"#utility.yul\":6249:6328   */\n      tag_325\n      tag_201\n      jump\t// in\n    tag_325:\n        /* \"#utility.yul\":6208:6330   */\n    tag_324:\n        /* \"#utility.yul\":6362:6368   */\n      dup3\n        /* \"#utility.yul\":6349:6369   */\n      calldataload\n        /* \"#utility.yul\":6339:6369   */\n      swap1\n      pop\n        /* \"#utility.yul\":6392:6410   */\n      0xffffffffffffffff\n        /* \"#utility.yul\":6384:6390   */\n      dup2\n        /* \"#utility.yul\":6381:6411   */\n      gt\n        /* \"#utility.yul\":6378:6495   */\n      iszero\n      tag_326\n      jumpi\n        /* \"#utility.yul\":6414:6493   */\n      tag_327\n      tag_202\n      jump\t// in\n    tag_327:\n        /* \"#utility.yul\":6378:6495   */\n    tag_326:\n        /* \"#utility.yul\":6528:6532   */\n      0x20\n        /* \"#utility.yul\":6520:6526   */\n      dup4\n        /* \"#utility.yul\":6516:6533   */\n      add\n        /* \"#utility.yul\":6504:6533   */\n      swap2\n      pop\n        /* \"#utility.yul\":6582:6585   */\n      dup4\n        /* \"#utility.yul\":6574:6578   */\n      0x01\n        /* \"#utility.yul\":6566:6572   */\n      dup3\n        /* \"#utility.yul\":6562:6579   */\n      mul\n        /* \"#utility.yul\":6552:6560   */\n      dup4\n        /* \"#utility.yul\":6548:6580   */\n      add\n        /* \"#utility.yul\":6545:6586   */\n      gt\n        /* \"#utility.yul\":6542:6670   */\n      iszero\n      tag_328\n      jumpi\n        /* \"#utility.yul\":6589:6668   */\n      tag_329\n      tag_203\n      jump\t// in\n    tag_329:\n        /* \"#utility.yul\":6542:6670   */\n    tag_328:\n        /* \"#utility.yul\":6124:6676   */\n      swap3\n      pop\n      swap3\n      swap1\n      pop\n      jump\t// out\n        /* \"#utility.yul\":6682:7645   */\n    tag_58:\n        /* \"#utility.yul\":6779:6785   */\n      0x00\n        /* \"#utility.yul\":6787:6793   */\n      0x00\n        /* \"#utility.yul\":6795:6801   */\n      0x00\n        /* \"#utility.yul\":6803:6809   */\n      0x00\n        /* \"#utility.yul\":6811:6817   */\n      0x00\n        /* \"#utility.yul\":6860:6863   */\n      0x80\n        /* \"#utility.yul\":6848:6857   */\n      dup7\n        /* \"#utility.yul\":6839:6846   */\n      dup9\n        /* \"#utility.yul\":6835:6858   */\n      sub\n        /* \"#utility.yul\":6831:6864   */\n      slt\n        /* \"#utility.yul\":6828:6948   */\n      iszero\n      tag_331\n      jumpi\n        /* \"#utility.yul\":6867:6946   */\n      tag_332\n      tag_187\n      jump\t// in\n    tag_332:\n        /* \"#utility.yul\":6828:6948   */\n    tag_331:\n        /* \"#utility.yul\":6987:6988   */\n      0x00\n        /* \"#utility.yul\":7012:7065   */\n      tag_333\n        /* \"#utility.yul\":7057:7064   */\n      dup9\n        /* \"#utility.yul\":7048:7054   */\n      dup3\n        /* \"#utility.yul\":7037:7046   */\n      dup10\n        /* \"#utility.yul\":7033:7055   */\n      add\n        /* \"#utility.yul\":7012:7065   */\n      tag_196\n      jump\t// in\n    tag_333:\n        /* \"#utility.yul\":7002:7065   */\n      swap6\n      pop\n        /* \"#utility.yul\":6958:7075   */\n      pop\n        /* \"#utility.yul\":7114:7116   */\n      0x20\n        /* \"#utility.yul\":7140:7193   */\n      tag_334\n        /* \"#utility.yul\":7185:7192   */\n      dup9\n        /* \"#utility.yul\":7176:7182   */\n      dup3\n        /* \"#utility.yul\":7165:7174   */\n      dup10\n        /* \"#utility.yul\":7161:7183   */\n      add\n        /* \"#utility.yul\":7140:7193   */\n      tag_196\n      jump\t// in\n    tag_334:\n        /* \"#utility.yul\":7130:7193   */\n      swap5\n      pop\n        /* \"#utility.yul\":7085:7203   */\n      pop\n        /* \"#utility.yul\":7242:7244   */\n      0x40\n        /* \"#utility.yul\":7268:7321   */\n      tag_335\n        /* \"#utility.yul\":7313:7320   */\n      dup9\n        /* \"#utility.yul\":7304:7310   */\n      dup3\n        /* \"#utility.yul\":7293:7302   */\n      dup10\n        /* \"#utility.yul\":7289:7311   */\n      add\n        /* \"#utility.yul\":7268:7321   */\n      tag_191\n      jump\t// in\n    tag_335:\n        /* \"#utility.yul\":7258:7321   */\n      swap4\n      pop\n        /* \"#utility.yul\":7213:7331   */\n      pop\n        /* \"#utility.yul\":7398:7400   */\n      0x60\n        /* \"#utility.yul\":7387:7396   */\n      dup7\n        /* \"#utility.yul\":7383:7401   */\n      add\n        /* \"#utility.yul\":7370:7402   */\n      calldataload\n        /* \"#utility.yul\":7429:7447   */\n      0xffffffffffffffff\n        /* \"#utility.yul\":7421:7427   */\n      dup2\n        /* \"#utility.yul\":7418:7448   */\n      gt\n        /* \"#utility.yul\":7415:7532   */\n      iszero\n      tag_336\n      jumpi\n        /* \"#utility.yul\":7451:7530   */\n      tag_337\n      tag_188\n      jump\t// in\n    tag_337:\n        /* \"#utility.yul\":7415:7532   */\n    tag_336:\n        /* \"#utility.yul\":7564:7628   */\n      tag_338\n        /* \"#utility.yul\":7620:7627   */\n      dup9\n        /* \"#utility.yul\":7611:7617   */\n      dup3\n        /* \"#utility.yul\":7600:7609   */\n      dup10\n        /* \"#utility.yul\":7596:7618   */\n      add\n        /* \"#utility.yul\":7564:7628   */\n      tag_204\n      jump\t// in\n    tag_338:\n        /* \"#utility.yul\":7546:7628   */\n      swap3\n      pop\n      swap3\n      pop\n        /* \"#utility.yul\":7341:7638   */\n      pop\n        /* \"#utility.yul\":6682:7645   */\n      swap3\n      swap6\n      pop\n      swap3\n      swap6\n      swap1\n      swap4\n      pop\n      jump\t// out\n        /* \"#utility.yul\":7651:7768   */\n    tag_205:\n        /* \"#utility.yul\":7760:7761   */\n      0x00\n        /* \"#utility.yul\":7757:7758   */\n      0x00\n        /* \"#utility.yul\":7750:7762   */\n      revert\n        /* \"#utility.yul\":7774:7954   */\n    tag_206:\n        /* \"#utility.yul\":7822:7899   */\n      0x4e487b7100000000000000000000000000000000000000000000000000000000\n        /* \"#utility.yul\":7819:7820   */\n      0x00\n        /* \"#utility.yul\":7812:7900   */\n      mstore\n        /* \"#utility.yul\":7919:7923   */\n      0x41\n        /* \"#utility.yul\":7916:7917   */\n      0x04\n        /* \"#utility.yul\":7909:7924   */\n      mstore\n        /* \"#utility.yul\":7943:7947   */\n      0x24\n        /* \"#utility.yul\":7940:7941   */\n      0x00\n        /* \"#utility.yul\":7933:7948   */\n      revert\n        /* \"#utility.yul\":7960:8241   */\n    tag_207:\n        /* \"#utility.yul\":8043:8070   */\n      tag_342\n        /* \"#utility.yul\":8065:8069   */\n      dup3\n        /* \"#utility.yul\":8043:8070   */\n      tag_184\n      jump\t// in\n    tag_342:\n        /* \"#utility.yul\":8035:8041   */\n      dup2\n        /* \"#utility.yul\":8031:8071   */\n      add\n        /* \"#utility.yul\":8173:8179   */\n      dup2\n        /* \"#utility.yul\":8161:8171   */\n      dup2\n        /* \"#utility.yul\":8158:8180   */\n      lt\n        /* \"#utility.yul\":8137:8155   */\n      0xffffffffffffffff\n        /* \"#utility.yul\":8125:8135   */\n      dup3\n        /* \"#utility.yul\":8122:8156   */\n      gt\n        /* \"#utility.yul\":8119:8181   */\n      or\n        /* \"#utility.yul\":8116:8204   */\n      iszero\n      tag_343\n      jumpi\n        /* \"#utility.yul\":8184:8202   */\n      tag_344\n      tag_206\n      jump\t// in\n    tag_344:\n        /* \"#utility.yul\":8116:8204   */\n    tag_343:\n        /* \"#utility.yul\":8224:8234   */\n      dup1\n        /* \"#utility.yul\":8220:8222   */\n      0x40\n        /* \"#utility.yul\":8213:8235   */\n      mstore\n        /* \"#utility.yul\":8003:8241   */\n      pop\n        /* \"#utility.yul\":7960:8241   */\n      pop\n      pop\n      jump\t// out\n        /* \"#utility.yul\":8247:8376   */\n    tag_208:\n        /* \"#utility.yul\":8281:8287   */\n      0x00\n        /* \"#utility.yul\":8308:8328   */\n      tag_346\n      tag_186\n      jump\t// in\n    tag_346:\n        /* \"#utility.yul\":8298:8328   */\n      swap1\n      pop\n        /* \"#utility.yul\":8337:8370   */\n      tag_347\n        /* \"#utility.yul\":8365:8369   */\n      dup3\n        /* \"#utility.yul\":8357:8363   */\n      dup3\n        /* \"#utility.yul\":8337:8370   */\n      tag_207\n      jump\t// in\n    tag_347:\n        /* \"#utility.yul\":8247:8376   */\n      swap2\n      swap1\n      pop\n      jump\t// out\n        /* \"#utility.yul\":8382:8690   */\n    tag_209:\n        /* \"#utility.yul\":8444:8448   */\n      0x00\n        /* \"#utility.yul\":8534:8552   */\n      0xffffffffffffffff\n        /* \"#utility.yul\":8526:8532   */\n      dup3\n        /* \"#utility.yul\":8523:8553   */\n      gt\n        /* \"#utility.yul\":8520:8576   */\n      iszero\n      tag_349\n      jumpi\n        /* \"#utility.yul\":8556:8574   */\n      tag_350\n      tag_206\n      jump\t// in\n    tag_350:\n        /* \"#utility.yul\":8520:8576   */\n    tag_349:\n        /* \"#utility.yul\":8594:8623   */\n      tag_351\n        /* \"#utility.yul\":8616:8622   */\n      dup3\n        /* \"#utility.yul\":8594:8623   */\n      tag_184\n      jump\t// in\n    tag_351:\n        /* \"#utility.yul\":8586:8623   */\n      swap1\n      pop\n        /* \"#utility.yul\":8678:8682   */\n      0x20\n        /* \"#utility.yul\":8672:8676   */\n      dup2\n        /* \"#utility.yul\":8668:8683   */\n      add\n        /* \"#utility.yul\":8660:8683   */\n      swap1\n      pop\n        /* \"#utility.yul\":8382:8690   */\n      swap2\n      swap1\n      pop\n      jump\t// out\n        /* \"#utility.yul\":8696:8844   */\n    tag_210:\n        /* \"#utility.yul\":8794:8800   */\n      dup3\n        /* \"#utility.yul\":8789:8792   */\n      dup2\n        /* \"#utility.yul\":8784:8787   */\n      dup4\n        /* \"#utility.yul\":8771:8801   */\n      calldatacopy\n        /* \"#utility.yul\":8835:8836   */\n      0x00\n        /* \"#utility.yul\":8826:8832   */\n      dup4\n        /* \"#utility.yul\":8821:8824   */\n      dup4\n        /* \"#utility.yul\":8817:8833   */\n      add\n        /* \"#utility.yul\":8810:8837   */\n      mstore\n        /* \"#utility.yul\":8696:8844   */\n      pop\n      pop\n      pop\n      jump\t// out\n        /* \"#utility.yul\":8850:9275   */\n    tag_211:\n        /* \"#utility.yul\":8928:8933   */\n      0x00\n        /* \"#utility.yul\":8953:9019   */\n      tag_354\n        /* \"#utility.yul\":8969:9018   */\n      tag_355\n        /* \"#utility.yul\":9011:9017   */\n      dup5\n        /* \"#utility.yul\":8969:9018   */\n      tag_209\n      jump\t// in\n    tag_355:\n        /* \"#utility.yul\":8953:9019   */\n      tag_208\n      jump\t// in\n    tag_354:\n        /* \"#utility.yul\":8944:9019   */\n      swap1\n      pop\n        /* \"#utility.yul\":9042:9048   */\n      dup3\n        /* \"#utility.yul\":9035:9040   */\n      dup2\n        /* \"#utility.yul\":9028:9049   */\n      mstore\n        /* \"#utility.yul\":9080:9084   */\n      0x20\n        /* \"#utility.yul\":9073:9078   */\n      dup2\n        /* \"#utility.yul\":9069:9085   */\n      add\n        /* \"#utility.yul\":9118:9121   */\n      dup5\n        /* \"#utility.yul\":9109:9115   */\n      dup5\n        /* \"#utility.yul\":9104:9107   */\n      dup5\n        /* \"#utility.yul\":9100:9116   */\n      add\n        /* \"#utility.yul\":9097:9122   */\n      gt\n        /* \"#utility.yul\":9094:9206   */\n      iszero\n      tag_356\n      jumpi\n        /* \"#utility.yul\":9125:9204   */\n      tag_357\n      tag_205\n      jump\t// in\n    tag_357:\n        /* \"#utility.yul\":9094:9206   */\n    tag_356:\n        /* \"#utility.yul\":9215:9269   */\n      tag_358\n        /* \"#utility.yul\":9262:9268   */\n      dup5\n        /* \"#utility.yul\":9257:9260   */\n      dup3\n        /* \"#utility.yul\":9252:9255   */\n      dup6\n        /* \"#utility.yul\":9215:9269   */\n      tag_210\n      jump\t// in\n    tag_358:\n        /* \"#utility.yul\":8934:9275   */\n      pop\n        /* \"#utility.yul\":8850:9275   */\n      swap4\n      swap3\n      pop\n      pop\n      pop\n      jump\t// out\n        /* \"#utility.yul\":9295:9635   */\n    tag_212:\n        /* \"#utility.yul\":9351:9356   */\n      0x00\n        /* \"#utility.yul\":9400:9403   */\n      dup3\n        /* \"#utility.yul\":9393:9397   */\n      0x1f\n        /* \"#utility.yul\":9385:9391   */\n      dup4\n        /* \"#utility.yul\":9381:9398   */\n      add\n        /* \"#utility.yul\":9377:9404   */\n      slt\n        /* \"#utility.yul\":9367:9489   */\n      tag_360\n      jumpi\n        /* \"#utility.yul\":9408:9487   */\n      tag_361\n      tag_201\n      jump\t// in\n    tag_361:\n        /* \"#utility.yul\":9367:9489   */\n    tag_360:\n        /* \"#utility.yul\":9525:9531   */\n      dup2\n        /* \"#utility.yul\":9512:9532   */\n      calldataload\n        /* \"#utility.yul\":9550:9629   */\n      tag_362\n        /* \"#utility.yul\":9625:9628   */\n      dup5\n        /* \"#utility.yul\":9617:9623   */\n      dup3\n        /* \"#utility.yul\":9610:9614   */\n      0x20\n        /* \"#utility.yul\":9602:9608   */\n      dup7\n        /* \"#utility.yul\":9598:9615   */\n      add\n        /* \"#utility.yul\":9550:9629   */\n      tag_211\n      jump\t// in\n    tag_362:\n        /* \"#utility.yul\":9541:9629   */\n      swap2\n      pop\n        /* \"#utility.yul\":9357:9635   */\n      pop\n        /* \"#utility.yul\":9295:9635   */\n      swap3\n      swap2\n      pop\n      pop\n      jump\t// out\n        /* \"#utility.yul\":9641:10295   */\n    tag_66:\n        /* \"#utility.yul\":9719:9725   */\n      0x00\n        /* \"#utility.yul\":9727:9733   */\n      0x00\n        /* \"#utility.yul\":9776:9778   */\n      0x40\n        /* \"#utility.yul\":9764:9773   */\n      dup4\n        /* \"#utility.yul\":9755:9762   */\n      dup6\n        /* \"#utility.yul\":9751:9774   */\n      sub\n        /* \"#utility.yul\":9747:9779   */\n      slt\n        /* \"#utility.yul\":9744:9863   */\n      iszero\n      tag_364\n      jumpi\n        /* \"#utility.yul\":9782:9861   */\n      tag_365\n      tag_187\n      jump\t// in\n    tag_365:\n        /* \"#utility.yul\":9744:9863   */\n    tag_364:\n        /* \"#utility.yul\":9902:9903   */\n      0x00\n        /* \"#utility.yul\":9927:9980   */\n      tag_366\n        /* \"#utility.yul\":9972:9979   */\n      dup6\n        /* \"#utility.yul\":9963:9969   */\n      dup3\n        /* \"#utility.yul\":9952:9961   */\n      dup7\n        /* \"#utility.yul\":9948:9970   */\n      add\n        /* \"#utility.yul\":9927:9980   */\n      tag_196\n      jump\t// in\n    tag_366:\n        /* \"#utility.yul\":9917:9980   */\n      swap3\n      pop\n        /* \"#utility.yul\":9873:9990   */\n      pop\n        /* \"#utility.yul\":10057:10059   */\n      0x20\n        /* \"#utility.yul\":10046:10055   */\n      dup4\n        /* \"#utility.yul\":10042:10060   */\n      add\n        /* \"#utility.yul\":10029:10061   */\n      calldataload\n        /* \"#utility.yul\":10088:10106   */\n      0xffffffffffffffff\n        /* \"#utility.yul\":10080:10086   */\n      dup2\n        /* \"#utility.yul\":10077:10107   */\n      gt\n        /* \"#utility.yul\":10074:10191   */\n      iszero\n      tag_367\n      jumpi\n        /* \"#utility.yul\":10110:10189   */\n      tag_368\n      tag_188\n      jump\t// in\n    tag_368:\n        /* \"#utility.yul\":10074:10191   */\n    tag_367:\n        /* \"#utility.yul\":10215:10278   */\n      tag_369\n        /* \"#utility.yul\":10270:10277   */\n      dup6\n        /* \"#utility.yul\":10261:10267   */\n      dup3\n        /* \"#utility.yul\":10250:10259   */\n      dup7\n        /* \"#utility.yul\":10246:10268   */\n      add\n        /* \"#utility.yul\":10215:10278   */\n      tag_212\n      jump\t// in\n    tag_369:\n        /* \"#utility.yul\":10205:10278   */\n      swap2\n      pop\n        /* \"#utility.yul\":10000:10288   */\n      pop\n        /* \"#utility.yul\":9641:10295   */\n      swap3\n      pop\n      swap3\n      swap1\n      pop\n      jump\t// out\n        /* \"#utility.yul\":10301:10775   */\n    tag_70:\n        /* \"#utility.yul\":10369:10375   */\n      0x00\n        /* \"#utility.yul\":10377:10383   */\n      0x00\n        /* \"#utility.yul\":10426:10428   */\n      0x40\n        /* \"#utility.yul\":10414:10423   */\n      dup4\n        /* \"#utility.yul\":10405:10412   */\n      dup6\n        /* \"#utility.yul\":10401:10424   */\n      sub\n        /* \"#utility.yul\":10397:10429   */\n      slt\n        /* \"#utility.yul\":10394:10513   */\n      iszero\n      tag_371\n      jumpi\n        /* \"#utility.yul\":10432:10511   */\n      tag_372\n      tag_187\n      jump\t// in\n    tag_372:\n        /* \"#utility.yul\":10394:10513   */\n    tag_371:\n        /* \"#utility.yul\":10552:10553   */\n      0x00\n        /* \"#utility.yul\":10577:10630   */\n      tag_373\n        /* \"#utility.yul\":10622:10629   */\n      dup6\n        /* \"#utility.yul\":10613:10619   */\n      dup3\n        /* \"#utility.yul\":10602:10611   */\n      dup7\n        /* \"#utility.yul\":10598:10620   */\n      add\n        /* \"#utility.yul\":10577:10630   */\n      tag_196\n      jump\t// in\n    tag_373:\n        /* \"#utility.yul\":10567:10630   */\n      swap3\n      pop\n        /* \"#utility.yul\":10523:10640   */\n      pop\n        /* \"#utility.yul\":10679:10681   */\n      0x20\n        /* \"#utility.yul\":10705:10758   */\n      tag_374\n        /* \"#utility.yul\":10750:10757   */\n      dup6\n        /* \"#utility.yul\":10741:10747   */\n      dup3\n        /* \"#utility.yul\":10730:10739   */\n      dup7\n        /* \"#utility.yul\":10726:10748   */\n      add\n        /* \"#utility.yul\":10705:10758   */\n      tag_196\n      jump\t// in\n    tag_374:\n        /* \"#utility.yul\":10695:10758   */\n      swap2\n      pop\n        /* \"#utility.yul\":10650:10768   */\n      pop\n        /* \"#utility.yul\":10301:10775   */\n      swap3\n      pop\n      swap3\n      swap1\n      pop\n      jump\t// out\n        /* \"#utility.yul\":10781:10890   */\n    tag_213:\n        /* \"#utility.yul\":10862:10883   */\n      tag_376\n        /* \"#utility.yul\":10877:10882   */\n      dup2\n        /* \"#utility.yul\":10862:10883   */\n      tag_198\n      jump\t// in\n    tag_376:\n        /* \"#utility.yul\":10857:10860   */\n      dup3\n        /* \"#utility.yul\":10850:10884   */\n      mstore\n        /* \"#utility.yul\":10781:10890   */\n      pop\n      pop\n      jump\t// out\n        /* \"#utility.yul\":10896:11106   */\n    tag_73:\n        /* \"#utility.yul\":10983:10987   */\n      0x00\n        /* \"#utility.yul\":11021:11023   */\n      0x20\n        /* \"#utility.yul\":11010:11019   */\n      dup3\n        /* \"#utility.yul\":11006:11024   */\n      add\n        /* \"#utility.yul\":10998:11024   */\n      swap1\n      pop\n        /* \"#utility.yul\":11034:11099   */\n      tag_378\n        /* \"#utility.yul\":11096:11097   */\n      0x00\n        /* \"#utility.yul\":11085:11094   */\n      dup4\n        /* \"#utility.yul\":11081:11098   */\n      add\n        /* \"#utility.yul\":11072:11078   */\n      dup5\n        /* \"#utility.yul\":11034:11099   */\n      tag_213\n      jump\t// in\n    tag_378:\n        /* \"#utility.yul\":10896:11106   */\n      swap3\n      swap2\n      pop\n      pop\n      jump\t// out\n        /* \"#utility.yul\":11112:11292   */\n    tag_214:\n        /* \"#utility.yul\":11160:11237   */\n      0x4e487b7100000000000000000000000000000000000000000000000000000000\n        /* \"#utility.yul\":11157:11158   */\n      0x00\n        /* \"#utility.yul\":11150:11238   */\n      mstore\n        /* \"#utility.yul\":11257:11261   */\n      0x22\n        /* \"#utility.yul\":11254:11255   */\n      0x04\n        /* \"#utility.yul\":11247:11262   */\n      mstore\n        /* \"#utility.yul\":11281:11285   */\n      0x24\n        /* \"#utility.yul\":11278:11279   */\n      0x00\n        /* \"#utility.yul\":11271:11286   */\n      revert\n        /* \"#utility.yul\":11298:11618   */\n    tag_75:\n        /* \"#utility.yul\":11342:11348   */\n      0x00\n        /* \"#utility.yul\":11379:11380   */\n      0x02\n        /* \"#utility.yul\":11373:11377   */\n      dup3\n        /* \"#utility.yul\":11369:11381   */\n      div\n        /* \"#utility.yul\":11359:11381   */\n      swap1\n      pop\n        /* \"#utility.yul\":11426:11427   */\n      0x01\n        /* \"#utility.yul\":11420:11424   */\n      dup3\n        /* \"#utility.yul\":11416:11428   */\n      and\n        /* \"#utility.yul\":11447:11465   */\n      dup1\n        /* \"#utility.yul\":11437:11518   */\n      tag_381\n      jumpi\n        /* \"#utility.yul\":11503:11507   */\n      0x7f\n        /* \"#utility.yul\":11495:11501   */\n      dup3\n        /* \"#utility.yul\":11491:11508   */\n      and\n        /* \"#utility.yul\":11481:11508   */\n      swap2\n      pop\n        /* \"#utility.yul\":11437:11518   */\n    tag_381:\n        /* \"#utility.yul\":11565:11567   */\n      0x20\n        /* \"#utility.yul\":11557:11563   */\n      dup3\n        /* \"#utility.yul\":11554:11568   */\n      lt\n        /* \"#utility.yul\":11534:11552   */\n      dup2\n        /* \"#utility.yul\":11531:11569   */\n      sub\n        /* \"#utility.yul\":11528:11612   */\n      tag_382\n      jumpi\n        /* \"#utility.yul\":11584:11602   */\n      tag_383\n      tag_214\n      jump\t// in\n    tag_383:\n        /* \"#utility.yul\":11528:11612   */\n    tag_382:\n        /* \"#utility.yul\":11349:11618   */\n      pop\n        /* \"#utility.yul\":11298:11618   */\n      swap2\n      swap1\n      pop\n      jump\t// out\n        /* \"#utility.yul\":11624:11793   */\n    tag_215:\n        /* \"#utility.yul\":11764:11785   */\n      0x546f6b656e20646f65736e277420657869737400000000000000000000000000\n        /* \"#utility.yul\":11760:11761   */\n      0x00\n        /* \"#utility.yul\":11752:11758   */\n      dup3\n        /* \"#utility.yul\":11748:11762   */\n      add\n        /* \"#utility.yul\":11741:11786   */\n      mstore\n        /* \"#utility.yul\":11624:11793   */\n      pop\n      jump\t// out\n        /* \"#utility.yul\":11799:12165   */\n    tag_216:\n        /* \"#utility.yul\":11941:11944   */\n      0x00\n        /* \"#utility.yul\":11962:12029   */\n      tag_386\n        /* \"#utility.yul\":12026:12028   */\n      0x13\n        /* \"#utility.yul\":12021:12024   */\n      dup4\n        /* \"#utility.yul\":11962:12029   */\n      tag_182\n      jump\t// in\n    tag_386:\n        /* \"#utility.yul\":11955:12029   */\n      swap2\n      pop\n        /* \"#utility.yul\":12038:12131   */\n      tag_387\n        /* \"#utility.yul\":12127:12130   */\n      dup3\n        /* \"#utility.yul\":12038:12131   */\n      tag_215\n      jump\t// in\n    tag_387:\n        /* \"#utility.yul\":12156:12158   */\n      0x20\n        /* \"#utility.yul\":12151:12154   */\n      dup3\n        /* \"#utility.yul\":12147:12159   */\n      add\n        /* \"#utility.yul\":12140:12159   */\n      swap1\n      pop\n        /* \"#utility.yul\":11799:12165   */\n      swap2\n      swap1\n      pop\n      jump\t// out\n        /* \"#utility.yul\":12171:12590   */\n    tag_83:\n        /* \"#utility.yul\":12337:12341   */\n      0x00\n        /* \"#utility.yul\":12375:12377   */\n      0x20\n        /* \"#utility.yul\":12364:12373   */\n      dup3\n        /* \"#utility.yul\":12360:12378   */\n      add\n        /* \"#utility.yul\":12352:12378   */\n      swap1\n      pop\n        /* \"#utility.yul\":12424:12433   */\n      dup2\n        /* \"#utility.yul\":12418:12422   */\n      dup2\n        /* \"#utility.yul\":12414:12434   */\n      sub\n        /* \"#utility.yul\":12410:12411   */\n      0x00\n        /* \"#utility.yul\":12399:12408   */\n      dup4\n        /* \"#utility.yul\":12395:12412   */\n      add\n        /* \"#utility.yul\":12388:12435   */\n      mstore\n        /* \"#utility.yul\":12452:12583   */\n      tag_389\n        /* \"#utility.yul\":12578:12582   */\n      dup2\n        /* \"#utility.yul\":12452:12583   */\n      tag_216\n      jump\t// in\n    tag_389:\n        /* \"#utility.yul\":12444:12583   */\n      swap1\n      pop\n        /* \"#utility.yul\":12171:12590   */\n      swap2\n      swap1\n      pop\n      jump\t// out\n        /* \"#utility.yul\":12596:12759   */\n    tag_217:\n        /* \"#utility.yul\":12736:12751   */\n      0x416c7265616479206f776e657200000000000000000000000000000000000000\n        /* \"#utility.yul\":12732:12733   */\n      0x00\n        /* \"#utility.yul\":12724:12730   */\n      dup3\n        /* \"#utility.yul\":12720:12734   */\n      add\n        /* \"#utility.yul\":12713:12752   */\n      mstore\n        /* \"#utility.yul\":12596:12759   */\n      pop\n      jump\t// out\n        /* \"#utility.yul\":12765:13131   */\n    tag_218:\n        /* \"#utility.yul\":12907:12910   */\n      0x00\n        /* \"#utility.yul\":12928:12995   */\n      tag_392\n        /* \"#utility.yul\":12992:12994   */\n      0x0d\n        /* \"#utility.yul\":12987:12990   */\n      dup4\n        /* \"#utility.yul\":12928:12995   */\n      tag_182\n      jump\t// in\n    tag_392:\n        /* \"#utility.yul\":12921:12995   */\n      swap2\n      pop\n        /* \"#utility.yul\":13004:13097   */\n      tag_393\n        /* \"#utility.yul\":13093:13096   */\n      dup3\n        /* \"#utility.yul\":13004:13097   */\n      tag_217\n      jump\t// in\n    tag_393:\n        /* \"#utility.yul\":13122:13124   */\n      0x20\n        /* \"#utility.yul\":13117:13120   */\n      dup3\n        /* \"#utility.yul\":13113:13125   */\n      add\n        /* \"#utility.yul\":13106:13125   */\n      swap1\n      pop\n        /* \"#utility.yul\":12765:13131   */\n      swap2\n      swap1\n      pop\n      jump\t// out\n        /* \"#utility.yul\":13137:13556   */\n    tag_88:\n        /* \"#utility.yul\":13303:13307   */\n      0x00\n        /* \"#utility.yul\":13341:13343   */\n      0x20\n        /* \"#utility.yul\":13330:13339   */\n      dup3\n        /* \"#utility.yul\":13326:13344   */\n      add\n        /* \"#utility.yul\":13318:13344   */\n      swap1\n      pop\n        /* \"#utility.yul\":13390:13399   */\n      dup2\n        /* \"#utility.yul\":13384:13388   */\n      dup2\n        /* \"#utility.yul\":13380:13400   */\n      sub\n        /* \"#utility.yul\":13376:13377   */\n      0x00\n        /* \"#utility.yul\":13365:13374   */\n      dup4\n        /* \"#utility.yul\":13361:13378   */\n      add\n        /* \"#utility.yul\":13354:13401   */\n      mstore\n        /* \"#utility.yul\":13418:13549   */\n      tag_395\n        /* \"#utility.yul\":13544:13548   */\n      dup2\n        /* \"#utility.yul\":13418:13549   */\n      tag_218\n      jump\t// in\n    tag_395:\n        /* \"#utility.yul\":13410:13549   */\n      swap1\n      pop\n        /* \"#utility.yul\":13137:13556   */\n      swap2\n      swap1\n      pop\n      jump\t// out\n        /* \"#utility.yul\":13562:13726   */\n    tag_219:\n        /* \"#utility.yul\":13702:13718   */\n      0x4e6f7420617574686f72697a6564000000000000000000000000000000000000\n        /* \"#utility.yul\":13698:13699   */\n      0x00\n        /* \"#utility.yul\":13690:13696   */\n      dup3\n        /* \"#utility.yul\":13686:13700   */\n      add\n        /* \"#utility.yul\":13679:13719   */\n      mstore\n        /* \"#utility.yul\":13562:13726   */\n      pop\n      jump\t// out\n        /* \"#utility.yul\":13732:14098   */\n    tag_220:\n        /* \"#utility.yul\":13874:13877   */\n      0x00\n        /* \"#utility.yul\":13895:13962   */\n      tag_398\n        /* \"#utility.yul\":13959:13961   */\n      0x0e\n        /* \"#utility.yul\":13954:13957   */\n      dup4\n        /* \"#utility.yul\":13895:13962   */\n      tag_182\n      jump\t// in\n    tag_398:\n        /* \"#utility.yul\":13888:13962   */\n      swap2\n      pop\n        /* \"#utility.yul\":13971:14064   */\n      tag_399\n        /* \"#utility.yul\":14060:14063   */\n      dup3\n        /* \"#utility.yul\":13971:14064   */\n      tag_219\n      jump\t// in\n    tag_399:\n        /* \"#utility.yul\":14089:14091   */\n      0x20\n        /* \"#utility.yul\":14084:14087   */\n      dup3\n        /* \"#utility.yul\":14080:14092   */\n      add\n        /* \"#utility.yul\":14073:14092   */\n      swap1\n      pop\n        /* \"#utility.yul\":13732:14098   */\n      swap2\n      swap1\n      pop\n      jump\t// out\n        /* \"#utility.yul\":14104:14523   */\n    tag_93:\n        /* \"#utility.yul\":14270:14274   */\n      0x00\n        /* \"#utility.yul\":14308:14310   */\n      0x20\n        /* \"#utility.yul\":14297:14306   */\n      dup3\n        /* \"#utility.yul\":14293:14311   */\n      add\n        /* \"#utility.yul\":14285:14311   */\n      swap1\n      pop\n        /* \"#utility.yul\":14357:14366   */\n      dup2\n        /* \"#utility.yul\":14351:14355   */\n      dup2\n        /* \"#utility.yul\":14347:14367   */\n      sub\n        /* \"#utility.yul\":14343:14344   */\n      0x00\n        /* \"#utility.yul\":14332:14341   */\n      dup4\n        /* \"#utility.yul\":14328:14345   */\n      add\n        /* \"#utility.yul\":14321:14368   */\n      mstore\n        /* \"#utility.yul\":14385:14516   */\n      tag_401\n        /* \"#utility.yul\":14511:14515   */\n      dup2\n        /* \"#utility.yul\":14385:14516   */\n      tag_220\n      jump\t// in\n    tag_401:\n        /* \"#utility.yul\":14377:14516   */\n      swap1\n      pop\n        /* \"#utility.yul\":14104:14523   */\n      swap2\n      swap1\n      pop\n      jump\t// out\n        /* \"#utility.yul\":14529:14697   */\n    tag_221:\n        /* \"#utility.yul\":14612:14623   */\n      0x00\n        /* \"#utility.yul\":14646:14652   */\n      dup3\n        /* \"#utility.yul\":14641:14644   */\n      dup3\n        /* \"#utility.yul\":14634:14653   */\n      mstore\n        /* \"#utility.yul\":14686:14690   */\n      0x20\n        /* \"#utility.yul\":14681:14684   */\n      dup3\n        /* \"#utility.yul\":14677:14691   */\n      add\n        /* \"#utility.yul\":14662:14691   */\n      swap1\n      pop\n        /* \"#utility.yul\":14529:14697   */\n      swap3\n      swap2\n      pop\n      pop\n      jump\t// out\n        /* \"#utility.yul\":14703:14817   */\n    tag_222:\n      pop\n      jump\t// out\n        /* \"#utility.yul\":14823:15185   */\n    tag_223:\n        /* \"#utility.yul\":14964:14967   */\n      0x00\n        /* \"#utility.yul\":14985:15050   */\n      tag_405\n        /* \"#utility.yul\":15048:15049   */\n      0x00\n        /* \"#utility.yul\":15043:15046   */\n      dup4\n        /* \"#utility.yul\":14985:15050   */\n      tag_221\n      jump\t// in\n    tag_405:\n        /* \"#utility.yul\":14978:15050   */\n      swap2\n      pop\n        /* \"#utility.yul\":15059:15152   */\n      tag_406\n        /* \"#utility.yul\":15148:15151   */\n      dup3\n        /* \"#utility.yul\":15059:15152   */\n      tag_222\n      jump\t// in\n    tag_406:\n        /* \"#utility.yul\":15177:15178   */\n      0x00\n        /* \"#utility.yul\":15172:15175   */\n      dup3\n        /* \"#utility.yul\":15168:15179   */\n      add\n        /* \"#utility.yul\":15161:15179   */\n      swap1\n      pop\n        /* \"#utility.yul\":14823:15185   */\n      swap2\n      swap1\n      pop\n      jump\t// out\n        /* \"#utility.yul\":15191:15939   */\n    tag_103:\n        /* \"#utility.yul\":15440:15444   */\n      0x00\n        /* \"#utility.yul\":15478:15481   */\n      0x80\n        /* \"#utility.yul\":15467:15476   */\n      dup3\n        /* \"#utility.yul\":15463:15482   */\n      add\n        /* \"#utility.yul\":15455:15482   */\n      swap1\n      pop\n        /* \"#utility.yul\":15492:15563   */\n      tag_408\n        /* \"#utility.yul\":15560:15561   */\n      0x00\n        /* \"#utility.yul\":15549:15558   */\n      dup4\n        /* \"#utility.yul\":15545:15562   */\n      add\n        /* \"#utility.yul\":15536:15542   */\n      dup7\n        /* \"#utility.yul\":15492:15563   */\n      tag_194\n      jump\t// in\n    tag_408:\n        /* \"#utility.yul\":15573:15645   */\n      tag_409\n        /* \"#utility.yul\":15641:15643   */\n      0x20\n        /* \"#utility.yul\":15630:15639   */\n      dup4\n        /* \"#utility.yul\":15626:15644   */\n      add\n        /* \"#utility.yul\":15617:15623   */\n      dup6\n        /* \"#utility.yul\":15573:15645   */\n      tag_194\n      jump\t// in\n    tag_409:\n        /* \"#utility.yul\":15655:15727   */\n      tag_410\n        /* \"#utility.yul\":15723:15725   */\n      0x40\n        /* \"#utility.yul\":15712:15721   */\n      dup4\n        /* \"#utility.yul\":15708:15726   */\n      add\n        /* \"#utility.yul\":15699:15705   */\n      dup5\n        /* \"#utility.yul\":15655:15727   */\n      tag_197\n      jump\t// in\n    tag_410:\n        /* \"#utility.yul\":15774:15783   */\n      dup2\n        /* \"#utility.yul\":15768:15772   */\n      dup2\n        /* \"#utility.yul\":15764:15784   */\n      sub\n        /* \"#utility.yul\":15759:15761   */\n      0x60\n        /* \"#utility.yul\":15748:15757   */\n      dup4\n        /* \"#utility.yul\":15744:15762   */\n      add\n        /* \"#utility.yul\":15737:15785   */\n      mstore\n        /* \"#utility.yul\":15802:15932   */\n      tag_411\n        /* \"#utility.yul\":15927:15931   */\n      dup2\n        /* \"#utility.yul\":15802:15932   */\n      tag_223\n      jump\t// in\n    tag_411:\n        /* \"#utility.yul\":15794:15932   */\n      swap1\n      pop\n        /* \"#utility.yul\":15191:15939   */\n      swap5\n      swap4\n      pop\n      pop\n      pop\n      pop\n      jump\t// out\n        /* \"#utility.yul\":15945:16107   */\n    tag_224:\n        /* \"#utility.yul\":16085:16099   */\n      0x5a65726f20616464726573730000000000000000000000000000000000000000\n        /* \"#utility.yul\":16081:16082   */\n      0x00\n        /* \"#utility.yul\":16073:16079   */\n      dup3\n        /* \"#utility.yul\":16069:16083   */\n      add\n        /* \"#utility.yul\":16062:16100   */\n      mstore\n        /* \"#utility.yul\":15945:16107   */\n      pop\n      jump\t// out\n        /* \"#utility.yul\":16113:16479   */\n    tag_225:\n        /* \"#utility.yul\":16255:16258   */\n      0x00\n        /* \"#utility.yul\":16276:16343   */\n      tag_414\n        /* \"#utility.yul\":16340:16342   */\n      0x0c\n        /* \"#utility.yul\":16335:16338   */\n      dup4\n        /* \"#utility.yul\":16276:16343   */\n      tag_182\n      jump\t// in\n    tag_414:\n        /* \"#utility.yul\":16269:16343   */\n      swap2\n      pop\n        /* \"#utility.yul\":16352:16445   */\n      tag_415\n        /* \"#utility.yul\":16441:16444   */\n      dup3\n        /* \"#utility.yul\":16352:16445   */\n      tag_224\n      jump\t// in\n    tag_415:\n        /* \"#utility.yul\":16470:16472   */\n      0x20\n        /* \"#utility.yul\":16465:16468   */\n      dup3\n        /* \"#utility.yul\":16461:16473   */\n      add\n        /* \"#utility.yul\":16454:16473   */\n      swap1\n      pop\n        /* \"#utility.yul\":16113:16479   */\n      swap2\n      swap1\n      pop\n      jump\t// out\n        /* \"#utility.yul\":16485:16904   */\n    tag_113:\n        /* \"#utility.yul\":16651:16655   */\n      0x00\n        /* \"#utility.yul\":16689:16691   */\n      0x20\n        /* \"#utility.yul\":16678:16687   */\n      dup3\n        /* \"#utility.yul\":16674:16692   */\n      add\n        /* \"#utility.yul\":16666:16692   */\n      swap1\n      pop\n        /* \"#utility.yul\":16738:16747   */\n      dup2\n        /* \"#utility.yul\":16732:16736   */\n      dup2\n        /* \"#utility.yul\":16728:16748   */\n      sub\n        /* \"#utility.yul\":16724:16725   */\n      0x00\n        /* \"#utility.yul\":16713:16722   */\n      dup4\n        /* \"#utility.yul\":16709:16726   */\n      add\n        /* \"#utility.yul\":16702:16749   */\n      mstore\n        /* \"#utility.yul\":16766:16897   */\n      tag_417\n        /* \"#utility.yul\":16892:16896   */\n      dup2\n        /* \"#utility.yul\":16766:16897   */\n      tag_225\n      jump\t// in\n    tag_417:\n        /* \"#utility.yul\":16758:16897   */\n      swap1\n      pop\n        /* \"#utility.yul\":16485:16904   */\n      swap2\n      swap1\n      pop\n      jump\t// out\n        /* \"#utility.yul\":16910:17073   */\n    tag_226:\n        /* \"#utility.yul\":17050:17065   */\n      0x53656c6620617070726f76616c00000000000000000000000000000000000000\n        /* \"#utility.yul\":17046:17047   */\n      0x00\n        /* \"#utility.yul\":17038:17044   */\n      dup3\n        /* \"#utility.yul\":17034:17048   */\n      add\n        /* \"#utility.yul\":17027:17066   */\n      mstore\n        /* \"#utility.yul\":16910:17073   */\n      pop\n      jump\t// out\n        /* \"#utility.yul\":17079:17445   */\n    tag_227:\n        /* \"#utility.yul\":17221:17224   */\n      0x00\n        /* \"#utility.yul\":17242:17309   */\n      tag_420\n        /* \"#utility.yul\":17306:17308   */\n      0x0d\n        /* \"#utility.yul\":17301:17304   */\n      dup4\n        /* \"#utility.yul\":17242:17309   */\n      tag_182\n      jump\t// in\n    tag_420:\n        /* \"#utility.yul\":17235:17309   */\n      swap2\n      pop\n        /* \"#utility.yul\":17318:17411   */\n      tag_421\n        /* \"#utility.yul\":17407:17410   */\n      dup3\n        /* \"#utility.yul\":17318:17411   */\n      tag_226\n      jump\t// in\n    tag_421:\n        /* \"#utility.yul\":17436:17438   */\n      0x20\n        /* \"#utility.yul\":17431:17434   */\n      dup3\n        /* \"#utility.yul\":17427:17439   */\n      add\n        /* \"#utility.yul\":17420:17439   */\n      swap1\n      pop\n        /* \"#utility.yul\":17079:17445   */\n      swap2\n      swap1\n      pop\n      jump\t// out\n        /* \"#utility.yul\":17451:17870   */\n    tag_122:\n        /* \"#utility.yul\":17617:17621   */\n      0x00\n        /* \"#utility.yul\":17655:17657   */\n      0x20\n        /* \"#utility.yul\":17644:17653   */\n      dup3\n        /* \"#utility.yul\":17640:17658   */\n      add\n        /* \"#utility.yul\":17632:17658   */\n      swap1\n      pop\n        /* \"#utility.yul\":17704:17713   */\n      dup2\n        /* \"#utility.yul\":17698:17702   */\n      dup2\n        /* \"#utility.yul\":17694:17714   */\n      sub\n        /* \"#utility.yul\":17690:17691   */\n      0x00\n        /* \"#utility.yul\":17679:17688   */\n      dup4\n        /* \"#utility.yul\":17675:17692   */\n      add\n        /* \"#utility.yul\":17668:17715   */\n      mstore\n        /* \"#utility.yul\":17732:17863   */\n      tag_423\n        /* \"#utility.yul\":17858:17862   */\n      dup2\n        /* \"#utility.yul\":17732:17863   */\n      tag_227\n      jump\t// in\n    tag_423:\n        /* \"#utility.yul\":17724:17863   */\n      swap1\n      pop\n        /* \"#utility.yul\":17451:17870   */\n      swap2\n      swap1\n      pop\n      jump\t// out\n        /* \"#utility.yul\":17876:18056   */\n    tag_228:\n        /* \"#utility.yul\":17924:18001   */\n      0x4e487b7100000000000000000000000000000000000000000000000000000000\n        /* \"#utility.yul\":17921:17922   */\n      0x00\n        /* \"#utility.yul\":17914:18002   */\n      mstore\n        /* \"#utility.yul\":18021:18025   */\n      0x11\n        /* \"#utility.yul\":18018:18019   */\n      0x04\n        /* \"#utility.yul\":18011:18026   */\n      mstore\n        /* \"#utility.yul\":18045:18049   */\n      0x24\n        /* \"#utility.yul\":18042:18043   */\n      0x00\n        /* \"#utility.yul\":18035:18050   */\n      revert\n        /* \"#utility.yul\":18062:18295   */\n    tag_140:\n        /* \"#utility.yul\":18101:18104   */\n      0x00\n        /* \"#utility.yul\":18124:18148   */\n      tag_426\n        /* \"#utility.yul\":18142:18147   */\n      dup3\n        /* \"#utility.yul\":18124:18148   */\n      tag_189\n      jump\t// in\n    tag_426:\n        /* \"#utility.yul\":18115:18148   */\n      swap2\n      pop\n        /* \"#utility.yul\":18170:18236   */\n      0xffffffffffffffffffffffffffffffffffffffffffffffffffffffffffffffff\n        /* \"#utility.yul\":18163:18168   */\n      dup3\n        /* \"#utility.yul\":18160:18237   */\n      sub\n        /* \"#utility.yul\":18157:18260   */\n      tag_427\n      jumpi\n        /* \"#utility.yul\":18240:18258   */\n      tag_428\n      tag_228\n      jump\t// in\n    tag_428:\n        /* \"#utility.yul\":18157:18260   */\n    tag_427:\n        /* \"#utility.yul\":18287:18288   */\n      0x01\n        /* \"#utility.yul\":18280:18285   */\n      dup3\n        /* \"#utility.yul\":18276:18289   */\n      add\n        /* \"#utility.yul\":18269:18289   */\n      swap1\n      pop\n        /* \"#utility.yul\":18062:18295   */\n      swap2\n      swap1\n      pop\n      jump\t// out\n        /* \"#utility.yul\":18301:18492   */\n    tag_142:\n        /* \"#utility.yul\":18341:18344   */\n      0x00\n        /* \"#utility.yul\":18360:18380   */\n      tag_430\n        /* \"#utility.yul\":18378:18379   */\n      dup3\n        /* \"#utility.yul\":18360:18380   */\n      tag_189\n      jump\t// in\n    tag_430:\n        /* \"#utility.yul\":18355:18380   */\n      swap2\n      pop\n        /* \"#utility.yul\":18394:18414   */\n      tag_431\n        /* \"#utility.yul\":18412:18413   */\n      dup4\n        /* \"#utility.yul\":18394:18414   */\n      tag_189\n      jump\t// in\n    tag_431:\n        /* \"#utility.yul\":18389:18414   */\n      swap3\n      pop\n        /* \"#utility.yul\":18437:18438   */\n      dup3\n        /* \"#utility.yul\":18434:18435   */\n      dup3\n        /* \"#utility.yul\":18430:18439   */\n      add\n        /* \"#utility.yul\":18423:18439   */\n      swap1\n      pop\n        /* \"#utility.yul\":18458:18461   */\n      dup1\n        /* \"#utility.yul\":18455:18456   */\n      dup3\n        /* \"#utility.yul\":18452:18462   */\n      gt\n        /* \"#utility.yul\":18449:18485   */\n      iszero\n      tag_432\n      jumpi\n        /* \"#utility.yul\":18465:18483   */\n      tag_433\n      tag_228\n      jump\t// in\n    tag_433:\n        /* \"#utility.yul\":18449:18485   */\n    tag_432:\n        /* \"#utility.yul\":18301:18492   */\n      swap3\n      swap2\n      pop\n      pop\n      jump\t// out\n        /* \"#utility.yul\":18498:18639   */\n    tag_229:\n        /* \"#utility.yul\":18547:18551   */\n      0x00\n        /* \"#utility.yul\":18570:18573   */\n      dup2\n        /* \"#utility.yul\":18562:18573   */\n      swap1\n      pop\n        /* \"#utility.yul\":18593:18596   */\n      dup2\n        /* \"#utility.yul\":18590:18591   */\n      0x00\n        /* \"#utility.yul\":18583:18597   */\n      mstore\n        /* \"#utility.yul\":18627:18631   */\n      0x20\n        /* \"#utility.yul\":18624:18625   */\n      0x00\n        /* \"#utility.yul\":18614:18632   */\n      keccak256\n        /* \"#utility.yul\":18606:18632   */\n      swap1\n      pop\n        /* \"#utility.yul\":18498:18639   */\n      swap2\n      swap1\n      pop\n      jump\t// out\n        /* \"#utility.yul\":18645:18738   */\n    tag_230:\n        /* \"#utility.yul\":18682:18688   */\n      0x00\n        /* \"#utility.yul\":18729:18731   */\n      0x20\n        /* \"#utility.yul\":18724:18726   */\n      0x1f\n        /* \"#utility.yul\":18717:18722   */\n      dup4\n        /* \"#utility.yul\":18713:18727   */\n      add\n        /* \"#utility.yul\":18709:18732   */\n      div\n        /* \"#utility.yul\":18699:18732   */\n      swap1\n      pop\n        /* \"#utility.yul\":18645:18738   */\n      swap2\n      swap1\n      pop\n      jump\t// out\n        /* \"#utility.yul\":18744:18851   */\n    tag_231:\n        /* \"#utility.yul\":18788:18796   */\n      0x00\n        /* \"#utility.yul\":18838:18843   */\n      dup3\n        /* \"#utility.yul\":18832:18836   */\n      dup3\n        /* \"#utility.yul\":18828:18844   */\n      shl\n        /* \"#utility.yul\":18807:18844   */\n      swap1\n      pop\n        /* \"#utility.yul\":18744:18851   */\n      swap3\n      swap2\n      pop\n      pop\n      jump\t// out\n        /* \"#utility.yul\":18857:19250   */\n    tag_232:\n        /* \"#utility.yul\":18926:18932   */\n      0x00\n        /* \"#utility.yul\":18976:18977   */\n      0x08\n        /* \"#utility.yul\":18964:18974   */\n      dup4\n        /* \"#utility.yul\":18960:18978   */\n      mul\n        /* \"#utility.yul\":18999:19096   */\n      tag_438\n        /* \"#utility.yul\":19029:19095   */\n      0xffffffffffffffffffffffffffffffffffffffffffffffffffffffffffffffff\n        /* \"#utility.yul\":19018:19027   */\n      dup3\n        /* \"#utility.yul\":18999:19096   */\n      tag_231\n      jump\t// in\n    tag_438:\n        /* \"#utility.yul\":19117:19156   */\n      tag_439\n        /* \"#utility.yul\":19147:19155   */\n      dup7\n        /* \"#utility.yul\":19136:19145   */\n      dup4\n        /* \"#utility.yul\":19117:19156   */\n      tag_231\n      jump\t// in\n    tag_439:\n        /* \"#utility.yul\":19105:19156   */\n      swap6\n      pop\n        /* \"#utility.yul\":19189:19193   */\n      dup1\n        /* \"#utility.yul\":19185:19194   */\n      not\n        /* \"#utility.yul\":19178:19183   */\n      dup5\n        /* \"#utility.yul\":19174:19195   */\n      and\n        /* \"#utility.yul\":19165:19195   */\n      swap4\n      pop\n        /* \"#utility.yul\":19238:19242   */\n      dup1\n        /* \"#utility.yul\":19228:19236   */\n      dup7\n        /* \"#utility.yul\":19224:19243   */\n      and\n        /* \"#utility.yul\":19217:19222   */\n      dup5\n        /* \"#utility.yul\":19214:19244   */\n      or\n        /* \"#utility.yul\":19204:19244   */\n      swap3\n      pop\n        /* \"#utility.yul\":18933:19250   */\n      pop\n      pop\n        /* \"#utility.yul\":18857:19250   */\n      swap4\n      swap3\n      pop\n      pop\n      pop\n      jump\t// out\n        /* \"#utility.yul\":19256:19316   */\n    tag_233:\n        /* \"#utility.yul\":19284:19287   */\n      0x00\n        /* \"#utility.yul\":19305:19310   */\n      dup2\n        /* \"#utility.yul\":19298:19310   */\n      swap1\n      pop\n        /* \"#utility.yul\":19256:19316   */\n      swap2\n      swap1\n      pop\n      jump\t// out\n        /* \"#utility.yul\":19322:19464   */\n    tag_234:\n        /* \"#utility.yul\":19372:19381   */\n      0x00\n        /* \"#utility.yul\":19405:19458   */\n      tag_442\n        /* \"#utility.yul\":19423:19457   */\n      tag_443\n        /* \"#utility.yul\":19432:19456   */\n      tag_444\n        /* \"#utility.yul\":19450:19455   */\n      dup5\n        /* \"#utility.yul\":19432:19456   */\n      tag_189\n      jump\t// in\n    tag_444:\n        /* \"#utility.yul\":19423:19457   */\n      tag_233\n      jump\t// in\n    tag_443:\n        /* \"#utility.yul\":19405:19458   */\n      tag_189\n      jump\t// in\n    tag_442:\n        /* \"#utility.yul\":19392:19458   */\n      swap1\n      pop\n        /* \"#utility.yul\":19322:19464   */\n      swap2\n      swap1\n      pop\n      jump\t// out\n        /* \"#utility.yul\":19470:19545   */\n    tag_235:\n        /* \"#utility.yul\":19513:19516   */\n      0x00\n        /* \"#utility.yul\":19534:19539   */\n      dup2\n        /* \"#utility.yul\":19527:19539   */\n      swap1\n      pop\n        /* \"#utility.yul\":19470:19545   */\n      swap2\n      swap1\n      pop\n      jump\t// out\n        /* \"#utility.yul\":19551:19820   */\n    tag_236:\n        /* \"#utility.yul\":19661:19700   */\n      tag_447\n        /* \"#utility.yul\":19692:19699   */\n      dup4\n        /* \"#utility.yul\":19661:19700   */\n      tag_234\n      jump\t// in\n    tag_447:\n        /* \"#utility.yul\":19722:19813   */\n      tag_448\n        /* \"#utility.yul\":19771:19812   */\n      tag_449\n        /* \"#utility.yul\":19795:19811   */\n      dup3\n        /* \"#utility.yul\":19771:19812   */\n      tag_235\n      jump\t// in\n    tag_449:\n        /* \"#utility.yul\":19763:19769   */\n      dup5\n        /* \"#utility.yul\":19756:19760   */\n      dup5\n        /* \"#utility.yul\":19750:19761   */\n      sload\n        /* \"#utility.yul\":19722:19813   */\n      tag_232\n      jump\t// in\n    tag_448:\n        /* \"#utility.yul\":19716:19720   */\n      dup3\n        /* \"#utility.yul\":19709:19814   */\n      sstore\n        /* \"#utility.yul\":19627:19820   */\n      pop\n        /* \"#utility.yul\":19551:19820   */\n      pop\n      pop\n      pop\n      jump\t// out\n        /* \"#utility.yul\":19826:19899   */\n    tag_237:\n        /* \"#utility.yul\":19871:19874   */\n      0x00\n        /* \"#utility.yul\":19892:19893   */\n      0x00\n        /* \"#utility.yul\":19885:19893   */\n      swap1\n      pop\n        /* \"#utility.yul\":19826:19899   */\n      swap1\n      jump\t// out\n        /* \"#utility.yul\":19905:20094   */\n    tag_238:\n        /* \"#utility.yul\":19982:20014   */\n      tag_452\n      tag_237\n      jump\t// in\n    tag_452:\n        /* \"#utility.yul\":20023:20088   */\n      tag_453\n        /* \"#utility.yul\":20081:20087   */\n      dup2\n        /* \"#utility.yul\":20073:20079   */\n      dup5\n        /* \"#utility.yul\":20067:20071   */\n      dup5\n        /* \"#utility.yul\":20023:20088   */\n      tag_236\n      jump\t// in\n    tag_453:\n        /* \"#utility.yul\":19958:20094   */\n      pop\n        /* \"#utility.yul\":19905:20094   */\n      pop\n      pop\n      jump\t// out\n        /* \"#utility.yul\":20100:20286   */\n    tag_239:\n        /* \"#utility.yul\":20160:20280   */\n    tag_455:\n        /* \"#utility.yul\":20177:20180   */\n      dup2\n        /* \"#utility.yul\":20170:20175   */\n      dup2\n        /* \"#utility.yul\":20167:20181   */\n      lt\n        /* \"#utility.yul\":20160:20280   */\n      iszero\n      tag_457\n      jumpi\n        /* \"#utility.yul\":20231:20270   */\n      tag_458\n        /* \"#utility.yul\":20268:20269   */\n      0x00\n        /* \"#utility.yul\":20261:20266   */\n      dup3\n        /* \"#utility.yul\":20231:20270   */\n      tag_238\n      jump\t// in\n    tag_458:\n        /* \"#utility.yul\":20204:20205   */\n      0x01\n        /* \"#utility.yul\":20197:20202   */\n      dup2\n        /* \"#utility.yul\":20193:20206   */\n      add\n        /* \"#utility.yul\":20184:20206   */\n      swap1\n      pop\n        /* \"#utility.yul\":20160:20280   */\n      jump(tag_455)\n    tag_457:\n        /* \"#utility.yul\":20100:20286   */\n      pop\n      pop\n      jump\t// out\n        /* \"#utility.yul\":20292:20835   */\n    tag_240:\n        /* \"#utility.yul\":20393:20395   */\n      0x1f\n        /* \"#utility.yul\":20388:20391   */\n      dup3\n        /* \"#utility.yul\":20385:20396   */\n      gt\n        /* \"#utility.yul\":20382:20828   */\n      iszero\n      tag_460\n      jumpi\n        /* \"#utility.yul\":20427:20465   */\n      tag_461\n        /* \"#utility.yul\":20459:20464   */\n      dup2\n        /* \"#utility.yul\":20427:20465   */\n      tag_229\n      jump\t// in\n    tag_461:\n        /* \"#utility.yul\":20511:20540   */\n      tag_462\n        /* \"#utility.yul\":20529:20539   */\n      dup5\n        /* \"#utility.yul\":20511:20540   */\n      tag_230\n      jump\t// in\n    tag_462:\n        /* \"#utility.yul\":20501:20509   */\n      dup2\n        /* \"#utility.yul\":20497:20541   */\n      add\n        /* \"#utility.yul\":20694:20696   */\n      0x20\n        /* \"#utility.yul\":20682:20692   */\n      dup6\n        /* \"#utility.yul\":20679:20697   */\n      lt\n        /* \"#utility.yul\":20676:20725   */\n      iszero\n      tag_463\n      jumpi\n        /* \"#utility.yul\":20715:20723   */\n      dup2\n        /* \"#utility.yul\":20700:20723   */\n      swap1\n      pop\n        /* \"#utility.yul\":20676:20725   */\n    tag_463:\n        /* \"#utility.yul\":20738:20818   */\n      tag_464\n        /* \"#utility.yul\":20794:20816   */\n      tag_465\n        /* \"#utility.yul\":20812:20815   */\n      dup6\n        /* \"#utility.yul\":20794:20816   */\n      tag_230\n      jump\t// in\n    tag_465:\n        /* \"#utility.yul\":20784:20792   */\n      dup4\n        /* \"#utility.yul\":20780:20817   */\n      add\n        /* \"#utility.yul\":20767:20778   */\n      dup3\n        /* \"#utility.yul\":20738:20818   */\n      tag_239\n      jump\t// in\n    tag_464:\n        /* \"#utility.yul\":20397:20828   */\n      pop\n      pop\n        /* \"#utility.yul\":20382:20828   */\n    tag_460:\n        /* \"#utility.yul\":20292:20835   */\n      pop\n      pop\n      pop\n      jump\t// out\n        /* \"#utility.yul\":20841:20958   */\n    tag_241:\n        /* \"#utility.yul\":20895:20903   */\n      0x00\n        /* \"#utility.yul\":20945:20950   */\n      dup3\n        /* \"#utility.yul\":20939:20943   */\n      dup3\n        /* \"#utility.yul\":20935:20951   */\n      shr\n        /* \"#utility.yul\":20914:20951   */\n      swap1\n      pop\n        /* \"#utility.yul\":20841:20958   */\n      swap3\n      swap2\n      pop\n      pop\n      jump\t// out\n        /* \"#utility.yul\":20964:21133   */\n    tag_242:\n        /* \"#utility.yul\":21008:21014   */\n      0x00\n        /* \"#utility.yul\":21041:21092   */\n      tag_468\n        /* \"#utility.yul\":21089:21090   */\n      0x00\n        /* \"#utility.yul\":21085:21091   */\n      not\n        /* \"#utility.yul\":21077:21082   */\n      dup5\n        /* \"#utility.yul\":21074:21075   */\n      0x08\n        /* \"#utility.yul\":21070:21083   */\n      mul\n        /* \"#utility.yul\":21041:21092   */\n      tag_241\n      jump\t// in\n    tag_468:\n        /* \"#utility.yul\":21037:21093   */\n      not\n        /* \"#utility.yul\":21122:21126   */\n      dup1\n        /* \"#utility.yul\":21116:21120   */\n      dup4\n        /* \"#utility.yul\":21112:21127   */\n      and\n        /* \"#utility.yul\":21102:21127   */\n      swap2\n      pop\n        /* \"#utility.yul\":21015:21133   */\n      pop\n        /* \"#utility.yul\":20964:21133   */\n      swap3\n      swap2\n      pop\n      pop\n      jump\t// out\n        /* \"#utility.yul\":21138:21433   */\n    tag_243:\n        /* \"#utility.yul\":21214:21218   */\n      0x00\n        /* \"#utility.yul\":21360:21389   */\n      tag_470\n        /* \"#utility.yul\":21385:21388   */\n      dup4\n        /* \"#utility.yul\":21379:21383   */\n      dup4\n        /* \"#utility.yul\":21360:21389   */\n      tag_242\n      jump\t// in\n    tag_470:\n        /* \"#utility.yul\":21352:21389   */\n      swap2\n      pop\n        /* \"#utility.yul\":21422:21425   */\n      dup3\n        /* \"#utility.yul\":21419:21420   */\n      0x02\n        /* \"#utility.yul\":21415:21426   */\n      mul\n        /* \"#utility.yul\":21409:21413   */\n      dup3\n        /* \"#utility.yul\":21406:21427   */\n      or\n        /* \"#utility.yul\":21398:21427   */\n      swap1\n      pop\n        /* \"#utility.yul\":21138:21433   */\n      swap3\n      swap2\n      pop\n      pop\n      jump\t// out\n        /* \"#utility.yul\":21438:22833   */\n    tag_144:\n        /* \"#utility.yul\":21555:21592   */\n      tag_472\n        /* \"#utility.yul\":21588:21591   */\n      dup3\n        /* \"#utility.yul\":21555:21592   */\n      tag_181\n      jump\t// in\n    tag_472:\n        /* \"#utility.yul\":21657:21675   */\n      0xffffffffffffffff\n        /* \"#utility.yul\":21649:21655   */\n      dup2\n        /* \"#utility.yul\":21646:21676   */\n      gt\n        /* \"#utility.yul\":21643:21699   */\n      iszero\n      tag_473\n      jumpi\n        /* \"#utility.yul\":21679:21697   */\n      tag_474\n      tag_206\n      jump\t// in\n    tag_474:\n        /* \"#utility.yul\":21643:21699   */\n    tag_473:\n        /* \"#utility.yul\":21723:21761   */\n      tag_475\n        /* \"#utility.yul\":21755:21759   */\n      dup3\n        /* \"#utility.yul\":21749:21760   */\n      sload\n        /* \"#utility.yul\":21723:21761   */\n      tag_75\n      jump\t// in\n    tag_475:\n        /* \"#utility.yul\":21808:21875   */\n      tag_476\n        /* \"#utility.yul\":21868:21874   */\n      dup3\n        /* \"#utility.yul\":21860:21866   */\n      dup3\n        /* \"#utility.yul\":21854:21858   */\n      dup6\n        /* \"#utility.yul\":21808:21875   */\n      tag_240\n      jump\t// in\n    tag_476:\n        /* \"#utility.yul\":21902:21903   */\n      0x00\n        /* \"#utility.yul\":21926:21930   */\n      0x20\n        /* \"#utility.yul\":21913:21930   */\n      swap1\n      pop\n        /* \"#utility.yul\":21958:21960   */\n      0x1f\n        /* \"#utility.yul\":21950:21956   */\n      dup4\n        /* \"#utility.yul\":21947:21961   */\n      gt\n        /* \"#utility.yul\":21975:21976   */\n      0x01\n        /* \"#utility.yul\":21970:22588   */\n      dup2\n      eq\n      tag_478\n      jumpi\n        /* \"#utility.yul\":22632:22633   */\n      0x00\n        /* \"#utility.yul\":22649:22655   */\n      dup5\n        /* \"#utility.yul\":22646:22723   */\n      iszero\n      tag_479\n      jumpi\n        /* \"#utility.yul\":22698:22707   */\n      dup3\n        /* \"#utility.yul\":22693:22696   */\n      dup8\n        /* \"#utility.yul\":22689:22708   */\n      add\n        /* \"#utility.yul\":22683:22709   */\n      mload\n        /* \"#utility.yul\":22674:22709   */\n      swap1\n      pop\n        /* \"#utility.yul\":22646:22723   */\n    tag_479:\n        /* \"#utility.yul\":22749:22816   */\n      tag_480\n        /* \"#utility.yul\":22809:22815   */\n      dup6\n        /* \"#utility.yul\":22802:22807   */\n      dup3\n        /* \"#utility.yul\":22749:22816   */\n      tag_243\n      jump\t// in\n    tag_480:\n        /* \"#utility.yul\":22743:22747   */\n      dup7\n        /* \"#utility.yul\":22736:22817   */\n      sstore\n        /* \"#utility.yul\":22605:22827   */\n      pop\n        /* \"#utility.yul\":21940:22827   */\n      jump(tag_477)\n        /* \"#utility.yul\":21970:22588   */\n    tag_478:\n        /* \"#utility.yul\":22022:22026   */\n      0x1f\n        /* \"#utility.yul\":22018:22027   */\n      not\n        /* \"#utility.yul\":22010:22016   */\n      dup5\n        /* \"#utility.yul\":22006:22028   */\n      and\n        /* \"#utility.yul\":22056:22093   */\n      tag_481\n        /* \"#utility.yul\":22088:22092   */\n      dup7\n        /* \"#utility.yul\":22056:22093   */\n      tag_229\n      jump\t// in\n    tag_481:\n        /* \"#utility.yul\":22115:22116   */\n      0x00\n        /* \"#utility.yul\":22129:22337   */\n    tag_482:\n        /* \"#utility.yul\":22143:22150   */\n      dup3\n        /* \"#utility.yul\":22140:22141   */\n      dup2\n        /* \"#utility.yul\":22137:22151   */\n      lt\n        /* \"#utility.yul\":22129:22337   */\n      iszero\n      tag_484\n      jumpi\n        /* \"#utility.yul\":22222:22231   */\n      dup5\n        /* \"#utility.yul\":22217:22220   */\n      dup10\n        /* \"#utility.yul\":22213:22232   */\n      add\n        /* \"#utility.yul\":22207:22233   */\n      mload\n        /* \"#utility.yul\":22199:22205   */\n      dup3\n        /* \"#utility.yul\":22192:22234   */\n      sstore\n        /* \"#utility.yul\":22273:22274   */\n      0x01\n        /* \"#utility.yul\":22265:22271   */\n      dup3\n        /* \"#utility.yul\":22261:22275   */\n      add\n        /* \"#utility.yul\":22251:22275   */\n      swap2\n      pop\n        /* \"#utility.yul\":22320:22322   */\n      0x20\n        /* \"#utility.yul\":22309:22318   */\n      dup6\n        /* \"#utility.yul\":22305:22323   */\n      add\n        /* \"#utility.yul\":22292:22323   */\n      swap5\n      pop\n        /* \"#utility.yul\":22166:22170   */\n      0x20\n        /* \"#utility.yul\":22163:22164   */\n      dup2\n        /* \"#utility.yul\":22159:22171   */\n      add\n        /* \"#utility.yul\":22154:22171   */\n      swap1\n      pop\n        /* \"#utility.yul\":22129:22337   */\n      jump(tag_482)\n    tag_484:\n        /* \"#utility.yul\":22365:22371   */\n      dup7\n        /* \"#utility.yul\":22356:22363   */\n      dup4\n        /* \"#utility.yul\":22353:22372   */\n      lt\n        /* \"#utility.yul\":22350:22529   */\n      iszero\n      tag_485\n      jumpi\n        /* \"#utility.yul\":22423:22432   */\n      dup5\n        /* \"#utility.yul\":22418:22421   */\n      dup10\n        /* \"#utility.yul\":22414:22433   */\n      add\n        /* \"#utility.yul\":22408:22434   */\n      mload\n        /* \"#utility.yul\":22466:22514   */\n      tag_486\n        /* \"#utility.yul\":22508:22512   */\n      0x1f\n        /* \"#utility.yul\":22500:22506   */\n      dup10\n        /* \"#utility.yul\":22496:22513   */\n      and\n        /* \"#utility.yul\":22485:22494   */\n      dup3\n        /* \"#utility.yul\":22466:22514   */\n      tag_242\n      jump\t// in\n    tag_486:\n        /* \"#utility.yul\":22458:22464   */\n      dup4\n        /* \"#utility.yul\":22451:22515   */\n      sstore\n        /* \"#utility.yul\":22373:22529   */\n      pop\n        /* \"#utility.yul\":22350:22529   */\n    tag_485:\n        /* \"#utility.yul\":22575:22576   */\n      0x01\n        /* \"#utility.yul\":22571:22572   */\n      0x02\n        /* \"#utility.yul\":22563:22569   */\n      dup9\n        /* \"#utility.yul\":22559:22573   */\n      mul\n        /* \"#utility.yul\":22555:22577   */\n      add\n        /* \"#utility.yul\":22549:22553   */\n      dup9\n        /* \"#utility.yul\":22542:22578   */\n      sstore\n        /* \"#utility.yul\":21977:22588   */\n      pop\n      pop\n      pop\n        /* \"#utility.yul\":21940:22827   */\n    tag_477:\n      pop\n        /* \"#utility.yul\":21530:22833   */\n      pop\n      pop\n      pop\n        /* \"#utility.yul\":21438:22833   */\n      pop\n      pop\n      jump\t// out\n        /* \"#utility.yul\":22839:22998   */\n    tag_244:\n        /* \"#utility.yul\":22979:22990   */\n      0x4e6f74206f776e65720000000000000000000000000000000000000000000000\n        /* \"#utility.yul\":22975:22976   */\n      0x00\n        /* \"#utility.yul\":22967:22973   */\n      dup3\n        /* \"#utility.yul\":22963:22977   */\n      add\n        /* \"#utility.yul\":22956:22991   */\n      mstore\n        /* \"#utility.yul\":22839:22998   */\n      pop\n      jump\t// out\n        /* \"#utility.yul\":23004:23369   */\n    tag_245:\n        /* \"#utility.yul\":23146:23149   */\n      0x00\n        /* \"#utility.yul\":23167:23233   */\n      tag_489\n        /* \"#utility.yul\":23231:23232   */\n      0x09\n        /* \"#utility.yul\":23226:23229   */\n      dup4\n        /* \"#utility.yul\":23167:23233   */\n      tag_182\n      jump\t// in\n    tag_489:\n        /* \"#utility.yul\":23160:23233   */\n      swap2\n      pop\n        /* \"#utility.yul\":23242:23335   */\n      tag_490\n        /* \"#utility.yul\":23331:23334   */\n      dup3\n        /* \"#utility.yul\":23242:23335   */\n      tag_244\n      jump\t// in\n    tag_490:\n        /* \"#utility.yul\":23360:23362   */\n      0x20\n        /* \"#utility.yul\":23355:23358   */\n      dup3\n        /* \"#utility.yul\":23351:23363   */\n      add\n        /* \"#utility.yul\":23344:23363   */\n      swap1\n      pop\n        /* \"#utility.yul\":23004:23369   */\n      swap2\n      swap1\n      pop\n      jump\t// out\n        /* \"#utility.yul\":23375:23794   */\n    tag_156:\n        /* \"#utility.yul\":23541:23545   */\n      0x00\n        /* \"#utility.yul\":23579:23581   */\n      0x20\n        /* \"#utility.yul\":23568:23577   */\n      dup3\n        /* \"#utility.yul\":23564:23582   */\n      add\n        /* \"#utility.yul\":23556:23582   */\n      swap1\n      pop\n        /* \"#utility.yul\":23628:23637   */\n      dup2\n        /* \"#utility.yul\":23622:23626   */\n      dup2\n        /* \"#utility.yul\":23618:23638   */\n      sub\n        /* \"#utility.yul\":23614:23615   */\n      0x00\n        /* \"#utility.yul\":23603:23612   */\n      dup4\n        /* \"#utility.yul\":23599:23616   */\n      add\n        /* \"#utility.yul\":23592:23639   */\n      mstore\n        /* \"#utility.yul\":23656:23787   */\n      tag_492\n        /* \"#utility.yul\":23782:23786   */\n      dup2\n        /* \"#utility.yul\":23656:23787   */\n      tag_245\n      jump\t// in\n    tag_492:\n        /* \"#utility.yul\":23648:23787   */\n      swap1\n      pop\n        /* \"#utility.yul\":23375:23794   */\n      swap2\n      swap1\n      pop\n      jump\t// out\n        /* \"#utility.yul\":23800:23994   */\n    tag_160:\n        /* \"#utility.yul\":23840:23844   */\n      0x00\n        /* \"#utility.yul\":23860:23880   */\n      tag_494\n        /* \"#utility.yul\":23878:23879   */\n      dup3\n        /* \"#utility.yul\":23860:23880   */\n      tag_189\n      jump\t// in\n    tag_494:\n        /* \"#utility.yul\":23855:23880   */\n      swap2\n      pop\n        /* \"#utility.yul\":23894:23914   */\n      tag_495\n        /* \"#utility.yul\":23912:23913   */\n      dup4\n        /* \"#utility.yul\":23894:23914   */\n      tag_189\n      jump\t// in\n    tag_495:\n        /* \"#utility.yul\":23889:23914   */\n      swap3\n      pop\n        /* \"#utility.yul\":23938:23939   */\n      dup3\n        /* \"#utility.yul\":23935:23936   */\n      dup3\n        /* \"#utility.yul\":23931:23940   */\n      sub\n        /* \"#utility.yul\":23923:23940   */\n      swap1\n      pop\n        /* \"#utility.yul\":23962:23963   */\n      dup2\n        /* \"#utility.yul\":23956:23960   */\n      dup2\n        /* \"#utility.yul\":23953:23964   */\n      gt\n        /* \"#utility.yul\":23950:23987   */\n      iszero\n      tag_496\n      jumpi\n        /* \"#utility.yul\":23967:23985   */\n      tag_497\n      tag_228\n      jump\t// in\n    tag_497:\n        /* \"#utility.yul\":23950:23987   */\n    tag_496:\n        /* \"#utility.yul\":23800:23994   */\n      swap3\n      swap2\n      pop\n      pop\n      jump\t// out\n        /* \"#utility.yul\":24000:24168   */\n    tag_246:\n        /* \"#utility.yul\":24140:24160   */\n      0x4e6f742045524337323152656365697665720000000000000000000000000000\n        /* \"#utility.yul\":24136:24137   */\n      0x00\n        /* \"#utility.yul\":24128:24134   */\n      dup3\n        /* \"#utility.yul\":24124:24138   */\n      add\n        /* \"#utility.yul\":24117:24161   */\n      mstore\n        /* \"#utility.yul\":24000:24168   */\n      pop\n      jump\t// out\n        /* \"#utility.yul\":24174:24540   */\n    tag_247:\n        /* \"#utility.yul\":24316:24319   */\n      0x00\n        /* \"#utility.yul\":24337:24404   */\n      tag_500\n        /* \"#utility.yul\":24401:24403   */\n      0x12\n        /* \"#utility.yul\":24396:24399   */\n      dup4\n        /* \"#utility.yul\":24337:24404   */\n      tag_182\n      jump\t// in\n    tag_500:\n        /* \"#utility.yul\":24330:24404   */\n      swap2\n      pop\n        /* \"#utility.yul\":24413:24506   */\n      tag_501\n        /* \"#utility.yul\":24502:24505   */\n      dup3\n        /* \"#utility.yul\":24413:24506   */\n      tag_246\n      jump\t// in\n    tag_501:\n        /* \"#utility.yul\":24531:24533   */\n      0x20\n        /* \"#utility.yul\":24526:24529   */\n      dup3\n        /* \"#utility.yul\":24522:24534   */\n      add\n        /* \"#utility.yul\":24515:24534   */\n      swap1\n      pop\n        /* \"#utility.yul\":24174:24540   */\n      swap2\n      swap1\n      pop\n      jump\t// out\n        /* \"#utility.yul\":24546:24965   */\n    tag_168:\n        /* \"#utility.yul\":24712:24716   */\n      0x00\n        /* \"#utility.yul\":24750:24752   */\n      0x20\n        /* \"#utility.yul\":24739:24748   */\n      dup3\n        /* \"#utility.yul\":24735:24753   */\n      add\n        /* \"#utility.yul\":24727:24753   */\n      swap1\n      pop\n        /* \"#utility.yul\":24799:24808   */\n      dup2\n        /* \"#utility.yul\":24793:24797   */\n      dup2\n        /* \"#utility.yul\":24789:24809   */\n      sub\n        /* \"#utility.yul\":24785:24786   */\n      0x00\n        /* \"#utility.yul\":24774:24783   */\n      dup4\n        /* \"#utility.yul\":24770:24787   */\n      add\n        /* \"#utility.yul\":24763:24810   */\n      mstore\n        /* \"#utility.yul\":24827:24958   */\n      tag_503\n        /* \"#utility.yul\":24953:24957   */\n      dup2\n        /* \"#utility.yul\":24827:24958   */\n      tag_247\n      jump\t// in\n    tag_503:\n        /* \"#utility.yul\":24819:24958   */\n      swap1\n      pop\n        /* \"#utility.yul\":24546:24965   */\n      swap2\n      swap1\n      pop\n      jump\t// out\n        /* \"#utility.yul\":24971:25069   */\n    tag_248:\n        /* \"#utility.yul\":25022:25028   */\n      0x00\n        /* \"#utility.yul\":25056:25061   */\n      dup2\n        /* \"#utility.yul\":25050:25062   */\n      mload\n        /* \"#utility.yul\":25040:25062   */\n      swap1\n      pop\n        /* \"#utility.yul\":24971:25069   */\n      swap2\n      swap1\n      pop\n      jump\t// out\n        /* \"#utility.yul\":25075:25448   */\n    tag_249:\n        /* \"#utility.yul\":25161:25164   */\n      0x00\n        /* \"#utility.yul\":25189:25227   */\n      tag_506\n        /* \"#utility.yul\":25221:25226   */\n      dup3\n        /* \"#utility.yul\":25189:25227   */\n      tag_248\n      jump\t// in\n    tag_506:\n        /* \"#utility.yul\":25243:25313   */\n      tag_507\n        /* \"#utility.yul\":25306:25312   */\n      dup2\n        /* \"#utility.yul\":25301:25304   */\n      dup6\n        /* \"#utility.yul\":25243:25313   */\n      tag_221\n      jump\t// in\n    tag_507:\n        /* \"#utility.yul\":25236:25313   */\n      swap4\n      pop\n        /* \"#utility.yul\":25322:25387   */\n      tag_508\n        /* \"#utility.yul\":25380:25386   */\n      dup2\n        /* \"#utility.yul\":25375:25378   */\n      dup6\n        /* \"#utility.yul\":25368:25372   */\n      0x20\n        /* \"#utility.yul\":25361:25366   */\n      dup7\n        /* \"#utility.yul\":25357:25373   */\n      add\n        /* \"#utility.yul\":25322:25387   */\n      tag_183\n      jump\t// in\n    tag_508:\n        /* \"#utility.yul\":25412:25441   */\n      tag_509\n        /* \"#utility.yul\":25434:25440   */\n      dup2\n        /* \"#utility.yul\":25412:25441   */\n      tag_184\n      jump\t// in\n    tag_509:\n        /* \"#utility.yul\":25407:25410   */\n      dup5\n        /* \"#utility.yul\":25403:25442   */\n      add\n        /* \"#utility.yul\":25396:25442   */\n      swap2\n      pop\n        /* \"#utility.yul\":25165:25448   */\n      pop\n        /* \"#utility.yul\":25075:25448   */\n      swap3\n      swap2\n      pop\n      pop\n      jump\t// out\n        /* \"#utility.yul\":25454:26094   */\n    tag_172:\n        /* \"#utility.yul\":25649:25653   */\n      0x00\n        /* \"#utility.yul\":25687:25690   */\n      0x80\n        /* \"#utility.yul\":25676:25685   */\n      dup3\n        /* \"#utility.yul\":25672:25691   */\n      add\n        /* \"#utility.yul\":25664:25691   */\n      swap1\n      pop\n        /* \"#utility.yul\":25701:25772   */\n      tag_511\n        /* \"#utility.yul\":25769:25770   */\n      0x00\n        /* \"#utility.yul\":25758:25767   */\n      dup4\n        /* \"#utility.yul\":25754:25771   */\n      add\n        /* \"#utility.yul\":25745:25751   */\n      dup8\n        /* \"#utility.yul\":25701:25772   */\n      tag_194\n      jump\t// in\n    tag_511:\n        /* \"#utility.yul\":25782:25854   */\n      tag_512\n        /* \"#utility.yul\":25850:25852   */\n      0x20\n        /* \"#utility.yul\":25839:25848   */\n      dup4\n        /* \"#utility.yul\":25835:25853   */\n      add\n        /* \"#utility.yul\":25826:25832   */\n      dup7\n        /* \"#utility.yul\":25782:25854   */\n      tag_194\n      jump\t// in\n    tag_512:\n        /* \"#utility.yul\":25864:25936   */\n      tag_513\n        /* \"#utility.yul\":25932:25934   */\n      0x40\n        /* \"#utility.yul\":25921:25930   */\n      dup4\n        /* \"#utility.yul\":25917:25935   */\n      add\n        /* \"#utility.yul\":25908:25914   */\n      dup6\n        /* \"#utility.yul\":25864:25936   */\n      tag_197\n      jump\t// in\n    tag_513:\n        /* \"#utility.yul\":25983:25992   */\n      dup2\n        /* \"#utility.yul\":25977:25981   */\n      dup2\n        /* \"#utility.yul\":25973:25993   */\n      sub\n        /* \"#utility.yul\":25968:25970   */\n      0x60\n        /* \"#utility.yul\":25957:25966   */\n      dup4\n        /* \"#utility.yul\":25953:25971   */\n      add\n        /* \"#utility.yul\":25946:25994   */\n      mstore\n        /* \"#utility.yul\":26011:26087   */\n      tag_514\n        /* \"#utility.yul\":26082:26086   */\n      dup2\n        /* \"#utility.yul\":26073:26079   */\n      dup5\n        /* \"#utility.yul\":26011:26087   */\n      tag_249\n      jump\t// in\n    tag_514:\n        /* \"#utility.yul\":26003:26087   */\n      swap1\n      pop\n        /* \"#utility.yul\":25454:26094   */\n      swap6\n      swap5\n      pop\n      pop\n      pop\n      pop\n      pop\n      jump\t// out\n        /* \"#utility.yul\":26100:26249   */\n    tag_250:\n        /* \"#utility.yul\":26136:26143   */\n      0x00\n        /* \"#utility.yul\":26176:26242   */\n      0xffffffff00000000000000000000000000000000000000000000000000000000\n        /* \"#utility.yul\":26169:26174   */\n      dup3\n        /* \"#utility.yul\":26165:26243   */\n      and\n        /* \"#utility.yul\":26154:26243   */\n      swap1\n      pop\n        /* \"#utility.yul\":26100:26249   */\n      swap2\n      swap1\n      pop\n      jump\t// out\n        /* \"#utility.yul\":26255:26375   */\n    tag_251:\n        /* \"#utility.yul\":26327:26350   */\n      tag_517\n        /* \"#utility.yul\":26344:26349   */\n      dup2\n        /* \"#utility.yul\":26327:26350   */\n      tag_250\n      jump\t// in\n    tag_517:\n        /* \"#utility.yul\":26320:26325   */\n      dup2\n        /* \"#utility.yul\":26317:26351   */\n      eq\n        /* \"#utility.yul\":26307:26369   */\n      tag_518\n      jumpi\n        /* \"#utility.yul\":26365:26366   */\n      0x00\n        /* \"#utility.yul\":26362:26363   */\n      0x00\n        /* \"#utility.yul\":26355:26367   */\n      revert\n        /* \"#utility.yul\":26307:26369   */\n    tag_518:\n        /* \"#utility.yul\":26255:26375   */\n      pop\n      jump\t// out\n        /* \"#utility.yul\":26381:26522   */\n    tag_252:\n        /* \"#utility.yul\":26437:26442   */\n      0x00\n        /* \"#utility.yul\":26468:26474   */\n      dup2\n        /* \"#utility.yul\":26462:26475   */\n      mload\n        /* \"#utility.yul\":26453:26475   */\n      swap1\n      pop\n        /* \"#utility.yul\":26484:26516   */\n      tag_520\n        /* \"#utility.yul\":26510:26515   */\n      dup2\n        /* \"#utility.yul\":26484:26516   */\n      tag_251\n      jump\t// in\n    tag_520:\n        /* \"#utility.yul\":26381:26522   */\n      swap3\n      swap2\n      pop\n      pop\n      jump\t// out\n        /* \"#utility.yul\":26528:26877   */\n    tag_175:\n        /* \"#utility.yul\":26597:26603   */\n      0x00\n        /* \"#utility.yul\":26646:26648   */\n      0x20\n        /* \"#utility.yul\":26634:26643   */\n      dup3\n        /* \"#utility.yul\":26625:26632   */\n      dup5\n        /* \"#utility.yul\":26621:26644   */\n      sub\n        /* \"#utility.yul\":26617:26649   */\n      slt\n        /* \"#utility.yul\":26614:26733   */\n      iszero\n      tag_522\n      jumpi\n        /* \"#utility.yul\":26652:26731   */\n      tag_523\n      tag_187\n      jump\t// in\n    tag_523:\n        /* \"#utility.yul\":26614:26733   */\n    tag_522:\n        /* \"#utility.yul\":26772:26773   */\n      0x00\n        /* \"#utility.yul\":26797:26860   */\n      tag_524\n        /* \"#utility.yul\":26852:26859   */\n      dup5\n        /* \"#utility.yul\":26843:26849   */\n      dup3\n        /* \"#utility.yul\":26832:26841   */\n      dup6\n        /* \"#utility.yul\":26828:26850   */\n      add\n        /* \"#utility.yul\":26797:26860   */\n      tag_252\n      jump\t// in\n    tag_524:\n        /* \"#utility.yul\":26787:26860   */\n      swap2\n      pop\n        /* \"#utility.yul\":26743:26870   */\n      pop\n        /* \"#utility.yul\":26528:26877   */\n      swap3\n      swap2\n      pop\n      pop\n      jump\t// out\n\n    auxdata: 0xa2646970667358221220267297ee5f0be96ab6fc5ce49c3a3fa4ecd58411a6ae7a4d5fbc5b798e8f60bf64736f6c634300081e0033\n}\n",
				"bytecode": {
					"linkReferences": {},
					"object": "60806040526001600255348015610014575f5ffd5b506040516124bd3803806124bd833981810160405281019061003691906101a9565b815f9081610044919061042f565b508060019081610054919061042f565b5050506104fe565b5f604051905090565b5f5ffd5b5f5ffd5b5f5ffd5b5f5ffd5b5f601f19601f8301169050919050565b7f4e487b71000000000000000000000000000000000000000000000000000000005f52604160045260245ffd5b6100bb82610075565b810181811067ffffffffffffffff821117156100da576100d9610085565b5b80604052505050565b5f6100ec61005c565b90506100f882826100b2565b919050565b5f67ffffffffffffffff82111561011757610116610085565b5b61012082610075565b9050602081019050919050565b8281835e5f83830152505050565b5f61014d610148846100fd565b6100e3565b90508281526020810184848401111561016957610168610071565b5b61017484828561012d565b509392505050565b5f82601f8301126101905761018f61006d565b5b81516101a084826020860161013b565b91505092915050565b5f5f604083850312156101bf576101be610065565b5b5f83015167ffffffffffffffff8111156101dc576101db610069565b5b6101e88582860161017c565b925050602083015167ffffffffffffffff81111561020957610208610069565b5b6102158582860161017c565b9150509250929050565b5f81519050919050565b7f4e487b71000000000000000000000000000000000000000000000000000000005f52602260045260245ffd5b5f600282049050600182168061026d57607f821691505b6020821081036102805761027f610229565b5b50919050565b5f819050815f5260205f209050919050565b5f6020601f8301049050919050565b5f82821b905092915050565b5f600883026102e27fffffffffffffffffffffffffffffffffffffffffffffffffffffffffffffffff826102a7565b6102ec86836102a7565b95508019841693508086168417925050509392505050565b5f819050919050565b5f819050919050565b5f61033061032b61032684610304565b61030d565b610304565b9050919050565b5f819050919050565b61034983610316565b61035d61035582610337565b8484546102b3565b825550505050565b5f5f905090565b610374610365565b61037f818484610340565b505050565b5b818110156103a2576103975f8261036c565b600181019050610385565b5050565b601f8211156103e7576103b881610286565b6103c184610298565b810160208510156103d0578190505b6103e46103dc85610298565b830182610384565b50505b505050565b5f82821c905092915050565b5f6104075f19846008026103ec565b1980831691505092915050565b5f61041f83836103f8565b9150826002028217905092915050565b6104388261021f565b67ffffffffffffffff81111561045157610450610085565b5b61045b8254610256565b6104668282856103a6565b5f60209050601f831160018114610497575f8415610485578287015190505b61048f8582610414565b8655506104f6565b601f1984166104a586610286565b5f5b828110156104cc578489015182556001820191506020850194506020810190506104a7565b868310156104e957848901516104e5601f8916826103f8565b8355505b6001600288020188555050505b505050505050565b611fb28061050b5f395ff3fe608060405234801561000f575f5ffd5b50600436106100cd575f3560e01c806370a082311161008a578063b88d4fde11610064578063b88d4fde1461020d578063c87b56dd14610229578063d0def52114610259578063e985e9c514610275576100cd565b806370a08231146101a357806395d89b41146101d3578063a22cb465146101f1576100cd565b806306fdde03146100d1578063081812fc146100ef578063095ea7b31461011f57806323b872dd1461013b57806342842e0e146101575780636352211e14610173575b5f5ffd5b6100d96102a5565b6040516100e69190611245565b60405180910390f35b610109600480360381019061010491906112a9565b610330565b6040516101169190611313565b60405180910390f35b61013960048036038101906101349190611356565b610407565b005b61015560048036038101906101509190611394565b6105af565b005b610171600480360381019061016c9190611394565b610608565b005b61018d600480360381019061018891906112a9565b610677565b60405161019a9190611313565b60405180910390f35b6101bd60048036038101906101b891906113e4565b610723565b6040516101ca919061141e565b60405180910390f35b6101db6107d7565b6040516101e89190611245565b60405180910390f35b61020b6004803603810190610206919061146c565b610863565b005b6102276004803603810190610222919061150b565b6109c9565b005b610243600480360381019061023e91906112a9565b610a68565b6040516102509190611245565b60405180910390f35b610273600480360381019061026e91906116b7565b610ba7565b005b61028f600480360381019061028a9190611711565b610ce6565b60405161029c919061175e565b60405180910390f35b5f80546102b1906117a4565b80601f01602080910402602001604051908101604052809291908181526020018280546102dd906117a4565b80156103285780601f106102ff57610100808354040283529160200191610328565b820191905f5260205f20905b81548152906001019060200180831161030b57829003601f168201915b505050505081565b5f5f73ffffffffffffffffffffffffffffffffffffffff1660035f8481526020019081526020015f205f9054906101000a900473ffffffffffffffffffffffffffffffffffffffff1673ffffffffffffffffffffffffffffffffffffffff16036103cf576040517f08c379a00000000000000000000000000000000000000000000000000000000081526004016103c69061181e565b60405180910390fd5b60055f8381526020019081526020015f205f9054906101000a900473ffffffffffffffffffffffffffffffffffffffff169050919050565b5f61041182610677565b90508073ffffffffffffffffffffffffffffffffffffffff168373ffffffffffffffffffffffffffffffffffffffff1603610481576040517f08c379a000000000000000000000000000000000000000000000000000000000815260040161047890611886565b60405180910390fd5b8073ffffffffffffffffffffffffffffffffffffffff163373ffffffffffffffffffffffffffffffffffffffff1614806104c157506104c08133610ce6565b5b610500576040517f08c379a00000000000000000000000000000000000000000000000000000000081526004016104f7906118ee565b60405180910390fd5b8260055f8481526020019081526020015f205f6101000a81548173ffffffffffffffffffffffffffffffffffffffff021916908373ffffffffffffffffffffffffffffffffffffffff160217905550818373ffffffffffffffffffffffffffffffffffffffff168273ffffffffffffffffffffffffffffffffffffffff167f8c5be1e5ebec7d5bd14f71427d1e84f3dd0314c0f7b2291e5b200ac8c7c3b92560405160405180910390a4505050565b6105b93382610d74565b6105f8576040517f08c379a00000000000000000000000000000000000000000000000000000000081526004016105ef906118ee565b60405180910390fd5b610603838383610e08565b505050565b3073ffffffffffffffffffffffffffffffffffffffff1663b88d4fde8484846040518463ffffffff1660e01b81526004016106459392919061193f565b5f604051808303815f87803b15801561065c575f5ffd5b505af115801561066e573d5f5f3e3d5ffd5b50505050505050565b5f5f60035f8481526020019081526020015f205f9054906101000a900473ffffffffffffffffffffffffffffffffffffffff1690505f73ffffffffffffffffffffffffffffffffffffffff168173ffffffffffffffffffffffffffffffffffffffff160361071a576040517f08c379a00000000000000000000000000000000000000000000000000000000081526004016107119061181e565b60405180910390fd5b80915050919050565b5f5f73ffffffffffffffffffffffffffffffffffffffff168273ffffffffffffffffffffffffffffffffffffffff1603610792576040517f08c379a0000000000000000000000000000000000000000000000000000000008152600401610789906119d1565b60405180910390fd5b60045f8373ffffffffffffffffffffffffffffffffffffffff1673ffffffffffffffffffffffffffffffffffffffff1681526020019081526020015f20549050919050565b600180546107e4906117a4565b80601f0160208091040260200160405190810160405280929190818152602001828054610810906117a4565b801561085b5780601f106108325761010080835404028352916020019161085b565b820191905f5260205f20905b81548152906001019060200180831161083e57829003601f168201915b505050505081565b3373ffffffffffffffffffffffffffffffffffffffff168273ffffffffffffffffffffffffffffffffffffffff16036108d1576040517f08c379a00000000000000000000000000000000000000000000000000000000081526004016108c890611a39565b60405180910390fd5b8060065f3373ffffffffffffffffffffffffffffffffffffffff1673ffffffffffffffffffffffffffffffffffffffff1681526020019081526020015f205f8473ffffffffffffffffffffffffffffffffffffffff1673ffffffffffffffffffffffffffffffffffffffff1681526020019081526020015f205f6101000a81548160ff0219169083151502179055508173ffffffffffffffffffffffffffffffffffffffff163373ffffffffffffffffffffffffffffffffffffffff167f17307eab39ab6107e8899845ad3d59bd9653f200f220920489ca2b5937696c31836040516109bd919061175e565b60405180910390a35050565b6109d33384610d74565b610a12576040517f08c379a0000000000000000000000000000000000000000000000000000000008152600401610a09906118ee565b60405180910390fd5b610a6185858585858080601f0160208091040260200160405190810160405280939291908181526020018383808284375f81840152601f19601f82011690508083019250505050505050611076565b5050505050565b60605f73ffffffffffffffffffffffffffffffffffffffff1660035f8481526020019081526020015f205f9054906101000a900473ffffffffffffffffffffffffffffffffffffffff1673ffffffffffffffffffffffffffffffffffffffff1603610b08576040517f08c379a0000000000000000000000000000000000000000000000000000000008152600401610aff9061181e565b60405180910390fd5b60075f8381526020019081526020015f208054610b24906117a4565b80601f0160208091040260200160405190810160405280929190818152602001828054610b50906117a4565b8015610b9b5780601f10610b7257610100808354040283529160200191610b9b565b820191905f5260205f20905b815481529060010190602001808311610b7e57829003601f168201915b50505050509050919050565b5f600254905060025f815480929190610bbf90611a84565b91905055508260035f8381526020019081526020015f205f6101000a81548173ffffffffffffffffffffffffffffffffffffffff021916908373ffffffffffffffffffffffffffffffffffffffff160217905550600160045f8573ffffffffffffffffffffffffffffffffffffffff1673ffffffffffffffffffffffffffffffffffffffff1681526020019081526020015f205f828254610c609190611acb565b925050819055508160075f8381526020019081526020015f209081610c859190611c9e565b50808373ffffffffffffffffffffffffffffffffffffffff165f73ffffffffffffffffffffffffffffffffffffffff167fddf252ad1be2c89b69c2b068fc378daa952ba7f163c4a11628f55a4df523b3ef60405160405180910390a4505050565b5f60065f8473ffffffffffffffffffffffffffffffffffffffff1673ffffffffffffffffffffffffffffffffffffffff1681526020019081526020015f205f8373ffffffffffffffffffffffffffffffffffffffff1673ffffffffffffffffffffffffffffffffffffffff1681526020019081526020015f205f9054906101000a900460ff16905092915050565b5f5f610d7f83610677565b90508073ffffffffffffffffffffffffffffffffffffffff168473ffffffffffffffffffffffffffffffffffffffff161480610dee57508373ffffffffffffffffffffffffffffffffffffffff16610dd684610330565b73ffffffffffffffffffffffffffffffffffffffff16145b80610dff5750610dfe8185610ce6565b5b91505092915050565b8273ffffffffffffffffffffffffffffffffffffffff16610e2882610677565b73ffffffffffffffffffffffffffffffffffffffff1614610e7e576040517f08c379a0000000000000000000000000000000000000000000000000000000008152600401610e7590611db7565b60405180910390fd5b5f73ffffffffffffffffffffffffffffffffffffffff168273ffffffffffffffffffffffffffffffffffffffff1603610eec576040517f08c379a0000000000000000000000000000000000000000000000000000000008152600401610ee3906119d1565b60405180910390fd5b600160045f8573ffffffffffffffffffffffffffffffffffffffff1673ffffffffffffffffffffffffffffffffffffffff1681526020019081526020015f205f828254610f399190611dd5565b92505081905550600160045f8473ffffffffffffffffffffffffffffffffffffffff1673ffffffffffffffffffffffffffffffffffffffff1681526020019081526020015f205f828254610f8d9190611acb565b925050819055508160035f8381526020019081526020015f205f6101000a81548173ffffffffffffffffffffffffffffffffffffffff021916908373ffffffffffffffffffffffffffffffffffffffff16021790555060055f8281526020019081526020015f205f6101000a81549073ffffffffffffffffffffffffffffffffffffffff0219169055808273ffffffffffffffffffffffffffffffffffffffff168473ffffffffffffffffffffffffffffffffffffffff167fddf252ad1be2c89b69c2b068fc378daa952ba7f163c4a11628f55a4df523b3ef60405160405180910390a4505050565b611081848484610e08565b61108d848484846110d2565b6110cc576040517f08c379a00000000000000000000000000000000000000000000000000000000081526004016110c390611e52565b60405180910390fd5b50505050565b5f5f8473ffffffffffffffffffffffffffffffffffffffff163b11156111c8578373ffffffffffffffffffffffffffffffffffffffff1663150b7a02338786866040518563ffffffff1660e01b81526004016111319493929190611eb2565b6020604051808303815f875af192505050801561116c57506040513d601f19601f820116820180604052508101906111699190611f51565b60015b611178575f90506111cd565b63150b7a0260e01b7bffffffffffffffffffffffffffffffffffffffffffffffffffffffff1916817bffffffffffffffffffffffffffffffffffffffffffffffffffffffff1916149150506111cd565b600190505b949350505050565b5f81519050919050565b5f82825260208201905092915050565b8281835e5f83830152505050565b5f601f19601f8301169050919050565b5f611217826111d5565b61122181856111df565b93506112318185602086016111ef565b61123a816111fd565b840191505092915050565b5f6020820190508181035f83015261125d818461120d565b905092915050565b5f604051905090565b5f5ffd5b5f5ffd5b5f819050919050565b61128881611276565b8114611292575f5ffd5b50565b5f813590506112a38161127f565b92915050565b5f602082840312156112be576112bd61126e565b5b5f6112cb84828501611295565b91505092915050565b5f73ffffffffffffffffffffffffffffffffffffffff82169050919050565b5f6112fd826112d4565b9050919050565b61130d816112f3565b82525050565b5f6020820190506113265f830184611304565b92915050565b611335816112f3565b811461133f575f5ffd5b50565b5f813590506113508161132c565b92915050565b5f5f6040838503121561136c5761136b61126e565b5b5f61137985828601611342565b925050602061138a85828601611295565b9150509250929050565b5f5f5f606084860312156113ab576113aa61126e565b5b5f6113b886828701611342565b93505060206113c986828701611342565b92505060406113da86828701611295565b9150509250925092565b5f602082840312156113f9576113f861126e565b5b5f61140684828501611342565b91505092915050565b61141881611276565b82525050565b5f6020820190506114315f83018461140f565b92915050565b5f8115159050919050565b61144b81611437565b8114611455575f5ffd5b50565b5f8135905061146681611442565b92915050565b5f5f604083850312156114825761148161126e565b5b5f61148f85828601611342565b92505060206114a085828601611458565b9150509250929050565b5f5ffd5b5f5ffd5b5f5ffd5b5f5f83601f8401126114cb576114ca6114aa565b5b8235905067ffffffffffffffff8111156114e8576114e76114ae565b5b602083019150836001820283011115611504576115036114b2565b5b9250929050565b5f5f5f5f5f608086880312156115245761152361126e565b5b5f61153188828901611342565b955050602061154288828901611342565b945050604061155388828901611295565b935050606086013567ffffffffffffffff81111561157457611573611272565b5b611580888289016114b6565b92509250509295509295909350565b5f5ffd5b7f4e487b71000000000000000000000000000000000000000000000000000000005f52604160045260245ffd5b6115c9826111fd565b810181811067ffffffffffffffff821117156115e8576115e7611593565b5b80604052505050565b5f6115fa611265565b905061160682826115c0565b919050565b5f67ffffffffffffffff82111561162557611624611593565b5b61162e826111fd565b9050602081019050919050565b828183375f83830152505050565b5f61165b6116568461160b565b6115f1565b9050828152602081018484840111156116775761167661158f565b5b61168284828561163b565b509392505050565b5f82601f83011261169e5761169d6114aa565b5b81356116ae848260208601611649565b91505092915050565b5f5f604083850312156116cd576116cc61126e565b5b5f6116da85828601611342565b925050602083013567ffffffffffffffff8111156116fb576116fa611272565b5b6117078582860161168a565b9150509250929050565b5f5f604083850312156117275761172661126e565b5b5f61173485828601611342565b925050602061174585828601611342565b9150509250929050565b61175881611437565b82525050565b5f6020820190506117715f83018461174f565b92915050565b7f4e487b71000000000000000000000000000000000000000000000000000000005f52602260045260245ffd5b5f60028204905060018216806117bb57607f821691505b6020821081036117ce576117cd611777565b5b50919050565b7f546f6b656e20646f65736e2774206578697374000000000000000000000000005f82015250565b5f6118086013836111df565b9150611813826117d4565b602082019050919050565b5f6020820190508181035f830152611835816117fc565b9050919050565b7f416c7265616479206f776e6572000000000000000000000000000000000000005f82015250565b5f611870600d836111df565b915061187b8261183c565b602082019050919050565b5f6020820190508181035f83015261189d81611864565b9050919050565b7f4e6f7420617574686f72697a65640000000000000000000000000000000000005f82015250565b5f6118d8600e836111df565b91506118e3826118a4565b602082019050919050565b5f6020820190508181035f830152611905816118cc565b9050919050565b5f82825260208201905092915050565b50565b5f61192a5f8361190c565b91506119358261191c565b5f82019050919050565b5f6080820190506119525f830186611304565b61195f6020830185611304565b61196c604083018461140f565b818103606083015261197d8161191f565b9050949350505050565b7f5a65726f206164647265737300000000000000000000000000000000000000005f82015250565b5f6119bb600c836111df565b91506119c682611987565b602082019050919050565b5f6020820190508181035f8301526119e8816119af565b9050919050565b7f53656c6620617070726f76616c000000000000000000000000000000000000005f82015250565b5f611a23600d836111df565b9150611a2e826119ef565b602082019050919050565b5f6020820190508181035f830152611a5081611a17565b9050919050565b7f4e487b71000000000000000000000000000000000000000000000000000000005f52601160045260245ffd5b5f611a8e82611276565b91507fffffffffffffffffffffffffffffffffffffffffffffffffffffffffffffffff8203611ac057611abf611a57565b5b600182019050919050565b5f611ad582611276565b9150611ae083611276565b9250828201905080821115611af857611af7611a57565b5b92915050565b5f819050815f5260205f209050919050565b5f6020601f8301049050919050565b5f82821b905092915050565b5f60088302611b5a7fffffffffffffffffffffffffffffffffffffffffffffffffffffffffffffffff82611b1f565b611b648683611b1f565b95508019841693508086168417925050509392505050565b5f819050919050565b5f611b9f611b9a611b9584611276565b611b7c565b611276565b9050919050565b5f819050919050565b611bb883611b85565b611bcc611bc482611ba6565b848454611b2b565b825550505050565b5f5f905090565b611be3611bd4565b611bee818484611baf565b505050565b5b81811015611c1157611c065f82611bdb565b600181019050611bf4565b5050565b601f821115611c5657611c2781611afe565b611c3084611b10565b81016020851015611c3f578190505b611c53611c4b85611b10565b830182611bf3565b50505b505050565b5f82821c905092915050565b5f611c765f1984600802611c5b565b1980831691505092915050565b5f611c8e8383611c67565b9150826002028217905092915050565b611ca7826111d5565b67ffffffffffffffff811115611cc057611cbf611593565b5b611cca82546117a4565b611cd5828285611c15565b5f60209050601f831160018114611d06575f8415611cf4578287015190505b611cfe8582611c83565b865550611d65565b601f198416611d1486611afe565b5f5b82811015611d3b57848901518255600182019150602085019450602081019050611d16565b86831015611d585784890151611d54601f891682611c67565b8355505b6001600288020188555050505b505050505050565b7f4e6f74206f776e657200000000000000000000000000000000000000000000005f82015250565b5f611da16009836111df565b9150611dac82611d6d565b602082019050919050565b5f6020820190508181035f830152611dce81611d95565b9050919050565b5f611ddf82611276565b9150611dea83611276565b9250828203905081811115611e0257611e01611a57565b5b92915050565b7f4e6f7420455243373231526563656976657200000000000000000000000000005f82015250565b5f611e3c6012836111df565b9150611e4782611e08565b602082019050919050565b5f6020820190508181035f830152611e6981611e30565b9050919050565b5f81519050919050565b5f611e8482611e70565b611e8e818561190c565b9350611e9e8185602086016111ef565b611ea7816111fd565b840191505092915050565b5f608082019050611ec55f830187611304565b611ed26020830186611304565b611edf604083018561140f565b8181036060830152611ef18184611e7a565b905095945050505050565b5f7fffffffff0000000000000000000000000000000000000000000000000000000082169050919050565b611f3081611efc565b8114611f3a575f5ffd5b50565b5f81519050611f4b81611f27565b92915050565b5f60208284031215611f6657611f6561126e565b5b5f611f7384828501611f3d565b9150509291505056fea2646970667358221220267297ee5f0be96ab6fc5ce49c3a3fa4ecd58411a6ae7a4d5fbc5b798e8f60bf64736f6c634300081e0033",
					"opcodes": "PUSH1 0x80 PUSH1 0x40 MSTORE PUSH1 0x1 PUSH1 0x2 SSTORE CALLVALUE DUP1 ISZERO PUSH2 0x14 JUMPI PUSH0 PUSH0 REVERT JUMPDEST POP PUSH1 0x40 MLOAD PUSH2 0x24BD CODESIZE SUB DUP1 PUSH2 0x24BD DUP4 CODECOPY DUP2 DUP2 ADD PUSH1 0x40 MSTORE DUP2 ADD SWAP1 PUSH2 0x36 SWAP2 SWAP1 PUSH2 0x1A9 JUMP JUMPDEST DUP2 PUSH0 SWAP1 DUP2 PUSH2 0x44 SWAP2 SWAP1 PUSH2 0x42F JUMP JUMPDEST POP DUP1 PUSH1 0x1 SWAP1 DUP2 PUSH2 0x54 SWAP2 SWAP1 PUSH2 0x42F JUMP JUMPDEST POP POP POP PUSH2 0x4FE JUMP JUMPDEST PUSH0 PUSH1 0x40 MLOAD SWAP1 POP SWAP1 JUMP JUMPDEST PUSH0 PUSH0 REVERT JUMPDEST PUSH0 PUSH0 REVERT JUMPDEST PUSH0 PUSH0 REVERT JUMPDEST PUSH0 PUSH0 REVERT JUMPDEST PUSH0 PUSH1 0x1F NOT PUSH1 0x1F DUP4 ADD AND SWAP1 POP SWAP2 SWAP1 POP JUMP JUMPDEST PUSH32 0x4E487B7100000000000000000000000000000000000000000000000000000000 PUSH0 MSTORE PUSH1 0x41 PUSH1 0x4 MSTORE PUSH1 0x24 PUSH0 REVERT JUMPDEST PUSH2 0xBB DUP3 PUSH2 0x75 JUMP JUMPDEST DUP2 ADD DUP2 DUP2 LT PUSH8 0xFFFFFFFFFFFFFFFF DUP3 GT OR ISZERO PUSH2 0xDA JUMPI PUSH2 0xD9 PUSH2 0x85 JUMP JUMPDEST JUMPDEST DUP1 PUSH1 0x40 MSTORE POP POP POP JUMP JUMPDEST PUSH0 PUSH2 0xEC PUSH2 0x5C JUMP JUMPDEST SWAP1 POP PUSH2 0xF8 DUP3 DUP3 PUSH2 0xB2 JUMP JUMPDEST SWAP2 SWAP1 POP JUMP JUMPDEST PUSH0 PUSH8 0xFFFFFFFFFFFFFFFF DUP3 GT ISZERO PUSH2 0x117 JUMPI PUSH2 0x116 PUSH2 0x85 JUMP JUMPDEST JUMPDEST PUSH2 0x120 DUP3 PUSH2 0x75 JUMP JUMPDEST SWAP1 POP PUSH1 0x20 DUP2 ADD SWAP1 POP SWAP2 SWAP1 POP JUMP JUMPDEST DUP3 DUP2 DUP4 MCOPY PUSH0 DUP4 DUP4 ADD MSTORE POP POP POP JUMP JUMPDEST PUSH0 PUSH2 0x14D PUSH2 0x148 DUP5 PUSH2 0xFD JUMP JUMPDEST PUSH2 0xE3 JUMP JUMPDEST SWAP1 POP DUP3 DUP2 MSTORE PUSH1 0x20 DUP2 ADD DUP5 DUP5 DUP5 ADD GT ISZERO PUSH2 0x169 JUMPI PUSH2 0x168 PUSH2 0x71 JUMP JUMPDEST JUMPDEST PUSH2 0x174 DUP5 DUP3 DUP6 PUSH2 0x12D JUMP JUMPDEST POP SWAP4 SWAP3 POP POP POP JUMP JUMPDEST PUSH0 DUP3 PUSH1 0x1F DUP4 ADD SLT PUSH2 0x190 JUMPI PUSH2 0x18F PUSH2 0x6D JUMP JUMPDEST JUMPDEST DUP2 MLOAD PUSH2 0x1A0 DUP5 DUP3 PUSH1 0x20 DUP7 ADD PUSH2 0x13B JUMP JUMPDEST SWAP2 POP POP SWAP3 SWAP2 POP POP JUMP JUMPDEST PUSH0 PUSH0 PUSH1 0x40 DUP4 DUP6 SUB SLT ISZERO PUSH2 0x1BF JUMPI PUSH2 0x1BE PUSH2 0x65 JUMP JUMPDEST JUMPDEST PUSH0 DUP4 ADD MLOAD PUSH8 0xFFFFFFFFFFFFFFFF DUP2 GT ISZERO PUSH2 0x1DC JUMPI PUSH2 0x1DB PUSH2 0x69 JUMP JUMPDEST JUMPDEST PUSH2 0x1E8 DUP6 DUP3 DUP7 ADD PUSH2 0x17C JUMP JUMPDEST SWAP3 POP POP PUSH1 0x20 DUP4 ADD MLOAD PUSH8 0xFFFFFFFFFFFFFFFF DUP2 GT ISZERO PUSH2 0x209 JUMPI PUSH2 0x208 PUSH2 0x69 JUMP JUMPDEST JUMPDEST PUSH2 0x215 DUP6 DUP3 DUP7 ADD PUSH2 0x17C JUMP JUMPDEST SWAP2 POP POP SWAP3 POP SWAP3 SWAP1 POP JUMP JUMPDEST PUSH0 DUP2 MLOAD SWAP1 POP SWAP2 SWAP1 POP JUMP JUMPDEST PUSH32 0x4E487B7100000000000000000000000000000000000000000000000000000000 PUSH0 MSTORE PUSH1 0x22 PUSH1 0x4 MSTORE PUSH1 0x24 PUSH0 REVERT JUMPDEST PUSH0 PUSH1 0x2 DUP3 DIV SWAP1 POP PUSH1 0x1 DUP3 AND DUP1 PUSH2 0x26D JUMPI PUSH1 0x7F DUP3 AND SWAP2 POP JUMPDEST PUSH1 0x20 DUP3 LT DUP2 SUB PUSH2 0x280 JUMPI PUSH2 0x27F PUSH2 0x229 JUMP JUMPDEST JUMPDEST POP SWAP2 SWAP1 POP JUMP JUMPDEST PUSH0 DUP2 SWAP1 POP DUP2 PUSH0 MSTORE PUSH1 0x20 PUSH0 KECCAK256 SWAP1 POP SWAP2 SWAP1 POP JUMP JUMPDEST PUSH0 PUSH1 0x20 PUSH1 0x1F DUP4 ADD DIV SWAP1 POP SWAP2 SWAP1 POP JUMP JUMPDEST PUSH0 DUP3 DUP3 SHL SWAP1 POP SWAP3 SWAP2 POP POP JUMP JUMPDEST PUSH0 PUSH1 0x8 DUP4 MUL PUSH2 0x2E2 PUSH32 0xFFFFFFFFFFFFFFFFFFFFFFFFFFFFFFFFFFFFFFFFFFFFFFFFFFFFFFFFFFFFFFFF DUP3 PUSH2 0x2A7 JUMP JUMPDEST PUSH2 0x2EC DUP7 DUP4 PUSH2 0x2A7 JUMP JUMPDEST SWAP6 POP DUP1 NOT DUP5 AND SWAP4 POP DUP1 DUP7 AND DUP5 OR SWAP3 POP POP POP SWAP4 SWAP3 POP POP POP JUMP JUMPDEST PUSH0 DUP2 SWAP1 POP SWAP2 SWAP1 POP JUMP JUMPDEST PUSH0 DUP2 SWAP1 POP SWAP2 SWAP1 POP JUMP JUMPDEST PUSH0 PUSH2 0x330 PUSH2 0x32B PUSH2 0x326 DUP5 PUSH2 0x304 JUMP JUMPDEST PUSH2 0x30D JUMP JUMPDEST PUSH2 0x304 JUMP JUMPDEST SWAP1 POP SWAP2 SWAP1 POP JUMP JUMPDEST PUSH0 DUP2 SWAP1 POP SWAP2 SWAP1 POP JUMP JUMPDEST PUSH2 0x349 DUP4 PUSH2 0x316 JUMP JUMPDEST PUSH2 0x35D PUSH2 0x355 DUP3 PUSH2 0x337 JUMP JUMPDEST DUP5 DUP5 SLOAD PUSH2 0x2B3 JUMP JUMPDEST DUP3 SSTORE POP POP POP POP JUMP JUMPDEST PUSH0 PUSH0 SWAP1 POP SWAP1 JUMP JUMPDEST PUSH2 0x374 PUSH2 0x365 JUMP JUMPDEST PUSH2 0x37F DUP2 DUP5 DUP5 PUSH2 0x340 JUMP JUMPDEST POP POP POP JUMP JUMPDEST JUMPDEST DUP2 DUP2 LT ISZERO PUSH2 0x3A2 JUMPI PUSH2 0x397 PUSH0 DUP3 PUSH2 0x36C JUMP JUMPDEST PUSH1 0x1 DUP2 ADD SWAP1 POP PUSH2 0x385 JUMP JUMPDEST POP POP JUMP JUMPDEST PUSH1 0x1F DUP3 GT ISZERO PUSH2 0x3E7 JUMPI PUSH2 0x3B8 DUP2 PUSH2 0x286 JUMP JUMPDEST PUSH2 0x3C1 DUP5 PUSH2 0x298 JUMP JUMPDEST DUP2 ADD PUSH1 0x20 DUP6 LT ISZERO PUSH2 0x3D0 JUMPI DUP2 SWAP1 POP JUMPDEST PUSH2 0x3E4 PUSH2 0x3DC DUP6 PUSH2 0x298 JUMP JUMPDEST DUP4 ADD DUP3 PUSH2 0x384 JUMP JUMPDEST POP POP JUMPDEST POP POP POP JUMP JUMPDEST PUSH0 DUP3 DUP3 SHR SWAP1 POP SWAP3 SWAP2 POP POP JUMP JUMPDEST PUSH0 PUSH2 0x407 PUSH0 NOT DUP5 PUSH1 0x8 MUL PUSH2 0x3EC JUMP JUMPDEST NOT DUP1 DUP4 AND SWAP2 POP POP SWAP3 SWAP2 POP POP JUMP JUMPDEST PUSH0 PUSH2 0x41F DUP4 DUP4 PUSH2 0x3F8 JUMP JUMPDEST SWAP2 POP DUP3 PUSH1 0x2 MUL DUP3 OR SWAP1 POP SWAP3 SWAP2 POP POP JUMP JUMPDEST PUSH2 0x438 DUP3 PUSH2 0x21F JUMP JUMPDEST PUSH8 0xFFFFFFFFFFFFFFFF DUP2 GT ISZERO PUSH2 0x451 JUMPI PUSH2 0x450 PUSH2 0x85 JUMP JUMPDEST JUMPDEST PUSH2 0x45B DUP3 SLOAD PUSH2 0x256 JUMP JUMPDEST PUSH2 0x466 DUP3 DUP3 DUP6 PUSH2 0x3A6 JUMP JUMPDEST PUSH0 PUSH1 0x20 SWAP1 POP PUSH1 0x1F DUP4 GT PUSH1 0x1 DUP2 EQ PUSH2 0x497 JUMPI PUSH0 DUP5 ISZERO PUSH2 0x485 JUMPI DUP3 DUP8 ADD MLOAD SWAP1 POP JUMPDEST PUSH2 0x48F DUP6 DUP3 PUSH2 0x414 JUMP JUMPDEST DUP7 SSTORE POP PUSH2 0x4F6 JUMP JUMPDEST PUSH1 0x1F NOT DUP5 AND PUSH2 0x4A5 DUP7 PUSH2 0x286 JUMP JUMPDEST PUSH0 JUMPDEST DUP3 DUP2 LT ISZERO PUSH2 0x4CC JUMPI DUP5 DUP10 ADD MLOAD DUP3 SSTORE PUSH1 0x1 DUP3 ADD SWAP2 POP PUSH1 0x20 DUP6 ADD SWAP5 POP PUSH1 0x20 DUP2 ADD SWAP1 POP PUSH2 0x4A7 JUMP JUMPDEST DUP7 DUP4 LT ISZERO PUSH2 0x4E9 JUMPI DUP5 DUP10 ADD MLOAD PUSH2 0x4E5 PUSH1 0x1F DUP10 AND DUP3 PUSH2 0x3F8 JUMP JUMPDEST DUP4 SSTORE POP JUMPDEST PUSH1 0x1 PUSH1 0x2 DUP9 MUL ADD DUP9 SSTORE POP POP POP JUMPDEST POP POP POP POP POP POP JUMP JUMPDEST PUSH2 0x1FB2 DUP1 PUSH2 0x50B PUSH0 CODECOPY PUSH0 RETURN INVALID PUSH1 0x80 PUSH1 0x40 MSTORE CALLVALUE DUP1 ISZERO PUSH2 0xF JUMPI PUSH0 PUSH0 REVERT JUMPDEST POP PUSH1 0x4 CALLDATASIZE LT PUSH2 0xCD JUMPI PUSH0 CALLDATALOAD PUSH1 0xE0 SHR DUP1 PUSH4 0x70A08231 GT PUSH2 0x8A JUMPI DUP1 PUSH4 0xB88D4FDE GT PUSH2 0x64 JUMPI DUP1 PUSH4 0xB88D4FDE EQ PUSH2 0x20D JUMPI DUP1 PUSH4 0xC87B56DD EQ PUSH2 0x229 JUMPI DUP1 PUSH4 0xD0DEF521 EQ PUSH2 0x259 JUMPI DUP1 PUSH4 0xE985E9C5 EQ PUSH2 0x275 JUMPI PUSH2 0xCD JUMP JUMPDEST DUP1 PUSH4 0x70A08231 EQ PUSH2 0x1A3 JUMPI DUP1 PUSH4 0x95D89B41 EQ PUSH2 0x1D3 JUMPI DUP1 PUSH4 0xA22CB465 EQ PUSH2 0x1F1 JUMPI PUSH2 0xCD JUMP JUMPDEST DUP1 PUSH4 0x6FDDE03 EQ PUSH2 0xD1 JUMPI DUP1 PUSH4 0x81812FC EQ PUSH2 0xEF JUMPI DUP1 PUSH4 0x95EA7B3 EQ PUSH2 0x11F JUMPI DUP1 PUSH4 0x23B872DD EQ PUSH2 0x13B JUMPI DUP1 PUSH4 0x42842E0E EQ PUSH2 0x157 JUMPI DUP1 PUSH4 0x6352211E EQ PUSH2 0x173 JUMPI JUMPDEST PUSH0 PUSH0 REVERT JUMPDEST PUSH2 0xD9 PUSH2 0x2A5 JUMP JUMPDEST PUSH1 0x40 MLOAD PUSH2 0xE6 SWAP2 SWAP1 PUSH2 0x1245 JUMP JUMPDEST PUSH1 0x40 MLOAD DUP1 SWAP2 SUB SWAP1 RETURN JUMPDEST PUSH2 0x109 PUSH1 0x4 DUP1 CALLDATASIZE SUB DUP2 ADD SWAP1 PUSH2 0x104 SWAP2 SWAP1 PUSH2 0x12A9 JUMP JUMPDEST PUSH2 0x330 JUMP JUMPDEST PUSH1 0x40 MLOAD PUSH2 0x116 SWAP2 SWAP1 PUSH2 0x1313 JUMP JUMPDEST PUSH1 0x40 MLOAD DUP1 SWAP2 SUB SWAP1 RETURN JUMPDEST PUSH2 0x139 PUSH1 0x4 DUP1 CALLDATASIZE SUB DUP2 ADD SWAP1 PUSH2 0x134 SWAP2 SWAP1 PUSH2 0x1356 JUMP JUMPDEST PUSH2 0x407 JUMP JUMPDEST STOP JUMPDEST PUSH2 0x155 PUSH1 0x4 DUP1 CALLDATASIZE SUB DUP2 ADD SWAP1 PUSH2 0x150 SWAP2 SWAP1 PUSH2 0x1394 JUMP JUMPDEST PUSH2 0x5AF JUMP JUMPDEST STOP JUMPDEST PUSH2 0x171 PUSH1 0x4 DUP1 CALLDATASIZE SUB DUP2 ADD SWAP1 PUSH2 0x16C SWAP2 SWAP1 PUSH2 0x1394 JUMP JUMPDEST PUSH2 0x608 JUMP JUMPDEST STOP JUMPDEST PUSH2 0x18D PUSH1 0x4 DUP1 CALLDATASIZE SUB DUP2 ADD SWAP1 PUSH2 0x188 SWAP2 SWAP1 PUSH2 0x12A9 JUMP JUMPDEST PUSH2 0x677 JUMP JUMPDEST PUSH1 0x40 MLOAD PUSH2 0x19A SWAP2 SWAP1 PUSH2 0x1313 JUMP JUMPDEST PUSH1 0x40 MLOAD DUP1 SWAP2 SUB SWAP1 RETURN JUMPDEST PUSH2 0x1BD PUSH1 0x4 DUP1 CALLDATASIZE SUB DUP2 ADD SWAP1 PUSH2 0x1B8 SWAP2 SWAP1 PUSH2 0x13E4 JUMP JUMPDEST PUSH2 0x723 JUMP JUMPDEST PUSH1 0x40 MLOAD PUSH2 0x1CA SWAP2 SWAP1 PUSH2 0x141E JUMP JUMPDEST PUSH1 0x40 MLOAD DUP1 SWAP2 SUB SWAP1 RETURN JUMPDEST PUSH2 0x1DB PUSH2 0x7D7 JUMP JUMPDEST PUSH1 0x40 MLOAD PUSH2 0x1E8 SWAP2 SWAP1 PUSH2 0x1245 JUMP JUMPDEST PUSH1 0x40 MLOAD DUP1 SWAP2 SUB SWAP1 RETURN JUMPDEST PUSH2 0x20B PUSH1 0x4 DUP1 CALLDATASIZE SUB DUP2 ADD SWAP1 PUSH2 0x206 SWAP2 SWAP1 PUSH2 0x146C JUMP JUMPDEST PUSH2 0x863 JUMP JUMPDEST STOP JUMPDEST PUSH2 0x227 PUSH1 0x4 DUP1 CALLDATASIZE SUB DUP2 ADD SWAP1 PUSH2 0x222 SWAP2 SWAP1 PUSH2 0x150B JUMP JUMPDEST PUSH2 0x9C9 JUMP JUMPDEST STOP JUMPDEST PUSH2 0x243 PUSH1 0x4 DUP1 CALLDATASIZE SUB DUP2 ADD SWAP1 PUSH2 0x23E SWAP2 SWAP1 PUSH2 0x12A9 JUMP JUMPDEST PUSH2 0xA68 JUMP JUMPDEST PUSH1 0x40 MLOAD PUSH2 0x250 SWAP2 SWAP1 PUSH2 0x1245 JUMP JUMPDEST PUSH1 0x40 MLOAD DUP1 SWAP2 SUB SWAP1 RETURN JUMPDEST PUSH2 0x273 PUSH1 0x4 DUP1 CALLDATASIZE SUB DUP2 ADD SWAP1 PUSH2 0x26E SWAP2 SWAP1 PUSH2 0x16B7 JUMP JUMPDEST PUSH2 0xBA7 JUMP JUMPDEST STOP JUMPDEST PUSH2 0x28F PUSH1 0x4 DUP1 CALLDATASIZE SUB DUP2 ADD SWAP1 PUSH2 0x28A SWAP2 SWAP1 PUSH2 0x1711 JUMP JUMPDEST PUSH2 0xCE6 JUMP JUMPDEST PUSH1 0x40 MLOAD PUSH2 0x29C SWAP2 SWAP1 PUSH2 0x175E JUMP JUMPDEST PUSH1 0x40 MLOAD DUP1 SWAP2 SUB SWAP1 RETURN JUMPDEST PUSH0 DUP1 SLOAD PUSH2 0x2B1 SWAP1 PUSH2 0x17A4 JUMP JUMPDEST DUP1 PUSH1 0x1F ADD PUSH1 0x20 DUP1 SWAP2 DIV MUL PUSH1 0x20 ADD PUSH1 0x40 MLOAD SWAP1 DUP2 ADD PUSH1 0x40 MSTORE DUP1 SWAP3 SWAP2 SWAP1 DUP2 DUP2 MSTORE PUSH1 0x20 ADD DUP3 DUP1 SLOAD PUSH2 0x2DD SWAP1 PUSH2 0x17A4 JUMP JUMPDEST DUP1 ISZERO PUSH2 0x328 JUMPI DUP1 PUSH1 0x1F LT PUSH2 0x2FF JUMPI PUSH2 0x100 DUP1 DUP4 SLOAD DIV MUL DUP4 MSTORE SWAP2 PUSH1 0x20 ADD SWAP2 PUSH2 0x328 JUMP JUMPDEST DUP3 ADD SWAP2 SWAP1 PUSH0 MSTORE PUSH1 0x20 PUSH0 KECCAK256 SWAP1 JUMPDEST DUP2 SLOAD DUP2 MSTORE SWAP1 PUSH1 0x1 ADD SWAP1 PUSH1 0x20 ADD DUP1 DUP4 GT PUSH2 0x30B JUMPI DUP3 SWAP1 SUB PUSH1 0x1F AND DUP3 ADD SWAP2 JUMPDEST POP POP POP POP POP DUP2 JUMP JUMPDEST PUSH0 PUSH0 PUSH20 0xFFFFFFFFFFFFFFFFFFFFFFFFFFFFFFFFFFFFFFFF AND PUSH1 0x3 PUSH0 DUP5 DUP2 MSTORE PUSH1 0x20 ADD SWAP1 DUP2 MSTORE PUSH1 0x20 ADD PUSH0 KECCAK256 PUSH0 SWAP1 SLOAD SWAP1 PUSH2 0x100 EXP SWAP1 DIV PUSH20 0xFFFFFFFFFFFFFFFFFFFFFFFFFFFFFFFFFFFFFFFF AND PUSH20 0xFFFFFFFFFFFFFFFFFFFFFFFFFFFFFFFFFFFFFFFF AND SUB PUSH2 0x3CF JUMPI PUSH1 0x40 MLOAD PUSH32 0x8C379A000000000000000000000000000000000000000000000000000000000 DUP2 MSTORE PUSH1 0x4 ADD PUSH2 0x3C6 SWAP1 PUSH2 0x181E JUMP JUMPDEST PUSH1 0x40 MLOAD DUP1 SWAP2 SUB SWAP1 REVERT JUMPDEST PUSH1 0x5 PUSH0 DUP4 DUP2 MSTORE PUSH1 0x20 ADD SWAP1 DUP2 MSTORE PUSH1 0x20 ADD PUSH0 KECCAK256 PUSH0 SWAP1 SLOAD SWAP1 PUSH2 0x100 EXP SWAP1 DIV PUSH20 0xFFFFFFFFFFFFFFFFFFFFFFFFFFFFFFFFFFFFFFFF AND SWAP1 POP SWAP2 SWAP1 POP JUMP JUMPDEST PUSH0 PUSH2 0x411 DUP3 PUSH2 0x677 JUMP JUMPDEST SWAP1 POP DUP1 PUSH20 0xFFFFFFFFFFFFFFFFFFFFFFFFFFFFFFFFFFFFFFFF AND DUP4 PUSH20 0xFFFFFFFFFFFFFFFFFFFFFFFFFFFFFFFFFFFFFFFF AND SUB PUSH2 0x481 JUMPI PUSH1 0x40 MLOAD PUSH32 0x8C379A000000000000000000000000000000000000000000000000000000000 DUP2 MSTORE PUSH1 0x4 ADD PUSH2 0x478 SWAP1 PUSH2 0x1886 JUMP JUMPDEST PUSH1 0x40 MLOAD DUP1 SWAP2 SUB SWAP1 REVERT JUMPDEST DUP1 PUSH20 0xFFFFFFFFFFFFFFFFFFFFFFFFFFFFFFFFFFFFFFFF AND CALLER PUSH20 0xFFFFFFFFFFFFFFFFFFFFFFFFFFFFFFFFFFFFFFFF AND EQ DUP1 PUSH2 0x4C1 JUMPI POP PUSH2 0x4C0 DUP2 CALLER PUSH2 0xCE6 JUMP JUMPDEST JUMPDEST PUSH2 0x500 JUMPI PUSH1 0x40 MLOAD PUSH32 0x8C379A000000000000000000000000000000000000000000000000000000000 DUP2 MSTORE PUSH1 0x4 ADD PUSH2 0x4F7 SWAP1 PUSH2 0x18EE JUMP JUMPDEST PUSH1 0x40 MLOAD DUP1 SWAP2 SUB SWAP1 REVERT JUMPDEST DUP3 PUSH1 0x5 PUSH0 DUP5 DUP2 MSTORE PUSH1 0x20 ADD SWAP1 DUP2 MSTORE PUSH1 0x20 ADD PUSH0 KECCAK256 PUSH0 PUSH2 0x100 EXP DUP2 SLOAD DUP2 PUSH20 0xFFFFFFFFFFFFFFFFFFFFFFFFFFFFFFFFFFFFFFFF MUL NOT AND SWAP1 DUP4 PUSH20 0xFFFFFFFFFFFFFFFFFFFFFFFFFFFFFFFFFFFFFFFF AND MUL OR SWAP1 SSTORE POP DUP2 DUP4 PUSH20 0xFFFFFFFFFFFFFFFFFFFFFFFFFFFFFFFFFFFFFFFF AND DUP3 PUSH20 0xFFFFFFFFFFFFFFFFFFFFFFFFFFFFFFFFFFFFFFFF AND PUSH32 0x8C5BE1E5EBEC7D5BD14F71427D1E84F3DD0314C0F7B2291E5B200AC8C7C3B925 PUSH1 0x40 MLOAD PUSH1 0x40 MLOAD DUP1 SWAP2 SUB SWAP1 LOG4 POP POP POP JUMP JUMPDEST PUSH2 0x5B9 CALLER DUP3 PUSH2 0xD74 JUMP JUMPDEST PUSH2 0x5F8 JUMPI PUSH1 0x40 MLOAD PUSH32 0x8C379A000000000000000000000000000000000000000000000000000000000 DUP2 MSTORE PUSH1 0x4 ADD PUSH2 0x5EF SWAP1 PUSH2 0x18EE JUMP JUMPDEST PUSH1 0x40 MLOAD DUP1 SWAP2 SUB SWAP1 REVERT JUMPDEST PUSH2 0x603 DUP4 DUP4 DUP4 PUSH2 0xE08 JUMP JUMPDEST POP POP POP JUMP JUMPDEST ADDRESS PUSH20 0xFFFFFFFFFFFFFFFFFFFFFFFFFFFFFFFFFFFFFFFF AND PUSH4 0xB88D4FDE DUP5 DUP5 DUP5 PUSH1 0x40 MLOAD DUP5 PUSH4 0xFFFFFFFF AND PUSH1 0xE0 SHL DUP2 MSTORE PUSH1 0x4 ADD PUSH2 0x645 SWAP4 SWAP3 SWAP2 SWAP1 PUSH2 0x193F JUMP JUMPDEST PUSH0 PUSH1 0x40 MLOAD DUP1 DUP4 SUB DUP2 PUSH0 DUP8 DUP1 EXTCODESIZE ISZERO DUP1 ISZERO PUSH2 0x65C JUMPI PUSH0 PUSH0 REVERT JUMPDEST POP GAS CALL ISZERO DUP1 ISZERO PUSH2 0x66E JUMPI RETURNDATASIZE PUSH0 PUSH0 RETURNDATACOPY RETURNDATASIZE PUSH0 REVERT JUMPDEST POP POP POP POP POP POP POP JUMP JUMPDEST PUSH0 PUSH0 PUSH1 0x3 PUSH0 DUP5 DUP2 MSTORE PUSH1 0x20 ADD SWAP1 DUP2 MSTORE PUSH1 0x20 ADD PUSH0 KECCAK256 PUSH0 SWAP1 SLOAD SWAP1 PUSH2 0x100 EXP SWAP1 DIV PUSH20 0xFFFFFFFFFFFFFFFFFFFFFFFFFFFFFFFFFFFFFFFF AND SWAP1 POP PUSH0 PUSH20 0xFFFFFFFFFFFFFFFFFFFFFFFFFFFFFFFFFFFFFFFF AND DUP2 PUSH20 0xFFFFFFFFFFFFFFFFFFFFFFFFFFFFFFFFFFFFFFFF AND SUB PUSH2 0x71A JUMPI PUSH1 0x40 MLOAD PUSH32 0x8C379A000000000000000000000000000000000000000000000000000000000 DUP2 MSTORE PUSH1 0x4 ADD PUSH2 0x711 SWAP1 PUSH2 0x181E JUMP JUMPDEST PUSH1 0x40 MLOAD DUP1 SWAP2 SUB SWAP1 REVERT JUMPDEST DUP1 SWAP2 POP POP SWAP2 SWAP1 POP JUMP JUMPDEST PUSH0 PUSH0 PUSH20 0xFFFFFFFFFFFFFFFFFFFFFFFFFFFFFFFFFFFFFFFF AND DUP3 PUSH20 0xFFFFFFFFFFFFFFFFFFFFFFFFFFFFFFFFFFFFFFFF AND SUB PUSH2 0x792 JUMPI PUSH1 0x40 MLOAD PUSH32 0x8C379A000000000000000000000000000000000000000000000000000000000 DUP2 MSTORE PUSH1 0x4 ADD PUSH2 0x789 SWAP1 PUSH2 0x19D1 JUMP JUMPDEST PUSH1 0x40 MLOAD DUP1 SWAP2 SUB SWAP1 REVERT JUMPDEST PUSH1 0x4 PUSH0 DUP4 PUSH20 0xFFFFFFFFFFFFFFFFFFFFFFFFFFFFFFFFFFFFFFFF AND PUSH20 0xFFFFFFFFFFFFFFFFFFFFFFFFFFFFFFFFFFFFFFFF AND DUP2 MSTORE PUSH1 0x20 ADD SWAP1 DUP2 MSTORE PUSH1 0x20 ADD PUSH0 KECCAK256 SLOAD SWAP1 POP SWAP2 SWAP1 POP JUMP JUMPDEST PUSH1 0x1 DUP1 SLOAD PUSH2 0x7E4 SWAP1 PUSH2 0x17A4 JUMP JUMPDEST DUP1 PUSH1 0x1F ADD PUSH1 0x20 DUP1 SWAP2 DIV MUL PUSH1 0x20 ADD PUSH1 0x40 MLOAD SWAP1 DUP2 ADD PUSH1 0x40 MSTORE DUP1 SWAP3 SWAP2 SWAP1 DUP2 DUP2 MSTORE PUSH1 0x20 ADD DUP3 DUP1 SLOAD PUSH2 0x810 SWAP1 PUSH2 0x17A4 JUMP JUMPDEST DUP1 ISZERO PUSH2 0x85B JUMPI DUP1 PUSH1 0x1F LT PUSH2 0x832 JUMPI PUSH2 0x100 DUP1 DUP4 SLOAD DIV MUL DUP4 MSTORE SWAP2 PUSH1 0x20 ADD SWAP2 PUSH2 0x85B JUMP JUMPDEST DUP3 ADD SWAP2 SWAP1 PUSH0 MSTORE PUSH1 0x20 PUSH0 KECCAK256 SWAP1 JUMPDEST DUP2 SLOAD DUP2 MSTORE SWAP1 PUSH1 0x1 ADD SWAP1 PUSH1 0x20 ADD DUP1 DUP4 GT PUSH2 0x83E JUMPI DUP3 SWAP1 SUB PUSH1 0x1F AND DUP3 ADD SWAP2 JUMPDEST POP POP POP POP POP DUP2 JUMP JUMPDEST CALLER PUSH20 0xFFFFFFFFFFFFFFFFFFFFFFFFFFFFFFFFFFFFFFFF AND DUP3 PUSH20 0xFFFFFFFFFFFFFFFFFFFFFFFFFFFFFFFFFFFFFFFF AND SUB PUSH2 0x8D1 JUMPI PUSH1 0x40 MLOAD PUSH32 0x8C379A000000000000000000000000000000000000000000000000000000000 DUP2 MSTORE PUSH1 0x4 ADD PUSH2 0x8C8 SWAP1 PUSH2 0x1A39 JUMP JUMPDEST PUSH1 0x40 MLOAD DUP1 SWAP2 SUB SWAP1 REVERT JUMPDEST DUP1 PUSH1 0x6 PUSH0 CALLER PUSH20 0xFFFFFFFFFFFFFFFFFFFFFFFFFFFFFFFFFFFFFFFF AND PUSH20 0xFFFFFFFFFFFFFFFFFFFFFFFFFFFFFFFFFFFFFFFF AND DUP2 MSTORE PUSH1 0x20 ADD SWAP1 DUP2 MSTORE PUSH1 0x20 ADD PUSH0 KECCAK256 PUSH0 DUP5 PUSH20 0xFFFFFFFFFFFFFFFFFFFFFFFFFFFFFFFFFFFFFFFF AND PUSH20 0xFFFFFFFFFFFFFFFFFFFFFFFFFFFFFFFFFFFFFFFF AND DUP2 MSTORE PUSH1 0x20 ADD SWAP1 DUP2 MSTORE PUSH1 0x20 ADD PUSH0 KECCAK256 PUSH0 PUSH2 0x100 EXP DUP2 SLOAD DUP2 PUSH1 0xFF MUL NOT AND SWAP1 DUP4 ISZERO ISZERO MUL OR SWAP1 SSTORE POP DUP2 PUSH20 0xFFFFFFFFFFFFFFFFFFFFFFFFFFFFFFFFFFFFFFFF AND CALLER PUSH20 0xFFFFFFFFFFFFFFFFFFFFFFFFFFFFFFFFFFFFFFFF AND PUSH32 0x17307EAB39AB6107E8899845AD3D59BD9653F200F220920489CA2B5937696C31 DUP4 PUSH1 0x40 MLOAD PUSH2 0x9BD SWAP2 SWAP1 PUSH2 0x175E JUMP JUMPDEST PUSH1 0x40 MLOAD DUP1 SWAP2 SUB SWAP1 LOG3 POP POP JUMP JUMPDEST PUSH2 0x9D3 CALLER DUP5 PUSH2 0xD74 JUMP JUMPDEST PUSH2 0xA12 JUMPI PUSH1 0x40 MLOAD PUSH32 0x8C379A000000000000000000000000000000000000000000000000000000000 DUP2 MSTORE PUSH1 0x4 ADD PUSH2 0xA09 SWAP1 PUSH2 0x18EE JUMP JUMPDEST PUSH1 0x40 MLOAD DUP1 SWAP2 SUB SWAP1 REVERT JUMPDEST PUSH2 0xA61 DUP6 DUP6 DUP6 DUP6 DUP6 DUP1 DUP1 PUSH1 0x1F ADD PUSH1 0x20 DUP1 SWAP2 DIV MUL PUSH1 0x20 ADD PUSH1 0x40 MLOAD SWAP1 DUP2 ADD PUSH1 0x40 MSTORE DUP1 SWAP4 SWAP3 SWAP2 SWAP1 DUP2 DUP2 MSTORE PUSH1 0x20 ADD DUP4 DUP4 DUP1 DUP3 DUP5 CALLDATACOPY PUSH0 DUP2 DUP5 ADD MSTORE PUSH1 0x1F NOT PUSH1 0x1F DUP3 ADD AND SWAP1 POP DUP1 DUP4 ADD SWAP3 POP POP POP POP POP POP POP PUSH2 0x1076 JUMP JUMPDEST POP POP POP POP POP JUMP JUMPDEST PUSH1 0x60 PUSH0 PUSH20 0xFFFFFFFFFFFFFFFFFFFFFFFFFFFFFFFFFFFFFFFF AND PUSH1 0x3 PUSH0 DUP5 DUP2 MSTORE PUSH1 0x20 ADD SWAP1 DUP2 MSTORE PUSH1 0x20 ADD PUSH0 KECCAK256 PUSH0 SWAP1 SLOAD SWAP1 PUSH2 0x100 EXP SWAP1 DIV PUSH20 0xFFFFFFFFFFFFFFFFFFFFFFFFFFFFFFFFFFFFFFFF AND PUSH20 0xFFFFFFFFFFFFFFFFFFFFFFFFFFFFFFFFFFFFFFFF AND SUB PUSH2 0xB08 JUMPI PUSH1 0x40 MLOAD PUSH32 0x8C379A000000000000000000000000000000000000000000000000000000000 DUP2 MSTORE PUSH1 0x4 ADD PUSH2 0xAFF SWAP1 PUSH2 0x181E JUMP JUMPDEST PUSH1 0x40 MLOAD DUP1 SWAP2 SUB SWAP1 REVERT JUMPDEST PUSH1 0x7 PUSH0 DUP4 DUP2 MSTORE PUSH1 0x20 ADD SWAP1 DUP2 MSTORE PUSH1 0x20 ADD PUSH0 KECCAK256 DUP1 SLOAD PUSH2 0xB24 SWAP1 PUSH2 0x17A4 JUMP JUMPDEST DUP1 PUSH1 0x1F ADD PUSH1 0x20 DUP1 SWAP2 DIV MUL PUSH1 0x20 ADD PUSH1 0x40 MLOAD SWAP1 DUP2 ADD PUSH1 0x40 MSTORE DUP1 SWAP3 SWAP2 SWAP1 DUP2 DUP2 MSTORE PUSH1 0x20 ADD DUP3 DUP1 SLOAD PUSH2 0xB50 SWAP1 PUSH2 0x17A4 JUMP JUMPDEST DUP1 ISZERO PUSH2 0xB9B JUMPI DUP1 PUSH1 0x1F LT PUSH2 0xB72 JUMPI PUSH2 0x100 DUP1 DUP4 SLOAD DIV MUL DUP4 MSTORE SWAP2 PUSH1 0x20 ADD SWAP2 PUSH2 0xB9B JUMP JUMPDEST DUP3 ADD SWAP2 SWAP1 PUSH0 MSTORE PUSH1 0x20 PUSH0 KECCAK256 SWAP1 JUMPDEST DUP2 SLOAD DUP2 MSTORE SWAP1 PUSH1 0x1 ADD SWAP1 PUSH1 0x20 ADD DUP1 DUP4 GT PUSH2 0xB7E JUMPI DUP3 SWAP1 SUB PUSH1 0x1F AND DUP3 ADD SWAP2 JUMPDEST POP POP POP POP POP SWAP1 POP SWAP2 SWAP1 POP JUMP JUMPDEST PUSH0 PUSH1 0x2 SLOAD SWAP1 POP PUSH1 0x2 PUSH0 DUP2 SLOAD DUP1 SWAP3 SWAP2 SWAP1 PUSH2 0xBBF SWAP1 PUSH2 0x1A84 JUMP JUMPDEST SWAP2 SWAP1 POP SSTORE POP DUP3 PUSH1 0x3 PUSH0 DUP4 DUP2 MSTORE PUSH1 0x20 ADD SWAP1 DUP2 MSTORE PUSH1 0x20 ADD PUSH0 KECCAK256 PUSH0 PUSH2 0x100 EXP DUP2 SLOAD DUP2 PUSH20 0xFFFFFFFFFFFFFFFFFFFFFFFFFFFFFFFFFFFFFFFF MUL NOT AND SWAP1 DUP4 PUSH20 0xFFFFFFFFFFFFFFFFFFFFFFFFFFFFFFFFFFFFFFFF AND MUL OR SWAP1 SSTORE POP PUSH1 0x1 PUSH1 0x4 PUSH0 DUP6 PUSH20 0xFFFFFFFFFFFFFFFFFFFFFFFFFFFFFFFFFFFFFFFF AND PUSH20 0xFFFFFFFFFFFFFFFFFFFFFFFFFFFFFFFFFFFFFFFF AND DUP2 MSTORE PUSH1 0x20 ADD SWAP1 DUP2 MSTORE PUSH1 0x20 ADD PUSH0 KECCAK256 PUSH0 DUP3 DUP3 SLOAD PUSH2 0xC60 SWAP2 SWAP1 PUSH2 0x1ACB JUMP JUMPDEST SWAP3 POP POP DUP2 SWAP1 SSTORE POP DUP2 PUSH1 0x7 PUSH0 DUP4 DUP2 MSTORE PUSH1 0x20 ADD SWAP1 DUP2 MSTORE PUSH1 0x20 ADD PUSH0 KECCAK256 SWAP1 DUP2 PUSH2 0xC85 SWAP2 SWAP1 PUSH2 0x1C9E JUMP JUMPDEST POP DUP1 DUP4 PUSH20 0xFFFFFFFFFFFFFFFFFFFFFFFFFFFFFFFFFFFFFFFF AND PUSH0 PUSH20 0xFFFFFFFFFFFFFFFFFFFFFFFFFFFFFFFFFFFFFFFF AND PUSH32 0xDDF252AD1BE2C89B69C2B068FC378DAA952BA7F163C4A11628F55A4DF523B3EF PUSH1 0x40 MLOAD PUSH1 0x40 MLOAD DUP1 SWAP2 SUB SWAP1 LOG4 POP POP POP JUMP JUMPDEST PUSH0 PUSH1 0x6 PUSH0 DUP5 PUSH20 0xFFFFFFFFFFFFFFFFFFFFFFFFFFFFFFFFFFFFFFFF AND PUSH20 0xFFFFFFFFFFFFFFFFFFFFFFFFFFFFFFFFFFFFFFFF AND DUP2 MSTORE PUSH1 0x20 ADD SWAP1 DUP2 MSTORE PUSH1 0x20 ADD PUSH0 KECCAK256 PUSH0 DUP4 PUSH20 0xFFFFFFFFFFFFFFFFFFFFFFFFFFFFFFFFFFFFFFFF AND PUSH20 0xFFFFFFFFFFFFFFFFFFFFFFFFFFFFFFFFFFFFFFFF AND DUP2 MSTORE PUSH1 0x20 ADD SWAP1 DUP2 MSTORE PUSH1 0x20 ADD PUSH0 KECCAK256 PUSH0 SWAP1 SLOAD SWAP1 PUSH2 0x100 EXP SWAP1 DIV PUSH1 0xFF AND SWAP1 POP SWAP3 SWAP2 POP POP JUMP JUMPDEST PUSH0 PUSH0 PUSH2 0xD7F DUP4 PUSH2 0x677 JUMP JUMPDEST SWAP1 POP DUP1 PUSH20 0xFFFFFFFFFFFFFFFFFFFFFFFFFFFFFFFFFFFFFFFF AND DUP5 PUSH20 0xFFFFFFFFFFFFFFFFFFFFFFFFFFFFFFFFFFFFFFFF AND EQ DUP1 PUSH2 0xDEE JUMPI POP DUP4 PUSH20 0xFFFFFFFFFFFFFFFFFFFFFFFFFFFFFFFFFFFFFFFF AND PUSH2 0xDD6 DUP5 PUSH2 0x330 JUMP JUMPDEST PUSH20 0xFFFFFFFFFFFFFFFFFFFFFFFFFFFFFFFFFFFFFFFF AND EQ JUMPDEST DUP1 PUSH2 0xDFF JUMPI POP PUSH2 0xDFE DUP2 DUP6 PUSH2 0xCE6 JUMP JUMPDEST JUMPDEST SWAP2 POP POP SWAP3 SWAP2 POP POP JUMP JUMPDEST DUP3 PUSH20 0xFFFFFFFFFFFFFFFFFFFFFFFFFFFFFFFFFFFFFFFF AND PUSH2 0xE28 DUP3 PUSH2 0x677 JUMP JUMPDEST PUSH20 0xFFFFFFFFFFFFFFFFFFFFFFFFFFFFFFFFFFFFFFFF AND EQ PUSH2 0xE7E JUMPI PUSH1 0x40 MLOAD PUSH32 0x8C379A000000000000000000000000000000000000000000000000000000000 DUP2 MSTORE PUSH1 0x4 ADD PUSH2 0xE75 SWAP1 PUSH2 0x1DB7 JUMP JUMPDEST PUSH1 0x40 MLOAD DUP1 SWAP2 SUB SWAP1 REVERT JUMPDEST PUSH0 PUSH20 0xFFFFFFFFFFFFFFFFFFFFFFFFFFFFFFFFFFFFFFFF AND DUP3 PUSH20 0xFFFFFFFFFFFFFFFFFFFFFFFFFFFFFFFFFFFFFFFF AND SUB PUSH2 0xEEC JUMPI PUSH1 0x40 MLOAD PUSH32 0x8C379A000000000000000000000000000000000000000000000000000000000 DUP2 MSTORE PUSH1 0x4 ADD PUSH2 0xEE3 SWAP1 PUSH2 0x19D1 JUMP JUMPDEST PUSH1 0x40 MLOAD DUP1 SWAP2 SUB SWAP1 REVERT JUMPDEST PUSH1 0x1 PUSH1 0x4 PUSH0 DUP6 PUSH20 0xFFFFFFFFFFFFFFFFFFFFFFFFFFFFFFFFFFFFFFFF AND PUSH20 0xFFFFFFFFFFFFFFFFFFFFFFFFFFFFFFFFFFFFFFFF AND DUP2 MSTORE PUSH1 0x20 ADD SWAP1 DUP2 MSTORE PUSH1 0x20 ADD PUSH0 KECCAK256 PUSH0 DUP3 DUP3 SLOAD PUSH2 0xF39 SWAP2 SWAP1 PUSH2 0x1DD5 JUMP JUMPDEST SWAP3 POP POP DUP2 SWAP1 SSTORE POP PUSH1 0x1 PUSH1 0x4 PUSH0 DUP5 PUSH20 0xFFFFFFFFFFFFFFFFFFFFFFFFFFFFFFFFFFFFFFFF AND PUSH20 0xFFFFFFFFFFFFFFFFFFFFFFFFFFFFFFFFFFFFFFFF AND DUP2 MSTORE PUSH1 0x20 ADD SWAP1 DUP2 MSTORE PUSH1 0x20 ADD PUSH0 KECCAK256 PUSH0 DUP3 DUP3 SLOAD PUSH2 0xF8D SWAP2 SWAP1 PUSH2 0x1ACB JUMP JUMPDEST SWAP3 POP POP DUP2 SWAP1 SSTORE POP DUP2 PUSH1 0x3 PUSH0 DUP4 DUP2 MSTORE PUSH1 0x20 ADD SWAP1 DUP2 MSTORE PUSH1 0x20 ADD PUSH0 KECCAK256 PUSH0 PUSH2 0x100 EXP DUP2 SLOAD DUP2 PUSH20 0xFFFFFFFFFFFFFFFFFFFFFFFFFFFFFFFFFFFFFFFF MUL NOT AND SWAP1 DUP4 PUSH20 0xFFFFFFFFFFFFFFFFFFFFFFFFFFFFFFFFFFFFFFFF AND MUL OR SWAP1 SSTORE POP PUSH1 0x5 PUSH0 DUP3 DUP2 MSTORE PUSH1 0x20 ADD SWAP1 DUP2 MSTORE PUSH1 0x20 ADD PUSH0 KECCAK256 PUSH0 PUSH2 0x100 EXP DUP2 SLOAD SWAP1 PUSH20 0xFFFFFFFFFFFFFFFFFFFFFFFFFFFFFFFFFFFFFFFF MUL NOT AND SWAP1 SSTORE DUP1 DUP3 PUSH20 0xFFFFFFFFFFFFFFFFFFFFFFFFFFFFFFFFFFFFFFFF AND DUP5 PUSH20 0xFFFFFFFFFFFFFFFFFFFFFFFFFFFFFFFFFFFFFFFF AND PUSH32 0xDDF252AD1BE2C89B69C2B068FC378DAA952BA7F163C4A11628F55A4DF523B3EF PUSH1 0x40 MLOAD PUSH1 0x40 MLOAD DUP1 SWAP2 SUB SWAP1 LOG4 POP POP POP JUMP JUMPDEST PUSH2 0x1081 DUP5 DUP5 DUP5 PUSH2 0xE08 JUMP JUMPDEST PUSH2 0x108D DUP5 DUP5 DUP5 DUP5 PUSH2 0x10D2 JUMP JUMPDEST PUSH2 0x10CC JUMPI PUSH1 0x40 MLOAD PUSH32 0x8C379A000000000000000000000000000000000000000000000000000000000 DUP2 MSTORE PUSH1 0x4 ADD PUSH2 0x10C3 SWAP1 PUSH2 0x1E52 JUMP JUMPDEST PUSH1 0x40 MLOAD DUP1 SWAP2 SUB SWAP1 REVERT JUMPDEST POP POP POP POP JUMP JUMPDEST PUSH0 PUSH0 DUP5 PUSH20 0xFFFFFFFFFFFFFFFFFFFFFFFFFFFFFFFFFFFFFFFF AND EXTCODESIZE GT ISZERO PUSH2 0x11C8 JUMPI DUP4 PUSH20 0xFFFFFFFFFFFFFFFFFFFFFFFFFFFFFFFFFFFFFFFF AND PUSH4 0x150B7A02 CALLER DUP8 DUP7 DUP7 PUSH1 0x40 MLOAD DUP6 PUSH4 0xFFFFFFFF AND PUSH1 0xE0 SHL DUP2 MSTORE PUSH1 0x4 ADD PUSH2 0x1131 SWAP5 SWAP4 SWAP3 SWAP2 SWAP1 PUSH2 0x1EB2 JUMP JUMPDEST PUSH1 0x20 PUSH1 0x40 MLOAD DUP1 DUP4 SUB DUP2 PUSH0 DUP8 GAS CALL SWAP3 POP POP POP DUP1 ISZERO PUSH2 0x116C JUMPI POP PUSH1 0x40 MLOAD RETURNDATASIZE PUSH1 0x1F NOT PUSH1 0x1F DUP3 ADD AND DUP3 ADD DUP1 PUSH1 0x40 MSTORE POP DUP2 ADD SWAP1 PUSH2 0x1169 SWAP2 SWAP1 PUSH2 0x1F51 JUMP JUMPDEST PUSH1 0x1 JUMPDEST PUSH2 0x1178 JUMPI PUSH0 SWAP1 POP PUSH2 0x11CD JUMP JUMPDEST PUSH4 0x150B7A02 PUSH1 0xE0 SHL PUSH28 0xFFFFFFFFFFFFFFFFFFFFFFFFFFFFFFFFFFFFFFFFFFFFFFFFFFFFFFFF NOT AND DUP2 PUSH28 0xFFFFFFFFFFFFFFFFFFFFFFFFFFFFFFFFFFFFFFFFFFFFFFFFFFFFFFFF NOT AND EQ SWAP2 POP POP PUSH2 0x11CD JUMP JUMPDEST PUSH1 0x1 SWAP1 POP JUMPDEST SWAP5 SWAP4 POP POP POP POP JUMP JUMPDEST PUSH0 DUP2 MLOAD SWAP1 POP SWAP2 SWAP1 POP JUMP JUMPDEST PUSH0 DUP3 DUP3 MSTORE PUSH1 0x20 DUP3 ADD SWAP1 POP SWAP3 SWAP2 POP POP JUMP JUMPDEST DUP3 DUP2 DUP4 MCOPY PUSH0 DUP4 DUP4 ADD MSTORE POP POP POP JUMP JUMPDEST PUSH0 PUSH1 0x1F NOT PUSH1 0x1F DUP4 ADD AND SWAP1 POP SWAP2 SWAP1 POP JUMP JUMPDEST PUSH0 PUSH2 0x1217 DUP3 PUSH2 0x11D5 JUMP JUMPDEST PUSH2 0x1221 DUP2 DUP6 PUSH2 0x11DF JUMP JUMPDEST SWAP4 POP PUSH2 0x1231 DUP2 DUP6 PUSH1 0x20 DUP7 ADD PUSH2 0x11EF JUMP JUMPDEST PUSH2 0x123A DUP2 PUSH2 0x11FD JUMP JUMPDEST DUP5 ADD SWAP2 POP POP SWAP3 SWAP2 POP POP JUMP JUMPDEST PUSH0 PUSH1 0x20 DUP3 ADD SWAP1 POP DUP2 DUP2 SUB PUSH0 DUP4 ADD MSTORE PUSH2 0x125D DUP2 DUP5 PUSH2 0x120D JUMP JUMPDEST SWAP1 POP SWAP3 SWAP2 POP POP JUMP JUMPDEST PUSH0 PUSH1 0x40 MLOAD SWAP1 POP SWAP1 JUMP JUMPDEST PUSH0 PUSH0 REVERT JUMPDEST PUSH0 PUSH0 REVERT JUMPDEST PUSH0 DUP2 SWAP1 POP SWAP2 SWAP1 POP JUMP JUMPDEST PUSH2 0x1288 DUP2 PUSH2 0x1276 JUMP JUMPDEST DUP2 EQ PUSH2 0x1292 JUMPI PUSH0 PUSH0 REVERT JUMPDEST POP JUMP JUMPDEST PUSH0 DUP2 CALLDATALOAD SWAP1 POP PUSH2 0x12A3 DUP2 PUSH2 0x127F JUMP JUMPDEST SWAP3 SWAP2 POP POP JUMP JUMPDEST PUSH0 PUSH1 0x20 DUP3 DUP5 SUB SLT ISZERO PUSH2 0x12BE JUMPI PUSH2 0x12BD PUSH2 0x126E JUMP JUMPDEST JUMPDEST PUSH0 PUSH2 0x12CB DUP5 DUP3 DUP6 ADD PUSH2 0x1295 JUMP JUMPDEST SWAP2 POP POP SWAP3 SWAP2 POP POP JUMP JUMPDEST PUSH0 PUSH20 0xFFFFFFFFFFFFFFFFFFFFFFFFFFFFFFFFFFFFFFFF DUP3 AND SWAP1 POP SWAP2 SWAP1 POP JUMP JUMPDEST PUSH0 PUSH2 0x12FD DUP3 PUSH2 0x12D4 JUMP JUMPDEST SWAP1 POP SWAP2 SWAP1 POP JUMP JUMPDEST PUSH2 0x130D DUP2 PUSH2 0x12F3 JUMP JUMPDEST DUP3 MSTORE POP POP JUMP JUMPDEST PUSH0 PUSH1 0x20 DUP3 ADD SWAP1 POP PUSH2 0x1326 PUSH0 DUP4 ADD DUP5 PUSH2 0x1304 JUMP JUMPDEST SWAP3 SWAP2 POP POP JUMP JUMPDEST PUSH2 0x1335 DUP2 PUSH2 0x12F3 JUMP JUMPDEST DUP2 EQ PUSH2 0x133F JUMPI PUSH0 PUSH0 REVERT JUMPDEST POP JUMP JUMPDEST PUSH0 DUP2 CALLDATALOAD SWAP1 POP PUSH2 0x1350 DUP2 PUSH2 0x132C JUMP JUMPDEST SWAP3 SWAP2 POP POP JUMP JUMPDEST PUSH0 PUSH0 PUSH1 0x40 DUP4 DUP6 SUB SLT ISZERO PUSH2 0x136C JUMPI PUSH2 0x136B PUSH2 0x126E JUMP JUMPDEST JUMPDEST PUSH0 PUSH2 0x1379 DUP6 DUP3 DUP7 ADD PUSH2 0x1342 JUMP JUMPDEST SWAP3 POP POP PUSH1 0x20 PUSH2 0x138A DUP6 DUP3 DUP7 ADD PUSH2 0x1295 JUMP JUMPDEST SWAP2 POP POP SWAP3 POP SWAP3 SWAP1 POP JUMP JUMPDEST PUSH0 PUSH0 PUSH0 PUSH1 0x60 DUP5 DUP7 SUB SLT ISZERO PUSH2 0x13AB JUMPI PUSH2 0x13AA PUSH2 0x126E JUMP JUMPDEST JUMPDEST PUSH0 PUSH2 0x13B8 DUP7 DUP3 DUP8 ADD PUSH2 0x1342 JUMP JUMPDEST SWAP4 POP POP PUSH1 0x20 PUSH2 0x13C9 DUP7 DUP3 DUP8 ADD PUSH2 0x1342 JUMP JUMPDEST SWAP3 POP POP PUSH1 0x40 PUSH2 0x13DA DUP7 DUP3 DUP8 ADD PUSH2 0x1295 JUMP JUMPDEST SWAP2 POP POP SWAP3 POP SWAP3 POP SWAP3 JUMP JUMPDEST PUSH0 PUSH1 0x20 DUP3 DUP5 SUB SLT ISZERO PUSH2 0x13F9 JUMPI PUSH2 0x13F8 PUSH2 0x126E JUMP JUMPDEST JUMPDEST PUSH0 PUSH2 0x1406 DUP5 DUP3 DUP6 ADD PUSH2 0x1342 JUMP JUMPDEST SWAP2 POP POP SWAP3 SWAP2 POP POP JUMP JUMPDEST PUSH2 0x1418 DUP2 PUSH2 0x1276 JUMP JUMPDEST DUP3 MSTORE POP POP JUMP JUMPDEST PUSH0 PUSH1 0x20 DUP3 ADD SWAP1 POP PUSH2 0x1431 PUSH0 DUP4 ADD DUP5 PUSH2 0x140F JUMP JUMPDEST SWAP3 SWAP2 POP POP JUMP JUMPDEST PUSH0 DUP2 ISZERO ISZERO SWAP1 POP SWAP2 SWAP1 POP JUMP JUMPDEST PUSH2 0x144B DUP2 PUSH2 0x1437 JUMP JUMPDEST DUP2 EQ PUSH2 0x1455 JUMPI PUSH0 PUSH0 REVERT JUMPDEST POP JUMP JUMPDEST PUSH0 DUP2 CALLDATALOAD SWAP1 POP PUSH2 0x1466 DUP2 PUSH2 0x1442 JUMP JUMPDEST SWAP3 SWAP2 POP POP JUMP JUMPDEST PUSH0 PUSH0 PUSH1 0x40 DUP4 DUP6 SUB SLT ISZERO PUSH2 0x1482 JUMPI PUSH2 0x1481 PUSH2 0x126E JUMP JUMPDEST JUMPDEST PUSH0 PUSH2 0x148F DUP6 DUP3 DUP7 ADD PUSH2 0x1342 JUMP JUMPDEST SWAP3 POP POP PUSH1 0x20 PUSH2 0x14A0 DUP6 DUP3 DUP7 ADD PUSH2 0x1458 JUMP JUMPDEST SWAP2 POP POP SWAP3 POP SWAP3 SWAP1 POP JUMP JUMPDEST PUSH0 PUSH0 REVERT JUMPDEST PUSH0 PUSH0 REVERT JUMPDEST PUSH0 PUSH0 REVERT JUMPDEST PUSH0 PUSH0 DUP4 PUSH1 0x1F DUP5 ADD SLT PUSH2 0x14CB JUMPI PUSH2 0x14CA PUSH2 0x14AA JUMP JUMPDEST JUMPDEST DUP3 CALLDATALOAD SWAP1 POP PUSH8 0xFFFFFFFFFFFFFFFF DUP2 GT ISZERO PUSH2 0x14E8 JUMPI PUSH2 0x14E7 PUSH2 0x14AE JUMP JUMPDEST JUMPDEST PUSH1 0x20 DUP4 ADD SWAP2 POP DUP4 PUSH1 0x1 DUP3 MUL DUP4 ADD GT ISZERO PUSH2 0x1504 JUMPI PUSH2 0x1503 PUSH2 0x14B2 JUMP JUMPDEST JUMPDEST SWAP3 POP SWAP3 SWAP1 POP JUMP JUMPDEST PUSH0 PUSH0 PUSH0 PUSH0 PUSH0 PUSH1 0x80 DUP7 DUP9 SUB SLT ISZERO PUSH2 0x1524 JUMPI PUSH2 0x1523 PUSH2 0x126E JUMP JUMPDEST JUMPDEST PUSH0 PUSH2 0x1531 DUP9 DUP3 DUP10 ADD PUSH2 0x1342 JUMP JUMPDEST SWAP6 POP POP PUSH1 0x20 PUSH2 0x1542 DUP9 DUP3 DUP10 ADD PUSH2 0x1342 JUMP JUMPDEST SWAP5 POP POP PUSH1 0x40 PUSH2 0x1553 DUP9 DUP3 DUP10 ADD PUSH2 0x1295 JUMP JUMPDEST SWAP4 POP POP PUSH1 0x60 DUP7 ADD CALLDATALOAD PUSH8 0xFFFFFFFFFFFFFFFF DUP2 GT ISZERO PUSH2 0x1574 JUMPI PUSH2 0x1573 PUSH2 0x1272 JUMP JUMPDEST JUMPDEST PUSH2 0x1580 DUP9 DUP3 DUP10 ADD PUSH2 0x14B6 JUMP JUMPDEST SWAP3 POP SWAP3 POP POP SWAP3 SWAP6 POP SWAP3 SWAP6 SWAP1 SWAP4 POP JUMP JUMPDEST PUSH0 PUSH0 REVERT JUMPDEST PUSH32 0x4E487B7100000000000000000000000000000000000000000000000000000000 PUSH0 MSTORE PUSH1 0x41 PUSH1 0x4 MSTORE PUSH1 0x24 PUSH0 REVERT JUMPDEST PUSH2 0x15C9 DUP3 PUSH2 0x11FD JUMP JUMPDEST DUP2 ADD DUP2 DUP2 LT PUSH8 0xFFFFFFFFFFFFFFFF DUP3 GT OR ISZERO PUSH2 0x15E8 JUMPI PUSH2 0x15E7 PUSH2 0x1593 JUMP JUMPDEST JUMPDEST DUP1 PUSH1 0x40 MSTORE POP POP POP JUMP JUMPDEST PUSH0 PUSH2 0x15FA PUSH2 0x1265 JUMP JUMPDEST SWAP1 POP PUSH2 0x1606 DUP3 DUP3 PUSH2 0x15C0 JUMP JUMPDEST SWAP2 SWAP1 POP JUMP JUMPDEST PUSH0 PUSH8 0xFFFFFFFFFFFFFFFF DUP3 GT ISZERO PUSH2 0x1625 JUMPI PUSH2 0x1624 PUSH2 0x1593 JUMP JUMPDEST JUMPDEST PUSH2 0x162E DUP3 PUSH2 0x11FD JUMP JUMPDEST SWAP1 POP PUSH1 0x20 DUP2 ADD SWAP1 POP SWAP2 SWAP1 POP JUMP JUMPDEST DUP3 DUP2 DUP4 CALLDATACOPY PUSH0 DUP4 DUP4 ADD MSTORE POP POP POP JUMP JUMPDEST PUSH0 PUSH2 0x165B PUSH2 0x1656 DUP5 PUSH2 0x160B JUMP JUMPDEST PUSH2 0x15F1 JUMP JUMPDEST SWAP1 POP DUP3 DUP2 MSTORE PUSH1 0x20 DUP2 ADD DUP5 DUP5 DUP5 ADD GT ISZERO PUSH2 0x1677 JUMPI PUSH2 0x1676 PUSH2 0x158F JUMP JUMPDEST JUMPDEST PUSH2 0x1682 DUP5 DUP3 DUP6 PUSH2 0x163B JUMP JUMPDEST POP SWAP4 SWAP3 POP POP POP JUMP JUMPDEST PUSH0 DUP3 PUSH1 0x1F DUP4 ADD SLT PUSH2 0x169E JUMPI PUSH2 0x169D PUSH2 0x14AA JUMP JUMPDEST JUMPDEST DUP2 CALLDATALOAD PUSH2 0x16AE DUP5 DUP3 PUSH1 0x20 DUP7 ADD PUSH2 0x1649 JUMP JUMPDEST SWAP2 POP POP SWAP3 SWAP2 POP POP JUMP JUMPDEST PUSH0 PUSH0 PUSH1 0x40 DUP4 DUP6 SUB SLT ISZERO PUSH2 0x16CD JUMPI PUSH2 0x16CC PUSH2 0x126E JUMP JUMPDEST JUMPDEST PUSH0 PUSH2 0x16DA DUP6 DUP3 DUP7 ADD PUSH2 0x1342 JUMP JUMPDEST SWAP3 POP POP PUSH1 0x20 DUP4 ADD CALLDATALOAD PUSH8 0xFFFFFFFFFFFFFFFF DUP2 GT ISZERO PUSH2 0x16FB JUMPI PUSH2 0x16FA PUSH2 0x1272 JUMP JUMPDEST JUMPDEST PUSH2 0x1707 DUP6 DUP3 DUP7 ADD PUSH2 0x168A JUMP JUMPDEST SWAP2 POP POP SWAP3 POP SWAP3 SWAP1 POP JUMP JUMPDEST PUSH0 PUSH0 PUSH1 0x40 DUP4 DUP6 SUB SLT ISZERO PUSH2 0x1727 JUMPI PUSH2 0x1726 PUSH2 0x126E JUMP JUMPDEST JUMPDEST PUSH0 PUSH2 0x1734 DUP6 DUP3 DUP7 ADD PUSH2 0x1342 JUMP JUMPDEST SWAP3 POP POP PUSH1 0x20 PUSH2 0x1745 DUP6 DUP3 DUP7 ADD PUSH2 0x1342 JUMP JUMPDEST SWAP2 POP POP SWAP3 POP SWAP3 SWAP1 POP JUMP JUMPDEST PUSH2 0x1758 DUP2 PUSH2 0x1437 JUMP JUMPDEST DUP3 MSTORE POP POP JUMP JUMPDEST PUSH0 PUSH1 0x20 DUP3 ADD SWAP1 POP PUSH2 0x1771 PUSH0 DUP4 ADD DUP5 PUSH2 0x174F JUMP JUMPDEST SWAP3 SWAP2 POP POP JUMP JUMPDEST PUSH32 0x4E487B7100000000000000000000000000000000000000000000000000000000 PUSH0 MSTORE PUSH1 0x22 PUSH1 0x4 MSTORE PUSH1 0x24 PUSH0 REVERT JUMPDEST PUSH0 PUSH1 0x2 DUP3 DIV SWAP1 POP PUSH1 0x1 DUP3 AND DUP1 PUSH2 0x17BB JUMPI PUSH1 0x7F DUP3 AND SWAP2 POP JUMPDEST PUSH1 0x20 DUP3 LT DUP2 SUB PUSH2 0x17CE JUMPI PUSH2 0x17CD PUSH2 0x1777 JUMP JUMPDEST JUMPDEST POP SWAP2 SWAP1 POP JUMP JUMPDEST PUSH32 0x546F6B656E20646F65736E277420657869737400000000000000000000000000 PUSH0 DUP3 ADD MSTORE POP JUMP JUMPDEST PUSH0 PUSH2 0x1808 PUSH1 0x13 DUP4 PUSH2 0x11DF JUMP JUMPDEST SWAP2 POP PUSH2 0x1813 DUP3 PUSH2 0x17D4 JUMP JUMPDEST PUSH1 0x20 DUP3 ADD SWAP1 POP SWAP2 SWAP1 POP JUMP JUMPDEST PUSH0 PUSH1 0x20 DUP3 ADD SWAP1 POP DUP2 DUP2 SUB PUSH0 DUP4 ADD MSTORE PUSH2 0x1835 DUP2 PUSH2 0x17FC JUMP JUMPDEST SWAP1 POP SWAP2 SWAP1 POP JUMP JUMPDEST PUSH32 0x416C7265616479206F776E657200000000000000000000000000000000000000 PUSH0 DUP3 ADD MSTORE POP JUMP JUMPDEST PUSH0 PUSH2 0x1870 PUSH1 0xD DUP4 PUSH2 0x11DF JUMP JUMPDEST SWAP2 POP PUSH2 0x187B DUP3 PUSH2 0x183C JUMP JUMPDEST PUSH1 0x20 DUP3 ADD SWAP1 POP SWAP2 SWAP1 POP JUMP JUMPDEST PUSH0 PUSH1 0x20 DUP3 ADD SWAP1 POP DUP2 DUP2 SUB PUSH0 DUP4 ADD MSTORE PUSH2 0x189D DUP2 PUSH2 0x1864 JUMP JUMPDEST SWAP1 POP SWAP2 SWAP1 POP JUMP JUMPDEST PUSH32 0x4E6F7420617574686F72697A6564000000000000000000000000000000000000 PUSH0 DUP3 ADD MSTORE POP JUMP JUMPDEST PUSH0 PUSH2 0x18D8 PUSH1 0xE DUP4 PUSH2 0x11DF JUMP JUMPDEST SWAP2 POP PUSH2 0x18E3 DUP3 PUSH2 0x18A4 JUMP JUMPDEST PUSH1 0x20 DUP3 ADD SWAP1 POP SWAP2 SWAP1 POP JUMP JUMPDEST PUSH0 PUSH1 0x20 DUP3 ADD SWAP1 POP DUP2 DUP2 SUB PUSH0 DUP4 ADD MSTORE PUSH2 0x1905 DUP2 PUSH2 0x18CC JUMP JUMPDEST SWAP1 POP SWAP2 SWAP1 POP JUMP JUMPDEST PUSH0 DUP3 DUP3 MSTORE PUSH1 0x20 DUP3 ADD SWAP1 POP SWAP3 SWAP2 POP POP JUMP JUMPDEST POP JUMP JUMPDEST PUSH0 PUSH2 0x192A PUSH0 DUP4 PUSH2 0x190C JUMP JUMPDEST SWAP2 POP PUSH2 0x1935 DUP3 PUSH2 0x191C JUMP JUMPDEST PUSH0 DUP3 ADD SWAP1 POP SWAP2 SWAP1 POP JUMP JUMPDEST PUSH0 PUSH1 0x80 DUP3 ADD SWAP1 POP PUSH2 0x1952 PUSH0 DUP4 ADD DUP7 PUSH2 0x1304 JUMP JUMPDEST PUSH2 0x195F PUSH1 0x20 DUP4 ADD DUP6 PUSH2 0x1304 JUMP JUMPDEST PUSH2 0x196C PUSH1 0x40 DUP4 ADD DUP5 PUSH2 0x140F JUMP JUMPDEST DUP2 DUP2 SUB PUSH1 0x60 DUP4 ADD MSTORE PUSH2 0x197D DUP2 PUSH2 0x191F JUMP JUMPDEST SWAP1 POP SWAP5 SWAP4 POP POP POP POP JUMP JUMPDEST PUSH32 0x5A65726F20616464726573730000000000000000000000000000000000000000 PUSH0 DUP3 ADD MSTORE POP JUMP JUMPDEST PUSH0 PUSH2 0x19BB PUSH1 0xC DUP4 PUSH2 0x11DF JUMP JUMPDEST SWAP2 POP PUSH2 0x19C6 DUP3 PUSH2 0x1987 JUMP JUMPDEST PUSH1 0x20 DUP3 ADD SWAP1 POP SWAP2 SWAP1 POP JUMP JUMPDEST PUSH0 PUSH1 0x20 DUP3 ADD SWAP1 POP DUP2 DUP2 SUB PUSH0 DUP4 ADD MSTORE PUSH2 0x19E8 DUP2 PUSH2 0x19AF JUMP JUMPDEST SWAP1 POP SWAP2 SWAP1 POP JUMP JUMPDEST PUSH32 0x53656C6620617070726F76616C00000000000000000000000000000000000000 PUSH0 DUP3 ADD MSTORE POP JUMP JUMPDEST PUSH0 PUSH2 0x1A23 PUSH1 0xD DUP4 PUSH2 0x11DF JUMP JUMPDEST SWAP2 POP PUSH2 0x1A2E DUP3 PUSH2 0x19EF JUMP JUMPDEST PUSH1 0x20 DUP3 ADD SWAP1 POP SWAP2 SWAP1 POP JUMP JUMPDEST PUSH0 PUSH1 0x20 DUP3 ADD SWAP1 POP DUP2 DUP2 SUB PUSH0 DUP4 ADD MSTORE PUSH2 0x1A50 DUP2 PUSH2 0x1A17 JUMP JUMPDEST SWAP1 POP SWAP2 SWAP1 POP JUMP JUMPDEST PUSH32 0x4E487B7100000000000000000000000000000000000000000000000000000000 PUSH0 MSTORE PUSH1 0x11 PUSH1 0x4 MSTORE PUSH1 0x24 PUSH0 REVERT JUMPDEST PUSH0 PUSH2 0x1A8E DUP3 PUSH2 0x1276 JUMP JUMPDEST SWAP2 POP PUSH32 0xFFFFFFFFFFFFFFFFFFFFFFFFFFFFFFFFFFFFFFFFFFFFFFFFFFFFFFFFFFFFFFFF DUP3 SUB PUSH2 0x1AC0 JUMPI PUSH2 0x1ABF PUSH2 0x1A57 JUMP JUMPDEST JUMPDEST PUSH1 0x1 DUP3 ADD SWAP1 POP SWAP2 SWAP1 POP JUMP JUMPDEST PUSH0 PUSH2 0x1AD5 DUP3 PUSH2 0x1276 JUMP JUMPDEST SWAP2 POP PUSH2 0x1AE0 DUP4 PUSH2 0x1276 JUMP JUMPDEST SWAP3 POP DUP3 DUP3 ADD SWAP1 POP DUP1 DUP3 GT ISZERO PUSH2 0x1AF8 JUMPI PUSH2 0x1AF7 PUSH2 0x1A57 JUMP JUMPDEST JUMPDEST SWAP3 SWAP2 POP POP JUMP JUMPDEST PUSH0 DUP2 SWAP1 POP DUP2 PUSH0 MSTORE PUSH1 0x20 PUSH0 KECCAK256 SWAP1 POP SWAP2 SWAP1 POP JUMP JUMPDEST PUSH0 PUSH1 0x20 PUSH1 0x1F DUP4 ADD DIV SWAP1 POP SWAP2 SWAP1 POP JUMP JUMPDEST PUSH0 DUP3 DUP3 SHL SWAP1 POP SWAP3 SWAP2 POP POP JUMP JUMPDEST PUSH0 PUSH1 0x8 DUP4 MUL PUSH2 0x1B5A PUSH32 0xFFFFFFFFFFFFFFFFFFFFFFFFFFFFFFFFFFFFFFFFFFFFFFFFFFFFFFFFFFFFFFFF DUP3 PUSH2 0x1B1F JUMP JUMPDEST PUSH2 0x1B64 DUP7 DUP4 PUSH2 0x1B1F JUMP JUMPDEST SWAP6 POP DUP1 NOT DUP5 AND SWAP4 POP DUP1 DUP7 AND DUP5 OR SWAP3 POP POP POP SWAP4 SWAP3 POP POP POP JUMP JUMPDEST PUSH0 DUP2 SWAP1 POP SWAP2 SWAP1 POP JUMP JUMPDEST PUSH0 PUSH2 0x1B9F PUSH2 0x1B9A PUSH2 0x1B95 DUP5 PUSH2 0x1276 JUMP JUMPDEST PUSH2 0x1B7C JUMP JUMPDEST PUSH2 0x1276 JUMP JUMPDEST SWAP1 POP SWAP2 SWAP1 POP JUMP JUMPDEST PUSH0 DUP2 SWAP1 POP SWAP2 SWAP1 POP JUMP JUMPDEST PUSH2 0x1BB8 DUP4 PUSH2 0x1B85 JUMP JUMPDEST PUSH2 0x1BCC PUSH2 0x1BC4 DUP3 PUSH2 0x1BA6 JUMP JUMPDEST DUP5 DUP5 SLOAD PUSH2 0x1B2B JUMP JUMPDEST DUP3 SSTORE POP POP POP POP JUMP JUMPDEST PUSH0 PUSH0 SWAP1 POP SWAP1 JUMP JUMPDEST PUSH2 0x1BE3 PUSH2 0x1BD4 JUMP JUMPDEST PUSH2 0x1BEE DUP2 DUP5 DUP5 PUSH2 0x1BAF JUMP JUMPDEST POP POP POP JUMP JUMPDEST JUMPDEST DUP2 DUP2 LT ISZERO PUSH2 0x1C11 JUMPI PUSH2 0x1C06 PUSH0 DUP3 PUSH2 0x1BDB JUMP JUMPDEST PUSH1 0x1 DUP2 ADD SWAP1 POP PUSH2 0x1BF4 JUMP JUMPDEST POP POP JUMP JUMPDEST PUSH1 0x1F DUP3 GT ISZERO PUSH2 0x1C56 JUMPI PUSH2 0x1C27 DUP2 PUSH2 0x1AFE JUMP JUMPDEST PUSH2 0x1C30 DUP5 PUSH2 0x1B10 JUMP JUMPDEST DUP2 ADD PUSH1 0x20 DUP6 LT ISZERO PUSH2 0x1C3F JUMPI DUP2 SWAP1 POP JUMPDEST PUSH2 0x1C53 PUSH2 0x1C4B DUP6 PUSH2 0x1B10 JUMP JUMPDEST DUP4 ADD DUP3 PUSH2 0x1BF3 JUMP JUMPDEST POP POP JUMPDEST POP POP POP JUMP JUMPDEST PUSH0 DUP3 DUP3 SHR SWAP1 POP SWAP3 SWAP2 POP POP JUMP JUMPDEST PUSH0 PUSH2 0x1C76 PUSH0 NOT DUP5 PUSH1 0x8 MUL PUSH2 0x1C5B JUMP JUMPDEST NOT DUP1 DUP4 AND SWAP2 POP POP SWAP3 SWAP2 POP POP JUMP JUMPDEST PUSH0 PUSH2 0x1C8E DUP4 DUP4 PUSH2 0x1C67 JUMP JUMPDEST SWAP2 POP DUP3 PUSH1 0x2 MUL DUP3 OR SWAP1 POP SWAP3 SWAP2 POP POP JUMP JUMPDEST PUSH2 0x1CA7 DUP3 PUSH2 0x11D5 JUMP JUMPDEST PUSH8 0xFFFFFFFFFFFFFFFF DUP2 GT ISZERO PUSH2 0x1CC0 JUMPI PUSH2 0x1CBF PUSH2 0x1593 JUMP JUMPDEST JUMPDEST PUSH2 0x1CCA DUP3 SLOAD PUSH2 0x17A4 JUMP JUMPDEST PUSH2 0x1CD5 DUP3 DUP3 DUP6 PUSH2 0x1C15 JUMP JUMPDEST PUSH0 PUSH1 0x20 SWAP1 POP PUSH1 0x1F DUP4 GT PUSH1 0x1 DUP2 EQ PUSH2 0x1D06 JUMPI PUSH0 DUP5 ISZERO PUSH2 0x1CF4 JUMPI DUP3 DUP8 ADD MLOAD SWAP1 POP JUMPDEST PUSH2 0x1CFE DUP6 DUP3 PUSH2 0x1C83 JUMP JUMPDEST DUP7 SSTORE POP PUSH2 0x1D65 JUMP JUMPDEST PUSH1 0x1F NOT DUP5 AND PUSH2 0x1D14 DUP7 PUSH2 0x1AFE JUMP JUMPDEST PUSH0 JUMPDEST DUP3 DUP2 LT ISZERO PUSH2 0x1D3B JUMPI DUP5 DUP10 ADD MLOAD DUP3 SSTORE PUSH1 0x1 DUP3 ADD SWAP2 POP PUSH1 0x20 DUP6 ADD SWAP5 POP PUSH1 0x20 DUP2 ADD SWAP1 POP PUSH2 0x1D16 JUMP JUMPDEST DUP7 DUP4 LT ISZERO PUSH2 0x1D58 JUMPI DUP5 DUP10 ADD MLOAD PUSH2 0x1D54 PUSH1 0x1F DUP10 AND DUP3 PUSH2 0x1C67 JUMP JUMPDEST DUP4 SSTORE POP JUMPDEST PUSH1 0x1 PUSH1 0x2 DUP9 MUL ADD DUP9 SSTORE POP POP POP JUMPDEST POP POP POP POP POP POP JUMP JUMPDEST PUSH32 0x4E6F74206F776E65720000000000000000000000000000000000000000000000 PUSH0 DUP3 ADD MSTORE POP JUMP JUMPDEST PUSH0 PUSH2 0x1DA1 PUSH1 0x9 DUP4 PUSH2 0x11DF JUMP JUMPDEST SWAP2 POP PUSH2 0x1DAC DUP3 PUSH2 0x1D6D JUMP JUMPDEST PUSH1 0x20 DUP3 ADD SWAP1 POP SWAP2 SWAP1 POP JUMP JUMPDEST PUSH0 PUSH1 0x20 DUP3 ADD SWAP1 POP DUP2 DUP2 SUB PUSH0 DUP4 ADD MSTORE PUSH2 0x1DCE DUP2 PUSH2 0x1D95 JUMP JUMPDEST SWAP1 POP SWAP2 SWAP1 POP JUMP JUMPDEST PUSH0 PUSH2 0x1DDF DUP3 PUSH2 0x1276 JUMP JUMPDEST SWAP2 POP PUSH2 0x1DEA DUP4 PUSH2 0x1276 JUMP JUMPDEST SWAP3 POP DUP3 DUP3 SUB SWAP1 POP DUP2 DUP2 GT ISZERO PUSH2 0x1E02 JUMPI PUSH2 0x1E01 PUSH2 0x1A57 JUMP JUMPDEST JUMPDEST SWAP3 SWAP2 POP POP JUMP JUMPDEST PUSH32 0x4E6F742045524337323152656365697665720000000000000000000000000000 PUSH0 DUP3 ADD MSTORE POP JUMP JUMPDEST PUSH0 PUSH2 0x1E3C PUSH1 0x12 DUP4 PUSH2 0x11DF JUMP JUMPDEST SWAP2 POP PUSH2 0x1E47 DUP3 PUSH2 0x1E08 JUMP JUMPDEST PUSH1 0x20 DUP3 ADD SWAP1 POP SWAP2 SWAP1 POP JUMP JUMPDEST PUSH0 PUSH1 0x20 DUP3 ADD SWAP1 POP DUP2 DUP2 SUB PUSH0 DUP4 ADD MSTORE PUSH2 0x1E69 DUP2 PUSH2 0x1E30 JUMP JUMPDEST SWAP1 POP SWAP2 SWAP1 POP JUMP JUMPDEST PUSH0 DUP2 MLOAD SWAP1 POP SWAP2 SWAP1 POP JUMP JUMPDEST PUSH0 PUSH2 0x1E84 DUP3 PUSH2 0x1E70 JUMP JUMPDEST PUSH2 0x1E8E DUP2 DUP6 PUSH2 0x190C JUMP JUMPDEST SWAP4 POP PUSH2 0x1E9E DUP2 DUP6 PUSH1 0x20 DUP7 ADD PUSH2 0x11EF JUMP JUMPDEST PUSH2 0x1EA7 DUP2 PUSH2 0x11FD JUMP JUMPDEST DUP5 ADD SWAP2 POP POP SWAP3 SWAP2 POP POP JUMP JUMPDEST PUSH0 PUSH1 0x80 DUP3 ADD SWAP1 POP PUSH2 0x1EC5 PUSH0 DUP4 ADD DUP8 PUSH2 0x1304 JUMP JUMPDEST PUSH2 0x1ED2 PUSH1 0x20 DUP4 ADD DUP7 PUSH2 0x1304 JUMP JUMPDEST PUSH2 0x1EDF PUSH1 0x40 DUP4 ADD DUP6 PUSH2 0x140F JUMP JUMPDEST DUP2 DUP2 SUB PUSH1 0x60 DUP4 ADD MSTORE PUSH2 0x1EF1 DUP2 DUP5 PUSH2 0x1E7A JUMP JUMPDEST SWAP1 POP SWAP6 SWAP5 POP POP POP POP POP JUMP JUMPDEST PUSH0 PUSH32 0xFFFFFFFF00000000000000000000000000000000000000000000000000000000 DUP3 AND SWAP1 POP SWAP2 SWAP1 POP JUMP JUMPDEST PUSH2 0x1F30 DUP2 PUSH2 0x1EFC JUMP JUMPDEST DUP2 EQ PUSH2 0x1F3A JUMPI PUSH0 PUSH0 REVERT JUMPDEST POP JUMP JUMPDEST PUSH0 DUP2 MLOAD SWAP1 POP PUSH2 0x1F4B DUP2 PUSH2 0x1F27 JUMP JUMPDEST SWAP3 SWAP2 POP POP JUMP JUMPDEST PUSH0 PUSH1 0x20 DUP3 DUP5 SUB SLT ISZERO PUSH2 0x1F66 JUMPI PUSH2 0x1F65 PUSH2 0x126E JUMP JUMPDEST JUMPDEST PUSH0 PUSH2 0x1F73 DUP5 DUP3 DUP6 ADD PUSH2 0x1F3D JUMP JUMPDEST SWAP2 POP POP SWAP3 SWAP2 POP POP JUMP INVALID LOG2 PUSH5 0x6970667358 0x22 SLT KECCAK256 0x26 PUSH19 0x97EE5F0BE96AB6FC5CE49C3A3FA4ECD58411A6 0xAE PUSH27 0x4D5FBC5B798E8F60BF64736F6C634300081E003300000000000000 "
				},
				"gasEstimates": {
					"creation": {
						"codeDepositCost": "1622800",
						"executionCost": "infinite",
						"totalCost": "infinite"
					},
					"external": {
						"approve(address,uint256)": "31688",
						"balanceOf(address)": "2886",
						"getApproved(uint256)": "5120",
						"isApprovedForAll(address,address)": "infinite",
						"mint(address,string)": "infinite",
						"name()": "infinite",
						"ownerOf(uint256)": "3051",
						"safeTransferFrom(address,address,uint256)": "infinite",
						"safeTransferFrom(address,address,uint256,bytes)": "infinite",
						"setApprovalForAll(address,bool)": "infinite",
						"symbol()": "infinite",
						"tokenURI(uint256)": "infinite",
						"transferFrom(address,address,uint256)": "infinite"
					},
					"internal": {
						"_checkOnERC721Received(address,address,uint256,bytes memory)": "infinite",
						"_isApprovedOrOwner(address,uint256)": "infinite",
						"_safeTransfer(address,address,uint256,bytes memory)": "infinite",
						"_transfer(address,address,uint256)": "infinite"
					}
				},
				"methodIdentifiers": {
					"approve(address,uint256)": "095ea7b3",
					"balanceOf(address)": "70a08231",
					"getApproved(uint256)": "081812fc",
					"isApprovedForAll(address,address)": "e985e9c5",
					"mint(address,string)": "d0def521",
					"name()": "06fdde03",
					"ownerOf(uint256)": "6352211e",
					"safeTransferFrom(address,address,uint256)": "42842e0e",
					"safeTransferFrom(address,address,uint256,bytes)": "b88d4fde",
					"setApprovalForAll(address,bool)": "a22cb465",
					"symbol()": "95d89b41",
					"tokenURI(uint256)": "c87b56dd",
					"transferFrom(address,address,uint256)": "23b872dd"
				}
			},
			"storageLayout": {
				"storage": [
					{
						"astId": 117,
						"contract": "submissions/Serena Y/Day21-SimpleNFT.sol:SimpleNFT",
						"label": "name",
						"offset": 0,
						"slot": "0",
						"type": "t_string_storage"
					},
					{
						"astId": 119,
						"contract": "submissions/Serena Y/Day21-SimpleNFT.sol:SimpleNFT",
						"label": "symbol",
						"offset": 0,
						"slot": "1",
						"type": "t_string_storage"
					},
					{
						"astId": 122,
						"contract": "submissions/Serena Y/Day21-SimpleNFT.sol:SimpleNFT",
						"label": "_tokenIdCounter",
						"offset": 0,
						"slot": "2",
						"type": "t_uint256"
					},
					{
						"astId": 126,
						"contract": "submissions/Serena Y/Day21-SimpleNFT.sol:SimpleNFT",
						"label": "_owners",
						"offset": 0,
						"slot": "3",
						"type": "t_mapping(t_uint256,t_address)"
					},
					{
						"astId": 130,
						"contract": "submissions/Serena Y/Day21-SimpleNFT.sol:SimpleNFT",
						"label": "_balances",
						"offset": 0,
						"slot": "4",
						"type": "t_mapping(t_address,t_uint256)"
					},
					{
						"astId": 134,
						"contract": "submissions/Serena Y/Day21-SimpleNFT.sol:SimpleNFT",
						"label": "_tokenApprovals",
						"offset": 0,
						"slot": "5",
						"type": "t_mapping(t_uint256,t_address)"
					},
					{
						"astId": 140,
						"contract": "submissions/Serena Y/Day21-SimpleNFT.sol:SimpleNFT",
						"label": "_operatorApprovals",
						"offset": 0,
						"slot": "6",
						"type": "t_mapping(t_address,t_mapping(t_address,t_bool))"
					},
					{
						"astId": 144,
						"contract": "submissions/Serena Y/Day21-SimpleNFT.sol:SimpleNFT",
						"label": "_tokenURIs",
						"offset": 0,
						"slot": "7",
						"type": "t_mapping(t_uint256,t_string_storage)"
					}
				],
				"types": {
					"t_address": {
						"encoding": "inplace",
						"label": "address",
						"numberOfBytes": "20"
					},
					"t_bool": {
						"encoding": "inplace",
						"label": "bool",
						"numberOfBytes": "1"
					},
					"t_mapping(t_address,t_bool)": {
						"encoding": "mapping",
						"key": "t_address",
						"label": "mapping(address => bool)",
						"numberOfBytes": "32",
						"value": "t_bool"
					},
					"t_mapping(t_address,t_mapping(t_address,t_bool))": {
						"encoding": "mapping",
						"key": "t_address",
						"label": "mapping(address => mapping(address => bool))",
						"numberOfBytes": "32",
						"value": "t_mapping(t_address,t_bool)"
					},
					"t_mapping(t_address,t_uint256)": {
						"encoding": "mapping",
						"key": "t_address",
						"label": "mapping(address => uint256)",
						"numberOfBytes": "32",
						"value": "t_uint256"
					},
					"t_mapping(t_uint256,t_address)": {
						"encoding": "mapping",
						"key": "t_uint256",
						"label": "mapping(uint256 => address)",
						"numberOfBytes": "32",
						"value": "t_address"
					},
					"t_mapping(t_uint256,t_string_storage)": {
						"encoding": "mapping",
						"key": "t_uint256",
						"label": "mapping(uint256 => string)",
						"numberOfBytes": "32",
						"value": "t_string_storage"
					},
					"t_string_storage": {
						"encoding": "bytes",
						"label": "string",
						"numberOfBytes": "32"
					},
					"t_uint256": {
						"encoding": "inplace",
						"label": "uint256",
						"numberOfBytes": "32"
					}
				}
			},
			"userdoc": {
				"kind": "user",
				"methods": {},
				"version": 1
			}
		}
	}
}