{
	"submissions/Gabbi/day5 admin only.sol": {
		"adminOnly": {
			"abi": [
				{
					"inputs": [],
					"stateMutability": "nonpayable",
					"type": "constructor"
				},
				{
					"inputs": [
						{
							"internalType": "uint256",
							"name": "amount",
							"type": "uint256"
						}
					],
					"name": "addTreasure",
					"outputs": [],
					"stateMutability": "nonpayable",
					"type": "function"
				},
				{
					"inputs": [
						{
							"internalType": "address",
							"name": "recipient",
							"type": "address"
						},
						{
							"internalType": "uint256",
							"name": "amount",
							"type": "uint256"
						}
					],
					"name": "approveWithdrawal",
					"outputs": [],
					"stateMutability": "nonpayable",
					"type": "function"
				},
				{
					"inputs": [],
					"name": "getTreasureDetails",
					"outputs": [
						{
							"internalType": "uint256",
							"name": "",
							"type": "uint256"
						}
					],
					"stateMutability": "view",
					"type": "function"
				},
				{
					"inputs": [
						{
							"internalType": "address",
							"name": "",
							"type": "address"
						}
					],
					"name": "hasWithdrawn",
					"outputs": [
						{
							"internalType": "bool",
							"name": "",
							"type": "bool"
						}
					],
					"stateMutability": "view",
					"type": "function"
				},
				{
					"inputs": [],
					"name": "owner",
					"outputs": [
						{
							"internalType": "address",
							"name": "",
							"type": "address"
						}
					],
					"stateMutability": "view",
					"type": "function"
				},
				{
					"inputs": [
						{
							"internalType": "address",
							"name": "user",
							"type": "address"
						}
					],
					"name": "resetWithdrawalStatus",
					"outputs": [],
					"stateMutability": "nonpayable",
					"type": "function"
				},
				{
					"inputs": [
						{
							"internalType": "address",
							"name": "newOwner",
							"type": "address"
						}
					],
					"name": "transferOwnership",
					"outputs": [],
					"stateMutability": "nonpayable",
					"type": "function"
				},
				{
					"inputs": [],
					"name": "treasureAmount",
					"outputs": [
						{
							"internalType": "uint256",
							"name": "",
							"type": "uint256"
						}
					],
					"stateMutability": "view",
					"type": "function"
				},
				{
					"inputs": [
						{
							"internalType": "address",
							"name": "",
							"type": "address"
						}
					],
					"name": "withdrawalAllowance",
					"outputs": [
						{
							"internalType": "uint256",
							"name": "",
							"type": "uint256"
						}
					],
					"stateMutability": "view",
					"type": "function"
				},
				{
					"inputs": [
						{
							"internalType": "uint256",
							"name": "amount",
							"type": "uint256"
						}
					],
					"name": "withdrawalTreasure",
					"outputs": [],
					"stateMutability": "nonpayable",
					"type": "function"
				}
			],
			"devdoc": {
				"kind": "dev",
				"methods": {},
				"version": 1
			},
			"evm": {
				"assembly": "    /* \"submissions/Gabbi/day5 admin only.sol\":57:1849  contract adminOnly{... */\n  mstore(0x40, 0x80)\n    /* \"submissions/Gabbi/day5 admin only.sol\":251:299  constructor(){... */\n  callvalue\n  dup1\n  iszero\n  tag_1\n  jumpi\n  revert(0x00, 0x00)\ntag_1:\n  pop\n    /* \"submissions/Gabbi/day5 admin only.sol\":282:292  msg.sender */\n  caller\n    /* \"submissions/Gabbi/day5 admin only.sol\":274:279  owner */\n  0x00\n  0x00\n    /* \"submissions/Gabbi/day5 admin only.sol\":274:292  owner = msg.sender */\n  0x0100\n  exp\n  dup2\n  sload\n  dup2\n  0xffffffffffffffffffffffffffffffffffffffff\n  mul\n  not\n  and\n  swap1\n  dup4\n  0xffffffffffffffffffffffffffffffffffffffff\n  and\n  mul\n  or\n  swap1\n  sstore\n  pop\n    /* \"submissions/Gabbi/day5 admin only.sol\":57:1849  contract adminOnly{... */\n  dataSize(sub_0)\n  dup1\n  dataOffset(sub_0)\n  0x00\n  codecopy\n  0x00\n  return\nstop\n\nsub_0: assembly {\n        /* \"submissions/Gabbi/day5 admin only.sol\":57:1849  contract adminOnly{... */\n      mstore(0x40, 0x80)\n      callvalue\n      dup1\n      iszero\n      tag_1\n      jumpi\n      revert(0x00, 0x00)\n    tag_1:\n      pop\n      jumpi(tag_2, lt(calldatasize, 0x04))\n      shr(0xe0, calldataload(0x00))\n      dup1\n      0x941907de\n      gt\n      tag_13\n      jumpi\n      dup1\n      0x941907de\n      eq\n      tag_8\n      jumpi\n      dup1\n      0xdfbb36f9\n      eq\n      tag_9\n      jumpi\n      dup1\n      0xe0147005\n      eq\n      tag_10\n      jumpi\n      dup1\n      0xf2fde38b\n      eq\n      tag_11\n      jumpi\n      dup1\n      0xf4970e71\n      eq\n      tag_12\n      jumpi\n      jump(tag_2)\n    tag_13:\n      dup1\n      0x02a43f02\n      eq\n      tag_3\n      jumpi\n      dup1\n      0x5b238ee5\n      eq\n      tag_4\n      jumpi\n      dup1\n      0x5e2c19db\n      eq\n      tag_5\n      jumpi\n      dup1\n      0x774124fa\n      eq\n      tag_6\n      jumpi\n      dup1\n      0x8da5cb5b\n      eq\n      tag_7\n      jumpi\n    tag_2:\n      revert(0x00, 0x00)\n        /* \"submissions/Gabbi/day5 admin only.sol\":761:1427  function withdrawalTreasure(uint256 amount) public{... */\n    tag_3:\n      tag_14\n      0x04\n      dup1\n      calldatasize\n      sub\n      dup2\n      add\n      swap1\n      tag_15\n      swap2\n      swap1\n      tag_16\n      jump\t// in\n    tag_15:\n      tag_17\n      jump\t// in\n    tag_14:\n      stop\n        /* \"submissions/Gabbi/day5 admin only.sol\":107:136  uint256 public treasureAmount */\n    tag_4:\n      tag_18\n      tag_19\n      jump\t// in\n    tag_18:\n      mload(0x40)\n      tag_20\n      swap2\n      swap1\n      tag_21\n      jump\t// in\n    tag_20:\n      mload(0x40)\n      dup1\n      swap2\n      sub\n      swap1\n      return\n        /* \"submissions/Gabbi/day5 admin only.sol\":201:244  mapping(address=> bool) public hasWithdrawn */\n    tag_5:\n      tag_22\n      0x04\n      dup1\n      calldatasize\n      sub\n      dup2\n      add\n      swap1\n      tag_23\n      swap2\n      swap1\n      tag_24\n      jump\t// in\n    tag_23:\n      tag_25\n      jump\t// in\n    tag_22:\n      mload(0x40)\n      tag_26\n      swap2\n      swap1\n      tag_27\n      jump\t// in\n    tag_26:\n      mload(0x40)\n      dup1\n      swap2\n      sub\n      swap1\n      return\n        /* \"submissions/Gabbi/day5 admin only.sol\":1727:1839  function getTreasureDetails() public view onlyOwner returns (uint256) {... */\n    tag_6:\n      tag_28\n      tag_29\n      jump\t// in\n    tag_28:\n      mload(0x40)\n      tag_30\n      swap2\n      swap1\n      tag_21\n      jump\t// in\n    tag_30:\n      mload(0x40)\n      dup1\n      swap2\n      sub\n      swap1\n      return\n        /* \"submissions/Gabbi/day5 admin only.sol\":81:101  address public owner */\n    tag_7:\n      tag_31\n      tag_32\n      jump\t// in\n    tag_31:\n      mload(0x40)\n      tag_33\n      swap2\n      swap1\n      tag_34\n      jump\t// in\n    tag_33:\n      mload(0x40)\n      dup1\n      swap2\n      sub\n      swap1\n      return\n        /* \"submissions/Gabbi/day5 admin only.sol\":1436:1545  function resetWithdrawalStatus(address user) public onlyOwner {... */\n    tag_8:\n      tag_35\n      0x04\n      dup1\n      calldatasize\n      sub\n      dup2\n      add\n      swap1\n      tag_36\n      swap2\n      swap1\n      tag_24\n      jump\t// in\n    tag_36:\n      tag_37\n      jump\t// in\n    tag_35:\n      stop\n        /* \"submissions/Gabbi/day5 admin only.sol\":142:195  mapping(address=> uint256) public withdrawalAllowance */\n    tag_9:\n      tag_38\n      0x04\n      dup1\n      calldatasize\n      sub\n      dup2\n      add\n      swap1\n      tag_39\n      swap2\n      swap1\n      tag_24\n      jump\t// in\n    tag_39:\n      tag_40\n      jump\t// in\n    tag_38:\n      mload(0x40)\n      tag_41\n      swap2\n      swap1\n      tag_21\n      jump\t// in\n    tag_41:\n      mload(0x40)\n      dup1\n      swap2\n      sub\n      swap1\n      return\n        /* \"submissions/Gabbi/day5 admin only.sol\":445:539  function addTreasure(uint256 amount) public onlyOwner{... */\n    tag_10:\n      tag_42\n      0x04\n      dup1\n      calldatasize\n      sub\n      dup2\n      add\n      swap1\n      tag_43\n      swap2\n      swap1\n      tag_16\n      jump\t// in\n    tag_43:\n      tag_44\n      jump\t// in\n    tag_42:\n      stop\n        /* \"submissions/Gabbi/day5 admin only.sol\":1555:1714  function transferOwnership(address newOwner) public onlyOwner {... */\n    tag_11:\n      tag_45\n      0x04\n      dup1\n      calldatasize\n      sub\n      dup2\n      add\n      swap1\n      tag_46\n      swap2\n      swap1\n      tag_24\n      jump\t// in\n    tag_46:\n      tag_47\n      jump\t// in\n    tag_45:\n      stop\n        /* \"submissions/Gabbi/day5 admin only.sol\":545:755  function approveWithdrawal(address recipient,uint256 amount) public onlyOwner {... */\n    tag_12:\n      tag_48\n      0x04\n      dup1\n      calldatasize\n      sub\n      dup2\n      add\n      swap1\n      tag_49\n      swap2\n      swap1\n      tag_50\n      jump\t// in\n    tag_49:\n      tag_51\n      jump\t// in\n    tag_48:\n      stop\n        /* \"submissions/Gabbi/day5 admin only.sol\":761:1427  function withdrawalTreasure(uint256 amount) public{... */\n    tag_17:\n        /* \"submissions/Gabbi/day5 admin only.sol\":837:842  owner */\n      0x00\n      0x00\n      swap1\n      sload\n      swap1\n      0x0100\n      exp\n      swap1\n      div\n      0xffffffffffffffffffffffffffffffffffffffff\n      and\n        /* \"submissions/Gabbi/day5 admin only.sol\":825:842  msg.sender==owner */\n      0xffffffffffffffffffffffffffffffffffffffff\n      and\n        /* \"submissions/Gabbi/day5 admin only.sol\":825:835  msg.sender */\n      caller\n        /* \"submissions/Gabbi/day5 admin only.sol\":825:842  msg.sender==owner */\n      0xffffffffffffffffffffffffffffffffffffffff\n      and\n      sub\n        /* \"submissions/Gabbi/day5 admin only.sol\":821:992  if (msg.sender==owner){... */\n      tag_53\n      jumpi\n        /* \"submissions/Gabbi/day5 admin only.sol\":876:890  treasureAmount */\n      sload(0x01)\n        /* \"submissions/Gabbi/day5 admin only.sol\":866:872  amount */\n      dup2\n        /* \"submissions/Gabbi/day5 admin only.sol\":866:890  amount <= treasureAmount */\n      gt\n      iszero\n        /* \"submissions/Gabbi/day5 admin only.sol\":857:924  require (amount <= treasureAmount, \"Not enough treasure available\") */\n      tag_54\n      jumpi\n      mload(0x40)\n      0x08c379a000000000000000000000000000000000000000000000000000000000\n      dup2\n      mstore\n      0x04\n      add\n      tag_55\n      swap1\n      tag_56\n      jump\t// in\n    tag_55:\n      mload(0x40)\n      dup1\n      swap2\n      sub\n      swap1\n      revert\n    tag_54:\n        /* \"submissions/Gabbi/day5 admin only.sol\":955:961  amount */\n      dup1\n        /* \"submissions/Gabbi/day5 admin only.sol\":938:952  treasureAmount */\n      0x01\n      0x00\n        /* \"submissions/Gabbi/day5 admin only.sol\":938:961  treasureAmount-= amount */\n      dup3\n      dup3\n      sload\n      tag_57\n      swap2\n      swap1\n      tag_58\n      jump\t// in\n    tag_57:\n      swap3\n      pop\n      pop\n      dup2\n      swap1\n      sstore\n      pop\n        /* \"submissions/Gabbi/day5 admin only.sol\":975:982  return; */\n      jump(tag_52)\n        /* \"submissions/Gabbi/day5 admin only.sol\":821:992  if (msg.sender==owner){... */\n    tag_53:\n        /* \"submissions/Gabbi/day5 admin only.sol\":1002:1019  uint256 allowance */\n      0x00\n        /* \"submissions/Gabbi/day5 admin only.sol\":1022:1041  withdrawalAllowance */\n      0x02\n        /* \"submissions/Gabbi/day5 admin only.sol\":1022:1053  withdrawalAllowance[msg.sender] */\n      0x00\n        /* \"submissions/Gabbi/day5 admin only.sol\":1042:1052  msg.sender */\n      caller\n        /* \"submissions/Gabbi/day5 admin only.sol\":1022:1053  withdrawalAllowance[msg.sender] */\n      0xffffffffffffffffffffffffffffffffffffffff\n      and\n      0xffffffffffffffffffffffffffffffffffffffff\n      and\n      dup2\n      mstore\n      0x20\n      add\n      swap1\n      dup2\n      mstore\n      0x20\n      add\n      0x00\n      keccak256\n      sload\n        /* \"submissions/Gabbi/day5 admin only.sol\":1002:1053  uint256 allowance = withdrawalAllowance[msg.sender] */\n      swap1\n      pop\n        /* \"submissions/Gabbi/day5 admin only.sol\":1083:1084  0 */\n      0x00\n        /* \"submissions/Gabbi/day5 admin only.sol\":1071:1080  allowance */\n      dup2\n        /* \"submissions/Gabbi/day5 admin only.sol\":1071:1084  allowance > 0 */\n      gt\n        /* \"submissions/Gabbi/day5 admin only.sol\":1063:1126  require(allowance > 0, \"You don't have any treasure allowance\") */\n      tag_59\n      jumpi\n      mload(0x40)\n      0x08c379a000000000000000000000000000000000000000000000000000000000\n      dup2\n      mstore\n      0x04\n      add\n      tag_60\n      swap1\n      tag_61\n      jump\t// in\n    tag_60:\n      mload(0x40)\n      dup1\n      swap2\n      sub\n      swap1\n      revert\n    tag_59:\n        /* \"submissions/Gabbi/day5 admin only.sol\":1145:1157  hasWithdrawn */\n      0x03\n        /* \"submissions/Gabbi/day5 admin only.sol\":1145:1169  hasWithdrawn[msg.sender] */\n      0x00\n        /* \"submissions/Gabbi/day5 admin only.sol\":1158:1168  msg.sender */\n      caller\n        /* \"submissions/Gabbi/day5 admin only.sol\":1145:1169  hasWithdrawn[msg.sender] */\n      0xffffffffffffffffffffffffffffffffffffffff\n      and\n      0xffffffffffffffffffffffffffffffffffffffff\n      and\n      dup2\n      mstore\n      0x20\n      add\n      swap1\n      dup2\n      mstore\n      0x20\n      add\n      0x00\n      keccak256\n      0x00\n      swap1\n      sload\n      swap1\n      0x0100\n      exp\n      swap1\n      div\n      0xff\n      and\n        /* \"submissions/Gabbi/day5 admin only.sol\":1144:1169  !hasWithdrawn[msg.sender] */\n      iszero\n        /* \"submissions/Gabbi/day5 admin only.sol\":1136:1214  require(!hasWithdrawn[msg.sender], \"You have already withdrawn your treasure\") */\n      tag_62\n      jumpi\n      mload(0x40)\n      0x08c379a000000000000000000000000000000000000000000000000000000000\n      dup2\n      mstore\n      0x04\n      add\n      tag_63\n      swap1\n      tag_64\n      jump\t// in\n    tag_63:\n      mload(0x40)\n      dup1\n      swap2\n      sub\n      swap1\n      revert\n    tag_62:\n        /* \"submissions/Gabbi/day5 admin only.sol\":1245:1259  treasureAmount */\n      sload(0x01)\n        /* \"submissions/Gabbi/day5 admin only.sol\":1232:1241  allowance */\n      dup2\n        /* \"submissions/Gabbi/day5 admin only.sol\":1232:1259  allowance <= treasureAmount */\n      gt\n      iszero\n        /* \"submissions/Gabbi/day5 admin only.sol\":1224:1296  require(allowance <= treasureAmount, \"Not enough treasure in the chest\") */\n      tag_65\n      jumpi\n      mload(0x40)\n      0x08c379a000000000000000000000000000000000000000000000000000000000\n      dup2\n      mstore\n      0x04\n      add\n      tag_66\n      swap1\n      tag_67\n      jump\t// in\n    tag_66:\n      mload(0x40)\n      dup1\n      swap2\n      sub\n      swap1\n      revert\n    tag_65:\n        /* \"submissions/Gabbi/day5 admin only.sol\":1334:1338  true */\n      0x01\n        /* \"submissions/Gabbi/day5 admin only.sol\":1307:1319  hasWithdrawn */\n      0x03\n        /* \"submissions/Gabbi/day5 admin only.sol\":1307:1331  hasWithdrawn[msg.sender] */\n      0x00\n        /* \"submissions/Gabbi/day5 admin only.sol\":1320:1330  msg.sender */\n      caller\n        /* \"submissions/Gabbi/day5 admin only.sol\":1307:1331  hasWithdrawn[msg.sender] */\n      0xffffffffffffffffffffffffffffffffffffffff\n      and\n      0xffffffffffffffffffffffffffffffffffffffff\n      and\n      dup2\n      mstore\n      0x20\n      add\n      swap1\n      dup2\n      mstore\n      0x20\n      add\n      0x00\n      keccak256\n      0x00\n        /* \"submissions/Gabbi/day5 admin only.sol\":1307:1338  hasWithdrawn[msg.sender] = true */\n      0x0100\n      exp\n      dup2\n      sload\n      dup2\n      0xff\n      mul\n      not\n      and\n      swap1\n      dup4\n      iszero\n      iszero\n      mul\n      or\n      swap1\n      sstore\n      pop\n        /* \"submissions/Gabbi/day5 admin only.sol\":1366:1375  allowance */\n      dup1\n        /* \"submissions/Gabbi/day5 admin only.sol\":1348:1362  treasureAmount */\n      0x01\n      0x00\n        /* \"submissions/Gabbi/day5 admin only.sol\":1348:1375  treasureAmount -= allowance */\n      dup3\n      dup3\n      sload\n      tag_68\n      swap2\n      swap1\n      tag_58\n      jump\t// in\n    tag_68:\n      swap3\n      pop\n      pop\n      dup2\n      swap1\n      sstore\n      pop\n        /* \"submissions/Gabbi/day5 admin only.sol\":1419:1420  0 */\n      0x00\n        /* \"submissions/Gabbi/day5 admin only.sol\":1385:1404  withdrawalAllowance */\n      0x02\n        /* \"submissions/Gabbi/day5 admin only.sol\":1385:1416  withdrawalAllowance[msg.sender] */\n      0x00\n        /* \"submissions/Gabbi/day5 admin only.sol\":1405:1415  msg.sender */\n      caller\n        /* \"submissions/Gabbi/day5 admin only.sol\":1385:1416  withdrawalAllowance[msg.sender] */\n      0xffffffffffffffffffffffffffffffffffffffff\n      and\n      0xffffffffffffffffffffffffffffffffffffffff\n      and\n      dup2\n      mstore\n      0x20\n      add\n      swap1\n      dup2\n      mstore\n      0x20\n      add\n      0x00\n      keccak256\n        /* \"submissions/Gabbi/day5 admin only.sol\":1385:1420  withdrawalAllowance[msg.sender] = 0 */\n      dup2\n      swap1\n      sstore\n      pop\n        /* \"submissions/Gabbi/day5 admin only.sol\":811:1427  {... */\n      pop\n        /* \"submissions/Gabbi/day5 admin only.sol\":761:1427  function withdrawalTreasure(uint256 amount) public{... */\n    tag_52:\n      pop\n      jump\t// out\n        /* \"submissions/Gabbi/day5 admin only.sol\":107:136  uint256 public treasureAmount */\n    tag_19:\n      sload(0x01)\n      dup2\n      jump\t// out\n        /* \"submissions/Gabbi/day5 admin only.sol\":201:244  mapping(address=> bool) public hasWithdrawn */\n    tag_25:\n      mstore(0x20, 0x03)\n      dup1\n      0x00\n      mstore\n      keccak256(0x00, 0x40)\n      0x00\n      swap2\n      pop\n      sload\n      swap1\n      0x0100\n      exp\n      swap1\n      div\n      0xff\n      and\n      dup2\n      jump\t// out\n        /* \"submissions/Gabbi/day5 admin only.sol\":1727:1839  function getTreasureDetails() public view onlyOwner returns (uint256) {... */\n    tag_29:\n        /* \"submissions/Gabbi/day5 admin only.sol\":1788:1795  uint256 */\n      0x00\n        /* \"submissions/Gabbi/day5 admin only.sol\":358:363  owner */\n      0x00\n      0x00\n      swap1\n      sload\n      swap1\n      0x0100\n      exp\n      swap1\n      div\n      0xffffffffffffffffffffffffffffffffffffffff\n      and\n        /* \"submissions/Gabbi/day5 admin only.sol\":344:363  msg.sender == owner */\n      0xffffffffffffffffffffffffffffffffffffffff\n      and\n        /* \"submissions/Gabbi/day5 admin only.sol\":344:354  msg.sender */\n      caller\n        /* \"submissions/Gabbi/day5 admin only.sol\":344:363  msg.sender == owner */\n      0xffffffffffffffffffffffffffffffffffffffff\n      and\n      eq\n        /* \"submissions/Gabbi/day5 admin only.sol\":336:421  require(msg.sender == owner, \"Access denied: Only the owner can perform this action\") */\n      tag_70\n      jumpi\n      mload(0x40)\n      0x08c379a000000000000000000000000000000000000000000000000000000000\n      dup2\n      mstore\n      0x04\n      add\n      tag_71\n      swap1\n      tag_72\n      jump\t// in\n    tag_71:\n      mload(0x40)\n      dup1\n      swap2\n      sub\n      swap1\n      revert\n    tag_70:\n        /* \"submissions/Gabbi/day5 admin only.sol\":1814:1828  treasureAmount */\n      sload(0x01)\n        /* \"submissions/Gabbi/day5 admin only.sol\":1807:1828  return treasureAmount */\n      swap1\n      pop\n        /* \"submissions/Gabbi/day5 admin only.sol\":1727:1839  function getTreasureDetails() public view onlyOwner returns (uint256) {... */\n      swap1\n      jump\t// out\n        /* \"submissions/Gabbi/day5 admin only.sol\":81:101  address public owner */\n    tag_32:\n      0x00\n      0x00\n      swap1\n      sload\n      swap1\n      0x0100\n      exp\n      swap1\n      div\n      0xffffffffffffffffffffffffffffffffffffffff\n      and\n      dup2\n      jump\t// out\n        /* \"submissions/Gabbi/day5 admin only.sol\":1436:1545  function resetWithdrawalStatus(address user) public onlyOwner {... */\n    tag_37:\n        /* \"submissions/Gabbi/day5 admin only.sol\":358:363  owner */\n      0x00\n      0x00\n      swap1\n      sload\n      swap1\n      0x0100\n      exp\n      swap1\n      div\n      0xffffffffffffffffffffffffffffffffffffffff\n      and\n        /* \"submissions/Gabbi/day5 admin only.sol\":344:363  msg.sender == owner */\n      0xffffffffffffffffffffffffffffffffffffffff\n      and\n        /* \"submissions/Gabbi/day5 admin only.sol\":344:354  msg.sender */\n      caller\n        /* \"submissions/Gabbi/day5 admin only.sol\":344:363  msg.sender == owner */\n      0xffffffffffffffffffffffffffffffffffffffff\n      and\n      eq\n        /* \"submissions/Gabbi/day5 admin only.sol\":336:421  require(msg.sender == owner, \"Access denied: Only the owner can perform this action\") */\n      tag_75\n      jumpi\n      mload(0x40)\n      0x08c379a000000000000000000000000000000000000000000000000000000000\n      dup2\n      mstore\n      0x04\n      add\n      tag_76\n      swap1\n      tag_72\n      jump\t// in\n    tag_76:\n      mload(0x40)\n      dup1\n      swap2\n      sub\n      swap1\n      revert\n    tag_75:\n        /* \"submissions/Gabbi/day5 admin only.sol\":1529:1534  false */\n      0x00\n        /* \"submissions/Gabbi/day5 admin only.sol\":1508:1520  hasWithdrawn */\n      0x03\n        /* \"submissions/Gabbi/day5 admin only.sol\":1508:1526  hasWithdrawn[user] */\n      0x00\n        /* \"submissions/Gabbi/day5 admin only.sol\":1521:1525  user */\n      dup4\n        /* \"submissions/Gabbi/day5 admin only.sol\":1508:1526  hasWithdrawn[user] */\n      0xffffffffffffffffffffffffffffffffffffffff\n      and\n      0xffffffffffffffffffffffffffffffffffffffff\n      and\n      dup2\n      mstore\n      0x20\n      add\n      swap1\n      dup2\n      mstore\n      0x20\n      add\n      0x00\n      keccak256\n      0x00\n        /* \"submissions/Gabbi/day5 admin only.sol\":1508:1534  hasWithdrawn[user] = false */\n      0x0100\n      exp\n      dup2\n      sload\n      dup2\n      0xff\n      mul\n      not\n      and\n      swap1\n      dup4\n      iszero\n      iszero\n      mul\n      or\n      swap1\n      sstore\n      pop\n        /* \"submissions/Gabbi/day5 admin only.sol\":1436:1545  function resetWithdrawalStatus(address user) public onlyOwner {... */\n      pop\n      jump\t// out\n        /* \"submissions/Gabbi/day5 admin only.sol\":142:195  mapping(address=> uint256) public withdrawalAllowance */\n    tag_40:\n      mstore(0x20, 0x02)\n      dup1\n      0x00\n      mstore\n      keccak256(0x00, 0x40)\n      0x00\n      swap2\n      pop\n      swap1\n      pop\n      sload\n      dup2\n      jump\t// out\n        /* \"submissions/Gabbi/day5 admin only.sol\":445:539  function addTreasure(uint256 amount) public onlyOwner{... */\n    tag_44:\n        /* \"submissions/Gabbi/day5 admin only.sol\":358:363  owner */\n      0x00\n      0x00\n      swap1\n      sload\n      swap1\n      0x0100\n      exp\n      swap1\n      div\n      0xffffffffffffffffffffffffffffffffffffffff\n      and\n        /* \"submissions/Gabbi/day5 admin only.sol\":344:363  msg.sender == owner */\n      0xffffffffffffffffffffffffffffffffffffffff\n      and\n        /* \"submissions/Gabbi/day5 admin only.sol\":344:354  msg.sender */\n      caller\n        /* \"submissions/Gabbi/day5 admin only.sol\":344:363  msg.sender == owner */\n      0xffffffffffffffffffffffffffffffffffffffff\n      and\n      eq\n        /* \"submissions/Gabbi/day5 admin only.sol\":336:421  require(msg.sender == owner, \"Access denied: Only the owner can perform this action\") */\n      tag_79\n      jumpi\n      mload(0x40)\n      0x08c379a000000000000000000000000000000000000000000000000000000000\n      dup2\n      mstore\n      0x04\n      add\n      tag_80\n      swap1\n      tag_72\n      jump\t// in\n    tag_80:\n      mload(0x40)\n      dup1\n      swap2\n      sub\n      swap1\n      revert\n    tag_79:\n        /* \"submissions/Gabbi/day5 admin only.sol\":526:532  amount */\n      dup1\n        /* \"submissions/Gabbi/day5 admin only.sol\":508:522  treasureAmount */\n      0x01\n      0x00\n        /* \"submissions/Gabbi/day5 admin only.sol\":508:532  treasureAmount += amount */\n      dup3\n      dup3\n      sload\n      tag_82\n      swap2\n      swap1\n      tag_83\n      jump\t// in\n    tag_82:\n      swap3\n      pop\n      pop\n      dup2\n      swap1\n      sstore\n      pop\n        /* \"submissions/Gabbi/day5 admin only.sol\":445:539  function addTreasure(uint256 amount) public onlyOwner{... */\n      pop\n      jump\t// out\n        /* \"submissions/Gabbi/day5 admin only.sol\":1555:1714  function transferOwnership(address newOwner) public onlyOwner {... */\n    tag_47:\n        /* \"submissions/Gabbi/day5 admin only.sol\":358:363  owner */\n      0x00\n      0x00\n      swap1\n      sload\n      swap1\n      0x0100\n      exp\n      swap1\n      div\n      0xffffffffffffffffffffffffffffffffffffffff\n      and\n        /* \"submissions/Gabbi/day5 admin only.sol\":344:363  msg.sender == owner */\n      0xffffffffffffffffffffffffffffffffffffffff\n      and\n        /* \"submissions/Gabbi/day5 admin only.sol\":344:354  msg.sender */\n      caller\n        /* \"submissions/Gabbi/day5 admin only.sol\":344:363  msg.sender == owner */\n      0xffffffffffffffffffffffffffffffffffffffff\n      and\n      eq\n        /* \"submissions/Gabbi/day5 admin only.sol\":336:421  require(msg.sender == owner, \"Access denied: Only the owner can perform this action\") */\n      tag_85\n      jumpi\n      mload(0x40)\n      0x08c379a000000000000000000000000000000000000000000000000000000000\n      dup2\n      mstore\n      0x04\n      add\n      tag_86\n      swap1\n      tag_72\n      jump\t// in\n    tag_86:\n      mload(0x40)\n      dup1\n      swap2\n      sub\n      swap1\n      revert\n    tag_85:\n        /* \"submissions/Gabbi/day5 admin only.sol\":1655:1656  0 */\n      0x00\n        /* \"submissions/Gabbi/day5 admin only.sol\":1635:1657  newOwner != address(0) */\n      0xffffffffffffffffffffffffffffffffffffffff\n      and\n        /* \"submissions/Gabbi/day5 admin only.sol\":1635:1643  newOwner */\n      dup2\n        /* \"submissions/Gabbi/day5 admin only.sol\":1635:1657  newOwner != address(0) */\n      0xffffffffffffffffffffffffffffffffffffffff\n      and\n      sub\n        /* \"submissions/Gabbi/day5 admin only.sol\":1627:1677  require(newOwner != address(0), \"Invalid address\") */\n      tag_88\n      jumpi\n      mload(0x40)\n      0x08c379a000000000000000000000000000000000000000000000000000000000\n      dup2\n      mstore\n      0x04\n      add\n      tag_89\n      swap1\n      tag_90\n      jump\t// in\n    tag_89:\n      mload(0x40)\n      dup1\n      swap2\n      sub\n      swap1\n      revert\n    tag_88:\n        /* \"submissions/Gabbi/day5 admin only.sol\":1695:1703  newOwner */\n      dup1\n        /* \"submissions/Gabbi/day5 admin only.sol\":1687:1692  owner */\n      0x00\n      0x00\n        /* \"submissions/Gabbi/day5 admin only.sol\":1687:1703  owner = newOwner */\n      0x0100\n      exp\n      dup2\n      sload\n      dup2\n      0xffffffffffffffffffffffffffffffffffffffff\n      mul\n      not\n      and\n      swap1\n      dup4\n      0xffffffffffffffffffffffffffffffffffffffff\n      and\n      mul\n      or\n      swap1\n      sstore\n      pop\n        /* \"submissions/Gabbi/day5 admin only.sol\":1555:1714  function transferOwnership(address newOwner) public onlyOwner {... */\n      pop\n      jump\t// out\n        /* \"submissions/Gabbi/day5 admin only.sol\":545:755  function approveWithdrawal(address recipient,uint256 amount) public onlyOwner {... */\n    tag_51:\n        /* \"submissions/Gabbi/day5 admin only.sol\":358:363  owner */\n      0x00\n      0x00\n      swap1\n      sload\n      swap1\n      0x0100\n      exp\n      swap1\n      div\n      0xffffffffffffffffffffffffffffffffffffffff\n      and\n        /* \"submissions/Gabbi/day5 admin only.sol\":344:363  msg.sender == owner */\n      0xffffffffffffffffffffffffffffffffffffffff\n      and\n        /* \"submissions/Gabbi/day5 admin only.sol\":344:354  msg.sender */\n      caller\n        /* \"submissions/Gabbi/day5 admin only.sol\":344:363  msg.sender == owner */\n      0xffffffffffffffffffffffffffffffffffffffff\n      and\n      eq\n        /* \"submissions/Gabbi/day5 admin only.sol\":336:421  require(msg.sender == owner, \"Access denied: Only the owner can perform this action\") */\n      tag_92\n      jumpi\n      mload(0x40)\n      0x08c379a000000000000000000000000000000000000000000000000000000000\n      dup2\n      mstore\n      0x04\n      add\n      tag_93\n      swap1\n      tag_72\n      jump\t// in\n    tag_93:\n      mload(0x40)\n      dup1\n      swap2\n      sub\n      swap1\n      revert\n    tag_92:\n        /* \"submissions/Gabbi/day5 admin only.sol\":651:665  treasureAmount */\n      sload(0x01)\n        /* \"submissions/Gabbi/day5 admin only.sol\":641:647  amount */\n      dup2\n        /* \"submissions/Gabbi/day5 admin only.sol\":641:665  amount <= treasureAmount */\n      gt\n      iszero\n        /* \"submissions/Gabbi/day5 admin only.sol\":633:699  require(amount <= treasureAmount, \"Not enough treasure available\") */\n      tag_95\n      jumpi\n      mload(0x40)\n      0x08c379a000000000000000000000000000000000000000000000000000000000\n      dup2\n      mstore\n      0x04\n      add\n      tag_96\n      swap1\n      tag_56\n      jump\t// in\n    tag_96:\n      mload(0x40)\n      dup1\n      swap2\n      sub\n      swap1\n      revert\n    tag_95:\n        /* \"submissions/Gabbi/day5 admin only.sol\":742:748  amount */\n      dup1\n        /* \"submissions/Gabbi/day5 admin only.sol\":709:728  withdrawalAllowance */\n      0x02\n        /* \"submissions/Gabbi/day5 admin only.sol\":709:739  withdrawalAllowance[recipient] */\n      0x00\n        /* \"submissions/Gabbi/day5 admin only.sol\":729:738  recipient */\n      dup5\n        /* \"submissions/Gabbi/day5 admin only.sol\":709:739  withdrawalAllowance[recipient] */\n      0xffffffffffffffffffffffffffffffffffffffff\n      and\n      0xffffffffffffffffffffffffffffffffffffffff\n      and\n      dup2\n      mstore\n      0x20\n      add\n      swap1\n      dup2\n      mstore\n      0x20\n      add\n      0x00\n      keccak256\n        /* \"submissions/Gabbi/day5 admin only.sol\":709:748  withdrawalAllowance[recipient] = amount */\n      dup2\n      swap1\n      sstore\n      pop\n        /* \"submissions/Gabbi/day5 admin only.sol\":545:755  function approveWithdrawal(address recipient,uint256 amount) public onlyOwner {... */\n      pop\n      pop\n      jump\t// out\n        /* \"#utility.yul\":88:205   */\n    tag_98:\n        /* \"#utility.yul\":197:198   */\n      0x00\n        /* \"#utility.yul\":194:195   */\n      0x00\n        /* \"#utility.yul\":187:199   */\n      revert\n        /* \"#utility.yul\":334:411   */\n    tag_100:\n        /* \"#utility.yul\":371:378   */\n      0x00\n        /* \"#utility.yul\":400:405   */\n      dup2\n        /* \"#utility.yul\":389:405   */\n      swap1\n      pop\n        /* \"#utility.yul\":334:411   */\n      swap2\n      swap1\n      pop\n      jump\t// out\n        /* \"#utility.yul\":417:539   */\n    tag_101:\n        /* \"#utility.yul\":490:514   */\n      tag_131\n        /* \"#utility.yul\":508:513   */\n      dup2\n        /* \"#utility.yul\":490:514   */\n      tag_100\n      jump\t// in\n    tag_131:\n        /* \"#utility.yul\":483:488   */\n      dup2\n        /* \"#utility.yul\":480:515   */\n      eq\n        /* \"#utility.yul\":470:533   */\n      tag_132\n      jumpi\n        /* \"#utility.yul\":529:530   */\n      0x00\n        /* \"#utility.yul\":526:527   */\n      0x00\n        /* \"#utility.yul\":519:531   */\n      revert\n        /* \"#utility.yul\":470:533   */\n    tag_132:\n        /* \"#utility.yul\":417:539   */\n      pop\n      jump\t// out\n        /* \"#utility.yul\":545:684   */\n    tag_102:\n        /* \"#utility.yul\":591:596   */\n      0x00\n        /* \"#utility.yul\":629:635   */\n      dup2\n        /* \"#utility.yul\":616:636   */\n      calldataload\n        /* \"#utility.yul\":607:636   */\n      swap1\n      pop\n        /* \"#utility.yul\":645:678   */\n      tag_134\n        /* \"#utility.yul\":672:677   */\n      dup2\n        /* \"#utility.yul\":645:678   */\n      tag_101\n      jump\t// in\n    tag_134:\n        /* \"#utility.yul\":545:684   */\n      swap3\n      swap2\n      pop\n      pop\n      jump\t// out\n        /* \"#utility.yul\":690:1019   */\n    tag_16:\n        /* \"#utility.yul\":749:755   */\n      0x00\n        /* \"#utility.yul\":798:800   */\n      0x20\n        /* \"#utility.yul\":786:795   */\n      dup3\n        /* \"#utility.yul\":777:784   */\n      dup5\n        /* \"#utility.yul\":773:796   */\n      sub\n        /* \"#utility.yul\":769:801   */\n      slt\n        /* \"#utility.yul\":766:885   */\n      iszero\n      tag_136\n      jumpi\n        /* \"#utility.yul\":804:883   */\n      tag_137\n      tag_98\n      jump\t// in\n    tag_137:\n        /* \"#utility.yul\":766:885   */\n    tag_136:\n        /* \"#utility.yul\":924:925   */\n      0x00\n        /* \"#utility.yul\":949:1002   */\n      tag_138\n        /* \"#utility.yul\":994:1001   */\n      dup5\n        /* \"#utility.yul\":985:991   */\n      dup3\n        /* \"#utility.yul\":974:983   */\n      dup6\n        /* \"#utility.yul\":970:992   */\n      add\n        /* \"#utility.yul\":949:1002   */\n      tag_102\n      jump\t// in\n    tag_138:\n        /* \"#utility.yul\":939:1002   */\n      swap2\n      pop\n        /* \"#utility.yul\":895:1012   */\n      pop\n        /* \"#utility.yul\":690:1019   */\n      swap3\n      swap2\n      pop\n      pop\n      jump\t// out\n        /* \"#utility.yul\":1025:1143   */\n    tag_103:\n        /* \"#utility.yul\":1112:1136   */\n      tag_140\n        /* \"#utility.yul\":1130:1135   */\n      dup2\n        /* \"#utility.yul\":1112:1136   */\n      tag_100\n      jump\t// in\n    tag_140:\n        /* \"#utility.yul\":1107:1110   */\n      dup3\n        /* \"#utility.yul\":1100:1137   */\n      mstore\n        /* \"#utility.yul\":1025:1143   */\n      pop\n      pop\n      jump\t// out\n        /* \"#utility.yul\":1149:1371   */\n    tag_21:\n        /* \"#utility.yul\":1242:1246   */\n      0x00\n        /* \"#utility.yul\":1280:1282   */\n      0x20\n        /* \"#utility.yul\":1269:1278   */\n      dup3\n        /* \"#utility.yul\":1265:1283   */\n      add\n        /* \"#utility.yul\":1257:1283   */\n      swap1\n      pop\n        /* \"#utility.yul\":1293:1364   */\n      tag_142\n        /* \"#utility.yul\":1361:1362   */\n      0x00\n        /* \"#utility.yul\":1350:1359   */\n      dup4\n        /* \"#utility.yul\":1346:1363   */\n      add\n        /* \"#utility.yul\":1337:1343   */\n      dup5\n        /* \"#utility.yul\":1293:1364   */\n      tag_103\n      jump\t// in\n    tag_142:\n        /* \"#utility.yul\":1149:1371   */\n      swap3\n      swap2\n      pop\n      pop\n      jump\t// out\n        /* \"#utility.yul\":1377:1503   */\n    tag_104:\n        /* \"#utility.yul\":1414:1421   */\n      0x00\n        /* \"#utility.yul\":1454:1496   */\n      0xffffffffffffffffffffffffffffffffffffffff\n        /* \"#utility.yul\":1447:1452   */\n      dup3\n        /* \"#utility.yul\":1443:1497   */\n      and\n        /* \"#utility.yul\":1432:1497   */\n      swap1\n      pop\n        /* \"#utility.yul\":1377:1503   */\n      swap2\n      swap1\n      pop\n      jump\t// out\n        /* \"#utility.yul\":1509:1605   */\n    tag_105:\n        /* \"#utility.yul\":1546:1553   */\n      0x00\n        /* \"#utility.yul\":1575:1599   */\n      tag_145\n        /* \"#utility.yul\":1593:1598   */\n      dup3\n        /* \"#utility.yul\":1575:1599   */\n      tag_104\n      jump\t// in\n    tag_145:\n        /* \"#utility.yul\":1564:1599   */\n      swap1\n      pop\n        /* \"#utility.yul\":1509:1605   */\n      swap2\n      swap1\n      pop\n      jump\t// out\n        /* \"#utility.yul\":1611:1733   */\n    tag_106:\n        /* \"#utility.yul\":1684:1708   */\n      tag_147\n        /* \"#utility.yul\":1702:1707   */\n      dup2\n        /* \"#utility.yul\":1684:1708   */\n      tag_105\n      jump\t// in\n    tag_147:\n        /* \"#utility.yul\":1677:1682   */\n      dup2\n        /* \"#utility.yul\":1674:1709   */\n      eq\n        /* \"#utility.yul\":1664:1727   */\n      tag_148\n      jumpi\n        /* \"#utility.yul\":1723:1724   */\n      0x00\n        /* \"#utility.yul\":1720:1721   */\n      0x00\n        /* \"#utility.yul\":1713:1725   */\n      revert\n        /* \"#utility.yul\":1664:1727   */\n    tag_148:\n        /* \"#utility.yul\":1611:1733   */\n      pop\n      jump\t// out\n        /* \"#utility.yul\":1739:1878   */\n    tag_107:\n        /* \"#utility.yul\":1785:1790   */\n      0x00\n        /* \"#utility.yul\":1823:1829   */\n      dup2\n        /* \"#utility.yul\":1810:1830   */\n      calldataload\n        /* \"#utility.yul\":1801:1830   */\n      swap1\n      pop\n        /* \"#utility.yul\":1839:1872   */\n      tag_150\n        /* \"#utility.yul\":1866:1871   */\n      dup2\n        /* \"#utility.yul\":1839:1872   */\n      tag_106\n      jump\t// in\n    tag_150:\n        /* \"#utility.yul\":1739:1878   */\n      swap3\n      swap2\n      pop\n      pop\n      jump\t// out\n        /* \"#utility.yul\":1884:2213   */\n    tag_24:\n        /* \"#utility.yul\":1943:1949   */\n      0x00\n        /* \"#utility.yul\":1992:1994   */\n      0x20\n        /* \"#utility.yul\":1980:1989   */\n      dup3\n        /* \"#utility.yul\":1971:1978   */\n      dup5\n        /* \"#utility.yul\":1967:1990   */\n      sub\n        /* \"#utility.yul\":1963:1995   */\n      slt\n        /* \"#utility.yul\":1960:2079   */\n      iszero\n      tag_152\n      jumpi\n        /* \"#utility.yul\":1998:2077   */\n      tag_153\n      tag_98\n      jump\t// in\n    tag_153:\n        /* \"#utility.yul\":1960:2079   */\n    tag_152:\n        /* \"#utility.yul\":2118:2119   */\n      0x00\n        /* \"#utility.yul\":2143:2196   */\n      tag_154\n        /* \"#utility.yul\":2188:2195   */\n      dup5\n        /* \"#utility.yul\":2179:2185   */\n      dup3\n        /* \"#utility.yul\":2168:2177   */\n      dup6\n        /* \"#utility.yul\":2164:2186   */\n      add\n        /* \"#utility.yul\":2143:2196   */\n      tag_107\n      jump\t// in\n    tag_154:\n        /* \"#utility.yul\":2133:2196   */\n      swap2\n      pop\n        /* \"#utility.yul\":2089:2206   */\n      pop\n        /* \"#utility.yul\":1884:2213   */\n      swap3\n      swap2\n      pop\n      pop\n      jump\t// out\n        /* \"#utility.yul\":2219:2309   */\n    tag_108:\n        /* \"#utility.yul\":2253:2260   */\n      0x00\n        /* \"#utility.yul\":2296:2301   */\n      dup2\n        /* \"#utility.yul\":2289:2302   */\n      iszero\n        /* \"#utility.yul\":2282:2303   */\n      iszero\n        /* \"#utility.yul\":2271:2303   */\n      swap1\n      pop\n        /* \"#utility.yul\":2219:2309   */\n      swap2\n      swap1\n      pop\n      jump\t// out\n        /* \"#utility.yul\":2315:2424   */\n    tag_109:\n        /* \"#utility.yul\":2396:2417   */\n      tag_157\n        /* \"#utility.yul\":2411:2416   */\n      dup2\n        /* \"#utility.yul\":2396:2417   */\n      tag_108\n      jump\t// in\n    tag_157:\n        /* \"#utility.yul\":2391:2394   */\n      dup3\n        /* \"#utility.yul\":2384:2418   */\n      mstore\n        /* \"#utility.yul\":2315:2424   */\n      pop\n      pop\n      jump\t// out\n        /* \"#utility.yul\":2430:2640   */\n    tag_27:\n        /* \"#utility.yul\":2517:2521   */\n      0x00\n        /* \"#utility.yul\":2555:2557   */\n      0x20\n        /* \"#utility.yul\":2544:2553   */\n      dup3\n        /* \"#utility.yul\":2540:2558   */\n      add\n        /* \"#utility.yul\":2532:2558   */\n      swap1\n      pop\n        /* \"#utility.yul\":2568:2633   */\n      tag_159\n        /* \"#utility.yul\":2630:2631   */\n      0x00\n        /* \"#utility.yul\":2619:2628   */\n      dup4\n        /* \"#utility.yul\":2615:2632   */\n      add\n        /* \"#utility.yul\":2606:2612   */\n      dup5\n        /* \"#utility.yul\":2568:2633   */\n      tag_109\n      jump\t// in\n    tag_159:\n        /* \"#utility.yul\":2430:2640   */\n      swap3\n      swap2\n      pop\n      pop\n      jump\t// out\n        /* \"#utility.yul\":2646:2764   */\n    tag_110:\n        /* \"#utility.yul\":2733:2757   */\n      tag_161\n        /* \"#utility.yul\":2751:2756   */\n      dup2\n        /* \"#utility.yul\":2733:2757   */\n      tag_105\n      jump\t// in\n    tag_161:\n        /* \"#utility.yul\":2728:2731   */\n      dup3\n        /* \"#utility.yul\":2721:2758   */\n      mstore\n        /* \"#utility.yul\":2646:2764   */\n      pop\n      pop\n      jump\t// out\n        /* \"#utility.yul\":2770:2992   */\n    tag_34:\n        /* \"#utility.yul\":2863:2867   */\n      0x00\n        /* \"#utility.yul\":2901:2903   */\n      0x20\n        /* \"#utility.yul\":2890:2899   */\n      dup3\n        /* \"#utility.yul\":2886:2904   */\n      add\n        /* \"#utility.yul\":2878:2904   */\n      swap1\n      pop\n        /* \"#utility.yul\":2914:2985   */\n      tag_163\n        /* \"#utility.yul\":2982:2983   */\n      0x00\n        /* \"#utility.yul\":2971:2980   */\n      dup4\n        /* \"#utility.yul\":2967:2984   */\n      add\n        /* \"#utility.yul\":2958:2964   */\n      dup5\n        /* \"#utility.yul\":2914:2985   */\n      tag_110\n      jump\t// in\n    tag_163:\n        /* \"#utility.yul\":2770:2992   */\n      swap3\n      swap2\n      pop\n      pop\n      jump\t// out\n        /* \"#utility.yul\":2998:3472   */\n    tag_50:\n        /* \"#utility.yul\":3066:3072   */\n      0x00\n        /* \"#utility.yul\":3074:3080   */\n      0x00\n        /* \"#utility.yul\":3123:3125   */\n      0x40\n        /* \"#utility.yul\":3111:3120   */\n      dup4\n        /* \"#utility.yul\":3102:3109   */\n      dup6\n        /* \"#utility.yul\":3098:3121   */\n      sub\n        /* \"#utility.yul\":3094:3126   */\n      slt\n        /* \"#utility.yul\":3091:3210   */\n      iszero\n      tag_165\n      jumpi\n        /* \"#utility.yul\":3129:3208   */\n      tag_166\n      tag_98\n      jump\t// in\n    tag_166:\n        /* \"#utility.yul\":3091:3210   */\n    tag_165:\n        /* \"#utility.yul\":3249:3250   */\n      0x00\n        /* \"#utility.yul\":3274:3327   */\n      tag_167\n        /* \"#utility.yul\":3319:3326   */\n      dup6\n        /* \"#utility.yul\":3310:3316   */\n      dup3\n        /* \"#utility.yul\":3299:3308   */\n      dup7\n        /* \"#utility.yul\":3295:3317   */\n      add\n        /* \"#utility.yul\":3274:3327   */\n      tag_107\n      jump\t// in\n    tag_167:\n        /* \"#utility.yul\":3264:3327   */\n      swap3\n      pop\n        /* \"#utility.yul\":3220:3337   */\n      pop\n        /* \"#utility.yul\":3376:3378   */\n      0x20\n        /* \"#utility.yul\":3402:3455   */\n      tag_168\n        /* \"#utility.yul\":3447:3454   */\n      dup6\n        /* \"#utility.yul\":3438:3444   */\n      dup3\n        /* \"#utility.yul\":3427:3436   */\n      dup7\n        /* \"#utility.yul\":3423:3445   */\n      add\n        /* \"#utility.yul\":3402:3455   */\n      tag_102\n      jump\t// in\n    tag_168:\n        /* \"#utility.yul\":3392:3455   */\n      swap2\n      pop\n        /* \"#utility.yul\":3347:3465   */\n      pop\n        /* \"#utility.yul\":2998:3472   */\n      swap3\n      pop\n      swap3\n      swap1\n      pop\n      jump\t// out\n        /* \"#utility.yul\":3478:3647   */\n    tag_111:\n        /* \"#utility.yul\":3562:3573   */\n      0x00\n        /* \"#utility.yul\":3596:3602   */\n      dup3\n        /* \"#utility.yul\":3591:3594   */\n      dup3\n        /* \"#utility.yul\":3584:3603   */\n      mstore\n        /* \"#utility.yul\":3636:3640   */\n      0x20\n        /* \"#utility.yul\":3631:3634   */\n      dup3\n        /* \"#utility.yul\":3627:3641   */\n      add\n        /* \"#utility.yul\":3612:3641   */\n      swap1\n      pop\n        /* \"#utility.yul\":3478:3647   */\n      swap3\n      swap2\n      pop\n      pop\n      jump\t// out\n        /* \"#utility.yul\":3653:3832   */\n    tag_112:\n        /* \"#utility.yul\":3793:3824   */\n      0x4e6f7420656e6f75676820747265617375726520617661696c61626c65000000\n        /* \"#utility.yul\":3789:3790   */\n      0x00\n        /* \"#utility.yul\":3781:3787   */\n      dup3\n        /* \"#utility.yul\":3777:3791   */\n      add\n        /* \"#utility.yul\":3770:3825   */\n      mstore\n        /* \"#utility.yul\":3653:3832   */\n      pop\n      jump\t// out\n        /* \"#utility.yul\":3838:4204   */\n    tag_113:\n        /* \"#utility.yul\":3980:3983   */\n      0x00\n        /* \"#utility.yul\":4001:4068   */\n      tag_172\n        /* \"#utility.yul\":4065:4067   */\n      0x1d\n        /* \"#utility.yul\":4060:4063   */\n      dup4\n        /* \"#utility.yul\":4001:4068   */\n      tag_111\n      jump\t// in\n    tag_172:\n        /* \"#utility.yul\":3994:4068   */\n      swap2\n      pop\n        /* \"#utility.yul\":4077:4170   */\n      tag_173\n        /* \"#utility.yul\":4166:4169   */\n      dup3\n        /* \"#utility.yul\":4077:4170   */\n      tag_112\n      jump\t// in\n    tag_173:\n        /* \"#utility.yul\":4195:4197   */\n      0x20\n        /* \"#utility.yul\":4190:4193   */\n      dup3\n        /* \"#utility.yul\":4186:4198   */\n      add\n        /* \"#utility.yul\":4179:4198   */\n      swap1\n      pop\n        /* \"#utility.yul\":3838:4204   */\n      swap2\n      swap1\n      pop\n      jump\t// out\n        /* \"#utility.yul\":4210:4629   */\n    tag_56:\n        /* \"#utility.yul\":4376:4380   */\n      0x00\n        /* \"#utility.yul\":4414:4416   */\n      0x20\n        /* \"#utility.yul\":4403:4412   */\n      dup3\n        /* \"#utility.yul\":4399:4417   */\n      add\n        /* \"#utility.yul\":4391:4417   */\n      swap1\n      pop\n        /* \"#utility.yul\":4463:4472   */\n      dup2\n        /* \"#utility.yul\":4457:4461   */\n      dup2\n        /* \"#utility.yul\":4453:4473   */\n      sub\n        /* \"#utility.yul\":4449:4450   */\n      0x00\n        /* \"#utility.yul\":4438:4447   */\n      dup4\n        /* \"#utility.yul\":4434:4451   */\n      add\n        /* \"#utility.yul\":4427:4474   */\n      mstore\n        /* \"#utility.yul\":4491:4622   */\n      tag_175\n        /* \"#utility.yul\":4617:4621   */\n      dup2\n        /* \"#utility.yul\":4491:4622   */\n      tag_113\n      jump\t// in\n    tag_175:\n        /* \"#utility.yul\":4483:4622   */\n      swap1\n      pop\n        /* \"#utility.yul\":4210:4629   */\n      swap2\n      swap1\n      pop\n      jump\t// out\n        /* \"#utility.yul\":4635:4815   */\n    tag_114:\n        /* \"#utility.yul\":4683:4760   */\n      0x4e487b7100000000000000000000000000000000000000000000000000000000\n        /* \"#utility.yul\":4680:4681   */\n      0x00\n        /* \"#utility.yul\":4673:4761   */\n      mstore\n        /* \"#utility.yul\":4780:4784   */\n      0x11\n        /* \"#utility.yul\":4777:4778   */\n      0x04\n        /* \"#utility.yul\":4770:4785   */\n      mstore\n        /* \"#utility.yul\":4804:4808   */\n      0x24\n        /* \"#utility.yul\":4801:4802   */\n      0x00\n        /* \"#utility.yul\":4794:4809   */\n      revert\n        /* \"#utility.yul\":4821:5015   */\n    tag_58:\n        /* \"#utility.yul\":4861:4865   */\n      0x00\n        /* \"#utility.yul\":4881:4901   */\n      tag_178\n        /* \"#utility.yul\":4899:4900   */\n      dup3\n        /* \"#utility.yul\":4881:4901   */\n      tag_100\n      jump\t// in\n    tag_178:\n        /* \"#utility.yul\":4876:4901   */\n      swap2\n      pop\n        /* \"#utility.yul\":4915:4935   */\n      tag_179\n        /* \"#utility.yul\":4933:4934   */\n      dup4\n        /* \"#utility.yul\":4915:4935   */\n      tag_100\n      jump\t// in\n    tag_179:\n        /* \"#utility.yul\":4910:4935   */\n      swap3\n      pop\n        /* \"#utility.yul\":4959:4960   */\n      dup3\n        /* \"#utility.yul\":4956:4957   */\n      dup3\n        /* \"#utility.yul\":4952:4961   */\n      sub\n        /* \"#utility.yul\":4944:4961   */\n      swap1\n      pop\n        /* \"#utility.yul\":4983:4984   */\n      dup2\n        /* \"#utility.yul\":4977:4981   */\n      dup2\n        /* \"#utility.yul\":4974:4985   */\n      gt\n        /* \"#utility.yul\":4971:5008   */\n      iszero\n      tag_180\n      jumpi\n        /* \"#utility.yul\":4988:5006   */\n      tag_181\n      tag_114\n      jump\t// in\n    tag_181:\n        /* \"#utility.yul\":4971:5008   */\n    tag_180:\n        /* \"#utility.yul\":4821:5015   */\n      swap3\n      swap2\n      pop\n      pop\n      jump\t// out\n        /* \"#utility.yul\":5021:5245   */\n    tag_115:\n        /* \"#utility.yul\":5161:5195   */\n      0x596f7520646f6e2774206861766520616e7920747265617375726520616c6c6f\n        /* \"#utility.yul\":5157:5158   */\n      0x00\n        /* \"#utility.yul\":5149:5155   */\n      dup3\n        /* \"#utility.yul\":5145:5159   */\n      add\n        /* \"#utility.yul\":5138:5196   */\n      mstore\n        /* \"#utility.yul\":5230:5237   */\n      0x77616e6365000000000000000000000000000000000000000000000000000000\n        /* \"#utility.yul\":5225:5227   */\n      0x20\n        /* \"#utility.yul\":5217:5223   */\n      dup3\n        /* \"#utility.yul\":5213:5228   */\n      add\n        /* \"#utility.yul\":5206:5238   */\n      mstore\n        /* \"#utility.yul\":5021:5245   */\n      pop\n      jump\t// out\n        /* \"#utility.yul\":5251:5617   */\n    tag_116:\n        /* \"#utility.yul\":5393:5396   */\n      0x00\n        /* \"#utility.yul\":5414:5481   */\n      tag_184\n        /* \"#utility.yul\":5478:5480   */\n      0x25\n        /* \"#utility.yul\":5473:5476   */\n      dup4\n        /* \"#utility.yul\":5414:5481   */\n      tag_111\n      jump\t// in\n    tag_184:\n        /* \"#utility.yul\":5407:5481   */\n      swap2\n      pop\n        /* \"#utility.yul\":5490:5583   */\n      tag_185\n        /* \"#utility.yul\":5579:5582   */\n      dup3\n        /* \"#utility.yul\":5490:5583   */\n      tag_115\n      jump\t// in\n    tag_185:\n        /* \"#utility.yul\":5608:5610   */\n      0x40\n        /* \"#utility.yul\":5603:5606   */\n      dup3\n        /* \"#utility.yul\":5599:5611   */\n      add\n        /* \"#utility.yul\":5592:5611   */\n      swap1\n      pop\n        /* \"#utility.yul\":5251:5617   */\n      swap2\n      swap1\n      pop\n      jump\t// out\n        /* \"#utility.yul\":5623:6042   */\n    tag_61:\n        /* \"#utility.yul\":5789:5793   */\n      0x00\n        /* \"#utility.yul\":5827:5829   */\n      0x20\n        /* \"#utility.yul\":5816:5825   */\n      dup3\n        /* \"#utility.yul\":5812:5830   */\n      add\n        /* \"#utility.yul\":5804:5830   */\n      swap1\n      pop\n        /* \"#utility.yul\":5876:5885   */\n      dup2\n        /* \"#utility.yul\":5870:5874   */\n      dup2\n        /* \"#utility.yul\":5866:5886   */\n      sub\n        /* \"#utility.yul\":5862:5863   */\n      0x00\n        /* \"#utility.yul\":5851:5860   */\n      dup4\n        /* \"#utility.yul\":5847:5864   */\n      add\n        /* \"#utility.yul\":5840:5887   */\n      mstore\n        /* \"#utility.yul\":5904:6035   */\n      tag_187\n        /* \"#utility.yul\":6030:6034   */\n      dup2\n        /* \"#utility.yul\":5904:6035   */\n      tag_116\n      jump\t// in\n    tag_187:\n        /* \"#utility.yul\":5896:6035   */\n      swap1\n      pop\n        /* \"#utility.yul\":5623:6042   */\n      swap2\n      swap1\n      pop\n      jump\t// out\n        /* \"#utility.yul\":6048:6275   */\n    tag_117:\n        /* \"#utility.yul\":6188:6222   */\n      0x596f75206861766520616c72656164792077697468647261776e20796f757220\n        /* \"#utility.yul\":6184:6185   */\n      0x00\n        /* \"#utility.yul\":6176:6182   */\n      dup3\n        /* \"#utility.yul\":6172:6186   */\n      add\n        /* \"#utility.yul\":6165:6223   */\n      mstore\n        /* \"#utility.yul\":6257:6267   */\n      0x7472656173757265000000000000000000000000000000000000000000000000\n        /* \"#utility.yul\":6252:6254   */\n      0x20\n        /* \"#utility.yul\":6244:6250   */\n      dup3\n        /* \"#utility.yul\":6240:6255   */\n      add\n        /* \"#utility.yul\":6233:6268   */\n      mstore\n        /* \"#utility.yul\":6048:6275   */\n      pop\n      jump\t// out\n        /* \"#utility.yul\":6281:6647   */\n    tag_118:\n        /* \"#utility.yul\":6423:6426   */\n      0x00\n        /* \"#utility.yul\":6444:6511   */\n      tag_190\n        /* \"#utility.yul\":6508:6510   */\n      0x28\n        /* \"#utility.yul\":6503:6506   */\n      dup4\n        /* \"#utility.yul\":6444:6511   */\n      tag_111\n      jump\t// in\n    tag_190:\n        /* \"#utility.yul\":6437:6511   */\n      swap2\n      pop\n        /* \"#utility.yul\":6520:6613   */\n      tag_191\n        /* \"#utility.yul\":6609:6612   */\n      dup3\n        /* \"#utility.yul\":6520:6613   */\n      tag_117\n      jump\t// in\n    tag_191:\n        /* \"#utility.yul\":6638:6640   */\n      0x40\n        /* \"#utility.yul\":6633:6636   */\n      dup3\n        /* \"#utility.yul\":6629:6641   */\n      add\n        /* \"#utility.yul\":6622:6641   */\n      swap1\n      pop\n        /* \"#utility.yul\":6281:6647   */\n      swap2\n      swap1\n      pop\n      jump\t// out\n        /* \"#utility.yul\":6653:7072   */\n    tag_64:\n        /* \"#utility.yul\":6819:6823   */\n      0x00\n        /* \"#utility.yul\":6857:6859   */\n      0x20\n        /* \"#utility.yul\":6846:6855   */\n      dup3\n        /* \"#utility.yul\":6842:6860   */\n      add\n        /* \"#utility.yul\":6834:6860   */\n      swap1\n      pop\n        /* \"#utility.yul\":6906:6915   */\n      dup2\n        /* \"#utility.yul\":6900:6904   */\n      dup2\n        /* \"#utility.yul\":6896:6916   */\n      sub\n        /* \"#utility.yul\":6892:6893   */\n      0x00\n        /* \"#utility.yul\":6881:6890   */\n      dup4\n        /* \"#utility.yul\":6877:6894   */\n      add\n        /* \"#utility.yul\":6870:6917   */\n      mstore\n        /* \"#utility.yul\":6934:7065   */\n      tag_193\n        /* \"#utility.yul\":7060:7064   */\n      dup2\n        /* \"#utility.yul\":6934:7065   */\n      tag_118\n      jump\t// in\n    tag_193:\n        /* \"#utility.yul\":6926:7065   */\n      swap1\n      pop\n        /* \"#utility.yul\":6653:7072   */\n      swap2\n      swap1\n      pop\n      jump\t// out\n        /* \"#utility.yul\":7078:7260   */\n    tag_119:\n        /* \"#utility.yul\":7218:7252   */\n      0x4e6f7420656e6f75676820747265617375726520696e20746865206368657374\n        /* \"#utility.yul\":7214:7215   */\n      0x00\n        /* \"#utility.yul\":7206:7212   */\n      dup3\n        /* \"#utility.yul\":7202:7216   */\n      add\n        /* \"#utility.yul\":7195:7253   */\n      mstore\n        /* \"#utility.yul\":7078:7260   */\n      pop\n      jump\t// out\n        /* \"#utility.yul\":7266:7632   */\n    tag_120:\n        /* \"#utility.yul\":7408:7411   */\n      0x00\n        /* \"#utility.yul\":7429:7496   */\n      tag_196\n        /* \"#utility.yul\":7493:7495   */\n      0x20\n        /* \"#utility.yul\":7488:7491   */\n      dup4\n        /* \"#utility.yul\":7429:7496   */\n      tag_111\n      jump\t// in\n    tag_196:\n        /* \"#utility.yul\":7422:7496   */\n      swap2\n      pop\n        /* \"#utility.yul\":7505:7598   */\n      tag_197\n        /* \"#utility.yul\":7594:7597   */\n      dup3\n        /* \"#utility.yul\":7505:7598   */\n      tag_119\n      jump\t// in\n    tag_197:\n        /* \"#utility.yul\":7623:7625   */\n      0x20\n        /* \"#utility.yul\":7618:7621   */\n      dup3\n        /* \"#utility.yul\":7614:7626   */\n      add\n        /* \"#utility.yul\":7607:7626   */\n      swap1\n      pop\n        /* \"#utility.yul\":7266:7632   */\n      swap2\n      swap1\n      pop\n      jump\t// out\n        /* \"#utility.yul\":7638:8057   */\n    tag_67:\n        /* \"#utility.yul\":7804:7808   */\n      0x00\n        /* \"#utility.yul\":7842:7844   */\n      0x20\n        /* \"#utility.yul\":7831:7840   */\n      dup3\n        /* \"#utility.yul\":7827:7845   */\n      add\n        /* \"#utility.yul\":7819:7845   */\n      swap1\n      pop\n        /* \"#utility.yul\":7891:7900   */\n      dup2\n        /* \"#utility.yul\":7885:7889   */\n      dup2\n        /* \"#utility.yul\":7881:7901   */\n      sub\n        /* \"#utility.yul\":7877:7878   */\n      0x00\n        /* \"#utility.yul\":7866:7875   */\n      dup4\n        /* \"#utility.yul\":7862:7879   */\n      add\n        /* \"#utility.yul\":7855:7902   */\n      mstore\n        /* \"#utility.yul\":7919:8050   */\n      tag_199\n        /* \"#utility.yul\":8045:8049   */\n      dup2\n        /* \"#utility.yul\":7919:8050   */\n      tag_120\n      jump\t// in\n    tag_199:\n        /* \"#utility.yul\":7911:8050   */\n      swap1\n      pop\n        /* \"#utility.yul\":7638:8057   */\n      swap2\n      swap1\n      pop\n      jump\t// out\n        /* \"#utility.yul\":8063:8303   */\n    tag_121:\n        /* \"#utility.yul\":8203:8237   */\n      0x4163636573732064656e6965643a204f6e6c7920746865206f776e6572206361\n        /* \"#utility.yul\":8199:8200   */\n      0x00\n        /* \"#utility.yul\":8191:8197   */\n      dup3\n        /* \"#utility.yul\":8187:8201   */\n      add\n        /* \"#utility.yul\":8180:8238   */\n      mstore\n        /* \"#utility.yul\":8272:8295   */\n      0x6e20706572666f726d207468697320616374696f6e0000000000000000000000\n        /* \"#utility.yul\":8267:8269   */\n      0x20\n        /* \"#utility.yul\":8259:8265   */\n      dup3\n        /* \"#utility.yul\":8255:8270   */\n      add\n        /* \"#utility.yul\":8248:8296   */\n      mstore\n        /* \"#utility.yul\":8063:8303   */\n      pop\n      jump\t// out\n        /* \"#utility.yul\":8309:8675   */\n    tag_122:\n        /* \"#utility.yul\":8451:8454   */\n      0x00\n        /* \"#utility.yul\":8472:8539   */\n      tag_202\n        /* \"#utility.yul\":8536:8538   */\n      0x35\n        /* \"#utility.yul\":8531:8534   */\n      dup4\n        /* \"#utility.yul\":8472:8539   */\n      tag_111\n      jump\t// in\n    tag_202:\n        /* \"#utility.yul\":8465:8539   */\n      swap2\n      pop\n        /* \"#utility.yul\":8548:8641   */\n      tag_203\n        /* \"#utility.yul\":8637:8640   */\n      dup3\n        /* \"#utility.yul\":8548:8641   */\n      tag_121\n      jump\t// in\n    tag_203:\n        /* \"#utility.yul\":8666:8668   */\n      0x40\n        /* \"#utility.yul\":8661:8664   */\n      dup3\n        /* \"#utility.yul\":8657:8669   */\n      add\n        /* \"#utility.yul\":8650:8669   */\n      swap1\n      pop\n        /* \"#utility.yul\":8309:8675   */\n      swap2\n      swap1\n      pop\n      jump\t// out\n        /* \"#utility.yul\":8681:9100   */\n    tag_72:\n        /* \"#utility.yul\":8847:8851   */\n      0x00\n        /* \"#utility.yul\":8885:8887   */\n      0x20\n        /* \"#utility.yul\":8874:8883   */\n      dup3\n        /* \"#utility.yul\":8870:8888   */\n      add\n        /* \"#utility.yul\":8862:8888   */\n      swap1\n      pop\n        /* \"#utility.yul\":8934:8943   */\n      dup2\n        /* \"#utility.yul\":8928:8932   */\n      dup2\n        /* \"#utility.yul\":8924:8944   */\n      sub\n        /* \"#utility.yul\":8920:8921   */\n      0x00\n        /* \"#utility.yul\":8909:8918   */\n      dup4\n        /* \"#utility.yul\":8905:8922   */\n      add\n        /* \"#utility.yul\":8898:8945   */\n      mstore\n        /* \"#utility.yul\":8962:9093   */\n      tag_205\n        /* \"#utility.yul\":9088:9092   */\n      dup2\n        /* \"#utility.yul\":8962:9093   */\n      tag_122\n      jump\t// in\n    tag_205:\n        /* \"#utility.yul\":8954:9093   */\n      swap1\n      pop\n        /* \"#utility.yul\":8681:9100   */\n      swap2\n      swap1\n      pop\n      jump\t// out\n        /* \"#utility.yul\":9106:9297   */\n    tag_83:\n        /* \"#utility.yul\":9146:9149   */\n      0x00\n        /* \"#utility.yul\":9165:9185   */\n      tag_207\n        /* \"#utility.yul\":9183:9184   */\n      dup3\n        /* \"#utility.yul\":9165:9185   */\n      tag_100\n      jump\t// in\n    tag_207:\n        /* \"#utility.yul\":9160:9185   */\n      swap2\n      pop\n        /* \"#utility.yul\":9199:9219   */\n      tag_208\n        /* \"#utility.yul\":9217:9218   */\n      dup4\n        /* \"#utility.yul\":9199:9219   */\n      tag_100\n      jump\t// in\n    tag_208:\n        /* \"#utility.yul\":9194:9219   */\n      swap3\n      pop\n        /* \"#utility.yul\":9242:9243   */\n      dup3\n        /* \"#utility.yul\":9239:9240   */\n      dup3\n        /* \"#utility.yul\":9235:9244   */\n      add\n        /* \"#utility.yul\":9228:9244   */\n      swap1\n      pop\n        /* \"#utility.yul\":9263:9266   */\n      dup1\n        /* \"#utility.yul\":9260:9261   */\n      dup3\n        /* \"#utility.yul\":9257:9267   */\n      gt\n        /* \"#utility.yul\":9254:9290   */\n      iszero\n      tag_209\n      jumpi\n        /* \"#utility.yul\":9270:9288   */\n      tag_210\n      tag_114\n      jump\t// in\n    tag_210:\n        /* \"#utility.yul\":9254:9290   */\n    tag_209:\n        /* \"#utility.yul\":9106:9297   */\n      swap3\n      swap2\n      pop\n      pop\n      jump\t// out\n        /* \"#utility.yul\":9303:9468   */\n    tag_123:\n        /* \"#utility.yul\":9443:9460   */\n      0x496e76616c696420616464726573730000000000000000000000000000000000\n        /* \"#utility.yul\":9439:9440   */\n      0x00\n        /* \"#utility.yul\":9431:9437   */\n      dup3\n        /* \"#utility.yul\":9427:9441   */\n      add\n        /* \"#utility.yul\":9420:9461   */\n      mstore\n        /* \"#utility.yul\":9303:9468   */\n      pop\n      jump\t// out\n        /* \"#utility.yul\":9474:9840   */\n    tag_124:\n        /* \"#utility.yul\":9616:9619   */\n      0x00\n        /* \"#utility.yul\":9637:9704   */\n      tag_213\n        /* \"#utility.yul\":9701:9703   */\n      0x0f\n        /* \"#utility.yul\":9696:9699   */\n      dup4\n        /* \"#utility.yul\":9637:9704   */\n      tag_111\n      jump\t// in\n    tag_213:\n        /* \"#utility.yul\":9630:9704   */\n      swap2\n      pop\n        /* \"#utility.yul\":9713:9806   */\n      tag_214\n        /* \"#utility.yul\":9802:9805   */\n      dup3\n        /* \"#utility.yul\":9713:9806   */\n      tag_123\n      jump\t// in\n    tag_214:\n        /* \"#utility.yul\":9831:9833   */\n      0x20\n        /* \"#utility.yul\":9826:9829   */\n      dup3\n        /* \"#utility.yul\":9822:9834   */\n      add\n        /* \"#utility.yul\":9815:9834   */\n      swap1\n      pop\n        /* \"#utility.yul\":9474:9840   */\n      swap2\n      swap1\n      pop\n      jump\t// out\n        /* \"#utility.yul\":9846:10265   */\n    tag_90:\n        /* \"#utility.yul\":10012:10016   */\n      0x00\n        /* \"#utility.yul\":10050:10052   */\n      0x20\n        /* \"#utility.yul\":10039:10048   */\n      dup3\n        /* \"#utility.yul\":10035:10053   */\n      add\n        /* \"#utility.yul\":10027:10053   */\n      swap1\n      pop\n        /* \"#utility.yul\":10099:10108   */\n      dup2\n        /* \"#utility.yul\":10093:10097   */\n      dup2\n        /* \"#utility.yul\":10089:10109   */\n      sub\n        /* \"#utility.yul\":10085:10086   */\n      0x00\n        /* \"#utility.yul\":10074:10083   */\n      dup4\n        /* \"#utility.yul\":10070:10087   */\n      add\n        /* \"#utility.yul\":10063:10110   */\n      mstore\n        /* \"#utility.yul\":10127:10258   */\n      tag_216\n        /* \"#utility.yul\":10253:10257   */\n      dup2\n        /* \"#utility.yul\":10127:10258   */\n      tag_124\n      jump\t// in\n    tag_216:\n        /* \"#utility.yul\":10119:10258   */\n      swap1\n      pop\n        /* \"#utility.yul\":9846:10265   */\n      swap2\n      swap1\n      pop\n      jump\t// out\n\n    auxdata: 0xa264697066735822122095ed5900e77c07f3d89ff0d6408aed6acf8fa60ae99caf5e88f73b26ac55b72964736f6c634300081e0033\n}\n",
				"bytecode": {
					"linkReferences": {},
					"object": "6080604052348015600e575f5ffd5b50335f5f6101000a81548173ffffffffffffffffffffffffffffffffffffffff021916908373ffffffffffffffffffffffffffffffffffffffff160217905550610edc8061005b5f395ff3fe608060405234801561000f575f5ffd5b506004361061009c575f3560e01c8063941907de11610064578063941907de14610146578063dfbb36f914610162578063e014700514610192578063f2fde38b146101ae578063f4970e71146101ca5761009c565b806302a43f02146100a05780635b238ee5146100bc5780635e2c19db146100da578063774124fa1461010a5780638da5cb5b14610128575b5f5ffd5b6100ba60048036038101906100b591906109b0565b6101e6565b005b6100c46104a1565b6040516100d191906109ea565b60405180910390f35b6100f460048036038101906100ef9190610a5d565b6104a7565b6040516101019190610aa2565b60405180910390f35b6101126104c4565b60405161011f91906109ea565b60405180910390f35b61013061055b565b60405161013d9190610aca565b60405180910390f35b610160600480360381019061015b9190610a5d565b61057f565b005b61017c60048036038101906101779190610a5d565b610664565b60405161018991906109ea565b60405180910390f35b6101ac60048036038101906101a791906109b0565b610679565b005b6101c860048036038101906101c39190610a5d565b610722565b005b6101e460048036038101906101df9190610ae3565b610860565b005b5f5f9054906101000a900473ffffffffffffffffffffffffffffffffffffffff1673ffffffffffffffffffffffffffffffffffffffff163373ffffffffffffffffffffffffffffffffffffffff160361029b5760015481111561027e576040517f08c379a000000000000000000000000000000000000000000000000000000000815260040161027590610b7b565b60405180910390fd5b8060015f82825461028f9190610bc6565b9250508190555061049e565b5f60025f3373ffffffffffffffffffffffffffffffffffffffff1673ffffffffffffffffffffffffffffffffffffffff1681526020019081526020015f205490505f811161031e576040517f08c379a000000000000000000000000000000000000000000000000000000000815260040161031590610c69565b60405180910390fd5b60035f3373ffffffffffffffffffffffffffffffffffffffff1673ffffffffffffffffffffffffffffffffffffffff1681526020019081526020015f205f9054906101000a900460ff16156103a8576040517f08c379a000000000000000000000000000000000000000000000000000000000815260040161039f90610cf7565b60405180910390fd5b6001548111156103ed576040517f08c379a00000000000000000000000000000000000000000000000000000000081526004016103e490610d5f565b60405180910390fd5b600160035f3373ffffffffffffffffffffffffffffffffffffffff1673ffffffffffffffffffffffffffffffffffffffff1681526020019081526020015f205f6101000a81548160ff0219169083151502179055508060015f8282546104539190610bc6565b925050819055505f60025f3373ffffffffffffffffffffffffffffffffffffffff1673ffffffffffffffffffffffffffffffffffffffff1681526020019081526020015f2081905550505b50565b60015481565b6003602052805f5260405f205f915054906101000a900460ff1681565b5f5f5f9054906101000a900473ffffffffffffffffffffffffffffffffffffffff1673ffffffffffffffffffffffffffffffffffffffff163373ffffffffffffffffffffffffffffffffffffffff1614610553576040517f08c379a000000000000000000000000000000000000000000000000000000000815260040161054a90610ded565b60405180910390fd5b600154905090565b5f5f9054906101000a900473ffffffffffffffffffffffffffffffffffffffff1681565b5f5f9054906101000a900473ffffffffffffffffffffffffffffffffffffffff1673ffffffffffffffffffffffffffffffffffffffff163373ffffffffffffffffffffffffffffffffffffffff161461060d576040517f08c379a000000000000000000000000000000000000000000000000000000000815260040161060490610ded565b60405180910390fd5b5f60035f8373ffffffffffffffffffffffffffffffffffffffff1673ffffffffffffffffffffffffffffffffffffffff1681526020019081526020015f205f6101000a81548160ff02191690831515021790555050565b6002602052805f5260405f205f915090505481565b5f5f9054906101000a900473ffffffffffffffffffffffffffffffffffffffff1673ffffffffffffffffffffffffffffffffffffffff163373ffffffffffffffffffffffffffffffffffffffff1614610707576040517f08c379a00000000000000000000000000000000000000000000000000000000081526004016106fe90610ded565b60405180910390fd5b8060015f8282546107189190610e0b565b9250508190555050565b5f5f9054906101000a900473ffffffffffffffffffffffffffffffffffffffff1673ffffffffffffffffffffffffffffffffffffffff163373ffffffffffffffffffffffffffffffffffffffff16146107b0576040517f08c379a00000000000000000000000000000000000000000000000000000000081526004016107a790610ded565b60405180910390fd5b5f73ffffffffffffffffffffffffffffffffffffffff168173ffffffffffffffffffffffffffffffffffffffff160361081e576040517f08c379a000000000000000000000000000000000000000000000000000000000815260040161081590610e88565b60405180910390fd5b805f5f6101000a81548173ffffffffffffffffffffffffffffffffffffffff021916908373ffffffffffffffffffffffffffffffffffffffff16021790555050565b5f5f9054906101000a900473ffffffffffffffffffffffffffffffffffffffff1673ffffffffffffffffffffffffffffffffffffffff163373ffffffffffffffffffffffffffffffffffffffff16146108ee576040517f08c379a00000000000000000000000000000000000000000000000000000000081526004016108e590610ded565b60405180910390fd5b600154811115610933576040517f08c379a000000000000000000000000000000000000000000000000000000000815260040161092a90610b7b565b60405180910390fd5b8060025f8473ffffffffffffffffffffffffffffffffffffffff1673ffffffffffffffffffffffffffffffffffffffff1681526020019081526020015f20819055505050565b5f5ffd5b5f819050919050565b61098f8161097d565b8114610999575f5ffd5b50565b5f813590506109aa81610986565b92915050565b5f602082840312156109c5576109c4610979565b5b5f6109d28482850161099c565b91505092915050565b6109e48161097d565b82525050565b5f6020820190506109fd5f8301846109db565b92915050565b5f73ffffffffffffffffffffffffffffffffffffffff82169050919050565b5f610a2c82610a03565b9050919050565b610a3c81610a22565b8114610a46575f5ffd5b50565b5f81359050610a5781610a33565b92915050565b5f60208284031215610a7257610a71610979565b5b5f610a7f84828501610a49565b91505092915050565b5f8115159050919050565b610a9c81610a88565b82525050565b5f602082019050610ab55f830184610a93565b92915050565b610ac481610a22565b82525050565b5f602082019050610add5f830184610abb565b92915050565b5f5f60408385031215610af957610af8610979565b5b5f610b0685828601610a49565b9250506020610b178582860161099c565b9150509250929050565b5f82825260208201905092915050565b7f4e6f7420656e6f75676820747265617375726520617661696c61626c650000005f82015250565b5f610b65601d83610b21565b9150610b7082610b31565b602082019050919050565b5f6020820190508181035f830152610b9281610b59565b9050919050565b7f4e487b71000000000000000000000000000000000000000000000000000000005f52601160045260245ffd5b5f610bd08261097d565b9150610bdb8361097d565b9250828203905081811115610bf357610bf2610b99565b5b92915050565b7f596f7520646f6e2774206861766520616e7920747265617375726520616c6c6f5f8201527f77616e6365000000000000000000000000000000000000000000000000000000602082015250565b5f610c53602583610b21565b9150610c5e82610bf9565b604082019050919050565b5f6020820190508181035f830152610c8081610c47565b9050919050565b7f596f75206861766520616c72656164792077697468647261776e20796f7572205f8201527f7472656173757265000000000000000000000000000000000000000000000000602082015250565b5f610ce1602883610b21565b9150610cec82610c87565b604082019050919050565b5f6020820190508181035f830152610d0e81610cd5565b9050919050565b7f4e6f7420656e6f75676820747265617375726520696e207468652063686573745f82015250565b5f610d49602083610b21565b9150610d5482610d15565b602082019050919050565b5f6020820190508181035f830152610d7681610d3d565b9050919050565b7f4163636573732064656e6965643a204f6e6c7920746865206f776e65722063615f8201527f6e20706572666f726d207468697320616374696f6e0000000000000000000000602082015250565b5f610dd7603583610b21565b9150610de282610d7d565b604082019050919050565b5f6020820190508181035f830152610e0481610dcb565b9050919050565b5f610e158261097d565b9150610e208361097d565b9250828201905080821115610e3857610e37610b99565b5b92915050565b7f496e76616c6964206164647265737300000000000000000000000000000000005f82015250565b5f610e72600f83610b21565b9150610e7d82610e3e565b602082019050919050565b5f6020820190508181035f830152610e9f81610e66565b905091905056fea264697066735822122095ed5900e77c07f3d89ff0d6408aed6acf8fa60ae99caf5e88f73b26ac55b72964736f6c634300081e0033",
					"opcodes": "PUSH1 0x80 PUSH1 0x40 MSTORE CALLVALUE DUP1 ISZERO PUSH1 0xE JUMPI PUSH0 PUSH0 REVERT JUMPDEST POP CALLER PUSH0 PUSH0 PUSH2 0x100 EXP DUP2 SLOAD DUP2 PUSH20 0xFFFFFFFFFFFFFFFFFFFFFFFFFFFFFFFFFFFFFFFF MUL NOT AND SWAP1 DUP4 PUSH20 0xFFFFFFFFFFFFFFFFFFFFFFFFFFFFFFFFFFFFFFFF AND MUL OR SWAP1 SSTORE POP PUSH2 0xEDC DUP1 PUSH2 0x5B PUSH0 CODECOPY PUSH0 RETURN INVALID PUSH1 0x80 PUSH1 0x40 MSTORE CALLVALUE DUP1 ISZERO PUSH2 0xF JUMPI PUSH0 PUSH0 REVERT JUMPDEST POP PUSH1 0x4 CALLDATASIZE LT PUSH2 0x9C JUMPI PUSH0 CALLDATALOAD PUSH1 0xE0 SHR DUP1 PUSH4 0x941907DE GT PUSH2 0x64 JUMPI DUP1 PUSH4 0x941907DE EQ PUSH2 0x146 JUMPI DUP1 PUSH4 0xDFBB36F9 EQ PUSH2 0x162 JUMPI DUP1 PUSH4 0xE0147005 EQ PUSH2 0x192 JUMPI DUP1 PUSH4 0xF2FDE38B EQ PUSH2 0x1AE JUMPI DUP1 PUSH4 0xF4970E71 EQ PUSH2 0x1CA JUMPI PUSH2 0x9C JUMP JUMPDEST DUP1 PUSH4 0x2A43F02 EQ PUSH2 0xA0 JUMPI DUP1 PUSH4 0x5B238EE5 EQ PUSH2 0xBC JUMPI DUP1 PUSH4 0x5E2C19DB EQ PUSH2 0xDA JUMPI DUP1 PUSH4 0x774124FA EQ PUSH2 0x10A JUMPI DUP1 PUSH4 0x8DA5CB5B EQ PUSH2 0x128 JUMPI JUMPDEST PUSH0 PUSH0 REVERT JUMPDEST PUSH2 0xBA PUSH1 0x4 DUP1 CALLDATASIZE SUB DUP2 ADD SWAP1 PUSH2 0xB5 SWAP2 SWAP1 PUSH2 0x9B0 JUMP JUMPDEST PUSH2 0x1E6 JUMP JUMPDEST STOP JUMPDEST PUSH2 0xC4 PUSH2 0x4A1 JUMP JUMPDEST PUSH1 0x40 MLOAD PUSH2 0xD1 SWAP2 SWAP1 PUSH2 0x9EA JUMP JUMPDEST PUSH1 0x40 MLOAD DUP1 SWAP2 SUB SWAP1 RETURN JUMPDEST PUSH2 0xF4 PUSH1 0x4 DUP1 CALLDATASIZE SUB DUP2 ADD SWAP1 PUSH2 0xEF SWAP2 SWAP1 PUSH2 0xA5D JUMP JUMPDEST PUSH2 0x4A7 JUMP JUMPDEST PUSH1 0x40 MLOAD PUSH2 0x101 SWAP2 SWAP1 PUSH2 0xAA2 JUMP JUMPDEST PUSH1 0x40 MLOAD DUP1 SWAP2 SUB SWAP1 RETURN JUMPDEST PUSH2 0x112 PUSH2 0x4C4 JUMP JUMPDEST PUSH1 0x40 MLOAD PUSH2 0x11F SWAP2 SWAP1 PUSH2 0x9EA JUMP JUMPDEST PUSH1 0x40 MLOAD DUP1 SWAP2 SUB SWAP1 RETURN JUMPDEST PUSH2 0x130 PUSH2 0x55B JUMP JUMPDEST PUSH1 0x40 MLOAD PUSH2 0x13D SWAP2 SWAP1 PUSH2 0xACA JUMP JUMPDEST PUSH1 0x40 MLOAD DUP1 SWAP2 SUB SWAP1 RETURN JUMPDEST PUSH2 0x160 PUSH1 0x4 DUP1 CALLDATASIZE SUB DUP2 ADD SWAP1 PUSH2 0x15B SWAP2 SWAP1 PUSH2 0xA5D JUMP JUMPDEST PUSH2 0x57F JUMP JUMPDEST STOP JUMPDEST PUSH2 0x17C PUSH1 0x4 DUP1 CALLDATASIZE SUB DUP2 ADD SWAP1 PUSH2 0x177 SWAP2 SWAP1 PUSH2 0xA5D JUMP JUMPDEST PUSH2 0x664 JUMP JUMPDEST PUSH1 0x40 MLOAD PUSH2 0x189 SWAP2 SWAP1 PUSH2 0x9EA JUMP JUMPDEST PUSH1 0x40 MLOAD DUP1 SWAP2 SUB SWAP1 RETURN JUMPDEST PUSH2 0x1AC PUSH1 0x4 DUP1 CALLDATASIZE SUB DUP2 ADD SWAP1 PUSH2 0x1A7 SWAP2 SWAP1 PUSH2 0x9B0 JUMP JUMPDEST PUSH2 0x679 JUMP JUMPDEST STOP JUMPDEST PUSH2 0x1C8 PUSH1 0x4 DUP1 CALLDATASIZE SUB DUP2 ADD SWAP1 PUSH2 0x1C3 SWAP2 SWAP1 PUSH2 0xA5D JUMP JUMPDEST PUSH2 0x722 JUMP JUMPDEST STOP JUMPDEST PUSH2 0x1E4 PUSH1 0x4 DUP1 CALLDATASIZE SUB DUP2 ADD SWAP1 PUSH2 0x1DF SWAP2 SWAP1 PUSH2 0xAE3 JUMP JUMPDEST PUSH2 0x860 JUMP JUMPDEST STOP JUMPDEST PUSH0 PUSH0 SWAP1 SLOAD SWAP1 PUSH2 0x100 EXP SWAP1 DIV PUSH20 0xFFFFFFFFFFFFFFFFFFFFFFFFFFFFFFFFFFFFFFFF AND PUSH20 0xFFFFFFFFFFFFFFFFFFFFFFFFFFFFFFFFFFFFFFFF AND CALLER PUSH20 0xFFFFFFFFFFFFFFFFFFFFFFFFFFFFFFFFFFFFFFFF AND SUB PUSH2 0x29B JUMPI PUSH1 0x1 SLOAD DUP2 GT ISZERO PUSH2 0x27E JUMPI PUSH1 0x40 MLOAD PUSH32 0x8C379A000000000000000000000000000000000000000000000000000000000 DUP2 MSTORE PUSH1 0x4 ADD PUSH2 0x275 SWAP1 PUSH2 0xB7B JUMP JUMPDEST PUSH1 0x40 MLOAD DUP1 SWAP2 SUB SWAP1 REVERT JUMPDEST DUP1 PUSH1 0x1 PUSH0 DUP3 DUP3 SLOAD PUSH2 0x28F SWAP2 SWAP1 PUSH2 0xBC6 JUMP JUMPDEST SWAP3 POP POP DUP2 SWAP1 SSTORE POP PUSH2 0x49E JUMP JUMPDEST PUSH0 PUSH1 0x2 PUSH0 CALLER PUSH20 0xFFFFFFFFFFFFFFFFFFFFFFFFFFFFFFFFFFFFFFFF AND PUSH20 0xFFFFFFFFFFFFFFFFFFFFFFFFFFFFFFFFFFFFFFFF AND DUP2 MSTORE PUSH1 0x20 ADD SWAP1 DUP2 MSTORE PUSH1 0x20 ADD PUSH0 KECCAK256 SLOAD SWAP1 POP PUSH0 DUP2 GT PUSH2 0x31E JUMPI PUSH1 0x40 MLOAD PUSH32 0x8C379A000000000000000000000000000000000000000000000000000000000 DUP2 MSTORE PUSH1 0x4 ADD PUSH2 0x315 SWAP1 PUSH2 0xC69 JUMP JUMPDEST PUSH1 0x40 MLOAD DUP1 SWAP2 SUB SWAP1 REVERT JUMPDEST PUSH1 0x3 PUSH0 CALLER PUSH20 0xFFFFFFFFFFFFFFFFFFFFFFFFFFFFFFFFFFFFFFFF AND PUSH20 0xFFFFFFFFFFFFFFFFFFFFFFFFFFFFFFFFFFFFFFFF AND DUP2 MSTORE PUSH1 0x20 ADD SWAP1 DUP2 MSTORE PUSH1 0x20 ADD PUSH0 KECCAK256 PUSH0 SWAP1 SLOAD SWAP1 PUSH2 0x100 EXP SWAP1 DIV PUSH1 0xFF AND ISZERO PUSH2 0x3A8 JUMPI PUSH1 0x40 MLOAD PUSH32 0x8C379A000000000000000000000000000000000000000000000000000000000 DUP2 MSTORE PUSH1 0x4 ADD PUSH2 0x39F SWAP1 PUSH2 0xCF7 JUMP JUMPDEST PUSH1 0x40 MLOAD DUP1 SWAP2 SUB SWAP1 REVERT JUMPDEST PUSH1 0x1 SLOAD DUP2 GT ISZERO PUSH2 0x3ED JUMPI PUSH1 0x40 MLOAD PUSH32 0x8C379A000000000000000000000000000000000000000000000000000000000 DUP2 MSTORE PUSH1 0x4 ADD PUSH2 0x3E4 SWAP1 PUSH2 0xD5F JUMP JUMPDEST PUSH1 0x40 MLOAD DUP1 SWAP2 SUB SWAP1 REVERT JUMPDEST PUSH1 0x1 PUSH1 0x3 PUSH0 CALLER PUSH20 0xFFFFFFFFFFFFFFFFFFFFFFFFFFFFFFFFFFFFFFFF AND PUSH20 0xFFFFFFFFFFFFFFFFFFFFFFFFFFFFFFFFFFFFFFFF AND DUP2 MSTORE PUSH1 0x20 ADD SWAP1 DUP2 MSTORE PUSH1 0x20 ADD PUSH0 KECCAK256 PUSH0 PUSH2 0x100 EXP DUP2 SLOAD DUP2 PUSH1 0xFF MUL NOT AND SWAP1 DUP4 ISZERO ISZERO MUL OR SWAP1 SSTORE POP DUP1 PUSH1 0x1 PUSH0 DUP3 DUP3 SLOAD PUSH2 0x453 SWAP2 SWAP1 PUSH2 0xBC6 JUMP JUMPDEST SWAP3 POP POP DUP2 SWAP1 SSTORE POP PUSH0 PUSH1 0x2 PUSH0 CALLER PUSH20 0xFFFFFFFFFFFFFFFFFFFFFFFFFFFFFFFFFFFFFFFF AND PUSH20 0xFFFFFFFFFFFFFFFFFFFFFFFFFFFFFFFFFFFFFFFF AND DUP2 MSTORE PUSH1 0x20 ADD SWAP1 DUP2 MSTORE PUSH1 0x20 ADD PUSH0 KECCAK256 DUP2 SWAP1 SSTORE POP POP JUMPDEST POP JUMP JUMPDEST PUSH1 0x1 SLOAD DUP2 JUMP JUMPDEST PUSH1 0x3 PUSH1 0x20 MSTORE DUP1 PUSH0 MSTORE PUSH1 0x40 PUSH0 KECCAK256 PUSH0 SWAP2 POP SLOAD SWAP1 PUSH2 0x100 EXP SWAP1 DIV PUSH1 0xFF AND DUP2 JUMP JUMPDEST PUSH0 PUSH0 PUSH0 SWAP1 SLOAD SWAP1 PUSH2 0x100 EXP SWAP1 DIV PUSH20 0xFFFFFFFFFFFFFFFFFFFFFFFFFFFFFFFFFFFFFFFF AND PUSH20 0xFFFFFFFFFFFFFFFFFFFFFFFFFFFFFFFFFFFFFFFF AND CALLER PUSH20 0xFFFFFFFFFFFFFFFFFFFFFFFFFFFFFFFFFFFFFFFF AND EQ PUSH2 0x553 JUMPI PUSH1 0x40 MLOAD PUSH32 0x8C379A000000000000000000000000000000000000000000000000000000000 DUP2 MSTORE PUSH1 0x4 ADD PUSH2 0x54A SWAP1 PUSH2 0xDED JUMP JUMPDEST PUSH1 0x40 MLOAD DUP1 SWAP2 SUB SWAP1 REVERT JUMPDEST PUSH1 0x1 SLOAD SWAP1 POP SWAP1 JUMP JUMPDEST PUSH0 PUSH0 SWAP1 SLOAD SWAP1 PUSH2 0x100 EXP SWAP1 DIV PUSH20 0xFFFFFFFFFFFFFFFFFFFFFFFFFFFFFFFFFFFFFFFF AND DUP2 JUMP JUMPDEST PUSH0 PUSH0 SWAP1 SLOAD SWAP1 PUSH2 0x100 EXP SWAP1 DIV PUSH20 0xFFFFFFFFFFFFFFFFFFFFFFFFFFFFFFFFFFFFFFFF AND PUSH20 0xFFFFFFFFFFFFFFFFFFFFFFFFFFFFFFFFFFFFFFFF AND CALLER PUSH20 0xFFFFFFFFFFFFFFFFFFFFFFFFFFFFFFFFFFFFFFFF AND EQ PUSH2 0x60D JUMPI PUSH1 0x40 MLOAD PUSH32 0x8C379A000000000000000000000000000000000000000000000000000000000 DUP2 MSTORE PUSH1 0x4 ADD PUSH2 0x604 SWAP1 PUSH2 0xDED JUMP JUMPDEST PUSH1 0x40 MLOAD DUP1 SWAP2 SUB SWAP1 REVERT JUMPDEST PUSH0 PUSH1 0x3 PUSH0 DUP4 PUSH20 0xFFFFFFFFFFFFFFFFFFFFFFFFFFFFFFFFFFFFFFFF AND PUSH20 0xFFFFFFFFFFFFFFFFFFFFFFFFFFFFFFFFFFFFFFFF AND DUP2 MSTORE PUSH1 0x20 ADD SWAP1 DUP2 MSTORE PUSH1 0x20 ADD PUSH0 KECCAK256 PUSH0 PUSH2 0x100 EXP DUP2 SLOAD DUP2 PUSH1 0xFF MUL NOT AND SWAP1 DUP4 ISZERO ISZERO MUL OR SWAP1 SSTORE POP POP JUMP JUMPDEST PUSH1 0x2 PUSH1 0x20 MSTORE DUP1 PUSH0 MSTORE PUSH1 0x40 PUSH0 KECCAK256 PUSH0 SWAP2 POP SWAP1 POP SLOAD DUP2 JUMP JUMPDEST PUSH0 PUSH0 SWAP1 SLOAD SWAP1 PUSH2 0x100 EXP SWAP1 DIV PUSH20 0xFFFFFFFFFFFFFFFFFFFFFFFFFFFFFFFFFFFFFFFF AND PUSH20 0xFFFFFFFFFFFFFFFFFFFFFFFFFFFFFFFFFFFFFFFF AND CALLER PUSH20 0xFFFFFFFFFFFFFFFFFFFFFFFFFFFFFFFFFFFFFFFF AND EQ PUSH2 0x707 JUMPI PUSH1 0x40 MLOAD PUSH32 0x8C379A000000000000000000000000000000000000000000000000000000000 DUP2 MSTORE PUSH1 0x4 ADD PUSH2 0x6FE SWAP1 PUSH2 0xDED JUMP JUMPDEST PUSH1 0x40 MLOAD DUP1 SWAP2 SUB SWAP1 REVERT JUMPDEST DUP1 PUSH1 0x1 PUSH0 DUP3 DUP3 SLOAD PUSH2 0x718 SWAP2 SWAP1 PUSH2 0xE0B JUMP JUMPDEST SWAP3 POP POP DUP2 SWAP1 SSTORE POP POP JUMP JUMPDEST PUSH0 PUSH0 SWAP1 SLOAD SWAP1 PUSH2 0x100 EXP SWAP1 DIV PUSH20 0xFFFFFFFFFFFFFFFFFFFFFFFFFFFFFFFFFFFFFFFF AND PUSH20 0xFFFFFFFFFFFFFFFFFFFFFFFFFFFFFFFFFFFFFFFF AND CALLER PUSH20 0xFFFFFFFFFFFFFFFFFFFFFFFFFFFFFFFFFFFFFFFF AND EQ PUSH2 0x7B0 JUMPI PUSH1 0x40 MLOAD PUSH32 0x8C379A000000000000000000000000000000000000000000000000000000000 DUP2 MSTORE PUSH1 0x4 ADD PUSH2 0x7A7 SWAP1 PUSH2 0xDED JUMP JUMPDEST PUSH1 0x40 MLOAD DUP1 SWAP2 SUB SWAP1 REVERT JUMPDEST PUSH0 PUSH20 0xFFFFFFFFFFFFFFFFFFFFFFFFFFFFFFFFFFFFFFFF AND DUP2 PUSH20 0xFFFFFFFFFFFFFFFFFFFFFFFFFFFFFFFFFFFFFFFF AND SUB PUSH2 0x81E JUMPI PUSH1 0x40 MLOAD PUSH32 0x8C379A000000000000000000000000000000000000000000000000000000000 DUP2 MSTORE PUSH1 0x4 ADD PUSH2 0x815 SWAP1 PUSH2 0xE88 JUMP JUMPDEST PUSH1 0x40 MLOAD DUP1 SWAP2 SUB SWAP1 REVERT JUMPDEST DUP1 PUSH0 PUSH0 PUSH2 0x100 EXP DUP2 SLOAD DUP2 PUSH20 0xFFFFFFFFFFFFFFFFFFFFFFFFFFFFFFFFFFFFFFFF MUL NOT AND SWAP1 DUP4 PUSH20 0xFFFFFFFFFFFFFFFFFFFFFFFFFFFFFFFFFFFFFFFF AND MUL OR SWAP1 SSTORE POP POP JUMP JUMPDEST PUSH0 PUSH0 SWAP1 SLOAD SWAP1 PUSH2 0x100 EXP SWAP1 DIV PUSH20 0xFFFFFFFFFFFFFFFFFFFFFFFFFFFFFFFFFFFFFFFF AND PUSH20 0xFFFFFFFFFFFFFFFFFFFFFFFFFFFFFFFFFFFFFFFF AND CALLER PUSH20 0xFFFFFFFFFFFFFFFFFFFFFFFFFFFFFFFFFFFFFFFF AND EQ PUSH2 0x8EE JUMPI PUSH1 0x40 MLOAD PUSH32 0x8C379A000000000000000000000000000000000000000000000000000000000 DUP2 MSTORE PUSH1 0x4 ADD PUSH2 0x8E5 SWAP1 PUSH2 0xDED JUMP JUMPDEST PUSH1 0x40 MLOAD DUP1 SWAP2 SUB SWAP1 REVERT JUMPDEST PUSH1 0x1 SLOAD DUP2 GT ISZERO PUSH2 0x933 JUMPI PUSH1 0x40 MLOAD PUSH32 0x8C379A000000000000000000000000000000000000000000000000000000000 DUP2 MSTORE PUSH1 0x4 ADD PUSH2 0x92A SWAP1 PUSH2 0xB7B JUMP JUMPDEST PUSH1 0x40 MLOAD DUP1 SWAP2 SUB SWAP1 REVERT JUMPDEST DUP1 PUSH1 0x2 PUSH0 DUP5 PUSH20 0xFFFFFFFFFFFFFFFFFFFFFFFFFFFFFFFFFFFFFFFF AND PUSH20 0xFFFFFFFFFFFFFFFFFFFFFFFFFFFFFFFFFFFFFFFF AND DUP2 MSTORE PUSH1 0x20 ADD SWAP1 DUP2 MSTORE PUSH1 0x20 ADD PUSH0 KECCAK256 DUP2 SWAP1 SSTORE POP POP POP JUMP JUMPDEST PUSH0 PUSH0 REVERT JUMPDEST PUSH0 DUP2 SWAP1 POP SWAP2 SWAP1 POP JUMP JUMPDEST PUSH2 0x98F DUP2 PUSH2 0x97D JUMP JUMPDEST DUP2 EQ PUSH2 0x999 JUMPI PUSH0 PUSH0 REVERT JUMPDEST POP JUMP JUMPDEST PUSH0 DUP2 CALLDATALOAD SWAP1 POP PUSH2 0x9AA DUP2 PUSH2 0x986 JUMP JUMPDEST SWAP3 SWAP2 POP POP JUMP JUMPDEST PUSH0 PUSH1 0x20 DUP3 DUP5 SUB SLT ISZERO PUSH2 0x9C5 JUMPI PUSH2 0x9C4 PUSH2 0x979 JUMP JUMPDEST JUMPDEST PUSH0 PUSH2 0x9D2 DUP5 DUP3 DUP6 ADD PUSH2 0x99C JUMP JUMPDEST SWAP2 POP POP SWAP3 SWAP2 POP POP JUMP JUMPDEST PUSH2 0x9E4 DUP2 PUSH2 0x97D JUMP JUMPDEST DUP3 MSTORE POP POP JUMP JUMPDEST PUSH0 PUSH1 0x20 DUP3 ADD SWAP1 POP PUSH2 0x9FD PUSH0 DUP4 ADD DUP5 PUSH2 0x9DB JUMP JUMPDEST SWAP3 SWAP2 POP POP JUMP JUMPDEST PUSH0 PUSH20 0xFFFFFFFFFFFFFFFFFFFFFFFFFFFFFFFFFFFFFFFF DUP3 AND SWAP1 POP SWAP2 SWAP1 POP JUMP JUMPDEST PUSH0 PUSH2 0xA2C DUP3 PUSH2 0xA03 JUMP JUMPDEST SWAP1 POP SWAP2 SWAP1 POP JUMP JUMPDEST PUSH2 0xA3C DUP2 PUSH2 0xA22 JUMP JUMPDEST DUP2 EQ PUSH2 0xA46 JUMPI PUSH0 PUSH0 REVERT JUMPDEST POP JUMP JUMPDEST PUSH0 DUP2 CALLDATALOAD SWAP1 POP PUSH2 0xA57 DUP2 PUSH2 0xA33 JUMP JUMPDEST SWAP3 SWAP2 POP POP JUMP JUMPDEST PUSH0 PUSH1 0x20 DUP3 DUP5 SUB SLT ISZERO PUSH2 0xA72 JUMPI PUSH2 0xA71 PUSH2 0x979 JUMP JUMPDEST JUMPDEST PUSH0 PUSH2 0xA7F DUP5 DUP3 DUP6 ADD PUSH2 0xA49 JUMP JUMPDEST SWAP2 POP POP SWAP3 SWAP2 POP POP JUMP JUMPDEST PUSH0 DUP2 ISZERO ISZERO SWAP1 POP SWAP2 SWAP1 POP JUMP JUMPDEST PUSH2 0xA9C DUP2 PUSH2 0xA88 JUMP JUMPDEST DUP3 MSTORE POP POP JUMP JUMPDEST PUSH0 PUSH1 0x20 DUP3 ADD SWAP1 POP PUSH2 0xAB5 PUSH0 DUP4 ADD DUP5 PUSH2 0xA93 JUMP JUMPDEST SWAP3 SWAP2 POP POP JUMP JUMPDEST PUSH2 0xAC4 DUP2 PUSH2 0xA22 JUMP JUMPDEST DUP3 MSTORE POP POP JUMP JUMPDEST PUSH0 PUSH1 0x20 DUP3 ADD SWAP1 POP PUSH2 0xADD PUSH0 DUP4 ADD DUP5 PUSH2 0xABB JUMP JUMPDEST SWAP3 SWAP2 POP POP JUMP JUMPDEST PUSH0 PUSH0 PUSH1 0x40 DUP4 DUP6 SUB SLT ISZERO PUSH2 0xAF9 JUMPI PUSH2 0xAF8 PUSH2 0x979 JUMP JUMPDEST JUMPDEST PUSH0 PUSH2 0xB06 DUP6 DUP3 DUP7 ADD PUSH2 0xA49 JUMP JUMPDEST SWAP3 POP POP PUSH1 0x20 PUSH2 0xB17 DUP6 DUP3 DUP7 ADD PUSH2 0x99C JUMP JUMPDEST SWAP2 POP POP SWAP3 POP SWAP3 SWAP1 POP JUMP JUMPDEST PUSH0 DUP3 DUP3 MSTORE PUSH1 0x20 DUP3 ADD SWAP1 POP SWAP3 SWAP2 POP POP JUMP JUMPDEST PUSH32 0x4E6F7420656E6F75676820747265617375726520617661696C61626C65000000 PUSH0 DUP3 ADD MSTORE POP JUMP JUMPDEST PUSH0 PUSH2 0xB65 PUSH1 0x1D DUP4 PUSH2 0xB21 JUMP JUMPDEST SWAP2 POP PUSH2 0xB70 DUP3 PUSH2 0xB31 JUMP JUMPDEST PUSH1 0x20 DUP3 ADD SWAP1 POP SWAP2 SWAP1 POP JUMP JUMPDEST PUSH0 PUSH1 0x20 DUP3 ADD SWAP1 POP DUP2 DUP2 SUB PUSH0 DUP4 ADD MSTORE PUSH2 0xB92 DUP2 PUSH2 0xB59 JUMP JUMPDEST SWAP1 POP SWAP2 SWAP1 POP JUMP JUMPDEST PUSH32 0x4E487B7100000000000000000000000000000000000000000000000000000000 PUSH0 MSTORE PUSH1 0x11 PUSH1 0x4 MSTORE PUSH1 0x24 PUSH0 REVERT JUMPDEST PUSH0 PUSH2 0xBD0 DUP3 PUSH2 0x97D JUMP JUMPDEST SWAP2 POP PUSH2 0xBDB DUP4 PUSH2 0x97D JUMP JUMPDEST SWAP3 POP DUP3 DUP3 SUB SWAP1 POP DUP2 DUP2 GT ISZERO PUSH2 0xBF3 JUMPI PUSH2 0xBF2 PUSH2 0xB99 JUMP JUMPDEST JUMPDEST SWAP3 SWAP2 POP POP JUMP JUMPDEST PUSH32 0x596F7520646F6E2774206861766520616E7920747265617375726520616C6C6F PUSH0 DUP3 ADD MSTORE PUSH32 0x77616E6365000000000000000000000000000000000000000000000000000000 PUSH1 0x20 DUP3 ADD MSTORE POP JUMP JUMPDEST PUSH0 PUSH2 0xC53 PUSH1 0x25 DUP4 PUSH2 0xB21 JUMP JUMPDEST SWAP2 POP PUSH2 0xC5E DUP3 PUSH2 0xBF9 JUMP JUMPDEST PUSH1 0x40 DUP3 ADD SWAP1 POP SWAP2 SWAP1 POP JUMP JUMPDEST PUSH0 PUSH1 0x20 DUP3 ADD SWAP1 POP DUP2 DUP2 SUB PUSH0 DUP4 ADD MSTORE PUSH2 0xC80 DUP2 PUSH2 0xC47 JUMP JUMPDEST SWAP1 POP SWAP2 SWAP1 POP JUMP JUMPDEST PUSH32 0x596F75206861766520616C72656164792077697468647261776E20796F757220 PUSH0 DUP3 ADD MSTORE PUSH32 0x7472656173757265000000000000000000000000000000000000000000000000 PUSH1 0x20 DUP3 ADD MSTORE POP JUMP JUMPDEST PUSH0 PUSH2 0xCE1 PUSH1 0x28 DUP4 PUSH2 0xB21 JUMP JUMPDEST SWAP2 POP PUSH2 0xCEC DUP3 PUSH2 0xC87 JUMP JUMPDEST PUSH1 0x40 DUP3 ADD SWAP1 POP SWAP2 SWAP1 POP JUMP JUMPDEST PUSH0 PUSH1 0x20 DUP3 ADD SWAP1 POP DUP2 DUP2 SUB PUSH0 DUP4 ADD MSTORE PUSH2 0xD0E DUP2 PUSH2 0xCD5 JUMP JUMPDEST SWAP1 POP SWAP2 SWAP1 POP JUMP JUMPDEST PUSH32 0x4E6F7420656E6F75676820747265617375726520696E20746865206368657374 PUSH0 DUP3 ADD MSTORE POP JUMP JUMPDEST PUSH0 PUSH2 0xD49 PUSH1 0x20 DUP4 PUSH2 0xB21 JUMP JUMPDEST SWAP2 POP PUSH2 0xD54 DUP3 PUSH2 0xD15 JUMP JUMPDEST PUSH1 0x20 DUP3 ADD SWAP1 POP SWAP2 SWAP1 POP JUMP JUMPDEST PUSH0 PUSH1 0x20 DUP3 ADD SWAP1 POP DUP2 DUP2 SUB PUSH0 DUP4 ADD MSTORE PUSH2 0xD76 DUP2 PUSH2 0xD3D JUMP JUMPDEST SWAP1 POP SWAP2 SWAP1 POP JUMP JUMPDEST PUSH32 0x4163636573732064656E6965643A204F6E6C7920746865206F776E6572206361 PUSH0 DUP3 ADD MSTORE PUSH32 0x6E20706572666F726D207468697320616374696F6E0000000000000000000000 PUSH1 0x20 DUP3 ADD MSTORE POP JUMP JUMPDEST PUSH0 PUSH2 0xDD7 PUSH1 0x35 DUP4 PUSH2 0xB21 JUMP JUMPDEST SWAP2 POP PUSH2 0xDE2 DUP3 PUSH2 0xD7D JUMP JUMPDEST PUSH1 0x40 DUP3 ADD SWAP1 POP SWAP2 SWAP1 POP JUMP JUMPDEST PUSH0 PUSH1 0x20 DUP3 ADD SWAP1 POP DUP2 DUP2 SUB PUSH0 DUP4 ADD MSTORE PUSH2 0xE04 DUP2 PUSH2 0xDCB JUMP JUMPDEST SWAP1 POP SWAP2 SWAP1 POP JUMP JUMPDEST PUSH0 PUSH2 0xE15 DUP3 PUSH2 0x97D JUMP JUMPDEST SWAP2 POP PUSH2 0xE20 DUP4 PUSH2 0x97D JUMP JUMPDEST SWAP3 POP DUP3 DUP3 ADD SWAP1 POP DUP1 DUP3 GT ISZERO PUSH2 0xE38 JUMPI PUSH2 0xE37 PUSH2 0xB99 JUMP JUMPDEST JUMPDEST SWAP3 SWAP2 POP POP JUMP JUMPDEST PUSH32 0x496E76616C696420616464726573730000000000000000000000000000000000 PUSH0 DUP3 ADD MSTORE POP JUMP JUMPDEST PUSH0 PUSH2 0xE72 PUSH1 0xF DUP4 PUSH2 0xB21 JUMP JUMPDEST SWAP2 POP PUSH2 0xE7D DUP3 PUSH2 0xE3E JUMP JUMPDEST PUSH1 0x20 DUP3 ADD SWAP1 POP SWAP2 SWAP1 POP JUMP JUMPDEST PUSH0 PUSH1 0x20 DUP3 ADD SWAP1 POP DUP2 DUP2 SUB PUSH0 DUP4 ADD MSTORE PUSH2 0xE9F DUP2 PUSH2 0xE66 JUMP JUMPDEST SWAP1 POP SWAP2 SWAP1 POP JUMP INVALID LOG2 PUSH5 0x6970667358 0x22 SLT KECCAK256 SWAP6 0xED MSIZE STOP SWAPN 0x7C SMOD RETURN 0xD8 SWAP16 CREATE 0xD6 BLOCKHASH DUP11 0xED PUSH11 0xCF8FA60AE99CAF5E88F73B 0x26 0xAC SSTORE 0xB7 0x29 PUSH5 0x736F6C6343 STOP ADDMOD 0x1E STOP CALLER "
				},
				"gasEstimates": {
					"creation": {
						"codeDepositCost": "760800",
						"executionCost": "25054",
						"totalCost": "785854"
					},
					"external": {
						"addTreasure(uint256)": "infinite",
						"approveWithdrawal(address,uint256)": "27203",
						"getTreasureDetails()": "4667",
						"hasWithdrawn(address)": "2878",
						"owner()": "2596",
						"resetWithdrawalStatus(address)": "26970",
						"transferOwnership(address)": "26982",
						"treasureAmount()": "2448",
						"withdrawalAllowance(address)": "2824",
						"withdrawalTreasure(uint256)": "infinite"
					}
				},
				"methodIdentifiers": {
					"addTreasure(uint256)": "e0147005",
					"approveWithdrawal(address,uint256)": "f4970e71",
					"getTreasureDetails()": "774124fa",
					"hasWithdrawn(address)": "5e2c19db",
					"owner()": "8da5cb5b",
					"resetWithdrawalStatus(address)": "941907de",
					"transferOwnership(address)": "f2fde38b",
					"treasureAmount()": "5b238ee5",
					"withdrawalAllowance(address)": "dfbb36f9",
					"withdrawalTreasure(uint256)": "02a43f02"
				}
			},
			"storageLayout": {
				"storage": [
					{
						"astId": 3,
						"contract": "submissions/Gabbi/day5 admin only.sol:adminOnly",
						"label": "owner",
						"offset": 0,
						"slot": "0",
						"type": "t_address"
					},
					{
						"astId": 5,
						"contract": "submissions/Gabbi/day5 admin only.sol:adminOnly",
						"label": "treasureAmount",
						"offset": 0,
						"slot": "1",
						"type": "t_uint256"
					},
					{
						"astId": 9,
						"contract": "submissions/Gabbi/day5 admin only.sol:adminOnly",
						"label": "withdrawalAllowance",
						"offset": 0,
						"slot": "2",
						"type": "t_mapping(t_address,t_uint256)"
					},
					{
						"astId": 13,
						"contract": "submissions/Gabbi/day5 admin only.sol:adminOnly",
						"label": "hasWithdrawn",
						"offset": 0,
						"slot": "3",
						"type": "t_mapping(t_address,t_bool)"
					}
				],
				"types": {
					"t_address": {
						"encoding": "inplace",
						"label": "address",
						"numberOfBytes": "20"
					},
					"t_bool": {
						"encoding": "inplace",
						"label": "bool",
						"numberOfBytes": "1"
					},
					"t_mapping(t_address,t_bool)": {
						"encoding": "mapping",
						"key": "t_address",
						"label": "mapping(address => bool)",
						"numberOfBytes": "32",
						"value": "t_bool"
					},
					"t_mapping(t_address,t_uint256)": {
						"encoding": "mapping",
						"key": "t_address",
						"label": "mapping(address => uint256)",
						"numberOfBytes": "32",
						"value": "t_uint256"
					},
					"t_uint256": {
						"encoding": "inplace",
						"label": "uint256",
						"numberOfBytes": "32"
					}
				}
			},
			"userdoc": {
				"kind": "user",
				"methods": {},
				"version": 1
			}
		}
	}
}