{
	"submissions/doubleqian/day10.sol": {
		"SimpleFitnessTracker": {
			"abi": [
				{
					"inputs": [],
					"stateMutability": "nonpayable",
					"type": "constructor"
				},
				{
					"anonymous": false,
					"inputs": [
						{
							"indexed": true,
							"internalType": "address",
							"name": "userAddress",
							"type": "address"
						},
						{
							"indexed": false,
							"internalType": "string",
							"name": "milestone",
							"type": "string"
						},
						{
							"indexed": false,
							"internalType": "uint256",
							"name": "timestamp",
							"type": "uint256"
						}
					],
					"name": "MilestoneAchieved",
					"type": "event"
				},
				{
					"anonymous": false,
					"inputs": [
						{
							"indexed": true,
							"internalType": "address",
							"name": "userAddress",
							"type": "address"
						},
						{
							"indexed": false,
							"internalType": "uint256",
							"name": "newWeight",
							"type": "uint256"
						},
						{
							"indexed": false,
							"internalType": "uint256",
							"name": "timestamp",
							"type": "uint256"
						}
					],
					"name": "ProfileUpdated",
					"type": "event"
				},
				{
					"anonymous": false,
					"inputs": [
						{
							"indexed": true,
							"internalType": "address",
							"name": "userAddress",
							"type": "address"
						},
						{
							"indexed": false,
							"internalType": "string",
							"name": "name",
							"type": "string"
						},
						{
							"indexed": false,
							"internalType": "uint256",
							"name": "timestamp",
							"type": "uint256"
						}
					],
					"name": "UserRegistered",
					"type": "event"
				},
				{
					"anonymous": false,
					"inputs": [
						{
							"indexed": true,
							"internalType": "address",
							"name": "userAddress",
							"type": "address"
						},
						{
							"indexed": false,
							"internalType": "string",
							"name": "activityType",
							"type": "string"
						},
						{
							"indexed": false,
							"internalType": "uint256",
							"name": "duration",
							"type": "uint256"
						},
						{
							"indexed": false,
							"internalType": "uint256",
							"name": "distance",
							"type": "uint256"
						},
						{
							"indexed": false,
							"internalType": "uint256",
							"name": "timestamp",
							"type": "uint256"
						}
					],
					"name": "WorkoutLogged",
					"type": "event"
				},
				{
					"inputs": [],
					"name": "getUserWorkCount",
					"outputs": [
						{
							"internalType": "uint256",
							"name": "",
							"type": "uint256"
						}
					],
					"stateMutability": "view",
					"type": "function"
				},
				{
					"inputs": [
						{
							"internalType": "string",
							"name": "_activityType",
							"type": "string"
						},
						{
							"internalType": "uint256",
							"name": "_duration",
							"type": "uint256"
						},
						{
							"internalType": "uint256",
							"name": "_distance",
							"type": "uint256"
						}
					],
					"name": "logWorkout",
					"outputs": [],
					"stateMutability": "nonpayable",
					"type": "function"
				},
				{
					"inputs": [],
					"name": "owner",
					"outputs": [
						{
							"internalType": "address",
							"name": "",
							"type": "address"
						}
					],
					"stateMutability": "view",
					"type": "function"
				},
				{
					"inputs": [
						{
							"internalType": "string",
							"name": "_name",
							"type": "string"
						},
						{
							"internalType": "uint256",
							"name": "_weight",
							"type": "uint256"
						}
					],
					"name": "registerUser",
					"outputs": [],
					"stateMutability": "nonpayable",
					"type": "function"
				},
				{
					"inputs": [
						{
							"internalType": "address",
							"name": "",
							"type": "address"
						}
					],
					"name": "totalDistance",
					"outputs": [
						{
							"internalType": "uint256",
							"name": "",
							"type": "uint256"
						}
					],
					"stateMutability": "view",
					"type": "function"
				},
				{
					"inputs": [
						{
							"internalType": "address",
							"name": "",
							"type": "address"
						}
					],
					"name": "totalWorkouts",
					"outputs": [
						{
							"internalType": "uint256",
							"name": "",
							"type": "uint256"
						}
					],
					"stateMutability": "view",
					"type": "function"
				},
				{
					"inputs": [
						{
							"internalType": "uint256",
							"name": "_newWeight",
							"type": "uint256"
						}
					],
					"name": "updateWeight",
					"outputs": [],
					"stateMutability": "nonpayable",
					"type": "function"
				},
				{
					"inputs": [
						{
							"internalType": "address",
							"name": "",
							"type": "address"
						}
					],
					"name": "userProfiles",
					"outputs": [
						{
							"internalType": "string",
							"name": "name",
							"type": "string"
						},
						{
							"internalType": "uint256",
							"name": "weight",
							"type": "uint256"
						},
						{
							"internalType": "bool",
							"name": "isRegistered",
							"type": "bool"
						}
					],
					"stateMutability": "view",
					"type": "function"
				}
			],
			"devdoc": {
				"kind": "dev",
				"methods": {},
				"version": 1
			},
			"evm": {
				"assembly": "    /* \"submissions/doubleqian/day10.sol\":55:4058  contract SimpleFitnessTracker{... */\n  mstore(0x40, 0x80)\n    /* \"submissions/doubleqian/day10.sol\":1104:1152  constructor(){... */\n  callvalue\n  dup1\n  iszero\n  tag_1\n  jumpi\n  revert(0x00, 0x00)\ntag_1:\n  pop\n    /* \"submissions/doubleqian/day10.sol\":1135:1145  msg.sender */\n  caller\n    /* \"submissions/doubleqian/day10.sol\":1127:1132  owner */\n  0x00\n  0x00\n    /* \"submissions/doubleqian/day10.sol\":1127:1145  owner = msg.sender */\n  0x0100\n  exp\n  dup2\n  sload\n  dup2\n  0xffffffffffffffffffffffffffffffffffffffff\n  mul\n  not\n  and\n  swap1\n  dup4\n  0xffffffffffffffffffffffffffffffffffffffff\n  and\n  mul\n  or\n  swap1\n  sstore\n  pop\n    /* \"submissions/doubleqian/day10.sol\":55:4058  contract SimpleFitnessTracker{... */\n  dataSize(sub_0)\n  dup1\n  dataOffset(sub_0)\n  0x00\n  codecopy\n  0x00\n  return\nstop\n\nsub_0: assembly {\n        /* \"submissions/doubleqian/day10.sol\":55:4058  contract SimpleFitnessTracker{... */\n      mstore(0x40, 0x80)\n      callvalue\n      dup1\n      iszero\n      tag_1\n      jumpi\n      revert(0x00, 0x00)\n    tag_1:\n      pop\n      jumpi(tag_2, lt(calldatasize, 0x04))\n      shr(0xe0, calldataload(0x00))\n      dup1\n      0xae5bde4e\n      gt\n      tag_11\n      jumpi\n      dup1\n      0xae5bde4e\n      eq\n      tag_7\n      jumpi\n      dup1\n      0xc5af3f8c\n      eq\n      tag_8\n      jumpi\n      dup1\n      0xd3951002\n      eq\n      tag_9\n      jumpi\n      dup1\n      0xec3df6ad\n      eq\n      tag_10\n      jumpi\n      jump(tag_2)\n    tag_11:\n      dup1\n      0x03cdaddd\n      eq\n      tag_3\n      jumpi\n      dup1\n      0x332d56d7\n      eq\n      tag_4\n      jumpi\n      dup1\n      0x36ae55b6\n      eq\n      tag_5\n      jumpi\n      dup1\n      0x8da5cb5b\n      eq\n      tag_6\n      jumpi\n    tag_2:\n      revert(0x00, 0x00)\n        /* \"submissions/doubleqian/day10.sol\":547:595  mapping(address => uint256) public totalWorkouts */\n    tag_3:\n      tag_12\n      0x04\n      dup1\n      calldatasize\n      sub\n      dup2\n      add\n      swap1\n      tag_13\n      swap2\n      swap1\n      tag_14\n      jump\t// in\n    tag_13:\n      tag_15\n      jump\t// in\n    tag_12:\n      mload(0x40)\n      tag_16\n      swap2\n      swap1\n      tag_17\n      jump\t// in\n    tag_16:\n      mload(0x40)\n      dup1\n      swap2\n      sub\n      swap1\n      return\n        /* \"submissions/doubleqian/day10.sol\":421:472  mapping(address => UserProfile) public userProfiles */\n    tag_4:\n      tag_18\n      0x04\n      dup1\n      calldatasize\n      sub\n      dup2\n      add\n      swap1\n      tag_19\n      swap2\n      swap1\n      tag_14\n      jump\t// in\n    tag_19:\n      tag_20\n      jump\t// in\n    tag_18:\n      mload(0x40)\n      tag_21\n      swap4\n      swap3\n      swap2\n      swap1\n      tag_22\n      jump\t// in\n    tag_21:\n      mload(0x40)\n      dup1\n      swap2\n      sub\n      swap1\n      return\n        /* \"submissions/doubleqian/day10.sol\":3915:4052  function getUserWorkCount() public view onlyRegistered returns (uint256){... */\n    tag_5:\n      tag_23\n      tag_24\n      jump\t// in\n    tag_23:\n      mload(0x40)\n      tag_25\n      swap2\n      swap1\n      tag_17\n      jump\t// in\n    tag_25:\n      mload(0x40)\n      dup1\n      swap2\n      sub\n      swap1\n      return\n        /* \"submissions/doubleqian/day10.sol\":90:110  address public owner */\n    tag_6:\n      tag_26\n      tag_27\n      jump\t// in\n    tag_26:\n      mload(0x40)\n      tag_28\n      swap2\n      swap1\n      tag_29\n      jump\t// in\n    tag_28:\n      mload(0x40)\n      dup1\n      swap2\n      sub\n      swap1\n      return\n        /* \"submissions/doubleqian/day10.sol\":601:649  mapping(address => uint256) public totalDistance */\n    tag_7:\n      tag_30\n      0x04\n      dup1\n      calldatasize\n      sub\n      dup2\n      add\n      swap1\n      tag_31\n      swap2\n      swap1\n      tag_14\n      jump\t// in\n    tag_31:\n      tag_32\n      jump\t// in\n    tag_30:\n      mload(0x40)\n      tag_33\n      swap2\n      swap1\n      tag_17\n      jump\t// in\n    tag_33:\n      mload(0x40)\n      dup1\n      swap2\n      sub\n      swap1\n      return\n        /* \"submissions/doubleqian/day10.sol\":2379:3849  function logWorkout(... */\n    tag_8:\n      tag_34\n      0x04\n      dup1\n      calldatasize\n      sub\n      dup2\n      add\n      swap1\n      tag_35\n      swap2\n      swap1\n      tag_36\n      jump\t// in\n    tag_35:\n      tag_37\n      jump\t// in\n    tag_34:\n      stop\n        /* \"submissions/doubleqian/day10.sol\":1314:1722  function registerUser(string memory _name,uint256 _weight) public{... */\n    tag_9:\n      tag_38\n      0x04\n      dup1\n      calldatasize\n      sub\n      dup2\n      add\n      swap1\n      tag_39\n      swap2\n      swap1\n      tag_40\n      jump\t// in\n    tag_39:\n      tag_41\n      jump\t// in\n    tag_38:\n      stop\n        /* \"submissions/doubleqian/day10.sol\":1763:2334  function updateWeight(uint256 _newWeight) public onlyRegistered{... */\n    tag_10:\n      tag_42\n      0x04\n      dup1\n      calldatasize\n      sub\n      dup2\n      add\n      swap1\n      tag_43\n      swap2\n      swap1\n      tag_44\n      jump\t// in\n    tag_43:\n      tag_45\n      jump\t// in\n    tag_42:\n      stop\n        /* \"submissions/doubleqian/day10.sol\":547:595  mapping(address => uint256) public totalWorkouts */\n    tag_15:\n      mstore(0x20, 0x03)\n      dup1\n      0x00\n      mstore\n      keccak256(0x00, 0x40)\n      0x00\n      swap2\n      pop\n      swap1\n      pop\n      sload\n      dup2\n      jump\t// out\n        /* \"submissions/doubleqian/day10.sol\":421:472  mapping(address => UserProfile) public userProfiles */\n    tag_20:\n      mstore(0x20, 0x01)\n      dup1\n      0x00\n      mstore\n      keccak256(0x00, 0x40)\n      0x00\n      swap2\n      pop\n      swap1\n      pop\n      dup1\n      0x00\n      add\n      dup1\n      sload\n      tag_46\n      swap1\n      tag_47\n      jump\t// in\n    tag_46:\n      dup1\n      0x1f\n      add\n      0x20\n      dup1\n      swap2\n      div\n      mul\n      0x20\n      add\n      mload(0x40)\n      swap1\n      dup2\n      add\n      0x40\n      mstore\n      dup1\n      swap3\n      swap2\n      swap1\n      dup2\n      dup2\n      mstore\n      0x20\n      add\n      dup3\n      dup1\n      sload\n      tag_48\n      swap1\n      tag_47\n      jump\t// in\n    tag_48:\n      dup1\n      iszero\n      tag_49\n      jumpi\n      dup1\n      0x1f\n      lt\n      tag_50\n      jumpi\n      0x0100\n      dup1\n      dup4\n      sload\n      div\n      mul\n      dup4\n      mstore\n      swap2\n      0x20\n      add\n      swap2\n      jump(tag_49)\n    tag_50:\n      dup3\n      add\n      swap2\n      swap1\n      0x00\n      mstore\n      keccak256(0x00, 0x20)\n      swap1\n    tag_51:\n      dup2\n      sload\n      dup2\n      mstore\n      swap1\n      0x01\n      add\n      swap1\n      0x20\n      add\n      dup1\n      dup4\n      gt\n      tag_51\n      jumpi\n      dup3\n      swap1\n      sub\n      0x1f\n      and\n      dup3\n      add\n      swap2\n    tag_49:\n      pop\n      pop\n      pop\n      pop\n      pop\n      swap1\n      dup1\n      0x01\n      add\n      sload\n      swap1\n      dup1\n      0x02\n      add\n      0x00\n      swap1\n      sload\n      swap1\n      0x0100\n      exp\n      swap1\n      div\n      0xff\n      and\n      swap1\n      pop\n      dup4\n      jump\t// out\n        /* \"submissions/doubleqian/day10.sol\":3915:4052  function getUserWorkCount() public view onlyRegistered returns (uint256){... */\n    tag_24:\n        /* \"submissions/doubleqian/day10.sol\":3979:3986  uint256 */\n      0x00\n        /* \"submissions/doubleqian/day10.sol\":1202:1214  userProfiles */\n      0x01\n        /* \"submissions/doubleqian/day10.sol\":1202:1226  userProfiles[msg.sender] */\n      0x00\n        /* \"submissions/doubleqian/day10.sol\":1215:1225  msg.sender */\n      caller\n        /* \"submissions/doubleqian/day10.sol\":1202:1226  userProfiles[msg.sender] */\n      0xffffffffffffffffffffffffffffffffffffffff\n      and\n      0xffffffffffffffffffffffffffffffffffffffff\n      and\n      dup2\n      mstore\n      0x20\n      add\n      swap1\n      dup2\n      mstore\n      0x20\n      add\n      0x00\n      keccak256\n        /* \"submissions/doubleqian/day10.sol\":1202:1239  userProfiles[msg.sender].isRegistered */\n      0x02\n      add\n      0x00\n      swap1\n      sload\n      swap1\n      0x0100\n      exp\n      swap1\n      div\n      0xff\n      and\n        /* \"submissions/doubleqian/day10.sol\":1194:1263  require(userProfiles[msg.sender].isRegistered, \"User not registered\") */\n      tag_53\n      jumpi\n      mload(0x40)\n      0x08c379a000000000000000000000000000000000000000000000000000000000\n      dup2\n      mstore\n      0x04\n      add\n      tag_54\n      swap1\n      tag_55\n      jump\t// in\n    tag_54:\n      mload(0x40)\n      dup1\n      swap2\n      sub\n      swap1\n      revert\n    tag_53:\n        /* \"submissions/doubleqian/day10.sol\":4008:4022  workoutHistory */\n      0x02\n        /* \"submissions/doubleqian/day10.sol\":4008:4034  workoutHistory[msg.sender] */\n      0x00\n        /* \"submissions/doubleqian/day10.sol\":4023:4033  msg.sender */\n      caller\n        /* \"submissions/doubleqian/day10.sol\":4008:4034  workoutHistory[msg.sender] */\n      0xffffffffffffffffffffffffffffffffffffffff\n      and\n      0xffffffffffffffffffffffffffffffffffffffff\n      and\n      dup2\n      mstore\n      0x20\n      add\n      swap1\n      dup2\n      mstore\n      0x20\n      add\n      0x00\n      keccak256\n        /* \"submissions/doubleqian/day10.sol\":4008:4041  workoutHistory[msg.sender].length */\n      dup1\n      sload\n      swap1\n      pop\n        /* \"submissions/doubleqian/day10.sol\":4001:4041  return workoutHistory[msg.sender].length */\n      swap1\n      pop\n        /* \"submissions/doubleqian/day10.sol\":3915:4052  function getUserWorkCount() public view onlyRegistered returns (uint256){... */\n      swap1\n      jump\t// out\n        /* \"submissions/doubleqian/day10.sol\":90:110  address public owner */\n    tag_27:\n      0x00\n      0x00\n      swap1\n      sload\n      swap1\n      0x0100\n      exp\n      swap1\n      div\n      0xffffffffffffffffffffffffffffffffffffffff\n      and\n      dup2\n      jump\t// out\n        /* \"submissions/doubleqian/day10.sol\":601:649  mapping(address => uint256) public totalDistance */\n    tag_32:\n      mstore(0x20, 0x04)\n      dup1\n      0x00\n      mstore\n      keccak256(0x00, 0x40)\n      0x00\n      swap2\n      pop\n      swap1\n      pop\n      sload\n      dup2\n      jump\t// out\n        /* \"submissions/doubleqian/day10.sol\":2379:3849  function logWorkout(... */\n    tag_37:\n        /* \"submissions/doubleqian/day10.sol\":1202:1214  userProfiles */\n      0x01\n        /* \"submissions/doubleqian/day10.sol\":1202:1226  userProfiles[msg.sender] */\n      0x00\n        /* \"submissions/doubleqian/day10.sol\":1215:1225  msg.sender */\n      caller\n        /* \"submissions/doubleqian/day10.sol\":1202:1226  userProfiles[msg.sender] */\n      0xffffffffffffffffffffffffffffffffffffffff\n      and\n      0xffffffffffffffffffffffffffffffffffffffff\n      and\n      dup2\n      mstore\n      0x20\n      add\n      swap1\n      dup2\n      mstore\n      0x20\n      add\n      0x00\n      keccak256\n        /* \"submissions/doubleqian/day10.sol\":1202:1239  userProfiles[msg.sender].isRegistered */\n      0x02\n      add\n      0x00\n      swap1\n      sload\n      swap1\n      0x0100\n      exp\n      swap1\n      div\n      0xff\n      and\n        /* \"submissions/doubleqian/day10.sol\":1194:1263  require(userProfiles[msg.sender].isRegistered, \"User not registered\") */\n      tag_58\n      jumpi\n      mload(0x40)\n      0x08c379a000000000000000000000000000000000000000000000000000000000\n      dup2\n      mstore\n      0x04\n      add\n      tag_59\n      swap1\n      tag_55\n      jump\t// in\n    tag_59:\n      mload(0x40)\n      dup1\n      swap2\n      sub\n      swap1\n      revert\n    tag_58:\n        /* \"submissions/doubleqian/day10.sol\":2590:2623  WorkoutActivity memory newWorkout */\n      0x00\n        /* \"submissions/doubleqian/day10.sol\":2626:2824  WorkoutActivity({... */\n      mload(0x40)\n      dup1\n      0x80\n      add\n      0x40\n      mstore\n      dup1\n        /* \"submissions/doubleqian/day10.sol\":2674:2687  _activityType */\n      dup6\n        /* \"submissions/doubleqian/day10.sol\":2626:2824  WorkoutActivity({... */\n      dup2\n      mstore\n      0x20\n      add\n        /* \"submissions/doubleqian/day10.sol\":2715:2724  _duration */\n      dup5\n        /* \"submissions/doubleqian/day10.sol\":2626:2824  WorkoutActivity({... */\n      dup2\n      mstore\n      0x20\n      add\n        /* \"submissions/doubleqian/day10.sol\":2752:2761  _distance */\n      dup4\n        /* \"submissions/doubleqian/day10.sol\":2626:2824  WorkoutActivity({... */\n      dup2\n      mstore\n      0x20\n      add\n        /* \"submissions/doubleqian/day10.sol\":2790:2805  block.timestamp */\n      timestamp\n        /* \"submissions/doubleqian/day10.sol\":2626:2824  WorkoutActivity({... */\n      dup2\n      mstore\n      pop\n        /* \"submissions/doubleqian/day10.sol\":2590:2824  WorkoutActivity memory newWorkout = WorkoutActivity({... */\n      swap1\n      pop\n        /* \"submissions/doubleqian/day10.sol\":2883:2897  workoutHistory */\n      0x02\n        /* \"submissions/doubleqian/day10.sol\":2883:2909  workoutHistory[msg.sender] */\n      0x00\n        /* \"submissions/doubleqian/day10.sol\":2898:2908  msg.sender */\n      caller\n        /* \"submissions/doubleqian/day10.sol\":2883:2909  workoutHistory[msg.sender] */\n      0xffffffffffffffffffffffffffffffffffffffff\n      and\n      0xffffffffffffffffffffffffffffffffffffffff\n      and\n      dup2\n      mstore\n      0x20\n      add\n      swap1\n      dup2\n      mstore\n      0x20\n      add\n      0x00\n      keccak256\n        /* \"submissions/doubleqian/day10.sol\":2915:2925  newWorkout */\n      dup2\n        /* \"submissions/doubleqian/day10.sol\":2883:2926  workoutHistory[msg.sender].push(newWorkout) */\n      swap1\n      dup1\n      0x01\n      dup2\n      sload\n      add\n      dup1\n      dup3\n      sstore\n      dup1\n      swap2\n      pop\n      pop\n      0x01\n      swap1\n      sub\n      swap1\n      0x00\n      mstore\n      keccak256(0x00, 0x20)\n      swap1\n      0x04\n      mul\n      add\n      0x00\n      swap1\n      swap2\n      swap1\n      swap2\n      swap1\n      swap2\n      pop\n      0x00\n      dup3\n      add\n      mload\n      dup2\n      0x00\n      add\n      swap1\n      dup2\n      tag_62\n      swap2\n      swap1\n      tag_63\n      jump\t// in\n    tag_62:\n      pop\n      0x20\n      dup3\n      add\n      mload\n      dup2\n      0x01\n      add\n      sstore\n      0x40\n      dup3\n      add\n      mload\n      dup2\n      0x02\n      add\n      sstore\n      0x60\n      dup3\n      add\n      mload\n      dup2\n      0x03\n      add\n      sstore\n      pop\n      pop\n        /* \"submissions/doubleqian/day10.sol\":2978:2991  totalWorkouts */\n      0x03\n        /* \"submissions/doubleqian/day10.sol\":2978:3003  totalWorkouts[msg.sender] */\n      0x00\n        /* \"submissions/doubleqian/day10.sol\":2992:3002  msg.sender */\n      caller\n        /* \"submissions/doubleqian/day10.sol\":2978:3003  totalWorkouts[msg.sender] */\n      0xffffffffffffffffffffffffffffffffffffffff\n      and\n      0xffffffffffffffffffffffffffffffffffffffff\n      and\n      dup2\n      mstore\n      0x20\n      add\n      swap1\n      dup2\n      mstore\n      0x20\n      add\n      0x00\n      keccak256\n      0x00\n        /* \"submissions/doubleqian/day10.sol\":2978:3005  totalWorkouts[msg.sender]++ */\n      dup2\n      sload\n      dup1\n      swap3\n      swap2\n      swap1\n      tag_64\n      swap1\n      tag_65\n      jump\t// in\n    tag_64:\n      swap2\n      swap1\n      pop\n      sstore\n      pop\n        /* \"submissions/doubleqian/day10.sol\":3045:3054  _distance */\n      dup2\n        /* \"submissions/doubleqian/day10.sol\":3016:3029  totalDistance */\n      0x04\n        /* \"submissions/doubleqian/day10.sol\":3016:3041  totalDistance[msg.sender] */\n      0x00\n        /* \"submissions/doubleqian/day10.sol\":3030:3040  msg.sender */\n      caller\n        /* \"submissions/doubleqian/day10.sol\":3016:3041  totalDistance[msg.sender] */\n      0xffffffffffffffffffffffffffffffffffffffff\n      and\n      0xffffffffffffffffffffffffffffffffffffffff\n      and\n      dup2\n      mstore\n      0x20\n      add\n      swap1\n      dup2\n      mstore\n      0x20\n      add\n      0x00\n      keccak256\n      0x00\n        /* \"submissions/doubleqian/day10.sol\":3016:3054  totalDistance[msg.sender] += _distance */\n      dup3\n      dup3\n      sload\n      tag_66\n      swap2\n      swap1\n      tag_67\n      jump\t// in\n    tag_66:\n      swap3\n      pop\n      pop\n      dup2\n      swap1\n      sstore\n      pop\n        /* \"submissions/doubleqian/day10.sol\":3135:3145  msg.sender */\n      caller\n        /* \"submissions/doubleqian/day10.sol\":3108:3258  WorkoutLogged(... */\n      0xffffffffffffffffffffffffffffffffffffffff\n      and\n      0x587a8c232da0d7b15371c5660ff1fdc5fbaf667e6a6b9b6587a378509038fd73\n        /* \"submissions/doubleqian/day10.sol\":3159:3172  _activityType */\n      dup6\n        /* \"submissions/doubleqian/day10.sol\":3186:3195  _duration */\n      dup6\n        /* \"submissions/doubleqian/day10.sol\":3209:3218  _distance */\n      dup6\n        /* \"submissions/doubleqian/day10.sol\":3232:3247  block.timestamp */\n      timestamp\n        /* \"submissions/doubleqian/day10.sol\":3108:3258  WorkoutLogged(... */\n      mload(0x40)\n      tag_68\n      swap5\n      swap4\n      swap3\n      swap2\n      swap1\n      tag_69\n      jump\t// in\n    tag_68:\n      mload(0x40)\n      dup1\n      swap2\n      sub\n      swap1\n      log2\n        /* \"submissions/doubleqian/day10.sol\":3349:3351  10 */\n      0x0a\n        /* \"submissions/doubleqian/day10.sol\":3320:3333  totalWorkouts */\n      0x03\n        /* \"submissions/doubleqian/day10.sol\":3320:3345  totalWorkouts[msg.sender] */\n      0x00\n        /* \"submissions/doubleqian/day10.sol\":3334:3344  msg.sender */\n      caller\n        /* \"submissions/doubleqian/day10.sol\":3320:3345  totalWorkouts[msg.sender] */\n      0xffffffffffffffffffffffffffffffffffffffff\n      and\n      0xffffffffffffffffffffffffffffffffffffffff\n      and\n      dup2\n      mstore\n      0x20\n      add\n      swap1\n      dup2\n      mstore\n      0x20\n      add\n      0x00\n      keccak256\n      sload\n        /* \"submissions/doubleqian/day10.sol\":3320:3351  totalWorkouts[msg.sender] == 10 */\n      sub\n        /* \"submissions/doubleqian/day10.sol\":3316:3597  if (totalWorkouts[msg.sender] == 10){... */\n      tag_70\n      jumpi\n        /* \"submissions/doubleqian/day10.sol\":3389:3399  msg.sender */\n      caller\n        /* \"submissions/doubleqian/day10.sol\":3371:3441  MilestoneAchieved(msg.sender, \"10 Workouts completed\",block.timestamp) */\n      0xffffffffffffffffffffffffffffffffffffffff\n      and\n      0x8e330a58901ae7dba0b65f495856eab3fc73fc6ceca3dd7fbd2f4f9d14876e37\n        /* \"submissions/doubleqian/day10.sol\":3425:3440  block.timestamp */\n      timestamp\n        /* \"submissions/doubleqian/day10.sol\":3371:3441  MilestoneAchieved(msg.sender, \"10 Workouts completed\",block.timestamp) */\n      mload(0x40)\n      tag_71\n      swap2\n      swap1\n      tag_72\n      jump\t// in\n    tag_71:\n      mload(0x40)\n      dup1\n      swap2\n      sub\n      swap1\n      log2\n        /* \"submissions/doubleqian/day10.sol\":3316:3597  if (totalWorkouts[msg.sender] == 10){... */\n      jump(tag_73)\n    tag_70:\n        /* \"submissions/doubleqian/day10.sol\":3492:3494  50 */\n      0x32\n        /* \"submissions/doubleqian/day10.sol\":3463:3476  totalWorkouts */\n      0x03\n        /* \"submissions/doubleqian/day10.sol\":3463:3488  totalWorkouts[msg.sender] */\n      0x00\n        /* \"submissions/doubleqian/day10.sol\":3477:3487  msg.sender */\n      caller\n        /* \"submissions/doubleqian/day10.sol\":3463:3488  totalWorkouts[msg.sender] */\n      0xffffffffffffffffffffffffffffffffffffffff\n      and\n      0xffffffffffffffffffffffffffffffffffffffff\n      and\n      dup2\n      mstore\n      0x20\n      add\n      swap1\n      dup2\n      mstore\n      0x20\n      add\n      0x00\n      keccak256\n      sload\n        /* \"submissions/doubleqian/day10.sol\":3463:3494  totalWorkouts[msg.sender] == 50 */\n      sub\n        /* \"submissions/doubleqian/day10.sol\":3459:3597  if (totalWorkouts[msg.sender] == 50){... */\n      tag_74\n      jumpi\n        /* \"submissions/doubleqian/day10.sol\":3532:3542  msg.sender */\n      caller\n        /* \"submissions/doubleqian/day10.sol\":3514:3585  MilestoneAchieved(msg.sender, \"50 Workouts completed\", block.timestamp) */\n      0xffffffffffffffffffffffffffffffffffffffff\n      and\n      0x8e330a58901ae7dba0b65f495856eab3fc73fc6ceca3dd7fbd2f4f9d14876e37\n        /* \"submissions/doubleqian/day10.sol\":3569:3584  block.timestamp */\n      timestamp\n        /* \"submissions/doubleqian/day10.sol\":3514:3585  MilestoneAchieved(msg.sender, \"50 Workouts completed\", block.timestamp) */\n      mload(0x40)\n      tag_75\n      swap2\n      swap1\n      tag_76\n      jump\t// in\n    tag_75:\n      mload(0x40)\n      dup1\n      swap2\n      sub\n      swap1\n      log2\n        /* \"submissions/doubleqian/day10.sol\":3459:3597  if (totalWorkouts[msg.sender] == 50){... */\n    tag_74:\n        /* \"submissions/doubleqian/day10.sol\":3316:3597  if (totalWorkouts[msg.sender] == 10){... */\n    tag_73:\n        /* \"submissions/doubleqian/day10.sol\":3680:3685  10000 */\n      0x2710\n        /* \"submissions/doubleqian/day10.sol\":3651:3664  totalDistance */\n      0x04\n        /* \"submissions/doubleqian/day10.sol\":3651:3676  totalDistance[msg.sender] */\n      0x00\n        /* \"submissions/doubleqian/day10.sol\":3665:3675  msg.sender */\n      caller\n        /* \"submissions/doubleqian/day10.sol\":3651:3676  totalDistance[msg.sender] */\n      0xffffffffffffffffffffffffffffffffffffffff\n      and\n      0xffffffffffffffffffffffffffffffffffffffff\n      and\n      dup2\n      mstore\n      0x20\n      add\n      swap1\n      dup2\n      mstore\n      0x20\n      add\n      0x00\n      keccak256\n      sload\n        /* \"submissions/doubleqian/day10.sol\":3651:3685  totalDistance[msg.sender] >= 10000 */\n      lt\n      iszero\n        /* \"submissions/doubleqian/day10.sol\":3651:3733  totalDistance[msg.sender] >= 10000 && totalDistance[msg.sender] -_distance < 10000 */\n      dup1\n      iszero\n      tag_77\n      jumpi\n      pop\n        /* \"submissions/doubleqian/day10.sol\":3728:3733  10000 */\n      0x2710\n        /* \"submissions/doubleqian/day10.sol\":3716:3725  _distance */\n      dup3\n        /* \"submissions/doubleqian/day10.sol\":3689:3702  totalDistance */\n      0x04\n        /* \"submissions/doubleqian/day10.sol\":3689:3714  totalDistance[msg.sender] */\n      0x00\n        /* \"submissions/doubleqian/day10.sol\":3703:3713  msg.sender */\n      caller\n        /* \"submissions/doubleqian/day10.sol\":3689:3714  totalDistance[msg.sender] */\n      0xffffffffffffffffffffffffffffffffffffffff\n      and\n      0xffffffffffffffffffffffffffffffffffffffff\n      and\n      dup2\n      mstore\n      0x20\n      add\n      swap1\n      dup2\n      mstore\n      0x20\n      add\n      0x00\n      keccak256\n      sload\n        /* \"submissions/doubleqian/day10.sol\":3689:3725  totalDistance[msg.sender] -_distance */\n      tag_78\n      swap2\n      swap1\n      tag_79\n      jump\t// in\n    tag_78:\n        /* \"submissions/doubleqian/day10.sol\":3689:3733  totalDistance[msg.sender] -_distance < 10000 */\n      lt\n        /* \"submissions/doubleqian/day10.sol\":3651:3733  totalDistance[msg.sender] >= 10000 && totalDistance[msg.sender] -_distance < 10000 */\n    tag_77:\n        /* \"submissions/doubleqian/day10.sol\":3647:3837  if (totalDistance[msg.sender] >= 10000 && totalDistance[msg.sender] -_distance < 10000){... */\n      iszero\n      tag_80\n      jumpi\n        /* \"submissions/doubleqian/day10.sol\":3771:3781  msg.sender */\n      caller\n        /* \"submissions/doubleqian/day10.sol\":3753:3826  MilestoneAchieved(msg.sender, \"100k Distance completed\", block.timestamp) */\n      0xffffffffffffffffffffffffffffffffffffffff\n      and\n      0x8e330a58901ae7dba0b65f495856eab3fc73fc6ceca3dd7fbd2f4f9d14876e37\n        /* \"submissions/doubleqian/day10.sol\":3810:3825  block.timestamp */\n      timestamp\n        /* \"submissions/doubleqian/day10.sol\":3753:3826  MilestoneAchieved(msg.sender, \"100k Distance completed\", block.timestamp) */\n      mload(0x40)\n      tag_81\n      swap2\n      swap1\n      tag_82\n      jump\t// in\n    tag_81:\n      mload(0x40)\n      dup1\n      swap2\n      sub\n      swap1\n      log2\n        /* \"submissions/doubleqian/day10.sol\":3647:3837  if (totalDistance[msg.sender] >= 10000 && totalDistance[msg.sender] -_distance < 10000){... */\n    tag_80:\n        /* \"submissions/doubleqian/day10.sol\":2534:3849  {... */\n      pop\n        /* \"submissions/doubleqian/day10.sol\":2379:3849  function logWorkout(... */\n      pop\n      pop\n      pop\n      jump\t// out\n        /* \"submissions/doubleqian/day10.sol\":1314:1722  function registerUser(string memory _name,uint256 _weight) public{... */\n    tag_41:\n        /* \"submissions/doubleqian/day10.sol\":1398:1410  userProfiles */\n      0x01\n        /* \"submissions/doubleqian/day10.sol\":1398:1422  userProfiles[msg.sender] */\n      0x00\n        /* \"submissions/doubleqian/day10.sol\":1411:1421  msg.sender */\n      caller\n        /* \"submissions/doubleqian/day10.sol\":1398:1422  userProfiles[msg.sender] */\n      0xffffffffffffffffffffffffffffffffffffffff\n      and\n      0xffffffffffffffffffffffffffffffffffffffff\n      and\n      dup2\n      mstore\n      0x20\n      add\n      swap1\n      dup2\n      mstore\n      0x20\n      add\n      0x00\n      keccak256\n        /* \"submissions/doubleqian/day10.sol\":1398:1435  userProfiles[msg.sender].isRegistered */\n      0x02\n      add\n      0x00\n      swap1\n      sload\n      swap1\n      0x0100\n      exp\n      swap1\n      div\n      0xff\n      and\n        /* \"submissions/doubleqian/day10.sol\":1397:1435  !userProfiles[msg.sender].isRegistered */\n      iszero\n        /* \"submissions/doubleqian/day10.sol\":1389:1463  require(!userProfiles[msg.sender].isRegistered, \"User already registered\") */\n      tag_84\n      jumpi\n      mload(0x40)\n      0x08c379a000000000000000000000000000000000000000000000000000000000\n      dup2\n      mstore\n      0x04\n      add\n      tag_85\n      swap1\n      tag_86\n      jump\t// in\n    tag_85:\n      mload(0x40)\n      dup1\n      swap2\n      sub\n      swap1\n      revert\n    tag_84:\n        /* \"submissions/doubleqian/day10.sol\":1501:1610  UserProfile({... */\n      mload(0x40)\n      dup1\n      0x60\n      add\n      0x40\n      mstore\n      dup1\n        /* \"submissions/doubleqian/day10.sol\":1533:1538  _name */\n      dup4\n        /* \"submissions/doubleqian/day10.sol\":1501:1610  UserProfile({... */\n      dup2\n      mstore\n      0x20\n      add\n        /* \"submissions/doubleqian/day10.sol\":1560:1567  _weight */\n      dup3\n        /* \"submissions/doubleqian/day10.sol\":1501:1610  UserProfile({... */\n      dup2\n      mstore\n      0x20\n      add\n        /* \"submissions/doubleqian/day10.sol\":1595:1599  true */\n      0x01\n        /* \"submissions/doubleqian/day10.sol\":1501:1610  UserProfile({... */\n      iszero\n      iszero\n      dup2\n      mstore\n      pop\n        /* \"submissions/doubleqian/day10.sol\":1474:1486  userProfiles */\n      0x01\n        /* \"submissions/doubleqian/day10.sol\":1474:1498  userProfiles[msg.sender] */\n      0x00\n        /* \"submissions/doubleqian/day10.sol\":1487:1497  msg.sender */\n      caller\n        /* \"submissions/doubleqian/day10.sol\":1474:1498  userProfiles[msg.sender] */\n      0xffffffffffffffffffffffffffffffffffffffff\n      and\n      0xffffffffffffffffffffffffffffffffffffffff\n      and\n      dup2\n      mstore\n      0x20\n      add\n      swap1\n      dup2\n      mstore\n      0x20\n      add\n      0x00\n      keccak256\n        /* \"submissions/doubleqian/day10.sol\":1474:1610  userProfiles[msg.sender] = UserProfile({... */\n      0x00\n      dup3\n      add\n      mload\n      dup2\n      0x00\n      add\n      swap1\n      dup2\n      tag_87\n      swap2\n      swap1\n      tag_63\n      jump\t// in\n    tag_87:\n      pop\n      0x20\n      dup3\n      add\n      mload\n      dup2\n      0x01\n      add\n      sstore\n      0x40\n      dup3\n      add\n      mload\n      dup2\n      0x02\n      add\n      exp(0x0100, 0x00)\n      dup2\n      sload\n      dup2\n      0xff\n      mul\n      not\n      and\n      swap1\n      dup4\n      iszero\n      iszero\n      mul\n      or\n      swap1\n      sstore\n      pop\n      swap1\n      pop\n      pop\n        /* \"submissions/doubleqian/day10.sol\":1675:1685  msg.sender */\n      caller\n        /* \"submissions/doubleqian/day10.sol\":1660:1710  UserRegistered(msg.sender, _name, block.timestamp) */\n      0xffffffffffffffffffffffffffffffffffffffff\n      and\n      0x89105a1c6a3c2fbd471255c66a31ccab604af5697f67d7e2e9a0028c5e4dbd91\n        /* \"submissions/doubleqian/day10.sol\":1687:1692  _name */\n      dup4\n        /* \"submissions/doubleqian/day10.sol\":1694:1709  block.timestamp */\n      timestamp\n        /* \"submissions/doubleqian/day10.sol\":1660:1710  UserRegistered(msg.sender, _name, block.timestamp) */\n      mload(0x40)\n      tag_88\n      swap3\n      swap2\n      swap1\n      tag_89\n      jump\t// in\n    tag_88:\n      mload(0x40)\n      dup1\n      swap2\n      sub\n      swap1\n      log2\n        /* \"submissions/doubleqian/day10.sol\":1314:1722  function registerUser(string memory _name,uint256 _weight) public{... */\n      pop\n      pop\n      jump\t// out\n        /* \"submissions/doubleqian/day10.sol\":1763:2334  function updateWeight(uint256 _newWeight) public onlyRegistered{... */\n    tag_45:\n        /* \"submissions/doubleqian/day10.sol\":1202:1214  userProfiles */\n      0x01\n        /* \"submissions/doubleqian/day10.sol\":1202:1226  userProfiles[msg.sender] */\n      0x00\n        /* \"submissions/doubleqian/day10.sol\":1215:1225  msg.sender */\n      caller\n        /* \"submissions/doubleqian/day10.sol\":1202:1226  userProfiles[msg.sender] */\n      0xffffffffffffffffffffffffffffffffffffffff\n      and\n      0xffffffffffffffffffffffffffffffffffffffff\n      and\n      dup2\n      mstore\n      0x20\n      add\n      swap1\n      dup2\n      mstore\n      0x20\n      add\n      0x00\n      keccak256\n        /* \"submissions/doubleqian/day10.sol\":1202:1239  userProfiles[msg.sender].isRegistered */\n      0x02\n      add\n      0x00\n      swap1\n      sload\n      swap1\n      0x0100\n      exp\n      swap1\n      div\n      0xff\n      and\n        /* \"submissions/doubleqian/day10.sol\":1194:1263  require(userProfiles[msg.sender].isRegistered, \"User not registered\") */\n      tag_91\n      jumpi\n      mload(0x40)\n      0x08c379a000000000000000000000000000000000000000000000000000000000\n      dup2\n      mstore\n      0x04\n      add\n      tag_92\n      swap1\n      tag_55\n      jump\t// in\n    tag_92:\n      mload(0x40)\n      dup1\n      swap2\n      sub\n      swap1\n      revert\n    tag_91:\n        /* \"submissions/doubleqian/day10.sol\":1840:1867  UserProfile storage profile */\n      0x00\n        /* \"submissions/doubleqian/day10.sol\":1869:1881  userProfiles */\n      0x01\n        /* \"submissions/doubleqian/day10.sol\":1869:1893  userProfiles[msg.sender] */\n      0x00\n        /* \"submissions/doubleqian/day10.sol\":1882:1892  msg.sender */\n      caller\n        /* \"submissions/doubleqian/day10.sol\":1869:1893  userProfiles[msg.sender] */\n      0xffffffffffffffffffffffffffffffffffffffff\n      and\n      0xffffffffffffffffffffffffffffffffffffffff\n      and\n      dup2\n      mstore\n      0x20\n      add\n      swap1\n      dup2\n      mstore\n      0x20\n      add\n      0x00\n      keccak256\n        /* \"submissions/doubleqian/day10.sol\":1840:1893  UserProfile storage profile= userProfiles[msg.sender] */\n      swap1\n      pop\n        /* \"submissions/doubleqian/day10.sol\":1985:1992  profile */\n      dup1\n        /* \"submissions/doubleqian/day10.sol\":1985:1999  profile.weight */\n      0x01\n      add\n      sload\n        /* \"submissions/doubleqian/day10.sol\":1972:1982  _newWeight */\n      dup3\n        /* \"submissions/doubleqian/day10.sol\":1972:1999  _newWeight < profile.weight */\n      lt\n        /* \"submissions/doubleqian/day10.sol\":1972:2058  _newWeight < profile.weight && (profile.weight - _newWeight)* 100 / profile.weight >=5 */\n      dup1\n      iszero\n      tag_94\n      jumpi\n      pop\n        /* \"submissions/doubleqian/day10.sol\":2057:2058  5 */\n      0x05\n        /* \"submissions/doubleqian/day10.sol\":2040:2047  profile */\n      dup2\n        /* \"submissions/doubleqian/day10.sol\":2040:2054  profile.weight */\n      0x01\n      add\n      sload\n        /* \"submissions/doubleqian/day10.sol\":2034:2037  100 */\n      0x64\n        /* \"submissions/doubleqian/day10.sol\":2021:2031  _newWeight */\n      dup5\n        /* \"submissions/doubleqian/day10.sol\":2004:2011  profile */\n      dup5\n        /* \"submissions/doubleqian/day10.sol\":2004:2018  profile.weight */\n      0x01\n      add\n      sload\n        /* \"submissions/doubleqian/day10.sol\":2004:2031  profile.weight - _newWeight */\n      tag_95\n      swap2\n      swap1\n      tag_79\n      jump\t// in\n    tag_95:\n        /* \"submissions/doubleqian/day10.sol\":2003:2037  (profile.weight - _newWeight)* 100 */\n      tag_96\n      swap2\n      swap1\n      tag_97\n      jump\t// in\n    tag_96:\n        /* \"submissions/doubleqian/day10.sol\":2003:2054  (profile.weight - _newWeight)* 100 / profile.weight */\n      tag_98\n      swap2\n      swap1\n      tag_99\n      jump\t// in\n    tag_98:\n        /* \"submissions/doubleqian/day10.sol\":2003:2058  (profile.weight - _newWeight)* 100 / profile.weight >=5 */\n      lt\n      iszero\n        /* \"submissions/doubleqian/day10.sol\":1972:2058  _newWeight < profile.weight && (profile.weight - _newWeight)* 100 / profile.weight >=5 */\n    tag_94:\n        /* \"submissions/doubleqian/day10.sol\":1968:2166  if (_newWeight < profile.weight && (profile.weight - _newWeight)* 100 / profile.weight >=5){... */\n      iszero\n      tag_100\n      jumpi\n        /* \"submissions/doubleqian/day10.sol\":2100:2110  msg.sender */\n      caller\n        /* \"submissions/doubleqian/day10.sol\":2082:2151  MilestoneAchieved(msg.sender, \"Weight Goal Reached\", block.timestamp) */\n      0xffffffffffffffffffffffffffffffffffffffff\n      and\n      0x8e330a58901ae7dba0b65f495856eab3fc73fc6ceca3dd7fbd2f4f9d14876e37\n        /* \"submissions/doubleqian/day10.sol\":2135:2150  block.timestamp */\n      timestamp\n        /* \"submissions/doubleqian/day10.sol\":2082:2151  MilestoneAchieved(msg.sender, \"Weight Goal Reached\", block.timestamp) */\n      mload(0x40)\n      tag_101\n      swap2\n      swap1\n      tag_102\n      jump\t// in\n    tag_101:\n      mload(0x40)\n      dup1\n      swap2\n      sub\n      swap1\n      log2\n        /* \"submissions/doubleqian/day10.sol\":1968:2166  if (_newWeight < profile.weight && (profile.weight - _newWeight)* 100 / profile.weight >=5){... */\n    tag_100:\n        /* \"submissions/doubleqian/day10.sol\":2197:2207  _newWeight */\n      dup2\n        /* \"submissions/doubleqian/day10.sol\":2180:2187  profile */\n      dup2\n        /* \"submissions/doubleqian/day10.sol\":2180:2194  profile.weight */\n      0x01\n      add\n        /* \"submissions/doubleqian/day10.sol\":2180:2207  profile.weight = _newWeight */\n      dup2\n      swap1\n      sstore\n      pop\n        /* \"submissions/doubleqian/day10.sol\":2282:2292  msg.sender */\n      caller\n        /* \"submissions/doubleqian/day10.sol\":2267:2322  ProfileUpdated(msg.sender, _newWeight, block.timestamp) */\n      0xffffffffffffffffffffffffffffffffffffffff\n      and\n      0x05826151879c9a557068ba4e389ba7f00512db472cc81778ea86696b2b0f5afd\n        /* \"submissions/doubleqian/day10.sol\":2294:2304  _newWeight */\n      dup4\n        /* \"submissions/doubleqian/day10.sol\":2306:2321  block.timestamp */\n      timestamp\n        /* \"submissions/doubleqian/day10.sol\":2267:2322  ProfileUpdated(msg.sender, _newWeight, block.timestamp) */\n      mload(0x40)\n      tag_103\n      swap3\n      swap2\n      swap1\n      tag_104\n      jump\t// in\n    tag_103:\n      mload(0x40)\n      dup1\n      swap2\n      sub\n      swap1\n      log2\n        /* \"submissions/doubleqian/day10.sol\":1826:2334  {... */\n      pop\n        /* \"submissions/doubleqian/day10.sol\":1763:2334  function updateWeight(uint256 _newWeight) public onlyRegistered{... */\n      pop\n      jump\t// out\n        /* \"#utility.yul\":7:82   */\n    tag_105:\n        /* \"#utility.yul\":40:46   */\n      0x00\n        /* \"#utility.yul\":73:75   */\n      0x40\n        /* \"#utility.yul\":67:76   */\n      mload\n        /* \"#utility.yul\":57:76   */\n      swap1\n      pop\n        /* \"#utility.yul\":7:82   */\n      swap1\n      jump\t// out\n        /* \"#utility.yul\":88:205   */\n    tag_106:\n        /* \"#utility.yul\":197:198   */\n      0x00\n        /* \"#utility.yul\":194:195   */\n      0x00\n        /* \"#utility.yul\":187:199   */\n      revert\n        /* \"#utility.yul\":211:328   */\n    tag_107:\n        /* \"#utility.yul\":320:321   */\n      0x00\n        /* \"#utility.yul\":317:318   */\n      0x00\n        /* \"#utility.yul\":310:322   */\n      revert\n        /* \"#utility.yul\":334:460   */\n    tag_108:\n        /* \"#utility.yul\":371:378   */\n      0x00\n        /* \"#utility.yul\":411:453   */\n      0xffffffffffffffffffffffffffffffffffffffff\n        /* \"#utility.yul\":404:409   */\n      dup3\n        /* \"#utility.yul\":400:454   */\n      and\n        /* \"#utility.yul\":389:454   */\n      swap1\n      pop\n        /* \"#utility.yul\":334:460   */\n      swap2\n      swap1\n      pop\n      jump\t// out\n        /* \"#utility.yul\":466:562   */\n    tag_109:\n        /* \"#utility.yul\":503:510   */\n      0x00\n        /* \"#utility.yul\":532:556   */\n      tag_169\n        /* \"#utility.yul\":550:555   */\n      dup3\n        /* \"#utility.yul\":532:556   */\n      tag_108\n      jump\t// in\n    tag_169:\n        /* \"#utility.yul\":521:556   */\n      swap1\n      pop\n        /* \"#utility.yul\":466:562   */\n      swap2\n      swap1\n      pop\n      jump\t// out\n        /* \"#utility.yul\":568:690   */\n    tag_110:\n        /* \"#utility.yul\":641:665   */\n      tag_171\n        /* \"#utility.yul\":659:664   */\n      dup2\n        /* \"#utility.yul\":641:665   */\n      tag_109\n      jump\t// in\n    tag_171:\n        /* \"#utility.yul\":634:639   */\n      dup2\n        /* \"#utility.yul\":631:666   */\n      eq\n        /* \"#utility.yul\":621:684   */\n      tag_172\n      jumpi\n        /* \"#utility.yul\":680:681   */\n      0x00\n        /* \"#utility.yul\":677:678   */\n      0x00\n        /* \"#utility.yul\":670:682   */\n      revert\n        /* \"#utility.yul\":621:684   */\n    tag_172:\n        /* \"#utility.yul\":568:690   */\n      pop\n      jump\t// out\n        /* \"#utility.yul\":696:835   */\n    tag_111:\n        /* \"#utility.yul\":742:747   */\n      0x00\n        /* \"#utility.yul\":780:786   */\n      dup2\n        /* \"#utility.yul\":767:787   */\n      calldataload\n        /* \"#utility.yul\":758:787   */\n      swap1\n      pop\n        /* \"#utility.yul\":796:829   */\n      tag_174\n        /* \"#utility.yul\":823:828   */\n      dup2\n        /* \"#utility.yul\":796:829   */\n      tag_110\n      jump\t// in\n    tag_174:\n        /* \"#utility.yul\":696:835   */\n      swap3\n      swap2\n      pop\n      pop\n      jump\t// out\n        /* \"#utility.yul\":841:1170   */\n    tag_14:\n        /* \"#utility.yul\":900:906   */\n      0x00\n        /* \"#utility.yul\":949:951   */\n      0x20\n        /* \"#utility.yul\":937:946   */\n      dup3\n        /* \"#utility.yul\":928:935   */\n      dup5\n        /* \"#utility.yul\":924:947   */\n      sub\n        /* \"#utility.yul\":920:952   */\n      slt\n        /* \"#utility.yul\":917:1036   */\n      iszero\n      tag_176\n      jumpi\n        /* \"#utility.yul\":955:1034   */\n      tag_177\n      tag_106\n      jump\t// in\n    tag_177:\n        /* \"#utility.yul\":917:1036   */\n    tag_176:\n        /* \"#utility.yul\":1075:1076   */\n      0x00\n        /* \"#utility.yul\":1100:1153   */\n      tag_178\n        /* \"#utility.yul\":1145:1152   */\n      dup5\n        /* \"#utility.yul\":1136:1142   */\n      dup3\n        /* \"#utility.yul\":1125:1134   */\n      dup6\n        /* \"#utility.yul\":1121:1143   */\n      add\n        /* \"#utility.yul\":1100:1153   */\n      tag_111\n      jump\t// in\n    tag_178:\n        /* \"#utility.yul\":1090:1153   */\n      swap2\n      pop\n        /* \"#utility.yul\":1046:1163   */\n      pop\n        /* \"#utility.yul\":841:1170   */\n      swap3\n      swap2\n      pop\n      pop\n      jump\t// out\n        /* \"#utility.yul\":1176:1253   */\n    tag_112:\n        /* \"#utility.yul\":1213:1220   */\n      0x00\n        /* \"#utility.yul\":1242:1247   */\n      dup2\n        /* \"#utility.yul\":1231:1247   */\n      swap1\n      pop\n        /* \"#utility.yul\":1176:1253   */\n      swap2\n      swap1\n      pop\n      jump\t// out\n        /* \"#utility.yul\":1259:1377   */\n    tag_113:\n        /* \"#utility.yul\":1346:1370   */\n      tag_181\n        /* \"#utility.yul\":1364:1369   */\n      dup2\n        /* \"#utility.yul\":1346:1370   */\n      tag_112\n      jump\t// in\n    tag_181:\n        /* \"#utility.yul\":1341:1344   */\n      dup3\n        /* \"#utility.yul\":1334:1371   */\n      mstore\n        /* \"#utility.yul\":1259:1377   */\n      pop\n      pop\n      jump\t// out\n        /* \"#utility.yul\":1383:1605   */\n    tag_17:\n        /* \"#utility.yul\":1476:1480   */\n      0x00\n        /* \"#utility.yul\":1514:1516   */\n      0x20\n        /* \"#utility.yul\":1503:1512   */\n      dup3\n        /* \"#utility.yul\":1499:1517   */\n      add\n        /* \"#utility.yul\":1491:1517   */\n      swap1\n      pop\n        /* \"#utility.yul\":1527:1598   */\n      tag_183\n        /* \"#utility.yul\":1595:1596   */\n      0x00\n        /* \"#utility.yul\":1584:1593   */\n      dup4\n        /* \"#utility.yul\":1580:1597   */\n      add\n        /* \"#utility.yul\":1571:1577   */\n      dup5\n        /* \"#utility.yul\":1527:1598   */\n      tag_113\n      jump\t// in\n    tag_183:\n        /* \"#utility.yul\":1383:1605   */\n      swap3\n      swap2\n      pop\n      pop\n      jump\t// out\n        /* \"#utility.yul\":1611:1710   */\n    tag_114:\n        /* \"#utility.yul\":1663:1669   */\n      0x00\n        /* \"#utility.yul\":1697:1702   */\n      dup2\n        /* \"#utility.yul\":1691:1703   */\n      mload\n        /* \"#utility.yul\":1681:1703   */\n      swap1\n      pop\n        /* \"#utility.yul\":1611:1710   */\n      swap2\n      swap1\n      pop\n      jump\t// out\n        /* \"#utility.yul\":1716:1885   */\n    tag_115:\n        /* \"#utility.yul\":1800:1811   */\n      0x00\n        /* \"#utility.yul\":1834:1840   */\n      dup3\n        /* \"#utility.yul\":1829:1832   */\n      dup3\n        /* \"#utility.yul\":1822:1841   */\n      mstore\n        /* \"#utility.yul\":1874:1878   */\n      0x20\n        /* \"#utility.yul\":1869:1872   */\n      dup3\n        /* \"#utility.yul\":1865:1879   */\n      add\n        /* \"#utility.yul\":1850:1879   */\n      swap1\n      pop\n        /* \"#utility.yul\":1716:1885   */\n      swap3\n      swap2\n      pop\n      pop\n      jump\t// out\n        /* \"#utility.yul\":1891:2030   */\n    tag_116:\n        /* \"#utility.yul\":1980:1986   */\n      dup3\n        /* \"#utility.yul\":1975:1978   */\n      dup2\n        /* \"#utility.yul\":1970:1973   */\n      dup4\n        /* \"#utility.yul\":1964:1987   */\n      mcopy\n        /* \"#utility.yul\":2021:2022   */\n      0x00\n        /* \"#utility.yul\":2012:2018   */\n      dup4\n        /* \"#utility.yul\":2007:2010   */\n      dup4\n        /* \"#utility.yul\":2003:2019   */\n      add\n        /* \"#utility.yul\":1996:2023   */\n      mstore\n        /* \"#utility.yul\":1891:2030   */\n      pop\n      pop\n      pop\n      jump\t// out\n        /* \"#utility.yul\":2036:2138   */\n    tag_117:\n        /* \"#utility.yul\":2077:2083   */\n      0x00\n        /* \"#utility.yul\":2128:2130   */\n      0x1f\n        /* \"#utility.yul\":2124:2131   */\n      not\n        /* \"#utility.yul\":2119:2121   */\n      0x1f\n        /* \"#utility.yul\":2112:2117   */\n      dup4\n        /* \"#utility.yul\":2108:2122   */\n      add\n        /* \"#utility.yul\":2104:2132   */\n      and\n        /* \"#utility.yul\":2094:2132   */\n      swap1\n      pop\n        /* \"#utility.yul\":2036:2138   */\n      swap2\n      swap1\n      pop\n      jump\t// out\n        /* \"#utility.yul\":2144:2521   */\n    tag_118:\n        /* \"#utility.yul\":2232:2235   */\n      0x00\n        /* \"#utility.yul\":2260:2299   */\n      tag_189\n        /* \"#utility.yul\":2293:2298   */\n      dup3\n        /* \"#utility.yul\":2260:2299   */\n      tag_114\n      jump\t// in\n    tag_189:\n        /* \"#utility.yul\":2315:2386   */\n      tag_190\n        /* \"#utility.yul\":2379:2385   */\n      dup2\n        /* \"#utility.yul\":2374:2377   */\n      dup6\n        /* \"#utility.yul\":2315:2386   */\n      tag_115\n      jump\t// in\n    tag_190:\n        /* \"#utility.yul\":2308:2386   */\n      swap4\n      pop\n        /* \"#utility.yul\":2395:2460   */\n      tag_191\n        /* \"#utility.yul\":2453:2459   */\n      dup2\n        /* \"#utility.yul\":2448:2451   */\n      dup6\n        /* \"#utility.yul\":2441:2445   */\n      0x20\n        /* \"#utility.yul\":2434:2439   */\n      dup7\n        /* \"#utility.yul\":2430:2446   */\n      add\n        /* \"#utility.yul\":2395:2460   */\n      tag_116\n      jump\t// in\n    tag_191:\n        /* \"#utility.yul\":2485:2514   */\n      tag_192\n        /* \"#utility.yul\":2507:2513   */\n      dup2\n        /* \"#utility.yul\":2485:2514   */\n      tag_117\n      jump\t// in\n    tag_192:\n        /* \"#utility.yul\":2480:2483   */\n      dup5\n        /* \"#utility.yul\":2476:2515   */\n      add\n        /* \"#utility.yul\":2469:2515   */\n      swap2\n      pop\n        /* \"#utility.yul\":2236:2521   */\n      pop\n        /* \"#utility.yul\":2144:2521   */\n      swap3\n      swap2\n      pop\n      pop\n      jump\t// out\n        /* \"#utility.yul\":2527:2617   */\n    tag_119:\n        /* \"#utility.yul\":2561:2568   */\n      0x00\n        /* \"#utility.yul\":2604:2609   */\n      dup2\n        /* \"#utility.yul\":2597:2610   */\n      iszero\n        /* \"#utility.yul\":2590:2611   */\n      iszero\n        /* \"#utility.yul\":2579:2611   */\n      swap1\n      pop\n        /* \"#utility.yul\":2527:2617   */\n      swap2\n      swap1\n      pop\n      jump\t// out\n        /* \"#utility.yul\":2623:2732   */\n    tag_120:\n        /* \"#utility.yul\":2704:2725   */\n      tag_195\n        /* \"#utility.yul\":2719:2724   */\n      dup2\n        /* \"#utility.yul\":2704:2725   */\n      tag_119\n      jump\t// in\n    tag_195:\n        /* \"#utility.yul\":2699:2702   */\n      dup3\n        /* \"#utility.yul\":2692:2726   */\n      mstore\n        /* \"#utility.yul\":2623:2732   */\n      pop\n      pop\n      jump\t// out\n        /* \"#utility.yul\":2738:3259   */\n    tag_22:\n        /* \"#utility.yul\":2901:2905   */\n      0x00\n        /* \"#utility.yul\":2939:2941   */\n      0x60\n        /* \"#utility.yul\":2928:2937   */\n      dup3\n        /* \"#utility.yul\":2924:2942   */\n      add\n        /* \"#utility.yul\":2916:2942   */\n      swap1\n      pop\n        /* \"#utility.yul\":2988:2997   */\n      dup2\n        /* \"#utility.yul\":2982:2986   */\n      dup2\n        /* \"#utility.yul\":2978:2998   */\n      sub\n        /* \"#utility.yul\":2974:2975   */\n      0x00\n        /* \"#utility.yul\":2963:2972   */\n      dup4\n        /* \"#utility.yul\":2959:2976   */\n      add\n        /* \"#utility.yul\":2952:2999   */\n      mstore\n        /* \"#utility.yul\":3016:3094   */\n      tag_197\n        /* \"#utility.yul\":3089:3093   */\n      dup2\n        /* \"#utility.yul\":3080:3086   */\n      dup7\n        /* \"#utility.yul\":3016:3094   */\n      tag_118\n      jump\t// in\n    tag_197:\n        /* \"#utility.yul\":3008:3094   */\n      swap1\n      pop\n        /* \"#utility.yul\":3104:3176   */\n      tag_198\n        /* \"#utility.yul\":3172:3174   */\n      0x20\n        /* \"#utility.yul\":3161:3170   */\n      dup4\n        /* \"#utility.yul\":3157:3175   */\n      add\n        /* \"#utility.yul\":3148:3154   */\n      dup6\n        /* \"#utility.yul\":3104:3176   */\n      tag_113\n      jump\t// in\n    tag_198:\n        /* \"#utility.yul\":3186:3252   */\n      tag_199\n        /* \"#utility.yul\":3248:3250   */\n      0x40\n        /* \"#utility.yul\":3237:3246   */\n      dup4\n        /* \"#utility.yul\":3233:3251   */\n      add\n        /* \"#utility.yul\":3224:3230   */\n      dup5\n        /* \"#utility.yul\":3186:3252   */\n      tag_120\n      jump\t// in\n    tag_199:\n        /* \"#utility.yul\":2738:3259   */\n      swap5\n      swap4\n      pop\n      pop\n      pop\n      pop\n      jump\t// out\n        /* \"#utility.yul\":3265:3383   */\n    tag_121:\n        /* \"#utility.yul\":3352:3376   */\n      tag_201\n        /* \"#utility.yul\":3370:3375   */\n      dup2\n        /* \"#utility.yul\":3352:3376   */\n      tag_109\n      jump\t// in\n    tag_201:\n        /* \"#utility.yul\":3347:3350   */\n      dup3\n        /* \"#utility.yul\":3340:3377   */\n      mstore\n        /* \"#utility.yul\":3265:3383   */\n      pop\n      pop\n      jump\t// out\n        /* \"#utility.yul\":3389:3611   */\n    tag_29:\n        /* \"#utility.yul\":3482:3486   */\n      0x00\n        /* \"#utility.yul\":3520:3522   */\n      0x20\n        /* \"#utility.yul\":3509:3518   */\n      dup3\n        /* \"#utility.yul\":3505:3523   */\n      add\n        /* \"#utility.yul\":3497:3523   */\n      swap1\n      pop\n        /* \"#utility.yul\":3533:3604   */\n      tag_203\n        /* \"#utility.yul\":3601:3602   */\n      0x00\n        /* \"#utility.yul\":3590:3599   */\n      dup4\n        /* \"#utility.yul\":3586:3603   */\n      add\n        /* \"#utility.yul\":3577:3583   */\n      dup5\n        /* \"#utility.yul\":3533:3604   */\n      tag_121\n      jump\t// in\n    tag_203:\n        /* \"#utility.yul\":3389:3611   */\n      swap3\n      swap2\n      pop\n      pop\n      jump\t// out\n        /* \"#utility.yul\":3617:3734   */\n    tag_122:\n        /* \"#utility.yul\":3726:3727   */\n      0x00\n        /* \"#utility.yul\":3723:3724   */\n      0x00\n        /* \"#utility.yul\":3716:3728   */\n      revert\n        /* \"#utility.yul\":3740:3857   */\n    tag_123:\n        /* \"#utility.yul\":3849:3850   */\n      0x00\n        /* \"#utility.yul\":3846:3847   */\n      0x00\n        /* \"#utility.yul\":3839:3851   */\n      revert\n        /* \"#utility.yul\":3863:4043   */\n    tag_124:\n        /* \"#utility.yul\":3911:3988   */\n      0x4e487b7100000000000000000000000000000000000000000000000000000000\n        /* \"#utility.yul\":3908:3909   */\n      0x00\n        /* \"#utility.yul\":3901:3989   */\n      mstore\n        /* \"#utility.yul\":4008:4012   */\n      0x41\n        /* \"#utility.yul\":4005:4006   */\n      0x04\n        /* \"#utility.yul\":3998:4013   */\n      mstore\n        /* \"#utility.yul\":4032:4036   */\n      0x24\n        /* \"#utility.yul\":4029:4030   */\n      0x00\n        /* \"#utility.yul\":4022:4037   */\n      revert\n        /* \"#utility.yul\":4049:4330   */\n    tag_125:\n        /* \"#utility.yul\":4132:4159   */\n      tag_208\n        /* \"#utility.yul\":4154:4158   */\n      dup3\n        /* \"#utility.yul\":4132:4159   */\n      tag_117\n      jump\t// in\n    tag_208:\n        /* \"#utility.yul\":4124:4130   */\n      dup2\n        /* \"#utility.yul\":4120:4160   */\n      add\n        /* \"#utility.yul\":4262:4268   */\n      dup2\n        /* \"#utility.yul\":4250:4260   */\n      dup2\n        /* \"#utility.yul\":4247:4269   */\n      lt\n        /* \"#utility.yul\":4226:4244   */\n      0xffffffffffffffff\n        /* \"#utility.yul\":4214:4224   */\n      dup3\n        /* \"#utility.yul\":4211:4245   */\n      gt\n        /* \"#utility.yul\":4208:4270   */\n      or\n        /* \"#utility.yul\":4205:4293   */\n      iszero\n      tag_209\n      jumpi\n        /* \"#utility.yul\":4273:4291   */\n      tag_210\n      tag_124\n      jump\t// in\n    tag_210:\n        /* \"#utility.yul\":4205:4293   */\n    tag_209:\n        /* \"#utility.yul\":4313:4323   */\n      dup1\n        /* \"#utility.yul\":4309:4311   */\n      0x40\n        /* \"#utility.yul\":4302:4324   */\n      mstore\n        /* \"#utility.yul\":4092:4330   */\n      pop\n        /* \"#utility.yul\":4049:4330   */\n      pop\n      pop\n      jump\t// out\n        /* \"#utility.yul\":4336:4465   */\n    tag_126:\n        /* \"#utility.yul\":4370:4376   */\n      0x00\n        /* \"#utility.yul\":4397:4417   */\n      tag_212\n      tag_105\n      jump\t// in\n    tag_212:\n        /* \"#utility.yul\":4387:4417   */\n      swap1\n      pop\n        /* \"#utility.yul\":4426:4459   */\n      tag_213\n        /* \"#utility.yul\":4454:4458   */\n      dup3\n        /* \"#utility.yul\":4446:4452   */\n      dup3\n        /* \"#utility.yul\":4426:4459   */\n      tag_125\n      jump\t// in\n    tag_213:\n        /* \"#utility.yul\":4336:4465   */\n      swap2\n      swap1\n      pop\n      jump\t// out\n        /* \"#utility.yul\":4471:4779   */\n    tag_127:\n        /* \"#utility.yul\":4533:4537   */\n      0x00\n        /* \"#utility.yul\":4623:4641   */\n      0xffffffffffffffff\n        /* \"#utility.yul\":4615:4621   */\n      dup3\n        /* \"#utility.yul\":4612:4642   */\n      gt\n        /* \"#utility.yul\":4609:4665   */\n      iszero\n      tag_215\n      jumpi\n        /* \"#utility.yul\":4645:4663   */\n      tag_216\n      tag_124\n      jump\t// in\n    tag_216:\n        /* \"#utility.yul\":4609:4665   */\n    tag_215:\n        /* \"#utility.yul\":4683:4712   */\n      tag_217\n        /* \"#utility.yul\":4705:4711   */\n      dup3\n        /* \"#utility.yul\":4683:4712   */\n      tag_117\n      jump\t// in\n    tag_217:\n        /* \"#utility.yul\":4675:4712   */\n      swap1\n      pop\n        /* \"#utility.yul\":4767:4771   */\n      0x20\n        /* \"#utility.yul\":4761:4765   */\n      dup2\n        /* \"#utility.yul\":4757:4772   */\n      add\n        /* \"#utility.yul\":4749:4772   */\n      swap1\n      pop\n        /* \"#utility.yul\":4471:4779   */\n      swap2\n      swap1\n      pop\n      jump\t// out\n        /* \"#utility.yul\":4785:4933   */\n    tag_128:\n        /* \"#utility.yul\":4883:4889   */\n      dup3\n        /* \"#utility.yul\":4878:4881   */\n      dup2\n        /* \"#utility.yul\":4873:4876   */\n      dup4\n        /* \"#utility.yul\":4860:4890   */\n      calldatacopy\n        /* \"#utility.yul\":4924:4925   */\n      0x00\n        /* \"#utility.yul\":4915:4921   */\n      dup4\n        /* \"#utility.yul\":4910:4913   */\n      dup4\n        /* \"#utility.yul\":4906:4922   */\n      add\n        /* \"#utility.yul\":4899:4926   */\n      mstore\n        /* \"#utility.yul\":4785:4933   */\n      pop\n      pop\n      pop\n      jump\t// out\n        /* \"#utility.yul\":4939:5364   */\n    tag_129:\n        /* \"#utility.yul\":5017:5022   */\n      0x00\n        /* \"#utility.yul\":5042:5108   */\n      tag_220\n        /* \"#utility.yul\":5058:5107   */\n      tag_221\n        /* \"#utility.yul\":5100:5106   */\n      dup5\n        /* \"#utility.yul\":5058:5107   */\n      tag_127\n      jump\t// in\n    tag_221:\n        /* \"#utility.yul\":5042:5108   */\n      tag_126\n      jump\t// in\n    tag_220:\n        /* \"#utility.yul\":5033:5108   */\n      swap1\n      pop\n        /* \"#utility.yul\":5131:5137   */\n      dup3\n        /* \"#utility.yul\":5124:5129   */\n      dup2\n        /* \"#utility.yul\":5117:5138   */\n      mstore\n        /* \"#utility.yul\":5169:5173   */\n      0x20\n        /* \"#utility.yul\":5162:5167   */\n      dup2\n        /* \"#utility.yul\":5158:5174   */\n      add\n        /* \"#utility.yul\":5207:5210   */\n      dup5\n        /* \"#utility.yul\":5198:5204   */\n      dup5\n        /* \"#utility.yul\":5193:5196   */\n      dup5\n        /* \"#utility.yul\":5189:5205   */\n      add\n        /* \"#utility.yul\":5186:5211   */\n      gt\n        /* \"#utility.yul\":5183:5295   */\n      iszero\n      tag_222\n      jumpi\n        /* \"#utility.yul\":5214:5293   */\n      tag_223\n      tag_123\n      jump\t// in\n    tag_223:\n        /* \"#utility.yul\":5183:5295   */\n    tag_222:\n        /* \"#utility.yul\":5304:5358   */\n      tag_224\n        /* \"#utility.yul\":5351:5357   */\n      dup5\n        /* \"#utility.yul\":5346:5349   */\n      dup3\n        /* \"#utility.yul\":5341:5344   */\n      dup6\n        /* \"#utility.yul\":5304:5358   */\n      tag_128\n      jump\t// in\n    tag_224:\n        /* \"#utility.yul\":5023:5364   */\n      pop\n        /* \"#utility.yul\":4939:5364   */\n      swap4\n      swap3\n      pop\n      pop\n      pop\n      jump\t// out\n        /* \"#utility.yul\":5384:5724   */\n    tag_130:\n        /* \"#utility.yul\":5440:5445   */\n      0x00\n        /* \"#utility.yul\":5489:5492   */\n      dup3\n        /* \"#utility.yul\":5482:5486   */\n      0x1f\n        /* \"#utility.yul\":5474:5480   */\n      dup4\n        /* \"#utility.yul\":5470:5487   */\n      add\n        /* \"#utility.yul\":5466:5493   */\n      slt\n        /* \"#utility.yul\":5456:5578   */\n      tag_226\n      jumpi\n        /* \"#utility.yul\":5497:5576   */\n      tag_227\n      tag_122\n      jump\t// in\n    tag_227:\n        /* \"#utility.yul\":5456:5578   */\n    tag_226:\n        /* \"#utility.yul\":5614:5620   */\n      dup2\n        /* \"#utility.yul\":5601:5621   */\n      calldataload\n        /* \"#utility.yul\":5639:5718   */\n      tag_228\n        /* \"#utility.yul\":5714:5717   */\n      dup5\n        /* \"#utility.yul\":5706:5712   */\n      dup3\n        /* \"#utility.yul\":5699:5703   */\n      0x20\n        /* \"#utility.yul\":5691:5697   */\n      dup7\n        /* \"#utility.yul\":5687:5704   */\n      add\n        /* \"#utility.yul\":5639:5718   */\n      tag_129\n      jump\t// in\n    tag_228:\n        /* \"#utility.yul\":5630:5718   */\n      swap2\n      pop\n        /* \"#utility.yul\":5446:5724   */\n      pop\n        /* \"#utility.yul\":5384:5724   */\n      swap3\n      swap2\n      pop\n      pop\n      jump\t// out\n        /* \"#utility.yul\":5730:5852   */\n    tag_131:\n        /* \"#utility.yul\":5803:5827   */\n      tag_230\n        /* \"#utility.yul\":5821:5826   */\n      dup2\n        /* \"#utility.yul\":5803:5827   */\n      tag_112\n      jump\t// in\n    tag_230:\n        /* \"#utility.yul\":5796:5801   */\n      dup2\n        /* \"#utility.yul\":5793:5828   */\n      eq\n        /* \"#utility.yul\":5783:5846   */\n      tag_231\n      jumpi\n        /* \"#utility.yul\":5842:5843   */\n      0x00\n        /* \"#utility.yul\":5839:5840   */\n      0x00\n        /* \"#utility.yul\":5832:5844   */\n      revert\n        /* \"#utility.yul\":5783:5846   */\n    tag_231:\n        /* \"#utility.yul\":5730:5852   */\n      pop\n      jump\t// out\n        /* \"#utility.yul\":5858:5997   */\n    tag_132:\n        /* \"#utility.yul\":5904:5909   */\n      0x00\n        /* \"#utility.yul\":5942:5948   */\n      dup2\n        /* \"#utility.yul\":5929:5949   */\n      calldataload\n        /* \"#utility.yul\":5920:5949   */\n      swap1\n      pop\n        /* \"#utility.yul\":5958:5991   */\n      tag_233\n        /* \"#utility.yul\":5985:5990   */\n      dup2\n        /* \"#utility.yul\":5958:5991   */\n      tag_131\n      jump\t// in\n    tag_233:\n        /* \"#utility.yul\":5858:5997   */\n      swap3\n      swap2\n      pop\n      pop\n      jump\t// out\n        /* \"#utility.yul\":6003:6802   */\n    tag_36:\n        /* \"#utility.yul\":6090:6096   */\n      0x00\n        /* \"#utility.yul\":6098:6104   */\n      0x00\n        /* \"#utility.yul\":6106:6112   */\n      0x00\n        /* \"#utility.yul\":6155:6157   */\n      0x60\n        /* \"#utility.yul\":6143:6152   */\n      dup5\n        /* \"#utility.yul\":6134:6141   */\n      dup7\n        /* \"#utility.yul\":6130:6153   */\n      sub\n        /* \"#utility.yul\":6126:6158   */\n      slt\n        /* \"#utility.yul\":6123:6242   */\n      iszero\n      tag_235\n      jumpi\n        /* \"#utility.yul\":6161:6240   */\n      tag_236\n      tag_106\n      jump\t// in\n    tag_236:\n        /* \"#utility.yul\":6123:6242   */\n    tag_235:\n        /* \"#utility.yul\":6309:6310   */\n      0x00\n        /* \"#utility.yul\":6298:6307   */\n      dup5\n        /* \"#utility.yul\":6294:6311   */\n      add\n        /* \"#utility.yul\":6281:6312   */\n      calldataload\n        /* \"#utility.yul\":6339:6357   */\n      0xffffffffffffffff\n        /* \"#utility.yul\":6331:6337   */\n      dup2\n        /* \"#utility.yul\":6328:6358   */\n      gt\n        /* \"#utility.yul\":6325:6442   */\n      iszero\n      tag_237\n      jumpi\n        /* \"#utility.yul\":6361:6440   */\n      tag_238\n      tag_107\n      jump\t// in\n    tag_238:\n        /* \"#utility.yul\":6325:6442   */\n    tag_237:\n        /* \"#utility.yul\":6466:6529   */\n      tag_239\n        /* \"#utility.yul\":6521:6528   */\n      dup7\n        /* \"#utility.yul\":6512:6518   */\n      dup3\n        /* \"#utility.yul\":6501:6510   */\n      dup8\n        /* \"#utility.yul\":6497:6519   */\n      add\n        /* \"#utility.yul\":6466:6529   */\n      tag_130\n      jump\t// in\n    tag_239:\n        /* \"#utility.yul\":6456:6529   */\n      swap4\n      pop\n        /* \"#utility.yul\":6252:6539   */\n      pop\n        /* \"#utility.yul\":6578:6580   */\n      0x20\n        /* \"#utility.yul\":6604:6657   */\n      tag_240\n        /* \"#utility.yul\":6649:6656   */\n      dup7\n        /* \"#utility.yul\":6640:6646   */\n      dup3\n        /* \"#utility.yul\":6629:6638   */\n      dup8\n        /* \"#utility.yul\":6625:6647   */\n      add\n        /* \"#utility.yul\":6604:6657   */\n      tag_132\n      jump\t// in\n    tag_240:\n        /* \"#utility.yul\":6594:6657   */\n      swap3\n      pop\n        /* \"#utility.yul\":6549:6667   */\n      pop\n        /* \"#utility.yul\":6706:6708   */\n      0x40\n        /* \"#utility.yul\":6732:6785   */\n      tag_241\n        /* \"#utility.yul\":6777:6784   */\n      dup7\n        /* \"#utility.yul\":6768:6774   */\n      dup3\n        /* \"#utility.yul\":6757:6766   */\n      dup8\n        /* \"#utility.yul\":6753:6775   */\n      add\n        /* \"#utility.yul\":6732:6785   */\n      tag_132\n      jump\t// in\n    tag_241:\n        /* \"#utility.yul\":6722:6785   */\n      swap2\n      pop\n        /* \"#utility.yul\":6677:6795   */\n      pop\n        /* \"#utility.yul\":6003:6802   */\n      swap3\n      pop\n      swap3\n      pop\n      swap3\n      jump\t// out\n        /* \"#utility.yul\":6808:7462   */\n    tag_40:\n        /* \"#utility.yul\":6886:6892   */\n      0x00\n        /* \"#utility.yul\":6894:6900   */\n      0x00\n        /* \"#utility.yul\":6943:6945   */\n      0x40\n        /* \"#utility.yul\":6931:6940   */\n      dup4\n        /* \"#utility.yul\":6922:6929   */\n      dup6\n        /* \"#utility.yul\":6918:6941   */\n      sub\n        /* \"#utility.yul\":6914:6946   */\n      slt\n        /* \"#utility.yul\":6911:7030   */\n      iszero\n      tag_243\n      jumpi\n        /* \"#utility.yul\":6949:7028   */\n      tag_244\n      tag_106\n      jump\t// in\n    tag_244:\n        /* \"#utility.yul\":6911:7030   */\n    tag_243:\n        /* \"#utility.yul\":7097:7098   */\n      0x00\n        /* \"#utility.yul\":7086:7095   */\n      dup4\n        /* \"#utility.yul\":7082:7099   */\n      add\n        /* \"#utility.yul\":7069:7100   */\n      calldataload\n        /* \"#utility.yul\":7127:7145   */\n      0xffffffffffffffff\n        /* \"#utility.yul\":7119:7125   */\n      dup2\n        /* \"#utility.yul\":7116:7146   */\n      gt\n        /* \"#utility.yul\":7113:7230   */\n      iszero\n      tag_245\n      jumpi\n        /* \"#utility.yul\":7149:7228   */\n      tag_246\n      tag_107\n      jump\t// in\n    tag_246:\n        /* \"#utility.yul\":7113:7230   */\n    tag_245:\n        /* \"#utility.yul\":7254:7317   */\n      tag_247\n        /* \"#utility.yul\":7309:7316   */\n      dup6\n        /* \"#utility.yul\":7300:7306   */\n      dup3\n        /* \"#utility.yul\":7289:7298   */\n      dup7\n        /* \"#utility.yul\":7285:7307   */\n      add\n        /* \"#utility.yul\":7254:7317   */\n      tag_130\n      jump\t// in\n    tag_247:\n        /* \"#utility.yul\":7244:7317   */\n      swap3\n      pop\n        /* \"#utility.yul\":7040:7327   */\n      pop\n        /* \"#utility.yul\":7366:7368   */\n      0x20\n        /* \"#utility.yul\":7392:7445   */\n      tag_248\n        /* \"#utility.yul\":7437:7444   */\n      dup6\n        /* \"#utility.yul\":7428:7434   */\n      dup3\n        /* \"#utility.yul\":7417:7426   */\n      dup7\n        /* \"#utility.yul\":7413:7435   */\n      add\n        /* \"#utility.yul\":7392:7445   */\n      tag_132\n      jump\t// in\n    tag_248:\n        /* \"#utility.yul\":7382:7445   */\n      swap2\n      pop\n        /* \"#utility.yul\":7337:7455   */\n      pop\n        /* \"#utility.yul\":6808:7462   */\n      swap3\n      pop\n      swap3\n      swap1\n      pop\n      jump\t// out\n        /* \"#utility.yul\":7468:7797   */\n    tag_44:\n        /* \"#utility.yul\":7527:7533   */\n      0x00\n        /* \"#utility.yul\":7576:7578   */\n      0x20\n        /* \"#utility.yul\":7564:7573   */\n      dup3\n        /* \"#utility.yul\":7555:7562   */\n      dup5\n        /* \"#utility.yul\":7551:7574   */\n      sub\n        /* \"#utility.yul\":7547:7579   */\n      slt\n        /* \"#utility.yul\":7544:7663   */\n      iszero\n      tag_250\n      jumpi\n        /* \"#utility.yul\":7582:7661   */\n      tag_251\n      tag_106\n      jump\t// in\n    tag_251:\n        /* \"#utility.yul\":7544:7663   */\n    tag_250:\n        /* \"#utility.yul\":7702:7703   */\n      0x00\n        /* \"#utility.yul\":7727:7780   */\n      tag_252\n        /* \"#utility.yul\":7772:7779   */\n      dup5\n        /* \"#utility.yul\":7763:7769   */\n      dup3\n        /* \"#utility.yul\":7752:7761   */\n      dup6\n        /* \"#utility.yul\":7748:7770   */\n      add\n        /* \"#utility.yul\":7727:7780   */\n      tag_132\n      jump\t// in\n    tag_252:\n        /* \"#utility.yul\":7717:7780   */\n      swap2\n      pop\n        /* \"#utility.yul\":7673:7790   */\n      pop\n        /* \"#utility.yul\":7468:7797   */\n      swap3\n      swap2\n      pop\n      pop\n      jump\t// out\n        /* \"#utility.yul\":7803:7983   */\n    tag_133:\n        /* \"#utility.yul\":7851:7928   */\n      0x4e487b7100000000000000000000000000000000000000000000000000000000\n        /* \"#utility.yul\":7848:7849   */\n      0x00\n        /* \"#utility.yul\":7841:7929   */\n      mstore\n        /* \"#utility.yul\":7948:7952   */\n      0x22\n        /* \"#utility.yul\":7945:7946   */\n      0x04\n        /* \"#utility.yul\":7938:7953   */\n      mstore\n        /* \"#utility.yul\":7972:7976   */\n      0x24\n        /* \"#utility.yul\":7969:7970   */\n      0x00\n        /* \"#utility.yul\":7962:7977   */\n      revert\n        /* \"#utility.yul\":7989:8309   */\n    tag_47:\n        /* \"#utility.yul\":8033:8039   */\n      0x00\n        /* \"#utility.yul\":8070:8071   */\n      0x02\n        /* \"#utility.yul\":8064:8068   */\n      dup3\n        /* \"#utility.yul\":8060:8072   */\n      div\n        /* \"#utility.yul\":8050:8072   */\n      swap1\n      pop\n        /* \"#utility.yul\":8117:8118   */\n      0x01\n        /* \"#utility.yul\":8111:8115   */\n      dup3\n        /* \"#utility.yul\":8107:8119   */\n      and\n        /* \"#utility.yul\":8138:8156   */\n      dup1\n        /* \"#utility.yul\":8128:8209   */\n      tag_255\n      jumpi\n        /* \"#utility.yul\":8194:8198   */\n      0x7f\n        /* \"#utility.yul\":8186:8192   */\n      dup3\n        /* \"#utility.yul\":8182:8199   */\n      and\n        /* \"#utility.yul\":8172:8199   */\n      swap2\n      pop\n        /* \"#utility.yul\":8128:8209   */\n    tag_255:\n        /* \"#utility.yul\":8256:8258   */\n      0x20\n        /* \"#utility.yul\":8248:8254   */\n      dup3\n        /* \"#utility.yul\":8245:8259   */\n      lt\n        /* \"#utility.yul\":8225:8243   */\n      dup2\n        /* \"#utility.yul\":8222:8260   */\n      sub\n        /* \"#utility.yul\":8219:8303   */\n      tag_256\n      jumpi\n        /* \"#utility.yul\":8275:8293   */\n      tag_257\n      tag_133\n      jump\t// in\n    tag_257:\n        /* \"#utility.yul\":8219:8303   */\n    tag_256:\n        /* \"#utility.yul\":8040:8309   */\n      pop\n        /* \"#utility.yul\":7989:8309   */\n      swap2\n      swap1\n      pop\n      jump\t// out\n        /* \"#utility.yul\":8315:8484   */\n    tag_134:\n        /* \"#utility.yul\":8455:8476   */\n      0x55736572206e6f74207265676973746572656400000000000000000000000000\n        /* \"#utility.yul\":8451:8452   */\n      0x00\n        /* \"#utility.yul\":8443:8449   */\n      dup3\n        /* \"#utility.yul\":8439:8453   */\n      add\n        /* \"#utility.yul\":8432:8477   */\n      mstore\n        /* \"#utility.yul\":8315:8484   */\n      pop\n      jump\t// out\n        /* \"#utility.yul\":8490:8856   */\n    tag_135:\n        /* \"#utility.yul\":8632:8635   */\n      0x00\n        /* \"#utility.yul\":8653:8720   */\n      tag_260\n        /* \"#utility.yul\":8717:8719   */\n      0x13\n        /* \"#utility.yul\":8712:8715   */\n      dup4\n        /* \"#utility.yul\":8653:8720   */\n      tag_115\n      jump\t// in\n    tag_260:\n        /* \"#utility.yul\":8646:8720   */\n      swap2\n      pop\n        /* \"#utility.yul\":8729:8822   */\n      tag_261\n        /* \"#utility.yul\":8818:8821   */\n      dup3\n        /* \"#utility.yul\":8729:8822   */\n      tag_134\n      jump\t// in\n    tag_261:\n        /* \"#utility.yul\":8847:8849   */\n      0x20\n        /* \"#utility.yul\":8842:8845   */\n      dup3\n        /* \"#utility.yul\":8838:8850   */\n      add\n        /* \"#utility.yul\":8831:8850   */\n      swap1\n      pop\n        /* \"#utility.yul\":8490:8856   */\n      swap2\n      swap1\n      pop\n      jump\t// out\n        /* \"#utility.yul\":8862:9281   */\n    tag_55:\n        /* \"#utility.yul\":9028:9032   */\n      0x00\n        /* \"#utility.yul\":9066:9068   */\n      0x20\n        /* \"#utility.yul\":9055:9064   */\n      dup3\n        /* \"#utility.yul\":9051:9069   */\n      add\n        /* \"#utility.yul\":9043:9069   */\n      swap1\n      pop\n        /* \"#utility.yul\":9115:9124   */\n      dup2\n        /* \"#utility.yul\":9109:9113   */\n      dup2\n        /* \"#utility.yul\":9105:9125   */\n      sub\n        /* \"#utility.yul\":9101:9102   */\n      0x00\n        /* \"#utility.yul\":9090:9099   */\n      dup4\n        /* \"#utility.yul\":9086:9103   */\n      add\n        /* \"#utility.yul\":9079:9126   */\n      mstore\n        /* \"#utility.yul\":9143:9274   */\n      tag_263\n        /* \"#utility.yul\":9269:9273   */\n      dup2\n        /* \"#utility.yul\":9143:9274   */\n      tag_135\n      jump\t// in\n    tag_263:\n        /* \"#utility.yul\":9135:9274   */\n      swap1\n      pop\n        /* \"#utility.yul\":8862:9281   */\n      swap2\n      swap1\n      pop\n      jump\t// out\n        /* \"#utility.yul\":9287:9428   */\n    tag_136:\n        /* \"#utility.yul\":9336:9340   */\n      0x00\n        /* \"#utility.yul\":9359:9362   */\n      dup2\n        /* \"#utility.yul\":9351:9362   */\n      swap1\n      pop\n        /* \"#utility.yul\":9382:9385   */\n      dup2\n        /* \"#utility.yul\":9379:9380   */\n      0x00\n        /* \"#utility.yul\":9372:9386   */\n      mstore\n        /* \"#utility.yul\":9416:9420   */\n      0x20\n        /* \"#utility.yul\":9413:9414   */\n      0x00\n        /* \"#utility.yul\":9403:9421   */\n      keccak256\n        /* \"#utility.yul\":9395:9421   */\n      swap1\n      pop\n        /* \"#utility.yul\":9287:9428   */\n      swap2\n      swap1\n      pop\n      jump\t// out\n        /* \"#utility.yul\":9434:9527   */\n    tag_137:\n        /* \"#utility.yul\":9471:9477   */\n      0x00\n        /* \"#utility.yul\":9518:9520   */\n      0x20\n        /* \"#utility.yul\":9513:9515   */\n      0x1f\n        /* \"#utility.yul\":9506:9511   */\n      dup4\n        /* \"#utility.yul\":9502:9516   */\n      add\n        /* \"#utility.yul\":9498:9521   */\n      div\n        /* \"#utility.yul\":9488:9521   */\n      swap1\n      pop\n        /* \"#utility.yul\":9434:9527   */\n      swap2\n      swap1\n      pop\n      jump\t// out\n        /* \"#utility.yul\":9533:9640   */\n    tag_138:\n        /* \"#utility.yul\":9577:9585   */\n      0x00\n        /* \"#utility.yul\":9627:9632   */\n      dup3\n        /* \"#utility.yul\":9621:9625   */\n      dup3\n        /* \"#utility.yul\":9617:9633   */\n      shl\n        /* \"#utility.yul\":9596:9633   */\n      swap1\n      pop\n        /* \"#utility.yul\":9533:9640   */\n      swap3\n      swap2\n      pop\n      pop\n      jump\t// out\n        /* \"#utility.yul\":9646:10039   */\n    tag_139:\n        /* \"#utility.yul\":9715:9721   */\n      0x00\n        /* \"#utility.yul\":9765:9766   */\n      0x08\n        /* \"#utility.yul\":9753:9763   */\n      dup4\n        /* \"#utility.yul\":9749:9767   */\n      mul\n        /* \"#utility.yul\":9788:9885   */\n      tag_268\n        /* \"#utility.yul\":9818:9884   */\n      0xffffffffffffffffffffffffffffffffffffffffffffffffffffffffffffffff\n        /* \"#utility.yul\":9807:9816   */\n      dup3\n        /* \"#utility.yul\":9788:9885   */\n      tag_138\n      jump\t// in\n    tag_268:\n        /* \"#utility.yul\":9906:9945   */\n      tag_269\n        /* \"#utility.yul\":9936:9944   */\n      dup7\n        /* \"#utility.yul\":9925:9934   */\n      dup4\n        /* \"#utility.yul\":9906:9945   */\n      tag_138\n      jump\t// in\n    tag_269:\n        /* \"#utility.yul\":9894:9945   */\n      swap6\n      pop\n        /* \"#utility.yul\":9978:9982   */\n      dup1\n        /* \"#utility.yul\":9974:9983   */\n      not\n        /* \"#utility.yul\":9967:9972   */\n      dup5\n        /* \"#utility.yul\":9963:9984   */\n      and\n        /* \"#utility.yul\":9954:9984   */\n      swap4\n      pop\n        /* \"#utility.yul\":10027:10031   */\n      dup1\n        /* \"#utility.yul\":10017:10025   */\n      dup7\n        /* \"#utility.yul\":10013:10032   */\n      and\n        /* \"#utility.yul\":10006:10011   */\n      dup5\n        /* \"#utility.yul\":10003:10033   */\n      or\n        /* \"#utility.yul\":9993:10033   */\n      swap3\n      pop\n        /* \"#utility.yul\":9722:10039   */\n      pop\n      pop\n        /* \"#utility.yul\":9646:10039   */\n      swap4\n      swap3\n      pop\n      pop\n      pop\n      jump\t// out\n        /* \"#utility.yul\":10045:10105   */\n    tag_140:\n        /* \"#utility.yul\":10073:10076   */\n      0x00\n        /* \"#utility.yul\":10094:10099   */\n      dup2\n        /* \"#utility.yul\":10087:10099   */\n      swap1\n      pop\n        /* \"#utility.yul\":10045:10105   */\n      swap2\n      swap1\n      pop\n      jump\t// out\n        /* \"#utility.yul\":10111:10253   */\n    tag_141:\n        /* \"#utility.yul\":10161:10170   */\n      0x00\n        /* \"#utility.yul\":10194:10247   */\n      tag_272\n        /* \"#utility.yul\":10212:10246   */\n      tag_273\n        /* \"#utility.yul\":10221:10245   */\n      tag_274\n        /* \"#utility.yul\":10239:10244   */\n      dup5\n        /* \"#utility.yul\":10221:10245   */\n      tag_112\n      jump\t// in\n    tag_274:\n        /* \"#utility.yul\":10212:10246   */\n      tag_140\n      jump\t// in\n    tag_273:\n        /* \"#utility.yul\":10194:10247   */\n      tag_112\n      jump\t// in\n    tag_272:\n        /* \"#utility.yul\":10181:10247   */\n      swap1\n      pop\n        /* \"#utility.yul\":10111:10253   */\n      swap2\n      swap1\n      pop\n      jump\t// out\n        /* \"#utility.yul\":10259:10334   */\n    tag_142:\n        /* \"#utility.yul\":10302:10305   */\n      0x00\n        /* \"#utility.yul\":10323:10328   */\n      dup2\n        /* \"#utility.yul\":10316:10328   */\n      swap1\n      pop\n        /* \"#utility.yul\":10259:10334   */\n      swap2\n      swap1\n      pop\n      jump\t// out\n        /* \"#utility.yul\":10340:10609   */\n    tag_143:\n        /* \"#utility.yul\":10450:10489   */\n      tag_277\n        /* \"#utility.yul\":10481:10488   */\n      dup4\n        /* \"#utility.yul\":10450:10489   */\n      tag_141\n      jump\t// in\n    tag_277:\n        /* \"#utility.yul\":10511:10602   */\n      tag_278\n        /* \"#utility.yul\":10560:10601   */\n      tag_279\n        /* \"#utility.yul\":10584:10600   */\n      dup3\n        /* \"#utility.yul\":10560:10601   */\n      tag_142\n      jump\t// in\n    tag_279:\n        /* \"#utility.yul\":10552:10558   */\n      dup5\n        /* \"#utility.yul\":10545:10549   */\n      dup5\n        /* \"#utility.yul\":10539:10550   */\n      sload\n        /* \"#utility.yul\":10511:10602   */\n      tag_139\n      jump\t// in\n    tag_278:\n        /* \"#utility.yul\":10505:10509   */\n      dup3\n        /* \"#utility.yul\":10498:10603   */\n      sstore\n        /* \"#utility.yul\":10416:10609   */\n      pop\n        /* \"#utility.yul\":10340:10609   */\n      pop\n      pop\n      pop\n      jump\t// out\n        /* \"#utility.yul\":10615:10688   */\n    tag_144:\n        /* \"#utility.yul\":10660:10663   */\n      0x00\n        /* \"#utility.yul\":10681:10682   */\n      0x00\n        /* \"#utility.yul\":10674:10682   */\n      swap1\n      pop\n        /* \"#utility.yul\":10615:10688   */\n      swap1\n      jump\t// out\n        /* \"#utility.yul\":10694:10883   */\n    tag_145:\n        /* \"#utility.yul\":10771:10803   */\n      tag_282\n      tag_144\n      jump\t// in\n    tag_282:\n        /* \"#utility.yul\":10812:10877   */\n      tag_283\n        /* \"#utility.yul\":10870:10876   */\n      dup2\n        /* \"#utility.yul\":10862:10868   */\n      dup5\n        /* \"#utility.yul\":10856:10860   */\n      dup5\n        /* \"#utility.yul\":10812:10877   */\n      tag_143\n      jump\t// in\n    tag_283:\n        /* \"#utility.yul\":10747:10883   */\n      pop\n        /* \"#utility.yul\":10694:10883   */\n      pop\n      pop\n      jump\t// out\n        /* \"#utility.yul\":10889:11075   */\n    tag_146:\n        /* \"#utility.yul\":10949:11069   */\n    tag_285:\n        /* \"#utility.yul\":10966:10969   */\n      dup2\n        /* \"#utility.yul\":10959:10964   */\n      dup2\n        /* \"#utility.yul\":10956:10970   */\n      lt\n        /* \"#utility.yul\":10949:11069   */\n      iszero\n      tag_287\n      jumpi\n        /* \"#utility.yul\":11020:11059   */\n      tag_288\n        /* \"#utility.yul\":11057:11058   */\n      0x00\n        /* \"#utility.yul\":11050:11055   */\n      dup3\n        /* \"#utility.yul\":11020:11059   */\n      tag_145\n      jump\t// in\n    tag_288:\n        /* \"#utility.yul\":10993:10994   */\n      0x01\n        /* \"#utility.yul\":10986:10991   */\n      dup2\n        /* \"#utility.yul\":10982:10995   */\n      add\n        /* \"#utility.yul\":10973:10995   */\n      swap1\n      pop\n        /* \"#utility.yul\":10949:11069   */\n      jump(tag_285)\n    tag_287:\n        /* \"#utility.yul\":10889:11075   */\n      pop\n      pop\n      jump\t// out\n        /* \"#utility.yul\":11081:11624   */\n    tag_147:\n        /* \"#utility.yul\":11182:11184   */\n      0x1f\n        /* \"#utility.yul\":11177:11180   */\n      dup3\n        /* \"#utility.yul\":11174:11185   */\n      gt\n        /* \"#utility.yul\":11171:11617   */\n      iszero\n      tag_290\n      jumpi\n        /* \"#utility.yul\":11216:11254   */\n      tag_291\n        /* \"#utility.yul\":11248:11253   */\n      dup2\n        /* \"#utility.yul\":11216:11254   */\n      tag_136\n      jump\t// in\n    tag_291:\n        /* \"#utility.yul\":11300:11329   */\n      tag_292\n        /* \"#utility.yul\":11318:11328   */\n      dup5\n        /* \"#utility.yul\":11300:11329   */\n      tag_137\n      jump\t// in\n    tag_292:\n        /* \"#utility.yul\":11290:11298   */\n      dup2\n        /* \"#utility.yul\":11286:11330   */\n      add\n        /* \"#utility.yul\":11483:11485   */\n      0x20\n        /* \"#utility.yul\":11471:11481   */\n      dup6\n        /* \"#utility.yul\":11468:11486   */\n      lt\n        /* \"#utility.yul\":11465:11514   */\n      iszero\n      tag_293\n      jumpi\n        /* \"#utility.yul\":11504:11512   */\n      dup2\n        /* \"#utility.yul\":11489:11512   */\n      swap1\n      pop\n        /* \"#utility.yul\":11465:11514   */\n    tag_293:\n        /* \"#utility.yul\":11527:11607   */\n      tag_294\n        /* \"#utility.yul\":11583:11605   */\n      tag_295\n        /* \"#utility.yul\":11601:11604   */\n      dup6\n        /* \"#utility.yul\":11583:11605   */\n      tag_137\n      jump\t// in\n    tag_295:\n        /* \"#utility.yul\":11573:11581   */\n      dup4\n        /* \"#utility.yul\":11569:11606   */\n      add\n        /* \"#utility.yul\":11556:11567   */\n      dup3\n        /* \"#utility.yul\":11527:11607   */\n      tag_146\n      jump\t// in\n    tag_294:\n        /* \"#utility.yul\":11186:11617   */\n      pop\n      pop\n        /* \"#utility.yul\":11171:11617   */\n    tag_290:\n        /* \"#utility.yul\":11081:11624   */\n      pop\n      pop\n      pop\n      jump\t// out\n        /* \"#utility.yul\":11630:11747   */\n    tag_148:\n        /* \"#utility.yul\":11684:11692   */\n      0x00\n        /* \"#utility.yul\":11734:11739   */\n      dup3\n        /* \"#utility.yul\":11728:11732   */\n      dup3\n        /* \"#utility.yul\":11724:11740   */\n      shr\n        /* \"#utility.yul\":11703:11740   */\n      swap1\n      pop\n        /* \"#utility.yul\":11630:11747   */\n      swap3\n      swap2\n      pop\n      pop\n      jump\t// out\n        /* \"#utility.yul\":11753:11922   */\n    tag_149:\n        /* \"#utility.yul\":11797:11803   */\n      0x00\n        /* \"#utility.yul\":11830:11881   */\n      tag_298\n        /* \"#utility.yul\":11878:11879   */\n      0x00\n        /* \"#utility.yul\":11874:11880   */\n      not\n        /* \"#utility.yul\":11866:11871   */\n      dup5\n        /* \"#utility.yul\":11863:11864   */\n      0x08\n        /* \"#utility.yul\":11859:11872   */\n      mul\n        /* \"#utility.yul\":11830:11881   */\n      tag_148\n      jump\t// in\n    tag_298:\n        /* \"#utility.yul\":11826:11882   */\n      not\n        /* \"#utility.yul\":11911:11915   */\n      dup1\n        /* \"#utility.yul\":11905:11909   */\n      dup4\n        /* \"#utility.yul\":11901:11916   */\n      and\n        /* \"#utility.yul\":11891:11916   */\n      swap2\n      pop\n        /* \"#utility.yul\":11804:11922   */\n      pop\n        /* \"#utility.yul\":11753:11922   */\n      swap3\n      swap2\n      pop\n      pop\n      jump\t// out\n        /* \"#utility.yul\":11927:12222   */\n    tag_150:\n        /* \"#utility.yul\":12003:12007   */\n      0x00\n        /* \"#utility.yul\":12149:12178   */\n      tag_300\n        /* \"#utility.yul\":12174:12177   */\n      dup4\n        /* \"#utility.yul\":12168:12172   */\n      dup4\n        /* \"#utility.yul\":12149:12178   */\n      tag_149\n      jump\t// in\n    tag_300:\n        /* \"#utility.yul\":12141:12178   */\n      swap2\n      pop\n        /* \"#utility.yul\":12211:12214   */\n      dup3\n        /* \"#utility.yul\":12208:12209   */\n      0x02\n        /* \"#utility.yul\":12204:12215   */\n      mul\n        /* \"#utility.yul\":12198:12202   */\n      dup3\n        /* \"#utility.yul\":12195:12216   */\n      or\n        /* \"#utility.yul\":12187:12216   */\n      swap1\n      pop\n        /* \"#utility.yul\":11927:12222   */\n      swap3\n      swap2\n      pop\n      pop\n      jump\t// out\n        /* \"#utility.yul\":12227:13622   */\n    tag_63:\n        /* \"#utility.yul\":12344:12381   */\n      tag_302\n        /* \"#utility.yul\":12377:12380   */\n      dup3\n        /* \"#utility.yul\":12344:12381   */\n      tag_114\n      jump\t// in\n    tag_302:\n        /* \"#utility.yul\":12446:12464   */\n      0xffffffffffffffff\n        /* \"#utility.yul\":12438:12444   */\n      dup2\n        /* \"#utility.yul\":12435:12465   */\n      gt\n        /* \"#utility.yul\":12432:12488   */\n      iszero\n      tag_303\n      jumpi\n        /* \"#utility.yul\":12468:12486   */\n      tag_304\n      tag_124\n      jump\t// in\n    tag_304:\n        /* \"#utility.yul\":12432:12488   */\n    tag_303:\n        /* \"#utility.yul\":12512:12550   */\n      tag_305\n        /* \"#utility.yul\":12544:12548   */\n      dup3\n        /* \"#utility.yul\":12538:12549   */\n      sload\n        /* \"#utility.yul\":12512:12550   */\n      tag_47\n      jump\t// in\n    tag_305:\n        /* \"#utility.yul\":12597:12664   */\n      tag_306\n        /* \"#utility.yul\":12657:12663   */\n      dup3\n        /* \"#utility.yul\":12649:12655   */\n      dup3\n        /* \"#utility.yul\":12643:12647   */\n      dup6\n        /* \"#utility.yul\":12597:12664   */\n      tag_147\n      jump\t// in\n    tag_306:\n        /* \"#utility.yul\":12691:12692   */\n      0x00\n        /* \"#utility.yul\":12715:12719   */\n      0x20\n        /* \"#utility.yul\":12702:12719   */\n      swap1\n      pop\n        /* \"#utility.yul\":12747:12749   */\n      0x1f\n        /* \"#utility.yul\":12739:12745   */\n      dup4\n        /* \"#utility.yul\":12736:12750   */\n      gt\n        /* \"#utility.yul\":12764:12765   */\n      0x01\n        /* \"#utility.yul\":12759:13377   */\n      dup2\n      eq\n      tag_308\n      jumpi\n        /* \"#utility.yul\":13421:13422   */\n      0x00\n        /* \"#utility.yul\":13438:13444   */\n      dup5\n        /* \"#utility.yul\":13435:13512   */\n      iszero\n      tag_309\n      jumpi\n        /* \"#utility.yul\":13487:13496   */\n      dup3\n        /* \"#utility.yul\":13482:13485   */\n      dup8\n        /* \"#utility.yul\":13478:13497   */\n      add\n        /* \"#utility.yul\":13472:13498   */\n      mload\n        /* \"#utility.yul\":13463:13498   */\n      swap1\n      pop\n        /* \"#utility.yul\":13435:13512   */\n    tag_309:\n        /* \"#utility.yul\":13538:13605   */\n      tag_310\n        /* \"#utility.yul\":13598:13604   */\n      dup6\n        /* \"#utility.yul\":13591:13596   */\n      dup3\n        /* \"#utility.yul\":13538:13605   */\n      tag_150\n      jump\t// in\n    tag_310:\n        /* \"#utility.yul\":13532:13536   */\n      dup7\n        /* \"#utility.yul\":13525:13606   */\n      sstore\n        /* \"#utility.yul\":13394:13616   */\n      pop\n        /* \"#utility.yul\":12729:13616   */\n      jump(tag_307)\n        /* \"#utility.yul\":12759:13377   */\n    tag_308:\n        /* \"#utility.yul\":12811:12815   */\n      0x1f\n        /* \"#utility.yul\":12807:12816   */\n      not\n        /* \"#utility.yul\":12799:12805   */\n      dup5\n        /* \"#utility.yul\":12795:12817   */\n      and\n        /* \"#utility.yul\":12845:12882   */\n      tag_311\n        /* \"#utility.yul\":12877:12881   */\n      dup7\n        /* \"#utility.yul\":12845:12882   */\n      tag_136\n      jump\t// in\n    tag_311:\n        /* \"#utility.yul\":12904:12905   */\n      0x00\n        /* \"#utility.yul\":12918:13126   */\n    tag_312:\n        /* \"#utility.yul\":12932:12939   */\n      dup3\n        /* \"#utility.yul\":12929:12930   */\n      dup2\n        /* \"#utility.yul\":12926:12940   */\n      lt\n        /* \"#utility.yul\":12918:13126   */\n      iszero\n      tag_314\n      jumpi\n        /* \"#utility.yul\":13011:13020   */\n      dup5\n        /* \"#utility.yul\":13006:13009   */\n      dup10\n        /* \"#utility.yul\":13002:13021   */\n      add\n        /* \"#utility.yul\":12996:13022   */\n      mload\n        /* \"#utility.yul\":12988:12994   */\n      dup3\n        /* \"#utility.yul\":12981:13023   */\n      sstore\n        /* \"#utility.yul\":13062:13063   */\n      0x01\n        /* \"#utility.yul\":13054:13060   */\n      dup3\n        /* \"#utility.yul\":13050:13064   */\n      add\n        /* \"#utility.yul\":13040:13064   */\n      swap2\n      pop\n        /* \"#utility.yul\":13109:13111   */\n      0x20\n        /* \"#utility.yul\":13098:13107   */\n      dup6\n        /* \"#utility.yul\":13094:13112   */\n      add\n        /* \"#utility.yul\":13081:13112   */\n      swap5\n      pop\n        /* \"#utility.yul\":12955:12959   */\n      0x20\n        /* \"#utility.yul\":12952:12953   */\n      dup2\n        /* \"#utility.yul\":12948:12960   */\n      add\n        /* \"#utility.yul\":12943:12960   */\n      swap1\n      pop\n        /* \"#utility.yul\":12918:13126   */\n      jump(tag_312)\n    tag_314:\n        /* \"#utility.yul\":13154:13160   */\n      dup7\n        /* \"#utility.yul\":13145:13152   */\n      dup4\n        /* \"#utility.yul\":13142:13161   */\n      lt\n        /* \"#utility.yul\":13139:13318   */\n      iszero\n      tag_315\n      jumpi\n        /* \"#utility.yul\":13212:13221   */\n      dup5\n        /* \"#utility.yul\":13207:13210   */\n      dup10\n        /* \"#utility.yul\":13203:13222   */\n      add\n        /* \"#utility.yul\":13197:13223   */\n      mload\n        /* \"#utility.yul\":13255:13303   */\n      tag_316\n        /* \"#utility.yul\":13297:13301   */\n      0x1f\n        /* \"#utility.yul\":13289:13295   */\n      dup10\n        /* \"#utility.yul\":13285:13302   */\n      and\n        /* \"#utility.yul\":13274:13283   */\n      dup3\n        /* \"#utility.yul\":13255:13303   */\n      tag_149\n      jump\t// in\n    tag_316:\n        /* \"#utility.yul\":13247:13253   */\n      dup4\n        /* \"#utility.yul\":13240:13304   */\n      sstore\n        /* \"#utility.yul\":13162:13318   */\n      pop\n        /* \"#utility.yul\":13139:13318   */\n    tag_315:\n        /* \"#utility.yul\":13364:13365   */\n      0x01\n        /* \"#utility.yul\":13360:13361   */\n      0x02\n        /* \"#utility.yul\":13352:13358   */\n      dup9\n        /* \"#utility.yul\":13348:13362   */\n      mul\n        /* \"#utility.yul\":13344:13366   */\n      add\n        /* \"#utility.yul\":13338:13342   */\n      dup9\n        /* \"#utility.yul\":13331:13367   */\n      sstore\n        /* \"#utility.yul\":12766:13377   */\n      pop\n      pop\n      pop\n        /* \"#utility.yul\":12729:13616   */\n    tag_307:\n      pop\n        /* \"#utility.yul\":12319:13622   */\n      pop\n      pop\n      pop\n        /* \"#utility.yul\":12227:13622   */\n      pop\n      pop\n      jump\t// out\n        /* \"#utility.yul\":13628:13808   */\n    tag_151:\n        /* \"#utility.yul\":13676:13753   */\n      0x4e487b7100000000000000000000000000000000000000000000000000000000\n        /* \"#utility.yul\":13673:13674   */\n      0x00\n        /* \"#utility.yul\":13666:13754   */\n      mstore\n        /* \"#utility.yul\":13773:13777   */\n      0x11\n        /* \"#utility.yul\":13770:13771   */\n      0x04\n        /* \"#utility.yul\":13763:13778   */\n      mstore\n        /* \"#utility.yul\":13797:13801   */\n      0x24\n        /* \"#utility.yul\":13794:13795   */\n      0x00\n        /* \"#utility.yul\":13787:13802   */\n      revert\n        /* \"#utility.yul\":13814:14047   */\n    tag_65:\n        /* \"#utility.yul\":13853:13856   */\n      0x00\n        /* \"#utility.yul\":13876:13900   */\n      tag_319\n        /* \"#utility.yul\":13894:13899   */\n      dup3\n        /* \"#utility.yul\":13876:13900   */\n      tag_112\n      jump\t// in\n    tag_319:\n        /* \"#utility.yul\":13867:13900   */\n      swap2\n      pop\n        /* \"#utility.yul\":13922:13988   */\n      0xffffffffffffffffffffffffffffffffffffffffffffffffffffffffffffffff\n        /* \"#utility.yul\":13915:13920   */\n      dup3\n        /* \"#utility.yul\":13912:13989   */\n      sub\n        /* \"#utility.yul\":13909:14012   */\n      tag_320\n      jumpi\n        /* \"#utility.yul\":13992:14010   */\n      tag_321\n      tag_151\n      jump\t// in\n    tag_321:\n        /* \"#utility.yul\":13909:14012   */\n    tag_320:\n        /* \"#utility.yul\":14039:14040   */\n      0x01\n        /* \"#utility.yul\":14032:14037   */\n      dup3\n        /* \"#utility.yul\":14028:14041   */\n      add\n        /* \"#utility.yul\":14021:14041   */\n      swap1\n      pop\n        /* \"#utility.yul\":13814:14047   */\n      swap2\n      swap1\n      pop\n      jump\t// out\n        /* \"#utility.yul\":14053:14244   */\n    tag_67:\n        /* \"#utility.yul\":14093:14096   */\n      0x00\n        /* \"#utility.yul\":14112:14132   */\n      tag_323\n        /* \"#utility.yul\":14130:14131   */\n      dup3\n        /* \"#utility.yul\":14112:14132   */\n      tag_112\n      jump\t// in\n    tag_323:\n        /* \"#utility.yul\":14107:14132   */\n      swap2\n      pop\n        /* \"#utility.yul\":14146:14166   */\n      tag_324\n        /* \"#utility.yul\":14164:14165   */\n      dup4\n        /* \"#utility.yul\":14146:14166   */\n      tag_112\n      jump\t// in\n    tag_324:\n        /* \"#utility.yul\":14141:14166   */\n      swap3\n      pop\n        /* \"#utility.yul\":14189:14190   */\n      dup3\n        /* \"#utility.yul\":14186:14187   */\n      dup3\n        /* \"#utility.yul\":14182:14191   */\n      add\n        /* \"#utility.yul\":14175:14191   */\n      swap1\n      pop\n        /* \"#utility.yul\":14210:14213   */\n      dup1\n        /* \"#utility.yul\":14207:14208   */\n      dup3\n        /* \"#utility.yul\":14204:14214   */\n      gt\n        /* \"#utility.yul\":14201:14237   */\n      iszero\n      tag_325\n      jumpi\n        /* \"#utility.yul\":14217:14235   */\n      tag_326\n      tag_151\n      jump\t// in\n    tag_326:\n        /* \"#utility.yul\":14201:14237   */\n    tag_325:\n        /* \"#utility.yul\":14053:14244   */\n      swap3\n      swap2\n      pop\n      pop\n      jump\t// out\n        /* \"#utility.yul\":14250:14894   */\n    tag_69:\n        /* \"#utility.yul\":14447:14451   */\n      0x00\n        /* \"#utility.yul\":14485:14488   */\n      0x80\n        /* \"#utility.yul\":14474:14483   */\n      dup3\n        /* \"#utility.yul\":14470:14489   */\n      add\n        /* \"#utility.yul\":14462:14489   */\n      swap1\n      pop\n        /* \"#utility.yul\":14535:14544   */\n      dup2\n        /* \"#utility.yul\":14529:14533   */\n      dup2\n        /* \"#utility.yul\":14525:14545   */\n      sub\n        /* \"#utility.yul\":14521:14522   */\n      0x00\n        /* \"#utility.yul\":14510:14519   */\n      dup4\n        /* \"#utility.yul\":14506:14523   */\n      add\n        /* \"#utility.yul\":14499:14546   */\n      mstore\n        /* \"#utility.yul\":14563:14641   */\n      tag_328\n        /* \"#utility.yul\":14636:14640   */\n      dup2\n        /* \"#utility.yul\":14627:14633   */\n      dup8\n        /* \"#utility.yul\":14563:14641   */\n      tag_118\n      jump\t// in\n    tag_328:\n        /* \"#utility.yul\":14555:14641   */\n      swap1\n      pop\n        /* \"#utility.yul\":14651:14723   */\n      tag_329\n        /* \"#utility.yul\":14719:14721   */\n      0x20\n        /* \"#utility.yul\":14708:14717   */\n      dup4\n        /* \"#utility.yul\":14704:14722   */\n      add\n        /* \"#utility.yul\":14695:14701   */\n      dup7\n        /* \"#utility.yul\":14651:14723   */\n      tag_113\n      jump\t// in\n    tag_329:\n        /* \"#utility.yul\":14733:14805   */\n      tag_330\n        /* \"#utility.yul\":14801:14803   */\n      0x40\n        /* \"#utility.yul\":14790:14799   */\n      dup4\n        /* \"#utility.yul\":14786:14804   */\n      add\n        /* \"#utility.yul\":14777:14783   */\n      dup6\n        /* \"#utility.yul\":14733:14805   */\n      tag_113\n      jump\t// in\n    tag_330:\n        /* \"#utility.yul\":14815:14887   */\n      tag_331\n        /* \"#utility.yul\":14883:14885   */\n      0x60\n        /* \"#utility.yul\":14872:14881   */\n      dup4\n        /* \"#utility.yul\":14868:14886   */\n      add\n        /* \"#utility.yul\":14859:14865   */\n      dup5\n        /* \"#utility.yul\":14815:14887   */\n      tag_113\n      jump\t// in\n    tag_331:\n        /* \"#utility.yul\":14250:14894   */\n      swap6\n      swap5\n      pop\n      pop\n      pop\n      pop\n      pop\n      jump\t// out\n        /* \"#utility.yul\":14900:15071   */\n    tag_152:\n        /* \"#utility.yul\":15040:15063   */\n      0x313020576f726b6f75747320636f6d706c657465640000000000000000000000\n        /* \"#utility.yul\":15036:15037   */\n      0x00\n        /* \"#utility.yul\":15028:15034   */\n      dup3\n        /* \"#utility.yul\":15024:15038   */\n      add\n        /* \"#utility.yul\":15017:15064   */\n      mstore\n        /* \"#utility.yul\":14900:15071   */\n      pop\n      jump\t// out\n        /* \"#utility.yul\":15077:15443   */\n    tag_153:\n        /* \"#utility.yul\":15219:15222   */\n      0x00\n        /* \"#utility.yul\":15240:15307   */\n      tag_334\n        /* \"#utility.yul\":15304:15306   */\n      0x15\n        /* \"#utility.yul\":15299:15302   */\n      dup4\n        /* \"#utility.yul\":15240:15307   */\n      tag_115\n      jump\t// in\n    tag_334:\n        /* \"#utility.yul\":15233:15307   */\n      swap2\n      pop\n        /* \"#utility.yul\":15316:15409   */\n      tag_335\n        /* \"#utility.yul\":15405:15408   */\n      dup3\n        /* \"#utility.yul\":15316:15409   */\n      tag_152\n      jump\t// in\n    tag_335:\n        /* \"#utility.yul\":15434:15436   */\n      0x20\n        /* \"#utility.yul\":15429:15432   */\n      dup3\n        /* \"#utility.yul\":15425:15437   */\n      add\n        /* \"#utility.yul\":15418:15437   */\n      swap1\n      pop\n        /* \"#utility.yul\":15077:15443   */\n      swap2\n      swap1\n      pop\n      jump\t// out\n        /* \"#utility.yul\":15449:15978   */\n    tag_72:\n        /* \"#utility.yul\":15643:15647   */\n      0x00\n        /* \"#utility.yul\":15681:15683   */\n      0x40\n        /* \"#utility.yul\":15670:15679   */\n      dup3\n        /* \"#utility.yul\":15666:15684   */\n      add\n        /* \"#utility.yul\":15658:15684   */\n      swap1\n      pop\n        /* \"#utility.yul\":15730:15739   */\n      dup2\n        /* \"#utility.yul\":15724:15728   */\n      dup2\n        /* \"#utility.yul\":15720:15740   */\n      sub\n        /* \"#utility.yul\":15716:15717   */\n      0x00\n        /* \"#utility.yul\":15705:15714   */\n      dup4\n        /* \"#utility.yul\":15701:15718   */\n      add\n        /* \"#utility.yul\":15694:15741   */\n      mstore\n        /* \"#utility.yul\":15758:15889   */\n      tag_337\n        /* \"#utility.yul\":15884:15888   */\n      dup2\n        /* \"#utility.yul\":15758:15889   */\n      tag_153\n      jump\t// in\n    tag_337:\n        /* \"#utility.yul\":15750:15889   */\n      swap1\n      pop\n        /* \"#utility.yul\":15899:15971   */\n      tag_338\n        /* \"#utility.yul\":15967:15969   */\n      0x20\n        /* \"#utility.yul\":15956:15965   */\n      dup4\n        /* \"#utility.yul\":15952:15970   */\n      add\n        /* \"#utility.yul\":15943:15949   */\n      dup5\n        /* \"#utility.yul\":15899:15971   */\n      tag_113\n      jump\t// in\n    tag_338:\n        /* \"#utility.yul\":15449:15978   */\n      swap3\n      swap2\n      pop\n      pop\n      jump\t// out\n        /* \"#utility.yul\":15984:16155   */\n    tag_154:\n        /* \"#utility.yul\":16124:16147   */\n      0x353020576f726b6f75747320636f6d706c657465640000000000000000000000\n        /* \"#utility.yul\":16120:16121   */\n      0x00\n        /* \"#utility.yul\":16112:16118   */\n      dup3\n        /* \"#utility.yul\":16108:16122   */\n      add\n        /* \"#utility.yul\":16101:16148   */\n      mstore\n        /* \"#utility.yul\":15984:16155   */\n      pop\n      jump\t// out\n        /* \"#utility.yul\":16161:16527   */\n    tag_155:\n        /* \"#utility.yul\":16303:16306   */\n      0x00\n        /* \"#utility.yul\":16324:16391   */\n      tag_341\n        /* \"#utility.yul\":16388:16390   */\n      0x15\n        /* \"#utility.yul\":16383:16386   */\n      dup4\n        /* \"#utility.yul\":16324:16391   */\n      tag_115\n      jump\t// in\n    tag_341:\n        /* \"#utility.yul\":16317:16391   */\n      swap2\n      pop\n        /* \"#utility.yul\":16400:16493   */\n      tag_342\n        /* \"#utility.yul\":16489:16492   */\n      dup3\n        /* \"#utility.yul\":16400:16493   */\n      tag_154\n      jump\t// in\n    tag_342:\n        /* \"#utility.yul\":16518:16520   */\n      0x20\n        /* \"#utility.yul\":16513:16516   */\n      dup3\n        /* \"#utility.yul\":16509:16521   */\n      add\n        /* \"#utility.yul\":16502:16521   */\n      swap1\n      pop\n        /* \"#utility.yul\":16161:16527   */\n      swap2\n      swap1\n      pop\n      jump\t// out\n        /* \"#utility.yul\":16533:17062   */\n    tag_76:\n        /* \"#utility.yul\":16727:16731   */\n      0x00\n        /* \"#utility.yul\":16765:16767   */\n      0x40\n        /* \"#utility.yul\":16754:16763   */\n      dup3\n        /* \"#utility.yul\":16750:16768   */\n      add\n        /* \"#utility.yul\":16742:16768   */\n      swap1\n      pop\n        /* \"#utility.yul\":16814:16823   */\n      dup2\n        /* \"#utility.yul\":16808:16812   */\n      dup2\n        /* \"#utility.yul\":16804:16824   */\n      sub\n        /* \"#utility.yul\":16800:16801   */\n      0x00\n        /* \"#utility.yul\":16789:16798   */\n      dup4\n        /* \"#utility.yul\":16785:16802   */\n      add\n        /* \"#utility.yul\":16778:16825   */\n      mstore\n        /* \"#utility.yul\":16842:16973   */\n      tag_344\n        /* \"#utility.yul\":16968:16972   */\n      dup2\n        /* \"#utility.yul\":16842:16973   */\n      tag_155\n      jump\t// in\n    tag_344:\n        /* \"#utility.yul\":16834:16973   */\n      swap1\n      pop\n        /* \"#utility.yul\":16983:17055   */\n      tag_345\n        /* \"#utility.yul\":17051:17053   */\n      0x20\n        /* \"#utility.yul\":17040:17049   */\n      dup4\n        /* \"#utility.yul\":17036:17054   */\n      add\n        /* \"#utility.yul\":17027:17033   */\n      dup5\n        /* \"#utility.yul\":16983:17055   */\n      tag_113\n      jump\t// in\n    tag_345:\n        /* \"#utility.yul\":16533:17062   */\n      swap3\n      swap2\n      pop\n      pop\n      jump\t// out\n        /* \"#utility.yul\":17068:17262   */\n    tag_79:\n        /* \"#utility.yul\":17108:17112   */\n      0x00\n        /* \"#utility.yul\":17128:17148   */\n      tag_347\n        /* \"#utility.yul\":17146:17147   */\n      dup3\n        /* \"#utility.yul\":17128:17148   */\n      tag_112\n      jump\t// in\n    tag_347:\n        /* \"#utility.yul\":17123:17148   */\n      swap2\n      pop\n        /* \"#utility.yul\":17162:17182   */\n      tag_348\n        /* \"#utility.yul\":17180:17181   */\n      dup4\n        /* \"#utility.yul\":17162:17182   */\n      tag_112\n      jump\t// in\n    tag_348:\n        /* \"#utility.yul\":17157:17182   */\n      swap3\n      pop\n        /* \"#utility.yul\":17206:17207   */\n      dup3\n        /* \"#utility.yul\":17203:17204   */\n      dup3\n        /* \"#utility.yul\":17199:17208   */\n      sub\n        /* \"#utility.yul\":17191:17208   */\n      swap1\n      pop\n        /* \"#utility.yul\":17230:17231   */\n      dup2\n        /* \"#utility.yul\":17224:17228   */\n      dup2\n        /* \"#utility.yul\":17221:17232   */\n      gt\n        /* \"#utility.yul\":17218:17255   */\n      iszero\n      tag_349\n      jumpi\n        /* \"#utility.yul\":17235:17253   */\n      tag_350\n      tag_151\n      jump\t// in\n    tag_350:\n        /* \"#utility.yul\":17218:17255   */\n    tag_349:\n        /* \"#utility.yul\":17068:17262   */\n      swap3\n      swap2\n      pop\n      pop\n      jump\t// out\n        /* \"#utility.yul\":17268:17441   */\n    tag_156:\n        /* \"#utility.yul\":17408:17433   */\n      0x3130306b2044697374616e636520636f6d706c65746564000000000000000000\n        /* \"#utility.yul\":17404:17405   */\n      0x00\n        /* \"#utility.yul\":17396:17402   */\n      dup3\n        /* \"#utility.yul\":17392:17406   */\n      add\n        /* \"#utility.yul\":17385:17434   */\n      mstore\n        /* \"#utility.yul\":17268:17441   */\n      pop\n      jump\t// out\n        /* \"#utility.yul\":17447:17813   */\n    tag_157:\n        /* \"#utility.yul\":17589:17592   */\n      0x00\n        /* \"#utility.yul\":17610:17677   */\n      tag_353\n        /* \"#utility.yul\":17674:17676   */\n      0x17\n        /* \"#utility.yul\":17669:17672   */\n      dup4\n        /* \"#utility.yul\":17610:17677   */\n      tag_115\n      jump\t// in\n    tag_353:\n        /* \"#utility.yul\":17603:17677   */\n      swap2\n      pop\n        /* \"#utility.yul\":17686:17779   */\n      tag_354\n        /* \"#utility.yul\":17775:17778   */\n      dup3\n        /* \"#utility.yul\":17686:17779   */\n      tag_156\n      jump\t// in\n    tag_354:\n        /* \"#utility.yul\":17804:17806   */\n      0x20\n        /* \"#utility.yul\":17799:17802   */\n      dup3\n        /* \"#utility.yul\":17795:17807   */\n      add\n        /* \"#utility.yul\":17788:17807   */\n      swap1\n      pop\n        /* \"#utility.yul\":17447:17813   */\n      swap2\n      swap1\n      pop\n      jump\t// out\n        /* \"#utility.yul\":17819:18348   */\n    tag_82:\n        /* \"#utility.yul\":18013:18017   */\n      0x00\n        /* \"#utility.yul\":18051:18053   */\n      0x40\n        /* \"#utility.yul\":18040:18049   */\n      dup3\n        /* \"#utility.yul\":18036:18054   */\n      add\n        /* \"#utility.yul\":18028:18054   */\n      swap1\n      pop\n        /* \"#utility.yul\":18100:18109   */\n      dup2\n        /* \"#utility.yul\":18094:18098   */\n      dup2\n        /* \"#utility.yul\":18090:18110   */\n      sub\n        /* \"#utility.yul\":18086:18087   */\n      0x00\n        /* \"#utility.yul\":18075:18084   */\n      dup4\n        /* \"#utility.yul\":18071:18088   */\n      add\n        /* \"#utility.yul\":18064:18111   */\n      mstore\n        /* \"#utility.yul\":18128:18259   */\n      tag_356\n        /* \"#utility.yul\":18254:18258   */\n      dup2\n        /* \"#utility.yul\":18128:18259   */\n      tag_157\n      jump\t// in\n    tag_356:\n        /* \"#utility.yul\":18120:18259   */\n      swap1\n      pop\n        /* \"#utility.yul\":18269:18341   */\n      tag_357\n        /* \"#utility.yul\":18337:18339   */\n      0x20\n        /* \"#utility.yul\":18326:18335   */\n      dup4\n        /* \"#utility.yul\":18322:18340   */\n      add\n        /* \"#utility.yul\":18313:18319   */\n      dup5\n        /* \"#utility.yul\":18269:18341   */\n      tag_113\n      jump\t// in\n    tag_357:\n        /* \"#utility.yul\":17819:18348   */\n      swap3\n      swap2\n      pop\n      pop\n      jump\t// out\n        /* \"#utility.yul\":18354:18527   */\n    tag_158:\n        /* \"#utility.yul\":18494:18519   */\n      0x5573657220616c72656164792072656769737465726564000000000000000000\n        /* \"#utility.yul\":18490:18491   */\n      0x00\n        /* \"#utility.yul\":18482:18488   */\n      dup3\n        /* \"#utility.yul\":18478:18492   */\n      add\n        /* \"#utility.yul\":18471:18520   */\n      mstore\n        /* \"#utility.yul\":18354:18527   */\n      pop\n      jump\t// out\n        /* \"#utility.yul\":18533:18899   */\n    tag_159:\n        /* \"#utility.yul\":18675:18678   */\n      0x00\n        /* \"#utility.yul\":18696:18763   */\n      tag_360\n        /* \"#utility.yul\":18760:18762   */\n      0x17\n        /* \"#utility.yul\":18755:18758   */\n      dup4\n        /* \"#utility.yul\":18696:18763   */\n      tag_115\n      jump\t// in\n    tag_360:\n        /* \"#utility.yul\":18689:18763   */\n      swap2\n      pop\n        /* \"#utility.yul\":18772:18865   */\n      tag_361\n        /* \"#utility.yul\":18861:18864   */\n      dup3\n        /* \"#utility.yul\":18772:18865   */\n      tag_158\n      jump\t// in\n    tag_361:\n        /* \"#utility.yul\":18890:18892   */\n      0x20\n        /* \"#utility.yul\":18885:18888   */\n      dup3\n        /* \"#utility.yul\":18881:18893   */\n      add\n        /* \"#utility.yul\":18874:18893   */\n      swap1\n      pop\n        /* \"#utility.yul\":18533:18899   */\n      swap2\n      swap1\n      pop\n      jump\t// out\n        /* \"#utility.yul\":18905:19324   */\n    tag_86:\n        /* \"#utility.yul\":19071:19075   */\n      0x00\n        /* \"#utility.yul\":19109:19111   */\n      0x20\n        /* \"#utility.yul\":19098:19107   */\n      dup3\n        /* \"#utility.yul\":19094:19112   */\n      add\n        /* \"#utility.yul\":19086:19112   */\n      swap1\n      pop\n        /* \"#utility.yul\":19158:19167   */\n      dup2\n        /* \"#utility.yul\":19152:19156   */\n      dup2\n        /* \"#utility.yul\":19148:19168   */\n      sub\n        /* \"#utility.yul\":19144:19145   */\n      0x00\n        /* \"#utility.yul\":19133:19142   */\n      dup4\n        /* \"#utility.yul\":19129:19146   */\n      add\n        /* \"#utility.yul\":19122:19169   */\n      mstore\n        /* \"#utility.yul\":19186:19317   */\n      tag_363\n        /* \"#utility.yul\":19312:19316   */\n      dup2\n        /* \"#utility.yul\":19186:19317   */\n      tag_159\n      jump\t// in\n    tag_363:\n        /* \"#utility.yul\":19178:19317   */\n      swap1\n      pop\n        /* \"#utility.yul\":18905:19324   */\n      swap2\n      swap1\n      pop\n      jump\t// out\n        /* \"#utility.yul\":19330:19753   */\n    tag_89:\n        /* \"#utility.yul\":19471:19475   */\n      0x00\n        /* \"#utility.yul\":19509:19511   */\n      0x40\n        /* \"#utility.yul\":19498:19507   */\n      dup3\n        /* \"#utility.yul\":19494:19512   */\n      add\n        /* \"#utility.yul\":19486:19512   */\n      swap1\n      pop\n        /* \"#utility.yul\":19558:19567   */\n      dup2\n        /* \"#utility.yul\":19552:19556   */\n      dup2\n        /* \"#utility.yul\":19548:19568   */\n      sub\n        /* \"#utility.yul\":19544:19545   */\n      0x00\n        /* \"#utility.yul\":19533:19542   */\n      dup4\n        /* \"#utility.yul\":19529:19546   */\n      add\n        /* \"#utility.yul\":19522:19569   */\n      mstore\n        /* \"#utility.yul\":19586:19664   */\n      tag_365\n        /* \"#utility.yul\":19659:19663   */\n      dup2\n        /* \"#utility.yul\":19650:19656   */\n      dup6\n        /* \"#utility.yul\":19586:19664   */\n      tag_118\n      jump\t// in\n    tag_365:\n        /* \"#utility.yul\":19578:19664   */\n      swap1\n      pop\n        /* \"#utility.yul\":19674:19746   */\n      tag_366\n        /* \"#utility.yul\":19742:19744   */\n      0x20\n        /* \"#utility.yul\":19731:19740   */\n      dup4\n        /* \"#utility.yul\":19727:19745   */\n      add\n        /* \"#utility.yul\":19718:19724   */\n      dup5\n        /* \"#utility.yul\":19674:19746   */\n      tag_113\n      jump\t// in\n    tag_366:\n        /* \"#utility.yul\":19330:19753   */\n      swap4\n      swap3\n      pop\n      pop\n      pop\n      jump\t// out\n        /* \"#utility.yul\":19759:20169   */\n    tag_97:\n        /* \"#utility.yul\":19799:19806   */\n      0x00\n        /* \"#utility.yul\":19822:19842   */\n      tag_368\n        /* \"#utility.yul\":19840:19841   */\n      dup3\n        /* \"#utility.yul\":19822:19842   */\n      tag_112\n      jump\t// in\n    tag_368:\n        /* \"#utility.yul\":19817:19842   */\n      swap2\n      pop\n        /* \"#utility.yul\":19856:19876   */\n      tag_369\n        /* \"#utility.yul\":19874:19875   */\n      dup4\n        /* \"#utility.yul\":19856:19876   */\n      tag_112\n      jump\t// in\n    tag_369:\n        /* \"#utility.yul\":19851:19876   */\n      swap3\n      pop\n        /* \"#utility.yul\":19911:19912   */\n      dup3\n        /* \"#utility.yul\":19908:19909   */\n      dup3\n        /* \"#utility.yul\":19904:19913   */\n      mul\n        /* \"#utility.yul\":19933:19963   */\n      tag_370\n        /* \"#utility.yul\":19951:19962   */\n      dup2\n        /* \"#utility.yul\":19933:19963   */\n      tag_112\n      jump\t// in\n    tag_370:\n        /* \"#utility.yul\":19922:19963   */\n      swap2\n      pop\n        /* \"#utility.yul\":20112:20113   */\n      dup3\n        /* \"#utility.yul\":20103:20110   */\n      dup3\n        /* \"#utility.yul\":20099:20114   */\n      div\n        /* \"#utility.yul\":20096:20097   */\n      dup5\n        /* \"#utility.yul\":20093:20115   */\n      eq\n        /* \"#utility.yul\":20073:20074   */\n      dup4\n        /* \"#utility.yul\":20066:20075   */\n      iszero\n        /* \"#utility.yul\":20046:20129   */\n      or\n        /* \"#utility.yul\":20023:20162   */\n      tag_371\n      jumpi\n        /* \"#utility.yul\":20142:20160   */\n      tag_372\n      tag_151\n      jump\t// in\n    tag_372:\n        /* \"#utility.yul\":20023:20162   */\n    tag_371:\n        /* \"#utility.yul\":19807:20169   */\n      pop\n        /* \"#utility.yul\":19759:20169   */\n      swap3\n      swap2\n      pop\n      pop\n      jump\t// out\n        /* \"#utility.yul\":20175:20355   */\n    tag_160:\n        /* \"#utility.yul\":20223:20300   */\n      0x4e487b7100000000000000000000000000000000000000000000000000000000\n        /* \"#utility.yul\":20220:20221   */\n      0x00\n        /* \"#utility.yul\":20213:20301   */\n      mstore\n        /* \"#utility.yul\":20320:20324   */\n      0x12\n        /* \"#utility.yul\":20317:20318   */\n      0x04\n        /* \"#utility.yul\":20310:20325   */\n      mstore\n        /* \"#utility.yul\":20344:20348   */\n      0x24\n        /* \"#utility.yul\":20341:20342   */\n      0x00\n        /* \"#utility.yul\":20334:20349   */\n      revert\n        /* \"#utility.yul\":20361:20546   */\n    tag_99:\n        /* \"#utility.yul\":20401:20402   */\n      0x00\n        /* \"#utility.yul\":20418:20438   */\n      tag_375\n        /* \"#utility.yul\":20436:20437   */\n      dup3\n        /* \"#utility.yul\":20418:20438   */\n      tag_112\n      jump\t// in\n    tag_375:\n        /* \"#utility.yul\":20413:20438   */\n      swap2\n      pop\n        /* \"#utility.yul\":20452:20472   */\n      tag_376\n        /* \"#utility.yul\":20470:20471   */\n      dup4\n        /* \"#utility.yul\":20452:20472   */\n      tag_112\n      jump\t// in\n    tag_376:\n        /* \"#utility.yul\":20447:20472   */\n      swap3\n      pop\n        /* \"#utility.yul\":20491:20492   */\n      dup3\n        /* \"#utility.yul\":20481:20516   */\n      tag_377\n      jumpi\n        /* \"#utility.yul\":20496:20514   */\n      tag_378\n      tag_160\n      jump\t// in\n    tag_378:\n        /* \"#utility.yul\":20481:20516   */\n    tag_377:\n        /* \"#utility.yul\":20538:20539   */\n      dup3\n        /* \"#utility.yul\":20535:20536   */\n      dup3\n        /* \"#utility.yul\":20531:20540   */\n      div\n        /* \"#utility.yul\":20526:20540   */\n      swap1\n      pop\n        /* \"#utility.yul\":20361:20546   */\n      swap3\n      swap2\n      pop\n      pop\n      jump\t// out\n        /* \"#utility.yul\":20552:20721   */\n    tag_161:\n        /* \"#utility.yul\":20692:20713   */\n      0x57656967687420476f616c205265616368656400000000000000000000000000\n        /* \"#utility.yul\":20688:20689   */\n      0x00\n        /* \"#utility.yul\":20680:20686   */\n      dup3\n        /* \"#utility.yul\":20676:20690   */\n      add\n        /* \"#utility.yul\":20669:20714   */\n      mstore\n        /* \"#utility.yul\":20552:20721   */\n      pop\n      jump\t// out\n        /* \"#utility.yul\":20727:21093   */\n    tag_162:\n        /* \"#utility.yul\":20869:20872   */\n      0x00\n        /* \"#utility.yul\":20890:20957   */\n      tag_381\n        /* \"#utility.yul\":20954:20956   */\n      0x13\n        /* \"#utility.yul\":20949:20952   */\n      dup4\n        /* \"#utility.yul\":20890:20957   */\n      tag_115\n      jump\t// in\n    tag_381:\n        /* \"#utility.yul\":20883:20957   */\n      swap2\n      pop\n        /* \"#utility.yul\":20966:21059   */\n      tag_382\n        /* \"#utility.yul\":21055:21058   */\n      dup3\n        /* \"#utility.yul\":20966:21059   */\n      tag_161\n      jump\t// in\n    tag_382:\n        /* \"#utility.yul\":21084:21086   */\n      0x20\n        /* \"#utility.yul\":21079:21082   */\n      dup3\n        /* \"#utility.yul\":21075:21087   */\n      add\n        /* \"#utility.yul\":21068:21087   */\n      swap1\n      pop\n        /* \"#utility.yul\":20727:21093   */\n      swap2\n      swap1\n      pop\n      jump\t// out\n        /* \"#utility.yul\":21099:21628   */\n    tag_102:\n        /* \"#utility.yul\":21293:21297   */\n      0x00\n        /* \"#utility.yul\":21331:21333   */\n      0x40\n        /* \"#utility.yul\":21320:21329   */\n      dup3\n        /* \"#utility.yul\":21316:21334   */\n      add\n        /* \"#utility.yul\":21308:21334   */\n      swap1\n      pop\n        /* \"#utility.yul\":21380:21389   */\n      dup2\n        /* \"#utility.yul\":21374:21378   */\n      dup2\n        /* \"#utility.yul\":21370:21390   */\n      sub\n        /* \"#utility.yul\":21366:21367   */\n      0x00\n        /* \"#utility.yul\":21355:21364   */\n      dup4\n        /* \"#utility.yul\":21351:21368   */\n      add\n        /* \"#utility.yul\":21344:21391   */\n      mstore\n        /* \"#utility.yul\":21408:21539   */\n      tag_384\n        /* \"#utility.yul\":21534:21538   */\n      dup2\n        /* \"#utility.yul\":21408:21539   */\n      tag_162\n      jump\t// in\n    tag_384:\n        /* \"#utility.yul\":21400:21539   */\n      swap1\n      pop\n        /* \"#utility.yul\":21549:21621   */\n      tag_385\n        /* \"#utility.yul\":21617:21619   */\n      0x20\n        /* \"#utility.yul\":21606:21615   */\n      dup4\n        /* \"#utility.yul\":21602:21620   */\n      add\n        /* \"#utility.yul\":21593:21599   */\n      dup5\n        /* \"#utility.yul\":21549:21621   */\n      tag_113\n      jump\t// in\n    tag_385:\n        /* \"#utility.yul\":21099:21628   */\n      swap3\n      swap2\n      pop\n      pop\n      jump\t// out\n        /* \"#utility.yul\":21634:21966   */\n    tag_104:\n        /* \"#utility.yul\":21755:21759   */\n      0x00\n        /* \"#utility.yul\":21793:21795   */\n      0x40\n        /* \"#utility.yul\":21782:21791   */\n      dup3\n        /* \"#utility.yul\":21778:21796   */\n      add\n        /* \"#utility.yul\":21770:21796   */\n      swap1\n      pop\n        /* \"#utility.yul\":21806:21877   */\n      tag_387\n        /* \"#utility.yul\":21874:21875   */\n      0x00\n        /* \"#utility.yul\":21863:21872   */\n      dup4\n        /* \"#utility.yul\":21859:21876   */\n      add\n        /* \"#utility.yul\":21850:21856   */\n      dup6\n        /* \"#utility.yul\":21806:21877   */\n      tag_113\n      jump\t// in\n    tag_387:\n        /* \"#utility.yul\":21887:21959   */\n      tag_388\n        /* \"#utility.yul\":21955:21957   */\n      0x20\n        /* \"#utility.yul\":21944:21953   */\n      dup4\n        /* \"#utility.yul\":21940:21958   */\n      add\n        /* \"#utility.yul\":21931:21937   */\n      dup5\n        /* \"#utility.yul\":21887:21959   */\n      tag_113\n      jump\t// in\n    tag_388:\n        /* \"#utility.yul\":21634:21966   */\n      swap4\n      swap3\n      pop\n      pop\n      pop\n      jump\t// out\n\n    auxdata: 0xa26469706673582212208b2a240dbc2a673e173f1ce6f0b26870b2d885b19687d2983b3d1e00977d6f8e64736f6c634300081e0033\n}\n",
				"bytecode": {
					"linkReferences": {},
					"object": "6080604052348015600e575f5ffd5b50335f5f6101000a81548173ffffffffffffffffffffffffffffffffffffffff021916908373ffffffffffffffffffffffffffffffffffffffff1602179055506116d98061005b5f395ff3fe608060405234801561000f575f5ffd5b5060043610610086575f3560e01c8063ae5bde4e11610059578063ae5bde4e14610128578063c5af3f8c14610158578063d395100214610174578063ec3df6ad1461019057610086565b806303cdaddd1461008a578063332d56d7146100ba57806336ae55b6146100ec5780638da5cb5b1461010a575b5f5ffd5b6100a4600480360381019061009f9190610b87565b6101ac565b6040516100b19190610bca565b60405180910390f35b6100d460048036038101906100cf9190610b87565b6101c1565b6040516100e393929190610c6d565b60405180910390f35b6100f4610279565b6040516101019190610bca565b60405180910390f35b61011261034c565b60405161011f9190610cb8565b60405180910390f35b610142600480360381019061013d9190610b87565b610370565b60405161014f9190610bca565b60405180910390f35b610172600480360381019061016d9190610e27565b610385565b005b61018e60048036038101906101899190610e93565b6107e5565b005b6101aa60048036038101906101a59190610eed565b610961565b005b6003602052805f5260405f205f915090505481565b6001602052805f5260405f205f91509050805f0180546101e090610f45565b80601f016020809104026020016040519081016040528092919081815260200182805461020c90610f45565b80156102575780601f1061022e57610100808354040283529160200191610257565b820191905f5260205f20905b81548152906001019060200180831161023a57829003601f168201915b505050505090806001015490806002015f9054906101000a900460ff16905083565b5f60015f3373ffffffffffffffffffffffffffffffffffffffff1673ffffffffffffffffffffffffffffffffffffffff1681526020019081526020015f206002015f9054906101000a900460ff16610306576040517f08c379a00000000000000000000000000000000000000000000000000000000081526004016102fd90610fbf565b60405180910390fd5b60025f3373ffffffffffffffffffffffffffffffffffffffff1673ffffffffffffffffffffffffffffffffffffffff1681526020019081526020015f2080549050905090565b5f5f9054906101000a900473ffffffffffffffffffffffffffffffffffffffff1681565b6004602052805f5260405f205f915090505481565b60015f3373ffffffffffffffffffffffffffffffffffffffff1673ffffffffffffffffffffffffffffffffffffffff1681526020019081526020015f206002015f9054906101000a900460ff16610411576040517f08c379a000000000000000000000000000000000000000000000000000000000815260040161040890610fbf565b60405180910390fd5b5f604051806080016040528085815260200184815260200183815260200142815250905060025f3373ffffffffffffffffffffffffffffffffffffffff1673ffffffffffffffffffffffffffffffffffffffff1681526020019081526020015f2081908060018154018082558091505060019003905f5260205f2090600402015f909190919091505f820151815f0190816104ac919061117d565b50602082015181600101556040820151816002015560608201518160030155505060035f3373ffffffffffffffffffffffffffffffffffffffff1673ffffffffffffffffffffffffffffffffffffffff1681526020019081526020015f205f81548092919061051a90611279565b91905055508160045f3373ffffffffffffffffffffffffffffffffffffffff1673ffffffffffffffffffffffffffffffffffffffff1681526020019081526020015f205f82825461056b91906112c0565b925050819055503373ffffffffffffffffffffffffffffffffffffffff167f587a8c232da0d7b15371c5660ff1fdc5fbaf667e6a6b9b6587a378509038fd73858585426040516105be94939291906112f3565b60405180910390a2600a60035f3373ffffffffffffffffffffffffffffffffffffffff1673ffffffffffffffffffffffffffffffffffffffff1681526020019081526020015f20540361065e573373ffffffffffffffffffffffffffffffffffffffff167f8e330a58901ae7dba0b65f495856eab3fc73fc6ceca3dd7fbd2f4f9d14876e37426040516106519190611387565b60405180910390a26106f3565b603260035f3373ffffffffffffffffffffffffffffffffffffffff1673ffffffffffffffffffffffffffffffffffffffff1681526020019081526020015f2054036106f2573373ffffffffffffffffffffffffffffffffffffffff167f8e330a58901ae7dba0b65f495856eab3fc73fc6ceca3dd7fbd2f4f9d14876e37426040516106e991906113fd565b60405180910390a25b5b61271060045f3373ffffffffffffffffffffffffffffffffffffffff1673ffffffffffffffffffffffffffffffffffffffff1681526020019081526020015f20541015801561078b57506127108260045f3373ffffffffffffffffffffffffffffffffffffffff1673ffffffffffffffffffffffffffffffffffffffff1681526020019081526020015f20546107899190611429565b105b156107df573373ffffffffffffffffffffffffffffffffffffffff167f8e330a58901ae7dba0b65f495856eab3fc73fc6ceca3dd7fbd2f4f9d14876e37426040516107d691906114a6565b60405180910390a25b50505050565b60015f3373ffffffffffffffffffffffffffffffffffffffff1673ffffffffffffffffffffffffffffffffffffffff1681526020019081526020015f206002015f9054906101000a900460ff1615610872576040517f08c379a00000000000000000000000000000000000000000000000000000000081526004016108699061151c565b60405180910390fd5b60405180606001604052808381526020018281526020016001151581525060015f3373ffffffffffffffffffffffffffffffffffffffff1673ffffffffffffffffffffffffffffffffffffffff1681526020019081526020015f205f820151815f0190816108e0919061117d565b50602082015181600101556040820151816002015f6101000a81548160ff0219169083151502179055509050503373ffffffffffffffffffffffffffffffffffffffff167f89105a1c6a3c2fbd471255c66a31ccab604af5697f67d7e2e9a0028c5e4dbd91834260405161095592919061153a565b60405180910390a25050565b60015f3373ffffffffffffffffffffffffffffffffffffffff1673ffffffffffffffffffffffffffffffffffffffff1681526020019081526020015f206002015f9054906101000a900460ff166109ed576040517f08c379a00000000000000000000000000000000000000000000000000000000081526004016109e490610fbf565b60405180910390fd5b5f60015f3373ffffffffffffffffffffffffffffffffffffffff1673ffffffffffffffffffffffffffffffffffffffff1681526020019081526020015f209050806001015482108015610a6b5750600581600101546064848460010154610a549190611429565b610a5e9190611568565b610a6891906115d6565b10155b15610abf573373ffffffffffffffffffffffffffffffffffffffff167f8e330a58901ae7dba0b65f495856eab3fc73fc6ceca3dd7fbd2f4f9d14876e3742604051610ab69190611650565b60405180910390a25b8181600101819055503373ffffffffffffffffffffffffffffffffffffffff167f05826151879c9a557068ba4e389ba7f00512db472cc81778ea86696b2b0f5afd8342604051610b1092919061167c565b60405180910390a25050565b5f604051905090565b5f5ffd5b5f5ffd5b5f73ffffffffffffffffffffffffffffffffffffffff82169050919050565b5f610b5682610b2d565b9050919050565b610b6681610b4c565b8114610b70575f5ffd5b50565b5f81359050610b8181610b5d565b92915050565b5f60208284031215610b9c57610b9b610b25565b5b5f610ba984828501610b73565b91505092915050565b5f819050919050565b610bc481610bb2565b82525050565b5f602082019050610bdd5f830184610bbb565b92915050565b5f81519050919050565b5f82825260208201905092915050565b8281835e5f83830152505050565b5f601f19601f8301169050919050565b5f610c2582610be3565b610c2f8185610bed565b9350610c3f818560208601610bfd565b610c4881610c0b565b840191505092915050565b5f8115159050919050565b610c6781610c53565b82525050565b5f6060820190508181035f830152610c858186610c1b565b9050610c946020830185610bbb565b610ca16040830184610c5e565b949350505050565b610cb281610b4c565b82525050565b5f602082019050610ccb5f830184610ca9565b92915050565b5f5ffd5b5f5ffd5b7f4e487b71000000000000000000000000000000000000000000000000000000005f52604160045260245ffd5b610d0f82610c0b565b810181811067ffffffffffffffff82111715610d2e57610d2d610cd9565b5b80604052505050565b5f610d40610b1c565b9050610d4c8282610d06565b919050565b5f67ffffffffffffffff821115610d6b57610d6a610cd9565b5b610d7482610c0b565b9050602081019050919050565b828183375f83830152505050565b5f610da1610d9c84610d51565b610d37565b905082815260208101848484011115610dbd57610dbc610cd5565b5b610dc8848285610d81565b509392505050565b5f82601f830112610de457610de3610cd1565b5b8135610df4848260208601610d8f565b91505092915050565b610e0681610bb2565b8114610e10575f5ffd5b50565b5f81359050610e2181610dfd565b92915050565b5f5f5f60608486031215610e3e57610e3d610b25565b5b5f84013567ffffffffffffffff811115610e5b57610e5a610b29565b5b610e6786828701610dd0565b9350506020610e7886828701610e13565b9250506040610e8986828701610e13565b9150509250925092565b5f5f60408385031215610ea957610ea8610b25565b5b5f83013567ffffffffffffffff811115610ec657610ec5610b29565b5b610ed285828601610dd0565b9250506020610ee385828601610e13565b9150509250929050565b5f60208284031215610f0257610f01610b25565b5b5f610f0f84828501610e13565b91505092915050565b7f4e487b71000000000000000000000000000000000000000000000000000000005f52602260045260245ffd5b5f6002820490506001821680610f5c57607f821691505b602082108103610f6f57610f6e610f18565b5b50919050565b7f55736572206e6f742072656769737465726564000000000000000000000000005f82015250565b5f610fa9601383610bed565b9150610fb482610f75565b602082019050919050565b5f6020820190508181035f830152610fd681610f9d565b9050919050565b5f819050815f5260205f209050919050565b5f6020601f8301049050919050565b5f82821b905092915050565b5f600883026110397fffffffffffffffffffffffffffffffffffffffffffffffffffffffffffffffff82610ffe565b6110438683610ffe565b95508019841693508086168417925050509392505050565b5f819050919050565b5f61107e61107961107484610bb2565b61105b565b610bb2565b9050919050565b5f819050919050565b61109783611064565b6110ab6110a382611085565b84845461100a565b825550505050565b5f5f905090565b6110c26110b3565b6110cd81848461108e565b505050565b5b818110156110f0576110e55f826110ba565b6001810190506110d3565b5050565b601f8211156111355761110681610fdd565b61110f84610fef565b8101602085101561111e578190505b61113261112a85610fef565b8301826110d2565b50505b505050565b5f82821c905092915050565b5f6111555f198460080261113a565b1980831691505092915050565b5f61116d8383611146565b9150826002028217905092915050565b61118682610be3565b67ffffffffffffffff81111561119f5761119e610cd9565b5b6111a98254610f45565b6111b48282856110f4565b5f60209050601f8311600181146111e5575f84156111d3578287015190505b6111dd8582611162565b865550611244565b601f1984166111f386610fdd565b5f5b8281101561121a578489015182556001820191506020850194506020810190506111f5565b868310156112375784890151611233601f891682611146565b8355505b6001600288020188555050505b505050505050565b7f4e487b71000000000000000000000000000000000000000000000000000000005f52601160045260245ffd5b5f61128382610bb2565b91507fffffffffffffffffffffffffffffffffffffffffffffffffffffffffffffffff82036112b5576112b461124c565b5b600182019050919050565b5f6112ca82610bb2565b91506112d583610bb2565b92508282019050808211156112ed576112ec61124c565b5b92915050565b5f6080820190508181035f83015261130b8187610c1b565b905061131a6020830186610bbb565b6113276040830185610bbb565b6113346060830184610bbb565b95945050505050565b7f313020576f726b6f75747320636f6d706c6574656400000000000000000000005f82015250565b5f611371601583610bed565b915061137c8261133d565b602082019050919050565b5f6040820190508181035f83015261139e81611365565b90506113ad6020830184610bbb565b92915050565b7f353020576f726b6f75747320636f6d706c6574656400000000000000000000005f82015250565b5f6113e7601583610bed565b91506113f2826113b3565b602082019050919050565b5f6040820190508181035f830152611414816113db565b90506114236020830184610bbb565b92915050565b5f61143382610bb2565b915061143e83610bb2565b92508282039050818111156114565761145561124c565b5b92915050565b7f3130306b2044697374616e636520636f6d706c657465640000000000000000005f82015250565b5f611490601783610bed565b915061149b8261145c565b602082019050919050565b5f6040820190508181035f8301526114bd81611484565b90506114cc6020830184610bbb565b92915050565b7f5573657220616c726561647920726567697374657265640000000000000000005f82015250565b5f611506601783610bed565b9150611511826114d2565b602082019050919050565b5f6020820190508181035f830152611533816114fa565b9050919050565b5f6040820190508181035f8301526115528185610c1b565b90506115616020830184610bbb565b9392505050565b5f61157282610bb2565b915061157d83610bb2565b925082820261158b81610bb2565b915082820484148315176115a2576115a161124c565b5b5092915050565b7f4e487b71000000000000000000000000000000000000000000000000000000005f52601260045260245ffd5b5f6115e082610bb2565b91506115eb83610bb2565b9250826115fb576115fa6115a9565b5b828204905092915050565b7f57656967687420476f616c2052656163686564000000000000000000000000005f82015250565b5f61163a601383610bed565b915061164582611606565b602082019050919050565b5f6040820190508181035f8301526116678161162e565b90506116766020830184610bbb565b92915050565b5f60408201905061168f5f830185610bbb565b61169c6020830184610bbb565b939250505056fea26469706673582212208b2a240dbc2a673e173f1ce6f0b26870b2d885b19687d2983b3d1e00977d6f8e64736f6c634300081e0033",
					"opcodes": "PUSH1 0x80 PUSH1 0x40 MSTORE CALLVALUE DUP1 ISZERO PUSH1 0xE JUMPI PUSH0 PUSH0 REVERT JUMPDEST POP CALLER PUSH0 PUSH0 PUSH2 0x100 EXP DUP2 SLOAD DUP2 PUSH20 0xFFFFFFFFFFFFFFFFFFFFFFFFFFFFFFFFFFFFFFFF MUL NOT AND SWAP1 DUP4 PUSH20 0xFFFFFFFFFFFFFFFFFFFFFFFFFFFFFFFFFFFFFFFF AND MUL OR SWAP1 SSTORE POP PUSH2 0x16D9 DUP1 PUSH2 0x5B PUSH0 CODECOPY PUSH0 RETURN INVALID PUSH1 0x80 PUSH1 0x40 MSTORE CALLVALUE DUP1 ISZERO PUSH2 0xF JUMPI PUSH0 PUSH0 REVERT JUMPDEST POP PUSH1 0x4 CALLDATASIZE LT PUSH2 0x86 JUMPI PUSH0 CALLDATALOAD PUSH1 0xE0 SHR DUP1 PUSH4 0xAE5BDE4E GT PUSH2 0x59 JUMPI DUP1 PUSH4 0xAE5BDE4E EQ PUSH2 0x128 JUMPI DUP1 PUSH4 0xC5AF3F8C EQ PUSH2 0x158 JUMPI DUP1 PUSH4 0xD3951002 EQ PUSH2 0x174 JUMPI DUP1 PUSH4 0xEC3DF6AD EQ PUSH2 0x190 JUMPI PUSH2 0x86 JUMP JUMPDEST DUP1 PUSH4 0x3CDADDD EQ PUSH2 0x8A JUMPI DUP1 PUSH4 0x332D56D7 EQ PUSH2 0xBA JUMPI DUP1 PUSH4 0x36AE55B6 EQ PUSH2 0xEC JUMPI DUP1 PUSH4 0x8DA5CB5B EQ PUSH2 0x10A JUMPI JUMPDEST PUSH0 PUSH0 REVERT JUMPDEST PUSH2 0xA4 PUSH1 0x4 DUP1 CALLDATASIZE SUB DUP2 ADD SWAP1 PUSH2 0x9F SWAP2 SWAP1 PUSH2 0xB87 JUMP JUMPDEST PUSH2 0x1AC JUMP JUMPDEST PUSH1 0x40 MLOAD PUSH2 0xB1 SWAP2 SWAP1 PUSH2 0xBCA JUMP JUMPDEST PUSH1 0x40 MLOAD DUP1 SWAP2 SUB SWAP1 RETURN JUMPDEST PUSH2 0xD4 PUSH1 0x4 DUP1 CALLDATASIZE SUB DUP2 ADD SWAP1 PUSH2 0xCF SWAP2 SWAP1 PUSH2 0xB87 JUMP JUMPDEST PUSH2 0x1C1 JUMP JUMPDEST PUSH1 0x40 MLOAD PUSH2 0xE3 SWAP4 SWAP3 SWAP2 SWAP1 PUSH2 0xC6D JUMP JUMPDEST PUSH1 0x40 MLOAD DUP1 SWAP2 SUB SWAP1 RETURN JUMPDEST PUSH2 0xF4 PUSH2 0x279 JUMP JUMPDEST PUSH1 0x40 MLOAD PUSH2 0x101 SWAP2 SWAP1 PUSH2 0xBCA JUMP JUMPDEST PUSH1 0x40 MLOAD DUP1 SWAP2 SUB SWAP1 RETURN JUMPDEST PUSH2 0x112 PUSH2 0x34C JUMP JUMPDEST PUSH1 0x40 MLOAD PUSH2 0x11F SWAP2 SWAP1 PUSH2 0xCB8 JUMP JUMPDEST PUSH1 0x40 MLOAD DUP1 SWAP2 SUB SWAP1 RETURN JUMPDEST PUSH2 0x142 PUSH1 0x4 DUP1 CALLDATASIZE SUB DUP2 ADD SWAP1 PUSH2 0x13D SWAP2 SWAP1 PUSH2 0xB87 JUMP JUMPDEST PUSH2 0x370 JUMP JUMPDEST PUSH1 0x40 MLOAD PUSH2 0x14F SWAP2 SWAP1 PUSH2 0xBCA JUMP JUMPDEST PUSH1 0x40 MLOAD DUP1 SWAP2 SUB SWAP1 RETURN JUMPDEST PUSH2 0x172 PUSH1 0x4 DUP1 CALLDATASIZE SUB DUP2 ADD SWAP1 PUSH2 0x16D SWAP2 SWAP1 PUSH2 0xE27 JUMP JUMPDEST PUSH2 0x385 JUMP JUMPDEST STOP JUMPDEST PUSH2 0x18E PUSH1 0x4 DUP1 CALLDATASIZE SUB DUP2 ADD SWAP1 PUSH2 0x189 SWAP2 SWAP1 PUSH2 0xE93 JUMP JUMPDEST PUSH2 0x7E5 JUMP JUMPDEST STOP JUMPDEST PUSH2 0x1AA PUSH1 0x4 DUP1 CALLDATASIZE SUB DUP2 ADD SWAP1 PUSH2 0x1A5 SWAP2 SWAP1 PUSH2 0xEED JUMP JUMPDEST PUSH2 0x961 JUMP JUMPDEST STOP JUMPDEST PUSH1 0x3 PUSH1 0x20 MSTORE DUP1 PUSH0 MSTORE PUSH1 0x40 PUSH0 KECCAK256 PUSH0 SWAP2 POP SWAP1 POP SLOAD DUP2 JUMP JUMPDEST PUSH1 0x1 PUSH1 0x20 MSTORE DUP1 PUSH0 MSTORE PUSH1 0x40 PUSH0 KECCAK256 PUSH0 SWAP2 POP SWAP1 POP DUP1 PUSH0 ADD DUP1 SLOAD PUSH2 0x1E0 SWAP1 PUSH2 0xF45 JUMP JUMPDEST DUP1 PUSH1 0x1F ADD PUSH1 0x20 DUP1 SWAP2 DIV MUL PUSH1 0x20 ADD PUSH1 0x40 MLOAD SWAP1 DUP2 ADD PUSH1 0x40 MSTORE DUP1 SWAP3 SWAP2 SWAP1 DUP2 DUP2 MSTORE PUSH1 0x20 ADD DUP3 DUP1 SLOAD PUSH2 0x20C SWAP1 PUSH2 0xF45 JUMP JUMPDEST DUP1 ISZERO PUSH2 0x257 JUMPI DUP1 PUSH1 0x1F LT PUSH2 0x22E JUMPI PUSH2 0x100 DUP1 DUP4 SLOAD DIV MUL DUP4 MSTORE SWAP2 PUSH1 0x20 ADD SWAP2 PUSH2 0x257 JUMP JUMPDEST DUP3 ADD SWAP2 SWAP1 PUSH0 MSTORE PUSH1 0x20 PUSH0 KECCAK256 SWAP1 JUMPDEST DUP2 SLOAD DUP2 MSTORE SWAP1 PUSH1 0x1 ADD SWAP1 PUSH1 0x20 ADD DUP1 DUP4 GT PUSH2 0x23A JUMPI DUP3 SWAP1 SUB PUSH1 0x1F AND DUP3 ADD SWAP2 JUMPDEST POP POP POP POP POP SWAP1 DUP1 PUSH1 0x1 ADD SLOAD SWAP1 DUP1 PUSH1 0x2 ADD PUSH0 SWAP1 SLOAD SWAP1 PUSH2 0x100 EXP SWAP1 DIV PUSH1 0xFF AND SWAP1 POP DUP4 JUMP JUMPDEST PUSH0 PUSH1 0x1 PUSH0 CALLER PUSH20 0xFFFFFFFFFFFFFFFFFFFFFFFFFFFFFFFFFFFFFFFF AND PUSH20 0xFFFFFFFFFFFFFFFFFFFFFFFFFFFFFFFFFFFFFFFF AND DUP2 MSTORE PUSH1 0x20 ADD SWAP1 DUP2 MSTORE PUSH1 0x20 ADD PUSH0 KECCAK256 PUSH1 0x2 ADD PUSH0 SWAP1 SLOAD SWAP1 PUSH2 0x100 EXP SWAP1 DIV PUSH1 0xFF AND PUSH2 0x306 JUMPI PUSH1 0x40 MLOAD PUSH32 0x8C379A000000000000000000000000000000000000000000000000000000000 DUP2 MSTORE PUSH1 0x4 ADD PUSH2 0x2FD SWAP1 PUSH2 0xFBF JUMP JUMPDEST PUSH1 0x40 MLOAD DUP1 SWAP2 SUB SWAP1 REVERT JUMPDEST PUSH1 0x2 PUSH0 CALLER PUSH20 0xFFFFFFFFFFFFFFFFFFFFFFFFFFFFFFFFFFFFFFFF AND PUSH20 0xFFFFFFFFFFFFFFFFFFFFFFFFFFFFFFFFFFFFFFFF AND DUP2 MSTORE PUSH1 0x20 ADD SWAP1 DUP2 MSTORE PUSH1 0x20 ADD PUSH0 KECCAK256 DUP1 SLOAD SWAP1 POP SWAP1 POP SWAP1 JUMP JUMPDEST PUSH0 PUSH0 SWAP1 SLOAD SWAP1 PUSH2 0x100 EXP SWAP1 DIV PUSH20 0xFFFFFFFFFFFFFFFFFFFFFFFFFFFFFFFFFFFFFFFF AND DUP2 JUMP JUMPDEST PUSH1 0x4 PUSH1 0x20 MSTORE DUP1 PUSH0 MSTORE PUSH1 0x40 PUSH0 KECCAK256 PUSH0 SWAP2 POP SWAP1 POP SLOAD DUP2 JUMP JUMPDEST PUSH1 0x1 PUSH0 CALLER PUSH20 0xFFFFFFFFFFFFFFFFFFFFFFFFFFFFFFFFFFFFFFFF AND PUSH20 0xFFFFFFFFFFFFFFFFFFFFFFFFFFFFFFFFFFFFFFFF AND DUP2 MSTORE PUSH1 0x20 ADD SWAP1 DUP2 MSTORE PUSH1 0x20 ADD PUSH0 KECCAK256 PUSH1 0x2 ADD PUSH0 SWAP1 SLOAD SWAP1 PUSH2 0x100 EXP SWAP1 DIV PUSH1 0xFF AND PUSH2 0x411 JUMPI PUSH1 0x40 MLOAD PUSH32 0x8C379A000000000000000000000000000000000000000000000000000000000 DUP2 MSTORE PUSH1 0x4 ADD PUSH2 0x408 SWAP1 PUSH2 0xFBF JUMP JUMPDEST PUSH1 0x40 MLOAD DUP1 SWAP2 SUB SWAP1 REVERT JUMPDEST PUSH0 PUSH1 0x40 MLOAD DUP1 PUSH1 0x80 ADD PUSH1 0x40 MSTORE DUP1 DUP6 DUP2 MSTORE PUSH1 0x20 ADD DUP5 DUP2 MSTORE PUSH1 0x20 ADD DUP4 DUP2 MSTORE PUSH1 0x20 ADD TIMESTAMP DUP2 MSTORE POP SWAP1 POP PUSH1 0x2 PUSH0 CALLER PUSH20 0xFFFFFFFFFFFFFFFFFFFFFFFFFFFFFFFFFFFFFFFF AND PUSH20 0xFFFFFFFFFFFFFFFFFFFFFFFFFFFFFFFFFFFFFFFF AND DUP2 MSTORE PUSH1 0x20 ADD SWAP1 DUP2 MSTORE PUSH1 0x20 ADD PUSH0 KECCAK256 DUP2 SWAP1 DUP1 PUSH1 0x1 DUP2 SLOAD ADD DUP1 DUP3 SSTORE DUP1 SWAP2 POP POP PUSH1 0x1 SWAP1 SUB SWAP1 PUSH0 MSTORE PUSH1 0x20 PUSH0 KECCAK256 SWAP1 PUSH1 0x4 MUL ADD PUSH0 SWAP1 SWAP2 SWAP1 SWAP2 SWAP1 SWAP2 POP PUSH0 DUP3 ADD MLOAD DUP2 PUSH0 ADD SWAP1 DUP2 PUSH2 0x4AC SWAP2 SWAP1 PUSH2 0x117D JUMP JUMPDEST POP PUSH1 0x20 DUP3 ADD MLOAD DUP2 PUSH1 0x1 ADD SSTORE PUSH1 0x40 DUP3 ADD MLOAD DUP2 PUSH1 0x2 ADD SSTORE PUSH1 0x60 DUP3 ADD MLOAD DUP2 PUSH1 0x3 ADD SSTORE POP POP PUSH1 0x3 PUSH0 CALLER PUSH20 0xFFFFFFFFFFFFFFFFFFFFFFFFFFFFFFFFFFFFFFFF AND PUSH20 0xFFFFFFFFFFFFFFFFFFFFFFFFFFFFFFFFFFFFFFFF AND DUP2 MSTORE PUSH1 0x20 ADD SWAP1 DUP2 MSTORE PUSH1 0x20 ADD PUSH0 KECCAK256 PUSH0 DUP2 SLOAD DUP1 SWAP3 SWAP2 SWAP1 PUSH2 0x51A SWAP1 PUSH2 0x1279 JUMP JUMPDEST SWAP2 SWAP1 POP SSTORE POP DUP2 PUSH1 0x4 PUSH0 CALLER PUSH20 0xFFFFFFFFFFFFFFFFFFFFFFFFFFFFFFFFFFFFFFFF AND PUSH20 0xFFFFFFFFFFFFFFFFFFFFFFFFFFFFFFFFFFFFFFFF AND DUP2 MSTORE PUSH1 0x20 ADD SWAP1 DUP2 MSTORE PUSH1 0x20 ADD PUSH0 KECCAK256 PUSH0 DUP3 DUP3 SLOAD PUSH2 0x56B SWAP2 SWAP1 PUSH2 0x12C0 JUMP JUMPDEST SWAP3 POP POP DUP2 SWAP1 SSTORE POP CALLER PUSH20 0xFFFFFFFFFFFFFFFFFFFFFFFFFFFFFFFFFFFFFFFF AND PUSH32 0x587A8C232DA0D7B15371C5660FF1FDC5FBAF667E6A6B9B6587A378509038FD73 DUP6 DUP6 DUP6 TIMESTAMP PUSH1 0x40 MLOAD PUSH2 0x5BE SWAP5 SWAP4 SWAP3 SWAP2 SWAP1 PUSH2 0x12F3 JUMP JUMPDEST PUSH1 0x40 MLOAD DUP1 SWAP2 SUB SWAP1 LOG2 PUSH1 0xA PUSH1 0x3 PUSH0 CALLER PUSH20 0xFFFFFFFFFFFFFFFFFFFFFFFFFFFFFFFFFFFFFFFF AND PUSH20 0xFFFFFFFFFFFFFFFFFFFFFFFFFFFFFFFFFFFFFFFF AND DUP2 MSTORE PUSH1 0x20 ADD SWAP1 DUP2 MSTORE PUSH1 0x20 ADD PUSH0 KECCAK256 SLOAD SUB PUSH2 0x65E JUMPI CALLER PUSH20 0xFFFFFFFFFFFFFFFFFFFFFFFFFFFFFFFFFFFFFFFF AND PUSH32 0x8E330A58901AE7DBA0B65F495856EAB3FC73FC6CECA3DD7FBD2F4F9D14876E37 TIMESTAMP PUSH1 0x40 MLOAD PUSH2 0x651 SWAP2 SWAP1 PUSH2 0x1387 JUMP JUMPDEST PUSH1 0x40 MLOAD DUP1 SWAP2 SUB SWAP1 LOG2 PUSH2 0x6F3 JUMP JUMPDEST PUSH1 0x32 PUSH1 0x3 PUSH0 CALLER PUSH20 0xFFFFFFFFFFFFFFFFFFFFFFFFFFFFFFFFFFFFFFFF AND PUSH20 0xFFFFFFFFFFFFFFFFFFFFFFFFFFFFFFFFFFFFFFFF AND DUP2 MSTORE PUSH1 0x20 ADD SWAP1 DUP2 MSTORE PUSH1 0x20 ADD PUSH0 KECCAK256 SLOAD SUB PUSH2 0x6F2 JUMPI CALLER PUSH20 0xFFFFFFFFFFFFFFFFFFFFFFFFFFFFFFFFFFFFFFFF AND PUSH32 0x8E330A58901AE7DBA0B65F495856EAB3FC73FC6CECA3DD7FBD2F4F9D14876E37 TIMESTAMP PUSH1 0x40 MLOAD PUSH2 0x6E9 SWAP2 SWAP1 PUSH2 0x13FD JUMP JUMPDEST PUSH1 0x40 MLOAD DUP1 SWAP2 SUB SWAP1 LOG2 JUMPDEST JUMPDEST PUSH2 0x2710 PUSH1 0x4 PUSH0 CALLER PUSH20 0xFFFFFFFFFFFFFFFFFFFFFFFFFFFFFFFFFFFFFFFF AND PUSH20 0xFFFFFFFFFFFFFFFFFFFFFFFFFFFFFFFFFFFFFFFF AND DUP2 MSTORE PUSH1 0x20 ADD SWAP1 DUP2 MSTORE PUSH1 0x20 ADD PUSH0 KECCAK256 SLOAD LT ISZERO DUP1 ISZERO PUSH2 0x78B JUMPI POP PUSH2 0x2710 DUP3 PUSH1 0x4 PUSH0 CALLER PUSH20 0xFFFFFFFFFFFFFFFFFFFFFFFFFFFFFFFFFFFFFFFF AND PUSH20 0xFFFFFFFFFFFFFFFFFFFFFFFFFFFFFFFFFFFFFFFF AND DUP2 MSTORE PUSH1 0x20 ADD SWAP1 DUP2 MSTORE PUSH1 0x20 ADD PUSH0 KECCAK256 SLOAD PUSH2 0x789 SWAP2 SWAP1 PUSH2 0x1429 JUMP JUMPDEST LT JUMPDEST ISZERO PUSH2 0x7DF JUMPI CALLER PUSH20 0xFFFFFFFFFFFFFFFFFFFFFFFFFFFFFFFFFFFFFFFF AND PUSH32 0x8E330A58901AE7DBA0B65F495856EAB3FC73FC6CECA3DD7FBD2F4F9D14876E37 TIMESTAMP PUSH1 0x40 MLOAD PUSH2 0x7D6 SWAP2 SWAP1 PUSH2 0x14A6 JUMP JUMPDEST PUSH1 0x40 MLOAD DUP1 SWAP2 SUB SWAP1 LOG2 JUMPDEST POP POP POP POP JUMP JUMPDEST PUSH1 0x1 PUSH0 CALLER PUSH20 0xFFFFFFFFFFFFFFFFFFFFFFFFFFFFFFFFFFFFFFFF AND PUSH20 0xFFFFFFFFFFFFFFFFFFFFFFFFFFFFFFFFFFFFFFFF AND DUP2 MSTORE PUSH1 0x20 ADD SWAP1 DUP2 MSTORE PUSH1 0x20 ADD PUSH0 KECCAK256 PUSH1 0x2 ADD PUSH0 SWAP1 SLOAD SWAP1 PUSH2 0x100 EXP SWAP1 DIV PUSH1 0xFF AND ISZERO PUSH2 0x872 JUMPI PUSH1 0x40 MLOAD PUSH32 0x8C379A000000000000000000000000000000000000000000000000000000000 DUP2 MSTORE PUSH1 0x4 ADD PUSH2 0x869 SWAP1 PUSH2 0x151C JUMP JUMPDEST PUSH1 0x40 MLOAD DUP1 SWAP2 SUB SWAP1 REVERT JUMPDEST PUSH1 0x40 MLOAD DUP1 PUSH1 0x60 ADD PUSH1 0x40 MSTORE DUP1 DUP4 DUP2 MSTORE PUSH1 0x20 ADD DUP3 DUP2 MSTORE PUSH1 0x20 ADD PUSH1 0x1 ISZERO ISZERO DUP2 MSTORE POP PUSH1 0x1 PUSH0 CALLER PUSH20 0xFFFFFFFFFFFFFFFFFFFFFFFFFFFFFFFFFFFFFFFF AND PUSH20 0xFFFFFFFFFFFFFFFFFFFFFFFFFFFFFFFFFFFFFFFF AND DUP2 MSTORE PUSH1 0x20 ADD SWAP1 DUP2 MSTORE PUSH1 0x20 ADD PUSH0 KECCAK256 PUSH0 DUP3 ADD MLOAD DUP2 PUSH0 ADD SWAP1 DUP2 PUSH2 0x8E0 SWAP2 SWAP1 PUSH2 0x117D JUMP JUMPDEST POP PUSH1 0x20 DUP3 ADD MLOAD DUP2 PUSH1 0x1 ADD SSTORE PUSH1 0x40 DUP3 ADD MLOAD DUP2 PUSH1 0x2 ADD PUSH0 PUSH2 0x100 EXP DUP2 SLOAD DUP2 PUSH1 0xFF MUL NOT AND SWAP1 DUP4 ISZERO ISZERO MUL OR SWAP1 SSTORE POP SWAP1 POP POP CALLER PUSH20 0xFFFFFFFFFFFFFFFFFFFFFFFFFFFFFFFFFFFFFFFF AND PUSH32 0x89105A1C6A3C2FBD471255C66A31CCAB604AF5697F67D7E2E9A0028C5E4DBD91 DUP4 TIMESTAMP PUSH1 0x40 MLOAD PUSH2 0x955 SWAP3 SWAP2 SWAP1 PUSH2 0x153A JUMP JUMPDEST PUSH1 0x40 MLOAD DUP1 SWAP2 SUB SWAP1 LOG2 POP POP JUMP JUMPDEST PUSH1 0x1 PUSH0 CALLER PUSH20 0xFFFFFFFFFFFFFFFFFFFFFFFFFFFFFFFFFFFFFFFF AND PUSH20 0xFFFFFFFFFFFFFFFFFFFFFFFFFFFFFFFFFFFFFFFF AND DUP2 MSTORE PUSH1 0x20 ADD SWAP1 DUP2 MSTORE PUSH1 0x20 ADD PUSH0 KECCAK256 PUSH1 0x2 ADD PUSH0 SWAP1 SLOAD SWAP1 PUSH2 0x100 EXP SWAP1 DIV PUSH1 0xFF AND PUSH2 0x9ED JUMPI PUSH1 0x40 MLOAD PUSH32 0x8C379A000000000000000000000000000000000000000000000000000000000 DUP2 MSTORE PUSH1 0x4 ADD PUSH2 0x9E4 SWAP1 PUSH2 0xFBF JUMP JUMPDEST PUSH1 0x40 MLOAD DUP1 SWAP2 SUB SWAP1 REVERT JUMPDEST PUSH0 PUSH1 0x1 PUSH0 CALLER PUSH20 0xFFFFFFFFFFFFFFFFFFFFFFFFFFFFFFFFFFFFFFFF AND PUSH20 0xFFFFFFFFFFFFFFFFFFFFFFFFFFFFFFFFFFFFFFFF AND DUP2 MSTORE PUSH1 0x20 ADD SWAP1 DUP2 MSTORE PUSH1 0x20 ADD PUSH0 KECCAK256 SWAP1 POP DUP1 PUSH1 0x1 ADD SLOAD DUP3 LT DUP1 ISZERO PUSH2 0xA6B JUMPI POP PUSH1 0x5 DUP2 PUSH1 0x1 ADD SLOAD PUSH1 0x64 DUP5 DUP5 PUSH1 0x1 ADD SLOAD PUSH2 0xA54 SWAP2 SWAP1 PUSH2 0x1429 JUMP JUMPDEST PUSH2 0xA5E SWAP2 SWAP1 PUSH2 0x1568 JUMP JUMPDEST PUSH2 0xA68 SWAP2 SWAP1 PUSH2 0x15D6 JUMP JUMPDEST LT ISZERO JUMPDEST ISZERO PUSH2 0xABF JUMPI CALLER PUSH20 0xFFFFFFFFFFFFFFFFFFFFFFFFFFFFFFFFFFFFFFFF AND PUSH32 0x8E330A58901AE7DBA0B65F495856EAB3FC73FC6CECA3DD7FBD2F4F9D14876E37 TIMESTAMP PUSH1 0x40 MLOAD PUSH2 0xAB6 SWAP2 SWAP1 PUSH2 0x1650 JUMP JUMPDEST PUSH1 0x40 MLOAD DUP1 SWAP2 SUB SWAP1 LOG2 JUMPDEST DUP2 DUP2 PUSH1 0x1 ADD DUP2 SWAP1 SSTORE POP CALLER PUSH20 0xFFFFFFFFFFFFFFFFFFFFFFFFFFFFFFFFFFFFFFFF AND PUSH32 0x5826151879C9A557068BA4E389BA7F00512DB472CC81778EA86696B2B0F5AFD DUP4 TIMESTAMP PUSH1 0x40 MLOAD PUSH2 0xB10 SWAP3 SWAP2 SWAP1 PUSH2 0x167C JUMP JUMPDEST PUSH1 0x40 MLOAD DUP1 SWAP2 SUB SWAP1 LOG2 POP POP JUMP JUMPDEST PUSH0 PUSH1 0x40 MLOAD SWAP1 POP SWAP1 JUMP JUMPDEST PUSH0 PUSH0 REVERT JUMPDEST PUSH0 PUSH0 REVERT JUMPDEST PUSH0 PUSH20 0xFFFFFFFFFFFFFFFFFFFFFFFFFFFFFFFFFFFFFFFF DUP3 AND SWAP1 POP SWAP2 SWAP1 POP JUMP JUMPDEST PUSH0 PUSH2 0xB56 DUP3 PUSH2 0xB2D JUMP JUMPDEST SWAP1 POP SWAP2 SWAP1 POP JUMP JUMPDEST PUSH2 0xB66 DUP2 PUSH2 0xB4C JUMP JUMPDEST DUP2 EQ PUSH2 0xB70 JUMPI PUSH0 PUSH0 REVERT JUMPDEST POP JUMP JUMPDEST PUSH0 DUP2 CALLDATALOAD SWAP1 POP PUSH2 0xB81 DUP2 PUSH2 0xB5D JUMP JUMPDEST SWAP3 SWAP2 POP POP JUMP JUMPDEST PUSH0 PUSH1 0x20 DUP3 DUP5 SUB SLT ISZERO PUSH2 0xB9C JUMPI PUSH2 0xB9B PUSH2 0xB25 JUMP JUMPDEST JUMPDEST PUSH0 PUSH2 0xBA9 DUP5 DUP3 DUP6 ADD PUSH2 0xB73 JUMP JUMPDEST SWAP2 POP POP SWAP3 SWAP2 POP POP JUMP JUMPDEST PUSH0 DUP2 SWAP1 POP SWAP2 SWAP1 POP JUMP JUMPDEST PUSH2 0xBC4 DUP2 PUSH2 0xBB2 JUMP JUMPDEST DUP3 MSTORE POP POP JUMP JUMPDEST PUSH0 PUSH1 0x20 DUP3 ADD SWAP1 POP PUSH2 0xBDD PUSH0 DUP4 ADD DUP5 PUSH2 0xBBB JUMP JUMPDEST SWAP3 SWAP2 POP POP JUMP JUMPDEST PUSH0 DUP2 MLOAD SWAP1 POP SWAP2 SWAP1 POP JUMP JUMPDEST PUSH0 DUP3 DUP3 MSTORE PUSH1 0x20 DUP3 ADD SWAP1 POP SWAP3 SWAP2 POP POP JUMP JUMPDEST DUP3 DUP2 DUP4 MCOPY PUSH0 DUP4 DUP4 ADD MSTORE POP POP POP JUMP JUMPDEST PUSH0 PUSH1 0x1F NOT PUSH1 0x1F DUP4 ADD AND SWAP1 POP SWAP2 SWAP1 POP JUMP JUMPDEST PUSH0 PUSH2 0xC25 DUP3 PUSH2 0xBE3 JUMP JUMPDEST PUSH2 0xC2F DUP2 DUP6 PUSH2 0xBED JUMP JUMPDEST SWAP4 POP PUSH2 0xC3F DUP2 DUP6 PUSH1 0x20 DUP7 ADD PUSH2 0xBFD JUMP JUMPDEST PUSH2 0xC48 DUP2 PUSH2 0xC0B JUMP JUMPDEST DUP5 ADD SWAP2 POP POP SWAP3 SWAP2 POP POP JUMP JUMPDEST PUSH0 DUP2 ISZERO ISZERO SWAP1 POP SWAP2 SWAP1 POP JUMP JUMPDEST PUSH2 0xC67 DUP2 PUSH2 0xC53 JUMP JUMPDEST DUP3 MSTORE POP POP JUMP JUMPDEST PUSH0 PUSH1 0x60 DUP3 ADD SWAP1 POP DUP2 DUP2 SUB PUSH0 DUP4 ADD MSTORE PUSH2 0xC85 DUP2 DUP7 PUSH2 0xC1B JUMP JUMPDEST SWAP1 POP PUSH2 0xC94 PUSH1 0x20 DUP4 ADD DUP6 PUSH2 0xBBB JUMP JUMPDEST PUSH2 0xCA1 PUSH1 0x40 DUP4 ADD DUP5 PUSH2 0xC5E JUMP JUMPDEST SWAP5 SWAP4 POP POP POP POP JUMP JUMPDEST PUSH2 0xCB2 DUP2 PUSH2 0xB4C JUMP JUMPDEST DUP3 MSTORE POP POP JUMP JUMPDEST PUSH0 PUSH1 0x20 DUP3 ADD SWAP1 POP PUSH2 0xCCB PUSH0 DUP4 ADD DUP5 PUSH2 0xCA9 JUMP JUMPDEST SWAP3 SWAP2 POP POP JUMP JUMPDEST PUSH0 PUSH0 REVERT JUMPDEST PUSH0 PUSH0 REVERT JUMPDEST PUSH32 0x4E487B7100000000000000000000000000000000000000000000000000000000 PUSH0 MSTORE PUSH1 0x41 PUSH1 0x4 MSTORE PUSH1 0x24 PUSH0 REVERT JUMPDEST PUSH2 0xD0F DUP3 PUSH2 0xC0B JUMP JUMPDEST DUP2 ADD DUP2 DUP2 LT PUSH8 0xFFFFFFFFFFFFFFFF DUP3 GT OR ISZERO PUSH2 0xD2E JUMPI PUSH2 0xD2D PUSH2 0xCD9 JUMP JUMPDEST JUMPDEST DUP1 PUSH1 0x40 MSTORE POP POP POP JUMP JUMPDEST PUSH0 PUSH2 0xD40 PUSH2 0xB1C JUMP JUMPDEST SWAP1 POP PUSH2 0xD4C DUP3 DUP3 PUSH2 0xD06 JUMP JUMPDEST SWAP2 SWAP1 POP JUMP JUMPDEST PUSH0 PUSH8 0xFFFFFFFFFFFFFFFF DUP3 GT ISZERO PUSH2 0xD6B JUMPI PUSH2 0xD6A PUSH2 0xCD9 JUMP JUMPDEST JUMPDEST PUSH2 0xD74 DUP3 PUSH2 0xC0B JUMP JUMPDEST SWAP1 POP PUSH1 0x20 DUP2 ADD SWAP1 POP SWAP2 SWAP1 POP JUMP JUMPDEST DUP3 DUP2 DUP4 CALLDATACOPY PUSH0 DUP4 DUP4 ADD MSTORE POP POP POP JUMP JUMPDEST PUSH0 PUSH2 0xDA1 PUSH2 0xD9C DUP5 PUSH2 0xD51 JUMP JUMPDEST PUSH2 0xD37 JUMP JUMPDEST SWAP1 POP DUP3 DUP2 MSTORE PUSH1 0x20 DUP2 ADD DUP5 DUP5 DUP5 ADD GT ISZERO PUSH2 0xDBD JUMPI PUSH2 0xDBC PUSH2 0xCD5 JUMP JUMPDEST JUMPDEST PUSH2 0xDC8 DUP5 DUP3 DUP6 PUSH2 0xD81 JUMP JUMPDEST POP SWAP4 SWAP3 POP POP POP JUMP JUMPDEST PUSH0 DUP3 PUSH1 0x1F DUP4 ADD SLT PUSH2 0xDE4 JUMPI PUSH2 0xDE3 PUSH2 0xCD1 JUMP JUMPDEST JUMPDEST DUP2 CALLDATALOAD PUSH2 0xDF4 DUP5 DUP3 PUSH1 0x20 DUP7 ADD PUSH2 0xD8F JUMP JUMPDEST SWAP2 POP POP SWAP3 SWAP2 POP POP JUMP JUMPDEST PUSH2 0xE06 DUP2 PUSH2 0xBB2 JUMP JUMPDEST DUP2 EQ PUSH2 0xE10 JUMPI PUSH0 PUSH0 REVERT JUMPDEST POP JUMP JUMPDEST PUSH0 DUP2 CALLDATALOAD SWAP1 POP PUSH2 0xE21 DUP2 PUSH2 0xDFD JUMP JUMPDEST SWAP3 SWAP2 POP POP JUMP JUMPDEST PUSH0 PUSH0 PUSH0 PUSH1 0x60 DUP5 DUP7 SUB SLT ISZERO PUSH2 0xE3E JUMPI PUSH2 0xE3D PUSH2 0xB25 JUMP JUMPDEST JUMPDEST PUSH0 DUP5 ADD CALLDATALOAD PUSH8 0xFFFFFFFFFFFFFFFF DUP2 GT ISZERO PUSH2 0xE5B JUMPI PUSH2 0xE5A PUSH2 0xB29 JUMP JUMPDEST JUMPDEST PUSH2 0xE67 DUP7 DUP3 DUP8 ADD PUSH2 0xDD0 JUMP JUMPDEST SWAP4 POP POP PUSH1 0x20 PUSH2 0xE78 DUP7 DUP3 DUP8 ADD PUSH2 0xE13 JUMP JUMPDEST SWAP3 POP POP PUSH1 0x40 PUSH2 0xE89 DUP7 DUP3 DUP8 ADD PUSH2 0xE13 JUMP JUMPDEST SWAP2 POP POP SWAP3 POP SWAP3 POP SWAP3 JUMP JUMPDEST PUSH0 PUSH0 PUSH1 0x40 DUP4 DUP6 SUB SLT ISZERO PUSH2 0xEA9 JUMPI PUSH2 0xEA8 PUSH2 0xB25 JUMP JUMPDEST JUMPDEST PUSH0 DUP4 ADD CALLDATALOAD PUSH8 0xFFFFFFFFFFFFFFFF DUP2 GT ISZERO PUSH2 0xEC6 JUMPI PUSH2 0xEC5 PUSH2 0xB29 JUMP JUMPDEST JUMPDEST PUSH2 0xED2 DUP6 DUP3 DUP7 ADD PUSH2 0xDD0 JUMP JUMPDEST SWAP3 POP POP PUSH1 0x20 PUSH2 0xEE3 DUP6 DUP3 DUP7 ADD PUSH2 0xE13 JUMP JUMPDEST SWAP2 POP POP SWAP3 POP SWAP3 SWAP1 POP JUMP JUMPDEST PUSH0 PUSH1 0x20 DUP3 DUP5 SUB SLT ISZERO PUSH2 0xF02 JUMPI PUSH2 0xF01 PUSH2 0xB25 JUMP JUMPDEST JUMPDEST PUSH0 PUSH2 0xF0F DUP5 DUP3 DUP6 ADD PUSH2 0xE13 JUMP JUMPDEST SWAP2 POP POP SWAP3 SWAP2 POP POP JUMP JUMPDEST PUSH32 0x4E487B7100000000000000000000000000000000000000000000000000000000 PUSH0 MSTORE PUSH1 0x22 PUSH1 0x4 MSTORE PUSH1 0x24 PUSH0 REVERT JUMPDEST PUSH0 PUSH1 0x2 DUP3 DIV SWAP1 POP PUSH1 0x1 DUP3 AND DUP1 PUSH2 0xF5C JUMPI PUSH1 0x7F DUP3 AND SWAP2 POP JUMPDEST PUSH1 0x20 DUP3 LT DUP2 SUB PUSH2 0xF6F JUMPI PUSH2 0xF6E PUSH2 0xF18 JUMP JUMPDEST JUMPDEST POP SWAP2 SWAP1 POP JUMP JUMPDEST PUSH32 0x55736572206E6F74207265676973746572656400000000000000000000000000 PUSH0 DUP3 ADD MSTORE POP JUMP JUMPDEST PUSH0 PUSH2 0xFA9 PUSH1 0x13 DUP4 PUSH2 0xBED JUMP JUMPDEST SWAP2 POP PUSH2 0xFB4 DUP3 PUSH2 0xF75 JUMP JUMPDEST PUSH1 0x20 DUP3 ADD SWAP1 POP SWAP2 SWAP1 POP JUMP JUMPDEST PUSH0 PUSH1 0x20 DUP3 ADD SWAP1 POP DUP2 DUP2 SUB PUSH0 DUP4 ADD MSTORE PUSH2 0xFD6 DUP2 PUSH2 0xF9D JUMP JUMPDEST SWAP1 POP SWAP2 SWAP1 POP JUMP JUMPDEST PUSH0 DUP2 SWAP1 POP DUP2 PUSH0 MSTORE PUSH1 0x20 PUSH0 KECCAK256 SWAP1 POP SWAP2 SWAP1 POP JUMP JUMPDEST PUSH0 PUSH1 0x20 PUSH1 0x1F DUP4 ADD DIV SWAP1 POP SWAP2 SWAP1 POP JUMP JUMPDEST PUSH0 DUP3 DUP3 SHL SWAP1 POP SWAP3 SWAP2 POP POP JUMP JUMPDEST PUSH0 PUSH1 0x8 DUP4 MUL PUSH2 0x1039 PUSH32 0xFFFFFFFFFFFFFFFFFFFFFFFFFFFFFFFFFFFFFFFFFFFFFFFFFFFFFFFFFFFFFFFF DUP3 PUSH2 0xFFE JUMP JUMPDEST PUSH2 0x1043 DUP7 DUP4 PUSH2 0xFFE JUMP JUMPDEST SWAP6 POP DUP1 NOT DUP5 AND SWAP4 POP DUP1 DUP7 AND DUP5 OR SWAP3 POP POP POP SWAP4 SWAP3 POP POP POP JUMP JUMPDEST PUSH0 DUP2 SWAP1 POP SWAP2 SWAP1 POP JUMP JUMPDEST PUSH0 PUSH2 0x107E PUSH2 0x1079 PUSH2 0x1074 DUP5 PUSH2 0xBB2 JUMP JUMPDEST PUSH2 0x105B JUMP JUMPDEST PUSH2 0xBB2 JUMP JUMPDEST SWAP1 POP SWAP2 SWAP1 POP JUMP JUMPDEST PUSH0 DUP2 SWAP1 POP SWAP2 SWAP1 POP JUMP JUMPDEST PUSH2 0x1097 DUP4 PUSH2 0x1064 JUMP JUMPDEST PUSH2 0x10AB PUSH2 0x10A3 DUP3 PUSH2 0x1085 JUMP JUMPDEST DUP5 DUP5 SLOAD PUSH2 0x100A JUMP JUMPDEST DUP3 SSTORE POP POP POP POP JUMP JUMPDEST PUSH0 PUSH0 SWAP1 POP SWAP1 JUMP JUMPDEST PUSH2 0x10C2 PUSH2 0x10B3 JUMP JUMPDEST PUSH2 0x10CD DUP2 DUP5 DUP5 PUSH2 0x108E JUMP JUMPDEST POP POP POP JUMP JUMPDEST JUMPDEST DUP2 DUP2 LT ISZERO PUSH2 0x10F0 JUMPI PUSH2 0x10E5 PUSH0 DUP3 PUSH2 0x10BA JUMP JUMPDEST PUSH1 0x1 DUP2 ADD SWAP1 POP PUSH2 0x10D3 JUMP JUMPDEST POP POP JUMP JUMPDEST PUSH1 0x1F DUP3 GT ISZERO PUSH2 0x1135 JUMPI PUSH2 0x1106 DUP2 PUSH2 0xFDD JUMP JUMPDEST PUSH2 0x110F DUP5 PUSH2 0xFEF JUMP JUMPDEST DUP2 ADD PUSH1 0x20 DUP6 LT ISZERO PUSH2 0x111E JUMPI DUP2 SWAP1 POP JUMPDEST PUSH2 0x1132 PUSH2 0x112A DUP6 PUSH2 0xFEF JUMP JUMPDEST DUP4 ADD DUP3 PUSH2 0x10D2 JUMP JUMPDEST POP POP JUMPDEST POP POP POP JUMP JUMPDEST PUSH0 DUP3 DUP3 SHR SWAP1 POP SWAP3 SWAP2 POP POP JUMP JUMPDEST PUSH0 PUSH2 0x1155 PUSH0 NOT DUP5 PUSH1 0x8 MUL PUSH2 0x113A JUMP JUMPDEST NOT DUP1 DUP4 AND SWAP2 POP POP SWAP3 SWAP2 POP POP JUMP JUMPDEST PUSH0 PUSH2 0x116D DUP4 DUP4 PUSH2 0x1146 JUMP JUMPDEST SWAP2 POP DUP3 PUSH1 0x2 MUL DUP3 OR SWAP1 POP SWAP3 SWAP2 POP POP JUMP JUMPDEST PUSH2 0x1186 DUP3 PUSH2 0xBE3 JUMP JUMPDEST PUSH8 0xFFFFFFFFFFFFFFFF DUP2 GT ISZERO PUSH2 0x119F JUMPI PUSH2 0x119E PUSH2 0xCD9 JUMP JUMPDEST JUMPDEST PUSH2 0x11A9 DUP3 SLOAD PUSH2 0xF45 JUMP JUMPDEST PUSH2 0x11B4 DUP3 DUP3 DUP6 PUSH2 0x10F4 JUMP JUMPDEST PUSH0 PUSH1 0x20 SWAP1 POP PUSH1 0x1F DUP4 GT PUSH1 0x1 DUP2 EQ PUSH2 0x11E5 JUMPI PUSH0 DUP5 ISZERO PUSH2 0x11D3 JUMPI DUP3 DUP8 ADD MLOAD SWAP1 POP JUMPDEST PUSH2 0x11DD DUP6 DUP3 PUSH2 0x1162 JUMP JUMPDEST DUP7 SSTORE POP PUSH2 0x1244 JUMP JUMPDEST PUSH1 0x1F NOT DUP5 AND PUSH2 0x11F3 DUP7 PUSH2 0xFDD JUMP JUMPDEST PUSH0 JUMPDEST DUP3 DUP2 LT ISZERO PUSH2 0x121A JUMPI DUP5 DUP10 ADD MLOAD DUP3 SSTORE PUSH1 0x1 DUP3 ADD SWAP2 POP PUSH1 0x20 DUP6 ADD SWAP5 POP PUSH1 0x20 DUP2 ADD SWAP1 POP PUSH2 0x11F5 JUMP JUMPDEST DUP7 DUP4 LT ISZERO PUSH2 0x1237 JUMPI DUP5 DUP10 ADD MLOAD PUSH2 0x1233 PUSH1 0x1F DUP10 AND DUP3 PUSH2 0x1146 JUMP JUMPDEST DUP4 SSTORE POP JUMPDEST PUSH1 0x1 PUSH1 0x2 DUP9 MUL ADD DUP9 SSTORE POP POP POP JUMPDEST POP POP POP POP POP POP JUMP JUMPDEST PUSH32 0x4E487B7100000000000000000000000000000000000000000000000000000000 PUSH0 MSTORE PUSH1 0x11 PUSH1 0x4 MSTORE PUSH1 0x24 PUSH0 REVERT JUMPDEST PUSH0 PUSH2 0x1283 DUP3 PUSH2 0xBB2 JUMP JUMPDEST SWAP2 POP PUSH32 0xFFFFFFFFFFFFFFFFFFFFFFFFFFFFFFFFFFFFFFFFFFFFFFFFFFFFFFFFFFFFFFFF DUP3 SUB PUSH2 0x12B5 JUMPI PUSH2 0x12B4 PUSH2 0x124C JUMP JUMPDEST JUMPDEST PUSH1 0x1 DUP3 ADD SWAP1 POP SWAP2 SWAP1 POP JUMP JUMPDEST PUSH0 PUSH2 0x12CA DUP3 PUSH2 0xBB2 JUMP JUMPDEST SWAP2 POP PUSH2 0x12D5 DUP4 PUSH2 0xBB2 JUMP JUMPDEST SWAP3 POP DUP3 DUP3 ADD SWAP1 POP DUP1 DUP3 GT ISZERO PUSH2 0x12ED JUMPI PUSH2 0x12EC PUSH2 0x124C JUMP JUMPDEST JUMPDEST SWAP3 SWAP2 POP POP JUMP JUMPDEST PUSH0 PUSH1 0x80 DUP3 ADD SWAP1 POP DUP2 DUP2 SUB PUSH0 DUP4 ADD MSTORE PUSH2 0x130B DUP2 DUP8 PUSH2 0xC1B JUMP JUMPDEST SWAP1 POP PUSH2 0x131A PUSH1 0x20 DUP4 ADD DUP7 PUSH2 0xBBB JUMP JUMPDEST PUSH2 0x1327 PUSH1 0x40 DUP4 ADD DUP6 PUSH2 0xBBB JUMP JUMPDEST PUSH2 0x1334 PUSH1 0x60 DUP4 ADD DUP5 PUSH2 0xBBB JUMP JUMPDEST SWAP6 SWAP5 POP POP POP POP POP JUMP JUMPDEST PUSH32 0x313020576F726B6F75747320636F6D706C657465640000000000000000000000 PUSH0 DUP3 ADD MSTORE POP JUMP JUMPDEST PUSH0 PUSH2 0x1371 PUSH1 0x15 DUP4 PUSH2 0xBED JUMP JUMPDEST SWAP2 POP PUSH2 0x137C DUP3 PUSH2 0x133D JUMP JUMPDEST PUSH1 0x20 DUP3 ADD SWAP1 POP SWAP2 SWAP1 POP JUMP JUMPDEST PUSH0 PUSH1 0x40 DUP3 ADD SWAP1 POP DUP2 DUP2 SUB PUSH0 DUP4 ADD MSTORE PUSH2 0x139E DUP2 PUSH2 0x1365 JUMP JUMPDEST SWAP1 POP PUSH2 0x13AD PUSH1 0x20 DUP4 ADD DUP5 PUSH2 0xBBB JUMP JUMPDEST SWAP3 SWAP2 POP POP JUMP JUMPDEST PUSH32 0x353020576F726B6F75747320636F6D706C657465640000000000000000000000 PUSH0 DUP3 ADD MSTORE POP JUMP JUMPDEST PUSH0 PUSH2 0x13E7 PUSH1 0x15 DUP4 PUSH2 0xBED JUMP JUMPDEST SWAP2 POP PUSH2 0x13F2 DUP3 PUSH2 0x13B3 JUMP JUMPDEST PUSH1 0x20 DUP3 ADD SWAP1 POP SWAP2 SWAP1 POP JUMP JUMPDEST PUSH0 PUSH1 0x40 DUP3 ADD SWAP1 POP DUP2 DUP2 SUB PUSH0 DUP4 ADD MSTORE PUSH2 0x1414 DUP2 PUSH2 0x13DB JUMP JUMPDEST SWAP1 POP PUSH2 0x1423 PUSH1 0x20 DUP4 ADD DUP5 PUSH2 0xBBB JUMP JUMPDEST SWAP3 SWAP2 POP POP JUMP JUMPDEST PUSH0 PUSH2 0x1433 DUP3 PUSH2 0xBB2 JUMP JUMPDEST SWAP2 POP PUSH2 0x143E DUP4 PUSH2 0xBB2 JUMP JUMPDEST SWAP3 POP DUP3 DUP3 SUB SWAP1 POP DUP2 DUP2 GT ISZERO PUSH2 0x1456 JUMPI PUSH2 0x1455 PUSH2 0x124C JUMP JUMPDEST JUMPDEST SWAP3 SWAP2 POP POP JUMP JUMPDEST PUSH32 0x3130306B2044697374616E636520636F6D706C65746564000000000000000000 PUSH0 DUP3 ADD MSTORE POP JUMP JUMPDEST PUSH0 PUSH2 0x1490 PUSH1 0x17 DUP4 PUSH2 0xBED JUMP JUMPDEST SWAP2 POP PUSH2 0x149B DUP3 PUSH2 0x145C JUMP JUMPDEST PUSH1 0x20 DUP3 ADD SWAP1 POP SWAP2 SWAP1 POP JUMP JUMPDEST PUSH0 PUSH1 0x40 DUP3 ADD SWAP1 POP DUP2 DUP2 SUB PUSH0 DUP4 ADD MSTORE PUSH2 0x14BD DUP2 PUSH2 0x1484 JUMP JUMPDEST SWAP1 POP PUSH2 0x14CC PUSH1 0x20 DUP4 ADD DUP5 PUSH2 0xBBB JUMP JUMPDEST SWAP3 SWAP2 POP POP JUMP JUMPDEST PUSH32 0x5573657220616C72656164792072656769737465726564000000000000000000 PUSH0 DUP3 ADD MSTORE POP JUMP JUMPDEST PUSH0 PUSH2 0x1506 PUSH1 0x17 DUP4 PUSH2 0xBED JUMP JUMPDEST SWAP2 POP PUSH2 0x1511 DUP3 PUSH2 0x14D2 JUMP JUMPDEST PUSH1 0x20 DUP3 ADD SWAP1 POP SWAP2 SWAP1 POP JUMP JUMPDEST PUSH0 PUSH1 0x20 DUP3 ADD SWAP1 POP DUP2 DUP2 SUB PUSH0 DUP4 ADD MSTORE PUSH2 0x1533 DUP2 PUSH2 0x14FA JUMP JUMPDEST SWAP1 POP SWAP2 SWAP1 POP JUMP JUMPDEST PUSH0 PUSH1 0x40 DUP3 ADD SWAP1 POP DUP2 DUP2 SUB PUSH0 DUP4 ADD MSTORE PUSH2 0x1552 DUP2 DUP6 PUSH2 0xC1B JUMP JUMPDEST SWAP1 POP PUSH2 0x1561 PUSH1 0x20 DUP4 ADD DUP5 PUSH2 0xBBB JUMP JUMPDEST SWAP4 SWAP3 POP POP POP JUMP JUMPDEST PUSH0 PUSH2 0x1572 DUP3 PUSH2 0xBB2 JUMP JUMPDEST SWAP2 POP PUSH2 0x157D DUP4 PUSH2 0xBB2 JUMP JUMPDEST SWAP3 POP DUP3 DUP3 MUL PUSH2 0x158B DUP2 PUSH2 0xBB2 JUMP JUMPDEST SWAP2 POP DUP3 DUP3 DIV DUP5 EQ DUP4 ISZERO OR PUSH2 0x15A2 JUMPI PUSH2 0x15A1 PUSH2 0x124C JUMP JUMPDEST JUMPDEST POP SWAP3 SWAP2 POP POP JUMP JUMPDEST PUSH32 0x4E487B7100000000000000000000000000000000000000000000000000000000 PUSH0 MSTORE PUSH1 0x12 PUSH1 0x4 MSTORE PUSH1 0x24 PUSH0 REVERT JUMPDEST PUSH0 PUSH2 0x15E0 DUP3 PUSH2 0xBB2 JUMP JUMPDEST SWAP2 POP PUSH2 0x15EB DUP4 PUSH2 0xBB2 JUMP JUMPDEST SWAP3 POP DUP3 PUSH2 0x15FB JUMPI PUSH2 0x15FA PUSH2 0x15A9 JUMP JUMPDEST JUMPDEST DUP3 DUP3 DIV SWAP1 POP SWAP3 SWAP2 POP POP JUMP JUMPDEST PUSH32 0x57656967687420476F616C205265616368656400000000000000000000000000 PUSH0 DUP3 ADD MSTORE POP JUMP JUMPDEST PUSH0 PUSH2 0x163A PUSH1 0x13 DUP4 PUSH2 0xBED JUMP JUMPDEST SWAP2 POP PUSH2 0x1645 DUP3 PUSH2 0x1606 JUMP JUMPDEST PUSH1 0x20 DUP3 ADD SWAP1 POP SWAP2 SWAP1 POP JUMP JUMPDEST PUSH0 PUSH1 0x40 DUP3 ADD SWAP1 POP DUP2 DUP2 SUB PUSH0 DUP4 ADD MSTORE PUSH2 0x1667 DUP2 PUSH2 0x162E JUMP JUMPDEST SWAP1 POP PUSH2 0x1676 PUSH1 0x20 DUP4 ADD DUP5 PUSH2 0xBBB JUMP JUMPDEST SWAP3 SWAP2 POP POP JUMP JUMPDEST PUSH0 PUSH1 0x40 DUP3 ADD SWAP1 POP PUSH2 0x168F PUSH0 DUP4 ADD DUP6 PUSH2 0xBBB JUMP JUMPDEST PUSH2 0x169C PUSH1 0x20 DUP4 ADD DUP5 PUSH2 0xBBB JUMP JUMPDEST SWAP4 SWAP3 POP POP POP JUMP INVALID LOG2 PUSH5 0x6970667358 0x22 SLT KECCAK256 DUP12 0x2A 0x24 0xD 0xBC 0x2A PUSH8 0x3E173F1CE6F0B268 PUSH17 0xB2D885B19687D2983B3D1E00977D6F8E64 PUSH20 0x6F6C634300081E00330000000000000000000000 "
				},
				"gasEstimates": {
					"creation": {
						"codeDepositCost": "1169800",
						"executionCost": "25476",
						"totalCost": "1195276"
					},
					"external": {
						"getUserWorkCount()": "4817",
						"logWorkout(string,uint256,uint256)": "infinite",
						"owner()": "2574",
						"registerUser(string,uint256)": "infinite",
						"totalDistance(address)": "2802",
						"totalWorkouts(address)": "2803",
						"updateWeight(uint256)": "infinite",
						"userProfiles(address)": "infinite"
					}
				},
				"methodIdentifiers": {
					"getUserWorkCount()": "36ae55b6",
					"logWorkout(string,uint256,uint256)": "c5af3f8c",
					"owner()": "8da5cb5b",
					"registerUser(string,uint256)": "d3951002",
					"totalDistance(address)": "ae5bde4e",
					"totalWorkouts(address)": "03cdaddd",
					"updateWeight(uint256)": "ec3df6ad",
					"userProfiles(address)": "332d56d7"
				}
			},
			"storageLayout": {
				"storage": [
					{
						"astId": 3,
						"contract": "submissions/doubleqian/day10.sol:SimpleFitnessTracker",
						"label": "owner",
						"offset": 0,
						"slot": "0",
						"type": "t_address"
					},
					{
						"astId": 24,
						"contract": "submissions/doubleqian/day10.sol:SimpleFitnessTracker",
						"label": "userProfiles",
						"offset": 0,
						"slot": "1",
						"type": "t_mapping(t_address,t_struct(UserProfile)10_storage)"
					},
					{
						"astId": 30,
						"contract": "submissions/doubleqian/day10.sol:SimpleFitnessTracker",
						"label": "workoutHistory",
						"offset": 0,
						"slot": "2",
						"type": "t_mapping(t_address,t_array(t_struct(WorkoutActivity)19_storage)dyn_storage)"
					},
					{
						"astId": 34,
						"contract": "submissions/doubleqian/day10.sol:SimpleFitnessTracker",
						"label": "totalWorkouts",
						"offset": 0,
						"slot": "3",
						"type": "t_mapping(t_address,t_uint256)"
					},
					{
						"astId": 38,
						"contract": "submissions/doubleqian/day10.sol:SimpleFitnessTracker",
						"label": "totalDistance",
						"offset": 0,
						"slot": "4",
						"type": "t_mapping(t_address,t_uint256)"
					}
				],
				"types": {
					"t_address": {
						"encoding": "inplace",
						"label": "address",
						"numberOfBytes": "20"
					},
					"t_array(t_struct(WorkoutActivity)19_storage)dyn_storage": {
						"base": "t_struct(WorkoutActivity)19_storage",
						"encoding": "dynamic_array",
						"label": "struct SimpleFitnessTracker.WorkoutActivity[]",
						"numberOfBytes": "32"
					},
					"t_bool": {
						"encoding": "inplace",
						"label": "bool",
						"numberOfBytes": "1"
					},
					"t_mapping(t_address,t_array(t_struct(WorkoutActivity)19_storage)dyn_storage)": {
						"encoding": "mapping",
						"key": "t_address",
						"label": "mapping(address => struct SimpleFitnessTracker.WorkoutActivity[])",
						"numberOfBytes": "32",
						"value": "t_array(t_struct(WorkoutActivity)19_storage)dyn_storage"
					},
					"t_mapping(t_address,t_struct(UserProfile)10_storage)": {
						"encoding": "mapping",
						"key": "t_address",
						"label": "mapping(address => struct SimpleFitnessTracker.UserProfile)",
						"numberOfBytes": "32",
						"value": "t_struct(UserProfile)10_storage"
					},
					"t_mapping(t_address,t_uint256)": {
						"encoding": "mapping",
						"key": "t_address",
						"label": "mapping(address => uint256)",
						"numberOfBytes": "32",
						"value": "t_uint256"
					},
					"t_string_storage": {
						"encoding": "bytes",
						"label": "string",
						"numberOfBytes": "32"
					},
					"t_struct(UserProfile)10_storage": {
						"encoding": "inplace",
						"label": "struct SimpleFitnessTracker.UserProfile",
						"members": [
							{
								"astId": 5,
								"contract": "submissions/doubleqian/day10.sol:SimpleFitnessTracker",
								"label": "name",
								"offset": 0,
								"slot": "0",
								"type": "t_string_storage"
							},
							{
								"astId": 7,
								"contract": "submissions/doubleqian/day10.sol:SimpleFitnessTracker",
								"label": "weight",
								"offset": 0,
								"slot": "1",
								"type": "t_uint256"
							},
							{
								"astId": 9,
								"contract": "submissions/doubleqian/day10.sol:SimpleFitnessTracker",
								"label": "isRegistered",
								"offset": 0,
								"slot": "2",
								"type": "t_bool"
							}
						],
						"numberOfBytes": "96"
					},
					"t_struct(WorkoutActivity)19_storage": {
						"encoding": "inplace",
						"label": "struct SimpleFitnessTracker.WorkoutActivity",
						"members": [
							{
								"astId": 12,
								"contract": "submissions/doubleqian/day10.sol:SimpleFitnessTracker",
								"label": "activityType",
								"offset": 0,
								"slot": "0",
								"type": "t_string_storage"
							},
							{
								"astId": 14,
								"contract": "submissions/doubleqian/day10.sol:SimpleFitnessTracker",
								"label": "duration",
								"offset": 0,
								"slot": "1",
								"type": "t_uint256"
							},
							{
								"astId": 16,
								"contract": "submissions/doubleqian/day10.sol:SimpleFitnessTracker",
								"label": "distance",
								"offset": 0,
								"slot": "2",
								"type": "t_uint256"
							},
							{
								"astId": 18,
								"contract": "submissions/doubleqian/day10.sol:SimpleFitnessTracker",
								"label": "timestamp",
								"offset": 0,
								"slot": "3",
								"type": "t_uint256"
							}
						],
						"numberOfBytes": "128"
					},
					"t_uint256": {
						"encoding": "inplace",
						"label": "uint256",
						"numberOfBytes": "32"
					}
				}
			},
			"userdoc": {
				"kind": "user",
				"methods": {},
				"version": 1
			}
		}
	}
}