{
	"submissions/0xRue/Day7.sol": {
		"SimpleIOU": {
			"abi": [
				{
					"inputs": [],
					"stateMutability": "nonpayable",
					"type": "constructor"
				},
				{
					"inputs": [
						{
							"internalType": "address",
							"name": "_friend_",
							"type": "address"
						}
					],
					"name": "AddFriend",
					"outputs": [],
					"stateMutability": "nonpayable",
					"type": "function"
				},
				{
					"inputs": [],
					"name": "CheckBalance",
					"outputs": [
						{
							"internalType": "uint256",
							"name": "",
							"type": "uint256"
						}
					],
					"stateMutability": "view",
					"type": "function"
				},
				{
					"inputs": [],
					"name": "DepositIntoWallet",
					"outputs": [],
					"stateMutability": "payable",
					"type": "function"
				},
				{
					"inputs": [],
					"name": "Owner",
					"outputs": [
						{
							"internalType": "address",
							"name": "",
							"type": "address"
						}
					],
					"stateMutability": "view",
					"type": "function"
				},
				{
					"inputs": [
						{
							"internalType": "address",
							"name": "_creditor_",
							"type": "address"
						},
						{
							"internalType": "uint256",
							"name": "_amount_",
							"type": "uint256"
						}
					],
					"name": "PayFromWallet",
					"outputs": [],
					"stateMutability": "nonpayable",
					"type": "function"
				},
				{
					"inputs": [
						{
							"internalType": "address",
							"name": "_debter_",
							"type": "address"
						},
						{
							"internalType": "uint256",
							"name": "_amount_",
							"type": "uint256"
						}
					],
					"name": "RecordDebt",
					"outputs": [],
					"stateMutability": "nonpayable",
					"type": "function"
				},
				{
					"inputs": [
						{
							"internalType": "address",
							"name": "",
							"type": "address"
						}
					],
					"name": "RegisteredFriends",
					"outputs": [
						{
							"internalType": "bool",
							"name": "",
							"type": "bool"
						}
					],
					"stateMutability": "view",
					"type": "function"
				},
				{
					"inputs": [
						{
							"internalType": "address payable",
							"name": "_to_",
							"type": "address"
						},
						{
							"internalType": "uint256",
							"name": "_amount_",
							"type": "uint256"
						}
					],
					"name": "TransferEther",
					"outputs": [],
					"stateMutability": "nonpayable",
					"type": "function"
				},
				{
					"inputs": [
						{
							"internalType": "address payable",
							"name": "_to_",
							"type": "address"
						},
						{
							"internalType": "uint256",
							"name": "_amount_",
							"type": "uint256"
						}
					],
					"name": "TransferEtherViaCall",
					"outputs": [],
					"stateMutability": "nonpayable",
					"type": "function"
				},
				{
					"inputs": [
						{
							"internalType": "uint256",
							"name": "_amount_",
							"type": "uint256"
						}
					],
					"name": "Withdraw",
					"outputs": [],
					"stateMutability": "nonpayable",
					"type": "function"
				},
				{
					"inputs": [
						{
							"internalType": "address",
							"name": "",
							"type": "address"
						}
					],
					"name": "balances",
					"outputs": [
						{
							"internalType": "uint256",
							"name": "",
							"type": "uint256"
						}
					],
					"stateMutability": "view",
					"type": "function"
				},
				{
					"inputs": [
						{
							"internalType": "address",
							"name": "",
							"type": "address"
						},
						{
							"internalType": "address",
							"name": "",
							"type": "address"
						}
					],
					"name": "debts",
					"outputs": [
						{
							"internalType": "uint256",
							"name": "",
							"type": "uint256"
						}
					],
					"stateMutability": "view",
					"type": "function"
				}
			],
			"devdoc": {
				"kind": "dev",
				"methods": {},
				"version": 1
			},
			"evm": {
				"assembly": "    /* \"submissions/0xRue/Day7.sol\":59:3511  contract SimpleIOU{... */\n  mstore(0x40, 0x80)\n    /* \"submissions/0xRue/Day7.sol\":323:459  constructor(){... */\n  callvalue\n  dup1\n  iszero\n  tag_1\n  jumpi\n  revert(0x00, 0x00)\ntag_1:\n  pop\n    /* \"submissions/0xRue/Day7.sol\":355:365  msg.sender */\n  caller\n    /* \"submissions/0xRue/Day7.sol\":347:352  Owner */\n  0x00\n  0x00\n    /* \"submissions/0xRue/Day7.sol\":347:365  Owner = msg.sender */\n  0x0100\n  exp\n  dup2\n  sload\n  dup2\n  0xffffffffffffffffffffffffffffffffffffffff\n  mul\n  not\n  and\n  swap1\n  dup4\n  0xffffffffffffffffffffffffffffffffffffffff\n  and\n  mul\n  or\n  swap1\n  sstore\n  pop\n    /* \"submissions/0xRue/Day7.sol\":408:412  true */\n  0x01\n    /* \"submissions/0xRue/Day7.sol\":376:393  RegisteredFriends */\n  0x02\n    /* \"submissions/0xRue/Day7.sol\":376:405  RegisteredFriends[msg.sender] */\n  0x00\n    /* \"submissions/0xRue/Day7.sol\":394:404  msg.sender */\n  caller\n    /* \"submissions/0xRue/Day7.sol\":376:405  RegisteredFriends[msg.sender] */\n  0xffffffffffffffffffffffffffffffffffffffff\n  and\n  0xffffffffffffffffffffffffffffffffffffffff\n  and\n  dup2\n  mstore\n  0x20\n  add\n  swap1\n  dup2\n  mstore\n  0x20\n  add\n  0x00\n  keccak256\n  0x00\n    /* \"submissions/0xRue/Day7.sol\":376:412  RegisteredFriends[msg.sender] = true */\n  0x0100\n  exp\n  dup2\n  sload\n  dup2\n  0xff\n  mul\n  not\n  and\n  swap1\n  dup4\n  iszero\n  iszero\n  mul\n  or\n  swap1\n  sstore\n  pop\n    /* \"submissions/0xRue/Day7.sol\":423:433  FriendList */\n  0x01\n    /* \"submissions/0xRue/Day7.sol\":439:449  msg.sender */\n  caller\n    /* \"submissions/0xRue/Day7.sol\":423:450  FriendList.push(msg.sender) */\n  swap1\n  dup1\n  0x01\n  dup2\n  sload\n  add\n  dup1\n  dup3\n  sstore\n  dup1\n  swap2\n  pop\n  pop\n  0x01\n  swap1\n  sub\n  swap1\n  0x00\n  mstore\n  keccak256(0x00, 0x20)\n  add\n  0x00\n  swap1\n  swap2\n  swap1\n  swap2\n  swap1\n  swap2\n  0x0100\n  exp\n  dup2\n  sload\n  dup2\n  0xffffffffffffffffffffffffffffffffffffffff\n  mul\n  not\n  and\n  swap1\n  dup4\n  0xffffffffffffffffffffffffffffffffffffffff\n  and\n  mul\n  or\n  swap1\n  sstore\n  pop\n    /* \"submissions/0xRue/Day7.sol\":59:3511  contract SimpleIOU{... */\n  dataSize(sub_0)\n  dup1\n  dataOffset(sub_0)\n  0x00\n  codecopy\n  0x00\n  return\nstop\n\nsub_0: assembly {\n        /* \"submissions/0xRue/Day7.sol\":59:3511  contract SimpleIOU{... */\n      mstore(0x40, 0x80)\n      jumpi(tag_1, lt(calldatasize, 0x04))\n      shr(0xe0, calldataload(0x00))\n      dup1\n      0x5b6b431d\n      gt\n      tag_14\n      jumpi\n      dup1\n      0x5b6b431d\n      eq\n      tag_8\n      jumpi\n      dup1\n      0x5c6261f8\n      eq\n      tag_9\n      jumpi\n      dup1\n      0x8be40e84\n      eq\n      tag_10\n      jumpi\n      dup1\n      0x9dc48a4a\n      eq\n      tag_11\n      jumpi\n      dup1\n      0xb3b1161e\n      eq\n      tag_12\n      jumpi\n      dup1\n      0xb4a99a4e\n      eq\n      tag_13\n      jumpi\n      jump(tag_1)\n    tag_14:\n      dup1\n      0x13962258\n      eq\n      tag_2\n      jumpi\n      dup1\n      0x1f5941e2\n      eq\n      tag_3\n      jumpi\n      dup1\n      0x27e235e3\n      eq\n      tag_4\n      jumpi\n      dup1\n      0x44e73b78\n      eq\n      tag_5\n      jumpi\n      dup1\n      0x4ac1c33d\n      eq\n      tag_6\n      jumpi\n      dup1\n      0x552b577c\n      eq\n      tag_7\n      jumpi\n    tag_1:\n      revert(0x00, 0x00)\n        /* \"submissions/0xRue/Day7.sol\":730:1011  function AddFriend(address _friend_) public OnlyOwner{... */\n    tag_2:\n      callvalue\n      dup1\n      iszero\n      tag_15\n      jumpi\n      revert(0x00, 0x00)\n    tag_15:\n      pop\n      tag_16\n      0x04\n      dup1\n      calldatasize\n      sub\n      dup2\n      add\n      swap1\n      tag_17\n      swap2\n      swap1\n      tag_18\n      jump\t// in\n    tag_17:\n      tag_19\n      jump\t// in\n    tag_16:\n      stop\n        /* \"submissions/0xRue/Day7.sol\":1202:1536  function RecordDebt(address _debter_, uint256 _amount_) public OnlyRegistered{... */\n    tag_3:\n      callvalue\n      dup1\n      iszero\n      tag_20\n      jumpi\n      revert(0x00, 0x00)\n    tag_20:\n      pop\n      tag_21\n      0x04\n      dup1\n      calldatasize\n      sub\n      dup2\n      add\n      swap1\n      tag_22\n      swap2\n      swap1\n      tag_23\n      jump\t// in\n    tag_22:\n      tag_24\n      jump\t// in\n    tag_21:\n      stop\n        /* \"submissions/0xRue/Day7.sol\":200:244  mapping (address => uint256) public balances */\n    tag_4:\n      callvalue\n      dup1\n      iszero\n      tag_25\n      jumpi\n      revert(0x00, 0x00)\n    tag_25:\n      pop\n      tag_26\n      0x04\n      dup1\n      calldatasize\n      sub\n      dup2\n      add\n      swap1\n      tag_27\n      swap2\n      swap1\n      tag_18\n      jump\t// in\n    tag_27:\n      tag_28\n      jump\t// in\n    tag_26:\n      mload(0x40)\n      tag_29\n      swap2\n      swap1\n      tag_30\n      jump\t// in\n    tag_29:\n      mload(0x40)\n      dup1\n      swap2\n      sub\n      swap1\n      return\n        /* \"submissions/0xRue/Day7.sol\":3394:3508  function CheckBalance() public view OnlyRegistered returns(uint256){... */\n    tag_5:\n      callvalue\n      dup1\n      iszero\n      tag_31\n      jumpi\n      revert(0x00, 0x00)\n    tag_31:\n      pop\n      tag_32\n      tag_33\n      jump\t// in\n    tag_32:\n      mload(0x40)\n      tag_34\n      swap2\n      swap1\n      tag_30\n      jump\t// in\n    tag_34:\n      mload(0x40)\n      dup1\n      swap2\n      sub\n      swap1\n      return\n        /* \"submissions/0xRue/Day7.sol\":252:313  mapping (address => mapping(address => uint256)) public debts */\n    tag_6:\n      callvalue\n      dup1\n      iszero\n      tag_35\n      jumpi\n      revert(0x00, 0x00)\n    tag_35:\n      pop\n      tag_36\n      0x04\n      dup1\n      calldatasize\n      sub\n      dup2\n      add\n      swap1\n      tag_37\n      swap2\n      swap1\n      tag_38\n      jump\t// in\n    tag_37:\n      tag_39\n      jump\t// in\n    tag_36:\n      mload(0x40)\n      tag_40\n      swap2\n      swap1\n      tag_30\n      jump\t// in\n    tag_40:\n      mload(0x40)\n      dup1\n      swap2\n      sub\n      swap1\n      return\n        /* \"submissions/0xRue/Day7.sol\":2571:3067  function TransferEtherViaCall(address payable _to_,uint256 _amount_) public OnlyRegistered{... */\n    tag_7:\n      callvalue\n      dup1\n      iszero\n      tag_41\n      jumpi\n      revert(0x00, 0x00)\n    tag_41:\n      pop\n      tag_42\n      0x04\n      dup1\n      calldatasize\n      sub\n      dup2\n      add\n      swap1\n      tag_43\n      swap2\n      swap1\n      tag_44\n      jump\t// in\n    tag_43:\n      tag_45\n      jump\t// in\n    tag_42:\n      stop\n        /* \"submissions/0xRue/Day7.sol\":3076:3385  function Withdraw(uint256 _amount_) public OnlyRegistered{... */\n    tag_8:\n      callvalue\n      dup1\n      iszero\n      tag_46\n      jumpi\n      revert(0x00, 0x00)\n    tag_46:\n      pop\n      tag_47\n      0x04\n      dup1\n      calldatasize\n      sub\n      dup2\n      add\n      swap1\n      tag_48\n      swap2\n      swap1\n      tag_49\n      jump\t// in\n    tag_48:\n      tag_50\n      jump\t// in\n    tag_47:\n      stop\n        /* \"submissions/0xRue/Day7.sol\":1020:1193  function DepositIntoWallet() public payable OnlyRegistered{... */\n    tag_9:\n      tag_51\n      tag_52\n      jump\t// in\n    tag_51:\n      stop\n        /* \"submissions/0xRue/Day7.sol\":1545:2143  function PayFromWallet(address _creditor_, uint256 _amount_) public OnlyRegistered{... */\n    tag_10:\n      callvalue\n      dup1\n      iszero\n      tag_53\n      jumpi\n      revert(0x00, 0x00)\n    tag_53:\n      pop\n      tag_54\n      0x04\n      dup1\n      calldatasize\n      sub\n      dup2\n      add\n      swap1\n      tag_55\n      swap2\n      swap1\n      tag_23\n      jump\t// in\n    tag_55:\n      tag_56\n      jump\t// in\n    tag_54:\n      stop\n        /* \"submissions/0xRue/Day7.sol\":142:192  mapping (address => bool) public RegisteredFriends */\n    tag_11:\n      callvalue\n      dup1\n      iszero\n      tag_57\n      jumpi\n      revert(0x00, 0x00)\n    tag_57:\n      pop\n      tag_58\n      0x04\n      dup1\n      calldatasize\n      sub\n      dup2\n      add\n      swap1\n      tag_59\n      swap2\n      swap1\n      tag_18\n      jump\t// in\n    tag_59:\n      tag_60\n      jump\t// in\n    tag_58:\n      mload(0x40)\n      tag_61\n      swap2\n      swap1\n      tag_62\n      jump\t// in\n    tag_61:\n      mload(0x40)\n      dup1\n      swap2\n      sub\n      swap1\n      return\n        /* \"submissions/0xRue/Day7.sol\":2152:2562  function TransferEther(address payable _to_,uint256 _amount_) public OnlyRegistered{... */\n    tag_12:\n      callvalue\n      dup1\n      iszero\n      tag_63\n      jumpi\n      revert(0x00, 0x00)\n    tag_63:\n      pop\n      tag_64\n      0x04\n      dup1\n      calldatasize\n      sub\n      dup2\n      add\n      swap1\n      tag_65\n      swap2\n      swap1\n      tag_44\n      jump\t// in\n    tag_65:\n      tag_66\n      jump\t// in\n    tag_64:\n      stop\n        /* \"submissions/0xRue/Day7.sol\":85:105  address public Owner */\n    tag_13:\n      callvalue\n      dup1\n      iszero\n      tag_67\n      jumpi\n      revert(0x00, 0x00)\n    tag_67:\n      pop\n      tag_68\n      tag_69\n      jump\t// in\n    tag_68:\n      mload(0x40)\n      tag_70\n      swap2\n      swap1\n      tag_71\n      jump\t// in\n    tag_70:\n      mload(0x40)\n      dup1\n      swap2\n      sub\n      swap1\n      return\n        /* \"submissions/0xRue/Day7.sol\":730:1011  function AddFriend(address _friend_) public OnlyOwner{... */\n    tag_19:\n        /* \"submissions/0xRue/Day7.sol\":522:527  Owner */\n      0x00\n      0x00\n      swap1\n      sload\n      swap1\n      0x0100\n      exp\n      swap1\n      div\n      0xffffffffffffffffffffffffffffffffffffffff\n      and\n        /* \"submissions/0xRue/Day7.sol\":508:527  msg.sender == Owner */\n      0xffffffffffffffffffffffffffffffffffffffff\n      and\n        /* \"submissions/0xRue/Day7.sol\":508:518  msg.sender */\n      caller\n        /* \"submissions/0xRue/Day7.sol\":508:527  msg.sender == Owner */\n      0xffffffffffffffffffffffffffffffffffffffff\n      and\n      eq\n        /* \"submissions/0xRue/Day7.sol\":499:569  require (msg.sender == Owner, \"Only the owner can call this function\") */\n      tag_73\n      jumpi\n      mload(0x40)\n      0x08c379a000000000000000000000000000000000000000000000000000000000\n      dup2\n      mstore\n      0x04\n      add\n      tag_74\n      swap1\n      tag_75\n      jump\t// in\n    tag_74:\n      mload(0x40)\n      dup1\n      swap2\n      sub\n      swap1\n      revert\n    tag_73:\n        /* \"submissions/0xRue/Day7.sol\":822:823  0 */\n      0x00\n        /* \"submissions/0xRue/Day7.sol\":802:824  _friend_ != address(0) */\n      0xffffffffffffffffffffffffffffffffffffffff\n      and\n        /* \"submissions/0xRue/Day7.sol\":802:810  _friend_ */\n      dup2\n        /* \"submissions/0xRue/Day7.sol\":802:824  _friend_ != address(0) */\n      0xffffffffffffffffffffffffffffffffffffffff\n      and\n      sub\n        /* \"submissions/0xRue/Day7.sol\":794:844  require(_friend_ != address(0), \"Invalid address\") */\n      tag_77\n      jumpi\n      mload(0x40)\n      0x08c379a000000000000000000000000000000000000000000000000000000000\n      dup2\n      mstore\n      0x04\n      add\n      tag_78\n      swap1\n      tag_79\n      jump\t// in\n    tag_78:\n      mload(0x40)\n      dup1\n      swap2\n      sub\n      swap1\n      revert\n    tag_77:\n        /* \"submissions/0xRue/Day7.sol\":864:881  RegisteredFriends */\n      0x02\n        /* \"submissions/0xRue/Day7.sol\":864:891  RegisteredFriends[_friend_] */\n      0x00\n        /* \"submissions/0xRue/Day7.sol\":882:890  _friend_ */\n      dup3\n        /* \"submissions/0xRue/Day7.sol\":864:891  RegisteredFriends[_friend_] */\n      0xffffffffffffffffffffffffffffffffffffffff\n      and\n      0xffffffffffffffffffffffffffffffffffffffff\n      and\n      dup2\n      mstore\n      0x20\n      add\n      swap1\n      dup2\n      mstore\n      0x20\n      add\n      0x00\n      keccak256\n      0x00\n      swap1\n      sload\n      swap1\n      0x0100\n      exp\n      swap1\n      div\n      0xff\n      and\n        /* \"submissions/0xRue/Day7.sol\":863:891  !RegisteredFriends[_friend_] */\n      iszero\n        /* \"submissions/0xRue/Day7.sol\":855:921  require(!RegisteredFriends[_friend_], \"Already added as a friend\") */\n      tag_80\n      jumpi\n      mload(0x40)\n      0x08c379a000000000000000000000000000000000000000000000000000000000\n      dup2\n      mstore\n      0x04\n      add\n      tag_81\n      swap1\n      tag_82\n      jump\t// in\n    tag_81:\n      mload(0x40)\n      dup1\n      swap2\n      sub\n      swap1\n      revert\n    tag_80:\n        /* \"submissions/0xRue/Day7.sol\":962:966  true */\n      0x01\n        /* \"submissions/0xRue/Day7.sol\":932:949  RegisteredFriends */\n      0x02\n        /* \"submissions/0xRue/Day7.sol\":932:959  RegisteredFriends[_friend_] */\n      0x00\n        /* \"submissions/0xRue/Day7.sol\":950:958  _friend_ */\n      dup4\n        /* \"submissions/0xRue/Day7.sol\":932:959  RegisteredFriends[_friend_] */\n      0xffffffffffffffffffffffffffffffffffffffff\n      and\n      0xffffffffffffffffffffffffffffffffffffffff\n      and\n      dup2\n      mstore\n      0x20\n      add\n      swap1\n      dup2\n      mstore\n      0x20\n      add\n      0x00\n      keccak256\n      0x00\n        /* \"submissions/0xRue/Day7.sol\":932:966  RegisteredFriends[_friend_] = true */\n      0x0100\n      exp\n      dup2\n      sload\n      dup2\n      0xff\n      mul\n      not\n      and\n      swap1\n      dup4\n      iszero\n      iszero\n      mul\n      or\n      swap1\n      sstore\n      pop\n        /* \"submissions/0xRue/Day7.sol\":977:987  FriendList */\n      0x01\n        /* \"submissions/0xRue/Day7.sol\":993:1001  _friend_ */\n      dup2\n        /* \"submissions/0xRue/Day7.sol\":977:1002  FriendList.push(_friend_) */\n      swap1\n      dup1\n      0x01\n      dup2\n      sload\n      add\n      dup1\n      dup3\n      sstore\n      dup1\n      swap2\n      pop\n      pop\n      0x01\n      swap1\n      sub\n      swap1\n      0x00\n      mstore\n      keccak256(0x00, 0x20)\n      add\n      0x00\n      swap1\n      swap2\n      swap1\n      swap2\n      swap1\n      swap2\n      0x0100\n      exp\n      dup2\n      sload\n      dup2\n      0xffffffffffffffffffffffffffffffffffffffff\n      mul\n      not\n      and\n      swap1\n      dup4\n      0xffffffffffffffffffffffffffffffffffffffff\n      and\n      mul\n      or\n      swap1\n      sstore\n      pop\n        /* \"submissions/0xRue/Day7.sol\":730:1011  function AddFriend(address _friend_) public OnlyOwner{... */\n      pop\n      jump\t// out\n        /* \"submissions/0xRue/Day7.sol\":1202:1536  function RecordDebt(address _debter_, uint256 _amount_) public OnlyRegistered{... */\n    tag_24:\n        /* \"submissions/0xRue/Day7.sol\":644:661  RegisteredFriends */\n      0x02\n        /* \"submissions/0xRue/Day7.sol\":644:673  RegisteredFriends[msg.sender] */\n      0x00\n        /* \"submissions/0xRue/Day7.sol\":662:672  msg.sender */\n      caller\n        /* \"submissions/0xRue/Day7.sol\":644:673  RegisteredFriends[msg.sender] */\n      0xffffffffffffffffffffffffffffffffffffffff\n      and\n      0xffffffffffffffffffffffffffffffffffffffff\n      and\n      dup2\n      mstore\n      0x20\n      add\n      swap1\n      dup2\n      mstore\n      0x20\n      add\n      0x00\n      keccak256\n      0x00\n      swap1\n      sload\n      swap1\n      0x0100\n      exp\n      swap1\n      div\n      0xff\n      and\n        /* \"submissions/0xRue/Day7.sol\":635:700  require (RegisteredFriends[msg.sender], \"You are not registered\") */\n      tag_85\n      jumpi\n      mload(0x40)\n      0x08c379a000000000000000000000000000000000000000000000000000000000\n      dup2\n      mstore\n      0x04\n      add\n      tag_86\n      swap1\n      tag_87\n      jump\t// in\n    tag_86:\n      mload(0x40)\n      dup1\n      swap2\n      sub\n      swap1\n      revert\n    tag_85:\n        /* \"submissions/0xRue/Day7.sol\":1318:1319  0 */\n      0x00\n        /* \"submissions/0xRue/Day7.sol\":1298:1320  _debter_ != address(0) */\n      0xffffffffffffffffffffffffffffffffffffffff\n      and\n        /* \"submissions/0xRue/Day7.sol\":1298:1306  _debter_ */\n      dup3\n        /* \"submissions/0xRue/Day7.sol\":1298:1320  _debter_ != address(0) */\n      0xffffffffffffffffffffffffffffffffffffffff\n      and\n      sub\n        /* \"submissions/0xRue/Day7.sol\":1290:1340  require(_debter_ != address(0), \"Invalid address\") */\n      tag_89\n      jumpi\n      mload(0x40)\n      0x08c379a000000000000000000000000000000000000000000000000000000000\n      dup2\n      mstore\n      0x04\n      add\n      tag_90\n      swap1\n      tag_79\n      jump\t// in\n    tag_90:\n      mload(0x40)\n      dup1\n      swap2\n      sub\n      swap1\n      revert\n    tag_89:\n        /* \"submissions/0xRue/Day7.sol\":1359:1376  RegisteredFriends */\n      0x02\n        /* \"submissions/0xRue/Day7.sol\":1359:1386  RegisteredFriends[_debter_] */\n      0x00\n        /* \"submissions/0xRue/Day7.sol\":1377:1385  _debter_ */\n      dup4\n        /* \"submissions/0xRue/Day7.sol\":1359:1386  RegisteredFriends[_debter_] */\n      0xffffffffffffffffffffffffffffffffffffffff\n      and\n      0xffffffffffffffffffffffffffffffffffffffff\n      and\n      dup2\n      mstore\n      0x20\n      add\n      swap1\n      dup2\n      mstore\n      0x20\n      add\n      0x00\n      keccak256\n      0x00\n      swap1\n      sload\n      swap1\n      0x0100\n      exp\n      swap1\n      div\n      0xff\n      and\n        /* \"submissions/0xRue/Day7.sol\":1351:1416  require(RegisteredFriends[_debter_], \"Address is not registered\") */\n      tag_91\n      jumpi\n      mload(0x40)\n      0x08c379a000000000000000000000000000000000000000000000000000000000\n      dup2\n      mstore\n      0x04\n      add\n      tag_92\n      swap1\n      tag_93\n      jump\t// in\n    tag_92:\n      mload(0x40)\n      dup1\n      swap2\n      sub\n      swap1\n      revert\n    tag_91:\n        /* \"submissions/0xRue/Day7.sol\":1446:1447  0 */\n      0x00\n        /* \"submissions/0xRue/Day7.sol\":1435:1443  _amount_ */\n      dup2\n        /* \"submissions/0xRue/Day7.sol\":1435:1447  _amount_ > 0 */\n      gt\n        /* \"submissions/0xRue/Day7.sol\":1427:1477  require(_amount_ > 0, \"Must enter a valid amount\") */\n      tag_94\n      jumpi\n      mload(0x40)\n      0x08c379a000000000000000000000000000000000000000000000000000000000\n      dup2\n      mstore\n      0x04\n      add\n      tag_95\n      swap1\n      tag_96\n      jump\t// in\n    tag_95:\n      mload(0x40)\n      dup1\n      swap2\n      sub\n      swap1\n      revert\n    tag_94:\n        /* \"submissions/0xRue/Day7.sol\":1519:1527  _amount_ */\n      dup1\n        /* \"submissions/0xRue/Day7.sol\":1488:1493  debts */\n      0x04\n        /* \"submissions/0xRue/Day7.sol\":1488:1503  debts[_debter_] */\n      0x00\n        /* \"submissions/0xRue/Day7.sol\":1494:1502  _debter_ */\n      dup5\n        /* \"submissions/0xRue/Day7.sol\":1488:1503  debts[_debter_] */\n      0xffffffffffffffffffffffffffffffffffffffff\n      and\n      0xffffffffffffffffffffffffffffffffffffffff\n      and\n      dup2\n      mstore\n      0x20\n      add\n      swap1\n      dup2\n      mstore\n      0x20\n      add\n      0x00\n      keccak256\n        /* \"submissions/0xRue/Day7.sol\":1488:1515  debts[_debter_][msg.sender] */\n      0x00\n        /* \"submissions/0xRue/Day7.sol\":1504:1514  msg.sender */\n      caller\n        /* \"submissions/0xRue/Day7.sol\":1488:1515  debts[_debter_][msg.sender] */\n      0xffffffffffffffffffffffffffffffffffffffff\n      and\n      0xffffffffffffffffffffffffffffffffffffffff\n      and\n      dup2\n      mstore\n      0x20\n      add\n      swap1\n      dup2\n      mstore\n      0x20\n      add\n      0x00\n      keccak256\n      0x00\n        /* \"submissions/0xRue/Day7.sol\":1488:1527  debts[_debter_][msg.sender] += _amount_ */\n      dup3\n      dup3\n      sload\n      tag_97\n      swap2\n      swap1\n      tag_98\n      jump\t// in\n    tag_97:\n      swap3\n      pop\n      pop\n      dup2\n      swap1\n      sstore\n      pop\n        /* \"submissions/0xRue/Day7.sol\":1202:1536  function RecordDebt(address _debter_, uint256 _amount_) public OnlyRegistered{... */\n      pop\n      pop\n      jump\t// out\n        /* \"submissions/0xRue/Day7.sol\":200:244  mapping (address => uint256) public balances */\n    tag_28:\n      mstore(0x20, 0x03)\n      dup1\n      0x00\n      mstore\n      keccak256(0x00, 0x40)\n      0x00\n      swap2\n      pop\n      swap1\n      pop\n      sload\n      dup2\n      jump\t// out\n        /* \"submissions/0xRue/Day7.sol\":3394:3508  function CheckBalance() public view OnlyRegistered returns(uint256){... */\n    tag_33:\n        /* \"submissions/0xRue/Day7.sol\":3453:3460  uint256 */\n      0x00\n        /* \"submissions/0xRue/Day7.sol\":644:661  RegisteredFriends */\n      0x02\n        /* \"submissions/0xRue/Day7.sol\":644:673  RegisteredFriends[msg.sender] */\n      0x00\n        /* \"submissions/0xRue/Day7.sol\":662:672  msg.sender */\n      caller\n        /* \"submissions/0xRue/Day7.sol\":644:673  RegisteredFriends[msg.sender] */\n      0xffffffffffffffffffffffffffffffffffffffff\n      and\n      0xffffffffffffffffffffffffffffffffffffffff\n      and\n      dup2\n      mstore\n      0x20\n      add\n      swap1\n      dup2\n      mstore\n      0x20\n      add\n      0x00\n      keccak256\n      0x00\n      swap1\n      sload\n      swap1\n      0x0100\n      exp\n      swap1\n      div\n      0xff\n      and\n        /* \"submissions/0xRue/Day7.sol\":635:700  require (RegisteredFriends[msg.sender], \"You are not registered\") */\n      tag_100\n      jumpi\n      mload(0x40)\n      0x08c379a000000000000000000000000000000000000000000000000000000000\n      dup2\n      mstore\n      0x04\n      add\n      tag_101\n      swap1\n      tag_87\n      jump\t// in\n    tag_101:\n      mload(0x40)\n      dup1\n      swap2\n      sub\n      swap1\n      revert\n    tag_100:\n        /* \"submissions/0xRue/Day7.sol\":3479:3487  balances */\n      0x03\n        /* \"submissions/0xRue/Day7.sol\":3479:3499  balances[msg.sender] */\n      0x00\n        /* \"submissions/0xRue/Day7.sol\":3488:3498  msg.sender */\n      caller\n        /* \"submissions/0xRue/Day7.sol\":3479:3499  balances[msg.sender] */\n      0xffffffffffffffffffffffffffffffffffffffff\n      and\n      0xffffffffffffffffffffffffffffffffffffffff\n      and\n      dup2\n      mstore\n      0x20\n      add\n      swap1\n      dup2\n      mstore\n      0x20\n      add\n      0x00\n      keccak256\n      sload\n        /* \"submissions/0xRue/Day7.sol\":3472:3499  return balances[msg.sender] */\n      swap1\n      pop\n        /* \"submissions/0xRue/Day7.sol\":3394:3508  function CheckBalance() public view OnlyRegistered returns(uint256){... */\n      swap1\n      jump\t// out\n        /* \"submissions/0xRue/Day7.sol\":252:313  mapping (address => mapping(address => uint256)) public debts */\n    tag_39:\n      mstore(0x20, 0x04)\n      dup2\n      0x00\n      mstore\n      mstore(0x20, keccak256(0x00, 0x40))\n      dup1\n      0x00\n      mstore\n      keccak256(0x00, 0x40)\n      0x00\n      swap2\n      pop\n      swap2\n      pop\n      pop\n      sload\n      dup2\n      jump\t// out\n        /* \"submissions/0xRue/Day7.sol\":2571:3067  function TransferEtherViaCall(address payable _to_,uint256 _amount_) public OnlyRegistered{... */\n    tag_45:\n        /* \"submissions/0xRue/Day7.sol\":644:661  RegisteredFriends */\n      0x02\n        /* \"submissions/0xRue/Day7.sol\":644:673  RegisteredFriends[msg.sender] */\n      0x00\n        /* \"submissions/0xRue/Day7.sol\":662:672  msg.sender */\n      caller\n        /* \"submissions/0xRue/Day7.sol\":644:673  RegisteredFriends[msg.sender] */\n      0xffffffffffffffffffffffffffffffffffffffff\n      and\n      0xffffffffffffffffffffffffffffffffffffffff\n      and\n      dup2\n      mstore\n      0x20\n      add\n      swap1\n      dup2\n      mstore\n      0x20\n      add\n      0x00\n      keccak256\n      0x00\n      swap1\n      sload\n      swap1\n      0x0100\n      exp\n      swap1\n      div\n      0xff\n      and\n        /* \"submissions/0xRue/Day7.sol\":635:700  require (RegisteredFriends[msg.sender], \"You are not registered\") */\n      tag_104\n      jumpi\n      mload(0x40)\n      0x08c379a000000000000000000000000000000000000000000000000000000000\n      dup2\n      mstore\n      0x04\n      add\n      tag_105\n      swap1\n      tag_87\n      jump\t// in\n    tag_105:\n      mload(0x40)\n      dup1\n      swap2\n      sub\n      swap1\n      revert\n    tag_104:\n        /* \"submissions/0xRue/Day7.sol\":2696:2697  0 */\n      0x00\n        /* \"submissions/0xRue/Day7.sol\":2680:2698  _to_ != address(0) */\n      0xffffffffffffffffffffffffffffffffffffffff\n      and\n        /* \"submissions/0xRue/Day7.sol\":2680:2684  _to_ */\n      dup3\n        /* \"submissions/0xRue/Day7.sol\":2680:2698  _to_ != address(0) */\n      0xffffffffffffffffffffffffffffffffffffffff\n      and\n      sub\n        /* \"submissions/0xRue/Day7.sol\":2672:2718  require(_to_ != address(0), \"Invalid address\") */\n      tag_107\n      jumpi\n      mload(0x40)\n      0x08c379a000000000000000000000000000000000000000000000000000000000\n      dup2\n      mstore\n      0x04\n      add\n      tag_108\n      swap1\n      tag_79\n      jump\t// in\n    tag_108:\n      mload(0x40)\n      dup1\n      swap2\n      sub\n      swap1\n      revert\n    tag_107:\n        /* \"submissions/0xRue/Day7.sol\":2737:2754  RegisteredFriends */\n      0x02\n        /* \"submissions/0xRue/Day7.sol\":2737:2760  RegisteredFriends[_to_] */\n      0x00\n        /* \"submissions/0xRue/Day7.sol\":2755:2759  _to_ */\n      dup4\n        /* \"submissions/0xRue/Day7.sol\":2737:2760  RegisteredFriends[_to_] */\n      0xffffffffffffffffffffffffffffffffffffffff\n      and\n      0xffffffffffffffffffffffffffffffffffffffff\n      and\n      dup2\n      mstore\n      0x20\n      add\n      swap1\n      dup2\n      mstore\n      0x20\n      add\n      0x00\n      keccak256\n      0x00\n      swap1\n      sload\n      swap1\n      0x0100\n      exp\n      swap1\n      div\n      0xff\n      and\n        /* \"submissions/0xRue/Day7.sol\":2729:2790  require(RegisteredFriends[_to_], \"Reciepient not registered\") */\n      tag_109\n      jumpi\n      mload(0x40)\n      0x08c379a000000000000000000000000000000000000000000000000000000000\n      dup2\n      mstore\n      0x04\n      add\n      tag_110\n      swap1\n      tag_111\n      jump\t// in\n    tag_110:\n      mload(0x40)\n      dup1\n      swap2\n      sub\n      swap1\n      revert\n    tag_109:\n        /* \"submissions/0xRue/Day7.sol\":2833:2841  _amount_ */\n      dup1\n        /* \"submissions/0xRue/Day7.sol\":2809:2817  balances */\n      0x03\n        /* \"submissions/0xRue/Day7.sol\":2809:2829  balances[msg.sender] */\n      0x00\n        /* \"submissions/0xRue/Day7.sol\":2818:2828  msg.sender */\n      caller\n        /* \"submissions/0xRue/Day7.sol\":2809:2829  balances[msg.sender] */\n      0xffffffffffffffffffffffffffffffffffffffff\n      and\n      0xffffffffffffffffffffffffffffffffffffffff\n      and\n      dup2\n      mstore\n      0x20\n      add\n      swap1\n      dup2\n      mstore\n      0x20\n      add\n      0x00\n      keccak256\n      sload\n        /* \"submissions/0xRue/Day7.sol\":2809:2841  balances[msg.sender] >= _amount_ */\n      lt\n      iszero\n        /* \"submissions/0xRue/Day7.sol\":2801:2866  require(balances[msg.sender] >= _amount_, \"Insufficient balance\") */\n      tag_112\n      jumpi\n      mload(0x40)\n      0x08c379a000000000000000000000000000000000000000000000000000000000\n      dup2\n      mstore\n      0x04\n      add\n      tag_113\n      swap1\n      tag_114\n      jump\t// in\n    tag_113:\n      mload(0x40)\n      dup1\n      swap2\n      sub\n      swap1\n      revert\n    tag_112:\n        /* \"submissions/0xRue/Day7.sol\":2901:2909  _amount_ */\n      dup1\n        /* \"submissions/0xRue/Day7.sol\":2877:2885  balances */\n      0x03\n        /* \"submissions/0xRue/Day7.sol\":2877:2897  balances[msg.sender] */\n      0x00\n        /* \"submissions/0xRue/Day7.sol\":2886:2896  msg.sender */\n      caller\n        /* \"submissions/0xRue/Day7.sol\":2877:2897  balances[msg.sender] */\n      0xffffffffffffffffffffffffffffffffffffffff\n      and\n      0xffffffffffffffffffffffffffffffffffffffff\n      and\n      dup2\n      mstore\n      0x20\n      add\n      swap1\n      dup2\n      mstore\n      0x20\n      add\n      0x00\n      keccak256\n      0x00\n        /* \"submissions/0xRue/Day7.sol\":2877:2909  balances[msg.sender] -= _amount_ */\n      dup3\n      dup3\n      sload\n      tag_115\n      swap2\n      swap1\n      tag_116\n      jump\t// in\n    tag_115:\n      swap3\n      pop\n      pop\n      dup2\n      swap1\n      sstore\n      pop\n        /* \"submissions/0xRue/Day7.sol\":2921:2933  bool success */\n      0x00\n        /* \"submissions/0xRue/Day7.sol\":2938:2942  _to_ */\n      dup3\n        /* \"submissions/0xRue/Day7.sol\":2938:2947  _to_.call */\n      0xffffffffffffffffffffffffffffffffffffffff\n      and\n        /* \"submissions/0xRue/Day7.sol\":2954:2962  _amount_ */\n      dup3\n        /* \"submissions/0xRue/Day7.sol\":2938:2967  _to_.call{value:_amount_}(\"\") */\n      mload(0x40)\n      tag_117\n      swap1\n      tag_118\n      jump\t// in\n    tag_117:\n      0x00\n      mload(0x40)\n      dup1\n      dup4\n      sub\n      dup2\n      dup6\n      dup8\n      gas\n      call\n      swap3\n      pop\n      pop\n      pop\n      returndatasize\n      dup1\n      0x00\n      dup2\n      eq\n      tag_121\n      jumpi\n      mload(0x40)\n      swap2\n      pop\n      and(add(returndatasize, 0x3f), not(0x1f))\n      dup3\n      add\n      0x40\n      mstore\n      returndatasize\n      dup3\n      mstore\n      returndatasize\n      0x00\n      0x20\n      dup5\n      add\n      returndatacopy\n      jump(tag_120)\n    tag_121:\n      0x60\n      swap2\n      pop\n    tag_120:\n      pop\n        /* \"submissions/0xRue/Day7.sol\":2920:2967  (bool success,) = _to_.call{value:_amount_}(\"\") */\n      pop\n      swap1\n      pop\n        /* \"submissions/0xRue/Day7.sol\":2995:3003  _amount_ */\n      dup2\n        /* \"submissions/0xRue/Day7.sol\":2978:2986  balances */\n      0x03\n        /* \"submissions/0xRue/Day7.sol\":2978:2992  balances[_to_] */\n      0x00\n        /* \"submissions/0xRue/Day7.sol\":2987:2991  _to_ */\n      dup6\n        /* \"submissions/0xRue/Day7.sol\":2978:2992  balances[_to_] */\n      0xffffffffffffffffffffffffffffffffffffffff\n      and\n      0xffffffffffffffffffffffffffffffffffffffff\n      and\n      dup2\n      mstore\n      0x20\n      add\n      swap1\n      dup2\n      mstore\n      0x20\n      add\n      0x00\n      keccak256\n      0x00\n        /* \"submissions/0xRue/Day7.sol\":2978:3003  balances[_to_] +=_amount_ */\n      dup3\n      dup3\n      sload\n      tag_122\n      swap2\n      swap1\n      tag_98\n      jump\t// in\n    tag_122:\n      swap3\n      pop\n      pop\n      dup2\n      swap1\n      sstore\n      pop\n        /* \"submissions/0xRue/Day7.sol\":3022:3029  success */\n      dup1\n        /* \"submissions/0xRue/Day7.sol\":3014:3058  require(success, \"Failed to transfer Ether\") */\n      tag_123\n      jumpi\n      mload(0x40)\n      0x08c379a000000000000000000000000000000000000000000000000000000000\n      dup2\n      mstore\n      0x04\n      add\n      tag_124\n      swap1\n      tag_125\n      jump\t// in\n    tag_124:\n      mload(0x40)\n      dup1\n      swap2\n      sub\n      swap1\n      revert\n    tag_123:\n        /* \"submissions/0xRue/Day7.sol\":2661:3067  {... */\n      pop\n        /* \"submissions/0xRue/Day7.sol\":2571:3067  function TransferEtherViaCall(address payable _to_,uint256 _amount_) public OnlyRegistered{... */\n      pop\n      pop\n      jump\t// out\n        /* \"submissions/0xRue/Day7.sol\":3076:3385  function Withdraw(uint256 _amount_) public OnlyRegistered{... */\n    tag_50:\n        /* \"submissions/0xRue/Day7.sol\":644:661  RegisteredFriends */\n      0x02\n        /* \"submissions/0xRue/Day7.sol\":644:673  RegisteredFriends[msg.sender] */\n      0x00\n        /* \"submissions/0xRue/Day7.sol\":662:672  msg.sender */\n      caller\n        /* \"submissions/0xRue/Day7.sol\":644:673  RegisteredFriends[msg.sender] */\n      0xffffffffffffffffffffffffffffffffffffffff\n      and\n      0xffffffffffffffffffffffffffffffffffffffff\n      and\n      dup2\n      mstore\n      0x20\n      add\n      swap1\n      dup2\n      mstore\n      0x20\n      add\n      0x00\n      keccak256\n      0x00\n      swap1\n      sload\n      swap1\n      0x0100\n      exp\n      swap1\n      div\n      0xff\n      and\n        /* \"submissions/0xRue/Day7.sol\":635:700  require (RegisteredFriends[msg.sender], \"You are not registered\") */\n      tag_127\n      jumpi\n      mload(0x40)\n      0x08c379a000000000000000000000000000000000000000000000000000000000\n      dup2\n      mstore\n      0x04\n      add\n      tag_128\n      swap1\n      tag_87\n      jump\t// in\n    tag_128:\n      mload(0x40)\n      dup1\n      swap2\n      sub\n      swap1\n      revert\n    tag_127:\n        /* \"submissions/0xRue/Day7.sol\":3176:3184  _amount_ */\n      dup1\n        /* \"submissions/0xRue/Day7.sol\":3152:3160  balances */\n      0x03\n        /* \"submissions/0xRue/Day7.sol\":3152:3172  balances[msg.sender] */\n      0x00\n        /* \"submissions/0xRue/Day7.sol\":3161:3171  msg.sender */\n      caller\n        /* \"submissions/0xRue/Day7.sol\":3152:3172  balances[msg.sender] */\n      0xffffffffffffffffffffffffffffffffffffffff\n      and\n      0xffffffffffffffffffffffffffffffffffffffff\n      and\n      dup2\n      mstore\n      0x20\n      add\n      swap1\n      dup2\n      mstore\n      0x20\n      add\n      0x00\n      keccak256\n      sload\n        /* \"submissions/0xRue/Day7.sol\":3152:3184  balances[msg.sender] >= _amount_ */\n      lt\n      iszero\n        /* \"submissions/0xRue/Day7.sol\":3144:3209  require(balances[msg.sender] >= _amount_, \"Insufficient balance\") */\n      tag_130\n      jumpi\n      mload(0x40)\n      0x08c379a000000000000000000000000000000000000000000000000000000000\n      dup2\n      mstore\n      0x04\n      add\n      tag_131\n      swap1\n      tag_114\n      jump\t// in\n    tag_131:\n      mload(0x40)\n      dup1\n      swap2\n      sub\n      swap1\n      revert\n    tag_130:\n        /* \"submissions/0xRue/Day7.sol\":3244:3252  _amount_ */\n      dup1\n        /* \"submissions/0xRue/Day7.sol\":3220:3228  balances */\n      0x03\n        /* \"submissions/0xRue/Day7.sol\":3220:3240  balances[msg.sender] */\n      0x00\n        /* \"submissions/0xRue/Day7.sol\":3229:3239  msg.sender */\n      caller\n        /* \"submissions/0xRue/Day7.sol\":3220:3240  balances[msg.sender] */\n      0xffffffffffffffffffffffffffffffffffffffff\n      and\n      0xffffffffffffffffffffffffffffffffffffffff\n      and\n      dup2\n      mstore\n      0x20\n      add\n      swap1\n      dup2\n      mstore\n      0x20\n      add\n      0x00\n      keccak256\n      0x00\n        /* \"submissions/0xRue/Day7.sol\":3220:3252  balances[msg.sender] -= _amount_ */\n      dup3\n      dup3\n      sload\n      tag_132\n      swap2\n      swap1\n      tag_116\n      jump\t// in\n    tag_132:\n      swap3\n      pop\n      pop\n      dup2\n      swap1\n      sstore\n      pop\n        /* \"submissions/0xRue/Day7.sol\":3264:3276  bool success */\n      0x00\n        /* \"submissions/0xRue/Day7.sol\":3290:3300  msg.sender */\n      caller\n        /* \"submissions/0xRue/Day7.sol\":3281:3306  payable (msg.sender).call */\n      0xffffffffffffffffffffffffffffffffffffffff\n      and\n        /* \"submissions/0xRue/Day7.sol\":3314:3322  _amount_ */\n      dup3\n        /* \"submissions/0xRue/Day7.sol\":3281:3327  payable (msg.sender).call{value: _amount_}(\"\") */\n      mload(0x40)\n      tag_133\n      swap1\n      tag_118\n      jump\t// in\n    tag_133:\n      0x00\n      mload(0x40)\n      dup1\n      dup4\n      sub\n      dup2\n      dup6\n      dup8\n      gas\n      call\n      swap3\n      pop\n      pop\n      pop\n      returndatasize\n      dup1\n      0x00\n      dup2\n      eq\n      tag_136\n      jumpi\n      mload(0x40)\n      swap2\n      pop\n      and(add(returndatasize, 0x3f), not(0x1f))\n      dup3\n      add\n      0x40\n      mstore\n      returndatasize\n      dup3\n      mstore\n      returndatasize\n      0x00\n      0x20\n      dup5\n      add\n      returndatacopy\n      jump(tag_135)\n    tag_136:\n      0x60\n      swap2\n      pop\n    tag_135:\n      pop\n        /* \"submissions/0xRue/Day7.sol\":3263:3327  (bool success,) = payable (msg.sender).call{value: _amount_}(\"\") */\n      pop\n      swap1\n      pop\n        /* \"submissions/0xRue/Day7.sol\":3346:3353  success */\n      dup1\n        /* \"submissions/0xRue/Day7.sol\":3338:3376  require(success, \"Failed to withdraw\") */\n      tag_137\n      jumpi\n      mload(0x40)\n      0x08c379a000000000000000000000000000000000000000000000000000000000\n      dup2\n      mstore\n      0x04\n      add\n      tag_138\n      swap1\n      tag_139\n      jump\t// in\n    tag_138:\n      mload(0x40)\n      dup1\n      swap2\n      sub\n      swap1\n      revert\n    tag_137:\n        /* \"submissions/0xRue/Day7.sol\":3133:3385  {... */\n      pop\n        /* \"submissions/0xRue/Day7.sol\":3076:3385  function Withdraw(uint256 _amount_) public OnlyRegistered{... */\n      pop\n      jump\t// out\n        /* \"submissions/0xRue/Day7.sol\":1020:1193  function DepositIntoWallet() public payable OnlyRegistered{... */\n    tag_52:\n        /* \"submissions/0xRue/Day7.sol\":644:661  RegisteredFriends */\n      0x02\n        /* \"submissions/0xRue/Day7.sol\":644:673  RegisteredFriends[msg.sender] */\n      0x00\n        /* \"submissions/0xRue/Day7.sol\":662:672  msg.sender */\n      caller\n        /* \"submissions/0xRue/Day7.sol\":644:673  RegisteredFriends[msg.sender] */\n      0xffffffffffffffffffffffffffffffffffffffff\n      and\n      0xffffffffffffffffffffffffffffffffffffffff\n      and\n      dup2\n      mstore\n      0x20\n      add\n      swap1\n      dup2\n      mstore\n      0x20\n      add\n      0x00\n      keccak256\n      0x00\n      swap1\n      sload\n      swap1\n      0x0100\n      exp\n      swap1\n      div\n      0xff\n      and\n        /* \"submissions/0xRue/Day7.sol\":635:700  require (RegisteredFriends[msg.sender], \"You are not registered\") */\n      tag_141\n      jumpi\n      mload(0x40)\n      0x08c379a000000000000000000000000000000000000000000000000000000000\n      dup2\n      mstore\n      0x04\n      add\n      tag_142\n      swap1\n      tag_87\n      jump\t// in\n    tag_142:\n      mload(0x40)\n      dup1\n      swap2\n      sub\n      swap1\n      revert\n    tag_141:\n        /* \"submissions/0xRue/Day7.sol\":1109:1110  0 */\n      0x00\n        /* \"submissions/0xRue/Day7.sol\":1097:1106  msg.value */\n      callvalue\n        /* \"submissions/0xRue/Day7.sol\":1097:1110  msg.value > 0 */\n      gt\n        /* \"submissions/0xRue/Day7.sol\":1089:1140  require(msg.value > 0, \"Must enter a valid amount\") */\n      tag_144\n      jumpi\n      mload(0x40)\n      0x08c379a000000000000000000000000000000000000000000000000000000000\n      dup2\n      mstore\n      0x04\n      add\n      tag_145\n      swap1\n      tag_96\n      jump\t// in\n    tag_145:\n      mload(0x40)\n      dup1\n      swap2\n      sub\n      swap1\n      revert\n    tag_144:\n        /* \"submissions/0xRue/Day7.sol\":1175:1184  msg.value */\n      callvalue\n        /* \"submissions/0xRue/Day7.sol\":1151:1159  balances */\n      0x03\n        /* \"submissions/0xRue/Day7.sol\":1151:1171  balances[msg.sender] */\n      0x00\n        /* \"submissions/0xRue/Day7.sol\":1160:1170  msg.sender */\n      caller\n        /* \"submissions/0xRue/Day7.sol\":1151:1171  balances[msg.sender] */\n      0xffffffffffffffffffffffffffffffffffffffff\n      and\n      0xffffffffffffffffffffffffffffffffffffffff\n      and\n      dup2\n      mstore\n      0x20\n      add\n      swap1\n      dup2\n      mstore\n      0x20\n      add\n      0x00\n      keccak256\n      0x00\n        /* \"submissions/0xRue/Day7.sol\":1151:1184  balances[msg.sender] += msg.value */\n      dup3\n      dup3\n      sload\n      tag_146\n      swap2\n      swap1\n      tag_98\n      jump\t// in\n    tag_146:\n      swap3\n      pop\n      pop\n      dup2\n      swap1\n      sstore\n      pop\n        /* \"submissions/0xRue/Day7.sol\":1020:1193  function DepositIntoWallet() public payable OnlyRegistered{... */\n      jump\t// out\n        /* \"submissions/0xRue/Day7.sol\":1545:2143  function PayFromWallet(address _creditor_, uint256 _amount_) public OnlyRegistered{... */\n    tag_56:\n        /* \"submissions/0xRue/Day7.sol\":644:661  RegisteredFriends */\n      0x02\n        /* \"submissions/0xRue/Day7.sol\":644:673  RegisteredFriends[msg.sender] */\n      0x00\n        /* \"submissions/0xRue/Day7.sol\":662:672  msg.sender */\n      caller\n        /* \"submissions/0xRue/Day7.sol\":644:673  RegisteredFriends[msg.sender] */\n      0xffffffffffffffffffffffffffffffffffffffff\n      and\n      0xffffffffffffffffffffffffffffffffffffffff\n      and\n      dup2\n      mstore\n      0x20\n      add\n      swap1\n      dup2\n      mstore\n      0x20\n      add\n      0x00\n      keccak256\n      0x00\n      swap1\n      sload\n      swap1\n      0x0100\n      exp\n      swap1\n      div\n      0xff\n      and\n        /* \"submissions/0xRue/Day7.sol\":635:700  require (RegisteredFriends[msg.sender], \"You are not registered\") */\n      tag_148\n      jumpi\n      mload(0x40)\n      0x08c379a000000000000000000000000000000000000000000000000000000000\n      dup2\n      mstore\n      0x04\n      add\n      tag_149\n      swap1\n      tag_87\n      jump\t// in\n    tag_149:\n      mload(0x40)\n      dup1\n      swap2\n      sub\n      swap1\n      revert\n    tag_148:\n        /* \"submissions/0xRue/Day7.sol\":1668:1669  0 */\n      0x00\n        /* \"submissions/0xRue/Day7.sol\":1646:1670  _creditor_ != address(0) */\n      0xffffffffffffffffffffffffffffffffffffffff\n      and\n        /* \"submissions/0xRue/Day7.sol\":1646:1656  _creditor_ */\n      dup3\n        /* \"submissions/0xRue/Day7.sol\":1646:1670  _creditor_ != address(0) */\n      0xffffffffffffffffffffffffffffffffffffffff\n      and\n      sub\n        /* \"submissions/0xRue/Day7.sol\":1638:1690  require(_creditor_ != address(0), \"Invalid address\") */\n      tag_151\n      jumpi\n      mload(0x40)\n      0x08c379a000000000000000000000000000000000000000000000000000000000\n      dup2\n      mstore\n      0x04\n      add\n      tag_152\n      swap1\n      tag_79\n      jump\t// in\n    tag_152:\n      mload(0x40)\n      dup1\n      swap2\n      sub\n      swap1\n      revert\n    tag_151:\n        /* \"submissions/0xRue/Day7.sol\":1709:1726  RegisteredFriends */\n      0x02\n        /* \"submissions/0xRue/Day7.sol\":1709:1738  RegisteredFriends[_creditor_] */\n      0x00\n        /* \"submissions/0xRue/Day7.sol\":1727:1737  _creditor_ */\n      dup4\n        /* \"submissions/0xRue/Day7.sol\":1709:1738  RegisteredFriends[_creditor_] */\n      0xffffffffffffffffffffffffffffffffffffffff\n      and\n      0xffffffffffffffffffffffffffffffffffffffff\n      and\n      dup2\n      mstore\n      0x20\n      add\n      swap1\n      dup2\n      mstore\n      0x20\n      add\n      0x00\n      keccak256\n      0x00\n      swap1\n      sload\n      swap1\n      0x0100\n      exp\n      swap1\n      div\n      0xff\n      and\n        /* \"submissions/0xRue/Day7.sol\":1701:1766  require(RegisteredFriends[_creditor_], \"Creditor not registered\") */\n      tag_153\n      jumpi\n      mload(0x40)\n      0x08c379a000000000000000000000000000000000000000000000000000000000\n      dup2\n      mstore\n      0x04\n      add\n      tag_154\n      swap1\n      tag_155\n      jump\t// in\n    tag_154:\n      mload(0x40)\n      dup1\n      swap2\n      sub\n      swap1\n      revert\n    tag_153:\n        /* \"submissions/0xRue/Day7.sol\":1796:1797  0 */\n      0x00\n        /* \"submissions/0xRue/Day7.sol\":1785:1793  _amount_ */\n      dup2\n        /* \"submissions/0xRue/Day7.sol\":1785:1797  _amount_ > 0 */\n      gt\n        /* \"submissions/0xRue/Day7.sol\":1777:1831  require(_amount_ > 0, \"Amount must be greater than 0\") */\n      tag_156\n      jumpi\n      mload(0x40)\n      0x08c379a000000000000000000000000000000000000000000000000000000000\n      dup2\n      mstore\n      0x04\n      add\n      tag_157\n      swap1\n      tag_158\n      jump\t// in\n    tag_157:\n      mload(0x40)\n      dup1\n      swap2\n      sub\n      swap1\n      revert\n    tag_156:\n        /* \"submissions/0xRue/Day7.sol\":1883:1891  _amount_ */\n      dup1\n        /* \"submissions/0xRue/Day7.sol\":1850:1855  debts */\n      0x04\n        /* \"submissions/0xRue/Day7.sol\":1850:1867  debts[_creditor_] */\n      0x00\n        /* \"submissions/0xRue/Day7.sol\":1856:1866  _creditor_ */\n      dup5\n        /* \"submissions/0xRue/Day7.sol\":1850:1867  debts[_creditor_] */\n      0xffffffffffffffffffffffffffffffffffffffff\n      and\n      0xffffffffffffffffffffffffffffffffffffffff\n      and\n      dup2\n      mstore\n      0x20\n      add\n      swap1\n      dup2\n      mstore\n      0x20\n      add\n      0x00\n      keccak256\n        /* \"submissions/0xRue/Day7.sol\":1850:1879  debts[_creditor_][msg.sender] */\n      0x00\n        /* \"submissions/0xRue/Day7.sol\":1868:1878  msg.sender */\n      caller\n        /* \"submissions/0xRue/Day7.sol\":1850:1879  debts[_creditor_][msg.sender] */\n      0xffffffffffffffffffffffffffffffffffffffff\n      and\n      0xffffffffffffffffffffffffffffffffffffffff\n      and\n      dup2\n      mstore\n      0x20\n      add\n      swap1\n      dup2\n      mstore\n      0x20\n      add\n      0x00\n      keccak256\n      sload\n        /* \"submissions/0xRue/Day7.sol\":1850:1891  debts[_creditor_][msg.sender] >= _amount_ */\n      lt\n      iszero\n        /* \"submissions/0xRue/Day7.sol\":1842:1920  require(debts[_creditor_][msg.sender] >= _amount_, \"Debt amount is incorrect\") */\n      tag_159\n      jumpi\n      mload(0x40)\n      0x08c379a000000000000000000000000000000000000000000000000000000000\n      dup2\n      mstore\n      0x04\n      add\n      tag_160\n      swap1\n      tag_161\n      jump\t// in\n    tag_160:\n      mload(0x40)\n      dup1\n      swap2\n      sub\n      swap1\n      revert\n    tag_159:\n        /* \"submissions/0xRue/Day7.sol\":1963:1971  _amount_ */\n      dup1\n        /* \"submissions/0xRue/Day7.sol\":1939:1947  balances */\n      0x03\n        /* \"submissions/0xRue/Day7.sol\":1939:1959  balances[msg.sender] */\n      0x00\n        /* \"submissions/0xRue/Day7.sol\":1948:1958  msg.sender */\n      caller\n        /* \"submissions/0xRue/Day7.sol\":1939:1959  balances[msg.sender] */\n      0xffffffffffffffffffffffffffffffffffffffff\n      and\n      0xffffffffffffffffffffffffffffffffffffffff\n      and\n      dup2\n      mstore\n      0x20\n      add\n      swap1\n      dup2\n      mstore\n      0x20\n      add\n      0x00\n      keccak256\n      sload\n        /* \"submissions/0xRue/Day7.sol\":1939:1971  balances[msg.sender] >= _amount_ */\n      lt\n      iszero\n        /* \"submissions/0xRue/Day7.sol\":1931:1996  require(balances[msg.sender] >= _amount_, \"Insufficient balance\") */\n      tag_162\n      jumpi\n      mload(0x40)\n      0x08c379a000000000000000000000000000000000000000000000000000000000\n      dup2\n      mstore\n      0x04\n      add\n      tag_163\n      swap1\n      tag_114\n      jump\t// in\n    tag_163:\n      mload(0x40)\n      dup1\n      swap2\n      sub\n      swap1\n      revert\n    tag_162:\n        /* \"submissions/0xRue/Day7.sol\":2031:2039  _amount_ */\n      dup1\n        /* \"submissions/0xRue/Day7.sol\":2007:2015  balances */\n      0x03\n        /* \"submissions/0xRue/Day7.sol\":2007:2027  balances[msg.sender] */\n      0x00\n        /* \"submissions/0xRue/Day7.sol\":2016:2026  msg.sender */\n      caller\n        /* \"submissions/0xRue/Day7.sol\":2007:2027  balances[msg.sender] */\n      0xffffffffffffffffffffffffffffffffffffffff\n      and\n      0xffffffffffffffffffffffffffffffffffffffff\n      and\n      dup2\n      mstore\n      0x20\n      add\n      swap1\n      dup2\n      mstore\n      0x20\n      add\n      0x00\n      keccak256\n      0x00\n        /* \"submissions/0xRue/Day7.sol\":2007:2039  balances[msg.sender] -= _amount_ */\n      dup3\n      dup3\n      sload\n      tag_164\n      swap2\n      swap1\n      tag_116\n      jump\t// in\n    tag_164:\n      swap3\n      pop\n      pop\n      dup2\n      swap1\n      sstore\n      pop\n        /* \"submissions/0xRue/Day7.sol\":2074:2082  _amount_ */\n      dup1\n        /* \"submissions/0xRue/Day7.sol\":2050:2058  balances */\n      0x03\n        /* \"submissions/0xRue/Day7.sol\":2050:2070  balances[_creditor_] */\n      0x00\n        /* \"submissions/0xRue/Day7.sol\":2059:2069  _creditor_ */\n      dup5\n        /* \"submissions/0xRue/Day7.sol\":2050:2070  balances[_creditor_] */\n      0xffffffffffffffffffffffffffffffffffffffff\n      and\n      0xffffffffffffffffffffffffffffffffffffffff\n      and\n      dup2\n      mstore\n      0x20\n      add\n      swap1\n      dup2\n      mstore\n      0x20\n      add\n      0x00\n      keccak256\n      0x00\n        /* \"submissions/0xRue/Day7.sol\":2050:2082  balances[_creditor_] += _amount_ */\n      dup3\n      dup3\n      sload\n      tag_165\n      swap2\n      swap1\n      tag_98\n      jump\t// in\n    tag_165:\n      swap3\n      pop\n      pop\n      dup2\n      swap1\n      sstore\n      pop\n        /* \"submissions/0xRue/Day7.sol\":2126:2134  _amount_ */\n      dup1\n        /* \"submissions/0xRue/Day7.sol\":2093:2098  debts */\n      0x04\n        /* \"submissions/0xRue/Day7.sol\":2093:2110  debts[_creditor_] */\n      0x00\n        /* \"submissions/0xRue/Day7.sol\":2099:2109  _creditor_ */\n      dup5\n        /* \"submissions/0xRue/Day7.sol\":2093:2110  debts[_creditor_] */\n      0xffffffffffffffffffffffffffffffffffffffff\n      and\n      0xffffffffffffffffffffffffffffffffffffffff\n      and\n      dup2\n      mstore\n      0x20\n      add\n      swap1\n      dup2\n      mstore\n      0x20\n      add\n      0x00\n      keccak256\n        /* \"submissions/0xRue/Day7.sol\":2093:2122  debts[_creditor_][msg.sender] */\n      0x00\n        /* \"submissions/0xRue/Day7.sol\":2111:2121  msg.sender */\n      caller\n        /* \"submissions/0xRue/Day7.sol\":2093:2122  debts[_creditor_][msg.sender] */\n      0xffffffffffffffffffffffffffffffffffffffff\n      and\n      0xffffffffffffffffffffffffffffffffffffffff\n      and\n      dup2\n      mstore\n      0x20\n      add\n      swap1\n      dup2\n      mstore\n      0x20\n      add\n      0x00\n      keccak256\n      0x00\n        /* \"submissions/0xRue/Day7.sol\":2093:2134  debts[_creditor_][msg.sender] -= _amount_ */\n      dup3\n      dup3\n      sload\n      tag_166\n      swap2\n      swap1\n      tag_116\n      jump\t// in\n    tag_166:\n      swap3\n      pop\n      pop\n      dup2\n      swap1\n      sstore\n      pop\n        /* \"submissions/0xRue/Day7.sol\":1545:2143  function PayFromWallet(address _creditor_, uint256 _amount_) public OnlyRegistered{... */\n      pop\n      pop\n      jump\t// out\n        /* \"submissions/0xRue/Day7.sol\":142:192  mapping (address => bool) public RegisteredFriends */\n    tag_60:\n      mstore(0x20, 0x02)\n      dup1\n      0x00\n      mstore\n      keccak256(0x00, 0x40)\n      0x00\n      swap2\n      pop\n      sload\n      swap1\n      0x0100\n      exp\n      swap1\n      div\n      0xff\n      and\n      dup2\n      jump\t// out\n        /* \"submissions/0xRue/Day7.sol\":2152:2562  function TransferEther(address payable _to_,uint256 _amount_) public OnlyRegistered{... */\n    tag_66:\n        /* \"submissions/0xRue/Day7.sol\":644:661  RegisteredFriends */\n      0x02\n        /* \"submissions/0xRue/Day7.sol\":644:673  RegisteredFriends[msg.sender] */\n      0x00\n        /* \"submissions/0xRue/Day7.sol\":662:672  msg.sender */\n      caller\n        /* \"submissions/0xRue/Day7.sol\":644:673  RegisteredFriends[msg.sender] */\n      0xffffffffffffffffffffffffffffffffffffffff\n      and\n      0xffffffffffffffffffffffffffffffffffffffff\n      and\n      dup2\n      mstore\n      0x20\n      add\n      swap1\n      dup2\n      mstore\n      0x20\n      add\n      0x00\n      keccak256\n      0x00\n      swap1\n      sload\n      swap1\n      0x0100\n      exp\n      swap1\n      div\n      0xff\n      and\n        /* \"submissions/0xRue/Day7.sol\":635:700  require (RegisteredFriends[msg.sender], \"You are not registered\") */\n      tag_168\n      jumpi\n      mload(0x40)\n      0x08c379a000000000000000000000000000000000000000000000000000000000\n      dup2\n      mstore\n      0x04\n      add\n      tag_169\n      swap1\n      tag_87\n      jump\t// in\n    tag_169:\n      mload(0x40)\n      dup1\n      swap2\n      sub\n      swap1\n      revert\n    tag_168:\n        /* \"submissions/0xRue/Day7.sol\":2270:2271  0 */\n      0x00\n        /* \"submissions/0xRue/Day7.sol\":2254:2272  _to_ != address(0) */\n      0xffffffffffffffffffffffffffffffffffffffff\n      and\n        /* \"submissions/0xRue/Day7.sol\":2254:2258  _to_ */\n      dup3\n        /* \"submissions/0xRue/Day7.sol\":2254:2272  _to_ != address(0) */\n      0xffffffffffffffffffffffffffffffffffffffff\n      and\n      sub\n        /* \"submissions/0xRue/Day7.sol\":2246:2292  require(_to_ != address(0), \"Invalid address\") */\n      tag_171\n      jumpi\n      mload(0x40)\n      0x08c379a000000000000000000000000000000000000000000000000000000000\n      dup2\n      mstore\n      0x04\n      add\n      tag_172\n      swap1\n      tag_79\n      jump\t// in\n    tag_172:\n      mload(0x40)\n      dup1\n      swap2\n      sub\n      swap1\n      revert\n    tag_171:\n        /* \"submissions/0xRue/Day7.sol\":2311:2328  RegisteredFriends */\n      0x02\n        /* \"submissions/0xRue/Day7.sol\":2311:2334  RegisteredFriends[_to_] */\n      0x00\n        /* \"submissions/0xRue/Day7.sol\":2329:2333  _to_ */\n      dup4\n        /* \"submissions/0xRue/Day7.sol\":2311:2334  RegisteredFriends[_to_] */\n      0xffffffffffffffffffffffffffffffffffffffff\n      and\n      0xffffffffffffffffffffffffffffffffffffffff\n      and\n      dup2\n      mstore\n      0x20\n      add\n      swap1\n      dup2\n      mstore\n      0x20\n      add\n      0x00\n      keccak256\n      0x00\n      swap1\n      sload\n      swap1\n      0x0100\n      exp\n      swap1\n      div\n      0xff\n      and\n        /* \"submissions/0xRue/Day7.sol\":2303:2364  require(RegisteredFriends[_to_], \"Reciepient not registered\") */\n      tag_173\n      jumpi\n      mload(0x40)\n      0x08c379a000000000000000000000000000000000000000000000000000000000\n      dup2\n      mstore\n      0x04\n      add\n      tag_174\n      swap1\n      tag_111\n      jump\t// in\n    tag_174:\n      mload(0x40)\n      dup1\n      swap2\n      sub\n      swap1\n      revert\n    tag_173:\n        /* \"submissions/0xRue/Day7.sol\":2407:2415  _amount_ */\n      dup1\n        /* \"submissions/0xRue/Day7.sol\":2383:2391  balances */\n      0x03\n        /* \"submissions/0xRue/Day7.sol\":2383:2403  balances[msg.sender] */\n      0x00\n        /* \"submissions/0xRue/Day7.sol\":2392:2402  msg.sender */\n      caller\n        /* \"submissions/0xRue/Day7.sol\":2383:2403  balances[msg.sender] */\n      0xffffffffffffffffffffffffffffffffffffffff\n      and\n      0xffffffffffffffffffffffffffffffffffffffff\n      and\n      dup2\n      mstore\n      0x20\n      add\n      swap1\n      dup2\n      mstore\n      0x20\n      add\n      0x00\n      keccak256\n      sload\n        /* \"submissions/0xRue/Day7.sol\":2383:2415  balances[msg.sender] >= _amount_ */\n      lt\n      iszero\n        /* \"submissions/0xRue/Day7.sol\":2375:2440  require(balances[msg.sender] >= _amount_, \"Insufficient balance\") */\n      tag_175\n      jumpi\n      mload(0x40)\n      0x08c379a000000000000000000000000000000000000000000000000000000000\n      dup2\n      mstore\n      0x04\n      add\n      tag_176\n      swap1\n      tag_114\n      jump\t// in\n    tag_176:\n      mload(0x40)\n      dup1\n      swap2\n      sub\n      swap1\n      revert\n    tag_175:\n        /* \"submissions/0xRue/Day7.sol\":2475:2483  _amount_ */\n      dup1\n        /* \"submissions/0xRue/Day7.sol\":2451:2459  balances */\n      0x03\n        /* \"submissions/0xRue/Day7.sol\":2451:2471  balances[msg.sender] */\n      0x00\n        /* \"submissions/0xRue/Day7.sol\":2460:2470  msg.sender */\n      caller\n        /* \"submissions/0xRue/Day7.sol\":2451:2471  balances[msg.sender] */\n      0xffffffffffffffffffffffffffffffffffffffff\n      and\n      0xffffffffffffffffffffffffffffffffffffffff\n      and\n      dup2\n      mstore\n      0x20\n      add\n      swap1\n      dup2\n      mstore\n      0x20\n      add\n      0x00\n      keccak256\n      0x00\n        /* \"submissions/0xRue/Day7.sol\":2451:2483  balances[msg.sender] -= _amount_ */\n      dup3\n      dup3\n      sload\n      tag_177\n      swap2\n      swap1\n      tag_116\n      jump\t// in\n    tag_177:\n      swap3\n      pop\n      pop\n      dup2\n      swap1\n      sstore\n      pop\n        /* \"submissions/0xRue/Day7.sol\":2494:2498  _to_ */\n      dup2\n        /* \"submissions/0xRue/Day7.sol\":2494:2507  _to_.transfer */\n      0xffffffffffffffffffffffffffffffffffffffff\n      and\n        /* \"submissions/0xRue/Day7.sol\":2494:2517  _to_.transfer(_amount_) */\n      0x08fc\n        /* \"submissions/0xRue/Day7.sol\":2508:2516  _amount_ */\n      dup3\n        /* \"submissions/0xRue/Day7.sol\":2494:2517  _to_.transfer(_amount_) */\n      swap1\n      dup2\n      iszero\n      mul\n      swap1\n      mload(0x40)\n      0x00\n      mload(0x40)\n      dup1\n      dup4\n      sub\n      dup2\n      dup6\n      dup9\n      dup9\n      call\n      swap4\n      pop\n      pop\n      pop\n      pop\n      iszero\n      dup1\n      iszero\n      tag_179\n      jumpi\n      returndatacopy(0x00, 0x00, returndatasize)\n      revert(0x00, returndatasize)\n    tag_179:\n      pop\n        /* \"submissions/0xRue/Day7.sol\":2545:2553  _amount_ */\n      dup1\n        /* \"submissions/0xRue/Day7.sol\":2528:2536  balances */\n      0x03\n        /* \"submissions/0xRue/Day7.sol\":2528:2542  balances[_to_] */\n      0x00\n        /* \"submissions/0xRue/Day7.sol\":2537:2541  _to_ */\n      dup5\n        /* \"submissions/0xRue/Day7.sol\":2528:2542  balances[_to_] */\n      0xffffffffffffffffffffffffffffffffffffffff\n      and\n      0xffffffffffffffffffffffffffffffffffffffff\n      and\n      dup2\n      mstore\n      0x20\n      add\n      swap1\n      dup2\n      mstore\n      0x20\n      add\n      0x00\n      keccak256\n      0x00\n        /* \"submissions/0xRue/Day7.sol\":2528:2553  balances[_to_] +=_amount_ */\n      dup3\n      dup3\n      sload\n      tag_180\n      swap2\n      swap1\n      tag_98\n      jump\t// in\n    tag_180:\n      swap3\n      pop\n      pop\n      dup2\n      swap1\n      sstore\n      pop\n        /* \"submissions/0xRue/Day7.sol\":2152:2562  function TransferEther(address payable _to_,uint256 _amount_) public OnlyRegistered{... */\n      pop\n      pop\n      jump\t// out\n        /* \"submissions/0xRue/Day7.sol\":85:105  address public Owner */\n    tag_69:\n      0x00\n      0x00\n      swap1\n      sload\n      swap1\n      0x0100\n      exp\n      swap1\n      div\n      0xffffffffffffffffffffffffffffffffffffffff\n      and\n      dup2\n      jump\t// out\n        /* \"#utility.yul\":88:205   */\n    tag_182:\n        /* \"#utility.yul\":197:198   */\n      0x00\n        /* \"#utility.yul\":194:195   */\n      0x00\n        /* \"#utility.yul\":187:199   */\n      revert\n        /* \"#utility.yul\":334:460   */\n    tag_184:\n        /* \"#utility.yul\":371:378   */\n      0x00\n        /* \"#utility.yul\":411:453   */\n      0xffffffffffffffffffffffffffffffffffffffff\n        /* \"#utility.yul\":404:409   */\n      dup3\n        /* \"#utility.yul\":400:454   */\n      and\n        /* \"#utility.yul\":389:454   */\n      swap1\n      pop\n        /* \"#utility.yul\":334:460   */\n      swap2\n      swap1\n      pop\n      jump\t// out\n        /* \"#utility.yul\":466:562   */\n    tag_185:\n        /* \"#utility.yul\":503:510   */\n      0x00\n        /* \"#utility.yul\":532:556   */\n      tag_235\n        /* \"#utility.yul\":550:555   */\n      dup3\n        /* \"#utility.yul\":532:556   */\n      tag_184\n      jump\t// in\n    tag_235:\n        /* \"#utility.yul\":521:556   */\n      swap1\n      pop\n        /* \"#utility.yul\":466:562   */\n      swap2\n      swap1\n      pop\n      jump\t// out\n        /* \"#utility.yul\":568:690   */\n    tag_186:\n        /* \"#utility.yul\":641:665   */\n      tag_237\n        /* \"#utility.yul\":659:664   */\n      dup2\n        /* \"#utility.yul\":641:665   */\n      tag_185\n      jump\t// in\n    tag_237:\n        /* \"#utility.yul\":634:639   */\n      dup2\n        /* \"#utility.yul\":631:666   */\n      eq\n        /* \"#utility.yul\":621:684   */\n      tag_238\n      jumpi\n        /* \"#utility.yul\":680:681   */\n      0x00\n        /* \"#utility.yul\":677:678   */\n      0x00\n        /* \"#utility.yul\":670:682   */\n      revert\n        /* \"#utility.yul\":621:684   */\n    tag_238:\n        /* \"#utility.yul\":568:690   */\n      pop\n      jump\t// out\n        /* \"#utility.yul\":696:835   */\n    tag_187:\n        /* \"#utility.yul\":742:747   */\n      0x00\n        /* \"#utility.yul\":780:786   */\n      dup2\n        /* \"#utility.yul\":767:787   */\n      calldataload\n        /* \"#utility.yul\":758:787   */\n      swap1\n      pop\n        /* \"#utility.yul\":796:829   */\n      tag_240\n        /* \"#utility.yul\":823:828   */\n      dup2\n        /* \"#utility.yul\":796:829   */\n      tag_186\n      jump\t// in\n    tag_240:\n        /* \"#utility.yul\":696:835   */\n      swap3\n      swap2\n      pop\n      pop\n      jump\t// out\n        /* \"#utility.yul\":841:1170   */\n    tag_18:\n        /* \"#utility.yul\":900:906   */\n      0x00\n        /* \"#utility.yul\":949:951   */\n      0x20\n        /* \"#utility.yul\":937:946   */\n      dup3\n        /* \"#utility.yul\":928:935   */\n      dup5\n        /* \"#utility.yul\":924:947   */\n      sub\n        /* \"#utility.yul\":920:952   */\n      slt\n        /* \"#utility.yul\":917:1036   */\n      iszero\n      tag_242\n      jumpi\n        /* \"#utility.yul\":955:1034   */\n      tag_243\n      tag_182\n      jump\t// in\n    tag_243:\n        /* \"#utility.yul\":917:1036   */\n    tag_242:\n        /* \"#utility.yul\":1075:1076   */\n      0x00\n        /* \"#utility.yul\":1100:1153   */\n      tag_244\n        /* \"#utility.yul\":1145:1152   */\n      dup5\n        /* \"#utility.yul\":1136:1142   */\n      dup3\n        /* \"#utility.yul\":1125:1134   */\n      dup6\n        /* \"#utility.yul\":1121:1143   */\n      add\n        /* \"#utility.yul\":1100:1153   */\n      tag_187\n      jump\t// in\n    tag_244:\n        /* \"#utility.yul\":1090:1153   */\n      swap2\n      pop\n        /* \"#utility.yul\":1046:1163   */\n      pop\n        /* \"#utility.yul\":841:1170   */\n      swap3\n      swap2\n      pop\n      pop\n      jump\t// out\n        /* \"#utility.yul\":1176:1253   */\n    tag_188:\n        /* \"#utility.yul\":1213:1220   */\n      0x00\n        /* \"#utility.yul\":1242:1247   */\n      dup2\n        /* \"#utility.yul\":1231:1247   */\n      swap1\n      pop\n        /* \"#utility.yul\":1176:1253   */\n      swap2\n      swap1\n      pop\n      jump\t// out\n        /* \"#utility.yul\":1259:1381   */\n    tag_189:\n        /* \"#utility.yul\":1332:1356   */\n      tag_247\n        /* \"#utility.yul\":1350:1355   */\n      dup2\n        /* \"#utility.yul\":1332:1356   */\n      tag_188\n      jump\t// in\n    tag_247:\n        /* \"#utility.yul\":1325:1330   */\n      dup2\n        /* \"#utility.yul\":1322:1357   */\n      eq\n        /* \"#utility.yul\":1312:1375   */\n      tag_248\n      jumpi\n        /* \"#utility.yul\":1371:1372   */\n      0x00\n        /* \"#utility.yul\":1368:1369   */\n      0x00\n        /* \"#utility.yul\":1361:1373   */\n      revert\n        /* \"#utility.yul\":1312:1375   */\n    tag_248:\n        /* \"#utility.yul\":1259:1381   */\n      pop\n      jump\t// out\n        /* \"#utility.yul\":1387:1526   */\n    tag_190:\n        /* \"#utility.yul\":1433:1438   */\n      0x00\n        /* \"#utility.yul\":1471:1477   */\n      dup2\n        /* \"#utility.yul\":1458:1478   */\n      calldataload\n        /* \"#utility.yul\":1449:1478   */\n      swap1\n      pop\n        /* \"#utility.yul\":1487:1520   */\n      tag_250\n        /* \"#utility.yul\":1514:1519   */\n      dup2\n        /* \"#utility.yul\":1487:1520   */\n      tag_189\n      jump\t// in\n    tag_250:\n        /* \"#utility.yul\":1387:1526   */\n      swap3\n      swap2\n      pop\n      pop\n      jump\t// out\n        /* \"#utility.yul\":1532:2006   */\n    tag_23:\n        /* \"#utility.yul\":1600:1606   */\n      0x00\n        /* \"#utility.yul\":1608:1614   */\n      0x00\n        /* \"#utility.yul\":1657:1659   */\n      0x40\n        /* \"#utility.yul\":1645:1654   */\n      dup4\n        /* \"#utility.yul\":1636:1643   */\n      dup6\n        /* \"#utility.yul\":1632:1655   */\n      sub\n        /* \"#utility.yul\":1628:1660   */\n      slt\n        /* \"#utility.yul\":1625:1744   */\n      iszero\n      tag_252\n      jumpi\n        /* \"#utility.yul\":1663:1742   */\n      tag_253\n      tag_182\n      jump\t// in\n    tag_253:\n        /* \"#utility.yul\":1625:1744   */\n    tag_252:\n        /* \"#utility.yul\":1783:1784   */\n      0x00\n        /* \"#utility.yul\":1808:1861   */\n      tag_254\n        /* \"#utility.yul\":1853:1860   */\n      dup6\n        /* \"#utility.yul\":1844:1850   */\n      dup3\n        /* \"#utility.yul\":1833:1842   */\n      dup7\n        /* \"#utility.yul\":1829:1851   */\n      add\n        /* \"#utility.yul\":1808:1861   */\n      tag_187\n      jump\t// in\n    tag_254:\n        /* \"#utility.yul\":1798:1861   */\n      swap3\n      pop\n        /* \"#utility.yul\":1754:1871   */\n      pop\n        /* \"#utility.yul\":1910:1912   */\n      0x20\n        /* \"#utility.yul\":1936:1989   */\n      tag_255\n        /* \"#utility.yul\":1981:1988   */\n      dup6\n        /* \"#utility.yul\":1972:1978   */\n      dup3\n        /* \"#utility.yul\":1961:1970   */\n      dup7\n        /* \"#utility.yul\":1957:1979   */\n      add\n        /* \"#utility.yul\":1936:1989   */\n      tag_190\n      jump\t// in\n    tag_255:\n        /* \"#utility.yul\":1926:1989   */\n      swap2\n      pop\n        /* \"#utility.yul\":1881:1999   */\n      pop\n        /* \"#utility.yul\":1532:2006   */\n      swap3\n      pop\n      swap3\n      swap1\n      pop\n      jump\t// out\n        /* \"#utility.yul\":2012:2130   */\n    tag_191:\n        /* \"#utility.yul\":2099:2123   */\n      tag_257\n        /* \"#utility.yul\":2117:2122   */\n      dup2\n        /* \"#utility.yul\":2099:2123   */\n      tag_188\n      jump\t// in\n    tag_257:\n        /* \"#utility.yul\":2094:2097   */\n      dup3\n        /* \"#utility.yul\":2087:2124   */\n      mstore\n        /* \"#utility.yul\":2012:2130   */\n      pop\n      pop\n      jump\t// out\n        /* \"#utility.yul\":2136:2358   */\n    tag_30:\n        /* \"#utility.yul\":2229:2233   */\n      0x00\n        /* \"#utility.yul\":2267:2269   */\n      0x20\n        /* \"#utility.yul\":2256:2265   */\n      dup3\n        /* \"#utility.yul\":2252:2270   */\n      add\n        /* \"#utility.yul\":2244:2270   */\n      swap1\n      pop\n        /* \"#utility.yul\":2280:2351   */\n      tag_259\n        /* \"#utility.yul\":2348:2349   */\n      0x00\n        /* \"#utility.yul\":2337:2346   */\n      dup4\n        /* \"#utility.yul\":2333:2350   */\n      add\n        /* \"#utility.yul\":2324:2330   */\n      dup5\n        /* \"#utility.yul\":2280:2351   */\n      tag_191\n      jump\t// in\n    tag_259:\n        /* \"#utility.yul\":2136:2358   */\n      swap3\n      swap2\n      pop\n      pop\n      jump\t// out\n        /* \"#utility.yul\":2364:2838   */\n    tag_38:\n        /* \"#utility.yul\":2432:2438   */\n      0x00\n        /* \"#utility.yul\":2440:2446   */\n      0x00\n        /* \"#utility.yul\":2489:2491   */\n      0x40\n        /* \"#utility.yul\":2477:2486   */\n      dup4\n        /* \"#utility.yul\":2468:2475   */\n      dup6\n        /* \"#utility.yul\":2464:2487   */\n      sub\n        /* \"#utility.yul\":2460:2492   */\n      slt\n        /* \"#utility.yul\":2457:2576   */\n      iszero\n      tag_261\n      jumpi\n        /* \"#utility.yul\":2495:2574   */\n      tag_262\n      tag_182\n      jump\t// in\n    tag_262:\n        /* \"#utility.yul\":2457:2576   */\n    tag_261:\n        /* \"#utility.yul\":2615:2616   */\n      0x00\n        /* \"#utility.yul\":2640:2693   */\n      tag_263\n        /* \"#utility.yul\":2685:2692   */\n      dup6\n        /* \"#utility.yul\":2676:2682   */\n      dup3\n        /* \"#utility.yul\":2665:2674   */\n      dup7\n        /* \"#utility.yul\":2661:2683   */\n      add\n        /* \"#utility.yul\":2640:2693   */\n      tag_187\n      jump\t// in\n    tag_263:\n        /* \"#utility.yul\":2630:2693   */\n      swap3\n      pop\n        /* \"#utility.yul\":2586:2703   */\n      pop\n        /* \"#utility.yul\":2742:2744   */\n      0x20\n        /* \"#utility.yul\":2768:2821   */\n      tag_264\n        /* \"#utility.yul\":2813:2820   */\n      dup6\n        /* \"#utility.yul\":2804:2810   */\n      dup3\n        /* \"#utility.yul\":2793:2802   */\n      dup7\n        /* \"#utility.yul\":2789:2811   */\n      add\n        /* \"#utility.yul\":2768:2821   */\n      tag_187\n      jump\t// in\n    tag_264:\n        /* \"#utility.yul\":2758:2821   */\n      swap2\n      pop\n        /* \"#utility.yul\":2713:2831   */\n      pop\n        /* \"#utility.yul\":2364:2838   */\n      swap3\n      pop\n      swap3\n      swap1\n      pop\n      jump\t// out\n        /* \"#utility.yul\":2844:2948   */\n    tag_192:\n        /* \"#utility.yul\":2889:2896   */\n      0x00\n        /* \"#utility.yul\":2918:2942   */\n      tag_266\n        /* \"#utility.yul\":2936:2941   */\n      dup3\n        /* \"#utility.yul\":2918:2942   */\n      tag_184\n      jump\t// in\n    tag_266:\n        /* \"#utility.yul\":2907:2942   */\n      swap1\n      pop\n        /* \"#utility.yul\":2844:2948   */\n      swap2\n      swap1\n      pop\n      jump\t// out\n        /* \"#utility.yul\":2954:3092   */\n    tag_193:\n        /* \"#utility.yul\":3035:3067   */\n      tag_268\n        /* \"#utility.yul\":3061:3066   */\n      dup2\n        /* \"#utility.yul\":3035:3067   */\n      tag_192\n      jump\t// in\n    tag_268:\n        /* \"#utility.yul\":3028:3033   */\n      dup2\n        /* \"#utility.yul\":3025:3068   */\n      eq\n        /* \"#utility.yul\":3015:3086   */\n      tag_269\n      jumpi\n        /* \"#utility.yul\":3082:3083   */\n      0x00\n        /* \"#utility.yul\":3079:3080   */\n      0x00\n        /* \"#utility.yul\":3072:3084   */\n      revert\n        /* \"#utility.yul\":3015:3086   */\n    tag_269:\n        /* \"#utility.yul\":2954:3092   */\n      pop\n      jump\t// out\n        /* \"#utility.yul\":3098:3253   */\n    tag_194:\n        /* \"#utility.yul\":3152:3157   */\n      0x00\n        /* \"#utility.yul\":3190:3196   */\n      dup2\n        /* \"#utility.yul\":3177:3197   */\n      calldataload\n        /* \"#utility.yul\":3168:3197   */\n      swap1\n      pop\n        /* \"#utility.yul\":3206:3247   */\n      tag_271\n        /* \"#utility.yul\":3241:3246   */\n      dup2\n        /* \"#utility.yul\":3206:3247   */\n      tag_193\n      jump\t// in\n    tag_271:\n        /* \"#utility.yul\":3098:3253   */\n      swap3\n      swap2\n      pop\n      pop\n      jump\t// out\n        /* \"#utility.yul\":3259:3749   */\n    tag_44:\n        /* \"#utility.yul\":3335:3341   */\n      0x00\n        /* \"#utility.yul\":3343:3349   */\n      0x00\n        /* \"#utility.yul\":3392:3394   */\n      0x40\n        /* \"#utility.yul\":3380:3389   */\n      dup4\n        /* \"#utility.yul\":3371:3378   */\n      dup6\n        /* \"#utility.yul\":3367:3390   */\n      sub\n        /* \"#utility.yul\":3363:3395   */\n      slt\n        /* \"#utility.yul\":3360:3479   */\n      iszero\n      tag_273\n      jumpi\n        /* \"#utility.yul\":3398:3477   */\n      tag_274\n      tag_182\n      jump\t// in\n    tag_274:\n        /* \"#utility.yul\":3360:3479   */\n    tag_273:\n        /* \"#utility.yul\":3518:3519   */\n      0x00\n        /* \"#utility.yul\":3543:3604   */\n      tag_275\n        /* \"#utility.yul\":3596:3603   */\n      dup6\n        /* \"#utility.yul\":3587:3593   */\n      dup3\n        /* \"#utility.yul\":3576:3585   */\n      dup7\n        /* \"#utility.yul\":3572:3594   */\n      add\n        /* \"#utility.yul\":3543:3604   */\n      tag_194\n      jump\t// in\n    tag_275:\n        /* \"#utility.yul\":3533:3604   */\n      swap3\n      pop\n        /* \"#utility.yul\":3489:3614   */\n      pop\n        /* \"#utility.yul\":3653:3655   */\n      0x20\n        /* \"#utility.yul\":3679:3732   */\n      tag_276\n        /* \"#utility.yul\":3724:3731   */\n      dup6\n        /* \"#utility.yul\":3715:3721   */\n      dup3\n        /* \"#utility.yul\":3704:3713   */\n      dup7\n        /* \"#utility.yul\":3700:3722   */\n      add\n        /* \"#utility.yul\":3679:3732   */\n      tag_190\n      jump\t// in\n    tag_276:\n        /* \"#utility.yul\":3669:3732   */\n      swap2\n      pop\n        /* \"#utility.yul\":3624:3742   */\n      pop\n        /* \"#utility.yul\":3259:3749   */\n      swap3\n      pop\n      swap3\n      swap1\n      pop\n      jump\t// out\n        /* \"#utility.yul\":3755:4084   */\n    tag_49:\n        /* \"#utility.yul\":3814:3820   */\n      0x00\n        /* \"#utility.yul\":3863:3865   */\n      0x20\n        /* \"#utility.yul\":3851:3860   */\n      dup3\n        /* \"#utility.yul\":3842:3849   */\n      dup5\n        /* \"#utility.yul\":3838:3861   */\n      sub\n        /* \"#utility.yul\":3834:3866   */\n      slt\n        /* \"#utility.yul\":3831:3950   */\n      iszero\n      tag_278\n      jumpi\n        /* \"#utility.yul\":3869:3948   */\n      tag_279\n      tag_182\n      jump\t// in\n    tag_279:\n        /* \"#utility.yul\":3831:3950   */\n    tag_278:\n        /* \"#utility.yul\":3989:3990   */\n      0x00\n        /* \"#utility.yul\":4014:4067   */\n      tag_280\n        /* \"#utility.yul\":4059:4066   */\n      dup5\n        /* \"#utility.yul\":4050:4056   */\n      dup3\n        /* \"#utility.yul\":4039:4048   */\n      dup6\n        /* \"#utility.yul\":4035:4057   */\n      add\n        /* \"#utility.yul\":4014:4067   */\n      tag_190\n      jump\t// in\n    tag_280:\n        /* \"#utility.yul\":4004:4067   */\n      swap2\n      pop\n        /* \"#utility.yul\":3960:4077   */\n      pop\n        /* \"#utility.yul\":3755:4084   */\n      swap3\n      swap2\n      pop\n      pop\n      jump\t// out\n        /* \"#utility.yul\":4090:4180   */\n    tag_195:\n        /* \"#utility.yul\":4124:4131   */\n      0x00\n        /* \"#utility.yul\":4167:4172   */\n      dup2\n        /* \"#utility.yul\":4160:4173   */\n      iszero\n        /* \"#utility.yul\":4153:4174   */\n      iszero\n        /* \"#utility.yul\":4142:4174   */\n      swap1\n      pop\n        /* \"#utility.yul\":4090:4180   */\n      swap2\n      swap1\n      pop\n      jump\t// out\n        /* \"#utility.yul\":4186:4295   */\n    tag_196:\n        /* \"#utility.yul\":4267:4288   */\n      tag_283\n        /* \"#utility.yul\":4282:4287   */\n      dup2\n        /* \"#utility.yul\":4267:4288   */\n      tag_195\n      jump\t// in\n    tag_283:\n        /* \"#utility.yul\":4262:4265   */\n      dup3\n        /* \"#utility.yul\":4255:4289   */\n      mstore\n        /* \"#utility.yul\":4186:4295   */\n      pop\n      pop\n      jump\t// out\n        /* \"#utility.yul\":4301:4511   */\n    tag_62:\n        /* \"#utility.yul\":4388:4392   */\n      0x00\n        /* \"#utility.yul\":4426:4428   */\n      0x20\n        /* \"#utility.yul\":4415:4424   */\n      dup3\n        /* \"#utility.yul\":4411:4429   */\n      add\n        /* \"#utility.yul\":4403:4429   */\n      swap1\n      pop\n        /* \"#utility.yul\":4439:4504   */\n      tag_285\n        /* \"#utility.yul\":4501:4502   */\n      0x00\n        /* \"#utility.yul\":4490:4499   */\n      dup4\n        /* \"#utility.yul\":4486:4503   */\n      add\n        /* \"#utility.yul\":4477:4483   */\n      dup5\n        /* \"#utility.yul\":4439:4504   */\n      tag_196\n      jump\t// in\n    tag_285:\n        /* \"#utility.yul\":4301:4511   */\n      swap3\n      swap2\n      pop\n      pop\n      jump\t// out\n        /* \"#utility.yul\":4517:4635   */\n    tag_197:\n        /* \"#utility.yul\":4604:4628   */\n      tag_287\n        /* \"#utility.yul\":4622:4627   */\n      dup2\n        /* \"#utility.yul\":4604:4628   */\n      tag_185\n      jump\t// in\n    tag_287:\n        /* \"#utility.yul\":4599:4602   */\n      dup3\n        /* \"#utility.yul\":4592:4629   */\n      mstore\n        /* \"#utility.yul\":4517:4635   */\n      pop\n      pop\n      jump\t// out\n        /* \"#utility.yul\":4641:4863   */\n    tag_71:\n        /* \"#utility.yul\":4734:4738   */\n      0x00\n        /* \"#utility.yul\":4772:4774   */\n      0x20\n        /* \"#utility.yul\":4761:4770   */\n      dup3\n        /* \"#utility.yul\":4757:4775   */\n      add\n        /* \"#utility.yul\":4749:4775   */\n      swap1\n      pop\n        /* \"#utility.yul\":4785:4856   */\n      tag_289\n        /* \"#utility.yul\":4853:4854   */\n      0x00\n        /* \"#utility.yul\":4842:4851   */\n      dup4\n        /* \"#utility.yul\":4838:4855   */\n      add\n        /* \"#utility.yul\":4829:4835   */\n      dup5\n        /* \"#utility.yul\":4785:4856   */\n      tag_197\n      jump\t// in\n    tag_289:\n        /* \"#utility.yul\":4641:4863   */\n      swap3\n      swap2\n      pop\n      pop\n      jump\t// out\n        /* \"#utility.yul\":4869:5038   */\n    tag_198:\n        /* \"#utility.yul\":4953:4964   */\n      0x00\n        /* \"#utility.yul\":4987:4993   */\n      dup3\n        /* \"#utility.yul\":4982:4985   */\n      dup3\n        /* \"#utility.yul\":4975:4994   */\n      mstore\n        /* \"#utility.yul\":5027:5031   */\n      0x20\n        /* \"#utility.yul\":5022:5025   */\n      dup3\n        /* \"#utility.yul\":5018:5032   */\n      add\n        /* \"#utility.yul\":5003:5032   */\n      swap1\n      pop\n        /* \"#utility.yul\":4869:5038   */\n      swap3\n      swap2\n      pop\n      pop\n      jump\t// out\n        /* \"#utility.yul\":5044:5268   */\n    tag_199:\n        /* \"#utility.yul\":5184:5218   */\n      0x4f6e6c7920746865206f776e65722063616e2063616c6c20746869732066756e\n        /* \"#utility.yul\":5180:5181   */\n      0x00\n        /* \"#utility.yul\":5172:5178   */\n      dup3\n        /* \"#utility.yul\":5168:5182   */\n      add\n        /* \"#utility.yul\":5161:5219   */\n      mstore\n        /* \"#utility.yul\":5253:5260   */\n      0x6374696f6e000000000000000000000000000000000000000000000000000000\n        /* \"#utility.yul\":5248:5250   */\n      0x20\n        /* \"#utility.yul\":5240:5246   */\n      dup3\n        /* \"#utility.yul\":5236:5251   */\n      add\n        /* \"#utility.yul\":5229:5261   */\n      mstore\n        /* \"#utility.yul\":5044:5268   */\n      pop\n      jump\t// out\n        /* \"#utility.yul\":5274:5640   */\n    tag_200:\n        /* \"#utility.yul\":5416:5419   */\n      0x00\n        /* \"#utility.yul\":5437:5504   */\n      tag_293\n        /* \"#utility.yul\":5501:5503   */\n      0x25\n        /* \"#utility.yul\":5496:5499   */\n      dup4\n        /* \"#utility.yul\":5437:5504   */\n      tag_198\n      jump\t// in\n    tag_293:\n        /* \"#utility.yul\":5430:5504   */\n      swap2\n      pop\n        /* \"#utility.yul\":5513:5606   */\n      tag_294\n        /* \"#utility.yul\":5602:5605   */\n      dup3\n        /* \"#utility.yul\":5513:5606   */\n      tag_199\n      jump\t// in\n    tag_294:\n        /* \"#utility.yul\":5631:5633   */\n      0x40\n        /* \"#utility.yul\":5626:5629   */\n      dup3\n        /* \"#utility.yul\":5622:5634   */\n      add\n        /* \"#utility.yul\":5615:5634   */\n      swap1\n      pop\n        /* \"#utility.yul\":5274:5640   */\n      swap2\n      swap1\n      pop\n      jump\t// out\n        /* \"#utility.yul\":5646:6065   */\n    tag_75:\n        /* \"#utility.yul\":5812:5816   */\n      0x00\n        /* \"#utility.yul\":5850:5852   */\n      0x20\n        /* \"#utility.yul\":5839:5848   */\n      dup3\n        /* \"#utility.yul\":5835:5853   */\n      add\n        /* \"#utility.yul\":5827:5853   */\n      swap1\n      pop\n        /* \"#utility.yul\":5899:5908   */\n      dup2\n        /* \"#utility.yul\":5893:5897   */\n      dup2\n        /* \"#utility.yul\":5889:5909   */\n      sub\n        /* \"#utility.yul\":5885:5886   */\n      0x00\n        /* \"#utility.yul\":5874:5883   */\n      dup4\n        /* \"#utility.yul\":5870:5887   */\n      add\n        /* \"#utility.yul\":5863:5910   */\n      mstore\n        /* \"#utility.yul\":5927:6058   */\n      tag_296\n        /* \"#utility.yul\":6053:6057   */\n      dup2\n        /* \"#utility.yul\":5927:6058   */\n      tag_200\n      jump\t// in\n    tag_296:\n        /* \"#utility.yul\":5919:6058   */\n      swap1\n      pop\n        /* \"#utility.yul\":5646:6065   */\n      swap2\n      swap1\n      pop\n      jump\t// out\n        /* \"#utility.yul\":6071:6236   */\n    tag_201:\n        /* \"#utility.yul\":6211:6228   */\n      0x496e76616c696420616464726573730000000000000000000000000000000000\n        /* \"#utility.yul\":6207:6208   */\n      0x00\n        /* \"#utility.yul\":6199:6205   */\n      dup3\n        /* \"#utility.yul\":6195:6209   */\n      add\n        /* \"#utility.yul\":6188:6229   */\n      mstore\n        /* \"#utility.yul\":6071:6236   */\n      pop\n      jump\t// out\n        /* \"#utility.yul\":6242:6608   */\n    tag_202:\n        /* \"#utility.yul\":6384:6387   */\n      0x00\n        /* \"#utility.yul\":6405:6472   */\n      tag_299\n        /* \"#utility.yul\":6469:6471   */\n      0x0f\n        /* \"#utility.yul\":6464:6467   */\n      dup4\n        /* \"#utility.yul\":6405:6472   */\n      tag_198\n      jump\t// in\n    tag_299:\n        /* \"#utility.yul\":6398:6472   */\n      swap2\n      pop\n        /* \"#utility.yul\":6481:6574   */\n      tag_300\n        /* \"#utility.yul\":6570:6573   */\n      dup3\n        /* \"#utility.yul\":6481:6574   */\n      tag_201\n      jump\t// in\n    tag_300:\n        /* \"#utility.yul\":6599:6601   */\n      0x20\n        /* \"#utility.yul\":6594:6597   */\n      dup3\n        /* \"#utility.yul\":6590:6602   */\n      add\n        /* \"#utility.yul\":6583:6602   */\n      swap1\n      pop\n        /* \"#utility.yul\":6242:6608   */\n      swap2\n      swap1\n      pop\n      jump\t// out\n        /* \"#utility.yul\":6614:7033   */\n    tag_79:\n        /* \"#utility.yul\":6780:6784   */\n      0x00\n        /* \"#utility.yul\":6818:6820   */\n      0x20\n        /* \"#utility.yul\":6807:6816   */\n      dup3\n        /* \"#utility.yul\":6803:6821   */\n      add\n        /* \"#utility.yul\":6795:6821   */\n      swap1\n      pop\n        /* \"#utility.yul\":6867:6876   */\n      dup2\n        /* \"#utility.yul\":6861:6865   */\n      dup2\n        /* \"#utility.yul\":6857:6877   */\n      sub\n        /* \"#utility.yul\":6853:6854   */\n      0x00\n        /* \"#utility.yul\":6842:6851   */\n      dup4\n        /* \"#utility.yul\":6838:6855   */\n      add\n        /* \"#utility.yul\":6831:6878   */\n      mstore\n        /* \"#utility.yul\":6895:7026   */\n      tag_302\n        /* \"#utility.yul\":7021:7025   */\n      dup2\n        /* \"#utility.yul\":6895:7026   */\n      tag_202\n      jump\t// in\n    tag_302:\n        /* \"#utility.yul\":6887:7026   */\n      swap1\n      pop\n        /* \"#utility.yul\":6614:7033   */\n      swap2\n      swap1\n      pop\n      jump\t// out\n        /* \"#utility.yul\":7039:7214   */\n    tag_203:\n        /* \"#utility.yul\":7179:7206   */\n      0x416c7265616479206164646564206173206120667269656e6400000000000000\n        /* \"#utility.yul\":7175:7176   */\n      0x00\n        /* \"#utility.yul\":7167:7173   */\n      dup3\n        /* \"#utility.yul\":7163:7177   */\n      add\n        /* \"#utility.yul\":7156:7207   */\n      mstore\n        /* \"#utility.yul\":7039:7214   */\n      pop\n      jump\t// out\n        /* \"#utility.yul\":7220:7586   */\n    tag_204:\n        /* \"#utility.yul\":7362:7365   */\n      0x00\n        /* \"#utility.yul\":7383:7450   */\n      tag_305\n        /* \"#utility.yul\":7447:7449   */\n      0x19\n        /* \"#utility.yul\":7442:7445   */\n      dup4\n        /* \"#utility.yul\":7383:7450   */\n      tag_198\n      jump\t// in\n    tag_305:\n        /* \"#utility.yul\":7376:7450   */\n      swap2\n      pop\n        /* \"#utility.yul\":7459:7552   */\n      tag_306\n        /* \"#utility.yul\":7548:7551   */\n      dup3\n        /* \"#utility.yul\":7459:7552   */\n      tag_203\n      jump\t// in\n    tag_306:\n        /* \"#utility.yul\":7577:7579   */\n      0x20\n        /* \"#utility.yul\":7572:7575   */\n      dup3\n        /* \"#utility.yul\":7568:7580   */\n      add\n        /* \"#utility.yul\":7561:7580   */\n      swap1\n      pop\n        /* \"#utility.yul\":7220:7586   */\n      swap2\n      swap1\n      pop\n      jump\t// out\n        /* \"#utility.yul\":7592:8011   */\n    tag_82:\n        /* \"#utility.yul\":7758:7762   */\n      0x00\n        /* \"#utility.yul\":7796:7798   */\n      0x20\n        /* \"#utility.yul\":7785:7794   */\n      dup3\n        /* \"#utility.yul\":7781:7799   */\n      add\n        /* \"#utility.yul\":7773:7799   */\n      swap1\n      pop\n        /* \"#utility.yul\":7845:7854   */\n      dup2\n        /* \"#utility.yul\":7839:7843   */\n      dup2\n        /* \"#utility.yul\":7835:7855   */\n      sub\n        /* \"#utility.yul\":7831:7832   */\n      0x00\n        /* \"#utility.yul\":7820:7829   */\n      dup4\n        /* \"#utility.yul\":7816:7833   */\n      add\n        /* \"#utility.yul\":7809:7856   */\n      mstore\n        /* \"#utility.yul\":7873:8004   */\n      tag_308\n        /* \"#utility.yul\":7999:8003   */\n      dup2\n        /* \"#utility.yul\":7873:8004   */\n      tag_204\n      jump\t// in\n    tag_308:\n        /* \"#utility.yul\":7865:8004   */\n      swap1\n      pop\n        /* \"#utility.yul\":7592:8011   */\n      swap2\n      swap1\n      pop\n      jump\t// out\n        /* \"#utility.yul\":8017:8189   */\n    tag_205:\n        /* \"#utility.yul\":8157:8181   */\n      0x596f7520617265206e6f74207265676973746572656400000000000000000000\n        /* \"#utility.yul\":8153:8154   */\n      0x00\n        /* \"#utility.yul\":8145:8151   */\n      dup3\n        /* \"#utility.yul\":8141:8155   */\n      add\n        /* \"#utility.yul\":8134:8182   */\n      mstore\n        /* \"#utility.yul\":8017:8189   */\n      pop\n      jump\t// out\n        /* \"#utility.yul\":8195:8561   */\n    tag_206:\n        /* \"#utility.yul\":8337:8340   */\n      0x00\n        /* \"#utility.yul\":8358:8425   */\n      tag_311\n        /* \"#utility.yul\":8422:8424   */\n      0x16\n        /* \"#utility.yul\":8417:8420   */\n      dup4\n        /* \"#utility.yul\":8358:8425   */\n      tag_198\n      jump\t// in\n    tag_311:\n        /* \"#utility.yul\":8351:8425   */\n      swap2\n      pop\n        /* \"#utility.yul\":8434:8527   */\n      tag_312\n        /* \"#utility.yul\":8523:8526   */\n      dup3\n        /* \"#utility.yul\":8434:8527   */\n      tag_205\n      jump\t// in\n    tag_312:\n        /* \"#utility.yul\":8552:8554   */\n      0x20\n        /* \"#utility.yul\":8547:8550   */\n      dup3\n        /* \"#utility.yul\":8543:8555   */\n      add\n        /* \"#utility.yul\":8536:8555   */\n      swap1\n      pop\n        /* \"#utility.yul\":8195:8561   */\n      swap2\n      swap1\n      pop\n      jump\t// out\n        /* \"#utility.yul\":8567:8986   */\n    tag_87:\n        /* \"#utility.yul\":8733:8737   */\n      0x00\n        /* \"#utility.yul\":8771:8773   */\n      0x20\n        /* \"#utility.yul\":8760:8769   */\n      dup3\n        /* \"#utility.yul\":8756:8774   */\n      add\n        /* \"#utility.yul\":8748:8774   */\n      swap1\n      pop\n        /* \"#utility.yul\":8820:8829   */\n      dup2\n        /* \"#utility.yul\":8814:8818   */\n      dup2\n        /* \"#utility.yul\":8810:8830   */\n      sub\n        /* \"#utility.yul\":8806:8807   */\n      0x00\n        /* \"#utility.yul\":8795:8804   */\n      dup4\n        /* \"#utility.yul\":8791:8808   */\n      add\n        /* \"#utility.yul\":8784:8831   */\n      mstore\n        /* \"#utility.yul\":8848:8979   */\n      tag_314\n        /* \"#utility.yul\":8974:8978   */\n      dup2\n        /* \"#utility.yul\":8848:8979   */\n      tag_206\n      jump\t// in\n    tag_314:\n        /* \"#utility.yul\":8840:8979   */\n      swap1\n      pop\n        /* \"#utility.yul\":8567:8986   */\n      swap2\n      swap1\n      pop\n      jump\t// out\n        /* \"#utility.yul\":8992:9167   */\n    tag_207:\n        /* \"#utility.yul\":9132:9159   */\n      0x41646472657373206973206e6f74207265676973746572656400000000000000\n        /* \"#utility.yul\":9128:9129   */\n      0x00\n        /* \"#utility.yul\":9120:9126   */\n      dup3\n        /* \"#utility.yul\":9116:9130   */\n      add\n        /* \"#utility.yul\":9109:9160   */\n      mstore\n        /* \"#utility.yul\":8992:9167   */\n      pop\n      jump\t// out\n        /* \"#utility.yul\":9173:9539   */\n    tag_208:\n        /* \"#utility.yul\":9315:9318   */\n      0x00\n        /* \"#utility.yul\":9336:9403   */\n      tag_317\n        /* \"#utility.yul\":9400:9402   */\n      0x19\n        /* \"#utility.yul\":9395:9398   */\n      dup4\n        /* \"#utility.yul\":9336:9403   */\n      tag_198\n      jump\t// in\n    tag_317:\n        /* \"#utility.yul\":9329:9403   */\n      swap2\n      pop\n        /* \"#utility.yul\":9412:9505   */\n      tag_318\n        /* \"#utility.yul\":9501:9504   */\n      dup3\n        /* \"#utility.yul\":9412:9505   */\n      tag_207\n      jump\t// in\n    tag_318:\n        /* \"#utility.yul\":9530:9532   */\n      0x20\n        /* \"#utility.yul\":9525:9528   */\n      dup3\n        /* \"#utility.yul\":9521:9533   */\n      add\n        /* \"#utility.yul\":9514:9533   */\n      swap1\n      pop\n        /* \"#utility.yul\":9173:9539   */\n      swap2\n      swap1\n      pop\n      jump\t// out\n        /* \"#utility.yul\":9545:9964   */\n    tag_93:\n        /* \"#utility.yul\":9711:9715   */\n      0x00\n        /* \"#utility.yul\":9749:9751   */\n      0x20\n        /* \"#utility.yul\":9738:9747   */\n      dup3\n        /* \"#utility.yul\":9734:9752   */\n      add\n        /* \"#utility.yul\":9726:9752   */\n      swap1\n      pop\n        /* \"#utility.yul\":9798:9807   */\n      dup2\n        /* \"#utility.yul\":9792:9796   */\n      dup2\n        /* \"#utility.yul\":9788:9808   */\n      sub\n        /* \"#utility.yul\":9784:9785   */\n      0x00\n        /* \"#utility.yul\":9773:9782   */\n      dup4\n        /* \"#utility.yul\":9769:9786   */\n      add\n        /* \"#utility.yul\":9762:9809   */\n      mstore\n        /* \"#utility.yul\":9826:9957   */\n      tag_320\n        /* \"#utility.yul\":9952:9956   */\n      dup2\n        /* \"#utility.yul\":9826:9957   */\n      tag_208\n      jump\t// in\n    tag_320:\n        /* \"#utility.yul\":9818:9957   */\n      swap1\n      pop\n        /* \"#utility.yul\":9545:9964   */\n      swap2\n      swap1\n      pop\n      jump\t// out\n        /* \"#utility.yul\":9970:10145   */\n    tag_209:\n        /* \"#utility.yul\":10110:10137   */\n      0x4d75737420656e74657220612076616c696420616d6f756e7400000000000000\n        /* \"#utility.yul\":10106:10107   */\n      0x00\n        /* \"#utility.yul\":10098:10104   */\n      dup3\n        /* \"#utility.yul\":10094:10108   */\n      add\n        /* \"#utility.yul\":10087:10138   */\n      mstore\n        /* \"#utility.yul\":9970:10145   */\n      pop\n      jump\t// out\n        /* \"#utility.yul\":10151:10517   */\n    tag_210:\n        /* \"#utility.yul\":10293:10296   */\n      0x00\n        /* \"#utility.yul\":10314:10381   */\n      tag_323\n        /* \"#utility.yul\":10378:10380   */\n      0x19\n        /* \"#utility.yul\":10373:10376   */\n      dup4\n        /* \"#utility.yul\":10314:10381   */\n      tag_198\n      jump\t// in\n    tag_323:\n        /* \"#utility.yul\":10307:10381   */\n      swap2\n      pop\n        /* \"#utility.yul\":10390:10483   */\n      tag_324\n        /* \"#utility.yul\":10479:10482   */\n      dup3\n        /* \"#utility.yul\":10390:10483   */\n      tag_209\n      jump\t// in\n    tag_324:\n        /* \"#utility.yul\":10508:10510   */\n      0x20\n        /* \"#utility.yul\":10503:10506   */\n      dup3\n        /* \"#utility.yul\":10499:10511   */\n      add\n        /* \"#utility.yul\":10492:10511   */\n      swap1\n      pop\n        /* \"#utility.yul\":10151:10517   */\n      swap2\n      swap1\n      pop\n      jump\t// out\n        /* \"#utility.yul\":10523:10942   */\n    tag_96:\n        /* \"#utility.yul\":10689:10693   */\n      0x00\n        /* \"#utility.yul\":10727:10729   */\n      0x20\n        /* \"#utility.yul\":10716:10725   */\n      dup3\n        /* \"#utility.yul\":10712:10730   */\n      add\n        /* \"#utility.yul\":10704:10730   */\n      swap1\n      pop\n        /* \"#utility.yul\":10776:10785   */\n      dup2\n        /* \"#utility.yul\":10770:10774   */\n      dup2\n        /* \"#utility.yul\":10766:10786   */\n      sub\n        /* \"#utility.yul\":10762:10763   */\n      0x00\n        /* \"#utility.yul\":10751:10760   */\n      dup4\n        /* \"#utility.yul\":10747:10764   */\n      add\n        /* \"#utility.yul\":10740:10787   */\n      mstore\n        /* \"#utility.yul\":10804:10935   */\n      tag_326\n        /* \"#utility.yul\":10930:10934   */\n      dup2\n        /* \"#utility.yul\":10804:10935   */\n      tag_210\n      jump\t// in\n    tag_326:\n        /* \"#utility.yul\":10796:10935   */\n      swap1\n      pop\n        /* \"#utility.yul\":10523:10942   */\n      swap2\n      swap1\n      pop\n      jump\t// out\n        /* \"#utility.yul\":10948:11128   */\n    tag_211:\n        /* \"#utility.yul\":10996:11073   */\n      0x4e487b7100000000000000000000000000000000000000000000000000000000\n        /* \"#utility.yul\":10993:10994   */\n      0x00\n        /* \"#utility.yul\":10986:11074   */\n      mstore\n        /* \"#utility.yul\":11093:11097   */\n      0x11\n        /* \"#utility.yul\":11090:11091   */\n      0x04\n        /* \"#utility.yul\":11083:11098   */\n      mstore\n        /* \"#utility.yul\":11117:11121   */\n      0x24\n        /* \"#utility.yul\":11114:11115   */\n      0x00\n        /* \"#utility.yul\":11107:11122   */\n      revert\n        /* \"#utility.yul\":11134:11325   */\n    tag_98:\n        /* \"#utility.yul\":11174:11177   */\n      0x00\n        /* \"#utility.yul\":11193:11213   */\n      tag_329\n        /* \"#utility.yul\":11211:11212   */\n      dup3\n        /* \"#utility.yul\":11193:11213   */\n      tag_188\n      jump\t// in\n    tag_329:\n        /* \"#utility.yul\":11188:11213   */\n      swap2\n      pop\n        /* \"#utility.yul\":11227:11247   */\n      tag_330\n        /* \"#utility.yul\":11245:11246   */\n      dup4\n        /* \"#utility.yul\":11227:11247   */\n      tag_188\n      jump\t// in\n    tag_330:\n        /* \"#utility.yul\":11222:11247   */\n      swap3\n      pop\n        /* \"#utility.yul\":11270:11271   */\n      dup3\n        /* \"#utility.yul\":11267:11268   */\n      dup3\n        /* \"#utility.yul\":11263:11272   */\n      add\n        /* \"#utility.yul\":11256:11272   */\n      swap1\n      pop\n        /* \"#utility.yul\":11291:11294   */\n      dup1\n        /* \"#utility.yul\":11288:11289   */\n      dup3\n        /* \"#utility.yul\":11285:11295   */\n      gt\n        /* \"#utility.yul\":11282:11318   */\n      iszero\n      tag_331\n      jumpi\n        /* \"#utility.yul\":11298:11316   */\n      tag_332\n      tag_211\n      jump\t// in\n    tag_332:\n        /* \"#utility.yul\":11282:11318   */\n    tag_331:\n        /* \"#utility.yul\":11134:11325   */\n      swap3\n      swap2\n      pop\n      pop\n      jump\t// out\n        /* \"#utility.yul\":11331:11506   */\n    tag_212:\n        /* \"#utility.yul\":11471:11498   */\n      0x52656369657069656e74206e6f74207265676973746572656400000000000000\n        /* \"#utility.yul\":11467:11468   */\n      0x00\n        /* \"#utility.yul\":11459:11465   */\n      dup3\n        /* \"#utility.yul\":11455:11469   */\n      add\n        /* \"#utility.yul\":11448:11499   */\n      mstore\n        /* \"#utility.yul\":11331:11506   */\n      pop\n      jump\t// out\n        /* \"#utility.yul\":11512:11878   */\n    tag_213:\n        /* \"#utility.yul\":11654:11657   */\n      0x00\n        /* \"#utility.yul\":11675:11742   */\n      tag_335\n        /* \"#utility.yul\":11739:11741   */\n      0x19\n        /* \"#utility.yul\":11734:11737   */\n      dup4\n        /* \"#utility.yul\":11675:11742   */\n      tag_198\n      jump\t// in\n    tag_335:\n        /* \"#utility.yul\":11668:11742   */\n      swap2\n      pop\n        /* \"#utility.yul\":11751:11844   */\n      tag_336\n        /* \"#utility.yul\":11840:11843   */\n      dup3\n        /* \"#utility.yul\":11751:11844   */\n      tag_212\n      jump\t// in\n    tag_336:\n        /* \"#utility.yul\":11869:11871   */\n      0x20\n        /* \"#utility.yul\":11864:11867   */\n      dup3\n        /* \"#utility.yul\":11860:11872   */\n      add\n        /* \"#utility.yul\":11853:11872   */\n      swap1\n      pop\n        /* \"#utility.yul\":11512:11878   */\n      swap2\n      swap1\n      pop\n      jump\t// out\n        /* \"#utility.yul\":11884:12303   */\n    tag_111:\n        /* \"#utility.yul\":12050:12054   */\n      0x00\n        /* \"#utility.yul\":12088:12090   */\n      0x20\n        /* \"#utility.yul\":12077:12086   */\n      dup3\n        /* \"#utility.yul\":12073:12091   */\n      add\n        /* \"#utility.yul\":12065:12091   */\n      swap1\n      pop\n        /* \"#utility.yul\":12137:12146   */\n      dup2\n        /* \"#utility.yul\":12131:12135   */\n      dup2\n        /* \"#utility.yul\":12127:12147   */\n      sub\n        /* \"#utility.yul\":12123:12124   */\n      0x00\n        /* \"#utility.yul\":12112:12121   */\n      dup4\n        /* \"#utility.yul\":12108:12125   */\n      add\n        /* \"#utility.yul\":12101:12148   */\n      mstore\n        /* \"#utility.yul\":12165:12296   */\n      tag_338\n        /* \"#utility.yul\":12291:12295   */\n      dup2\n        /* \"#utility.yul\":12165:12296   */\n      tag_213\n      jump\t// in\n    tag_338:\n        /* \"#utility.yul\":12157:12296   */\n      swap1\n      pop\n        /* \"#utility.yul\":11884:12303   */\n      swap2\n      swap1\n      pop\n      jump\t// out\n        /* \"#utility.yul\":12309:12479   */\n    tag_214:\n        /* \"#utility.yul\":12449:12471   */\n      0x496e73756666696369656e742062616c616e6365000000000000000000000000\n        /* \"#utility.yul\":12445:12446   */\n      0x00\n        /* \"#utility.yul\":12437:12443   */\n      dup3\n        /* \"#utility.yul\":12433:12447   */\n      add\n        /* \"#utility.yul\":12426:12472   */\n      mstore\n        /* \"#utility.yul\":12309:12479   */\n      pop\n      jump\t// out\n        /* \"#utility.yul\":12485:12851   */\n    tag_215:\n        /* \"#utility.yul\":12627:12630   */\n      0x00\n        /* \"#utility.yul\":12648:12715   */\n      tag_341\n        /* \"#utility.yul\":12712:12714   */\n      0x14\n        /* \"#utility.yul\":12707:12710   */\n      dup4\n        /* \"#utility.yul\":12648:12715   */\n      tag_198\n      jump\t// in\n    tag_341:\n        /* \"#utility.yul\":12641:12715   */\n      swap2\n      pop\n        /* \"#utility.yul\":12724:12817   */\n      tag_342\n        /* \"#utility.yul\":12813:12816   */\n      dup3\n        /* \"#utility.yul\":12724:12817   */\n      tag_214\n      jump\t// in\n    tag_342:\n        /* \"#utility.yul\":12842:12844   */\n      0x20\n        /* \"#utility.yul\":12837:12840   */\n      dup3\n        /* \"#utility.yul\":12833:12845   */\n      add\n        /* \"#utility.yul\":12826:12845   */\n      swap1\n      pop\n        /* \"#utility.yul\":12485:12851   */\n      swap2\n      swap1\n      pop\n      jump\t// out\n        /* \"#utility.yul\":12857:13276   */\n    tag_114:\n        /* \"#utility.yul\":13023:13027   */\n      0x00\n        /* \"#utility.yul\":13061:13063   */\n      0x20\n        /* \"#utility.yul\":13050:13059   */\n      dup3\n        /* \"#utility.yul\":13046:13064   */\n      add\n        /* \"#utility.yul\":13038:13064   */\n      swap1\n      pop\n        /* \"#utility.yul\":13110:13119   */\n      dup2\n        /* \"#utility.yul\":13104:13108   */\n      dup2\n        /* \"#utility.yul\":13100:13120   */\n      sub\n        /* \"#utility.yul\":13096:13097   */\n      0x00\n        /* \"#utility.yul\":13085:13094   */\n      dup4\n        /* \"#utility.yul\":13081:13098   */\n      add\n        /* \"#utility.yul\":13074:13121   */\n      mstore\n        /* \"#utility.yul\":13138:13269   */\n      tag_344\n        /* \"#utility.yul\":13264:13268   */\n      dup2\n        /* \"#utility.yul\":13138:13269   */\n      tag_215\n      jump\t// in\n    tag_344:\n        /* \"#utility.yul\":13130:13269   */\n      swap1\n      pop\n        /* \"#utility.yul\":12857:13276   */\n      swap2\n      swap1\n      pop\n      jump\t// out\n        /* \"#utility.yul\":13282:13476   */\n    tag_116:\n        /* \"#utility.yul\":13322:13326   */\n      0x00\n        /* \"#utility.yul\":13342:13362   */\n      tag_346\n        /* \"#utility.yul\":13360:13361   */\n      dup3\n        /* \"#utility.yul\":13342:13362   */\n      tag_188\n      jump\t// in\n    tag_346:\n        /* \"#utility.yul\":13337:13362   */\n      swap2\n      pop\n        /* \"#utility.yul\":13376:13396   */\n      tag_347\n        /* \"#utility.yul\":13394:13395   */\n      dup4\n        /* \"#utility.yul\":13376:13396   */\n      tag_188\n      jump\t// in\n    tag_347:\n        /* \"#utility.yul\":13371:13396   */\n      swap3\n      pop\n        /* \"#utility.yul\":13420:13421   */\n      dup3\n        /* \"#utility.yul\":13417:13418   */\n      dup3\n        /* \"#utility.yul\":13413:13422   */\n      sub\n        /* \"#utility.yul\":13405:13422   */\n      swap1\n      pop\n        /* \"#utility.yul\":13444:13445   */\n      dup2\n        /* \"#utility.yul\":13438:13442   */\n      dup2\n        /* \"#utility.yul\":13435:13446   */\n      gt\n        /* \"#utility.yul\":13432:13469   */\n      iszero\n      tag_348\n      jumpi\n        /* \"#utility.yul\":13449:13467   */\n      tag_349\n      tag_211\n      jump\t// in\n    tag_349:\n        /* \"#utility.yul\":13432:13469   */\n    tag_348:\n        /* \"#utility.yul\":13282:13476   */\n      swap3\n      swap2\n      pop\n      pop\n      jump\t// out\n        /* \"#utility.yul\":13482:13629   */\n    tag_216:\n        /* \"#utility.yul\":13583:13594   */\n      0x00\n        /* \"#utility.yul\":13620:13623   */\n      dup2\n        /* \"#utility.yul\":13605:13623   */\n      swap1\n      pop\n        /* \"#utility.yul\":13482:13629   */\n      swap3\n      swap2\n      pop\n      pop\n      jump\t// out\n        /* \"#utility.yul\":13635:13749   */\n    tag_217:\n      pop\n      jump\t// out\n        /* \"#utility.yul\":13755:14153   */\n    tag_218:\n        /* \"#utility.yul\":13914:13917   */\n      0x00\n        /* \"#utility.yul\":13935:14018   */\n      tag_353\n        /* \"#utility.yul\":14016:14017   */\n      0x00\n        /* \"#utility.yul\":14011:14014   */\n      dup4\n        /* \"#utility.yul\":13935:14018   */\n      tag_216\n      jump\t// in\n    tag_353:\n        /* \"#utility.yul\":13928:14018   */\n      swap2\n      pop\n        /* \"#utility.yul\":14027:14120   */\n      tag_354\n        /* \"#utility.yul\":14116:14119   */\n      dup3\n        /* \"#utility.yul\":14027:14120   */\n      tag_217\n      jump\t// in\n    tag_354:\n        /* \"#utility.yul\":14145:14146   */\n      0x00\n        /* \"#utility.yul\":14140:14143   */\n      dup3\n        /* \"#utility.yul\":14136:14147   */\n      add\n        /* \"#utility.yul\":14129:14147   */\n      swap1\n      pop\n        /* \"#utility.yul\":13755:14153   */\n      swap2\n      swap1\n      pop\n      jump\t// out\n        /* \"#utility.yul\":14159:14538   */\n    tag_118:\n        /* \"#utility.yul\":14343:14346   */\n      0x00\n        /* \"#utility.yul\":14365:14512   */\n      tag_356\n        /* \"#utility.yul\":14508:14511   */\n      dup3\n        /* \"#utility.yul\":14365:14512   */\n      tag_218\n      jump\t// in\n    tag_356:\n        /* \"#utility.yul\":14358:14512   */\n      swap2\n      pop\n        /* \"#utility.yul\":14529:14532   */\n      dup2\n        /* \"#utility.yul\":14522:14532   */\n      swap1\n      pop\n        /* \"#utility.yul\":14159:14538   */\n      swap2\n      swap1\n      pop\n      jump\t// out\n        /* \"#utility.yul\":14544:14718   */\n    tag_219:\n        /* \"#utility.yul\":14684:14710   */\n      0x4661696c656420746f207472616e736665722045746865720000000000000000\n        /* \"#utility.yul\":14680:14681   */\n      0x00\n        /* \"#utility.yul\":14672:14678   */\n      dup3\n        /* \"#utility.yul\":14668:14682   */\n      add\n        /* \"#utility.yul\":14661:14711   */\n      mstore\n        /* \"#utility.yul\":14544:14718   */\n      pop\n      jump\t// out\n        /* \"#utility.yul\":14724:15090   */\n    tag_220:\n        /* \"#utility.yul\":14866:14869   */\n      0x00\n        /* \"#utility.yul\":14887:14954   */\n      tag_359\n        /* \"#utility.yul\":14951:14953   */\n      0x18\n        /* \"#utility.yul\":14946:14949   */\n      dup4\n        /* \"#utility.yul\":14887:14954   */\n      tag_198\n      jump\t// in\n    tag_359:\n        /* \"#utility.yul\":14880:14954   */\n      swap2\n      pop\n        /* \"#utility.yul\":14963:15056   */\n      tag_360\n        /* \"#utility.yul\":15052:15055   */\n      dup3\n        /* \"#utility.yul\":14963:15056   */\n      tag_219\n      jump\t// in\n    tag_360:\n        /* \"#utility.yul\":15081:15083   */\n      0x20\n        /* \"#utility.yul\":15076:15079   */\n      dup3\n        /* \"#utility.yul\":15072:15084   */\n      add\n        /* \"#utility.yul\":15065:15084   */\n      swap1\n      pop\n        /* \"#utility.yul\":14724:15090   */\n      swap2\n      swap1\n      pop\n      jump\t// out\n        /* \"#utility.yul\":15096:15515   */\n    tag_125:\n        /* \"#utility.yul\":15262:15266   */\n      0x00\n        /* \"#utility.yul\":15300:15302   */\n      0x20\n        /* \"#utility.yul\":15289:15298   */\n      dup3\n        /* \"#utility.yul\":15285:15303   */\n      add\n        /* \"#utility.yul\":15277:15303   */\n      swap1\n      pop\n        /* \"#utility.yul\":15349:15358   */\n      dup2\n        /* \"#utility.yul\":15343:15347   */\n      dup2\n        /* \"#utility.yul\":15339:15359   */\n      sub\n        /* \"#utility.yul\":15335:15336   */\n      0x00\n        /* \"#utility.yul\":15324:15333   */\n      dup4\n        /* \"#utility.yul\":15320:15337   */\n      add\n        /* \"#utility.yul\":15313:15360   */\n      mstore\n        /* \"#utility.yul\":15377:15508   */\n      tag_362\n        /* \"#utility.yul\":15503:15507   */\n      dup2\n        /* \"#utility.yul\":15377:15508   */\n      tag_220\n      jump\t// in\n    tag_362:\n        /* \"#utility.yul\":15369:15508   */\n      swap1\n      pop\n        /* \"#utility.yul\":15096:15515   */\n      swap2\n      swap1\n      pop\n      jump\t// out\n        /* \"#utility.yul\":15521:15689   */\n    tag_221:\n        /* \"#utility.yul\":15661:15681   */\n      0x4661696c656420746f2077697468647261770000000000000000000000000000\n        /* \"#utility.yul\":15657:15658   */\n      0x00\n        /* \"#utility.yul\":15649:15655   */\n      dup3\n        /* \"#utility.yul\":15645:15659   */\n      add\n        /* \"#utility.yul\":15638:15682   */\n      mstore\n        /* \"#utility.yul\":15521:15689   */\n      pop\n      jump\t// out\n        /* \"#utility.yul\":15695:16061   */\n    tag_222:\n        /* \"#utility.yul\":15837:15840   */\n      0x00\n        /* \"#utility.yul\":15858:15925   */\n      tag_365\n        /* \"#utility.yul\":15922:15924   */\n      0x12\n        /* \"#utility.yul\":15917:15920   */\n      dup4\n        /* \"#utility.yul\":15858:15925   */\n      tag_198\n      jump\t// in\n    tag_365:\n        /* \"#utility.yul\":15851:15925   */\n      swap2\n      pop\n        /* \"#utility.yul\":15934:16027   */\n      tag_366\n        /* \"#utility.yul\":16023:16026   */\n      dup3\n        /* \"#utility.yul\":15934:16027   */\n      tag_221\n      jump\t// in\n    tag_366:\n        /* \"#utility.yul\":16052:16054   */\n      0x20\n        /* \"#utility.yul\":16047:16050   */\n      dup3\n        /* \"#utility.yul\":16043:16055   */\n      add\n        /* \"#utility.yul\":16036:16055   */\n      swap1\n      pop\n        /* \"#utility.yul\":15695:16061   */\n      swap2\n      swap1\n      pop\n      jump\t// out\n        /* \"#utility.yul\":16067:16486   */\n    tag_139:\n        /* \"#utility.yul\":16233:16237   */\n      0x00\n        /* \"#utility.yul\":16271:16273   */\n      0x20\n        /* \"#utility.yul\":16260:16269   */\n      dup3\n        /* \"#utility.yul\":16256:16274   */\n      add\n        /* \"#utility.yul\":16248:16274   */\n      swap1\n      pop\n        /* \"#utility.yul\":16320:16329   */\n      dup2\n        /* \"#utility.yul\":16314:16318   */\n      dup2\n        /* \"#utility.yul\":16310:16330   */\n      sub\n        /* \"#utility.yul\":16306:16307   */\n      0x00\n        /* \"#utility.yul\":16295:16304   */\n      dup4\n        /* \"#utility.yul\":16291:16308   */\n      add\n        /* \"#utility.yul\":16284:16331   */\n      mstore\n        /* \"#utility.yul\":16348:16479   */\n      tag_368\n        /* \"#utility.yul\":16474:16478   */\n      dup2\n        /* \"#utility.yul\":16348:16479   */\n      tag_222\n      jump\t// in\n    tag_368:\n        /* \"#utility.yul\":16340:16479   */\n      swap1\n      pop\n        /* \"#utility.yul\":16067:16486   */\n      swap2\n      swap1\n      pop\n      jump\t// out\n        /* \"#utility.yul\":16492:16665   */\n    tag_223:\n        /* \"#utility.yul\":16632:16657   */\n      0x4372656469746f72206e6f742072656769737465726564000000000000000000\n        /* \"#utility.yul\":16628:16629   */\n      0x00\n        /* \"#utility.yul\":16620:16626   */\n      dup3\n        /* \"#utility.yul\":16616:16630   */\n      add\n        /* \"#utility.yul\":16609:16658   */\n      mstore\n        /* \"#utility.yul\":16492:16665   */\n      pop\n      jump\t// out\n        /* \"#utility.yul\":16671:17037   */\n    tag_224:\n        /* \"#utility.yul\":16813:16816   */\n      0x00\n        /* \"#utility.yul\":16834:16901   */\n      tag_371\n        /* \"#utility.yul\":16898:16900   */\n      0x17\n        /* \"#utility.yul\":16893:16896   */\n      dup4\n        /* \"#utility.yul\":16834:16901   */\n      tag_198\n      jump\t// in\n    tag_371:\n        /* \"#utility.yul\":16827:16901   */\n      swap2\n      pop\n        /* \"#utility.yul\":16910:17003   */\n      tag_372\n        /* \"#utility.yul\":16999:17002   */\n      dup3\n        /* \"#utility.yul\":16910:17003   */\n      tag_223\n      jump\t// in\n    tag_372:\n        /* \"#utility.yul\":17028:17030   */\n      0x20\n        /* \"#utility.yul\":17023:17026   */\n      dup3\n        /* \"#utility.yul\":17019:17031   */\n      add\n        /* \"#utility.yul\":17012:17031   */\n      swap1\n      pop\n        /* \"#utility.yul\":16671:17037   */\n      swap2\n      swap1\n      pop\n      jump\t// out\n        /* \"#utility.yul\":17043:17462   */\n    tag_155:\n        /* \"#utility.yul\":17209:17213   */\n      0x00\n        /* \"#utility.yul\":17247:17249   */\n      0x20\n        /* \"#utility.yul\":17236:17245   */\n      dup3\n        /* \"#utility.yul\":17232:17250   */\n      add\n        /* \"#utility.yul\":17224:17250   */\n      swap1\n      pop\n        /* \"#utility.yul\":17296:17305   */\n      dup2\n        /* \"#utility.yul\":17290:17294   */\n      dup2\n        /* \"#utility.yul\":17286:17306   */\n      sub\n        /* \"#utility.yul\":17282:17283   */\n      0x00\n        /* \"#utility.yul\":17271:17280   */\n      dup4\n        /* \"#utility.yul\":17267:17284   */\n      add\n        /* \"#utility.yul\":17260:17307   */\n      mstore\n        /* \"#utility.yul\":17324:17455   */\n      tag_374\n        /* \"#utility.yul\":17450:17454   */\n      dup2\n        /* \"#utility.yul\":17324:17455   */\n      tag_224\n      jump\t// in\n    tag_374:\n        /* \"#utility.yul\":17316:17455   */\n      swap1\n      pop\n        /* \"#utility.yul\":17043:17462   */\n      swap2\n      swap1\n      pop\n      jump\t// out\n        /* \"#utility.yul\":17468:17647   */\n    tag_225:\n        /* \"#utility.yul\":17608:17639   */\n      0x416d6f756e74206d7573742062652067726561746572207468616e2030000000\n        /* \"#utility.yul\":17604:17605   */\n      0x00\n        /* \"#utility.yul\":17596:17602   */\n      dup3\n        /* \"#utility.yul\":17592:17606   */\n      add\n        /* \"#utility.yul\":17585:17640   */\n      mstore\n        /* \"#utility.yul\":17468:17647   */\n      pop\n      jump\t// out\n        /* \"#utility.yul\":17653:18019   */\n    tag_226:\n        /* \"#utility.yul\":17795:17798   */\n      0x00\n        /* \"#utility.yul\":17816:17883   */\n      tag_377\n        /* \"#utility.yul\":17880:17882   */\n      0x1d\n        /* \"#utility.yul\":17875:17878   */\n      dup4\n        /* \"#utility.yul\":17816:17883   */\n      tag_198\n      jump\t// in\n    tag_377:\n        /* \"#utility.yul\":17809:17883   */\n      swap2\n      pop\n        /* \"#utility.yul\":17892:17985   */\n      tag_378\n        /* \"#utility.yul\":17981:17984   */\n      dup3\n        /* \"#utility.yul\":17892:17985   */\n      tag_225\n      jump\t// in\n    tag_378:\n        /* \"#utility.yul\":18010:18012   */\n      0x20\n        /* \"#utility.yul\":18005:18008   */\n      dup3\n        /* \"#utility.yul\":18001:18013   */\n      add\n        /* \"#utility.yul\":17994:18013   */\n      swap1\n      pop\n        /* \"#utility.yul\":17653:18019   */\n      swap2\n      swap1\n      pop\n      jump\t// out\n        /* \"#utility.yul\":18025:18444   */\n    tag_158:\n        /* \"#utility.yul\":18191:18195   */\n      0x00\n        /* \"#utility.yul\":18229:18231   */\n      0x20\n        /* \"#utility.yul\":18218:18227   */\n      dup3\n        /* \"#utility.yul\":18214:18232   */\n      add\n        /* \"#utility.yul\":18206:18232   */\n      swap1\n      pop\n        /* \"#utility.yul\":18278:18287   */\n      dup2\n        /* \"#utility.yul\":18272:18276   */\n      dup2\n        /* \"#utility.yul\":18268:18288   */\n      sub\n        /* \"#utility.yul\":18264:18265   */\n      0x00\n        /* \"#utility.yul\":18253:18262   */\n      dup4\n        /* \"#utility.yul\":18249:18266   */\n      add\n        /* \"#utility.yul\":18242:18289   */\n      mstore\n        /* \"#utility.yul\":18306:18437   */\n      tag_380\n        /* \"#utility.yul\":18432:18436   */\n      dup2\n        /* \"#utility.yul\":18306:18437   */\n      tag_226\n      jump\t// in\n    tag_380:\n        /* \"#utility.yul\":18298:18437   */\n      swap1\n      pop\n        /* \"#utility.yul\":18025:18444   */\n      swap2\n      swap1\n      pop\n      jump\t// out\n        /* \"#utility.yul\":18450:18624   */\n    tag_227:\n        /* \"#utility.yul\":18590:18616   */\n      0x4465627420616d6f756e7420697320696e636f72726563740000000000000000\n        /* \"#utility.yul\":18586:18587   */\n      0x00\n        /* \"#utility.yul\":18578:18584   */\n      dup3\n        /* \"#utility.yul\":18574:18588   */\n      add\n        /* \"#utility.yul\":18567:18617   */\n      mstore\n        /* \"#utility.yul\":18450:18624   */\n      pop\n      jump\t// out\n        /* \"#utility.yul\":18630:18996   */\n    tag_228:\n        /* \"#utility.yul\":18772:18775   */\n      0x00\n        /* \"#utility.yul\":18793:18860   */\n      tag_383\n        /* \"#utility.yul\":18857:18859   */\n      0x18\n        /* \"#utility.yul\":18852:18855   */\n      dup4\n        /* \"#utility.yul\":18793:18860   */\n      tag_198\n      jump\t// in\n    tag_383:\n        /* \"#utility.yul\":18786:18860   */\n      swap2\n      pop\n        /* \"#utility.yul\":18869:18962   */\n      tag_384\n        /* \"#utility.yul\":18958:18961   */\n      dup3\n        /* \"#utility.yul\":18869:18962   */\n      tag_227\n      jump\t// in\n    tag_384:\n        /* \"#utility.yul\":18987:18989   */\n      0x20\n        /* \"#utility.yul\":18982:18985   */\n      dup3\n        /* \"#utility.yul\":18978:18990   */\n      add\n        /* \"#utility.yul\":18971:18990   */\n      swap1\n      pop\n        /* \"#utility.yul\":18630:18996   */\n      swap2\n      swap1\n      pop\n      jump\t// out\n        /* \"#utility.yul\":19002:19421   */\n    tag_161:\n        /* \"#utility.yul\":19168:19172   */\n      0x00\n        /* \"#utility.yul\":19206:19208   */\n      0x20\n        /* \"#utility.yul\":19195:19204   */\n      dup3\n        /* \"#utility.yul\":19191:19209   */\n      add\n        /* \"#utility.yul\":19183:19209   */\n      swap1\n      pop\n        /* \"#utility.yul\":19255:19264   */\n      dup2\n        /* \"#utility.yul\":19249:19253   */\n      dup2\n        /* \"#utility.yul\":19245:19265   */\n      sub\n        /* \"#utility.yul\":19241:19242   */\n      0x00\n        /* \"#utility.yul\":19230:19239   */\n      dup4\n        /* \"#utility.yul\":19226:19243   */\n      add\n        /* \"#utility.yul\":19219:19266   */\n      mstore\n        /* \"#utility.yul\":19283:19414   */\n      tag_386\n        /* \"#utility.yul\":19409:19413   */\n      dup2\n        /* \"#utility.yul\":19283:19414   */\n      tag_228\n      jump\t// in\n    tag_386:\n        /* \"#utility.yul\":19275:19414   */\n      swap1\n      pop\n        /* \"#utility.yul\":19002:19421   */\n      swap2\n      swap1\n      pop\n      jump\t// out\n\n    auxdata: 0xa26469706673582212202951c2f905f816d4e443ebd7bd11a2803e6e464a46d5d05af7b1ab981e1ffd2964736f6c634300081e0033\n}\n",
				"bytecode": {
					"linkReferences": {},
					"object": "608060405234801561000f575f5ffd5b50335f5f6101000a81548173ffffffffffffffffffffffffffffffffffffffff021916908373ffffffffffffffffffffffffffffffffffffffff160217905550600160025f3373ffffffffffffffffffffffffffffffffffffffff1673ffffffffffffffffffffffffffffffffffffffff1681526020019081526020015f205f6101000a81548160ff021916908315150217905550600133908060018154018082558091505060019003905f5260205f20015f9091909190916101000a81548173ffffffffffffffffffffffffffffffffffffffff021916908373ffffffffffffffffffffffffffffffffffffffff160217905550611f06806101115f395ff3fe6080604052600436106100a6575f3560e01c80635b6b431d116100635780635b6b431d146101c45780635c6261f8146101ec5780638be40e84146101f65780639dc48a4a1461021e578063b3b1161e1461025a578063b4a99a4e14610282576100a6565b806313962258146100aa5780631f5941e2146100d257806327e235e3146100fa57806344e73b78146101365780634ac1c33d14610160578063552b577c1461019c575b5f5ffd5b3480156100b5575f5ffd5b506100d060048036038101906100cb919061167d565b6102ac565b005b3480156100dd575f5ffd5b506100f860048036038101906100f391906116db565b6104ea565b005b348015610105575f5ffd5b50610120600480360381019061011b919061167d565b61073e565b60405161012d9190611728565b60405180910390f35b348015610141575f5ffd5b5061014a610753565b6040516101579190611728565b60405180910390f35b34801561016b575f5ffd5b5061018660048036038101906101819190611741565b610820565b6040516101939190611728565b60405180910390f35b3480156101a7575f5ffd5b506101c260048036038101906101bd91906117ba565b610840565b005b3480156101cf575f5ffd5b506101ea60048036038101906101e591906117f8565b610b93565b005b6101f4610d9b565b005b348015610201575f5ffd5b5061021c600480360381019061021791906116db565b610ebb565b005b348015610229575f5ffd5b50610244600480360381019061023f919061167d565b6112f0565b604051610251919061183d565b60405180910390f35b348015610265575f5ffd5b50610280600480360381019061027b91906117ba565b61130d565b005b34801561028d575f5ffd5b506102966115fb565b6040516102a39190611865565b60405180910390f35b5f5f9054906101000a900473ffffffffffffffffffffffffffffffffffffffff1673ffffffffffffffffffffffffffffffffffffffff163373ffffffffffffffffffffffffffffffffffffffff161461033a576040517f08c379a0000000000000000000000000000000000000000000000000000000008152600401610331906118fe565b60405180910390fd5b5f73ffffffffffffffffffffffffffffffffffffffff168173ffffffffffffffffffffffffffffffffffffffff16036103a8576040517f08c379a000000000000000000000000000000000000000000000000000000000815260040161039f90611966565b60405180910390fd5b60025f8273ffffffffffffffffffffffffffffffffffffffff1673ffffffffffffffffffffffffffffffffffffffff1681526020019081526020015f205f9054906101000a900460ff1615610432576040517f08c379a0000000000000000000000000000000000000000000000000000000008152600401610429906119ce565b60405180910390fd5b600160025f8373ffffffffffffffffffffffffffffffffffffffff1673ffffffffffffffffffffffffffffffffffffffff1681526020019081526020015f205f6101000a81548160ff021916908315150217905550600181908060018154018082558091505060019003905f5260205f20015f9091909190916101000a81548173ffffffffffffffffffffffffffffffffffffffff021916908373ffffffffffffffffffffffffffffffffffffffff16021790555050565b60025f3373ffffffffffffffffffffffffffffffffffffffff1673ffffffffffffffffffffffffffffffffffffffff1681526020019081526020015f205f9054906101000a900460ff16610573576040517f08c379a000000000000000000000000000000000000000000000000000000000815260040161056a90611a36565b60405180910390fd5b5f73ffffffffffffffffffffffffffffffffffffffff168273ffffffffffffffffffffffffffffffffffffffff16036105e1576040517f08c379a00000000000000000000000000000000000000000000000000000000081526004016105d890611966565b60405180910390fd5b60025f8373ffffffffffffffffffffffffffffffffffffffff1673ffffffffffffffffffffffffffffffffffffffff1681526020019081526020015f205f9054906101000a900460ff1661066a576040517f08c379a000000000000000000000000000000000000000000000000000000000815260040161066190611a9e565b60405180910390fd5b5f81116106ac576040517f08c379a00000000000000000000000000000000000000000000000000000000081526004016106a390611b06565b60405180910390fd5b8060045f8473ffffffffffffffffffffffffffffffffffffffff1673ffffffffffffffffffffffffffffffffffffffff1681526020019081526020015f205f3373ffffffffffffffffffffffffffffffffffffffff1673ffffffffffffffffffffffffffffffffffffffff1681526020019081526020015f205f8282546107339190611b51565b925050819055505050565b6003602052805f5260405f205f915090505481565b5f60025f3373ffffffffffffffffffffffffffffffffffffffff1673ffffffffffffffffffffffffffffffffffffffff1681526020019081526020015f205f9054906101000a900460ff166107dd576040517f08c379a00000000000000000000000000000000000000000000000000000000081526004016107d490611a36565b60405180910390fd5b60035f3373ffffffffffffffffffffffffffffffffffffffff1673ffffffffffffffffffffffffffffffffffffffff1681526020019081526020015f2054905090565b6004602052815f5260405f20602052805f5260405f205f91509150505481565b60025f3373ffffffffffffffffffffffffffffffffffffffff1673ffffffffffffffffffffffffffffffffffffffff1681526020019081526020015f205f9054906101000a900460ff166108c9576040517f08c379a00000000000000000000000000000000000000000000000000000000081526004016108c090611a36565b60405180910390fd5b5f73ffffffffffffffffffffffffffffffffffffffff168273ffffffffffffffffffffffffffffffffffffffff1603610937576040517f08c379a000000000000000000000000000000000000000000000000000000000815260040161092e90611966565b60405180910390fd5b60025f8373ffffffffffffffffffffffffffffffffffffffff1673ffffffffffffffffffffffffffffffffffffffff1681526020019081526020015f205f9054906101000a900460ff166109c0576040517f08c379a00000000000000000000000000000000000000000000000000000000081526004016109b790611bce565b60405180910390fd5b8060035f3373ffffffffffffffffffffffffffffffffffffffff1673ffffffffffffffffffffffffffffffffffffffff1681526020019081526020015f20541015610a40576040517f08c379a0000000000000000000000000000000000000000000000000000000008152600401610a3790611c36565b60405180910390fd5b8060035f3373ffffffffffffffffffffffffffffffffffffffff1673ffffffffffffffffffffffffffffffffffffffff1681526020019081526020015f205f828254610a8c9190611c54565b925050819055505f8273ffffffffffffffffffffffffffffffffffffffff1682604051610ab890611cb4565b5f6040518083038185875af1925050503d805f8114610af2576040519150601f19603f3d011682016040523d82523d5f602084013e610af7565b606091505b505090508160035f8573ffffffffffffffffffffffffffffffffffffffff1673ffffffffffffffffffffffffffffffffffffffff1681526020019081526020015f205f828254610b479190611b51565b9250508190555080610b8e576040517f08c379a0000000000000000000000000000000000000000000000000000000008152600401610b8590611d12565b60405180910390fd5b505050565b60025f3373ffffffffffffffffffffffffffffffffffffffff1673ffffffffffffffffffffffffffffffffffffffff1681526020019081526020015f205f9054906101000a900460ff16610c1c576040517f08c379a0000000000000000000000000000000000000000000000000000000008152600401610c1390611a36565b60405180910390fd5b8060035f3373ffffffffffffffffffffffffffffffffffffffff1673ffffffffffffffffffffffffffffffffffffffff1681526020019081526020015f20541015610c9c576040517f08c379a0000000000000000000000000000000000000000000000000000000008152600401610c9390611c36565b60405180910390fd5b8060035f3373ffffffffffffffffffffffffffffffffffffffff1673ffffffffffffffffffffffffffffffffffffffff1681526020019081526020015f205f828254610ce89190611c54565b925050819055505f3373ffffffffffffffffffffffffffffffffffffffff1682604051610d1490611cb4565b5f6040518083038185875af1925050503d805f8114610d4e576040519150601f19603f3d011682016040523d82523d5f602084013e610d53565b606091505b5050905080610d97576040517f08c379a0000000000000000000000000000000000000000000000000000000008152600401610d8e90611d7a565b60405180910390fd5b5050565b60025f3373ffffffffffffffffffffffffffffffffffffffff1673ffffffffffffffffffffffffffffffffffffffff1681526020019081526020015f205f9054906101000a900460ff16610e24576040517f08c379a0000000000000000000000000000000000000000000000000000000008152600401610e1b90611a36565b60405180910390fd5b5f3411610e66576040517f08c379a0000000000000000000000000000000000000000000000000000000008152600401610e5d90611b06565b60405180910390fd5b3460035f3373ffffffffffffffffffffffffffffffffffffffff1673ffffffffffffffffffffffffffffffffffffffff1681526020019081526020015f205f828254610eb29190611b51565b92505081905550565b60025f3373ffffffffffffffffffffffffffffffffffffffff1673ffffffffffffffffffffffffffffffffffffffff1681526020019081526020015f205f9054906101000a900460ff16610f44576040517f08c379a0000000000000000000000000000000000000000000000000000000008152600401610f3b90611a36565b60405180910390fd5b5f73ffffffffffffffffffffffffffffffffffffffff168273ffffffffffffffffffffffffffffffffffffffff1603610fb2576040517f08c379a0000000000000000000000000000000000000000000000000000000008152600401610fa990611966565b60405180910390fd5b60025f8373ffffffffffffffffffffffffffffffffffffffff1673ffffffffffffffffffffffffffffffffffffffff1681526020019081526020015f205f9054906101000a900460ff1661103b576040517f08c379a000000000000000000000000000000000000000000000000000000000815260040161103290611de2565b60405180910390fd5b5f811161107d576040517f08c379a000000000000000000000000000000000000000000000000000000000815260040161107490611e4a565b60405180910390fd5b8060045f8473ffffffffffffffffffffffffffffffffffffffff1673ffffffffffffffffffffffffffffffffffffffff1681526020019081526020015f205f3373ffffffffffffffffffffffffffffffffffffffff1673ffffffffffffffffffffffffffffffffffffffff1681526020019081526020015f20541015611138576040517f08c379a000000000000000000000000000000000000000000000000000000000815260040161112f90611eb2565b60405180910390fd5b8060035f3373ffffffffffffffffffffffffffffffffffffffff1673ffffffffffffffffffffffffffffffffffffffff1681526020019081526020015f205410156111b8576040517f08c379a00000000000000000000000000000000000000000000000000000000081526004016111af90611c36565b60405180910390fd5b8060035f3373ffffffffffffffffffffffffffffffffffffffff1673ffffffffffffffffffffffffffffffffffffffff1681526020019081526020015f205f8282546112049190611c54565b925050819055508060035f8473ffffffffffffffffffffffffffffffffffffffff1673ffffffffffffffffffffffffffffffffffffffff1681526020019081526020015f205f8282546112579190611b51565b925050819055508060045f8473ffffffffffffffffffffffffffffffffffffffff1673ffffffffffffffffffffffffffffffffffffffff1681526020019081526020015f205f3373ffffffffffffffffffffffffffffffffffffffff1673ffffffffffffffffffffffffffffffffffffffff1681526020019081526020015f205f8282546112e59190611c54565b925050819055505050565b6002602052805f5260405f205f915054906101000a900460ff1681565b60025f3373ffffffffffffffffffffffffffffffffffffffff1673ffffffffffffffffffffffffffffffffffffffff1681526020019081526020015f205f9054906101000a900460ff16611396576040517f08c379a000000000000000000000000000000000000000000000000000000000815260040161138d90611a36565b60405180910390fd5b5f73ffffffffffffffffffffffffffffffffffffffff168273ffffffffffffffffffffffffffffffffffffffff1603611404576040517f08c379a00000000000000000000000000000000000000000000000000000000081526004016113fb90611966565b60405180910390fd5b60025f8373ffffffffffffffffffffffffffffffffffffffff1673ffffffffffffffffffffffffffffffffffffffff1681526020019081526020015f205f9054906101000a900460ff1661148d576040517f08c379a000000000000000000000000000000000000000000000000000000000815260040161148490611bce565b60405180910390fd5b8060035f3373ffffffffffffffffffffffffffffffffffffffff1673ffffffffffffffffffffffffffffffffffffffff1681526020019081526020015f2054101561150d576040517f08c379a000000000000000000000000000000000000000000000000000000000815260040161150490611c36565b60405180910390fd5b8060035f3373ffffffffffffffffffffffffffffffffffffffff1673ffffffffffffffffffffffffffffffffffffffff1681526020019081526020015f205f8282546115599190611c54565b925050819055508173ffffffffffffffffffffffffffffffffffffffff166108fc8290811502906040515f60405180830381858888f193505050501580156115a3573d5f5f3e3d5ffd5b508060035f8473ffffffffffffffffffffffffffffffffffffffff1673ffffffffffffffffffffffffffffffffffffffff1681526020019081526020015f205f8282546115f09190611b51565b925050819055505050565b5f5f9054906101000a900473ffffffffffffffffffffffffffffffffffffffff1681565b5f5ffd5b5f73ffffffffffffffffffffffffffffffffffffffff82169050919050565b5f61164c82611623565b9050919050565b61165c81611642565b8114611666575f5ffd5b50565b5f8135905061167781611653565b92915050565b5f602082840312156116925761169161161f565b5b5f61169f84828501611669565b91505092915050565b5f819050919050565b6116ba816116a8565b81146116c4575f5ffd5b50565b5f813590506116d5816116b1565b92915050565b5f5f604083850312156116f1576116f061161f565b5b5f6116fe85828601611669565b925050602061170f858286016116c7565b9150509250929050565b611722816116a8565b82525050565b5f60208201905061173b5f830184611719565b92915050565b5f5f604083850312156117575761175661161f565b5b5f61176485828601611669565b925050602061177585828601611669565b9150509250929050565b5f61178982611623565b9050919050565b6117998161177f565b81146117a3575f5ffd5b50565b5f813590506117b481611790565b92915050565b5f5f604083850312156117d0576117cf61161f565b5b5f6117dd858286016117a6565b92505060206117ee858286016116c7565b9150509250929050565b5f6020828403121561180d5761180c61161f565b5b5f61181a848285016116c7565b91505092915050565b5f8115159050919050565b61183781611823565b82525050565b5f6020820190506118505f83018461182e565b92915050565b61185f81611642565b82525050565b5f6020820190506118785f830184611856565b92915050565b5f82825260208201905092915050565b7f4f6e6c7920746865206f776e65722063616e2063616c6c20746869732066756e5f8201527f6374696f6e000000000000000000000000000000000000000000000000000000602082015250565b5f6118e860258361187e565b91506118f38261188e565b604082019050919050565b5f6020820190508181035f830152611915816118dc565b9050919050565b7f496e76616c6964206164647265737300000000000000000000000000000000005f82015250565b5f611950600f8361187e565b915061195b8261191c565b602082019050919050565b5f6020820190508181035f83015261197d81611944565b9050919050565b7f416c7265616479206164646564206173206120667269656e64000000000000005f82015250565b5f6119b860198361187e565b91506119c382611984565b602082019050919050565b5f6020820190508181035f8301526119e5816119ac565b9050919050565b7f596f7520617265206e6f742072656769737465726564000000000000000000005f82015250565b5f611a2060168361187e565b9150611a2b826119ec565b602082019050919050565b5f6020820190508181035f830152611a4d81611a14565b9050919050565b7f41646472657373206973206e6f742072656769737465726564000000000000005f82015250565b5f611a8860198361187e565b9150611a9382611a54565b602082019050919050565b5f6020820190508181035f830152611ab581611a7c565b9050919050565b7f4d75737420656e74657220612076616c696420616d6f756e74000000000000005f82015250565b5f611af060198361187e565b9150611afb82611abc565b602082019050919050565b5f6020820190508181035f830152611b1d81611ae4565b9050919050565b7f4e487b71000000000000000000000000000000000000000000000000000000005f52601160045260245ffd5b5f611b5b826116a8565b9150611b66836116a8565b9250828201905080821115611b7e57611b7d611b24565b5b92915050565b7f52656369657069656e74206e6f742072656769737465726564000000000000005f82015250565b5f611bb860198361187e565b9150611bc382611b84565b602082019050919050565b5f6020820190508181035f830152611be581611bac565b9050919050565b7f496e73756666696369656e742062616c616e63650000000000000000000000005f82015250565b5f611c2060148361187e565b9150611c2b82611bec565b602082019050919050565b5f6020820190508181035f830152611c4d81611c14565b9050919050565b5f611c5e826116a8565b9150611c69836116a8565b9250828203905081811115611c8157611c80611b24565b5b92915050565b5f81905092915050565b50565b5f611c9f5f83611c87565b9150611caa82611c91565b5f82019050919050565b5f611cbe82611c94565b9150819050919050565b7f4661696c656420746f207472616e7366657220457468657200000000000000005f82015250565b5f611cfc60188361187e565b9150611d0782611cc8565b602082019050919050565b5f6020820190508181035f830152611d2981611cf0565b9050919050565b7f4661696c656420746f20776974686472617700000000000000000000000000005f82015250565b5f611d6460128361187e565b9150611d6f82611d30565b602082019050919050565b5f6020820190508181035f830152611d9181611d58565b9050919050565b7f4372656469746f72206e6f7420726567697374657265640000000000000000005f82015250565b5f611dcc60178361187e565b9150611dd782611d98565b602082019050919050565b5f6020820190508181035f830152611df981611dc0565b9050919050565b7f416d6f756e74206d7573742062652067726561746572207468616e20300000005f82015250565b5f611e34601d8361187e565b9150611e3f82611e00565b602082019050919050565b5f6020820190508181035f830152611e6181611e28565b9050919050565b7f4465627420616d6f756e7420697320696e636f727265637400000000000000005f82015250565b5f611e9c60188361187e565b9150611ea782611e68565b602082019050919050565b5f6020820190508181035f830152611ec981611e90565b905091905056fea26469706673582212202951c2f905f816d4e443ebd7bd11a2803e6e464a46d5d05af7b1ab981e1ffd2964736f6c634300081e0033",
					"opcodes": "PUSH1 0x80 PUSH1 0x40 MSTORE CALLVALUE DUP1 ISZERO PUSH2 0xF JUMPI PUSH0 PUSH0 REVERT JUMPDEST POP CALLER PUSH0 PUSH0 PUSH2 0x100 EXP DUP2 SLOAD DUP2 PUSH20 0xFFFFFFFFFFFFFFFFFFFFFFFFFFFFFFFFFFFFFFFF MUL NOT AND SWAP1 DUP4 PUSH20 0xFFFFFFFFFFFFFFFFFFFFFFFFFFFFFFFFFFFFFFFF AND MUL OR SWAP1 SSTORE POP PUSH1 0x1 PUSH1 0x2 PUSH0 CALLER PUSH20 0xFFFFFFFFFFFFFFFFFFFFFFFFFFFFFFFFFFFFFFFF AND PUSH20 0xFFFFFFFFFFFFFFFFFFFFFFFFFFFFFFFFFFFFFFFF AND DUP2 MSTORE PUSH1 0x20 ADD SWAP1 DUP2 MSTORE PUSH1 0x20 ADD PUSH0 KECCAK256 PUSH0 PUSH2 0x100 EXP DUP2 SLOAD DUP2 PUSH1 0xFF MUL NOT AND SWAP1 DUP4 ISZERO ISZERO MUL OR SWAP1 SSTORE POP PUSH1 0x1 CALLER SWAP1 DUP1 PUSH1 0x1 DUP2 SLOAD ADD DUP1 DUP3 SSTORE DUP1 SWAP2 POP POP PUSH1 0x1 SWAP1 SUB SWAP1 PUSH0 MSTORE PUSH1 0x20 PUSH0 KECCAK256 ADD PUSH0 SWAP1 SWAP2 SWAP1 SWAP2 SWAP1 SWAP2 PUSH2 0x100 EXP DUP2 SLOAD DUP2 PUSH20 0xFFFFFFFFFFFFFFFFFFFFFFFFFFFFFFFFFFFFFFFF MUL NOT AND SWAP1 DUP4 PUSH20 0xFFFFFFFFFFFFFFFFFFFFFFFFFFFFFFFFFFFFFFFF AND MUL OR SWAP1 SSTORE POP PUSH2 0x1F06 DUP1 PUSH2 0x111 PUSH0 CODECOPY PUSH0 RETURN INVALID PUSH1 0x80 PUSH1 0x40 MSTORE PUSH1 0x4 CALLDATASIZE LT PUSH2 0xA6 JUMPI PUSH0 CALLDATALOAD PUSH1 0xE0 SHR DUP1 PUSH4 0x5B6B431D GT PUSH2 0x63 JUMPI DUP1 PUSH4 0x5B6B431D EQ PUSH2 0x1C4 JUMPI DUP1 PUSH4 0x5C6261F8 EQ PUSH2 0x1EC JUMPI DUP1 PUSH4 0x8BE40E84 EQ PUSH2 0x1F6 JUMPI DUP1 PUSH4 0x9DC48A4A EQ PUSH2 0x21E JUMPI DUP1 PUSH4 0xB3B1161E EQ PUSH2 0x25A JUMPI DUP1 PUSH4 0xB4A99A4E EQ PUSH2 0x282 JUMPI PUSH2 0xA6 JUMP JUMPDEST DUP1 PUSH4 0x13962258 EQ PUSH2 0xAA JUMPI DUP1 PUSH4 0x1F5941E2 EQ PUSH2 0xD2 JUMPI DUP1 PUSH4 0x27E235E3 EQ PUSH2 0xFA JUMPI DUP1 PUSH4 0x44E73B78 EQ PUSH2 0x136 JUMPI DUP1 PUSH4 0x4AC1C33D EQ PUSH2 0x160 JUMPI DUP1 PUSH4 0x552B577C EQ PUSH2 0x19C JUMPI JUMPDEST PUSH0 PUSH0 REVERT JUMPDEST CALLVALUE DUP1 ISZERO PUSH2 0xB5 JUMPI PUSH0 PUSH0 REVERT JUMPDEST POP PUSH2 0xD0 PUSH1 0x4 DUP1 CALLDATASIZE SUB DUP2 ADD SWAP1 PUSH2 0xCB SWAP2 SWAP1 PUSH2 0x167D JUMP JUMPDEST PUSH2 0x2AC JUMP JUMPDEST STOP JUMPDEST CALLVALUE DUP1 ISZERO PUSH2 0xDD JUMPI PUSH0 PUSH0 REVERT JUMPDEST POP PUSH2 0xF8 PUSH1 0x4 DUP1 CALLDATASIZE SUB DUP2 ADD SWAP1 PUSH2 0xF3 SWAP2 SWAP1 PUSH2 0x16DB JUMP JUMPDEST PUSH2 0x4EA JUMP JUMPDEST STOP JUMPDEST CALLVALUE DUP1 ISZERO PUSH2 0x105 JUMPI PUSH0 PUSH0 REVERT JUMPDEST POP PUSH2 0x120 PUSH1 0x4 DUP1 CALLDATASIZE SUB DUP2 ADD SWAP1 PUSH2 0x11B SWAP2 SWAP1 PUSH2 0x167D JUMP JUMPDEST PUSH2 0x73E JUMP JUMPDEST PUSH1 0x40 MLOAD PUSH2 0x12D SWAP2 SWAP1 PUSH2 0x1728 JUMP JUMPDEST PUSH1 0x40 MLOAD DUP1 SWAP2 SUB SWAP1 RETURN JUMPDEST CALLVALUE DUP1 ISZERO PUSH2 0x141 JUMPI PUSH0 PUSH0 REVERT JUMPDEST POP PUSH2 0x14A PUSH2 0x753 JUMP JUMPDEST PUSH1 0x40 MLOAD PUSH2 0x157 SWAP2 SWAP1 PUSH2 0x1728 JUMP JUMPDEST PUSH1 0x40 MLOAD DUP1 SWAP2 SUB SWAP1 RETURN JUMPDEST CALLVALUE DUP1 ISZERO PUSH2 0x16B JUMPI PUSH0 PUSH0 REVERT JUMPDEST POP PUSH2 0x186 PUSH1 0x4 DUP1 CALLDATASIZE SUB DUP2 ADD SWAP1 PUSH2 0x181 SWAP2 SWAP1 PUSH2 0x1741 JUMP JUMPDEST PUSH2 0x820 JUMP JUMPDEST PUSH1 0x40 MLOAD PUSH2 0x193 SWAP2 SWAP1 PUSH2 0x1728 JUMP JUMPDEST PUSH1 0x40 MLOAD DUP1 SWAP2 SUB SWAP1 RETURN JUMPDEST CALLVALUE DUP1 ISZERO PUSH2 0x1A7 JUMPI PUSH0 PUSH0 REVERT JUMPDEST POP PUSH2 0x1C2 PUSH1 0x4 DUP1 CALLDATASIZE SUB DUP2 ADD SWAP1 PUSH2 0x1BD SWAP2 SWAP1 PUSH2 0x17BA JUMP JUMPDEST PUSH2 0x840 JUMP JUMPDEST STOP JUMPDEST CALLVALUE DUP1 ISZERO PUSH2 0x1CF JUMPI PUSH0 PUSH0 REVERT JUMPDEST POP PUSH2 0x1EA PUSH1 0x4 DUP1 CALLDATASIZE SUB DUP2 ADD SWAP1 PUSH2 0x1E5 SWAP2 SWAP1 PUSH2 0x17F8 JUMP JUMPDEST PUSH2 0xB93 JUMP JUMPDEST STOP JUMPDEST PUSH2 0x1F4 PUSH2 0xD9B JUMP JUMPDEST STOP JUMPDEST CALLVALUE DUP1 ISZERO PUSH2 0x201 JUMPI PUSH0 PUSH0 REVERT JUMPDEST POP PUSH2 0x21C PUSH1 0x4 DUP1 CALLDATASIZE SUB DUP2 ADD SWAP1 PUSH2 0x217 SWAP2 SWAP1 PUSH2 0x16DB JUMP JUMPDEST PUSH2 0xEBB JUMP JUMPDEST STOP JUMPDEST CALLVALUE DUP1 ISZERO PUSH2 0x229 JUMPI PUSH0 PUSH0 REVERT JUMPDEST POP PUSH2 0x244 PUSH1 0x4 DUP1 CALLDATASIZE SUB DUP2 ADD SWAP1 PUSH2 0x23F SWAP2 SWAP1 PUSH2 0x167D JUMP JUMPDEST PUSH2 0x12F0 JUMP JUMPDEST PUSH1 0x40 MLOAD PUSH2 0x251 SWAP2 SWAP1 PUSH2 0x183D JUMP JUMPDEST PUSH1 0x40 MLOAD DUP1 SWAP2 SUB SWAP1 RETURN JUMPDEST CALLVALUE DUP1 ISZERO PUSH2 0x265 JUMPI PUSH0 PUSH0 REVERT JUMPDEST POP PUSH2 0x280 PUSH1 0x4 DUP1 CALLDATASIZE SUB DUP2 ADD SWAP1 PUSH2 0x27B SWAP2 SWAP1 PUSH2 0x17BA JUMP JUMPDEST PUSH2 0x130D JUMP JUMPDEST STOP JUMPDEST CALLVALUE DUP1 ISZERO PUSH2 0x28D JUMPI PUSH0 PUSH0 REVERT JUMPDEST POP PUSH2 0x296 PUSH2 0x15FB JUMP JUMPDEST PUSH1 0x40 MLOAD PUSH2 0x2A3 SWAP2 SWAP1 PUSH2 0x1865 JUMP JUMPDEST PUSH1 0x40 MLOAD DUP1 SWAP2 SUB SWAP1 RETURN JUMPDEST PUSH0 PUSH0 SWAP1 SLOAD SWAP1 PUSH2 0x100 EXP SWAP1 DIV PUSH20 0xFFFFFFFFFFFFFFFFFFFFFFFFFFFFFFFFFFFFFFFF AND PUSH20 0xFFFFFFFFFFFFFFFFFFFFFFFFFFFFFFFFFFFFFFFF AND CALLER PUSH20 0xFFFFFFFFFFFFFFFFFFFFFFFFFFFFFFFFFFFFFFFF AND EQ PUSH2 0x33A JUMPI PUSH1 0x40 MLOAD PUSH32 0x8C379A000000000000000000000000000000000000000000000000000000000 DUP2 MSTORE PUSH1 0x4 ADD PUSH2 0x331 SWAP1 PUSH2 0x18FE JUMP JUMPDEST PUSH1 0x40 MLOAD DUP1 SWAP2 SUB SWAP1 REVERT JUMPDEST PUSH0 PUSH20 0xFFFFFFFFFFFFFFFFFFFFFFFFFFFFFFFFFFFFFFFF AND DUP2 PUSH20 0xFFFFFFFFFFFFFFFFFFFFFFFFFFFFFFFFFFFFFFFF AND SUB PUSH2 0x3A8 JUMPI PUSH1 0x40 MLOAD PUSH32 0x8C379A000000000000000000000000000000000000000000000000000000000 DUP2 MSTORE PUSH1 0x4 ADD PUSH2 0x39F SWAP1 PUSH2 0x1966 JUMP JUMPDEST PUSH1 0x40 MLOAD DUP1 SWAP2 SUB SWAP1 REVERT JUMPDEST PUSH1 0x2 PUSH0 DUP3 PUSH20 0xFFFFFFFFFFFFFFFFFFFFFFFFFFFFFFFFFFFFFFFF AND PUSH20 0xFFFFFFFFFFFFFFFFFFFFFFFFFFFFFFFFFFFFFFFF AND DUP2 MSTORE PUSH1 0x20 ADD SWAP1 DUP2 MSTORE PUSH1 0x20 ADD PUSH0 KECCAK256 PUSH0 SWAP1 SLOAD SWAP1 PUSH2 0x100 EXP SWAP1 DIV PUSH1 0xFF AND ISZERO PUSH2 0x432 JUMPI PUSH1 0x40 MLOAD PUSH32 0x8C379A000000000000000000000000000000000000000000000000000000000 DUP2 MSTORE PUSH1 0x4 ADD PUSH2 0x429 SWAP1 PUSH2 0x19CE JUMP JUMPDEST PUSH1 0x40 MLOAD DUP1 SWAP2 SUB SWAP1 REVERT JUMPDEST PUSH1 0x1 PUSH1 0x2 PUSH0 DUP4 PUSH20 0xFFFFFFFFFFFFFFFFFFFFFFFFFFFFFFFFFFFFFFFF AND PUSH20 0xFFFFFFFFFFFFFFFFFFFFFFFFFFFFFFFFFFFFFFFF AND DUP2 MSTORE PUSH1 0x20 ADD SWAP1 DUP2 MSTORE PUSH1 0x20 ADD PUSH0 KECCAK256 PUSH0 PUSH2 0x100 EXP DUP2 SLOAD DUP2 PUSH1 0xFF MUL NOT AND SWAP1 DUP4 ISZERO ISZERO MUL OR SWAP1 SSTORE POP PUSH1 0x1 DUP2 SWAP1 DUP1 PUSH1 0x1 DUP2 SLOAD ADD DUP1 DUP3 SSTORE DUP1 SWAP2 POP POP PUSH1 0x1 SWAP1 SUB SWAP1 PUSH0 MSTORE PUSH1 0x20 PUSH0 KECCAK256 ADD PUSH0 SWAP1 SWAP2 SWAP1 SWAP2 SWAP1 SWAP2 PUSH2 0x100 EXP DUP2 SLOAD DUP2 PUSH20 0xFFFFFFFFFFFFFFFFFFFFFFFFFFFFFFFFFFFFFFFF MUL NOT AND SWAP1 DUP4 PUSH20 0xFFFFFFFFFFFFFFFFFFFFFFFFFFFFFFFFFFFFFFFF AND MUL OR SWAP1 SSTORE POP POP JUMP JUMPDEST PUSH1 0x2 PUSH0 CALLER PUSH20 0xFFFFFFFFFFFFFFFFFFFFFFFFFFFFFFFFFFFFFFFF AND PUSH20 0xFFFFFFFFFFFFFFFFFFFFFFFFFFFFFFFFFFFFFFFF AND DUP2 MSTORE PUSH1 0x20 ADD SWAP1 DUP2 MSTORE PUSH1 0x20 ADD PUSH0 KECCAK256 PUSH0 SWAP1 SLOAD SWAP1 PUSH2 0x100 EXP SWAP1 DIV PUSH1 0xFF AND PUSH2 0x573 JUMPI PUSH1 0x40 MLOAD PUSH32 0x8C379A000000000000000000000000000000000000000000000000000000000 DUP2 MSTORE PUSH1 0x4 ADD PUSH2 0x56A SWAP1 PUSH2 0x1A36 JUMP JUMPDEST PUSH1 0x40 MLOAD DUP1 SWAP2 SUB SWAP1 REVERT JUMPDEST PUSH0 PUSH20 0xFFFFFFFFFFFFFFFFFFFFFFFFFFFFFFFFFFFFFFFF AND DUP3 PUSH20 0xFFFFFFFFFFFFFFFFFFFFFFFFFFFFFFFFFFFFFFFF AND SUB PUSH2 0x5E1 JUMPI PUSH1 0x40 MLOAD PUSH32 0x8C379A000000000000000000000000000000000000000000000000000000000 DUP2 MSTORE PUSH1 0x4 ADD PUSH2 0x5D8 SWAP1 PUSH2 0x1966 JUMP JUMPDEST PUSH1 0x40 MLOAD DUP1 SWAP2 SUB SWAP1 REVERT JUMPDEST PUSH1 0x2 PUSH0 DUP4 PUSH20 0xFFFFFFFFFFFFFFFFFFFFFFFFFFFFFFFFFFFFFFFF AND PUSH20 0xFFFFFFFFFFFFFFFFFFFFFFFFFFFFFFFFFFFFFFFF AND DUP2 MSTORE PUSH1 0x20 ADD SWAP1 DUP2 MSTORE PUSH1 0x20 ADD PUSH0 KECCAK256 PUSH0 SWAP1 SLOAD SWAP1 PUSH2 0x100 EXP SWAP1 DIV PUSH1 0xFF AND PUSH2 0x66A JUMPI PUSH1 0x40 MLOAD PUSH32 0x8C379A000000000000000000000000000000000000000000000000000000000 DUP2 MSTORE PUSH1 0x4 ADD PUSH2 0x661 SWAP1 PUSH2 0x1A9E JUMP JUMPDEST PUSH1 0x40 MLOAD DUP1 SWAP2 SUB SWAP1 REVERT JUMPDEST PUSH0 DUP2 GT PUSH2 0x6AC JUMPI PUSH1 0x40 MLOAD PUSH32 0x8C379A000000000000000000000000000000000000000000000000000000000 DUP2 MSTORE PUSH1 0x4 ADD PUSH2 0x6A3 SWAP1 PUSH2 0x1B06 JUMP JUMPDEST PUSH1 0x40 MLOAD DUP1 SWAP2 SUB SWAP1 REVERT JUMPDEST DUP1 PUSH1 0x4 PUSH0 DUP5 PUSH20 0xFFFFFFFFFFFFFFFFFFFFFFFFFFFFFFFFFFFFFFFF AND PUSH20 0xFFFFFFFFFFFFFFFFFFFFFFFFFFFFFFFFFFFFFFFF AND DUP2 MSTORE PUSH1 0x20 ADD SWAP1 DUP2 MSTORE PUSH1 0x20 ADD PUSH0 KECCAK256 PUSH0 CALLER PUSH20 0xFFFFFFFFFFFFFFFFFFFFFFFFFFFFFFFFFFFFFFFF AND PUSH20 0xFFFFFFFFFFFFFFFFFFFFFFFFFFFFFFFFFFFFFFFF AND DUP2 MSTORE PUSH1 0x20 ADD SWAP1 DUP2 MSTORE PUSH1 0x20 ADD PUSH0 KECCAK256 PUSH0 DUP3 DUP3 SLOAD PUSH2 0x733 SWAP2 SWAP1 PUSH2 0x1B51 JUMP JUMPDEST SWAP3 POP POP DUP2 SWAP1 SSTORE POP POP POP JUMP JUMPDEST PUSH1 0x3 PUSH1 0x20 MSTORE DUP1 PUSH0 MSTORE PUSH1 0x40 PUSH0 KECCAK256 PUSH0 SWAP2 POP SWAP1 POP SLOAD DUP2 JUMP JUMPDEST PUSH0 PUSH1 0x2 PUSH0 CALLER PUSH20 0xFFFFFFFFFFFFFFFFFFFFFFFFFFFFFFFFFFFFFFFF AND PUSH20 0xFFFFFFFFFFFFFFFFFFFFFFFFFFFFFFFFFFFFFFFF AND DUP2 MSTORE PUSH1 0x20 ADD SWAP1 DUP2 MSTORE PUSH1 0x20 ADD PUSH0 KECCAK256 PUSH0 SWAP1 SLOAD SWAP1 PUSH2 0x100 EXP SWAP1 DIV PUSH1 0xFF AND PUSH2 0x7DD JUMPI PUSH1 0x40 MLOAD PUSH32 0x8C379A000000000000000000000000000000000000000000000000000000000 DUP2 MSTORE PUSH1 0x4 ADD PUSH2 0x7D4 SWAP1 PUSH2 0x1A36 JUMP JUMPDEST PUSH1 0x40 MLOAD DUP1 SWAP2 SUB SWAP1 REVERT JUMPDEST PUSH1 0x3 PUSH0 CALLER PUSH20 0xFFFFFFFFFFFFFFFFFFFFFFFFFFFFFFFFFFFFFFFF AND PUSH20 0xFFFFFFFFFFFFFFFFFFFFFFFFFFFFFFFFFFFFFFFF AND DUP2 MSTORE PUSH1 0x20 ADD SWAP1 DUP2 MSTORE PUSH1 0x20 ADD PUSH0 KECCAK256 SLOAD SWAP1 POP SWAP1 JUMP JUMPDEST PUSH1 0x4 PUSH1 0x20 MSTORE DUP2 PUSH0 MSTORE PUSH1 0x40 PUSH0 KECCAK256 PUSH1 0x20 MSTORE DUP1 PUSH0 MSTORE PUSH1 0x40 PUSH0 KECCAK256 PUSH0 SWAP2 POP SWAP2 POP POP SLOAD DUP2 JUMP JUMPDEST PUSH1 0x2 PUSH0 CALLER PUSH20 0xFFFFFFFFFFFFFFFFFFFFFFFFFFFFFFFFFFFFFFFF AND PUSH20 0xFFFFFFFFFFFFFFFFFFFFFFFFFFFFFFFFFFFFFFFF AND DUP2 MSTORE PUSH1 0x20 ADD SWAP1 DUP2 MSTORE PUSH1 0x20 ADD PUSH0 KECCAK256 PUSH0 SWAP1 SLOAD SWAP1 PUSH2 0x100 EXP SWAP1 DIV PUSH1 0xFF AND PUSH2 0x8C9 JUMPI PUSH1 0x40 MLOAD PUSH32 0x8C379A000000000000000000000000000000000000000000000000000000000 DUP2 MSTORE PUSH1 0x4 ADD PUSH2 0x8C0 SWAP1 PUSH2 0x1A36 JUMP JUMPDEST PUSH1 0x40 MLOAD DUP1 SWAP2 SUB SWAP1 REVERT JUMPDEST PUSH0 PUSH20 0xFFFFFFFFFFFFFFFFFFFFFFFFFFFFFFFFFFFFFFFF AND DUP3 PUSH20 0xFFFFFFFFFFFFFFFFFFFFFFFFFFFFFFFFFFFFFFFF AND SUB PUSH2 0x937 JUMPI PUSH1 0x40 MLOAD PUSH32 0x8C379A000000000000000000000000000000000000000000000000000000000 DUP2 MSTORE PUSH1 0x4 ADD PUSH2 0x92E SWAP1 PUSH2 0x1966 JUMP JUMPDEST PUSH1 0x40 MLOAD DUP1 SWAP2 SUB SWAP1 REVERT JUMPDEST PUSH1 0x2 PUSH0 DUP4 PUSH20 0xFFFFFFFFFFFFFFFFFFFFFFFFFFFFFFFFFFFFFFFF AND PUSH20 0xFFFFFFFFFFFFFFFFFFFFFFFFFFFFFFFFFFFFFFFF AND DUP2 MSTORE PUSH1 0x20 ADD SWAP1 DUP2 MSTORE PUSH1 0x20 ADD PUSH0 KECCAK256 PUSH0 SWAP1 SLOAD SWAP1 PUSH2 0x100 EXP SWAP1 DIV PUSH1 0xFF AND PUSH2 0x9C0 JUMPI PUSH1 0x40 MLOAD PUSH32 0x8C379A000000000000000000000000000000000000000000000000000000000 DUP2 MSTORE PUSH1 0x4 ADD PUSH2 0x9B7 SWAP1 PUSH2 0x1BCE JUMP JUMPDEST PUSH1 0x40 MLOAD DUP1 SWAP2 SUB SWAP1 REVERT JUMPDEST DUP1 PUSH1 0x3 PUSH0 CALLER PUSH20 0xFFFFFFFFFFFFFFFFFFFFFFFFFFFFFFFFFFFFFFFF AND PUSH20 0xFFFFFFFFFFFFFFFFFFFFFFFFFFFFFFFFFFFFFFFF AND DUP2 MSTORE PUSH1 0x20 ADD SWAP1 DUP2 MSTORE PUSH1 0x20 ADD PUSH0 KECCAK256 SLOAD LT ISZERO PUSH2 0xA40 JUMPI PUSH1 0x40 MLOAD PUSH32 0x8C379A000000000000000000000000000000000000000000000000000000000 DUP2 MSTORE PUSH1 0x4 ADD PUSH2 0xA37 SWAP1 PUSH2 0x1C36 JUMP JUMPDEST PUSH1 0x40 MLOAD DUP1 SWAP2 SUB SWAP1 REVERT JUMPDEST DUP1 PUSH1 0x3 PUSH0 CALLER PUSH20 0xFFFFFFFFFFFFFFFFFFFFFFFFFFFFFFFFFFFFFFFF AND PUSH20 0xFFFFFFFFFFFFFFFFFFFFFFFFFFFFFFFFFFFFFFFF AND DUP2 MSTORE PUSH1 0x20 ADD SWAP1 DUP2 MSTORE PUSH1 0x20 ADD PUSH0 KECCAK256 PUSH0 DUP3 DUP3 SLOAD PUSH2 0xA8C SWAP2 SWAP1 PUSH2 0x1C54 JUMP JUMPDEST SWAP3 POP POP DUP2 SWAP1 SSTORE POP PUSH0 DUP3 PUSH20 0xFFFFFFFFFFFFFFFFFFFFFFFFFFFFFFFFFFFFFFFF AND DUP3 PUSH1 0x40 MLOAD PUSH2 0xAB8 SWAP1 PUSH2 0x1CB4 JUMP JUMPDEST PUSH0 PUSH1 0x40 MLOAD DUP1 DUP4 SUB DUP2 DUP6 DUP8 GAS CALL SWAP3 POP POP POP RETURNDATASIZE DUP1 PUSH0 DUP2 EQ PUSH2 0xAF2 JUMPI PUSH1 0x40 MLOAD SWAP2 POP PUSH1 0x1F NOT PUSH1 0x3F RETURNDATASIZE ADD AND DUP3 ADD PUSH1 0x40 MSTORE RETURNDATASIZE DUP3 MSTORE RETURNDATASIZE PUSH0 PUSH1 0x20 DUP5 ADD RETURNDATACOPY PUSH2 0xAF7 JUMP JUMPDEST PUSH1 0x60 SWAP2 POP JUMPDEST POP POP SWAP1 POP DUP2 PUSH1 0x3 PUSH0 DUP6 PUSH20 0xFFFFFFFFFFFFFFFFFFFFFFFFFFFFFFFFFFFFFFFF AND PUSH20 0xFFFFFFFFFFFFFFFFFFFFFFFFFFFFFFFFFFFFFFFF AND DUP2 MSTORE PUSH1 0x20 ADD SWAP1 DUP2 MSTORE PUSH1 0x20 ADD PUSH0 KECCAK256 PUSH0 DUP3 DUP3 SLOAD PUSH2 0xB47 SWAP2 SWAP1 PUSH2 0x1B51 JUMP JUMPDEST SWAP3 POP POP DUP2 SWAP1 SSTORE POP DUP1 PUSH2 0xB8E JUMPI PUSH1 0x40 MLOAD PUSH32 0x8C379A000000000000000000000000000000000000000000000000000000000 DUP2 MSTORE PUSH1 0x4 ADD PUSH2 0xB85 SWAP1 PUSH2 0x1D12 JUMP JUMPDEST PUSH1 0x40 MLOAD DUP1 SWAP2 SUB SWAP1 REVERT JUMPDEST POP POP POP JUMP JUMPDEST PUSH1 0x2 PUSH0 CALLER PUSH20 0xFFFFFFFFFFFFFFFFFFFFFFFFFFFFFFFFFFFFFFFF AND PUSH20 0xFFFFFFFFFFFFFFFFFFFFFFFFFFFFFFFFFFFFFFFF AND DUP2 MSTORE PUSH1 0x20 ADD SWAP1 DUP2 MSTORE PUSH1 0x20 ADD PUSH0 KECCAK256 PUSH0 SWAP1 SLOAD SWAP1 PUSH2 0x100 EXP SWAP1 DIV PUSH1 0xFF AND PUSH2 0xC1C JUMPI PUSH1 0x40 MLOAD PUSH32 0x8C379A000000000000000000000000000000000000000000000000000000000 DUP2 MSTORE PUSH1 0x4 ADD PUSH2 0xC13 SWAP1 PUSH2 0x1A36 JUMP JUMPDEST PUSH1 0x40 MLOAD DUP1 SWAP2 SUB SWAP1 REVERT JUMPDEST DUP1 PUSH1 0x3 PUSH0 CALLER PUSH20 0xFFFFFFFFFFFFFFFFFFFFFFFFFFFFFFFFFFFFFFFF AND PUSH20 0xFFFFFFFFFFFFFFFFFFFFFFFFFFFFFFFFFFFFFFFF AND DUP2 MSTORE PUSH1 0x20 ADD SWAP1 DUP2 MSTORE PUSH1 0x20 ADD PUSH0 KECCAK256 SLOAD LT ISZERO PUSH2 0xC9C JUMPI PUSH1 0x40 MLOAD PUSH32 0x8C379A000000000000000000000000000000000000000000000000000000000 DUP2 MSTORE PUSH1 0x4 ADD PUSH2 0xC93 SWAP1 PUSH2 0x1C36 JUMP JUMPDEST PUSH1 0x40 MLOAD DUP1 SWAP2 SUB SWAP1 REVERT JUMPDEST DUP1 PUSH1 0x3 PUSH0 CALLER PUSH20 0xFFFFFFFFFFFFFFFFFFFFFFFFFFFFFFFFFFFFFFFF AND PUSH20 0xFFFFFFFFFFFFFFFFFFFFFFFFFFFFFFFFFFFFFFFF AND DUP2 MSTORE PUSH1 0x20 ADD SWAP1 DUP2 MSTORE PUSH1 0x20 ADD PUSH0 KECCAK256 PUSH0 DUP3 DUP3 SLOAD PUSH2 0xCE8 SWAP2 SWAP1 PUSH2 0x1C54 JUMP JUMPDEST SWAP3 POP POP DUP2 SWAP1 SSTORE POP PUSH0 CALLER PUSH20 0xFFFFFFFFFFFFFFFFFFFFFFFFFFFFFFFFFFFFFFFF AND DUP3 PUSH1 0x40 MLOAD PUSH2 0xD14 SWAP1 PUSH2 0x1CB4 JUMP JUMPDEST PUSH0 PUSH1 0x40 MLOAD DUP1 DUP4 SUB DUP2 DUP6 DUP8 GAS CALL SWAP3 POP POP POP RETURNDATASIZE DUP1 PUSH0 DUP2 EQ PUSH2 0xD4E JUMPI PUSH1 0x40 MLOAD SWAP2 POP PUSH1 0x1F NOT PUSH1 0x3F RETURNDATASIZE ADD AND DUP3 ADD PUSH1 0x40 MSTORE RETURNDATASIZE DUP3 MSTORE RETURNDATASIZE PUSH0 PUSH1 0x20 DUP5 ADD RETURNDATACOPY PUSH2 0xD53 JUMP JUMPDEST PUSH1 0x60 SWAP2 POP JUMPDEST POP POP SWAP1 POP DUP1 PUSH2 0xD97 JUMPI PUSH1 0x40 MLOAD PUSH32 0x8C379A000000000000000000000000000000000000000000000000000000000 DUP2 MSTORE PUSH1 0x4 ADD PUSH2 0xD8E SWAP1 PUSH2 0x1D7A JUMP JUMPDEST PUSH1 0x40 MLOAD DUP1 SWAP2 SUB SWAP1 REVERT JUMPDEST POP POP JUMP JUMPDEST PUSH1 0x2 PUSH0 CALLER PUSH20 0xFFFFFFFFFFFFFFFFFFFFFFFFFFFFFFFFFFFFFFFF AND PUSH20 0xFFFFFFFFFFFFFFFFFFFFFFFFFFFFFFFFFFFFFFFF AND DUP2 MSTORE PUSH1 0x20 ADD SWAP1 DUP2 MSTORE PUSH1 0x20 ADD PUSH0 KECCAK256 PUSH0 SWAP1 SLOAD SWAP1 PUSH2 0x100 EXP SWAP1 DIV PUSH1 0xFF AND PUSH2 0xE24 JUMPI PUSH1 0x40 MLOAD PUSH32 0x8C379A000000000000000000000000000000000000000000000000000000000 DUP2 MSTORE PUSH1 0x4 ADD PUSH2 0xE1B SWAP1 PUSH2 0x1A36 JUMP JUMPDEST PUSH1 0x40 MLOAD DUP1 SWAP2 SUB SWAP1 REVERT JUMPDEST PUSH0 CALLVALUE GT PUSH2 0xE66 JUMPI PUSH1 0x40 MLOAD PUSH32 0x8C379A000000000000000000000000000000000000000000000000000000000 DUP2 MSTORE PUSH1 0x4 ADD PUSH2 0xE5D SWAP1 PUSH2 0x1B06 JUMP JUMPDEST PUSH1 0x40 MLOAD DUP1 SWAP2 SUB SWAP1 REVERT JUMPDEST CALLVALUE PUSH1 0x3 PUSH0 CALLER PUSH20 0xFFFFFFFFFFFFFFFFFFFFFFFFFFFFFFFFFFFFFFFF AND PUSH20 0xFFFFFFFFFFFFFFFFFFFFFFFFFFFFFFFFFFFFFFFF AND DUP2 MSTORE PUSH1 0x20 ADD SWAP1 DUP2 MSTORE PUSH1 0x20 ADD PUSH0 KECCAK256 PUSH0 DUP3 DUP3 SLOAD PUSH2 0xEB2 SWAP2 SWAP1 PUSH2 0x1B51 JUMP JUMPDEST SWAP3 POP POP DUP2 SWAP1 SSTORE POP JUMP JUMPDEST PUSH1 0x2 PUSH0 CALLER PUSH20 0xFFFFFFFFFFFFFFFFFFFFFFFFFFFFFFFFFFFFFFFF AND PUSH20 0xFFFFFFFFFFFFFFFFFFFFFFFFFFFFFFFFFFFFFFFF AND DUP2 MSTORE PUSH1 0x20 ADD SWAP1 DUP2 MSTORE PUSH1 0x20 ADD PUSH0 KECCAK256 PUSH0 SWAP1 SLOAD SWAP1 PUSH2 0x100 EXP SWAP1 DIV PUSH1 0xFF AND PUSH2 0xF44 JUMPI PUSH1 0x40 MLOAD PUSH32 0x8C379A000000000000000000000000000000000000000000000000000000000 DUP2 MSTORE PUSH1 0x4 ADD PUSH2 0xF3B SWAP1 PUSH2 0x1A36 JUMP JUMPDEST PUSH1 0x40 MLOAD DUP1 SWAP2 SUB SWAP1 REVERT JUMPDEST PUSH0 PUSH20 0xFFFFFFFFFFFFFFFFFFFFFFFFFFFFFFFFFFFFFFFF AND DUP3 PUSH20 0xFFFFFFFFFFFFFFFFFFFFFFFFFFFFFFFFFFFFFFFF AND SUB PUSH2 0xFB2 JUMPI PUSH1 0x40 MLOAD PUSH32 0x8C379A000000000000000000000000000000000000000000000000000000000 DUP2 MSTORE PUSH1 0x4 ADD PUSH2 0xFA9 SWAP1 PUSH2 0x1966 JUMP JUMPDEST PUSH1 0x40 MLOAD DUP1 SWAP2 SUB SWAP1 REVERT JUMPDEST PUSH1 0x2 PUSH0 DUP4 PUSH20 0xFFFFFFFFFFFFFFFFFFFFFFFFFFFFFFFFFFFFFFFF AND PUSH20 0xFFFFFFFFFFFFFFFFFFFFFFFFFFFFFFFFFFFFFFFF AND DUP2 MSTORE PUSH1 0x20 ADD SWAP1 DUP2 MSTORE PUSH1 0x20 ADD PUSH0 KECCAK256 PUSH0 SWAP1 SLOAD SWAP1 PUSH2 0x100 EXP SWAP1 DIV PUSH1 0xFF AND PUSH2 0x103B JUMPI PUSH1 0x40 MLOAD PUSH32 0x8C379A000000000000000000000000000000000000000000000000000000000 DUP2 MSTORE PUSH1 0x4 ADD PUSH2 0x1032 SWAP1 PUSH2 0x1DE2 JUMP JUMPDEST PUSH1 0x40 MLOAD DUP1 SWAP2 SUB SWAP1 REVERT JUMPDEST PUSH0 DUP2 GT PUSH2 0x107D JUMPI PUSH1 0x40 MLOAD PUSH32 0x8C379A000000000000000000000000000000000000000000000000000000000 DUP2 MSTORE PUSH1 0x4 ADD PUSH2 0x1074 SWAP1 PUSH2 0x1E4A JUMP JUMPDEST PUSH1 0x40 MLOAD DUP1 SWAP2 SUB SWAP1 REVERT JUMPDEST DUP1 PUSH1 0x4 PUSH0 DUP5 PUSH20 0xFFFFFFFFFFFFFFFFFFFFFFFFFFFFFFFFFFFFFFFF AND PUSH20 0xFFFFFFFFFFFFFFFFFFFFFFFFFFFFFFFFFFFFFFFF AND DUP2 MSTORE PUSH1 0x20 ADD SWAP1 DUP2 MSTORE PUSH1 0x20 ADD PUSH0 KECCAK256 PUSH0 CALLER PUSH20 0xFFFFFFFFFFFFFFFFFFFFFFFFFFFFFFFFFFFFFFFF AND PUSH20 0xFFFFFFFFFFFFFFFFFFFFFFFFFFFFFFFFFFFFFFFF AND DUP2 MSTORE PUSH1 0x20 ADD SWAP1 DUP2 MSTORE PUSH1 0x20 ADD PUSH0 KECCAK256 SLOAD LT ISZERO PUSH2 0x1138 JUMPI PUSH1 0x40 MLOAD PUSH32 0x8C379A000000000000000000000000000000000000000000000000000000000 DUP2 MSTORE PUSH1 0x4 ADD PUSH2 0x112F SWAP1 PUSH2 0x1EB2 JUMP JUMPDEST PUSH1 0x40 MLOAD DUP1 SWAP2 SUB SWAP1 REVERT JUMPDEST DUP1 PUSH1 0x3 PUSH0 CALLER PUSH20 0xFFFFFFFFFFFFFFFFFFFFFFFFFFFFFFFFFFFFFFFF AND PUSH20 0xFFFFFFFFFFFFFFFFFFFFFFFFFFFFFFFFFFFFFFFF AND DUP2 MSTORE PUSH1 0x20 ADD SWAP1 DUP2 MSTORE PUSH1 0x20 ADD PUSH0 KECCAK256 SLOAD LT ISZERO PUSH2 0x11B8 JUMPI PUSH1 0x40 MLOAD PUSH32 0x8C379A000000000000000000000000000000000000000000000000000000000 DUP2 MSTORE PUSH1 0x4 ADD PUSH2 0x11AF SWAP1 PUSH2 0x1C36 JUMP JUMPDEST PUSH1 0x40 MLOAD DUP1 SWAP2 SUB SWAP1 REVERT JUMPDEST DUP1 PUSH1 0x3 PUSH0 CALLER PUSH20 0xFFFFFFFFFFFFFFFFFFFFFFFFFFFFFFFFFFFFFFFF AND PUSH20 0xFFFFFFFFFFFFFFFFFFFFFFFFFFFFFFFFFFFFFFFF AND DUP2 MSTORE PUSH1 0x20 ADD SWAP1 DUP2 MSTORE PUSH1 0x20 ADD PUSH0 KECCAK256 PUSH0 DUP3 DUP3 SLOAD PUSH2 0x1204 SWAP2 SWAP1 PUSH2 0x1C54 JUMP JUMPDEST SWAP3 POP POP DUP2 SWAP1 SSTORE POP DUP1 PUSH1 0x3 PUSH0 DUP5 PUSH20 0xFFFFFFFFFFFFFFFFFFFFFFFFFFFFFFFFFFFFFFFF AND PUSH20 0xFFFFFFFFFFFFFFFFFFFFFFFFFFFFFFFFFFFFFFFF AND DUP2 MSTORE PUSH1 0x20 ADD SWAP1 DUP2 MSTORE PUSH1 0x20 ADD PUSH0 KECCAK256 PUSH0 DUP3 DUP3 SLOAD PUSH2 0x1257 SWAP2 SWAP1 PUSH2 0x1B51 JUMP JUMPDEST SWAP3 POP POP DUP2 SWAP1 SSTORE POP DUP1 PUSH1 0x4 PUSH0 DUP5 PUSH20 0xFFFFFFFFFFFFFFFFFFFFFFFFFFFFFFFFFFFFFFFF AND PUSH20 0xFFFFFFFFFFFFFFFFFFFFFFFFFFFFFFFFFFFFFFFF AND DUP2 MSTORE PUSH1 0x20 ADD SWAP1 DUP2 MSTORE PUSH1 0x20 ADD PUSH0 KECCAK256 PUSH0 CALLER PUSH20 0xFFFFFFFFFFFFFFFFFFFFFFFFFFFFFFFFFFFFFFFF AND PUSH20 0xFFFFFFFFFFFFFFFFFFFFFFFFFFFFFFFFFFFFFFFF AND DUP2 MSTORE PUSH1 0x20 ADD SWAP1 DUP2 MSTORE PUSH1 0x20 ADD PUSH0 KECCAK256 PUSH0 DUP3 DUP3 SLOAD PUSH2 0x12E5 SWAP2 SWAP1 PUSH2 0x1C54 JUMP JUMPDEST SWAP3 POP POP DUP2 SWAP1 SSTORE POP POP POP JUMP JUMPDEST PUSH1 0x2 PUSH1 0x20 MSTORE DUP1 PUSH0 MSTORE PUSH1 0x40 PUSH0 KECCAK256 PUSH0 SWAP2 POP SLOAD SWAP1 PUSH2 0x100 EXP SWAP1 DIV PUSH1 0xFF AND DUP2 JUMP JUMPDEST PUSH1 0x2 PUSH0 CALLER PUSH20 0xFFFFFFFFFFFFFFFFFFFFFFFFFFFFFFFFFFFFFFFF AND PUSH20 0xFFFFFFFFFFFFFFFFFFFFFFFFFFFFFFFFFFFFFFFF AND DUP2 MSTORE PUSH1 0x20 ADD SWAP1 DUP2 MSTORE PUSH1 0x20 ADD PUSH0 KECCAK256 PUSH0 SWAP1 SLOAD SWAP1 PUSH2 0x100 EXP SWAP1 DIV PUSH1 0xFF AND PUSH2 0x1396 JUMPI PUSH1 0x40 MLOAD PUSH32 0x8C379A000000000000000000000000000000000000000000000000000000000 DUP2 MSTORE PUSH1 0x4 ADD PUSH2 0x138D SWAP1 PUSH2 0x1A36 JUMP JUMPDEST PUSH1 0x40 MLOAD DUP1 SWAP2 SUB SWAP1 REVERT JUMPDEST PUSH0 PUSH20 0xFFFFFFFFFFFFFFFFFFFFFFFFFFFFFFFFFFFFFFFF AND DUP3 PUSH20 0xFFFFFFFFFFFFFFFFFFFFFFFFFFFFFFFFFFFFFFFF AND SUB PUSH2 0x1404 JUMPI PUSH1 0x40 MLOAD PUSH32 0x8C379A000000000000000000000000000000000000000000000000000000000 DUP2 MSTORE PUSH1 0x4 ADD PUSH2 0x13FB SWAP1 PUSH2 0x1966 JUMP JUMPDEST PUSH1 0x40 MLOAD DUP1 SWAP2 SUB SWAP1 REVERT JUMPDEST PUSH1 0x2 PUSH0 DUP4 PUSH20 0xFFFFFFFFFFFFFFFFFFFFFFFFFFFFFFFFFFFFFFFF AND PUSH20 0xFFFFFFFFFFFFFFFFFFFFFFFFFFFFFFFFFFFFFFFF AND DUP2 MSTORE PUSH1 0x20 ADD SWAP1 DUP2 MSTORE PUSH1 0x20 ADD PUSH0 KECCAK256 PUSH0 SWAP1 SLOAD SWAP1 PUSH2 0x100 EXP SWAP1 DIV PUSH1 0xFF AND PUSH2 0x148D JUMPI PUSH1 0x40 MLOAD PUSH32 0x8C379A000000000000000000000000000000000000000000000000000000000 DUP2 MSTORE PUSH1 0x4 ADD PUSH2 0x1484 SWAP1 PUSH2 0x1BCE JUMP JUMPDEST PUSH1 0x40 MLOAD DUP1 SWAP2 SUB SWAP1 REVERT JUMPDEST DUP1 PUSH1 0x3 PUSH0 CALLER PUSH20 0xFFFFFFFFFFFFFFFFFFFFFFFFFFFFFFFFFFFFFFFF AND PUSH20 0xFFFFFFFFFFFFFFFFFFFFFFFFFFFFFFFFFFFFFFFF AND DUP2 MSTORE PUSH1 0x20 ADD SWAP1 DUP2 MSTORE PUSH1 0x20 ADD PUSH0 KECCAK256 SLOAD LT ISZERO PUSH2 0x150D JUMPI PUSH1 0x40 MLOAD PUSH32 0x8C379A000000000000000000000000000000000000000000000000000000000 DUP2 MSTORE PUSH1 0x4 ADD PUSH2 0x1504 SWAP1 PUSH2 0x1C36 JUMP JUMPDEST PUSH1 0x40 MLOAD DUP1 SWAP2 SUB SWAP1 REVERT JUMPDEST DUP1 PUSH1 0x3 PUSH0 CALLER PUSH20 0xFFFFFFFFFFFFFFFFFFFFFFFFFFFFFFFFFFFFFFFF AND PUSH20 0xFFFFFFFFFFFFFFFFFFFFFFFFFFFFFFFFFFFFFFFF AND DUP2 MSTORE PUSH1 0x20 ADD SWAP1 DUP2 MSTORE PUSH1 0x20 ADD PUSH0 KECCAK256 PUSH0 DUP3 DUP3 SLOAD PUSH2 0x1559 SWAP2 SWAP1 PUSH2 0x1C54 JUMP JUMPDEST SWAP3 POP POP DUP2 SWAP1 SSTORE POP DUP2 PUSH20 0xFFFFFFFFFFFFFFFFFFFFFFFFFFFFFFFFFFFFFFFF AND PUSH2 0x8FC DUP3 SWAP1 DUP2 ISZERO MUL SWAP1 PUSH1 0x40 MLOAD PUSH0 PUSH1 0x40 MLOAD DUP1 DUP4 SUB DUP2 DUP6 DUP9 DUP9 CALL SWAP4 POP POP POP POP ISZERO DUP1 ISZERO PUSH2 0x15A3 JUMPI RETURNDATASIZE PUSH0 PUSH0 RETURNDATACOPY RETURNDATASIZE PUSH0 REVERT JUMPDEST POP DUP1 PUSH1 0x3 PUSH0 DUP5 PUSH20 0xFFFFFFFFFFFFFFFFFFFFFFFFFFFFFFFFFFFFFFFF AND PUSH20 0xFFFFFFFFFFFFFFFFFFFFFFFFFFFFFFFFFFFFFFFF AND DUP2 MSTORE PUSH1 0x20 ADD SWAP1 DUP2 MSTORE PUSH1 0x20 ADD PUSH0 KECCAK256 PUSH0 DUP3 DUP3 SLOAD PUSH2 0x15F0 SWAP2 SWAP1 PUSH2 0x1B51 JUMP JUMPDEST SWAP3 POP POP DUP2 SWAP1 SSTORE POP POP POP JUMP JUMPDEST PUSH0 PUSH0 SWAP1 SLOAD SWAP1 PUSH2 0x100 EXP SWAP1 DIV PUSH20 0xFFFFFFFFFFFFFFFFFFFFFFFFFFFFFFFFFFFFFFFF AND DUP2 JUMP JUMPDEST PUSH0 PUSH0 REVERT JUMPDEST PUSH0 PUSH20 0xFFFFFFFFFFFFFFFFFFFFFFFFFFFFFFFFFFFFFFFF DUP3 AND SWAP1 POP SWAP2 SWAP1 POP JUMP JUMPDEST PUSH0 PUSH2 0x164C DUP3 PUSH2 0x1623 JUMP JUMPDEST SWAP1 POP SWAP2 SWAP1 POP JUMP JUMPDEST PUSH2 0x165C DUP2 PUSH2 0x1642 JUMP JUMPDEST DUP2 EQ PUSH2 0x1666 JUMPI PUSH0 PUSH0 REVERT JUMPDEST POP JUMP JUMPDEST PUSH0 DUP2 CALLDATALOAD SWAP1 POP PUSH2 0x1677 DUP2 PUSH2 0x1653 JUMP JUMPDEST SWAP3 SWAP2 POP POP JUMP JUMPDEST PUSH0 PUSH1 0x20 DUP3 DUP5 SUB SLT ISZERO PUSH2 0x1692 JUMPI PUSH2 0x1691 PUSH2 0x161F JUMP JUMPDEST JUMPDEST PUSH0 PUSH2 0x169F DUP5 DUP3 DUP6 ADD PUSH2 0x1669 JUMP JUMPDEST SWAP2 POP POP SWAP3 SWAP2 POP POP JUMP JUMPDEST PUSH0 DUP2 SWAP1 POP SWAP2 SWAP1 POP JUMP JUMPDEST PUSH2 0x16BA DUP2 PUSH2 0x16A8 JUMP JUMPDEST DUP2 EQ PUSH2 0x16C4 JUMPI PUSH0 PUSH0 REVERT JUMPDEST POP JUMP JUMPDEST PUSH0 DUP2 CALLDATALOAD SWAP1 POP PUSH2 0x16D5 DUP2 PUSH2 0x16B1 JUMP JUMPDEST SWAP3 SWAP2 POP POP JUMP JUMPDEST PUSH0 PUSH0 PUSH1 0x40 DUP4 DUP6 SUB SLT ISZERO PUSH2 0x16F1 JUMPI PUSH2 0x16F0 PUSH2 0x161F JUMP JUMPDEST JUMPDEST PUSH0 PUSH2 0x16FE DUP6 DUP3 DUP7 ADD PUSH2 0x1669 JUMP JUMPDEST SWAP3 POP POP PUSH1 0x20 PUSH2 0x170F DUP6 DUP3 DUP7 ADD PUSH2 0x16C7 JUMP JUMPDEST SWAP2 POP POP SWAP3 POP SWAP3 SWAP1 POP JUMP JUMPDEST PUSH2 0x1722 DUP2 PUSH2 0x16A8 JUMP JUMPDEST DUP3 MSTORE POP POP JUMP JUMPDEST PUSH0 PUSH1 0x20 DUP3 ADD SWAP1 POP PUSH2 0x173B PUSH0 DUP4 ADD DUP5 PUSH2 0x1719 JUMP JUMPDEST SWAP3 SWAP2 POP POP JUMP JUMPDEST PUSH0 PUSH0 PUSH1 0x40 DUP4 DUP6 SUB SLT ISZERO PUSH2 0x1757 JUMPI PUSH2 0x1756 PUSH2 0x161F JUMP JUMPDEST JUMPDEST PUSH0 PUSH2 0x1764 DUP6 DUP3 DUP7 ADD PUSH2 0x1669 JUMP JUMPDEST SWAP3 POP POP PUSH1 0x20 PUSH2 0x1775 DUP6 DUP3 DUP7 ADD PUSH2 0x1669 JUMP JUMPDEST SWAP2 POP POP SWAP3 POP SWAP3 SWAP1 POP JUMP JUMPDEST PUSH0 PUSH2 0x1789 DUP3 PUSH2 0x1623 JUMP JUMPDEST SWAP1 POP SWAP2 SWAP1 POP JUMP JUMPDEST PUSH2 0x1799 DUP2 PUSH2 0x177F JUMP JUMPDEST DUP2 EQ PUSH2 0x17A3 JUMPI PUSH0 PUSH0 REVERT JUMPDEST POP JUMP JUMPDEST PUSH0 DUP2 CALLDATALOAD SWAP1 POP PUSH2 0x17B4 DUP2 PUSH2 0x1790 JUMP JUMPDEST SWAP3 SWAP2 POP POP JUMP JUMPDEST PUSH0 PUSH0 PUSH1 0x40 DUP4 DUP6 SUB SLT ISZERO PUSH2 0x17D0 JUMPI PUSH2 0x17CF PUSH2 0x161F JUMP JUMPDEST JUMPDEST PUSH0 PUSH2 0x17DD DUP6 DUP3 DUP7 ADD PUSH2 0x17A6 JUMP JUMPDEST SWAP3 POP POP PUSH1 0x20 PUSH2 0x17EE DUP6 DUP3 DUP7 ADD PUSH2 0x16C7 JUMP JUMPDEST SWAP2 POP POP SWAP3 POP SWAP3 SWAP1 POP JUMP JUMPDEST PUSH0 PUSH1 0x20 DUP3 DUP5 SUB SLT ISZERO PUSH2 0x180D JUMPI PUSH2 0x180C PUSH2 0x161F JUMP JUMPDEST JUMPDEST PUSH0 PUSH2 0x181A DUP5 DUP3 DUP6 ADD PUSH2 0x16C7 JUMP JUMPDEST SWAP2 POP POP SWAP3 SWAP2 POP POP JUMP JUMPDEST PUSH0 DUP2 ISZERO ISZERO SWAP1 POP SWAP2 SWAP1 POP JUMP JUMPDEST PUSH2 0x1837 DUP2 PUSH2 0x1823 JUMP JUMPDEST DUP3 MSTORE POP POP JUMP JUMPDEST PUSH0 PUSH1 0x20 DUP3 ADD SWAP1 POP PUSH2 0x1850 PUSH0 DUP4 ADD DUP5 PUSH2 0x182E JUMP JUMPDEST SWAP3 SWAP2 POP POP JUMP JUMPDEST PUSH2 0x185F DUP2 PUSH2 0x1642 JUMP JUMPDEST DUP3 MSTORE POP POP JUMP JUMPDEST PUSH0 PUSH1 0x20 DUP3 ADD SWAP1 POP PUSH2 0x1878 PUSH0 DUP4 ADD DUP5 PUSH2 0x1856 JUMP JUMPDEST SWAP3 SWAP2 POP POP JUMP JUMPDEST PUSH0 DUP3 DUP3 MSTORE PUSH1 0x20 DUP3 ADD SWAP1 POP SWAP3 SWAP2 POP POP JUMP JUMPDEST PUSH32 0x4F6E6C7920746865206F776E65722063616E2063616C6C20746869732066756E PUSH0 DUP3 ADD MSTORE PUSH32 0x6374696F6E000000000000000000000000000000000000000000000000000000 PUSH1 0x20 DUP3 ADD MSTORE POP JUMP JUMPDEST PUSH0 PUSH2 0x18E8 PUSH1 0x25 DUP4 PUSH2 0x187E JUMP JUMPDEST SWAP2 POP PUSH2 0x18F3 DUP3 PUSH2 0x188E JUMP JUMPDEST PUSH1 0x40 DUP3 ADD SWAP1 POP SWAP2 SWAP1 POP JUMP JUMPDEST PUSH0 PUSH1 0x20 DUP3 ADD SWAP1 POP DUP2 DUP2 SUB PUSH0 DUP4 ADD MSTORE PUSH2 0x1915 DUP2 PUSH2 0x18DC JUMP JUMPDEST SWAP1 POP SWAP2 SWAP1 POP JUMP JUMPDEST PUSH32 0x496E76616C696420616464726573730000000000000000000000000000000000 PUSH0 DUP3 ADD MSTORE POP JUMP JUMPDEST PUSH0 PUSH2 0x1950 PUSH1 0xF DUP4 PUSH2 0x187E JUMP JUMPDEST SWAP2 POP PUSH2 0x195B DUP3 PUSH2 0x191C JUMP JUMPDEST PUSH1 0x20 DUP3 ADD SWAP1 POP SWAP2 SWAP1 POP JUMP JUMPDEST PUSH0 PUSH1 0x20 DUP3 ADD SWAP1 POP DUP2 DUP2 SUB PUSH0 DUP4 ADD MSTORE PUSH2 0x197D DUP2 PUSH2 0x1944 JUMP JUMPDEST SWAP1 POP SWAP2 SWAP1 POP JUMP JUMPDEST PUSH32 0x416C7265616479206164646564206173206120667269656E6400000000000000 PUSH0 DUP3 ADD MSTORE POP JUMP JUMPDEST PUSH0 PUSH2 0x19B8 PUSH1 0x19 DUP4 PUSH2 0x187E JUMP JUMPDEST SWAP2 POP PUSH2 0x19C3 DUP3 PUSH2 0x1984 JUMP JUMPDEST PUSH1 0x20 DUP3 ADD SWAP1 POP SWAP2 SWAP1 POP JUMP JUMPDEST PUSH0 PUSH1 0x20 DUP3 ADD SWAP1 POP DUP2 DUP2 SUB PUSH0 DUP4 ADD MSTORE PUSH2 0x19E5 DUP2 PUSH2 0x19AC JUMP JUMPDEST SWAP1 POP SWAP2 SWAP1 POP JUMP JUMPDEST PUSH32 0x596F7520617265206E6F74207265676973746572656400000000000000000000 PUSH0 DUP3 ADD MSTORE POP JUMP JUMPDEST PUSH0 PUSH2 0x1A20 PUSH1 0x16 DUP4 PUSH2 0x187E JUMP JUMPDEST SWAP2 POP PUSH2 0x1A2B DUP3 PUSH2 0x19EC JUMP JUMPDEST PUSH1 0x20 DUP3 ADD SWAP1 POP SWAP2 SWAP1 POP JUMP JUMPDEST PUSH0 PUSH1 0x20 DUP3 ADD SWAP1 POP DUP2 DUP2 SUB PUSH0 DUP4 ADD MSTORE PUSH2 0x1A4D DUP2 PUSH2 0x1A14 JUMP JUMPDEST SWAP1 POP SWAP2 SWAP1 POP JUMP JUMPDEST PUSH32 0x41646472657373206973206E6F74207265676973746572656400000000000000 PUSH0 DUP3 ADD MSTORE POP JUMP JUMPDEST PUSH0 PUSH2 0x1A88 PUSH1 0x19 DUP4 PUSH2 0x187E JUMP JUMPDEST SWAP2 POP PUSH2 0x1A93 DUP3 PUSH2 0x1A54 JUMP JUMPDEST PUSH1 0x20 DUP3 ADD SWAP1 POP SWAP2 SWAP1 POP JUMP JUMPDEST PUSH0 PUSH1 0x20 DUP3 ADD SWAP1 POP DUP2 DUP2 SUB PUSH0 DUP4 ADD MSTORE PUSH2 0x1AB5 DUP2 PUSH2 0x1A7C JUMP JUMPDEST SWAP1 POP SWAP2 SWAP1 POP JUMP JUMPDEST PUSH32 0x4D75737420656E74657220612076616C696420616D6F756E7400000000000000 PUSH0 DUP3 ADD MSTORE POP JUMP JUMPDEST PUSH0 PUSH2 0x1AF0 PUSH1 0x19 DUP4 PUSH2 0x187E JUMP JUMPDEST SWAP2 POP PUSH2 0x1AFB DUP3 PUSH2 0x1ABC JUMP JUMPDEST PUSH1 0x20 DUP3 ADD SWAP1 POP SWAP2 SWAP1 POP JUMP JUMPDEST PUSH0 PUSH1 0x20 DUP3 ADD SWAP1 POP DUP2 DUP2 SUB PUSH0 DUP4 ADD MSTORE PUSH2 0x1B1D DUP2 PUSH2 0x1AE4 JUMP JUMPDEST SWAP1 POP SWAP2 SWAP1 POP JUMP JUMPDEST PUSH32 0x4E487B7100000000000000000000000000000000000000000000000000000000 PUSH0 MSTORE PUSH1 0x11 PUSH1 0x4 MSTORE PUSH1 0x24 PUSH0 REVERT JUMPDEST PUSH0 PUSH2 0x1B5B DUP3 PUSH2 0x16A8 JUMP JUMPDEST SWAP2 POP PUSH2 0x1B66 DUP4 PUSH2 0x16A8 JUMP JUMPDEST SWAP3 POP DUP3 DUP3 ADD SWAP1 POP DUP1 DUP3 GT ISZERO PUSH2 0x1B7E JUMPI PUSH2 0x1B7D PUSH2 0x1B24 JUMP JUMPDEST JUMPDEST SWAP3 SWAP2 POP POP JUMP JUMPDEST PUSH32 0x52656369657069656E74206E6F74207265676973746572656400000000000000 PUSH0 DUP3 ADD MSTORE POP JUMP JUMPDEST PUSH0 PUSH2 0x1BB8 PUSH1 0x19 DUP4 PUSH2 0x187E JUMP JUMPDEST SWAP2 POP PUSH2 0x1BC3 DUP3 PUSH2 0x1B84 JUMP JUMPDEST PUSH1 0x20 DUP3 ADD SWAP1 POP SWAP2 SWAP1 POP JUMP JUMPDEST PUSH0 PUSH1 0x20 DUP3 ADD SWAP1 POP DUP2 DUP2 SUB PUSH0 DUP4 ADD MSTORE PUSH2 0x1BE5 DUP2 PUSH2 0x1BAC JUMP JUMPDEST SWAP1 POP SWAP2 SWAP1 POP JUMP JUMPDEST PUSH32 0x496E73756666696369656E742062616C616E6365000000000000000000000000 PUSH0 DUP3 ADD MSTORE POP JUMP JUMPDEST PUSH0 PUSH2 0x1C20 PUSH1 0x14 DUP4 PUSH2 0x187E JUMP JUMPDEST SWAP2 POP PUSH2 0x1C2B DUP3 PUSH2 0x1BEC JUMP JUMPDEST PUSH1 0x20 DUP3 ADD SWAP1 POP SWAP2 SWAP1 POP JUMP JUMPDEST PUSH0 PUSH1 0x20 DUP3 ADD SWAP1 POP DUP2 DUP2 SUB PUSH0 DUP4 ADD MSTORE PUSH2 0x1C4D DUP2 PUSH2 0x1C14 JUMP JUMPDEST SWAP1 POP SWAP2 SWAP1 POP JUMP JUMPDEST PUSH0 PUSH2 0x1C5E DUP3 PUSH2 0x16A8 JUMP JUMPDEST SWAP2 POP PUSH2 0x1C69 DUP4 PUSH2 0x16A8 JUMP JUMPDEST SWAP3 POP DUP3 DUP3 SUB SWAP1 POP DUP2 DUP2 GT ISZERO PUSH2 0x1C81 JUMPI PUSH2 0x1C80 PUSH2 0x1B24 JUMP JUMPDEST JUMPDEST SWAP3 SWAP2 POP POP JUMP JUMPDEST PUSH0 DUP2 SWAP1 POP SWAP3 SWAP2 POP POP JUMP JUMPDEST POP JUMP JUMPDEST PUSH0 PUSH2 0x1C9F PUSH0 DUP4 PUSH2 0x1C87 JUMP JUMPDEST SWAP2 POP PUSH2 0x1CAA DUP3 PUSH2 0x1C91 JUMP JUMPDEST PUSH0 DUP3 ADD SWAP1 POP SWAP2 SWAP1 POP JUMP JUMPDEST PUSH0 PUSH2 0x1CBE DUP3 PUSH2 0x1C94 JUMP JUMPDEST SWAP2 POP DUP2 SWAP1 POP SWAP2 SWAP1 POP JUMP JUMPDEST PUSH32 0x4661696C656420746F207472616E736665722045746865720000000000000000 PUSH0 DUP3 ADD MSTORE POP JUMP JUMPDEST PUSH0 PUSH2 0x1CFC PUSH1 0x18 DUP4 PUSH2 0x187E JUMP JUMPDEST SWAP2 POP PUSH2 0x1D07 DUP3 PUSH2 0x1CC8 JUMP JUMPDEST PUSH1 0x20 DUP3 ADD SWAP1 POP SWAP2 SWAP1 POP JUMP JUMPDEST PUSH0 PUSH1 0x20 DUP3 ADD SWAP1 POP DUP2 DUP2 SUB PUSH0 DUP4 ADD MSTORE PUSH2 0x1D29 DUP2 PUSH2 0x1CF0 JUMP JUMPDEST SWAP1 POP SWAP2 SWAP1 POP JUMP JUMPDEST PUSH32 0x4661696C656420746F2077697468647261770000000000000000000000000000 PUSH0 DUP3 ADD MSTORE POP JUMP JUMPDEST PUSH0 PUSH2 0x1D64 PUSH1 0x12 DUP4 PUSH2 0x187E JUMP JUMPDEST SWAP2 POP PUSH2 0x1D6F DUP3 PUSH2 0x1D30 JUMP JUMPDEST PUSH1 0x20 DUP3 ADD SWAP1 POP SWAP2 SWAP1 POP JUMP JUMPDEST PUSH0 PUSH1 0x20 DUP3 ADD SWAP1 POP DUP2 DUP2 SUB PUSH0 DUP4 ADD MSTORE PUSH2 0x1D91 DUP2 PUSH2 0x1D58 JUMP JUMPDEST SWAP1 POP SWAP2 SWAP1 POP JUMP JUMPDEST PUSH32 0x4372656469746F72206E6F742072656769737465726564000000000000000000 PUSH0 DUP3 ADD MSTORE POP JUMP JUMPDEST PUSH0 PUSH2 0x1DCC PUSH1 0x17 DUP4 PUSH2 0x187E JUMP JUMPDEST SWAP2 POP PUSH2 0x1DD7 DUP3 PUSH2 0x1D98 JUMP JUMPDEST PUSH1 0x20 DUP3 ADD SWAP1 POP SWAP2 SWAP1 POP JUMP JUMPDEST PUSH0 PUSH1 0x20 DUP3 ADD SWAP1 POP DUP2 DUP2 SUB PUSH0 DUP4 ADD MSTORE PUSH2 0x1DF9 DUP2 PUSH2 0x1DC0 JUMP JUMPDEST SWAP1 POP SWAP2 SWAP1 POP JUMP JUMPDEST PUSH32 0x416D6F756E74206D7573742062652067726561746572207468616E2030000000 PUSH0 DUP3 ADD MSTORE POP JUMP JUMPDEST PUSH0 PUSH2 0x1E34 PUSH1 0x1D DUP4 PUSH2 0x187E JUMP JUMPDEST SWAP2 POP PUSH2 0x1E3F DUP3 PUSH2 0x1E00 JUMP JUMPDEST PUSH1 0x20 DUP3 ADD SWAP1 POP SWAP2 SWAP1 POP JUMP JUMPDEST PUSH0 PUSH1 0x20 DUP3 ADD SWAP1 POP DUP2 DUP2 SUB PUSH0 DUP4 ADD MSTORE PUSH2 0x1E61 DUP2 PUSH2 0x1E28 JUMP JUMPDEST SWAP1 POP SWAP2 SWAP1 POP JUMP JUMPDEST PUSH32 0x4465627420616D6F756E7420697320696E636F72726563740000000000000000 PUSH0 DUP3 ADD MSTORE POP JUMP JUMPDEST PUSH0 PUSH2 0x1E9C PUSH1 0x18 DUP4 PUSH2 0x187E JUMP JUMPDEST SWAP2 POP PUSH2 0x1EA7 DUP3 PUSH2 0x1E68 JUMP JUMPDEST PUSH1 0x20 DUP3 ADD SWAP1 POP SWAP2 SWAP1 POP JUMP JUMPDEST PUSH0 PUSH1 0x20 DUP3 ADD SWAP1 POP DUP2 DUP2 SUB PUSH0 DUP4 ADD MSTORE PUSH2 0x1EC9 DUP2 PUSH2 0x1E90 JUMP JUMPDEST SWAP1 POP SWAP2 SWAP1 POP JUMP INVALID LOG2 PUSH5 0x6970667358 0x22 SLT KECCAK256 0x29 MLOAD 0xC2 EXTDELEGATECALL SDIV EXTCALL AND 0xD4 RETF NUMBER 0xEB 0xD7 0xBD GT LOG2 DUP1 RETURNDATACOPY PUSH15 0x464A46D5D05AF7B1AB981E1FFD2964 PUSH20 0x6F6C634300081E00330000000000000000000000 "
				},
				"gasEstimates": {
					"creation": {
						"codeDepositCost": "1588400",
						"executionCost": "98856",
						"totalCost": "1687256"
					},
					"external": {
						"AddFriend(address)": "77825",
						"CheckBalance()": "4825",
						"DepositIntoWallet()": "infinite",
						"Owner()": "2617",
						"PayFromWallet(address,uint256)": "infinite",
						"RecordDebt(address,uint256)": "infinite",
						"RegisteredFriends(address)": "2899",
						"TransferEther(address,uint256)": "infinite",
						"TransferEtherViaCall(address,uint256)": "infinite",
						"Withdraw(uint256)": "infinite",
						"balances(address)": "2847",
						"debts(address,address)": "infinite"
					}
				},
				"methodIdentifiers": {
					"AddFriend(address)": "13962258",
					"CheckBalance()": "44e73b78",
					"DepositIntoWallet()": "5c6261f8",
					"Owner()": "b4a99a4e",
					"PayFromWallet(address,uint256)": "8be40e84",
					"RecordDebt(address,uint256)": "1f5941e2",
					"RegisteredFriends(address)": "9dc48a4a",
					"TransferEther(address,uint256)": "b3b1161e",
					"TransferEtherViaCall(address,uint256)": "552b577c",
					"Withdraw(uint256)": "5b6b431d",
					"balances(address)": "27e235e3",
					"debts(address,address)": "4ac1c33d"
				}
			},
			"storageLayout": {
				"storage": [
					{
						"astId": 3,
						"contract": "submissions/0xRue/Day7.sol:SimpleIOU",
						"label": "Owner",
						"offset": 0,
						"slot": "0",
						"type": "t_address"
					},
					{
						"astId": 6,
						"contract": "submissions/0xRue/Day7.sol:SimpleIOU",
						"label": "FriendList",
						"offset": 0,
						"slot": "1",
						"type": "t_array(t_address)dyn_storage"
					},
					{
						"astId": 10,
						"contract": "submissions/0xRue/Day7.sol:SimpleIOU",
						"label": "RegisteredFriends",
						"offset": 0,
						"slot": "2",
						"type": "t_mapping(t_address,t_bool)"
					},
					{
						"astId": 14,
						"contract": "submissions/0xRue/Day7.sol:SimpleIOU",
						"label": "balances",
						"offset": 0,
						"slot": "3",
						"type": "t_mapping(t_address,t_uint256)"
					},
					{
						"astId": 20,
						"contract": "submissions/0xRue/Day7.sol:SimpleIOU",
						"label": "debts",
						"offset": 0,
						"slot": "4",
						"type": "t_mapping(t_address,t_mapping(t_address,t_uint256))"
					}
				],
				"types": {
					"t_address": {
						"encoding": "inplace",
						"label": "address",
						"numberOfBytes": "20"
					},
					"t_array(t_address)dyn_storage": {
						"base": "t_address",
						"encoding": "dynamic_array",
						"label": "address[]",
						"numberOfBytes": "32"
					},
					"t_bool": {
						"encoding": "inplace",
						"label": "bool",
						"numberOfBytes": "1"
					},
					"t_mapping(t_address,t_bool)": {
						"encoding": "mapping",
						"key": "t_address",
						"label": "mapping(address => bool)",
						"numberOfBytes": "32",
						"value": "t_bool"
					},
					"t_mapping(t_address,t_mapping(t_address,t_uint256))": {
						"encoding": "mapping",
						"key": "t_address",
						"label": "mapping(address => mapping(address => uint256))",
						"numberOfBytes": "32",
						"value": "t_mapping(t_address,t_uint256)"
					},
					"t_mapping(t_address,t_uint256)": {
						"encoding": "mapping",
						"key": "t_address",
						"label": "mapping(address => uint256)",
						"numberOfBytes": "32",
						"value": "t_uint256"
					},
					"t_uint256": {
						"encoding": "inplace",
						"label": "uint256",
						"numberOfBytes": "32"
					}
				}
			},
			"userdoc": {
				"kind": "user",
				"methods": {},
				"version": 1
			}
		}
	}
}