{"abi":[{"type":"constructor","inputs":[{"name":"initialOwner","type":"address","internalType":"address"}],"stateMutability":"nonpayable"},{"type":"receive","stateMutability":"payable"},{"type":"function","name":"deposit","inputs":[],"outputs":[],"stateMutability":"payable"},{"type":"function","name":"getBalance","inputs":[],"outputs":[{"name":"","type":"uint256","internalType":"uint256"}],"stateMutability":"view"},{"type":"function","name":"owner","inputs":[],"outputs":[{"name":"","type":"address","internalType":"address"}],"stateMutability":"view"},{"type":"function","name":"transferOwnership","inputs":[{"name":"newOwner","type":"address","internalType":"address"}],"outputs":[],"stateMutability":"nonpayable"},{"type":"function","name":"withdraw","inputs":[{"name":"amount","type":"uint256","internalType":"uint256"}],"outputs":[],"stateMutability":"nonpayable"}],"bytecode":{"object":"0x6080604052348015600e575f5ffd5b50604051610315380380610315833981016040819052602b91604e565b5f80546001600160a01b0319166001600160a01b03929092169190911790556079565b5f60208284031215605d575f5ffd5b81516001600160a01b03811681146072575f5ffd5b9392505050565b61028f806100865f395ff3fe60806040526004361061004c575f3560e01c806312065fe0146100575780632e1a7d4d146100765780638da5cb5b14610097578063d0e30db014610095578063f2fde38b146100bd575f5ffd5b3661005357005b5f5ffd5b348015610062575f5ffd5b506040514781526020015b60405180910390f35b348015610081575f5ffd5b50610095610090366004610215565b6100dc565b005b3480156100a2575f5ffd5b505f546040516001600160a01b03909116815260200161006d565b3480156100c8575f5ffd5b506100956100d736600461022c565b6101ab565b5f546001600160a01b0316331461012a5760405162461bcd60e51b815260206004820152600d60248201526c2737ba103a34329037bbb732b960991b60448201526064015b60405180910390fd5b804710156101715760405162461bcd60e51b8152602060048201526014602482015273496e73756666696369656e742062616c616e636560601b6044820152606401610121565b5f80546040516001600160a01b039091169183156108fc02918491818181858888f193505050501580156101a7573d5f5f3e3d5ffd5b5050565b5f546001600160a01b031633146101f45760405162461bcd60e51b815260206004820152600d60248201526c2737ba103a34329037bbb732b960991b6044820152606401610121565b5f80546001600160a01b0319166001600160a01b0392909216919091179055565b5f60208284031215610225575f5ffd5b5035919050565b5f6020828403121561023c575f5ffd5b81356001600160a01b0381168114610252575f5ffd5b939250505056fea264697066735822122084614b42d10f61365bb3991c7f053369c87f35b081f39eb3c93e803e9dd3a06264736f6c634300081e0033","linkReferences":{}},"methodIdentifiers":{"deposit()":"d0e30db0","getBalance()":"12065fe0","owner()":"8da5cb5b","transferOwnership(address)":"f2fde38b","withdraw(uint256)":"2e1a7d4d"},"id":21}