{"abi":[{"type":"constructor","inputs":[{"name":"initialOwner","type":"address","internalType":"address"},{"name":"lockDuration","type":"uint256","internalType":"uint256"}],"stateMutability":"nonpayable"},{"type":"function","name":"deposit","inputs":[],"outputs":[],"stateMutability":"payable"},{"type":"function","name":"getBalance","inputs":[],"outputs":[{"name":"","type":"uint256","internalType":"uint256"}],"stateMutability":"view"},{"type":"function","name":"owner","inputs":[],"outputs":[{"name":"","type":"address","internalType":"address"}],"stateMutability":"view"},{"type":"function","name":"transferOwnership","inputs":[{"name":"newOwner","type":"address","internalType":"address"}],"outputs":[],"stateMutability":"nonpayable"},{"type":"function","name":"unlockTime","inputs":[],"outputs":[{"name":"","type":"uint256","internalType":"uint256"}],"stateMutability":"view"},{"type":"function","name":"withdraw","inputs":[{"name":"amount","type":"uint256","internalType":"uint256"}],"outputs":[],"stateMutability":"nonpayable"}],"bytecode":{"object":"0x6080604052348015600e575f5ffd5b50604051610358380380610358833981016040819052602b916057565b5f80546001600160a01b0319166001600160a01b038416179055604d8142608c565b6001555060b09050565b5f5f604083850312156067575f5ffd5b82516001600160a01b0381168114607c575f5ffd5b6020939093015192949293505050565b8082018082111560aa57634e487b7160e01b5f52601160045260245ffd5b92915050565b61029b806100bd5f395ff3fe608060405260043610610054575f3560e01c806312065fe014610058578063251c1aa3146100795780632e1a7d4d1461008e5780638da5cb5b146100af578063d0e30db0146100ad578063f2fde38b146100d5575b5f5ffd5b348015610063575f5ffd5b50475b6040519081526020015b60405180910390f35b348015610084575f5ffd5b5061006660015481565b348015610099575f5ffd5b506100ad6100a8366004610221565b6100f4565b005b3480156100ba575f5ffd5b505f546040516001600160a01b039091168152602001610070565b3480156100e0575f5ffd5b506100ad6100ef366004610238565b6101b7565b5f546001600160a01b031633146101425760405162461bcd60e51b815260206004820152600d60248201526c2737ba103a34329037bbb732b960991b60448201526064015b60405180910390fd5b60015442101561017d5760405162461bcd60e51b8152602060048201526006602482015265131bd8dad95960d21b6044820152606401610139565b5f80546040516001600160a01b039091169183156108fc02918491818181858888f193505050501580156101b3573d5f5f3e3d5ffd5b5050565b5f546001600160a01b031633146102005760405162461bcd60e51b815260206004820152600d60248201526c2737ba103a34329037bbb732b960991b6044820152606401610139565b5f80546001600160a01b0319166001600160a01b0392909216919091179055565b5f60208284031215610231575f5ffd5b5035919050565b5f60208284031215610248575f5ffd5b81356001600160a01b038116811461025e575f5ffd5b939250505056fea2646970667358221220c5ad0f33b48821aab966fa2a0bfb7badf092cac45d3c21a53f63df10424055e064736f6c634300081e0033","linkReferences":{}},"methodIdentifiers":{"deposit()":"d0e30db0","getBalance()":"12065fe0","owner()":"8da5cb5b","transferOwnership(address)":"f2fde38b","unlockTime()":"251c1aa3","withdraw(uint256)":"2e1a7d4d"},"id":24}