{
	"NFTMarketplace.sol": {
		"NFTMarketplace": {
			"abi": [
				{
					"inputs": [],
					"stateMutability": "nonpayable",
					"type": "constructor"
				},
				{
					"inputs": [],
					"name": "FailedCall",
					"type": "error"
				},
				{
					"inputs": [
						{
							"internalType": "uint256",
							"name": "balance",
							"type": "uint256"
						},
						{
							"internalType": "uint256",
							"name": "needed",
							"type": "uint256"
						}
					],
					"name": "InsufficientBalance",
					"type": "error"
				},
				{
					"anonymous": false,
					"inputs": [
						{
							"indexed": true,
							"internalType": "uint256",
							"name": "listingId",
							"type": "uint256"
						}
					],
					"name": "Canceled",
					"type": "event"
				},
				{
					"anonymous": false,
					"inputs": [
						{
							"indexed": true,
							"internalType": "uint256",
							"name": "listingId",
							"type": "uint256"
						},
						{
							"indexed": true,
							"internalType": "address",
							"name": "nftContract",
							"type": "address"
						},
						{
							"indexed": true,
							"internalType": "uint256",
							"name": "tokenId",
							"type": "uint256"
						},
						{
							"indexed": false,
							"internalType": "address",
							"name": "seller",
							"type": "address"
						},
						{
							"indexed": false,
							"internalType": "uint256",
							"name": "price",
							"type": "uint256"
						}
					],
					"name": "Listed",
					"type": "event"
				},
				{
					"anonymous": false,
					"inputs": [
						{
							"indexed": false,
							"internalType": "uint256",
							"name": "newFee",
							"type": "uint256"
						}
					],
					"name": "ListingFeeUpdated",
					"type": "event"
				},
				{
					"anonymous": false,
					"inputs": [
						{
							"indexed": true,
							"internalType": "address",
							"name": "nftContract",
							"type": "address"
						},
						{
							"indexed": true,
							"internalType": "uint256",
							"name": "tokenId",
							"type": "uint256"
						},
						{
							"indexed": true,
							"internalType": "address",
							"name": "creator",
							"type": "address"
						},
						{
							"indexed": false,
							"internalType": "uint96",
							"name": "royaltyFraction",
							"type": "uint96"
						}
					],
					"name": "RoyaltySet",
					"type": "event"
				},
				{
					"anonymous": false,
					"inputs": [
						{
							"indexed": true,
							"internalType": "uint256",
							"name": "listingId",
							"type": "uint256"
						},
						{
							"indexed": false,
							"internalType": "address",
							"name": "buyer",
							"type": "address"
						},
						{
							"indexed": false,
							"internalType": "uint256",
							"name": "price",
							"type": "uint256"
						}
					],
					"name": "Sale",
					"type": "event"
				},
				{
					"inputs": [
						{
							"internalType": "uint256",
							"name": "listingId",
							"type": "uint256"
						}
					],
					"name": "buyNFT",
					"outputs": [],
					"stateMutability": "payable",
					"type": "function"
				},
				{
					"inputs": [
						{
							"internalType": "uint256",
							"name": "listingId",
							"type": "uint256"
						}
					],
					"name": "cancelListing",
					"outputs": [],
					"stateMutability": "nonpayable",
					"type": "function"
				},
				{
					"inputs": [
						{
							"internalType": "uint256",
							"name": "listingId",
							"type": "uint256"
						}
					],
					"name": "getListing",
					"outputs": [
						{
							"components": [
								{
									"internalType": "uint256",
									"name": "listingId",
									"type": "uint256"
								},
								{
									"internalType": "address",
									"name": "nftContract",
									"type": "address"
								},
								{
									"internalType": "uint256",
									"name": "tokenId",
									"type": "uint256"
								},
								{
									"internalType": "address payable",
									"name": "seller",
									"type": "address"
								},
								{
									"internalType": "uint256",
									"name": "price",
									"type": "uint256"
								},
								{
									"internalType": "bool",
									"name": "sold",
									"type": "bool"
								}
							],
							"internalType": "struct NFTMarketplace.Listing",
							"name": "",
							"type": "tuple"
						}
					],
					"stateMutability": "view",
					"type": "function"
				},
				{
					"inputs": [],
					"name": "getUnsoldItemsCount",
					"outputs": [
						{
							"internalType": "uint256",
							"name": "",
							"type": "uint256"
						}
					],
					"stateMutability": "view",
					"type": "function"
				},
				{
					"inputs": [
						{
							"internalType": "address",
							"name": "nftContract",
							"type": "address"
						},
						{
							"internalType": "uint256",
							"name": "tokenId",
							"type": "uint256"
						},
						{
							"internalType": "uint256",
							"name": "price",
							"type": "uint256"
						}
					],
					"name": "listNFT",
					"outputs": [],
					"stateMutability": "payable",
					"type": "function"
				},
				{
					"inputs": [],
					"name": "listingFee",
					"outputs": [
						{
							"internalType": "uint256",
							"name": "",
							"type": "uint256"
						}
					],
					"stateMutability": "view",
					"type": "function"
				},
				{
					"inputs": [
						{
							"internalType": "uint256",
							"name": "",
							"type": "uint256"
						}
					],
					"name": "listings",
					"outputs": [
						{
							"internalType": "uint256",
							"name": "listingId",
							"type": "uint256"
						},
						{
							"internalType": "address",
							"name": "nftContract",
							"type": "address"
						},
						{
							"internalType": "uint256",
							"name": "tokenId",
							"type": "uint256"
						},
						{
							"internalType": "address payable",
							"name": "seller",
							"type": "address"
						},
						{
							"internalType": "uint256",
							"name": "price",
							"type": "uint256"
						},
						{
							"internalType": "bool",
							"name": "sold",
							"type": "bool"
						}
					],
					"stateMutability": "view",
					"type": "function"
				},
				{
					"inputs": [],
					"name": "owner",
					"outputs": [
						{
							"internalType": "address payable",
							"name": "",
							"type": "address"
						}
					],
					"stateMutability": "view",
					"type": "function"
				},
				{
					"inputs": [
						{
							"internalType": "address",
							"name": "",
							"type": "address"
						},
						{
							"internalType": "uint256",
							"name": "",
							"type": "uint256"
						}
					],
					"name": "royalties",
					"outputs": [
						{
							"internalType": "address payable",
							"name": "creator",
							"type": "address"
						},
						{
							"internalType": "uint96",
							"name": "royaltyFraction",
							"type": "uint96"
						}
					],
					"stateMutability": "view",
					"type": "function"
				},
				{
					"inputs": [
						{
							"internalType": "address",
							"name": "nftContract",
							"type": "address"
						},
						{
							"internalType": "uint256",
							"name": "tokenId",
							"type": "uint256"
						},
						{
							"internalType": "address payable",
							"name": "creator",
							"type": "address"
						},
						{
							"internalType": "uint96",
							"name": "royaltyFraction",
							"type": "uint96"
						}
					],
					"name": "setRoyalty",
					"outputs": [],
					"stateMutability": "nonpayable",
					"type": "function"
				},
				{
					"inputs": [
						{
							"internalType": "uint256",
							"name": "newFee",
							"type": "uint256"
						}
					],
					"name": "updateListingFee",
					"outputs": [],
					"stateMutability": "nonpayable",
					"type": "function"
				},
				{
					"inputs": [],
					"name": "withdrawFees",
					"outputs": [],
					"stateMutability": "nonpayable",
					"type": "function"
				},
				{
					"stateMutability": "payable",
					"type": "receive"
				}
			],
			"devdoc": {
				"errors": {
					"FailedCall()": [
						{
							"details": "A call to an address target failed. The target may have reverted."
						}
					],
					"InsufficientBalance(uint256,uint256)": [
						{
							"details": "The ETH balance of the account is not enough to perform the operation."
						}
					]
				},
				"kind": "dev",
				"methods": {
					"buyNFT(uint256)": {
						"params": {
							"listingId": "The ID of the NFT listing."
						}
					},
					"cancelListing(uint256)": {
						"params": {
							"listingId": "The ID of the listing to cancel."
						}
					},
					"listNFT(address,uint256,uint256)": {
						"params": {
							"nftContract": "The address of the ERC721 NFT.",
							"price": "The sale price in wei.",
							"tokenId": "The NFT ID to list."
						}
					},
					"setRoyalty(address,uint256,address,uint96)": {
						"params": {
							"creator": "The original creator address.",
							"nftContract": "The NFT contract address.",
							"royaltyFraction": "The royalty percentage (100 = 1%, 1000 = 10%).",
							"tokenId": "The NFT token ID."
						}
					}
				},
				"version": 1
			},
			"evm": {
				"assembly": "    /* \"NFTMarketplace.sol\":551:6143  contract NFTMarketplace is ReentrancyGuard {... */\n  mstore(0x40, 0x80)\n    /* \"NFTMarketplace.sol\":1339:1350  0.002 ether */\n  0x071afd498d0000\n    /* \"NFTMarketplace.sol\":1311:1350  uint256 public listingFee = 0.002 ether */\n  0x05\n  sstore\n    /* \"NFTMarketplace.sol\":1983:2043  constructor() {... */\n  callvalue\n  dup1\n  iszero\n  tag_1\n  jumpi\n  revert(0x00, 0x00)\ntag_1:\n  pop\n    /* \"@openzeppelin/contracts/security/ReentrancyGuard.sol\":1716:1717  1 */\n  0x01\n    /* \"@openzeppelin/contracts/security/ReentrancyGuard.sol\":1821:1828  _status */\n  0x00\n    /* \"@openzeppelin/contracts/security/ReentrancyGuard.sol\":1821:1843  _status = _NOT_ENTERED */\n  dup2\n  swap1\n  sstore\n  pop\n    /* \"NFTMarketplace.sol\":2024:2034  msg.sender */\n  caller\n    /* \"NFTMarketplace.sol\":2008:2013  owner */\n  0x06\n  0x00\n    /* \"NFTMarketplace.sol\":2008:2035  owner = payable(msg.sender) */\n  0x0100\n  exp\n  dup2\n  sload\n  dup2\n  0xffffffffffffffffffffffffffffffffffffffff\n  mul\n  not\n  and\n  swap1\n  dup4\n  0xffffffffffffffffffffffffffffffffffffffff\n  and\n  mul\n  or\n  swap1\n  sstore\n  pop\n    /* \"NFTMarketplace.sol\":551:6143  contract NFTMarketplace is ReentrancyGuard {... */\n  dataSize(sub_0)\n  dup1\n  dataOffset(sub_0)\n  0x00\n  codecopy\n  0x00\n  return\nstop\n\nsub_0: assembly {\n        /* \"NFTMarketplace.sol\":551:6143  contract NFTMarketplace is ReentrancyGuard {... */\n      mstore(0x40, 0x80)\n      jumpi(tag_1, lt(calldatasize, 0x04))\n      shr(0xe0, calldataload(0x00))\n      dup1\n      0xad05f1b4\n      gt\n      tag_15\n      jumpi\n      dup1\n      0xad05f1b4\n      eq\n      tag_9\n      jumpi\n      dup1\n      0xde74e57b\n      eq\n      tag_10\n      jumpi\n      dup1\n      0xe1e549c4\n      eq\n      tag_11\n      jumpi\n      dup1\n      0xe91b272a\n      eq\n      tag_12\n      jumpi\n      dup1\n      0xf109c681\n      eq\n      tag_13\n      jumpi\n      dup1\n      0xf79d91ae\n      eq\n      tag_14\n      jumpi\n      jump(tag_2)\n    tag_15:\n      dup1\n      0x107a274a\n      eq\n      tag_3\n      jumpi\n      dup1\n      0x305a67a8\n      eq\n      tag_4\n      jumpi\n      dup1\n      0x476343ee\n      eq\n      tag_5\n      jumpi\n      dup1\n      0x51ed8288\n      eq\n      tag_6\n      jumpi\n      dup1\n      0x6a1b7ecc\n      eq\n      tag_7\n      jumpi\n      dup1\n      0x8da5cb5b\n      eq\n      tag_8\n      jumpi\n      jump(tag_2)\n    tag_1:\n      jumpi(tag_2, calldatasize)\n      stop\n    tag_2:\n      revert(0x00, 0x00)\n        /* \"NFTMarketplace.sol\":5459:5614  function getListing(uint256 listingId)... */\n    tag_3:\n      callvalue\n      dup1\n      iszero\n      tag_18\n      jumpi\n      revert(0x00, 0x00)\n    tag_18:\n      pop\n      tag_19\n      0x04\n      dup1\n      calldatasize\n      sub\n      dup2\n      add\n      swap1\n      tag_20\n      swap2\n      swap1\n      tag_21\n      jump\t// in\n    tag_20:\n      tag_22\n      jump\t// in\n    tag_19:\n      mload(0x40)\n      tag_23\n      swap2\n      swap1\n      tag_24\n      jump\t// in\n    tag_23:\n      mload(0x40)\n      dup1\n      swap2\n      sub\n      swap1\n      return\n        /* \"NFTMarketplace.sol\":4224:4641  function cancelListing(uint256 listingId) external nonReentrant {... */\n    tag_4:\n      callvalue\n      dup1\n      iszero\n      tag_25\n      jumpi\n      revert(0x00, 0x00)\n    tag_25:\n      pop\n      tag_26\n      0x04\n      dup1\n      calldatasize\n      sub\n      dup2\n      add\n      swap1\n      tag_27\n      swap2\n      swap1\n      tag_21\n      jump\t// in\n    tag_27:\n      tag_28\n      jump\t// in\n    tag_26:\n      stop\n        /* \"NFTMarketplace.sol\":5911:6103  function withdrawFees() external onlyOwner nonReentrant {... */\n    tag_5:\n      callvalue\n      dup1\n      iszero\n      tag_29\n      jumpi\n      revert(0x00, 0x00)\n    tag_29:\n      pop\n      tag_30\n      tag_31\n      jump\t// in\n    tag_30:\n      stop\n        /* \"NFTMarketplace.sol\":3152:4073  function buyNFT(uint256 listingId)... */\n    tag_6:\n      tag_32\n      0x04\n      dup1\n      calldatasize\n      sub\n      dup2\n      add\n      swap1\n      tag_33\n      swap2\n      swap1\n      tag_21\n      jump\t// in\n    tag_33:\n      tag_34\n      jump\t// in\n    tag_32:\n      stop\n        /* \"NFTMarketplace.sol\":1311:1350  uint256 public listingFee = 0.002 ether */\n    tag_7:\n      callvalue\n      dup1\n      iszero\n      tag_35\n      jumpi\n      revert(0x00, 0x00)\n    tag_35:\n      pop\n      tag_36\n      tag_37\n      jump\t// in\n    tag_36:\n      mload(0x40)\n      tag_38\n      swap2\n      swap1\n      tag_39\n      jump\t// in\n    tag_38:\n      mload(0x40)\n      dup1\n      swap2\n      sub\n      swap1\n      return\n        /* \"NFTMarketplace.sol\":1357:1385  address payable public owner */\n    tag_8:\n      callvalue\n      dup1\n      iszero\n      tag_40\n      jumpi\n      revert(0x00, 0x00)\n    tag_40:\n      pop\n      tag_41\n      tag_42\n      jump\t// in\n    tag_41:\n      mload(0x40)\n      tag_43\n      swap2\n      swap1\n      tag_44\n      jump\t// in\n    tag_43:\n      mload(0x40)\n      dup1\n      swap2\n      sub\n      swap1\n      return\n        /* \"NFTMarketplace.sol\":2281:3040  function listNFT(address nftContract, uint256 tokenId, uint256 price)... */\n    tag_9:\n      tag_45\n      0x04\n      dup1\n      calldatasize\n      sub\n      dup2\n      add\n      swap1\n      tag_46\n      swap2\n      swap1\n      tag_47\n      jump\t// in\n    tag_46:\n      tag_48\n      jump\t// in\n    tag_45:\n      stop\n        /* \"NFTMarketplace.sol\":1143:1186  mapping(uint256 => Listing) public listings */\n    tag_10:\n      callvalue\n      dup1\n      iszero\n      tag_49\n      jumpi\n      revert(0x00, 0x00)\n    tag_49:\n      pop\n      tag_50\n      0x04\n      dup1\n      calldatasize\n      sub\n      dup2\n      add\n      swap1\n      tag_51\n      swap2\n      swap1\n      tag_21\n      jump\t// in\n    tag_51:\n      tag_52\n      jump\t// in\n    tag_50:\n      mload(0x40)\n      tag_53\n      swap7\n      swap6\n      swap5\n      swap4\n      swap3\n      swap2\n      swap1\n      tag_54\n      jump\t// in\n    tag_53:\n      mload(0x40)\n      dup1\n      swap2\n      sub\n      swap1\n      return\n        /* \"NFTMarketplace.sol\":1193:1261  mapping(address => mapping(uint256 => RoyaltyInfo)) public royalties */\n    tag_11:\n      callvalue\n      dup1\n      iszero\n      tag_55\n      jumpi\n      revert(0x00, 0x00)\n    tag_55:\n      pop\n      tag_56\n      0x04\n      dup1\n      calldatasize\n      sub\n      dup2\n      add\n      swap1\n      tag_57\n      swap2\n      swap1\n      tag_58\n      jump\t// in\n    tag_57:\n      tag_59\n      jump\t// in\n    tag_56:\n      mload(0x40)\n      tag_60\n      swap3\n      swap2\n      swap1\n      tag_61\n      jump\t// in\n    tag_60:\n      mload(0x40)\n      dup1\n      swap2\n      sub\n      swap1\n      return\n        /* \"NFTMarketplace.sol\":5622:5755  function getUnsoldItemsCount() external view returns (uint256) {... */\n    tag_12:\n      callvalue\n      dup1\n      iszero\n      tag_62\n      jumpi\n      revert(0x00, 0x00)\n    tag_62:\n      pop\n      tag_63\n      tag_64\n      jump\t// in\n    tag_63:\n      mload(0x40)\n      tag_65\n      swap2\n      swap1\n      tag_39\n      jump\t// in\n    tag_65:\n      mload(0x40)\n      dup1\n      swap2\n      sub\n      swap1\n      return\n        /* \"NFTMarketplace.sol\":4969:5410  function setRoyalty(... */\n    tag_13:\n      callvalue\n      dup1\n      iszero\n      tag_66\n      jumpi\n      revert(0x00, 0x00)\n    tag_66:\n      pop\n      tag_67\n      0x04\n      dup1\n      calldatasize\n      sub\n      dup2\n      add\n      swap1\n      tag_68\n      swap2\n      swap1\n      tag_69\n      jump\t// in\n    tag_68:\n      tag_70\n      jump\t// in\n    tag_67:\n      stop\n        /* \"NFTMarketplace.sol\":5763:5903  function updateListingFee(uint256 newFee) external onlyOwner {... */\n    tag_14:\n      callvalue\n      dup1\n      iszero\n      tag_71\n      jumpi\n      revert(0x00, 0x00)\n    tag_71:\n      pop\n      tag_72\n      0x04\n      dup1\n      calldatasize\n      sub\n      dup2\n      add\n      swap1\n      tag_73\n      swap2\n      swap1\n      tag_21\n      jump\t// in\n    tag_73:\n      tag_74\n      jump\t// in\n    tag_72:\n      stop\n        /* \"NFTMarketplace.sol\":5459:5614  function getListing(uint256 listingId)... */\n    tag_22:\n        /* \"NFTMarketplace.sol\":5548:5562  Listing memory */\n      tag_75\n      tag_76\n      jump\t// in\n    tag_75:\n        /* \"NFTMarketplace.sol\":5587:5595  listings */\n      0x03\n        /* \"NFTMarketplace.sol\":5587:5606  listings[listingId] */\n      0x00\n        /* \"NFTMarketplace.sol\":5596:5605  listingId */\n      dup4\n        /* \"NFTMarketplace.sol\":5587:5606  listings[listingId] */\n      dup2\n      mstore\n      0x20\n      add\n      swap1\n      dup2\n      mstore\n      0x20\n      add\n      0x00\n      keccak256\n        /* \"NFTMarketplace.sol\":5580:5606  return listings[listingId] */\n      mload(0x40)\n      dup1\n      0xc0\n      add\n      0x40\n      mstore\n      swap1\n      dup2\n      0x00\n      dup3\n      add\n      sload\n      dup2\n      mstore\n      0x20\n      add\n      0x01\n      dup3\n      add\n      0x00\n      swap1\n      sload\n      swap1\n      0x0100\n      exp\n      swap1\n      div\n      0xffffffffffffffffffffffffffffffffffffffff\n      and\n      0xffffffffffffffffffffffffffffffffffffffff\n      and\n      0xffffffffffffffffffffffffffffffffffffffff\n      and\n      dup2\n      mstore\n      0x20\n      add\n      0x02\n      dup3\n      add\n      sload\n      dup2\n      mstore\n      0x20\n      add\n      0x03\n      dup3\n      add\n      0x00\n      swap1\n      sload\n      swap1\n      0x0100\n      exp\n      swap1\n      div\n      0xffffffffffffffffffffffffffffffffffffffff\n      and\n      0xffffffffffffffffffffffffffffffffffffffff\n      and\n      0xffffffffffffffffffffffffffffffffffffffff\n      and\n      dup2\n      mstore\n      0x20\n      add\n      0x04\n      dup3\n      add\n      sload\n      dup2\n      mstore\n      0x20\n      add\n      0x05\n      dup3\n      add\n      0x00\n      swap1\n      sload\n      swap1\n      0x0100\n      exp\n      swap1\n      div\n      0xff\n      and\n      iszero\n      iszero\n      iszero\n      iszero\n      dup2\n      mstore\n      pop\n      pop\n      swap1\n      pop\n        /* \"NFTMarketplace.sol\":5459:5614  function getListing(uint256 listingId)... */\n      swap2\n      swap1\n      pop\n      jump\t// out\n        /* \"NFTMarketplace.sol\":4224:4641  function cancelListing(uint256 listingId) external nonReentrant {... */\n    tag_28:\n        /* \"@openzeppelin/contracts/security/ReentrancyGuard.sol\":2261:2282  _nonReentrantBefore() */\n      tag_79\n        /* \"@openzeppelin/contracts/security/ReentrancyGuard.sol\":2261:2280  _nonReentrantBefore */\n      tag_80\n        /* \"@openzeppelin/contracts/security/ReentrancyGuard.sol\":2261:2282  _nonReentrantBefore() */\n      jump\t// in\n    tag_79:\n        /* \"NFTMarketplace.sol\":4299:4322  Listing storage listing */\n      0x00\n        /* \"NFTMarketplace.sol\":4325:4333  listings */\n      0x03\n        /* \"NFTMarketplace.sol\":4325:4344  listings[listingId] */\n      0x00\n        /* \"NFTMarketplace.sol\":4334:4343  listingId */\n      dup4\n        /* \"NFTMarketplace.sol\":4325:4344  listings[listingId] */\n      dup2\n      mstore\n      0x20\n      add\n      swap1\n      dup2\n      mstore\n      0x20\n      add\n      0x00\n      keccak256\n        /* \"NFTMarketplace.sol\":4299:4344  Listing storage listing = listings[listingId] */\n      swap1\n      pop\n        /* \"NFTMarketplace.sol\":4381:4391  msg.sender */\n      caller\n        /* \"NFTMarketplace.sol\":4363:4391  listing.seller == msg.sender */\n      0xffffffffffffffffffffffffffffffffffffffff\n      and\n        /* \"NFTMarketplace.sol\":4363:4370  listing */\n      dup2\n        /* \"NFTMarketplace.sol\":4363:4377  listing.seller */\n      0x03\n      add\n      0x00\n      swap1\n      sload\n      swap1\n      0x0100\n      exp\n      swap1\n      div\n      0xffffffffffffffffffffffffffffffffffffffff\n      and\n        /* \"NFTMarketplace.sol\":4363:4391  listing.seller == msg.sender */\n      0xffffffffffffffffffffffffffffffffffffffff\n      and\n      eq\n        /* \"NFTMarketplace.sol\":4355:4412  require(listing.seller == msg.sender, \"Not your listing\") */\n      tag_82\n      jumpi\n      mload(0x40)\n      0x08c379a000000000000000000000000000000000000000000000000000000000\n      dup2\n      mstore\n      0x04\n      add\n      tag_83\n      swap1\n      tag_84\n      jump\t// in\n    tag_83:\n      mload(0x40)\n      dup1\n      swap2\n      sub\n      swap1\n      revert\n    tag_82:\n        /* \"NFTMarketplace.sol\":4432:4439  listing */\n      dup1\n        /* \"NFTMarketplace.sol\":4432:4444  listing.sold */\n      0x05\n      add\n      0x00\n      swap1\n      sload\n      swap1\n      0x0100\n      exp\n      swap1\n      div\n      0xff\n      and\n        /* \"NFTMarketplace.sol\":4431:4444  !listing.sold */\n      iszero\n        /* \"NFTMarketplace.sol\":4423:4461  require(!listing.sold, \"Already sold\") */\n      tag_85\n      jumpi\n      mload(0x40)\n      0x08c379a000000000000000000000000000000000000000000000000000000000\n      dup2\n      mstore\n      0x04\n      add\n      tag_86\n      swap1\n      tag_87\n      jump\t// in\n    tag_86:\n      mload(0x40)\n      dup1\n      swap2\n      sub\n      swap1\n      revert\n    tag_85:\n        /* \"NFTMarketplace.sol\":4482:4489  listing */\n      dup1\n        /* \"NFTMarketplace.sol\":4482:4501  listing.nftContract */\n      0x01\n      add\n      0x00\n      swap1\n      sload\n      swap1\n      0x0100\n      exp\n      swap1\n      div\n      0xffffffffffffffffffffffffffffffffffffffff\n      and\n        /* \"NFTMarketplace.sol\":4474:4515  IERC721(listing.nftContract).transferFrom */\n      0xffffffffffffffffffffffffffffffffffffffff\n      and\n      0x23b872dd\n        /* \"NFTMarketplace.sol\":4524:4528  this */\n      address\n        /* \"NFTMarketplace.sol\":4531:4541  msg.sender */\n      caller\n        /* \"NFTMarketplace.sol\":4543:4550  listing */\n      dup5\n        /* \"NFTMarketplace.sol\":4543:4558  listing.tokenId */\n      0x02\n      add\n      sload\n        /* \"NFTMarketplace.sol\":4474:4559  IERC721(listing.nftContract).transferFrom(address(this), msg.sender, listing.tokenId) */\n      mload(0x40)\n      dup5\n      0xffffffff\n      and\n      0xe0\n      shl\n      dup2\n      mstore\n      0x04\n      add\n      tag_88\n      swap4\n      swap3\n      swap2\n      swap1\n      tag_89\n      jump\t// in\n    tag_88:\n      0x00\n      mload(0x40)\n      dup1\n      dup4\n      sub\n      dup2\n      0x00\n      dup8\n      dup1\n      extcodesize\n      iszero\n      dup1\n      iszero\n      tag_90\n      jumpi\n      revert(0x00, 0x00)\n    tag_90:\n      pop\n      gas\n      call\n      iszero\n      dup1\n      iszero\n      tag_92\n      jumpi\n      returndatacopy(0x00, 0x00, returndatasize)\n      revert(0x00, returndatasize)\n    tag_92:\n      pop\n      pop\n      pop\n      pop\n        /* \"NFTMarketplace.sol\":4577:4585  listings */\n      0x03\n        /* \"NFTMarketplace.sol\":4577:4596  listings[listingId] */\n      0x00\n        /* \"NFTMarketplace.sol\":4586:4595  listingId */\n      dup4\n        /* \"NFTMarketplace.sol\":4577:4596  listings[listingId] */\n      dup2\n      mstore\n      0x20\n      add\n      swap1\n      dup2\n      mstore\n      0x20\n      add\n      0x00\n      keccak256\n      0x00\n        /* \"NFTMarketplace.sol\":4570:4596  delete listings[listingId] */\n      0x00\n      dup3\n      add\n      0x00\n      swap1\n      sstore\n      0x01\n      dup3\n      add\n      exp(0x0100, 0x00)\n      dup2\n      sload\n      swap1\n      0xffffffffffffffffffffffffffffffffffffffff\n      mul\n      not\n      and\n      swap1\n      sstore\n      0x02\n      dup3\n      add\n      0x00\n      swap1\n      sstore\n      0x03\n      dup3\n      add\n      exp(0x0100, 0x00)\n      dup2\n      sload\n      swap1\n      0xffffffffffffffffffffffffffffffffffffffff\n      mul\n      not\n      and\n      swap1\n      sstore\n      0x04\n      dup3\n      add\n      0x00\n      swap1\n      sstore\n      0x05\n      dup3\n      add\n      exp(0x0100, 0x00)\n      dup2\n      sload\n      swap1\n      0xff\n      mul\n      not\n      and\n      swap1\n      sstore\n      pop\n      pop\n        /* \"NFTMarketplace.sol\":4623:4632  listingId */\n      dup2\n        /* \"NFTMarketplace.sol\":4614:4633  Canceled(listingId) */\n      0x829a8683c544ad289ce92d3ce06e9ebad69b18a6916e60ec766c2c217461d8e9\n      mload(0x40)\n      mload(0x40)\n      dup1\n      swap2\n      sub\n      swap1\n      log2\n        /* \"NFTMarketplace.sol\":4288:4641  {... */\n      pop\n        /* \"@openzeppelin/contracts/security/ReentrancyGuard.sol\":2303:2323  _nonReentrantAfter() */\n      tag_93\n        /* \"@openzeppelin/contracts/security/ReentrancyGuard.sol\":2303:2321  _nonReentrantAfter */\n      tag_94\n        /* \"@openzeppelin/contracts/security/ReentrancyGuard.sol\":2303:2323  _nonReentrantAfter() */\n      jump\t// in\n    tag_93:\n        /* \"NFTMarketplace.sol\":4224:4641  function cancelListing(uint256 listingId) external nonReentrant {... */\n      pop\n      jump\t// out\n        /* \"NFTMarketplace.sol\":5911:6103  function withdrawFees() external onlyOwner nonReentrant {... */\n    tag_31:\n        /* \"NFTMarketplace.sol\":1924:1929  owner */\n      0x06\n      0x00\n      swap1\n      sload\n      swap1\n      0x0100\n      exp\n      swap1\n      div\n      0xffffffffffffffffffffffffffffffffffffffff\n      and\n        /* \"NFTMarketplace.sol\":1910:1929  msg.sender == owner */\n      0xffffffffffffffffffffffffffffffffffffffff\n      and\n        /* \"NFTMarketplace.sol\":1910:1920  msg.sender */\n      caller\n        /* \"NFTMarketplace.sol\":1910:1929  msg.sender == owner */\n      0xffffffffffffffffffffffffffffffffffffffff\n      and\n      eq\n        /* \"NFTMarketplace.sol\":1902:1955  require(msg.sender == owner, \"Not marketplace owner\") */\n      tag_96\n      jumpi\n      mload(0x40)\n      0x08c379a000000000000000000000000000000000000000000000000000000000\n      dup2\n      mstore\n      0x04\n      add\n      tag_97\n      swap1\n      tag_98\n      jump\t// in\n    tag_97:\n      mload(0x40)\n      dup1\n      swap2\n      sub\n      swap1\n      revert\n    tag_96:\n        /* \"@openzeppelin/contracts/security/ReentrancyGuard.sol\":2261:2282  _nonReentrantBefore() */\n      tag_100\n        /* \"@openzeppelin/contracts/security/ReentrancyGuard.sol\":2261:2280  _nonReentrantBefore */\n      tag_80\n        /* \"@openzeppelin/contracts/security/ReentrancyGuard.sol\":2261:2282  _nonReentrantBefore() */\n      jump\t// in\n    tag_100:\n        /* \"NFTMarketplace.sol\":5978:5993  uint256 balance */\n      0x00\n        /* \"NFTMarketplace.sol\":5996:6017  address(this).balance */\n      selfbalance\n        /* \"NFTMarketplace.sol\":5978:6017  uint256 balance = address(this).balance */\n      swap1\n      pop\n        /* \"NFTMarketplace.sol\":6046:6047  0 */\n      0x00\n        /* \"NFTMarketplace.sol\":6036:6043  balance */\n      dup2\n        /* \"NFTMarketplace.sol\":6036:6047  balance > 0 */\n      gt\n        /* \"NFTMarketplace.sol\":6028:6060  require(balance > 0, \"No funds\") */\n      tag_102\n      jumpi\n      mload(0x40)\n      0x08c379a000000000000000000000000000000000000000000000000000000000\n      dup2\n      mstore\n      0x04\n      add\n      tag_103\n      swap1\n      tag_104\n      jump\t// in\n    tag_103:\n      mload(0x40)\n      dup1\n      swap2\n      sub\n      swap1\n      revert\n    tag_102:\n        /* \"NFTMarketplace.sol\":6071:6095  owner.sendValue(balance) */\n      tag_105\n        /* \"NFTMarketplace.sol\":6087:6094  balance */\n      dup2\n        /* \"NFTMarketplace.sol\":6071:6076  owner */\n      0x06\n      0x00\n      swap1\n      sload\n      swap1\n      0x0100\n      exp\n      swap1\n      div\n      0xffffffffffffffffffffffffffffffffffffffff\n      and\n        /* \"NFTMarketplace.sol\":6071:6086  owner.sendValue */\n      0xffffffffffffffffffffffffffffffffffffffff\n      and\n      tag_106\n      swap1\n        /* \"NFTMarketplace.sol\":6071:6095  owner.sendValue(balance) */\n      swap2\n      swap1\n      0xffffffff\n      and\n      jump\t// in\n    tag_105:\n        /* \"NFTMarketplace.sol\":5967:6103  {... */\n      pop\n        /* \"@openzeppelin/contracts/security/ReentrancyGuard.sol\":2303:2323  _nonReentrantAfter() */\n      tag_107\n        /* \"@openzeppelin/contracts/security/ReentrancyGuard.sol\":2303:2321  _nonReentrantAfter */\n      tag_94\n        /* \"@openzeppelin/contracts/security/ReentrancyGuard.sol\":2303:2323  _nonReentrantAfter() */\n      jump\t// in\n    tag_107:\n        /* \"NFTMarketplace.sol\":5911:6103  function withdrawFees() external onlyOwner nonReentrant {... */\n      jump\t// out\n        /* \"NFTMarketplace.sol\":3152:4073  function buyNFT(uint256 listingId)... */\n    tag_34:\n        /* \"@openzeppelin/contracts/security/ReentrancyGuard.sol\":2261:2282  _nonReentrantBefore() */\n      tag_109\n        /* \"@openzeppelin/contracts/security/ReentrancyGuard.sol\":2261:2280  _nonReentrantBefore */\n      tag_80\n        /* \"@openzeppelin/contracts/security/ReentrancyGuard.sol\":2261:2282  _nonReentrantBefore() */\n      jump\t// in\n    tag_109:\n        /* \"NFTMarketplace.sol\":3260:3283  Listing storage listing */\n      0x00\n        /* \"NFTMarketplace.sol\":3286:3294  listings */\n      0x03\n        /* \"NFTMarketplace.sol\":3286:3305  listings[listingId] */\n      0x00\n        /* \"NFTMarketplace.sol\":3295:3304  listingId */\n      dup4\n        /* \"NFTMarketplace.sol\":3286:3305  listings[listingId] */\n      dup2\n      mstore\n      0x20\n      add\n      swap1\n      dup2\n      mstore\n      0x20\n      add\n      0x00\n      keccak256\n        /* \"NFTMarketplace.sol\":3260:3305  Listing storage listing = listings[listingId] */\n      swap1\n      pop\n        /* \"NFTMarketplace.sol\":3325:3332  listing */\n      dup1\n        /* \"NFTMarketplace.sol\":3325:3337  listing.sold */\n      0x05\n      add\n      0x00\n      swap1\n      sload\n      swap1\n      0x0100\n      exp\n      swap1\n      div\n      0xff\n      and\n        /* \"NFTMarketplace.sol\":3324:3337  !listing.sold */\n      iszero\n        /* \"NFTMarketplace.sol\":3316:3354  require(!listing.sold, \"Already sold\") */\n      tag_111\n      jumpi\n      mload(0x40)\n      0x08c379a000000000000000000000000000000000000000000000000000000000\n      dup2\n      mstore\n      0x04\n      add\n      tag_112\n      swap1\n      tag_87\n      jump\t// in\n    tag_112:\n      mload(0x40)\n      dup1\n      swap2\n      sub\n      swap1\n      revert\n    tag_111:\n        /* \"NFTMarketplace.sol\":3386:3393  listing */\n      dup1\n        /* \"NFTMarketplace.sol\":3386:3399  listing.price */\n      0x04\n      add\n      sload\n        /* \"NFTMarketplace.sol\":3373:3382  msg.value */\n      callvalue\n        /* \"NFTMarketplace.sol\":3373:3399  msg.value >= listing.price */\n      lt\n      iszero\n        /* \"NFTMarketplace.sol\":3365:3424  require(msg.value >= listing.price, \"Insufficient payment\") */\n      tag_113\n      jumpi\n      mload(0x40)\n      0x08c379a000000000000000000000000000000000000000000000000000000000\n      dup2\n      mstore\n      0x04\n      add\n      tag_114\n      swap1\n      tag_115\n      jump\t// in\n    tag_114:\n      mload(0x40)\n      dup1\n      swap2\n      sub\n      swap1\n      revert\n    tag_113:\n        /* \"NFTMarketplace.sol\":3452:3456  true */\n      0x01\n        /* \"NFTMarketplace.sol\":3437:3444  listing */\n      dup2\n        /* \"NFTMarketplace.sol\":3437:3449  listing.sold */\n      0x05\n      add\n      0x00\n        /* \"NFTMarketplace.sol\":3437:3456  listing.sold = true */\n      0x0100\n      exp\n      dup2\n      sload\n      dup2\n      0xff\n      mul\n      not\n      and\n      swap1\n      dup4\n      iszero\n      iszero\n      mul\n      or\n      swap1\n      sstore\n      pop\n        /* \"NFTMarketplace.sol\":3467:3489  _itemsSold.increment() */\n      tag_116\n        /* \"NFTMarketplace.sol\":3467:3477  _itemsSold */\n      0x02\n        /* \"NFTMarketplace.sol\":3467:3487  _itemsSold.increment */\n      tag_117\n        /* \"NFTMarketplace.sol\":3467:3489  _itemsSold.increment() */\n      jump\t// in\n    tag_116:\n        /* \"NFTMarketplace.sol\":3502:3528  RoyaltyInfo memory royalty */\n      0x00\n        /* \"NFTMarketplace.sol\":3531:3540  royalties */\n      0x04\n        /* \"NFTMarketplace.sol\":3531:3561  royalties[listing.nftContract] */\n      0x00\n        /* \"NFTMarketplace.sol\":3541:3548  listing */\n      dup4\n        /* \"NFTMarketplace.sol\":3541:3560  listing.nftContract */\n      0x01\n      add\n      0x00\n      swap1\n      sload\n      swap1\n      0x0100\n      exp\n      swap1\n      div\n      0xffffffffffffffffffffffffffffffffffffffff\n      and\n        /* \"NFTMarketplace.sol\":3531:3561  royalties[listing.nftContract] */\n      0xffffffffffffffffffffffffffffffffffffffff\n      and\n      0xffffffffffffffffffffffffffffffffffffffff\n      and\n      dup2\n      mstore\n      0x20\n      add\n      swap1\n      dup2\n      mstore\n      0x20\n      add\n      0x00\n      keccak256\n        /* \"NFTMarketplace.sol\":3531:3578  royalties[listing.nftContract][listing.tokenId] */\n      0x00\n        /* \"NFTMarketplace.sol\":3562:3569  listing */\n      dup4\n        /* \"NFTMarketplace.sol\":3562:3577  listing.tokenId */\n      0x02\n      add\n      sload\n        /* \"NFTMarketplace.sol\":3531:3578  royalties[listing.nftContract][listing.tokenId] */\n      dup2\n      mstore\n      0x20\n      add\n      swap1\n      dup2\n      mstore\n      0x20\n      add\n      0x00\n      keccak256\n        /* \"NFTMarketplace.sol\":3502:3578  RoyaltyInfo memory royalty = royalties[listing.nftContract][listing.tokenId] */\n      mload(0x40)\n      dup1\n      0x40\n      add\n      0x40\n      mstore\n      swap1\n      dup2\n      0x00\n      dup3\n      add\n      0x00\n      swap1\n      sload\n      swap1\n      0x0100\n      exp\n      swap1\n      div\n      0xffffffffffffffffffffffffffffffffffffffff\n      and\n      0xffffffffffffffffffffffffffffffffffffffff\n      and\n      0xffffffffffffffffffffffffffffffffffffffff\n      and\n      dup2\n      mstore\n      0x20\n      add\n      0x00\n      dup3\n      add\n      0x14\n      swap1\n      sload\n      swap1\n      0x0100\n      exp\n      swap1\n      div\n      0xffffffffffffffffffffffff\n      and\n      0xffffffffffffffffffffffff\n      and\n      0xffffffffffffffffffffffff\n      and\n      dup2\n      mstore\n      pop\n      pop\n      swap1\n      pop\n        /* \"NFTMarketplace.sol\":3589:3610  uint256 royaltyAmount */\n      0x00\n        /* \"NFTMarketplace.sol\":3653:3658  10000 */\n      0x2710\n        /* \"NFTMarketplace.sol\":3626:3633  royalty */\n      dup3\n        /* \"NFTMarketplace.sol\":3626:3649  royalty.royaltyFraction */\n      0x20\n      add\n      mload\n        /* \"NFTMarketplace.sol\":3614:3649  msg.value * royalty.royaltyFraction */\n      0xffffffffffffffffffffffff\n      and\n        /* \"NFTMarketplace.sol\":3614:3623  msg.value */\n      callvalue\n        /* \"NFTMarketplace.sol\":3614:3649  msg.value * royalty.royaltyFraction */\n      tag_118\n      swap2\n      swap1\n      tag_119\n      jump\t// in\n    tag_118:\n        /* \"NFTMarketplace.sol\":3613:3658  (msg.value * royalty.royaltyFraction) / 10000 */\n      tag_120\n      swap2\n      swap1\n      tag_121\n      jump\t// in\n    tag_120:\n        /* \"NFTMarketplace.sol\":3589:3658  uint256 royaltyAmount = (msg.value * royalty.royaltyFraction) / 10000 */\n      swap1\n      pop\n        /* \"NFTMarketplace.sol\":3669:3691  uint256 sellerProceeds */\n      0x00\n        /* \"NFTMarketplace.sol\":3706:3719  royaltyAmount */\n      dup2\n        /* \"NFTMarketplace.sol\":3694:3703  msg.value */\n      callvalue\n        /* \"NFTMarketplace.sol\":3694:3719  msg.value - royaltyAmount */\n      tag_122\n      swap2\n      swap1\n      tag_123\n      jump\t// in\n    tag_122:\n        /* \"NFTMarketplace.sol\":3669:3719  uint256 sellerProceeds = msg.value - royaltyAmount */\n      swap1\n      pop\n        /* \"NFTMarketplace.sol\":3763:3764  0 */\n      0x00\n        /* \"NFTMarketplace.sol\":3736:3765  royalty.creator != address(0) */\n      0xffffffffffffffffffffffffffffffffffffffff\n      and\n        /* \"NFTMarketplace.sol\":3736:3743  royalty */\n      dup4\n        /* \"NFTMarketplace.sol\":3736:3751  royalty.creator */\n      0x00\n      add\n      mload\n        /* \"NFTMarketplace.sol\":3736:3765  royalty.creator != address(0) */\n      0xffffffffffffffffffffffffffffffffffffffff\n      and\n      eq\n      iszero\n        /* \"NFTMarketplace.sol\":3736:3786  royalty.creator != address(0) && royaltyAmount > 0 */\n      dup1\n      iszero\n      tag_124\n      jumpi\n      pop\n        /* \"NFTMarketplace.sol\":3785:3786  0 */\n      0x00\n        /* \"NFTMarketplace.sol\":3769:3782  royaltyAmount */\n      dup3\n        /* \"NFTMarketplace.sol\":3769:3786  royaltyAmount > 0 */\n      gt\n        /* \"NFTMarketplace.sol\":3736:3786  royalty.creator != address(0) && royaltyAmount > 0 */\n    tag_124:\n        /* \"NFTMarketplace.sol\":3732:3855  if (royalty.creator != address(0) && royaltyAmount > 0) {... */\n      iszero\n      tag_125\n      jumpi\n        /* \"NFTMarketplace.sol\":3803:3843  royalty.creator.sendValue(royaltyAmount) */\n      tag_126\n        /* \"NFTMarketplace.sol\":3829:3842  royaltyAmount */\n      dup3\n        /* \"NFTMarketplace.sol\":3803:3810  royalty */\n      dup5\n        /* \"NFTMarketplace.sol\":3803:3818  royalty.creator */\n      0x00\n      add\n      mload\n        /* \"NFTMarketplace.sol\":3803:3828  royalty.creator.sendValue */\n      0xffffffffffffffffffffffffffffffffffffffff\n      and\n      tag_106\n      swap1\n        /* \"NFTMarketplace.sol\":3803:3843  royalty.creator.sendValue(royaltyAmount) */\n      swap2\n      swap1\n      0xffffffff\n      and\n      jump\t// in\n    tag_126:\n        /* \"NFTMarketplace.sol\":3732:3855  if (royalty.creator != address(0) && royaltyAmount > 0) {... */\n    tag_125:\n        /* \"NFTMarketplace.sol\":3867:3907  listing.seller.sendValue(sellerProceeds) */\n      tag_127\n        /* \"NFTMarketplace.sol\":3892:3906  sellerProceeds */\n      dup2\n        /* \"NFTMarketplace.sol\":3867:3874  listing */\n      dup6\n        /* \"NFTMarketplace.sol\":3867:3881  listing.seller */\n      0x03\n      add\n      0x00\n      swap1\n      sload\n      swap1\n      0x0100\n      exp\n      swap1\n      div\n      0xffffffffffffffffffffffffffffffffffffffff\n      and\n        /* \"NFTMarketplace.sol\":3867:3891  listing.seller.sendValue */\n      0xffffffffffffffffffffffffffffffffffffffff\n      and\n      tag_106\n      swap1\n        /* \"NFTMarketplace.sol\":3867:3907  listing.seller.sendValue(sellerProceeds) */\n      swap2\n      swap1\n      0xffffffff\n      and\n      jump\t// in\n    tag_127:\n        /* \"NFTMarketplace.sol\":3928:3935  listing */\n      dup4\n        /* \"NFTMarketplace.sol\":3928:3947  listing.nftContract */\n      0x01\n      add\n      0x00\n      swap1\n      sload\n      swap1\n      0x0100\n      exp\n      swap1\n      div\n      0xffffffffffffffffffffffffffffffffffffffff\n      and\n        /* \"NFTMarketplace.sol\":3920:3961  IERC721(listing.nftContract).transferFrom */\n      0xffffffffffffffffffffffffffffffffffffffff\n      and\n      0x23b872dd\n        /* \"NFTMarketplace.sol\":3970:3974  this */\n      address\n        /* \"NFTMarketplace.sol\":3977:3987  msg.sender */\n      caller\n        /* \"NFTMarketplace.sol\":3989:3996  listing */\n      dup8\n        /* \"NFTMarketplace.sol\":3989:4004  listing.tokenId */\n      0x02\n      add\n      sload\n        /* \"NFTMarketplace.sol\":3920:4005  IERC721(listing.nftContract).transferFrom(address(this), msg.sender, listing.tokenId) */\n      mload(0x40)\n      dup5\n      0xffffffff\n      and\n      0xe0\n      shl\n      dup2\n      mstore\n      0x04\n      add\n      tag_128\n      swap4\n      swap3\n      swap2\n      swap1\n      tag_89\n      jump\t// in\n    tag_128:\n      0x00\n      mload(0x40)\n      dup1\n      dup4\n      sub\n      dup2\n      0x00\n      dup8\n      dup1\n      extcodesize\n      iszero\n      dup1\n      iszero\n      tag_129\n      jumpi\n      revert(0x00, 0x00)\n    tag_129:\n      pop\n      gas\n      call\n      iszero\n      dup1\n      iszero\n      tag_131\n      jumpi\n      returndatacopy(0x00, 0x00, returndatasize)\n      revert(0x00, returndatasize)\n    tag_131:\n      pop\n      pop\n      pop\n      pop\n        /* \"NFTMarketplace.sol\":4028:4037  listingId */\n      dup5\n        /* \"NFTMarketplace.sol\":4023:4065  Sale(listingId, msg.sender, listing.price) */\n      0xc0e076a004e59b819c1099b4799386d7feaa928662e5f3f95af4db1a1502520d\n        /* \"NFTMarketplace.sol\":4039:4049  msg.sender */\n      caller\n        /* \"NFTMarketplace.sol\":4051:4058  listing */\n      dup7\n        /* \"NFTMarketplace.sol\":4051:4064  listing.price */\n      0x04\n      add\n      sload\n        /* \"NFTMarketplace.sol\":4023:4065  Sale(listingId, msg.sender, listing.price) */\n      mload(0x40)\n      tag_132\n      swap3\n      swap2\n      swap1\n      tag_133\n      jump\t// in\n    tag_132:\n      mload(0x40)\n      dup1\n      swap2\n      sub\n      swap1\n      log2\n        /* \"NFTMarketplace.sol\":3249:4073  {... */\n      pop\n      pop\n      pop\n      pop\n        /* \"@openzeppelin/contracts/security/ReentrancyGuard.sol\":2303:2323  _nonReentrantAfter() */\n      tag_134\n        /* \"@openzeppelin/contracts/security/ReentrancyGuard.sol\":2303:2321  _nonReentrantAfter */\n      tag_94\n        /* \"@openzeppelin/contracts/security/ReentrancyGuard.sol\":2303:2323  _nonReentrantAfter() */\n      jump\t// in\n    tag_134:\n        /* \"NFTMarketplace.sol\":3152:4073  function buyNFT(uint256 listingId)... */\n      pop\n      jump\t// out\n        /* \"NFTMarketplace.sol\":1311:1350  uint256 public listingFee = 0.002 ether */\n    tag_37:\n      sload(0x05)\n      dup2\n      jump\t// out\n        /* \"NFTMarketplace.sol\":1357:1385  address payable public owner */\n    tag_42:\n      0x06\n      0x00\n      swap1\n      sload\n      swap1\n      0x0100\n      exp\n      swap1\n      div\n      0xffffffffffffffffffffffffffffffffffffffff\n      and\n      dup2\n      jump\t// out\n        /* \"NFTMarketplace.sol\":2281:3040  function listNFT(address nftContract, uint256 tokenId, uint256 price)... */\n    tag_48:\n        /* \"@openzeppelin/contracts/security/ReentrancyGuard.sol\":2261:2282  _nonReentrantBefore() */\n      tag_136\n        /* \"@openzeppelin/contracts/security/ReentrancyGuard.sol\":2261:2280  _nonReentrantBefore */\n      tag_80\n        /* \"@openzeppelin/contracts/security/ReentrancyGuard.sol\":2261:2282  _nonReentrantBefore() */\n      jump\t// in\n    tag_136:\n        /* \"NFTMarketplace.sol\":2440:2441  0 */\n      0x00\n        /* \"NFTMarketplace.sol\":2432:2437  price */\n      dup2\n        /* \"NFTMarketplace.sol\":2432:2441  price > 0 */\n      gt\n        /* \"NFTMarketplace.sol\":2424:2463  require(price > 0, \"Price must be > 0\") */\n      tag_138\n      jumpi\n      mload(0x40)\n      0x08c379a000000000000000000000000000000000000000000000000000000000\n      dup2\n      mstore\n      0x04\n      add\n      tag_139\n      swap1\n      tag_140\n      jump\t// in\n    tag_139:\n      mload(0x40)\n      dup1\n      swap2\n      sub\n      swap1\n      revert\n    tag_138:\n        /* \"NFTMarketplace.sol\":2495:2505  listingFee */\n      sload(0x05)\n        /* \"NFTMarketplace.sol\":2482:2491  msg.value */\n      callvalue\n        /* \"NFTMarketplace.sol\":2482:2505  msg.value == listingFee */\n      eq\n        /* \"NFTMarketplace.sol\":2474:2531  require(msg.value == listingFee, \"Pay exact listing fee\") */\n      tag_141\n      jumpi\n      mload(0x40)\n      0x08c379a000000000000000000000000000000000000000000000000000000000\n      dup2\n      mstore\n      0x04\n      add\n      tag_142\n      swap1\n      tag_143\n      jump\t// in\n    tag_142:\n      mload(0x40)\n      dup1\n      swap2\n      sub\n      swap1\n      revert\n    tag_141:\n        /* \"NFTMarketplace.sol\":2544:2567  _listingIds.increment() */\n      tag_144\n        /* \"NFTMarketplace.sol\":2544:2555  _listingIds */\n      0x01\n        /* \"NFTMarketplace.sol\":2544:2565  _listingIds.increment */\n      tag_117\n        /* \"NFTMarketplace.sol\":2544:2567  _listingIds.increment() */\n      jump\t// in\n    tag_144:\n        /* \"NFTMarketplace.sol\":2578:2595  uint256 listingId */\n      0x00\n        /* \"NFTMarketplace.sol\":2598:2619  _listingIds.current() */\n      tag_145\n        /* \"NFTMarketplace.sol\":2598:2609  _listingIds */\n      0x01\n        /* \"NFTMarketplace.sol\":2598:2617  _listingIds.current */\n      tag_146\n        /* \"NFTMarketplace.sol\":2598:2619  _listingIds.current() */\n      jump\t// in\n    tag_145:\n        /* \"NFTMarketplace.sol\":2578:2619  uint256 listingId = _listingIds.current() */\n      swap1\n      pop\n        /* \"NFTMarketplace.sol\":2654:2874  Listing({... */\n      mload(0x40)\n      dup1\n      0xc0\n      add\n      0x40\n      mstore\n      dup1\n        /* \"NFTMarketplace.sol\":2688:2697  listingId */\n      dup3\n        /* \"NFTMarketplace.sol\":2654:2874  Listing({... */\n      dup2\n      mstore\n      0x20\n      add\n        /* \"NFTMarketplace.sol\":2725:2736  nftContract */\n      dup6\n        /* \"NFTMarketplace.sol\":2654:2874  Listing({... */\n      0xffffffffffffffffffffffffffffffffffffffff\n      and\n      dup2\n      mstore\n      0x20\n      add\n        /* \"NFTMarketplace.sol\":2760:2767  tokenId */\n      dup5\n        /* \"NFTMarketplace.sol\":2654:2874  Listing({... */\n      dup2\n      mstore\n      0x20\n      add\n        /* \"NFTMarketplace.sol\":2798:2808  msg.sender */\n      caller\n        /* \"NFTMarketplace.sol\":2654:2874  Listing({... */\n      0xffffffffffffffffffffffffffffffffffffffff\n      and\n      dup2\n      mstore\n      0x20\n      add\n        /* \"NFTMarketplace.sol\":2831:2836  price */\n      dup4\n        /* \"NFTMarketplace.sol\":2654:2874  Listing({... */\n      dup2\n      mstore\n      0x20\n      add\n        /* \"NFTMarketplace.sol\":2857:2862  false */\n      0x00\n        /* \"NFTMarketplace.sol\":2654:2874  Listing({... */\n      iszero\n      iszero\n      dup2\n      mstore\n      pop\n        /* \"NFTMarketplace.sol\":2632:2640  listings */\n      0x03\n        /* \"NFTMarketplace.sol\":2632:2651  listings[listingId] */\n      0x00\n        /* \"NFTMarketplace.sol\":2641:2650  listingId */\n      dup4\n        /* \"NFTMarketplace.sol\":2632:2651  listings[listingId] */\n      dup2\n      mstore\n      0x20\n      add\n      swap1\n      dup2\n      mstore\n      0x20\n      add\n      0x00\n      keccak256\n        /* \"NFTMarketplace.sol\":2632:2874  listings[listingId] = Listing({... */\n      0x00\n      dup3\n      add\n      mload\n      dup2\n      0x00\n      add\n      sstore\n      0x20\n      dup3\n      add\n      mload\n      dup2\n      0x01\n      add\n      exp(0x0100, 0x00)\n      dup2\n      sload\n      dup2\n      0xffffffffffffffffffffffffffffffffffffffff\n      mul\n      not\n      and\n      swap1\n      dup4\n      0xffffffffffffffffffffffffffffffffffffffff\n      and\n      mul\n      or\n      swap1\n      sstore\n      pop\n      0x40\n      dup3\n      add\n      mload\n      dup2\n      0x02\n      add\n      sstore\n      0x60\n      dup3\n      add\n      mload\n      dup2\n      0x03\n      add\n      exp(0x0100, 0x00)\n      dup2\n      sload\n      dup2\n      0xffffffffffffffffffffffffffffffffffffffff\n      mul\n      not\n      and\n      swap1\n      dup4\n      0xffffffffffffffffffffffffffffffffffffffff\n      and\n      mul\n      or\n      swap1\n      sstore\n      pop\n      0x80\n      dup3\n      add\n      mload\n      dup2\n      0x04\n      add\n      sstore\n      0xa0\n      dup3\n      add\n      mload\n      dup2\n      0x05\n      add\n      exp(0x0100, 0x00)\n      dup2\n      sload\n      dup2\n      0xff\n      mul\n      not\n      and\n      swap1\n      dup4\n      iszero\n      iszero\n      mul\n      or\n      swap1\n      sstore\n      pop\n      swap1\n      pop\n      pop\n        /* \"NFTMarketplace.sol\":2895:2906  nftContract */\n      dup4\n        /* \"NFTMarketplace.sol\":2887:2920  IERC721(nftContract).transferFrom */\n      0xffffffffffffffffffffffffffffffffffffffff\n      and\n      0x23b872dd\n        /* \"NFTMarketplace.sol\":2921:2931  msg.sender */\n      caller\n        /* \"NFTMarketplace.sol\":2941:2945  this */\n      address\n        /* \"NFTMarketplace.sol\":2948:2955  tokenId */\n      dup7\n        /* \"NFTMarketplace.sol\":2887:2956  IERC721(nftContract).transferFrom(msg.sender, address(this), tokenId) */\n      mload(0x40)\n      dup5\n      0xffffffff\n      and\n      0xe0\n      shl\n      dup2\n      mstore\n      0x04\n      add\n      tag_147\n      swap4\n      swap3\n      swap2\n      swap1\n      tag_89\n      jump\t// in\n    tag_147:\n      0x00\n      mload(0x40)\n      dup1\n      dup4\n      sub\n      dup2\n      0x00\n      dup8\n      dup1\n      extcodesize\n      iszero\n      dup1\n      iszero\n      tag_148\n      jumpi\n      revert(0x00, 0x00)\n    tag_148:\n      pop\n      gas\n      call\n      iszero\n      dup1\n      iszero\n      tag_150\n      jumpi\n      returndatacopy(0x00, 0x00, returndatasize)\n      revert(0x00, returndatasize)\n    tag_150:\n      pop\n      pop\n      pop\n      pop\n        /* \"NFTMarketplace.sol\":3005:3012  tokenId */\n      dup3\n        /* \"NFTMarketplace.sol\":2992:3003  nftContract */\n      dup5\n        /* \"NFTMarketplace.sol\":2974:3032  Listed(listingId, nftContract, tokenId, msg.sender, price) */\n      0xffffffffffffffffffffffffffffffffffffffff\n      and\n        /* \"NFTMarketplace.sol\":2981:2990  listingId */\n      dup3\n        /* \"NFTMarketplace.sol\":2974:3032  Listed(listingId, nftContract, tokenId, msg.sender, price) */\n      0x9791797c382de5e73cc7c32c32ffd8304e9b9cc1f6afd967990c1edd0729dba9\n        /* \"NFTMarketplace.sol\":3014:3024  msg.sender */\n      caller\n        /* \"NFTMarketplace.sol\":3026:3031  price */\n      dup7\n        /* \"NFTMarketplace.sol\":2974:3032  Listed(listingId, nftContract, tokenId, msg.sender, price) */\n      mload(0x40)\n      tag_151\n      swap3\n      swap2\n      swap1\n      tag_133\n      jump\t// in\n    tag_151:\n      mload(0x40)\n      dup1\n      swap2\n      sub\n      swap1\n      log4\n        /* \"NFTMarketplace.sol\":2413:3040  {... */\n      pop\n        /* \"@openzeppelin/contracts/security/ReentrancyGuard.sol\":2303:2323  _nonReentrantAfter() */\n      tag_152\n        /* \"@openzeppelin/contracts/security/ReentrancyGuard.sol\":2303:2321  _nonReentrantAfter */\n      tag_94\n        /* \"@openzeppelin/contracts/security/ReentrancyGuard.sol\":2303:2323  _nonReentrantAfter() */\n      jump\t// in\n    tag_152:\n        /* \"NFTMarketplace.sol\":2281:3040  function listNFT(address nftContract, uint256 tokenId, uint256 price)... */\n      pop\n      pop\n      pop\n      jump\t// out\n        /* \"NFTMarketplace.sol\":1143:1186  mapping(uint256 => Listing) public listings */\n    tag_52:\n      mstore(0x20, 0x03)\n      dup1\n      0x00\n      mstore\n      keccak256(0x00, 0x40)\n      0x00\n      swap2\n      pop\n      swap1\n      pop\n      dup1\n      0x00\n      add\n      sload\n      swap1\n      dup1\n      0x01\n      add\n      0x00\n      swap1\n      sload\n      swap1\n      0x0100\n      exp\n      swap1\n      div\n      0xffffffffffffffffffffffffffffffffffffffff\n      and\n      swap1\n      dup1\n      0x02\n      add\n      sload\n      swap1\n      dup1\n      0x03\n      add\n      0x00\n      swap1\n      sload\n      swap1\n      0x0100\n      exp\n      swap1\n      div\n      0xffffffffffffffffffffffffffffffffffffffff\n      and\n      swap1\n      dup1\n      0x04\n      add\n      sload\n      swap1\n      dup1\n      0x05\n      add\n      0x00\n      swap1\n      sload\n      swap1\n      0x0100\n      exp\n      swap1\n      div\n      0xff\n      and\n      swap1\n      pop\n      dup7\n      jump\t// out\n        /* \"NFTMarketplace.sol\":1193:1261  mapping(address => mapping(uint256 => RoyaltyInfo)) public royalties */\n    tag_59:\n      mstore(0x20, 0x04)\n      dup2\n      0x00\n      mstore\n      mstore(0x20, keccak256(0x00, 0x40))\n      dup1\n      0x00\n      mstore\n      keccak256(0x00, 0x40)\n      0x00\n      swap2\n      pop\n      swap2\n      pop\n      pop\n      dup1\n      0x00\n      add\n      0x00\n      swap1\n      sload\n      swap1\n      0x0100\n      exp\n      swap1\n      div\n      0xffffffffffffffffffffffffffffffffffffffff\n      and\n      swap1\n      dup1\n      0x00\n      add\n      0x14\n      swap1\n      sload\n      swap1\n      0x0100\n      exp\n      swap1\n      div\n      0xffffffffffffffffffffffff\n      and\n      swap1\n      pop\n      dup3\n      jump\t// out\n        /* \"NFTMarketplace.sol\":5622:5755  function getUnsoldItemsCount() external view returns (uint256) {... */\n    tag_64:\n        /* \"NFTMarketplace.sol\":5676:5683  uint256 */\n      0x00\n        /* \"NFTMarketplace.sol\":5727:5747  _itemsSold.current() */\n      tag_154\n        /* \"NFTMarketplace.sol\":5727:5737  _itemsSold */\n      0x02\n        /* \"NFTMarketplace.sol\":5727:5745  _itemsSold.current */\n      tag_146\n        /* \"NFTMarketplace.sol\":5727:5747  _itemsSold.current() */\n      jump\t// in\n    tag_154:\n        /* \"NFTMarketplace.sol\":5703:5724  _listingIds.current() */\n      tag_155\n        /* \"NFTMarketplace.sol\":5703:5714  _listingIds */\n      0x01\n        /* \"NFTMarketplace.sol\":5703:5722  _listingIds.current */\n      tag_146\n        /* \"NFTMarketplace.sol\":5703:5724  _listingIds.current() */\n      jump\t// in\n    tag_155:\n        /* \"NFTMarketplace.sol\":5703:5747  _listingIds.current() - _itemsSold.current() */\n      tag_156\n      swap2\n      swap1\n      tag_123\n      jump\t// in\n    tag_156:\n        /* \"NFTMarketplace.sol\":5696:5747  return _listingIds.current() - _itemsSold.current() */\n      swap1\n      pop\n        /* \"NFTMarketplace.sol\":5622:5755  function getUnsoldItemsCount() external view returns (uint256) {... */\n      swap1\n      jump\t// out\n        /* \"NFTMarketplace.sol\":4969:5410  function setRoyalty(... */\n    tag_70:\n        /* \"NFTMarketplace.sol\":5166:5170  1000 */\n      0x03e8\n        /* \"NFTMarketplace.sol\":5147:5162  royaltyFraction */\n      dup2\n        /* \"NFTMarketplace.sol\":5147:5170  royaltyFraction <= 1000 */\n      0xffffffffffffffffffffffff\n      and\n      gt\n      iszero\n        /* \"NFTMarketplace.sol\":5139:5182  require(royaltyFraction <= 1000, \"Max 10%\") */\n      tag_158\n      jumpi\n      mload(0x40)\n      0x08c379a000000000000000000000000000000000000000000000000000000000\n      dup2\n      mstore\n      0x04\n      add\n      tag_159\n      swap1\n      tag_160\n      jump\t// in\n    tag_159:\n      mload(0x40)\n      dup1\n      swap2\n      sub\n      swap1\n      revert\n    tag_158:\n        /* \"NFTMarketplace.sol\":5220:5221  0 */\n      0x00\n        /* \"NFTMarketplace.sol\":5201:5222  creator != address(0) */\n      0xffffffffffffffffffffffffffffffffffffffff\n      and\n        /* \"NFTMarketplace.sol\":5201:5208  creator */\n      dup3\n        /* \"NFTMarketplace.sol\":5201:5222  creator != address(0) */\n      0xffffffffffffffffffffffffffffffffffffffff\n      and\n      sub\n        /* \"NFTMarketplace.sol\":5193:5242  require(creator != address(0), \"Invalid creator\") */\n      tag_161\n      jumpi\n      mload(0x40)\n      0x08c379a000000000000000000000000000000000000000000000000000000000\n      dup2\n      mstore\n      0x04\n      add\n      tag_162\n      swap1\n      tag_163\n      jump\t// in\n    tag_162:\n      mload(0x40)\n      dup1\n      swap2\n      sub\n      swap1\n      revert\n    tag_161:\n        /* \"NFTMarketplace.sol\":5289:5326  RoyaltyInfo(creator, royaltyFraction) */\n      mload(0x40)\n      dup1\n      0x40\n      add\n      0x40\n      mstore\n      dup1\n        /* \"NFTMarketplace.sol\":5301:5308  creator */\n      dup4\n        /* \"NFTMarketplace.sol\":5289:5326  RoyaltyInfo(creator, royaltyFraction) */\n      0xffffffffffffffffffffffffffffffffffffffff\n      and\n      dup2\n      mstore\n      0x20\n      add\n        /* \"NFTMarketplace.sol\":5310:5325  royaltyFraction */\n      dup3\n        /* \"NFTMarketplace.sol\":5289:5326  RoyaltyInfo(creator, royaltyFraction) */\n      0xffffffffffffffffffffffff\n      and\n      dup2\n      mstore\n      pop\n        /* \"NFTMarketplace.sol\":5255:5264  royalties */\n      0x04\n        /* \"NFTMarketplace.sol\":5255:5277  royalties[nftContract] */\n      0x00\n        /* \"NFTMarketplace.sol\":5265:5276  nftContract */\n      dup7\n        /* \"NFTMarketplace.sol\":5255:5277  royalties[nftContract] */\n      0xffffffffffffffffffffffffffffffffffffffff\n      and\n      0xffffffffffffffffffffffffffffffffffffffff\n      and\n      dup2\n      mstore\n      0x20\n      add\n      swap1\n      dup2\n      mstore\n      0x20\n      add\n      0x00\n      keccak256\n        /* \"NFTMarketplace.sol\":5255:5286  royalties[nftContract][tokenId] */\n      0x00\n        /* \"NFTMarketplace.sol\":5278:5285  tokenId */\n      dup6\n        /* \"NFTMarketplace.sol\":5255:5286  royalties[nftContract][tokenId] */\n      dup2\n      mstore\n      0x20\n      add\n      swap1\n      dup2\n      mstore\n      0x20\n      add\n      0x00\n      keccak256\n        /* \"NFTMarketplace.sol\":5255:5326  royalties[nftContract][tokenId] = RoyaltyInfo(creator, royaltyFraction) */\n      0x00\n      dup3\n      add\n      mload\n      dup2\n      0x00\n      add\n      exp(0x0100, 0x00)\n      dup2\n      sload\n      dup2\n      0xffffffffffffffffffffffffffffffffffffffff\n      mul\n      not\n      and\n      swap1\n      dup4\n      0xffffffffffffffffffffffffffffffffffffffff\n      and\n      mul\n      or\n      swap1\n      sstore\n      pop\n      0x20\n      dup3\n      add\n      mload\n      dup2\n      0x00\n      add\n      exp(0x0100, 0x14)\n      dup2\n      sload\n      dup2\n      0xffffffffffffffffffffffff\n      mul\n      not\n      and\n      swap1\n      dup4\n      0xffffffffffffffffffffffff\n      and\n      mul\n      or\n      swap1\n      sstore\n      pop\n      swap1\n      pop\n      pop\n        /* \"NFTMarketplace.sol\":5377:5384  creator */\n      dup2\n        /* \"NFTMarketplace.sol\":5344:5402  RoyaltySet(nftContract, tokenId, creator, royaltyFraction) */\n      0xffffffffffffffffffffffffffffffffffffffff\n      and\n        /* \"NFTMarketplace.sol\":5368:5375  tokenId */\n      dup4\n        /* \"NFTMarketplace.sol\":5355:5366  nftContract */\n      dup6\n        /* \"NFTMarketplace.sol\":5344:5402  RoyaltySet(nftContract, tokenId, creator, royaltyFraction) */\n      0xffffffffffffffffffffffffffffffffffffffff\n      and\n      0xb99d8eeff1e9bb56821a5e841b152bb119d760f07fe30c53cf37b36931587d6f\n        /* \"NFTMarketplace.sol\":5386:5401  royaltyFraction */\n      dup5\n        /* \"NFTMarketplace.sol\":5344:5402  RoyaltySet(nftContract, tokenId, creator, royaltyFraction) */\n      mload(0x40)\n      tag_164\n      swap2\n      swap1\n      tag_165\n      jump\t// in\n    tag_164:\n      mload(0x40)\n      dup1\n      swap2\n      sub\n      swap1\n      log4\n        /* \"NFTMarketplace.sol\":4969:5410  function setRoyalty(... */\n      pop\n      pop\n      pop\n      pop\n      jump\t// out\n        /* \"NFTMarketplace.sol\":5763:5903  function updateListingFee(uint256 newFee) external onlyOwner {... */\n    tag_74:\n        /* \"NFTMarketplace.sol\":1924:1929  owner */\n      0x06\n      0x00\n      swap1\n      sload\n      swap1\n      0x0100\n      exp\n      swap1\n      div\n      0xffffffffffffffffffffffffffffffffffffffff\n      and\n        /* \"NFTMarketplace.sol\":1910:1929  msg.sender == owner */\n      0xffffffffffffffffffffffffffffffffffffffff\n      and\n        /* \"NFTMarketplace.sol\":1910:1920  msg.sender */\n      caller\n        /* \"NFTMarketplace.sol\":1910:1929  msg.sender == owner */\n      0xffffffffffffffffffffffffffffffffffffffff\n      and\n      eq\n        /* \"NFTMarketplace.sol\":1902:1955  require(msg.sender == owner, \"Not marketplace owner\") */\n      tag_167\n      jumpi\n      mload(0x40)\n      0x08c379a000000000000000000000000000000000000000000000000000000000\n      dup2\n      mstore\n      0x04\n      add\n      tag_168\n      swap1\n      tag_98\n      jump\t// in\n    tag_168:\n      mload(0x40)\n      dup1\n      swap2\n      sub\n      swap1\n      revert\n    tag_167:\n        /* \"NFTMarketplace.sol\":5848:5854  newFee */\n      dup1\n        /* \"NFTMarketplace.sol\":5835:5845  listingFee */\n      0x05\n        /* \"NFTMarketplace.sol\":5835:5854  listingFee = newFee */\n      dup2\n      swap1\n      sstore\n      pop\n        /* \"NFTMarketplace.sol\":5870:5895  ListingFeeUpdated(newFee) */\n      0x5fb4654f1efe30c6141eaa6855ffcb27e0b361d899b05e21b1a4d0b3e71e14db\n        /* \"NFTMarketplace.sol\":5888:5894  newFee */\n      dup2\n        /* \"NFTMarketplace.sol\":5870:5895  ListingFeeUpdated(newFee) */\n      mload(0x40)\n      tag_170\n      swap2\n      swap1\n      tag_39\n      jump\t// in\n    tag_170:\n      mload(0x40)\n      dup1\n      swap2\n      sub\n      swap1\n      log1\n        /* \"NFTMarketplace.sol\":5763:5903  function updateListingFee(uint256 newFee) external onlyOwner {... */\n      pop\n      jump\t// out\n        /* \"@openzeppelin/contracts/security/ReentrancyGuard.sol\":2336:2623  function _nonReentrantBefore() private {... */\n    tag_80:\n        /* \"@openzeppelin/contracts/security/ReentrancyGuard.sol\":1759:1760  2 */\n      0x02\n        /* \"@openzeppelin/contracts/security/ReentrancyGuard.sol\":2468:2475  _status */\n      sload(0x00)\n        /* \"@openzeppelin/contracts/security/ReentrancyGuard.sol\":2468:2487  _status != _ENTERED */\n      sub\n        /* \"@openzeppelin/contracts/security/ReentrancyGuard.sol\":2460:2523  require(_status != _ENTERED, \"ReentrancyGuard: reentrant call\") */\n      tag_172\n      jumpi\n      mload(0x40)\n      0x08c379a000000000000000000000000000000000000000000000000000000000\n      dup2\n      mstore\n      0x04\n      add\n      tag_173\n      swap1\n      tag_174\n      jump\t// in\n    tag_173:\n      mload(0x40)\n      dup1\n      swap2\n      sub\n      swap1\n      revert\n    tag_172:\n        /* \"@openzeppelin/contracts/security/ReentrancyGuard.sol\":1759:1760  2 */\n      0x02\n        /* \"@openzeppelin/contracts/security/ReentrancyGuard.sol\":2598:2605  _status */\n      0x00\n        /* \"@openzeppelin/contracts/security/ReentrancyGuard.sol\":2598:2616  _status = _ENTERED */\n      dup2\n      swap1\n      sstore\n      pop\n        /* \"@openzeppelin/contracts/security/ReentrancyGuard.sol\":2336:2623  function _nonReentrantBefore() private {... */\n      jump\t// out\n        /* \"@openzeppelin/contracts/security/ReentrancyGuard.sol\":2629:2838  function _nonReentrantAfter() private {... */\n    tag_94:\n        /* \"@openzeppelin/contracts/security/ReentrancyGuard.sol\":1716:1717  1 */\n      0x01\n        /* \"@openzeppelin/contracts/security/ReentrancyGuard.sol\":2809:2816  _status */\n      0x00\n        /* \"@openzeppelin/contracts/security/ReentrancyGuard.sol\":2809:2831  _status = _NOT_ENTERED */\n      dup2\n      swap1\n      sstore\n      pop\n        /* \"@openzeppelin/contracts/security/ReentrancyGuard.sol\":2629:2838  function _nonReentrantAfter() private {... */\n      jump\t// out\n        /* \"@openzeppelin/contracts/utils/Address.sol\":1290:1655  function sendValue(address payable recipient, uint256 amount) internal {... */\n    tag_106:\n        /* \"@openzeppelin/contracts/utils/Address.sol\":1399:1405  amount */\n      dup1\n        /* \"@openzeppelin/contracts/utils/Address.sol\":1375:1396  address(this).balance */\n      selfbalance\n        /* \"@openzeppelin/contracts/utils/Address.sol\":1375:1405  address(this).balance < amount */\n      lt\n        /* \"@openzeppelin/contracts/utils/Address.sol\":1371:1496  if (address(this).balance < amount) {... */\n      iszero\n      tag_177\n      jumpi\n        /* \"@openzeppelin/contracts/utils/Address.sol\":1455:1476  address(this).balance */\n      selfbalance\n        /* \"@openzeppelin/contracts/utils/Address.sol\":1478:1484  amount */\n      dup2\n        /* \"@openzeppelin/contracts/utils/Address.sol\":1428:1485  Errors.InsufficientBalance(address(this).balance, amount) */\n      mload(0x40)\n      0xcf47918100000000000000000000000000000000000000000000000000000000\n      dup2\n      mstore\n      0x04\n      add\n      tag_178\n      swap3\n      swap2\n      swap1\n      tag_179\n      jump\t// in\n    tag_178:\n      mload(0x40)\n      dup1\n      swap2\n      sub\n      swap1\n      revert\n        /* \"@openzeppelin/contracts/utils/Address.sol\":1371:1496  if (address(this).balance < amount) {... */\n    tag_177:\n        /* \"@openzeppelin/contracts/utils/Address.sol\":1507:1519  bool success */\n      0x00\n        /* \"@openzeppelin/contracts/utils/Address.sol\":1521:1544  bytes memory returndata */\n      0x00\n        /* \"@openzeppelin/contracts/utils/Address.sol\":1548:1557  recipient */\n      dup4\n        /* \"@openzeppelin/contracts/utils/Address.sol\":1548:1562  recipient.call */\n      0xffffffffffffffffffffffffffffffffffffffff\n      and\n        /* \"@openzeppelin/contracts/utils/Address.sol\":1570:1576  amount */\n      dup4\n        /* \"@openzeppelin/contracts/utils/Address.sol\":1548:1581  recipient.call{value: amount}(\"\") */\n      mload(0x40)\n      tag_180\n      swap1\n      tag_181\n      jump\t// in\n    tag_180:\n      0x00\n      mload(0x40)\n      dup1\n      dup4\n      sub\n      dup2\n      dup6\n      dup8\n      gas\n      call\n      swap3\n      pop\n      pop\n      pop\n      returndatasize\n      dup1\n      0x00\n      dup2\n      eq\n      tag_184\n      jumpi\n      mload(0x40)\n      swap2\n      pop\n      and(add(returndatasize, 0x3f), not(0x1f))\n      dup3\n      add\n      0x40\n      mstore\n      returndatasize\n      dup3\n      mstore\n      returndatasize\n      0x00\n      0x20\n      dup5\n      add\n      returndatacopy\n      jump(tag_183)\n    tag_184:\n      0x60\n      swap2\n      pop\n    tag_183:\n      pop\n        /* \"@openzeppelin/contracts/utils/Address.sol\":1506:1581  (bool success, bytes memory returndata) = recipient.call{value: amount}(\"\") */\n      swap2\n      pop\n      swap2\n      pop\n        /* \"@openzeppelin/contracts/utils/Address.sol\":1596:1603  success */\n      dup2\n        /* \"@openzeppelin/contracts/utils/Address.sol\":1591:1649  if (!success) {... */\n      tag_185\n      jumpi\n        /* \"@openzeppelin/contracts/utils/Address.sol\":1619:1638  _revert(returndata) */\n      tag_186\n        /* \"@openzeppelin/contracts/utils/Address.sol\":1627:1637  returndata */\n      dup2\n        /* \"@openzeppelin/contracts/utils/Address.sol\":1619:1626  _revert */\n      tag_187\n        /* \"@openzeppelin/contracts/utils/Address.sol\":1619:1638  _revert(returndata) */\n      jump\t// in\n    tag_186:\n        /* \"@openzeppelin/contracts/utils/Address.sol\":1591:1649  if (!success) {... */\n    tag_185:\n        /* \"@openzeppelin/contracts/utils/Address.sol\":1361:1655  {... */\n      pop\n      pop\n        /* \"@openzeppelin/contracts/utils/Address.sol\":1290:1655  function sendValue(address payable recipient, uint256 amount) internal {... */\n      pop\n      pop\n      jump\t// out\n        /* \"@openzeppelin/contracts/utils/Counters.sol\":945:1068  function increment(Counter storage counter) internal {... */\n    tag_117:\n        /* \"@openzeppelin/contracts/utils/Counters.sol\":1050:1051  1 */\n      0x01\n        /* \"@openzeppelin/contracts/utils/Counters.sol\":1032:1039  counter */\n      dup2\n        /* \"@openzeppelin/contracts/utils/Counters.sol\":1032:1046  counter._value */\n      0x00\n      add\n      0x00\n        /* \"@openzeppelin/contracts/utils/Counters.sol\":1032:1051  counter._value += 1 */\n      dup3\n      dup3\n      sload\n      add\n      swap3\n      pop\n      pop\n      dup2\n      swap1\n      sstore\n      pop\n        /* \"@openzeppelin/contracts/utils/Counters.sol\":945:1068  function increment(Counter storage counter) internal {... */\n      pop\n      jump\t// out\n        /* \"@openzeppelin/contracts/utils/Counters.sol\":827:939  function current(Counter storage counter) internal view returns (uint256) {... */\n    tag_146:\n        /* \"@openzeppelin/contracts/utils/Counters.sol\":892:899  uint256 */\n      0x00\n        /* \"@openzeppelin/contracts/utils/Counters.sol\":918:925  counter */\n      dup2\n        /* \"@openzeppelin/contracts/utils/Counters.sol\":918:932  counter._value */\n      0x00\n      add\n      sload\n        /* \"@openzeppelin/contracts/utils/Counters.sol\":911:932  return counter._value */\n      swap1\n      pop\n        /* \"@openzeppelin/contracts/utils/Counters.sol\":827:939  function current(Counter storage counter) internal view returns (uint256) {... */\n      swap2\n      swap1\n      pop\n      jump\t// out\n        /* \"@openzeppelin/contracts/utils/Address.sol\":5559:5993  function _revert(bytes memory returndata) private pure {... */\n    tag_187:\n        /* \"@openzeppelin/contracts/utils/Address.sol\":5710:5711  0 */\n      0x00\n        /* \"@openzeppelin/contracts/utils/Address.sol\":5690:5700  returndata */\n      dup2\n        /* \"@openzeppelin/contracts/utils/Address.sol\":5690:5707  returndata.length */\n      mload\n        /* \"@openzeppelin/contracts/utils/Address.sol\":5690:5711  returndata.length > 0 */\n      gt\n        /* \"@openzeppelin/contracts/utils/Address.sol\":5686:5987  if (returndata.length > 0) {... */\n      iszero\n      tag_191\n      jumpi\n        /* \"@openzeppelin/contracts/utils/Address.sol\":5894:5904  returndata */\n      dup1\n        /* \"@openzeppelin/contracts/utils/Address.sol\":5888:5905  mload(returndata) */\n      mload\n        /* \"@openzeppelin/contracts/utils/Address.sol\":5881:5885  0x20 */\n      0x20\n        /* \"@openzeppelin/contracts/utils/Address.sol\":5869:5879  returndata */\n      dup3\n        /* \"@openzeppelin/contracts/utils/Address.sol\":5865:5886  add(returndata, 0x20) */\n      add\n        /* \"@openzeppelin/contracts/utils/Address.sol\":5858:5906  revert(add(returndata, 0x20), mload(returndata)) */\n      revert\n        /* \"@openzeppelin/contracts/utils/Address.sol\":5686:5987  if (returndata.length > 0) {... */\n    tag_191:\n        /* \"@openzeppelin/contracts/utils/Address.sol\":5957:5976  Errors.FailedCall() */\n      mload(0x40)\n      0xd6bda27500000000000000000000000000000000000000000000000000000000\n      dup2\n      mstore\n      0x04\n      add\n      mload(0x40)\n      dup1\n      swap2\n      sub\n      swap1\n      revert\n    tag_76:\n      mload(0x40)\n      dup1\n      0xc0\n      add\n      0x40\n      mstore\n      dup1\n      0x00\n      dup2\n      mstore\n      0x20\n      add\n      and(0xffffffffffffffffffffffffffffffffffffffff, 0x00)\n      dup2\n      mstore\n      0x20\n      add\n      0x00\n      dup2\n      mstore\n      0x20\n      add\n      and(0xffffffffffffffffffffffffffffffffffffffff, 0x00)\n      dup2\n      mstore\n      0x20\n      add\n      0x00\n      dup2\n      mstore\n      0x20\n      add\n      iszero(iszero(0x00))\n      dup2\n      mstore\n      pop\n      swap1\n      jump\t// out\n        /* \"#utility.yul\":88:205   */\n    tag_194:\n        /* \"#utility.yul\":197:198   */\n      0x00\n        /* \"#utility.yul\":194:195   */\n      0x00\n        /* \"#utility.yul\":187:199   */\n      revert\n        /* \"#utility.yul\":334:411   */\n    tag_196:\n        /* \"#utility.yul\":371:378   */\n      0x00\n        /* \"#utility.yul\":400:405   */\n      dup2\n        /* \"#utility.yul\":389:405   */\n      swap1\n      pop\n        /* \"#utility.yul\":334:411   */\n      swap2\n      swap1\n      pop\n      jump\t// out\n        /* \"#utility.yul\":417:539   */\n    tag_197:\n        /* \"#utility.yul\":490:514   */\n      tag_252\n        /* \"#utility.yul\":508:513   */\n      dup2\n        /* \"#utility.yul\":490:514   */\n      tag_196\n      jump\t// in\n    tag_252:\n        /* \"#utility.yul\":483:488   */\n      dup2\n        /* \"#utility.yul\":480:515   */\n      eq\n        /* \"#utility.yul\":470:533   */\n      tag_253\n      jumpi\n        /* \"#utility.yul\":529:530   */\n      0x00\n        /* \"#utility.yul\":526:527   */\n      0x00\n        /* \"#utility.yul\":519:531   */\n      revert\n        /* \"#utility.yul\":470:533   */\n    tag_253:\n        /* \"#utility.yul\":417:539   */\n      pop\n      jump\t// out\n        /* \"#utility.yul\":545:684   */\n    tag_198:\n        /* \"#utility.yul\":591:596   */\n      0x00\n        /* \"#utility.yul\":629:635   */\n      dup2\n        /* \"#utility.yul\":616:636   */\n      calldataload\n        /* \"#utility.yul\":607:636   */\n      swap1\n      pop\n        /* \"#utility.yul\":645:678   */\n      tag_255\n        /* \"#utility.yul\":672:677   */\n      dup2\n        /* \"#utility.yul\":645:678   */\n      tag_197\n      jump\t// in\n    tag_255:\n        /* \"#utility.yul\":545:684   */\n      swap3\n      swap2\n      pop\n      pop\n      jump\t// out\n        /* \"#utility.yul\":690:1019   */\n    tag_21:\n        /* \"#utility.yul\":749:755   */\n      0x00\n        /* \"#utility.yul\":798:800   */\n      0x20\n        /* \"#utility.yul\":786:795   */\n      dup3\n        /* \"#utility.yul\":777:784   */\n      dup5\n        /* \"#utility.yul\":773:796   */\n      sub\n        /* \"#utility.yul\":769:801   */\n      slt\n        /* \"#utility.yul\":766:885   */\n      iszero\n      tag_257\n      jumpi\n        /* \"#utility.yul\":804:883   */\n      tag_258\n      tag_194\n      jump\t// in\n    tag_258:\n        /* \"#utility.yul\":766:885   */\n    tag_257:\n        /* \"#utility.yul\":924:925   */\n      0x00\n        /* \"#utility.yul\":949:1002   */\n      tag_259\n        /* \"#utility.yul\":994:1001   */\n      dup5\n        /* \"#utility.yul\":985:991   */\n      dup3\n        /* \"#utility.yul\":974:983   */\n      dup6\n        /* \"#utility.yul\":970:992   */\n      add\n        /* \"#utility.yul\":949:1002   */\n      tag_198\n      jump\t// in\n    tag_259:\n        /* \"#utility.yul\":939:1002   */\n      swap2\n      pop\n        /* \"#utility.yul\":895:1012   */\n      pop\n        /* \"#utility.yul\":690:1019   */\n      swap3\n      swap2\n      pop\n      pop\n      jump\t// out\n        /* \"#utility.yul\":1025:1133   */\n    tag_199:\n        /* \"#utility.yul\":1102:1126   */\n      tag_261\n        /* \"#utility.yul\":1120:1125   */\n      dup2\n        /* \"#utility.yul\":1102:1126   */\n      tag_196\n      jump\t// in\n    tag_261:\n        /* \"#utility.yul\":1097:1100   */\n      dup3\n        /* \"#utility.yul\":1090:1127   */\n      mstore\n        /* \"#utility.yul\":1025:1133   */\n      pop\n      pop\n      jump\t// out\n        /* \"#utility.yul\":1139:1265   */\n    tag_200:\n        /* \"#utility.yul\":1176:1183   */\n      0x00\n        /* \"#utility.yul\":1216:1258   */\n      0xffffffffffffffffffffffffffffffffffffffff\n        /* \"#utility.yul\":1209:1214   */\n      dup3\n        /* \"#utility.yul\":1205:1259   */\n      and\n        /* \"#utility.yul\":1194:1259   */\n      swap1\n      pop\n        /* \"#utility.yul\":1139:1265   */\n      swap2\n      swap1\n      pop\n      jump\t// out\n        /* \"#utility.yul\":1271:1367   */\n    tag_201:\n        /* \"#utility.yul\":1308:1315   */\n      0x00\n        /* \"#utility.yul\":1337:1361   */\n      tag_264\n        /* \"#utility.yul\":1355:1360   */\n      dup3\n        /* \"#utility.yul\":1337:1361   */\n      tag_200\n      jump\t// in\n    tag_264:\n        /* \"#utility.yul\":1326:1361   */\n      swap1\n      pop\n        /* \"#utility.yul\":1271:1367   */\n      swap2\n      swap1\n      pop\n      jump\t// out\n        /* \"#utility.yul\":1373:1481   */\n    tag_202:\n        /* \"#utility.yul\":1450:1474   */\n      tag_266\n        /* \"#utility.yul\":1468:1473   */\n      dup2\n        /* \"#utility.yul\":1450:1474   */\n      tag_201\n      jump\t// in\n    tag_266:\n        /* \"#utility.yul\":1445:1448   */\n      dup3\n        /* \"#utility.yul\":1438:1475   */\n      mstore\n        /* \"#utility.yul\":1373:1481   */\n      pop\n      pop\n      jump\t// out\n        /* \"#utility.yul\":1487:1591   */\n    tag_203:\n        /* \"#utility.yul\":1532:1539   */\n      0x00\n        /* \"#utility.yul\":1561:1585   */\n      tag_268\n        /* \"#utility.yul\":1579:1584   */\n      dup3\n        /* \"#utility.yul\":1561:1585   */\n      tag_200\n      jump\t// in\n    tag_268:\n        /* \"#utility.yul\":1550:1585   */\n      swap1\n      pop\n        /* \"#utility.yul\":1487:1591   */\n      swap2\n      swap1\n      pop\n      jump\t// out\n        /* \"#utility.yul\":1597:1729   */\n    tag_204:\n        /* \"#utility.yul\":1690:1722   */\n      tag_270\n        /* \"#utility.yul\":1716:1721   */\n      dup2\n        /* \"#utility.yul\":1690:1722   */\n      tag_203\n      jump\t// in\n    tag_270:\n        /* \"#utility.yul\":1685:1688   */\n      dup3\n        /* \"#utility.yul\":1678:1723   */\n      mstore\n        /* \"#utility.yul\":1597:1729   */\n      pop\n      pop\n      jump\t// out\n        /* \"#utility.yul\":1735:1825   */\n    tag_205:\n        /* \"#utility.yul\":1769:1776   */\n      0x00\n        /* \"#utility.yul\":1812:1817   */\n      dup2\n        /* \"#utility.yul\":1805:1818   */\n      iszero\n        /* \"#utility.yul\":1798:1819   */\n      iszero\n        /* \"#utility.yul\":1787:1819   */\n      swap1\n      pop\n        /* \"#utility.yul\":1735:1825   */\n      swap2\n      swap1\n      pop\n      jump\t// out\n        /* \"#utility.yul\":1831:1930   */\n    tag_206:\n        /* \"#utility.yul\":1902:1923   */\n      tag_273\n        /* \"#utility.yul\":1917:1922   */\n      dup2\n        /* \"#utility.yul\":1902:1923   */\n      tag_205\n      jump\t// in\n    tag_273:\n        /* \"#utility.yul\":1897:1900   */\n      dup3\n        /* \"#utility.yul\":1890:1924   */\n      mstore\n        /* \"#utility.yul\":1831:1930   */\n      pop\n      pop\n      jump\t// out\n        /* \"#utility.yul\":2006:3235   */\n    tag_207:\n        /* \"#utility.yul\":2151:2155   */\n      0xc0\n        /* \"#utility.yul\":2146:2149   */\n      dup3\n        /* \"#utility.yul\":2142:2156   */\n      add\n        /* \"#utility.yul\":2243:2247   */\n      0x00\n        /* \"#utility.yul\":2236:2241   */\n      dup3\n        /* \"#utility.yul\":2232:2248   */\n      add\n        /* \"#utility.yul\":2226:2249   */\n      mload\n        /* \"#utility.yul\":2262:2325   */\n      tag_275\n        /* \"#utility.yul\":2319:2323   */\n      0x00\n        /* \"#utility.yul\":2314:2317   */\n      dup6\n        /* \"#utility.yul\":2310:2324   */\n      add\n        /* \"#utility.yul\":2296:2308   */\n      dup3\n        /* \"#utility.yul\":2262:2325   */\n      tag_199\n      jump\t// in\n    tag_275:\n        /* \"#utility.yul\":2166:2335   */\n      pop\n        /* \"#utility.yul\":2424:2428   */\n      0x20\n        /* \"#utility.yul\":2417:2422   */\n      dup3\n        /* \"#utility.yul\":2413:2429   */\n      add\n        /* \"#utility.yul\":2407:2430   */\n      mload\n        /* \"#utility.yul\":2443:2506   */\n      tag_276\n        /* \"#utility.yul\":2500:2504   */\n      0x20\n        /* \"#utility.yul\":2495:2498   */\n      dup6\n        /* \"#utility.yul\":2491:2505   */\n      add\n        /* \"#utility.yul\":2477:2489   */\n      dup3\n        /* \"#utility.yul\":2443:2506   */\n      tag_202\n      jump\t// in\n    tag_276:\n        /* \"#utility.yul\":2345:2516   */\n      pop\n        /* \"#utility.yul\":2601:2605   */\n      0x40\n        /* \"#utility.yul\":2594:2599   */\n      dup3\n        /* \"#utility.yul\":2590:2606   */\n      add\n        /* \"#utility.yul\":2584:2607   */\n      mload\n        /* \"#utility.yul\":2620:2683   */\n      tag_277\n        /* \"#utility.yul\":2677:2681   */\n      0x40\n        /* \"#utility.yul\":2672:2675   */\n      dup6\n        /* \"#utility.yul\":2668:2682   */\n      add\n        /* \"#utility.yul\":2654:2666   */\n      dup3\n        /* \"#utility.yul\":2620:2683   */\n      tag_199\n      jump\t// in\n    tag_277:\n        /* \"#utility.yul\":2526:2693   */\n      pop\n        /* \"#utility.yul\":2777:2781   */\n      0x60\n        /* \"#utility.yul\":2770:2775   */\n      dup3\n        /* \"#utility.yul\":2766:2782   */\n      add\n        /* \"#utility.yul\":2760:2783   */\n      mload\n        /* \"#utility.yul\":2796:2875   */\n      tag_278\n        /* \"#utility.yul\":2869:2873   */\n      0x60\n        /* \"#utility.yul\":2864:2867   */\n      dup6\n        /* \"#utility.yul\":2860:2874   */\n      add\n        /* \"#utility.yul\":2846:2858   */\n      dup3\n        /* \"#utility.yul\":2796:2875   */\n      tag_204\n      jump\t// in\n    tag_278:\n        /* \"#utility.yul\":2703:2885   */\n      pop\n        /* \"#utility.yul\":2968:2972   */\n      0x80\n        /* \"#utility.yul\":2961:2966   */\n      dup3\n        /* \"#utility.yul\":2957:2973   */\n      add\n        /* \"#utility.yul\":2951:2974   */\n      mload\n        /* \"#utility.yul\":2987:3050   */\n      tag_279\n        /* \"#utility.yul\":3044:3048   */\n      0x80\n        /* \"#utility.yul\":3039:3042   */\n      dup6\n        /* \"#utility.yul\":3035:3049   */\n      add\n        /* \"#utility.yul\":3021:3033   */\n      dup3\n        /* \"#utility.yul\":2987:3050   */\n      tag_199\n      jump\t// in\n    tag_279:\n        /* \"#utility.yul\":2895:3060   */\n      pop\n        /* \"#utility.yul\":3142:3146   */\n      0xa0\n        /* \"#utility.yul\":3135:3140   */\n      dup3\n        /* \"#utility.yul\":3131:3147   */\n      add\n        /* \"#utility.yul\":3125:3148   */\n      mload\n        /* \"#utility.yul\":3161:3218   */\n      tag_280\n        /* \"#utility.yul\":3212:3216   */\n      0xa0\n        /* \"#utility.yul\":3207:3210   */\n      dup6\n        /* \"#utility.yul\":3203:3217   */\n      add\n        /* \"#utility.yul\":3189:3201   */\n      dup3\n        /* \"#utility.yul\":3161:3218   */\n      tag_206\n      jump\t// in\n    tag_280:\n        /* \"#utility.yul\":3070:3228   */\n      pop\n        /* \"#utility.yul\":2120:3235   */\n      pop\n        /* \"#utility.yul\":2006:3235   */\n      pop\n      pop\n      jump\t// out\n        /* \"#utility.yul\":3241:3560   */\n    tag_24:\n        /* \"#utility.yul\":3382:3386   */\n      0x00\n        /* \"#utility.yul\":3420:3423   */\n      0xc0\n        /* \"#utility.yul\":3409:3418   */\n      dup3\n        /* \"#utility.yul\":3405:3424   */\n      add\n        /* \"#utility.yul\":3397:3424   */\n      swap1\n      pop\n        /* \"#utility.yul\":3434:3553   */\n      tag_282\n        /* \"#utility.yul\":3550:3551   */\n      0x00\n        /* \"#utility.yul\":3539:3548   */\n      dup4\n        /* \"#utility.yul\":3535:3552   */\n      add\n        /* \"#utility.yul\":3526:3532   */\n      dup5\n        /* \"#utility.yul\":3434:3553   */\n      tag_207\n      jump\t// in\n    tag_282:\n        /* \"#utility.yul\":3241:3560   */\n      swap3\n      swap2\n      pop\n      pop\n      jump\t// out\n        /* \"#utility.yul\":3566:3684   */\n    tag_208:\n        /* \"#utility.yul\":3653:3677   */\n      tag_284\n        /* \"#utility.yul\":3671:3676   */\n      dup2\n        /* \"#utility.yul\":3653:3677   */\n      tag_196\n      jump\t// in\n    tag_284:\n        /* \"#utility.yul\":3648:3651   */\n      dup3\n        /* \"#utility.yul\":3641:3678   */\n      mstore\n        /* \"#utility.yul\":3566:3684   */\n      pop\n      pop\n      jump\t// out\n        /* \"#utility.yul\":3690:3912   */\n    tag_39:\n        /* \"#utility.yul\":3783:3787   */\n      0x00\n        /* \"#utility.yul\":3821:3823   */\n      0x20\n        /* \"#utility.yul\":3810:3819   */\n      dup3\n        /* \"#utility.yul\":3806:3824   */\n      add\n        /* \"#utility.yul\":3798:3824   */\n      swap1\n      pop\n        /* \"#utility.yul\":3834:3905   */\n      tag_286\n        /* \"#utility.yul\":3902:3903   */\n      0x00\n        /* \"#utility.yul\":3891:3900   */\n      dup4\n        /* \"#utility.yul\":3887:3904   */\n      add\n        /* \"#utility.yul\":3878:3884   */\n      dup5\n        /* \"#utility.yul\":3834:3905   */\n      tag_208\n      jump\t// in\n    tag_286:\n        /* \"#utility.yul\":3690:3912   */\n      swap3\n      swap2\n      pop\n      pop\n      jump\t// out\n        /* \"#utility.yul\":3918:4060   */\n    tag_209:\n        /* \"#utility.yul\":4021:4053   */\n      tag_288\n        /* \"#utility.yul\":4047:4052   */\n      dup2\n        /* \"#utility.yul\":4021:4053   */\n      tag_203\n      jump\t// in\n    tag_288:\n        /* \"#utility.yul\":4016:4019   */\n      dup3\n        /* \"#utility.yul\":4009:4054   */\n      mstore\n        /* \"#utility.yul\":3918:4060   */\n      pop\n      pop\n      jump\t// out\n        /* \"#utility.yul\":4066:4320   */\n    tag_44:\n        /* \"#utility.yul\":4175:4179   */\n      0x00\n        /* \"#utility.yul\":4213:4215   */\n      0x20\n        /* \"#utility.yul\":4202:4211   */\n      dup3\n        /* \"#utility.yul\":4198:4216   */\n      add\n        /* \"#utility.yul\":4190:4216   */\n      swap1\n      pop\n        /* \"#utility.yul\":4226:4313   */\n      tag_290\n        /* \"#utility.yul\":4310:4311   */\n      0x00\n        /* \"#utility.yul\":4299:4308   */\n      dup4\n        /* \"#utility.yul\":4295:4312   */\n      add\n        /* \"#utility.yul\":4286:4292   */\n      dup5\n        /* \"#utility.yul\":4226:4313   */\n      tag_209\n      jump\t// in\n    tag_290:\n        /* \"#utility.yul\":4066:4320   */\n      swap3\n      swap2\n      pop\n      pop\n      jump\t// out\n        /* \"#utility.yul\":4326:4448   */\n    tag_210:\n        /* \"#utility.yul\":4399:4423   */\n      tag_292\n        /* \"#utility.yul\":4417:4422   */\n      dup2\n        /* \"#utility.yul\":4399:4423   */\n      tag_201\n      jump\t// in\n    tag_292:\n        /* \"#utility.yul\":4392:4397   */\n      dup2\n        /* \"#utility.yul\":4389:4424   */\n      eq\n        /* \"#utility.yul\":4379:4442   */\n      tag_293\n      jumpi\n        /* \"#utility.yul\":4438:4439   */\n      0x00\n        /* \"#utility.yul\":4435:4436   */\n      0x00\n        /* \"#utility.yul\":4428:4440   */\n      revert\n        /* \"#utility.yul\":4379:4442   */\n    tag_293:\n        /* \"#utility.yul\":4326:4448   */\n      pop\n      jump\t// out\n        /* \"#utility.yul\":4454:4593   */\n    tag_211:\n        /* \"#utility.yul\":4500:4505   */\n      0x00\n        /* \"#utility.yul\":4538:4544   */\n      dup2\n        /* \"#utility.yul\":4525:4545   */\n      calldataload\n        /* \"#utility.yul\":4516:4545   */\n      swap1\n      pop\n        /* \"#utility.yul\":4554:4587   */\n      tag_295\n        /* \"#utility.yul\":4581:4586   */\n      dup2\n        /* \"#utility.yul\":4554:4587   */\n      tag_210\n      jump\t// in\n    tag_295:\n        /* \"#utility.yul\":4454:4593   */\n      swap3\n      swap2\n      pop\n      pop\n      jump\t// out\n        /* \"#utility.yul\":4599:5218   */\n    tag_47:\n        /* \"#utility.yul\":4676:4682   */\n      0x00\n        /* \"#utility.yul\":4684:4690   */\n      0x00\n        /* \"#utility.yul\":4692:4698   */\n      0x00\n        /* \"#utility.yul\":4741:4743   */\n      0x60\n        /* \"#utility.yul\":4729:4738   */\n      dup5\n        /* \"#utility.yul\":4720:4727   */\n      dup7\n        /* \"#utility.yul\":4716:4739   */\n      sub\n        /* \"#utility.yul\":4712:4744   */\n      slt\n        /* \"#utility.yul\":4709:4828   */\n      iszero\n      tag_297\n      jumpi\n        /* \"#utility.yul\":4747:4826   */\n      tag_298\n      tag_194\n      jump\t// in\n    tag_298:\n        /* \"#utility.yul\":4709:4828   */\n    tag_297:\n        /* \"#utility.yul\":4867:4868   */\n      0x00\n        /* \"#utility.yul\":4892:4945   */\n      tag_299\n        /* \"#utility.yul\":4937:4944   */\n      dup7\n        /* \"#utility.yul\":4928:4934   */\n      dup3\n        /* \"#utility.yul\":4917:4926   */\n      dup8\n        /* \"#utility.yul\":4913:4935   */\n      add\n        /* \"#utility.yul\":4892:4945   */\n      tag_211\n      jump\t// in\n    tag_299:\n        /* \"#utility.yul\":4882:4945   */\n      swap4\n      pop\n        /* \"#utility.yul\":4838:4955   */\n      pop\n        /* \"#utility.yul\":4994:4996   */\n      0x20\n        /* \"#utility.yul\":5020:5073   */\n      tag_300\n        /* \"#utility.yul\":5065:5072   */\n      dup7\n        /* \"#utility.yul\":5056:5062   */\n      dup3\n        /* \"#utility.yul\":5045:5054   */\n      dup8\n        /* \"#utility.yul\":5041:5063   */\n      add\n        /* \"#utility.yul\":5020:5073   */\n      tag_198\n      jump\t// in\n    tag_300:\n        /* \"#utility.yul\":5010:5073   */\n      swap3\n      pop\n        /* \"#utility.yul\":4965:5083   */\n      pop\n        /* \"#utility.yul\":5122:5124   */\n      0x40\n        /* \"#utility.yul\":5148:5201   */\n      tag_301\n        /* \"#utility.yul\":5193:5200   */\n      dup7\n        /* \"#utility.yul\":5184:5190   */\n      dup3\n        /* \"#utility.yul\":5173:5182   */\n      dup8\n        /* \"#utility.yul\":5169:5191   */\n      add\n        /* \"#utility.yul\":5148:5201   */\n      tag_198\n      jump\t// in\n    tag_301:\n        /* \"#utility.yul\":5138:5201   */\n      swap2\n      pop\n        /* \"#utility.yul\":5093:5211   */\n      pop\n        /* \"#utility.yul\":4599:5218   */\n      swap3\n      pop\n      swap3\n      pop\n      swap3\n      jump\t// out\n        /* \"#utility.yul\":5224:5342   */\n    tag_212:\n        /* \"#utility.yul\":5311:5335   */\n      tag_303\n        /* \"#utility.yul\":5329:5334   */\n      dup2\n        /* \"#utility.yul\":5311:5335   */\n      tag_201\n      jump\t// in\n    tag_303:\n        /* \"#utility.yul\":5306:5309   */\n      dup3\n        /* \"#utility.yul\":5299:5336   */\n      mstore\n        /* \"#utility.yul\":5224:5342   */\n      pop\n      pop\n      jump\t// out\n        /* \"#utility.yul\":5348:5457   */\n    tag_213:\n        /* \"#utility.yul\":5429:5450   */\n      tag_305\n        /* \"#utility.yul\":5444:5449   */\n      dup2\n        /* \"#utility.yul\":5429:5450   */\n      tag_205\n      jump\t// in\n    tag_305:\n        /* \"#utility.yul\":5424:5427   */\n      dup3\n        /* \"#utility.yul\":5417:5451   */\n      mstore\n        /* \"#utility.yul\":5348:5457   */\n      pop\n      pop\n      jump\t// out\n        /* \"#utility.yul\":5463:6258   */\n    tag_54:\n        /* \"#utility.yul\":5706:5710   */\n      0x00\n        /* \"#utility.yul\":5744:5747   */\n      0xc0\n        /* \"#utility.yul\":5733:5742   */\n      dup3\n        /* \"#utility.yul\":5729:5748   */\n      add\n        /* \"#utility.yul\":5721:5748   */\n      swap1\n      pop\n        /* \"#utility.yul\":5758:5829   */\n      tag_307\n        /* \"#utility.yul\":5826:5827   */\n      0x00\n        /* \"#utility.yul\":5815:5824   */\n      dup4\n        /* \"#utility.yul\":5811:5828   */\n      add\n        /* \"#utility.yul\":5802:5808   */\n      dup10\n        /* \"#utility.yul\":5758:5829   */\n      tag_208\n      jump\t// in\n    tag_307:\n        /* \"#utility.yul\":5839:5911   */\n      tag_308\n        /* \"#utility.yul\":5907:5909   */\n      0x20\n        /* \"#utility.yul\":5896:5905   */\n      dup4\n        /* \"#utility.yul\":5892:5910   */\n      add\n        /* \"#utility.yul\":5883:5889   */\n      dup9\n        /* \"#utility.yul\":5839:5911   */\n      tag_212\n      jump\t// in\n    tag_308:\n        /* \"#utility.yul\":5921:5993   */\n      tag_309\n        /* \"#utility.yul\":5989:5991   */\n      0x40\n        /* \"#utility.yul\":5978:5987   */\n      dup4\n        /* \"#utility.yul\":5974:5992   */\n      add\n        /* \"#utility.yul\":5965:5971   */\n      dup8\n        /* \"#utility.yul\":5921:5993   */\n      tag_208\n      jump\t// in\n    tag_309:\n        /* \"#utility.yul\":6003:6091   */\n      tag_310\n        /* \"#utility.yul\":6087:6089   */\n      0x60\n        /* \"#utility.yul\":6076:6085   */\n      dup4\n        /* \"#utility.yul\":6072:6090   */\n      add\n        /* \"#utility.yul\":6063:6069   */\n      dup7\n        /* \"#utility.yul\":6003:6091   */\n      tag_209\n      jump\t// in\n    tag_310:\n        /* \"#utility.yul\":6101:6174   */\n      tag_311\n        /* \"#utility.yul\":6169:6172   */\n      0x80\n        /* \"#utility.yul\":6158:6167   */\n      dup4\n        /* \"#utility.yul\":6154:6173   */\n      add\n        /* \"#utility.yul\":6145:6151   */\n      dup6\n        /* \"#utility.yul\":6101:6174   */\n      tag_208\n      jump\t// in\n    tag_311:\n        /* \"#utility.yul\":6184:6251   */\n      tag_312\n        /* \"#utility.yul\":6246:6249   */\n      0xa0\n        /* \"#utility.yul\":6235:6244   */\n      dup4\n        /* \"#utility.yul\":6231:6250   */\n      add\n        /* \"#utility.yul\":6222:6228   */\n      dup5\n        /* \"#utility.yul\":6184:6251   */\n      tag_213\n      jump\t// in\n    tag_312:\n        /* \"#utility.yul\":5463:6258   */\n      swap8\n      swap7\n      pop\n      pop\n      pop\n      pop\n      pop\n      pop\n      pop\n      jump\t// out\n        /* \"#utility.yul\":6264:6738   */\n    tag_58:\n        /* \"#utility.yul\":6332:6338   */\n      0x00\n        /* \"#utility.yul\":6340:6346   */\n      0x00\n        /* \"#utility.yul\":6389:6391   */\n      0x40\n        /* \"#utility.yul\":6377:6386   */\n      dup4\n        /* \"#utility.yul\":6368:6375   */\n      dup6\n        /* \"#utility.yul\":6364:6387   */\n      sub\n        /* \"#utility.yul\":6360:6392   */\n      slt\n        /* \"#utility.yul\":6357:6476   */\n      iszero\n      tag_314\n      jumpi\n        /* \"#utility.yul\":6395:6474   */\n      tag_315\n      tag_194\n      jump\t// in\n    tag_315:\n        /* \"#utility.yul\":6357:6476   */\n    tag_314:\n        /* \"#utility.yul\":6515:6516   */\n      0x00\n        /* \"#utility.yul\":6540:6593   */\n      tag_316\n        /* \"#utility.yul\":6585:6592   */\n      dup6\n        /* \"#utility.yul\":6576:6582   */\n      dup3\n        /* \"#utility.yul\":6565:6574   */\n      dup7\n        /* \"#utility.yul\":6561:6583   */\n      add\n        /* \"#utility.yul\":6540:6593   */\n      tag_211\n      jump\t// in\n    tag_316:\n        /* \"#utility.yul\":6530:6593   */\n      swap3\n      pop\n        /* \"#utility.yul\":6486:6603   */\n      pop\n        /* \"#utility.yul\":6642:6644   */\n      0x20\n        /* \"#utility.yul\":6668:6721   */\n      tag_317\n        /* \"#utility.yul\":6713:6720   */\n      dup6\n        /* \"#utility.yul\":6704:6710   */\n      dup3\n        /* \"#utility.yul\":6693:6702   */\n      dup7\n        /* \"#utility.yul\":6689:6711   */\n      add\n        /* \"#utility.yul\":6668:6721   */\n      tag_198\n      jump\t// in\n    tag_317:\n        /* \"#utility.yul\":6658:6721   */\n      swap2\n      pop\n        /* \"#utility.yul\":6613:6731   */\n      pop\n        /* \"#utility.yul\":6264:6738   */\n      swap3\n      pop\n      swap3\n      swap1\n      pop\n      jump\t// out\n        /* \"#utility.yul\":6744:6853   */\n    tag_214:\n        /* \"#utility.yul\":6780:6787   */\n      0x00\n        /* \"#utility.yul\":6820:6846   */\n      0xffffffffffffffffffffffff\n        /* \"#utility.yul\":6813:6818   */\n      dup3\n        /* \"#utility.yul\":6809:6847   */\n      and\n        /* \"#utility.yul\":6798:6847   */\n      swap1\n      pop\n        /* \"#utility.yul\":6744:6853   */\n      swap2\n      swap1\n      pop\n      jump\t// out\n        /* \"#utility.yul\":6859:6974   */\n    tag_215:\n        /* \"#utility.yul\":6944:6967   */\n      tag_320\n        /* \"#utility.yul\":6961:6966   */\n      dup2\n        /* \"#utility.yul\":6944:6967   */\n      tag_214\n      jump\t// in\n    tag_320:\n        /* \"#utility.yul\":6939:6942   */\n      dup3\n        /* \"#utility.yul\":6932:6968   */\n      mstore\n        /* \"#utility.yul\":6859:6974   */\n      pop\n      pop\n      jump\t// out\n        /* \"#utility.yul\":6980:7340   */\n    tag_61:\n        /* \"#utility.yul\":7115:7119   */\n      0x00\n        /* \"#utility.yul\":7153:7155   */\n      0x40\n        /* \"#utility.yul\":7142:7151   */\n      dup3\n        /* \"#utility.yul\":7138:7156   */\n      add\n        /* \"#utility.yul\":7130:7156   */\n      swap1\n      pop\n        /* \"#utility.yul\":7166:7253   */\n      tag_322\n        /* \"#utility.yul\":7250:7251   */\n      0x00\n        /* \"#utility.yul\":7239:7248   */\n      dup4\n        /* \"#utility.yul\":7235:7252   */\n      add\n        /* \"#utility.yul\":7226:7232   */\n      dup6\n        /* \"#utility.yul\":7166:7253   */\n      tag_209\n      jump\t// in\n    tag_322:\n        /* \"#utility.yul\":7263:7333   */\n      tag_323\n        /* \"#utility.yul\":7329:7331   */\n      0x20\n        /* \"#utility.yul\":7318:7327   */\n      dup4\n        /* \"#utility.yul\":7314:7332   */\n      add\n        /* \"#utility.yul\":7305:7311   */\n      dup5\n        /* \"#utility.yul\":7263:7333   */\n      tag_215\n      jump\t// in\n    tag_323:\n        /* \"#utility.yul\":6980:7340   */\n      swap4\n      swap3\n      pop\n      pop\n      pop\n      jump\t// out\n        /* \"#utility.yul\":7346:7484   */\n    tag_216:\n        /* \"#utility.yul\":7427:7459   */\n      tag_325\n        /* \"#utility.yul\":7453:7458   */\n      dup2\n        /* \"#utility.yul\":7427:7459   */\n      tag_203\n      jump\t// in\n    tag_325:\n        /* \"#utility.yul\":7420:7425   */\n      dup2\n        /* \"#utility.yul\":7417:7460   */\n      eq\n        /* \"#utility.yul\":7407:7478   */\n      tag_326\n      jumpi\n        /* \"#utility.yul\":7474:7475   */\n      0x00\n        /* \"#utility.yul\":7471:7472   */\n      0x00\n        /* \"#utility.yul\":7464:7476   */\n      revert\n        /* \"#utility.yul\":7407:7478   */\n    tag_326:\n        /* \"#utility.yul\":7346:7484   */\n      pop\n      jump\t// out\n        /* \"#utility.yul\":7490:7645   */\n    tag_217:\n        /* \"#utility.yul\":7544:7549   */\n      0x00\n        /* \"#utility.yul\":7582:7588   */\n      dup2\n        /* \"#utility.yul\":7569:7589   */\n      calldataload\n        /* \"#utility.yul\":7560:7589   */\n      swap1\n      pop\n        /* \"#utility.yul\":7598:7639   */\n      tag_328\n        /* \"#utility.yul\":7633:7638   */\n      dup2\n        /* \"#utility.yul\":7598:7639   */\n      tag_216\n      jump\t// in\n    tag_328:\n        /* \"#utility.yul\":7490:7645   */\n      swap3\n      swap2\n      pop\n      pop\n      jump\t// out\n        /* \"#utility.yul\":7651:7771   */\n    tag_218:\n        /* \"#utility.yul\":7723:7746   */\n      tag_330\n        /* \"#utility.yul\":7740:7745   */\n      dup2\n        /* \"#utility.yul\":7723:7746   */\n      tag_214\n      jump\t// in\n    tag_330:\n        /* \"#utility.yul\":7716:7721   */\n      dup2\n        /* \"#utility.yul\":7713:7747   */\n      eq\n        /* \"#utility.yul\":7703:7765   */\n      tag_331\n      jumpi\n        /* \"#utility.yul\":7761:7762   */\n      0x00\n        /* \"#utility.yul\":7758:7759   */\n      0x00\n        /* \"#utility.yul\":7751:7763   */\n      revert\n        /* \"#utility.yul\":7703:7765   */\n    tag_331:\n        /* \"#utility.yul\":7651:7771   */\n      pop\n      jump\t// out\n        /* \"#utility.yul\":7777:7914   */\n    tag_219:\n        /* \"#utility.yul\":7822:7827   */\n      0x00\n        /* \"#utility.yul\":7860:7866   */\n      dup2\n        /* \"#utility.yul\":7847:7867   */\n      calldataload\n        /* \"#utility.yul\":7838:7867   */\n      swap1\n      pop\n        /* \"#utility.yul\":7876:7908   */\n      tag_333\n        /* \"#utility.yul\":7902:7907   */\n      dup2\n        /* \"#utility.yul\":7876:7908   */\n      tag_218\n      jump\t// in\n    tag_333:\n        /* \"#utility.yul\":7777:7914   */\n      swap3\n      swap2\n      pop\n      pop\n      jump\t// out\n        /* \"#utility.yul\":7920:8699   */\n    tag_69:\n        /* \"#utility.yul\":8013:8019   */\n      0x00\n        /* \"#utility.yul\":8021:8027   */\n      0x00\n        /* \"#utility.yul\":8029:8035   */\n      0x00\n        /* \"#utility.yul\":8037:8043   */\n      0x00\n        /* \"#utility.yul\":8086:8089   */\n      0x80\n        /* \"#utility.yul\":8074:8083   */\n      dup6\n        /* \"#utility.yul\":8065:8072   */\n      dup8\n        /* \"#utility.yul\":8061:8084   */\n      sub\n        /* \"#utility.yul\":8057:8090   */\n      slt\n        /* \"#utility.yul\":8054:8174   */\n      iszero\n      tag_335\n      jumpi\n        /* \"#utility.yul\":8093:8172   */\n      tag_336\n      tag_194\n      jump\t// in\n    tag_336:\n        /* \"#utility.yul\":8054:8174   */\n    tag_335:\n        /* \"#utility.yul\":8213:8214   */\n      0x00\n        /* \"#utility.yul\":8238:8291   */\n      tag_337\n        /* \"#utility.yul\":8283:8290   */\n      dup8\n        /* \"#utility.yul\":8274:8280   */\n      dup3\n        /* \"#utility.yul\":8263:8272   */\n      dup9\n        /* \"#utility.yul\":8259:8281   */\n      add\n        /* \"#utility.yul\":8238:8291   */\n      tag_211\n      jump\t// in\n    tag_337:\n        /* \"#utility.yul\":8228:8291   */\n      swap5\n      pop\n        /* \"#utility.yul\":8184:8301   */\n      pop\n        /* \"#utility.yul\":8340:8342   */\n      0x20\n        /* \"#utility.yul\":8366:8419   */\n      tag_338\n        /* \"#utility.yul\":8411:8418   */\n      dup8\n        /* \"#utility.yul\":8402:8408   */\n      dup3\n        /* \"#utility.yul\":8391:8400   */\n      dup9\n        /* \"#utility.yul\":8387:8409   */\n      add\n        /* \"#utility.yul\":8366:8419   */\n      tag_198\n      jump\t// in\n    tag_338:\n        /* \"#utility.yul\":8356:8419   */\n      swap4\n      pop\n        /* \"#utility.yul\":8311:8429   */\n      pop\n        /* \"#utility.yul\":8468:8470   */\n      0x40\n        /* \"#utility.yul\":8494:8555   */\n      tag_339\n        /* \"#utility.yul\":8547:8554   */\n      dup8\n        /* \"#utility.yul\":8538:8544   */\n      dup3\n        /* \"#utility.yul\":8527:8536   */\n      dup9\n        /* \"#utility.yul\":8523:8545   */\n      add\n        /* \"#utility.yul\":8494:8555   */\n      tag_217\n      jump\t// in\n    tag_339:\n        /* \"#utility.yul\":8484:8555   */\n      swap3\n      pop\n        /* \"#utility.yul\":8439:8565   */\n      pop\n        /* \"#utility.yul\":8604:8606   */\n      0x60\n        /* \"#utility.yul\":8630:8682   */\n      tag_340\n        /* \"#utility.yul\":8674:8681   */\n      dup8\n        /* \"#utility.yul\":8665:8671   */\n      dup3\n        /* \"#utility.yul\":8654:8663   */\n      dup9\n        /* \"#utility.yul\":8650:8672   */\n      add\n        /* \"#utility.yul\":8630:8682   */\n      tag_219\n      jump\t// in\n    tag_340:\n        /* \"#utility.yul\":8620:8682   */\n      swap2\n      pop\n        /* \"#utility.yul\":8575:8692   */\n      pop\n        /* \"#utility.yul\":7920:8699   */\n      swap3\n      swap6\n      swap2\n      swap5\n      pop\n      swap3\n      pop\n      jump\t// out\n        /* \"#utility.yul\":8705:8874   */\n    tag_220:\n        /* \"#utility.yul\":8789:8800   */\n      0x00\n        /* \"#utility.yul\":8823:8829   */\n      dup3\n        /* \"#utility.yul\":8818:8821   */\n      dup3\n        /* \"#utility.yul\":8811:8830   */\n      mstore\n        /* \"#utility.yul\":8863:8867   */\n      0x20\n        /* \"#utility.yul\":8858:8861   */\n      dup3\n        /* \"#utility.yul\":8854:8868   */\n      add\n        /* \"#utility.yul\":8839:8868   */\n      swap1\n      pop\n        /* \"#utility.yul\":8705:8874   */\n      swap3\n      swap2\n      pop\n      pop\n      jump\t// out\n        /* \"#utility.yul\":8880:9046   */\n    tag_221:\n        /* \"#utility.yul\":9020:9038   */\n      0x4e6f7420796f7572206c697374696e6700000000000000000000000000000000\n        /* \"#utility.yul\":9016:9017   */\n      0x00\n        /* \"#utility.yul\":9008:9014   */\n      dup3\n        /* \"#utility.yul\":9004:9018   */\n      add\n        /* \"#utility.yul\":8997:9039   */\n      mstore\n        /* \"#utility.yul\":8880:9046   */\n      pop\n      jump\t// out\n        /* \"#utility.yul\":9052:9418   */\n    tag_222:\n        /* \"#utility.yul\":9194:9197   */\n      0x00\n        /* \"#utility.yul\":9215:9282   */\n      tag_344\n        /* \"#utility.yul\":9279:9281   */\n      0x10\n        /* \"#utility.yul\":9274:9277   */\n      dup4\n        /* \"#utility.yul\":9215:9282   */\n      tag_220\n      jump\t// in\n    tag_344:\n        /* \"#utility.yul\":9208:9282   */\n      swap2\n      pop\n        /* \"#utility.yul\":9291:9384   */\n      tag_345\n        /* \"#utility.yul\":9380:9383   */\n      dup3\n        /* \"#utility.yul\":9291:9384   */\n      tag_221\n      jump\t// in\n    tag_345:\n        /* \"#utility.yul\":9409:9411   */\n      0x20\n        /* \"#utility.yul\":9404:9407   */\n      dup3\n        /* \"#utility.yul\":9400:9412   */\n      add\n        /* \"#utility.yul\":9393:9412   */\n      swap1\n      pop\n        /* \"#utility.yul\":9052:9418   */\n      swap2\n      swap1\n      pop\n      jump\t// out\n        /* \"#utility.yul\":9424:9843   */\n    tag_84:\n        /* \"#utility.yul\":9590:9594   */\n      0x00\n        /* \"#utility.yul\":9628:9630   */\n      0x20\n        /* \"#utility.yul\":9617:9626   */\n      dup3\n        /* \"#utility.yul\":9613:9631   */\n      add\n        /* \"#utility.yul\":9605:9631   */\n      swap1\n      pop\n        /* \"#utility.yul\":9677:9686   */\n      dup2\n        /* \"#utility.yul\":9671:9675   */\n      dup2\n        /* \"#utility.yul\":9667:9687   */\n      sub\n        /* \"#utility.yul\":9663:9664   */\n      0x00\n        /* \"#utility.yul\":9652:9661   */\n      dup4\n        /* \"#utility.yul\":9648:9665   */\n      add\n        /* \"#utility.yul\":9641:9688   */\n      mstore\n        /* \"#utility.yul\":9705:9836   */\n      tag_347\n        /* \"#utility.yul\":9831:9835   */\n      dup2\n        /* \"#utility.yul\":9705:9836   */\n      tag_222\n      jump\t// in\n    tag_347:\n        /* \"#utility.yul\":9697:9836   */\n      swap1\n      pop\n        /* \"#utility.yul\":9424:9843   */\n      swap2\n      swap1\n      pop\n      jump\t// out\n        /* \"#utility.yul\":9849:10011   */\n    tag_223:\n        /* \"#utility.yul\":9989:10003   */\n      0x416c726561647920736f6c640000000000000000000000000000000000000000\n        /* \"#utility.yul\":9985:9986   */\n      0x00\n        /* \"#utility.yul\":9977:9983   */\n      dup3\n        /* \"#utility.yul\":9973:9987   */\n      add\n        /* \"#utility.yul\":9966:10004   */\n      mstore\n        /* \"#utility.yul\":9849:10011   */\n      pop\n      jump\t// out\n        /* \"#utility.yul\":10017:10383   */\n    tag_224:\n        /* \"#utility.yul\":10159:10162   */\n      0x00\n        /* \"#utility.yul\":10180:10247   */\n      tag_350\n        /* \"#utility.yul\":10244:10246   */\n      0x0c\n        /* \"#utility.yul\":10239:10242   */\n      dup4\n        /* \"#utility.yul\":10180:10247   */\n      tag_220\n      jump\t// in\n    tag_350:\n        /* \"#utility.yul\":10173:10247   */\n      swap2\n      pop\n        /* \"#utility.yul\":10256:10349   */\n      tag_351\n        /* \"#utility.yul\":10345:10348   */\n      dup3\n        /* \"#utility.yul\":10256:10349   */\n      tag_223\n      jump\t// in\n    tag_351:\n        /* \"#utility.yul\":10374:10376   */\n      0x20\n        /* \"#utility.yul\":10369:10372   */\n      dup3\n        /* \"#utility.yul\":10365:10377   */\n      add\n        /* \"#utility.yul\":10358:10377   */\n      swap1\n      pop\n        /* \"#utility.yul\":10017:10383   */\n      swap2\n      swap1\n      pop\n      jump\t// out\n        /* \"#utility.yul\":10389:10808   */\n    tag_87:\n        /* \"#utility.yul\":10555:10559   */\n      0x00\n        /* \"#utility.yul\":10593:10595   */\n      0x20\n        /* \"#utility.yul\":10582:10591   */\n      dup3\n        /* \"#utility.yul\":10578:10596   */\n      add\n        /* \"#utility.yul\":10570:10596   */\n      swap1\n      pop\n        /* \"#utility.yul\":10642:10651   */\n      dup2\n        /* \"#utility.yul\":10636:10640   */\n      dup2\n        /* \"#utility.yul\":10632:10652   */\n      sub\n        /* \"#utility.yul\":10628:10629   */\n      0x00\n        /* \"#utility.yul\":10617:10626   */\n      dup4\n        /* \"#utility.yul\":10613:10630   */\n      add\n        /* \"#utility.yul\":10606:10653   */\n      mstore\n        /* \"#utility.yul\":10670:10801   */\n      tag_353\n        /* \"#utility.yul\":10796:10800   */\n      dup2\n        /* \"#utility.yul\":10670:10801   */\n      tag_224\n      jump\t// in\n    tag_353:\n        /* \"#utility.yul\":10662:10801   */\n      swap1\n      pop\n        /* \"#utility.yul\":10389:10808   */\n      swap2\n      swap1\n      pop\n      jump\t// out\n        /* \"#utility.yul\":10814:11256   */\n    tag_89:\n        /* \"#utility.yul\":10963:10967   */\n      0x00\n        /* \"#utility.yul\":11001:11003   */\n      0x60\n        /* \"#utility.yul\":10990:10999   */\n      dup3\n        /* \"#utility.yul\":10986:11004   */\n      add\n        /* \"#utility.yul\":10978:11004   */\n      swap1\n      pop\n        /* \"#utility.yul\":11014:11085   */\n      tag_355\n        /* \"#utility.yul\":11082:11083   */\n      0x00\n        /* \"#utility.yul\":11071:11080   */\n      dup4\n        /* \"#utility.yul\":11067:11084   */\n      add\n        /* \"#utility.yul\":11058:11064   */\n      dup7\n        /* \"#utility.yul\":11014:11085   */\n      tag_212\n      jump\t// in\n    tag_355:\n        /* \"#utility.yul\":11095:11167   */\n      tag_356\n        /* \"#utility.yul\":11163:11165   */\n      0x20\n        /* \"#utility.yul\":11152:11161   */\n      dup4\n        /* \"#utility.yul\":11148:11166   */\n      add\n        /* \"#utility.yul\":11139:11145   */\n      dup6\n        /* \"#utility.yul\":11095:11167   */\n      tag_212\n      jump\t// in\n    tag_356:\n        /* \"#utility.yul\":11177:11249   */\n      tag_357\n        /* \"#utility.yul\":11245:11247   */\n      0x40\n        /* \"#utility.yul\":11234:11243   */\n      dup4\n        /* \"#utility.yul\":11230:11248   */\n      add\n        /* \"#utility.yul\":11221:11227   */\n      dup5\n        /* \"#utility.yul\":11177:11249   */\n      tag_208\n      jump\t// in\n    tag_357:\n        /* \"#utility.yul\":10814:11256   */\n      swap5\n      swap4\n      pop\n      pop\n      pop\n      pop\n      jump\t// out\n        /* \"#utility.yul\":11262:11433   */\n    tag_225:\n        /* \"#utility.yul\":11402:11425   */\n      0x4e6f74206d61726b6574706c616365206f776e65720000000000000000000000\n        /* \"#utility.yul\":11398:11399   */\n      0x00\n        /* \"#utility.yul\":11390:11396   */\n      dup3\n        /* \"#utility.yul\":11386:11400   */\n      add\n        /* \"#utility.yul\":11379:11426   */\n      mstore\n        /* \"#utility.yul\":11262:11433   */\n      pop\n      jump\t// out\n        /* \"#utility.yul\":11439:11805   */\n    tag_226:\n        /* \"#utility.yul\":11581:11584   */\n      0x00\n        /* \"#utility.yul\":11602:11669   */\n      tag_360\n        /* \"#utility.yul\":11666:11668   */\n      0x15\n        /* \"#utility.yul\":11661:11664   */\n      dup4\n        /* \"#utility.yul\":11602:11669   */\n      tag_220\n      jump\t// in\n    tag_360:\n        /* \"#utility.yul\":11595:11669   */\n      swap2\n      pop\n        /* \"#utility.yul\":11678:11771   */\n      tag_361\n        /* \"#utility.yul\":11767:11770   */\n      dup3\n        /* \"#utility.yul\":11678:11771   */\n      tag_225\n      jump\t// in\n    tag_361:\n        /* \"#utility.yul\":11796:11798   */\n      0x20\n        /* \"#utility.yul\":11791:11794   */\n      dup3\n        /* \"#utility.yul\":11787:11799   */\n      add\n        /* \"#utility.yul\":11780:11799   */\n      swap1\n      pop\n        /* \"#utility.yul\":11439:11805   */\n      swap2\n      swap1\n      pop\n      jump\t// out\n        /* \"#utility.yul\":11811:12230   */\n    tag_98:\n        /* \"#utility.yul\":11977:11981   */\n      0x00\n        /* \"#utility.yul\":12015:12017   */\n      0x20\n        /* \"#utility.yul\":12004:12013   */\n      dup3\n        /* \"#utility.yul\":12000:12018   */\n      add\n        /* \"#utility.yul\":11992:12018   */\n      swap1\n      pop\n        /* \"#utility.yul\":12064:12073   */\n      dup2\n        /* \"#utility.yul\":12058:12062   */\n      dup2\n        /* \"#utility.yul\":12054:12074   */\n      sub\n        /* \"#utility.yul\":12050:12051   */\n      0x00\n        /* \"#utility.yul\":12039:12048   */\n      dup4\n        /* \"#utility.yul\":12035:12052   */\n      add\n        /* \"#utility.yul\":12028:12075   */\n      mstore\n        /* \"#utility.yul\":12092:12223   */\n      tag_363\n        /* \"#utility.yul\":12218:12222   */\n      dup2\n        /* \"#utility.yul\":12092:12223   */\n      tag_226\n      jump\t// in\n    tag_363:\n        /* \"#utility.yul\":12084:12223   */\n      swap1\n      pop\n        /* \"#utility.yul\":11811:12230   */\n      swap2\n      swap1\n      pop\n      jump\t// out\n        /* \"#utility.yul\":12236:12394   */\n    tag_227:\n        /* \"#utility.yul\":12376:12386   */\n      0x4e6f2066756e6473000000000000000000000000000000000000000000000000\n        /* \"#utility.yul\":12372:12373   */\n      0x00\n        /* \"#utility.yul\":12364:12370   */\n      dup3\n        /* \"#utility.yul\":12360:12374   */\n      add\n        /* \"#utility.yul\":12353:12387   */\n      mstore\n        /* \"#utility.yul\":12236:12394   */\n      pop\n      jump\t// out\n        /* \"#utility.yul\":12400:12765   */\n    tag_228:\n        /* \"#utility.yul\":12542:12545   */\n      0x00\n        /* \"#utility.yul\":12563:12629   */\n      tag_366\n        /* \"#utility.yul\":12627:12628   */\n      0x08\n        /* \"#utility.yul\":12622:12625   */\n      dup4\n        /* \"#utility.yul\":12563:12629   */\n      tag_220\n      jump\t// in\n    tag_366:\n        /* \"#utility.yul\":12556:12629   */\n      swap2\n      pop\n        /* \"#utility.yul\":12638:12731   */\n      tag_367\n        /* \"#utility.yul\":12727:12730   */\n      dup3\n        /* \"#utility.yul\":12638:12731   */\n      tag_227\n      jump\t// in\n    tag_367:\n        /* \"#utility.yul\":12756:12758   */\n      0x20\n        /* \"#utility.yul\":12751:12754   */\n      dup3\n        /* \"#utility.yul\":12747:12759   */\n      add\n        /* \"#utility.yul\":12740:12759   */\n      swap1\n      pop\n        /* \"#utility.yul\":12400:12765   */\n      swap2\n      swap1\n      pop\n      jump\t// out\n        /* \"#utility.yul\":12771:13190   */\n    tag_104:\n        /* \"#utility.yul\":12937:12941   */\n      0x00\n        /* \"#utility.yul\":12975:12977   */\n      0x20\n        /* \"#utility.yul\":12964:12973   */\n      dup3\n        /* \"#utility.yul\":12960:12978   */\n      add\n        /* \"#utility.yul\":12952:12978   */\n      swap1\n      pop\n        /* \"#utility.yul\":13024:13033   */\n      dup2\n        /* \"#utility.yul\":13018:13022   */\n      dup2\n        /* \"#utility.yul\":13014:13034   */\n      sub\n        /* \"#utility.yul\":13010:13011   */\n      0x00\n        /* \"#utility.yul\":12999:13008   */\n      dup4\n        /* \"#utility.yul\":12995:13012   */\n      add\n        /* \"#utility.yul\":12988:13035   */\n      mstore\n        /* \"#utility.yul\":13052:13183   */\n      tag_369\n        /* \"#utility.yul\":13178:13182   */\n      dup2\n        /* \"#utility.yul\":13052:13183   */\n      tag_228\n      jump\t// in\n    tag_369:\n        /* \"#utility.yul\":13044:13183   */\n      swap1\n      pop\n        /* \"#utility.yul\":12771:13190   */\n      swap2\n      swap1\n      pop\n      jump\t// out\n        /* \"#utility.yul\":13196:13366   */\n    tag_229:\n        /* \"#utility.yul\":13336:13358   */\n      0x496e73756666696369656e74207061796d656e74000000000000000000000000\n        /* \"#utility.yul\":13332:13333   */\n      0x00\n        /* \"#utility.yul\":13324:13330   */\n      dup3\n        /* \"#utility.yul\":13320:13334   */\n      add\n        /* \"#utility.yul\":13313:13359   */\n      mstore\n        /* \"#utility.yul\":13196:13366   */\n      pop\n      jump\t// out\n        /* \"#utility.yul\":13372:13738   */\n    tag_230:\n        /* \"#utility.yul\":13514:13517   */\n      0x00\n        /* \"#utility.yul\":13535:13602   */\n      tag_372\n        /* \"#utility.yul\":13599:13601   */\n      0x14\n        /* \"#utility.yul\":13594:13597   */\n      dup4\n        /* \"#utility.yul\":13535:13602   */\n      tag_220\n      jump\t// in\n    tag_372:\n        /* \"#utility.yul\":13528:13602   */\n      swap2\n      pop\n        /* \"#utility.yul\":13611:13704   */\n      tag_373\n        /* \"#utility.yul\":13700:13703   */\n      dup3\n        /* \"#utility.yul\":13611:13704   */\n      tag_229\n      jump\t// in\n    tag_373:\n        /* \"#utility.yul\":13729:13731   */\n      0x20\n        /* \"#utility.yul\":13724:13727   */\n      dup3\n        /* \"#utility.yul\":13720:13732   */\n      add\n        /* \"#utility.yul\":13713:13732   */\n      swap1\n      pop\n        /* \"#utility.yul\":13372:13738   */\n      swap2\n      swap1\n      pop\n      jump\t// out\n        /* \"#utility.yul\":13744:14163   */\n    tag_115:\n        /* \"#utility.yul\":13910:13914   */\n      0x00\n        /* \"#utility.yul\":13948:13950   */\n      0x20\n        /* \"#utility.yul\":13937:13946   */\n      dup3\n        /* \"#utility.yul\":13933:13951   */\n      add\n        /* \"#utility.yul\":13925:13951   */\n      swap1\n      pop\n        /* \"#utility.yul\":13997:14006   */\n      dup2\n        /* \"#utility.yul\":13991:13995   */\n      dup2\n        /* \"#utility.yul\":13987:14007   */\n      sub\n        /* \"#utility.yul\":13983:13984   */\n      0x00\n        /* \"#utility.yul\":13972:13981   */\n      dup4\n        /* \"#utility.yul\":13968:13985   */\n      add\n        /* \"#utility.yul\":13961:14008   */\n      mstore\n        /* \"#utility.yul\":14025:14156   */\n      tag_375\n        /* \"#utility.yul\":14151:14155   */\n      dup2\n        /* \"#utility.yul\":14025:14156   */\n      tag_230\n      jump\t// in\n    tag_375:\n        /* \"#utility.yul\":14017:14156   */\n      swap1\n      pop\n        /* \"#utility.yul\":13744:14163   */\n      swap2\n      swap1\n      pop\n      jump\t// out\n        /* \"#utility.yul\":14169:14349   */\n    tag_231:\n        /* \"#utility.yul\":14217:14294   */\n      0x4e487b7100000000000000000000000000000000000000000000000000000000\n        /* \"#utility.yul\":14214:14215   */\n      0x00\n        /* \"#utility.yul\":14207:14295   */\n      mstore\n        /* \"#utility.yul\":14314:14318   */\n      0x11\n        /* \"#utility.yul\":14311:14312   */\n      0x04\n        /* \"#utility.yul\":14304:14319   */\n      mstore\n        /* \"#utility.yul\":14338:14342   */\n      0x24\n        /* \"#utility.yul\":14335:14336   */\n      0x00\n        /* \"#utility.yul\":14328:14343   */\n      revert\n        /* \"#utility.yul\":14355:14765   */\n    tag_119:\n        /* \"#utility.yul\":14395:14402   */\n      0x00\n        /* \"#utility.yul\":14418:14438   */\n      tag_378\n        /* \"#utility.yul\":14436:14437   */\n      dup3\n        /* \"#utility.yul\":14418:14438   */\n      tag_196\n      jump\t// in\n    tag_378:\n        /* \"#utility.yul\":14413:14438   */\n      swap2\n      pop\n        /* \"#utility.yul\":14452:14472   */\n      tag_379\n        /* \"#utility.yul\":14470:14471   */\n      dup4\n        /* \"#utility.yul\":14452:14472   */\n      tag_196\n      jump\t// in\n    tag_379:\n        /* \"#utility.yul\":14447:14472   */\n      swap3\n      pop\n        /* \"#utility.yul\":14507:14508   */\n      dup3\n        /* \"#utility.yul\":14504:14505   */\n      dup3\n        /* \"#utility.yul\":14500:14509   */\n      mul\n        /* \"#utility.yul\":14529:14559   */\n      tag_380\n        /* \"#utility.yul\":14547:14558   */\n      dup2\n        /* \"#utility.yul\":14529:14559   */\n      tag_196\n      jump\t// in\n    tag_380:\n        /* \"#utility.yul\":14518:14559   */\n      swap2\n      pop\n        /* \"#utility.yul\":14708:14709   */\n      dup3\n        /* \"#utility.yul\":14699:14706   */\n      dup3\n        /* \"#utility.yul\":14695:14710   */\n      div\n        /* \"#utility.yul\":14692:14693   */\n      dup5\n        /* \"#utility.yul\":14689:14711   */\n      eq\n        /* \"#utility.yul\":14669:14670   */\n      dup4\n        /* \"#utility.yul\":14662:14671   */\n      iszero\n        /* \"#utility.yul\":14642:14725   */\n      or\n        /* \"#utility.yul\":14619:14758   */\n      tag_381\n      jumpi\n        /* \"#utility.yul\":14738:14756   */\n      tag_382\n      tag_231\n      jump\t// in\n    tag_382:\n        /* \"#utility.yul\":14619:14758   */\n    tag_381:\n        /* \"#utility.yul\":14403:14765   */\n      pop\n        /* \"#utility.yul\":14355:14765   */\n      swap3\n      swap2\n      pop\n      pop\n      jump\t// out\n        /* \"#utility.yul\":14771:14951   */\n    tag_232:\n        /* \"#utility.yul\":14819:14896   */\n      0x4e487b7100000000000000000000000000000000000000000000000000000000\n        /* \"#utility.yul\":14816:14817   */\n      0x00\n        /* \"#utility.yul\":14809:14897   */\n      mstore\n        /* \"#utility.yul\":14916:14920   */\n      0x12\n        /* \"#utility.yul\":14913:14914   */\n      0x04\n        /* \"#utility.yul\":14906:14921   */\n      mstore\n        /* \"#utility.yul\":14940:14944   */\n      0x24\n        /* \"#utility.yul\":14937:14938   */\n      0x00\n        /* \"#utility.yul\":14930:14945   */\n      revert\n        /* \"#utility.yul\":14957:15142   */\n    tag_121:\n        /* \"#utility.yul\":14997:14998   */\n      0x00\n        /* \"#utility.yul\":15014:15034   */\n      tag_385\n        /* \"#utility.yul\":15032:15033   */\n      dup3\n        /* \"#utility.yul\":15014:15034   */\n      tag_196\n      jump\t// in\n    tag_385:\n        /* \"#utility.yul\":15009:15034   */\n      swap2\n      pop\n        /* \"#utility.yul\":15048:15068   */\n      tag_386\n        /* \"#utility.yul\":15066:15067   */\n      dup4\n        /* \"#utility.yul\":15048:15068   */\n      tag_196\n      jump\t// in\n    tag_386:\n        /* \"#utility.yul\":15043:15068   */\n      swap3\n      pop\n        /* \"#utility.yul\":15087:15088   */\n      dup3\n        /* \"#utility.yul\":15077:15112   */\n      tag_387\n      jumpi\n        /* \"#utility.yul\":15092:15110   */\n      tag_388\n      tag_232\n      jump\t// in\n    tag_388:\n        /* \"#utility.yul\":15077:15112   */\n    tag_387:\n        /* \"#utility.yul\":15134:15135   */\n      dup3\n        /* \"#utility.yul\":15131:15132   */\n      dup3\n        /* \"#utility.yul\":15127:15136   */\n      div\n        /* \"#utility.yul\":15122:15136   */\n      swap1\n      pop\n        /* \"#utility.yul\":14957:15142   */\n      swap3\n      swap2\n      pop\n      pop\n      jump\t// out\n        /* \"#utility.yul\":15148:15342   */\n    tag_123:\n        /* \"#utility.yul\":15188:15192   */\n      0x00\n        /* \"#utility.yul\":15208:15228   */\n      tag_390\n        /* \"#utility.yul\":15226:15227   */\n      dup3\n        /* \"#utility.yul\":15208:15228   */\n      tag_196\n      jump\t// in\n    tag_390:\n        /* \"#utility.yul\":15203:15228   */\n      swap2\n      pop\n        /* \"#utility.yul\":15242:15262   */\n      tag_391\n        /* \"#utility.yul\":15260:15261   */\n      dup4\n        /* \"#utility.yul\":15242:15262   */\n      tag_196\n      jump\t// in\n    tag_391:\n        /* \"#utility.yul\":15237:15262   */\n      swap3\n      pop\n        /* \"#utility.yul\":15286:15287   */\n      dup3\n        /* \"#utility.yul\":15283:15284   */\n      dup3\n        /* \"#utility.yul\":15279:15288   */\n      sub\n        /* \"#utility.yul\":15271:15288   */\n      swap1\n      pop\n        /* \"#utility.yul\":15310:15311   */\n      dup2\n        /* \"#utility.yul\":15304:15308   */\n      dup2\n        /* \"#utility.yul\":15301:15312   */\n      gt\n        /* \"#utility.yul\":15298:15335   */\n      iszero\n      tag_392\n      jumpi\n        /* \"#utility.yul\":15315:15333   */\n      tag_393\n      tag_231\n      jump\t// in\n    tag_393:\n        /* \"#utility.yul\":15298:15335   */\n    tag_392:\n        /* \"#utility.yul\":15148:15342   */\n      swap3\n      swap2\n      pop\n      pop\n      jump\t// out\n        /* \"#utility.yul\":15348:15680   */\n    tag_133:\n        /* \"#utility.yul\":15469:15473   */\n      0x00\n        /* \"#utility.yul\":15507:15509   */\n      0x40\n        /* \"#utility.yul\":15496:15505   */\n      dup3\n        /* \"#utility.yul\":15492:15510   */\n      add\n        /* \"#utility.yul\":15484:15510   */\n      swap1\n      pop\n        /* \"#utility.yul\":15520:15591   */\n      tag_395\n        /* \"#utility.yul\":15588:15589   */\n      0x00\n        /* \"#utility.yul\":15577:15586   */\n      dup4\n        /* \"#utility.yul\":15573:15590   */\n      add\n        /* \"#utility.yul\":15564:15570   */\n      dup6\n        /* \"#utility.yul\":15520:15591   */\n      tag_212\n      jump\t// in\n    tag_395:\n        /* \"#utility.yul\":15601:15673   */\n      tag_396\n        /* \"#utility.yul\":15669:15671   */\n      0x20\n        /* \"#utility.yul\":15658:15667   */\n      dup4\n        /* \"#utility.yul\":15654:15672   */\n      add\n        /* \"#utility.yul\":15645:15651   */\n      dup5\n        /* \"#utility.yul\":15601:15673   */\n      tag_208\n      jump\t// in\n    tag_396:\n        /* \"#utility.yul\":15348:15680   */\n      swap4\n      swap3\n      pop\n      pop\n      pop\n      jump\t// out\n        /* \"#utility.yul\":15686:15853   */\n    tag_233:\n        /* \"#utility.yul\":15826:15845   */\n      0x5072696365206d757374206265203e2030000000000000000000000000000000\n        /* \"#utility.yul\":15822:15823   */\n      0x00\n        /* \"#utility.yul\":15814:15820   */\n      dup3\n        /* \"#utility.yul\":15810:15824   */\n      add\n        /* \"#utility.yul\":15803:15846   */\n      mstore\n        /* \"#utility.yul\":15686:15853   */\n      pop\n      jump\t// out\n        /* \"#utility.yul\":15859:16225   */\n    tag_234:\n        /* \"#utility.yul\":16001:16004   */\n      0x00\n        /* \"#utility.yul\":16022:16089   */\n      tag_399\n        /* \"#utility.yul\":16086:16088   */\n      0x11\n        /* \"#utility.yul\":16081:16084   */\n      dup4\n        /* \"#utility.yul\":16022:16089   */\n      tag_220\n      jump\t// in\n    tag_399:\n        /* \"#utility.yul\":16015:16089   */\n      swap2\n      pop\n        /* \"#utility.yul\":16098:16191   */\n      tag_400\n        /* \"#utility.yul\":16187:16190   */\n      dup3\n        /* \"#utility.yul\":16098:16191   */\n      tag_233\n      jump\t// in\n    tag_400:\n        /* \"#utility.yul\":16216:16218   */\n      0x20\n        /* \"#utility.yul\":16211:16214   */\n      dup3\n        /* \"#utility.yul\":16207:16219   */\n      add\n        /* \"#utility.yul\":16200:16219   */\n      swap1\n      pop\n        /* \"#utility.yul\":15859:16225   */\n      swap2\n      swap1\n      pop\n      jump\t// out\n        /* \"#utility.yul\":16231:16650   */\n    tag_140:\n        /* \"#utility.yul\":16397:16401   */\n      0x00\n        /* \"#utility.yul\":16435:16437   */\n      0x20\n        /* \"#utility.yul\":16424:16433   */\n      dup3\n        /* \"#utility.yul\":16420:16438   */\n      add\n        /* \"#utility.yul\":16412:16438   */\n      swap1\n      pop\n        /* \"#utility.yul\":16484:16493   */\n      dup2\n        /* \"#utility.yul\":16478:16482   */\n      dup2\n        /* \"#utility.yul\":16474:16494   */\n      sub\n        /* \"#utility.yul\":16470:16471   */\n      0x00\n        /* \"#utility.yul\":16459:16468   */\n      dup4\n        /* \"#utility.yul\":16455:16472   */\n      add\n        /* \"#utility.yul\":16448:16495   */\n      mstore\n        /* \"#utility.yul\":16512:16643   */\n      tag_402\n        /* \"#utility.yul\":16638:16642   */\n      dup2\n        /* \"#utility.yul\":16512:16643   */\n      tag_234\n      jump\t// in\n    tag_402:\n        /* \"#utility.yul\":16504:16643   */\n      swap1\n      pop\n        /* \"#utility.yul\":16231:16650   */\n      swap2\n      swap1\n      pop\n      jump\t// out\n        /* \"#utility.yul\":16656:16827   */\n    tag_235:\n        /* \"#utility.yul\":16796:16819   */\n      0x506179206578616374206c697374696e67206665650000000000000000000000\n        /* \"#utility.yul\":16792:16793   */\n      0x00\n        /* \"#utility.yul\":16784:16790   */\n      dup3\n        /* \"#utility.yul\":16780:16794   */\n      add\n        /* \"#utility.yul\":16773:16820   */\n      mstore\n        /* \"#utility.yul\":16656:16827   */\n      pop\n      jump\t// out\n        /* \"#utility.yul\":16833:17199   */\n    tag_236:\n        /* \"#utility.yul\":16975:16978   */\n      0x00\n        /* \"#utility.yul\":16996:17063   */\n      tag_405\n        /* \"#utility.yul\":17060:17062   */\n      0x15\n        /* \"#utility.yul\":17055:17058   */\n      dup4\n        /* \"#utility.yul\":16996:17063   */\n      tag_220\n      jump\t// in\n    tag_405:\n        /* \"#utility.yul\":16989:17063   */\n      swap2\n      pop\n        /* \"#utility.yul\":17072:17165   */\n      tag_406\n        /* \"#utility.yul\":17161:17164   */\n      dup3\n        /* \"#utility.yul\":17072:17165   */\n      tag_235\n      jump\t// in\n    tag_406:\n        /* \"#utility.yul\":17190:17192   */\n      0x20\n        /* \"#utility.yul\":17185:17188   */\n      dup3\n        /* \"#utility.yul\":17181:17193   */\n      add\n        /* \"#utility.yul\":17174:17193   */\n      swap1\n      pop\n        /* \"#utility.yul\":16833:17199   */\n      swap2\n      swap1\n      pop\n      jump\t// out\n        /* \"#utility.yul\":17205:17624   */\n    tag_143:\n        /* \"#utility.yul\":17371:17375   */\n      0x00\n        /* \"#utility.yul\":17409:17411   */\n      0x20\n        /* \"#utility.yul\":17398:17407   */\n      dup3\n        /* \"#utility.yul\":17394:17412   */\n      add\n        /* \"#utility.yul\":17386:17412   */\n      swap1\n      pop\n        /* \"#utility.yul\":17458:17467   */\n      dup2\n        /* \"#utility.yul\":17452:17456   */\n      dup2\n        /* \"#utility.yul\":17448:17468   */\n      sub\n        /* \"#utility.yul\":17444:17445   */\n      0x00\n        /* \"#utility.yul\":17433:17442   */\n      dup4\n        /* \"#utility.yul\":17429:17446   */\n      add\n        /* \"#utility.yul\":17422:17469   */\n      mstore\n        /* \"#utility.yul\":17486:17617   */\n      tag_408\n        /* \"#utility.yul\":17612:17616   */\n      dup2\n        /* \"#utility.yul\":17486:17617   */\n      tag_236\n      jump\t// in\n    tag_408:\n        /* \"#utility.yul\":17478:17617   */\n      swap1\n      pop\n        /* \"#utility.yul\":17205:17624   */\n      swap2\n      swap1\n      pop\n      jump\t// out\n        /* \"#utility.yul\":17630:17787   */\n    tag_237:\n        /* \"#utility.yul\":17770:17779   */\n      0x4d61782031302500000000000000000000000000000000000000000000000000\n        /* \"#utility.yul\":17766:17767   */\n      0x00\n        /* \"#utility.yul\":17758:17764   */\n      dup3\n        /* \"#utility.yul\":17754:17768   */\n      add\n        /* \"#utility.yul\":17747:17780   */\n      mstore\n        /* \"#utility.yul\":17630:17787   */\n      pop\n      jump\t// out\n        /* \"#utility.yul\":17793:18158   */\n    tag_238:\n        /* \"#utility.yul\":17935:17938   */\n      0x00\n        /* \"#utility.yul\":17956:18022   */\n      tag_411\n        /* \"#utility.yul\":18020:18021   */\n      0x07\n        /* \"#utility.yul\":18015:18018   */\n      dup4\n        /* \"#utility.yul\":17956:18022   */\n      tag_220\n      jump\t// in\n    tag_411:\n        /* \"#utility.yul\":17949:18022   */\n      swap2\n      pop\n        /* \"#utility.yul\":18031:18124   */\n      tag_412\n        /* \"#utility.yul\":18120:18123   */\n      dup3\n        /* \"#utility.yul\":18031:18124   */\n      tag_237\n      jump\t// in\n    tag_412:\n        /* \"#utility.yul\":18149:18151   */\n      0x20\n        /* \"#utility.yul\":18144:18147   */\n      dup3\n        /* \"#utility.yul\":18140:18152   */\n      add\n        /* \"#utility.yul\":18133:18152   */\n      swap1\n      pop\n        /* \"#utility.yul\":17793:18158   */\n      swap2\n      swap1\n      pop\n      jump\t// out\n        /* \"#utility.yul\":18164:18583   */\n    tag_160:\n        /* \"#utility.yul\":18330:18334   */\n      0x00\n        /* \"#utility.yul\":18368:18370   */\n      0x20\n        /* \"#utility.yul\":18357:18366   */\n      dup3\n        /* \"#utility.yul\":18353:18371   */\n      add\n        /* \"#utility.yul\":18345:18371   */\n      swap1\n      pop\n        /* \"#utility.yul\":18417:18426   */\n      dup2\n        /* \"#utility.yul\":18411:18415   */\n      dup2\n        /* \"#utility.yul\":18407:18427   */\n      sub\n        /* \"#utility.yul\":18403:18404   */\n      0x00\n        /* \"#utility.yul\":18392:18401   */\n      dup4\n        /* \"#utility.yul\":18388:18405   */\n      add\n        /* \"#utility.yul\":18381:18428   */\n      mstore\n        /* \"#utility.yul\":18445:18576   */\n      tag_414\n        /* \"#utility.yul\":18571:18575   */\n      dup2\n        /* \"#utility.yul\":18445:18576   */\n      tag_238\n      jump\t// in\n    tag_414:\n        /* \"#utility.yul\":18437:18576   */\n      swap1\n      pop\n        /* \"#utility.yul\":18164:18583   */\n      swap2\n      swap1\n      pop\n      jump\t// out\n        /* \"#utility.yul\":18589:18754   */\n    tag_239:\n        /* \"#utility.yul\":18729:18746   */\n      0x496e76616c69642063726561746f720000000000000000000000000000000000\n        /* \"#utility.yul\":18725:18726   */\n      0x00\n        /* \"#utility.yul\":18717:18723   */\n      dup3\n        /* \"#utility.yul\":18713:18727   */\n      add\n        /* \"#utility.yul\":18706:18747   */\n      mstore\n        /* \"#utility.yul\":18589:18754   */\n      pop\n      jump\t// out\n        /* \"#utility.yul\":18760:19126   */\n    tag_240:\n        /* \"#utility.yul\":18902:18905   */\n      0x00\n        /* \"#utility.yul\":18923:18990   */\n      tag_417\n        /* \"#utility.yul\":18987:18989   */\n      0x0f\n        /* \"#utility.yul\":18982:18985   */\n      dup4\n        /* \"#utility.yul\":18923:18990   */\n      tag_220\n      jump\t// in\n    tag_417:\n        /* \"#utility.yul\":18916:18990   */\n      swap2\n      pop\n        /* \"#utility.yul\":18999:19092   */\n      tag_418\n        /* \"#utility.yul\":19088:19091   */\n      dup3\n        /* \"#utility.yul\":18999:19092   */\n      tag_239\n      jump\t// in\n    tag_418:\n        /* \"#utility.yul\":19117:19119   */\n      0x20\n        /* \"#utility.yul\":19112:19115   */\n      dup3\n        /* \"#utility.yul\":19108:19120   */\n      add\n        /* \"#utility.yul\":19101:19120   */\n      swap1\n      pop\n        /* \"#utility.yul\":18760:19126   */\n      swap2\n      swap1\n      pop\n      jump\t// out\n        /* \"#utility.yul\":19132:19551   */\n    tag_163:\n        /* \"#utility.yul\":19298:19302   */\n      0x00\n        /* \"#utility.yul\":19336:19338   */\n      0x20\n        /* \"#utility.yul\":19325:19334   */\n      dup3\n        /* \"#utility.yul\":19321:19339   */\n      add\n        /* \"#utility.yul\":19313:19339   */\n      swap1\n      pop\n        /* \"#utility.yul\":19385:19394   */\n      dup2\n        /* \"#utility.yul\":19379:19383   */\n      dup2\n        /* \"#utility.yul\":19375:19395   */\n      sub\n        /* \"#utility.yul\":19371:19372   */\n      0x00\n        /* \"#utility.yul\":19360:19369   */\n      dup4\n        /* \"#utility.yul\":19356:19373   */\n      add\n        /* \"#utility.yul\":19349:19396   */\n      mstore\n        /* \"#utility.yul\":19413:19544   */\n      tag_420\n        /* \"#utility.yul\":19539:19543   */\n      dup2\n        /* \"#utility.yul\":19413:19544   */\n      tag_240\n      jump\t// in\n    tag_420:\n        /* \"#utility.yul\":19405:19544   */\n      swap1\n      pop\n        /* \"#utility.yul\":19132:19551   */\n      swap2\n      swap1\n      pop\n      jump\t// out\n        /* \"#utility.yul\":19557:19775   */\n    tag_165:\n        /* \"#utility.yul\":19648:19652   */\n      0x00\n        /* \"#utility.yul\":19686:19688   */\n      0x20\n        /* \"#utility.yul\":19675:19684   */\n      dup3\n        /* \"#utility.yul\":19671:19689   */\n      add\n        /* \"#utility.yul\":19663:19689   */\n      swap1\n      pop\n        /* \"#utility.yul\":19699:19768   */\n      tag_422\n        /* \"#utility.yul\":19765:19766   */\n      0x00\n        /* \"#utility.yul\":19754:19763   */\n      dup4\n        /* \"#utility.yul\":19750:19767   */\n      add\n        /* \"#utility.yul\":19741:19747   */\n      dup5\n        /* \"#utility.yul\":19699:19768   */\n      tag_215\n      jump\t// in\n    tag_422:\n        /* \"#utility.yul\":19557:19775   */\n      swap3\n      swap2\n      pop\n      pop\n      jump\t// out\n        /* \"#utility.yul\":19781:19962   */\n    tag_241:\n        /* \"#utility.yul\":19921:19954   */\n      0x5265656e7472616e637947756172643a207265656e7472616e742063616c6c00\n        /* \"#utility.yul\":19917:19918   */\n      0x00\n        /* \"#utility.yul\":19909:19915   */\n      dup3\n        /* \"#utility.yul\":19905:19919   */\n      add\n        /* \"#utility.yul\":19898:19955   */\n      mstore\n        /* \"#utility.yul\":19781:19962   */\n      pop\n      jump\t// out\n        /* \"#utility.yul\":19968:20334   */\n    tag_242:\n        /* \"#utility.yul\":20110:20113   */\n      0x00\n        /* \"#utility.yul\":20131:20198   */\n      tag_425\n        /* \"#utility.yul\":20195:20197   */\n      0x1f\n        /* \"#utility.yul\":20190:20193   */\n      dup4\n        /* \"#utility.yul\":20131:20198   */\n      tag_220\n      jump\t// in\n    tag_425:\n        /* \"#utility.yul\":20124:20198   */\n      swap2\n      pop\n        /* \"#utility.yul\":20207:20300   */\n      tag_426\n        /* \"#utility.yul\":20296:20299   */\n      dup3\n        /* \"#utility.yul\":20207:20300   */\n      tag_241\n      jump\t// in\n    tag_426:\n        /* \"#utility.yul\":20325:20327   */\n      0x20\n        /* \"#utility.yul\":20320:20323   */\n      dup3\n        /* \"#utility.yul\":20316:20328   */\n      add\n        /* \"#utility.yul\":20309:20328   */\n      swap1\n      pop\n        /* \"#utility.yul\":19968:20334   */\n      swap2\n      swap1\n      pop\n      jump\t// out\n        /* \"#utility.yul\":20340:20759   */\n    tag_174:\n        /* \"#utility.yul\":20506:20510   */\n      0x00\n        /* \"#utility.yul\":20544:20546   */\n      0x20\n        /* \"#utility.yul\":20533:20542   */\n      dup3\n        /* \"#utility.yul\":20529:20547   */\n      add\n        /* \"#utility.yul\":20521:20547   */\n      swap1\n      pop\n        /* \"#utility.yul\":20593:20602   */\n      dup2\n        /* \"#utility.yul\":20587:20591   */\n      dup2\n        /* \"#utility.yul\":20583:20603   */\n      sub\n        /* \"#utility.yul\":20579:20580   */\n      0x00\n        /* \"#utility.yul\":20568:20577   */\n      dup4\n        /* \"#utility.yul\":20564:20581   */\n      add\n        /* \"#utility.yul\":20557:20604   */\n      mstore\n        /* \"#utility.yul\":20621:20752   */\n      tag_428\n        /* \"#utility.yul\":20747:20751   */\n      dup2\n        /* \"#utility.yul\":20621:20752   */\n      tag_242\n      jump\t// in\n    tag_428:\n        /* \"#utility.yul\":20613:20752   */\n      swap1\n      pop\n        /* \"#utility.yul\":20340:20759   */\n      swap2\n      swap1\n      pop\n      jump\t// out\n        /* \"#utility.yul\":20765:21097   */\n    tag_179:\n        /* \"#utility.yul\":20886:20890   */\n      0x00\n        /* \"#utility.yul\":20924:20926   */\n      0x40\n        /* \"#utility.yul\":20913:20922   */\n      dup3\n        /* \"#utility.yul\":20909:20927   */\n      add\n        /* \"#utility.yul\":20901:20927   */\n      swap1\n      pop\n        /* \"#utility.yul\":20937:21008   */\n      tag_430\n        /* \"#utility.yul\":21005:21006   */\n      0x00\n        /* \"#utility.yul\":20994:21003   */\n      dup4\n        /* \"#utility.yul\":20990:21007   */\n      add\n        /* \"#utility.yul\":20981:20987   */\n      dup6\n        /* \"#utility.yul\":20937:21008   */\n      tag_208\n      jump\t// in\n    tag_430:\n        /* \"#utility.yul\":21018:21090   */\n      tag_431\n        /* \"#utility.yul\":21086:21088   */\n      0x20\n        /* \"#utility.yul\":21075:21084   */\n      dup4\n        /* \"#utility.yul\":21071:21089   */\n      add\n        /* \"#utility.yul\":21062:21068   */\n      dup5\n        /* \"#utility.yul\":21018:21090   */\n      tag_208\n      jump\t// in\n    tag_431:\n        /* \"#utility.yul\":20765:21097   */\n      swap4\n      swap3\n      pop\n      pop\n      pop\n      jump\t// out\n        /* \"#utility.yul\":21103:21250   */\n    tag_243:\n        /* \"#utility.yul\":21204:21215   */\n      0x00\n        /* \"#utility.yul\":21241:21244   */\n      dup2\n        /* \"#utility.yul\":21226:21244   */\n      swap1\n      pop\n        /* \"#utility.yul\":21103:21250   */\n      swap3\n      swap2\n      pop\n      pop\n      jump\t// out\n        /* \"#utility.yul\":21256:21370   */\n    tag_244:\n      pop\n      jump\t// out\n        /* \"#utility.yul\":21376:21774   */\n    tag_245:\n        /* \"#utility.yul\":21535:21538   */\n      0x00\n        /* \"#utility.yul\":21556:21639   */\n      tag_435\n        /* \"#utility.yul\":21637:21638   */\n      0x00\n        /* \"#utility.yul\":21632:21635   */\n      dup4\n        /* \"#utility.yul\":21556:21639   */\n      tag_243\n      jump\t// in\n    tag_435:\n        /* \"#utility.yul\":21549:21639   */\n      swap2\n      pop\n        /* \"#utility.yul\":21648:21741   */\n      tag_436\n        /* \"#utility.yul\":21737:21740   */\n      dup3\n        /* \"#utility.yul\":21648:21741   */\n      tag_244\n      jump\t// in\n    tag_436:\n        /* \"#utility.yul\":21766:21767   */\n      0x00\n        /* \"#utility.yul\":21761:21764   */\n      dup3\n        /* \"#utility.yul\":21757:21768   */\n      add\n        /* \"#utility.yul\":21750:21768   */\n      swap1\n      pop\n        /* \"#utility.yul\":21376:21774   */\n      swap2\n      swap1\n      pop\n      jump\t// out\n        /* \"#utility.yul\":21780:22159   */\n    tag_181:\n        /* \"#utility.yul\":21964:21967   */\n      0x00\n        /* \"#utility.yul\":21986:22133   */\n      tag_438\n        /* \"#utility.yul\":22129:22132   */\n      dup3\n        /* \"#utility.yul\":21986:22133   */\n      tag_245\n      jump\t// in\n    tag_438:\n        /* \"#utility.yul\":21979:22133   */\n      swap2\n      pop\n        /* \"#utility.yul\":22150:22153   */\n      dup2\n        /* \"#utility.yul\":22143:22153   */\n      swap1\n      pop\n        /* \"#utility.yul\":21780:22159   */\n      swap2\n      swap1\n      pop\n      jump\t// out\n\n    auxdata: 0xa264697066735822122063aa0f3ca819383382759d9797e9538c36ad4931669d8e4d73c717036e7dbd6f64736f6c634300081e0033\n}\n",
				"bytecode": {
					"linkReferences": {},
					"object": "608060405266071afd498d00006005553480156019575f5ffd5b5060015f819055503360065f6101000a81548173ffffffffffffffffffffffffffffffffffffffff021916908373ffffffffffffffffffffffffffffffffffffffff160217905550611ded8061006e5f395ff3fe6080604052600436106100aa575f3560e01c8063ad05f1b411610063578063ad05f1b41461019f578063de74e57b146101bb578063e1e549c4146101fc578063e91b272a14610239578063f109c68114610263578063f79d91ae1461028b576100b1565b8063107a274a146100b5578063305a67a8146100f1578063476343ee1461011957806351ed82881461012f5780636a1b7ecc1461014b5780638da5cb5b14610175576100b1565b366100b157005b5f5ffd5b3480156100c0575f5ffd5b506100db60048036038101906100d691906113ed565b6102b3565b6040516100e89190611519565b60405180910390f35b3480156100fc575f5ffd5b50610117600480360381019061011291906113ed565b6103bf565b005b348015610124575f5ffd5b5061012d61060e565b005b610149600480360381019061014491906113ed565b610740565b005b348015610156575f5ffd5b5061015f610b03565b60405161016c9190611541565b60405180910390f35b348015610180575f5ffd5b50610189610b09565b6040516101969190611569565b60405180910390f35b6101b960048036038101906101b491906115ac565b610b2e565b005b3480156101c6575f5ffd5b506101e160048036038101906101dc91906113ed565b610dd3565b6040516101f39695949392919061161a565b60405180910390f35b348015610207575f5ffd5b50610222600480360381019061021d9190611679565b610e55565b6040516102309291906116dd565b60405180910390f35b348015610244575f5ffd5b5061024d610eb6565b60405161025a9190611541565b60405180910390f35b34801561026e575f5ffd5b5061028960048036038101906102849190611758565b610eda565b005b348015610296575f5ffd5b506102b160048036038101906102ac91906113ed565b611109565b005b6102bb611358565b60035f8381526020019081526020015f206040518060c00160405290815f8201548152602001600182015f9054906101000a900473ffffffffffffffffffffffffffffffffffffffff1673ffffffffffffffffffffffffffffffffffffffff1673ffffffffffffffffffffffffffffffffffffffff16815260200160028201548152602001600382015f9054906101000a900473ffffffffffffffffffffffffffffffffffffffff1673ffffffffffffffffffffffffffffffffffffffff1673ffffffffffffffffffffffffffffffffffffffff16815260200160048201548152602001600582015f9054906101000a900460ff1615151515815250509050919050565b6103c76111d9565b5f60035f8381526020019081526020015f2090503373ffffffffffffffffffffffffffffffffffffffff16816003015f9054906101000a900473ffffffffffffffffffffffffffffffffffffffff1673ffffffffffffffffffffffffffffffffffffffff161461046c576040517f08c379a000000000000000000000000000000000000000000000000000000000815260040161046390611816565b60405180910390fd5b806005015f9054906101000a900460ff16156104bd576040517f08c379a00000000000000000000000000000000000000000000000000000000081526004016104b49061187e565b60405180910390fd5b806001015f9054906101000a900473ffffffffffffffffffffffffffffffffffffffff1673ffffffffffffffffffffffffffffffffffffffff166323b872dd303384600201546040518463ffffffff1660e01b81526004016105219392919061189c565b5f604051808303815f87803b158015610538575f5ffd5b505af115801561054a573d5f5f3e3d5ffd5b5050505060035f8381526020019081526020015f205f5f82015f9055600182015f6101000a81549073ffffffffffffffffffffffffffffffffffffffff0219169055600282015f9055600382015f6101000a81549073ffffffffffffffffffffffffffffffffffffffff0219169055600482015f9055600582015f6101000a81549060ff02191690555050817f829a8683c544ad289ce92d3ce06e9ebad69b18a6916e60ec766c2c217461d8e960405160405180910390a25061060b611226565b50565b60065f9054906101000a900473ffffffffffffffffffffffffffffffffffffffff1673ffffffffffffffffffffffffffffffffffffffff163373ffffffffffffffffffffffffffffffffffffffff161461069d576040517f08c379a00000000000000000000000000000000000000000000000000000000081526004016106949061191b565b60405180910390fd5b6106a56111d9565b5f4790505f81116106eb576040517f08c379a00000000000000000000000000000000000000000000000000000000081526004016106e290611983565b60405180910390fd5b6107358160065f9054906101000a900473ffffffffffffffffffffffffffffffffffffffff1673ffffffffffffffffffffffffffffffffffffffff1661122f90919063ffffffff16565b5061073e611226565b565b6107486111d9565b5f60035f8381526020019081526020015f209050806005015f9054906101000a900460ff16156107ad576040517f08c379a00000000000000000000000000000000000000000000000000000000081526004016107a49061187e565b60405180910390fd5b80600401543410156107f4576040517f08c379a00000000000000000000000000000000000000000000000000000000081526004016107eb906119eb565b60405180910390fd5b6001816005015f6101000a81548160ff02191690831515021790555061081a60026112f5565b5f60045f836001015f9054906101000a900473ffffffffffffffffffffffffffffffffffffffff1673ffffffffffffffffffffffffffffffffffffffff1673ffffffffffffffffffffffffffffffffffffffff1681526020019081526020015f205f836002015481526020019081526020015f206040518060400160405290815f82015f9054906101000a900473ffffffffffffffffffffffffffffffffffffffff1673ffffffffffffffffffffffffffffffffffffffff1673ffffffffffffffffffffffffffffffffffffffff1681526020015f820160149054906101000a90046bffffffffffffffffffffffff166bffffffffffffffffffffffff166bffffffffffffffffffffffff168152505090505f61271082602001516bffffffffffffffffffffffff163461094e9190611a36565b6109589190611aa4565b90505f81346109679190611ad4565b90505f73ffffffffffffffffffffffffffffffffffffffff16835f015173ffffffffffffffffffffffffffffffffffffffff16141580156109a757505f82115b156109d9576109d882845f015173ffffffffffffffffffffffffffffffffffffffff1661122f90919063ffffffff16565b5b610a2581856003015f9054906101000a900473ffffffffffffffffffffffffffffffffffffffff1673ffffffffffffffffffffffffffffffffffffffff1661122f90919063ffffffff16565b836001015f9054906101000a900473ffffffffffffffffffffffffffffffffffffffff1673ffffffffffffffffffffffffffffffffffffffff166323b872dd303387600201546040518463ffffffff1660e01b8152600401610a899392919061189c565b5f604051808303815f87803b158015610aa0575f5ffd5b505af1158015610ab2573d5f5f3e3d5ffd5b50505050847fc0e076a004e59b819c1099b4799386d7feaa928662e5f3f95af4db1a1502520d338660040154604051610aec929190611b07565b60405180910390a250505050610b00611226565b50565b60055481565b60065f9054906101000a900473ffffffffffffffffffffffffffffffffffffffff1681565b610b366111d9565b5f8111610b78576040517f08c379a0000000000000000000000000000000000000000000000000000000008152600401610b6f90611b78565b60405180910390fd5b6005543414610bbc576040517f08c379a0000000000000000000000000000000000000000000000000000000008152600401610bb390611be0565b60405180910390fd5b610bc660016112f5565b5f610bd16001611309565b90506040518060c001604052808281526020018573ffffffffffffffffffffffffffffffffffffffff1681526020018481526020013373ffffffffffffffffffffffffffffffffffffffff1681526020018381526020015f151581525060035f8381526020019081526020015f205f820151815f01556020820151816001015f6101000a81548173ffffffffffffffffffffffffffffffffffffffff021916908373ffffffffffffffffffffffffffffffffffffffff160217905550604082015181600201556060820151816003015f6101000a81548173ffffffffffffffffffffffffffffffffffffffff021916908373ffffffffffffffffffffffffffffffffffffffff1602179055506080820151816004015560a0820151816005015f6101000a81548160ff0219169083151502179055509050508373ffffffffffffffffffffffffffffffffffffffff166323b872dd3330866040518463ffffffff1660e01b8152600401610d469392919061189c565b5f604051808303815f87803b158015610d5d575f5ffd5b505af1158015610d6f573d5f5f3e3d5ffd5b50505050828473ffffffffffffffffffffffffffffffffffffffff16827f9791797c382de5e73cc7c32c32ffd8304e9b9cc1f6afd967990c1edd0729dba93386604051610dbd929190611b07565b60405180910390a450610dce611226565b505050565b6003602052805f5260405f205f91509050805f015490806001015f9054906101000a900473ffffffffffffffffffffffffffffffffffffffff1690806002015490806003015f9054906101000a900473ffffffffffffffffffffffffffffffffffffffff1690806004015490806005015f9054906101000a900460ff16905086565b6004602052815f5260405f20602052805f5260405f205f9150915050805f015f9054906101000a900473ffffffffffffffffffffffffffffffffffffffff1690805f0160149054906101000a90046bffffffffffffffffffffffff16905082565b5f610ec16002611309565b610ecb6001611309565b610ed59190611ad4565b905090565b6103e8816bffffffffffffffffffffffff161115610f2d576040517f08c379a0000000000000000000000000000000000000000000000000000000008152600401610f2490611c48565b60405180910390fd5b5f73ffffffffffffffffffffffffffffffffffffffff168273ffffffffffffffffffffffffffffffffffffffff1603610f9b576040517f08c379a0000000000000000000000000000000000000000000000000000000008152600401610f9290611cb0565b60405180910390fd5b60405180604001604052808373ffffffffffffffffffffffffffffffffffffffff168152602001826bffffffffffffffffffffffff1681525060045f8673ffffffffffffffffffffffffffffffffffffffff1673ffffffffffffffffffffffffffffffffffffffff1681526020019081526020015f205f8581526020019081526020015f205f820151815f015f6101000a81548173ffffffffffffffffffffffffffffffffffffffff021916908373ffffffffffffffffffffffffffffffffffffffff1602179055506020820151815f0160146101000a8154816bffffffffffffffffffffffff02191690836bffffffffffffffffffffffff1602179055509050508173ffffffffffffffffffffffffffffffffffffffff16838573ffffffffffffffffffffffffffffffffffffffff167fb99d8eeff1e9bb56821a5e841b152bb119d760f07fe30c53cf37b36931587d6f846040516110fb9190611cce565b60405180910390a450505050565b60065f9054906101000a900473ffffffffffffffffffffffffffffffffffffffff1673ffffffffffffffffffffffffffffffffffffffff163373ffffffffffffffffffffffffffffffffffffffff1614611198576040517f08c379a000000000000000000000000000000000000000000000000000000000815260040161118f9061191b565b60405180910390fd5b806005819055507f5fb4654f1efe30c6141eaa6855ffcb27e0b361d899b05e21b1a4d0b3e71e14db816040516111ce9190611541565b60405180910390a150565b60025f540361121d576040517f08c379a000000000000000000000000000000000000000000000000000000000815260040161121490611d31565b60405180910390fd5b60025f81905550565b60015f81905550565b804710156112765747816040517fcf47918100000000000000000000000000000000000000000000000000000000815260040161126d929190611d4f565b60405180910390fd5b5f5f8373ffffffffffffffffffffffffffffffffffffffff168360405161129c90611da3565b5f6040518083038185875af1925050503d805f81146112d6576040519150601f19603f3d011682016040523d82523d5f602084013e6112db565b606091505b5091509150816112ef576112ee81611315565b5b50505050565b6001815f015f828254019250508190555050565b5f815f01549050919050565b5f8151111561132657805160208201fd5b6040517fd6bda27500000000000000000000000000000000000000000000000000000000815260040160405180910390fd5b6040518060c001604052805f81526020015f73ffffffffffffffffffffffffffffffffffffffff1681526020015f81526020015f73ffffffffffffffffffffffffffffffffffffffff1681526020015f81526020015f151581525090565b5f5ffd5b5f819050919050565b6113cc816113ba565b81146113d6575f5ffd5b50565b5f813590506113e7816113c3565b92915050565b5f60208284031215611402576114016113b6565b5b5f61140f848285016113d9565b91505092915050565b611421816113ba565b82525050565b5f73ffffffffffffffffffffffffffffffffffffffff82169050919050565b5f61145082611427565b9050919050565b61146081611446565b82525050565b5f61147082611427565b9050919050565b61148081611466565b82525050565b5f8115159050919050565b61149a81611486565b82525050565b60c082015f8201516114b45f850182611418565b5060208201516114c76020850182611457565b5060408201516114da6040850182611418565b5060608201516114ed6060850182611477565b5060808201516115006080850182611418565b5060a082015161151360a0850182611491565b50505050565b5f60c08201905061152c5f8301846114a0565b92915050565b61153b816113ba565b82525050565b5f6020820190506115545f830184611532565b92915050565b61156381611466565b82525050565b5f60208201905061157c5f83018461155a565b92915050565b61158b81611446565b8114611595575f5ffd5b50565b5f813590506115a681611582565b92915050565b5f5f5f606084860312156115c3576115c26113b6565b5b5f6115d086828701611598565b93505060206115e1868287016113d9565b92505060406115f2868287016113d9565b9150509250925092565b61160581611446565b82525050565b61161481611486565b82525050565b5f60c08201905061162d5f830189611532565b61163a60208301886115fc565b6116476040830187611532565b611654606083018661155a565b6116616080830185611532565b61166e60a083018461160b565b979650505050505050565b5f5f6040838503121561168f5761168e6113b6565b5b5f61169c85828601611598565b92505060206116ad858286016113d9565b9150509250929050565b5f6bffffffffffffffffffffffff82169050919050565b6116d7816116b7565b82525050565b5f6040820190506116f05f83018561155a565b6116fd60208301846116ce565b9392505050565b61170d81611466565b8114611717575f5ffd5b50565b5f8135905061172881611704565b92915050565b611737816116b7565b8114611741575f5ffd5b50565b5f813590506117528161172e565b92915050565b5f5f5f5f608085870312156117705761176f6113b6565b5b5f61177d87828801611598565b945050602061178e878288016113d9565b935050604061179f8782880161171a565b92505060606117b087828801611744565b91505092959194509250565b5f82825260208201905092915050565b7f4e6f7420796f7572206c697374696e67000000000000000000000000000000005f82015250565b5f6118006010836117bc565b915061180b826117cc565b602082019050919050565b5f6020820190508181035f83015261182d816117f4565b9050919050565b7f416c726561647920736f6c6400000000000000000000000000000000000000005f82015250565b5f611868600c836117bc565b915061187382611834565b602082019050919050565b5f6020820190508181035f8301526118958161185c565b9050919050565b5f6060820190506118af5f8301866115fc565b6118bc60208301856115fc565b6118c96040830184611532565b949350505050565b7f4e6f74206d61726b6574706c616365206f776e657200000000000000000000005f82015250565b5f6119056015836117bc565b9150611910826118d1565b602082019050919050565b5f6020820190508181035f830152611932816118f9565b9050919050565b7f4e6f2066756e64730000000000000000000000000000000000000000000000005f82015250565b5f61196d6008836117bc565b915061197882611939565b602082019050919050565b5f6020820190508181035f83015261199a81611961565b9050919050565b7f496e73756666696369656e74207061796d656e740000000000000000000000005f82015250565b5f6119d56014836117bc565b91506119e0826119a1565b602082019050919050565b5f6020820190508181035f830152611a02816119c9565b9050919050565b7f4e487b71000000000000000000000000000000000000000000000000000000005f52601160045260245ffd5b5f611a40826113ba565b9150611a4b836113ba565b9250828202611a59816113ba565b91508282048414831517611a7057611a6f611a09565b5b5092915050565b7f4e487b71000000000000000000000000000000000000000000000000000000005f52601260045260245ffd5b5f611aae826113ba565b9150611ab9836113ba565b925082611ac957611ac8611a77565b5b828204905092915050565b5f611ade826113ba565b9150611ae9836113ba565b9250828203905081811115611b0157611b00611a09565b5b92915050565b5f604082019050611b1a5f8301856115fc565b611b276020830184611532565b9392505050565b7f5072696365206d757374206265203e20300000000000000000000000000000005f82015250565b5f611b626011836117bc565b9150611b6d82611b2e565b602082019050919050565b5f6020820190508181035f830152611b8f81611b56565b9050919050565b7f506179206578616374206c697374696e672066656500000000000000000000005f82015250565b5f611bca6015836117bc565b9150611bd582611b96565b602082019050919050565b5f6020820190508181035f830152611bf781611bbe565b9050919050565b7f4d617820313025000000000000000000000000000000000000000000000000005f82015250565b5f611c326007836117bc565b9150611c3d82611bfe565b602082019050919050565b5f6020820190508181035f830152611c5f81611c26565b9050919050565b7f496e76616c69642063726561746f7200000000000000000000000000000000005f82015250565b5f611c9a600f836117bc565b9150611ca582611c66565b602082019050919050565b5f6020820190508181035f830152611cc781611c8e565b9050919050565b5f602082019050611ce15f8301846116ce565b92915050565b7f5265656e7472616e637947756172643a207265656e7472616e742063616c6c005f82015250565b5f611d1b601f836117bc565b9150611d2682611ce7565b602082019050919050565b5f6020820190508181035f830152611d4881611d0f565b9050919050565b5f604082019050611d625f830185611532565b611d6f6020830184611532565b9392505050565b5f81905092915050565b50565b5f611d8e5f83611d76565b9150611d9982611d80565b5f82019050919050565b5f611dad82611d83565b915081905091905056fea264697066735822122063aa0f3ca819383382759d9797e9538c36ad4931669d8e4d73c717036e7dbd6f64736f6c634300081e0033",
					"opcodes": "PUSH1 0x80 PUSH1 0x40 MSTORE PUSH7 0x71AFD498D0000 PUSH1 0x5 SSTORE CALLVALUE DUP1 ISZERO PUSH1 0x19 JUMPI PUSH0 PUSH0 REVERT JUMPDEST POP PUSH1 0x1 PUSH0 DUP2 SWAP1 SSTORE POP CALLER PUSH1 0x6 PUSH0 PUSH2 0x100 EXP DUP2 SLOAD DUP2 PUSH20 0xFFFFFFFFFFFFFFFFFFFFFFFFFFFFFFFFFFFFFFFF MUL NOT AND SWAP1 DUP4 PUSH20 0xFFFFFFFFFFFFFFFFFFFFFFFFFFFFFFFFFFFFFFFF AND MUL OR SWAP1 SSTORE POP PUSH2 0x1DED DUP1 PUSH2 0x6E PUSH0 CODECOPY PUSH0 RETURN INVALID PUSH1 0x80 PUSH1 0x40 MSTORE PUSH1 0x4 CALLDATASIZE LT PUSH2 0xAA JUMPI PUSH0 CALLDATALOAD PUSH1 0xE0 SHR DUP1 PUSH4 0xAD05F1B4 GT PUSH2 0x63 JUMPI DUP1 PUSH4 0xAD05F1B4 EQ PUSH2 0x19F JUMPI DUP1 PUSH4 0xDE74E57B EQ PUSH2 0x1BB JUMPI DUP1 PUSH4 0xE1E549C4 EQ PUSH2 0x1FC JUMPI DUP1 PUSH4 0xE91B272A EQ PUSH2 0x239 JUMPI DUP1 PUSH4 0xF109C681 EQ PUSH2 0x263 JUMPI DUP1 PUSH4 0xF79D91AE EQ PUSH2 0x28B JUMPI PUSH2 0xB1 JUMP JUMPDEST DUP1 PUSH4 0x107A274A EQ PUSH2 0xB5 JUMPI DUP1 PUSH4 0x305A67A8 EQ PUSH2 0xF1 JUMPI DUP1 PUSH4 0x476343EE EQ PUSH2 0x119 JUMPI DUP1 PUSH4 0x51ED8288 EQ PUSH2 0x12F JUMPI DUP1 PUSH4 0x6A1B7ECC EQ PUSH2 0x14B JUMPI DUP1 PUSH4 0x8DA5CB5B EQ PUSH2 0x175 JUMPI PUSH2 0xB1 JUMP JUMPDEST CALLDATASIZE PUSH2 0xB1 JUMPI STOP JUMPDEST PUSH0 PUSH0 REVERT JUMPDEST CALLVALUE DUP1 ISZERO PUSH2 0xC0 JUMPI PUSH0 PUSH0 REVERT JUMPDEST POP PUSH2 0xDB PUSH1 0x4 DUP1 CALLDATASIZE SUB DUP2 ADD SWAP1 PUSH2 0xD6 SWAP2 SWAP1 PUSH2 0x13ED JUMP JUMPDEST PUSH2 0x2B3 JUMP JUMPDEST PUSH1 0x40 MLOAD PUSH2 0xE8 SWAP2 SWAP1 PUSH2 0x1519 JUMP JUMPDEST PUSH1 0x40 MLOAD DUP1 SWAP2 SUB SWAP1 RETURN JUMPDEST CALLVALUE DUP1 ISZERO PUSH2 0xFC JUMPI PUSH0 PUSH0 REVERT JUMPDEST POP PUSH2 0x117 PUSH1 0x4 DUP1 CALLDATASIZE SUB DUP2 ADD SWAP1 PUSH2 0x112 SWAP2 SWAP1 PUSH2 0x13ED JUMP JUMPDEST PUSH2 0x3BF JUMP JUMPDEST STOP JUMPDEST CALLVALUE DUP1 ISZERO PUSH2 0x124 JUMPI PUSH0 PUSH0 REVERT JUMPDEST POP PUSH2 0x12D PUSH2 0x60E JUMP JUMPDEST STOP JUMPDEST PUSH2 0x149 PUSH1 0x4 DUP1 CALLDATASIZE SUB DUP2 ADD SWAP1 PUSH2 0x144 SWAP2 SWAP1 PUSH2 0x13ED JUMP JUMPDEST PUSH2 0x740 JUMP JUMPDEST STOP JUMPDEST CALLVALUE DUP1 ISZERO PUSH2 0x156 JUMPI PUSH0 PUSH0 REVERT JUMPDEST POP PUSH2 0x15F PUSH2 0xB03 JUMP JUMPDEST PUSH1 0x40 MLOAD PUSH2 0x16C SWAP2 SWAP1 PUSH2 0x1541 JUMP JUMPDEST PUSH1 0x40 MLOAD DUP1 SWAP2 SUB SWAP1 RETURN JUMPDEST CALLVALUE DUP1 ISZERO PUSH2 0x180 JUMPI PUSH0 PUSH0 REVERT JUMPDEST POP PUSH2 0x189 PUSH2 0xB09 JUMP JUMPDEST PUSH1 0x40 MLOAD PUSH2 0x196 SWAP2 SWAP1 PUSH2 0x1569 JUMP JUMPDEST PUSH1 0x40 MLOAD DUP1 SWAP2 SUB SWAP1 RETURN JUMPDEST PUSH2 0x1B9 PUSH1 0x4 DUP1 CALLDATASIZE SUB DUP2 ADD SWAP1 PUSH2 0x1B4 SWAP2 SWAP1 PUSH2 0x15AC JUMP JUMPDEST PUSH2 0xB2E JUMP JUMPDEST STOP JUMPDEST CALLVALUE DUP1 ISZERO PUSH2 0x1C6 JUMPI PUSH0 PUSH0 REVERT JUMPDEST POP PUSH2 0x1E1 PUSH1 0x4 DUP1 CALLDATASIZE SUB DUP2 ADD SWAP1 PUSH2 0x1DC SWAP2 SWAP1 PUSH2 0x13ED JUMP JUMPDEST PUSH2 0xDD3 JUMP JUMPDEST PUSH1 0x40 MLOAD PUSH2 0x1F3 SWAP7 SWAP6 SWAP5 SWAP4 SWAP3 SWAP2 SWAP1 PUSH2 0x161A JUMP JUMPDEST PUSH1 0x40 MLOAD DUP1 SWAP2 SUB SWAP1 RETURN JUMPDEST CALLVALUE DUP1 ISZERO PUSH2 0x207 JUMPI PUSH0 PUSH0 REVERT JUMPDEST POP PUSH2 0x222 PUSH1 0x4 DUP1 CALLDATASIZE SUB DUP2 ADD SWAP1 PUSH2 0x21D SWAP2 SWAP1 PUSH2 0x1679 JUMP JUMPDEST PUSH2 0xE55 JUMP JUMPDEST PUSH1 0x40 MLOAD PUSH2 0x230 SWAP3 SWAP2 SWAP1 PUSH2 0x16DD JUMP JUMPDEST PUSH1 0x40 MLOAD DUP1 SWAP2 SUB SWAP1 RETURN JUMPDEST CALLVALUE DUP1 ISZERO PUSH2 0x244 JUMPI PUSH0 PUSH0 REVERT JUMPDEST POP PUSH2 0x24D PUSH2 0xEB6 JUMP JUMPDEST PUSH1 0x40 MLOAD PUSH2 0x25A SWAP2 SWAP1 PUSH2 0x1541 JUMP JUMPDEST PUSH1 0x40 MLOAD DUP1 SWAP2 SUB SWAP1 RETURN JUMPDEST CALLVALUE DUP1 ISZERO PUSH2 0x26E JUMPI PUSH0 PUSH0 REVERT JUMPDEST POP PUSH2 0x289 PUSH1 0x4 DUP1 CALLDATASIZE SUB DUP2 ADD SWAP1 PUSH2 0x284 SWAP2 SWAP1 PUSH2 0x1758 JUMP JUMPDEST PUSH2 0xEDA JUMP JUMPDEST STOP JUMPDEST CALLVALUE DUP1 ISZERO PUSH2 0x296 JUMPI PUSH0 PUSH0 REVERT JUMPDEST POP PUSH2 0x2B1 PUSH1 0x4 DUP1 CALLDATASIZE SUB DUP2 ADD SWAP1 PUSH2 0x2AC SWAP2 SWAP1 PUSH2 0x13ED JUMP JUMPDEST PUSH2 0x1109 JUMP JUMPDEST STOP JUMPDEST PUSH2 0x2BB PUSH2 0x1358 JUMP JUMPDEST PUSH1 0x3 PUSH0 DUP4 DUP2 MSTORE PUSH1 0x20 ADD SWAP1 DUP2 MSTORE PUSH1 0x20 ADD PUSH0 KECCAK256 PUSH1 0x40 MLOAD DUP1 PUSH1 0xC0 ADD PUSH1 0x40 MSTORE SWAP1 DUP2 PUSH0 DUP3 ADD SLOAD DUP2 MSTORE PUSH1 0x20 ADD PUSH1 0x1 DUP3 ADD PUSH0 SWAP1 SLOAD SWAP1 PUSH2 0x100 EXP SWAP1 DIV PUSH20 0xFFFFFFFFFFFFFFFFFFFFFFFFFFFFFFFFFFFFFFFF AND PUSH20 0xFFFFFFFFFFFFFFFFFFFFFFFFFFFFFFFFFFFFFFFF AND PUSH20 0xFFFFFFFFFFFFFFFFFFFFFFFFFFFFFFFFFFFFFFFF AND DUP2 MSTORE PUSH1 0x20 ADD PUSH1 0x2 DUP3 ADD SLOAD DUP2 MSTORE PUSH1 0x20 ADD PUSH1 0x3 DUP3 ADD PUSH0 SWAP1 SLOAD SWAP1 PUSH2 0x100 EXP SWAP1 DIV PUSH20 0xFFFFFFFFFFFFFFFFFFFFFFFFFFFFFFFFFFFFFFFF AND PUSH20 0xFFFFFFFFFFFFFFFFFFFFFFFFFFFFFFFFFFFFFFFF AND PUSH20 0xFFFFFFFFFFFFFFFFFFFFFFFFFFFFFFFFFFFFFFFF AND DUP2 MSTORE PUSH1 0x20 ADD PUSH1 0x4 DUP3 ADD SLOAD DUP2 MSTORE PUSH1 0x20 ADD PUSH1 0x5 DUP3 ADD PUSH0 SWAP1 SLOAD SWAP1 PUSH2 0x100 EXP SWAP1 DIV PUSH1 0xFF AND ISZERO ISZERO ISZERO ISZERO DUP2 MSTORE POP POP SWAP1 POP SWAP2 SWAP1 POP JUMP JUMPDEST PUSH2 0x3C7 PUSH2 0x11D9 JUMP JUMPDEST PUSH0 PUSH1 0x3 PUSH0 DUP4 DUP2 MSTORE PUSH1 0x20 ADD SWAP1 DUP2 MSTORE PUSH1 0x20 ADD PUSH0 KECCAK256 SWAP1 POP CALLER PUSH20 0xFFFFFFFFFFFFFFFFFFFFFFFFFFFFFFFFFFFFFFFF AND DUP2 PUSH1 0x3 ADD PUSH0 SWAP1 SLOAD SWAP1 PUSH2 0x100 EXP SWAP1 DIV PUSH20 0xFFFFFFFFFFFFFFFFFFFFFFFFFFFFFFFFFFFFFFFF AND PUSH20 0xFFFFFFFFFFFFFFFFFFFFFFFFFFFFFFFFFFFFFFFF AND EQ PUSH2 0x46C JUMPI PUSH1 0x40 MLOAD PUSH32 0x8C379A000000000000000000000000000000000000000000000000000000000 DUP2 MSTORE PUSH1 0x4 ADD PUSH2 0x463 SWAP1 PUSH2 0x1816 JUMP JUMPDEST PUSH1 0x40 MLOAD DUP1 SWAP2 SUB SWAP1 REVERT JUMPDEST DUP1 PUSH1 0x5 ADD PUSH0 SWAP1 SLOAD SWAP1 PUSH2 0x100 EXP SWAP1 DIV PUSH1 0xFF AND ISZERO PUSH2 0x4BD JUMPI PUSH1 0x40 MLOAD PUSH32 0x8C379A000000000000000000000000000000000000000000000000000000000 DUP2 MSTORE PUSH1 0x4 ADD PUSH2 0x4B4 SWAP1 PUSH2 0x187E JUMP JUMPDEST PUSH1 0x40 MLOAD DUP1 SWAP2 SUB SWAP1 REVERT JUMPDEST DUP1 PUSH1 0x1 ADD PUSH0 SWAP1 SLOAD SWAP1 PUSH2 0x100 EXP SWAP1 DIV PUSH20 0xFFFFFFFFFFFFFFFFFFFFFFFFFFFFFFFFFFFFFFFF AND PUSH20 0xFFFFFFFFFFFFFFFFFFFFFFFFFFFFFFFFFFFFFFFF AND PUSH4 0x23B872DD ADDRESS CALLER DUP5 PUSH1 0x2 ADD SLOAD PUSH1 0x40 MLOAD DUP5 PUSH4 0xFFFFFFFF AND PUSH1 0xE0 SHL DUP2 MSTORE PUSH1 0x4 ADD PUSH2 0x521 SWAP4 SWAP3 SWAP2 SWAP1 PUSH2 0x189C JUMP JUMPDEST PUSH0 PUSH1 0x40 MLOAD DUP1 DUP4 SUB DUP2 PUSH0 DUP8 DUP1 EXTCODESIZE ISZERO DUP1 ISZERO PUSH2 0x538 JUMPI PUSH0 PUSH0 REVERT JUMPDEST POP GAS CALL ISZERO DUP1 ISZERO PUSH2 0x54A JUMPI RETURNDATASIZE PUSH0 PUSH0 RETURNDATACOPY RETURNDATASIZE PUSH0 REVERT JUMPDEST POP POP POP POP PUSH1 0x3 PUSH0 DUP4 DUP2 MSTORE PUSH1 0x20 ADD SWAP1 DUP2 MSTORE PUSH1 0x20 ADD PUSH0 KECCAK256 PUSH0 PUSH0 DUP3 ADD PUSH0 SWAP1 SSTORE PUSH1 0x1 DUP3 ADD PUSH0 PUSH2 0x100 EXP DUP2 SLOAD SWAP1 PUSH20 0xFFFFFFFFFFFFFFFFFFFFFFFFFFFFFFFFFFFFFFFF MUL NOT AND SWAP1 SSTORE PUSH1 0x2 DUP3 ADD PUSH0 SWAP1 SSTORE PUSH1 0x3 DUP3 ADD PUSH0 PUSH2 0x100 EXP DUP2 SLOAD SWAP1 PUSH20 0xFFFFFFFFFFFFFFFFFFFFFFFFFFFFFFFFFFFFFFFF MUL NOT AND SWAP1 SSTORE PUSH1 0x4 DUP3 ADD PUSH0 SWAP1 SSTORE PUSH1 0x5 DUP3 ADD PUSH0 PUSH2 0x100 EXP DUP2 SLOAD SWAP1 PUSH1 0xFF MUL NOT AND SWAP1 SSTORE POP POP DUP2 PUSH32 0x829A8683C544AD289CE92D3CE06E9EBAD69B18A6916E60EC766C2C217461D8E9 PUSH1 0x40 MLOAD PUSH1 0x40 MLOAD DUP1 SWAP2 SUB SWAP1 LOG2 POP PUSH2 0x60B PUSH2 0x1226 JUMP JUMPDEST POP JUMP JUMPDEST PUSH1 0x6 PUSH0 SWAP1 SLOAD SWAP1 PUSH2 0x100 EXP SWAP1 DIV PUSH20 0xFFFFFFFFFFFFFFFFFFFFFFFFFFFFFFFFFFFFFFFF AND PUSH20 0xFFFFFFFFFFFFFFFFFFFFFFFFFFFFFFFFFFFFFFFF AND CALLER PUSH20 0xFFFFFFFFFFFFFFFFFFFFFFFFFFFFFFFFFFFFFFFF AND EQ PUSH2 0x69D JUMPI PUSH1 0x40 MLOAD PUSH32 0x8C379A000000000000000000000000000000000000000000000000000000000 DUP2 MSTORE PUSH1 0x4 ADD PUSH2 0x694 SWAP1 PUSH2 0x191B JUMP JUMPDEST PUSH1 0x40 MLOAD DUP1 SWAP2 SUB SWAP1 REVERT JUMPDEST PUSH2 0x6A5 PUSH2 0x11D9 JUMP JUMPDEST PUSH0 SELFBALANCE SWAP1 POP PUSH0 DUP2 GT PUSH2 0x6EB JUMPI PUSH1 0x40 MLOAD PUSH32 0x8C379A000000000000000000000000000000000000000000000000000000000 DUP2 MSTORE PUSH1 0x4 ADD PUSH2 0x6E2 SWAP1 PUSH2 0x1983 JUMP JUMPDEST PUSH1 0x40 MLOAD DUP1 SWAP2 SUB SWAP1 REVERT JUMPDEST PUSH2 0x735 DUP2 PUSH1 0x6 PUSH0 SWAP1 SLOAD SWAP1 PUSH2 0x100 EXP SWAP1 DIV PUSH20 0xFFFFFFFFFFFFFFFFFFFFFFFFFFFFFFFFFFFFFFFF AND PUSH20 0xFFFFFFFFFFFFFFFFFFFFFFFFFFFFFFFFFFFFFFFF AND PUSH2 0x122F SWAP1 SWAP2 SWAP1 PUSH4 0xFFFFFFFF AND JUMP JUMPDEST POP PUSH2 0x73E PUSH2 0x1226 JUMP JUMPDEST JUMP JUMPDEST PUSH2 0x748 PUSH2 0x11D9 JUMP JUMPDEST PUSH0 PUSH1 0x3 PUSH0 DUP4 DUP2 MSTORE PUSH1 0x20 ADD SWAP1 DUP2 MSTORE PUSH1 0x20 ADD PUSH0 KECCAK256 SWAP1 POP DUP1 PUSH1 0x5 ADD PUSH0 SWAP1 SLOAD SWAP1 PUSH2 0x100 EXP SWAP1 DIV PUSH1 0xFF AND ISZERO PUSH2 0x7AD JUMPI PUSH1 0x40 MLOAD PUSH32 0x8C379A000000000000000000000000000000000000000000000000000000000 DUP2 MSTORE PUSH1 0x4 ADD PUSH2 0x7A4 SWAP1 PUSH2 0x187E JUMP JUMPDEST PUSH1 0x40 MLOAD DUP1 SWAP2 SUB SWAP1 REVERT JUMPDEST DUP1 PUSH1 0x4 ADD SLOAD CALLVALUE LT ISZERO PUSH2 0x7F4 JUMPI PUSH1 0x40 MLOAD PUSH32 0x8C379A000000000000000000000000000000000000000000000000000000000 DUP2 MSTORE PUSH1 0x4 ADD PUSH2 0x7EB SWAP1 PUSH2 0x19EB JUMP JUMPDEST PUSH1 0x40 MLOAD DUP1 SWAP2 SUB SWAP1 REVERT JUMPDEST PUSH1 0x1 DUP2 PUSH1 0x5 ADD PUSH0 PUSH2 0x100 EXP DUP2 SLOAD DUP2 PUSH1 0xFF MUL NOT AND SWAP1 DUP4 ISZERO ISZERO MUL OR SWAP1 SSTORE POP PUSH2 0x81A PUSH1 0x2 PUSH2 0x12F5 JUMP JUMPDEST PUSH0 PUSH1 0x4 PUSH0 DUP4 PUSH1 0x1 ADD PUSH0 SWAP1 SLOAD SWAP1 PUSH2 0x100 EXP SWAP1 DIV PUSH20 0xFFFFFFFFFFFFFFFFFFFFFFFFFFFFFFFFFFFFFFFF AND PUSH20 0xFFFFFFFFFFFFFFFFFFFFFFFFFFFFFFFFFFFFFFFF AND PUSH20 0xFFFFFFFFFFFFFFFFFFFFFFFFFFFFFFFFFFFFFFFF AND DUP2 MSTORE PUSH1 0x20 ADD SWAP1 DUP2 MSTORE PUSH1 0x20 ADD PUSH0 KECCAK256 PUSH0 DUP4 PUSH1 0x2 ADD SLOAD DUP2 MSTORE PUSH1 0x20 ADD SWAP1 DUP2 MSTORE PUSH1 0x20 ADD PUSH0 KECCAK256 PUSH1 0x40 MLOAD DUP1 PUSH1 0x40 ADD PUSH1 0x40 MSTORE SWAP1 DUP2 PUSH0 DUP3 ADD PUSH0 SWAP1 SLOAD SWAP1 PUSH2 0x100 EXP SWAP1 DIV PUSH20 0xFFFFFFFFFFFFFFFFFFFFFFFFFFFFFFFFFFFFFFFF AND PUSH20 0xFFFFFFFFFFFFFFFFFFFFFFFFFFFFFFFFFFFFFFFF AND PUSH20 0xFFFFFFFFFFFFFFFFFFFFFFFFFFFFFFFFFFFFFFFF AND DUP2 MSTORE PUSH1 0x20 ADD PUSH0 DUP3 ADD PUSH1 0x14 SWAP1 SLOAD SWAP1 PUSH2 0x100 EXP SWAP1 DIV PUSH12 0xFFFFFFFFFFFFFFFFFFFFFFFF AND PUSH12 0xFFFFFFFFFFFFFFFFFFFFFFFF AND PUSH12 0xFFFFFFFFFFFFFFFFFFFFFFFF AND DUP2 MSTORE POP POP SWAP1 POP PUSH0 PUSH2 0x2710 DUP3 PUSH1 0x20 ADD MLOAD PUSH12 0xFFFFFFFFFFFFFFFFFFFFFFFF AND CALLVALUE PUSH2 0x94E SWAP2 SWAP1 PUSH2 0x1A36 JUMP JUMPDEST PUSH2 0x958 SWAP2 SWAP1 PUSH2 0x1AA4 JUMP JUMPDEST SWAP1 POP PUSH0 DUP2 CALLVALUE PUSH2 0x967 SWAP2 SWAP1 PUSH2 0x1AD4 JUMP JUMPDEST SWAP1 POP PUSH0 PUSH20 0xFFFFFFFFFFFFFFFFFFFFFFFFFFFFFFFFFFFFFFFF AND DUP4 PUSH0 ADD MLOAD PUSH20 0xFFFFFFFFFFFFFFFFFFFFFFFFFFFFFFFFFFFFFFFF AND EQ ISZERO DUP1 ISZERO PUSH2 0x9A7 JUMPI POP PUSH0 DUP3 GT JUMPDEST ISZERO PUSH2 0x9D9 JUMPI PUSH2 0x9D8 DUP3 DUP5 PUSH0 ADD MLOAD PUSH20 0xFFFFFFFFFFFFFFFFFFFFFFFFFFFFFFFFFFFFFFFF AND PUSH2 0x122F SWAP1 SWAP2 SWAP1 PUSH4 0xFFFFFFFF AND JUMP JUMPDEST JUMPDEST PUSH2 0xA25 DUP2 DUP6 PUSH1 0x3 ADD PUSH0 SWAP1 SLOAD SWAP1 PUSH2 0x100 EXP SWAP1 DIV PUSH20 0xFFFFFFFFFFFFFFFFFFFFFFFFFFFFFFFFFFFFFFFF AND PUSH20 0xFFFFFFFFFFFFFFFFFFFFFFFFFFFFFFFFFFFFFFFF AND PUSH2 0x122F SWAP1 SWAP2 SWAP1 PUSH4 0xFFFFFFFF AND JUMP JUMPDEST DUP4 PUSH1 0x1 ADD PUSH0 SWAP1 SLOAD SWAP1 PUSH2 0x100 EXP SWAP1 DIV PUSH20 0xFFFFFFFFFFFFFFFFFFFFFFFFFFFFFFFFFFFFFFFF AND PUSH20 0xFFFFFFFFFFFFFFFFFFFFFFFFFFFFFFFFFFFFFFFF AND PUSH4 0x23B872DD ADDRESS CALLER DUP8 PUSH1 0x2 ADD SLOAD PUSH1 0x40 MLOAD DUP5 PUSH4 0xFFFFFFFF AND PUSH1 0xE0 SHL DUP2 MSTORE PUSH1 0x4 ADD PUSH2 0xA89 SWAP4 SWAP3 SWAP2 SWAP1 PUSH2 0x189C JUMP JUMPDEST PUSH0 PUSH1 0x40 MLOAD DUP1 DUP4 SUB DUP2 PUSH0 DUP8 DUP1 EXTCODESIZE ISZERO DUP1 ISZERO PUSH2 0xAA0 JUMPI PUSH0 PUSH0 REVERT JUMPDEST POP GAS CALL ISZERO DUP1 ISZERO PUSH2 0xAB2 JUMPI RETURNDATASIZE PUSH0 PUSH0 RETURNDATACOPY RETURNDATASIZE PUSH0 REVERT JUMPDEST POP POP POP POP DUP5 PUSH32 0xC0E076A004E59B819C1099B4799386D7FEAA928662E5F3F95AF4DB1A1502520D CALLER DUP7 PUSH1 0x4 ADD SLOAD PUSH1 0x40 MLOAD PUSH2 0xAEC SWAP3 SWAP2 SWAP1 PUSH2 0x1B07 JUMP JUMPDEST PUSH1 0x40 MLOAD DUP1 SWAP2 SUB SWAP1 LOG2 POP POP POP POP PUSH2 0xB00 PUSH2 0x1226 JUMP JUMPDEST POP JUMP JUMPDEST PUSH1 0x5 SLOAD DUP2 JUMP JUMPDEST PUSH1 0x6 PUSH0 SWAP1 SLOAD SWAP1 PUSH2 0x100 EXP SWAP1 DIV PUSH20 0xFFFFFFFFFFFFFFFFFFFFFFFFFFFFFFFFFFFFFFFF AND DUP2 JUMP JUMPDEST PUSH2 0xB36 PUSH2 0x11D9 JUMP JUMPDEST PUSH0 DUP2 GT PUSH2 0xB78 JUMPI PUSH1 0x40 MLOAD PUSH32 0x8C379A000000000000000000000000000000000000000000000000000000000 DUP2 MSTORE PUSH1 0x4 ADD PUSH2 0xB6F SWAP1 PUSH2 0x1B78 JUMP JUMPDEST PUSH1 0x40 MLOAD DUP1 SWAP2 SUB SWAP1 REVERT JUMPDEST PUSH1 0x5 SLOAD CALLVALUE EQ PUSH2 0xBBC JUMPI PUSH1 0x40 MLOAD PUSH32 0x8C379A000000000000000000000000000000000000000000000000000000000 DUP2 MSTORE PUSH1 0x4 ADD PUSH2 0xBB3 SWAP1 PUSH2 0x1BE0 JUMP JUMPDEST PUSH1 0x40 MLOAD DUP1 SWAP2 SUB SWAP1 REVERT JUMPDEST PUSH2 0xBC6 PUSH1 0x1 PUSH2 0x12F5 JUMP JUMPDEST PUSH0 PUSH2 0xBD1 PUSH1 0x1 PUSH2 0x1309 JUMP JUMPDEST SWAP1 POP PUSH1 0x40 MLOAD DUP1 PUSH1 0xC0 ADD PUSH1 0x40 MSTORE DUP1 DUP3 DUP2 MSTORE PUSH1 0x20 ADD DUP6 PUSH20 0xFFFFFFFFFFFFFFFFFFFFFFFFFFFFFFFFFFFFFFFF AND DUP2 MSTORE PUSH1 0x20 ADD DUP5 DUP2 MSTORE PUSH1 0x20 ADD CALLER PUSH20 0xFFFFFFFFFFFFFFFFFFFFFFFFFFFFFFFFFFFFFFFF AND DUP2 MSTORE PUSH1 0x20 ADD DUP4 DUP2 MSTORE PUSH1 0x20 ADD PUSH0 ISZERO ISZERO DUP2 MSTORE POP PUSH1 0x3 PUSH0 DUP4 DUP2 MSTORE PUSH1 0x20 ADD SWAP1 DUP2 MSTORE PUSH1 0x20 ADD PUSH0 KECCAK256 PUSH0 DUP3 ADD MLOAD DUP2 PUSH0 ADD SSTORE PUSH1 0x20 DUP3 ADD MLOAD DUP2 PUSH1 0x1 ADD PUSH0 PUSH2 0x100 EXP DUP2 SLOAD DUP2 PUSH20 0xFFFFFFFFFFFFFFFFFFFFFFFFFFFFFFFFFFFFFFFF MUL NOT AND SWAP1 DUP4 PUSH20 0xFFFFFFFFFFFFFFFFFFFFFFFFFFFFFFFFFFFFFFFF AND MUL OR SWAP1 SSTORE POP PUSH1 0x40 DUP3 ADD MLOAD DUP2 PUSH1 0x2 ADD SSTORE PUSH1 0x60 DUP3 ADD MLOAD DUP2 PUSH1 0x3 ADD PUSH0 PUSH2 0x100 EXP DUP2 SLOAD DUP2 PUSH20 0xFFFFFFFFFFFFFFFFFFFFFFFFFFFFFFFFFFFFFFFF MUL NOT AND SWAP1 DUP4 PUSH20 0xFFFFFFFFFFFFFFFFFFFFFFFFFFFFFFFFFFFFFFFF AND MUL OR SWAP1 SSTORE POP PUSH1 0x80 DUP3 ADD MLOAD DUP2 PUSH1 0x4 ADD SSTORE PUSH1 0xA0 DUP3 ADD MLOAD DUP2 PUSH1 0x5 ADD PUSH0 PUSH2 0x100 EXP DUP2 SLOAD DUP2 PUSH1 0xFF MUL NOT AND SWAP1 DUP4 ISZERO ISZERO MUL OR SWAP1 SSTORE POP SWAP1 POP POP DUP4 PUSH20 0xFFFFFFFFFFFFFFFFFFFFFFFFFFFFFFFFFFFFFFFF AND PUSH4 0x23B872DD CALLER ADDRESS DUP7 PUSH1 0x40 MLOAD DUP5 PUSH4 0xFFFFFFFF AND PUSH1 0xE0 SHL DUP2 MSTORE PUSH1 0x4 ADD PUSH2 0xD46 SWAP4 SWAP3 SWAP2 SWAP1 PUSH2 0x189C JUMP JUMPDEST PUSH0 PUSH1 0x40 MLOAD DUP1 DUP4 SUB DUP2 PUSH0 DUP8 DUP1 EXTCODESIZE ISZERO DUP1 ISZERO PUSH2 0xD5D JUMPI PUSH0 PUSH0 REVERT JUMPDEST POP GAS CALL ISZERO DUP1 ISZERO PUSH2 0xD6F JUMPI RETURNDATASIZE PUSH0 PUSH0 RETURNDATACOPY RETURNDATASIZE PUSH0 REVERT JUMPDEST POP POP POP POP DUP3 DUP5 PUSH20 0xFFFFFFFFFFFFFFFFFFFFFFFFFFFFFFFFFFFFFFFF AND DUP3 PUSH32 0x9791797C382DE5E73CC7C32C32FFD8304E9B9CC1F6AFD967990C1EDD0729DBA9 CALLER DUP7 PUSH1 0x40 MLOAD PUSH2 0xDBD SWAP3 SWAP2 SWAP1 PUSH2 0x1B07 JUMP JUMPDEST PUSH1 0x40 MLOAD DUP1 SWAP2 SUB SWAP1 LOG4 POP PUSH2 0xDCE PUSH2 0x1226 JUMP JUMPDEST POP POP POP JUMP JUMPDEST PUSH1 0x3 PUSH1 0x20 MSTORE DUP1 PUSH0 MSTORE PUSH1 0x40 PUSH0 KECCAK256 PUSH0 SWAP2 POP SWAP1 POP DUP1 PUSH0 ADD SLOAD SWAP1 DUP1 PUSH1 0x1 ADD PUSH0 SWAP1 SLOAD SWAP1 PUSH2 0x100 EXP SWAP1 DIV PUSH20 0xFFFFFFFFFFFFFFFFFFFFFFFFFFFFFFFFFFFFFFFF AND SWAP1 DUP1 PUSH1 0x2 ADD SLOAD SWAP1 DUP1 PUSH1 0x3 ADD PUSH0 SWAP1 SLOAD SWAP1 PUSH2 0x100 EXP SWAP1 DIV PUSH20 0xFFFFFFFFFFFFFFFFFFFFFFFFFFFFFFFFFFFFFFFF AND SWAP1 DUP1 PUSH1 0x4 ADD SLOAD SWAP1 DUP1 PUSH1 0x5 ADD PUSH0 SWAP1 SLOAD SWAP1 PUSH2 0x100 EXP SWAP1 DIV PUSH1 0xFF AND SWAP1 POP DUP7 JUMP JUMPDEST PUSH1 0x4 PUSH1 0x20 MSTORE DUP2 PUSH0 MSTORE PUSH1 0x40 PUSH0 KECCAK256 PUSH1 0x20 MSTORE DUP1 PUSH0 MSTORE PUSH1 0x40 PUSH0 KECCAK256 PUSH0 SWAP2 POP SWAP2 POP POP DUP1 PUSH0 ADD PUSH0 SWAP1 SLOAD SWAP1 PUSH2 0x100 EXP SWAP1 DIV PUSH20 0xFFFFFFFFFFFFFFFFFFFFFFFFFFFFFFFFFFFFFFFF AND SWAP1 DUP1 PUSH0 ADD PUSH1 0x14 SWAP1 SLOAD SWAP1 PUSH2 0x100 EXP SWAP1 DIV PUSH12 0xFFFFFFFFFFFFFFFFFFFFFFFF AND SWAP1 POP DUP3 JUMP JUMPDEST PUSH0 PUSH2 0xEC1 PUSH1 0x2 PUSH2 0x1309 JUMP JUMPDEST PUSH2 0xECB PUSH1 0x1 PUSH2 0x1309 JUMP JUMPDEST PUSH2 0xED5 SWAP2 SWAP1 PUSH2 0x1AD4 JUMP JUMPDEST SWAP1 POP SWAP1 JUMP JUMPDEST PUSH2 0x3E8 DUP2 PUSH12 0xFFFFFFFFFFFFFFFFFFFFFFFF AND GT ISZERO PUSH2 0xF2D JUMPI PUSH1 0x40 MLOAD PUSH32 0x8C379A000000000000000000000000000000000000000000000000000000000 DUP2 MSTORE PUSH1 0x4 ADD PUSH2 0xF24 SWAP1 PUSH2 0x1C48 JUMP JUMPDEST PUSH1 0x40 MLOAD DUP1 SWAP2 SUB SWAP1 REVERT JUMPDEST PUSH0 PUSH20 0xFFFFFFFFFFFFFFFFFFFFFFFFFFFFFFFFFFFFFFFF AND DUP3 PUSH20 0xFFFFFFFFFFFFFFFFFFFFFFFFFFFFFFFFFFFFFFFF AND SUB PUSH2 0xF9B JUMPI PUSH1 0x40 MLOAD PUSH32 0x8C379A000000000000000000000000000000000000000000000000000000000 DUP2 MSTORE PUSH1 0x4 ADD PUSH2 0xF92 SWAP1 PUSH2 0x1CB0 JUMP JUMPDEST PUSH1 0x40 MLOAD DUP1 SWAP2 SUB SWAP1 REVERT JUMPDEST PUSH1 0x40 MLOAD DUP1 PUSH1 0x40 ADD PUSH1 0x40 MSTORE DUP1 DUP4 PUSH20 0xFFFFFFFFFFFFFFFFFFFFFFFFFFFFFFFFFFFFFFFF AND DUP2 MSTORE PUSH1 0x20 ADD DUP3 PUSH12 0xFFFFFFFFFFFFFFFFFFFFFFFF AND DUP2 MSTORE POP PUSH1 0x4 PUSH0 DUP7 PUSH20 0xFFFFFFFFFFFFFFFFFFFFFFFFFFFFFFFFFFFFFFFF AND PUSH20 0xFFFFFFFFFFFFFFFFFFFFFFFFFFFFFFFFFFFFFFFF AND DUP2 MSTORE PUSH1 0x20 ADD SWAP1 DUP2 MSTORE PUSH1 0x20 ADD PUSH0 KECCAK256 PUSH0 DUP6 DUP2 MSTORE PUSH1 0x20 ADD SWAP1 DUP2 MSTORE PUSH1 0x20 ADD PUSH0 KECCAK256 PUSH0 DUP3 ADD MLOAD DUP2 PUSH0 ADD PUSH0 PUSH2 0x100 EXP DUP2 SLOAD DUP2 PUSH20 0xFFFFFFFFFFFFFFFFFFFFFFFFFFFFFFFFFFFFFFFF MUL NOT AND SWAP1 DUP4 PUSH20 0xFFFFFFFFFFFFFFFFFFFFFFFFFFFFFFFFFFFFFFFF AND MUL OR SWAP1 SSTORE POP PUSH1 0x20 DUP3 ADD MLOAD DUP2 PUSH0 ADD PUSH1 0x14 PUSH2 0x100 EXP DUP2 SLOAD DUP2 PUSH12 0xFFFFFFFFFFFFFFFFFFFFFFFF MUL NOT AND SWAP1 DUP4 PUSH12 0xFFFFFFFFFFFFFFFFFFFFFFFF AND MUL OR SWAP1 SSTORE POP SWAP1 POP POP DUP2 PUSH20 0xFFFFFFFFFFFFFFFFFFFFFFFFFFFFFFFFFFFFFFFF AND DUP4 DUP6 PUSH20 0xFFFFFFFFFFFFFFFFFFFFFFFFFFFFFFFFFFFFFFFF AND PUSH32 0xB99D8EEFF1E9BB56821A5E841B152BB119D760F07FE30C53CF37B36931587D6F DUP5 PUSH1 0x40 MLOAD PUSH2 0x10FB SWAP2 SWAP1 PUSH2 0x1CCE JUMP JUMPDEST PUSH1 0x40 MLOAD DUP1 SWAP2 SUB SWAP1 LOG4 POP POP POP POP JUMP JUMPDEST PUSH1 0x6 PUSH0 SWAP1 SLOAD SWAP1 PUSH2 0x100 EXP SWAP1 DIV PUSH20 0xFFFFFFFFFFFFFFFFFFFFFFFFFFFFFFFFFFFFFFFF AND PUSH20 0xFFFFFFFFFFFFFFFFFFFFFFFFFFFFFFFFFFFFFFFF AND CALLER PUSH20 0xFFFFFFFFFFFFFFFFFFFFFFFFFFFFFFFFFFFFFFFF AND EQ PUSH2 0x1198 JUMPI PUSH1 0x40 MLOAD PUSH32 0x8C379A000000000000000000000000000000000000000000000000000000000 DUP2 MSTORE PUSH1 0x4 ADD PUSH2 0x118F SWAP1 PUSH2 0x191B JUMP JUMPDEST PUSH1 0x40 MLOAD DUP1 SWAP2 SUB SWAP1 REVERT JUMPDEST DUP1 PUSH1 0x5 DUP2 SWAP1 SSTORE POP PUSH32 0x5FB4654F1EFE30C6141EAA6855FFCB27E0B361D899B05E21B1A4D0B3E71E14DB DUP2 PUSH1 0x40 MLOAD PUSH2 0x11CE SWAP2 SWAP1 PUSH2 0x1541 JUMP JUMPDEST PUSH1 0x40 MLOAD DUP1 SWAP2 SUB SWAP1 LOG1 POP JUMP JUMPDEST PUSH1 0x2 PUSH0 SLOAD SUB PUSH2 0x121D JUMPI PUSH1 0x40 MLOAD PUSH32 0x8C379A000000000000000000000000000000000000000000000000000000000 DUP2 MSTORE PUSH1 0x4 ADD PUSH2 0x1214 SWAP1 PUSH2 0x1D31 JUMP JUMPDEST PUSH1 0x40 MLOAD DUP1 SWAP2 SUB SWAP1 REVERT JUMPDEST PUSH1 0x2 PUSH0 DUP2 SWAP1 SSTORE POP JUMP JUMPDEST PUSH1 0x1 PUSH0 DUP2 SWAP1 SSTORE POP JUMP JUMPDEST DUP1 SELFBALANCE LT ISZERO PUSH2 0x1276 JUMPI SELFBALANCE DUP2 PUSH1 0x40 MLOAD PUSH32 0xCF47918100000000000000000000000000000000000000000000000000000000 DUP2 MSTORE PUSH1 0x4 ADD PUSH2 0x126D SWAP3 SWAP2 SWAP1 PUSH2 0x1D4F JUMP JUMPDEST PUSH1 0x40 MLOAD DUP1 SWAP2 SUB SWAP1 REVERT JUMPDEST PUSH0 PUSH0 DUP4 PUSH20 0xFFFFFFFFFFFFFFFFFFFFFFFFFFFFFFFFFFFFFFFF AND DUP4 PUSH1 0x40 MLOAD PUSH2 0x129C SWAP1 PUSH2 0x1DA3 JUMP JUMPDEST PUSH0 PUSH1 0x40 MLOAD DUP1 DUP4 SUB DUP2 DUP6 DUP8 GAS CALL SWAP3 POP POP POP RETURNDATASIZE DUP1 PUSH0 DUP2 EQ PUSH2 0x12D6 JUMPI PUSH1 0x40 MLOAD SWAP2 POP PUSH1 0x1F NOT PUSH1 0x3F RETURNDATASIZE ADD AND DUP3 ADD PUSH1 0x40 MSTORE RETURNDATASIZE DUP3 MSTORE RETURNDATASIZE PUSH0 PUSH1 0x20 DUP5 ADD RETURNDATACOPY PUSH2 0x12DB JUMP JUMPDEST PUSH1 0x60 SWAP2 POP JUMPDEST POP SWAP2 POP SWAP2 POP DUP2 PUSH2 0x12EF JUMPI PUSH2 0x12EE DUP2 PUSH2 0x1315 JUMP JUMPDEST JUMPDEST POP POP POP POP JUMP JUMPDEST PUSH1 0x1 DUP2 PUSH0 ADD PUSH0 DUP3 DUP3 SLOAD ADD SWAP3 POP POP DUP2 SWAP1 SSTORE POP POP JUMP JUMPDEST PUSH0 DUP2 PUSH0 ADD SLOAD SWAP1 POP SWAP2 SWAP1 POP JUMP JUMPDEST PUSH0 DUP2 MLOAD GT ISZERO PUSH2 0x1326 JUMPI DUP1 MLOAD PUSH1 0x20 DUP3 ADD REVERT JUMPDEST PUSH1 0x40 MLOAD PUSH32 0xD6BDA27500000000000000000000000000000000000000000000000000000000 DUP2 MSTORE PUSH1 0x4 ADD PUSH1 0x40 MLOAD DUP1 SWAP2 SUB SWAP1 REVERT JUMPDEST PUSH1 0x40 MLOAD DUP1 PUSH1 0xC0 ADD PUSH1 0x40 MSTORE DUP1 PUSH0 DUP2 MSTORE PUSH1 0x20 ADD PUSH0 PUSH20 0xFFFFFFFFFFFFFFFFFFFFFFFFFFFFFFFFFFFFFFFF AND DUP2 MSTORE PUSH1 0x20 ADD PUSH0 DUP2 MSTORE PUSH1 0x20 ADD PUSH0 PUSH20 0xFFFFFFFFFFFFFFFFFFFFFFFFFFFFFFFFFFFFFFFF AND DUP2 MSTORE PUSH1 0x20 ADD PUSH0 DUP2 MSTORE PUSH1 0x20 ADD PUSH0 ISZERO ISZERO DUP2 MSTORE POP SWAP1 JUMP JUMPDEST PUSH0 PUSH0 REVERT JUMPDEST PUSH0 DUP2 SWAP1 POP SWAP2 SWAP1 POP JUMP JUMPDEST PUSH2 0x13CC DUP2 PUSH2 0x13BA JUMP JUMPDEST DUP2 EQ PUSH2 0x13D6 JUMPI PUSH0 PUSH0 REVERT JUMPDEST POP JUMP JUMPDEST PUSH0 DUP2 CALLDATALOAD SWAP1 POP PUSH2 0x13E7 DUP2 PUSH2 0x13C3 JUMP JUMPDEST SWAP3 SWAP2 POP POP JUMP JUMPDEST PUSH0 PUSH1 0x20 DUP3 DUP5 SUB SLT ISZERO PUSH2 0x1402 JUMPI PUSH2 0x1401 PUSH2 0x13B6 JUMP JUMPDEST JUMPDEST PUSH0 PUSH2 0x140F DUP5 DUP3 DUP6 ADD PUSH2 0x13D9 JUMP JUMPDEST SWAP2 POP POP SWAP3 SWAP2 POP POP JUMP JUMPDEST PUSH2 0x1421 DUP2 PUSH2 0x13BA JUMP JUMPDEST DUP3 MSTORE POP POP JUMP JUMPDEST PUSH0 PUSH20 0xFFFFFFFFFFFFFFFFFFFFFFFFFFFFFFFFFFFFFFFF DUP3 AND SWAP1 POP SWAP2 SWAP1 POP JUMP JUMPDEST PUSH0 PUSH2 0x1450 DUP3 PUSH2 0x1427 JUMP JUMPDEST SWAP1 POP SWAP2 SWAP1 POP JUMP JUMPDEST PUSH2 0x1460 DUP2 PUSH2 0x1446 JUMP JUMPDEST DUP3 MSTORE POP POP JUMP JUMPDEST PUSH0 PUSH2 0x1470 DUP3 PUSH2 0x1427 JUMP JUMPDEST SWAP1 POP SWAP2 SWAP1 POP JUMP JUMPDEST PUSH2 0x1480 DUP2 PUSH2 0x1466 JUMP JUMPDEST DUP3 MSTORE POP POP JUMP JUMPDEST PUSH0 DUP2 ISZERO ISZERO SWAP1 POP SWAP2 SWAP1 POP JUMP JUMPDEST PUSH2 0x149A DUP2 PUSH2 0x1486 JUMP JUMPDEST DUP3 MSTORE POP POP JUMP JUMPDEST PUSH1 0xC0 DUP3 ADD PUSH0 DUP3 ADD MLOAD PUSH2 0x14B4 PUSH0 DUP6 ADD DUP3 PUSH2 0x1418 JUMP JUMPDEST POP PUSH1 0x20 DUP3 ADD MLOAD PUSH2 0x14C7 PUSH1 0x20 DUP6 ADD DUP3 PUSH2 0x1457 JUMP JUMPDEST POP PUSH1 0x40 DUP3 ADD MLOAD PUSH2 0x14DA PUSH1 0x40 DUP6 ADD DUP3 PUSH2 0x1418 JUMP JUMPDEST POP PUSH1 0x60 DUP3 ADD MLOAD PUSH2 0x14ED PUSH1 0x60 DUP6 ADD DUP3 PUSH2 0x1477 JUMP JUMPDEST POP PUSH1 0x80 DUP3 ADD MLOAD PUSH2 0x1500 PUSH1 0x80 DUP6 ADD DUP3 PUSH2 0x1418 JUMP JUMPDEST POP PUSH1 0xA0 DUP3 ADD MLOAD PUSH2 0x1513 PUSH1 0xA0 DUP6 ADD DUP3 PUSH2 0x1491 JUMP JUMPDEST POP POP POP POP JUMP JUMPDEST PUSH0 PUSH1 0xC0 DUP3 ADD SWAP1 POP PUSH2 0x152C PUSH0 DUP4 ADD DUP5 PUSH2 0x14A0 JUMP JUMPDEST SWAP3 SWAP2 POP POP JUMP JUMPDEST PUSH2 0x153B DUP2 PUSH2 0x13BA JUMP JUMPDEST DUP3 MSTORE POP POP JUMP JUMPDEST PUSH0 PUSH1 0x20 DUP3 ADD SWAP1 POP PUSH2 0x1554 PUSH0 DUP4 ADD DUP5 PUSH2 0x1532 JUMP JUMPDEST SWAP3 SWAP2 POP POP JUMP JUMPDEST PUSH2 0x1563 DUP2 PUSH2 0x1466 JUMP JUMPDEST DUP3 MSTORE POP POP JUMP JUMPDEST PUSH0 PUSH1 0x20 DUP3 ADD SWAP1 POP PUSH2 0x157C PUSH0 DUP4 ADD DUP5 PUSH2 0x155A JUMP JUMPDEST SWAP3 SWAP2 POP POP JUMP JUMPDEST PUSH2 0x158B DUP2 PUSH2 0x1446 JUMP JUMPDEST DUP2 EQ PUSH2 0x1595 JUMPI PUSH0 PUSH0 REVERT JUMPDEST POP JUMP JUMPDEST PUSH0 DUP2 CALLDATALOAD SWAP1 POP PUSH2 0x15A6 DUP2 PUSH2 0x1582 JUMP JUMPDEST SWAP3 SWAP2 POP POP JUMP JUMPDEST PUSH0 PUSH0 PUSH0 PUSH1 0x60 DUP5 DUP7 SUB SLT ISZERO PUSH2 0x15C3 JUMPI PUSH2 0x15C2 PUSH2 0x13B6 JUMP JUMPDEST JUMPDEST PUSH0 PUSH2 0x15D0 DUP7 DUP3 DUP8 ADD PUSH2 0x1598 JUMP JUMPDEST SWAP4 POP POP PUSH1 0x20 PUSH2 0x15E1 DUP7 DUP3 DUP8 ADD PUSH2 0x13D9 JUMP JUMPDEST SWAP3 POP POP PUSH1 0x40 PUSH2 0x15F2 DUP7 DUP3 DUP8 ADD PUSH2 0x13D9 JUMP JUMPDEST SWAP2 POP POP SWAP3 POP SWAP3 POP SWAP3 JUMP JUMPDEST PUSH2 0x1605 DUP2 PUSH2 0x1446 JUMP JUMPDEST DUP3 MSTORE POP POP JUMP JUMPDEST PUSH2 0x1614 DUP2 PUSH2 0x1486 JUMP JUMPDEST DUP3 MSTORE POP POP JUMP JUMPDEST PUSH0 PUSH1 0xC0 DUP3 ADD SWAP1 POP PUSH2 0x162D PUSH0 DUP4 ADD DUP10 PUSH2 0x1532 JUMP JUMPDEST PUSH2 0x163A PUSH1 0x20 DUP4 ADD DUP9 PUSH2 0x15FC JUMP JUMPDEST PUSH2 0x1647 PUSH1 0x40 DUP4 ADD DUP8 PUSH2 0x1532 JUMP JUMPDEST PUSH2 0x1654 PUSH1 0x60 DUP4 ADD DUP7 PUSH2 0x155A JUMP JUMPDEST PUSH2 0x1661 PUSH1 0x80 DUP4 ADD DUP6 PUSH2 0x1532 JUMP JUMPDEST PUSH2 0x166E PUSH1 0xA0 DUP4 ADD DUP5 PUSH2 0x160B JUMP JUMPDEST SWAP8 SWAP7 POP POP POP POP POP POP POP JUMP JUMPDEST PUSH0 PUSH0 PUSH1 0x40 DUP4 DUP6 SUB SLT ISZERO PUSH2 0x168F JUMPI PUSH2 0x168E PUSH2 0x13B6 JUMP JUMPDEST JUMPDEST PUSH0 PUSH2 0x169C DUP6 DUP3 DUP7 ADD PUSH2 0x1598 JUMP JUMPDEST SWAP3 POP POP PUSH1 0x20 PUSH2 0x16AD DUP6 DUP3 DUP7 ADD PUSH2 0x13D9 JUMP JUMPDEST SWAP2 POP POP SWAP3 POP SWAP3 SWAP1 POP JUMP JUMPDEST PUSH0 PUSH12 0xFFFFFFFFFFFFFFFFFFFFFFFF DUP3 AND SWAP1 POP SWAP2 SWAP1 POP JUMP JUMPDEST PUSH2 0x16D7 DUP2 PUSH2 0x16B7 JUMP JUMPDEST DUP3 MSTORE POP POP JUMP JUMPDEST PUSH0 PUSH1 0x40 DUP3 ADD SWAP1 POP PUSH2 0x16F0 PUSH0 DUP4 ADD DUP6 PUSH2 0x155A JUMP JUMPDEST PUSH2 0x16FD PUSH1 0x20 DUP4 ADD DUP5 PUSH2 0x16CE JUMP JUMPDEST SWAP4 SWAP3 POP POP POP JUMP JUMPDEST PUSH2 0x170D DUP2 PUSH2 0x1466 JUMP JUMPDEST DUP2 EQ PUSH2 0x1717 JUMPI PUSH0 PUSH0 REVERT JUMPDEST POP JUMP JUMPDEST PUSH0 DUP2 CALLDATALOAD SWAP1 POP PUSH2 0x1728 DUP2 PUSH2 0x1704 JUMP JUMPDEST SWAP3 SWAP2 POP POP JUMP JUMPDEST PUSH2 0x1737 DUP2 PUSH2 0x16B7 JUMP JUMPDEST DUP2 EQ PUSH2 0x1741 JUMPI PUSH0 PUSH0 REVERT JUMPDEST POP JUMP JUMPDEST PUSH0 DUP2 CALLDATALOAD SWAP1 POP PUSH2 0x1752 DUP2 PUSH2 0x172E JUMP JUMPDEST SWAP3 SWAP2 POP POP JUMP JUMPDEST PUSH0 PUSH0 PUSH0 PUSH0 PUSH1 0x80 DUP6 DUP8 SUB SLT ISZERO PUSH2 0x1770 JUMPI PUSH2 0x176F PUSH2 0x13B6 JUMP JUMPDEST JUMPDEST PUSH0 PUSH2 0x177D DUP8 DUP3 DUP9 ADD PUSH2 0x1598 JUMP JUMPDEST SWAP5 POP POP PUSH1 0x20 PUSH2 0x178E DUP8 DUP3 DUP9 ADD PUSH2 0x13D9 JUMP JUMPDEST SWAP4 POP POP PUSH1 0x40 PUSH2 0x179F DUP8 DUP3 DUP9 ADD PUSH2 0x171A JUMP JUMPDEST SWAP3 POP POP PUSH1 0x60 PUSH2 0x17B0 DUP8 DUP3 DUP9 ADD PUSH2 0x1744 JUMP JUMPDEST SWAP2 POP POP SWAP3 SWAP6 SWAP2 SWAP5 POP SWAP3 POP JUMP JUMPDEST PUSH0 DUP3 DUP3 MSTORE PUSH1 0x20 DUP3 ADD SWAP1 POP SWAP3 SWAP2 POP POP JUMP JUMPDEST PUSH32 0x4E6F7420796F7572206C697374696E6700000000000000000000000000000000 PUSH0 DUP3 ADD MSTORE POP JUMP JUMPDEST PUSH0 PUSH2 0x1800 PUSH1 0x10 DUP4 PUSH2 0x17BC JUMP JUMPDEST SWAP2 POP PUSH2 0x180B DUP3 PUSH2 0x17CC JUMP JUMPDEST PUSH1 0x20 DUP3 ADD SWAP1 POP SWAP2 SWAP1 POP JUMP JUMPDEST PUSH0 PUSH1 0x20 DUP3 ADD SWAP1 POP DUP2 DUP2 SUB PUSH0 DUP4 ADD MSTORE PUSH2 0x182D DUP2 PUSH2 0x17F4 JUMP JUMPDEST SWAP1 POP SWAP2 SWAP1 POP JUMP JUMPDEST PUSH32 0x416C726561647920736F6C640000000000000000000000000000000000000000 PUSH0 DUP3 ADD MSTORE POP JUMP JUMPDEST PUSH0 PUSH2 0x1868 PUSH1 0xC DUP4 PUSH2 0x17BC JUMP JUMPDEST SWAP2 POP PUSH2 0x1873 DUP3 PUSH2 0x1834 JUMP JUMPDEST PUSH1 0x20 DUP3 ADD SWAP1 POP SWAP2 SWAP1 POP JUMP JUMPDEST PUSH0 PUSH1 0x20 DUP3 ADD SWAP1 POP DUP2 DUP2 SUB PUSH0 DUP4 ADD MSTORE PUSH2 0x1895 DUP2 PUSH2 0x185C JUMP JUMPDEST SWAP1 POP SWAP2 SWAP1 POP JUMP JUMPDEST PUSH0 PUSH1 0x60 DUP3 ADD SWAP1 POP PUSH2 0x18AF PUSH0 DUP4 ADD DUP7 PUSH2 0x15FC JUMP JUMPDEST PUSH2 0x18BC PUSH1 0x20 DUP4 ADD DUP6 PUSH2 0x15FC JUMP JUMPDEST PUSH2 0x18C9 PUSH1 0x40 DUP4 ADD DUP5 PUSH2 0x1532 JUMP JUMPDEST SWAP5 SWAP4 POP POP POP POP JUMP JUMPDEST PUSH32 0x4E6F74206D61726B6574706C616365206F776E65720000000000000000000000 PUSH0 DUP3 ADD MSTORE POP JUMP JUMPDEST PUSH0 PUSH2 0x1905 PUSH1 0x15 DUP4 PUSH2 0x17BC JUMP JUMPDEST SWAP2 POP PUSH2 0x1910 DUP3 PUSH2 0x18D1 JUMP JUMPDEST PUSH1 0x20 DUP3 ADD SWAP1 POP SWAP2 SWAP1 POP JUMP JUMPDEST PUSH0 PUSH1 0x20 DUP3 ADD SWAP1 POP DUP2 DUP2 SUB PUSH0 DUP4 ADD MSTORE PUSH2 0x1932 DUP2 PUSH2 0x18F9 JUMP JUMPDEST SWAP1 POP SWAP2 SWAP1 POP JUMP JUMPDEST PUSH32 0x4E6F2066756E6473000000000000000000000000000000000000000000000000 PUSH0 DUP3 ADD MSTORE POP JUMP JUMPDEST PUSH0 PUSH2 0x196D PUSH1 0x8 DUP4 PUSH2 0x17BC JUMP JUMPDEST SWAP2 POP PUSH2 0x1978 DUP3 PUSH2 0x1939 JUMP JUMPDEST PUSH1 0x20 DUP3 ADD SWAP1 POP SWAP2 SWAP1 POP JUMP JUMPDEST PUSH0 PUSH1 0x20 DUP3 ADD SWAP1 POP DUP2 DUP2 SUB PUSH0 DUP4 ADD MSTORE PUSH2 0x199A DUP2 PUSH2 0x1961 JUMP JUMPDEST SWAP1 POP SWAP2 SWAP1 POP JUMP JUMPDEST PUSH32 0x496E73756666696369656E74207061796D656E74000000000000000000000000 PUSH0 DUP3 ADD MSTORE POP JUMP JUMPDEST PUSH0 PUSH2 0x19D5 PUSH1 0x14 DUP4 PUSH2 0x17BC JUMP JUMPDEST SWAP2 POP PUSH2 0x19E0 DUP3 PUSH2 0x19A1 JUMP JUMPDEST PUSH1 0x20 DUP3 ADD SWAP1 POP SWAP2 SWAP1 POP JUMP JUMPDEST PUSH0 PUSH1 0x20 DUP3 ADD SWAP1 POP DUP2 DUP2 SUB PUSH0 DUP4 ADD MSTORE PUSH2 0x1A02 DUP2 PUSH2 0x19C9 JUMP JUMPDEST SWAP1 POP SWAP2 SWAP1 POP JUMP JUMPDEST PUSH32 0x4E487B7100000000000000000000000000000000000000000000000000000000 PUSH0 MSTORE PUSH1 0x11 PUSH1 0x4 MSTORE PUSH1 0x24 PUSH0 REVERT JUMPDEST PUSH0 PUSH2 0x1A40 DUP3 PUSH2 0x13BA JUMP JUMPDEST SWAP2 POP PUSH2 0x1A4B DUP4 PUSH2 0x13BA JUMP JUMPDEST SWAP3 POP DUP3 DUP3 MUL PUSH2 0x1A59 DUP2 PUSH2 0x13BA JUMP JUMPDEST SWAP2 POP DUP3 DUP3 DIV DUP5 EQ DUP4 ISZERO OR PUSH2 0x1A70 JUMPI PUSH2 0x1A6F PUSH2 0x1A09 JUMP JUMPDEST JUMPDEST POP SWAP3 SWAP2 POP POP JUMP JUMPDEST PUSH32 0x4E487B7100000000000000000000000000000000000000000000000000000000 PUSH0 MSTORE PUSH1 0x12 PUSH1 0x4 MSTORE PUSH1 0x24 PUSH0 REVERT JUMPDEST PUSH0 PUSH2 0x1AAE DUP3 PUSH2 0x13BA JUMP JUMPDEST SWAP2 POP PUSH2 0x1AB9 DUP4 PUSH2 0x13BA JUMP JUMPDEST SWAP3 POP DUP3 PUSH2 0x1AC9 JUMPI PUSH2 0x1AC8 PUSH2 0x1A77 JUMP JUMPDEST JUMPDEST DUP3 DUP3 DIV SWAP1 POP SWAP3 SWAP2 POP POP JUMP JUMPDEST PUSH0 PUSH2 0x1ADE DUP3 PUSH2 0x13BA JUMP JUMPDEST SWAP2 POP PUSH2 0x1AE9 DUP4 PUSH2 0x13BA JUMP JUMPDEST SWAP3 POP DUP3 DUP3 SUB SWAP1 POP DUP2 DUP2 GT ISZERO PUSH2 0x1B01 JUMPI PUSH2 0x1B00 PUSH2 0x1A09 JUMP JUMPDEST JUMPDEST SWAP3 SWAP2 POP POP JUMP JUMPDEST PUSH0 PUSH1 0x40 DUP3 ADD SWAP1 POP PUSH2 0x1B1A PUSH0 DUP4 ADD DUP6 PUSH2 0x15FC JUMP JUMPDEST PUSH2 0x1B27 PUSH1 0x20 DUP4 ADD DUP5 PUSH2 0x1532 JUMP JUMPDEST SWAP4 SWAP3 POP POP POP JUMP JUMPDEST PUSH32 0x5072696365206D757374206265203E2030000000000000000000000000000000 PUSH0 DUP3 ADD MSTORE POP JUMP JUMPDEST PUSH0 PUSH2 0x1B62 PUSH1 0x11 DUP4 PUSH2 0x17BC JUMP JUMPDEST SWAP2 POP PUSH2 0x1B6D DUP3 PUSH2 0x1B2E JUMP JUMPDEST PUSH1 0x20 DUP3 ADD SWAP1 POP SWAP2 SWAP1 POP JUMP JUMPDEST PUSH0 PUSH1 0x20 DUP3 ADD SWAP1 POP DUP2 DUP2 SUB PUSH0 DUP4 ADD MSTORE PUSH2 0x1B8F DUP2 PUSH2 0x1B56 JUMP JUMPDEST SWAP1 POP SWAP2 SWAP1 POP JUMP JUMPDEST PUSH32 0x506179206578616374206C697374696E67206665650000000000000000000000 PUSH0 DUP3 ADD MSTORE POP JUMP JUMPDEST PUSH0 PUSH2 0x1BCA PUSH1 0x15 DUP4 PUSH2 0x17BC JUMP JUMPDEST SWAP2 POP PUSH2 0x1BD5 DUP3 PUSH2 0x1B96 JUMP JUMPDEST PUSH1 0x20 DUP3 ADD SWAP1 POP SWAP2 SWAP1 POP JUMP JUMPDEST PUSH0 PUSH1 0x20 DUP3 ADD SWAP1 POP DUP2 DUP2 SUB PUSH0 DUP4 ADD MSTORE PUSH2 0x1BF7 DUP2 PUSH2 0x1BBE JUMP JUMPDEST SWAP1 POP SWAP2 SWAP1 POP JUMP JUMPDEST PUSH32 0x4D61782031302500000000000000000000000000000000000000000000000000 PUSH0 DUP3 ADD MSTORE POP JUMP JUMPDEST PUSH0 PUSH2 0x1C32 PUSH1 0x7 DUP4 PUSH2 0x17BC JUMP JUMPDEST SWAP2 POP PUSH2 0x1C3D DUP3 PUSH2 0x1BFE JUMP JUMPDEST PUSH1 0x20 DUP3 ADD SWAP1 POP SWAP2 SWAP1 POP JUMP JUMPDEST PUSH0 PUSH1 0x20 DUP3 ADD SWAP1 POP DUP2 DUP2 SUB PUSH0 DUP4 ADD MSTORE PUSH2 0x1C5F DUP2 PUSH2 0x1C26 JUMP JUMPDEST SWAP1 POP SWAP2 SWAP1 POP JUMP JUMPDEST PUSH32 0x496E76616C69642063726561746F720000000000000000000000000000000000 PUSH0 DUP3 ADD MSTORE POP JUMP JUMPDEST PUSH0 PUSH2 0x1C9A PUSH1 0xF DUP4 PUSH2 0x17BC JUMP JUMPDEST SWAP2 POP PUSH2 0x1CA5 DUP3 PUSH2 0x1C66 JUMP JUMPDEST PUSH1 0x20 DUP3 ADD SWAP1 POP SWAP2 SWAP1 POP JUMP JUMPDEST PUSH0 PUSH1 0x20 DUP3 ADD SWAP1 POP DUP2 DUP2 SUB PUSH0 DUP4 ADD MSTORE PUSH2 0x1CC7 DUP2 PUSH2 0x1C8E JUMP JUMPDEST SWAP1 POP SWAP2 SWAP1 POP JUMP JUMPDEST PUSH0 PUSH1 0x20 DUP3 ADD SWAP1 POP PUSH2 0x1CE1 PUSH0 DUP4 ADD DUP5 PUSH2 0x16CE JUMP JUMPDEST SWAP3 SWAP2 POP POP JUMP JUMPDEST PUSH32 0x5265656E7472616E637947756172643A207265656E7472616E742063616C6C00 PUSH0 DUP3 ADD MSTORE POP JUMP JUMPDEST PUSH0 PUSH2 0x1D1B PUSH1 0x1F DUP4 PUSH2 0x17BC JUMP JUMPDEST SWAP2 POP PUSH2 0x1D26 DUP3 PUSH2 0x1CE7 JUMP JUMPDEST PUSH1 0x20 DUP3 ADD SWAP1 POP SWAP2 SWAP1 POP JUMP JUMPDEST PUSH0 PUSH1 0x20 DUP3 ADD SWAP1 POP DUP2 DUP2 SUB PUSH0 DUP4 ADD MSTORE PUSH2 0x1D48 DUP2 PUSH2 0x1D0F JUMP JUMPDEST SWAP1 POP SWAP2 SWAP1 POP JUMP JUMPDEST PUSH0 PUSH1 0x40 DUP3 ADD SWAP1 POP PUSH2 0x1D62 PUSH0 DUP4 ADD DUP6 PUSH2 0x1532 JUMP JUMPDEST PUSH2 0x1D6F PUSH1 0x20 DUP4 ADD DUP5 PUSH2 0x1532 JUMP JUMPDEST SWAP4 SWAP3 POP POP POP JUMP JUMPDEST PUSH0 DUP2 SWAP1 POP SWAP3 SWAP2 POP POP JUMP JUMPDEST POP JUMP JUMPDEST PUSH0 PUSH2 0x1D8E PUSH0 DUP4 PUSH2 0x1D76 JUMP JUMPDEST SWAP2 POP PUSH2 0x1D99 DUP3 PUSH2 0x1D80 JUMP JUMPDEST PUSH0 DUP3 ADD SWAP1 POP SWAP2 SWAP1 POP JUMP JUMPDEST PUSH0 PUSH2 0x1DAD DUP3 PUSH2 0x1D83 JUMP JUMPDEST SWAP2 POP DUP2 SWAP1 POP SWAP2 SWAP1 POP JUMP INVALID LOG2 PUSH5 0x6970667358 0x22 SLT KECCAK256 PUSH4 0xAA0F3CA8 NOT CODESIZE CALLER DUP3 PUSH22 0x9D9797E9538C36AD4931669D8E4D73C717036E7DBD6F PUSH5 0x736F6C6343 STOP ADDMOD 0x1E STOP CALLER "
				},
				"gasEstimates": {
					"creation": {
						"codeDepositCost": "1532200",
						"executionCost": "70085",
						"totalCost": "1602285"
					},
					"external": {
						"buyNFT(uint256)": "infinite",
						"cancelListing(uint256)": "infinite",
						"getListing(uint256)": "infinite",
						"getUnsoldItemsCount()": "infinite",
						"listNFT(address,uint256,uint256)": "infinite",
						"listingFee()": "2514",
						"listings(uint256)": "infinite",
						"owner()": "2619",
						"royalties(address,uint256)": "infinite",
						"setRoyalty(address,uint256,address,uint96)": "infinite",
						"updateListingFee(uint256)": "infinite",
						"withdrawFees()": "infinite"
					}
				},
				"methodIdentifiers": {
					"buyNFT(uint256)": "51ed8288",
					"cancelListing(uint256)": "305a67a8",
					"getListing(uint256)": "107a274a",
					"getUnsoldItemsCount()": "e91b272a",
					"listNFT(address,uint256,uint256)": "ad05f1b4",
					"listingFee()": "6a1b7ecc",
					"listings(uint256)": "de74e57b",
					"owner()": "8da5cb5b",
					"royalties(address,uint256)": "e1e549c4",
					"setRoyalty(address,uint256,address,uint96)": "f109c681",
					"updateListingFee(uint256)": "f79d91ae",
					"withdrawFees()": "476343ee"
				}
			},
			"storageLayout": {
				"storage": [
					{
						"astId": 10,
						"contract": "NFTMarketplace.sol:NFTMarketplace",
						"label": "_status",
						"offset": 0,
						"slot": "0",
						"type": "t_uint256"
					},
					{
						"astId": 585,
						"contract": "NFTMarketplace.sol:NFTMarketplace",
						"label": "_listingIds",
						"offset": 0,
						"slot": "1",
						"type": "t_struct(Counter)447_storage"
					},
					{
						"astId": 588,
						"contract": "NFTMarketplace.sol:NFTMarketplace",
						"label": "_itemsSold",
						"offset": 0,
						"slot": "2",
						"type": "t_struct(Counter)447_storage"
					},
					{
						"astId": 593,
						"contract": "NFTMarketplace.sol:NFTMarketplace",
						"label": "listings",
						"offset": 0,
						"slot": "3",
						"type": "t_mapping(t_uint256,t_struct(Listing)577_storage)"
					},
					{
						"astId": 600,
						"contract": "NFTMarketplace.sol:NFTMarketplace",
						"label": "royalties",
						"offset": 0,
						"slot": "4",
						"type": "t_mapping(t_address,t_mapping(t_uint256,t_struct(RoyaltyInfo)582_storage))"
					},
					{
						"astId": 603,
						"contract": "NFTMarketplace.sol:NFTMarketplace",
						"label": "listingFee",
						"offset": 0,
						"slot": "5",
						"type": "t_uint256"
					},
					{
						"astId": 605,
						"contract": "NFTMarketplace.sol:NFTMarketplace",
						"label": "owner",
						"offset": 0,
						"slot": "6",
						"type": "t_address_payable"
					}
				],
				"types": {
					"t_address": {
						"encoding": "inplace",
						"label": "address",
						"numberOfBytes": "20"
					},
					"t_address_payable": {
						"encoding": "inplace",
						"label": "address payable",
						"numberOfBytes": "20"
					},
					"t_bool": {
						"encoding": "inplace",
						"label": "bool",
						"numberOfBytes": "1"
					},
					"t_mapping(t_address,t_mapping(t_uint256,t_struct(RoyaltyInfo)582_storage))": {
						"encoding": "mapping",
						"key": "t_address",
						"label": "mapping(address => mapping(uint256 => struct NFTMarketplace.RoyaltyInfo))",
						"numberOfBytes": "32",
						"value": "t_mapping(t_uint256,t_struct(RoyaltyInfo)582_storage)"
					},
					"t_mapping(t_uint256,t_struct(Listing)577_storage)": {
						"encoding": "mapping",
						"key": "t_uint256",
						"label": "mapping(uint256 => struct NFTMarketplace.Listing)",
						"numberOfBytes": "32",
						"value": "t_struct(Listing)577_storage"
					},
					"t_mapping(t_uint256,t_struct(RoyaltyInfo)582_storage)": {
						"encoding": "mapping",
						"key": "t_uint256",
						"label": "mapping(uint256 => struct NFTMarketplace.RoyaltyInfo)",
						"numberOfBytes": "32",
						"value": "t_struct(RoyaltyInfo)582_storage"
					},
					"t_struct(Counter)447_storage": {
						"encoding": "inplace",
						"label": "struct Counters.Counter",
						"members": [
							{
								"astId": 446,
								"contract": "NFTMarketplace.sol:NFTMarketplace",
								"label": "_value",
								"offset": 0,
								"slot": "0",
								"type": "t_uint256"
							}
						],
						"numberOfBytes": "32"
					},
					"t_struct(Listing)577_storage": {
						"encoding": "inplace",
						"label": "struct NFTMarketplace.Listing",
						"members": [
							{
								"astId": 566,
								"contract": "NFTMarketplace.sol:NFTMarketplace",
								"label": "listingId",
								"offset": 0,
								"slot": "0",
								"type": "t_uint256"
							},
							{
								"astId": 568,
								"contract": "NFTMarketplace.sol:NFTMarketplace",
								"label": "nftContract",
								"offset": 0,
								"slot": "1",
								"type": "t_address"
							},
							{
								"astId": 570,
								"contract": "NFTMarketplace.sol:NFTMarketplace",
								"label": "tokenId",
								"offset": 0,
								"slot": "2",
								"type": "t_uint256"
							},
							{
								"astId": 572,
								"contract": "NFTMarketplace.sol:NFTMarketplace",
								"label": "seller",
								"offset": 0,
								"slot": "3",
								"type": "t_address_payable"
							},
							{
								"astId": 574,
								"contract": "NFTMarketplace.sol:NFTMarketplace",
								"label": "price",
								"offset": 0,
								"slot": "4",
								"type": "t_uint256"
							},
							{
								"astId": 576,
								"contract": "NFTMarketplace.sol:NFTMarketplace",
								"label": "sold",
								"offset": 0,
								"slot": "5",
								"type": "t_bool"
							}
						],
						"numberOfBytes": "192"
					},
					"t_struct(RoyaltyInfo)582_storage": {
						"encoding": "inplace",
						"label": "struct NFTMarketplace.RoyaltyInfo",
						"members": [
							{
								"astId": 579,
								"contract": "NFTMarketplace.sol:NFTMarketplace",
								"label": "creator",
								"offset": 0,
								"slot": "0",
								"type": "t_address_payable"
							},
							{
								"astId": 581,
								"contract": "NFTMarketplace.sol:NFTMarketplace",
								"label": "royaltyFraction",
								"offset": 20,
								"slot": "0",
								"type": "t_uint96"
							}
						],
						"numberOfBytes": "32"
					},
					"t_uint256": {
						"encoding": "inplace",
						"label": "uint256",
						"numberOfBytes": "32"
					},
					"t_uint96": {
						"encoding": "inplace",
						"label": "uint96",
						"numberOfBytes": "12"
					}
				}
			},
			"userdoc": {
				"kind": "user",
				"methods": {
					"buyNFT(uint256)": {
						"notice": "Buy a listed NFT."
					},
					"cancelListing(uint256)": {
						"notice": "Cancel a listing and return the NFT to the seller."
					},
					"listNFT(address,uint256,uint256)": {
						"notice": "List an NFT for sale."
					},
					"setRoyalty(address,uint256,address,uint96)": {
						"notice": "Set royalty info for an NFT."
					}
				},
				"version": 1
			}
		}
	}
}