{"abi":[{"type":"constructor","inputs":[{"name":"_decimals","type":"uint8","internalType":"uint8"},{"name":"_initialAnswer","type":"int256","internalType":"int256"}],"stateMutability":"nonpayable"},{"type":"function","name":"answer","inputs":[],"outputs":[{"name":"","type":"int256","internalType":"int256"}],"stateMutability":"view"},{"type":"function","name":"decimals","inputs":[],"outputs":[{"name":"","type":"uint8","internalType":"uint8"}],"stateMutability":"view"},{"type":"function","name":"latestRoundData","inputs":[],"outputs":[{"name":"","type":"uint80","internalType":"uint80"},{"name":"","type":"int256","internalType":"int256"},{"name":"","type":"uint256","internalType":"uint256"},{"name":"","type":"uint256","internalType":"uint256"},{"name":"","type":"uint80","internalType":"uint80"}],"stateMutability":"view"},{"type":"function","name":"updateAnswer","inputs":[{"name":"_new","type":"int256","internalType":"int256"}],"outputs":[],"stateMutability":"nonpayable"}],"bytecode":{"object":"0x60a060405234801561000f575f80fd5b506040516103a53803806103a5833981810160405281019061003191906100b9565b8160ff1660808160ff1681525050805f8190555050506100f7565b5f80fd5b5f60ff82169050919050565b61006581610050565b811461006f575f80fd5b50565b5f815190506100808161005c565b92915050565b5f819050919050565b61009881610086565b81146100a2575f80fd5b50565b5f815190506100b38161008f565b92915050565b5f80604083850312156100cf576100ce61004c565b5b5f6100dc85828601610072565b92505060206100ed858286016100a5565b9150509250929050565b60805161029761010e5f395f60ca01526102975ff3fe608060405234801561000f575f80fd5b506004361061004a575f3560e01c8063313ce5671461004e57806385bb7d691461006c578063a87a20ce1461008a578063feaf968c146100a6575b5f80fd5b6100566100c8565b6040516100639190610131565b60405180910390f35b6100746100ec565b6040516100819190610162565b60405180910390f35b6100a4600480360381019061009f91906101a9565b6100f1565b005b6100ae6100fa565b6040516100bf959493929190610210565b60405180910390f35b7f000000000000000000000000000000000000000000000000000000000000000081565b5f5481565b805f8190555050565b5f805f805f805f545f805f945094509450945094509091929394565b5f60ff82169050919050565b61012b81610116565b82525050565b5f6020820190506101445f830184610122565b92915050565b5f819050919050565b61015c8161014a565b82525050565b5f6020820190506101755f830184610153565b92915050565b5f80fd5b6101888161014a565b8114610192575f80fd5b50565b5f813590506101a38161017f565b92915050565b5f602082840312156101be576101bd61017b565b5b5f6101cb84828501610195565b91505092915050565b5f69ffffffffffffffffffff82169050919050565b6101f2816101d4565b82525050565b5f819050919050565b61020a816101f8565b82525050565b5f60a0820190506102235f8301886101e9565b6102306020830187610153565b61023d6040830186610201565b61024a6060830185610201565b61025760808301846101e9565b969550505050505056fea2646970667358221220f877c04d37f0d348f992b73911073ff07a0d7ffc7b5b056bf01398a14ff4784564736f6c63430008180033","linkReferences":{}},"methodIdentifiers":{"answer()":"85bb7d69","decimals()":"313ce567","latestRoundData()":"feaf968c","updateAnswer(int256)":"a87a20ce"},"id":33}