{"abi":[{"type":"receive","stateMutability":"payable"},{"type":"function","name":"balances","inputs":[{"name":"","type":"address","internalType":"address"}],"outputs":[{"name":"","type":"uint256","internalType":"uint256"}],"stateMutability":"view"},{"type":"function","name":"borrow","inputs":[{"name":"lender","type":"address","internalType":"address"},{"name":"amount","type":"uint256","internalType":"uint256"}],"outputs":[],"stateMutability":"nonpayable"},{"type":"function","name":"debts","inputs":[{"name":"","type":"address","internalType":"address"},{"name":"","type":"address","internalType":"address"}],"outputs":[{"name":"","type":"uint256","internalType":"uint256"}],"stateMutability":"view"},{"type":"function","name":"deposit","inputs":[],"outputs":[],"stateMutability":"payable"},{"type":"function","name":"getDebt","inputs":[{"name":"borrower","type":"address","internalType":"address"},{"name":"lender","type":"address","internalType":"address"}],"outputs":[{"name":"","type":"uint256","internalType":"uint256"}],"stateMutability":"view"},{"type":"function","name":"repay","inputs":[{"name":"lender","type":"address","internalType":"address"}],"outputs":[],"stateMutability":"payable"},{"type":"function","name":"withdraw","inputs":[{"name":"amount","type":"uint256","internalType":"uint256"}],"outputs":[],"stateMutability":"nonpayable"},{"type":"event","name":"Borrowed","inputs":[{"name":"borrower","type":"address","indexed":true,"internalType":"address"},{"name":"lender","type":"address","indexed":true,"internalType":"address"},{"name":"amount","type":"uint256","indexed":false,"internalType":"uint256"}],"anonymous":false},{"type":"event","name":"Deposited","inputs":[{"name":"user","type":"address","indexed":true,"internalType":"address"},{"name":"amount","type":"uint256","indexed":false,"internalType":"uint256"}],"anonymous":false},{"type":"event","name":"Repaid","inputs":[{"name":"borrower","type":"address","indexed":true,"internalType":"address"},{"name":"lender","type":"address","indexed":true,"internalType":"address"},{"name":"amount","type":"uint256","indexed":false,"internalType":"uint256"}],"anonymous":false},{"type":"event","name":"Withdrawn","inputs":[{"name":"user","type":"address","indexed":true,"internalType":"address"},{"name":"amount","type":"uint256","indexed":false,"internalType":"uint256"}],"anonymous":false}],"bytecode":{"object":"0x6080604052348015600e575f5ffd5b50610fac8061001c5f395ff3fe608060405260043610610073575f3560e01c80634ac1c33d1161004d5780634ac1c33d146102005780634b8a35291461023c5780639f7c73e914610264578063d0e30db0146102805761015c565b806327e235e3146101605780632e1a7d4d1461019c578063498b5ae8146101c45761015c565b3661015c575f34116100ba576040517f08c379a00000000000000000000000000000000000000000000000000000000081526004016100b190610aa4565b60405180910390fd5b345f5f3373ffffffffffffffffffffffffffffffffffffffff1673ffffffffffffffffffffffffffffffffffffffff1681526020019081526020015f205f8282546101059190610af8565b925050819055503373ffffffffffffffffffffffffffffffffffffffff167f2da466a7b24304f47e87fa2e1e5a81b9831ce54fec19055ce277ca2f39ba42c4346040516101529190610b3a565b60405180910390a2005b5f5ffd5b34801561016b575f5ffd5b5061018660048036038101906101819190610bb1565b61028a565b6040516101939190610b3a565b60405180910390f35b3480156101a7575f5ffd5b506101c260048036038101906101bd9190610c06565b61029e565b005b3480156101cf575f5ffd5b506101ea60048036038101906101e59190610c31565b610404565b6040516101f79190610b3a565b60405180910390f35b34801561020b575f5ffd5b5061022660048036038101906102219190610c31565b610486565b6040516102339190610b3a565b60405180910390f35b348015610247575f5ffd5b50610262600480360381019061025d9190610c6f565b6104a6565b005b61027e60048036038101906102799190610bb1565b61072e565b005b610288610966565b005b5f602052805f5260405f205f915090505481565b805f5f3373ffffffffffffffffffffffffffffffffffffffff1673ffffffffffffffffffffffffffffffffffffffff1681526020019081526020015f2054101561031d576040517f08c379a000000000000000000000000000000000000000000000000000000000815260040161031490610cf7565b60405180910390fd5b805f5f3373ffffffffffffffffffffffffffffffffffffffff1673ffffffffffffffffffffffffffffffffffffffff1681526020019081526020015f205f8282546103689190610d15565b925050819055503373ffffffffffffffffffffffffffffffffffffffff166108fc8290811502906040515f60405180830381858888f193505050501580156103b2573d5f5f3e3d5ffd5b503373ffffffffffffffffffffffffffffffffffffffff167f7084f5476618d8e60b11ef0d7d3f06914655adb8793e28ff7f018d4c76d505d5826040516103f99190610b3a565b60405180910390a250565b5f60015f8473ffffffffffffffffffffffffffffffffffffffff1673ffffffffffffffffffffffffffffffffffffffff1681526020019081526020015f205f8373ffffffffffffffffffffffffffffffffffffffff1673ffffffffffffffffffffffffffffffffffffffff1681526020019081526020015f2054905092915050565b6001602052815f5260405f20602052805f5260405f205f91509150505481565b3373ffffffffffffffffffffffffffffffffffffffff168273ffffffffffffffffffffffffffffffffffffffff1603610514576040517f08c379a000000000000000000000000000000000000000000000000000000000815260040161050b90610d92565b60405180910390fd5b805f5f8473ffffffffffffffffffffffffffffffffffffffff1673ffffffffffffffffffffffffffffffffffffffff1681526020019081526020015f20541015610593576040517f08c379a000000000000000000000000000000000000000000000000000000000815260040161058a90610e20565b60405180910390fd5b8060015f3373ffffffffffffffffffffffffffffffffffffffff1673ffffffffffffffffffffffffffffffffffffffff1681526020019081526020015f205f8473ffffffffffffffffffffffffffffffffffffffff1673ffffffffffffffffffffffffffffffffffffffff1681526020019081526020015f205f82825461061a9190610af8565b92505081905550805f5f8473ffffffffffffffffffffffffffffffffffffffff1673ffffffffffffffffffffffffffffffffffffffff1681526020019081526020015f205f82825461066c9190610d15565b92505081905550805f5f3373ffffffffffffffffffffffffffffffffffffffff1673ffffffffffffffffffffffffffffffffffffffff1681526020019081526020015f205f8282546106be9190610af8565b925050819055508173ffffffffffffffffffffffffffffffffffffffff163373ffffffffffffffffffffffffffffffffffffffff167f3fc499aeb0bb1cb58b6de8b02b3f86f4e7394e9690bef0110e32ced8a5631045836040516107229190610b3a565b60405180910390a35050565b5f60015f3373ffffffffffffffffffffffffffffffffffffffff1673ffffffffffffffffffffffffffffffffffffffff1681526020019081526020015f205f8373ffffffffffffffffffffffffffffffffffffffff1673ffffffffffffffffffffffffffffffffffffffff1681526020019081526020015f205490505f81116107ec576040517f08c379a00000000000000000000000000000000000000000000000000000000081526004016107e390610e88565b60405180910390fd5b80341461082e576040517f08c379a000000000000000000000000000000000000000000000000000000000815260040161082590610ef0565b60405180910390fd5b5f60015f3373ffffffffffffffffffffffffffffffffffffffff1673ffffffffffffffffffffffffffffffffffffffff1681526020019081526020015f205f8473ffffffffffffffffffffffffffffffffffffffff1673ffffffffffffffffffffffffffffffffffffffff1681526020019081526020015f2081905550345f5f8473ffffffffffffffffffffffffffffffffffffffff1673ffffffffffffffffffffffffffffffffffffffff1681526020019081526020015f205f8282546108f69190610af8565b925050819055508173ffffffffffffffffffffffffffffffffffffffff163373ffffffffffffffffffffffffffffffffffffffff167f0a3fbbea70e93f2daafa3102f5c9a1b8315e6d7a1e43e4bc020bc1162327470a3460405161095a9190610b3a565b60405180910390a35050565b5f34116109a8576040517f08c379a000000000000000000000000000000000000000000000000000000000815260040161099f90610f58565b60405180910390fd5b345f5f3373ffffffffffffffffffffffffffffffffffffffff1673ffffffffffffffffffffffffffffffffffffffff1681526020019081526020015f205f8282546109f39190610af8565b925050819055503373ffffffffffffffffffffffffffffffffffffffff167f2da466a7b24304f47e87fa2e1e5a81b9831ce54fec19055ce277ca2f39ba42c434604051610a409190610b3a565b60405180910390a2565b5f82825260208201905092915050565b7f43616e6e6f742073656e642030204554480000000000000000000000000000005f82015250565b5f610a8e601183610a4a565b9150610a9982610a5a565b602082019050919050565b5f6020820190508181035f830152610abb81610a82565b9050919050565b5f819050919050565b7f4e487b71000000000000000000000000000000000000000000000000000000005f52601160045260245ffd5b5f610b0282610ac2565b9150610b0d83610ac2565b9250828201905080821115610b2557610b24610acb565b5b92915050565b610b3481610ac2565b82525050565b5f602082019050610b4d5f830184610b2b565b92915050565b5f5ffd5b5f73ffffffffffffffffffffffffffffffffffffffff82169050919050565b5f610b8082610b57565b9050919050565b610b9081610b76565b8114610b9a575f5ffd5b50565b5f81359050610bab81610b87565b92915050565b5f60208284031215610bc657610bc5610b53565b5b5f610bd384828501610b9d565b91505092915050565b610be581610ac2565b8114610bef575f5ffd5b50565b5f81359050610c0081610bdc565b92915050565b5f60208284031215610c1b57610c1a610b53565b5b5f610c2884828501610bf2565b91505092915050565b5f5f60408385031215610c4757610c46610b53565b5b5f610c5485828601610b9d565b9250506020610c6585828601610b9d565b9150509250929050565b5f5f60408385031215610c8557610c84610b53565b5b5f610c9285828601610b9d565b9250506020610ca385828601610bf2565b9150509250929050565b7f496e73756666696369656e742062616c616e63650000000000000000000000005f82015250565b5f610ce1601483610a4a565b9150610cec82610cad565b602082019050919050565b5f6020820190508181035f830152610d0e81610cd5565b9050919050565b5f610d1f82610ac2565b9150610d2a83610ac2565b9250828203905081811115610d4257610d41610acb565b5b92915050565b7f43616e6e6f7420626f72726f772066726f6d20796f757273656c6600000000005f82015250565b5f610d7c601b83610a4a565b9150610d8782610d48565b602082019050919050565b5f6020820190508181035f830152610da981610d70565b9050919050565b7f4c656e64657220646f6573206e6f74206861766520656e6f7567682062616c615f8201527f6e63650000000000000000000000000000000000000000000000000000000000602082015250565b5f610e0a602383610a4a565b9150610e1582610db0565b604082019050919050565b5f6020820190508181035f830152610e3781610dfe565b9050919050565b7f4e6f206465627420666f756e64000000000000000000000000000000000000005f82015250565b5f610e72600d83610a4a565b9150610e7d82610e3e565b602082019050919050565b5f6020820190508181035f830152610e9f81610e66565b9050919050565b7f53656e642065786163742072657061796d656e7420616d6f756e7400000000005f82015250565b5f610eda601b83610a4a565b9150610ee582610ea6565b602082019050919050565b5f6020820190508181035f830152610f0781610ece565b9050919050565b7f4465706f73697420616d6f756e74206d757374206265203e20300000000000005f82015250565b5f610f42601a83610a4a565b9150610f4d82610f0e565b602082019050919050565b5f6020820190508181035f830152610f6f81610f36565b905091905056fea26469706673582212204bace6fb3b001544f3ceb32390db95214e874d6a291ef2b9bc30f7a4e36c9d5764736f6c634300081e0033","linkReferences":{}},"methodIdentifiers":{"balances(address)":"27e235e3","borrow(address,uint256)":"4b8a3529","debts(address,address)":"4ac1c33d","deposit()":"d0e30db0","getDebt(address,address)":"498b5ae8","repay(address)":"9f7c73e9","withdraw(uint256)":"2e1a7d4d"},"id":20}