{"abi":[{"type":"constructor","inputs":[{"name":"_biddingTime","type":"uint256","internalType":"uint256"}],"stateMutability":"nonpayable"},{"type":"function","name":"auctionEndTime","inputs":[],"outputs":[{"name":"","type":"uint256","internalType":"uint256"}],"stateMutability":"view"},{"type":"function","name":"auctionEnded","inputs":[],"outputs":[{"name":"","type":"bool","internalType":"bool"}],"stateMutability":"view"},{"type":"function","name":"bid","inputs":[],"outputs":[],"stateMutability":"payable"},{"type":"function","name":"bids","inputs":[{"name":"","type":"address","internalType":"address"}],"outputs":[{"name":"","type":"uint256","internalType":"uint256"}],"stateMutability":"view"},{"type":"function","name":"endAuction","inputs":[],"outputs":[],"stateMutability":"nonpayable"},{"type":"function","name":"highestBid","inputs":[],"outputs":[{"name":"","type":"uint256","internalType":"uint256"}],"stateMutability":"view"},{"type":"function","name":"highestBidder","inputs":[],"outputs":[{"name":"","type":"address","internalType":"address"}],"stateMutability":"view"},{"type":"function","name":"owner","inputs":[],"outputs":[{"name":"","type":"address","internalType":"address"}],"stateMutability":"view"},{"type":"function","name":"withdraw","inputs":[],"outputs":[{"name":"","type":"bool","internalType":"bool"}],"stateMutability":"nonpayable"},{"type":"event","name":"AuctionEnded","inputs":[{"name":"winner","type":"address","indexed":false,"internalType":"address"},{"name":"amount","type":"uint256","indexed":false,"internalType":"uint256"}],"anonymous":false},{"type":"event","name":"HighestBidIncreased","inputs":[{"name":"bidder","type":"address","indexed":false,"internalType":"address"},{"name":"amount","type":"uint256","indexed":false,"internalType":"uint256"}],"anonymous":false}],"bytecode":{"object":"0x608060405234801561000f575f5ffd5b50604051610bf4380380610bf4833981810160405281019061003191906100bf565b335f5f6101000a81548173ffffffffffffffffffffffffffffffffffffffff021916908373ffffffffffffffffffffffffffffffffffffffff160217905550804261007c9190610117565b6003819055505061014a565b5f5ffd5b5f819050919050565b61009e8161008c565b81146100a8575f5ffd5b50565b5f815190506100b981610095565b92915050565b5f602082840312156100d4576100d3610088565b5b5f6100e1848285016100ab565b91505092915050565b7f4e487b71000000000000000000000000000000000000000000000000000000005f52601160045260245ffd5b5f6101218261008c565b915061012c8361008c565b9250828201905080821115610144576101436100ea565b5b92915050565b610a9d806101575f395ff3fe608060405260043610610085575f3560e01c8063864333741161005857806386433374146101235780638da5cb5b1461014d57806391f9015714610177578063d57bde79146101a1578063fe67a54b146101cb57610085565b80631998aeef146100895780633ccfd60b146100935780634b449cba146100bd57806362ea82db146100e7575b5f5ffd5b6100916101e1565b005b34801561009e575f5ffd5b506100a76103b6565b6040516100b491906106f4565b60405180910390f35b3480156100c8575f5ffd5b506100d16104ec565b6040516100de9190610725565b60405180910390f35b3480156100f2575f5ffd5b5061010d6004803603810190610108919061079c565b6104f2565b60405161011a9190610725565b60405180910390f35b34801561012e575f5ffd5b50610137610507565b60405161014491906106f4565b60405180910390f35b348015610158575f5ffd5b50610161610519565b60405161016e91906107d6565b60405180910390f35b348015610182575f5ffd5b5061018b61053d565b60405161019891906107d6565b60405180910390f35b3480156101ac575f5ffd5b506101b5610562565b6040516101c29190610725565b60405180910390f35b3480156101d6575f5ffd5b506101df610568565b005b6003544210610225576040517f08c379a000000000000000000000000000000000000000000000000000000000815260040161021c90610849565b60405180910390fd5b6002543411610269576040517f08c379a0000000000000000000000000000000000000000000000000000000008152600401610260906108b1565b60405180910390fd5b5f73ffffffffffffffffffffffffffffffffffffffff1660015f9054906101000a900473ffffffffffffffffffffffffffffffffffffffff1673ffffffffffffffffffffffffffffffffffffffff16146103345760025460055f60015f9054906101000a900473ffffffffffffffffffffffffffffffffffffffff1673ffffffffffffffffffffffffffffffffffffffff1673ffffffffffffffffffffffffffffffffffffffff1681526020019081526020015f205f82825461032c91906108fc565b925050819055505b3360015f6101000a81548173ffffffffffffffffffffffffffffffffffffffff021916908373ffffffffffffffffffffffffffffffffffffffff160217905550346002819055507ff4757a49b326036464bec6fe419a4ae38c8a02ce3e68bf0809674f6aab8ad30033346040516103ac92919061092f565b60405180910390a1565b5f5f60055f3373ffffffffffffffffffffffffffffffffffffffff1673ffffffffffffffffffffffffffffffffffffffff1681526020019081526020015f205490505f811161043a576040517f08c379a0000000000000000000000000000000000000000000000000000000008152600401610431906109a0565b60405180910390fd5b5f60055f3373ffffffffffffffffffffffffffffffffffffffff1673ffffffffffffffffffffffffffffffffffffffff1681526020019081526020015f20819055505f3373ffffffffffffffffffffffffffffffffffffffff16826040516104a1906109eb565b5f6040518083038185875af1925050503d805f81146104db576040519150601f19603f3d011682016040523d82523d5f602084013e6104e0565b606091505b50509050809250505090565b60035481565b6005602052805f5260405f205f915090505481565b60045f9054906101000a900460ff1681565b5f5f9054906101000a900473ffffffffffffffffffffffffffffffffffffffff1681565b60015f9054906101000a900473ffffffffffffffffffffffffffffffffffffffff1681565b60025481565b6003544210156105ad576040517f08c379a00000000000000000000000000000000000000000000000000000000081526004016105a490610a49565b60405180910390fd5b60045f9054906101000a900460ff16156105fc576040517f08c379a00000000000000000000000000000000000000000000000000000000081526004016105f390610849565b60405180910390fd5b600160045f6101000a81548160ff0219169083151502179055507fdaec4582d5d9595688c8c98545fdd1c696d41c6aeaeb636737e84ed2f5c00eda60015f9054906101000a900473ffffffffffffffffffffffffffffffffffffffff1660025460405161066a92919061092f565b60405180910390a15f5f9054906101000a900473ffffffffffffffffffffffffffffffffffffffff1673ffffffffffffffffffffffffffffffffffffffff166108fc60025490811502906040515f60405180830381858888f193505050501580156106d7573d5f5f3e3d5ffd5b50565b5f8115159050919050565b6106ee816106da565b82525050565b5f6020820190506107075f8301846106e5565b92915050565b5f819050919050565b61071f8161070d565b82525050565b5f6020820190506107385f830184610716565b92915050565b5f5ffd5b5f73ffffffffffffffffffffffffffffffffffffffff82169050919050565b5f61076b82610742565b9050919050565b61077b81610761565b8114610785575f5ffd5b50565b5f8135905061079681610772565b92915050565b5f602082840312156107b1576107b061073e565b5b5f6107be84828501610788565b91505092915050565b6107d081610761565b82525050565b5f6020820190506107e95f8301846107c7565b92915050565b5f82825260208201905092915050565b7f41756374696f6e20616c726561647920656e64656421000000000000000000005f82015250565b5f6108336016836107ef565b915061083e826107ff565b602082019050919050565b5f6020820190508181035f83015261086081610827565b9050919050565b7f546865726520616c7265616479206973206120686967686572206269642100005f82015250565b5f61089b601e836107ef565b91506108a682610867565b602082019050919050565b5f6020820190508181035f8301526108c88161088f565b9050919050565b7f4e487b71000000000000000000000000000000000000000000000000000000005f52601160045260245ffd5b5f6109068261070d565b91506109118361070d565b9250828201905080821115610929576109286108cf565b5b92915050565b5f6040820190506109425f8301856107c7565b61094f6020830184610716565b9392505050565b7f4e6f2066756e647320746f2077697468647261770000000000000000000000005f82015250565b5f61098a6014836107ef565b915061099582610956565b602082019050919050565b5f6020820190508181035f8301526109b78161097e565b9050919050565b5f81905092915050565b50565b5f6109d65f836109be565b91506109e1826109c8565b5f82019050919050565b5f6109f5826109cb565b9150819050919050565b7f41756374696f6e206e6f742079657420656e64656421000000000000000000005f82015250565b5f610a336016836107ef565b9150610a3e826109ff565b602082019050919050565b5f6020820190508181035f830152610a6081610a27565b905091905056fea2646970667358221220ccbbf76fb5b7bc038fbe1e2c39b49ac8c4c22f7ac1476d414d65f6aac922784b64736f6c634300081e0033","linkReferences":{}},"methodIdentifiers":{"auctionEndTime()":"4b449cba","auctionEnded()":"86433374","bid()":"1998aeef","bids(address)":"62ea82db","endAuction()":"fe67a54b","highestBid()":"d57bde79","highestBidder()":"91f90157","owner()":"8da5cb5b","withdraw()":"3ccfd60b"},"id":20}