{"abi":[{"type":"constructor","inputs":[{"name":"initialOwner","type":"address","internalType":"address"}],"stateMutability":"nonpayable"},{"type":"function","name":"deposit","inputs":[],"outputs":[],"stateMutability":"payable"},{"type":"function","name":"getBalance","inputs":[],"outputs":[{"name":"","type":"uint256","internalType":"uint256"}],"stateMutability":"view"},{"type":"function","name":"owner","inputs":[],"outputs":[{"name":"","type":"address","internalType":"address"}],"stateMutability":"view"},{"type":"function","name":"premiumLimit","inputs":[],"outputs":[{"name":"","type":"uint256","internalType":"uint256"}],"stateMutability":"view"},{"type":"function","name":"transferOwnership","inputs":[{"name":"newOwner","type":"address","internalType":"address"}],"outputs":[],"stateMutability":"nonpayable"},{"type":"function","name":"withdraw","inputs":[{"name":"amount","type":"uint256","internalType":"uint256"}],"outputs":[],"stateMutability":"nonpayable"}],"bytecode":{"object":"0x6080604052678ac7230489e80000600155348015601a575f5ffd5b5060405161039e38038061039e833981016040819052603791605a565b5f80546001600160a01b0319166001600160a01b03929092169190911790556085565b5f602082840312156069575f5ffd5b81516001600160a01b0381168114607e575f5ffd5b9392505050565b61030c806100925f395ff3fe608060405260043610610054575f3560e01c806312065fe0146100585780632e1a7d4d146100795780638da5cb5b1461009a578063c359f946146100c0578063d0e30db0146100d5578063f2fde38b146100dd575b5f5ffd5b348015610063575f5ffd5b50475b6040519081526020015b60405180910390f35b348015610084575f5ffd5b50610098610093366004610292565b6100fc565b005b3480156100a5575f5ffd5b505f546040516001600160a01b039091168152602001610070565b3480156100cb575f5ffd5b5061006660015481565b6100986101ce565b3480156100e8575f5ffd5b506100986100f73660046102a9565b610228565b5f546001600160a01b0316331461014a5760405162461bcd60e51b815260206004820152600d60248201526c2737ba103a34329037bbb732b960991b60448201526064015b60405180910390fd5b6001548111156101945760405162461bcd60e51b8152602060048201526015602482015274115e18d959591cc81c1c995b5a5d5b481b1a5b5a5d605a1b6044820152606401610141565b5f80546040516001600160a01b039091169183156108fc02918491818181858888f193505050501580156101ca573d5f5f3e3d5ffd5b5050565b67016345785d8a00003410156102265760405162461bcd60e51b815260206004820152601860248201527f4d696e696d756d20302e312045544820726571756972656400000000000000006044820152606401610141565b565b5f546001600160a01b031633146102715760405162461bcd60e51b815260206004820152600d60248201526c2737ba103a34329037bbb732b960991b6044820152606401610141565b5f80546001600160a01b0319166001600160a01b0392909216919091179055565b5f602082840312156102a2575f5ffd5b5035919050565b5f602082840312156102b9575f5ffd5b81356001600160a01b03811681146102cf575f5ffd5b939250505056fea2646970667358221220242182d09156c54672ada0fb874754a3fbae17ac257480402807fd7c3356ba5864736f6c634300081e0033","linkReferences":{}},"methodIdentifiers":{"deposit()":"d0e30db0","getBalance()":"12065fe0","owner()":"8da5cb5b","premiumLimit()":"c359f946","transferOwnership(address)":"f2fde38b","withdraw(uint256)":"2e1a7d4d"},"id":23}