{"abi":[{"type":"constructor","inputs":[{"name":"_collateralToken","type":"address","internalType":"address"},{"name":"_initialOwner","type":"address","internalType":"address"},{"name":"_priceFeed","type":"address","internalType":"address"}],"stateMutability":"nonpayable"},{"type":"function","name":"DEFAULT_ADMIN_ROLE","inputs":[],"outputs":[{"name":"","type":"bytes32","internalType":"bytes32"}],"stateMutability":"view"},{"type":"function","name":"PRICE_FEED_MANAGER_ROLE","inputs":[],"outputs":[{"name":"","type":"bytes32","internalType":"bytes32"}],"stateMutability":"view"},{"type":"function","name":"allowance","inputs":[{"name":"owner","type":"address","internalType":"address"},{"name":"spender","type":"address","internalType":"address"}],"outputs":[{"name":"","type":"uint256","internalType":"uint256"}],"stateMutability":"view"},{"type":"function","name":"approve","inputs":[{"name":"spender","type":"address","internalType":"address"},{"name":"value","type":"uint256","internalType":"uint256"}],"outputs":[{"name":"","type":"bool","internalType":"bool"}],"stateMutability":"nonpayable"},{"type":"function","name":"balanceOf","inputs":[{"name":"account","type":"address","internalType":"address"}],"outputs":[{"name":"","type":"uint256","internalType":"uint256"}],"stateMutability":"view"},{"type":"function","name":"collateralDecimals","inputs":[],"outputs":[{"name":"","type":"uint8","internalType":"uint8"}],"stateMutability":"view"},{"type":"function","name":"collateralToken","inputs":[],"outputs":[{"name":"","type":"address","internalType":"contract IERC20"}],"stateMutability":"view"},{"type":"function","name":"collateralizationRatio","inputs":[],"outputs":[{"name":"","type":"uint256","internalType":"uint256"}],"stateMutability":"view"},{"type":"function","name":"decimals","inputs":[],"outputs":[{"name":"","type":"uint8","internalType":"uint8"}],"stateMutability":"view"},{"type":"function","name":"getCollateralForRedeem","inputs":[{"name":"amount","type":"uint256","internalType":"uint256"}],"outputs":[{"name":"","type":"uint256","internalType":"uint256"}],"stateMutability":"view"},{"type":"function","name":"getCurrentPrice","inputs":[],"outputs":[{"name":"","type":"uint256","internalType":"uint256"}],"stateMutability":"view"},{"type":"function","name":"getRequiredCollateralForMint","inputs":[{"name":"amount","type":"uint256","internalType":"uint256"}],"outputs":[{"name":"","type":"uint256","internalType":"uint256"}],"stateMutability":"view"},{"type":"function","name":"getRoleAdmin","inputs":[{"name":"role","type":"bytes32","internalType":"bytes32"}],"outputs":[{"name":"","type":"bytes32","internalType":"bytes32"}],"stateMutability":"view"},{"type":"function","name":"grantRole","inputs":[{"name":"role","type":"bytes32","internalType":"bytes32"},{"name":"account","type":"address","internalType":"address"}],"outputs":[],"stateMutability":"nonpayable"},{"type":"function","name":"hasRole","inputs":[{"name":"role","type":"bytes32","internalType":"bytes32"},{"name":"account","type":"address","internalType":"address"}],"outputs":[{"name":"","type":"bool","internalType":"bool"}],"stateMutability":"view"},{"type":"function","name":"mint","inputs":[{"name":"amount","type":"uint256","internalType":"uint256"}],"outputs":[],"stateMutability":"nonpayable"},{"type":"function","name":"name","inputs":[],"outputs":[{"name":"","type":"string","internalType":"string"}],"stateMutability":"view"},{"type":"function","name":"owner","inputs":[],"outputs":[{"name":"","type":"address","internalType":"address"}],"stateMutability":"view"},{"type":"function","name":"priceFeed","inputs":[],"outputs":[{"name":"","type":"address","internalType":"contract AggregatorV3Interface"}],"stateMutability":"view"},{"type":"function","name":"redeem","inputs":[{"name":"amount","type":"uint256","internalType":"uint256"}],"outputs":[],"stateMutability":"nonpayable"},{"type":"function","name":"renounceOwnership","inputs":[],"outputs":[],"stateMutability":"nonpayable"},{"type":"function","name":"renounceRole","inputs":[{"name":"role","type":"bytes32","internalType":"bytes32"},{"name":"callerConfirmation","type":"address","internalType":"address"}],"outputs":[],"stateMutability":"nonpayable"},{"type":"function","name":"revokeRole","inputs":[{"name":"role","type":"bytes32","internalType":"bytes32"},{"name":"account","type":"address","internalType":"address"}],"outputs":[],"stateMutability":"nonpayable"},{"type":"function","name":"setCollateralizationRatio","inputs":[{"name":"newRatio","type":"uint256","internalType":"uint256"}],"outputs":[],"stateMutability":"nonpayable"},{"type":"function","name":"setPriceFeedContract","inputs":[{"name":"_new","type":"address","internalType":"address"}],"outputs":[],"stateMutability":"nonpayable"},{"type":"function","name":"supportsInterface","inputs":[{"name":"interfaceId","type":"bytes4","internalType":"bytes4"}],"outputs":[{"name":"","type":"bool","internalType":"bool"}],"stateMutability":"view"},{"type":"function","name":"symbol","inputs":[],"outputs":[{"name":"","type":"string","internalType":"string"}],"stateMutability":"view"},{"type":"function","name":"totalSupply","inputs":[],"outputs":[{"name":"","type":"uint256","internalType":"uint256"}],"stateMutability":"view"},{"type":"function","name":"transfer","inputs":[{"name":"to","type":"address","internalType":"address"},{"name":"value","type":"uint256","internalType":"uint256"}],"outputs":[{"name":"","type":"bool","internalType":"bool"}],"stateMutability":"nonpayable"},{"type":"function","name":"transferFrom","inputs":[{"name":"from","type":"address","internalType":"address"},{"name":"to","type":"address","internalType":"address"},{"name":"value","type":"uint256","internalType":"uint256"}],"outputs":[{"name":"","type":"bool","internalType":"bool"}],"stateMutability":"nonpayable"},{"type":"function","name":"transferOwnership","inputs":[{"name":"newOwner","type":"address","internalType":"address"}],"outputs":[],"stateMutability":"nonpayable"},{"type":"event","name":"Approval","inputs":[{"name":"owner","type":"address","indexed":true,"internalType":"address"},{"name":"spender","type":"address","indexed":true,"internalType":"address"},{"name":"value","type":"uint256","indexed":false,"internalType":"uint256"}],"anonymous":false},{"type":"event","name":"CollateralizationRatioUpdated","inputs":[{"name":"newRatio","type":"uint256","indexed":false,"internalType":"uint256"}],"anonymous":false},{"type":"event","name":"Minted","inputs":[{"name":"user","type":"address","indexed":true,"internalType":"address"},{"name":"amount","type":"uint256","indexed":false,"internalType":"uint256"},{"name":"collateralDeposited","type":"uint256","indexed":false,"internalType":"uint256"}],"anonymous":false},{"type":"event","name":"OwnershipTransferred","inputs":[{"name":"previousOwner","type":"address","indexed":true,"internalType":"address"},{"name":"newOwner","type":"address","indexed":true,"internalType":"address"}],"anonymous":false},{"type":"event","name":"PriceFeedUpdated","inputs":[{"name":"newPriceFeed","type":"address","indexed":false,"internalType":"address"}],"anonymous":false},{"type":"event","name":"Redeemed","inputs":[{"name":"user","type":"address","indexed":true,"internalType":"address"},{"name":"amount","type":"uint256","indexed":false,"internalType":"uint256"},{"name":"collateralReturned","type":"uint256","indexed":false,"internalType":"uint256"}],"anonymous":false},{"type":"event","name":"RoleAdminChanged","inputs":[{"name":"role","type":"bytes32","indexed":true,"internalType":"bytes32"},{"name":"previousAdminRole","type":"bytes32","indexed":true,"internalType":"bytes32"},{"name":"newAdminRole","type":"bytes32","indexed":true,"internalType":"bytes32"}],"anonymous":false},{"type":"event","name":"RoleGranted","inputs":[{"name":"role","type":"bytes32","indexed":true,"internalType":"bytes32"},{"name":"account","type":"address","indexed":true,"internalType":"address"},{"name":"sender","type":"address","indexed":true,"internalType":"address"}],"anonymous":false},{"type":"event","name":"RoleRevoked","inputs":[{"name":"role","type":"bytes32","indexed":true,"internalType":"bytes32"},{"name":"account","type":"address","indexed":true,"internalType":"address"},{"name":"sender","type":"address","indexed":true,"internalType":"address"}],"anonymous":false},{"type":"event","name":"Transfer","inputs":[{"name":"from","type":"address","indexed":true,"internalType":"address"},{"name":"to","type":"address","indexed":true,"internalType":"address"},{"name":"value","type":"uint256","indexed":false,"internalType":"uint256"}],"anonymous":false},{"type":"error","name":"AccessControlBadConfirmation","inputs":[]},{"type":"error","name":"AccessControlUnauthorizedAccount","inputs":[{"name":"account","type":"address","internalType":"address"},{"name":"neededRole","type":"bytes32","internalType":"bytes32"}]},{"type":"error","name":"CollateralizationRatioTooLow","inputs":[]},{"type":"error","name":"ERC20InsufficientAllowance","inputs":[{"name":"spender","type":"address","internalType":"address"},{"name":"allowance","type":"uint256","internalType":"uint256"},{"name":"needed","type":"uint256","internalType":"uint256"}]},{"type":"error","name":"ERC20InsufficientBalance","inputs":[{"name":"sender","type":"address","internalType":"address"},{"name":"balance","type":"uint256","internalType":"uint256"},{"name":"needed","type":"uint256","internalType":"uint256"}]},{"type":"error","name":"ERC20InvalidApprover","inputs":[{"name":"approver","type":"address","internalType":"address"}]},{"type":"error","name":"ERC20InvalidReceiver","inputs":[{"name":"receiver","type":"address","internalType":"address"}]},{"type":"error","name":"ERC20InvalidSender","inputs":[{"name":"sender","type":"address","internalType":"address"}]},{"type":"error","name":"ERC20InvalidSpender","inputs":[{"name":"spender","type":"address","internalType":"address"}]},{"type":"error","name":"InsufficientStablecoinBalance","inputs":[]},{"type":"error","name":"InvalidCollateralTokenAddress","inputs":[]},{"type":"error","name":"InvalidPriceFeedAddress","inputs":[]},{"type":"error","name":"MintAmountIsZero","inputs":[]},{"type":"error","name":"OwnableInvalidOwner","inputs":[{"name":"owner","type":"address","internalType":"address"}]},{"type":"error","name":"OwnableUnauthorizedAccount","inputs":[{"name":"account","type":"address","internalType":"address"}]},{"type":"error","name":"ReentrancyGuardReentrantCall","inputs":[]},{"type":"error","name":"SafeERC20FailedOperation","inputs":[{"name":"token","type":"address","internalType":"address"}]}],"bytecode":{"object":"0x60c0604052609660085534801562000015575f80fd5b50604051620037153803806200371583398181016040528101906200003b91906200064a565b816040518060400160405280601581526020017f53696d706c652055534420537461626c65636f696e00000000000000000000008152506040518060400160405280600481526020017f73555344000000000000000000000000000000000000000000000000000000008152508160039081620000b9919062000907565b508060049081620000cb919062000907565b5050505f73ffffffffffffffffffffffffffffffffffffffff168173ffffffffffffffffffffffffffffffffffffffff160362000141575f6040517f1e4fbdf7000000000000000000000000000000000000000000000000000000008152600401620001389190620009fc565b60405180910390fd5b62000152816200038960201b60201c565b50600162000175620001696200044c60201b60201c565b6200047560201b60201c565b5f01819055505f73ffffffffffffffffffffffffffffffffffffffff168373ffffffffffffffffffffffffffffffffffffffff1603620001e1576040517f28d3d34200000000000000000000000000000000000000000000000000000000815260040160405180910390fd5b5f73ffffffffffffffffffffffffffffffffffffffff168173ffffffffffffffffffffffffffffffffffffffff160362000247576040517fe358806300000000000000000000000000000000000000000000000000000000815260040160405180910390fd5b8273ffffffffffffffffffffffffffffffffffffffff1660808173ffffffffffffffffffffffffffffffffffffffff16815250508273ffffffffffffffffffffffffffffffffffffffff1663313ce5676040518163ffffffff1660e01b8152600401602060405180830381865afa158015620002c5573d5f803e3d5ffd5b505050506040513d601f19601f82011682018060405250810190620002eb919062000a52565b60ff1660a08160ff16815250508060075f6101000a81548173ffffffffffffffffffffffffffffffffffffffff021916908373ffffffffffffffffffffffffffffffffffffffff1602179055506200034c5f801b836200047e60201b60201c565b506200037f7fd83007455b073bdf2abc6e8b18ce2847f802b368f0ad3a285cbb1773ec2f4c83836200047e60201b60201c565b5050505062000a82565b5f60055f9054906101000a900473ffffffffffffffffffffffffffffffffffffffff1690508160055f6101000a81548173ffffffffffffffffffffffffffffffffffffffff021916908373ffffffffffffffffffffffffffffffffffffffff1602179055508173ffffffffffffffffffffffffffffffffffffffff168173ffffffffffffffffffffffffffffffffffffffff167f8be0079c531659141344cd1fd0a4f28419497f9722a3daafe3b4186f6b6457e060405160405180910390a35050565b5f7f9b779b17422d0df92223018b32b4d1fa46e071723d6817e2486d003becc55f005f1b905090565b5f819050919050565b5f6200049183836200057a60201b60201c565b6200057057600160065f8581526020019081526020015f205f015f8473ffffffffffffffffffffffffffffffffffffffff1673ffffffffffffffffffffffffffffffffffffffff1681526020019081526020015f205f6101000a81548160ff0219169083151502179055506200050c620005de60201b60201c565b73ffffffffffffffffffffffffffffffffffffffff168273ffffffffffffffffffffffffffffffffffffffff16847f2f8788117e7eff1d82e926ec794901d17c78024a50270940304540a733656f0d60405160405180910390a46001905062000574565b5f90505b92915050565b5f60065f8481526020019081526020015f205f015f8373ffffffffffffffffffffffffffffffffffffffff1673ffffffffffffffffffffffffffffffffffffffff1681526020019081526020015f205f9054906101000a900460ff16905092915050565b5f33905090565b5f80fd5b5f73ffffffffffffffffffffffffffffffffffffffff82169050919050565b5f6200061482620005e9565b9050919050565b620006268162000608565b811462000631575f80fd5b50565b5f8151905062000644816200061b565b92915050565b5f805f60608486031215620006645762000663620005e5565b5b5f620006738682870162000634565b9350506020620006868682870162000634565b9250506040620006998682870162000634565b9150509250925092565b5f81519050919050565b7f4e487b71000000000000000000000000000000000000000000000000000000005f52604160045260245ffd5b7f4e487b71000000000000000000000000000000000000000000000000000000005f52602260045260245ffd5b5f60028204905060018216806200071f57607f821691505b602082108103620007355762000734620006da565b5b50919050565b5f819050815f5260205f209050919050565b5f6020601f8301049050919050565b5f82821b905092915050565b5f60088302620007997fffffffffffffffffffffffffffffffffffffffffffffffffffffffffffffffff826200075c565b620007a586836200075c565b95508019841693508086168417925050509392505050565b5f819050919050565b5f819050919050565b5f620007ef620007e9620007e384620007bd565b620007c6565b620007bd565b9050919050565b5f819050919050565b6200080a83620007cf565b620008226200081982620007f6565b84845462000768565b825550505050565b5f90565b620008386200082a565b62000845818484620007ff565b505050565b5b818110156200086c57620008605f826200082e565b6001810190506200084b565b5050565b601f821115620008bb5762000885816200073b565b62000890846200074d565b81016020851015620008a0578190505b620008b8620008af856200074d565b8301826200084a565b50505b505050565b5f82821c905092915050565b5f620008dd5f1984600802620008c0565b1980831691505092915050565b5f620008f78383620008cc565b9150826002028217905092915050565b6200091282620006a3565b67ffffffffffffffff8111156200092e576200092d620006ad565b5b6200093a825462000707565b6200094782828562000870565b5f60209050601f8311600181146200097d575f841562000968578287015190505b620009748582620008ea565b865550620009e3565b601f1984166200098d866200073b565b5f5b82811015620009b6578489015182556001820191506020850194506020810190506200098f565b86831015620009d65784890151620009d2601f891682620008cc565b8355505b6001600288020188555050505b505050505050565b620009f68162000608565b82525050565b5f60208201905062000a115f830184620009eb565b92915050565b5f60ff82169050919050565b62000a2e8162000a17565b811462000a39575f80fd5b50565b5f8151905062000a4c8162000a23565b92915050565b5f6020828403121562000a6a5762000a69620005e5565b5b5f62000a798482850162000a3c565b91505092915050565b60805160a051612c4762000ace5f395f818161085201528181610d6801528181610fd6015281816111bd01526114a101525f8181610db201528181610eaf01526112100152612c475ff3fe608060405234801561000f575f80fd5b50600436106101e3575f3560e01c806391d148541161010d578063d547741f116100a0578063e5829d201161006f578063e5829d20146105a5578063eb91d37e146105c1578063ec9c6c30146105df578063f2fde38b146105fd576101e3565b8063d547741f1461051f578063db006a751461053b578063dcaf9c4414610557578063dd62ed3e14610575576101e3565b8063a2fd773d116100dc578063a2fd773d14610483578063a9059cbb146104a1578063b2016bd4146104d1578063ba6af5ab146104ef576101e3565b806391d14854146103fb57806395d89b411461042b578063a0712d6814610449578063a217fddf14610465576101e3565b80632f2ff15d11610185578063715018a611610154578063715018a614610399578063741bef1a146103a357806374626404146103c15780638da5cb5b146103dd576101e3565b80632f2ff15d14610313578063313ce5671461032f57806336568abe1461034d57806370a0823114610369576101e3565b806318160ddd116101c157806318160ddd146102655780631bde17fe1461028357806323b872dd146102b3578063248a9ca3146102e3576101e3565b806301ffc9a7146101e757806306fdde0314610217578063095ea7b314610235575b5f80fd5b61020160048036038101906101fc9190612254565b610619565b60405161020e9190612299565b60405180910390f35b61021f610692565b60405161022c919061233c565b60405180910390f35b61024f600480360381019061024a91906123e9565b610722565b60405161025c9190612299565b60405180910390f35b61026d610744565b60405161027a9190612436565b60405180910390f35b61029d6004803603810190610298919061244f565b61074d565b6040516102aa9190612436565b60405180910390f35b6102cd60048036038101906102c8919061247a565b61089e565b6040516102da9190612299565b60405180910390f35b6102fd60048036038101906102f891906124fd565b6108cc565b60405161030a9190612537565b60405180910390f35b61032d60048036038101906103289190612550565b6108e9565b005b61033761090b565b60405161034491906125a9565b60405180910390f35b61036760048036038101906103629190612550565b610913565b005b610383600480360381019061037e91906125c2565b61098e565b6040516103909190612436565b60405180910390f35b6103a16109d3565b005b6103ab6109e6565b6040516103b89190612648565b60405180910390f35b6103db60048036038101906103d691906125c2565b610a0b565b005b6103e5610b15565b6040516103f29190612670565b60405180910390f35b61041560048036038101906104109190612550565b610b3d565b6040516104229190612299565b60405180910390f35b610433610ba1565b604051610440919061233c565b60405180910390f35b610463600480360381019061045e919061244f565b610c31565b005b61046d610e61565b60405161047a9190612537565b60405180910390f35b61048b610e67565b6040516104989190612537565b60405180910390f35b6104bb60048036038101906104b691906123e9565b610e8b565b6040516104c89190612299565b60405180910390f35b6104d9610ead565b6040516104e691906126a9565b60405180910390f35b6105096004803603810190610504919061244f565b610ed1565b6040516105169190612436565b60405180910390f35b61053960048036038101906105349190612550565b611022565b005b6105556004803603810190610550919061244f565b611044565b005b61055f6112b4565b60405161056c9190612436565b60405180910390f35b61058f600480360381019061058a91906126c2565b6112ba565b60405161059c9190612436565b60405180910390f35b6105bf60048036038101906105ba919061244f565b61133c565b005b6105c96113c0565b6040516105d69190612436565b60405180910390f35b6105e761149f565b6040516105f491906125a9565b60405180910390f35b610617600480360381019061061291906125c2565b6114c3565b005b5f7f7965db0b000000000000000000000000000000000000000000000000000000007bffffffffffffffffffffffffffffffffffffffffffffffffffffffff1916827bffffffffffffffffffffffffffffffffffffffffffffffffffffffff1916148061068b575061068a82611547565b5b9050919050565b6060600380546106a19061272d565b80601f01602080910402602001604051908101604052809291908181526020018280546106cd9061272d565b80156107185780601f106106ef57610100808354040283529160200191610718565b820191905f5260205f20905b8154815290600101906020018083116106fb57829003601f168201915b5050505050905090565b5f8061072c6115b0565b90506107398185856115b7565b600191505092915050565b5f600254905090565b5f80820361075d575f9050610899565b5f6107666113c0565b90505f60075f9054906101000a900473ffffffffffffffffffffffffffffffffffffffff1673ffffffffffffffffffffffffffffffffffffffff1663313ce5676040518163ffffffff1660e01b8152600401602060405180830381865afa1580156107d3573d5f803e3d5ffd5b505050506040513d601f19601f820116820180604052508101906107f79190612787565b90505f61080261090b565b600a61080e919061290e565b856108199190612958565b90505f8360646108299190612958565b600854836108379190612958565b61084191906129c6565b905082600a610850919061290e565b7f0000000000000000000000000000000000000000000000000000000000000000600a61087d919061290e565b826108889190612958565b61089291906129c6565b9450505050505b919050565b5f806108a86115b0565b90506108b58582856115c9565b6108c085858561165c565b60019150509392505050565b5f60065f8381526020019081526020015f20600101549050919050565b6108f2826108cc565b6108fb8161174c565b6109058383611760565b50505050565b5f6012905090565b61091b6115b0565b73ffffffffffffffffffffffffffffffffffffffff168173ffffffffffffffffffffffffffffffffffffffff161461097f576040517f6697b23200000000000000000000000000000000000000000000000000000000815260040160405180910390fd5b610989828261184a565b505050565b5f805f8373ffffffffffffffffffffffffffffffffffffffff1673ffffffffffffffffffffffffffffffffffffffff1681526020019081526020015f20549050919050565b6109db611934565b6109e45f6119bb565b565b60075f9054906101000a900473ffffffffffffffffffffffffffffffffffffffff1681565b7fd83007455b073bdf2abc6e8b18ce2847f802b368f0ad3a285cbb1773ec2f4c83610a358161174c565b5f73ffffffffffffffffffffffffffffffffffffffff168273ffffffffffffffffffffffffffffffffffffffff1603610a9a576040517fe358806300000000000000000000000000000000000000000000000000000000815260040160405180910390fd5b8160075f6101000a81548173ffffffffffffffffffffffffffffffffffffffff021916908373ffffffffffffffffffffffffffffffffffffffff1602179055507fe5b20b8497e4f3e2435ef9c20e2e26b47497ee13745ce1c681ad6640653119e682604051610b099190612670565b60405180910390a15050565b5f60055f9054906101000a900473ffffffffffffffffffffffffffffffffffffffff16905090565b5f60065f8481526020019081526020015f205f015f8373ffffffffffffffffffffffffffffffffffffffff1673ffffffffffffffffffffffffffffffffffffffff1681526020019081526020015f205f9054906101000a900460ff16905092915050565b606060048054610bb09061272d565b80601f0160208091040260200160405190810160405280929190818152602001828054610bdc9061272d565b8015610c275780601f10610bfe57610100808354040283529160200191610c27565b820191905f5260205f20905b815481529060010190602001808311610c0a57829003601f168201915b5050505050905090565b610c39611a7e565b5f8103610c72576040517f7a5f358c00000000000000000000000000000000000000000000000000000000815260040160405180910390fd5b5f610c7b6113c0565b90505f60075f9054906101000a900473ffffffffffffffffffffffffffffffffffffffff1673ffffffffffffffffffffffffffffffffffffffff1663313ce5676040518163ffffffff1660e01b8152600401602060405180830381865afa158015610ce8573d5f803e3d5ffd5b505050506040513d601f19601f82011682018060405250810190610d0c9190612787565b90505f610d1761090b565b600a610d23919061290e565b84610d2e9190612958565b90505f836064610d3e9190612958565b60085483610d4c9190612958565b610d5691906129c6565b90505f83600a610d66919061290e565b7f0000000000000000000000000000000000000000000000000000000000000000600a610d93919061290e565b83610d9e9190612958565b610da891906129c6565b9050610df73330837f000000000000000000000000000000000000000000000000000000000000000073ffffffffffffffffffffffffffffffffffffffff16611aa0909392919063ffffffff16565b610e013387611af5565b3373ffffffffffffffffffffffffffffffffffffffff167f25b428dfde728ccfaddad7e29e4ac23c24ed7fd1a6e3e3f91894a9a073f5dfff8783604051610e499291906129f6565b60405180910390a25050505050610e5e611b74565b50565b5f801b81565b7fd83007455b073bdf2abc6e8b18ce2847f802b368f0ad3a285cbb1773ec2f4c8381565b5f80610e956115b0565b9050610ea281858561165c565b600191505092915050565b7f000000000000000000000000000000000000000000000000000000000000000081565b5f808203610ee1575f905061101d565b5f610eea6113c0565b90505f60075f9054906101000a900473ffffffffffffffffffffffffffffffffffffffff1673ffffffffffffffffffffffffffffffffffffffff1663313ce5676040518163ffffffff1660e01b8152600401602060405180830381865afa158015610f57573d5f803e3d5ffd5b505050506040513d601f19601f82011682018060405250810190610f7b9190612787565b90505f610f8661090b565b600a610f92919061290e565b85610f9d9190612958565b90505f83600854610fae9190612958565b606483610fbb9190612958565b610fc591906129c6565b905082600a610fd4919061290e565b7f0000000000000000000000000000000000000000000000000000000000000000600a611001919061290e565b8261100c9190612958565b61101691906129c6565b9450505050505b919050565b61102b826108cc565b6110348161174c565b61103e838361184a565b50505050565b61104c611a7e565b5f8103611085576040517f7a5f358c00000000000000000000000000000000000000000000000000000000815260040160405180910390fd5b8061108f3361098e565b10156110c7576040517f30de15db00000000000000000000000000000000000000000000000000000000815260040160405180910390fd5b5f6110d06113c0565b90505f60075f9054906101000a900473ffffffffffffffffffffffffffffffffffffffff1673ffffffffffffffffffffffffffffffffffffffff1663313ce5676040518163ffffffff1660e01b8152600401602060405180830381865afa15801561113d573d5f803e3d5ffd5b505050506040513d601f19601f820116820180604052508101906111619190612787565b90505f61116c61090b565b600a611178919061290e565b846111839190612958565b90505f836008546111949190612958565b6064836111a19190612958565b6111ab91906129c6565b90505f83600a6111bb919061290e565b7f0000000000000000000000000000000000000000000000000000000000000000600a6111e8919061290e565b836111f39190612958565b6111fd91906129c6565b90506112093387611b8e565b61125433827f000000000000000000000000000000000000000000000000000000000000000073ffffffffffffffffffffffffffffffffffffffff16611c0d9092919063ffffffff16565b3373ffffffffffffffffffffffffffffffffffffffff167ff3a670cd3af7d64b488926880889d08a8585a138ff455227af6737339a1ec262878360405161129c9291906129f6565b60405180910390a250505050506112b1611b74565b50565b60085481565b5f60015f8473ffffffffffffffffffffffffffffffffffffffff1673ffffffffffffffffffffffffffffffffffffffff1681526020019081526020015f205f8373ffffffffffffffffffffffffffffffffffffffff1673ffffffffffffffffffffffffffffffffffffffff1681526020019081526020015f2054905092915050565b611344611934565b606481101561137f576040517f33efa14600000000000000000000000000000000000000000000000000000000815260040160405180910390fd5b806008819055507ffb0ebe8c7316e6a251494c38876d13d9a3a029273fce7964c12aa2ce07869530816040516113b59190612436565b60405180910390a150565b5f8060075f9054906101000a900473ffffffffffffffffffffffffffffffffffffffff1673ffffffffffffffffffffffffffffffffffffffff1663feaf968c6040518163ffffffff1660e01b815260040160a060405180830381865afa15801561142c573d5f803e3d5ffd5b505050506040513d601f19601f820116820180604052508101906114509190612aa3565b5050509150505f8113611498576040517f08c379a000000000000000000000000000000000000000000000000000000000815260040161148f90612b64565b60405180910390fd5b8091505090565b7f000000000000000000000000000000000000000000000000000000000000000081565b6114cb611934565b5f73ffffffffffffffffffffffffffffffffffffffff168173ffffffffffffffffffffffffffffffffffffffff160361153b575f6040517f1e4fbdf70000000000000000000000000000000000000000000000000000000081526004016115329190612670565b60405180910390fd5b611544816119bb565b50565b5f7f01ffc9a7000000000000000000000000000000000000000000000000000000007bffffffffffffffffffffffffffffffffffffffffffffffffffffffff1916827bffffffffffffffffffffffffffffffffffffffffffffffffffffffff1916149050919050565b5f33905090565b6115c48383836001611c60565b505050565b5f6115d484846112ba565b90507fffffffffffffffffffffffffffffffffffffffffffffffffffffffffffffffff8110156116565781811015611647578281836040517ffb8f41b200000000000000000000000000000000000000000000000000000000815260040161163e93929190612b82565b60405180910390fd5b61165584848484035f611c60565b5b50505050565b5f73ffffffffffffffffffffffffffffffffffffffff168373ffffffffffffffffffffffffffffffffffffffff16036116cc575f6040517f96c6fd1e0000000000000000000000000000000000000000000000000000000081526004016116c39190612670565b60405180910390fd5b5f73ffffffffffffffffffffffffffffffffffffffff168273ffffffffffffffffffffffffffffffffffffffff160361173c575f6040517fec442f050000000000000000000000000000000000000000000000000000000081526004016117339190612670565b60405180910390fd5b611747838383611e2f565b505050565b61175d816117586115b0565b612048565b50565b5f61176b8383610b3d565b61184057600160065f8581526020019081526020015f205f015f8473ffffffffffffffffffffffffffffffffffffffff1673ffffffffffffffffffffffffffffffffffffffff1681526020019081526020015f205f6101000a81548160ff0219169083151502179055506117dd6115b0565b73ffffffffffffffffffffffffffffffffffffffff168273ffffffffffffffffffffffffffffffffffffffff16847f2f8788117e7eff1d82e926ec794901d17c78024a50270940304540a733656f0d60405160405180910390a460019050611844565b5f90505b92915050565b5f6118558383610b3d565b1561192a575f60065f8581526020019081526020015f205f015f8473ffffffffffffffffffffffffffffffffffffffff1673ffffffffffffffffffffffffffffffffffffffff1681526020019081526020015f205f6101000a81548160ff0219169083151502179055506118c76115b0565b73ffffffffffffffffffffffffffffffffffffffff168273ffffffffffffffffffffffffffffffffffffffff16847ff6391f5c32d9c69d2a47ea670b442974b53935d1edc7fd64eb21e047a839171b60405160405180910390a46001905061192e565b5f90505b92915050565b61193c6115b0565b73ffffffffffffffffffffffffffffffffffffffff1661195a610b15565b73ffffffffffffffffffffffffffffffffffffffff16146119b95761197d6115b0565b6040517f118cdaa70000000000000000000000000000000000000000000000000000000081526004016119b09190612670565b60405180910390fd5b565b5f60055f9054906101000a900473ffffffffffffffffffffffffffffffffffffffff1690508160055f6101000a81548173ffffffffffffffffffffffffffffffffffffffff021916908373ffffffffffffffffffffffffffffffffffffffff1602179055508173ffffffffffffffffffffffffffffffffffffffff168173ffffffffffffffffffffffffffffffffffffffff167f8be0079c531659141344cd1fd0a4f28419497f9722a3daafe3b4186f6b6457e060405160405180910390a35050565b611a86612099565b6002611a98611a936120da565b612103565b5f0181905550565b611aae84848484600161210c565b611aef57836040517f5274afe7000000000000000000000000000000000000000000000000000000008152600401611ae69190612670565b60405180910390fd5b50505050565b5f73ffffffffffffffffffffffffffffffffffffffff168273ffffffffffffffffffffffffffffffffffffffff1603611b65575f6040517fec442f05000000000000000000000000000000000000000000000000000000008152600401611b5c9190612670565b60405180910390fd5b611b705f8383611e2f565b5050565b6001611b86611b816120da565b612103565b5f0181905550565b5f73ffffffffffffffffffffffffffffffffffffffff168273ffffffffffffffffffffffffffffffffffffffff1603611bfe575f6040517f96c6fd1e000000000000000000000000000000000000000000000000000000008152600401611bf59190612670565b60405180910390fd5b611c09825f83611e2f565b5050565b611c1a838383600161217d565b611c5b57826040517f5274afe7000000000000000000000000000000000000000000000000000000008152600401611c529190612670565b60405180910390fd5b505050565b5f73ffffffffffffffffffffffffffffffffffffffff168473ffffffffffffffffffffffffffffffffffffffff1603611cd0575f6040517fe602df05000000000000000000000000000000000000000000000000000000008152600401611cc79190612670565b60405180910390fd5b5f73ffffffffffffffffffffffffffffffffffffffff168373ffffffffffffffffffffffffffffffffffffffff1603611d40575f6040517f94280d62000000000000000000000000000000000000000000000000000000008152600401611d379190612670565b60405180910390fd5b8160015f8673ffffffffffffffffffffffffffffffffffffffff1673ffffffffffffffffffffffffffffffffffffffff1681526020019081526020015f205f8573ffffffffffffffffffffffffffffffffffffffff1673ffffffffffffffffffffffffffffffffffffffff1681526020019081526020015f20819055508015611e29578273ffffffffffffffffffffffffffffffffffffffff168473ffffffffffffffffffffffffffffffffffffffff167f8c5be1e5ebec7d5bd14f71427d1e84f3dd0314c0f7b2291e5b200ac8c7c3b92584604051611e209190612436565b60405180910390a35b50505050565b5f73ffffffffffffffffffffffffffffffffffffffff168373ffffffffffffffffffffffffffffffffffffffff1603611e7f578060025f828254611e739190612bb7565b92505081905550611f4d565b5f805f8573ffffffffffffffffffffffffffffffffffffffff1673ffffffffffffffffffffffffffffffffffffffff1681526020019081526020015f2054905081811015611f08578381836040517fe450d38c000000000000000000000000000000000000000000000000000000008152600401611eff93929190612b82565b60405180910390fd5b8181035f808673ffffffffffffffffffffffffffffffffffffffff1673ffffffffffffffffffffffffffffffffffffffff1681526020019081526020015f2081905550505b5f73ffffffffffffffffffffffffffffffffffffffff168273ffffffffffffffffffffffffffffffffffffffff1603611f94578060025f8282540392505081905550611fde565b805f808473ffffffffffffffffffffffffffffffffffffffff1673ffffffffffffffffffffffffffffffffffffffff1681526020019081526020015f205f82825401925050819055505b8173ffffffffffffffffffffffffffffffffffffffff168373ffffffffffffffffffffffffffffffffffffffff167fddf252ad1be2c89b69c2b068fc378daa952ba7f163c4a11628f55a4df523b3ef8360405161203b9190612436565b60405180910390a3505050565b6120528282610b3d565b6120955780826040517fe2517d3f00000000000000000000000000000000000000000000000000000000815260040161208c929190612bea565b60405180910390fd5b5050565b6120a16121df565b156120d8576040517f3ee5aeb500000000000000000000000000000000000000000000000000000000815260040160405180910390fd5b565b5f7f9b779b17422d0df92223018b32b4d1fa46e071723d6817e2486d003becc55f005f1b905090565b5f819050919050565b5f806323b872dd60e01b9050604051815f525f1960601c87166004525f1960601c86166024528460445260205f60645f808c5af1925060015f5114831661216a57838315161561215e573d5f823e3d81fd5b5f883b113d1516831692505b806040525f606052505095945050505050565b5f8063a9059cbb60e01b9050604051815f525f1960601c86166004528460245260205f60445f808b5af1925060015f511483166121d15783831516156121c5573d5f823e3d81fd5b5f873b113d1516831692505b806040525050949350505050565b5f60026121f26121ed6120da565b612103565b5f015414905090565b5f80fd5b5f7fffffffff0000000000000000000000000000000000000000000000000000000082169050919050565b612233816121ff565b811461223d575f80fd5b50565b5f8135905061224e8161222a565b92915050565b5f60208284031215612269576122686121fb565b5b5f61227684828501612240565b91505092915050565b5f8115159050919050565b6122938161227f565b82525050565b5f6020820190506122ac5f83018461228a565b92915050565b5f81519050919050565b5f82825260208201905092915050565b5f5b838110156122e95780820151818401526020810190506122ce565b5f8484015250505050565b5f601f19601f8301169050919050565b5f61230e826122b2565b61231881856122bc565b93506123288185602086016122cc565b612331816122f4565b840191505092915050565b5f6020820190508181035f8301526123548184612304565b905092915050565b5f73ffffffffffffffffffffffffffffffffffffffff82169050919050565b5f6123858261235c565b9050919050565b6123958161237b565b811461239f575f80fd5b50565b5f813590506123b08161238c565b92915050565b5f819050919050565b6123c8816123b6565b81146123d2575f80fd5b50565b5f813590506123e3816123bf565b92915050565b5f80604083850312156123ff576123fe6121fb565b5b5f61240c858286016123a2565b925050602061241d858286016123d5565b9150509250929050565b612430816123b6565b82525050565b5f6020820190506124495f830184612427565b92915050565b5f60208284031215612464576124636121fb565b5b5f612471848285016123d5565b91505092915050565b5f805f60608486031215612491576124906121fb565b5b5f61249e868287016123a2565b93505060206124af868287016123a2565b92505060406124c0868287016123d5565b9150509250925092565b5f819050919050565b6124dc816124ca565b81146124e6575f80fd5b50565b5f813590506124f7816124d3565b92915050565b5f60208284031215612512576125116121fb565b5b5f61251f848285016124e9565b91505092915050565b612531816124ca565b82525050565b5f60208201905061254a5f830184612528565b92915050565b5f8060408385031215612566576125656121fb565b5b5f612573858286016124e9565b9250506020612584858286016123a2565b9150509250929050565b5f60ff82169050919050565b6125a38161258e565b82525050565b5f6020820190506125bc5f83018461259a565b92915050565b5f602082840312156125d7576125d66121fb565b5b5f6125e4848285016123a2565b91505092915050565b5f819050919050565b5f61261061260b6126068461235c565b6125ed565b61235c565b9050919050565b5f612621826125f6565b9050919050565b5f61263282612617565b9050919050565b61264281612628565b82525050565b5f60208201905061265b5f830184612639565b92915050565b61266a8161237b565b82525050565b5f6020820190506126835f830184612661565b92915050565b5f61269382612617565b9050919050565b6126a381612689565b82525050565b5f6020820190506126bc5f83018461269a565b92915050565b5f80604083850312156126d8576126d76121fb565b5b5f6126e5858286016123a2565b92505060206126f6858286016123a2565b9150509250929050565b7f4e487b71000000000000000000000000000000000000000000000000000000005f52602260045260245ffd5b5f600282049050600182168061274457607f821691505b60208210810361275757612756612700565b5b50919050565b6127668161258e565b8114612770575f80fd5b50565b5f815190506127818161275d565b92915050565b5f6020828403121561279c5761279b6121fb565b5b5f6127a984828501612773565b91505092915050565b7f4e487b71000000000000000000000000000000000000000000000000000000005f52601160045260245ffd5b5f8160011c9050919050565b5f808291508390505b6001851115612834578086048111156128105761280f6127b2565b5b600185161561281f5780820291505b808102905061282d856127df565b94506127f4565b94509492505050565b5f8261284c5760019050612907565b81612859575f9050612907565b816001811461286f5760028114612879576128a8565b6001915050612907565b60ff84111561288b5761288a6127b2565b5b8360020a9150848211156128a2576128a16127b2565b5b50612907565b5060208310610133831016604e8410600b84101617156128dd5782820a9050838111156128d8576128d76127b2565b5b612907565b6128ea84848460016127eb565b92509050818404811115612901576129006127b2565b5b81810290505b9392505050565b5f612918826123b6565b91506129238361258e565b92506129507fffffffffffffffffffffffffffffffffffffffffffffffffffffffffffffffff848461283d565b905092915050565b5f612962826123b6565b915061296d836123b6565b925082820261297b816123b6565b91508282048414831517612992576129916127b2565b5b5092915050565b7f4e487b71000000000000000000000000000000000000000000000000000000005f52601260045260245ffd5b5f6129d0826123b6565b91506129db836123b6565b9250826129eb576129ea612999565b5b828204905092915050565b5f604082019050612a095f830185612427565b612a166020830184612427565b9392505050565b5f69ffffffffffffffffffff82169050919050565b612a3b81612a1d565b8114612a45575f80fd5b50565b5f81519050612a5681612a32565b92915050565b5f819050919050565b612a6e81612a5c565b8114612a78575f80fd5b50565b5f81519050612a8981612a65565b92915050565b5f81519050612a9d816123bf565b92915050565b5f805f805f60a08688031215612abc57612abb6121fb565b5b5f612ac988828901612a48565b9550506020612ada88828901612a7b565b9450506040612aeb88828901612a8f565b9350506060612afc88828901612a8f565b9250506080612b0d88828901612a48565b9150509295509295909350565b7f496e76616c6964207072696365000000000000000000000000000000000000005f82015250565b5f612b4e600d836122bc565b9150612b5982612b1a565b602082019050919050565b5f6020820190508181035f830152612b7b81612b42565b9050919050565b5f606082019050612b955f830186612661565b612ba26020830185612427565b612baf6040830184612427565b949350505050565b5f612bc1826123b6565b9150612bcc836123b6565b9250828201905080821115612be457612be36127b2565b5b92915050565b5f604082019050612bfd5f830185612661565b612c0a6020830184612528565b939250505056fea2646970667358221220ed592b32635c7bb5c6d838f809638d2b05b688685b19b019c1f19cfd261bdf5064736f6c63430008180033","linkReferences":{}},"methodIdentifiers":{"DEFAULT_ADMIN_ROLE()":"a217fddf","PRICE_FEED_MANAGER_ROLE()":"a2fd773d","allowance(address,address)":"dd62ed3e","approve(address,uint256)":"095ea7b3","balanceOf(address)":"70a08231","collateralDecimals()":"ec9c6c30","collateralToken()":"b2016bd4","collateralizationRatio()":"dcaf9c44","decimals()":"313ce567","getCollateralForRedeem(uint256)":"ba6af5ab","getCurrentPrice()":"eb91d37e","getRequiredCollateralForMint(uint256)":"1bde17fe","getRoleAdmin(bytes32)":"248a9ca3","grantRole(bytes32,address)":"2f2ff15d","hasRole(bytes32,address)":"91d14854","mint(uint256)":"a0712d68","name()":"06fdde03","owner()":"8da5cb5b","priceFeed()":"741bef1a","redeem(uint256)":"db006a75","renounceOwnership()":"715018a6","renounceRole(bytes32,address)":"36568abe","revokeRole(bytes32,address)":"d547741f","setCollateralizationRatio(uint256)":"e5829d20","setPriceFeedContract(address)":"74626404","supportsInterface(bytes4)":"01ffc9a7","symbol()":"95d89b41","totalSupply()":"18160ddd","transfer(address,uint256)":"a9059cbb","transferFrom(address,address,uint256)":"23b872dd","transferOwnership(address)":"f2fde38b"},"id":34}