{
	"data": {
		"bytecode": {
			"linkReferences": {},
			"object": "6080604052348015600e575f5ffd5b50610df68061001c5f395ff3fe608060405234801561000f575f5ffd5b5060043610610060575f3560e01c806303cdaddd1461006457806340fa30ce1461009457806384fd48b8146100c4578063c5af3f8c146100f4578063da1d034414610110578063fb42adc614610140575b5f5ffd5b61007e600480360381019061007991906106a0565b610172565b60405161008b91906106e3565b60405180910390f35b6100ae60048036038101906100a991906106a0565b610187565b6040516100bb91906106e3565b60405180910390f35b6100de60048036038101906100d991906106a0565b6101cd565b6040516100eb91906106e3565b60405180910390f35b61010e60048036038101906101099190610862565b610213565b005b61012a600480360381019061012591906106a0565b61055b565b60405161013791906106e3565b60405180910390f35b61015a600480360381019061015591906108ce565b610570565b6040516101699392919061096c565b60405180910390f35b6002602052805f5260405f205f915090505481565b5f60015f8373ffffffffffffffffffffffffffffffffffffffff1673ffffffffffffffffffffffffffffffffffffffff1681526020019081526020015f20549050919050565b5f60025f8373ffffffffffffffffffffffffffffffffffffffff1673ffffffffffffffffffffffffffffffffffffffff1681526020019081526020015f20549050919050565b5f5f3373ffffffffffffffffffffffffffffffffffffffff1673ffffffffffffffffffffffffffffffffffffffff1681526020019081526020015f20604051806060016040528085815260200184815260200183815250908060018154018082558091505060019003905f5260205f2090600302015f909190919091505f820151815f0190816102a39190610ba5565b5060208201518160010155604082015181600201555050600160025f3373ffffffffffffffffffffffffffffffffffffffff1673ffffffffffffffffffffffffffffffffffffffff1681526020019081526020015f205f8282546103079190610ca1565b925050819055508160015f3373ffffffffffffffffffffffffffffffffffffffff1673ffffffffffffffffffffffffffffffffffffffff1681526020019081526020015f205f82825461035a9190610ca1565b925050819055503373ffffffffffffffffffffffffffffffffffffffff167f0ed7b8e9e03910423e15ff1dc636bebbb503790fb54e5f5e1d27d8ce9c61ccb18484846040516103ab9392919061096c565b60405180910390a2600a60025f3373ffffffffffffffffffffffffffffffffffffffff1673ffffffffffffffffffffffffffffffffffffffff1681526020019081526020015f205403610484573373ffffffffffffffffffffffffffffffffffffffff167f0919547352c3feb5516e059a7a2c5bf9739f61eb5c02673dbb990c9d71147c7e60025f3373ffffffffffffffffffffffffffffffffffffffff1673ffffffffffffffffffffffffffffffffffffffff1681526020019081526020015f205460405161047b9190610d1e565b60405180910390a25b6101f460015f3373ffffffffffffffffffffffffffffffffffffffff1673ffffffffffffffffffffffffffffffffffffffff1681526020019081526020015f205410610556573373ffffffffffffffffffffffffffffffffffffffff167f0919547352c3feb5516e059a7a2c5bf9739f61eb5c02673dbb990c9d71147c7e60015f3373ffffffffffffffffffffffffffffffffffffffff1673ffffffffffffffffffffffffffffffffffffffff1681526020019081526020015f205460405161054d9190610d94565b60405180910390a25b505050565b6001602052805f5260405f205f915090505481565b5f602052815f5260405f208181548110610588575f80fd5b905f5260205f2090600302015f9150915050805f0180546105a8906109d5565b80601f01602080910402602001604051908101604052809291908181526020018280546105d4906109d5565b801561061f5780601f106105f65761010080835404028352916020019161061f565b820191905f5260205f20905b81548152906001019060200180831161060257829003601f168201915b5050505050908060010154908060020154905083565b5f604051905090565b5f5ffd5b5f5ffd5b5f73ffffffffffffffffffffffffffffffffffffffff82169050919050565b5f61066f82610646565b9050919050565b61067f81610665565b8114610689575f5ffd5b50565b5f8135905061069a81610676565b92915050565b5f602082840312156106b5576106b461063e565b5b5f6106c28482850161068c565b91505092915050565b5f819050919050565b6106dd816106cb565b82525050565b5f6020820190506106f65f8301846106d4565b92915050565b5f5ffd5b5f5ffd5b5f601f19601f8301169050919050565b7f4e487b71000000000000000000000000000000000000000000000000000000005f52604160045260245ffd5b61074a82610704565b810181811067ffffffffffffffff8211171561076957610768610714565b5b80604052505050565b5f61077b610635565b90506107878282610741565b919050565b5f67ffffffffffffffff8211156107a6576107a5610714565b5b6107af82610704565b9050602081019050919050565b828183375f83830152505050565b5f6107dc6107d78461078c565b610772565b9050828152602081018484840111156107f8576107f7610700565b5b6108038482856107bc565b509392505050565b5f82601f83011261081f5761081e6106fc565b5b813561082f8482602086016107ca565b91505092915050565b610841816106cb565b811461084b575f5ffd5b50565b5f8135905061085c81610838565b92915050565b5f5f5f606084860312156108795761087861063e565b5b5f84013567ffffffffffffffff81111561089657610895610642565b5b6108a28682870161080b565b93505060206108b38682870161084e565b92505060406108c48682870161084e565b9150509250925092565b5f5f604083850312156108e4576108e361063e565b5b5f6108f18582860161068c565b92505060206109028582860161084e565b9150509250929050565b5f81519050919050565b5f82825260208201905092915050565b8281835e5f83830152505050565b5f61093e8261090c565b6109488185610916565b9350610958818560208601610926565b61096181610704565b840191505092915050565b5f6060820190508181035f8301526109848186610934565b905061099360208301856106d4565b6109a060408301846106d4565b949350505050565b7f4e487b71000000000000000000000000000000000000000000000000000000005f52602260045260245ffd5b5f60028204905060018216806109ec57607f821691505b6020821081036109ff576109fe6109a8565b5b50919050565b5f819050815f5260205f209050919050565b5f6020601f8301049050919050565b5f82821b905092915050565b5f60088302610a617fffffffffffffffffffffffffffffffffffffffffffffffffffffffffffffffff82610a26565b610a6b8683610a26565b95508019841693508086168417925050509392505050565b5f819050919050565b5f610aa6610aa1610a9c846106cb565b610a83565b6106cb565b9050919050565b5f819050919050565b610abf83610a8c565b610ad3610acb82610aad565b848454610a32565b825550505050565b5f5f905090565b610aea610adb565b610af5818484610ab6565b505050565b5b81811015610b1857610b0d5f82610ae2565b600181019050610afb565b5050565b601f821115610b5d57610b2e81610a05565b610b3784610a17565b81016020851015610b46578190505b610b5a610b5285610a17565b830182610afa565b50505b505050565b5f82821c905092915050565b5f610b7d5f1984600802610b62565b1980831691505092915050565b5f610b958383610b6e565b9150826002028217905092915050565b610bae8261090c565b67ffffffffffffffff811115610bc757610bc6610714565b5b610bd182546109d5565b610bdc828285610b1c565b5f60209050601f831160018114610c0d575f8415610bfb578287015190505b610c058582610b8a565b865550610c6c565b601f198416610c1b86610a05565b5f5b82811015610c4257848901518255600182019150602085019450602081019050610c1d565b86831015610c5f5784890151610c5b601f891682610b6e565b8355505b6001600288020188555050505b505050505050565b7f4e487b71000000000000000000000000000000000000000000000000000000005f52601160045260245ffd5b5f610cab826106cb565b9150610cb6836106cb565b9250828201905080821115610cce57610ccd610c74565b5b92915050565b7f313020576f726b6f757473204d696c6573746f6e6500000000000000000000005f82015250565b5f610d08601583610916565b9150610d1382610cd4565b602082019050919050565b5f6040820190508181035f830152610d3581610cfc565b9050610d4460208301846106d4565b92915050565b7f353030204d696e75746573204d696c6573746f6e6500000000000000000000005f82015250565b5f610d7e601583610916565b9150610d8982610d4a565b602082019050919050565b5f6040820190508181035f830152610dab81610d72565b9050610dba60208301846106d4565b9291505056fea26469706673582212200372886087d64b2fc7370f57a031683f04cee5faac0e51e00412b6e6d80bc0f864736f6c634300081e0033",
			"opcodes": "PUSH1 0x80 PUSH1 0x40 MSTORE CALLVALUE DUP1 ISZERO PUSH1 0xE JUMPI PUSH0 PUSH0 REVERT JUMPDEST POP PUSH2 0xDF6 DUP1 PUSH2 0x1C PUSH0 CODECOPY PUSH0 RETURN INVALID PUSH1 0x80 PUSH1 0x40 MSTORE CALLVALUE DUP1 ISZERO PUSH2 0xF JUMPI PUSH0 PUSH0 REVERT JUMPDEST POP PUSH1 0x4 CALLDATASIZE LT PUSH2 0x60 JUMPI PUSH0 CALLDATALOAD PUSH1 0xE0 SHR DUP1 PUSH4 0x3CDADDD EQ PUSH2 0x64 JUMPI DUP1 PUSH4 0x40FA30CE EQ PUSH2 0x94 JUMPI DUP1 PUSH4 0x84FD48B8 EQ PUSH2 0xC4 JUMPI DUP1 PUSH4 0xC5AF3F8C EQ PUSH2 0xF4 JUMPI DUP1 PUSH4 0xDA1D0344 EQ PUSH2 0x110 JUMPI DUP1 PUSH4 0xFB42ADC6 EQ PUSH2 0x140 JUMPI JUMPDEST PUSH0 PUSH0 REVERT JUMPDEST PUSH2 0x7E PUSH1 0x4 DUP1 CALLDATASIZE SUB DUP2 ADD SWAP1 PUSH2 0x79 SWAP2 SWAP1 PUSH2 0x6A0 JUMP JUMPDEST PUSH2 0x172 JUMP JUMPDEST PUSH1 0x40 MLOAD PUSH2 0x8B SWAP2 SWAP1 PUSH2 0x6E3 JUMP JUMPDEST PUSH1 0x40 MLOAD DUP1 SWAP2 SUB SWAP1 RETURN JUMPDEST PUSH2 0xAE PUSH1 0x4 DUP1 CALLDATASIZE SUB DUP2 ADD SWAP1 PUSH2 0xA9 SWAP2 SWAP1 PUSH2 0x6A0 JUMP JUMPDEST PUSH2 0x187 JUMP JUMPDEST PUSH1 0x40 MLOAD PUSH2 0xBB SWAP2 SWAP1 PUSH2 0x6E3 JUMP JUMPDEST PUSH1 0x40 MLOAD DUP1 SWAP2 SUB SWAP1 RETURN JUMPDEST PUSH2 0xDE PUSH1 0x4 DUP1 CALLDATASIZE SUB DUP2 ADD SWAP1 PUSH2 0xD9 SWAP2 SWAP1 PUSH2 0x6A0 JUMP JUMPDEST PUSH2 0x1CD JUMP JUMPDEST PUSH1 0x40 MLOAD PUSH2 0xEB SWAP2 SWAP1 PUSH2 0x6E3 JUMP JUMPDEST PUSH1 0x40 MLOAD DUP1 SWAP2 SUB SWAP1 RETURN JUMPDEST PUSH2 0x10E PUSH1 0x4 DUP1 CALLDATASIZE SUB DUP2 ADD SWAP1 PUSH2 0x109 SWAP2 SWAP1 PUSH2 0x862 JUMP JUMPDEST PUSH2 0x213 JUMP JUMPDEST STOP JUMPDEST PUSH2 0x12A PUSH1 0x4 DUP1 CALLDATASIZE SUB DUP2 ADD SWAP1 PUSH2 0x125 SWAP2 SWAP1 PUSH2 0x6A0 JUMP JUMPDEST PUSH2 0x55B JUMP JUMPDEST PUSH1 0x40 MLOAD PUSH2 0x137 SWAP2 SWAP1 PUSH2 0x6E3 JUMP JUMPDEST PUSH1 0x40 MLOAD DUP1 SWAP2 SUB SWAP1 RETURN JUMPDEST PUSH2 0x15A PUSH1 0x4 DUP1 CALLDATASIZE SUB DUP2 ADD SWAP1 PUSH2 0x155 SWAP2 SWAP1 PUSH2 0x8CE JUMP JUMPDEST PUSH2 0x570 JUMP JUMPDEST PUSH1 0x40 MLOAD PUSH2 0x169 SWAP4 SWAP3 SWAP2 SWAP1 PUSH2 0x96C JUMP JUMPDEST PUSH1 0x40 MLOAD DUP1 SWAP2 SUB SWAP1 RETURN JUMPDEST PUSH1 0x2 PUSH1 0x20 MSTORE DUP1 PUSH0 MSTORE PUSH1 0x40 PUSH0 KECCAK256 PUSH0 SWAP2 POP SWAP1 POP SLOAD DUP2 JUMP JUMPDEST PUSH0 PUSH1 0x1 PUSH0 DUP4 PUSH20 0xFFFFFFFFFFFFFFFFFFFFFFFFFFFFFFFFFFFFFFFF AND PUSH20 0xFFFFFFFFFFFFFFFFFFFFFFFFFFFFFFFFFFFFFFFF AND DUP2 MSTORE PUSH1 0x20 ADD SWAP1 DUP2 MSTORE PUSH1 0x20 ADD PUSH0 KECCAK256 SLOAD SWAP1 POP SWAP2 SWAP1 POP JUMP JUMPDEST PUSH0 PUSH1 0x2 PUSH0 DUP4 PUSH20 0xFFFFFFFFFFFFFFFFFFFFFFFFFFFFFFFFFFFFFFFF AND PUSH20 0xFFFFFFFFFFFFFFFFFFFFFFFFFFFFFFFFFFFFFFFF AND DUP2 MSTORE PUSH1 0x20 ADD SWAP1 DUP2 MSTORE PUSH1 0x20 ADD PUSH0 KECCAK256 SLOAD SWAP1 POP SWAP2 SWAP1 POP JUMP JUMPDEST PUSH0 PUSH0 CALLER PUSH20 0xFFFFFFFFFFFFFFFFFFFFFFFFFFFFFFFFFFFFFFFF AND PUSH20 0xFFFFFFFFFFFFFFFFFFFFFFFFFFFFFFFFFFFFFFFF AND DUP2 MSTORE PUSH1 0x20 ADD SWAP1 DUP2 MSTORE PUSH1 0x20 ADD PUSH0 KECCAK256 PUSH1 0x40 MLOAD DUP1 PUSH1 0x60 ADD PUSH1 0x40 MSTORE DUP1 DUP6 DUP2 MSTORE PUSH1 0x20 ADD DUP5 DUP2 MSTORE PUSH1 0x20 ADD DUP4 DUP2 MSTORE POP SWAP1 DUP1 PUSH1 0x1 DUP2 SLOAD ADD DUP1 DUP3 SSTORE DUP1 SWAP2 POP POP PUSH1 0x1 SWAP1 SUB SWAP1 PUSH0 MSTORE PUSH1 0x20 PUSH0 KECCAK256 SWAP1 PUSH1 0x3 MUL ADD PUSH0 SWAP1 SWAP2 SWAP1 SWAP2 SWAP1 SWAP2 POP PUSH0 DUP3 ADD MLOAD DUP2 PUSH0 ADD SWAP1 DUP2 PUSH2 0x2A3 SWAP2 SWAP1 PUSH2 0xBA5 JUMP JUMPDEST POP PUSH1 0x20 DUP3 ADD MLOAD DUP2 PUSH1 0x1 ADD SSTORE PUSH1 0x40 DUP3 ADD MLOAD DUP2 PUSH1 0x2 ADD SSTORE POP POP PUSH1 0x1 PUSH1 0x2 PUSH0 CALLER PUSH20 0xFFFFFFFFFFFFFFFFFFFFFFFFFFFFFFFFFFFFFFFF AND PUSH20 0xFFFFFFFFFFFFFFFFFFFFFFFFFFFFFFFFFFFFFFFF AND DUP2 MSTORE PUSH1 0x20 ADD SWAP1 DUP2 MSTORE PUSH1 0x20 ADD PUSH0 KECCAK256 PUSH0 DUP3 DUP3 SLOAD PUSH2 0x307 SWAP2 SWAP1 PUSH2 0xCA1 JUMP JUMPDEST SWAP3 POP POP DUP2 SWAP1 SSTORE POP DUP2 PUSH1 0x1 PUSH0 CALLER PUSH20 0xFFFFFFFFFFFFFFFFFFFFFFFFFFFFFFFFFFFFFFFF AND PUSH20 0xFFFFFFFFFFFFFFFFFFFFFFFFFFFFFFFFFFFFFFFF AND DUP2 MSTORE PUSH1 0x20 ADD SWAP1 DUP2 MSTORE PUSH1 0x20 ADD PUSH0 KECCAK256 PUSH0 DUP3 DUP3 SLOAD PUSH2 0x35A SWAP2 SWAP1 PUSH2 0xCA1 JUMP JUMPDEST SWAP3 POP POP DUP2 SWAP1 SSTORE POP CALLER PUSH20 0xFFFFFFFFFFFFFFFFFFFFFFFFFFFFFFFFFFFFFFFF AND PUSH32 0xED7B8E9E03910423E15FF1DC636BEBBB503790FB54E5F5E1D27D8CE9C61CCB1 DUP5 DUP5 DUP5 PUSH1 0x40 MLOAD PUSH2 0x3AB SWAP4 SWAP3 SWAP2 SWAP1 PUSH2 0x96C JUMP JUMPDEST PUSH1 0x40 MLOAD DUP1 SWAP2 SUB SWAP1 LOG2 PUSH1 0xA PUSH1 0x2 PUSH0 CALLER PUSH20 0xFFFFFFFFFFFFFFFFFFFFFFFFFFFFFFFFFFFFFFFF AND PUSH20 0xFFFFFFFFFFFFFFFFFFFFFFFFFFFFFFFFFFFFFFFF AND DUP2 MSTORE PUSH1 0x20 ADD SWAP1 DUP2 MSTORE PUSH1 0x20 ADD PUSH0 KECCAK256 SLOAD SUB PUSH2 0x484 JUMPI CALLER PUSH20 0xFFFFFFFFFFFFFFFFFFFFFFFFFFFFFFFFFFFFFFFF AND PUSH32 0x919547352C3FEB5516E059A7A2C5BF9739F61EB5C02673DBB990C9D71147C7E PUSH1 0x2 PUSH0 CALLER PUSH20 0xFFFFFFFFFFFFFFFFFFFFFFFFFFFFFFFFFFFFFFFF AND PUSH20 0xFFFFFFFFFFFFFFFFFFFFFFFFFFFFFFFFFFFFFFFF AND DUP2 MSTORE PUSH1 0x20 ADD SWAP1 DUP2 MSTORE PUSH1 0x20 ADD PUSH0 KECCAK256 SLOAD PUSH1 0x40 MLOAD PUSH2 0x47B SWAP2 SWAP1 PUSH2 0xD1E JUMP JUMPDEST PUSH1 0x40 MLOAD DUP1 SWAP2 SUB SWAP1 LOG2 JUMPDEST PUSH2 0x1F4 PUSH1 0x1 PUSH0 CALLER PUSH20 0xFFFFFFFFFFFFFFFFFFFFFFFFFFFFFFFFFFFFFFFF AND PUSH20 0xFFFFFFFFFFFFFFFFFFFFFFFFFFFFFFFFFFFFFFFF AND DUP2 MSTORE PUSH1 0x20 ADD SWAP1 DUP2 MSTORE PUSH1 0x20 ADD PUSH0 KECCAK256 SLOAD LT PUSH2 0x556 JUMPI CALLER PUSH20 0xFFFFFFFFFFFFFFFFFFFFFFFFFFFFFFFFFFFFFFFF AND PUSH32 0x919547352C3FEB5516E059A7A2C5BF9739F61EB5C02673DBB990C9D71147C7E PUSH1 0x1 PUSH0 CALLER PUSH20 0xFFFFFFFFFFFFFFFFFFFFFFFFFFFFFFFFFFFFFFFF AND PUSH20 0xFFFFFFFFFFFFFFFFFFFFFFFFFFFFFFFFFFFFFFFF AND DUP2 MSTORE PUSH1 0x20 ADD SWAP1 DUP2 MSTORE PUSH1 0x20 ADD PUSH0 KECCAK256 SLOAD PUSH1 0x40 MLOAD PUSH2 0x54D SWAP2 SWAP1 PUSH2 0xD94 JUMP JUMPDEST PUSH1 0x40 MLOAD DUP1 SWAP2 SUB SWAP1 LOG2 JUMPDEST POP POP POP JUMP JUMPDEST PUSH1 0x1 PUSH1 0x20 MSTORE DUP1 PUSH0 MSTORE PUSH1 0x40 PUSH0 KECCAK256 PUSH0 SWAP2 POP SWAP1 POP SLOAD DUP2 JUMP JUMPDEST PUSH0 PUSH1 0x20 MSTORE DUP2 PUSH0 MSTORE PUSH1 0x40 PUSH0 KECCAK256 DUP2 DUP2 SLOAD DUP2 LT PUSH2 0x588 JUMPI PUSH0 DUP1 REVERT JUMPDEST SWAP1 PUSH0 MSTORE PUSH1 0x20 PUSH0 KECCAK256 SWAP1 PUSH1 0x3 MUL ADD PUSH0 SWAP2 POP SWAP2 POP POP DUP1 PUSH0 ADD DUP1 SLOAD PUSH2 0x5A8 SWAP1 PUSH2 0x9D5 JUMP JUMPDEST DUP1 PUSH1 0x1F ADD PUSH1 0x20 DUP1 SWAP2 DIV MUL PUSH1 0x20 ADD PUSH1 0x40 MLOAD SWAP1 DUP2 ADD PUSH1 0x40 MSTORE DUP1 SWAP3 SWAP2 SWAP1 DUP2 DUP2 MSTORE PUSH1 0x20 ADD DUP3 DUP1 SLOAD PUSH2 0x5D4 SWAP1 PUSH2 0x9D5 JUMP JUMPDEST DUP1 ISZERO PUSH2 0x61F JUMPI DUP1 PUSH1 0x1F LT PUSH2 0x5F6 JUMPI PUSH2 0x100 DUP1 DUP4 SLOAD DIV MUL DUP4 MSTORE SWAP2 PUSH1 0x20 ADD SWAP2 PUSH2 0x61F JUMP JUMPDEST DUP3 ADD SWAP2 SWAP1 PUSH0 MSTORE PUSH1 0x20 PUSH0 KECCAK256 SWAP1 JUMPDEST DUP2 SLOAD DUP2 MSTORE SWAP1 PUSH1 0x1 ADD SWAP1 PUSH1 0x20 ADD DUP1 DUP4 GT PUSH2 0x602 JUMPI DUP3 SWAP1 SUB PUSH1 0x1F AND DUP3 ADD SWAP2 JUMPDEST POP POP POP POP POP SWAP1 DUP1 PUSH1 0x1 ADD SLOAD SWAP1 DUP1 PUSH1 0x2 ADD SLOAD SWAP1 POP DUP4 JUMP JUMPDEST PUSH0 PUSH1 0x40 MLOAD SWAP1 POP SWAP1 JUMP JUMPDEST PUSH0 PUSH0 REVERT JUMPDEST PUSH0 PUSH0 REVERT JUMPDEST PUSH0 PUSH20 0xFFFFFFFFFFFFFFFFFFFFFFFFFFFFFFFFFFFFFFFF DUP3 AND SWAP1 POP SWAP2 SWAP1 POP JUMP JUMPDEST PUSH0 PUSH2 0x66F DUP3 PUSH2 0x646 JUMP JUMPDEST SWAP1 POP SWAP2 SWAP1 POP JUMP JUMPDEST PUSH2 0x67F DUP2 PUSH2 0x665 JUMP JUMPDEST DUP2 EQ PUSH2 0x689 JUMPI PUSH0 PUSH0 REVERT JUMPDEST POP JUMP JUMPDEST PUSH0 DUP2 CALLDATALOAD SWAP1 POP PUSH2 0x69A DUP2 PUSH2 0x676 JUMP JUMPDEST SWAP3 SWAP2 POP POP JUMP JUMPDEST PUSH0 PUSH1 0x20 DUP3 DUP5 SUB SLT ISZERO PUSH2 0x6B5 JUMPI PUSH2 0x6B4 PUSH2 0x63E JUMP JUMPDEST JUMPDEST PUSH0 PUSH2 0x6C2 DUP5 DUP3 DUP6 ADD PUSH2 0x68C JUMP JUMPDEST SWAP2 POP POP SWAP3 SWAP2 POP POP JUMP JUMPDEST PUSH0 DUP2 SWAP1 POP SWAP2 SWAP1 POP JUMP JUMPDEST PUSH2 0x6DD DUP2 PUSH2 0x6CB JUMP JUMPDEST DUP3 MSTORE POP POP JUMP JUMPDEST PUSH0 PUSH1 0x20 DUP3 ADD SWAP1 POP PUSH2 0x6F6 PUSH0 DUP4 ADD DUP5 PUSH2 0x6D4 JUMP JUMPDEST SWAP3 SWAP2 POP POP JUMP JUMPDEST PUSH0 PUSH0 REVERT JUMPDEST PUSH0 PUSH0 REVERT JUMPDEST PUSH0 PUSH1 0x1F NOT PUSH1 0x1F DUP4 ADD AND SWAP1 POP SWAP2 SWAP1 POP JUMP JUMPDEST PUSH32 0x4E487B7100000000000000000000000000000000000000000000000000000000 PUSH0 MSTORE PUSH1 0x41 PUSH1 0x4 MSTORE PUSH1 0x24 PUSH0 REVERT JUMPDEST PUSH2 0x74A DUP3 PUSH2 0x704 JUMP JUMPDEST DUP2 ADD DUP2 DUP2 LT PUSH8 0xFFFFFFFFFFFFFFFF DUP3 GT OR ISZERO PUSH2 0x769 JUMPI PUSH2 0x768 PUSH2 0x714 JUMP JUMPDEST JUMPDEST DUP1 PUSH1 0x40 MSTORE POP POP POP JUMP JUMPDEST PUSH0 PUSH2 0x77B PUSH2 0x635 JUMP JUMPDEST SWAP1 POP PUSH2 0x787 DUP3 DUP3 PUSH2 0x741 JUMP JUMPDEST SWAP2 SWAP1 POP JUMP JUMPDEST PUSH0 PUSH8 0xFFFFFFFFFFFFFFFF DUP3 GT ISZERO PUSH2 0x7A6 JUMPI PUSH2 0x7A5 PUSH2 0x714 JUMP JUMPDEST JUMPDEST PUSH2 0x7AF DUP3 PUSH2 0x704 JUMP JUMPDEST SWAP1 POP PUSH1 0x20 DUP2 ADD SWAP1 POP SWAP2 SWAP1 POP JUMP JUMPDEST DUP3 DUP2 DUP4 CALLDATACOPY PUSH0 DUP4 DUP4 ADD MSTORE POP POP POP JUMP JUMPDEST PUSH0 PUSH2 0x7DC PUSH2 0x7D7 DUP5 PUSH2 0x78C JUMP JUMPDEST PUSH2 0x772 JUMP JUMPDEST SWAP1 POP DUP3 DUP2 MSTORE PUSH1 0x20 DUP2 ADD DUP5 DUP5 DUP5 ADD GT ISZERO PUSH2 0x7F8 JUMPI PUSH2 0x7F7 PUSH2 0x700 JUMP JUMPDEST JUMPDEST PUSH2 0x803 DUP5 DUP3 DUP6 PUSH2 0x7BC JUMP JUMPDEST POP SWAP4 SWAP3 POP POP POP JUMP JUMPDEST PUSH0 DUP3 PUSH1 0x1F DUP4 ADD SLT PUSH2 0x81F JUMPI PUSH2 0x81E PUSH2 0x6FC JUMP JUMPDEST JUMPDEST DUP2 CALLDATALOAD PUSH2 0x82F DUP5 DUP3 PUSH1 0x20 DUP7 ADD PUSH2 0x7CA JUMP JUMPDEST SWAP2 POP POP SWAP3 SWAP2 POP POP JUMP JUMPDEST PUSH2 0x841 DUP2 PUSH2 0x6CB JUMP JUMPDEST DUP2 EQ PUSH2 0x84B JUMPI PUSH0 PUSH0 REVERT JUMPDEST POP JUMP JUMPDEST PUSH0 DUP2 CALLDATALOAD SWAP1 POP PUSH2 0x85C DUP2 PUSH2 0x838 JUMP JUMPDEST SWAP3 SWAP2 POP POP JUMP JUMPDEST PUSH0 PUSH0 PUSH0 PUSH1 0x60 DUP5 DUP7 SUB SLT ISZERO PUSH2 0x879 JUMPI PUSH2 0x878 PUSH2 0x63E JUMP JUMPDEST JUMPDEST PUSH0 DUP5 ADD CALLDATALOAD PUSH8 0xFFFFFFFFFFFFFFFF DUP2 GT ISZERO PUSH2 0x896 JUMPI PUSH2 0x895 PUSH2 0x642 JUMP JUMPDEST JUMPDEST PUSH2 0x8A2 DUP7 DUP3 DUP8 ADD PUSH2 0x80B JUMP JUMPDEST SWAP4 POP POP PUSH1 0x20 PUSH2 0x8B3 DUP7 DUP3 DUP8 ADD PUSH2 0x84E JUMP JUMPDEST SWAP3 POP POP PUSH1 0x40 PUSH2 0x8C4 DUP7 DUP3 DUP8 ADD PUSH2 0x84E JUMP JUMPDEST SWAP2 POP POP SWAP3 POP SWAP3 POP SWAP3 JUMP JUMPDEST PUSH0 PUSH0 PUSH1 0x40 DUP4 DUP6 SUB SLT ISZERO PUSH2 0x8E4 JUMPI PUSH2 0x8E3 PUSH2 0x63E JUMP JUMPDEST JUMPDEST PUSH0 PUSH2 0x8F1 DUP6 DUP3 DUP7 ADD PUSH2 0x68C JUMP JUMPDEST SWAP3 POP POP PUSH1 0x20 PUSH2 0x902 DUP6 DUP3 DUP7 ADD PUSH2 0x84E JUMP JUMPDEST SWAP2 POP POP SWAP3 POP SWAP3 SWAP1 POP JUMP JUMPDEST PUSH0 DUP2 MLOAD SWAP1 POP SWAP2 SWAP1 POP JUMP JUMPDEST PUSH0 DUP3 DUP3 MSTORE PUSH1 0x20 DUP3 ADD SWAP1 POP SWAP3 SWAP2 POP POP JUMP JUMPDEST DUP3 DUP2 DUP4 MCOPY PUSH0 DUP4 DUP4 ADD MSTORE POP POP POP JUMP JUMPDEST PUSH0 PUSH2 0x93E DUP3 PUSH2 0x90C JUMP JUMPDEST PUSH2 0x948 DUP2 DUP6 PUSH2 0x916 JUMP JUMPDEST SWAP4 POP PUSH2 0x958 DUP2 DUP6 PUSH1 0x20 DUP7 ADD PUSH2 0x926 JUMP JUMPDEST PUSH2 0x961 DUP2 PUSH2 0x704 JUMP JUMPDEST DUP5 ADD SWAP2 POP POP SWAP3 SWAP2 POP POP JUMP JUMPDEST PUSH0 PUSH1 0x60 DUP3 ADD SWAP1 POP DUP2 DUP2 SUB PUSH0 DUP4 ADD MSTORE PUSH2 0x984 DUP2 DUP7 PUSH2 0x934 JUMP JUMPDEST SWAP1 POP PUSH2 0x993 PUSH1 0x20 DUP4 ADD DUP6 PUSH2 0x6D4 JUMP JUMPDEST PUSH2 0x9A0 PUSH1 0x40 DUP4 ADD DUP5 PUSH2 0x6D4 JUMP JUMPDEST SWAP5 SWAP4 POP POP POP POP JUMP JUMPDEST PUSH32 0x4E487B7100000000000000000000000000000000000000000000000000000000 PUSH0 MSTORE PUSH1 0x22 PUSH1 0x4 MSTORE PUSH1 0x24 PUSH0 REVERT JUMPDEST PUSH0 PUSH1 0x2 DUP3 DIV SWAP1 POP PUSH1 0x1 DUP3 AND DUP1 PUSH2 0x9EC JUMPI PUSH1 0x7F DUP3 AND SWAP2 POP JUMPDEST PUSH1 0x20 DUP3 LT DUP2 SUB PUSH2 0x9FF JUMPI PUSH2 0x9FE PUSH2 0x9A8 JUMP JUMPDEST JUMPDEST POP SWAP2 SWAP1 POP JUMP JUMPDEST PUSH0 DUP2 SWAP1 POP DUP2 PUSH0 MSTORE PUSH1 0x20 PUSH0 KECCAK256 SWAP1 POP SWAP2 SWAP1 POP JUMP JUMPDEST PUSH0 PUSH1 0x20 PUSH1 0x1F DUP4 ADD DIV SWAP1 POP SWAP2 SWAP1 POP JUMP JUMPDEST PUSH0 DUP3 DUP3 SHL SWAP1 POP SWAP3 SWAP2 POP POP JUMP JUMPDEST PUSH0 PUSH1 0x8 DUP4 MUL PUSH2 0xA61 PUSH32 0xFFFFFFFFFFFFFFFFFFFFFFFFFFFFFFFFFFFFFFFFFFFFFFFFFFFFFFFFFFFFFFFF DUP3 PUSH2 0xA26 JUMP JUMPDEST PUSH2 0xA6B DUP7 DUP4 PUSH2 0xA26 JUMP JUMPDEST SWAP6 POP DUP1 NOT DUP5 AND SWAP4 POP DUP1 DUP7 AND DUP5 OR SWAP3 POP POP POP SWAP4 SWAP3 POP POP POP JUMP JUMPDEST PUSH0 DUP2 SWAP1 POP SWAP2 SWAP1 POP JUMP JUMPDEST PUSH0 PUSH2 0xAA6 PUSH2 0xAA1 PUSH2 0xA9C DUP5 PUSH2 0x6CB JUMP JUMPDEST PUSH2 0xA83 JUMP JUMPDEST PUSH2 0x6CB JUMP JUMPDEST SWAP1 POP SWAP2 SWAP1 POP JUMP JUMPDEST PUSH0 DUP2 SWAP1 POP SWAP2 SWAP1 POP JUMP JUMPDEST PUSH2 0xABF DUP4 PUSH2 0xA8C JUMP JUMPDEST PUSH2 0xAD3 PUSH2 0xACB DUP3 PUSH2 0xAAD JUMP JUMPDEST DUP5 DUP5 SLOAD PUSH2 0xA32 JUMP JUMPDEST DUP3 SSTORE POP POP POP POP JUMP JUMPDEST PUSH0 PUSH0 SWAP1 POP SWAP1 JUMP JUMPDEST PUSH2 0xAEA PUSH2 0xADB JUMP JUMPDEST PUSH2 0xAF5 DUP2 DUP5 DUP5 PUSH2 0xAB6 JUMP JUMPDEST POP POP POP JUMP JUMPDEST JUMPDEST DUP2 DUP2 LT ISZERO PUSH2 0xB18 JUMPI PUSH2 0xB0D PUSH0 DUP3 PUSH2 0xAE2 JUMP JUMPDEST PUSH1 0x1 DUP2 ADD SWAP1 POP PUSH2 0xAFB JUMP JUMPDEST POP POP JUMP JUMPDEST PUSH1 0x1F DUP3 GT ISZERO PUSH2 0xB5D JUMPI PUSH2 0xB2E DUP2 PUSH2 0xA05 JUMP JUMPDEST PUSH2 0xB37 DUP5 PUSH2 0xA17 JUMP JUMPDEST DUP2 ADD PUSH1 0x20 DUP6 LT ISZERO PUSH2 0xB46 JUMPI DUP2 SWAP1 POP JUMPDEST PUSH2 0xB5A PUSH2 0xB52 DUP6 PUSH2 0xA17 JUMP JUMPDEST DUP4 ADD DUP3 PUSH2 0xAFA JUMP JUMPDEST POP POP JUMPDEST POP POP POP JUMP JUMPDEST PUSH0 DUP3 DUP3 SHR SWAP1 POP SWAP3 SWAP2 POP POP JUMP JUMPDEST PUSH0 PUSH2 0xB7D PUSH0 NOT DUP5 PUSH1 0x8 MUL PUSH2 0xB62 JUMP JUMPDEST NOT DUP1 DUP4 AND SWAP2 POP POP SWAP3 SWAP2 POP POP JUMP JUMPDEST PUSH0 PUSH2 0xB95 DUP4 DUP4 PUSH2 0xB6E JUMP JUMPDEST SWAP2 POP DUP3 PUSH1 0x2 MUL DUP3 OR SWAP1 POP SWAP3 SWAP2 POP POP JUMP JUMPDEST PUSH2 0xBAE DUP3 PUSH2 0x90C JUMP JUMPDEST PUSH8 0xFFFFFFFFFFFFFFFF DUP2 GT ISZERO PUSH2 0xBC7 JUMPI PUSH2 0xBC6 PUSH2 0x714 JUMP JUMPDEST JUMPDEST PUSH2 0xBD1 DUP3 SLOAD PUSH2 0x9D5 JUMP JUMPDEST PUSH2 0xBDC DUP3 DUP3 DUP6 PUSH2 0xB1C JUMP JUMPDEST PUSH0 PUSH1 0x20 SWAP1 POP PUSH1 0x1F DUP4 GT PUSH1 0x1 DUP2 EQ PUSH2 0xC0D JUMPI PUSH0 DUP5 ISZERO PUSH2 0xBFB JUMPI DUP3 DUP8 ADD MLOAD SWAP1 POP JUMPDEST PUSH2 0xC05 DUP6 DUP3 PUSH2 0xB8A JUMP JUMPDEST DUP7 SSTORE POP PUSH2 0xC6C JUMP JUMPDEST PUSH1 0x1F NOT DUP5 AND PUSH2 0xC1B DUP7 PUSH2 0xA05 JUMP JUMPDEST PUSH0 JUMPDEST DUP3 DUP2 LT ISZERO PUSH2 0xC42 JUMPI DUP5 DUP10 ADD MLOAD DUP3 SSTORE PUSH1 0x1 DUP3 ADD SWAP2 POP PUSH1 0x20 DUP6 ADD SWAP5 POP PUSH1 0x20 DUP2 ADD SWAP1 POP PUSH2 0xC1D JUMP JUMPDEST DUP7 DUP4 LT ISZERO PUSH2 0xC5F JUMPI DUP5 DUP10 ADD MLOAD PUSH2 0xC5B PUSH1 0x1F DUP10 AND DUP3 PUSH2 0xB6E JUMP JUMPDEST DUP4 SSTORE POP JUMPDEST PUSH1 0x1 PUSH1 0x2 DUP9 MUL ADD DUP9 SSTORE POP POP POP JUMPDEST POP POP POP POP POP POP JUMP JUMPDEST PUSH32 0x4E487B7100000000000000000000000000000000000000000000000000000000 PUSH0 MSTORE PUSH1 0x11 PUSH1 0x4 MSTORE PUSH1 0x24 PUSH0 REVERT JUMPDEST PUSH0 PUSH2 0xCAB DUP3 PUSH2 0x6CB JUMP JUMPDEST SWAP2 POP PUSH2 0xCB6 DUP4 PUSH2 0x6CB JUMP JUMPDEST SWAP3 POP DUP3 DUP3 ADD SWAP1 POP DUP1 DUP3 GT ISZERO PUSH2 0xCCE JUMPI PUSH2 0xCCD PUSH2 0xC74 JUMP JUMPDEST JUMPDEST SWAP3 SWAP2 POP POP JUMP JUMPDEST PUSH32 0x313020576F726B6F757473204D696C6573746F6E650000000000000000000000 PUSH0 DUP3 ADD MSTORE POP JUMP JUMPDEST PUSH0 PUSH2 0xD08 PUSH1 0x15 DUP4 PUSH2 0x916 JUMP JUMPDEST SWAP2 POP PUSH2 0xD13 DUP3 PUSH2 0xCD4 JUMP JUMPDEST PUSH1 0x20 DUP3 ADD SWAP1 POP SWAP2 SWAP1 POP JUMP JUMPDEST PUSH0 PUSH1 0x40 DUP3 ADD SWAP1 POP DUP2 DUP2 SUB PUSH0 DUP4 ADD MSTORE PUSH2 0xD35 DUP2 PUSH2 0xCFC JUMP JUMPDEST SWAP1 POP PUSH2 0xD44 PUSH1 0x20 DUP4 ADD DUP5 PUSH2 0x6D4 JUMP JUMPDEST SWAP3 SWAP2 POP POP JUMP JUMPDEST PUSH32 0x353030204D696E75746573204D696C6573746F6E650000000000000000000000 PUSH0 DUP3 ADD MSTORE POP JUMP JUMPDEST PUSH0 PUSH2 0xD7E PUSH1 0x15 DUP4 PUSH2 0x916 JUMP JUMPDEST SWAP2 POP PUSH2 0xD89 DUP3 PUSH2 0xD4A JUMP JUMPDEST PUSH1 0x20 DUP3 ADD SWAP1 POP SWAP2 SWAP1 POP JUMP JUMPDEST PUSH0 PUSH1 0x40 DUP3 ADD SWAP1 POP DUP2 DUP2 SUB PUSH0 DUP4 ADD MSTORE PUSH2 0xDAB DUP2 PUSH2 0xD72 JUMP JUMPDEST SWAP1 POP PUSH2 0xDBA PUSH1 0x20 DUP4 ADD DUP5 PUSH2 0x6D4 JUMP JUMPDEST SWAP3 SWAP2 POP POP JUMP INVALID LOG2 PUSH5 0x6970667358 0x22 SLT KECCAK256 SUB PUSH19 0x886087D64B2FC7370F57A031683F04CEE5FAAC 0xE MLOAD RJUMP 0x412 0xB6 DUPN 0xD8 SIGNEXTEND 0xC0 EXTCALL PUSH5 0x736F6C6343 STOP ADDMOD 0x1E STOP CALLER "
		},
		"gasEstimates": {
			"creation": {
				"codeDepositCost": "714800",
				"executionCost": "745",
				"totalCost": "715545"
			},
			"external": {
				"getTotalMinutes(address)": "2829",
				"getTotalWorkouts(address)": "2851",
				"logWorkout(string,uint256,uint256)": "infinite",
				"totalMinutes(address)": "2868",
				"totalWorkouts(address)": "2780",
				"userWorkouts(address,uint256)": "infinite"
			}
		},
		"methodIdentifiers": {
			"getTotalMinutes(address)": "40fa30ce",
			"getTotalWorkouts(address)": "84fd48b8",
			"logWorkout(string,uint256,uint256)": "c5af3f8c",
			"totalMinutes(address)": "da1d0344",
			"totalWorkouts(address)": "03cdaddd",
			"userWorkouts(address,uint256)": "fb42adc6"
		}
	},
	"abi": [
		{
			"anonymous": false,
			"inputs": [
				{
					"indexed": true,
					"internalType": "address",
					"name": "user",
					"type": "address"
				},
				{
					"indexed": false,
					"internalType": "string",
					"name": "goalType",
					"type": "string"
				},
				{
					"indexed": false,
					"internalType": "uint256",
					"name": "value",
					"type": "uint256"
				}
			],
			"name": "GoalReached",
			"type": "event"
		},
		{
			"anonymous": false,
			"inputs": [
				{
					"indexed": true,
					"internalType": "address",
					"name": "user",
					"type": "address"
				},
				{
					"indexed": false,
					"internalType": "string",
					"name": "workoutType",
					"type": "string"
				},
				{
					"indexed": false,
					"internalType": "uint256",
					"name": "duration",
					"type": "uint256"
				},
				{
					"indexed": false,
					"internalType": "uint256",
					"name": "calories",
					"type": "uint256"
				}
			],
			"name": "WorkoutLogged",
			"type": "event"
		},
		{
			"inputs": [
				{
					"internalType": "address",
					"name": "user",
					"type": "address"
				}
			],
			"name": "getTotalMinutes",
			"outputs": [
				{
					"internalType": "uint256",
					"name": "",
					"type": "uint256"
				}
			],
			"stateMutability": "view",
			"type": "function"
		},
		{
			"inputs": [
				{
					"internalType": "address",
					"name": "user",
					"type": "address"
				}
			],
			"name": "getTotalWorkouts",
			"outputs": [
				{
					"internalType": "uint256",
					"name": "",
					"type": "uint256"
				}
			],
			"stateMutability": "view",
			"type": "function"
		},
		{
			"inputs": [
				{
					"internalType": "string",
					"name": "_type",
					"type": "string"
				},
				{
					"internalType": "uint256",
					"name": "_duration",
					"type": "uint256"
				},
				{
					"internalType": "uint256",
					"name": "_calories",
					"type": "uint256"
				}
			],
			"name": "logWorkout",
			"outputs": [],
			"stateMutability": "nonpayable",
			"type": "function"
		},
		{
			"inputs": [
				{
					"internalType": "address",
					"name": "",
					"type": "address"
				}
			],
			"name": "totalMinutes",
			"outputs": [
				{
					"internalType": "uint256",
					"name": "",
					"type": "uint256"
				}
			],
			"stateMutability": "view",
			"type": "function"
		},
		{
			"inputs": [
				{
					"internalType": "address",
					"name": "",
					"type": "address"
				}
			],
			"name": "totalWorkouts",
			"outputs": [
				{
					"internalType": "uint256",
					"name": "",
					"type": "uint256"
				}
			],
			"stateMutability": "view",
			"type": "function"
		},
		{
			"inputs": [
				{
					"internalType": "address",
					"name": "",
					"type": "address"
				},
				{
					"internalType": "uint256",
					"name": "",
					"type": "uint256"
				}
			],
			"name": "userWorkouts",
			"outputs": [
				{
					"internalType": "string",
					"name": "workoutType",
					"type": "string"
				},
				{
					"internalType": "uint256",
					"name": "duration",
					"type": "uint256"
				},
				{
					"internalType": "uint256",
					"name": "calories",
					"type": "uint256"
				}
			],
			"stateMutability": "view",
			"type": "function"
		}
	]
}