{"abi":[{"type":"function","name":"getMyProfile","inputs":[],"outputs":[{"name":"","type":"string","internalType":"string"},{"name":"","type":"string","internalType":"string"}],"stateMutability":"view"},{"type":"function","name":"getUserProfile","inputs":[{"name":"_user","type":"address","internalType":"address"}],"outputs":[{"name":"","type":"string","internalType":"string"},{"name":"","type":"string","internalType":"string"}],"stateMutability":"view"},{"type":"function","name":"saveMyProfile","inputs":[{"name":"_name","type":"string","internalType":"string"},{"name":"_bio","type":"string","internalType":"string"}],"outputs":[],"stateMutability":"nonpayable"},{"type":"event","name":"ProfileUpdated","inputs":[{"name":"user","type":"address","indexed":true,"internalType":"address"},{"name":"name","type":"string","indexed":false,"internalType":"string"},{"name":"bio","type":"string","indexed":false,"internalType":"string"}],"anonymous":false}],"bytecode":{"object":"0x6080604052348015600e575f5ffd5b50610a668061001c5f395ff3fe608060405234801561000f575f5ffd5b506004361061003f575f3560e01c806321527e50146100435780633b171eb114610062578063987ee1561461007e575b5f5ffd5b61004b6100af565b6040516100599291906104ee565b60405180910390f35b61007c60048036038101906100779190610660565b61022d565b005b61009860048036038101906100939190610730565b6102ff565b6040516100a69291906104ee565b60405180910390f35b6060805f5f5f3373ffffffffffffffffffffffffffffffffffffffff1673ffffffffffffffffffffffffffffffffffffffff1681526020019081526020015f206040518060400160405290815f8201805461010990610788565b80601f016020809104026020016040519081016040528092919081815260200182805461013590610788565b80156101805780601f1061015757610100808354040283529160200191610180565b820191905f5260205f20905b81548152906001019060200180831161016357829003601f168201915b5050505050815260200160018201805461019990610788565b80601f01602080910402602001604051908101604052809291908181526020018280546101c590610788565b80156102105780601f106101e757610100808354040283529160200191610210565b820191905f5260205f20905b8154815290600101906020018083116101f357829003601f168201915b5050505050815250509050805f0151816020015192509250509091565b6040518060400160405280838152602001828152505f5f3373ffffffffffffffffffffffffffffffffffffffff1673ffffffffffffffffffffffffffffffffffffffff1681526020019081526020015f205f820151815f0190816102919190610961565b5060208201518160010190816102a79190610961565b509050503373ffffffffffffffffffffffffffffffffffffffff167f6eb3a1c6a4675ba92d44e090515b1ceea358f26565d2854df0c99c3f5eaf985083836040516102f39291906104ee565b60405180910390a25050565b6060805f5f5f8573ffffffffffffffffffffffffffffffffffffffff1673ffffffffffffffffffffffffffffffffffffffff1681526020019081526020015f206040518060400160405290815f8201805461035990610788565b80601f016020809104026020016040519081016040528092919081815260200182805461038590610788565b80156103d05780601f106103a7576101008083540402835291602001916103d0565b820191905f5260205f20905b8154815290600101906020018083116103b357829003601f168201915b505050505081526020016001820180546103e990610788565b80601f016020809104026020016040519081016040528092919081815260200182805461041590610788565b80156104605780601f1061043757610100808354040283529160200191610460565b820191905f5260205f20905b81548152906001019060200180831161044357829003601f168201915b5050505050815250509050805f015181602001519250925050915091565b5f81519050919050565b5f82825260208201905092915050565b8281835e5f83830152505050565b5f601f19601f8301169050919050565b5f6104c08261047e565b6104ca8185610488565b93506104da818560208601610498565b6104e3816104a6565b840191505092915050565b5f6040820190508181035f83015261050681856104b6565b9050818103602083015261051a81846104b6565b90509392505050565b5f604051905090565b5f5ffd5b5f5ffd5b5f5ffd5b5f5ffd5b7f4e487b71000000000000000000000000000000000000000000000000000000005f52604160045260245ffd5b610572826104a6565b810181811067ffffffffffffffff821117156105915761059061053c565b5b80604052505050565b5f6105a3610523565b90506105af8282610569565b919050565b5f67ffffffffffffffff8211156105ce576105cd61053c565b5b6105d7826104a6565b9050602081019050919050565b828183375f83830152505050565b5f6106046105ff846105b4565b61059a565b9050828152602081018484840111156106205761061f610538565b5b61062b8482856105e4565b509392505050565b5f82601f83011261064757610646610534565b5b81356106578482602086016105f2565b91505092915050565b5f5f604083850312156106765761067561052c565b5b5f83013567ffffffffffffffff81111561069357610692610530565b5b61069f85828601610633565b925050602083013567ffffffffffffffff8111156106c0576106bf610530565b5b6106cc85828601610633565b9150509250929050565b5f73ffffffffffffffffffffffffffffffffffffffff82169050919050565b5f6106ff826106d6565b9050919050565b61070f816106f5565b8114610719575f5ffd5b50565b5f8135905061072a81610706565b92915050565b5f602082840312156107455761074461052c565b5b5f6107528482850161071c565b91505092915050565b7f4e487b71000000000000000000000000000000000000000000000000000000005f52602260045260245ffd5b5f600282049050600182168061079f57607f821691505b6020821081036107b2576107b161075b565b5b50919050565b5f819050815f5260205f209050919050565b5f6020601f8301049050919050565b5f82821b905092915050565b5f600883026108147fffffffffffffffffffffffffffffffffffffffffffffffffffffffffffffffff826107d9565b61081e86836107d9565b95508019841693508086168417925050509392505050565b5f819050919050565b5f819050919050565b5f61086261085d61085884610836565b61083f565b610836565b9050919050565b5f819050919050565b61087b83610848565b61088f61088782610869565b8484546107e5565b825550505050565b5f5f905090565b6108a6610897565b6108b1818484610872565b505050565b5b818110156108d4576108c95f8261089e565b6001810190506108b7565b5050565b601f821115610919576108ea816107b8565b6108f3846107ca565b81016020851015610902578190505b61091661090e856107ca565b8301826108b6565b50505b505050565b5f82821c905092915050565b5f6109395f198460080261091e565b1980831691505092915050565b5f610951838361092a565b9150826002028217905092915050565b61096a8261047e565b67ffffffffffffffff8111156109835761098261053c565b5b61098d8254610788565b6109988282856108d8565b5f60209050601f8311600181146109c9575f84156109b7578287015190505b6109c18582610946565b865550610a28565b601f1984166109d7866107b8565b5f5b828110156109fe578489015182556001820191506020850194506020810190506109d9565b86831015610a1b5784890151610a17601f89168261092a565b8355505b6001600288020188555050505b50505050505056fea26469706673582212201e6b9ace48bcb2ec92939a2a27ac607e542da56e48e0131d2ce84bba9b70408464736f6c634300081e0033","linkReferences":{}},"methodIdentifiers":{"getMyProfile()":"21527e50","getUserProfile(address)":"987ee156","saveMyProfile(string,string)":"3b171eb1"},"id":20}