{
	"AutomatedMarketMaker.sol": {
		"AutomatedMarketMaker": {
			"abi": [
				{
					"inputs": [
						{
							"internalType": "address",
							"name": "_tokenA",
							"type": "address"
						},
						{
							"internalType": "address",
							"name": "_tokenB",
							"type": "address"
						}
					],
					"stateMutability": "nonpayable",
					"type": "constructor"
				},
				{
					"anonymous": false,
					"inputs": [
						{
							"indexed": true,
							"internalType": "address",
							"name": "provider",
							"type": "address"
						},
						{
							"indexed": false,
							"internalType": "uint256",
							"name": "amountA",
							"type": "uint256"
						},
						{
							"indexed": false,
							"internalType": "uint256",
							"name": "amountB",
							"type": "uint256"
						},
						{
							"indexed": false,
							"internalType": "uint256",
							"name": "lpMinted",
							"type": "uint256"
						}
					],
					"name": "LiquidityAdded",
					"type": "event"
				},
				{
					"anonymous": false,
					"inputs": [
						{
							"indexed": true,
							"internalType": "address",
							"name": "provider",
							"type": "address"
						},
						{
							"indexed": false,
							"internalType": "uint256",
							"name": "amountA",
							"type": "uint256"
						},
						{
							"indexed": false,
							"internalType": "uint256",
							"name": "amountB",
							"type": "uint256"
						},
						{
							"indexed": false,
							"internalType": "uint256",
							"name": "lpBurned",
							"type": "uint256"
						}
					],
					"name": "LiquidityRemoved",
					"type": "event"
				},
				{
					"anonymous": false,
					"inputs": [
						{
							"indexed": true,
							"internalType": "address",
							"name": "trader",
							"type": "address"
						},
						{
							"indexed": false,
							"internalType": "address",
							"name": "tokenIn",
							"type": "address"
						},
						{
							"indexed": false,
							"internalType": "uint256",
							"name": "amountIn",
							"type": "uint256"
						},
						{
							"indexed": false,
							"internalType": "uint256",
							"name": "amountOut",
							"type": "uint256"
						}
					],
					"name": "Swapped",
					"type": "event"
				},
				{
					"inputs": [
						{
							"internalType": "uint256",
							"name": "amountA",
							"type": "uint256"
						},
						{
							"internalType": "uint256",
							"name": "amountB",
							"type": "uint256"
						}
					],
					"name": "addLiquidity",
					"outputs": [
						{
							"internalType": "uint256",
							"name": "lpMinted",
							"type": "uint256"
						}
					],
					"stateMutability": "nonpayable",
					"type": "function"
				},
				{
					"inputs": [
						{
							"internalType": "uint256",
							"name": "amountIn",
							"type": "uint256"
						},
						{
							"internalType": "uint256",
							"name": "reserveIn",
							"type": "uint256"
						},
						{
							"internalType": "uint256",
							"name": "reserveOut",
							"type": "uint256"
						}
					],
					"name": "getAmountOut",
					"outputs": [
						{
							"internalType": "uint256",
							"name": "",
							"type": "uint256"
						}
					],
					"stateMutability": "pure",
					"type": "function"
				},
				{
					"inputs": [
						{
							"internalType": "address",
							"name": "",
							"type": "address"
						}
					],
					"name": "lpBalance",
					"outputs": [
						{
							"internalType": "uint256",
							"name": "",
							"type": "uint256"
						}
					],
					"stateMutability": "view",
					"type": "function"
				},
				{
					"inputs": [
						{
							"internalType": "uint256",
							"name": "lpAmount",
							"type": "uint256"
						}
					],
					"name": "removeLiquidity",
					"outputs": [
						{
							"internalType": "uint256",
							"name": "amountA",
							"type": "uint256"
						},
						{
							"internalType": "uint256",
							"name": "amountB",
							"type": "uint256"
						}
					],
					"stateMutability": "nonpayable",
					"type": "function"
				},
				{
					"inputs": [],
					"name": "reserveA",
					"outputs": [
						{
							"internalType": "uint256",
							"name": "",
							"type": "uint256"
						}
					],
					"stateMutability": "view",
					"type": "function"
				},
				{
					"inputs": [],
					"name": "reserveB",
					"outputs": [
						{
							"internalType": "uint256",
							"name": "",
							"type": "uint256"
						}
					],
					"stateMutability": "view",
					"type": "function"
				},
				{
					"inputs": [
						{
							"internalType": "uint256",
							"name": "amountAIn",
							"type": "uint256"
						}
					],
					"name": "swapAforB",
					"outputs": [
						{
							"internalType": "uint256",
							"name": "amountBOut",
							"type": "uint256"
						}
					],
					"stateMutability": "nonpayable",
					"type": "function"
				},
				{
					"inputs": [
						{
							"internalType": "uint256",
							"name": "amountBIn",
							"type": "uint256"
						}
					],
					"name": "swapBforA",
					"outputs": [
						{
							"internalType": "uint256",
							"name": "amountAOut",
							"type": "uint256"
						}
					],
					"stateMutability": "nonpayable",
					"type": "function"
				},
				{
					"inputs": [],
					"name": "tokenA",
					"outputs": [
						{
							"internalType": "contract IERC20",
							"name": "",
							"type": "address"
						}
					],
					"stateMutability": "view",
					"type": "function"
				},
				{
					"inputs": [],
					"name": "tokenB",
					"outputs": [
						{
							"internalType": "contract IERC20",
							"name": "",
							"type": "address"
						}
					],
					"stateMutability": "view",
					"type": "function"
				},
				{
					"inputs": [],
					"name": "totalLPSupply",
					"outputs": [
						{
							"internalType": "uint256",
							"name": "",
							"type": "uint256"
						}
					],
					"stateMutability": "view",
					"type": "function"
				}
			],
			"devdoc": {
				"kind": "dev",
				"methods": {},
				"version": 1
			},
			"evm": {
				"assembly": "    /* \"AutomatedMarketMaker.sol\":521:4543  contract AutomatedMarketMaker {... */\n  mstore(0x40, 0x80)\n    /* \"AutomatedMarketMaker.sol\":1076:1200  constructor(address _tokenA, address _tokenB) {... */\n  callvalue\n  dup1\n  iszero\n  tag_1\n  jumpi\n  revert(0x00, 0x00)\ntag_1:\n  pop\n  mload(0x40)\n  sub(codesize, bytecodeSize)\n  dup1\n  bytecodeSize\n  dup4\n  codecopy\n  dup2\n  dup2\n  add\n  0x40\n  mstore\n  dup2\n  add\n  swap1\n  tag_2\n  swap2\n  swap1\n  tag_3\n  jump\t// in\ntag_2:\n    /* \"AutomatedMarketMaker.sol\":1149:1156  _tokenA */\n  dup2\n    /* \"AutomatedMarketMaker.sol\":1133:1139  tokenA */\n  0x00\n  0x00\n    /* \"AutomatedMarketMaker.sol\":1133:1157  tokenA = IERC20(_tokenA) */\n  0x0100\n  exp\n  dup2\n  sload\n  dup2\n  0xffffffffffffffffffffffffffffffffffffffff\n  mul\n  not\n  and\n  swap1\n  dup4\n  0xffffffffffffffffffffffffffffffffffffffff\n  and\n  mul\n  or\n  swap1\n  sstore\n  pop\n    /* \"AutomatedMarketMaker.sol\":1184:1191  _tokenB */\n  dup1\n    /* \"AutomatedMarketMaker.sol\":1168:1174  tokenB */\n  0x01\n  0x00\n    /* \"AutomatedMarketMaker.sol\":1168:1192  tokenB = IERC20(_tokenB) */\n  0x0100\n  exp\n  dup2\n  sload\n  dup2\n  0xffffffffffffffffffffffffffffffffffffffff\n  mul\n  not\n  and\n  swap1\n  dup4\n  0xffffffffffffffffffffffffffffffffffffffff\n  and\n  mul\n  or\n  swap1\n  sstore\n  pop\n    /* \"AutomatedMarketMaker.sol\":1076:1200  constructor(address _tokenA, address _tokenB) {... */\n  pop\n  pop\n    /* \"AutomatedMarketMaker.sol\":521:4543  contract AutomatedMarketMaker {... */\n  jump(tag_6)\n    /* \"#utility.yul\":88:205   */\ntag_8:\n    /* \"#utility.yul\":197:198   */\n  0x00\n    /* \"#utility.yul\":194:195   */\n  0x00\n    /* \"#utility.yul\":187:199   */\n  revert\n    /* \"#utility.yul\":334:460   */\ntag_10:\n    /* \"#utility.yul\":371:378   */\n  0x00\n    /* \"#utility.yul\":411:453   */\n  0xffffffffffffffffffffffffffffffffffffffff\n    /* \"#utility.yul\":404:409   */\n  dup3\n    /* \"#utility.yul\":400:454   */\n  and\n    /* \"#utility.yul\":389:454   */\n  swap1\n  pop\n    /* \"#utility.yul\":334:460   */\n  swap2\n  swap1\n  pop\n  jump\t// out\n    /* \"#utility.yul\":466:562   */\ntag_11:\n    /* \"#utility.yul\":503:510   */\n  0x00\n    /* \"#utility.yul\":532:556   */\n  tag_20\n    /* \"#utility.yul\":550:555   */\n  dup3\n    /* \"#utility.yul\":532:556   */\n  tag_10\n  jump\t// in\ntag_20:\n    /* \"#utility.yul\":521:556   */\n  swap1\n  pop\n    /* \"#utility.yul\":466:562   */\n  swap2\n  swap1\n  pop\n  jump\t// out\n    /* \"#utility.yul\":568:690   */\ntag_12:\n    /* \"#utility.yul\":641:665   */\n  tag_22\n    /* \"#utility.yul\":659:664   */\n  dup2\n    /* \"#utility.yul\":641:665   */\n  tag_11\n  jump\t// in\ntag_22:\n    /* \"#utility.yul\":634:639   */\n  dup2\n    /* \"#utility.yul\":631:666   */\n  eq\n    /* \"#utility.yul\":621:684   */\n  tag_23\n  jumpi\n    /* \"#utility.yul\":680:681   */\n  0x00\n    /* \"#utility.yul\":677:678   */\n  0x00\n    /* \"#utility.yul\":670:682   */\n  revert\n    /* \"#utility.yul\":621:684   */\ntag_23:\n    /* \"#utility.yul\":568:690   */\n  pop\n  jump\t// out\n    /* \"#utility.yul\":696:839   */\ntag_13:\n    /* \"#utility.yul\":753:758   */\n  0x00\n    /* \"#utility.yul\":784:790   */\n  dup2\n    /* \"#utility.yul\":778:791   */\n  mload\n    /* \"#utility.yul\":769:791   */\n  swap1\n  pop\n    /* \"#utility.yul\":800:833   */\n  tag_25\n    /* \"#utility.yul\":827:832   */\n  dup2\n    /* \"#utility.yul\":800:833   */\n  tag_12\n  jump\t// in\ntag_25:\n    /* \"#utility.yul\":696:839   */\n  swap3\n  swap2\n  pop\n  pop\n  jump\t// out\n    /* \"#utility.yul\":845:1352   */\ntag_3:\n    /* \"#utility.yul\":924:930   */\n  0x00\n    /* \"#utility.yul\":932:938   */\n  0x00\n    /* \"#utility.yul\":981:983   */\n  0x40\n    /* \"#utility.yul\":969:978   */\n  dup4\n    /* \"#utility.yul\":960:967   */\n  dup6\n    /* \"#utility.yul\":956:979   */\n  sub\n    /* \"#utility.yul\":952:984   */\n  slt\n    /* \"#utility.yul\":949:1068   */\n  iszero\n  tag_27\n  jumpi\n    /* \"#utility.yul\":987:1066   */\n  tag_28\n  tag_8\n  jump\t// in\ntag_28:\n    /* \"#utility.yul\":949:1068   */\ntag_27:\n    /* \"#utility.yul\":1107:1108   */\n  0x00\n    /* \"#utility.yul\":1132:1196   */\n  tag_29\n    /* \"#utility.yul\":1188:1195   */\n  dup6\n    /* \"#utility.yul\":1179:1185   */\n  dup3\n    /* \"#utility.yul\":1168:1177   */\n  dup7\n    /* \"#utility.yul\":1164:1186   */\n  add\n    /* \"#utility.yul\":1132:1196   */\n  tag_13\n  jump\t// in\ntag_29:\n    /* \"#utility.yul\":1122:1196   */\n  swap3\n  pop\n    /* \"#utility.yul\":1078:1206   */\n  pop\n    /* \"#utility.yul\":1245:1247   */\n  0x20\n    /* \"#utility.yul\":1271:1335   */\n  tag_30\n    /* \"#utility.yul\":1327:1334   */\n  dup6\n    /* \"#utility.yul\":1318:1324   */\n  dup3\n    /* \"#utility.yul\":1307:1316   */\n  dup7\n    /* \"#utility.yul\":1303:1325   */\n  add\n    /* \"#utility.yul\":1271:1335   */\n  tag_13\n  jump\t// in\ntag_30:\n    /* \"#utility.yul\":1261:1335   */\n  swap2\n  pop\n    /* \"#utility.yul\":1216:1345   */\n  pop\n    /* \"#utility.yul\":845:1352   */\n  swap3\n  pop\n  swap3\n  swap1\n  pop\n  jump\t// out\n    /* \"AutomatedMarketMaker.sol\":521:4543  contract AutomatedMarketMaker {... */\ntag_6:\n  dataSize(sub_0)\n  dup1\n  dataOffset(sub_0)\n  0x00\n  codecopy\n  0x00\n  return\nstop\n\nsub_0: assembly {\n        /* \"AutomatedMarketMaker.sol\":521:4543  contract AutomatedMarketMaker {... */\n      mstore(0x40, 0x80)\n      callvalue\n      dup1\n      iszero\n      tag_1\n      jumpi\n      revert(0x00, 0x00)\n    tag_1:\n      pop\n      jumpi(tag_2, lt(calldatasize, 0x04))\n      shr(0xe0, calldataload(0x00))\n      dup1\n      0x9c8f9f23\n      gt\n      tag_14\n      jumpi\n      dup1\n      0x9c8f9f23\n      eq\n      tag_8\n      jumpi\n      dup1\n      0x9cd441da\n      eq\n      tag_9\n      jumpi\n      dup1\n      0xd1a86711\n      eq\n      tag_10\n      jumpi\n      dup1\n      0xdc5fa6c5\n      eq\n      tag_11\n      jumpi\n      dup1\n      0xe29e0974\n      eq\n      tag_12\n      jumpi\n      dup1\n      0xe4f1f70a\n      eq\n      tag_13\n      jumpi\n      jump(tag_2)\n    tag_14:\n      dup1\n      0x054d50d4\n      eq\n      tag_3\n      jumpi\n      dup1\n      0x0fc63d10\n      eq\n      tag_4\n      jumpi\n      dup1\n      0x19e36f3b\n      eq\n      tag_5\n      jumpi\n      dup1\n      0x5f64b55b\n      eq\n      tag_6\n      jumpi\n      dup1\n      0x8014a7aa\n      eq\n      tag_7\n      jumpi\n    tag_2:\n      revert(0x00, 0x00)\n        /* \"AutomatedMarketMaker.sol\":3769:4106  function getAmountOut(uint256 amountIn, uint256 reserveIn, uint256 reserveOut) public pure returns (uint256) {... */\n    tag_3:\n      tag_15\n      0x04\n      dup1\n      calldatasize\n      sub\n      dup2\n      add\n      swap1\n      tag_16\n      swap2\n      swap1\n      tag_17\n      jump\t// in\n    tag_16:\n      tag_18\n      jump\t// in\n    tag_15:\n      mload(0x40)\n      tag_19\n      swap2\n      swap1\n      tag_20\n      jump\t// in\n    tag_19:\n      mload(0x40)\n      dup1\n      swap2\n      sub\n      swap1\n      return\n        /* \"AutomatedMarketMaker.sol\":558:578  IERC20 public tokenA */\n    tag_4:\n      tag_21\n      tag_22\n      jump\t// in\n    tag_21:\n      mload(0x40)\n      tag_23\n      swap2\n      swap1\n      tag_24\n      jump\t// in\n    tag_23:\n      mload(0x40)\n      dup1\n      swap2\n      sub\n      swap1\n      return\n        /* \"AutomatedMarketMaker.sol\":644:667  uint256 public reserveB */\n    tag_5:\n      tag_25\n      tag_26\n      jump\t// in\n    tag_25:\n      mload(0x40)\n      tag_27\n      swap2\n      swap1\n      tag_20\n      jump\t// in\n    tag_27:\n      mload(0x40)\n      dup1\n      swap2\n      sub\n      swap1\n      return\n        /* \"AutomatedMarketMaker.sol\":585:605  IERC20 public tokenB */\n    tag_6:\n      tag_28\n      tag_29\n      jump\t// in\n    tag_28:\n      mload(0x40)\n      tag_30\n      swap2\n      swap1\n      tag_24\n      jump\t// in\n    tag_30:\n      mload(0x40)\n      dup1\n      swap2\n      sub\n      swap1\n      return\n        /* \"AutomatedMarketMaker.sol\":3245:3708  function swapBforA(uint256 amountBIn) external returns (uint256 amountAOut) {... */\n    tag_7:\n      tag_31\n      0x04\n      dup1\n      calldatasize\n      sub\n      dup2\n      add\n      swap1\n      tag_32\n      swap2\n      swap1\n      tag_33\n      jump\t// in\n    tag_32:\n      tag_34\n      jump\t// in\n    tag_31:\n      mload(0x40)\n      tag_35\n      swap2\n      swap1\n      tag_20\n      jump\t// in\n    tag_35:\n      mload(0x40)\n      dup1\n      swap2\n      sub\n      swap1\n      return\n        /* \"AutomatedMarketMaker.sol\":2057:2682  function removeLiquidity(uint256 lpAmount) external returns (uint256 amountA, uint256 amountB) {... */\n    tag_8:\n      tag_36\n      0x04\n      dup1\n      calldatasize\n      sub\n      dup2\n      add\n      swap1\n      tag_37\n      swap2\n      swap1\n      tag_33\n      jump\t// in\n    tag_37:\n      tag_38\n      jump\t// in\n    tag_36:\n      mload(0x40)\n      tag_39\n      swap3\n      swap2\n      swap1\n      tag_40\n      jump\t// in\n    tag_39:\n      mload(0x40)\n      dup1\n      swap2\n      sub\n      swap1\n      return\n        /* \"AutomatedMarketMaker.sol\":1261:1996  function addLiquidity(uint256 amountA, uint256 amountB) external returns (uint256 lpMinted) {... */\n    tag_9:\n      tag_41\n      0x04\n      dup1\n      calldatasize\n      sub\n      dup2\n      add\n      swap1\n      tag_42\n      swap2\n      swap1\n      tag_43\n      jump\t// in\n    tag_42:\n      tag_44\n      jump\t// in\n    tag_41:\n      mload(0x40)\n      tag_45\n      swap2\n      swap1\n      tag_20\n      jump\t// in\n    tag_45:\n      mload(0x40)\n      dup1\n      swap2\n      sub\n      swap1\n      return\n        /* \"AutomatedMarketMaker.sol\":674:702  uint256 public totalLPSupply */\n    tag_10:\n      tag_46\n      tag_47\n      jump\t// in\n    tag_46:\n      mload(0x40)\n      tag_48\n      swap2\n      swap1\n      tag_20\n      jump\t// in\n    tag_48:\n      mload(0x40)\n      dup1\n      swap2\n      sub\n      swap1\n      return\n        /* \"AutomatedMarketMaker.sol\":614:637  uint256 public reserveA */\n    tag_11:\n      tag_49\n      tag_50\n      jump\t// in\n    tag_49:\n      mload(0x40)\n      tag_51\n      swap2\n      swap1\n      tag_20\n      jump\t// in\n    tag_51:\n      mload(0x40)\n      dup1\n      swap2\n      sub\n      swap1\n      return\n        /* \"AutomatedMarketMaker.sol\":711:755  mapping(address => uint256) public lpBalance */\n    tag_12:\n      tag_52\n      0x04\n      dup1\n      calldatasize\n      sub\n      dup2\n      add\n      swap1\n      tag_53\n      swap2\n      swap1\n      tag_54\n      jump\t// in\n    tag_53:\n      tag_55\n      jump\t// in\n    tag_52:\n      mload(0x40)\n      tag_56\n      swap2\n      swap1\n      tag_20\n      jump\t// in\n    tag_56:\n      mload(0x40)\n      dup1\n      swap2\n      sub\n      swap1\n      return\n        /* \"AutomatedMarketMaker.sol\":2732:3195  function swapAforB(uint256 amountAIn) external returns (uint256 amountBOut) {... */\n    tag_13:\n      tag_57\n      0x04\n      dup1\n      calldatasize\n      sub\n      dup2\n      add\n      swap1\n      tag_58\n      swap2\n      swap1\n      tag_33\n      jump\t// in\n    tag_58:\n      tag_59\n      jump\t// in\n    tag_57:\n      mload(0x40)\n      tag_60\n      swap2\n      swap1\n      tag_20\n      jump\t// in\n    tag_60:\n      mload(0x40)\n      dup1\n      swap2\n      sub\n      swap1\n      return\n        /* \"AutomatedMarketMaker.sol\":3769:4106  function getAmountOut(uint256 amountIn, uint256 reserveIn, uint256 reserveOut) public pure returns (uint256) {... */\n    tag_18:\n        /* \"AutomatedMarketMaker.sol\":3869:3876  uint256 */\n      0x00\n        /* \"AutomatedMarketMaker.sol\":3889:3912  uint256 amountInWithFee */\n      0x00\n        /* \"AutomatedMarketMaker.sol\":3934:3938  1000 */\n      0x03e8\n        /* \"AutomatedMarketMaker.sol\":3927:3930  997 */\n      0x03e5\n        /* \"AutomatedMarketMaker.sol\":3916:3924  amountIn */\n      dup7\n        /* \"AutomatedMarketMaker.sol\":3916:3930  amountIn * 997 */\n      tag_62\n      swap2\n      swap1\n      tag_63\n      jump\t// in\n    tag_62:\n        /* \"AutomatedMarketMaker.sol\":3915:3938  (amountIn * 997) / 1000 */\n      tag_64\n      swap2\n      swap1\n      tag_65\n      jump\t// in\n    tag_64:\n        /* \"AutomatedMarketMaker.sol\":3889:3938  uint256 amountInWithFee = (amountIn * 997) / 1000 */\n      swap1\n      pop\n        /* \"AutomatedMarketMaker.sol\":3949:3966  uint256 numerator */\n      0x00\n        /* \"AutomatedMarketMaker.sol\":3987:3997  reserveOut */\n      dup4\n        /* \"AutomatedMarketMaker.sol\":3969:3984  amountInWithFee */\n      dup3\n        /* \"AutomatedMarketMaker.sol\":3969:3997  amountInWithFee * reserveOut */\n      tag_66\n      swap2\n      swap1\n      tag_63\n      jump\t// in\n    tag_66:\n        /* \"AutomatedMarketMaker.sol\":3949:3997  uint256 numerator = amountInWithFee * reserveOut */\n      swap1\n      pop\n        /* \"AutomatedMarketMaker.sol\":4008:4027  uint256 denominator */\n      0x00\n        /* \"AutomatedMarketMaker.sol\":4042:4057  amountInWithFee */\n      dup3\n        /* \"AutomatedMarketMaker.sol\":4030:4039  reserveIn */\n      dup7\n        /* \"AutomatedMarketMaker.sol\":4030:4057  reserveIn + amountInWithFee */\n      tag_67\n      swap2\n      swap1\n      tag_68\n      jump\t// in\n    tag_67:\n        /* \"AutomatedMarketMaker.sol\":4008:4057  uint256 denominator = reserveIn + amountInWithFee */\n      swap1\n      pop\n        /* \"AutomatedMarketMaker.sol\":4087:4098  denominator */\n      dup1\n        /* \"AutomatedMarketMaker.sol\":4075:4084  numerator */\n      dup3\n        /* \"AutomatedMarketMaker.sol\":4075:4098  numerator / denominator */\n      tag_69\n      swap2\n      swap1\n      tag_65\n      jump\t// in\n    tag_69:\n        /* \"AutomatedMarketMaker.sol\":4068:4098  return numerator / denominator */\n      swap4\n      pop\n      pop\n      pop\n      pop\n        /* \"AutomatedMarketMaker.sol\":3769:4106  function getAmountOut(uint256 amountIn, uint256 reserveIn, uint256 reserveOut) public pure returns (uint256) {... */\n      swap4\n      swap3\n      pop\n      pop\n      pop\n      jump\t// out\n        /* \"AutomatedMarketMaker.sol\":558:578  IERC20 public tokenA */\n    tag_22:\n      0x00\n      0x00\n      swap1\n      sload\n      swap1\n      0x0100\n      exp\n      swap1\n      div\n      0xffffffffffffffffffffffffffffffffffffffff\n      and\n      dup2\n      jump\t// out\n        /* \"AutomatedMarketMaker.sol\":644:667  uint256 public reserveB */\n    tag_26:\n      sload(0x03)\n      dup2\n      jump\t// out\n        /* \"AutomatedMarketMaker.sol\":585:605  IERC20 public tokenB */\n    tag_29:\n      0x01\n      0x00\n      swap1\n      sload\n      swap1\n      0x0100\n      exp\n      swap1\n      div\n      0xffffffffffffffffffffffffffffffffffffffff\n      and\n      dup2\n      jump\t// out\n        /* \"AutomatedMarketMaker.sol\":3245:3708  function swapBforA(uint256 amountBIn) external returns (uint256 amountAOut) {... */\n    tag_34:\n        /* \"AutomatedMarketMaker.sol\":3301:3319  uint256 amountAOut */\n      0x00\n        /* \"AutomatedMarketMaker.sol\":3352:3353  0 */\n      0x00\n        /* \"AutomatedMarketMaker.sol\":3340:3349  amountBIn */\n      dup3\n        /* \"AutomatedMarketMaker.sol\":3340:3353  amountBIn > 0 */\n      gt\n        /* \"AutomatedMarketMaker.sol\":3332:3371  require(amountBIn > 0, \"Invalid input\") */\n      tag_71\n      jumpi\n      mload(0x40)\n      0x08c379a000000000000000000000000000000000000000000000000000000000\n      dup2\n      mstore\n      0x04\n      add\n      tag_72\n      swap1\n      tag_73\n      jump\t// in\n    tag_72:\n      mload(0x40)\n      dup1\n      swap2\n      sub\n      swap1\n      revert\n    tag_71:\n        /* \"AutomatedMarketMaker.sol\":3382:3388  tokenB */\n      0x01\n      0x00\n      swap1\n      sload\n      swap1\n      0x0100\n      exp\n      swap1\n      div\n      0xffffffffffffffffffffffffffffffffffffffff\n      and\n        /* \"AutomatedMarketMaker.sol\":3382:3401  tokenB.transferFrom */\n      0xffffffffffffffffffffffffffffffffffffffff\n      and\n      0x23b872dd\n        /* \"AutomatedMarketMaker.sol\":3402:3412  msg.sender */\n      caller\n        /* \"AutomatedMarketMaker.sol\":3422:3426  this */\n      address\n        /* \"AutomatedMarketMaker.sol\":3429:3438  amountBIn */\n      dup6\n        /* \"AutomatedMarketMaker.sol\":3382:3439  tokenB.transferFrom(msg.sender, address(this), amountBIn) */\n      mload(0x40)\n      dup5\n      0xffffffff\n      and\n      0xe0\n      shl\n      dup2\n      mstore\n      0x04\n      add\n      tag_74\n      swap4\n      swap3\n      swap2\n      swap1\n      tag_75\n      jump\t// in\n    tag_74:\n      0x20\n      mload(0x40)\n      dup1\n      dup4\n      sub\n      dup2\n      0x00\n      dup8\n      gas\n      call\n      iszero\n      dup1\n      iszero\n      tag_77\n      jumpi\n      returndatacopy(0x00, 0x00, returndatasize)\n      revert(0x00, returndatasize)\n    tag_77:\n      pop\n      pop\n      pop\n      pop\n      mload(0x40)\n      returndatasize\n      not(0x1f)\n      0x1f\n      dup3\n      add\n      and\n      dup3\n      add\n      dup1\n      0x40\n      mstore\n      pop\n      dup2\n      add\n      swap1\n      tag_78\n      swap2\n      swap1\n      tag_79\n      jump\t// in\n    tag_78:\n      pop\n        /* \"AutomatedMarketMaker.sol\":3465:3508  getAmountOut(amountBIn, reserveB, reserveA) */\n      tag_80\n        /* \"AutomatedMarketMaker.sol\":3478:3487  amountBIn */\n      dup3\n        /* \"AutomatedMarketMaker.sol\":3489:3497  reserveB */\n      sload(0x03)\n        /* \"AutomatedMarketMaker.sol\":3499:3507  reserveA */\n      sload(0x02)\n        /* \"AutomatedMarketMaker.sol\":3465:3477  getAmountOut */\n      tag_18\n        /* \"AutomatedMarketMaker.sol\":3465:3508  getAmountOut(amountBIn, reserveB, reserveA) */\n      jump\t// in\n    tag_80:\n        /* \"AutomatedMarketMaker.sol\":3452:3508  amountAOut = getAmountOut(amountBIn, reserveB, reserveA) */\n      swap1\n      pop\n        /* \"AutomatedMarketMaker.sol\":3531:3540  amountBIn */\n      dup2\n        /* \"AutomatedMarketMaker.sol\":3519:3527  reserveB */\n      0x03\n      0x00\n        /* \"AutomatedMarketMaker.sol\":3519:3540  reserveB += amountBIn */\n      dup3\n      dup3\n      sload\n      tag_81\n      swap2\n      swap1\n      tag_68\n      jump\t// in\n    tag_81:\n      swap3\n      pop\n      pop\n      dup2\n      swap1\n      sstore\n      pop\n        /* \"AutomatedMarketMaker.sol\":3563:3573  amountAOut */\n      dup1\n        /* \"AutomatedMarketMaker.sol\":3551:3559  reserveA */\n      0x02\n      0x00\n        /* \"AutomatedMarketMaker.sol\":3551:3573  reserveA -= amountAOut */\n      dup3\n      dup3\n      sload\n      tag_82\n      swap2\n      swap1\n      tag_83\n      jump\t// in\n    tag_82:\n      swap3\n      pop\n      pop\n      dup2\n      swap1\n      sstore\n      pop\n        /* \"AutomatedMarketMaker.sol\":3586:3592  tokenA */\n      0x00\n      0x00\n      swap1\n      sload\n      swap1\n      0x0100\n      exp\n      swap1\n      div\n      0xffffffffffffffffffffffffffffffffffffffff\n      and\n        /* \"AutomatedMarketMaker.sol\":3586:3601  tokenA.transfer */\n      0xffffffffffffffffffffffffffffffffffffffff\n      and\n      0xa9059cbb\n        /* \"AutomatedMarketMaker.sol\":3602:3612  msg.sender */\n      caller\n        /* \"AutomatedMarketMaker.sol\":3614:3624  amountAOut */\n      dup4\n        /* \"AutomatedMarketMaker.sol\":3586:3625  tokenA.transfer(msg.sender, amountAOut) */\n      mload(0x40)\n      dup4\n      0xffffffff\n      and\n      0xe0\n      shl\n      dup2\n      mstore\n      0x04\n      add\n      tag_84\n      swap3\n      swap2\n      swap1\n      tag_85\n      jump\t// in\n    tag_84:\n      0x20\n      mload(0x40)\n      dup1\n      dup4\n      sub\n      dup2\n      0x00\n      dup8\n      gas\n      call\n      iszero\n      dup1\n      iszero\n      tag_87\n      jumpi\n      returndatacopy(0x00, 0x00, returndatasize)\n      revert(0x00, returndatasize)\n    tag_87:\n      pop\n      pop\n      pop\n      pop\n      mload(0x40)\n      returndatasize\n      not(0x1f)\n      0x1f\n      dup3\n      add\n      and\n      dup3\n      add\n      dup1\n      0x40\n      mstore\n      pop\n      dup2\n      add\n      swap1\n      tag_88\n      swap2\n      swap1\n      tag_79\n      jump\t// in\n    tag_88:\n      pop\n        /* \"AutomatedMarketMaker.sol\":3649:3659  msg.sender */\n      caller\n        /* \"AutomatedMarketMaker.sol\":3641:3700  Swapped(msg.sender, address(tokenB), amountBIn, amountAOut) */\n      0xffffffffffffffffffffffffffffffffffffffff\n      and\n      0xa078c4190abe07940190effc1846be0ccf03ad6007bc9e93f9697d0b460befbb\n        /* \"AutomatedMarketMaker.sol\":3669:3675  tokenB */\n      0x01\n      0x00\n      swap1\n      sload\n      swap1\n      0x0100\n      exp\n      swap1\n      div\n      0xffffffffffffffffffffffffffffffffffffffff\n      and\n        /* \"AutomatedMarketMaker.sol\":3678:3687  amountBIn */\n      dup5\n        /* \"AutomatedMarketMaker.sol\":3689:3699  amountAOut */\n      dup5\n        /* \"AutomatedMarketMaker.sol\":3641:3700  Swapped(msg.sender, address(tokenB), amountBIn, amountAOut) */\n      mload(0x40)\n      tag_89\n      swap4\n      swap3\n      swap2\n      swap1\n      tag_90\n      jump\t// in\n    tag_89:\n      mload(0x40)\n      dup1\n      swap2\n      sub\n      swap1\n      log2\n        /* \"AutomatedMarketMaker.sol\":3245:3708  function swapBforA(uint256 amountBIn) external returns (uint256 amountAOut) {... */\n      swap2\n      swap1\n      pop\n      jump\t// out\n        /* \"AutomatedMarketMaker.sol\":2057:2682  function removeLiquidity(uint256 lpAmount) external returns (uint256 amountA, uint256 amountB) {... */\n    tag_38:\n        /* \"AutomatedMarketMaker.sol\":2118:2133  uint256 amountA */\n      0x00\n        /* \"AutomatedMarketMaker.sol\":2135:2150  uint256 amountB */\n      0x00\n        /* \"AutomatedMarketMaker.sol\":2182:2183  0 */\n      0x00\n        /* \"AutomatedMarketMaker.sol\":2171:2179  lpAmount */\n      dup4\n        /* \"AutomatedMarketMaker.sol\":2171:2183  lpAmount > 0 */\n      gt\n        /* \"AutomatedMarketMaker.sol\":2171:2220  lpAmount > 0 && lpBalance[msg.sender] >= lpAmount */\n      dup1\n      iszero\n      tag_92\n      jumpi\n      pop\n        /* \"AutomatedMarketMaker.sol\":2212:2220  lpAmount */\n      dup3\n        /* \"AutomatedMarketMaker.sol\":2187:2196  lpBalance */\n      0x05\n        /* \"AutomatedMarketMaker.sol\":2187:2208  lpBalance[msg.sender] */\n      0x00\n        /* \"AutomatedMarketMaker.sol\":2197:2207  msg.sender */\n      caller\n        /* \"AutomatedMarketMaker.sol\":2187:2208  lpBalance[msg.sender] */\n      0xffffffffffffffffffffffffffffffffffffffff\n      and\n      0xffffffffffffffffffffffffffffffffffffffff\n      and\n      dup2\n      mstore\n      0x20\n      add\n      swap1\n      dup2\n      mstore\n      0x20\n      add\n      0x00\n      keccak256\n      sload\n        /* \"AutomatedMarketMaker.sol\":2187:2220  lpBalance[msg.sender] >= lpAmount */\n      lt\n      iszero\n        /* \"AutomatedMarketMaker.sol\":2171:2220  lpAmount > 0 && lpBalance[msg.sender] >= lpAmount */\n    tag_92:\n        /* \"AutomatedMarketMaker.sol\":2163:2242  require(lpAmount > 0 && lpBalance[msg.sender] >= lpAmount, \"Invalid LP amount\") */\n      tag_93\n      jumpi\n      mload(0x40)\n      0x08c379a000000000000000000000000000000000000000000000000000000000\n      dup2\n      mstore\n      0x04\n      add\n      tag_94\n      swap1\n      tag_95\n      jump\t// in\n    tag_94:\n      mload(0x40)\n      dup1\n      swap2\n      sub\n      swap1\n      revert\n    tag_93:\n        /* \"AutomatedMarketMaker.sol\":2289:2302  totalLPSupply */\n      sload(0x04)\n        /* \"AutomatedMarketMaker.sol\":2277:2285  reserveA */\n      sload(0x02)\n        /* \"AutomatedMarketMaker.sol\":2266:2274  lpAmount */\n      dup5\n        /* \"AutomatedMarketMaker.sol\":2266:2285  lpAmount * reserveA */\n      tag_96\n      swap2\n      swap1\n      tag_63\n      jump\t// in\n    tag_96:\n        /* \"AutomatedMarketMaker.sol\":2265:2302  (lpAmount * reserveA) / totalLPSupply */\n      tag_97\n      swap2\n      swap1\n      tag_65\n      jump\t// in\n    tag_97:\n        /* \"AutomatedMarketMaker.sol\":2255:2302  amountA = (lpAmount * reserveA) / totalLPSupply */\n      swap2\n      pop\n        /* \"AutomatedMarketMaker.sol\":2347:2360  totalLPSupply */\n      sload(0x04)\n        /* \"AutomatedMarketMaker.sol\":2335:2343  reserveB */\n      sload(0x03)\n        /* \"AutomatedMarketMaker.sol\":2324:2332  lpAmount */\n      dup5\n        /* \"AutomatedMarketMaker.sol\":2324:2343  lpAmount * reserveB */\n      tag_98\n      swap2\n      swap1\n      tag_63\n      jump\t// in\n    tag_98:\n        /* \"AutomatedMarketMaker.sol\":2323:2360  (lpAmount * reserveB) / totalLPSupply */\n      tag_99\n      swap2\n      swap1\n      tag_65\n      jump\t// in\n    tag_99:\n        /* \"AutomatedMarketMaker.sol\":2313:2360  amountB = (lpAmount * reserveB) / totalLPSupply */\n      swap1\n      pop\n        /* \"AutomatedMarketMaker.sol\":2398:2406  lpAmount */\n      dup3\n        /* \"AutomatedMarketMaker.sol\":2373:2382  lpBalance */\n      0x05\n        /* \"AutomatedMarketMaker.sol\":2373:2394  lpBalance[msg.sender] */\n      0x00\n        /* \"AutomatedMarketMaker.sol\":2383:2393  msg.sender */\n      caller\n        /* \"AutomatedMarketMaker.sol\":2373:2394  lpBalance[msg.sender] */\n      0xffffffffffffffffffffffffffffffffffffffff\n      and\n      0xffffffffffffffffffffffffffffffffffffffff\n      and\n      dup2\n      mstore\n      0x20\n      add\n      swap1\n      dup2\n      mstore\n      0x20\n      add\n      0x00\n      keccak256\n      0x00\n        /* \"AutomatedMarketMaker.sol\":2373:2406  lpBalance[msg.sender] -= lpAmount */\n      dup3\n      dup3\n      sload\n      tag_100\n      swap2\n      swap1\n      tag_83\n      jump\t// in\n    tag_100:\n      swap3\n      pop\n      pop\n      dup2\n      swap1\n      sstore\n      pop\n        /* \"AutomatedMarketMaker.sol\":2434:2442  lpAmount */\n      dup3\n        /* \"AutomatedMarketMaker.sol\":2417:2430  totalLPSupply */\n      0x04\n      0x00\n        /* \"AutomatedMarketMaker.sol\":2417:2442  totalLPSupply -= lpAmount */\n      dup3\n      dup3\n      sload\n      tag_101\n      swap2\n      swap1\n      tag_83\n      jump\t// in\n    tag_101:\n      swap3\n      pop\n      pop\n      dup2\n      swap1\n      sstore\n      pop\n        /* \"AutomatedMarketMaker.sol\":2467:2474  amountA */\n      dup2\n        /* \"AutomatedMarketMaker.sol\":2455:2463  reserveA */\n      0x02\n      0x00\n        /* \"AutomatedMarketMaker.sol\":2455:2474  reserveA -= amountA */\n      dup3\n      dup3\n      sload\n      tag_102\n      swap2\n      swap1\n      tag_83\n      jump\t// in\n    tag_102:\n      swap3\n      pop\n      pop\n      dup2\n      swap1\n      sstore\n      pop\n        /* \"AutomatedMarketMaker.sol\":2497:2504  amountB */\n      dup1\n        /* \"AutomatedMarketMaker.sol\":2485:2493  reserveB */\n      0x03\n      0x00\n        /* \"AutomatedMarketMaker.sol\":2485:2504  reserveB -= amountB */\n      dup3\n      dup3\n      sload\n      tag_103\n      swap2\n      swap1\n      tag_83\n      jump\t// in\n    tag_103:\n      swap3\n      pop\n      pop\n      dup2\n      swap1\n      sstore\n      pop\n        /* \"AutomatedMarketMaker.sol\":2517:2523  tokenA */\n      0x00\n      0x00\n      swap1\n      sload\n      swap1\n      0x0100\n      exp\n      swap1\n      div\n      0xffffffffffffffffffffffffffffffffffffffff\n      and\n        /* \"AutomatedMarketMaker.sol\":2517:2532  tokenA.transfer */\n      0xffffffffffffffffffffffffffffffffffffffff\n      and\n      0xa9059cbb\n        /* \"AutomatedMarketMaker.sol\":2533:2543  msg.sender */\n      caller\n        /* \"AutomatedMarketMaker.sol\":2545:2552  amountA */\n      dup5\n        /* \"AutomatedMarketMaker.sol\":2517:2553  tokenA.transfer(msg.sender, amountA) */\n      mload(0x40)\n      dup4\n      0xffffffff\n      and\n      0xe0\n      shl\n      dup2\n      mstore\n      0x04\n      add\n      tag_104\n      swap3\n      swap2\n      swap1\n      tag_85\n      jump\t// in\n    tag_104:\n      0x20\n      mload(0x40)\n      dup1\n      dup4\n      sub\n      dup2\n      0x00\n      dup8\n      gas\n      call\n      iszero\n      dup1\n      iszero\n      tag_106\n      jumpi\n      returndatacopy(0x00, 0x00, returndatasize)\n      revert(0x00, returndatasize)\n    tag_106:\n      pop\n      pop\n      pop\n      pop\n      mload(0x40)\n      returndatasize\n      not(0x1f)\n      0x1f\n      dup3\n      add\n      and\n      dup3\n      add\n      dup1\n      0x40\n      mstore\n      pop\n      dup2\n      add\n      swap1\n      tag_107\n      swap2\n      swap1\n      tag_79\n      jump\t// in\n    tag_107:\n      pop\n        /* \"AutomatedMarketMaker.sol\":2564:2570  tokenB */\n      0x01\n      0x00\n      swap1\n      sload\n      swap1\n      0x0100\n      exp\n      swap1\n      div\n      0xffffffffffffffffffffffffffffffffffffffff\n      and\n        /* \"AutomatedMarketMaker.sol\":2564:2579  tokenB.transfer */\n      0xffffffffffffffffffffffffffffffffffffffff\n      and\n      0xa9059cbb\n        /* \"AutomatedMarketMaker.sol\":2580:2590  msg.sender */\n      caller\n        /* \"AutomatedMarketMaker.sol\":2592:2599  amountB */\n      dup4\n        /* \"AutomatedMarketMaker.sol\":2564:2600  tokenB.transfer(msg.sender, amountB) */\n      mload(0x40)\n      dup4\n      0xffffffff\n      and\n      0xe0\n      shl\n      dup2\n      mstore\n      0x04\n      add\n      tag_108\n      swap3\n      swap2\n      swap1\n      tag_85\n      jump\t// in\n    tag_108:\n      0x20\n      mload(0x40)\n      dup1\n      dup4\n      sub\n      dup2\n      0x00\n      dup8\n      gas\n      call\n      iszero\n      dup1\n      iszero\n      tag_110\n      jumpi\n      returndatacopy(0x00, 0x00, returndatasize)\n      revert(0x00, returndatasize)\n    tag_110:\n      pop\n      pop\n      pop\n      pop\n      mload(0x40)\n      returndatasize\n      not(0x1f)\n      0x1f\n      dup3\n      add\n      and\n      dup3\n      add\n      dup1\n      0x40\n      mstore\n      pop\n      dup2\n      add\n      swap1\n      tag_111\n      swap2\n      swap1\n      tag_79\n      jump\t// in\n    tag_111:\n      pop\n        /* \"AutomatedMarketMaker.sol\":2635:2645  msg.sender */\n      caller\n        /* \"AutomatedMarketMaker.sol\":2618:2674  LiquidityRemoved(msg.sender, amountA, amountB, lpAmount) */\n      0xffffffffffffffffffffffffffffffffffffffff\n      and\n      0x1dc8bb69df2b8e91fbdcbfcf93d951b3f0000f085a95fe3f7946d6161439245d\n        /* \"AutomatedMarketMaker.sol\":2647:2654  amountA */\n      dup4\n        /* \"AutomatedMarketMaker.sol\":2656:2663  amountB */\n      dup4\n        /* \"AutomatedMarketMaker.sol\":2665:2673  lpAmount */\n      dup7\n        /* \"AutomatedMarketMaker.sol\":2618:2674  LiquidityRemoved(msg.sender, amountA, amountB, lpAmount) */\n      mload(0x40)\n      tag_112\n      swap4\n      swap3\n      swap2\n      swap1\n      tag_113\n      jump\t// in\n    tag_112:\n      mload(0x40)\n      dup1\n      swap2\n      sub\n      swap1\n      log2\n        /* \"AutomatedMarketMaker.sol\":2057:2682  function removeLiquidity(uint256 lpAmount) external returns (uint256 amountA, uint256 amountB) {... */\n      swap2\n      pop\n      swap2\n      jump\t// out\n        /* \"AutomatedMarketMaker.sol\":1261:1996  function addLiquidity(uint256 amountA, uint256 amountB) external returns (uint256 lpMinted) {... */\n    tag_44:\n        /* \"AutomatedMarketMaker.sol\":1335:1351  uint256 lpMinted */\n      0x00\n        /* \"AutomatedMarketMaker.sol\":1382:1383  0 */\n      0x00\n        /* \"AutomatedMarketMaker.sol\":1372:1379  amountA */\n      dup4\n        /* \"AutomatedMarketMaker.sol\":1372:1383  amountA > 0 */\n      gt\n        /* \"AutomatedMarketMaker.sol\":1372:1398  amountA > 0 && amountB > 0 */\n      dup1\n      iszero\n      tag_115\n      jumpi\n      pop\n        /* \"AutomatedMarketMaker.sol\":1397:1398  0 */\n      0x00\n        /* \"AutomatedMarketMaker.sol\":1387:1394  amountB */\n      dup3\n        /* \"AutomatedMarketMaker.sol\":1387:1398  amountB > 0 */\n      gt\n        /* \"AutomatedMarketMaker.sol\":1372:1398  amountA > 0 && amountB > 0 */\n    tag_115:\n        /* \"AutomatedMarketMaker.sol\":1364:1418  require(amountA > 0 && amountB > 0, \"Invalid amounts\") */\n      tag_116\n      jumpi\n      mload(0x40)\n      0x08c379a000000000000000000000000000000000000000000000000000000000\n      dup2\n      mstore\n      0x04\n      add\n      tag_117\n      swap1\n      tag_118\n      jump\t// in\n    tag_117:\n      mload(0x40)\n      dup1\n      swap2\n      sub\n      swap1\n      revert\n    tag_116:\n        /* \"AutomatedMarketMaker.sol\":1431:1437  tokenA */\n      0x00\n      0x00\n      swap1\n      sload\n      swap1\n      0x0100\n      exp\n      swap1\n      div\n      0xffffffffffffffffffffffffffffffffffffffff\n      and\n        /* \"AutomatedMarketMaker.sol\":1431:1450  tokenA.transferFrom */\n      0xffffffffffffffffffffffffffffffffffffffff\n      and\n      0x23b872dd\n        /* \"AutomatedMarketMaker.sol\":1451:1461  msg.sender */\n      caller\n        /* \"AutomatedMarketMaker.sol\":1471:1475  this */\n      address\n        /* \"AutomatedMarketMaker.sol\":1478:1485  amountA */\n      dup7\n        /* \"AutomatedMarketMaker.sol\":1431:1486  tokenA.transferFrom(msg.sender, address(this), amountA) */\n      mload(0x40)\n      dup5\n      0xffffffff\n      and\n      0xe0\n      shl\n      dup2\n      mstore\n      0x04\n      add\n      tag_119\n      swap4\n      swap3\n      swap2\n      swap1\n      tag_75\n      jump\t// in\n    tag_119:\n      0x20\n      mload(0x40)\n      dup1\n      dup4\n      sub\n      dup2\n      0x00\n      dup8\n      gas\n      call\n      iszero\n      dup1\n      iszero\n      tag_121\n      jumpi\n      returndatacopy(0x00, 0x00, returndatasize)\n      revert(0x00, returndatasize)\n    tag_121:\n      pop\n      pop\n      pop\n      pop\n      mload(0x40)\n      returndatasize\n      not(0x1f)\n      0x1f\n      dup3\n      add\n      and\n      dup3\n      add\n      dup1\n      0x40\n      mstore\n      pop\n      dup2\n      add\n      swap1\n      tag_122\n      swap2\n      swap1\n      tag_79\n      jump\t// in\n    tag_122:\n      pop\n        /* \"AutomatedMarketMaker.sol\":1497:1503  tokenB */\n      0x01\n      0x00\n      swap1\n      sload\n      swap1\n      0x0100\n      exp\n      swap1\n      div\n      0xffffffffffffffffffffffffffffffffffffffff\n      and\n        /* \"AutomatedMarketMaker.sol\":1497:1516  tokenB.transferFrom */\n      0xffffffffffffffffffffffffffffffffffffffff\n      and\n      0x23b872dd\n        /* \"AutomatedMarketMaker.sol\":1517:1527  msg.sender */\n      caller\n        /* \"AutomatedMarketMaker.sol\":1537:1541  this */\n      address\n        /* \"AutomatedMarketMaker.sol\":1544:1551  amountB */\n      dup6\n        /* \"AutomatedMarketMaker.sol\":1497:1552  tokenB.transferFrom(msg.sender, address(this), amountB) */\n      mload(0x40)\n      dup5\n      0xffffffff\n      and\n      0xe0\n      shl\n      dup2\n      mstore\n      0x04\n      add\n      tag_123\n      swap4\n      swap3\n      swap2\n      swap1\n      tag_75\n      jump\t// in\n    tag_123:\n      0x20\n      mload(0x40)\n      dup1\n      dup4\n      sub\n      dup2\n      0x00\n      dup8\n      gas\n      call\n      iszero\n      dup1\n      iszero\n      tag_125\n      jumpi\n      returndatacopy(0x00, 0x00, returndatasize)\n      revert(0x00, returndatasize)\n    tag_125:\n      pop\n      pop\n      pop\n      pop\n      mload(0x40)\n      returndatasize\n      not(0x1f)\n      0x1f\n      dup3\n      add\n      and\n      dup3\n      add\n      dup1\n      0x40\n      mstore\n      pop\n      dup2\n      add\n      swap1\n      tag_126\n      swap2\n      swap1\n      tag_79\n      jump\t// in\n    tag_126:\n      pop\n        /* \"AutomatedMarketMaker.sol\":1586:1587  0 */\n      0x00\n        /* \"AutomatedMarketMaker.sol\":1569:1582  totalLPSupply */\n      sload(0x04)\n        /* \"AutomatedMarketMaker.sol\":1569:1587  totalLPSupply == 0 */\n      sub\n        /* \"AutomatedMarketMaker.sol\":1565:1773  if (totalLPSupply == 0) {... */\n      tag_127\n      jumpi\n        /* \"AutomatedMarketMaker.sol\":1615:1638  sqrt(amountA * amountB) */\n      tag_128\n        /* \"AutomatedMarketMaker.sol\":1630:1637  amountB */\n      dup3\n        /* \"AutomatedMarketMaker.sol\":1620:1627  amountA */\n      dup5\n        /* \"AutomatedMarketMaker.sol\":1620:1637  amountA * amountB */\n      tag_129\n      swap2\n      swap1\n      tag_63\n      jump\t// in\n    tag_129:\n        /* \"AutomatedMarketMaker.sol\":1615:1619  sqrt */\n      tag_130\n        /* \"AutomatedMarketMaker.sol\":1615:1638  sqrt(amountA * amountB) */\n      jump\t// in\n    tag_128:\n        /* \"AutomatedMarketMaker.sol\":1604:1638  lpMinted = sqrt(amountA * amountB) */\n      swap1\n      pop\n        /* \"AutomatedMarketMaker.sol\":1565:1773  if (totalLPSupply == 0) {... */\n      jump(tag_131)\n    tag_127:\n        /* \"AutomatedMarketMaker.sol\":1682:1761  min((amountA * totalLPSupply) / reserveA, (amountB * totalLPSupply) / reserveB) */\n      tag_132\n        /* \"AutomatedMarketMaker.sol\":1714:1722  reserveA */\n      sload(0x02)\n        /* \"AutomatedMarketMaker.sol\":1697:1710  totalLPSupply */\n      sload(0x04)\n        /* \"AutomatedMarketMaker.sol\":1687:1694  amountA */\n      dup6\n        /* \"AutomatedMarketMaker.sol\":1687:1710  amountA * totalLPSupply */\n      tag_133\n      swap2\n      swap1\n      tag_63\n      jump\t// in\n    tag_133:\n        /* \"AutomatedMarketMaker.sol\":1686:1722  (amountA * totalLPSupply) / reserveA */\n      tag_134\n      swap2\n      swap1\n      tag_65\n      jump\t// in\n    tag_134:\n        /* \"AutomatedMarketMaker.sol\":1752:1760  reserveB */\n      sload(0x03)\n        /* \"AutomatedMarketMaker.sol\":1735:1748  totalLPSupply */\n      sload(0x04)\n        /* \"AutomatedMarketMaker.sol\":1725:1732  amountB */\n      dup6\n        /* \"AutomatedMarketMaker.sol\":1725:1748  amountB * totalLPSupply */\n      tag_135\n      swap2\n      swap1\n      tag_63\n      jump\t// in\n    tag_135:\n        /* \"AutomatedMarketMaker.sol\":1724:1760  (amountB * totalLPSupply) / reserveB */\n      tag_136\n      swap2\n      swap1\n      tag_65\n      jump\t// in\n    tag_136:\n        /* \"AutomatedMarketMaker.sol\":1682:1685  min */\n      tag_137\n        /* \"AutomatedMarketMaker.sol\":1682:1761  min((amountA * totalLPSupply) / reserveA, (amountB * totalLPSupply) / reserveB) */\n      jump\t// in\n    tag_132:\n        /* \"AutomatedMarketMaker.sol\":1671:1761  lpMinted = min((amountA * totalLPSupply) / reserveA, (amountB * totalLPSupply) / reserveB) */\n      swap1\n      pop\n        /* \"AutomatedMarketMaker.sol\":1565:1773  if (totalLPSupply == 0) {... */\n    tag_131:\n        /* \"AutomatedMarketMaker.sol\":1810:1818  lpMinted */\n      dup1\n        /* \"AutomatedMarketMaker.sol\":1785:1794  lpBalance */\n      0x05\n        /* \"AutomatedMarketMaker.sol\":1785:1806  lpBalance[msg.sender] */\n      0x00\n        /* \"AutomatedMarketMaker.sol\":1795:1805  msg.sender */\n      caller\n        /* \"AutomatedMarketMaker.sol\":1785:1806  lpBalance[msg.sender] */\n      0xffffffffffffffffffffffffffffffffffffffff\n      and\n      0xffffffffffffffffffffffffffffffffffffffff\n      and\n      dup2\n      mstore\n      0x20\n      add\n      swap1\n      dup2\n      mstore\n      0x20\n      add\n      0x00\n      keccak256\n      0x00\n        /* \"AutomatedMarketMaker.sol\":1785:1818  lpBalance[msg.sender] += lpMinted */\n      dup3\n      dup3\n      sload\n      tag_138\n      swap2\n      swap1\n      tag_68\n      jump\t// in\n    tag_138:\n      swap3\n      pop\n      pop\n      dup2\n      swap1\n      sstore\n      pop\n        /* \"AutomatedMarketMaker.sol\":1846:1854  lpMinted */\n      dup1\n        /* \"AutomatedMarketMaker.sol\":1829:1842  totalLPSupply */\n      0x04\n      0x00\n        /* \"AutomatedMarketMaker.sol\":1829:1854  totalLPSupply += lpMinted */\n      dup3\n      dup3\n      sload\n      tag_139\n      swap2\n      swap1\n      tag_68\n      jump\t// in\n    tag_139:\n      swap3\n      pop\n      pop\n      dup2\n      swap1\n      sstore\n      pop\n        /* \"AutomatedMarketMaker.sol\":1879:1886  amountA */\n      dup3\n        /* \"AutomatedMarketMaker.sol\":1867:1875  reserveA */\n      0x02\n      0x00\n        /* \"AutomatedMarketMaker.sol\":1867:1886  reserveA += amountA */\n      dup3\n      dup3\n      sload\n      tag_140\n      swap2\n      swap1\n      tag_68\n      jump\t// in\n    tag_140:\n      swap3\n      pop\n      pop\n      dup2\n      swap1\n      sstore\n      pop\n        /* \"AutomatedMarketMaker.sol\":1909:1916  amountB */\n      dup2\n        /* \"AutomatedMarketMaker.sol\":1897:1905  reserveB */\n      0x03\n      0x00\n        /* \"AutomatedMarketMaker.sol\":1897:1916  reserveB += amountB */\n      dup3\n      dup3\n      sload\n      tag_141\n      swap2\n      swap1\n      tag_68\n      jump\t// in\n    tag_141:\n      swap3\n      pop\n      pop\n      dup2\n      swap1\n      sstore\n      pop\n        /* \"AutomatedMarketMaker.sol\":1949:1959  msg.sender */\n      caller\n        /* \"AutomatedMarketMaker.sol\":1934:1988  LiquidityAdded(msg.sender, amountA, amountB, lpMinted) */\n      0xffffffffffffffffffffffffffffffffffffffff\n      and\n      0x64b83944e79c3ce8d4c297411de637c3e102d064677aac0c163976ebdcd6f50e\n        /* \"AutomatedMarketMaker.sol\":1961:1968  amountA */\n      dup5\n        /* \"AutomatedMarketMaker.sol\":1970:1977  amountB */\n      dup5\n        /* \"AutomatedMarketMaker.sol\":1979:1987  lpMinted */\n      dup5\n        /* \"AutomatedMarketMaker.sol\":1934:1988  LiquidityAdded(msg.sender, amountA, amountB, lpMinted) */\n      mload(0x40)\n      tag_142\n      swap4\n      swap3\n      swap2\n      swap1\n      tag_113\n      jump\t// in\n    tag_142:\n      mload(0x40)\n      dup1\n      swap2\n      sub\n      swap1\n      log2\n        /* \"AutomatedMarketMaker.sol\":1261:1996  function addLiquidity(uint256 amountA, uint256 amountB) external returns (uint256 lpMinted) {... */\n      swap3\n      swap2\n      pop\n      pop\n      jump\t// out\n        /* \"AutomatedMarketMaker.sol\":674:702  uint256 public totalLPSupply */\n    tag_47:\n      sload(0x04)\n      dup2\n      jump\t// out\n        /* \"AutomatedMarketMaker.sol\":614:637  uint256 public reserveA */\n    tag_50:\n      sload(0x02)\n      dup2\n      jump\t// out\n        /* \"AutomatedMarketMaker.sol\":711:755  mapping(address => uint256) public lpBalance */\n    tag_55:\n      mstore(0x20, 0x05)\n      dup1\n      0x00\n      mstore\n      keccak256(0x00, 0x40)\n      0x00\n      swap2\n      pop\n      swap1\n      pop\n      sload\n      dup2\n      jump\t// out\n        /* \"AutomatedMarketMaker.sol\":2732:3195  function swapAforB(uint256 amountAIn) external returns (uint256 amountBOut) {... */\n    tag_59:\n        /* \"AutomatedMarketMaker.sol\":2788:2806  uint256 amountBOut */\n      0x00\n        /* \"AutomatedMarketMaker.sol\":2839:2840  0 */\n      0x00\n        /* \"AutomatedMarketMaker.sol\":2827:2836  amountAIn */\n      dup3\n        /* \"AutomatedMarketMaker.sol\":2827:2840  amountAIn > 0 */\n      gt\n        /* \"AutomatedMarketMaker.sol\":2819:2858  require(amountAIn > 0, \"Invalid input\") */\n      tag_144\n      jumpi\n      mload(0x40)\n      0x08c379a000000000000000000000000000000000000000000000000000000000\n      dup2\n      mstore\n      0x04\n      add\n      tag_145\n      swap1\n      tag_73\n      jump\t// in\n    tag_145:\n      mload(0x40)\n      dup1\n      swap2\n      sub\n      swap1\n      revert\n    tag_144:\n        /* \"AutomatedMarketMaker.sol\":2869:2875  tokenA */\n      0x00\n      0x00\n      swap1\n      sload\n      swap1\n      0x0100\n      exp\n      swap1\n      div\n      0xffffffffffffffffffffffffffffffffffffffff\n      and\n        /* \"AutomatedMarketMaker.sol\":2869:2888  tokenA.transferFrom */\n      0xffffffffffffffffffffffffffffffffffffffff\n      and\n      0x23b872dd\n        /* \"AutomatedMarketMaker.sol\":2889:2899  msg.sender */\n      caller\n        /* \"AutomatedMarketMaker.sol\":2909:2913  this */\n      address\n        /* \"AutomatedMarketMaker.sol\":2916:2925  amountAIn */\n      dup6\n        /* \"AutomatedMarketMaker.sol\":2869:2926  tokenA.transferFrom(msg.sender, address(this), amountAIn) */\n      mload(0x40)\n      dup5\n      0xffffffff\n      and\n      0xe0\n      shl\n      dup2\n      mstore\n      0x04\n      add\n      tag_146\n      swap4\n      swap3\n      swap2\n      swap1\n      tag_75\n      jump\t// in\n    tag_146:\n      0x20\n      mload(0x40)\n      dup1\n      dup4\n      sub\n      dup2\n      0x00\n      dup8\n      gas\n      call\n      iszero\n      dup1\n      iszero\n      tag_148\n      jumpi\n      returndatacopy(0x00, 0x00, returndatasize)\n      revert(0x00, returndatasize)\n    tag_148:\n      pop\n      pop\n      pop\n      pop\n      mload(0x40)\n      returndatasize\n      not(0x1f)\n      0x1f\n      dup3\n      add\n      and\n      dup3\n      add\n      dup1\n      0x40\n      mstore\n      pop\n      dup2\n      add\n      swap1\n      tag_149\n      swap2\n      swap1\n      tag_79\n      jump\t// in\n    tag_149:\n      pop\n        /* \"AutomatedMarketMaker.sol\":2952:2995  getAmountOut(amountAIn, reserveA, reserveB) */\n      tag_150\n        /* \"AutomatedMarketMaker.sol\":2965:2974  amountAIn */\n      dup3\n        /* \"AutomatedMarketMaker.sol\":2976:2984  reserveA */\n      sload(0x02)\n        /* \"AutomatedMarketMaker.sol\":2986:2994  reserveB */\n      sload(0x03)\n        /* \"AutomatedMarketMaker.sol\":2952:2964  getAmountOut */\n      tag_18\n        /* \"AutomatedMarketMaker.sol\":2952:2995  getAmountOut(amountAIn, reserveA, reserveB) */\n      jump\t// in\n    tag_150:\n        /* \"AutomatedMarketMaker.sol\":2939:2995  amountBOut = getAmountOut(amountAIn, reserveA, reserveB) */\n      swap1\n      pop\n        /* \"AutomatedMarketMaker.sol\":3018:3027  amountAIn */\n      dup2\n        /* \"AutomatedMarketMaker.sol\":3006:3014  reserveA */\n      0x02\n      0x00\n        /* \"AutomatedMarketMaker.sol\":3006:3027  reserveA += amountAIn */\n      dup3\n      dup3\n      sload\n      tag_151\n      swap2\n      swap1\n      tag_68\n      jump\t// in\n    tag_151:\n      swap3\n      pop\n      pop\n      dup2\n      swap1\n      sstore\n      pop\n        /* \"AutomatedMarketMaker.sol\":3050:3060  amountBOut */\n      dup1\n        /* \"AutomatedMarketMaker.sol\":3038:3046  reserveB */\n      0x03\n      0x00\n        /* \"AutomatedMarketMaker.sol\":3038:3060  reserveB -= amountBOut */\n      dup3\n      dup3\n      sload\n      tag_152\n      swap2\n      swap1\n      tag_83\n      jump\t// in\n    tag_152:\n      swap3\n      pop\n      pop\n      dup2\n      swap1\n      sstore\n      pop\n        /* \"AutomatedMarketMaker.sol\":3073:3079  tokenB */\n      0x01\n      0x00\n      swap1\n      sload\n      swap1\n      0x0100\n      exp\n      swap1\n      div\n      0xffffffffffffffffffffffffffffffffffffffff\n      and\n        /* \"AutomatedMarketMaker.sol\":3073:3088  tokenB.transfer */\n      0xffffffffffffffffffffffffffffffffffffffff\n      and\n      0xa9059cbb\n        /* \"AutomatedMarketMaker.sol\":3089:3099  msg.sender */\n      caller\n        /* \"AutomatedMarketMaker.sol\":3101:3111  amountBOut */\n      dup4\n        /* \"AutomatedMarketMaker.sol\":3073:3112  tokenB.transfer(msg.sender, amountBOut) */\n      mload(0x40)\n      dup4\n      0xffffffff\n      and\n      0xe0\n      shl\n      dup2\n      mstore\n      0x04\n      add\n      tag_153\n      swap3\n      swap2\n      swap1\n      tag_85\n      jump\t// in\n    tag_153:\n      0x20\n      mload(0x40)\n      dup1\n      dup4\n      sub\n      dup2\n      0x00\n      dup8\n      gas\n      call\n      iszero\n      dup1\n      iszero\n      tag_155\n      jumpi\n      returndatacopy(0x00, 0x00, returndatasize)\n      revert(0x00, returndatasize)\n    tag_155:\n      pop\n      pop\n      pop\n      pop\n      mload(0x40)\n      returndatasize\n      not(0x1f)\n      0x1f\n      dup3\n      add\n      and\n      dup3\n      add\n      dup1\n      0x40\n      mstore\n      pop\n      dup2\n      add\n      swap1\n      tag_156\n      swap2\n      swap1\n      tag_79\n      jump\t// in\n    tag_156:\n      pop\n        /* \"AutomatedMarketMaker.sol\":3136:3146  msg.sender */\n      caller\n        /* \"AutomatedMarketMaker.sol\":3128:3187  Swapped(msg.sender, address(tokenA), amountAIn, amountBOut) */\n      0xffffffffffffffffffffffffffffffffffffffff\n      and\n      0xa078c4190abe07940190effc1846be0ccf03ad6007bc9e93f9697d0b460befbb\n        /* \"AutomatedMarketMaker.sol\":3156:3162  tokenA */\n      0x00\n      0x00\n      swap1\n      sload\n      swap1\n      0x0100\n      exp\n      swap1\n      div\n      0xffffffffffffffffffffffffffffffffffffffff\n      and\n        /* \"AutomatedMarketMaker.sol\":3165:3174  amountAIn */\n      dup5\n        /* \"AutomatedMarketMaker.sol\":3176:3186  amountBOut */\n      dup5\n        /* \"AutomatedMarketMaker.sol\":3128:3187  Swapped(msg.sender, address(tokenA), amountAIn, amountBOut) */\n      mload(0x40)\n      tag_157\n      swap4\n      swap3\n      swap2\n      swap1\n      tag_90\n      jump\t// in\n    tag_157:\n      mload(0x40)\n      dup1\n      swap2\n      sub\n      swap1\n      log2\n        /* \"AutomatedMarketMaker.sol\":2732:3195  function swapAforB(uint256 amountAIn) external returns (uint256 amountBOut) {... */\n      swap2\n      swap1\n      pop\n      jump\t// out\n        /* \"AutomatedMarketMaker.sol\":4228:4540  function sqrt(uint256 y) internal pure returns (uint256 z) {... */\n    tag_130:\n        /* \"AutomatedMarketMaker.sol\":4276:4285  uint256 z */\n      0x00\n        /* \"AutomatedMarketMaker.sol\":4306:4307  3 */\n      0x03\n        /* \"AutomatedMarketMaker.sol\":4302:4303  y */\n      dup3\n        /* \"AutomatedMarketMaker.sol\":4302:4307  y > 3 */\n      gt\n        /* \"AutomatedMarketMaker.sol\":4298:4533  if (y > 3) {... */\n      iszero\n      tag_159\n      jumpi\n        /* \"AutomatedMarketMaker.sol\":4328:4329  y */\n      dup2\n        /* \"AutomatedMarketMaker.sol\":4324:4329  z = y */\n      swap1\n      pop\n        /* \"AutomatedMarketMaker.sol\":4344:4353  uint256 x */\n      0x00\n        /* \"AutomatedMarketMaker.sol\":4364:4365  1 */\n      0x01\n        /* \"AutomatedMarketMaker.sol\":4360:4361  2 */\n      0x02\n        /* \"AutomatedMarketMaker.sol\":4356:4357  y */\n      dup5\n        /* \"AutomatedMarketMaker.sol\":4356:4361  y / 2 */\n      tag_160\n      swap2\n      swap1\n      tag_65\n      jump\t// in\n    tag_160:\n        /* \"AutomatedMarketMaker.sol\":4356:4365  y / 2 + 1 */\n      tag_161\n      swap2\n      swap1\n      tag_68\n      jump\t// in\n    tag_161:\n        /* \"AutomatedMarketMaker.sol\":4344:4365  uint256 x = y / 2 + 1 */\n      swap1\n      pop\n        /* \"AutomatedMarketMaker.sol\":4380:4472  while (x < z) {... */\n    tag_162:\n        /* \"AutomatedMarketMaker.sol\":4391:4392  z */\n      dup2\n        /* \"AutomatedMarketMaker.sol\":4387:4388  x */\n      dup2\n        /* \"AutomatedMarketMaker.sol\":4387:4392  x < z */\n      lt\n        /* \"AutomatedMarketMaker.sol\":4380:4472  while (x < z) {... */\n      iszero\n      tag_163\n      jumpi\n        /* \"AutomatedMarketMaker.sol\":4417:4418  x */\n      dup1\n        /* \"AutomatedMarketMaker.sol\":4413:4418  z = x */\n      swap2\n      pop\n        /* \"AutomatedMarketMaker.sol\":4455:4456  2 */\n      0x02\n        /* \"AutomatedMarketMaker.sol\":4450:4451  x */\n      dup2\n        /* \"AutomatedMarketMaker.sol\":4446:4447  x */\n      dup3\n        /* \"AutomatedMarketMaker.sol\":4442:4443  y */\n      dup6\n        /* \"AutomatedMarketMaker.sol\":4442:4447  y / x */\n      tag_164\n      swap2\n      swap1\n      tag_65\n      jump\t// in\n    tag_164:\n        /* \"AutomatedMarketMaker.sol\":4442:4451  y / x + x */\n      tag_165\n      swap2\n      swap1\n      tag_68\n      jump\t// in\n    tag_165:\n        /* \"AutomatedMarketMaker.sol\":4441:4456  (y / x + x) / 2 */\n      tag_166\n      swap2\n      swap1\n      tag_65\n      jump\t// in\n    tag_166:\n        /* \"AutomatedMarketMaker.sol\":4437:4456  x = (y / x + x) / 2 */\n      swap1\n      pop\n        /* \"AutomatedMarketMaker.sol\":4380:4472  while (x < z) {... */\n      jump(tag_162)\n    tag_163:\n        /* \"AutomatedMarketMaker.sol\":4309:4483  {... */\n      pop\n        /* \"AutomatedMarketMaker.sol\":4298:4533  if (y > 3) {... */\n      jump(tag_167)\n    tag_159:\n        /* \"AutomatedMarketMaker.sol\":4498:4499  0 */\n      0x00\n        /* \"AutomatedMarketMaker.sol\":4493:4494  y */\n      dup3\n        /* \"AutomatedMarketMaker.sol\":4493:4499  y != 0 */\n      eq\n        /* \"AutomatedMarketMaker.sol\":4489:4533  if (y != 0) {... */\n      tag_168\n      jumpi\n        /* \"AutomatedMarketMaker.sol\":4520:4521  1 */\n      0x01\n        /* \"AutomatedMarketMaker.sol\":4516:4521  z = 1 */\n      swap1\n      pop\n        /* \"AutomatedMarketMaker.sol\":4489:4533  if (y != 0) {... */\n    tag_168:\n        /* \"AutomatedMarketMaker.sol\":4298:4533  if (y > 3) {... */\n    tag_167:\n        /* \"AutomatedMarketMaker.sol\":4228:4540  function sqrt(uint256 y) internal pure returns (uint256 z) {... */\n      swap2\n      swap1\n      pop\n      jump\t// out\n        /* \"AutomatedMarketMaker.sol\":4114:4220  function min(uint256 x, uint256 y) internal pure returns (uint256) {... */\n    tag_137:\n        /* \"AutomatedMarketMaker.sol\":4172:4179  uint256 */\n      0x00\n        /* \"AutomatedMarketMaker.sol\":4203:4204  y */\n      dup2\n        /* \"AutomatedMarketMaker.sol\":4199:4200  x */\n      dup4\n        /* \"AutomatedMarketMaker.sol\":4199:4204  x < y */\n      lt\n        /* \"AutomatedMarketMaker.sol\":4199:4212  x < y ? x : y */\n      tag_170\n      jumpi\n        /* \"AutomatedMarketMaker.sol\":4211:4212  y */\n      dup2\n        /* \"AutomatedMarketMaker.sol\":4199:4212  x < y ? x : y */\n      jump(tag_171)\n    tag_170:\n        /* \"AutomatedMarketMaker.sol\":4207:4208  x */\n      dup3\n        /* \"AutomatedMarketMaker.sol\":4199:4212  x < y ? x : y */\n    tag_171:\n        /* \"AutomatedMarketMaker.sol\":4192:4212  return x < y ? x : y */\n      swap1\n      pop\n        /* \"AutomatedMarketMaker.sol\":4114:4220  function min(uint256 x, uint256 y) internal pure returns (uint256) {... */\n      swap3\n      swap2\n      pop\n      pop\n      jump\t// out\n        /* \"#utility.yul\":88:205   */\n    tag_173:\n        /* \"#utility.yul\":197:198   */\n      0x00\n        /* \"#utility.yul\":194:195   */\n      0x00\n        /* \"#utility.yul\":187:199   */\n      revert\n        /* \"#utility.yul\":334:411   */\n    tag_175:\n        /* \"#utility.yul\":371:378   */\n      0x00\n        /* \"#utility.yul\":400:405   */\n      dup2\n        /* \"#utility.yul\":389:405   */\n      swap1\n      pop\n        /* \"#utility.yul\":334:411   */\n      swap2\n      swap1\n      pop\n      jump\t// out\n        /* \"#utility.yul\":417:539   */\n    tag_176:\n        /* \"#utility.yul\":490:514   */\n      tag_207\n        /* \"#utility.yul\":508:513   */\n      dup2\n        /* \"#utility.yul\":490:514   */\n      tag_175\n      jump\t// in\n    tag_207:\n        /* \"#utility.yul\":483:488   */\n      dup2\n        /* \"#utility.yul\":480:515   */\n      eq\n        /* \"#utility.yul\":470:533   */\n      tag_208\n      jumpi\n        /* \"#utility.yul\":529:530   */\n      0x00\n        /* \"#utility.yul\":526:527   */\n      0x00\n        /* \"#utility.yul\":519:531   */\n      revert\n        /* \"#utility.yul\":470:533   */\n    tag_208:\n        /* \"#utility.yul\":417:539   */\n      pop\n      jump\t// out\n        /* \"#utility.yul\":545:684   */\n    tag_177:\n        /* \"#utility.yul\":591:596   */\n      0x00\n        /* \"#utility.yul\":629:635   */\n      dup2\n        /* \"#utility.yul\":616:636   */\n      calldataload\n        /* \"#utility.yul\":607:636   */\n      swap1\n      pop\n        /* \"#utility.yul\":645:678   */\n      tag_210\n        /* \"#utility.yul\":672:677   */\n      dup2\n        /* \"#utility.yul\":645:678   */\n      tag_176\n      jump\t// in\n    tag_210:\n        /* \"#utility.yul\":545:684   */\n      swap3\n      swap2\n      pop\n      pop\n      jump\t// out\n        /* \"#utility.yul\":690:1309   */\n    tag_17:\n        /* \"#utility.yul\":767:773   */\n      0x00\n        /* \"#utility.yul\":775:781   */\n      0x00\n        /* \"#utility.yul\":783:789   */\n      0x00\n        /* \"#utility.yul\":832:834   */\n      0x60\n        /* \"#utility.yul\":820:829   */\n      dup5\n        /* \"#utility.yul\":811:818   */\n      dup7\n        /* \"#utility.yul\":807:830   */\n      sub\n        /* \"#utility.yul\":803:835   */\n      slt\n        /* \"#utility.yul\":800:919   */\n      iszero\n      tag_212\n      jumpi\n        /* \"#utility.yul\":838:917   */\n      tag_213\n      tag_173\n      jump\t// in\n    tag_213:\n        /* \"#utility.yul\":800:919   */\n    tag_212:\n        /* \"#utility.yul\":958:959   */\n      0x00\n        /* \"#utility.yul\":983:1036   */\n      tag_214\n        /* \"#utility.yul\":1028:1035   */\n      dup7\n        /* \"#utility.yul\":1019:1025   */\n      dup3\n        /* \"#utility.yul\":1008:1017   */\n      dup8\n        /* \"#utility.yul\":1004:1026   */\n      add\n        /* \"#utility.yul\":983:1036   */\n      tag_177\n      jump\t// in\n    tag_214:\n        /* \"#utility.yul\":973:1036   */\n      swap4\n      pop\n        /* \"#utility.yul\":929:1046   */\n      pop\n        /* \"#utility.yul\":1085:1087   */\n      0x20\n        /* \"#utility.yul\":1111:1164   */\n      tag_215\n        /* \"#utility.yul\":1156:1163   */\n      dup7\n        /* \"#utility.yul\":1147:1153   */\n      dup3\n        /* \"#utility.yul\":1136:1145   */\n      dup8\n        /* \"#utility.yul\":1132:1154   */\n      add\n        /* \"#utility.yul\":1111:1164   */\n      tag_177\n      jump\t// in\n    tag_215:\n        /* \"#utility.yul\":1101:1164   */\n      swap3\n      pop\n        /* \"#utility.yul\":1056:1174   */\n      pop\n        /* \"#utility.yul\":1213:1215   */\n      0x40\n        /* \"#utility.yul\":1239:1292   */\n      tag_216\n        /* \"#utility.yul\":1284:1291   */\n      dup7\n        /* \"#utility.yul\":1275:1281   */\n      dup3\n        /* \"#utility.yul\":1264:1273   */\n      dup8\n        /* \"#utility.yul\":1260:1282   */\n      add\n        /* \"#utility.yul\":1239:1292   */\n      tag_177\n      jump\t// in\n    tag_216:\n        /* \"#utility.yul\":1229:1292   */\n      swap2\n      pop\n        /* \"#utility.yul\":1184:1302   */\n      pop\n        /* \"#utility.yul\":690:1309   */\n      swap3\n      pop\n      swap3\n      pop\n      swap3\n      jump\t// out\n        /* \"#utility.yul\":1315:1433   */\n    tag_178:\n        /* \"#utility.yul\":1402:1426   */\n      tag_218\n        /* \"#utility.yul\":1420:1425   */\n      dup2\n        /* \"#utility.yul\":1402:1426   */\n      tag_175\n      jump\t// in\n    tag_218:\n        /* \"#utility.yul\":1397:1400   */\n      dup3\n        /* \"#utility.yul\":1390:1427   */\n      mstore\n        /* \"#utility.yul\":1315:1433   */\n      pop\n      pop\n      jump\t// out\n        /* \"#utility.yul\":1439:1661   */\n    tag_20:\n        /* \"#utility.yul\":1532:1536   */\n      0x00\n        /* \"#utility.yul\":1570:1572   */\n      0x20\n        /* \"#utility.yul\":1559:1568   */\n      dup3\n        /* \"#utility.yul\":1555:1573   */\n      add\n        /* \"#utility.yul\":1547:1573   */\n      swap1\n      pop\n        /* \"#utility.yul\":1583:1654   */\n      tag_220\n        /* \"#utility.yul\":1651:1652   */\n      0x00\n        /* \"#utility.yul\":1640:1649   */\n      dup4\n        /* \"#utility.yul\":1636:1653   */\n      add\n        /* \"#utility.yul\":1627:1633   */\n      dup5\n        /* \"#utility.yul\":1583:1654   */\n      tag_178\n      jump\t// in\n    tag_220:\n        /* \"#utility.yul\":1439:1661   */\n      swap3\n      swap2\n      pop\n      pop\n      jump\t// out\n        /* \"#utility.yul\":1667:1793   */\n    tag_179:\n        /* \"#utility.yul\":1704:1711   */\n      0x00\n        /* \"#utility.yul\":1744:1786   */\n      0xffffffffffffffffffffffffffffffffffffffff\n        /* \"#utility.yul\":1737:1742   */\n      dup3\n        /* \"#utility.yul\":1733:1787   */\n      and\n        /* \"#utility.yul\":1722:1787   */\n      swap1\n      pop\n        /* \"#utility.yul\":1667:1793   */\n      swap2\n      swap1\n      pop\n      jump\t// out\n        /* \"#utility.yul\":1799:1859   */\n    tag_180:\n        /* \"#utility.yul\":1827:1830   */\n      0x00\n        /* \"#utility.yul\":1848:1853   */\n      dup2\n        /* \"#utility.yul\":1841:1853   */\n      swap1\n      pop\n        /* \"#utility.yul\":1799:1859   */\n      swap2\n      swap1\n      pop\n      jump\t// out\n        /* \"#utility.yul\":1865:2007   */\n    tag_181:\n        /* \"#utility.yul\":1915:1924   */\n      0x00\n        /* \"#utility.yul\":1948:2001   */\n      tag_224\n        /* \"#utility.yul\":1966:2000   */\n      tag_225\n        /* \"#utility.yul\":1975:1999   */\n      tag_226\n        /* \"#utility.yul\":1993:1998   */\n      dup5\n        /* \"#utility.yul\":1975:1999   */\n      tag_179\n      jump\t// in\n    tag_226:\n        /* \"#utility.yul\":1966:2000   */\n      tag_180\n      jump\t// in\n    tag_225:\n        /* \"#utility.yul\":1948:2001   */\n      tag_179\n      jump\t// in\n    tag_224:\n        /* \"#utility.yul\":1935:2001   */\n      swap1\n      pop\n        /* \"#utility.yul\":1865:2007   */\n      swap2\n      swap1\n      pop\n      jump\t// out\n        /* \"#utility.yul\":2013:2139   */\n    tag_182:\n        /* \"#utility.yul\":2063:2072   */\n      0x00\n        /* \"#utility.yul\":2096:2133   */\n      tag_228\n        /* \"#utility.yul\":2127:2132   */\n      dup3\n        /* \"#utility.yul\":2096:2133   */\n      tag_181\n      jump\t// in\n    tag_228:\n        /* \"#utility.yul\":2083:2133   */\n      swap1\n      pop\n        /* \"#utility.yul\":2013:2139   */\n      swap2\n      swap1\n      pop\n      jump\t// out\n        /* \"#utility.yul\":2145:2284   */\n    tag_183:\n        /* \"#utility.yul\":2208:2217   */\n      0x00\n        /* \"#utility.yul\":2241:2278   */\n      tag_230\n        /* \"#utility.yul\":2272:2277   */\n      dup3\n        /* \"#utility.yul\":2241:2278   */\n      tag_182\n      jump\t// in\n    tag_230:\n        /* \"#utility.yul\":2228:2278   */\n      swap1\n      pop\n        /* \"#utility.yul\":2145:2284   */\n      swap2\n      swap1\n      pop\n      jump\t// out\n        /* \"#utility.yul\":2290:2447   */\n    tag_184:\n        /* \"#utility.yul\":2390:2440   */\n      tag_232\n        /* \"#utility.yul\":2434:2439   */\n      dup2\n        /* \"#utility.yul\":2390:2440   */\n      tag_183\n      jump\t// in\n    tag_232:\n        /* \"#utility.yul\":2385:2388   */\n      dup3\n        /* \"#utility.yul\":2378:2441   */\n      mstore\n        /* \"#utility.yul\":2290:2447   */\n      pop\n      pop\n      jump\t// out\n        /* \"#utility.yul\":2453:2701   */\n    tag_24:\n        /* \"#utility.yul\":2559:2563   */\n      0x00\n        /* \"#utility.yul\":2597:2599   */\n      0x20\n        /* \"#utility.yul\":2586:2595   */\n      dup3\n        /* \"#utility.yul\":2582:2600   */\n      add\n        /* \"#utility.yul\":2574:2600   */\n      swap1\n      pop\n        /* \"#utility.yul\":2610:2694   */\n      tag_234\n        /* \"#utility.yul\":2691:2692   */\n      0x00\n        /* \"#utility.yul\":2680:2689   */\n      dup4\n        /* \"#utility.yul\":2676:2693   */\n      add\n        /* \"#utility.yul\":2667:2673   */\n      dup5\n        /* \"#utility.yul\":2610:2694   */\n      tag_184\n      jump\t// in\n    tag_234:\n        /* \"#utility.yul\":2453:2701   */\n      swap3\n      swap2\n      pop\n      pop\n      jump\t// out\n        /* \"#utility.yul\":2707:3036   */\n    tag_33:\n        /* \"#utility.yul\":2766:2772   */\n      0x00\n        /* \"#utility.yul\":2815:2817   */\n      0x20\n        /* \"#utility.yul\":2803:2812   */\n      dup3\n        /* \"#utility.yul\":2794:2801   */\n      dup5\n        /* \"#utility.yul\":2790:2813   */\n      sub\n        /* \"#utility.yul\":2786:2818   */\n      slt\n        /* \"#utility.yul\":2783:2902   */\n      iszero\n      tag_236\n      jumpi\n        /* \"#utility.yul\":2821:2900   */\n      tag_237\n      tag_173\n      jump\t// in\n    tag_237:\n        /* \"#utility.yul\":2783:2902   */\n    tag_236:\n        /* \"#utility.yul\":2941:2942   */\n      0x00\n        /* \"#utility.yul\":2966:3019   */\n      tag_238\n        /* \"#utility.yul\":3011:3018   */\n      dup5\n        /* \"#utility.yul\":3002:3008   */\n      dup3\n        /* \"#utility.yul\":2991:3000   */\n      dup6\n        /* \"#utility.yul\":2987:3009   */\n      add\n        /* \"#utility.yul\":2966:3019   */\n      tag_177\n      jump\t// in\n    tag_238:\n        /* \"#utility.yul\":2956:3019   */\n      swap2\n      pop\n        /* \"#utility.yul\":2912:3029   */\n      pop\n        /* \"#utility.yul\":2707:3036   */\n      swap3\n      swap2\n      pop\n      pop\n      jump\t// out\n        /* \"#utility.yul\":3042:3374   */\n    tag_40:\n        /* \"#utility.yul\":3163:3167   */\n      0x00\n        /* \"#utility.yul\":3201:3203   */\n      0x40\n        /* \"#utility.yul\":3190:3199   */\n      dup3\n        /* \"#utility.yul\":3186:3204   */\n      add\n        /* \"#utility.yul\":3178:3204   */\n      swap1\n      pop\n        /* \"#utility.yul\":3214:3285   */\n      tag_240\n        /* \"#utility.yul\":3282:3283   */\n      0x00\n        /* \"#utility.yul\":3271:3280   */\n      dup4\n        /* \"#utility.yul\":3267:3284   */\n      add\n        /* \"#utility.yul\":3258:3264   */\n      dup6\n        /* \"#utility.yul\":3214:3285   */\n      tag_178\n      jump\t// in\n    tag_240:\n        /* \"#utility.yul\":3295:3367   */\n      tag_241\n        /* \"#utility.yul\":3363:3365   */\n      0x20\n        /* \"#utility.yul\":3352:3361   */\n      dup4\n        /* \"#utility.yul\":3348:3366   */\n      add\n        /* \"#utility.yul\":3339:3345   */\n      dup5\n        /* \"#utility.yul\":3295:3367   */\n      tag_178\n      jump\t// in\n    tag_241:\n        /* \"#utility.yul\":3042:3374   */\n      swap4\n      swap3\n      pop\n      pop\n      pop\n      jump\t// out\n        /* \"#utility.yul\":3380:3854   */\n    tag_43:\n        /* \"#utility.yul\":3448:3454   */\n      0x00\n        /* \"#utility.yul\":3456:3462   */\n      0x00\n        /* \"#utility.yul\":3505:3507   */\n      0x40\n        /* \"#utility.yul\":3493:3502   */\n      dup4\n        /* \"#utility.yul\":3484:3491   */\n      dup6\n        /* \"#utility.yul\":3480:3503   */\n      sub\n        /* \"#utility.yul\":3476:3508   */\n      slt\n        /* \"#utility.yul\":3473:3592   */\n      iszero\n      tag_243\n      jumpi\n        /* \"#utility.yul\":3511:3590   */\n      tag_244\n      tag_173\n      jump\t// in\n    tag_244:\n        /* \"#utility.yul\":3473:3592   */\n    tag_243:\n        /* \"#utility.yul\":3631:3632   */\n      0x00\n        /* \"#utility.yul\":3656:3709   */\n      tag_245\n        /* \"#utility.yul\":3701:3708   */\n      dup6\n        /* \"#utility.yul\":3692:3698   */\n      dup3\n        /* \"#utility.yul\":3681:3690   */\n      dup7\n        /* \"#utility.yul\":3677:3699   */\n      add\n        /* \"#utility.yul\":3656:3709   */\n      tag_177\n      jump\t// in\n    tag_245:\n        /* \"#utility.yul\":3646:3709   */\n      swap3\n      pop\n        /* \"#utility.yul\":3602:3719   */\n      pop\n        /* \"#utility.yul\":3758:3760   */\n      0x20\n        /* \"#utility.yul\":3784:3837   */\n      tag_246\n        /* \"#utility.yul\":3829:3836   */\n      dup6\n        /* \"#utility.yul\":3820:3826   */\n      dup3\n        /* \"#utility.yul\":3809:3818   */\n      dup7\n        /* \"#utility.yul\":3805:3827   */\n      add\n        /* \"#utility.yul\":3784:3837   */\n      tag_177\n      jump\t// in\n    tag_246:\n        /* \"#utility.yul\":3774:3837   */\n      swap2\n      pop\n        /* \"#utility.yul\":3729:3847   */\n      pop\n        /* \"#utility.yul\":3380:3854   */\n      swap3\n      pop\n      swap3\n      swap1\n      pop\n      jump\t// out\n        /* \"#utility.yul\":3860:3956   */\n    tag_185:\n        /* \"#utility.yul\":3897:3904   */\n      0x00\n        /* \"#utility.yul\":3926:3950   */\n      tag_248\n        /* \"#utility.yul\":3944:3949   */\n      dup3\n        /* \"#utility.yul\":3926:3950   */\n      tag_179\n      jump\t// in\n    tag_248:\n        /* \"#utility.yul\":3915:3950   */\n      swap1\n      pop\n        /* \"#utility.yul\":3860:3956   */\n      swap2\n      swap1\n      pop\n      jump\t// out\n        /* \"#utility.yul\":3962:4084   */\n    tag_186:\n        /* \"#utility.yul\":4035:4059   */\n      tag_250\n        /* \"#utility.yul\":4053:4058   */\n      dup2\n        /* \"#utility.yul\":4035:4059   */\n      tag_185\n      jump\t// in\n    tag_250:\n        /* \"#utility.yul\":4028:4033   */\n      dup2\n        /* \"#utility.yul\":4025:4060   */\n      eq\n        /* \"#utility.yul\":4015:4078   */\n      tag_251\n      jumpi\n        /* \"#utility.yul\":4074:4075   */\n      0x00\n        /* \"#utility.yul\":4071:4072   */\n      0x00\n        /* \"#utility.yul\":4064:4076   */\n      revert\n        /* \"#utility.yul\":4015:4078   */\n    tag_251:\n        /* \"#utility.yul\":3962:4084   */\n      pop\n      jump\t// out\n        /* \"#utility.yul\":4090:4229   */\n    tag_187:\n        /* \"#utility.yul\":4136:4141   */\n      0x00\n        /* \"#utility.yul\":4174:4180   */\n      dup2\n        /* \"#utility.yul\":4161:4181   */\n      calldataload\n        /* \"#utility.yul\":4152:4181   */\n      swap1\n      pop\n        /* \"#utility.yul\":4190:4223   */\n      tag_253\n        /* \"#utility.yul\":4217:4222   */\n      dup2\n        /* \"#utility.yul\":4190:4223   */\n      tag_186\n      jump\t// in\n    tag_253:\n        /* \"#utility.yul\":4090:4229   */\n      swap3\n      swap2\n      pop\n      pop\n      jump\t// out\n        /* \"#utility.yul\":4235:4564   */\n    tag_54:\n        /* \"#utility.yul\":4294:4300   */\n      0x00\n        /* \"#utility.yul\":4343:4345   */\n      0x20\n        /* \"#utility.yul\":4331:4340   */\n      dup3\n        /* \"#utility.yul\":4322:4329   */\n      dup5\n        /* \"#utility.yul\":4318:4341   */\n      sub\n        /* \"#utility.yul\":4314:4346   */\n      slt\n        /* \"#utility.yul\":4311:4430   */\n      iszero\n      tag_255\n      jumpi\n        /* \"#utility.yul\":4349:4428   */\n      tag_256\n      tag_173\n      jump\t// in\n    tag_256:\n        /* \"#utility.yul\":4311:4430   */\n    tag_255:\n        /* \"#utility.yul\":4469:4470   */\n      0x00\n        /* \"#utility.yul\":4494:4547   */\n      tag_257\n        /* \"#utility.yul\":4539:4546   */\n      dup5\n        /* \"#utility.yul\":4530:4536   */\n      dup3\n        /* \"#utility.yul\":4519:4528   */\n      dup6\n        /* \"#utility.yul\":4515:4537   */\n      add\n        /* \"#utility.yul\":4494:4547   */\n      tag_187\n      jump\t// in\n    tag_257:\n        /* \"#utility.yul\":4484:4547   */\n      swap2\n      pop\n        /* \"#utility.yul\":4440:4557   */\n      pop\n        /* \"#utility.yul\":4235:4564   */\n      swap3\n      swap2\n      pop\n      pop\n      jump\t// out\n        /* \"#utility.yul\":4570:4750   */\n    tag_188:\n        /* \"#utility.yul\":4618:4695   */\n      0x4e487b7100000000000000000000000000000000000000000000000000000000\n        /* \"#utility.yul\":4615:4616   */\n      0x00\n        /* \"#utility.yul\":4608:4696   */\n      mstore\n        /* \"#utility.yul\":4715:4719   */\n      0x11\n        /* \"#utility.yul\":4712:4713   */\n      0x04\n        /* \"#utility.yul\":4705:4720   */\n      mstore\n        /* \"#utility.yul\":4739:4743   */\n      0x24\n        /* \"#utility.yul\":4736:4737   */\n      0x00\n        /* \"#utility.yul\":4729:4744   */\n      revert\n        /* \"#utility.yul\":4756:5166   */\n    tag_63:\n        /* \"#utility.yul\":4796:4803   */\n      0x00\n        /* \"#utility.yul\":4819:4839   */\n      tag_260\n        /* \"#utility.yul\":4837:4838   */\n      dup3\n        /* \"#utility.yul\":4819:4839   */\n      tag_175\n      jump\t// in\n    tag_260:\n        /* \"#utility.yul\":4814:4839   */\n      swap2\n      pop\n        /* \"#utility.yul\":4853:4873   */\n      tag_261\n        /* \"#utility.yul\":4871:4872   */\n      dup4\n        /* \"#utility.yul\":4853:4873   */\n      tag_175\n      jump\t// in\n    tag_261:\n        /* \"#utility.yul\":4848:4873   */\n      swap3\n      pop\n        /* \"#utility.yul\":4908:4909   */\n      dup3\n        /* \"#utility.yul\":4905:4906   */\n      dup3\n        /* \"#utility.yul\":4901:4910   */\n      mul\n        /* \"#utility.yul\":4930:4960   */\n      tag_262\n        /* \"#utility.yul\":4948:4959   */\n      dup2\n        /* \"#utility.yul\":4930:4960   */\n      tag_175\n      jump\t// in\n    tag_262:\n        /* \"#utility.yul\":4919:4960   */\n      swap2\n      pop\n        /* \"#utility.yul\":5109:5110   */\n      dup3\n        /* \"#utility.yul\":5100:5107   */\n      dup3\n        /* \"#utility.yul\":5096:5111   */\n      div\n        /* \"#utility.yul\":5093:5094   */\n      dup5\n        /* \"#utility.yul\":5090:5112   */\n      eq\n        /* \"#utility.yul\":5070:5071   */\n      dup4\n        /* \"#utility.yul\":5063:5072   */\n      iszero\n        /* \"#utility.yul\":5043:5126   */\n      or\n        /* \"#utility.yul\":5020:5159   */\n      tag_263\n      jumpi\n        /* \"#utility.yul\":5139:5157   */\n      tag_264\n      tag_188\n      jump\t// in\n    tag_264:\n        /* \"#utility.yul\":5020:5159   */\n    tag_263:\n        /* \"#utility.yul\":4804:5166   */\n      pop\n        /* \"#utility.yul\":4756:5166   */\n      swap3\n      swap2\n      pop\n      pop\n      jump\t// out\n        /* \"#utility.yul\":5172:5352   */\n    tag_189:\n        /* \"#utility.yul\":5220:5297   */\n      0x4e487b7100000000000000000000000000000000000000000000000000000000\n        /* \"#utility.yul\":5217:5218   */\n      0x00\n        /* \"#utility.yul\":5210:5298   */\n      mstore\n        /* \"#utility.yul\":5317:5321   */\n      0x12\n        /* \"#utility.yul\":5314:5315   */\n      0x04\n        /* \"#utility.yul\":5307:5322   */\n      mstore\n        /* \"#utility.yul\":5341:5345   */\n      0x24\n        /* \"#utility.yul\":5338:5339   */\n      0x00\n        /* \"#utility.yul\":5331:5346   */\n      revert\n        /* \"#utility.yul\":5358:5543   */\n    tag_65:\n        /* \"#utility.yul\":5398:5399   */\n      0x00\n        /* \"#utility.yul\":5415:5435   */\n      tag_267\n        /* \"#utility.yul\":5433:5434   */\n      dup3\n        /* \"#utility.yul\":5415:5435   */\n      tag_175\n      jump\t// in\n    tag_267:\n        /* \"#utility.yul\":5410:5435   */\n      swap2\n      pop\n        /* \"#utility.yul\":5449:5469   */\n      tag_268\n        /* \"#utility.yul\":5467:5468   */\n      dup4\n        /* \"#utility.yul\":5449:5469   */\n      tag_175\n      jump\t// in\n    tag_268:\n        /* \"#utility.yul\":5444:5469   */\n      swap3\n      pop\n        /* \"#utility.yul\":5488:5489   */\n      dup3\n        /* \"#utility.yul\":5478:5513   */\n      tag_269\n      jumpi\n        /* \"#utility.yul\":5493:5511   */\n      tag_270\n      tag_189\n      jump\t// in\n    tag_270:\n        /* \"#utility.yul\":5478:5513   */\n    tag_269:\n        /* \"#utility.yul\":5535:5536   */\n      dup3\n        /* \"#utility.yul\":5532:5533   */\n      dup3\n        /* \"#utility.yul\":5528:5537   */\n      div\n        /* \"#utility.yul\":5523:5537   */\n      swap1\n      pop\n        /* \"#utility.yul\":5358:5543   */\n      swap3\n      swap2\n      pop\n      pop\n      jump\t// out\n        /* \"#utility.yul\":5549:5740   */\n    tag_68:\n        /* \"#utility.yul\":5589:5592   */\n      0x00\n        /* \"#utility.yul\":5608:5628   */\n      tag_272\n        /* \"#utility.yul\":5626:5627   */\n      dup3\n        /* \"#utility.yul\":5608:5628   */\n      tag_175\n      jump\t// in\n    tag_272:\n        /* \"#utility.yul\":5603:5628   */\n      swap2\n      pop\n        /* \"#utility.yul\":5642:5662   */\n      tag_273\n        /* \"#utility.yul\":5660:5661   */\n      dup4\n        /* \"#utility.yul\":5642:5662   */\n      tag_175\n      jump\t// in\n    tag_273:\n        /* \"#utility.yul\":5637:5662   */\n      swap3\n      pop\n        /* \"#utility.yul\":5685:5686   */\n      dup3\n        /* \"#utility.yul\":5682:5683   */\n      dup3\n        /* \"#utility.yul\":5678:5687   */\n      add\n        /* \"#utility.yul\":5671:5687   */\n      swap1\n      pop\n        /* \"#utility.yul\":5706:5709   */\n      dup1\n        /* \"#utility.yul\":5703:5704   */\n      dup3\n        /* \"#utility.yul\":5700:5710   */\n      gt\n        /* \"#utility.yul\":5697:5733   */\n      iszero\n      tag_274\n      jumpi\n        /* \"#utility.yul\":5713:5731   */\n      tag_275\n      tag_188\n      jump\t// in\n    tag_275:\n        /* \"#utility.yul\":5697:5733   */\n    tag_274:\n        /* \"#utility.yul\":5549:5740   */\n      swap3\n      swap2\n      pop\n      pop\n      jump\t// out\n        /* \"#utility.yul\":5746:5915   */\n    tag_190:\n        /* \"#utility.yul\":5830:5841   */\n      0x00\n        /* \"#utility.yul\":5864:5870   */\n      dup3\n        /* \"#utility.yul\":5859:5862   */\n      dup3\n        /* \"#utility.yul\":5852:5871   */\n      mstore\n        /* \"#utility.yul\":5904:5908   */\n      0x20\n        /* \"#utility.yul\":5899:5902   */\n      dup3\n        /* \"#utility.yul\":5895:5909   */\n      add\n        /* \"#utility.yul\":5880:5909   */\n      swap1\n      pop\n        /* \"#utility.yul\":5746:5915   */\n      swap3\n      swap2\n      pop\n      pop\n      jump\t// out\n        /* \"#utility.yul\":5921:6084   */\n    tag_191:\n        /* \"#utility.yul\":6061:6076   */\n      0x496e76616c696420696e70757400000000000000000000000000000000000000\n        /* \"#utility.yul\":6057:6058   */\n      0x00\n        /* \"#utility.yul\":6049:6055   */\n      dup3\n        /* \"#utility.yul\":6045:6059   */\n      add\n        /* \"#utility.yul\":6038:6077   */\n      mstore\n        /* \"#utility.yul\":5921:6084   */\n      pop\n      jump\t// out\n        /* \"#utility.yul\":6090:6456   */\n    tag_192:\n        /* \"#utility.yul\":6232:6235   */\n      0x00\n        /* \"#utility.yul\":6253:6320   */\n      tag_279\n        /* \"#utility.yul\":6317:6319   */\n      0x0d\n        /* \"#utility.yul\":6312:6315   */\n      dup4\n        /* \"#utility.yul\":6253:6320   */\n      tag_190\n      jump\t// in\n    tag_279:\n        /* \"#utility.yul\":6246:6320   */\n      swap2\n      pop\n        /* \"#utility.yul\":6329:6422   */\n      tag_280\n        /* \"#utility.yul\":6418:6421   */\n      dup3\n        /* \"#utility.yul\":6329:6422   */\n      tag_191\n      jump\t// in\n    tag_280:\n        /* \"#utility.yul\":6447:6449   */\n      0x20\n        /* \"#utility.yul\":6442:6445   */\n      dup3\n        /* \"#utility.yul\":6438:6450   */\n      add\n        /* \"#utility.yul\":6431:6450   */\n      swap1\n      pop\n        /* \"#utility.yul\":6090:6456   */\n      swap2\n      swap1\n      pop\n      jump\t// out\n        /* \"#utility.yul\":6462:6881   */\n    tag_73:\n        /* \"#utility.yul\":6628:6632   */\n      0x00\n        /* \"#utility.yul\":6666:6668   */\n      0x20\n        /* \"#utility.yul\":6655:6664   */\n      dup3\n        /* \"#utility.yul\":6651:6669   */\n      add\n        /* \"#utility.yul\":6643:6669   */\n      swap1\n      pop\n        /* \"#utility.yul\":6715:6724   */\n      dup2\n        /* \"#utility.yul\":6709:6713   */\n      dup2\n        /* \"#utility.yul\":6705:6725   */\n      sub\n        /* \"#utility.yul\":6701:6702   */\n      0x00\n        /* \"#utility.yul\":6690:6699   */\n      dup4\n        /* \"#utility.yul\":6686:6703   */\n      add\n        /* \"#utility.yul\":6679:6726   */\n      mstore\n        /* \"#utility.yul\":6743:6874   */\n      tag_282\n        /* \"#utility.yul\":6869:6873   */\n      dup2\n        /* \"#utility.yul\":6743:6874   */\n      tag_192\n      jump\t// in\n    tag_282:\n        /* \"#utility.yul\":6735:6874   */\n      swap1\n      pop\n        /* \"#utility.yul\":6462:6881   */\n      swap2\n      swap1\n      pop\n      jump\t// out\n        /* \"#utility.yul\":6887:7005   */\n    tag_193:\n        /* \"#utility.yul\":6974:6998   */\n      tag_284\n        /* \"#utility.yul\":6992:6997   */\n      dup2\n        /* \"#utility.yul\":6974:6998   */\n      tag_185\n      jump\t// in\n    tag_284:\n        /* \"#utility.yul\":6969:6972   */\n      dup3\n        /* \"#utility.yul\":6962:6999   */\n      mstore\n        /* \"#utility.yul\":6887:7005   */\n      pop\n      pop\n      jump\t// out\n        /* \"#utility.yul\":7011:7453   */\n    tag_75:\n        /* \"#utility.yul\":7160:7164   */\n      0x00\n        /* \"#utility.yul\":7198:7200   */\n      0x60\n        /* \"#utility.yul\":7187:7196   */\n      dup3\n        /* \"#utility.yul\":7183:7201   */\n      add\n        /* \"#utility.yul\":7175:7201   */\n      swap1\n      pop\n        /* \"#utility.yul\":7211:7282   */\n      tag_286\n        /* \"#utility.yul\":7279:7280   */\n      0x00\n        /* \"#utility.yul\":7268:7277   */\n      dup4\n        /* \"#utility.yul\":7264:7281   */\n      add\n        /* \"#utility.yul\":7255:7261   */\n      dup7\n        /* \"#utility.yul\":7211:7282   */\n      tag_193\n      jump\t// in\n    tag_286:\n        /* \"#utility.yul\":7292:7364   */\n      tag_287\n        /* \"#utility.yul\":7360:7362   */\n      0x20\n        /* \"#utility.yul\":7349:7358   */\n      dup4\n        /* \"#utility.yul\":7345:7363   */\n      add\n        /* \"#utility.yul\":7336:7342   */\n      dup6\n        /* \"#utility.yul\":7292:7364   */\n      tag_193\n      jump\t// in\n    tag_287:\n        /* \"#utility.yul\":7374:7446   */\n      tag_288\n        /* \"#utility.yul\":7442:7444   */\n      0x40\n        /* \"#utility.yul\":7431:7440   */\n      dup4\n        /* \"#utility.yul\":7427:7445   */\n      add\n        /* \"#utility.yul\":7418:7424   */\n      dup5\n        /* \"#utility.yul\":7374:7446   */\n      tag_178\n      jump\t// in\n    tag_288:\n        /* \"#utility.yul\":7011:7453   */\n      swap5\n      swap4\n      pop\n      pop\n      pop\n      pop\n      jump\t// out\n        /* \"#utility.yul\":7459:7549   */\n    tag_194:\n        /* \"#utility.yul\":7493:7500   */\n      0x00\n        /* \"#utility.yul\":7536:7541   */\n      dup2\n        /* \"#utility.yul\":7529:7542   */\n      iszero\n        /* \"#utility.yul\":7522:7543   */\n      iszero\n        /* \"#utility.yul\":7511:7543   */\n      swap1\n      pop\n        /* \"#utility.yul\":7459:7549   */\n      swap2\n      swap1\n      pop\n      jump\t// out\n        /* \"#utility.yul\":7555:7671   */\n    tag_195:\n        /* \"#utility.yul\":7625:7646   */\n      tag_291\n        /* \"#utility.yul\":7640:7645   */\n      dup2\n        /* \"#utility.yul\":7625:7646   */\n      tag_194\n      jump\t// in\n    tag_291:\n        /* \"#utility.yul\":7618:7623   */\n      dup2\n        /* \"#utility.yul\":7615:7647   */\n      eq\n        /* \"#utility.yul\":7605:7665   */\n      tag_292\n      jumpi\n        /* \"#utility.yul\":7661:7662   */\n      0x00\n        /* \"#utility.yul\":7658:7659   */\n      0x00\n        /* \"#utility.yul\":7651:7663   */\n      revert\n        /* \"#utility.yul\":7605:7665   */\n    tag_292:\n        /* \"#utility.yul\":7555:7671   */\n      pop\n      jump\t// out\n        /* \"#utility.yul\":7677:7814   */\n    tag_196:\n        /* \"#utility.yul\":7731:7736   */\n      0x00\n        /* \"#utility.yul\":7762:7768   */\n      dup2\n        /* \"#utility.yul\":7756:7769   */\n      mload\n        /* \"#utility.yul\":7747:7769   */\n      swap1\n      pop\n        /* \"#utility.yul\":7778:7808   */\n      tag_294\n        /* \"#utility.yul\":7802:7807   */\n      dup2\n        /* \"#utility.yul\":7778:7808   */\n      tag_195\n      jump\t// in\n    tag_294:\n        /* \"#utility.yul\":7677:7814   */\n      swap3\n      swap2\n      pop\n      pop\n      jump\t// out\n        /* \"#utility.yul\":7820:8165   */\n    tag_79:\n        /* \"#utility.yul\":7887:7893   */\n      0x00\n        /* \"#utility.yul\":7936:7938   */\n      0x20\n        /* \"#utility.yul\":7924:7933   */\n      dup3\n        /* \"#utility.yul\":7915:7922   */\n      dup5\n        /* \"#utility.yul\":7911:7934   */\n      sub\n        /* \"#utility.yul\":7907:7939   */\n      slt\n        /* \"#utility.yul\":7904:8023   */\n      iszero\n      tag_296\n      jumpi\n        /* \"#utility.yul\":7942:8021   */\n      tag_297\n      tag_173\n      jump\t// in\n    tag_297:\n        /* \"#utility.yul\":7904:8023   */\n    tag_296:\n        /* \"#utility.yul\":8062:8063   */\n      0x00\n        /* \"#utility.yul\":8087:8148   */\n      tag_298\n        /* \"#utility.yul\":8140:8147   */\n      dup5\n        /* \"#utility.yul\":8131:8137   */\n      dup3\n        /* \"#utility.yul\":8120:8129   */\n      dup6\n        /* \"#utility.yul\":8116:8138   */\n      add\n        /* \"#utility.yul\":8087:8148   */\n      tag_196\n      jump\t// in\n    tag_298:\n        /* \"#utility.yul\":8077:8148   */\n      swap2\n      pop\n        /* \"#utility.yul\":8033:8158   */\n      pop\n        /* \"#utility.yul\":7820:8165   */\n      swap3\n      swap2\n      pop\n      pop\n      jump\t// out\n        /* \"#utility.yul\":8171:8365   */\n    tag_83:\n        /* \"#utility.yul\":8211:8215   */\n      0x00\n        /* \"#utility.yul\":8231:8251   */\n      tag_300\n        /* \"#utility.yul\":8249:8250   */\n      dup3\n        /* \"#utility.yul\":8231:8251   */\n      tag_175\n      jump\t// in\n    tag_300:\n        /* \"#utility.yul\":8226:8251   */\n      swap2\n      pop\n        /* \"#utility.yul\":8265:8285   */\n      tag_301\n        /* \"#utility.yul\":8283:8284   */\n      dup4\n        /* \"#utility.yul\":8265:8285   */\n      tag_175\n      jump\t// in\n    tag_301:\n        /* \"#utility.yul\":8260:8285   */\n      swap3\n      pop\n        /* \"#utility.yul\":8309:8310   */\n      dup3\n        /* \"#utility.yul\":8306:8307   */\n      dup3\n        /* \"#utility.yul\":8302:8311   */\n      sub\n        /* \"#utility.yul\":8294:8311   */\n      swap1\n      pop\n        /* \"#utility.yul\":8333:8334   */\n      dup2\n        /* \"#utility.yul\":8327:8331   */\n      dup2\n        /* \"#utility.yul\":8324:8335   */\n      gt\n        /* \"#utility.yul\":8321:8358   */\n      iszero\n      tag_302\n      jumpi\n        /* \"#utility.yul\":8338:8356   */\n      tag_303\n      tag_188\n      jump\t// in\n    tag_303:\n        /* \"#utility.yul\":8321:8358   */\n    tag_302:\n        /* \"#utility.yul\":8171:8365   */\n      swap3\n      swap2\n      pop\n      pop\n      jump\t// out\n        /* \"#utility.yul\":8371:8703   */\n    tag_85:\n        /* \"#utility.yul\":8492:8496   */\n      0x00\n        /* \"#utility.yul\":8530:8532   */\n      0x40\n        /* \"#utility.yul\":8519:8528   */\n      dup3\n        /* \"#utility.yul\":8515:8533   */\n      add\n        /* \"#utility.yul\":8507:8533   */\n      swap1\n      pop\n        /* \"#utility.yul\":8543:8614   */\n      tag_305\n        /* \"#utility.yul\":8611:8612   */\n      0x00\n        /* \"#utility.yul\":8600:8609   */\n      dup4\n        /* \"#utility.yul\":8596:8613   */\n      add\n        /* \"#utility.yul\":8587:8593   */\n      dup6\n        /* \"#utility.yul\":8543:8614   */\n      tag_193\n      jump\t// in\n    tag_305:\n        /* \"#utility.yul\":8624:8696   */\n      tag_306\n        /* \"#utility.yul\":8692:8694   */\n      0x20\n        /* \"#utility.yul\":8681:8690   */\n      dup4\n        /* \"#utility.yul\":8677:8695   */\n      add\n        /* \"#utility.yul\":8668:8674   */\n      dup5\n        /* \"#utility.yul\":8624:8696   */\n      tag_178\n      jump\t// in\n    tag_306:\n        /* \"#utility.yul\":8371:8703   */\n      swap4\n      swap3\n      pop\n      pop\n      pop\n      jump\t// out\n        /* \"#utility.yul\":8709:9151   */\n    tag_90:\n        /* \"#utility.yul\":8858:8862   */\n      0x00\n        /* \"#utility.yul\":8896:8898   */\n      0x60\n        /* \"#utility.yul\":8885:8894   */\n      dup3\n        /* \"#utility.yul\":8881:8899   */\n      add\n        /* \"#utility.yul\":8873:8899   */\n      swap1\n      pop\n        /* \"#utility.yul\":8909:8980   */\n      tag_308\n        /* \"#utility.yul\":8977:8978   */\n      0x00\n        /* \"#utility.yul\":8966:8975   */\n      dup4\n        /* \"#utility.yul\":8962:8979   */\n      add\n        /* \"#utility.yul\":8953:8959   */\n      dup7\n        /* \"#utility.yul\":8909:8980   */\n      tag_193\n      jump\t// in\n    tag_308:\n        /* \"#utility.yul\":8990:9062   */\n      tag_309\n        /* \"#utility.yul\":9058:9060   */\n      0x20\n        /* \"#utility.yul\":9047:9056   */\n      dup4\n        /* \"#utility.yul\":9043:9061   */\n      add\n        /* \"#utility.yul\":9034:9040   */\n      dup6\n        /* \"#utility.yul\":8990:9062   */\n      tag_178\n      jump\t// in\n    tag_309:\n        /* \"#utility.yul\":9072:9144   */\n      tag_310\n        /* \"#utility.yul\":9140:9142   */\n      0x40\n        /* \"#utility.yul\":9129:9138   */\n      dup4\n        /* \"#utility.yul\":9125:9143   */\n      add\n        /* \"#utility.yul\":9116:9122   */\n      dup5\n        /* \"#utility.yul\":9072:9144   */\n      tag_178\n      jump\t// in\n    tag_310:\n        /* \"#utility.yul\":8709:9151   */\n      swap5\n      swap4\n      pop\n      pop\n      pop\n      pop\n      jump\t// out\n        /* \"#utility.yul\":9157:9324   */\n    tag_197:\n        /* \"#utility.yul\":9297:9316   */\n      0x496e76616c6964204c5020616d6f756e74000000000000000000000000000000\n        /* \"#utility.yul\":9293:9294   */\n      0x00\n        /* \"#utility.yul\":9285:9291   */\n      dup3\n        /* \"#utility.yul\":9281:9295   */\n      add\n        /* \"#utility.yul\":9274:9317   */\n      mstore\n        /* \"#utility.yul\":9157:9324   */\n      pop\n      jump\t// out\n        /* \"#utility.yul\":9330:9696   */\n    tag_198:\n        /* \"#utility.yul\":9472:9475   */\n      0x00\n        /* \"#utility.yul\":9493:9560   */\n      tag_313\n        /* \"#utility.yul\":9557:9559   */\n      0x11\n        /* \"#utility.yul\":9552:9555   */\n      dup4\n        /* \"#utility.yul\":9493:9560   */\n      tag_190\n      jump\t// in\n    tag_313:\n        /* \"#utility.yul\":9486:9560   */\n      swap2\n      pop\n        /* \"#utility.yul\":9569:9662   */\n      tag_314\n        /* \"#utility.yul\":9658:9661   */\n      dup3\n        /* \"#utility.yul\":9569:9662   */\n      tag_197\n      jump\t// in\n    tag_314:\n        /* \"#utility.yul\":9687:9689   */\n      0x20\n        /* \"#utility.yul\":9682:9685   */\n      dup3\n        /* \"#utility.yul\":9678:9690   */\n      add\n        /* \"#utility.yul\":9671:9690   */\n      swap1\n      pop\n        /* \"#utility.yul\":9330:9696   */\n      swap2\n      swap1\n      pop\n      jump\t// out\n        /* \"#utility.yul\":9702:10121   */\n    tag_95:\n        /* \"#utility.yul\":9868:9872   */\n      0x00\n        /* \"#utility.yul\":9906:9908   */\n      0x20\n        /* \"#utility.yul\":9895:9904   */\n      dup3\n        /* \"#utility.yul\":9891:9909   */\n      add\n        /* \"#utility.yul\":9883:9909   */\n      swap1\n      pop\n        /* \"#utility.yul\":9955:9964   */\n      dup2\n        /* \"#utility.yul\":9949:9953   */\n      dup2\n        /* \"#utility.yul\":9945:9965   */\n      sub\n        /* \"#utility.yul\":9941:9942   */\n      0x00\n        /* \"#utility.yul\":9930:9939   */\n      dup4\n        /* \"#utility.yul\":9926:9943   */\n      add\n        /* \"#utility.yul\":9919:9966   */\n      mstore\n        /* \"#utility.yul\":9983:10114   */\n      tag_316\n        /* \"#utility.yul\":10109:10113   */\n      dup2\n        /* \"#utility.yul\":9983:10114   */\n      tag_198\n      jump\t// in\n    tag_316:\n        /* \"#utility.yul\":9975:10114   */\n      swap1\n      pop\n        /* \"#utility.yul\":9702:10121   */\n      swap2\n      swap1\n      pop\n      jump\t// out\n        /* \"#utility.yul\":10127:10569   */\n    tag_113:\n        /* \"#utility.yul\":10276:10280   */\n      0x00\n        /* \"#utility.yul\":10314:10316   */\n      0x60\n        /* \"#utility.yul\":10303:10312   */\n      dup3\n        /* \"#utility.yul\":10299:10317   */\n      add\n        /* \"#utility.yul\":10291:10317   */\n      swap1\n      pop\n        /* \"#utility.yul\":10327:10398   */\n      tag_318\n        /* \"#utility.yul\":10395:10396   */\n      0x00\n        /* \"#utility.yul\":10384:10393   */\n      dup4\n        /* \"#utility.yul\":10380:10397   */\n      add\n        /* \"#utility.yul\":10371:10377   */\n      dup7\n        /* \"#utility.yul\":10327:10398   */\n      tag_178\n      jump\t// in\n    tag_318:\n        /* \"#utility.yul\":10408:10480   */\n      tag_319\n        /* \"#utility.yul\":10476:10478   */\n      0x20\n        /* \"#utility.yul\":10465:10474   */\n      dup4\n        /* \"#utility.yul\":10461:10479   */\n      add\n        /* \"#utility.yul\":10452:10458   */\n      dup6\n        /* \"#utility.yul\":10408:10480   */\n      tag_178\n      jump\t// in\n    tag_319:\n        /* \"#utility.yul\":10490:10562   */\n      tag_320\n        /* \"#utility.yul\":10558:10560   */\n      0x40\n        /* \"#utility.yul\":10547:10556   */\n      dup4\n        /* \"#utility.yul\":10543:10561   */\n      add\n        /* \"#utility.yul\":10534:10540   */\n      dup5\n        /* \"#utility.yul\":10490:10562   */\n      tag_178\n      jump\t// in\n    tag_320:\n        /* \"#utility.yul\":10127:10569   */\n      swap5\n      swap4\n      pop\n      pop\n      pop\n      pop\n      jump\t// out\n        /* \"#utility.yul\":10575:10740   */\n    tag_199:\n        /* \"#utility.yul\":10715:10732   */\n      0x496e76616c696420616d6f756e74730000000000000000000000000000000000\n        /* \"#utility.yul\":10711:10712   */\n      0x00\n        /* \"#utility.yul\":10703:10709   */\n      dup3\n        /* \"#utility.yul\":10699:10713   */\n      add\n        /* \"#utility.yul\":10692:10733   */\n      mstore\n        /* \"#utility.yul\":10575:10740   */\n      pop\n      jump\t// out\n        /* \"#utility.yul\":10746:11112   */\n    tag_200:\n        /* \"#utility.yul\":10888:10891   */\n      0x00\n        /* \"#utility.yul\":10909:10976   */\n      tag_323\n        /* \"#utility.yul\":10973:10975   */\n      0x0f\n        /* \"#utility.yul\":10968:10971   */\n      dup4\n        /* \"#utility.yul\":10909:10976   */\n      tag_190\n      jump\t// in\n    tag_323:\n        /* \"#utility.yul\":10902:10976   */\n      swap2\n      pop\n        /* \"#utility.yul\":10985:11078   */\n      tag_324\n        /* \"#utility.yul\":11074:11077   */\n      dup3\n        /* \"#utility.yul\":10985:11078   */\n      tag_199\n      jump\t// in\n    tag_324:\n        /* \"#utility.yul\":11103:11105   */\n      0x20\n        /* \"#utility.yul\":11098:11101   */\n      dup3\n        /* \"#utility.yul\":11094:11106   */\n      add\n        /* \"#utility.yul\":11087:11106   */\n      swap1\n      pop\n        /* \"#utility.yul\":10746:11112   */\n      swap2\n      swap1\n      pop\n      jump\t// out\n        /* \"#utility.yul\":11118:11537   */\n    tag_118:\n        /* \"#utility.yul\":11284:11288   */\n      0x00\n        /* \"#utility.yul\":11322:11324   */\n      0x20\n        /* \"#utility.yul\":11311:11320   */\n      dup3\n        /* \"#utility.yul\":11307:11325   */\n      add\n        /* \"#utility.yul\":11299:11325   */\n      swap1\n      pop\n        /* \"#utility.yul\":11371:11380   */\n      dup2\n        /* \"#utility.yul\":11365:11369   */\n      dup2\n        /* \"#utility.yul\":11361:11381   */\n      sub\n        /* \"#utility.yul\":11357:11358   */\n      0x00\n        /* \"#utility.yul\":11346:11355   */\n      dup4\n        /* \"#utility.yul\":11342:11359   */\n      add\n        /* \"#utility.yul\":11335:11382   */\n      mstore\n        /* \"#utility.yul\":11399:11530   */\n      tag_326\n        /* \"#utility.yul\":11525:11529   */\n      dup2\n        /* \"#utility.yul\":11399:11530   */\n      tag_200\n      jump\t// in\n    tag_326:\n        /* \"#utility.yul\":11391:11530   */\n      swap1\n      pop\n        /* \"#utility.yul\":11118:11537   */\n      swap2\n      swap1\n      pop\n      jump\t// out\n\n    auxdata: 0xa264697066735822122002b02002c54d09354df32e72155986b12f33181f49ac3a6ae893f69127bbd2e164736f6c634300081e0033\n}\n",
				"bytecode": {
					"linkReferences": {},
					"object": "608060405234801561000f575f5ffd5b5060405161157438038061157483398181016040528101906100319190610115565b815f5f6101000a81548173ffffffffffffffffffffffffffffffffffffffff021916908373ffffffffffffffffffffffffffffffffffffffff1602179055508060015f6101000a81548173ffffffffffffffffffffffffffffffffffffffff021916908373ffffffffffffffffffffffffffffffffffffffff1602179055505050610153565b5f5ffd5b5f73ffffffffffffffffffffffffffffffffffffffff82169050919050565b5f6100e4826100bb565b9050919050565b6100f4816100da565b81146100fe575f5ffd5b50565b5f8151905061010f816100eb565b92915050565b5f5f6040838503121561012b5761012a6100b7565b5b5f61013885828601610101565b925050602061014985828601610101565b9150509250929050565b611414806101605f395ff3fe608060405234801561000f575f5ffd5b50600436106100a7575f3560e01c80639c8f9f231161006f5780639c8f9f23146101655780639cd441da14610196578063d1a86711146101c6578063dc5fa6c5146101e4578063e29e097414610202578063e4f1f70a14610232576100a7565b8063054d50d4146100ab5780630fc63d10146100db57806319e36f3b146100f95780635f64b55b146101175780638014a7aa14610135575b5f5ffd5b6100c560048036038101906100c09190610e2f565b610262565b6040516100d29190610e8e565b60405180910390f35b6100e36102b7565b6040516100f09190610f21565b60405180910390f35b6101016102db565b60405161010e9190610e8e565b60405180910390f35b61011f6102e1565b60405161012c9190610f21565b60405180910390f35b61014f600480360381019061014a9190610f3a565b610306565b60405161015c9190610e8e565b60405180910390f35b61017f600480360381019061017a9190610f3a565b61053d565b60405161018d929190610f65565b60405180910390f35b6101b060048036038101906101ab9190610f8c565b61082f565b6040516101bd9190610e8e565b60405180910390f35b6101ce610b12565b6040516101db9190610e8e565b60405180910390f35b6101ec610b18565b6040516101f99190610e8e565b60405180910390f35b61021c60048036038101906102179190611005565b610b1e565b6040516102299190610e8e565b60405180910390f35b61024c60048036038101906102479190610f3a565b610b33565b6040516102599190610e8e565b60405180910390f35b5f5f6103e86103e586610275919061105d565b61027f91906110cb565b90505f838261028e919061105d565b90505f828661029d91906110fb565b905080826102ab91906110cb565b93505050509392505050565b5f5f9054906101000a900473ffffffffffffffffffffffffffffffffffffffff1681565b60035481565b60015f9054906101000a900473ffffffffffffffffffffffffffffffffffffffff1681565b5f5f8211610349576040517f08c379a000000000000000000000000000000000000000000000000000000000815260040161034090611188565b60405180910390fd5b60015f9054906101000a900473ffffffffffffffffffffffffffffffffffffffff1673ffffffffffffffffffffffffffffffffffffffff166323b872dd3330856040518463ffffffff1660e01b81526004016103a7939291906111b5565b6020604051808303815f875af11580156103c3573d5f5f3e3d5ffd5b505050506040513d601f19601f820116820180604052508101906103e7919061121f565b506103f782600354600254610262565b90508160035f82825461040a91906110fb565b925050819055508060025f828254610422919061124a565b925050819055505f5f9054906101000a900473ffffffffffffffffffffffffffffffffffffffff1673ffffffffffffffffffffffffffffffffffffffff1663a9059cbb33836040518363ffffffff1660e01b815260040161048492919061127d565b6020604051808303815f875af11580156104a0573d5f5f3e3d5ffd5b505050506040513d601f19601f820116820180604052508101906104c4919061121f565b503373ffffffffffffffffffffffffffffffffffffffff167fa078c4190abe07940190effc1846be0ccf03ad6007bc9e93f9697d0b460befbb60015f9054906101000a900473ffffffffffffffffffffffffffffffffffffffff168484604051610530939291906112a4565b60405180910390a2919050565b5f5f5f8311801561058b57508260055f3373ffffffffffffffffffffffffffffffffffffffff1673ffffffffffffffffffffffffffffffffffffffff1681526020019081526020015f205410155b6105ca576040517f08c379a00000000000000000000000000000000000000000000000000000000081526004016105c190611323565b60405180910390fd5b600454600254846105db919061105d565b6105e591906110cb565b9150600454600354846105f8919061105d565b61060291906110cb565b90508260055f3373ffffffffffffffffffffffffffffffffffffffff1673ffffffffffffffffffffffffffffffffffffffff1681526020019081526020015f205f828254610650919061124a565b925050819055508260045f828254610668919061124a565b925050819055508160025f828254610680919061124a565b925050819055508060035f828254610698919061124a565b925050819055505f5f9054906101000a900473ffffffffffffffffffffffffffffffffffffffff1673ffffffffffffffffffffffffffffffffffffffff1663a9059cbb33846040518363ffffffff1660e01b81526004016106fa92919061127d565b6020604051808303815f875af1158015610716573d5f5f3e3d5ffd5b505050506040513d601f19601f8201168201806040525081019061073a919061121f565b5060015f9054906101000a900473ffffffffffffffffffffffffffffffffffffffff1673ffffffffffffffffffffffffffffffffffffffff1663a9059cbb33836040518363ffffffff1660e01b815260040161079792919061127d565b6020604051808303815f875af11580156107b3573d5f5f3e3d5ffd5b505050506040513d601f19601f820116820180604052508101906107d7919061121f565b503373ffffffffffffffffffffffffffffffffffffffff167f1dc8bb69df2b8e91fbdcbfcf93d951b3f0000f085a95fe3f7946d6161439245d83838660405161082293929190611341565b60405180910390a2915091565b5f5f8311801561083e57505f82115b61087d576040517f08c379a0000000000000000000000000000000000000000000000000000000008152600401610874906113c0565b60405180910390fd5b5f5f9054906101000a900473ffffffffffffffffffffffffffffffffffffffff1673ffffffffffffffffffffffffffffffffffffffff166323b872dd3330866040518463ffffffff1660e01b81526004016108da939291906111b5565b6020604051808303815f875af11580156108f6573d5f5f3e3d5ffd5b505050506040513d601f19601f8201168201806040525081019061091a919061121f565b5060015f9054906101000a900473ffffffffffffffffffffffffffffffffffffffff1673ffffffffffffffffffffffffffffffffffffffff166323b872dd3330856040518463ffffffff1660e01b8152600401610979939291906111b5565b6020604051808303815f875af1158015610995573d5f5f3e3d5ffd5b505050506040513d601f19601f820116820180604052508101906109b9919061121f565b505f600454036109de576109d782846109d2919061105d565b610d69565b9050610a1f565b610a1c600254600454856109f2919061105d565b6109fc91906110cb565b60035460045485610a0d919061105d565b610a1791906110cb565b610de0565b90505b8060055f3373ffffffffffffffffffffffffffffffffffffffff1673ffffffffffffffffffffffffffffffffffffffff1681526020019081526020015f205f828254610a6b91906110fb565b925050819055508060045f828254610a8391906110fb565b925050819055508260025f828254610a9b91906110fb565b925050819055508160035f828254610ab391906110fb565b925050819055503373ffffffffffffffffffffffffffffffffffffffff167f64b83944e79c3ce8d4c297411de637c3e102d064677aac0c163976ebdcd6f50e848484604051610b0493929190611341565b60405180910390a292915050565b60045481565b60025481565b6005602052805f5260405f205f915090505481565b5f5f8211610b76576040517f08c379a0000000000000000000000000000000000000000000000000000000008152600401610b6d90611188565b60405180910390fd5b5f5f9054906101000a900473ffffffffffffffffffffffffffffffffffffffff1673ffffffffffffffffffffffffffffffffffffffff166323b872dd3330856040518463ffffffff1660e01b8152600401610bd3939291906111b5565b6020604051808303815f875af1158015610bef573d5f5f3e3d5ffd5b505050506040513d601f19601f82011682018060405250810190610c13919061121f565b50610c2382600254600354610262565b90508160025f828254610c3691906110fb565b925050819055508060035f828254610c4e919061124a565b9250508190555060015f9054906101000a900473ffffffffffffffffffffffffffffffffffffffff1673ffffffffffffffffffffffffffffffffffffffff1663a9059cbb33836040518363ffffffff1660e01b8152600401610cb192919061127d565b6020604051808303815f875af1158015610ccd573d5f5f3e3d5ffd5b505050506040513d601f19601f82011682018060405250810190610cf1919061121f565b503373ffffffffffffffffffffffffffffffffffffffff167fa078c4190abe07940190effc1846be0ccf03ad6007bc9e93f9697d0b460befbb5f5f9054906101000a900473ffffffffffffffffffffffffffffffffffffffff168484604051610d5c939291906112a4565b60405180910390a2919050565b5f6003821115610dce578190505f6001600284610d8691906110cb565b610d9091906110fb565b90505b81811015610dc8578091506002818285610dad91906110cb565b610db791906110fb565b610dc191906110cb565b9050610d93565b50610ddb565b5f8214610dda57600190505b5b919050565b5f818310610dee5781610df0565b825b905092915050565b5f5ffd5b5f819050919050565b610e0e81610dfc565b8114610e18575f5ffd5b50565b5f81359050610e2981610e05565b92915050565b5f5f5f60608486031215610e4657610e45610df8565b5b5f610e5386828701610e1b565b9350506020610e6486828701610e1b565b9250506040610e7586828701610e1b565b9150509250925092565b610e8881610dfc565b82525050565b5f602082019050610ea15f830184610e7f565b92915050565b5f73ffffffffffffffffffffffffffffffffffffffff82169050919050565b5f819050919050565b5f610ee9610ee4610edf84610ea7565b610ec6565b610ea7565b9050919050565b5f610efa82610ecf565b9050919050565b5f610f0b82610ef0565b9050919050565b610f1b81610f01565b82525050565b5f602082019050610f345f830184610f12565b92915050565b5f60208284031215610f4f57610f4e610df8565b5b5f610f5c84828501610e1b565b91505092915050565b5f604082019050610f785f830185610e7f565b610f856020830184610e7f565b9392505050565b5f5f60408385031215610fa257610fa1610df8565b5b5f610faf85828601610e1b565b9250506020610fc085828601610e1b565b9150509250929050565b5f610fd482610ea7565b9050919050565b610fe481610fca565b8114610fee575f5ffd5b50565b5f81359050610fff81610fdb565b92915050565b5f6020828403121561101a57611019610df8565b5b5f61102784828501610ff1565b91505092915050565b7f4e487b71000000000000000000000000000000000000000000000000000000005f52601160045260245ffd5b5f61106782610dfc565b915061107283610dfc565b925082820261108081610dfc565b9150828204841483151761109757611096611030565b5b5092915050565b7f4e487b71000000000000000000000000000000000000000000000000000000005f52601260045260245ffd5b5f6110d582610dfc565b91506110e083610dfc565b9250826110f0576110ef61109e565b5b828204905092915050565b5f61110582610dfc565b915061111083610dfc565b925082820190508082111561112857611127611030565b5b92915050565b5f82825260208201905092915050565b7f496e76616c696420696e707574000000000000000000000000000000000000005f82015250565b5f611172600d8361112e565b915061117d8261113e565b602082019050919050565b5f6020820190508181035f83015261119f81611166565b9050919050565b6111af81610fca565b82525050565b5f6060820190506111c85f8301866111a6565b6111d560208301856111a6565b6111e26040830184610e7f565b949350505050565b5f8115159050919050565b6111fe816111ea565b8114611208575f5ffd5b50565b5f81519050611219816111f5565b92915050565b5f6020828403121561123457611233610df8565b5b5f6112418482850161120b565b91505092915050565b5f61125482610dfc565b915061125f83610dfc565b925082820390508181111561127757611276611030565b5b92915050565b5f6040820190506112905f8301856111a6565b61129d6020830184610e7f565b9392505050565b5f6060820190506112b75f8301866111a6565b6112c46020830185610e7f565b6112d16040830184610e7f565b949350505050565b7f496e76616c6964204c5020616d6f756e740000000000000000000000000000005f82015250565b5f61130d60118361112e565b9150611318826112d9565b602082019050919050565b5f6020820190508181035f83015261133a81611301565b9050919050565b5f6060820190506113545f830186610e7f565b6113616020830185610e7f565b61136e6040830184610e7f565b949350505050565b7f496e76616c696420616d6f756e747300000000000000000000000000000000005f82015250565b5f6113aa600f8361112e565b91506113b582611376565b602082019050919050565b5f6020820190508181035f8301526113d78161139e565b905091905056fea264697066735822122002b02002c54d09354df32e72155986b12f33181f49ac3a6ae893f69127bbd2e164736f6c634300081e0033",
					"opcodes": "PUSH1 0x80 PUSH1 0x40 MSTORE CALLVALUE DUP1 ISZERO PUSH2 0xF JUMPI PUSH0 PUSH0 REVERT JUMPDEST POP PUSH1 0x40 MLOAD PUSH2 0x1574 CODESIZE SUB DUP1 PUSH2 0x1574 DUP4 CODECOPY DUP2 DUP2 ADD PUSH1 0x40 MSTORE DUP2 ADD SWAP1 PUSH2 0x31 SWAP2 SWAP1 PUSH2 0x115 JUMP JUMPDEST DUP2 PUSH0 PUSH0 PUSH2 0x100 EXP DUP2 SLOAD DUP2 PUSH20 0xFFFFFFFFFFFFFFFFFFFFFFFFFFFFFFFFFFFFFFFF MUL NOT AND SWAP1 DUP4 PUSH20 0xFFFFFFFFFFFFFFFFFFFFFFFFFFFFFFFFFFFFFFFF AND MUL OR SWAP1 SSTORE POP DUP1 PUSH1 0x1 PUSH0 PUSH2 0x100 EXP DUP2 SLOAD DUP2 PUSH20 0xFFFFFFFFFFFFFFFFFFFFFFFFFFFFFFFFFFFFFFFF MUL NOT AND SWAP1 DUP4 PUSH20 0xFFFFFFFFFFFFFFFFFFFFFFFFFFFFFFFFFFFFFFFF AND MUL OR SWAP1 SSTORE POP POP POP PUSH2 0x153 JUMP JUMPDEST PUSH0 PUSH0 REVERT JUMPDEST PUSH0 PUSH20 0xFFFFFFFFFFFFFFFFFFFFFFFFFFFFFFFFFFFFFFFF DUP3 AND SWAP1 POP SWAP2 SWAP1 POP JUMP JUMPDEST PUSH0 PUSH2 0xE4 DUP3 PUSH2 0xBB JUMP JUMPDEST SWAP1 POP SWAP2 SWAP1 POP JUMP JUMPDEST PUSH2 0xF4 DUP2 PUSH2 0xDA JUMP JUMPDEST DUP2 EQ PUSH2 0xFE JUMPI PUSH0 PUSH0 REVERT JUMPDEST POP JUMP JUMPDEST PUSH0 DUP2 MLOAD SWAP1 POP PUSH2 0x10F DUP2 PUSH2 0xEB JUMP JUMPDEST SWAP3 SWAP2 POP POP JUMP JUMPDEST PUSH0 PUSH0 PUSH1 0x40 DUP4 DUP6 SUB SLT ISZERO PUSH2 0x12B JUMPI PUSH2 0x12A PUSH2 0xB7 JUMP JUMPDEST JUMPDEST PUSH0 PUSH2 0x138 DUP6 DUP3 DUP7 ADD PUSH2 0x101 JUMP JUMPDEST SWAP3 POP POP PUSH1 0x20 PUSH2 0x149 DUP6 DUP3 DUP7 ADD PUSH2 0x101 JUMP JUMPDEST SWAP2 POP POP SWAP3 POP SWAP3 SWAP1 POP JUMP JUMPDEST PUSH2 0x1414 DUP1 PUSH2 0x160 PUSH0 CODECOPY PUSH0 RETURN INVALID PUSH1 0x80 PUSH1 0x40 MSTORE CALLVALUE DUP1 ISZERO PUSH2 0xF JUMPI PUSH0 PUSH0 REVERT JUMPDEST POP PUSH1 0x4 CALLDATASIZE LT PUSH2 0xA7 JUMPI PUSH0 CALLDATALOAD PUSH1 0xE0 SHR DUP1 PUSH4 0x9C8F9F23 GT PUSH2 0x6F JUMPI DUP1 PUSH4 0x9C8F9F23 EQ PUSH2 0x165 JUMPI DUP1 PUSH4 0x9CD441DA EQ PUSH2 0x196 JUMPI DUP1 PUSH4 0xD1A86711 EQ PUSH2 0x1C6 JUMPI DUP1 PUSH4 0xDC5FA6C5 EQ PUSH2 0x1E4 JUMPI DUP1 PUSH4 0xE29E0974 EQ PUSH2 0x202 JUMPI DUP1 PUSH4 0xE4F1F70A EQ PUSH2 0x232 JUMPI PUSH2 0xA7 JUMP JUMPDEST DUP1 PUSH4 0x54D50D4 EQ PUSH2 0xAB JUMPI DUP1 PUSH4 0xFC63D10 EQ PUSH2 0xDB JUMPI DUP1 PUSH4 0x19E36F3B EQ PUSH2 0xF9 JUMPI DUP1 PUSH4 0x5F64B55B EQ PUSH2 0x117 JUMPI DUP1 PUSH4 0x8014A7AA EQ PUSH2 0x135 JUMPI JUMPDEST PUSH0 PUSH0 REVERT JUMPDEST PUSH2 0xC5 PUSH1 0x4 DUP1 CALLDATASIZE SUB DUP2 ADD SWAP1 PUSH2 0xC0 SWAP2 SWAP1 PUSH2 0xE2F JUMP JUMPDEST PUSH2 0x262 JUMP JUMPDEST PUSH1 0x40 MLOAD PUSH2 0xD2 SWAP2 SWAP1 PUSH2 0xE8E JUMP JUMPDEST PUSH1 0x40 MLOAD DUP1 SWAP2 SUB SWAP1 RETURN JUMPDEST PUSH2 0xE3 PUSH2 0x2B7 JUMP JUMPDEST PUSH1 0x40 MLOAD PUSH2 0xF0 SWAP2 SWAP1 PUSH2 0xF21 JUMP JUMPDEST PUSH1 0x40 MLOAD DUP1 SWAP2 SUB SWAP1 RETURN JUMPDEST PUSH2 0x101 PUSH2 0x2DB JUMP JUMPDEST PUSH1 0x40 MLOAD PUSH2 0x10E SWAP2 SWAP1 PUSH2 0xE8E JUMP JUMPDEST PUSH1 0x40 MLOAD DUP1 SWAP2 SUB SWAP1 RETURN JUMPDEST PUSH2 0x11F PUSH2 0x2E1 JUMP JUMPDEST PUSH1 0x40 MLOAD PUSH2 0x12C SWAP2 SWAP1 PUSH2 0xF21 JUMP JUMPDEST PUSH1 0x40 MLOAD DUP1 SWAP2 SUB SWAP1 RETURN JUMPDEST PUSH2 0x14F PUSH1 0x4 DUP1 CALLDATASIZE SUB DUP2 ADD SWAP1 PUSH2 0x14A SWAP2 SWAP1 PUSH2 0xF3A JUMP JUMPDEST PUSH2 0x306 JUMP JUMPDEST PUSH1 0x40 MLOAD PUSH2 0x15C SWAP2 SWAP1 PUSH2 0xE8E JUMP JUMPDEST PUSH1 0x40 MLOAD DUP1 SWAP2 SUB SWAP1 RETURN JUMPDEST PUSH2 0x17F PUSH1 0x4 DUP1 CALLDATASIZE SUB DUP2 ADD SWAP1 PUSH2 0x17A SWAP2 SWAP1 PUSH2 0xF3A JUMP JUMPDEST PUSH2 0x53D JUMP JUMPDEST PUSH1 0x40 MLOAD PUSH2 0x18D SWAP3 SWAP2 SWAP1 PUSH2 0xF65 JUMP JUMPDEST PUSH1 0x40 MLOAD DUP1 SWAP2 SUB SWAP1 RETURN JUMPDEST PUSH2 0x1B0 PUSH1 0x4 DUP1 CALLDATASIZE SUB DUP2 ADD SWAP1 PUSH2 0x1AB SWAP2 SWAP1 PUSH2 0xF8C JUMP JUMPDEST PUSH2 0x82F JUMP JUMPDEST PUSH1 0x40 MLOAD PUSH2 0x1BD SWAP2 SWAP1 PUSH2 0xE8E JUMP JUMPDEST PUSH1 0x40 MLOAD DUP1 SWAP2 SUB SWAP1 RETURN JUMPDEST PUSH2 0x1CE PUSH2 0xB12 JUMP JUMPDEST PUSH1 0x40 MLOAD PUSH2 0x1DB SWAP2 SWAP1 PUSH2 0xE8E JUMP JUMPDEST PUSH1 0x40 MLOAD DUP1 SWAP2 SUB SWAP1 RETURN JUMPDEST PUSH2 0x1EC PUSH2 0xB18 JUMP JUMPDEST PUSH1 0x40 MLOAD PUSH2 0x1F9 SWAP2 SWAP1 PUSH2 0xE8E JUMP JUMPDEST PUSH1 0x40 MLOAD DUP1 SWAP2 SUB SWAP1 RETURN JUMPDEST PUSH2 0x21C PUSH1 0x4 DUP1 CALLDATASIZE SUB DUP2 ADD SWAP1 PUSH2 0x217 SWAP2 SWAP1 PUSH2 0x1005 JUMP JUMPDEST PUSH2 0xB1E JUMP JUMPDEST PUSH1 0x40 MLOAD PUSH2 0x229 SWAP2 SWAP1 PUSH2 0xE8E JUMP JUMPDEST PUSH1 0x40 MLOAD DUP1 SWAP2 SUB SWAP1 RETURN JUMPDEST PUSH2 0x24C PUSH1 0x4 DUP1 CALLDATASIZE SUB DUP2 ADD SWAP1 PUSH2 0x247 SWAP2 SWAP1 PUSH2 0xF3A JUMP JUMPDEST PUSH2 0xB33 JUMP JUMPDEST PUSH1 0x40 MLOAD PUSH2 0x259 SWAP2 SWAP1 PUSH2 0xE8E JUMP JUMPDEST PUSH1 0x40 MLOAD DUP1 SWAP2 SUB SWAP1 RETURN JUMPDEST PUSH0 PUSH0 PUSH2 0x3E8 PUSH2 0x3E5 DUP7 PUSH2 0x275 SWAP2 SWAP1 PUSH2 0x105D JUMP JUMPDEST PUSH2 0x27F SWAP2 SWAP1 PUSH2 0x10CB JUMP JUMPDEST SWAP1 POP PUSH0 DUP4 DUP3 PUSH2 0x28E SWAP2 SWAP1 PUSH2 0x105D JUMP JUMPDEST SWAP1 POP PUSH0 DUP3 DUP7 PUSH2 0x29D SWAP2 SWAP1 PUSH2 0x10FB JUMP JUMPDEST SWAP1 POP DUP1 DUP3 PUSH2 0x2AB SWAP2 SWAP1 PUSH2 0x10CB JUMP JUMPDEST SWAP4 POP POP POP POP SWAP4 SWAP3 POP POP POP JUMP JUMPDEST PUSH0 PUSH0 SWAP1 SLOAD SWAP1 PUSH2 0x100 EXP SWAP1 DIV PUSH20 0xFFFFFFFFFFFFFFFFFFFFFFFFFFFFFFFFFFFFFFFF AND DUP2 JUMP JUMPDEST PUSH1 0x3 SLOAD DUP2 JUMP JUMPDEST PUSH1 0x1 PUSH0 SWAP1 SLOAD SWAP1 PUSH2 0x100 EXP SWAP1 DIV PUSH20 0xFFFFFFFFFFFFFFFFFFFFFFFFFFFFFFFFFFFFFFFF AND DUP2 JUMP JUMPDEST PUSH0 PUSH0 DUP3 GT PUSH2 0x349 JUMPI PUSH1 0x40 MLOAD PUSH32 0x8C379A000000000000000000000000000000000000000000000000000000000 DUP2 MSTORE PUSH1 0x4 ADD PUSH2 0x340 SWAP1 PUSH2 0x1188 JUMP JUMPDEST PUSH1 0x40 MLOAD DUP1 SWAP2 SUB SWAP1 REVERT JUMPDEST PUSH1 0x1 PUSH0 SWAP1 SLOAD SWAP1 PUSH2 0x100 EXP SWAP1 DIV PUSH20 0xFFFFFFFFFFFFFFFFFFFFFFFFFFFFFFFFFFFFFFFF AND PUSH20 0xFFFFFFFFFFFFFFFFFFFFFFFFFFFFFFFFFFFFFFFF AND PUSH4 0x23B872DD CALLER ADDRESS DUP6 PUSH1 0x40 MLOAD DUP5 PUSH4 0xFFFFFFFF AND PUSH1 0xE0 SHL DUP2 MSTORE PUSH1 0x4 ADD PUSH2 0x3A7 SWAP4 SWAP3 SWAP2 SWAP1 PUSH2 0x11B5 JUMP JUMPDEST PUSH1 0x20 PUSH1 0x40 MLOAD DUP1 DUP4 SUB DUP2 PUSH0 DUP8 GAS CALL ISZERO DUP1 ISZERO PUSH2 0x3C3 JUMPI RETURNDATASIZE PUSH0 PUSH0 RETURNDATACOPY RETURNDATASIZE PUSH0 REVERT JUMPDEST POP POP POP POP PUSH1 0x40 MLOAD RETURNDATASIZE PUSH1 0x1F NOT PUSH1 0x1F DUP3 ADD AND DUP3 ADD DUP1 PUSH1 0x40 MSTORE POP DUP2 ADD SWAP1 PUSH2 0x3E7 SWAP2 SWAP1 PUSH2 0x121F JUMP JUMPDEST POP PUSH2 0x3F7 DUP3 PUSH1 0x3 SLOAD PUSH1 0x2 SLOAD PUSH2 0x262 JUMP JUMPDEST SWAP1 POP DUP2 PUSH1 0x3 PUSH0 DUP3 DUP3 SLOAD PUSH2 0x40A SWAP2 SWAP1 PUSH2 0x10FB JUMP JUMPDEST SWAP3 POP POP DUP2 SWAP1 SSTORE POP DUP1 PUSH1 0x2 PUSH0 DUP3 DUP3 SLOAD PUSH2 0x422 SWAP2 SWAP1 PUSH2 0x124A JUMP JUMPDEST SWAP3 POP POP DUP2 SWAP1 SSTORE POP PUSH0 PUSH0 SWAP1 SLOAD SWAP1 PUSH2 0x100 EXP SWAP1 DIV PUSH20 0xFFFFFFFFFFFFFFFFFFFFFFFFFFFFFFFFFFFFFFFF AND PUSH20 0xFFFFFFFFFFFFFFFFFFFFFFFFFFFFFFFFFFFFFFFF AND PUSH4 0xA9059CBB CALLER DUP4 PUSH1 0x40 MLOAD DUP4 PUSH4 0xFFFFFFFF AND PUSH1 0xE0 SHL DUP2 MSTORE PUSH1 0x4 ADD PUSH2 0x484 SWAP3 SWAP2 SWAP1 PUSH2 0x127D JUMP JUMPDEST PUSH1 0x20 PUSH1 0x40 MLOAD DUP1 DUP4 SUB DUP2 PUSH0 DUP8 GAS CALL ISZERO DUP1 ISZERO PUSH2 0x4A0 JUMPI RETURNDATASIZE PUSH0 PUSH0 RETURNDATACOPY RETURNDATASIZE PUSH0 REVERT JUMPDEST POP POP POP POP PUSH1 0x40 MLOAD RETURNDATASIZE PUSH1 0x1F NOT PUSH1 0x1F DUP3 ADD AND DUP3 ADD DUP1 PUSH1 0x40 MSTORE POP DUP2 ADD SWAP1 PUSH2 0x4C4 SWAP2 SWAP1 PUSH2 0x121F JUMP JUMPDEST POP CALLER PUSH20 0xFFFFFFFFFFFFFFFFFFFFFFFFFFFFFFFFFFFFFFFF AND PUSH32 0xA078C4190ABE07940190EFFC1846BE0CCF03AD6007BC9E93F9697D0B460BEFBB PUSH1 0x1 PUSH0 SWAP1 SLOAD SWAP1 PUSH2 0x100 EXP SWAP1 DIV PUSH20 0xFFFFFFFFFFFFFFFFFFFFFFFFFFFFFFFFFFFFFFFF AND DUP5 DUP5 PUSH1 0x40 MLOAD PUSH2 0x530 SWAP4 SWAP3 SWAP2 SWAP1 PUSH2 0x12A4 JUMP JUMPDEST PUSH1 0x40 MLOAD DUP1 SWAP2 SUB SWAP1 LOG2 SWAP2 SWAP1 POP JUMP JUMPDEST PUSH0 PUSH0 PUSH0 DUP4 GT DUP1 ISZERO PUSH2 0x58B JUMPI POP DUP3 PUSH1 0x5 PUSH0 CALLER PUSH20 0xFFFFFFFFFFFFFFFFFFFFFFFFFFFFFFFFFFFFFFFF AND PUSH20 0xFFFFFFFFFFFFFFFFFFFFFFFFFFFFFFFFFFFFFFFF AND DUP2 MSTORE PUSH1 0x20 ADD SWAP1 DUP2 MSTORE PUSH1 0x20 ADD PUSH0 KECCAK256 SLOAD LT ISZERO JUMPDEST PUSH2 0x5CA JUMPI PUSH1 0x40 MLOAD PUSH32 0x8C379A000000000000000000000000000000000000000000000000000000000 DUP2 MSTORE PUSH1 0x4 ADD PUSH2 0x5C1 SWAP1 PUSH2 0x1323 JUMP JUMPDEST PUSH1 0x40 MLOAD DUP1 SWAP2 SUB SWAP1 REVERT JUMPDEST PUSH1 0x4 SLOAD PUSH1 0x2 SLOAD DUP5 PUSH2 0x5DB SWAP2 SWAP1 PUSH2 0x105D JUMP JUMPDEST PUSH2 0x5E5 SWAP2 SWAP1 PUSH2 0x10CB JUMP JUMPDEST SWAP2 POP PUSH1 0x4 SLOAD PUSH1 0x3 SLOAD DUP5 PUSH2 0x5F8 SWAP2 SWAP1 PUSH2 0x105D JUMP JUMPDEST PUSH2 0x602 SWAP2 SWAP1 PUSH2 0x10CB JUMP JUMPDEST SWAP1 POP DUP3 PUSH1 0x5 PUSH0 CALLER PUSH20 0xFFFFFFFFFFFFFFFFFFFFFFFFFFFFFFFFFFFFFFFF AND PUSH20 0xFFFFFFFFFFFFFFFFFFFFFFFFFFFFFFFFFFFFFFFF AND DUP2 MSTORE PUSH1 0x20 ADD SWAP1 DUP2 MSTORE PUSH1 0x20 ADD PUSH0 KECCAK256 PUSH0 DUP3 DUP3 SLOAD PUSH2 0x650 SWAP2 SWAP1 PUSH2 0x124A JUMP JUMPDEST SWAP3 POP POP DUP2 SWAP1 SSTORE POP DUP3 PUSH1 0x4 PUSH0 DUP3 DUP3 SLOAD PUSH2 0x668 SWAP2 SWAP1 PUSH2 0x124A JUMP JUMPDEST SWAP3 POP POP DUP2 SWAP1 SSTORE POP DUP2 PUSH1 0x2 PUSH0 DUP3 DUP3 SLOAD PUSH2 0x680 SWAP2 SWAP1 PUSH2 0x124A JUMP JUMPDEST SWAP3 POP POP DUP2 SWAP1 SSTORE POP DUP1 PUSH1 0x3 PUSH0 DUP3 DUP3 SLOAD PUSH2 0x698 SWAP2 SWAP1 PUSH2 0x124A JUMP JUMPDEST SWAP3 POP POP DUP2 SWAP1 SSTORE POP PUSH0 PUSH0 SWAP1 SLOAD SWAP1 PUSH2 0x100 EXP SWAP1 DIV PUSH20 0xFFFFFFFFFFFFFFFFFFFFFFFFFFFFFFFFFFFFFFFF AND PUSH20 0xFFFFFFFFFFFFFFFFFFFFFFFFFFFFFFFFFFFFFFFF AND PUSH4 0xA9059CBB CALLER DUP5 PUSH1 0x40 MLOAD DUP4 PUSH4 0xFFFFFFFF AND PUSH1 0xE0 SHL DUP2 MSTORE PUSH1 0x4 ADD PUSH2 0x6FA SWAP3 SWAP2 SWAP1 PUSH2 0x127D JUMP JUMPDEST PUSH1 0x20 PUSH1 0x40 MLOAD DUP1 DUP4 SUB DUP2 PUSH0 DUP8 GAS CALL ISZERO DUP1 ISZERO PUSH2 0x716 JUMPI RETURNDATASIZE PUSH0 PUSH0 RETURNDATACOPY RETURNDATASIZE PUSH0 REVERT JUMPDEST POP POP POP POP PUSH1 0x40 MLOAD RETURNDATASIZE PUSH1 0x1F NOT PUSH1 0x1F DUP3 ADD AND DUP3 ADD DUP1 PUSH1 0x40 MSTORE POP DUP2 ADD SWAP1 PUSH2 0x73A SWAP2 SWAP1 PUSH2 0x121F JUMP JUMPDEST POP PUSH1 0x1 PUSH0 SWAP1 SLOAD SWAP1 PUSH2 0x100 EXP SWAP1 DIV PUSH20 0xFFFFFFFFFFFFFFFFFFFFFFFFFFFFFFFFFFFFFFFF AND PUSH20 0xFFFFFFFFFFFFFFFFFFFFFFFFFFFFFFFFFFFFFFFF AND PUSH4 0xA9059CBB CALLER DUP4 PUSH1 0x40 MLOAD DUP4 PUSH4 0xFFFFFFFF AND PUSH1 0xE0 SHL DUP2 MSTORE PUSH1 0x4 ADD PUSH2 0x797 SWAP3 SWAP2 SWAP1 PUSH2 0x127D JUMP JUMPDEST PUSH1 0x20 PUSH1 0x40 MLOAD DUP1 DUP4 SUB DUP2 PUSH0 DUP8 GAS CALL ISZERO DUP1 ISZERO PUSH2 0x7B3 JUMPI RETURNDATASIZE PUSH0 PUSH0 RETURNDATACOPY RETURNDATASIZE PUSH0 REVERT JUMPDEST POP POP POP POP PUSH1 0x40 MLOAD RETURNDATASIZE PUSH1 0x1F NOT PUSH1 0x1F DUP3 ADD AND DUP3 ADD DUP1 PUSH1 0x40 MSTORE POP DUP2 ADD SWAP1 PUSH2 0x7D7 SWAP2 SWAP1 PUSH2 0x121F JUMP JUMPDEST POP CALLER PUSH20 0xFFFFFFFFFFFFFFFFFFFFFFFFFFFFFFFFFFFFFFFF AND PUSH32 0x1DC8BB69DF2B8E91FBDCBFCF93D951B3F0000F085A95FE3F7946D6161439245D DUP4 DUP4 DUP7 PUSH1 0x40 MLOAD PUSH2 0x822 SWAP4 SWAP3 SWAP2 SWAP1 PUSH2 0x1341 JUMP JUMPDEST PUSH1 0x40 MLOAD DUP1 SWAP2 SUB SWAP1 LOG2 SWAP2 POP SWAP2 JUMP JUMPDEST PUSH0 PUSH0 DUP4 GT DUP1 ISZERO PUSH2 0x83E JUMPI POP PUSH0 DUP3 GT JUMPDEST PUSH2 0x87D JUMPI PUSH1 0x40 MLOAD PUSH32 0x8C379A000000000000000000000000000000000000000000000000000000000 DUP2 MSTORE PUSH1 0x4 ADD PUSH2 0x874 SWAP1 PUSH2 0x13C0 JUMP JUMPDEST PUSH1 0x40 MLOAD DUP1 SWAP2 SUB SWAP1 REVERT JUMPDEST PUSH0 PUSH0 SWAP1 SLOAD SWAP1 PUSH2 0x100 EXP SWAP1 DIV PUSH20 0xFFFFFFFFFFFFFFFFFFFFFFFFFFFFFFFFFFFFFFFF AND PUSH20 0xFFFFFFFFFFFFFFFFFFFFFFFFFFFFFFFFFFFFFFFF AND PUSH4 0x23B872DD CALLER ADDRESS DUP7 PUSH1 0x40 MLOAD DUP5 PUSH4 0xFFFFFFFF AND PUSH1 0xE0 SHL DUP2 MSTORE PUSH1 0x4 ADD PUSH2 0x8DA SWAP4 SWAP3 SWAP2 SWAP1 PUSH2 0x11B5 JUMP JUMPDEST PUSH1 0x20 PUSH1 0x40 MLOAD DUP1 DUP4 SUB DUP2 PUSH0 DUP8 GAS CALL ISZERO DUP1 ISZERO PUSH2 0x8F6 JUMPI RETURNDATASIZE PUSH0 PUSH0 RETURNDATACOPY RETURNDATASIZE PUSH0 REVERT JUMPDEST POP POP POP POP PUSH1 0x40 MLOAD RETURNDATASIZE PUSH1 0x1F NOT PUSH1 0x1F DUP3 ADD AND DUP3 ADD DUP1 PUSH1 0x40 MSTORE POP DUP2 ADD SWAP1 PUSH2 0x91A SWAP2 SWAP1 PUSH2 0x121F JUMP JUMPDEST POP PUSH1 0x1 PUSH0 SWAP1 SLOAD SWAP1 PUSH2 0x100 EXP SWAP1 DIV PUSH20 0xFFFFFFFFFFFFFFFFFFFFFFFFFFFFFFFFFFFFFFFF AND PUSH20 0xFFFFFFFFFFFFFFFFFFFFFFFFFFFFFFFFFFFFFFFF AND PUSH4 0x23B872DD CALLER ADDRESS DUP6 PUSH1 0x40 MLOAD DUP5 PUSH4 0xFFFFFFFF AND PUSH1 0xE0 SHL DUP2 MSTORE PUSH1 0x4 ADD PUSH2 0x979 SWAP4 SWAP3 SWAP2 SWAP1 PUSH2 0x11B5 JUMP JUMPDEST PUSH1 0x20 PUSH1 0x40 MLOAD DUP1 DUP4 SUB DUP2 PUSH0 DUP8 GAS CALL ISZERO DUP1 ISZERO PUSH2 0x995 JUMPI RETURNDATASIZE PUSH0 PUSH0 RETURNDATACOPY RETURNDATASIZE PUSH0 REVERT JUMPDEST POP POP POP POP PUSH1 0x40 MLOAD RETURNDATASIZE PUSH1 0x1F NOT PUSH1 0x1F DUP3 ADD AND DUP3 ADD DUP1 PUSH1 0x40 MSTORE POP DUP2 ADD SWAP1 PUSH2 0x9B9 SWAP2 SWAP1 PUSH2 0x121F JUMP JUMPDEST POP PUSH0 PUSH1 0x4 SLOAD SUB PUSH2 0x9DE JUMPI PUSH2 0x9D7 DUP3 DUP5 PUSH2 0x9D2 SWAP2 SWAP1 PUSH2 0x105D JUMP JUMPDEST PUSH2 0xD69 JUMP JUMPDEST SWAP1 POP PUSH2 0xA1F JUMP JUMPDEST PUSH2 0xA1C PUSH1 0x2 SLOAD PUSH1 0x4 SLOAD DUP6 PUSH2 0x9F2 SWAP2 SWAP1 PUSH2 0x105D JUMP JUMPDEST PUSH2 0x9FC SWAP2 SWAP1 PUSH2 0x10CB JUMP JUMPDEST PUSH1 0x3 SLOAD PUSH1 0x4 SLOAD DUP6 PUSH2 0xA0D SWAP2 SWAP1 PUSH2 0x105D JUMP JUMPDEST PUSH2 0xA17 SWAP2 SWAP1 PUSH2 0x10CB JUMP JUMPDEST PUSH2 0xDE0 JUMP JUMPDEST SWAP1 POP JUMPDEST DUP1 PUSH1 0x5 PUSH0 CALLER PUSH20 0xFFFFFFFFFFFFFFFFFFFFFFFFFFFFFFFFFFFFFFFF AND PUSH20 0xFFFFFFFFFFFFFFFFFFFFFFFFFFFFFFFFFFFFFFFF AND DUP2 MSTORE PUSH1 0x20 ADD SWAP1 DUP2 MSTORE PUSH1 0x20 ADD PUSH0 KECCAK256 PUSH0 DUP3 DUP3 SLOAD PUSH2 0xA6B SWAP2 SWAP1 PUSH2 0x10FB JUMP JUMPDEST SWAP3 POP POP DUP2 SWAP1 SSTORE POP DUP1 PUSH1 0x4 PUSH0 DUP3 DUP3 SLOAD PUSH2 0xA83 SWAP2 SWAP1 PUSH2 0x10FB JUMP JUMPDEST SWAP3 POP POP DUP2 SWAP1 SSTORE POP DUP3 PUSH1 0x2 PUSH0 DUP3 DUP3 SLOAD PUSH2 0xA9B SWAP2 SWAP1 PUSH2 0x10FB JUMP JUMPDEST SWAP3 POP POP DUP2 SWAP1 SSTORE POP DUP2 PUSH1 0x3 PUSH0 DUP3 DUP3 SLOAD PUSH2 0xAB3 SWAP2 SWAP1 PUSH2 0x10FB JUMP JUMPDEST SWAP3 POP POP DUP2 SWAP1 SSTORE POP CALLER PUSH20 0xFFFFFFFFFFFFFFFFFFFFFFFFFFFFFFFFFFFFFFFF AND PUSH32 0x64B83944E79C3CE8D4C297411DE637C3E102D064677AAC0C163976EBDCD6F50E DUP5 DUP5 DUP5 PUSH1 0x40 MLOAD PUSH2 0xB04 SWAP4 SWAP3 SWAP2 SWAP1 PUSH2 0x1341 JUMP JUMPDEST PUSH1 0x40 MLOAD DUP1 SWAP2 SUB SWAP1 LOG2 SWAP3 SWAP2 POP POP JUMP JUMPDEST PUSH1 0x4 SLOAD DUP2 JUMP JUMPDEST PUSH1 0x2 SLOAD DUP2 JUMP JUMPDEST PUSH1 0x5 PUSH1 0x20 MSTORE DUP1 PUSH0 MSTORE PUSH1 0x40 PUSH0 KECCAK256 PUSH0 SWAP2 POP SWAP1 POP SLOAD DUP2 JUMP JUMPDEST PUSH0 PUSH0 DUP3 GT PUSH2 0xB76 JUMPI PUSH1 0x40 MLOAD PUSH32 0x8C379A000000000000000000000000000000000000000000000000000000000 DUP2 MSTORE PUSH1 0x4 ADD PUSH2 0xB6D SWAP1 PUSH2 0x1188 JUMP JUMPDEST PUSH1 0x40 MLOAD DUP1 SWAP2 SUB SWAP1 REVERT JUMPDEST PUSH0 PUSH0 SWAP1 SLOAD SWAP1 PUSH2 0x100 EXP SWAP1 DIV PUSH20 0xFFFFFFFFFFFFFFFFFFFFFFFFFFFFFFFFFFFFFFFF AND PUSH20 0xFFFFFFFFFFFFFFFFFFFFFFFFFFFFFFFFFFFFFFFF AND PUSH4 0x23B872DD CALLER ADDRESS DUP6 PUSH1 0x40 MLOAD DUP5 PUSH4 0xFFFFFFFF AND PUSH1 0xE0 SHL DUP2 MSTORE PUSH1 0x4 ADD PUSH2 0xBD3 SWAP4 SWAP3 SWAP2 SWAP1 PUSH2 0x11B5 JUMP JUMPDEST PUSH1 0x20 PUSH1 0x40 MLOAD DUP1 DUP4 SUB DUP2 PUSH0 DUP8 GAS CALL ISZERO DUP1 ISZERO PUSH2 0xBEF JUMPI RETURNDATASIZE PUSH0 PUSH0 RETURNDATACOPY RETURNDATASIZE PUSH0 REVERT JUMPDEST POP POP POP POP PUSH1 0x40 MLOAD RETURNDATASIZE PUSH1 0x1F NOT PUSH1 0x1F DUP3 ADD AND DUP3 ADD DUP1 PUSH1 0x40 MSTORE POP DUP2 ADD SWAP1 PUSH2 0xC13 SWAP2 SWAP1 PUSH2 0x121F JUMP JUMPDEST POP PUSH2 0xC23 DUP3 PUSH1 0x2 SLOAD PUSH1 0x3 SLOAD PUSH2 0x262 JUMP JUMPDEST SWAP1 POP DUP2 PUSH1 0x2 PUSH0 DUP3 DUP3 SLOAD PUSH2 0xC36 SWAP2 SWAP1 PUSH2 0x10FB JUMP JUMPDEST SWAP3 POP POP DUP2 SWAP1 SSTORE POP DUP1 PUSH1 0x3 PUSH0 DUP3 DUP3 SLOAD PUSH2 0xC4E SWAP2 SWAP1 PUSH2 0x124A JUMP JUMPDEST SWAP3 POP POP DUP2 SWAP1 SSTORE POP PUSH1 0x1 PUSH0 SWAP1 SLOAD SWAP1 PUSH2 0x100 EXP SWAP1 DIV PUSH20 0xFFFFFFFFFFFFFFFFFFFFFFFFFFFFFFFFFFFFFFFF AND PUSH20 0xFFFFFFFFFFFFFFFFFFFFFFFFFFFFFFFFFFFFFFFF AND PUSH4 0xA9059CBB CALLER DUP4 PUSH1 0x40 MLOAD DUP4 PUSH4 0xFFFFFFFF AND PUSH1 0xE0 SHL DUP2 MSTORE PUSH1 0x4 ADD PUSH2 0xCB1 SWAP3 SWAP2 SWAP1 PUSH2 0x127D JUMP JUMPDEST PUSH1 0x20 PUSH1 0x40 MLOAD DUP1 DUP4 SUB DUP2 PUSH0 DUP8 GAS CALL ISZERO DUP1 ISZERO PUSH2 0xCCD JUMPI RETURNDATASIZE PUSH0 PUSH0 RETURNDATACOPY RETURNDATASIZE PUSH0 REVERT JUMPDEST POP POP POP POP PUSH1 0x40 MLOAD RETURNDATASIZE PUSH1 0x1F NOT PUSH1 0x1F DUP3 ADD AND DUP3 ADD DUP1 PUSH1 0x40 MSTORE POP DUP2 ADD SWAP1 PUSH2 0xCF1 SWAP2 SWAP1 PUSH2 0x121F JUMP JUMPDEST POP CALLER PUSH20 0xFFFFFFFFFFFFFFFFFFFFFFFFFFFFFFFFFFFFFFFF AND PUSH32 0xA078C4190ABE07940190EFFC1846BE0CCF03AD6007BC9E93F9697D0B460BEFBB PUSH0 PUSH0 SWAP1 SLOAD SWAP1 PUSH2 0x100 EXP SWAP1 DIV PUSH20 0xFFFFFFFFFFFFFFFFFFFFFFFFFFFFFFFFFFFFFFFF AND DUP5 DUP5 PUSH1 0x40 MLOAD PUSH2 0xD5C SWAP4 SWAP3 SWAP2 SWAP1 PUSH2 0x12A4 JUMP JUMPDEST PUSH1 0x40 MLOAD DUP1 SWAP2 SUB SWAP1 LOG2 SWAP2 SWAP1 POP JUMP JUMPDEST PUSH0 PUSH1 0x3 DUP3 GT ISZERO PUSH2 0xDCE JUMPI DUP2 SWAP1 POP PUSH0 PUSH1 0x1 PUSH1 0x2 DUP5 PUSH2 0xD86 SWAP2 SWAP1 PUSH2 0x10CB JUMP JUMPDEST PUSH2 0xD90 SWAP2 SWAP1 PUSH2 0x10FB JUMP JUMPDEST SWAP1 POP JUMPDEST DUP2 DUP2 LT ISZERO PUSH2 0xDC8 JUMPI DUP1 SWAP2 POP PUSH1 0x2 DUP2 DUP3 DUP6 PUSH2 0xDAD SWAP2 SWAP1 PUSH2 0x10CB JUMP JUMPDEST PUSH2 0xDB7 SWAP2 SWAP1 PUSH2 0x10FB JUMP JUMPDEST PUSH2 0xDC1 SWAP2 SWAP1 PUSH2 0x10CB JUMP JUMPDEST SWAP1 POP PUSH2 0xD93 JUMP JUMPDEST POP PUSH2 0xDDB JUMP JUMPDEST PUSH0 DUP3 EQ PUSH2 0xDDA JUMPI PUSH1 0x1 SWAP1 POP JUMPDEST JUMPDEST SWAP2 SWAP1 POP JUMP JUMPDEST PUSH0 DUP2 DUP4 LT PUSH2 0xDEE JUMPI DUP2 PUSH2 0xDF0 JUMP JUMPDEST DUP3 JUMPDEST SWAP1 POP SWAP3 SWAP2 POP POP JUMP JUMPDEST PUSH0 PUSH0 REVERT JUMPDEST PUSH0 DUP2 SWAP1 POP SWAP2 SWAP1 POP JUMP JUMPDEST PUSH2 0xE0E DUP2 PUSH2 0xDFC JUMP JUMPDEST DUP2 EQ PUSH2 0xE18 JUMPI PUSH0 PUSH0 REVERT JUMPDEST POP JUMP JUMPDEST PUSH0 DUP2 CALLDATALOAD SWAP1 POP PUSH2 0xE29 DUP2 PUSH2 0xE05 JUMP JUMPDEST SWAP3 SWAP2 POP POP JUMP JUMPDEST PUSH0 PUSH0 PUSH0 PUSH1 0x60 DUP5 DUP7 SUB SLT ISZERO PUSH2 0xE46 JUMPI PUSH2 0xE45 PUSH2 0xDF8 JUMP JUMPDEST JUMPDEST PUSH0 PUSH2 0xE53 DUP7 DUP3 DUP8 ADD PUSH2 0xE1B JUMP JUMPDEST SWAP4 POP POP PUSH1 0x20 PUSH2 0xE64 DUP7 DUP3 DUP8 ADD PUSH2 0xE1B JUMP JUMPDEST SWAP3 POP POP PUSH1 0x40 PUSH2 0xE75 DUP7 DUP3 DUP8 ADD PUSH2 0xE1B JUMP JUMPDEST SWAP2 POP POP SWAP3 POP SWAP3 POP SWAP3 JUMP JUMPDEST PUSH2 0xE88 DUP2 PUSH2 0xDFC JUMP JUMPDEST DUP3 MSTORE POP POP JUMP JUMPDEST PUSH0 PUSH1 0x20 DUP3 ADD SWAP1 POP PUSH2 0xEA1 PUSH0 DUP4 ADD DUP5 PUSH2 0xE7F JUMP JUMPDEST SWAP3 SWAP2 POP POP JUMP JUMPDEST PUSH0 PUSH20 0xFFFFFFFFFFFFFFFFFFFFFFFFFFFFFFFFFFFFFFFF DUP3 AND SWAP1 POP SWAP2 SWAP1 POP JUMP JUMPDEST PUSH0 DUP2 SWAP1 POP SWAP2 SWAP1 POP JUMP JUMPDEST PUSH0 PUSH2 0xEE9 PUSH2 0xEE4 PUSH2 0xEDF DUP5 PUSH2 0xEA7 JUMP JUMPDEST PUSH2 0xEC6 JUMP JUMPDEST PUSH2 0xEA7 JUMP JUMPDEST SWAP1 POP SWAP2 SWAP1 POP JUMP JUMPDEST PUSH0 PUSH2 0xEFA DUP3 PUSH2 0xECF JUMP JUMPDEST SWAP1 POP SWAP2 SWAP1 POP JUMP JUMPDEST PUSH0 PUSH2 0xF0B DUP3 PUSH2 0xEF0 JUMP JUMPDEST SWAP1 POP SWAP2 SWAP1 POP JUMP JUMPDEST PUSH2 0xF1B DUP2 PUSH2 0xF01 JUMP JUMPDEST DUP3 MSTORE POP POP JUMP JUMPDEST PUSH0 PUSH1 0x20 DUP3 ADD SWAP1 POP PUSH2 0xF34 PUSH0 DUP4 ADD DUP5 PUSH2 0xF12 JUMP JUMPDEST SWAP3 SWAP2 POP POP JUMP JUMPDEST PUSH0 PUSH1 0x20 DUP3 DUP5 SUB SLT ISZERO PUSH2 0xF4F JUMPI PUSH2 0xF4E PUSH2 0xDF8 JUMP JUMPDEST JUMPDEST PUSH0 PUSH2 0xF5C DUP5 DUP3 DUP6 ADD PUSH2 0xE1B JUMP JUMPDEST SWAP2 POP POP SWAP3 SWAP2 POP POP JUMP JUMPDEST PUSH0 PUSH1 0x40 DUP3 ADD SWAP1 POP PUSH2 0xF78 PUSH0 DUP4 ADD DUP6 PUSH2 0xE7F JUMP JUMPDEST PUSH2 0xF85 PUSH1 0x20 DUP4 ADD DUP5 PUSH2 0xE7F JUMP JUMPDEST SWAP4 SWAP3 POP POP POP JUMP JUMPDEST PUSH0 PUSH0 PUSH1 0x40 DUP4 DUP6 SUB SLT ISZERO PUSH2 0xFA2 JUMPI PUSH2 0xFA1 PUSH2 0xDF8 JUMP JUMPDEST JUMPDEST PUSH0 PUSH2 0xFAF DUP6 DUP3 DUP7 ADD PUSH2 0xE1B JUMP JUMPDEST SWAP3 POP POP PUSH1 0x20 PUSH2 0xFC0 DUP6 DUP3 DUP7 ADD PUSH2 0xE1B JUMP JUMPDEST SWAP2 POP POP SWAP3 POP SWAP3 SWAP1 POP JUMP JUMPDEST PUSH0 PUSH2 0xFD4 DUP3 PUSH2 0xEA7 JUMP JUMPDEST SWAP1 POP SWAP2 SWAP1 POP JUMP JUMPDEST PUSH2 0xFE4 DUP2 PUSH2 0xFCA JUMP JUMPDEST DUP2 EQ PUSH2 0xFEE JUMPI PUSH0 PUSH0 REVERT JUMPDEST POP JUMP JUMPDEST PUSH0 DUP2 CALLDATALOAD SWAP1 POP PUSH2 0xFFF DUP2 PUSH2 0xFDB JUMP JUMPDEST SWAP3 SWAP2 POP POP JUMP JUMPDEST PUSH0 PUSH1 0x20 DUP3 DUP5 SUB SLT ISZERO PUSH2 0x101A JUMPI PUSH2 0x1019 PUSH2 0xDF8 JUMP JUMPDEST JUMPDEST PUSH0 PUSH2 0x1027 DUP5 DUP3 DUP6 ADD PUSH2 0xFF1 JUMP JUMPDEST SWAP2 POP POP SWAP3 SWAP2 POP POP JUMP JUMPDEST PUSH32 0x4E487B7100000000000000000000000000000000000000000000000000000000 PUSH0 MSTORE PUSH1 0x11 PUSH1 0x4 MSTORE PUSH1 0x24 PUSH0 REVERT JUMPDEST PUSH0 PUSH2 0x1067 DUP3 PUSH2 0xDFC JUMP JUMPDEST SWAP2 POP PUSH2 0x1072 DUP4 PUSH2 0xDFC JUMP JUMPDEST SWAP3 POP DUP3 DUP3 MUL PUSH2 0x1080 DUP2 PUSH2 0xDFC JUMP JUMPDEST SWAP2 POP DUP3 DUP3 DIV DUP5 EQ DUP4 ISZERO OR PUSH2 0x1097 JUMPI PUSH2 0x1096 PUSH2 0x1030 JUMP JUMPDEST JUMPDEST POP SWAP3 SWAP2 POP POP JUMP JUMPDEST PUSH32 0x4E487B7100000000000000000000000000000000000000000000000000000000 PUSH0 MSTORE PUSH1 0x12 PUSH1 0x4 MSTORE PUSH1 0x24 PUSH0 REVERT JUMPDEST PUSH0 PUSH2 0x10D5 DUP3 PUSH2 0xDFC JUMP JUMPDEST SWAP2 POP PUSH2 0x10E0 DUP4 PUSH2 0xDFC JUMP JUMPDEST SWAP3 POP DUP3 PUSH2 0x10F0 JUMPI PUSH2 0x10EF PUSH2 0x109E JUMP JUMPDEST JUMPDEST DUP3 DUP3 DIV SWAP1 POP SWAP3 SWAP2 POP POP JUMP JUMPDEST PUSH0 PUSH2 0x1105 DUP3 PUSH2 0xDFC JUMP JUMPDEST SWAP2 POP PUSH2 0x1110 DUP4 PUSH2 0xDFC JUMP JUMPDEST SWAP3 POP DUP3 DUP3 ADD SWAP1 POP DUP1 DUP3 GT ISZERO PUSH2 0x1128 JUMPI PUSH2 0x1127 PUSH2 0x1030 JUMP JUMPDEST JUMPDEST SWAP3 SWAP2 POP POP JUMP JUMPDEST PUSH0 DUP3 DUP3 MSTORE PUSH1 0x20 DUP3 ADD SWAP1 POP SWAP3 SWAP2 POP POP JUMP JUMPDEST PUSH32 0x496E76616C696420696E70757400000000000000000000000000000000000000 PUSH0 DUP3 ADD MSTORE POP JUMP JUMPDEST PUSH0 PUSH2 0x1172 PUSH1 0xD DUP4 PUSH2 0x112E JUMP JUMPDEST SWAP2 POP PUSH2 0x117D DUP3 PUSH2 0x113E JUMP JUMPDEST PUSH1 0x20 DUP3 ADD SWAP1 POP SWAP2 SWAP1 POP JUMP JUMPDEST PUSH0 PUSH1 0x20 DUP3 ADD SWAP1 POP DUP2 DUP2 SUB PUSH0 DUP4 ADD MSTORE PUSH2 0x119F DUP2 PUSH2 0x1166 JUMP JUMPDEST SWAP1 POP SWAP2 SWAP1 POP JUMP JUMPDEST PUSH2 0x11AF DUP2 PUSH2 0xFCA JUMP JUMPDEST DUP3 MSTORE POP POP JUMP JUMPDEST PUSH0 PUSH1 0x60 DUP3 ADD SWAP1 POP PUSH2 0x11C8 PUSH0 DUP4 ADD DUP7 PUSH2 0x11A6 JUMP JUMPDEST PUSH2 0x11D5 PUSH1 0x20 DUP4 ADD DUP6 PUSH2 0x11A6 JUMP JUMPDEST PUSH2 0x11E2 PUSH1 0x40 DUP4 ADD DUP5 PUSH2 0xE7F JUMP JUMPDEST SWAP5 SWAP4 POP POP POP POP JUMP JUMPDEST PUSH0 DUP2 ISZERO ISZERO SWAP1 POP SWAP2 SWAP1 POP JUMP JUMPDEST PUSH2 0x11FE DUP2 PUSH2 0x11EA JUMP JUMPDEST DUP2 EQ PUSH2 0x1208 JUMPI PUSH0 PUSH0 REVERT JUMPDEST POP JUMP JUMPDEST PUSH0 DUP2 MLOAD SWAP1 POP PUSH2 0x1219 DUP2 PUSH2 0x11F5 JUMP JUMPDEST SWAP3 SWAP2 POP POP JUMP JUMPDEST PUSH0 PUSH1 0x20 DUP3 DUP5 SUB SLT ISZERO PUSH2 0x1234 JUMPI PUSH2 0x1233 PUSH2 0xDF8 JUMP JUMPDEST JUMPDEST PUSH0 PUSH2 0x1241 DUP5 DUP3 DUP6 ADD PUSH2 0x120B JUMP JUMPDEST SWAP2 POP POP SWAP3 SWAP2 POP POP JUMP JUMPDEST PUSH0 PUSH2 0x1254 DUP3 PUSH2 0xDFC JUMP JUMPDEST SWAP2 POP PUSH2 0x125F DUP4 PUSH2 0xDFC JUMP JUMPDEST SWAP3 POP DUP3 DUP3 SUB SWAP1 POP DUP2 DUP2 GT ISZERO PUSH2 0x1277 JUMPI PUSH2 0x1276 PUSH2 0x1030 JUMP JUMPDEST JUMPDEST SWAP3 SWAP2 POP POP JUMP JUMPDEST PUSH0 PUSH1 0x40 DUP3 ADD SWAP1 POP PUSH2 0x1290 PUSH0 DUP4 ADD DUP6 PUSH2 0x11A6 JUMP JUMPDEST PUSH2 0x129D PUSH1 0x20 DUP4 ADD DUP5 PUSH2 0xE7F JUMP JUMPDEST SWAP4 SWAP3 POP POP POP JUMP JUMPDEST PUSH0 PUSH1 0x60 DUP3 ADD SWAP1 POP PUSH2 0x12B7 PUSH0 DUP4 ADD DUP7 PUSH2 0x11A6 JUMP JUMPDEST PUSH2 0x12C4 PUSH1 0x20 DUP4 ADD DUP6 PUSH2 0xE7F JUMP JUMPDEST PUSH2 0x12D1 PUSH1 0x40 DUP4 ADD DUP5 PUSH2 0xE7F JUMP JUMPDEST SWAP5 SWAP4 POP POP POP POP JUMP JUMPDEST PUSH32 0x496E76616C6964204C5020616D6F756E74000000000000000000000000000000 PUSH0 DUP3 ADD MSTORE POP JUMP JUMPDEST PUSH0 PUSH2 0x130D PUSH1 0x11 DUP4 PUSH2 0x112E JUMP JUMPDEST SWAP2 POP PUSH2 0x1318 DUP3 PUSH2 0x12D9 JUMP JUMPDEST PUSH1 0x20 DUP3 ADD SWAP1 POP SWAP2 SWAP1 POP JUMP JUMPDEST PUSH0 PUSH1 0x20 DUP3 ADD SWAP1 POP DUP2 DUP2 SUB PUSH0 DUP4 ADD MSTORE PUSH2 0x133A DUP2 PUSH2 0x1301 JUMP JUMPDEST SWAP1 POP SWAP2 SWAP1 POP JUMP JUMPDEST PUSH0 PUSH1 0x60 DUP3 ADD SWAP1 POP PUSH2 0x1354 PUSH0 DUP4 ADD DUP7 PUSH2 0xE7F JUMP JUMPDEST PUSH2 0x1361 PUSH1 0x20 DUP4 ADD DUP6 PUSH2 0xE7F JUMP JUMPDEST PUSH2 0x136E PUSH1 0x40 DUP4 ADD DUP5 PUSH2 0xE7F JUMP JUMPDEST SWAP5 SWAP4 POP POP POP POP JUMP JUMPDEST PUSH32 0x496E76616C696420616D6F756E74730000000000000000000000000000000000 PUSH0 DUP3 ADD MSTORE POP JUMP JUMPDEST PUSH0 PUSH2 0x13AA PUSH1 0xF DUP4 PUSH2 0x112E JUMP JUMPDEST SWAP2 POP PUSH2 0x13B5 DUP3 PUSH2 0x1376 JUMP JUMPDEST PUSH1 0x20 DUP3 ADD SWAP1 POP SWAP2 SWAP1 POP JUMP JUMPDEST PUSH0 PUSH1 0x20 DUP3 ADD SWAP1 POP DUP2 DUP2 SUB PUSH0 DUP4 ADD MSTORE PUSH2 0x13D7 DUP2 PUSH2 0x139E JUMP JUMPDEST SWAP1 POP SWAP2 SWAP1 POP JUMP INVALID LOG2 PUSH5 0x6970667358 0x22 SLT KECCAK256 MUL 0xB0 KECCAK256 MUL 0xC5 0x4D MULMOD CALLDATALOAD 0x4D RETURN 0x2E PUSH19 0x155986B12F33181F49AC3A6AE893F69127BBD2 RJUMPI 0x6473 PUSH16 0x6C634300081E00330000000000000000 "
				},
				"gasEstimates": {
					"creation": {
						"codeDepositCost": "1028000",
						"executionCost": "infinite",
						"totalCost": "infinite"
					},
					"external": {
						"addLiquidity(uint256,uint256)": "infinite",
						"getAmountOut(uint256,uint256,uint256)": "infinite",
						"lpBalance(address)": "2890",
						"removeLiquidity(uint256)": "infinite",
						"reserveA()": "2491",
						"reserveB()": "2470",
						"swapAforB(uint256)": "infinite",
						"swapBforA(uint256)": "infinite",
						"tokenA()": "infinite",
						"tokenB()": "infinite",
						"totalLPSupply()": "2469"
					},
					"internal": {
						"min(uint256,uint256)": "63",
						"sqrt(uint256)": "infinite"
					}
				},
				"methodIdentifiers": {
					"addLiquidity(uint256,uint256)": "9cd441da",
					"getAmountOut(uint256,uint256,uint256)": "054d50d4",
					"lpBalance(address)": "e29e0974",
					"removeLiquidity(uint256)": "9c8f9f23",
					"reserveA()": "dc5fa6c5",
					"reserveB()": "19e36f3b",
					"swapAforB(uint256)": "e4f1f70a",
					"swapBforA(uint256)": "8014a7aa",
					"tokenA()": "0fc63d10",
					"tokenB()": "5f64b55b",
					"totalLPSupply()": "d1a86711"
				}
			},
			"storageLayout": {
				"storage": [
					{
						"astId": 42,
						"contract": "AutomatedMarketMaker.sol:AutomatedMarketMaker",
						"label": "tokenA",
						"offset": 0,
						"slot": "0",
						"type": "t_contract(IERC20)39"
					},
					{
						"astId": 45,
						"contract": "AutomatedMarketMaker.sol:AutomatedMarketMaker",
						"label": "tokenB",
						"offset": 0,
						"slot": "1",
						"type": "t_contract(IERC20)39"
					},
					{
						"astId": 47,
						"contract": "AutomatedMarketMaker.sol:AutomatedMarketMaker",
						"label": "reserveA",
						"offset": 0,
						"slot": "2",
						"type": "t_uint256"
					},
					{
						"astId": 49,
						"contract": "AutomatedMarketMaker.sol:AutomatedMarketMaker",
						"label": "reserveB",
						"offset": 0,
						"slot": "3",
						"type": "t_uint256"
					},
					{
						"astId": 51,
						"contract": "AutomatedMarketMaker.sol:AutomatedMarketMaker",
						"label": "totalLPSupply",
						"offset": 0,
						"slot": "4",
						"type": "t_uint256"
					},
					{
						"astId": 55,
						"contract": "AutomatedMarketMaker.sol:AutomatedMarketMaker",
						"label": "lpBalance",
						"offset": 0,
						"slot": "5",
						"type": "t_mapping(t_address,t_uint256)"
					}
				],
				"types": {
					"t_address": {
						"encoding": "inplace",
						"label": "address",
						"numberOfBytes": "20"
					},
					"t_contract(IERC20)39": {
						"encoding": "inplace",
						"label": "contract IERC20",
						"numberOfBytes": "20"
					},
					"t_mapping(t_address,t_uint256)": {
						"encoding": "mapping",
						"key": "t_address",
						"label": "mapping(address => uint256)",
						"numberOfBytes": "32",
						"value": "t_uint256"
					},
					"t_uint256": {
						"encoding": "inplace",
						"label": "uint256",
						"numberOfBytes": "32"
					}
				}
			},
			"userdoc": {
				"kind": "user",
				"methods": {
					"addLiquidity(uint256,uint256)": {
						"notice": "Add liquidity and receive LP tokens"
					},
					"getAmountOut(uint256,uint256,uint256)": {
						"notice": "x*y=k pricing formula with 0.3% fee"
					},
					"removeLiquidity(uint256)": {
						"notice": "Remove liquidity and burn LP tokens"
					},
					"swapAforB(uint256)": {
						"notice": "Swap token A for token B"
					},
					"swapBforA(uint256)": {
						"notice": "Swap token B for token A"
					}
				},
				"version": 1
			}
		}
	}
}