{"abi":[{"type":"function","name":"addCandidate","inputs":[{"name":"_name","type":"string","internalType":"string"}],"outputs":[],"stateMutability":"nonpayable"},{"type":"function","name":"candidates","inputs":[{"name":"","type":"uint256","internalType":"uint256"}],"outputs":[{"name":"","type":"string","internalType":"string"}],"stateMutability":"view"},{"type":"function","name":"getCandidateCount","inputs":[],"outputs":[{"name":"","type":"uint256","internalType":"uint256"}],"stateMutability":"view"},{"type":"function","name":"getVotes","inputs":[{"name":"candidateId","type":"uint256","internalType":"uint256"}],"outputs":[{"name":"","type":"uint256","internalType":"uint256"}],"stateMutability":"view"},{"type":"function","name":"hasVoted","inputs":[{"name":"","type":"address","internalType":"address"}],"outputs":[{"name":"","type":"bool","internalType":"bool"}],"stateMutability":"view"},{"type":"function","name":"vote","inputs":[{"name":"candidateId","type":"uint256","internalType":"uint256"}],"outputs":[],"stateMutability":"nonpayable"},{"type":"function","name":"votedFor","inputs":[{"name":"","type":"address","internalType":"address"}],"outputs":[{"name":"","type":"uint256","internalType":"uint256"}],"stateMutability":"view"},{"type":"function","name":"votes","inputs":[{"name":"","type":"uint256","internalType":"uint256"}],"outputs":[{"name":"","type":"uint256","internalType":"uint256"}],"stateMutability":"view"},{"type":"function","name":"whoVotedFor","inputs":[{"name":"_voter","type":"address","internalType":"address"}],"outputs":[{"name":"","type":"string","internalType":"string"}],"stateMutability":"view"},{"type":"event","name":"CandidateAdded","inputs":[{"name":"candidateId","type":"uint256","indexed":false,"internalType":"uint256"},{"name":"name","type":"string","indexed":false,"internalType":"string"}],"anonymous":false},{"type":"event","name":"Voted","inputs":[{"name":"voter","type":"address","indexed":false,"internalType":"address"},{"name":"candidateId","type":"uint256","indexed":false,"internalType":"uint256"}],"anonymous":false}],"bytecode":{"object":"0x6080604052348015600e575f5ffd5b50610fc98061001c5f395ff3fe608060405234801561000f575f5ffd5b5060043610610090575f3560e01c80633477ee2e116100645780633477ee2e1461012e578063462e91ec1461015e5780635df813301461017a578063f594f13f146101aa578063ff981099146101da57610090565b8062e25d16146100945780630121b93f146100c457806309eef43e146100e057806330a5634714610110575b5f5ffd5b6100ae60048036038101906100a99190610784565b61020a565b6040516100bb919061081f565b60405180910390f35b6100de60048036038101906100d99190610872565b61037b565b005b6100fa60048036038101906100f59190610784565b610545565b60405161010791906108b7565b60405180910390f35b610118610562565b60405161012591906108df565b60405180910390f35b61014860048036038101906101439190610872565b61056d565b604051610155919061081f565b60405180910390f35b61017860048036038101906101739190610a24565b610612565b005b610194600480360381019061018f9190610872565b61068f565b6040516101a191906108df565b60405180910390f35b6101c460048036038101906101bf9190610784565b6106a4565b6040516101d191906108df565b60405180910390f35b6101f460048036038101906101ef9190610872565b6106b9565b60405161020191906108df565b60405180910390f35b606060025f8373ffffffffffffffffffffffffffffffffffffffff1673ffffffffffffffffffffffffffffffffffffffff1681526020019081526020015f205f9054906101000a900460ff16610295576040517f08c379a000000000000000000000000000000000000000000000000000000000815260040161028c90610ab5565b60405180910390fd5b5f60035f8473ffffffffffffffffffffffffffffffffffffffff1673ffffffffffffffffffffffffffffffffffffffff1681526020019081526020015f2054815481106102e5576102e4610ad3565b5b905f5260205f200180546102f890610b2d565b80601f016020809104026020016040519081016040528092919081815260200182805461032490610b2d565b801561036f5780601f106103465761010080835404028352916020019161036f565b820191905f5260205f20905b81548152906001019060200180831161035257829003601f168201915b50505050509050919050565b5f8054905081106103c1576040517f08c379a00000000000000000000000000000000000000000000000000000000081526004016103b890610ba7565b60405180910390fd5b60025f3373ffffffffffffffffffffffffffffffffffffffff1673ffffffffffffffffffffffffffffffffffffffff1681526020019081526020015f205f9054906101000a900460ff161561044b576040517f08c379a000000000000000000000000000000000000000000000000000000000815260040161044290610c0f565b60405180910390fd5b6001805f8381526020019081526020015f205f82825461046b9190610c5a565b92505081905550600160025f3373ffffffffffffffffffffffffffffffffffffffff1673ffffffffffffffffffffffffffffffffffffffff1681526020019081526020015f205f6101000a81548160ff0219169083151502179055508060035f3373ffffffffffffffffffffffffffffffffffffffff1673ffffffffffffffffffffffffffffffffffffffff1681526020019081526020015f20819055507f4d99b957a2bc29a30ebd96a7be8e68fe50a3c701db28a91436490b7d53870ca4338260405161053a929190610c9c565b60405180910390a150565b6002602052805f5260405f205f915054906101000a900460ff1681565b5f5f80549050905090565b5f818154811061057b575f80fd5b905f5260205f20015f91509050805461059390610b2d565b80601f01602080910402602001604051908101604052809291908181526020018280546105bf90610b2d565b801561060a5780601f106105e15761010080835404028352916020019161060a565b820191905f5260205f20905b8154815290600101906020018083116105ed57829003601f168201915b505050505081565b5f81908060018154018082558091505060019003905f5260205f20015f9091909190915090816106429190610e63565b507fe83b2a43e7e82d975c8a0a6d2f045153c869e111136a34d1889ab7b598e396a360015f805490506106759190610f32565b82604051610684929190610f65565b60405180910390a150565b6001602052805f5260405f205f915090505481565b6003602052805f5260405f205f915090505481565b5f5f805490508210610700576040517f08c379a00000000000000000000000000000000000000000000000000000000081526004016106f790610ba7565b60405180910390fd5b60015f8381526020019081526020015f20549050919050565b5f604051905090565b5f5ffd5b5f5ffd5b5f73ffffffffffffffffffffffffffffffffffffffff82169050919050565b5f6107538261072a565b9050919050565b61076381610749565b811461076d575f5ffd5b50565b5f8135905061077e8161075a565b92915050565b5f6020828403121561079957610798610722565b5b5f6107a684828501610770565b91505092915050565b5f81519050919050565b5f82825260208201905092915050565b8281835e5f83830152505050565b5f601f19601f8301169050919050565b5f6107f1826107af565b6107fb81856107b9565b935061080b8185602086016107c9565b610814816107d7565b840191505092915050565b5f6020820190508181035f83015261083781846107e7565b905092915050565b5f819050919050565b6108518161083f565b811461085b575f5ffd5b50565b5f8135905061086c81610848565b92915050565b5f6020828403121561088757610886610722565b5b5f6108948482850161085e565b91505092915050565b5f8115159050919050565b6108b18161089d565b82525050565b5f6020820190506108ca5f8301846108a8565b92915050565b6108d98161083f565b82525050565b5f6020820190506108f25f8301846108d0565b92915050565b5f5ffd5b5f5ffd5b7f4e487b71000000000000000000000000000000000000000000000000000000005f52604160045260245ffd5b610936826107d7565b810181811067ffffffffffffffff8211171561095557610954610900565b5b80604052505050565b5f610967610719565b9050610973828261092d565b919050565b5f67ffffffffffffffff82111561099257610991610900565b5b61099b826107d7565b9050602081019050919050565b828183375f83830152505050565b5f6109c86109c384610978565b61095e565b9050828152602081018484840111156109e4576109e36108fc565b5b6109ef8482856109a8565b509392505050565b5f82601f830112610a0b57610a0a6108f8565b5b8135610a1b8482602086016109b6565b91505092915050565b5f60208284031215610a3957610a38610722565b5b5f82013567ffffffffffffffff811115610a5657610a55610726565b5b610a62848285016109f7565b91505092915050565b7f54686973206164647265737320686173206e6f7420766f7465642079657400005f82015250565b5f610a9f601e836107b9565b9150610aaa82610a6b565b602082019050919050565b5f6020820190508181035f830152610acc81610a93565b9050919050565b7f4e487b71000000000000000000000000000000000000000000000000000000005f52603260045260245ffd5b7f4e487b71000000000000000000000000000000000000000000000000000000005f52602260045260245ffd5b5f6002820490506001821680610b4457607f821691505b602082108103610b5757610b56610b00565b5b50919050565b7f496e76616c69642063616e6469646174650000000000000000000000000000005f82015250565b5f610b916011836107b9565b9150610b9c82610b5d565b602082019050919050565b5f6020820190508181035f830152610bbe81610b85565b9050919050565b7f416c726561647920766f746564000000000000000000000000000000000000005f82015250565b5f610bf9600d836107b9565b9150610c0482610bc5565b602082019050919050565b5f6020820190508181035f830152610c2681610bed565b9050919050565b7f4e487b71000000000000000000000000000000000000000000000000000000005f52601160045260245ffd5b5f610c648261083f565b9150610c6f8361083f565b9250828201905080821115610c8757610c86610c2d565b5b92915050565b610c9681610749565b82525050565b5f604082019050610caf5f830185610c8d565b610cbc60208301846108d0565b9392505050565b5f819050815f5260205f209050919050565b5f6020601f8301049050919050565b5f82821b905092915050565b5f60088302610d1f7fffffffffffffffffffffffffffffffffffffffffffffffffffffffffffffffff82610ce4565b610d298683610ce4565b95508019841693508086168417925050509392505050565b5f819050919050565b5f610d64610d5f610d5a8461083f565b610d41565b61083f565b9050919050565b5f819050919050565b610d7d83610d4a565b610d91610d8982610d6b565b848454610cf0565b825550505050565b5f5f905090565b610da8610d99565b610db3818484610d74565b505050565b5b81811015610dd657610dcb5f82610da0565b600181019050610db9565b5050565b601f821115610e1b57610dec81610cc3565b610df584610cd5565b81016020851015610e04578190505b610e18610e1085610cd5565b830182610db8565b50505b505050565b5f82821c905092915050565b5f610e3b5f1984600802610e20565b1980831691505092915050565b5f610e538383610e2c565b9150826002028217905092915050565b610e6c826107af565b67ffffffffffffffff811115610e8557610e84610900565b5b610e8f8254610b2d565b610e9a828285610dda565b5f60209050601f831160018114610ecb575f8415610eb9578287015190505b610ec38582610e48565b865550610f2a565b601f198416610ed986610cc3565b5f5b82811015610f0057848901518255600182019150602085019450602081019050610edb565b86831015610f1d5784890151610f19601f891682610e2c565b8355505b6001600288020188555050505b505050505050565b5f610f3c8261083f565b9150610f478361083f565b9250828203905081811115610f5f57610f5e610c2d565b5b92915050565b5f604082019050610f785f8301856108d0565b8181036020830152610f8a81846107e7565b9050939250505056fea26469706673582212202040ec60638feebe7833f50577ee4f6964b413fb5f82413e7b9defa3e01cbc5364736f6c634300081e0033","linkReferences":{}},"methodIdentifiers":{"addCandidate(string)":"462e91ec","candidates(uint256)":"3477ee2e","getCandidateCount()":"30a56347","getVotes(uint256)":"ff981099","hasVoted(address)":"09eef43e","vote(uint256)":"0121b93f","votedFor(address)":"f594f13f","votes(uint256)":"5df81330","whoVotedFor(address)":"00e25d16"},"id":20}