{
	"data": {
		"bytecode": {
			"linkReferences": {},
			"object": "6080604052348015600e575f5ffd5b506103778061001c5f395ff3fe608060405234801561000f575f5ffd5b5060043610610060575f3560e01c80634a2c68ed146100645780634e70b1dc1461006e5780638fdb71891461008c578063a632a2e514610096578063d742cb01146100b2578063efa4fb7f146100bc575b5f5ffd5b61006c6100c6565b005b61007661011e565b6040516100839190610183565b60405180910390f35b610094610123565b005b6100b060048036038101906100ab91906101ca565b610138565b005b6100ba610141565b005b6100c4610156565b005b5f5f5411610109576040517f08c379a00000000000000000000000000000000000000000000000000000000081526004016101009061024f565b60405180910390fd5b60015f54610117919061029a565b5f81905550565b5f5481565b60025f5461013191906102cd565b5f81905550565b805f8190555050565b5f545f5461014f91906102cd565b5f81905550565b60015f54610164919061030e565b5f81905550565b5f819050919050565b61017d8161016b565b82525050565b5f6020820190506101965f830184610174565b92915050565b5f5ffd5b6101a98161016b565b81146101b3575f5ffd5b50565b5f813590506101c4816101a0565b92915050565b5f602082840312156101df576101de61019c565b5b5f6101ec848285016101b6565b91505092915050565b5f82825260208201905092915050565b7f436f756e7465722063616e6e6f7420676f206e656761746976650000000000005f82015250565b5f610239601a836101f5565b915061024482610205565b602082019050919050565b5f6020820190508181035f8301526102668161022d565b9050919050565b7f4e487b71000000000000000000000000000000000000000000000000000000005f52601160045260245ffd5b5f6102a48261016b565b91506102af8361016b565b92508282039050818111156102c7576102c661026d565b5b92915050565b5f6102d78261016b565b91506102e28361016b565b92508282026102f08161016b565b915082820484148315176103075761030661026d565b5b5092915050565b5f6103188261016b565b91506103238361016b565b925082820190508082111561033b5761033a61026d565b5b9291505056fea264697066735822122056f99d4c084f36eaa783e8d45cd19848d42875a494325a69f0725fa244cf773564736f6c634300081f0033",
			"opcodes": "PUSH1 0x80 PUSH1 0x40 MSTORE CALLVALUE DUP1 ISZERO PUSH1 0xE JUMPI PUSH0 PUSH0 REVERT JUMPDEST POP PUSH2 0x377 DUP1 PUSH2 0x1C PUSH0 CODECOPY PUSH0 RETURN INVALID PUSH1 0x80 PUSH1 0x40 MSTORE CALLVALUE DUP1 ISZERO PUSH2 0xF JUMPI PUSH0 PUSH0 REVERT JUMPDEST POP PUSH1 0x4 CALLDATASIZE LT PUSH2 0x60 JUMPI PUSH0 CALLDATALOAD PUSH1 0xE0 SHR DUP1 PUSH4 0x4A2C68ED EQ PUSH2 0x64 JUMPI DUP1 PUSH4 0x4E70B1DC EQ PUSH2 0x6E JUMPI DUP1 PUSH4 0x8FDB7189 EQ PUSH2 0x8C JUMPI DUP1 PUSH4 0xA632A2E5 EQ PUSH2 0x96 JUMPI DUP1 PUSH4 0xD742CB01 EQ PUSH2 0xB2 JUMPI DUP1 PUSH4 0xEFA4FB7F EQ PUSH2 0xBC JUMPI JUMPDEST PUSH0 PUSH0 REVERT JUMPDEST PUSH2 0x6C PUSH2 0xC6 JUMP JUMPDEST STOP JUMPDEST PUSH2 0x76 PUSH2 0x11E JUMP JUMPDEST PUSH1 0x40 MLOAD PUSH2 0x83 SWAP2 SWAP1 PUSH2 0x183 JUMP JUMPDEST PUSH1 0x40 MLOAD DUP1 SWAP2 SUB SWAP1 RETURN JUMPDEST PUSH2 0x94 PUSH2 0x123 JUMP JUMPDEST STOP JUMPDEST PUSH2 0xB0 PUSH1 0x4 DUP1 CALLDATASIZE SUB DUP2 ADD SWAP1 PUSH2 0xAB SWAP2 SWAP1 PUSH2 0x1CA JUMP JUMPDEST PUSH2 0x138 JUMP JUMPDEST STOP JUMPDEST PUSH2 0xBA PUSH2 0x141 JUMP JUMPDEST STOP JUMPDEST PUSH2 0xC4 PUSH2 0x156 JUMP JUMPDEST STOP JUMPDEST PUSH0 PUSH0 SLOAD GT PUSH2 0x109 JUMPI PUSH1 0x40 MLOAD PUSH32 0x8C379A000000000000000000000000000000000000000000000000000000000 DUP2 MSTORE PUSH1 0x4 ADD PUSH2 0x100 SWAP1 PUSH2 0x24F JUMP JUMPDEST PUSH1 0x40 MLOAD DUP1 SWAP2 SUB SWAP1 REVERT JUMPDEST PUSH1 0x1 PUSH0 SLOAD PUSH2 0x117 SWAP2 SWAP1 PUSH2 0x29A JUMP JUMPDEST PUSH0 DUP2 SWAP1 SSTORE POP JUMP JUMPDEST PUSH0 SLOAD DUP2 JUMP JUMPDEST PUSH1 0x2 PUSH0 SLOAD PUSH2 0x131 SWAP2 SWAP1 PUSH2 0x2CD JUMP JUMPDEST PUSH0 DUP2 SWAP1 SSTORE POP JUMP JUMPDEST DUP1 PUSH0 DUP2 SWAP1 SSTORE POP POP JUMP JUMPDEST PUSH0 SLOAD PUSH0 SLOAD PUSH2 0x14F SWAP2 SWAP1 PUSH2 0x2CD JUMP JUMPDEST PUSH0 DUP2 SWAP1 SSTORE POP JUMP JUMPDEST PUSH1 0x1 PUSH0 SLOAD PUSH2 0x164 SWAP2 SWAP1 PUSH2 0x30E JUMP JUMPDEST PUSH0 DUP2 SWAP1 SSTORE POP JUMP JUMPDEST PUSH0 DUP2 SWAP1 POP SWAP2 SWAP1 POP JUMP JUMPDEST PUSH2 0x17D DUP2 PUSH2 0x16B JUMP JUMPDEST DUP3 MSTORE POP POP JUMP JUMPDEST PUSH0 PUSH1 0x20 DUP3 ADD SWAP1 POP PUSH2 0x196 PUSH0 DUP4 ADD DUP5 PUSH2 0x174 JUMP JUMPDEST SWAP3 SWAP2 POP POP JUMP JUMPDEST PUSH0 PUSH0 REVERT JUMPDEST PUSH2 0x1A9 DUP2 PUSH2 0x16B JUMP JUMPDEST DUP2 EQ PUSH2 0x1B3 JUMPI PUSH0 PUSH0 REVERT JUMPDEST POP JUMP JUMPDEST PUSH0 DUP2 CALLDATALOAD SWAP1 POP PUSH2 0x1C4 DUP2 PUSH2 0x1A0 JUMP JUMPDEST SWAP3 SWAP2 POP POP JUMP JUMPDEST PUSH0 PUSH1 0x20 DUP3 DUP5 SUB SLT ISZERO PUSH2 0x1DF JUMPI PUSH2 0x1DE PUSH2 0x19C JUMP JUMPDEST JUMPDEST PUSH0 PUSH2 0x1EC DUP5 DUP3 DUP6 ADD PUSH2 0x1B6 JUMP JUMPDEST SWAP2 POP POP SWAP3 SWAP2 POP POP JUMP JUMPDEST PUSH0 DUP3 DUP3 MSTORE PUSH1 0x20 DUP3 ADD SWAP1 POP SWAP3 SWAP2 POP POP JUMP JUMPDEST PUSH32 0x436F756E7465722063616E6E6F7420676F206E65676174697665000000000000 PUSH0 DUP3 ADD MSTORE POP JUMP JUMPDEST PUSH0 PUSH2 0x239 PUSH1 0x1A DUP4 PUSH2 0x1F5 JUMP JUMPDEST SWAP2 POP PUSH2 0x244 DUP3 PUSH2 0x205 JUMP JUMPDEST PUSH1 0x20 DUP3 ADD SWAP1 POP SWAP2 SWAP1 POP JUMP JUMPDEST PUSH0 PUSH1 0x20 DUP3 ADD SWAP1 POP DUP2 DUP2 SUB PUSH0 DUP4 ADD MSTORE PUSH2 0x266 DUP2 PUSH2 0x22D JUMP JUMPDEST SWAP1 POP SWAP2 SWAP1 POP JUMP JUMPDEST PUSH32 0x4E487B7100000000000000000000000000000000000000000000000000000000 PUSH0 MSTORE PUSH1 0x11 PUSH1 0x4 MSTORE PUSH1 0x24 PUSH0 REVERT JUMPDEST PUSH0 PUSH2 0x2A4 DUP3 PUSH2 0x16B JUMP JUMPDEST SWAP2 POP PUSH2 0x2AF DUP4 PUSH2 0x16B JUMP JUMPDEST SWAP3 POP DUP3 DUP3 SUB SWAP1 POP DUP2 DUP2 GT ISZERO PUSH2 0x2C7 JUMPI PUSH2 0x2C6 PUSH2 0x26D JUMP JUMPDEST JUMPDEST SWAP3 SWAP2 POP POP JUMP JUMPDEST PUSH0 PUSH2 0x2D7 DUP3 PUSH2 0x16B JUMP JUMPDEST SWAP2 POP PUSH2 0x2E2 DUP4 PUSH2 0x16B JUMP JUMPDEST SWAP3 POP DUP3 DUP3 MUL PUSH2 0x2F0 DUP2 PUSH2 0x16B JUMP JUMPDEST SWAP2 POP DUP3 DUP3 DIV DUP5 EQ DUP4 ISZERO OR PUSH2 0x307 JUMPI PUSH2 0x306 PUSH2 0x26D JUMP JUMPDEST JUMPDEST POP SWAP3 SWAP2 POP POP JUMP JUMPDEST PUSH0 PUSH2 0x318 DUP3 PUSH2 0x16B JUMP JUMPDEST SWAP2 POP PUSH2 0x323 DUP4 PUSH2 0x16B JUMP JUMPDEST SWAP3 POP DUP3 DUP3 ADD SWAP1 POP DUP1 DUP3 GT ISZERO PUSH2 0x33B JUMPI PUSH2 0x33A PUSH2 0x26D JUMP JUMPDEST JUMPDEST SWAP3 SWAP2 POP POP JUMP INVALID LOG2 PUSH5 0x6970667358 0x22 SLT KECCAK256 JUMP EXTDELEGATECALL SWAP14 0x4C ADDMOD 0x4F CALLDATASIZE 0xEA 0xA7 DUP4 0xE8 0xD4 TLOAD DATALOADN 0x9848 0xD4 0x28 PUSH22 0xA494325A69F0725FA244CF773564736F6C634300081F STOP CALLER "
		},
		"gasEstimates": {
			"creation": {
				"codeDepositCost": "177400",
				"executionCost": "218",
				"totalCost": "177618"
			},
			"external": {
				"clickdecrease()": "infinite",
				"clickincrease()": "infinite",
				"double()": "infinite",
				"num()": "2424",
				"setnumber(uint256)": "22558",
				"square()": "infinite"
			}
		},
		"methodIdentifiers": {
			"clickdecrease()": "4a2c68ed",
			"clickincrease()": "efa4fb7f",
			"double()": "8fdb7189",
			"num()": "4e70b1dc",
			"setnumber(uint256)": "a632a2e5",
			"square()": "d742cb01"
		}
	},
	"abi": [
		{
			"inputs": [],
			"name": "clickdecrease",
			"outputs": [],
			"stateMutability": "nonpayable",
			"type": "function"
		},
		{
			"inputs": [],
			"name": "clickincrease",
			"outputs": [],
			"stateMutability": "nonpayable",
			"type": "function"
		},
		{
			"inputs": [],
			"name": "double",
			"outputs": [],
			"stateMutability": "nonpayable",
			"type": "function"
		},
		{
			"inputs": [],
			"name": "num",
			"outputs": [
				{
					"internalType": "uint256",
					"name": "",
					"type": "uint256"
				}
			],
			"stateMutability": "view",
			"type": "function"
		},
		{
			"inputs": [
				{
					"internalType": "uint256",
					"name": "number",
					"type": "uint256"
				}
			],
			"name": "setnumber",
			"outputs": [],
			"stateMutability": "nonpayable",
			"type": "function"
		},
		{
			"inputs": [],
			"name": "square",
			"outputs": [],
			"stateMutability": "nonpayable",
			"type": "function"
		}
	]
}