{
	"data": {
		"bytecode": {
			"linkReferences": {},
			"object": "6080604052348015600e575f5ffd5b506102848061001c5f395ff3fe608060405234801561000f575f5ffd5b506004361061004a575f3560e01c806361bc221a1461004e5780637d55923d1461006c578063d732d95514610076578063d826f88f14610080575b5f5ffd5b61005661008a565b6040516100639190610122565b60405180910390f35b61007461008f565b005b61007e6100a7565b005b610088610102565b005b5f5481565b5f5f8154809291906100a090610168565b9190505550565b5f5f54116100ea576040517f08c379a00000000000000000000000000000000000000000000000000000000081526004016100e190610209565b60405180910390fd5b5f5f8154809291906100fb90610227565b9190505550565b5f5f81905550565b5f819050919050565b61011c8161010a565b82525050565b5f6020820190506101355f830184610113565b92915050565b7f4e487b71000000000000000000000000000000000000000000000000000000005f52601160045260245ffd5b5f6101728261010a565b91507fffffffffffffffffffffffffffffffffffffffffffffffffffffffffffffffff82036101a4576101a361013b565b5b600182019050919050565b5f82825260208201905092915050565b7f436f756e746572206d7573742062652067726561746572207468616e203000005f82015250565b5f6101f3601e836101af565b91506101fe826101bf565b602082019050919050565b5f6020820190508181035f830152610220816101e7565b9050919050565b5f6102318261010a565b91505f82036102435761024261013b565b5b60018203905091905056fea2646970667358221220563148fe65430aacaafdc02c503f68574d3884624fb5d165002e801d5329760a64736f6c634300081e0033",
			"opcodes": "PUSH1 0x80 PUSH1 0x40 MSTORE CALLVALUE DUP1 ISZERO PUSH1 0xE JUMPI PUSH0 PUSH0 REVERT JUMPDEST POP PUSH2 0x284 DUP1 PUSH2 0x1C PUSH0 CODECOPY PUSH0 RETURN INVALID PUSH1 0x80 PUSH1 0x40 MSTORE CALLVALUE DUP1 ISZERO PUSH2 0xF JUMPI PUSH0 PUSH0 REVERT JUMPDEST POP PUSH1 0x4 CALLDATASIZE LT PUSH2 0x4A JUMPI PUSH0 CALLDATALOAD PUSH1 0xE0 SHR DUP1 PUSH4 0x61BC221A EQ PUSH2 0x4E JUMPI DUP1 PUSH4 0x7D55923D EQ PUSH2 0x6C JUMPI DUP1 PUSH4 0xD732D955 EQ PUSH2 0x76 JUMPI DUP1 PUSH4 0xD826F88F EQ PUSH2 0x80 JUMPI JUMPDEST PUSH0 PUSH0 REVERT JUMPDEST PUSH2 0x56 PUSH2 0x8A JUMP JUMPDEST PUSH1 0x40 MLOAD PUSH2 0x63 SWAP2 SWAP1 PUSH2 0x122 JUMP JUMPDEST PUSH1 0x40 MLOAD DUP1 SWAP2 SUB SWAP1 RETURN JUMPDEST PUSH2 0x74 PUSH2 0x8F JUMP JUMPDEST STOP JUMPDEST PUSH2 0x7E PUSH2 0xA7 JUMP JUMPDEST STOP JUMPDEST PUSH2 0x88 PUSH2 0x102 JUMP JUMPDEST STOP JUMPDEST PUSH0 SLOAD DUP2 JUMP JUMPDEST PUSH0 PUSH0 DUP2 SLOAD DUP1 SWAP3 SWAP2 SWAP1 PUSH2 0xA0 SWAP1 PUSH2 0x168 JUMP JUMPDEST SWAP2 SWAP1 POP SSTORE POP JUMP JUMPDEST PUSH0 PUSH0 SLOAD GT PUSH2 0xEA JUMPI PUSH1 0x40 MLOAD PUSH32 0x8C379A000000000000000000000000000000000000000000000000000000000 DUP2 MSTORE PUSH1 0x4 ADD PUSH2 0xE1 SWAP1 PUSH2 0x209 JUMP JUMPDEST PUSH1 0x40 MLOAD DUP1 SWAP2 SUB SWAP1 REVERT JUMPDEST PUSH0 PUSH0 DUP2 SLOAD DUP1 SWAP3 SWAP2 SWAP1 PUSH2 0xFB SWAP1 PUSH2 0x227 JUMP JUMPDEST SWAP2 SWAP1 POP SSTORE POP JUMP JUMPDEST PUSH0 PUSH0 DUP2 SWAP1 SSTORE POP JUMP JUMPDEST PUSH0 DUP2 SWAP1 POP SWAP2 SWAP1 POP JUMP JUMPDEST PUSH2 0x11C DUP2 PUSH2 0x10A JUMP JUMPDEST DUP3 MSTORE POP POP JUMP JUMPDEST PUSH0 PUSH1 0x20 DUP3 ADD SWAP1 POP PUSH2 0x135 PUSH0 DUP4 ADD DUP5 PUSH2 0x113 JUMP JUMPDEST SWAP3 SWAP2 POP POP JUMP JUMPDEST PUSH32 0x4E487B7100000000000000000000000000000000000000000000000000000000 PUSH0 MSTORE PUSH1 0x11 PUSH1 0x4 MSTORE PUSH1 0x24 PUSH0 REVERT JUMPDEST PUSH0 PUSH2 0x172 DUP3 PUSH2 0x10A JUMP JUMPDEST SWAP2 POP PUSH32 0xFFFFFFFFFFFFFFFFFFFFFFFFFFFFFFFFFFFFFFFFFFFFFFFFFFFFFFFFFFFFFFFF DUP3 SUB PUSH2 0x1A4 JUMPI PUSH2 0x1A3 PUSH2 0x13B JUMP JUMPDEST JUMPDEST PUSH1 0x1 DUP3 ADD SWAP1 POP SWAP2 SWAP1 POP JUMP JUMPDEST PUSH0 DUP3 DUP3 MSTORE PUSH1 0x20 DUP3 ADD SWAP1 POP SWAP3 SWAP2 POP POP JUMP JUMPDEST PUSH32 0x436F756E746572206D7573742062652067726561746572207468616E20300000 PUSH0 DUP3 ADD MSTORE POP JUMP JUMPDEST PUSH0 PUSH2 0x1F3 PUSH1 0x1E DUP4 PUSH2 0x1AF JUMP JUMPDEST SWAP2 POP PUSH2 0x1FE DUP3 PUSH2 0x1BF JUMP JUMPDEST PUSH1 0x20 DUP3 ADD SWAP1 POP SWAP2 SWAP1 POP JUMP JUMPDEST PUSH0 PUSH1 0x20 DUP3 ADD SWAP1 POP DUP2 DUP2 SUB PUSH0 DUP4 ADD MSTORE PUSH2 0x220 DUP2 PUSH2 0x1E7 JUMP JUMPDEST SWAP1 POP SWAP2 SWAP1 POP JUMP JUMPDEST PUSH0 PUSH2 0x231 DUP3 PUSH2 0x10A JUMP JUMPDEST SWAP2 POP PUSH0 DUP3 SUB PUSH2 0x243 JUMPI PUSH2 0x242 PUSH2 0x13B JUMP JUMPDEST JUMPDEST PUSH1 0x1 DUP3 SUB SWAP1 POP SWAP2 SWAP1 POP JUMP INVALID LOG2 PUSH5 0x6970667358 0x22 SLT KECCAK256 JUMP BALANCE BASEFEE INVALID PUSH6 0x430AACAAFDC0 0x2C POP EXTCODEHASH PUSH9 0x574D3884624FB5D165 STOP 0x2E DUP1 SAR MSTORE8 0x29 PUSH23 0xA64736F6C634300081E00330000000000000000000000 "
		},
		"gasEstimates": {
			"creation": {
				"codeDepositCost": "128800",
				"executionCost": "175",
				"totalCost": "128975"
			},
			"external": {
				"click()": "24496",
				"counter()": "2402",
				"decrease()": "26638",
				"reset()": "5199"
			}
		},
		"methodIdentifiers": {
			"click()": "7d55923d",
			"counter()": "61bc221a",
			"decrease()": "d732d955",
			"reset()": "d826f88f"
		}
	},
	"abi": [
		{
			"inputs": [],
			"name": "click",
			"outputs": [],
			"stateMutability": "nonpayable",
			"type": "function"
		},
		{
			"inputs": [],
			"name": "counter",
			"outputs": [
				{
					"internalType": "uint256",
					"name": "",
					"type": "uint256"
				}
			],
			"stateMutability": "view",
			"type": "function"
		},
		{
			"inputs": [],
			"name": "decrease",
			"outputs": [],
			"stateMutability": "nonpayable",
			"type": "function"
		},
		{
			"inputs": [],
			"name": "reset",
			"outputs": [],
			"stateMutability": "nonpayable",
			"type": "function"
		}
	]
}