{
	"data": {
		"bytecode": {
			"linkReferences": {},
			"object": "6080604052348015600e575f5ffd5b506102da8061001c5f395ff3fe608060405234801561000f575f5ffd5b5060043610610060575f3560e01c80634f78922c1461006457806361bc221a146100805780637d55923d1461009e5780638ada066e146100a8578063d732d955146100c6578063d826f88f146100d0575b5f5ffd5b61007e60048036038101906100799190610175565b6100da565b005b6100886100ef565b60405161009591906101af565b60405180910390f35b6100a66100f4565b005b6100b061010c565b6040516100bd91906101af565b60405180910390f35b6100ce610114565b005b6100d8610136565b005b805f546100e791906101f5565b5f8190555050565b5f5481565b5f5f81548092919061010590610236565b9190505550565b5f5f54905090565b5f5f541115610134575f5f81548092919061012e9061027d565b91905055505b565b5f5f81905550565b5f5ffd5b5f819050919050565b61015481610142565b811461015e575f5ffd5b50565b5f8135905061016f8161014b565b92915050565b5f6020828403121561018a5761018961013e565b5b5f61019784828501610161565b91505092915050565b6101a981610142565b82525050565b5f6020820190506101c25f8301846101a0565b92915050565b7f4e487b71000000000000000000000000000000000000000000000000000000005f52601160045260245ffd5b5f6101ff82610142565b915061020a83610142565b925082820261021881610142565b9150828204841483151761022f5761022e6101c8565b5b5092915050565b5f61024082610142565b91507fffffffffffffffffffffffffffffffffffffffffffffffffffffffffffffffff8203610272576102716101c8565b5b600182019050919050565b5f61028782610142565b91505f8203610299576102986101c8565b5b60018203905091905056fea26469706673582212206e2ef3651cb6abd019432341da7b7ab4d8809c745d86c9ffb0b6f7bd50d0e88464736f6c634300081e0033",
			"opcodes": "PUSH1 0x80 PUSH1 0x40 MSTORE CALLVALUE DUP1 ISZERO PUSH1 0xE JUMPI PUSH0 PUSH0 REVERT JUMPDEST POP PUSH2 0x2DA DUP1 PUSH2 0x1C PUSH0 CODECOPY PUSH0 RETURN INVALID PUSH1 0x80 PUSH1 0x40 MSTORE CALLVALUE DUP1 ISZERO PUSH2 0xF JUMPI PUSH0 PUSH0 REVERT JUMPDEST POP PUSH1 0x4 CALLDATASIZE LT PUSH2 0x60 JUMPI PUSH0 CALLDATALOAD PUSH1 0xE0 SHR DUP1 PUSH4 0x4F78922C EQ PUSH2 0x64 JUMPI DUP1 PUSH4 0x61BC221A EQ PUSH2 0x80 JUMPI DUP1 PUSH4 0x7D55923D EQ PUSH2 0x9E JUMPI DUP1 PUSH4 0x8ADA066E EQ PUSH2 0xA8 JUMPI DUP1 PUSH4 0xD732D955 EQ PUSH2 0xC6 JUMPI DUP1 PUSH4 0xD826F88F EQ PUSH2 0xD0 JUMPI JUMPDEST PUSH0 PUSH0 REVERT JUMPDEST PUSH2 0x7E PUSH1 0x4 DUP1 CALLDATASIZE SUB DUP2 ADD SWAP1 PUSH2 0x79 SWAP2 SWAP1 PUSH2 0x175 JUMP JUMPDEST PUSH2 0xDA JUMP JUMPDEST STOP JUMPDEST PUSH2 0x88 PUSH2 0xEF JUMP JUMPDEST PUSH1 0x40 MLOAD PUSH2 0x95 SWAP2 SWAP1 PUSH2 0x1AF JUMP JUMPDEST PUSH1 0x40 MLOAD DUP1 SWAP2 SUB SWAP1 RETURN JUMPDEST PUSH2 0xA6 PUSH2 0xF4 JUMP JUMPDEST STOP JUMPDEST PUSH2 0xB0 PUSH2 0x10C JUMP JUMPDEST PUSH1 0x40 MLOAD PUSH2 0xBD SWAP2 SWAP1 PUSH2 0x1AF JUMP JUMPDEST PUSH1 0x40 MLOAD DUP1 SWAP2 SUB SWAP1 RETURN JUMPDEST PUSH2 0xCE PUSH2 0x114 JUMP JUMPDEST STOP JUMPDEST PUSH2 0xD8 PUSH2 0x136 JUMP JUMPDEST STOP JUMPDEST DUP1 PUSH0 SLOAD PUSH2 0xE7 SWAP2 SWAP1 PUSH2 0x1F5 JUMP JUMPDEST PUSH0 DUP2 SWAP1 SSTORE POP POP JUMP JUMPDEST PUSH0 SLOAD DUP2 JUMP JUMPDEST PUSH0 PUSH0 DUP2 SLOAD DUP1 SWAP3 SWAP2 SWAP1 PUSH2 0x105 SWAP1 PUSH2 0x236 JUMP JUMPDEST SWAP2 SWAP1 POP SSTORE POP JUMP JUMPDEST PUSH0 PUSH0 SLOAD SWAP1 POP SWAP1 JUMP JUMPDEST PUSH0 PUSH0 SLOAD GT ISZERO PUSH2 0x134 JUMPI PUSH0 PUSH0 DUP2 SLOAD DUP1 SWAP3 SWAP2 SWAP1 PUSH2 0x12E SWAP1 PUSH2 0x27D JUMP JUMPDEST SWAP2 SWAP1 POP SSTORE POP JUMPDEST JUMP JUMPDEST PUSH0 PUSH0 DUP2 SWAP1 SSTORE POP JUMP JUMPDEST PUSH0 PUSH0 REVERT JUMPDEST PUSH0 DUP2 SWAP1 POP SWAP2 SWAP1 POP JUMP JUMPDEST PUSH2 0x154 DUP2 PUSH2 0x142 JUMP JUMPDEST DUP2 EQ PUSH2 0x15E JUMPI PUSH0 PUSH0 REVERT JUMPDEST POP JUMP JUMPDEST PUSH0 DUP2 CALLDATALOAD SWAP1 POP PUSH2 0x16F DUP2 PUSH2 0x14B JUMP JUMPDEST SWAP3 SWAP2 POP POP JUMP JUMPDEST PUSH0 PUSH1 0x20 DUP3 DUP5 SUB SLT ISZERO PUSH2 0x18A JUMPI PUSH2 0x189 PUSH2 0x13E JUMP JUMPDEST JUMPDEST PUSH0 PUSH2 0x197 DUP5 DUP3 DUP6 ADD PUSH2 0x161 JUMP JUMPDEST SWAP2 POP POP SWAP3 SWAP2 POP POP JUMP JUMPDEST PUSH2 0x1A9 DUP2 PUSH2 0x142 JUMP JUMPDEST DUP3 MSTORE POP POP JUMP JUMPDEST PUSH0 PUSH1 0x20 DUP3 ADD SWAP1 POP PUSH2 0x1C2 PUSH0 DUP4 ADD DUP5 PUSH2 0x1A0 JUMP JUMPDEST SWAP3 SWAP2 POP POP JUMP JUMPDEST PUSH32 0x4E487B7100000000000000000000000000000000000000000000000000000000 PUSH0 MSTORE PUSH1 0x11 PUSH1 0x4 MSTORE PUSH1 0x24 PUSH0 REVERT JUMPDEST PUSH0 PUSH2 0x1FF DUP3 PUSH2 0x142 JUMP JUMPDEST SWAP2 POP PUSH2 0x20A DUP4 PUSH2 0x142 JUMP JUMPDEST SWAP3 POP DUP3 DUP3 MUL PUSH2 0x218 DUP2 PUSH2 0x142 JUMP JUMPDEST SWAP2 POP DUP3 DUP3 DIV DUP5 EQ DUP4 ISZERO OR PUSH2 0x22F JUMPI PUSH2 0x22E PUSH2 0x1C8 JUMP JUMPDEST JUMPDEST POP SWAP3 SWAP2 POP POP JUMP JUMPDEST PUSH0 PUSH2 0x240 DUP3 PUSH2 0x142 JUMP JUMPDEST SWAP2 POP PUSH32 0xFFFFFFFFFFFFFFFFFFFFFFFFFFFFFFFFFFFFFFFFFFFFFFFFFFFFFFFFFFFFFFFF DUP3 SUB PUSH2 0x272 JUMPI PUSH2 0x271 PUSH2 0x1C8 JUMP JUMPDEST JUMPDEST PUSH1 0x1 DUP3 ADD SWAP1 POP SWAP2 SWAP1 POP JUMP JUMPDEST PUSH0 PUSH2 0x287 DUP3 PUSH2 0x142 JUMP JUMPDEST SWAP2 POP PUSH0 DUP3 SUB PUSH2 0x299 JUMPI PUSH2 0x298 PUSH2 0x1C8 JUMP JUMPDEST JUMPDEST PUSH1 0x1 DUP3 SUB SWAP1 POP SWAP2 SWAP1 POP JUMP INVALID LOG2 PUSH5 0x6970667358 0x22 SLT KECCAK256 PUSH15 0x2EF3651CB6ABD019432341DA7B7AB4 0xD8 DUP1 SWAP13 PUSH21 0x5D86C9FFB0B6F7BD50D0E88464736F6C634300081E STOP CALLER "
		},
		"gasEstimates": {
			"creation": {
				"codeDepositCost": "146000",
				"executionCost": "188",
				"totalCost": "146188"
			},
			"external": {
				"click()": "24518",
				"clickMultiple(uint256)": "infinite",
				"counter()": "2424",
				"decrease()": "26685",
				"getCounter()": "2475",
				"reset()": "5243"
			}
		},
		"methodIdentifiers": {
			"click()": "7d55923d",
			"clickMultiple(uint256)": "4f78922c",
			"counter()": "61bc221a",
			"decrease()": "d732d955",
			"getCounter()": "8ada066e",
			"reset()": "d826f88f"
		}
	},
	"abi": [
		{
			"inputs": [],
			"name": "click",
			"outputs": [],
			"stateMutability": "nonpayable",
			"type": "function"
		},
		{
			"inputs": [
				{
					"internalType": "uint256",
					"name": "times",
					"type": "uint256"
				}
			],
			"name": "clickMultiple",
			"outputs": [],
			"stateMutability": "nonpayable",
			"type": "function"
		},
		{
			"inputs": [],
			"name": "counter",
			"outputs": [
				{
					"internalType": "uint256",
					"name": "",
					"type": "uint256"
				}
			],
			"stateMutability": "view",
			"type": "function"
		},
		{
			"inputs": [],
			"name": "decrease",
			"outputs": [],
			"stateMutability": "nonpayable",
			"type": "function"
		},
		{
			"inputs": [],
			"name": "getCounter",
			"outputs": [
				{
					"internalType": "uint256",
					"name": "",
					"type": "uint256"
				}
			],
			"stateMutability": "view",
			"type": "function"
		},
		{
			"inputs": [],
			"name": "reset",
			"outputs": [],
			"stateMutability": "nonpayable",
			"type": "function"
		}
	]
}