{
	"data": {
		"bytecode": {
			"linkReferences": {},
			"object": "60806040526005600855600a600955348015610019575f5ffd5b50604051613707380380613707833981810160405281019061003b91906101a0565b60015f819055508260015f6101000a81548173ffffffffffffffffffffffffffffffffffffffff021916908373ffffffffffffffffffffffffffffffffffffffff16021790555081600581905550806006819055503360075f6101000a81548173ffffffffffffffffffffffffffffffffffffffff021916908373ffffffffffffffffffffffffffffffffffffffff1602179055507f980b903efea70e6b1bd235b1fb05f1a5da73cbd478b73c9538053f9eb29f129f816040516100ff91906101ff565b60405180910390a1505050610218565b5f5ffd5b5f73ffffffffffffffffffffffffffffffffffffffff82169050919050565b5f61013c82610113565b9050919050565b61014c81610132565b8114610156575f5ffd5b50565b5f8151905061016781610143565b92915050565b5f819050919050565b61017f8161016d565b8114610189575f5ffd5b50565b5f8151905061019a81610176565b92915050565b5f5f5f606084860312156101b7576101b661010f565b5b5f6101c486828701610159565b93505060206101d58682870161018c565b92505060406101e68682870161018c565b9150509250925092565b6101f98161016d565b82525050565b5f6020820190506102125f8301846101f0565b92915050565b6134e2806102255f395ff3fe608060405234801561000f575f5ffd5b5060043610610114575f3560e01c806343859632116100a0578063af42d03a1161006f578063af42d03a146102e5578063c9d27afe14610301578063f851a4401461031d578063f91f88f71461033b578063f96dae0a1461036b57610114565b8063438596321461024b57806345bb15501461027b5780634fa76ec9146102ab5780635652077c146102c957610114565b8063150fea09116100e7578063150fea09146101a75780632ab09d14146101c35780632bbca157146101e157806332f6a1dc146101ff5780633b4d01a71461021b57610114565b8063013cf08b146101185780630d61b5191461014f5780630e7ca9e31461016b578063132002fc14610189575b5f5ffd5b610132600480360381019061012d9190611cc5565b610389565b604051610146989796959493929190611dc8565b60405180910390f35b61016960048036038101906101649190611cc5565b61047f565b005b610173610846565b6040516101809190611e4b565b60405180910390f35b61019161084c565b60405161019e9190611e4b565b60405180910390f35b6101c160048036038101906101bc9190611cc5565b610852565b005b6101cb610922565b6040516101d89190611e4b565b60405180910390f35b6101e9610928565b6040516101f69190611e4b565b60405180910390f35b61021960048036038101906102149190611cc5565b61092e565b005b61023560048036038101906102309190611cc5565b610a0b565b6040516102429190612173565b60405180910390f35b610265600480360381019061026091906121bd565b610cc7565b60405161027291906121fb565b60405180910390f35b6102956004803603810190610290919061231f565b610cf1565b6040516102a29190611e4b565b60405180910390f35b6102b3611162565b6040516102c09190611e4b565b60405180910390f35b6102e360048036038101906102de9190611cc5565b611168565b005b6102ff60048036038101906102fa9190611cc5565b611434565b005b61031b600480360381019061031691906123f9565b6114cd565b005b61032561181d565b6040516103329190612437565b60405180910390f35b61035560048036038101906103509190611cc5565b611842565b6040516103629190612450565b60405180910390f35b610373611a49565b60405161038091906124cb565b60405180910390f35b6002602052805f5260405f205f91509050805f0154908060010180546103ae90612511565b80601f01602080910402602001604051908101604052809291908181526020018280546103da90612511565b80156104255780601f106103fc57610100808354040283529160200191610425565b820191905f5260205f20905b81548152906001019060200180831161040857829003601f168201915b505050505090806002015490806003015490806004015490806005015f9054906101000a900460ff16908060050160019054906101000a900473ffffffffffffffffffffffffffffffffffffffff16908060080154905088565b610487611a6e565b5f60025f8381526020019081526020015f209050806005015f9054906101000a900460ff16156104ec576040517f08c379a00000000000000000000000000000000000000000000000000000000081526004016104e39061258b565b60405180910390fd5b5f8160080154118015610503575080600801544210155b610542576040517f08c379a0000000000000000000000000000000000000000000000000000000008152600401610539906125f3565b60405180910390fd5b6001816005015f6101000a81548160ff0219169083151502179055505f8160040154826003015411905080156107ff575f5f90505b826007018054905081101561069d575f5f84600701838154811061059e5761059d612611565b5b905f5260205f20015f9054906101000a900473ffffffffffffffffffffffffffffffffffffffff1673ffffffffffffffffffffffffffffffffffffffff168560060184815481106105f2576105f1612611565b5b905f5260205f200160405161060791906126da565b5f604051808303815f865af19150503d805f8114610640576040519150601f19603f3d011682016040523d82523d5f602084013e610645565b606091505b509150915081819061068d576040517f08c379a00000000000000000000000000000000000000000000000000000000081526004016106849190612450565b60405180910390fd5b5050508080600101915050610577565b507f948f4a9cd986f1118c3fbd459f7a22b23c0693e1ca3ef06a6a8be5aa7d39cc038360016040516106d09291906126f0565b60405180910390a160015f9054906101000a900473ffffffffffffffffffffffffffffffffffffffff1673ffffffffffffffffffffffffffffffffffffffff1663a9059cbb8360050160019054906101000a900473ffffffffffffffffffffffffffffffffffffffff166009546040518363ffffffff1660e01b815260040161075a929190612717565b6020604051808303815f875af1158015610776573d5f5f3e3d5ffd5b505050506040513d601f19601f8201168201806040525081019061079a9190612752565b507f2546a7bc752300d17b50a92b5886b2fe2b288852835580d6a6f9742c28690eb18260050160019054906101000a900473ffffffffffffffffffffffffffffffffffffffff166009546040516107f2929190612717565b60405180910390a1610839565b7f948f4a9cd986f1118c3fbd459f7a22b23c0693e1ca3ef06a6a8be5aa7d39cc03835f6040516108309291906126f0565b60405180910390a15b5050610843611abb565b50565b60095481565b60055481565b60075f9054906101000a900473ffffffffffffffffffffffffffffffffffffffff1673ffffffffffffffffffffffffffffffffffffffff163373ffffffffffffffffffffffffffffffffffffffff16146108e1576040517f08c379a00000000000000000000000000000000000000000000000000000000081526004016108d8906127c7565b60405180910390fd5b806006819055507f980b903efea70e6b1bd235b1fb05f1a5da73cbd478b73c9538053f9eb29f129f816040516109179190611e4b565b60405180910390a150565b60045481565b60065481565b60075f9054906101000a900473ffffffffffffffffffffffffffffffffffffffff1673ffffffffffffffffffffffffffffffffffffffff163373ffffffffffffffffffffffffffffffffffffffff16146109bd576040517f08c379a00000000000000000000000000000000000000000000000000000000081526004016109b4906127c7565b60405180910390fd5b6064811115610a01576040517f08c379a00000000000000000000000000000000000000000000000000000000081526004016109f890612855565b60405180910390fd5b8060088190555050565b610a13611ac4565b60025f8381526020019081526020015f20604051806101400160405290815f8201548152602001600182018054610a4990612511565b80601f0160208091040260200160405190810160405280929190818152602001828054610a7590612511565b8015610ac05780601f10610a9757610100808354040283529160200191610ac0565b820191905f5260205f20905b815481529060010190602001808311610aa357829003601f168201915b50505050508152602001600282015481526020016003820154815260200160048201548152602001600582015f9054906101000a900460ff161515151581526020016005820160019054906101000a900473ffffffffffffffffffffffffffffffffffffffff1673ffffffffffffffffffffffffffffffffffffffff1673ffffffffffffffffffffffffffffffffffffffff16815260200160068201805480602002602001604051908101604052809291908181526020015f905b82821015610c23578382905f5260205f20018054610b9890612511565b80601f0160208091040260200160405190810160405280929190818152602001828054610bc490612511565b8015610c0f5780601f10610be657610100808354040283529160200191610c0f565b820191905f5260205f20905b815481529060010190602001808311610bf257829003601f168201915b505050505081526020019060010190610b7b565b50505050815260200160078201805480602002602001604051908101604052809291908181526020018280548015610cad57602002820191905f5260205f20905b815f9054906101000a900473ffffffffffffffffffffffffffffffffffffffff1673ffffffffffffffffffffffffffffffffffffffff1681526020019060010190808311610c64575b505050505081526020016008820154815250509050919050565b6003602052815f5260405f20602052805f5260405f205f915091509054906101000a900460ff1681565b5f60095460015f9054906101000a900473ffffffffffffffffffffffffffffffffffffffff1673ffffffffffffffffffffffffffffffffffffffff166370a08231336040518263ffffffff1660e01b8152600401610d4f9190612437565b602060405180830381865afa158015610d6a573d5f5f3e3d5ffd5b505050506040513d601f19601f82011682018060405250810190610d8e9190612887565b1015610dcf576040517f08c379a0000000000000000000000000000000000000000000000000000000008152600401610dc6906128fc565b60405180910390fd5b828290508585905014610e17576040517f08c379a0000000000000000000000000000000000000000000000000000000008152600401610e0e9061298a565b60405180910390fd5b60015f9054906101000a900473ffffffffffffffffffffffffffffffffffffffff1673ffffffffffffffffffffffffffffffffffffffff166323b872dd33306009546040518463ffffffff1660e01b8152600401610e77939291906129a8565b6020604051808303815f875af1158015610e93573d5f5f3e3d5ffd5b505050506040513d601f19601f82011682018060405250810190610eb79190612752565b507f9200eb963fca008b6094fd66d5d35754456cc0ba263eacd64b45ce206254717133600954604051610eeb929190612717565b60405180910390a1604051806101400160405280600454815260200188888080601f0160208091040260200160405190810160405280939291908181526020018383808284375f81840152601f19601f82011690508083019250505050505050815260200160055442610f5e9190612a0a565b81526020015f81526020015f81526020015f151581526020013373ffffffffffffffffffffffffffffffffffffffff168152602001848490610fa09190612c16565b81526020018686808060200260200160405190810160405280939291908181526020018383602002808284375f81840152601f19601f8201169050808301925050505050505081526020015f81525060025f60045481526020019081526020015f205f820151815f0155602082015181600101908161101f9190612dc1565b5060408201518160020155606082015181600301556080820151816004015560a0820151816005015f6101000a81548160ff02191690831515021790555060c08201518160050160016101000a81548173ffffffffffffffffffffffffffffffffffffffff021916908373ffffffffffffffffffffffffffffffffffffffff16021790555060e08201518160060190805190602001906110c0929190611b28565b506101008201518160070190805190602001906110de929190611b7f565b5061012082015181600801559050507f9cc3d9dd626042cdefb76484b91708c3207b637214b44f20111c893548d9c85f600454888833600954604051611128959493929190612ebc565b60405180910390a160045f81548092919061114290612f08565b919050555060016004546111569190612f4f565b90509695505050505050565b60085481565b5f60025f8381526020019081526020015f20905080600201544210156111c3576040517f08c379a00000000000000000000000000000000000000000000000000000000081526004016111ba90612fcc565b60405180910390fd5b806005015f9054906101000a900460ff1615611214576040517f08c379a000000000000000000000000000000000000000000000000000000000815260040161120b9061258b565b60405180910390fd5b5f81600801541461125a576040517f08c379a000000000000000000000000000000000000000000000000000000000815260040161125190613034565b60405180910390fd5b5f60015f9054906101000a900473ffffffffffffffffffffffffffffffffffffffff1673ffffffffffffffffffffffffffffffffffffffff166318160ddd6040518163ffffffff1660e01b8152600401602060405180830381865afa1580156112c5573d5f5f3e3d5ffd5b505050506040513d601f19601f820116820180604052508101906112e99190612887565b90505f826004015483600301546113009190612a0a565b90505f6064600854846113139190613052565b61131d91906130c0565b9050808210158015611336575083600401548460030154115b1561139357600654426113499190612a0a565b84600801819055507f87d6d2091fed10acabbb0ab3b4d94e054408389f25732236e31cf21fb23431518585600801546040516113869291906130f0565b60405180910390a161142d565b6001846005015f6101000a81548160ff0219169083151502179055507f948f4a9cd986f1118c3fbd459f7a22b23c0693e1ca3ef06a6a8be5aa7d39cc03855f6040516113e09291906126f0565b60405180910390a18082101561142c577f864a94a5739ec215873c7ab6bd714458b41e2c19f515c39f3352754c0d53a79285838360405161142393929190613117565b60405180910390a15b5b5050505050565b60075f9054906101000a900473ffffffffffffffffffffffffffffffffffffffff1673ffffffffffffffffffffffffffffffffffffffff163373ffffffffffffffffffffffffffffffffffffffff16146114c3576040517f08c379a00000000000000000000000000000000000000000000000000000000081526004016114ba906127c7565b60405180910390fd5b8060098190555050565b5f60025f8481526020019081526020015f20905080600201544210611527576040517f08c379a000000000000000000000000000000000000000000000000000000000815260040161151e90613196565b60405180910390fd5b5f60015f9054906101000a900473ffffffffffffffffffffffffffffffffffffffff1673ffffffffffffffffffffffffffffffffffffffff166370a08231336040518263ffffffff1660e01b81526004016115829190612437565b602060405180830381865afa15801561159d573d5f5f3e3d5ffd5b505050506040513d601f19601f820116820180604052508101906115c19190612887565b11611601576040517f08c379a00000000000000000000000000000000000000000000000000000000081526004016115f8906131fe565b60405180910390fd5b60035f8481526020019081526020015f205f3373ffffffffffffffffffffffffffffffffffffffff1673ffffffffffffffffffffffffffffffffffffffff1681526020019081526020015f205f9054906101000a900460ff161561169a576040517f08c379a000000000000000000000000000000000000000000000000000000000815260040161169190613266565b60405180910390fd5b5f60015f9054906101000a900473ffffffffffffffffffffffffffffffffffffffff1673ffffffffffffffffffffffffffffffffffffffff166370a08231336040518263ffffffff1660e01b81526004016116f59190612437565b602060405180830381865afa158015611710573d5f5f3e3d5ffd5b505050506040513d601f19601f820116820180604052508101906117349190612887565b9050821561175b5780826003015f82825461174f9190612a0a565b92505081905550611776565b80826004015f82825461176e9190612a0a565b925050819055505b600160035f8681526020019081526020015f205f3373ffffffffffffffffffffffffffffffffffffffff1673ffffffffffffffffffffffffffffffffffffffff1681526020019081526020015f205f6101000a81548160ff0219169083151502179055507f7c2de587c00d75474a0c6c6fa96fd3b45dc974cd4e8a75f712bb84c950dce1b58433858460405161180f9493929190613284565b60405180910390a150505050565b60075f9054906101000a900473ffffffffffffffffffffffffffffffffffffffff1681565b60605f60025f8481526020019081526020015f209050806005015f9054906101000a900460ff166118a8576040517f08c379a000000000000000000000000000000000000000000000000000000000815260040161189f90613311565b60405180910390fd5b5f60015f9054906101000a900473ffffffffffffffffffffffffffffffffffffffff1673ffffffffffffffffffffffffffffffffffffffff166318160ddd6040518163ffffffff1660e01b8152600401602060405180830381865afa158015611913573d5f5f3e3d5ffd5b505050506040513d601f19601f820116820180604052508101906119379190612887565b90505f8260040154836003015461194e9190612a0a565b90505f6064600854846119619190613052565b61196b91906130c0565b9050808210156119b6576040518060400160405280602081526020017f50726f706f73616c204641494c4544202d2051756f72756d206e6f74206d6574815250945050505050611a44565b836004015484600301541115611a07576040518060400160405280600f81526020017f50726f706f73616c205041535345440000000000000000000000000000000000815250945050505050611a44565b6040518060400160405280601181526020017f50726f706f73616c2052454a45435445440000000000000000000000000000008152509450505050505b919050565b60015f9054906101000a900473ffffffffffffffffffffffffffffffffffffffff1681565b60025f5403611ab2576040517f08c379a0000000000000000000000000000000000000000000000000000000008152600401611aa990613379565b60405180910390fd5b60025f81905550565b60015f81905550565b6040518061014001604052805f8152602001606081526020015f81526020015f81526020015f81526020015f151581526020015f73ffffffffffffffffffffffffffffffffffffffff16815260200160608152602001606081526020015f81525090565b828054828255905f5260205f20908101928215611b6e579160200282015b82811115611b6d578251829081611b5d91906133dd565b5091602001919060010190611b46565b5b509050611b7b9190611c06565b5090565b828054828255905f5260205f20908101928215611bf5579160200282015b82811115611bf4578251825f6101000a81548173ffffffffffffffffffffffffffffffffffffffff021916908373ffffffffffffffffffffffffffffffffffffffff16021790555091602001919060010190611b9d565b5b509050611c029190611c29565b5090565b5b80821115611c25575f8181611c1c9190611c44565b50600101611c07565b5090565b5b80821115611c40575f815f905550600101611c2a565b5090565b508054611c5090612511565b5f825580601f10611c615750611c7e565b601f0160209004905f5260205f2090810190611c7d9190611c29565b5b50565b5f604051905090565b5f5ffd5b5f5ffd5b5f819050919050565b611ca481611c92565b8114611cae575f5ffd5b50565b5f81359050611cbf81611c9b565b92915050565b5f60208284031215611cda57611cd9611c8a565b5b5f611ce784828501611cb1565b91505092915050565b611cf981611c92565b82525050565b5f81519050919050565b5f82825260208201905092915050565b8281835e5f83830152505050565b5f601f19601f8301169050919050565b5f611d4182611cff565b611d4b8185611d09565b9350611d5b818560208601611d19565b611d6481611d27565b840191505092915050565b5f8115159050919050565b611d8381611d6f565b82525050565b5f73ffffffffffffffffffffffffffffffffffffffff82169050919050565b5f611db282611d89565b9050919050565b611dc281611da8565b82525050565b5f61010082019050611ddc5f83018b611cf0565b8181036020830152611dee818a611d37565b9050611dfd6040830189611cf0565b611e0a6060830188611cf0565b611e176080830187611cf0565b611e2460a0830186611d7a565b611e3160c0830185611db9565b611e3e60e0830184611cf0565b9998505050505050505050565b5f602082019050611e5e5f830184611cf0565b92915050565b611e6d81611c92565b82525050565b5f82825260208201905092915050565b5f611e8d82611cff565b611e978185611e73565b9350611ea7818560208601611d19565b611eb081611d27565b840191505092915050565b611ec481611d6f565b82525050565b611ed381611da8565b82525050565b5f81519050919050565b5f82825260208201905092915050565b5f819050602082019050919050565b5f81519050919050565b5f82825260208201905092915050565b5f611f2682611f02565b611f308185611f0c565b9350611f40818560208601611d19565b611f4981611d27565b840191505092915050565b5f611f5f8383611f1c565b905092915050565b5f602082019050919050565b5f611f7d82611ed9565b611f878185611ee3565b935083602082028501611f9985611ef3565b805f5b85811015611fd45784840389528151611fb58582611f54565b9450611fc083611f67565b925060208a01995050600181019050611f9c565b50829750879550505050505092915050565b5f81519050919050565b5f82825260208201905092915050565b5f819050602082019050919050565b5f61201a8383611eca565b60208301905092915050565b5f602082019050919050565b5f61203c82611fe6565b6120468185611ff0565b935061205183612000565b805f5b83811015612081578151612068888261200f565b975061207383612026565b925050600181019050612054565b5085935050505092915050565b5f61014083015f8301516120a45f860182611e64565b50602083015184820360208601526120bc8282611e83565b91505060408301516120d16040860182611e64565b5060608301516120e46060860182611e64565b5060808301516120f76080860182611e64565b5060a083015161210a60a0860182611ebb565b5060c083015161211d60c0860182611eca565b5060e083015184820360e08601526121358282611f73565b9150506101008301518482036101008601526121518282612032565b915050610120830151612168610120860182611e64565b508091505092915050565b5f6020820190508181035f83015261218b818461208e565b905092915050565b61219c81611da8565b81146121a6575f5ffd5b50565b5f813590506121b781612193565b92915050565b5f5f604083850312156121d3576121d2611c8a565b5b5f6121e085828601611cb1565b92505060206121f1858286016121a9565b9150509250929050565b5f60208201905061220e5f830184611d7a565b92915050565b5f5ffd5b5f5ffd5b5f5ffd5b5f5f83601f84011261223557612234612214565b5b8235905067ffffffffffffffff81111561225257612251612218565b5b60208301915083600182028301111561226e5761226d61221c565b5b9250929050565b5f5f83601f84011261228a57612289612214565b5b8235905067ffffffffffffffff8111156122a7576122a6612218565b5b6020830191508360208202830111156122c3576122c261221c565b5b9250929050565b5f5f83601f8401126122df576122de612214565b5b8235905067ffffffffffffffff8111156122fc576122fb612218565b5b6020830191508360208202830111156123185761231761221c565b5b9250929050565b5f5f5f5f5f5f6060878903121561233957612338611c8a565b5b5f87013567ffffffffffffffff81111561235657612355611c8e565b5b61236289828a01612220565b9650965050602087013567ffffffffffffffff81111561238557612384611c8e565b5b61239189828a01612275565b9450945050604087013567ffffffffffffffff8111156123b4576123b3611c8e565b5b6123c089828a016122ca565b92509250509295509295509295565b6123d881611d6f565b81146123e2575f5ffd5b50565b5f813590506123f3816123cf565b92915050565b5f5f6040838503121561240f5761240e611c8a565b5b5f61241c85828601611cb1565b925050602061242d858286016123e5565b9150509250929050565b5f60208201905061244a5f830184611db9565b92915050565b5f6020820190508181035f8301526124688184611d37565b905092915050565b5f819050919050565b5f61249361248e61248984611d89565b612470565b611d89565b9050919050565b5f6124a482612479565b9050919050565b5f6124b58261249a565b9050919050565b6124c5816124ab565b82525050565b5f6020820190506124de5f8301846124bc565b92915050565b7f4e487b71000000000000000000000000000000000000000000000000000000005f52602260045260245ffd5b5f600282049050600182168061252857607f821691505b60208210810361253b5761253a6124e4565b5b50919050565b7f50726f706f73616c20616c7265616479206578656375746564000000000000005f82015250565b5f612575601983611d09565b915061258082612541565b602082019050919050565b5f6020820190508181035f8301526125a281612569565b9050919050565b7f54696d656c6f636b206e6f7420796574206578706972656400000000000000005f82015250565b5f6125dd601883611d09565b91506125e8826125a9565b602082019050919050565b5f6020820190508181035f83015261260a816125d1565b9050919050565b7f4e487b71000000000000000000000000000000000000000000000000000000005f52603260045260245ffd5b5f81905092915050565b5f819050815f5260205f209050919050565b5f815461266681612511565b612670818661263e565b9450600182165f811461268a576001811461269f576126d1565b60ff19831686528115158202860193506126d1565b6126a885612648565b5f5b838110156126c9578154818901526001820191506020810190506126aa565b838801955050505b50505092915050565b5f6126e5828461265a565b915081905092915050565b5f6040820190506127035f830185611cf0565b6127106020830184611d7a565b9392505050565b5f60408201905061272a5f830185611db9565b6127376020830184611cf0565b9392505050565b5f8151905061274c816123cf565b92915050565b5f6020828403121561276757612766611c8a565b5b5f6127748482850161273e565b91505092915050565b7f4f6e6c792061646d696e2063616e2063616c6c207468697300000000000000005f82015250565b5f6127b1601883611d09565b91506127bc8261277d565b602082019050919050565b5f6020820190508181035f8301526127de816127a5565b9050919050565b7f51756f72756d2070657263656e74616765206d757374206265206265747765655f8201527f6e203020616e6420313030000000000000000000000000000000000000000000602082015250565b5f61283f602b83611d09565b915061284a826127e5565b604082019050919050565b5f6020820190508181035f83015261286c81612833565b9050919050565b5f8151905061288181611c9b565b92915050565b5f6020828403121561289c5761289b611c8a565b5b5f6128a984828501612873565b91505092915050565b7f496e73756666696369656e7420746f6b656e7320666f72206465706f736974005f82015250565b5f6128e6601f83611d09565b91506128f1826128b2565b602082019050919050565b5f6020820190508181035f830152612913816128da565b9050919050565b7f5461726765747320616e642063616c6c6461746173206c656e677468206d69735f8201527f6d61746368000000000000000000000000000000000000000000000000000000602082015250565b5f612974602583611d09565b915061297f8261291a565b604082019050919050565b5f6020820190508181035f8301526129a181612968565b9050919050565b5f6060820190506129bb5f830186611db9565b6129c86020830185611db9565b6129d56040830184611cf0565b949350505050565b7f4e487b71000000000000000000000000000000000000000000000000000000005f52601160045260245ffd5b5f612a1482611c92565b9150612a1f83611c92565b9250828201905080821115612a3757612a366129dd565b5b92915050565b7f4e487b71000000000000000000000000000000000000000000000000000000005f52604160045260245ffd5b612a7382611d27565b810181811067ffffffffffffffff82111715612a9257612a91612a3d565b5b80604052505050565b5f612aa4611c81565b9050612ab08282612a6a565b919050565b5f67ffffffffffffffff821115612acf57612ace612a3d565b5b602082029050602081019050919050565b5f5ffd5b5f67ffffffffffffffff821115612afe57612afd612a3d565b5b612b0782611d27565b9050602081019050919050565b828183375f83830152505050565b5f612b34612b2f84612ae4565b612a9b565b905082815260208101848484011115612b5057612b4f612ae0565b5b612b5b848285612b14565b509392505050565b5f82601f830112612b7757612b76612214565b5b8135612b87848260208601612b22565b91505092915050565b5f612ba2612b9d84612ab5565b612a9b565b90508083825260208201905060208402830185811115612bc557612bc461221c565b5b835b81811015612c0c57803567ffffffffffffffff811115612bea57612be9612214565b5b808601612bf78982612b63565b85526020850194505050602081019050612bc7565b5050509392505050565b5f612c22368484612b90565b905092915050565b5f819050815f5260205f209050919050565b5f6020601f8301049050919050565b5f82821b905092915050565b5f60088302612c867fffffffffffffffffffffffffffffffffffffffffffffffffffffffffffffffff82612c4b565b612c908683612c4b565b95508019841693508086168417925050509392505050565b5f612cc2612cbd612cb884611c92565b612470565b611c92565b9050919050565b5f819050919050565b612cdb83612ca8565b612cef612ce782612cc9565b848454612c57565b825550505050565b5f5f905090565b612d06612cf7565b612d11818484612cd2565b505050565b5b81811015612d3457612d295f82612cfe565b600181019050612d17565b5050565b601f821115612d7957612d4a81612c2a565b612d5384612c3c565b81016020851015612d62578190505b612d76612d6e85612c3c565b830182612d16565b50505b505050565b5f82821c905092915050565b5f612d995f1984600802612d7e565b1980831691505092915050565b5f612db18383612d8a565b9150826002028217905092915050565b612dca82611cff565b67ffffffffffffffff811115612de357612de2612a3d565b5b612ded8254612511565b612df8828285612d38565b5f60209050601f831160018114612e29575f8415612e17578287015190505b612e218582612da6565b865550612e88565b601f198416612e3786612c2a565b5f5b82811015612e5e57848901518255600182019150602085019450602081019050612e39565b86831015612e7b5784890151612e77601f891682612d8a565b8355505b6001600288020188555050505b505050505050565b5f612e9b8385611d09565b9350612ea8838584612b14565b612eb183611d27565b840190509392505050565b5f608082019050612ecf5f830188611cf0565b8181036020830152612ee2818688612e90565b9050612ef16040830185611db9565b612efe6060830184611cf0565b9695505050505050565b5f612f1282611c92565b91507fffffffffffffffffffffffffffffffffffffffffffffffffffffffffffffffff8203612f4457612f436129dd565b5b600182019050919050565b5f612f5982611c92565b9150612f6483611c92565b9250828203905081811115612f7c57612f7b6129dd565b5b92915050565b7f566f74696e6720706572696f64206e6f7420796574206f7665720000000000005f82015250565b5f612fb6601a83611d09565b9150612fc182612f82565b602082019050919050565b5f6020820190508181035f830152612fe381612faa565b9050919050565b7f457865637574696f6e2074696d6520616c7265616479207365740000000000005f82015250565b5f61301e601a83611d09565b915061302982612fea565b602082019050919050565b5f6020820190508181035f83015261304b81613012565b9050919050565b5f61305c82611c92565b915061306783611c92565b925082820261307581611c92565b9150828204841483151761308c5761308b6129dd565b5b5092915050565b7f4e487b71000000000000000000000000000000000000000000000000000000005f52601260045260245ffd5b5f6130ca82611c92565b91506130d583611c92565b9250826130e5576130e4613093565b5b828204905092915050565b5f6040820190506131035f830185611cf0565b6131106020830184611cf0565b9392505050565b5f60608201905061312a5f830186611cf0565b6131376020830185611cf0565b6131446040830184611cf0565b949350505050565b7f566f74696e6720706572696f64206f76657200000000000000000000000000005f82015250565b5f613180601283611d09565b915061318b8261314c565b602082019050919050565b5f6020820190508181035f8301526131ad81613174565b9050919050565b7f4e6f20676f7665726e616e636520746f6b656e730000000000000000000000005f82015250565b5f6131e8601483611d09565b91506131f3826131b4565b602082019050919050565b5f6020820190508181035f830152613215816131dc565b9050919050565b7f416c726561647920766f746564000000000000000000000000000000000000005f82015250565b5f613250600d83611d09565b915061325b8261321c565b602082019050919050565b5f6020820190508181035f83015261327d81613244565b9050919050565b5f6080820190506132975f830187611cf0565b6132a46020830186611db9565b6132b16040830185611d7a565b6132be6060830184611cf0565b95945050505050565b7f50726f706f73616c206e6f7420796574206578656375746564000000000000005f82015250565b5f6132fb601983611d09565b9150613306826132c7565b602082019050919050565b5f6020820190508181035f830152613328816132ef565b9050919050565b7f5265656e7472616e637947756172643a207265656e7472616e742063616c6c005f82015250565b5f613363601f83611d09565b915061336e8261332f565b602082019050919050565b5f6020820190508181035f83015261339081613357565b9050919050565b601f8211156133d8576133a981612648565b6133b284612c3c565b810160208510156133c1578190505b6133d56133cd85612c3c565b830182612d16565b50505b505050565b6133e682611f02565b67ffffffffffffffff8111156133ff576133fe612a3d565b5b6134098254612511565b613414828285613397565b5f60209050601f831160018114613445575f8415613433578287015190505b61343d8582612da6565b8655506134a4565b601f19841661345386612648565b5f5b8281101561347a57848901518255600182019150602085019450602081019050613455565b868310156134975784890151613493601f891682612d8a565b8355505b6001600288020188555050505b50505050505056fea26469706673582212203b5cdf32e3ac2e883f09c0edbc07f9e2691a74747b1f0b90423d41c34bbd0ca564736f6c634300081e0033",
			"opcodes": "PUSH1 0x80 PUSH1 0x40 MSTORE PUSH1 0x5 PUSH1 0x8 SSTORE PUSH1 0xA PUSH1 0x9 SSTORE CALLVALUE DUP1 ISZERO PUSH2 0x19 JUMPI PUSH0 PUSH0 REVERT JUMPDEST POP PUSH1 0x40 MLOAD PUSH2 0x3707 CODESIZE SUB DUP1 PUSH2 0x3707 DUP4 CODECOPY DUP2 DUP2 ADD PUSH1 0x40 MSTORE DUP2 ADD SWAP1 PUSH2 0x3B SWAP2 SWAP1 PUSH2 0x1A0 JUMP JUMPDEST PUSH1 0x1 PUSH0 DUP2 SWAP1 SSTORE POP DUP3 PUSH1 0x1 PUSH0 PUSH2 0x100 EXP DUP2 SLOAD DUP2 PUSH20 0xFFFFFFFFFFFFFFFFFFFFFFFFFFFFFFFFFFFFFFFF MUL NOT AND SWAP1 DUP4 PUSH20 0xFFFFFFFFFFFFFFFFFFFFFFFFFFFFFFFFFFFFFFFF AND MUL OR SWAP1 SSTORE POP DUP2 PUSH1 0x5 DUP2 SWAP1 SSTORE POP DUP1 PUSH1 0x6 DUP2 SWAP1 SSTORE POP CALLER PUSH1 0x7 PUSH0 PUSH2 0x100 EXP DUP2 SLOAD DUP2 PUSH20 0xFFFFFFFFFFFFFFFFFFFFFFFFFFFFFFFFFFFFFFFF MUL NOT AND SWAP1 DUP4 PUSH20 0xFFFFFFFFFFFFFFFFFFFFFFFFFFFFFFFFFFFFFFFF AND MUL OR SWAP1 SSTORE POP PUSH32 0x980B903EFEA70E6B1BD235B1FB05F1A5DA73CBD478B73C9538053F9EB29F129F DUP2 PUSH1 0x40 MLOAD PUSH2 0xFF SWAP2 SWAP1 PUSH2 0x1FF JUMP JUMPDEST PUSH1 0x40 MLOAD DUP1 SWAP2 SUB SWAP1 LOG1 POP POP POP PUSH2 0x218 JUMP JUMPDEST PUSH0 PUSH0 REVERT JUMPDEST PUSH0 PUSH20 0xFFFFFFFFFFFFFFFFFFFFFFFFFFFFFFFFFFFFFFFF DUP3 AND SWAP1 POP SWAP2 SWAP1 POP JUMP JUMPDEST PUSH0 PUSH2 0x13C DUP3 PUSH2 0x113 JUMP JUMPDEST SWAP1 POP SWAP2 SWAP1 POP JUMP JUMPDEST PUSH2 0x14C DUP2 PUSH2 0x132 JUMP JUMPDEST DUP2 EQ PUSH2 0x156 JUMPI PUSH0 PUSH0 REVERT JUMPDEST POP JUMP JUMPDEST PUSH0 DUP2 MLOAD SWAP1 POP PUSH2 0x167 DUP2 PUSH2 0x143 JUMP JUMPDEST SWAP3 SWAP2 POP POP JUMP JUMPDEST PUSH0 DUP2 SWAP1 POP SWAP2 SWAP1 POP JUMP JUMPDEST PUSH2 0x17F DUP2 PUSH2 0x16D JUMP JUMPDEST DUP2 EQ PUSH2 0x189 JUMPI PUSH0 PUSH0 REVERT JUMPDEST POP JUMP JUMPDEST PUSH0 DUP2 MLOAD SWAP1 POP PUSH2 0x19A DUP2 PUSH2 0x176 JUMP JUMPDEST SWAP3 SWAP2 POP POP JUMP JUMPDEST PUSH0 PUSH0 PUSH0 PUSH1 0x60 DUP5 DUP7 SUB SLT ISZERO PUSH2 0x1B7 JUMPI PUSH2 0x1B6 PUSH2 0x10F JUMP JUMPDEST JUMPDEST PUSH0 PUSH2 0x1C4 DUP7 DUP3 DUP8 ADD PUSH2 0x159 JUMP JUMPDEST SWAP4 POP POP PUSH1 0x20 PUSH2 0x1D5 DUP7 DUP3 DUP8 ADD PUSH2 0x18C JUMP JUMPDEST SWAP3 POP POP PUSH1 0x40 PUSH2 0x1E6 DUP7 DUP3 DUP8 ADD PUSH2 0x18C JUMP JUMPDEST SWAP2 POP POP SWAP3 POP SWAP3 POP SWAP3 JUMP JUMPDEST PUSH2 0x1F9 DUP2 PUSH2 0x16D JUMP JUMPDEST DUP3 MSTORE POP POP JUMP JUMPDEST PUSH0 PUSH1 0x20 DUP3 ADD SWAP1 POP PUSH2 0x212 PUSH0 DUP4 ADD DUP5 PUSH2 0x1F0 JUMP JUMPDEST SWAP3 SWAP2 POP POP JUMP JUMPDEST PUSH2 0x34E2 DUP1 PUSH2 0x225 PUSH0 CODECOPY PUSH0 RETURN INVALID PUSH1 0x80 PUSH1 0x40 MSTORE CALLVALUE DUP1 ISZERO PUSH2 0xF JUMPI PUSH0 PUSH0 REVERT JUMPDEST POP PUSH1 0x4 CALLDATASIZE LT PUSH2 0x114 JUMPI PUSH0 CALLDATALOAD PUSH1 0xE0 SHR DUP1 PUSH4 0x43859632 GT PUSH2 0xA0 JUMPI DUP1 PUSH4 0xAF42D03A GT PUSH2 0x6F JUMPI DUP1 PUSH4 0xAF42D03A EQ PUSH2 0x2E5 JUMPI DUP1 PUSH4 0xC9D27AFE EQ PUSH2 0x301 JUMPI DUP1 PUSH4 0xF851A440 EQ PUSH2 0x31D JUMPI DUP1 PUSH4 0xF91F88F7 EQ PUSH2 0x33B JUMPI DUP1 PUSH4 0xF96DAE0A EQ PUSH2 0x36B JUMPI PUSH2 0x114 JUMP JUMPDEST DUP1 PUSH4 0x43859632 EQ PUSH2 0x24B JUMPI DUP1 PUSH4 0x45BB1550 EQ PUSH2 0x27B JUMPI DUP1 PUSH4 0x4FA76EC9 EQ PUSH2 0x2AB JUMPI DUP1 PUSH4 0x5652077C EQ PUSH2 0x2C9 JUMPI PUSH2 0x114 JUMP JUMPDEST DUP1 PUSH4 0x150FEA09 GT PUSH2 0xE7 JUMPI DUP1 PUSH4 0x150FEA09 EQ PUSH2 0x1A7 JUMPI DUP1 PUSH4 0x2AB09D14 EQ PUSH2 0x1C3 JUMPI DUP1 PUSH4 0x2BBCA157 EQ PUSH2 0x1E1 JUMPI DUP1 PUSH4 0x32F6A1DC EQ PUSH2 0x1FF JUMPI DUP1 PUSH4 0x3B4D01A7 EQ PUSH2 0x21B JUMPI PUSH2 0x114 JUMP JUMPDEST DUP1 PUSH4 0x13CF08B EQ PUSH2 0x118 JUMPI DUP1 PUSH4 0xD61B519 EQ PUSH2 0x14F JUMPI DUP1 PUSH4 0xE7CA9E3 EQ PUSH2 0x16B JUMPI DUP1 PUSH4 0x132002FC EQ PUSH2 0x189 JUMPI JUMPDEST PUSH0 PUSH0 REVERT JUMPDEST PUSH2 0x132 PUSH1 0x4 DUP1 CALLDATASIZE SUB DUP2 ADD SWAP1 PUSH2 0x12D SWAP2 SWAP1 PUSH2 0x1CC5 JUMP JUMPDEST PUSH2 0x389 JUMP JUMPDEST PUSH1 0x40 MLOAD PUSH2 0x146 SWAP9 SWAP8 SWAP7 SWAP6 SWAP5 SWAP4 SWAP3 SWAP2 SWAP1 PUSH2 0x1DC8 JUMP JUMPDEST PUSH1 0x40 MLOAD DUP1 SWAP2 SUB SWAP1 RETURN JUMPDEST PUSH2 0x169 PUSH1 0x4 DUP1 CALLDATASIZE SUB DUP2 ADD SWAP1 PUSH2 0x164 SWAP2 SWAP1 PUSH2 0x1CC5 JUMP JUMPDEST PUSH2 0x47F JUMP JUMPDEST STOP JUMPDEST PUSH2 0x173 PUSH2 0x846 JUMP JUMPDEST PUSH1 0x40 MLOAD PUSH2 0x180 SWAP2 SWAP1 PUSH2 0x1E4B JUMP JUMPDEST PUSH1 0x40 MLOAD DUP1 SWAP2 SUB SWAP1 RETURN JUMPDEST PUSH2 0x191 PUSH2 0x84C JUMP JUMPDEST PUSH1 0x40 MLOAD PUSH2 0x19E SWAP2 SWAP1 PUSH2 0x1E4B JUMP JUMPDEST PUSH1 0x40 MLOAD DUP1 SWAP2 SUB SWAP1 RETURN JUMPDEST PUSH2 0x1C1 PUSH1 0x4 DUP1 CALLDATASIZE SUB DUP2 ADD SWAP1 PUSH2 0x1BC SWAP2 SWAP1 PUSH2 0x1CC5 JUMP JUMPDEST PUSH2 0x852 JUMP JUMPDEST STOP JUMPDEST PUSH2 0x1CB PUSH2 0x922 JUMP JUMPDEST PUSH1 0x40 MLOAD PUSH2 0x1D8 SWAP2 SWAP1 PUSH2 0x1E4B JUMP JUMPDEST PUSH1 0x40 MLOAD DUP1 SWAP2 SUB SWAP1 RETURN JUMPDEST PUSH2 0x1E9 PUSH2 0x928 JUMP JUMPDEST PUSH1 0x40 MLOAD PUSH2 0x1F6 SWAP2 SWAP1 PUSH2 0x1E4B JUMP JUMPDEST PUSH1 0x40 MLOAD DUP1 SWAP2 SUB SWAP1 RETURN JUMPDEST PUSH2 0x219 PUSH1 0x4 DUP1 CALLDATASIZE SUB DUP2 ADD SWAP1 PUSH2 0x214 SWAP2 SWAP1 PUSH2 0x1CC5 JUMP JUMPDEST PUSH2 0x92E JUMP JUMPDEST STOP JUMPDEST PUSH2 0x235 PUSH1 0x4 DUP1 CALLDATASIZE SUB DUP2 ADD SWAP1 PUSH2 0x230 SWAP2 SWAP1 PUSH2 0x1CC5 JUMP JUMPDEST PUSH2 0xA0B JUMP JUMPDEST PUSH1 0x40 MLOAD PUSH2 0x242 SWAP2 SWAP1 PUSH2 0x2173 JUMP JUMPDEST PUSH1 0x40 MLOAD DUP1 SWAP2 SUB SWAP1 RETURN JUMPDEST PUSH2 0x265 PUSH1 0x4 DUP1 CALLDATASIZE SUB DUP2 ADD SWAP1 PUSH2 0x260 SWAP2 SWAP1 PUSH2 0x21BD JUMP JUMPDEST PUSH2 0xCC7 JUMP JUMPDEST PUSH1 0x40 MLOAD PUSH2 0x272 SWAP2 SWAP1 PUSH2 0x21FB JUMP JUMPDEST PUSH1 0x40 MLOAD DUP1 SWAP2 SUB SWAP1 RETURN JUMPDEST PUSH2 0x295 PUSH1 0x4 DUP1 CALLDATASIZE SUB DUP2 ADD SWAP1 PUSH2 0x290 SWAP2 SWAP1 PUSH2 0x231F JUMP JUMPDEST PUSH2 0xCF1 JUMP JUMPDEST PUSH1 0x40 MLOAD PUSH2 0x2A2 SWAP2 SWAP1 PUSH2 0x1E4B JUMP JUMPDEST PUSH1 0x40 MLOAD DUP1 SWAP2 SUB SWAP1 RETURN JUMPDEST PUSH2 0x2B3 PUSH2 0x1162 JUMP JUMPDEST PUSH1 0x40 MLOAD PUSH2 0x2C0 SWAP2 SWAP1 PUSH2 0x1E4B JUMP JUMPDEST PUSH1 0x40 MLOAD DUP1 SWAP2 SUB SWAP1 RETURN JUMPDEST PUSH2 0x2E3 PUSH1 0x4 DUP1 CALLDATASIZE SUB DUP2 ADD SWAP1 PUSH2 0x2DE SWAP2 SWAP1 PUSH2 0x1CC5 JUMP JUMPDEST PUSH2 0x1168 JUMP JUMPDEST STOP JUMPDEST PUSH2 0x2FF PUSH1 0x4 DUP1 CALLDATASIZE SUB DUP2 ADD SWAP1 PUSH2 0x2FA SWAP2 SWAP1 PUSH2 0x1CC5 JUMP JUMPDEST PUSH2 0x1434 JUMP JUMPDEST STOP JUMPDEST PUSH2 0x31B PUSH1 0x4 DUP1 CALLDATASIZE SUB DUP2 ADD SWAP1 PUSH2 0x316 SWAP2 SWAP1 PUSH2 0x23F9 JUMP JUMPDEST PUSH2 0x14CD JUMP JUMPDEST STOP JUMPDEST PUSH2 0x325 PUSH2 0x181D JUMP JUMPDEST PUSH1 0x40 MLOAD PUSH2 0x332 SWAP2 SWAP1 PUSH2 0x2437 JUMP JUMPDEST PUSH1 0x40 MLOAD DUP1 SWAP2 SUB SWAP1 RETURN JUMPDEST PUSH2 0x355 PUSH1 0x4 DUP1 CALLDATASIZE SUB DUP2 ADD SWAP1 PUSH2 0x350 SWAP2 SWAP1 PUSH2 0x1CC5 JUMP JUMPDEST PUSH2 0x1842 JUMP JUMPDEST PUSH1 0x40 MLOAD PUSH2 0x362 SWAP2 SWAP1 PUSH2 0x2450 JUMP JUMPDEST PUSH1 0x40 MLOAD DUP1 SWAP2 SUB SWAP1 RETURN JUMPDEST PUSH2 0x373 PUSH2 0x1A49 JUMP JUMPDEST PUSH1 0x40 MLOAD PUSH2 0x380 SWAP2 SWAP1 PUSH2 0x24CB JUMP JUMPDEST PUSH1 0x40 MLOAD DUP1 SWAP2 SUB SWAP1 RETURN JUMPDEST PUSH1 0x2 PUSH1 0x20 MSTORE DUP1 PUSH0 MSTORE PUSH1 0x40 PUSH0 KECCAK256 PUSH0 SWAP2 POP SWAP1 POP DUP1 PUSH0 ADD SLOAD SWAP1 DUP1 PUSH1 0x1 ADD DUP1 SLOAD PUSH2 0x3AE SWAP1 PUSH2 0x2511 JUMP JUMPDEST DUP1 PUSH1 0x1F ADD PUSH1 0x20 DUP1 SWAP2 DIV MUL PUSH1 0x20 ADD PUSH1 0x40 MLOAD SWAP1 DUP2 ADD PUSH1 0x40 MSTORE DUP1 SWAP3 SWAP2 SWAP1 DUP2 DUP2 MSTORE PUSH1 0x20 ADD DUP3 DUP1 SLOAD PUSH2 0x3DA SWAP1 PUSH2 0x2511 JUMP JUMPDEST DUP1 ISZERO PUSH2 0x425 JUMPI DUP1 PUSH1 0x1F LT PUSH2 0x3FC JUMPI PUSH2 0x100 DUP1 DUP4 SLOAD DIV MUL DUP4 MSTORE SWAP2 PUSH1 0x20 ADD SWAP2 PUSH2 0x425 JUMP JUMPDEST DUP3 ADD SWAP2 SWAP1 PUSH0 MSTORE PUSH1 0x20 PUSH0 KECCAK256 SWAP1 JUMPDEST DUP2 SLOAD DUP2 MSTORE SWAP1 PUSH1 0x1 ADD SWAP1 PUSH1 0x20 ADD DUP1 DUP4 GT PUSH2 0x408 JUMPI DUP3 SWAP1 SUB PUSH1 0x1F AND DUP3 ADD SWAP2 JUMPDEST POP POP POP POP POP SWAP1 DUP1 PUSH1 0x2 ADD SLOAD SWAP1 DUP1 PUSH1 0x3 ADD SLOAD SWAP1 DUP1 PUSH1 0x4 ADD SLOAD SWAP1 DUP1 PUSH1 0x5 ADD PUSH0 SWAP1 SLOAD SWAP1 PUSH2 0x100 EXP SWAP1 DIV PUSH1 0xFF AND SWAP1 DUP1 PUSH1 0x5 ADD PUSH1 0x1 SWAP1 SLOAD SWAP1 PUSH2 0x100 EXP SWAP1 DIV PUSH20 0xFFFFFFFFFFFFFFFFFFFFFFFFFFFFFFFFFFFFFFFF AND SWAP1 DUP1 PUSH1 0x8 ADD SLOAD SWAP1 POP DUP9 JUMP JUMPDEST PUSH2 0x487 PUSH2 0x1A6E JUMP JUMPDEST PUSH0 PUSH1 0x2 PUSH0 DUP4 DUP2 MSTORE PUSH1 0x20 ADD SWAP1 DUP2 MSTORE PUSH1 0x20 ADD PUSH0 KECCAK256 SWAP1 POP DUP1 PUSH1 0x5 ADD PUSH0 SWAP1 SLOAD SWAP1 PUSH2 0x100 EXP SWAP1 DIV PUSH1 0xFF AND ISZERO PUSH2 0x4EC JUMPI PUSH1 0x40 MLOAD PUSH32 0x8C379A000000000000000000000000000000000000000000000000000000000 DUP2 MSTORE PUSH1 0x4 ADD PUSH2 0x4E3 SWAP1 PUSH2 0x258B JUMP JUMPDEST PUSH1 0x40 MLOAD DUP1 SWAP2 SUB SWAP1 REVERT JUMPDEST PUSH0 DUP2 PUSH1 0x8 ADD SLOAD GT DUP1 ISZERO PUSH2 0x503 JUMPI POP DUP1 PUSH1 0x8 ADD SLOAD TIMESTAMP LT ISZERO JUMPDEST PUSH2 0x542 JUMPI PUSH1 0x40 MLOAD PUSH32 0x8C379A000000000000000000000000000000000000000000000000000000000 DUP2 MSTORE PUSH1 0x4 ADD PUSH2 0x539 SWAP1 PUSH2 0x25F3 JUMP JUMPDEST PUSH1 0x40 MLOAD DUP1 SWAP2 SUB SWAP1 REVERT JUMPDEST PUSH1 0x1 DUP2 PUSH1 0x5 ADD PUSH0 PUSH2 0x100 EXP DUP2 SLOAD DUP2 PUSH1 0xFF MUL NOT AND SWAP1 DUP4 ISZERO ISZERO MUL OR SWAP1 SSTORE POP PUSH0 DUP2 PUSH1 0x4 ADD SLOAD DUP3 PUSH1 0x3 ADD SLOAD GT SWAP1 POP DUP1 ISZERO PUSH2 0x7FF JUMPI PUSH0 PUSH0 SWAP1 POP JUMPDEST DUP3 PUSH1 0x7 ADD DUP1 SLOAD SWAP1 POP DUP2 LT ISZERO PUSH2 0x69D JUMPI PUSH0 PUSH0 DUP5 PUSH1 0x7 ADD DUP4 DUP2 SLOAD DUP2 LT PUSH2 0x59E JUMPI PUSH2 0x59D PUSH2 0x2611 JUMP JUMPDEST JUMPDEST SWAP1 PUSH0 MSTORE PUSH1 0x20 PUSH0 KECCAK256 ADD PUSH0 SWAP1 SLOAD SWAP1 PUSH2 0x100 EXP SWAP1 DIV PUSH20 0xFFFFFFFFFFFFFFFFFFFFFFFFFFFFFFFFFFFFFFFF AND PUSH20 0xFFFFFFFFFFFFFFFFFFFFFFFFFFFFFFFFFFFFFFFF AND DUP6 PUSH1 0x6 ADD DUP5 DUP2 SLOAD DUP2 LT PUSH2 0x5F2 JUMPI PUSH2 0x5F1 PUSH2 0x2611 JUMP JUMPDEST JUMPDEST SWAP1 PUSH0 MSTORE PUSH1 0x20 PUSH0 KECCAK256 ADD PUSH1 0x40 MLOAD PUSH2 0x607 SWAP2 SWAP1 PUSH2 0x26DA JUMP JUMPDEST PUSH0 PUSH1 0x40 MLOAD DUP1 DUP4 SUB DUP2 PUSH0 DUP7 GAS CALL SWAP2 POP POP RETURNDATASIZE DUP1 PUSH0 DUP2 EQ PUSH2 0x640 JUMPI PUSH1 0x40 MLOAD SWAP2 POP PUSH1 0x1F NOT PUSH1 0x3F RETURNDATASIZE ADD AND DUP3 ADD PUSH1 0x40 MSTORE RETURNDATASIZE DUP3 MSTORE RETURNDATASIZE PUSH0 PUSH1 0x20 DUP5 ADD RETURNDATACOPY PUSH2 0x645 JUMP JUMPDEST PUSH1 0x60 SWAP2 POP JUMPDEST POP SWAP2 POP SWAP2 POP DUP2 DUP2 SWAP1 PUSH2 0x68D JUMPI PUSH1 0x40 MLOAD PUSH32 0x8C379A000000000000000000000000000000000000000000000000000000000 DUP2 MSTORE PUSH1 0x4 ADD PUSH2 0x684 SWAP2 SWAP1 PUSH2 0x2450 JUMP JUMPDEST PUSH1 0x40 MLOAD DUP1 SWAP2 SUB SWAP1 REVERT JUMPDEST POP POP POP DUP1 DUP1 PUSH1 0x1 ADD SWAP2 POP POP PUSH2 0x577 JUMP JUMPDEST POP PUSH32 0x948F4A9CD986F1118C3FBD459F7A22B23C0693E1CA3EF06A6A8BE5AA7D39CC03 DUP4 PUSH1 0x1 PUSH1 0x40 MLOAD PUSH2 0x6D0 SWAP3 SWAP2 SWAP1 PUSH2 0x26F0 JUMP JUMPDEST PUSH1 0x40 MLOAD DUP1 SWAP2 SUB SWAP1 LOG1 PUSH1 0x1 PUSH0 SWAP1 SLOAD SWAP1 PUSH2 0x100 EXP SWAP1 DIV PUSH20 0xFFFFFFFFFFFFFFFFFFFFFFFFFFFFFFFFFFFFFFFF AND PUSH20 0xFFFFFFFFFFFFFFFFFFFFFFFFFFFFFFFFFFFFFFFF AND PUSH4 0xA9059CBB DUP4 PUSH1 0x5 ADD PUSH1 0x1 SWAP1 SLOAD SWAP1 PUSH2 0x100 EXP SWAP1 DIV PUSH20 0xFFFFFFFFFFFFFFFFFFFFFFFFFFFFFFFFFFFFFFFF AND PUSH1 0x9 SLOAD PUSH1 0x40 MLOAD DUP4 PUSH4 0xFFFFFFFF AND PUSH1 0xE0 SHL DUP2 MSTORE PUSH1 0x4 ADD PUSH2 0x75A SWAP3 SWAP2 SWAP1 PUSH2 0x2717 JUMP JUMPDEST PUSH1 0x20 PUSH1 0x40 MLOAD DUP1 DUP4 SUB DUP2 PUSH0 DUP8 GAS CALL ISZERO DUP1 ISZERO PUSH2 0x776 JUMPI RETURNDATASIZE PUSH0 PUSH0 RETURNDATACOPY RETURNDATASIZE PUSH0 REVERT JUMPDEST POP POP POP POP PUSH1 0x40 MLOAD RETURNDATASIZE PUSH1 0x1F NOT PUSH1 0x1F DUP3 ADD AND DUP3 ADD DUP1 PUSH1 0x40 MSTORE POP DUP2 ADD SWAP1 PUSH2 0x79A SWAP2 SWAP1 PUSH2 0x2752 JUMP JUMPDEST POP PUSH32 0x2546A7BC752300D17B50A92B5886B2FE2B288852835580D6A6F9742C28690EB1 DUP3 PUSH1 0x5 ADD PUSH1 0x1 SWAP1 SLOAD SWAP1 PUSH2 0x100 EXP SWAP1 DIV PUSH20 0xFFFFFFFFFFFFFFFFFFFFFFFFFFFFFFFFFFFFFFFF AND PUSH1 0x9 SLOAD PUSH1 0x40 MLOAD PUSH2 0x7F2 SWAP3 SWAP2 SWAP1 PUSH2 0x2717 JUMP JUMPDEST PUSH1 0x40 MLOAD DUP1 SWAP2 SUB SWAP1 LOG1 PUSH2 0x839 JUMP JUMPDEST PUSH32 0x948F4A9CD986F1118C3FBD459F7A22B23C0693E1CA3EF06A6A8BE5AA7D39CC03 DUP4 PUSH0 PUSH1 0x40 MLOAD PUSH2 0x830 SWAP3 SWAP2 SWAP1 PUSH2 0x26F0 JUMP JUMPDEST PUSH1 0x40 MLOAD DUP1 SWAP2 SUB SWAP1 LOG1 JUMPDEST POP POP PUSH2 0x843 PUSH2 0x1ABB JUMP JUMPDEST POP JUMP JUMPDEST PUSH1 0x9 SLOAD DUP2 JUMP JUMPDEST PUSH1 0x5 SLOAD DUP2 JUMP JUMPDEST PUSH1 0x7 PUSH0 SWAP1 SLOAD SWAP1 PUSH2 0x100 EXP SWAP1 DIV PUSH20 0xFFFFFFFFFFFFFFFFFFFFFFFFFFFFFFFFFFFFFFFF AND PUSH20 0xFFFFFFFFFFFFFFFFFFFFFFFFFFFFFFFFFFFFFFFF AND CALLER PUSH20 0xFFFFFFFFFFFFFFFFFFFFFFFFFFFFFFFFFFFFFFFF AND EQ PUSH2 0x8E1 JUMPI PUSH1 0x40 MLOAD PUSH32 0x8C379A000000000000000000000000000000000000000000000000000000000 DUP2 MSTORE PUSH1 0x4 ADD PUSH2 0x8D8 SWAP1 PUSH2 0x27C7 JUMP JUMPDEST PUSH1 0x40 MLOAD DUP1 SWAP2 SUB SWAP1 REVERT JUMPDEST DUP1 PUSH1 0x6 DUP2 SWAP1 SSTORE POP PUSH32 0x980B903EFEA70E6B1BD235B1FB05F1A5DA73CBD478B73C9538053F9EB29F129F DUP2 PUSH1 0x40 MLOAD PUSH2 0x917 SWAP2 SWAP1 PUSH2 0x1E4B JUMP JUMPDEST PUSH1 0x40 MLOAD DUP1 SWAP2 SUB SWAP1 LOG1 POP JUMP JUMPDEST PUSH1 0x4 SLOAD DUP2 JUMP JUMPDEST PUSH1 0x6 SLOAD DUP2 JUMP JUMPDEST PUSH1 0x7 PUSH0 SWAP1 SLOAD SWAP1 PUSH2 0x100 EXP SWAP1 DIV PUSH20 0xFFFFFFFFFFFFFFFFFFFFFFFFFFFFFFFFFFFFFFFF AND PUSH20 0xFFFFFFFFFFFFFFFFFFFFFFFFFFFFFFFFFFFFFFFF AND CALLER PUSH20 0xFFFFFFFFFFFFFFFFFFFFFFFFFFFFFFFFFFFFFFFF AND EQ PUSH2 0x9BD JUMPI PUSH1 0x40 MLOAD PUSH32 0x8C379A000000000000000000000000000000000000000000000000000000000 DUP2 MSTORE PUSH1 0x4 ADD PUSH2 0x9B4 SWAP1 PUSH2 0x27C7 JUMP JUMPDEST PUSH1 0x40 MLOAD DUP1 SWAP2 SUB SWAP1 REVERT JUMPDEST PUSH1 0x64 DUP2 GT ISZERO PUSH2 0xA01 JUMPI PUSH1 0x40 MLOAD PUSH32 0x8C379A000000000000000000000000000000000000000000000000000000000 DUP2 MSTORE PUSH1 0x4 ADD PUSH2 0x9F8 SWAP1 PUSH2 0x2855 JUMP JUMPDEST PUSH1 0x40 MLOAD DUP1 SWAP2 SUB SWAP1 REVERT JUMPDEST DUP1 PUSH1 0x8 DUP2 SWAP1 SSTORE POP POP JUMP JUMPDEST PUSH2 0xA13 PUSH2 0x1AC4 JUMP JUMPDEST PUSH1 0x2 PUSH0 DUP4 DUP2 MSTORE PUSH1 0x20 ADD SWAP1 DUP2 MSTORE PUSH1 0x20 ADD PUSH0 KECCAK256 PUSH1 0x40 MLOAD DUP1 PUSH2 0x140 ADD PUSH1 0x40 MSTORE SWAP1 DUP2 PUSH0 DUP3 ADD SLOAD DUP2 MSTORE PUSH1 0x20 ADD PUSH1 0x1 DUP3 ADD DUP1 SLOAD PUSH2 0xA49 SWAP1 PUSH2 0x2511 JUMP JUMPDEST DUP1 PUSH1 0x1F ADD PUSH1 0x20 DUP1 SWAP2 DIV MUL PUSH1 0x20 ADD PUSH1 0x40 MLOAD SWAP1 DUP2 ADD PUSH1 0x40 MSTORE DUP1 SWAP3 SWAP2 SWAP1 DUP2 DUP2 MSTORE PUSH1 0x20 ADD DUP3 DUP1 SLOAD PUSH2 0xA75 SWAP1 PUSH2 0x2511 JUMP JUMPDEST DUP1 ISZERO PUSH2 0xAC0 JUMPI DUP1 PUSH1 0x1F LT PUSH2 0xA97 JUMPI PUSH2 0x100 DUP1 DUP4 SLOAD DIV MUL DUP4 MSTORE SWAP2 PUSH1 0x20 ADD SWAP2 PUSH2 0xAC0 JUMP JUMPDEST DUP3 ADD SWAP2 SWAP1 PUSH0 MSTORE PUSH1 0x20 PUSH0 KECCAK256 SWAP1 JUMPDEST DUP2 SLOAD DUP2 MSTORE SWAP1 PUSH1 0x1 ADD SWAP1 PUSH1 0x20 ADD DUP1 DUP4 GT PUSH2 0xAA3 JUMPI DUP3 SWAP1 SUB PUSH1 0x1F AND DUP3 ADD SWAP2 JUMPDEST POP POP POP POP POP DUP2 MSTORE PUSH1 0x20 ADD PUSH1 0x2 DUP3 ADD SLOAD DUP2 MSTORE PUSH1 0x20 ADD PUSH1 0x3 DUP3 ADD SLOAD DUP2 MSTORE PUSH1 0x20 ADD PUSH1 0x4 DUP3 ADD SLOAD DUP2 MSTORE PUSH1 0x20 ADD PUSH1 0x5 DUP3 ADD PUSH0 SWAP1 SLOAD SWAP1 PUSH2 0x100 EXP SWAP1 DIV PUSH1 0xFF AND ISZERO ISZERO ISZERO ISZERO DUP2 MSTORE PUSH1 0x20 ADD PUSH1 0x5 DUP3 ADD PUSH1 0x1 SWAP1 SLOAD SWAP1 PUSH2 0x100 EXP SWAP1 DIV PUSH20 0xFFFFFFFFFFFFFFFFFFFFFFFFFFFFFFFFFFFFFFFF AND PUSH20 0xFFFFFFFFFFFFFFFFFFFFFFFFFFFFFFFFFFFFFFFF AND PUSH20 0xFFFFFFFFFFFFFFFFFFFFFFFFFFFFFFFFFFFFFFFF AND DUP2 MSTORE PUSH1 0x20 ADD PUSH1 0x6 DUP3 ADD DUP1 SLOAD DUP1 PUSH1 0x20 MUL PUSH1 0x20 ADD PUSH1 0x40 MLOAD SWAP1 DUP2 ADD PUSH1 0x40 MSTORE DUP1 SWAP3 SWAP2 SWAP1 DUP2 DUP2 MSTORE PUSH1 0x20 ADD PUSH0 SWAP1 JUMPDEST DUP3 DUP3 LT ISZERO PUSH2 0xC23 JUMPI DUP4 DUP3 SWAP1 PUSH0 MSTORE PUSH1 0x20 PUSH0 KECCAK256 ADD DUP1 SLOAD PUSH2 0xB98 SWAP1 PUSH2 0x2511 JUMP JUMPDEST DUP1 PUSH1 0x1F ADD PUSH1 0x20 DUP1 SWAP2 DIV MUL PUSH1 0x20 ADD PUSH1 0x40 MLOAD SWAP1 DUP2 ADD PUSH1 0x40 MSTORE DUP1 SWAP3 SWAP2 SWAP1 DUP2 DUP2 MSTORE PUSH1 0x20 ADD DUP3 DUP1 SLOAD PUSH2 0xBC4 SWAP1 PUSH2 0x2511 JUMP JUMPDEST DUP1 ISZERO PUSH2 0xC0F JUMPI DUP1 PUSH1 0x1F LT PUSH2 0xBE6 JUMPI PUSH2 0x100 DUP1 DUP4 SLOAD DIV MUL DUP4 MSTORE SWAP2 PUSH1 0x20 ADD SWAP2 PUSH2 0xC0F JUMP JUMPDEST DUP3 ADD SWAP2 SWAP1 PUSH0 MSTORE PUSH1 0x20 PUSH0 KECCAK256 SWAP1 JUMPDEST DUP2 SLOAD DUP2 MSTORE SWAP1 PUSH1 0x1 ADD SWAP1 PUSH1 0x20 ADD DUP1 DUP4 GT PUSH2 0xBF2 JUMPI DUP3 SWAP1 SUB PUSH1 0x1F AND DUP3 ADD SWAP2 JUMPDEST POP POP POP POP POP DUP2 MSTORE PUSH1 0x20 ADD SWAP1 PUSH1 0x1 ADD SWAP1 PUSH2 0xB7B JUMP JUMPDEST POP POP POP POP DUP2 MSTORE PUSH1 0x20 ADD PUSH1 0x7 DUP3 ADD DUP1 SLOAD DUP1 PUSH1 0x20 MUL PUSH1 0x20 ADD PUSH1 0x40 MLOAD SWAP1 DUP2 ADD PUSH1 0x40 MSTORE DUP1 SWAP3 SWAP2 SWAP1 DUP2 DUP2 MSTORE PUSH1 0x20 ADD DUP3 DUP1 SLOAD DUP1 ISZERO PUSH2 0xCAD JUMPI PUSH1 0x20 MUL DUP3 ADD SWAP2 SWAP1 PUSH0 MSTORE PUSH1 0x20 PUSH0 KECCAK256 SWAP1 JUMPDEST DUP2 PUSH0 SWAP1 SLOAD SWAP1 PUSH2 0x100 EXP SWAP1 DIV PUSH20 0xFFFFFFFFFFFFFFFFFFFFFFFFFFFFFFFFFFFFFFFF AND PUSH20 0xFFFFFFFFFFFFFFFFFFFFFFFFFFFFFFFFFFFFFFFF AND DUP2 MSTORE PUSH1 0x20 ADD SWAP1 PUSH1 0x1 ADD SWAP1 DUP1 DUP4 GT PUSH2 0xC64 JUMPI JUMPDEST POP POP POP POP POP DUP2 MSTORE PUSH1 0x20 ADD PUSH1 0x8 DUP3 ADD SLOAD DUP2 MSTORE POP POP SWAP1 POP SWAP2 SWAP1 POP JUMP JUMPDEST PUSH1 0x3 PUSH1 0x20 MSTORE DUP2 PUSH0 MSTORE PUSH1 0x40 PUSH0 KECCAK256 PUSH1 0x20 MSTORE DUP1 PUSH0 MSTORE PUSH1 0x40 PUSH0 KECCAK256 PUSH0 SWAP2 POP SWAP2 POP SWAP1 SLOAD SWAP1 PUSH2 0x100 EXP SWAP1 DIV PUSH1 0xFF AND DUP2 JUMP JUMPDEST PUSH0 PUSH1 0x9 SLOAD PUSH1 0x1 PUSH0 SWAP1 SLOAD SWAP1 PUSH2 0x100 EXP SWAP1 DIV PUSH20 0xFFFFFFFFFFFFFFFFFFFFFFFFFFFFFFFFFFFFFFFF AND PUSH20 0xFFFFFFFFFFFFFFFFFFFFFFFFFFFFFFFFFFFFFFFF AND PUSH4 0x70A08231 CALLER PUSH1 0x40 MLOAD DUP3 PUSH4 0xFFFFFFFF AND PUSH1 0xE0 SHL DUP2 MSTORE PUSH1 0x4 ADD PUSH2 0xD4F SWAP2 SWAP1 PUSH2 0x2437 JUMP JUMPDEST PUSH1 0x20 PUSH1 0x40 MLOAD DUP1 DUP4 SUB DUP2 DUP7 GAS STATICCALL ISZERO DUP1 ISZERO PUSH2 0xD6A JUMPI RETURNDATASIZE PUSH0 PUSH0 RETURNDATACOPY RETURNDATASIZE PUSH0 REVERT JUMPDEST POP POP POP POP PUSH1 0x40 MLOAD RETURNDATASIZE PUSH1 0x1F NOT PUSH1 0x1F DUP3 ADD AND DUP3 ADD DUP1 PUSH1 0x40 MSTORE POP DUP2 ADD SWAP1 PUSH2 0xD8E SWAP2 SWAP1 PUSH2 0x2887 JUMP JUMPDEST LT ISZERO PUSH2 0xDCF JUMPI PUSH1 0x40 MLOAD PUSH32 0x8C379A000000000000000000000000000000000000000000000000000000000 DUP2 MSTORE PUSH1 0x4 ADD PUSH2 0xDC6 SWAP1 PUSH2 0x28FC JUMP JUMPDEST PUSH1 0x40 MLOAD DUP1 SWAP2 SUB SWAP1 REVERT JUMPDEST DUP3 DUP3 SWAP1 POP DUP6 DUP6 SWAP1 POP EQ PUSH2 0xE17 JUMPI PUSH1 0x40 MLOAD PUSH32 0x8C379A000000000000000000000000000000000000000000000000000000000 DUP2 MSTORE PUSH1 0x4 ADD PUSH2 0xE0E SWAP1 PUSH2 0x298A JUMP JUMPDEST PUSH1 0x40 MLOAD DUP1 SWAP2 SUB SWAP1 REVERT JUMPDEST PUSH1 0x1 PUSH0 SWAP1 SLOAD SWAP1 PUSH2 0x100 EXP SWAP1 DIV PUSH20 0xFFFFFFFFFFFFFFFFFFFFFFFFFFFFFFFFFFFFFFFF AND PUSH20 0xFFFFFFFFFFFFFFFFFFFFFFFFFFFFFFFFFFFFFFFF AND PUSH4 0x23B872DD CALLER ADDRESS PUSH1 0x9 SLOAD PUSH1 0x40 MLOAD DUP5 PUSH4 0xFFFFFFFF AND PUSH1 0xE0 SHL DUP2 MSTORE PUSH1 0x4 ADD PUSH2 0xE77 SWAP4 SWAP3 SWAP2 SWAP1 PUSH2 0x29A8 JUMP JUMPDEST PUSH1 0x20 PUSH1 0x40 MLOAD DUP1 DUP4 SUB DUP2 PUSH0 DUP8 GAS CALL ISZERO DUP1 ISZERO PUSH2 0xE93 JUMPI RETURNDATASIZE PUSH0 PUSH0 RETURNDATACOPY RETURNDATASIZE PUSH0 REVERT JUMPDEST POP POP POP POP PUSH1 0x40 MLOAD RETURNDATASIZE PUSH1 0x1F NOT PUSH1 0x1F DUP3 ADD AND DUP3 ADD DUP1 PUSH1 0x40 MSTORE POP DUP2 ADD SWAP1 PUSH2 0xEB7 SWAP2 SWAP1 PUSH2 0x2752 JUMP JUMPDEST POP PUSH32 0x9200EB963FCA008B6094FD66D5D35754456CC0BA263EACD64B45CE2062547171 CALLER PUSH1 0x9 SLOAD PUSH1 0x40 MLOAD PUSH2 0xEEB SWAP3 SWAP2 SWAP1 PUSH2 0x2717 JUMP JUMPDEST PUSH1 0x40 MLOAD DUP1 SWAP2 SUB SWAP1 LOG1 PUSH1 0x40 MLOAD DUP1 PUSH2 0x140 ADD PUSH1 0x40 MSTORE DUP1 PUSH1 0x4 SLOAD DUP2 MSTORE PUSH1 0x20 ADD DUP9 DUP9 DUP1 DUP1 PUSH1 0x1F ADD PUSH1 0x20 DUP1 SWAP2 DIV MUL PUSH1 0x20 ADD PUSH1 0x40 MLOAD SWAP1 DUP2 ADD PUSH1 0x40 MSTORE DUP1 SWAP4 SWAP3 SWAP2 SWAP1 DUP2 DUP2 MSTORE PUSH1 0x20 ADD DUP4 DUP4 DUP1 DUP3 DUP5 CALLDATACOPY PUSH0 DUP2 DUP5 ADD MSTORE PUSH1 0x1F NOT PUSH1 0x1F DUP3 ADD AND SWAP1 POP DUP1 DUP4 ADD SWAP3 POP POP POP POP POP POP POP DUP2 MSTORE PUSH1 0x20 ADD PUSH1 0x5 SLOAD TIMESTAMP PUSH2 0xF5E SWAP2 SWAP1 PUSH2 0x2A0A JUMP JUMPDEST DUP2 MSTORE PUSH1 0x20 ADD PUSH0 DUP2 MSTORE PUSH1 0x20 ADD PUSH0 DUP2 MSTORE PUSH1 0x20 ADD PUSH0 ISZERO ISZERO DUP2 MSTORE PUSH1 0x20 ADD CALLER PUSH20 0xFFFFFFFFFFFFFFFFFFFFFFFFFFFFFFFFFFFFFFFF AND DUP2 MSTORE PUSH1 0x20 ADD DUP5 DUP5 SWAP1 PUSH2 0xFA0 SWAP2 SWAP1 PUSH2 0x2C16 JUMP JUMPDEST DUP2 MSTORE PUSH1 0x20 ADD DUP7 DUP7 DUP1 DUP1 PUSH1 0x20 MUL PUSH1 0x20 ADD PUSH1 0x40 MLOAD SWAP1 DUP2 ADD PUSH1 0x40 MSTORE DUP1 SWAP4 SWAP3 SWAP2 SWAP1 DUP2 DUP2 MSTORE PUSH1 0x20 ADD DUP4 DUP4 PUSH1 0x20 MUL DUP1 DUP3 DUP5 CALLDATACOPY PUSH0 DUP2 DUP5 ADD MSTORE PUSH1 0x1F NOT PUSH1 0x1F DUP3 ADD AND SWAP1 POP DUP1 DUP4 ADD SWAP3 POP POP POP POP POP POP POP DUP2 MSTORE PUSH1 0x20 ADD PUSH0 DUP2 MSTORE POP PUSH1 0x2 PUSH0 PUSH1 0x4 SLOAD DUP2 MSTORE PUSH1 0x20 ADD SWAP1 DUP2 MSTORE PUSH1 0x20 ADD PUSH0 KECCAK256 PUSH0 DUP3 ADD MLOAD DUP2 PUSH0 ADD SSTORE PUSH1 0x20 DUP3 ADD MLOAD DUP2 PUSH1 0x1 ADD SWAP1 DUP2 PUSH2 0x101F SWAP2 SWAP1 PUSH2 0x2DC1 JUMP JUMPDEST POP PUSH1 0x40 DUP3 ADD MLOAD DUP2 PUSH1 0x2 ADD SSTORE PUSH1 0x60 DUP3 ADD MLOAD DUP2 PUSH1 0x3 ADD SSTORE PUSH1 0x80 DUP3 ADD MLOAD DUP2 PUSH1 0x4 ADD SSTORE PUSH1 0xA0 DUP3 ADD MLOAD DUP2 PUSH1 0x5 ADD PUSH0 PUSH2 0x100 EXP DUP2 SLOAD DUP2 PUSH1 0xFF MUL NOT AND SWAP1 DUP4 ISZERO ISZERO MUL OR SWAP1 SSTORE POP PUSH1 0xC0 DUP3 ADD MLOAD DUP2 PUSH1 0x5 ADD PUSH1 0x1 PUSH2 0x100 EXP DUP2 SLOAD DUP2 PUSH20 0xFFFFFFFFFFFFFFFFFFFFFFFFFFFFFFFFFFFFFFFF MUL NOT AND SWAP1 DUP4 PUSH20 0xFFFFFFFFFFFFFFFFFFFFFFFFFFFFFFFFFFFFFFFF AND MUL OR SWAP1 SSTORE POP PUSH1 0xE0 DUP3 ADD MLOAD DUP2 PUSH1 0x6 ADD SWAP1 DUP1 MLOAD SWAP1 PUSH1 0x20 ADD SWAP1 PUSH2 0x10C0 SWAP3 SWAP2 SWAP1 PUSH2 0x1B28 JUMP JUMPDEST POP PUSH2 0x100 DUP3 ADD MLOAD DUP2 PUSH1 0x7 ADD SWAP1 DUP1 MLOAD SWAP1 PUSH1 0x20 ADD SWAP1 PUSH2 0x10DE SWAP3 SWAP2 SWAP1 PUSH2 0x1B7F JUMP JUMPDEST POP PUSH2 0x120 DUP3 ADD MLOAD DUP2 PUSH1 0x8 ADD SSTORE SWAP1 POP POP PUSH32 0x9CC3D9DD626042CDEFB76484B91708C3207B637214B44F20111C893548D9C85F PUSH1 0x4 SLOAD DUP9 DUP9 CALLER PUSH1 0x9 SLOAD PUSH1 0x40 MLOAD PUSH2 0x1128 SWAP6 SWAP5 SWAP4 SWAP3 SWAP2 SWAP1 PUSH2 0x2EBC JUMP JUMPDEST PUSH1 0x40 MLOAD DUP1 SWAP2 SUB SWAP1 LOG1 PUSH1 0x4 PUSH0 DUP2 SLOAD DUP1 SWAP3 SWAP2 SWAP1 PUSH2 0x1142 SWAP1 PUSH2 0x2F08 JUMP JUMPDEST SWAP2 SWAP1 POP SSTORE POP PUSH1 0x1 PUSH1 0x4 SLOAD PUSH2 0x1156 SWAP2 SWAP1 PUSH2 0x2F4F JUMP JUMPDEST SWAP1 POP SWAP7 SWAP6 POP POP POP POP POP POP JUMP JUMPDEST PUSH1 0x8 SLOAD DUP2 JUMP JUMPDEST PUSH0 PUSH1 0x2 PUSH0 DUP4 DUP2 MSTORE PUSH1 0x20 ADD SWAP1 DUP2 MSTORE PUSH1 0x20 ADD PUSH0 KECCAK256 SWAP1 POP DUP1 PUSH1 0x2 ADD SLOAD TIMESTAMP LT ISZERO PUSH2 0x11C3 JUMPI PUSH1 0x40 MLOAD PUSH32 0x8C379A000000000000000000000000000000000000000000000000000000000 DUP2 MSTORE PUSH1 0x4 ADD PUSH2 0x11BA SWAP1 PUSH2 0x2FCC JUMP JUMPDEST PUSH1 0x40 MLOAD DUP1 SWAP2 SUB SWAP1 REVERT JUMPDEST DUP1 PUSH1 0x5 ADD PUSH0 SWAP1 SLOAD SWAP1 PUSH2 0x100 EXP SWAP1 DIV PUSH1 0xFF AND ISZERO PUSH2 0x1214 JUMPI PUSH1 0x40 MLOAD PUSH32 0x8C379A000000000000000000000000000000000000000000000000000000000 DUP2 MSTORE PUSH1 0x4 ADD PUSH2 0x120B SWAP1 PUSH2 0x258B JUMP JUMPDEST PUSH1 0x40 MLOAD DUP1 SWAP2 SUB SWAP1 REVERT JUMPDEST PUSH0 DUP2 PUSH1 0x8 ADD SLOAD EQ PUSH2 0x125A JUMPI PUSH1 0x40 MLOAD PUSH32 0x8C379A000000000000000000000000000000000000000000000000000000000 DUP2 MSTORE PUSH1 0x4 ADD PUSH2 0x1251 SWAP1 PUSH2 0x3034 JUMP JUMPDEST PUSH1 0x40 MLOAD DUP1 SWAP2 SUB SWAP1 REVERT JUMPDEST PUSH0 PUSH1 0x1 PUSH0 SWAP1 SLOAD SWAP1 PUSH2 0x100 EXP SWAP1 DIV PUSH20 0xFFFFFFFFFFFFFFFFFFFFFFFFFFFFFFFFFFFFFFFF AND PUSH20 0xFFFFFFFFFFFFFFFFFFFFFFFFFFFFFFFFFFFFFFFF AND PUSH4 0x18160DDD PUSH1 0x40 MLOAD DUP2 PUSH4 0xFFFFFFFF AND PUSH1 0xE0 SHL DUP2 MSTORE PUSH1 0x4 ADD PUSH1 0x20 PUSH1 0x40 MLOAD DUP1 DUP4 SUB DUP2 DUP7 GAS STATICCALL ISZERO DUP1 ISZERO PUSH2 0x12C5 JUMPI RETURNDATASIZE PUSH0 PUSH0 RETURNDATACOPY RETURNDATASIZE PUSH0 REVERT JUMPDEST POP POP POP POP PUSH1 0x40 MLOAD RETURNDATASIZE PUSH1 0x1F NOT PUSH1 0x1F DUP3 ADD AND DUP3 ADD DUP1 PUSH1 0x40 MSTORE POP DUP2 ADD SWAP1 PUSH2 0x12E9 SWAP2 SWAP1 PUSH2 0x2887 JUMP JUMPDEST SWAP1 POP PUSH0 DUP3 PUSH1 0x4 ADD SLOAD DUP4 PUSH1 0x3 ADD SLOAD PUSH2 0x1300 SWAP2 SWAP1 PUSH2 0x2A0A JUMP JUMPDEST SWAP1 POP PUSH0 PUSH1 0x64 PUSH1 0x8 SLOAD DUP5 PUSH2 0x1313 SWAP2 SWAP1 PUSH2 0x3052 JUMP JUMPDEST PUSH2 0x131D SWAP2 SWAP1 PUSH2 0x30C0 JUMP JUMPDEST SWAP1 POP DUP1 DUP3 LT ISZERO DUP1 ISZERO PUSH2 0x1336 JUMPI POP DUP4 PUSH1 0x4 ADD SLOAD DUP5 PUSH1 0x3 ADD SLOAD GT JUMPDEST ISZERO PUSH2 0x1393 JUMPI PUSH1 0x6 SLOAD TIMESTAMP PUSH2 0x1349 SWAP2 SWAP1 PUSH2 0x2A0A JUMP JUMPDEST DUP5 PUSH1 0x8 ADD DUP2 SWAP1 SSTORE POP PUSH32 0x87D6D2091FED10ACABBB0AB3B4D94E054408389F25732236E31CF21FB2343151 DUP6 DUP6 PUSH1 0x8 ADD SLOAD PUSH1 0x40 MLOAD PUSH2 0x1386 SWAP3 SWAP2 SWAP1 PUSH2 0x30F0 JUMP JUMPDEST PUSH1 0x40 MLOAD DUP1 SWAP2 SUB SWAP1 LOG1 PUSH2 0x142D JUMP JUMPDEST PUSH1 0x1 DUP5 PUSH1 0x5 ADD PUSH0 PUSH2 0x100 EXP DUP2 SLOAD DUP2 PUSH1 0xFF MUL NOT AND SWAP1 DUP4 ISZERO ISZERO MUL OR SWAP1 SSTORE POP PUSH32 0x948F4A9CD986F1118C3FBD459F7A22B23C0693E1CA3EF06A6A8BE5AA7D39CC03 DUP6 PUSH0 PUSH1 0x40 MLOAD PUSH2 0x13E0 SWAP3 SWAP2 SWAP1 PUSH2 0x26F0 JUMP JUMPDEST PUSH1 0x40 MLOAD DUP1 SWAP2 SUB SWAP1 LOG1 DUP1 DUP3 LT ISZERO PUSH2 0x142C JUMPI PUSH32 0x864A94A5739EC215873C7AB6BD714458B41E2C19F515C39F3352754C0D53A792 DUP6 DUP4 DUP4 PUSH1 0x40 MLOAD PUSH2 0x1423 SWAP4 SWAP3 SWAP2 SWAP1 PUSH2 0x3117 JUMP JUMPDEST PUSH1 0x40 MLOAD DUP1 SWAP2 SUB SWAP1 LOG1 JUMPDEST JUMPDEST POP POP POP POP POP JUMP JUMPDEST PUSH1 0x7 PUSH0 SWAP1 SLOAD SWAP1 PUSH2 0x100 EXP SWAP1 DIV PUSH20 0xFFFFFFFFFFFFFFFFFFFFFFFFFFFFFFFFFFFFFFFF AND PUSH20 0xFFFFFFFFFFFFFFFFFFFFFFFFFFFFFFFFFFFFFFFF AND CALLER PUSH20 0xFFFFFFFFFFFFFFFFFFFFFFFFFFFFFFFFFFFFFFFF AND EQ PUSH2 0x14C3 JUMPI PUSH1 0x40 MLOAD PUSH32 0x8C379A000000000000000000000000000000000000000000000000000000000 DUP2 MSTORE PUSH1 0x4 ADD PUSH2 0x14BA SWAP1 PUSH2 0x27C7 JUMP JUMPDEST PUSH1 0x40 MLOAD DUP1 SWAP2 SUB SWAP1 REVERT JUMPDEST DUP1 PUSH1 0x9 DUP2 SWAP1 SSTORE POP POP JUMP JUMPDEST PUSH0 PUSH1 0x2 PUSH0 DUP5 DUP2 MSTORE PUSH1 0x20 ADD SWAP1 DUP2 MSTORE PUSH1 0x20 ADD PUSH0 KECCAK256 SWAP1 POP DUP1 PUSH1 0x2 ADD SLOAD TIMESTAMP LT PUSH2 0x1527 JUMPI PUSH1 0x40 MLOAD PUSH32 0x8C379A000000000000000000000000000000000000000000000000000000000 DUP2 MSTORE PUSH1 0x4 ADD PUSH2 0x151E SWAP1 PUSH2 0x3196 JUMP JUMPDEST PUSH1 0x40 MLOAD DUP1 SWAP2 SUB SWAP1 REVERT JUMPDEST PUSH0 PUSH1 0x1 PUSH0 SWAP1 SLOAD SWAP1 PUSH2 0x100 EXP SWAP1 DIV PUSH20 0xFFFFFFFFFFFFFFFFFFFFFFFFFFFFFFFFFFFFFFFF AND PUSH20 0xFFFFFFFFFFFFFFFFFFFFFFFFFFFFFFFFFFFFFFFF AND PUSH4 0x70A08231 CALLER PUSH1 0x40 MLOAD DUP3 PUSH4 0xFFFFFFFF AND PUSH1 0xE0 SHL DUP2 MSTORE PUSH1 0x4 ADD PUSH2 0x1582 SWAP2 SWAP1 PUSH2 0x2437 JUMP JUMPDEST PUSH1 0x20 PUSH1 0x40 MLOAD DUP1 DUP4 SUB DUP2 DUP7 GAS STATICCALL ISZERO DUP1 ISZERO PUSH2 0x159D JUMPI RETURNDATASIZE PUSH0 PUSH0 RETURNDATACOPY RETURNDATASIZE PUSH0 REVERT JUMPDEST POP POP POP POP PUSH1 0x40 MLOAD RETURNDATASIZE PUSH1 0x1F NOT PUSH1 0x1F DUP3 ADD AND DUP3 ADD DUP1 PUSH1 0x40 MSTORE POP DUP2 ADD SWAP1 PUSH2 0x15C1 SWAP2 SWAP1 PUSH2 0x2887 JUMP JUMPDEST GT PUSH2 0x1601 JUMPI PUSH1 0x40 MLOAD PUSH32 0x8C379A000000000000000000000000000000000000000000000000000000000 DUP2 MSTORE PUSH1 0x4 ADD PUSH2 0x15F8 SWAP1 PUSH2 0x31FE JUMP JUMPDEST PUSH1 0x40 MLOAD DUP1 SWAP2 SUB SWAP1 REVERT JUMPDEST PUSH1 0x3 PUSH0 DUP5 DUP2 MSTORE PUSH1 0x20 ADD SWAP1 DUP2 MSTORE PUSH1 0x20 ADD PUSH0 KECCAK256 PUSH0 CALLER PUSH20 0xFFFFFFFFFFFFFFFFFFFFFFFFFFFFFFFFFFFFFFFF AND PUSH20 0xFFFFFFFFFFFFFFFFFFFFFFFFFFFFFFFFFFFFFFFF AND DUP2 MSTORE PUSH1 0x20 ADD SWAP1 DUP2 MSTORE PUSH1 0x20 ADD PUSH0 KECCAK256 PUSH0 SWAP1 SLOAD SWAP1 PUSH2 0x100 EXP SWAP1 DIV PUSH1 0xFF AND ISZERO PUSH2 0x169A JUMPI PUSH1 0x40 MLOAD PUSH32 0x8C379A000000000000000000000000000000000000000000000000000000000 DUP2 MSTORE PUSH1 0x4 ADD PUSH2 0x1691 SWAP1 PUSH2 0x3266 JUMP JUMPDEST PUSH1 0x40 MLOAD DUP1 SWAP2 SUB SWAP1 REVERT JUMPDEST PUSH0 PUSH1 0x1 PUSH0 SWAP1 SLOAD SWAP1 PUSH2 0x100 EXP SWAP1 DIV PUSH20 0xFFFFFFFFFFFFFFFFFFFFFFFFFFFFFFFFFFFFFFFF AND PUSH20 0xFFFFFFFFFFFFFFFFFFFFFFFFFFFFFFFFFFFFFFFF AND PUSH4 0x70A08231 CALLER PUSH1 0x40 MLOAD DUP3 PUSH4 0xFFFFFFFF AND PUSH1 0xE0 SHL DUP2 MSTORE PUSH1 0x4 ADD PUSH2 0x16F5 SWAP2 SWAP1 PUSH2 0x2437 JUMP JUMPDEST PUSH1 0x20 PUSH1 0x40 MLOAD DUP1 DUP4 SUB DUP2 DUP7 GAS STATICCALL ISZERO DUP1 ISZERO PUSH2 0x1710 JUMPI RETURNDATASIZE PUSH0 PUSH0 RETURNDATACOPY RETURNDATASIZE PUSH0 REVERT JUMPDEST POP POP POP POP PUSH1 0x40 MLOAD RETURNDATASIZE PUSH1 0x1F NOT PUSH1 0x1F DUP3 ADD AND DUP3 ADD DUP1 PUSH1 0x40 MSTORE POP DUP2 ADD SWAP1 PUSH2 0x1734 SWAP2 SWAP1 PUSH2 0x2887 JUMP JUMPDEST SWAP1 POP DUP3 ISZERO PUSH2 0x175B JUMPI DUP1 DUP3 PUSH1 0x3 ADD PUSH0 DUP3 DUP3 SLOAD PUSH2 0x174F SWAP2 SWAP1 PUSH2 0x2A0A JUMP JUMPDEST SWAP3 POP POP DUP2 SWAP1 SSTORE POP PUSH2 0x1776 JUMP JUMPDEST DUP1 DUP3 PUSH1 0x4 ADD PUSH0 DUP3 DUP3 SLOAD PUSH2 0x176E SWAP2 SWAP1 PUSH2 0x2A0A JUMP JUMPDEST SWAP3 POP POP DUP2 SWAP1 SSTORE POP JUMPDEST PUSH1 0x1 PUSH1 0x3 PUSH0 DUP7 DUP2 MSTORE PUSH1 0x20 ADD SWAP1 DUP2 MSTORE PUSH1 0x20 ADD PUSH0 KECCAK256 PUSH0 CALLER PUSH20 0xFFFFFFFFFFFFFFFFFFFFFFFFFFFFFFFFFFFFFFFF AND PUSH20 0xFFFFFFFFFFFFFFFFFFFFFFFFFFFFFFFFFFFFFFFF AND DUP2 MSTORE PUSH1 0x20 ADD SWAP1 DUP2 MSTORE PUSH1 0x20 ADD PUSH0 KECCAK256 PUSH0 PUSH2 0x100 EXP DUP2 SLOAD DUP2 PUSH1 0xFF MUL NOT AND SWAP1 DUP4 ISZERO ISZERO MUL OR SWAP1 SSTORE POP PUSH32 0x7C2DE587C00D75474A0C6C6FA96FD3B45DC974CD4E8A75F712BB84C950DCE1B5 DUP5 CALLER DUP6 DUP5 PUSH1 0x40 MLOAD PUSH2 0x180F SWAP5 SWAP4 SWAP3 SWAP2 SWAP1 PUSH2 0x3284 JUMP JUMPDEST PUSH1 0x40 MLOAD DUP1 SWAP2 SUB SWAP1 LOG1 POP POP POP POP JUMP JUMPDEST PUSH1 0x7 PUSH0 SWAP1 SLOAD SWAP1 PUSH2 0x100 EXP SWAP1 DIV PUSH20 0xFFFFFFFFFFFFFFFFFFFFFFFFFFFFFFFFFFFFFFFF AND DUP2 JUMP JUMPDEST PUSH1 0x60 PUSH0 PUSH1 0x2 PUSH0 DUP5 DUP2 MSTORE PUSH1 0x20 ADD SWAP1 DUP2 MSTORE PUSH1 0x20 ADD PUSH0 KECCAK256 SWAP1 POP DUP1 PUSH1 0x5 ADD PUSH0 SWAP1 SLOAD SWAP1 PUSH2 0x100 EXP SWAP1 DIV PUSH1 0xFF AND PUSH2 0x18A8 JUMPI PUSH1 0x40 MLOAD PUSH32 0x8C379A000000000000000000000000000000000000000000000000000000000 DUP2 MSTORE PUSH1 0x4 ADD PUSH2 0x189F SWAP1 PUSH2 0x3311 JUMP JUMPDEST PUSH1 0x40 MLOAD DUP1 SWAP2 SUB SWAP1 REVERT JUMPDEST PUSH0 PUSH1 0x1 PUSH0 SWAP1 SLOAD SWAP1 PUSH2 0x100 EXP SWAP1 DIV PUSH20 0xFFFFFFFFFFFFFFFFFFFFFFFFFFFFFFFFFFFFFFFF AND PUSH20 0xFFFFFFFFFFFFFFFFFFFFFFFFFFFFFFFFFFFFFFFF AND PUSH4 0x18160DDD PUSH1 0x40 MLOAD DUP2 PUSH4 0xFFFFFFFF AND PUSH1 0xE0 SHL DUP2 MSTORE PUSH1 0x4 ADD PUSH1 0x20 PUSH1 0x40 MLOAD DUP1 DUP4 SUB DUP2 DUP7 GAS STATICCALL ISZERO DUP1 ISZERO PUSH2 0x1913 JUMPI RETURNDATASIZE PUSH0 PUSH0 RETURNDATACOPY RETURNDATASIZE PUSH0 REVERT JUMPDEST POP POP POP POP PUSH1 0x40 MLOAD RETURNDATASIZE PUSH1 0x1F NOT PUSH1 0x1F DUP3 ADD AND DUP3 ADD DUP1 PUSH1 0x40 MSTORE POP DUP2 ADD SWAP1 PUSH2 0x1937 SWAP2 SWAP1 PUSH2 0x2887 JUMP JUMPDEST SWAP1 POP PUSH0 DUP3 PUSH1 0x4 ADD SLOAD DUP4 PUSH1 0x3 ADD SLOAD PUSH2 0x194E SWAP2 SWAP1 PUSH2 0x2A0A JUMP JUMPDEST SWAP1 POP PUSH0 PUSH1 0x64 PUSH1 0x8 SLOAD DUP5 PUSH2 0x1961 SWAP2 SWAP1 PUSH2 0x3052 JUMP JUMPDEST PUSH2 0x196B SWAP2 SWAP1 PUSH2 0x30C0 JUMP JUMPDEST SWAP1 POP DUP1 DUP3 LT ISZERO PUSH2 0x19B6 JUMPI PUSH1 0x40 MLOAD DUP1 PUSH1 0x40 ADD PUSH1 0x40 MSTORE DUP1 PUSH1 0x20 DUP2 MSTORE PUSH1 0x20 ADD PUSH32 0x50726F706F73616C204641494C4544202D2051756F72756D206E6F74206D6574 DUP2 MSTORE POP SWAP5 POP POP POP POP POP PUSH2 0x1A44 JUMP JUMPDEST DUP4 PUSH1 0x4 ADD SLOAD DUP5 PUSH1 0x3 ADD SLOAD GT ISZERO PUSH2 0x1A07 JUMPI PUSH1 0x40 MLOAD DUP1 PUSH1 0x40 ADD PUSH1 0x40 MSTORE DUP1 PUSH1 0xF DUP2 MSTORE PUSH1 0x20 ADD PUSH32 0x50726F706F73616C205041535345440000000000000000000000000000000000 DUP2 MSTORE POP SWAP5 POP POP POP POP POP PUSH2 0x1A44 JUMP JUMPDEST PUSH1 0x40 MLOAD DUP1 PUSH1 0x40 ADD PUSH1 0x40 MSTORE DUP1 PUSH1 0x11 DUP2 MSTORE PUSH1 0x20 ADD PUSH32 0x50726F706F73616C2052454A4543544544000000000000000000000000000000 DUP2 MSTORE POP SWAP5 POP POP POP POP POP JUMPDEST SWAP2 SWAP1 POP JUMP JUMPDEST PUSH1 0x1 PUSH0 SWAP1 SLOAD SWAP1 PUSH2 0x100 EXP SWAP1 DIV PUSH20 0xFFFFFFFFFFFFFFFFFFFFFFFFFFFFFFFFFFFFFFFF AND DUP2 JUMP JUMPDEST PUSH1 0x2 PUSH0 SLOAD SUB PUSH2 0x1AB2 JUMPI PUSH1 0x40 MLOAD PUSH32 0x8C379A000000000000000000000000000000000000000000000000000000000 DUP2 MSTORE PUSH1 0x4 ADD PUSH2 0x1AA9 SWAP1 PUSH2 0x3379 JUMP JUMPDEST PUSH1 0x40 MLOAD DUP1 SWAP2 SUB SWAP1 REVERT JUMPDEST PUSH1 0x2 PUSH0 DUP2 SWAP1 SSTORE POP JUMP JUMPDEST PUSH1 0x1 PUSH0 DUP2 SWAP1 SSTORE POP JUMP JUMPDEST PUSH1 0x40 MLOAD DUP1 PUSH2 0x140 ADD PUSH1 0x40 MSTORE DUP1 PUSH0 DUP2 MSTORE PUSH1 0x20 ADD PUSH1 0x60 DUP2 MSTORE PUSH1 0x20 ADD PUSH0 DUP2 MSTORE PUSH1 0x20 ADD PUSH0 DUP2 MSTORE PUSH1 0x20 ADD PUSH0 DUP2 MSTORE PUSH1 0x20 ADD PUSH0 ISZERO ISZERO DUP2 MSTORE PUSH1 0x20 ADD PUSH0 PUSH20 0xFFFFFFFFFFFFFFFFFFFFFFFFFFFFFFFFFFFFFFFF AND DUP2 MSTORE PUSH1 0x20 ADD PUSH1 0x60 DUP2 MSTORE PUSH1 0x20 ADD PUSH1 0x60 DUP2 MSTORE PUSH1 0x20 ADD PUSH0 DUP2 MSTORE POP SWAP1 JUMP JUMPDEST DUP3 DUP1 SLOAD DUP3 DUP3 SSTORE SWAP1 PUSH0 MSTORE PUSH1 0x20 PUSH0 KECCAK256 SWAP1 DUP2 ADD SWAP3 DUP3 ISZERO PUSH2 0x1B6E JUMPI SWAP2 PUSH1 0x20 MUL DUP3 ADD JUMPDEST DUP3 DUP2 GT ISZERO PUSH2 0x1B6D JUMPI DUP3 MLOAD DUP3 SWAP1 DUP2 PUSH2 0x1B5D SWAP2 SWAP1 PUSH2 0x33DD JUMP JUMPDEST POP SWAP2 PUSH1 0x20 ADD SWAP2 SWAP1 PUSH1 0x1 ADD SWAP1 PUSH2 0x1B46 JUMP JUMPDEST JUMPDEST POP SWAP1 POP PUSH2 0x1B7B SWAP2 SWAP1 PUSH2 0x1C06 JUMP JUMPDEST POP SWAP1 JUMP JUMPDEST DUP3 DUP1 SLOAD DUP3 DUP3 SSTORE SWAP1 PUSH0 MSTORE PUSH1 0x20 PUSH0 KECCAK256 SWAP1 DUP2 ADD SWAP3 DUP3 ISZERO PUSH2 0x1BF5 JUMPI SWAP2 PUSH1 0x20 MUL DUP3 ADD JUMPDEST DUP3 DUP2 GT ISZERO PUSH2 0x1BF4 JUMPI DUP3 MLOAD DUP3 PUSH0 PUSH2 0x100 EXP DUP2 SLOAD DUP2 PUSH20 0xFFFFFFFFFFFFFFFFFFFFFFFFFFFFFFFFFFFFFFFF MUL NOT AND SWAP1 DUP4 PUSH20 0xFFFFFFFFFFFFFFFFFFFFFFFFFFFFFFFFFFFFFFFF AND MUL OR SWAP1 SSTORE POP SWAP2 PUSH1 0x20 ADD SWAP2 SWAP1 PUSH1 0x1 ADD SWAP1 PUSH2 0x1B9D JUMP JUMPDEST JUMPDEST POP SWAP1 POP PUSH2 0x1C02 SWAP2 SWAP1 PUSH2 0x1C29 JUMP JUMPDEST POP SWAP1 JUMP JUMPDEST JUMPDEST DUP1 DUP3 GT ISZERO PUSH2 0x1C25 JUMPI PUSH0 DUP2 DUP2 PUSH2 0x1C1C SWAP2 SWAP1 PUSH2 0x1C44 JUMP JUMPDEST POP PUSH1 0x1 ADD PUSH2 0x1C07 JUMP JUMPDEST POP SWAP1 JUMP JUMPDEST JUMPDEST DUP1 DUP3 GT ISZERO PUSH2 0x1C40 JUMPI PUSH0 DUP2 PUSH0 SWAP1 SSTORE POP PUSH1 0x1 ADD PUSH2 0x1C2A JUMP JUMPDEST POP SWAP1 JUMP JUMPDEST POP DUP1 SLOAD PUSH2 0x1C50 SWAP1 PUSH2 0x2511 JUMP JUMPDEST PUSH0 DUP3 SSTORE DUP1 PUSH1 0x1F LT PUSH2 0x1C61 JUMPI POP PUSH2 0x1C7E JUMP JUMPDEST PUSH1 0x1F ADD PUSH1 0x20 SWAP1 DIV SWAP1 PUSH0 MSTORE PUSH1 0x20 PUSH0 KECCAK256 SWAP1 DUP2 ADD SWAP1 PUSH2 0x1C7D SWAP2 SWAP1 PUSH2 0x1C29 JUMP JUMPDEST JUMPDEST POP JUMP JUMPDEST PUSH0 PUSH1 0x40 MLOAD SWAP1 POP SWAP1 JUMP JUMPDEST PUSH0 PUSH0 REVERT JUMPDEST PUSH0 PUSH0 REVERT JUMPDEST PUSH0 DUP2 SWAP1 POP SWAP2 SWAP1 POP JUMP JUMPDEST PUSH2 0x1CA4 DUP2 PUSH2 0x1C92 JUMP JUMPDEST DUP2 EQ PUSH2 0x1CAE JUMPI PUSH0 PUSH0 REVERT JUMPDEST POP JUMP JUMPDEST PUSH0 DUP2 CALLDATALOAD SWAP1 POP PUSH2 0x1CBF DUP2 PUSH2 0x1C9B JUMP JUMPDEST SWAP3 SWAP2 POP POP JUMP JUMPDEST PUSH0 PUSH1 0x20 DUP3 DUP5 SUB SLT ISZERO PUSH2 0x1CDA JUMPI PUSH2 0x1CD9 PUSH2 0x1C8A JUMP JUMPDEST JUMPDEST PUSH0 PUSH2 0x1CE7 DUP5 DUP3 DUP6 ADD PUSH2 0x1CB1 JUMP JUMPDEST SWAP2 POP POP SWAP3 SWAP2 POP POP JUMP JUMPDEST PUSH2 0x1CF9 DUP2 PUSH2 0x1C92 JUMP JUMPDEST DUP3 MSTORE POP POP JUMP JUMPDEST PUSH0 DUP2 MLOAD SWAP1 POP SWAP2 SWAP1 POP JUMP JUMPDEST PUSH0 DUP3 DUP3 MSTORE PUSH1 0x20 DUP3 ADD SWAP1 POP SWAP3 SWAP2 POP POP JUMP JUMPDEST DUP3 DUP2 DUP4 MCOPY PUSH0 DUP4 DUP4 ADD MSTORE POP POP POP JUMP JUMPDEST PUSH0 PUSH1 0x1F NOT PUSH1 0x1F DUP4 ADD AND SWAP1 POP SWAP2 SWAP1 POP JUMP JUMPDEST PUSH0 PUSH2 0x1D41 DUP3 PUSH2 0x1CFF JUMP JUMPDEST PUSH2 0x1D4B DUP2 DUP6 PUSH2 0x1D09 JUMP JUMPDEST SWAP4 POP PUSH2 0x1D5B DUP2 DUP6 PUSH1 0x20 DUP7 ADD PUSH2 0x1D19 JUMP JUMPDEST PUSH2 0x1D64 DUP2 PUSH2 0x1D27 JUMP JUMPDEST DUP5 ADD SWAP2 POP POP SWAP3 SWAP2 POP POP JUMP JUMPDEST PUSH0 DUP2 ISZERO ISZERO SWAP1 POP SWAP2 SWAP1 POP JUMP JUMPDEST PUSH2 0x1D83 DUP2 PUSH2 0x1D6F JUMP JUMPDEST DUP3 MSTORE POP POP JUMP JUMPDEST PUSH0 PUSH20 0xFFFFFFFFFFFFFFFFFFFFFFFFFFFFFFFFFFFFFFFF DUP3 AND SWAP1 POP SWAP2 SWAP1 POP JUMP JUMPDEST PUSH0 PUSH2 0x1DB2 DUP3 PUSH2 0x1D89 JUMP JUMPDEST SWAP1 POP SWAP2 SWAP1 POP JUMP JUMPDEST PUSH2 0x1DC2 DUP2 PUSH2 0x1DA8 JUMP JUMPDEST DUP3 MSTORE POP POP JUMP JUMPDEST PUSH0 PUSH2 0x100 DUP3 ADD SWAP1 POP PUSH2 0x1DDC PUSH0 DUP4 ADD DUP12 PUSH2 0x1CF0 JUMP JUMPDEST DUP2 DUP2 SUB PUSH1 0x20 DUP4 ADD MSTORE PUSH2 0x1DEE DUP2 DUP11 PUSH2 0x1D37 JUMP JUMPDEST SWAP1 POP PUSH2 0x1DFD PUSH1 0x40 DUP4 ADD DUP10 PUSH2 0x1CF0 JUMP JUMPDEST PUSH2 0x1E0A PUSH1 0x60 DUP4 ADD DUP9 PUSH2 0x1CF0 JUMP JUMPDEST PUSH2 0x1E17 PUSH1 0x80 DUP4 ADD DUP8 PUSH2 0x1CF0 JUMP JUMPDEST PUSH2 0x1E24 PUSH1 0xA0 DUP4 ADD DUP7 PUSH2 0x1D7A JUMP JUMPDEST PUSH2 0x1E31 PUSH1 0xC0 DUP4 ADD DUP6 PUSH2 0x1DB9 JUMP JUMPDEST PUSH2 0x1E3E PUSH1 0xE0 DUP4 ADD DUP5 PUSH2 0x1CF0 JUMP JUMPDEST SWAP10 SWAP9 POP POP POP POP POP POP POP POP POP JUMP JUMPDEST PUSH0 PUSH1 0x20 DUP3 ADD SWAP1 POP PUSH2 0x1E5E PUSH0 DUP4 ADD DUP5 PUSH2 0x1CF0 JUMP JUMPDEST SWAP3 SWAP2 POP POP JUMP JUMPDEST PUSH2 0x1E6D DUP2 PUSH2 0x1C92 JUMP JUMPDEST DUP3 MSTORE POP POP JUMP JUMPDEST PUSH0 DUP3 DUP3 MSTORE PUSH1 0x20 DUP3 ADD SWAP1 POP SWAP3 SWAP2 POP POP JUMP JUMPDEST PUSH0 PUSH2 0x1E8D DUP3 PUSH2 0x1CFF JUMP JUMPDEST PUSH2 0x1E97 DUP2 DUP6 PUSH2 0x1E73 JUMP JUMPDEST SWAP4 POP PUSH2 0x1EA7 DUP2 DUP6 PUSH1 0x20 DUP7 ADD PUSH2 0x1D19 JUMP JUMPDEST PUSH2 0x1EB0 DUP2 PUSH2 0x1D27 JUMP JUMPDEST DUP5 ADD SWAP2 POP POP SWAP3 SWAP2 POP POP JUMP JUMPDEST PUSH2 0x1EC4 DUP2 PUSH2 0x1D6F JUMP JUMPDEST DUP3 MSTORE POP POP JUMP JUMPDEST PUSH2 0x1ED3 DUP2 PUSH2 0x1DA8 JUMP JUMPDEST DUP3 MSTORE POP POP JUMP JUMPDEST PUSH0 DUP2 MLOAD SWAP1 POP SWAP2 SWAP1 POP JUMP JUMPDEST PUSH0 DUP3 DUP3 MSTORE PUSH1 0x20 DUP3 ADD SWAP1 POP SWAP3 SWAP2 POP POP JUMP JUMPDEST PUSH0 DUP2 SWAP1 POP PUSH1 0x20 DUP3 ADD SWAP1 POP SWAP2 SWAP1 POP JUMP JUMPDEST PUSH0 DUP2 MLOAD SWAP1 POP SWAP2 SWAP1 POP JUMP JUMPDEST PUSH0 DUP3 DUP3 MSTORE PUSH1 0x20 DUP3 ADD SWAP1 POP SWAP3 SWAP2 POP POP JUMP JUMPDEST PUSH0 PUSH2 0x1F26 DUP3 PUSH2 0x1F02 JUMP JUMPDEST PUSH2 0x1F30 DUP2 DUP6 PUSH2 0x1F0C JUMP JUMPDEST SWAP4 POP PUSH2 0x1F40 DUP2 DUP6 PUSH1 0x20 DUP7 ADD PUSH2 0x1D19 JUMP JUMPDEST PUSH2 0x1F49 DUP2 PUSH2 0x1D27 JUMP JUMPDEST DUP5 ADD SWAP2 POP POP SWAP3 SWAP2 POP POP JUMP JUMPDEST PUSH0 PUSH2 0x1F5F DUP4 DUP4 PUSH2 0x1F1C JUMP JUMPDEST SWAP1 POP SWAP3 SWAP2 POP POP JUMP JUMPDEST PUSH0 PUSH1 0x20 DUP3 ADD SWAP1 POP SWAP2 SWAP1 POP JUMP JUMPDEST PUSH0 PUSH2 0x1F7D DUP3 PUSH2 0x1ED9 JUMP JUMPDEST PUSH2 0x1F87 DUP2 DUP6 PUSH2 0x1EE3 JUMP JUMPDEST SWAP4 POP DUP4 PUSH1 0x20 DUP3 MUL DUP6 ADD PUSH2 0x1F99 DUP6 PUSH2 0x1EF3 JUMP JUMPDEST DUP1 PUSH0 JUMPDEST DUP6 DUP2 LT ISZERO PUSH2 0x1FD4 JUMPI DUP5 DUP5 SUB DUP10 MSTORE DUP2 MLOAD PUSH2 0x1FB5 DUP6 DUP3 PUSH2 0x1F54 JUMP JUMPDEST SWAP5 POP PUSH2 0x1FC0 DUP4 PUSH2 0x1F67 JUMP JUMPDEST SWAP3 POP PUSH1 0x20 DUP11 ADD SWAP10 POP POP PUSH1 0x1 DUP2 ADD SWAP1 POP PUSH2 0x1F9C JUMP JUMPDEST POP DUP3 SWAP8 POP DUP8 SWAP6 POP POP POP POP POP POP SWAP3 SWAP2 POP POP JUMP JUMPDEST PUSH0 DUP2 MLOAD SWAP1 POP SWAP2 SWAP1 POP JUMP JUMPDEST PUSH0 DUP3 DUP3 MSTORE PUSH1 0x20 DUP3 ADD SWAP1 POP SWAP3 SWAP2 POP POP JUMP JUMPDEST PUSH0 DUP2 SWAP1 POP PUSH1 0x20 DUP3 ADD SWAP1 POP SWAP2 SWAP1 POP JUMP JUMPDEST PUSH0 PUSH2 0x201A DUP4 DUP4 PUSH2 0x1ECA JUMP JUMPDEST PUSH1 0x20 DUP4 ADD SWAP1 POP SWAP3 SWAP2 POP POP JUMP JUMPDEST PUSH0 PUSH1 0x20 DUP3 ADD SWAP1 POP SWAP2 SWAP1 POP JUMP JUMPDEST PUSH0 PUSH2 0x203C DUP3 PUSH2 0x1FE6 JUMP JUMPDEST PUSH2 0x2046 DUP2 DUP6 PUSH2 0x1FF0 JUMP JUMPDEST SWAP4 POP PUSH2 0x2051 DUP4 PUSH2 0x2000 JUMP JUMPDEST DUP1 PUSH0 JUMPDEST DUP4 DUP2 LT ISZERO PUSH2 0x2081 JUMPI DUP2 MLOAD PUSH2 0x2068 DUP9 DUP3 PUSH2 0x200F JUMP JUMPDEST SWAP8 POP PUSH2 0x2073 DUP4 PUSH2 0x2026 JUMP JUMPDEST SWAP3 POP POP PUSH1 0x1 DUP2 ADD SWAP1 POP PUSH2 0x2054 JUMP JUMPDEST POP DUP6 SWAP4 POP POP POP POP SWAP3 SWAP2 POP POP JUMP JUMPDEST PUSH0 PUSH2 0x140 DUP4 ADD PUSH0 DUP4 ADD MLOAD PUSH2 0x20A4 PUSH0 DUP7 ADD DUP3 PUSH2 0x1E64 JUMP JUMPDEST POP PUSH1 0x20 DUP4 ADD MLOAD DUP5 DUP3 SUB PUSH1 0x20 DUP7 ADD MSTORE PUSH2 0x20BC DUP3 DUP3 PUSH2 0x1E83 JUMP JUMPDEST SWAP2 POP POP PUSH1 0x40 DUP4 ADD MLOAD PUSH2 0x20D1 PUSH1 0x40 DUP7 ADD DUP3 PUSH2 0x1E64 JUMP JUMPDEST POP PUSH1 0x60 DUP4 ADD MLOAD PUSH2 0x20E4 PUSH1 0x60 DUP7 ADD DUP3 PUSH2 0x1E64 JUMP JUMPDEST POP PUSH1 0x80 DUP4 ADD MLOAD PUSH2 0x20F7 PUSH1 0x80 DUP7 ADD DUP3 PUSH2 0x1E64 JUMP JUMPDEST POP PUSH1 0xA0 DUP4 ADD MLOAD PUSH2 0x210A PUSH1 0xA0 DUP7 ADD DUP3 PUSH2 0x1EBB JUMP JUMPDEST POP PUSH1 0xC0 DUP4 ADD MLOAD PUSH2 0x211D PUSH1 0xC0 DUP7 ADD DUP3 PUSH2 0x1ECA JUMP JUMPDEST POP PUSH1 0xE0 DUP4 ADD MLOAD DUP5 DUP3 SUB PUSH1 0xE0 DUP7 ADD MSTORE PUSH2 0x2135 DUP3 DUP3 PUSH2 0x1F73 JUMP JUMPDEST SWAP2 POP POP PUSH2 0x100 DUP4 ADD MLOAD DUP5 DUP3 SUB PUSH2 0x100 DUP7 ADD MSTORE PUSH2 0x2151 DUP3 DUP3 PUSH2 0x2032 JUMP JUMPDEST SWAP2 POP POP PUSH2 0x120 DUP4 ADD MLOAD PUSH2 0x2168 PUSH2 0x120 DUP7 ADD DUP3 PUSH2 0x1E64 JUMP JUMPDEST POP DUP1 SWAP2 POP POP SWAP3 SWAP2 POP POP JUMP JUMPDEST PUSH0 PUSH1 0x20 DUP3 ADD SWAP1 POP DUP2 DUP2 SUB PUSH0 DUP4 ADD MSTORE PUSH2 0x218B DUP2 DUP5 PUSH2 0x208E JUMP JUMPDEST SWAP1 POP SWAP3 SWAP2 POP POP JUMP JUMPDEST PUSH2 0x219C DUP2 PUSH2 0x1DA8 JUMP JUMPDEST DUP2 EQ PUSH2 0x21A6 JUMPI PUSH0 PUSH0 REVERT JUMPDEST POP JUMP JUMPDEST PUSH0 DUP2 CALLDATALOAD SWAP1 POP PUSH2 0x21B7 DUP2 PUSH2 0x2193 JUMP JUMPDEST SWAP3 SWAP2 POP POP JUMP JUMPDEST PUSH0 PUSH0 PUSH1 0x40 DUP4 DUP6 SUB SLT ISZERO PUSH2 0x21D3 JUMPI PUSH2 0x21D2 PUSH2 0x1C8A JUMP JUMPDEST JUMPDEST PUSH0 PUSH2 0x21E0 DUP6 DUP3 DUP7 ADD PUSH2 0x1CB1 JUMP JUMPDEST SWAP3 POP POP PUSH1 0x20 PUSH2 0x21F1 DUP6 DUP3 DUP7 ADD PUSH2 0x21A9 JUMP JUMPDEST SWAP2 POP POP SWAP3 POP SWAP3 SWAP1 POP JUMP JUMPDEST PUSH0 PUSH1 0x20 DUP3 ADD SWAP1 POP PUSH2 0x220E PUSH0 DUP4 ADD DUP5 PUSH2 0x1D7A JUMP JUMPDEST SWAP3 SWAP2 POP POP JUMP JUMPDEST PUSH0 PUSH0 REVERT JUMPDEST PUSH0 PUSH0 REVERT JUMPDEST PUSH0 PUSH0 REVERT JUMPDEST PUSH0 PUSH0 DUP4 PUSH1 0x1F DUP5 ADD SLT PUSH2 0x2235 JUMPI PUSH2 0x2234 PUSH2 0x2214 JUMP JUMPDEST JUMPDEST DUP3 CALLDATALOAD SWAP1 POP PUSH8 0xFFFFFFFFFFFFFFFF DUP2 GT ISZERO PUSH2 0x2252 JUMPI PUSH2 0x2251 PUSH2 0x2218 JUMP JUMPDEST JUMPDEST PUSH1 0x20 DUP4 ADD SWAP2 POP DUP4 PUSH1 0x1 DUP3 MUL DUP4 ADD GT ISZERO PUSH2 0x226E JUMPI PUSH2 0x226D PUSH2 0x221C JUMP JUMPDEST JUMPDEST SWAP3 POP SWAP3 SWAP1 POP JUMP JUMPDEST PUSH0 PUSH0 DUP4 PUSH1 0x1F DUP5 ADD SLT PUSH2 0x228A JUMPI PUSH2 0x2289 PUSH2 0x2214 JUMP JUMPDEST JUMPDEST DUP3 CALLDATALOAD SWAP1 POP PUSH8 0xFFFFFFFFFFFFFFFF DUP2 GT ISZERO PUSH2 0x22A7 JUMPI PUSH2 0x22A6 PUSH2 0x2218 JUMP JUMPDEST JUMPDEST PUSH1 0x20 DUP4 ADD SWAP2 POP DUP4 PUSH1 0x20 DUP3 MUL DUP4 ADD GT ISZERO PUSH2 0x22C3 JUMPI PUSH2 0x22C2 PUSH2 0x221C JUMP JUMPDEST JUMPDEST SWAP3 POP SWAP3 SWAP1 POP JUMP JUMPDEST PUSH0 PUSH0 DUP4 PUSH1 0x1F DUP5 ADD SLT PUSH2 0x22DF JUMPI PUSH2 0x22DE PUSH2 0x2214 JUMP JUMPDEST JUMPDEST DUP3 CALLDATALOAD SWAP1 POP PUSH8 0xFFFFFFFFFFFFFFFF DUP2 GT ISZERO PUSH2 0x22FC JUMPI PUSH2 0x22FB PUSH2 0x2218 JUMP JUMPDEST JUMPDEST PUSH1 0x20 DUP4 ADD SWAP2 POP DUP4 PUSH1 0x20 DUP3 MUL DUP4 ADD GT ISZERO PUSH2 0x2318 JUMPI PUSH2 0x2317 PUSH2 0x221C JUMP JUMPDEST JUMPDEST SWAP3 POP SWAP3 SWAP1 POP JUMP JUMPDEST PUSH0 PUSH0 PUSH0 PUSH0 PUSH0 PUSH0 PUSH1 0x60 DUP8 DUP10 SUB SLT ISZERO PUSH2 0x2339 JUMPI PUSH2 0x2338 PUSH2 0x1C8A JUMP JUMPDEST JUMPDEST PUSH0 DUP8 ADD CALLDATALOAD PUSH8 0xFFFFFFFFFFFFFFFF DUP2 GT ISZERO PUSH2 0x2356 JUMPI PUSH2 0x2355 PUSH2 0x1C8E JUMP JUMPDEST JUMPDEST PUSH2 0x2362 DUP10 DUP3 DUP11 ADD PUSH2 0x2220 JUMP JUMPDEST SWAP7 POP SWAP7 POP POP PUSH1 0x20 DUP8 ADD CALLDATALOAD PUSH8 0xFFFFFFFFFFFFFFFF DUP2 GT ISZERO PUSH2 0x2385 JUMPI PUSH2 0x2384 PUSH2 0x1C8E JUMP JUMPDEST JUMPDEST PUSH2 0x2391 DUP10 DUP3 DUP11 ADD PUSH2 0x2275 JUMP JUMPDEST SWAP5 POP SWAP5 POP POP PUSH1 0x40 DUP8 ADD CALLDATALOAD PUSH8 0xFFFFFFFFFFFFFFFF DUP2 GT ISZERO PUSH2 0x23B4 JUMPI PUSH2 0x23B3 PUSH2 0x1C8E JUMP JUMPDEST JUMPDEST PUSH2 0x23C0 DUP10 DUP3 DUP11 ADD PUSH2 0x22CA JUMP JUMPDEST SWAP3 POP SWAP3 POP POP SWAP3 SWAP6 POP SWAP3 SWAP6 POP SWAP3 SWAP6 JUMP JUMPDEST PUSH2 0x23D8 DUP2 PUSH2 0x1D6F JUMP JUMPDEST DUP2 EQ PUSH2 0x23E2 JUMPI PUSH0 PUSH0 REVERT JUMPDEST POP JUMP JUMPDEST PUSH0 DUP2 CALLDATALOAD SWAP1 POP PUSH2 0x23F3 DUP2 PUSH2 0x23CF JUMP JUMPDEST SWAP3 SWAP2 POP POP JUMP JUMPDEST PUSH0 PUSH0 PUSH1 0x40 DUP4 DUP6 SUB SLT ISZERO PUSH2 0x240F JUMPI PUSH2 0x240E PUSH2 0x1C8A JUMP JUMPDEST JUMPDEST PUSH0 PUSH2 0x241C DUP6 DUP3 DUP7 ADD PUSH2 0x1CB1 JUMP JUMPDEST SWAP3 POP POP PUSH1 0x20 PUSH2 0x242D DUP6 DUP3 DUP7 ADD PUSH2 0x23E5 JUMP JUMPDEST SWAP2 POP POP SWAP3 POP SWAP3 SWAP1 POP JUMP JUMPDEST PUSH0 PUSH1 0x20 DUP3 ADD SWAP1 POP PUSH2 0x244A PUSH0 DUP4 ADD DUP5 PUSH2 0x1DB9 JUMP JUMPDEST SWAP3 SWAP2 POP POP JUMP JUMPDEST PUSH0 PUSH1 0x20 DUP3 ADD SWAP1 POP DUP2 DUP2 SUB PUSH0 DUP4 ADD MSTORE PUSH2 0x2468 DUP2 DUP5 PUSH2 0x1D37 JUMP JUMPDEST SWAP1 POP SWAP3 SWAP2 POP POP JUMP JUMPDEST PUSH0 DUP2 SWAP1 POP SWAP2 SWAP1 POP JUMP JUMPDEST PUSH0 PUSH2 0x2493 PUSH2 0x248E PUSH2 0x2489 DUP5 PUSH2 0x1D89 JUMP JUMPDEST PUSH2 0x2470 JUMP JUMPDEST PUSH2 0x1D89 JUMP JUMPDEST SWAP1 POP SWAP2 SWAP1 POP JUMP JUMPDEST PUSH0 PUSH2 0x24A4 DUP3 PUSH2 0x2479 JUMP JUMPDEST SWAP1 POP SWAP2 SWAP1 POP JUMP JUMPDEST PUSH0 PUSH2 0x24B5 DUP3 PUSH2 0x249A JUMP JUMPDEST SWAP1 POP SWAP2 SWAP1 POP JUMP JUMPDEST PUSH2 0x24C5 DUP2 PUSH2 0x24AB JUMP JUMPDEST DUP3 MSTORE POP POP JUMP JUMPDEST PUSH0 PUSH1 0x20 DUP3 ADD SWAP1 POP PUSH2 0x24DE PUSH0 DUP4 ADD DUP5 PUSH2 0x24BC JUMP JUMPDEST SWAP3 SWAP2 POP POP JUMP JUMPDEST PUSH32 0x4E487B7100000000000000000000000000000000000000000000000000000000 PUSH0 MSTORE PUSH1 0x22 PUSH1 0x4 MSTORE PUSH1 0x24 PUSH0 REVERT JUMPDEST PUSH0 PUSH1 0x2 DUP3 DIV SWAP1 POP PUSH1 0x1 DUP3 AND DUP1 PUSH2 0x2528 JUMPI PUSH1 0x7F DUP3 AND SWAP2 POP JUMPDEST PUSH1 0x20 DUP3 LT DUP2 SUB PUSH2 0x253B JUMPI PUSH2 0x253A PUSH2 0x24E4 JUMP JUMPDEST JUMPDEST POP SWAP2 SWAP1 POP JUMP JUMPDEST PUSH32 0x50726F706F73616C20616C726561647920657865637574656400000000000000 PUSH0 DUP3 ADD MSTORE POP JUMP JUMPDEST PUSH0 PUSH2 0x2575 PUSH1 0x19 DUP4 PUSH2 0x1D09 JUMP JUMPDEST SWAP2 POP PUSH2 0x2580 DUP3 PUSH2 0x2541 JUMP JUMPDEST PUSH1 0x20 DUP3 ADD SWAP1 POP SWAP2 SWAP1 POP JUMP JUMPDEST PUSH0 PUSH1 0x20 DUP3 ADD SWAP1 POP DUP2 DUP2 SUB PUSH0 DUP4 ADD MSTORE PUSH2 0x25A2 DUP2 PUSH2 0x2569 JUMP JUMPDEST SWAP1 POP SWAP2 SWAP1 POP JUMP JUMPDEST PUSH32 0x54696D656C6F636B206E6F742079657420657870697265640000000000000000 PUSH0 DUP3 ADD MSTORE POP JUMP JUMPDEST PUSH0 PUSH2 0x25DD PUSH1 0x18 DUP4 PUSH2 0x1D09 JUMP JUMPDEST SWAP2 POP PUSH2 0x25E8 DUP3 PUSH2 0x25A9 JUMP JUMPDEST PUSH1 0x20 DUP3 ADD SWAP1 POP SWAP2 SWAP1 POP JUMP JUMPDEST PUSH0 PUSH1 0x20 DUP3 ADD SWAP1 POP DUP2 DUP2 SUB PUSH0 DUP4 ADD MSTORE PUSH2 0x260A DUP2 PUSH2 0x25D1 JUMP JUMPDEST SWAP1 POP SWAP2 SWAP1 POP JUMP JUMPDEST PUSH32 0x4E487B7100000000000000000000000000000000000000000000000000000000 PUSH0 MSTORE PUSH1 0x32 PUSH1 0x4 MSTORE PUSH1 0x24 PUSH0 REVERT JUMPDEST PUSH0 DUP2 SWAP1 POP SWAP3 SWAP2 POP POP JUMP JUMPDEST PUSH0 DUP2 SWAP1 POP DUP2 PUSH0 MSTORE PUSH1 0x20 PUSH0 KECCAK256 SWAP1 POP SWAP2 SWAP1 POP JUMP JUMPDEST PUSH0 DUP2 SLOAD PUSH2 0x2666 DUP2 PUSH2 0x2511 JUMP JUMPDEST PUSH2 0x2670 DUP2 DUP7 PUSH2 0x263E JUMP JUMPDEST SWAP5 POP PUSH1 0x1 DUP3 AND PUSH0 DUP2 EQ PUSH2 0x268A JUMPI PUSH1 0x1 DUP2 EQ PUSH2 0x269F JUMPI PUSH2 0x26D1 JUMP JUMPDEST PUSH1 0xFF NOT DUP4 AND DUP7 MSTORE DUP2 ISZERO ISZERO DUP3 MUL DUP7 ADD SWAP4 POP PUSH2 0x26D1 JUMP JUMPDEST PUSH2 0x26A8 DUP6 PUSH2 0x2648 JUMP JUMPDEST PUSH0 JUMPDEST DUP4 DUP2 LT ISZERO PUSH2 0x26C9 JUMPI DUP2 SLOAD DUP2 DUP10 ADD MSTORE PUSH1 0x1 DUP3 ADD SWAP2 POP PUSH1 0x20 DUP2 ADD SWAP1 POP PUSH2 0x26AA JUMP JUMPDEST DUP4 DUP9 ADD SWAP6 POP POP POP JUMPDEST POP POP POP SWAP3 SWAP2 POP POP JUMP JUMPDEST PUSH0 PUSH2 0x26E5 DUP3 DUP5 PUSH2 0x265A JUMP JUMPDEST SWAP2 POP DUP2 SWAP1 POP SWAP3 SWAP2 POP POP JUMP JUMPDEST PUSH0 PUSH1 0x40 DUP3 ADD SWAP1 POP PUSH2 0x2703 PUSH0 DUP4 ADD DUP6 PUSH2 0x1CF0 JUMP JUMPDEST PUSH2 0x2710 PUSH1 0x20 DUP4 ADD DUP5 PUSH2 0x1D7A JUMP JUMPDEST SWAP4 SWAP3 POP POP POP JUMP JUMPDEST PUSH0 PUSH1 0x40 DUP3 ADD SWAP1 POP PUSH2 0x272A PUSH0 DUP4 ADD DUP6 PUSH2 0x1DB9 JUMP JUMPDEST PUSH2 0x2737 PUSH1 0x20 DUP4 ADD DUP5 PUSH2 0x1CF0 JUMP JUMPDEST SWAP4 SWAP3 POP POP POP JUMP JUMPDEST PUSH0 DUP2 MLOAD SWAP1 POP PUSH2 0x274C DUP2 PUSH2 0x23CF JUMP JUMPDEST SWAP3 SWAP2 POP POP JUMP JUMPDEST PUSH0 PUSH1 0x20 DUP3 DUP5 SUB SLT ISZERO PUSH2 0x2767 JUMPI PUSH2 0x2766 PUSH2 0x1C8A JUMP JUMPDEST JUMPDEST PUSH0 PUSH2 0x2774 DUP5 DUP3 DUP6 ADD PUSH2 0x273E JUMP JUMPDEST SWAP2 POP POP SWAP3 SWAP2 POP POP JUMP JUMPDEST PUSH32 0x4F6E6C792061646D696E2063616E2063616C6C20746869730000000000000000 PUSH0 DUP3 ADD MSTORE POP JUMP JUMPDEST PUSH0 PUSH2 0x27B1 PUSH1 0x18 DUP4 PUSH2 0x1D09 JUMP JUMPDEST SWAP2 POP PUSH2 0x27BC DUP3 PUSH2 0x277D JUMP JUMPDEST PUSH1 0x20 DUP3 ADD SWAP1 POP SWAP2 SWAP1 POP JUMP JUMPDEST PUSH0 PUSH1 0x20 DUP3 ADD SWAP1 POP DUP2 DUP2 SUB PUSH0 DUP4 ADD MSTORE PUSH2 0x27DE DUP2 PUSH2 0x27A5 JUMP JUMPDEST SWAP1 POP SWAP2 SWAP1 POP JUMP JUMPDEST PUSH32 0x51756F72756D2070657263656E74616765206D75737420626520626574776565 PUSH0 DUP3 ADD MSTORE PUSH32 0x6E203020616E6420313030000000000000000000000000000000000000000000 PUSH1 0x20 DUP3 ADD MSTORE POP JUMP JUMPDEST PUSH0 PUSH2 0x283F PUSH1 0x2B DUP4 PUSH2 0x1D09 JUMP JUMPDEST SWAP2 POP PUSH2 0x284A DUP3 PUSH2 0x27E5 JUMP JUMPDEST PUSH1 0x40 DUP3 ADD SWAP1 POP SWAP2 SWAP1 POP JUMP JUMPDEST PUSH0 PUSH1 0x20 DUP3 ADD SWAP1 POP DUP2 DUP2 SUB PUSH0 DUP4 ADD MSTORE PUSH2 0x286C DUP2 PUSH2 0x2833 JUMP JUMPDEST SWAP1 POP SWAP2 SWAP1 POP JUMP JUMPDEST PUSH0 DUP2 MLOAD SWAP1 POP PUSH2 0x2881 DUP2 PUSH2 0x1C9B JUMP JUMPDEST SWAP3 SWAP2 POP POP JUMP JUMPDEST PUSH0 PUSH1 0x20 DUP3 DUP5 SUB SLT ISZERO PUSH2 0x289C JUMPI PUSH2 0x289B PUSH2 0x1C8A JUMP JUMPDEST JUMPDEST PUSH0 PUSH2 0x28A9 DUP5 DUP3 DUP6 ADD PUSH2 0x2873 JUMP JUMPDEST SWAP2 POP POP SWAP3 SWAP2 POP POP JUMP JUMPDEST PUSH32 0x496E73756666696369656E7420746F6B656E7320666F72206465706F73697400 PUSH0 DUP3 ADD MSTORE POP JUMP JUMPDEST PUSH0 PUSH2 0x28E6 PUSH1 0x1F DUP4 PUSH2 0x1D09 JUMP JUMPDEST SWAP2 POP PUSH2 0x28F1 DUP3 PUSH2 0x28B2 JUMP JUMPDEST PUSH1 0x20 DUP3 ADD SWAP1 POP SWAP2 SWAP1 POP JUMP JUMPDEST PUSH0 PUSH1 0x20 DUP3 ADD SWAP1 POP DUP2 DUP2 SUB PUSH0 DUP4 ADD MSTORE PUSH2 0x2913 DUP2 PUSH2 0x28DA JUMP JUMPDEST SWAP1 POP SWAP2 SWAP1 POP JUMP JUMPDEST PUSH32 0x5461726765747320616E642063616C6C6461746173206C656E677468206D6973 PUSH0 DUP3 ADD MSTORE PUSH32 0x6D61746368000000000000000000000000000000000000000000000000000000 PUSH1 0x20 DUP3 ADD MSTORE POP JUMP JUMPDEST PUSH0 PUSH2 0x2974 PUSH1 0x25 DUP4 PUSH2 0x1D09 JUMP JUMPDEST SWAP2 POP PUSH2 0x297F DUP3 PUSH2 0x291A JUMP JUMPDEST PUSH1 0x40 DUP3 ADD SWAP1 POP SWAP2 SWAP1 POP JUMP JUMPDEST PUSH0 PUSH1 0x20 DUP3 ADD SWAP1 POP DUP2 DUP2 SUB PUSH0 DUP4 ADD MSTORE PUSH2 0x29A1 DUP2 PUSH2 0x2968 JUMP JUMPDEST SWAP1 POP SWAP2 SWAP1 POP JUMP JUMPDEST PUSH0 PUSH1 0x60 DUP3 ADD SWAP1 POP PUSH2 0x29BB PUSH0 DUP4 ADD DUP7 PUSH2 0x1DB9 JUMP JUMPDEST PUSH2 0x29C8 PUSH1 0x20 DUP4 ADD DUP6 PUSH2 0x1DB9 JUMP JUMPDEST PUSH2 0x29D5 PUSH1 0x40 DUP4 ADD DUP5 PUSH2 0x1CF0 JUMP JUMPDEST SWAP5 SWAP4 POP POP POP POP JUMP JUMPDEST PUSH32 0x4E487B7100000000000000000000000000000000000000000000000000000000 PUSH0 MSTORE PUSH1 0x11 PUSH1 0x4 MSTORE PUSH1 0x24 PUSH0 REVERT JUMPDEST PUSH0 PUSH2 0x2A14 DUP3 PUSH2 0x1C92 JUMP JUMPDEST SWAP2 POP PUSH2 0x2A1F DUP4 PUSH2 0x1C92 JUMP JUMPDEST SWAP3 POP DUP3 DUP3 ADD SWAP1 POP DUP1 DUP3 GT ISZERO PUSH2 0x2A37 JUMPI PUSH2 0x2A36 PUSH2 0x29DD JUMP JUMPDEST JUMPDEST SWAP3 SWAP2 POP POP JUMP JUMPDEST PUSH32 0x4E487B7100000000000000000000000000000000000000000000000000000000 PUSH0 MSTORE PUSH1 0x41 PUSH1 0x4 MSTORE PUSH1 0x24 PUSH0 REVERT JUMPDEST PUSH2 0x2A73 DUP3 PUSH2 0x1D27 JUMP JUMPDEST DUP2 ADD DUP2 DUP2 LT PUSH8 0xFFFFFFFFFFFFFFFF DUP3 GT OR ISZERO PUSH2 0x2A92 JUMPI PUSH2 0x2A91 PUSH2 0x2A3D JUMP JUMPDEST JUMPDEST DUP1 PUSH1 0x40 MSTORE POP POP POP JUMP JUMPDEST PUSH0 PUSH2 0x2AA4 PUSH2 0x1C81 JUMP JUMPDEST SWAP1 POP PUSH2 0x2AB0 DUP3 DUP3 PUSH2 0x2A6A JUMP JUMPDEST SWAP2 SWAP1 POP JUMP JUMPDEST PUSH0 PUSH8 0xFFFFFFFFFFFFFFFF DUP3 GT ISZERO PUSH2 0x2ACF JUMPI PUSH2 0x2ACE PUSH2 0x2A3D JUMP JUMPDEST JUMPDEST PUSH1 0x20 DUP3 MUL SWAP1 POP PUSH1 0x20 DUP2 ADD SWAP1 POP SWAP2 SWAP1 POP JUMP JUMPDEST PUSH0 PUSH0 REVERT JUMPDEST PUSH0 PUSH8 0xFFFFFFFFFFFFFFFF DUP3 GT ISZERO PUSH2 0x2AFE JUMPI PUSH2 0x2AFD PUSH2 0x2A3D JUMP JUMPDEST JUMPDEST PUSH2 0x2B07 DUP3 PUSH2 0x1D27 JUMP JUMPDEST SWAP1 POP PUSH1 0x20 DUP2 ADD SWAP1 POP SWAP2 SWAP1 POP JUMP JUMPDEST DUP3 DUP2 DUP4 CALLDATACOPY PUSH0 DUP4 DUP4 ADD MSTORE POP POP POP JUMP JUMPDEST PUSH0 PUSH2 0x2B34 PUSH2 0x2B2F DUP5 PUSH2 0x2AE4 JUMP JUMPDEST PUSH2 0x2A9B JUMP JUMPDEST SWAP1 POP DUP3 DUP2 MSTORE PUSH1 0x20 DUP2 ADD DUP5 DUP5 DUP5 ADD GT ISZERO PUSH2 0x2B50 JUMPI PUSH2 0x2B4F PUSH2 0x2AE0 JUMP JUMPDEST JUMPDEST PUSH2 0x2B5B DUP5 DUP3 DUP6 PUSH2 0x2B14 JUMP JUMPDEST POP SWAP4 SWAP3 POP POP POP JUMP JUMPDEST PUSH0 DUP3 PUSH1 0x1F DUP4 ADD SLT PUSH2 0x2B77 JUMPI PUSH2 0x2B76 PUSH2 0x2214 JUMP JUMPDEST JUMPDEST DUP2 CALLDATALOAD PUSH2 0x2B87 DUP5 DUP3 PUSH1 0x20 DUP7 ADD PUSH2 0x2B22 JUMP JUMPDEST SWAP2 POP POP SWAP3 SWAP2 POP POP JUMP JUMPDEST PUSH0 PUSH2 0x2BA2 PUSH2 0x2B9D DUP5 PUSH2 0x2AB5 JUMP JUMPDEST PUSH2 0x2A9B JUMP JUMPDEST SWAP1 POP DUP1 DUP4 DUP3 MSTORE PUSH1 0x20 DUP3 ADD SWAP1 POP PUSH1 0x20 DUP5 MUL DUP4 ADD DUP6 DUP2 GT ISZERO PUSH2 0x2BC5 JUMPI PUSH2 0x2BC4 PUSH2 0x221C JUMP JUMPDEST JUMPDEST DUP4 JUMPDEST DUP2 DUP2 LT ISZERO PUSH2 0x2C0C JUMPI DUP1 CALLDATALOAD PUSH8 0xFFFFFFFFFFFFFFFF DUP2 GT ISZERO PUSH2 0x2BEA JUMPI PUSH2 0x2BE9 PUSH2 0x2214 JUMP JUMPDEST JUMPDEST DUP1 DUP7 ADD PUSH2 0x2BF7 DUP10 DUP3 PUSH2 0x2B63 JUMP JUMPDEST DUP6 MSTORE PUSH1 0x20 DUP6 ADD SWAP5 POP POP POP PUSH1 0x20 DUP2 ADD SWAP1 POP PUSH2 0x2BC7 JUMP JUMPDEST POP POP POP SWAP4 SWAP3 POP POP POP JUMP JUMPDEST PUSH0 PUSH2 0x2C22 CALLDATASIZE DUP5 DUP5 PUSH2 0x2B90 JUMP JUMPDEST SWAP1 POP SWAP3 SWAP2 POP POP JUMP JUMPDEST PUSH0 DUP2 SWAP1 POP DUP2 PUSH0 MSTORE PUSH1 0x20 PUSH0 KECCAK256 SWAP1 POP SWAP2 SWAP1 POP JUMP JUMPDEST PUSH0 PUSH1 0x20 PUSH1 0x1F DUP4 ADD DIV SWAP1 POP SWAP2 SWAP1 POP JUMP JUMPDEST PUSH0 DUP3 DUP3 SHL SWAP1 POP SWAP3 SWAP2 POP POP JUMP JUMPDEST PUSH0 PUSH1 0x8 DUP4 MUL PUSH2 0x2C86 PUSH32 0xFFFFFFFFFFFFFFFFFFFFFFFFFFFFFFFFFFFFFFFFFFFFFFFFFFFFFFFFFFFFFFFF DUP3 PUSH2 0x2C4B JUMP JUMPDEST PUSH2 0x2C90 DUP7 DUP4 PUSH2 0x2C4B JUMP JUMPDEST SWAP6 POP DUP1 NOT DUP5 AND SWAP4 POP DUP1 DUP7 AND DUP5 OR SWAP3 POP POP POP SWAP4 SWAP3 POP POP POP JUMP JUMPDEST PUSH0 PUSH2 0x2CC2 PUSH2 0x2CBD PUSH2 0x2CB8 DUP5 PUSH2 0x1C92 JUMP JUMPDEST PUSH2 0x2470 JUMP JUMPDEST PUSH2 0x1C92 JUMP JUMPDEST SWAP1 POP SWAP2 SWAP1 POP JUMP JUMPDEST PUSH0 DUP2 SWAP1 POP SWAP2 SWAP1 POP JUMP JUMPDEST PUSH2 0x2CDB DUP4 PUSH2 0x2CA8 JUMP JUMPDEST PUSH2 0x2CEF PUSH2 0x2CE7 DUP3 PUSH2 0x2CC9 JUMP JUMPDEST DUP5 DUP5 SLOAD PUSH2 0x2C57 JUMP JUMPDEST DUP3 SSTORE POP POP POP POP JUMP JUMPDEST PUSH0 PUSH0 SWAP1 POP SWAP1 JUMP JUMPDEST PUSH2 0x2D06 PUSH2 0x2CF7 JUMP JUMPDEST PUSH2 0x2D11 DUP2 DUP5 DUP5 PUSH2 0x2CD2 JUMP JUMPDEST POP POP POP JUMP JUMPDEST JUMPDEST DUP2 DUP2 LT ISZERO PUSH2 0x2D34 JUMPI PUSH2 0x2D29 PUSH0 DUP3 PUSH2 0x2CFE JUMP JUMPDEST PUSH1 0x1 DUP2 ADD SWAP1 POP PUSH2 0x2D17 JUMP JUMPDEST POP POP JUMP JUMPDEST PUSH1 0x1F DUP3 GT ISZERO PUSH2 0x2D79 JUMPI PUSH2 0x2D4A DUP2 PUSH2 0x2C2A JUMP JUMPDEST PUSH2 0x2D53 DUP5 PUSH2 0x2C3C JUMP JUMPDEST DUP2 ADD PUSH1 0x20 DUP6 LT ISZERO PUSH2 0x2D62 JUMPI DUP2 SWAP1 POP JUMPDEST PUSH2 0x2D76 PUSH2 0x2D6E DUP6 PUSH2 0x2C3C JUMP JUMPDEST DUP4 ADD DUP3 PUSH2 0x2D16 JUMP JUMPDEST POP POP JUMPDEST POP POP POP JUMP JUMPDEST PUSH0 DUP3 DUP3 SHR SWAP1 POP SWAP3 SWAP2 POP POP JUMP JUMPDEST PUSH0 PUSH2 0x2D99 PUSH0 NOT DUP5 PUSH1 0x8 MUL PUSH2 0x2D7E JUMP JUMPDEST NOT DUP1 DUP4 AND SWAP2 POP POP SWAP3 SWAP2 POP POP JUMP JUMPDEST PUSH0 PUSH2 0x2DB1 DUP4 DUP4 PUSH2 0x2D8A JUMP JUMPDEST SWAP2 POP DUP3 PUSH1 0x2 MUL DUP3 OR SWAP1 POP SWAP3 SWAP2 POP POP JUMP JUMPDEST PUSH2 0x2DCA DUP3 PUSH2 0x1CFF JUMP JUMPDEST PUSH8 0xFFFFFFFFFFFFFFFF DUP2 GT ISZERO PUSH2 0x2DE3 JUMPI PUSH2 0x2DE2 PUSH2 0x2A3D JUMP JUMPDEST JUMPDEST PUSH2 0x2DED DUP3 SLOAD PUSH2 0x2511 JUMP JUMPDEST PUSH2 0x2DF8 DUP3 DUP3 DUP6 PUSH2 0x2D38 JUMP JUMPDEST PUSH0 PUSH1 0x20 SWAP1 POP PUSH1 0x1F DUP4 GT PUSH1 0x1 DUP2 EQ PUSH2 0x2E29 JUMPI PUSH0 DUP5 ISZERO PUSH2 0x2E17 JUMPI DUP3 DUP8 ADD MLOAD SWAP1 POP JUMPDEST PUSH2 0x2E21 DUP6 DUP3 PUSH2 0x2DA6 JUMP JUMPDEST DUP7 SSTORE POP PUSH2 0x2E88 JUMP JUMPDEST PUSH1 0x1F NOT DUP5 AND PUSH2 0x2E37 DUP7 PUSH2 0x2C2A JUMP JUMPDEST PUSH0 JUMPDEST DUP3 DUP2 LT ISZERO PUSH2 0x2E5E JUMPI DUP5 DUP10 ADD MLOAD DUP3 SSTORE PUSH1 0x1 DUP3 ADD SWAP2 POP PUSH1 0x20 DUP6 ADD SWAP5 POP PUSH1 0x20 DUP2 ADD SWAP1 POP PUSH2 0x2E39 JUMP JUMPDEST DUP7 DUP4 LT ISZERO PUSH2 0x2E7B JUMPI DUP5 DUP10 ADD MLOAD PUSH2 0x2E77 PUSH1 0x1F DUP10 AND DUP3 PUSH2 0x2D8A JUMP JUMPDEST DUP4 SSTORE POP JUMPDEST PUSH1 0x1 PUSH1 0x2 DUP9 MUL ADD DUP9 SSTORE POP POP POP JUMPDEST POP POP POP POP POP POP JUMP JUMPDEST PUSH0 PUSH2 0x2E9B DUP4 DUP6 PUSH2 0x1D09 JUMP JUMPDEST SWAP4 POP PUSH2 0x2EA8 DUP4 DUP6 DUP5 PUSH2 0x2B14 JUMP JUMPDEST PUSH2 0x2EB1 DUP4 PUSH2 0x1D27 JUMP JUMPDEST DUP5 ADD SWAP1 POP SWAP4 SWAP3 POP POP POP JUMP JUMPDEST PUSH0 PUSH1 0x80 DUP3 ADD SWAP1 POP PUSH2 0x2ECF PUSH0 DUP4 ADD DUP9 PUSH2 0x1CF0 JUMP JUMPDEST DUP2 DUP2 SUB PUSH1 0x20 DUP4 ADD MSTORE PUSH2 0x2EE2 DUP2 DUP7 DUP9 PUSH2 0x2E90 JUMP JUMPDEST SWAP1 POP PUSH2 0x2EF1 PUSH1 0x40 DUP4 ADD DUP6 PUSH2 0x1DB9 JUMP JUMPDEST PUSH2 0x2EFE PUSH1 0x60 DUP4 ADD DUP5 PUSH2 0x1CF0 JUMP JUMPDEST SWAP7 SWAP6 POP POP POP POP POP POP JUMP JUMPDEST PUSH0 PUSH2 0x2F12 DUP3 PUSH2 0x1C92 JUMP JUMPDEST SWAP2 POP PUSH32 0xFFFFFFFFFFFFFFFFFFFFFFFFFFFFFFFFFFFFFFFFFFFFFFFFFFFFFFFFFFFFFFFF DUP3 SUB PUSH2 0x2F44 JUMPI PUSH2 0x2F43 PUSH2 0x29DD JUMP JUMPDEST JUMPDEST PUSH1 0x1 DUP3 ADD SWAP1 POP SWAP2 SWAP1 POP JUMP JUMPDEST PUSH0 PUSH2 0x2F59 DUP3 PUSH2 0x1C92 JUMP JUMPDEST SWAP2 POP PUSH2 0x2F64 DUP4 PUSH2 0x1C92 JUMP JUMPDEST SWAP3 POP DUP3 DUP3 SUB SWAP1 POP DUP2 DUP2 GT ISZERO PUSH2 0x2F7C JUMPI PUSH2 0x2F7B PUSH2 0x29DD JUMP JUMPDEST JUMPDEST SWAP3 SWAP2 POP POP JUMP JUMPDEST PUSH32 0x566F74696E6720706572696F64206E6F7420796574206F766572000000000000 PUSH0 DUP3 ADD MSTORE POP JUMP JUMPDEST PUSH0 PUSH2 0x2FB6 PUSH1 0x1A DUP4 PUSH2 0x1D09 JUMP JUMPDEST SWAP2 POP PUSH2 0x2FC1 DUP3 PUSH2 0x2F82 JUMP JUMPDEST PUSH1 0x20 DUP3 ADD SWAP1 POP SWAP2 SWAP1 POP JUMP JUMPDEST PUSH0 PUSH1 0x20 DUP3 ADD SWAP1 POP DUP2 DUP2 SUB PUSH0 DUP4 ADD MSTORE PUSH2 0x2FE3 DUP2 PUSH2 0x2FAA JUMP JUMPDEST SWAP1 POP SWAP2 SWAP1 POP JUMP JUMPDEST PUSH32 0x457865637574696F6E2074696D6520616C726561647920736574000000000000 PUSH0 DUP3 ADD MSTORE POP JUMP JUMPDEST PUSH0 PUSH2 0x301E PUSH1 0x1A DUP4 PUSH2 0x1D09 JUMP JUMPDEST SWAP2 POP PUSH2 0x3029 DUP3 PUSH2 0x2FEA JUMP JUMPDEST PUSH1 0x20 DUP3 ADD SWAP1 POP SWAP2 SWAP1 POP JUMP JUMPDEST PUSH0 PUSH1 0x20 DUP3 ADD SWAP1 POP DUP2 DUP2 SUB PUSH0 DUP4 ADD MSTORE PUSH2 0x304B DUP2 PUSH2 0x3012 JUMP JUMPDEST SWAP1 POP SWAP2 SWAP1 POP JUMP JUMPDEST PUSH0 PUSH2 0x305C DUP3 PUSH2 0x1C92 JUMP JUMPDEST SWAP2 POP PUSH2 0x3067 DUP4 PUSH2 0x1C92 JUMP JUMPDEST SWAP3 POP DUP3 DUP3 MUL PUSH2 0x3075 DUP2 PUSH2 0x1C92 JUMP JUMPDEST SWAP2 POP DUP3 DUP3 DIV DUP5 EQ DUP4 ISZERO OR PUSH2 0x308C JUMPI PUSH2 0x308B PUSH2 0x29DD JUMP JUMPDEST JUMPDEST POP SWAP3 SWAP2 POP POP JUMP JUMPDEST PUSH32 0x4E487B7100000000000000000000000000000000000000000000000000000000 PUSH0 MSTORE PUSH1 0x12 PUSH1 0x4 MSTORE PUSH1 0x24 PUSH0 REVERT JUMPDEST PUSH0 PUSH2 0x30CA DUP3 PUSH2 0x1C92 JUMP JUMPDEST SWAP2 POP PUSH2 0x30D5 DUP4 PUSH2 0x1C92 JUMP JUMPDEST SWAP3 POP DUP3 PUSH2 0x30E5 JUMPI PUSH2 0x30E4 PUSH2 0x3093 JUMP JUMPDEST JUMPDEST DUP3 DUP3 DIV SWAP1 POP SWAP3 SWAP2 POP POP JUMP JUMPDEST PUSH0 PUSH1 0x40 DUP3 ADD SWAP1 POP PUSH2 0x3103 PUSH0 DUP4 ADD DUP6 PUSH2 0x1CF0 JUMP JUMPDEST PUSH2 0x3110 PUSH1 0x20 DUP4 ADD DUP5 PUSH2 0x1CF0 JUMP JUMPDEST SWAP4 SWAP3 POP POP POP JUMP JUMPDEST PUSH0 PUSH1 0x60 DUP3 ADD SWAP1 POP PUSH2 0x312A PUSH0 DUP4 ADD DUP7 PUSH2 0x1CF0 JUMP JUMPDEST PUSH2 0x3137 PUSH1 0x20 DUP4 ADD DUP6 PUSH2 0x1CF0 JUMP JUMPDEST PUSH2 0x3144 PUSH1 0x40 DUP4 ADD DUP5 PUSH2 0x1CF0 JUMP JUMPDEST SWAP5 SWAP4 POP POP POP POP JUMP JUMPDEST PUSH32 0x566F74696E6720706572696F64206F7665720000000000000000000000000000 PUSH0 DUP3 ADD MSTORE POP JUMP JUMPDEST PUSH0 PUSH2 0x3180 PUSH1 0x12 DUP4 PUSH2 0x1D09 JUMP JUMPDEST SWAP2 POP PUSH2 0x318B DUP3 PUSH2 0x314C JUMP JUMPDEST PUSH1 0x20 DUP3 ADD SWAP1 POP SWAP2 SWAP1 POP JUMP JUMPDEST PUSH0 PUSH1 0x20 DUP3 ADD SWAP1 POP DUP2 DUP2 SUB PUSH0 DUP4 ADD MSTORE PUSH2 0x31AD DUP2 PUSH2 0x3174 JUMP JUMPDEST SWAP1 POP SWAP2 SWAP1 POP JUMP JUMPDEST PUSH32 0x4E6F20676F7665726E616E636520746F6B656E73000000000000000000000000 PUSH0 DUP3 ADD MSTORE POP JUMP JUMPDEST PUSH0 PUSH2 0x31E8 PUSH1 0x14 DUP4 PUSH2 0x1D09 JUMP JUMPDEST SWAP2 POP PUSH2 0x31F3 DUP3 PUSH2 0x31B4 JUMP JUMPDEST PUSH1 0x20 DUP3 ADD SWAP1 POP SWAP2 SWAP1 POP JUMP JUMPDEST PUSH0 PUSH1 0x20 DUP3 ADD SWAP1 POP DUP2 DUP2 SUB PUSH0 DUP4 ADD MSTORE PUSH2 0x3215 DUP2 PUSH2 0x31DC JUMP JUMPDEST SWAP1 POP SWAP2 SWAP1 POP JUMP JUMPDEST PUSH32 0x416C726561647920766F74656400000000000000000000000000000000000000 PUSH0 DUP3 ADD MSTORE POP JUMP JUMPDEST PUSH0 PUSH2 0x3250 PUSH1 0xD DUP4 PUSH2 0x1D09 JUMP JUMPDEST SWAP2 POP PUSH2 0x325B DUP3 PUSH2 0x321C JUMP JUMPDEST PUSH1 0x20 DUP3 ADD SWAP1 POP SWAP2 SWAP1 POP JUMP JUMPDEST PUSH0 PUSH1 0x20 DUP3 ADD SWAP1 POP DUP2 DUP2 SUB PUSH0 DUP4 ADD MSTORE PUSH2 0x327D DUP2 PUSH2 0x3244 JUMP JUMPDEST SWAP1 POP SWAP2 SWAP1 POP JUMP JUMPDEST PUSH0 PUSH1 0x80 DUP3 ADD SWAP1 POP PUSH2 0x3297 PUSH0 DUP4 ADD DUP8 PUSH2 0x1CF0 JUMP JUMPDEST PUSH2 0x32A4 PUSH1 0x20 DUP4 ADD DUP7 PUSH2 0x1DB9 JUMP JUMPDEST PUSH2 0x32B1 PUSH1 0x40 DUP4 ADD DUP6 PUSH2 0x1D7A JUMP JUMPDEST PUSH2 0x32BE PUSH1 0x60 DUP4 ADD DUP5 PUSH2 0x1CF0 JUMP JUMPDEST SWAP6 SWAP5 POP POP POP POP POP JUMP JUMPDEST PUSH32 0x50726F706F73616C206E6F742079657420657865637574656400000000000000 PUSH0 DUP3 ADD MSTORE POP JUMP JUMPDEST PUSH0 PUSH2 0x32FB PUSH1 0x19 DUP4 PUSH2 0x1D09 JUMP JUMPDEST SWAP2 POP PUSH2 0x3306 DUP3 PUSH2 0x32C7 JUMP JUMPDEST PUSH1 0x20 DUP3 ADD SWAP1 POP SWAP2 SWAP1 POP JUMP JUMPDEST PUSH0 PUSH1 0x20 DUP3 ADD SWAP1 POP DUP2 DUP2 SUB PUSH0 DUP4 ADD MSTORE PUSH2 0x3328 DUP2 PUSH2 0x32EF JUMP JUMPDEST SWAP1 POP SWAP2 SWAP1 POP JUMP JUMPDEST PUSH32 0x5265656E7472616E637947756172643A207265656E7472616E742063616C6C00 PUSH0 DUP3 ADD MSTORE POP JUMP JUMPDEST PUSH0 PUSH2 0x3363 PUSH1 0x1F DUP4 PUSH2 0x1D09 JUMP JUMPDEST SWAP2 POP PUSH2 0x336E DUP3 PUSH2 0x332F JUMP JUMPDEST PUSH1 0x20 DUP3 ADD SWAP1 POP SWAP2 SWAP1 POP JUMP JUMPDEST PUSH0 PUSH1 0x20 DUP3 ADD SWAP1 POP DUP2 DUP2 SUB PUSH0 DUP4 ADD MSTORE PUSH2 0x3390 DUP2 PUSH2 0x3357 JUMP JUMPDEST SWAP1 POP SWAP2 SWAP1 POP JUMP JUMPDEST PUSH1 0x1F DUP3 GT ISZERO PUSH2 0x33D8 JUMPI PUSH2 0x33A9 DUP2 PUSH2 0x2648 JUMP JUMPDEST PUSH2 0x33B2 DUP5 PUSH2 0x2C3C JUMP JUMPDEST DUP2 ADD PUSH1 0x20 DUP6 LT ISZERO PUSH2 0x33C1 JUMPI DUP2 SWAP1 POP JUMPDEST PUSH2 0x33D5 PUSH2 0x33CD DUP6 PUSH2 0x2C3C JUMP JUMPDEST DUP4 ADD DUP3 PUSH2 0x2D16 JUMP JUMPDEST POP POP JUMPDEST POP POP POP JUMP JUMPDEST PUSH2 0x33E6 DUP3 PUSH2 0x1F02 JUMP JUMPDEST PUSH8 0xFFFFFFFFFFFFFFFF DUP2 GT ISZERO PUSH2 0x33FF JUMPI PUSH2 0x33FE PUSH2 0x2A3D JUMP JUMPDEST JUMPDEST PUSH2 0x3409 DUP3 SLOAD PUSH2 0x2511 JUMP JUMPDEST PUSH2 0x3414 DUP3 DUP3 DUP6 PUSH2 0x3397 JUMP JUMPDEST PUSH0 PUSH1 0x20 SWAP1 POP PUSH1 0x1F DUP4 GT PUSH1 0x1 DUP2 EQ PUSH2 0x3445 JUMPI PUSH0 DUP5 ISZERO PUSH2 0x3433 JUMPI DUP3 DUP8 ADD MLOAD SWAP1 POP JUMPDEST PUSH2 0x343D DUP6 DUP3 PUSH2 0x2DA6 JUMP JUMPDEST DUP7 SSTORE POP PUSH2 0x34A4 JUMP JUMPDEST PUSH1 0x1F NOT DUP5 AND PUSH2 0x3453 DUP7 PUSH2 0x2648 JUMP JUMPDEST PUSH0 JUMPDEST DUP3 DUP2 LT ISZERO PUSH2 0x347A JUMPI DUP5 DUP10 ADD MLOAD DUP3 SSTORE PUSH1 0x1 DUP3 ADD SWAP2 POP PUSH1 0x20 DUP6 ADD SWAP5 POP PUSH1 0x20 DUP2 ADD SWAP1 POP PUSH2 0x3455 JUMP JUMPDEST DUP7 DUP4 LT ISZERO PUSH2 0x3497 JUMPI DUP5 DUP10 ADD MLOAD PUSH2 0x3493 PUSH1 0x1F DUP10 AND DUP3 PUSH2 0x2D8A JUMP JUMPDEST DUP4 SSTORE POP JUMPDEST PUSH1 0x1 PUSH1 0x2 DUP9 MUL ADD DUP9 SSTORE POP POP POP JUMPDEST POP POP POP POP POP POP JUMP INVALID LOG2 PUSH5 0x6970667358 0x22 SLT KECCAK256 EXTCODESIZE TLOAD 0xDF ORIGIN CALLF 0xAC2E DUP9 EXTCODEHASH MULMOD 0xC0 0xED 0xBC SMOD EXTDELEGATECALL 0xE2 PUSH10 0x1A74747B1F0B90423D41 0xC3 0x4B 0xBD 0xC 0xA5 PUSH5 0x736F6C6343 STOP ADDMOD 0x1E STOP CALLER "
		},
		"gasEstimates": {
			"creation": {
				"codeDepositCost": "2707600",
				"executionCost": "infinite",
				"totalCost": "infinite"
			},
			"external": {
				"admin()": "2574",
				"createProposal(string,address[],bytes[])": "infinite",
				"executeProposal(uint256)": "infinite",
				"finalizeProposal(uint256)": "infinite",
				"getProposalDetails(uint256)": "infinite",
				"getProposalResult(uint256)": "infinite",
				"governanceToken()": "infinite",
				"hasVoted(uint256,address)": "3093",
				"nextProposalId()": "2470",
				"proposalDepositAmount()": "2493",
				"proposals(uint256)": "infinite",
				"quorumPercentage()": "2492",
				"setProposalDepositAmount(uint256)": "24706",
				"setQuorumPercentage(uint256)": "24799",
				"setTimelockDuration(uint256)": "infinite",
				"timelockDuration()": "2492",
				"vote(uint256,bool)": "infinite",
				"votingDuration()": "2515"
			}
		},
		"methodIdentifiers": {
			"admin()": "f851a440",
			"createProposal(string,address[],bytes[])": "45bb1550",
			"executeProposal(uint256)": "0d61b519",
			"finalizeProposal(uint256)": "5652077c",
			"getProposalDetails(uint256)": "3b4d01a7",
			"getProposalResult(uint256)": "f91f88f7",
			"governanceToken()": "f96dae0a",
			"hasVoted(uint256,address)": "43859632",
			"nextProposalId()": "2ab09d14",
			"proposalDepositAmount()": "0e7ca9e3",
			"proposals(uint256)": "013cf08b",
			"quorumPercentage()": "4fa76ec9",
			"setProposalDepositAmount(uint256)": "af42d03a",
			"setQuorumPercentage(uint256)": "32f6a1dc",
			"setTimelockDuration(uint256)": "150fea09",
			"timelockDuration()": "2bbca157",
			"vote(uint256,bool)": "c9d27afe",
			"votingDuration()": "132002fc"
		}
	},
	"abi": [
		{
			"inputs": [
				{
					"internalType": "address",
					"name": "_governanceToken",
					"type": "address"
				},
				{
					"internalType": "uint256",
					"name": "_votingDuration",
					"type": "uint256"
				},
				{
					"internalType": "uint256",
					"name": "_timelockDuration",
					"type": "uint256"
				}
			],
			"stateMutability": "nonpayable",
			"type": "constructor"
		},
		{
			"anonymous": false,
			"inputs": [
				{
					"indexed": false,
					"internalType": "uint256",
					"name": "id",
					"type": "uint256"
				},
				{
					"indexed": false,
					"internalType": "string",
					"name": "description",
					"type": "string"
				},
				{
					"indexed": false,
					"internalType": "address",
					"name": "proposer",
					"type": "address"
				},
				{
					"indexed": false,
					"internalType": "uint256",
					"name": "depositAmount",
					"type": "uint256"
				}
			],
			"name": "ProposalCreated",
			"type": "event"
		},
		{
			"anonymous": false,
			"inputs": [
				{
					"indexed": false,
					"internalType": "address",
					"name": "proposer",
					"type": "address"
				},
				{
					"indexed": false,
					"internalType": "uint256",
					"name": "amount",
					"type": "uint256"
				}
			],
			"name": "ProposalDepositPaid",
			"type": "event"
		},
		{
			"anonymous": false,
			"inputs": [
				{
					"indexed": false,
					"internalType": "address",
					"name": "proposer",
					"type": "address"
				},
				{
					"indexed": false,
					"internalType": "uint256",
					"name": "amount",
					"type": "uint256"
				}
			],
			"name": "ProposalDepositRefunded",
			"type": "event"
		},
		{
			"anonymous": false,
			"inputs": [
				{
					"indexed": false,
					"internalType": "uint256",
					"name": "id",
					"type": "uint256"
				},
				{
					"indexed": false,
					"internalType": "bool",
					"name": "passed",
					"type": "bool"
				}
			],
			"name": "ProposalExecuted",
			"type": "event"
		},
		{
			"anonymous": false,
			"inputs": [
				{
					"indexed": false,
					"internalType": "uint256",
					"name": "proposalId",
					"type": "uint256"
				},
				{
					"indexed": false,
					"internalType": "uint256",
					"name": "executionTime",
					"type": "uint256"
				}
			],
			"name": "ProposalTimelockStarted",
			"type": "event"
		},
		{
			"anonymous": false,
			"inputs": [
				{
					"indexed": false,
					"internalType": "uint256",
					"name": "id",
					"type": "uint256"
				},
				{
					"indexed": false,
					"internalType": "uint256",
					"name": "votesTotal",
					"type": "uint256"
				},
				{
					"indexed": false,
					"internalType": "uint256",
					"name": "quorumNeeded",
					"type": "uint256"
				}
			],
			"name": "QuorumNotMet",
			"type": "event"
		},
		{
			"anonymous": false,
			"inputs": [
				{
					"indexed": false,
					"internalType": "uint256",
					"name": "duration",
					"type": "uint256"
				}
			],
			"name": "TimelockSet",
			"type": "event"
		},
		{
			"anonymous": false,
			"inputs": [
				{
					"indexed": false,
					"internalType": "uint256",
					"name": "proposalId",
					"type": "uint256"
				},
				{
					"indexed": false,
					"internalType": "address",
					"name": "voter",
					"type": "address"
				},
				{
					"indexed": false,
					"internalType": "bool",
					"name": "support",
					"type": "bool"
				},
				{
					"indexed": false,
					"internalType": "uint256",
					"name": "weight",
					"type": "uint256"
				}
			],
			"name": "Voted",
			"type": "event"
		},
		{
			"inputs": [],
			"name": "admin",
			"outputs": [
				{
					"internalType": "address",
					"name": "",
					"type": "address"
				}
			],
			"stateMutability": "view",
			"type": "function"
		},
		{
			"inputs": [
				{
					"internalType": "string",
					"name": "_description",
					"type": "string"
				},
				{
					"internalType": "address[]",
					"name": "_targets",
					"type": "address[]"
				},
				{
					"internalType": "bytes[]",
					"name": "_calldatas",
					"type": "bytes[]"
				}
			],
			"name": "createProposal",
			"outputs": [
				{
					"internalType": "uint256",
					"name": "",
					"type": "uint256"
				}
			],
			"stateMutability": "nonpayable",
			"type": "function"
		},
		{
			"inputs": [
				{
					"internalType": "uint256",
					"name": "proposalId",
					"type": "uint256"
				}
			],
			"name": "executeProposal",
			"outputs": [],
			"stateMutability": "nonpayable",
			"type": "function"
		},
		{
			"inputs": [
				{
					"internalType": "uint256",
					"name": "proposalId",
					"type": "uint256"
				}
			],
			"name": "finalizeProposal",
			"outputs": [],
			"stateMutability": "nonpayable",
			"type": "function"
		},
		{
			"inputs": [
				{
					"internalType": "uint256",
					"name": "proposalId",
					"type": "uint256"
				}
			],
			"name": "getProposalDetails",
			"outputs": [
				{
					"components": [
						{
							"internalType": "uint256",
							"name": "id",
							"type": "uint256"
						},
						{
							"internalType": "string",
							"name": "description",
							"type": "string"
						},
						{
							"internalType": "uint256",
							"name": "deadline",
							"type": "uint256"
						},
						{
							"internalType": "uint256",
							"name": "votesFor",
							"type": "uint256"
						},
						{
							"internalType": "uint256",
							"name": "votesAgainst",
							"type": "uint256"
						},
						{
							"internalType": "bool",
							"name": "executed",
							"type": "bool"
						},
						{
							"internalType": "address",
							"name": "proposer",
							"type": "address"
						},
						{
							"internalType": "bytes[]",
							"name": "executionData",
							"type": "bytes[]"
						},
						{
							"internalType": "address[]",
							"name": "executionTargets",
							"type": "address[]"
						},
						{
							"internalType": "uint256",
							"name": "executionTime",
							"type": "uint256"
						}
					],
					"internalType": "struct DecentralizedGovernance.Proposal",
					"name": "",
					"type": "tuple"
				}
			],
			"stateMutability": "view",
			"type": "function"
		},
		{
			"inputs": [
				{
					"internalType": "uint256",
					"name": "proposalId",
					"type": "uint256"
				}
			],
			"name": "getProposalResult",
			"outputs": [
				{
					"internalType": "string",
					"name": "",
					"type": "string"
				}
			],
			"stateMutability": "view",
			"type": "function"
		},
		{
			"inputs": [],
			"name": "governanceToken",
			"outputs": [
				{
					"internalType": "contract IERC20",
					"name": "",
					"type": "address"
				}
			],
			"stateMutability": "view",
			"type": "function"
		},
		{
			"inputs": [
				{
					"internalType": "uint256",
					"name": "",
					"type": "uint256"
				},
				{
					"internalType": "address",
					"name": "",
					"type": "address"
				}
			],
			"name": "hasVoted",
			"outputs": [
				{
					"internalType": "bool",
					"name": "",
					"type": "bool"
				}
			],
			"stateMutability": "view",
			"type": "function"
		},
		{
			"inputs": [],
			"name": "nextProposalId",
			"outputs": [
				{
					"internalType": "uint256",
					"name": "",
					"type": "uint256"
				}
			],
			"stateMutability": "view",
			"type": "function"
		},
		{
			"inputs": [],
			"name": "proposalDepositAmount",
			"outputs": [
				{
					"internalType": "uint256",
					"name": "",
					"type": "uint256"
				}
			],
			"stateMutability": "view",
			"type": "function"
		},
		{
			"inputs": [
				{
					"internalType": "uint256",
					"name": "",
					"type": "uint256"
				}
			],
			"name": "proposals",
			"outputs": [
				{
					"internalType": "uint256",
					"name": "id",
					"type": "uint256"
				},
				{
					"internalType": "string",
					"name": "description",
					"type": "string"
				},
				{
					"internalType": "uint256",
					"name": "deadline",
					"type": "uint256"
				},
				{
					"internalType": "uint256",
					"name": "votesFor",
					"type": "uint256"
				},
				{
					"internalType": "uint256",
					"name": "votesAgainst",
					"type": "uint256"
				},
				{
					"internalType": "bool",
					"name": "executed",
					"type": "bool"
				},
				{
					"internalType": "address",
					"name": "proposer",
					"type": "address"
				},
				{
					"internalType": "uint256",
					"name": "executionTime",
					"type": "uint256"
				}
			],
			"stateMutability": "view",
			"type": "function"
		},
		{
			"inputs": [],
			"name": "quorumPercentage",
			"outputs": [
				{
					"internalType": "uint256",
					"name": "",
					"type": "uint256"
				}
			],
			"stateMutability": "view",
			"type": "function"
		},
		{
			"inputs": [
				{
					"internalType": "uint256",
					"name": "_proposalDepositAmount",
					"type": "uint256"
				}
			],
			"name": "setProposalDepositAmount",
			"outputs": [],
			"stateMutability": "nonpayable",
			"type": "function"
		},
		{
			"inputs": [
				{
					"internalType": "uint256",
					"name": "_quorumPercentage",
					"type": "uint256"
				}
			],
			"name": "setQuorumPercentage",
			"outputs": [],
			"stateMutability": "nonpayable",
			"type": "function"
		},
		{
			"inputs": [
				{
					"internalType": "uint256",
					"name": "_timelockDuration",
					"type": "uint256"
				}
			],
			"name": "setTimelockDuration",
			"outputs": [],
			"stateMutability": "nonpayable",
			"type": "function"
		},
		{
			"inputs": [],
			"name": "timelockDuration",
			"outputs": [
				{
					"internalType": "uint256",
					"name": "",
					"type": "uint256"
				}
			],
			"stateMutability": "view",
			"type": "function"
		},
		{
			"inputs": [
				{
					"internalType": "uint256",
					"name": "proposalId",
					"type": "uint256"
				},
				{
					"internalType": "bool",
					"name": "support",
					"type": "bool"
				}
			],
			"name": "vote",
			"outputs": [],
			"stateMutability": "nonpayable",
			"type": "function"
		},
		{
			"inputs": [],
			"name": "votingDuration",
			"outputs": [
				{
					"internalType": "uint256",
					"name": "",
					"type": "uint256"
				}
			],
			"stateMutability": "view",
			"type": "function"
		}
	]
}