{
	"data": {
		"bytecode": {
			"linkReferences": {},
			"object": "6080604052348015600e575f5ffd5b506108f88061001c5f395ff3fe608060405234801561000f575f5ffd5b5060043610610034575f3560e01c806390f1c82914610038578063ae1ca5e21461005a575b5f5ffd5b610040610076565b6040516100519594939291906103c2565b60405180910390f35b610074600480360381019061006f91906104c2565b6102cd565b005b60608060605f60605f6001600260035f9054906101000a900460ff1660048480546100a0906105e5565b80601f01602080910402602001604051908101604052809291908181526020018280546100cc906105e5565b80156101175780601f106100ee57610100808354040283529160200191610117565b820191905f5260205f20905b8154815290600101906020018083116100fa57829003601f168201915b5050505050945083805461012a906105e5565b80601f0160208091040260200160405190810160405280929190818152602001828054610156906105e5565b80156101a15780601f10610178576101008083540402835291602001916101a1565b820191905f5260205f20905b81548152906001019060200180831161018457829003601f168201915b505050505093508280546101b4906105e5565b80601f01602080910402602001604051908101604052809291908181526020018280546101e0906105e5565b801561022b5780601f106102025761010080835404028352916020019161022b565b820191905f5260205f20905b81548152906001019060200180831161020e57829003601f168201915b5050505050925080805461023e906105e5565b80601f016020809104026020016040519081016040528092919081815260200182805461026a906105e5565b80156102b55780601f1061028c576101008083540402835291602001916102b5565b820191905f5260205f20905b81548152906001019060200180831161029857829003601f168201915b50505050509050945094509450945094509091929394565b88885f91826102dd9291906107f5565b508686600191826102ef9291906107f5565b508484600291826103019291906107f5565b508260035f6101000a81548160ff02191690831515021790555081816004918261032c9291906107f5565b50505050505050505050565b5f81519050919050565b5f82825260208201905092915050565b8281835e5f83830152505050565b5f601f19601f8301169050919050565b5f61037a82610338565b6103848185610342565b9350610394818560208601610352565b61039d81610360565b840191505092915050565b5f8115159050919050565b6103bc816103a8565b82525050565b5f60a0820190508181035f8301526103da8188610370565b905081810360208301526103ee8187610370565b905081810360408301526104028186610370565b905061041160608301856103b3565b81810360808301526104238184610370565b90509695505050505050565b5f5ffd5b5f5ffd5b5f5ffd5b5f5ffd5b5f5ffd5b5f5f83601f84011261045857610457610437565b5b8235905067ffffffffffffffff8111156104755761047461043b565b5b6020830191508360018202830111156104915761049061043f565b5b9250929050565b6104a1816103a8565b81146104ab575f5ffd5b50565b5f813590506104bc81610498565b92915050565b5f5f5f5f5f5f5f5f5f60a08a8c0312156104df576104de61042f565b5b5f8a013567ffffffffffffffff8111156104fc576104fb610433565b5b6105088c828d01610443565b995099505060208a013567ffffffffffffffff81111561052b5761052a610433565b5b6105378c828d01610443565b975097505060408a013567ffffffffffffffff81111561055a57610559610433565b5b6105668c828d01610443565b955095505060606105798c828d016104ae565b93505060808a013567ffffffffffffffff81111561059a57610599610433565b5b6105a68c828d01610443565b92509250509295985092959850929598565b7f4e487b71000000000000000000000000000000000000000000000000000000005f52602260045260245ffd5b5f60028204905060018216806105fc57607f821691505b60208210810361060f5761060e6105b8565b5b50919050565b5f82905092915050565b7f4e487b71000000000000000000000000000000000000000000000000000000005f52604160045260245ffd5b5f819050815f5260205f209050919050565b5f6020601f8301049050919050565b5f82821b905092915050565b5f600883026106a87fffffffffffffffffffffffffffffffffffffffffffffffffffffffffffffffff8261066d565b6106b2868361066d565b95508019841693508086168417925050509392505050565b5f819050919050565b5f819050919050565b5f6106f66106f16106ec846106ca565b6106d3565b6106ca565b9050919050565b5f819050919050565b61070f836106dc565b61072361071b826106fd565b848454610679565b825550505050565b5f5f905090565b61073a61072b565b610745818484610706565b505050565b5b818110156107685761075d5f82610732565b60018101905061074b565b5050565b601f8211156107ad5761077e8161064c565b6107878461065e565b81016020851015610796578190505b6107aa6107a28561065e565b83018261074a565b50505b505050565b5f82821c905092915050565b5f6107cd5f19846008026107b2565b1980831691505092915050565b5f6107e583836107be565b9150826002028217905092915050565b6107ff8383610615565b67ffffffffffffffff8111156108185761081761061f565b5b61082282546105e5565b61082d82828561076c565b5f601f83116001811461085a575f8415610848578287013590505b61085285826107da565b8655506108b9565b601f1984166108688661064c565b5f5b8281101561088f5784890135825560018201915060208501945060208101905061086a565b868310156108ac57848901356108a8601f8916826107be565b8355505b6001600288020188555050505b5050505050505056fea2646970667358221220d441d36fdfd9de72a5eb9ccfa4f4a99886c6cdb9c15da37d7abab2a2661b48e464736f6c634300081f0033",
			"opcodes": "PUSH1 0x80 PUSH1 0x40 MSTORE CALLVALUE DUP1 ISZERO PUSH1 0xE JUMPI PUSH0 PUSH0 REVERT JUMPDEST POP PUSH2 0x8F8 DUP1 PUSH2 0x1C PUSH0 CODECOPY PUSH0 RETURN INVALID PUSH1 0x80 PUSH1 0x40 MSTORE CALLVALUE DUP1 ISZERO PUSH2 0xF JUMPI PUSH0 PUSH0 REVERT JUMPDEST POP PUSH1 0x4 CALLDATASIZE LT PUSH2 0x34 JUMPI PUSH0 CALLDATALOAD PUSH1 0xE0 SHR DUP1 PUSH4 0x90F1C829 EQ PUSH2 0x38 JUMPI DUP1 PUSH4 0xAE1CA5E2 EQ PUSH2 0x5A JUMPI JUMPDEST PUSH0 PUSH0 REVERT JUMPDEST PUSH2 0x40 PUSH2 0x76 JUMP JUMPDEST PUSH1 0x40 MLOAD PUSH2 0x51 SWAP6 SWAP5 SWAP4 SWAP3 SWAP2 SWAP1 PUSH2 0x3C2 JUMP JUMPDEST PUSH1 0x40 MLOAD DUP1 SWAP2 SUB SWAP1 RETURN JUMPDEST PUSH2 0x74 PUSH1 0x4 DUP1 CALLDATASIZE SUB DUP2 ADD SWAP1 PUSH2 0x6F SWAP2 SWAP1 PUSH2 0x4C2 JUMP JUMPDEST PUSH2 0x2CD JUMP JUMPDEST STOP JUMPDEST PUSH1 0x60 DUP1 PUSH1 0x60 PUSH0 PUSH1 0x60 PUSH0 PUSH1 0x1 PUSH1 0x2 PUSH1 0x3 PUSH0 SWAP1 SLOAD SWAP1 PUSH2 0x100 EXP SWAP1 DIV PUSH1 0xFF AND PUSH1 0x4 DUP5 DUP1 SLOAD PUSH2 0xA0 SWAP1 PUSH2 0x5E5 JUMP JUMPDEST DUP1 PUSH1 0x1F ADD PUSH1 0x20 DUP1 SWAP2 DIV MUL PUSH1 0x20 ADD PUSH1 0x40 MLOAD SWAP1 DUP2 ADD PUSH1 0x40 MSTORE DUP1 SWAP3 SWAP2 SWAP1 DUP2 DUP2 MSTORE PUSH1 0x20 ADD DUP3 DUP1 SLOAD PUSH2 0xCC SWAP1 PUSH2 0x5E5 JUMP JUMPDEST DUP1 ISZERO PUSH2 0x117 JUMPI DUP1 PUSH1 0x1F LT PUSH2 0xEE JUMPI PUSH2 0x100 DUP1 DUP4 SLOAD DIV MUL DUP4 MSTORE SWAP2 PUSH1 0x20 ADD SWAP2 PUSH2 0x117 JUMP JUMPDEST DUP3 ADD SWAP2 SWAP1 PUSH0 MSTORE PUSH1 0x20 PUSH0 KECCAK256 SWAP1 JUMPDEST DUP2 SLOAD DUP2 MSTORE SWAP1 PUSH1 0x1 ADD SWAP1 PUSH1 0x20 ADD DUP1 DUP4 GT PUSH2 0xFA JUMPI DUP3 SWAP1 SUB PUSH1 0x1F AND DUP3 ADD SWAP2 JUMPDEST POP POP POP POP POP SWAP5 POP DUP4 DUP1 SLOAD PUSH2 0x12A SWAP1 PUSH2 0x5E5 JUMP JUMPDEST DUP1 PUSH1 0x1F ADD PUSH1 0x20 DUP1 SWAP2 DIV MUL PUSH1 0x20 ADD PUSH1 0x40 MLOAD SWAP1 DUP2 ADD PUSH1 0x40 MSTORE DUP1 SWAP3 SWAP2 SWAP1 DUP2 DUP2 MSTORE PUSH1 0x20 ADD DUP3 DUP1 SLOAD PUSH2 0x156 SWAP1 PUSH2 0x5E5 JUMP JUMPDEST DUP1 ISZERO PUSH2 0x1A1 JUMPI DUP1 PUSH1 0x1F LT PUSH2 0x178 JUMPI PUSH2 0x100 DUP1 DUP4 SLOAD DIV MUL DUP4 MSTORE SWAP2 PUSH1 0x20 ADD SWAP2 PUSH2 0x1A1 JUMP JUMPDEST DUP3 ADD SWAP2 SWAP1 PUSH0 MSTORE PUSH1 0x20 PUSH0 KECCAK256 SWAP1 JUMPDEST DUP2 SLOAD DUP2 MSTORE SWAP1 PUSH1 0x1 ADD SWAP1 PUSH1 0x20 ADD DUP1 DUP4 GT PUSH2 0x184 JUMPI DUP3 SWAP1 SUB PUSH1 0x1F AND DUP3 ADD SWAP2 JUMPDEST POP POP POP POP POP SWAP4 POP DUP3 DUP1 SLOAD PUSH2 0x1B4 SWAP1 PUSH2 0x5E5 JUMP JUMPDEST DUP1 PUSH1 0x1F ADD PUSH1 0x20 DUP1 SWAP2 DIV MUL PUSH1 0x20 ADD PUSH1 0x40 MLOAD SWAP1 DUP2 ADD PUSH1 0x40 MSTORE DUP1 SWAP3 SWAP2 SWAP1 DUP2 DUP2 MSTORE PUSH1 0x20 ADD DUP3 DUP1 SLOAD PUSH2 0x1E0 SWAP1 PUSH2 0x5E5 JUMP JUMPDEST DUP1 ISZERO PUSH2 0x22B JUMPI DUP1 PUSH1 0x1F LT PUSH2 0x202 JUMPI PUSH2 0x100 DUP1 DUP4 SLOAD DIV MUL DUP4 MSTORE SWAP2 PUSH1 0x20 ADD SWAP2 PUSH2 0x22B JUMP JUMPDEST DUP3 ADD SWAP2 SWAP1 PUSH0 MSTORE PUSH1 0x20 PUSH0 KECCAK256 SWAP1 JUMPDEST DUP2 SLOAD DUP2 MSTORE SWAP1 PUSH1 0x1 ADD SWAP1 PUSH1 0x20 ADD DUP1 DUP4 GT PUSH2 0x20E JUMPI DUP3 SWAP1 SUB PUSH1 0x1F AND DUP3 ADD SWAP2 JUMPDEST POP POP POP POP POP SWAP3 POP DUP1 DUP1 SLOAD PUSH2 0x23E SWAP1 PUSH2 0x5E5 JUMP JUMPDEST DUP1 PUSH1 0x1F ADD PUSH1 0x20 DUP1 SWAP2 DIV MUL PUSH1 0x20 ADD PUSH1 0x40 MLOAD SWAP1 DUP2 ADD PUSH1 0x40 MSTORE DUP1 SWAP3 SWAP2 SWAP1 DUP2 DUP2 MSTORE PUSH1 0x20 ADD DUP3 DUP1 SLOAD PUSH2 0x26A SWAP1 PUSH2 0x5E5 JUMP JUMPDEST DUP1 ISZERO PUSH2 0x2B5 JUMPI DUP1 PUSH1 0x1F LT PUSH2 0x28C JUMPI PUSH2 0x100 DUP1 DUP4 SLOAD DIV MUL DUP4 MSTORE SWAP2 PUSH1 0x20 ADD SWAP2 PUSH2 0x2B5 JUMP JUMPDEST DUP3 ADD SWAP2 SWAP1 PUSH0 MSTORE PUSH1 0x20 PUSH0 KECCAK256 SWAP1 JUMPDEST DUP2 SLOAD DUP2 MSTORE SWAP1 PUSH1 0x1 ADD SWAP1 PUSH1 0x20 ADD DUP1 DUP4 GT PUSH2 0x298 JUMPI DUP3 SWAP1 SUB PUSH1 0x1F AND DUP3 ADD SWAP2 JUMPDEST POP POP POP POP POP SWAP1 POP SWAP5 POP SWAP5 POP SWAP5 POP SWAP5 POP SWAP5 POP SWAP1 SWAP2 SWAP3 SWAP4 SWAP5 JUMP JUMPDEST DUP9 DUP9 PUSH0 SWAP2 DUP3 PUSH2 0x2DD SWAP3 SWAP2 SWAP1 PUSH2 0x7F5 JUMP JUMPDEST POP DUP7 DUP7 PUSH1 0x1 SWAP2 DUP3 PUSH2 0x2EF SWAP3 SWAP2 SWAP1 PUSH2 0x7F5 JUMP JUMPDEST POP DUP5 DUP5 PUSH1 0x2 SWAP2 DUP3 PUSH2 0x301 SWAP3 SWAP2 SWAP1 PUSH2 0x7F5 JUMP JUMPDEST POP DUP3 PUSH1 0x3 PUSH0 PUSH2 0x100 EXP DUP2 SLOAD DUP2 PUSH1 0xFF MUL NOT AND SWAP1 DUP4 ISZERO ISZERO MUL OR SWAP1 SSTORE POP DUP2 DUP2 PUSH1 0x4 SWAP2 DUP3 PUSH2 0x32C SWAP3 SWAP2 SWAP1 PUSH2 0x7F5 JUMP JUMPDEST POP POP POP POP POP POP POP POP POP POP JUMP JUMPDEST PUSH0 DUP2 MLOAD SWAP1 POP SWAP2 SWAP1 POP JUMP JUMPDEST PUSH0 DUP3 DUP3 MSTORE PUSH1 0x20 DUP3 ADD SWAP1 POP SWAP3 SWAP2 POP POP JUMP JUMPDEST DUP3 DUP2 DUP4 MCOPY PUSH0 DUP4 DUP4 ADD MSTORE POP POP POP JUMP JUMPDEST PUSH0 PUSH1 0x1F NOT PUSH1 0x1F DUP4 ADD AND SWAP1 POP SWAP2 SWAP1 POP JUMP JUMPDEST PUSH0 PUSH2 0x37A DUP3 PUSH2 0x338 JUMP JUMPDEST PUSH2 0x384 DUP2 DUP6 PUSH2 0x342 JUMP JUMPDEST SWAP4 POP PUSH2 0x394 DUP2 DUP6 PUSH1 0x20 DUP7 ADD PUSH2 0x352 JUMP JUMPDEST PUSH2 0x39D DUP2 PUSH2 0x360 JUMP JUMPDEST DUP5 ADD SWAP2 POP POP SWAP3 SWAP2 POP POP JUMP JUMPDEST PUSH0 DUP2 ISZERO ISZERO SWAP1 POP SWAP2 SWAP1 POP JUMP JUMPDEST PUSH2 0x3BC DUP2 PUSH2 0x3A8 JUMP JUMPDEST DUP3 MSTORE POP POP JUMP JUMPDEST PUSH0 PUSH1 0xA0 DUP3 ADD SWAP1 POP DUP2 DUP2 SUB PUSH0 DUP4 ADD MSTORE PUSH2 0x3DA DUP2 DUP9 PUSH2 0x370 JUMP JUMPDEST SWAP1 POP DUP2 DUP2 SUB PUSH1 0x20 DUP4 ADD MSTORE PUSH2 0x3EE DUP2 DUP8 PUSH2 0x370 JUMP JUMPDEST SWAP1 POP DUP2 DUP2 SUB PUSH1 0x40 DUP4 ADD MSTORE PUSH2 0x402 DUP2 DUP7 PUSH2 0x370 JUMP JUMPDEST SWAP1 POP PUSH2 0x411 PUSH1 0x60 DUP4 ADD DUP6 PUSH2 0x3B3 JUMP JUMPDEST DUP2 DUP2 SUB PUSH1 0x80 DUP4 ADD MSTORE PUSH2 0x423 DUP2 DUP5 PUSH2 0x370 JUMP JUMPDEST SWAP1 POP SWAP7 SWAP6 POP POP POP POP POP POP JUMP JUMPDEST PUSH0 PUSH0 REVERT JUMPDEST PUSH0 PUSH0 REVERT JUMPDEST PUSH0 PUSH0 REVERT JUMPDEST PUSH0 PUSH0 REVERT JUMPDEST PUSH0 PUSH0 REVERT JUMPDEST PUSH0 PUSH0 DUP4 PUSH1 0x1F DUP5 ADD SLT PUSH2 0x458 JUMPI PUSH2 0x457 PUSH2 0x437 JUMP JUMPDEST JUMPDEST DUP3 CALLDATALOAD SWAP1 POP PUSH8 0xFFFFFFFFFFFFFFFF DUP2 GT ISZERO PUSH2 0x475 JUMPI PUSH2 0x474 PUSH2 0x43B JUMP JUMPDEST JUMPDEST PUSH1 0x20 DUP4 ADD SWAP2 POP DUP4 PUSH1 0x1 DUP3 MUL DUP4 ADD GT ISZERO PUSH2 0x491 JUMPI PUSH2 0x490 PUSH2 0x43F JUMP JUMPDEST JUMPDEST SWAP3 POP SWAP3 SWAP1 POP JUMP JUMPDEST PUSH2 0x4A1 DUP2 PUSH2 0x3A8 JUMP JUMPDEST DUP2 EQ PUSH2 0x4AB JUMPI PUSH0 PUSH0 REVERT JUMPDEST POP JUMP JUMPDEST PUSH0 DUP2 CALLDATALOAD SWAP1 POP PUSH2 0x4BC DUP2 PUSH2 0x498 JUMP JUMPDEST SWAP3 SWAP2 POP POP JUMP JUMPDEST PUSH0 PUSH0 PUSH0 PUSH0 PUSH0 PUSH0 PUSH0 PUSH0 PUSH0 PUSH1 0xA0 DUP11 DUP13 SUB SLT ISZERO PUSH2 0x4DF JUMPI PUSH2 0x4DE PUSH2 0x42F JUMP JUMPDEST JUMPDEST PUSH0 DUP11 ADD CALLDATALOAD PUSH8 0xFFFFFFFFFFFFFFFF DUP2 GT ISZERO PUSH2 0x4FC JUMPI PUSH2 0x4FB PUSH2 0x433 JUMP JUMPDEST JUMPDEST PUSH2 0x508 DUP13 DUP3 DUP14 ADD PUSH2 0x443 JUMP JUMPDEST SWAP10 POP SWAP10 POP POP PUSH1 0x20 DUP11 ADD CALLDATALOAD PUSH8 0xFFFFFFFFFFFFFFFF DUP2 GT ISZERO PUSH2 0x52B JUMPI PUSH2 0x52A PUSH2 0x433 JUMP JUMPDEST JUMPDEST PUSH2 0x537 DUP13 DUP3 DUP14 ADD PUSH2 0x443 JUMP JUMPDEST SWAP8 POP SWAP8 POP POP PUSH1 0x40 DUP11 ADD CALLDATALOAD PUSH8 0xFFFFFFFFFFFFFFFF DUP2 GT ISZERO PUSH2 0x55A JUMPI PUSH2 0x559 PUSH2 0x433 JUMP JUMPDEST JUMPDEST PUSH2 0x566 DUP13 DUP3 DUP14 ADD PUSH2 0x443 JUMP JUMPDEST SWAP6 POP SWAP6 POP POP PUSH1 0x60 PUSH2 0x579 DUP13 DUP3 DUP14 ADD PUSH2 0x4AE JUMP JUMPDEST SWAP4 POP POP PUSH1 0x80 DUP11 ADD CALLDATALOAD PUSH8 0xFFFFFFFFFFFFFFFF DUP2 GT ISZERO PUSH2 0x59A JUMPI PUSH2 0x599 PUSH2 0x433 JUMP JUMPDEST JUMPDEST PUSH2 0x5A6 DUP13 DUP3 DUP14 ADD PUSH2 0x443 JUMP JUMPDEST SWAP3 POP SWAP3 POP POP SWAP3 SWAP6 SWAP9 POP SWAP3 SWAP6 SWAP9 POP SWAP3 SWAP6 SWAP9 JUMP JUMPDEST PUSH32 0x4E487B7100000000000000000000000000000000000000000000000000000000 PUSH0 MSTORE PUSH1 0x22 PUSH1 0x4 MSTORE PUSH1 0x24 PUSH0 REVERT JUMPDEST PUSH0 PUSH1 0x2 DUP3 DIV SWAP1 POP PUSH1 0x1 DUP3 AND DUP1 PUSH2 0x5FC JUMPI PUSH1 0x7F DUP3 AND SWAP2 POP JUMPDEST PUSH1 0x20 DUP3 LT DUP2 SUB PUSH2 0x60F JUMPI PUSH2 0x60E PUSH2 0x5B8 JUMP JUMPDEST JUMPDEST POP SWAP2 SWAP1 POP JUMP JUMPDEST PUSH0 DUP3 SWAP1 POP SWAP3 SWAP2 POP POP JUMP JUMPDEST PUSH32 0x4E487B7100000000000000000000000000000000000000000000000000000000 PUSH0 MSTORE PUSH1 0x41 PUSH1 0x4 MSTORE PUSH1 0x24 PUSH0 REVERT JUMPDEST PUSH0 DUP2 SWAP1 POP DUP2 PUSH0 MSTORE PUSH1 0x20 PUSH0 KECCAK256 SWAP1 POP SWAP2 SWAP1 POP JUMP JUMPDEST PUSH0 PUSH1 0x20 PUSH1 0x1F DUP4 ADD DIV SWAP1 POP SWAP2 SWAP1 POP JUMP JUMPDEST PUSH0 DUP3 DUP3 SHL SWAP1 POP SWAP3 SWAP2 POP POP JUMP JUMPDEST PUSH0 PUSH1 0x8 DUP4 MUL PUSH2 0x6A8 PUSH32 0xFFFFFFFFFFFFFFFFFFFFFFFFFFFFFFFFFFFFFFFFFFFFFFFFFFFFFFFFFFFFFFFF DUP3 PUSH2 0x66D JUMP JUMPDEST PUSH2 0x6B2 DUP7 DUP4 PUSH2 0x66D JUMP JUMPDEST SWAP6 POP DUP1 NOT DUP5 AND SWAP4 POP DUP1 DUP7 AND DUP5 OR SWAP3 POP POP POP SWAP4 SWAP3 POP POP POP JUMP JUMPDEST PUSH0 DUP2 SWAP1 POP SWAP2 SWAP1 POP JUMP JUMPDEST PUSH0 DUP2 SWAP1 POP SWAP2 SWAP1 POP JUMP JUMPDEST PUSH0 PUSH2 0x6F6 PUSH2 0x6F1 PUSH2 0x6EC DUP5 PUSH2 0x6CA JUMP JUMPDEST PUSH2 0x6D3 JUMP JUMPDEST PUSH2 0x6CA JUMP JUMPDEST SWAP1 POP SWAP2 SWAP1 POP JUMP JUMPDEST PUSH0 DUP2 SWAP1 POP SWAP2 SWAP1 POP JUMP JUMPDEST PUSH2 0x70F DUP4 PUSH2 0x6DC JUMP JUMPDEST PUSH2 0x723 PUSH2 0x71B DUP3 PUSH2 0x6FD JUMP JUMPDEST DUP5 DUP5 SLOAD PUSH2 0x679 JUMP JUMPDEST DUP3 SSTORE POP POP POP POP JUMP JUMPDEST PUSH0 PUSH0 SWAP1 POP SWAP1 JUMP JUMPDEST PUSH2 0x73A PUSH2 0x72B JUMP JUMPDEST PUSH2 0x745 DUP2 DUP5 DUP5 PUSH2 0x706 JUMP JUMPDEST POP POP POP JUMP JUMPDEST JUMPDEST DUP2 DUP2 LT ISZERO PUSH2 0x768 JUMPI PUSH2 0x75D PUSH0 DUP3 PUSH2 0x732 JUMP JUMPDEST PUSH1 0x1 DUP2 ADD SWAP1 POP PUSH2 0x74B JUMP JUMPDEST POP POP JUMP JUMPDEST PUSH1 0x1F DUP3 GT ISZERO PUSH2 0x7AD JUMPI PUSH2 0x77E DUP2 PUSH2 0x64C JUMP JUMPDEST PUSH2 0x787 DUP5 PUSH2 0x65E JUMP JUMPDEST DUP2 ADD PUSH1 0x20 DUP6 LT ISZERO PUSH2 0x796 JUMPI DUP2 SWAP1 POP JUMPDEST PUSH2 0x7AA PUSH2 0x7A2 DUP6 PUSH2 0x65E JUMP JUMPDEST DUP4 ADD DUP3 PUSH2 0x74A JUMP JUMPDEST POP POP JUMPDEST POP POP POP JUMP JUMPDEST PUSH0 DUP3 DUP3 SHR SWAP1 POP SWAP3 SWAP2 POP POP JUMP JUMPDEST PUSH0 PUSH2 0x7CD PUSH0 NOT DUP5 PUSH1 0x8 MUL PUSH2 0x7B2 JUMP JUMPDEST NOT DUP1 DUP4 AND SWAP2 POP POP SWAP3 SWAP2 POP POP JUMP JUMPDEST PUSH0 PUSH2 0x7E5 DUP4 DUP4 PUSH2 0x7BE JUMP JUMPDEST SWAP2 POP DUP3 PUSH1 0x2 MUL DUP3 OR SWAP1 POP SWAP3 SWAP2 POP POP JUMP JUMPDEST PUSH2 0x7FF DUP4 DUP4 PUSH2 0x615 JUMP JUMPDEST PUSH8 0xFFFFFFFFFFFFFFFF DUP2 GT ISZERO PUSH2 0x818 JUMPI PUSH2 0x817 PUSH2 0x61F JUMP JUMPDEST JUMPDEST PUSH2 0x822 DUP3 SLOAD PUSH2 0x5E5 JUMP JUMPDEST PUSH2 0x82D DUP3 DUP3 DUP6 PUSH2 0x76C JUMP JUMPDEST PUSH0 PUSH1 0x1F DUP4 GT PUSH1 0x1 DUP2 EQ PUSH2 0x85A JUMPI PUSH0 DUP5 ISZERO PUSH2 0x848 JUMPI DUP3 DUP8 ADD CALLDATALOAD SWAP1 POP JUMPDEST PUSH2 0x852 DUP6 DUP3 PUSH2 0x7DA JUMP JUMPDEST DUP7 SSTORE POP PUSH2 0x8B9 JUMP JUMPDEST PUSH1 0x1F NOT DUP5 AND PUSH2 0x868 DUP7 PUSH2 0x64C JUMP JUMPDEST PUSH0 JUMPDEST DUP3 DUP2 LT ISZERO PUSH2 0x88F JUMPI DUP5 DUP10 ADD CALLDATALOAD DUP3 SSTORE PUSH1 0x1 DUP3 ADD SWAP2 POP PUSH1 0x20 DUP6 ADD SWAP5 POP PUSH1 0x20 DUP2 ADD SWAP1 POP PUSH2 0x86A JUMP JUMPDEST DUP7 DUP4 LT ISZERO PUSH2 0x8AC JUMPI DUP5 DUP10 ADD CALLDATALOAD PUSH2 0x8A8 PUSH1 0x1F DUP10 AND DUP3 PUSH2 0x7BE JUMP JUMPDEST DUP4 SSTORE POP JUMPDEST PUSH1 0x1 PUSH1 0x2 DUP9 MUL ADD DUP9 SSTORE POP POP POP JUMPDEST POP POP POP POP POP POP POP JUMP INVALID LOG2 PUSH5 0x6970667358 0x22 SLT KECCAK256 0xD4 COINBASE 0xD3 PUSH16 0xDFD9DE72A5EB9CCFA4F4A99886C6CDB9 0xC1 TSTORE LOG3 PUSH30 0x7ABAB2A2661B48E464736F6C634300081F00330000000000000000000000 "
		},
		"gasEstimates": {
			"creation": {
				"codeDepositCost": "459200",
				"executionCost": "491",
				"totalCost": "459691"
			},
			"external": {
				"get_profile()": "infinite",
				"set_profile(string,string,string,bool,string)": "infinite"
			}
		},
		"methodIdentifiers": {
			"get_profile()": "90f1c829",
			"set_profile(string,string,string,bool,string)": "ae1ca5e2"
		}
	},
	"abi": [
		{
			"inputs": [],
			"name": "get_profile",
			"outputs": [
				{
					"internalType": "string",
					"name": "",
					"type": "string"
				},
				{
					"internalType": "string",
					"name": "",
					"type": "string"
				},
				{
					"internalType": "string",
					"name": "",
					"type": "string"
				},
				{
					"internalType": "bool",
					"name": "",
					"type": "bool"
				},
				{
					"internalType": "string",
					"name": "",
					"type": "string"
				}
			],
			"stateMutability": "view",
			"type": "function"
		},
		{
			"inputs": [
				{
					"internalType": "string",
					"name": "_yourname",
					"type": "string"
				},
				{
					"internalType": "string",
					"name": "_youremail",
					"type": "string"
				},
				{
					"internalType": "string",
					"name": "_yourhomeaddress",
					"type": "string"
				},
				{
					"internalType": "bool",
					"name": "_areyoustudent",
					"type": "bool"
				},
				{
					"internalType": "string",
					"name": "_yourbio",
					"type": "string"
				}
			],
			"name": "set_profile",
			"outputs": [],
			"stateMutability": "nonpayable",
			"type": "function"
		}
	]
}