{"abi":[{"type":"function","name":"registerVault","inputs":[{"name":"user","type":"address","internalType":"address"},{"name":"vault","type":"address","internalType":"address"}],"outputs":[],"stateMutability":"nonpayable"},{"type":"function","name":"totalVaults","inputs":[{"name":"user","type":"address","internalType":"address"}],"outputs":[{"name":"","type":"uint256","internalType":"uint256"}],"stateMutability":"view"},{"type":"function","name":"transferVaultOwnership","inputs":[{"name":"vault","type":"address","internalType":"address"},{"name":"newOwner","type":"address","internalType":"address"}],"outputs":[],"stateMutability":"nonpayable"},{"type":"function","name":"userVaults","inputs":[{"name":"","type":"address","internalType":"address"},{"name":"","type":"uint256","internalType":"uint256"}],"outputs":[{"name":"","type":"address","internalType":"address"}],"stateMutability":"view"},{"type":"event","name":"OwnershipTransferred","inputs":[{"name":"from","type":"address","indexed":true,"internalType":"address"},{"name":"to","type":"address","indexed":true,"internalType":"address"},{"name":"vault","type":"address","indexed":false,"internalType":"address"}],"anonymous":false},{"type":"event","name":"VaultCreated","inputs":[{"name":"user","type":"address","indexed":true,"internalType":"address"},{"name":"vault","type":"address","indexed":false,"internalType":"address"}],"anonymous":false}],"bytecode":{"object":"0x6080604052348015600e575f5ffd5b506103c68061001c5f395ff3fe608060405234801561000f575f5ffd5b506004361061004a575f3560e01c806305c4fdf91461004e5780638c294fc8146100635780639c841fef1461009e578063fdc10daf146100c9575b5f5ffd5b61006161005c3660046102f2565b6100dc565b005b61008b610071366004610329565b6001600160a01b03165f9081526020819052604090205490565b6040519081526020015b60405180910390f35b6100b16100ac36600461034b565b610151565b6040516001600160a01b039091168152602001610095565b6100616100d73660046102f2565b610184565b6001600160a01b038281165f8181526020818152604080832080546001810182559084529282902090920180546001600160a01b0319169486169485179055905192835290917f5d9c31ffa0fecffd7cf379989a3c7af252f0335e0d2a1320b55245912c781f53910160405180910390a25050565b5f602052815f5260405f208181548110610169575f80fd5b5f918252602090912001546001600160a01b03169150829050565b5f829050806001600160a01b0316638da5cb5b6040518163ffffffff1660e01b8152600401602060405180830381865afa1580156101c4573d5f5f3e3d5ffd5b505050506040513d601f19601f820116820180604052508101906101e89190610375565b6001600160a01b0316336001600160a01b03161461023e5760405162461bcd60e51b815260206004820152600f60248201526e2737ba103b30bab63a1037bbb732b960891b604482015260640160405180910390fd5b60405163f2fde38b60e01b81526001600160a01b03838116600483015282169063f2fde38b906024015f604051808303815f87803b15801561027e575f5ffd5b505af1158015610290573d5f5f3e3d5ffd5b50506040516001600160a01b038681168252851692503391507fc8894f26f396ce8c004245c8b7cd1b92103a6e4302fcbab883987149ac01b7ec9060200160405180910390a3505050565b6001600160a01b03811681146102ef575f5ffd5b50565b5f5f60408385031215610303575f5ffd5b823561030e816102db565b9150602083013561031e816102db565b809150509250929050565b5f60208284031215610339575f5ffd5b8135610344816102db565b9392505050565b5f5f6040838503121561035c575f5ffd5b8235610367816102db565b946020939093013593505050565b5f60208284031215610385575f5ffd5b8151610344816102db56fea264697066735822122089c3186a93e705c9814bbaaf42defed1136bee6908b80ca7cd077e2dce3ca15864736f6c634300081e0033","linkReferences":{}},"methodIdentifiers":{"registerVault(address,address)":"05c4fdf9","totalVaults(address)":"8c294fc8","transferVaultOwnership(address,address)":"fdc10daf","userVaults(address,uint256)":"9c841fef"},"id":25}